{
	"Documents/GitHub/Store-system-with-feedback/main.sol": {
		"coursepaper": {
			"abi": [
				{
					"inputs": [],
					"stateMutability": "nonpayable",
					"type": "constructor"
				},
				{
					"inputs": [
						{
							"internalType": "uint256",
							"name": "idMarriageRegistration",
							"type": "uint256"
						},
						{
							"internalType": "bool",
							"name": "confirmation",
							"type": "bool"
						}
					],
					"name": "MarriageRegistration",
					"outputs": [],
					"stateMutability": "nonpayable",
					"type": "function"
				},
				{
					"inputs": [
						{
							"internalType": "uint256",
							"name": "idPurchase",
							"type": "uint256"
						},
						{
							"internalType": "bool",
							"name": "confirmation",
							"type": "bool"
						}
					],
					"name": "acceptPurchase",
					"outputs": [],
					"stateMutability": "nonpayable",
					"type": "function"
				},
				{
					"inputs": [
						{
							"internalType": "uint256",
							"name": "idReturn",
							"type": "uint256"
						},
						{
							"internalType": "bool",
							"name": "confirmation",
							"type": "bool"
						}
					],
					"name": "acceptReturn",
					"outputs": [],
					"stateMutability": "nonpayable",
					"type": "function"
				},
				{
					"inputs": [
						{
							"internalType": "string",
							"name": "title",
							"type": "string"
						},
						{
							"internalType": "uint256",
							"name": "price",
							"type": "uint256"
						},
						{
							"internalType": "string",
							"name": "description",
							"type": "string"
						}
					],
					"name": "addProductShop",
					"outputs": [],
					"stateMutability": "nonpayable",
					"type": "function"
				},
				{
					"inputs": [
						{
							"internalType": "uint256",
							"name": "",
							"type": "uint256"
						}
					],
					"name": "complaintBooks",
					"outputs": [
						{
							"internalType": "string",
							"name": "shop",
							"type": "string"
						},
						{
							"internalType": "string",
							"name": "userName",
							"type": "string"
						},
						{
							"internalType": "string",
							"name": "feedback",
							"type": "string"
						},
						{
							"internalType": "uint256",
							"name": "rating",
							"type": "uint256"
						}
					],
					"stateMutability": "view",
					"type": "function"
				},
				{
					"inputs": [],
					"name": "getProductList",
					"outputs": [
						{
							"internalType": "string[]",
							"name": "",
							"type": "string[]"
						}
					],
					"stateMutability": "view",
					"type": "function"
				},
				{
					"inputs": [],
					"name": "getShopList",
					"outputs": [
						{
							"internalType": "string[]",
							"name": "",
							"type": "string[]"
						}
					],
					"stateMutability": "view",
					"type": "function"
				},
				{
					"inputs": [
						{
							"internalType": "string",
							"name": "shopName",
							"type": "string"
						}
					],
					"name": "getStoryRating",
					"outputs": [
						{
							"internalType": "uint256",
							"name": "",
							"type": "uint256"
						}
					],
					"stateMutability": "view",
					"type": "function"
				},
				{
					"inputs": [
						{
							"internalType": "string",
							"name": "shop",
							"type": "string"
						},
						{
							"internalType": "string",
							"name": "feedback",
							"type": "string"
						},
						{
							"internalType": "uint256",
							"name": "rating",
							"type": "uint256"
						}
					],
					"name": "leaveFeedback",
					"outputs": [],
					"stateMutability": "nonpayable",
					"type": "function"
				},
				{
					"inputs": [
						{
							"internalType": "string",
							"name": "titleProduct",
							"type": "string"
						}
					],
					"name": "productMarriageRegistration",
					"outputs": [],
					"stateMutability": "nonpayable",
					"type": "function"
				},
				{
					"inputs": [
						{
							"internalType": "string",
							"name": "titleProduct",
							"type": "string"
						}
					],
					"name": "productPurchases",
					"outputs": [],
					"stateMutability": "nonpayable",
					"type": "function"
				},
				{
					"inputs": [
						{
							"internalType": "string",
							"name": "titleProduct",
							"type": "string"
						}
					],
					"name": "productReturn",
					"outputs": [],
					"stateMutability": "nonpayable",
					"type": "function"
				},
				{
					"inputs": [
						{
							"internalType": "string",
							"name": "",
							"type": "string"
						}
					],
					"name": "shopLists",
					"outputs": [
						{
							"internalType": "address",
							"name": "",
							"type": "address"
						}
					],
					"stateMutability": "view",
					"type": "function"
				},
				{
					"inputs": [
						{
							"internalType": "uint256",
							"name": "",
							"type": "uint256"
						}
					],
					"name": "structMarriageRegistrations",
					"outputs": [
						{
							"internalType": "address",
							"name": "userLogin",
							"type": "address"
						},
						{
							"internalType": "string",
							"name": "titleProduct",
							"type": "string"
						},
						{
							"internalType": "bool",
							"name": "status",
							"type": "bool"
						}
					],
					"stateMutability": "view",
					"type": "function"
				},
				{
					"inputs": [
						{
							"internalType": "string",
							"name": "",
							"type": "string"
						}
					],
					"name": "structProducts",
					"outputs": [
						{
							"internalType": "address",
							"name": "shop",
							"type": "address"
						},
						{
							"internalType": "string",
							"name": "description",
							"type": "string"
						},
						{
							"internalType": "uint256",
							"name": "price",
							"type": "uint256"
						},
						{
							"internalType": "uint256",
							"name": "id",
							"type": "uint256"
						}
					],
					"stateMutability": "view",
					"type": "function"
				},
				{
					"inputs": [
						{
							"internalType": "uint256",
							"name": "",
							"type": "uint256"
						}
					],
					"name": "structStatusPurchases",
					"outputs": [
						{
							"internalType": "address",
							"name": "userLogin",
							"type": "address"
						},
						{
							"internalType": "string",
							"name": "titleProduct",
							"type": "string"
						},
						{
							"internalType": "bool",
							"name": "status",
							"type": "bool"
						}
					],
					"stateMutability": "view",
					"type": "function"
				},
				{
					"inputs": [
						{
							"internalType": "uint256",
							"name": "",
							"type": "uint256"
						}
					],
					"name": "structStatusReturns",
					"outputs": [
						{
							"internalType": "address",
							"name": "userLogin",
							"type": "address"
						},
						{
							"internalType": "string",
							"name": "titleProduct",
							"type": "string"
						},
						{
							"internalType": "bool",
							"name": "status",
							"type": "bool"
						}
					],
					"stateMutability": "view",
					"type": "function"
				},
				{
					"inputs": [
						{
							"internalType": "string",
							"name": "",
							"type": "string"
						}
					],
					"name": "structUserLogins",
					"outputs": [
						{
							"internalType": "address",
							"name": "",
							"type": "address"
						}
					],
					"stateMutability": "view",
					"type": "function"
				},
				{
					"inputs": [
						{
							"internalType": "address",
							"name": "",
							"type": "address"
						}
					],
					"name": "structUsers",
					"outputs": [
						{
							"internalType": "string",
							"name": "userName",
							"type": "string"
						},
						{
							"internalType": "uint256",
							"name": "password",
							"type": "uint256"
						},
						{
							"internalType": "uint256",
							"name": "ballance",
							"type": "uint256"
						}
					],
					"stateMutability": "view",
					"type": "function"
				}
			],
			"devdoc": {
				"kind": "dev",
				"methods": {},
				"version": 1
			},
			"evm": {
				"assembly": "    /* \"Documents/GitHub/Store-system-with-feedback/main.sol\":74:6972  contract coursepaper {\r... */\n  mstore(0x40, 0x80)\n    /* \"Documents/GitHub/Store-system-with-feedback/main.sol\":2953:2954  0 */\n  0x00\n    /* \"Documents/GitHub/Store-system-with-feedback/main.sol\":2918:2954  uint256 addProductShop_idProduct = 0 */\n  0x0c\n  sstore\n    /* \"Documents/GitHub/Store-system-with-feedback/main.sol\":3313:3314  0 */\n  0x00\n    /* \"Documents/GitHub/Store-system-with-feedback/main.sol\":3287:3314  uint countLeaveFeedback = 0 */\n  0x0d\n  sstore\n    /* \"Documents/GitHub/Store-system-with-feedback/main.sol\":129:981  constructor() public {\r... */\n  callvalue\n  dup1\n  iszero\n  tag_1\n  jumpi\n  0x00\n  dup1\n  revert\ntag_1:\n  pop\n    /* \"Documents/GitHub/Store-system-with-feedback/main.sol\":232:274  structShop(\"Food\", \"1\", \"Moscow\", 1000, 0) */\n  mload(0x40)\n  dup1\n  0xa0\n  add\n  0x40\n  mstore\n  dup1\n  mload(0x40)\n  dup1\n  0x40\n  add\n  0x40\n  mstore\n  dup1\n  0x04\n  dup2\n  mstore\n  0x20\n  add\n  0x466f6f6400000000000000000000000000000000000000000000000000000000\n  dup2\n  mstore\n  pop\n  dup2\n  mstore\n  0x20\n  add\n  mload(0x40)\n  dup1\n  0x40\n  add\n  0x40\n  mstore\n  dup1\n  0x01\n  dup2\n  mstore\n  0x20\n  add\n  0x3100000000000000000000000000000000000000000000000000000000000000\n  dup2\n  mstore\n  pop\n  dup2\n  mstore\n  0x20\n  add\n  mload(0x40)\n  dup1\n  0x40\n  add\n  0x40\n  mstore\n  dup1\n  0x06\n  dup2\n  mstore\n  0x20\n  add\n  0x4d6f73636f770000000000000000000000000000000000000000000000000000\n  dup2\n  mstore\n  pop\n  dup2\n  mstore\n  0x20\n  add\n    /* \"Documents/GitHub/Store-system-with-feedback/main.sol\":266:270  1000 */\n  0x03e8\n    /* \"Documents/GitHub/Store-system-with-feedback/main.sol\":232:274  structShop(\"Food\", \"1\", \"Moscow\", 1000, 0) */\n  dup2\n  mstore\n  0x20\n  add\n    /* \"Documents/GitHub/Store-system-with-feedback/main.sol\":272:273  0 */\n  0x00\n    /* \"Documents/GitHub/Store-system-with-feedback/main.sol\":232:274  structShop(\"Food\", \"1\", \"Moscow\", 1000, 0) */\n  dup2\n  mstore\n  pop\n    /* \"Documents/GitHub/Store-system-with-feedback/main.sol\":180:185  shops */\n  0x00\n    /* \"Documents/GitHub/Store-system-with-feedback/main.sol\":180:229  shops[0x5B38Da6a701c568545dCfcB03FcB875f56beddC4] */\n  dup1\n    /* \"Documents/GitHub/Store-system-with-feedback/main.sol\":186:228  0x5B38Da6a701c568545dCfcB03FcB875f56beddC4 */\n  0x5b38da6a701c568545dcfcb03fcb875f56beddc4\n    /* \"Documents/GitHub/Store-system-with-feedback/main.sol\":180:229  shops[0x5B38Da6a701c568545dCfcB03FcB875f56beddC4] */\n  0xffffffffffffffffffffffffffffffffffffffff\n  and\n  0xffffffffffffffffffffffffffffffffffffffff\n  and\n  dup2\n  mstore\n  0x20\n  add\n  swap1\n  dup2\n  mstore\n  0x20\n  add\n  0x00\n  keccak256\n    /* \"Documents/GitHub/Store-system-with-feedback/main.sol\":180:274  shops[0x5B38Da6a701c568545dCfcB03FcB875f56beddC4] = structShop(\"Food\", \"1\", \"Moscow\", 1000, 0) */\n  0x00\n  dup3\n  add\n  mload\n  dup2\n  0x00\n  add\n  swap1\n  dup1\n  mload\n  swap1\n  0x20\n  add\n  swap1\n  tag_4\n  swap3\n  swap2\n  swap1\n  tag_5\n  jump\t// in\ntag_4:\n  pop\n  0x20\n  dup3\n  add\n  mload\n  dup2\n  0x01\n  add\n  swap1\n  dup1\n  mload\n  swap1\n  0x20\n  add\n  swap1\n  tag_6\n  swap3\n  swap2\n  swap1\n  tag_5\n  jump\t// in\ntag_6:\n  pop\n  0x40\n  dup3\n  add\n  mload\n  dup2\n  0x02\n  add\n  swap1\n  dup1\n  mload\n  swap1\n  0x20\n  add\n  swap1\n  tag_7\n  swap3\n  swap2\n  swap1\n  tag_5\n  jump\t// in\ntag_7:\n  pop\n  0x60\n  dup3\n  add\n  mload\n  dup2\n  0x03\n  add\n  sstore\n  0x80\n  dup3\n  add\n  mload\n  dup2\n  0x04\n  add\n  sstore\n  swap1\n  pop\n  pop\n    /* \"Documents/GitHub/Store-system-with-feedback/main.sol\":285:293  shopList */\n  0x02\n    /* \"Documents/GitHub/Store-system-with-feedback/main.sol\":299:304  shops */\n  0x00\n    /* \"Documents/GitHub/Store-system-with-feedback/main.sol\":299:348  shops[0x5B38Da6a701c568545dCfcB03FcB875f56beddC4] */\n  dup1\n    /* \"Documents/GitHub/Store-system-with-feedback/main.sol\":305:347  0x5B38Da6a701c568545dCfcB03FcB875f56beddC4 */\n  0x5b38da6a701c568545dcfcb03fcb875f56beddc4\n    /* \"Documents/GitHub/Store-system-with-feedback/main.sol\":299:348  shops[0x5B38Da6a701c568545dCfcB03FcB875f56beddC4] */\n  0xffffffffffffffffffffffffffffffffffffffff\n  and\n  0xffffffffffffffffffffffffffffffffffffffff\n  and\n  dup2\n  mstore\n  0x20\n  add\n  swap1\n  dup2\n  mstore\n  0x20\n  add\n  0x00\n  keccak256\n    /* \"Documents/GitHub/Store-system-with-feedback/main.sol\":299:353  shops[0x5B38Da6a701c568545dCfcB03FcB875f56beddC4].name */\n  0x00\n  add\n    /* \"Documents/GitHub/Store-system-with-feedback/main.sol\":285:354  shopList.push(shops[0x5B38Da6a701c568545dCfcB03FcB875f56beddC4].name) */\n  swap1\n  dup1\n  0x01\n  dup2\n  sload\n  add\n  dup1\n  dup3\n  sstore\n  dup1\n  swap2\n  pop\n  pop\n  0x01\n  swap1\n  sub\n  swap1\n  0x00\n  mstore\n  keccak256(0x00, 0x20)\n  add\n  0x00\n  swap1\n  swap2\n  swap1\n  swap2\n  swap1\n  swap2\n  pop\n  swap1\n  dup1\n  sload\n  tag_9\n  swap1\n  tag_10\n  jump\t// in\ntag_9:\n  tag_11\n  swap3\n  swap2\n  swap1\n  tag_12\n  jump\t// in\ntag_11:\n  pop\n    /* \"Documents/GitHub/Store-system-with-feedback/main.sol\":417:466  structShop(\"Clothes\", \"2\", \"Petersburg\", 1000, 0) */\n  mload(0x40)\n  dup1\n  0xa0\n  add\n  0x40\n  mstore\n  dup1\n  mload(0x40)\n  dup1\n  0x40\n  add\n  0x40\n  mstore\n  dup1\n  0x07\n  dup2\n  mstore\n  0x20\n  add\n  0x436c6f7468657300000000000000000000000000000000000000000000000000\n  dup2\n  mstore\n  pop\n  dup2\n  mstore\n  0x20\n  add\n  mload(0x40)\n  dup1\n  0x40\n  add\n  0x40\n  mstore\n  dup1\n  0x01\n  dup2\n  mstore\n  0x20\n  add\n  0x3200000000000000000000000000000000000000000000000000000000000000\n  dup2\n  mstore\n  pop\n  dup2\n  mstore\n  0x20\n  add\n  mload(0x40)\n  dup1\n  0x40\n  add\n  0x40\n  mstore\n  dup1\n  0x0a\n  dup2\n  mstore\n  0x20\n  add\n  0x5065746572736275726700000000000000000000000000000000000000000000\n  dup2\n  mstore\n  pop\n  dup2\n  mstore\n  0x20\n  add\n    /* \"Documents/GitHub/Store-system-with-feedback/main.sol\":458:462  1000 */\n  0x03e8\n    /* \"Documents/GitHub/Store-system-with-feedback/main.sol\":417:466  structShop(\"Clothes\", \"2\", \"Petersburg\", 1000, 0) */\n  dup2\n  mstore\n  0x20\n  add\n    /* \"Documents/GitHub/Store-system-with-feedback/main.sol\":464:465  0 */\n  0x00\n    /* \"Documents/GitHub/Store-system-with-feedback/main.sol\":417:466  structShop(\"Clothes\", \"2\", \"Petersburg\", 1000, 0) */\n  dup2\n  mstore\n  pop\n    /* \"Documents/GitHub/Store-system-with-feedback/main.sol\":365:370  shops */\n  0x00\n    /* \"Documents/GitHub/Store-system-with-feedback/main.sol\":365:414  shops[0xAb8483F64d9C6d1EcF9b849Ae677dD3315835cb2] */\n  dup1\n    /* \"Documents/GitHub/Store-system-with-feedback/main.sol\":371:413  0xAb8483F64d9C6d1EcF9b849Ae677dD3315835cb2 */\n  0xab8483f64d9c6d1ecf9b849ae677dd3315835cb2\n    /* \"Documents/GitHub/Store-system-with-feedback/main.sol\":365:414  shops[0xAb8483F64d9C6d1EcF9b849Ae677dD3315835cb2] */\n  0xffffffffffffffffffffffffffffffffffffffff\n  and\n  0xffffffffffffffffffffffffffffffffffffffff\n  and\n  dup2\n  mstore\n  0x20\n  add\n  swap1\n  dup2\n  mstore\n  0x20\n  add\n  0x00\n  keccak256\n    /* \"Documents/GitHub/Store-system-with-feedback/main.sol\":365:466  shops[0xAb8483F64d9C6d1EcF9b849Ae677dD3315835cb2] = structShop(\"Clothes\", \"2\", \"Petersburg\", 1000, 0) */\n  0x00\n  dup3\n  add\n  mload\n  dup2\n  0x00\n  add\n  swap1\n  dup1\n  mload\n  swap1\n  0x20\n  add\n  swap1\n  tag_13\n  swap3\n  swap2\n  swap1\n  tag_5\n  jump\t// in\ntag_13:\n  pop\n  0x20\n  dup3\n  add\n  mload\n  dup2\n  0x01\n  add\n  swap1\n  dup1\n  mload\n  swap1\n  0x20\n  add\n  swap1\n  tag_14\n  swap3\n  swap2\n  swap1\n  tag_5\n  jump\t// in\ntag_14:\n  pop\n  0x40\n  dup3\n  add\n  mload\n  dup2\n  0x02\n  add\n  swap1\n  dup1\n  mload\n  swap1\n  0x20\n  add\n  swap1\n  tag_15\n  swap3\n  swap2\n  swap1\n  tag_5\n  jump\t// in\ntag_15:\n  pop\n  0x60\n  dup3\n  add\n  mload\n  dup2\n  0x03\n  add\n  sstore\n  0x80\n  dup3\n  add\n  mload\n  dup2\n  0x04\n  add\n  sstore\n  swap1\n  pop\n  pop\n    /* \"Documents/GitHub/Store-system-with-feedback/main.sol\":477:485  shopList */\n  0x02\n    /* \"Documents/GitHub/Store-system-with-feedback/main.sol\":491:496  shops */\n  0x00\n    /* \"Documents/GitHub/Store-system-with-feedback/main.sol\":491:540  shops[0xAb8483F64d9C6d1EcF9b849Ae677dD3315835cb2] */\n  dup1\n    /* \"Documents/GitHub/Store-system-with-feedback/main.sol\":497:539  0xAb8483F64d9C6d1EcF9b849Ae677dD3315835cb2 */\n  0xab8483f64d9c6d1ecf9b849ae677dd3315835cb2\n    /* \"Documents/GitHub/Store-system-with-feedback/main.sol\":491:540  shops[0xAb8483F64d9C6d1EcF9b849Ae677dD3315835cb2] */\n  0xffffffffffffffffffffffffffffffffffffffff\n  and\n  0xffffffffffffffffffffffffffffffffffffffff\n  and\n  dup2\n  mstore\n  0x20\n  add\n  swap1\n  dup2\n  mstore\n  0x20\n  add\n  0x00\n  keccak256\n    /* \"Documents/GitHub/Store-system-with-feedback/main.sol\":491:545  shops[0xAb8483F64d9C6d1EcF9b849Ae677dD3315835cb2].name */\n  0x00\n  add\n    /* \"Documents/GitHub/Store-system-with-feedback/main.sol\":477:546  shopList.push(shops[0xAb8483F64d9C6d1EcF9b849Ae677dD3315835cb2].name) */\n  swap1\n  dup1\n  0x01\n  dup2\n  sload\n  add\n  dup1\n  dup3\n  sstore\n  dup1\n  swap2\n  pop\n  pop\n  0x01\n  swap1\n  sub\n  swap1\n  0x00\n  mstore\n  keccak256(0x00, 0x20)\n  add\n  0x00\n  swap1\n  swap2\n  swap1\n  swap2\n  swap1\n  swap2\n  pop\n  swap1\n  dup1\n  sload\n  tag_17\n  swap1\n  tag_10\n  jump\t// in\ntag_17:\n  tag_18\n  swap3\n  swap2\n  swap1\n  tag_12\n  jump\t// in\ntag_18:\n  pop\n    /* \"Documents/GitHub/Store-system-with-feedback/main.sol\":609:662  structShop(\"Pet Store\", \"3\", \"Ekaterinburg\", 1000, 0) */\n  mload(0x40)\n  dup1\n  0xa0\n  add\n  0x40\n  mstore\n  dup1\n  mload(0x40)\n  dup1\n  0x40\n  add\n  0x40\n  mstore\n  dup1\n  0x09\n  dup2\n  mstore\n  0x20\n  add\n  0x5065742053746f72650000000000000000000000000000000000000000000000\n  dup2\n  mstore\n  pop\n  dup2\n  mstore\n  0x20\n  add\n  mload(0x40)\n  dup1\n  0x40\n  add\n  0x40\n  mstore\n  dup1\n  0x01\n  dup2\n  mstore\n  0x20\n  add\n  0x3300000000000000000000000000000000000000000000000000000000000000\n  dup2\n  mstore\n  pop\n  dup2\n  mstore\n  0x20\n  add\n  mload(0x40)\n  dup1\n  0x40\n  add\n  0x40\n  mstore\n  dup1\n  0x0c\n  dup2\n  mstore\n  0x20\n  add\n  0x456b61746572696e627572670000000000000000000000000000000000000000\n  dup2\n  mstore\n  pop\n  dup2\n  mstore\n  0x20\n  add\n    /* \"Documents/GitHub/Store-system-with-feedback/main.sol\":654:658  1000 */\n  0x03e8\n    /* \"Documents/GitHub/Store-system-with-feedback/main.sol\":609:662  structShop(\"Pet Store\", \"3\", \"Ekaterinburg\", 1000, 0) */\n  dup2\n  mstore\n  0x20\n  add\n    /* \"Documents/GitHub/Store-system-with-feedback/main.sol\":660:661  0 */\n  0x00\n    /* \"Documents/GitHub/Store-system-with-feedback/main.sol\":609:662  structShop(\"Pet Store\", \"3\", \"Ekaterinburg\", 1000, 0) */\n  dup2\n  mstore\n  pop\n    /* \"Documents/GitHub/Store-system-with-feedback/main.sol\":557:562  shops */\n  0x00\n    /* \"Documents/GitHub/Store-system-with-feedback/main.sol\":557:606  shops[0x4B20993Bc481177ec7E8f571ceCaE8A9e22C02db] */\n  dup1\n    /* \"Documents/GitHub/Store-system-with-feedback/main.sol\":563:605  0x4B20993Bc481177ec7E8f571ceCaE8A9e22C02db */\n  0x4b20993bc481177ec7e8f571cecae8a9e22c02db\n    /* \"Documents/GitHub/Store-system-with-feedback/main.sol\":557:606  shops[0x4B20993Bc481177ec7E8f571ceCaE8A9e22C02db] */\n  0xffffffffffffffffffffffffffffffffffffffff\n  and\n  0xffffffffffffffffffffffffffffffffffffffff\n  and\n  dup2\n  mstore\n  0x20\n  add\n  swap1\n  dup2\n  mstore\n  0x20\n  add\n  0x00\n  keccak256\n    /* \"Documents/GitHub/Store-system-with-feedback/main.sol\":557:662  shops[0x4B20993Bc481177ec7E8f571ceCaE8A9e22C02db] = structShop(\"Pet Store\", \"3\", \"Ekaterinburg\", 1000, 0) */\n  0x00\n  dup3\n  add\n  mload\n  dup2\n  0x00\n  add\n  swap1\n  dup1\n  mload\n  swap1\n  0x20\n  add\n  swap1\n  tag_19\n  swap3\n  swap2\n  swap1\n  tag_5\n  jump\t// in\ntag_19:\n  pop\n  0x20\n  dup3\n  add\n  mload\n  dup2\n  0x01\n  add\n  swap1\n  dup1\n  mload\n  swap1\n  0x20\n  add\n  swap1\n  tag_20\n  swap3\n  swap2\n  swap1\n  tag_5\n  jump\t// in\ntag_20:\n  pop\n  0x40\n  dup3\n  add\n  mload\n  dup2\n  0x02\n  add\n  swap1\n  dup1\n  mload\n  swap1\n  0x20\n  add\n  swap1\n  tag_21\n  swap3\n  swap2\n  swap1\n  tag_5\n  jump\t// in\ntag_21:\n  pop\n  0x60\n  dup3\n  add\n  mload\n  dup2\n  0x03\n  add\n  sstore\n  0x80\n  dup3\n  add\n  mload\n  dup2\n  0x04\n  add\n  sstore\n  swap1\n  pop\n  pop\n    /* \"Documents/GitHub/Store-system-with-feedback/main.sol\":673:681  shopList */\n  0x02\n    /* \"Documents/GitHub/Store-system-with-feedback/main.sol\":687:692  shops */\n  0x00\n    /* \"Documents/GitHub/Store-system-with-feedback/main.sol\":687:736  shops[0x4B20993Bc481177ec7E8f571ceCaE8A9e22C02db] */\n  dup1\n    /* \"Documents/GitHub/Store-system-with-feedback/main.sol\":693:735  0x4B20993Bc481177ec7E8f571ceCaE8A9e22C02db */\n  0x4b20993bc481177ec7e8f571cecae8a9e22c02db\n    /* \"Documents/GitHub/Store-system-with-feedback/main.sol\":687:736  shops[0x4B20993Bc481177ec7E8f571ceCaE8A9e22C02db] */\n  0xffffffffffffffffffffffffffffffffffffffff\n  and\n  0xffffffffffffffffffffffffffffffffffffffff\n  and\n  dup2\n  mstore\n  0x20\n  add\n  swap1\n  dup2\n  mstore\n  0x20\n  add\n  0x00\n  keccak256\n    /* \"Documents/GitHub/Store-system-with-feedback/main.sol\":687:741  shops[0x4B20993Bc481177ec7E8f571ceCaE8A9e22C02db].name */\n  0x00\n  add\n    /* \"Documents/GitHub/Store-system-with-feedback/main.sol\":673:742  shopList.push(shops[0x4B20993Bc481177ec7E8f571ceCaE8A9e22C02db].name) */\n  swap1\n  dup1\n  0x01\n  dup2\n  sload\n  add\n  dup1\n  dup3\n  sstore\n  dup1\n  swap2\n  pop\n  pop\n  0x01\n  swap1\n  sub\n  swap1\n  0x00\n  mstore\n  keccak256(0x00, 0x20)\n  add\n  0x00\n  swap1\n  swap2\n  swap1\n  swap2\n  swap1\n  swap2\n  pop\n  swap1\n  dup1\n  sload\n  tag_23\n  swap1\n  tag_10\n  jump\t// in\ntag_23:\n  tag_24\n  swap3\n  swap2\n  swap1\n  tag_12\n  jump\t// in\ntag_24:\n  pop\n    /* \"Documents/GitHub/Store-system-with-feedback/main.sol\":800:842  0x78731D3Ca6b7E34aC0F824c42a7cC18A495cabaB */\n  0x78731d3ca6b7e34ac0f824c42a7cc18a495cabab\n    /* \"Documents/GitHub/Store-system-with-feedback/main.sol\":773:789  structUserLogins */\n  0x05\n    /* \"Documents/GitHub/Store-system-with-feedback/main.sol\":773:797  structUserLogins[\"Peta\"] */\n  mload(0x40)\n  tag_25\n  swap1\n  tag_26\n  jump\t// in\ntag_25:\n  swap1\n  dup2\n  mstore\n  0x20\n  add\n  mload(0x40)\n  dup1\n  swap2\n  sub\n  swap1\n  keccak256\n  0x00\n    /* \"Documents/GitHub/Store-system-with-feedback/main.sol\":773:842  structUserLogins[\"Peta\"] = 0x78731D3Ca6b7E34aC0F824c42a7cC18A495cabaB */\n  0x0100\n  exp\n  dup2\n  sload\n  dup2\n  0xffffffffffffffffffffffffffffffffffffffff\n  mul\n  not\n  and\n  swap1\n  dup4\n  0xffffffffffffffffffffffffffffffffffffffff\n  and\n  mul\n  or\n  swap1\n  sstore\n  pop\n    /* \"Documents/GitHub/Store-system-with-feedback/main.sol\":911:938  structUser(\"Peta\" ,1, 1000) */\n  mload(0x40)\n  dup1\n  0x60\n  add\n  0x40\n  mstore\n  dup1\n  mload(0x40)\n  dup1\n  0x40\n  add\n  0x40\n  mstore\n  dup1\n  0x04\n  dup2\n  mstore\n  0x20\n  add\n  0x5065746100000000000000000000000000000000000000000000000000000000\n  dup2\n  mstore\n  pop\n  dup2\n  mstore\n  0x20\n  add\n    /* \"Documents/GitHub/Store-system-with-feedback/main.sol\":930:931  1 */\n  0x01\n    /* \"Documents/GitHub/Store-system-with-feedback/main.sol\":911:938  structUser(\"Peta\" ,1, 1000) */\n  dup2\n  mstore\n  0x20\n  add\n    /* \"Documents/GitHub/Store-system-with-feedback/main.sol\":933:937  1000 */\n  0x03e8\n    /* \"Documents/GitHub/Store-system-with-feedback/main.sol\":911:938  structUser(\"Peta\" ,1, 1000) */\n  dup2\n  mstore\n  pop\n    /* \"Documents/GitHub/Store-system-with-feedback/main.sol\":853:864  structUsers */\n  0x04\n    /* \"Documents/GitHub/Store-system-with-feedback/main.sol\":853:908  structUsers[0x78731D3Ca6b7E34aC0F824c42a7cC18A495cabaB] */\n  0x00\n    /* \"Documents/GitHub/Store-system-with-feedback/main.sol\":865:907  0x78731D3Ca6b7E34aC0F824c42a7cC18A495cabaB */\n  0x78731d3ca6b7e34ac0f824c42a7cc18a495cabab\n    /* \"Documents/GitHub/Store-system-with-feedback/main.sol\":853:908  structUsers[0x78731D3Ca6b7E34aC0F824c42a7cC18A495cabaB] */\n  0xffffffffffffffffffffffffffffffffffffffff\n  and\n  0xffffffffffffffffffffffffffffffffffffffff\n  and\n  dup2\n  mstore\n  0x20\n  add\n  swap1\n  dup2\n  mstore\n  0x20\n  add\n  0x00\n  keccak256\n    /* \"Documents/GitHub/Store-system-with-feedback/main.sol\":853:938  structUsers[0x78731D3Ca6b7E34aC0F824c42a7cC18A495cabaB] = structUser(\"Peta\" ,1, 1000) */\n  0x00\n  dup3\n  add\n  mload\n  dup2\n  0x00\n  add\n  swap1\n  dup1\n  mload\n  swap1\n  0x20\n  add\n  swap1\n  tag_27\n  swap3\n  swap2\n  swap1\n  tag_5\n  jump\t// in\ntag_27:\n  pop\n  0x20\n  dup3\n  add\n  mload\n  dup2\n  0x01\n  add\n  sstore\n  0x40\n  dup3\n  add\n  mload\n  dup2\n  0x02\n  add\n  sstore\n  swap1\n  pop\n  pop\n    /* \"Documents/GitHub/Store-system-with-feedback/main.sol\":949:964  userLoginsArray */\n  0x06\n    /* \"Documents/GitHub/Store-system-with-feedback/main.sol\":949:977  userLoginsArray.push(\"Peta\") */\n  dup1\n  0x01\n  dup2\n  sload\n  add\n  dup1\n  dup3\n  sstore\n  dup1\n  swap2\n  pop\n  pop\n  0x01\n  swap1\n  sub\n  swap1\n  0x00\n  mstore\n  keccak256(0x00, 0x20)\n  add\n  0x00\n  mload(0x40)\n  dup1\n  0x40\n  add\n  0x40\n  mstore\n  dup1\n  0x04\n  dup2\n  mstore\n  0x20\n  add\n  0x5065746100000000000000000000000000000000000000000000000000000000\n  dup2\n  mstore\n  pop\n  swap1\n  swap2\n  swap1\n  swap2\n  pop\n  swap1\n  dup1\n  mload\n  swap1\n  0x20\n  add\n  swap1\n  tag_29\n  swap3\n  swap2\n  swap1\n  tag_5\n  jump\t// in\ntag_29:\n  pop\n    /* \"Documents/GitHub/Store-system-with-feedback/main.sol\":74:6972  contract coursepaper {\r... */\n  jump(tag_30)\ntag_5:\n  dup3\n  dup1\n  sload\n  tag_31\n  swap1\n  tag_10\n  jump\t// in\ntag_31:\n  swap1\n  0x00\n  mstore\n  keccak256(0x00, 0x20)\n  swap1\n  0x1f\n  add\n  0x20\n  swap1\n  div\n  dup2\n  add\n  swap3\n  dup3\n  tag_33\n  jumpi\n  0x00\n  dup6\n  sstore\n  jump(tag_32)\ntag_33:\n  dup3\n  0x1f\n  lt\n  tag_34\n  jumpi\n  dup1\n  mload\n  not(0xff)\n  and\n  dup4\n  dup1\n  add\n  or\n  dup6\n  sstore\n  jump(tag_32)\ntag_34:\n  dup3\n  dup1\n  add\n  0x01\n  add\n  dup6\n  sstore\n  dup3\n  iszero\n  tag_32\n  jumpi\n  swap2\n  dup3\n  add\ntag_35:\n  dup3\n  dup2\n  gt\n  iszero\n  tag_36\n  jumpi\n  dup3\n  mload\n  dup3\n  sstore\n  swap2\n  0x20\n  add\n  swap2\n  swap1\n  0x01\n  add\n  swap1\n  jump(tag_35)\ntag_36:\ntag_32:\n  pop\n  swap1\n  pop\n  tag_37\n  swap2\n  swap1\n  tag_38\n  jump\t// in\ntag_37:\n  pop\n  swap1\n  jump\t// out\ntag_12:\n  dup3\n  dup1\n  sload\n  tag_39\n  swap1\n  tag_10\n  jump\t// in\ntag_39:\n  swap1\n  0x00\n  mstore\n  keccak256(0x00, 0x20)\n  swap1\n  0x1f\n  add\n  0x20\n  swap1\n  div\n  dup2\n  add\n  swap3\n  dup3\n  tag_41\n  jumpi\n  0x00\n  dup6\n  sstore\n  jump(tag_40)\ntag_41:\n  dup3\n  0x1f\n  lt\n  tag_42\n  jumpi\n  dup1\n  sload\n  dup6\n  sstore\n  jump(tag_40)\ntag_42:\n  dup3\n  dup1\n  add\n  0x01\n  add\n  dup6\n  sstore\n  dup3\n  iszero\n  tag_40\n  jumpi\n  0x00\n  mstore\n  keccak256(0x00, 0x20)\n  swap2\n  0x1f\n  add\n  0x20\n  swap1\n  div\n  dup3\n  add\ntag_43:\n  dup3\n  dup2\n  gt\n  iszero\n  tag_44\n  jumpi\n  dup3\n  sload\n  dup3\n  sstore\n  swap2\n  0x01\n  add\n  swap2\n  swap1\n  0x01\n  add\n  swap1\n  jump(tag_43)\ntag_44:\ntag_40:\n  pop\n  swap1\n  pop\n  tag_45\n  swap2\n  swap1\n  tag_38\n  jump\t// in\ntag_45:\n  pop\n  swap1\n  jump\t// out\ntag_38:\ntag_46:\n  dup1\n  dup3\n  gt\n  iszero\n  tag_47\n  jumpi\n  0x00\n  dup2\n  0x00\n  swap1\n  sstore\n  pop\n  0x01\n  add\n  jump(tag_46)\ntag_47:\n  pop\n  swap1\n  jump\t// out\n    /* \"#utility.yul\":7:407   */\ntag_49:\n    /* \"#utility.yul\":167:170   */\n  0x00\n    /* \"#utility.yul\":188:272   */\n  tag_51\n    /* \"#utility.yul\":270:271   */\n  0x04\n    /* \"#utility.yul\":265:268   */\n  dup4\n    /* \"#utility.yul\":188:272   */\n  tag_52\n  jump\t// in\ntag_51:\n    /* \"#utility.yul\":181:272   */\n  swap2\n  pop\n    /* \"#utility.yul\":281:374   */\n  tag_53\n    /* \"#utility.yul\":370:373   */\n  dup3\n    /* \"#utility.yul\":281:374   */\n  tag_54\n  jump\t// in\ntag_53:\n    /* \"#utility.yul\":399:400   */\n  0x04\n    /* \"#utility.yul\":394:397   */\n  dup3\n    /* \"#utility.yul\":390:401   */\n  add\n    /* \"#utility.yul\":383:401   */\n  swap1\n  pop\n    /* \"#utility.yul\":7:407   */\n  swap2\n  swap1\n  pop\n  jump\t// out\n    /* \"#utility.yul\":413:794   */\ntag_26:\n    /* \"#utility.yul\":598:601   */\n  0x00\n    /* \"#utility.yul\":620:768   */\n  tag_56\n    /* \"#utility.yul\":764:767   */\n  dup3\n    /* \"#utility.yul\":620:768   */\n  tag_49\n  jump\t// in\ntag_56:\n    /* \"#utility.yul\":613:768   */\n  swap2\n  pop\n    /* \"#utility.yul\":785:788   */\n  dup2\n    /* \"#utility.yul\":778:788   */\n  swap1\n  pop\n    /* \"#utility.yul\":413:794   */\n  swap2\n  swap1\n  pop\n  jump\t// out\n    /* \"#utility.yul\":800:948   */\ntag_52:\n    /* \"#utility.yul\":902:913   */\n  0x00\n    /* \"#utility.yul\":939:942   */\n  dup2\n    /* \"#utility.yul\":924:942   */\n  swap1\n  pop\n    /* \"#utility.yul\":800:948   */\n  swap3\n  swap2\n  pop\n  pop\n  jump\t// out\n    /* \"#utility.yul\":954:1274   */\ntag_10:\n    /* \"#utility.yul\":998:1004   */\n  0x00\n    /* \"#utility.yul\":1035:1036   */\n  0x02\n    /* \"#utility.yul\":1029:1033   */\n  dup3\n    /* \"#utility.yul\":1025:1037   */\n  div\n    /* \"#utility.yul\":1015:1037   */\n  swap1\n  pop\n    /* \"#utility.yul\":1082:1083   */\n  0x01\n    /* \"#utility.yul\":1076:1080   */\n  dup3\n    /* \"#utility.yul\":1072:1084   */\n  and\n    /* \"#utility.yul\":1103:1121   */\n  dup1\n    /* \"#utility.yul\":1093:1174   */\n  tag_59\n  jumpi\n    /* \"#utility.yul\":1159:1163   */\n  0x7f\n    /* \"#utility.yul\":1151:1157   */\n  dup3\n    /* \"#utility.yul\":1147:1164   */\n  and\n    /* \"#utility.yul\":1137:1164   */\n  swap2\n  pop\n    /* \"#utility.yul\":1093:1174   */\ntag_59:\n    /* \"#utility.yul\":1221:1223   */\n  0x20\n    /* \"#utility.yul\":1213:1219   */\n  dup3\n    /* \"#utility.yul\":1210:1224   */\n  lt\n    /* \"#utility.yul\":1190:1208   */\n  dup2\n    /* \"#utility.yul\":1187:1225   */\n  eq\n    /* \"#utility.yul\":1184:1268   */\n  iszero\n  tag_60\n  jumpi\n    /* \"#utility.yul\":1240:1258   */\n  tag_61\n  tag_62\n  jump\t// in\ntag_61:\n    /* \"#utility.yul\":1184:1268   */\ntag_60:\n    /* \"#utility.yul\":1005:1274   */\n  pop\n    /* \"#utility.yul\":954:1274   */\n  swap2\n  swap1\n  pop\n  jump\t// out\n    /* \"#utility.yul\":1280:1460   */\ntag_62:\n    /* \"#utility.yul\":1328:1405   */\n  0x4e487b7100000000000000000000000000000000000000000000000000000000\n    /* \"#utility.yul\":1325:1326   */\n  0x00\n    /* \"#utility.yul\":1318:1406   */\n  mstore\n    /* \"#utility.yul\":1425:1429   */\n  0x22\n    /* \"#utility.yul\":1422:1423   */\n  0x04\n    /* \"#utility.yul\":1415:1430   */\n  mstore\n    /* \"#utility.yul\":1449:1453   */\n  0x24\n    /* \"#utility.yul\":1446:1447   */\n  0x00\n    /* \"#utility.yul\":1439:1454   */\n  revert\n    /* \"#utility.yul\":1466:1620   */\ntag_54:\n    /* \"#utility.yul\":1606:1612   */\n  0x5065746100000000000000000000000000000000000000000000000000000000\n    /* \"#utility.yul\":1602:1603   */\n  0x00\n    /* \"#utility.yul\":1594:1600   */\n  dup3\n    /* \"#utility.yul\":1590:1604   */\n  add\n    /* \"#utility.yul\":1583:1613   */\n  mstore\n    /* \"#utility.yul\":1466:1620   */\n  pop\n  jump\t// out\n    /* \"Documents/GitHub/Store-system-with-feedback/main.sol\":74:6972  contract coursepaper {\r... */\ntag_30:\n  dataSize(sub_0)\n  dup1\n  dataOffset(sub_0)\n  0x00\n  codecopy\n  0x00\n  return\nstop\n\nsub_0: assembly {\n        /* \"Documents/GitHub/Store-system-with-feedback/main.sol\":74:6972  contract coursepaper {\r... */\n      mstore(0x40, 0x80)\n      callvalue\n      dup1\n      iszero\n      tag_1\n      jumpi\n      0x00\n      dup1\n      revert\n    tag_1:\n      pop\n      jumpi(tag_2, lt(calldatasize, 0x04))\n      shr(0xe0, calldataload(0x00))\n      dup1\n      0x961865f0\n      gt\n      tag_22\n      jumpi\n      dup1\n      0xc4957fa0\n      gt\n      tag_23\n      jumpi\n      dup1\n      0xc4957fa0\n      eq\n      tag_17\n      jumpi\n      dup1\n      0xcc21c188\n      eq\n      tag_18\n      jumpi\n      dup1\n      0xd68cf8c1\n      eq\n      tag_19\n      jumpi\n      dup1\n      0xdce39151\n      eq\n      tag_20\n      jumpi\n      dup1\n      0xf69483c1\n      eq\n      tag_21\n      jumpi\n      jump(tag_2)\n    tag_23:\n      dup1\n      0x961865f0\n      eq\n      tag_12\n      jumpi\n      dup1\n      0xa985036d\n      eq\n      tag_13\n      jumpi\n      dup1\n      0xa9f9482b\n      eq\n      tag_14\n      jumpi\n      dup1\n      0xbbd43363\n      eq\n      tag_15\n      jumpi\n      dup1\n      0xc178b9af\n      eq\n      tag_16\n      jumpi\n      jump(tag_2)\n    tag_22:\n      dup1\n      0x2ccdef7c\n      gt\n      tag_24\n      jumpi\n      dup1\n      0x2ccdef7c\n      eq\n      tag_7\n      jumpi\n      dup1\n      0x2d4673e3\n      eq\n      tag_8\n      jumpi\n      dup1\n      0x34d2c0ad\n      eq\n      tag_9\n      jumpi\n      dup1\n      0x6c05dd1d\n      eq\n      tag_10\n      jumpi\n      dup1\n      0x7ddb273d\n      eq\n      tag_11\n      jumpi\n      jump(tag_2)\n    tag_24:\n      dup1\n      0x08f4d2c6\n      eq\n      tag_3\n      jumpi\n      dup1\n      0x0c72b1ec\n      eq\n      tag_4\n      jumpi\n      dup1\n      0x146dc6ed\n      eq\n      tag_5\n      jumpi\n      dup1\n      0x1bbe970a\n      eq\n      tag_6\n      jumpi\n    tag_2:\n      0x00\n      dup1\n      revert\n        /* \"Documents/GitHub/Store-system-with-feedback/main.sol\":1623:1660  complaintBook[] public complaintBooks */\n    tag_3:\n      tag_25\n      0x04\n      dup1\n      calldatasize\n      sub\n      dup2\n      add\n      swap1\n      tag_26\n      swap2\n      swap1\n      tag_27\n      jump\t// in\n    tag_26:\n      tag_28\n      jump\t// in\n    tag_25:\n      mload(0x40)\n      tag_29\n      swap5\n      swap4\n      swap3\n      swap2\n      swap1\n      tag_30\n      jump\t// in\n    tag_29:\n      mload(0x40)\n      dup1\n      swap2\n      sub\n      swap1\n      return\n        /* \"Documents/GitHub/Store-system-with-feedback/main.sol\":3734:4362  function acceptPurchase (uint idPurchase, bool confirmation) public {\r... */\n    tag_4:\n      tag_31\n      0x04\n      dup1\n      calldatasize\n      sub\n      dup2\n      add\n      swap1\n      tag_32\n      swap2\n      swap1\n      tag_33\n      jump\t// in\n    tag_32:\n      tag_34\n      jump\t// in\n    tag_31:\n      stop\n        /* \"Documents/GitHub/Store-system-with-feedback/main.sol\":6248:6519  function productPurchases (string memory titleProduct) public {\r... */\n    tag_5:\n      tag_35\n      0x04\n      dup1\n      calldatasize\n      sub\n      dup2\n      add\n      swap1\n      tag_36\n      swap2\n      swap1\n      tag_37\n      jump\t// in\n    tag_36:\n      tag_38\n      jump\t// in\n    tag_35:\n      stop\n        /* \"Documents/GitHub/Store-system-with-feedback/main.sol\":1862:1912  mapping(string => address) public structUserLogins */\n    tag_6:\n      tag_39\n      0x04\n      dup1\n      calldatasize\n      sub\n      dup2\n      add\n      swap1\n      tag_40\n      swap2\n      swap1\n      tag_37\n      jump\t// in\n    tag_40:\n      tag_41\n      jump\t// in\n    tag_39:\n      mload(0x40)\n      tag_42\n      swap2\n      swap1\n      tag_43\n      jump\t// in\n    tag_42:\n      mload(0x40)\n      dup1\n      swap2\n      sub\n      swap1\n      return\n        /* \"Documents/GitHub/Store-system-with-feedback/main.sol\":4407:4868  function acceptReturn(uint idReturn, bool confirmation) public {\r... */\n    tag_7:\n      tag_44\n      0x04\n      dup1\n      calldatasize\n      sub\n      dup2\n      add\n      swap1\n      tag_45\n      swap2\n      swap1\n      tag_33\n      jump\t// in\n    tag_45:\n      tag_46\n      jump\t// in\n    tag_44:\n      stop\n        /* \"Documents/GitHub/Store-system-with-feedback/main.sol\":6758:6942  function productMarriageRegistration (string memory titleProduct) public {\r... */\n    tag_8:\n      tag_47\n      0x04\n      dup1\n      calldatasize\n      sub\n      dup2\n      add\n      swap1\n      tag_48\n      swap2\n      swap1\n      tag_37\n      jump\t// in\n    tag_48:\n      tag_49\n      jump\t// in\n    tag_47:\n      stop\n        /* \"Documents/GitHub/Store-system-with-feedback/main.sol\":5655:5755  function getProductList() public view returns(string[] memory) {\r... */\n    tag_9:\n      tag_50\n      tag_51\n      jump\t// in\n    tag_50:\n      mload(0x40)\n      tag_52\n      swap2\n      swap1\n      tag_53\n      jump\t// in\n    tag_52:\n      mload(0x40)\n      dup1\n      swap2\n      sub\n      swap1\n      return\n        /* \"Documents/GitHub/Store-system-with-feedback/main.sol\":2961:3242  function addProductShop (string memory title, uint256 price, string memory description) public {\r... */\n    tag_10:\n      tag_54\n      0x04\n      dup1\n      calldatasize\n      sub\n      dup2\n      add\n      swap1\n      tag_55\n      swap2\n      swap1\n      tag_56\n      jump\t// in\n    tag_55:\n      tag_57\n      jump\t// in\n    tag_54:\n      stop\n        /* \"Documents/GitHub/Store-system-with-feedback/main.sol\":2776:2839  structMarriageRegistration[] public structMarriageRegistrations */\n    tag_11:\n      tag_58\n      0x04\n      dup1\n      calldatasize\n      sub\n      dup2\n      add\n      swap1\n      tag_59\n      swap2\n      swap1\n      tag_27\n      jump\t// in\n    tag_59:\n      tag_60\n      jump\t// in\n    tag_58:\n      mload(0x40)\n      tag_61\n      swap4\n      swap3\n      swap2\n      swap1\n      tag_62\n      jump\t// in\n    tag_61:\n      mload(0x40)\n      dup1\n      swap2\n      sub\n      swap1\n      return\n        /* \"Documents/GitHub/Store-system-with-feedback/main.sol\":1806:1855  mapping(address => structUser) public structUsers */\n    tag_12:\n      tag_63\n      0x04\n      dup1\n      calldatasize\n      sub\n      dup2\n      add\n      swap1\n      tag_64\n      swap2\n      swap1\n      tag_65\n      jump\t// in\n    tag_64:\n      tag_66\n      jump\t// in\n    tag_63:\n      mload(0x40)\n      tag_67\n      swap4\n      swap3\n      swap2\n      swap1\n      tag_68\n      jump\t// in\n    tag_67:\n      mload(0x40)\n      dup1\n      swap2\n      sub\n      swap1\n      return\n        /* \"Documents/GitHub/Store-system-with-feedback/main.sol\":5787:6163  function getStoryRating(string memory shopName) public view returns(uint) {\r... */\n    tag_13:\n      tag_69\n      0x04\n      dup1\n      calldatasize\n      sub\n      dup2\n      add\n      swap1\n      tag_70\n      swap2\n      swap1\n      tag_37\n      jump\t// in\n    tag_70:\n      tag_71\n      jump\t// in\n    tag_69:\n      mload(0x40)\n      tag_72\n      swap2\n      swap1\n      tag_73\n      jump\t// in\n    tag_72:\n      mload(0x40)\n      dup1\n      swap2\n      sub\n      swap1\n      return\n        /* \"Documents/GitHub/Store-system-with-feedback/main.sol\":2556:2603  structStatusReturn[] public structStatusReturns */\n    tag_14:\n      tag_74\n      0x04\n      dup1\n      calldatasize\n      sub\n      dup2\n      add\n      swap1\n      tag_75\n      swap2\n      swap1\n      tag_27\n      jump\t// in\n    tag_75:\n      tag_76\n      jump\t// in\n    tag_74:\n      mload(0x40)\n      tag_77\n      swap4\n      swap3\n      swap2\n      swap1\n      tag_62\n      jump\t// in\n    tag_77:\n      mload(0x40)\n      dup1\n      swap2\n      sub\n      swap1\n      return\n        /* \"Documents/GitHub/Store-system-with-feedback/main.sol\":6558:6712  function productReturn (string memory titleProduct) public {\r... */\n    tag_15:\n      tag_78\n      0x04\n      dup1\n      calldatasize\n      sub\n      dup2\n      add\n      swap1\n      tag_79\n      swap2\n      swap1\n      tag_37\n      jump\t// in\n    tag_79:\n      tag_80\n      jump\t// in\n    tag_78:\n      stop\n        /* \"Documents/GitHub/Store-system-with-feedback/main.sol\":5525:5619  function getShopList() public view returns(string[] memory) {\r... */\n    tag_16:\n      tag_81\n      tag_82\n      jump\t// in\n    tag_81:\n      mload(0x40)\n      tag_83\n      swap2\n      swap1\n      tag_53\n      jump\t// in\n    tag_83:\n      mload(0x40)\n      dup1\n      swap2\n      sub\n      swap1\n      return\n        /* \"Documents/GitHub/Store-system-with-feedback/main.sol\":1297:1340  mapping(string => address) public shopLists */\n    tag_17:\n      tag_84\n      0x04\n      dup1\n      calldatasize\n      sub\n      dup2\n      add\n      swap1\n      tag_85\n      swap2\n      swap1\n      tag_37\n      jump\t// in\n    tag_85:\n      tag_86\n      jump\t// in\n    tag_84:\n      mload(0x40)\n      tag_87\n      swap2\n      swap1\n      tag_43\n      jump\t// in\n    tag_87:\n      mload(0x40)\n      dup1\n      swap2\n      sub\n      swap1\n      return\n        /* \"Documents/GitHub/Store-system-with-feedback/main.sol\":3321:3687  function leaveFeedback (string memory shop, string memory feedback, uint256 rating) public {\r... */\n    tag_18:\n      tag_88\n      0x04\n      dup1\n      calldatasize\n      sub\n      dup2\n      add\n      swap1\n      tag_89\n      swap2\n      swap1\n      tag_90\n      jump\t// in\n    tag_89:\n      tag_91\n      jump\t// in\n    tag_88:\n      stop\n        /* \"Documents/GitHub/Store-system-with-feedback/main.sol\":2105:2159  mapping(string => structProduct) public structProducts */\n    tag_19:\n      tag_92\n      0x04\n      dup1\n      calldatasize\n      sub\n      dup2\n      add\n      swap1\n      tag_93\n      swap2\n      swap1\n      tag_37\n      jump\t// in\n    tag_93:\n      tag_94\n      jump\t// in\n    tag_92:\n      mload(0x40)\n      tag_95\n      swap5\n      swap4\n      swap3\n      swap2\n      swap1\n      tag_96\n      jump\t// in\n    tag_95:\n      mload(0x40)\n      dup1\n      swap2\n      sub\n      swap1\n      return\n        /* \"Documents/GitHub/Store-system-with-feedback/main.sol\":2348:2399  structStatusPurchase[] public structStatusPurchases */\n    tag_20:\n      tag_97\n      0x04\n      dup1\n      calldatasize\n      sub\n      dup2\n      add\n      swap1\n      tag_98\n      swap2\n      swap1\n      tag_27\n      jump\t// in\n    tag_98:\n      tag_99\n      jump\t// in\n    tag_97:\n      mload(0x40)\n      tag_100\n      swap4\n      swap3\n      swap2\n      swap1\n      tag_62\n      jump\t// in\n    tag_100:\n      mload(0x40)\n      dup1\n      swap2\n      sub\n      swap1\n      return\n        /* \"Documents/GitHub/Store-system-with-feedback/main.sol\":4914:5491  function MarriageRegistration(uint idMarriageRegistration, bool confirmation) public {\r... */\n    tag_21:\n      tag_101\n      0x04\n      dup1\n      calldatasize\n      sub\n      dup2\n      add\n      swap1\n      tag_102\n      swap2\n      swap1\n      tag_33\n      jump\t// in\n    tag_102:\n      tag_103\n      jump\t// in\n    tag_101:\n      stop\n        /* \"Documents/GitHub/Store-system-with-feedback/main.sol\":1623:1660  complaintBook[] public complaintBooks */\n    tag_28:\n      0x03\n      dup2\n      dup2\n      sload\n      dup2\n      lt\n      tag_104\n      jumpi\n      0x00\n      dup1\n      revert\n    tag_104:\n      swap1\n      0x00\n      mstore\n      keccak256(0x00, 0x20)\n      swap1\n      0x05\n      mul\n      add\n      0x00\n      swap2\n      pop\n      swap1\n      pop\n      dup1\n      0x00\n      add\n      dup1\n      sload\n      tag_106\n      swap1\n      tag_107\n      jump\t// in\n    tag_106:\n      dup1\n      0x1f\n      add\n      0x20\n      dup1\n      swap2\n      div\n      mul\n      0x20\n      add\n      mload(0x40)\n      swap1\n      dup2\n      add\n      0x40\n      mstore\n      dup1\n      swap3\n      swap2\n      swap1\n      dup2\n      dup2\n      mstore\n      0x20\n      add\n      dup3\n      dup1\n      sload\n      tag_108\n      swap1\n      tag_107\n      jump\t// in\n    tag_108:\n      dup1\n      iszero\n      tag_109\n      jumpi\n      dup1\n      0x1f\n      lt\n      tag_110\n      jumpi\n      0x0100\n      dup1\n      dup4\n      sload\n      div\n      mul\n      dup4\n      mstore\n      swap2\n      0x20\n      add\n      swap2\n      jump(tag_109)\n    tag_110:\n      dup3\n      add\n      swap2\n      swap1\n      0x00\n      mstore\n      keccak256(0x00, 0x20)\n      swap1\n    tag_111:\n      dup2\n      sload\n      dup2\n      mstore\n      swap1\n      0x01\n      add\n      swap1\n      0x20\n      add\n      dup1\n      dup4\n      gt\n      tag_111\n      jumpi\n      dup3\n      swap1\n      sub\n      0x1f\n      and\n      dup3\n      add\n      swap2\n    tag_109:\n      pop\n      pop\n      pop\n      pop\n      pop\n      swap1\n      dup1\n      0x01\n      add\n      dup1\n      sload\n      tag_112\n      swap1\n      tag_107\n      jump\t// in\n    tag_112:\n      dup1\n      0x1f\n      add\n      0x20\n      dup1\n      swap2\n      div\n      mul\n      0x20\n      add\n      mload(0x40)\n      swap1\n      dup2\n      add\n      0x40\n      mstore\n      dup1\n      swap3\n      swap2\n      swap1\n      dup2\n      dup2\n      mstore\n      0x20\n      add\n      dup3\n      dup1\n      sload\n      tag_113\n      swap1\n      tag_107\n      jump\t// in\n    tag_113:\n      dup1\n      iszero\n      tag_114\n      jumpi\n      dup1\n      0x1f\n      lt\n      tag_115\n      jumpi\n      0x0100\n      dup1\n      dup4\n      sload\n      div\n      mul\n      dup4\n      mstore\n      swap2\n      0x20\n      add\n      swap2\n      jump(tag_114)\n    tag_115:\n      dup3\n      add\n      swap2\n      swap1\n      0x00\n      mstore\n      keccak256(0x00, 0x20)\n      swap1\n    tag_116:\n      dup2\n      sload\n      dup2\n      mstore\n      swap1\n      0x01\n      add\n      swap1\n      0x20\n      add\n      dup1\n      dup4\n      gt\n      tag_116\n      jumpi\n      dup3\n      swap1\n      sub\n      0x1f\n      and\n      dup3\n      add\n      swap2\n    tag_114:\n      pop\n      pop\n      pop\n      pop\n      pop\n      swap1\n      dup1\n      0x02\n      add\n      dup1\n      sload\n      tag_117\n      swap1\n      tag_107\n      jump\t// in\n    tag_117:\n      dup1\n      0x1f\n      add\n      0x20\n      dup1\n      swap2\n      div\n      mul\n      0x20\n      add\n      mload(0x40)\n      swap1\n      dup2\n      add\n      0x40\n      mstore\n      dup1\n      swap3\n      swap2\n      swap1\n      dup2\n      dup2\n      mstore\n      0x20\n      add\n      dup3\n      dup1\n      sload\n      tag_118\n      swap1\n      tag_107\n      jump\t// in\n    tag_118:\n      dup1\n      iszero\n      tag_119\n      jumpi\n      dup1\n      0x1f\n      lt\n      tag_120\n      jumpi\n      0x0100\n      dup1\n      dup4\n      sload\n      div\n      mul\n      dup4\n      mstore\n      swap2\n      0x20\n      add\n      swap2\n      jump(tag_119)\n    tag_120:\n      dup3\n      add\n      swap2\n      swap1\n      0x00\n      mstore\n      keccak256(0x00, 0x20)\n      swap1\n    tag_121:\n      dup2\n      sload\n      dup2\n      mstore\n      swap1\n      0x01\n      add\n      swap1\n      0x20\n      add\n      dup1\n      dup4\n      gt\n      tag_121\n      jumpi\n      dup3\n      swap1\n      sub\n      0x1f\n      and\n      dup3\n      add\n      swap2\n    tag_119:\n      pop\n      pop\n      pop\n      pop\n      pop\n      swap1\n      dup1\n      0x03\n      add\n      sload\n      swap1\n      pop\n      dup5\n      jump\t// out\n        /* \"Documents/GitHub/Store-system-with-feedback/main.sol\":3734:4362  function acceptPurchase (uint idPurchase, bool confirmation) public {\r... */\n    tag_34:\n        /* \"Documents/GitHub/Store-system-with-feedback/main.sol\":3833:3837  true */\n      0x01\n        /* \"Documents/GitHub/Store-system-with-feedback/main.sol\":3817:3837  confirmation == true */\n      iszero\n      iszero\n        /* \"Documents/GitHub/Store-system-with-feedback/main.sol\":3817:3829  confirmation */\n      dup2\n        /* \"Documents/GitHub/Store-system-with-feedback/main.sol\":3817:3837  confirmation == true */\n      iszero\n      iszero\n      eq\n        /* \"Documents/GitHub/Store-system-with-feedback/main.sol\":3813:4355  if (confirmation == true) {\r... */\n      iszero\n      tag_123\n      jumpi\n        /* \"Documents/GitHub/Store-system-with-feedback/main.sol\":3897:3902  false */\n      0x00\n        /* \"Documents/GitHub/Store-system-with-feedback/main.sol\":3854:3875  structStatusPurchases */\n      0x09\n        /* \"Documents/GitHub/Store-system-with-feedback/main.sol\":3876:3886  idPurchase */\n      dup4\n        /* \"Documents/GitHub/Store-system-with-feedback/main.sol\":3854:3887  structStatusPurchases[idPurchase] */\n      dup2\n      sload\n      dup2\n      lt\n      tag_124\n      jumpi\n      tag_125\n      tag_126\n      jump\t// in\n    tag_125:\n    tag_124:\n      swap1\n      0x00\n      mstore\n      keccak256(0x00, 0x20)\n      swap1\n      0x03\n      mul\n      add\n        /* \"Documents/GitHub/Store-system-with-feedback/main.sol\":3854:3894  structStatusPurchases[idPurchase].status */\n      0x02\n      add\n      0x00\n        /* \"Documents/GitHub/Store-system-with-feedback/main.sol\":3854:3902  structStatusPurchases[idPurchase].status = false */\n      0x0100\n      exp\n      dup2\n      sload\n      dup2\n      0xff\n      mul\n      not\n      and\n      swap1\n      dup4\n      iszero\n      iszero\n      mul\n      or\n      swap1\n      sstore\n      pop\n        /* \"Documents/GitHub/Store-system-with-feedback/main.sol\":4053:4067  structProducts */\n      0x07\n        /* \"Documents/GitHub/Store-system-with-feedback/main.sol\":4068:4089  structStatusPurchases */\n      0x09\n        /* \"Documents/GitHub/Store-system-with-feedback/main.sol\":4090:4100  idPurchase */\n      dup4\n        /* \"Documents/GitHub/Store-system-with-feedback/main.sol\":4068:4101  structStatusPurchases[idPurchase] */\n      dup2\n      sload\n      dup2\n      lt\n      tag_128\n      jumpi\n      tag_129\n      tag_126\n      jump\t// in\n    tag_129:\n    tag_128:\n      swap1\n      0x00\n      mstore\n      keccak256(0x00, 0x20)\n      swap1\n      0x03\n      mul\n      add\n        /* \"Documents/GitHub/Store-system-with-feedback/main.sol\":4068:4114  structStatusPurchases[idPurchase].titleProduct */\n      0x01\n      add\n        /* \"Documents/GitHub/Store-system-with-feedback/main.sol\":4053:4115  structProducts[structStatusPurchases[idPurchase].titleProduct] */\n      mload(0x40)\n      tag_131\n      swap2\n      swap1\n      tag_132\n      jump\t// in\n    tag_131:\n      swap1\n      dup2\n      mstore\n      0x20\n      add\n      mload(0x40)\n      dup1\n      swap2\n      sub\n      swap1\n      keccak256\n        /* \"Documents/GitHub/Store-system-with-feedback/main.sol\":4053:4121  structProducts[structStatusPurchases[idPurchase].titleProduct].price */\n      0x02\n      add\n      sload\n        /* \"Documents/GitHub/Store-system-with-feedback/main.sol\":3985:3996  structUsers */\n      0x04\n        /* \"Documents/GitHub/Store-system-with-feedback/main.sol\":3985:4041  structUsers[structStatusPurchases[idPurchase].userLogin] */\n      0x00\n        /* \"Documents/GitHub/Store-system-with-feedback/main.sol\":3997:4018  structStatusPurchases */\n      0x09\n        /* \"Documents/GitHub/Store-system-with-feedback/main.sol\":4019:4029  idPurchase */\n      dup6\n        /* \"Documents/GitHub/Store-system-with-feedback/main.sol\":3997:4030  structStatusPurchases[idPurchase] */\n      dup2\n      sload\n      dup2\n      lt\n      tag_133\n      jumpi\n      tag_134\n      tag_126\n      jump\t// in\n    tag_134:\n    tag_133:\n      swap1\n      0x00\n      mstore\n      keccak256(0x00, 0x20)\n      swap1\n      0x03\n      mul\n      add\n        /* \"Documents/GitHub/Store-system-with-feedback/main.sol\":3997:4040  structStatusPurchases[idPurchase].userLogin */\n      0x00\n      add\n      0x00\n      swap1\n      sload\n      swap1\n      0x0100\n      exp\n      swap1\n      div\n      0xffffffffffffffffffffffffffffffffffffffff\n      and\n        /* \"Documents/GitHub/Store-system-with-feedback/main.sol\":3985:4041  structUsers[structStatusPurchases[idPurchase].userLogin] */\n      0xffffffffffffffffffffffffffffffffffffffff\n      and\n      0xffffffffffffffffffffffffffffffffffffffff\n      and\n      dup2\n      mstore\n      0x20\n      add\n      swap1\n      dup2\n      mstore\n      0x20\n      add\n      0x00\n      keccak256\n        /* \"Documents/GitHub/Store-system-with-feedback/main.sol\":3985:4050  structUsers[structStatusPurchases[idPurchase].userLogin].ballance */\n      0x02\n      add\n      sload\n        /* \"Documents/GitHub/Store-system-with-feedback/main.sol\":3985:4121  structUsers[structStatusPurchases[idPurchase].userLogin].ballance - structProducts[structStatusPurchases[idPurchase].titleProduct].price */\n      tag_136\n      swap2\n      swap1\n      tag_137\n      jump\t// in\n    tag_136:\n        /* \"Documents/GitHub/Store-system-with-feedback/main.sol\":3917:3928  structUsers */\n      0x04\n        /* \"Documents/GitHub/Store-system-with-feedback/main.sol\":3917:3973  structUsers[structStatusPurchases[idPurchase].userLogin] */\n      0x00\n        /* \"Documents/GitHub/Store-system-with-feedback/main.sol\":3929:3950  structStatusPurchases */\n      0x09\n        /* \"Documents/GitHub/Store-system-with-feedback/main.sol\":3951:3961  idPurchase */\n      dup6\n        /* \"Documents/GitHub/Store-system-with-feedback/main.sol\":3929:3962  structStatusPurchases[idPurchase] */\n      dup2\n      sload\n      dup2\n      lt\n      tag_138\n      jumpi\n      tag_139\n      tag_126\n      jump\t// in\n    tag_139:\n    tag_138:\n      swap1\n      0x00\n      mstore\n      keccak256(0x00, 0x20)\n      swap1\n      0x03\n      mul\n      add\n        /* \"Documents/GitHub/Store-system-with-feedback/main.sol\":3929:3972  structStatusPurchases[idPurchase].userLogin */\n      0x00\n      add\n      0x00\n      swap1\n      sload\n      swap1\n      0x0100\n      exp\n      swap1\n      div\n      0xffffffffffffffffffffffffffffffffffffffff\n      and\n        /* \"Documents/GitHub/Store-system-with-feedback/main.sol\":3917:3973  structUsers[structStatusPurchases[idPurchase].userLogin] */\n      0xffffffffffffffffffffffffffffffffffffffff\n      and\n      0xffffffffffffffffffffffffffffffffffffffff\n      and\n      dup2\n      mstore\n      0x20\n      add\n      swap1\n      dup2\n      mstore\n      0x20\n      add\n      0x00\n      keccak256\n        /* \"Documents/GitHub/Store-system-with-feedback/main.sol\":3917:3982  structUsers[structStatusPurchases[idPurchase].userLogin].ballance */\n      0x02\n      add\n        /* \"Documents/GitHub/Store-system-with-feedback/main.sol\":3917:4121  structUsers[structStatusPurchases[idPurchase].userLogin].ballance = structUsers[structStatusPurchases[idPurchase].userLogin].ballance - structProducts[structStatusPurchases[idPurchase].titleProduct].price */\n      dup2\n      swap1\n      sstore\n      pop\n        /* \"Documents/GitHub/Store-system-with-feedback/main.sol\":4194:4208  structProducts */\n      0x07\n        /* \"Documents/GitHub/Store-system-with-feedback/main.sol\":4209:4230  structStatusPurchases */\n      0x09\n        /* \"Documents/GitHub/Store-system-with-feedback/main.sol\":4231:4241  idPurchase */\n      dup4\n        /* \"Documents/GitHub/Store-system-with-feedback/main.sol\":4209:4242  structStatusPurchases[idPurchase] */\n      dup2\n      sload\n      dup2\n      lt\n      tag_141\n      jumpi\n      tag_142\n      tag_126\n      jump\t// in\n    tag_142:\n    tag_141:\n      swap1\n      0x00\n      mstore\n      keccak256(0x00, 0x20)\n      swap1\n      0x03\n      mul\n      add\n        /* \"Documents/GitHub/Store-system-with-feedback/main.sol\":4209:4255  structStatusPurchases[idPurchase].titleProduct */\n      0x01\n      add\n        /* \"Documents/GitHub/Store-system-with-feedback/main.sol\":4194:4256  structProducts[structStatusPurchases[idPurchase].titleProduct] */\n      mload(0x40)\n      tag_144\n      swap2\n      swap1\n      tag_132\n      jump\t// in\n    tag_144:\n      swap1\n      dup2\n      mstore\n      0x20\n      add\n      mload(0x40)\n      dup1\n      swap2\n      sub\n      swap1\n      keccak256\n        /* \"Documents/GitHub/Store-system-with-feedback/main.sol\":4194:4262  structProducts[structStatusPurchases[idPurchase].titleProduct].price */\n      0x02\n      add\n      sload\n        /* \"Documents/GitHub/Store-system-with-feedback/main.sol\":4165:4170  shops */\n      0x00\n        /* \"Documents/GitHub/Store-system-with-feedback/main.sol\":4165:4182  shops[msg.sender] */\n      dup1\n        /* \"Documents/GitHub/Store-system-with-feedback/main.sol\":4171:4181  msg.sender */\n      caller\n        /* \"Documents/GitHub/Store-system-with-feedback/main.sol\":4165:4182  shops[msg.sender] */\n      0xffffffffffffffffffffffffffffffffffffffff\n      and\n      0xffffffffffffffffffffffffffffffffffffffff\n      and\n      dup2\n      mstore\n      0x20\n      add\n      swap1\n      dup2\n      mstore\n      0x20\n      add\n      0x00\n      keccak256\n        /* \"Documents/GitHub/Store-system-with-feedback/main.sol\":4165:4191  shops[msg.sender].ballance */\n      0x03\n      add\n      sload\n        /* \"Documents/GitHub/Store-system-with-feedback/main.sol\":4165:4262  shops[msg.sender].ballance + structProducts[structStatusPurchases[idPurchase].titleProduct].price */\n      tag_145\n      swap2\n      swap1\n      tag_146\n      jump\t// in\n    tag_145:\n        /* \"Documents/GitHub/Store-system-with-feedback/main.sol\":4136:4141  shops */\n      0x00\n        /* \"Documents/GitHub/Store-system-with-feedback/main.sol\":4136:4153  shops[msg.sender] */\n      dup1\n        /* \"Documents/GitHub/Store-system-with-feedback/main.sol\":4142:4152  msg.sender */\n      caller\n        /* \"Documents/GitHub/Store-system-with-feedback/main.sol\":4136:4153  shops[msg.sender] */\n      0xffffffffffffffffffffffffffffffffffffffff\n      and\n      0xffffffffffffffffffffffffffffffffffffffff\n      and\n      dup2\n      mstore\n      0x20\n      add\n      swap1\n      dup2\n      mstore\n      0x20\n      add\n      0x00\n      keccak256\n        /* \"Documents/GitHub/Store-system-with-feedback/main.sol\":4136:4162  shops[msg.sender].ballance */\n      0x03\n      add\n        /* \"Documents/GitHub/Store-system-with-feedback/main.sol\":4136:4262  shops[msg.sender].ballance = shops[msg.sender].ballance + structProducts[structStatusPurchases[idPurchase].titleProduct].price */\n      dup2\n      swap1\n      sstore\n      pop\n        /* \"Documents/GitHub/Store-system-with-feedback/main.sol\":3813:4355  if (confirmation == true) {\r... */\n      jump(tag_147)\n    tag_123:\n        /* \"Documents/GitHub/Store-system-with-feedback/main.sol\":4338:4343  false */\n      0x00\n        /* \"Documents/GitHub/Store-system-with-feedback/main.sol\":4295:4316  structStatusPurchases */\n      0x09\n        /* \"Documents/GitHub/Store-system-with-feedback/main.sol\":4317:4327  idPurchase */\n      dup4\n        /* \"Documents/GitHub/Store-system-with-feedback/main.sol\":4295:4328  structStatusPurchases[idPurchase] */\n      dup2\n      sload\n      dup2\n      lt\n      tag_148\n      jumpi\n      tag_149\n      tag_126\n      jump\t// in\n    tag_149:\n    tag_148:\n      swap1\n      0x00\n      mstore\n      keccak256(0x00, 0x20)\n      swap1\n      0x03\n      mul\n      add\n        /* \"Documents/GitHub/Store-system-with-feedback/main.sol\":4295:4335  structStatusPurchases[idPurchase].status */\n      0x02\n      add\n      0x00\n        /* \"Documents/GitHub/Store-system-with-feedback/main.sol\":4295:4343  structStatusPurchases[idPurchase].status = false */\n      0x0100\n      exp\n      dup2\n      sload\n      dup2\n      0xff\n      mul\n      not\n      and\n      swap1\n      dup4\n      iszero\n      iszero\n      mul\n      or\n      swap1\n      sstore\n      pop\n        /* \"Documents/GitHub/Store-system-with-feedback/main.sol\":3813:4355  if (confirmation == true) {\r... */\n    tag_147:\n        /* \"Documents/GitHub/Store-system-with-feedback/main.sol\":3734:4362  function acceptPurchase (uint idPurchase, bool confirmation) public {\r... */\n      pop\n      pop\n      jump\t// out\n        /* \"Documents/GitHub/Store-system-with-feedback/main.sol\":6248:6519  function productPurchases (string memory titleProduct) public {\r... */\n    tag_38:\n        /* \"Documents/GitHub/Store-system-with-feedback/main.sol\":6365:6379  structProducts */\n      0x07\n        /* \"Documents/GitHub/Store-system-with-feedback/main.sol\":6380:6392  titleProduct */\n      dup2\n        /* \"Documents/GitHub/Store-system-with-feedback/main.sol\":6365:6393  structProducts[titleProduct] */\n      mload(0x40)\n      tag_152\n      swap2\n      swap1\n      tag_153\n      jump\t// in\n    tag_152:\n      swap1\n      dup2\n      mstore\n      0x20\n      add\n      mload(0x40)\n      dup1\n      swap2\n      sub\n      swap1\n      keccak256\n        /* \"Documents/GitHub/Store-system-with-feedback/main.sol\":6365:6399  structProducts[titleProduct].price */\n      0x02\n      add\n      sload\n        /* \"Documents/GitHub/Store-system-with-feedback/main.sol\":6329:6340  structUsers */\n      0x04\n        /* \"Documents/GitHub/Store-system-with-feedback/main.sol\":6329:6352  structUsers[msg.sender] */\n      0x00\n        /* \"Documents/GitHub/Store-system-with-feedback/main.sol\":6341:6351  msg.sender */\n      caller\n        /* \"Documents/GitHub/Store-system-with-feedback/main.sol\":6329:6352  structUsers[msg.sender] */\n      0xffffffffffffffffffffffffffffffffffffffff\n      and\n      0xffffffffffffffffffffffffffffffffffffffff\n      and\n      dup2\n      mstore\n      0x20\n      add\n      swap1\n      dup2\n      mstore\n      0x20\n      add\n      0x00\n      keccak256\n        /* \"Documents/GitHub/Store-system-with-feedback/main.sol\":6329:6361  structUsers[msg.sender].ballance */\n      0x02\n      add\n      sload\n        /* \"Documents/GitHub/Store-system-with-feedback/main.sol\":6329:6399  structUsers[msg.sender].ballance >= structProducts[titleProduct].price */\n      lt\n      iszero\n        /* \"Documents/GitHub/Store-system-with-feedback/main.sol\":6321:6420  require(structUsers[msg.sender].ballance >= structProducts[titleProduct].price, \"error: not money\") */\n      tag_154\n      jumpi\n      mload(0x40)\n      0x08c379a000000000000000000000000000000000000000000000000000000000\n      dup2\n      mstore\n      0x04\n      add\n      tag_155\n      swap1\n      tag_156\n      jump\t// in\n    tag_155:\n      mload(0x40)\n      dup1\n      swap2\n      sub\n      swap1\n      revert\n    tag_154:\n        /* \"Documents/GitHub/Store-system-with-feedback/main.sol\":6431:6452  structStatusPurchases */\n      0x09\n        /* \"Documents/GitHub/Store-system-with-feedback/main.sol\":6458:6510  structStatusPurchase(msg.sender, titleProduct, true) */\n      mload(0x40)\n      dup1\n      0x60\n      add\n      0x40\n      mstore\n      dup1\n        /* \"Documents/GitHub/Store-system-with-feedback/main.sol\":6479:6489  msg.sender */\n      caller\n        /* \"Documents/GitHub/Store-system-with-feedback/main.sol\":6458:6510  structStatusPurchase(msg.sender, titleProduct, true) */\n      0xffffffffffffffffffffffffffffffffffffffff\n      and\n      dup2\n      mstore\n      0x20\n      add\n        /* \"Documents/GitHub/Store-system-with-feedback/main.sol\":6491:6503  titleProduct */\n      dup4\n        /* \"Documents/GitHub/Store-system-with-feedback/main.sol\":6458:6510  structStatusPurchase(msg.sender, titleProduct, true) */\n      dup2\n      mstore\n      0x20\n      add\n        /* \"Documents/GitHub/Store-system-with-feedback/main.sol\":6505:6509  true */\n      0x01\n        /* \"Documents/GitHub/Store-system-with-feedback/main.sol\":6458:6510  structStatusPurchase(msg.sender, titleProduct, true) */\n      iszero\n      iszero\n      dup2\n      mstore\n      pop\n        /* \"Documents/GitHub/Store-system-with-feedback/main.sol\":6431:6511  structStatusPurchases.push(structStatusPurchase(msg.sender, titleProduct, true)) */\n      swap1\n      dup1\n      0x01\n      dup2\n      sload\n      add\n      dup1\n      dup3\n      sstore\n      dup1\n      swap2\n      pop\n      pop\n      0x01\n      swap1\n      sub\n      swap1\n      0x00\n      mstore\n      keccak256(0x00, 0x20)\n      swap1\n      0x03\n      mul\n      add\n      0x00\n      swap1\n      swap2\n      swap1\n      swap2\n      swap1\n      swap2\n      pop\n      0x00\n      dup3\n      add\n      mload\n      dup2\n      0x00\n      add\n      exp(0x0100, 0x00)\n      dup2\n      sload\n      dup2\n      0xffffffffffffffffffffffffffffffffffffffff\n      mul\n      not\n      and\n      swap1\n      dup4\n      0xffffffffffffffffffffffffffffffffffffffff\n      and\n      mul\n      or\n      swap1\n      sstore\n      pop\n      0x20\n      dup3\n      add\n      mload\n      dup2\n      0x01\n      add\n      swap1\n      dup1\n      mload\n      swap1\n      0x20\n      add\n      swap1\n      tag_158\n      swap3\n      swap2\n      swap1\n      tag_159\n      jump\t// in\n    tag_158:\n      pop\n      0x40\n      dup3\n      add\n      mload\n      dup2\n      0x02\n      add\n      exp(0x0100, 0x00)\n      dup2\n      sload\n      dup2\n      0xff\n      mul\n      not\n      and\n      swap1\n      dup4\n      iszero\n      iszero\n      mul\n      or\n      swap1\n      sstore\n      pop\n      pop\n      pop\n        /* \"Documents/GitHub/Store-system-with-feedback/main.sol\":6248:6519  function productPurchases (string memory titleProduct) public {\r... */\n      pop\n      jump\t// out\n        /* \"Documents/GitHub/Store-system-with-feedback/main.sol\":1862:1912  mapping(string => address) public structUserLogins */\n    tag_41:\n      0x05\n      dup2\n      dup1\n      mload\n      0x20\n      dup2\n      add\n      dup3\n      add\n      dup1\n      mload\n      dup5\n      dup3\n      mstore\n      0x20\n      dup4\n      add\n      0x20\n      dup6\n      add\n      keccak256\n      dup2\n      dup4\n      mstore\n      dup1\n      swap6\n      pop\n      pop\n      pop\n      pop\n      pop\n      pop\n      0x00\n      swap2\n      pop\n      sload\n      swap1\n      0x0100\n      exp\n      swap1\n      div\n      0xffffffffffffffffffffffffffffffffffffffff\n      and\n      dup2\n      jump\t// out\n        /* \"Documents/GitHub/Store-system-with-feedback/main.sol\":4407:4868  function acceptReturn(uint idReturn, bool confirmation) public {\r... */\n    tag_46:\n        /* \"Documents/GitHub/Store-system-with-feedback/main.sol\":4500:4504  true */\n      0x01\n        /* \"Documents/GitHub/Store-system-with-feedback/main.sol\":4484:4504  confirmation == true */\n      iszero\n      iszero\n        /* \"Documents/GitHub/Store-system-with-feedback/main.sol\":4484:4496  confirmation */\n      dup2\n        /* \"Documents/GitHub/Store-system-with-feedback/main.sol\":4484:4504  confirmation == true */\n      iszero\n      iszero\n      eq\n        /* \"Documents/GitHub/Store-system-with-feedback/main.sol\":4481:4861  if(confirmation == true) {\r... */\n      iszero\n      tag_161\n      jumpi\n        /* \"Documents/GitHub/Store-system-with-feedback/main.sol\":4560:4565  false */\n      0x00\n        /* \"Documents/GitHub/Store-system-with-feedback/main.sol\":4521:4540  structStatusReturns */\n      0x0a\n        /* \"Documents/GitHub/Store-system-with-feedback/main.sol\":4541:4549  idReturn */\n      dup4\n        /* \"Documents/GitHub/Store-system-with-feedback/main.sol\":4521:4550  structStatusReturns[idReturn] */\n      dup2\n      sload\n      dup2\n      lt\n      tag_162\n      jumpi\n      tag_163\n      tag_126\n      jump\t// in\n    tag_163:\n    tag_162:\n      swap1\n      0x00\n      mstore\n      keccak256(0x00, 0x20)\n      swap1\n      0x03\n      mul\n      add\n        /* \"Documents/GitHub/Store-system-with-feedback/main.sol\":4521:4557  structStatusReturns[idReturn].status */\n      0x02\n      add\n      0x00\n        /* \"Documents/GitHub/Store-system-with-feedback/main.sol\":4521:4565  structStatusReturns[idReturn].status = false */\n      0x0100\n      exp\n      dup2\n      sload\n      dup2\n      0xff\n      mul\n      not\n      and\n      swap1\n      dup4\n      iszero\n      iszero\n      mul\n      or\n      swap1\n      sstore\n      pop\n        /* \"Documents/GitHub/Store-system-with-feedback/main.sol\":4708:4722  structProducts */\n      0x07\n        /* \"Documents/GitHub/Store-system-with-feedback/main.sol\":4723:4742  structStatusReturns */\n      0x0a\n        /* \"Documents/GitHub/Store-system-with-feedback/main.sol\":4743:4751  idReturn */\n      dup4\n        /* \"Documents/GitHub/Store-system-with-feedback/main.sol\":4723:4752  structStatusReturns[idReturn] */\n      dup2\n      sload\n      dup2\n      lt\n      tag_165\n      jumpi\n      tag_166\n      tag_126\n      jump\t// in\n    tag_166:\n    tag_165:\n      swap1\n      0x00\n      mstore\n      keccak256(0x00, 0x20)\n      swap1\n      0x03\n      mul\n      add\n        /* \"Documents/GitHub/Store-system-with-feedback/main.sol\":4723:4765  structStatusReturns[idReturn].titleProduct */\n      0x01\n      add\n        /* \"Documents/GitHub/Store-system-with-feedback/main.sol\":4708:4766  structProducts[structStatusReturns[idReturn].titleProduct] */\n      mload(0x40)\n      tag_168\n      swap2\n      swap1\n      tag_132\n      jump\t// in\n    tag_168:\n      swap1\n      dup2\n      mstore\n      0x20\n      add\n      mload(0x40)\n      dup1\n      swap2\n      sub\n      swap1\n      keccak256\n        /* \"Documents/GitHub/Store-system-with-feedback/main.sol\":4708:4772  structProducts[structStatusReturns[idReturn].titleProduct].price */\n      0x02\n      add\n      sload\n        /* \"Documents/GitHub/Store-system-with-feedback/main.sol\":4644:4655  structUsers */\n      0x04\n        /* \"Documents/GitHub/Store-system-with-feedback/main.sol\":4644:4696  structUsers[structStatusReturns[idReturn].userLogin] */\n      0x00\n        /* \"Documents/GitHub/Store-system-with-feedback/main.sol\":4656:4675  structStatusReturns */\n      0x0a\n        /* \"Documents/GitHub/Store-system-with-feedback/main.sol\":4676:4684  idReturn */\n      dup6\n        /* \"Documents/GitHub/Store-system-with-feedback/main.sol\":4656:4685  structStatusReturns[idReturn] */\n      dup2\n      sload\n      dup2\n      lt\n      tag_169\n      jumpi\n      tag_170\n      tag_126\n      jump\t// in\n    tag_170:\n    tag_169:\n      swap1\n      0x00\n      mstore\n      keccak256(0x00, 0x20)\n      swap1\n      0x03\n      mul\n      add\n        /* \"Documents/GitHub/Store-system-with-feedback/main.sol\":4656:4695  structStatusReturns[idReturn].userLogin */\n      0x00\n      add\n      0x00\n      swap1\n      sload\n      swap1\n      0x0100\n      exp\n      swap1\n      div\n      0xffffffffffffffffffffffffffffffffffffffff\n      and\n        /* \"Documents/GitHub/Store-system-with-feedback/main.sol\":4644:4696  structUsers[structStatusReturns[idReturn].userLogin] */\n      0xffffffffffffffffffffffffffffffffffffffff\n      and\n      0xffffffffffffffffffffffffffffffffffffffff\n      and\n      dup2\n      mstore\n      0x20\n      add\n      swap1\n      dup2\n      mstore\n      0x20\n      add\n      0x00\n      keccak256\n        /* \"Documents/GitHub/Store-system-with-feedback/main.sol\":4644:4705  structUsers[structStatusReturns[idReturn].userLogin].ballance */\n      0x02\n      add\n      sload\n        /* \"Documents/GitHub/Store-system-with-feedback/main.sol\":4644:4772  structUsers[structStatusReturns[idReturn].userLogin].ballance + structProducts[structStatusReturns[idReturn].titleProduct].price */\n      tag_172\n      swap2\n      swap1\n      tag_146\n      jump\t// in\n    tag_172:\n        /* \"Documents/GitHub/Store-system-with-feedback/main.sol\":4580:4591  structUsers */\n      0x04\n        /* \"Documents/GitHub/Store-system-with-feedback/main.sol\":4580:4632  structUsers[structStatusReturns[idReturn].userLogin] */\n      0x00\n        /* \"Documents/GitHub/Store-system-with-feedback/main.sol\":4592:4611  structStatusReturns */\n      0x0a\n        /* \"Documents/GitHub/Store-system-with-feedback/main.sol\":4612:4620  idReturn */\n      dup6\n        /* \"Documents/GitHub/Store-system-with-feedback/main.sol\":4592:4621  structStatusReturns[idReturn] */\n      dup2\n      sload\n      dup2\n      lt\n      tag_173\n      jumpi\n      tag_174\n      tag_126\n      jump\t// in\n    tag_174:\n    tag_173:\n      swap1\n      0x00\n      mstore\n      keccak256(0x00, 0x20)\n      swap1\n      0x03\n      mul\n      add\n        /* \"Documents/GitHub/Store-system-with-feedback/main.sol\":4592:4631  structStatusReturns[idReturn].userLogin */\n      0x00\n      add\n      0x00\n      swap1\n      sload\n      swap1\n      0x0100\n      exp\n      swap1\n      div\n      0xffffffffffffffffffffffffffffffffffffffff\n      and\n        /* \"Documents/GitHub/Store-system-with-feedback/main.sol\":4580:4632  structUsers[structStatusReturns[idReturn].userLogin] */\n      0xffffffffffffffffffffffffffffffffffffffff\n      and\n      0xffffffffffffffffffffffffffffffffffffffff\n      and\n      dup2\n      mstore\n      0x20\n      add\n      swap1\n      dup2\n      mstore\n      0x20\n      add\n      0x00\n      keccak256\n        /* \"Documents/GitHub/Store-system-with-feedback/main.sol\":4580:4641  structUsers[structStatusReturns[idReturn].userLogin].ballance */\n      0x02\n      add\n        /* \"Documents/GitHub/Store-system-with-feedback/main.sol\":4580:4772  structUsers[structStatusReturns[idReturn].userLogin].ballance = structUsers[structStatusReturns[idReturn].userLogin].ballance + structProducts[structStatusReturns[idReturn].titleProduct].price */\n      dup2\n      swap1\n      sstore\n      pop\n        /* \"Documents/GitHub/Store-system-with-feedback/main.sol\":4481:4861  if(confirmation == true) {\r... */\n      jump(tag_176)\n    tag_161:\n        /* \"Documents/GitHub/Store-system-with-feedback/main.sol\":4844:4849  false */\n      0x00\n        /* \"Documents/GitHub/Store-system-with-feedback/main.sol\":4805:4824  structStatusReturns */\n      0x0a\n        /* \"Documents/GitHub/Store-system-with-feedback/main.sol\":4825:4833  idReturn */\n      dup4\n        /* \"Documents/GitHub/Store-system-with-feedback/main.sol\":4805:4834  structStatusReturns[idReturn] */\n      dup2\n      sload\n      dup2\n      lt\n      tag_177\n      jumpi\n      tag_178\n      tag_126\n      jump\t// in\n    tag_178:\n    tag_177:\n      swap1\n      0x00\n      mstore\n      keccak256(0x00, 0x20)\n      swap1\n      0x03\n      mul\n      add\n        /* \"Documents/GitHub/Store-system-with-feedback/main.sol\":4805:4841  structStatusReturns[idReturn].status */\n      0x02\n      add\n      0x00\n        /* \"Documents/GitHub/Store-system-with-feedback/main.sol\":4805:4849  structStatusReturns[idReturn].status = false */\n      0x0100\n      exp\n      dup2\n      sload\n      dup2\n      0xff\n      mul\n      not\n      and\n      swap1\n      dup4\n      iszero\n      iszero\n      mul\n      or\n      swap1\n      sstore\n      pop\n        /* \"Documents/GitHub/Store-system-with-feedback/main.sol\":4481:4861  if(confirmation == true) {\r... */\n    tag_176:\n        /* \"Documents/GitHub/Store-system-with-feedback/main.sol\":4407:4868  function acceptReturn(uint idReturn, bool confirmation) public {\r... */\n      pop\n      pop\n      jump\t// out\n        /* \"Documents/GitHub/Store-system-with-feedback/main.sol\":6758:6942  function productMarriageRegistration (string memory titleProduct) public {\r... */\n    tag_49:\n        /* \"Documents/GitHub/Store-system-with-feedback/main.sol\":6842:6869  structMarriageRegistrations */\n      0x0b\n        /* \"Documents/GitHub/Store-system-with-feedback/main.sol\":6875:6933  structMarriageRegistration(msg.sender, titleProduct, true) */\n      mload(0x40)\n      dup1\n      0x60\n      add\n      0x40\n      mstore\n      dup1\n        /* \"Documents/GitHub/Store-system-with-feedback/main.sol\":6902:6912  msg.sender */\n      caller\n        /* \"Documents/GitHub/Store-system-with-feedback/main.sol\":6875:6933  structMarriageRegistration(msg.sender, titleProduct, true) */\n      0xffffffffffffffffffffffffffffffffffffffff\n      and\n      dup2\n      mstore\n      0x20\n      add\n        /* \"Documents/GitHub/Store-system-with-feedback/main.sol\":6914:6926  titleProduct */\n      dup4\n        /* \"Documents/GitHub/Store-system-with-feedback/main.sol\":6875:6933  structMarriageRegistration(msg.sender, titleProduct, true) */\n      dup2\n      mstore\n      0x20\n      add\n        /* \"Documents/GitHub/Store-system-with-feedback/main.sol\":6928:6932  true */\n      0x01\n        /* \"Documents/GitHub/Store-system-with-feedback/main.sol\":6875:6933  structMarriageRegistration(msg.sender, titleProduct, true) */\n      iszero\n      iszero\n      dup2\n      mstore\n      pop\n        /* \"Documents/GitHub/Store-system-with-feedback/main.sol\":6842:6934  structMarriageRegistrations.push(structMarriageRegistration(msg.sender, titleProduct, true)) */\n      swap1\n      dup1\n      0x01\n      dup2\n      sload\n      add\n      dup1\n      dup3\n      sstore\n      dup1\n      swap2\n      pop\n      pop\n      0x01\n      swap1\n      sub\n      swap1\n      0x00\n      mstore\n      keccak256(0x00, 0x20)\n      swap1\n      0x03\n      mul\n      add\n      0x00\n      swap1\n      swap2\n      swap1\n      swap2\n      swap1\n      swap2\n      pop\n      0x00\n      dup3\n      add\n      mload\n      dup2\n      0x00\n      add\n      exp(0x0100, 0x00)\n      dup2\n      sload\n      dup2\n      0xffffffffffffffffffffffffffffffffffffffff\n      mul\n      not\n      and\n      swap1\n      dup4\n      0xffffffffffffffffffffffffffffffffffffffff\n      and\n      mul\n      or\n      swap1\n      sstore\n      pop\n      0x20\n      dup3\n      add\n      mload\n      dup2\n      0x01\n      add\n      swap1\n      dup1\n      mload\n      swap1\n      0x20\n      add\n      swap1\n      tag_182\n      swap3\n      swap2\n      swap1\n      tag_159\n      jump\t// in\n    tag_182:\n      pop\n      0x40\n      dup3\n      add\n      mload\n      dup2\n      0x02\n      add\n      exp(0x0100, 0x00)\n      dup2\n      sload\n      dup2\n      0xff\n      mul\n      not\n      and\n      swap1\n      dup4\n      iszero\n      iszero\n      mul\n      or\n      swap1\n      sstore\n      pop\n      pop\n      pop\n        /* \"Documents/GitHub/Store-system-with-feedback/main.sol\":6758:6942  function productMarriageRegistration (string memory titleProduct) public {\r... */\n      pop\n      jump\t// out\n        /* \"Documents/GitHub/Store-system-with-feedback/main.sol\":5655:5755  function getProductList() public view returns(string[] memory) {\r... */\n    tag_51:\n        /* \"Documents/GitHub/Store-system-with-feedback/main.sol\":5701:5716  string[] memory */\n      0x60\n        /* \"Documents/GitHub/Store-system-with-feedback/main.sol\":5736:5747  productList */\n      0x08\n        /* \"Documents/GitHub/Store-system-with-feedback/main.sol\":5729:5747  return productList */\n      dup1\n      sload\n      dup1\n      0x20\n      mul\n      0x20\n      add\n      mload(0x40)\n      swap1\n      dup2\n      add\n      0x40\n      mstore\n      dup1\n      swap3\n      swap2\n      swap1\n      dup2\n      dup2\n      mstore\n      0x20\n      add\n      0x00\n      swap1\n    tag_184:\n      dup3\n      dup3\n      lt\n      iszero\n      tag_185\n      jumpi\n      dup4\n      dup3\n      swap1\n      0x00\n      mstore\n      keccak256(0x00, 0x20)\n      add\n      dup1\n      sload\n      tag_187\n      swap1\n      tag_107\n      jump\t// in\n    tag_187:\n      dup1\n      0x1f\n      add\n      0x20\n      dup1\n      swap2\n      div\n      mul\n      0x20\n      add\n      mload(0x40)\n      swap1\n      dup2\n      add\n      0x40\n      mstore\n      dup1\n      swap3\n      swap2\n      swap1\n      dup2\n      dup2\n      mstore\n      0x20\n      add\n      dup3\n      dup1\n      sload\n      tag_188\n      swap1\n      tag_107\n      jump\t// in\n    tag_188:\n      dup1\n      iszero\n      tag_189\n      jumpi\n      dup1\n      0x1f\n      lt\n      tag_190\n      jumpi\n      0x0100\n      dup1\n      dup4\n      sload\n      div\n      mul\n      dup4\n      mstore\n      swap2\n      0x20\n      add\n      swap2\n      jump(tag_189)\n    tag_190:\n      dup3\n      add\n      swap2\n      swap1\n      0x00\n      mstore\n      keccak256(0x00, 0x20)\n      swap1\n    tag_191:\n      dup2\n      sload\n      dup2\n      mstore\n      swap1\n      0x01\n      add\n      swap1\n      0x20\n      add\n      dup1\n      dup4\n      gt\n      tag_191\n      jumpi\n      dup3\n      swap1\n      sub\n      0x1f\n      and\n      dup3\n      add\n      swap2\n    tag_189:\n      pop\n      pop\n      pop\n      pop\n      pop\n      dup2\n      mstore\n      0x20\n      add\n      swap1\n      0x01\n      add\n      swap1\n      jump(tag_184)\n    tag_185:\n      pop\n      pop\n      pop\n      pop\n      swap1\n      pop\n        /* \"Documents/GitHub/Store-system-with-feedback/main.sol\":5655:5755  function getProductList() public view returns(string[] memory) {\r... */\n      swap1\n      jump\t// out\n        /* \"Documents/GitHub/Store-system-with-feedback/main.sol\":2961:3242  function addProductShop (string memory title, uint256 price, string memory description) public {\r... */\n    tag_57:\n        /* \"Documents/GitHub/Store-system-with-feedback/main.sol\":3091:3163  structProduct(msg.sender, description , price, addProductShop_idProduct) */\n      mload(0x40)\n      dup1\n      0x80\n      add\n      0x40\n      mstore\n      dup1\n        /* \"Documents/GitHub/Store-system-with-feedback/main.sol\":3105:3115  msg.sender */\n      caller\n        /* \"Documents/GitHub/Store-system-with-feedback/main.sol\":3091:3163  structProduct(msg.sender, description , price, addProductShop_idProduct) */\n      0xffffffffffffffffffffffffffffffffffffffff\n      and\n      dup2\n      mstore\n      0x20\n      add\n        /* \"Documents/GitHub/Store-system-with-feedback/main.sol\":3117:3128  description */\n      dup3\n        /* \"Documents/GitHub/Store-system-with-feedback/main.sol\":3091:3163  structProduct(msg.sender, description , price, addProductShop_idProduct) */\n      dup2\n      mstore\n      0x20\n      add\n        /* \"Documents/GitHub/Store-system-with-feedback/main.sol\":3131:3136  price */\n      dup4\n        /* \"Documents/GitHub/Store-system-with-feedback/main.sol\":3091:3163  structProduct(msg.sender, description , price, addProductShop_idProduct) */\n      dup2\n      mstore\n      0x20\n      add\n        /* \"Documents/GitHub/Store-system-with-feedback/main.sol\":3138:3162  addProductShop_idProduct */\n      sload(0x0c)\n        /* \"Documents/GitHub/Store-system-with-feedback/main.sol\":3091:3163  structProduct(msg.sender, description , price, addProductShop_idProduct) */\n      dup2\n      mstore\n      pop\n        /* \"Documents/GitHub/Store-system-with-feedback/main.sol\":3067:3081  structProducts */\n      0x07\n        /* \"Documents/GitHub/Store-system-with-feedback/main.sol\":3082:3087  title */\n      dup5\n        /* \"Documents/GitHub/Store-system-with-feedback/main.sol\":3067:3088  structProducts[title] */\n      mload(0x40)\n      tag_193\n      swap2\n      swap1\n      tag_153\n      jump\t// in\n    tag_193:\n      swap1\n      dup2\n      mstore\n      0x20\n      add\n      mload(0x40)\n      dup1\n      swap2\n      sub\n      swap1\n      keccak256\n        /* \"Documents/GitHub/Store-system-with-feedback/main.sol\":3067:3163  structProducts[title] = structProduct(msg.sender, description , price, addProductShop_idProduct) */\n      0x00\n      dup3\n      add\n      mload\n      dup2\n      0x00\n      add\n      exp(0x0100, 0x00)\n      dup2\n      sload\n      dup2\n      0xffffffffffffffffffffffffffffffffffffffff\n      mul\n      not\n      and\n      swap1\n      dup4\n      0xffffffffffffffffffffffffffffffffffffffff\n      and\n      mul\n      or\n      swap1\n      sstore\n      pop\n      0x20\n      dup3\n      add\n      mload\n      dup2\n      0x01\n      add\n      swap1\n      dup1\n      mload\n      swap1\n      0x20\n      add\n      swap1\n      tag_194\n      swap3\n      swap2\n      swap1\n      tag_159\n      jump\t// in\n    tag_194:\n      pop\n      0x40\n      dup3\n      add\n      mload\n      dup2\n      0x02\n      add\n      sstore\n      0x60\n      dup3\n      add\n      mload\n      dup2\n      0x03\n      add\n      sstore\n      swap1\n      pop\n      pop\n        /* \"Documents/GitHub/Store-system-with-feedback/main.sol\":3174:3185  productList */\n      0x08\n        /* \"Documents/GitHub/Store-system-with-feedback/main.sol\":3191:3196  title */\n      dup4\n        /* \"Documents/GitHub/Store-system-with-feedback/main.sol\":3174:3197  productList.push(title) */\n      swap1\n      dup1\n      0x01\n      dup2\n      sload\n      add\n      dup1\n      dup3\n      sstore\n      dup1\n      swap2\n      pop\n      pop\n      0x01\n      swap1\n      sub\n      swap1\n      0x00\n      mstore\n      keccak256(0x00, 0x20)\n      add\n      0x00\n      swap1\n      swap2\n      swap1\n      swap2\n      swap1\n      swap2\n      pop\n      swap1\n      dup1\n      mload\n      swap1\n      0x20\n      add\n      swap1\n      tag_196\n      swap3\n      swap2\n      swap1\n      tag_159\n      jump\t// in\n    tag_196:\n      pop\n        /* \"Documents/GitHub/Store-system-with-feedback/main.sol\":3208:3232  addProductShop_idProduct */\n      0x0c\n      0x00\n        /* \"Documents/GitHub/Store-system-with-feedback/main.sol\":3208:3234  addProductShop_idProduct++ */\n      dup2\n      sload\n      dup1\n      swap3\n      swap2\n      swap1\n      tag_197\n      swap1\n      tag_198\n      jump\t// in\n    tag_197:\n      swap2\n      swap1\n      pop\n      sstore\n      pop\n        /* \"Documents/GitHub/Store-system-with-feedback/main.sol\":2961:3242  function addProductShop (string memory title, uint256 price, string memory description) public {\r... */\n      pop\n      pop\n      pop\n      jump\t// out\n        /* \"Documents/GitHub/Store-system-with-feedback/main.sol\":2776:2839  structMarriageRegistration[] public structMarriageRegistrations */\n    tag_60:\n      0x0b\n      dup2\n      dup2\n      sload\n      dup2\n      lt\n      tag_199\n      jumpi\n      0x00\n      dup1\n      revert\n    tag_199:\n      swap1\n      0x00\n      mstore\n      keccak256(0x00, 0x20)\n      swap1\n      0x03\n      mul\n      add\n      0x00\n      swap2\n      pop\n      swap1\n      pop\n      dup1\n      0x00\n      add\n      0x00\n      swap1\n      sload\n      swap1\n      0x0100\n      exp\n      swap1\n      div\n      0xffffffffffffffffffffffffffffffffffffffff\n      and\n      swap1\n      dup1\n      0x01\n      add\n      dup1\n      sload\n      tag_201\n      swap1\n      tag_107\n      jump\t// in\n    tag_201:\n      dup1\n      0x1f\n      add\n      0x20\n      dup1\n      swap2\n      div\n      mul\n      0x20\n      add\n      mload(0x40)\n      swap1\n      dup2\n      add\n      0x40\n      mstore\n      dup1\n      swap3\n      swap2\n      swap1\n      dup2\n      dup2\n      mstore\n      0x20\n      add\n      dup3\n      dup1\n      sload\n      tag_202\n      swap1\n      tag_107\n      jump\t// in\n    tag_202:\n      dup1\n      iszero\n      tag_203\n      jumpi\n      dup1\n      0x1f\n      lt\n      tag_204\n      jumpi\n      0x0100\n      dup1\n      dup4\n      sload\n      div\n      mul\n      dup4\n      mstore\n      swap2\n      0x20\n      add\n      swap2\n      jump(tag_203)\n    tag_204:\n      dup3\n      add\n      swap2\n      swap1\n      0x00\n      mstore\n      keccak256(0x00, 0x20)\n      swap1\n    tag_205:\n      dup2\n      sload\n      dup2\n      mstore\n      swap1\n      0x01\n      add\n      swap1\n      0x20\n      add\n      dup1\n      dup4\n      gt\n      tag_205\n      jumpi\n      dup3\n      swap1\n      sub\n      0x1f\n      and\n      dup3\n      add\n      swap2\n    tag_203:\n      pop\n      pop\n      pop\n      pop\n      pop\n      swap1\n      dup1\n      0x02\n      add\n      0x00\n      swap1\n      sload\n      swap1\n      0x0100\n      exp\n      swap1\n      div\n      0xff\n      and\n      swap1\n      pop\n      dup4\n      jump\t// out\n        /* \"Documents/GitHub/Store-system-with-feedback/main.sol\":1806:1855  mapping(address => structUser) public structUsers */\n    tag_66:\n      mstore(0x20, 0x04)\n      dup1\n      0x00\n      mstore\n      keccak256(0x00, 0x40)\n      0x00\n      swap2\n      pop\n      swap1\n      pop\n      dup1\n      0x00\n      add\n      dup1\n      sload\n      tag_206\n      swap1\n      tag_107\n      jump\t// in\n    tag_206:\n      dup1\n      0x1f\n      add\n      0x20\n      dup1\n      swap2\n      div\n      mul\n      0x20\n      add\n      mload(0x40)\n      swap1\n      dup2\n      add\n      0x40\n      mstore\n      dup1\n      swap3\n      swap2\n      swap1\n      dup2\n      dup2\n      mstore\n      0x20\n      add\n      dup3\n      dup1\n      sload\n      tag_207\n      swap1\n      tag_107\n      jump\t// in\n    tag_207:\n      dup1\n      iszero\n      tag_208\n      jumpi\n      dup1\n      0x1f\n      lt\n      tag_209\n      jumpi\n      0x0100\n      dup1\n      dup4\n      sload\n      div\n      mul\n      dup4\n      mstore\n      swap2\n      0x20\n      add\n      swap2\n      jump(tag_208)\n    tag_209:\n      dup3\n      add\n      swap2\n      swap1\n      0x00\n      mstore\n      keccak256(0x00, 0x20)\n      swap1\n    tag_210:\n      dup2\n      sload\n      dup2\n      mstore\n      swap1\n      0x01\n      add\n      swap1\n      0x20\n      add\n      dup1\n      dup4\n      gt\n      tag_210\n      jumpi\n      dup3\n      swap1\n      sub\n      0x1f\n      and\n      dup3\n      add\n      swap2\n    tag_208:\n      pop\n      pop\n      pop\n      pop\n      pop\n      swap1\n      dup1\n      0x01\n      add\n      sload\n      swap1\n      dup1\n      0x02\n      add\n      sload\n      swap1\n      pop\n      dup4\n      jump\t// out\n        /* \"Documents/GitHub/Store-system-with-feedback/main.sol\":5787:6163  function getStoryRating(string memory shopName) public view returns(uint) {\r... */\n    tag_71:\n        /* \"Documents/GitHub/Store-system-with-feedback/main.sol\":5855:5859  uint */\n      0x00\n        /* \"Documents/GitHub/Store-system-with-feedback/main.sol\":5936:5944  shopList */\n      0x02\n        /* \"Documents/GitHub/Store-system-with-feedback/main.sol\":5925:5945  abi.encode(shopList) */\n      add(0x20, mload(0x40))\n      tag_212\n      swap2\n      swap1\n      tag_213\n      jump\t// in\n    tag_212:\n      mload(0x40)\n      0x20\n      dup2\n      dup4\n      sub\n      sub\n      dup2\n      mstore\n      swap1\n      0x40\n      mstore\n        /* \"Documents/GitHub/Store-system-with-feedback/main.sol\":5915:5946  keccak256(abi.encode(shopList)) */\n      dup1\n      mload\n      swap1\n      0x20\n      add\n      keccak256\n        /* \"Documents/GitHub/Store-system-with-feedback/main.sol\":5901:5909  shopName */\n      dup3\n        /* \"Documents/GitHub/Store-system-with-feedback/main.sol\":5890:5910  abi.encode(shopName) */\n      add(0x20, mload(0x40))\n      tag_214\n      swap2\n      swap1\n      tag_215\n      jump\t// in\n    tag_214:\n      mload(0x40)\n      0x20\n      dup2\n      dup4\n      sub\n      sub\n      dup2\n      mstore\n      swap1\n      0x40\n      mstore\n        /* \"Documents/GitHub/Store-system-with-feedback/main.sol\":5880:5911  keccak256(abi.encode(shopName)) */\n      dup1\n      mload\n      swap1\n      0x20\n      add\n      keccak256\n        /* \"Documents/GitHub/Store-system-with-feedback/main.sol\":5880:5946  keccak256(abi.encode(shopName)) == keccak256(abi.encode(shopList)) */\n      eq\n        /* \"Documents/GitHub/Store-system-with-feedback/main.sol\":5872:5965  require(keccak256(abi.encode(shopName)) == keccak256(abi.encode(shopList)), \"error: no shop\") */\n      tag_216\n      jumpi\n      mload(0x40)\n      0x08c379a000000000000000000000000000000000000000000000000000000000\n      dup2\n      mstore\n      0x04\n      add\n      tag_217\n      swap1\n      tag_218\n      jump\t// in\n    tag_217:\n      mload(0x40)\n      dup1\n      swap2\n      sub\n      swap1\n      revert\n    tag_216:\n        /* \"Documents/GitHub/Store-system-with-feedback/main.sol\":5976:5986  uint count */\n      0x00\n        /* \"Documents/GitHub/Store-system-with-feedback/main.sol\":6001:6025  uint complaintBooklength */\n      dup1\n        /* \"Documents/GitHub/Store-system-with-feedback/main.sol\":6028:6042  complaintBooks */\n      0x03\n        /* \"Documents/GitHub/Store-system-with-feedback/main.sol\":6028:6049  complaintBooks.length */\n      dup1\n      sload\n      swap1\n      pop\n        /* \"Documents/GitHub/Store-system-with-feedback/main.sol\":6001:6049  uint complaintBooklength = complaintBooks.length */\n      swap1\n      pop\n        /* \"Documents/GitHub/Store-system-with-feedback/main.sol\":6065:6071  uint i */\n      0x00\n        /* \"Documents/GitHub/Store-system-with-feedback/main.sol\":6060:6133  for (uint i = 0; i < complaintBooklength; i++) {\r... */\n    tag_219:\n        /* \"Documents/GitHub/Store-system-with-feedback/main.sol\":6081:6100  complaintBooklength */\n      dup2\n        /* \"Documents/GitHub/Store-system-with-feedback/main.sol\":6077:6078  i */\n      dup2\n        /* \"Documents/GitHub/Store-system-with-feedback/main.sol\":6077:6100  i < complaintBooklength */\n      lt\n        /* \"Documents/GitHub/Store-system-with-feedback/main.sol\":6060:6133  for (uint i = 0; i < complaintBooklength; i++) {\r... */\n      iszero\n      tag_220\n      jumpi\n        /* \"Documents/GitHub/Store-system-with-feedback/main.sol\":6102:6105  i++ */\n      dup1\n      dup1\n      tag_222\n      swap1\n      tag_198\n      jump\t// in\n    tag_222:\n      swap2\n      pop\n      pop\n        /* \"Documents/GitHub/Store-system-with-feedback/main.sol\":6060:6133  for (uint i = 0; i < complaintBooklength; i++) {\r... */\n      jump(tag_219)\n    tag_220:\n      pop\n        /* \"Documents/GitHub/Store-system-with-feedback/main.sol\":6150:6155  count */\n      dup2\n        /* \"Documents/GitHub/Store-system-with-feedback/main.sol\":6143:6155  return count */\n      swap3\n      pop\n      pop\n      pop\n        /* \"Documents/GitHub/Store-system-with-feedback/main.sol\":5787:6163  function getStoryRating(string memory shopName) public view returns(uint) {\r... */\n      swap2\n      swap1\n      pop\n      jump\t// out\n        /* \"Documents/GitHub/Store-system-with-feedback/main.sol\":2556:2603  structStatusReturn[] public structStatusReturns */\n    tag_76:\n      0x0a\n      dup2\n      dup2\n      sload\n      dup2\n      lt\n      tag_223\n      jumpi\n      0x00\n      dup1\n      revert\n    tag_223:\n      swap1\n      0x00\n      mstore\n      keccak256(0x00, 0x20)\n      swap1\n      0x03\n      mul\n      add\n      0x00\n      swap2\n      pop\n      swap1\n      pop\n      dup1\n      0x00\n      add\n      0x00\n      swap1\n      sload\n      swap1\n      0x0100\n      exp\n      swap1\n      div\n      0xffffffffffffffffffffffffffffffffffffffff\n      and\n      swap1\n      dup1\n      0x01\n      add\n      dup1\n      sload\n      tag_225\n      swap1\n      tag_107\n      jump\t// in\n    tag_225:\n      dup1\n      0x1f\n      add\n      0x20\n      dup1\n      swap2\n      div\n      mul\n      0x20\n      add\n      mload(0x40)\n      swap1\n      dup2\n      add\n      0x40\n      mstore\n      dup1\n      swap3\n      swap2\n      swap1\n      dup2\n      dup2\n      mstore\n      0x20\n      add\n      dup3\n      dup1\n      sload\n      tag_226\n      swap1\n      tag_107\n      jump\t// in\n    tag_226:\n      dup1\n      iszero\n      tag_227\n      jumpi\n      dup1\n      0x1f\n      lt\n      tag_228\n      jumpi\n      0x0100\n      dup1\n      dup4\n      sload\n      div\n      mul\n      dup4\n      mstore\n      swap2\n      0x20\n      add\n      swap2\n      jump(tag_227)\n    tag_228:\n      dup3\n      add\n      swap2\n      swap1\n      0x00\n      mstore\n      keccak256(0x00, 0x20)\n      swap1\n    tag_229:\n      dup2\n      sload\n      dup2\n      mstore\n      swap1\n      0x01\n      add\n      swap1\n      0x20\n      add\n      dup1\n      dup4\n      gt\n      tag_229\n      jumpi\n      dup3\n      swap1\n      sub\n      0x1f\n      and\n      dup3\n      add\n      swap2\n    tag_227:\n      pop\n      pop\n      pop\n      pop\n      pop\n      swap1\n      dup1\n      0x02\n      add\n      0x00\n      swap1\n      sload\n      swap1\n      0x0100\n      exp\n      swap1\n      div\n      0xff\n      and\n      swap1\n      pop\n      dup4\n      jump\t// out\n        /* \"Documents/GitHub/Store-system-with-feedback/main.sol\":6558:6712  function productReturn (string memory titleProduct) public {\r... */\n    tag_80:\n        /* \"Documents/GitHub/Store-system-with-feedback/main.sol\":6628:6647  structStatusReturns */\n      0x0a\n        /* \"Documents/GitHub/Store-system-with-feedback/main.sol\":6653:6703  structStatusReturn(msg.sender, titleProduct, true) */\n      mload(0x40)\n      dup1\n      0x60\n      add\n      0x40\n      mstore\n      dup1\n        /* \"Documents/GitHub/Store-system-with-feedback/main.sol\":6672:6682  msg.sender */\n      caller\n        /* \"Documents/GitHub/Store-system-with-feedback/main.sol\":6653:6703  structStatusReturn(msg.sender, titleProduct, true) */\n      0xffffffffffffffffffffffffffffffffffffffff\n      and\n      dup2\n      mstore\n      0x20\n      add\n        /* \"Documents/GitHub/Store-system-with-feedback/main.sol\":6684:6696  titleProduct */\n      dup4\n        /* \"Documents/GitHub/Store-system-with-feedback/main.sol\":6653:6703  structStatusReturn(msg.sender, titleProduct, true) */\n      dup2\n      mstore\n      0x20\n      add\n        /* \"Documents/GitHub/Store-system-with-feedback/main.sol\":6698:6702  true */\n      0x01\n        /* \"Documents/GitHub/Store-system-with-feedback/main.sol\":6653:6703  structStatusReturn(msg.sender, titleProduct, true) */\n      iszero\n      iszero\n      dup2\n      mstore\n      pop\n        /* \"Documents/GitHub/Store-system-with-feedback/main.sol\":6628:6704  structStatusReturns.push(structStatusReturn(msg.sender, titleProduct, true)) */\n      swap1\n      dup1\n      0x01\n      dup2\n      sload\n      add\n      dup1\n      dup3\n      sstore\n      dup1\n      swap2\n      pop\n      pop\n      0x01\n      swap1\n      sub\n      swap1\n      0x00\n      mstore\n      keccak256(0x00, 0x20)\n      swap1\n      0x03\n      mul\n      add\n      0x00\n      swap1\n      swap2\n      swap1\n      swap2\n      swap1\n      swap2\n      pop\n      0x00\n      dup3\n      add\n      mload\n      dup2\n      0x00\n      add\n      exp(0x0100, 0x00)\n      dup2\n      sload\n      dup2\n      0xffffffffffffffffffffffffffffffffffffffff\n      mul\n      not\n      and\n      swap1\n      dup4\n      0xffffffffffffffffffffffffffffffffffffffff\n      and\n      mul\n      or\n      swap1\n      sstore\n      pop\n      0x20\n      dup3\n      add\n      mload\n      dup2\n      0x01\n      add\n      swap1\n      dup1\n      mload\n      swap1\n      0x20\n      add\n      swap1\n      tag_232\n      swap3\n      swap2\n      swap1\n      tag_159\n      jump\t// in\n    tag_232:\n      pop\n      0x40\n      dup3\n      add\n      mload\n      dup2\n      0x02\n      add\n      exp(0x0100, 0x00)\n      dup2\n      sload\n      dup2\n      0xff\n      mul\n      not\n      and\n      swap1\n      dup4\n      iszero\n      iszero\n      mul\n      or\n      swap1\n      sstore\n      pop\n      pop\n      pop\n        /* \"Documents/GitHub/Store-system-with-feedback/main.sol\":6558:6712  function productReturn (string memory titleProduct) public {\r... */\n      pop\n      jump\t// out\n        /* \"Documents/GitHub/Store-system-with-feedback/main.sol\":5525:5619  function getShopList() public view returns(string[] memory) {\r... */\n    tag_82:\n        /* \"Documents/GitHub/Store-system-with-feedback/main.sol\":5568:5583  string[] memory */\n      0x60\n        /* \"Documents/GitHub/Store-system-with-feedback/main.sol\":5603:5611  shopList */\n      0x02\n        /* \"Documents/GitHub/Store-system-with-feedback/main.sol\":5596:5611  return shopList */\n      dup1\n      sload\n      dup1\n      0x20\n      mul\n      0x20\n      add\n      mload(0x40)\n      swap1\n      dup2\n      add\n      0x40\n      mstore\n      dup1\n      swap3\n      swap2\n      swap1\n      dup2\n      dup2\n      mstore\n      0x20\n      add\n      0x00\n      swap1\n    tag_234:\n      dup3\n      dup3\n      lt\n      iszero\n      tag_235\n      jumpi\n      dup4\n      dup3\n      swap1\n      0x00\n      mstore\n      keccak256(0x00, 0x20)\n      add\n      dup1\n      sload\n      tag_237\n      swap1\n      tag_107\n      jump\t// in\n    tag_237:\n      dup1\n      0x1f\n      add\n      0x20\n      dup1\n      swap2\n      div\n      mul\n      0x20\n      add\n      mload(0x40)\n      swap1\n      dup2\n      add\n      0x40\n      mstore\n      dup1\n      swap3\n      swap2\n      swap1\n      dup2\n      dup2\n      mstore\n      0x20\n      add\n      dup3\n      dup1\n      sload\n      tag_238\n      swap1\n      tag_107\n      jump\t// in\n    tag_238:\n      dup1\n      iszero\n      tag_239\n      jumpi\n      dup1\n      0x1f\n      lt\n      tag_240\n      jumpi\n      0x0100\n      dup1\n      dup4\n      sload\n      div\n      mul\n      dup4\n      mstore\n      swap2\n      0x20\n      add\n      swap2\n      jump(tag_239)\n    tag_240:\n      dup3\n      add\n      swap2\n      swap1\n      0x00\n      mstore\n      keccak256(0x00, 0x20)\n      swap1\n    tag_241:\n      dup2\n      sload\n      dup2\n      mstore\n      swap1\n      0x01\n      add\n      swap1\n      0x20\n      add\n      dup1\n      dup4\n      gt\n      tag_241\n      jumpi\n      dup3\n      swap1\n      sub\n      0x1f\n      and\n      dup3\n      add\n      swap2\n    tag_239:\n      pop\n      pop\n      pop\n      pop\n      pop\n      dup2\n      mstore\n      0x20\n      add\n      swap1\n      0x01\n      add\n      swap1\n      jump(tag_234)\n    tag_235:\n      pop\n      pop\n      pop\n      pop\n      swap1\n      pop\n        /* \"Documents/GitHub/Store-system-with-feedback/main.sol\":5525:5619  function getShopList() public view returns(string[] memory) {\r... */\n      swap1\n      jump\t// out\n        /* \"Documents/GitHub/Store-system-with-feedback/main.sol\":1297:1340  mapping(string => address) public shopLists */\n    tag_86:\n      0x01\n      dup2\n      dup1\n      mload\n      0x20\n      dup2\n      add\n      dup3\n      add\n      dup1\n      mload\n      dup5\n      dup3\n      mstore\n      0x20\n      dup4\n      add\n      0x20\n      dup6\n      add\n      keccak256\n      dup2\n      dup4\n      mstore\n      dup1\n      swap6\n      pop\n      pop\n      pop\n      pop\n      pop\n      pop\n      0x00\n      swap2\n      pop\n      sload\n      swap1\n      0x0100\n      exp\n      swap1\n      div\n      0xffffffffffffffffffffffffffffffffffffffff\n      and\n      dup2\n      jump\t// out\n        /* \"Documents/GitHub/Store-system-with-feedback/main.sol\":3321:3687  function leaveFeedback (string memory shop, string memory feedback, uint256 rating) public {\r... */\n    tag_91:\n        /* \"Documents/GitHub/Store-system-with-feedback/main.sol\":3441:3443  10 */\n      0x0a\n        /* \"Documents/GitHub/Store-system-with-feedback/main.sol\":3431:3437  rating */\n      dup2\n        /* \"Documents/GitHub/Store-system-with-feedback/main.sol\":3431:3443  rating <= 10 */\n      gt\n      iszero\n        /* \"Documents/GitHub/Store-system-with-feedback/main.sol\":3423:3480  require(rating <= 10,\"error: rating can be from 1 to 10\") */\n      tag_243\n      jumpi\n      mload(0x40)\n      0x08c379a000000000000000000000000000000000000000000000000000000000\n      dup2\n      mstore\n      0x04\n      add\n      tag_244\n      swap1\n      tag_245\n      jump\t// in\n    tag_244:\n      mload(0x40)\n      dup1\n      swap2\n      sub\n      swap1\n      revert\n    tag_243:\n        /* \"Documents/GitHub/Store-system-with-feedback/main.sol\":3491:3517  string[] memory zerroArray */\n      0x60\n        /* \"Documents/GitHub/Store-system-with-feedback/main.sol\":3565:3648  complaintBook(shop, structUsers[msg.sender].userName, feedback, rating, zerroArray) */\n      mload(0x40)\n      dup1\n      0xa0\n      add\n      0x40\n      mstore\n      dup1\n        /* \"Documents/GitHub/Store-system-with-feedback/main.sol\":3579:3583  shop */\n      dup6\n        /* \"Documents/GitHub/Store-system-with-feedback/main.sol\":3565:3648  complaintBook(shop, structUsers[msg.sender].userName, feedback, rating, zerroArray) */\n      dup2\n      mstore\n      0x20\n      add\n        /* \"Documents/GitHub/Store-system-with-feedback/main.sol\":3585:3596  structUsers */\n      0x04\n        /* \"Documents/GitHub/Store-system-with-feedback/main.sol\":3585:3608  structUsers[msg.sender] */\n      0x00\n        /* \"Documents/GitHub/Store-system-with-feedback/main.sol\":3597:3607  msg.sender */\n      caller\n        /* \"Documents/GitHub/Store-system-with-feedback/main.sol\":3585:3608  structUsers[msg.sender] */\n      0xffffffffffffffffffffffffffffffffffffffff\n      and\n      0xffffffffffffffffffffffffffffffffffffffff\n      and\n      dup2\n      mstore\n      0x20\n      add\n      swap1\n      dup2\n      mstore\n      0x20\n      add\n      0x00\n      keccak256\n        /* \"Documents/GitHub/Store-system-with-feedback/main.sol\":3585:3617  structUsers[msg.sender].userName */\n      0x00\n      add\n        /* \"Documents/GitHub/Store-system-with-feedback/main.sol\":3565:3648  complaintBook(shop, structUsers[msg.sender].userName, feedback, rating, zerroArray) */\n      dup1\n      sload\n      tag_246\n      swap1\n      tag_107\n      jump\t// in\n    tag_246:\n      dup1\n      0x1f\n      add\n      0x20\n      dup1\n      swap2\n      div\n      mul\n      0x20\n      add\n      mload(0x40)\n      swap1\n      dup2\n      add\n      0x40\n      mstore\n      dup1\n      swap3\n      swap2\n      swap1\n      dup2\n      dup2\n      mstore\n      0x20\n      add\n      dup3\n      dup1\n      sload\n      tag_247\n      swap1\n      tag_107\n      jump\t// in\n    tag_247:\n      dup1\n      iszero\n      tag_248\n      jumpi\n      dup1\n      0x1f\n      lt\n      tag_249\n      jumpi\n      0x0100\n      dup1\n      dup4\n      sload\n      div\n      mul\n      dup4\n      mstore\n      swap2\n      0x20\n      add\n      swap2\n      jump(tag_248)\n    tag_249:\n      dup3\n      add\n      swap2\n      swap1\n      0x00\n      mstore\n      keccak256(0x00, 0x20)\n      swap1\n    tag_250:\n      dup2\n      sload\n      dup2\n      mstore\n      swap1\n      0x01\n      add\n      swap1\n      0x20\n      add\n      dup1\n      dup4\n      gt\n      tag_250\n      jumpi\n      dup3\n      swap1\n      sub\n      0x1f\n      and\n      dup3\n      add\n      swap2\n    tag_248:\n      pop\n      pop\n      pop\n      pop\n      pop\n      dup2\n      mstore\n      0x20\n      add\n        /* \"Documents/GitHub/Store-system-with-feedback/main.sol\":3619:3627  feedback */\n      dup5\n        /* \"Documents/GitHub/Store-system-with-feedback/main.sol\":3565:3648  complaintBook(shop, structUsers[msg.sender].userName, feedback, rating, zerroArray) */\n      dup2\n      mstore\n      0x20\n      add\n        /* \"Documents/GitHub/Store-system-with-feedback/main.sol\":3629:3635  rating */\n      dup4\n        /* \"Documents/GitHub/Store-system-with-feedback/main.sol\":3565:3648  complaintBook(shop, structUsers[msg.sender].userName, feedback, rating, zerroArray) */\n      dup2\n      mstore\n      0x20\n      add\n        /* \"Documents/GitHub/Store-system-with-feedback/main.sol\":3637:3647  zerroArray */\n      dup3\n        /* \"Documents/GitHub/Store-system-with-feedback/main.sol\":3565:3648  complaintBook(shop, structUsers[msg.sender].userName, feedback, rating, zerroArray) */\n      dup2\n      mstore\n      pop\n        /* \"Documents/GitHub/Store-system-with-feedback/main.sol\":3528:3542  complaintBooks */\n      0x03\n        /* \"Documents/GitHub/Store-system-with-feedback/main.sol\":3543:3561  countLeaveFeedback */\n      sload(0x0d)\n        /* \"Documents/GitHub/Store-system-with-feedback/main.sol\":3528:3562  complaintBooks[countLeaveFeedback] */\n      dup2\n      sload\n      dup2\n      lt\n      tag_251\n      jumpi\n      tag_252\n      tag_126\n      jump\t// in\n    tag_252:\n    tag_251:\n      swap1\n      0x00\n      mstore\n      keccak256(0x00, 0x20)\n      swap1\n      0x05\n      mul\n      add\n        /* \"Documents/GitHub/Store-system-with-feedback/main.sol\":3528:3648  complaintBooks[countLeaveFeedback] = complaintBook(shop, structUsers[msg.sender].userName, feedback, rating, zerroArray) */\n      0x00\n      dup3\n      add\n      mload\n      dup2\n      0x00\n      add\n      swap1\n      dup1\n      mload\n      swap1\n      0x20\n      add\n      swap1\n      tag_254\n      swap3\n      swap2\n      swap1\n      tag_159\n      jump\t// in\n    tag_254:\n      pop\n      0x20\n      dup3\n      add\n      mload\n      dup2\n      0x01\n      add\n      swap1\n      dup1\n      mload\n      swap1\n      0x20\n      add\n      swap1\n      tag_255\n      swap3\n      swap2\n      swap1\n      tag_159\n      jump\t// in\n    tag_255:\n      pop\n      0x40\n      dup3\n      add\n      mload\n      dup2\n      0x02\n      add\n      swap1\n      dup1\n      mload\n      swap1\n      0x20\n      add\n      swap1\n      tag_256\n      swap3\n      swap2\n      swap1\n      tag_159\n      jump\t// in\n    tag_256:\n      pop\n      0x60\n      dup3\n      add\n      mload\n      dup2\n      0x03\n      add\n      sstore\n      0x80\n      dup3\n      add\n      mload\n      dup2\n      0x04\n      add\n      swap1\n      dup1\n      mload\n      swap1\n      0x20\n      add\n      swap1\n      tag_257\n      swap3\n      swap2\n      swap1\n      tag_258\n      jump\t// in\n    tag_257:\n      pop\n      swap1\n      pop\n      pop\n        /* \"Documents/GitHub/Store-system-with-feedback/main.sol\":3659:3677  countLeaveFeedback */\n      0x0d\n      0x00\n        /* \"Documents/GitHub/Store-system-with-feedback/main.sol\":3659:3679  countLeaveFeedback++ */\n      dup2\n      sload\n      dup1\n      swap3\n      swap2\n      swap1\n      tag_259\n      swap1\n      tag_198\n      jump\t// in\n    tag_259:\n      swap2\n      swap1\n      pop\n      sstore\n      pop\n        /* \"Documents/GitHub/Store-system-with-feedback/main.sol\":3412:3687  {\r... */\n      pop\n        /* \"Documents/GitHub/Store-system-with-feedback/main.sol\":3321:3687  function leaveFeedback (string memory shop, string memory feedback, uint256 rating) public {\r... */\n      pop\n      pop\n      pop\n      jump\t// out\n        /* \"Documents/GitHub/Store-system-with-feedback/main.sol\":2105:2159  mapping(string => structProduct) public structProducts */\n    tag_94:\n      0x07\n      dup2\n      dup1\n      mload\n      0x20\n      dup2\n      add\n      dup3\n      add\n      dup1\n      mload\n      dup5\n      dup3\n      mstore\n      0x20\n      dup4\n      add\n      0x20\n      dup6\n      add\n      keccak256\n      dup2\n      dup4\n      mstore\n      dup1\n      swap6\n      pop\n      pop\n      pop\n      pop\n      pop\n      pop\n      0x00\n      swap2\n      pop\n      swap1\n      pop\n      dup1\n      0x00\n      add\n      0x00\n      swap1\n      sload\n      swap1\n      0x0100\n      exp\n      swap1\n      div\n      0xffffffffffffffffffffffffffffffffffffffff\n      and\n      swap1\n      dup1\n      0x01\n      add\n      dup1\n      sload\n      tag_260\n      swap1\n      tag_107\n      jump\t// in\n    tag_260:\n      dup1\n      0x1f\n      add\n      0x20\n      dup1\n      swap2\n      div\n      mul\n      0x20\n      add\n      mload(0x40)\n      swap1\n      dup2\n      add\n      0x40\n      mstore\n      dup1\n      swap3\n      swap2\n      swap1\n      dup2\n      dup2\n      mstore\n      0x20\n      add\n      dup3\n      dup1\n      sload\n      tag_261\n      swap1\n      tag_107\n      jump\t// in\n    tag_261:\n      dup1\n      iszero\n      tag_262\n      jumpi\n      dup1\n      0x1f\n      lt\n      tag_263\n      jumpi\n      0x0100\n      dup1\n      dup4\n      sload\n      div\n      mul\n      dup4\n      mstore\n      swap2\n      0x20\n      add\n      swap2\n      jump(tag_262)\n    tag_263:\n      dup3\n      add\n      swap2\n      swap1\n      0x00\n      mstore\n      keccak256(0x00, 0x20)\n      swap1\n    tag_264:\n      dup2\n      sload\n      dup2\n      mstore\n      swap1\n      0x01\n      add\n      swap1\n      0x20\n      add\n      dup1\n      dup4\n      gt\n      tag_264\n      jumpi\n      dup3\n      swap1\n      sub\n      0x1f\n      and\n      dup3\n      add\n      swap2\n    tag_262:\n      pop\n      pop\n      pop\n      pop\n      pop\n      swap1\n      dup1\n      0x02\n      add\n      sload\n      swap1\n      dup1\n      0x03\n      add\n      sload\n      swap1\n      pop\n      dup5\n      jump\t// out\n        /* \"Documents/GitHub/Store-system-with-feedback/main.sol\":2348:2399  structStatusPurchase[] public structStatusPurchases */\n    tag_99:\n      0x09\n      dup2\n      dup2\n      sload\n      dup2\n      lt\n      tag_265\n      jumpi\n      0x00\n      dup1\n      revert\n    tag_265:\n      swap1\n      0x00\n      mstore\n      keccak256(0x00, 0x20)\n      swap1\n      0x03\n      mul\n      add\n      0x00\n      swap2\n      pop\n      swap1\n      pop\n      dup1\n      0x00\n      add\n      0x00\n      swap1\n      sload\n      swap1\n      0x0100\n      exp\n      swap1\n      div\n      0xffffffffffffffffffffffffffffffffffffffff\n      and\n      swap1\n      dup1\n      0x01\n      add\n      dup1\n      sload\n      tag_267\n      swap1\n      tag_107\n      jump\t// in\n    tag_267:\n      dup1\n      0x1f\n      add\n      0x20\n      dup1\n      swap2\n      div\n      mul\n      0x20\n      add\n      mload(0x40)\n      swap1\n      dup2\n      add\n      0x40\n      mstore\n      dup1\n      swap3\n      swap2\n      swap1\n      dup2\n      dup2\n      mstore\n      0x20\n      add\n      dup3\n      dup1\n      sload\n      tag_268\n      swap1\n      tag_107\n      jump\t// in\n    tag_268:\n      dup1\n      iszero\n      tag_269\n      jumpi\n      dup1\n      0x1f\n      lt\n      tag_270\n      jumpi\n      0x0100\n      dup1\n      dup4\n      sload\n      div\n      mul\n      dup4\n      mstore\n      swap2\n      0x20\n      add\n      swap2\n      jump(tag_269)\n    tag_270:\n      dup3\n      add\n      swap2\n      swap1\n      0x00\n      mstore\n      keccak256(0x00, 0x20)\n      swap1\n    tag_271:\n      dup2\n      sload\n      dup2\n      mstore\n      swap1\n      0x01\n      add\n      swap1\n      0x20\n      add\n      dup1\n      dup4\n      gt\n      tag_271\n      jumpi\n      dup3\n      swap1\n      sub\n      0x1f\n      and\n      dup3\n      add\n      swap2\n    tag_269:\n      pop\n      pop\n      pop\n      pop\n      pop\n      swap1\n      dup1\n      0x02\n      add\n      0x00\n      swap1\n      sload\n      swap1\n      0x0100\n      exp\n      swap1\n      div\n      0xff\n      and\n      swap1\n      pop\n      dup4\n      jump\t// out\n        /* \"Documents/GitHub/Store-system-with-feedback/main.sol\":4914:5491  function MarriageRegistration(uint idMarriageRegistration, bool confirmation) public {\r... */\n    tag_103:\n        /* \"Documents/GitHub/Store-system-with-feedback/main.sol\":5029:5033  true */\n      0x01\n        /* \"Documents/GitHub/Store-system-with-feedback/main.sol\":5013:5033  confirmation == true */\n      iszero\n      iszero\n        /* \"Documents/GitHub/Store-system-with-feedback/main.sol\":5013:5025  confirmation */\n      dup2\n        /* \"Documents/GitHub/Store-system-with-feedback/main.sol\":5013:5033  confirmation == true */\n      iszero\n      iszero\n      eq\n        /* \"Documents/GitHub/Store-system-with-feedback/main.sol\":5010:5484  if(confirmation == true) {\r... */\n      iszero\n      tag_273\n      jumpi\n        /* \"Documents/GitHub/Store-system-with-feedback/main.sol\":5103:5108  false */\n      0x00\n        /* \"Documents/GitHub/Store-system-with-feedback/main.sol\":5050:5069  structStatusReturns */\n      0x0a\n        /* \"Documents/GitHub/Store-system-with-feedback/main.sol\":5070:5092  idMarriageRegistration */\n      dup4\n        /* \"Documents/GitHub/Store-system-with-feedback/main.sol\":5050:5093  structStatusReturns[idMarriageRegistration] */\n      dup2\n      sload\n      dup2\n      lt\n      tag_274\n      jumpi\n      tag_275\n      tag_126\n      jump\t// in\n    tag_275:\n    tag_274:\n      swap1\n      0x00\n      mstore\n      keccak256(0x00, 0x20)\n      swap1\n      0x03\n      mul\n      add\n        /* \"Documents/GitHub/Store-system-with-feedback/main.sol\":5050:5100  structStatusReturns[idMarriageRegistration].status */\n      0x02\n      add\n      0x00\n        /* \"Documents/GitHub/Store-system-with-feedback/main.sol\":5050:5108  structStatusReturns[idMarriageRegistration].status = false */\n      0x0100\n      exp\n      dup2\n      sload\n      dup2\n      0xff\n      mul\n      not\n      and\n      swap1\n      dup4\n      iszero\n      iszero\n      mul\n      or\n      swap1\n      sstore\n      pop\n        /* \"Documents/GitHub/Store-system-with-feedback/main.sol\":5295:5309  structProducts */\n      0x07\n        /* \"Documents/GitHub/Store-system-with-feedback/main.sol\":5310:5337  structMarriageRegistrations */\n      0x0b\n        /* \"Documents/GitHub/Store-system-with-feedback/main.sol\":5338:5360  idMarriageRegistration */\n      dup4\n        /* \"Documents/GitHub/Store-system-with-feedback/main.sol\":5310:5361  structMarriageRegistrations[idMarriageRegistration] */\n      dup2\n      sload\n      dup2\n      lt\n      tag_277\n      jumpi\n      tag_278\n      tag_126\n      jump\t// in\n    tag_278:\n    tag_277:\n      swap1\n      0x00\n      mstore\n      keccak256(0x00, 0x20)\n      swap1\n      0x03\n      mul\n      add\n        /* \"Documents/GitHub/Store-system-with-feedback/main.sol\":5310:5374  structMarriageRegistrations[idMarriageRegistration].titleProduct */\n      0x01\n      add\n        /* \"Documents/GitHub/Store-system-with-feedback/main.sol\":5295:5375  structProducts[structMarriageRegistrations[idMarriageRegistration].titleProduct] */\n      mload(0x40)\n      tag_280\n      swap2\n      swap1\n      tag_132\n      jump\t// in\n    tag_280:\n      swap1\n      dup2\n      mstore\n      0x20\n      add\n      mload(0x40)\n      dup1\n      swap2\n      sub\n      swap1\n      keccak256\n        /* \"Documents/GitHub/Store-system-with-feedback/main.sol\":5295:5381  structProducts[structMarriageRegistrations[idMarriageRegistration].titleProduct].price */\n      0x02\n      add\n      sload\n        /* \"Documents/GitHub/Store-system-with-feedback/main.sol\":5209:5220  structUsers */\n      0x04\n        /* \"Documents/GitHub/Store-system-with-feedback/main.sol\":5209:5283  structUsers[structMarriageRegistrations[idMarriageRegistration].userLogin] */\n      0x00\n        /* \"Documents/GitHub/Store-system-with-feedback/main.sol\":5221:5248  structMarriageRegistrations */\n      0x0b\n        /* \"Documents/GitHub/Store-system-with-feedback/main.sol\":5249:5271  idMarriageRegistration */\n      dup6\n        /* \"Documents/GitHub/Store-system-with-feedback/main.sol\":5221:5272  structMarriageRegistrations[idMarriageRegistration] */\n      dup2\n      sload\n      dup2\n      lt\n      tag_281\n      jumpi\n      tag_282\n      tag_126\n      jump\t// in\n    tag_282:\n    tag_281:\n      swap1\n      0x00\n      mstore\n      keccak256(0x00, 0x20)\n      swap1\n      0x03\n      mul\n      add\n        /* \"Documents/GitHub/Store-system-with-feedback/main.sol\":5221:5282  structMarriageRegistrations[idMarriageRegistration].userLogin */\n      0x00\n      add\n      0x00\n      swap1\n      sload\n      swap1\n      0x0100\n      exp\n      swap1\n      div\n      0xffffffffffffffffffffffffffffffffffffffff\n      and\n        /* \"Documents/GitHub/Store-system-with-feedback/main.sol\":5209:5283  structUsers[structMarriageRegistrations[idMarriageRegistration].userLogin] */\n      0xffffffffffffffffffffffffffffffffffffffff\n      and\n      0xffffffffffffffffffffffffffffffffffffffff\n      and\n      dup2\n      mstore\n      0x20\n      add\n      swap1\n      dup2\n      mstore\n      0x20\n      add\n      0x00\n      keccak256\n        /* \"Documents/GitHub/Store-system-with-feedback/main.sol\":5209:5292  structUsers[structMarriageRegistrations[idMarriageRegistration].userLogin].ballance */\n      0x02\n      add\n      sload\n        /* \"Documents/GitHub/Store-system-with-feedback/main.sol\":5209:5381  structUsers[structMarriageRegistrations[idMarriageRegistration].userLogin].ballance + structProducts[structMarriageRegistrations[idMarriageRegistration].titleProduct].price */\n      tag_284\n      swap2\n      swap1\n      tag_146\n      jump\t// in\n    tag_284:\n        /* \"Documents/GitHub/Store-system-with-feedback/main.sol\":5123:5134  structUsers */\n      0x04\n        /* \"Documents/GitHub/Store-system-with-feedback/main.sol\":5123:5197  structUsers[structMarriageRegistrations[idMarriageRegistration].userLogin] */\n      0x00\n        /* \"Documents/GitHub/Store-system-with-feedback/main.sol\":5135:5162  structMarriageRegistrations */\n      0x0b\n        /* \"Documents/GitHub/Store-system-with-feedback/main.sol\":5163:5185  idMarriageRegistration */\n      dup6\n        /* \"Documents/GitHub/Store-system-with-feedback/main.sol\":5135:5186  structMarriageRegistrations[idMarriageRegistration] */\n      dup2\n      sload\n      dup2\n      lt\n      tag_285\n      jumpi\n      tag_286\n      tag_126\n      jump\t// in\n    tag_286:\n    tag_285:\n      swap1\n      0x00\n      mstore\n      keccak256(0x00, 0x20)\n      swap1\n      0x03\n      mul\n      add\n        /* \"Documents/GitHub/Store-system-with-feedback/main.sol\":5135:5196  structMarriageRegistrations[idMarriageRegistration].userLogin */\n      0x00\n      add\n      0x00\n      swap1\n      sload\n      swap1\n      0x0100\n      exp\n      swap1\n      div\n      0xffffffffffffffffffffffffffffffffffffffff\n      and\n        /* \"Documents/GitHub/Store-system-with-feedback/main.sol\":5123:5197  structUsers[structMarriageRegistrations[idMarriageRegistration].userLogin] */\n      0xffffffffffffffffffffffffffffffffffffffff\n      and\n      0xffffffffffffffffffffffffffffffffffffffff\n      and\n      dup2\n      mstore\n      0x20\n      add\n      swap1\n      dup2\n      mstore\n      0x20\n      add\n      0x00\n      keccak256\n        /* \"Documents/GitHub/Store-system-with-feedback/main.sol\":5123:5206  structUsers[structMarriageRegistrations[idMarriageRegistration].userLogin].ballance */\n      0x02\n      add\n        /* \"Documents/GitHub/Store-system-with-feedback/main.sol\":5123:5381  structUsers[structMarriageRegistrations[idMarriageRegistration].userLogin].ballance = structUsers[structMarriageRegistrations[idMarriageRegistration].userLogin].ballance + structProducts[structMarriageRegistrations[idMarriageRegistration].titleProduct].price */\n      dup2\n      swap1\n      sstore\n      pop\n        /* \"Documents/GitHub/Store-system-with-feedback/main.sol\":5010:5484  if(confirmation == true) {\r... */\n      jump(tag_288)\n    tag_273:\n        /* \"Documents/GitHub/Store-system-with-feedback/main.sol\":5467:5472  false */\n      0x00\n        /* \"Documents/GitHub/Store-system-with-feedback/main.sol\":5414:5433  structStatusReturns */\n      0x0a\n        /* \"Documents/GitHub/Store-system-with-feedback/main.sol\":5434:5456  idMarriageRegistration */\n      dup4\n        /* \"Documents/GitHub/Store-system-with-feedback/main.sol\":5414:5457  structStatusReturns[idMarriageRegistration] */\n      dup2\n      sload\n      dup2\n      lt\n      tag_289\n      jumpi\n      tag_290\n      tag_126\n      jump\t// in\n    tag_290:\n    tag_289:\n      swap1\n      0x00\n      mstore\n      keccak256(0x00, 0x20)\n      swap1\n      0x03\n      mul\n      add\n        /* \"Documents/GitHub/Store-system-with-feedback/main.sol\":5414:5464  structStatusReturns[idMarriageRegistration].status */\n      0x02\n      add\n      0x00\n        /* \"Documents/GitHub/Store-system-with-feedback/main.sol\":5414:5472  structStatusReturns[idMarriageRegistration].status = false */\n      0x0100\n      exp\n      dup2\n      sload\n      dup2\n      0xff\n      mul\n      not\n      and\n      swap1\n      dup4\n      iszero\n      iszero\n      mul\n      or\n      swap1\n      sstore\n      pop\n        /* \"Documents/GitHub/Store-system-with-feedback/main.sol\":5010:5484  if(confirmation == true) {\r... */\n    tag_288:\n        /* \"Documents/GitHub/Store-system-with-feedback/main.sol\":4914:5491  function MarriageRegistration(uint idMarriageRegistration, bool confirmation) public {\r... */\n      pop\n      pop\n      jump\t// out\n    tag_159:\n      dup3\n      dup1\n      sload\n      tag_292\n      swap1\n      tag_107\n      jump\t// in\n    tag_292:\n      swap1\n      0x00\n      mstore\n      keccak256(0x00, 0x20)\n      swap1\n      0x1f\n      add\n      0x20\n      swap1\n      div\n      dup2\n      add\n      swap3\n      dup3\n      tag_294\n      jumpi\n      0x00\n      dup6\n      sstore\n      jump(tag_293)\n    tag_294:\n      dup3\n      0x1f\n      lt\n      tag_295\n      jumpi\n      dup1\n      mload\n      not(0xff)\n      and\n      dup4\n      dup1\n      add\n      or\n      dup6\n      sstore\n      jump(tag_293)\n    tag_295:\n      dup3\n      dup1\n      add\n      0x01\n      add\n      dup6\n      sstore\n      dup3\n      iszero\n      tag_293\n      jumpi\n      swap2\n      dup3\n      add\n    tag_296:\n      dup3\n      dup2\n      gt\n      iszero\n      tag_297\n      jumpi\n      dup3\n      mload\n      dup3\n      sstore\n      swap2\n      0x20\n      add\n      swap2\n      swap1\n      0x01\n      add\n      swap1\n      jump(tag_296)\n    tag_297:\n    tag_293:\n      pop\n      swap1\n      pop\n      tag_298\n      swap2\n      swap1\n      tag_299\n      jump\t// in\n    tag_298:\n      pop\n      swap1\n      jump\t// out\n    tag_258:\n      dup3\n      dup1\n      sload\n      dup3\n      dup3\n      sstore\n      swap1\n      0x00\n      mstore\n      keccak256(0x00, 0x20)\n      swap1\n      dup2\n      add\n      swap3\n      dup3\n      iszero\n      tag_300\n      jumpi\n      swap2\n      0x20\n      mul\n      dup3\n      add\n    tag_301:\n      dup3\n      dup2\n      gt\n      iszero\n      tag_302\n      jumpi\n      dup3\n      mload\n      dup3\n      swap1\n      dup1\n      mload\n      swap1\n      0x20\n      add\n      swap1\n      tag_303\n      swap3\n      swap2\n      swap1\n      tag_159\n      jump\t// in\n    tag_303:\n      pop\n      swap2\n      0x20\n      add\n      swap2\n      swap1\n      0x01\n      add\n      swap1\n      jump(tag_301)\n    tag_302:\n    tag_300:\n      pop\n      swap1\n      pop\n      tag_304\n      swap2\n      swap1\n      tag_305\n      jump\t// in\n    tag_304:\n      pop\n      swap1\n      jump\t// out\n    tag_299:\n    tag_306:\n      dup1\n      dup3\n      gt\n      iszero\n      tag_307\n      jumpi\n      0x00\n      dup2\n      0x00\n      swap1\n      sstore\n      pop\n      0x01\n      add\n      jump(tag_306)\n    tag_307:\n      pop\n      swap1\n      jump\t// out\n    tag_305:\n    tag_308:\n      dup1\n      dup3\n      gt\n      iszero\n      tag_309\n      jumpi\n      0x00\n      dup2\n      dup2\n      tag_310\n      swap2\n      swap1\n      tag_311\n      jump\t// in\n    tag_310:\n      pop\n      0x01\n      add\n      jump(tag_308)\n    tag_309:\n      pop\n      swap1\n      jump\t// out\n    tag_311:\n      pop\n      dup1\n      sload\n      tag_312\n      swap1\n      tag_107\n      jump\t// in\n    tag_312:\n      0x00\n      dup3\n      sstore\n      dup1\n      0x1f\n      lt\n      tag_314\n      jumpi\n      pop\n      jump(tag_313)\n    tag_314:\n      0x1f\n      add\n      0x20\n      swap1\n      div\n      swap1\n      0x00\n      mstore\n      keccak256(0x00, 0x20)\n      swap1\n      dup2\n      add\n      swap1\n      tag_315\n      swap2\n      swap1\n      tag_299\n      jump\t// in\n    tag_315:\n    tag_313:\n      pop\n      jump\t// out\n        /* \"#utility.yul\":7:419   */\n    tag_317:\n        /* \"#utility.yul\":85:90   */\n      0x00\n        /* \"#utility.yul\":110:176   */\n      tag_319\n        /* \"#utility.yul\":126:175   */\n      tag_320\n        /* \"#utility.yul\":168:174   */\n      dup5\n        /* \"#utility.yul\":126:175   */\n      tag_321\n      jump\t// in\n    tag_320:\n        /* \"#utility.yul\":110:176   */\n      tag_322\n      jump\t// in\n    tag_319:\n        /* \"#utility.yul\":101:176   */\n      swap1\n      pop\n        /* \"#utility.yul\":199:205   */\n      dup3\n        /* \"#utility.yul\":192:197   */\n      dup2\n        /* \"#utility.yul\":185:206   */\n      mstore\n        /* \"#utility.yul\":237:241   */\n      0x20\n        /* \"#utility.yul\":230:235   */\n      dup2\n        /* \"#utility.yul\":226:242   */\n      add\n        /* \"#utility.yul\":275:278   */\n      dup5\n        /* \"#utility.yul\":266:272   */\n      dup5\n        /* \"#utility.yul\":261:264   */\n      dup5\n        /* \"#utility.yul\":257:273   */\n      add\n        /* \"#utility.yul\":254:279   */\n      gt\n        /* \"#utility.yul\":251:363   */\n      iszero\n      tag_323\n      jumpi\n        /* \"#utility.yul\":282:361   */\n      tag_324\n      tag_325\n      jump\t// in\n    tag_324:\n        /* \"#utility.yul\":251:363   */\n    tag_323:\n        /* \"#utility.yul\":372:413   */\n      tag_326\n        /* \"#utility.yul\":406:412   */\n      dup5\n        /* \"#utility.yul\":401:404   */\n      dup3\n        /* \"#utility.yul\":396:399   */\n      dup6\n        /* \"#utility.yul\":372:413   */\n      tag_327\n      jump\t// in\n    tag_326:\n        /* \"#utility.yul\":91:419   */\n      pop\n        /* \"#utility.yul\":7:419   */\n      swap4\n      swap3\n      pop\n      pop\n      pop\n      jump\t// out\n        /* \"#utility.yul\":425:564   */\n    tag_328:\n        /* \"#utility.yul\":471:476   */\n      0x00\n        /* \"#utility.yul\":509:515   */\n      dup2\n        /* \"#utility.yul\":496:516   */\n      calldataload\n        /* \"#utility.yul\":487:516   */\n      swap1\n      pop\n        /* \"#utility.yul\":525:558   */\n      tag_330\n        /* \"#utility.yul\":552:557   */\n      dup2\n        /* \"#utility.yul\":525:558   */\n      tag_331\n      jump\t// in\n    tag_330:\n        /* \"#utility.yul\":425:564   */\n      swap3\n      swap2\n      pop\n      pop\n      jump\t// out\n        /* \"#utility.yul\":570:703   */\n    tag_332:\n        /* \"#utility.yul\":613:618   */\n      0x00\n        /* \"#utility.yul\":651:657   */\n      dup2\n        /* \"#utility.yul\":638:658   */\n      calldataload\n        /* \"#utility.yul\":629:658   */\n      swap1\n      pop\n        /* \"#utility.yul\":667:697   */\n      tag_334\n        /* \"#utility.yul\":691:696   */\n      dup2\n        /* \"#utility.yul\":667:697   */\n      tag_335\n      jump\t// in\n    tag_334:\n        /* \"#utility.yul\":570:703   */\n      swap3\n      swap2\n      pop\n      pop\n      jump\t// out\n        /* \"#utility.yul\":723:1063   */\n    tag_336:\n        /* \"#utility.yul\":779:784   */\n      0x00\n        /* \"#utility.yul\":828:831   */\n      dup3\n        /* \"#utility.yul\":821:825   */\n      0x1f\n        /* \"#utility.yul\":813:819   */\n      dup4\n        /* \"#utility.yul\":809:826   */\n      add\n        /* \"#utility.yul\":805:832   */\n      slt\n        /* \"#utility.yul\":795:917   */\n      tag_338\n      jumpi\n        /* \"#utility.yul\":836:915   */\n      tag_339\n      tag_340\n      jump\t// in\n    tag_339:\n        /* \"#utility.yul\":795:917   */\n    tag_338:\n        /* \"#utility.yul\":953:959   */\n      dup2\n        /* \"#utility.yul\":940:960   */\n      calldataload\n        /* \"#utility.yul\":978:1057   */\n      tag_341\n        /* \"#utility.yul\":1053:1056   */\n      dup5\n        /* \"#utility.yul\":1045:1051   */\n      dup3\n        /* \"#utility.yul\":1038:1042   */\n      0x20\n        /* \"#utility.yul\":1030:1036   */\n      dup7\n        /* \"#utility.yul\":1026:1043   */\n      add\n        /* \"#utility.yul\":978:1057   */\n      tag_317\n      jump\t// in\n    tag_341:\n        /* \"#utility.yul\":969:1057   */\n      swap2\n      pop\n        /* \"#utility.yul\":785:1063   */\n      pop\n        /* \"#utility.yul\":723:1063   */\n      swap3\n      swap2\n      pop\n      pop\n      jump\t// out\n        /* \"#utility.yul\":1069:1208   */\n    tag_342:\n        /* \"#utility.yul\":1115:1120   */\n      0x00\n        /* \"#utility.yul\":1153:1159   */\n      dup2\n        /* \"#utility.yul\":1140:1160   */\n      calldataload\n        /* \"#utility.yul\":1131:1160   */\n      swap1\n      pop\n        /* \"#utility.yul\":1169:1202   */\n      tag_344\n        /* \"#utility.yul\":1196:1201   */\n      dup2\n        /* \"#utility.yul\":1169:1202   */\n      tag_345\n      jump\t// in\n    tag_344:\n        /* \"#utility.yul\":1069:1208   */\n      swap3\n      swap2\n      pop\n      pop\n      jump\t// out\n        /* \"#utility.yul\":1214:1543   */\n    tag_65:\n        /* \"#utility.yul\":1273:1279   */\n      0x00\n        /* \"#utility.yul\":1322:1324   */\n      0x20\n        /* \"#utility.yul\":1310:1319   */\n      dup3\n        /* \"#utility.yul\":1301:1308   */\n      dup5\n        /* \"#utility.yul\":1297:1320   */\n      sub\n        /* \"#utility.yul\":1293:1325   */\n      slt\n        /* \"#utility.yul\":1290:1409   */\n      iszero\n      tag_347\n      jumpi\n        /* \"#utility.yul\":1328:1407   */\n      tag_348\n      tag_349\n      jump\t// in\n    tag_348:\n        /* \"#utility.yul\":1290:1409   */\n    tag_347:\n        /* \"#utility.yul\":1448:1449   */\n      0x00\n        /* \"#utility.yul\":1473:1526   */\n      tag_350\n        /* \"#utility.yul\":1518:1525   */\n      dup5\n        /* \"#utility.yul\":1509:1515   */\n      dup3\n        /* \"#utility.yul\":1498:1507   */\n      dup6\n        /* \"#utility.yul\":1494:1516   */\n      add\n        /* \"#utility.yul\":1473:1526   */\n      tag_328\n      jump\t// in\n    tag_350:\n        /* \"#utility.yul\":1463:1526   */\n      swap2\n      pop\n        /* \"#utility.yul\":1419:1536   */\n      pop\n        /* \"#utility.yul\":1214:1543   */\n      swap3\n      swap2\n      pop\n      pop\n      jump\t// out\n        /* \"#utility.yul\":1549:2058   */\n    tag_37:\n        /* \"#utility.yul\":1618:1624   */\n      0x00\n        /* \"#utility.yul\":1667:1669   */\n      0x20\n        /* \"#utility.yul\":1655:1664   */\n      dup3\n        /* \"#utility.yul\":1646:1653   */\n      dup5\n        /* \"#utility.yul\":1642:1665   */\n      sub\n        /* \"#utility.yul\":1638:1670   */\n      slt\n        /* \"#utility.yul\":1635:1754   */\n      iszero\n      tag_352\n      jumpi\n        /* \"#utility.yul\":1673:1752   */\n      tag_353\n      tag_349\n      jump\t// in\n    tag_353:\n        /* \"#utility.yul\":1635:1754   */\n    tag_352:\n        /* \"#utility.yul\":1821:1822   */\n      0x00\n        /* \"#utility.yul\":1810:1819   */\n      dup3\n        /* \"#utility.yul\":1806:1823   */\n      add\n        /* \"#utility.yul\":1793:1824   */\n      calldataload\n        /* \"#utility.yul\":1851:1869   */\n      0xffffffffffffffff\n        /* \"#utility.yul\":1843:1849   */\n      dup2\n        /* \"#utility.yul\":1840:1870   */\n      gt\n        /* \"#utility.yul\":1837:1954   */\n      iszero\n      tag_354\n      jumpi\n        /* \"#utility.yul\":1873:1952   */\n      tag_355\n      tag_356\n      jump\t// in\n    tag_355:\n        /* \"#utility.yul\":1837:1954   */\n    tag_354:\n        /* \"#utility.yul\":1978:2041   */\n      tag_357\n        /* \"#utility.yul\":2033:2040   */\n      dup5\n        /* \"#utility.yul\":2024:2030   */\n      dup3\n        /* \"#utility.yul\":2013:2022   */\n      dup6\n        /* \"#utility.yul\":2009:2031   */\n      add\n        /* \"#utility.yul\":1978:2041   */\n      tag_336\n      jump\t// in\n    tag_357:\n        /* \"#utility.yul\":1968:2041   */\n      swap2\n      pop\n        /* \"#utility.yul\":1764:2051   */\n      pop\n        /* \"#utility.yul\":1549:2058   */\n      swap3\n      swap2\n      pop\n      pop\n      jump\t// out\n        /* \"#utility.yul\":2064:3043   */\n    tag_90:\n        /* \"#utility.yul\":2161:2167   */\n      0x00\n        /* \"#utility.yul\":2169:2175   */\n      dup1\n        /* \"#utility.yul\":2177:2183   */\n      0x00\n        /* \"#utility.yul\":2226:2228   */\n      0x60\n        /* \"#utility.yul\":2214:2223   */\n      dup5\n        /* \"#utility.yul\":2205:2212   */\n      dup7\n        /* \"#utility.yul\":2201:2224   */\n      sub\n        /* \"#utility.yul\":2197:2229   */\n      slt\n        /* \"#utility.yul\":2194:2313   */\n      iszero\n      tag_359\n      jumpi\n        /* \"#utility.yul\":2232:2311   */\n      tag_360\n      tag_349\n      jump\t// in\n    tag_360:\n        /* \"#utility.yul\":2194:2313   */\n    tag_359:\n        /* \"#utility.yul\":2380:2381   */\n      0x00\n        /* \"#utility.yul\":2369:2378   */\n      dup5\n        /* \"#utility.yul\":2365:2382   */\n      add\n        /* \"#utility.yul\":2352:2383   */\n      calldataload\n        /* \"#utility.yul\":2410:2428   */\n      0xffffffffffffffff\n        /* \"#utility.yul\":2402:2408   */\n      dup2\n        /* \"#utility.yul\":2399:2429   */\n      gt\n        /* \"#utility.yul\":2396:2513   */\n      iszero\n      tag_361\n      jumpi\n        /* \"#utility.yul\":2432:2511   */\n      tag_362\n      tag_356\n      jump\t// in\n    tag_362:\n        /* \"#utility.yul\":2396:2513   */\n    tag_361:\n        /* \"#utility.yul\":2537:2600   */\n      tag_363\n        /* \"#utility.yul\":2592:2599   */\n      dup7\n        /* \"#utility.yul\":2583:2589   */\n      dup3\n        /* \"#utility.yul\":2572:2581   */\n      dup8\n        /* \"#utility.yul\":2568:2590   */\n      add\n        /* \"#utility.yul\":2537:2600   */\n      tag_336\n      jump\t// in\n    tag_363:\n        /* \"#utility.yul\":2527:2600   */\n      swap4\n      pop\n        /* \"#utility.yul\":2323:2610   */\n      pop\n        /* \"#utility.yul\":2677:2679   */\n      0x20\n        /* \"#utility.yul\":2666:2675   */\n      dup5\n        /* \"#utility.yul\":2662:2680   */\n      add\n        /* \"#utility.yul\":2649:2681   */\n      calldataload\n        /* \"#utility.yul\":2708:2726   */\n      0xffffffffffffffff\n        /* \"#utility.yul\":2700:2706   */\n      dup2\n        /* \"#utility.yul\":2697:2727   */\n      gt\n        /* \"#utility.yul\":2694:2811   */\n      iszero\n      tag_364\n      jumpi\n        /* \"#utility.yul\":2730:2809   */\n      tag_365\n      tag_356\n      jump\t// in\n    tag_365:\n        /* \"#utility.yul\":2694:2811   */\n    tag_364:\n        /* \"#utility.yul\":2835:2898   */\n      tag_366\n        /* \"#utility.yul\":2890:2897   */\n      dup7\n        /* \"#utility.yul\":2881:2887   */\n      dup3\n        /* \"#utility.yul\":2870:2879   */\n      dup8\n        /* \"#utility.yul\":2866:2888   */\n      add\n        /* \"#utility.yul\":2835:2898   */\n      tag_336\n      jump\t// in\n    tag_366:\n        /* \"#utility.yul\":2825:2898   */\n      swap3\n      pop\n        /* \"#utility.yul\":2620:2908   */\n      pop\n        /* \"#utility.yul\":2947:2949   */\n      0x40\n        /* \"#utility.yul\":2973:3026   */\n      tag_367\n        /* \"#utility.yul\":3018:3025   */\n      dup7\n        /* \"#utility.yul\":3009:3015   */\n      dup3\n        /* \"#utility.yul\":2998:3007   */\n      dup8\n        /* \"#utility.yul\":2994:3016   */\n      add\n        /* \"#utility.yul\":2973:3026   */\n      tag_342\n      jump\t// in\n    tag_367:\n        /* \"#utility.yul\":2963:3026   */\n      swap2\n      pop\n        /* \"#utility.yul\":2918:3036   */\n      pop\n        /* \"#utility.yul\":2064:3043   */\n      swap3\n      pop\n      swap3\n      pop\n      swap3\n      jump\t// out\n        /* \"#utility.yul\":3049:4028   */\n    tag_56:\n        /* \"#utility.yul\":3146:3152   */\n      0x00\n        /* \"#utility.yul\":3154:3160   */\n      dup1\n        /* \"#utility.yul\":3162:3168   */\n      0x00\n        /* \"#utility.yul\":3211:3213   */\n      0x60\n        /* \"#utility.yul\":3199:3208   */\n      dup5\n        /* \"#utility.yul\":3190:3197   */\n      dup7\n        /* \"#utility.yul\":3186:3209   */\n      sub\n        /* \"#utility.yul\":3182:3214   */\n      slt\n        /* \"#utility.yul\":3179:3298   */\n      iszero\n      tag_369\n      jumpi\n        /* \"#utility.yul\":3217:3296   */\n      tag_370\n      tag_349\n      jump\t// in\n    tag_370:\n        /* \"#utility.yul\":3179:3298   */\n    tag_369:\n        /* \"#utility.yul\":3365:3366   */\n      0x00\n        /* \"#utility.yul\":3354:3363   */\n      dup5\n        /* \"#utility.yul\":3350:3367   */\n      add\n        /* \"#utility.yul\":3337:3368   */\n      calldataload\n        /* \"#utility.yul\":3395:3413   */\n      0xffffffffffffffff\n        /* \"#utility.yul\":3387:3393   */\n      dup2\n        /* \"#utility.yul\":3384:3414   */\n      gt\n        /* \"#utility.yul\":3381:3498   */\n      iszero\n      tag_371\n      jumpi\n        /* \"#utility.yul\":3417:3496   */\n      tag_372\n      tag_356\n      jump\t// in\n    tag_372:\n        /* \"#utility.yul\":3381:3498   */\n    tag_371:\n        /* \"#utility.yul\":3522:3585   */\n      tag_373\n        /* \"#utility.yul\":3577:3584   */\n      dup7\n        /* \"#utility.yul\":3568:3574   */\n      dup3\n        /* \"#utility.yul\":3557:3566   */\n      dup8\n        /* \"#utility.yul\":3553:3575   */\n      add\n        /* \"#utility.yul\":3522:3585   */\n      tag_336\n      jump\t// in\n    tag_373:\n        /* \"#utility.yul\":3512:3585   */\n      swap4\n      pop\n        /* \"#utility.yul\":3308:3595   */\n      pop\n        /* \"#utility.yul\":3634:3636   */\n      0x20\n        /* \"#utility.yul\":3660:3713   */\n      tag_374\n        /* \"#utility.yul\":3705:3712   */\n      dup7\n        /* \"#utility.yul\":3696:3702   */\n      dup3\n        /* \"#utility.yul\":3685:3694   */\n      dup8\n        /* \"#utility.yul\":3681:3703   */\n      add\n        /* \"#utility.yul\":3660:3713   */\n      tag_342\n      jump\t// in\n    tag_374:\n        /* \"#utility.yul\":3650:3713   */\n      swap3\n      pop\n        /* \"#utility.yul\":3605:3723   */\n      pop\n        /* \"#utility.yul\":3790:3792   */\n      0x40\n        /* \"#utility.yul\":3779:3788   */\n      dup5\n        /* \"#utility.yul\":3775:3793   */\n      add\n        /* \"#utility.yul\":3762:3794   */\n      calldataload\n        /* \"#utility.yul\":3821:3839   */\n      0xffffffffffffffff\n        /* \"#utility.yul\":3813:3819   */\n      dup2\n        /* \"#utility.yul\":3810:3840   */\n      gt\n        /* \"#utility.yul\":3807:3924   */\n      iszero\n      tag_375\n      jumpi\n        /* \"#utility.yul\":3843:3922   */\n      tag_376\n      tag_356\n      jump\t// in\n    tag_376:\n        /* \"#utility.yul\":3807:3924   */\n    tag_375:\n        /* \"#utility.yul\":3948:4011   */\n      tag_377\n        /* \"#utility.yul\":4003:4010   */\n      dup7\n        /* \"#utility.yul\":3994:4000   */\n      dup3\n        /* \"#utility.yul\":3983:3992   */\n      dup8\n        /* \"#utility.yul\":3979:4001   */\n      add\n        /* \"#utility.yul\":3948:4011   */\n      tag_336\n      jump\t// in\n    tag_377:\n        /* \"#utility.yul\":3938:4011   */\n      swap2\n      pop\n        /* \"#utility.yul\":3733:4021   */\n      pop\n        /* \"#utility.yul\":3049:4028   */\n      swap3\n      pop\n      swap3\n      pop\n      swap3\n      jump\t// out\n        /* \"#utility.yul\":4034:4363   */\n    tag_27:\n        /* \"#utility.yul\":4093:4099   */\n      0x00\n        /* \"#utility.yul\":4142:4144   */\n      0x20\n        /* \"#utility.yul\":4130:4139   */\n      dup3\n        /* \"#utility.yul\":4121:4128   */\n      dup5\n        /* \"#utility.yul\":4117:4140   */\n      sub\n        /* \"#utility.yul\":4113:4145   */\n      slt\n        /* \"#utility.yul\":4110:4229   */\n      iszero\n      tag_379\n      jumpi\n        /* \"#utility.yul\":4148:4227   */\n      tag_380\n      tag_349\n      jump\t// in\n    tag_380:\n        /* \"#utility.yul\":4110:4229   */\n    tag_379:\n        /* \"#utility.yul\":4268:4269   */\n      0x00\n        /* \"#utility.yul\":4293:4346   */\n      tag_381\n        /* \"#utility.yul\":4338:4345   */\n      dup5\n        /* \"#utility.yul\":4329:4335   */\n      dup3\n        /* \"#utility.yul\":4318:4327   */\n      dup6\n        /* \"#utility.yul\":4314:4336   */\n      add\n        /* \"#utility.yul\":4293:4346   */\n      tag_342\n      jump\t// in\n    tag_381:\n        /* \"#utility.yul\":4283:4346   */\n      swap2\n      pop\n        /* \"#utility.yul\":4239:4356   */\n      pop\n        /* \"#utility.yul\":4034:4363   */\n      swap3\n      swap2\n      pop\n      pop\n      jump\t// out\n        /* \"#utility.yul\":4369:4837   */\n    tag_33:\n        /* \"#utility.yul\":4434:4440   */\n      0x00\n        /* \"#utility.yul\":4442:4448   */\n      dup1\n        /* \"#utility.yul\":4491:4493   */\n      0x40\n        /* \"#utility.yul\":4479:4488   */\n      dup4\n        /* \"#utility.yul\":4470:4477   */\n      dup6\n        /* \"#utility.yul\":4466:4489   */\n      sub\n        /* \"#utility.yul\":4462:4494   */\n      slt\n        /* \"#utility.yul\":4459:4578   */\n      iszero\n      tag_383\n      jumpi\n        /* \"#utility.yul\":4497:4576   */\n      tag_384\n      tag_349\n      jump\t// in\n    tag_384:\n        /* \"#utility.yul\":4459:4578   */\n    tag_383:\n        /* \"#utility.yul\":4617:4618   */\n      0x00\n        /* \"#utility.yul\":4642:4695   */\n      tag_385\n        /* \"#utility.yul\":4687:4694   */\n      dup6\n        /* \"#utility.yul\":4678:4684   */\n      dup3\n        /* \"#utility.yul\":4667:4676   */\n      dup7\n        /* \"#utility.yul\":4663:4685   */\n      add\n        /* \"#utility.yul\":4642:4695   */\n      tag_342\n      jump\t// in\n    tag_385:\n        /* \"#utility.yul\":4632:4695   */\n      swap3\n      pop\n        /* \"#utility.yul\":4588:4705   */\n      pop\n        /* \"#utility.yul\":4744:4746   */\n      0x20\n        /* \"#utility.yul\":4770:4820   */\n      tag_386\n        /* \"#utility.yul\":4812:4819   */\n      dup6\n        /* \"#utility.yul\":4803:4809   */\n      dup3\n        /* \"#utility.yul\":4792:4801   */\n      dup7\n        /* \"#utility.yul\":4788:4810   */\n      add\n        /* \"#utility.yul\":4770:4820   */\n      tag_332\n      jump\t// in\n    tag_386:\n        /* \"#utility.yul\":4760:4820   */\n      swap2\n      pop\n        /* \"#utility.yul\":4715:4830   */\n      pop\n        /* \"#utility.yul\":4369:4837   */\n      swap3\n      pop\n      swap3\n      swap1\n      pop\n      jump\t// out\n        /* \"#utility.yul\":4843:5039   */\n    tag_387:\n        /* \"#utility.yul\":4932:4942   */\n      0x00\n        /* \"#utility.yul\":4967:5033   */\n      tag_389\n        /* \"#utility.yul\":5029:5032   */\n      dup4\n        /* \"#utility.yul\":5021:5027   */\n      dup4\n        /* \"#utility.yul\":4967:5033   */\n      tag_390\n      jump\t// in\n    tag_389:\n        /* \"#utility.yul\":4953:5033   */\n      swap1\n      pop\n        /* \"#utility.yul\":4843:5039   */\n      swap3\n      swap2\n      pop\n      pop\n      jump\t// out\n        /* \"#utility.yul\":5045:5235   */\n    tag_391:\n        /* \"#utility.yul\":5131:5141   */\n      0x00\n        /* \"#utility.yul\":5166:5229   */\n      tag_393\n        /* \"#utility.yul\":5225:5228   */\n      dup4\n        /* \"#utility.yul\":5217:5223   */\n      dup4\n        /* \"#utility.yul\":5166:5229   */\n      tag_394\n      jump\t// in\n    tag_393:\n        /* \"#utility.yul\":5152:5229   */\n      swap1\n      pop\n        /* \"#utility.yul\":5045:5235   */\n      swap3\n      swap2\n      pop\n      pop\n      jump\t// out\n        /* \"#utility.yul\":5241:5359   */\n    tag_395:\n        /* \"#utility.yul\":5328:5352   */\n      tag_397\n        /* \"#utility.yul\":5346:5351   */\n      dup2\n        /* \"#utility.yul\":5328:5352   */\n      tag_398\n      jump\t// in\n    tag_397:\n        /* \"#utility.yul\":5323:5326   */\n      dup3\n        /* \"#utility.yul\":5316:5353   */\n      mstore\n        /* \"#utility.yul\":5241:5359   */\n      pop\n      pop\n      jump\t// out\n        /* \"#utility.yul\":5393:6384   */\n    tag_399:\n        /* \"#utility.yul\":5532:5535   */\n      0x00\n        /* \"#utility.yul\":5561:5625   */\n      tag_401\n        /* \"#utility.yul\":5619:5624   */\n      dup3\n        /* \"#utility.yul\":5561:5625   */\n      tag_402\n      jump\t// in\n    tag_401:\n        /* \"#utility.yul\":5641:5737   */\n      tag_403\n        /* \"#utility.yul\":5730:5736   */\n      dup2\n        /* \"#utility.yul\":5725:5728   */\n      dup6\n        /* \"#utility.yul\":5641:5737   */\n      tag_404\n      jump\t// in\n    tag_403:\n        /* \"#utility.yul\":5634:5737   */\n      swap4\n      pop\n        /* \"#utility.yul\":5763:5766   */\n      dup4\n        /* \"#utility.yul\":5808:5812   */\n      0x20\n        /* \"#utility.yul\":5800:5806   */\n      dup3\n        /* \"#utility.yul\":5796:5813   */\n      mul\n        /* \"#utility.yul\":5791:5794   */\n      dup6\n        /* \"#utility.yul\":5787:5814   */\n      add\n        /* \"#utility.yul\":5838:5904   */\n      tag_405\n        /* \"#utility.yul\":5898:5903   */\n      dup6\n        /* \"#utility.yul\":5838:5904   */\n      tag_406\n      jump\t// in\n    tag_405:\n        /* \"#utility.yul\":5927:5934   */\n      dup1\n        /* \"#utility.yul\":5958:5959   */\n      0x00\n        /* \"#utility.yul\":5943:6339   */\n    tag_407:\n        /* \"#utility.yul\":5968:5974   */\n      dup6\n        /* \"#utility.yul\":5965:5966   */\n      dup2\n        /* \"#utility.yul\":5962:5975   */\n      lt\n        /* \"#utility.yul\":5943:6339   */\n      iszero\n      tag_409\n      jumpi\n        /* \"#utility.yul\":6039:6048   */\n      dup5\n        /* \"#utility.yul\":6033:6037   */\n      dup5\n        /* \"#utility.yul\":6029:6049   */\n      sub\n        /* \"#utility.yul\":6024:6027   */\n      dup10\n        /* \"#utility.yul\":6017:6050   */\n      mstore\n        /* \"#utility.yul\":6090:6096   */\n      dup2\n        /* \"#utility.yul\":6084:6097   */\n      mload\n        /* \"#utility.yul\":6118:6202   */\n      tag_410\n        /* \"#utility.yul\":6197:6201   */\n      dup6\n        /* \"#utility.yul\":6182:6195   */\n      dup3\n        /* \"#utility.yul\":6118:6202   */\n      tag_387\n      jump\t// in\n    tag_410:\n        /* \"#utility.yul\":6110:6202   */\n      swap5\n      pop\n        /* \"#utility.yul\":6225:6295   */\n      tag_411\n        /* \"#utility.yul\":6288:6294   */\n      dup4\n        /* \"#utility.yul\":6225:6295   */\n      tag_412\n      jump\t// in\n    tag_411:\n        /* \"#utility.yul\":6215:6295   */\n      swap3\n      pop\n        /* \"#utility.yul\":6324:6328   */\n      0x20\n        /* \"#utility.yul\":6319:6322   */\n      dup11\n        /* \"#utility.yul\":6315:6329   */\n      add\n        /* \"#utility.yul\":6308:6329   */\n      swap10\n      pop\n        /* \"#utility.yul\":6003:6339   */\n      pop\n        /* \"#utility.yul\":5990:5991   */\n      0x01\n        /* \"#utility.yul\":5987:5988   */\n      dup2\n        /* \"#utility.yul\":5983:5992   */\n      add\n        /* \"#utility.yul\":5978:5992   */\n      swap1\n      pop\n        /* \"#utility.yul\":5943:6339   */\n      jump(tag_407)\n    tag_409:\n        /* \"#utility.yul\":5947:5961   */\n      pop\n        /* \"#utility.yul\":6355:6359   */\n      dup3\n        /* \"#utility.yul\":6348:6359   */\n      swap8\n      pop\n        /* \"#utility.yul\":6375:6378   */\n      dup8\n        /* \"#utility.yul\":6368:6378   */\n      swap6\n      pop\n        /* \"#utility.yul\":5537:6384   */\n      pop\n      pop\n      pop\n      pop\n      pop\n        /* \"#utility.yul\":5393:6384   */\n      swap3\n      swap2\n      pop\n      pop\n      jump\t// out\n        /* \"#utility.yul\":6418:7375   */\n    tag_413:\n        /* \"#utility.yul\":6551:6554   */\n      0x00\n        /* \"#utility.yul\":6580:6638   */\n      tag_415\n        /* \"#utility.yul\":6632:6637   */\n      dup3\n        /* \"#utility.yul\":6580:6638   */\n      tag_416\n      jump\t// in\n    tag_415:\n        /* \"#utility.yul\":6654:6750   */\n      tag_417\n        /* \"#utility.yul\":6743:6749   */\n      dup2\n        /* \"#utility.yul\":6738:6741   */\n      dup6\n        /* \"#utility.yul\":6654:6750   */\n      tag_404\n      jump\t// in\n    tag_417:\n        /* \"#utility.yul\":6647:6750   */\n      swap4\n      pop\n        /* \"#utility.yul\":6776:6779   */\n      dup4\n        /* \"#utility.yul\":6821:6825   */\n      0x20\n        /* \"#utility.yul\":6813:6819   */\n      dup3\n        /* \"#utility.yul\":6809:6826   */\n      mul\n        /* \"#utility.yul\":6804:6807   */\n      dup6\n        /* \"#utility.yul\":6800:6827   */\n      add\n        /* \"#utility.yul\":6851:6911   */\n      tag_418\n        /* \"#utility.yul\":6905:6910   */\n      dup6\n        /* \"#utility.yul\":6851:6911   */\n      tag_419\n      jump\t// in\n    tag_418:\n        /* \"#utility.yul\":6934:6941   */\n      dup1\n        /* \"#utility.yul\":6965:6966   */\n      0x00\n        /* \"#utility.yul\":6950:7330   */\n    tag_420:\n        /* \"#utility.yul\":6975:6981   */\n      dup6\n        /* \"#utility.yul\":6972:6973   */\n      dup2\n        /* \"#utility.yul\":6969:6982   */\n      lt\n        /* \"#utility.yul\":6950:7330   */\n      iszero\n      tag_422\n      jumpi\n        /* \"#utility.yul\":7046:7055   */\n      dup5\n        /* \"#utility.yul\":7040:7044   */\n      dup5\n        /* \"#utility.yul\":7036:7056   */\n      sub\n        /* \"#utility.yul\":7031:7034   */\n      dup10\n        /* \"#utility.yul\":7024:7057   */\n      mstore\n        /* \"#utility.yul\":7091:7097   */\n      dup2\n        /* \"#utility.yul\":7118:7199   */\n      tag_423\n        /* \"#utility.yul\":7194:7198   */\n      dup6\n        /* \"#utility.yul\":7179:7192   */\n      dup3\n        /* \"#utility.yul\":7118:7199   */\n      tag_391\n      jump\t// in\n    tag_423:\n        /* \"#utility.yul\":7110:7199   */\n      swap5\n      pop\n        /* \"#utility.yul\":7222:7286   */\n      tag_424\n        /* \"#utility.yul\":7279:7285   */\n      dup4\n        /* \"#utility.yul\":7222:7286   */\n      tag_425\n      jump\t// in\n    tag_424:\n        /* \"#utility.yul\":7212:7286   */\n      swap3\n      pop\n        /* \"#utility.yul\":7315:7319   */\n      0x20\n        /* \"#utility.yul\":7310:7313   */\n      dup11\n        /* \"#utility.yul\":7306:7320   */\n      add\n        /* \"#utility.yul\":7299:7320   */\n      swap10\n      pop\n        /* \"#utility.yul\":7010:7330   */\n      pop\n        /* \"#utility.yul\":6997:6998   */\n      0x01\n        /* \"#utility.yul\":6994:6995   */\n      dup2\n        /* \"#utility.yul\":6990:6999   */\n      add\n        /* \"#utility.yul\":6985:6999   */\n      swap1\n      pop\n        /* \"#utility.yul\":6950:7330   */\n      jump(tag_420)\n    tag_422:\n        /* \"#utility.yul\":6954:6968   */\n      pop\n        /* \"#utility.yul\":7346:7350   */\n      dup3\n        /* \"#utility.yul\":7339:7350   */\n      swap8\n      pop\n        /* \"#utility.yul\":7366:7369   */\n      dup8\n        /* \"#utility.yul\":7359:7369   */\n      swap6\n      pop\n        /* \"#utility.yul\":6556:7375   */\n      pop\n      pop\n      pop\n      pop\n      pop\n        /* \"#utility.yul\":6418:7375   */\n      swap3\n      swap2\n      pop\n      pop\n      jump\t// out\n        /* \"#utility.yul\":7381:7490   */\n    tag_426:\n        /* \"#utility.yul\":7462:7483   */\n      tag_428\n        /* \"#utility.yul\":7477:7482   */\n      dup2\n        /* \"#utility.yul\":7462:7483   */\n      tag_429\n      jump\t// in\n    tag_428:\n        /* \"#utility.yul\":7457:7460   */\n      dup3\n        /* \"#utility.yul\":7450:7484   */\n      mstore\n        /* \"#utility.yul\":7381:7490   */\n      pop\n      pop\n      jump\t// out\n        /* \"#utility.yul\":7496:7840   */\n    tag_390:\n        /* \"#utility.yul\":7574:7577   */\n      0x00\n        /* \"#utility.yul\":7602:7641   */\n      tag_431\n        /* \"#utility.yul\":7635:7640   */\n      dup3\n        /* \"#utility.yul\":7602:7641   */\n      tag_432\n      jump\t// in\n    tag_431:\n        /* \"#utility.yul\":7657:7718   */\n      tag_433\n        /* \"#utility.yul\":7711:7717   */\n      dup2\n        /* \"#utility.yul\":7706:7709   */\n      dup6\n        /* \"#utility.yul\":7657:7718   */\n      tag_434\n      jump\t// in\n    tag_433:\n        /* \"#utility.yul\":7650:7718   */\n      swap4\n      pop\n        /* \"#utility.yul\":7727:7779   */\n      tag_435\n        /* \"#utility.yul\":7772:7778   */\n      dup2\n        /* \"#utility.yul\":7767:7770   */\n      dup6\n        /* \"#utility.yul\":7760:7764   */\n      0x20\n        /* \"#utility.yul\":7753:7758   */\n      dup7\n        /* \"#utility.yul\":7749:7765   */\n      add\n        /* \"#utility.yul\":7727:7779   */\n      tag_436\n      jump\t// in\n    tag_435:\n        /* \"#utility.yul\":7804:7833   */\n      tag_437\n        /* \"#utility.yul\":7826:7832   */\n      dup2\n        /* \"#utility.yul\":7804:7833   */\n      tag_438\n      jump\t// in\n    tag_437:\n        /* \"#utility.yul\":7799:7802   */\n      dup5\n        /* \"#utility.yul\":7795:7834   */\n      add\n        /* \"#utility.yul\":7788:7834   */\n      swap2\n      pop\n        /* \"#utility.yul\":7578:7840   */\n      pop\n        /* \"#utility.yul\":7496:7840   */\n      swap3\n      swap2\n      pop\n      pop\n      jump\t// out\n        /* \"#utility.yul\":7846:8210   */\n    tag_439:\n        /* \"#utility.yul\":7934:7937   */\n      0x00\n        /* \"#utility.yul\":7962:8001   */\n      tag_441\n        /* \"#utility.yul\":7995:8000   */\n      dup3\n        /* \"#utility.yul\":7962:8001   */\n      tag_432\n      jump\t// in\n    tag_441:\n        /* \"#utility.yul\":8017:8088   */\n      tag_442\n        /* \"#utility.yul\":8081:8087   */\n      dup2\n        /* \"#utility.yul\":8076:8079   */\n      dup6\n        /* \"#utility.yul\":8017:8088   */\n      tag_443\n      jump\t// in\n    tag_442:\n        /* \"#utility.yul\":8010:8088   */\n      swap4\n      pop\n        /* \"#utility.yul\":8097:8149   */\n      tag_444\n        /* \"#utility.yul\":8142:8148   */\n      dup2\n        /* \"#utility.yul\":8137:8140   */\n      dup6\n        /* \"#utility.yul\":8130:8134   */\n      0x20\n        /* \"#utility.yul\":8123:8128   */\n      dup7\n        /* \"#utility.yul\":8119:8135   */\n      add\n        /* \"#utility.yul\":8097:8149   */\n      tag_436\n      jump\t// in\n    tag_444:\n        /* \"#utility.yul\":8174:8203   */\n      tag_445\n        /* \"#utility.yul\":8196:8202   */\n      dup2\n        /* \"#utility.yul\":8174:8203   */\n      tag_438\n      jump\t// in\n    tag_445:\n        /* \"#utility.yul\":8169:8172   */\n      dup5\n        /* \"#utility.yul\":8165:8204   */\n      add\n        /* \"#utility.yul\":8158:8204   */\n      swap2\n      pop\n        /* \"#utility.yul\":7938:8210   */\n      pop\n        /* \"#utility.yul\":7846:8210   */\n      swap3\n      swap2\n      pop\n      pop\n      jump\t// out\n        /* \"#utility.yul\":8216:8593   */\n    tag_446:\n        /* \"#utility.yul\":8322:8325   */\n      0x00\n        /* \"#utility.yul\":8350:8389   */\n      tag_448\n        /* \"#utility.yul\":8383:8388   */\n      dup3\n        /* \"#utility.yul\":8350:8389   */\n      tag_432\n      jump\t// in\n    tag_448:\n        /* \"#utility.yul\":8405:8494   */\n      tag_449\n        /* \"#utility.yul\":8487:8493   */\n      dup2\n        /* \"#utility.yul\":8482:8485   */\n      dup6\n        /* \"#utility.yul\":8405:8494   */\n      tag_450\n      jump\t// in\n    tag_449:\n        /* \"#utility.yul\":8398:8494   */\n      swap4\n      pop\n        /* \"#utility.yul\":8503:8555   */\n      tag_451\n        /* \"#utility.yul\":8548:8554   */\n      dup2\n        /* \"#utility.yul\":8543:8546   */\n      dup6\n        /* \"#utility.yul\":8536:8540   */\n      0x20\n        /* \"#utility.yul\":8529:8534   */\n      dup7\n        /* \"#utility.yul\":8525:8541   */\n      add\n        /* \"#utility.yul\":8503:8555   */\n      tag_436\n      jump\t// in\n    tag_451:\n        /* \"#utility.yul\":8580:8586   */\n      dup1\n        /* \"#utility.yul\":8575:8578   */\n      dup5\n        /* \"#utility.yul\":8571:8587   */\n      add\n        /* \"#utility.yul\":8564:8587   */\n      swap2\n      pop\n        /* \"#utility.yul\":8326:8593   */\n      pop\n        /* \"#utility.yul\":8216:8593   */\n      swap3\n      swap2\n      pop\n      pop\n      jump\t// out\n        /* \"#utility.yul\":8623:9405   */\n    tag_394:\n        /* \"#utility.yul\":8698:8701   */\n      0x00\n        /* \"#utility.yul\":8735:8740   */\n      dup2\n        /* \"#utility.yul\":8729:8741   */\n      sload\n        /* \"#utility.yul\":8764:8800   */\n      tag_453\n        /* \"#utility.yul\":8790:8799   */\n      dup2\n        /* \"#utility.yul\":8764:8800   */\n      tag_107\n      jump\t// in\n    tag_453:\n        /* \"#utility.yul\":8816:8877   */\n      tag_454\n        /* \"#utility.yul\":8870:8876   */\n      dup2\n        /* \"#utility.yul\":8865:8868   */\n      dup7\n        /* \"#utility.yul\":8816:8877   */\n      tag_434\n      jump\t// in\n    tag_454:\n        /* \"#utility.yul\":8809:8877   */\n      swap5\n      pop\n        /* \"#utility.yul\":8908:8909   */\n      0x01\n        /* \"#utility.yul\":8897:8906   */\n      dup3\n        /* \"#utility.yul\":8893:8910   */\n      and\n        /* \"#utility.yul\":8924:8925   */\n      0x00\n        /* \"#utility.yul\":8919:9054   */\n      dup2\n      eq\n      tag_456\n      jumpi\n        /* \"#utility.yul\":9068:9069   */\n      0x01\n        /* \"#utility.yul\":9063:9399   */\n      dup2\n      eq\n      tag_457\n      jumpi\n        /* \"#utility.yul\":8886:9399   */\n      jump(tag_455)\n        /* \"#utility.yul\":8919:9054   */\n    tag_456:\n        /* \"#utility.yul\":9003:9007   */\n      0xff\n        /* \"#utility.yul\":8999:9008   */\n      not\n        /* \"#utility.yul\":8988:8997   */\n      dup4\n        /* \"#utility.yul\":8984:9009   */\n      and\n        /* \"#utility.yul\":8979:8982   */\n      dup7\n        /* \"#utility.yul\":8972:9010   */\n      mstore\n        /* \"#utility.yul\":9039:9043   */\n      0x20\n        /* \"#utility.yul\":9034:9037   */\n      dup7\n        /* \"#utility.yul\":9030:9044   */\n      add\n        /* \"#utility.yul\":9023:9044   */\n      swap4\n      pop\n        /* \"#utility.yul\":8919:9054   */\n      jump(tag_455)\n        /* \"#utility.yul\":9063:9399   */\n    tag_457:\n        /* \"#utility.yul\":9130:9168   */\n      tag_458\n        /* \"#utility.yul\":9162:9167   */\n      dup6\n        /* \"#utility.yul\":9130:9168   */\n      tag_459\n      jump\t// in\n    tag_458:\n        /* \"#utility.yul\":9190:9191   */\n      0x00\n        /* \"#utility.yul\":9204:9358   */\n    tag_460:\n        /* \"#utility.yul\":9218:9224   */\n      dup4\n        /* \"#utility.yul\":9215:9216   */\n      dup2\n        /* \"#utility.yul\":9212:9225   */\n      lt\n        /* \"#utility.yul\":9204:9358   */\n      iszero\n      tag_462\n      jumpi\n        /* \"#utility.yul\":9292:9299   */\n      dup2\n        /* \"#utility.yul\":9286:9300   */\n      sload\n        /* \"#utility.yul\":9282:9283   */\n      dup2\n        /* \"#utility.yul\":9277:9280   */\n      dup10\n        /* \"#utility.yul\":9273:9284   */\n      add\n        /* \"#utility.yul\":9266:9301   */\n      mstore\n        /* \"#utility.yul\":9342:9343   */\n      0x01\n        /* \"#utility.yul\":9333:9340   */\n      dup3\n        /* \"#utility.yul\":9329:9344   */\n      add\n        /* \"#utility.yul\":9318:9344   */\n      swap2\n      pop\n        /* \"#utility.yul\":9240:9244   */\n      0x20\n        /* \"#utility.yul\":9237:9238   */\n      dup2\n        /* \"#utility.yul\":9233:9245   */\n      add\n        /* \"#utility.yul\":9228:9245   */\n      swap1\n      pop\n        /* \"#utility.yul\":9204:9358   */\n      jump(tag_460)\n    tag_462:\n        /* \"#utility.yul\":9387:9388   */\n      dup1\n        /* \"#utility.yul\":9382:9385   */\n      dup9\n        /* \"#utility.yul\":9378:9389   */\n      add\n        /* \"#utility.yul\":9371:9389   */\n      swap6\n      pop\n        /* \"#utility.yul\":9070:9399   */\n      pop\n      pop\n        /* \"#utility.yul\":8886:9399   */\n    tag_455:\n      pop\n        /* \"#utility.yul\":8702:9405   */\n      pop\n      pop\n        /* \"#utility.yul\":8623:9405   */\n      swap3\n      swap2\n      pop\n      pop\n      jump\t// out\n        /* \"#utility.yul\":9435:10280   */\n    tag_463:\n        /* \"#utility.yul\":9538:9541   */\n      0x00\n        /* \"#utility.yul\":9575:9580   */\n      dup2\n        /* \"#utility.yul\":9569:9581   */\n      sload\n        /* \"#utility.yul\":9604:9640   */\n      tag_465\n        /* \"#utility.yul\":9630:9639   */\n      dup2\n        /* \"#utility.yul\":9604:9640   */\n      tag_107\n      jump\t// in\n    tag_465:\n        /* \"#utility.yul\":9656:9745   */\n      tag_466\n        /* \"#utility.yul\":9738:9744   */\n      dup2\n        /* \"#utility.yul\":9733:9736   */\n      dup7\n        /* \"#utility.yul\":9656:9745   */\n      tag_450\n      jump\t// in\n    tag_466:\n        /* \"#utility.yul\":9649:9745   */\n      swap5\n      pop\n        /* \"#utility.yul\":9776:9777   */\n      0x01\n        /* \"#utility.yul\":9765:9774   */\n      dup3\n        /* \"#utility.yul\":9761:9778   */\n      and\n        /* \"#utility.yul\":9792:9793   */\n      0x00\n        /* \"#utility.yul\":9787:9924   */\n      dup2\n      eq\n      tag_468\n      jumpi\n        /* \"#utility.yul\":9938:9939   */\n      0x01\n        /* \"#utility.yul\":9933:10274   */\n      dup2\n      eq\n      tag_469\n      jumpi\n        /* \"#utility.yul\":9754:10274   */\n      jump(tag_467)\n        /* \"#utility.yul\":9787:9924   */\n    tag_468:\n        /* \"#utility.yul\":9871:9875   */\n      0xff\n        /* \"#utility.yul\":9867:9876   */\n      not\n        /* \"#utility.yul\":9856:9865   */\n      dup4\n        /* \"#utility.yul\":9852:9877   */\n      and\n        /* \"#utility.yul\":9847:9850   */\n      dup7\n        /* \"#utility.yul\":9840:9878   */\n      mstore\n        /* \"#utility.yul\":9907:9913   */\n      dup2\n        /* \"#utility.yul\":9902:9905   */\n      dup7\n        /* \"#utility.yul\":9898:9914   */\n      add\n        /* \"#utility.yul\":9891:9914   */\n      swap4\n      pop\n        /* \"#utility.yul\":9787:9924   */\n      jump(tag_467)\n        /* \"#utility.yul\":9933:10274   */\n    tag_469:\n        /* \"#utility.yul\":10000:10038   */\n      tag_470\n        /* \"#utility.yul\":10032:10037   */\n      dup6\n        /* \"#utility.yul\":10000:10038   */\n      tag_459\n      jump\t// in\n    tag_470:\n        /* \"#utility.yul\":10060:10061   */\n      0x00\n        /* \"#utility.yul\":10074:10228   */\n    tag_471:\n        /* \"#utility.yul\":10088:10094   */\n      dup4\n        /* \"#utility.yul\":10085:10086   */\n      dup2\n        /* \"#utility.yul\":10082:10095   */\n      lt\n        /* \"#utility.yul\":10074:10228   */\n      iszero\n      tag_473\n      jumpi\n        /* \"#utility.yul\":10162:10169   */\n      dup2\n        /* \"#utility.yul\":10156:10170   */\n      sload\n        /* \"#utility.yul\":10152:10153   */\n      dup2\n        /* \"#utility.yul\":10147:10150   */\n      dup10\n        /* \"#utility.yul\":10143:10154   */\n      add\n        /* \"#utility.yul\":10136:10171   */\n      mstore\n        /* \"#utility.yul\":10212:10213   */\n      0x01\n        /* \"#utility.yul\":10203:10210   */\n      dup3\n        /* \"#utility.yul\":10199:10214   */\n      add\n        /* \"#utility.yul\":10188:10214   */\n      swap2\n      pop\n        /* \"#utility.yul\":10110:10114   */\n      0x20\n        /* \"#utility.yul\":10107:10108   */\n      dup2\n        /* \"#utility.yul\":10103:10115   */\n      add\n        /* \"#utility.yul\":10098:10115   */\n      swap1\n      pop\n        /* \"#utility.yul\":10074:10228   */\n      jump(tag_471)\n    tag_473:\n        /* \"#utility.yul\":10257:10263   */\n      dup4\n        /* \"#utility.yul\":10252:10255   */\n      dup9\n        /* \"#utility.yul\":10248:10264   */\n      add\n        /* \"#utility.yul\":10241:10264   */\n      swap6\n      pop\n        /* \"#utility.yul\":9940:10274   */\n      pop\n      pop\n        /* \"#utility.yul\":9754:10274   */\n    tag_467:\n      pop\n        /* \"#utility.yul\":9542:10280   */\n      pop\n      pop\n        /* \"#utility.yul\":9435:10280   */\n      swap3\n      swap2\n      pop\n      pop\n      jump\t// out\n        /* \"#utility.yul\":10286:10652   */\n    tag_474:\n        /* \"#utility.yul\":10428:10431   */\n      0x00\n        /* \"#utility.yul\":10449:10516   */\n      tag_476\n        /* \"#utility.yul\":10513:10515   */\n      0x0e\n        /* \"#utility.yul\":10508:10511   */\n      dup4\n        /* \"#utility.yul\":10449:10516   */\n      tag_443\n      jump\t// in\n    tag_476:\n        /* \"#utility.yul\":10442:10516   */\n      swap2\n      pop\n        /* \"#utility.yul\":10525:10618   */\n      tag_477\n        /* \"#utility.yul\":10614:10617   */\n      dup3\n        /* \"#utility.yul\":10525:10618   */\n      tag_478\n      jump\t// in\n    tag_477:\n        /* \"#utility.yul\":10643:10645   */\n      0x20\n        /* \"#utility.yul\":10638:10641   */\n      dup3\n        /* \"#utility.yul\":10634:10646   */\n      add\n        /* \"#utility.yul\":10627:10646   */\n      swap1\n      pop\n        /* \"#utility.yul\":10286:10652   */\n      swap2\n      swap1\n      pop\n      jump\t// out\n        /* \"#utility.yul\":10658:11024   */\n    tag_479:\n        /* \"#utility.yul\":10800:10803   */\n      0x00\n        /* \"#utility.yul\":10821:10888   */\n      tag_481\n        /* \"#utility.yul\":10885:10887   */\n      0x10\n        /* \"#utility.yul\":10880:10883   */\n      dup4\n        /* \"#utility.yul\":10821:10888   */\n      tag_443\n      jump\t// in\n    tag_481:\n        /* \"#utility.yul\":10814:10888   */\n      swap2\n      pop\n        /* \"#utility.yul\":10897:10990   */\n      tag_482\n        /* \"#utility.yul\":10986:10989   */\n      dup3\n        /* \"#utility.yul\":10897:10990   */\n      tag_483\n      jump\t// in\n    tag_482:\n        /* \"#utility.yul\":11015:11017   */\n      0x20\n        /* \"#utility.yul\":11010:11013   */\n      dup3\n        /* \"#utility.yul\":11006:11018   */\n      add\n        /* \"#utility.yul\":10999:11018   */\n      swap1\n      pop\n        /* \"#utility.yul\":10658:11024   */\n      swap2\n      swap1\n      pop\n      jump\t// out\n        /* \"#utility.yul\":11030:11396   */\n    tag_484:\n        /* \"#utility.yul\":11172:11175   */\n      0x00\n        /* \"#utility.yul\":11193:11260   */\n      tag_486\n        /* \"#utility.yul\":11257:11259   */\n      0x21\n        /* \"#utility.yul\":11252:11255   */\n      dup4\n        /* \"#utility.yul\":11193:11260   */\n      tag_443\n      jump\t// in\n    tag_486:\n        /* \"#utility.yul\":11186:11260   */\n      swap2\n      pop\n        /* \"#utility.yul\":11269:11362   */\n      tag_487\n        /* \"#utility.yul\":11358:11361   */\n      dup3\n        /* \"#utility.yul\":11269:11362   */\n      tag_488\n      jump\t// in\n    tag_487:\n        /* \"#utility.yul\":11387:11389   */\n      0x40\n        /* \"#utility.yul\":11382:11385   */\n      dup3\n        /* \"#utility.yul\":11378:11390   */\n      add\n        /* \"#utility.yul\":11371:11390   */\n      swap1\n      pop\n        /* \"#utility.yul\":11030:11396   */\n      swap2\n      swap1\n      pop\n      jump\t// out\n        /* \"#utility.yul\":11402:11520   */\n    tag_489:\n        /* \"#utility.yul\":11489:11513   */\n      tag_491\n        /* \"#utility.yul\":11507:11512   */\n      dup2\n        /* \"#utility.yul\":11489:11513   */\n      tag_492\n      jump\t// in\n    tag_491:\n        /* \"#utility.yul\":11484:11487   */\n      dup3\n        /* \"#utility.yul\":11477:11514   */\n      mstore\n        /* \"#utility.yul\":11402:11520   */\n      pop\n      pop\n      jump\t// out\n        /* \"#utility.yul\":11526:11801   */\n    tag_153:\n        /* \"#utility.yul\":11658:11661   */\n      0x00\n        /* \"#utility.yul\":11680:11775   */\n      tag_494\n        /* \"#utility.yul\":11771:11774   */\n      dup3\n        /* \"#utility.yul\":11762:11768   */\n      dup5\n        /* \"#utility.yul\":11680:11775   */\n      tag_446\n      jump\t// in\n    tag_494:\n        /* \"#utility.yul\":11673:11775   */\n      swap2\n      pop\n        /* \"#utility.yul\":11792:11795   */\n      dup2\n        /* \"#utility.yul\":11785:11795   */\n      swap1\n      pop\n        /* \"#utility.yul\":11526:11801   */\n      swap3\n      swap2\n      pop\n      pop\n      jump\t// out\n        /* \"#utility.yul\":11807:12076   */\n    tag_132:\n        /* \"#utility.yul\":11936:11939   */\n      0x00\n        /* \"#utility.yul\":11958:12050   */\n      tag_496\n        /* \"#utility.yul\":12046:12049   */\n      dup3\n        /* \"#utility.yul\":12037:12043   */\n      dup5\n        /* \"#utility.yul\":11958:12050   */\n      tag_463\n      jump\t// in\n    tag_496:\n        /* \"#utility.yul\":11951:12050   */\n      swap2\n      pop\n        /* \"#utility.yul\":12067:12070   */\n      dup2\n        /* \"#utility.yul\":12060:12070   */\n      swap1\n      pop\n        /* \"#utility.yul\":11807:12076   */\n      swap3\n      swap2\n      pop\n      pop\n      jump\t// out\n        /* \"#utility.yul\":12082:12304   */\n    tag_43:\n        /* \"#utility.yul\":12175:12179   */\n      0x00\n        /* \"#utility.yul\":12213:12215   */\n      0x20\n        /* \"#utility.yul\":12202:12211   */\n      dup3\n        /* \"#utility.yul\":12198:12216   */\n      add\n        /* \"#utility.yul\":12190:12216   */\n      swap1\n      pop\n        /* \"#utility.yul\":12226:12297   */\n      tag_498\n        /* \"#utility.yul\":12294:12295   */\n      0x00\n        /* \"#utility.yul\":12283:12292   */\n      dup4\n        /* \"#utility.yul\":12279:12296   */\n      add\n        /* \"#utility.yul\":12270:12276   */\n      dup5\n        /* \"#utility.yul\":12226:12297   */\n      tag_395\n      jump\t// in\n    tag_498:\n        /* \"#utility.yul\":12082:12304   */\n      swap3\n      swap2\n      pop\n      pop\n      jump\t// out\n        /* \"#utility.yul\":12310:12831   */\n    tag_62:\n        /* \"#utility.yul\":12473:12477   */\n      0x00\n        /* \"#utility.yul\":12511:12513   */\n      0x60\n        /* \"#utility.yul\":12500:12509   */\n      dup3\n        /* \"#utility.yul\":12496:12514   */\n      add\n        /* \"#utility.yul\":12488:12514   */\n      swap1\n      pop\n        /* \"#utility.yul\":12524:12595   */\n      tag_500\n        /* \"#utility.yul\":12592:12593   */\n      0x00\n        /* \"#utility.yul\":12581:12590   */\n      dup4\n        /* \"#utility.yul\":12577:12594   */\n      add\n        /* \"#utility.yul\":12568:12574   */\n      dup7\n        /* \"#utility.yul\":12524:12595   */\n      tag_395\n      jump\t// in\n    tag_500:\n        /* \"#utility.yul\":12642:12651   */\n      dup2\n        /* \"#utility.yul\":12636:12640   */\n      dup2\n        /* \"#utility.yul\":12632:12652   */\n      sub\n        /* \"#utility.yul\":12627:12629   */\n      0x20\n        /* \"#utility.yul\":12616:12625   */\n      dup4\n        /* \"#utility.yul\":12612:12630   */\n      add\n        /* \"#utility.yul\":12605:12653   */\n      mstore\n        /* \"#utility.yul\":12670:12748   */\n      tag_501\n        /* \"#utility.yul\":12743:12747   */\n      dup2\n        /* \"#utility.yul\":12734:12740   */\n      dup6\n        /* \"#utility.yul\":12670:12748   */\n      tag_439\n      jump\t// in\n    tag_501:\n        /* \"#utility.yul\":12662:12748   */\n      swap1\n      pop\n        /* \"#utility.yul\":12758:12824   */\n      tag_502\n        /* \"#utility.yul\":12820:12822   */\n      0x40\n        /* \"#utility.yul\":12809:12818   */\n      dup4\n        /* \"#utility.yul\":12805:12823   */\n      add\n        /* \"#utility.yul\":12796:12802   */\n      dup5\n        /* \"#utility.yul\":12758:12824   */\n      tag_426\n      jump\t// in\n    tag_502:\n        /* \"#utility.yul\":12310:12831   */\n      swap5\n      swap4\n      pop\n      pop\n      pop\n      pop\n      jump\t// out\n        /* \"#utility.yul\":12837:13481   */\n    tag_96:\n        /* \"#utility.yul\":13034:13038   */\n      0x00\n        /* \"#utility.yul\":13072:13075   */\n      0x80\n        /* \"#utility.yul\":13061:13070   */\n      dup3\n        /* \"#utility.yul\":13057:13076   */\n      add\n        /* \"#utility.yul\":13049:13076   */\n      swap1\n      pop\n        /* \"#utility.yul\":13086:13157   */\n      tag_504\n        /* \"#utility.yul\":13154:13155   */\n      0x00\n        /* \"#utility.yul\":13143:13152   */\n      dup4\n        /* \"#utility.yul\":13139:13156   */\n      add\n        /* \"#utility.yul\":13130:13136   */\n      dup8\n        /* \"#utility.yul\":13086:13157   */\n      tag_395\n      jump\t// in\n    tag_504:\n        /* \"#utility.yul\":13204:13213   */\n      dup2\n        /* \"#utility.yul\":13198:13202   */\n      dup2\n        /* \"#utility.yul\":13194:13214   */\n      sub\n        /* \"#utility.yul\":13189:13191   */\n      0x20\n        /* \"#utility.yul\":13178:13187   */\n      dup4\n        /* \"#utility.yul\":13174:13192   */\n      add\n        /* \"#utility.yul\":13167:13215   */\n      mstore\n        /* \"#utility.yul\":13232:13310   */\n      tag_505\n        /* \"#utility.yul\":13305:13309   */\n      dup2\n        /* \"#utility.yul\":13296:13302   */\n      dup7\n        /* \"#utility.yul\":13232:13310   */\n      tag_439\n      jump\t// in\n    tag_505:\n        /* \"#utility.yul\":13224:13310   */\n      swap1\n      pop\n        /* \"#utility.yul\":13320:13392   */\n      tag_506\n        /* \"#utility.yul\":13388:13390   */\n      0x40\n        /* \"#utility.yul\":13377:13386   */\n      dup4\n        /* \"#utility.yul\":13373:13391   */\n      add\n        /* \"#utility.yul\":13364:13370   */\n      dup6\n        /* \"#utility.yul\":13320:13392   */\n      tag_489\n      jump\t// in\n    tag_506:\n        /* \"#utility.yul\":13402:13474   */\n      tag_507\n        /* \"#utility.yul\":13470:13472   */\n      0x60\n        /* \"#utility.yul\":13459:13468   */\n      dup4\n        /* \"#utility.yul\":13455:13473   */\n      add\n        /* \"#utility.yul\":13446:13452   */\n      dup5\n        /* \"#utility.yul\":13402:13474   */\n      tag_489\n      jump\t// in\n    tag_507:\n        /* \"#utility.yul\":12837:13481   */\n      swap6\n      swap5\n      pop\n      pop\n      pop\n      pop\n      pop\n      jump\t// out\n        /* \"#utility.yul\":13487:13900   */\n    tag_53:\n        /* \"#utility.yul\":13650:13654   */\n      0x00\n        /* \"#utility.yul\":13688:13690   */\n      0x20\n        /* \"#utility.yul\":13677:13686   */\n      dup3\n        /* \"#utility.yul\":13673:13691   */\n      add\n        /* \"#utility.yul\":13665:13691   */\n      swap1\n      pop\n        /* \"#utility.yul\":13737:13746   */\n      dup2\n        /* \"#utility.yul\":13731:13735   */\n      dup2\n        /* \"#utility.yul\":13727:13747   */\n      sub\n        /* \"#utility.yul\":13723:13724   */\n      0x00\n        /* \"#utility.yul\":13712:13721   */\n      dup4\n        /* \"#utility.yul\":13708:13725   */\n      add\n        /* \"#utility.yul\":13701:13748   */\n      mstore\n        /* \"#utility.yul\":13765:13893   */\n      tag_509\n        /* \"#utility.yul\":13888:13892   */\n      dup2\n        /* \"#utility.yul\":13879:13885   */\n      dup5\n        /* \"#utility.yul\":13765:13893   */\n      tag_399\n      jump\t// in\n    tag_509:\n        /* \"#utility.yul\":13757:13893   */\n      swap1\n      pop\n        /* \"#utility.yul\":13487:13900   */\n      swap3\n      swap2\n      pop\n      pop\n      jump\t// out\n        /* \"#utility.yul\":13906:14307   */\n    tag_213:\n        /* \"#utility.yul\":14063:14067   */\n      0x00\n        /* \"#utility.yul\":14101:14103   */\n      0x20\n        /* \"#utility.yul\":14090:14099   */\n      dup3\n        /* \"#utility.yul\":14086:14104   */\n      add\n        /* \"#utility.yul\":14078:14104   */\n      swap1\n      pop\n        /* \"#utility.yul\":14150:14159   */\n      dup2\n        /* \"#utility.yul\":14144:14148   */\n      dup2\n        /* \"#utility.yul\":14140:14160   */\n      sub\n        /* \"#utility.yul\":14136:14137   */\n      0x00\n        /* \"#utility.yul\":14125:14134   */\n      dup4\n        /* \"#utility.yul\":14121:14138   */\n      add\n        /* \"#utility.yul\":14114:14161   */\n      mstore\n        /* \"#utility.yul\":14178:14300   */\n      tag_511\n        /* \"#utility.yul\":14295:14299   */\n      dup2\n        /* \"#utility.yul\":14286:14292   */\n      dup5\n        /* \"#utility.yul\":14178:14300   */\n      tag_413\n      jump\t// in\n    tag_511:\n        /* \"#utility.yul\":14170:14300   */\n      swap1\n      pop\n        /* \"#utility.yul\":13906:14307   */\n      swap3\n      swap2\n      pop\n      pop\n      jump\t// out\n        /* \"#utility.yul\":14313:14626   */\n    tag_215:\n        /* \"#utility.yul\":14426:14430   */\n      0x00\n        /* \"#utility.yul\":14464:14466   */\n      0x20\n        /* \"#utility.yul\":14453:14462   */\n      dup3\n        /* \"#utility.yul\":14449:14467   */\n      add\n        /* \"#utility.yul\":14441:14467   */\n      swap1\n      pop\n        /* \"#utility.yul\":14513:14522   */\n      dup2\n        /* \"#utility.yul\":14507:14511   */\n      dup2\n        /* \"#utility.yul\":14503:14523   */\n      sub\n        /* \"#utility.yul\":14499:14500   */\n      0x00\n        /* \"#utility.yul\":14488:14497   */\n      dup4\n        /* \"#utility.yul\":14484:14501   */\n      add\n        /* \"#utility.yul\":14477:14524   */\n      mstore\n        /* \"#utility.yul\":14541:14619   */\n      tag_513\n        /* \"#utility.yul\":14614:14618   */\n      dup2\n        /* \"#utility.yul\":14605:14611   */\n      dup5\n        /* \"#utility.yul\":14541:14619   */\n      tag_439\n      jump\t// in\n    tag_513:\n        /* \"#utility.yul\":14533:14619   */\n      swap1\n      pop\n        /* \"#utility.yul\":14313:14626   */\n      swap3\n      swap2\n      pop\n      pop\n      jump\t// out\n        /* \"#utility.yul\":14632:15458   */\n    tag_30:\n        /* \"#utility.yul\":14869:14873   */\n      0x00\n        /* \"#utility.yul\":14907:14910   */\n      0x80\n        /* \"#utility.yul\":14896:14905   */\n      dup3\n        /* \"#utility.yul\":14892:14911   */\n      add\n        /* \"#utility.yul\":14884:14911   */\n      swap1\n      pop\n        /* \"#utility.yul\":14957:14966   */\n      dup2\n        /* \"#utility.yul\":14951:14955   */\n      dup2\n        /* \"#utility.yul\":14947:14967   */\n      sub\n        /* \"#utility.yul\":14943:14944   */\n      0x00\n        /* \"#utility.yul\":14932:14941   */\n      dup4\n        /* \"#utility.yul\":14928:14945   */\n      add\n        /* \"#utility.yul\":14921:14968   */\n      mstore\n        /* \"#utility.yul\":14985:15063   */\n      tag_515\n        /* \"#utility.yul\":15058:15062   */\n      dup2\n        /* \"#utility.yul\":15049:15055   */\n      dup8\n        /* \"#utility.yul\":14985:15063   */\n      tag_439\n      jump\t// in\n    tag_515:\n        /* \"#utility.yul\":14977:15063   */\n      swap1\n      pop\n        /* \"#utility.yul\":15110:15119   */\n      dup2\n        /* \"#utility.yul\":15104:15108   */\n      dup2\n        /* \"#utility.yul\":15100:15120   */\n      sub\n        /* \"#utility.yul\":15095:15097   */\n      0x20\n        /* \"#utility.yul\":15084:15093   */\n      dup4\n        /* \"#utility.yul\":15080:15098   */\n      add\n        /* \"#utility.yul\":15073:15121   */\n      mstore\n        /* \"#utility.yul\":15138:15216   */\n      tag_516\n        /* \"#utility.yul\":15211:15215   */\n      dup2\n        /* \"#utility.yul\":15202:15208   */\n      dup7\n        /* \"#utility.yul\":15138:15216   */\n      tag_439\n      jump\t// in\n    tag_516:\n        /* \"#utility.yul\":15130:15216   */\n      swap1\n      pop\n        /* \"#utility.yul\":15263:15272   */\n      dup2\n        /* \"#utility.yul\":15257:15261   */\n      dup2\n        /* \"#utility.yul\":15253:15273   */\n      sub\n        /* \"#utility.yul\":15248:15250   */\n      0x40\n        /* \"#utility.yul\":15237:15246   */\n      dup4\n        /* \"#utility.yul\":15233:15251   */\n      add\n        /* \"#utility.yul\":15226:15274   */\n      mstore\n        /* \"#utility.yul\":15291:15369   */\n      tag_517\n        /* \"#utility.yul\":15364:15368   */\n      dup2\n        /* \"#utility.yul\":15355:15361   */\n      dup6\n        /* \"#utility.yul\":15291:15369   */\n      tag_439\n      jump\t// in\n    tag_517:\n        /* \"#utility.yul\":15283:15369   */\n      swap1\n      pop\n        /* \"#utility.yul\":15379:15451   */\n      tag_518\n        /* \"#utility.yul\":15447:15449   */\n      0x60\n        /* \"#utility.yul\":15436:15445   */\n      dup4\n        /* \"#utility.yul\":15432:15450   */\n      add\n        /* \"#utility.yul\":15423:15429   */\n      dup5\n        /* \"#utility.yul\":15379:15451   */\n      tag_489\n      jump\t// in\n    tag_518:\n        /* \"#utility.yul\":14632:15458   */\n      swap6\n      swap5\n      pop\n      pop\n      pop\n      pop\n      pop\n      jump\t// out\n        /* \"#utility.yul\":15464:15997   */\n    tag_68:\n        /* \"#utility.yul\":15633:15637   */\n      0x00\n        /* \"#utility.yul\":15671:15673   */\n      0x60\n        /* \"#utility.yul\":15660:15669   */\n      dup3\n        /* \"#utility.yul\":15656:15674   */\n      add\n        /* \"#utility.yul\":15648:15674   */\n      swap1\n      pop\n        /* \"#utility.yul\":15720:15729   */\n      dup2\n        /* \"#utility.yul\":15714:15718   */\n      dup2\n        /* \"#utility.yul\":15710:15730   */\n      sub\n        /* \"#utility.yul\":15706:15707   */\n      0x00\n        /* \"#utility.yul\":15695:15704   */\n      dup4\n        /* \"#utility.yul\":15691:15708   */\n      add\n        /* \"#utility.yul\":15684:15731   */\n      mstore\n        /* \"#utility.yul\":15748:15826   */\n      tag_520\n        /* \"#utility.yul\":15821:15825   */\n      dup2\n        /* \"#utility.yul\":15812:15818   */\n      dup7\n        /* \"#utility.yul\":15748:15826   */\n      tag_439\n      jump\t// in\n    tag_520:\n        /* \"#utility.yul\":15740:15826   */\n      swap1\n      pop\n        /* \"#utility.yul\":15836:15908   */\n      tag_521\n        /* \"#utility.yul\":15904:15906   */\n      0x20\n        /* \"#utility.yul\":15893:15902   */\n      dup4\n        /* \"#utility.yul\":15889:15907   */\n      add\n        /* \"#utility.yul\":15880:15886   */\n      dup6\n        /* \"#utility.yul\":15836:15908   */\n      tag_489\n      jump\t// in\n    tag_521:\n        /* \"#utility.yul\":15918:15990   */\n      tag_522\n        /* \"#utility.yul\":15986:15988   */\n      0x40\n        /* \"#utility.yul\":15975:15984   */\n      dup4\n        /* \"#utility.yul\":15971:15989   */\n      add\n        /* \"#utility.yul\":15962:15968   */\n      dup5\n        /* \"#utility.yul\":15918:15990   */\n      tag_489\n      jump\t// in\n    tag_522:\n        /* \"#utility.yul\":15464:15997   */\n      swap5\n      swap4\n      pop\n      pop\n      pop\n      pop\n      jump\t// out\n        /* \"#utility.yul\":16003:16422   */\n    tag_218:\n        /* \"#utility.yul\":16169:16173   */\n      0x00\n        /* \"#utility.yul\":16207:16209   */\n      0x20\n        /* \"#utility.yul\":16196:16205   */\n      dup3\n        /* \"#utility.yul\":16192:16210   */\n      add\n        /* \"#utility.yul\":16184:16210   */\n      swap1\n      pop\n        /* \"#utility.yul\":16256:16265   */\n      dup2\n        /* \"#utility.yul\":16250:16254   */\n      dup2\n        /* \"#utility.yul\":16246:16266   */\n      sub\n        /* \"#utility.yul\":16242:16243   */\n      0x00\n        /* \"#utility.yul\":16231:16240   */\n      dup4\n        /* \"#utility.yul\":16227:16244   */\n      add\n        /* \"#utility.yul\":16220:16267   */\n      mstore\n        /* \"#utility.yul\":16284:16415   */\n      tag_524\n        /* \"#utility.yul\":16410:16414   */\n      dup2\n        /* \"#utility.yul\":16284:16415   */\n      tag_474\n      jump\t// in\n    tag_524:\n        /* \"#utility.yul\":16276:16415   */\n      swap1\n      pop\n        /* \"#utility.yul\":16003:16422   */\n      swap2\n      swap1\n      pop\n      jump\t// out\n        /* \"#utility.yul\":16428:16847   */\n    tag_156:\n        /* \"#utility.yul\":16594:16598   */\n      0x00\n        /* \"#utility.yul\":16632:16634   */\n      0x20\n        /* \"#utility.yul\":16621:16630   */\n      dup3\n        /* \"#utility.yul\":16617:16635   */\n      add\n        /* \"#utility.yul\":16609:16635   */\n      swap1\n      pop\n        /* \"#utility.yul\":16681:16690   */\n      dup2\n        /* \"#utility.yul\":16675:16679   */\n      dup2\n        /* \"#utility.yul\":16671:16691   */\n      sub\n        /* \"#utility.yul\":16667:16668   */\n      0x00\n        /* \"#utility.yul\":16656:16665   */\n      dup4\n        /* \"#utility.yul\":16652:16669   */\n      add\n        /* \"#utility.yul\":16645:16692   */\n      mstore\n        /* \"#utility.yul\":16709:16840   */\n      tag_526\n        /* \"#utility.yul\":16835:16839   */\n      dup2\n        /* \"#utility.yul\":16709:16840   */\n      tag_479\n      jump\t// in\n    tag_526:\n        /* \"#utility.yul\":16701:16840   */\n      swap1\n      pop\n        /* \"#utility.yul\":16428:16847   */\n      swap2\n      swap1\n      pop\n      jump\t// out\n        /* \"#utility.yul\":16853:17272   */\n    tag_245:\n        /* \"#utility.yul\":17019:17023   */\n      0x00\n        /* \"#utility.yul\":17057:17059   */\n      0x20\n        /* \"#utility.yul\":17046:17055   */\n      dup3\n        /* \"#utility.yul\":17042:17060   */\n      add\n        /* \"#utility.yul\":17034:17060   */\n      swap1\n      pop\n        /* \"#utility.yul\":17106:17115   */\n      dup2\n        /* \"#utility.yul\":17100:17104   */\n      dup2\n        /* \"#utility.yul\":17096:17116   */\n      sub\n        /* \"#utility.yul\":17092:17093   */\n      0x00\n        /* \"#utility.yul\":17081:17090   */\n      dup4\n        /* \"#utility.yul\":17077:17094   */\n      add\n        /* \"#utility.yul\":17070:17117   */\n      mstore\n        /* \"#utility.yul\":17134:17265   */\n      tag_528\n        /* \"#utility.yul\":17260:17264   */\n      dup2\n        /* \"#utility.yul\":17134:17265   */\n      tag_484\n      jump\t// in\n    tag_528:\n        /* \"#utility.yul\":17126:17265   */\n      swap1\n      pop\n        /* \"#utility.yul\":16853:17272   */\n      swap2\n      swap1\n      pop\n      jump\t// out\n        /* \"#utility.yul\":17278:17500   */\n    tag_73:\n        /* \"#utility.yul\":17371:17375   */\n      0x00\n        /* \"#utility.yul\":17409:17411   */\n      0x20\n        /* \"#utility.yul\":17398:17407   */\n      dup3\n        /* \"#utility.yul\":17394:17412   */\n      add\n        /* \"#utility.yul\":17386:17412   */\n      swap1\n      pop\n        /* \"#utility.yul\":17422:17493   */\n      tag_530\n        /* \"#utility.yul\":17490:17491   */\n      0x00\n        /* \"#utility.yul\":17479:17488   */\n      dup4\n        /* \"#utility.yul\":17475:17492   */\n      add\n        /* \"#utility.yul\":17466:17472   */\n      dup5\n        /* \"#utility.yul\":17422:17493   */\n      tag_489\n      jump\t// in\n    tag_530:\n        /* \"#utility.yul\":17278:17500   */\n      swap3\n      swap2\n      pop\n      pop\n      jump\t// out\n        /* \"#utility.yul\":17506:17635   */\n    tag_322:\n        /* \"#utility.yul\":17540:17546   */\n      0x00\n        /* \"#utility.yul\":17567:17587   */\n      tag_532\n      tag_533\n      jump\t// in\n    tag_532:\n        /* \"#utility.yul\":17557:17587   */\n      swap1\n      pop\n        /* \"#utility.yul\":17596:17629   */\n      tag_534\n        /* \"#utility.yul\":17624:17628   */\n      dup3\n        /* \"#utility.yul\":17616:17622   */\n      dup3\n        /* \"#utility.yul\":17596:17629   */\n      tag_535\n      jump\t// in\n    tag_534:\n        /* \"#utility.yul\":17506:17635   */\n      swap2\n      swap1\n      pop\n      jump\t// out\n        /* \"#utility.yul\":17641:17716   */\n    tag_533:\n        /* \"#utility.yul\":17674:17680   */\n      0x00\n        /* \"#utility.yul\":17707:17709   */\n      0x40\n        /* \"#utility.yul\":17701:17710   */\n      mload\n        /* \"#utility.yul\":17691:17710   */\n      swap1\n      pop\n        /* \"#utility.yul\":17641:17716   */\n      swap1\n      jump\t// out\n        /* \"#utility.yul\":17722:18030   */\n    tag_321:\n        /* \"#utility.yul\":17784:17788   */\n      0x00\n        /* \"#utility.yul\":17874:17892   */\n      0xffffffffffffffff\n        /* \"#utility.yul\":17866:17872   */\n      dup3\n        /* \"#utility.yul\":17863:17893   */\n      gt\n        /* \"#utility.yul\":17860:17916   */\n      iszero\n      tag_538\n      jumpi\n        /* \"#utility.yul\":17896:17914   */\n      tag_539\n      tag_540\n      jump\t// in\n    tag_539:\n        /* \"#utility.yul\":17860:17916   */\n    tag_538:\n        /* \"#utility.yul\":17934:17963   */\n      tag_541\n        /* \"#utility.yul\":17956:17962   */\n      dup3\n        /* \"#utility.yul\":17934:17963   */\n      tag_438\n      jump\t// in\n    tag_541:\n        /* \"#utility.yul\":17926:17963   */\n      swap1\n      pop\n        /* \"#utility.yul\":18018:18022   */\n      0x20\n        /* \"#utility.yul\":18012:18016   */\n      dup2\n        /* \"#utility.yul\":18008:18023   */\n      add\n        /* \"#utility.yul\":18000:18023   */\n      swap1\n      pop\n        /* \"#utility.yul\":17722:18030   */\n      swap2\n      swap1\n      pop\n      jump\t// out\n        /* \"#utility.yul\":18036:18178   */\n    tag_406:\n        /* \"#utility.yul\":18113:18117   */\n      0x00\n        /* \"#utility.yul\":18136:18139   */\n      dup2\n        /* \"#utility.yul\":18128:18139   */\n      swap1\n      pop\n        /* \"#utility.yul\":18166:18170   */\n      0x20\n        /* \"#utility.yul\":18161:18164   */\n      dup3\n        /* \"#utility.yul\":18157:18171   */\n      add\n        /* \"#utility.yul\":18149:18171   */\n      swap1\n      pop\n        /* \"#utility.yul\":18036:18178   */\n      swap2\n      swap1\n      pop\n      jump\t// out\n        /* \"#utility.yul\":18184:18347   */\n    tag_419:\n        /* \"#utility.yul\":18255:18259   */\n      0x00\n        /* \"#utility.yul\":18278:18281   */\n      dup2\n        /* \"#utility.yul\":18270:18281   */\n      swap1\n      pop\n        /* \"#utility.yul\":18301:18304   */\n      dup2\n        /* \"#utility.yul\":18298:18299   */\n      0x00\n        /* \"#utility.yul\":18291:18305   */\n      mstore\n        /* \"#utility.yul\":18335:18339   */\n      0x20\n        /* \"#utility.yul\":18332:18333   */\n      0x00\n        /* \"#utility.yul\":18322:18340   */\n      keccak256\n        /* \"#utility.yul\":18314:18340   */\n      swap1\n      pop\n        /* \"#utility.yul\":18184:18347   */\n      swap2\n      swap1\n      pop\n      jump\t// out\n        /* \"#utility.yul\":18353:18494   */\n    tag_459:\n        /* \"#utility.yul\":18402:18406   */\n      0x00\n        /* \"#utility.yul\":18425:18428   */\n      dup2\n        /* \"#utility.yul\":18417:18428   */\n      swap1\n      pop\n        /* \"#utility.yul\":18448:18451   */\n      dup2\n        /* \"#utility.yul\":18445:18446   */\n      0x00\n        /* \"#utility.yul\":18438:18452   */\n      mstore\n        /* \"#utility.yul\":18482:18486   */\n      0x20\n        /* \"#utility.yul\":18479:18480   */\n      0x00\n        /* \"#utility.yul\":18469:18487   */\n      keccak256\n        /* \"#utility.yul\":18461:18487   */\n      swap1\n      pop\n        /* \"#utility.yul\":18353:18494   */\n      swap2\n      swap1\n      pop\n      jump\t// out\n        /* \"#utility.yul\":18500:18624   */\n    tag_402:\n        /* \"#utility.yul\":18577:18583   */\n      0x00\n        /* \"#utility.yul\":18611:18616   */\n      dup2\n        /* \"#utility.yul\":18605:18617   */\n      mload\n        /* \"#utility.yul\":18595:18617   */\n      swap1\n      pop\n        /* \"#utility.yul\":18500:18624   */\n      swap2\n      swap1\n      pop\n      jump\t// out\n        /* \"#utility.yul\":18630:18748   */\n    tag_416:\n        /* \"#utility.yul\":18701:18707   */\n      0x00\n        /* \"#utility.yul\":18735:18740   */\n      dup2\n        /* \"#utility.yul\":18729:18741   */\n      sload\n        /* \"#utility.yul\":18719:18741   */\n      swap1\n      pop\n        /* \"#utility.yul\":18630:18748   */\n      swap2\n      swap1\n      pop\n      jump\t// out\n        /* \"#utility.yul\":18754:18853   */\n    tag_432:\n        /* \"#utility.yul\":18806:18812   */\n      0x00\n        /* \"#utility.yul\":18840:18845   */\n      dup2\n        /* \"#utility.yul\":18834:18846   */\n      mload\n        /* \"#utility.yul\":18824:18846   */\n      swap1\n      pop\n        /* \"#utility.yul\":18754:18853   */\n      swap2\n      swap1\n      pop\n      jump\t// out\n        /* \"#utility.yul\":18859:18982   */\n    tag_412:\n        /* \"#utility.yul\":18939:18943   */\n      0x00\n        /* \"#utility.yul\":18971:18975   */\n      0x20\n        /* \"#utility.yul\":18966:18969   */\n      dup3\n        /* \"#utility.yul\":18962:18976   */\n      add\n        /* \"#utility.yul\":18954:18976   */\n      swap1\n      pop\n        /* \"#utility.yul\":18859:18982   */\n      swap2\n      swap1\n      pop\n      jump\t// out\n        /* \"#utility.yul\":18988:19105   */\n    tag_425:\n        /* \"#utility.yul\":19062:19066   */\n      0x00\n        /* \"#utility.yul\":19094:19098   */\n      0x01\n        /* \"#utility.yul\":19089:19092   */\n      dup3\n        /* \"#utility.yul\":19085:19099   */\n      add\n        /* \"#utility.yul\":19077:19099   */\n      swap1\n      pop\n        /* \"#utility.yul\":18988:19105   */\n      swap2\n      swap1\n      pop\n      jump\t// out\n        /* \"#utility.yul\":19111:19305   */\n    tag_404:\n        /* \"#utility.yul\":19220:19231   */\n      0x00\n        /* \"#utility.yul\":19254:19260   */\n      dup3\n        /* \"#utility.yul\":19249:19252   */\n      dup3\n        /* \"#utility.yul\":19242:19261   */\n      mstore\n        /* \"#utility.yul\":19294:19298   */\n      0x20\n        /* \"#utility.yul\":19289:19292   */\n      dup3\n        /* \"#utility.yul\":19285:19299   */\n      add\n        /* \"#utility.yul\":19270:19299   */\n      swap1\n      pop\n        /* \"#utility.yul\":19111:19305   */\n      swap3\n      swap2\n      pop\n      pop\n      jump\t// out\n        /* \"#utility.yul\":19311:19470   */\n    tag_434:\n        /* \"#utility.yul\":19385:19396   */\n      0x00\n        /* \"#utility.yul\":19419:19425   */\n      dup3\n        /* \"#utility.yul\":19414:19417   */\n      dup3\n        /* \"#utility.yul\":19407:19426   */\n      mstore\n        /* \"#utility.yul\":19459:19463   */\n      0x20\n        /* \"#utility.yul\":19454:19457   */\n      dup3\n        /* \"#utility.yul\":19450:19464   */\n      add\n        /* \"#utility.yul\":19435:19464   */\n      swap1\n      pop\n        /* \"#utility.yul\":19311:19470   */\n      swap3\n      swap2\n      pop\n      pop\n      jump\t// out\n        /* \"#utility.yul\":19476:19645   */\n    tag_443:\n        /* \"#utility.yul\":19560:19571   */\n      0x00\n        /* \"#utility.yul\":19594:19600   */\n      dup3\n        /* \"#utility.yul\":19589:19592   */\n      dup3\n        /* \"#utility.yul\":19582:19601   */\n      mstore\n        /* \"#utility.yul\":19634:19638   */\n      0x20\n        /* \"#utility.yul\":19629:19632   */\n      dup3\n        /* \"#utility.yul\":19625:19639   */\n      add\n        /* \"#utility.yul\":19610:19639   */\n      swap1\n      pop\n        /* \"#utility.yul\":19476:19645   */\n      swap3\n      swap2\n      pop\n      pop\n      jump\t// out\n        /* \"#utility.yul\":19651:19799   */\n    tag_450:\n        /* \"#utility.yul\":19753:19764   */\n      0x00\n        /* \"#utility.yul\":19790:19793   */\n      dup2\n        /* \"#utility.yul\":19775:19793   */\n      swap1\n      pop\n        /* \"#utility.yul\":19651:19799   */\n      swap3\n      swap2\n      pop\n      pop\n      jump\t// out\n        /* \"#utility.yul\":19805:20110   */\n    tag_146:\n        /* \"#utility.yul\":19845:19848   */\n      0x00\n        /* \"#utility.yul\":19864:19884   */\n      tag_555\n        /* \"#utility.yul\":19882:19883   */\n      dup3\n        /* \"#utility.yul\":19864:19884   */\n      tag_492\n      jump\t// in\n    tag_555:\n        /* \"#utility.yul\":19859:19884   */\n      swap2\n      pop\n        /* \"#utility.yul\":19898:19918   */\n      tag_556\n        /* \"#utility.yul\":19916:19917   */\n      dup4\n        /* \"#utility.yul\":19898:19918   */\n      tag_492\n      jump\t// in\n    tag_556:\n        /* \"#utility.yul\":19893:19918   */\n      swap3\n      pop\n        /* \"#utility.yul\":20052:20053   */\n      dup3\n        /* \"#utility.yul\":19984:20050   */\n      0xffffffffffffffffffffffffffffffffffffffffffffffffffffffffffffffff\n        /* \"#utility.yul\":19980:20054   */\n      sub\n        /* \"#utility.yul\":19977:19978   */\n      dup3\n        /* \"#utility.yul\":19974:20055   */\n      gt\n        /* \"#utility.yul\":19971:20078   */\n      iszero\n      tag_557\n      jumpi\n        /* \"#utility.yul\":20058:20076   */\n      tag_558\n      tag_559\n      jump\t// in\n    tag_558:\n        /* \"#utility.yul\":19971:20078   */\n    tag_557:\n        /* \"#utility.yul\":20102:20103   */\n      dup3\n        /* \"#utility.yul\":20099:20100   */\n      dup3\n        /* \"#utility.yul\":20095:20104   */\n      add\n        /* \"#utility.yul\":20088:20104   */\n      swap1\n      pop\n        /* \"#utility.yul\":19805:20110   */\n      swap3\n      swap2\n      pop\n      pop\n      jump\t// out\n        /* \"#utility.yul\":20116:20307   */\n    tag_137:\n        /* \"#utility.yul\":20156:20160   */\n      0x00\n        /* \"#utility.yul\":20176:20196   */\n      tag_561\n        /* \"#utility.yul\":20194:20195   */\n      dup3\n        /* \"#utility.yul\":20176:20196   */\n      tag_492\n      jump\t// in\n    tag_561:\n        /* \"#utility.yul\":20171:20196   */\n      swap2\n      pop\n        /* \"#utility.yul\":20210:20230   */\n      tag_562\n        /* \"#utility.yul\":20228:20229   */\n      dup4\n        /* \"#utility.yul\":20210:20230   */\n      tag_492\n      jump\t// in\n    tag_562:\n        /* \"#utility.yul\":20205:20230   */\n      swap3\n      pop\n        /* \"#utility.yul\":20249:20250   */\n      dup3\n        /* \"#utility.yul\":20246:20247   */\n      dup3\n        /* \"#utility.yul\":20243:20251   */\n      lt\n        /* \"#utility.yul\":20240:20274   */\n      iszero\n      tag_563\n      jumpi\n        /* \"#utility.yul\":20254:20272   */\n      tag_564\n      tag_559\n      jump\t// in\n    tag_564:\n        /* \"#utility.yul\":20240:20274   */\n    tag_563:\n        /* \"#utility.yul\":20299:20300   */\n      dup3\n        /* \"#utility.yul\":20296:20297   */\n      dup3\n        /* \"#utility.yul\":20292:20301   */\n      sub\n        /* \"#utility.yul\":20284:20301   */\n      swap1\n      pop\n        /* \"#utility.yul\":20116:20307   */\n      swap3\n      swap2\n      pop\n      pop\n      jump\t// out\n        /* \"#utility.yul\":20313:20409   */\n    tag_398:\n        /* \"#utility.yul\":20350:20357   */\n      0x00\n        /* \"#utility.yul\":20379:20403   */\n      tag_566\n        /* \"#utility.yul\":20397:20402   */\n      dup3\n        /* \"#utility.yul\":20379:20403   */\n      tag_567\n      jump\t// in\n    tag_566:\n        /* \"#utility.yul\":20368:20403   */\n      swap1\n      pop\n        /* \"#utility.yul\":20313:20409   */\n      swap2\n      swap1\n      pop\n      jump\t// out\n        /* \"#utility.yul\":20415:20505   */\n    tag_429:\n        /* \"#utility.yul\":20449:20456   */\n      0x00\n        /* \"#utility.yul\":20492:20497   */\n      dup2\n        /* \"#utility.yul\":20485:20498   */\n      iszero\n        /* \"#utility.yul\":20478:20499   */\n      iszero\n        /* \"#utility.yul\":20467:20499   */\n      swap1\n      pop\n        /* \"#utility.yul\":20415:20505   */\n      swap2\n      swap1\n      pop\n      jump\t// out\n        /* \"#utility.yul\":20511:20637   */\n    tag_567:\n        /* \"#utility.yul\":20548:20555   */\n      0x00\n        /* \"#utility.yul\":20588:20630   */\n      0xffffffffffffffffffffffffffffffffffffffff\n        /* \"#utility.yul\":20581:20586   */\n      dup3\n        /* \"#utility.yul\":20577:20631   */\n      and\n        /* \"#utility.yul\":20566:20631   */\n      swap1\n      pop\n        /* \"#utility.yul\":20511:20637   */\n      swap2\n      swap1\n      pop\n      jump\t// out\n        /* \"#utility.yul\":20643:20720   */\n    tag_492:\n        /* \"#utility.yul\":20680:20687   */\n      0x00\n        /* \"#utility.yul\":20709:20714   */\n      dup2\n        /* \"#utility.yul\":20698:20714   */\n      swap1\n      pop\n        /* \"#utility.yul\":20643:20720   */\n      swap2\n      swap1\n      pop\n      jump\t// out\n        /* \"#utility.yul\":20726:20880   */\n    tag_327:\n        /* \"#utility.yul\":20810:20816   */\n      dup3\n        /* \"#utility.yul\":20805:20808   */\n      dup2\n        /* \"#utility.yul\":20800:20803   */\n      dup4\n        /* \"#utility.yul\":20787:20817   */\n      calldatacopy\n        /* \"#utility.yul\":20872:20873   */\n      0x00\n        /* \"#utility.yul\":20863:20869   */\n      dup4\n        /* \"#utility.yul\":20858:20861   */\n      dup4\n        /* \"#utility.yul\":20854:20870   */\n      add\n        /* \"#utility.yul\":20847:20874   */\n      mstore\n        /* \"#utility.yul\":20726:20880   */\n      pop\n      pop\n      pop\n      jump\t// out\n        /* \"#utility.yul\":20886:21193   */\n    tag_436:\n        /* \"#utility.yul\":20954:20955   */\n      0x00\n        /* \"#utility.yul\":20964:21077   */\n    tag_573:\n        /* \"#utility.yul\":20978:20984   */\n      dup4\n        /* \"#utility.yul\":20975:20976   */\n      dup2\n        /* \"#utility.yul\":20972:20985   */\n      lt\n        /* \"#utility.yul\":20964:21077   */\n      iszero\n      tag_575\n      jumpi\n        /* \"#utility.yul\":21063:21064   */\n      dup1\n        /* \"#utility.yul\":21058:21061   */\n      dup3\n        /* \"#utility.yul\":21054:21065   */\n      add\n        /* \"#utility.yul\":21048:21066   */\n      mload\n        /* \"#utility.yul\":21044:21045   */\n      dup2\n        /* \"#utility.yul\":21039:21042   */\n      dup5\n        /* \"#utility.yul\":21035:21046   */\n      add\n        /* \"#utility.yul\":21028:21067   */\n      mstore\n        /* \"#utility.yul\":21000:21002   */\n      0x20\n        /* \"#utility.yul\":20997:20998   */\n      dup2\n        /* \"#utility.yul\":20993:21003   */\n      add\n        /* \"#utility.yul\":20988:21003   */\n      swap1\n      pop\n        /* \"#utility.yul\":20964:21077   */\n      jump(tag_573)\n    tag_575:\n        /* \"#utility.yul\":21095:21101   */\n      dup4\n        /* \"#utility.yul\":21092:21093   */\n      dup2\n        /* \"#utility.yul\":21089:21102   */\n      gt\n        /* \"#utility.yul\":21086:21187   */\n      iszero\n      tag_576\n      jumpi\n        /* \"#utility.yul\":21175:21176   */\n      0x00\n        /* \"#utility.yul\":21166:21172   */\n      dup5\n        /* \"#utility.yul\":21161:21164   */\n      dup5\n        /* \"#utility.yul\":21157:21173   */\n      add\n        /* \"#utility.yul\":21150:21177   */\n      mstore\n        /* \"#utility.yul\":21086:21187   */\n    tag_576:\n        /* \"#utility.yul\":20935:21193   */\n      pop\n        /* \"#utility.yul\":20886:21193   */\n      pop\n      pop\n      pop\n      jump\t// out\n        /* \"#utility.yul\":21199:21519   */\n    tag_107:\n        /* \"#utility.yul\":21243:21249   */\n      0x00\n        /* \"#utility.yul\":21280:21281   */\n      0x02\n        /* \"#utility.yul\":21274:21278   */\n      dup3\n        /* \"#utility.yul\":21270:21282   */\n      div\n        /* \"#utility.yul\":21260:21282   */\n      swap1\n      pop\n        /* \"#utility.yul\":21327:21328   */\n      0x01\n        /* \"#utility.yul\":21321:21325   */\n      dup3\n        /* \"#utility.yul\":21317:21329   */\n      and\n        /* \"#utility.yul\":21348:21366   */\n      dup1\n        /* \"#utility.yul\":21338:21419   */\n      tag_578\n      jumpi\n        /* \"#utility.yul\":21404:21408   */\n      0x7f\n        /* \"#utility.yul\":21396:21402   */\n      dup3\n        /* \"#utility.yul\":21392:21409   */\n      and\n        /* \"#utility.yul\":21382:21409   */\n      swap2\n      pop\n        /* \"#utility.yul\":21338:21419   */\n    tag_578:\n        /* \"#utility.yul\":21466:21468   */\n      0x20\n        /* \"#utility.yul\":21458:21464   */\n      dup3\n        /* \"#utility.yul\":21455:21469   */\n      lt\n        /* \"#utility.yul\":21435:21453   */\n      dup2\n        /* \"#utility.yul\":21432:21470   */\n      eq\n        /* \"#utility.yul\":21429:21513   */\n      iszero\n      tag_579\n      jumpi\n        /* \"#utility.yul\":21485:21503   */\n      tag_580\n      tag_581\n      jump\t// in\n    tag_580:\n        /* \"#utility.yul\":21429:21513   */\n    tag_579:\n        /* \"#utility.yul\":21250:21519   */\n      pop\n        /* \"#utility.yul\":21199:21519   */\n      swap2\n      swap1\n      pop\n      jump\t// out\n        /* \"#utility.yul\":21525:21806   */\n    tag_535:\n        /* \"#utility.yul\":21608:21635   */\n      tag_583\n        /* \"#utility.yul\":21630:21634   */\n      dup3\n        /* \"#utility.yul\":21608:21635   */\n      tag_438\n      jump\t// in\n    tag_583:\n        /* \"#utility.yul\":21600:21606   */\n      dup2\n        /* \"#utility.yul\":21596:21636   */\n      add\n        /* \"#utility.yul\":21738:21744   */\n      dup2\n        /* \"#utility.yul\":21726:21736   */\n      dup2\n        /* \"#utility.yul\":21723:21745   */\n      lt\n        /* \"#utility.yul\":21702:21720   */\n      0xffffffffffffffff\n        /* \"#utility.yul\":21690:21700   */\n      dup3\n        /* \"#utility.yul\":21687:21721   */\n      gt\n        /* \"#utility.yul\":21684:21746   */\n      or\n        /* \"#utility.yul\":21681:21769   */\n      iszero\n      tag_584\n      jumpi\n        /* \"#utility.yul\":21749:21767   */\n      tag_585\n      tag_540\n      jump\t// in\n    tag_585:\n        /* \"#utility.yul\":21681:21769   */\n    tag_584:\n        /* \"#utility.yul\":21789:21799   */\n      dup1\n        /* \"#utility.yul\":21785:21787   */\n      0x40\n        /* \"#utility.yul\":21778:21800   */\n      mstore\n        /* \"#utility.yul\":21568:21806   */\n      pop\n        /* \"#utility.yul\":21525:21806   */\n      pop\n      pop\n      jump\t// out\n        /* \"#utility.yul\":21812:22045   */\n    tag_198:\n        /* \"#utility.yul\":21851:21854   */\n      0x00\n        /* \"#utility.yul\":21874:21898   */\n      tag_587\n        /* \"#utility.yul\":21892:21897   */\n      dup3\n        /* \"#utility.yul\":21874:21898   */\n      tag_492\n      jump\t// in\n    tag_587:\n        /* \"#utility.yul\":21865:21898   */\n      swap2\n      pop\n        /* \"#utility.yul\":21920:21986   */\n      0xffffffffffffffffffffffffffffffffffffffffffffffffffffffffffffffff\n        /* \"#utility.yul\":21913:21918   */\n      dup3\n        /* \"#utility.yul\":21910:21987   */\n      eq\n        /* \"#utility.yul\":21907:22010   */\n      iszero\n      tag_588\n      jumpi\n        /* \"#utility.yul\":21990:22008   */\n      tag_589\n      tag_559\n      jump\t// in\n    tag_589:\n        /* \"#utility.yul\":21907:22010   */\n    tag_588:\n        /* \"#utility.yul\":22037:22038   */\n      0x01\n        /* \"#utility.yul\":22030:22035   */\n      dup3\n        /* \"#utility.yul\":22026:22039   */\n      add\n        /* \"#utility.yul\":22019:22039   */\n      swap1\n      pop\n        /* \"#utility.yul\":21812:22045   */\n      swap2\n      swap1\n      pop\n      jump\t// out\n        /* \"#utility.yul\":22051:22231   */\n    tag_559:\n        /* \"#utility.yul\":22099:22176   */\n      0x4e487b7100000000000000000000000000000000000000000000000000000000\n        /* \"#utility.yul\":22096:22097   */\n      0x00\n        /* \"#utility.yul\":22089:22177   */\n      mstore\n        /* \"#utility.yul\":22196:22200   */\n      0x11\n        /* \"#utility.yul\":22193:22194   */\n      0x04\n        /* \"#utility.yul\":22186:22201   */\n      mstore\n        /* \"#utility.yul\":22220:22224   */\n      0x24\n        /* \"#utility.yul\":22217:22218   */\n      0x00\n        /* \"#utility.yul\":22210:22225   */\n      revert\n        /* \"#utility.yul\":22237:22417   */\n    tag_581:\n        /* \"#utility.yul\":22285:22362   */\n      0x4e487b7100000000000000000000000000000000000000000000000000000000\n        /* \"#utility.yul\":22282:22283   */\n      0x00\n        /* \"#utility.yul\":22275:22363   */\n      mstore\n        /* \"#utility.yul\":22382:22386   */\n      0x22\n        /* \"#utility.yul\":22379:22380   */\n      0x04\n        /* \"#utility.yul\":22372:22387   */\n      mstore\n        /* \"#utility.yul\":22406:22410   */\n      0x24\n        /* \"#utility.yul\":22403:22404   */\n      0x00\n        /* \"#utility.yul\":22396:22411   */\n      revert\n        /* \"#utility.yul\":22423:22603   */\n    tag_126:\n        /* \"#utility.yul\":22471:22548   */\n      0x4e487b7100000000000000000000000000000000000000000000000000000000\n        /* \"#utility.yul\":22468:22469   */\n      0x00\n        /* \"#utility.yul\":22461:22549   */\n      mstore\n        /* \"#utility.yul\":22568:22572   */\n      0x32\n        /* \"#utility.yul\":22565:22566   */\n      0x04\n        /* \"#utility.yul\":22558:22573   */\n      mstore\n        /* \"#utility.yul\":22592:22596   */\n      0x24\n        /* \"#utility.yul\":22589:22590   */\n      0x00\n        /* \"#utility.yul\":22582:22597   */\n      revert\n        /* \"#utility.yul\":22609:22789   */\n    tag_540:\n        /* \"#utility.yul\":22657:22734   */\n      0x4e487b7100000000000000000000000000000000000000000000000000000000\n        /* \"#utility.yul\":22654:22655   */\n      0x00\n        /* \"#utility.yul\":22647:22735   */\n      mstore\n        /* \"#utility.yul\":22754:22758   */\n      0x41\n        /* \"#utility.yul\":22751:22752   */\n      0x04\n        /* \"#utility.yul\":22744:22759   */\n      mstore\n        /* \"#utility.yul\":22778:22782   */\n      0x24\n        /* \"#utility.yul\":22775:22776   */\n      0x00\n        /* \"#utility.yul\":22768:22783   */\n      revert\n        /* \"#utility.yul\":22795:22912   */\n    tag_340:\n        /* \"#utility.yul\":22904:22905   */\n      0x00\n        /* \"#utility.yul\":22901:22902   */\n      dup1\n        /* \"#utility.yul\":22894:22906   */\n      revert\n        /* \"#utility.yul\":22918:23035   */\n    tag_325:\n        /* \"#utility.yul\":23027:23028   */\n      0x00\n        /* \"#utility.yul\":23024:23025   */\n      dup1\n        /* \"#utility.yul\":23017:23029   */\n      revert\n        /* \"#utility.yul\":23041:23158   */\n    tag_356:\n        /* \"#utility.yul\":23150:23151   */\n      0x00\n        /* \"#utility.yul\":23147:23148   */\n      dup1\n        /* \"#utility.yul\":23140:23152   */\n      revert\n        /* \"#utility.yul\":23164:23281   */\n    tag_349:\n        /* \"#utility.yul\":23273:23274   */\n      0x00\n        /* \"#utility.yul\":23270:23271   */\n      dup1\n        /* \"#utility.yul\":23263:23275   */\n      revert\n        /* \"#utility.yul\":23287:23389   */\n    tag_438:\n        /* \"#utility.yul\":23328:23334   */\n      0x00\n        /* \"#utility.yul\":23379:23381   */\n      0x1f\n        /* \"#utility.yul\":23375:23382   */\n      not\n        /* \"#utility.yul\":23370:23372   */\n      0x1f\n        /* \"#utility.yul\":23363:23368   */\n      dup4\n        /* \"#utility.yul\":23359:23373   */\n      add\n        /* \"#utility.yul\":23355:23383   */\n      and\n        /* \"#utility.yul\":23345:23383   */\n      swap1\n      pop\n        /* \"#utility.yul\":23287:23389   */\n      swap2\n      swap1\n      pop\n      jump\t// out\n        /* \"#utility.yul\":23395:23559   */\n    tag_478:\n        /* \"#utility.yul\":23535:23551   */\n      0x6572726f723a206e6f2073686f70000000000000000000000000000000000000\n        /* \"#utility.yul\":23531:23532   */\n      0x00\n        /* \"#utility.yul\":23523:23529   */\n      dup3\n        /* \"#utility.yul\":23519:23533   */\n      add\n        /* \"#utility.yul\":23512:23552   */\n      mstore\n        /* \"#utility.yul\":23395:23559   */\n      pop\n      jump\t// out\n        /* \"#utility.yul\":23565:23731   */\n    tag_483:\n        /* \"#utility.yul\":23705:23723   */\n      0x6572726f723a206e6f74206d6f6e657900000000000000000000000000000000\n        /* \"#utility.yul\":23701:23702   */\n      0x00\n        /* \"#utility.yul\":23693:23699   */\n      dup3\n        /* \"#utility.yul\":23689:23703   */\n      add\n        /* \"#utility.yul\":23682:23724   */\n      mstore\n        /* \"#utility.yul\":23565:23731   */\n      pop\n      jump\t// out\n        /* \"#utility.yul\":23737:23957   */\n    tag_488:\n        /* \"#utility.yul\":23877:23911   */\n      0x6572726f723a20726174696e672063616e2062652066726f6d203120746f2031\n        /* \"#utility.yul\":23873:23874   */\n      0x00\n        /* \"#utility.yul\":23865:23871   */\n      dup3\n        /* \"#utility.yul\":23861:23875   */\n      add\n        /* \"#utility.yul\":23854:23912   */\n      mstore\n        /* \"#utility.yul\":23946:23949   */\n      0x3000000000000000000000000000000000000000000000000000000000000000\n        /* \"#utility.yul\":23941:23943   */\n      0x20\n        /* \"#utility.yul\":23933:23939   */\n      dup3\n        /* \"#utility.yul\":23929:23944   */\n      add\n        /* \"#utility.yul\":23922:23950   */\n      mstore\n        /* \"#utility.yul\":23737:23957   */\n      pop\n      jump\t// out\n        /* \"#utility.yul\":23963:24085   */\n    tag_331:\n        /* \"#utility.yul\":24036:24060   */\n      tag_603\n        /* \"#utility.yul\":24054:24059   */\n      dup2\n        /* \"#utility.yul\":24036:24060   */\n      tag_398\n      jump\t// in\n    tag_603:\n        /* \"#utility.yul\":24029:24034   */\n      dup2\n        /* \"#utility.yul\":24026:24061   */\n      eq\n        /* \"#utility.yul\":24016:24079   */\n      tag_604\n      jumpi\n        /* \"#utility.yul\":24075:24076   */\n      0x00\n        /* \"#utility.yul\":24072:24073   */\n      dup1\n        /* \"#utility.yul\":24065:24077   */\n      revert\n        /* \"#utility.yul\":24016:24079   */\n    tag_604:\n        /* \"#utility.yul\":23963:24085   */\n      pop\n      jump\t// out\n        /* \"#utility.yul\":24091:24207   */\n    tag_335:\n        /* \"#utility.yul\":24161:24182   */\n      tag_606\n        /* \"#utility.yul\":24176:24181   */\n      dup2\n        /* \"#utility.yul\":24161:24182   */\n      tag_429\n      jump\t// in\n    tag_606:\n        /* \"#utility.yul\":24154:24159   */\n      dup2\n        /* \"#utility.yul\":24151:24183   */\n      eq\n        /* \"#utility.yul\":24141:24201   */\n      tag_607\n      jumpi\n        /* \"#utility.yul\":24197:24198   */\n      0x00\n        /* \"#utility.yul\":24194:24195   */\n      dup1\n        /* \"#utility.yul\":24187:24199   */\n      revert\n        /* \"#utility.yul\":24141:24201   */\n    tag_607:\n        /* \"#utility.yul\":24091:24207   */\n      pop\n      jump\t// out\n        /* \"#utility.yul\":24213:24335   */\n    tag_345:\n        /* \"#utility.yul\":24286:24310   */\n      tag_609\n        /* \"#utility.yul\":24304:24309   */\n      dup2\n        /* \"#utility.yul\":24286:24310   */\n      tag_492\n      jump\t// in\n    tag_609:\n        /* \"#utility.yul\":24279:24284   */\n      dup2\n        /* \"#utility.yul\":24276:24311   */\n      eq\n        /* \"#utility.yul\":24266:24329   */\n      tag_610\n      jumpi\n        /* \"#utility.yul\":24325:24326   */\n      0x00\n        /* \"#utility.yul\":24322:24323   */\n      dup1\n        /* \"#utility.yul\":24315:24327   */\n      revert\n        /* \"#utility.yul\":24266:24329   */\n    tag_610:\n        /* \"#utility.yul\":24213:24335   */\n      pop\n      jump\t// out\n\n    auxdata: 0xa26469706673582212203f651039a5847ca94971a46205bb19b40e0af8fda1f5611a34bad4a6186d717264736f6c63430008070033\n}\n",
				"bytecode": {
					"linkReferences": {},
					"object": "60806040526000600c556000600d553480156200001b57600080fd5b506040518060a001604052806040518060400160405280600481526020017f466f6f640000000000000000000000000000000000000000000000000000000081525081526020016040518060400160405280600181526020017f310000000000000000000000000000000000000000000000000000000000000081525081526020016040518060400160405280600681526020017f4d6f73636f77000000000000000000000000000000000000000000000000000081525081526020016103e881526020016000815250600080735b38da6a701c568545dcfcb03fcb875f56beddc473ffffffffffffffffffffffffffffffffffffffff1673ffffffffffffffffffffffffffffffffffffffff16815260200190815260200160002060008201518160000190805190602001906200015592919062000854565b5060208201518160010190805190602001906200017492919062000854565b5060408201518160020190805190602001906200019392919062000854565b5060608201518160030155608082015181600401559050506002600080735b38da6a701c568545dcfcb03fcb875f56beddc473ffffffffffffffffffffffffffffffffffffffff1673ffffffffffffffffffffffffffffffffffffffff168152602001908152602001600020600001908060018154018082558091505060019003906000526020600020016000909190919091509080546200023590620009e5565b62000242929190620008e5565b506040518060a001604052806040518060400160405280600781526020017f436c6f746865730000000000000000000000000000000000000000000000000081525081526020016040518060400160405280600181526020017f320000000000000000000000000000000000000000000000000000000000000081525081526020016040518060400160405280600a81526020017f506574657273627572670000000000000000000000000000000000000000000081525081526020016103e88152602001600081525060008073ab8483f64d9c6d1ecf9b849ae677dd3315835cb273ffffffffffffffffffffffffffffffffffffffff1673ffffffffffffffffffffffffffffffffffffffff16815260200190815260200160002060008201518160000190805190602001906200037c92919062000854565b5060208201518160010190805190602001906200039b92919062000854565b506040820151816002019080519060200190620003ba92919062000854565b506060820151816003015560808201518160040155905050600260008073ab8483f64d9c6d1ecf9b849ae677dd3315835cb273ffffffffffffffffffffffffffffffffffffffff1673ffffffffffffffffffffffffffffffffffffffff168152602001908152602001600020600001908060018154018082558091505060019003906000526020600020016000909190919091509080546200045c90620009e5565b62000469929190620008e5565b506040518060a001604052806040518060400160405280600981526020017f5065742053746f7265000000000000000000000000000000000000000000000081525081526020016040518060400160405280600181526020017f330000000000000000000000000000000000000000000000000000000000000081525081526020016040518060400160405280600c81526020017f456b61746572696e62757267000000000000000000000000000000000000000081525081526020016103e881526020016000815250600080734b20993bc481177ec7e8f571cecae8a9e22c02db73ffffffffffffffffffffffffffffffffffffffff1673ffffffffffffffffffffffffffffffffffffffff1681526020019081526020016000206000820151816000019080519060200190620005a392919062000854565b506020820151816001019080519060200190620005c292919062000854565b506040820151816002019080519060200190620005e192919062000854565b5060608201518160030155608082015181600401559050506002600080734b20993bc481177ec7e8f571cecae8a9e22c02db73ffffffffffffffffffffffffffffffffffffffff1673ffffffffffffffffffffffffffffffffffffffff168152602001908152602001600020600001908060018154018082558091505060019003906000526020600020016000909190919091509080546200068390620009e5565b62000690929190620008e5565b507378731d3ca6b7e34ac0f824c42a7cc18a495cabab6005604051620006b690620009c3565b908152602001604051809103902060006101000a81548173ffffffffffffffffffffffffffffffffffffffff021916908373ffffffffffffffffffffffffffffffffffffffff16021790555060405180606001604052806040518060400160405280600481526020017f50657461000000000000000000000000000000000000000000000000000000008152508152602001600181526020016103e8815250600460007378731d3ca6b7e34ac0f824c42a7cc18a495cabab73ffffffffffffffffffffffffffffffffffffffff1673ffffffffffffffffffffffffffffffffffffffff1681526020019081526020016000206000820151816000019080519060200190620007c692919062000854565b506020820151816001015560408201518160020155905050600680600181540180825580915050600190039060005260206000200160006040518060400160405280600481526020017f5065746100000000000000000000000000000000000000000000000000000000815250909190915090805190602001906200084d92919062000854565b5062000a73565b8280546200086290620009e5565b90600052602060002090601f016020900481019282620008865760008555620008d2565b82601f10620008a157805160ff1916838001178555620008d2565b82800160010185558215620008d2579182015b82811115620008d1578251825591602001919060010190620008b4565b5b509050620008e191906200097d565b5090565b828054620008f390620009e5565b90600052602060002090601f0160209004810192826200091757600085556200096a565b82601f106200092a57805485556200096a565b828001600101855582156200096a57600052602060002091601f016020900482015b82811115620009695782548255916001019190600101906200094c565b5b5090506200097991906200097d565b5090565b5b80821115620009985760008160009055506001016200097e565b5090565b6000620009ab600483620009da565b9150620009b88262000a4a565b600482019050919050565b6000620009d0826200099c565b9150819050919050565b600081905092915050565b60006002820490506001821680620009fe57607f821691505b6020821081141562000a155762000a1462000a1b565b5b50919050565b7f4e487b7100000000000000000000000000000000000000000000000000000000600052602260045260246000fd5b7f5065746100000000000000000000000000000000000000000000000000000000600082015250565b6128f48062000a836000396000f3fe608060405234801561001057600080fd5b50600436106101215760003560e01c8063961865f0116100ad578063c4957fa011610071578063c4957fa014610333578063cc21c18814610363578063d68cf8c11461037f578063dce39151146103b2578063f69483c1146103e457610121565b8063961865f014610265578063a985036d14610297578063a9f9482b146102c7578063bbd43363146102f9578063c178b9af1461031557610121565b80632ccdef7c116100f45780632ccdef7c146101c15780632d4673e3146101dd57806334d2c0ad146101f95780636c05dd1d146102175780637ddb273d1461023357610121565b806308f4d2c6146101265780630c72b1ec14610159578063146dc6ed146101755780631bbe970a14610191575b600080fd5b610140600480360381019061013b9190611e2c565b610400565b604051610150949392919061231b565b60405180910390f35b610173600480360381019061016e9190611e59565b6105d8565b005b61018f600480360381019061018a9190611ccd565b6108a5565b005b6101ab60048036038101906101a69190611ccd565b610a33565b6040516101b89190612210565b60405180910390f35b6101db60048036038101906101d69190611e59565b610a7c565b005b6101f760048036038101906101f29190611ccd565b610c72565b005b610201610d5a565b60405161020e91906122b5565b60405180910390f35b610231600480360381019061022c9190611da1565b610e33565b005b61024d60048036038101906102489190611e2c565b610f5e565b60405161025c9392919061222b565b60405180910390f35b61027f600480360381019061027a9190611ca0565b61104d565b60405161028e93929190612375565b60405180910390f35b6102b160048036038101906102ac9190611ccd565b6110ff565b6040516102be9190612413565b60405180910390f35b6102e160048036038101906102dc9190611e2c565b6111c4565b6040516102f09392919061222b565b60405180910390f35b610313600480360381019061030e9190611ccd565b6112b3565b005b61031d61139b565b60405161032a91906122b5565b60405180910390f35b61034d60048036038101906103489190611ccd565b611474565b60405161035a9190612210565b60405180910390f35b61037d60048036038101906103789190611d16565b6114bd565b005b61039960048036038101906103949190611ccd565b6116b7565b6040516103a99493929190612269565b60405180910390f35b6103cc60048036038101906103c79190611e2c565b6117a5565b6040516103db9392919061222b565b60405180910390f35b6103fe60048036038101906103f99190611e59565b611894565b005b6003818154811061041057600080fd5b90600052602060002090600502016000915090508060000180546104339061264b565b80601f016020809104026020016040519081016040528092919081815260200182805461045f9061264b565b80156104ac5780601f10610481576101008083540402835291602001916104ac565b820191906000526020600020905b81548152906001019060200180831161048f57829003601f168201915b5050505050908060010180546104c19061264b565b80601f01602080910402602001604051908101604052809291908181526020018280546104ed9061264b565b801561053a5780601f1061050f5761010080835404028352916020019161053a565b820191906000526020600020905b81548152906001019060200180831161051d57829003601f168201915b50505050509080600201805461054f9061264b565b80601f016020809104026020016040519081016040528092919081815260200182805461057b9061264b565b80156105c85780601f1061059d576101008083540402835291602001916105c8565b820191906000526020600020905b8154815290600101906020018083116105ab57829003601f168201915b5050505050908060030154905084565b600115158115151415610862576000600983815481106105fb576105fa612755565b5b906000526020600020906003020160020160006101000a81548160ff02191690831515021790555060076009838154811061063957610638612755565b5b906000526020600020906003020160010160405161065791906121f9565b908152602001604051809103902060020154600460006009858154811061068157610680612755565b5b906000526020600020906003020160000160009054906101000a900473ffffffffffffffffffffffffffffffffffffffff1673ffffffffffffffffffffffffffffffffffffffff1673ffffffffffffffffffffffffffffffffffffffff168152602001908152602001600020600201546106fb919061258d565b600460006009858154811061071357610712612755565b5b906000526020600020906003020160000160009054906101000a900473ffffffffffffffffffffffffffffffffffffffff1673ffffffffffffffffffffffffffffffffffffffff1673ffffffffffffffffffffffffffffffffffffffff1681526020019081526020016000206002018190555060076009838154811061079c5761079b612755565b5b90600052602060002090600302016001016040516107ba91906121f9565b9081526020016040518091039020600201546000803373ffffffffffffffffffffffffffffffffffffffff1673ffffffffffffffffffffffffffffffffffffffff168152602001908152602001600020600301546108189190612537565b6000803373ffffffffffffffffffffffffffffffffffffffff1673ffffffffffffffffffffffffffffffffffffffff168152602001908152602001600020600301819055506108a1565b60006009838154811061087857610877612755565b5b906000526020600020906003020160020160006101000a81548160ff0219169083151502179055505b5050565b6007816040516108b591906121e2565b908152602001604051809103902060020154600460003373ffffffffffffffffffffffffffffffffffffffff1673ffffffffffffffffffffffffffffffffffffffff16815260200190815260200160002060020154101561094b576040517f08c379a0000000000000000000000000000000000000000000000000000000008152600401610942906123d3565b60405180910390fd5b600960405180606001604052803373ffffffffffffffffffffffffffffffffffffffff16815260200183815260200160011515815250908060018154018082558091505060019003906000526020600020906003020160009091909190915060008201518160000160006101000a81548173ffffffffffffffffffffffffffffffffffffffff021916908373ffffffffffffffffffffffffffffffffffffffff1602179055506020820151816001019080519060200190610a0d929190611a8a565b5060408201518160020160006101000a81548160ff021916908315150217905550505050565b6005818051602081018201805184825260208301602085012081835280955050505050506000915054906101000a900473ffffffffffffffffffffffffffffffffffffffff1681565b600115158115151415610c2f576000600a8381548110610a9f57610a9e612755565b5b906000526020600020906003020160020160006101000a81548160ff0219169083151502179055506007600a8381548110610add57610adc612755565b5b9060005260206000209060030201600101604051610afb91906121f9565b90815260200160405180910390206002015460046000600a8581548110610b2557610b24612755565b5b906000526020600020906003020160000160009054906101000a900473ffffffffffffffffffffffffffffffffffffffff1673ffffffffffffffffffffffffffffffffffffffff1673ffffffffffffffffffffffffffffffffffffffff16815260200190815260200160002060020154610b9f9190612537565b60046000600a8581548110610bb757610bb6612755565b5b906000526020600020906003020160000160009054906101000a900473ffffffffffffffffffffffffffffffffffffffff1673ffffffffffffffffffffffffffffffffffffffff1673ffffffffffffffffffffffffffffffffffffffff16815260200190815260200160002060020181905550610c6e565b6000600a8381548110610c4557610c44612755565b5b906000526020600020906003020160020160006101000a81548160ff0219169083151502179055505b5050565b600b60405180606001604052803373ffffffffffffffffffffffffffffffffffffffff16815260200183815260200160011515815250908060018154018082558091505060019003906000526020600020906003020160009091909190915060008201518160000160006101000a81548173ffffffffffffffffffffffffffffffffffffffff021916908373ffffffffffffffffffffffffffffffffffffffff1602179055506020820151816001019080519060200190610d34929190611a8a565b5060408201518160020160006101000a81548160ff021916908315150217905550505050565b60606008805480602002602001604051908101604052809291908181526020016000905b82821015610e2a578382906000526020600020018054610d9d9061264b565b80601f0160208091040260200160405190810160405280929190818152602001828054610dc99061264b565b8015610e165780601f10610deb57610100808354040283529160200191610e16565b820191906000526020600020905b815481529060010190602001808311610df957829003601f168201915b505050505081526020019060010190610d7e565b50505050905090565b60405180608001604052803373ffffffffffffffffffffffffffffffffffffffff168152602001828152602001838152602001600c54815250600784604051610e7c91906121e2565b908152602001604051809103902060008201518160000160006101000a81548173ffffffffffffffffffffffffffffffffffffffff021916908373ffffffffffffffffffffffffffffffffffffffff1602179055506020820151816001019080519060200190610eed929190611a8a565b506040820151816002015560608201518160030155905050600883908060018154018082558091505060019003906000526020600020016000909190919091509080519060200190610f40929190611a8a565b50600c6000815480929190610f54906126ae565b9190505550505050565b600b8181548110610f6e57600080fd5b90600052602060002090600302016000915090508060000160009054906101000a900473ffffffffffffffffffffffffffffffffffffffff1690806001018054610fb79061264b565b80601f0160208091040260200160405190810160405280929190818152602001828054610fe39061264b565b80156110305780601f1061100557610100808354040283529160200191611030565b820191906000526020600020905b81548152906001019060200180831161101357829003601f168201915b5050505050908060020160009054906101000a900460ff16905083565b60046020528060005260406000206000915090508060000180546110709061264b565b80601f016020809104026020016040519081016040528092919081815260200182805461109c9061264b565b80156110e95780601f106110be576101008083540402835291602001916110e9565b820191906000526020600020905b8154815290600101906020018083116110cc57829003601f168201915b5050505050908060010154908060020154905083565b6000600260405160200161111391906122d7565b604051602081830303815290604052805190602001208260405160200161113a91906122f9565b6040516020818303038152906040528051906020012014611190576040517f08c379a0000000000000000000000000000000000000000000000000000000008152600401611187906123b3565b60405180910390fd5b600080600380549050905060005b818110156111b95780806111b1906126ae565b91505061119e565b508192505050919050565b600a81815481106111d457600080fd5b90600052602060002090600302016000915090508060000160009054906101000a900473ffffffffffffffffffffffffffffffffffffffff169080600101805461121d9061264b565b80601f01602080910402602001604051908101604052809291908181526020018280546112499061264b565b80156112965780601f1061126b57610100808354040283529160200191611296565b820191906000526020600020905b81548152906001019060200180831161127957829003601f168201915b5050505050908060020160009054906101000a900460ff16905083565b600a60405180606001604052803373ffffffffffffffffffffffffffffffffffffffff16815260200183815260200160011515815250908060018154018082558091505060019003906000526020600020906003020160009091909190915060008201518160000160006101000a81548173ffffffffffffffffffffffffffffffffffffffff021916908373ffffffffffffffffffffffffffffffffffffffff1602179055506020820151816001019080519060200190611375929190611a8a565b5060408201518160020160006101000a81548160ff021916908315150217905550505050565b60606002805480602002602001604051908101604052809291908181526020016000905b8282101561146b5783829060005260206000200180546113de9061264b565b80601f016020809104026020016040519081016040528092919081815260200182805461140a9061264b565b80156114575780601f1061142c57610100808354040283529160200191611457565b820191906000526020600020905b81548152906001019060200180831161143a57829003601f168201915b5050505050815260200190600101906113bf565b50505050905090565b6001818051602081018201805184825260208301602085012081835280955050505050506000915054906101000a900473ffffffffffffffffffffffffffffffffffffffff1681565b600a811115611501576040517f08c379a00000000000000000000000000000000000000000000000000000000081526004016114f8906123f3565b60405180910390fd5b60606040518060a00160405280858152602001600460003373ffffffffffffffffffffffffffffffffffffffff1673ffffffffffffffffffffffffffffffffffffffff16815260200190815260200160002060000180546115619061264b565b80601f016020809104026020016040519081016040528092919081815260200182805461158d9061264b565b80156115da5780601f106115af576101008083540402835291602001916115da565b820191906000526020600020905b8154815290600101906020018083116115bd57829003601f168201915b50505050508152602001848152602001838152602001828152506003600d548154811061160a57611609612755565b5b90600052602060002090600502016000820151816000019080519060200190611634929190611a8a565b506020820151816001019080519060200190611651929190611a8a565b50604082015181600201908051906020019061166e929190611a8a565b50606082015181600301556080820151816004019080519060200190611695929190611b10565b50905050600d60008154809291906116ac906126ae565b919050555050505050565b6007818051602081018201805184825260208301602085012081835280955050505050506000915090508060000160009054906101000a900473ffffffffffffffffffffffffffffffffffffffff16908060010180546117169061264b565b80601f01602080910402602001604051908101604052809291908181526020018280546117429061264b565b801561178f5780601f106117645761010080835404028352916020019161178f565b820191906000526020600020905b81548152906001019060200180831161177257829003601f168201915b5050505050908060020154908060030154905084565b600981815481106117b557600080fd5b90600052602060002090600302016000915090508060000160009054906101000a900473ffffffffffffffffffffffffffffffffffffffff16908060010180546117fe9061264b565b80601f016020809104026020016040519081016040528092919081815260200182805461182a9061264b565b80156118775780601f1061184c57610100808354040283529160200191611877565b820191906000526020600020905b81548152906001019060200180831161185a57829003601f168201915b5050505050908060020160009054906101000a900460ff16905083565b600115158115151415611a47576000600a83815481106118b7576118b6612755565b5b906000526020600020906003020160020160006101000a81548160ff0219169083151502179055506007600b83815481106118f5576118f4612755565b5b906000526020600020906003020160010160405161191391906121f9565b90815260200160405180910390206002015460046000600b858154811061193d5761193c612755565b5b906000526020600020906003020160000160009054906101000a900473ffffffffffffffffffffffffffffffffffffffff1673ffffffffffffffffffffffffffffffffffffffff1673ffffffffffffffffffffffffffffffffffffffff168152602001908152602001600020600201546119b79190612537565b60046000600b85815481106119cf576119ce612755565b5b906000526020600020906003020160000160009054906101000a900473ffffffffffffffffffffffffffffffffffffffff1673ffffffffffffffffffffffffffffffffffffffff1673ffffffffffffffffffffffffffffffffffffffff16815260200190815260200160002060020181905550611a86565b6000600a8381548110611a5d57611a5c612755565b5b906000526020600020906003020160020160006101000a81548160ff0219169083151502179055505b5050565b828054611a969061264b565b90600052602060002090601f016020900481019282611ab85760008555611aff565b82601f10611ad157805160ff1916838001178555611aff565b82800160010185558215611aff579182015b82811115611afe578251825591602001919060010190611ae3565b5b509050611b0c9190611b70565b5090565b828054828255906000526020600020908101928215611b5f579160200282015b82811115611b5e578251829080519060200190611b4e929190611a8a565b5091602001919060010190611b30565b5b509050611b6c9190611b8d565b5090565b5b80821115611b89576000816000905550600101611b71565b5090565b5b80821115611bad5760008181611ba49190611bb1565b50600101611b8e565b5090565b508054611bbd9061264b565b6000825580601f10611bcf5750611bee565b601f016020900490600052602060002090810190611bed9190611b70565b5b50565b6000611c04611bff84612453565b61242e565b905082815260208101848484011115611c2057611c1f6127b8565b5b611c2b848285612609565b509392505050565b600081359050611c4281612879565b92915050565b600081359050611c5781612890565b92915050565b600082601f830112611c7257611c716127b3565b5b8135611c82848260208601611bf1565b91505092915050565b600081359050611c9a816128a7565b92915050565b600060208284031215611cb657611cb56127c2565b5b6000611cc484828501611c33565b91505092915050565b600060208284031215611ce357611ce26127c2565b5b600082013567ffffffffffffffff811115611d0157611d006127bd565b5b611d0d84828501611c5d565b91505092915050565b600080600060608486031215611d2f57611d2e6127c2565b5b600084013567ffffffffffffffff811115611d4d57611d4c6127bd565b5b611d5986828701611c5d565b935050602084013567ffffffffffffffff811115611d7a57611d796127bd565b5b611d8686828701611c5d565b9250506040611d9786828701611c8b565b9150509250925092565b600080600060608486031215611dba57611db96127c2565b5b600084013567ffffffffffffffff811115611dd857611dd76127bd565b5b611de486828701611c5d565b9350506020611df586828701611c8b565b925050604084013567ffffffffffffffff811115611e1657611e156127bd565b5b611e2286828701611c5d565b9150509250925092565b600060208284031215611e4257611e416127c2565b5b6000611e5084828501611c8b565b91505092915050565b60008060408385031215611e7057611e6f6127c2565b5b6000611e7e85828601611c8b565b9250506020611e8f85828601611c48565b9150509250929050565b6000611ea58383611fc8565b905092915050565b6000611eb9838361206b565b905092915050565b611eca816125c1565b82525050565b6000611edb826124be565b611ee581856124f9565b935083602082028501611ef785612484565b8060005b85811015611f335784840389528151611f148582611e99565b9450611f1f836124df565b925060208a01995050600181019050611efb565b50829750879550505050505092915050565b6000611f50826124c9565b611f5a81856124f9565b935083602082028501611f6c85612494565b8060005b85811015611fa757848403895281611f888582611ead565b9450611f93836124ec565b925060208a01995050600181019050611f70565b50829750879550505050505092915050565b611fc2816125d3565b82525050565b6000611fd3826124d4565b611fdd818561250a565b9350611fed818560208601612618565b611ff6816127c7565b840191505092915050565b600061200c826124d4565b612016818561251b565b9350612026818560208601612618565b61202f816127c7565b840191505092915050565b6000612045826124d4565b61204f818561252c565b935061205f818560208601612618565b80840191505092915050565b600081546120788161264b565b612082818661250a565b9450600182166000811461209d57600181146120af576120e2565b60ff19831686526020860193506120e2565b6120b8856124a9565b60005b838110156120da578154818901526001820191506020810190506120bb565b808801955050505b50505092915050565b600081546120f88161264b565b612102818661252c565b9450600182166000811461211d576001811461212e57612161565b60ff19831686528186019350612161565b612137856124a9565b60005b838110156121595781548189015260018201915060208101905061213a565b838801955050505b50505092915050565b6000612177600e8361251b565b9150612182826127d8565b602082019050919050565b600061219a60108361251b565b91506121a582612801565b602082019050919050565b60006121bd60218361251b565b91506121c88261282a565b604082019050919050565b6121dc816125ff565b82525050565b60006121ee828461203a565b915081905092915050565b600061220582846120eb565b915081905092915050565b60006020820190506122256000830184611ec1565b92915050565b60006060820190506122406000830186611ec1565b81810360208301526122528185612001565b90506122616040830184611fb9565b949350505050565b600060808201905061227e6000830187611ec1565b81810360208301526122908186612001565b905061229f60408301856121d3565b6122ac60608301846121d3565b95945050505050565b600060208201905081810360008301526122cf8184611ed0565b905092915050565b600060208201905081810360008301526122f18184611f45565b905092915050565b600060208201905081810360008301526123138184612001565b905092915050565b600060808201905081810360008301526123358187612001565b905081810360208301526123498186612001565b9050818103604083015261235d8185612001565b905061236c60608301846121d3565b95945050505050565b6000606082019050818103600083015261238f8186612001565b905061239e60208301856121d3565b6123ab60408301846121d3565b949350505050565b600060208201905081810360008301526123cc8161216a565b9050919050565b600060208201905081810360008301526123ec8161218d565b9050919050565b6000602082019050818103600083015261240c816121b0565b9050919050565b600060208201905061242860008301846121d3565b92915050565b6000612438612449565b9050612444828261267d565b919050565b6000604051905090565b600067ffffffffffffffff82111561246e5761246d612784565b5b612477826127c7565b9050602081019050919050565b6000819050602082019050919050565b60008190508160005260206000209050919050565b60008190508160005260206000209050919050565b600081519050919050565b600081549050919050565b600081519050919050565b6000602082019050919050565b6000600182019050919050565b600082825260208201905092915050565b600082825260208201905092915050565b600082825260208201905092915050565b600081905092915050565b6000612542826125ff565b915061254d836125ff565b9250827fffffffffffffffffffffffffffffffffffffffffffffffffffffffffffffffff03821115612582576125816126f7565b5b828201905092915050565b6000612598826125ff565b91506125a3836125ff565b9250828210156125b6576125b56126f7565b5b828203905092915050565b60006125cc826125df565b9050919050565b60008115159050919050565b600073ffffffffffffffffffffffffffffffffffffffff82169050919050565b6000819050919050565b82818337600083830152505050565b60005b8381101561263657808201518184015260208101905061261b565b83811115612645576000848401525b50505050565b6000600282049050600182168061266357607f821691505b6020821081141561267757612676612726565b5b50919050565b612686826127c7565b810181811067ffffffffffffffff821117156126a5576126a4612784565b5b80604052505050565b60006126b9826125ff565b91507fffffffffffffffffffffffffffffffffffffffffffffffffffffffffffffffff8214156126ec576126eb6126f7565b5b600182019050919050565b7f4e487b7100000000000000000000000000000000000000000000000000000000600052601160045260246000fd5b7f4e487b7100000000000000000000000000000000000000000000000000000000600052602260045260246000fd5b7f4e487b7100000000000000000000000000000000000000000000000000000000600052603260045260246000fd5b7f4e487b7100000000000000000000000000000000000000000000000000000000600052604160045260246000fd5b600080fd5b600080fd5b600080fd5b600080fd5b6000601f19601f8301169050919050565b7f6572726f723a206e6f2073686f70000000000000000000000000000000000000600082015250565b7f6572726f723a206e6f74206d6f6e657900000000000000000000000000000000600082015250565b7f6572726f723a20726174696e672063616e2062652066726f6d203120746f203160008201527f3000000000000000000000000000000000000000000000000000000000000000602082015250565b612882816125c1565b811461288d57600080fd5b50565b612899816125d3565b81146128a457600080fd5b50565b6128b0816125ff565b81146128bb57600080fd5b5056fea26469706673582212203f651039a5847ca94971a46205bb19b40e0af8fda1f5611a34bad4a6186d717264736f6c63430008070033",
					"opcodes": "PUSH1 0x80 PUSH1 0x40 MSTORE PUSH1 0x0 PUSH1 0xC SSTORE PUSH1 0x0 PUSH1 0xD SSTORE CALLVALUE DUP1 ISZERO PUSH3 0x1B JUMPI PUSH1 0x0 DUP1 REVERT JUMPDEST POP PUSH1 0x40 MLOAD DUP1 PUSH1 0xA0 ADD PUSH1 0x40 MSTORE DUP1 PUSH1 0x40 MLOAD DUP1 PUSH1 0x40 ADD PUSH1 0x40 MSTORE DUP1 PUSH1 0x4 DUP2 MSTORE PUSH1 0x20 ADD PUSH32 0x466F6F6400000000000000000000000000000000000000000000000000000000 DUP2 MSTORE POP DUP2 MSTORE PUSH1 0x20 ADD PUSH1 0x40 MLOAD DUP1 PUSH1 0x40 ADD PUSH1 0x40 MSTORE DUP1 PUSH1 0x1 DUP2 MSTORE PUSH1 0x20 ADD PUSH32 0x3100000000000000000000000000000000000000000000000000000000000000 DUP2 MSTORE POP DUP2 MSTORE PUSH1 0x20 ADD PUSH1 0x40 MLOAD DUP1 PUSH1 0x40 ADD PUSH1 0x40 MSTORE DUP1 PUSH1 0x6 DUP2 MSTORE PUSH1 0x20 ADD PUSH32 0x4D6F73636F770000000000000000000000000000000000000000000000000000 DUP2 MSTORE POP DUP2 MSTORE PUSH1 0x20 ADD PUSH2 0x3E8 DUP2 MSTORE PUSH1 0x20 ADD PUSH1 0x0 DUP2 MSTORE POP PUSH1 0x0 DUP1 PUSH20 0x5B38DA6A701C568545DCFCB03FCB875F56BEDDC4 PUSH20 0xFFFFFFFFFFFFFFFFFFFFFFFFFFFFFFFFFFFFFFFF AND PUSH20 0xFFFFFFFFFFFFFFFFFFFFFFFFFFFFFFFFFFFFFFFF AND DUP2 MSTORE PUSH1 0x20 ADD SWAP1 DUP2 MSTORE PUSH1 0x20 ADD PUSH1 0x0 KECCAK256 PUSH1 0x0 DUP3 ADD MLOAD DUP2 PUSH1 0x0 ADD SWAP1 DUP1 MLOAD SWAP1 PUSH1 0x20 ADD SWAP1 PUSH3 0x155 SWAP3 SWAP2 SWAP1 PUSH3 0x854 JUMP JUMPDEST POP PUSH1 0x20 DUP3 ADD MLOAD DUP2 PUSH1 0x1 ADD SWAP1 DUP1 MLOAD SWAP1 PUSH1 0x20 ADD SWAP1 PUSH3 0x174 SWAP3 SWAP2 SWAP1 PUSH3 0x854 JUMP JUMPDEST POP PUSH1 0x40 DUP3 ADD MLOAD DUP2 PUSH1 0x2 ADD SWAP1 DUP1 MLOAD SWAP1 PUSH1 0x20 ADD SWAP1 PUSH3 0x193 SWAP3 SWAP2 SWAP1 PUSH3 0x854 JUMP JUMPDEST POP PUSH1 0x60 DUP3 ADD MLOAD DUP2 PUSH1 0x3 ADD SSTORE PUSH1 0x80 DUP3 ADD MLOAD DUP2 PUSH1 0x4 ADD SSTORE SWAP1 POP POP PUSH1 0x2 PUSH1 0x0 DUP1 PUSH20 0x5B38DA6A701C568545DCFCB03FCB875F56BEDDC4 PUSH20 0xFFFFFFFFFFFFFFFFFFFFFFFFFFFFFFFFFFFFFFFF AND PUSH20 0xFFFFFFFFFFFFFFFFFFFFFFFFFFFFFFFFFFFFFFFF AND DUP2 MSTORE PUSH1 0x20 ADD SWAP1 DUP2 MSTORE PUSH1 0x20 ADD PUSH1 0x0 KECCAK256 PUSH1 0x0 ADD SWAP1 DUP1 PUSH1 0x1 DUP2 SLOAD ADD DUP1 DUP3 SSTORE DUP1 SWAP2 POP POP PUSH1 0x1 SWAP1 SUB SWAP1 PUSH1 0x0 MSTORE PUSH1 0x20 PUSH1 0x0 KECCAK256 ADD PUSH1 0x0 SWAP1 SWAP2 SWAP1 SWAP2 SWAP1 SWAP2 POP SWAP1 DUP1 SLOAD PUSH3 0x235 SWAP1 PUSH3 0x9E5 JUMP JUMPDEST PUSH3 0x242 SWAP3 SWAP2 SWAP1 PUSH3 0x8E5 JUMP JUMPDEST POP PUSH1 0x40 MLOAD DUP1 PUSH1 0xA0 ADD PUSH1 0x40 MSTORE DUP1 PUSH1 0x40 MLOAD DUP1 PUSH1 0x40 ADD PUSH1 0x40 MSTORE DUP1 PUSH1 0x7 DUP2 MSTORE PUSH1 0x20 ADD PUSH32 0x436C6F7468657300000000000000000000000000000000000000000000000000 DUP2 MSTORE POP DUP2 MSTORE PUSH1 0x20 ADD PUSH1 0x40 MLOAD DUP1 PUSH1 0x40 ADD PUSH1 0x40 MSTORE DUP1 PUSH1 0x1 DUP2 MSTORE PUSH1 0x20 ADD PUSH32 0x3200000000000000000000000000000000000000000000000000000000000000 DUP2 MSTORE POP DUP2 MSTORE PUSH1 0x20 ADD PUSH1 0x40 MLOAD DUP1 PUSH1 0x40 ADD PUSH1 0x40 MSTORE DUP1 PUSH1 0xA DUP2 MSTORE PUSH1 0x20 ADD PUSH32 0x5065746572736275726700000000000000000000000000000000000000000000 DUP2 MSTORE POP DUP2 MSTORE PUSH1 0x20 ADD PUSH2 0x3E8 DUP2 MSTORE PUSH1 0x20 ADD PUSH1 0x0 DUP2 MSTORE POP PUSH1 0x0 DUP1 PUSH20 0xAB8483F64D9C6D1ECF9B849AE677DD3315835CB2 PUSH20 0xFFFFFFFFFFFFFFFFFFFFFFFFFFFFFFFFFFFFFFFF AND PUSH20 0xFFFFFFFFFFFFFFFFFFFFFFFFFFFFFFFFFFFFFFFF AND DUP2 MSTORE PUSH1 0x20 ADD SWAP1 DUP2 MSTORE PUSH1 0x20 ADD PUSH1 0x0 KECCAK256 PUSH1 0x0 DUP3 ADD MLOAD DUP2 PUSH1 0x0 ADD SWAP1 DUP1 MLOAD SWAP1 PUSH1 0x20 ADD SWAP1 PUSH3 0x37C SWAP3 SWAP2 SWAP1 PUSH3 0x854 JUMP JUMPDEST POP PUSH1 0x20 DUP3 ADD MLOAD DUP2 PUSH1 0x1 ADD SWAP1 DUP1 MLOAD SWAP1 PUSH1 0x20 ADD SWAP1 PUSH3 0x39B SWAP3 SWAP2 SWAP1 PUSH3 0x854 JUMP JUMPDEST POP PUSH1 0x40 DUP3 ADD MLOAD DUP2 PUSH1 0x2 ADD SWAP1 DUP1 MLOAD SWAP1 PUSH1 0x20 ADD SWAP1 PUSH3 0x3BA SWAP3 SWAP2 SWAP1 PUSH3 0x854 JUMP JUMPDEST POP PUSH1 0x60 DUP3 ADD MLOAD DUP2 PUSH1 0x3 ADD SSTORE PUSH1 0x80 DUP3 ADD MLOAD DUP2 PUSH1 0x4 ADD SSTORE SWAP1 POP POP PUSH1 0x2 PUSH1 0x0 DUP1 PUSH20 0xAB8483F64D9C6D1ECF9B849AE677DD3315835CB2 PUSH20 0xFFFFFFFFFFFFFFFFFFFFFFFFFFFFFFFFFFFFFFFF AND PUSH20 0xFFFFFFFFFFFFFFFFFFFFFFFFFFFFFFFFFFFFFFFF AND DUP2 MSTORE PUSH1 0x20 ADD SWAP1 DUP2 MSTORE PUSH1 0x20 ADD PUSH1 0x0 KECCAK256 PUSH1 0x0 ADD SWAP1 DUP1 PUSH1 0x1 DUP2 SLOAD ADD DUP1 DUP3 SSTORE DUP1 SWAP2 POP POP PUSH1 0x1 SWAP1 SUB SWAP1 PUSH1 0x0 MSTORE PUSH1 0x20 PUSH1 0x0 KECCAK256 ADD PUSH1 0x0 SWAP1 SWAP2 SWAP1 SWAP2 SWAP1 SWAP2 POP SWAP1 DUP1 SLOAD PUSH3 0x45C SWAP1 PUSH3 0x9E5 JUMP JUMPDEST PUSH3 0x469 SWAP3 SWAP2 SWAP1 PUSH3 0x8E5 JUMP JUMPDEST POP PUSH1 0x40 MLOAD DUP1 PUSH1 0xA0 ADD PUSH1 0x40 MSTORE DUP1 PUSH1 0x40 MLOAD DUP1 PUSH1 0x40 ADD PUSH1 0x40 MSTORE DUP1 PUSH1 0x9 DUP2 MSTORE PUSH1 0x20 ADD PUSH32 0x5065742053746F72650000000000000000000000000000000000000000000000 DUP2 MSTORE POP DUP2 MSTORE PUSH1 0x20 ADD PUSH1 0x40 MLOAD DUP1 PUSH1 0x40 ADD PUSH1 0x40 MSTORE DUP1 PUSH1 0x1 DUP2 MSTORE PUSH1 0x20 ADD PUSH32 0x3300000000000000000000000000000000000000000000000000000000000000 DUP2 MSTORE POP DUP2 MSTORE PUSH1 0x20 ADD PUSH1 0x40 MLOAD DUP1 PUSH1 0x40 ADD PUSH1 0x40 MSTORE DUP1 PUSH1 0xC DUP2 MSTORE PUSH1 0x20 ADD PUSH32 0x456B61746572696E627572670000000000000000000000000000000000000000 DUP2 MSTORE POP DUP2 MSTORE PUSH1 0x20 ADD PUSH2 0x3E8 DUP2 MSTORE PUSH1 0x20 ADD PUSH1 0x0 DUP2 MSTORE POP PUSH1 0x0 DUP1 PUSH20 0x4B20993BC481177EC7E8F571CECAE8A9E22C02DB PUSH20 0xFFFFFFFFFFFFFFFFFFFFFFFFFFFFFFFFFFFFFFFF AND PUSH20 0xFFFFFFFFFFFFFFFFFFFFFFFFFFFFFFFFFFFFFFFF AND DUP2 MSTORE PUSH1 0x20 ADD SWAP1 DUP2 MSTORE PUSH1 0x20 ADD PUSH1 0x0 KECCAK256 PUSH1 0x0 DUP3 ADD MLOAD DUP2 PUSH1 0x0 ADD SWAP1 DUP1 MLOAD SWAP1 PUSH1 0x20 ADD SWAP1 PUSH3 0x5A3 SWAP3 SWAP2 SWAP1 PUSH3 0x854 JUMP JUMPDEST POP PUSH1 0x20 DUP3 ADD MLOAD DUP2 PUSH1 0x1 ADD SWAP1 DUP1 MLOAD SWAP1 PUSH1 0x20 ADD SWAP1 PUSH3 0x5C2 SWAP3 SWAP2 SWAP1 PUSH3 0x854 JUMP JUMPDEST POP PUSH1 0x40 DUP3 ADD MLOAD DUP2 PUSH1 0x2 ADD SWAP1 DUP1 MLOAD SWAP1 PUSH1 0x20 ADD SWAP1 PUSH3 0x5E1 SWAP3 SWAP2 SWAP1 PUSH3 0x854 JUMP JUMPDEST POP PUSH1 0x60 DUP3 ADD MLOAD DUP2 PUSH1 0x3 ADD SSTORE PUSH1 0x80 DUP3 ADD MLOAD DUP2 PUSH1 0x4 ADD SSTORE SWAP1 POP POP PUSH1 0x2 PUSH1 0x0 DUP1 PUSH20 0x4B20993BC481177EC7E8F571CECAE8A9E22C02DB PUSH20 0xFFFFFFFFFFFFFFFFFFFFFFFFFFFFFFFFFFFFFFFF AND PUSH20 0xFFFFFFFFFFFFFFFFFFFFFFFFFFFFFFFFFFFFFFFF AND DUP2 MSTORE PUSH1 0x20 ADD SWAP1 DUP2 MSTORE PUSH1 0x20 ADD PUSH1 0x0 KECCAK256 PUSH1 0x0 ADD SWAP1 DUP1 PUSH1 0x1 DUP2 SLOAD ADD DUP1 DUP3 SSTORE DUP1 SWAP2 POP POP PUSH1 0x1 SWAP1 SUB SWAP1 PUSH1 0x0 MSTORE PUSH1 0x20 PUSH1 0x0 KECCAK256 ADD PUSH1 0x0 SWAP1 SWAP2 SWAP1 SWAP2 SWAP1 SWAP2 POP SWAP1 DUP1 SLOAD PUSH3 0x683 SWAP1 PUSH3 0x9E5 JUMP JUMPDEST PUSH3 0x690 SWAP3 SWAP2 SWAP1 PUSH3 0x8E5 JUMP JUMPDEST POP PUSH20 0x78731D3CA6B7E34AC0F824C42A7CC18A495CABAB PUSH1 0x5 PUSH1 0x40 MLOAD PUSH3 0x6B6 SWAP1 PUSH3 0x9C3 JUMP JUMPDEST SWAP1 DUP2 MSTORE PUSH1 0x20 ADD PUSH1 0x40 MLOAD DUP1 SWAP2 SUB SWAP1 KECCAK256 PUSH1 0x0 PUSH2 0x100 EXP DUP2 SLOAD DUP2 PUSH20 0xFFFFFFFFFFFFFFFFFFFFFFFFFFFFFFFFFFFFFFFF MUL NOT AND SWAP1 DUP4 PUSH20 0xFFFFFFFFFFFFFFFFFFFFFFFFFFFFFFFFFFFFFFFF AND MUL OR SWAP1 SSTORE POP PUSH1 0x40 MLOAD DUP1 PUSH1 0x60 ADD PUSH1 0x40 MSTORE DUP1 PUSH1 0x40 MLOAD DUP1 PUSH1 0x40 ADD PUSH1 0x40 MSTORE DUP1 PUSH1 0x4 DUP2 MSTORE PUSH1 0x20 ADD PUSH32 0x5065746100000000000000000000000000000000000000000000000000000000 DUP2 MSTORE POP DUP2 MSTORE PUSH1 0x20 ADD PUSH1 0x1 DUP2 MSTORE PUSH1 0x20 ADD PUSH2 0x3E8 DUP2 MSTORE POP PUSH1 0x4 PUSH1 0x0 PUSH20 0x78731D3CA6B7E34AC0F824C42A7CC18A495CABAB PUSH20 0xFFFFFFFFFFFFFFFFFFFFFFFFFFFFFFFFFFFFFFFF AND PUSH20 0xFFFFFFFFFFFFFFFFFFFFFFFFFFFFFFFFFFFFFFFF AND DUP2 MSTORE PUSH1 0x20 ADD SWAP1 DUP2 MSTORE PUSH1 0x20 ADD PUSH1 0x0 KECCAK256 PUSH1 0x0 DUP3 ADD MLOAD DUP2 PUSH1 0x0 ADD SWAP1 DUP1 MLOAD SWAP1 PUSH1 0x20 ADD SWAP1 PUSH3 0x7C6 SWAP3 SWAP2 SWAP1 PUSH3 0x854 JUMP JUMPDEST POP PUSH1 0x20 DUP3 ADD MLOAD DUP2 PUSH1 0x1 ADD SSTORE PUSH1 0x40 DUP3 ADD MLOAD DUP2 PUSH1 0x2 ADD SSTORE SWAP1 POP POP PUSH1 0x6 DUP1 PUSH1 0x1 DUP2 SLOAD ADD DUP1 DUP3 SSTORE DUP1 SWAP2 POP POP PUSH1 0x1 SWAP1 SUB SWAP1 PUSH1 0x0 MSTORE PUSH1 0x20 PUSH1 0x0 KECCAK256 ADD PUSH1 0x0 PUSH1 0x40 MLOAD DUP1 PUSH1 0x40 ADD PUSH1 0x40 MSTORE DUP1 PUSH1 0x4 DUP2 MSTORE PUSH1 0x20 ADD PUSH32 0x5065746100000000000000000000000000000000000000000000000000000000 DUP2 MSTORE POP SWAP1 SWAP2 SWAP1 SWAP2 POP SWAP1 DUP1 MLOAD SWAP1 PUSH1 0x20 ADD SWAP1 PUSH3 0x84D SWAP3 SWAP2 SWAP1 PUSH3 0x854 JUMP JUMPDEST POP PUSH3 0xA73 JUMP JUMPDEST DUP3 DUP1 SLOAD PUSH3 0x862 SWAP1 PUSH3 0x9E5 JUMP JUMPDEST SWAP1 PUSH1 0x0 MSTORE PUSH1 0x20 PUSH1 0x0 KECCAK256 SWAP1 PUSH1 0x1F ADD PUSH1 0x20 SWAP1 DIV DUP2 ADD SWAP3 DUP3 PUSH3 0x886 JUMPI PUSH1 0x0 DUP6 SSTORE PUSH3 0x8D2 JUMP JUMPDEST DUP3 PUSH1 0x1F LT PUSH3 0x8A1 JUMPI DUP1 MLOAD PUSH1 0xFF NOT AND DUP4 DUP1 ADD OR DUP6 SSTORE PUSH3 0x8D2 JUMP JUMPDEST DUP3 DUP1 ADD PUSH1 0x1 ADD DUP6 SSTORE DUP3 ISZERO PUSH3 0x8D2 JUMPI SWAP2 DUP3 ADD JUMPDEST DUP3 DUP2 GT ISZERO PUSH3 0x8D1 JUMPI DUP3 MLOAD DUP3 SSTORE SWAP2 PUSH1 0x20 ADD SWAP2 SWAP1 PUSH1 0x1 ADD SWAP1 PUSH3 0x8B4 JUMP JUMPDEST JUMPDEST POP SWAP1 POP PUSH3 0x8E1 SWAP2 SWAP1 PUSH3 0x97D JUMP JUMPDEST POP SWAP1 JUMP JUMPDEST DUP3 DUP1 SLOAD PUSH3 0x8F3 SWAP1 PUSH3 0x9E5 JUMP JUMPDEST SWAP1 PUSH1 0x0 MSTORE PUSH1 0x20 PUSH1 0x0 KECCAK256 SWAP1 PUSH1 0x1F ADD PUSH1 0x20 SWAP1 DIV DUP2 ADD SWAP3 DUP3 PUSH3 0x917 JUMPI PUSH1 0x0 DUP6 SSTORE PUSH3 0x96A JUMP JUMPDEST DUP3 PUSH1 0x1F LT PUSH3 0x92A JUMPI DUP1 SLOAD DUP6 SSTORE PUSH3 0x96A JUMP JUMPDEST DUP3 DUP1 ADD PUSH1 0x1 ADD DUP6 SSTORE DUP3 ISZERO PUSH3 0x96A JUMPI PUSH1 0x0 MSTORE PUSH1 0x20 PUSH1 0x0 KECCAK256 SWAP2 PUSH1 0x1F ADD PUSH1 0x20 SWAP1 DIV DUP3 ADD JUMPDEST DUP3 DUP2 GT ISZERO PUSH3 0x969 JUMPI DUP3 SLOAD DUP3 SSTORE SWAP2 PUSH1 0x1 ADD SWAP2 SWAP1 PUSH1 0x1 ADD SWAP1 PUSH3 0x94C JUMP JUMPDEST JUMPDEST POP SWAP1 POP PUSH3 0x979 SWAP2 SWAP1 PUSH3 0x97D JUMP JUMPDEST POP SWAP1 JUMP JUMPDEST JUMPDEST DUP1 DUP3 GT ISZERO PUSH3 0x998 JUMPI PUSH1 0x0 DUP2 PUSH1 0x0 SWAP1 SSTORE POP PUSH1 0x1 ADD PUSH3 0x97E JUMP JUMPDEST POP SWAP1 JUMP JUMPDEST PUSH1 0x0 PUSH3 0x9AB PUSH1 0x4 DUP4 PUSH3 0x9DA JUMP JUMPDEST SWAP2 POP PUSH3 0x9B8 DUP3 PUSH3 0xA4A JUMP JUMPDEST PUSH1 0x4 DUP3 ADD SWAP1 POP SWAP2 SWAP1 POP JUMP JUMPDEST PUSH1 0x0 PUSH3 0x9D0 DUP3 PUSH3 0x99C JUMP JUMPDEST SWAP2 POP DUP2 SWAP1 POP SWAP2 SWAP1 POP JUMP JUMPDEST PUSH1 0x0 DUP2 SWAP1 POP SWAP3 SWAP2 POP POP JUMP JUMPDEST PUSH1 0x0 PUSH1 0x2 DUP3 DIV SWAP1 POP PUSH1 0x1 DUP3 AND DUP1 PUSH3 0x9FE JUMPI PUSH1 0x7F DUP3 AND SWAP2 POP JUMPDEST PUSH1 0x20 DUP3 LT DUP2 EQ ISZERO PUSH3 0xA15 JUMPI PUSH3 0xA14 PUSH3 0xA1B JUMP JUMPDEST JUMPDEST POP SWAP2 SWAP1 POP JUMP JUMPDEST PUSH32 0x4E487B7100000000000000000000000000000000000000000000000000000000 PUSH1 0x0 MSTORE PUSH1 0x22 PUSH1 0x4 MSTORE PUSH1 0x24 PUSH1 0x0 REVERT JUMPDEST PUSH32 0x5065746100000000000000000000000000000000000000000000000000000000 PUSH1 0x0 DUP3 ADD MSTORE POP JUMP JUMPDEST PUSH2 0x28F4 DUP1 PUSH3 0xA83 PUSH1 0x0 CODECOPY PUSH1 0x0 RETURN INVALID PUSH1 0x80 PUSH1 0x40 MSTORE CALLVALUE DUP1 ISZERO PUSH2 0x10 JUMPI PUSH1 0x0 DUP1 REVERT JUMPDEST POP PUSH1 0x4 CALLDATASIZE LT PUSH2 0x121 JUMPI PUSH1 0x0 CALLDATALOAD PUSH1 0xE0 SHR DUP1 PUSH4 0x961865F0 GT PUSH2 0xAD JUMPI DUP1 PUSH4 0xC4957FA0 GT PUSH2 0x71 JUMPI DUP1 PUSH4 0xC4957FA0 EQ PUSH2 0x333 JUMPI DUP1 PUSH4 0xCC21C188 EQ PUSH2 0x363 JUMPI DUP1 PUSH4 0xD68CF8C1 EQ PUSH2 0x37F JUMPI DUP1 PUSH4 0xDCE39151 EQ PUSH2 0x3B2 JUMPI DUP1 PUSH4 0xF69483C1 EQ PUSH2 0x3E4 JUMPI PUSH2 0x121 JUMP JUMPDEST DUP1 PUSH4 0x961865F0 EQ PUSH2 0x265 JUMPI DUP1 PUSH4 0xA985036D EQ PUSH2 0x297 JUMPI DUP1 PUSH4 0xA9F9482B EQ PUSH2 0x2C7 JUMPI DUP1 PUSH4 0xBBD43363 EQ PUSH2 0x2F9 JUMPI DUP1 PUSH4 0xC178B9AF EQ PUSH2 0x315 JUMPI PUSH2 0x121 JUMP JUMPDEST DUP1 PUSH4 0x2CCDEF7C GT PUSH2 0xF4 JUMPI DUP1 PUSH4 0x2CCDEF7C EQ PUSH2 0x1C1 JUMPI DUP1 PUSH4 0x2D4673E3 EQ PUSH2 0x1DD JUMPI DUP1 PUSH4 0x34D2C0AD EQ PUSH2 0x1F9 JUMPI DUP1 PUSH4 0x6C05DD1D EQ PUSH2 0x217 JUMPI DUP1 PUSH4 0x7DDB273D EQ PUSH2 0x233 JUMPI PUSH2 0x121 JUMP JUMPDEST DUP1 PUSH4 0x8F4D2C6 EQ PUSH2 0x126 JUMPI DUP1 PUSH4 0xC72B1EC EQ PUSH2 0x159 JUMPI DUP1 PUSH4 0x146DC6ED EQ PUSH2 0x175 JUMPI DUP1 PUSH4 0x1BBE970A EQ PUSH2 0x191 JUMPI JUMPDEST PUSH1 0x0 DUP1 REVERT JUMPDEST PUSH2 0x140 PUSH1 0x4 DUP1 CALLDATASIZE SUB DUP2 ADD SWAP1 PUSH2 0x13B SWAP2 SWAP1 PUSH2 0x1E2C JUMP JUMPDEST PUSH2 0x400 JUMP JUMPDEST PUSH1 0x40 MLOAD PUSH2 0x150 SWAP5 SWAP4 SWAP3 SWAP2 SWAP1 PUSH2 0x231B JUMP JUMPDEST PUSH1 0x40 MLOAD DUP1 SWAP2 SUB SWAP1 RETURN JUMPDEST PUSH2 0x173 PUSH1 0x4 DUP1 CALLDATASIZE SUB DUP2 ADD SWAP1 PUSH2 0x16E SWAP2 SWAP1 PUSH2 0x1E59 JUMP JUMPDEST PUSH2 0x5D8 JUMP JUMPDEST STOP JUMPDEST PUSH2 0x18F PUSH1 0x4 DUP1 CALLDATASIZE SUB DUP2 ADD SWAP1 PUSH2 0x18A SWAP2 SWAP1 PUSH2 0x1CCD JUMP JUMPDEST PUSH2 0x8A5 JUMP JUMPDEST STOP JUMPDEST PUSH2 0x1AB PUSH1 0x4 DUP1 CALLDATASIZE SUB DUP2 ADD SWAP1 PUSH2 0x1A6 SWAP2 SWAP1 PUSH2 0x1CCD JUMP JUMPDEST PUSH2 0xA33 JUMP JUMPDEST PUSH1 0x40 MLOAD PUSH2 0x1B8 SWAP2 SWAP1 PUSH2 0x2210 JUMP JUMPDEST PUSH1 0x40 MLOAD DUP1 SWAP2 SUB SWAP1 RETURN JUMPDEST PUSH2 0x1DB PUSH1 0x4 DUP1 CALLDATASIZE SUB DUP2 ADD SWAP1 PUSH2 0x1D6 SWAP2 SWAP1 PUSH2 0x1E59 JUMP JUMPDEST PUSH2 0xA7C JUMP JUMPDEST STOP JUMPDEST PUSH2 0x1F7 PUSH1 0x4 DUP1 CALLDATASIZE SUB DUP2 ADD SWAP1 PUSH2 0x1F2 SWAP2 SWAP1 PUSH2 0x1CCD JUMP JUMPDEST PUSH2 0xC72 JUMP JUMPDEST STOP JUMPDEST PUSH2 0x201 PUSH2 0xD5A JUMP JUMPDEST PUSH1 0x40 MLOAD PUSH2 0x20E SWAP2 SWAP1 PUSH2 0x22B5 JUMP JUMPDEST PUSH1 0x40 MLOAD DUP1 SWAP2 SUB SWAP1 RETURN JUMPDEST PUSH2 0x231 PUSH1 0x4 DUP1 CALLDATASIZE SUB DUP2 ADD SWAP1 PUSH2 0x22C SWAP2 SWAP1 PUSH2 0x1DA1 JUMP JUMPDEST PUSH2 0xE33 JUMP JUMPDEST STOP JUMPDEST PUSH2 0x24D PUSH1 0x4 DUP1 CALLDATASIZE SUB DUP2 ADD SWAP1 PUSH2 0x248 SWAP2 SWAP1 PUSH2 0x1E2C JUMP JUMPDEST PUSH2 0xF5E JUMP JUMPDEST PUSH1 0x40 MLOAD PUSH2 0x25C SWAP4 SWAP3 SWAP2 SWAP1 PUSH2 0x222B JUMP JUMPDEST PUSH1 0x40 MLOAD DUP1 SWAP2 SUB SWAP1 RETURN JUMPDEST PUSH2 0x27F PUSH1 0x4 DUP1 CALLDATASIZE SUB DUP2 ADD SWAP1 PUSH2 0x27A SWAP2 SWAP1 PUSH2 0x1CA0 JUMP JUMPDEST PUSH2 0x104D JUMP JUMPDEST PUSH1 0x40 MLOAD PUSH2 0x28E SWAP4 SWAP3 SWAP2 SWAP1 PUSH2 0x2375 JUMP JUMPDEST PUSH1 0x40 MLOAD DUP1 SWAP2 SUB SWAP1 RETURN JUMPDEST PUSH2 0x2B1 PUSH1 0x4 DUP1 CALLDATASIZE SUB DUP2 ADD SWAP1 PUSH2 0x2AC SWAP2 SWAP1 PUSH2 0x1CCD JUMP JUMPDEST PUSH2 0x10FF JUMP JUMPDEST PUSH1 0x40 MLOAD PUSH2 0x2BE SWAP2 SWAP1 PUSH2 0x2413 JUMP JUMPDEST PUSH1 0x40 MLOAD DUP1 SWAP2 SUB SWAP1 RETURN JUMPDEST PUSH2 0x2E1 PUSH1 0x4 DUP1 CALLDATASIZE SUB DUP2 ADD SWAP1 PUSH2 0x2DC SWAP2 SWAP1 PUSH2 0x1E2C JUMP JUMPDEST PUSH2 0x11C4 JUMP JUMPDEST PUSH1 0x40 MLOAD PUSH2 0x2F0 SWAP4 SWAP3 SWAP2 SWAP1 PUSH2 0x222B JUMP JUMPDEST PUSH1 0x40 MLOAD DUP1 SWAP2 SUB SWAP1 RETURN JUMPDEST PUSH2 0x313 PUSH1 0x4 DUP1 CALLDATASIZE SUB DUP2 ADD SWAP1 PUSH2 0x30E SWAP2 SWAP1 PUSH2 0x1CCD JUMP JUMPDEST PUSH2 0x12B3 JUMP JUMPDEST STOP JUMPDEST PUSH2 0x31D PUSH2 0x139B JUMP JUMPDEST PUSH1 0x40 MLOAD PUSH2 0x32A SWAP2 SWAP1 PUSH2 0x22B5 JUMP JUMPDEST PUSH1 0x40 MLOAD DUP1 SWAP2 SUB SWAP1 RETURN JUMPDEST PUSH2 0x34D PUSH1 0x4 DUP1 CALLDATASIZE SUB DUP2 ADD SWAP1 PUSH2 0x348 SWAP2 SWAP1 PUSH2 0x1CCD JUMP JUMPDEST PUSH2 0x1474 JUMP JUMPDEST PUSH1 0x40 MLOAD PUSH2 0x35A SWAP2 SWAP1 PUSH2 0x2210 JUMP JUMPDEST PUSH1 0x40 MLOAD DUP1 SWAP2 SUB SWAP1 RETURN JUMPDEST PUSH2 0x37D PUSH1 0x4 DUP1 CALLDATASIZE SUB DUP2 ADD SWAP1 PUSH2 0x378 SWAP2 SWAP1 PUSH2 0x1D16 JUMP JUMPDEST PUSH2 0x14BD JUMP JUMPDEST STOP JUMPDEST PUSH2 0x399 PUSH1 0x4 DUP1 CALLDATASIZE SUB DUP2 ADD SWAP1 PUSH2 0x394 SWAP2 SWAP1 PUSH2 0x1CCD JUMP JUMPDEST PUSH2 0x16B7 JUMP JUMPDEST PUSH1 0x40 MLOAD PUSH2 0x3A9 SWAP5 SWAP4 SWAP3 SWAP2 SWAP1 PUSH2 0x2269 JUMP JUMPDEST PUSH1 0x40 MLOAD DUP1 SWAP2 SUB SWAP1 RETURN JUMPDEST PUSH2 0x3CC PUSH1 0x4 DUP1 CALLDATASIZE SUB DUP2 ADD SWAP1 PUSH2 0x3C7 SWAP2 SWAP1 PUSH2 0x1E2C JUMP JUMPDEST PUSH2 0x17A5 JUMP JUMPDEST PUSH1 0x40 MLOAD PUSH2 0x3DB SWAP4 SWAP3 SWAP2 SWAP1 PUSH2 0x222B JUMP JUMPDEST PUSH1 0x40 MLOAD DUP1 SWAP2 SUB SWAP1 RETURN JUMPDEST PUSH2 0x3FE PUSH1 0x4 DUP1 CALLDATASIZE SUB DUP2 ADD SWAP1 PUSH2 0x3F9 SWAP2 SWAP1 PUSH2 0x1E59 JUMP JUMPDEST PUSH2 0x1894 JUMP JUMPDEST STOP JUMPDEST PUSH1 0x3 DUP2 DUP2 SLOAD DUP2 LT PUSH2 0x410 JUMPI PUSH1 0x0 DUP1 REVERT JUMPDEST SWAP1 PUSH1 0x0 MSTORE PUSH1 0x20 PUSH1 0x0 KECCAK256 SWAP1 PUSH1 0x5 MUL ADD PUSH1 0x0 SWAP2 POP SWAP1 POP DUP1 PUSH1 0x0 ADD DUP1 SLOAD PUSH2 0x433 SWAP1 PUSH2 0x264B JUMP JUMPDEST DUP1 PUSH1 0x1F ADD PUSH1 0x20 DUP1 SWAP2 DIV MUL PUSH1 0x20 ADD PUSH1 0x40 MLOAD SWAP1 DUP2 ADD PUSH1 0x40 MSTORE DUP1 SWAP3 SWAP2 SWAP1 DUP2 DUP2 MSTORE PUSH1 0x20 ADD DUP3 DUP1 SLOAD PUSH2 0x45F SWAP1 PUSH2 0x264B JUMP JUMPDEST DUP1 ISZERO PUSH2 0x4AC JUMPI DUP1 PUSH1 0x1F LT PUSH2 0x481 JUMPI PUSH2 0x100 DUP1 DUP4 SLOAD DIV MUL DUP4 MSTORE SWAP2 PUSH1 0x20 ADD SWAP2 PUSH2 0x4AC JUMP JUMPDEST DUP3 ADD SWAP2 SWAP1 PUSH1 0x0 MSTORE PUSH1 0x20 PUSH1 0x0 KECCAK256 SWAP1 JUMPDEST DUP2 SLOAD DUP2 MSTORE SWAP1 PUSH1 0x1 ADD SWAP1 PUSH1 0x20 ADD DUP1 DUP4 GT PUSH2 0x48F JUMPI DUP3 SWAP1 SUB PUSH1 0x1F AND DUP3 ADD SWAP2 JUMPDEST POP POP POP POP POP SWAP1 DUP1 PUSH1 0x1 ADD DUP1 SLOAD PUSH2 0x4C1 SWAP1 PUSH2 0x264B JUMP JUMPDEST DUP1 PUSH1 0x1F ADD PUSH1 0x20 DUP1 SWAP2 DIV MUL PUSH1 0x20 ADD PUSH1 0x40 MLOAD SWAP1 DUP2 ADD PUSH1 0x40 MSTORE DUP1 SWAP3 SWAP2 SWAP1 DUP2 DUP2 MSTORE PUSH1 0x20 ADD DUP3 DUP1 SLOAD PUSH2 0x4ED SWAP1 PUSH2 0x264B JUMP JUMPDEST DUP1 ISZERO PUSH2 0x53A JUMPI DUP1 PUSH1 0x1F LT PUSH2 0x50F JUMPI PUSH2 0x100 DUP1 DUP4 SLOAD DIV MUL DUP4 MSTORE SWAP2 PUSH1 0x20 ADD SWAP2 PUSH2 0x53A JUMP JUMPDEST DUP3 ADD SWAP2 SWAP1 PUSH1 0x0 MSTORE PUSH1 0x20 PUSH1 0x0 KECCAK256 SWAP1 JUMPDEST DUP2 SLOAD DUP2 MSTORE SWAP1 PUSH1 0x1 ADD SWAP1 PUSH1 0x20 ADD DUP1 DUP4 GT PUSH2 0x51D JUMPI DUP3 SWAP1 SUB PUSH1 0x1F AND DUP3 ADD SWAP2 JUMPDEST POP POP POP POP POP SWAP1 DUP1 PUSH1 0x2 ADD DUP1 SLOAD PUSH2 0x54F SWAP1 PUSH2 0x264B JUMP JUMPDEST DUP1 PUSH1 0x1F ADD PUSH1 0x20 DUP1 SWAP2 DIV MUL PUSH1 0x20 ADD PUSH1 0x40 MLOAD SWAP1 DUP2 ADD PUSH1 0x40 MSTORE DUP1 SWAP3 SWAP2 SWAP1 DUP2 DUP2 MSTORE PUSH1 0x20 ADD DUP3 DUP1 SLOAD PUSH2 0x57B SWAP1 PUSH2 0x264B JUMP JUMPDEST DUP1 ISZERO PUSH2 0x5C8 JUMPI DUP1 PUSH1 0x1F LT PUSH2 0x59D JUMPI PUSH2 0x100 DUP1 DUP4 SLOAD DIV MUL DUP4 MSTORE SWAP2 PUSH1 0x20 ADD SWAP2 PUSH2 0x5C8 JUMP JUMPDEST DUP3 ADD SWAP2 SWAP1 PUSH1 0x0 MSTORE PUSH1 0x20 PUSH1 0x0 KECCAK256 SWAP1 JUMPDEST DUP2 SLOAD DUP2 MSTORE SWAP1 PUSH1 0x1 ADD SWAP1 PUSH1 0x20 ADD DUP1 DUP4 GT PUSH2 0x5AB JUMPI DUP3 SWAP1 SUB PUSH1 0x1F AND DUP3 ADD SWAP2 JUMPDEST POP POP POP POP POP SWAP1 DUP1 PUSH1 0x3 ADD SLOAD SWAP1 POP DUP5 JUMP JUMPDEST PUSH1 0x1 ISZERO ISZERO DUP2 ISZERO ISZERO EQ ISZERO PUSH2 0x862 JUMPI PUSH1 0x0 PUSH1 0x9 DUP4 DUP2 SLOAD DUP2 LT PUSH2 0x5FB JUMPI PUSH2 0x5FA PUSH2 0x2755 JUMP JUMPDEST JUMPDEST SWAP1 PUSH1 0x0 MSTORE PUSH1 0x20 PUSH1 0x0 KECCAK256 SWAP1 PUSH1 0x3 MUL ADD PUSH1 0x2 ADD PUSH1 0x0 PUSH2 0x100 EXP DUP2 SLOAD DUP2 PUSH1 0xFF MUL NOT AND SWAP1 DUP4 ISZERO ISZERO MUL OR SWAP1 SSTORE POP PUSH1 0x7 PUSH1 0x9 DUP4 DUP2 SLOAD DUP2 LT PUSH2 0x639 JUMPI PUSH2 0x638 PUSH2 0x2755 JUMP JUMPDEST JUMPDEST SWAP1 PUSH1 0x0 MSTORE PUSH1 0x20 PUSH1 0x0 KECCAK256 SWAP1 PUSH1 0x3 MUL ADD PUSH1 0x1 ADD PUSH1 0x40 MLOAD PUSH2 0x657 SWAP2 SWAP1 PUSH2 0x21F9 JUMP JUMPDEST SWAP1 DUP2 MSTORE PUSH1 0x20 ADD PUSH1 0x40 MLOAD DUP1 SWAP2 SUB SWAP1 KECCAK256 PUSH1 0x2 ADD SLOAD PUSH1 0x4 PUSH1 0x0 PUSH1 0x9 DUP6 DUP2 SLOAD DUP2 LT PUSH2 0x681 JUMPI PUSH2 0x680 PUSH2 0x2755 JUMP JUMPDEST JUMPDEST SWAP1 PUSH1 0x0 MSTORE PUSH1 0x20 PUSH1 0x0 KECCAK256 SWAP1 PUSH1 0x3 MUL ADD PUSH1 0x0 ADD PUSH1 0x0 SWAP1 SLOAD SWAP1 PUSH2 0x100 EXP SWAP1 DIV PUSH20 0xFFFFFFFFFFFFFFFFFFFFFFFFFFFFFFFFFFFFFFFF AND PUSH20 0xFFFFFFFFFFFFFFFFFFFFFFFFFFFFFFFFFFFFFFFF AND PUSH20 0xFFFFFFFFFFFFFFFFFFFFFFFFFFFFFFFFFFFFFFFF AND DUP2 MSTORE PUSH1 0x20 ADD SWAP1 DUP2 MSTORE PUSH1 0x20 ADD PUSH1 0x0 KECCAK256 PUSH1 0x2 ADD SLOAD PUSH2 0x6FB SWAP2 SWAP1 PUSH2 0x258D JUMP JUMPDEST PUSH1 0x4 PUSH1 0x0 PUSH1 0x9 DUP6 DUP2 SLOAD DUP2 LT PUSH2 0x713 JUMPI PUSH2 0x712 PUSH2 0x2755 JUMP JUMPDEST JUMPDEST SWAP1 PUSH1 0x0 MSTORE PUSH1 0x20 PUSH1 0x0 KECCAK256 SWAP1 PUSH1 0x3 MUL ADD PUSH1 0x0 ADD PUSH1 0x0 SWAP1 SLOAD SWAP1 PUSH2 0x100 EXP SWAP1 DIV PUSH20 0xFFFFFFFFFFFFFFFFFFFFFFFFFFFFFFFFFFFFFFFF AND PUSH20 0xFFFFFFFFFFFFFFFFFFFFFFFFFFFFFFFFFFFFFFFF AND PUSH20 0xFFFFFFFFFFFFFFFFFFFFFFFFFFFFFFFFFFFFFFFF AND DUP2 MSTORE PUSH1 0x20 ADD SWAP1 DUP2 MSTORE PUSH1 0x20 ADD PUSH1 0x0 KECCAK256 PUSH1 0x2 ADD DUP2 SWAP1 SSTORE POP PUSH1 0x7 PUSH1 0x9 DUP4 DUP2 SLOAD DUP2 LT PUSH2 0x79C JUMPI PUSH2 0x79B PUSH2 0x2755 JUMP JUMPDEST JUMPDEST SWAP1 PUSH1 0x0 MSTORE PUSH1 0x20 PUSH1 0x0 KECCAK256 SWAP1 PUSH1 0x3 MUL ADD PUSH1 0x1 ADD PUSH1 0x40 MLOAD PUSH2 0x7BA SWAP2 SWAP1 PUSH2 0x21F9 JUMP JUMPDEST SWAP1 DUP2 MSTORE PUSH1 0x20 ADD PUSH1 0x40 MLOAD DUP1 SWAP2 SUB SWAP1 KECCAK256 PUSH1 0x2 ADD SLOAD PUSH1 0x0 DUP1 CALLER PUSH20 0xFFFFFFFFFFFFFFFFFFFFFFFFFFFFFFFFFFFFFFFF AND PUSH20 0xFFFFFFFFFFFFFFFFFFFFFFFFFFFFFFFFFFFFFFFF AND DUP2 MSTORE PUSH1 0x20 ADD SWAP1 DUP2 MSTORE PUSH1 0x20 ADD PUSH1 0x0 KECCAK256 PUSH1 0x3 ADD SLOAD PUSH2 0x818 SWAP2 SWAP1 PUSH2 0x2537 JUMP JUMPDEST PUSH1 0x0 DUP1 CALLER PUSH20 0xFFFFFFFFFFFFFFFFFFFFFFFFFFFFFFFFFFFFFFFF AND PUSH20 0xFFFFFFFFFFFFFFFFFFFFFFFFFFFFFFFFFFFFFFFF AND DUP2 MSTORE PUSH1 0x20 ADD SWAP1 DUP2 MSTORE PUSH1 0x20 ADD PUSH1 0x0 KECCAK256 PUSH1 0x3 ADD DUP2 SWAP1 SSTORE POP PUSH2 0x8A1 JUMP JUMPDEST PUSH1 0x0 PUSH1 0x9 DUP4 DUP2 SLOAD DUP2 LT PUSH2 0x878 JUMPI PUSH2 0x877 PUSH2 0x2755 JUMP JUMPDEST JUMPDEST SWAP1 PUSH1 0x0 MSTORE PUSH1 0x20 PUSH1 0x0 KECCAK256 SWAP1 PUSH1 0x3 MUL ADD PUSH1 0x2 ADD PUSH1 0x0 PUSH2 0x100 EXP DUP2 SLOAD DUP2 PUSH1 0xFF MUL NOT AND SWAP1 DUP4 ISZERO ISZERO MUL OR SWAP1 SSTORE POP JUMPDEST POP POP JUMP JUMPDEST PUSH1 0x7 DUP2 PUSH1 0x40 MLOAD PUSH2 0x8B5 SWAP2 SWAP1 PUSH2 0x21E2 JUMP JUMPDEST SWAP1 DUP2 MSTORE PUSH1 0x20 ADD PUSH1 0x40 MLOAD DUP1 SWAP2 SUB SWAP1 KECCAK256 PUSH1 0x2 ADD SLOAD PUSH1 0x4 PUSH1 0x0 CALLER PUSH20 0xFFFFFFFFFFFFFFFFFFFFFFFFFFFFFFFFFFFFFFFF AND PUSH20 0xFFFFFFFFFFFFFFFFFFFFFFFFFFFFFFFFFFFFFFFF AND DUP2 MSTORE PUSH1 0x20 ADD SWAP1 DUP2 MSTORE PUSH1 0x20 ADD PUSH1 0x0 KECCAK256 PUSH1 0x2 ADD SLOAD LT ISZERO PUSH2 0x94B JUMPI PUSH1 0x40 MLOAD PUSH32 0x8C379A000000000000000000000000000000000000000000000000000000000 DUP2 MSTORE PUSH1 0x4 ADD PUSH2 0x942 SWAP1 PUSH2 0x23D3 JUMP JUMPDEST PUSH1 0x40 MLOAD DUP1 SWAP2 SUB SWAP1 REVERT JUMPDEST PUSH1 0x9 PUSH1 0x40 MLOAD DUP1 PUSH1 0x60 ADD PUSH1 0x40 MSTORE DUP1 CALLER PUSH20 0xFFFFFFFFFFFFFFFFFFFFFFFFFFFFFFFFFFFFFFFF AND DUP2 MSTORE PUSH1 0x20 ADD DUP4 DUP2 MSTORE PUSH1 0x20 ADD PUSH1 0x1 ISZERO ISZERO DUP2 MSTORE POP SWAP1 DUP1 PUSH1 0x1 DUP2 SLOAD ADD DUP1 DUP3 SSTORE DUP1 SWAP2 POP POP PUSH1 0x1 SWAP1 SUB SWAP1 PUSH1 0x0 MSTORE PUSH1 0x20 PUSH1 0x0 KECCAK256 SWAP1 PUSH1 0x3 MUL ADD PUSH1 0x0 SWAP1 SWAP2 SWAP1 SWAP2 SWAP1 SWAP2 POP PUSH1 0x0 DUP3 ADD MLOAD DUP2 PUSH1 0x0 ADD PUSH1 0x0 PUSH2 0x100 EXP DUP2 SLOAD DUP2 PUSH20 0xFFFFFFFFFFFFFFFFFFFFFFFFFFFFFFFFFFFFFFFF MUL NOT AND SWAP1 DUP4 PUSH20 0xFFFFFFFFFFFFFFFFFFFFFFFFFFFFFFFFFFFFFFFF AND MUL OR SWAP1 SSTORE POP PUSH1 0x20 DUP3 ADD MLOAD DUP2 PUSH1 0x1 ADD SWAP1 DUP1 MLOAD SWAP1 PUSH1 0x20 ADD SWAP1 PUSH2 0xA0D SWAP3 SWAP2 SWAP1 PUSH2 0x1A8A JUMP JUMPDEST POP PUSH1 0x40 DUP3 ADD MLOAD DUP2 PUSH1 0x2 ADD PUSH1 0x0 PUSH2 0x100 EXP DUP2 SLOAD DUP2 PUSH1 0xFF MUL NOT AND SWAP1 DUP4 ISZERO ISZERO MUL OR SWAP1 SSTORE POP POP POP POP JUMP JUMPDEST PUSH1 0x5 DUP2 DUP1 MLOAD PUSH1 0x20 DUP2 ADD DUP3 ADD DUP1 MLOAD DUP5 DUP3 MSTORE PUSH1 0x20 DUP4 ADD PUSH1 0x20 DUP6 ADD KECCAK256 DUP2 DUP4 MSTORE DUP1 SWAP6 POP POP POP POP POP POP PUSH1 0x0 SWAP2 POP SLOAD SWAP1 PUSH2 0x100 EXP SWAP1 DIV PUSH20 0xFFFFFFFFFFFFFFFFFFFFFFFFFFFFFFFFFFFFFFFF AND DUP2 JUMP JUMPDEST PUSH1 0x1 ISZERO ISZERO DUP2 ISZERO ISZERO EQ ISZERO PUSH2 0xC2F JUMPI PUSH1 0x0 PUSH1 0xA DUP4 DUP2 SLOAD DUP2 LT PUSH2 0xA9F JUMPI PUSH2 0xA9E PUSH2 0x2755 JUMP JUMPDEST JUMPDEST SWAP1 PUSH1 0x0 MSTORE PUSH1 0x20 PUSH1 0x0 KECCAK256 SWAP1 PUSH1 0x3 MUL ADD PUSH1 0x2 ADD PUSH1 0x0 PUSH2 0x100 EXP DUP2 SLOAD DUP2 PUSH1 0xFF MUL NOT AND SWAP1 DUP4 ISZERO ISZERO MUL OR SWAP1 SSTORE POP PUSH1 0x7 PUSH1 0xA DUP4 DUP2 SLOAD DUP2 LT PUSH2 0xADD JUMPI PUSH2 0xADC PUSH2 0x2755 JUMP JUMPDEST JUMPDEST SWAP1 PUSH1 0x0 MSTORE PUSH1 0x20 PUSH1 0x0 KECCAK256 SWAP1 PUSH1 0x3 MUL ADD PUSH1 0x1 ADD PUSH1 0x40 MLOAD PUSH2 0xAFB SWAP2 SWAP1 PUSH2 0x21F9 JUMP JUMPDEST SWAP1 DUP2 MSTORE PUSH1 0x20 ADD PUSH1 0x40 MLOAD DUP1 SWAP2 SUB SWAP1 KECCAK256 PUSH1 0x2 ADD SLOAD PUSH1 0x4 PUSH1 0x0 PUSH1 0xA DUP6 DUP2 SLOAD DUP2 LT PUSH2 0xB25 JUMPI PUSH2 0xB24 PUSH2 0x2755 JUMP JUMPDEST JUMPDEST SWAP1 PUSH1 0x0 MSTORE PUSH1 0x20 PUSH1 0x0 KECCAK256 SWAP1 PUSH1 0x3 MUL ADD PUSH1 0x0 ADD PUSH1 0x0 SWAP1 SLOAD SWAP1 PUSH2 0x100 EXP SWAP1 DIV PUSH20 0xFFFFFFFFFFFFFFFFFFFFFFFFFFFFFFFFFFFFFFFF AND PUSH20 0xFFFFFFFFFFFFFFFFFFFFFFFFFFFFFFFFFFFFFFFF AND PUSH20 0xFFFFFFFFFFFFFFFFFFFFFFFFFFFFFFFFFFFFFFFF AND DUP2 MSTORE PUSH1 0x20 ADD SWAP1 DUP2 MSTORE PUSH1 0x20 ADD PUSH1 0x0 KECCAK256 PUSH1 0x2 ADD SLOAD PUSH2 0xB9F SWAP2 SWAP1 PUSH2 0x2537 JUMP JUMPDEST PUSH1 0x4 PUSH1 0x0 PUSH1 0xA DUP6 DUP2 SLOAD DUP2 LT PUSH2 0xBB7 JUMPI PUSH2 0xBB6 PUSH2 0x2755 JUMP JUMPDEST JUMPDEST SWAP1 PUSH1 0x0 MSTORE PUSH1 0x20 PUSH1 0x0 KECCAK256 SWAP1 PUSH1 0x3 MUL ADD PUSH1 0x0 ADD PUSH1 0x0 SWAP1 SLOAD SWAP1 PUSH2 0x100 EXP SWAP1 DIV PUSH20 0xFFFFFFFFFFFFFFFFFFFFFFFFFFFFFFFFFFFFFFFF AND PUSH20 0xFFFFFFFFFFFFFFFFFFFFFFFFFFFFFFFFFFFFFFFF AND PUSH20 0xFFFFFFFFFFFFFFFFFFFFFFFFFFFFFFFFFFFFFFFF AND DUP2 MSTORE PUSH1 0x20 ADD SWAP1 DUP2 MSTORE PUSH1 0x20 ADD PUSH1 0x0 KECCAK256 PUSH1 0x2 ADD DUP2 SWAP1 SSTORE POP PUSH2 0xC6E JUMP JUMPDEST PUSH1 0x0 PUSH1 0xA DUP4 DUP2 SLOAD DUP2 LT PUSH2 0xC45 JUMPI PUSH2 0xC44 PUSH2 0x2755 JUMP JUMPDEST JUMPDEST SWAP1 PUSH1 0x0 MSTORE PUSH1 0x20 PUSH1 0x0 KECCAK256 SWAP1 PUSH1 0x3 MUL ADD PUSH1 0x2 ADD PUSH1 0x0 PUSH2 0x100 EXP DUP2 SLOAD DUP2 PUSH1 0xFF MUL NOT AND SWAP1 DUP4 ISZERO ISZERO MUL OR SWAP1 SSTORE POP JUMPDEST POP POP JUMP JUMPDEST PUSH1 0xB PUSH1 0x40 MLOAD DUP1 PUSH1 0x60 ADD PUSH1 0x40 MSTORE DUP1 CALLER PUSH20 0xFFFFFFFFFFFFFFFFFFFFFFFFFFFFFFFFFFFFFFFF AND DUP2 MSTORE PUSH1 0x20 ADD DUP4 DUP2 MSTORE PUSH1 0x20 ADD PUSH1 0x1 ISZERO ISZERO DUP2 MSTORE POP SWAP1 DUP1 PUSH1 0x1 DUP2 SLOAD ADD DUP1 DUP3 SSTORE DUP1 SWAP2 POP POP PUSH1 0x1 SWAP1 SUB SWAP1 PUSH1 0x0 MSTORE PUSH1 0x20 PUSH1 0x0 KECCAK256 SWAP1 PUSH1 0x3 MUL ADD PUSH1 0x0 SWAP1 SWAP2 SWAP1 SWAP2 SWAP1 SWAP2 POP PUSH1 0x0 DUP3 ADD MLOAD DUP2 PUSH1 0x0 ADD PUSH1 0x0 PUSH2 0x100 EXP DUP2 SLOAD DUP2 PUSH20 0xFFFFFFFFFFFFFFFFFFFFFFFFFFFFFFFFFFFFFFFF MUL NOT AND SWAP1 DUP4 PUSH20 0xFFFFFFFFFFFFFFFFFFFFFFFFFFFFFFFFFFFFFFFF AND MUL OR SWAP1 SSTORE POP PUSH1 0x20 DUP3 ADD MLOAD DUP2 PUSH1 0x1 ADD SWAP1 DUP1 MLOAD SWAP1 PUSH1 0x20 ADD SWAP1 PUSH2 0xD34 SWAP3 SWAP2 SWAP1 PUSH2 0x1A8A JUMP JUMPDEST POP PUSH1 0x40 DUP3 ADD MLOAD DUP2 PUSH1 0x2 ADD PUSH1 0x0 PUSH2 0x100 EXP DUP2 SLOAD DUP2 PUSH1 0xFF MUL NOT AND SWAP1 DUP4 ISZERO ISZERO MUL OR SWAP1 SSTORE POP POP POP POP JUMP JUMPDEST PUSH1 0x60 PUSH1 0x8 DUP1 SLOAD DUP1 PUSH1 0x20 MUL PUSH1 0x20 ADD PUSH1 0x40 MLOAD SWAP1 DUP2 ADD PUSH1 0x40 MSTORE DUP1 SWAP3 SWAP2 SWAP1 DUP2 DUP2 MSTORE PUSH1 0x20 ADD PUSH1 0x0 SWAP1 JUMPDEST DUP3 DUP3 LT ISZERO PUSH2 0xE2A JUMPI DUP4 DUP3 SWAP1 PUSH1 0x0 MSTORE PUSH1 0x20 PUSH1 0x0 KECCAK256 ADD DUP1 SLOAD PUSH2 0xD9D SWAP1 PUSH2 0x264B JUMP JUMPDEST DUP1 PUSH1 0x1F ADD PUSH1 0x20 DUP1 SWAP2 DIV MUL PUSH1 0x20 ADD PUSH1 0x40 MLOAD SWAP1 DUP2 ADD PUSH1 0x40 MSTORE DUP1 SWAP3 SWAP2 SWAP1 DUP2 DUP2 MSTORE PUSH1 0x20 ADD DUP3 DUP1 SLOAD PUSH2 0xDC9 SWAP1 PUSH2 0x264B JUMP JUMPDEST DUP1 ISZERO PUSH2 0xE16 JUMPI DUP1 PUSH1 0x1F LT PUSH2 0xDEB JUMPI PUSH2 0x100 DUP1 DUP4 SLOAD DIV MUL DUP4 MSTORE SWAP2 PUSH1 0x20 ADD SWAP2 PUSH2 0xE16 JUMP JUMPDEST DUP3 ADD SWAP2 SWAP1 PUSH1 0x0 MSTORE PUSH1 0x20 PUSH1 0x0 KECCAK256 SWAP1 JUMPDEST DUP2 SLOAD DUP2 MSTORE SWAP1 PUSH1 0x1 ADD SWAP1 PUSH1 0x20 ADD DUP1 DUP4 GT PUSH2 0xDF9 JUMPI DUP3 SWAP1 SUB PUSH1 0x1F AND DUP3 ADD SWAP2 JUMPDEST POP POP POP POP POP DUP2 MSTORE PUSH1 0x20 ADD SWAP1 PUSH1 0x1 ADD SWAP1 PUSH2 0xD7E JUMP JUMPDEST POP POP POP POP SWAP1 POP SWAP1 JUMP JUMPDEST PUSH1 0x40 MLOAD DUP1 PUSH1 0x80 ADD PUSH1 0x40 MSTORE DUP1 CALLER PUSH20 0xFFFFFFFFFFFFFFFFFFFFFFFFFFFFFFFFFFFFFFFF AND DUP2 MSTORE PUSH1 0x20 ADD DUP3 DUP2 MSTORE PUSH1 0x20 ADD DUP4 DUP2 MSTORE PUSH1 0x20 ADD PUSH1 0xC SLOAD DUP2 MSTORE POP PUSH1 0x7 DUP5 PUSH1 0x40 MLOAD PUSH2 0xE7C SWAP2 SWAP1 PUSH2 0x21E2 JUMP JUMPDEST SWAP1 DUP2 MSTORE PUSH1 0x20 ADD PUSH1 0x40 MLOAD DUP1 SWAP2 SUB SWAP1 KECCAK256 PUSH1 0x0 DUP3 ADD MLOAD DUP2 PUSH1 0x0 ADD PUSH1 0x0 PUSH2 0x100 EXP DUP2 SLOAD DUP2 PUSH20 0xFFFFFFFFFFFFFFFFFFFFFFFFFFFFFFFFFFFFFFFF MUL NOT AND SWAP1 DUP4 PUSH20 0xFFFFFFFFFFFFFFFFFFFFFFFFFFFFFFFFFFFFFFFF AND MUL OR SWAP1 SSTORE POP PUSH1 0x20 DUP3 ADD MLOAD DUP2 PUSH1 0x1 ADD SWAP1 DUP1 MLOAD SWAP1 PUSH1 0x20 ADD SWAP1 PUSH2 0xEED SWAP3 SWAP2 SWAP1 PUSH2 0x1A8A JUMP JUMPDEST POP PUSH1 0x40 DUP3 ADD MLOAD DUP2 PUSH1 0x2 ADD SSTORE PUSH1 0x60 DUP3 ADD MLOAD DUP2 PUSH1 0x3 ADD SSTORE SWAP1 POP POP PUSH1 0x8 DUP4 SWAP1 DUP1 PUSH1 0x1 DUP2 SLOAD ADD DUP1 DUP3 SSTORE DUP1 SWAP2 POP POP PUSH1 0x1 SWAP1 SUB SWAP1 PUSH1 0x0 MSTORE PUSH1 0x20 PUSH1 0x0 KECCAK256 ADD PUSH1 0x0 SWAP1 SWAP2 SWAP1 SWAP2 SWAP1 SWAP2 POP SWAP1 DUP1 MLOAD SWAP1 PUSH1 0x20 ADD SWAP1 PUSH2 0xF40 SWAP3 SWAP2 SWAP1 PUSH2 0x1A8A JUMP JUMPDEST POP PUSH1 0xC PUSH1 0x0 DUP2 SLOAD DUP1 SWAP3 SWAP2 SWAP1 PUSH2 0xF54 SWAP1 PUSH2 0x26AE JUMP JUMPDEST SWAP2 SWAP1 POP SSTORE POP POP POP POP JUMP JUMPDEST PUSH1 0xB DUP2 DUP2 SLOAD DUP2 LT PUSH2 0xF6E JUMPI PUSH1 0x0 DUP1 REVERT JUMPDEST SWAP1 PUSH1 0x0 MSTORE PUSH1 0x20 PUSH1 0x0 KECCAK256 SWAP1 PUSH1 0x3 MUL ADD PUSH1 0x0 SWAP2 POP SWAP1 POP DUP1 PUSH1 0x0 ADD PUSH1 0x0 SWAP1 SLOAD SWAP1 PUSH2 0x100 EXP SWAP1 DIV PUSH20 0xFFFFFFFFFFFFFFFFFFFFFFFFFFFFFFFFFFFFFFFF AND SWAP1 DUP1 PUSH1 0x1 ADD DUP1 SLOAD PUSH2 0xFB7 SWAP1 PUSH2 0x264B JUMP JUMPDEST DUP1 PUSH1 0x1F ADD PUSH1 0x20 DUP1 SWAP2 DIV MUL PUSH1 0x20 ADD PUSH1 0x40 MLOAD SWAP1 DUP2 ADD PUSH1 0x40 MSTORE DUP1 SWAP3 SWAP2 SWAP1 DUP2 DUP2 MSTORE PUSH1 0x20 ADD DUP3 DUP1 SLOAD PUSH2 0xFE3 SWAP1 PUSH2 0x264B JUMP JUMPDEST DUP1 ISZERO PUSH2 0x1030 JUMPI DUP1 PUSH1 0x1F LT PUSH2 0x1005 JUMPI PUSH2 0x100 DUP1 DUP4 SLOAD DIV MUL DUP4 MSTORE SWAP2 PUSH1 0x20 ADD SWAP2 PUSH2 0x1030 JUMP JUMPDEST DUP3 ADD SWAP2 SWAP1 PUSH1 0x0 MSTORE PUSH1 0x20 PUSH1 0x0 KECCAK256 SWAP1 JUMPDEST DUP2 SLOAD DUP2 MSTORE SWAP1 PUSH1 0x1 ADD SWAP1 PUSH1 0x20 ADD DUP1 DUP4 GT PUSH2 0x1013 JUMPI DUP3 SWAP1 SUB PUSH1 0x1F AND DUP3 ADD SWAP2 JUMPDEST POP POP POP POP POP SWAP1 DUP1 PUSH1 0x2 ADD PUSH1 0x0 SWAP1 SLOAD SWAP1 PUSH2 0x100 EXP SWAP1 DIV PUSH1 0xFF AND SWAP1 POP DUP4 JUMP JUMPDEST PUSH1 0x4 PUSH1 0x20 MSTORE DUP1 PUSH1 0x0 MSTORE PUSH1 0x40 PUSH1 0x0 KECCAK256 PUSH1 0x0 SWAP2 POP SWAP1 POP DUP1 PUSH1 0x0 ADD DUP1 SLOAD PUSH2 0x1070 SWAP1 PUSH2 0x264B JUMP JUMPDEST DUP1 PUSH1 0x1F ADD PUSH1 0x20 DUP1 SWAP2 DIV MUL PUSH1 0x20 ADD PUSH1 0x40 MLOAD SWAP1 DUP2 ADD PUSH1 0x40 MSTORE DUP1 SWAP3 SWAP2 SWAP1 DUP2 DUP2 MSTORE PUSH1 0x20 ADD DUP3 DUP1 SLOAD PUSH2 0x109C SWAP1 PUSH2 0x264B JUMP JUMPDEST DUP1 ISZERO PUSH2 0x10E9 JUMPI DUP1 PUSH1 0x1F LT PUSH2 0x10BE JUMPI PUSH2 0x100 DUP1 DUP4 SLOAD DIV MUL DUP4 MSTORE SWAP2 PUSH1 0x20 ADD SWAP2 PUSH2 0x10E9 JUMP JUMPDEST DUP3 ADD SWAP2 SWAP1 PUSH1 0x0 MSTORE PUSH1 0x20 PUSH1 0x0 KECCAK256 SWAP1 JUMPDEST DUP2 SLOAD DUP2 MSTORE SWAP1 PUSH1 0x1 ADD SWAP1 PUSH1 0x20 ADD DUP1 DUP4 GT PUSH2 0x10CC JUMPI DUP3 SWAP1 SUB PUSH1 0x1F AND DUP3 ADD SWAP2 JUMPDEST POP POP POP POP POP SWAP1 DUP1 PUSH1 0x1 ADD SLOAD SWAP1 DUP1 PUSH1 0x2 ADD SLOAD SWAP1 POP DUP4 JUMP JUMPDEST PUSH1 0x0 PUSH1 0x2 PUSH1 0x40 MLOAD PUSH1 0x20 ADD PUSH2 0x1113 SWAP2 SWAP1 PUSH2 0x22D7 JUMP JUMPDEST PUSH1 0x40 MLOAD PUSH1 0x20 DUP2 DUP4 SUB SUB DUP2 MSTORE SWAP1 PUSH1 0x40 MSTORE DUP1 MLOAD SWAP1 PUSH1 0x20 ADD KECCAK256 DUP3 PUSH1 0x40 MLOAD PUSH1 0x20 ADD PUSH2 0x113A SWAP2 SWAP1 PUSH2 0x22F9 JUMP JUMPDEST PUSH1 0x40 MLOAD PUSH1 0x20 DUP2 DUP4 SUB SUB DUP2 MSTORE SWAP1 PUSH1 0x40 MSTORE DUP1 MLOAD SWAP1 PUSH1 0x20 ADD KECCAK256 EQ PUSH2 0x1190 JUMPI PUSH1 0x40 MLOAD PUSH32 0x8C379A000000000000000000000000000000000000000000000000000000000 DUP2 MSTORE PUSH1 0x4 ADD PUSH2 0x1187 SWAP1 PUSH2 0x23B3 JUMP JUMPDEST PUSH1 0x40 MLOAD DUP1 SWAP2 SUB SWAP1 REVERT JUMPDEST PUSH1 0x0 DUP1 PUSH1 0x3 DUP1 SLOAD SWAP1 POP SWAP1 POP PUSH1 0x0 JUMPDEST DUP2 DUP2 LT ISZERO PUSH2 0x11B9 JUMPI DUP1 DUP1 PUSH2 0x11B1 SWAP1 PUSH2 0x26AE JUMP JUMPDEST SWAP2 POP POP PUSH2 0x119E JUMP JUMPDEST POP DUP2 SWAP3 POP POP POP SWAP2 SWAP1 POP JUMP JUMPDEST PUSH1 0xA DUP2 DUP2 SLOAD DUP2 LT PUSH2 0x11D4 JUMPI PUSH1 0x0 DUP1 REVERT JUMPDEST SWAP1 PUSH1 0x0 MSTORE PUSH1 0x20 PUSH1 0x0 KECCAK256 SWAP1 PUSH1 0x3 MUL ADD PUSH1 0x0 SWAP2 POP SWAP1 POP DUP1 PUSH1 0x0 ADD PUSH1 0x0 SWAP1 SLOAD SWAP1 PUSH2 0x100 EXP SWAP1 DIV PUSH20 0xFFFFFFFFFFFFFFFFFFFFFFFFFFFFFFFFFFFFFFFF AND SWAP1 DUP1 PUSH1 0x1 ADD DUP1 SLOAD PUSH2 0x121D SWAP1 PUSH2 0x264B JUMP JUMPDEST DUP1 PUSH1 0x1F ADD PUSH1 0x20 DUP1 SWAP2 DIV MUL PUSH1 0x20 ADD PUSH1 0x40 MLOAD SWAP1 DUP2 ADD PUSH1 0x40 MSTORE DUP1 SWAP3 SWAP2 SWAP1 DUP2 DUP2 MSTORE PUSH1 0x20 ADD DUP3 DUP1 SLOAD PUSH2 0x1249 SWAP1 PUSH2 0x264B JUMP JUMPDEST DUP1 ISZERO PUSH2 0x1296 JUMPI DUP1 PUSH1 0x1F LT PUSH2 0x126B JUMPI PUSH2 0x100 DUP1 DUP4 SLOAD DIV MUL DUP4 MSTORE SWAP2 PUSH1 0x20 ADD SWAP2 PUSH2 0x1296 JUMP JUMPDEST DUP3 ADD SWAP2 SWAP1 PUSH1 0x0 MSTORE PUSH1 0x20 PUSH1 0x0 KECCAK256 SWAP1 JUMPDEST DUP2 SLOAD DUP2 MSTORE SWAP1 PUSH1 0x1 ADD SWAP1 PUSH1 0x20 ADD DUP1 DUP4 GT PUSH2 0x1279 JUMPI DUP3 SWAP1 SUB PUSH1 0x1F AND DUP3 ADD SWAP2 JUMPDEST POP POP POP POP POP SWAP1 DUP1 PUSH1 0x2 ADD PUSH1 0x0 SWAP1 SLOAD SWAP1 PUSH2 0x100 EXP SWAP1 DIV PUSH1 0xFF AND SWAP1 POP DUP4 JUMP JUMPDEST PUSH1 0xA PUSH1 0x40 MLOAD DUP1 PUSH1 0x60 ADD PUSH1 0x40 MSTORE DUP1 CALLER PUSH20 0xFFFFFFFFFFFFFFFFFFFFFFFFFFFFFFFFFFFFFFFF AND DUP2 MSTORE PUSH1 0x20 ADD DUP4 DUP2 MSTORE PUSH1 0x20 ADD PUSH1 0x1 ISZERO ISZERO DUP2 MSTORE POP SWAP1 DUP1 PUSH1 0x1 DUP2 SLOAD ADD DUP1 DUP3 SSTORE DUP1 SWAP2 POP POP PUSH1 0x1 SWAP1 SUB SWAP1 PUSH1 0x0 MSTORE PUSH1 0x20 PUSH1 0x0 KECCAK256 SWAP1 PUSH1 0x3 MUL ADD PUSH1 0x0 SWAP1 SWAP2 SWAP1 SWAP2 SWAP1 SWAP2 POP PUSH1 0x0 DUP3 ADD MLOAD DUP2 PUSH1 0x0 ADD PUSH1 0x0 PUSH2 0x100 EXP DUP2 SLOAD DUP2 PUSH20 0xFFFFFFFFFFFFFFFFFFFFFFFFFFFFFFFFFFFFFFFF MUL NOT AND SWAP1 DUP4 PUSH20 0xFFFFFFFFFFFFFFFFFFFFFFFFFFFFFFFFFFFFFFFF AND MUL OR SWAP1 SSTORE POP PUSH1 0x20 DUP3 ADD MLOAD DUP2 PUSH1 0x1 ADD SWAP1 DUP1 MLOAD SWAP1 PUSH1 0x20 ADD SWAP1 PUSH2 0x1375 SWAP3 SWAP2 SWAP1 PUSH2 0x1A8A JUMP JUMPDEST POP PUSH1 0x40 DUP3 ADD MLOAD DUP2 PUSH1 0x2 ADD PUSH1 0x0 PUSH2 0x100 EXP DUP2 SLOAD DUP2 PUSH1 0xFF MUL NOT AND SWAP1 DUP4 ISZERO ISZERO MUL OR SWAP1 SSTORE POP POP POP POP JUMP JUMPDEST PUSH1 0x60 PUSH1 0x2 DUP1 SLOAD DUP1 PUSH1 0x20 MUL PUSH1 0x20 ADD PUSH1 0x40 MLOAD SWAP1 DUP2 ADD PUSH1 0x40 MSTORE DUP1 SWAP3 SWAP2 SWAP1 DUP2 DUP2 MSTORE PUSH1 0x20 ADD PUSH1 0x0 SWAP1 JUMPDEST DUP3 DUP3 LT ISZERO PUSH2 0x146B JUMPI DUP4 DUP3 SWAP1 PUSH1 0x0 MSTORE PUSH1 0x20 PUSH1 0x0 KECCAK256 ADD DUP1 SLOAD PUSH2 0x13DE SWAP1 PUSH2 0x264B JUMP JUMPDEST DUP1 PUSH1 0x1F ADD PUSH1 0x20 DUP1 SWAP2 DIV MUL PUSH1 0x20 ADD PUSH1 0x40 MLOAD SWAP1 DUP2 ADD PUSH1 0x40 MSTORE DUP1 SWAP3 SWAP2 SWAP1 DUP2 DUP2 MSTORE PUSH1 0x20 ADD DUP3 DUP1 SLOAD PUSH2 0x140A SWAP1 PUSH2 0x264B JUMP JUMPDEST DUP1 ISZERO PUSH2 0x1457 JUMPI DUP1 PUSH1 0x1F LT PUSH2 0x142C JUMPI PUSH2 0x100 DUP1 DUP4 SLOAD DIV MUL DUP4 MSTORE SWAP2 PUSH1 0x20 ADD SWAP2 PUSH2 0x1457 JUMP JUMPDEST DUP3 ADD SWAP2 SWAP1 PUSH1 0x0 MSTORE PUSH1 0x20 PUSH1 0x0 KECCAK256 SWAP1 JUMPDEST DUP2 SLOAD DUP2 MSTORE SWAP1 PUSH1 0x1 ADD SWAP1 PUSH1 0x20 ADD DUP1 DUP4 GT PUSH2 0x143A JUMPI DUP3 SWAP1 SUB PUSH1 0x1F AND DUP3 ADD SWAP2 JUMPDEST POP POP POP POP POP DUP2 MSTORE PUSH1 0x20 ADD SWAP1 PUSH1 0x1 ADD SWAP1 PUSH2 0x13BF JUMP JUMPDEST POP POP POP POP SWAP1 POP SWAP1 JUMP JUMPDEST PUSH1 0x1 DUP2 DUP1 MLOAD PUSH1 0x20 DUP2 ADD DUP3 ADD DUP1 MLOAD DUP5 DUP3 MSTORE PUSH1 0x20 DUP4 ADD PUSH1 0x20 DUP6 ADD KECCAK256 DUP2 DUP4 MSTORE DUP1 SWAP6 POP POP POP POP POP POP PUSH1 0x0 SWAP2 POP SLOAD SWAP1 PUSH2 0x100 EXP SWAP1 DIV PUSH20 0xFFFFFFFFFFFFFFFFFFFFFFFFFFFFFFFFFFFFFFFF AND DUP2 JUMP JUMPDEST PUSH1 0xA DUP2 GT ISZERO PUSH2 0x1501 JUMPI PUSH1 0x40 MLOAD PUSH32 0x8C379A000000000000000000000000000000000000000000000000000000000 DUP2 MSTORE PUSH1 0x4 ADD PUSH2 0x14F8 SWAP1 PUSH2 0x23F3 JUMP JUMPDEST PUSH1 0x40 MLOAD DUP1 SWAP2 SUB SWAP1 REVERT JUMPDEST PUSH1 0x60 PUSH1 0x40 MLOAD DUP1 PUSH1 0xA0 ADD PUSH1 0x40 MSTORE DUP1 DUP6 DUP2 MSTORE PUSH1 0x20 ADD PUSH1 0x4 PUSH1 0x0 CALLER PUSH20 0xFFFFFFFFFFFFFFFFFFFFFFFFFFFFFFFFFFFFFFFF AND PUSH20 0xFFFFFFFFFFFFFFFFFFFFFFFFFFFFFFFFFFFFFFFF AND DUP2 MSTORE PUSH1 0x20 ADD SWAP1 DUP2 MSTORE PUSH1 0x20 ADD PUSH1 0x0 KECCAK256 PUSH1 0x0 ADD DUP1 SLOAD PUSH2 0x1561 SWAP1 PUSH2 0x264B JUMP JUMPDEST DUP1 PUSH1 0x1F ADD PUSH1 0x20 DUP1 SWAP2 DIV MUL PUSH1 0x20 ADD PUSH1 0x40 MLOAD SWAP1 DUP2 ADD PUSH1 0x40 MSTORE DUP1 SWAP3 SWAP2 SWAP1 DUP2 DUP2 MSTORE PUSH1 0x20 ADD DUP3 DUP1 SLOAD PUSH2 0x158D SWAP1 PUSH2 0x264B JUMP JUMPDEST DUP1 ISZERO PUSH2 0x15DA JUMPI DUP1 PUSH1 0x1F LT PUSH2 0x15AF JUMPI PUSH2 0x100 DUP1 DUP4 SLOAD DIV MUL DUP4 MSTORE SWAP2 PUSH1 0x20 ADD SWAP2 PUSH2 0x15DA JUMP JUMPDEST DUP3 ADD SWAP2 SWAP1 PUSH1 0x0 MSTORE PUSH1 0x20 PUSH1 0x0 KECCAK256 SWAP1 JUMPDEST DUP2 SLOAD DUP2 MSTORE SWAP1 PUSH1 0x1 ADD SWAP1 PUSH1 0x20 ADD DUP1 DUP4 GT PUSH2 0x15BD JUMPI DUP3 SWAP1 SUB PUSH1 0x1F AND DUP3 ADD SWAP2 JUMPDEST POP POP POP POP POP DUP2 MSTORE PUSH1 0x20 ADD DUP5 DUP2 MSTORE PUSH1 0x20 ADD DUP4 DUP2 MSTORE PUSH1 0x20 ADD DUP3 DUP2 MSTORE POP PUSH1 0x3 PUSH1 0xD SLOAD DUP2 SLOAD DUP2 LT PUSH2 0x160A JUMPI PUSH2 0x1609 PUSH2 0x2755 JUMP JUMPDEST JUMPDEST SWAP1 PUSH1 0x0 MSTORE PUSH1 0x20 PUSH1 0x0 KECCAK256 SWAP1 PUSH1 0x5 MUL ADD PUSH1 0x0 DUP3 ADD MLOAD DUP2 PUSH1 0x0 ADD SWAP1 DUP1 MLOAD SWAP1 PUSH1 0x20 ADD SWAP1 PUSH2 0x1634 SWAP3 SWAP2 SWAP1 PUSH2 0x1A8A JUMP JUMPDEST POP PUSH1 0x20 DUP3 ADD MLOAD DUP2 PUSH1 0x1 ADD SWAP1 DUP1 MLOAD SWAP1 PUSH1 0x20 ADD SWAP1 PUSH2 0x1651 SWAP3 SWAP2 SWAP1 PUSH2 0x1A8A JUMP JUMPDEST POP PUSH1 0x40 DUP3 ADD MLOAD DUP2 PUSH1 0x2 ADD SWAP1 DUP1 MLOAD SWAP1 PUSH1 0x20 ADD SWAP1 PUSH2 0x166E SWAP3 SWAP2 SWAP1 PUSH2 0x1A8A JUMP JUMPDEST POP PUSH1 0x60 DUP3 ADD MLOAD DUP2 PUSH1 0x3 ADD SSTORE PUSH1 0x80 DUP3 ADD MLOAD DUP2 PUSH1 0x4 ADD SWAP1 DUP1 MLOAD SWAP1 PUSH1 0x20 ADD SWAP1 PUSH2 0x1695 SWAP3 SWAP2 SWAP1 PUSH2 0x1B10 JUMP JUMPDEST POP SWAP1 POP POP PUSH1 0xD PUSH1 0x0 DUP2 SLOAD DUP1 SWAP3 SWAP2 SWAP1 PUSH2 0x16AC SWAP1 PUSH2 0x26AE JUMP JUMPDEST SWAP2 SWAP1 POP SSTORE POP POP POP POP POP JUMP JUMPDEST PUSH1 0x7 DUP2 DUP1 MLOAD PUSH1 0x20 DUP2 ADD DUP3 ADD DUP1 MLOAD DUP5 DUP3 MSTORE PUSH1 0x20 DUP4 ADD PUSH1 0x20 DUP6 ADD KECCAK256 DUP2 DUP4 MSTORE DUP1 SWAP6 POP POP POP POP POP POP PUSH1 0x0 SWAP2 POP SWAP1 POP DUP1 PUSH1 0x0 ADD PUSH1 0x0 SWAP1 SLOAD SWAP1 PUSH2 0x100 EXP SWAP1 DIV PUSH20 0xFFFFFFFFFFFFFFFFFFFFFFFFFFFFFFFFFFFFFFFF AND SWAP1 DUP1 PUSH1 0x1 ADD DUP1 SLOAD PUSH2 0x1716 SWAP1 PUSH2 0x264B JUMP JUMPDEST DUP1 PUSH1 0x1F ADD PUSH1 0x20 DUP1 SWAP2 DIV MUL PUSH1 0x20 ADD PUSH1 0x40 MLOAD SWAP1 DUP2 ADD PUSH1 0x40 MSTORE DUP1 SWAP3 SWAP2 SWAP1 DUP2 DUP2 MSTORE PUSH1 0x20 ADD DUP3 DUP1 SLOAD PUSH2 0x1742 SWAP1 PUSH2 0x264B JUMP JUMPDEST DUP1 ISZERO PUSH2 0x178F JUMPI DUP1 PUSH1 0x1F LT PUSH2 0x1764 JUMPI PUSH2 0x100 DUP1 DUP4 SLOAD DIV MUL DUP4 MSTORE SWAP2 PUSH1 0x20 ADD SWAP2 PUSH2 0x178F JUMP JUMPDEST DUP3 ADD SWAP2 SWAP1 PUSH1 0x0 MSTORE PUSH1 0x20 PUSH1 0x0 KECCAK256 SWAP1 JUMPDEST DUP2 SLOAD DUP2 MSTORE SWAP1 PUSH1 0x1 ADD SWAP1 PUSH1 0x20 ADD DUP1 DUP4 GT PUSH2 0x1772 JUMPI DUP3 SWAP1 SUB PUSH1 0x1F AND DUP3 ADD SWAP2 JUMPDEST POP POP POP POP POP SWAP1 DUP1 PUSH1 0x2 ADD SLOAD SWAP1 DUP1 PUSH1 0x3 ADD SLOAD SWAP1 POP DUP5 JUMP JUMPDEST PUSH1 0x9 DUP2 DUP2 SLOAD DUP2 LT PUSH2 0x17B5 JUMPI PUSH1 0x0 DUP1 REVERT JUMPDEST SWAP1 PUSH1 0x0 MSTORE PUSH1 0x20 PUSH1 0x0 KECCAK256 SWAP1 PUSH1 0x3 MUL ADD PUSH1 0x0 SWAP2 POP SWAP1 POP DUP1 PUSH1 0x0 ADD PUSH1 0x0 SWAP1 SLOAD SWAP1 PUSH2 0x100 EXP SWAP1 DIV PUSH20 0xFFFFFFFFFFFFFFFFFFFFFFFFFFFFFFFFFFFFFFFF AND SWAP1 DUP1 PUSH1 0x1 ADD DUP1 SLOAD PUSH2 0x17FE SWAP1 PUSH2 0x264B JUMP JUMPDEST DUP1 PUSH1 0x1F ADD PUSH1 0x20 DUP1 SWAP2 DIV MUL PUSH1 0x20 ADD PUSH1 0x40 MLOAD SWAP1 DUP2 ADD PUSH1 0x40 MSTORE DUP1 SWAP3 SWAP2 SWAP1 DUP2 DUP2 MSTORE PUSH1 0x20 ADD DUP3 DUP1 SLOAD PUSH2 0x182A SWAP1 PUSH2 0x264B JUMP JUMPDEST DUP1 ISZERO PUSH2 0x1877 JUMPI DUP1 PUSH1 0x1F LT PUSH2 0x184C JUMPI PUSH2 0x100 DUP1 DUP4 SLOAD DIV MUL DUP4 MSTORE SWAP2 PUSH1 0x20 ADD SWAP2 PUSH2 0x1877 JUMP JUMPDEST DUP3 ADD SWAP2 SWAP1 PUSH1 0x0 MSTORE PUSH1 0x20 PUSH1 0x0 KECCAK256 SWAP1 JUMPDEST DUP2 SLOAD DUP2 MSTORE SWAP1 PUSH1 0x1 ADD SWAP1 PUSH1 0x20 ADD DUP1 DUP4 GT PUSH2 0x185A JUMPI DUP3 SWAP1 SUB PUSH1 0x1F AND DUP3 ADD SWAP2 JUMPDEST POP POP POP POP POP SWAP1 DUP1 PUSH1 0x2 ADD PUSH1 0x0 SWAP1 SLOAD SWAP1 PUSH2 0x100 EXP SWAP1 DIV PUSH1 0xFF AND SWAP1 POP DUP4 JUMP JUMPDEST PUSH1 0x1 ISZERO ISZERO DUP2 ISZERO ISZERO EQ ISZERO PUSH2 0x1A47 JUMPI PUSH1 0x0 PUSH1 0xA DUP4 DUP2 SLOAD DUP2 LT PUSH2 0x18B7 JUMPI PUSH2 0x18B6 PUSH2 0x2755 JUMP JUMPDEST JUMPDEST SWAP1 PUSH1 0x0 MSTORE PUSH1 0x20 PUSH1 0x0 KECCAK256 SWAP1 PUSH1 0x3 MUL ADD PUSH1 0x2 ADD PUSH1 0x0 PUSH2 0x100 EXP DUP2 SLOAD DUP2 PUSH1 0xFF MUL NOT AND SWAP1 DUP4 ISZERO ISZERO MUL OR SWAP1 SSTORE POP PUSH1 0x7 PUSH1 0xB DUP4 DUP2 SLOAD DUP2 LT PUSH2 0x18F5 JUMPI PUSH2 0x18F4 PUSH2 0x2755 JUMP JUMPDEST JUMPDEST SWAP1 PUSH1 0x0 MSTORE PUSH1 0x20 PUSH1 0x0 KECCAK256 SWAP1 PUSH1 0x3 MUL ADD PUSH1 0x1 ADD PUSH1 0x40 MLOAD PUSH2 0x1913 SWAP2 SWAP1 PUSH2 0x21F9 JUMP JUMPDEST SWAP1 DUP2 MSTORE PUSH1 0x20 ADD PUSH1 0x40 MLOAD DUP1 SWAP2 SUB SWAP1 KECCAK256 PUSH1 0x2 ADD SLOAD PUSH1 0x4 PUSH1 0x0 PUSH1 0xB DUP6 DUP2 SLOAD DUP2 LT PUSH2 0x193D JUMPI PUSH2 0x193C PUSH2 0x2755 JUMP JUMPDEST JUMPDEST SWAP1 PUSH1 0x0 MSTORE PUSH1 0x20 PUSH1 0x0 KECCAK256 SWAP1 PUSH1 0x3 MUL ADD PUSH1 0x0 ADD PUSH1 0x0 SWAP1 SLOAD SWAP1 PUSH2 0x100 EXP SWAP1 DIV PUSH20 0xFFFFFFFFFFFFFFFFFFFFFFFFFFFFFFFFFFFFFFFF AND PUSH20 0xFFFFFFFFFFFFFFFFFFFFFFFFFFFFFFFFFFFFFFFF AND PUSH20 0xFFFFFFFFFFFFFFFFFFFFFFFFFFFFFFFFFFFFFFFF AND DUP2 MSTORE PUSH1 0x20 ADD SWAP1 DUP2 MSTORE PUSH1 0x20 ADD PUSH1 0x0 KECCAK256 PUSH1 0x2 ADD SLOAD PUSH2 0x19B7 SWAP2 SWAP1 PUSH2 0x2537 JUMP JUMPDEST PUSH1 0x4 PUSH1 0x0 PUSH1 0xB DUP6 DUP2 SLOAD DUP2 LT PUSH2 0x19CF JUMPI PUSH2 0x19CE PUSH2 0x2755 JUMP JUMPDEST JUMPDEST SWAP1 PUSH1 0x0 MSTORE PUSH1 0x20 PUSH1 0x0 KECCAK256 SWAP1 PUSH1 0x3 MUL ADD PUSH1 0x0 ADD PUSH1 0x0 SWAP1 SLOAD SWAP1 PUSH2 0x100 EXP SWAP1 DIV PUSH20 0xFFFFFFFFFFFFFFFFFFFFFFFFFFFFFFFFFFFFFFFF AND PUSH20 0xFFFFFFFFFFFFFFFFFFFFFFFFFFFFFFFFFFFFFFFF AND PUSH20 0xFFFFFFFFFFFFFFFFFFFFFFFFFFFFFFFFFFFFFFFF AND DUP2 MSTORE PUSH1 0x20 ADD SWAP1 DUP2 MSTORE PUSH1 0x20 ADD PUSH1 0x0 KECCAK256 PUSH1 0x2 ADD DUP2 SWAP1 SSTORE POP PUSH2 0x1A86 JUMP JUMPDEST PUSH1 0x0 PUSH1 0xA DUP4 DUP2 SLOAD DUP2 LT PUSH2 0x1A5D JUMPI PUSH2 0x1A5C PUSH2 0x2755 JUMP JUMPDEST JUMPDEST SWAP1 PUSH1 0x0 MSTORE PUSH1 0x20 PUSH1 0x0 KECCAK256 SWAP1 PUSH1 0x3 MUL ADD PUSH1 0x2 ADD PUSH1 0x0 PUSH2 0x100 EXP DUP2 SLOAD DUP2 PUSH1 0xFF MUL NOT AND SWAP1 DUP4 ISZERO ISZERO MUL OR SWAP1 SSTORE POP JUMPDEST POP POP JUMP JUMPDEST DUP3 DUP1 SLOAD PUSH2 0x1A96 SWAP1 PUSH2 0x264B JUMP JUMPDEST SWAP1 PUSH1 0x0 MSTORE PUSH1 0x20 PUSH1 0x0 KECCAK256 SWAP1 PUSH1 0x1F ADD PUSH1 0x20 SWAP1 DIV DUP2 ADD SWAP3 DUP3 PUSH2 0x1AB8 JUMPI PUSH1 0x0 DUP6 SSTORE PUSH2 0x1AFF JUMP JUMPDEST DUP3 PUSH1 0x1F LT PUSH2 0x1AD1 JUMPI DUP1 MLOAD PUSH1 0xFF NOT AND DUP4 DUP1 ADD OR DUP6 SSTORE PUSH2 0x1AFF JUMP JUMPDEST DUP3 DUP1 ADD PUSH1 0x1 ADD DUP6 SSTORE DUP3 ISZERO PUSH2 0x1AFF JUMPI SWAP2 DUP3 ADD JUMPDEST DUP3 DUP2 GT ISZERO PUSH2 0x1AFE JUMPI DUP3 MLOAD DUP3 SSTORE SWAP2 PUSH1 0x20 ADD SWAP2 SWAP1 PUSH1 0x1 ADD SWAP1 PUSH2 0x1AE3 JUMP JUMPDEST JUMPDEST POP SWAP1 POP PUSH2 0x1B0C SWAP2 SWAP1 PUSH2 0x1B70 JUMP JUMPDEST POP SWAP1 JUMP JUMPDEST DUP3 DUP1 SLOAD DUP3 DUP3 SSTORE SWAP1 PUSH1 0x0 MSTORE PUSH1 0x20 PUSH1 0x0 KECCAK256 SWAP1 DUP2 ADD SWAP3 DUP3 ISZERO PUSH2 0x1B5F JUMPI SWAP2 PUSH1 0x20 MUL DUP3 ADD JUMPDEST DUP3 DUP2 GT ISZERO PUSH2 0x1B5E JUMPI DUP3 MLOAD DUP3 SWAP1 DUP1 MLOAD SWAP1 PUSH1 0x20 ADD SWAP1 PUSH2 0x1B4E SWAP3 SWAP2 SWAP1 PUSH2 0x1A8A JUMP JUMPDEST POP SWAP2 PUSH1 0x20 ADD SWAP2 SWAP1 PUSH1 0x1 ADD SWAP1 PUSH2 0x1B30 JUMP JUMPDEST JUMPDEST POP SWAP1 POP PUSH2 0x1B6C SWAP2 SWAP1 PUSH2 0x1B8D JUMP JUMPDEST POP SWAP1 JUMP JUMPDEST JUMPDEST DUP1 DUP3 GT ISZERO PUSH2 0x1B89 JUMPI PUSH1 0x0 DUP2 PUSH1 0x0 SWAP1 SSTORE POP PUSH1 0x1 ADD PUSH2 0x1B71 JUMP JUMPDEST POP SWAP1 JUMP JUMPDEST JUMPDEST DUP1 DUP3 GT ISZERO PUSH2 0x1BAD JUMPI PUSH1 0x0 DUP2 DUP2 PUSH2 0x1BA4 SWAP2 SWAP1 PUSH2 0x1BB1 JUMP JUMPDEST POP PUSH1 0x1 ADD PUSH2 0x1B8E JUMP JUMPDEST POP SWAP1 JUMP JUMPDEST POP DUP1 SLOAD PUSH2 0x1BBD SWAP1 PUSH2 0x264B JUMP JUMPDEST PUSH1 0x0 DUP3 SSTORE DUP1 PUSH1 0x1F LT PUSH2 0x1BCF JUMPI POP PUSH2 0x1BEE JUMP JUMPDEST PUSH1 0x1F ADD PUSH1 0x20 SWAP1 DIV SWAP1 PUSH1 0x0 MSTORE PUSH1 0x20 PUSH1 0x0 KECCAK256 SWAP1 DUP2 ADD SWAP1 PUSH2 0x1BED SWAP2 SWAP1 PUSH2 0x1B70 JUMP JUMPDEST JUMPDEST POP JUMP JUMPDEST PUSH1 0x0 PUSH2 0x1C04 PUSH2 0x1BFF DUP5 PUSH2 0x2453 JUMP JUMPDEST PUSH2 0x242E JUMP JUMPDEST SWAP1 POP DUP3 DUP2 MSTORE PUSH1 0x20 DUP2 ADD DUP5 DUP5 DUP5 ADD GT ISZERO PUSH2 0x1C20 JUMPI PUSH2 0x1C1F PUSH2 0x27B8 JUMP JUMPDEST JUMPDEST PUSH2 0x1C2B DUP5 DUP3 DUP6 PUSH2 0x2609 JUMP JUMPDEST POP SWAP4 SWAP3 POP POP POP JUMP JUMPDEST PUSH1 0x0 DUP2 CALLDATALOAD SWAP1 POP PUSH2 0x1C42 DUP2 PUSH2 0x2879 JUMP JUMPDEST SWAP3 SWAP2 POP POP JUMP JUMPDEST PUSH1 0x0 DUP2 CALLDATALOAD SWAP1 POP PUSH2 0x1C57 DUP2 PUSH2 0x2890 JUMP JUMPDEST SWAP3 SWAP2 POP POP JUMP JUMPDEST PUSH1 0x0 DUP3 PUSH1 0x1F DUP4 ADD SLT PUSH2 0x1C72 JUMPI PUSH2 0x1C71 PUSH2 0x27B3 JUMP JUMPDEST JUMPDEST DUP2 CALLDATALOAD PUSH2 0x1C82 DUP5 DUP3 PUSH1 0x20 DUP7 ADD PUSH2 0x1BF1 JUMP JUMPDEST SWAP2 POP POP SWAP3 SWAP2 POP POP JUMP JUMPDEST PUSH1 0x0 DUP2 CALLDATALOAD SWAP1 POP PUSH2 0x1C9A DUP2 PUSH2 0x28A7 JUMP JUMPDEST SWAP3 SWAP2 POP POP JUMP JUMPDEST PUSH1 0x0 PUSH1 0x20 DUP3 DUP5 SUB SLT ISZERO PUSH2 0x1CB6 JUMPI PUSH2 0x1CB5 PUSH2 0x27C2 JUMP JUMPDEST JUMPDEST PUSH1 0x0 PUSH2 0x1CC4 DUP5 DUP3 DUP6 ADD PUSH2 0x1C33 JUMP JUMPDEST SWAP2 POP POP SWAP3 SWAP2 POP POP JUMP JUMPDEST PUSH1 0x0 PUSH1 0x20 DUP3 DUP5 SUB SLT ISZERO PUSH2 0x1CE3 JUMPI PUSH2 0x1CE2 PUSH2 0x27C2 JUMP JUMPDEST JUMPDEST PUSH1 0x0 DUP3 ADD CALLDATALOAD PUSH8 0xFFFFFFFFFFFFFFFF DUP2 GT ISZERO PUSH2 0x1D01 JUMPI PUSH2 0x1D00 PUSH2 0x27BD JUMP JUMPDEST JUMPDEST PUSH2 0x1D0D DUP5 DUP3 DUP6 ADD PUSH2 0x1C5D JUMP JUMPDEST SWAP2 POP POP SWAP3 SWAP2 POP POP JUMP JUMPDEST PUSH1 0x0 DUP1 PUSH1 0x0 PUSH1 0x60 DUP5 DUP7 SUB SLT ISZERO PUSH2 0x1D2F JUMPI PUSH2 0x1D2E PUSH2 0x27C2 JUMP JUMPDEST JUMPDEST PUSH1 0x0 DUP5 ADD CALLDATALOAD PUSH8 0xFFFFFFFFFFFFFFFF DUP2 GT ISZERO PUSH2 0x1D4D JUMPI PUSH2 0x1D4C PUSH2 0x27BD JUMP JUMPDEST JUMPDEST PUSH2 0x1D59 DUP7 DUP3 DUP8 ADD PUSH2 0x1C5D JUMP JUMPDEST SWAP4 POP POP PUSH1 0x20 DUP5 ADD CALLDATALOAD PUSH8 0xFFFFFFFFFFFFFFFF DUP2 GT ISZERO PUSH2 0x1D7A JUMPI PUSH2 0x1D79 PUSH2 0x27BD JUMP JUMPDEST JUMPDEST PUSH2 0x1D86 DUP7 DUP3 DUP8 ADD PUSH2 0x1C5D JUMP JUMPDEST SWAP3 POP POP PUSH1 0x40 PUSH2 0x1D97 DUP7 DUP3 DUP8 ADD PUSH2 0x1C8B JUMP JUMPDEST SWAP2 POP POP SWAP3 POP SWAP3 POP SWAP3 JUMP JUMPDEST PUSH1 0x0 DUP1 PUSH1 0x0 PUSH1 0x60 DUP5 DUP7 SUB SLT ISZERO PUSH2 0x1DBA JUMPI PUSH2 0x1DB9 PUSH2 0x27C2 JUMP JUMPDEST JUMPDEST PUSH1 0x0 DUP5 ADD CALLDATALOAD PUSH8 0xFFFFFFFFFFFFFFFF DUP2 GT ISZERO PUSH2 0x1DD8 JUMPI PUSH2 0x1DD7 PUSH2 0x27BD JUMP JUMPDEST JUMPDEST PUSH2 0x1DE4 DUP7 DUP3 DUP8 ADD PUSH2 0x1C5D JUMP JUMPDEST SWAP4 POP POP PUSH1 0x20 PUSH2 0x1DF5 DUP7 DUP3 DUP8 ADD PUSH2 0x1C8B JUMP JUMPDEST SWAP3 POP POP PUSH1 0x40 DUP5 ADD CALLDATALOAD PUSH8 0xFFFFFFFFFFFFFFFF DUP2 GT ISZERO PUSH2 0x1E16 JUMPI PUSH2 0x1E15 PUSH2 0x27BD JUMP JUMPDEST JUMPDEST PUSH2 0x1E22 DUP7 DUP3 DUP8 ADD PUSH2 0x1C5D JUMP JUMPDEST SWAP2 POP POP SWAP3 POP SWAP3 POP SWAP3 JUMP JUMPDEST PUSH1 0x0 PUSH1 0x20 DUP3 DUP5 SUB SLT ISZERO PUSH2 0x1E42 JUMPI PUSH2 0x1E41 PUSH2 0x27C2 JUMP JUMPDEST JUMPDEST PUSH1 0x0 PUSH2 0x1E50 DUP5 DUP3 DUP6 ADD PUSH2 0x1C8B JUMP JUMPDEST SWAP2 POP POP SWAP3 SWAP2 POP POP JUMP JUMPDEST PUSH1 0x0 DUP1 PUSH1 0x40 DUP4 DUP6 SUB SLT ISZERO PUSH2 0x1E70 JUMPI PUSH2 0x1E6F PUSH2 0x27C2 JUMP JUMPDEST JUMPDEST PUSH1 0x0 PUSH2 0x1E7E DUP6 DUP3 DUP7 ADD PUSH2 0x1C8B JUMP JUMPDEST SWAP3 POP POP PUSH1 0x20 PUSH2 0x1E8F DUP6 DUP3 DUP7 ADD PUSH2 0x1C48 JUMP JUMPDEST SWAP2 POP POP SWAP3 POP SWAP3 SWAP1 POP JUMP JUMPDEST PUSH1 0x0 PUSH2 0x1EA5 DUP4 DUP4 PUSH2 0x1FC8 JUMP JUMPDEST SWAP1 POP SWAP3 SWAP2 POP POP JUMP JUMPDEST PUSH1 0x0 PUSH2 0x1EB9 DUP4 DUP4 PUSH2 0x206B JUMP JUMPDEST SWAP1 POP SWAP3 SWAP2 POP POP JUMP JUMPDEST PUSH2 0x1ECA DUP2 PUSH2 0x25C1 JUMP JUMPDEST DUP3 MSTORE POP POP JUMP JUMPDEST PUSH1 0x0 PUSH2 0x1EDB DUP3 PUSH2 0x24BE JUMP JUMPDEST PUSH2 0x1EE5 DUP2 DUP6 PUSH2 0x24F9 JUMP JUMPDEST SWAP4 POP DUP4 PUSH1 0x20 DUP3 MUL DUP6 ADD PUSH2 0x1EF7 DUP6 PUSH2 0x2484 JUMP JUMPDEST DUP1 PUSH1 0x0 JUMPDEST DUP6 DUP2 LT ISZERO PUSH2 0x1F33 JUMPI DUP5 DUP5 SUB DUP10 MSTORE DUP2 MLOAD PUSH2 0x1F14 DUP6 DUP3 PUSH2 0x1E99 JUMP JUMPDEST SWAP5 POP PUSH2 0x1F1F DUP4 PUSH2 0x24DF JUMP JUMPDEST SWAP3 POP PUSH1 0x20 DUP11 ADD SWAP10 POP POP PUSH1 0x1 DUP2 ADD SWAP1 POP PUSH2 0x1EFB JUMP JUMPDEST POP DUP3 SWAP8 POP DUP8 SWAP6 POP POP POP POP POP POP SWAP3 SWAP2 POP POP JUMP JUMPDEST PUSH1 0x0 PUSH2 0x1F50 DUP3 PUSH2 0x24C9 JUMP JUMPDEST PUSH2 0x1F5A DUP2 DUP6 PUSH2 0x24F9 JUMP JUMPDEST SWAP4 POP DUP4 PUSH1 0x20 DUP3 MUL DUP6 ADD PUSH2 0x1F6C DUP6 PUSH2 0x2494 JUMP JUMPDEST DUP1 PUSH1 0x0 JUMPDEST DUP6 DUP2 LT ISZERO PUSH2 0x1FA7 JUMPI DUP5 DUP5 SUB DUP10 MSTORE DUP2 PUSH2 0x1F88 DUP6 DUP3 PUSH2 0x1EAD JUMP JUMPDEST SWAP5 POP PUSH2 0x1F93 DUP4 PUSH2 0x24EC JUMP JUMPDEST SWAP3 POP PUSH1 0x20 DUP11 ADD SWAP10 POP POP PUSH1 0x1 DUP2 ADD SWAP1 POP PUSH2 0x1F70 JUMP JUMPDEST POP DUP3 SWAP8 POP DUP8 SWAP6 POP POP POP POP POP POP SWAP3 SWAP2 POP POP JUMP JUMPDEST PUSH2 0x1FC2 DUP2 PUSH2 0x25D3 JUMP JUMPDEST DUP3 MSTORE POP POP JUMP JUMPDEST PUSH1 0x0 PUSH2 0x1FD3 DUP3 PUSH2 0x24D4 JUMP JUMPDEST PUSH2 0x1FDD DUP2 DUP6 PUSH2 0x250A JUMP JUMPDEST SWAP4 POP PUSH2 0x1FED DUP2 DUP6 PUSH1 0x20 DUP7 ADD PUSH2 0x2618 JUMP JUMPDEST PUSH2 0x1FF6 DUP2 PUSH2 0x27C7 JUMP JUMPDEST DUP5 ADD SWAP2 POP POP SWAP3 SWAP2 POP POP JUMP JUMPDEST PUSH1 0x0 PUSH2 0x200C DUP3 PUSH2 0x24D4 JUMP JUMPDEST PUSH2 0x2016 DUP2 DUP6 PUSH2 0x251B JUMP JUMPDEST SWAP4 POP PUSH2 0x2026 DUP2 DUP6 PUSH1 0x20 DUP7 ADD PUSH2 0x2618 JUMP JUMPDEST PUSH2 0x202F DUP2 PUSH2 0x27C7 JUMP JUMPDEST DUP5 ADD SWAP2 POP POP SWAP3 SWAP2 POP POP JUMP JUMPDEST PUSH1 0x0 PUSH2 0x2045 DUP3 PUSH2 0x24D4 JUMP JUMPDEST PUSH2 0x204F DUP2 DUP6 PUSH2 0x252C JUMP JUMPDEST SWAP4 POP PUSH2 0x205F DUP2 DUP6 PUSH1 0x20 DUP7 ADD PUSH2 0x2618 JUMP JUMPDEST DUP1 DUP5 ADD SWAP2 POP POP SWAP3 SWAP2 POP POP JUMP JUMPDEST PUSH1 0x0 DUP2 SLOAD PUSH2 0x2078 DUP2 PUSH2 0x264B JUMP JUMPDEST PUSH2 0x2082 DUP2 DUP7 PUSH2 0x250A JUMP JUMPDEST SWAP5 POP PUSH1 0x1 DUP3 AND PUSH1 0x0 DUP2 EQ PUSH2 0x209D JUMPI PUSH1 0x1 DUP2 EQ PUSH2 0x20AF JUMPI PUSH2 0x20E2 JUMP JUMPDEST PUSH1 0xFF NOT DUP4 AND DUP7 MSTORE PUSH1 0x20 DUP7 ADD SWAP4 POP PUSH2 0x20E2 JUMP JUMPDEST PUSH2 0x20B8 DUP6 PUSH2 0x24A9 JUMP JUMPDEST PUSH1 0x0 JUMPDEST DUP4 DUP2 LT ISZERO PUSH2 0x20DA JUMPI DUP2 SLOAD DUP2 DUP10 ADD MSTORE PUSH1 0x1 DUP3 ADD SWAP2 POP PUSH1 0x20 DUP2 ADD SWAP1 POP PUSH2 0x20BB JUMP JUMPDEST DUP1 DUP9 ADD SWAP6 POP POP POP JUMPDEST POP POP POP SWAP3 SWAP2 POP POP JUMP JUMPDEST PUSH1 0x0 DUP2 SLOAD PUSH2 0x20F8 DUP2 PUSH2 0x264B JUMP JUMPDEST PUSH2 0x2102 DUP2 DUP7 PUSH2 0x252C JUMP JUMPDEST SWAP5 POP PUSH1 0x1 DUP3 AND PUSH1 0x0 DUP2 EQ PUSH2 0x211D JUMPI PUSH1 0x1 DUP2 EQ PUSH2 0x212E JUMPI PUSH2 0x2161 JUMP JUMPDEST PUSH1 0xFF NOT DUP4 AND DUP7 MSTORE DUP2 DUP7 ADD SWAP4 POP PUSH2 0x2161 JUMP JUMPDEST PUSH2 0x2137 DUP6 PUSH2 0x24A9 JUMP JUMPDEST PUSH1 0x0 JUMPDEST DUP4 DUP2 LT ISZERO PUSH2 0x2159 JUMPI DUP2 SLOAD DUP2 DUP10 ADD MSTORE PUSH1 0x1 DUP3 ADD SWAP2 POP PUSH1 0x20 DUP2 ADD SWAP1 POP PUSH2 0x213A JUMP JUMPDEST DUP4 DUP9 ADD SWAP6 POP POP POP JUMPDEST POP POP POP SWAP3 SWAP2 POP POP JUMP JUMPDEST PUSH1 0x0 PUSH2 0x2177 PUSH1 0xE DUP4 PUSH2 0x251B JUMP JUMPDEST SWAP2 POP PUSH2 0x2182 DUP3 PUSH2 0x27D8 JUMP JUMPDEST PUSH1 0x20 DUP3 ADD SWAP1 POP SWAP2 SWAP1 POP JUMP JUMPDEST PUSH1 0x0 PUSH2 0x219A PUSH1 0x10 DUP4 PUSH2 0x251B JUMP JUMPDEST SWAP2 POP PUSH2 0x21A5 DUP3 PUSH2 0x2801 JUMP JUMPDEST PUSH1 0x20 DUP3 ADD SWAP1 POP SWAP2 SWAP1 POP JUMP JUMPDEST PUSH1 0x0 PUSH2 0x21BD PUSH1 0x21 DUP4 PUSH2 0x251B JUMP JUMPDEST SWAP2 POP PUSH2 0x21C8 DUP3 PUSH2 0x282A JUMP JUMPDEST PUSH1 0x40 DUP3 ADD SWAP1 POP SWAP2 SWAP1 POP JUMP JUMPDEST PUSH2 0x21DC DUP2 PUSH2 0x25FF JUMP JUMPDEST DUP3 MSTORE POP POP JUMP JUMPDEST PUSH1 0x0 PUSH2 0x21EE DUP3 DUP5 PUSH2 0x203A JUMP JUMPDEST SWAP2 POP DUP2 SWAP1 POP SWAP3 SWAP2 POP POP JUMP JUMPDEST PUSH1 0x0 PUSH2 0x2205 DUP3 DUP5 PUSH2 0x20EB JUMP JUMPDEST SWAP2 POP DUP2 SWAP1 POP SWAP3 SWAP2 POP POP JUMP JUMPDEST PUSH1 0x0 PUSH1 0x20 DUP3 ADD SWAP1 POP PUSH2 0x2225 PUSH1 0x0 DUP4 ADD DUP5 PUSH2 0x1EC1 JUMP JUMPDEST SWAP3 SWAP2 POP POP JUMP JUMPDEST PUSH1 0x0 PUSH1 0x60 DUP3 ADD SWAP1 POP PUSH2 0x2240 PUSH1 0x0 DUP4 ADD DUP7 PUSH2 0x1EC1 JUMP JUMPDEST DUP2 DUP2 SUB PUSH1 0x20 DUP4 ADD MSTORE PUSH2 0x2252 DUP2 DUP6 PUSH2 0x2001 JUMP JUMPDEST SWAP1 POP PUSH2 0x2261 PUSH1 0x40 DUP4 ADD DUP5 PUSH2 0x1FB9 JUMP JUMPDEST SWAP5 SWAP4 POP POP POP POP JUMP JUMPDEST PUSH1 0x0 PUSH1 0x80 DUP3 ADD SWAP1 POP PUSH2 0x227E PUSH1 0x0 DUP4 ADD DUP8 PUSH2 0x1EC1 JUMP JUMPDEST DUP2 DUP2 SUB PUSH1 0x20 DUP4 ADD MSTORE PUSH2 0x2290 DUP2 DUP7 PUSH2 0x2001 JUMP JUMPDEST SWAP1 POP PUSH2 0x229F PUSH1 0x40 DUP4 ADD DUP6 PUSH2 0x21D3 JUMP JUMPDEST PUSH2 0x22AC PUSH1 0x60 DUP4 ADD DUP5 PUSH2 0x21D3 JUMP JUMPDEST SWAP6 SWAP5 POP POP POP POP POP JUMP JUMPDEST PUSH1 0x0 PUSH1 0x20 DUP3 ADD SWAP1 POP DUP2 DUP2 SUB PUSH1 0x0 DUP4 ADD MSTORE PUSH2 0x22CF DUP2 DUP5 PUSH2 0x1ED0 JUMP JUMPDEST SWAP1 POP SWAP3 SWAP2 POP POP JUMP JUMPDEST PUSH1 0x0 PUSH1 0x20 DUP3 ADD SWAP1 POP DUP2 DUP2 SUB PUSH1 0x0 DUP4 ADD MSTORE PUSH2 0x22F1 DUP2 DUP5 PUSH2 0x1F45 JUMP JUMPDEST SWAP1 POP SWAP3 SWAP2 POP POP JUMP JUMPDEST PUSH1 0x0 PUSH1 0x20 DUP3 ADD SWAP1 POP DUP2 DUP2 SUB PUSH1 0x0 DUP4 ADD MSTORE PUSH2 0x2313 DUP2 DUP5 PUSH2 0x2001 JUMP JUMPDEST SWAP1 POP SWAP3 SWAP2 POP POP JUMP JUMPDEST PUSH1 0x0 PUSH1 0x80 DUP3 ADD SWAP1 POP DUP2 DUP2 SUB PUSH1 0x0 DUP4 ADD MSTORE PUSH2 0x2335 DUP2 DUP8 PUSH2 0x2001 JUMP JUMPDEST SWAP1 POP DUP2 DUP2 SUB PUSH1 0x20 DUP4 ADD MSTORE PUSH2 0x2349 DUP2 DUP7 PUSH2 0x2001 JUMP JUMPDEST SWAP1 POP DUP2 DUP2 SUB PUSH1 0x40 DUP4 ADD MSTORE PUSH2 0x235D DUP2 DUP6 PUSH2 0x2001 JUMP JUMPDEST SWAP1 POP PUSH2 0x236C PUSH1 0x60 DUP4 ADD DUP5 PUSH2 0x21D3 JUMP JUMPDEST SWAP6 SWAP5 POP POP POP POP POP JUMP JUMPDEST PUSH1 0x0 PUSH1 0x60 DUP3 ADD SWAP1 POP DUP2 DUP2 SUB PUSH1 0x0 DUP4 ADD MSTORE PUSH2 0x238F DUP2 DUP7 PUSH2 0x2001 JUMP JUMPDEST SWAP1 POP PUSH2 0x239E PUSH1 0x20 DUP4 ADD DUP6 PUSH2 0x21D3 JUMP JUMPDEST PUSH2 0x23AB PUSH1 0x40 DUP4 ADD DUP5 PUSH2 0x21D3 JUMP JUMPDEST SWAP5 SWAP4 POP POP POP POP JUMP JUMPDEST PUSH1 0x0 PUSH1 0x20 DUP3 ADD SWAP1 POP DUP2 DUP2 SUB PUSH1 0x0 DUP4 ADD MSTORE PUSH2 0x23CC DUP2 PUSH2 0x216A JUMP JUMPDEST SWAP1 POP SWAP2 SWAP1 POP JUMP JUMPDEST PUSH1 0x0 PUSH1 0x20 DUP3 ADD SWAP1 POP DUP2 DUP2 SUB PUSH1 0x0 DUP4 ADD MSTORE PUSH2 0x23EC DUP2 PUSH2 0x218D JUMP JUMPDEST SWAP1 POP SWAP2 SWAP1 POP JUMP JUMPDEST PUSH1 0x0 PUSH1 0x20 DUP3 ADD SWAP1 POP DUP2 DUP2 SUB PUSH1 0x0 DUP4 ADD MSTORE PUSH2 0x240C DUP2 PUSH2 0x21B0 JUMP JUMPDEST SWAP1 POP SWAP2 SWAP1 POP JUMP JUMPDEST PUSH1 0x0 PUSH1 0x20 DUP3 ADD SWAP1 POP PUSH2 0x2428 PUSH1 0x0 DUP4 ADD DUP5 PUSH2 0x21D3 JUMP JUMPDEST SWAP3 SWAP2 POP POP JUMP JUMPDEST PUSH1 0x0 PUSH2 0x2438 PUSH2 0x2449 JUMP JUMPDEST SWAP1 POP PUSH2 0x2444 DUP3 DUP3 PUSH2 0x267D JUMP JUMPDEST SWAP2 SWAP1 POP JUMP JUMPDEST PUSH1 0x0 PUSH1 0x40 MLOAD SWAP1 POP SWAP1 JUMP JUMPDEST PUSH1 0x0 PUSH8 0xFFFFFFFFFFFFFFFF DUP3 GT ISZERO PUSH2 0x246E JUMPI PUSH2 0x246D PUSH2 0x2784 JUMP JUMPDEST JUMPDEST PUSH2 0x2477 DUP3 PUSH2 0x27C7 JUMP JUMPDEST SWAP1 POP PUSH1 0x20 DUP2 ADD SWAP1 POP SWAP2 SWAP1 POP JUMP JUMPDEST PUSH1 0x0 DUP2 SWAP1 POP PUSH1 0x20 DUP3 ADD SWAP1 POP SWAP2 SWAP1 POP JUMP JUMPDEST PUSH1 0x0 DUP2 SWAP1 POP DUP2 PUSH1 0x0 MSTORE PUSH1 0x20 PUSH1 0x0 KECCAK256 SWAP1 POP SWAP2 SWAP1 POP JUMP JUMPDEST PUSH1 0x0 DUP2 SWAP1 POP DUP2 PUSH1 0x0 MSTORE PUSH1 0x20 PUSH1 0x0 KECCAK256 SWAP1 POP SWAP2 SWAP1 POP JUMP JUMPDEST PUSH1 0x0 DUP2 MLOAD SWAP1 POP SWAP2 SWAP1 POP JUMP JUMPDEST PUSH1 0x0 DUP2 SLOAD SWAP1 POP SWAP2 SWAP1 POP JUMP JUMPDEST PUSH1 0x0 DUP2 MLOAD SWAP1 POP SWAP2 SWAP1 POP JUMP JUMPDEST PUSH1 0x0 PUSH1 0x20 DUP3 ADD SWAP1 POP SWAP2 SWAP1 POP JUMP JUMPDEST PUSH1 0x0 PUSH1 0x1 DUP3 ADD SWAP1 POP SWAP2 SWAP1 POP JUMP JUMPDEST PUSH1 0x0 DUP3 DUP3 MSTORE PUSH1 0x20 DUP3 ADD SWAP1 POP SWAP3 SWAP2 POP POP JUMP JUMPDEST PUSH1 0x0 DUP3 DUP3 MSTORE PUSH1 0x20 DUP3 ADD SWAP1 POP SWAP3 SWAP2 POP POP JUMP JUMPDEST PUSH1 0x0 DUP3 DUP3 MSTORE PUSH1 0x20 DUP3 ADD SWAP1 POP SWAP3 SWAP2 POP POP JUMP JUMPDEST PUSH1 0x0 DUP2 SWAP1 POP SWAP3 SWAP2 POP POP JUMP JUMPDEST PUSH1 0x0 PUSH2 0x2542 DUP3 PUSH2 0x25FF JUMP JUMPDEST SWAP2 POP PUSH2 0x254D DUP4 PUSH2 0x25FF JUMP JUMPDEST SWAP3 POP DUP3 PUSH32 0xFFFFFFFFFFFFFFFFFFFFFFFFFFFFFFFFFFFFFFFFFFFFFFFFFFFFFFFFFFFFFFFF SUB DUP3 GT ISZERO PUSH2 0x2582 JUMPI PUSH2 0x2581 PUSH2 0x26F7 JUMP JUMPDEST JUMPDEST DUP3 DUP3 ADD SWAP1 POP SWAP3 SWAP2 POP POP JUMP JUMPDEST PUSH1 0x0 PUSH2 0x2598 DUP3 PUSH2 0x25FF JUMP JUMPDEST SWAP2 POP PUSH2 0x25A3 DUP4 PUSH2 0x25FF JUMP JUMPDEST SWAP3 POP DUP3 DUP3 LT ISZERO PUSH2 0x25B6 JUMPI PUSH2 0x25B5 PUSH2 0x26F7 JUMP JUMPDEST JUMPDEST DUP3 DUP3 SUB SWAP1 POP SWAP3 SWAP2 POP POP JUMP JUMPDEST PUSH1 0x0 PUSH2 0x25CC DUP3 PUSH2 0x25DF JUMP JUMPDEST SWAP1 POP SWAP2 SWAP1 POP JUMP JUMPDEST PUSH1 0x0 DUP2 ISZERO ISZERO SWAP1 POP SWAP2 SWAP1 POP JUMP JUMPDEST PUSH1 0x0 PUSH20 0xFFFFFFFFFFFFFFFFFFFFFFFFFFFFFFFFFFFFFFFF DUP3 AND SWAP1 POP SWAP2 SWAP1 POP JUMP JUMPDEST PUSH1 0x0 DUP2 SWAP1 POP SWAP2 SWAP1 POP JUMP JUMPDEST DUP3 DUP2 DUP4 CALLDATACOPY PUSH1 0x0 DUP4 DUP4 ADD MSTORE POP POP POP JUMP JUMPDEST PUSH1 0x0 JUMPDEST DUP4 DUP2 LT ISZERO PUSH2 0x2636 JUMPI DUP1 DUP3 ADD MLOAD DUP2 DUP5 ADD MSTORE PUSH1 0x20 DUP2 ADD SWAP1 POP PUSH2 0x261B JUMP JUMPDEST DUP4 DUP2 GT ISZERO PUSH2 0x2645 JUMPI PUSH1 0x0 DUP5 DUP5 ADD MSTORE JUMPDEST POP POP POP POP JUMP JUMPDEST PUSH1 0x0 PUSH1 0x2 DUP3 DIV SWAP1 POP PUSH1 0x1 DUP3 AND DUP1 PUSH2 0x2663 JUMPI PUSH1 0x7F DUP3 AND SWAP2 POP JUMPDEST PUSH1 0x20 DUP3 LT DUP2 EQ ISZERO PUSH2 0x2677 JUMPI PUSH2 0x2676 PUSH2 0x2726 JUMP JUMPDEST JUMPDEST POP SWAP2 SWAP1 POP JUMP JUMPDEST PUSH2 0x2686 DUP3 PUSH2 0x27C7 JUMP JUMPDEST DUP2 ADD DUP2 DUP2 LT PUSH8 0xFFFFFFFFFFFFFFFF DUP3 GT OR ISZERO PUSH2 0x26A5 JUMPI PUSH2 0x26A4 PUSH2 0x2784 JUMP JUMPDEST JUMPDEST DUP1 PUSH1 0x40 MSTORE POP POP POP JUMP JUMPDEST PUSH1 0x0 PUSH2 0x26B9 DUP3 PUSH2 0x25FF JUMP JUMPDEST SWAP2 POP PUSH32 0xFFFFFFFFFFFFFFFFFFFFFFFFFFFFFFFFFFFFFFFFFFFFFFFFFFFFFFFFFFFFFFFF DUP3 EQ ISZERO PUSH2 0x26EC JUMPI PUSH2 0x26EB PUSH2 0x26F7 JUMP JUMPDEST JUMPDEST PUSH1 0x1 DUP3 ADD SWAP1 POP SWAP2 SWAP1 POP JUMP JUMPDEST PUSH32 0x4E487B7100000000000000000000000000000000000000000000000000000000 PUSH1 0x0 MSTORE PUSH1 0x11 PUSH1 0x4 MSTORE PUSH1 0x24 PUSH1 0x0 REVERT JUMPDEST PUSH32 0x4E487B7100000000000000000000000000000000000000000000000000000000 PUSH1 0x0 MSTORE PUSH1 0x22 PUSH1 0x4 MSTORE PUSH1 0x24 PUSH1 0x0 REVERT JUMPDEST PUSH32 0x4E487B7100000000000000000000000000000000000000000000000000000000 PUSH1 0x0 MSTORE PUSH1 0x32 PUSH1 0x4 MSTORE PUSH1 0x24 PUSH1 0x0 REVERT JUMPDEST PUSH32 0x4E487B7100000000000000000000000000000000000000000000000000000000 PUSH1 0x0 MSTORE PUSH1 0x41 PUSH1 0x4 MSTORE PUSH1 0x24 PUSH1 0x0 REVERT JUMPDEST PUSH1 0x0 DUP1 REVERT JUMPDEST PUSH1 0x0 DUP1 REVERT JUMPDEST PUSH1 0x0 DUP1 REVERT JUMPDEST PUSH1 0x0 DUP1 REVERT JUMPDEST PUSH1 0x0 PUSH1 0x1F NOT PUSH1 0x1F DUP4 ADD AND SWAP1 POP SWAP2 SWAP1 POP JUMP JUMPDEST PUSH32 0x6572726F723A206E6F2073686F70000000000000000000000000000000000000 PUSH1 0x0 DUP3 ADD MSTORE POP JUMP JUMPDEST PUSH32 0x6572726F723A206E6F74206D6F6E657900000000000000000000000000000000 PUSH1 0x0 DUP3 ADD MSTORE POP JUMP JUMPDEST PUSH32 0x6572726F723A20726174696E672063616E2062652066726F6D203120746F2031 PUSH1 0x0 DUP3 ADD MSTORE PUSH32 0x3000000000000000000000000000000000000000000000000000000000000000 PUSH1 0x20 DUP3 ADD MSTORE POP JUMP JUMPDEST PUSH2 0x2882 DUP2 PUSH2 0x25C1 JUMP JUMPDEST DUP2 EQ PUSH2 0x288D JUMPI PUSH1 0x0 DUP1 REVERT JUMPDEST POP JUMP JUMPDEST PUSH2 0x2899 DUP2 PUSH2 0x25D3 JUMP JUMPDEST DUP2 EQ PUSH2 0x28A4 JUMPI PUSH1 0x0 DUP1 REVERT JUMPDEST POP JUMP JUMPDEST PUSH2 0x28B0 DUP2 PUSH2 0x25FF JUMP JUMPDEST DUP2 EQ PUSH2 0x28BB JUMPI PUSH1 0x0 DUP1 REVERT JUMPDEST POP JUMP INVALID LOG2 PUSH5 0x6970667358 0x22 SLT KECCAK256 EXTCODEHASH PUSH6 0x1039A5847CA9 0x49 PUSH18 0xA46205BB19B40E0AF8FDA1F5611A34BAD4A6 XOR PUSH14 0x717264736F6C6343000807003300 "
				},
				"gasEstimates": {
					"creation": {
						"codeDepositCost": "2096800",
						"executionCost": "infinite",
						"totalCost": "infinite"
					},
					"external": {
						"MarriageRegistration(uint256,bool)": "infinite",
						"acceptPurchase(uint256,bool)": "infinite",
						"acceptReturn(uint256,bool)": "infinite",
						"addProductShop(string,uint256,string)": "infinite",
						"complaintBooks(uint256)": "infinite",
						"getProductList()": "infinite",
						"getShopList()": "infinite",
						"getStoryRating(string)": "infinite",
						"leaveFeedback(string,string,uint256)": "infinite",
						"productMarriageRegistration(string)": "infinite",
						"productPurchases(string)": "infinite",
						"productReturn(string)": "infinite",
						"shopLists(string)": "infinite",
						"structMarriageRegistrations(uint256)": "infinite",
						"structProducts(string)": "infinite",
						"structStatusPurchases(uint256)": "infinite",
						"structStatusReturns(uint256)": "infinite",
						"structUserLogins(string)": "infinite",
						"structUsers(address)": "infinite"
					}
				},
				"methodIdentifiers": {
					"MarriageRegistration(uint256,bool)": "f69483c1",
					"acceptPurchase(uint256,bool)": "0c72b1ec",
					"acceptReturn(uint256,bool)": "2ccdef7c",
					"addProductShop(string,uint256,string)": "6c05dd1d",
					"complaintBooks(uint256)": "08f4d2c6",
					"getProductList()": "34d2c0ad",
					"getShopList()": "c178b9af",
					"getStoryRating(string)": "a985036d",
					"leaveFeedback(string,string,uint256)": "cc21c188",
					"productMarriageRegistration(string)": "2d4673e3",
					"productPurchases(string)": "146dc6ed",
					"productReturn(string)": "bbd43363",
					"shopLists(string)": "c4957fa0",
					"structMarriageRegistrations(uint256)": "7ddb273d",
					"structProducts(string)": "d68cf8c1",
					"structStatusPurchases(uint256)": "dce39151",
					"structStatusReturns(uint256)": "a9f9482b",
					"structUserLogins(string)": "1bbe970a",
					"structUsers(address)": "961865f0"
				}
			},
			"userdoc": {
				"kind": "user",
				"methods": {},
				"version": 1
			}
		}
	}
}