{
	"Documents/GitHub/Store-system-with-feedback/main.sol": {
		"coursepaper": {
			"abi": [
				{
					"inputs": [],
					"stateMutability": "nonpayable",
					"type": "constructor"
				},
				{
					"inputs": [
						{
							"internalType": "uint256",
							"name": "idMarriageRegistration",
							"type": "uint256"
						},
						{
							"internalType": "bool",
							"name": "confirmation",
							"type": "bool"
						}
					],
					"name": "MarriageRegistration",
					"outputs": [],
					"stateMutability": "nonpayable",
					"type": "function"
				},
				{
					"inputs": [
						{
							"internalType": "uint256",
							"name": "idPurchase",
							"type": "uint256"
						},
						{
							"internalType": "bool",
							"name": "confirmation",
							"type": "bool"
						}
					],
					"name": "acceptPurchase",
					"outputs": [],
					"stateMutability": "nonpayable",
					"type": "function"
				},
				{
					"inputs": [
						{
							"internalType": "uint256",
							"name": "idReturn",
							"type": "uint256"
						},
						{
							"internalType": "bool",
							"name": "confirmation",
							"type": "bool"
						}
					],
					"name": "acceptReturn",
					"outputs": [],
					"stateMutability": "nonpayable",
					"type": "function"
				},
				{
					"inputs": [
						{
							"internalType": "string",
							"name": "title",
							"type": "string"
						},
						{
							"internalType": "uint256",
							"name": "price",
							"type": "uint256"
						},
						{
							"internalType": "string",
							"name": "description",
							"type": "string"
						}
					],
					"name": "addProductShop",
					"outputs": [],
					"stateMutability": "nonpayable",
					"type": "function"
				},
				{
					"inputs": [
						{
							"internalType": "address",
							"name": "addr",
							"type": "address"
						},
						{
							"internalType": "string",
							"name": "login",
							"type": "string"
						},
						{
							"internalType": "uint256",
							"name": "password",
							"type": "uint256"
						}
					],
					"name": "create_user",
					"outputs": [],
					"stateMutability": "nonpayable",
					"type": "function"
				},
				{
					"inputs": [],
					"name": "getProductList",
					"outputs": [
						{
							"internalType": "string[]",
							"name": "",
							"type": "string[]"
						}
					],
					"stateMutability": "view",
					"type": "function"
				},
				{
					"inputs": [],
					"name": "getShopList",
					"outputs": [
						{
							"internalType": "string[]",
							"name": "",
							"type": "string[]"
						}
					],
					"stateMutability": "view",
					"type": "function"
				},
				{
					"inputs": [
						{
							"internalType": "string",
							"name": "shopName",
							"type": "string"
						}
					],
					"name": "getStoryRating",
					"outputs": [
						{
							"internalType": "uint256",
							"name": "",
							"type": "uint256"
						}
					],
					"stateMutability": "view",
					"type": "function"
				},
				{
					"inputs": [
						{
							"internalType": "string",
							"name": "login",
							"type": "string"
						}
					],
					"name": "get_address",
					"outputs": [
						{
							"internalType": "address",
							"name": "",
							"type": "address"
						}
					],
					"stateMutability": "view",
					"type": "function"
				},
				{
					"inputs": [
						{
							"internalType": "string",
							"name": "userName",
							"type": "string"
						},
						{
							"internalType": "string[]",
							"name": "comment",
							"type": "string[]"
						}
					],
					"name": "leaveComment",
					"outputs": [],
					"stateMutability": "nonpayable",
					"type": "function"
				},
				{
					"inputs": [
						{
							"internalType": "string",
							"name": "shop",
							"type": "string"
						},
						{
							"internalType": "string",
							"name": "feedback",
							"type": "string"
						},
						{
							"internalType": "uint256",
							"name": "rating",
							"type": "uint256"
						}
					],
					"name": "leaveFeedback",
					"outputs": [],
					"stateMutability": "nonpayable",
					"type": "function"
				},
				{
					"inputs": [
						{
							"internalType": "string",
							"name": "login",
							"type": "string"
						},
						{
							"internalType": "uint256",
							"name": "password",
							"type": "uint256"
						}
					],
					"name": "login_user",
					"outputs": [],
					"stateMutability": "nonpayable",
					"type": "function"
				},
				{
					"inputs": [
						{
							"internalType": "string",
							"name": "titleProduct",
							"type": "string"
						}
					],
					"name": "productMarriageRegistration",
					"outputs": [],
					"stateMutability": "nonpayable",
					"type": "function"
				},
				{
					"inputs": [
						{
							"internalType": "string",
							"name": "titleProduct",
							"type": "string"
						}
					],
					"name": "productPurchases",
					"outputs": [],
					"stateMutability": "nonpayable",
					"type": "function"
				},
				{
					"inputs": [
						{
							"internalType": "string",
							"name": "titleProduct",
							"type": "string"
						}
					],
					"name": "productReturn",
					"outputs": [],
					"stateMutability": "nonpayable",
					"type": "function"
				},
				{
					"inputs": [
						{
							"internalType": "string",
							"name": "",
							"type": "string"
						}
					],
					"name": "shopLists",
					"outputs": [
						{
							"internalType": "address",
							"name": "",
							"type": "address"
						}
					],
					"stateMutability": "view",
					"type": "function"
				},
				{
					"inputs": [
						{
							"internalType": "uint256",
							"name": "",
							"type": "uint256"
						}
					],
					"name": "structMarriageRegistrations",
					"outputs": [
						{
							"internalType": "address",
							"name": "userLogin",
							"type": "address"
						},
						{
							"internalType": "string",
							"name": "titleProduct",
							"type": "string"
						},
						{
							"internalType": "bool",
							"name": "status",
							"type": "bool"
						}
					],
					"stateMutability": "view",
					"type": "function"
				},
				{
					"inputs": [
						{
							"internalType": "string",
							"name": "",
							"type": "string"
						}
					],
					"name": "structProducts",
					"outputs": [
						{
							"internalType": "address",
							"name": "shop",
							"type": "address"
						},
						{
							"internalType": "string",
							"name": "description",
							"type": "string"
						},
						{
							"internalType": "uint256",
							"name": "price",
							"type": "uint256"
						},
						{
							"internalType": "uint256",
							"name": "id",
							"type": "uint256"
						}
					],
					"stateMutability": "view",
					"type": "function"
				},
				{
					"inputs": [
						{
							"internalType": "uint256",
							"name": "",
							"type": "uint256"
						}
					],
					"name": "structStatusPurchases",
					"outputs": [
						{
							"internalType": "address",
							"name": "userLogin",
							"type": "address"
						},
						{
							"internalType": "string",
							"name": "titleProduct",
							"type": "string"
						},
						{
							"internalType": "bool",
							"name": "status",
							"type": "bool"
						}
					],
					"stateMutability": "view",
					"type": "function"
				},
				{
					"inputs": [
						{
							"internalType": "uint256",
							"name": "",
							"type": "uint256"
						}
					],
					"name": "structStatusReturns",
					"outputs": [
						{
							"internalType": "address",
							"name": "userLogin",
							"type": "address"
						},
						{
							"internalType": "string",
							"name": "titleProduct",
							"type": "string"
						},
						{
							"internalType": "bool",
							"name": "status",
							"type": "bool"
						}
					],
					"stateMutability": "view",
					"type": "function"
				},
				{
					"inputs": [
						{
							"internalType": "string",
							"name": "",
							"type": "string"
						}
					],
					"name": "structUserLogins",
					"outputs": [
						{
							"internalType": "address",
							"name": "",
							"type": "address"
						}
					],
					"stateMutability": "view",
					"type": "function"
				},
				{
					"inputs": [
						{
							"internalType": "address",
							"name": "",
							"type": "address"
						}
					],
					"name": "structUsers",
					"outputs": [
						{
							"internalType": "string",
							"name": "userName",
							"type": "string"
						},
						{
							"internalType": "uint256",
							"name": "password",
							"type": "uint256"
						},
						{
							"internalType": "uint256",
							"name": "ballance",
							"type": "uint256"
						},
						{
							"internalType": "bool",
							"name": "role",
							"type": "bool"
						},
						{
							"internalType": "bool",
							"name": "logged",
							"type": "bool"
						}
					],
					"stateMutability": "view",
					"type": "function"
				}
			],
			"devdoc": {
				"kind": "dev",
				"methods": {},
				"version": 1
			},
			"evm": {
				"assembly": "    /* \"Documents/GitHub/Store-system-with-feedback/main.sol\":74:9266  contract coursepaper {\r... */\n  mstore(0x40, 0x80)\n    /* \"Documents/GitHub/Store-system-with-feedback/main.sol\":2913:2914  0 */\n  0x00\n    /* \"Documents/GitHub/Store-system-with-feedback/main.sol\":2878:2914  uint256 addProductShop_idProduct = 0 */\n  0x0d\n  sstore\n    /* \"Documents/GitHub/Store-system-with-feedback/main.sol\":129:875  constructor() public {\r... */\n  callvalue\n  dup1\n  iszero\n  tag_1\n  jumpi\n  0x00\n  dup1\n  revert\ntag_1:\n  pop\n    /* \"Documents/GitHub/Store-system-with-feedback/main.sol\":232:274  structShop(\"Food\", \"1\", \"Moscow\", 1000, 0) */\n  0x40\n  dup1\n  mload\n  0xe0\n  dup2\n  add\n  dup3\n  mstore\n  0x04\n  0xa0\n  dup3\n  add\n  swap1\n  dup2\n  mstore\n  shl(0xe2, 0x119bdbd9)\n  0xc0\n  dup4\n  add\n  mstore\n  dup2\n  mstore\n  dup2\n  mload\n  dup1\n  dup4\n  add\n  dup4\n  mstore\n  0x01\n  dup2\n  mstore\n  shl(0xf8, 0x31)\n  0x20\n  dup3\n  dup2\n  add\n  swap2\n  swap1\n  swap2\n  mstore\n  dup1\n  dup4\n  add\n  swap2\n  swap1\n  swap2\n  mstore\n  dup3\n  mload\n  dup1\n  dup5\n  add\n  dup5\n  mstore\n  0x06\n  dup2\n  mstore\n  shl(0xd0, 0x4d6f73636f77)\n  dup2\n  dup4\n  add\n  mstore\n  swap3\n  dup3\n  add\n  swap3\n  swap1\n  swap3\n  mstore\n    /* \"Documents/GitHub/Store-system-with-feedback/main.sol\":266:270  1000 */\n  0x03e8\n  0x60\n  dup3\n  add\n    /* \"Documents/GitHub/Store-system-with-feedback/main.sol\":232:274  structShop(\"Food\", \"1\", \"Moscow\", 1000, 0) */\n  mstore\n  0x00\n  0x80\n  dup3\n  add\n  dup2\n  swap1\n  mstore\n    /* \"Documents/GitHub/Store-system-with-feedback/main.sol\":186:228  0xe99C55AC245Ce186aDbfE5b288b289F7ae9F0243 */\n  0xe99c55ac245ce186adbfe5b288b289f7ae9f0243\n    /* \"Documents/GitHub/Store-system-with-feedback/main.sol\":180:229  shops[0xe99C55AC245Ce186aDbfE5b288b289F7ae9F0243] */\n  dup2\n  mstore\n  dup3\n  mstore\n    /* \"Documents/GitHub/Store-system-with-feedback/main.sol\":180:274  shops[0xe99C55AC245Ce186aDbfE5b288b289F7ae9F0243] = structShop(\"Food\", \"1\", \"Moscow\", 1000, 0) */\n  dup1\n  mload\n  dup1\n  mload\n    /* \"Documents/GitHub/Store-system-with-feedback/main.sol\":232:274  structShop(\"Food\", \"1\", \"Moscow\", 1000, 0) */\n  swap2\n  swap3\n  0x00\n  dup1\n  mload\n  0x20\n  data_f42f4ea1a4cd40cedf05608f6b389dba2d0d81712415573129b23d3c3eeb7ee4\n  dup4\n  codecopy\n  dup2\n  mload\n  swap2\n  mstore\n    /* \"Documents/GitHub/Store-system-with-feedback/main.sol\":180:229  shops[0xe99C55AC245Ce186aDbfE5b288b289F7ae9F0243] */\n  swap3\n    /* \"Documents/GitHub/Store-system-with-feedback/main.sol\":180:274  shops[0xe99C55AC245Ce186aDbfE5b288b289F7ae9F0243] = structShop(\"Food\", \"1\", \"Moscow\", 1000, 0) */\n  tag_4\n  swap3\n    /* \"Documents/GitHub/Store-system-with-feedback/main.sol\":180:229  shops[0xe99C55AC245Ce186aDbfE5b288b289F7ae9F0243] */\n  dup5\n  swap3\n    /* \"Documents/GitHub/Store-system-with-feedback/main.sol\":180:274  shops[0xe99C55AC245Ce186aDbfE5b288b289F7ae9F0243] = structShop(\"Food\", \"1\", \"Moscow\", 1000, 0) */\n  add\n  swap1\n  tag_5\n  jump\t// in\ntag_4:\n  pop\n  0x20\n  dup3\n  dup2\n  add\n  mload\n  dup1\n  mload\n  tag_6\n  swap3\n  0x01\n  dup6\n  add\n  swap3\n  add\n  swap1\n  tag_5\n  jump\t// in\ntag_6:\n  pop\n  0x40\n  dup3\n  add\n  mload\n  dup1\n  mload\n  tag_7\n  swap2\n  0x02\n  dup5\n  add\n  swap2\n  0x20\n  swap1\n  swap2\n  add\n  swap1\n  tag_5\n  jump\t// in\ntag_7:\n  pop\n  0x60\n  dup3\n  add\n  mload\n  0x03\n  dup3\n  add\n  sstore\n  0x80\n  swap1\n  swap2\n  add\n  mload\n  0x04\n  swap1\n  swap2\n  add\n  sstore\n  0x00\n    /* \"Documents/GitHub/Store-system-with-feedback/main.sol\":299:348  shops[0xe99C55AC245Ce186aDbfE5b288b289F7ae9F0243] */\n  0x20\n  dup2\n  swap1\n  mstore\n    /* \"Documents/GitHub/Store-system-with-feedback/main.sol\":285:293  shopList */\n  0x02\n    /* \"Documents/GitHub/Store-system-with-feedback/main.sol\":285:354  shopList.push(shops[0xe99C55AC245Ce186aDbfE5b288b289F7ae9F0243].name) */\n  dup1\n  sload\n  0x01\n  dup2\n  add\n  dup3\n  sstore\n  swap2\n  mstore\n  0x00\n  dup1\n  mload\n  0x20\n  data_f42f4ea1a4cd40cedf05608f6b389dba2d0d81712415573129b23d3c3eeb7ee4\n  dup4\n  codecopy\n  dup2\n  mload\n  swap2\n  mstore\n  dup1\n  sload\n  0x00\n  dup1\n  mload\n  0x20\n  data_1ab0c6948a275349ae45a06aad66a8bd65ac18074615d53676c09b67809099e0\n  dup4\n  codecopy\n  dup2\n  mload\n  swap2\n  mstore\n  swap1\n  swap3\n  add\n  swap2\n  tag_9\n  swap1\n  tag_10\n  jump\t// in\ntag_9:\n  tag_11\n  swap3\n  swap2\n  swap1\n  tag_12\n  jump\t// in\ntag_11:\n  pop\n    /* \"Documents/GitHub/Store-system-with-feedback/main.sol\":417:466  structShop(\"Clothes\", \"2\", \"Petersburg\", 1000, 0) */\n  0x40\n  dup1\n  mload\n  0xe0\n  dup2\n  add\n  dup3\n  mstore\n  0x07\n  0xa0\n  dup3\n  add\n  swap1\n  dup2\n  mstore\n  shl(0xc8, 0x436c6f74686573)\n  0xc0\n  dup4\n  add\n  mstore\n  dup2\n  mstore\n  dup2\n  mload\n  dup1\n  dup4\n  add\n  dup4\n  mstore\n  0x01\n  dup2\n  mstore\n  shl(0xf9, 0x19)\n  0x20\n  dup3\n  dup2\n  add\n  swap2\n  swap1\n  swap2\n  mstore\n  dup1\n  dup4\n  add\n  swap2\n  swap1\n  swap2\n  mstore\n  dup3\n  mload\n  dup1\n  dup5\n  add\n  dup5\n  mstore\n  0x0a\n  dup2\n  mstore\n  shl(0xb0, 0x50657465727362757267)\n  dup2\n  dup4\n  add\n  mstore\n  swap3\n  dup3\n  add\n  swap3\n  swap1\n  swap3\n  mstore\n    /* \"Documents/GitHub/Store-system-with-feedback/main.sol\":458:462  1000 */\n  0x03e8\n  0x60\n  dup3\n  add\n    /* \"Documents/GitHub/Store-system-with-feedback/main.sol\":417:466  structShop(\"Clothes\", \"2\", \"Petersburg\", 1000, 0) */\n  mstore\n  0x00\n  0x80\n  dup3\n  add\n  dup2\n  swap1\n  mstore\n    /* \"Documents/GitHub/Store-system-with-feedback/main.sol\":371:413  0xEa4459f020f6cbFc65A86De447B1933Aa1C9F9f9 */\n  0xea4459f020f6cbfc65a86de447b1933aa1c9f9f9\n    /* \"Documents/GitHub/Store-system-with-feedback/main.sol\":365:414  shops[0xEa4459f020f6cbFc65A86De447B1933Aa1C9F9f9] */\n  dup2\n  mstore\n  dup3\n  mstore\n    /* \"Documents/GitHub/Store-system-with-feedback/main.sol\":365:466  shops[0xEa4459f020f6cbFc65A86De447B1933Aa1C9F9f9] = structShop(\"Clothes\", \"2\", \"Petersburg\", 1000, 0) */\n  dup1\n  mload\n  dup1\n  mload\n    /* \"Documents/GitHub/Store-system-with-feedback/main.sol\":417:466  structShop(\"Clothes\", \"2\", \"Petersburg\", 1000, 0) */\n  swap2\n  swap3\n  0x00\n  dup1\n  mload\n  0x20\n  data_f65a78b9c0c22f2a293865d6a8cd8ea4b3dd6532dd50dbbf6ec4fac3c8c279d5\n  dup4\n  codecopy\n  dup2\n  mload\n  swap2\n  mstore\n    /* \"Documents/GitHub/Store-system-with-feedback/main.sol\":365:414  shops[0xEa4459f020f6cbFc65A86De447B1933Aa1C9F9f9] */\n  swap3\n    /* \"Documents/GitHub/Store-system-with-feedback/main.sol\":365:466  shops[0xEa4459f020f6cbFc65A86De447B1933Aa1C9F9f9] = structShop(\"Clothes\", \"2\", \"Petersburg\", 1000, 0) */\n  tag_13\n  swap3\n    /* \"Documents/GitHub/Store-system-with-feedback/main.sol\":365:414  shops[0xEa4459f020f6cbFc65A86De447B1933Aa1C9F9f9] */\n  dup5\n  swap3\n    /* \"Documents/GitHub/Store-system-with-feedback/main.sol\":365:466  shops[0xEa4459f020f6cbFc65A86De447B1933Aa1C9F9f9] = structShop(\"Clothes\", \"2\", \"Petersburg\", 1000, 0) */\n  add\n  swap1\n  tag_5\n  jump\t// in\ntag_13:\n  pop\n  0x20\n  dup3\n  dup2\n  add\n  mload\n  dup1\n  mload\n  tag_14\n  swap3\n  0x01\n  dup6\n  add\n  swap3\n  add\n  swap1\n  tag_5\n  jump\t// in\ntag_14:\n  pop\n  0x40\n  dup3\n  add\n  mload\n  dup1\n  mload\n  tag_15\n  swap2\n  0x02\n  dup5\n  add\n  swap2\n  0x20\n  swap1\n  swap2\n  add\n  swap1\n  tag_5\n  jump\t// in\ntag_15:\n  pop\n  0x60\n  dup3\n  add\n  mload\n  0x03\n  dup3\n  add\n  sstore\n  0x80\n  swap1\n  swap2\n  add\n  mload\n  0x04\n  swap1\n  swap2\n  add\n  sstore\n  0x00\n    /* \"Documents/GitHub/Store-system-with-feedback/main.sol\":491:540  shops[0xEa4459f020f6cbFc65A86De447B1933Aa1C9F9f9] */\n  0x20\n  dup2\n  swap1\n  mstore\n    /* \"Documents/GitHub/Store-system-with-feedback/main.sol\":477:485  shopList */\n  0x02\n    /* \"Documents/GitHub/Store-system-with-feedback/main.sol\":477:546  shopList.push(shops[0xEa4459f020f6cbFc65A86De447B1933Aa1C9F9f9].name) */\n  dup1\n  sload\n  0x01\n  dup2\n  add\n  dup3\n  sstore\n  swap2\n  mstore\n  0x00\n  dup1\n  mload\n  0x20\n  data_f65a78b9c0c22f2a293865d6a8cd8ea4b3dd6532dd50dbbf6ec4fac3c8c279d5\n  dup4\n  codecopy\n  dup2\n  mload\n  swap2\n  mstore\n  dup1\n  sload\n  0x00\n  dup1\n  mload\n  0x20\n  data_1ab0c6948a275349ae45a06aad66a8bd65ac18074615d53676c09b67809099e0\n  dup4\n  codecopy\n  dup2\n  mload\n  swap2\n  mstore\n  swap1\n  swap3\n  add\n  swap2\n  tag_17\n  swap1\n  tag_10\n  jump\t// in\ntag_17:\n  tag_18\n  swap3\n  swap2\n  swap1\n  tag_12\n  jump\t// in\ntag_18:\n  pop\n    /* \"Documents/GitHub/Store-system-with-feedback/main.sol\":602:644  0x8bE65d204A762B0A1e61039a1bA362eBe65B21c1 */\n  0x8be65d204a762b0a1e61039a1ba362ebe65b21c1\n    /* \"Documents/GitHub/Store-system-with-feedback/main.sol\":575:591  structUserLogins */\n  0x05\n    /* \"Documents/GitHub/Store-system-with-feedback/main.sol\":575:599  structUserLogins[\"Peta\"] */\n  mload(0x40)\n  tag_19\n  swap1\n  shl(0xe0, 0x50657461)\n    /* \"#utility.yul\":216:235   */\n  dup2\n  mstore\n    /* \"#utility.yul\":260:261   */\n  0x04\n    /* \"#utility.yul\":251:262   */\n  add\n  swap1\n    /* \"#utility.yul\":14:268   */\n  jump\n    /* \"Documents/GitHub/Store-system-with-feedback/main.sol\":575:599  structUserLogins[\"Peta\"] */\ntag_19:\n  swap1\n  dup2\n  mstore\n  0x40\n  dup1\n  mload\n  0x20\n  swap3\n  dup2\n  swap1\n  sub\n  dup4\n  add\n  dup2\n  keccak256\n    /* \"Documents/GitHub/Store-system-with-feedback/main.sol\":575:644  structUserLogins[\"Peta\"] = 0x8bE65d204A762B0A1e61039a1bA362eBe65B21c1 */\n  dup1\n  sload\n  not(sub(shl(0xa0, 0x01), 0x01))\n  and\n  sub(shl(0xa0, 0x01), 0x01)\n  swap6\n  swap1\n  swap6\n  and\n  swap5\n  swap1\n  swap5\n  or\n  swap1\n  swap4\n  sstore\n    /* \"Documents/GitHub/Store-system-with-feedback/main.sol\":713:752  structUser(\"Peta\" ,1, 1000, true, true) */\n  0xe0\n  dup4\n  add\n  dup2\n  mstore\n  0x04\n  0xa0\n  dup5\n  add\n  dup2\n  dup2\n  mstore\n  shl(0xe0, 0x50657461)\n  0xc0\n  dup7\n  add\n  mstore\n  dup5\n  mstore\n  0x01\n  dup4\n  dup6\n  add\n  dup2\n  swap1\n  mstore\n    /* \"Documents/GitHub/Store-system-with-feedback/main.sol\":735:739  1000 */\n  0x03e8\n    /* \"Documents/GitHub/Store-system-with-feedback/main.sol\":713:752  structUser(\"Peta\" ,1, 1000, true, true) */\n  swap3\n  dup6\n  add\n  swap3\n  swap1\n  swap3\n  mstore\n  0x60\n  dup5\n  add\n  dup3\n  swap1\n  mstore\n  0x80\n  dup5\n  add\n  swap2\n  swap1\n  swap2\n  mstore\n    /* \"Documents/GitHub/Store-system-with-feedback/main.sol\":667:709  0x8bE65d204A762B0A1e61039a1bA362eBe65B21c1 */\n  0x8be65d204a762b0a1e61039a1ba362ebe65b21c1\n  0x00\n    /* \"Documents/GitHub/Store-system-with-feedback/main.sol\":655:710  structUsers[0x8bE65d204A762B0A1e61039a1bA362eBe65B21c1] */\n  mstore\n  dup2\n  mstore\n    /* \"Documents/GitHub/Store-system-with-feedback/main.sol\":655:752  structUsers[0x8bE65d204A762B0A1e61039a1bA362eBe65B21c1] = structUser(\"Peta\" ,1, 1000, true, true) */\n  dup2\n  mload\n  dup1\n  mload\n    /* \"Documents/GitHub/Store-system-with-feedback/main.sol\":655:710  structUsers[0x8bE65d204A762B0A1e61039a1bA362eBe65B21c1] */\n  0xd17570c1fab7a57a200783c8f7634aa181849d996af02bfa1a4c343dff09b133\n  swap3\n    /* \"Documents/GitHub/Store-system-with-feedback/main.sol\":655:752  structUsers[0x8bE65d204A762B0A1e61039a1bA362eBe65B21c1] = structUser(\"Peta\" ,1, 1000, true, true) */\n  tag_21\n  swap3\n    /* \"Documents/GitHub/Store-system-with-feedback/main.sol\":655:710  structUsers[0x8bE65d204A762B0A1e61039a1bA362eBe65B21c1] */\n  dup5\n  swap3\n    /* \"Documents/GitHub/Store-system-with-feedback/main.sol\":655:752  structUsers[0x8bE65d204A762B0A1e61039a1bA362eBe65B21c1] = structUser(\"Peta\" ,1, 1000, true, true) */\n  swap2\n  add\n  swap1\n  tag_5\n  jump\t// in\ntag_21:\n  pop\n  0x20\n  dup3\n  dup2\n  add\n  mload\n  0x01\n  dup1\n  dup5\n  add\n  swap2\n  swap1\n  swap2\n  sstore\n  0x40\n  dup1\n  dup6\n  add\n  mload\n  0x02\n  dup6\n  add\n  sstore\n  0x60\n  dup6\n  add\n  mload\n  0x03\n  swap1\n  swap5\n  add\n  dup1\n  sload\n  0x80\n  swap1\n  swap7\n  add\n  mload\n  iszero\n  iszero\n  0x0100\n  mul\n  not(0xff00)\n  swap6\n  iszero\n  iszero\n  swap6\n  swap1\n  swap6\n  and\n  not(0xffff)\n  swap1\n  swap7\n  and\n  swap6\n  swap1\n  swap6\n  or\n  swap4\n  swap1\n  swap4\n  or\n  swap1\n  swap4\n  sstore\n    /* \"Documents/GitHub/Store-system-with-feedback/main.sol\":763:778  userLoginsArray */\n  0x06\n    /* \"Documents/GitHub/Store-system-with-feedback/main.sol\":763:791  userLoginsArray.push(\"Peta\") */\n  dup1\n  sload\n  swap4\n  dup5\n  add\n  dup2\n  sstore\n  0x00\n  mstore\n  dup2\n  mload\n  dup1\n  dup4\n  add\n  swap1\n  swap3\n  mstore\n  0x04\n  dup1\n  dup4\n  mstore\n  shl(0xe0, 0x50657461)\n  swap3\n  swap1\n  swap2\n  add\n  swap2\n  dup3\n  mstore\n  tag_23\n  swap3\n  0xf652222313e28459528d920b65115c16c04f3efc82aaedc97be59f3f377c0d3f\n  add\n  swap2\n  swap1\n  tag_5\n  jump\t// in\ntag_23:\n  pop\n    /* \"Documents/GitHub/Store-system-with-feedback/main.sol\":802:818  userAddressArray */\n  0x07\n    /* \"Documents/GitHub/Store-system-with-feedback/main.sol\":802:867  userAddressArray.push(0x8bE65d204A762B0A1e61039a1bA362eBe65B21c1) */\n  dup1\n  sload\n  0x01\n  dup2\n  add\n  dup3\n  sstore\n  0x00\n  swap2\n  swap1\n  swap2\n  mstore\n  0xa66cc928b5edb82af9bd49922954155ab7b0942694bea4ce44661d9a8736c688\n  add\n  dup1\n  sload\n  not(sub(shl(0xa0, 0x01), 0x01))\n  and\n    /* \"Documents/GitHub/Store-system-with-feedback/main.sol\":824:866  0x8bE65d204A762B0A1e61039a1bA362eBe65B21c1 */\n  0x8be65d204a762b0a1e61039a1ba362ebe65b21c1\n    /* \"Documents/GitHub/Store-system-with-feedback/main.sol\":802:867  userAddressArray.push(0x8bE65d204A762B0A1e61039a1bA362eBe65B21c1) */\n  or\n  swap1\n  sstore\n    /* \"Documents/GitHub/Store-system-with-feedback/main.sol\":74:9266  contract coursepaper {\r... */\n  jump(tag_43)\ntag_5:\n  dup3\n  dup1\n  sload\n  tag_26\n  swap1\n  tag_10\n  jump\t// in\ntag_26:\n  swap1\n  0x00\n  mstore\n  keccak256(0x00, 0x20)\n  swap1\n  0x1f\n  add\n  0x20\n  swap1\n  div\n  dup2\n  add\n  swap3\n  dup3\n  tag_28\n  jumpi\n  0x00\n  dup6\n  sstore\n  jump(tag_31)\ntag_28:\n  dup3\n  0x1f\n  lt\n  tag_29\n  jumpi\n  dup1\n  mload\n  not(0xff)\n  and\n  dup4\n  dup1\n  add\n  or\n  dup6\n  sstore\n  jump(tag_31)\ntag_29:\n  dup3\n  dup1\n  add\n  0x01\n  add\n  dup6\n  sstore\n  dup3\n  iszero\n  tag_31\n  jumpi\n  swap2\n  dup3\n  add\ntag_30:\n  dup3\n  dup2\n  gt\n  iszero\n  tag_31\n  jumpi\n  dup3\n  mload\n  dup3\n  sstore\n  swap2\n  0x20\n  add\n  swap2\n  swap1\n  0x01\n  add\n  swap1\n  jump(tag_30)\ntag_31:\n  pop\n  tag_32\n  swap3\n  swap2\n  pop\n  tag_33\n  jump\t// in\ntag_32:\n  pop\n  swap1\n  jump\t// out\ntag_12:\n  dup3\n  dup1\n  sload\n  tag_34\n  swap1\n  tag_10\n  jump\t// in\ntag_34:\n  swap1\n  0x00\n  mstore\n  keccak256(0x00, 0x20)\n  swap1\n  0x1f\n  add\n  0x20\n  swap1\n  div\n  dup2\n  add\n  swap3\n  dup3\n  tag_36\n  jumpi\n  0x00\n  dup6\n  sstore\n  jump(tag_31)\ntag_36:\n  dup3\n  0x1f\n  lt\n  tag_37\n  jumpi\n  dup1\n  sload\n  dup6\n  sstore\n  jump(tag_31)\ntag_37:\n  dup3\n  dup1\n  add\n  0x01\n  add\n  dup6\n  sstore\n  dup3\n  iszero\n  tag_31\n  jumpi\n  0x00\n  mstore\n  keccak256(0x00, 0x20)\n  swap2\n  0x1f\n  add\n  0x20\n  swap1\n  div\n  dup3\n  add\ntag_38:\n  dup3\n  dup2\n  gt\n  iszero\n  tag_31\n  jumpi\n  dup3\n  sload\n  dup3\n  sstore\n  swap2\n  0x01\n  add\n  swap2\n  swap1\n  0x01\n  add\n  swap1\n  jump(tag_38)\ntag_33:\ntag_41:\n  dup1\n  dup3\n  gt\n  iszero\n  tag_32\n  jumpi\n  0x00\n  dup2\n  sstore\n  0x01\n  add\n  jump(tag_41)\n    /* \"#utility.yul\":273:653   */\ntag_10:\n    /* \"#utility.yul\":352:353   */\n  0x01\n    /* \"#utility.yul\":348:360   */\n  dup2\n  dup2\n  shr\n  swap1\n    /* \"#utility.yul\":395:407   */\n  dup3\n  and\n  dup1\n    /* \"#utility.yul\":416:477   */\n  tag_46\n  jumpi\n    /* \"#utility.yul\":470:474   */\n  0x7f\n    /* \"#utility.yul\":462:468   */\n  dup3\n    /* \"#utility.yul\":458:475   */\n  and\n    /* \"#utility.yul\":448:475   */\n  swap2\n  pop\n    /* \"#utility.yul\":416:477   */\ntag_46:\n    /* \"#utility.yul\":523:525   */\n  0x20\n    /* \"#utility.yul\":515:521   */\n  dup3\n    /* \"#utility.yul\":512:526   */\n  lt\n    /* \"#utility.yul\":492:510   */\n  dup2\n    /* \"#utility.yul\":489:527   */\n  eq\n    /* \"#utility.yul\":486:647   */\n  iszero\n  tag_47\n  jumpi\n    /* \"#utility.yul\":569:579   */\n  0x4e487b71\n    /* \"#utility.yul\":564:567   */\n  0xe0\n    /* \"#utility.yul\":560:580   */\n  shl\n    /* \"#utility.yul\":557:558   */\n  0x00\n    /* \"#utility.yul\":550:581   */\n  mstore\n    /* \"#utility.yul\":604:608   */\n  0x22\n    /* \"#utility.yul\":601:602   */\n  0x04\n    /* \"#utility.yul\":594:609   */\n  mstore\n    /* \"#utility.yul\":632:636   */\n  0x24\n    /* \"#utility.yul\":629:630   */\n  0x00\n    /* \"#utility.yul\":622:637   */\n  revert\n    /* \"#utility.yul\":486:647   */\ntag_47:\n  pop\n    /* \"#utility.yul\":273:653   */\n  swap2\n  swap1\n  pop\n  jump\t// out\ntag_43:\n    /* \"Documents/GitHub/Store-system-with-feedback/main.sol\":74:9266  contract coursepaper {\r... */\n  dataSize(sub_0)\n  dup1\n  dataOffset(sub_0)\n  0x00\n  codecopy\n  0x00\n  return\nstop\ndata_1ab0c6948a275349ae45a06aad66a8bd65ac18074615d53676c09b67809099e0 405787fa12a823e0f2b7631cc41b3ba8828b3321ca811111fa75cd3aa3bb5ace\ndata_f42f4ea1a4cd40cedf05608f6b389dba2d0d81712415573129b23d3c3eeb7ee4 a4629bf9daa4d0816e85b79d58daaabcac7b71b32d11bdfd27785bb59cd6cac6\ndata_f65a78b9c0c22f2a293865d6a8cd8ea4b3dd6532dd50dbbf6ec4fac3c8c279d5 cb970ebb9edb880ac802b1a3c9eefe4439695bf104b16c8261476629532582fa\n\nsub_0: assembly {\n        /* \"Documents/GitHub/Store-system-with-feedback/main.sol\":74:9266  contract coursepaper {\r... */\n      mstore(0x40, 0x80)\n      callvalue\n      dup1\n      iszero\n      tag_1\n      jumpi\n      0x00\n      dup1\n      revert\n    tag_1:\n      pop\n      jumpi(tag_2, lt(calldatasize, 0x04))\n      shr(0xe0, calldataload(0x00))\n      dup1\n      0x0c72b1ec\n      eq\n      tag_3\n      jumpi\n      dup1\n      0x146dc6ed\n      eq\n      tag_4\n      jumpi\n      dup1\n      0x1bbe970a\n      eq\n      tag_5\n      jumpi\n      dup1\n      0x29e795f3\n      eq\n      tag_6\n      jumpi\n      dup1\n      0x2ccdef7c\n      eq\n      tag_7\n      jumpi\n      dup1\n      0x2d4673e3\n      eq\n      tag_8\n      jumpi\n      dup1\n      0x34d2c0ad\n      eq\n      tag_9\n      jumpi\n      dup1\n      0x6ba44d3c\n      eq\n      tag_10\n      jumpi\n      dup1\n      0x6c05dd1d\n      eq\n      tag_11\n      jumpi\n      dup1\n      0x7ddb273d\n      eq\n      tag_12\n      jumpi\n      dup1\n      0x94b790ff\n      eq\n      tag_13\n      jumpi\n      dup1\n      0x961865f0\n      eq\n      tag_14\n      jumpi\n      dup1\n      0xa985036d\n      eq\n      tag_15\n      jumpi\n      dup1\n      0xa9f9482b\n      eq\n      tag_16\n      jumpi\n      dup1\n      0xbbd43363\n      eq\n      tag_17\n      jumpi\n      dup1\n      0xc178b9af\n      eq\n      tag_18\n      jumpi\n      dup1\n      0xc4957fa0\n      eq\n      tag_19\n      jumpi\n      dup1\n      0xcc21c188\n      eq\n      tag_20\n      jumpi\n      dup1\n      0xd68cf8c1\n      eq\n      tag_21\n      jumpi\n      dup1\n      0xdce39151\n      eq\n      tag_22\n      jumpi\n      dup1\n      0xe38d9087\n      eq\n      tag_23\n      jumpi\n      dup1\n      0xf69483c1\n      eq\n      tag_24\n      jumpi\n    tag_2:\n      0x00\n      dup1\n      revert\n        /* \"Documents/GitHub/Store-system-with-feedback/main.sol\":4000:4628  function acceptPurchase (uint idPurchase, bool confirmation) public {\r... */\n    tag_3:\n      tag_25\n      tag_26\n      calldatasize\n      0x04\n      tag_27\n      jump\t// in\n    tag_26:\n      tag_28\n      jump\t// in\n    tag_25:\n      stop\n        /* \"Documents/GitHub/Store-system-with-feedback/main.sol\":7452:7723  function productPurchases (string memory titleProduct) public {\r... */\n    tag_4:\n      tag_25\n      tag_30\n      calldatasize\n      0x04\n      tag_31\n      jump\t// in\n    tag_30:\n      tag_32\n      jump\t// in\n        /* \"Documents/GitHub/Store-system-with-feedback/main.sol\":1789:1839  mapping(string => address) public structUserLogins */\n    tag_5:\n      tag_33\n      tag_34\n      calldatasize\n      0x04\n      tag_31\n      jump\t// in\n    tag_34:\n      dup1\n      mload\n      0x20\n      dup2\n      dup4\n      add\n      dup2\n      add\n      dup1\n      mload\n      0x05\n      dup3\n      mstore\n      swap3\n      dup3\n      add\n      swap2\n      swap1\n      swap4\n      add\n      keccak256\n      swap2\n      mstore\n      sload\n      sub(shl(0xa0, 0x01), 0x01)\n      and\n      dup2\n      jump\n    tag_33:\n      mload(0x40)\n      sub(shl(0xa0, 0x01), 0x01)\n        /* \"#utility.yul\":7025:7057   */\n      swap1\n      swap2\n      and\n        /* \"#utility.yul\":7007:7058   */\n      dup2\n      mstore\n        /* \"#utility.yul\":6995:6997   */\n      0x20\n        /* \"#utility.yul\":6980:6998   */\n      add\n        /* \"Documents/GitHub/Store-system-with-feedback/main.sol\":1789:1839  mapping(string => address) public structUserLogins */\n    tag_36:\n      mload(0x40)\n      dup1\n      swap2\n      sub\n      swap1\n      return\n        /* \"Documents/GitHub/Store-system-with-feedback/main.sol\":6946:7365  function leaveComment (string memory userName, string[] memory comment) public {\r... */\n    tag_6:\n      tag_25\n      tag_39\n      calldatasize\n      0x04\n      tag_40\n      jump\t// in\n    tag_39:\n      tag_41\n      jump\t// in\n        /* \"Documents/GitHub/Store-system-with-feedback/main.sol\":4673:5134  function acceptReturn(uint idReturn, bool confirmation) public {\r... */\n    tag_7:\n      tag_25\n      tag_43\n      calldatasize\n      0x04\n      tag_27\n      jump\t// in\n    tag_43:\n      tag_44\n      jump\t// in\n        /* \"Documents/GitHub/Store-system-with-feedback/main.sol\":7962:8146  function productMarriageRegistration (string memory titleProduct) public {\r... */\n    tag_8:\n      tag_25\n      tag_46\n      calldatasize\n      0x04\n      tag_31\n      jump\t// in\n    tag_46:\n      tag_47\n      jump\t// in\n        /* \"Documents/GitHub/Store-system-with-feedback/main.sol\":5921:6021  function getProductList() public view returns(string[] memory) {\r... */\n    tag_9:\n      tag_48\n      tag_49\n      jump\t// in\n    tag_48:\n      mload(0x40)\n      tag_36\n      swap2\n      swap1\n      tag_51\n      jump\t// in\n        /* \"Documents/GitHub/Store-system-with-feedback/main.sol\":8190:8311  function get_address(string memory login) public view returns(address) {\r... */\n    tag_10:\n      tag_33\n      tag_53\n      calldatasize\n      0x04\n      tag_31\n      jump\t// in\n    tag_53:\n      tag_54\n      jump\t// in\n        /* \"Documents/GitHub/Store-system-with-feedback/main.sol\":2921:3320  function addProductShop (string memory title, uint256 price, string memory description) public {\r... */\n    tag_11:\n      tag_25\n      tag_57\n      calldatasize\n      0x04\n      tag_58\n      jump\t// in\n    tag_57:\n      tag_59\n      jump\t// in\n        /* \"Documents/GitHub/Store-system-with-feedback/main.sol\":2736:2799  structMarriageRegistration[] public structMarriageRegistrations */\n    tag_12:\n      tag_60\n      tag_61\n      calldatasize\n      0x04\n      tag_62\n      jump\t// in\n    tag_61:\n      tag_63\n      jump\t// in\n    tag_60:\n      mload(0x40)\n      tag_36\n      swap4\n      swap3\n      swap2\n      swap1\n      tag_65\n      jump\t// in\n        /* \"Documents/GitHub/Store-system-with-feedback/main.sol\":8815:9242  function login_user(string memory login, uint password) public {\r... */\n    tag_13:\n      tag_25\n      tag_67\n      calldatasize\n      0x04\n      tag_68\n      jump\t// in\n    tag_67:\n      tag_69\n      jump\t// in\n        /* \"Documents/GitHub/Store-system-with-feedback/main.sol\":1733:1782  mapping(address => structUser) public structUsers */\n    tag_14:\n      tag_70\n      tag_71\n      calldatasize\n      0x04\n      tag_72\n      jump\t// in\n    tag_71:\n      tag_73\n      jump\t// in\n    tag_70:\n      mload(0x40)\n      tag_36\n      swap6\n      swap5\n      swap4\n      swap3\n      swap2\n      swap1\n      tag_75\n      jump\t// in\n        /* \"Documents/GitHub/Store-system-with-feedback/main.sol\":6053:6906  function getStoryRating(string memory shopName) public view returns(uint) {\r... */\n    tag_15:\n      tag_76\n      tag_77\n      calldatasize\n      0x04\n      tag_31\n      jump\t// in\n    tag_77:\n      tag_78\n      jump\t// in\n    tag_76:\n      mload(0x40)\n        /* \"#utility.yul\":11947:11972   */\n      swap1\n      dup2\n      mstore\n        /* \"#utility.yul\":11935:11937   */\n      0x20\n        /* \"#utility.yul\":11920:11938   */\n      add\n        /* \"Documents/GitHub/Store-system-with-feedback/main.sol\":6053:6906  function getStoryRating(string memory shopName) public view returns(uint) {\r... */\n      tag_36\n        /* \"#utility.yul\":11801:11978   */\n      jump\n        /* \"Documents/GitHub/Store-system-with-feedback/main.sol\":2516:2563  structStatusReturn[] public structStatusReturns */\n    tag_16:\n      tag_60\n      tag_82\n      calldatasize\n      0x04\n      tag_62\n      jump\t// in\n    tag_82:\n      tag_83\n      jump\t// in\n        /* \"Documents/GitHub/Store-system-with-feedback/main.sol\":7762:7916  function productReturn (string memory titleProduct) public {\r... */\n    tag_17:\n      tag_25\n      tag_86\n      calldatasize\n      0x04\n      tag_31\n      jump\t// in\n    tag_86:\n      tag_87\n      jump\t// in\n        /* \"Documents/GitHub/Store-system-with-feedback/main.sol\":5791:5885  function getShopList() public view returns(string[] memory) {\r... */\n    tag_18:\n      tag_48\n      tag_89\n      jump\t// in\n        /* \"Documents/GitHub/Store-system-with-feedback/main.sol\":1191:1234  mapping(string => address) public shopLists */\n    tag_19:\n      tag_33\n      tag_92\n      calldatasize\n      0x04\n      tag_31\n      jump\t// in\n    tag_92:\n      dup1\n      mload\n      0x20\n      dup2\n      dup4\n      add\n      dup2\n      add\n      dup1\n      mload\n      0x01\n      dup3\n      mstore\n      swap3\n      dup3\n      add\n      swap2\n      swap1\n      swap4\n      add\n      keccak256\n      swap2\n      mstore\n      sload\n      sub(shl(0xa0, 0x01), 0x01)\n      and\n      dup2\n      jump\n        /* \"Documents/GitHub/Store-system-with-feedback/main.sol\":3365:3953  function leaveFeedback (string memory shop, string memory feedback, uint256 rating) public {\r... */\n    tag_20:\n      tag_25\n      tag_96\n      calldatasize\n      0x04\n      tag_97\n      jump\t// in\n    tag_96:\n      tag_98\n      jump\t// in\n        /* \"Documents/GitHub/Store-system-with-feedback/main.sol\":2065:2119  mapping(string => structProduct) public structProducts */\n    tag_21:\n      tag_99\n      tag_100\n      calldatasize\n      0x04\n      tag_31\n      jump\t// in\n    tag_100:\n      tag_101\n      jump\t// in\n    tag_99:\n      mload(0x40)\n      tag_36\n      swap5\n      swap4\n      swap3\n      swap2\n      swap1\n      tag_103\n      jump\t// in\n        /* \"Documents/GitHub/Store-system-with-feedback/main.sol\":2308:2359  structStatusPurchase[] public structStatusPurchases */\n    tag_22:\n      tag_60\n      tag_105\n      calldatasize\n      0x04\n      tag_62\n      jump\t// in\n    tag_105:\n      tag_106\n      jump\t// in\n        /* \"Documents/GitHub/Store-system-with-feedback/main.sol\":8345:8781  function create_user(address addr, string memory login, uint password) public {\r... */\n    tag_23:\n      tag_25\n      tag_109\n      calldatasize\n      0x04\n      tag_110\n      jump\t// in\n    tag_109:\n      tag_111\n      jump\t// in\n        /* \"Documents/GitHub/Store-system-with-feedback/main.sol\":5180:5757  function MarriageRegistration(uint idMarriageRegistration, bool confirmation) public {\r... */\n    tag_24:\n      tag_25\n      tag_113\n      calldatasize\n      0x04\n      tag_27\n      jump\t// in\n    tag_113:\n      tag_114\n      jump\t// in\n        /* \"Documents/GitHub/Store-system-with-feedback/main.sol\":4000:4628  function acceptPurchase (uint idPurchase, bool confirmation) public {\r... */\n    tag_28:\n        /* \"Documents/GitHub/Store-system-with-feedback/main.sol\":4099:4103  true */\n      0x01\n        /* \"Documents/GitHub/Store-system-with-feedback/main.sol\":4083:4103  confirmation == true */\n      dup2\n      iszero\n      iszero\n      eq\n        /* \"Documents/GitHub/Store-system-with-feedback/main.sol\":4079:4621  if (confirmation == true) {\r... */\n      iszero\n      tag_116\n      jumpi\n        /* \"Documents/GitHub/Store-system-with-feedback/main.sol\":4163:4168  false */\n      0x00\n        /* \"Documents/GitHub/Store-system-with-feedback/main.sol\":4120:4141  structStatusPurchases */\n      0x0a\n        /* \"Documents/GitHub/Store-system-with-feedback/main.sol\":4142:4152  idPurchase */\n      dup4\n        /* \"Documents/GitHub/Store-system-with-feedback/main.sol\":4120:4153  structStatusPurchases[idPurchase] */\n      dup2\n      sload\n      dup2\n      lt\n      tag_118\n      jumpi\n      tag_118\n      tag_119\n      jump\t// in\n    tag_118:\n      swap1\n      0x00\n      mstore\n      keccak256(0x00, 0x20)\n      swap1\n      0x03\n      mul\n      add\n        /* \"Documents/GitHub/Store-system-with-feedback/main.sol\":4120:4160  structStatusPurchases[idPurchase].status */\n      0x02\n      add\n      0x00\n        /* \"Documents/GitHub/Store-system-with-feedback/main.sol\":4120:4168  structStatusPurchases[idPurchase].status = false */\n      0x0100\n      exp\n      dup2\n      sload\n      dup2\n      0xff\n      mul\n      not\n      and\n      swap1\n      dup4\n      iszero\n      iszero\n      mul\n      or\n      swap1\n      sstore\n      pop\n        /* \"Documents/GitHub/Store-system-with-feedback/main.sol\":4319:4333  structProducts */\n      0x08\n        /* \"Documents/GitHub/Store-system-with-feedback/main.sol\":4334:4355  structStatusPurchases */\n      0x0a\n        /* \"Documents/GitHub/Store-system-with-feedback/main.sol\":4356:4366  idPurchase */\n      dup4\n        /* \"Documents/GitHub/Store-system-with-feedback/main.sol\":4334:4367  structStatusPurchases[idPurchase] */\n      dup2\n      sload\n      dup2\n      lt\n      tag_122\n      jumpi\n      tag_122\n      tag_119\n      jump\t// in\n    tag_122:\n      swap1\n      0x00\n      mstore\n      keccak256(0x00, 0x20)\n      swap1\n      0x03\n      mul\n      add\n        /* \"Documents/GitHub/Store-system-with-feedback/main.sol\":4334:4380  structStatusPurchases[idPurchase].titleProduct */\n      0x01\n      add\n        /* \"Documents/GitHub/Store-system-with-feedback/main.sol\":4319:4381  structProducts[structStatusPurchases[idPurchase].titleProduct] */\n      mload(0x40)\n      tag_124\n      swap2\n      swap1\n      tag_125\n      jump\t// in\n    tag_124:\n      swap1\n      dup2\n      mstore\n      0x20\n      add\n      mload(0x40)\n      dup1\n      swap2\n      sub\n      swap1\n      keccak256\n        /* \"Documents/GitHub/Store-system-with-feedback/main.sol\":4319:4387  structProducts[structStatusPurchases[idPurchase].titleProduct].price */\n      0x02\n      add\n      sload\n        /* \"Documents/GitHub/Store-system-with-feedback/main.sol\":4251:4262  structUsers */\n      0x04\n        /* \"Documents/GitHub/Store-system-with-feedback/main.sol\":4251:4307  structUsers[structStatusPurchases[idPurchase].userLogin] */\n      0x00\n        /* \"Documents/GitHub/Store-system-with-feedback/main.sol\":4263:4284  structStatusPurchases */\n      0x0a\n        /* \"Documents/GitHub/Store-system-with-feedback/main.sol\":4285:4295  idPurchase */\n      dup6\n        /* \"Documents/GitHub/Store-system-with-feedback/main.sol\":4263:4296  structStatusPurchases[idPurchase] */\n      dup2\n      sload\n      dup2\n      lt\n      tag_127\n      jumpi\n      tag_127\n      tag_119\n      jump\t// in\n    tag_127:\n      0x00\n      swap2\n      dup3\n      mstore\n      0x20\n      dup1\n      dup4\n      keccak256\n      0x03\n      swap1\n      swap3\n      mul\n      swap1\n      swap2\n      add\n        /* \"Documents/GitHub/Store-system-with-feedback/main.sol\":4263:4306  structStatusPurchases[idPurchase].userLogin */\n      sload\n      sub(shl(0xa0, 0x01), 0x01)\n      and\n        /* \"Documents/GitHub/Store-system-with-feedback/main.sol\":4251:4307  structUsers[structStatusPurchases[idPurchase].userLogin] */\n      dup4\n      mstore\n      dup3\n      add\n      swap3\n      swap1\n      swap3\n      mstore\n      0x40\n      add\n      swap1\n      keccak256\n        /* \"Documents/GitHub/Store-system-with-feedback/main.sol\":4251:4316  structUsers[structStatusPurchases[idPurchase].userLogin].ballance */\n      0x02\n      add\n      sload\n        /* \"Documents/GitHub/Store-system-with-feedback/main.sol\":4251:4387  structUsers[structStatusPurchases[idPurchase].userLogin].ballance - structProducts[structStatusPurchases[idPurchase].titleProduct].price */\n      tag_129\n      swap2\n      swap1\n      tag_130\n      jump\t// in\n    tag_129:\n        /* \"Documents/GitHub/Store-system-with-feedback/main.sol\":4183:4194  structUsers */\n      0x04\n        /* \"Documents/GitHub/Store-system-with-feedback/main.sol\":4183:4239  structUsers[structStatusPurchases[idPurchase].userLogin] */\n      0x00\n        /* \"Documents/GitHub/Store-system-with-feedback/main.sol\":4195:4216  structStatusPurchases */\n      0x0a\n        /* \"Documents/GitHub/Store-system-with-feedback/main.sol\":4217:4227  idPurchase */\n      dup6\n        /* \"Documents/GitHub/Store-system-with-feedback/main.sol\":4195:4228  structStatusPurchases[idPurchase] */\n      dup2\n      sload\n      dup2\n      lt\n      tag_132\n      jumpi\n      tag_132\n      tag_119\n      jump\t// in\n    tag_132:\n      0x00\n      swap2\n      dup3\n      mstore\n      0x20\n      dup1\n      dup4\n      keccak256\n      0x03\n      swap1\n      swap3\n      mul\n      swap1\n      swap2\n      add\n        /* \"Documents/GitHub/Store-system-with-feedback/main.sol\":4195:4238  structStatusPurchases[idPurchase].userLogin */\n      sload\n      sub(shl(0xa0, 0x01), 0x01)\n      and\n        /* \"Documents/GitHub/Store-system-with-feedback/main.sol\":4183:4239  structUsers[structStatusPurchases[idPurchase].userLogin] */\n      dup4\n      mstore\n      dup3\n      add\n      swap3\n      swap1\n      swap3\n      mstore\n      0x40\n      add\n      swap1\n      keccak256\n        /* \"Documents/GitHub/Store-system-with-feedback/main.sol\":4183:4248  structUsers[structStatusPurchases[idPurchase].userLogin].ballance */\n      0x02\n      add\n        /* \"Documents/GitHub/Store-system-with-feedback/main.sol\":4183:4387  structUsers[structStatusPurchases[idPurchase].userLogin].ballance = structUsers[structStatusPurchases[idPurchase].userLogin].ballance - structProducts[structStatusPurchases[idPurchase].titleProduct].price */\n      sstore\n        /* \"Documents/GitHub/Store-system-with-feedback/main.sol\":4475:4496  structStatusPurchases */\n      0x0a\n        /* \"Documents/GitHub/Store-system-with-feedback/main.sol\":4475:4508  structStatusPurchases[idPurchase] */\n      dup1\n      sload\n        /* \"Documents/GitHub/Store-system-with-feedback/main.sol\":4460:4474  structProducts */\n      0x08\n      swap2\n        /* \"Documents/GitHub/Store-system-with-feedback/main.sol\":4475:4496  structStatusPurchases */\n      swap1\n        /* \"Documents/GitHub/Store-system-with-feedback/main.sol\":4497:4507  idPurchase */\n      dup5\n      swap1\n        /* \"Documents/GitHub/Store-system-with-feedback/main.sol\":4475:4508  structStatusPurchases[idPurchase] */\n      dup2\n      lt\n      tag_135\n      jumpi\n      tag_135\n      tag_119\n      jump\t// in\n    tag_135:\n      swap1\n      0x00\n      mstore\n      keccak256(0x00, 0x20)\n      swap1\n      0x03\n      mul\n      add\n        /* \"Documents/GitHub/Store-system-with-feedback/main.sol\":4475:4521  structStatusPurchases[idPurchase].titleProduct */\n      0x01\n      add\n        /* \"Documents/GitHub/Store-system-with-feedback/main.sol\":4460:4522  structProducts[structStatusPurchases[idPurchase].titleProduct] */\n      mload(0x40)\n      tag_137\n      swap2\n      swap1\n      tag_125\n      jump\t// in\n    tag_137:\n      swap1\n      dup2\n      mstore\n      0x40\n      dup1\n      mload\n      0x20\n      swap3\n      dup2\n      swap1\n      sub\n      dup4\n      add\n      swap1\n      keccak256\n        /* \"Documents/GitHub/Store-system-with-feedback/main.sol\":4460:4528  structProducts[structStatusPurchases[idPurchase].titleProduct].price */\n      0x02\n      add\n      sload\n        /* \"Documents/GitHub/Store-system-with-feedback/main.sol\":4437:4447  msg.sender */\n      caller\n        /* \"Documents/GitHub/Store-system-with-feedback/main.sol\":4431:4436  shops */\n      0x00\n        /* \"Documents/GitHub/Store-system-with-feedback/main.sol\":4431:4448  shops[msg.sender] */\n      swap1\n      dup2\n      mstore\n      swap3\n      dup4\n      swap1\n      mstore\n      swap2\n      keccak256\n        /* \"Documents/GitHub/Store-system-with-feedback/main.sol\":4431:4457  shops[msg.sender].ballance */\n      0x03\n      add\n      sload\n        /* \"Documents/GitHub/Store-system-with-feedback/main.sol\":4431:4528  shops[msg.sender].ballance + structProducts[structStatusPurchases[idPurchase].titleProduct].price */\n      tag_138\n      swap2\n        /* \"Documents/GitHub/Store-system-with-feedback/main.sol\":4460:4528  structProducts[structStatusPurchases[idPurchase].titleProduct].price */\n      swap1\n        /* \"Documents/GitHub/Store-system-with-feedback/main.sol\":4431:4528  shops[msg.sender].ballance + structProducts[structStatusPurchases[idPurchase].titleProduct].price */\n      tag_139\n      jump\t// in\n    tag_138:\n        /* \"Documents/GitHub/Store-system-with-feedback/main.sol\":4408:4418  msg.sender */\n      caller\n        /* \"Documents/GitHub/Store-system-with-feedback/main.sol\":4402:4407  shops */\n      0x00\n        /* \"Documents/GitHub/Store-system-with-feedback/main.sol\":4402:4419  shops[msg.sender] */\n      swap1\n      dup2\n      mstore\n      0x20\n      dup2\n      swap1\n      mstore\n      0x40\n      swap1\n      keccak256\n        /* \"Documents/GitHub/Store-system-with-feedback/main.sol\":4402:4428  shops[msg.sender].ballance */\n      0x03\n      add\n        /* \"Documents/GitHub/Store-system-with-feedback/main.sol\":4402:4528  shops[msg.sender].ballance = shops[msg.sender].ballance + structProducts[structStatusPurchases[idPurchase].titleProduct].price */\n      sstore\n        /* \"Documents/GitHub/Store-system-with-feedback/main.sol\":4000:4628  function acceptPurchase (uint idPurchase, bool confirmation) public {\r... */\n      pop\n      pop\n      jump\t// out\n        /* \"Documents/GitHub/Store-system-with-feedback/main.sol\":4079:4621  if (confirmation == true) {\r... */\n    tag_116:\n        /* \"Documents/GitHub/Store-system-with-feedback/main.sol\":4604:4609  false */\n      0x00\n        /* \"Documents/GitHub/Store-system-with-feedback/main.sol\":4561:4582  structStatusPurchases */\n      0x0a\n        /* \"Documents/GitHub/Store-system-with-feedback/main.sol\":4583:4593  idPurchase */\n      dup4\n        /* \"Documents/GitHub/Store-system-with-feedback/main.sol\":4561:4594  structStatusPurchases[idPurchase] */\n      dup2\n      sload\n      dup2\n      lt\n      tag_142\n      jumpi\n      tag_142\n      tag_119\n      jump\t// in\n    tag_142:\n      0x00\n      swap2\n      dup3\n      mstore\n      0x20\n      swap1\n      swap2\n      keccak256\n      0x03\n      swap1\n      swap2\n      mul\n      add\n        /* \"Documents/GitHub/Store-system-with-feedback/main.sol\":4561:4601  structStatusPurchases[idPurchase].status */\n      0x02\n      add\n        /* \"Documents/GitHub/Store-system-with-feedback/main.sol\":4561:4609  structStatusPurchases[idPurchase].status = false */\n      dup1\n      sload\n      not(0xff)\n      and\n      swap2\n      iszero\n      iszero\n      swap2\n      swap1\n      swap2\n      or\n      swap1\n      sstore\n      pop\n      pop\n        /* \"Documents/GitHub/Store-system-with-feedback/main.sol\":4000:4628  function acceptPurchase (uint idPurchase, bool confirmation) public {\r... */\n      jump\t// out\n        /* \"Documents/GitHub/Store-system-with-feedback/main.sol\":7452:7723  function productPurchases (string memory titleProduct) public {\r... */\n    tag_32:\n        /* \"Documents/GitHub/Store-system-with-feedback/main.sol\":7569:7583  structProducts */\n      0x08\n        /* \"Documents/GitHub/Store-system-with-feedback/main.sol\":7584:7596  titleProduct */\n      dup2\n        /* \"Documents/GitHub/Store-system-with-feedback/main.sol\":7569:7597  structProducts[titleProduct] */\n      mload(0x40)\n      tag_145\n      swap2\n      swap1\n      tag_146\n      jump\t// in\n    tag_145:\n      swap1\n      dup2\n      mstore\n      0x20\n      add\n      mload(0x40)\n      dup1\n      swap2\n      sub\n      swap1\n      keccak256\n        /* \"Documents/GitHub/Store-system-with-feedback/main.sol\":7569:7603  structProducts[titleProduct].price */\n      0x02\n      add\n      sload\n        /* \"Documents/GitHub/Store-system-with-feedback/main.sol\":7533:7544  structUsers */\n      0x04\n        /* \"Documents/GitHub/Store-system-with-feedback/main.sol\":7533:7556  structUsers[msg.sender] */\n      0x00\n        /* \"Documents/GitHub/Store-system-with-feedback/main.sol\":7545:7555  msg.sender */\n      caller\n      sub(shl(0xa0, 0x01), 0x01)\n        /* \"Documents/GitHub/Store-system-with-feedback/main.sol\":7533:7556  structUsers[msg.sender] */\n      and\n      sub(shl(0xa0, 0x01), 0x01)\n      and\n      dup2\n      mstore\n      0x20\n      add\n      swap1\n      dup2\n      mstore\n      0x20\n      add\n      0x00\n      keccak256\n        /* \"Documents/GitHub/Store-system-with-feedback/main.sol\":7533:7565  structUsers[msg.sender].ballance */\n      0x02\n      add\n      sload\n        /* \"Documents/GitHub/Store-system-with-feedback/main.sol\":7533:7603  structUsers[msg.sender].ballance >= structProducts[titleProduct].price */\n      lt\n      iszero\n        /* \"Documents/GitHub/Store-system-with-feedback/main.sol\":7525:7624  require(structUsers[msg.sender].ballance >= structProducts[titleProduct].price, \"error: not money\") */\n      tag_147\n      jumpi\n      mload(0x40)\n      shl(0xe5, 0x461bcd)\n      dup2\n      mstore\n        /* \"#utility.yul\":10898:10900   */\n      0x20\n        /* \"Documents/GitHub/Store-system-with-feedback/main.sol\":7525:7624  require(structUsers[msg.sender].ballance >= structProducts[titleProduct].price, \"error: not money\") */\n      0x04\n      dup3\n      add\n        /* \"#utility.yul\":10880:10901   */\n      mstore\n        /* \"#utility.yul\":10937:10939   */\n      0x10\n        /* \"#utility.yul\":10917:10935   */\n      0x24\n      dup3\n      add\n        /* \"#utility.yul\":10910:10940   */\n      mstore\n      shl(0x80, 0x6572726f723a206e6f74206d6f6e6579)\n        /* \"#utility.yul\":10956:10974   */\n      0x44\n      dup3\n      add\n        /* \"#utility.yul\":10949:10995   */\n      mstore\n        /* \"#utility.yul\":11012:11030   */\n      0x64\n      add\n        /* \"Documents/GitHub/Store-system-with-feedback/main.sol\":7525:7624  require(structUsers[msg.sender].ballance >= structProducts[titleProduct].price, \"error: not money\") */\n    tag_148:\n      mload(0x40)\n      dup1\n      swap2\n      sub\n      swap1\n      revert\n    tag_147:\n        /* \"Documents/GitHub/Store-system-with-feedback/main.sol\":7662:7714  structStatusPurchase(msg.sender, titleProduct, true) */\n      0x40\n      dup1\n      mload\n      0x60\n      dup2\n      add\n      dup3\n      mstore\n        /* \"Documents/GitHub/Store-system-with-feedback/main.sol\":7683:7693  msg.sender */\n      caller\n        /* \"Documents/GitHub/Store-system-with-feedback/main.sol\":7662:7714  structStatusPurchase(msg.sender, titleProduct, true) */\n      dup2\n      mstore\n      0x20\n      dup1\n      dup3\n      add\n      dup5\n      dup2\n      mstore\n        /* \"Documents/GitHub/Store-system-with-feedback/main.sol\":7709:7713  true */\n      0x01\n        /* \"Documents/GitHub/Store-system-with-feedback/main.sol\":7662:7714  structStatusPurchase(msg.sender, titleProduct, true) */\n      swap4\n      dup4\n      add\n      dup5\n      swap1\n      mstore\n        /* \"Documents/GitHub/Store-system-with-feedback/main.sol\":7635:7656  structStatusPurchases */\n      0x0a\n        /* \"Documents/GitHub/Store-system-with-feedback/main.sol\":7635:7715  structStatusPurchases.push(structStatusPurchase(msg.sender, titleProduct, true)) */\n      dup1\n      sload\n      swap5\n      dup6\n      add\n      dup2\n      sstore\n      0x00\n      mstore\n      dup3\n      mload\n      0xc65a7bb8d6351c1cf70c95a316cc6a92839c986682d98bc35f958f4883f9d2a8\n      0x03\n      swap1\n      swap6\n      mul\n      swap5\n      dup6\n      add\n      dup1\n      sload\n      not(sub(shl(0xa0, 0x01), 0x01))\n      and\n      sub(shl(0xa0, 0x01), 0x01)\n      swap1\n      swap3\n      and\n      swap2\n      swap1\n      swap2\n      or\n      dup2\n      sstore\n      swap1\n      mload\n      dup1\n      mload\n        /* \"Documents/GitHub/Store-system-with-feedback/main.sol\":7662:7714  structStatusPurchase(msg.sender, titleProduct, true) */\n      swap4\n      swap5\n        /* \"Documents/GitHub/Store-system-with-feedback/main.sol\":7635:7715  structStatusPurchases.push(structStatusPurchase(msg.sender, titleProduct, true)) */\n      swap2\n      swap4\n      tag_151\n      swap4\n      0xc65a7bb8d6351c1cf70c95a316cc6a92839c986682d98bc35f958f4883f9d2a9\n      swap1\n      swap4\n      add\n      swap3\n      swap2\n      swap1\n      swap2\n      add\n      swap1\n      tag_152\n      jump\t// in\n    tag_151:\n      pop\n      0x40\n      swap2\n      swap1\n      swap2\n      add\n      mload\n      0x02\n      swap1\n      swap2\n      add\n      dup1\n      sload\n      not(0xff)\n      and\n      swap2\n      iszero\n      iszero\n      swap2\n      swap1\n      swap2\n      or\n      swap1\n      sstore\n      pop\n        /* \"Documents/GitHub/Store-system-with-feedback/main.sol\":7452:7723  function productPurchases (string memory titleProduct) public {\r... */\n      jump\t// out\n        /* \"Documents/GitHub/Store-system-with-feedback/main.sol\":6946:7365  function leaveComment (string memory userName, string[] memory comment) public {\r... */\n    tag_41:\n        /* \"Documents/GitHub/Store-system-with-feedback/main.sol\":7040:7046  uint i */\n      0x00\n        /* \"Documents/GitHub/Store-system-with-feedback/main.sol\":7036:7358  for(uint i = 0; i < complaintBooks.length; i++) {\r... */\n    tag_154:\n        /* \"Documents/GitHub/Store-system-with-feedback/main.sol\":7056:7070  complaintBooks */\n      0x03\n        /* \"Documents/GitHub/Store-system-with-feedback/main.sol\":7056:7077  complaintBooks.length */\n      sload\n        /* \"Documents/GitHub/Store-system-with-feedback/main.sol\":7052:7077  i < complaintBooks.length */\n      dup2\n      lt\n        /* \"Documents/GitHub/Store-system-with-feedback/main.sol\":7036:7358  for(uint i = 0; i < complaintBooks.length; i++) {\r... */\n      iszero\n      tag_155\n      jumpi\n        /* \"Documents/GitHub/Store-system-with-feedback/main.sol\":7099:7125  string memory tempUserName */\n      0x00\n        /* \"Documents/GitHub/Store-system-with-feedback/main.sol\":7128:7142  complaintBooks */\n      0x03\n        /* \"Documents/GitHub/Store-system-with-feedback/main.sol\":7143:7144  i */\n      dup3\n        /* \"Documents/GitHub/Store-system-with-feedback/main.sol\":7128:7145  complaintBooks[i] */\n      dup2\n      sload\n      dup2\n      lt\n      tag_158\n      jumpi\n      tag_158\n      tag_119\n      jump\t// in\n    tag_158:\n      swap1\n      0x00\n      mstore\n      keccak256(0x00, 0x20)\n      swap1\n      0x05\n      mul\n      add\n        /* \"Documents/GitHub/Store-system-with-feedback/main.sol\":7128:7154  complaintBooks[i].userName */\n      0x01\n      add\n        /* \"Documents/GitHub/Store-system-with-feedback/main.sol\":7099:7154  string memory tempUserName = complaintBooks[i].userName */\n      dup1\n      sload\n      tag_160\n      swap1\n      tag_161\n      jump\t// in\n    tag_160:\n      dup1\n      0x1f\n      add\n      0x20\n      dup1\n      swap2\n      div\n      mul\n      0x20\n      add\n      mload(0x40)\n      swap1\n      dup2\n      add\n      0x40\n      mstore\n      dup1\n      swap3\n      swap2\n      swap1\n      dup2\n      dup2\n      mstore\n      0x20\n      add\n      dup3\n      dup1\n      sload\n      tag_162\n      swap1\n      tag_161\n      jump\t// in\n    tag_162:\n      dup1\n      iszero\n      tag_163\n      jumpi\n      dup1\n      0x1f\n      lt\n      tag_164\n      jumpi\n      0x0100\n      dup1\n      dup4\n      sload\n      div\n      mul\n      dup4\n      mstore\n      swap2\n      0x20\n      add\n      swap2\n      jump(tag_163)\n    tag_164:\n      dup3\n      add\n      swap2\n      swap1\n      0x00\n      mstore\n      keccak256(0x00, 0x20)\n      swap1\n    tag_165:\n      dup2\n      sload\n      dup2\n      mstore\n      swap1\n      0x01\n      add\n      swap1\n      0x20\n      add\n      dup1\n      dup4\n      gt\n      tag_165\n      jumpi\n      dup3\n      swap1\n      sub\n      0x1f\n      and\n      dup3\n      add\n      swap2\n    tag_163:\n      pop\n      pop\n      pop\n      pop\n      pop\n      swap1\n      pop\n        /* \"Documents/GitHub/Store-system-with-feedback/main.sol\":7244:7252  userName */\n      dup4\n        /* \"Documents/GitHub/Store-system-with-feedback/main.sol\":7227:7253  abi.encodePacked(userName) */\n      add(0x20, mload(0x40))\n      tag_166\n      swap2\n      swap1\n      tag_146\n      jump\t// in\n    tag_166:\n      mload(0x40)\n      0x20\n      dup2\n      dup4\n      sub\n      sub\n      dup2\n      mstore\n      swap1\n      0x40\n      mstore\n        /* \"Documents/GitHub/Store-system-with-feedback/main.sol\":7217:7254  keccak256(abi.encodePacked(userName)) */\n      dup1\n      mload\n      swap1\n      0x20\n      add\n      keccak256\n        /* \"Documents/GitHub/Store-system-with-feedback/main.sol\":7199:7211  tempUserName */\n      dup2\n        /* \"Documents/GitHub/Store-system-with-feedback/main.sol\":7182:7212  abi.encodePacked(tempUserName) */\n      add(0x20, mload(0x40))\n      tag_167\n      swap2\n      swap1\n      tag_146\n      jump\t// in\n    tag_167:\n      mload(0x40)\n      0x20\n      dup2\n      dup4\n      sub\n      sub\n      dup2\n      mstore\n      swap1\n      0x40\n      mstore\n        /* \"Documents/GitHub/Store-system-with-feedback/main.sol\":7172:7213  keccak256(abi.encodePacked(tempUserName)) */\n      dup1\n      mload\n      swap1\n      0x20\n      add\n      keccak256\n        /* \"Documents/GitHub/Store-system-with-feedback/main.sol\":7172:7254  keccak256(abi.encodePacked(tempUserName)) == keccak256(abi.encodePacked(userName)) */\n      eq\n        /* \"Documents/GitHub/Store-system-with-feedback/main.sol\":7169:7347  if(keccak256(abi.encodePacked(tempUserName)) == keccak256(abi.encodePacked(userName))) {                    \r... */\n      iszero\n      tag_168\n      jumpi\n        /* \"Documents/GitHub/Store-system-with-feedback/main.sol\":7324:7331  comment */\n      dup3\n        /* \"Documents/GitHub/Store-system-with-feedback/main.sol\":7295:7309  complaintBooks */\n      0x03\n        /* \"Documents/GitHub/Store-system-with-feedback/main.sol\":7310:7311  i */\n      dup4\n        /* \"Documents/GitHub/Store-system-with-feedback/main.sol\":7295:7312  complaintBooks[i] */\n      dup2\n      sload\n      dup2\n      lt\n      tag_170\n      jumpi\n      tag_170\n      tag_119\n      jump\t// in\n    tag_170:\n      swap1\n      0x00\n      mstore\n      keccak256(0x00, 0x20)\n      swap1\n      0x05\n      mul\n      add\n        /* \"Documents/GitHub/Store-system-with-feedback/main.sol\":7295:7321  complaintBooks[i].comments */\n      0x04\n      add\n        /* \"Documents/GitHub/Store-system-with-feedback/main.sol\":7295:7331  complaintBooks[i].comments = comment */\n      swap1\n      dup1\n      mload\n      swap1\n      0x20\n      add\n      swap1\n      tag_172\n      swap3\n      swap2\n      swap1\n      tag_173\n      jump\t// in\n    tag_172:\n      pop\n        /* \"Documents/GitHub/Store-system-with-feedback/main.sol\":7169:7347  if(keccak256(abi.encodePacked(tempUserName)) == keccak256(abi.encodePacked(userName))) {                    \r... */\n    tag_168:\n      pop\n        /* \"Documents/GitHub/Store-system-with-feedback/main.sol\":7079:7082  i++ */\n      dup1\n      tag_174\n      dup2\n      tag_175\n      jump\t// in\n    tag_174:\n      swap2\n      pop\n      pop\n        /* \"Documents/GitHub/Store-system-with-feedback/main.sol\":7036:7358  for(uint i = 0; i < complaintBooks.length; i++) {\r... */\n      jump(tag_154)\n    tag_155:\n      pop\n        /* \"Documents/GitHub/Store-system-with-feedback/main.sol\":6946:7365  function leaveComment (string memory userName, string[] memory comment) public {\r... */\n      pop\n      pop\n      jump\t// out\n        /* \"Documents/GitHub/Store-system-with-feedback/main.sol\":4673:5134  function acceptReturn(uint idReturn, bool confirmation) public {\r... */\n    tag_44:\n        /* \"Documents/GitHub/Store-system-with-feedback/main.sol\":4766:4770  true */\n      0x01\n        /* \"Documents/GitHub/Store-system-with-feedback/main.sol\":4750:4770  confirmation == true */\n      dup2\n      iszero\n      iszero\n      eq\n        /* \"Documents/GitHub/Store-system-with-feedback/main.sol\":4747:5127  if(confirmation == true) {\r... */\n      iszero\n      tag_177\n      jumpi\n        /* \"Documents/GitHub/Store-system-with-feedback/main.sol\":4826:4831  false */\n      0x00\n        /* \"Documents/GitHub/Store-system-with-feedback/main.sol\":4787:4806  structStatusReturns */\n      0x0b\n        /* \"Documents/GitHub/Store-system-with-feedback/main.sol\":4807:4815  idReturn */\n      dup4\n        /* \"Documents/GitHub/Store-system-with-feedback/main.sol\":4787:4816  structStatusReturns[idReturn] */\n      dup2\n      sload\n      dup2\n      lt\n      tag_179\n      jumpi\n      tag_179\n      tag_119\n      jump\t// in\n    tag_179:\n      swap1\n      0x00\n      mstore\n      keccak256(0x00, 0x20)\n      swap1\n      0x03\n      mul\n      add\n        /* \"Documents/GitHub/Store-system-with-feedback/main.sol\":4787:4823  structStatusReturns[idReturn].status */\n      0x02\n      add\n      0x00\n        /* \"Documents/GitHub/Store-system-with-feedback/main.sol\":4787:4831  structStatusReturns[idReturn].status = false */\n      0x0100\n      exp\n      dup2\n      sload\n      dup2\n      0xff\n      mul\n      not\n      and\n      swap1\n      dup4\n      iszero\n      iszero\n      mul\n      or\n      swap1\n      sstore\n      pop\n        /* \"Documents/GitHub/Store-system-with-feedback/main.sol\":4974:4988  structProducts */\n      0x08\n        /* \"Documents/GitHub/Store-system-with-feedback/main.sol\":4989:5008  structStatusReturns */\n      0x0b\n        /* \"Documents/GitHub/Store-system-with-feedback/main.sol\":5009:5017  idReturn */\n      dup4\n        /* \"Documents/GitHub/Store-system-with-feedback/main.sol\":4989:5018  structStatusReturns[idReturn] */\n      dup2\n      sload\n      dup2\n      lt\n      tag_182\n      jumpi\n      tag_182\n      tag_119\n      jump\t// in\n    tag_182:\n      swap1\n      0x00\n      mstore\n      keccak256(0x00, 0x20)\n      swap1\n      0x03\n      mul\n      add\n        /* \"Documents/GitHub/Store-system-with-feedback/main.sol\":4989:5031  structStatusReturns[idReturn].titleProduct */\n      0x01\n      add\n        /* \"Documents/GitHub/Store-system-with-feedback/main.sol\":4974:5032  structProducts[structStatusReturns[idReturn].titleProduct] */\n      mload(0x40)\n      tag_184\n      swap2\n      swap1\n      tag_125\n      jump\t// in\n    tag_184:\n      swap1\n      dup2\n      mstore\n      0x20\n      add\n      mload(0x40)\n      dup1\n      swap2\n      sub\n      swap1\n      keccak256\n        /* \"Documents/GitHub/Store-system-with-feedback/main.sol\":4974:5038  structProducts[structStatusReturns[idReturn].titleProduct].price */\n      0x02\n      add\n      sload\n        /* \"Documents/GitHub/Store-system-with-feedback/main.sol\":4910:4921  structUsers */\n      0x04\n        /* \"Documents/GitHub/Store-system-with-feedback/main.sol\":4910:4962  structUsers[structStatusReturns[idReturn].userLogin] */\n      0x00\n        /* \"Documents/GitHub/Store-system-with-feedback/main.sol\":4922:4941  structStatusReturns */\n      0x0b\n        /* \"Documents/GitHub/Store-system-with-feedback/main.sol\":4942:4950  idReturn */\n      dup6\n        /* \"Documents/GitHub/Store-system-with-feedback/main.sol\":4922:4951  structStatusReturns[idReturn] */\n      dup2\n      sload\n      dup2\n      lt\n      tag_186\n      jumpi\n      tag_186\n      tag_119\n      jump\t// in\n    tag_186:\n      0x00\n      swap2\n      dup3\n      mstore\n      0x20\n      dup1\n      dup4\n      keccak256\n      0x03\n      swap1\n      swap3\n      mul\n      swap1\n      swap2\n      add\n        /* \"Documents/GitHub/Store-system-with-feedback/main.sol\":4922:4961  structStatusReturns[idReturn].userLogin */\n      sload\n      sub(shl(0xa0, 0x01), 0x01)\n      and\n        /* \"Documents/GitHub/Store-system-with-feedback/main.sol\":4910:4962  structUsers[structStatusReturns[idReturn].userLogin] */\n      dup4\n      mstore\n      dup3\n      add\n      swap3\n      swap1\n      swap3\n      mstore\n      0x40\n      add\n      swap1\n      keccak256\n        /* \"Documents/GitHub/Store-system-with-feedback/main.sol\":4910:4971  structUsers[structStatusReturns[idReturn].userLogin].ballance */\n      0x02\n      add\n      sload\n        /* \"Documents/GitHub/Store-system-with-feedback/main.sol\":4910:5038  structUsers[structStatusReturns[idReturn].userLogin].ballance + structProducts[structStatusReturns[idReturn].titleProduct].price */\n      tag_188\n      swap2\n      swap1\n      tag_139\n      jump\t// in\n    tag_188:\n        /* \"Documents/GitHub/Store-system-with-feedback/main.sol\":4846:4857  structUsers */\n      0x04\n        /* \"Documents/GitHub/Store-system-with-feedback/main.sol\":4846:4898  structUsers[structStatusReturns[idReturn].userLogin] */\n      0x00\n        /* \"Documents/GitHub/Store-system-with-feedback/main.sol\":4858:4877  structStatusReturns */\n      0x0b\n        /* \"Documents/GitHub/Store-system-with-feedback/main.sol\":4878:4886  idReturn */\n      dup6\n        /* \"Documents/GitHub/Store-system-with-feedback/main.sol\":4858:4887  structStatusReturns[idReturn] */\n      dup2\n      sload\n      dup2\n      lt\n      tag_190\n      jumpi\n      tag_190\n      tag_119\n      jump\t// in\n    tag_190:\n      0x00\n      swap2\n      dup3\n      mstore\n      0x20\n      dup1\n      dup4\n      keccak256\n      0x03\n      swap1\n      swap3\n      mul\n      swap1\n      swap2\n      add\n        /* \"Documents/GitHub/Store-system-with-feedback/main.sol\":4858:4897  structStatusReturns[idReturn].userLogin */\n      sload\n      sub(shl(0xa0, 0x01), 0x01)\n      and\n        /* \"Documents/GitHub/Store-system-with-feedback/main.sol\":4846:4898  structUsers[structStatusReturns[idReturn].userLogin] */\n      dup4\n      mstore\n      dup3\n      add\n      swap3\n      swap1\n      swap3\n      mstore\n      0x40\n      add\n      swap1\n      keccak256\n        /* \"Documents/GitHub/Store-system-with-feedback/main.sol\":4846:4907  structUsers[structStatusReturns[idReturn].userLogin].ballance */\n      0x02\n      add\n        /* \"Documents/GitHub/Store-system-with-feedback/main.sol\":4846:5038  structUsers[structStatusReturns[idReturn].userLogin].ballance = structUsers[structStatusReturns[idReturn].userLogin].ballance + structProducts[structStatusReturns[idReturn].titleProduct].price */\n      sstore\n        /* \"Documents/GitHub/Store-system-with-feedback/main.sol\":4000:4628  function acceptPurchase (uint idPurchase, bool confirmation) public {\r... */\n      pop\n      pop\n      jump\t// out\n        /* \"Documents/GitHub/Store-system-with-feedback/main.sol\":4747:5127  if(confirmation == true) {\r... */\n    tag_177:\n        /* \"Documents/GitHub/Store-system-with-feedback/main.sol\":5110:5115  false */\n      0x00\n        /* \"Documents/GitHub/Store-system-with-feedback/main.sol\":5071:5090  structStatusReturns */\n      0x0b\n        /* \"Documents/GitHub/Store-system-with-feedback/main.sol\":5091:5099  idReturn */\n      dup4\n        /* \"Documents/GitHub/Store-system-with-feedback/main.sol\":5071:5100  structStatusReturns[idReturn] */\n      dup2\n      sload\n      dup2\n      lt\n      tag_142\n      jumpi\n      tag_142\n      tag_119\n      jump\t// in\n        /* \"Documents/GitHub/Store-system-with-feedback/main.sol\":7962:8146  function productMarriageRegistration (string memory titleProduct) public {\r... */\n    tag_47:\n        /* \"Documents/GitHub/Store-system-with-feedback/main.sol\":8079:8137  structMarriageRegistration(msg.sender, titleProduct, true) */\n      0x40\n      dup1\n      mload\n      0x60\n      dup2\n      add\n      dup3\n      mstore\n        /* \"Documents/GitHub/Store-system-with-feedback/main.sol\":8106:8116  msg.sender */\n      caller\n        /* \"Documents/GitHub/Store-system-with-feedback/main.sol\":8079:8137  structMarriageRegistration(msg.sender, titleProduct, true) */\n      dup2\n      mstore\n      0x20\n      dup1\n      dup3\n      add\n      dup5\n      dup2\n      mstore\n        /* \"Documents/GitHub/Store-system-with-feedback/main.sol\":8132:8136  true */\n      0x01\n        /* \"Documents/GitHub/Store-system-with-feedback/main.sol\":8079:8137  structMarriageRegistration(msg.sender, titleProduct, true) */\n      swap4\n      dup4\n      add\n      dup5\n      swap1\n      mstore\n        /* \"Documents/GitHub/Store-system-with-feedback/main.sol\":8046:8073  structMarriageRegistrations */\n      0x0c\n        /* \"Documents/GitHub/Store-system-with-feedback/main.sol\":8046:8138  structMarriageRegistrations.push(structMarriageRegistration(msg.sender, titleProduct, true)) */\n      dup1\n      sload\n      swap5\n      dup6\n      add\n      dup2\n      sstore\n      0x00\n      mstore\n      dup3\n      mload\n      0xdf6966c971051c3d54ec59162606531493a51404a002842f56009d7e5cf4a8c7\n      0x03\n      swap1\n      swap6\n      mul\n      swap5\n      dup6\n      add\n      dup1\n      sload\n      not(sub(shl(0xa0, 0x01), 0x01))\n      and\n      sub(shl(0xa0, 0x01), 0x01)\n      swap1\n      swap3\n      and\n      swap2\n      swap1\n      swap2\n      or\n      dup2\n      sstore\n      swap1\n      mload\n      dup1\n      mload\n        /* \"Documents/GitHub/Store-system-with-feedback/main.sol\":8079:8137  structMarriageRegistration(msg.sender, titleProduct, true) */\n      swap4\n      swap5\n        /* \"Documents/GitHub/Store-system-with-feedback/main.sol\":8046:8138  structMarriageRegistrations.push(structMarriageRegistration(msg.sender, titleProduct, true)) */\n      swap2\n      swap4\n      tag_151\n      swap4\n      0xdf6966c971051c3d54ec59162606531493a51404a002842f56009d7e5cf4a8c8\n      swap1\n      swap4\n      add\n      swap3\n      swap2\n      swap1\n      swap2\n      add\n      swap1\n      tag_152\n      jump\t// in\n        /* \"Documents/GitHub/Store-system-with-feedback/main.sol\":5921:6021  function getProductList() public view returns(string[] memory) {\r... */\n    tag_49:\n        /* \"Documents/GitHub/Store-system-with-feedback/main.sol\":5967:5982  string[] memory */\n      0x60\n        /* \"Documents/GitHub/Store-system-with-feedback/main.sol\":6002:6013  productList */\n      0x09\n        /* \"Documents/GitHub/Store-system-with-feedback/main.sol\":5995:6013  return productList */\n      dup1\n      sload\n      dup1\n      0x20\n      mul\n      0x20\n      add\n      mload(0x40)\n      swap1\n      dup2\n      add\n      0x40\n      mstore\n      dup1\n      swap3\n      swap2\n      swap1\n      dup2\n      dup2\n      mstore\n      0x20\n      add\n      0x00\n      swap1\n    tag_200:\n      dup3\n      dup3\n      lt\n      iszero\n      tag_201\n      jumpi\n      dup4\n      dup3\n      swap1\n      0x00\n      mstore\n      keccak256(0x00, 0x20)\n      add\n      dup1\n      sload\n      tag_203\n      swap1\n      tag_161\n      jump\t// in\n    tag_203:\n      dup1\n      0x1f\n      add\n      0x20\n      dup1\n      swap2\n      div\n      mul\n      0x20\n      add\n      mload(0x40)\n      swap1\n      dup2\n      add\n      0x40\n      mstore\n      dup1\n      swap3\n      swap2\n      swap1\n      dup2\n      dup2\n      mstore\n      0x20\n      add\n      dup3\n      dup1\n      sload\n      tag_204\n      swap1\n      tag_161\n      jump\t// in\n    tag_204:\n      dup1\n      iszero\n      tag_205\n      jumpi\n      dup1\n      0x1f\n      lt\n      tag_206\n      jumpi\n      0x0100\n      dup1\n      dup4\n      sload\n      div\n      mul\n      dup4\n      mstore\n      swap2\n      0x20\n      add\n      swap2\n      jump(tag_205)\n    tag_206:\n      dup3\n      add\n      swap2\n      swap1\n      0x00\n      mstore\n      keccak256(0x00, 0x20)\n      swap1\n    tag_207:\n      dup2\n      sload\n      dup2\n      mstore\n      swap1\n      0x01\n      add\n      swap1\n      0x20\n      add\n      dup1\n      dup4\n      gt\n      tag_207\n      jumpi\n      dup3\n      swap1\n      sub\n      0x1f\n      and\n      dup3\n      add\n      swap2\n    tag_205:\n      pop\n      pop\n      pop\n      pop\n      pop\n      dup2\n      mstore\n      0x20\n      add\n      swap1\n      0x01\n      add\n      swap1\n      jump(tag_200)\n    tag_201:\n      pop\n      pop\n      pop\n      pop\n      swap1\n      pop\n        /* \"Documents/GitHub/Store-system-with-feedback/main.sol\":5921:6021  function getProductList() public view returns(string[] memory) {\r... */\n      swap1\n      jump\t// out\n        /* \"Documents/GitHub/Store-system-with-feedback/main.sol\":8190:8311  function get_address(string memory login) public view returns(address) {\r... */\n    tag_54:\n        /* \"Documents/GitHub/Store-system-with-feedback/main.sol\":8252:8259  address */\n      0x00\n        /* \"Documents/GitHub/Store-system-with-feedback/main.sol\":8279:8295  structUserLogins */\n      0x05\n        /* \"Documents/GitHub/Store-system-with-feedback/main.sol\":8296:8301  login */\n      dup3\n        /* \"Documents/GitHub/Store-system-with-feedback/main.sol\":8279:8302  structUserLogins[login] */\n      mload(0x40)\n      tag_209\n      swap2\n      swap1\n      tag_146\n      jump\t// in\n    tag_209:\n      swap1\n      dup2\n      mstore\n      mload(0x40)\n      swap1\n      dup2\n      swap1\n      sub\n      0x20\n      add\n      swap1\n      keccak256\n      sload\n      sub(shl(0xa0, 0x01), 0x01)\n      and\n      swap3\n        /* \"Documents/GitHub/Store-system-with-feedback/main.sol\":8190:8311  function get_address(string memory login) public view returns(address) {\r... */\n      swap2\n      pop\n      pop\n      jump\t// out\n        /* \"Documents/GitHub/Store-system-with-feedback/main.sol\":2921:3320  function addProductShop (string memory title, uint256 price, string memory description) public {\r... */\n    tag_59:\n        /* \"Documents/GitHub/Store-system-with-feedback/main.sol\":3136:3208  structProduct(msg.sender, description , price, addProductShop_idProduct) */\n      mload(0x40)\n      dup1\n      0x80\n      add\n      0x40\n      mstore\n      dup1\n        /* \"Documents/GitHub/Store-system-with-feedback/main.sol\":3150:3160  msg.sender */\n      caller\n      sub(shl(0xa0, 0x01), 0x01)\n        /* \"Documents/GitHub/Store-system-with-feedback/main.sol\":3136:3208  structProduct(msg.sender, description , price, addProductShop_idProduct) */\n      and\n      dup2\n      mstore\n      0x20\n      add\n        /* \"Documents/GitHub/Store-system-with-feedback/main.sol\":3162:3173  description */\n      dup3\n        /* \"Documents/GitHub/Store-system-with-feedback/main.sol\":3136:3208  structProduct(msg.sender, description , price, addProductShop_idProduct) */\n      dup2\n      mstore\n      0x20\n      add\n        /* \"Documents/GitHub/Store-system-with-feedback/main.sol\":3176:3181  price */\n      dup4\n        /* \"Documents/GitHub/Store-system-with-feedback/main.sol\":3136:3208  structProduct(msg.sender, description , price, addProductShop_idProduct) */\n      dup2\n      mstore\n      0x20\n      add\n        /* \"Documents/GitHub/Store-system-with-feedback/main.sol\":3183:3207  addProductShop_idProduct */\n      sload(0x0d)\n        /* \"Documents/GitHub/Store-system-with-feedback/main.sol\":3136:3208  structProduct(msg.sender, description , price, addProductShop_idProduct) */\n      dup2\n      mstore\n      pop\n        /* \"Documents/GitHub/Store-system-with-feedback/main.sol\":3112:3126  structProducts */\n      0x08\n        /* \"Documents/GitHub/Store-system-with-feedback/main.sol\":3127:3132  title */\n      dup5\n        /* \"Documents/GitHub/Store-system-with-feedback/main.sol\":3112:3133  structProducts[title] */\n      mload(0x40)\n      tag_211\n      swap2\n      swap1\n      tag_146\n      jump\t// in\n    tag_211:\n      swap1\n      dup2\n      mstore\n      mload(0x40)\n      0x20\n      swap2\n      dup2\n      swap1\n      sub\n      dup3\n      add\n      swap1\n      keccak256\n        /* \"Documents/GitHub/Store-system-with-feedback/main.sol\":3112:3208  structProducts[title] = structProduct(msg.sender, description , price, addProductShop_idProduct) */\n      dup3\n      mload\n      dup2\n      sload\n      not(sub(shl(0xa0, 0x01), 0x01))\n      and\n      sub(shl(0xa0, 0x01), 0x01)\n      swap1\n      swap2\n      and\n      or\n      dup2\n      sstore\n      dup3\n      dup3\n      add\n      mload\n      dup1\n      mload\n        /* \"Documents/GitHub/Store-system-with-feedback/main.sol\":3112:3133  structProducts[title] */\n      swap2\n      swap3\n        /* \"Documents/GitHub/Store-system-with-feedback/main.sol\":3112:3208  structProducts[title] = structProduct(msg.sender, description , price, addProductShop_idProduct) */\n      tag_212\n      swap3\n      0x01\n      dup6\n      add\n      swap3\n      swap1\n      swap2\n      add\n      swap1\n      tag_152\n      jump\t// in\n    tag_212:\n      pop\n      0x40\n      dup3\n      add\n      mload\n      0x02\n      dup3\n      add\n      sstore\n      0x60\n      swap1\n      swap2\n      add\n      mload\n      0x03\n      swap1\n      swap2\n      add\n      sstore\n        /* \"Documents/GitHub/Store-system-with-feedback/main.sol\":3223:3234  productList */\n      0x09\n        /* \"Documents/GitHub/Store-system-with-feedback/main.sol\":3223:3246  productList.push(title) */\n      dup1\n      sload\n      0x01\n      dup2\n      add\n      dup3\n      sstore\n      0x00\n      swap2\n      swap1\n      swap2\n      mstore\n      dup4\n      mload\n      tag_214\n      swap2\n      0x6e1540171b6c0c960b71a7020d9f60077f6af931a8bbf590da0223dacf75c7af\n      add\n      swap1\n      0x20\n      dup7\n      add\n      swap1\n      tag_152\n      jump\t// in\n    tag_214:\n      pop\n        /* \"Documents/GitHub/Store-system-with-feedback/main.sol\":3261:3285  addProductShop_idProduct */\n      0x0d\n        /* \"Documents/GitHub/Store-system-with-feedback/main.sol\":3261:3287  addProductShop_idProduct++ */\n      dup1\n      sload\n      swap1\n        /* \"Documents/GitHub/Store-system-with-feedback/main.sol\":3261:3285  addProductShop_idProduct */\n      0x00\n        /* \"Documents/GitHub/Store-system-with-feedback/main.sol\":3261:3287  addProductShop_idProduct++ */\n      tag_215\n      dup4\n      tag_175\n      jump\t// in\n    tag_215:\n      swap2\n      swap1\n      pop\n      sstore\n      pop\n        /* \"Documents/GitHub/Store-system-with-feedback/main.sol\":2921:3320  function addProductShop (string memory title, uint256 price, string memory description) public {\r... */\n      pop\n      pop\n      pop\n      jump\t// out\n        /* \"Documents/GitHub/Store-system-with-feedback/main.sol\":2736:2799  structMarriageRegistration[] public structMarriageRegistrations */\n    tag_63:\n      0x0c\n      dup2\n      dup2\n      sload\n      dup2\n      lt\n      tag_216\n      jumpi\n      0x00\n      dup1\n      revert\n    tag_216:\n      0x00\n      swap2\n      dup3\n      mstore\n      0x20\n      swap1\n      swap2\n      keccak256\n      0x03\n      swap1\n      swap2\n      mul\n      add\n      dup1\n      sload\n      0x01\n      dup3\n      add\n      dup1\n      sload\n      sub(shl(0xa0, 0x01), 0x01)\n      swap1\n      swap3\n      and\n      swap4\n      pop\n      swap1\n      tag_218\n      swap1\n      tag_161\n      jump\t// in\n    tag_218:\n      dup1\n      0x1f\n      add\n      0x20\n      dup1\n      swap2\n      div\n      mul\n      0x20\n      add\n      mload(0x40)\n      swap1\n      dup2\n      add\n      0x40\n      mstore\n      dup1\n      swap3\n      swap2\n      swap1\n      dup2\n      dup2\n      mstore\n      0x20\n      add\n      dup3\n      dup1\n      sload\n      tag_219\n      swap1\n      tag_161\n      jump\t// in\n    tag_219:\n      dup1\n      iszero\n      tag_220\n      jumpi\n      dup1\n      0x1f\n      lt\n      tag_221\n      jumpi\n      0x0100\n      dup1\n      dup4\n      sload\n      div\n      mul\n      dup4\n      mstore\n      swap2\n      0x20\n      add\n      swap2\n      jump(tag_220)\n    tag_221:\n      dup3\n      add\n      swap2\n      swap1\n      0x00\n      mstore\n      keccak256(0x00, 0x20)\n      swap1\n    tag_222:\n      dup2\n      sload\n      dup2\n      mstore\n      swap1\n      0x01\n      add\n      swap1\n      0x20\n      add\n      dup1\n      dup4\n      gt\n      tag_222\n      jumpi\n      dup3\n      swap1\n      sub\n      0x1f\n      and\n      dup3\n      add\n      swap2\n    tag_220:\n      pop\n      pop\n      pop\n      0x02\n      swap1\n      swap4\n      add\n      sload\n      swap2\n      swap3\n      pop\n      pop\n      0xff\n      and\n      dup4\n      jump\t// out\n        /* \"Documents/GitHub/Store-system-with-feedback/main.sol\":8815:9242  function login_user(string memory login, uint password) public {\r... */\n    tag_69:\n        /* \"Documents/GitHub/Store-system-with-feedback/main.sol\":8897:8908  structUsers */\n      0x04\n        /* \"Documents/GitHub/Store-system-with-feedback/main.sol\":8897:8933  structUsers[structUserLogins[login]] */\n      0x00\n        /* \"Documents/GitHub/Store-system-with-feedback/main.sol\":8909:8925  structUserLogins */\n      0x05\n        /* \"Documents/GitHub/Store-system-with-feedback/main.sol\":8926:8931  login */\n      dup5\n        /* \"Documents/GitHub/Store-system-with-feedback/main.sol\":8909:8932  structUserLogins[login] */\n      mload(0x40)\n      tag_224\n      swap2\n      swap1\n      tag_146\n      jump\t// in\n    tag_224:\n      swap1\n      dup2\n      mstore\n      0x40\n      dup1\n      mload\n      0x20\n      swap3\n      dup2\n      swap1\n      sub\n      dup4\n      add\n      swap1\n      keccak256\n      sload\n      sub(shl(0xa0, 0x01), 0x01)\n      and\n        /* \"Documents/GitHub/Store-system-with-feedback/main.sol\":8897:8933  structUsers[structUserLogins[login]] */\n      dup4\n      mstore\n      swap1\n      dup3\n      add\n      swap3\n      swap1\n      swap3\n      mstore\n      add\n      0x00\n      keccak256\n        /* \"Documents/GitHub/Store-system-with-feedback/main.sol\":8897:8940  structUsers[structUserLogins[login]].logged */\n      0x03\n      add\n      sload\n        /* \"Documents/GitHub/Store-system-with-feedback/main.sol\":8909:8932  structUserLogins[login] */\n      0x0100\n        /* \"Documents/GitHub/Store-system-with-feedback/main.sol\":8897:8940  structUsers[structUserLogins[login]].logged */\n      swap1\n      div\n      0xff\n      and\n        /* \"Documents/GitHub/Store-system-with-feedback/main.sol\":8897:8949  structUsers[structUserLogins[login]].logged == false */\n      iszero\n        /* \"Documents/GitHub/Store-system-with-feedback/main.sol\":8889:8983  require(structUsers[structUserLogins[login]].logged == false, \"Error: You are already logged\") */\n      tag_225\n      jumpi\n      mload(0x40)\n      shl(0xe5, 0x461bcd)\n      dup2\n      mstore\n        /* \"#utility.yul\":11243:11245   */\n      0x20\n        /* \"Documents/GitHub/Store-system-with-feedback/main.sol\":8889:8983  require(structUsers[structUserLogins[login]].logged == false, \"Error: You are already logged\") */\n      0x04\n      dup3\n      add\n        /* \"#utility.yul\":11225:11246   */\n      mstore\n        /* \"#utility.yul\":11282:11284   */\n      0x1d\n        /* \"#utility.yul\":11262:11280   */\n      0x24\n      dup3\n      add\n        /* \"#utility.yul\":11255:11285   */\n      mstore\n        /* \"#utility.yul\":11321:11352   */\n      0x4572726f723a20596f752061726520616c7265616479206c6f67676564000000\n        /* \"#utility.yul\":11301:11319   */\n      0x44\n      dup3\n      add\n        /* \"#utility.yul\":11294:11353   */\n      mstore\n        /* \"#utility.yul\":11370:11388   */\n      0x64\n      add\n        /* \"Documents/GitHub/Store-system-with-feedback/main.sol\":8889:8983  require(structUsers[structUserLogins[login]].logged == false, \"Error: You are already logged\") */\n      tag_148\n        /* \"#utility.yul\":11041:11394   */\n      jump\n        /* \"Documents/GitHub/Store-system-with-feedback/main.sol\":8889:8983  require(structUsers[structUserLogins[login]].logged == false, \"Error: You are already logged\") */\n    tag_225:\n        /* \"Documents/GitHub/Store-system-with-feedback/main.sol\":9037:9038  0 */\n      0x00\n      sub(shl(0xa0, 0x01), 0x01)\n        /* \"Documents/GitHub/Store-system-with-feedback/main.sol\":9002:9039  structUserLogins[login] != address(0) */\n      and\n        /* \"Documents/GitHub/Store-system-with-feedback/main.sol\":9002:9018  structUserLogins */\n      0x05\n        /* \"Documents/GitHub/Store-system-with-feedback/main.sol\":9019:9024  login */\n      dup4\n        /* \"Documents/GitHub/Store-system-with-feedback/main.sol\":9002:9025  structUserLogins[login] */\n      mload(0x40)\n      tag_228\n      swap2\n      swap1\n      tag_146\n      jump\t// in\n    tag_228:\n      swap1\n      dup2\n      mstore\n      mload(0x40)\n      swap1\n      dup2\n      swap1\n      sub\n      0x20\n      add\n      swap1\n      keccak256\n      sload\n      sub(shl(0xa0, 0x01), 0x01)\n      and\n        /* \"Documents/GitHub/Store-system-with-feedback/main.sol\":9002:9039  structUserLogins[login] != address(0) */\n      eq\n      iszero\n        /* \"Documents/GitHub/Store-system-with-feedback/main.sol\":8994:9069  require(structUserLogins[login] != address(0), \"Error: User doesn't exist\") */\n      tag_229\n      jumpi\n      mload(0x40)\n      shl(0xe5, 0x461bcd)\n      dup2\n      mstore\n        /* \"#utility.yul\":10544:10546   */\n      0x20\n        /* \"Documents/GitHub/Store-system-with-feedback/main.sol\":8994:9069  require(structUserLogins[login] != address(0), \"Error: User doesn't exist\") */\n      0x04\n      dup3\n      add\n        /* \"#utility.yul\":10526:10547   */\n      mstore\n        /* \"#utility.yul\":10583:10585   */\n      0x19\n        /* \"#utility.yul\":10563:10581   */\n      0x24\n      dup3\n      add\n        /* \"#utility.yul\":10556:10586   */\n      mstore\n      shl(0x3a, 0x115c9c9bdc8e88155cd95c88191bd95cdb89dd08195e1a5cdd)\n        /* \"#utility.yul\":10602:10620   */\n      0x44\n      dup3\n      add\n        /* \"#utility.yul\":10595:10650   */\n      mstore\n        /* \"#utility.yul\":10667:10685   */\n      0x64\n      add\n        /* \"Documents/GitHub/Store-system-with-feedback/main.sol\":8994:9069  require(structUserLogins[login] != address(0), \"Error: User doesn't exist\") */\n      tag_148\n        /* \"#utility.yul\":10342:10691   */\n      jump\n        /* \"Documents/GitHub/Store-system-with-feedback/main.sol\":8994:9069  require(structUserLogins[login] != address(0), \"Error: User doesn't exist\") */\n    tag_229:\n        /* \"Documents/GitHub/Store-system-with-feedback/main.sol\":9137:9145  password */\n      dup1\n        /* \"Documents/GitHub/Store-system-with-feedback/main.sol\":9088:9099  structUsers */\n      0x04\n        /* \"Documents/GitHub/Store-system-with-feedback/main.sol\":9088:9124  structUsers[structUserLogins[login]] */\n      0x00\n        /* \"Documents/GitHub/Store-system-with-feedback/main.sol\":9100:9116  structUserLogins */\n      0x05\n        /* \"Documents/GitHub/Store-system-with-feedback/main.sol\":9117:9122  login */\n      dup6\n        /* \"Documents/GitHub/Store-system-with-feedback/main.sol\":9100:9123  structUserLogins[login] */\n      mload(0x40)\n      tag_232\n      swap2\n      swap1\n      tag_146\n      jump\t// in\n    tag_232:\n      swap1\n      dup2\n      mstore\n      0x40\n      dup1\n      mload\n      0x20\n      swap3\n      dup2\n      swap1\n      sub\n      dup4\n      add\n      swap1\n      keccak256\n      sload\n      sub(shl(0xa0, 0x01), 0x01)\n      and\n        /* \"Documents/GitHub/Store-system-with-feedback/main.sol\":9088:9124  structUsers[structUserLogins[login]] */\n      dup4\n      mstore\n      swap1\n      dup3\n      add\n      swap3\n      swap1\n      swap3\n      mstore\n      add\n      0x00\n      keccak256\n        /* \"Documents/GitHub/Store-system-with-feedback/main.sol\":9100:9123  structUserLogins[login] */\n      0x01\n        /* \"Documents/GitHub/Store-system-with-feedback/main.sol\":9088:9133  structUsers[structUserLogins[login]].password */\n      add\n      sload\n        /* \"Documents/GitHub/Store-system-with-feedback/main.sol\":9088:9145  structUsers[structUserLogins[login]].password == password */\n      eq\n        /* \"Documents/GitHub/Store-system-with-feedback/main.sol\":9080:9173  require(structUsers[structUserLogins[login]].password == password, \"Error: Invalid password\") */\n      tag_233\n      jumpi\n      mload(0x40)\n      shl(0xe5, 0x461bcd)\n      dup2\n      mstore\n        /* \"#utility.yul\":10192:10194   */\n      0x20\n        /* \"Documents/GitHub/Store-system-with-feedback/main.sol\":9080:9173  require(structUsers[structUserLogins[login]].password == password, \"Error: Invalid password\") */\n      0x04\n      dup3\n      add\n        /* \"#utility.yul\":10174:10195   */\n      mstore\n        /* \"#utility.yul\":10231:10233   */\n      0x17\n        /* \"#utility.yul\":10211:10229   */\n      0x24\n      dup3\n      add\n        /* \"#utility.yul\":10204:10234   */\n      mstore\n      shl(0x4a, 0x115c9c9bdc8e88125b9d985b1a59081c185cdcdddbdc99)\n        /* \"#utility.yul\":10250:10268   */\n      0x44\n      dup3\n      add\n        /* \"#utility.yul\":10243:10296   */\n      mstore\n        /* \"#utility.yul\":10313:10331   */\n      0x64\n      add\n        /* \"Documents/GitHub/Store-system-with-feedback/main.sol\":9080:9173  require(structUsers[structUserLogins[login]].password == password, \"Error: Invalid password\") */\n      tag_148\n        /* \"#utility.yul\":9990:10337   */\n      jump\n        /* \"Documents/GitHub/Store-system-with-feedback/main.sol\":9080:9173  require(structUsers[structUserLogins[login]].password == password, \"Error: Invalid password\") */\n    tag_233:\n        /* \"Documents/GitHub/Store-system-with-feedback/main.sol\":9230:9234  true */\n      0x01\n        /* \"Documents/GitHub/Store-system-with-feedback/main.sol\":9184:9195  structUsers */\n      0x04\n        /* \"Documents/GitHub/Store-system-with-feedback/main.sol\":9184:9220  structUsers[structUserLogins[login]] */\n      0x00\n        /* \"Documents/GitHub/Store-system-with-feedback/main.sol\":9196:9212  structUserLogins */\n      0x05\n        /* \"Documents/GitHub/Store-system-with-feedback/main.sol\":9213:9218  login */\n      dup6\n        /* \"Documents/GitHub/Store-system-with-feedback/main.sol\":9196:9219  structUserLogins[login] */\n      mload(0x40)\n      tag_236\n      swap2\n      swap1\n      tag_146\n      jump\t// in\n    tag_236:\n      swap1\n      dup2\n      mstore\n      0x40\n      dup1\n      mload\n      0x20\n      swap3\n      dup2\n      swap1\n      sub\n      dup4\n      add\n      swap1\n      keccak256\n      sload\n      sub(shl(0xa0, 0x01), 0x01)\n      and\n        /* \"Documents/GitHub/Store-system-with-feedback/main.sol\":9184:9220  structUsers[structUserLogins[login]] */\n      dup4\n      mstore\n      swap1\n      dup3\n      add\n      swap3\n      swap1\n      swap3\n      mstore\n      add\n      0x00\n      keccak256\n        /* \"Documents/GitHub/Store-system-with-feedback/main.sol\":9184:9227  structUsers[structUserLogins[login]].logged */\n      0x03\n      add\n        /* \"Documents/GitHub/Store-system-with-feedback/main.sol\":9184:9234  structUsers[structUserLogins[login]].logged = true */\n      dup1\n      sload\n      not(0xff00)\n      and\n        /* \"Documents/GitHub/Store-system-with-feedback/main.sol\":9196:9219  structUserLogins[login] */\n      0x0100\n        /* \"Documents/GitHub/Store-system-with-feedback/main.sol\":9184:9234  structUsers[structUserLogins[login]].logged = true */\n      swap3\n      iszero\n      iszero\n      swap3\n      swap1\n      swap3\n      mul\n      swap2\n      swap1\n      swap2\n      or\n      swap1\n      sstore\n      pop\n      pop\n        /* \"Documents/GitHub/Store-system-with-feedback/main.sol\":8815:9242  function login_user(string memory login, uint password) public {\r... */\n      jump\t// out\n        /* \"Documents/GitHub/Store-system-with-feedback/main.sol\":1733:1782  mapping(address => structUser) public structUsers */\n    tag_73:\n      mstore(0x20, 0x04)\n      0x00\n      swap1\n      dup2\n      mstore\n      0x40\n      swap1\n      keccak256\n      dup1\n      sload\n      dup2\n      swap1\n      tag_237\n      swap1\n      tag_161\n      jump\t// in\n    tag_237:\n      dup1\n      0x1f\n      add\n      0x20\n      dup1\n      swap2\n      div\n      mul\n      0x20\n      add\n      mload(0x40)\n      swap1\n      dup2\n      add\n      0x40\n      mstore\n      dup1\n      swap3\n      swap2\n      swap1\n      dup2\n      dup2\n      mstore\n      0x20\n      add\n      dup3\n      dup1\n      sload\n      tag_238\n      swap1\n      tag_161\n      jump\t// in\n    tag_238:\n      dup1\n      iszero\n      tag_239\n      jumpi\n      dup1\n      0x1f\n      lt\n      tag_240\n      jumpi\n      0x0100\n      dup1\n      dup4\n      sload\n      div\n      mul\n      dup4\n      mstore\n      swap2\n      0x20\n      add\n      swap2\n      jump(tag_239)\n    tag_240:\n      dup3\n      add\n      swap2\n      swap1\n      0x00\n      mstore\n      keccak256(0x00, 0x20)\n      swap1\n    tag_241:\n      dup2\n      sload\n      dup2\n      mstore\n      swap1\n      0x01\n      add\n      swap1\n      0x20\n      add\n      dup1\n      dup4\n      gt\n      tag_241\n      jumpi\n      dup3\n      swap1\n      sub\n      0x1f\n      and\n      dup3\n      add\n      swap2\n    tag_239:\n      pop\n      pop\n      pop\n      pop\n      0x01\n      dup4\n      add\n      sload\n      0x02\n      dup5\n      add\n      sload\n      0x03\n      swap1\n      swap5\n      add\n      sload\n      swap3\n      swap4\n      swap1\n      swap3\n      swap1\n      swap2\n      pop\n      0xff\n      dup1\n      dup3\n      and\n      swap2\n      0x0100\n      swap1\n      div\n      and\n      dup6\n      jump\t// out\n        /* \"Documents/GitHub/Store-system-with-feedback/main.sol\":6053:6906  function getStoryRating(string memory shopName) public view returns(uint) {\r... */\n    tag_78:\n        /* \"Documents/GitHub/Store-system-with-feedback/main.sol\":6121:6125  uint */\n      0x00\n      dup1\n      dup1\n      dup1\n        /* \"Documents/GitHub/Store-system-with-feedback/main.sol\":6211:6798  for(uint i = 0; i < shopList.length; i++) {\r... */\n    tag_243:\n        /* \"Documents/GitHub/Store-system-with-feedback/main.sol\":6231:6239  shopList */\n      0x02\n        /* \"Documents/GitHub/Store-system-with-feedback/main.sol\":6231:6246  shopList.length */\n      sload\n        /* \"Documents/GitHub/Store-system-with-feedback/main.sol\":6227:6246  i < shopList.length */\n      dup2\n      lt\n        /* \"Documents/GitHub/Store-system-with-feedback/main.sol\":6211:6798  for(uint i = 0; i < shopList.length; i++) {\r... */\n      iszero\n      tag_244\n      jumpi\n        /* \"Documents/GitHub/Store-system-with-feedback/main.sol\":6268:6294  string memory tempShopName */\n      0x00\n        /* \"Documents/GitHub/Store-system-with-feedback/main.sol\":6297:6305  shopList */\n      0x02\n        /* \"Documents/GitHub/Store-system-with-feedback/main.sol\":6306:6307  i */\n      dup3\n        /* \"Documents/GitHub/Store-system-with-feedback/main.sol\":6297:6308  shopList[i] */\n      dup2\n      sload\n      dup2\n      lt\n      tag_247\n      jumpi\n      tag_247\n      tag_119\n      jump\t// in\n    tag_247:\n      swap1\n      0x00\n      mstore\n      keccak256(0x00, 0x20)\n      add\n        /* \"Documents/GitHub/Store-system-with-feedback/main.sol\":6268:6308  string memory tempShopName = shopList[i] */\n      dup1\n      sload\n      tag_249\n      swap1\n      tag_161\n      jump\t// in\n    tag_249:\n      dup1\n      0x1f\n      add\n      0x20\n      dup1\n      swap2\n      div\n      mul\n      0x20\n      add\n      mload(0x40)\n      swap1\n      dup2\n      add\n      0x40\n      mstore\n      dup1\n      swap3\n      swap2\n      swap1\n      dup2\n      dup2\n      mstore\n      0x20\n      add\n      dup3\n      dup1\n      sload\n      tag_250\n      swap1\n      tag_161\n      jump\t// in\n    tag_250:\n      dup1\n      iszero\n      tag_251\n      jumpi\n      dup1\n      0x1f\n      lt\n      tag_252\n      jumpi\n      0x0100\n      dup1\n      dup4\n      sload\n      div\n      mul\n      dup4\n      mstore\n      swap2\n      0x20\n      add\n      swap2\n      jump(tag_251)\n    tag_252:\n      dup3\n      add\n      swap2\n      swap1\n      0x00\n      mstore\n      keccak256(0x00, 0x20)\n      swap1\n    tag_253:\n      dup2\n      sload\n      dup2\n      mstore\n      swap1\n      0x01\n      add\n      swap1\n      0x20\n      add\n      dup1\n      dup4\n      gt\n      tag_253\n      jumpi\n      dup3\n      swap1\n      sub\n      0x1f\n      and\n      dup3\n      add\n      swap2\n    tag_251:\n      pop\n      pop\n      pop\n      pop\n      pop\n      swap1\n      pop\n        /* \"Documents/GitHub/Store-system-with-feedback/main.sol\":6398:6406  shopName */\n      dup6\n        /* \"Documents/GitHub/Store-system-with-feedback/main.sol\":6381:6407  abi.encodePacked(shopName) */\n      add(0x20, mload(0x40))\n      tag_254\n      swap2\n      swap1\n      tag_146\n      jump\t// in\n    tag_254:\n      mload(0x40)\n      0x20\n      dup2\n      dup4\n      sub\n      sub\n      dup2\n      mstore\n      swap1\n      0x40\n      mstore\n        /* \"Documents/GitHub/Store-system-with-feedback/main.sol\":6371:6408  keccak256(abi.encodePacked(shopName)) */\n      dup1\n      mload\n      swap1\n      0x20\n      add\n      keccak256\n        /* \"Documents/GitHub/Store-system-with-feedback/main.sol\":6353:6365  tempShopName */\n      dup2\n        /* \"Documents/GitHub/Store-system-with-feedback/main.sol\":6336:6366  abi.encodePacked(tempShopName) */\n      add(0x20, mload(0x40))\n      tag_255\n      swap2\n      swap1\n      tag_146\n      jump\t// in\n    tag_255:\n      mload(0x40)\n      0x20\n      dup2\n      dup4\n      sub\n      sub\n      dup2\n      mstore\n      swap1\n      0x40\n      mstore\n        /* \"Documents/GitHub/Store-system-with-feedback/main.sol\":6326:6367  keccak256(abi.encodePacked(tempShopName)) */\n      dup1\n      mload\n      swap1\n      0x20\n      add\n      keccak256\n        /* \"Documents/GitHub/Store-system-with-feedback/main.sol\":6326:6408  keccak256(abi.encodePacked(tempShopName)) == keccak256(abi.encodePacked(shopName)) */\n      eq\n        /* \"Documents/GitHub/Store-system-with-feedback/main.sol\":6323:6787  if(keccak256(abi.encodePacked(tempShopName)) == keccak256(abi.encodePacked(shopName))) {                    \r... */\n      iszero\n      tag_258\n      jumpi\n        /* \"Documents/GitHub/Store-system-with-feedback/main.sol\":6458:6459  0 */\n      0x00\n        /* \"Documents/GitHub/Store-system-with-feedback/main.sol\":6454:6459  i = 0 */\n      swap2\n      pop\n        /* \"Documents/GitHub/Store-system-with-feedback/main.sol\":6449:6772  for (i = 0; i <= complaintBooks.length; i++) {\r... */\n    tag_257:\n        /* \"Documents/GitHub/Store-system-with-feedback/main.sol\":6466:6480  complaintBooks */\n      0x03\n        /* \"Documents/GitHub/Store-system-with-feedback/main.sol\":6466:6487  complaintBooks.length */\n      sload\n        /* \"Documents/GitHub/Store-system-with-feedback/main.sol\":6461:6487  i <= complaintBooks.length */\n      dup3\n      gt\n        /* \"Documents/GitHub/Store-system-with-feedback/main.sol\":6449:6772  for (i = 0; i <= complaintBooks.length; i++) {\r... */\n      tag_258\n      jumpi\n        /* \"Documents/GitHub/Store-system-with-feedback/main.sol\":6588:6602  complaintBooks */\n      0x03\n        /* \"Documents/GitHub/Store-system-with-feedback/main.sol\":6603:6604  i */\n      dup3\n        /* \"Documents/GitHub/Store-system-with-feedback/main.sol\":6588:6605  complaintBooks[i] */\n      dup2\n      sload\n      dup2\n      lt\n      tag_261\n      jumpi\n      tag_261\n      tag_119\n      jump\t// in\n    tag_261:\n      swap1\n      0x00\n      mstore\n      keccak256(0x00, 0x20)\n      swap1\n      0x05\n      mul\n      add\n        /* \"Documents/GitHub/Store-system-with-feedback/main.sol\":6588:6610  complaintBooks[i].shop */\n      0x00\n      add\n        /* \"Documents/GitHub/Store-system-with-feedback/main.sol\":6571:6611  abi.encodePacked(complaintBooks[i].shop) */\n      add(0x20, mload(0x40))\n      tag_263\n      swap2\n      swap1\n      tag_125\n      jump\t// in\n    tag_263:\n      mload(0x40)\n      0x20\n      dup2\n      dup4\n      sub\n      sub\n      dup2\n      mstore\n      swap1\n      0x40\n      mstore\n        /* \"Documents/GitHub/Store-system-with-feedback/main.sol\":6561:6612  keccak256(abi.encodePacked(complaintBooks[i].shop)) */\n      dup1\n      mload\n      swap1\n      0x20\n      add\n      keccak256\n        /* \"Documents/GitHub/Store-system-with-feedback/main.sol\":6547:6555  shopName */\n      dup7\n        /* \"Documents/GitHub/Store-system-with-feedback/main.sol\":6530:6556  abi.encodePacked(shopName) */\n      add(0x20, mload(0x40))\n      tag_264\n      swap2\n      swap1\n      tag_146\n      jump\t// in\n    tag_264:\n      mload(0x40)\n      0x20\n      dup2\n      dup4\n      sub\n      sub\n      dup2\n      mstore\n      swap1\n      0x40\n      mstore\n        /* \"Documents/GitHub/Store-system-with-feedback/main.sol\":6520:6557  keccak256(abi.encodePacked(shopName)) */\n      dup1\n      mload\n      swap1\n      0x20\n      add\n      keccak256\n        /* \"Documents/GitHub/Store-system-with-feedback/main.sol\":6520:6612  keccak256(abi.encodePacked(shopName)) == keccak256(abi.encodePacked(complaintBooks[i].shop)) */\n      eq\n        /* \"Documents/GitHub/Store-system-with-feedback/main.sol\":6517:6753  if(keccak256(abi.encodePacked(shopName)) == keccak256(abi.encodePacked(complaintBooks[i].shop))) {\r... */\n      iszero\n      tag_265\n      jumpi\n        /* \"Documents/GitHub/Store-system-with-feedback/main.sol\":6661:6675  complaintBooks */\n      0x03\n        /* \"Documents/GitHub/Store-system-with-feedback/main.sol\":6676:6677  i */\n      dup3\n        /* \"Documents/GitHub/Store-system-with-feedback/main.sol\":6661:6678  complaintBooks[i] */\n      dup2\n      sload\n      dup2\n      lt\n      tag_267\n      jumpi\n      tag_267\n      tag_119\n      jump\t// in\n    tag_267:\n      swap1\n      0x00\n      mstore\n      keccak256(0x00, 0x20)\n      swap1\n      0x05\n      mul\n      add\n        /* \"Documents/GitHub/Store-system-with-feedback/main.sol\":6661:6685  complaintBooks[i].rating */\n      0x03\n      add\n      sload\n        /* \"Documents/GitHub/Store-system-with-feedback/main.sol\":6641:6685  countArrayRating += complaintBooks[i].rating */\n      dup4\n      tag_269\n      swap2\n      swap1\n      tag_139\n      jump\t// in\n    tag_269:\n      swap3\n      pop\n        /* \"Documents/GitHub/Store-system-with-feedback/main.sol\":6517:6753  if(keccak256(abi.encodePacked(shopName)) == keccak256(abi.encodePacked(complaintBooks[i].shop))) {\r... */\n    tag_265:\n        /* \"Documents/GitHub/Store-system-with-feedback/main.sol\":6489:6492  i++ */\n      dup2\n      tag_270\n      dup2\n      tag_175\n      jump\t// in\n    tag_270:\n      swap3\n      pop\n      pop\n        /* \"Documents/GitHub/Store-system-with-feedback/main.sol\":6449:6772  for (i = 0; i <= complaintBooks.length; i++) {\r... */\n      jump(tag_257)\n    tag_258:\n      pop\n        /* \"Documents/GitHub/Store-system-with-feedback/main.sol\":6248:6251  i++ */\n      dup1\n      tag_271\n      dup2\n      tag_175\n      jump\t// in\n    tag_271:\n      swap2\n      pop\n      pop\n        /* \"Documents/GitHub/Store-system-with-feedback/main.sol\":6211:6798  for(uint i = 0; i < shopList.length; i++) {\r... */\n      jump(tag_243)\n    tag_244:\n      pop\n        /* \"Documents/GitHub/Store-system-with-feedback/main.sol\":6828:6864  countArrayRating / totalAverageValue */\n      tag_272\n        /* \"Documents/GitHub/Store-system-with-feedback/main.sol\":6847:6864  totalAverageValue */\n      dup3\n        /* \"Documents/GitHub/Store-system-with-feedback/main.sol\":6828:6844  countArrayRating */\n      dup3\n        /* \"Documents/GitHub/Store-system-with-feedback/main.sol\":6828:6864  countArrayRating / totalAverageValue */\n      tag_273\n      jump\t// in\n    tag_272:\n        /* \"Documents/GitHub/Store-system-with-feedback/main.sol\":6808:6864  countArrayRating += countArrayRating / totalAverageValue */\n      tag_274\n      swap1\n      dup3\n      tag_139\n      jump\t// in\n    tag_274:\n      swap5\n        /* \"Documents/GitHub/Store-system-with-feedback/main.sol\":6053:6906  function getStoryRating(string memory shopName) public view returns(uint) {\r... */\n      swap4\n      pop\n      pop\n      pop\n      pop\n      jump\t// out\n        /* \"Documents/GitHub/Store-system-with-feedback/main.sol\":2516:2563  structStatusReturn[] public structStatusReturns */\n    tag_83:\n      0x0b\n      dup2\n      dup2\n      sload\n      dup2\n      lt\n      tag_216\n      jumpi\n      0x00\n      dup1\n      revert\n        /* \"Documents/GitHub/Store-system-with-feedback/main.sol\":7762:7916  function productReturn (string memory titleProduct) public {\r... */\n    tag_87:\n        /* \"Documents/GitHub/Store-system-with-feedback/main.sol\":7857:7907  structStatusReturn(msg.sender, titleProduct, true) */\n      0x40\n      dup1\n      mload\n      0x60\n      dup2\n      add\n      dup3\n      mstore\n        /* \"Documents/GitHub/Store-system-with-feedback/main.sol\":7876:7886  msg.sender */\n      caller\n        /* \"Documents/GitHub/Store-system-with-feedback/main.sol\":7857:7907  structStatusReturn(msg.sender, titleProduct, true) */\n      dup2\n      mstore\n      0x20\n      dup1\n      dup3\n      add\n      dup5\n      dup2\n      mstore\n        /* \"Documents/GitHub/Store-system-with-feedback/main.sol\":7902:7906  true */\n      0x01\n        /* \"Documents/GitHub/Store-system-with-feedback/main.sol\":7857:7907  structStatusReturn(msg.sender, titleProduct, true) */\n      swap4\n      dup4\n      add\n      dup5\n      swap1\n      mstore\n        /* \"Documents/GitHub/Store-system-with-feedback/main.sol\":7832:7851  structStatusReturns */\n      0x0b\n        /* \"Documents/GitHub/Store-system-with-feedback/main.sol\":7832:7908  structStatusReturns.push(structStatusReturn(msg.sender, titleProduct, true)) */\n      dup1\n      sload\n      swap5\n      dup6\n      add\n      dup2\n      sstore\n      0x00\n      mstore\n      dup3\n      mload\n      0x0175b7a638427703f0dbe7bb9bbf987a2551717b34e79f33b5b1008d1fa01db9\n      0x03\n      swap1\n      swap6\n      mul\n      swap5\n      dup6\n      add\n      dup1\n      sload\n      not(sub(shl(0xa0, 0x01), 0x01))\n      and\n      sub(shl(0xa0, 0x01), 0x01)\n      swap1\n      swap3\n      and\n      swap2\n      swap1\n      swap2\n      or\n      dup2\n      sstore\n      swap1\n      mload\n      dup1\n      mload\n        /* \"Documents/GitHub/Store-system-with-feedback/main.sol\":7857:7907  structStatusReturn(msg.sender, titleProduct, true) */\n      swap4\n      swap5\n        /* \"Documents/GitHub/Store-system-with-feedback/main.sol\":7832:7908  structStatusReturns.push(structStatusReturn(msg.sender, titleProduct, true)) */\n      swap2\n      swap4\n      tag_151\n      swap4\n      0x0175b7a638427703f0dbe7bb9bbf987a2551717b34e79f33b5b1008d1fa01dba\n      swap1\n      swap4\n      add\n      swap3\n      swap2\n      swap1\n      swap2\n      add\n      swap1\n      tag_152\n      jump\t// in\n        /* \"Documents/GitHub/Store-system-with-feedback/main.sol\":5791:5885  function getShopList() public view returns(string[] memory) {\r... */\n    tag_89:\n        /* \"Documents/GitHub/Store-system-with-feedback/main.sol\":5834:5849  string[] memory */\n      0x60\n        /* \"Documents/GitHub/Store-system-with-feedback/main.sol\":5869:5877  shopList */\n      0x02\n        /* \"Documents/GitHub/Store-system-with-feedback/main.sol\":5862:5877  return shopList */\n      dup1\n      sload\n      dup1\n      0x20\n      mul\n      0x20\n      add\n      mload(0x40)\n      swap1\n      dup2\n      add\n      0x40\n      mstore\n      dup1\n      swap3\n      swap2\n      swap1\n      dup2\n      dup2\n      mstore\n      0x20\n      add\n      0x00\n      swap1\n    tag_286:\n      dup3\n      dup3\n      lt\n      iszero\n      tag_201\n      jumpi\n      dup4\n      dup3\n      swap1\n      0x00\n      mstore\n      keccak256(0x00, 0x20)\n      add\n      dup1\n      sload\n      tag_289\n      swap1\n      tag_161\n      jump\t// in\n    tag_289:\n      dup1\n      0x1f\n      add\n      0x20\n      dup1\n      swap2\n      div\n      mul\n      0x20\n      add\n      mload(0x40)\n      swap1\n      dup2\n      add\n      0x40\n      mstore\n      dup1\n      swap3\n      swap2\n      swap1\n      dup2\n      dup2\n      mstore\n      0x20\n      add\n      dup3\n      dup1\n      sload\n      tag_290\n      swap1\n      tag_161\n      jump\t// in\n    tag_290:\n      dup1\n      iszero\n      tag_291\n      jumpi\n      dup1\n      0x1f\n      lt\n      tag_292\n      jumpi\n      0x0100\n      dup1\n      dup4\n      sload\n      div\n      mul\n      dup4\n      mstore\n      swap2\n      0x20\n      add\n      swap2\n      jump(tag_291)\n    tag_292:\n      dup3\n      add\n      swap2\n      swap1\n      0x00\n      mstore\n      keccak256(0x00, 0x20)\n      swap1\n    tag_293:\n      dup2\n      sload\n      dup2\n      mstore\n      swap1\n      0x01\n      add\n      swap1\n      0x20\n      add\n      dup1\n      dup4\n      gt\n      tag_293\n      jumpi\n      dup3\n      swap1\n      sub\n      0x1f\n      and\n      dup3\n      add\n      swap2\n    tag_291:\n      pop\n      pop\n      pop\n      pop\n      pop\n      dup2\n      mstore\n      0x20\n      add\n      swap1\n      0x01\n      add\n      swap1\n      jump(tag_286)\n        /* \"Documents/GitHub/Store-system-with-feedback/main.sol\":3365:3953  function leaveFeedback (string memory shop, string memory feedback, uint256 rating) public {\r... */\n    tag_98:\n        /* \"Documents/GitHub/Store-system-with-feedback/main.sol\":3485:3487  10 */\n      0x0a\n        /* \"Documents/GitHub/Store-system-with-feedback/main.sol\":3475:3481  rating */\n      dup2\n        /* \"Documents/GitHub/Store-system-with-feedback/main.sol\":3475:3487  rating <= 10 */\n      gt\n      iszero\n        /* \"Documents/GitHub/Store-system-with-feedback/main.sol\":3467:3524  require(rating <= 10,\"error: rating can be from 1 to 10\") */\n      tag_295\n      jumpi\n      mload(0x40)\n      shl(0xe5, 0x461bcd)\n      dup2\n      mstore\n        /* \"#utility.yul\":11601:11603   */\n      0x20\n        /* \"Documents/GitHub/Store-system-with-feedback/main.sol\":3467:3524  require(rating <= 10,\"error: rating can be from 1 to 10\") */\n      0x04\n      dup3\n      add\n        /* \"#utility.yul\":11583:11604   */\n      mstore\n        /* \"#utility.yul\":11640:11642   */\n      0x21\n        /* \"#utility.yul\":11620:11638   */\n      0x24\n      dup3\n      add\n        /* \"#utility.yul\":11613:11643   */\n      mstore\n        /* \"#utility.yul\":11679:11713   */\n      0x6572726f723a20726174696e672063616e2062652066726f6d203120746f2031\n        /* \"#utility.yul\":11659:11677   */\n      0x44\n      dup3\n      add\n        /* \"#utility.yul\":11652:11714   */\n      mstore\n      shl(0xfc, 0x03)\n        /* \"#utility.yul\":11730:11748   */\n      0x64\n      dup3\n      add\n        /* \"#utility.yul\":11723:11754   */\n      mstore\n        /* \"#utility.yul\":11771:11790   */\n      0x84\n      add\n        /* \"Documents/GitHub/Store-system-with-feedback/main.sol\":3467:3524  require(rating <= 10,\"error: rating can be from 1 to 10\") */\n      tag_148\n        /* \"#utility.yul\":11399:11796   */\n      jump\n        /* \"Documents/GitHub/Store-system-with-feedback/main.sol\":3467:3524  require(rating <= 10,\"error: rating can be from 1 to 10\") */\n    tag_295:\n        /* \"Documents/GitHub/Store-system-with-feedback/main.sol\":3539:3545  uint i */\n      0x00\n        /* \"Documents/GitHub/Store-system-with-feedback/main.sol\":3535:3946  for(uint i = 0; i <= shopList.length; i++) {\r... */\n    tag_298:\n        /* \"Documents/GitHub/Store-system-with-feedback/main.sol\":3556:3564  shopList */\n      0x02\n        /* \"Documents/GitHub/Store-system-with-feedback/main.sol\":3556:3571  shopList.length */\n      sload\n        /* \"Documents/GitHub/Store-system-with-feedback/main.sol\":3551:3571  i <= shopList.length */\n      dup2\n      gt\n        /* \"Documents/GitHub/Store-system-with-feedback/main.sol\":3535:3946  for(uint i = 0; i <= shopList.length; i++) {\r... */\n      tag_299\n      jumpi\n        /* \"Documents/GitHub/Store-system-with-feedback/main.sol\":3593:3619  string memory tempShopName */\n      0x00\n        /* \"Documents/GitHub/Store-system-with-feedback/main.sol\":3622:3630  shopList */\n      0x02\n        /* \"Documents/GitHub/Store-system-with-feedback/main.sol\":3631:3632  i */\n      dup3\n        /* \"Documents/GitHub/Store-system-with-feedback/main.sol\":3622:3633  shopList[i] */\n      dup2\n      sload\n      dup2\n      lt\n      tag_302\n      jumpi\n      tag_302\n      tag_119\n      jump\t// in\n    tag_302:\n      swap1\n      0x00\n      mstore\n      keccak256(0x00, 0x20)\n      add\n        /* \"Documents/GitHub/Store-system-with-feedback/main.sol\":3593:3633  string memory tempShopName = shopList[i] */\n      dup1\n      sload\n      tag_304\n      swap1\n      tag_161\n      jump\t// in\n    tag_304:\n      dup1\n      0x1f\n      add\n      0x20\n      dup1\n      swap2\n      div\n      mul\n      0x20\n      add\n      mload(0x40)\n      swap1\n      dup2\n      add\n      0x40\n      mstore\n      dup1\n      swap3\n      swap2\n      swap1\n      dup2\n      dup2\n      mstore\n      0x20\n      add\n      dup3\n      dup1\n      sload\n      tag_305\n      swap1\n      tag_161\n      jump\t// in\n    tag_305:\n      dup1\n      iszero\n      tag_306\n      jumpi\n      dup1\n      0x1f\n      lt\n      tag_307\n      jumpi\n      0x0100\n      dup1\n      dup4\n      sload\n      div\n      mul\n      dup4\n      mstore\n      swap2\n      0x20\n      add\n      swap2\n      jump(tag_306)\n    tag_307:\n      dup3\n      add\n      swap2\n      swap1\n      0x00\n      mstore\n      keccak256(0x00, 0x20)\n      swap1\n    tag_308:\n      dup2\n      sload\n      dup2\n      mstore\n      swap1\n      0x01\n      add\n      swap1\n      0x20\n      add\n      dup1\n      dup4\n      gt\n      tag_308\n      jumpi\n      dup3\n      swap1\n      sub\n      0x1f\n      and\n      dup3\n      add\n      swap2\n    tag_306:\n      pop\n      pop\n      pop\n      pop\n      pop\n      swap1\n      pop\n        /* \"Documents/GitHub/Store-system-with-feedback/main.sol\":3723:3727  shop */\n      dup5\n        /* \"Documents/GitHub/Store-system-with-feedback/main.sol\":3706:3728  abi.encodePacked(shop) */\n      add(0x20, mload(0x40))\n      tag_309\n      swap2\n      swap1\n      tag_146\n      jump\t// in\n    tag_309:\n      mload(0x40)\n      0x20\n      dup2\n      dup4\n      sub\n      sub\n      dup2\n      mstore\n      swap1\n      0x40\n      mstore\n        /* \"Documents/GitHub/Store-system-with-feedback/main.sol\":3696:3729  keccak256(abi.encodePacked(shop)) */\n      dup1\n      mload\n      swap1\n      0x20\n      add\n      keccak256\n        /* \"Documents/GitHub/Store-system-with-feedback/main.sol\":3678:3690  tempShopName */\n      dup2\n        /* \"Documents/GitHub/Store-system-with-feedback/main.sol\":3661:3691  abi.encodePacked(tempShopName) */\n      add(0x20, mload(0x40))\n      tag_310\n      swap2\n      swap1\n      tag_146\n      jump\t// in\n    tag_310:\n      mload(0x40)\n      0x20\n      dup2\n      dup4\n      sub\n      sub\n      dup2\n      mstore\n      swap1\n      0x40\n      mstore\n        /* \"Documents/GitHub/Store-system-with-feedback/main.sol\":3651:3692  keccak256(abi.encodePacked(tempShopName)) */\n      dup1\n      mload\n      swap1\n      0x20\n      add\n      keccak256\n        /* \"Documents/GitHub/Store-system-with-feedback/main.sol\":3651:3729  keccak256(abi.encodePacked(tempShopName)) == keccak256(abi.encodePacked(shop)) */\n      eq\n        /* \"Documents/GitHub/Store-system-with-feedback/main.sol\":3648:3935  if(keccak256(abi.encodePacked(tempShopName)) == keccak256(abi.encodePacked(shop))) {                    \r... */\n      iszero\n      tag_311\n      jumpi\n        /* \"Documents/GitHub/Store-system-with-feedback/main.sol\":3835:3918  complaintBook(shop, structUsers[msg.sender].userName, feedback, rating, zerroArray) */\n      0x40\n      dup1\n      mload\n      0xa0\n      dup2\n      add\n      dup3\n      mstore\n      dup7\n      dup2\n      mstore\n        /* \"Documents/GitHub/Store-system-with-feedback/main.sol\":3867:3877  msg.sender */\n      caller\n      0x00\n        /* \"Documents/GitHub/Store-system-with-feedback/main.sol\":3855:3878  structUsers[msg.sender] */\n      swap1\n      dup2\n      mstore\n        /* \"Documents/GitHub/Store-system-with-feedback/main.sol\":3855:3866  structUsers */\n      0x04\n        /* \"Documents/GitHub/Store-system-with-feedback/main.sol\":3835:3918  complaintBook(shop, structUsers[msg.sender].userName, feedback, rating, zerroArray) */\n      0x20\n        /* \"Documents/GitHub/Store-system-with-feedback/main.sol\":3855:3878  structUsers[msg.sender] */\n      swap1\n      dup2\n      mstore\n      swap3\n      swap1\n      keccak256\n        /* \"Documents/GitHub/Store-system-with-feedback/main.sol\":3835:3918  complaintBook(shop, structUsers[msg.sender].userName, feedback, rating, zerroArray) */\n      dup1\n      sload\n        /* \"Documents/GitHub/Store-system-with-feedback/main.sol\":3770:3796  string[] memory zerroArray */\n      0x60\n      swap4\n        /* \"Documents/GitHub/Store-system-with-feedback/main.sol\":3815:3829  complaintBooks */\n      0x03\n      swap4\n        /* \"Documents/GitHub/Store-system-with-feedback/main.sol\":3835:3918  complaintBook(shop, structUsers[msg.sender].userName, feedback, rating, zerroArray) */\n      swap3\n      swap1\n      dup4\n      add\n      swap2\n      tag_312\n      swap1\n      tag_161\n      jump\t// in\n    tag_312:\n      dup1\n      0x1f\n      add\n      0x20\n      dup1\n      swap2\n      div\n      mul\n      0x20\n      add\n      mload(0x40)\n      swap1\n      dup2\n      add\n      0x40\n      mstore\n      dup1\n      swap3\n      swap2\n      swap1\n      dup2\n      dup2\n      mstore\n      0x20\n      add\n      dup3\n      dup1\n      sload\n      tag_313\n      swap1\n      tag_161\n      jump\t// in\n    tag_313:\n      dup1\n      iszero\n      tag_314\n      jumpi\n      dup1\n      0x1f\n      lt\n      tag_315\n      jumpi\n      0x0100\n      dup1\n      dup4\n      sload\n      div\n      mul\n      dup4\n      mstore\n      swap2\n      0x20\n      add\n      swap2\n      jump(tag_314)\n    tag_315:\n      dup3\n      add\n      swap2\n      swap1\n      0x00\n      mstore\n      keccak256(0x00, 0x20)\n      swap1\n    tag_316:\n      dup2\n      sload\n      dup2\n      mstore\n      swap1\n      0x01\n      add\n      swap1\n      0x20\n      add\n      dup1\n      dup4\n      gt\n      tag_316\n      jumpi\n      dup3\n      swap1\n      sub\n      0x1f\n      and\n      dup3\n      add\n      swap2\n    tag_314:\n      pop\n      pop\n      pop\n      swap2\n      dup4\n      mstore\n      pop\n      pop\n      0x20\n      dup1\n      dup3\n      add\n      dup10\n      swap1\n      mstore\n      0x40\n      dup3\n      add\n      dup9\n      swap1\n      mstore\n      0x60\n      swap1\n      swap2\n      add\n      dup5\n      swap1\n      mstore\n        /* \"Documents/GitHub/Store-system-with-feedback/main.sol\":3815:3919  complaintBooks.push(complaintBook(shop, structUsers[msg.sender].userName, feedback, rating, zerroArray)) */\n      dup3\n      sload\n      0x01\n      dup2\n      add\n      dup5\n      sstore\n      0x00\n      swap4\n      dup5\n      mstore\n      swap3\n      dup2\n      swap1\n      keccak256\n      dup3\n      mload\n      dup1\n      mload\n      swap4\n      swap5\n      0x05\n      mul\n      swap1\n      swap2\n      add\n      swap3\n      tag_318\n      swap3\n      dup5\n      swap3\n      add\n      swap1\n      tag_152\n      jump\t// in\n    tag_318:\n      pop\n      0x20\n      dup3\n      dup2\n      add\n      mload\n      dup1\n      mload\n      tag_319\n      swap3\n      0x01\n      dup6\n      add\n      swap3\n      add\n      swap1\n      tag_152\n      jump\t// in\n    tag_319:\n      pop\n      0x40\n      dup3\n      add\n      mload\n      dup1\n      mload\n      tag_320\n      swap2\n      0x02\n      dup5\n      add\n      swap2\n      0x20\n      swap1\n      swap2\n      add\n      swap1\n      tag_152\n      jump\t// in\n    tag_320:\n      pop\n      0x60\n      dup3\n      add\n      mload\n      0x03\n      dup3\n      add\n      sstore\n      0x80\n      dup3\n      add\n      mload\n      dup1\n      mload\n      tag_321\n      swap2\n      0x04\n      dup5\n      add\n      swap2\n      0x20\n      swap1\n      swap2\n      add\n      swap1\n      tag_173\n      jump\t// in\n    tag_321:\n      pop\n      pop\n      pop\n        /* \"Documents/GitHub/Store-system-with-feedback/main.sol\":3731:3935  {                    \r... */\n      pop\n        /* \"Documents/GitHub/Store-system-with-feedback/main.sol\":3648:3935  if(keccak256(abi.encodePacked(tempShopName)) == keccak256(abi.encodePacked(shop))) {                    \r... */\n    tag_311:\n      pop\n        /* \"Documents/GitHub/Store-system-with-feedback/main.sol\":3573:3576  i++ */\n      dup1\n      tag_322\n      dup2\n      tag_175\n      jump\t// in\n    tag_322:\n      swap2\n      pop\n      pop\n        /* \"Documents/GitHub/Store-system-with-feedback/main.sol\":3535:3946  for(uint i = 0; i <= shopList.length; i++) {\r... */\n      jump(tag_298)\n    tag_299:\n      pop\n        /* \"Documents/GitHub/Store-system-with-feedback/main.sol\":3365:3953  function leaveFeedback (string memory shop, string memory feedback, uint256 rating) public {\r... */\n      pop\n      pop\n      pop\n      jump\t// out\n        /* \"Documents/GitHub/Store-system-with-feedback/main.sol\":2065:2119  mapping(string => structProduct) public structProducts */\n    tag_101:\n      dup1\n      mload\n      0x20\n      dup2\n      dup4\n      add\n      dup2\n      add\n      dup1\n      mload\n      0x08\n      dup3\n      mstore\n      swap3\n      dup3\n      add\n      swap2\n      swap1\n      swap4\n      add\n      keccak256\n      swap2\n      mstore\n      dup1\n      sload\n      0x01\n      dup3\n      add\n      dup1\n      sload\n      sub(shl(0xa0, 0x01), 0x01)\n      swap1\n      swap3\n      and\n      swap3\n      swap2\n      tag_323\n      swap1\n      tag_161\n      jump\t// in\n    tag_323:\n      dup1\n      0x1f\n      add\n      0x20\n      dup1\n      swap2\n      div\n      mul\n      0x20\n      add\n      mload(0x40)\n      swap1\n      dup2\n      add\n      0x40\n      mstore\n      dup1\n      swap3\n      swap2\n      swap1\n      dup2\n      dup2\n      mstore\n      0x20\n      add\n      dup3\n      dup1\n      sload\n      tag_324\n      swap1\n      tag_161\n      jump\t// in\n    tag_324:\n      dup1\n      iszero\n      tag_325\n      jumpi\n      dup1\n      0x1f\n      lt\n      tag_326\n      jumpi\n      0x0100\n      dup1\n      dup4\n      sload\n      div\n      mul\n      dup4\n      mstore\n      swap2\n      0x20\n      add\n      swap2\n      jump(tag_325)\n    tag_326:\n      dup3\n      add\n      swap2\n      swap1\n      0x00\n      mstore\n      keccak256(0x00, 0x20)\n      swap1\n    tag_327:\n      dup2\n      sload\n      dup2\n      mstore\n      swap1\n      0x01\n      add\n      swap1\n      0x20\n      add\n      dup1\n      dup4\n      gt\n      tag_327\n      jumpi\n      dup3\n      swap1\n      sub\n      0x1f\n      and\n      dup3\n      add\n      swap2\n    tag_325:\n      pop\n      pop\n      pop\n      pop\n      pop\n      swap1\n      dup1\n      0x02\n      add\n      sload\n      swap1\n      dup1\n      0x03\n      add\n      sload\n      swap1\n      pop\n      dup5\n      jump\t// out\n        /* \"Documents/GitHub/Store-system-with-feedback/main.sol\":2308:2359  structStatusPurchase[] public structStatusPurchases */\n    tag_106:\n      0x0a\n      dup2\n      dup2\n      sload\n      dup2\n      lt\n      tag_216\n      jumpi\n      0x00\n      dup1\n      revert\n        /* \"Documents/GitHub/Store-system-with-feedback/main.sol\":8345:8781  function create_user(address addr, string memory login, uint password) public {\r... */\n    tag_111:\n        /* \"Documents/GitHub/Store-system-with-feedback/main.sol\":8456:8498  0x9c35a9bdf790A5Ce09b353B1C765269aB466Baad */\n      0x9c35a9bdf790a5ce09b353b1c765269ab466baad\n        /* \"Documents/GitHub/Store-system-with-feedback/main.sol\":8442:8452  msg.sender */\n      caller\n        /* \"Documents/GitHub/Store-system-with-feedback/main.sol\":8442:8498  msg.sender == 0x9c35a9bdf790A5Ce09b353B1C765269aB466Baad */\n      eq\n        /* \"Documents/GitHub/Store-system-with-feedback/main.sol\":8434:8532  require(msg.sender == 0x9c35a9bdf790A5Ce09b353B1C765269aB466Baad, \"Error: You not a zero account\") */\n      tag_336\n      jumpi\n      mload(0x40)\n      shl(0xe5, 0x461bcd)\n      dup2\n      mstore\n        /* \"#utility.yul\":9480:9482   */\n      0x20\n        /* \"Documents/GitHub/Store-system-with-feedback/main.sol\":8434:8532  require(msg.sender == 0x9c35a9bdf790A5Ce09b353B1C765269aB466Baad, \"Error: You not a zero account\") */\n      0x04\n      dup3\n      add\n        /* \"#utility.yul\":9462:9483   */\n      mstore\n        /* \"#utility.yul\":9519:9521   */\n      0x1d\n        /* \"#utility.yul\":9499:9517   */\n      0x24\n      dup3\n      add\n        /* \"#utility.yul\":9492:9522   */\n      mstore\n        /* \"#utility.yul\":9558:9589   */\n      0x4572726f723a20596f75206e6f742061207a65726f206163636f756e74000000\n        /* \"#utility.yul\":9538:9556   */\n      0x44\n      dup3\n      add\n        /* \"#utility.yul\":9531:9590   */\n      mstore\n        /* \"#utility.yul\":9607:9625   */\n      0x64\n      add\n        /* \"Documents/GitHub/Store-system-with-feedback/main.sol\":8434:8532  require(msg.sender == 0x9c35a9bdf790A5Ce09b353B1C765269aB466Baad, \"Error: You not a zero account\") */\n      tag_148\n        /* \"#utility.yul\":9278:9631   */\n      jump\n        /* \"Documents/GitHub/Store-system-with-feedback/main.sol\":8434:8532  require(msg.sender == 0x9c35a9bdf790A5Ce09b353B1C765269aB466Baad, \"Error: You not a zero account\") */\n    tag_336:\n        /* \"Documents/GitHub/Store-system-with-feedback/main.sol\":8586:8587  0 */\n      0x00\n      sub(shl(0xa0, 0x01), 0x01)\n        /* \"Documents/GitHub/Store-system-with-feedback/main.sol\":8551:8588  structUserLogins[login] == address(0) */\n      and\n        /* \"Documents/GitHub/Store-system-with-feedback/main.sol\":8551:8567  structUserLogins */\n      0x05\n        /* \"Documents/GitHub/Store-system-with-feedback/main.sol\":8568:8573  login */\n      dup4\n        /* \"Documents/GitHub/Store-system-with-feedback/main.sol\":8551:8574  structUserLogins[login] */\n      mload(0x40)\n      tag_339\n      swap2\n      swap1\n      tag_146\n      jump\t// in\n    tag_339:\n      swap1\n      dup2\n      mstore\n      mload(0x40)\n      swap1\n      dup2\n      swap1\n      sub\n      0x20\n      add\n      swap1\n      keccak256\n      sload\n      sub(shl(0xa0, 0x01), 0x01)\n      and\n        /* \"Documents/GitHub/Store-system-with-feedback/main.sol\":8551:8588  structUserLogins[login] == address(0) */\n      eq\n        /* \"Documents/GitHub/Store-system-with-feedback/main.sol\":8543:8618  require(structUserLogins[login] == address(0), \"Error: User already exist\") */\n      tag_340\n      jumpi\n      mload(0x40)\n      shl(0xe5, 0x461bcd)\n      dup2\n      mstore\n        /* \"#utility.yul\":9838:9840   */\n      0x20\n        /* \"Documents/GitHub/Store-system-with-feedback/main.sol\":8543:8618  require(structUserLogins[login] == address(0), \"Error: User already exist\") */\n      0x04\n      dup3\n      add\n        /* \"#utility.yul\":9820:9841   */\n      mstore\n        /* \"#utility.yul\":9877:9879   */\n      0x19\n        /* \"#utility.yul\":9857:9875   */\n      0x24\n      dup3\n      add\n        /* \"#utility.yul\":9850:9880   */\n      mstore\n      shl(0x3a, 0x115c9c9bdc8e88155cd95c88185b1c9958591e48195e1a5cdd)\n        /* \"#utility.yul\":9896:9914   */\n      0x44\n      dup3\n      add\n        /* \"#utility.yul\":9889:9944   */\n      mstore\n        /* \"#utility.yul\":9961:9979   */\n      0x64\n      add\n        /* \"Documents/GitHub/Store-system-with-feedback/main.sol\":8543:8618  require(structUserLogins[login] == address(0), \"Error: User already exist\") */\n      tag_148\n        /* \"#utility.yul\":9636:9985   */\n      jump\n        /* \"Documents/GitHub/Store-system-with-feedback/main.sol\":8543:8618  require(structUserLogins[login] == address(0), \"Error: User already exist\") */\n    tag_340:\n        /* \"Documents/GitHub/Store-system-with-feedback/main.sol\":8649:8694  structUser(login, password, 1000, true, true) */\n      0x40\n      dup1\n      mload\n      0xa0\n      dup2\n      add\n      dup3\n      mstore\n      dup4\n      dup2\n      mstore\n      0x20\n      dup1\n      dup3\n      add\n      dup5\n      swap1\n      mstore\n        /* \"Documents/GitHub/Store-system-with-feedback/main.sol\":8677:8681  1000 */\n      0x03e8\n        /* \"Documents/GitHub/Store-system-with-feedback/main.sol\":8649:8694  structUser(login, password, 1000, true, true) */\n      dup3\n      dup5\n      add\n      mstore\n        /* \"Documents/GitHub/Store-system-with-feedback/main.sol\":8683:8687  true */\n      0x01\n        /* \"Documents/GitHub/Store-system-with-feedback/main.sol\":8649:8694  structUser(login, password, 1000, true, true) */\n      0x60\n      dup4\n      add\n      dup2\n      swap1\n      mstore\n      0x80\n      dup4\n      add\n      mstore\n      sub(shl(0xa0, 0x01), 0x01)\n        /* \"Documents/GitHub/Store-system-with-feedback/main.sol\":8629:8646  structUsers[addr] */\n      dup7\n      and\n      0x00\n      swap1\n      dup2\n      mstore\n        /* \"Documents/GitHub/Store-system-with-feedback/main.sol\":8629:8640  structUsers */\n      0x04\n        /* \"Documents/GitHub/Store-system-with-feedback/main.sol\":8629:8646  structUsers[addr] */\n      dup3\n      mstore\n      swap3\n      swap1\n      swap3\n      keccak256\n        /* \"Documents/GitHub/Store-system-with-feedback/main.sol\":8629:8694  structUsers[addr] = structUser(login, password, 1000, true, true) */\n      dup2\n      mload\n      dup1\n      mload\n        /* \"Documents/GitHub/Store-system-with-feedback/main.sol\":8649:8694  structUser(login, password, 1000, true, true) */\n      swap3\n      swap4\n        /* \"Documents/GitHub/Store-system-with-feedback/main.sol\":8629:8646  structUsers[addr] */\n      swap2\n      swap3\n        /* \"Documents/GitHub/Store-system-with-feedback/main.sol\":8629:8694  structUsers[addr] = structUser(login, password, 1000, true, true) */\n      tag_343\n      swap3\n        /* \"Documents/GitHub/Store-system-with-feedback/main.sol\":8629:8646  structUsers[addr] */\n      dup5\n      swap3\n        /* \"Documents/GitHub/Store-system-with-feedback/main.sol\":8629:8694  structUsers[addr] = structUser(login, password, 1000, true, true) */\n      add\n      swap1\n      tag_152\n      jump\t// in\n    tag_343:\n      pop\n      0x20\n      dup3\n      add\n      mload\n      0x01\n      dup3\n      add\n      sstore\n      0x40\n      dup1\n      dup4\n      add\n      mload\n      0x02\n      dup4\n      add\n      sstore\n      0x60\n      dup4\n      add\n      mload\n      0x03\n      swap1\n      swap3\n      add\n      dup1\n      sload\n      0x80\n      swap1\n      swap5\n      add\n      mload\n      iszero\n      iszero\n      0x0100\n      mul\n      not(0xff00)\n      swap4\n      iszero\n      iszero\n      swap4\n      swap1\n      swap4\n      and\n      not(0xffff)\n      swap1\n      swap5\n      and\n      swap4\n      swap1\n      swap4\n      or\n      swap2\n      swap1\n      swap2\n      or\n      swap1\n      swap2\n      sstore\n        /* \"Documents/GitHub/Store-system-with-feedback/main.sol\":8705:8728  structUserLogins[login] */\n      mload\n        /* \"Documents/GitHub/Store-system-with-feedback/main.sol\":8731:8735  addr */\n      dup4\n      swap1\n        /* \"Documents/GitHub/Store-system-with-feedback/main.sol\":8705:8721  structUserLogins */\n      0x05\n      swap1\n        /* \"Documents/GitHub/Store-system-with-feedback/main.sol\":8705:8728  structUserLogins[login] */\n      tag_344\n      swap1\n        /* \"Documents/GitHub/Store-system-with-feedback/main.sol\":8722:8727  login */\n      dup6\n      swap1\n        /* \"Documents/GitHub/Store-system-with-feedback/main.sol\":8705:8728  structUserLogins[login] */\n      tag_146\n      jump\t// in\n    tag_344:\n      swap1\n      dup2\n      mstore\n      mload(0x40)\n      swap1\n      dup2\n      swap1\n      sub\n      0x20\n      add\n      swap1\n      keccak256\n        /* \"Documents/GitHub/Store-system-with-feedback/main.sol\":8705:8735  structUserLogins[login] = addr */\n      dup1\n      sload\n      sub(shl(0xa0, 0x01), 0x01)\n      swap3\n      dup4\n      and\n      not(sub(shl(0xa0, 0x01), 0x01))\n      swap2\n      dup3\n      and\n      or\n      swap1\n      swap2\n      sstore\n        /* \"Documents/GitHub/Store-system-with-feedback/main.sol\":8746:8762  userAddressArray */\n      0x07\n        /* \"Documents/GitHub/Store-system-with-feedback/main.sol\":8746:8773  userAddressArray.push(addr) */\n      dup1\n      sload\n        /* \"Documents/GitHub/Store-system-with-feedback/main.sol\":8705:8735  structUserLogins[login] = addr */\n      0x01\n        /* \"Documents/GitHub/Store-system-with-feedback/main.sol\":8746:8773  userAddressArray.push(addr) */\n      dup2\n      add\n      dup3\n      sstore\n        /* \"Documents/GitHub/Store-system-with-feedback/main.sol\":8705:8728  structUserLogins[login] */\n      0x00\n        /* \"Documents/GitHub/Store-system-with-feedback/main.sol\":8746:8773  userAddressArray.push(addr) */\n      swap2\n      swap1\n      swap2\n      mstore\n      0xa66cc928b5edb82af9bd49922954155ab7b0942694bea4ce44661d9a8736c688\n      add\n      dup1\n      sload\n      swap6\n      swap1\n      swap3\n      and\n      swap5\n      and\n      swap4\n      swap1\n      swap4\n      or\n      swap1\n      swap3\n      sstore\n      pop\n      pop\n        /* \"Documents/GitHub/Store-system-with-feedback/main.sol\":8345:8781  function create_user(address addr, string memory login, uint password) public {\r... */\n      jump\t// out\n        /* \"Documents/GitHub/Store-system-with-feedback/main.sol\":5180:5757  function MarriageRegistration(uint idMarriageRegistration, bool confirmation) public {\r... */\n    tag_114:\n        /* \"Documents/GitHub/Store-system-with-feedback/main.sol\":5295:5299  true */\n      0x01\n        /* \"Documents/GitHub/Store-system-with-feedback/main.sol\":5279:5299  confirmation == true */\n      dup2\n      iszero\n      iszero\n      eq\n        /* \"Documents/GitHub/Store-system-with-feedback/main.sol\":5276:5750  if(confirmation == true) {\r... */\n      iszero\n      tag_177\n      jumpi\n        /* \"Documents/GitHub/Store-system-with-feedback/main.sol\":5488:5502  structProducts */\n      0x08\n        /* \"Documents/GitHub/Store-system-with-feedback/main.sol\":5503:5530  structMarriageRegistrations */\n      0x0c\n        /* \"Documents/GitHub/Store-system-with-feedback/main.sol\":5531:5553  idMarriageRegistration */\n      dup4\n        /* \"Documents/GitHub/Store-system-with-feedback/main.sol\":5503:5554  structMarriageRegistrations[idMarriageRegistration] */\n      dup2\n      sload\n      dup2\n      lt\n      tag_349\n      jumpi\n      tag_349\n      tag_119\n      jump\t// in\n    tag_349:\n      swap1\n      0x00\n      mstore\n      keccak256(0x00, 0x20)\n      swap1\n      0x03\n      mul\n      add\n        /* \"Documents/GitHub/Store-system-with-feedback/main.sol\":5503:5567  structMarriageRegistrations[idMarriageRegistration].titleProduct */\n      0x01\n      add\n        /* \"Documents/GitHub/Store-system-with-feedback/main.sol\":5488:5568  structProducts[structMarriageRegistrations[idMarriageRegistration].titleProduct] */\n      mload(0x40)\n      tag_351\n      swap2\n      swap1\n      tag_125\n      jump\t// in\n    tag_351:\n      swap1\n      dup2\n      mstore\n      0x20\n      add\n      mload(0x40)\n      dup1\n      swap2\n      sub\n      swap1\n      keccak256\n        /* \"Documents/GitHub/Store-system-with-feedback/main.sol\":5488:5574  structProducts[structMarriageRegistrations[idMarriageRegistration].titleProduct].price */\n      0x02\n      add\n      sload\n        /* \"Documents/GitHub/Store-system-with-feedback/main.sol\":5402:5413  structUsers */\n      0x04\n        /* \"Documents/GitHub/Store-system-with-feedback/main.sol\":5402:5476  structUsers[structMarriageRegistrations[idMarriageRegistration].userLogin] */\n      0x00\n        /* \"Documents/GitHub/Store-system-with-feedback/main.sol\":5414:5441  structMarriageRegistrations */\n      0x0c\n        /* \"Documents/GitHub/Store-system-with-feedback/main.sol\":5442:5464  idMarriageRegistration */\n      dup6\n        /* \"Documents/GitHub/Store-system-with-feedback/main.sol\":5414:5465  structMarriageRegistrations[idMarriageRegistration] */\n      dup2\n      sload\n      dup2\n      lt\n      tag_353\n      jumpi\n      tag_353\n      tag_119\n      jump\t// in\n    tag_353:\n      0x00\n      swap2\n      dup3\n      mstore\n      0x20\n      dup1\n      dup4\n      keccak256\n      0x03\n      swap1\n      swap3\n      mul\n      swap1\n      swap2\n      add\n        /* \"Documents/GitHub/Store-system-with-feedback/main.sol\":5414:5475  structMarriageRegistrations[idMarriageRegistration].userLogin */\n      sload\n      sub(shl(0xa0, 0x01), 0x01)\n      and\n        /* \"Documents/GitHub/Store-system-with-feedback/main.sol\":5402:5476  structUsers[structMarriageRegistrations[idMarriageRegistration].userLogin] */\n      dup4\n      mstore\n      dup3\n      add\n      swap3\n      swap1\n      swap3\n      mstore\n      0x40\n      add\n      swap1\n      keccak256\n        /* \"Documents/GitHub/Store-system-with-feedback/main.sol\":5402:5485  structUsers[structMarriageRegistrations[idMarriageRegistration].userLogin].ballance */\n      0x02\n      add\n      sload\n        /* \"Documents/GitHub/Store-system-with-feedback/main.sol\":5402:5574  structUsers[structMarriageRegistrations[idMarriageRegistration].userLogin].ballance + structProducts[structMarriageRegistrations[idMarriageRegistration].titleProduct].price */\n      tag_355\n      swap2\n      swap1\n      tag_139\n      jump\t// in\n    tag_355:\n        /* \"Documents/GitHub/Store-system-with-feedback/main.sol\":5316:5327  structUsers */\n      0x04\n        /* \"Documents/GitHub/Store-system-with-feedback/main.sol\":5316:5390  structUsers[structMarriageRegistrations[idMarriageRegistration].userLogin] */\n      0x00\n        /* \"Documents/GitHub/Store-system-with-feedback/main.sol\":5328:5355  structMarriageRegistrations */\n      0x0c\n        /* \"Documents/GitHub/Store-system-with-feedback/main.sol\":5356:5378  idMarriageRegistration */\n      dup6\n        /* \"Documents/GitHub/Store-system-with-feedback/main.sol\":5328:5379  structMarriageRegistrations[idMarriageRegistration] */\n      dup2\n      sload\n      dup2\n      lt\n      tag_357\n      jumpi\n      tag_357\n      tag_119\n      jump\t// in\n    tag_357:\n      0x00\n      swap2\n      dup3\n      mstore\n      0x20\n      dup1\n      dup4\n      keccak256\n      0x03\n      swap1\n      swap3\n      mul\n      swap1\n      swap2\n      add\n        /* \"Documents/GitHub/Store-system-with-feedback/main.sol\":5328:5389  structMarriageRegistrations[idMarriageRegistration].userLogin */\n      sload\n      sub(shl(0xa0, 0x01), 0x01)\n      and\n        /* \"Documents/GitHub/Store-system-with-feedback/main.sol\":5316:5390  structUsers[structMarriageRegistrations[idMarriageRegistration].userLogin] */\n      dup4\n      mstore\n      dup3\n      add\n      swap3\n      swap1\n      swap3\n      mstore\n      0x40\n      add\n      dup2\n      keccak256\n        /* \"Documents/GitHub/Store-system-with-feedback/main.sol\":5316:5399  structUsers[structMarriageRegistrations[idMarriageRegistration].userLogin].ballance */\n      0x02\n      add\n        /* \"Documents/GitHub/Store-system-with-feedback/main.sol\":5316:5574  structUsers[structMarriageRegistrations[idMarriageRegistration].userLogin].ballance = structUsers[structMarriageRegistrations[idMarriageRegistration].userLogin].ballance + structProducts[structMarriageRegistrations[idMarriageRegistration].titleProduct].price */\n      swap2\n      swap1\n      swap2\n      sstore\n        /* \"Documents/GitHub/Store-system-with-feedback/main.sol\":5589:5608  structStatusReturns */\n      0x0b\n        /* \"Documents/GitHub/Store-system-with-feedback/main.sol\":5589:5632  structStatusReturns[idMarriageRegistration] */\n      dup1\n      sload\n        /* \"Documents/GitHub/Store-system-with-feedback/main.sol\":5609:5631  idMarriageRegistration */\n      dup5\n      swap1\n        /* \"Documents/GitHub/Store-system-with-feedback/main.sol\":5589:5632  structStatusReturns[idMarriageRegistration] */\n      dup2\n      lt\n      tag_142\n      jumpi\n      tag_142\n      tag_119\n      jump\t// in\n    tag_152:\n      dup3\n      dup1\n      sload\n      tag_366\n      swap1\n      tag_161\n      jump\t// in\n    tag_366:\n      swap1\n      0x00\n      mstore\n      keccak256(0x00, 0x20)\n      swap1\n      0x1f\n      add\n      0x20\n      swap1\n      div\n      dup2\n      add\n      swap3\n      dup3\n      tag_368\n      jumpi\n      0x00\n      dup6\n      sstore\n      jump(tag_371)\n    tag_368:\n      dup3\n      0x1f\n      lt\n      tag_369\n      jumpi\n      dup1\n      mload\n      not(0xff)\n      and\n      dup4\n      dup1\n      add\n      or\n      dup6\n      sstore\n      jump(tag_371)\n    tag_369:\n      dup3\n      dup1\n      add\n      0x01\n      add\n      dup6\n      sstore\n      dup3\n      iszero\n      tag_371\n      jumpi\n      swap2\n      dup3\n      add\n    tag_370:\n      dup3\n      dup2\n      gt\n      iszero\n      tag_371\n      jumpi\n      dup3\n      mload\n      dup3\n      sstore\n      swap2\n      0x20\n      add\n      swap2\n      swap1\n      0x01\n      add\n      swap1\n      jump(tag_370)\n    tag_371:\n      pop\n      tag_372\n      swap3\n      swap2\n      pop\n      tag_373\n      jump\t// in\n    tag_372:\n      pop\n      swap1\n      jump\t// out\n    tag_173:\n      dup3\n      dup1\n      sload\n      dup3\n      dup3\n      sstore\n      swap1\n      0x00\n      mstore\n      keccak256(0x00, 0x20)\n      swap1\n      dup2\n      add\n      swap3\n      dup3\n      iszero\n      tag_376\n      jumpi\n      swap2\n      0x20\n      mul\n      dup3\n      add\n    tag_375:\n      dup3\n      dup2\n      gt\n      iszero\n      tag_376\n      jumpi\n      dup3\n      mload\n      dup1\n      mload\n      tag_377\n      swap2\n      dup5\n      swap2\n      0x20\n      swap1\n      swap2\n      add\n      swap1\n      tag_152\n      jump\t// in\n    tag_377:\n      pop\n      swap2\n      0x20\n      add\n      swap2\n      swap1\n      0x01\n      add\n      swap1\n      jump(tag_375)\n    tag_376:\n      pop\n      tag_372\n      swap3\n      swap2\n      pop\n      tag_379\n      jump\t// in\n    tag_373:\n    tag_380:\n      dup1\n      dup3\n      gt\n      iszero\n      tag_372\n      jumpi\n      0x00\n      dup2\n      sstore\n      0x01\n      add\n      jump(tag_380)\n    tag_379:\n      dup1\n      dup3\n      gt\n      iszero\n      tag_372\n      jumpi\n      0x00\n      tag_384\n      dup3\n      dup3\n      tag_385\n      jump\t// in\n    tag_384:\n      pop\n      0x01\n      add\n      jump(tag_379)\n    tag_385:\n      pop\n      dup1\n      sload\n      tag_386\n      swap1\n      tag_161\n      jump\t// in\n    tag_386:\n      0x00\n      dup3\n      sstore\n      dup1\n      0x1f\n      lt\n      tag_388\n      jumpi\n      pop\n      pop\n      jump\t// out\n    tag_388:\n      0x1f\n      add\n      0x20\n      swap1\n      div\n      swap1\n      0x00\n      mstore\n      keccak256(0x00, 0x20)\n      swap1\n      dup2\n      add\n      swap1\n      tag_389\n      swap2\n      swap1\n      tag_373\n      jump\t// in\n    tag_389:\n      pop\n      jump\t// out\n        /* \"#utility.yul\":14:187   */\n    tag_391:\n        /* \"#utility.yul\":82:102   */\n      dup1\n      calldataload\n      sub(shl(0xa0, 0x01), 0x01)\n        /* \"#utility.yul\":131:162   */\n      dup2\n      and\n        /* \"#utility.yul\":121:163   */\n      dup2\n      eq\n        /* \"#utility.yul\":111:181   */\n      tag_393\n      jumpi\n        /* \"#utility.yul\":177:178   */\n      0x00\n        /* \"#utility.yul\":174:175   */\n      dup1\n        /* \"#utility.yul\":167:179   */\n      revert\n        /* \"#utility.yul\":111:181   */\n    tag_393:\n        /* \"#utility.yul\":14:187   */\n      swap2\n      swap1\n      pop\n      jump\t// out\n        /* \"#utility.yul\":192:723   */\n    tag_394:\n        /* \"#utility.yul\":235:240   */\n      0x00\n        /* \"#utility.yul\":288:291   */\n      dup3\n        /* \"#utility.yul\":281:285   */\n      0x1f\n        /* \"#utility.yul\":273:279   */\n      dup4\n        /* \"#utility.yul\":269:286   */\n      add\n        /* \"#utility.yul\":265:292   */\n      slt\n        /* \"#utility.yul\":255:310   */\n      tag_396\n      jumpi\n        /* \"#utility.yul\":306:307   */\n      0x00\n        /* \"#utility.yul\":303:304   */\n      dup1\n        /* \"#utility.yul\":296:308   */\n      revert\n        /* \"#utility.yul\":255:310   */\n    tag_396:\n        /* \"#utility.yul\":329:349   */\n      dup2\n      calldataload\n      sub(shl(0x40, 0x01), 0x01)\n        /* \"#utility.yul\":361:387   */\n      dup2\n      gt\n        /* \"#utility.yul\":358:410   */\n      iszero\n      tag_398\n      jumpi\n        /* \"#utility.yul\":390:408   */\n      tag_398\n      tag_399\n      jump\t// in\n    tag_398:\n        /* \"#utility.yul\":434:489   */\n      tag_400\n        /* \"#utility.yul\":477:479   */\n      0x1f\n        /* \"#utility.yul\":458:471   */\n      dup3\n      add\n      not(0x1f)\n        /* \"#utility.yul\":454:481   */\n      and\n        /* \"#utility.yul\":483:487   */\n      0x20\n        /* \"#utility.yul\":450:488   */\n      add\n        /* \"#utility.yul\":434:489   */\n      tag_401\n      jump\t// in\n    tag_400:\n        /* \"#utility.yul\":514:516   */\n      dup2\n        /* \"#utility.yul\":505:512   */\n      dup2\n        /* \"#utility.yul\":498:517   */\n      mstore\n        /* \"#utility.yul\":560:563   */\n      dup5\n        /* \"#utility.yul\":553:557   */\n      0x20\n        /* \"#utility.yul\":548:550   */\n      dup4\n        /* \"#utility.yul\":540:546   */\n      dup7\n        /* \"#utility.yul\":536:551   */\n      add\n        /* \"#utility.yul\":532:558   */\n      add\n        /* \"#utility.yul\":529:564   */\n      gt\n        /* \"#utility.yul\":526:581   */\n      iszero\n      tag_402\n      jumpi\n        /* \"#utility.yul\":577:578   */\n      0x00\n        /* \"#utility.yul\":574:575   */\n      dup1\n        /* \"#utility.yul\":567:579   */\n      revert\n        /* \"#utility.yul\":526:581   */\n    tag_402:\n        /* \"#utility.yul\":642:644   */\n      dup2\n        /* \"#utility.yul\":635:639   */\n      0x20\n        /* \"#utility.yul\":627:633   */\n      dup6\n        /* \"#utility.yul\":623:640   */\n      add\n        /* \"#utility.yul\":616:620   */\n      0x20\n        /* \"#utility.yul\":607:614   */\n      dup4\n        /* \"#utility.yul\":603:621   */\n      add\n        /* \"#utility.yul\":590:645   */\n      calldatacopy\n        /* \"#utility.yul\":690:691   */\n      0x00\n        /* \"#utility.yul\":665:681   */\n      swap2\n      dup2\n      add\n        /* \"#utility.yul\":683:687   */\n      0x20\n        /* \"#utility.yul\":661:688   */\n      add\n        /* \"#utility.yul\":654:692   */\n      swap2\n      swap1\n      swap2\n      mstore\n        /* \"#utility.yul\":669:676   */\n      swap4\n        /* \"#utility.yul\":192:723   */\n      swap3\n      pop\n      pop\n      pop\n      jump\t// out\n        /* \"#utility.yul\":728:914   */\n    tag_72:\n        /* \"#utility.yul\":787:793   */\n      0x00\n        /* \"#utility.yul\":840:842   */\n      0x20\n        /* \"#utility.yul\":828:837   */\n      dup3\n        /* \"#utility.yul\":819:826   */\n      dup5\n        /* \"#utility.yul\":815:838   */\n      sub\n        /* \"#utility.yul\":811:843   */\n      slt\n        /* \"#utility.yul\":808:860   */\n      iszero\n      tag_404\n      jumpi\n        /* \"#utility.yul\":856:857   */\n      0x00\n        /* \"#utility.yul\":853:854   */\n      dup1\n        /* \"#utility.yul\":846:858   */\n      revert\n        /* \"#utility.yul\":808:860   */\n    tag_404:\n        /* \"#utility.yul\":879:908   */\n      tag_405\n        /* \"#utility.yul\":898:907   */\n      dup3\n        /* \"#utility.yul\":879:908   */\n      tag_391\n      jump\t// in\n    tag_405:\n        /* \"#utility.yul\":869:908   */\n      swap4\n        /* \"#utility.yul\":728:914   */\n      swap3\n      pop\n      pop\n      pop\n      jump\t// out\n        /* \"#utility.yul\":919:1383   */\n    tag_110:\n        /* \"#utility.yul\":1006:1012   */\n      0x00\n        /* \"#utility.yul\":1014:1020   */\n      dup1\n        /* \"#utility.yul\":1022:1028   */\n      0x00\n        /* \"#utility.yul\":1075:1077   */\n      0x60\n        /* \"#utility.yul\":1063:1072   */\n      dup5\n        /* \"#utility.yul\":1054:1061   */\n      dup7\n        /* \"#utility.yul\":1050:1073   */\n      sub\n        /* \"#utility.yul\":1046:1078   */\n      slt\n        /* \"#utility.yul\":1043:1095   */\n      iszero\n      tag_407\n      jumpi\n        /* \"#utility.yul\":1091:1092   */\n      0x00\n        /* \"#utility.yul\":1088:1089   */\n      dup1\n        /* \"#utility.yul\":1081:1093   */\n      revert\n        /* \"#utility.yul\":1043:1095   */\n    tag_407:\n        /* \"#utility.yul\":1114:1143   */\n      tag_408\n        /* \"#utility.yul\":1133:1142   */\n      dup5\n        /* \"#utility.yul\":1114:1143   */\n      tag_391\n      jump\t// in\n    tag_408:\n        /* \"#utility.yul\":1104:1143   */\n      swap3\n      pop\n        /* \"#utility.yul\":1194:1196   */\n      0x20\n        /* \"#utility.yul\":1179:1197   */\n      dup5\n      add\n        /* \"#utility.yul\":1166:1198   */\n      calldataload\n      sub(shl(0x40, 0x01), 0x01)\n        /* \"#utility.yul\":1210:1240   */\n      dup2\n      gt\n        /* \"#utility.yul\":1207:1257   */\n      iszero\n      tag_409\n      jumpi\n        /* \"#utility.yul\":1253:1254   */\n      0x00\n        /* \"#utility.yul\":1250:1251   */\n      dup1\n        /* \"#utility.yul\":1243:1255   */\n      revert\n        /* \"#utility.yul\":1207:1257   */\n    tag_409:\n        /* \"#utility.yul\":1276:1326   */\n      tag_410\n        /* \"#utility.yul\":1318:1325   */\n      dup7\n        /* \"#utility.yul\":1309:1315   */\n      dup3\n        /* \"#utility.yul\":1298:1307   */\n      dup8\n        /* \"#utility.yul\":1294:1316   */\n      add\n        /* \"#utility.yul\":1276:1326   */\n      tag_394\n      jump\t// in\n    tag_410:\n        /* \"#utility.yul\":1266:1326   */\n      swap3\n      pop\n      pop\n        /* \"#utility.yul\":1373:1375   */\n      0x40\n        /* \"#utility.yul\":1362:1371   */\n      dup5\n        /* \"#utility.yul\":1358:1376   */\n      add\n        /* \"#utility.yul\":1345:1377   */\n      calldataload\n        /* \"#utility.yul\":1335:1377   */\n      swap1\n      pop\n        /* \"#utility.yul\":919:1383   */\n      swap3\n      pop\n      swap3\n      pop\n      swap3\n      jump\t// out\n        /* \"#utility.yul\":1388:1710   */\n    tag_31:\n        /* \"#utility.yul\":1457:1463   */\n      0x00\n        /* \"#utility.yul\":1510:1512   */\n      0x20\n        /* \"#utility.yul\":1498:1507   */\n      dup3\n        /* \"#utility.yul\":1489:1496   */\n      dup5\n        /* \"#utility.yul\":1485:1508   */\n      sub\n        /* \"#utility.yul\":1481:1513   */\n      slt\n        /* \"#utility.yul\":1478:1530   */\n      iszero\n      tag_412\n      jumpi\n        /* \"#utility.yul\":1526:1527   */\n      0x00\n        /* \"#utility.yul\":1523:1524   */\n      dup1\n        /* \"#utility.yul\":1516:1528   */\n      revert\n        /* \"#utility.yul\":1478:1530   */\n    tag_412:\n        /* \"#utility.yul\":1553:1576   */\n      dup2\n      calldataload\n      sub(shl(0x40, 0x01), 0x01)\n        /* \"#utility.yul\":1588:1618   */\n      dup2\n      gt\n        /* \"#utility.yul\":1585:1635   */\n      iszero\n      tag_413\n      jumpi\n        /* \"#utility.yul\":1631:1632   */\n      0x00\n        /* \"#utility.yul\":1628:1629   */\n      dup1\n        /* \"#utility.yul\":1621:1633   */\n      revert\n        /* \"#utility.yul\":1585:1635   */\n    tag_413:\n        /* \"#utility.yul\":1654:1704   */\n      tag_274\n        /* \"#utility.yul\":1696:1703   */\n      dup5\n        /* \"#utility.yul\":1687:1693   */\n      dup3\n        /* \"#utility.yul\":1676:1685   */\n      dup6\n        /* \"#utility.yul\":1672:1694   */\n      add\n        /* \"#utility.yul\":1654:1704   */\n      tag_394\n      jump\t// in\n        /* \"#utility.yul\":1715:3050   */\n    tag_40:\n        /* \"#utility.yul\":1828:1834   */\n      0x00\n        /* \"#utility.yul\":1836:1842   */\n      dup1\n        /* \"#utility.yul\":1889:1891   */\n      0x40\n        /* \"#utility.yul\":1877:1886   */\n      dup4\n        /* \"#utility.yul\":1868:1875   */\n      dup6\n        /* \"#utility.yul\":1864:1887   */\n      sub\n        /* \"#utility.yul\":1860:1892   */\n      slt\n        /* \"#utility.yul\":1857:1909   */\n      iszero\n      tag_416\n      jumpi\n        /* \"#utility.yul\":1905:1906   */\n      0x00\n        /* \"#utility.yul\":1902:1903   */\n      dup1\n        /* \"#utility.yul\":1895:1907   */\n      revert\n        /* \"#utility.yul\":1857:1909   */\n    tag_416:\n        /* \"#utility.yul\":1932:1955   */\n      dup3\n      calldataload\n      sub(shl(0x40, 0x01), 0x01)\n        /* \"#utility.yul\":2004:2018   */\n      dup1\n      dup3\n      gt\n        /* \"#utility.yul\":2001:2035   */\n      iszero\n      tag_417\n      jumpi\n        /* \"#utility.yul\":2031:2032   */\n      0x00\n        /* \"#utility.yul\":2028:2029   */\n      dup1\n        /* \"#utility.yul\":2021:2033   */\n      revert\n        /* \"#utility.yul\":2001:2035   */\n    tag_417:\n        /* \"#utility.yul\":2054:2104   */\n      tag_418\n        /* \"#utility.yul\":2096:2103   */\n      dup7\n        /* \"#utility.yul\":2087:2093   */\n      dup4\n        /* \"#utility.yul\":2076:2085   */\n      dup8\n        /* \"#utility.yul\":2072:2094   */\n      add\n        /* \"#utility.yul\":2054:2104   */\n      tag_394\n      jump\t// in\n    tag_418:\n        /* \"#utility.yul\":2044:2104   */\n      swap4\n      pop\n        /* \"#utility.yul\":2123:2125   */\n      0x20\n        /* \"#utility.yul\":2113:2125   */\n      swap2\n      pop\n        /* \"#utility.yul\":2178:2180   */\n      dup2\n        /* \"#utility.yul\":2167:2176   */\n      dup6\n        /* \"#utility.yul\":2163:2181   */\n      add\n        /* \"#utility.yul\":2150:2182   */\n      calldataload\n        /* \"#utility.yul\":2207:2209   */\n      dup2\n        /* \"#utility.yul\":2197:2205   */\n      dup2\n        /* \"#utility.yul\":2194:2210   */\n      gt\n        /* \"#utility.yul\":2191:2227   */\n      iszero\n      tag_419\n      jumpi\n        /* \"#utility.yul\":2223:2224   */\n      0x00\n        /* \"#utility.yul\":2220:2221   */\n      dup1\n        /* \"#utility.yul\":2213:2225   */\n      revert\n        /* \"#utility.yul\":2191:2227   */\n    tag_419:\n        /* \"#utility.yul\":2246:2270   */\n      dup6\n      add\n        /* \"#utility.yul\":2301:2305   */\n      0x1f\n        /* \"#utility.yul\":2293:2306   */\n      dup2\n      add\n        /* \"#utility.yul\":2289:2316   */\n      dup8\n      sgt\n        /* \"#utility.yul\":2279:2334   */\n      tag_420\n      jumpi\n        /* \"#utility.yul\":2330:2331   */\n      0x00\n        /* \"#utility.yul\":2327:2328   */\n      dup1\n        /* \"#utility.yul\":2320:2332   */\n      revert\n        /* \"#utility.yul\":2279:2334   */\n    tag_420:\n        /* \"#utility.yul\":2366:2368   */\n      dup1\n        /* \"#utility.yul\":2353:2369   */\n      calldataload\n        /* \"#utility.yul\":2388:2390   */\n      dup3\n        /* \"#utility.yul\":2384:2386   */\n      dup2\n        /* \"#utility.yul\":2381:2391   */\n      gt\n        /* \"#utility.yul\":2378:2414   */\n      iszero\n      tag_422\n      jumpi\n        /* \"#utility.yul\":2394:2412   */\n      tag_422\n      tag_399\n      jump\t// in\n    tag_422:\n        /* \"#utility.yul\":2440:2442   */\n      dup1\n        /* \"#utility.yul\":2437:2438   */\n      0x05\n        /* \"#utility.yul\":2433:2443   */\n      shl\n        /* \"#utility.yul\":2463:2491   */\n      tag_423\n        /* \"#utility.yul\":2487:2489   */\n      dup6\n        /* \"#utility.yul\":2483:2485   */\n      dup3\n        /* \"#utility.yul\":2479:2490   */\n      add\n        /* \"#utility.yul\":2463:2491   */\n      tag_401\n      jump\t// in\n    tag_423:\n        /* \"#utility.yul\":2525:2540   */\n      dup3\n      dup2\n      mstore\n        /* \"#utility.yul\":2556:2568   */\n      dup6\n      dup2\n      add\n      swap1\n        /* \"#utility.yul\":2588:2599   */\n      dup5\n      dup8\n      add\n        /* \"#utility.yul\":2618:2629   */\n      dup4\n      dup7\n      add\n        /* \"#utility.yul\":2614:2634   */\n      dup9\n      add\n        /* \"#utility.yul\":2611:2644   */\n      dup13\n      lt\n        /* \"#utility.yul\":2608:2661   */\n      iszero\n      tag_424\n      jumpi\n        /* \"#utility.yul\":2657:2658   */\n      0x00\n        /* \"#utility.yul\":2654:2655   */\n      dup1\n        /* \"#utility.yul\":2647:2659   */\n      revert\n        /* \"#utility.yul\":2608:2661   */\n    tag_424:\n        /* \"#utility.yul\":2679:2680   */\n      0x00\n        /* \"#utility.yul\":2670:2680   */\n      swap4\n      pop\n        /* \"#utility.yul\":2700:2701   */\n      dup4\n        /* \"#utility.yul\":2710:3020   */\n    tag_425:\n        /* \"#utility.yul\":2726:2728   */\n      dup6\n        /* \"#utility.yul\":2721:2724   */\n      dup2\n        /* \"#utility.yul\":2718:2729   */\n      lt\n        /* \"#utility.yul\":2710:3020   */\n      iszero\n      tag_427\n      jumpi\n        /* \"#utility.yul\":2807:2810   */\n      dup2\n        /* \"#utility.yul\":2794:2811   */\n      calldataload\n        /* \"#utility.yul\":2843:2845   */\n      dup9\n        /* \"#utility.yul\":2830:2841   */\n      dup2\n        /* \"#utility.yul\":2827:2846   */\n      gt\n        /* \"#utility.yul\":2824:2863   */\n      iszero\n      tag_428\n      jumpi\n        /* \"#utility.yul\":2859:2860   */\n      dup6\n        /* \"#utility.yul\":2856:2857   */\n      dup7\n        /* \"#utility.yul\":2849:2861   */\n      revert\n        /* \"#utility.yul\":2824:2863   */\n    tag_428:\n        /* \"#utility.yul\":2888:2945   */\n      tag_429\n        /* \"#utility.yul\":2937:2944   */\n      dup15\n        /* \"#utility.yul\":2932:2934   */\n      dup12\n        /* \"#utility.yul\":2918:2929   */\n      dup4\n        /* \"#utility.yul\":2914:2916   */\n      dup12\n        /* \"#utility.yul\":2910:2930   */\n      add\n        /* \"#utility.yul\":2906:2935   */\n      add\n        /* \"#utility.yul\":2888:2945   */\n      tag_394\n      jump\t// in\n    tag_429:\n        /* \"#utility.yul\":2876:2946   */\n      dup6\n      mstore\n      pop\n        /* \"#utility.yul\":2966:2978   */\n      swap3\n      dup9\n      add\n      swap3\n        /* \"#utility.yul\":2998:3010   */\n      swap1\n      dup9\n      add\n      swap1\n        /* \"#utility.yul\":2748:2749   */\n      0x01\n        /* \"#utility.yul\":2739:2750   */\n      add\n        /* \"#utility.yul\":2710:3020   */\n      jump(tag_425)\n    tag_427:\n      pop\n        /* \"#utility.yul\":1715:3050   */\n      swap9\n      swap12\n        /* \"#utility.yul\":3039:3044   */\n      swap1\n      swap11\n      pop\n        /* \"#utility.yul\":1715:3050   */\n      swap9\n      pop\n      pop\n      pop\n      pop\n      pop\n      pop\n      pop\n      pop\n      pop\n      jump\t// out\n        /* \"#utility.yul\":3055:3666   */\n    tag_97:\n        /* \"#utility.yul\":3152:3158   */\n      0x00\n        /* \"#utility.yul\":3160:3166   */\n      dup1\n        /* \"#utility.yul\":3168:3174   */\n      0x00\n        /* \"#utility.yul\":3221:3223   */\n      0x60\n        /* \"#utility.yul\":3209:3218   */\n      dup5\n        /* \"#utility.yul\":3200:3207   */\n      dup7\n        /* \"#utility.yul\":3196:3219   */\n      sub\n        /* \"#utility.yul\":3192:3224   */\n      slt\n        /* \"#utility.yul\":3189:3241   */\n      iszero\n      tag_431\n      jumpi\n        /* \"#utility.yul\":3237:3238   */\n      0x00\n        /* \"#utility.yul\":3234:3235   */\n      dup1\n        /* \"#utility.yul\":3227:3239   */\n      revert\n        /* \"#utility.yul\":3189:3241   */\n    tag_431:\n        /* \"#utility.yul\":3264:3287   */\n      dup4\n      calldataload\n      sub(shl(0x40, 0x01), 0x01)\n        /* \"#utility.yul\":3336:3350   */\n      dup1\n      dup3\n      gt\n        /* \"#utility.yul\":3333:3367   */\n      iszero\n      tag_432\n      jumpi\n        /* \"#utility.yul\":3363:3364   */\n      0x00\n        /* \"#utility.yul\":3360:3361   */\n      dup1\n        /* \"#utility.yul\":3353:3365   */\n      revert\n        /* \"#utility.yul\":3333:3367   */\n    tag_432:\n        /* \"#utility.yul\":3386:3436   */\n      tag_433\n        /* \"#utility.yul\":3428:3435   */\n      dup8\n        /* \"#utility.yul\":3419:3425   */\n      dup4\n        /* \"#utility.yul\":3408:3417   */\n      dup9\n        /* \"#utility.yul\":3404:3426   */\n      add\n        /* \"#utility.yul\":3386:3436   */\n      tag_394\n      jump\t// in\n    tag_433:\n        /* \"#utility.yul\":3376:3436   */\n      swap5\n      pop\n        /* \"#utility.yul\":3489:3491   */\n      0x20\n        /* \"#utility.yul\":3478:3487   */\n      dup7\n        /* \"#utility.yul\":3474:3492   */\n      add\n        /* \"#utility.yul\":3461:3493   */\n      calldataload\n        /* \"#utility.yul\":3445:3493   */\n      swap2\n      pop\n        /* \"#utility.yul\":3518:3520   */\n      dup1\n        /* \"#utility.yul\":3508:3516   */\n      dup3\n        /* \"#utility.yul\":3505:3521   */\n      gt\n        /* \"#utility.yul\":3502:3538   */\n      iszero\n      tag_434\n      jumpi\n        /* \"#utility.yul\":3534:3535   */\n      0x00\n        /* \"#utility.yul\":3531:3532   */\n      dup1\n        /* \"#utility.yul\":3524:3536   */\n      revert\n        /* \"#utility.yul\":3502:3538   */\n    tag_434:\n      pop\n        /* \"#utility.yul\":3557:3609   */\n      tag_410\n        /* \"#utility.yul\":3601:3608   */\n      dup7\n        /* \"#utility.yul\":3590:3598   */\n      dup3\n        /* \"#utility.yul\":3579:3588   */\n      dup8\n        /* \"#utility.yul\":3575:3599   */\n      add\n        /* \"#utility.yul\":3557:3609   */\n      tag_394\n      jump\t// in\n        /* \"#utility.yul\":3671:4061   */\n    tag_68:\n        /* \"#utility.yul\":3749:3755   */\n      0x00\n        /* \"#utility.yul\":3757:3763   */\n      dup1\n        /* \"#utility.yul\":3810:3812   */\n      0x40\n        /* \"#utility.yul\":3798:3807   */\n      dup4\n        /* \"#utility.yul\":3789:3796   */\n      dup6\n        /* \"#utility.yul\":3785:3808   */\n      sub\n        /* \"#utility.yul\":3781:3813   */\n      slt\n        /* \"#utility.yul\":3778:3830   */\n      iszero\n      tag_437\n      jumpi\n        /* \"#utility.yul\":3826:3827   */\n      0x00\n        /* \"#utility.yul\":3823:3824   */\n      dup1\n        /* \"#utility.yul\":3816:3828   */\n      revert\n        /* \"#utility.yul\":3778:3830   */\n    tag_437:\n        /* \"#utility.yul\":3853:3876   */\n      dup3\n      calldataload\n      sub(shl(0x40, 0x01), 0x01)\n        /* \"#utility.yul\":3888:3918   */\n      dup2\n      gt\n        /* \"#utility.yul\":3885:3935   */\n      iszero\n      tag_438\n      jumpi\n        /* \"#utility.yul\":3931:3932   */\n      0x00\n        /* \"#utility.yul\":3928:3929   */\n      dup1\n        /* \"#utility.yul\":3921:3933   */\n      revert\n        /* \"#utility.yul\":3885:3935   */\n    tag_438:\n        /* \"#utility.yul\":3954:4004   */\n      tag_439\n        /* \"#utility.yul\":3996:4003   */\n      dup6\n        /* \"#utility.yul\":3987:3993   */\n      dup3\n        /* \"#utility.yul\":3976:3985   */\n      dup7\n        /* \"#utility.yul\":3972:3994   */\n      add\n        /* \"#utility.yul\":3954:4004   */\n      tag_394\n      jump\t// in\n    tag_439:\n        /* \"#utility.yul\":3944:4004   */\n      swap6\n        /* \"#utility.yul\":4051:4053   */\n      0x20\n        /* \"#utility.yul\":4036:4054   */\n      swap5\n      swap1\n      swap5\n      add\n        /* \"#utility.yul\":4023:4055   */\n      calldataload\n      swap5\n      pop\n      pop\n      pop\n      pop\n        /* \"#utility.yul\":3671:4061   */\n      jump\t// out\n        /* \"#utility.yul\":4066:4677   */\n    tag_58:\n        /* \"#utility.yul\":4163:4169   */\n      0x00\n        /* \"#utility.yul\":4171:4177   */\n      dup1\n        /* \"#utility.yul\":4179:4185   */\n      0x00\n        /* \"#utility.yul\":4232:4234   */\n      0x60\n        /* \"#utility.yul\":4220:4229   */\n      dup5\n        /* \"#utility.yul\":4211:4218   */\n      dup7\n        /* \"#utility.yul\":4207:4230   */\n      sub\n        /* \"#utility.yul\":4203:4235   */\n      slt\n        /* \"#utility.yul\":4200:4252   */\n      iszero\n      tag_441\n      jumpi\n        /* \"#utility.yul\":4248:4249   */\n      0x00\n        /* \"#utility.yul\":4245:4246   */\n      dup1\n        /* \"#utility.yul\":4238:4250   */\n      revert\n        /* \"#utility.yul\":4200:4252   */\n    tag_441:\n        /* \"#utility.yul\":4275:4298   */\n      dup4\n      calldataload\n      sub(shl(0x40, 0x01), 0x01)\n        /* \"#utility.yul\":4347:4361   */\n      dup1\n      dup3\n      gt\n        /* \"#utility.yul\":4344:4378   */\n      iszero\n      tag_442\n      jumpi\n        /* \"#utility.yul\":4374:4375   */\n      0x00\n        /* \"#utility.yul\":4371:4372   */\n      dup1\n        /* \"#utility.yul\":4364:4376   */\n      revert\n        /* \"#utility.yul\":4344:4378   */\n    tag_442:\n        /* \"#utility.yul\":4397:4447   */\n      tag_443\n        /* \"#utility.yul\":4439:4446   */\n      dup8\n        /* \"#utility.yul\":4430:4436   */\n      dup4\n        /* \"#utility.yul\":4419:4428   */\n      dup9\n        /* \"#utility.yul\":4415:4437   */\n      add\n        /* \"#utility.yul\":4397:4447   */\n      tag_394\n      jump\t// in\n    tag_443:\n        /* \"#utility.yul\":4387:4447   */\n      swap5\n      pop\n        /* \"#utility.yul\":4494:4496   */\n      0x20\n        /* \"#utility.yul\":4483:4492   */\n      dup7\n        /* \"#utility.yul\":4479:4497   */\n      add\n        /* \"#utility.yul\":4466:4498   */\n      calldataload\n        /* \"#utility.yul\":4456:4498   */\n      swap4\n      pop\n        /* \"#utility.yul\":4551:4553   */\n      0x40\n        /* \"#utility.yul\":4540:4549   */\n      dup7\n        /* \"#utility.yul\":4536:4554   */\n      add\n        /* \"#utility.yul\":4523:4555   */\n      calldataload\n        /* \"#utility.yul\":4507:4555   */\n      swap2\n      pop\n        /* \"#utility.yul\":4580:4582   */\n      dup1\n        /* \"#utility.yul\":4570:4578   */\n      dup3\n        /* \"#utility.yul\":4567:4583   */\n      gt\n        /* \"#utility.yul\":4564:4600   */\n      iszero\n      tag_444\n      jumpi\n        /* \"#utility.yul\":4596:4597   */\n      0x00\n        /* \"#utility.yul\":4593:4594   */\n      dup1\n        /* \"#utility.yul\":4586:4598   */\n      revert\n        /* \"#utility.yul\":4564:4600   */\n    tag_444:\n      pop\n        /* \"#utility.yul\":4619:4671   */\n      tag_445\n        /* \"#utility.yul\":4663:4670   */\n      dup7\n        /* \"#utility.yul\":4652:4660   */\n      dup3\n        /* \"#utility.yul\":4641:4650   */\n      dup8\n        /* \"#utility.yul\":4637:4661   */\n      add\n        /* \"#utility.yul\":4619:4671   */\n      tag_394\n      jump\t// in\n    tag_445:\n        /* \"#utility.yul\":4609:4671   */\n      swap2\n      pop\n      pop\n        /* \"#utility.yul\":4066:4677   */\n      swap3\n      pop\n      swap3\n      pop\n      swap3\n      jump\t// out\n        /* \"#utility.yul\":4682:4862   */\n    tag_62:\n        /* \"#utility.yul\":4741:4747   */\n      0x00\n        /* \"#utility.yul\":4794:4796   */\n      0x20\n        /* \"#utility.yul\":4782:4791   */\n      dup3\n        /* \"#utility.yul\":4773:4780   */\n      dup5\n        /* \"#utility.yul\":4769:4792   */\n      sub\n        /* \"#utility.yul\":4765:4797   */\n      slt\n        /* \"#utility.yul\":4762:4814   */\n      iszero\n      tag_447\n      jumpi\n        /* \"#utility.yul\":4810:4811   */\n      0x00\n        /* \"#utility.yul\":4807:4808   */\n      dup1\n        /* \"#utility.yul\":4800:4812   */\n      revert\n        /* \"#utility.yul\":4762:4814   */\n    tag_447:\n      pop\n        /* \"#utility.yul\":4833:4856   */\n      calldataload\n      swap2\n        /* \"#utility.yul\":4682:4862   */\n      swap1\n      pop\n      jump\t// out\n        /* \"#utility.yul\":4867:5208   */\n    tag_27:\n        /* \"#utility.yul\":4932:4938   */\n      0x00\n        /* \"#utility.yul\":4940:4946   */\n      dup1\n        /* \"#utility.yul\":4993:4995   */\n      0x40\n        /* \"#utility.yul\":4981:4990   */\n      dup4\n        /* \"#utility.yul\":4972:4979   */\n      dup6\n        /* \"#utility.yul\":4968:4991   */\n      sub\n        /* \"#utility.yul\":4964:4996   */\n      slt\n        /* \"#utility.yul\":4961:5013   */\n      iszero\n      tag_449\n      jumpi\n        /* \"#utility.yul\":5009:5010   */\n      0x00\n        /* \"#utility.yul\":5006:5007   */\n      dup1\n        /* \"#utility.yul\":4999:5011   */\n      revert\n        /* \"#utility.yul\":4961:5013   */\n    tag_449:\n        /* \"#utility.yul\":5045:5054   */\n      dup3\n        /* \"#utility.yul\":5032:5055   */\n      calldataload\n        /* \"#utility.yul\":5022:5055   */\n      swap2\n      pop\n        /* \"#utility.yul\":5105:5107   */\n      0x20\n        /* \"#utility.yul\":5094:5103   */\n      dup4\n        /* \"#utility.yul\":5090:5108   */\n      add\n        /* \"#utility.yul\":5077:5109   */\n      calldataload\n        /* \"#utility.yul\":5152:5157   */\n      dup1\n        /* \"#utility.yul\":5145:5158   */\n      iszero\n        /* \"#utility.yul\":5138:5159   */\n      iszero\n        /* \"#utility.yul\":5131:5136   */\n      dup2\n        /* \"#utility.yul\":5128:5160   */\n      eq\n        /* \"#utility.yul\":5118:5178   */\n      tag_450\n      jumpi\n        /* \"#utility.yul\":5174:5175   */\n      0x00\n        /* \"#utility.yul\":5171:5172   */\n      dup1\n        /* \"#utility.yul\":5164:5176   */\n      revert\n        /* \"#utility.yul\":5118:5178   */\n    tag_450:\n        /* \"#utility.yul\":5197:5202   */\n      dup1\n        /* \"#utility.yul\":5187:5202   */\n      swap2\n      pop\n      pop\n        /* \"#utility.yul\":4867:5208   */\n      swap3\n      pop\n      swap3\n      swap1\n      pop\n      jump\t// out\n        /* \"#utility.yul\":5213:5471   */\n    tag_451:\n        /* \"#utility.yul\":5255:5258   */\n      0x00\n        /* \"#utility.yul\":5293:5298   */\n      dup2\n        /* \"#utility.yul\":5287:5299   */\n      mload\n        /* \"#utility.yul\":5320:5326   */\n      dup1\n        /* \"#utility.yul\":5315:5318   */\n      dup5\n        /* \"#utility.yul\":5308:5327   */\n      mstore\n        /* \"#utility.yul\":5336:5399   */\n      tag_453\n        /* \"#utility.yul\":5392:5398   */\n      dup2\n        /* \"#utility.yul\":5385:5389   */\n      0x20\n        /* \"#utility.yul\":5380:5383   */\n      dup7\n        /* \"#utility.yul\":5376:5390   */\n      add\n        /* \"#utility.yul\":5369:5373   */\n      0x20\n        /* \"#utility.yul\":5362:5367   */\n      dup7\n        /* \"#utility.yul\":5358:5374   */\n      add\n        /* \"#utility.yul\":5336:5399   */\n      tag_454\n      jump\t// in\n    tag_453:\n        /* \"#utility.yul\":5453:5455   */\n      0x1f\n        /* \"#utility.yul\":5432:5447   */\n      add\n      not(0x1f)\n        /* \"#utility.yul\":5428:5457   */\n      and\n        /* \"#utility.yul\":5419:5458   */\n      swap3\n      swap1\n      swap3\n      add\n        /* \"#utility.yul\":5460:5464   */\n      0x20\n        /* \"#utility.yul\":5415:5465   */\n      add\n      swap3\n        /* \"#utility.yul\":5213:5471   */\n      swap2\n      pop\n      pop\n      jump\t// out\n        /* \"#utility.yul\":5476:5752   */\n    tag_146:\n        /* \"#utility.yul\":5607:5610   */\n      0x00\n        /* \"#utility.yul\":5645:5651   */\n      dup3\n        /* \"#utility.yul\":5639:5652   */\n      mload\n        /* \"#utility.yul\":5661:5714   */\n      tag_456\n        /* \"#utility.yul\":5707:5713   */\n      dup2\n        /* \"#utility.yul\":5702:5705   */\n      dup5\n        /* \"#utility.yul\":5695:5699   */\n      0x20\n        /* \"#utility.yul\":5687:5693   */\n      dup8\n        /* \"#utility.yul\":5683:5700   */\n      add\n        /* \"#utility.yul\":5661:5714   */\n      tag_454\n      jump\t// in\n    tag_456:\n        /* \"#utility.yul\":5730:5746   */\n      swap2\n      swap1\n      swap2\n      add\n      swap3\n        /* \"#utility.yul\":5476:5752   */\n      swap2\n      pop\n      pop\n      jump\t// out\n        /* \"#utility.yul\":5757:6856   */\n    tag_125:\n        /* \"#utility.yul\":5885:5888   */\n      0x00\n        /* \"#utility.yul\":5914:5915   */\n      dup1\n        /* \"#utility.yul\":5947:5953   */\n      dup4\n        /* \"#utility.yul\":5941:5954   */\n      sload\n        /* \"#utility.yul\":5977:5980   */\n      dup2\n        /* \"#utility.yul\":5999:6000   */\n      0x01\n        /* \"#utility.yul\":6027:6036   */\n      dup3\n        /* \"#utility.yul\":6023:6025   */\n      dup2\n        /* \"#utility.yul\":6019:6037   */\n      shr\n        /* \"#utility.yul\":6009:6037   */\n      swap2\n      pop\n        /* \"#utility.yul\":6087:6089   */\n      dup1\n        /* \"#utility.yul\":6076:6085   */\n      dup4\n        /* \"#utility.yul\":6072:6090   */\n      and\n        /* \"#utility.yul\":6109:6127   */\n      dup1\n        /* \"#utility.yul\":6099:6160   */\n      tag_458\n      jumpi\n        /* \"#utility.yul\":6153:6157   */\n      0x7f\n        /* \"#utility.yul\":6145:6151   */\n      dup4\n        /* \"#utility.yul\":6141:6158   */\n      and\n        /* \"#utility.yul\":6131:6158   */\n      swap3\n      pop\n        /* \"#utility.yul\":6099:6160   */\n    tag_458:\n        /* \"#utility.yul\":6179:6181   */\n      0x20\n        /* \"#utility.yul\":6227:6229   */\n      dup1\n        /* \"#utility.yul\":6219:6225   */\n      dup5\n        /* \"#utility.yul\":6216:6230   */\n      lt\n        /* \"#utility.yul\":6196:6214   */\n      dup3\n        /* \"#utility.yul\":6193:6231   */\n      eq\n        /* \"#utility.yul\":6190:6355   */\n      iszero\n      tag_459\n      jumpi\n      shl(0xe0, 0x4e487b71)\n        /* \"#utility.yul\":6254:6287   */\n      dup7\n      mstore\n        /* \"#utility.yul\":6310:6314   */\n      0x22\n        /* \"#utility.yul\":6307:6308   */\n      0x04\n        /* \"#utility.yul\":6300:6315   */\n      mstore\n        /* \"#utility.yul\":6340:6344   */\n      0x24\n        /* \"#utility.yul\":6261:6264   */\n      dup7\n        /* \"#utility.yul\":6328:6345   */\n      revert\n        /* \"#utility.yul\":6190:6355   */\n    tag_459:\n        /* \"#utility.yul\":6371:6389   */\n      dup2\n        /* \"#utility.yul\":6398:6502   */\n      dup1\n      iszero\n      tag_461\n      jumpi\n        /* \"#utility.yul\":6516:6517   */\n      0x01\n        /* \"#utility.yul\":6511:6831   */\n      dup2\n      eq\n      tag_462\n      jumpi\n        /* \"#utility.yul\":6364:6831   */\n      jump(tag_460)\n        /* \"#utility.yul\":6398:6502   */\n    tag_461:\n      not(0xff)\n        /* \"#utility.yul\":6431:6455   */\n      dup7\n      and\n        /* \"#utility.yul\":6419:6456   */\n      dup10\n      mstore\n        /* \"#utility.yul\":6476:6492   */\n      dup5\n      dup10\n      add\n      swap7\n      pop\n        /* \"#utility.yul\":6398:6502   */\n      jump(tag_460)\n        /* \"#utility.yul\":6511:6831   */\n    tag_462:\n        /* \"#utility.yul\":12336:12337   */\n      0x00\n        /* \"#utility.yul\":12329:12343   */\n      dup11\n      dup2\n      mstore\n        /* \"#utility.yul\":12373:12377   */\n      0x20\n        /* \"#utility.yul\":12360:12378   */\n      swap1\n      keccak256\n        /* \"#utility.yul\":6606:6607   */\n      0x00\n        /* \"#utility.yul\":6620:6785   */\n    tag_465:\n        /* \"#utility.yul\":6634:6640   */\n      dup7\n        /* \"#utility.yul\":6631:6632   */\n      dup2\n        /* \"#utility.yul\":6628:6641   */\n      lt\n        /* \"#utility.yul\":6620:6785   */\n      iszero\n      tag_467\n      jumpi\n        /* \"#utility.yul\":6712:6726   */\n      dup2\n      sload\n        /* \"#utility.yul\":6699:6710   */\n      dup12\n      dup3\n      add\n        /* \"#utility.yul\":6692:6727   */\n      mstore\n        /* \"#utility.yul\":6755:6771   */\n      swap1\n      dup6\n      add\n      swap1\n        /* \"#utility.yul\":6649:6659   */\n      dup4\n      add\n        /* \"#utility.yul\":6620:6785   */\n      jump(tag_465)\n    tag_467:\n        /* \"#utility.yul\":6624:6627   */\n      pop\n      pop\n        /* \"#utility.yul\":6814:6820   */\n      dup5\n        /* \"#utility.yul\":6809:6812   */\n      dup10\n        /* \"#utility.yul\":6805:6821   */\n      add\n        /* \"#utility.yul\":6798:6821   */\n      swap7\n      pop\n        /* \"#utility.yul\":6364:6831   */\n    tag_460:\n      pop\n        /* \"#utility.yul\":6847:6850   */\n      swap5\n      swap9\n        /* \"#utility.yul\":5757:6856   */\n      swap8\n      pop\n      pop\n      pop\n      pop\n      pop\n      pop\n      pop\n      pop\n      jump\t// out\n        /* \"#utility.yul\":7069:7467   */\n    tag_65:\n      sub(shl(0xa0, 0x01), 0x01)\n        /* \"#utility.yul\":7268:7300   */\n      dup5\n      and\n        /* \"#utility.yul\":7250:7301   */\n      dup2\n      mstore\n        /* \"#utility.yul\":7337:7339   */\n      0x60\n        /* \"#utility.yul\":7332:7334   */\n      0x20\n        /* \"#utility.yul\":7317:7335   */\n      dup3\n      add\n        /* \"#utility.yul\":7310:7340   */\n      dup2\n      swap1\n      mstore\n      0x00\n      swap1\n        /* \"#utility.yul\":7357:7402   */\n      tag_470\n      swap1\n        /* \"#utility.yul\":7383:7401   */\n      dup4\n      add\n        /* \"#utility.yul\":7375:7381   */\n      dup6\n        /* \"#utility.yul\":7357:7402   */\n      tag_451\n      jump\t// in\n    tag_470:\n        /* \"#utility.yul\":7349:7402   */\n      swap1\n      pop\n        /* \"#utility.yul\":7452:7458   */\n      dup3\n        /* \"#utility.yul\":7445:7459   */\n      iszero\n        /* \"#utility.yul\":7438:7460   */\n      iszero\n        /* \"#utility.yul\":7433:7435   */\n      0x40\n        /* \"#utility.yul\":7422:7431   */\n      dup4\n        /* \"#utility.yul\":7418:7436   */\n      add\n        /* \"#utility.yul\":7411:7461   */\n      mstore\n        /* \"#utility.yul\":7069:7467   */\n      swap5\n      swap4\n      pop\n      pop\n      pop\n      pop\n      jump\t// out\n        /* \"#utility.yul\":7472:7933   */\n    tag_103:\n      sub(shl(0xa0, 0x01), 0x01)\n        /* \"#utility.yul\":7705:7737   */\n      dup6\n      and\n        /* \"#utility.yul\":7687:7738   */\n      dup2\n      mstore\n        /* \"#utility.yul\":7774:7777   */\n      0x80\n        /* \"#utility.yul\":7769:7771   */\n      0x20\n        /* \"#utility.yul\":7754:7772   */\n      dup3\n      add\n        /* \"#utility.yul\":7747:7778   */\n      dup2\n      swap1\n      mstore\n      0x00\n      swap1\n        /* \"#utility.yul\":7795:7841   */\n      tag_472\n      swap1\n        /* \"#utility.yul\":7821:7840   */\n      dup4\n      add\n        /* \"#utility.yul\":7813:7819   */\n      dup7\n        /* \"#utility.yul\":7795:7841   */\n      tag_451\n      jump\t// in\n    tag_472:\n        /* \"#utility.yul\":7872:7874   */\n      0x40\n        /* \"#utility.yul\":7857:7875   */\n      dup4\n      add\n        /* \"#utility.yul\":7850:7884   */\n      swap5\n      swap1\n      swap5\n      mstore\n      pop\n        /* \"#utility.yul\":7915:7917   */\n      0x60\n        /* \"#utility.yul\":7900:7918   */\n      add\n        /* \"#utility.yul\":7893:7927   */\n      mstore\n        /* \"#utility.yul\":7787:7841   */\n      swap3\n        /* \"#utility.yul\":7472:7933   */\n      swap2\n      pop\n      pop\n      jump\t// out\n        /* \"#utility.yul\":7938:8741   */\n    tag_51:\n        /* \"#utility.yul\":8100:8104   */\n      0x00\n        /* \"#utility.yul\":8129:8131   */\n      0x20\n        /* \"#utility.yul\":8169:8171   */\n      dup1\n        /* \"#utility.yul\":8158:8167   */\n      dup4\n        /* \"#utility.yul\":8154:8172   */\n      add\n        /* \"#utility.yul\":8199:8201   */\n      dup2\n        /* \"#utility.yul\":8188:8197   */\n      dup5\n        /* \"#utility.yul\":8181:8202   */\n      mstore\n        /* \"#utility.yul\":8222:8228   */\n      dup1\n        /* \"#utility.yul\":8257:8263   */\n      dup6\n        /* \"#utility.yul\":8251:8264   */\n      mload\n        /* \"#utility.yul\":8288:8294   */\n      dup1\n        /* \"#utility.yul\":8280:8286   */\n      dup4\n        /* \"#utility.yul\":8273:8295   */\n      mstore\n        /* \"#utility.yul\":8326:8328   */\n      0x40\n        /* \"#utility.yul\":8315:8324   */\n      dup7\n        /* \"#utility.yul\":8311:8329   */\n      add\n        /* \"#utility.yul\":8304:8329   */\n      swap2\n      pop\n        /* \"#utility.yul\":8388:8390   */\n      0x40\n        /* \"#utility.yul\":8378:8384   */\n      dup2\n        /* \"#utility.yul\":8375:8376   */\n      0x05\n        /* \"#utility.yul\":8371:8385   */\n      shl\n        /* \"#utility.yul\":8360:8369   */\n      dup8\n        /* \"#utility.yul\":8356:8386   */\n      add\n        /* \"#utility.yul\":8352:8391   */\n      add\n        /* \"#utility.yul\":8338:8391   */\n      swap3\n      pop\n        /* \"#utility.yul\":8426:8428   */\n      dup4\n        /* \"#utility.yul\":8418:8424   */\n      dup8\n        /* \"#utility.yul\":8414:8429   */\n      add\n        /* \"#utility.yul\":8447:8448   */\n      0x00\n        /* \"#utility.yul\":8457:8712   */\n    tag_474:\n        /* \"#utility.yul\":8471:8477   */\n      dup3\n        /* \"#utility.yul\":8468:8469   */\n      dup2\n        /* \"#utility.yul\":8465:8478   */\n      lt\n        /* \"#utility.yul\":8457:8712   */\n      iszero\n      tag_476\n      jumpi\n        /* \"#utility.yul\":8564:8566   */\n      0x3f\n        /* \"#utility.yul\":8560:8567   */\n      not\n        /* \"#utility.yul\":8548:8557   */\n      dup9\n        /* \"#utility.yul\":8540:8546   */\n      dup7\n        /* \"#utility.yul\":8536:8558   */\n      sub\n        /* \"#utility.yul\":8532:8568   */\n      add\n        /* \"#utility.yul\":8527:8530   */\n      dup5\n        /* \"#utility.yul\":8520:8569   */\n      mstore\n        /* \"#utility.yul\":8592:8632   */\n      tag_477\n        /* \"#utility.yul\":8625:8631   */\n      dup6\n        /* \"#utility.yul\":8616:8622   */\n      dup4\n        /* \"#utility.yul\":8610:8623   */\n      mload\n        /* \"#utility.yul\":8592:8632   */\n      tag_451\n      jump\t// in\n    tag_477:\n        /* \"#utility.yul\":8582:8632   */\n      swap5\n      pop\n        /* \"#utility.yul\":8690:8702   */\n      swap3\n      dup6\n      add\n      swap3\n        /* \"#utility.yul\":8655:8670   */\n      swap1\n      dup6\n      add\n      swap1\n        /* \"#utility.yul\":8493:8494   */\n      0x01\n        /* \"#utility.yul\":8486:8495   */\n      add\n        /* \"#utility.yul\":8457:8712   */\n      jump(tag_474)\n    tag_476:\n      pop\n        /* \"#utility.yul\":8729:8735   */\n      swap3\n      swap8\n        /* \"#utility.yul\":7938:8741   */\n      swap7\n      pop\n      pop\n      pop\n      pop\n      pop\n      pop\n      pop\n      jump\t// out\n        /* \"#utility.yul\":8746:9273   */\n    tag_75:\n        /* \"#utility.yul\":8995:8998   */\n      0xa0\n        /* \"#utility.yul\":8984:8993   */\n      dup2\n        /* \"#utility.yul\":8977:8999   */\n      mstore\n        /* \"#utility.yul\":8958:8962   */\n      0x00\n        /* \"#utility.yul\":9016:9062   */\n      tag_479\n        /* \"#utility.yul\":9057:9060   */\n      0xa0\n        /* \"#utility.yul\":9046:9055   */\n      dup4\n        /* \"#utility.yul\":9042:9061   */\n      add\n        /* \"#utility.yul\":9034:9040   */\n      dup9\n        /* \"#utility.yul\":9016:9062   */\n      tag_451\n      jump\t// in\n    tag_479:\n        /* \"#utility.yul\":9093:9095   */\n      0x20\n        /* \"#utility.yul\":9078:9096   */\n      dup4\n      add\n        /* \"#utility.yul\":9071:9105   */\n      swap7\n      swap1\n      swap7\n      mstore\n      pop\n        /* \"#utility.yul\":9136:9138   */\n      0x40\n        /* \"#utility.yul\":9121:9139   */\n      dup2\n      add\n        /* \"#utility.yul\":9114:9148   */\n      swap4\n      swap1\n      swap4\n      mstore\n        /* \"#utility.yul\":9191:9205   */\n      swap1\n      iszero\n        /* \"#utility.yul\":9184:9206   */\n      iszero\n        /* \"#utility.yul\":9179:9181   */\n      0x60\n        /* \"#utility.yul\":9164:9182   */\n      dup4\n      add\n        /* \"#utility.yul\":9157:9207   */\n      mstore\n        /* \"#utility.yul\":9251:9265   */\n      iszero\n        /* \"#utility.yul\":9244:9266   */\n      iszero\n        /* \"#utility.yul\":9238:9241   */\n      0x80\n        /* \"#utility.yul\":9223:9242   */\n      swap1\n      swap2\n      add\n        /* \"#utility.yul\":9216:9267   */\n      mstore\n        /* \"#utility.yul\":9008:9062   */\n      swap2\n        /* \"#utility.yul\":8746:9273   */\n      swap1\n      pop\n      jump\t// out\n        /* \"#utility.yul\":11983:12258   */\n    tag_401:\n        /* \"#utility.yul\":12054:12056   */\n      0x40\n        /* \"#utility.yul\":12048:12057   */\n      mload\n        /* \"#utility.yul\":12119:12121   */\n      0x1f\n        /* \"#utility.yul\":12100:12113   */\n      dup3\n      add\n      not(0x1f)\n        /* \"#utility.yul\":12096:12123   */\n      and\n        /* \"#utility.yul\":12084:12124   */\n      dup2\n      add\n      sub(shl(0x40, 0x01), 0x01)\n        /* \"#utility.yul\":12139:12173   */\n      dup2\n      gt\n        /* \"#utility.yul\":12175:12197   */\n      dup3\n      dup3\n      lt\n        /* \"#utility.yul\":12136:12198   */\n      or\n        /* \"#utility.yul\":12133:12221   */\n      iszero\n      tag_490\n      jumpi\n        /* \"#utility.yul\":12201:12219   */\n      tag_490\n      tag_399\n      jump\t// in\n    tag_490:\n        /* \"#utility.yul\":12237:12239   */\n      0x40\n        /* \"#utility.yul\":12230:12252   */\n      mstore\n        /* \"#utility.yul\":11983:12258   */\n      swap2\n      swap1\n      pop\n      jump\t// out\n        /* \"#utility.yul\":12389:12517   */\n    tag_139:\n        /* \"#utility.yul\":12429:12432   */\n      0x00\n        /* \"#utility.yul\":12460:12461   */\n      dup3\n        /* \"#utility.yul\":12456:12462   */\n      not\n        /* \"#utility.yul\":12453:12454   */\n      dup3\n        /* \"#utility.yul\":12450:12463   */\n      gt\n        /* \"#utility.yul\":12447:12486   */\n      iszero\n      tag_494\n      jumpi\n        /* \"#utility.yul\":12466:12484   */\n      tag_494\n      tag_495\n      jump\t// in\n    tag_494:\n      pop\n        /* \"#utility.yul\":12502:12511   */\n      add\n      swap1\n        /* \"#utility.yul\":12389:12517   */\n      jump\t// out\n        /* \"#utility.yul\":12522:12739   */\n    tag_273:\n        /* \"#utility.yul\":12562:12563   */\n      0x00\n        /* \"#utility.yul\":12588:12589   */\n      dup3\n        /* \"#utility.yul\":12578:12710   */\n      tag_497\n      jumpi\n        /* \"#utility.yul\":12632:12642   */\n      0x4e487b71\n        /* \"#utility.yul\":12627:12630   */\n      0xe0\n        /* \"#utility.yul\":12623:12643   */\n      shl\n        /* \"#utility.yul\":12620:12621   */\n      0x00\n        /* \"#utility.yul\":12613:12644   */\n      mstore\n        /* \"#utility.yul\":12667:12671   */\n      0x12\n        /* \"#utility.yul\":12664:12665   */\n      0x04\n        /* \"#utility.yul\":12657:12672   */\n      mstore\n        /* \"#utility.yul\":12695:12699   */\n      0x24\n        /* \"#utility.yul\":12692:12693   */\n      0x00\n        /* \"#utility.yul\":12685:12700   */\n      revert\n        /* \"#utility.yul\":12578:12710   */\n    tag_497:\n      pop\n        /* \"#utility.yul\":12724:12733   */\n      div\n      swap1\n        /* \"#utility.yul\":12522:12739   */\n      jump\t// out\n        /* \"#utility.yul\":12744:12869   */\n    tag_130:\n        /* \"#utility.yul\":12784:12788   */\n      0x00\n        /* \"#utility.yul\":12812:12813   */\n      dup3\n        /* \"#utility.yul\":12809:12810   */\n      dup3\n        /* \"#utility.yul\":12806:12814   */\n      lt\n        /* \"#utility.yul\":12803:12837   */\n      iszero\n      tag_500\n      jumpi\n        /* \"#utility.yul\":12817:12835   */\n      tag_500\n      tag_495\n      jump\t// in\n    tag_500:\n      pop\n        /* \"#utility.yul\":12854:12863   */\n      sub\n      swap1\n        /* \"#utility.yul\":12744:12869   */\n      jump\t// out\n        /* \"#utility.yul\":12874:13132   */\n    tag_454:\n        /* \"#utility.yul\":12946:12947   */\n      0x00\n        /* \"#utility.yul\":12956:13069   */\n    tag_502:\n        /* \"#utility.yul\":12970:12976   */\n      dup4\n        /* \"#utility.yul\":12967:12968   */\n      dup2\n        /* \"#utility.yul\":12964:12977   */\n      lt\n        /* \"#utility.yul\":12956:13069   */\n      iszero\n      tag_504\n      jumpi\n        /* \"#utility.yul\":13046:13057   */\n      dup2\n      dup2\n      add\n        /* \"#utility.yul\":13040:13058   */\n      mload\n        /* \"#utility.yul\":13027:13038   */\n      dup4\n      dup3\n      add\n        /* \"#utility.yul\":13020:13059   */\n      mstore\n        /* \"#utility.yul\":12992:12994   */\n      0x20\n        /* \"#utility.yul\":12985:12995   */\n      add\n        /* \"#utility.yul\":12956:13069   */\n      jump(tag_502)\n    tag_504:\n        /* \"#utility.yul\":13087:13093   */\n      dup4\n        /* \"#utility.yul\":13084:13085   */\n      dup2\n        /* \"#utility.yul\":13081:13094   */\n      gt\n        /* \"#utility.yul\":13078:13126   */\n      iszero\n      tag_299\n      jumpi\n      pop\n      pop\n        /* \"#utility.yul\":13122:13123   */\n      0x00\n        /* \"#utility.yul\":13104:13120   */\n      swap2\n      add\n        /* \"#utility.yul\":13097:13124   */\n      mstore\n        /* \"#utility.yul\":12874:13132   */\n      jump\t// out\n        /* \"#utility.yul\":13137:13517   */\n    tag_161:\n        /* \"#utility.yul\":13216:13217   */\n      0x01\n        /* \"#utility.yul\":13212:13224   */\n      dup2\n      dup2\n      shr\n      swap1\n        /* \"#utility.yul\":13259:13271   */\n      dup3\n      and\n      dup1\n        /* \"#utility.yul\":13280:13341   */\n      tag_507\n      jumpi\n        /* \"#utility.yul\":13334:13338   */\n      0x7f\n        /* \"#utility.yul\":13326:13332   */\n      dup3\n        /* \"#utility.yul\":13322:13339   */\n      and\n        /* \"#utility.yul\":13312:13339   */\n      swap2\n      pop\n        /* \"#utility.yul\":13280:13341   */\n    tag_507:\n        /* \"#utility.yul\":13387:13389   */\n      0x20\n        /* \"#utility.yul\":13379:13385   */\n      dup3\n        /* \"#utility.yul\":13376:13390   */\n      lt\n        /* \"#utility.yul\":13356:13374   */\n      dup2\n        /* \"#utility.yul\":13353:13391   */\n      eq\n        /* \"#utility.yul\":13350:13511   */\n      iszero\n      tag_508\n      jumpi\n        /* \"#utility.yul\":13433:13443   */\n      0x4e487b71\n        /* \"#utility.yul\":13428:13431   */\n      0xe0\n        /* \"#utility.yul\":13424:13444   */\n      shl\n        /* \"#utility.yul\":13421:13422   */\n      0x00\n        /* \"#utility.yul\":13414:13445   */\n      mstore\n        /* \"#utility.yul\":13468:13472   */\n      0x22\n        /* \"#utility.yul\":13465:13466   */\n      0x04\n        /* \"#utility.yul\":13458:13473   */\n      mstore\n        /* \"#utility.yul\":13496:13500   */\n      0x24\n        /* \"#utility.yul\":13493:13494   */\n      0x00\n        /* \"#utility.yul\":13486:13501   */\n      revert\n        /* \"#utility.yul\":13350:13511   */\n    tag_508:\n      pop\n        /* \"#utility.yul\":13137:13517   */\n      swap2\n      swap1\n      pop\n      jump\t// out\n        /* \"#utility.yul\":13522:13657   */\n    tag_175:\n        /* \"#utility.yul\":13561:13564   */\n      0x00\n      not(0x00)\n        /* \"#utility.yul\":13582:13599   */\n      dup3\n      eq\n        /* \"#utility.yul\":13579:13622   */\n      iszero\n      tag_511\n      jumpi\n        /* \"#utility.yul\":13602:13620   */\n      tag_511\n      tag_495\n      jump\t// in\n    tag_511:\n      pop\n        /* \"#utility.yul\":13649:13650   */\n      0x01\n        /* \"#utility.yul\":13638:13651   */\n      add\n      swap1\n        /* \"#utility.yul\":13522:13657   */\n      jump\t// out\n        /* \"#utility.yul\":13662:13789   */\n    tag_495:\n        /* \"#utility.yul\":13723:13733   */\n      0x4e487b71\n        /* \"#utility.yul\":13718:13721   */\n      0xe0\n        /* \"#utility.yul\":13714:13734   */\n      shl\n        /* \"#utility.yul\":13711:13712   */\n      0x00\n        /* \"#utility.yul\":13704:13735   */\n      mstore\n        /* \"#utility.yul\":13754:13758   */\n      0x11\n        /* \"#utility.yul\":13751:13752   */\n      0x04\n        /* \"#utility.yul\":13744:13759   */\n      mstore\n        /* \"#utility.yul\":13778:13782   */\n      0x24\n        /* \"#utility.yul\":13775:13776   */\n      0x00\n        /* \"#utility.yul\":13768:13783   */\n      revert\n        /* \"#utility.yul\":13794:13921   */\n    tag_119:\n        /* \"#utility.yul\":13855:13865   */\n      0x4e487b71\n        /* \"#utility.yul\":13850:13853   */\n      0xe0\n        /* \"#utility.yul\":13846:13866   */\n      shl\n        /* \"#utility.yul\":13843:13844   */\n      0x00\n        /* \"#utility.yul\":13836:13867   */\n      mstore\n        /* \"#utility.yul\":13886:13890   */\n      0x32\n        /* \"#utility.yul\":13883:13884   */\n      0x04\n        /* \"#utility.yul\":13876:13891   */\n      mstore\n        /* \"#utility.yul\":13910:13914   */\n      0x24\n        /* \"#utility.yul\":13907:13908   */\n      0x00\n        /* \"#utility.yul\":13900:13915   */\n      revert\n        /* \"#utility.yul\":13926:14053   */\n    tag_399:\n        /* \"#utility.yul\":13987:13997   */\n      0x4e487b71\n        /* \"#utility.yul\":13982:13985   */\n      0xe0\n        /* \"#utility.yul\":13978:13998   */\n      shl\n        /* \"#utility.yul\":13975:13976   */\n      0x00\n        /* \"#utility.yul\":13968:13999   */\n      mstore\n        /* \"#utility.yul\":14018:14022   */\n      0x41\n        /* \"#utility.yul\":14015:14016   */\n      0x04\n        /* \"#utility.yul\":14008:14023   */\n      mstore\n        /* \"#utility.yul\":14042:14046   */\n      0x24\n        /* \"#utility.yul\":14039:14040   */\n      0x00\n        /* \"#utility.yul\":14032:14047   */\n      revert\n\n    auxdata: 0xa2646970667358221220e50e930ed3d7ab42830b73fc2e969e7cdc5ce0551d11d7e842123d92ba81a37b64736f6c63430008070033\n}\n",
				"bytecode": {
					"linkReferences": {},
					"object": "60806040526000600d553480156200001657600080fd5b506040805160e081018252600460a0820190815263119bdbd960e21b60c083015281528151808301835260018152603160f81b602082810191909152808301919091528251808401845260068152654d6f73636f7760d01b81830152928201929092526103e8606082015260006080820181905273e99c55ac245ce186adbfe5b288b289f7ae9f024381528252805180519192600080516020620027ff83398151915292620000c99284920190620004b8565b506020828101518051620000e49260018501920190620004b8565b506040820151805162000102916002840191602090910190620004b8565b506060820151600382015560809091015160049091015560006020819052600280546001810182559152600080516020620027ff8339815191528054600080516020620027df833981519152909201916200015d90620005e2565b6200016a92919062000547565b506040805160e081018252600760a0820190815266436c6f7468657360c81b60c083015281528151808301835260018152601960f91b6020828101919091528083019190915282518084018452600a8152695065746572736275726760b01b81830152928201929092526103e8606082015260006080820181905273ea4459f020f6cbfc65a86de447b1933aa1c9f9f9815282528051805191926000805160206200281f83398151915292620002249284920190620004b8565b5060208281015180516200023f9260018501920190620004b8565b50604082015180516200025d916002840191602090910190620004b8565b5060608201516003820155608090910151600490910155600060208190526002805460018101825591526000805160206200281f8339815191528054600080516020620027df83398151915290920191620002b890620005e2565b620002c592919062000547565b50738be65d204a762b0a1e61039a1ba362ebe65b21c16005604051620002f590635065746160e01b815260040190565b908152604080516020928190038301812080546001600160a01b0319166001600160a01b03959095169490941790935560e083018152600460a08401818152635065746160e01b60c0860152845260018385018190526103e892850192909252606084018290526080840191909152738be65d204a762b0a1e61039a1ba362ebe65b21c16000528152815180517fd17570c1fab7a57a200783c8f7634aa181849d996af02bfa1a4c343dff09b13392620003b4928492910190620004b8565b50602082810151600180840191909155604080850151600285015560608501516003909401805460809096015115156101000261ff00199515159590951661ffff19909616959095179390931790935560068054938401815560005281518083019092526004808352635065746160e01b929091019182526200045b927ff652222313e28459528d920b65115c16c04f3efc82aaedc97be59f3f377c0d3f019190620004b8565b50600780546001810182556000919091527fa66cc928b5edb82af9bd49922954155ab7b0942694bea4ce44661d9a8736c6880180546001600160a01b031916738be65d204a762b0a1e61039a1ba362ebe65b21c11790556200061f565b828054620004c690620005e2565b90600052602060002090601f016020900481019282620004ea576000855562000535565b82601f106200050557805160ff191683800117855562000535565b8280016001018555821562000535579182015b828111156200053557825182559160200191906001019062000518565b5062000543929150620005cb565b5090565b8280546200055590620005e2565b90600052602060002090601f01602090048101928262000579576000855562000535565b82601f106200058c578054855562000535565b828001600101855582156200053557600052602060002091601f016020900482015b8281111562000535578254825591600101919060010190620005ae565b5b80821115620005435760008155600101620005cc565b600181811c90821680620005f757607f821691505b602082108114156200061957634e487b7160e01b600052602260045260246000fd5b50919050565b6121b0806200062f6000396000f3fe608060405234801561001057600080fd5b50600436106101125760003560e01c80630c72b1ec14610117578063146dc6ed1461012c5780631bbe970a1461013f57806329e795f3146101905780632ccdef7c146101a35780632d4673e3146101b657806334d2c0ad146101c95780636ba44d3c146101de5780636c05dd1d146101f15780637ddb273d1461020457806394b790ff14610226578063961865f014610239578063a985036d1461025d578063a9f9482b1461027e578063bbd4336314610291578063c178b9af146102a4578063c4957fa0146102ac578063cc21c188146102e0578063d68cf8c1146102f3578063dce3915114610316578063e38d908714610329578063f69483c11461033c575b600080fd5b61012a610125366004611e14565b61034f565b005b61012a61013a366004611bd3565b610525565b61017361014d366004611bd3565b80516020818301810180516005825292820191909301209152546001600160a01b031681565b6040516001600160a01b0390911681526020015b60405180910390f35b61012a61019e366004611c07565b610681565b61012a6101b1366004611e14565b6107e5565b61012a6101c4366004611bd3565b61091d565b6101d16109c9565b6040516101879190611f9a565b6101736101ec366004611bd3565b610aa2565b61012a6101ff366004611d8f565b610ad3565b610217610212366004611dfb565b610bca565b60405161018793929190611f2d565b61012a610234366004611d4b565b610c95565b61024c610247366004611b5b565b610e8c565b604051610187959493929190611ffc565b61027061026b366004611bd3565b610f4a565b604051908152602001610187565b61021761028c366004611dfb565b611152565b61012a61029f366004611bd3565b611162565b6101d161120e565b6101736102ba366004611bd3565b80516020818301810180516001825292820191909301209152546001600160a01b031681565b61012a6102ee366004611cf0565b6112de565b610306610301366004611bd3565b6115b2565b6040516101879493929190611f63565b610217610324366004611dfb565b611678565b61012a610337366004611b7d565b611688565b61012a61034a366004611e14565b61188b565b600181151514156104ea576000600a838154811061036f5761036f61214e565b906000526020600020906003020160020160006101000a81548160ff0219169083151502179055506008600a83815481106103ac576103ac61214e565b90600052602060002090600302016001016040516103ca9190611e91565b90815260200160405180910390206002015460046000600a85815481106103f3576103f361214e565b600091825260208083206003909202909101546001600160a01b0316835282019290925260400190206002015461042a919061209f565b60046000600a85815481106104415761044161214e565b600091825260208083206003909202909101546001600160a01b03168352820192909252604001902060020155600a805460089190849081106104865761048661214e565b90600052602060002090600302016001016040516104a49190611e91565b908152604080516020928190038301902060020154336000908152928390529120600301546104d39190612065565b336000908152602081905260409020600301555050565b6000600a83815481106104ff576104ff61214e565b60009182526020909120600390910201600201805460ff19169115159190911790555050565b6008816040516105359190611e75565b90815260200160405180910390206002015460046000336001600160a01b03166001600160a01b031681526020019081526020016000206002015410156105b65760405162461bcd60e51b815260206004820152601060248201526f6572726f723a206e6f74206d6f6e657960801b60448201526064015b60405180910390fd5b6040805160608101825233815260208082018481526001938301849052600a8054948501815560005282517fc65a7bb8d6351c1cf70c95a316cc6a92839c986682d98bc35f958f4883f9d2a8600390950294850180546001600160a01b0319166001600160a01b039092169190911781559051805193949193610662937fc65a7bb8d6351c1cf70c95a316cc6a92839c986682d98bc35f958f4883f9d2a9909301929190910190611984565b50604091909101516002909101805460ff191691151591909117905550565b60005b6003548110156107e0576000600382815481106106a3576106a361214e565b906000526020600020906005020160010180546106bf906120e2565b80601f01602080910402602001604051908101604052809291908181526020018280546106eb906120e2565b80156107385780601f1061070d57610100808354040283529160200191610738565b820191906000526020600020905b81548152906001019060200180831161071b57829003601f168201915b50505050509050836040516020016107509190611e75565b60405160208183030381529060405280519060200120816040516020016107779190611e75565b6040516020818303038152906040528051906020012014156107cd5782600383815481106107a7576107a761214e565b906000526020600020906005020160040190805190602001906107cb929190611a08565b505b50806107d88161211d565b915050610684565b505050565b60018115151415610908576000600b83815481106108055761080561214e565b906000526020600020906003020160020160006101000a81548160ff0219169083151502179055506008600b83815481106108425761084261214e565b90600052602060002090600302016001016040516108609190611e91565b90815260200160405180910390206002015460046000600b85815481106108895761088961214e565b600091825260208083206003909202909101546001600160a01b031683528201929092526040019020600201546108c09190612065565b60046000600b85815481106108d7576108d761214e565b600091825260208083206003909202909101546001600160a01b031683528201929092526040019020600201555050565b6000600b83815481106104ff576104ff61214e565b6040805160608101825233815260208082018481526001938301849052600c8054948501815560005282517fdf6966c971051c3d54ec59162606531493a51404a002842f56009d7e5cf4a8c7600390950294850180546001600160a01b0319166001600160a01b039092169190911781559051805193949193610662937fdf6966c971051c3d54ec59162606531493a51404a002842f56009d7e5cf4a8c8909301929190910190611984565b60606009805480602002602001604051908101604052809291908181526020016000905b82821015610a99578382906000526020600020018054610a0c906120e2565b80601f0160208091040260200160405190810160405280929190818152602001828054610a38906120e2565b8015610a855780601f10610a5a57610100808354040283529160200191610a85565b820191906000526020600020905b815481529060010190602001808311610a6857829003601f168201915b5050505050815260200190600101906109ed565b50505050905090565b6000600582604051610ab49190611e75565b908152604051908190036020019020546001600160a01b031692915050565b6040518060800160405280336001600160a01b03168152602001828152602001838152602001600d54815250600884604051610b0f9190611e75565b90815260405160209181900382019020825181546001600160a01b0319166001600160a01b039091161781558282015180519192610b5592600185019290910190611984565b5060408201516002820155606090910151600390910155600980546001810182556000919091528351610baf917f6e1540171b6c0c960b71a7020d9f60077f6af931a8bbf590da0223dacf75c7af01906020860190611984565b50600d8054906000610bc08361211d565b9190505550505050565b600c8181548110610bda57600080fd5b6000918252602090912060039091020180546001820180546001600160a01b03909216935090610c09906120e2565b80601f0160208091040260200160405190810160405280929190818152602001828054610c35906120e2565b8015610c825780601f10610c5757610100808354040283529160200191610c82565b820191906000526020600020905b815481529060010190602001808311610c6557829003601f168201915b5050506002909301549192505060ff1683565b60046000600584604051610ca99190611e75565b9081526040805160209281900383019020546001600160a01b03168352908201929092520160002060030154610100900460ff1615610d2a5760405162461bcd60e51b815260206004820152601d60248201527f4572726f723a20596f752061726520616c7265616479206c6f6767656400000060448201526064016105ad565b60006001600160a01b0316600583604051610d459190611e75565b908152604051908190036020019020546001600160a01b03161415610da85760405162461bcd60e51b8152602060048201526019602482015278115c9c9bdc8e88155cd95c88191bd95cdb89dd08195e1a5cdd603a1b60448201526064016105ad565b8060046000600585604051610dbd9190611e75565b9081526040805160209281900383019020546001600160a01b0316835290820192909252016000206001015414610e305760405162461bcd60e51b8152602060048201526017602482015276115c9c9bdc8e88125b9d985b1a59081c185cdcdddbdc99604a1b60448201526064016105ad565b600160046000600585604051610e469190611e75565b9081526040805160209281900383019020546001600160a01b031683529082019290925201600020600301805461ff001916610100921515929092029190911790555050565b600460205260009081526040902080548190610ea7906120e2565b80601f0160208091040260200160405190810160405280929190818152602001828054610ed3906120e2565b8015610f205780601f10610ef557610100808354040283529160200191610f20565b820191906000526020600020905b815481529060010190602001808311610f0357829003601f168201915b50505050600183015460028401546003909401549293909290915060ff8082169161010090041685565b60008080805b60025481101561113557600060028281548110610f6f57610f6f61214e565b906000526020600020018054610f84906120e2565b80601f0160208091040260200160405190810160405280929190818152602001828054610fb0906120e2565b8015610ffd5780601f10610fd257610100808354040283529160200191610ffd565b820191906000526020600020905b815481529060010190602001808311610fe057829003601f168201915b50505050509050856040516020016110159190611e75565b604051602081830303815290604052805190602001208160405160200161103c9190611e75565b60405160208183030381529060405280519060200120141561112257600091505b600354821161112257600382815481106110795761107961214e565b906000526020600020906005020160000160405160200161109a9190611e91565b60405160208183030381529060405280519060200120866040516020016110c19190611e75565b60405160208183030381529060405280519060200120141561111057600382815481106110f0576110f061214e565b9060005260206000209060050201600301548361110d9190612065565b92505b8161111a8161211d565b92505061105d565b508061112d8161211d565b915050610f50565b50611140828261207d565b61114a9082612065565b949350505050565b600b8181548110610bda57600080fd5b6040805160608101825233815260208082018481526001938301849052600b8054948501815560005282517f0175b7a638427703f0dbe7bb9bbf987a2551717b34e79f33b5b1008d1fa01db9600390950294850180546001600160a01b0319166001600160a01b039092169190911781559051805193949193610662937f0175b7a638427703f0dbe7bb9bbf987a2551717b34e79f33b5b1008d1fa01dba909301929190910190611984565b60606002805480602002602001604051908101604052809291908181526020016000905b82821015610a99578382906000526020600020018054611251906120e2565b80601f016020809104026020016040519081016040528092919081815260200182805461127d906120e2565b80156112ca5780601f1061129f576101008083540402835291602001916112ca565b820191906000526020600020905b8154815290600101906020018083116112ad57829003601f168201915b505050505081526020019060010190611232565b600a8111156113395760405162461bcd60e51b815260206004820152602160248201527f6572726f723a20726174696e672063616e2062652066726f6d203120746f20316044820152600360fc1b60648201526084016105ad565b60005b60025481116115ac5760006002828154811061135a5761135a61214e565b90600052602060002001805461136f906120e2565b80601f016020809104026020016040519081016040528092919081815260200182805461139b906120e2565b80156113e85780601f106113bd576101008083540402835291602001916113e8565b820191906000526020600020905b8154815290600101906020018083116113cb57829003601f168201915b50505050509050846040516020016114009190611e75565b60405160208183030381529060405280519060200120816040516020016114279190611e75565b604051602081830303815290604052805190602001201415611599576040805160a0810182528681523360009081526004602090815292902080546060936003939290830191611476906120e2565b80601f01602080910402602001604051908101604052809291908181526020018280546114a2906120e2565b80156114ef5780601f106114c4576101008083540402835291602001916114ef565b820191906000526020600020905b8154815290600101906020018083116114d257829003601f168201915b505050918352505060208082018990526040820188905260609091018490528254600181018455600093845292819020825180519394600502909101926115399284920190611984565b5060208281015180516115529260018501920190611984565b506040820151805161156e916002840191602090910190611984565b506060820151600382015560808201518051611594916004840191602090910190611a08565b505050505b50806115a48161211d565b91505061133c565b50505050565b8051602081830181018051600882529282019190930120915280546001820180546001600160a01b0390921692916115e9906120e2565b80601f0160208091040260200160405190810160405280929190818152602001828054611615906120e2565b80156116625780601f1061163757610100808354040283529160200191611662565b820191906000526020600020905b81548152906001019060200180831161164557829003601f168201915b5050505050908060020154908060030154905084565b600a8181548110610bda57600080fd5b739c35a9bdf790a5ce09b353b1c765269ab466baad33146116eb5760405162461bcd60e51b815260206004820152601d60248201527f4572726f723a20596f75206e6f742061207a65726f206163636f756e7400000060448201526064016105ad565b60006001600160a01b03166005836040516117069190611e75565b908152604051908190036020019020546001600160a01b0316146117685760405162461bcd60e51b8152602060048201526019602482015278115c9c9bdc8e88155cd95c88185b1c9958591e48195e1a5cdd603a1b60448201526064016105ad565b6040805160a08101825283815260208082018490526103e88284015260016060830181905260808301526001600160a01b0386166000908152600482529290922081518051929391926117be9284920190611984565b5060208201516001820155604080830151600283015560608301516003909201805460809094015115156101000261ff00199315159390931661ffff19909416939093179190911790915551839060059061181a908590611e75565b90815260405190819003602001902080546001600160a01b039283166001600160a01b031991821617909155600780546001810182556000919091527fa66cc928b5edb82af9bd49922954155ab7b0942694bea4ce44661d9a8736c688018054959092169416939093179092555050565b60018115151415610908576008600c83815481106118ab576118ab61214e565b90600052602060002090600302016001016040516118c99190611e91565b90815260200160405180910390206002015460046000600c85815481106118f2576118f261214e565b600091825260208083206003909202909101546001600160a01b031683528201929092526040019020600201546119299190612065565b60046000600c85815481106119405761194061214e565b600091825260208083206003909202909101546001600160a01b03168352820192909252604001812060020191909155600b8054849081106104ff576104ff61214e565b828054611990906120e2565b90600052602060002090601f0160209004810192826119b257600085556119f8565b82601f106119cb57805160ff19168380011785556119f8565b828001600101855582156119f8579182015b828111156119f85782518255916020019190600101906119dd565b50611a04929150611a61565b5090565b828054828255906000526020600020908101928215611a55579160200282015b82811115611a555782518051611a45918491602090910190611984565b5091602001919060010190611a28565b50611a04929150611a76565b5b80821115611a045760008155600101611a62565b80821115611a04576000611a8a8282611a93565b50600101611a76565b508054611a9f906120e2565b6000825580601f10611aaf575050565b601f016020900490600052602060002090810190611acd9190611a61565b50565b80356001600160a01b0381168114611ae757600080fd5b919050565b600082601f830112611afd57600080fd5b81356001600160401b03811115611b1657611b16612164565b611b29601f8201601f1916602001612035565b818152846020838601011115611b3e57600080fd5b816020850160208301376000918101602001919091529392505050565b600060208284031215611b6d57600080fd5b611b7682611ad0565b9392505050565b600080600060608486031215611b9257600080fd5b611b9b84611ad0565b925060208401356001600160401b03811115611bb657600080fd5b611bc286828701611aec565b925050604084013590509250925092565b600060208284031215611be557600080fd5b81356001600160401b03811115611bfb57600080fd5b61114a84828501611aec565b60008060408385031215611c1a57600080fd5b82356001600160401b0380821115611c3157600080fd5b611c3d86838701611aec565b9350602091508185013581811115611c5457600080fd5b8501601f81018713611c6557600080fd5b803582811115611c7757611c77612164565b8060051b611c86858201612035565b8281528581019084870183860188018c1015611ca157600080fd5b60009350835b85811015611cde57813588811115611cbd578586fd5b611ccb8e8b838b0101611aec565b8552509288019290880190600101611ca7565b50989b909a5098505050505050505050565b600080600060608486031215611d0557600080fd5b83356001600160401b0380821115611d1c57600080fd5b611d2887838801611aec565b94506020860135915080821115611d3e57600080fd5b50611bc286828701611aec565b60008060408385031215611d5e57600080fd5b82356001600160401b03811115611d7457600080fd5b611d8085828601611aec565b95602094909401359450505050565b600080600060608486031215611da457600080fd5b83356001600160401b0380821115611dbb57600080fd5b611dc787838801611aec565b9450602086013593506040860135915080821115611de457600080fd5b50611df186828701611aec565b9150509250925092565b600060208284031215611e0d57600080fd5b5035919050565b60008060408385031215611e2757600080fd5b8235915060208301358015158114611e3e57600080fd5b809150509250929050565b60008151808452611e618160208601602086016120b6565b601f01601f19169290920160200192915050565b60008251611e878184602087016120b6565b9190910192915050565b600080835481600182811c915080831680611ead57607f831692505b6020808410821415611ecd57634e487b7160e01b86526022600452602486fd5b818015611ee15760018114611ef257611f1f565b60ff19861689528489019650611f1f565b60008a81526020902060005b86811015611f175781548b820152908501908301611efe565b505084890196505b509498975050505050505050565b6001600160a01b0384168152606060208201819052600090611f5190830185611e49565b90508215156040830152949350505050565b6001600160a01b0385168152608060208201819052600090611f8790830186611e49565b6040830194909452506060015292915050565b6000602080830181845280855180835260408601915060408160051b870101925083870160005b82811015611fef57603f19888603018452611fdd858351611e49565b94509285019290850190600101611fc1565b5092979650505050505050565b60a08152600061200f60a0830188611e49565b602083019690965250604081019390935290151560608301521515608090910152919050565b604051601f8201601f191681016001600160401b038111828210171561205d5761205d612164565b604052919050565b6000821982111561207857612078612138565b500190565b60008261209a57634e487b7160e01b600052601260045260246000fd5b500490565b6000828210156120b1576120b1612138565b500390565b60005b838110156120d15781810151838201526020016120b9565b838111156115ac5750506000910152565b600181811c908216806120f657607f821691505b6020821081141561211757634e487b7160e01b600052602260045260246000fd5b50919050565b600060001982141561213157612131612138565b5060010190565b634e487b7160e01b600052601160045260246000fd5b634e487b7160e01b600052603260045260246000fd5b634e487b7160e01b600052604160045260246000fdfea2646970667358221220e50e930ed3d7ab42830b73fc2e969e7cdc5ce0551d11d7e842123d92ba81a37b64736f6c63430008070033405787fa12a823e0f2b7631cc41b3ba8828b3321ca811111fa75cd3aa3bb5acea4629bf9daa4d0816e85b79d58daaabcac7b71b32d11bdfd27785bb59cd6cac6cb970ebb9edb880ac802b1a3c9eefe4439695bf104b16c8261476629532582fa",
					"opcodes": "PUSH1 0x80 PUSH1 0x40 MSTORE PUSH1 0x0 PUSH1 0xD SSTORE CALLVALUE DUP1 ISZERO PUSH3 0x16 JUMPI PUSH1 0x0 DUP1 REVERT JUMPDEST POP PUSH1 0x40 DUP1 MLOAD PUSH1 0xE0 DUP2 ADD DUP3 MSTORE PUSH1 0x4 PUSH1 0xA0 DUP3 ADD SWAP1 DUP2 MSTORE PUSH4 0x119BDBD9 PUSH1 0xE2 SHL PUSH1 0xC0 DUP4 ADD MSTORE DUP2 MSTORE DUP2 MLOAD DUP1 DUP4 ADD DUP4 MSTORE PUSH1 0x1 DUP2 MSTORE PUSH1 0x31 PUSH1 0xF8 SHL PUSH1 0x20 DUP3 DUP2 ADD SWAP2 SWAP1 SWAP2 MSTORE DUP1 DUP4 ADD SWAP2 SWAP1 SWAP2 MSTORE DUP3 MLOAD DUP1 DUP5 ADD DUP5 MSTORE PUSH1 0x6 DUP2 MSTORE PUSH6 0x4D6F73636F77 PUSH1 0xD0 SHL DUP2 DUP4 ADD MSTORE SWAP3 DUP3 ADD SWAP3 SWAP1 SWAP3 MSTORE PUSH2 0x3E8 PUSH1 0x60 DUP3 ADD MSTORE PUSH1 0x0 PUSH1 0x80 DUP3 ADD DUP2 SWAP1 MSTORE PUSH20 0xE99C55AC245CE186ADBFE5B288B289F7AE9F0243 DUP2 MSTORE DUP3 MSTORE DUP1 MLOAD DUP1 MLOAD SWAP2 SWAP3 PUSH1 0x0 DUP1 MLOAD PUSH1 0x20 PUSH3 0x27FF DUP4 CODECOPY DUP2 MLOAD SWAP2 MSTORE SWAP3 PUSH3 0xC9 SWAP3 DUP5 SWAP3 ADD SWAP1 PUSH3 0x4B8 JUMP JUMPDEST POP PUSH1 0x20 DUP3 DUP2 ADD MLOAD DUP1 MLOAD PUSH3 0xE4 SWAP3 PUSH1 0x1 DUP6 ADD SWAP3 ADD SWAP1 PUSH3 0x4B8 JUMP JUMPDEST POP PUSH1 0x40 DUP3 ADD MLOAD DUP1 MLOAD PUSH3 0x102 SWAP2 PUSH1 0x2 DUP5 ADD SWAP2 PUSH1 0x20 SWAP1 SWAP2 ADD SWAP1 PUSH3 0x4B8 JUMP JUMPDEST POP PUSH1 0x60 DUP3 ADD MLOAD PUSH1 0x3 DUP3 ADD SSTORE PUSH1 0x80 SWAP1 SWAP2 ADD MLOAD PUSH1 0x4 SWAP1 SWAP2 ADD SSTORE PUSH1 0x0 PUSH1 0x20 DUP2 SWAP1 MSTORE PUSH1 0x2 DUP1 SLOAD PUSH1 0x1 DUP2 ADD DUP3 SSTORE SWAP2 MSTORE PUSH1 0x0 DUP1 MLOAD PUSH1 0x20 PUSH3 0x27FF DUP4 CODECOPY DUP2 MLOAD SWAP2 MSTORE DUP1 SLOAD PUSH1 0x0 DUP1 MLOAD PUSH1 0x20 PUSH3 0x27DF DUP4 CODECOPY DUP2 MLOAD SWAP2 MSTORE SWAP1 SWAP3 ADD SWAP2 PUSH3 0x15D SWAP1 PUSH3 0x5E2 JUMP JUMPDEST PUSH3 0x16A SWAP3 SWAP2 SWAP1 PUSH3 0x547 JUMP JUMPDEST POP PUSH1 0x40 DUP1 MLOAD PUSH1 0xE0 DUP2 ADD DUP3 MSTORE PUSH1 0x7 PUSH1 0xA0 DUP3 ADD SWAP1 DUP2 MSTORE PUSH7 0x436C6F74686573 PUSH1 0xC8 SHL PUSH1 0xC0 DUP4 ADD MSTORE DUP2 MSTORE DUP2 MLOAD DUP1 DUP4 ADD DUP4 MSTORE PUSH1 0x1 DUP2 MSTORE PUSH1 0x19 PUSH1 0xF9 SHL PUSH1 0x20 DUP3 DUP2 ADD SWAP2 SWAP1 SWAP2 MSTORE DUP1 DUP4 ADD SWAP2 SWAP1 SWAP2 MSTORE DUP3 MLOAD DUP1 DUP5 ADD DUP5 MSTORE PUSH1 0xA DUP2 MSTORE PUSH10 0x50657465727362757267 PUSH1 0xB0 SHL DUP2 DUP4 ADD MSTORE SWAP3 DUP3 ADD SWAP3 SWAP1 SWAP3 MSTORE PUSH2 0x3E8 PUSH1 0x60 DUP3 ADD MSTORE PUSH1 0x0 PUSH1 0x80 DUP3 ADD DUP2 SWAP1 MSTORE PUSH20 0xEA4459F020F6CBFC65A86DE447B1933AA1C9F9F9 DUP2 MSTORE DUP3 MSTORE DUP1 MLOAD DUP1 MLOAD SWAP2 SWAP3 PUSH1 0x0 DUP1 MLOAD PUSH1 0x20 PUSH3 0x281F DUP4 CODECOPY DUP2 MLOAD SWAP2 MSTORE SWAP3 PUSH3 0x224 SWAP3 DUP5 SWAP3 ADD SWAP1 PUSH3 0x4B8 JUMP JUMPDEST POP PUSH1 0x20 DUP3 DUP2 ADD MLOAD DUP1 MLOAD PUSH3 0x23F SWAP3 PUSH1 0x1 DUP6 ADD SWAP3 ADD SWAP1 PUSH3 0x4B8 JUMP JUMPDEST POP PUSH1 0x40 DUP3 ADD MLOAD DUP1 MLOAD PUSH3 0x25D SWAP2 PUSH1 0x2 DUP5 ADD SWAP2 PUSH1 0x20 SWAP1 SWAP2 ADD SWAP1 PUSH3 0x4B8 JUMP JUMPDEST POP PUSH1 0x60 DUP3 ADD MLOAD PUSH1 0x3 DUP3 ADD SSTORE PUSH1 0x80 SWAP1 SWAP2 ADD MLOAD PUSH1 0x4 SWAP1 SWAP2 ADD SSTORE PUSH1 0x0 PUSH1 0x20 DUP2 SWAP1 MSTORE PUSH1 0x2 DUP1 SLOAD PUSH1 0x1 DUP2 ADD DUP3 SSTORE SWAP2 MSTORE PUSH1 0x0 DUP1 MLOAD PUSH1 0x20 PUSH3 0x281F DUP4 CODECOPY DUP2 MLOAD SWAP2 MSTORE DUP1 SLOAD PUSH1 0x0 DUP1 MLOAD PUSH1 0x20 PUSH3 0x27DF DUP4 CODECOPY DUP2 MLOAD SWAP2 MSTORE SWAP1 SWAP3 ADD SWAP2 PUSH3 0x2B8 SWAP1 PUSH3 0x5E2 JUMP JUMPDEST PUSH3 0x2C5 SWAP3 SWAP2 SWAP1 PUSH3 0x547 JUMP JUMPDEST POP PUSH20 0x8BE65D204A762B0A1E61039A1BA362EBE65B21C1 PUSH1 0x5 PUSH1 0x40 MLOAD PUSH3 0x2F5 SWAP1 PUSH4 0x50657461 PUSH1 0xE0 SHL DUP2 MSTORE PUSH1 0x4 ADD SWAP1 JUMP JUMPDEST SWAP1 DUP2 MSTORE PUSH1 0x40 DUP1 MLOAD PUSH1 0x20 SWAP3 DUP2 SWAP1 SUB DUP4 ADD DUP2 KECCAK256 DUP1 SLOAD PUSH1 0x1 PUSH1 0x1 PUSH1 0xA0 SHL SUB NOT AND PUSH1 0x1 PUSH1 0x1 PUSH1 0xA0 SHL SUB SWAP6 SWAP1 SWAP6 AND SWAP5 SWAP1 SWAP5 OR SWAP1 SWAP4 SSTORE PUSH1 0xE0 DUP4 ADD DUP2 MSTORE PUSH1 0x4 PUSH1 0xA0 DUP5 ADD DUP2 DUP2 MSTORE PUSH4 0x50657461 PUSH1 0xE0 SHL PUSH1 0xC0 DUP7 ADD MSTORE DUP5 MSTORE PUSH1 0x1 DUP4 DUP6 ADD DUP2 SWAP1 MSTORE PUSH2 0x3E8 SWAP3 DUP6 ADD SWAP3 SWAP1 SWAP3 MSTORE PUSH1 0x60 DUP5 ADD DUP3 SWAP1 MSTORE PUSH1 0x80 DUP5 ADD SWAP2 SWAP1 SWAP2 MSTORE PUSH20 0x8BE65D204A762B0A1E61039A1BA362EBE65B21C1 PUSH1 0x0 MSTORE DUP2 MSTORE DUP2 MLOAD DUP1 MLOAD PUSH32 0xD17570C1FAB7A57A200783C8F7634AA181849D996AF02BFA1A4C343DFF09B133 SWAP3 PUSH3 0x3B4 SWAP3 DUP5 SWAP3 SWAP2 ADD SWAP1 PUSH3 0x4B8 JUMP JUMPDEST POP PUSH1 0x20 DUP3 DUP2 ADD MLOAD PUSH1 0x1 DUP1 DUP5 ADD SWAP2 SWAP1 SWAP2 SSTORE PUSH1 0x40 DUP1 DUP6 ADD MLOAD PUSH1 0x2 DUP6 ADD SSTORE PUSH1 0x60 DUP6 ADD MLOAD PUSH1 0x3 SWAP1 SWAP5 ADD DUP1 SLOAD PUSH1 0x80 SWAP1 SWAP7 ADD MLOAD ISZERO ISZERO PUSH2 0x100 MUL PUSH2 0xFF00 NOT SWAP6 ISZERO ISZERO SWAP6 SWAP1 SWAP6 AND PUSH2 0xFFFF NOT SWAP1 SWAP7 AND SWAP6 SWAP1 SWAP6 OR SWAP4 SWAP1 SWAP4 OR SWAP1 SWAP4 SSTORE PUSH1 0x6 DUP1 SLOAD SWAP4 DUP5 ADD DUP2 SSTORE PUSH1 0x0 MSTORE DUP2 MLOAD DUP1 DUP4 ADD SWAP1 SWAP3 MSTORE PUSH1 0x4 DUP1 DUP4 MSTORE PUSH4 0x50657461 PUSH1 0xE0 SHL SWAP3 SWAP1 SWAP2 ADD SWAP2 DUP3 MSTORE PUSH3 0x45B SWAP3 PUSH32 0xF652222313E28459528D920B65115C16C04F3EFC82AAEDC97BE59F3F377C0D3F ADD SWAP2 SWAP1 PUSH3 0x4B8 JUMP JUMPDEST POP PUSH1 0x7 DUP1 SLOAD PUSH1 0x1 DUP2 ADD DUP3 SSTORE PUSH1 0x0 SWAP2 SWAP1 SWAP2 MSTORE PUSH32 0xA66CC928B5EDB82AF9BD49922954155AB7B0942694BEA4CE44661D9A8736C688 ADD DUP1 SLOAD PUSH1 0x1 PUSH1 0x1 PUSH1 0xA0 SHL SUB NOT AND PUSH20 0x8BE65D204A762B0A1E61039A1BA362EBE65B21C1 OR SWAP1 SSTORE PUSH3 0x61F JUMP JUMPDEST DUP3 DUP1 SLOAD PUSH3 0x4C6 SWAP1 PUSH3 0x5E2 JUMP JUMPDEST SWAP1 PUSH1 0x0 MSTORE PUSH1 0x20 PUSH1 0x0 KECCAK256 SWAP1 PUSH1 0x1F ADD PUSH1 0x20 SWAP1 DIV DUP2 ADD SWAP3 DUP3 PUSH3 0x4EA JUMPI PUSH1 0x0 DUP6 SSTORE PUSH3 0x535 JUMP JUMPDEST DUP3 PUSH1 0x1F LT PUSH3 0x505 JUMPI DUP1 MLOAD PUSH1 0xFF NOT AND DUP4 DUP1 ADD OR DUP6 SSTORE PUSH3 0x535 JUMP JUMPDEST DUP3 DUP1 ADD PUSH1 0x1 ADD DUP6 SSTORE DUP3 ISZERO PUSH3 0x535 JUMPI SWAP2 DUP3 ADD JUMPDEST DUP3 DUP2 GT ISZERO PUSH3 0x535 JUMPI DUP3 MLOAD DUP3 SSTORE SWAP2 PUSH1 0x20 ADD SWAP2 SWAP1 PUSH1 0x1 ADD SWAP1 PUSH3 0x518 JUMP JUMPDEST POP PUSH3 0x543 SWAP3 SWAP2 POP PUSH3 0x5CB JUMP JUMPDEST POP SWAP1 JUMP JUMPDEST DUP3 DUP1 SLOAD PUSH3 0x555 SWAP1 PUSH3 0x5E2 JUMP JUMPDEST SWAP1 PUSH1 0x0 MSTORE PUSH1 0x20 PUSH1 0x0 KECCAK256 SWAP1 PUSH1 0x1F ADD PUSH1 0x20 SWAP1 DIV DUP2 ADD SWAP3 DUP3 PUSH3 0x579 JUMPI PUSH1 0x0 DUP6 SSTORE PUSH3 0x535 JUMP JUMPDEST DUP3 PUSH1 0x1F LT PUSH3 0x58C JUMPI DUP1 SLOAD DUP6 SSTORE PUSH3 0x535 JUMP JUMPDEST DUP3 DUP1 ADD PUSH1 0x1 ADD DUP6 SSTORE DUP3 ISZERO PUSH3 0x535 JUMPI PUSH1 0x0 MSTORE PUSH1 0x20 PUSH1 0x0 KECCAK256 SWAP2 PUSH1 0x1F ADD PUSH1 0x20 SWAP1 DIV DUP3 ADD JUMPDEST DUP3 DUP2 GT ISZERO PUSH3 0x535 JUMPI DUP3 SLOAD DUP3 SSTORE SWAP2 PUSH1 0x1 ADD SWAP2 SWAP1 PUSH1 0x1 ADD SWAP1 PUSH3 0x5AE JUMP JUMPDEST JUMPDEST DUP1 DUP3 GT ISZERO PUSH3 0x543 JUMPI PUSH1 0x0 DUP2 SSTORE PUSH1 0x1 ADD PUSH3 0x5CC JUMP JUMPDEST PUSH1 0x1 DUP2 DUP2 SHR SWAP1 DUP3 AND DUP1 PUSH3 0x5F7 JUMPI PUSH1 0x7F DUP3 AND SWAP2 POP JUMPDEST PUSH1 0x20 DUP3 LT DUP2 EQ ISZERO PUSH3 0x619 JUMPI PUSH4 0x4E487B71 PUSH1 0xE0 SHL PUSH1 0x0 MSTORE PUSH1 0x22 PUSH1 0x4 MSTORE PUSH1 0x24 PUSH1 0x0 REVERT JUMPDEST POP SWAP2 SWAP1 POP JUMP JUMPDEST PUSH2 0x21B0 DUP1 PUSH3 0x62F PUSH1 0x0 CODECOPY PUSH1 0x0 RETURN INVALID PUSH1 0x80 PUSH1 0x40 MSTORE CALLVALUE DUP1 ISZERO PUSH2 0x10 JUMPI PUSH1 0x0 DUP1 REVERT JUMPDEST POP PUSH1 0x4 CALLDATASIZE LT PUSH2 0x112 JUMPI PUSH1 0x0 CALLDATALOAD PUSH1 0xE0 SHR DUP1 PUSH4 0xC72B1EC EQ PUSH2 0x117 JUMPI DUP1 PUSH4 0x146DC6ED EQ PUSH2 0x12C JUMPI DUP1 PUSH4 0x1BBE970A EQ PUSH2 0x13F JUMPI DUP1 PUSH4 0x29E795F3 EQ PUSH2 0x190 JUMPI DUP1 PUSH4 0x2CCDEF7C EQ PUSH2 0x1A3 JUMPI DUP1 PUSH4 0x2D4673E3 EQ PUSH2 0x1B6 JUMPI DUP1 PUSH4 0x34D2C0AD EQ PUSH2 0x1C9 JUMPI DUP1 PUSH4 0x6BA44D3C EQ PUSH2 0x1DE JUMPI DUP1 PUSH4 0x6C05DD1D EQ PUSH2 0x1F1 JUMPI DUP1 PUSH4 0x7DDB273D EQ PUSH2 0x204 JUMPI DUP1 PUSH4 0x94B790FF EQ PUSH2 0x226 JUMPI DUP1 PUSH4 0x961865F0 EQ PUSH2 0x239 JUMPI DUP1 PUSH4 0xA985036D EQ PUSH2 0x25D JUMPI DUP1 PUSH4 0xA9F9482B EQ PUSH2 0x27E JUMPI DUP1 PUSH4 0xBBD43363 EQ PUSH2 0x291 JUMPI DUP1 PUSH4 0xC178B9AF EQ PUSH2 0x2A4 JUMPI DUP1 PUSH4 0xC4957FA0 EQ PUSH2 0x2AC JUMPI DUP1 PUSH4 0xCC21C188 EQ PUSH2 0x2E0 JUMPI DUP1 PUSH4 0xD68CF8C1 EQ PUSH2 0x2F3 JUMPI DUP1 PUSH4 0xDCE39151 EQ PUSH2 0x316 JUMPI DUP1 PUSH4 0xE38D9087 EQ PUSH2 0x329 JUMPI DUP1 PUSH4 0xF69483C1 EQ PUSH2 0x33C JUMPI JUMPDEST PUSH1 0x0 DUP1 REVERT JUMPDEST PUSH2 0x12A PUSH2 0x125 CALLDATASIZE PUSH1 0x4 PUSH2 0x1E14 JUMP JUMPDEST PUSH2 0x34F JUMP JUMPDEST STOP JUMPDEST PUSH2 0x12A PUSH2 0x13A CALLDATASIZE PUSH1 0x4 PUSH2 0x1BD3 JUMP JUMPDEST PUSH2 0x525 JUMP JUMPDEST PUSH2 0x173 PUSH2 0x14D CALLDATASIZE PUSH1 0x4 PUSH2 0x1BD3 JUMP JUMPDEST DUP1 MLOAD PUSH1 0x20 DUP2 DUP4 ADD DUP2 ADD DUP1 MLOAD PUSH1 0x5 DUP3 MSTORE SWAP3 DUP3 ADD SWAP2 SWAP1 SWAP4 ADD KECCAK256 SWAP2 MSTORE SLOAD PUSH1 0x1 PUSH1 0x1 PUSH1 0xA0 SHL SUB AND DUP2 JUMP JUMPDEST PUSH1 0x40 MLOAD PUSH1 0x1 PUSH1 0x1 PUSH1 0xA0 SHL SUB SWAP1 SWAP2 AND DUP2 MSTORE PUSH1 0x20 ADD JUMPDEST PUSH1 0x40 MLOAD DUP1 SWAP2 SUB SWAP1 RETURN JUMPDEST PUSH2 0x12A PUSH2 0x19E CALLDATASIZE PUSH1 0x4 PUSH2 0x1C07 JUMP JUMPDEST PUSH2 0x681 JUMP JUMPDEST PUSH2 0x12A PUSH2 0x1B1 CALLDATASIZE PUSH1 0x4 PUSH2 0x1E14 JUMP JUMPDEST PUSH2 0x7E5 JUMP JUMPDEST PUSH2 0x12A PUSH2 0x1C4 CALLDATASIZE PUSH1 0x4 PUSH2 0x1BD3 JUMP JUMPDEST PUSH2 0x91D JUMP JUMPDEST PUSH2 0x1D1 PUSH2 0x9C9 JUMP JUMPDEST PUSH1 0x40 MLOAD PUSH2 0x187 SWAP2 SWAP1 PUSH2 0x1F9A JUMP JUMPDEST PUSH2 0x173 PUSH2 0x1EC CALLDATASIZE PUSH1 0x4 PUSH2 0x1BD3 JUMP JUMPDEST PUSH2 0xAA2 JUMP JUMPDEST PUSH2 0x12A PUSH2 0x1FF CALLDATASIZE PUSH1 0x4 PUSH2 0x1D8F JUMP JUMPDEST PUSH2 0xAD3 JUMP JUMPDEST PUSH2 0x217 PUSH2 0x212 CALLDATASIZE PUSH1 0x4 PUSH2 0x1DFB JUMP JUMPDEST PUSH2 0xBCA JUMP JUMPDEST PUSH1 0x40 MLOAD PUSH2 0x187 SWAP4 SWAP3 SWAP2 SWAP1 PUSH2 0x1F2D JUMP JUMPDEST PUSH2 0x12A PUSH2 0x234 CALLDATASIZE PUSH1 0x4 PUSH2 0x1D4B JUMP JUMPDEST PUSH2 0xC95 JUMP JUMPDEST PUSH2 0x24C PUSH2 0x247 CALLDATASIZE PUSH1 0x4 PUSH2 0x1B5B JUMP JUMPDEST PUSH2 0xE8C JUMP JUMPDEST PUSH1 0x40 MLOAD PUSH2 0x187 SWAP6 SWAP5 SWAP4 SWAP3 SWAP2 SWAP1 PUSH2 0x1FFC JUMP JUMPDEST PUSH2 0x270 PUSH2 0x26B CALLDATASIZE PUSH1 0x4 PUSH2 0x1BD3 JUMP JUMPDEST PUSH2 0xF4A JUMP JUMPDEST PUSH1 0x40 MLOAD SWAP1 DUP2 MSTORE PUSH1 0x20 ADD PUSH2 0x187 JUMP JUMPDEST PUSH2 0x217 PUSH2 0x28C CALLDATASIZE PUSH1 0x4 PUSH2 0x1DFB JUMP JUMPDEST PUSH2 0x1152 JUMP JUMPDEST PUSH2 0x12A PUSH2 0x29F CALLDATASIZE PUSH1 0x4 PUSH2 0x1BD3 JUMP JUMPDEST PUSH2 0x1162 JUMP JUMPDEST PUSH2 0x1D1 PUSH2 0x120E JUMP JUMPDEST PUSH2 0x173 PUSH2 0x2BA CALLDATASIZE PUSH1 0x4 PUSH2 0x1BD3 JUMP JUMPDEST DUP1 MLOAD PUSH1 0x20 DUP2 DUP4 ADD DUP2 ADD DUP1 MLOAD PUSH1 0x1 DUP3 MSTORE SWAP3 DUP3 ADD SWAP2 SWAP1 SWAP4 ADD KECCAK256 SWAP2 MSTORE SLOAD PUSH1 0x1 PUSH1 0x1 PUSH1 0xA0 SHL SUB AND DUP2 JUMP JUMPDEST PUSH2 0x12A PUSH2 0x2EE CALLDATASIZE PUSH1 0x4 PUSH2 0x1CF0 JUMP JUMPDEST PUSH2 0x12DE JUMP JUMPDEST PUSH2 0x306 PUSH2 0x301 CALLDATASIZE PUSH1 0x4 PUSH2 0x1BD3 JUMP JUMPDEST PUSH2 0x15B2 JUMP JUMPDEST PUSH1 0x40 MLOAD PUSH2 0x187 SWAP5 SWAP4 SWAP3 SWAP2 SWAP1 PUSH2 0x1F63 JUMP JUMPDEST PUSH2 0x217 PUSH2 0x324 CALLDATASIZE PUSH1 0x4 PUSH2 0x1DFB JUMP JUMPDEST PUSH2 0x1678 JUMP JUMPDEST PUSH2 0x12A PUSH2 0x337 CALLDATASIZE PUSH1 0x4 PUSH2 0x1B7D JUMP JUMPDEST PUSH2 0x1688 JUMP JUMPDEST PUSH2 0x12A PUSH2 0x34A CALLDATASIZE PUSH1 0x4 PUSH2 0x1E14 JUMP JUMPDEST PUSH2 0x188B JUMP JUMPDEST PUSH1 0x1 DUP2 ISZERO ISZERO EQ ISZERO PUSH2 0x4EA JUMPI PUSH1 0x0 PUSH1 0xA DUP4 DUP2 SLOAD DUP2 LT PUSH2 0x36F JUMPI PUSH2 0x36F PUSH2 0x214E JUMP JUMPDEST SWAP1 PUSH1 0x0 MSTORE PUSH1 0x20 PUSH1 0x0 KECCAK256 SWAP1 PUSH1 0x3 MUL ADD PUSH1 0x2 ADD PUSH1 0x0 PUSH2 0x100 EXP DUP2 SLOAD DUP2 PUSH1 0xFF MUL NOT AND SWAP1 DUP4 ISZERO ISZERO MUL OR SWAP1 SSTORE POP PUSH1 0x8 PUSH1 0xA DUP4 DUP2 SLOAD DUP2 LT PUSH2 0x3AC JUMPI PUSH2 0x3AC PUSH2 0x214E JUMP JUMPDEST SWAP1 PUSH1 0x0 MSTORE PUSH1 0x20 PUSH1 0x0 KECCAK256 SWAP1 PUSH1 0x3 MUL ADD PUSH1 0x1 ADD PUSH1 0x40 MLOAD PUSH2 0x3CA SWAP2 SWAP1 PUSH2 0x1E91 JUMP JUMPDEST SWAP1 DUP2 MSTORE PUSH1 0x20 ADD PUSH1 0x40 MLOAD DUP1 SWAP2 SUB SWAP1 KECCAK256 PUSH1 0x2 ADD SLOAD PUSH1 0x4 PUSH1 0x0 PUSH1 0xA DUP6 DUP2 SLOAD DUP2 LT PUSH2 0x3F3 JUMPI PUSH2 0x3F3 PUSH2 0x214E JUMP JUMPDEST PUSH1 0x0 SWAP2 DUP3 MSTORE PUSH1 0x20 DUP1 DUP4 KECCAK256 PUSH1 0x3 SWAP1 SWAP3 MUL SWAP1 SWAP2 ADD SLOAD PUSH1 0x1 PUSH1 0x1 PUSH1 0xA0 SHL SUB AND DUP4 MSTORE DUP3 ADD SWAP3 SWAP1 SWAP3 MSTORE PUSH1 0x40 ADD SWAP1 KECCAK256 PUSH1 0x2 ADD SLOAD PUSH2 0x42A SWAP2 SWAP1 PUSH2 0x209F JUMP JUMPDEST PUSH1 0x4 PUSH1 0x0 PUSH1 0xA DUP6 DUP2 SLOAD DUP2 LT PUSH2 0x441 JUMPI PUSH2 0x441 PUSH2 0x214E JUMP JUMPDEST PUSH1 0x0 SWAP2 DUP3 MSTORE PUSH1 0x20 DUP1 DUP4 KECCAK256 PUSH1 0x3 SWAP1 SWAP3 MUL SWAP1 SWAP2 ADD SLOAD PUSH1 0x1 PUSH1 0x1 PUSH1 0xA0 SHL SUB AND DUP4 MSTORE DUP3 ADD SWAP3 SWAP1 SWAP3 MSTORE PUSH1 0x40 ADD SWAP1 KECCAK256 PUSH1 0x2 ADD SSTORE PUSH1 0xA DUP1 SLOAD PUSH1 0x8 SWAP2 SWAP1 DUP5 SWAP1 DUP2 LT PUSH2 0x486 JUMPI PUSH2 0x486 PUSH2 0x214E JUMP JUMPDEST SWAP1 PUSH1 0x0 MSTORE PUSH1 0x20 PUSH1 0x0 KECCAK256 SWAP1 PUSH1 0x3 MUL ADD PUSH1 0x1 ADD PUSH1 0x40 MLOAD PUSH2 0x4A4 SWAP2 SWAP1 PUSH2 0x1E91 JUMP JUMPDEST SWAP1 DUP2 MSTORE PUSH1 0x40 DUP1 MLOAD PUSH1 0x20 SWAP3 DUP2 SWAP1 SUB DUP4 ADD SWAP1 KECCAK256 PUSH1 0x2 ADD SLOAD CALLER PUSH1 0x0 SWAP1 DUP2 MSTORE SWAP3 DUP4 SWAP1 MSTORE SWAP2 KECCAK256 PUSH1 0x3 ADD SLOAD PUSH2 0x4D3 SWAP2 SWAP1 PUSH2 0x2065 JUMP JUMPDEST CALLER PUSH1 0x0 SWAP1 DUP2 MSTORE PUSH1 0x20 DUP2 SWAP1 MSTORE PUSH1 0x40 SWAP1 KECCAK256 PUSH1 0x3 ADD SSTORE POP POP JUMP JUMPDEST PUSH1 0x0 PUSH1 0xA DUP4 DUP2 SLOAD DUP2 LT PUSH2 0x4FF JUMPI PUSH2 0x4FF PUSH2 0x214E JUMP JUMPDEST PUSH1 0x0 SWAP2 DUP3 MSTORE PUSH1 0x20 SWAP1 SWAP2 KECCAK256 PUSH1 0x3 SWAP1 SWAP2 MUL ADD PUSH1 0x2 ADD DUP1 SLOAD PUSH1 0xFF NOT AND SWAP2 ISZERO ISZERO SWAP2 SWAP1 SWAP2 OR SWAP1 SSTORE POP POP JUMP JUMPDEST PUSH1 0x8 DUP2 PUSH1 0x40 MLOAD PUSH2 0x535 SWAP2 SWAP1 PUSH2 0x1E75 JUMP JUMPDEST SWAP1 DUP2 MSTORE PUSH1 0x20 ADD PUSH1 0x40 MLOAD DUP1 SWAP2 SUB SWAP1 KECCAK256 PUSH1 0x2 ADD SLOAD PUSH1 0x4 PUSH1 0x0 CALLER PUSH1 0x1 PUSH1 0x1 PUSH1 0xA0 SHL SUB AND PUSH1 0x1 PUSH1 0x1 PUSH1 0xA0 SHL SUB AND DUP2 MSTORE PUSH1 0x20 ADD SWAP1 DUP2 MSTORE PUSH1 0x20 ADD PUSH1 0x0 KECCAK256 PUSH1 0x2 ADD SLOAD LT ISZERO PUSH2 0x5B6 JUMPI PUSH1 0x40 MLOAD PUSH3 0x461BCD PUSH1 0xE5 SHL DUP2 MSTORE PUSH1 0x20 PUSH1 0x4 DUP3 ADD MSTORE PUSH1 0x10 PUSH1 0x24 DUP3 ADD MSTORE PUSH16 0x6572726F723A206E6F74206D6F6E6579 PUSH1 0x80 SHL PUSH1 0x44 DUP3 ADD MSTORE PUSH1 0x64 ADD JUMPDEST PUSH1 0x40 MLOAD DUP1 SWAP2 SUB SWAP1 REVERT JUMPDEST PUSH1 0x40 DUP1 MLOAD PUSH1 0x60 DUP2 ADD DUP3 MSTORE CALLER DUP2 MSTORE PUSH1 0x20 DUP1 DUP3 ADD DUP5 DUP2 MSTORE PUSH1 0x1 SWAP4 DUP4 ADD DUP5 SWAP1 MSTORE PUSH1 0xA DUP1 SLOAD SWAP5 DUP6 ADD DUP2 SSTORE PUSH1 0x0 MSTORE DUP3 MLOAD PUSH32 0xC65A7BB8D6351C1CF70C95A316CC6A92839C986682D98BC35F958F4883F9D2A8 PUSH1 0x3 SWAP1 SWAP6 MUL SWAP5 DUP6 ADD DUP1 SLOAD PUSH1 0x1 PUSH1 0x1 PUSH1 0xA0 SHL SUB NOT AND PUSH1 0x1 PUSH1 0x1 PUSH1 0xA0 SHL SUB SWAP1 SWAP3 AND SWAP2 SWAP1 SWAP2 OR DUP2 SSTORE SWAP1 MLOAD DUP1 MLOAD SWAP4 SWAP5 SWAP2 SWAP4 PUSH2 0x662 SWAP4 PUSH32 0xC65A7BB8D6351C1CF70C95A316CC6A92839C986682D98BC35F958F4883F9D2A9 SWAP1 SWAP4 ADD SWAP3 SWAP2 SWAP1 SWAP2 ADD SWAP1 PUSH2 0x1984 JUMP JUMPDEST POP PUSH1 0x40 SWAP2 SWAP1 SWAP2 ADD MLOAD PUSH1 0x2 SWAP1 SWAP2 ADD DUP1 SLOAD PUSH1 0xFF NOT AND SWAP2 ISZERO ISZERO SWAP2 SWAP1 SWAP2 OR SWAP1 SSTORE POP JUMP JUMPDEST PUSH1 0x0 JUMPDEST PUSH1 0x3 SLOAD DUP2 LT ISZERO PUSH2 0x7E0 JUMPI PUSH1 0x0 PUSH1 0x3 DUP3 DUP2 SLOAD DUP2 LT PUSH2 0x6A3 JUMPI PUSH2 0x6A3 PUSH2 0x214E JUMP JUMPDEST SWAP1 PUSH1 0x0 MSTORE PUSH1 0x20 PUSH1 0x0 KECCAK256 SWAP1 PUSH1 0x5 MUL ADD PUSH1 0x1 ADD DUP1 SLOAD PUSH2 0x6BF SWAP1 PUSH2 0x20E2 JUMP JUMPDEST DUP1 PUSH1 0x1F ADD PUSH1 0x20 DUP1 SWAP2 DIV MUL PUSH1 0x20 ADD PUSH1 0x40 MLOAD SWAP1 DUP2 ADD PUSH1 0x40 MSTORE DUP1 SWAP3 SWAP2 SWAP1 DUP2 DUP2 MSTORE PUSH1 0x20 ADD DUP3 DUP1 SLOAD PUSH2 0x6EB SWAP1 PUSH2 0x20E2 JUMP JUMPDEST DUP1 ISZERO PUSH2 0x738 JUMPI DUP1 PUSH1 0x1F LT PUSH2 0x70D JUMPI PUSH2 0x100 DUP1 DUP4 SLOAD DIV MUL DUP4 MSTORE SWAP2 PUSH1 0x20 ADD SWAP2 PUSH2 0x738 JUMP JUMPDEST DUP3 ADD SWAP2 SWAP1 PUSH1 0x0 MSTORE PUSH1 0x20 PUSH1 0x0 KECCAK256 SWAP1 JUMPDEST DUP2 SLOAD DUP2 MSTORE SWAP1 PUSH1 0x1 ADD SWAP1 PUSH1 0x20 ADD DUP1 DUP4 GT PUSH2 0x71B JUMPI DUP3 SWAP1 SUB PUSH1 0x1F AND DUP3 ADD SWAP2 JUMPDEST POP POP POP POP POP SWAP1 POP DUP4 PUSH1 0x40 MLOAD PUSH1 0x20 ADD PUSH2 0x750 SWAP2 SWAP1 PUSH2 0x1E75 JUMP JUMPDEST PUSH1 0x40 MLOAD PUSH1 0x20 DUP2 DUP4 SUB SUB DUP2 MSTORE SWAP1 PUSH1 0x40 MSTORE DUP1 MLOAD SWAP1 PUSH1 0x20 ADD KECCAK256 DUP2 PUSH1 0x40 MLOAD PUSH1 0x20 ADD PUSH2 0x777 SWAP2 SWAP1 PUSH2 0x1E75 JUMP JUMPDEST PUSH1 0x40 MLOAD PUSH1 0x20 DUP2 DUP4 SUB SUB DUP2 MSTORE SWAP1 PUSH1 0x40 MSTORE DUP1 MLOAD SWAP1 PUSH1 0x20 ADD KECCAK256 EQ ISZERO PUSH2 0x7CD JUMPI DUP3 PUSH1 0x3 DUP4 DUP2 SLOAD DUP2 LT PUSH2 0x7A7 JUMPI PUSH2 0x7A7 PUSH2 0x214E JUMP JUMPDEST SWAP1 PUSH1 0x0 MSTORE PUSH1 0x20 PUSH1 0x0 KECCAK256 SWAP1 PUSH1 0x5 MUL ADD PUSH1 0x4 ADD SWAP1 DUP1 MLOAD SWAP1 PUSH1 0x20 ADD SWAP1 PUSH2 0x7CB SWAP3 SWAP2 SWAP1 PUSH2 0x1A08 JUMP JUMPDEST POP JUMPDEST POP DUP1 PUSH2 0x7D8 DUP2 PUSH2 0x211D JUMP JUMPDEST SWAP2 POP POP PUSH2 0x684 JUMP JUMPDEST POP POP POP JUMP JUMPDEST PUSH1 0x1 DUP2 ISZERO ISZERO EQ ISZERO PUSH2 0x908 JUMPI PUSH1 0x0 PUSH1 0xB DUP4 DUP2 SLOAD DUP2 LT PUSH2 0x805 JUMPI PUSH2 0x805 PUSH2 0x214E JUMP JUMPDEST SWAP1 PUSH1 0x0 MSTORE PUSH1 0x20 PUSH1 0x0 KECCAK256 SWAP1 PUSH1 0x3 MUL ADD PUSH1 0x2 ADD PUSH1 0x0 PUSH2 0x100 EXP DUP2 SLOAD DUP2 PUSH1 0xFF MUL NOT AND SWAP1 DUP4 ISZERO ISZERO MUL OR SWAP1 SSTORE POP PUSH1 0x8 PUSH1 0xB DUP4 DUP2 SLOAD DUP2 LT PUSH2 0x842 JUMPI PUSH2 0x842 PUSH2 0x214E JUMP JUMPDEST SWAP1 PUSH1 0x0 MSTORE PUSH1 0x20 PUSH1 0x0 KECCAK256 SWAP1 PUSH1 0x3 MUL ADD PUSH1 0x1 ADD PUSH1 0x40 MLOAD PUSH2 0x860 SWAP2 SWAP1 PUSH2 0x1E91 JUMP JUMPDEST SWAP1 DUP2 MSTORE PUSH1 0x20 ADD PUSH1 0x40 MLOAD DUP1 SWAP2 SUB SWAP1 KECCAK256 PUSH1 0x2 ADD SLOAD PUSH1 0x4 PUSH1 0x0 PUSH1 0xB DUP6 DUP2 SLOAD DUP2 LT PUSH2 0x889 JUMPI PUSH2 0x889 PUSH2 0x214E JUMP JUMPDEST PUSH1 0x0 SWAP2 DUP3 MSTORE PUSH1 0x20 DUP1 DUP4 KECCAK256 PUSH1 0x3 SWAP1 SWAP3 MUL SWAP1 SWAP2 ADD SLOAD PUSH1 0x1 PUSH1 0x1 PUSH1 0xA0 SHL SUB AND DUP4 MSTORE DUP3 ADD SWAP3 SWAP1 SWAP3 MSTORE PUSH1 0x40 ADD SWAP1 KECCAK256 PUSH1 0x2 ADD SLOAD PUSH2 0x8C0 SWAP2 SWAP1 PUSH2 0x2065 JUMP JUMPDEST PUSH1 0x4 PUSH1 0x0 PUSH1 0xB DUP6 DUP2 SLOAD DUP2 LT PUSH2 0x8D7 JUMPI PUSH2 0x8D7 PUSH2 0x214E JUMP JUMPDEST PUSH1 0x0 SWAP2 DUP3 MSTORE PUSH1 0x20 DUP1 DUP4 KECCAK256 PUSH1 0x3 SWAP1 SWAP3 MUL SWAP1 SWAP2 ADD SLOAD PUSH1 0x1 PUSH1 0x1 PUSH1 0xA0 SHL SUB AND DUP4 MSTORE DUP3 ADD SWAP3 SWAP1 SWAP3 MSTORE PUSH1 0x40 ADD SWAP1 KECCAK256 PUSH1 0x2 ADD SSTORE POP POP JUMP JUMPDEST PUSH1 0x0 PUSH1 0xB DUP4 DUP2 SLOAD DUP2 LT PUSH2 0x4FF JUMPI PUSH2 0x4FF PUSH2 0x214E JUMP JUMPDEST PUSH1 0x40 DUP1 MLOAD PUSH1 0x60 DUP2 ADD DUP3 MSTORE CALLER DUP2 MSTORE PUSH1 0x20 DUP1 DUP3 ADD DUP5 DUP2 MSTORE PUSH1 0x1 SWAP4 DUP4 ADD DUP5 SWAP1 MSTORE PUSH1 0xC DUP1 SLOAD SWAP5 DUP6 ADD DUP2 SSTORE PUSH1 0x0 MSTORE DUP3 MLOAD PUSH32 0xDF6966C971051C3D54EC59162606531493A51404A002842F56009D7E5CF4A8C7 PUSH1 0x3 SWAP1 SWAP6 MUL SWAP5 DUP6 ADD DUP1 SLOAD PUSH1 0x1 PUSH1 0x1 PUSH1 0xA0 SHL SUB NOT AND PUSH1 0x1 PUSH1 0x1 PUSH1 0xA0 SHL SUB SWAP1 SWAP3 AND SWAP2 SWAP1 SWAP2 OR DUP2 SSTORE SWAP1 MLOAD DUP1 MLOAD SWAP4 SWAP5 SWAP2 SWAP4 PUSH2 0x662 SWAP4 PUSH32 0xDF6966C971051C3D54EC59162606531493A51404A002842F56009D7E5CF4A8C8 SWAP1 SWAP4 ADD SWAP3 SWAP2 SWAP1 SWAP2 ADD SWAP1 PUSH2 0x1984 JUMP JUMPDEST PUSH1 0x60 PUSH1 0x9 DUP1 SLOAD DUP1 PUSH1 0x20 MUL PUSH1 0x20 ADD PUSH1 0x40 MLOAD SWAP1 DUP2 ADD PUSH1 0x40 MSTORE DUP1 SWAP3 SWAP2 SWAP1 DUP2 DUP2 MSTORE PUSH1 0x20 ADD PUSH1 0x0 SWAP1 JUMPDEST DUP3 DUP3 LT ISZERO PUSH2 0xA99 JUMPI DUP4 DUP3 SWAP1 PUSH1 0x0 MSTORE PUSH1 0x20 PUSH1 0x0 KECCAK256 ADD DUP1 SLOAD PUSH2 0xA0C SWAP1 PUSH2 0x20E2 JUMP JUMPDEST DUP1 PUSH1 0x1F ADD PUSH1 0x20 DUP1 SWAP2 DIV MUL PUSH1 0x20 ADD PUSH1 0x40 MLOAD SWAP1 DUP2 ADD PUSH1 0x40 MSTORE DUP1 SWAP3 SWAP2 SWAP1 DUP2 DUP2 MSTORE PUSH1 0x20 ADD DUP3 DUP1 SLOAD PUSH2 0xA38 SWAP1 PUSH2 0x20E2 JUMP JUMPDEST DUP1 ISZERO PUSH2 0xA85 JUMPI DUP1 PUSH1 0x1F LT PUSH2 0xA5A JUMPI PUSH2 0x100 DUP1 DUP4 SLOAD DIV MUL DUP4 MSTORE SWAP2 PUSH1 0x20 ADD SWAP2 PUSH2 0xA85 JUMP JUMPDEST DUP3 ADD SWAP2 SWAP1 PUSH1 0x0 MSTORE PUSH1 0x20 PUSH1 0x0 KECCAK256 SWAP1 JUMPDEST DUP2 SLOAD DUP2 MSTORE SWAP1 PUSH1 0x1 ADD SWAP1 PUSH1 0x20 ADD DUP1 DUP4 GT PUSH2 0xA68 JUMPI DUP3 SWAP1 SUB PUSH1 0x1F AND DUP3 ADD SWAP2 JUMPDEST POP POP POP POP POP DUP2 MSTORE PUSH1 0x20 ADD SWAP1 PUSH1 0x1 ADD SWAP1 PUSH2 0x9ED JUMP JUMPDEST POP POP POP POP SWAP1 POP SWAP1 JUMP JUMPDEST PUSH1 0x0 PUSH1 0x5 DUP3 PUSH1 0x40 MLOAD PUSH2 0xAB4 SWAP2 SWAP1 PUSH2 0x1E75 JUMP JUMPDEST SWAP1 DUP2 MSTORE PUSH1 0x40 MLOAD SWAP1 DUP2 SWAP1 SUB PUSH1 0x20 ADD SWAP1 KECCAK256 SLOAD PUSH1 0x1 PUSH1 0x1 PUSH1 0xA0 SHL SUB AND SWAP3 SWAP2 POP POP JUMP JUMPDEST PUSH1 0x40 MLOAD DUP1 PUSH1 0x80 ADD PUSH1 0x40 MSTORE DUP1 CALLER PUSH1 0x1 PUSH1 0x1 PUSH1 0xA0 SHL SUB AND DUP2 MSTORE PUSH1 0x20 ADD DUP3 DUP2 MSTORE PUSH1 0x20 ADD DUP4 DUP2 MSTORE PUSH1 0x20 ADD PUSH1 0xD SLOAD DUP2 MSTORE POP PUSH1 0x8 DUP5 PUSH1 0x40 MLOAD PUSH2 0xB0F SWAP2 SWAP1 PUSH2 0x1E75 JUMP JUMPDEST SWAP1 DUP2 MSTORE PUSH1 0x40 MLOAD PUSH1 0x20 SWAP2 DUP2 SWAP1 SUB DUP3 ADD SWAP1 KECCAK256 DUP3 MLOAD DUP2 SLOAD PUSH1 0x1 PUSH1 0x1 PUSH1 0xA0 SHL SUB NOT AND PUSH1 0x1 PUSH1 0x1 PUSH1 0xA0 SHL SUB SWAP1 SWAP2 AND OR DUP2 SSTORE DUP3 DUP3 ADD MLOAD DUP1 MLOAD SWAP2 SWAP3 PUSH2 0xB55 SWAP3 PUSH1 0x1 DUP6 ADD SWAP3 SWAP1 SWAP2 ADD SWAP1 PUSH2 0x1984 JUMP JUMPDEST POP PUSH1 0x40 DUP3 ADD MLOAD PUSH1 0x2 DUP3 ADD SSTORE PUSH1 0x60 SWAP1 SWAP2 ADD MLOAD PUSH1 0x3 SWAP1 SWAP2 ADD SSTORE PUSH1 0x9 DUP1 SLOAD PUSH1 0x1 DUP2 ADD DUP3 SSTORE PUSH1 0x0 SWAP2 SWAP1 SWAP2 MSTORE DUP4 MLOAD PUSH2 0xBAF SWAP2 PUSH32 0x6E1540171B6C0C960B71A7020D9F60077F6AF931A8BBF590DA0223DACF75C7AF ADD SWAP1 PUSH1 0x20 DUP7 ADD SWAP1 PUSH2 0x1984 JUMP JUMPDEST POP PUSH1 0xD DUP1 SLOAD SWAP1 PUSH1 0x0 PUSH2 0xBC0 DUP4 PUSH2 0x211D JUMP JUMPDEST SWAP2 SWAP1 POP SSTORE POP POP POP POP JUMP JUMPDEST PUSH1 0xC DUP2 DUP2 SLOAD DUP2 LT PUSH2 0xBDA JUMPI PUSH1 0x0 DUP1 REVERT JUMPDEST PUSH1 0x0 SWAP2 DUP3 MSTORE PUSH1 0x20 SWAP1 SWAP2 KECCAK256 PUSH1 0x3 SWAP1 SWAP2 MUL ADD DUP1 SLOAD PUSH1 0x1 DUP3 ADD DUP1 SLOAD PUSH1 0x1 PUSH1 0x1 PUSH1 0xA0 SHL SUB SWAP1 SWAP3 AND SWAP4 POP SWAP1 PUSH2 0xC09 SWAP1 PUSH2 0x20E2 JUMP JUMPDEST DUP1 PUSH1 0x1F ADD PUSH1 0x20 DUP1 SWAP2 DIV MUL PUSH1 0x20 ADD PUSH1 0x40 MLOAD SWAP1 DUP2 ADD PUSH1 0x40 MSTORE DUP1 SWAP3 SWAP2 SWAP1 DUP2 DUP2 MSTORE PUSH1 0x20 ADD DUP3 DUP1 SLOAD PUSH2 0xC35 SWAP1 PUSH2 0x20E2 JUMP JUMPDEST DUP1 ISZERO PUSH2 0xC82 JUMPI DUP1 PUSH1 0x1F LT PUSH2 0xC57 JUMPI PUSH2 0x100 DUP1 DUP4 SLOAD DIV MUL DUP4 MSTORE SWAP2 PUSH1 0x20 ADD SWAP2 PUSH2 0xC82 JUMP JUMPDEST DUP3 ADD SWAP2 SWAP1 PUSH1 0x0 MSTORE PUSH1 0x20 PUSH1 0x0 KECCAK256 SWAP1 JUMPDEST DUP2 SLOAD DUP2 MSTORE SWAP1 PUSH1 0x1 ADD SWAP1 PUSH1 0x20 ADD DUP1 DUP4 GT PUSH2 0xC65 JUMPI DUP3 SWAP1 SUB PUSH1 0x1F AND DUP3 ADD SWAP2 JUMPDEST POP POP POP PUSH1 0x2 SWAP1 SWAP4 ADD SLOAD SWAP2 SWAP3 POP POP PUSH1 0xFF AND DUP4 JUMP JUMPDEST PUSH1 0x4 PUSH1 0x0 PUSH1 0x5 DUP5 PUSH1 0x40 MLOAD PUSH2 0xCA9 SWAP2 SWAP1 PUSH2 0x1E75 JUMP JUMPDEST SWAP1 DUP2 MSTORE PUSH1 0x40 DUP1 MLOAD PUSH1 0x20 SWAP3 DUP2 SWAP1 SUB DUP4 ADD SWAP1 KECCAK256 SLOAD PUSH1 0x1 PUSH1 0x1 PUSH1 0xA0 SHL SUB AND DUP4 MSTORE SWAP1 DUP3 ADD SWAP3 SWAP1 SWAP3 MSTORE ADD PUSH1 0x0 KECCAK256 PUSH1 0x3 ADD SLOAD PUSH2 0x100 SWAP1 DIV PUSH1 0xFF AND ISZERO PUSH2 0xD2A JUMPI PUSH1 0x40 MLOAD PUSH3 0x461BCD PUSH1 0xE5 SHL DUP2 MSTORE PUSH1 0x20 PUSH1 0x4 DUP3 ADD MSTORE PUSH1 0x1D PUSH1 0x24 DUP3 ADD MSTORE PUSH32 0x4572726F723A20596F752061726520616C7265616479206C6F67676564000000 PUSH1 0x44 DUP3 ADD MSTORE PUSH1 0x64 ADD PUSH2 0x5AD JUMP JUMPDEST PUSH1 0x0 PUSH1 0x1 PUSH1 0x1 PUSH1 0xA0 SHL SUB AND PUSH1 0x5 DUP4 PUSH1 0x40 MLOAD PUSH2 0xD45 SWAP2 SWAP1 PUSH2 0x1E75 JUMP JUMPDEST SWAP1 DUP2 MSTORE PUSH1 0x40 MLOAD SWAP1 DUP2 SWAP1 SUB PUSH1 0x20 ADD SWAP1 KECCAK256 SLOAD PUSH1 0x1 PUSH1 0x1 PUSH1 0xA0 SHL SUB AND EQ ISZERO PUSH2 0xDA8 JUMPI PUSH1 0x40 MLOAD PUSH3 0x461BCD PUSH1 0xE5 SHL DUP2 MSTORE PUSH1 0x20 PUSH1 0x4 DUP3 ADD MSTORE PUSH1 0x19 PUSH1 0x24 DUP3 ADD MSTORE PUSH25 0x115C9C9BDC8E88155CD95C88191BD95CDB89DD08195E1A5CDD PUSH1 0x3A SHL PUSH1 0x44 DUP3 ADD MSTORE PUSH1 0x64 ADD PUSH2 0x5AD JUMP JUMPDEST DUP1 PUSH1 0x4 PUSH1 0x0 PUSH1 0x5 DUP6 PUSH1 0x40 MLOAD PUSH2 0xDBD SWAP2 SWAP1 PUSH2 0x1E75 JUMP JUMPDEST SWAP1 DUP2 MSTORE PUSH1 0x40 DUP1 MLOAD PUSH1 0x20 SWAP3 DUP2 SWAP1 SUB DUP4 ADD SWAP1 KECCAK256 SLOAD PUSH1 0x1 PUSH1 0x1 PUSH1 0xA0 SHL SUB AND DUP4 MSTORE SWAP1 DUP3 ADD SWAP3 SWAP1 SWAP3 MSTORE ADD PUSH1 0x0 KECCAK256 PUSH1 0x1 ADD SLOAD EQ PUSH2 0xE30 JUMPI PUSH1 0x40 MLOAD PUSH3 0x461BCD PUSH1 0xE5 SHL DUP2 MSTORE PUSH1 0x20 PUSH1 0x4 DUP3 ADD MSTORE PUSH1 0x17 PUSH1 0x24 DUP3 ADD MSTORE PUSH23 0x115C9C9BDC8E88125B9D985B1A59081C185CDCDDDBDC99 PUSH1 0x4A SHL PUSH1 0x44 DUP3 ADD MSTORE PUSH1 0x64 ADD PUSH2 0x5AD JUMP JUMPDEST PUSH1 0x1 PUSH1 0x4 PUSH1 0x0 PUSH1 0x5 DUP6 PUSH1 0x40 MLOAD PUSH2 0xE46 SWAP2 SWAP1 PUSH2 0x1E75 JUMP JUMPDEST SWAP1 DUP2 MSTORE PUSH1 0x40 DUP1 MLOAD PUSH1 0x20 SWAP3 DUP2 SWAP1 SUB DUP4 ADD SWAP1 KECCAK256 SLOAD PUSH1 0x1 PUSH1 0x1 PUSH1 0xA0 SHL SUB AND DUP4 MSTORE SWAP1 DUP3 ADD SWAP3 SWAP1 SWAP3 MSTORE ADD PUSH1 0x0 KECCAK256 PUSH1 0x3 ADD DUP1 SLOAD PUSH2 0xFF00 NOT AND PUSH2 0x100 SWAP3 ISZERO ISZERO SWAP3 SWAP1 SWAP3 MUL SWAP2 SWAP1 SWAP2 OR SWAP1 SSTORE POP POP JUMP JUMPDEST PUSH1 0x4 PUSH1 0x20 MSTORE PUSH1 0x0 SWAP1 DUP2 MSTORE PUSH1 0x40 SWAP1 KECCAK256 DUP1 SLOAD DUP2 SWAP1 PUSH2 0xEA7 SWAP1 PUSH2 0x20E2 JUMP JUMPDEST DUP1 PUSH1 0x1F ADD PUSH1 0x20 DUP1 SWAP2 DIV MUL PUSH1 0x20 ADD PUSH1 0x40 MLOAD SWAP1 DUP2 ADD PUSH1 0x40 MSTORE DUP1 SWAP3 SWAP2 SWAP1 DUP2 DUP2 MSTORE PUSH1 0x20 ADD DUP3 DUP1 SLOAD PUSH2 0xED3 SWAP1 PUSH2 0x20E2 JUMP JUMPDEST DUP1 ISZERO PUSH2 0xF20 JUMPI DUP1 PUSH1 0x1F LT PUSH2 0xEF5 JUMPI PUSH2 0x100 DUP1 DUP4 SLOAD DIV MUL DUP4 MSTORE SWAP2 PUSH1 0x20 ADD SWAP2 PUSH2 0xF20 JUMP JUMPDEST DUP3 ADD SWAP2 SWAP1 PUSH1 0x0 MSTORE PUSH1 0x20 PUSH1 0x0 KECCAK256 SWAP1 JUMPDEST DUP2 SLOAD DUP2 MSTORE SWAP1 PUSH1 0x1 ADD SWAP1 PUSH1 0x20 ADD DUP1 DUP4 GT PUSH2 0xF03 JUMPI DUP3 SWAP1 SUB PUSH1 0x1F AND DUP3 ADD SWAP2 JUMPDEST POP POP POP POP PUSH1 0x1 DUP4 ADD SLOAD PUSH1 0x2 DUP5 ADD SLOAD PUSH1 0x3 SWAP1 SWAP5 ADD SLOAD SWAP3 SWAP4 SWAP1 SWAP3 SWAP1 SWAP2 POP PUSH1 0xFF DUP1 DUP3 AND SWAP2 PUSH2 0x100 SWAP1 DIV AND DUP6 JUMP JUMPDEST PUSH1 0x0 DUP1 DUP1 DUP1 JUMPDEST PUSH1 0x2 SLOAD DUP2 LT ISZERO PUSH2 0x1135 JUMPI PUSH1 0x0 PUSH1 0x2 DUP3 DUP2 SLOAD DUP2 LT PUSH2 0xF6F JUMPI PUSH2 0xF6F PUSH2 0x214E JUMP JUMPDEST SWAP1 PUSH1 0x0 MSTORE PUSH1 0x20 PUSH1 0x0 KECCAK256 ADD DUP1 SLOAD PUSH2 0xF84 SWAP1 PUSH2 0x20E2 JUMP JUMPDEST DUP1 PUSH1 0x1F ADD PUSH1 0x20 DUP1 SWAP2 DIV MUL PUSH1 0x20 ADD PUSH1 0x40 MLOAD SWAP1 DUP2 ADD PUSH1 0x40 MSTORE DUP1 SWAP3 SWAP2 SWAP1 DUP2 DUP2 MSTORE PUSH1 0x20 ADD DUP3 DUP1 SLOAD PUSH2 0xFB0 SWAP1 PUSH2 0x20E2 JUMP JUMPDEST DUP1 ISZERO PUSH2 0xFFD JUMPI DUP1 PUSH1 0x1F LT PUSH2 0xFD2 JUMPI PUSH2 0x100 DUP1 DUP4 SLOAD DIV MUL DUP4 MSTORE SWAP2 PUSH1 0x20 ADD SWAP2 PUSH2 0xFFD JUMP JUMPDEST DUP3 ADD SWAP2 SWAP1 PUSH1 0x0 MSTORE PUSH1 0x20 PUSH1 0x0 KECCAK256 SWAP1 JUMPDEST DUP2 SLOAD DUP2 MSTORE SWAP1 PUSH1 0x1 ADD SWAP1 PUSH1 0x20 ADD DUP1 DUP4 GT PUSH2 0xFE0 JUMPI DUP3 SWAP1 SUB PUSH1 0x1F AND DUP3 ADD SWAP2 JUMPDEST POP POP POP POP POP SWAP1 POP DUP6 PUSH1 0x40 MLOAD PUSH1 0x20 ADD PUSH2 0x1015 SWAP2 SWAP1 PUSH2 0x1E75 JUMP JUMPDEST PUSH1 0x40 MLOAD PUSH1 0x20 DUP2 DUP4 SUB SUB DUP2 MSTORE SWAP1 PUSH1 0x40 MSTORE DUP1 MLOAD SWAP1 PUSH1 0x20 ADD KECCAK256 DUP2 PUSH1 0x40 MLOAD PUSH1 0x20 ADD PUSH2 0x103C SWAP2 SWAP1 PUSH2 0x1E75 JUMP JUMPDEST PUSH1 0x40 MLOAD PUSH1 0x20 DUP2 DUP4 SUB SUB DUP2 MSTORE SWAP1 PUSH1 0x40 MSTORE DUP1 MLOAD SWAP1 PUSH1 0x20 ADD KECCAK256 EQ ISZERO PUSH2 0x1122 JUMPI PUSH1 0x0 SWAP2 POP JUMPDEST PUSH1 0x3 SLOAD DUP3 GT PUSH2 0x1122 JUMPI PUSH1 0x3 DUP3 DUP2 SLOAD DUP2 LT PUSH2 0x1079 JUMPI PUSH2 0x1079 PUSH2 0x214E JUMP JUMPDEST SWAP1 PUSH1 0x0 MSTORE PUSH1 0x20 PUSH1 0x0 KECCAK256 SWAP1 PUSH1 0x5 MUL ADD PUSH1 0x0 ADD PUSH1 0x40 MLOAD PUSH1 0x20 ADD PUSH2 0x109A SWAP2 SWAP1 PUSH2 0x1E91 JUMP JUMPDEST PUSH1 0x40 MLOAD PUSH1 0x20 DUP2 DUP4 SUB SUB DUP2 MSTORE SWAP1 PUSH1 0x40 MSTORE DUP1 MLOAD SWAP1 PUSH1 0x20 ADD KECCAK256 DUP7 PUSH1 0x40 MLOAD PUSH1 0x20 ADD PUSH2 0x10C1 SWAP2 SWAP1 PUSH2 0x1E75 JUMP JUMPDEST PUSH1 0x40 MLOAD PUSH1 0x20 DUP2 DUP4 SUB SUB DUP2 MSTORE SWAP1 PUSH1 0x40 MSTORE DUP1 MLOAD SWAP1 PUSH1 0x20 ADD KECCAK256 EQ ISZERO PUSH2 0x1110 JUMPI PUSH1 0x3 DUP3 DUP2 SLOAD DUP2 LT PUSH2 0x10F0 JUMPI PUSH2 0x10F0 PUSH2 0x214E JUMP JUMPDEST SWAP1 PUSH1 0x0 MSTORE PUSH1 0x20 PUSH1 0x0 KECCAK256 SWAP1 PUSH1 0x5 MUL ADD PUSH1 0x3 ADD SLOAD DUP4 PUSH2 0x110D SWAP2 SWAP1 PUSH2 0x2065 JUMP JUMPDEST SWAP3 POP JUMPDEST DUP2 PUSH2 0x111A DUP2 PUSH2 0x211D JUMP JUMPDEST SWAP3 POP POP PUSH2 0x105D JUMP JUMPDEST POP DUP1 PUSH2 0x112D DUP2 PUSH2 0x211D JUMP JUMPDEST SWAP2 POP POP PUSH2 0xF50 JUMP JUMPDEST POP PUSH2 0x1140 DUP3 DUP3 PUSH2 0x207D JUMP JUMPDEST PUSH2 0x114A SWAP1 DUP3 PUSH2 0x2065 JUMP JUMPDEST SWAP5 SWAP4 POP POP POP POP JUMP JUMPDEST PUSH1 0xB DUP2 DUP2 SLOAD DUP2 LT PUSH2 0xBDA JUMPI PUSH1 0x0 DUP1 REVERT JUMPDEST PUSH1 0x40 DUP1 MLOAD PUSH1 0x60 DUP2 ADD DUP3 MSTORE CALLER DUP2 MSTORE PUSH1 0x20 DUP1 DUP3 ADD DUP5 DUP2 MSTORE PUSH1 0x1 SWAP4 DUP4 ADD DUP5 SWAP1 MSTORE PUSH1 0xB DUP1 SLOAD SWAP5 DUP6 ADD DUP2 SSTORE PUSH1 0x0 MSTORE DUP3 MLOAD PUSH32 0x175B7A638427703F0DBE7BB9BBF987A2551717B34E79F33B5B1008D1FA01DB9 PUSH1 0x3 SWAP1 SWAP6 MUL SWAP5 DUP6 ADD DUP1 SLOAD PUSH1 0x1 PUSH1 0x1 PUSH1 0xA0 SHL SUB NOT AND PUSH1 0x1 PUSH1 0x1 PUSH1 0xA0 SHL SUB SWAP1 SWAP3 AND SWAP2 SWAP1 SWAP2 OR DUP2 SSTORE SWAP1 MLOAD DUP1 MLOAD SWAP4 SWAP5 SWAP2 SWAP4 PUSH2 0x662 SWAP4 PUSH32 0x175B7A638427703F0DBE7BB9BBF987A2551717B34E79F33B5B1008D1FA01DBA SWAP1 SWAP4 ADD SWAP3 SWAP2 SWAP1 SWAP2 ADD SWAP1 PUSH2 0x1984 JUMP JUMPDEST PUSH1 0x60 PUSH1 0x2 DUP1 SLOAD DUP1 PUSH1 0x20 MUL PUSH1 0x20 ADD PUSH1 0x40 MLOAD SWAP1 DUP2 ADD PUSH1 0x40 MSTORE DUP1 SWAP3 SWAP2 SWAP1 DUP2 DUP2 MSTORE PUSH1 0x20 ADD PUSH1 0x0 SWAP1 JUMPDEST DUP3 DUP3 LT ISZERO PUSH2 0xA99 JUMPI DUP4 DUP3 SWAP1 PUSH1 0x0 MSTORE PUSH1 0x20 PUSH1 0x0 KECCAK256 ADD DUP1 SLOAD PUSH2 0x1251 SWAP1 PUSH2 0x20E2 JUMP JUMPDEST DUP1 PUSH1 0x1F ADD PUSH1 0x20 DUP1 SWAP2 DIV MUL PUSH1 0x20 ADD PUSH1 0x40 MLOAD SWAP1 DUP2 ADD PUSH1 0x40 MSTORE DUP1 SWAP3 SWAP2 SWAP1 DUP2 DUP2 MSTORE PUSH1 0x20 ADD DUP3 DUP1 SLOAD PUSH2 0x127D SWAP1 PUSH2 0x20E2 JUMP JUMPDEST DUP1 ISZERO PUSH2 0x12CA JUMPI DUP1 PUSH1 0x1F LT PUSH2 0x129F JUMPI PUSH2 0x100 DUP1 DUP4 SLOAD DIV MUL DUP4 MSTORE SWAP2 PUSH1 0x20 ADD SWAP2 PUSH2 0x12CA JUMP JUMPDEST DUP3 ADD SWAP2 SWAP1 PUSH1 0x0 MSTORE PUSH1 0x20 PUSH1 0x0 KECCAK256 SWAP1 JUMPDEST DUP2 SLOAD DUP2 MSTORE SWAP1 PUSH1 0x1 ADD SWAP1 PUSH1 0x20 ADD DUP1 DUP4 GT PUSH2 0x12AD JUMPI DUP3 SWAP1 SUB PUSH1 0x1F AND DUP3 ADD SWAP2 JUMPDEST POP POP POP POP POP DUP2 MSTORE PUSH1 0x20 ADD SWAP1 PUSH1 0x1 ADD SWAP1 PUSH2 0x1232 JUMP JUMPDEST PUSH1 0xA DUP2 GT ISZERO PUSH2 0x1339 JUMPI PUSH1 0x40 MLOAD PUSH3 0x461BCD PUSH1 0xE5 SHL DUP2 MSTORE PUSH1 0x20 PUSH1 0x4 DUP3 ADD MSTORE PUSH1 0x21 PUSH1 0x24 DUP3 ADD MSTORE PUSH32 0x6572726F723A20726174696E672063616E2062652066726F6D203120746F2031 PUSH1 0x44 DUP3 ADD MSTORE PUSH1 0x3 PUSH1 0xFC SHL PUSH1 0x64 DUP3 ADD MSTORE PUSH1 0x84 ADD PUSH2 0x5AD JUMP JUMPDEST PUSH1 0x0 JUMPDEST PUSH1 0x2 SLOAD DUP2 GT PUSH2 0x15AC JUMPI PUSH1 0x0 PUSH1 0x2 DUP3 DUP2 SLOAD DUP2 LT PUSH2 0x135A JUMPI PUSH2 0x135A PUSH2 0x214E JUMP JUMPDEST SWAP1 PUSH1 0x0 MSTORE PUSH1 0x20 PUSH1 0x0 KECCAK256 ADD DUP1 SLOAD PUSH2 0x136F SWAP1 PUSH2 0x20E2 JUMP JUMPDEST DUP1 PUSH1 0x1F ADD PUSH1 0x20 DUP1 SWAP2 DIV MUL PUSH1 0x20 ADD PUSH1 0x40 MLOAD SWAP1 DUP2 ADD PUSH1 0x40 MSTORE DUP1 SWAP3 SWAP2 SWAP1 DUP2 DUP2 MSTORE PUSH1 0x20 ADD DUP3 DUP1 SLOAD PUSH2 0x139B SWAP1 PUSH2 0x20E2 JUMP JUMPDEST DUP1 ISZERO PUSH2 0x13E8 JUMPI DUP1 PUSH1 0x1F LT PUSH2 0x13BD JUMPI PUSH2 0x100 DUP1 DUP4 SLOAD DIV MUL DUP4 MSTORE SWAP2 PUSH1 0x20 ADD SWAP2 PUSH2 0x13E8 JUMP JUMPDEST DUP3 ADD SWAP2 SWAP1 PUSH1 0x0 MSTORE PUSH1 0x20 PUSH1 0x0 KECCAK256 SWAP1 JUMPDEST DUP2 SLOAD DUP2 MSTORE SWAP1 PUSH1 0x1 ADD SWAP1 PUSH1 0x20 ADD DUP1 DUP4 GT PUSH2 0x13CB JUMPI DUP3 SWAP1 SUB PUSH1 0x1F AND DUP3 ADD SWAP2 JUMPDEST POP POP POP POP POP SWAP1 POP DUP5 PUSH1 0x40 MLOAD PUSH1 0x20 ADD PUSH2 0x1400 SWAP2 SWAP1 PUSH2 0x1E75 JUMP JUMPDEST PUSH1 0x40 MLOAD PUSH1 0x20 DUP2 DUP4 SUB SUB DUP2 MSTORE SWAP1 PUSH1 0x40 MSTORE DUP1 MLOAD SWAP1 PUSH1 0x20 ADD KECCAK256 DUP2 PUSH1 0x40 MLOAD PUSH1 0x20 ADD PUSH2 0x1427 SWAP2 SWAP1 PUSH2 0x1E75 JUMP JUMPDEST PUSH1 0x40 MLOAD PUSH1 0x20 DUP2 DUP4 SUB SUB DUP2 MSTORE SWAP1 PUSH1 0x40 MSTORE DUP1 MLOAD SWAP1 PUSH1 0x20 ADD KECCAK256 EQ ISZERO PUSH2 0x1599 JUMPI PUSH1 0x40 DUP1 MLOAD PUSH1 0xA0 DUP2 ADD DUP3 MSTORE DUP7 DUP2 MSTORE CALLER PUSH1 0x0 SWAP1 DUP2 MSTORE PUSH1 0x4 PUSH1 0x20 SWAP1 DUP2 MSTORE SWAP3 SWAP1 KECCAK256 DUP1 SLOAD PUSH1 0x60 SWAP4 PUSH1 0x3 SWAP4 SWAP3 SWAP1 DUP4 ADD SWAP2 PUSH2 0x1476 SWAP1 PUSH2 0x20E2 JUMP JUMPDEST DUP1 PUSH1 0x1F ADD PUSH1 0x20 DUP1 SWAP2 DIV MUL PUSH1 0x20 ADD PUSH1 0x40 MLOAD SWAP1 DUP2 ADD PUSH1 0x40 MSTORE DUP1 SWAP3 SWAP2 SWAP1 DUP2 DUP2 MSTORE PUSH1 0x20 ADD DUP3 DUP1 SLOAD PUSH2 0x14A2 SWAP1 PUSH2 0x20E2 JUMP JUMPDEST DUP1 ISZERO PUSH2 0x14EF JUMPI DUP1 PUSH1 0x1F LT PUSH2 0x14C4 JUMPI PUSH2 0x100 DUP1 DUP4 SLOAD DIV MUL DUP4 MSTORE SWAP2 PUSH1 0x20 ADD SWAP2 PUSH2 0x14EF JUMP JUMPDEST DUP3 ADD SWAP2 SWAP1 PUSH1 0x0 MSTORE PUSH1 0x20 PUSH1 0x0 KECCAK256 SWAP1 JUMPDEST DUP2 SLOAD DUP2 MSTORE SWAP1 PUSH1 0x1 ADD SWAP1 PUSH1 0x20 ADD DUP1 DUP4 GT PUSH2 0x14D2 JUMPI DUP3 SWAP1 SUB PUSH1 0x1F AND DUP3 ADD SWAP2 JUMPDEST POP POP POP SWAP2 DUP4 MSTORE POP POP PUSH1 0x20 DUP1 DUP3 ADD DUP10 SWAP1 MSTORE PUSH1 0x40 DUP3 ADD DUP9 SWAP1 MSTORE PUSH1 0x60 SWAP1 SWAP2 ADD DUP5 SWAP1 MSTORE DUP3 SLOAD PUSH1 0x1 DUP2 ADD DUP5 SSTORE PUSH1 0x0 SWAP4 DUP5 MSTORE SWAP3 DUP2 SWAP1 KECCAK256 DUP3 MLOAD DUP1 MLOAD SWAP4 SWAP5 PUSH1 0x5 MUL SWAP1 SWAP2 ADD SWAP3 PUSH2 0x1539 SWAP3 DUP5 SWAP3 ADD SWAP1 PUSH2 0x1984 JUMP JUMPDEST POP PUSH1 0x20 DUP3 DUP2 ADD MLOAD DUP1 MLOAD PUSH2 0x1552 SWAP3 PUSH1 0x1 DUP6 ADD SWAP3 ADD SWAP1 PUSH2 0x1984 JUMP JUMPDEST POP PUSH1 0x40 DUP3 ADD MLOAD DUP1 MLOAD PUSH2 0x156E SWAP2 PUSH1 0x2 DUP5 ADD SWAP2 PUSH1 0x20 SWAP1 SWAP2 ADD SWAP1 PUSH2 0x1984 JUMP JUMPDEST POP PUSH1 0x60 DUP3 ADD MLOAD PUSH1 0x3 DUP3 ADD SSTORE PUSH1 0x80 DUP3 ADD MLOAD DUP1 MLOAD PUSH2 0x1594 SWAP2 PUSH1 0x4 DUP5 ADD SWAP2 PUSH1 0x20 SWAP1 SWAP2 ADD SWAP1 PUSH2 0x1A08 JUMP JUMPDEST POP POP POP POP JUMPDEST POP DUP1 PUSH2 0x15A4 DUP2 PUSH2 0x211D JUMP JUMPDEST SWAP2 POP POP PUSH2 0x133C JUMP JUMPDEST POP POP POP POP JUMP JUMPDEST DUP1 MLOAD PUSH1 0x20 DUP2 DUP4 ADD DUP2 ADD DUP1 MLOAD PUSH1 0x8 DUP3 MSTORE SWAP3 DUP3 ADD SWAP2 SWAP1 SWAP4 ADD KECCAK256 SWAP2 MSTORE DUP1 SLOAD PUSH1 0x1 DUP3 ADD DUP1 SLOAD PUSH1 0x1 PUSH1 0x1 PUSH1 0xA0 SHL SUB SWAP1 SWAP3 AND SWAP3 SWAP2 PUSH2 0x15E9 SWAP1 PUSH2 0x20E2 JUMP JUMPDEST DUP1 PUSH1 0x1F ADD PUSH1 0x20 DUP1 SWAP2 DIV MUL PUSH1 0x20 ADD PUSH1 0x40 MLOAD SWAP1 DUP2 ADD PUSH1 0x40 MSTORE DUP1 SWAP3 SWAP2 SWAP1 DUP2 DUP2 MSTORE PUSH1 0x20 ADD DUP3 DUP1 SLOAD PUSH2 0x1615 SWAP1 PUSH2 0x20E2 JUMP JUMPDEST DUP1 ISZERO PUSH2 0x1662 JUMPI DUP1 PUSH1 0x1F LT PUSH2 0x1637 JUMPI PUSH2 0x100 DUP1 DUP4 SLOAD DIV MUL DUP4 MSTORE SWAP2 PUSH1 0x20 ADD SWAP2 PUSH2 0x1662 JUMP JUMPDEST DUP3 ADD SWAP2 SWAP1 PUSH1 0x0 MSTORE PUSH1 0x20 PUSH1 0x0 KECCAK256 SWAP1 JUMPDEST DUP2 SLOAD DUP2 MSTORE SWAP1 PUSH1 0x1 ADD SWAP1 PUSH1 0x20 ADD DUP1 DUP4 GT PUSH2 0x1645 JUMPI DUP3 SWAP1 SUB PUSH1 0x1F AND DUP3 ADD SWAP2 JUMPDEST POP POP POP POP POP SWAP1 DUP1 PUSH1 0x2 ADD SLOAD SWAP1 DUP1 PUSH1 0x3 ADD SLOAD SWAP1 POP DUP5 JUMP JUMPDEST PUSH1 0xA DUP2 DUP2 SLOAD DUP2 LT PUSH2 0xBDA JUMPI PUSH1 0x0 DUP1 REVERT JUMPDEST PUSH20 0x9C35A9BDF790A5CE09B353B1C765269AB466BAAD CALLER EQ PUSH2 0x16EB JUMPI PUSH1 0x40 MLOAD PUSH3 0x461BCD PUSH1 0xE5 SHL DUP2 MSTORE PUSH1 0x20 PUSH1 0x4 DUP3 ADD MSTORE PUSH1 0x1D PUSH1 0x24 DUP3 ADD MSTORE PUSH32 0x4572726F723A20596F75206E6F742061207A65726F206163636F756E74000000 PUSH1 0x44 DUP3 ADD MSTORE PUSH1 0x64 ADD PUSH2 0x5AD JUMP JUMPDEST PUSH1 0x0 PUSH1 0x1 PUSH1 0x1 PUSH1 0xA0 SHL SUB AND PUSH1 0x5 DUP4 PUSH1 0x40 MLOAD PUSH2 0x1706 SWAP2 SWAP1 PUSH2 0x1E75 JUMP JUMPDEST SWAP1 DUP2 MSTORE PUSH1 0x40 MLOAD SWAP1 DUP2 SWAP1 SUB PUSH1 0x20 ADD SWAP1 KECCAK256 SLOAD PUSH1 0x1 PUSH1 0x1 PUSH1 0xA0 SHL SUB AND EQ PUSH2 0x1768 JUMPI PUSH1 0x40 MLOAD PUSH3 0x461BCD PUSH1 0xE5 SHL DUP2 MSTORE PUSH1 0x20 PUSH1 0x4 DUP3 ADD MSTORE PUSH1 0x19 PUSH1 0x24 DUP3 ADD MSTORE PUSH25 0x115C9C9BDC8E88155CD95C88185B1C9958591E48195E1A5CDD PUSH1 0x3A SHL PUSH1 0x44 DUP3 ADD MSTORE PUSH1 0x64 ADD PUSH2 0x5AD JUMP JUMPDEST PUSH1 0x40 DUP1 MLOAD PUSH1 0xA0 DUP2 ADD DUP3 MSTORE DUP4 DUP2 MSTORE PUSH1 0x20 DUP1 DUP3 ADD DUP5 SWAP1 MSTORE PUSH2 0x3E8 DUP3 DUP5 ADD MSTORE PUSH1 0x1 PUSH1 0x60 DUP4 ADD DUP2 SWAP1 MSTORE PUSH1 0x80 DUP4 ADD MSTORE PUSH1 0x1 PUSH1 0x1 PUSH1 0xA0 SHL SUB DUP7 AND PUSH1 0x0 SWAP1 DUP2 MSTORE PUSH1 0x4 DUP3 MSTORE SWAP3 SWAP1 SWAP3 KECCAK256 DUP2 MLOAD DUP1 MLOAD SWAP3 SWAP4 SWAP2 SWAP3 PUSH2 0x17BE SWAP3 DUP5 SWAP3 ADD SWAP1 PUSH2 0x1984 JUMP JUMPDEST POP PUSH1 0x20 DUP3 ADD MLOAD PUSH1 0x1 DUP3 ADD SSTORE PUSH1 0x40 DUP1 DUP4 ADD MLOAD PUSH1 0x2 DUP4 ADD SSTORE PUSH1 0x60 DUP4 ADD MLOAD PUSH1 0x3 SWAP1 SWAP3 ADD DUP1 SLOAD PUSH1 0x80 SWAP1 SWAP5 ADD MLOAD ISZERO ISZERO PUSH2 0x100 MUL PUSH2 0xFF00 NOT SWAP4 ISZERO ISZERO SWAP4 SWAP1 SWAP4 AND PUSH2 0xFFFF NOT SWAP1 SWAP5 AND SWAP4 SWAP1 SWAP4 OR SWAP2 SWAP1 SWAP2 OR SWAP1 SWAP2 SSTORE MLOAD DUP4 SWAP1 PUSH1 0x5 SWAP1 PUSH2 0x181A SWAP1 DUP6 SWAP1 PUSH2 0x1E75 JUMP JUMPDEST SWAP1 DUP2 MSTORE PUSH1 0x40 MLOAD SWAP1 DUP2 SWAP1 SUB PUSH1 0x20 ADD SWAP1 KECCAK256 DUP1 SLOAD PUSH1 0x1 PUSH1 0x1 PUSH1 0xA0 SHL SUB SWAP3 DUP4 AND PUSH1 0x1 PUSH1 0x1 PUSH1 0xA0 SHL SUB NOT SWAP2 DUP3 AND OR SWAP1 SWAP2 SSTORE PUSH1 0x7 DUP1 SLOAD PUSH1 0x1 DUP2 ADD DUP3 SSTORE PUSH1 0x0 SWAP2 SWAP1 SWAP2 MSTORE PUSH32 0xA66CC928B5EDB82AF9BD49922954155AB7B0942694BEA4CE44661D9A8736C688 ADD DUP1 SLOAD SWAP6 SWAP1 SWAP3 AND SWAP5 AND SWAP4 SWAP1 SWAP4 OR SWAP1 SWAP3 SSTORE POP POP JUMP JUMPDEST PUSH1 0x1 DUP2 ISZERO ISZERO EQ ISZERO PUSH2 0x908 JUMPI PUSH1 0x8 PUSH1 0xC DUP4 DUP2 SLOAD DUP2 LT PUSH2 0x18AB JUMPI PUSH2 0x18AB PUSH2 0x214E JUMP JUMPDEST SWAP1 PUSH1 0x0 MSTORE PUSH1 0x20 PUSH1 0x0 KECCAK256 SWAP1 PUSH1 0x3 MUL ADD PUSH1 0x1 ADD PUSH1 0x40 MLOAD PUSH2 0x18C9 SWAP2 SWAP1 PUSH2 0x1E91 JUMP JUMPDEST SWAP1 DUP2 MSTORE PUSH1 0x20 ADD PUSH1 0x40 MLOAD DUP1 SWAP2 SUB SWAP1 KECCAK256 PUSH1 0x2 ADD SLOAD PUSH1 0x4 PUSH1 0x0 PUSH1 0xC DUP6 DUP2 SLOAD DUP2 LT PUSH2 0x18F2 JUMPI PUSH2 0x18F2 PUSH2 0x214E JUMP JUMPDEST PUSH1 0x0 SWAP2 DUP3 MSTORE PUSH1 0x20 DUP1 DUP4 KECCAK256 PUSH1 0x3 SWAP1 SWAP3 MUL SWAP1 SWAP2 ADD SLOAD PUSH1 0x1 PUSH1 0x1 PUSH1 0xA0 SHL SUB AND DUP4 MSTORE DUP3 ADD SWAP3 SWAP1 SWAP3 MSTORE PUSH1 0x40 ADD SWAP1 KECCAK256 PUSH1 0x2 ADD SLOAD PUSH2 0x1929 SWAP2 SWAP1 PUSH2 0x2065 JUMP JUMPDEST PUSH1 0x4 PUSH1 0x0 PUSH1 0xC DUP6 DUP2 SLOAD DUP2 LT PUSH2 0x1940 JUMPI PUSH2 0x1940 PUSH2 0x214E JUMP JUMPDEST PUSH1 0x0 SWAP2 DUP3 MSTORE PUSH1 0x20 DUP1 DUP4 KECCAK256 PUSH1 0x3 SWAP1 SWAP3 MUL SWAP1 SWAP2 ADD SLOAD PUSH1 0x1 PUSH1 0x1 PUSH1 0xA0 SHL SUB AND DUP4 MSTORE DUP3 ADD SWAP3 SWAP1 SWAP3 MSTORE PUSH1 0x40 ADD DUP2 KECCAK256 PUSH1 0x2 ADD SWAP2 SWAP1 SWAP2 SSTORE PUSH1 0xB DUP1 SLOAD DUP5 SWAP1 DUP2 LT PUSH2 0x4FF JUMPI PUSH2 0x4FF PUSH2 0x214E JUMP JUMPDEST DUP3 DUP1 SLOAD PUSH2 0x1990 SWAP1 PUSH2 0x20E2 JUMP JUMPDEST SWAP1 PUSH1 0x0 MSTORE PUSH1 0x20 PUSH1 0x0 KECCAK256 SWAP1 PUSH1 0x1F ADD PUSH1 0x20 SWAP1 DIV DUP2 ADD SWAP3 DUP3 PUSH2 0x19B2 JUMPI PUSH1 0x0 DUP6 SSTORE PUSH2 0x19F8 JUMP JUMPDEST DUP3 PUSH1 0x1F LT PUSH2 0x19CB JUMPI DUP1 MLOAD PUSH1 0xFF NOT AND DUP4 DUP1 ADD OR DUP6 SSTORE PUSH2 0x19F8 JUMP JUMPDEST DUP3 DUP1 ADD PUSH1 0x1 ADD DUP6 SSTORE DUP3 ISZERO PUSH2 0x19F8 JUMPI SWAP2 DUP3 ADD JUMPDEST DUP3 DUP2 GT ISZERO PUSH2 0x19F8 JUMPI DUP3 MLOAD DUP3 SSTORE SWAP2 PUSH1 0x20 ADD SWAP2 SWAP1 PUSH1 0x1 ADD SWAP1 PUSH2 0x19DD JUMP JUMPDEST POP PUSH2 0x1A04 SWAP3 SWAP2 POP PUSH2 0x1A61 JUMP JUMPDEST POP SWAP1 JUMP JUMPDEST DUP3 DUP1 SLOAD DUP3 DUP3 SSTORE SWAP1 PUSH1 0x0 MSTORE PUSH1 0x20 PUSH1 0x0 KECCAK256 SWAP1 DUP2 ADD SWAP3 DUP3 ISZERO PUSH2 0x1A55 JUMPI SWAP2 PUSH1 0x20 MUL DUP3 ADD JUMPDEST DUP3 DUP2 GT ISZERO PUSH2 0x1A55 JUMPI DUP3 MLOAD DUP1 MLOAD PUSH2 0x1A45 SWAP2 DUP5 SWAP2 PUSH1 0x20 SWAP1 SWAP2 ADD SWAP1 PUSH2 0x1984 JUMP JUMPDEST POP SWAP2 PUSH1 0x20 ADD SWAP2 SWAP1 PUSH1 0x1 ADD SWAP1 PUSH2 0x1A28 JUMP JUMPDEST POP PUSH2 0x1A04 SWAP3 SWAP2 POP PUSH2 0x1A76 JUMP JUMPDEST JUMPDEST DUP1 DUP3 GT ISZERO PUSH2 0x1A04 JUMPI PUSH1 0x0 DUP2 SSTORE PUSH1 0x1 ADD PUSH2 0x1A62 JUMP JUMPDEST DUP1 DUP3 GT ISZERO PUSH2 0x1A04 JUMPI PUSH1 0x0 PUSH2 0x1A8A DUP3 DUP3 PUSH2 0x1A93 JUMP JUMPDEST POP PUSH1 0x1 ADD PUSH2 0x1A76 JUMP JUMPDEST POP DUP1 SLOAD PUSH2 0x1A9F SWAP1 PUSH2 0x20E2 JUMP JUMPDEST PUSH1 0x0 DUP3 SSTORE DUP1 PUSH1 0x1F LT PUSH2 0x1AAF JUMPI POP POP JUMP JUMPDEST PUSH1 0x1F ADD PUSH1 0x20 SWAP1 DIV SWAP1 PUSH1 0x0 MSTORE PUSH1 0x20 PUSH1 0x0 KECCAK256 SWAP1 DUP2 ADD SWAP1 PUSH2 0x1ACD SWAP2 SWAP1 PUSH2 0x1A61 JUMP JUMPDEST POP JUMP JUMPDEST DUP1 CALLDATALOAD PUSH1 0x1 PUSH1 0x1 PUSH1 0xA0 SHL SUB DUP2 AND DUP2 EQ PUSH2 0x1AE7 JUMPI PUSH1 0x0 DUP1 REVERT JUMPDEST SWAP2 SWAP1 POP JUMP JUMPDEST PUSH1 0x0 DUP3 PUSH1 0x1F DUP4 ADD SLT PUSH2 0x1AFD JUMPI PUSH1 0x0 DUP1 REVERT JUMPDEST DUP2 CALLDATALOAD PUSH1 0x1 PUSH1 0x1 PUSH1 0x40 SHL SUB DUP2 GT ISZERO PUSH2 0x1B16 JUMPI PUSH2 0x1B16 PUSH2 0x2164 JUMP JUMPDEST PUSH2 0x1B29 PUSH1 0x1F DUP3 ADD PUSH1 0x1F NOT AND PUSH1 0x20 ADD PUSH2 0x2035 JUMP JUMPDEST DUP2 DUP2 MSTORE DUP5 PUSH1 0x20 DUP4 DUP7 ADD ADD GT ISZERO PUSH2 0x1B3E JUMPI PUSH1 0x0 DUP1 REVERT JUMPDEST DUP2 PUSH1 0x20 DUP6 ADD PUSH1 0x20 DUP4 ADD CALLDATACOPY PUSH1 0x0 SWAP2 DUP2 ADD PUSH1 0x20 ADD SWAP2 SWAP1 SWAP2 MSTORE SWAP4 SWAP3 POP POP POP JUMP JUMPDEST PUSH1 0x0 PUSH1 0x20 DUP3 DUP5 SUB SLT ISZERO PUSH2 0x1B6D JUMPI PUSH1 0x0 DUP1 REVERT JUMPDEST PUSH2 0x1B76 DUP3 PUSH2 0x1AD0 JUMP JUMPDEST SWAP4 SWAP3 POP POP POP JUMP JUMPDEST PUSH1 0x0 DUP1 PUSH1 0x0 PUSH1 0x60 DUP5 DUP7 SUB SLT ISZERO PUSH2 0x1B92 JUMPI PUSH1 0x0 DUP1 REVERT JUMPDEST PUSH2 0x1B9B DUP5 PUSH2 0x1AD0 JUMP JUMPDEST SWAP3 POP PUSH1 0x20 DUP5 ADD CALLDATALOAD PUSH1 0x1 PUSH1 0x1 PUSH1 0x40 SHL SUB DUP2 GT ISZERO PUSH2 0x1BB6 JUMPI PUSH1 0x0 DUP1 REVERT JUMPDEST PUSH2 0x1BC2 DUP7 DUP3 DUP8 ADD PUSH2 0x1AEC JUMP JUMPDEST SWAP3 POP POP PUSH1 0x40 DUP5 ADD CALLDATALOAD SWAP1 POP SWAP3 POP SWAP3 POP SWAP3 JUMP JUMPDEST PUSH1 0x0 PUSH1 0x20 DUP3 DUP5 SUB SLT ISZERO PUSH2 0x1BE5 JUMPI PUSH1 0x0 DUP1 REVERT JUMPDEST DUP2 CALLDATALOAD PUSH1 0x1 PUSH1 0x1 PUSH1 0x40 SHL SUB DUP2 GT ISZERO PUSH2 0x1BFB JUMPI PUSH1 0x0 DUP1 REVERT JUMPDEST PUSH2 0x114A DUP5 DUP3 DUP6 ADD PUSH2 0x1AEC JUMP JUMPDEST PUSH1 0x0 DUP1 PUSH1 0x40 DUP4 DUP6 SUB SLT ISZERO PUSH2 0x1C1A JUMPI PUSH1 0x0 DUP1 REVERT JUMPDEST DUP3 CALLDATALOAD PUSH1 0x1 PUSH1 0x1 PUSH1 0x40 SHL SUB DUP1 DUP3 GT ISZERO PUSH2 0x1C31 JUMPI PUSH1 0x0 DUP1 REVERT JUMPDEST PUSH2 0x1C3D DUP7 DUP4 DUP8 ADD PUSH2 0x1AEC JUMP JUMPDEST SWAP4 POP PUSH1 0x20 SWAP2 POP DUP2 DUP6 ADD CALLDATALOAD DUP2 DUP2 GT ISZERO PUSH2 0x1C54 JUMPI PUSH1 0x0 DUP1 REVERT JUMPDEST DUP6 ADD PUSH1 0x1F DUP2 ADD DUP8 SGT PUSH2 0x1C65 JUMPI PUSH1 0x0 DUP1 REVERT JUMPDEST DUP1 CALLDATALOAD DUP3 DUP2 GT ISZERO PUSH2 0x1C77 JUMPI PUSH2 0x1C77 PUSH2 0x2164 JUMP JUMPDEST DUP1 PUSH1 0x5 SHL PUSH2 0x1C86 DUP6 DUP3 ADD PUSH2 0x2035 JUMP JUMPDEST DUP3 DUP2 MSTORE DUP6 DUP2 ADD SWAP1 DUP5 DUP8 ADD DUP4 DUP7 ADD DUP9 ADD DUP13 LT ISZERO PUSH2 0x1CA1 JUMPI PUSH1 0x0 DUP1 REVERT JUMPDEST PUSH1 0x0 SWAP4 POP DUP4 JUMPDEST DUP6 DUP2 LT ISZERO PUSH2 0x1CDE JUMPI DUP2 CALLDATALOAD DUP9 DUP2 GT ISZERO PUSH2 0x1CBD JUMPI DUP6 DUP7 REVERT JUMPDEST PUSH2 0x1CCB DUP15 DUP12 DUP4 DUP12 ADD ADD PUSH2 0x1AEC JUMP JUMPDEST DUP6 MSTORE POP SWAP3 DUP9 ADD SWAP3 SWAP1 DUP9 ADD SWAP1 PUSH1 0x1 ADD PUSH2 0x1CA7 JUMP JUMPDEST POP SWAP9 SWAP12 SWAP1 SWAP11 POP SWAP9 POP POP POP POP POP POP POP POP POP JUMP JUMPDEST PUSH1 0x0 DUP1 PUSH1 0x0 PUSH1 0x60 DUP5 DUP7 SUB SLT ISZERO PUSH2 0x1D05 JUMPI PUSH1 0x0 DUP1 REVERT JUMPDEST DUP4 CALLDATALOAD PUSH1 0x1 PUSH1 0x1 PUSH1 0x40 SHL SUB DUP1 DUP3 GT ISZERO PUSH2 0x1D1C JUMPI PUSH1 0x0 DUP1 REVERT JUMPDEST PUSH2 0x1D28 DUP8 DUP4 DUP9 ADD PUSH2 0x1AEC JUMP JUMPDEST SWAP5 POP PUSH1 0x20 DUP7 ADD CALLDATALOAD SWAP2 POP DUP1 DUP3 GT ISZERO PUSH2 0x1D3E JUMPI PUSH1 0x0 DUP1 REVERT JUMPDEST POP PUSH2 0x1BC2 DUP7 DUP3 DUP8 ADD PUSH2 0x1AEC JUMP JUMPDEST PUSH1 0x0 DUP1 PUSH1 0x40 DUP4 DUP6 SUB SLT ISZERO PUSH2 0x1D5E JUMPI PUSH1 0x0 DUP1 REVERT JUMPDEST DUP3 CALLDATALOAD PUSH1 0x1 PUSH1 0x1 PUSH1 0x40 SHL SUB DUP2 GT ISZERO PUSH2 0x1D74 JUMPI PUSH1 0x0 DUP1 REVERT JUMPDEST PUSH2 0x1D80 DUP6 DUP3 DUP7 ADD PUSH2 0x1AEC JUMP JUMPDEST SWAP6 PUSH1 0x20 SWAP5 SWAP1 SWAP5 ADD CALLDATALOAD SWAP5 POP POP POP POP JUMP JUMPDEST PUSH1 0x0 DUP1 PUSH1 0x0 PUSH1 0x60 DUP5 DUP7 SUB SLT ISZERO PUSH2 0x1DA4 JUMPI PUSH1 0x0 DUP1 REVERT JUMPDEST DUP4 CALLDATALOAD PUSH1 0x1 PUSH1 0x1 PUSH1 0x40 SHL SUB DUP1 DUP3 GT ISZERO PUSH2 0x1DBB JUMPI PUSH1 0x0 DUP1 REVERT JUMPDEST PUSH2 0x1DC7 DUP8 DUP4 DUP9 ADD PUSH2 0x1AEC JUMP JUMPDEST SWAP5 POP PUSH1 0x20 DUP7 ADD CALLDATALOAD SWAP4 POP PUSH1 0x40 DUP7 ADD CALLDATALOAD SWAP2 POP DUP1 DUP3 GT ISZERO PUSH2 0x1DE4 JUMPI PUSH1 0x0 DUP1 REVERT JUMPDEST POP PUSH2 0x1DF1 DUP7 DUP3 DUP8 ADD PUSH2 0x1AEC JUMP JUMPDEST SWAP2 POP POP SWAP3 POP SWAP3 POP SWAP3 JUMP JUMPDEST PUSH1 0x0 PUSH1 0x20 DUP3 DUP5 SUB SLT ISZERO PUSH2 0x1E0D JUMPI PUSH1 0x0 DUP1 REVERT JUMPDEST POP CALLDATALOAD SWAP2 SWAP1 POP JUMP JUMPDEST PUSH1 0x0 DUP1 PUSH1 0x40 DUP4 DUP6 SUB SLT ISZERO PUSH2 0x1E27 JUMPI PUSH1 0x0 DUP1 REVERT JUMPDEST DUP3 CALLDATALOAD SWAP2 POP PUSH1 0x20 DUP4 ADD CALLDATALOAD DUP1 ISZERO ISZERO DUP2 EQ PUSH2 0x1E3E JUMPI PUSH1 0x0 DUP1 REVERT JUMPDEST DUP1 SWAP2 POP POP SWAP3 POP SWAP3 SWAP1 POP JUMP JUMPDEST PUSH1 0x0 DUP2 MLOAD DUP1 DUP5 MSTORE PUSH2 0x1E61 DUP2 PUSH1 0x20 DUP7 ADD PUSH1 0x20 DUP7 ADD PUSH2 0x20B6 JUMP JUMPDEST PUSH1 0x1F ADD PUSH1 0x1F NOT AND SWAP3 SWAP1 SWAP3 ADD PUSH1 0x20 ADD SWAP3 SWAP2 POP POP JUMP JUMPDEST PUSH1 0x0 DUP3 MLOAD PUSH2 0x1E87 DUP2 DUP5 PUSH1 0x20 DUP8 ADD PUSH2 0x20B6 JUMP JUMPDEST SWAP2 SWAP1 SWAP2 ADD SWAP3 SWAP2 POP POP JUMP JUMPDEST PUSH1 0x0 DUP1 DUP4 SLOAD DUP2 PUSH1 0x1 DUP3 DUP2 SHR SWAP2 POP DUP1 DUP4 AND DUP1 PUSH2 0x1EAD JUMPI PUSH1 0x7F DUP4 AND SWAP3 POP JUMPDEST PUSH1 0x20 DUP1 DUP5 LT DUP3 EQ ISZERO PUSH2 0x1ECD JUMPI PUSH4 0x4E487B71 PUSH1 0xE0 SHL DUP7 MSTORE PUSH1 0x22 PUSH1 0x4 MSTORE PUSH1 0x24 DUP7 REVERT JUMPDEST DUP2 DUP1 ISZERO PUSH2 0x1EE1 JUMPI PUSH1 0x1 DUP2 EQ PUSH2 0x1EF2 JUMPI PUSH2 0x1F1F JUMP JUMPDEST PUSH1 0xFF NOT DUP7 AND DUP10 MSTORE DUP5 DUP10 ADD SWAP7 POP PUSH2 0x1F1F JUMP JUMPDEST PUSH1 0x0 DUP11 DUP2 MSTORE PUSH1 0x20 SWAP1 KECCAK256 PUSH1 0x0 JUMPDEST DUP7 DUP2 LT ISZERO PUSH2 0x1F17 JUMPI DUP2 SLOAD DUP12 DUP3 ADD MSTORE SWAP1 DUP6 ADD SWAP1 DUP4 ADD PUSH2 0x1EFE JUMP JUMPDEST POP POP DUP5 DUP10 ADD SWAP7 POP JUMPDEST POP SWAP5 SWAP9 SWAP8 POP POP POP POP POP POP POP POP JUMP JUMPDEST PUSH1 0x1 PUSH1 0x1 PUSH1 0xA0 SHL SUB DUP5 AND DUP2 MSTORE PUSH1 0x60 PUSH1 0x20 DUP3 ADD DUP2 SWAP1 MSTORE PUSH1 0x0 SWAP1 PUSH2 0x1F51 SWAP1 DUP4 ADD DUP6 PUSH2 0x1E49 JUMP JUMPDEST SWAP1 POP DUP3 ISZERO ISZERO PUSH1 0x40 DUP4 ADD MSTORE SWAP5 SWAP4 POP POP POP POP JUMP JUMPDEST PUSH1 0x1 PUSH1 0x1 PUSH1 0xA0 SHL SUB DUP6 AND DUP2 MSTORE PUSH1 0x80 PUSH1 0x20 DUP3 ADD DUP2 SWAP1 MSTORE PUSH1 0x0 SWAP1 PUSH2 0x1F87 SWAP1 DUP4 ADD DUP7 PUSH2 0x1E49 JUMP JUMPDEST PUSH1 0x40 DUP4 ADD SWAP5 SWAP1 SWAP5 MSTORE POP PUSH1 0x60 ADD MSTORE SWAP3 SWAP2 POP POP JUMP JUMPDEST PUSH1 0x0 PUSH1 0x20 DUP1 DUP4 ADD DUP2 DUP5 MSTORE DUP1 DUP6 MLOAD DUP1 DUP4 MSTORE PUSH1 0x40 DUP7 ADD SWAP2 POP PUSH1 0x40 DUP2 PUSH1 0x5 SHL DUP8 ADD ADD SWAP3 POP DUP4 DUP8 ADD PUSH1 0x0 JUMPDEST DUP3 DUP2 LT ISZERO PUSH2 0x1FEF JUMPI PUSH1 0x3F NOT DUP9 DUP7 SUB ADD DUP5 MSTORE PUSH2 0x1FDD DUP6 DUP4 MLOAD PUSH2 0x1E49 JUMP JUMPDEST SWAP5 POP SWAP3 DUP6 ADD SWAP3 SWAP1 DUP6 ADD SWAP1 PUSH1 0x1 ADD PUSH2 0x1FC1 JUMP JUMPDEST POP SWAP3 SWAP8 SWAP7 POP POP POP POP POP POP POP JUMP JUMPDEST PUSH1 0xA0 DUP2 MSTORE PUSH1 0x0 PUSH2 0x200F PUSH1 0xA0 DUP4 ADD DUP9 PUSH2 0x1E49 JUMP JUMPDEST PUSH1 0x20 DUP4 ADD SWAP7 SWAP1 SWAP7 MSTORE POP PUSH1 0x40 DUP2 ADD SWAP4 SWAP1 SWAP4 MSTORE SWAP1 ISZERO ISZERO PUSH1 0x60 DUP4 ADD MSTORE ISZERO ISZERO PUSH1 0x80 SWAP1 SWAP2 ADD MSTORE SWAP2 SWAP1 POP JUMP JUMPDEST PUSH1 0x40 MLOAD PUSH1 0x1F DUP3 ADD PUSH1 0x1F NOT AND DUP2 ADD PUSH1 0x1 PUSH1 0x1 PUSH1 0x40 SHL SUB DUP2 GT DUP3 DUP3 LT OR ISZERO PUSH2 0x205D JUMPI PUSH2 0x205D PUSH2 0x2164 JUMP JUMPDEST PUSH1 0x40 MSTORE SWAP2 SWAP1 POP JUMP JUMPDEST PUSH1 0x0 DUP3 NOT DUP3 GT ISZERO PUSH2 0x2078 JUMPI PUSH2 0x2078 PUSH2 0x2138 JUMP JUMPDEST POP ADD SWAP1 JUMP JUMPDEST PUSH1 0x0 DUP3 PUSH2 0x209A JUMPI PUSH4 0x4E487B71 PUSH1 0xE0 SHL PUSH1 0x0 MSTORE PUSH1 0x12 PUSH1 0x4 MSTORE PUSH1 0x24 PUSH1 0x0 REVERT JUMPDEST POP DIV SWAP1 JUMP JUMPDEST PUSH1 0x0 DUP3 DUP3 LT ISZERO PUSH2 0x20B1 JUMPI PUSH2 0x20B1 PUSH2 0x2138 JUMP JUMPDEST POP SUB SWAP1 JUMP JUMPDEST PUSH1 0x0 JUMPDEST DUP4 DUP2 LT ISZERO PUSH2 0x20D1 JUMPI DUP2 DUP2 ADD MLOAD DUP4 DUP3 ADD MSTORE PUSH1 0x20 ADD PUSH2 0x20B9 JUMP JUMPDEST DUP4 DUP2 GT ISZERO PUSH2 0x15AC JUMPI POP POP PUSH1 0x0 SWAP2 ADD MSTORE JUMP JUMPDEST PUSH1 0x1 DUP2 DUP2 SHR SWAP1 DUP3 AND DUP1 PUSH2 0x20F6 JUMPI PUSH1 0x7F DUP3 AND SWAP2 POP JUMPDEST PUSH1 0x20 DUP3 LT DUP2 EQ ISZERO PUSH2 0x2117 JUMPI PUSH4 0x4E487B71 PUSH1 0xE0 SHL PUSH1 0x0 MSTORE PUSH1 0x22 PUSH1 0x4 MSTORE PUSH1 0x24 PUSH1 0x0 REVERT JUMPDEST POP SWAP2 SWAP1 POP JUMP JUMPDEST PUSH1 0x0 PUSH1 0x0 NOT DUP3 EQ ISZERO PUSH2 0x2131 JUMPI PUSH2 0x2131 PUSH2 0x2138 JUMP JUMPDEST POP PUSH1 0x1 ADD SWAP1 JUMP JUMPDEST PUSH4 0x4E487B71 PUSH1 0xE0 SHL PUSH1 0x0 MSTORE PUSH1 0x11 PUSH1 0x4 MSTORE PUSH1 0x24 PUSH1 0x0 REVERT JUMPDEST PUSH4 0x4E487B71 PUSH1 0xE0 SHL PUSH1 0x0 MSTORE PUSH1 0x32 PUSH1 0x4 MSTORE PUSH1 0x24 PUSH1 0x0 REVERT JUMPDEST PUSH4 0x4E487B71 PUSH1 0xE0 SHL PUSH1 0x0 MSTORE PUSH1 0x41 PUSH1 0x4 MSTORE PUSH1 0x24 PUSH1 0x0 REVERT INVALID LOG2 PUSH5 0x6970667358 0x22 SLT KECCAK256 0xE5 0xE SWAP4 0xE 0xD3 0xD7 0xAB TIMESTAMP DUP4 SIGNEXTEND PUSH20 0xFC2E969E7CDC5CE0551D11D7E842123D92BA81A3 PUSH28 0x64736F6C63430008070033405787FA12A823E0F2B7631CC41B3BA882 DUP12 CALLER 0x21 0xCA DUP2 GT GT STATICCALL PUSH22 0xCD3AA3BB5ACEA4629BF9DAA4D0816E85B79D58DAAABC 0xAC PUSH28 0x71B32D11BDFD27785BB59CD6CAC6CB970EBB9EDB880AC802B1A3C9EE INVALID DIFFICULTY CODECOPY PUSH10 0x5BF104B16C8261476629 MSTORE8 0x25 DUP3 STATICCALL "
				},
				"gasEstimates": {
					"creation": {
						"codeDepositCost": "1724800",
						"executionCost": "infinite",
						"totalCost": "infinite"
					},
					"external": {
						"MarriageRegistration(uint256,bool)": "infinite",
						"acceptPurchase(uint256,bool)": "infinite",
						"acceptReturn(uint256,bool)": "infinite",
						"addProductShop(string,uint256,string)": "infinite",
						"create_user(address,string,uint256)": "infinite",
						"getProductList()": "infinite",
						"getShopList()": "infinite",
						"getStoryRating(string)": "infinite",
						"get_address(string)": "infinite",
						"leaveComment(string,string[])": "infinite",
						"leaveFeedback(string,string,uint256)": "infinite",
						"login_user(string,uint256)": "infinite",
						"productMarriageRegistration(string)": "infinite",
						"productPurchases(string)": "infinite",
						"productReturn(string)": "infinite",
						"shopLists(string)": "infinite",
						"structMarriageRegistrations(uint256)": "infinite",
						"structProducts(string)": "infinite",
						"structStatusPurchases(uint256)": "infinite",
						"structStatusReturns(uint256)": "infinite",
						"structUserLogins(string)": "infinite",
						"structUsers(address)": "infinite"
					}
				},
				"methodIdentifiers": {
					"MarriageRegistration(uint256,bool)": "f69483c1",
					"acceptPurchase(uint256,bool)": "0c72b1ec",
					"acceptReturn(uint256,bool)": "2ccdef7c",
					"addProductShop(string,uint256,string)": "6c05dd1d",
					"create_user(address,string,uint256)": "e38d9087",
					"getProductList()": "34d2c0ad",
					"getShopList()": "c178b9af",
					"getStoryRating(string)": "a985036d",
					"get_address(string)": "6ba44d3c",
					"leaveComment(string,string[])": "29e795f3",
					"leaveFeedback(string,string,uint256)": "cc21c188",
					"login_user(string,uint256)": "94b790ff",
					"productMarriageRegistration(string)": "2d4673e3",
					"productPurchases(string)": "146dc6ed",
					"productReturn(string)": "bbd43363",
					"shopLists(string)": "c4957fa0",
					"structMarriageRegistrations(uint256)": "7ddb273d",
					"structProducts(string)": "d68cf8c1",
					"structStatusPurchases(uint256)": "dce39151",
					"structStatusReturns(uint256)": "a9f9482b",
					"structUserLogins(string)": "1bbe970a",
					"structUsers(address)": "961865f0"
				}
			},
			"userdoc": {
				"kind": "user",
				"methods": {},
				"version": 1
			}
		}
	}
}