{
	"Documents/GitHub/Store-system-with-feedback/main.sol": {
		"coursepaper": {
			"abi": [
				{
					"inputs": [],
					"stateMutability": "nonpayable",
					"type": "constructor"
				},
				{
					"inputs": [
						{
							"internalType": "uint256",
							"name": "idMarriageRegistration",
							"type": "uint256"
						},
						{
							"internalType": "bool",
							"name": "confirmation",
							"type": "bool"
						}
					],
					"name": "MarriageRegistration",
					"outputs": [],
					"stateMutability": "nonpayable",
					"type": "function"
				},
				{
					"inputs": [
						{
							"internalType": "uint256",
							"name": "idPurchase",
							"type": "uint256"
						},
						{
							"internalType": "bool",
							"name": "confirmation",
							"type": "bool"
						}
					],
					"name": "acceptPurchase",
					"outputs": [],
					"stateMutability": "nonpayable",
					"type": "function"
				},
				{
					"inputs": [
						{
							"internalType": "uint256",
							"name": "idReturn",
							"type": "uint256"
						},
						{
							"internalType": "bool",
							"name": "confirmation",
							"type": "bool"
						}
					],
					"name": "acceptReturn",
					"outputs": [],
					"stateMutability": "nonpayable",
					"type": "function"
				},
				{
					"inputs": [
						{
							"internalType": "string",
							"name": "title",
							"type": "string"
						},
						{
							"internalType": "uint256",
							"name": "price",
							"type": "uint256"
						},
						{
							"internalType": "string",
							"name": "description",
							"type": "string"
						}
					],
					"name": "addProductShop",
					"outputs": [],
					"stateMutability": "nonpayable",
					"type": "function"
				},
				{
					"inputs": [
						{
							"internalType": "uint256",
							"name": "",
							"type": "uint256"
						}
					],
					"name": "complaintBooks",
					"outputs": [
						{
							"internalType": "string",
							"name": "shop",
							"type": "string"
						},
						{
							"internalType": "string",
							"name": "userName",
							"type": "string"
						},
						{
							"internalType": "string",
							"name": "feedback",
							"type": "string"
						},
						{
							"internalType": "uint256",
							"name": "rating",
							"type": "uint256"
						}
					],
					"stateMutability": "view",
					"type": "function"
				},
				{
					"inputs": [],
					"name": "getProductList",
					"outputs": [
						{
							"internalType": "string[]",
							"name": "",
							"type": "string[]"
						}
					],
					"stateMutability": "view",
					"type": "function"
				},
				{
					"inputs": [],
					"name": "getShopList",
					"outputs": [
						{
							"internalType": "string[]",
							"name": "",
							"type": "string[]"
						}
					],
					"stateMutability": "view",
					"type": "function"
				},
				{
					"inputs": [
						{
							"internalType": "string",
							"name": "shop",
							"type": "string"
						},
						{
							"internalType": "string",
							"name": "feedback",
							"type": "string"
						},
						{
							"internalType": "uint256",
							"name": "rating",
							"type": "uint256"
						}
					],
					"name": "leaveFeedback",
					"outputs": [],
					"stateMutability": "payable",
					"type": "function"
				},
				{
					"inputs": [
						{
							"internalType": "string",
							"name": "titleProduct",
							"type": "string"
						}
					],
					"name": "productMarriageRegistration",
					"outputs": [],
					"stateMutability": "nonpayable",
					"type": "function"
				},
				{
					"inputs": [
						{
							"internalType": "string",
							"name": "titleProduct",
							"type": "string"
						}
					],
					"name": "productPurchases",
					"outputs": [],
					"stateMutability": "nonpayable",
					"type": "function"
				},
				{
					"inputs": [
						{
							"internalType": "string",
							"name": "titleProduct",
							"type": "string"
						}
					],
					"name": "productReturn",
					"outputs": [],
					"stateMutability": "nonpayable",
					"type": "function"
				},
				{
					"inputs": [
						{
							"internalType": "string",
							"name": "",
							"type": "string"
						}
					],
					"name": "shopLists",
					"outputs": [
						{
							"internalType": "address",
							"name": "",
							"type": "address"
						}
					],
					"stateMutability": "view",
					"type": "function"
				},
				{
					"inputs": [
						{
							"internalType": "uint256",
							"name": "",
							"type": "uint256"
						}
					],
					"name": "structMarriageRegistrations",
					"outputs": [
						{
							"internalType": "address",
							"name": "userLogin",
							"type": "address"
						},
						{
							"internalType": "string",
							"name": "titleProduct",
							"type": "string"
						},
						{
							"internalType": "bool",
							"name": "status",
							"type": "bool"
						}
					],
					"stateMutability": "view",
					"type": "function"
				},
				{
					"inputs": [
						{
							"internalType": "string",
							"name": "",
							"type": "string"
						}
					],
					"name": "structProducts",
					"outputs": [
						{
							"internalType": "address",
							"name": "shop",
							"type": "address"
						},
						{
							"internalType": "string",
							"name": "description",
							"type": "string"
						},
						{
							"internalType": "uint256",
							"name": "price",
							"type": "uint256"
						},
						{
							"internalType": "uint256",
							"name": "id",
							"type": "uint256"
						}
					],
					"stateMutability": "view",
					"type": "function"
				},
				{
					"inputs": [
						{
							"internalType": "uint256",
							"name": "",
							"type": "uint256"
						}
					],
					"name": "structStatusPurchases",
					"outputs": [
						{
							"internalType": "address",
							"name": "userLogin",
							"type": "address"
						},
						{
							"internalType": "string",
							"name": "titleProduct",
							"type": "string"
						},
						{
							"internalType": "bool",
							"name": "status",
							"type": "bool"
						}
					],
					"stateMutability": "view",
					"type": "function"
				},
				{
					"inputs": [
						{
							"internalType": "uint256",
							"name": "",
							"type": "uint256"
						}
					],
					"name": "structStatusReturns",
					"outputs": [
						{
							"internalType": "address",
							"name": "userLogin",
							"type": "address"
						},
						{
							"internalType": "string",
							"name": "titleProduct",
							"type": "string"
						},
						{
							"internalType": "bool",
							"name": "status",
							"type": "bool"
						}
					],
					"stateMutability": "view",
					"type": "function"
				},
				{
					"inputs": [
						{
							"internalType": "string",
							"name": "",
							"type": "string"
						}
					],
					"name": "structUserLogins",
					"outputs": [
						{
							"internalType": "address",
							"name": "",
							"type": "address"
						}
					],
					"stateMutability": "view",
					"type": "function"
				},
				{
					"inputs": [
						{
							"internalType": "address",
							"name": "",
							"type": "address"
						}
					],
					"name": "structUsers",
					"outputs": [
						{
							"internalType": "string",
							"name": "userName",
							"type": "string"
						},
						{
							"internalType": "uint256",
							"name": "password",
							"type": "uint256"
						},
						{
							"internalType": "uint256",
							"name": "ballance",
							"type": "uint256"
						}
					],
					"stateMutability": "view",
					"type": "function"
				}
			],
			"devdoc": {
				"kind": "dev",
				"methods": {},
				"version": 1
			},
			"evm": {
				"assembly": "    /* \"Documents/GitHub/Store-system-with-feedback/main.sol\":74:6824  contract coursepaper {\r... */\n  mstore(0x40, 0x80)\n    /* \"Documents/GitHub/Store-system-with-feedback/main.sol\":2953:2954  0 */\n  0x00\n    /* \"Documents/GitHub/Store-system-with-feedback/main.sol\":2918:2954  uint256 addProductShop_idProduct = 0 */\n  0x0c\n  sstore\n    /* \"Documents/GitHub/Store-system-with-feedback/main.sol\":3313:3314  0 */\n  0x00\n    /* \"Documents/GitHub/Store-system-with-feedback/main.sol\":3287:3314  uint countLeaveFeedback = 0 */\n  0x0d\n  sstore\n    /* \"Documents/GitHub/Store-system-with-feedback/main.sol\":129:981  constructor() public {\r... */\n  callvalue\n  dup1\n  iszero\n  tag_1\n  jumpi\n  0x00\n  dup1\n  revert\ntag_1:\n  pop\n    /* \"Documents/GitHub/Store-system-with-feedback/main.sol\":232:274  structShop(\"Food\", \"1\", \"Moscow\", 1000, 0) */\n  mload(0x40)\n  dup1\n  0xa0\n  add\n  0x40\n  mstore\n  dup1\n  mload(0x40)\n  dup1\n  0x40\n  add\n  0x40\n  mstore\n  dup1\n  0x04\n  dup2\n  mstore\n  0x20\n  add\n  0x466f6f6400000000000000000000000000000000000000000000000000000000\n  dup2\n  mstore\n  pop\n  dup2\n  mstore\n  0x20\n  add\n  mload(0x40)\n  dup1\n  0x40\n  add\n  0x40\n  mstore\n  dup1\n  0x01\n  dup2\n  mstore\n  0x20\n  add\n  0x3100000000000000000000000000000000000000000000000000000000000000\n  dup2\n  mstore\n  pop\n  dup2\n  mstore\n  0x20\n  add\n  mload(0x40)\n  dup1\n  0x40\n  add\n  0x40\n  mstore\n  dup1\n  0x06\n  dup2\n  mstore\n  0x20\n  add\n  0x4d6f73636f770000000000000000000000000000000000000000000000000000\n  dup2\n  mstore\n  pop\n  dup2\n  mstore\n  0x20\n  add\n    /* \"Documents/GitHub/Store-system-with-feedback/main.sol\":266:270  1000 */\n  0x03e8\n    /* \"Documents/GitHub/Store-system-with-feedback/main.sol\":232:274  structShop(\"Food\", \"1\", \"Moscow\", 1000, 0) */\n  dup2\n  mstore\n  0x20\n  add\n    /* \"Documents/GitHub/Store-system-with-feedback/main.sol\":272:273  0 */\n  0x00\n    /* \"Documents/GitHub/Store-system-with-feedback/main.sol\":232:274  structShop(\"Food\", \"1\", \"Moscow\", 1000, 0) */\n  dup2\n  mstore\n  pop\n    /* \"Documents/GitHub/Store-system-with-feedback/main.sol\":180:185  shops */\n  0x00\n    /* \"Documents/GitHub/Store-system-with-feedback/main.sol\":180:229  shops[0x5B38Da6a701c568545dCfcB03FcB875f56beddC4] */\n  dup1\n    /* \"Documents/GitHub/Store-system-with-feedback/main.sol\":186:228  0x5B38Da6a701c568545dCfcB03FcB875f56beddC4 */\n  0x5b38da6a701c568545dcfcb03fcb875f56beddc4\n    /* \"Documents/GitHub/Store-system-with-feedback/main.sol\":180:229  shops[0x5B38Da6a701c568545dCfcB03FcB875f56beddC4] */\n  0xffffffffffffffffffffffffffffffffffffffff\n  and\n  0xffffffffffffffffffffffffffffffffffffffff\n  and\n  dup2\n  mstore\n  0x20\n  add\n  swap1\n  dup2\n  mstore\n  0x20\n  add\n  0x00\n  keccak256\n    /* \"Documents/GitHub/Store-system-with-feedback/main.sol\":180:274  shops[0x5B38Da6a701c568545dCfcB03FcB875f56beddC4] = structShop(\"Food\", \"1\", \"Moscow\", 1000, 0) */\n  0x00\n  dup3\n  add\n  mload\n  dup2\n  0x00\n  add\n  swap1\n  dup1\n  mload\n  swap1\n  0x20\n  add\n  swap1\n  tag_4\n  swap3\n  swap2\n  swap1\n  tag_5\n  jump\t// in\ntag_4:\n  pop\n  0x20\n  dup3\n  add\n  mload\n  dup2\n  0x01\n  add\n  swap1\n  dup1\n  mload\n  swap1\n  0x20\n  add\n  swap1\n  tag_6\n  swap3\n  swap2\n  swap1\n  tag_5\n  jump\t// in\ntag_6:\n  pop\n  0x40\n  dup3\n  add\n  mload\n  dup2\n  0x02\n  add\n  swap1\n  dup1\n  mload\n  swap1\n  0x20\n  add\n  swap1\n  tag_7\n  swap3\n  swap2\n  swap1\n  tag_5\n  jump\t// in\ntag_7:\n  pop\n  0x60\n  dup3\n  add\n  mload\n  dup2\n  0x03\n  add\n  sstore\n  0x80\n  dup3\n  add\n  mload\n  dup2\n  0x04\n  add\n  sstore\n  swap1\n  pop\n  pop\n    /* \"Documents/GitHub/Store-system-with-feedback/main.sol\":285:293  shopList */\n  0x02\n    /* \"Documents/GitHub/Store-system-with-feedback/main.sol\":299:304  shops */\n  0x00\n    /* \"Documents/GitHub/Store-system-with-feedback/main.sol\":299:348  shops[0x5B38Da6a701c568545dCfcB03FcB875f56beddC4] */\n  dup1\n    /* \"Documents/GitHub/Store-system-with-feedback/main.sol\":305:347  0x5B38Da6a701c568545dCfcB03FcB875f56beddC4 */\n  0x5b38da6a701c568545dcfcb03fcb875f56beddc4\n    /* \"Documents/GitHub/Store-system-with-feedback/main.sol\":299:348  shops[0x5B38Da6a701c568545dCfcB03FcB875f56beddC4] */\n  0xffffffffffffffffffffffffffffffffffffffff\n  and\n  0xffffffffffffffffffffffffffffffffffffffff\n  and\n  dup2\n  mstore\n  0x20\n  add\n  swap1\n  dup2\n  mstore\n  0x20\n  add\n  0x00\n  keccak256\n    /* \"Documents/GitHub/Store-system-with-feedback/main.sol\":299:353  shops[0x5B38Da6a701c568545dCfcB03FcB875f56beddC4].name */\n  0x00\n  add\n    /* \"Documents/GitHub/Store-system-with-feedback/main.sol\":285:354  shopList.push(shops[0x5B38Da6a701c568545dCfcB03FcB875f56beddC4].name) */\n  swap1\n  dup1\n  0x01\n  dup2\n  sload\n  add\n  dup1\n  dup3\n  sstore\n  dup1\n  swap2\n  pop\n  pop\n  0x01\n  swap1\n  sub\n  swap1\n  0x00\n  mstore\n  keccak256(0x00, 0x20)\n  add\n  0x00\n  swap1\n  swap2\n  swap1\n  swap2\n  swap1\n  swap2\n  pop\n  swap1\n  dup1\n  sload\n  tag_9\n  swap1\n  tag_10\n  jump\t// in\ntag_9:\n  tag_11\n  swap3\n  swap2\n  swap1\n  tag_12\n  jump\t// in\ntag_11:\n  pop\n    /* \"Documents/GitHub/Store-system-with-feedback/main.sol\":417:466  structShop(\"Clothes\", \"2\", \"Petersburg\", 1000, 0) */\n  mload(0x40)\n  dup1\n  0xa0\n  add\n  0x40\n  mstore\n  dup1\n  mload(0x40)\n  dup1\n  0x40\n  add\n  0x40\n  mstore\n  dup1\n  0x07\n  dup2\n  mstore\n  0x20\n  add\n  0x436c6f7468657300000000000000000000000000000000000000000000000000\n  dup2\n  mstore\n  pop\n  dup2\n  mstore\n  0x20\n  add\n  mload(0x40)\n  dup1\n  0x40\n  add\n  0x40\n  mstore\n  dup1\n  0x01\n  dup2\n  mstore\n  0x20\n  add\n  0x3200000000000000000000000000000000000000000000000000000000000000\n  dup2\n  mstore\n  pop\n  dup2\n  mstore\n  0x20\n  add\n  mload(0x40)\n  dup1\n  0x40\n  add\n  0x40\n  mstore\n  dup1\n  0x0a\n  dup2\n  mstore\n  0x20\n  add\n  0x5065746572736275726700000000000000000000000000000000000000000000\n  dup2\n  mstore\n  pop\n  dup2\n  mstore\n  0x20\n  add\n    /* \"Documents/GitHub/Store-system-with-feedback/main.sol\":458:462  1000 */\n  0x03e8\n    /* \"Documents/GitHub/Store-system-with-feedback/main.sol\":417:466  structShop(\"Clothes\", \"2\", \"Petersburg\", 1000, 0) */\n  dup2\n  mstore\n  0x20\n  add\n    /* \"Documents/GitHub/Store-system-with-feedback/main.sol\":464:465  0 */\n  0x00\n    /* \"Documents/GitHub/Store-system-with-feedback/main.sol\":417:466  structShop(\"Clothes\", \"2\", \"Petersburg\", 1000, 0) */\n  dup2\n  mstore\n  pop\n    /* \"Documents/GitHub/Store-system-with-feedback/main.sol\":365:370  shops */\n  0x00\n    /* \"Documents/GitHub/Store-system-with-feedback/main.sol\":365:414  shops[0xAb8483F64d9C6d1EcF9b849Ae677dD3315835cb2] */\n  dup1\n    /* \"Documents/GitHub/Store-system-with-feedback/main.sol\":371:413  0xAb8483F64d9C6d1EcF9b849Ae677dD3315835cb2 */\n  0xab8483f64d9c6d1ecf9b849ae677dd3315835cb2\n    /* \"Documents/GitHub/Store-system-with-feedback/main.sol\":365:414  shops[0xAb8483F64d9C6d1EcF9b849Ae677dD3315835cb2] */\n  0xffffffffffffffffffffffffffffffffffffffff\n  and\n  0xffffffffffffffffffffffffffffffffffffffff\n  and\n  dup2\n  mstore\n  0x20\n  add\n  swap1\n  dup2\n  mstore\n  0x20\n  add\n  0x00\n  keccak256\n    /* \"Documents/GitHub/Store-system-with-feedback/main.sol\":365:466  shops[0xAb8483F64d9C6d1EcF9b849Ae677dD3315835cb2] = structShop(\"Clothes\", \"2\", \"Petersburg\", 1000, 0) */\n  0x00\n  dup3\n  add\n  mload\n  dup2\n  0x00\n  add\n  swap1\n  dup1\n  mload\n  swap1\n  0x20\n  add\n  swap1\n  tag_13\n  swap3\n  swap2\n  swap1\n  tag_5\n  jump\t// in\ntag_13:\n  pop\n  0x20\n  dup3\n  add\n  mload\n  dup2\n  0x01\n  add\n  swap1\n  dup1\n  mload\n  swap1\n  0x20\n  add\n  swap1\n  tag_14\n  swap3\n  swap2\n  swap1\n  tag_5\n  jump\t// in\ntag_14:\n  pop\n  0x40\n  dup3\n  add\n  mload\n  dup2\n  0x02\n  add\n  swap1\n  dup1\n  mload\n  swap1\n  0x20\n  add\n  swap1\n  tag_15\n  swap3\n  swap2\n  swap1\n  tag_5\n  jump\t// in\ntag_15:\n  pop\n  0x60\n  dup3\n  add\n  mload\n  dup2\n  0x03\n  add\n  sstore\n  0x80\n  dup3\n  add\n  mload\n  dup2\n  0x04\n  add\n  sstore\n  swap1\n  pop\n  pop\n    /* \"Documents/GitHub/Store-system-with-feedback/main.sol\":477:485  shopList */\n  0x02\n    /* \"Documents/GitHub/Store-system-with-feedback/main.sol\":491:496  shops */\n  0x00\n    /* \"Documents/GitHub/Store-system-with-feedback/main.sol\":491:540  shops[0xAb8483F64d9C6d1EcF9b849Ae677dD3315835cb2] */\n  dup1\n    /* \"Documents/GitHub/Store-system-with-feedback/main.sol\":497:539  0xAb8483F64d9C6d1EcF9b849Ae677dD3315835cb2 */\n  0xab8483f64d9c6d1ecf9b849ae677dd3315835cb2\n    /* \"Documents/GitHub/Store-system-with-feedback/main.sol\":491:540  shops[0xAb8483F64d9C6d1EcF9b849Ae677dD3315835cb2] */\n  0xffffffffffffffffffffffffffffffffffffffff\n  and\n  0xffffffffffffffffffffffffffffffffffffffff\n  and\n  dup2\n  mstore\n  0x20\n  add\n  swap1\n  dup2\n  mstore\n  0x20\n  add\n  0x00\n  keccak256\n    /* \"Documents/GitHub/Store-system-with-feedback/main.sol\":491:545  shops[0xAb8483F64d9C6d1EcF9b849Ae677dD3315835cb2].name */\n  0x00\n  add\n    /* \"Documents/GitHub/Store-system-with-feedback/main.sol\":477:546  shopList.push(shops[0xAb8483F64d9C6d1EcF9b849Ae677dD3315835cb2].name) */\n  swap1\n  dup1\n  0x01\n  dup2\n  sload\n  add\n  dup1\n  dup3\n  sstore\n  dup1\n  swap2\n  pop\n  pop\n  0x01\n  swap1\n  sub\n  swap1\n  0x00\n  mstore\n  keccak256(0x00, 0x20)\n  add\n  0x00\n  swap1\n  swap2\n  swap1\n  swap2\n  swap1\n  swap2\n  pop\n  swap1\n  dup1\n  sload\n  tag_17\n  swap1\n  tag_10\n  jump\t// in\ntag_17:\n  tag_18\n  swap3\n  swap2\n  swap1\n  tag_12\n  jump\t// in\ntag_18:\n  pop\n    /* \"Documents/GitHub/Store-system-with-feedback/main.sol\":609:662  structShop(\"Pet Store\", \"3\", \"Ekaterinburg\", 1000, 0) */\n  mload(0x40)\n  dup1\n  0xa0\n  add\n  0x40\n  mstore\n  dup1\n  mload(0x40)\n  dup1\n  0x40\n  add\n  0x40\n  mstore\n  dup1\n  0x09\n  dup2\n  mstore\n  0x20\n  add\n  0x5065742053746f72650000000000000000000000000000000000000000000000\n  dup2\n  mstore\n  pop\n  dup2\n  mstore\n  0x20\n  add\n  mload(0x40)\n  dup1\n  0x40\n  add\n  0x40\n  mstore\n  dup1\n  0x01\n  dup2\n  mstore\n  0x20\n  add\n  0x3300000000000000000000000000000000000000000000000000000000000000\n  dup2\n  mstore\n  pop\n  dup2\n  mstore\n  0x20\n  add\n  mload(0x40)\n  dup1\n  0x40\n  add\n  0x40\n  mstore\n  dup1\n  0x0c\n  dup2\n  mstore\n  0x20\n  add\n  0x456b61746572696e627572670000000000000000000000000000000000000000\n  dup2\n  mstore\n  pop\n  dup2\n  mstore\n  0x20\n  add\n    /* \"Documents/GitHub/Store-system-with-feedback/main.sol\":654:658  1000 */\n  0x03e8\n    /* \"Documents/GitHub/Store-system-with-feedback/main.sol\":609:662  structShop(\"Pet Store\", \"3\", \"Ekaterinburg\", 1000, 0) */\n  dup2\n  mstore\n  0x20\n  add\n    /* \"Documents/GitHub/Store-system-with-feedback/main.sol\":660:661  0 */\n  0x00\n    /* \"Documents/GitHub/Store-system-with-feedback/main.sol\":609:662  structShop(\"Pet Store\", \"3\", \"Ekaterinburg\", 1000, 0) */\n  dup2\n  mstore\n  pop\n    /* \"Documents/GitHub/Store-system-with-feedback/main.sol\":557:562  shops */\n  0x00\n    /* \"Documents/GitHub/Store-system-with-feedback/main.sol\":557:606  shops[0x4B20993Bc481177ec7E8f571ceCaE8A9e22C02db] */\n  dup1\n    /* \"Documents/GitHub/Store-system-with-feedback/main.sol\":563:605  0x4B20993Bc481177ec7E8f571ceCaE8A9e22C02db */\n  0x4b20993bc481177ec7e8f571cecae8a9e22c02db\n    /* \"Documents/GitHub/Store-system-with-feedback/main.sol\":557:606  shops[0x4B20993Bc481177ec7E8f571ceCaE8A9e22C02db] */\n  0xffffffffffffffffffffffffffffffffffffffff\n  and\n  0xffffffffffffffffffffffffffffffffffffffff\n  and\n  dup2\n  mstore\n  0x20\n  add\n  swap1\n  dup2\n  mstore\n  0x20\n  add\n  0x00\n  keccak256\n    /* \"Documents/GitHub/Store-system-with-feedback/main.sol\":557:662  shops[0x4B20993Bc481177ec7E8f571ceCaE8A9e22C02db] = structShop(\"Pet Store\", \"3\", \"Ekaterinburg\", 1000, 0) */\n  0x00\n  dup3\n  add\n  mload\n  dup2\n  0x00\n  add\n  swap1\n  dup1\n  mload\n  swap1\n  0x20\n  add\n  swap1\n  tag_19\n  swap3\n  swap2\n  swap1\n  tag_5\n  jump\t// in\ntag_19:\n  pop\n  0x20\n  dup3\n  add\n  mload\n  dup2\n  0x01\n  add\n  swap1\n  dup1\n  mload\n  swap1\n  0x20\n  add\n  swap1\n  tag_20\n  swap3\n  swap2\n  swap1\n  tag_5\n  jump\t// in\ntag_20:\n  pop\n  0x40\n  dup3\n  add\n  mload\n  dup2\n  0x02\n  add\n  swap1\n  dup1\n  mload\n  swap1\n  0x20\n  add\n  swap1\n  tag_21\n  swap3\n  swap2\n  swap1\n  tag_5\n  jump\t// in\ntag_21:\n  pop\n  0x60\n  dup3\n  add\n  mload\n  dup2\n  0x03\n  add\n  sstore\n  0x80\n  dup3\n  add\n  mload\n  dup2\n  0x04\n  add\n  sstore\n  swap1\n  pop\n  pop\n    /* \"Documents/GitHub/Store-system-with-feedback/main.sol\":673:681  shopList */\n  0x02\n    /* \"Documents/GitHub/Store-system-with-feedback/main.sol\":687:692  shops */\n  0x00\n    /* \"Documents/GitHub/Store-system-with-feedback/main.sol\":687:736  shops[0x4B20993Bc481177ec7E8f571ceCaE8A9e22C02db] */\n  dup1\n    /* \"Documents/GitHub/Store-system-with-feedback/main.sol\":693:735  0x4B20993Bc481177ec7E8f571ceCaE8A9e22C02db */\n  0x4b20993bc481177ec7e8f571cecae8a9e22c02db\n    /* \"Documents/GitHub/Store-system-with-feedback/main.sol\":687:736  shops[0x4B20993Bc481177ec7E8f571ceCaE8A9e22C02db] */\n  0xffffffffffffffffffffffffffffffffffffffff\n  and\n  0xffffffffffffffffffffffffffffffffffffffff\n  and\n  dup2\n  mstore\n  0x20\n  add\n  swap1\n  dup2\n  mstore\n  0x20\n  add\n  0x00\n  keccak256\n    /* \"Documents/GitHub/Store-system-with-feedback/main.sol\":687:741  shops[0x4B20993Bc481177ec7E8f571ceCaE8A9e22C02db].name */\n  0x00\n  add\n    /* \"Documents/GitHub/Store-system-with-feedback/main.sol\":673:742  shopList.push(shops[0x4B20993Bc481177ec7E8f571ceCaE8A9e22C02db].name) */\n  swap1\n  dup1\n  0x01\n  dup2\n  sload\n  add\n  dup1\n  dup3\n  sstore\n  dup1\n  swap2\n  pop\n  pop\n  0x01\n  swap1\n  sub\n  swap1\n  0x00\n  mstore\n  keccak256(0x00, 0x20)\n  add\n  0x00\n  swap1\n  swap2\n  swap1\n  swap2\n  swap1\n  swap2\n  pop\n  swap1\n  dup1\n  sload\n  tag_23\n  swap1\n  tag_10\n  jump\t// in\ntag_23:\n  tag_24\n  swap3\n  swap2\n  swap1\n  tag_12\n  jump\t// in\ntag_24:\n  pop\n    /* \"Documents/GitHub/Store-system-with-feedback/main.sol\":800:842  0x78731D3Ca6b7E34aC0F824c42a7cC18A495cabaB */\n  0x78731d3ca6b7e34ac0f824c42a7cc18a495cabab\n    /* \"Documents/GitHub/Store-system-with-feedback/main.sol\":773:789  structUserLogins */\n  0x05\n    /* \"Documents/GitHub/Store-system-with-feedback/main.sol\":773:797  structUserLogins[\"Peta\"] */\n  mload(0x40)\n  tag_25\n  swap1\n  tag_26\n  jump\t// in\ntag_25:\n  swap1\n  dup2\n  mstore\n  0x20\n  add\n  mload(0x40)\n  dup1\n  swap2\n  sub\n  swap1\n  keccak256\n  0x00\n    /* \"Documents/GitHub/Store-system-with-feedback/main.sol\":773:842  structUserLogins[\"Peta\"] = 0x78731D3Ca6b7E34aC0F824c42a7cC18A495cabaB */\n  0x0100\n  exp\n  dup2\n  sload\n  dup2\n  0xffffffffffffffffffffffffffffffffffffffff\n  mul\n  not\n  and\n  swap1\n  dup4\n  0xffffffffffffffffffffffffffffffffffffffff\n  and\n  mul\n  or\n  swap1\n  sstore\n  pop\n    /* \"Documents/GitHub/Store-system-with-feedback/main.sol\":911:938  structUser(\"Peta\" ,1, 1000) */\n  mload(0x40)\n  dup1\n  0x60\n  add\n  0x40\n  mstore\n  dup1\n  mload(0x40)\n  dup1\n  0x40\n  add\n  0x40\n  mstore\n  dup1\n  0x04\n  dup2\n  mstore\n  0x20\n  add\n  0x5065746100000000000000000000000000000000000000000000000000000000\n  dup2\n  mstore\n  pop\n  dup2\n  mstore\n  0x20\n  add\n    /* \"Documents/GitHub/Store-system-with-feedback/main.sol\":930:931  1 */\n  0x01\n    /* \"Documents/GitHub/Store-system-with-feedback/main.sol\":911:938  structUser(\"Peta\" ,1, 1000) */\n  dup2\n  mstore\n  0x20\n  add\n    /* \"Documents/GitHub/Store-system-with-feedback/main.sol\":933:937  1000 */\n  0x03e8\n    /* \"Documents/GitHub/Store-system-with-feedback/main.sol\":911:938  structUser(\"Peta\" ,1, 1000) */\n  dup2\n  mstore\n  pop\n    /* \"Documents/GitHub/Store-system-with-feedback/main.sol\":853:864  structUsers */\n  0x04\n    /* \"Documents/GitHub/Store-system-with-feedback/main.sol\":853:908  structUsers[0x78731D3Ca6b7E34aC0F824c42a7cC18A495cabaB] */\n  0x00\n    /* \"Documents/GitHub/Store-system-with-feedback/main.sol\":865:907  0x78731D3Ca6b7E34aC0F824c42a7cC18A495cabaB */\n  0x78731d3ca6b7e34ac0f824c42a7cc18a495cabab\n    /* \"Documents/GitHub/Store-system-with-feedback/main.sol\":853:908  structUsers[0x78731D3Ca6b7E34aC0F824c42a7cC18A495cabaB] */\n  0xffffffffffffffffffffffffffffffffffffffff\n  and\n  0xffffffffffffffffffffffffffffffffffffffff\n  and\n  dup2\n  mstore\n  0x20\n  add\n  swap1\n  dup2\n  mstore\n  0x20\n  add\n  0x00\n  keccak256\n    /* \"Documents/GitHub/Store-system-with-feedback/main.sol\":853:938  structUsers[0x78731D3Ca6b7E34aC0F824c42a7cC18A495cabaB] = structUser(\"Peta\" ,1, 1000) */\n  0x00\n  dup3\n  add\n  mload\n  dup2\n  0x00\n  add\n  swap1\n  dup1\n  mload\n  swap1\n  0x20\n  add\n  swap1\n  tag_27\n  swap3\n  swap2\n  swap1\n  tag_5\n  jump\t// in\ntag_27:\n  pop\n  0x20\n  dup3\n  add\n  mload\n  dup2\n  0x01\n  add\n  sstore\n  0x40\n  dup3\n  add\n  mload\n  dup2\n  0x02\n  add\n  sstore\n  swap1\n  pop\n  pop\n    /* \"Documents/GitHub/Store-system-with-feedback/main.sol\":949:964  userLoginsArray */\n  0x06\n    /* \"Documents/GitHub/Store-system-with-feedback/main.sol\":949:977  userLoginsArray.push(\"Peta\") */\n  dup1\n  0x01\n  dup2\n  sload\n  add\n  dup1\n  dup3\n  sstore\n  dup1\n  swap2\n  pop\n  pop\n  0x01\n  swap1\n  sub\n  swap1\n  0x00\n  mstore\n  keccak256(0x00, 0x20)\n  add\n  0x00\n  mload(0x40)\n  dup1\n  0x40\n  add\n  0x40\n  mstore\n  dup1\n  0x04\n  dup2\n  mstore\n  0x20\n  add\n  0x5065746100000000000000000000000000000000000000000000000000000000\n  dup2\n  mstore\n  pop\n  swap1\n  swap2\n  swap1\n  swap2\n  pop\n  swap1\n  dup1\n  mload\n  swap1\n  0x20\n  add\n  swap1\n  tag_29\n  swap3\n  swap2\n  swap1\n  tag_5\n  jump\t// in\ntag_29:\n  pop\n    /* \"Documents/GitHub/Store-system-with-feedback/main.sol\":74:6824  contract coursepaper {\r... */\n  jump(tag_30)\ntag_5:\n  dup3\n  dup1\n  sload\n  tag_31\n  swap1\n  tag_10\n  jump\t// in\ntag_31:\n  swap1\n  0x00\n  mstore\n  keccak256(0x00, 0x20)\n  swap1\n  0x1f\n  add\n  0x20\n  swap1\n  div\n  dup2\n  add\n  swap3\n  dup3\n  tag_33\n  jumpi\n  0x00\n  dup6\n  sstore\n  jump(tag_32)\ntag_33:\n  dup3\n  0x1f\n  lt\n  tag_34\n  jumpi\n  dup1\n  mload\n  not(0xff)\n  and\n  dup4\n  dup1\n  add\n  or\n  dup6\n  sstore\n  jump(tag_32)\ntag_34:\n  dup3\n  dup1\n  add\n  0x01\n  add\n  dup6\n  sstore\n  dup3\n  iszero\n  tag_32\n  jumpi\n  swap2\n  dup3\n  add\ntag_35:\n  dup3\n  dup2\n  gt\n  iszero\n  tag_36\n  jumpi\n  dup3\n  mload\n  dup3\n  sstore\n  swap2\n  0x20\n  add\n  swap2\n  swap1\n  0x01\n  add\n  swap1\n  jump(tag_35)\ntag_36:\ntag_32:\n  pop\n  swap1\n  pop\n  tag_37\n  swap2\n  swap1\n  tag_38\n  jump\t// in\ntag_37:\n  pop\n  swap1\n  jump\t// out\ntag_12:\n  dup3\n  dup1\n  sload\n  tag_39\n  swap1\n  tag_10\n  jump\t// in\ntag_39:\n  swap1\n  0x00\n  mstore\n  keccak256(0x00, 0x20)\n  swap1\n  0x1f\n  add\n  0x20\n  swap1\n  div\n  dup2\n  add\n  swap3\n  dup3\n  tag_41\n  jumpi\n  0x00\n  dup6\n  sstore\n  jump(tag_40)\ntag_41:\n  dup3\n  0x1f\n  lt\n  tag_42\n  jumpi\n  dup1\n  sload\n  dup6\n  sstore\n  jump(tag_40)\ntag_42:\n  dup3\n  dup1\n  add\n  0x01\n  add\n  dup6\n  sstore\n  dup3\n  iszero\n  tag_40\n  jumpi\n  0x00\n  mstore\n  keccak256(0x00, 0x20)\n  swap2\n  0x1f\n  add\n  0x20\n  swap1\n  div\n  dup3\n  add\ntag_43:\n  dup3\n  dup2\n  gt\n  iszero\n  tag_44\n  jumpi\n  dup3\n  sload\n  dup3\n  sstore\n  swap2\n  0x01\n  add\n  swap2\n  swap1\n  0x01\n  add\n  swap1\n  jump(tag_43)\ntag_44:\ntag_40:\n  pop\n  swap1\n  pop\n  tag_45\n  swap2\n  swap1\n  tag_38\n  jump\t// in\ntag_45:\n  pop\n  swap1\n  jump\t// out\ntag_38:\ntag_46:\n  dup1\n  dup3\n  gt\n  iszero\n  tag_47\n  jumpi\n  0x00\n  dup2\n  0x00\n  swap1\n  sstore\n  pop\n  0x01\n  add\n  jump(tag_46)\ntag_47:\n  pop\n  swap1\n  jump\t// out\n    /* \"#utility.yul\":7:407   */\ntag_49:\n    /* \"#utility.yul\":167:170   */\n  0x00\n    /* \"#utility.yul\":188:272   */\n  tag_51\n    /* \"#utility.yul\":270:271   */\n  0x04\n    /* \"#utility.yul\":265:268   */\n  dup4\n    /* \"#utility.yul\":188:272   */\n  tag_52\n  jump\t// in\ntag_51:\n    /* \"#utility.yul\":181:272   */\n  swap2\n  pop\n    /* \"#utility.yul\":281:374   */\n  tag_53\n    /* \"#utility.yul\":370:373   */\n  dup3\n    /* \"#utility.yul\":281:374   */\n  tag_54\n  jump\t// in\ntag_53:\n    /* \"#utility.yul\":399:400   */\n  0x04\n    /* \"#utility.yul\":394:397   */\n  dup3\n    /* \"#utility.yul\":390:401   */\n  add\n    /* \"#utility.yul\":383:401   */\n  swap1\n  pop\n    /* \"#utility.yul\":7:407   */\n  swap2\n  swap1\n  pop\n  jump\t// out\n    /* \"#utility.yul\":413:794   */\ntag_26:\n    /* \"#utility.yul\":598:601   */\n  0x00\n    /* \"#utility.yul\":620:768   */\n  tag_56\n    /* \"#utility.yul\":764:767   */\n  dup3\n    /* \"#utility.yul\":620:768   */\n  tag_49\n  jump\t// in\ntag_56:\n    /* \"#utility.yul\":613:768   */\n  swap2\n  pop\n    /* \"#utility.yul\":785:788   */\n  dup2\n    /* \"#utility.yul\":778:788   */\n  swap1\n  pop\n    /* \"#utility.yul\":413:794   */\n  swap2\n  swap1\n  pop\n  jump\t// out\n    /* \"#utility.yul\":800:948   */\ntag_52:\n    /* \"#utility.yul\":902:913   */\n  0x00\n    /* \"#utility.yul\":939:942   */\n  dup2\n    /* \"#utility.yul\":924:942   */\n  swap1\n  pop\n    /* \"#utility.yul\":800:948   */\n  swap3\n  swap2\n  pop\n  pop\n  jump\t// out\n    /* \"#utility.yul\":954:1274   */\ntag_10:\n    /* \"#utility.yul\":998:1004   */\n  0x00\n    /* \"#utility.yul\":1035:1036   */\n  0x02\n    /* \"#utility.yul\":1029:1033   */\n  dup3\n    /* \"#utility.yul\":1025:1037   */\n  div\n    /* \"#utility.yul\":1015:1037   */\n  swap1\n  pop\n    /* \"#utility.yul\":1082:1083   */\n  0x01\n    /* \"#utility.yul\":1076:1080   */\n  dup3\n    /* \"#utility.yul\":1072:1084   */\n  and\n    /* \"#utility.yul\":1103:1121   */\n  dup1\n    /* \"#utility.yul\":1093:1174   */\n  tag_59\n  jumpi\n    /* \"#utility.yul\":1159:1163   */\n  0x7f\n    /* \"#utility.yul\":1151:1157   */\n  dup3\n    /* \"#utility.yul\":1147:1164   */\n  and\n    /* \"#utility.yul\":1137:1164   */\n  swap2\n  pop\n    /* \"#utility.yul\":1093:1174   */\ntag_59:\n    /* \"#utility.yul\":1221:1223   */\n  0x20\n    /* \"#utility.yul\":1213:1219   */\n  dup3\n    /* \"#utility.yul\":1210:1224   */\n  lt\n    /* \"#utility.yul\":1190:1208   */\n  dup2\n    /* \"#utility.yul\":1187:1225   */\n  eq\n    /* \"#utility.yul\":1184:1268   */\n  iszero\n  tag_60\n  jumpi\n    /* \"#utility.yul\":1240:1258   */\n  tag_61\n  tag_62\n  jump\t// in\ntag_61:\n    /* \"#utility.yul\":1184:1268   */\ntag_60:\n    /* \"#utility.yul\":1005:1274   */\n  pop\n    /* \"#utility.yul\":954:1274   */\n  swap2\n  swap1\n  pop\n  jump\t// out\n    /* \"#utility.yul\":1280:1460   */\ntag_62:\n    /* \"#utility.yul\":1328:1405   */\n  0x4e487b7100000000000000000000000000000000000000000000000000000000\n    /* \"#utility.yul\":1325:1326   */\n  0x00\n    /* \"#utility.yul\":1318:1406   */\n  mstore\n    /* \"#utility.yul\":1425:1429   */\n  0x22\n    /* \"#utility.yul\":1422:1423   */\n  0x04\n    /* \"#utility.yul\":1415:1430   */\n  mstore\n    /* \"#utility.yul\":1449:1453   */\n  0x24\n    /* \"#utility.yul\":1446:1447   */\n  0x00\n    /* \"#utility.yul\":1439:1454   */\n  revert\n    /* \"#utility.yul\":1466:1620   */\ntag_54:\n    /* \"#utility.yul\":1606:1612   */\n  0x5065746100000000000000000000000000000000000000000000000000000000\n    /* \"#utility.yul\":1602:1603   */\n  0x00\n    /* \"#utility.yul\":1594:1600   */\n  dup3\n    /* \"#utility.yul\":1590:1604   */\n  add\n    /* \"#utility.yul\":1583:1613   */\n  mstore\n    /* \"#utility.yul\":1466:1620   */\n  pop\n  jump\t// out\n    /* \"Documents/GitHub/Store-system-with-feedback/main.sol\":74:6824  contract coursepaper {\r... */\ntag_30:\n  dataSize(sub_0)\n  dup1\n  dataOffset(sub_0)\n  0x00\n  codecopy\n  0x00\n  return\nstop\n\nsub_0: assembly {\n        /* \"Documents/GitHub/Store-system-with-feedback/main.sol\":74:6824  contract coursepaper {\r... */\n      mstore(0x40, 0x80)\n      jumpi(tag_1, lt(calldatasize, 0x04))\n      shr(0xe0, calldataload(0x00))\n      dup1\n      0x961865f0\n      gt\n      tag_20\n      jumpi\n      dup1\n      0xc4957fa0\n      gt\n      tag_21\n      jumpi\n      dup1\n      0xc4957fa0\n      eq\n      tag_15\n      jumpi\n      dup1\n      0xcc21c188\n      eq\n      tag_16\n      jumpi\n      dup1\n      0xd68cf8c1\n      eq\n      tag_17\n      jumpi\n      dup1\n      0xdce39151\n      eq\n      tag_18\n      jumpi\n      dup1\n      0xf69483c1\n      eq\n      tag_19\n      jumpi\n      jump(tag_1)\n    tag_21:\n      dup1\n      0x961865f0\n      eq\n      tag_11\n      jumpi\n      dup1\n      0xa9f9482b\n      eq\n      tag_12\n      jumpi\n      dup1\n      0xbbd43363\n      eq\n      tag_13\n      jumpi\n      dup1\n      0xc178b9af\n      eq\n      tag_14\n      jumpi\n      jump(tag_1)\n    tag_20:\n      dup1\n      0x2ccdef7c\n      gt\n      tag_22\n      jumpi\n      dup1\n      0x2ccdef7c\n      eq\n      tag_6\n      jumpi\n      dup1\n      0x2d4673e3\n      eq\n      tag_7\n      jumpi\n      dup1\n      0x34d2c0ad\n      eq\n      tag_8\n      jumpi\n      dup1\n      0x6c05dd1d\n      eq\n      tag_9\n      jumpi\n      dup1\n      0x7ddb273d\n      eq\n      tag_10\n      jumpi\n      jump(tag_1)\n    tag_22:\n      dup1\n      0x08f4d2c6\n      eq\n      tag_2\n      jumpi\n      dup1\n      0x0c72b1ec\n      eq\n      tag_3\n      jumpi\n      dup1\n      0x146dc6ed\n      eq\n      tag_4\n      jumpi\n      dup1\n      0x1bbe970a\n      eq\n      tag_5\n      jumpi\n    tag_1:\n      0x00\n      dup1\n      revert\n        /* \"Documents/GitHub/Store-system-with-feedback/main.sol\":1623:1660  complaintBook[] public complaintBooks */\n    tag_2:\n      callvalue\n      dup1\n      iszero\n      tag_23\n      jumpi\n      0x00\n      dup1\n      revert\n    tag_23:\n      pop\n      tag_24\n      0x04\n      dup1\n      calldatasize\n      sub\n      dup2\n      add\n      swap1\n      tag_25\n      swap2\n      swap1\n      tag_26\n      jump\t// in\n    tag_25:\n      tag_27\n      jump\t// in\n    tag_24:\n      mload(0x40)\n      tag_28\n      swap5\n      swap4\n      swap3\n      swap2\n      swap1\n      tag_29\n      jump\t// in\n    tag_28:\n      mload(0x40)\n      dup1\n      swap2\n      sub\n      swap1\n      return\n        /* \"Documents/GitHub/Store-system-with-feedback/main.sol\":3742:4370  function acceptPurchase (uint idPurchase, bool confirmation) public {\r... */\n    tag_3:\n      callvalue\n      dup1\n      iszero\n      tag_30\n      jumpi\n      0x00\n      dup1\n      revert\n    tag_30:\n      pop\n      tag_31\n      0x04\n      dup1\n      calldatasize\n      sub\n      dup2\n      add\n      swap1\n      tag_32\n      swap2\n      swap1\n      tag_33\n      jump\t// in\n    tag_32:\n      tag_34\n      jump\t// in\n    tag_31:\n      stop\n        /* \"Documents/GitHub/Store-system-with-feedback/main.sol\":6100:6371  function productPurchases (string memory titleProduct) public {\r... */\n    tag_4:\n      callvalue\n      dup1\n      iszero\n      tag_35\n      jumpi\n      0x00\n      dup1\n      revert\n    tag_35:\n      pop\n      tag_36\n      0x04\n      dup1\n      calldatasize\n      sub\n      dup2\n      add\n      swap1\n      tag_37\n      swap2\n      swap1\n      tag_38\n      jump\t// in\n    tag_37:\n      tag_39\n      jump\t// in\n    tag_36:\n      stop\n        /* \"Documents/GitHub/Store-system-with-feedback/main.sol\":1862:1912  mapping(string => address) public structUserLogins */\n    tag_5:\n      callvalue\n      dup1\n      iszero\n      tag_40\n      jumpi\n      0x00\n      dup1\n      revert\n    tag_40:\n      pop\n      tag_41\n      0x04\n      dup1\n      calldatasize\n      sub\n      dup2\n      add\n      swap1\n      tag_42\n      swap2\n      swap1\n      tag_38\n      jump\t// in\n    tag_42:\n      tag_43\n      jump\t// in\n    tag_41:\n      mload(0x40)\n      tag_44\n      swap2\n      swap1\n      tag_45\n      jump\t// in\n    tag_44:\n      mload(0x40)\n      dup1\n      swap2\n      sub\n      swap1\n      return\n        /* \"Documents/GitHub/Store-system-with-feedback/main.sol\":4415:4876  function acceptReturn(uint idReturn, bool confirmation) public {\r... */\n    tag_6:\n      callvalue\n      dup1\n      iszero\n      tag_46\n      jumpi\n      0x00\n      dup1\n      revert\n    tag_46:\n      pop\n      tag_47\n      0x04\n      dup1\n      calldatasize\n      sub\n      dup2\n      add\n      swap1\n      tag_48\n      swap2\n      swap1\n      tag_33\n      jump\t// in\n    tag_48:\n      tag_49\n      jump\t// in\n    tag_47:\n      stop\n        /* \"Documents/GitHub/Store-system-with-feedback/main.sol\":6610:6794  function productMarriageRegistration (string memory titleProduct) public {\r... */\n    tag_7:\n      callvalue\n      dup1\n      iszero\n      tag_50\n      jumpi\n      0x00\n      dup1\n      revert\n    tag_50:\n      pop\n      tag_51\n      0x04\n      dup1\n      calldatasize\n      sub\n      dup2\n      add\n      swap1\n      tag_52\n      swap2\n      swap1\n      tag_38\n      jump\t// in\n    tag_52:\n      tag_53\n      jump\t// in\n    tag_51:\n      stop\n        /* \"Documents/GitHub/Store-system-with-feedback/main.sol\":5663:5763  function getProductList() public view returns(string[] memory) {\r... */\n    tag_8:\n      callvalue\n      dup1\n      iszero\n      tag_54\n      jumpi\n      0x00\n      dup1\n      revert\n    tag_54:\n      pop\n      tag_55\n      tag_56\n      jump\t// in\n    tag_55:\n      mload(0x40)\n      tag_57\n      swap2\n      swap1\n      tag_58\n      jump\t// in\n    tag_57:\n      mload(0x40)\n      dup1\n      swap2\n      sub\n      swap1\n      return\n        /* \"Documents/GitHub/Store-system-with-feedback/main.sol\":2961:3242  function addProductShop (string memory title, uint256 price, string memory description) public {\r... */\n    tag_9:\n      callvalue\n      dup1\n      iszero\n      tag_59\n      jumpi\n      0x00\n      dup1\n      revert\n    tag_59:\n      pop\n      tag_60\n      0x04\n      dup1\n      calldatasize\n      sub\n      dup2\n      add\n      swap1\n      tag_61\n      swap2\n      swap1\n      tag_62\n      jump\t// in\n    tag_61:\n      tag_63\n      jump\t// in\n    tag_60:\n      stop\n        /* \"Documents/GitHub/Store-system-with-feedback/main.sol\":2776:2839  structMarriageRegistration[] public structMarriageRegistrations */\n    tag_10:\n      callvalue\n      dup1\n      iszero\n      tag_64\n      jumpi\n      0x00\n      dup1\n      revert\n    tag_64:\n      pop\n      tag_65\n      0x04\n      dup1\n      calldatasize\n      sub\n      dup2\n      add\n      swap1\n      tag_66\n      swap2\n      swap1\n      tag_26\n      jump\t// in\n    tag_66:\n      tag_67\n      jump\t// in\n    tag_65:\n      mload(0x40)\n      tag_68\n      swap4\n      swap3\n      swap2\n      swap1\n      tag_69\n      jump\t// in\n    tag_68:\n      mload(0x40)\n      dup1\n      swap2\n      sub\n      swap1\n      return\n        /* \"Documents/GitHub/Store-system-with-feedback/main.sol\":1806:1855  mapping(address => structUser) public structUsers */\n    tag_11:\n      callvalue\n      dup1\n      iszero\n      tag_70\n      jumpi\n      0x00\n      dup1\n      revert\n    tag_70:\n      pop\n      tag_71\n      0x04\n      dup1\n      calldatasize\n      sub\n      dup2\n      add\n      swap1\n      tag_72\n      swap2\n      swap1\n      tag_73\n      jump\t// in\n    tag_72:\n      tag_74\n      jump\t// in\n    tag_71:\n      mload(0x40)\n      tag_75\n      swap4\n      swap3\n      swap2\n      swap1\n      tag_76\n      jump\t// in\n    tag_75:\n      mload(0x40)\n      dup1\n      swap2\n      sub\n      swap1\n      return\n        /* \"Documents/GitHub/Store-system-with-feedback/main.sol\":2556:2603  structStatusReturn[] public structStatusReturns */\n    tag_12:\n      callvalue\n      dup1\n      iszero\n      tag_77\n      jumpi\n      0x00\n      dup1\n      revert\n    tag_77:\n      pop\n      tag_78\n      0x04\n      dup1\n      calldatasize\n      sub\n      dup2\n      add\n      swap1\n      tag_79\n      swap2\n      swap1\n      tag_26\n      jump\t// in\n    tag_79:\n      tag_80\n      jump\t// in\n    tag_78:\n      mload(0x40)\n      tag_81\n      swap4\n      swap3\n      swap2\n      swap1\n      tag_69\n      jump\t// in\n    tag_81:\n      mload(0x40)\n      dup1\n      swap2\n      sub\n      swap1\n      return\n        /* \"Documents/GitHub/Store-system-with-feedback/main.sol\":6410:6564  function productReturn (string memory titleProduct) public {\r... */\n    tag_13:\n      callvalue\n      dup1\n      iszero\n      tag_82\n      jumpi\n      0x00\n      dup1\n      revert\n    tag_82:\n      pop\n      tag_83\n      0x04\n      dup1\n      calldatasize\n      sub\n      dup2\n      add\n      swap1\n      tag_84\n      swap2\n      swap1\n      tag_38\n      jump\t// in\n    tag_84:\n      tag_85\n      jump\t// in\n    tag_83:\n      stop\n        /* \"Documents/GitHub/Store-system-with-feedback/main.sol\":5533:5627  function getShopList() public view returns(string[] memory) {\r... */\n    tag_14:\n      callvalue\n      dup1\n      iszero\n      tag_86\n      jumpi\n      0x00\n      dup1\n      revert\n    tag_86:\n      pop\n      tag_87\n      tag_88\n      jump\t// in\n    tag_87:\n      mload(0x40)\n      tag_89\n      swap2\n      swap1\n      tag_58\n      jump\t// in\n    tag_89:\n      mload(0x40)\n      dup1\n      swap2\n      sub\n      swap1\n      return\n        /* \"Documents/GitHub/Store-system-with-feedback/main.sol\":1297:1340  mapping(string => address) public shopLists */\n    tag_15:\n      callvalue\n      dup1\n      iszero\n      tag_90\n      jumpi\n      0x00\n      dup1\n      revert\n    tag_90:\n      pop\n      tag_91\n      0x04\n      dup1\n      calldatasize\n      sub\n      dup2\n      add\n      swap1\n      tag_92\n      swap2\n      swap1\n      tag_38\n      jump\t// in\n    tag_92:\n      tag_93\n      jump\t// in\n    tag_91:\n      mload(0x40)\n      tag_94\n      swap2\n      swap1\n      tag_45\n      jump\t// in\n    tag_94:\n      mload(0x40)\n      dup1\n      swap2\n      sub\n      swap1\n      return\n        /* \"Documents/GitHub/Store-system-with-feedback/main.sol\":3321:3695  function leaveFeedback (string memory shop, string memory feedback, uint256 rating) public payable {\r... */\n    tag_16:\n      tag_95\n      0x04\n      dup1\n      calldatasize\n      sub\n      dup2\n      add\n      swap1\n      tag_96\n      swap2\n      swap1\n      tag_97\n      jump\t// in\n    tag_96:\n      tag_98\n      jump\t// in\n    tag_95:\n      stop\n        /* \"Documents/GitHub/Store-system-with-feedback/main.sol\":2105:2159  mapping(string => structProduct) public structProducts */\n    tag_17:\n      callvalue\n      dup1\n      iszero\n      tag_99\n      jumpi\n      0x00\n      dup1\n      revert\n    tag_99:\n      pop\n      tag_100\n      0x04\n      dup1\n      calldatasize\n      sub\n      dup2\n      add\n      swap1\n      tag_101\n      swap2\n      swap1\n      tag_38\n      jump\t// in\n    tag_101:\n      tag_102\n      jump\t// in\n    tag_100:\n      mload(0x40)\n      tag_103\n      swap5\n      swap4\n      swap3\n      swap2\n      swap1\n      tag_104\n      jump\t// in\n    tag_103:\n      mload(0x40)\n      dup1\n      swap2\n      sub\n      swap1\n      return\n        /* \"Documents/GitHub/Store-system-with-feedback/main.sol\":2348:2399  structStatusPurchase[] public structStatusPurchases */\n    tag_18:\n      callvalue\n      dup1\n      iszero\n      tag_105\n      jumpi\n      0x00\n      dup1\n      revert\n    tag_105:\n      pop\n      tag_106\n      0x04\n      dup1\n      calldatasize\n      sub\n      dup2\n      add\n      swap1\n      tag_107\n      swap2\n      swap1\n      tag_26\n      jump\t// in\n    tag_107:\n      tag_108\n      jump\t// in\n    tag_106:\n      mload(0x40)\n      tag_109\n      swap4\n      swap3\n      swap2\n      swap1\n      tag_69\n      jump\t// in\n    tag_109:\n      mload(0x40)\n      dup1\n      swap2\n      sub\n      swap1\n      return\n        /* \"Documents/GitHub/Store-system-with-feedback/main.sol\":4922:5499  function MarriageRegistration(uint idMarriageRegistration, bool confirmation) public {\r... */\n    tag_19:\n      callvalue\n      dup1\n      iszero\n      tag_110\n      jumpi\n      0x00\n      dup1\n      revert\n    tag_110:\n      pop\n      tag_111\n      0x04\n      dup1\n      calldatasize\n      sub\n      dup2\n      add\n      swap1\n      tag_112\n      swap2\n      swap1\n      tag_33\n      jump\t// in\n    tag_112:\n      tag_113\n      jump\t// in\n    tag_111:\n      stop\n        /* \"Documents/GitHub/Store-system-with-feedback/main.sol\":1623:1660  complaintBook[] public complaintBooks */\n    tag_27:\n      0x03\n      dup2\n      dup2\n      sload\n      dup2\n      lt\n      tag_114\n      jumpi\n      0x00\n      dup1\n      revert\n    tag_114:\n      swap1\n      0x00\n      mstore\n      keccak256(0x00, 0x20)\n      swap1\n      0x05\n      mul\n      add\n      0x00\n      swap2\n      pop\n      swap1\n      pop\n      dup1\n      0x00\n      add\n      dup1\n      sload\n      tag_116\n      swap1\n      tag_117\n      jump\t// in\n    tag_116:\n      dup1\n      0x1f\n      add\n      0x20\n      dup1\n      swap2\n      div\n      mul\n      0x20\n      add\n      mload(0x40)\n      swap1\n      dup2\n      add\n      0x40\n      mstore\n      dup1\n      swap3\n      swap2\n      swap1\n      dup2\n      dup2\n      mstore\n      0x20\n      add\n      dup3\n      dup1\n      sload\n      tag_118\n      swap1\n      tag_117\n      jump\t// in\n    tag_118:\n      dup1\n      iszero\n      tag_119\n      jumpi\n      dup1\n      0x1f\n      lt\n      tag_120\n      jumpi\n      0x0100\n      dup1\n      dup4\n      sload\n      div\n      mul\n      dup4\n      mstore\n      swap2\n      0x20\n      add\n      swap2\n      jump(tag_119)\n    tag_120:\n      dup3\n      add\n      swap2\n      swap1\n      0x00\n      mstore\n      keccak256(0x00, 0x20)\n      swap1\n    tag_121:\n      dup2\n      sload\n      dup2\n      mstore\n      swap1\n      0x01\n      add\n      swap1\n      0x20\n      add\n      dup1\n      dup4\n      gt\n      tag_121\n      jumpi\n      dup3\n      swap1\n      sub\n      0x1f\n      and\n      dup3\n      add\n      swap2\n    tag_119:\n      pop\n      pop\n      pop\n      pop\n      pop\n      swap1\n      dup1\n      0x01\n      add\n      dup1\n      sload\n      tag_122\n      swap1\n      tag_117\n      jump\t// in\n    tag_122:\n      dup1\n      0x1f\n      add\n      0x20\n      dup1\n      swap2\n      div\n      mul\n      0x20\n      add\n      mload(0x40)\n      swap1\n      dup2\n      add\n      0x40\n      mstore\n      dup1\n      swap3\n      swap2\n      swap1\n      dup2\n      dup2\n      mstore\n      0x20\n      add\n      dup3\n      dup1\n      sload\n      tag_123\n      swap1\n      tag_117\n      jump\t// in\n    tag_123:\n      dup1\n      iszero\n      tag_124\n      jumpi\n      dup1\n      0x1f\n      lt\n      tag_125\n      jumpi\n      0x0100\n      dup1\n      dup4\n      sload\n      div\n      mul\n      dup4\n      mstore\n      swap2\n      0x20\n      add\n      swap2\n      jump(tag_124)\n    tag_125:\n      dup3\n      add\n      swap2\n      swap1\n      0x00\n      mstore\n      keccak256(0x00, 0x20)\n      swap1\n    tag_126:\n      dup2\n      sload\n      dup2\n      mstore\n      swap1\n      0x01\n      add\n      swap1\n      0x20\n      add\n      dup1\n      dup4\n      gt\n      tag_126\n      jumpi\n      dup3\n      swap1\n      sub\n      0x1f\n      and\n      dup3\n      add\n      swap2\n    tag_124:\n      pop\n      pop\n      pop\n      pop\n      pop\n      swap1\n      dup1\n      0x02\n      add\n      dup1\n      sload\n      tag_127\n      swap1\n      tag_117\n      jump\t// in\n    tag_127:\n      dup1\n      0x1f\n      add\n      0x20\n      dup1\n      swap2\n      div\n      mul\n      0x20\n      add\n      mload(0x40)\n      swap1\n      dup2\n      add\n      0x40\n      mstore\n      dup1\n      swap3\n      swap2\n      swap1\n      dup2\n      dup2\n      mstore\n      0x20\n      add\n      dup3\n      dup1\n      sload\n      tag_128\n      swap1\n      tag_117\n      jump\t// in\n    tag_128:\n      dup1\n      iszero\n      tag_129\n      jumpi\n      dup1\n      0x1f\n      lt\n      tag_130\n      jumpi\n      0x0100\n      dup1\n      dup4\n      sload\n      div\n      mul\n      dup4\n      mstore\n      swap2\n      0x20\n      add\n      swap2\n      jump(tag_129)\n    tag_130:\n      dup3\n      add\n      swap2\n      swap1\n      0x00\n      mstore\n      keccak256(0x00, 0x20)\n      swap1\n    tag_131:\n      dup2\n      sload\n      dup2\n      mstore\n      swap1\n      0x01\n      add\n      swap1\n      0x20\n      add\n      dup1\n      dup4\n      gt\n      tag_131\n      jumpi\n      dup3\n      swap1\n      sub\n      0x1f\n      and\n      dup3\n      add\n      swap2\n    tag_129:\n      pop\n      pop\n      pop\n      pop\n      pop\n      swap1\n      dup1\n      0x03\n      add\n      sload\n      swap1\n      pop\n      dup5\n      jump\t// out\n        /* \"Documents/GitHub/Store-system-with-feedback/main.sol\":3742:4370  function acceptPurchase (uint idPurchase, bool confirmation) public {\r... */\n    tag_34:\n        /* \"Documents/GitHub/Store-system-with-feedback/main.sol\":3841:3845  true */\n      0x01\n        /* \"Documents/GitHub/Store-system-with-feedback/main.sol\":3825:3845  confirmation == true */\n      iszero\n      iszero\n        /* \"Documents/GitHub/Store-system-with-feedback/main.sol\":3825:3837  confirmation */\n      dup2\n        /* \"Documents/GitHub/Store-system-with-feedback/main.sol\":3825:3845  confirmation == true */\n      iszero\n      iszero\n      eq\n        /* \"Documents/GitHub/Store-system-with-feedback/main.sol\":3821:4363  if (confirmation == true) {\r... */\n      iszero\n      tag_133\n      jumpi\n        /* \"Documents/GitHub/Store-system-with-feedback/main.sol\":3905:3910  false */\n      0x00\n        /* \"Documents/GitHub/Store-system-with-feedback/main.sol\":3862:3883  structStatusPurchases */\n      0x09\n        /* \"Documents/GitHub/Store-system-with-feedback/main.sol\":3884:3894  idPurchase */\n      dup4\n        /* \"Documents/GitHub/Store-system-with-feedback/main.sol\":3862:3895  structStatusPurchases[idPurchase] */\n      dup2\n      sload\n      dup2\n      lt\n      tag_134\n      jumpi\n      tag_135\n      tag_136\n      jump\t// in\n    tag_135:\n    tag_134:\n      swap1\n      0x00\n      mstore\n      keccak256(0x00, 0x20)\n      swap1\n      0x03\n      mul\n      add\n        /* \"Documents/GitHub/Store-system-with-feedback/main.sol\":3862:3902  structStatusPurchases[idPurchase].status */\n      0x02\n      add\n      0x00\n        /* \"Documents/GitHub/Store-system-with-feedback/main.sol\":3862:3910  structStatusPurchases[idPurchase].status = false */\n      0x0100\n      exp\n      dup2\n      sload\n      dup2\n      0xff\n      mul\n      not\n      and\n      swap1\n      dup4\n      iszero\n      iszero\n      mul\n      or\n      swap1\n      sstore\n      pop\n        /* \"Documents/GitHub/Store-system-with-feedback/main.sol\":4061:4075  structProducts */\n      0x07\n        /* \"Documents/GitHub/Store-system-with-feedback/main.sol\":4076:4097  structStatusPurchases */\n      0x09\n        /* \"Documents/GitHub/Store-system-with-feedback/main.sol\":4098:4108  idPurchase */\n      dup4\n        /* \"Documents/GitHub/Store-system-with-feedback/main.sol\":4076:4109  structStatusPurchases[idPurchase] */\n      dup2\n      sload\n      dup2\n      lt\n      tag_138\n      jumpi\n      tag_139\n      tag_136\n      jump\t// in\n    tag_139:\n    tag_138:\n      swap1\n      0x00\n      mstore\n      keccak256(0x00, 0x20)\n      swap1\n      0x03\n      mul\n      add\n        /* \"Documents/GitHub/Store-system-with-feedback/main.sol\":4076:4122  structStatusPurchases[idPurchase].titleProduct */\n      0x01\n      add\n        /* \"Documents/GitHub/Store-system-with-feedback/main.sol\":4061:4123  structProducts[structStatusPurchases[idPurchase].titleProduct] */\n      mload(0x40)\n      tag_141\n      swap2\n      swap1\n      tag_142\n      jump\t// in\n    tag_141:\n      swap1\n      dup2\n      mstore\n      0x20\n      add\n      mload(0x40)\n      dup1\n      swap2\n      sub\n      swap1\n      keccak256\n        /* \"Documents/GitHub/Store-system-with-feedback/main.sol\":4061:4129  structProducts[structStatusPurchases[idPurchase].titleProduct].price */\n      0x02\n      add\n      sload\n        /* \"Documents/GitHub/Store-system-with-feedback/main.sol\":3993:4004  structUsers */\n      0x04\n        /* \"Documents/GitHub/Store-system-with-feedback/main.sol\":3993:4049  structUsers[structStatusPurchases[idPurchase].userLogin] */\n      0x00\n        /* \"Documents/GitHub/Store-system-with-feedback/main.sol\":4005:4026  structStatusPurchases */\n      0x09\n        /* \"Documents/GitHub/Store-system-with-feedback/main.sol\":4027:4037  idPurchase */\n      dup6\n        /* \"Documents/GitHub/Store-system-with-feedback/main.sol\":4005:4038  structStatusPurchases[idPurchase] */\n      dup2\n      sload\n      dup2\n      lt\n      tag_143\n      jumpi\n      tag_144\n      tag_136\n      jump\t// in\n    tag_144:\n    tag_143:\n      swap1\n      0x00\n      mstore\n      keccak256(0x00, 0x20)\n      swap1\n      0x03\n      mul\n      add\n        /* \"Documents/GitHub/Store-system-with-feedback/main.sol\":4005:4048  structStatusPurchases[idPurchase].userLogin */\n      0x00\n      add\n      0x00\n      swap1\n      sload\n      swap1\n      0x0100\n      exp\n      swap1\n      div\n      0xffffffffffffffffffffffffffffffffffffffff\n      and\n        /* \"Documents/GitHub/Store-system-with-feedback/main.sol\":3993:4049  structUsers[structStatusPurchases[idPurchase].userLogin] */\n      0xffffffffffffffffffffffffffffffffffffffff\n      and\n      0xffffffffffffffffffffffffffffffffffffffff\n      and\n      dup2\n      mstore\n      0x20\n      add\n      swap1\n      dup2\n      mstore\n      0x20\n      add\n      0x00\n      keccak256\n        /* \"Documents/GitHub/Store-system-with-feedback/main.sol\":3993:4058  structUsers[structStatusPurchases[idPurchase].userLogin].ballance */\n      0x02\n      add\n      sload\n        /* \"Documents/GitHub/Store-system-with-feedback/main.sol\":3993:4129  structUsers[structStatusPurchases[idPurchase].userLogin].ballance - structProducts[structStatusPurchases[idPurchase].titleProduct].price */\n      tag_146\n      swap2\n      swap1\n      tag_147\n      jump\t// in\n    tag_146:\n        /* \"Documents/GitHub/Store-system-with-feedback/main.sol\":3925:3936  structUsers */\n      0x04\n        /* \"Documents/GitHub/Store-system-with-feedback/main.sol\":3925:3981  structUsers[structStatusPurchases[idPurchase].userLogin] */\n      0x00\n        /* \"Documents/GitHub/Store-system-with-feedback/main.sol\":3937:3958  structStatusPurchases */\n      0x09\n        /* \"Documents/GitHub/Store-system-with-feedback/main.sol\":3959:3969  idPurchase */\n      dup6\n        /* \"Documents/GitHub/Store-system-with-feedback/main.sol\":3937:3970  structStatusPurchases[idPurchase] */\n      dup2\n      sload\n      dup2\n      lt\n      tag_148\n      jumpi\n      tag_149\n      tag_136\n      jump\t// in\n    tag_149:\n    tag_148:\n      swap1\n      0x00\n      mstore\n      keccak256(0x00, 0x20)\n      swap1\n      0x03\n      mul\n      add\n        /* \"Documents/GitHub/Store-system-with-feedback/main.sol\":3937:3980  structStatusPurchases[idPurchase].userLogin */\n      0x00\n      add\n      0x00\n      swap1\n      sload\n      swap1\n      0x0100\n      exp\n      swap1\n      div\n      0xffffffffffffffffffffffffffffffffffffffff\n      and\n        /* \"Documents/GitHub/Store-system-with-feedback/main.sol\":3925:3981  structUsers[structStatusPurchases[idPurchase].userLogin] */\n      0xffffffffffffffffffffffffffffffffffffffff\n      and\n      0xffffffffffffffffffffffffffffffffffffffff\n      and\n      dup2\n      mstore\n      0x20\n      add\n      swap1\n      dup2\n      mstore\n      0x20\n      add\n      0x00\n      keccak256\n        /* \"Documents/GitHub/Store-system-with-feedback/main.sol\":3925:3990  structUsers[structStatusPurchases[idPurchase].userLogin].ballance */\n      0x02\n      add\n        /* \"Documents/GitHub/Store-system-with-feedback/main.sol\":3925:4129  structUsers[structStatusPurchases[idPurchase].userLogin].ballance = structUsers[structStatusPurchases[idPurchase].userLogin].ballance - structProducts[structStatusPurchases[idPurchase].titleProduct].price */\n      dup2\n      swap1\n      sstore\n      pop\n        /* \"Documents/GitHub/Store-system-with-feedback/main.sol\":4202:4216  structProducts */\n      0x07\n        /* \"Documents/GitHub/Store-system-with-feedback/main.sol\":4217:4238  structStatusPurchases */\n      0x09\n        /* \"Documents/GitHub/Store-system-with-feedback/main.sol\":4239:4249  idPurchase */\n      dup4\n        /* \"Documents/GitHub/Store-system-with-feedback/main.sol\":4217:4250  structStatusPurchases[idPurchase] */\n      dup2\n      sload\n      dup2\n      lt\n      tag_151\n      jumpi\n      tag_152\n      tag_136\n      jump\t// in\n    tag_152:\n    tag_151:\n      swap1\n      0x00\n      mstore\n      keccak256(0x00, 0x20)\n      swap1\n      0x03\n      mul\n      add\n        /* \"Documents/GitHub/Store-system-with-feedback/main.sol\":4217:4263  structStatusPurchases[idPurchase].titleProduct */\n      0x01\n      add\n        /* \"Documents/GitHub/Store-system-with-feedback/main.sol\":4202:4264  structProducts[structStatusPurchases[idPurchase].titleProduct] */\n      mload(0x40)\n      tag_154\n      swap2\n      swap1\n      tag_142\n      jump\t// in\n    tag_154:\n      swap1\n      dup2\n      mstore\n      0x20\n      add\n      mload(0x40)\n      dup1\n      swap2\n      sub\n      swap1\n      keccak256\n        /* \"Documents/GitHub/Store-system-with-feedback/main.sol\":4202:4270  structProducts[structStatusPurchases[idPurchase].titleProduct].price */\n      0x02\n      add\n      sload\n        /* \"Documents/GitHub/Store-system-with-feedback/main.sol\":4173:4178  shops */\n      0x00\n        /* \"Documents/GitHub/Store-system-with-feedback/main.sol\":4173:4190  shops[msg.sender] */\n      dup1\n        /* \"Documents/GitHub/Store-system-with-feedback/main.sol\":4179:4189  msg.sender */\n      caller\n        /* \"Documents/GitHub/Store-system-with-feedback/main.sol\":4173:4190  shops[msg.sender] */\n      0xffffffffffffffffffffffffffffffffffffffff\n      and\n      0xffffffffffffffffffffffffffffffffffffffff\n      and\n      dup2\n      mstore\n      0x20\n      add\n      swap1\n      dup2\n      mstore\n      0x20\n      add\n      0x00\n      keccak256\n        /* \"Documents/GitHub/Store-system-with-feedback/main.sol\":4173:4199  shops[msg.sender].ballance */\n      0x03\n      add\n      sload\n        /* \"Documents/GitHub/Store-system-with-feedback/main.sol\":4173:4270  shops[msg.sender].ballance + structProducts[structStatusPurchases[idPurchase].titleProduct].price */\n      tag_155\n      swap2\n      swap1\n      tag_156\n      jump\t// in\n    tag_155:\n        /* \"Documents/GitHub/Store-system-with-feedback/main.sol\":4144:4149  shops */\n      0x00\n        /* \"Documents/GitHub/Store-system-with-feedback/main.sol\":4144:4161  shops[msg.sender] */\n      dup1\n        /* \"Documents/GitHub/Store-system-with-feedback/main.sol\":4150:4160  msg.sender */\n      caller\n        /* \"Documents/GitHub/Store-system-with-feedback/main.sol\":4144:4161  shops[msg.sender] */\n      0xffffffffffffffffffffffffffffffffffffffff\n      and\n      0xffffffffffffffffffffffffffffffffffffffff\n      and\n      dup2\n      mstore\n      0x20\n      add\n      swap1\n      dup2\n      mstore\n      0x20\n      add\n      0x00\n      keccak256\n        /* \"Documents/GitHub/Store-system-with-feedback/main.sol\":4144:4170  shops[msg.sender].ballance */\n      0x03\n      add\n        /* \"Documents/GitHub/Store-system-with-feedback/main.sol\":4144:4270  shops[msg.sender].ballance = shops[msg.sender].ballance + structProducts[structStatusPurchases[idPurchase].titleProduct].price */\n      dup2\n      swap1\n      sstore\n      pop\n        /* \"Documents/GitHub/Store-system-with-feedback/main.sol\":3821:4363  if (confirmation == true) {\r... */\n      jump(tag_157)\n    tag_133:\n        /* \"Documents/GitHub/Store-system-with-feedback/main.sol\":4346:4351  false */\n      0x00\n        /* \"Documents/GitHub/Store-system-with-feedback/main.sol\":4303:4324  structStatusPurchases */\n      0x09\n        /* \"Documents/GitHub/Store-system-with-feedback/main.sol\":4325:4335  idPurchase */\n      dup4\n        /* \"Documents/GitHub/Store-system-with-feedback/main.sol\":4303:4336  structStatusPurchases[idPurchase] */\n      dup2\n      sload\n      dup2\n      lt\n      tag_158\n      jumpi\n      tag_159\n      tag_136\n      jump\t// in\n    tag_159:\n    tag_158:\n      swap1\n      0x00\n      mstore\n      keccak256(0x00, 0x20)\n      swap1\n      0x03\n      mul\n      add\n        /* \"Documents/GitHub/Store-system-with-feedback/main.sol\":4303:4343  structStatusPurchases[idPurchase].status */\n      0x02\n      add\n      0x00\n        /* \"Documents/GitHub/Store-system-with-feedback/main.sol\":4303:4351  structStatusPurchases[idPurchase].status = false */\n      0x0100\n      exp\n      dup2\n      sload\n      dup2\n      0xff\n      mul\n      not\n      and\n      swap1\n      dup4\n      iszero\n      iszero\n      mul\n      or\n      swap1\n      sstore\n      pop\n        /* \"Documents/GitHub/Store-system-with-feedback/main.sol\":3821:4363  if (confirmation == true) {\r... */\n    tag_157:\n        /* \"Documents/GitHub/Store-system-with-feedback/main.sol\":3742:4370  function acceptPurchase (uint idPurchase, bool confirmation) public {\r... */\n      pop\n      pop\n      jump\t// out\n        /* \"Documents/GitHub/Store-system-with-feedback/main.sol\":6100:6371  function productPurchases (string memory titleProduct) public {\r... */\n    tag_39:\n        /* \"Documents/GitHub/Store-system-with-feedback/main.sol\":6217:6231  structProducts */\n      0x07\n        /* \"Documents/GitHub/Store-system-with-feedback/main.sol\":6232:6244  titleProduct */\n      dup2\n        /* \"Documents/GitHub/Store-system-with-feedback/main.sol\":6217:6245  structProducts[titleProduct] */\n      mload(0x40)\n      tag_162\n      swap2\n      swap1\n      tag_163\n      jump\t// in\n    tag_162:\n      swap1\n      dup2\n      mstore\n      0x20\n      add\n      mload(0x40)\n      dup1\n      swap2\n      sub\n      swap1\n      keccak256\n        /* \"Documents/GitHub/Store-system-with-feedback/main.sol\":6217:6251  structProducts[titleProduct].price */\n      0x02\n      add\n      sload\n        /* \"Documents/GitHub/Store-system-with-feedback/main.sol\":6181:6192  structUsers */\n      0x04\n        /* \"Documents/GitHub/Store-system-with-feedback/main.sol\":6181:6204  structUsers[msg.sender] */\n      0x00\n        /* \"Documents/GitHub/Store-system-with-feedback/main.sol\":6193:6203  msg.sender */\n      caller\n        /* \"Documents/GitHub/Store-system-with-feedback/main.sol\":6181:6204  structUsers[msg.sender] */\n      0xffffffffffffffffffffffffffffffffffffffff\n      and\n      0xffffffffffffffffffffffffffffffffffffffff\n      and\n      dup2\n      mstore\n      0x20\n      add\n      swap1\n      dup2\n      mstore\n      0x20\n      add\n      0x00\n      keccak256\n        /* \"Documents/GitHub/Store-system-with-feedback/main.sol\":6181:6213  structUsers[msg.sender].ballance */\n      0x02\n      add\n      sload\n        /* \"Documents/GitHub/Store-system-with-feedback/main.sol\":6181:6251  structUsers[msg.sender].ballance >= structProducts[titleProduct].price */\n      lt\n      iszero\n        /* \"Documents/GitHub/Store-system-with-feedback/main.sol\":6173:6272  require(structUsers[msg.sender].ballance >= structProducts[titleProduct].price, \"error: not money\") */\n      tag_164\n      jumpi\n      mload(0x40)\n      0x08c379a000000000000000000000000000000000000000000000000000000000\n      dup2\n      mstore\n      0x04\n      add\n      tag_165\n      swap1\n      tag_166\n      jump\t// in\n    tag_165:\n      mload(0x40)\n      dup1\n      swap2\n      sub\n      swap1\n      revert\n    tag_164:\n        /* \"Documents/GitHub/Store-system-with-feedback/main.sol\":6283:6304  structStatusPurchases */\n      0x09\n        /* \"Documents/GitHub/Store-system-with-feedback/main.sol\":6310:6362  structStatusPurchase(msg.sender, titleProduct, true) */\n      mload(0x40)\n      dup1\n      0x60\n      add\n      0x40\n      mstore\n      dup1\n        /* \"Documents/GitHub/Store-system-with-feedback/main.sol\":6331:6341  msg.sender */\n      caller\n        /* \"Documents/GitHub/Store-system-with-feedback/main.sol\":6310:6362  structStatusPurchase(msg.sender, titleProduct, true) */\n      0xffffffffffffffffffffffffffffffffffffffff\n      and\n      dup2\n      mstore\n      0x20\n      add\n        /* \"Documents/GitHub/Store-system-with-feedback/main.sol\":6343:6355  titleProduct */\n      dup4\n        /* \"Documents/GitHub/Store-system-with-feedback/main.sol\":6310:6362  structStatusPurchase(msg.sender, titleProduct, true) */\n      dup2\n      mstore\n      0x20\n      add\n        /* \"Documents/GitHub/Store-system-with-feedback/main.sol\":6357:6361  true */\n      0x01\n        /* \"Documents/GitHub/Store-system-with-feedback/main.sol\":6310:6362  structStatusPurchase(msg.sender, titleProduct, true) */\n      iszero\n      iszero\n      dup2\n      mstore\n      pop\n        /* \"Documents/GitHub/Store-system-with-feedback/main.sol\":6283:6363  structStatusPurchases.push(structStatusPurchase(msg.sender, titleProduct, true)) */\n      swap1\n      dup1\n      0x01\n      dup2\n      sload\n      add\n      dup1\n      dup3\n      sstore\n      dup1\n      swap2\n      pop\n      pop\n      0x01\n      swap1\n      sub\n      swap1\n      0x00\n      mstore\n      keccak256(0x00, 0x20)\n      swap1\n      0x03\n      mul\n      add\n      0x00\n      swap1\n      swap2\n      swap1\n      swap2\n      swap1\n      swap2\n      pop\n      0x00\n      dup3\n      add\n      mload\n      dup2\n      0x00\n      add\n      exp(0x0100, 0x00)\n      dup2\n      sload\n      dup2\n      0xffffffffffffffffffffffffffffffffffffffff\n      mul\n      not\n      and\n      swap1\n      dup4\n      0xffffffffffffffffffffffffffffffffffffffff\n      and\n      mul\n      or\n      swap1\n      sstore\n      pop\n      0x20\n      dup3\n      add\n      mload\n      dup2\n      0x01\n      add\n      swap1\n      dup1\n      mload\n      swap1\n      0x20\n      add\n      swap1\n      tag_168\n      swap3\n      swap2\n      swap1\n      tag_169\n      jump\t// in\n    tag_168:\n      pop\n      0x40\n      dup3\n      add\n      mload\n      dup2\n      0x02\n      add\n      exp(0x0100, 0x00)\n      dup2\n      sload\n      dup2\n      0xff\n      mul\n      not\n      and\n      swap1\n      dup4\n      iszero\n      iszero\n      mul\n      or\n      swap1\n      sstore\n      pop\n      pop\n      pop\n        /* \"Documents/GitHub/Store-system-with-feedback/main.sol\":6100:6371  function productPurchases (string memory titleProduct) public {\r... */\n      pop\n      jump\t// out\n        /* \"Documents/GitHub/Store-system-with-feedback/main.sol\":1862:1912  mapping(string => address) public structUserLogins */\n    tag_43:\n      0x05\n      dup2\n      dup1\n      mload\n      0x20\n      dup2\n      add\n      dup3\n      add\n      dup1\n      mload\n      dup5\n      dup3\n      mstore\n      0x20\n      dup4\n      add\n      0x20\n      dup6\n      add\n      keccak256\n      dup2\n      dup4\n      mstore\n      dup1\n      swap6\n      pop\n      pop\n      pop\n      pop\n      pop\n      pop\n      0x00\n      swap2\n      pop\n      sload\n      swap1\n      0x0100\n      exp\n      swap1\n      div\n      0xffffffffffffffffffffffffffffffffffffffff\n      and\n      dup2\n      jump\t// out\n        /* \"Documents/GitHub/Store-system-with-feedback/main.sol\":4415:4876  function acceptReturn(uint idReturn, bool confirmation) public {\r... */\n    tag_49:\n        /* \"Documents/GitHub/Store-system-with-feedback/main.sol\":4508:4512  true */\n      0x01\n        /* \"Documents/GitHub/Store-system-with-feedback/main.sol\":4492:4512  confirmation == true */\n      iszero\n      iszero\n        /* \"Documents/GitHub/Store-system-with-feedback/main.sol\":4492:4504  confirmation */\n      dup2\n        /* \"Documents/GitHub/Store-system-with-feedback/main.sol\":4492:4512  confirmation == true */\n      iszero\n      iszero\n      eq\n        /* \"Documents/GitHub/Store-system-with-feedback/main.sol\":4489:4869  if(confirmation == true) {\r... */\n      iszero\n      tag_171\n      jumpi\n        /* \"Documents/GitHub/Store-system-with-feedback/main.sol\":4568:4573  false */\n      0x00\n        /* \"Documents/GitHub/Store-system-with-feedback/main.sol\":4529:4548  structStatusReturns */\n      0x0a\n        /* \"Documents/GitHub/Store-system-with-feedback/main.sol\":4549:4557  idReturn */\n      dup4\n        /* \"Documents/GitHub/Store-system-with-feedback/main.sol\":4529:4558  structStatusReturns[idReturn] */\n      dup2\n      sload\n      dup2\n      lt\n      tag_172\n      jumpi\n      tag_173\n      tag_136\n      jump\t// in\n    tag_173:\n    tag_172:\n      swap1\n      0x00\n      mstore\n      keccak256(0x00, 0x20)\n      swap1\n      0x03\n      mul\n      add\n        /* \"Documents/GitHub/Store-system-with-feedback/main.sol\":4529:4565  structStatusReturns[idReturn].status */\n      0x02\n      add\n      0x00\n        /* \"Documents/GitHub/Store-system-with-feedback/main.sol\":4529:4573  structStatusReturns[idReturn].status = false */\n      0x0100\n      exp\n      dup2\n      sload\n      dup2\n      0xff\n      mul\n      not\n      and\n      swap1\n      dup4\n      iszero\n      iszero\n      mul\n      or\n      swap1\n      sstore\n      pop\n        /* \"Documents/GitHub/Store-system-with-feedback/main.sol\":4716:4730  structProducts */\n      0x07\n        /* \"Documents/GitHub/Store-system-with-feedback/main.sol\":4731:4750  structStatusReturns */\n      0x0a\n        /* \"Documents/GitHub/Store-system-with-feedback/main.sol\":4751:4759  idReturn */\n      dup4\n        /* \"Documents/GitHub/Store-system-with-feedback/main.sol\":4731:4760  structStatusReturns[idReturn] */\n      dup2\n      sload\n      dup2\n      lt\n      tag_175\n      jumpi\n      tag_176\n      tag_136\n      jump\t// in\n    tag_176:\n    tag_175:\n      swap1\n      0x00\n      mstore\n      keccak256(0x00, 0x20)\n      swap1\n      0x03\n      mul\n      add\n        /* \"Documents/GitHub/Store-system-with-feedback/main.sol\":4731:4773  structStatusReturns[idReturn].titleProduct */\n      0x01\n      add\n        /* \"Documents/GitHub/Store-system-with-feedback/main.sol\":4716:4774  structProducts[structStatusReturns[idReturn].titleProduct] */\n      mload(0x40)\n      tag_178\n      swap2\n      swap1\n      tag_142\n      jump\t// in\n    tag_178:\n      swap1\n      dup2\n      mstore\n      0x20\n      add\n      mload(0x40)\n      dup1\n      swap2\n      sub\n      swap1\n      keccak256\n        /* \"Documents/GitHub/Store-system-with-feedback/main.sol\":4716:4780  structProducts[structStatusReturns[idReturn].titleProduct].price */\n      0x02\n      add\n      sload\n        /* \"Documents/GitHub/Store-system-with-feedback/main.sol\":4652:4663  structUsers */\n      0x04\n        /* \"Documents/GitHub/Store-system-with-feedback/main.sol\":4652:4704  structUsers[structStatusReturns[idReturn].userLogin] */\n      0x00\n        /* \"Documents/GitHub/Store-system-with-feedback/main.sol\":4664:4683  structStatusReturns */\n      0x0a\n        /* \"Documents/GitHub/Store-system-with-feedback/main.sol\":4684:4692  idReturn */\n      dup6\n        /* \"Documents/GitHub/Store-system-with-feedback/main.sol\":4664:4693  structStatusReturns[idReturn] */\n      dup2\n      sload\n      dup2\n      lt\n      tag_179\n      jumpi\n      tag_180\n      tag_136\n      jump\t// in\n    tag_180:\n    tag_179:\n      swap1\n      0x00\n      mstore\n      keccak256(0x00, 0x20)\n      swap1\n      0x03\n      mul\n      add\n        /* \"Documents/GitHub/Store-system-with-feedback/main.sol\":4664:4703  structStatusReturns[idReturn].userLogin */\n      0x00\n      add\n      0x00\n      swap1\n      sload\n      swap1\n      0x0100\n      exp\n      swap1\n      div\n      0xffffffffffffffffffffffffffffffffffffffff\n      and\n        /* \"Documents/GitHub/Store-system-with-feedback/main.sol\":4652:4704  structUsers[structStatusReturns[idReturn].userLogin] */\n      0xffffffffffffffffffffffffffffffffffffffff\n      and\n      0xffffffffffffffffffffffffffffffffffffffff\n      and\n      dup2\n      mstore\n      0x20\n      add\n      swap1\n      dup2\n      mstore\n      0x20\n      add\n      0x00\n      keccak256\n        /* \"Documents/GitHub/Store-system-with-feedback/main.sol\":4652:4713  structUsers[structStatusReturns[idReturn].userLogin].ballance */\n      0x02\n      add\n      sload\n        /* \"Documents/GitHub/Store-system-with-feedback/main.sol\":4652:4780  structUsers[structStatusReturns[idReturn].userLogin].ballance + structProducts[structStatusReturns[idReturn].titleProduct].price */\n      tag_182\n      swap2\n      swap1\n      tag_156\n      jump\t// in\n    tag_182:\n        /* \"Documents/GitHub/Store-system-with-feedback/main.sol\":4588:4599  structUsers */\n      0x04\n        /* \"Documents/GitHub/Store-system-with-feedback/main.sol\":4588:4640  structUsers[structStatusReturns[idReturn].userLogin] */\n      0x00\n        /* \"Documents/GitHub/Store-system-with-feedback/main.sol\":4600:4619  structStatusReturns */\n      0x0a\n        /* \"Documents/GitHub/Store-system-with-feedback/main.sol\":4620:4628  idReturn */\n      dup6\n        /* \"Documents/GitHub/Store-system-with-feedback/main.sol\":4600:4629  structStatusReturns[idReturn] */\n      dup2\n      sload\n      dup2\n      lt\n      tag_183\n      jumpi\n      tag_184\n      tag_136\n      jump\t// in\n    tag_184:\n    tag_183:\n      swap1\n      0x00\n      mstore\n      keccak256(0x00, 0x20)\n      swap1\n      0x03\n      mul\n      add\n        /* \"Documents/GitHub/Store-system-with-feedback/main.sol\":4600:4639  structStatusReturns[idReturn].userLogin */\n      0x00\n      add\n      0x00\n      swap1\n      sload\n      swap1\n      0x0100\n      exp\n      swap1\n      div\n      0xffffffffffffffffffffffffffffffffffffffff\n      and\n        /* \"Documents/GitHub/Store-system-with-feedback/main.sol\":4588:4640  structUsers[structStatusReturns[idReturn].userLogin] */\n      0xffffffffffffffffffffffffffffffffffffffff\n      and\n      0xffffffffffffffffffffffffffffffffffffffff\n      and\n      dup2\n      mstore\n      0x20\n      add\n      swap1\n      dup2\n      mstore\n      0x20\n      add\n      0x00\n      keccak256\n        /* \"Documents/GitHub/Store-system-with-feedback/main.sol\":4588:4649  structUsers[structStatusReturns[idReturn].userLogin].ballance */\n      0x02\n      add\n        /* \"Documents/GitHub/Store-system-with-feedback/main.sol\":4588:4780  structUsers[structStatusReturns[idReturn].userLogin].ballance = structUsers[structStatusReturns[idReturn].userLogin].ballance + structProducts[structStatusReturns[idReturn].titleProduct].price */\n      dup2\n      swap1\n      sstore\n      pop\n        /* \"Documents/GitHub/Store-system-with-feedback/main.sol\":4489:4869  if(confirmation == true) {\r... */\n      jump(tag_186)\n    tag_171:\n        /* \"Documents/GitHub/Store-system-with-feedback/main.sol\":4852:4857  false */\n      0x00\n        /* \"Documents/GitHub/Store-system-with-feedback/main.sol\":4813:4832  structStatusReturns */\n      0x0a\n        /* \"Documents/GitHub/Store-system-with-feedback/main.sol\":4833:4841  idReturn */\n      dup4\n        /* \"Documents/GitHub/Store-system-with-feedback/main.sol\":4813:4842  structStatusReturns[idReturn] */\n      dup2\n      sload\n      dup2\n      lt\n      tag_187\n      jumpi\n      tag_188\n      tag_136\n      jump\t// in\n    tag_188:\n    tag_187:\n      swap1\n      0x00\n      mstore\n      keccak256(0x00, 0x20)\n      swap1\n      0x03\n      mul\n      add\n        /* \"Documents/GitHub/Store-system-with-feedback/main.sol\":4813:4849  structStatusReturns[idReturn].status */\n      0x02\n      add\n      0x00\n        /* \"Documents/GitHub/Store-system-with-feedback/main.sol\":4813:4857  structStatusReturns[idReturn].status = false */\n      0x0100\n      exp\n      dup2\n      sload\n      dup2\n      0xff\n      mul\n      not\n      and\n      swap1\n      dup4\n      iszero\n      iszero\n      mul\n      or\n      swap1\n      sstore\n      pop\n        /* \"Documents/GitHub/Store-system-with-feedback/main.sol\":4489:4869  if(confirmation == true) {\r... */\n    tag_186:\n        /* \"Documents/GitHub/Store-system-with-feedback/main.sol\":4415:4876  function acceptReturn(uint idReturn, bool confirmation) public {\r... */\n      pop\n      pop\n      jump\t// out\n        /* \"Documents/GitHub/Store-system-with-feedback/main.sol\":6610:6794  function productMarriageRegistration (string memory titleProduct) public {\r... */\n    tag_53:\n        /* \"Documents/GitHub/Store-system-with-feedback/main.sol\":6694:6721  structMarriageRegistrations */\n      0x0b\n        /* \"Documents/GitHub/Store-system-with-feedback/main.sol\":6727:6785  structMarriageRegistration(msg.sender, titleProduct, true) */\n      mload(0x40)\n      dup1\n      0x60\n      add\n      0x40\n      mstore\n      dup1\n        /* \"Documents/GitHub/Store-system-with-feedback/main.sol\":6754:6764  msg.sender */\n      caller\n        /* \"Documents/GitHub/Store-system-with-feedback/main.sol\":6727:6785  structMarriageRegistration(msg.sender, titleProduct, true) */\n      0xffffffffffffffffffffffffffffffffffffffff\n      and\n      dup2\n      mstore\n      0x20\n      add\n        /* \"Documents/GitHub/Store-system-with-feedback/main.sol\":6766:6778  titleProduct */\n      dup4\n        /* \"Documents/GitHub/Store-system-with-feedback/main.sol\":6727:6785  structMarriageRegistration(msg.sender, titleProduct, true) */\n      dup2\n      mstore\n      0x20\n      add\n        /* \"Documents/GitHub/Store-system-with-feedback/main.sol\":6780:6784  true */\n      0x01\n        /* \"Documents/GitHub/Store-system-with-feedback/main.sol\":6727:6785  structMarriageRegistration(msg.sender, titleProduct, true) */\n      iszero\n      iszero\n      dup2\n      mstore\n      pop\n        /* \"Documents/GitHub/Store-system-with-feedback/main.sol\":6694:6786  structMarriageRegistrations.push(structMarriageRegistration(msg.sender, titleProduct, true)) */\n      swap1\n      dup1\n      0x01\n      dup2\n      sload\n      add\n      dup1\n      dup3\n      sstore\n      dup1\n      swap2\n      pop\n      pop\n      0x01\n      swap1\n      sub\n      swap1\n      0x00\n      mstore\n      keccak256(0x00, 0x20)\n      swap1\n      0x03\n      mul\n      add\n      0x00\n      swap1\n      swap2\n      swap1\n      swap2\n      swap1\n      swap2\n      pop\n      0x00\n      dup3\n      add\n      mload\n      dup2\n      0x00\n      add\n      exp(0x0100, 0x00)\n      dup2\n      sload\n      dup2\n      0xffffffffffffffffffffffffffffffffffffffff\n      mul\n      not\n      and\n      swap1\n      dup4\n      0xffffffffffffffffffffffffffffffffffffffff\n      and\n      mul\n      or\n      swap1\n      sstore\n      pop\n      0x20\n      dup3\n      add\n      mload\n      dup2\n      0x01\n      add\n      swap1\n      dup1\n      mload\n      swap1\n      0x20\n      add\n      swap1\n      tag_192\n      swap3\n      swap2\n      swap1\n      tag_169\n      jump\t// in\n    tag_192:\n      pop\n      0x40\n      dup3\n      add\n      mload\n      dup2\n      0x02\n      add\n      exp(0x0100, 0x00)\n      dup2\n      sload\n      dup2\n      0xff\n      mul\n      not\n      and\n      swap1\n      dup4\n      iszero\n      iszero\n      mul\n      or\n      swap1\n      sstore\n      pop\n      pop\n      pop\n        /* \"Documents/GitHub/Store-system-with-feedback/main.sol\":6610:6794  function productMarriageRegistration (string memory titleProduct) public {\r... */\n      pop\n      jump\t// out\n        /* \"Documents/GitHub/Store-system-with-feedback/main.sol\":5663:5763  function getProductList() public view returns(string[] memory) {\r... */\n    tag_56:\n        /* \"Documents/GitHub/Store-system-with-feedback/main.sol\":5709:5724  string[] memory */\n      0x60\n        /* \"Documents/GitHub/Store-system-with-feedback/main.sol\":5744:5755  productList */\n      0x08\n        /* \"Documents/GitHub/Store-system-with-feedback/main.sol\":5737:5755  return productList */\n      dup1\n      sload\n      dup1\n      0x20\n      mul\n      0x20\n      add\n      mload(0x40)\n      swap1\n      dup2\n      add\n      0x40\n      mstore\n      dup1\n      swap3\n      swap2\n      swap1\n      dup2\n      dup2\n      mstore\n      0x20\n      add\n      0x00\n      swap1\n    tag_194:\n      dup3\n      dup3\n      lt\n      iszero\n      tag_195\n      jumpi\n      dup4\n      dup3\n      swap1\n      0x00\n      mstore\n      keccak256(0x00, 0x20)\n      add\n      dup1\n      sload\n      tag_197\n      swap1\n      tag_117\n      jump\t// in\n    tag_197:\n      dup1\n      0x1f\n      add\n      0x20\n      dup1\n      swap2\n      div\n      mul\n      0x20\n      add\n      mload(0x40)\n      swap1\n      dup2\n      add\n      0x40\n      mstore\n      dup1\n      swap3\n      swap2\n      swap1\n      dup2\n      dup2\n      mstore\n      0x20\n      add\n      dup3\n      dup1\n      sload\n      tag_198\n      swap1\n      tag_117\n      jump\t// in\n    tag_198:\n      dup1\n      iszero\n      tag_199\n      jumpi\n      dup1\n      0x1f\n      lt\n      tag_200\n      jumpi\n      0x0100\n      dup1\n      dup4\n      sload\n      div\n      mul\n      dup4\n      mstore\n      swap2\n      0x20\n      add\n      swap2\n      jump(tag_199)\n    tag_200:\n      dup3\n      add\n      swap2\n      swap1\n      0x00\n      mstore\n      keccak256(0x00, 0x20)\n      swap1\n    tag_201:\n      dup2\n      sload\n      dup2\n      mstore\n      swap1\n      0x01\n      add\n      swap1\n      0x20\n      add\n      dup1\n      dup4\n      gt\n      tag_201\n      jumpi\n      dup3\n      swap1\n      sub\n      0x1f\n      and\n      dup3\n      add\n      swap2\n    tag_199:\n      pop\n      pop\n      pop\n      pop\n      pop\n      dup2\n      mstore\n      0x20\n      add\n      swap1\n      0x01\n      add\n      swap1\n      jump(tag_194)\n    tag_195:\n      pop\n      pop\n      pop\n      pop\n      swap1\n      pop\n        /* \"Documents/GitHub/Store-system-with-feedback/main.sol\":5663:5763  function getProductList() public view returns(string[] memory) {\r... */\n      swap1\n      jump\t// out\n        /* \"Documents/GitHub/Store-system-with-feedback/main.sol\":2961:3242  function addProductShop (string memory title, uint256 price, string memory description) public {\r... */\n    tag_63:\n        /* \"Documents/GitHub/Store-system-with-feedback/main.sol\":3091:3163  structProduct(msg.sender, description , price, addProductShop_idProduct) */\n      mload(0x40)\n      dup1\n      0x80\n      add\n      0x40\n      mstore\n      dup1\n        /* \"Documents/GitHub/Store-system-with-feedback/main.sol\":3105:3115  msg.sender */\n      caller\n        /* \"Documents/GitHub/Store-system-with-feedback/main.sol\":3091:3163  structProduct(msg.sender, description , price, addProductShop_idProduct) */\n      0xffffffffffffffffffffffffffffffffffffffff\n      and\n      dup2\n      mstore\n      0x20\n      add\n        /* \"Documents/GitHub/Store-system-with-feedback/main.sol\":3117:3128  description */\n      dup3\n        /* \"Documents/GitHub/Store-system-with-feedback/main.sol\":3091:3163  structProduct(msg.sender, description , price, addProductShop_idProduct) */\n      dup2\n      mstore\n      0x20\n      add\n        /* \"Documents/GitHub/Store-system-with-feedback/main.sol\":3131:3136  price */\n      dup4\n        /* \"Documents/GitHub/Store-system-with-feedback/main.sol\":3091:3163  structProduct(msg.sender, description , price, addProductShop_idProduct) */\n      dup2\n      mstore\n      0x20\n      add\n        /* \"Documents/GitHub/Store-system-with-feedback/main.sol\":3138:3162  addProductShop_idProduct */\n      sload(0x0c)\n        /* \"Documents/GitHub/Store-system-with-feedback/main.sol\":3091:3163  structProduct(msg.sender, description , price, addProductShop_idProduct) */\n      dup2\n      mstore\n      pop\n        /* \"Documents/GitHub/Store-system-with-feedback/main.sol\":3067:3081  structProducts */\n      0x07\n        /* \"Documents/GitHub/Store-system-with-feedback/main.sol\":3082:3087  title */\n      dup5\n        /* \"Documents/GitHub/Store-system-with-feedback/main.sol\":3067:3088  structProducts[title] */\n      mload(0x40)\n      tag_203\n      swap2\n      swap1\n      tag_163\n      jump\t// in\n    tag_203:\n      swap1\n      dup2\n      mstore\n      0x20\n      add\n      mload(0x40)\n      dup1\n      swap2\n      sub\n      swap1\n      keccak256\n        /* \"Documents/GitHub/Store-system-with-feedback/main.sol\":3067:3163  structProducts[title] = structProduct(msg.sender, description , price, addProductShop_idProduct) */\n      0x00\n      dup3\n      add\n      mload\n      dup2\n      0x00\n      add\n      exp(0x0100, 0x00)\n      dup2\n      sload\n      dup2\n      0xffffffffffffffffffffffffffffffffffffffff\n      mul\n      not\n      and\n      swap1\n      dup4\n      0xffffffffffffffffffffffffffffffffffffffff\n      and\n      mul\n      or\n      swap1\n      sstore\n      pop\n      0x20\n      dup3\n      add\n      mload\n      dup2\n      0x01\n      add\n      swap1\n      dup1\n      mload\n      swap1\n      0x20\n      add\n      swap1\n      tag_204\n      swap3\n      swap2\n      swap1\n      tag_169\n      jump\t// in\n    tag_204:\n      pop\n      0x40\n      dup3\n      add\n      mload\n      dup2\n      0x02\n      add\n      sstore\n      0x60\n      dup3\n      add\n      mload\n      dup2\n      0x03\n      add\n      sstore\n      swap1\n      pop\n      pop\n        /* \"Documents/GitHub/Store-system-with-feedback/main.sol\":3174:3185  productList */\n      0x08\n        /* \"Documents/GitHub/Store-system-with-feedback/main.sol\":3191:3196  title */\n      dup4\n        /* \"Documents/GitHub/Store-system-with-feedback/main.sol\":3174:3197  productList.push(title) */\n      swap1\n      dup1\n      0x01\n      dup2\n      sload\n      add\n      dup1\n      dup3\n      sstore\n      dup1\n      swap2\n      pop\n      pop\n      0x01\n      swap1\n      sub\n      swap1\n      0x00\n      mstore\n      keccak256(0x00, 0x20)\n      add\n      0x00\n      swap1\n      swap2\n      swap1\n      swap2\n      swap1\n      swap2\n      pop\n      swap1\n      dup1\n      mload\n      swap1\n      0x20\n      add\n      swap1\n      tag_206\n      swap3\n      swap2\n      swap1\n      tag_169\n      jump\t// in\n    tag_206:\n      pop\n        /* \"Documents/GitHub/Store-system-with-feedback/main.sol\":3208:3232  addProductShop_idProduct */\n      0x0c\n      0x00\n        /* \"Documents/GitHub/Store-system-with-feedback/main.sol\":3208:3234  addProductShop_idProduct++ */\n      dup2\n      sload\n      dup1\n      swap3\n      swap2\n      swap1\n      tag_207\n      swap1\n      tag_208\n      jump\t// in\n    tag_207:\n      swap2\n      swap1\n      pop\n      sstore\n      pop\n        /* \"Documents/GitHub/Store-system-with-feedback/main.sol\":2961:3242  function addProductShop (string memory title, uint256 price, string memory description) public {\r... */\n      pop\n      pop\n      pop\n      jump\t// out\n        /* \"Documents/GitHub/Store-system-with-feedback/main.sol\":2776:2839  structMarriageRegistration[] public structMarriageRegistrations */\n    tag_67:\n      0x0b\n      dup2\n      dup2\n      sload\n      dup2\n      lt\n      tag_209\n      jumpi\n      0x00\n      dup1\n      revert\n    tag_209:\n      swap1\n      0x00\n      mstore\n      keccak256(0x00, 0x20)\n      swap1\n      0x03\n      mul\n      add\n      0x00\n      swap2\n      pop\n      swap1\n      pop\n      dup1\n      0x00\n      add\n      0x00\n      swap1\n      sload\n      swap1\n      0x0100\n      exp\n      swap1\n      div\n      0xffffffffffffffffffffffffffffffffffffffff\n      and\n      swap1\n      dup1\n      0x01\n      add\n      dup1\n      sload\n      tag_211\n      swap1\n      tag_117\n      jump\t// in\n    tag_211:\n      dup1\n      0x1f\n      add\n      0x20\n      dup1\n      swap2\n      div\n      mul\n      0x20\n      add\n      mload(0x40)\n      swap1\n      dup2\n      add\n      0x40\n      mstore\n      dup1\n      swap3\n      swap2\n      swap1\n      dup2\n      dup2\n      mstore\n      0x20\n      add\n      dup3\n      dup1\n      sload\n      tag_212\n      swap1\n      tag_117\n      jump\t// in\n    tag_212:\n      dup1\n      iszero\n      tag_213\n      jumpi\n      dup1\n      0x1f\n      lt\n      tag_214\n      jumpi\n      0x0100\n      dup1\n      dup4\n      sload\n      div\n      mul\n      dup4\n      mstore\n      swap2\n      0x20\n      add\n      swap2\n      jump(tag_213)\n    tag_214:\n      dup3\n      add\n      swap2\n      swap1\n      0x00\n      mstore\n      keccak256(0x00, 0x20)\n      swap1\n    tag_215:\n      dup2\n      sload\n      dup2\n      mstore\n      swap1\n      0x01\n      add\n      swap1\n      0x20\n      add\n      dup1\n      dup4\n      gt\n      tag_215\n      jumpi\n      dup3\n      swap1\n      sub\n      0x1f\n      and\n      dup3\n      add\n      swap2\n    tag_213:\n      pop\n      pop\n      pop\n      pop\n      pop\n      swap1\n      dup1\n      0x02\n      add\n      0x00\n      swap1\n      sload\n      swap1\n      0x0100\n      exp\n      swap1\n      div\n      0xff\n      and\n      swap1\n      pop\n      dup4\n      jump\t// out\n        /* \"Documents/GitHub/Store-system-with-feedback/main.sol\":1806:1855  mapping(address => structUser) public structUsers */\n    tag_74:\n      mstore(0x20, 0x04)\n      dup1\n      0x00\n      mstore\n      keccak256(0x00, 0x40)\n      0x00\n      swap2\n      pop\n      swap1\n      pop\n      dup1\n      0x00\n      add\n      dup1\n      sload\n      tag_216\n      swap1\n      tag_117\n      jump\t// in\n    tag_216:\n      dup1\n      0x1f\n      add\n      0x20\n      dup1\n      swap2\n      div\n      mul\n      0x20\n      add\n      mload(0x40)\n      swap1\n      dup2\n      add\n      0x40\n      mstore\n      dup1\n      swap3\n      swap2\n      swap1\n      dup2\n      dup2\n      mstore\n      0x20\n      add\n      dup3\n      dup1\n      sload\n      tag_217\n      swap1\n      tag_117\n      jump\t// in\n    tag_217:\n      dup1\n      iszero\n      tag_218\n      jumpi\n      dup1\n      0x1f\n      lt\n      tag_219\n      jumpi\n      0x0100\n      dup1\n      dup4\n      sload\n      div\n      mul\n      dup4\n      mstore\n      swap2\n      0x20\n      add\n      swap2\n      jump(tag_218)\n    tag_219:\n      dup3\n      add\n      swap2\n      swap1\n      0x00\n      mstore\n      keccak256(0x00, 0x20)\n      swap1\n    tag_220:\n      dup2\n      sload\n      dup2\n      mstore\n      swap1\n      0x01\n      add\n      swap1\n      0x20\n      add\n      dup1\n      dup4\n      gt\n      tag_220\n      jumpi\n      dup3\n      swap1\n      sub\n      0x1f\n      and\n      dup3\n      add\n      swap2\n    tag_218:\n      pop\n      pop\n      pop\n      pop\n      pop\n      swap1\n      dup1\n      0x01\n      add\n      sload\n      swap1\n      dup1\n      0x02\n      add\n      sload\n      swap1\n      pop\n      dup4\n      jump\t// out\n        /* \"Documents/GitHub/Store-system-with-feedback/main.sol\":2556:2603  structStatusReturn[] public structStatusReturns */\n    tag_80:\n      0x0a\n      dup2\n      dup2\n      sload\n      dup2\n      lt\n      tag_221\n      jumpi\n      0x00\n      dup1\n      revert\n    tag_221:\n      swap1\n      0x00\n      mstore\n      keccak256(0x00, 0x20)\n      swap1\n      0x03\n      mul\n      add\n      0x00\n      swap2\n      pop\n      swap1\n      pop\n      dup1\n      0x00\n      add\n      0x00\n      swap1\n      sload\n      swap1\n      0x0100\n      exp\n      swap1\n      div\n      0xffffffffffffffffffffffffffffffffffffffff\n      and\n      swap1\n      dup1\n      0x01\n      add\n      dup1\n      sload\n      tag_223\n      swap1\n      tag_117\n      jump\t// in\n    tag_223:\n      dup1\n      0x1f\n      add\n      0x20\n      dup1\n      swap2\n      div\n      mul\n      0x20\n      add\n      mload(0x40)\n      swap1\n      dup2\n      add\n      0x40\n      mstore\n      dup1\n      swap3\n      swap2\n      swap1\n      dup2\n      dup2\n      mstore\n      0x20\n      add\n      dup3\n      dup1\n      sload\n      tag_224\n      swap1\n      tag_117\n      jump\t// in\n    tag_224:\n      dup1\n      iszero\n      tag_225\n      jumpi\n      dup1\n      0x1f\n      lt\n      tag_226\n      jumpi\n      0x0100\n      dup1\n      dup4\n      sload\n      div\n      mul\n      dup4\n      mstore\n      swap2\n      0x20\n      add\n      swap2\n      jump(tag_225)\n    tag_226:\n      dup3\n      add\n      swap2\n      swap1\n      0x00\n      mstore\n      keccak256(0x00, 0x20)\n      swap1\n    tag_227:\n      dup2\n      sload\n      dup2\n      mstore\n      swap1\n      0x01\n      add\n      swap1\n      0x20\n      add\n      dup1\n      dup4\n      gt\n      tag_227\n      jumpi\n      dup3\n      swap1\n      sub\n      0x1f\n      and\n      dup3\n      add\n      swap2\n    tag_225:\n      pop\n      pop\n      pop\n      pop\n      pop\n      swap1\n      dup1\n      0x02\n      add\n      0x00\n      swap1\n      sload\n      swap1\n      0x0100\n      exp\n      swap1\n      div\n      0xff\n      and\n      swap1\n      pop\n      dup4\n      jump\t// out\n        /* \"Documents/GitHub/Store-system-with-feedback/main.sol\":6410:6564  function productReturn (string memory titleProduct) public {\r... */\n    tag_85:\n        /* \"Documents/GitHub/Store-system-with-feedback/main.sol\":6480:6499  structStatusReturns */\n      0x0a\n        /* \"Documents/GitHub/Store-system-with-feedback/main.sol\":6505:6555  structStatusReturn(msg.sender, titleProduct, true) */\n      mload(0x40)\n      dup1\n      0x60\n      add\n      0x40\n      mstore\n      dup1\n        /* \"Documents/GitHub/Store-system-with-feedback/main.sol\":6524:6534  msg.sender */\n      caller\n        /* \"Documents/GitHub/Store-system-with-feedback/main.sol\":6505:6555  structStatusReturn(msg.sender, titleProduct, true) */\n      0xffffffffffffffffffffffffffffffffffffffff\n      and\n      dup2\n      mstore\n      0x20\n      add\n        /* \"Documents/GitHub/Store-system-with-feedback/main.sol\":6536:6548  titleProduct */\n      dup4\n        /* \"Documents/GitHub/Store-system-with-feedback/main.sol\":6505:6555  structStatusReturn(msg.sender, titleProduct, true) */\n      dup2\n      mstore\n      0x20\n      add\n        /* \"Documents/GitHub/Store-system-with-feedback/main.sol\":6550:6554  true */\n      0x01\n        /* \"Documents/GitHub/Store-system-with-feedback/main.sol\":6505:6555  structStatusReturn(msg.sender, titleProduct, true) */\n      iszero\n      iszero\n      dup2\n      mstore\n      pop\n        /* \"Documents/GitHub/Store-system-with-feedback/main.sol\":6480:6556  structStatusReturns.push(structStatusReturn(msg.sender, titleProduct, true)) */\n      swap1\n      dup1\n      0x01\n      dup2\n      sload\n      add\n      dup1\n      dup3\n      sstore\n      dup1\n      swap2\n      pop\n      pop\n      0x01\n      swap1\n      sub\n      swap1\n      0x00\n      mstore\n      keccak256(0x00, 0x20)\n      swap1\n      0x03\n      mul\n      add\n      0x00\n      swap1\n      swap2\n      swap1\n      swap2\n      swap1\n      swap2\n      pop\n      0x00\n      dup3\n      add\n      mload\n      dup2\n      0x00\n      add\n      exp(0x0100, 0x00)\n      dup2\n      sload\n      dup2\n      0xffffffffffffffffffffffffffffffffffffffff\n      mul\n      not\n      and\n      swap1\n      dup4\n      0xffffffffffffffffffffffffffffffffffffffff\n      and\n      mul\n      or\n      swap1\n      sstore\n      pop\n      0x20\n      dup3\n      add\n      mload\n      dup2\n      0x01\n      add\n      swap1\n      dup1\n      mload\n      swap1\n      0x20\n      add\n      swap1\n      tag_230\n      swap3\n      swap2\n      swap1\n      tag_169\n      jump\t// in\n    tag_230:\n      pop\n      0x40\n      dup3\n      add\n      mload\n      dup2\n      0x02\n      add\n      exp(0x0100, 0x00)\n      dup2\n      sload\n      dup2\n      0xff\n      mul\n      not\n      and\n      swap1\n      dup4\n      iszero\n      iszero\n      mul\n      or\n      swap1\n      sstore\n      pop\n      pop\n      pop\n        /* \"Documents/GitHub/Store-system-with-feedback/main.sol\":6410:6564  function productReturn (string memory titleProduct) public {\r... */\n      pop\n      jump\t// out\n        /* \"Documents/GitHub/Store-system-with-feedback/main.sol\":5533:5627  function getShopList() public view returns(string[] memory) {\r... */\n    tag_88:\n        /* \"Documents/GitHub/Store-system-with-feedback/main.sol\":5576:5591  string[] memory */\n      0x60\n        /* \"Documents/GitHub/Store-system-with-feedback/main.sol\":5611:5619  shopList */\n      0x02\n        /* \"Documents/GitHub/Store-system-with-feedback/main.sol\":5604:5619  return shopList */\n      dup1\n      sload\n      dup1\n      0x20\n      mul\n      0x20\n      add\n      mload(0x40)\n      swap1\n      dup2\n      add\n      0x40\n      mstore\n      dup1\n      swap3\n      swap2\n      swap1\n      dup2\n      dup2\n      mstore\n      0x20\n      add\n      0x00\n      swap1\n    tag_232:\n      dup3\n      dup3\n      lt\n      iszero\n      tag_233\n      jumpi\n      dup4\n      dup3\n      swap1\n      0x00\n      mstore\n      keccak256(0x00, 0x20)\n      add\n      dup1\n      sload\n      tag_235\n      swap1\n      tag_117\n      jump\t// in\n    tag_235:\n      dup1\n      0x1f\n      add\n      0x20\n      dup1\n      swap2\n      div\n      mul\n      0x20\n      add\n      mload(0x40)\n      swap1\n      dup2\n      add\n      0x40\n      mstore\n      dup1\n      swap3\n      swap2\n      swap1\n      dup2\n      dup2\n      mstore\n      0x20\n      add\n      dup3\n      dup1\n      sload\n      tag_236\n      swap1\n      tag_117\n      jump\t// in\n    tag_236:\n      dup1\n      iszero\n      tag_237\n      jumpi\n      dup1\n      0x1f\n      lt\n      tag_238\n      jumpi\n      0x0100\n      dup1\n      dup4\n      sload\n      div\n      mul\n      dup4\n      mstore\n      swap2\n      0x20\n      add\n      swap2\n      jump(tag_237)\n    tag_238:\n      dup3\n      add\n      swap2\n      swap1\n      0x00\n      mstore\n      keccak256(0x00, 0x20)\n      swap1\n    tag_239:\n      dup2\n      sload\n      dup2\n      mstore\n      swap1\n      0x01\n      add\n      swap1\n      0x20\n      add\n      dup1\n      dup4\n      gt\n      tag_239\n      jumpi\n      dup3\n      swap1\n      sub\n      0x1f\n      and\n      dup3\n      add\n      swap2\n    tag_237:\n      pop\n      pop\n      pop\n      pop\n      pop\n      dup2\n      mstore\n      0x20\n      add\n      swap1\n      0x01\n      add\n      swap1\n      jump(tag_232)\n    tag_233:\n      pop\n      pop\n      pop\n      pop\n      swap1\n      pop\n        /* \"Documents/GitHub/Store-system-with-feedback/main.sol\":5533:5627  function getShopList() public view returns(string[] memory) {\r... */\n      swap1\n      jump\t// out\n        /* \"Documents/GitHub/Store-system-with-feedback/main.sol\":1297:1340  mapping(string => address) public shopLists */\n    tag_93:\n      0x01\n      dup2\n      dup1\n      mload\n      0x20\n      dup2\n      add\n      dup3\n      add\n      dup1\n      mload\n      dup5\n      dup3\n      mstore\n      0x20\n      dup4\n      add\n      0x20\n      dup6\n      add\n      keccak256\n      dup2\n      dup4\n      mstore\n      dup1\n      swap6\n      pop\n      pop\n      pop\n      pop\n      pop\n      pop\n      0x00\n      swap2\n      pop\n      sload\n      swap1\n      0x0100\n      exp\n      swap1\n      div\n      0xffffffffffffffffffffffffffffffffffffffff\n      and\n      dup2\n      jump\t// out\n        /* \"Documents/GitHub/Store-system-with-feedback/main.sol\":3321:3695  function leaveFeedback (string memory shop, string memory feedback, uint256 rating) public payable {\r... */\n    tag_98:\n        /* \"Documents/GitHub/Store-system-with-feedback/main.sol\":3449:3451  10 */\n      0x0a\n        /* \"Documents/GitHub/Store-system-with-feedback/main.sol\":3439:3445  rating */\n      dup2\n        /* \"Documents/GitHub/Store-system-with-feedback/main.sol\":3439:3451  rating <= 10 */\n      gt\n      iszero\n        /* \"Documents/GitHub/Store-system-with-feedback/main.sol\":3431:3488  require(rating <= 10,\"error: rating can be from 1 to 10\") */\n      tag_241\n      jumpi\n      mload(0x40)\n      0x08c379a000000000000000000000000000000000000000000000000000000000\n      dup2\n      mstore\n      0x04\n      add\n      tag_242\n      swap1\n      tag_243\n      jump\t// in\n    tag_242:\n      mload(0x40)\n      dup1\n      swap2\n      sub\n      swap1\n      revert\n    tag_241:\n        /* \"Documents/GitHub/Store-system-with-feedback/main.sol\":3499:3525  string[] memory zerroArray */\n      0x60\n        /* \"Documents/GitHub/Store-system-with-feedback/main.sol\":3573:3656  complaintBook(shop, structUsers[msg.sender].userName, feedback, rating, zerroArray) */\n      mload(0x40)\n      dup1\n      0xa0\n      add\n      0x40\n      mstore\n      dup1\n        /* \"Documents/GitHub/Store-system-with-feedback/main.sol\":3587:3591  shop */\n      dup6\n        /* \"Documents/GitHub/Store-system-with-feedback/main.sol\":3573:3656  complaintBook(shop, structUsers[msg.sender].userName, feedback, rating, zerroArray) */\n      dup2\n      mstore\n      0x20\n      add\n        /* \"Documents/GitHub/Store-system-with-feedback/main.sol\":3593:3604  structUsers */\n      0x04\n        /* \"Documents/GitHub/Store-system-with-feedback/main.sol\":3593:3616  structUsers[msg.sender] */\n      0x00\n        /* \"Documents/GitHub/Store-system-with-feedback/main.sol\":3605:3615  msg.sender */\n      caller\n        /* \"Documents/GitHub/Store-system-with-feedback/main.sol\":3593:3616  structUsers[msg.sender] */\n      0xffffffffffffffffffffffffffffffffffffffff\n      and\n      0xffffffffffffffffffffffffffffffffffffffff\n      and\n      dup2\n      mstore\n      0x20\n      add\n      swap1\n      dup2\n      mstore\n      0x20\n      add\n      0x00\n      keccak256\n        /* \"Documents/GitHub/Store-system-with-feedback/main.sol\":3593:3625  structUsers[msg.sender].userName */\n      0x00\n      add\n        /* \"Documents/GitHub/Store-system-with-feedback/main.sol\":3573:3656  complaintBook(shop, structUsers[msg.sender].userName, feedback, rating, zerroArray) */\n      dup1\n      sload\n      tag_244\n      swap1\n      tag_117\n      jump\t// in\n    tag_244:\n      dup1\n      0x1f\n      add\n      0x20\n      dup1\n      swap2\n      div\n      mul\n      0x20\n      add\n      mload(0x40)\n      swap1\n      dup2\n      add\n      0x40\n      mstore\n      dup1\n      swap3\n      swap2\n      swap1\n      dup2\n      dup2\n      mstore\n      0x20\n      add\n      dup3\n      dup1\n      sload\n      tag_245\n      swap1\n      tag_117\n      jump\t// in\n    tag_245:\n      dup1\n      iszero\n      tag_246\n      jumpi\n      dup1\n      0x1f\n      lt\n      tag_247\n      jumpi\n      0x0100\n      dup1\n      dup4\n      sload\n      div\n      mul\n      dup4\n      mstore\n      swap2\n      0x20\n      add\n      swap2\n      jump(tag_246)\n    tag_247:\n      dup3\n      add\n      swap2\n      swap1\n      0x00\n      mstore\n      keccak256(0x00, 0x20)\n      swap1\n    tag_248:\n      dup2\n      sload\n      dup2\n      mstore\n      swap1\n      0x01\n      add\n      swap1\n      0x20\n      add\n      dup1\n      dup4\n      gt\n      tag_248\n      jumpi\n      dup3\n      swap1\n      sub\n      0x1f\n      and\n      dup3\n      add\n      swap2\n    tag_246:\n      pop\n      pop\n      pop\n      pop\n      pop\n      dup2\n      mstore\n      0x20\n      add\n        /* \"Documents/GitHub/Store-system-with-feedback/main.sol\":3627:3635  feedback */\n      dup5\n        /* \"Documents/GitHub/Store-system-with-feedback/main.sol\":3573:3656  complaintBook(shop, structUsers[msg.sender].userName, feedback, rating, zerroArray) */\n      dup2\n      mstore\n      0x20\n      add\n        /* \"Documents/GitHub/Store-system-with-feedback/main.sol\":3637:3643  rating */\n      dup4\n        /* \"Documents/GitHub/Store-system-with-feedback/main.sol\":3573:3656  complaintBook(shop, structUsers[msg.sender].userName, feedback, rating, zerroArray) */\n      dup2\n      mstore\n      0x20\n      add\n        /* \"Documents/GitHub/Store-system-with-feedback/main.sol\":3645:3655  zerroArray */\n      dup3\n        /* \"Documents/GitHub/Store-system-with-feedback/main.sol\":3573:3656  complaintBook(shop, structUsers[msg.sender].userName, feedback, rating, zerroArray) */\n      dup2\n      mstore\n      pop\n        /* \"Documents/GitHub/Store-system-with-feedback/main.sol\":3536:3550  complaintBooks */\n      0x03\n        /* \"Documents/GitHub/Store-system-with-feedback/main.sol\":3551:3569  countLeaveFeedback */\n      sload(0x0d)\n        /* \"Documents/GitHub/Store-system-with-feedback/main.sol\":3536:3570  complaintBooks[countLeaveFeedback] */\n      dup2\n      sload\n      dup2\n      lt\n      tag_249\n      jumpi\n      tag_250\n      tag_136\n      jump\t// in\n    tag_250:\n    tag_249:\n      swap1\n      0x00\n      mstore\n      keccak256(0x00, 0x20)\n      swap1\n      0x05\n      mul\n      add\n        /* \"Documents/GitHub/Store-system-with-feedback/main.sol\":3536:3656  complaintBooks[countLeaveFeedback] = complaintBook(shop, structUsers[msg.sender].userName, feedback, rating, zerroArray) */\n      0x00\n      dup3\n      add\n      mload\n      dup2\n      0x00\n      add\n      swap1\n      dup1\n      mload\n      swap1\n      0x20\n      add\n      swap1\n      tag_252\n      swap3\n      swap2\n      swap1\n      tag_169\n      jump\t// in\n    tag_252:\n      pop\n      0x20\n      dup3\n      add\n      mload\n      dup2\n      0x01\n      add\n      swap1\n      dup1\n      mload\n      swap1\n      0x20\n      add\n      swap1\n      tag_253\n      swap3\n      swap2\n      swap1\n      tag_169\n      jump\t// in\n    tag_253:\n      pop\n      0x40\n      dup3\n      add\n      mload\n      dup2\n      0x02\n      add\n      swap1\n      dup1\n      mload\n      swap1\n      0x20\n      add\n      swap1\n      tag_254\n      swap3\n      swap2\n      swap1\n      tag_169\n      jump\t// in\n    tag_254:\n      pop\n      0x60\n      dup3\n      add\n      mload\n      dup2\n      0x03\n      add\n      sstore\n      0x80\n      dup3\n      add\n      mload\n      dup2\n      0x04\n      add\n      swap1\n      dup1\n      mload\n      swap1\n      0x20\n      add\n      swap1\n      tag_255\n      swap3\n      swap2\n      swap1\n      tag_256\n      jump\t// in\n    tag_255:\n      pop\n      swap1\n      pop\n      pop\n        /* \"Documents/GitHub/Store-system-with-feedback/main.sol\":3667:3685  countLeaveFeedback */\n      0x0d\n      0x00\n        /* \"Documents/GitHub/Store-system-with-feedback/main.sol\":3667:3687  countLeaveFeedback++ */\n      dup2\n      sload\n      dup1\n      swap3\n      swap2\n      swap1\n      tag_257\n      swap1\n      tag_208\n      jump\t// in\n    tag_257:\n      swap2\n      swap1\n      pop\n      sstore\n      pop\n        /* \"Documents/GitHub/Store-system-with-feedback/main.sol\":3420:3695  {\r... */\n      pop\n        /* \"Documents/GitHub/Store-system-with-feedback/main.sol\":3321:3695  function leaveFeedback (string memory shop, string memory feedback, uint256 rating) public payable {\r... */\n      pop\n      pop\n      pop\n      jump\t// out\n        /* \"Documents/GitHub/Store-system-with-feedback/main.sol\":2105:2159  mapping(string => structProduct) public structProducts */\n    tag_102:\n      0x07\n      dup2\n      dup1\n      mload\n      0x20\n      dup2\n      add\n      dup3\n      add\n      dup1\n      mload\n      dup5\n      dup3\n      mstore\n      0x20\n      dup4\n      add\n      0x20\n      dup6\n      add\n      keccak256\n      dup2\n      dup4\n      mstore\n      dup1\n      swap6\n      pop\n      pop\n      pop\n      pop\n      pop\n      pop\n      0x00\n      swap2\n      pop\n      swap1\n      pop\n      dup1\n      0x00\n      add\n      0x00\n      swap1\n      sload\n      swap1\n      0x0100\n      exp\n      swap1\n      div\n      0xffffffffffffffffffffffffffffffffffffffff\n      and\n      swap1\n      dup1\n      0x01\n      add\n      dup1\n      sload\n      tag_258\n      swap1\n      tag_117\n      jump\t// in\n    tag_258:\n      dup1\n      0x1f\n      add\n      0x20\n      dup1\n      swap2\n      div\n      mul\n      0x20\n      add\n      mload(0x40)\n      swap1\n      dup2\n      add\n      0x40\n      mstore\n      dup1\n      swap3\n      swap2\n      swap1\n      dup2\n      dup2\n      mstore\n      0x20\n      add\n      dup3\n      dup1\n      sload\n      tag_259\n      swap1\n      tag_117\n      jump\t// in\n    tag_259:\n      dup1\n      iszero\n      tag_260\n      jumpi\n      dup1\n      0x1f\n      lt\n      tag_261\n      jumpi\n      0x0100\n      dup1\n      dup4\n      sload\n      div\n      mul\n      dup4\n      mstore\n      swap2\n      0x20\n      add\n      swap2\n      jump(tag_260)\n    tag_261:\n      dup3\n      add\n      swap2\n      swap1\n      0x00\n      mstore\n      keccak256(0x00, 0x20)\n      swap1\n    tag_262:\n      dup2\n      sload\n      dup2\n      mstore\n      swap1\n      0x01\n      add\n      swap1\n      0x20\n      add\n      dup1\n      dup4\n      gt\n      tag_262\n      jumpi\n      dup3\n      swap1\n      sub\n      0x1f\n      and\n      dup3\n      add\n      swap2\n    tag_260:\n      pop\n      pop\n      pop\n      pop\n      pop\n      swap1\n      dup1\n      0x02\n      add\n      sload\n      swap1\n      dup1\n      0x03\n      add\n      sload\n      swap1\n      pop\n      dup5\n      jump\t// out\n        /* \"Documents/GitHub/Store-system-with-feedback/main.sol\":2348:2399  structStatusPurchase[] public structStatusPurchases */\n    tag_108:\n      0x09\n      dup2\n      dup2\n      sload\n      dup2\n      lt\n      tag_263\n      jumpi\n      0x00\n      dup1\n      revert\n    tag_263:\n      swap1\n      0x00\n      mstore\n      keccak256(0x00, 0x20)\n      swap1\n      0x03\n      mul\n      add\n      0x00\n      swap2\n      pop\n      swap1\n      pop\n      dup1\n      0x00\n      add\n      0x00\n      swap1\n      sload\n      swap1\n      0x0100\n      exp\n      swap1\n      div\n      0xffffffffffffffffffffffffffffffffffffffff\n      and\n      swap1\n      dup1\n      0x01\n      add\n      dup1\n      sload\n      tag_265\n      swap1\n      tag_117\n      jump\t// in\n    tag_265:\n      dup1\n      0x1f\n      add\n      0x20\n      dup1\n      swap2\n      div\n      mul\n      0x20\n      add\n      mload(0x40)\n      swap1\n      dup2\n      add\n      0x40\n      mstore\n      dup1\n      swap3\n      swap2\n      swap1\n      dup2\n      dup2\n      mstore\n      0x20\n      add\n      dup3\n      dup1\n      sload\n      tag_266\n      swap1\n      tag_117\n      jump\t// in\n    tag_266:\n      dup1\n      iszero\n      tag_267\n      jumpi\n      dup1\n      0x1f\n      lt\n      tag_268\n      jumpi\n      0x0100\n      dup1\n      dup4\n      sload\n      div\n      mul\n      dup4\n      mstore\n      swap2\n      0x20\n      add\n      swap2\n      jump(tag_267)\n    tag_268:\n      dup3\n      add\n      swap2\n      swap1\n      0x00\n      mstore\n      keccak256(0x00, 0x20)\n      swap1\n    tag_269:\n      dup2\n      sload\n      dup2\n      mstore\n      swap1\n      0x01\n      add\n      swap1\n      0x20\n      add\n      dup1\n      dup4\n      gt\n      tag_269\n      jumpi\n      dup3\n      swap1\n      sub\n      0x1f\n      and\n      dup3\n      add\n      swap2\n    tag_267:\n      pop\n      pop\n      pop\n      pop\n      pop\n      swap1\n      dup1\n      0x02\n      add\n      0x00\n      swap1\n      sload\n      swap1\n      0x0100\n      exp\n      swap1\n      div\n      0xff\n      and\n      swap1\n      pop\n      dup4\n      jump\t// out\n        /* \"Documents/GitHub/Store-system-with-feedback/main.sol\":4922:5499  function MarriageRegistration(uint idMarriageRegistration, bool confirmation) public {\r... */\n    tag_113:\n        /* \"Documents/GitHub/Store-system-with-feedback/main.sol\":5037:5041  true */\n      0x01\n        /* \"Documents/GitHub/Store-system-with-feedback/main.sol\":5021:5041  confirmation == true */\n      iszero\n      iszero\n        /* \"Documents/GitHub/Store-system-with-feedback/main.sol\":5021:5033  confirmation */\n      dup2\n        /* \"Documents/GitHub/Store-system-with-feedback/main.sol\":5021:5041  confirmation == true */\n      iszero\n      iszero\n      eq\n        /* \"Documents/GitHub/Store-system-with-feedback/main.sol\":5018:5492  if(confirmation == true) {\r... */\n      iszero\n      tag_271\n      jumpi\n        /* \"Documents/GitHub/Store-system-with-feedback/main.sol\":5111:5116  false */\n      0x00\n        /* \"Documents/GitHub/Store-system-with-feedback/main.sol\":5058:5077  structStatusReturns */\n      0x0a\n        /* \"Documents/GitHub/Store-system-with-feedback/main.sol\":5078:5100  idMarriageRegistration */\n      dup4\n        /* \"Documents/GitHub/Store-system-with-feedback/main.sol\":5058:5101  structStatusReturns[idMarriageRegistration] */\n      dup2\n      sload\n      dup2\n      lt\n      tag_272\n      jumpi\n      tag_273\n      tag_136\n      jump\t// in\n    tag_273:\n    tag_272:\n      swap1\n      0x00\n      mstore\n      keccak256(0x00, 0x20)\n      swap1\n      0x03\n      mul\n      add\n        /* \"Documents/GitHub/Store-system-with-feedback/main.sol\":5058:5108  structStatusReturns[idMarriageRegistration].status */\n      0x02\n      add\n      0x00\n        /* \"Documents/GitHub/Store-system-with-feedback/main.sol\":5058:5116  structStatusReturns[idMarriageRegistration].status = false */\n      0x0100\n      exp\n      dup2\n      sload\n      dup2\n      0xff\n      mul\n      not\n      and\n      swap1\n      dup4\n      iszero\n      iszero\n      mul\n      or\n      swap1\n      sstore\n      pop\n        /* \"Documents/GitHub/Store-system-with-feedback/main.sol\":5303:5317  structProducts */\n      0x07\n        /* \"Documents/GitHub/Store-system-with-feedback/main.sol\":5318:5345  structMarriageRegistrations */\n      0x0b\n        /* \"Documents/GitHub/Store-system-with-feedback/main.sol\":5346:5368  idMarriageRegistration */\n      dup4\n        /* \"Documents/GitHub/Store-system-with-feedback/main.sol\":5318:5369  structMarriageRegistrations[idMarriageRegistration] */\n      dup2\n      sload\n      dup2\n      lt\n      tag_275\n      jumpi\n      tag_276\n      tag_136\n      jump\t// in\n    tag_276:\n    tag_275:\n      swap1\n      0x00\n      mstore\n      keccak256(0x00, 0x20)\n      swap1\n      0x03\n      mul\n      add\n        /* \"Documents/GitHub/Store-system-with-feedback/main.sol\":5318:5382  structMarriageRegistrations[idMarriageRegistration].titleProduct */\n      0x01\n      add\n        /* \"Documents/GitHub/Store-system-with-feedback/main.sol\":5303:5383  structProducts[structMarriageRegistrations[idMarriageRegistration].titleProduct] */\n      mload(0x40)\n      tag_278\n      swap2\n      swap1\n      tag_142\n      jump\t// in\n    tag_278:\n      swap1\n      dup2\n      mstore\n      0x20\n      add\n      mload(0x40)\n      dup1\n      swap2\n      sub\n      swap1\n      keccak256\n        /* \"Documents/GitHub/Store-system-with-feedback/main.sol\":5303:5389  structProducts[structMarriageRegistrations[idMarriageRegistration].titleProduct].price */\n      0x02\n      add\n      sload\n        /* \"Documents/GitHub/Store-system-with-feedback/main.sol\":5217:5228  structUsers */\n      0x04\n        /* \"Documents/GitHub/Store-system-with-feedback/main.sol\":5217:5291  structUsers[structMarriageRegistrations[idMarriageRegistration].userLogin] */\n      0x00\n        /* \"Documents/GitHub/Store-system-with-feedback/main.sol\":5229:5256  structMarriageRegistrations */\n      0x0b\n        /* \"Documents/GitHub/Store-system-with-feedback/main.sol\":5257:5279  idMarriageRegistration */\n      dup6\n        /* \"Documents/GitHub/Store-system-with-feedback/main.sol\":5229:5280  structMarriageRegistrations[idMarriageRegistration] */\n      dup2\n      sload\n      dup2\n      lt\n      tag_279\n      jumpi\n      tag_280\n      tag_136\n      jump\t// in\n    tag_280:\n    tag_279:\n      swap1\n      0x00\n      mstore\n      keccak256(0x00, 0x20)\n      swap1\n      0x03\n      mul\n      add\n        /* \"Documents/GitHub/Store-system-with-feedback/main.sol\":5229:5290  structMarriageRegistrations[idMarriageRegistration].userLogin */\n      0x00\n      add\n      0x00\n      swap1\n      sload\n      swap1\n      0x0100\n      exp\n      swap1\n      div\n      0xffffffffffffffffffffffffffffffffffffffff\n      and\n        /* \"Documents/GitHub/Store-system-with-feedback/main.sol\":5217:5291  structUsers[structMarriageRegistrations[idMarriageRegistration].userLogin] */\n      0xffffffffffffffffffffffffffffffffffffffff\n      and\n      0xffffffffffffffffffffffffffffffffffffffff\n      and\n      dup2\n      mstore\n      0x20\n      add\n      swap1\n      dup2\n      mstore\n      0x20\n      add\n      0x00\n      keccak256\n        /* \"Documents/GitHub/Store-system-with-feedback/main.sol\":5217:5300  structUsers[structMarriageRegistrations[idMarriageRegistration].userLogin].ballance */\n      0x02\n      add\n      sload\n        /* \"Documents/GitHub/Store-system-with-feedback/main.sol\":5217:5389  structUsers[structMarriageRegistrations[idMarriageRegistration].userLogin].ballance + structProducts[structMarriageRegistrations[idMarriageRegistration].titleProduct].price */\n      tag_282\n      swap2\n      swap1\n      tag_156\n      jump\t// in\n    tag_282:\n        /* \"Documents/GitHub/Store-system-with-feedback/main.sol\":5131:5142  structUsers */\n      0x04\n        /* \"Documents/GitHub/Store-system-with-feedback/main.sol\":5131:5205  structUsers[structMarriageRegistrations[idMarriageRegistration].userLogin] */\n      0x00\n        /* \"Documents/GitHub/Store-system-with-feedback/main.sol\":5143:5170  structMarriageRegistrations */\n      0x0b\n        /* \"Documents/GitHub/Store-system-with-feedback/main.sol\":5171:5193  idMarriageRegistration */\n      dup6\n        /* \"Documents/GitHub/Store-system-with-feedback/main.sol\":5143:5194  structMarriageRegistrations[idMarriageRegistration] */\n      dup2\n      sload\n      dup2\n      lt\n      tag_283\n      jumpi\n      tag_284\n      tag_136\n      jump\t// in\n    tag_284:\n    tag_283:\n      swap1\n      0x00\n      mstore\n      keccak256(0x00, 0x20)\n      swap1\n      0x03\n      mul\n      add\n        /* \"Documents/GitHub/Store-system-with-feedback/main.sol\":5143:5204  structMarriageRegistrations[idMarriageRegistration].userLogin */\n      0x00\n      add\n      0x00\n      swap1\n      sload\n      swap1\n      0x0100\n      exp\n      swap1\n      div\n      0xffffffffffffffffffffffffffffffffffffffff\n      and\n        /* \"Documents/GitHub/Store-system-with-feedback/main.sol\":5131:5205  structUsers[structMarriageRegistrations[idMarriageRegistration].userLogin] */\n      0xffffffffffffffffffffffffffffffffffffffff\n      and\n      0xffffffffffffffffffffffffffffffffffffffff\n      and\n      dup2\n      mstore\n      0x20\n      add\n      swap1\n      dup2\n      mstore\n      0x20\n      add\n      0x00\n      keccak256\n        /* \"Documents/GitHub/Store-system-with-feedback/main.sol\":5131:5214  structUsers[structMarriageRegistrations[idMarriageRegistration].userLogin].ballance */\n      0x02\n      add\n        /* \"Documents/GitHub/Store-system-with-feedback/main.sol\":5131:5389  structUsers[structMarriageRegistrations[idMarriageRegistration].userLogin].ballance = structUsers[structMarriageRegistrations[idMarriageRegistration].userLogin].ballance + structProducts[structMarriageRegistrations[idMarriageRegistration].titleProduct].price */\n      dup2\n      swap1\n      sstore\n      pop\n        /* \"Documents/GitHub/Store-system-with-feedback/main.sol\":5018:5492  if(confirmation == true) {\r... */\n      jump(tag_286)\n    tag_271:\n        /* \"Documents/GitHub/Store-system-with-feedback/main.sol\":5475:5480  false */\n      0x00\n        /* \"Documents/GitHub/Store-system-with-feedback/main.sol\":5422:5441  structStatusReturns */\n      0x0a\n        /* \"Documents/GitHub/Store-system-with-feedback/main.sol\":5442:5464  idMarriageRegistration */\n      dup4\n        /* \"Documents/GitHub/Store-system-with-feedback/main.sol\":5422:5465  structStatusReturns[idMarriageRegistration] */\n      dup2\n      sload\n      dup2\n      lt\n      tag_287\n      jumpi\n      tag_288\n      tag_136\n      jump\t// in\n    tag_288:\n    tag_287:\n      swap1\n      0x00\n      mstore\n      keccak256(0x00, 0x20)\n      swap1\n      0x03\n      mul\n      add\n        /* \"Documents/GitHub/Store-system-with-feedback/main.sol\":5422:5472  structStatusReturns[idMarriageRegistration].status */\n      0x02\n      add\n      0x00\n        /* \"Documents/GitHub/Store-system-with-feedback/main.sol\":5422:5480  structStatusReturns[idMarriageRegistration].status = false */\n      0x0100\n      exp\n      dup2\n      sload\n      dup2\n      0xff\n      mul\n      not\n      and\n      swap1\n      dup4\n      iszero\n      iszero\n      mul\n      or\n      swap1\n      sstore\n      pop\n        /* \"Documents/GitHub/Store-system-with-feedback/main.sol\":5018:5492  if(confirmation == true) {\r... */\n    tag_286:\n        /* \"Documents/GitHub/Store-system-with-feedback/main.sol\":4922:5499  function MarriageRegistration(uint idMarriageRegistration, bool confirmation) public {\r... */\n      pop\n      pop\n      jump\t// out\n    tag_169:\n      dup3\n      dup1\n      sload\n      tag_290\n      swap1\n      tag_117\n      jump\t// in\n    tag_290:\n      swap1\n      0x00\n      mstore\n      keccak256(0x00, 0x20)\n      swap1\n      0x1f\n      add\n      0x20\n      swap1\n      div\n      dup2\n      add\n      swap3\n      dup3\n      tag_292\n      jumpi\n      0x00\n      dup6\n      sstore\n      jump(tag_291)\n    tag_292:\n      dup3\n      0x1f\n      lt\n      tag_293\n      jumpi\n      dup1\n      mload\n      not(0xff)\n      and\n      dup4\n      dup1\n      add\n      or\n      dup6\n      sstore\n      jump(tag_291)\n    tag_293:\n      dup3\n      dup1\n      add\n      0x01\n      add\n      dup6\n      sstore\n      dup3\n      iszero\n      tag_291\n      jumpi\n      swap2\n      dup3\n      add\n    tag_294:\n      dup3\n      dup2\n      gt\n      iszero\n      tag_295\n      jumpi\n      dup3\n      mload\n      dup3\n      sstore\n      swap2\n      0x20\n      add\n      swap2\n      swap1\n      0x01\n      add\n      swap1\n      jump(tag_294)\n    tag_295:\n    tag_291:\n      pop\n      swap1\n      pop\n      tag_296\n      swap2\n      swap1\n      tag_297\n      jump\t// in\n    tag_296:\n      pop\n      swap1\n      jump\t// out\n    tag_256:\n      dup3\n      dup1\n      sload\n      dup3\n      dup3\n      sstore\n      swap1\n      0x00\n      mstore\n      keccak256(0x00, 0x20)\n      swap1\n      dup2\n      add\n      swap3\n      dup3\n      iszero\n      tag_298\n      jumpi\n      swap2\n      0x20\n      mul\n      dup3\n      add\n    tag_299:\n      dup3\n      dup2\n      gt\n      iszero\n      tag_300\n      jumpi\n      dup3\n      mload\n      dup3\n      swap1\n      dup1\n      mload\n      swap1\n      0x20\n      add\n      swap1\n      tag_301\n      swap3\n      swap2\n      swap1\n      tag_169\n      jump\t// in\n    tag_301:\n      pop\n      swap2\n      0x20\n      add\n      swap2\n      swap1\n      0x01\n      add\n      swap1\n      jump(tag_299)\n    tag_300:\n    tag_298:\n      pop\n      swap1\n      pop\n      tag_302\n      swap2\n      swap1\n      tag_303\n      jump\t// in\n    tag_302:\n      pop\n      swap1\n      jump\t// out\n    tag_297:\n    tag_304:\n      dup1\n      dup3\n      gt\n      iszero\n      tag_305\n      jumpi\n      0x00\n      dup2\n      0x00\n      swap1\n      sstore\n      pop\n      0x01\n      add\n      jump(tag_304)\n    tag_305:\n      pop\n      swap1\n      jump\t// out\n    tag_303:\n    tag_306:\n      dup1\n      dup3\n      gt\n      iszero\n      tag_307\n      jumpi\n      0x00\n      dup2\n      dup2\n      tag_308\n      swap2\n      swap1\n      tag_309\n      jump\t// in\n    tag_308:\n      pop\n      0x01\n      add\n      jump(tag_306)\n    tag_307:\n      pop\n      swap1\n      jump\t// out\n    tag_309:\n      pop\n      dup1\n      sload\n      tag_310\n      swap1\n      tag_117\n      jump\t// in\n    tag_310:\n      0x00\n      dup3\n      sstore\n      dup1\n      0x1f\n      lt\n      tag_312\n      jumpi\n      pop\n      jump(tag_311)\n    tag_312:\n      0x1f\n      add\n      0x20\n      swap1\n      div\n      swap1\n      0x00\n      mstore\n      keccak256(0x00, 0x20)\n      swap1\n      dup2\n      add\n      swap1\n      tag_313\n      swap2\n      swap1\n      tag_297\n      jump\t// in\n    tag_313:\n    tag_311:\n      pop\n      jump\t// out\n        /* \"#utility.yul\":7:419   */\n    tag_315:\n        /* \"#utility.yul\":85:90   */\n      0x00\n        /* \"#utility.yul\":110:176   */\n      tag_317\n        /* \"#utility.yul\":126:175   */\n      tag_318\n        /* \"#utility.yul\":168:174   */\n      dup5\n        /* \"#utility.yul\":126:175   */\n      tag_319\n      jump\t// in\n    tag_318:\n        /* \"#utility.yul\":110:176   */\n      tag_320\n      jump\t// in\n    tag_317:\n        /* \"#utility.yul\":101:176   */\n      swap1\n      pop\n        /* \"#utility.yul\":199:205   */\n      dup3\n        /* \"#utility.yul\":192:197   */\n      dup2\n        /* \"#utility.yul\":185:206   */\n      mstore\n        /* \"#utility.yul\":237:241   */\n      0x20\n        /* \"#utility.yul\":230:235   */\n      dup2\n        /* \"#utility.yul\":226:242   */\n      add\n        /* \"#utility.yul\":275:278   */\n      dup5\n        /* \"#utility.yul\":266:272   */\n      dup5\n        /* \"#utility.yul\":261:264   */\n      dup5\n        /* \"#utility.yul\":257:273   */\n      add\n        /* \"#utility.yul\":254:279   */\n      gt\n        /* \"#utility.yul\":251:363   */\n      iszero\n      tag_321\n      jumpi\n        /* \"#utility.yul\":282:361   */\n      tag_322\n      tag_323\n      jump\t// in\n    tag_322:\n        /* \"#utility.yul\":251:363   */\n    tag_321:\n        /* \"#utility.yul\":372:413   */\n      tag_324\n        /* \"#utility.yul\":406:412   */\n      dup5\n        /* \"#utility.yul\":401:404   */\n      dup3\n        /* \"#utility.yul\":396:399   */\n      dup6\n        /* \"#utility.yul\":372:413   */\n      tag_325\n      jump\t// in\n    tag_324:\n        /* \"#utility.yul\":91:419   */\n      pop\n        /* \"#utility.yul\":7:419   */\n      swap4\n      swap3\n      pop\n      pop\n      pop\n      jump\t// out\n        /* \"#utility.yul\":425:564   */\n    tag_326:\n        /* \"#utility.yul\":471:476   */\n      0x00\n        /* \"#utility.yul\":509:515   */\n      dup2\n        /* \"#utility.yul\":496:516   */\n      calldataload\n        /* \"#utility.yul\":487:516   */\n      swap1\n      pop\n        /* \"#utility.yul\":525:558   */\n      tag_328\n        /* \"#utility.yul\":552:557   */\n      dup2\n        /* \"#utility.yul\":525:558   */\n      tag_329\n      jump\t// in\n    tag_328:\n        /* \"#utility.yul\":425:564   */\n      swap3\n      swap2\n      pop\n      pop\n      jump\t// out\n        /* \"#utility.yul\":570:703   */\n    tag_330:\n        /* \"#utility.yul\":613:618   */\n      0x00\n        /* \"#utility.yul\":651:657   */\n      dup2\n        /* \"#utility.yul\":638:658   */\n      calldataload\n        /* \"#utility.yul\":629:658   */\n      swap1\n      pop\n        /* \"#utility.yul\":667:697   */\n      tag_332\n        /* \"#utility.yul\":691:696   */\n      dup2\n        /* \"#utility.yul\":667:697   */\n      tag_333\n      jump\t// in\n    tag_332:\n        /* \"#utility.yul\":570:703   */\n      swap3\n      swap2\n      pop\n      pop\n      jump\t// out\n        /* \"#utility.yul\":723:1063   */\n    tag_334:\n        /* \"#utility.yul\":779:784   */\n      0x00\n        /* \"#utility.yul\":828:831   */\n      dup3\n        /* \"#utility.yul\":821:825   */\n      0x1f\n        /* \"#utility.yul\":813:819   */\n      dup4\n        /* \"#utility.yul\":809:826   */\n      add\n        /* \"#utility.yul\":805:832   */\n      slt\n        /* \"#utility.yul\":795:917   */\n      tag_336\n      jumpi\n        /* \"#utility.yul\":836:915   */\n      tag_337\n      tag_338\n      jump\t// in\n    tag_337:\n        /* \"#utility.yul\":795:917   */\n    tag_336:\n        /* \"#utility.yul\":953:959   */\n      dup2\n        /* \"#utility.yul\":940:960   */\n      calldataload\n        /* \"#utility.yul\":978:1057   */\n      tag_339\n        /* \"#utility.yul\":1053:1056   */\n      dup5\n        /* \"#utility.yul\":1045:1051   */\n      dup3\n        /* \"#utility.yul\":1038:1042   */\n      0x20\n        /* \"#utility.yul\":1030:1036   */\n      dup7\n        /* \"#utility.yul\":1026:1043   */\n      add\n        /* \"#utility.yul\":978:1057   */\n      tag_315\n      jump\t// in\n    tag_339:\n        /* \"#utility.yul\":969:1057   */\n      swap2\n      pop\n        /* \"#utility.yul\":785:1063   */\n      pop\n        /* \"#utility.yul\":723:1063   */\n      swap3\n      swap2\n      pop\n      pop\n      jump\t// out\n        /* \"#utility.yul\":1069:1208   */\n    tag_340:\n        /* \"#utility.yul\":1115:1120   */\n      0x00\n        /* \"#utility.yul\":1153:1159   */\n      dup2\n        /* \"#utility.yul\":1140:1160   */\n      calldataload\n        /* \"#utility.yul\":1131:1160   */\n      swap1\n      pop\n        /* \"#utility.yul\":1169:1202   */\n      tag_342\n        /* \"#utility.yul\":1196:1201   */\n      dup2\n        /* \"#utility.yul\":1169:1202   */\n      tag_343\n      jump\t// in\n    tag_342:\n        /* \"#utility.yul\":1069:1208   */\n      swap3\n      swap2\n      pop\n      pop\n      jump\t// out\n        /* \"#utility.yul\":1214:1543   */\n    tag_73:\n        /* \"#utility.yul\":1273:1279   */\n      0x00\n        /* \"#utility.yul\":1322:1324   */\n      0x20\n        /* \"#utility.yul\":1310:1319   */\n      dup3\n        /* \"#utility.yul\":1301:1308   */\n      dup5\n        /* \"#utility.yul\":1297:1320   */\n      sub\n        /* \"#utility.yul\":1293:1325   */\n      slt\n        /* \"#utility.yul\":1290:1409   */\n      iszero\n      tag_345\n      jumpi\n        /* \"#utility.yul\":1328:1407   */\n      tag_346\n      tag_347\n      jump\t// in\n    tag_346:\n        /* \"#utility.yul\":1290:1409   */\n    tag_345:\n        /* \"#utility.yul\":1448:1449   */\n      0x00\n        /* \"#utility.yul\":1473:1526   */\n      tag_348\n        /* \"#utility.yul\":1518:1525   */\n      dup5\n        /* \"#utility.yul\":1509:1515   */\n      dup3\n        /* \"#utility.yul\":1498:1507   */\n      dup6\n        /* \"#utility.yul\":1494:1516   */\n      add\n        /* \"#utility.yul\":1473:1526   */\n      tag_326\n      jump\t// in\n    tag_348:\n        /* \"#utility.yul\":1463:1526   */\n      swap2\n      pop\n        /* \"#utility.yul\":1419:1536   */\n      pop\n        /* \"#utility.yul\":1214:1543   */\n      swap3\n      swap2\n      pop\n      pop\n      jump\t// out\n        /* \"#utility.yul\":1549:2058   */\n    tag_38:\n        /* \"#utility.yul\":1618:1624   */\n      0x00\n        /* \"#utility.yul\":1667:1669   */\n      0x20\n        /* \"#utility.yul\":1655:1664   */\n      dup3\n        /* \"#utility.yul\":1646:1653   */\n      dup5\n        /* \"#utility.yul\":1642:1665   */\n      sub\n        /* \"#utility.yul\":1638:1670   */\n      slt\n        /* \"#utility.yul\":1635:1754   */\n      iszero\n      tag_350\n      jumpi\n        /* \"#utility.yul\":1673:1752   */\n      tag_351\n      tag_347\n      jump\t// in\n    tag_351:\n        /* \"#utility.yul\":1635:1754   */\n    tag_350:\n        /* \"#utility.yul\":1821:1822   */\n      0x00\n        /* \"#utility.yul\":1810:1819   */\n      dup3\n        /* \"#utility.yul\":1806:1823   */\n      add\n        /* \"#utility.yul\":1793:1824   */\n      calldataload\n        /* \"#utility.yul\":1851:1869   */\n      0xffffffffffffffff\n        /* \"#utility.yul\":1843:1849   */\n      dup2\n        /* \"#utility.yul\":1840:1870   */\n      gt\n        /* \"#utility.yul\":1837:1954   */\n      iszero\n      tag_352\n      jumpi\n        /* \"#utility.yul\":1873:1952   */\n      tag_353\n      tag_354\n      jump\t// in\n    tag_353:\n        /* \"#utility.yul\":1837:1954   */\n    tag_352:\n        /* \"#utility.yul\":1978:2041   */\n      tag_355\n        /* \"#utility.yul\":2033:2040   */\n      dup5\n        /* \"#utility.yul\":2024:2030   */\n      dup3\n        /* \"#utility.yul\":2013:2022   */\n      dup6\n        /* \"#utility.yul\":2009:2031   */\n      add\n        /* \"#utility.yul\":1978:2041   */\n      tag_334\n      jump\t// in\n    tag_355:\n        /* \"#utility.yul\":1968:2041   */\n      swap2\n      pop\n        /* \"#utility.yul\":1764:2051   */\n      pop\n        /* \"#utility.yul\":1549:2058   */\n      swap3\n      swap2\n      pop\n      pop\n      jump\t// out\n        /* \"#utility.yul\":2064:3043   */\n    tag_97:\n        /* \"#utility.yul\":2161:2167   */\n      0x00\n        /* \"#utility.yul\":2169:2175   */\n      dup1\n        /* \"#utility.yul\":2177:2183   */\n      0x00\n        /* \"#utility.yul\":2226:2228   */\n      0x60\n        /* \"#utility.yul\":2214:2223   */\n      dup5\n        /* \"#utility.yul\":2205:2212   */\n      dup7\n        /* \"#utility.yul\":2201:2224   */\n      sub\n        /* \"#utility.yul\":2197:2229   */\n      slt\n        /* \"#utility.yul\":2194:2313   */\n      iszero\n      tag_357\n      jumpi\n        /* \"#utility.yul\":2232:2311   */\n      tag_358\n      tag_347\n      jump\t// in\n    tag_358:\n        /* \"#utility.yul\":2194:2313   */\n    tag_357:\n        /* \"#utility.yul\":2380:2381   */\n      0x00\n        /* \"#utility.yul\":2369:2378   */\n      dup5\n        /* \"#utility.yul\":2365:2382   */\n      add\n        /* \"#utility.yul\":2352:2383   */\n      calldataload\n        /* \"#utility.yul\":2410:2428   */\n      0xffffffffffffffff\n        /* \"#utility.yul\":2402:2408   */\n      dup2\n        /* \"#utility.yul\":2399:2429   */\n      gt\n        /* \"#utility.yul\":2396:2513   */\n      iszero\n      tag_359\n      jumpi\n        /* \"#utility.yul\":2432:2511   */\n      tag_360\n      tag_354\n      jump\t// in\n    tag_360:\n        /* \"#utility.yul\":2396:2513   */\n    tag_359:\n        /* \"#utility.yul\":2537:2600   */\n      tag_361\n        /* \"#utility.yul\":2592:2599   */\n      dup7\n        /* \"#utility.yul\":2583:2589   */\n      dup3\n        /* \"#utility.yul\":2572:2581   */\n      dup8\n        /* \"#utility.yul\":2568:2590   */\n      add\n        /* \"#utility.yul\":2537:2600   */\n      tag_334\n      jump\t// in\n    tag_361:\n        /* \"#utility.yul\":2527:2600   */\n      swap4\n      pop\n        /* \"#utility.yul\":2323:2610   */\n      pop\n        /* \"#utility.yul\":2677:2679   */\n      0x20\n        /* \"#utility.yul\":2666:2675   */\n      dup5\n        /* \"#utility.yul\":2662:2680   */\n      add\n        /* \"#utility.yul\":2649:2681   */\n      calldataload\n        /* \"#utility.yul\":2708:2726   */\n      0xffffffffffffffff\n        /* \"#utility.yul\":2700:2706   */\n      dup2\n        /* \"#utility.yul\":2697:2727   */\n      gt\n        /* \"#utility.yul\":2694:2811   */\n      iszero\n      tag_362\n      jumpi\n        /* \"#utility.yul\":2730:2809   */\n      tag_363\n      tag_354\n      jump\t// in\n    tag_363:\n        /* \"#utility.yul\":2694:2811   */\n    tag_362:\n        /* \"#utility.yul\":2835:2898   */\n      tag_364\n        /* \"#utility.yul\":2890:2897   */\n      dup7\n        /* \"#utility.yul\":2881:2887   */\n      dup3\n        /* \"#utility.yul\":2870:2879   */\n      dup8\n        /* \"#utility.yul\":2866:2888   */\n      add\n        /* \"#utility.yul\":2835:2898   */\n      tag_334\n      jump\t// in\n    tag_364:\n        /* \"#utility.yul\":2825:2898   */\n      swap3\n      pop\n        /* \"#utility.yul\":2620:2908   */\n      pop\n        /* \"#utility.yul\":2947:2949   */\n      0x40\n        /* \"#utility.yul\":2973:3026   */\n      tag_365\n        /* \"#utility.yul\":3018:3025   */\n      dup7\n        /* \"#utility.yul\":3009:3015   */\n      dup3\n        /* \"#utility.yul\":2998:3007   */\n      dup8\n        /* \"#utility.yul\":2994:3016   */\n      add\n        /* \"#utility.yul\":2973:3026   */\n      tag_340\n      jump\t// in\n    tag_365:\n        /* \"#utility.yul\":2963:3026   */\n      swap2\n      pop\n        /* \"#utility.yul\":2918:3036   */\n      pop\n        /* \"#utility.yul\":2064:3043   */\n      swap3\n      pop\n      swap3\n      pop\n      swap3\n      jump\t// out\n        /* \"#utility.yul\":3049:4028   */\n    tag_62:\n        /* \"#utility.yul\":3146:3152   */\n      0x00\n        /* \"#utility.yul\":3154:3160   */\n      dup1\n        /* \"#utility.yul\":3162:3168   */\n      0x00\n        /* \"#utility.yul\":3211:3213   */\n      0x60\n        /* \"#utility.yul\":3199:3208   */\n      dup5\n        /* \"#utility.yul\":3190:3197   */\n      dup7\n        /* \"#utility.yul\":3186:3209   */\n      sub\n        /* \"#utility.yul\":3182:3214   */\n      slt\n        /* \"#utility.yul\":3179:3298   */\n      iszero\n      tag_367\n      jumpi\n        /* \"#utility.yul\":3217:3296   */\n      tag_368\n      tag_347\n      jump\t// in\n    tag_368:\n        /* \"#utility.yul\":3179:3298   */\n    tag_367:\n        /* \"#utility.yul\":3365:3366   */\n      0x00\n        /* \"#utility.yul\":3354:3363   */\n      dup5\n        /* \"#utility.yul\":3350:3367   */\n      add\n        /* \"#utility.yul\":3337:3368   */\n      calldataload\n        /* \"#utility.yul\":3395:3413   */\n      0xffffffffffffffff\n        /* \"#utility.yul\":3387:3393   */\n      dup2\n        /* \"#utility.yul\":3384:3414   */\n      gt\n        /* \"#utility.yul\":3381:3498   */\n      iszero\n      tag_369\n      jumpi\n        /* \"#utility.yul\":3417:3496   */\n      tag_370\n      tag_354\n      jump\t// in\n    tag_370:\n        /* \"#utility.yul\":3381:3498   */\n    tag_369:\n        /* \"#utility.yul\":3522:3585   */\n      tag_371\n        /* \"#utility.yul\":3577:3584   */\n      dup7\n        /* \"#utility.yul\":3568:3574   */\n      dup3\n        /* \"#utility.yul\":3557:3566   */\n      dup8\n        /* \"#utility.yul\":3553:3575   */\n      add\n        /* \"#utility.yul\":3522:3585   */\n      tag_334\n      jump\t// in\n    tag_371:\n        /* \"#utility.yul\":3512:3585   */\n      swap4\n      pop\n        /* \"#utility.yul\":3308:3595   */\n      pop\n        /* \"#utility.yul\":3634:3636   */\n      0x20\n        /* \"#utility.yul\":3660:3713   */\n      tag_372\n        /* \"#utility.yul\":3705:3712   */\n      dup7\n        /* \"#utility.yul\":3696:3702   */\n      dup3\n        /* \"#utility.yul\":3685:3694   */\n      dup8\n        /* \"#utility.yul\":3681:3703   */\n      add\n        /* \"#utility.yul\":3660:3713   */\n      tag_340\n      jump\t// in\n    tag_372:\n        /* \"#utility.yul\":3650:3713   */\n      swap3\n      pop\n        /* \"#utility.yul\":3605:3723   */\n      pop\n        /* \"#utility.yul\":3790:3792   */\n      0x40\n        /* \"#utility.yul\":3779:3788   */\n      dup5\n        /* \"#utility.yul\":3775:3793   */\n      add\n        /* \"#utility.yul\":3762:3794   */\n      calldataload\n        /* \"#utility.yul\":3821:3839   */\n      0xffffffffffffffff\n        /* \"#utility.yul\":3813:3819   */\n      dup2\n        /* \"#utility.yul\":3810:3840   */\n      gt\n        /* \"#utility.yul\":3807:3924   */\n      iszero\n      tag_373\n      jumpi\n        /* \"#utility.yul\":3843:3922   */\n      tag_374\n      tag_354\n      jump\t// in\n    tag_374:\n        /* \"#utility.yul\":3807:3924   */\n    tag_373:\n        /* \"#utility.yul\":3948:4011   */\n      tag_375\n        /* \"#utility.yul\":4003:4010   */\n      dup7\n        /* \"#utility.yul\":3994:4000   */\n      dup3\n        /* \"#utility.yul\":3983:3992   */\n      dup8\n        /* \"#utility.yul\":3979:4001   */\n      add\n        /* \"#utility.yul\":3948:4011   */\n      tag_334\n      jump\t// in\n    tag_375:\n        /* \"#utility.yul\":3938:4011   */\n      swap2\n      pop\n        /* \"#utility.yul\":3733:4021   */\n      pop\n        /* \"#utility.yul\":3049:4028   */\n      swap3\n      pop\n      swap3\n      pop\n      swap3\n      jump\t// out\n        /* \"#utility.yul\":4034:4363   */\n    tag_26:\n        /* \"#utility.yul\":4093:4099   */\n      0x00\n        /* \"#utility.yul\":4142:4144   */\n      0x20\n        /* \"#utility.yul\":4130:4139   */\n      dup3\n        /* \"#utility.yul\":4121:4128   */\n      dup5\n        /* \"#utility.yul\":4117:4140   */\n      sub\n        /* \"#utility.yul\":4113:4145   */\n      slt\n        /* \"#utility.yul\":4110:4229   */\n      iszero\n      tag_377\n      jumpi\n        /* \"#utility.yul\":4148:4227   */\n      tag_378\n      tag_347\n      jump\t// in\n    tag_378:\n        /* \"#utility.yul\":4110:4229   */\n    tag_377:\n        /* \"#utility.yul\":4268:4269   */\n      0x00\n        /* \"#utility.yul\":4293:4346   */\n      tag_379\n        /* \"#utility.yul\":4338:4345   */\n      dup5\n        /* \"#utility.yul\":4329:4335   */\n      dup3\n        /* \"#utility.yul\":4318:4327   */\n      dup6\n        /* \"#utility.yul\":4314:4336   */\n      add\n        /* \"#utility.yul\":4293:4346   */\n      tag_340\n      jump\t// in\n    tag_379:\n        /* \"#utility.yul\":4283:4346   */\n      swap2\n      pop\n        /* \"#utility.yul\":4239:4356   */\n      pop\n        /* \"#utility.yul\":4034:4363   */\n      swap3\n      swap2\n      pop\n      pop\n      jump\t// out\n        /* \"#utility.yul\":4369:4837   */\n    tag_33:\n        /* \"#utility.yul\":4434:4440   */\n      0x00\n        /* \"#utility.yul\":4442:4448   */\n      dup1\n        /* \"#utility.yul\":4491:4493   */\n      0x40\n        /* \"#utility.yul\":4479:4488   */\n      dup4\n        /* \"#utility.yul\":4470:4477   */\n      dup6\n        /* \"#utility.yul\":4466:4489   */\n      sub\n        /* \"#utility.yul\":4462:4494   */\n      slt\n        /* \"#utility.yul\":4459:4578   */\n      iszero\n      tag_381\n      jumpi\n        /* \"#utility.yul\":4497:4576   */\n      tag_382\n      tag_347\n      jump\t// in\n    tag_382:\n        /* \"#utility.yul\":4459:4578   */\n    tag_381:\n        /* \"#utility.yul\":4617:4618   */\n      0x00\n        /* \"#utility.yul\":4642:4695   */\n      tag_383\n        /* \"#utility.yul\":4687:4694   */\n      dup6\n        /* \"#utility.yul\":4678:4684   */\n      dup3\n        /* \"#utility.yul\":4667:4676   */\n      dup7\n        /* \"#utility.yul\":4663:4685   */\n      add\n        /* \"#utility.yul\":4642:4695   */\n      tag_340\n      jump\t// in\n    tag_383:\n        /* \"#utility.yul\":4632:4695   */\n      swap3\n      pop\n        /* \"#utility.yul\":4588:4705   */\n      pop\n        /* \"#utility.yul\":4744:4746   */\n      0x20\n        /* \"#utility.yul\":4770:4820   */\n      tag_384\n        /* \"#utility.yul\":4812:4819   */\n      dup6\n        /* \"#utility.yul\":4803:4809   */\n      dup3\n        /* \"#utility.yul\":4792:4801   */\n      dup7\n        /* \"#utility.yul\":4788:4810   */\n      add\n        /* \"#utility.yul\":4770:4820   */\n      tag_330\n      jump\t// in\n    tag_384:\n        /* \"#utility.yul\":4760:4820   */\n      swap2\n      pop\n        /* \"#utility.yul\":4715:4830   */\n      pop\n        /* \"#utility.yul\":4369:4837   */\n      swap3\n      pop\n      swap3\n      swap1\n      pop\n      jump\t// out\n        /* \"#utility.yul\":4843:5039   */\n    tag_385:\n        /* \"#utility.yul\":4932:4942   */\n      0x00\n        /* \"#utility.yul\":4967:5033   */\n      tag_387\n        /* \"#utility.yul\":5029:5032   */\n      dup4\n        /* \"#utility.yul\":5021:5027   */\n      dup4\n        /* \"#utility.yul\":4967:5033   */\n      tag_388\n      jump\t// in\n    tag_387:\n        /* \"#utility.yul\":4953:5033   */\n      swap1\n      pop\n        /* \"#utility.yul\":4843:5039   */\n      swap3\n      swap2\n      pop\n      pop\n      jump\t// out\n        /* \"#utility.yul\":5045:5163   */\n    tag_389:\n        /* \"#utility.yul\":5132:5156   */\n      tag_391\n        /* \"#utility.yul\":5150:5155   */\n      dup2\n        /* \"#utility.yul\":5132:5156   */\n      tag_392\n      jump\t// in\n    tag_391:\n        /* \"#utility.yul\":5127:5130   */\n      dup3\n        /* \"#utility.yul\":5120:5157   */\n      mstore\n        /* \"#utility.yul\":5045:5163   */\n      pop\n      pop\n      jump\t// out\n        /* \"#utility.yul\":5197:6188   */\n    tag_393:\n        /* \"#utility.yul\":5336:5339   */\n      0x00\n        /* \"#utility.yul\":5365:5429   */\n      tag_395\n        /* \"#utility.yul\":5423:5428   */\n      dup3\n        /* \"#utility.yul\":5365:5429   */\n      tag_396\n      jump\t// in\n    tag_395:\n        /* \"#utility.yul\":5445:5541   */\n      tag_397\n        /* \"#utility.yul\":5534:5540   */\n      dup2\n        /* \"#utility.yul\":5529:5532   */\n      dup6\n        /* \"#utility.yul\":5445:5541   */\n      tag_398\n      jump\t// in\n    tag_397:\n        /* \"#utility.yul\":5438:5541   */\n      swap4\n      pop\n        /* \"#utility.yul\":5567:5570   */\n      dup4\n        /* \"#utility.yul\":5612:5616   */\n      0x20\n        /* \"#utility.yul\":5604:5610   */\n      dup3\n        /* \"#utility.yul\":5600:5617   */\n      mul\n        /* \"#utility.yul\":5595:5598   */\n      dup6\n        /* \"#utility.yul\":5591:5618   */\n      add\n        /* \"#utility.yul\":5642:5708   */\n      tag_399\n        /* \"#utility.yul\":5702:5707   */\n      dup6\n        /* \"#utility.yul\":5642:5708   */\n      tag_400\n      jump\t// in\n    tag_399:\n        /* \"#utility.yul\":5731:5738   */\n      dup1\n        /* \"#utility.yul\":5762:5763   */\n      0x00\n        /* \"#utility.yul\":5747:6143   */\n    tag_401:\n        /* \"#utility.yul\":5772:5778   */\n      dup6\n        /* \"#utility.yul\":5769:5770   */\n      dup2\n        /* \"#utility.yul\":5766:5779   */\n      lt\n        /* \"#utility.yul\":5747:6143   */\n      iszero\n      tag_403\n      jumpi\n        /* \"#utility.yul\":5843:5852   */\n      dup5\n        /* \"#utility.yul\":5837:5841   */\n      dup5\n        /* \"#utility.yul\":5833:5853   */\n      sub\n        /* \"#utility.yul\":5828:5831   */\n      dup10\n        /* \"#utility.yul\":5821:5854   */\n      mstore\n        /* \"#utility.yul\":5894:5900   */\n      dup2\n        /* \"#utility.yul\":5888:5901   */\n      mload\n        /* \"#utility.yul\":5922:6006   */\n      tag_404\n        /* \"#utility.yul\":6001:6005   */\n      dup6\n        /* \"#utility.yul\":5986:5999   */\n      dup3\n        /* \"#utility.yul\":5922:6006   */\n      tag_385\n      jump\t// in\n    tag_404:\n        /* \"#utility.yul\":5914:6006   */\n      swap5\n      pop\n        /* \"#utility.yul\":6029:6099   */\n      tag_405\n        /* \"#utility.yul\":6092:6098   */\n      dup4\n        /* \"#utility.yul\":6029:6099   */\n      tag_406\n      jump\t// in\n    tag_405:\n        /* \"#utility.yul\":6019:6099   */\n      swap3\n      pop\n        /* \"#utility.yul\":6128:6132   */\n      0x20\n        /* \"#utility.yul\":6123:6126   */\n      dup11\n        /* \"#utility.yul\":6119:6133   */\n      add\n        /* \"#utility.yul\":6112:6133   */\n      swap10\n      pop\n        /* \"#utility.yul\":5807:6143   */\n      pop\n        /* \"#utility.yul\":5794:5795   */\n      0x01\n        /* \"#utility.yul\":5791:5792   */\n      dup2\n        /* \"#utility.yul\":5787:5796   */\n      add\n        /* \"#utility.yul\":5782:5796   */\n      swap1\n      pop\n        /* \"#utility.yul\":5747:6143   */\n      jump(tag_401)\n    tag_403:\n        /* \"#utility.yul\":5751:5765   */\n      pop\n        /* \"#utility.yul\":6159:6163   */\n      dup3\n        /* \"#utility.yul\":6152:6163   */\n      swap8\n      pop\n        /* \"#utility.yul\":6179:6182   */\n      dup8\n        /* \"#utility.yul\":6172:6182   */\n      swap6\n      pop\n        /* \"#utility.yul\":5341:6188   */\n      pop\n      pop\n      pop\n      pop\n      pop\n        /* \"#utility.yul\":5197:6188   */\n      swap3\n      swap2\n      pop\n      pop\n      jump\t// out\n        /* \"#utility.yul\":6194:6303   */\n    tag_407:\n        /* \"#utility.yul\":6275:6296   */\n      tag_409\n        /* \"#utility.yul\":6290:6295   */\n      dup2\n        /* \"#utility.yul\":6275:6296   */\n      tag_410\n      jump\t// in\n    tag_409:\n        /* \"#utility.yul\":6270:6273   */\n      dup3\n        /* \"#utility.yul\":6263:6297   */\n      mstore\n        /* \"#utility.yul\":6194:6303   */\n      pop\n      pop\n      jump\t// out\n        /* \"#utility.yul\":6309:6653   */\n    tag_388:\n        /* \"#utility.yul\":6387:6390   */\n      0x00\n        /* \"#utility.yul\":6415:6454   */\n      tag_412\n        /* \"#utility.yul\":6448:6453   */\n      dup3\n        /* \"#utility.yul\":6415:6454   */\n      tag_413\n      jump\t// in\n    tag_412:\n        /* \"#utility.yul\":6470:6531   */\n      tag_414\n        /* \"#utility.yul\":6524:6530   */\n      dup2\n        /* \"#utility.yul\":6519:6522   */\n      dup6\n        /* \"#utility.yul\":6470:6531   */\n      tag_415\n      jump\t// in\n    tag_414:\n        /* \"#utility.yul\":6463:6531   */\n      swap4\n      pop\n        /* \"#utility.yul\":6540:6592   */\n      tag_416\n        /* \"#utility.yul\":6585:6591   */\n      dup2\n        /* \"#utility.yul\":6580:6583   */\n      dup6\n        /* \"#utility.yul\":6573:6577   */\n      0x20\n        /* \"#utility.yul\":6566:6571   */\n      dup7\n        /* \"#utility.yul\":6562:6578   */\n      add\n        /* \"#utility.yul\":6540:6592   */\n      tag_417\n      jump\t// in\n    tag_416:\n        /* \"#utility.yul\":6617:6646   */\n      tag_418\n        /* \"#utility.yul\":6639:6645   */\n      dup2\n        /* \"#utility.yul\":6617:6646   */\n      tag_419\n      jump\t// in\n    tag_418:\n        /* \"#utility.yul\":6612:6615   */\n      dup5\n        /* \"#utility.yul\":6608:6647   */\n      add\n        /* \"#utility.yul\":6601:6647   */\n      swap2\n      pop\n        /* \"#utility.yul\":6391:6653   */\n      pop\n        /* \"#utility.yul\":6309:6653   */\n      swap3\n      swap2\n      pop\n      pop\n      jump\t// out\n        /* \"#utility.yul\":6659:7023   */\n    tag_420:\n        /* \"#utility.yul\":6747:6750   */\n      0x00\n        /* \"#utility.yul\":6775:6814   */\n      tag_422\n        /* \"#utility.yul\":6808:6813   */\n      dup3\n        /* \"#utility.yul\":6775:6814   */\n      tag_413\n      jump\t// in\n    tag_422:\n        /* \"#utility.yul\":6830:6901   */\n      tag_423\n        /* \"#utility.yul\":6894:6900   */\n      dup2\n        /* \"#utility.yul\":6889:6892   */\n      dup6\n        /* \"#utility.yul\":6830:6901   */\n      tag_424\n      jump\t// in\n    tag_423:\n        /* \"#utility.yul\":6823:6901   */\n      swap4\n      pop\n        /* \"#utility.yul\":6910:6962   */\n      tag_425\n        /* \"#utility.yul\":6955:6961   */\n      dup2\n        /* \"#utility.yul\":6950:6953   */\n      dup6\n        /* \"#utility.yul\":6943:6947   */\n      0x20\n        /* \"#utility.yul\":6936:6941   */\n      dup7\n        /* \"#utility.yul\":6932:6948   */\n      add\n        /* \"#utility.yul\":6910:6962   */\n      tag_417\n      jump\t// in\n    tag_425:\n        /* \"#utility.yul\":6987:7016   */\n      tag_426\n        /* \"#utility.yul\":7009:7015   */\n      dup2\n        /* \"#utility.yul\":6987:7016   */\n      tag_419\n      jump\t// in\n    tag_426:\n        /* \"#utility.yul\":6982:6985   */\n      dup5\n        /* \"#utility.yul\":6978:7017   */\n      add\n        /* \"#utility.yul\":6971:7017   */\n      swap2\n      pop\n        /* \"#utility.yul\":6751:7023   */\n      pop\n        /* \"#utility.yul\":6659:7023   */\n      swap3\n      swap2\n      pop\n      pop\n      jump\t// out\n        /* \"#utility.yul\":7029:7406   */\n    tag_427:\n        /* \"#utility.yul\":7135:7138   */\n      0x00\n        /* \"#utility.yul\":7163:7202   */\n      tag_429\n        /* \"#utility.yul\":7196:7201   */\n      dup3\n        /* \"#utility.yul\":7163:7202   */\n      tag_413\n      jump\t// in\n    tag_429:\n        /* \"#utility.yul\":7218:7307   */\n      tag_430\n        /* \"#utility.yul\":7300:7306   */\n      dup2\n        /* \"#utility.yul\":7295:7298   */\n      dup6\n        /* \"#utility.yul\":7218:7307   */\n      tag_431\n      jump\t// in\n    tag_430:\n        /* \"#utility.yul\":7211:7307   */\n      swap4\n      pop\n        /* \"#utility.yul\":7316:7368   */\n      tag_432\n        /* \"#utility.yul\":7361:7367   */\n      dup2\n        /* \"#utility.yul\":7356:7359   */\n      dup6\n        /* \"#utility.yul\":7349:7353   */\n      0x20\n        /* \"#utility.yul\":7342:7347   */\n      dup7\n        /* \"#utility.yul\":7338:7354   */\n      add\n        /* \"#utility.yul\":7316:7368   */\n      tag_417\n      jump\t// in\n    tag_432:\n        /* \"#utility.yul\":7393:7399   */\n      dup1\n        /* \"#utility.yul\":7388:7391   */\n      dup5\n        /* \"#utility.yul\":7384:7400   */\n      add\n        /* \"#utility.yul\":7377:7400   */\n      swap2\n      pop\n        /* \"#utility.yul\":7139:7406   */\n      pop\n        /* \"#utility.yul\":7029:7406   */\n      swap3\n      swap2\n      pop\n      pop\n      jump\t// out\n        /* \"#utility.yul\":7436:8281   */\n    tag_433:\n        /* \"#utility.yul\":7539:7542   */\n      0x00\n        /* \"#utility.yul\":7576:7581   */\n      dup2\n        /* \"#utility.yul\":7570:7582   */\n      sload\n        /* \"#utility.yul\":7605:7641   */\n      tag_435\n        /* \"#utility.yul\":7631:7640   */\n      dup2\n        /* \"#utility.yul\":7605:7641   */\n      tag_117\n      jump\t// in\n    tag_435:\n        /* \"#utility.yul\":7657:7746   */\n      tag_436\n        /* \"#utility.yul\":7739:7745   */\n      dup2\n        /* \"#utility.yul\":7734:7737   */\n      dup7\n        /* \"#utility.yul\":7657:7746   */\n      tag_431\n      jump\t// in\n    tag_436:\n        /* \"#utility.yul\":7650:7746   */\n      swap5\n      pop\n        /* \"#utility.yul\":7777:7778   */\n      0x01\n        /* \"#utility.yul\":7766:7775   */\n      dup3\n        /* \"#utility.yul\":7762:7779   */\n      and\n        /* \"#utility.yul\":7793:7794   */\n      0x00\n        /* \"#utility.yul\":7788:7925   */\n      dup2\n      eq\n      tag_438\n      jumpi\n        /* \"#utility.yul\":7939:7940   */\n      0x01\n        /* \"#utility.yul\":7934:8275   */\n      dup2\n      eq\n      tag_439\n      jumpi\n        /* \"#utility.yul\":7755:8275   */\n      jump(tag_437)\n        /* \"#utility.yul\":7788:7925   */\n    tag_438:\n        /* \"#utility.yul\":7872:7876   */\n      0xff\n        /* \"#utility.yul\":7868:7877   */\n      not\n        /* \"#utility.yul\":7857:7866   */\n      dup4\n        /* \"#utility.yul\":7853:7878   */\n      and\n        /* \"#utility.yul\":7848:7851   */\n      dup7\n        /* \"#utility.yul\":7841:7879   */\n      mstore\n        /* \"#utility.yul\":7908:7914   */\n      dup2\n        /* \"#utility.yul\":7903:7906   */\n      dup7\n        /* \"#utility.yul\":7899:7915   */\n      add\n        /* \"#utility.yul\":7892:7915   */\n      swap4\n      pop\n        /* \"#utility.yul\":7788:7925   */\n      jump(tag_437)\n        /* \"#utility.yul\":7934:8275   */\n    tag_439:\n        /* \"#utility.yul\":8001:8039   */\n      tag_440\n        /* \"#utility.yul\":8033:8038   */\n      dup6\n        /* \"#utility.yul\":8001:8039   */\n      tag_441\n      jump\t// in\n    tag_440:\n        /* \"#utility.yul\":8061:8062   */\n      0x00\n        /* \"#utility.yul\":8075:8229   */\n    tag_442:\n        /* \"#utility.yul\":8089:8095   */\n      dup4\n        /* \"#utility.yul\":8086:8087   */\n      dup2\n        /* \"#utility.yul\":8083:8096   */\n      lt\n        /* \"#utility.yul\":8075:8229   */\n      iszero\n      tag_444\n      jumpi\n        /* \"#utility.yul\":8163:8170   */\n      dup2\n        /* \"#utility.yul\":8157:8171   */\n      sload\n        /* \"#utility.yul\":8153:8154   */\n      dup2\n        /* \"#utility.yul\":8148:8151   */\n      dup10\n        /* \"#utility.yul\":8144:8155   */\n      add\n        /* \"#utility.yul\":8137:8172   */\n      mstore\n        /* \"#utility.yul\":8213:8214   */\n      0x01\n        /* \"#utility.yul\":8204:8211   */\n      dup3\n        /* \"#utility.yul\":8200:8215   */\n      add\n        /* \"#utility.yul\":8189:8215   */\n      swap2\n      pop\n        /* \"#utility.yul\":8111:8115   */\n      0x20\n        /* \"#utility.yul\":8108:8109   */\n      dup2\n        /* \"#utility.yul\":8104:8116   */\n      add\n        /* \"#utility.yul\":8099:8116   */\n      swap1\n      pop\n        /* \"#utility.yul\":8075:8229   */\n      jump(tag_442)\n    tag_444:\n        /* \"#utility.yul\":8258:8264   */\n      dup4\n        /* \"#utility.yul\":8253:8256   */\n      dup9\n        /* \"#utility.yul\":8249:8265   */\n      add\n        /* \"#utility.yul\":8242:8265   */\n      swap6\n      pop\n        /* \"#utility.yul\":7941:8275   */\n      pop\n      pop\n        /* \"#utility.yul\":7755:8275   */\n    tag_437:\n      pop\n        /* \"#utility.yul\":7543:8281   */\n      pop\n      pop\n        /* \"#utility.yul\":7436:8281   */\n      swap3\n      swap2\n      pop\n      pop\n      jump\t// out\n        /* \"#utility.yul\":8287:8653   */\n    tag_445:\n        /* \"#utility.yul\":8429:8432   */\n      0x00\n        /* \"#utility.yul\":8450:8517   */\n      tag_447\n        /* \"#utility.yul\":8514:8516   */\n      0x10\n        /* \"#utility.yul\":8509:8512   */\n      dup4\n        /* \"#utility.yul\":8450:8517   */\n      tag_424\n      jump\t// in\n    tag_447:\n        /* \"#utility.yul\":8443:8517   */\n      swap2\n      pop\n        /* \"#utility.yul\":8526:8619   */\n      tag_448\n        /* \"#utility.yul\":8615:8618   */\n      dup3\n        /* \"#utility.yul\":8526:8619   */\n      tag_449\n      jump\t// in\n    tag_448:\n        /* \"#utility.yul\":8644:8646   */\n      0x20\n        /* \"#utility.yul\":8639:8642   */\n      dup3\n        /* \"#utility.yul\":8635:8647   */\n      add\n        /* \"#utility.yul\":8628:8647   */\n      swap1\n      pop\n        /* \"#utility.yul\":8287:8653   */\n      swap2\n      swap1\n      pop\n      jump\t// out\n        /* \"#utility.yul\":8659:9025   */\n    tag_450:\n        /* \"#utility.yul\":8801:8804   */\n      0x00\n        /* \"#utility.yul\":8822:8889   */\n      tag_452\n        /* \"#utility.yul\":8886:8888   */\n      0x21\n        /* \"#utility.yul\":8881:8884   */\n      dup4\n        /* \"#utility.yul\":8822:8889   */\n      tag_424\n      jump\t// in\n    tag_452:\n        /* \"#utility.yul\":8815:8889   */\n      swap2\n      pop\n        /* \"#utility.yul\":8898:8991   */\n      tag_453\n        /* \"#utility.yul\":8987:8990   */\n      dup3\n        /* \"#utility.yul\":8898:8991   */\n      tag_454\n      jump\t// in\n    tag_453:\n        /* \"#utility.yul\":9016:9018   */\n      0x40\n        /* \"#utility.yul\":9011:9014   */\n      dup3\n        /* \"#utility.yul\":9007:9019   */\n      add\n        /* \"#utility.yul\":9000:9019   */\n      swap1\n      pop\n        /* \"#utility.yul\":8659:9025   */\n      swap2\n      swap1\n      pop\n      jump\t// out\n        /* \"#utility.yul\":9031:9149   */\n    tag_455:\n        /* \"#utility.yul\":9118:9142   */\n      tag_457\n        /* \"#utility.yul\":9136:9141   */\n      dup2\n        /* \"#utility.yul\":9118:9142   */\n      tag_458\n      jump\t// in\n    tag_457:\n        /* \"#utility.yul\":9113:9116   */\n      dup3\n        /* \"#utility.yul\":9106:9143   */\n      mstore\n        /* \"#utility.yul\":9031:9149   */\n      pop\n      pop\n      jump\t// out\n        /* \"#utility.yul\":9155:9430   */\n    tag_163:\n        /* \"#utility.yul\":9287:9290   */\n      0x00\n        /* \"#utility.yul\":9309:9404   */\n      tag_460\n        /* \"#utility.yul\":9400:9403   */\n      dup3\n        /* \"#utility.yul\":9391:9397   */\n      dup5\n        /* \"#utility.yul\":9309:9404   */\n      tag_427\n      jump\t// in\n    tag_460:\n        /* \"#utility.yul\":9302:9404   */\n      swap2\n      pop\n        /* \"#utility.yul\":9421:9424   */\n      dup2\n        /* \"#utility.yul\":9414:9424   */\n      swap1\n      pop\n        /* \"#utility.yul\":9155:9430   */\n      swap3\n      swap2\n      pop\n      pop\n      jump\t// out\n        /* \"#utility.yul\":9436:9705   */\n    tag_142:\n        /* \"#utility.yul\":9565:9568   */\n      0x00\n        /* \"#utility.yul\":9587:9679   */\n      tag_462\n        /* \"#utility.yul\":9675:9678   */\n      dup3\n        /* \"#utility.yul\":9666:9672   */\n      dup5\n        /* \"#utility.yul\":9587:9679   */\n      tag_433\n      jump\t// in\n    tag_462:\n        /* \"#utility.yul\":9580:9679   */\n      swap2\n      pop\n        /* \"#utility.yul\":9696:9699   */\n      dup2\n        /* \"#utility.yul\":9689:9699   */\n      swap1\n      pop\n        /* \"#utility.yul\":9436:9705   */\n      swap3\n      swap2\n      pop\n      pop\n      jump\t// out\n        /* \"#utility.yul\":9711:9933   */\n    tag_45:\n        /* \"#utility.yul\":9804:9808   */\n      0x00\n        /* \"#utility.yul\":9842:9844   */\n      0x20\n        /* \"#utility.yul\":9831:9840   */\n      dup3\n        /* \"#utility.yul\":9827:9845   */\n      add\n        /* \"#utility.yul\":9819:9845   */\n      swap1\n      pop\n        /* \"#utility.yul\":9855:9926   */\n      tag_464\n        /* \"#utility.yul\":9923:9924   */\n      0x00\n        /* \"#utility.yul\":9912:9921   */\n      dup4\n        /* \"#utility.yul\":9908:9925   */\n      add\n        /* \"#utility.yul\":9899:9905   */\n      dup5\n        /* \"#utility.yul\":9855:9926   */\n      tag_389\n      jump\t// in\n    tag_464:\n        /* \"#utility.yul\":9711:9933   */\n      swap3\n      swap2\n      pop\n      pop\n      jump\t// out\n        /* \"#utility.yul\":9939:10460   */\n    tag_69:\n        /* \"#utility.yul\":10102:10106   */\n      0x00\n        /* \"#utility.yul\":10140:10142   */\n      0x60\n        /* \"#utility.yul\":10129:10138   */\n      dup3\n        /* \"#utility.yul\":10125:10143   */\n      add\n        /* \"#utility.yul\":10117:10143   */\n      swap1\n      pop\n        /* \"#utility.yul\":10153:10224   */\n      tag_466\n        /* \"#utility.yul\":10221:10222   */\n      0x00\n        /* \"#utility.yul\":10210:10219   */\n      dup4\n        /* \"#utility.yul\":10206:10223   */\n      add\n        /* \"#utility.yul\":10197:10203   */\n      dup7\n        /* \"#utility.yul\":10153:10224   */\n      tag_389\n      jump\t// in\n    tag_466:\n        /* \"#utility.yul\":10271:10280   */\n      dup2\n        /* \"#utility.yul\":10265:10269   */\n      dup2\n        /* \"#utility.yul\":10261:10281   */\n      sub\n        /* \"#utility.yul\":10256:10258   */\n      0x20\n        /* \"#utility.yul\":10245:10254   */\n      dup4\n        /* \"#utility.yul\":10241:10259   */\n      add\n        /* \"#utility.yul\":10234:10282   */\n      mstore\n        /* \"#utility.yul\":10299:10377   */\n      tag_467\n        /* \"#utility.yul\":10372:10376   */\n      dup2\n        /* \"#utility.yul\":10363:10369   */\n      dup6\n        /* \"#utility.yul\":10299:10377   */\n      tag_420\n      jump\t// in\n    tag_467:\n        /* \"#utility.yul\":10291:10377   */\n      swap1\n      pop\n        /* \"#utility.yul\":10387:10453   */\n      tag_468\n        /* \"#utility.yul\":10449:10451   */\n      0x40\n        /* \"#utility.yul\":10438:10447   */\n      dup4\n        /* \"#utility.yul\":10434:10452   */\n      add\n        /* \"#utility.yul\":10425:10431   */\n      dup5\n        /* \"#utility.yul\":10387:10453   */\n      tag_407\n      jump\t// in\n    tag_468:\n        /* \"#utility.yul\":9939:10460   */\n      swap5\n      swap4\n      pop\n      pop\n      pop\n      pop\n      jump\t// out\n        /* \"#utility.yul\":10466:11110   */\n    tag_104:\n        /* \"#utility.yul\":10663:10667   */\n      0x00\n        /* \"#utility.yul\":10701:10704   */\n      0x80\n        /* \"#utility.yul\":10690:10699   */\n      dup3\n        /* \"#utility.yul\":10686:10705   */\n      add\n        /* \"#utility.yul\":10678:10705   */\n      swap1\n      pop\n        /* \"#utility.yul\":10715:10786   */\n      tag_470\n        /* \"#utility.yul\":10783:10784   */\n      0x00\n        /* \"#utility.yul\":10772:10781   */\n      dup4\n        /* \"#utility.yul\":10768:10785   */\n      add\n        /* \"#utility.yul\":10759:10765   */\n      dup8\n        /* \"#utility.yul\":10715:10786   */\n      tag_389\n      jump\t// in\n    tag_470:\n        /* \"#utility.yul\":10833:10842   */\n      dup2\n        /* \"#utility.yul\":10827:10831   */\n      dup2\n        /* \"#utility.yul\":10823:10843   */\n      sub\n        /* \"#utility.yul\":10818:10820   */\n      0x20\n        /* \"#utility.yul\":10807:10816   */\n      dup4\n        /* \"#utility.yul\":10803:10821   */\n      add\n        /* \"#utility.yul\":10796:10844   */\n      mstore\n        /* \"#utility.yul\":10861:10939   */\n      tag_471\n        /* \"#utility.yul\":10934:10938   */\n      dup2\n        /* \"#utility.yul\":10925:10931   */\n      dup7\n        /* \"#utility.yul\":10861:10939   */\n      tag_420\n      jump\t// in\n    tag_471:\n        /* \"#utility.yul\":10853:10939   */\n      swap1\n      pop\n        /* \"#utility.yul\":10949:11021   */\n      tag_472\n        /* \"#utility.yul\":11017:11019   */\n      0x40\n        /* \"#utility.yul\":11006:11015   */\n      dup4\n        /* \"#utility.yul\":11002:11020   */\n      add\n        /* \"#utility.yul\":10993:10999   */\n      dup6\n        /* \"#utility.yul\":10949:11021   */\n      tag_455\n      jump\t// in\n    tag_472:\n        /* \"#utility.yul\":11031:11103   */\n      tag_473\n        /* \"#utility.yul\":11099:11101   */\n      0x60\n        /* \"#utility.yul\":11088:11097   */\n      dup4\n        /* \"#utility.yul\":11084:11102   */\n      add\n        /* \"#utility.yul\":11075:11081   */\n      dup5\n        /* \"#utility.yul\":11031:11103   */\n      tag_455\n      jump\t// in\n    tag_473:\n        /* \"#utility.yul\":10466:11110   */\n      swap6\n      swap5\n      pop\n      pop\n      pop\n      pop\n      pop\n      jump\t// out\n        /* \"#utility.yul\":11116:11529   */\n    tag_58:\n        /* \"#utility.yul\":11279:11283   */\n      0x00\n        /* \"#utility.yul\":11317:11319   */\n      0x20\n        /* \"#utility.yul\":11306:11315   */\n      dup3\n        /* \"#utility.yul\":11302:11320   */\n      add\n        /* \"#utility.yul\":11294:11320   */\n      swap1\n      pop\n        /* \"#utility.yul\":11366:11375   */\n      dup2\n        /* \"#utility.yul\":11360:11364   */\n      dup2\n        /* \"#utility.yul\":11356:11376   */\n      sub\n        /* \"#utility.yul\":11352:11353   */\n      0x00\n        /* \"#utility.yul\":11341:11350   */\n      dup4\n        /* \"#utility.yul\":11337:11354   */\n      add\n        /* \"#utility.yul\":11330:11377   */\n      mstore\n        /* \"#utility.yul\":11394:11522   */\n      tag_475\n        /* \"#utility.yul\":11517:11521   */\n      dup2\n        /* \"#utility.yul\":11508:11514   */\n      dup5\n        /* \"#utility.yul\":11394:11522   */\n      tag_393\n      jump\t// in\n    tag_475:\n        /* \"#utility.yul\":11386:11522   */\n      swap1\n      pop\n        /* \"#utility.yul\":11116:11529   */\n      swap3\n      swap2\n      pop\n      pop\n      jump\t// out\n        /* \"#utility.yul\":11535:12361   */\n    tag_29:\n        /* \"#utility.yul\":11772:11776   */\n      0x00\n        /* \"#utility.yul\":11810:11813   */\n      0x80\n        /* \"#utility.yul\":11799:11808   */\n      dup3\n        /* \"#utility.yul\":11795:11814   */\n      add\n        /* \"#utility.yul\":11787:11814   */\n      swap1\n      pop\n        /* \"#utility.yul\":11860:11869   */\n      dup2\n        /* \"#utility.yul\":11854:11858   */\n      dup2\n        /* \"#utility.yul\":11850:11870   */\n      sub\n        /* \"#utility.yul\":11846:11847   */\n      0x00\n        /* \"#utility.yul\":11835:11844   */\n      dup4\n        /* \"#utility.yul\":11831:11848   */\n      add\n        /* \"#utility.yul\":11824:11871   */\n      mstore\n        /* \"#utility.yul\":11888:11966   */\n      tag_477\n        /* \"#utility.yul\":11961:11965   */\n      dup2\n        /* \"#utility.yul\":11952:11958   */\n      dup8\n        /* \"#utility.yul\":11888:11966   */\n      tag_420\n      jump\t// in\n    tag_477:\n        /* \"#utility.yul\":11880:11966   */\n      swap1\n      pop\n        /* \"#utility.yul\":12013:12022   */\n      dup2\n        /* \"#utility.yul\":12007:12011   */\n      dup2\n        /* \"#utility.yul\":12003:12023   */\n      sub\n        /* \"#utility.yul\":11998:12000   */\n      0x20\n        /* \"#utility.yul\":11987:11996   */\n      dup4\n        /* \"#utility.yul\":11983:12001   */\n      add\n        /* \"#utility.yul\":11976:12024   */\n      mstore\n        /* \"#utility.yul\":12041:12119   */\n      tag_478\n        /* \"#utility.yul\":12114:12118   */\n      dup2\n        /* \"#utility.yul\":12105:12111   */\n      dup7\n        /* \"#utility.yul\":12041:12119   */\n      tag_420\n      jump\t// in\n    tag_478:\n        /* \"#utility.yul\":12033:12119   */\n      swap1\n      pop\n        /* \"#utility.yul\":12166:12175   */\n      dup2\n        /* \"#utility.yul\":12160:12164   */\n      dup2\n        /* \"#utility.yul\":12156:12176   */\n      sub\n        /* \"#utility.yul\":12151:12153   */\n      0x40\n        /* \"#utility.yul\":12140:12149   */\n      dup4\n        /* \"#utility.yul\":12136:12154   */\n      add\n        /* \"#utility.yul\":12129:12177   */\n      mstore\n        /* \"#utility.yul\":12194:12272   */\n      tag_479\n        /* \"#utility.yul\":12267:12271   */\n      dup2\n        /* \"#utility.yul\":12258:12264   */\n      dup6\n        /* \"#utility.yul\":12194:12272   */\n      tag_420\n      jump\t// in\n    tag_479:\n        /* \"#utility.yul\":12186:12272   */\n      swap1\n      pop\n        /* \"#utility.yul\":12282:12354   */\n      tag_480\n        /* \"#utility.yul\":12350:12352   */\n      0x60\n        /* \"#utility.yul\":12339:12348   */\n      dup4\n        /* \"#utility.yul\":12335:12353   */\n      add\n        /* \"#utility.yul\":12326:12332   */\n      dup5\n        /* \"#utility.yul\":12282:12354   */\n      tag_455\n      jump\t// in\n    tag_480:\n        /* \"#utility.yul\":11535:12361   */\n      swap6\n      swap5\n      pop\n      pop\n      pop\n      pop\n      pop\n      jump\t// out\n        /* \"#utility.yul\":12367:12900   */\n    tag_76:\n        /* \"#utility.yul\":12536:12540   */\n      0x00\n        /* \"#utility.yul\":12574:12576   */\n      0x60\n        /* \"#utility.yul\":12563:12572   */\n      dup3\n        /* \"#utility.yul\":12559:12577   */\n      add\n        /* \"#utility.yul\":12551:12577   */\n      swap1\n      pop\n        /* \"#utility.yul\":12623:12632   */\n      dup2\n        /* \"#utility.yul\":12617:12621   */\n      dup2\n        /* \"#utility.yul\":12613:12633   */\n      sub\n        /* \"#utility.yul\":12609:12610   */\n      0x00\n        /* \"#utility.yul\":12598:12607   */\n      dup4\n        /* \"#utility.yul\":12594:12611   */\n      add\n        /* \"#utility.yul\":12587:12634   */\n      mstore\n        /* \"#utility.yul\":12651:12729   */\n      tag_482\n        /* \"#utility.yul\":12724:12728   */\n      dup2\n        /* \"#utility.yul\":12715:12721   */\n      dup7\n        /* \"#utility.yul\":12651:12729   */\n      tag_420\n      jump\t// in\n    tag_482:\n        /* \"#utility.yul\":12643:12729   */\n      swap1\n      pop\n        /* \"#utility.yul\":12739:12811   */\n      tag_483\n        /* \"#utility.yul\":12807:12809   */\n      0x20\n        /* \"#utility.yul\":12796:12805   */\n      dup4\n        /* \"#utility.yul\":12792:12810   */\n      add\n        /* \"#utility.yul\":12783:12789   */\n      dup6\n        /* \"#utility.yul\":12739:12811   */\n      tag_455\n      jump\t// in\n    tag_483:\n        /* \"#utility.yul\":12821:12893   */\n      tag_484\n        /* \"#utility.yul\":12889:12891   */\n      0x40\n        /* \"#utility.yul\":12878:12887   */\n      dup4\n        /* \"#utility.yul\":12874:12892   */\n      add\n        /* \"#utility.yul\":12865:12871   */\n      dup5\n        /* \"#utility.yul\":12821:12893   */\n      tag_455\n      jump\t// in\n    tag_484:\n        /* \"#utility.yul\":12367:12900   */\n      swap5\n      swap4\n      pop\n      pop\n      pop\n      pop\n      jump\t// out\n        /* \"#utility.yul\":12906:13325   */\n    tag_166:\n        /* \"#utility.yul\":13072:13076   */\n      0x00\n        /* \"#utility.yul\":13110:13112   */\n      0x20\n        /* \"#utility.yul\":13099:13108   */\n      dup3\n        /* \"#utility.yul\":13095:13113   */\n      add\n        /* \"#utility.yul\":13087:13113   */\n      swap1\n      pop\n        /* \"#utility.yul\":13159:13168   */\n      dup2\n        /* \"#utility.yul\":13153:13157   */\n      dup2\n        /* \"#utility.yul\":13149:13169   */\n      sub\n        /* \"#utility.yul\":13145:13146   */\n      0x00\n        /* \"#utility.yul\":13134:13143   */\n      dup4\n        /* \"#utility.yul\":13130:13147   */\n      add\n        /* \"#utility.yul\":13123:13170   */\n      mstore\n        /* \"#utility.yul\":13187:13318   */\n      tag_486\n        /* \"#utility.yul\":13313:13317   */\n      dup2\n        /* \"#utility.yul\":13187:13318   */\n      tag_445\n      jump\t// in\n    tag_486:\n        /* \"#utility.yul\":13179:13318   */\n      swap1\n      pop\n        /* \"#utility.yul\":12906:13325   */\n      swap2\n      swap1\n      pop\n      jump\t// out\n        /* \"#utility.yul\":13331:13750   */\n    tag_243:\n        /* \"#utility.yul\":13497:13501   */\n      0x00\n        /* \"#utility.yul\":13535:13537   */\n      0x20\n        /* \"#utility.yul\":13524:13533   */\n      dup3\n        /* \"#utility.yul\":13520:13538   */\n      add\n        /* \"#utility.yul\":13512:13538   */\n      swap1\n      pop\n        /* \"#utility.yul\":13584:13593   */\n      dup2\n        /* \"#utility.yul\":13578:13582   */\n      dup2\n        /* \"#utility.yul\":13574:13594   */\n      sub\n        /* \"#utility.yul\":13570:13571   */\n      0x00\n        /* \"#utility.yul\":13559:13568   */\n      dup4\n        /* \"#utility.yul\":13555:13572   */\n      add\n        /* \"#utility.yul\":13548:13595   */\n      mstore\n        /* \"#utility.yul\":13612:13743   */\n      tag_488\n        /* \"#utility.yul\":13738:13742   */\n      dup2\n        /* \"#utility.yul\":13612:13743   */\n      tag_450\n      jump\t// in\n    tag_488:\n        /* \"#utility.yul\":13604:13743   */\n      swap1\n      pop\n        /* \"#utility.yul\":13331:13750   */\n      swap2\n      swap1\n      pop\n      jump\t// out\n        /* \"#utility.yul\":13756:13885   */\n    tag_320:\n        /* \"#utility.yul\":13790:13796   */\n      0x00\n        /* \"#utility.yul\":13817:13837   */\n      tag_490\n      tag_491\n      jump\t// in\n    tag_490:\n        /* \"#utility.yul\":13807:13837   */\n      swap1\n      pop\n        /* \"#utility.yul\":13846:13879   */\n      tag_492\n        /* \"#utility.yul\":13874:13878   */\n      dup3\n        /* \"#utility.yul\":13866:13872   */\n      dup3\n        /* \"#utility.yul\":13846:13879   */\n      tag_493\n      jump\t// in\n    tag_492:\n        /* \"#utility.yul\":13756:13885   */\n      swap2\n      swap1\n      pop\n      jump\t// out\n        /* \"#utility.yul\":13891:13966   */\n    tag_491:\n        /* \"#utility.yul\":13924:13930   */\n      0x00\n        /* \"#utility.yul\":13957:13959   */\n      0x40\n        /* \"#utility.yul\":13951:13960   */\n      mload\n        /* \"#utility.yul\":13941:13960   */\n      swap1\n      pop\n        /* \"#utility.yul\":13891:13966   */\n      swap1\n      jump\t// out\n        /* \"#utility.yul\":13972:14280   */\n    tag_319:\n        /* \"#utility.yul\":14034:14038   */\n      0x00\n        /* \"#utility.yul\":14124:14142   */\n      0xffffffffffffffff\n        /* \"#utility.yul\":14116:14122   */\n      dup3\n        /* \"#utility.yul\":14113:14143   */\n      gt\n        /* \"#utility.yul\":14110:14166   */\n      iszero\n      tag_496\n      jumpi\n        /* \"#utility.yul\":14146:14164   */\n      tag_497\n      tag_498\n      jump\t// in\n    tag_497:\n        /* \"#utility.yul\":14110:14166   */\n    tag_496:\n        /* \"#utility.yul\":14184:14213   */\n      tag_499\n        /* \"#utility.yul\":14206:14212   */\n      dup3\n        /* \"#utility.yul\":14184:14213   */\n      tag_419\n      jump\t// in\n    tag_499:\n        /* \"#utility.yul\":14176:14213   */\n      swap1\n      pop\n        /* \"#utility.yul\":14268:14272   */\n      0x20\n        /* \"#utility.yul\":14262:14266   */\n      dup2\n        /* \"#utility.yul\":14258:14273   */\n      add\n        /* \"#utility.yul\":14250:14273   */\n      swap1\n      pop\n        /* \"#utility.yul\":13972:14280   */\n      swap2\n      swap1\n      pop\n      jump\t// out\n        /* \"#utility.yul\":14286:14428   */\n    tag_400:\n        /* \"#utility.yul\":14363:14367   */\n      0x00\n        /* \"#utility.yul\":14386:14389   */\n      dup2\n        /* \"#utility.yul\":14378:14389   */\n      swap1\n      pop\n        /* \"#utility.yul\":14416:14420   */\n      0x20\n        /* \"#utility.yul\":14411:14414   */\n      dup3\n        /* \"#utility.yul\":14407:14421   */\n      add\n        /* \"#utility.yul\":14399:14421   */\n      swap1\n      pop\n        /* \"#utility.yul\":14286:14428   */\n      swap2\n      swap1\n      pop\n      jump\t// out\n        /* \"#utility.yul\":14434:14575   */\n    tag_441:\n        /* \"#utility.yul\":14483:14487   */\n      0x00\n        /* \"#utility.yul\":14506:14509   */\n      dup2\n        /* \"#utility.yul\":14498:14509   */\n      swap1\n      pop\n        /* \"#utility.yul\":14529:14532   */\n      dup2\n        /* \"#utility.yul\":14526:14527   */\n      0x00\n        /* \"#utility.yul\":14519:14533   */\n      mstore\n        /* \"#utility.yul\":14563:14567   */\n      0x20\n        /* \"#utility.yul\":14560:14561   */\n      0x00\n        /* \"#utility.yul\":14550:14568   */\n      keccak256\n        /* \"#utility.yul\":14542:14568   */\n      swap1\n      pop\n        /* \"#utility.yul\":14434:14575   */\n      swap2\n      swap1\n      pop\n      jump\t// out\n        /* \"#utility.yul\":14581:14705   */\n    tag_396:\n        /* \"#utility.yul\":14658:14664   */\n      0x00\n        /* \"#utility.yul\":14692:14697   */\n      dup2\n        /* \"#utility.yul\":14686:14698   */\n      mload\n        /* \"#utility.yul\":14676:14698   */\n      swap1\n      pop\n        /* \"#utility.yul\":14581:14705   */\n      swap2\n      swap1\n      pop\n      jump\t// out\n        /* \"#utility.yul\":14711:14810   */\n    tag_413:\n        /* \"#utility.yul\":14763:14769   */\n      0x00\n        /* \"#utility.yul\":14797:14802   */\n      dup2\n        /* \"#utility.yul\":14791:14803   */\n      mload\n        /* \"#utility.yul\":14781:14803   */\n      swap1\n      pop\n        /* \"#utility.yul\":14711:14810   */\n      swap2\n      swap1\n      pop\n      jump\t// out\n        /* \"#utility.yul\":14816:14939   */\n    tag_406:\n        /* \"#utility.yul\":14896:14900   */\n      0x00\n        /* \"#utility.yul\":14928:14932   */\n      0x20\n        /* \"#utility.yul\":14923:14926   */\n      dup3\n        /* \"#utility.yul\":14919:14933   */\n      add\n        /* \"#utility.yul\":14911:14933   */\n      swap1\n      pop\n        /* \"#utility.yul\":14816:14939   */\n      swap2\n      swap1\n      pop\n      jump\t// out\n        /* \"#utility.yul\":14945:15139   */\n    tag_398:\n        /* \"#utility.yul\":15054:15065   */\n      0x00\n        /* \"#utility.yul\":15088:15094   */\n      dup3\n        /* \"#utility.yul\":15083:15086   */\n      dup3\n        /* \"#utility.yul\":15076:15095   */\n      mstore\n        /* \"#utility.yul\":15128:15132   */\n      0x20\n        /* \"#utility.yul\":15123:15126   */\n      dup3\n        /* \"#utility.yul\":15119:15133   */\n      add\n        /* \"#utility.yul\":15104:15133   */\n      swap1\n      pop\n        /* \"#utility.yul\":14945:15139   */\n      swap3\n      swap2\n      pop\n      pop\n      jump\t// out\n        /* \"#utility.yul\":15145:15304   */\n    tag_415:\n        /* \"#utility.yul\":15219:15230   */\n      0x00\n        /* \"#utility.yul\":15253:15259   */\n      dup3\n        /* \"#utility.yul\":15248:15251   */\n      dup3\n        /* \"#utility.yul\":15241:15260   */\n      mstore\n        /* \"#utility.yul\":15293:15297   */\n      0x20\n        /* \"#utility.yul\":15288:15291   */\n      dup3\n        /* \"#utility.yul\":15284:15298   */\n      add\n        /* \"#utility.yul\":15269:15298   */\n      swap1\n      pop\n        /* \"#utility.yul\":15145:15304   */\n      swap3\n      swap2\n      pop\n      pop\n      jump\t// out\n        /* \"#utility.yul\":15310:15479   */\n    tag_424:\n        /* \"#utility.yul\":15394:15405   */\n      0x00\n        /* \"#utility.yul\":15428:15434   */\n      dup3\n        /* \"#utility.yul\":15423:15426   */\n      dup3\n        /* \"#utility.yul\":15416:15435   */\n      mstore\n        /* \"#utility.yul\":15468:15472   */\n      0x20\n        /* \"#utility.yul\":15463:15466   */\n      dup3\n        /* \"#utility.yul\":15459:15473   */\n      add\n        /* \"#utility.yul\":15444:15473   */\n      swap1\n      pop\n        /* \"#utility.yul\":15310:15479   */\n      swap3\n      swap2\n      pop\n      pop\n      jump\t// out\n        /* \"#utility.yul\":15485:15633   */\n    tag_431:\n        /* \"#utility.yul\":15587:15598   */\n      0x00\n        /* \"#utility.yul\":15624:15627   */\n      dup2\n        /* \"#utility.yul\":15609:15627   */\n      swap1\n      pop\n        /* \"#utility.yul\":15485:15633   */\n      swap3\n      swap2\n      pop\n      pop\n      jump\t// out\n        /* \"#utility.yul\":15639:15944   */\n    tag_156:\n        /* \"#utility.yul\":15679:15682   */\n      0x00\n        /* \"#utility.yul\":15698:15718   */\n      tag_510\n        /* \"#utility.yul\":15716:15717   */\n      dup3\n        /* \"#utility.yul\":15698:15718   */\n      tag_458\n      jump\t// in\n    tag_510:\n        /* \"#utility.yul\":15693:15718   */\n      swap2\n      pop\n        /* \"#utility.yul\":15732:15752   */\n      tag_511\n        /* \"#utility.yul\":15750:15751   */\n      dup4\n        /* \"#utility.yul\":15732:15752   */\n      tag_458\n      jump\t// in\n    tag_511:\n        /* \"#utility.yul\":15727:15752   */\n      swap3\n      pop\n        /* \"#utility.yul\":15886:15887   */\n      dup3\n        /* \"#utility.yul\":15818:15884   */\n      0xffffffffffffffffffffffffffffffffffffffffffffffffffffffffffffffff\n        /* \"#utility.yul\":15814:15888   */\n      sub\n        /* \"#utility.yul\":15811:15812   */\n      dup3\n        /* \"#utility.yul\":15808:15889   */\n      gt\n        /* \"#utility.yul\":15805:15912   */\n      iszero\n      tag_512\n      jumpi\n        /* \"#utility.yul\":15892:15910   */\n      tag_513\n      tag_514\n      jump\t// in\n    tag_513:\n        /* \"#utility.yul\":15805:15912   */\n    tag_512:\n        /* \"#utility.yul\":15936:15937   */\n      dup3\n        /* \"#utility.yul\":15933:15934   */\n      dup3\n        /* \"#utility.yul\":15929:15938   */\n      add\n        /* \"#utility.yul\":15922:15938   */\n      swap1\n      pop\n        /* \"#utility.yul\":15639:15944   */\n      swap3\n      swap2\n      pop\n      pop\n      jump\t// out\n        /* \"#utility.yul\":15950:16141   */\n    tag_147:\n        /* \"#utility.yul\":15990:15994   */\n      0x00\n        /* \"#utility.yul\":16010:16030   */\n      tag_516\n        /* \"#utility.yul\":16028:16029   */\n      dup3\n        /* \"#utility.yul\":16010:16030   */\n      tag_458\n      jump\t// in\n    tag_516:\n        /* \"#utility.yul\":16005:16030   */\n      swap2\n      pop\n        /* \"#utility.yul\":16044:16064   */\n      tag_517\n        /* \"#utility.yul\":16062:16063   */\n      dup4\n        /* \"#utility.yul\":16044:16064   */\n      tag_458\n      jump\t// in\n    tag_517:\n        /* \"#utility.yul\":16039:16064   */\n      swap3\n      pop\n        /* \"#utility.yul\":16083:16084   */\n      dup3\n        /* \"#utility.yul\":16080:16081   */\n      dup3\n        /* \"#utility.yul\":16077:16085   */\n      lt\n        /* \"#utility.yul\":16074:16108   */\n      iszero\n      tag_518\n      jumpi\n        /* \"#utility.yul\":16088:16106   */\n      tag_519\n      tag_514\n      jump\t// in\n    tag_519:\n        /* \"#utility.yul\":16074:16108   */\n    tag_518:\n        /* \"#utility.yul\":16133:16134   */\n      dup3\n        /* \"#utility.yul\":16130:16131   */\n      dup3\n        /* \"#utility.yul\":16126:16135   */\n      sub\n        /* \"#utility.yul\":16118:16135   */\n      swap1\n      pop\n        /* \"#utility.yul\":15950:16141   */\n      swap3\n      swap2\n      pop\n      pop\n      jump\t// out\n        /* \"#utility.yul\":16147:16243   */\n    tag_392:\n        /* \"#utility.yul\":16184:16191   */\n      0x00\n        /* \"#utility.yul\":16213:16237   */\n      tag_521\n        /* \"#utility.yul\":16231:16236   */\n      dup3\n        /* \"#utility.yul\":16213:16237   */\n      tag_522\n      jump\t// in\n    tag_521:\n        /* \"#utility.yul\":16202:16237   */\n      swap1\n      pop\n        /* \"#utility.yul\":16147:16243   */\n      swap2\n      swap1\n      pop\n      jump\t// out\n        /* \"#utility.yul\":16249:16339   */\n    tag_410:\n        /* \"#utility.yul\":16283:16290   */\n      0x00\n        /* \"#utility.yul\":16326:16331   */\n      dup2\n        /* \"#utility.yul\":16319:16332   */\n      iszero\n        /* \"#utility.yul\":16312:16333   */\n      iszero\n        /* \"#utility.yul\":16301:16333   */\n      swap1\n      pop\n        /* \"#utility.yul\":16249:16339   */\n      swap2\n      swap1\n      pop\n      jump\t// out\n        /* \"#utility.yul\":16345:16471   */\n    tag_522:\n        /* \"#utility.yul\":16382:16389   */\n      0x00\n        /* \"#utility.yul\":16422:16464   */\n      0xffffffffffffffffffffffffffffffffffffffff\n        /* \"#utility.yul\":16415:16420   */\n      dup3\n        /* \"#utility.yul\":16411:16465   */\n      and\n        /* \"#utility.yul\":16400:16465   */\n      swap1\n      pop\n        /* \"#utility.yul\":16345:16471   */\n      swap2\n      swap1\n      pop\n      jump\t// out\n        /* \"#utility.yul\":16477:16554   */\n    tag_458:\n        /* \"#utility.yul\":16514:16521   */\n      0x00\n        /* \"#utility.yul\":16543:16548   */\n      dup2\n        /* \"#utility.yul\":16532:16548   */\n      swap1\n      pop\n        /* \"#utility.yul\":16477:16554   */\n      swap2\n      swap1\n      pop\n      jump\t// out\n        /* \"#utility.yul\":16560:16714   */\n    tag_325:\n        /* \"#utility.yul\":16644:16650   */\n      dup3\n        /* \"#utility.yul\":16639:16642   */\n      dup2\n        /* \"#utility.yul\":16634:16637   */\n      dup4\n        /* \"#utility.yul\":16621:16651   */\n      calldatacopy\n        /* \"#utility.yul\":16706:16707   */\n      0x00\n        /* \"#utility.yul\":16697:16703   */\n      dup4\n        /* \"#utility.yul\":16692:16695   */\n      dup4\n        /* \"#utility.yul\":16688:16704   */\n      add\n        /* \"#utility.yul\":16681:16708   */\n      mstore\n        /* \"#utility.yul\":16560:16714   */\n      pop\n      pop\n      pop\n      jump\t// out\n        /* \"#utility.yul\":16720:17027   */\n    tag_417:\n        /* \"#utility.yul\":16788:16789   */\n      0x00\n        /* \"#utility.yul\":16798:16911   */\n    tag_528:\n        /* \"#utility.yul\":16812:16818   */\n      dup4\n        /* \"#utility.yul\":16809:16810   */\n      dup2\n        /* \"#utility.yul\":16806:16819   */\n      lt\n        /* \"#utility.yul\":16798:16911   */\n      iszero\n      tag_530\n      jumpi\n        /* \"#utility.yul\":16897:16898   */\n      dup1\n        /* \"#utility.yul\":16892:16895   */\n      dup3\n        /* \"#utility.yul\":16888:16899   */\n      add\n        /* \"#utility.yul\":16882:16900   */\n      mload\n        /* \"#utility.yul\":16878:16879   */\n      dup2\n        /* \"#utility.yul\":16873:16876   */\n      dup5\n        /* \"#utility.yul\":16869:16880   */\n      add\n        /* \"#utility.yul\":16862:16901   */\n      mstore\n        /* \"#utility.yul\":16834:16836   */\n      0x20\n        /* \"#utility.yul\":16831:16832   */\n      dup2\n        /* \"#utility.yul\":16827:16837   */\n      add\n        /* \"#utility.yul\":16822:16837   */\n      swap1\n      pop\n        /* \"#utility.yul\":16798:16911   */\n      jump(tag_528)\n    tag_530:\n        /* \"#utility.yul\":16929:16935   */\n      dup4\n        /* \"#utility.yul\":16926:16927   */\n      dup2\n        /* \"#utility.yul\":16923:16936   */\n      gt\n        /* \"#utility.yul\":16920:17021   */\n      iszero\n      tag_531\n      jumpi\n        /* \"#utility.yul\":17009:17010   */\n      0x00\n        /* \"#utility.yul\":17000:17006   */\n      dup5\n        /* \"#utility.yul\":16995:16998   */\n      dup5\n        /* \"#utility.yul\":16991:17007   */\n      add\n        /* \"#utility.yul\":16984:17011   */\n      mstore\n        /* \"#utility.yul\":16920:17021   */\n    tag_531:\n        /* \"#utility.yul\":16769:17027   */\n      pop\n        /* \"#utility.yul\":16720:17027   */\n      pop\n      pop\n      pop\n      jump\t// out\n        /* \"#utility.yul\":17033:17353   */\n    tag_117:\n        /* \"#utility.yul\":17077:17083   */\n      0x00\n        /* \"#utility.yul\":17114:17115   */\n      0x02\n        /* \"#utility.yul\":17108:17112   */\n      dup3\n        /* \"#utility.yul\":17104:17116   */\n      div\n        /* \"#utility.yul\":17094:17116   */\n      swap1\n      pop\n        /* \"#utility.yul\":17161:17162   */\n      0x01\n        /* \"#utility.yul\":17155:17159   */\n      dup3\n        /* \"#utility.yul\":17151:17163   */\n      and\n        /* \"#utility.yul\":17182:17200   */\n      dup1\n        /* \"#utility.yul\":17172:17253   */\n      tag_533\n      jumpi\n        /* \"#utility.yul\":17238:17242   */\n      0x7f\n        /* \"#utility.yul\":17230:17236   */\n      dup3\n        /* \"#utility.yul\":17226:17243   */\n      and\n        /* \"#utility.yul\":17216:17243   */\n      swap2\n      pop\n        /* \"#utility.yul\":17172:17253   */\n    tag_533:\n        /* \"#utility.yul\":17300:17302   */\n      0x20\n        /* \"#utility.yul\":17292:17298   */\n      dup3\n        /* \"#utility.yul\":17289:17303   */\n      lt\n        /* \"#utility.yul\":17269:17287   */\n      dup2\n        /* \"#utility.yul\":17266:17304   */\n      eq\n        /* \"#utility.yul\":17263:17347   */\n      iszero\n      tag_534\n      jumpi\n        /* \"#utility.yul\":17319:17337   */\n      tag_535\n      tag_536\n      jump\t// in\n    tag_535:\n        /* \"#utility.yul\":17263:17347   */\n    tag_534:\n        /* \"#utility.yul\":17084:17353   */\n      pop\n        /* \"#utility.yul\":17033:17353   */\n      swap2\n      swap1\n      pop\n      jump\t// out\n        /* \"#utility.yul\":17359:17640   */\n    tag_493:\n        /* \"#utility.yul\":17442:17469   */\n      tag_538\n        /* \"#utility.yul\":17464:17468   */\n      dup3\n        /* \"#utility.yul\":17442:17469   */\n      tag_419\n      jump\t// in\n    tag_538:\n        /* \"#utility.yul\":17434:17440   */\n      dup2\n        /* \"#utility.yul\":17430:17470   */\n      add\n        /* \"#utility.yul\":17572:17578   */\n      dup2\n        /* \"#utility.yul\":17560:17570   */\n      dup2\n        /* \"#utility.yul\":17557:17579   */\n      lt\n        /* \"#utility.yul\":17536:17554   */\n      0xffffffffffffffff\n        /* \"#utility.yul\":17524:17534   */\n      dup3\n        /* \"#utility.yul\":17521:17555   */\n      gt\n        /* \"#utility.yul\":17518:17580   */\n      or\n        /* \"#utility.yul\":17515:17603   */\n      iszero\n      tag_539\n      jumpi\n        /* \"#utility.yul\":17583:17601   */\n      tag_540\n      tag_498\n      jump\t// in\n    tag_540:\n        /* \"#utility.yul\":17515:17603   */\n    tag_539:\n        /* \"#utility.yul\":17623:17633   */\n      dup1\n        /* \"#utility.yul\":17619:17621   */\n      0x40\n        /* \"#utility.yul\":17612:17634   */\n      mstore\n        /* \"#utility.yul\":17402:17640   */\n      pop\n        /* \"#utility.yul\":17359:17640   */\n      pop\n      pop\n      jump\t// out\n        /* \"#utility.yul\":17646:17879   */\n    tag_208:\n        /* \"#utility.yul\":17685:17688   */\n      0x00\n        /* \"#utility.yul\":17708:17732   */\n      tag_542\n        /* \"#utility.yul\":17726:17731   */\n      dup3\n        /* \"#utility.yul\":17708:17732   */\n      tag_458\n      jump\t// in\n    tag_542:\n        /* \"#utility.yul\":17699:17732   */\n      swap2\n      pop\n        /* \"#utility.yul\":17754:17820   */\n      0xffffffffffffffffffffffffffffffffffffffffffffffffffffffffffffffff\n        /* \"#utility.yul\":17747:17752   */\n      dup3\n        /* \"#utility.yul\":17744:17821   */\n      eq\n        /* \"#utility.yul\":17741:17844   */\n      iszero\n      tag_543\n      jumpi\n        /* \"#utility.yul\":17824:17842   */\n      tag_544\n      tag_514\n      jump\t// in\n    tag_544:\n        /* \"#utility.yul\":17741:17844   */\n    tag_543:\n        /* \"#utility.yul\":17871:17872   */\n      0x01\n        /* \"#utility.yul\":17864:17869   */\n      dup3\n        /* \"#utility.yul\":17860:17873   */\n      add\n        /* \"#utility.yul\":17853:17873   */\n      swap1\n      pop\n        /* \"#utility.yul\":17646:17879   */\n      swap2\n      swap1\n      pop\n      jump\t// out\n        /* \"#utility.yul\":17885:18065   */\n    tag_514:\n        /* \"#utility.yul\":17933:18010   */\n      0x4e487b7100000000000000000000000000000000000000000000000000000000\n        /* \"#utility.yul\":17930:17931   */\n      0x00\n        /* \"#utility.yul\":17923:18011   */\n      mstore\n        /* \"#utility.yul\":18030:18034   */\n      0x11\n        /* \"#utility.yul\":18027:18028   */\n      0x04\n        /* \"#utility.yul\":18020:18035   */\n      mstore\n        /* \"#utility.yul\":18054:18058   */\n      0x24\n        /* \"#utility.yul\":18051:18052   */\n      0x00\n        /* \"#utility.yul\":18044:18059   */\n      revert\n        /* \"#utility.yul\":18071:18251   */\n    tag_536:\n        /* \"#utility.yul\":18119:18196   */\n      0x4e487b7100000000000000000000000000000000000000000000000000000000\n        /* \"#utility.yul\":18116:18117   */\n      0x00\n        /* \"#utility.yul\":18109:18197   */\n      mstore\n        /* \"#utility.yul\":18216:18220   */\n      0x22\n        /* \"#utility.yul\":18213:18214   */\n      0x04\n        /* \"#utility.yul\":18206:18221   */\n      mstore\n        /* \"#utility.yul\":18240:18244   */\n      0x24\n        /* \"#utility.yul\":18237:18238   */\n      0x00\n        /* \"#utility.yul\":18230:18245   */\n      revert\n        /* \"#utility.yul\":18257:18437   */\n    tag_136:\n        /* \"#utility.yul\":18305:18382   */\n      0x4e487b7100000000000000000000000000000000000000000000000000000000\n        /* \"#utility.yul\":18302:18303   */\n      0x00\n        /* \"#utility.yul\":18295:18383   */\n      mstore\n        /* \"#utility.yul\":18402:18406   */\n      0x32\n        /* \"#utility.yul\":18399:18400   */\n      0x04\n        /* \"#utility.yul\":18392:18407   */\n      mstore\n        /* \"#utility.yul\":18426:18430   */\n      0x24\n        /* \"#utility.yul\":18423:18424   */\n      0x00\n        /* \"#utility.yul\":18416:18431   */\n      revert\n        /* \"#utility.yul\":18443:18623   */\n    tag_498:\n        /* \"#utility.yul\":18491:18568   */\n      0x4e487b7100000000000000000000000000000000000000000000000000000000\n        /* \"#utility.yul\":18488:18489   */\n      0x00\n        /* \"#utility.yul\":18481:18569   */\n      mstore\n        /* \"#utility.yul\":18588:18592   */\n      0x41\n        /* \"#utility.yul\":18585:18586   */\n      0x04\n        /* \"#utility.yul\":18578:18593   */\n      mstore\n        /* \"#utility.yul\":18612:18616   */\n      0x24\n        /* \"#utility.yul\":18609:18610   */\n      0x00\n        /* \"#utility.yul\":18602:18617   */\n      revert\n        /* \"#utility.yul\":18629:18746   */\n    tag_338:\n        /* \"#utility.yul\":18738:18739   */\n      0x00\n        /* \"#utility.yul\":18735:18736   */\n      dup1\n        /* \"#utility.yul\":18728:18740   */\n      revert\n        /* \"#utility.yul\":18752:18869   */\n    tag_323:\n        /* \"#utility.yul\":18861:18862   */\n      0x00\n        /* \"#utility.yul\":18858:18859   */\n      dup1\n        /* \"#utility.yul\":18851:18863   */\n      revert\n        /* \"#utility.yul\":18875:18992   */\n    tag_354:\n        /* \"#utility.yul\":18984:18985   */\n      0x00\n        /* \"#utility.yul\":18981:18982   */\n      dup1\n        /* \"#utility.yul\":18974:18986   */\n      revert\n        /* \"#utility.yul\":18998:19115   */\n    tag_347:\n        /* \"#utility.yul\":19107:19108   */\n      0x00\n        /* \"#utility.yul\":19104:19105   */\n      dup1\n        /* \"#utility.yul\":19097:19109   */\n      revert\n        /* \"#utility.yul\":19121:19223   */\n    tag_419:\n        /* \"#utility.yul\":19162:19168   */\n      0x00\n        /* \"#utility.yul\":19213:19215   */\n      0x1f\n        /* \"#utility.yul\":19209:19216   */\n      not\n        /* \"#utility.yul\":19204:19206   */\n      0x1f\n        /* \"#utility.yul\":19197:19202   */\n      dup4\n        /* \"#utility.yul\":19193:19207   */\n      add\n        /* \"#utility.yul\":19189:19217   */\n      and\n        /* \"#utility.yul\":19179:19217   */\n      swap1\n      pop\n        /* \"#utility.yul\":19121:19223   */\n      swap2\n      swap1\n      pop\n      jump\t// out\n        /* \"#utility.yul\":19229:19395   */\n    tag_449:\n        /* \"#utility.yul\":19369:19387   */\n      0x6572726f723a206e6f74206d6f6e657900000000000000000000000000000000\n        /* \"#utility.yul\":19365:19366   */\n      0x00\n        /* \"#utility.yul\":19357:19363   */\n      dup3\n        /* \"#utility.yul\":19353:19367   */\n      add\n        /* \"#utility.yul\":19346:19388   */\n      mstore\n        /* \"#utility.yul\":19229:19395   */\n      pop\n      jump\t// out\n        /* \"#utility.yul\":19401:19621   */\n    tag_454:\n        /* \"#utility.yul\":19541:19575   */\n      0x6572726f723a20726174696e672063616e2062652066726f6d203120746f2031\n        /* \"#utility.yul\":19537:19538   */\n      0x00\n        /* \"#utility.yul\":19529:19535   */\n      dup3\n        /* \"#utility.yul\":19525:19539   */\n      add\n        /* \"#utility.yul\":19518:19576   */\n      mstore\n        /* \"#utility.yul\":19610:19613   */\n      0x3000000000000000000000000000000000000000000000000000000000000000\n        /* \"#utility.yul\":19605:19607   */\n      0x20\n        /* \"#utility.yul\":19597:19603   */\n      dup3\n        /* \"#utility.yul\":19593:19608   */\n      add\n        /* \"#utility.yul\":19586:19614   */\n      mstore\n        /* \"#utility.yul\":19401:19621   */\n      pop\n      jump\t// out\n        /* \"#utility.yul\":19627:19749   */\n    tag_329:\n        /* \"#utility.yul\":19700:19724   */\n      tag_557\n        /* \"#utility.yul\":19718:19723   */\n      dup2\n        /* \"#utility.yul\":19700:19724   */\n      tag_392\n      jump\t// in\n    tag_557:\n        /* \"#utility.yul\":19693:19698   */\n      dup2\n        /* \"#utility.yul\":19690:19725   */\n      eq\n        /* \"#utility.yul\":19680:19743   */\n      tag_558\n      jumpi\n        /* \"#utility.yul\":19739:19740   */\n      0x00\n        /* \"#utility.yul\":19736:19737   */\n      dup1\n        /* \"#utility.yul\":19729:19741   */\n      revert\n        /* \"#utility.yul\":19680:19743   */\n    tag_558:\n        /* \"#utility.yul\":19627:19749   */\n      pop\n      jump\t// out\n        /* \"#utility.yul\":19755:19871   */\n    tag_333:\n        /* \"#utility.yul\":19825:19846   */\n      tag_560\n        /* \"#utility.yul\":19840:19845   */\n      dup2\n        /* \"#utility.yul\":19825:19846   */\n      tag_410\n      jump\t// in\n    tag_560:\n        /* \"#utility.yul\":19818:19823   */\n      dup2\n        /* \"#utility.yul\":19815:19847   */\n      eq\n        /* \"#utility.yul\":19805:19865   */\n      tag_561\n      jumpi\n        /* \"#utility.yul\":19861:19862   */\n      0x00\n        /* \"#utility.yul\":19858:19859   */\n      dup1\n        /* \"#utility.yul\":19851:19863   */\n      revert\n        /* \"#utility.yul\":19805:19865   */\n    tag_561:\n        /* \"#utility.yul\":19755:19871   */\n      pop\n      jump\t// out\n        /* \"#utility.yul\":19877:19999   */\n    tag_343:\n        /* \"#utility.yul\":19950:19974   */\n      tag_563\n        /* \"#utility.yul\":19968:19973   */\n      dup2\n        /* \"#utility.yul\":19950:19974   */\n      tag_458\n      jump\t// in\n    tag_563:\n        /* \"#utility.yul\":19943:19948   */\n      dup2\n        /* \"#utility.yul\":19940:19975   */\n      eq\n        /* \"#utility.yul\":19930:19993   */\n      tag_564\n      jumpi\n        /* \"#utility.yul\":19989:19990   */\n      0x00\n        /* \"#utility.yul\":19986:19987   */\n      dup1\n        /* \"#utility.yul\":19979:19991   */\n      revert\n        /* \"#utility.yul\":19930:19993   */\n    tag_564:\n        /* \"#utility.yul\":19877:19999   */\n      pop\n      jump\t// out\n\n    auxdata: 0xa2646970667358221220be82d69e9d5f2f5f8a57a5d76406a6a79d1ef8169259e16509689ea82040e82164736f6c63430008070033\n}\n",
				"bytecode": {
					"linkReferences": {},
					"object": "60806040526000600c556000600d553480156200001b57600080fd5b506040518060a001604052806040518060400160405280600481526020017f466f6f640000000000000000000000000000000000000000000000000000000081525081526020016040518060400160405280600181526020017f310000000000000000000000000000000000000000000000000000000000000081525081526020016040518060400160405280600681526020017f4d6f73636f77000000000000000000000000000000000000000000000000000081525081526020016103e881526020016000815250600080735b38da6a701c568545dcfcb03fcb875f56beddc473ffffffffffffffffffffffffffffffffffffffff1673ffffffffffffffffffffffffffffffffffffffff16815260200190815260200160002060008201518160000190805190602001906200015592919062000854565b5060208201518160010190805190602001906200017492919062000854565b5060408201518160020190805190602001906200019392919062000854565b5060608201518160030155608082015181600401559050506002600080735b38da6a701c568545dcfcb03fcb875f56beddc473ffffffffffffffffffffffffffffffffffffffff1673ffffffffffffffffffffffffffffffffffffffff168152602001908152602001600020600001908060018154018082558091505060019003906000526020600020016000909190919091509080546200023590620009e5565b62000242929190620008e5565b506040518060a001604052806040518060400160405280600781526020017f436c6f746865730000000000000000000000000000000000000000000000000081525081526020016040518060400160405280600181526020017f320000000000000000000000000000000000000000000000000000000000000081525081526020016040518060400160405280600a81526020017f506574657273627572670000000000000000000000000000000000000000000081525081526020016103e88152602001600081525060008073ab8483f64d9c6d1ecf9b849ae677dd3315835cb273ffffffffffffffffffffffffffffffffffffffff1673ffffffffffffffffffffffffffffffffffffffff16815260200190815260200160002060008201518160000190805190602001906200037c92919062000854565b5060208201518160010190805190602001906200039b92919062000854565b506040820151816002019080519060200190620003ba92919062000854565b506060820151816003015560808201518160040155905050600260008073ab8483f64d9c6d1ecf9b849ae677dd3315835cb273ffffffffffffffffffffffffffffffffffffffff1673ffffffffffffffffffffffffffffffffffffffff168152602001908152602001600020600001908060018154018082558091505060019003906000526020600020016000909190919091509080546200045c90620009e5565b62000469929190620008e5565b506040518060a001604052806040518060400160405280600981526020017f5065742053746f7265000000000000000000000000000000000000000000000081525081526020016040518060400160405280600181526020017f330000000000000000000000000000000000000000000000000000000000000081525081526020016040518060400160405280600c81526020017f456b61746572696e62757267000000000000000000000000000000000000000081525081526020016103e881526020016000815250600080734b20993bc481177ec7e8f571cecae8a9e22c02db73ffffffffffffffffffffffffffffffffffffffff1673ffffffffffffffffffffffffffffffffffffffff1681526020019081526020016000206000820151816000019080519060200190620005a392919062000854565b506020820151816001019080519060200190620005c292919062000854565b506040820151816002019080519060200190620005e192919062000854565b5060608201518160030155608082015181600401559050506002600080734b20993bc481177ec7e8f571cecae8a9e22c02db73ffffffffffffffffffffffffffffffffffffffff1673ffffffffffffffffffffffffffffffffffffffff168152602001908152602001600020600001908060018154018082558091505060019003906000526020600020016000909190919091509080546200068390620009e5565b62000690929190620008e5565b507378731d3ca6b7e34ac0f824c42a7cc18a495cabab6005604051620006b690620009c3565b908152602001604051809103902060006101000a81548173ffffffffffffffffffffffffffffffffffffffff021916908373ffffffffffffffffffffffffffffffffffffffff16021790555060405180606001604052806040518060400160405280600481526020017f50657461000000000000000000000000000000000000000000000000000000008152508152602001600181526020016103e8815250600460007378731d3ca6b7e34ac0f824c42a7cc18a495cabab73ffffffffffffffffffffffffffffffffffffffff1673ffffffffffffffffffffffffffffffffffffffff1681526020019081526020016000206000820151816000019080519060200190620007c692919062000854565b506020820151816001015560408201518160020155905050600680600181540180825580915050600190039060005260206000200160006040518060400160405280600481526020017f5065746100000000000000000000000000000000000000000000000000000000815250909190915090805190602001906200084d92919062000854565b5062000a73565b8280546200086290620009e5565b90600052602060002090601f016020900481019282620008865760008555620008d2565b82601f10620008a157805160ff1916838001178555620008d2565b82800160010185558215620008d2579182015b82811115620008d1578251825591602001919060010190620008b4565b5b509050620008e191906200097d565b5090565b828054620008f390620009e5565b90600052602060002090601f0160209004810192826200091757600085556200096a565b82601f106200092a57805485556200096a565b828001600101855582156200096a57600052602060002091601f016020900482015b82811115620009695782548255916001019190600101906200094c565b5b5090506200097991906200097d565b5090565b5b80821115620009985760008160009055506001016200097e565b5090565b6000620009ab600483620009da565b9150620009b88262000a4a565b600482019050919050565b6000620009d0826200099c565b9150819050919050565b600081905092915050565b60006002820490506001821680620009fe57607f821691505b6020821081141562000a155762000a1462000a1b565b5b50919050565b7f4e487b7100000000000000000000000000000000000000000000000000000000600052602260045260246000fd5b7f5065746100000000000000000000000000000000000000000000000000000000600082015250565b6126c48062000a836000396000f3fe6080604052600436106101095760003560e01c8063961865f011610095578063c4957fa011610064578063c4957fa014610394578063cc21c188146103d1578063d68cf8c1146103ed578063dce391511461042d578063f69483c11461046c57610109565b8063961865f0146102c2578063a9f9482b14610301578063bbd4336314610340578063c178b9af1461036957610109565b80632ccdef7c116100dc5780632ccdef7c146101dd5780632d4673e31461020657806334d2c0ad1461022f5780636c05dd1d1461025a5780637ddb273d1461028357610109565b806308f4d2c61461010e5780630c72b1ec1461014e578063146dc6ed146101775780631bbe970a146101a0575b600080fd5b34801561011a57600080fd5b5061013560048036038101906101309190611dfc565b610495565b604051610145949392919061217c565b60405180910390f35b34801561015a57600080fd5b5061017560048036038101906101709190611e29565b61066d565b005b34801561018357600080fd5b5061019e60048036038101906101999190611c9d565b61093a565b005b3480156101ac57600080fd5b506101c760048036038101906101c29190611c9d565b610ac8565b6040516101d491906120b5565b60405180910390f35b3480156101e957600080fd5b5061020460048036038101906101ff9190611e29565b610b11565b005b34801561021257600080fd5b5061022d60048036038101906102289190611c9d565b610d07565b005b34801561023b57600080fd5b50610244610def565b604051610251919061215a565b60405180910390f35b34801561026657600080fd5b50610281600480360381019061027c9190611d71565b610ec8565b005b34801561028f57600080fd5b506102aa60048036038101906102a59190611dfc565b610ff3565b6040516102b9939291906120d0565b60405180910390f35b3480156102ce57600080fd5b506102e960048036038101906102e49190611c70565b6110e2565b6040516102f8939291906121d6565b60405180910390f35b34801561030d57600080fd5b5061032860048036038101906103239190611dfc565b611194565b604051610337939291906120d0565b60405180910390f35b34801561034c57600080fd5b5061036760048036038101906103629190611c9d565b611283565b005b34801561037557600080fd5b5061037e61136b565b60405161038b919061215a565b60405180910390f35b3480156103a057600080fd5b506103bb60048036038101906103b69190611c9d565b611444565b6040516103c891906120b5565b60405180910390f35b6103eb60048036038101906103e69190611ce6565b61148d565b005b3480156103f957600080fd5b50610414600480360381019061040f9190611c9d565b611687565b604051610424949392919061210e565b60405180910390f35b34801561043957600080fd5b50610454600480360381019061044f9190611dfc565b611775565b604051610463939291906120d0565b60405180910390f35b34801561047857600080fd5b50610493600480360381019061048e9190611e29565b611864565b005b600381815481106104a557600080fd5b90600052602060002090600502016000915090508060000180546104c890612444565b80601f01602080910402602001604051908101604052809291908181526020018280546104f490612444565b80156105415780601f1061051657610100808354040283529160200191610541565b820191906000526020600020905b81548152906001019060200180831161052457829003601f168201915b50505050509080600101805461055690612444565b80601f016020809104026020016040519081016040528092919081815260200182805461058290612444565b80156105cf5780601f106105a4576101008083540402835291602001916105cf565b820191906000526020600020905b8154815290600101906020018083116105b257829003601f168201915b5050505050908060020180546105e490612444565b80601f016020809104026020016040519081016040528092919081815260200182805461061090612444565b801561065d5780601f106106325761010080835404028352916020019161065d565b820191906000526020600020905b81548152906001019060200180831161064057829003601f168201915b5050505050908060030154905084565b6001151581151514156108f7576000600983815481106106905761068f61254e565b5b906000526020600020906003020160020160006101000a81548160ff0219169083151502179055506007600983815481106106ce576106cd61254e565b5b90600052602060002090600302016001016040516106ec919061209e565b90815260200160405180910390206002015460046000600985815481106107165761071561254e565b5b906000526020600020906003020160000160009054906101000a900473ffffffffffffffffffffffffffffffffffffffff1673ffffffffffffffffffffffffffffffffffffffff1673ffffffffffffffffffffffffffffffffffffffff168152602001908152602001600020600201546107909190612386565b60046000600985815481106107a8576107a761254e565b5b906000526020600020906003020160000160009054906101000a900473ffffffffffffffffffffffffffffffffffffffff1673ffffffffffffffffffffffffffffffffffffffff1673ffffffffffffffffffffffffffffffffffffffff168152602001908152602001600020600201819055506007600983815481106108315761083061254e565b5b906000526020600020906003020160010160405161084f919061209e565b9081526020016040518091039020600201546000803373ffffffffffffffffffffffffffffffffffffffff1673ffffffffffffffffffffffffffffffffffffffff168152602001908152602001600020600301546108ad9190612330565b6000803373ffffffffffffffffffffffffffffffffffffffff1673ffffffffffffffffffffffffffffffffffffffff16815260200190815260200160002060030181905550610936565b60006009838154811061090d5761090c61254e565b5b906000526020600020906003020160020160006101000a81548160ff0219169083151502179055505b5050565b60078160405161094a9190612087565b908152602001604051809103902060020154600460003373ffffffffffffffffffffffffffffffffffffffff1673ffffffffffffffffffffffffffffffffffffffff1681526020019081526020016000206002015410156109e0576040517f08c379a00000000000000000000000000000000000000000000000000000000081526004016109d790612214565b60405180910390fd5b600960405180606001604052803373ffffffffffffffffffffffffffffffffffffffff16815260200183815260200160011515815250908060018154018082558091505060019003906000526020600020906003020160009091909190915060008201518160000160006101000a81548173ffffffffffffffffffffffffffffffffffffffff021916908373ffffffffffffffffffffffffffffffffffffffff1602179055506020820151816001019080519060200190610aa2929190611a5a565b5060408201518160020160006101000a81548160ff021916908315150217905550505050565b6005818051602081018201805184825260208301602085012081835280955050505050506000915054906101000a900473ffffffffffffffffffffffffffffffffffffffff1681565b600115158115151415610cc4576000600a8381548110610b3457610b3361254e565b5b906000526020600020906003020160020160006101000a81548160ff0219169083151502179055506007600a8381548110610b7257610b7161254e565b5b9060005260206000209060030201600101604051610b90919061209e565b90815260200160405180910390206002015460046000600a8581548110610bba57610bb961254e565b5b906000526020600020906003020160000160009054906101000a900473ffffffffffffffffffffffffffffffffffffffff1673ffffffffffffffffffffffffffffffffffffffff1673ffffffffffffffffffffffffffffffffffffffff16815260200190815260200160002060020154610c349190612330565b60046000600a8581548110610c4c57610c4b61254e565b5b906000526020600020906003020160000160009054906101000a900473ffffffffffffffffffffffffffffffffffffffff1673ffffffffffffffffffffffffffffffffffffffff1673ffffffffffffffffffffffffffffffffffffffff16815260200190815260200160002060020181905550610d03565b6000600a8381548110610cda57610cd961254e565b5b906000526020600020906003020160020160006101000a81548160ff0219169083151502179055505b5050565b600b60405180606001604052803373ffffffffffffffffffffffffffffffffffffffff16815260200183815260200160011515815250908060018154018082558091505060019003906000526020600020906003020160009091909190915060008201518160000160006101000a81548173ffffffffffffffffffffffffffffffffffffffff021916908373ffffffffffffffffffffffffffffffffffffffff1602179055506020820151816001019080519060200190610dc9929190611a5a565b5060408201518160020160006101000a81548160ff021916908315150217905550505050565b60606008805480602002602001604051908101604052809291908181526020016000905b82821015610ebf578382906000526020600020018054610e3290612444565b80601f0160208091040260200160405190810160405280929190818152602001828054610e5e90612444565b8015610eab5780601f10610e8057610100808354040283529160200191610eab565b820191906000526020600020905b815481529060010190602001808311610e8e57829003601f168201915b505050505081526020019060010190610e13565b50505050905090565b60405180608001604052803373ffffffffffffffffffffffffffffffffffffffff168152602001828152602001838152602001600c54815250600784604051610f119190612087565b908152602001604051809103902060008201518160000160006101000a81548173ffffffffffffffffffffffffffffffffffffffff021916908373ffffffffffffffffffffffffffffffffffffffff1602179055506020820151816001019080519060200190610f82929190611a5a565b506040820151816002015560608201518160030155905050600883908060018154018082558091505060019003906000526020600020016000909190919091509080519060200190610fd5929190611a5a565b50600c6000815480929190610fe9906124a7565b9190505550505050565b600b818154811061100357600080fd5b90600052602060002090600302016000915090508060000160009054906101000a900473ffffffffffffffffffffffffffffffffffffffff169080600101805461104c90612444565b80601f016020809104026020016040519081016040528092919081815260200182805461107890612444565b80156110c55780601f1061109a576101008083540402835291602001916110c5565b820191906000526020600020905b8154815290600101906020018083116110a857829003601f168201915b5050505050908060020160009054906101000a900460ff16905083565b600460205280600052604060002060009150905080600001805461110590612444565b80601f016020809104026020016040519081016040528092919081815260200182805461113190612444565b801561117e5780601f106111535761010080835404028352916020019161117e565b820191906000526020600020905b81548152906001019060200180831161116157829003601f168201915b5050505050908060010154908060020154905083565b600a81815481106111a457600080fd5b90600052602060002090600302016000915090508060000160009054906101000a900473ffffffffffffffffffffffffffffffffffffffff16908060010180546111ed90612444565b80601f016020809104026020016040519081016040528092919081815260200182805461121990612444565b80156112665780601f1061123b57610100808354040283529160200191611266565b820191906000526020600020905b81548152906001019060200180831161124957829003601f168201915b5050505050908060020160009054906101000a900460ff16905083565b600a60405180606001604052803373ffffffffffffffffffffffffffffffffffffffff16815260200183815260200160011515815250908060018154018082558091505060019003906000526020600020906003020160009091909190915060008201518160000160006101000a81548173ffffffffffffffffffffffffffffffffffffffff021916908373ffffffffffffffffffffffffffffffffffffffff1602179055506020820151816001019080519060200190611345929190611a5a565b5060408201518160020160006101000a81548160ff021916908315150217905550505050565b60606002805480602002602001604051908101604052809291908181526020016000905b8282101561143b5783829060005260206000200180546113ae90612444565b80601f01602080910402602001604051908101604052809291908181526020018280546113da90612444565b80156114275780601f106113fc57610100808354040283529160200191611427565b820191906000526020600020905b81548152906001019060200180831161140a57829003601f168201915b50505050508152602001906001019061138f565b50505050905090565b6001818051602081018201805184825260208301602085012081835280955050505050506000915054906101000a900473ffffffffffffffffffffffffffffffffffffffff1681565b600a8111156114d1576040517f08c379a00000000000000000000000000000000000000000000000000000000081526004016114c890612234565b60405180910390fd5b60606040518060a00160405280858152602001600460003373ffffffffffffffffffffffffffffffffffffffff1673ffffffffffffffffffffffffffffffffffffffff168152602001908152602001600020600001805461153190612444565b80601f016020809104026020016040519081016040528092919081815260200182805461155d90612444565b80156115aa5780601f1061157f576101008083540402835291602001916115aa565b820191906000526020600020905b81548152906001019060200180831161158d57829003601f168201915b50505050508152602001848152602001838152602001828152506003600d54815481106115da576115d961254e565b5b90600052602060002090600502016000820151816000019080519060200190611604929190611a5a565b506020820151816001019080519060200190611621929190611a5a565b50604082015181600201908051906020019061163e929190611a5a565b50606082015181600301556080820151816004019080519060200190611665929190611ae0565b50905050600d600081548092919061167c906124a7565b919050555050505050565b6007818051602081018201805184825260208301602085012081835280955050505050506000915090508060000160009054906101000a900473ffffffffffffffffffffffffffffffffffffffff16908060010180546116e690612444565b80601f016020809104026020016040519081016040528092919081815260200182805461171290612444565b801561175f5780601f106117345761010080835404028352916020019161175f565b820191906000526020600020905b81548152906001019060200180831161174257829003601f168201915b5050505050908060020154908060030154905084565b6009818154811061178557600080fd5b90600052602060002090600302016000915090508060000160009054906101000a900473ffffffffffffffffffffffffffffffffffffffff16908060010180546117ce90612444565b80601f01602080910402602001604051908101604052809291908181526020018280546117fa90612444565b80156118475780601f1061181c57610100808354040283529160200191611847565b820191906000526020600020905b81548152906001019060200180831161182a57829003601f168201915b5050505050908060020160009054906101000a900460ff16905083565b600115158115151415611a17576000600a83815481106118875761188661254e565b5b906000526020600020906003020160020160006101000a81548160ff0219169083151502179055506007600b83815481106118c5576118c461254e565b5b90600052602060002090600302016001016040516118e3919061209e565b90815260200160405180910390206002015460046000600b858154811061190d5761190c61254e565b5b906000526020600020906003020160000160009054906101000a900473ffffffffffffffffffffffffffffffffffffffff1673ffffffffffffffffffffffffffffffffffffffff1673ffffffffffffffffffffffffffffffffffffffff168152602001908152602001600020600201546119879190612330565b60046000600b858154811061199f5761199e61254e565b5b906000526020600020906003020160000160009054906101000a900473ffffffffffffffffffffffffffffffffffffffff1673ffffffffffffffffffffffffffffffffffffffff1673ffffffffffffffffffffffffffffffffffffffff16815260200190815260200160002060020181905550611a56565b6000600a8381548110611a2d57611a2c61254e565b5b906000526020600020906003020160020160006101000a81548160ff0219169083151502179055505b5050565b828054611a6690612444565b90600052602060002090601f016020900481019282611a885760008555611acf565b82601f10611aa157805160ff1916838001178555611acf565b82800160010185558215611acf579182015b82811115611ace578251825591602001919060010190611ab3565b5b509050611adc9190611b40565b5090565b828054828255906000526020600020908101928215611b2f579160200282015b82811115611b2e578251829080519060200190611b1e929190611a5a565b5091602001919060010190611b00565b5b509050611b3c9190611b5d565b5090565b5b80821115611b59576000816000905550600101611b41565b5090565b5b80821115611b7d5760008181611b749190611b81565b50600101611b5e565b5090565b508054611b8d90612444565b6000825580601f10611b9f5750611bbe565b601f016020900490600052602060002090810190611bbd9190611b40565b5b50565b6000611bd4611bcf84612279565b612254565b905082815260208101848484011115611bf057611bef6125b1565b5b611bfb848285612402565b509392505050565b600081359050611c1281612649565b92915050565b600081359050611c2781612660565b92915050565b600082601f830112611c4257611c416125ac565b5b8135611c52848260208601611bc1565b91505092915050565b600081359050611c6a81612677565b92915050565b600060208284031215611c8657611c856125bb565b5b6000611c9484828501611c03565b91505092915050565b600060208284031215611cb357611cb26125bb565b5b600082013567ffffffffffffffff811115611cd157611cd06125b6565b5b611cdd84828501611c2d565b91505092915050565b600080600060608486031215611cff57611cfe6125bb565b5b600084013567ffffffffffffffff811115611d1d57611d1c6125b6565b5b611d2986828701611c2d565b935050602084013567ffffffffffffffff811115611d4a57611d496125b6565b5b611d5686828701611c2d565b9250506040611d6786828701611c5b565b9150509250925092565b600080600060608486031215611d8a57611d896125bb565b5b600084013567ffffffffffffffff811115611da857611da76125b6565b5b611db486828701611c2d565b9350506020611dc586828701611c5b565b925050604084013567ffffffffffffffff811115611de657611de56125b6565b5b611df286828701611c2d565b9150509250925092565b600060208284031215611e1257611e116125bb565b5b6000611e2084828501611c5b565b91505092915050565b60008060408385031215611e4057611e3f6125bb565b5b6000611e4e85828601611c5b565b9250506020611e5f85828601611c18565b9150509250929050565b6000611e758383611f10565b905092915050565b611e86816123ba565b82525050565b6000611e97826122cf565b611ea181856122f2565b935083602082028501611eb3856122aa565b8060005b85811015611eef5784840389528151611ed08582611e69565b9450611edb836122e5565b925060208a01995050600181019050611eb7565b50829750879550505050505092915050565b611f0a816123cc565b82525050565b6000611f1b826122da565b611f258185612303565b9350611f35818560208601612411565b611f3e816125c0565b840191505092915050565b6000611f54826122da565b611f5e8185612314565b9350611f6e818560208601612411565b611f77816125c0565b840191505092915050565b6000611f8d826122da565b611f978185612325565b9350611fa7818560208601612411565b80840191505092915050565b60008154611fc081612444565b611fca8186612325565b94506001821660008114611fe55760018114611ff657612029565b60ff19831686528186019350612029565b611fff856122ba565b60005b8381101561202157815481890152600182019150602081019050612002565b838801955050505b50505092915050565b600061203f601083612314565b915061204a826125d1565b602082019050919050565b6000612062602183612314565b915061206d826125fa565b604082019050919050565b612081816123f8565b82525050565b60006120938284611f82565b915081905092915050565b60006120aa8284611fb3565b915081905092915050565b60006020820190506120ca6000830184611e7d565b92915050565b60006060820190506120e56000830186611e7d565b81810360208301526120f78185611f49565b90506121066040830184611f01565b949350505050565b60006080820190506121236000830187611e7d565b81810360208301526121358186611f49565b90506121446040830185612078565b6121516060830184612078565b95945050505050565b600060208201905081810360008301526121748184611e8c565b905092915050565b600060808201905081810360008301526121968187611f49565b905081810360208301526121aa8186611f49565b905081810360408301526121be8185611f49565b90506121cd6060830184612078565b95945050505050565b600060608201905081810360008301526121f08186611f49565b90506121ff6020830185612078565b61220c6040830184612078565b949350505050565b6000602082019050818103600083015261222d81612032565b9050919050565b6000602082019050818103600083015261224d81612055565b9050919050565b600061225e61226f565b905061226a8282612476565b919050565b6000604051905090565b600067ffffffffffffffff8211156122945761229361257d565b5b61229d826125c0565b9050602081019050919050565b6000819050602082019050919050565b60008190508160005260206000209050919050565b600081519050919050565b600081519050919050565b6000602082019050919050565b600082825260208201905092915050565b600082825260208201905092915050565b600082825260208201905092915050565b600081905092915050565b600061233b826123f8565b9150612346836123f8565b9250827fffffffffffffffffffffffffffffffffffffffffffffffffffffffffffffffff0382111561237b5761237a6124f0565b5b828201905092915050565b6000612391826123f8565b915061239c836123f8565b9250828210156123af576123ae6124f0565b5b828203905092915050565b60006123c5826123d8565b9050919050565b60008115159050919050565b600073ffffffffffffffffffffffffffffffffffffffff82169050919050565b6000819050919050565b82818337600083830152505050565b60005b8381101561242f578082015181840152602081019050612414565b8381111561243e576000848401525b50505050565b6000600282049050600182168061245c57607f821691505b602082108114156124705761246f61251f565b5b50919050565b61247f826125c0565b810181811067ffffffffffffffff8211171561249e5761249d61257d565b5b80604052505050565b60006124b2826123f8565b91507fffffffffffffffffffffffffffffffffffffffffffffffffffffffffffffffff8214156124e5576124e46124f0565b5b600182019050919050565b7f4e487b7100000000000000000000000000000000000000000000000000000000600052601160045260246000fd5b7f4e487b7100000000000000000000000000000000000000000000000000000000600052602260045260246000fd5b7f4e487b7100000000000000000000000000000000000000000000000000000000600052603260045260246000fd5b7f4e487b7100000000000000000000000000000000000000000000000000000000600052604160045260246000fd5b600080fd5b600080fd5b600080fd5b600080fd5b6000601f19601f8301169050919050565b7f6572726f723a206e6f74206d6f6e657900000000000000000000000000000000600082015250565b7f6572726f723a20726174696e672063616e2062652066726f6d203120746f203160008201527f3000000000000000000000000000000000000000000000000000000000000000602082015250565b612652816123ba565b811461265d57600080fd5b50565b612669816123cc565b811461267457600080fd5b50565b612680816123f8565b811461268b57600080fd5b5056fea2646970667358221220be82d69e9d5f2f5f8a57a5d76406a6a79d1ef8169259e16509689ea82040e82164736f6c63430008070033",
					"opcodes": "PUSH1 0x80 PUSH1 0x40 MSTORE PUSH1 0x0 PUSH1 0xC SSTORE PUSH1 0x0 PUSH1 0xD SSTORE CALLVALUE DUP1 ISZERO PUSH3 0x1B JUMPI PUSH1 0x0 DUP1 REVERT JUMPDEST POP PUSH1 0x40 MLOAD DUP1 PUSH1 0xA0 ADD PUSH1 0x40 MSTORE DUP1 PUSH1 0x40 MLOAD DUP1 PUSH1 0x40 ADD PUSH1 0x40 MSTORE DUP1 PUSH1 0x4 DUP2 MSTORE PUSH1 0x20 ADD PUSH32 0x466F6F6400000000000000000000000000000000000000000000000000000000 DUP2 MSTORE POP DUP2 MSTORE PUSH1 0x20 ADD PUSH1 0x40 MLOAD DUP1 PUSH1 0x40 ADD PUSH1 0x40 MSTORE DUP1 PUSH1 0x1 DUP2 MSTORE PUSH1 0x20 ADD PUSH32 0x3100000000000000000000000000000000000000000000000000000000000000 DUP2 MSTORE POP DUP2 MSTORE PUSH1 0x20 ADD PUSH1 0x40 MLOAD DUP1 PUSH1 0x40 ADD PUSH1 0x40 MSTORE DUP1 PUSH1 0x6 DUP2 MSTORE PUSH1 0x20 ADD PUSH32 0x4D6F73636F770000000000000000000000000000000000000000000000000000 DUP2 MSTORE POP DUP2 MSTORE PUSH1 0x20 ADD PUSH2 0x3E8 DUP2 MSTORE PUSH1 0x20 ADD PUSH1 0x0 DUP2 MSTORE POP PUSH1 0x0 DUP1 PUSH20 0x5B38DA6A701C568545DCFCB03FCB875F56BEDDC4 PUSH20 0xFFFFFFFFFFFFFFFFFFFFFFFFFFFFFFFFFFFFFFFF AND PUSH20 0xFFFFFFFFFFFFFFFFFFFFFFFFFFFFFFFFFFFFFFFF AND DUP2 MSTORE PUSH1 0x20 ADD SWAP1 DUP2 MSTORE PUSH1 0x20 ADD PUSH1 0x0 KECCAK256 PUSH1 0x0 DUP3 ADD MLOAD DUP2 PUSH1 0x0 ADD SWAP1 DUP1 MLOAD SWAP1 PUSH1 0x20 ADD SWAP1 PUSH3 0x155 SWAP3 SWAP2 SWAP1 PUSH3 0x854 JUMP JUMPDEST POP PUSH1 0x20 DUP3 ADD MLOAD DUP2 PUSH1 0x1 ADD SWAP1 DUP1 MLOAD SWAP1 PUSH1 0x20 ADD SWAP1 PUSH3 0x174 SWAP3 SWAP2 SWAP1 PUSH3 0x854 JUMP JUMPDEST POP PUSH1 0x40 DUP3 ADD MLOAD DUP2 PUSH1 0x2 ADD SWAP1 DUP1 MLOAD SWAP1 PUSH1 0x20 ADD SWAP1 PUSH3 0x193 SWAP3 SWAP2 SWAP1 PUSH3 0x854 JUMP JUMPDEST POP PUSH1 0x60 DUP3 ADD MLOAD DUP2 PUSH1 0x3 ADD SSTORE PUSH1 0x80 DUP3 ADD MLOAD DUP2 PUSH1 0x4 ADD SSTORE SWAP1 POP POP PUSH1 0x2 PUSH1 0x0 DUP1 PUSH20 0x5B38DA6A701C568545DCFCB03FCB875F56BEDDC4 PUSH20 0xFFFFFFFFFFFFFFFFFFFFFFFFFFFFFFFFFFFFFFFF AND PUSH20 0xFFFFFFFFFFFFFFFFFFFFFFFFFFFFFFFFFFFFFFFF AND DUP2 MSTORE PUSH1 0x20 ADD SWAP1 DUP2 MSTORE PUSH1 0x20 ADD PUSH1 0x0 KECCAK256 PUSH1 0x0 ADD SWAP1 DUP1 PUSH1 0x1 DUP2 SLOAD ADD DUP1 DUP3 SSTORE DUP1 SWAP2 POP POP PUSH1 0x1 SWAP1 SUB SWAP1 PUSH1 0x0 MSTORE PUSH1 0x20 PUSH1 0x0 KECCAK256 ADD PUSH1 0x0 SWAP1 SWAP2 SWAP1 SWAP2 SWAP1 SWAP2 POP SWAP1 DUP1 SLOAD PUSH3 0x235 SWAP1 PUSH3 0x9E5 JUMP JUMPDEST PUSH3 0x242 SWAP3 SWAP2 SWAP1 PUSH3 0x8E5 JUMP JUMPDEST POP PUSH1 0x40 MLOAD DUP1 PUSH1 0xA0 ADD PUSH1 0x40 MSTORE DUP1 PUSH1 0x40 MLOAD DUP1 PUSH1 0x40 ADD PUSH1 0x40 MSTORE DUP1 PUSH1 0x7 DUP2 MSTORE PUSH1 0x20 ADD PUSH32 0x436C6F7468657300000000000000000000000000000000000000000000000000 DUP2 MSTORE POP DUP2 MSTORE PUSH1 0x20 ADD PUSH1 0x40 MLOAD DUP1 PUSH1 0x40 ADD PUSH1 0x40 MSTORE DUP1 PUSH1 0x1 DUP2 MSTORE PUSH1 0x20 ADD PUSH32 0x3200000000000000000000000000000000000000000000000000000000000000 DUP2 MSTORE POP DUP2 MSTORE PUSH1 0x20 ADD PUSH1 0x40 MLOAD DUP1 PUSH1 0x40 ADD PUSH1 0x40 MSTORE DUP1 PUSH1 0xA DUP2 MSTORE PUSH1 0x20 ADD PUSH32 0x5065746572736275726700000000000000000000000000000000000000000000 DUP2 MSTORE POP DUP2 MSTORE PUSH1 0x20 ADD PUSH2 0x3E8 DUP2 MSTORE PUSH1 0x20 ADD PUSH1 0x0 DUP2 MSTORE POP PUSH1 0x0 DUP1 PUSH20 0xAB8483F64D9C6D1ECF9B849AE677DD3315835CB2 PUSH20 0xFFFFFFFFFFFFFFFFFFFFFFFFFFFFFFFFFFFFFFFF AND PUSH20 0xFFFFFFFFFFFFFFFFFFFFFFFFFFFFFFFFFFFFFFFF AND DUP2 MSTORE PUSH1 0x20 ADD SWAP1 DUP2 MSTORE PUSH1 0x20 ADD PUSH1 0x0 KECCAK256 PUSH1 0x0 DUP3 ADD MLOAD DUP2 PUSH1 0x0 ADD SWAP1 DUP1 MLOAD SWAP1 PUSH1 0x20 ADD SWAP1 PUSH3 0x37C SWAP3 SWAP2 SWAP1 PUSH3 0x854 JUMP JUMPDEST POP PUSH1 0x20 DUP3 ADD MLOAD DUP2 PUSH1 0x1 ADD SWAP1 DUP1 MLOAD SWAP1 PUSH1 0x20 ADD SWAP1 PUSH3 0x39B SWAP3 SWAP2 SWAP1 PUSH3 0x854 JUMP JUMPDEST POP PUSH1 0x40 DUP3 ADD MLOAD DUP2 PUSH1 0x2 ADD SWAP1 DUP1 MLOAD SWAP1 PUSH1 0x20 ADD SWAP1 PUSH3 0x3BA SWAP3 SWAP2 SWAP1 PUSH3 0x854 JUMP JUMPDEST POP PUSH1 0x60 DUP3 ADD MLOAD DUP2 PUSH1 0x3 ADD SSTORE PUSH1 0x80 DUP3 ADD MLOAD DUP2 PUSH1 0x4 ADD SSTORE SWAP1 POP POP PUSH1 0x2 PUSH1 0x0 DUP1 PUSH20 0xAB8483F64D9C6D1ECF9B849AE677DD3315835CB2 PUSH20 0xFFFFFFFFFFFFFFFFFFFFFFFFFFFFFFFFFFFFFFFF AND PUSH20 0xFFFFFFFFFFFFFFFFFFFFFFFFFFFFFFFFFFFFFFFF AND DUP2 MSTORE PUSH1 0x20 ADD SWAP1 DUP2 MSTORE PUSH1 0x20 ADD PUSH1 0x0 KECCAK256 PUSH1 0x0 ADD SWAP1 DUP1 PUSH1 0x1 DUP2 SLOAD ADD DUP1 DUP3 SSTORE DUP1 SWAP2 POP POP PUSH1 0x1 SWAP1 SUB SWAP1 PUSH1 0x0 MSTORE PUSH1 0x20 PUSH1 0x0 KECCAK256 ADD PUSH1 0x0 SWAP1 SWAP2 SWAP1 SWAP2 SWAP1 SWAP2 POP SWAP1 DUP1 SLOAD PUSH3 0x45C SWAP1 PUSH3 0x9E5 JUMP JUMPDEST PUSH3 0x469 SWAP3 SWAP2 SWAP1 PUSH3 0x8E5 JUMP JUMPDEST POP PUSH1 0x40 MLOAD DUP1 PUSH1 0xA0 ADD PUSH1 0x40 MSTORE DUP1 PUSH1 0x40 MLOAD DUP1 PUSH1 0x40 ADD PUSH1 0x40 MSTORE DUP1 PUSH1 0x9 DUP2 MSTORE PUSH1 0x20 ADD PUSH32 0x5065742053746F72650000000000000000000000000000000000000000000000 DUP2 MSTORE POP DUP2 MSTORE PUSH1 0x20 ADD PUSH1 0x40 MLOAD DUP1 PUSH1 0x40 ADD PUSH1 0x40 MSTORE DUP1 PUSH1 0x1 DUP2 MSTORE PUSH1 0x20 ADD PUSH32 0x3300000000000000000000000000000000000000000000000000000000000000 DUP2 MSTORE POP DUP2 MSTORE PUSH1 0x20 ADD PUSH1 0x40 MLOAD DUP1 PUSH1 0x40 ADD PUSH1 0x40 MSTORE DUP1 PUSH1 0xC DUP2 MSTORE PUSH1 0x20 ADD PUSH32 0x456B61746572696E627572670000000000000000000000000000000000000000 DUP2 MSTORE POP DUP2 MSTORE PUSH1 0x20 ADD PUSH2 0x3E8 DUP2 MSTORE PUSH1 0x20 ADD PUSH1 0x0 DUP2 MSTORE POP PUSH1 0x0 DUP1 PUSH20 0x4B20993BC481177EC7E8F571CECAE8A9E22C02DB PUSH20 0xFFFFFFFFFFFFFFFFFFFFFFFFFFFFFFFFFFFFFFFF AND PUSH20 0xFFFFFFFFFFFFFFFFFFFFFFFFFFFFFFFFFFFFFFFF AND DUP2 MSTORE PUSH1 0x20 ADD SWAP1 DUP2 MSTORE PUSH1 0x20 ADD PUSH1 0x0 KECCAK256 PUSH1 0x0 DUP3 ADD MLOAD DUP2 PUSH1 0x0 ADD SWAP1 DUP1 MLOAD SWAP1 PUSH1 0x20 ADD SWAP1 PUSH3 0x5A3 SWAP3 SWAP2 SWAP1 PUSH3 0x854 JUMP JUMPDEST POP PUSH1 0x20 DUP3 ADD MLOAD DUP2 PUSH1 0x1 ADD SWAP1 DUP1 MLOAD SWAP1 PUSH1 0x20 ADD SWAP1 PUSH3 0x5C2 SWAP3 SWAP2 SWAP1 PUSH3 0x854 JUMP JUMPDEST POP PUSH1 0x40 DUP3 ADD MLOAD DUP2 PUSH1 0x2 ADD SWAP1 DUP1 MLOAD SWAP1 PUSH1 0x20 ADD SWAP1 PUSH3 0x5E1 SWAP3 SWAP2 SWAP1 PUSH3 0x854 JUMP JUMPDEST POP PUSH1 0x60 DUP3 ADD MLOAD DUP2 PUSH1 0x3 ADD SSTORE PUSH1 0x80 DUP3 ADD MLOAD DUP2 PUSH1 0x4 ADD SSTORE SWAP1 POP POP PUSH1 0x2 PUSH1 0x0 DUP1 PUSH20 0x4B20993BC481177EC7E8F571CECAE8A9E22C02DB PUSH20 0xFFFFFFFFFFFFFFFFFFFFFFFFFFFFFFFFFFFFFFFF AND PUSH20 0xFFFFFFFFFFFFFFFFFFFFFFFFFFFFFFFFFFFFFFFF AND DUP2 MSTORE PUSH1 0x20 ADD SWAP1 DUP2 MSTORE PUSH1 0x20 ADD PUSH1 0x0 KECCAK256 PUSH1 0x0 ADD SWAP1 DUP1 PUSH1 0x1 DUP2 SLOAD ADD DUP1 DUP3 SSTORE DUP1 SWAP2 POP POP PUSH1 0x1 SWAP1 SUB SWAP1 PUSH1 0x0 MSTORE PUSH1 0x20 PUSH1 0x0 KECCAK256 ADD PUSH1 0x0 SWAP1 SWAP2 SWAP1 SWAP2 SWAP1 SWAP2 POP SWAP1 DUP1 SLOAD PUSH3 0x683 SWAP1 PUSH3 0x9E5 JUMP JUMPDEST PUSH3 0x690 SWAP3 SWAP2 SWAP1 PUSH3 0x8E5 JUMP JUMPDEST POP PUSH20 0x78731D3CA6B7E34AC0F824C42A7CC18A495CABAB PUSH1 0x5 PUSH1 0x40 MLOAD PUSH3 0x6B6 SWAP1 PUSH3 0x9C3 JUMP JUMPDEST SWAP1 DUP2 MSTORE PUSH1 0x20 ADD PUSH1 0x40 MLOAD DUP1 SWAP2 SUB SWAP1 KECCAK256 PUSH1 0x0 PUSH2 0x100 EXP DUP2 SLOAD DUP2 PUSH20 0xFFFFFFFFFFFFFFFFFFFFFFFFFFFFFFFFFFFFFFFF MUL NOT AND SWAP1 DUP4 PUSH20 0xFFFFFFFFFFFFFFFFFFFFFFFFFFFFFFFFFFFFFFFF AND MUL OR SWAP1 SSTORE POP PUSH1 0x40 MLOAD DUP1 PUSH1 0x60 ADD PUSH1 0x40 MSTORE DUP1 PUSH1 0x40 MLOAD DUP1 PUSH1 0x40 ADD PUSH1 0x40 MSTORE DUP1 PUSH1 0x4 DUP2 MSTORE PUSH1 0x20 ADD PUSH32 0x5065746100000000000000000000000000000000000000000000000000000000 DUP2 MSTORE POP DUP2 MSTORE PUSH1 0x20 ADD PUSH1 0x1 DUP2 MSTORE PUSH1 0x20 ADD PUSH2 0x3E8 DUP2 MSTORE POP PUSH1 0x4 PUSH1 0x0 PUSH20 0x78731D3CA6B7E34AC0F824C42A7CC18A495CABAB PUSH20 0xFFFFFFFFFFFFFFFFFFFFFFFFFFFFFFFFFFFFFFFF AND PUSH20 0xFFFFFFFFFFFFFFFFFFFFFFFFFFFFFFFFFFFFFFFF AND DUP2 MSTORE PUSH1 0x20 ADD SWAP1 DUP2 MSTORE PUSH1 0x20 ADD PUSH1 0x0 KECCAK256 PUSH1 0x0 DUP3 ADD MLOAD DUP2 PUSH1 0x0 ADD SWAP1 DUP1 MLOAD SWAP1 PUSH1 0x20 ADD SWAP1 PUSH3 0x7C6 SWAP3 SWAP2 SWAP1 PUSH3 0x854 JUMP JUMPDEST POP PUSH1 0x20 DUP3 ADD MLOAD DUP2 PUSH1 0x1 ADD SSTORE PUSH1 0x40 DUP3 ADD MLOAD DUP2 PUSH1 0x2 ADD SSTORE SWAP1 POP POP PUSH1 0x6 DUP1 PUSH1 0x1 DUP2 SLOAD ADD DUP1 DUP3 SSTORE DUP1 SWAP2 POP POP PUSH1 0x1 SWAP1 SUB SWAP1 PUSH1 0x0 MSTORE PUSH1 0x20 PUSH1 0x0 KECCAK256 ADD PUSH1 0x0 PUSH1 0x40 MLOAD DUP1 PUSH1 0x40 ADD PUSH1 0x40 MSTORE DUP1 PUSH1 0x4 DUP2 MSTORE PUSH1 0x20 ADD PUSH32 0x5065746100000000000000000000000000000000000000000000000000000000 DUP2 MSTORE POP SWAP1 SWAP2 SWAP1 SWAP2 POP SWAP1 DUP1 MLOAD SWAP1 PUSH1 0x20 ADD SWAP1 PUSH3 0x84D SWAP3 SWAP2 SWAP1 PUSH3 0x854 JUMP JUMPDEST POP PUSH3 0xA73 JUMP JUMPDEST DUP3 DUP1 SLOAD PUSH3 0x862 SWAP1 PUSH3 0x9E5 JUMP JUMPDEST SWAP1 PUSH1 0x0 MSTORE PUSH1 0x20 PUSH1 0x0 KECCAK256 SWAP1 PUSH1 0x1F ADD PUSH1 0x20 SWAP1 DIV DUP2 ADD SWAP3 DUP3 PUSH3 0x886 JUMPI PUSH1 0x0 DUP6 SSTORE PUSH3 0x8D2 JUMP JUMPDEST DUP3 PUSH1 0x1F LT PUSH3 0x8A1 JUMPI DUP1 MLOAD PUSH1 0xFF NOT AND DUP4 DUP1 ADD OR DUP6 SSTORE PUSH3 0x8D2 JUMP JUMPDEST DUP3 DUP1 ADD PUSH1 0x1 ADD DUP6 SSTORE DUP3 ISZERO PUSH3 0x8D2 JUMPI SWAP2 DUP3 ADD JUMPDEST DUP3 DUP2 GT ISZERO PUSH3 0x8D1 JUMPI DUP3 MLOAD DUP3 SSTORE SWAP2 PUSH1 0x20 ADD SWAP2 SWAP1 PUSH1 0x1 ADD SWAP1 PUSH3 0x8B4 JUMP JUMPDEST JUMPDEST POP SWAP1 POP PUSH3 0x8E1 SWAP2 SWAP1 PUSH3 0x97D JUMP JUMPDEST POP SWAP1 JUMP JUMPDEST DUP3 DUP1 SLOAD PUSH3 0x8F3 SWAP1 PUSH3 0x9E5 JUMP JUMPDEST SWAP1 PUSH1 0x0 MSTORE PUSH1 0x20 PUSH1 0x0 KECCAK256 SWAP1 PUSH1 0x1F ADD PUSH1 0x20 SWAP1 DIV DUP2 ADD SWAP3 DUP3 PUSH3 0x917 JUMPI PUSH1 0x0 DUP6 SSTORE PUSH3 0x96A JUMP JUMPDEST DUP3 PUSH1 0x1F LT PUSH3 0x92A JUMPI DUP1 SLOAD DUP6 SSTORE PUSH3 0x96A JUMP JUMPDEST DUP3 DUP1 ADD PUSH1 0x1 ADD DUP6 SSTORE DUP3 ISZERO PUSH3 0x96A JUMPI PUSH1 0x0 MSTORE PUSH1 0x20 PUSH1 0x0 KECCAK256 SWAP2 PUSH1 0x1F ADD PUSH1 0x20 SWAP1 DIV DUP3 ADD JUMPDEST DUP3 DUP2 GT ISZERO PUSH3 0x969 JUMPI DUP3 SLOAD DUP3 SSTORE SWAP2 PUSH1 0x1 ADD SWAP2 SWAP1 PUSH1 0x1 ADD SWAP1 PUSH3 0x94C JUMP JUMPDEST JUMPDEST POP SWAP1 POP PUSH3 0x979 SWAP2 SWAP1 PUSH3 0x97D JUMP JUMPDEST POP SWAP1 JUMP JUMPDEST JUMPDEST DUP1 DUP3 GT ISZERO PUSH3 0x998 JUMPI PUSH1 0x0 DUP2 PUSH1 0x0 SWAP1 SSTORE POP PUSH1 0x1 ADD PUSH3 0x97E JUMP JUMPDEST POP SWAP1 JUMP JUMPDEST PUSH1 0x0 PUSH3 0x9AB PUSH1 0x4 DUP4 PUSH3 0x9DA JUMP JUMPDEST SWAP2 POP PUSH3 0x9B8 DUP3 PUSH3 0xA4A JUMP JUMPDEST PUSH1 0x4 DUP3 ADD SWAP1 POP SWAP2 SWAP1 POP JUMP JUMPDEST PUSH1 0x0 PUSH3 0x9D0 DUP3 PUSH3 0x99C JUMP JUMPDEST SWAP2 POP DUP2 SWAP1 POP SWAP2 SWAP1 POP JUMP JUMPDEST PUSH1 0x0 DUP2 SWAP1 POP SWAP3 SWAP2 POP POP JUMP JUMPDEST PUSH1 0x0 PUSH1 0x2 DUP3 DIV SWAP1 POP PUSH1 0x1 DUP3 AND DUP1 PUSH3 0x9FE JUMPI PUSH1 0x7F DUP3 AND SWAP2 POP JUMPDEST PUSH1 0x20 DUP3 LT DUP2 EQ ISZERO PUSH3 0xA15 JUMPI PUSH3 0xA14 PUSH3 0xA1B JUMP JUMPDEST JUMPDEST POP SWAP2 SWAP1 POP JUMP JUMPDEST PUSH32 0x4E487B7100000000000000000000000000000000000000000000000000000000 PUSH1 0x0 MSTORE PUSH1 0x22 PUSH1 0x4 MSTORE PUSH1 0x24 PUSH1 0x0 REVERT JUMPDEST PUSH32 0x5065746100000000000000000000000000000000000000000000000000000000 PUSH1 0x0 DUP3 ADD MSTORE POP JUMP JUMPDEST PUSH2 0x26C4 DUP1 PUSH3 0xA83 PUSH1 0x0 CODECOPY PUSH1 0x0 RETURN INVALID PUSH1 0x80 PUSH1 0x40 MSTORE PUSH1 0x4 CALLDATASIZE LT PUSH2 0x109 JUMPI PUSH1 0x0 CALLDATALOAD PUSH1 0xE0 SHR DUP1 PUSH4 0x961865F0 GT PUSH2 0x95 JUMPI DUP1 PUSH4 0xC4957FA0 GT PUSH2 0x64 JUMPI DUP1 PUSH4 0xC4957FA0 EQ PUSH2 0x394 JUMPI DUP1 PUSH4 0xCC21C188 EQ PUSH2 0x3D1 JUMPI DUP1 PUSH4 0xD68CF8C1 EQ PUSH2 0x3ED JUMPI DUP1 PUSH4 0xDCE39151 EQ PUSH2 0x42D JUMPI DUP1 PUSH4 0xF69483C1 EQ PUSH2 0x46C JUMPI PUSH2 0x109 JUMP JUMPDEST DUP1 PUSH4 0x961865F0 EQ PUSH2 0x2C2 JUMPI DUP1 PUSH4 0xA9F9482B EQ PUSH2 0x301 JUMPI DUP1 PUSH4 0xBBD43363 EQ PUSH2 0x340 JUMPI DUP1 PUSH4 0xC178B9AF EQ PUSH2 0x369 JUMPI PUSH2 0x109 JUMP JUMPDEST DUP1 PUSH4 0x2CCDEF7C GT PUSH2 0xDC JUMPI DUP1 PUSH4 0x2CCDEF7C EQ PUSH2 0x1DD JUMPI DUP1 PUSH4 0x2D4673E3 EQ PUSH2 0x206 JUMPI DUP1 PUSH4 0x34D2C0AD EQ PUSH2 0x22F JUMPI DUP1 PUSH4 0x6C05DD1D EQ PUSH2 0x25A JUMPI DUP1 PUSH4 0x7DDB273D EQ PUSH2 0x283 JUMPI PUSH2 0x109 JUMP JUMPDEST DUP1 PUSH4 0x8F4D2C6 EQ PUSH2 0x10E JUMPI DUP1 PUSH4 0xC72B1EC EQ PUSH2 0x14E JUMPI DUP1 PUSH4 0x146DC6ED EQ PUSH2 0x177 JUMPI DUP1 PUSH4 0x1BBE970A EQ PUSH2 0x1A0 JUMPI JUMPDEST PUSH1 0x0 DUP1 REVERT JUMPDEST CALLVALUE DUP1 ISZERO PUSH2 0x11A JUMPI PUSH1 0x0 DUP1 REVERT JUMPDEST POP PUSH2 0x135 PUSH1 0x4 DUP1 CALLDATASIZE SUB DUP2 ADD SWAP1 PUSH2 0x130 SWAP2 SWAP1 PUSH2 0x1DFC JUMP JUMPDEST PUSH2 0x495 JUMP JUMPDEST PUSH1 0x40 MLOAD PUSH2 0x145 SWAP5 SWAP4 SWAP3 SWAP2 SWAP1 PUSH2 0x217C JUMP JUMPDEST PUSH1 0x40 MLOAD DUP1 SWAP2 SUB SWAP1 RETURN JUMPDEST CALLVALUE DUP1 ISZERO PUSH2 0x15A JUMPI PUSH1 0x0 DUP1 REVERT JUMPDEST POP PUSH2 0x175 PUSH1 0x4 DUP1 CALLDATASIZE SUB DUP2 ADD SWAP1 PUSH2 0x170 SWAP2 SWAP1 PUSH2 0x1E29 JUMP JUMPDEST PUSH2 0x66D JUMP JUMPDEST STOP JUMPDEST CALLVALUE DUP1 ISZERO PUSH2 0x183 JUMPI PUSH1 0x0 DUP1 REVERT JUMPDEST POP PUSH2 0x19E PUSH1 0x4 DUP1 CALLDATASIZE SUB DUP2 ADD SWAP1 PUSH2 0x199 SWAP2 SWAP1 PUSH2 0x1C9D JUMP JUMPDEST PUSH2 0x93A JUMP JUMPDEST STOP JUMPDEST CALLVALUE DUP1 ISZERO PUSH2 0x1AC JUMPI PUSH1 0x0 DUP1 REVERT JUMPDEST POP PUSH2 0x1C7 PUSH1 0x4 DUP1 CALLDATASIZE SUB DUP2 ADD SWAP1 PUSH2 0x1C2 SWAP2 SWAP1 PUSH2 0x1C9D JUMP JUMPDEST PUSH2 0xAC8 JUMP JUMPDEST PUSH1 0x40 MLOAD PUSH2 0x1D4 SWAP2 SWAP1 PUSH2 0x20B5 JUMP JUMPDEST PUSH1 0x40 MLOAD DUP1 SWAP2 SUB SWAP1 RETURN JUMPDEST CALLVALUE DUP1 ISZERO PUSH2 0x1E9 JUMPI PUSH1 0x0 DUP1 REVERT JUMPDEST POP PUSH2 0x204 PUSH1 0x4 DUP1 CALLDATASIZE SUB DUP2 ADD SWAP1 PUSH2 0x1FF SWAP2 SWAP1 PUSH2 0x1E29 JUMP JUMPDEST PUSH2 0xB11 JUMP JUMPDEST STOP JUMPDEST CALLVALUE DUP1 ISZERO PUSH2 0x212 JUMPI PUSH1 0x0 DUP1 REVERT JUMPDEST POP PUSH2 0x22D PUSH1 0x4 DUP1 CALLDATASIZE SUB DUP2 ADD SWAP1 PUSH2 0x228 SWAP2 SWAP1 PUSH2 0x1C9D JUMP JUMPDEST PUSH2 0xD07 JUMP JUMPDEST STOP JUMPDEST CALLVALUE DUP1 ISZERO PUSH2 0x23B JUMPI PUSH1 0x0 DUP1 REVERT JUMPDEST POP PUSH2 0x244 PUSH2 0xDEF JUMP JUMPDEST PUSH1 0x40 MLOAD PUSH2 0x251 SWAP2 SWAP1 PUSH2 0x215A JUMP JUMPDEST PUSH1 0x40 MLOAD DUP1 SWAP2 SUB SWAP1 RETURN JUMPDEST CALLVALUE DUP1 ISZERO PUSH2 0x266 JUMPI PUSH1 0x0 DUP1 REVERT JUMPDEST POP PUSH2 0x281 PUSH1 0x4 DUP1 CALLDATASIZE SUB DUP2 ADD SWAP1 PUSH2 0x27C SWAP2 SWAP1 PUSH2 0x1D71 JUMP JUMPDEST PUSH2 0xEC8 JUMP JUMPDEST STOP JUMPDEST CALLVALUE DUP1 ISZERO PUSH2 0x28F JUMPI PUSH1 0x0 DUP1 REVERT JUMPDEST POP PUSH2 0x2AA PUSH1 0x4 DUP1 CALLDATASIZE SUB DUP2 ADD SWAP1 PUSH2 0x2A5 SWAP2 SWAP1 PUSH2 0x1DFC JUMP JUMPDEST PUSH2 0xFF3 JUMP JUMPDEST PUSH1 0x40 MLOAD PUSH2 0x2B9 SWAP4 SWAP3 SWAP2 SWAP1 PUSH2 0x20D0 JUMP JUMPDEST PUSH1 0x40 MLOAD DUP1 SWAP2 SUB SWAP1 RETURN JUMPDEST CALLVALUE DUP1 ISZERO PUSH2 0x2CE JUMPI PUSH1 0x0 DUP1 REVERT JUMPDEST POP PUSH2 0x2E9 PUSH1 0x4 DUP1 CALLDATASIZE SUB DUP2 ADD SWAP1 PUSH2 0x2E4 SWAP2 SWAP1 PUSH2 0x1C70 JUMP JUMPDEST PUSH2 0x10E2 JUMP JUMPDEST PUSH1 0x40 MLOAD PUSH2 0x2F8 SWAP4 SWAP3 SWAP2 SWAP1 PUSH2 0x21D6 JUMP JUMPDEST PUSH1 0x40 MLOAD DUP1 SWAP2 SUB SWAP1 RETURN JUMPDEST CALLVALUE DUP1 ISZERO PUSH2 0x30D JUMPI PUSH1 0x0 DUP1 REVERT JUMPDEST POP PUSH2 0x328 PUSH1 0x4 DUP1 CALLDATASIZE SUB DUP2 ADD SWAP1 PUSH2 0x323 SWAP2 SWAP1 PUSH2 0x1DFC JUMP JUMPDEST PUSH2 0x1194 JUMP JUMPDEST PUSH1 0x40 MLOAD PUSH2 0x337 SWAP4 SWAP3 SWAP2 SWAP1 PUSH2 0x20D0 JUMP JUMPDEST PUSH1 0x40 MLOAD DUP1 SWAP2 SUB SWAP1 RETURN JUMPDEST CALLVALUE DUP1 ISZERO PUSH2 0x34C JUMPI PUSH1 0x0 DUP1 REVERT JUMPDEST POP PUSH2 0x367 PUSH1 0x4 DUP1 CALLDATASIZE SUB DUP2 ADD SWAP1 PUSH2 0x362 SWAP2 SWAP1 PUSH2 0x1C9D JUMP JUMPDEST PUSH2 0x1283 JUMP JUMPDEST STOP JUMPDEST CALLVALUE DUP1 ISZERO PUSH2 0x375 JUMPI PUSH1 0x0 DUP1 REVERT JUMPDEST POP PUSH2 0x37E PUSH2 0x136B JUMP JUMPDEST PUSH1 0x40 MLOAD PUSH2 0x38B SWAP2 SWAP1 PUSH2 0x215A JUMP JUMPDEST PUSH1 0x40 MLOAD DUP1 SWAP2 SUB SWAP1 RETURN JUMPDEST CALLVALUE DUP1 ISZERO PUSH2 0x3A0 JUMPI PUSH1 0x0 DUP1 REVERT JUMPDEST POP PUSH2 0x3BB PUSH1 0x4 DUP1 CALLDATASIZE SUB DUP2 ADD SWAP1 PUSH2 0x3B6 SWAP2 SWAP1 PUSH2 0x1C9D JUMP JUMPDEST PUSH2 0x1444 JUMP JUMPDEST PUSH1 0x40 MLOAD PUSH2 0x3C8 SWAP2 SWAP1 PUSH2 0x20B5 JUMP JUMPDEST PUSH1 0x40 MLOAD DUP1 SWAP2 SUB SWAP1 RETURN JUMPDEST PUSH2 0x3EB PUSH1 0x4 DUP1 CALLDATASIZE SUB DUP2 ADD SWAP1 PUSH2 0x3E6 SWAP2 SWAP1 PUSH2 0x1CE6 JUMP JUMPDEST PUSH2 0x148D JUMP JUMPDEST STOP JUMPDEST CALLVALUE DUP1 ISZERO PUSH2 0x3F9 JUMPI PUSH1 0x0 DUP1 REVERT JUMPDEST POP PUSH2 0x414 PUSH1 0x4 DUP1 CALLDATASIZE SUB DUP2 ADD SWAP1 PUSH2 0x40F SWAP2 SWAP1 PUSH2 0x1C9D JUMP JUMPDEST PUSH2 0x1687 JUMP JUMPDEST PUSH1 0x40 MLOAD PUSH2 0x424 SWAP5 SWAP4 SWAP3 SWAP2 SWAP1 PUSH2 0x210E JUMP JUMPDEST PUSH1 0x40 MLOAD DUP1 SWAP2 SUB SWAP1 RETURN JUMPDEST CALLVALUE DUP1 ISZERO PUSH2 0x439 JUMPI PUSH1 0x0 DUP1 REVERT JUMPDEST POP PUSH2 0x454 PUSH1 0x4 DUP1 CALLDATASIZE SUB DUP2 ADD SWAP1 PUSH2 0x44F SWAP2 SWAP1 PUSH2 0x1DFC JUMP JUMPDEST PUSH2 0x1775 JUMP JUMPDEST PUSH1 0x40 MLOAD PUSH2 0x463 SWAP4 SWAP3 SWAP2 SWAP1 PUSH2 0x20D0 JUMP JUMPDEST PUSH1 0x40 MLOAD DUP1 SWAP2 SUB SWAP1 RETURN JUMPDEST CALLVALUE DUP1 ISZERO PUSH2 0x478 JUMPI PUSH1 0x0 DUP1 REVERT JUMPDEST POP PUSH2 0x493 PUSH1 0x4 DUP1 CALLDATASIZE SUB DUP2 ADD SWAP1 PUSH2 0x48E SWAP2 SWAP1 PUSH2 0x1E29 JUMP JUMPDEST PUSH2 0x1864 JUMP JUMPDEST STOP JUMPDEST PUSH1 0x3 DUP2 DUP2 SLOAD DUP2 LT PUSH2 0x4A5 JUMPI PUSH1 0x0 DUP1 REVERT JUMPDEST SWAP1 PUSH1 0x0 MSTORE PUSH1 0x20 PUSH1 0x0 KECCAK256 SWAP1 PUSH1 0x5 MUL ADD PUSH1 0x0 SWAP2 POP SWAP1 POP DUP1 PUSH1 0x0 ADD DUP1 SLOAD PUSH2 0x4C8 SWAP1 PUSH2 0x2444 JUMP JUMPDEST DUP1 PUSH1 0x1F ADD PUSH1 0x20 DUP1 SWAP2 DIV MUL PUSH1 0x20 ADD PUSH1 0x40 MLOAD SWAP1 DUP2 ADD PUSH1 0x40 MSTORE DUP1 SWAP3 SWAP2 SWAP1 DUP2 DUP2 MSTORE PUSH1 0x20 ADD DUP3 DUP1 SLOAD PUSH2 0x4F4 SWAP1 PUSH2 0x2444 JUMP JUMPDEST DUP1 ISZERO PUSH2 0x541 JUMPI DUP1 PUSH1 0x1F LT PUSH2 0x516 JUMPI PUSH2 0x100 DUP1 DUP4 SLOAD DIV MUL DUP4 MSTORE SWAP2 PUSH1 0x20 ADD SWAP2 PUSH2 0x541 JUMP JUMPDEST DUP3 ADD SWAP2 SWAP1 PUSH1 0x0 MSTORE PUSH1 0x20 PUSH1 0x0 KECCAK256 SWAP1 JUMPDEST DUP2 SLOAD DUP2 MSTORE SWAP1 PUSH1 0x1 ADD SWAP1 PUSH1 0x20 ADD DUP1 DUP4 GT PUSH2 0x524 JUMPI DUP3 SWAP1 SUB PUSH1 0x1F AND DUP3 ADD SWAP2 JUMPDEST POP POP POP POP POP SWAP1 DUP1 PUSH1 0x1 ADD DUP1 SLOAD PUSH2 0x556 SWAP1 PUSH2 0x2444 JUMP JUMPDEST DUP1 PUSH1 0x1F ADD PUSH1 0x20 DUP1 SWAP2 DIV MUL PUSH1 0x20 ADD PUSH1 0x40 MLOAD SWAP1 DUP2 ADD PUSH1 0x40 MSTORE DUP1 SWAP3 SWAP2 SWAP1 DUP2 DUP2 MSTORE PUSH1 0x20 ADD DUP3 DUP1 SLOAD PUSH2 0x582 SWAP1 PUSH2 0x2444 JUMP JUMPDEST DUP1 ISZERO PUSH2 0x5CF JUMPI DUP1 PUSH1 0x1F LT PUSH2 0x5A4 JUMPI PUSH2 0x100 DUP1 DUP4 SLOAD DIV MUL DUP4 MSTORE SWAP2 PUSH1 0x20 ADD SWAP2 PUSH2 0x5CF JUMP JUMPDEST DUP3 ADD SWAP2 SWAP1 PUSH1 0x0 MSTORE PUSH1 0x20 PUSH1 0x0 KECCAK256 SWAP1 JUMPDEST DUP2 SLOAD DUP2 MSTORE SWAP1 PUSH1 0x1 ADD SWAP1 PUSH1 0x20 ADD DUP1 DUP4 GT PUSH2 0x5B2 JUMPI DUP3 SWAP1 SUB PUSH1 0x1F AND DUP3 ADD SWAP2 JUMPDEST POP POP POP POP POP SWAP1 DUP1 PUSH1 0x2 ADD DUP1 SLOAD PUSH2 0x5E4 SWAP1 PUSH2 0x2444 JUMP JUMPDEST DUP1 PUSH1 0x1F ADD PUSH1 0x20 DUP1 SWAP2 DIV MUL PUSH1 0x20 ADD PUSH1 0x40 MLOAD SWAP1 DUP2 ADD PUSH1 0x40 MSTORE DUP1 SWAP3 SWAP2 SWAP1 DUP2 DUP2 MSTORE PUSH1 0x20 ADD DUP3 DUP1 SLOAD PUSH2 0x610 SWAP1 PUSH2 0x2444 JUMP JUMPDEST DUP1 ISZERO PUSH2 0x65D JUMPI DUP1 PUSH1 0x1F LT PUSH2 0x632 JUMPI PUSH2 0x100 DUP1 DUP4 SLOAD DIV MUL DUP4 MSTORE SWAP2 PUSH1 0x20 ADD SWAP2 PUSH2 0x65D JUMP JUMPDEST DUP3 ADD SWAP2 SWAP1 PUSH1 0x0 MSTORE PUSH1 0x20 PUSH1 0x0 KECCAK256 SWAP1 JUMPDEST DUP2 SLOAD DUP2 MSTORE SWAP1 PUSH1 0x1 ADD SWAP1 PUSH1 0x20 ADD DUP1 DUP4 GT PUSH2 0x640 JUMPI DUP3 SWAP1 SUB PUSH1 0x1F AND DUP3 ADD SWAP2 JUMPDEST POP POP POP POP POP SWAP1 DUP1 PUSH1 0x3 ADD SLOAD SWAP1 POP DUP5 JUMP JUMPDEST PUSH1 0x1 ISZERO ISZERO DUP2 ISZERO ISZERO EQ ISZERO PUSH2 0x8F7 JUMPI PUSH1 0x0 PUSH1 0x9 DUP4 DUP2 SLOAD DUP2 LT PUSH2 0x690 JUMPI PUSH2 0x68F PUSH2 0x254E JUMP JUMPDEST JUMPDEST SWAP1 PUSH1 0x0 MSTORE PUSH1 0x20 PUSH1 0x0 KECCAK256 SWAP1 PUSH1 0x3 MUL ADD PUSH1 0x2 ADD PUSH1 0x0 PUSH2 0x100 EXP DUP2 SLOAD DUP2 PUSH1 0xFF MUL NOT AND SWAP1 DUP4 ISZERO ISZERO MUL OR SWAP1 SSTORE POP PUSH1 0x7 PUSH1 0x9 DUP4 DUP2 SLOAD DUP2 LT PUSH2 0x6CE JUMPI PUSH2 0x6CD PUSH2 0x254E JUMP JUMPDEST JUMPDEST SWAP1 PUSH1 0x0 MSTORE PUSH1 0x20 PUSH1 0x0 KECCAK256 SWAP1 PUSH1 0x3 MUL ADD PUSH1 0x1 ADD PUSH1 0x40 MLOAD PUSH2 0x6EC SWAP2 SWAP1 PUSH2 0x209E JUMP JUMPDEST SWAP1 DUP2 MSTORE PUSH1 0x20 ADD PUSH1 0x40 MLOAD DUP1 SWAP2 SUB SWAP1 KECCAK256 PUSH1 0x2 ADD SLOAD PUSH1 0x4 PUSH1 0x0 PUSH1 0x9 DUP6 DUP2 SLOAD DUP2 LT PUSH2 0x716 JUMPI PUSH2 0x715 PUSH2 0x254E JUMP JUMPDEST JUMPDEST SWAP1 PUSH1 0x0 MSTORE PUSH1 0x20 PUSH1 0x0 KECCAK256 SWAP1 PUSH1 0x3 MUL ADD PUSH1 0x0 ADD PUSH1 0x0 SWAP1 SLOAD SWAP1 PUSH2 0x100 EXP SWAP1 DIV PUSH20 0xFFFFFFFFFFFFFFFFFFFFFFFFFFFFFFFFFFFFFFFF AND PUSH20 0xFFFFFFFFFFFFFFFFFFFFFFFFFFFFFFFFFFFFFFFF AND PUSH20 0xFFFFFFFFFFFFFFFFFFFFFFFFFFFFFFFFFFFFFFFF AND DUP2 MSTORE PUSH1 0x20 ADD SWAP1 DUP2 MSTORE PUSH1 0x20 ADD PUSH1 0x0 KECCAK256 PUSH1 0x2 ADD SLOAD PUSH2 0x790 SWAP2 SWAP1 PUSH2 0x2386 JUMP JUMPDEST PUSH1 0x4 PUSH1 0x0 PUSH1 0x9 DUP6 DUP2 SLOAD DUP2 LT PUSH2 0x7A8 JUMPI PUSH2 0x7A7 PUSH2 0x254E JUMP JUMPDEST JUMPDEST SWAP1 PUSH1 0x0 MSTORE PUSH1 0x20 PUSH1 0x0 KECCAK256 SWAP1 PUSH1 0x3 MUL ADD PUSH1 0x0 ADD PUSH1 0x0 SWAP1 SLOAD SWAP1 PUSH2 0x100 EXP SWAP1 DIV PUSH20 0xFFFFFFFFFFFFFFFFFFFFFFFFFFFFFFFFFFFFFFFF AND PUSH20 0xFFFFFFFFFFFFFFFFFFFFFFFFFFFFFFFFFFFFFFFF AND PUSH20 0xFFFFFFFFFFFFFFFFFFFFFFFFFFFFFFFFFFFFFFFF AND DUP2 MSTORE PUSH1 0x20 ADD SWAP1 DUP2 MSTORE PUSH1 0x20 ADD PUSH1 0x0 KECCAK256 PUSH1 0x2 ADD DUP2 SWAP1 SSTORE POP PUSH1 0x7 PUSH1 0x9 DUP4 DUP2 SLOAD DUP2 LT PUSH2 0x831 JUMPI PUSH2 0x830 PUSH2 0x254E JUMP JUMPDEST JUMPDEST SWAP1 PUSH1 0x0 MSTORE PUSH1 0x20 PUSH1 0x0 KECCAK256 SWAP1 PUSH1 0x3 MUL ADD PUSH1 0x1 ADD PUSH1 0x40 MLOAD PUSH2 0x84F SWAP2 SWAP1 PUSH2 0x209E JUMP JUMPDEST SWAP1 DUP2 MSTORE PUSH1 0x20 ADD PUSH1 0x40 MLOAD DUP1 SWAP2 SUB SWAP1 KECCAK256 PUSH1 0x2 ADD SLOAD PUSH1 0x0 DUP1 CALLER PUSH20 0xFFFFFFFFFFFFFFFFFFFFFFFFFFFFFFFFFFFFFFFF AND PUSH20 0xFFFFFFFFFFFFFFFFFFFFFFFFFFFFFFFFFFFFFFFF AND DUP2 MSTORE PUSH1 0x20 ADD SWAP1 DUP2 MSTORE PUSH1 0x20 ADD PUSH1 0x0 KECCAK256 PUSH1 0x3 ADD SLOAD PUSH2 0x8AD SWAP2 SWAP1 PUSH2 0x2330 JUMP JUMPDEST PUSH1 0x0 DUP1 CALLER PUSH20 0xFFFFFFFFFFFFFFFFFFFFFFFFFFFFFFFFFFFFFFFF AND PUSH20 0xFFFFFFFFFFFFFFFFFFFFFFFFFFFFFFFFFFFFFFFF AND DUP2 MSTORE PUSH1 0x20 ADD SWAP1 DUP2 MSTORE PUSH1 0x20 ADD PUSH1 0x0 KECCAK256 PUSH1 0x3 ADD DUP2 SWAP1 SSTORE POP PUSH2 0x936 JUMP JUMPDEST PUSH1 0x0 PUSH1 0x9 DUP4 DUP2 SLOAD DUP2 LT PUSH2 0x90D JUMPI PUSH2 0x90C PUSH2 0x254E JUMP JUMPDEST JUMPDEST SWAP1 PUSH1 0x0 MSTORE PUSH1 0x20 PUSH1 0x0 KECCAK256 SWAP1 PUSH1 0x3 MUL ADD PUSH1 0x2 ADD PUSH1 0x0 PUSH2 0x100 EXP DUP2 SLOAD DUP2 PUSH1 0xFF MUL NOT AND SWAP1 DUP4 ISZERO ISZERO MUL OR SWAP1 SSTORE POP JUMPDEST POP POP JUMP JUMPDEST PUSH1 0x7 DUP2 PUSH1 0x40 MLOAD PUSH2 0x94A SWAP2 SWAP1 PUSH2 0x2087 JUMP JUMPDEST SWAP1 DUP2 MSTORE PUSH1 0x20 ADD PUSH1 0x40 MLOAD DUP1 SWAP2 SUB SWAP1 KECCAK256 PUSH1 0x2 ADD SLOAD PUSH1 0x4 PUSH1 0x0 CALLER PUSH20 0xFFFFFFFFFFFFFFFFFFFFFFFFFFFFFFFFFFFFFFFF AND PUSH20 0xFFFFFFFFFFFFFFFFFFFFFFFFFFFFFFFFFFFFFFFF AND DUP2 MSTORE PUSH1 0x20 ADD SWAP1 DUP2 MSTORE PUSH1 0x20 ADD PUSH1 0x0 KECCAK256 PUSH1 0x2 ADD SLOAD LT ISZERO PUSH2 0x9E0 JUMPI PUSH1 0x40 MLOAD PUSH32 0x8C379A000000000000000000000000000000000000000000000000000000000 DUP2 MSTORE PUSH1 0x4 ADD PUSH2 0x9D7 SWAP1 PUSH2 0x2214 JUMP JUMPDEST PUSH1 0x40 MLOAD DUP1 SWAP2 SUB SWAP1 REVERT JUMPDEST PUSH1 0x9 PUSH1 0x40 MLOAD DUP1 PUSH1 0x60 ADD PUSH1 0x40 MSTORE DUP1 CALLER PUSH20 0xFFFFFFFFFFFFFFFFFFFFFFFFFFFFFFFFFFFFFFFF AND DUP2 MSTORE PUSH1 0x20 ADD DUP4 DUP2 MSTORE PUSH1 0x20 ADD PUSH1 0x1 ISZERO ISZERO DUP2 MSTORE POP SWAP1 DUP1 PUSH1 0x1 DUP2 SLOAD ADD DUP1 DUP3 SSTORE DUP1 SWAP2 POP POP PUSH1 0x1 SWAP1 SUB SWAP1 PUSH1 0x0 MSTORE PUSH1 0x20 PUSH1 0x0 KECCAK256 SWAP1 PUSH1 0x3 MUL ADD PUSH1 0x0 SWAP1 SWAP2 SWAP1 SWAP2 SWAP1 SWAP2 POP PUSH1 0x0 DUP3 ADD MLOAD DUP2 PUSH1 0x0 ADD PUSH1 0x0 PUSH2 0x100 EXP DUP2 SLOAD DUP2 PUSH20 0xFFFFFFFFFFFFFFFFFFFFFFFFFFFFFFFFFFFFFFFF MUL NOT AND SWAP1 DUP4 PUSH20 0xFFFFFFFFFFFFFFFFFFFFFFFFFFFFFFFFFFFFFFFF AND MUL OR SWAP1 SSTORE POP PUSH1 0x20 DUP3 ADD MLOAD DUP2 PUSH1 0x1 ADD SWAP1 DUP1 MLOAD SWAP1 PUSH1 0x20 ADD SWAP1 PUSH2 0xAA2 SWAP3 SWAP2 SWAP1 PUSH2 0x1A5A JUMP JUMPDEST POP PUSH1 0x40 DUP3 ADD MLOAD DUP2 PUSH1 0x2 ADD PUSH1 0x0 PUSH2 0x100 EXP DUP2 SLOAD DUP2 PUSH1 0xFF MUL NOT AND SWAP1 DUP4 ISZERO ISZERO MUL OR SWAP1 SSTORE POP POP POP POP JUMP JUMPDEST PUSH1 0x5 DUP2 DUP1 MLOAD PUSH1 0x20 DUP2 ADD DUP3 ADD DUP1 MLOAD DUP5 DUP3 MSTORE PUSH1 0x20 DUP4 ADD PUSH1 0x20 DUP6 ADD KECCAK256 DUP2 DUP4 MSTORE DUP1 SWAP6 POP POP POP POP POP POP PUSH1 0x0 SWAP2 POP SLOAD SWAP1 PUSH2 0x100 EXP SWAP1 DIV PUSH20 0xFFFFFFFFFFFFFFFFFFFFFFFFFFFFFFFFFFFFFFFF AND DUP2 JUMP JUMPDEST PUSH1 0x1 ISZERO ISZERO DUP2 ISZERO ISZERO EQ ISZERO PUSH2 0xCC4 JUMPI PUSH1 0x0 PUSH1 0xA DUP4 DUP2 SLOAD DUP2 LT PUSH2 0xB34 JUMPI PUSH2 0xB33 PUSH2 0x254E JUMP JUMPDEST JUMPDEST SWAP1 PUSH1 0x0 MSTORE PUSH1 0x20 PUSH1 0x0 KECCAK256 SWAP1 PUSH1 0x3 MUL ADD PUSH1 0x2 ADD PUSH1 0x0 PUSH2 0x100 EXP DUP2 SLOAD DUP2 PUSH1 0xFF MUL NOT AND SWAP1 DUP4 ISZERO ISZERO MUL OR SWAP1 SSTORE POP PUSH1 0x7 PUSH1 0xA DUP4 DUP2 SLOAD DUP2 LT PUSH2 0xB72 JUMPI PUSH2 0xB71 PUSH2 0x254E JUMP JUMPDEST JUMPDEST SWAP1 PUSH1 0x0 MSTORE PUSH1 0x20 PUSH1 0x0 KECCAK256 SWAP1 PUSH1 0x3 MUL ADD PUSH1 0x1 ADD PUSH1 0x40 MLOAD PUSH2 0xB90 SWAP2 SWAP1 PUSH2 0x209E JUMP JUMPDEST SWAP1 DUP2 MSTORE PUSH1 0x20 ADD PUSH1 0x40 MLOAD DUP1 SWAP2 SUB SWAP1 KECCAK256 PUSH1 0x2 ADD SLOAD PUSH1 0x4 PUSH1 0x0 PUSH1 0xA DUP6 DUP2 SLOAD DUP2 LT PUSH2 0xBBA JUMPI PUSH2 0xBB9 PUSH2 0x254E JUMP JUMPDEST JUMPDEST SWAP1 PUSH1 0x0 MSTORE PUSH1 0x20 PUSH1 0x0 KECCAK256 SWAP1 PUSH1 0x3 MUL ADD PUSH1 0x0 ADD PUSH1 0x0 SWAP1 SLOAD SWAP1 PUSH2 0x100 EXP SWAP1 DIV PUSH20 0xFFFFFFFFFFFFFFFFFFFFFFFFFFFFFFFFFFFFFFFF AND PUSH20 0xFFFFFFFFFFFFFFFFFFFFFFFFFFFFFFFFFFFFFFFF AND PUSH20 0xFFFFFFFFFFFFFFFFFFFFFFFFFFFFFFFFFFFFFFFF AND DUP2 MSTORE PUSH1 0x20 ADD SWAP1 DUP2 MSTORE PUSH1 0x20 ADD PUSH1 0x0 KECCAK256 PUSH1 0x2 ADD SLOAD PUSH2 0xC34 SWAP2 SWAP1 PUSH2 0x2330 JUMP JUMPDEST PUSH1 0x4 PUSH1 0x0 PUSH1 0xA DUP6 DUP2 SLOAD DUP2 LT PUSH2 0xC4C JUMPI PUSH2 0xC4B PUSH2 0x254E JUMP JUMPDEST JUMPDEST SWAP1 PUSH1 0x0 MSTORE PUSH1 0x20 PUSH1 0x0 KECCAK256 SWAP1 PUSH1 0x3 MUL ADD PUSH1 0x0 ADD PUSH1 0x0 SWAP1 SLOAD SWAP1 PUSH2 0x100 EXP SWAP1 DIV PUSH20 0xFFFFFFFFFFFFFFFFFFFFFFFFFFFFFFFFFFFFFFFF AND PUSH20 0xFFFFFFFFFFFFFFFFFFFFFFFFFFFFFFFFFFFFFFFF AND PUSH20 0xFFFFFFFFFFFFFFFFFFFFFFFFFFFFFFFFFFFFFFFF AND DUP2 MSTORE PUSH1 0x20 ADD SWAP1 DUP2 MSTORE PUSH1 0x20 ADD PUSH1 0x0 KECCAK256 PUSH1 0x2 ADD DUP2 SWAP1 SSTORE POP PUSH2 0xD03 JUMP JUMPDEST PUSH1 0x0 PUSH1 0xA DUP4 DUP2 SLOAD DUP2 LT PUSH2 0xCDA JUMPI PUSH2 0xCD9 PUSH2 0x254E JUMP JUMPDEST JUMPDEST SWAP1 PUSH1 0x0 MSTORE PUSH1 0x20 PUSH1 0x0 KECCAK256 SWAP1 PUSH1 0x3 MUL ADD PUSH1 0x2 ADD PUSH1 0x0 PUSH2 0x100 EXP DUP2 SLOAD DUP2 PUSH1 0xFF MUL NOT AND SWAP1 DUP4 ISZERO ISZERO MUL OR SWAP1 SSTORE POP JUMPDEST POP POP JUMP JUMPDEST PUSH1 0xB PUSH1 0x40 MLOAD DUP1 PUSH1 0x60 ADD PUSH1 0x40 MSTORE DUP1 CALLER PUSH20 0xFFFFFFFFFFFFFFFFFFFFFFFFFFFFFFFFFFFFFFFF AND DUP2 MSTORE PUSH1 0x20 ADD DUP4 DUP2 MSTORE PUSH1 0x20 ADD PUSH1 0x1 ISZERO ISZERO DUP2 MSTORE POP SWAP1 DUP1 PUSH1 0x1 DUP2 SLOAD ADD DUP1 DUP3 SSTORE DUP1 SWAP2 POP POP PUSH1 0x1 SWAP1 SUB SWAP1 PUSH1 0x0 MSTORE PUSH1 0x20 PUSH1 0x0 KECCAK256 SWAP1 PUSH1 0x3 MUL ADD PUSH1 0x0 SWAP1 SWAP2 SWAP1 SWAP2 SWAP1 SWAP2 POP PUSH1 0x0 DUP3 ADD MLOAD DUP2 PUSH1 0x0 ADD PUSH1 0x0 PUSH2 0x100 EXP DUP2 SLOAD DUP2 PUSH20 0xFFFFFFFFFFFFFFFFFFFFFFFFFFFFFFFFFFFFFFFF MUL NOT AND SWAP1 DUP4 PUSH20 0xFFFFFFFFFFFFFFFFFFFFFFFFFFFFFFFFFFFFFFFF AND MUL OR SWAP1 SSTORE POP PUSH1 0x20 DUP3 ADD MLOAD DUP2 PUSH1 0x1 ADD SWAP1 DUP1 MLOAD SWAP1 PUSH1 0x20 ADD SWAP1 PUSH2 0xDC9 SWAP3 SWAP2 SWAP1 PUSH2 0x1A5A JUMP JUMPDEST POP PUSH1 0x40 DUP3 ADD MLOAD DUP2 PUSH1 0x2 ADD PUSH1 0x0 PUSH2 0x100 EXP DUP2 SLOAD DUP2 PUSH1 0xFF MUL NOT AND SWAP1 DUP4 ISZERO ISZERO MUL OR SWAP1 SSTORE POP POP POP POP JUMP JUMPDEST PUSH1 0x60 PUSH1 0x8 DUP1 SLOAD DUP1 PUSH1 0x20 MUL PUSH1 0x20 ADD PUSH1 0x40 MLOAD SWAP1 DUP2 ADD PUSH1 0x40 MSTORE DUP1 SWAP3 SWAP2 SWAP1 DUP2 DUP2 MSTORE PUSH1 0x20 ADD PUSH1 0x0 SWAP1 JUMPDEST DUP3 DUP3 LT ISZERO PUSH2 0xEBF JUMPI DUP4 DUP3 SWAP1 PUSH1 0x0 MSTORE PUSH1 0x20 PUSH1 0x0 KECCAK256 ADD DUP1 SLOAD PUSH2 0xE32 SWAP1 PUSH2 0x2444 JUMP JUMPDEST DUP1 PUSH1 0x1F ADD PUSH1 0x20 DUP1 SWAP2 DIV MUL PUSH1 0x20 ADD PUSH1 0x40 MLOAD SWAP1 DUP2 ADD PUSH1 0x40 MSTORE DUP1 SWAP3 SWAP2 SWAP1 DUP2 DUP2 MSTORE PUSH1 0x20 ADD DUP3 DUP1 SLOAD PUSH2 0xE5E SWAP1 PUSH2 0x2444 JUMP JUMPDEST DUP1 ISZERO PUSH2 0xEAB JUMPI DUP1 PUSH1 0x1F LT PUSH2 0xE80 JUMPI PUSH2 0x100 DUP1 DUP4 SLOAD DIV MUL DUP4 MSTORE SWAP2 PUSH1 0x20 ADD SWAP2 PUSH2 0xEAB JUMP JUMPDEST DUP3 ADD SWAP2 SWAP1 PUSH1 0x0 MSTORE PUSH1 0x20 PUSH1 0x0 KECCAK256 SWAP1 JUMPDEST DUP2 SLOAD DUP2 MSTORE SWAP1 PUSH1 0x1 ADD SWAP1 PUSH1 0x20 ADD DUP1 DUP4 GT PUSH2 0xE8E JUMPI DUP3 SWAP1 SUB PUSH1 0x1F AND DUP3 ADD SWAP2 JUMPDEST POP POP POP POP POP DUP2 MSTORE PUSH1 0x20 ADD SWAP1 PUSH1 0x1 ADD SWAP1 PUSH2 0xE13 JUMP JUMPDEST POP POP POP POP SWAP1 POP SWAP1 JUMP JUMPDEST PUSH1 0x40 MLOAD DUP1 PUSH1 0x80 ADD PUSH1 0x40 MSTORE DUP1 CALLER PUSH20 0xFFFFFFFFFFFFFFFFFFFFFFFFFFFFFFFFFFFFFFFF AND DUP2 MSTORE PUSH1 0x20 ADD DUP3 DUP2 MSTORE PUSH1 0x20 ADD DUP4 DUP2 MSTORE PUSH1 0x20 ADD PUSH1 0xC SLOAD DUP2 MSTORE POP PUSH1 0x7 DUP5 PUSH1 0x40 MLOAD PUSH2 0xF11 SWAP2 SWAP1 PUSH2 0x2087 JUMP JUMPDEST SWAP1 DUP2 MSTORE PUSH1 0x20 ADD PUSH1 0x40 MLOAD DUP1 SWAP2 SUB SWAP1 KECCAK256 PUSH1 0x0 DUP3 ADD MLOAD DUP2 PUSH1 0x0 ADD PUSH1 0x0 PUSH2 0x100 EXP DUP2 SLOAD DUP2 PUSH20 0xFFFFFFFFFFFFFFFFFFFFFFFFFFFFFFFFFFFFFFFF MUL NOT AND SWAP1 DUP4 PUSH20 0xFFFFFFFFFFFFFFFFFFFFFFFFFFFFFFFFFFFFFFFF AND MUL OR SWAP1 SSTORE POP PUSH1 0x20 DUP3 ADD MLOAD DUP2 PUSH1 0x1 ADD SWAP1 DUP1 MLOAD SWAP1 PUSH1 0x20 ADD SWAP1 PUSH2 0xF82 SWAP3 SWAP2 SWAP1 PUSH2 0x1A5A JUMP JUMPDEST POP PUSH1 0x40 DUP3 ADD MLOAD DUP2 PUSH1 0x2 ADD SSTORE PUSH1 0x60 DUP3 ADD MLOAD DUP2 PUSH1 0x3 ADD SSTORE SWAP1 POP POP PUSH1 0x8 DUP4 SWAP1 DUP1 PUSH1 0x1 DUP2 SLOAD ADD DUP1 DUP3 SSTORE DUP1 SWAP2 POP POP PUSH1 0x1 SWAP1 SUB SWAP1 PUSH1 0x0 MSTORE PUSH1 0x20 PUSH1 0x0 KECCAK256 ADD PUSH1 0x0 SWAP1 SWAP2 SWAP1 SWAP2 SWAP1 SWAP2 POP SWAP1 DUP1 MLOAD SWAP1 PUSH1 0x20 ADD SWAP1 PUSH2 0xFD5 SWAP3 SWAP2 SWAP1 PUSH2 0x1A5A JUMP JUMPDEST POP PUSH1 0xC PUSH1 0x0 DUP2 SLOAD DUP1 SWAP3 SWAP2 SWAP1 PUSH2 0xFE9 SWAP1 PUSH2 0x24A7 JUMP JUMPDEST SWAP2 SWAP1 POP SSTORE POP POP POP POP JUMP JUMPDEST PUSH1 0xB DUP2 DUP2 SLOAD DUP2 LT PUSH2 0x1003 JUMPI PUSH1 0x0 DUP1 REVERT JUMPDEST SWAP1 PUSH1 0x0 MSTORE PUSH1 0x20 PUSH1 0x0 KECCAK256 SWAP1 PUSH1 0x3 MUL ADD PUSH1 0x0 SWAP2 POP SWAP1 POP DUP1 PUSH1 0x0 ADD PUSH1 0x0 SWAP1 SLOAD SWAP1 PUSH2 0x100 EXP SWAP1 DIV PUSH20 0xFFFFFFFFFFFFFFFFFFFFFFFFFFFFFFFFFFFFFFFF AND SWAP1 DUP1 PUSH1 0x1 ADD DUP1 SLOAD PUSH2 0x104C SWAP1 PUSH2 0x2444 JUMP JUMPDEST DUP1 PUSH1 0x1F ADD PUSH1 0x20 DUP1 SWAP2 DIV MUL PUSH1 0x20 ADD PUSH1 0x40 MLOAD SWAP1 DUP2 ADD PUSH1 0x40 MSTORE DUP1 SWAP3 SWAP2 SWAP1 DUP2 DUP2 MSTORE PUSH1 0x20 ADD DUP3 DUP1 SLOAD PUSH2 0x1078 SWAP1 PUSH2 0x2444 JUMP JUMPDEST DUP1 ISZERO PUSH2 0x10C5 JUMPI DUP1 PUSH1 0x1F LT PUSH2 0x109A JUMPI PUSH2 0x100 DUP1 DUP4 SLOAD DIV MUL DUP4 MSTORE SWAP2 PUSH1 0x20 ADD SWAP2 PUSH2 0x10C5 JUMP JUMPDEST DUP3 ADD SWAP2 SWAP1 PUSH1 0x0 MSTORE PUSH1 0x20 PUSH1 0x0 KECCAK256 SWAP1 JUMPDEST DUP2 SLOAD DUP2 MSTORE SWAP1 PUSH1 0x1 ADD SWAP1 PUSH1 0x20 ADD DUP1 DUP4 GT PUSH2 0x10A8 JUMPI DUP3 SWAP1 SUB PUSH1 0x1F AND DUP3 ADD SWAP2 JUMPDEST POP POP POP POP POP SWAP1 DUP1 PUSH1 0x2 ADD PUSH1 0x0 SWAP1 SLOAD SWAP1 PUSH2 0x100 EXP SWAP1 DIV PUSH1 0xFF AND SWAP1 POP DUP4 JUMP JUMPDEST PUSH1 0x4 PUSH1 0x20 MSTORE DUP1 PUSH1 0x0 MSTORE PUSH1 0x40 PUSH1 0x0 KECCAK256 PUSH1 0x0 SWAP2 POP SWAP1 POP DUP1 PUSH1 0x0 ADD DUP1 SLOAD PUSH2 0x1105 SWAP1 PUSH2 0x2444 JUMP JUMPDEST DUP1 PUSH1 0x1F ADD PUSH1 0x20 DUP1 SWAP2 DIV MUL PUSH1 0x20 ADD PUSH1 0x40 MLOAD SWAP1 DUP2 ADD PUSH1 0x40 MSTORE DUP1 SWAP3 SWAP2 SWAP1 DUP2 DUP2 MSTORE PUSH1 0x20 ADD DUP3 DUP1 SLOAD PUSH2 0x1131 SWAP1 PUSH2 0x2444 JUMP JUMPDEST DUP1 ISZERO PUSH2 0x117E JUMPI DUP1 PUSH1 0x1F LT PUSH2 0x1153 JUMPI PUSH2 0x100 DUP1 DUP4 SLOAD DIV MUL DUP4 MSTORE SWAP2 PUSH1 0x20 ADD SWAP2 PUSH2 0x117E JUMP JUMPDEST DUP3 ADD SWAP2 SWAP1 PUSH1 0x0 MSTORE PUSH1 0x20 PUSH1 0x0 KECCAK256 SWAP1 JUMPDEST DUP2 SLOAD DUP2 MSTORE SWAP1 PUSH1 0x1 ADD SWAP1 PUSH1 0x20 ADD DUP1 DUP4 GT PUSH2 0x1161 JUMPI DUP3 SWAP1 SUB PUSH1 0x1F AND DUP3 ADD SWAP2 JUMPDEST POP POP POP POP POP SWAP1 DUP1 PUSH1 0x1 ADD SLOAD SWAP1 DUP1 PUSH1 0x2 ADD SLOAD SWAP1 POP DUP4 JUMP JUMPDEST PUSH1 0xA DUP2 DUP2 SLOAD DUP2 LT PUSH2 0x11A4 JUMPI PUSH1 0x0 DUP1 REVERT JUMPDEST SWAP1 PUSH1 0x0 MSTORE PUSH1 0x20 PUSH1 0x0 KECCAK256 SWAP1 PUSH1 0x3 MUL ADD PUSH1 0x0 SWAP2 POP SWAP1 POP DUP1 PUSH1 0x0 ADD PUSH1 0x0 SWAP1 SLOAD SWAP1 PUSH2 0x100 EXP SWAP1 DIV PUSH20 0xFFFFFFFFFFFFFFFFFFFFFFFFFFFFFFFFFFFFFFFF AND SWAP1 DUP1 PUSH1 0x1 ADD DUP1 SLOAD PUSH2 0x11ED SWAP1 PUSH2 0x2444 JUMP JUMPDEST DUP1 PUSH1 0x1F ADD PUSH1 0x20 DUP1 SWAP2 DIV MUL PUSH1 0x20 ADD PUSH1 0x40 MLOAD SWAP1 DUP2 ADD PUSH1 0x40 MSTORE DUP1 SWAP3 SWAP2 SWAP1 DUP2 DUP2 MSTORE PUSH1 0x20 ADD DUP3 DUP1 SLOAD PUSH2 0x1219 SWAP1 PUSH2 0x2444 JUMP JUMPDEST DUP1 ISZERO PUSH2 0x1266 JUMPI DUP1 PUSH1 0x1F LT PUSH2 0x123B JUMPI PUSH2 0x100 DUP1 DUP4 SLOAD DIV MUL DUP4 MSTORE SWAP2 PUSH1 0x20 ADD SWAP2 PUSH2 0x1266 JUMP JUMPDEST DUP3 ADD SWAP2 SWAP1 PUSH1 0x0 MSTORE PUSH1 0x20 PUSH1 0x0 KECCAK256 SWAP1 JUMPDEST DUP2 SLOAD DUP2 MSTORE SWAP1 PUSH1 0x1 ADD SWAP1 PUSH1 0x20 ADD DUP1 DUP4 GT PUSH2 0x1249 JUMPI DUP3 SWAP1 SUB PUSH1 0x1F AND DUP3 ADD SWAP2 JUMPDEST POP POP POP POP POP SWAP1 DUP1 PUSH1 0x2 ADD PUSH1 0x0 SWAP1 SLOAD SWAP1 PUSH2 0x100 EXP SWAP1 DIV PUSH1 0xFF AND SWAP1 POP DUP4 JUMP JUMPDEST PUSH1 0xA PUSH1 0x40 MLOAD DUP1 PUSH1 0x60 ADD PUSH1 0x40 MSTORE DUP1 CALLER PUSH20 0xFFFFFFFFFFFFFFFFFFFFFFFFFFFFFFFFFFFFFFFF AND DUP2 MSTORE PUSH1 0x20 ADD DUP4 DUP2 MSTORE PUSH1 0x20 ADD PUSH1 0x1 ISZERO ISZERO DUP2 MSTORE POP SWAP1 DUP1 PUSH1 0x1 DUP2 SLOAD ADD DUP1 DUP3 SSTORE DUP1 SWAP2 POP POP PUSH1 0x1 SWAP1 SUB SWAP1 PUSH1 0x0 MSTORE PUSH1 0x20 PUSH1 0x0 KECCAK256 SWAP1 PUSH1 0x3 MUL ADD PUSH1 0x0 SWAP1 SWAP2 SWAP1 SWAP2 SWAP1 SWAP2 POP PUSH1 0x0 DUP3 ADD MLOAD DUP2 PUSH1 0x0 ADD PUSH1 0x0 PUSH2 0x100 EXP DUP2 SLOAD DUP2 PUSH20 0xFFFFFFFFFFFFFFFFFFFFFFFFFFFFFFFFFFFFFFFF MUL NOT AND SWAP1 DUP4 PUSH20 0xFFFFFFFFFFFFFFFFFFFFFFFFFFFFFFFFFFFFFFFF AND MUL OR SWAP1 SSTORE POP PUSH1 0x20 DUP3 ADD MLOAD DUP2 PUSH1 0x1 ADD SWAP1 DUP1 MLOAD SWAP1 PUSH1 0x20 ADD SWAP1 PUSH2 0x1345 SWAP3 SWAP2 SWAP1 PUSH2 0x1A5A JUMP JUMPDEST POP PUSH1 0x40 DUP3 ADD MLOAD DUP2 PUSH1 0x2 ADD PUSH1 0x0 PUSH2 0x100 EXP DUP2 SLOAD DUP2 PUSH1 0xFF MUL NOT AND SWAP1 DUP4 ISZERO ISZERO MUL OR SWAP1 SSTORE POP POP POP POP JUMP JUMPDEST PUSH1 0x60 PUSH1 0x2 DUP1 SLOAD DUP1 PUSH1 0x20 MUL PUSH1 0x20 ADD PUSH1 0x40 MLOAD SWAP1 DUP2 ADD PUSH1 0x40 MSTORE DUP1 SWAP3 SWAP2 SWAP1 DUP2 DUP2 MSTORE PUSH1 0x20 ADD PUSH1 0x0 SWAP1 JUMPDEST DUP3 DUP3 LT ISZERO PUSH2 0x143B JUMPI DUP4 DUP3 SWAP1 PUSH1 0x0 MSTORE PUSH1 0x20 PUSH1 0x0 KECCAK256 ADD DUP1 SLOAD PUSH2 0x13AE SWAP1 PUSH2 0x2444 JUMP JUMPDEST DUP1 PUSH1 0x1F ADD PUSH1 0x20 DUP1 SWAP2 DIV MUL PUSH1 0x20 ADD PUSH1 0x40 MLOAD SWAP1 DUP2 ADD PUSH1 0x40 MSTORE DUP1 SWAP3 SWAP2 SWAP1 DUP2 DUP2 MSTORE PUSH1 0x20 ADD DUP3 DUP1 SLOAD PUSH2 0x13DA SWAP1 PUSH2 0x2444 JUMP JUMPDEST DUP1 ISZERO PUSH2 0x1427 JUMPI DUP1 PUSH1 0x1F LT PUSH2 0x13FC JUMPI PUSH2 0x100 DUP1 DUP4 SLOAD DIV MUL DUP4 MSTORE SWAP2 PUSH1 0x20 ADD SWAP2 PUSH2 0x1427 JUMP JUMPDEST DUP3 ADD SWAP2 SWAP1 PUSH1 0x0 MSTORE PUSH1 0x20 PUSH1 0x0 KECCAK256 SWAP1 JUMPDEST DUP2 SLOAD DUP2 MSTORE SWAP1 PUSH1 0x1 ADD SWAP1 PUSH1 0x20 ADD DUP1 DUP4 GT PUSH2 0x140A JUMPI DUP3 SWAP1 SUB PUSH1 0x1F AND DUP3 ADD SWAP2 JUMPDEST POP POP POP POP POP DUP2 MSTORE PUSH1 0x20 ADD SWAP1 PUSH1 0x1 ADD SWAP1 PUSH2 0x138F JUMP JUMPDEST POP POP POP POP SWAP1 POP SWAP1 JUMP JUMPDEST PUSH1 0x1 DUP2 DUP1 MLOAD PUSH1 0x20 DUP2 ADD DUP3 ADD DUP1 MLOAD DUP5 DUP3 MSTORE PUSH1 0x20 DUP4 ADD PUSH1 0x20 DUP6 ADD KECCAK256 DUP2 DUP4 MSTORE DUP1 SWAP6 POP POP POP POP POP POP PUSH1 0x0 SWAP2 POP SLOAD SWAP1 PUSH2 0x100 EXP SWAP1 DIV PUSH20 0xFFFFFFFFFFFFFFFFFFFFFFFFFFFFFFFFFFFFFFFF AND DUP2 JUMP JUMPDEST PUSH1 0xA DUP2 GT ISZERO PUSH2 0x14D1 JUMPI PUSH1 0x40 MLOAD PUSH32 0x8C379A000000000000000000000000000000000000000000000000000000000 DUP2 MSTORE PUSH1 0x4 ADD PUSH2 0x14C8 SWAP1 PUSH2 0x2234 JUMP JUMPDEST PUSH1 0x40 MLOAD DUP1 SWAP2 SUB SWAP1 REVERT JUMPDEST PUSH1 0x60 PUSH1 0x40 MLOAD DUP1 PUSH1 0xA0 ADD PUSH1 0x40 MSTORE DUP1 DUP6 DUP2 MSTORE PUSH1 0x20 ADD PUSH1 0x4 PUSH1 0x0 CALLER PUSH20 0xFFFFFFFFFFFFFFFFFFFFFFFFFFFFFFFFFFFFFFFF AND PUSH20 0xFFFFFFFFFFFFFFFFFFFFFFFFFFFFFFFFFFFFFFFF AND DUP2 MSTORE PUSH1 0x20 ADD SWAP1 DUP2 MSTORE PUSH1 0x20 ADD PUSH1 0x0 KECCAK256 PUSH1 0x0 ADD DUP1 SLOAD PUSH2 0x1531 SWAP1 PUSH2 0x2444 JUMP JUMPDEST DUP1 PUSH1 0x1F ADD PUSH1 0x20 DUP1 SWAP2 DIV MUL PUSH1 0x20 ADD PUSH1 0x40 MLOAD SWAP1 DUP2 ADD PUSH1 0x40 MSTORE DUP1 SWAP3 SWAP2 SWAP1 DUP2 DUP2 MSTORE PUSH1 0x20 ADD DUP3 DUP1 SLOAD PUSH2 0x155D SWAP1 PUSH2 0x2444 JUMP JUMPDEST DUP1 ISZERO PUSH2 0x15AA JUMPI DUP1 PUSH1 0x1F LT PUSH2 0x157F JUMPI PUSH2 0x100 DUP1 DUP4 SLOAD DIV MUL DUP4 MSTORE SWAP2 PUSH1 0x20 ADD SWAP2 PUSH2 0x15AA JUMP JUMPDEST DUP3 ADD SWAP2 SWAP1 PUSH1 0x0 MSTORE PUSH1 0x20 PUSH1 0x0 KECCAK256 SWAP1 JUMPDEST DUP2 SLOAD DUP2 MSTORE SWAP1 PUSH1 0x1 ADD SWAP1 PUSH1 0x20 ADD DUP1 DUP4 GT PUSH2 0x158D JUMPI DUP3 SWAP1 SUB PUSH1 0x1F AND DUP3 ADD SWAP2 JUMPDEST POP POP POP POP POP DUP2 MSTORE PUSH1 0x20 ADD DUP5 DUP2 MSTORE PUSH1 0x20 ADD DUP4 DUP2 MSTORE PUSH1 0x20 ADD DUP3 DUP2 MSTORE POP PUSH1 0x3 PUSH1 0xD SLOAD DUP2 SLOAD DUP2 LT PUSH2 0x15DA JUMPI PUSH2 0x15D9 PUSH2 0x254E JUMP JUMPDEST JUMPDEST SWAP1 PUSH1 0x0 MSTORE PUSH1 0x20 PUSH1 0x0 KECCAK256 SWAP1 PUSH1 0x5 MUL ADD PUSH1 0x0 DUP3 ADD MLOAD DUP2 PUSH1 0x0 ADD SWAP1 DUP1 MLOAD SWAP1 PUSH1 0x20 ADD SWAP1 PUSH2 0x1604 SWAP3 SWAP2 SWAP1 PUSH2 0x1A5A JUMP JUMPDEST POP PUSH1 0x20 DUP3 ADD MLOAD DUP2 PUSH1 0x1 ADD SWAP1 DUP1 MLOAD SWAP1 PUSH1 0x20 ADD SWAP1 PUSH2 0x1621 SWAP3 SWAP2 SWAP1 PUSH2 0x1A5A JUMP JUMPDEST POP PUSH1 0x40 DUP3 ADD MLOAD DUP2 PUSH1 0x2 ADD SWAP1 DUP1 MLOAD SWAP1 PUSH1 0x20 ADD SWAP1 PUSH2 0x163E SWAP3 SWAP2 SWAP1 PUSH2 0x1A5A JUMP JUMPDEST POP PUSH1 0x60 DUP3 ADD MLOAD DUP2 PUSH1 0x3 ADD SSTORE PUSH1 0x80 DUP3 ADD MLOAD DUP2 PUSH1 0x4 ADD SWAP1 DUP1 MLOAD SWAP1 PUSH1 0x20 ADD SWAP1 PUSH2 0x1665 SWAP3 SWAP2 SWAP1 PUSH2 0x1AE0 JUMP JUMPDEST POP SWAP1 POP POP PUSH1 0xD PUSH1 0x0 DUP2 SLOAD DUP1 SWAP3 SWAP2 SWAP1 PUSH2 0x167C SWAP1 PUSH2 0x24A7 JUMP JUMPDEST SWAP2 SWAP1 POP SSTORE POP POP POP POP POP JUMP JUMPDEST PUSH1 0x7 DUP2 DUP1 MLOAD PUSH1 0x20 DUP2 ADD DUP3 ADD DUP1 MLOAD DUP5 DUP3 MSTORE PUSH1 0x20 DUP4 ADD PUSH1 0x20 DUP6 ADD KECCAK256 DUP2 DUP4 MSTORE DUP1 SWAP6 POP POP POP POP POP POP PUSH1 0x0 SWAP2 POP SWAP1 POP DUP1 PUSH1 0x0 ADD PUSH1 0x0 SWAP1 SLOAD SWAP1 PUSH2 0x100 EXP SWAP1 DIV PUSH20 0xFFFFFFFFFFFFFFFFFFFFFFFFFFFFFFFFFFFFFFFF AND SWAP1 DUP1 PUSH1 0x1 ADD DUP1 SLOAD PUSH2 0x16E6 SWAP1 PUSH2 0x2444 JUMP JUMPDEST DUP1 PUSH1 0x1F ADD PUSH1 0x20 DUP1 SWAP2 DIV MUL PUSH1 0x20 ADD PUSH1 0x40 MLOAD SWAP1 DUP2 ADD PUSH1 0x40 MSTORE DUP1 SWAP3 SWAP2 SWAP1 DUP2 DUP2 MSTORE PUSH1 0x20 ADD DUP3 DUP1 SLOAD PUSH2 0x1712 SWAP1 PUSH2 0x2444 JUMP JUMPDEST DUP1 ISZERO PUSH2 0x175F JUMPI DUP1 PUSH1 0x1F LT PUSH2 0x1734 JUMPI PUSH2 0x100 DUP1 DUP4 SLOAD DIV MUL DUP4 MSTORE SWAP2 PUSH1 0x20 ADD SWAP2 PUSH2 0x175F JUMP JUMPDEST DUP3 ADD SWAP2 SWAP1 PUSH1 0x0 MSTORE PUSH1 0x20 PUSH1 0x0 KECCAK256 SWAP1 JUMPDEST DUP2 SLOAD DUP2 MSTORE SWAP1 PUSH1 0x1 ADD SWAP1 PUSH1 0x20 ADD DUP1 DUP4 GT PUSH2 0x1742 JUMPI DUP3 SWAP1 SUB PUSH1 0x1F AND DUP3 ADD SWAP2 JUMPDEST POP POP POP POP POP SWAP1 DUP1 PUSH1 0x2 ADD SLOAD SWAP1 DUP1 PUSH1 0x3 ADD SLOAD SWAP1 POP DUP5 JUMP JUMPDEST PUSH1 0x9 DUP2 DUP2 SLOAD DUP2 LT PUSH2 0x1785 JUMPI PUSH1 0x0 DUP1 REVERT JUMPDEST SWAP1 PUSH1 0x0 MSTORE PUSH1 0x20 PUSH1 0x0 KECCAK256 SWAP1 PUSH1 0x3 MUL ADD PUSH1 0x0 SWAP2 POP SWAP1 POP DUP1 PUSH1 0x0 ADD PUSH1 0x0 SWAP1 SLOAD SWAP1 PUSH2 0x100 EXP SWAP1 DIV PUSH20 0xFFFFFFFFFFFFFFFFFFFFFFFFFFFFFFFFFFFFFFFF AND SWAP1 DUP1 PUSH1 0x1 ADD DUP1 SLOAD PUSH2 0x17CE SWAP1 PUSH2 0x2444 JUMP JUMPDEST DUP1 PUSH1 0x1F ADD PUSH1 0x20 DUP1 SWAP2 DIV MUL PUSH1 0x20 ADD PUSH1 0x40 MLOAD SWAP1 DUP2 ADD PUSH1 0x40 MSTORE DUP1 SWAP3 SWAP2 SWAP1 DUP2 DUP2 MSTORE PUSH1 0x20 ADD DUP3 DUP1 SLOAD PUSH2 0x17FA SWAP1 PUSH2 0x2444 JUMP JUMPDEST DUP1 ISZERO PUSH2 0x1847 JUMPI DUP1 PUSH1 0x1F LT PUSH2 0x181C JUMPI PUSH2 0x100 DUP1 DUP4 SLOAD DIV MUL DUP4 MSTORE SWAP2 PUSH1 0x20 ADD SWAP2 PUSH2 0x1847 JUMP JUMPDEST DUP3 ADD SWAP2 SWAP1 PUSH1 0x0 MSTORE PUSH1 0x20 PUSH1 0x0 KECCAK256 SWAP1 JUMPDEST DUP2 SLOAD DUP2 MSTORE SWAP1 PUSH1 0x1 ADD SWAP1 PUSH1 0x20 ADD DUP1 DUP4 GT PUSH2 0x182A JUMPI DUP3 SWAP1 SUB PUSH1 0x1F AND DUP3 ADD SWAP2 JUMPDEST POP POP POP POP POP SWAP1 DUP1 PUSH1 0x2 ADD PUSH1 0x0 SWAP1 SLOAD SWAP1 PUSH2 0x100 EXP SWAP1 DIV PUSH1 0xFF AND SWAP1 POP DUP4 JUMP JUMPDEST PUSH1 0x1 ISZERO ISZERO DUP2 ISZERO ISZERO EQ ISZERO PUSH2 0x1A17 JUMPI PUSH1 0x0 PUSH1 0xA DUP4 DUP2 SLOAD DUP2 LT PUSH2 0x1887 JUMPI PUSH2 0x1886 PUSH2 0x254E JUMP JUMPDEST JUMPDEST SWAP1 PUSH1 0x0 MSTORE PUSH1 0x20 PUSH1 0x0 KECCAK256 SWAP1 PUSH1 0x3 MUL ADD PUSH1 0x2 ADD PUSH1 0x0 PUSH2 0x100 EXP DUP2 SLOAD DUP2 PUSH1 0xFF MUL NOT AND SWAP1 DUP4 ISZERO ISZERO MUL OR SWAP1 SSTORE POP PUSH1 0x7 PUSH1 0xB DUP4 DUP2 SLOAD DUP2 LT PUSH2 0x18C5 JUMPI PUSH2 0x18C4 PUSH2 0x254E JUMP JUMPDEST JUMPDEST SWAP1 PUSH1 0x0 MSTORE PUSH1 0x20 PUSH1 0x0 KECCAK256 SWAP1 PUSH1 0x3 MUL ADD PUSH1 0x1 ADD PUSH1 0x40 MLOAD PUSH2 0x18E3 SWAP2 SWAP1 PUSH2 0x209E JUMP JUMPDEST SWAP1 DUP2 MSTORE PUSH1 0x20 ADD PUSH1 0x40 MLOAD DUP1 SWAP2 SUB SWAP1 KECCAK256 PUSH1 0x2 ADD SLOAD PUSH1 0x4 PUSH1 0x0 PUSH1 0xB DUP6 DUP2 SLOAD DUP2 LT PUSH2 0x190D JUMPI PUSH2 0x190C PUSH2 0x254E JUMP JUMPDEST JUMPDEST SWAP1 PUSH1 0x0 MSTORE PUSH1 0x20 PUSH1 0x0 KECCAK256 SWAP1 PUSH1 0x3 MUL ADD PUSH1 0x0 ADD PUSH1 0x0 SWAP1 SLOAD SWAP1 PUSH2 0x100 EXP SWAP1 DIV PUSH20 0xFFFFFFFFFFFFFFFFFFFFFFFFFFFFFFFFFFFFFFFF AND PUSH20 0xFFFFFFFFFFFFFFFFFFFFFFFFFFFFFFFFFFFFFFFF AND PUSH20 0xFFFFFFFFFFFFFFFFFFFFFFFFFFFFFFFFFFFFFFFF AND DUP2 MSTORE PUSH1 0x20 ADD SWAP1 DUP2 MSTORE PUSH1 0x20 ADD PUSH1 0x0 KECCAK256 PUSH1 0x2 ADD SLOAD PUSH2 0x1987 SWAP2 SWAP1 PUSH2 0x2330 JUMP JUMPDEST PUSH1 0x4 PUSH1 0x0 PUSH1 0xB DUP6 DUP2 SLOAD DUP2 LT PUSH2 0x199F JUMPI PUSH2 0x199E PUSH2 0x254E JUMP JUMPDEST JUMPDEST SWAP1 PUSH1 0x0 MSTORE PUSH1 0x20 PUSH1 0x0 KECCAK256 SWAP1 PUSH1 0x3 MUL ADD PUSH1 0x0 ADD PUSH1 0x0 SWAP1 SLOAD SWAP1 PUSH2 0x100 EXP SWAP1 DIV PUSH20 0xFFFFFFFFFFFFFFFFFFFFFFFFFFFFFFFFFFFFFFFF AND PUSH20 0xFFFFFFFFFFFFFFFFFFFFFFFFFFFFFFFFFFFFFFFF AND PUSH20 0xFFFFFFFFFFFFFFFFFFFFFFFFFFFFFFFFFFFFFFFF AND DUP2 MSTORE PUSH1 0x20 ADD SWAP1 DUP2 MSTORE PUSH1 0x20 ADD PUSH1 0x0 KECCAK256 PUSH1 0x2 ADD DUP2 SWAP1 SSTORE POP PUSH2 0x1A56 JUMP JUMPDEST PUSH1 0x0 PUSH1 0xA DUP4 DUP2 SLOAD DUP2 LT PUSH2 0x1A2D JUMPI PUSH2 0x1A2C PUSH2 0x254E JUMP JUMPDEST JUMPDEST SWAP1 PUSH1 0x0 MSTORE PUSH1 0x20 PUSH1 0x0 KECCAK256 SWAP1 PUSH1 0x3 MUL ADD PUSH1 0x2 ADD PUSH1 0x0 PUSH2 0x100 EXP DUP2 SLOAD DUP2 PUSH1 0xFF MUL NOT AND SWAP1 DUP4 ISZERO ISZERO MUL OR SWAP1 SSTORE POP JUMPDEST POP POP JUMP JUMPDEST DUP3 DUP1 SLOAD PUSH2 0x1A66 SWAP1 PUSH2 0x2444 JUMP JUMPDEST SWAP1 PUSH1 0x0 MSTORE PUSH1 0x20 PUSH1 0x0 KECCAK256 SWAP1 PUSH1 0x1F ADD PUSH1 0x20 SWAP1 DIV DUP2 ADD SWAP3 DUP3 PUSH2 0x1A88 JUMPI PUSH1 0x0 DUP6 SSTORE PUSH2 0x1ACF JUMP JUMPDEST DUP3 PUSH1 0x1F LT PUSH2 0x1AA1 JUMPI DUP1 MLOAD PUSH1 0xFF NOT AND DUP4 DUP1 ADD OR DUP6 SSTORE PUSH2 0x1ACF JUMP JUMPDEST DUP3 DUP1 ADD PUSH1 0x1 ADD DUP6 SSTORE DUP3 ISZERO PUSH2 0x1ACF JUMPI SWAP2 DUP3 ADD JUMPDEST DUP3 DUP2 GT ISZERO PUSH2 0x1ACE JUMPI DUP3 MLOAD DUP3 SSTORE SWAP2 PUSH1 0x20 ADD SWAP2 SWAP1 PUSH1 0x1 ADD SWAP1 PUSH2 0x1AB3 JUMP JUMPDEST JUMPDEST POP SWAP1 POP PUSH2 0x1ADC SWAP2 SWAP1 PUSH2 0x1B40 JUMP JUMPDEST POP SWAP1 JUMP JUMPDEST DUP3 DUP1 SLOAD DUP3 DUP3 SSTORE SWAP1 PUSH1 0x0 MSTORE PUSH1 0x20 PUSH1 0x0 KECCAK256 SWAP1 DUP2 ADD SWAP3 DUP3 ISZERO PUSH2 0x1B2F JUMPI SWAP2 PUSH1 0x20 MUL DUP3 ADD JUMPDEST DUP3 DUP2 GT ISZERO PUSH2 0x1B2E JUMPI DUP3 MLOAD DUP3 SWAP1 DUP1 MLOAD SWAP1 PUSH1 0x20 ADD SWAP1 PUSH2 0x1B1E SWAP3 SWAP2 SWAP1 PUSH2 0x1A5A JUMP JUMPDEST POP SWAP2 PUSH1 0x20 ADD SWAP2 SWAP1 PUSH1 0x1 ADD SWAP1 PUSH2 0x1B00 JUMP JUMPDEST JUMPDEST POP SWAP1 POP PUSH2 0x1B3C SWAP2 SWAP1 PUSH2 0x1B5D JUMP JUMPDEST POP SWAP1 JUMP JUMPDEST JUMPDEST DUP1 DUP3 GT ISZERO PUSH2 0x1B59 JUMPI PUSH1 0x0 DUP2 PUSH1 0x0 SWAP1 SSTORE POP PUSH1 0x1 ADD PUSH2 0x1B41 JUMP JUMPDEST POP SWAP1 JUMP JUMPDEST JUMPDEST DUP1 DUP3 GT ISZERO PUSH2 0x1B7D JUMPI PUSH1 0x0 DUP2 DUP2 PUSH2 0x1B74 SWAP2 SWAP1 PUSH2 0x1B81 JUMP JUMPDEST POP PUSH1 0x1 ADD PUSH2 0x1B5E JUMP JUMPDEST POP SWAP1 JUMP JUMPDEST POP DUP1 SLOAD PUSH2 0x1B8D SWAP1 PUSH2 0x2444 JUMP JUMPDEST PUSH1 0x0 DUP3 SSTORE DUP1 PUSH1 0x1F LT PUSH2 0x1B9F JUMPI POP PUSH2 0x1BBE JUMP JUMPDEST PUSH1 0x1F ADD PUSH1 0x20 SWAP1 DIV SWAP1 PUSH1 0x0 MSTORE PUSH1 0x20 PUSH1 0x0 KECCAK256 SWAP1 DUP2 ADD SWAP1 PUSH2 0x1BBD SWAP2 SWAP1 PUSH2 0x1B40 JUMP JUMPDEST JUMPDEST POP JUMP JUMPDEST PUSH1 0x0 PUSH2 0x1BD4 PUSH2 0x1BCF DUP5 PUSH2 0x2279 JUMP JUMPDEST PUSH2 0x2254 JUMP JUMPDEST SWAP1 POP DUP3 DUP2 MSTORE PUSH1 0x20 DUP2 ADD DUP5 DUP5 DUP5 ADD GT ISZERO PUSH2 0x1BF0 JUMPI PUSH2 0x1BEF PUSH2 0x25B1 JUMP JUMPDEST JUMPDEST PUSH2 0x1BFB DUP5 DUP3 DUP6 PUSH2 0x2402 JUMP JUMPDEST POP SWAP4 SWAP3 POP POP POP JUMP JUMPDEST PUSH1 0x0 DUP2 CALLDATALOAD SWAP1 POP PUSH2 0x1C12 DUP2 PUSH2 0x2649 JUMP JUMPDEST SWAP3 SWAP2 POP POP JUMP JUMPDEST PUSH1 0x0 DUP2 CALLDATALOAD SWAP1 POP PUSH2 0x1C27 DUP2 PUSH2 0x2660 JUMP JUMPDEST SWAP3 SWAP2 POP POP JUMP JUMPDEST PUSH1 0x0 DUP3 PUSH1 0x1F DUP4 ADD SLT PUSH2 0x1C42 JUMPI PUSH2 0x1C41 PUSH2 0x25AC JUMP JUMPDEST JUMPDEST DUP2 CALLDATALOAD PUSH2 0x1C52 DUP5 DUP3 PUSH1 0x20 DUP7 ADD PUSH2 0x1BC1 JUMP JUMPDEST SWAP2 POP POP SWAP3 SWAP2 POP POP JUMP JUMPDEST PUSH1 0x0 DUP2 CALLDATALOAD SWAP1 POP PUSH2 0x1C6A DUP2 PUSH2 0x2677 JUMP JUMPDEST SWAP3 SWAP2 POP POP JUMP JUMPDEST PUSH1 0x0 PUSH1 0x20 DUP3 DUP5 SUB SLT ISZERO PUSH2 0x1C86 JUMPI PUSH2 0x1C85 PUSH2 0x25BB JUMP JUMPDEST JUMPDEST PUSH1 0x0 PUSH2 0x1C94 DUP5 DUP3 DUP6 ADD PUSH2 0x1C03 JUMP JUMPDEST SWAP2 POP POP SWAP3 SWAP2 POP POP JUMP JUMPDEST PUSH1 0x0 PUSH1 0x20 DUP3 DUP5 SUB SLT ISZERO PUSH2 0x1CB3 JUMPI PUSH2 0x1CB2 PUSH2 0x25BB JUMP JUMPDEST JUMPDEST PUSH1 0x0 DUP3 ADD CALLDATALOAD PUSH8 0xFFFFFFFFFFFFFFFF DUP2 GT ISZERO PUSH2 0x1CD1 JUMPI PUSH2 0x1CD0 PUSH2 0x25B6 JUMP JUMPDEST JUMPDEST PUSH2 0x1CDD DUP5 DUP3 DUP6 ADD PUSH2 0x1C2D JUMP JUMPDEST SWAP2 POP POP SWAP3 SWAP2 POP POP JUMP JUMPDEST PUSH1 0x0 DUP1 PUSH1 0x0 PUSH1 0x60 DUP5 DUP7 SUB SLT ISZERO PUSH2 0x1CFF JUMPI PUSH2 0x1CFE PUSH2 0x25BB JUMP JUMPDEST JUMPDEST PUSH1 0x0 DUP5 ADD CALLDATALOAD PUSH8 0xFFFFFFFFFFFFFFFF DUP2 GT ISZERO PUSH2 0x1D1D JUMPI PUSH2 0x1D1C PUSH2 0x25B6 JUMP JUMPDEST JUMPDEST PUSH2 0x1D29 DUP7 DUP3 DUP8 ADD PUSH2 0x1C2D JUMP JUMPDEST SWAP4 POP POP PUSH1 0x20 DUP5 ADD CALLDATALOAD PUSH8 0xFFFFFFFFFFFFFFFF DUP2 GT ISZERO PUSH2 0x1D4A JUMPI PUSH2 0x1D49 PUSH2 0x25B6 JUMP JUMPDEST JUMPDEST PUSH2 0x1D56 DUP7 DUP3 DUP8 ADD PUSH2 0x1C2D JUMP JUMPDEST SWAP3 POP POP PUSH1 0x40 PUSH2 0x1D67 DUP7 DUP3 DUP8 ADD PUSH2 0x1C5B JUMP JUMPDEST SWAP2 POP POP SWAP3 POP SWAP3 POP SWAP3 JUMP JUMPDEST PUSH1 0x0 DUP1 PUSH1 0x0 PUSH1 0x60 DUP5 DUP7 SUB SLT ISZERO PUSH2 0x1D8A JUMPI PUSH2 0x1D89 PUSH2 0x25BB JUMP JUMPDEST JUMPDEST PUSH1 0x0 DUP5 ADD CALLDATALOAD PUSH8 0xFFFFFFFFFFFFFFFF DUP2 GT ISZERO PUSH2 0x1DA8 JUMPI PUSH2 0x1DA7 PUSH2 0x25B6 JUMP JUMPDEST JUMPDEST PUSH2 0x1DB4 DUP7 DUP3 DUP8 ADD PUSH2 0x1C2D JUMP JUMPDEST SWAP4 POP POP PUSH1 0x20 PUSH2 0x1DC5 DUP7 DUP3 DUP8 ADD PUSH2 0x1C5B JUMP JUMPDEST SWAP3 POP POP PUSH1 0x40 DUP5 ADD CALLDATALOAD PUSH8 0xFFFFFFFFFFFFFFFF DUP2 GT ISZERO PUSH2 0x1DE6 JUMPI PUSH2 0x1DE5 PUSH2 0x25B6 JUMP JUMPDEST JUMPDEST PUSH2 0x1DF2 DUP7 DUP3 DUP8 ADD PUSH2 0x1C2D JUMP JUMPDEST SWAP2 POP POP SWAP3 POP SWAP3 POP SWAP3 JUMP JUMPDEST PUSH1 0x0 PUSH1 0x20 DUP3 DUP5 SUB SLT ISZERO PUSH2 0x1E12 JUMPI PUSH2 0x1E11 PUSH2 0x25BB JUMP JUMPDEST JUMPDEST PUSH1 0x0 PUSH2 0x1E20 DUP5 DUP3 DUP6 ADD PUSH2 0x1C5B JUMP JUMPDEST SWAP2 POP POP SWAP3 SWAP2 POP POP JUMP JUMPDEST PUSH1 0x0 DUP1 PUSH1 0x40 DUP4 DUP6 SUB SLT ISZERO PUSH2 0x1E40 JUMPI PUSH2 0x1E3F PUSH2 0x25BB JUMP JUMPDEST JUMPDEST PUSH1 0x0 PUSH2 0x1E4E DUP6 DUP3 DUP7 ADD PUSH2 0x1C5B JUMP JUMPDEST SWAP3 POP POP PUSH1 0x20 PUSH2 0x1E5F DUP6 DUP3 DUP7 ADD PUSH2 0x1C18 JUMP JUMPDEST SWAP2 POP POP SWAP3 POP SWAP3 SWAP1 POP JUMP JUMPDEST PUSH1 0x0 PUSH2 0x1E75 DUP4 DUP4 PUSH2 0x1F10 JUMP JUMPDEST SWAP1 POP SWAP3 SWAP2 POP POP JUMP JUMPDEST PUSH2 0x1E86 DUP2 PUSH2 0x23BA JUMP JUMPDEST DUP3 MSTORE POP POP JUMP JUMPDEST PUSH1 0x0 PUSH2 0x1E97 DUP3 PUSH2 0x22CF JUMP JUMPDEST PUSH2 0x1EA1 DUP2 DUP6 PUSH2 0x22F2 JUMP JUMPDEST SWAP4 POP DUP4 PUSH1 0x20 DUP3 MUL DUP6 ADD PUSH2 0x1EB3 DUP6 PUSH2 0x22AA JUMP JUMPDEST DUP1 PUSH1 0x0 JUMPDEST DUP6 DUP2 LT ISZERO PUSH2 0x1EEF JUMPI DUP5 DUP5 SUB DUP10 MSTORE DUP2 MLOAD PUSH2 0x1ED0 DUP6 DUP3 PUSH2 0x1E69 JUMP JUMPDEST SWAP5 POP PUSH2 0x1EDB DUP4 PUSH2 0x22E5 JUMP JUMPDEST SWAP3 POP PUSH1 0x20 DUP11 ADD SWAP10 POP POP PUSH1 0x1 DUP2 ADD SWAP1 POP PUSH2 0x1EB7 JUMP JUMPDEST POP DUP3 SWAP8 POP DUP8 SWAP6 POP POP POP POP POP POP SWAP3 SWAP2 POP POP JUMP JUMPDEST PUSH2 0x1F0A DUP2 PUSH2 0x23CC JUMP JUMPDEST DUP3 MSTORE POP POP JUMP JUMPDEST PUSH1 0x0 PUSH2 0x1F1B DUP3 PUSH2 0x22DA JUMP JUMPDEST PUSH2 0x1F25 DUP2 DUP6 PUSH2 0x2303 JUMP JUMPDEST SWAP4 POP PUSH2 0x1F35 DUP2 DUP6 PUSH1 0x20 DUP7 ADD PUSH2 0x2411 JUMP JUMPDEST PUSH2 0x1F3E DUP2 PUSH2 0x25C0 JUMP JUMPDEST DUP5 ADD SWAP2 POP POP SWAP3 SWAP2 POP POP JUMP JUMPDEST PUSH1 0x0 PUSH2 0x1F54 DUP3 PUSH2 0x22DA JUMP JUMPDEST PUSH2 0x1F5E DUP2 DUP6 PUSH2 0x2314 JUMP JUMPDEST SWAP4 POP PUSH2 0x1F6E DUP2 DUP6 PUSH1 0x20 DUP7 ADD PUSH2 0x2411 JUMP JUMPDEST PUSH2 0x1F77 DUP2 PUSH2 0x25C0 JUMP JUMPDEST DUP5 ADD SWAP2 POP POP SWAP3 SWAP2 POP POP JUMP JUMPDEST PUSH1 0x0 PUSH2 0x1F8D DUP3 PUSH2 0x22DA JUMP JUMPDEST PUSH2 0x1F97 DUP2 DUP6 PUSH2 0x2325 JUMP JUMPDEST SWAP4 POP PUSH2 0x1FA7 DUP2 DUP6 PUSH1 0x20 DUP7 ADD PUSH2 0x2411 JUMP JUMPDEST DUP1 DUP5 ADD SWAP2 POP POP SWAP3 SWAP2 POP POP JUMP JUMPDEST PUSH1 0x0 DUP2 SLOAD PUSH2 0x1FC0 DUP2 PUSH2 0x2444 JUMP JUMPDEST PUSH2 0x1FCA DUP2 DUP7 PUSH2 0x2325 JUMP JUMPDEST SWAP5 POP PUSH1 0x1 DUP3 AND PUSH1 0x0 DUP2 EQ PUSH2 0x1FE5 JUMPI PUSH1 0x1 DUP2 EQ PUSH2 0x1FF6 JUMPI PUSH2 0x2029 JUMP JUMPDEST PUSH1 0xFF NOT DUP4 AND DUP7 MSTORE DUP2 DUP7 ADD SWAP4 POP PUSH2 0x2029 JUMP JUMPDEST PUSH2 0x1FFF DUP6 PUSH2 0x22BA JUMP JUMPDEST PUSH1 0x0 JUMPDEST DUP4 DUP2 LT ISZERO PUSH2 0x2021 JUMPI DUP2 SLOAD DUP2 DUP10 ADD MSTORE PUSH1 0x1 DUP3 ADD SWAP2 POP PUSH1 0x20 DUP2 ADD SWAP1 POP PUSH2 0x2002 JUMP JUMPDEST DUP4 DUP9 ADD SWAP6 POP POP POP JUMPDEST POP POP POP SWAP3 SWAP2 POP POP JUMP JUMPDEST PUSH1 0x0 PUSH2 0x203F PUSH1 0x10 DUP4 PUSH2 0x2314 JUMP JUMPDEST SWAP2 POP PUSH2 0x204A DUP3 PUSH2 0x25D1 JUMP JUMPDEST PUSH1 0x20 DUP3 ADD SWAP1 POP SWAP2 SWAP1 POP JUMP JUMPDEST PUSH1 0x0 PUSH2 0x2062 PUSH1 0x21 DUP4 PUSH2 0x2314 JUMP JUMPDEST SWAP2 POP PUSH2 0x206D DUP3 PUSH2 0x25FA JUMP JUMPDEST PUSH1 0x40 DUP3 ADD SWAP1 POP SWAP2 SWAP1 POP JUMP JUMPDEST PUSH2 0x2081 DUP2 PUSH2 0x23F8 JUMP JUMPDEST DUP3 MSTORE POP POP JUMP JUMPDEST PUSH1 0x0 PUSH2 0x2093 DUP3 DUP5 PUSH2 0x1F82 JUMP JUMPDEST SWAP2 POP DUP2 SWAP1 POP SWAP3 SWAP2 POP POP JUMP JUMPDEST PUSH1 0x0 PUSH2 0x20AA DUP3 DUP5 PUSH2 0x1FB3 JUMP JUMPDEST SWAP2 POP DUP2 SWAP1 POP SWAP3 SWAP2 POP POP JUMP JUMPDEST PUSH1 0x0 PUSH1 0x20 DUP3 ADD SWAP1 POP PUSH2 0x20CA PUSH1 0x0 DUP4 ADD DUP5 PUSH2 0x1E7D JUMP JUMPDEST SWAP3 SWAP2 POP POP JUMP JUMPDEST PUSH1 0x0 PUSH1 0x60 DUP3 ADD SWAP1 POP PUSH2 0x20E5 PUSH1 0x0 DUP4 ADD DUP7 PUSH2 0x1E7D JUMP JUMPDEST DUP2 DUP2 SUB PUSH1 0x20 DUP4 ADD MSTORE PUSH2 0x20F7 DUP2 DUP6 PUSH2 0x1F49 JUMP JUMPDEST SWAP1 POP PUSH2 0x2106 PUSH1 0x40 DUP4 ADD DUP5 PUSH2 0x1F01 JUMP JUMPDEST SWAP5 SWAP4 POP POP POP POP JUMP JUMPDEST PUSH1 0x0 PUSH1 0x80 DUP3 ADD SWAP1 POP PUSH2 0x2123 PUSH1 0x0 DUP4 ADD DUP8 PUSH2 0x1E7D JUMP JUMPDEST DUP2 DUP2 SUB PUSH1 0x20 DUP4 ADD MSTORE PUSH2 0x2135 DUP2 DUP7 PUSH2 0x1F49 JUMP JUMPDEST SWAP1 POP PUSH2 0x2144 PUSH1 0x40 DUP4 ADD DUP6 PUSH2 0x2078 JUMP JUMPDEST PUSH2 0x2151 PUSH1 0x60 DUP4 ADD DUP5 PUSH2 0x2078 JUMP JUMPDEST SWAP6 SWAP5 POP POP POP POP POP JUMP JUMPDEST PUSH1 0x0 PUSH1 0x20 DUP3 ADD SWAP1 POP DUP2 DUP2 SUB PUSH1 0x0 DUP4 ADD MSTORE PUSH2 0x2174 DUP2 DUP5 PUSH2 0x1E8C JUMP JUMPDEST SWAP1 POP SWAP3 SWAP2 POP POP JUMP JUMPDEST PUSH1 0x0 PUSH1 0x80 DUP3 ADD SWAP1 POP DUP2 DUP2 SUB PUSH1 0x0 DUP4 ADD MSTORE PUSH2 0x2196 DUP2 DUP8 PUSH2 0x1F49 JUMP JUMPDEST SWAP1 POP DUP2 DUP2 SUB PUSH1 0x20 DUP4 ADD MSTORE PUSH2 0x21AA DUP2 DUP7 PUSH2 0x1F49 JUMP JUMPDEST SWAP1 POP DUP2 DUP2 SUB PUSH1 0x40 DUP4 ADD MSTORE PUSH2 0x21BE DUP2 DUP6 PUSH2 0x1F49 JUMP JUMPDEST SWAP1 POP PUSH2 0x21CD PUSH1 0x60 DUP4 ADD DUP5 PUSH2 0x2078 JUMP JUMPDEST SWAP6 SWAP5 POP POP POP POP POP JUMP JUMPDEST PUSH1 0x0 PUSH1 0x60 DUP3 ADD SWAP1 POP DUP2 DUP2 SUB PUSH1 0x0 DUP4 ADD MSTORE PUSH2 0x21F0 DUP2 DUP7 PUSH2 0x1F49 JUMP JUMPDEST SWAP1 POP PUSH2 0x21FF PUSH1 0x20 DUP4 ADD DUP6 PUSH2 0x2078 JUMP JUMPDEST PUSH2 0x220C PUSH1 0x40 DUP4 ADD DUP5 PUSH2 0x2078 JUMP JUMPDEST SWAP5 SWAP4 POP POP POP POP JUMP JUMPDEST PUSH1 0x0 PUSH1 0x20 DUP3 ADD SWAP1 POP DUP2 DUP2 SUB PUSH1 0x0 DUP4 ADD MSTORE PUSH2 0x222D DUP2 PUSH2 0x2032 JUMP JUMPDEST SWAP1 POP SWAP2 SWAP1 POP JUMP JUMPDEST PUSH1 0x0 PUSH1 0x20 DUP3 ADD SWAP1 POP DUP2 DUP2 SUB PUSH1 0x0 DUP4 ADD MSTORE PUSH2 0x224D DUP2 PUSH2 0x2055 JUMP JUMPDEST SWAP1 POP SWAP2 SWAP1 POP JUMP JUMPDEST PUSH1 0x0 PUSH2 0x225E PUSH2 0x226F JUMP JUMPDEST SWAP1 POP PUSH2 0x226A DUP3 DUP3 PUSH2 0x2476 JUMP JUMPDEST SWAP2 SWAP1 POP JUMP JUMPDEST PUSH1 0x0 PUSH1 0x40 MLOAD SWAP1 POP SWAP1 JUMP JUMPDEST PUSH1 0x0 PUSH8 0xFFFFFFFFFFFFFFFF DUP3 GT ISZERO PUSH2 0x2294 JUMPI PUSH2 0x2293 PUSH2 0x257D JUMP JUMPDEST JUMPDEST PUSH2 0x229D DUP3 PUSH2 0x25C0 JUMP JUMPDEST SWAP1 POP PUSH1 0x20 DUP2 ADD SWAP1 POP SWAP2 SWAP1 POP JUMP JUMPDEST PUSH1 0x0 DUP2 SWAP1 POP PUSH1 0x20 DUP3 ADD SWAP1 POP SWAP2 SWAP1 POP JUMP JUMPDEST PUSH1 0x0 DUP2 SWAP1 POP DUP2 PUSH1 0x0 MSTORE PUSH1 0x20 PUSH1 0x0 KECCAK256 SWAP1 POP SWAP2 SWAP1 POP JUMP JUMPDEST PUSH1 0x0 DUP2 MLOAD SWAP1 POP SWAP2 SWAP1 POP JUMP JUMPDEST PUSH1 0x0 DUP2 MLOAD SWAP1 POP SWAP2 SWAP1 POP JUMP JUMPDEST PUSH1 0x0 PUSH1 0x20 DUP3 ADD SWAP1 POP SWAP2 SWAP1 POP JUMP JUMPDEST PUSH1 0x0 DUP3 DUP3 MSTORE PUSH1 0x20 DUP3 ADD SWAP1 POP SWAP3 SWAP2 POP POP JUMP JUMPDEST PUSH1 0x0 DUP3 DUP3 MSTORE PUSH1 0x20 DUP3 ADD SWAP1 POP SWAP3 SWAP2 POP POP JUMP JUMPDEST PUSH1 0x0 DUP3 DUP3 MSTORE PUSH1 0x20 DUP3 ADD SWAP1 POP SWAP3 SWAP2 POP POP JUMP JUMPDEST PUSH1 0x0 DUP2 SWAP1 POP SWAP3 SWAP2 POP POP JUMP JUMPDEST PUSH1 0x0 PUSH2 0x233B DUP3 PUSH2 0x23F8 JUMP JUMPDEST SWAP2 POP PUSH2 0x2346 DUP4 PUSH2 0x23F8 JUMP JUMPDEST SWAP3 POP DUP3 PUSH32 0xFFFFFFFFFFFFFFFFFFFFFFFFFFFFFFFFFFFFFFFFFFFFFFFFFFFFFFFFFFFFFFFF SUB DUP3 GT ISZERO PUSH2 0x237B JUMPI PUSH2 0x237A PUSH2 0x24F0 JUMP JUMPDEST JUMPDEST DUP3 DUP3 ADD SWAP1 POP SWAP3 SWAP2 POP POP JUMP JUMPDEST PUSH1 0x0 PUSH2 0x2391 DUP3 PUSH2 0x23F8 JUMP JUMPDEST SWAP2 POP PUSH2 0x239C DUP4 PUSH2 0x23F8 JUMP JUMPDEST SWAP3 POP DUP3 DUP3 LT ISZERO PUSH2 0x23AF JUMPI PUSH2 0x23AE PUSH2 0x24F0 JUMP JUMPDEST JUMPDEST DUP3 DUP3 SUB SWAP1 POP SWAP3 SWAP2 POP POP JUMP JUMPDEST PUSH1 0x0 PUSH2 0x23C5 DUP3 PUSH2 0x23D8 JUMP JUMPDEST SWAP1 POP SWAP2 SWAP1 POP JUMP JUMPDEST PUSH1 0x0 DUP2 ISZERO ISZERO SWAP1 POP SWAP2 SWAP1 POP JUMP JUMPDEST PUSH1 0x0 PUSH20 0xFFFFFFFFFFFFFFFFFFFFFFFFFFFFFFFFFFFFFFFF DUP3 AND SWAP1 POP SWAP2 SWAP1 POP JUMP JUMPDEST PUSH1 0x0 DUP2 SWAP1 POP SWAP2 SWAP1 POP JUMP JUMPDEST DUP3 DUP2 DUP4 CALLDATACOPY PUSH1 0x0 DUP4 DUP4 ADD MSTORE POP POP POP JUMP JUMPDEST PUSH1 0x0 JUMPDEST DUP4 DUP2 LT ISZERO PUSH2 0x242F JUMPI DUP1 DUP3 ADD MLOAD DUP2 DUP5 ADD MSTORE PUSH1 0x20 DUP2 ADD SWAP1 POP PUSH2 0x2414 JUMP JUMPDEST DUP4 DUP2 GT ISZERO PUSH2 0x243E JUMPI PUSH1 0x0 DUP5 DUP5 ADD MSTORE JUMPDEST POP POP POP POP JUMP JUMPDEST PUSH1 0x0 PUSH1 0x2 DUP3 DIV SWAP1 POP PUSH1 0x1 DUP3 AND DUP1 PUSH2 0x245C JUMPI PUSH1 0x7F DUP3 AND SWAP2 POP JUMPDEST PUSH1 0x20 DUP3 LT DUP2 EQ ISZERO PUSH2 0x2470 JUMPI PUSH2 0x246F PUSH2 0x251F JUMP JUMPDEST JUMPDEST POP SWAP2 SWAP1 POP JUMP JUMPDEST PUSH2 0x247F DUP3 PUSH2 0x25C0 JUMP JUMPDEST DUP2 ADD DUP2 DUP2 LT PUSH8 0xFFFFFFFFFFFFFFFF DUP3 GT OR ISZERO PUSH2 0x249E JUMPI PUSH2 0x249D PUSH2 0x257D JUMP JUMPDEST JUMPDEST DUP1 PUSH1 0x40 MSTORE POP POP POP JUMP JUMPDEST PUSH1 0x0 PUSH2 0x24B2 DUP3 PUSH2 0x23F8 JUMP JUMPDEST SWAP2 POP PUSH32 0xFFFFFFFFFFFFFFFFFFFFFFFFFFFFFFFFFFFFFFFFFFFFFFFFFFFFFFFFFFFFFFFF DUP3 EQ ISZERO PUSH2 0x24E5 JUMPI PUSH2 0x24E4 PUSH2 0x24F0 JUMP JUMPDEST JUMPDEST PUSH1 0x1 DUP3 ADD SWAP1 POP SWAP2 SWAP1 POP JUMP JUMPDEST PUSH32 0x4E487B7100000000000000000000000000000000000000000000000000000000 PUSH1 0x0 MSTORE PUSH1 0x11 PUSH1 0x4 MSTORE PUSH1 0x24 PUSH1 0x0 REVERT JUMPDEST PUSH32 0x4E487B7100000000000000000000000000000000000000000000000000000000 PUSH1 0x0 MSTORE PUSH1 0x22 PUSH1 0x4 MSTORE PUSH1 0x24 PUSH1 0x0 REVERT JUMPDEST PUSH32 0x4E487B7100000000000000000000000000000000000000000000000000000000 PUSH1 0x0 MSTORE PUSH1 0x32 PUSH1 0x4 MSTORE PUSH1 0x24 PUSH1 0x0 REVERT JUMPDEST PUSH32 0x4E487B7100000000000000000000000000000000000000000000000000000000 PUSH1 0x0 MSTORE PUSH1 0x41 PUSH1 0x4 MSTORE PUSH1 0x24 PUSH1 0x0 REVERT JUMPDEST PUSH1 0x0 DUP1 REVERT JUMPDEST PUSH1 0x0 DUP1 REVERT JUMPDEST PUSH1 0x0 DUP1 REVERT JUMPDEST PUSH1 0x0 DUP1 REVERT JUMPDEST PUSH1 0x0 PUSH1 0x1F NOT PUSH1 0x1F DUP4 ADD AND SWAP1 POP SWAP2 SWAP1 POP JUMP JUMPDEST PUSH32 0x6572726F723A206E6F74206D6F6E657900000000000000000000000000000000 PUSH1 0x0 DUP3 ADD MSTORE POP JUMP JUMPDEST PUSH32 0x6572726F723A20726174696E672063616E2062652066726F6D203120746F2031 PUSH1 0x0 DUP3 ADD MSTORE PUSH32 0x3000000000000000000000000000000000000000000000000000000000000000 PUSH1 0x20 DUP3 ADD MSTORE POP JUMP JUMPDEST PUSH2 0x2652 DUP2 PUSH2 0x23BA JUMP JUMPDEST DUP2 EQ PUSH2 0x265D JUMPI PUSH1 0x0 DUP1 REVERT JUMPDEST POP JUMP JUMPDEST PUSH2 0x2669 DUP2 PUSH2 0x23CC JUMP JUMPDEST DUP2 EQ PUSH2 0x2674 JUMPI PUSH1 0x0 DUP1 REVERT JUMPDEST POP JUMP JUMPDEST PUSH2 0x2680 DUP2 PUSH2 0x23F8 JUMP JUMPDEST DUP2 EQ PUSH2 0x268B JUMPI PUSH1 0x0 DUP1 REVERT JUMPDEST POP JUMP INVALID LOG2 PUSH5 0x6970667358 0x22 SLT KECCAK256 0xBE DUP3 0xD6 SWAP15 SWAP14 0x5F 0x2F 0x5F DUP11 JUMPI 0xA5 0xD7 PUSH5 0x6A6A79D1E 0xF8 AND SWAP3 MSIZE 0xE1 PUSH6 0x9689EA82040 0xE8 0x21 PUSH5 0x736F6C6343 STOP ADDMOD SMOD STOP CALLER "
				},
				"gasEstimates": {
					"creation": {
						"codeDepositCost": "1984800",
						"executionCost": "infinite",
						"totalCost": "infinite"
					},
					"external": {
						"MarriageRegistration(uint256,bool)": "infinite",
						"acceptPurchase(uint256,bool)": "infinite",
						"acceptReturn(uint256,bool)": "infinite",
						"addProductShop(string,uint256,string)": "infinite",
						"complaintBooks(uint256)": "infinite",
						"getProductList()": "infinite",
						"getShopList()": "infinite",
						"leaveFeedback(string,string,uint256)": "infinite",
						"productMarriageRegistration(string)": "infinite",
						"productPurchases(string)": "infinite",
						"productReturn(string)": "infinite",
						"shopLists(string)": "infinite",
						"structMarriageRegistrations(uint256)": "infinite",
						"structProducts(string)": "infinite",
						"structStatusPurchases(uint256)": "infinite",
						"structStatusReturns(uint256)": "infinite",
						"structUserLogins(string)": "infinite",
						"structUsers(address)": "infinite"
					}
				},
				"methodIdentifiers": {
					"MarriageRegistration(uint256,bool)": "f69483c1",
					"acceptPurchase(uint256,bool)": "0c72b1ec",
					"acceptReturn(uint256,bool)": "2ccdef7c",
					"addProductShop(string,uint256,string)": "6c05dd1d",
					"complaintBooks(uint256)": "08f4d2c6",
					"getProductList()": "34d2c0ad",
					"getShopList()": "c178b9af",
					"leaveFeedback(string,string,uint256)": "cc21c188",
					"productMarriageRegistration(string)": "2d4673e3",
					"productPurchases(string)": "146dc6ed",
					"productReturn(string)": "bbd43363",
					"shopLists(string)": "c4957fa0",
					"structMarriageRegistrations(uint256)": "7ddb273d",
					"structProducts(string)": "d68cf8c1",
					"structStatusPurchases(uint256)": "dce39151",
					"structStatusReturns(uint256)": "a9f9482b",
					"structUserLogins(string)": "1bbe970a",
					"structUsers(address)": "961865f0"
				}
			},
			"userdoc": {
				"kind": "user",
				"methods": {},
				"version": 1
			}
		}
	}
}