{
	"Documents/GitHub/Store-system-with-feedback/main.sol": {
		"coursepaper": {
			"abi": [
				{
					"inputs": [],
					"stateMutability": "nonpayable",
					"type": "constructor"
				},
				{
					"inputs": [
						{
							"internalType": "uint256",
							"name": "idMarriageRegistration",
							"type": "uint256"
						},
						{
							"internalType": "bool",
							"name": "confirmation",
							"type": "bool"
						}
					],
					"name": "MarriageRegistration",
					"outputs": [],
					"stateMutability": "nonpayable",
					"type": "function"
				},
				{
					"inputs": [
						{
							"internalType": "uint256",
							"name": "idPurchase",
							"type": "uint256"
						},
						{
							"internalType": "bool",
							"name": "confirmation",
							"type": "bool"
						}
					],
					"name": "acceptPurchase",
					"outputs": [],
					"stateMutability": "nonpayable",
					"type": "function"
				},
				{
					"inputs": [
						{
							"internalType": "uint256",
							"name": "idReturn",
							"type": "uint256"
						},
						{
							"internalType": "bool",
							"name": "confirmation",
							"type": "bool"
						}
					],
					"name": "acceptReturn",
					"outputs": [],
					"stateMutability": "nonpayable",
					"type": "function"
				},
				{
					"inputs": [
						{
							"internalType": "string",
							"name": "title",
							"type": "string"
						},
						{
							"internalType": "uint256",
							"name": "price",
							"type": "uint256"
						},
						{
							"internalType": "string",
							"name": "description",
							"type": "string"
						}
					],
					"name": "addProductShop",
					"outputs": [],
					"stateMutability": "nonpayable",
					"type": "function"
				},
				{
					"inputs": [
						{
							"internalType": "string",
							"name": "login",
							"type": "string"
						}
					],
					"name": "check_logged",
					"outputs": [
						{
							"internalType": "bool",
							"name": "",
							"type": "bool"
						}
					],
					"stateMutability": "view",
					"type": "function"
				},
				{
					"inputs": [
						{
							"internalType": "address",
							"name": "addr",
							"type": "address"
						},
						{
							"internalType": "string",
							"name": "login",
							"type": "string"
						},
						{
							"internalType": "bytes32",
							"name": "password",
							"type": "bytes32"
						}
					],
					"name": "create_user",
					"outputs": [],
					"stateMutability": "nonpayable",
					"type": "function"
				},
				{
					"inputs": [],
					"name": "getProductList",
					"outputs": [
						{
							"internalType": "string[]",
							"name": "",
							"type": "string[]"
						}
					],
					"stateMutability": "view",
					"type": "function"
				},
				{
					"inputs": [],
					"name": "getShopList",
					"outputs": [
						{
							"internalType": "string[]",
							"name": "",
							"type": "string[]"
						}
					],
					"stateMutability": "view",
					"type": "function"
				},
				{
					"inputs": [
						{
							"internalType": "string",
							"name": "shopName",
							"type": "string"
						}
					],
					"name": "getStoryRating",
					"outputs": [
						{
							"internalType": "uint256",
							"name": "",
							"type": "uint256"
						}
					],
					"stateMutability": "view",
					"type": "function"
				},
				{
					"inputs": [
						{
							"internalType": "string",
							"name": "login",
							"type": "string"
						}
					],
					"name": "get_address",
					"outputs": [
						{
							"internalType": "address",
							"name": "",
							"type": "address"
						}
					],
					"stateMutability": "view",
					"type": "function"
				},
				{
					"inputs": [
						{
							"internalType": "string",
							"name": "password",
							"type": "string"
						}
					],
					"name": "get_hash",
					"outputs": [
						{
							"internalType": "bytes32",
							"name": "",
							"type": "bytes32"
						}
					],
					"stateMutability": "pure",
					"type": "function"
				},
				{
					"inputs": [
						{
							"internalType": "string",
							"name": "userName",
							"type": "string"
						},
						{
							"internalType": "string[]",
							"name": "comment",
							"type": "string[]"
						}
					],
					"name": "leaveComment",
					"outputs": [],
					"stateMutability": "nonpayable",
					"type": "function"
				},
				{
					"inputs": [
						{
							"internalType": "string",
							"name": "shop",
							"type": "string"
						},
						{
							"internalType": "string",
							"name": "feedback",
							"type": "string"
						},
						{
							"internalType": "uint256",
							"name": "rating",
							"type": "uint256"
						}
					],
					"name": "leaveFeedback",
					"outputs": [],
					"stateMutability": "nonpayable",
					"type": "function"
				},
				{
					"inputs": [
						{
							"internalType": "string",
							"name": "login",
							"type": "string"
						},
						{
							"internalType": "bytes32",
							"name": "password",
							"type": "bytes32"
						}
					],
					"name": "login_user",
					"outputs": [],
					"stateMutability": "nonpayable",
					"type": "function"
				},
				{
					"inputs": [
						{
							"internalType": "string",
							"name": "titleProduct",
							"type": "string"
						}
					],
					"name": "productMarriageRegistration",
					"outputs": [],
					"stateMutability": "nonpayable",
					"type": "function"
				},
				{
					"inputs": [
						{
							"internalType": "string",
							"name": "titleProduct",
							"type": "string"
						}
					],
					"name": "productPurchases",
					"outputs": [],
					"stateMutability": "nonpayable",
					"type": "function"
				},
				{
					"inputs": [
						{
							"internalType": "string",
							"name": "titleProduct",
							"type": "string"
						}
					],
					"name": "productReturn",
					"outputs": [],
					"stateMutability": "nonpayable",
					"type": "function"
				},
				{
					"inputs": [
						{
							"internalType": "string",
							"name": "",
							"type": "string"
						}
					],
					"name": "shopLists",
					"outputs": [
						{
							"internalType": "address",
							"name": "",
							"type": "address"
						}
					],
					"stateMutability": "view",
					"type": "function"
				},
				{
					"inputs": [
						{
							"internalType": "uint256",
							"name": "",
							"type": "uint256"
						}
					],
					"name": "structMarriageRegistrations",
					"outputs": [
						{
							"internalType": "address",
							"name": "userLogin",
							"type": "address"
						},
						{
							"internalType": "string",
							"name": "titleProduct",
							"type": "string"
						},
						{
							"internalType": "bool",
							"name": "status",
							"type": "bool"
						}
					],
					"stateMutability": "view",
					"type": "function"
				},
				{
					"inputs": [
						{
							"internalType": "string",
							"name": "",
							"type": "string"
						}
					],
					"name": "structProducts",
					"outputs": [
						{
							"internalType": "address",
							"name": "shop",
							"type": "address"
						},
						{
							"internalType": "string",
							"name": "description",
							"type": "string"
						},
						{
							"internalType": "uint256",
							"name": "price",
							"type": "uint256"
						},
						{
							"internalType": "uint256",
							"name": "id",
							"type": "uint256"
						}
					],
					"stateMutability": "view",
					"type": "function"
				},
				{
					"inputs": [
						{
							"internalType": "uint256",
							"name": "",
							"type": "uint256"
						}
					],
					"name": "structStatusPurchases",
					"outputs": [
						{
							"internalType": "address",
							"name": "userLogin",
							"type": "address"
						},
						{
							"internalType": "string",
							"name": "titleProduct",
							"type": "string"
						},
						{
							"internalType": "bool",
							"name": "status",
							"type": "bool"
						}
					],
					"stateMutability": "view",
					"type": "function"
				},
				{
					"inputs": [
						{
							"internalType": "uint256",
							"name": "",
							"type": "uint256"
						}
					],
					"name": "structStatusReturns",
					"outputs": [
						{
							"internalType": "address",
							"name": "userLogin",
							"type": "address"
						},
						{
							"internalType": "string",
							"name": "titleProduct",
							"type": "string"
						},
						{
							"internalType": "bool",
							"name": "status",
							"type": "bool"
						}
					],
					"stateMutability": "view",
					"type": "function"
				},
				{
					"inputs": [
						{
							"internalType": "string",
							"name": "",
							"type": "string"
						}
					],
					"name": "structUserLogins",
					"outputs": [
						{
							"internalType": "address",
							"name": "",
							"type": "address"
						}
					],
					"stateMutability": "view",
					"type": "function"
				},
				{
					"inputs": [
						{
							"internalType": "address",
							"name": "",
							"type": "address"
						}
					],
					"name": "structUsers",
					"outputs": [
						{
							"internalType": "string",
							"name": "userName",
							"type": "string"
						},
						{
							"internalType": "bytes32",
							"name": "password",
							"type": "bytes32"
						},
						{
							"internalType": "uint256",
							"name": "ballance",
							"type": "uint256"
						},
						{
							"internalType": "uint256",
							"name": "role",
							"type": "uint256"
						},
						{
							"internalType": "bool",
							"name": "logged",
							"type": "bool"
						}
					],
					"stateMutability": "view",
					"type": "function"
				}
			],
			"devdoc": {
				"kind": "dev",
				"methods": {},
				"version": 1
			},
			"evm": {
				"assembly": "    /* \"Documents/GitHub/Store-system-with-feedback/main.sol\":74:9526  contract coursepaper {\r... */\n  mstore(0x40, 0x80)\n    /* \"Documents/GitHub/Store-system-with-feedback/main.sol\":3278:3279  0 */\n  0x00\n    /* \"Documents/GitHub/Store-system-with-feedback/main.sol\":3243:3279  uint256 addProductShop_idProduct = 0 */\n  0x0d\n  sstore\n    /* \"Documents/GitHub/Store-system-with-feedback/main.sol\":129:916  constructor() public {\r... */\n  callvalue\n  dup1\n  iszero\n  tag_1\n  jumpi\n  0x00\n  dup1\n  revert\ntag_1:\n  pop\n    /* \"Documents/GitHub/Store-system-with-feedback/main.sol\":232:289  structShop(\"Food\", get_hash(\"1\"), \"1\", \"Moscow\", 1000, 0) */\n  mload(0x40)\n  dup1\n  0xc0\n  add\n  0x40\n  mstore\n  dup1\n  mload(0x40)\n  dup1\n  0x40\n  add\n  0x40\n  mstore\n  dup1\n  0x04\n  dup2\n  mstore\n  0x20\n  add\n  0x466f6f6400000000000000000000000000000000000000000000000000000000\n  dup2\n  mstore\n  pop\n  dup2\n  mstore\n  0x20\n  add\n    /* \"Documents/GitHub/Store-system-with-feedback/main.sol\":251:264  get_hash(\"1\") */\n  tag_4\n  mload(0x40)\n  dup1\n  0x40\n  add\n  0x40\n  mstore\n  dup1\n  0x01\n  dup2\n  mstore\n  0x20\n  add\n  0x3100000000000000000000000000000000000000000000000000000000000000\n  dup2\n  mstore\n  pop\n    /* \"Documents/GitHub/Store-system-with-feedback/main.sol\":251:259  get_hash */\n  shl(0x20, tag_5)\n    /* \"Documents/GitHub/Store-system-with-feedback/main.sol\":251:264  get_hash(\"1\") */\n  0x20\n  shr\n  jump\t// in\ntag_4:\n    /* \"Documents/GitHub/Store-system-with-feedback/main.sol\":232:289  structShop(\"Food\", get_hash(\"1\"), \"1\", \"Moscow\", 1000, 0) */\n  dup2\n  mstore\n  0x20\n  add\n  mload(0x40)\n  dup1\n  0x40\n  add\n  0x40\n  mstore\n  dup1\n  0x01\n  dup2\n  mstore\n  0x20\n  add\n  0x3100000000000000000000000000000000000000000000000000000000000000\n  dup2\n  mstore\n  pop\n  dup2\n  mstore\n  0x20\n  add\n  mload(0x40)\n  dup1\n  0x40\n  add\n  0x40\n  mstore\n  dup1\n  0x06\n  dup2\n  mstore\n  0x20\n  add\n  0x4d6f73636f770000000000000000000000000000000000000000000000000000\n  dup2\n  mstore\n  pop\n  dup2\n  mstore\n  0x20\n  add\n    /* \"Documents/GitHub/Store-system-with-feedback/main.sol\":281:285  1000 */\n  0x03e8\n    /* \"Documents/GitHub/Store-system-with-feedback/main.sol\":232:289  structShop(\"Food\", get_hash(\"1\"), \"1\", \"Moscow\", 1000, 0) */\n  dup2\n  mstore\n  0x20\n  add\n    /* \"Documents/GitHub/Store-system-with-feedback/main.sol\":287:288  0 */\n  0x00\n    /* \"Documents/GitHub/Store-system-with-feedback/main.sol\":232:289  structShop(\"Food\", get_hash(\"1\"), \"1\", \"Moscow\", 1000, 0) */\n  dup2\n  mstore\n  pop\n    /* \"Documents/GitHub/Store-system-with-feedback/main.sol\":180:185  shops */\n  0x00\n    /* \"Documents/GitHub/Store-system-with-feedback/main.sol\":180:229  shops[0x22140e5EEE5a0341a107bd6A65ee0F5BB72DEb90] */\n  dup1\n    /* \"Documents/GitHub/Store-system-with-feedback/main.sol\":186:228  0x22140e5EEE5a0341a107bd6A65ee0F5BB72DEb90 */\n  0x22140e5eee5a0341a107bd6a65ee0f5bb72deb90\n    /* \"Documents/GitHub/Store-system-with-feedback/main.sol\":180:229  shops[0x22140e5EEE5a0341a107bd6A65ee0F5BB72DEb90] */\n  0xffffffffffffffffffffffffffffffffffffffff\n  and\n  0xffffffffffffffffffffffffffffffffffffffff\n  and\n  dup2\n  mstore\n  0x20\n  add\n  swap1\n  dup2\n  mstore\n  0x20\n  add\n  0x00\n  keccak256\n    /* \"Documents/GitHub/Store-system-with-feedback/main.sol\":180:289  shops[0x22140e5EEE5a0341a107bd6A65ee0F5BB72DEb90] = structShop(\"Food\", get_hash(\"1\"), \"1\", \"Moscow\", 1000, 0) */\n  0x00\n  dup3\n  add\n  mload\n  dup2\n  0x00\n  add\n  swap1\n  dup1\n  mload\n  swap1\n  0x20\n  add\n  swap1\n  tag_6\n  swap3\n  swap2\n  swap1\n  tag_7\n  jump\t// in\ntag_6:\n  pop\n  0x20\n  dup3\n  add\n  mload\n  dup2\n  0x01\n  add\n  sstore\n  0x40\n  dup3\n  add\n  mload\n  dup2\n  0x02\n  add\n  swap1\n  dup1\n  mload\n  swap1\n  0x20\n  add\n  swap1\n  tag_8\n  swap3\n  swap2\n  swap1\n  tag_7\n  jump\t// in\ntag_8:\n  pop\n  0x60\n  dup3\n  add\n  mload\n  dup2\n  0x03\n  add\n  swap1\n  dup1\n  mload\n  swap1\n  0x20\n  add\n  swap1\n  tag_9\n  swap3\n  swap2\n  swap1\n  tag_7\n  jump\t// in\ntag_9:\n  pop\n  0x80\n  dup3\n  add\n  mload\n  dup2\n  0x04\n  add\n  sstore\n  0xa0\n  dup3\n  add\n  mload\n  dup2\n  0x05\n  add\n  sstore\n  swap1\n  pop\n  pop\n    /* \"Documents/GitHub/Store-system-with-feedback/main.sol\":300:308  shopList */\n  0x02\n    /* \"Documents/GitHub/Store-system-with-feedback/main.sol\":314:319  shops */\n  0x00\n    /* \"Documents/GitHub/Store-system-with-feedback/main.sol\":314:363  shops[0x22140e5EEE5a0341a107bd6A65ee0F5BB72DEb90] */\n  dup1\n    /* \"Documents/GitHub/Store-system-with-feedback/main.sol\":320:362  0x22140e5EEE5a0341a107bd6A65ee0F5BB72DEb90 */\n  0x22140e5eee5a0341a107bd6a65ee0f5bb72deb90\n    /* \"Documents/GitHub/Store-system-with-feedback/main.sol\":314:363  shops[0x22140e5EEE5a0341a107bd6A65ee0F5BB72DEb90] */\n  0xffffffffffffffffffffffffffffffffffffffff\n  and\n  0xffffffffffffffffffffffffffffffffffffffff\n  and\n  dup2\n  mstore\n  0x20\n  add\n  swap1\n  dup2\n  mstore\n  0x20\n  add\n  0x00\n  keccak256\n    /* \"Documents/GitHub/Store-system-with-feedback/main.sol\":314:368  shops[0x22140e5EEE5a0341a107bd6A65ee0F5BB72DEb90].name */\n  0x00\n  add\n    /* \"Documents/GitHub/Store-system-with-feedback/main.sol\":300:369  shopList.push(shops[0x22140e5EEE5a0341a107bd6A65ee0F5BB72DEb90].name) */\n  swap1\n  dup1\n  0x01\n  dup2\n  sload\n  add\n  dup1\n  dup3\n  sstore\n  dup1\n  swap2\n  pop\n  pop\n  0x01\n  swap1\n  sub\n  swap1\n  0x00\n  mstore\n  keccak256(0x00, 0x20)\n  add\n  0x00\n  swap1\n  swap2\n  swap1\n  swap2\n  swap1\n  swap2\n  pop\n  swap1\n  dup1\n  sload\n  tag_11\n  swap1\n  tag_12\n  jump\t// in\ntag_11:\n  tag_13\n  swap3\n  swap2\n  swap1\n  tag_14\n  jump\t// in\ntag_13:\n  pop\n    /* \"Documents/GitHub/Store-system-with-feedback/main.sol\":432:496  structShop(\"Clothes\", get_hash(\"1\"), \"2\", \"Petersburg\", 1000, 0) */\n  mload(0x40)\n  dup1\n  0xc0\n  add\n  0x40\n  mstore\n  dup1\n  mload(0x40)\n  dup1\n  0x40\n  add\n  0x40\n  mstore\n  dup1\n  0x07\n  dup2\n  mstore\n  0x20\n  add\n  0x436c6f7468657300000000000000000000000000000000000000000000000000\n  dup2\n  mstore\n  pop\n  dup2\n  mstore\n  0x20\n  add\n    /* \"Documents/GitHub/Store-system-with-feedback/main.sol\":454:467  get_hash(\"1\") */\n  tag_15\n  mload(0x40)\n  dup1\n  0x40\n  add\n  0x40\n  mstore\n  dup1\n  0x01\n  dup2\n  mstore\n  0x20\n  add\n  0x3100000000000000000000000000000000000000000000000000000000000000\n  dup2\n  mstore\n  pop\n    /* \"Documents/GitHub/Store-system-with-feedback/main.sol\":454:462  get_hash */\n  shl(0x20, tag_5)\n    /* \"Documents/GitHub/Store-system-with-feedback/main.sol\":454:467  get_hash(\"1\") */\n  0x20\n  shr\n  jump\t// in\ntag_15:\n    /* \"Documents/GitHub/Store-system-with-feedback/main.sol\":432:496  structShop(\"Clothes\", get_hash(\"1\"), \"2\", \"Petersburg\", 1000, 0) */\n  dup2\n  mstore\n  0x20\n  add\n  mload(0x40)\n  dup1\n  0x40\n  add\n  0x40\n  mstore\n  dup1\n  0x01\n  dup2\n  mstore\n  0x20\n  add\n  0x3200000000000000000000000000000000000000000000000000000000000000\n  dup2\n  mstore\n  pop\n  dup2\n  mstore\n  0x20\n  add\n  mload(0x40)\n  dup1\n  0x40\n  add\n  0x40\n  mstore\n  dup1\n  0x0a\n  dup2\n  mstore\n  0x20\n  add\n  0x5065746572736275726700000000000000000000000000000000000000000000\n  dup2\n  mstore\n  pop\n  dup2\n  mstore\n  0x20\n  add\n    /* \"Documents/GitHub/Store-system-with-feedback/main.sol\":488:492  1000 */\n  0x03e8\n    /* \"Documents/GitHub/Store-system-with-feedback/main.sol\":432:496  structShop(\"Clothes\", get_hash(\"1\"), \"2\", \"Petersburg\", 1000, 0) */\n  dup2\n  mstore\n  0x20\n  add\n    /* \"Documents/GitHub/Store-system-with-feedback/main.sol\":494:495  0 */\n  0x00\n    /* \"Documents/GitHub/Store-system-with-feedback/main.sol\":432:496  structShop(\"Clothes\", get_hash(\"1\"), \"2\", \"Petersburg\", 1000, 0) */\n  dup2\n  mstore\n  pop\n    /* \"Documents/GitHub/Store-system-with-feedback/main.sol\":380:385  shops */\n  0x00\n    /* \"Documents/GitHub/Store-system-with-feedback/main.sol\":380:429  shops[0x32BBfd99DFCF2a15c1D278a19856683930A8be0B] */\n  dup1\n    /* \"Documents/GitHub/Store-system-with-feedback/main.sol\":386:428  0x32BBfd99DFCF2a15c1D278a19856683930A8be0B */\n  0x32bbfd99dfcf2a15c1d278a19856683930a8be0b\n    /* \"Documents/GitHub/Store-system-with-feedback/main.sol\":380:429  shops[0x32BBfd99DFCF2a15c1D278a19856683930A8be0B] */\n  0xffffffffffffffffffffffffffffffffffffffff\n  and\n  0xffffffffffffffffffffffffffffffffffffffff\n  and\n  dup2\n  mstore\n  0x20\n  add\n  swap1\n  dup2\n  mstore\n  0x20\n  add\n  0x00\n  keccak256\n    /* \"Documents/GitHub/Store-system-with-feedback/main.sol\":380:496  shops[0x32BBfd99DFCF2a15c1D278a19856683930A8be0B] = structShop(\"Clothes\", get_hash(\"1\"), \"2\", \"Petersburg\", 1000, 0) */\n  0x00\n  dup3\n  add\n  mload\n  dup2\n  0x00\n  add\n  swap1\n  dup1\n  mload\n  swap1\n  0x20\n  add\n  swap1\n  tag_16\n  swap3\n  swap2\n  swap1\n  tag_7\n  jump\t// in\ntag_16:\n  pop\n  0x20\n  dup3\n  add\n  mload\n  dup2\n  0x01\n  add\n  sstore\n  0x40\n  dup3\n  add\n  mload\n  dup2\n  0x02\n  add\n  swap1\n  dup1\n  mload\n  swap1\n  0x20\n  add\n  swap1\n  tag_17\n  swap3\n  swap2\n  swap1\n  tag_7\n  jump\t// in\ntag_17:\n  pop\n  0x60\n  dup3\n  add\n  mload\n  dup2\n  0x03\n  add\n  swap1\n  dup1\n  mload\n  swap1\n  0x20\n  add\n  swap1\n  tag_18\n  swap3\n  swap2\n  swap1\n  tag_7\n  jump\t// in\ntag_18:\n  pop\n  0x80\n  dup3\n  add\n  mload\n  dup2\n  0x04\n  add\n  sstore\n  0xa0\n  dup3\n  add\n  mload\n  dup2\n  0x05\n  add\n  sstore\n  swap1\n  pop\n  pop\n    /* \"Documents/GitHub/Store-system-with-feedback/main.sol\":507:515  shopList */\n  0x02\n    /* \"Documents/GitHub/Store-system-with-feedback/main.sol\":521:526  shops */\n  0x00\n    /* \"Documents/GitHub/Store-system-with-feedback/main.sol\":521:570  shops[0x32BBfd99DFCF2a15c1D278a19856683930A8be0B] */\n  dup1\n    /* \"Documents/GitHub/Store-system-with-feedback/main.sol\":527:569  0x32BBfd99DFCF2a15c1D278a19856683930A8be0B */\n  0x32bbfd99dfcf2a15c1d278a19856683930a8be0b\n    /* \"Documents/GitHub/Store-system-with-feedback/main.sol\":521:570  shops[0x32BBfd99DFCF2a15c1D278a19856683930A8be0B] */\n  0xffffffffffffffffffffffffffffffffffffffff\n  and\n  0xffffffffffffffffffffffffffffffffffffffff\n  and\n  dup2\n  mstore\n  0x20\n  add\n  swap1\n  dup2\n  mstore\n  0x20\n  add\n  0x00\n  keccak256\n    /* \"Documents/GitHub/Store-system-with-feedback/main.sol\":521:575  shops[0x32BBfd99DFCF2a15c1D278a19856683930A8be0B].name */\n  0x00\n  add\n    /* \"Documents/GitHub/Store-system-with-feedback/main.sol\":507:576  shopList.push(shops[0x32BBfd99DFCF2a15c1D278a19856683930A8be0B].name) */\n  swap1\n  dup1\n  0x01\n  dup2\n  sload\n  add\n  dup1\n  dup3\n  sstore\n  dup1\n  swap2\n  pop\n  pop\n  0x01\n  swap1\n  sub\n  swap1\n  0x00\n  mstore\n  keccak256(0x00, 0x20)\n  add\n  0x00\n  swap1\n  swap2\n  swap1\n  swap2\n  swap1\n  swap2\n  pop\n  swap1\n  dup1\n  sload\n  tag_20\n  swap1\n  tag_12\n  jump\t// in\ntag_20:\n  tag_21\n  swap3\n  swap2\n  swap1\n  tag_14\n  jump\t// in\ntag_21:\n  pop\n    /* \"Documents/GitHub/Store-system-with-feedback/main.sol\":632:674  0xC152aD455B16d865F2344140dEc6Ea95cb361e8A */\n  0xc152ad455b16d865f2344140dec6ea95cb361e8a\n    /* \"Documents/GitHub/Store-system-with-feedback/main.sol\":605:621  structUserLogins */\n  0x05\n    /* \"Documents/GitHub/Store-system-with-feedback/main.sol\":605:629  structUserLogins[\"Peta\"] */\n  mload(0x40)\n  tag_22\n  swap1\n  tag_23\n  jump\t// in\ntag_22:\n  swap1\n  dup2\n  mstore\n  0x20\n  add\n  mload(0x40)\n  dup1\n  swap2\n  sub\n  swap1\n  keccak256\n  0x00\n    /* \"Documents/GitHub/Store-system-with-feedback/main.sol\":605:674  structUserLogins[\"Peta\"] = 0xC152aD455B16d865F2344140dEc6Ea95cb361e8A */\n  0x0100\n  exp\n  dup2\n  sload\n  dup2\n  0xffffffffffffffffffffffffffffffffffffffff\n  mul\n  not\n  and\n  swap1\n  dup4\n  0xffffffffffffffffffffffffffffffffffffffff\n  and\n  mul\n  or\n  swap1\n  sstore\n  pop\n    /* \"Documents/GitHub/Store-system-with-feedback/main.sol\":743:793  structUser(\"Peta\" , get_hash(\"2\"), 1000, 0, false) */\n  mload(0x40)\n  dup1\n  0xa0\n  add\n  0x40\n  mstore\n  dup1\n  mload(0x40)\n  dup1\n  0x40\n  add\n  0x40\n  mstore\n  dup1\n  0x04\n  dup2\n  mstore\n  0x20\n  add\n  0x5065746100000000000000000000000000000000000000000000000000000000\n  dup2\n  mstore\n  pop\n  dup2\n  mstore\n  0x20\n  add\n    /* \"Documents/GitHub/Store-system-with-feedback/main.sol\":763:776  get_hash(\"2\") */\n  tag_24\n  mload(0x40)\n  dup1\n  0x40\n  add\n  0x40\n  mstore\n  dup1\n  0x01\n  dup2\n  mstore\n  0x20\n  add\n  0x3200000000000000000000000000000000000000000000000000000000000000\n  dup2\n  mstore\n  pop\n    /* \"Documents/GitHub/Store-system-with-feedback/main.sol\":763:771  get_hash */\n  shl(0x20, tag_5)\n    /* \"Documents/GitHub/Store-system-with-feedback/main.sol\":763:776  get_hash(\"2\") */\n  0x20\n  shr\n  jump\t// in\ntag_24:\n    /* \"Documents/GitHub/Store-system-with-feedback/main.sol\":743:793  structUser(\"Peta\" , get_hash(\"2\"), 1000, 0, false) */\n  dup2\n  mstore\n  0x20\n  add\n    /* \"Documents/GitHub/Store-system-with-feedback/main.sol\":778:782  1000 */\n  0x03e8\n    /* \"Documents/GitHub/Store-system-with-feedback/main.sol\":743:793  structUser(\"Peta\" , get_hash(\"2\"), 1000, 0, false) */\n  dup2\n  mstore\n  0x20\n  add\n    /* \"Documents/GitHub/Store-system-with-feedback/main.sol\":784:785  0 */\n  0x00\n    /* \"Documents/GitHub/Store-system-with-feedback/main.sol\":743:793  structUser(\"Peta\" , get_hash(\"2\"), 1000, 0, false) */\n  dup2\n  mstore\n  0x20\n  add\n    /* \"Documents/GitHub/Store-system-with-feedback/main.sol\":787:792  false */\n  0x00\n    /* \"Documents/GitHub/Store-system-with-feedback/main.sol\":743:793  structUser(\"Peta\" , get_hash(\"2\"), 1000, 0, false) */\n  iszero\n  iszero\n  dup2\n  mstore\n  pop\n    /* \"Documents/GitHub/Store-system-with-feedback/main.sol\":685:696  structUsers */\n  0x04\n    /* \"Documents/GitHub/Store-system-with-feedback/main.sol\":685:740  structUsers[0xC152aD455B16d865F2344140dEc6Ea95cb361e8A] */\n  0x00\n    /* \"Documents/GitHub/Store-system-with-feedback/main.sol\":697:739  0xC152aD455B16d865F2344140dEc6Ea95cb361e8A */\n  0xc152ad455b16d865f2344140dec6ea95cb361e8a\n    /* \"Documents/GitHub/Store-system-with-feedback/main.sol\":685:740  structUsers[0xC152aD455B16d865F2344140dEc6Ea95cb361e8A] */\n  0xffffffffffffffffffffffffffffffffffffffff\n  and\n  0xffffffffffffffffffffffffffffffffffffffff\n  and\n  dup2\n  mstore\n  0x20\n  add\n  swap1\n  dup2\n  mstore\n  0x20\n  add\n  0x00\n  keccak256\n    /* \"Documents/GitHub/Store-system-with-feedback/main.sol\":685:793  structUsers[0xC152aD455B16d865F2344140dEc6Ea95cb361e8A] = structUser(\"Peta\" , get_hash(\"2\"), 1000, 0, false) */\n  0x00\n  dup3\n  add\n  mload\n  dup2\n  0x00\n  add\n  swap1\n  dup1\n  mload\n  swap1\n  0x20\n  add\n  swap1\n  tag_25\n  swap3\n  swap2\n  swap1\n  tag_7\n  jump\t// in\ntag_25:\n  pop\n  0x20\n  dup3\n  add\n  mload\n  dup2\n  0x01\n  add\n  sstore\n  0x40\n  dup3\n  add\n  mload\n  dup2\n  0x02\n  add\n  sstore\n  0x60\n  dup3\n  add\n  mload\n  dup2\n  0x03\n  add\n  sstore\n  0x80\n  dup3\n  add\n  mload\n  dup2\n  0x04\n  add\n  exp(0x0100, 0x00)\n  dup2\n  sload\n  dup2\n  0xff\n  mul\n  not\n  and\n  swap1\n  dup4\n  iszero\n  iszero\n  mul\n  or\n  swap1\n  sstore\n  pop\n  swap1\n  pop\n  pop\n    /* \"Documents/GitHub/Store-system-with-feedback/main.sol\":804:819  userLoginsArray */\n  0x06\n    /* \"Documents/GitHub/Store-system-with-feedback/main.sol\":804:832  userLoginsArray.push(\"Peta\") */\n  dup1\n  0x01\n  dup2\n  sload\n  add\n  dup1\n  dup3\n  sstore\n  dup1\n  swap2\n  pop\n  pop\n  0x01\n  swap1\n  sub\n  swap1\n  0x00\n  mstore\n  keccak256(0x00, 0x20)\n  add\n  0x00\n  mload(0x40)\n  dup1\n  0x40\n  add\n  0x40\n  mstore\n  dup1\n  0x04\n  dup2\n  mstore\n  0x20\n  add\n  0x5065746100000000000000000000000000000000000000000000000000000000\n  dup2\n  mstore\n  pop\n  swap1\n  swap2\n  swap1\n  swap2\n  pop\n  swap1\n  dup1\n  mload\n  swap1\n  0x20\n  add\n  swap1\n  tag_27\n  swap3\n  swap2\n  swap1\n  tag_7\n  jump\t// in\ntag_27:\n  pop\n    /* \"Documents/GitHub/Store-system-with-feedback/main.sol\":843:859  userAddressArray */\n  0x07\n    /* \"Documents/GitHub/Store-system-with-feedback/main.sol\":865:907  0xC152aD455B16d865F2344140dEc6Ea95cb361e8A */\n  0xc152ad455b16d865f2344140dec6ea95cb361e8a\n    /* \"Documents/GitHub/Store-system-with-feedback/main.sol\":843:908  userAddressArray.push(0xC152aD455B16d865F2344140dEc6Ea95cb361e8A) */\n  swap1\n  dup1\n  0x01\n  dup2\n  sload\n  add\n  dup1\n  dup3\n  sstore\n  dup1\n  swap2\n  pop\n  pop\n  0x01\n  swap1\n  sub\n  swap1\n  0x00\n  mstore\n  keccak256(0x00, 0x20)\n  add\n  0x00\n  swap1\n  swap2\n  swap1\n  swap2\n  swap1\n  swap2\n  0x0100\n  exp\n  dup2\n  sload\n  dup2\n  0xffffffffffffffffffffffffffffffffffffffff\n  mul\n  not\n  and\n  swap1\n  dup4\n  0xffffffffffffffffffffffffffffffffffffffff\n  and\n  mul\n  or\n  swap1\n  sstore\n  pop\n    /* \"Documents/GitHub/Store-system-with-feedback/main.sol\":74:9526  contract coursepaper {\r... */\n  jump(tag_29)\n    /* \"Documents/GitHub/Store-system-with-feedback/main.sol\":961:1104  function get_hash(string memory password) public pure returns(bytes32) {\r... */\ntag_5:\n    /* \"Documents/GitHub/Store-system-with-feedback/main.sol\":1023:1030  bytes32 */\n  0x00\n    /* \"Documents/GitHub/Store-system-with-feedback/main.sol\":1081:1089  password */\n  dup2\n    /* \"Documents/GitHub/Store-system-with-feedback/main.sol\":1064:1090  abi.encodePacked(password) */\n  add(0x20, mload(0x40))\n  tag_31\n  swap2\n  swap1\n  tag_32\n  jump\t// in\ntag_31:\n  mload(0x40)\n  0x20\n  dup2\n  dup4\n  sub\n  sub\n  dup2\n  mstore\n  swap1\n  0x40\n  mstore\n    /* \"Documents/GitHub/Store-system-with-feedback/main.sol\":1054:1091  keccak256(abi.encodePacked(password)) */\n  dup1\n  mload\n  swap1\n  0x20\n  add\n  keccak256\n    /* \"Documents/GitHub/Store-system-with-feedback/main.sol\":1047:1092  return(keccak256(abi.encodePacked(password))) */\n  swap1\n  pop\n    /* \"Documents/GitHub/Store-system-with-feedback/main.sol\":961:1104  function get_hash(string memory password) public pure returns(bytes32) {\r... */\n  swap2\n  swap1\n  pop\n  jump\t// out\n    /* \"Documents/GitHub/Store-system-with-feedback/main.sol\":74:9526  contract coursepaper {\r... */\ntag_7:\n  dup3\n  dup1\n  sload\n  tag_33\n  swap1\n  tag_12\n  jump\t// in\ntag_33:\n  swap1\n  0x00\n  mstore\n  keccak256(0x00, 0x20)\n  swap1\n  0x1f\n  add\n  0x20\n  swap1\n  div\n  dup2\n  add\n  swap3\n  dup3\n  tag_35\n  jumpi\n  0x00\n  dup6\n  sstore\n  jump(tag_34)\ntag_35:\n  dup3\n  0x1f\n  lt\n  tag_36\n  jumpi\n  dup1\n  mload\n  not(0xff)\n  and\n  dup4\n  dup1\n  add\n  or\n  dup6\n  sstore\n  jump(tag_34)\ntag_36:\n  dup3\n  dup1\n  add\n  0x01\n  add\n  dup6\n  sstore\n  dup3\n  iszero\n  tag_34\n  jumpi\n  swap2\n  dup3\n  add\ntag_37:\n  dup3\n  dup2\n  gt\n  iszero\n  tag_38\n  jumpi\n  dup3\n  mload\n  dup3\n  sstore\n  swap2\n  0x20\n  add\n  swap2\n  swap1\n  0x01\n  add\n  swap1\n  jump(tag_37)\ntag_38:\ntag_34:\n  pop\n  swap1\n  pop\n  tag_39\n  swap2\n  swap1\n  tag_40\n  jump\t// in\ntag_39:\n  pop\n  swap1\n  jump\t// out\ntag_14:\n  dup3\n  dup1\n  sload\n  tag_41\n  swap1\n  tag_12\n  jump\t// in\ntag_41:\n  swap1\n  0x00\n  mstore\n  keccak256(0x00, 0x20)\n  swap1\n  0x1f\n  add\n  0x20\n  swap1\n  div\n  dup2\n  add\n  swap3\n  dup3\n  tag_43\n  jumpi\n  0x00\n  dup6\n  sstore\n  jump(tag_42)\ntag_43:\n  dup3\n  0x1f\n  lt\n  tag_44\n  jumpi\n  dup1\n  sload\n  dup6\n  sstore\n  jump(tag_42)\ntag_44:\n  dup3\n  dup1\n  add\n  0x01\n  add\n  dup6\n  sstore\n  dup3\n  iszero\n  tag_42\n  jumpi\n  0x00\n  mstore\n  keccak256(0x00, 0x20)\n  swap2\n  0x1f\n  add\n  0x20\n  swap1\n  div\n  dup3\n  add\ntag_45:\n  dup3\n  dup2\n  gt\n  iszero\n  tag_46\n  jumpi\n  dup3\n  sload\n  dup3\n  sstore\n  swap2\n  0x01\n  add\n  swap2\n  swap1\n  0x01\n  add\n  swap1\n  jump(tag_45)\ntag_46:\ntag_42:\n  pop\n  swap1\n  pop\n  tag_47\n  swap2\n  swap1\n  tag_40\n  jump\t// in\ntag_47:\n  pop\n  swap1\n  jump\t// out\ntag_40:\ntag_48:\n  dup1\n  dup3\n  gt\n  iszero\n  tag_49\n  jumpi\n  0x00\n  dup2\n  0x00\n  swap1\n  sstore\n  pop\n  0x01\n  add\n  jump(tag_48)\ntag_49:\n  pop\n  swap1\n  jump\t// out\n    /* \"#utility.yul\":7:384   */\ntag_51:\n    /* \"#utility.yul\":113:116   */\n  0x00\n    /* \"#utility.yul\":141:180   */\n  tag_53\n    /* \"#utility.yul\":174:179   */\n  dup3\n    /* \"#utility.yul\":141:180   */\n  tag_54\n  jump\t// in\ntag_53:\n    /* \"#utility.yul\":196:285   */\n  tag_55\n    /* \"#utility.yul\":278:284   */\n  dup2\n    /* \"#utility.yul\":273:276   */\n  dup6\n    /* \"#utility.yul\":196:285   */\n  tag_56\n  jump\t// in\ntag_55:\n    /* \"#utility.yul\":189:285   */\n  swap4\n  pop\n    /* \"#utility.yul\":294:346   */\n  tag_57\n    /* \"#utility.yul\":339:345   */\n  dup2\n    /* \"#utility.yul\":334:337   */\n  dup6\n    /* \"#utility.yul\":327:331   */\n  0x20\n    /* \"#utility.yul\":320:325   */\n  dup7\n    /* \"#utility.yul\":316:332   */\n  add\n    /* \"#utility.yul\":294:346   */\n  tag_58\n  jump\t// in\ntag_57:\n    /* \"#utility.yul\":371:377   */\n  dup1\n    /* \"#utility.yul\":366:369   */\n  dup5\n    /* \"#utility.yul\":362:378   */\n  add\n    /* \"#utility.yul\":355:378   */\n  swap2\n  pop\n    /* \"#utility.yul\":117:384   */\n  pop\n    /* \"#utility.yul\":7:384   */\n  swap3\n  swap2\n  pop\n  pop\n  jump\t// out\n    /* \"#utility.yul\":390:790   */\ntag_59:\n    /* \"#utility.yul\":550:553   */\n  0x00\n    /* \"#utility.yul\":571:655   */\n  tag_61\n    /* \"#utility.yul\":653:654   */\n  0x04\n    /* \"#utility.yul\":648:651   */\n  dup4\n    /* \"#utility.yul\":571:655   */\n  tag_56\n  jump\t// in\ntag_61:\n    /* \"#utility.yul\":564:655   */\n  swap2\n  pop\n    /* \"#utility.yul\":664:757   */\n  tag_62\n    /* \"#utility.yul\":753:756   */\n  dup3\n    /* \"#utility.yul\":664:757   */\n  tag_63\n  jump\t// in\ntag_62:\n    /* \"#utility.yul\":782:783   */\n  0x04\n    /* \"#utility.yul\":777:780   */\n  dup3\n    /* \"#utility.yul\":773:784   */\n  add\n    /* \"#utility.yul\":766:784   */\n  swap1\n  pop\n    /* \"#utility.yul\":390:790   */\n  swap2\n  swap1\n  pop\n  jump\t// out\n    /* \"#utility.yul\":796:1071   */\ntag_32:\n    /* \"#utility.yul\":928:931   */\n  0x00\n    /* \"#utility.yul\":950:1045   */\n  tag_65\n    /* \"#utility.yul\":1041:1044   */\n  dup3\n    /* \"#utility.yul\":1032:1038   */\n  dup5\n    /* \"#utility.yul\":950:1045   */\n  tag_51\n  jump\t// in\ntag_65:\n    /* \"#utility.yul\":943:1045   */\n  swap2\n  pop\n    /* \"#utility.yul\":1062:1065   */\n  dup2\n    /* \"#utility.yul\":1055:1065   */\n  swap1\n  pop\n    /* \"#utility.yul\":796:1071   */\n  swap3\n  swap2\n  pop\n  pop\n  jump\t// out\n    /* \"#utility.yul\":1077:1458   */\ntag_23:\n    /* \"#utility.yul\":1262:1265   */\n  0x00\n    /* \"#utility.yul\":1284:1432   */\n  tag_67\n    /* \"#utility.yul\":1428:1431   */\n  dup3\n    /* \"#utility.yul\":1284:1432   */\n  tag_59\n  jump\t// in\ntag_67:\n    /* \"#utility.yul\":1277:1432   */\n  swap2\n  pop\n    /* \"#utility.yul\":1449:1452   */\n  dup2\n    /* \"#utility.yul\":1442:1452   */\n  swap1\n  pop\n    /* \"#utility.yul\":1077:1458   */\n  swap2\n  swap1\n  pop\n  jump\t// out\n    /* \"#utility.yul\":1464:1563   */\ntag_54:\n    /* \"#utility.yul\":1516:1522   */\n  0x00\n    /* \"#utility.yul\":1550:1555   */\n  dup2\n    /* \"#utility.yul\":1544:1556   */\n  mload\n    /* \"#utility.yul\":1534:1556   */\n  swap1\n  pop\n    /* \"#utility.yul\":1464:1563   */\n  swap2\n  swap1\n  pop\n  jump\t// out\n    /* \"#utility.yul\":1569:1717   */\ntag_56:\n    /* \"#utility.yul\":1671:1682   */\n  0x00\n    /* \"#utility.yul\":1708:1711   */\n  dup2\n    /* \"#utility.yul\":1693:1711   */\n  swap1\n  pop\n    /* \"#utility.yul\":1569:1717   */\n  swap3\n  swap2\n  pop\n  pop\n  jump\t// out\n    /* \"#utility.yul\":1723:2030   */\ntag_58:\n    /* \"#utility.yul\":1791:1792   */\n  0x00\n    /* \"#utility.yul\":1801:1914   */\ntag_71:\n    /* \"#utility.yul\":1815:1821   */\n  dup4\n    /* \"#utility.yul\":1812:1813   */\n  dup2\n    /* \"#utility.yul\":1809:1822   */\n  lt\n    /* \"#utility.yul\":1801:1914   */\n  iszero\n  tag_73\n  jumpi\n    /* \"#utility.yul\":1900:1901   */\n  dup1\n    /* \"#utility.yul\":1895:1898   */\n  dup3\n    /* \"#utility.yul\":1891:1902   */\n  add\n    /* \"#utility.yul\":1885:1903   */\n  mload\n    /* \"#utility.yul\":1881:1882   */\n  dup2\n    /* \"#utility.yul\":1876:1879   */\n  dup5\n    /* \"#utility.yul\":1872:1883   */\n  add\n    /* \"#utility.yul\":1865:1904   */\n  mstore\n    /* \"#utility.yul\":1837:1839   */\n  0x20\n    /* \"#utility.yul\":1834:1835   */\n  dup2\n    /* \"#utility.yul\":1830:1840   */\n  add\n    /* \"#utility.yul\":1825:1840   */\n  swap1\n  pop\n    /* \"#utility.yul\":1801:1914   */\n  jump(tag_71)\ntag_73:\n    /* \"#utility.yul\":1932:1938   */\n  dup4\n    /* \"#utility.yul\":1929:1930   */\n  dup2\n    /* \"#utility.yul\":1926:1939   */\n  gt\n    /* \"#utility.yul\":1923:2024   */\n  iszero\n  tag_74\n  jumpi\n    /* \"#utility.yul\":2012:2013   */\n  0x00\n    /* \"#utility.yul\":2003:2009   */\n  dup5\n    /* \"#utility.yul\":1998:2001   */\n  dup5\n    /* \"#utility.yul\":1994:2010   */\n  add\n    /* \"#utility.yul\":1987:2014   */\n  mstore\n    /* \"#utility.yul\":1923:2024   */\ntag_74:\n    /* \"#utility.yul\":1772:2030   */\n  pop\n    /* \"#utility.yul\":1723:2030   */\n  pop\n  pop\n  pop\n  jump\t// out\n    /* \"#utility.yul\":2036:2356   */\ntag_12:\n    /* \"#utility.yul\":2080:2086   */\n  0x00\n    /* \"#utility.yul\":2117:2118   */\n  0x02\n    /* \"#utility.yul\":2111:2115   */\n  dup3\n    /* \"#utility.yul\":2107:2119   */\n  div\n    /* \"#utility.yul\":2097:2119   */\n  swap1\n  pop\n    /* \"#utility.yul\":2164:2165   */\n  0x01\n    /* \"#utility.yul\":2158:2162   */\n  dup3\n    /* \"#utility.yul\":2154:2166   */\n  and\n    /* \"#utility.yul\":2185:2203   */\n  dup1\n    /* \"#utility.yul\":2175:2256   */\n  tag_76\n  jumpi\n    /* \"#utility.yul\":2241:2245   */\n  0x7f\n    /* \"#utility.yul\":2233:2239   */\n  dup3\n    /* \"#utility.yul\":2229:2246   */\n  and\n    /* \"#utility.yul\":2219:2246   */\n  swap2\n  pop\n    /* \"#utility.yul\":2175:2256   */\ntag_76:\n    /* \"#utility.yul\":2303:2305   */\n  0x20\n    /* \"#utility.yul\":2295:2301   */\n  dup3\n    /* \"#utility.yul\":2292:2306   */\n  lt\n    /* \"#utility.yul\":2272:2290   */\n  dup2\n    /* \"#utility.yul\":2269:2307   */\n  eq\n    /* \"#utility.yul\":2266:2350   */\n  iszero\n  tag_77\n  jumpi\n    /* \"#utility.yul\":2322:2340   */\n  tag_78\n  tag_79\n  jump\t// in\ntag_78:\n    /* \"#utility.yul\":2266:2350   */\ntag_77:\n    /* \"#utility.yul\":2087:2356   */\n  pop\n    /* \"#utility.yul\":2036:2356   */\n  swap2\n  swap1\n  pop\n  jump\t// out\n    /* \"#utility.yul\":2362:2542   */\ntag_79:\n    /* \"#utility.yul\":2410:2487   */\n  0x4e487b7100000000000000000000000000000000000000000000000000000000\n    /* \"#utility.yul\":2407:2408   */\n  0x00\n    /* \"#utility.yul\":2400:2488   */\n  mstore\n    /* \"#utility.yul\":2507:2511   */\n  0x22\n    /* \"#utility.yul\":2504:2505   */\n  0x04\n    /* \"#utility.yul\":2497:2512   */\n  mstore\n    /* \"#utility.yul\":2531:2535   */\n  0x24\n    /* \"#utility.yul\":2528:2529   */\n  0x00\n    /* \"#utility.yul\":2521:2536   */\n  revert\n    /* \"#utility.yul\":2548:2702   */\ntag_63:\n    /* \"#utility.yul\":2688:2694   */\n  0x5065746100000000000000000000000000000000000000000000000000000000\n    /* \"#utility.yul\":2684:2685   */\n  0x00\n    /* \"#utility.yul\":2676:2682   */\n  dup3\n    /* \"#utility.yul\":2672:2686   */\n  add\n    /* \"#utility.yul\":2665:2695   */\n  mstore\n    /* \"#utility.yul\":2548:2702   */\n  pop\n  jump\t// out\n    /* \"Documents/GitHub/Store-system-with-feedback/main.sol\":74:9526  contract coursepaper {\r... */\ntag_29:\n  dataSize(sub_0)\n  dup1\n  dataOffset(sub_0)\n  0x00\n  codecopy\n  0x00\n  return\nstop\n\nsub_0: assembly {\n        /* \"Documents/GitHub/Store-system-with-feedback/main.sol\":74:9526  contract coursepaper {\r... */\n      mstore(0x40, 0x80)\n      callvalue\n      dup1\n      iszero\n      tag_1\n      jumpi\n      0x00\n      dup1\n      revert\n    tag_1:\n      pop\n      jumpi(tag_2, lt(calldatasize, 0x04))\n      shr(0xe0, calldataload(0x00))\n      dup1\n      0x961865f0\n      gt\n      tag_27\n      jumpi\n      dup1\n      0xc4957fa0\n      gt\n      tag_28\n      jumpi\n      dup1\n      0xc4957fa0\n      eq\n      tag_21\n      jumpi\n      dup1\n      0xcc21c188\n      eq\n      tag_22\n      jumpi\n      dup1\n      0xd22d9020\n      eq\n      tag_23\n      jumpi\n      dup1\n      0xd68cf8c1\n      eq\n      tag_24\n      jumpi\n      dup1\n      0xdce39151\n      eq\n      tag_25\n      jumpi\n      dup1\n      0xf69483c1\n      eq\n      tag_26\n      jumpi\n      jump(tag_2)\n    tag_28:\n      dup1\n      0x961865f0\n      eq\n      tag_15\n      jumpi\n      dup1\n      0xa985036d\n      eq\n      tag_16\n      jumpi\n      dup1\n      0xa9f9482b\n      eq\n      tag_17\n      jumpi\n      dup1\n      0xbbd43363\n      eq\n      tag_18\n      jumpi\n      dup1\n      0xc178b9af\n      eq\n      tag_19\n      jumpi\n      dup1\n      0xc26da2f8\n      eq\n      tag_20\n      jumpi\n      jump(tag_2)\n    tag_27:\n      dup1\n      0x2d4673e3\n      gt\n      tag_29\n      jumpi\n      dup1\n      0x2d4673e3\n      eq\n      tag_9\n      jumpi\n      dup1\n      0x34d2c0ad\n      eq\n      tag_10\n      jumpi\n      dup1\n      0x6ba44d3c\n      eq\n      tag_11\n      jumpi\n      dup1\n      0x6c05dd1d\n      eq\n      tag_12\n      jumpi\n      dup1\n      0x7ddb273d\n      eq\n      tag_13\n      jumpi\n      dup1\n      0x845952a8\n      eq\n      tag_14\n      jumpi\n      jump(tag_2)\n    tag_29:\n      dup1\n      0x0c72b1ec\n      eq\n      tag_3\n      jumpi\n      dup1\n      0x0e1c81b2\n      eq\n      tag_4\n      jumpi\n      dup1\n      0x146dc6ed\n      eq\n      tag_5\n      jumpi\n      dup1\n      0x1bbe970a\n      eq\n      tag_6\n      jumpi\n      dup1\n      0x29e795f3\n      eq\n      tag_7\n      jumpi\n      dup1\n      0x2ccdef7c\n      eq\n      tag_8\n      jumpi\n    tag_2:\n      0x00\n      dup1\n      revert\n        /* \"Documents/GitHub/Store-system-with-feedback/main.sol\":4365:4993  function acceptPurchase (uint idPurchase, bool confirmation) public {\r... */\n    tag_3:\n      tag_30\n      0x04\n      dup1\n      calldatasize\n      sub\n      dup2\n      add\n      swap1\n      tag_31\n      swap2\n      swap1\n      tag_32\n      jump\t// in\n    tag_31:\n      tag_33\n      jump\t// in\n    tag_30:\n      stop\n        /* \"Documents/GitHub/Store-system-with-feedback/main.sol\":8710:9038  function create_user(address addr, string memory login, bytes32 password) public {\r... */\n    tag_4:\n      tag_34\n      0x04\n      dup1\n      calldatasize\n      sub\n      dup2\n      add\n      swap1\n      tag_35\n      swap2\n      swap1\n      tag_36\n      jump\t// in\n    tag_35:\n      tag_37\n      jump\t// in\n    tag_34:\n      stop\n        /* \"Documents/GitHub/Store-system-with-feedback/main.sol\":7817:8088  function productPurchases (string memory titleProduct) public {\r... */\n    tag_5:\n      tag_38\n      0x04\n      dup1\n      calldatasize\n      sub\n      dup2\n      add\n      swap1\n      tag_39\n      swap2\n      swap1\n      tag_40\n      jump\t// in\n    tag_39:\n      tag_41\n      jump\t// in\n    tag_38:\n      stop\n        /* \"Documents/GitHub/Store-system-with-feedback/main.sol\":2154:2204  mapping(string => address) public structUserLogins */\n    tag_6:\n      tag_42\n      0x04\n      dup1\n      calldatasize\n      sub\n      dup2\n      add\n      swap1\n      tag_43\n      swap2\n      swap1\n      tag_40\n      jump\t// in\n    tag_43:\n      tag_44\n      jump\t// in\n    tag_42:\n      mload(0x40)\n      tag_45\n      swap2\n      swap1\n      tag_46\n      jump\t// in\n    tag_45:\n      mload(0x40)\n      dup1\n      swap2\n      sub\n      swap1\n      return\n        /* \"Documents/GitHub/Store-system-with-feedback/main.sol\":7311:7730  function leaveComment (string memory userName, string[] memory comment) public {\r... */\n    tag_7:\n      tag_47\n      0x04\n      dup1\n      calldatasize\n      sub\n      dup2\n      add\n      swap1\n      tag_48\n      swap2\n      swap1\n      tag_49\n      jump\t// in\n    tag_48:\n      tag_50\n      jump\t// in\n    tag_47:\n      stop\n        /* \"Documents/GitHub/Store-system-with-feedback/main.sol\":5038:5499  function acceptReturn(uint idReturn, bool confirmation) public {\r... */\n    tag_8:\n      tag_51\n      0x04\n      dup1\n      calldatasize\n      sub\n      dup2\n      add\n      swap1\n      tag_52\n      swap2\n      swap1\n      tag_32\n      jump\t// in\n    tag_52:\n      tag_53\n      jump\t// in\n    tag_51:\n      stop\n        /* \"Documents/GitHub/Store-system-with-feedback/main.sol\":8327:8511  function productMarriageRegistration (string memory titleProduct) public {\r... */\n    tag_9:\n      tag_54\n      0x04\n      dup1\n      calldatasize\n      sub\n      dup2\n      add\n      swap1\n      tag_55\n      swap2\n      swap1\n      tag_40\n      jump\t// in\n    tag_55:\n      tag_56\n      jump\t// in\n    tag_54:\n      stop\n        /* \"Documents/GitHub/Store-system-with-feedback/main.sol\":6286:6386  function getProductList() public view returns(string[] memory) {\r... */\n    tag_10:\n      tag_57\n      tag_58\n      jump\t// in\n    tag_57:\n      mload(0x40)\n      tag_59\n      swap2\n      swap1\n      tag_60\n      jump\t// in\n    tag_59:\n      mload(0x40)\n      dup1\n      swap2\n      sub\n      swap1\n      return\n        /* \"Documents/GitHub/Store-system-with-feedback/main.sol\":8555:8676  function get_address(string memory login) public view returns(address) {\r... */\n    tag_11:\n      tag_61\n      0x04\n      dup1\n      calldatasize\n      sub\n      dup2\n      add\n      swap1\n      tag_62\n      swap2\n      swap1\n      tag_40\n      jump\t// in\n    tag_62:\n      tag_63\n      jump\t// in\n    tag_61:\n      mload(0x40)\n      tag_64\n      swap2\n      swap1\n      tag_46\n      jump\t// in\n    tag_64:\n      mload(0x40)\n      dup1\n      swap2\n      sub\n      swap1\n      return\n        /* \"Documents/GitHub/Store-system-with-feedback/main.sol\":3286:3685  function addProductShop (string memory title, uint256 price, string memory description) public {\r... */\n    tag_12:\n      tag_65\n      0x04\n      dup1\n      calldatasize\n      sub\n      dup2\n      add\n      swap1\n      tag_66\n      swap2\n      swap1\n      tag_67\n      jump\t// in\n    tag_66:\n      tag_68\n      jump\t// in\n    tag_65:\n      stop\n        /* \"Documents/GitHub/Store-system-with-feedback/main.sol\":3101:3164  structMarriageRegistration[] public structMarriageRegistrations */\n    tag_13:\n      tag_69\n      0x04\n      dup1\n      calldatasize\n      sub\n      dup2\n      add\n      swap1\n      tag_70\n      swap2\n      swap1\n      tag_71\n      jump\t// in\n    tag_70:\n      tag_72\n      jump\t// in\n    tag_69:\n      mload(0x40)\n      tag_73\n      swap4\n      swap3\n      swap2\n      swap1\n      tag_74\n      jump\t// in\n    tag_73:\n      mload(0x40)\n      dup1\n      swap2\n      sub\n      swap1\n      return\n        /* \"Documents/GitHub/Store-system-with-feedback/main.sol\":961:1104  function get_hash(string memory password) public pure returns(bytes32) {\r... */\n    tag_14:\n      tag_75\n      0x04\n      dup1\n      calldatasize\n      sub\n      dup2\n      add\n      swap1\n      tag_76\n      swap2\n      swap1\n      tag_40\n      jump\t// in\n    tag_76:\n      tag_77\n      jump\t// in\n    tag_75:\n      mload(0x40)\n      tag_78\n      swap2\n      swap1\n      tag_79\n      jump\t// in\n    tag_78:\n      mload(0x40)\n      dup1\n      swap2\n      sub\n      swap1\n      return\n        /* \"Documents/GitHub/Store-system-with-feedback/main.sol\":2098:2147  mapping(address => structUser) public structUsers */\n    tag_15:\n      tag_80\n      0x04\n      dup1\n      calldatasize\n      sub\n      dup2\n      add\n      swap1\n      tag_81\n      swap2\n      swap1\n      tag_82\n      jump\t// in\n    tag_81:\n      tag_83\n      jump\t// in\n    tag_80:\n      mload(0x40)\n      tag_84\n      swap6\n      swap5\n      swap4\n      swap3\n      swap2\n      swap1\n      tag_85\n      jump\t// in\n    tag_84:\n      mload(0x40)\n      dup1\n      swap2\n      sub\n      swap1\n      return\n        /* \"Documents/GitHub/Store-system-with-feedback/main.sol\":6418:7271  function getStoryRating(string memory shopName) public view returns(uint) {\r... */\n    tag_16:\n      tag_86\n      0x04\n      dup1\n      calldatasize\n      sub\n      dup2\n      add\n      swap1\n      tag_87\n      swap2\n      swap1\n      tag_40\n      jump\t// in\n    tag_87:\n      tag_88\n      jump\t// in\n    tag_86:\n      mload(0x40)\n      tag_89\n      swap2\n      swap1\n      tag_90\n      jump\t// in\n    tag_89:\n      mload(0x40)\n      dup1\n      swap2\n      sub\n      swap1\n      return\n        /* \"Documents/GitHub/Store-system-with-feedback/main.sol\":2881:2928  structStatusReturn[] public structStatusReturns */\n    tag_17:\n      tag_91\n      0x04\n      dup1\n      calldatasize\n      sub\n      dup2\n      add\n      swap1\n      tag_92\n      swap2\n      swap1\n      tag_71\n      jump\t// in\n    tag_92:\n      tag_93\n      jump\t// in\n    tag_91:\n      mload(0x40)\n      tag_94\n      swap4\n      swap3\n      swap2\n      swap1\n      tag_74\n      jump\t// in\n    tag_94:\n      mload(0x40)\n      dup1\n      swap2\n      sub\n      swap1\n      return\n        /* \"Documents/GitHub/Store-system-with-feedback/main.sol\":8127:8281  function productReturn (string memory titleProduct) public {\r... */\n    tag_18:\n      tag_95\n      0x04\n      dup1\n      calldatasize\n      sub\n      dup2\n      add\n      swap1\n      tag_96\n      swap2\n      swap1\n      tag_40\n      jump\t// in\n    tag_96:\n      tag_97\n      jump\t// in\n    tag_95:\n      stop\n        /* \"Documents/GitHub/Store-system-with-feedback/main.sol\":6156:6250  function getShopList() public view returns(string[] memory) {\r... */\n    tag_19:\n      tag_98\n      tag_99\n      jump\t// in\n    tag_98:\n      mload(0x40)\n      tag_100\n      swap2\n      swap1\n      tag_60\n      jump\t// in\n    tag_100:\n      mload(0x40)\n      dup1\n      swap2\n      sub\n      swap1\n      return\n        /* \"Documents/GitHub/Store-system-with-feedback/main.sol\":1110:1249  function check_logged(string memory login) public view returns(bool) {\r... */\n    tag_20:\n      tag_101\n      0x04\n      dup1\n      calldatasize\n      sub\n      dup2\n      add\n      swap1\n      tag_102\n      swap2\n      swap1\n      tag_40\n      jump\t// in\n    tag_102:\n      tag_103\n      jump\t// in\n    tag_101:\n      mload(0x40)\n      tag_104\n      swap2\n      swap1\n      tag_105\n      jump\t// in\n    tag_104:\n      mload(0x40)\n      dup1\n      swap2\n      sub\n      swap1\n      return\n        /* \"Documents/GitHub/Store-system-with-feedback/main.sol\":1531:1574  mapping(string => address) public shopLists */\n    tag_21:\n      tag_106\n      0x04\n      dup1\n      calldatasize\n      sub\n      dup2\n      add\n      swap1\n      tag_107\n      swap2\n      swap1\n      tag_40\n      jump\t// in\n    tag_107:\n      tag_108\n      jump\t// in\n    tag_106:\n      mload(0x40)\n      tag_109\n      swap2\n      swap1\n      tag_46\n      jump\t// in\n    tag_109:\n      mload(0x40)\n      dup1\n      swap2\n      sub\n      swap1\n      return\n        /* \"Documents/GitHub/Store-system-with-feedback/main.sol\":3730:4318  function leaveFeedback (string memory shop, string memory feedback, uint256 rating) public {\r... */\n    tag_22:\n      tag_110\n      0x04\n      dup1\n      calldatasize\n      sub\n      dup2\n      add\n      swap1\n      tag_111\n      swap2\n      swap1\n      tag_112\n      jump\t// in\n    tag_111:\n      tag_113\n      jump\t// in\n    tag_110:\n      stop\n        /* \"Documents/GitHub/Store-system-with-feedback/main.sol\":9072:9502  function login_user(string memory login, bytes32 password) public {\r... */\n    tag_23:\n      tag_114\n      0x04\n      dup1\n      calldatasize\n      sub\n      dup2\n      add\n      swap1\n      tag_115\n      swap2\n      swap1\n      tag_116\n      jump\t// in\n    tag_115:\n      tag_117\n      jump\t// in\n    tag_114:\n      stop\n        /* \"Documents/GitHub/Store-system-with-feedback/main.sol\":2430:2484  mapping(string => structProduct) public structProducts */\n    tag_24:\n      tag_118\n      0x04\n      dup1\n      calldatasize\n      sub\n      dup2\n      add\n      swap1\n      tag_119\n      swap2\n      swap1\n      tag_40\n      jump\t// in\n    tag_119:\n      tag_120\n      jump\t// in\n    tag_118:\n      mload(0x40)\n      tag_121\n      swap5\n      swap4\n      swap3\n      swap2\n      swap1\n      tag_122\n      jump\t// in\n    tag_121:\n      mload(0x40)\n      dup1\n      swap2\n      sub\n      swap1\n      return\n        /* \"Documents/GitHub/Store-system-with-feedback/main.sol\":2673:2724  structStatusPurchase[] public structStatusPurchases */\n    tag_25:\n      tag_123\n      0x04\n      dup1\n      calldatasize\n      sub\n      dup2\n      add\n      swap1\n      tag_124\n      swap2\n      swap1\n      tag_71\n      jump\t// in\n    tag_124:\n      tag_125\n      jump\t// in\n    tag_123:\n      mload(0x40)\n      tag_126\n      swap4\n      swap3\n      swap2\n      swap1\n      tag_74\n      jump\t// in\n    tag_126:\n      mload(0x40)\n      dup1\n      swap2\n      sub\n      swap1\n      return\n        /* \"Documents/GitHub/Store-system-with-feedback/main.sol\":5545:6122  function MarriageRegistration(uint idMarriageRegistration, bool confirmation) public {\r... */\n    tag_26:\n      tag_127\n      0x04\n      dup1\n      calldatasize\n      sub\n      dup2\n      add\n      swap1\n      tag_128\n      swap2\n      swap1\n      tag_32\n      jump\t// in\n    tag_128:\n      tag_129\n      jump\t// in\n    tag_127:\n      stop\n        /* \"Documents/GitHub/Store-system-with-feedback/main.sol\":4365:4993  function acceptPurchase (uint idPurchase, bool confirmation) public {\r... */\n    tag_33:\n        /* \"Documents/GitHub/Store-system-with-feedback/main.sol\":4464:4468  true */\n      0x01\n        /* \"Documents/GitHub/Store-system-with-feedback/main.sol\":4448:4468  confirmation == true */\n      iszero\n      iszero\n        /* \"Documents/GitHub/Store-system-with-feedback/main.sol\":4448:4460  confirmation */\n      dup2\n        /* \"Documents/GitHub/Store-system-with-feedback/main.sol\":4448:4468  confirmation == true */\n      iszero\n      iszero\n      eq\n        /* \"Documents/GitHub/Store-system-with-feedback/main.sol\":4444:4986  if (confirmation == true) {\r... */\n      iszero\n      tag_131\n      jumpi\n        /* \"Documents/GitHub/Store-system-with-feedback/main.sol\":4528:4533  false */\n      0x00\n        /* \"Documents/GitHub/Store-system-with-feedback/main.sol\":4485:4506  structStatusPurchases */\n      0x0a\n        /* \"Documents/GitHub/Store-system-with-feedback/main.sol\":4507:4517  idPurchase */\n      dup4\n        /* \"Documents/GitHub/Store-system-with-feedback/main.sol\":4485:4518  structStatusPurchases[idPurchase] */\n      dup2\n      sload\n      dup2\n      lt\n      tag_132\n      jumpi\n      tag_133\n      tag_134\n      jump\t// in\n    tag_133:\n    tag_132:\n      swap1\n      0x00\n      mstore\n      keccak256(0x00, 0x20)\n      swap1\n      0x03\n      mul\n      add\n        /* \"Documents/GitHub/Store-system-with-feedback/main.sol\":4485:4525  structStatusPurchases[idPurchase].status */\n      0x02\n      add\n      0x00\n        /* \"Documents/GitHub/Store-system-with-feedback/main.sol\":4485:4533  structStatusPurchases[idPurchase].status = false */\n      0x0100\n      exp\n      dup2\n      sload\n      dup2\n      0xff\n      mul\n      not\n      and\n      swap1\n      dup4\n      iszero\n      iszero\n      mul\n      or\n      swap1\n      sstore\n      pop\n        /* \"Documents/GitHub/Store-system-with-feedback/main.sol\":4684:4698  structProducts */\n      0x08\n        /* \"Documents/GitHub/Store-system-with-feedback/main.sol\":4699:4720  structStatusPurchases */\n      0x0a\n        /* \"Documents/GitHub/Store-system-with-feedback/main.sol\":4721:4731  idPurchase */\n      dup4\n        /* \"Documents/GitHub/Store-system-with-feedback/main.sol\":4699:4732  structStatusPurchases[idPurchase] */\n      dup2\n      sload\n      dup2\n      lt\n      tag_136\n      jumpi\n      tag_137\n      tag_134\n      jump\t// in\n    tag_137:\n    tag_136:\n      swap1\n      0x00\n      mstore\n      keccak256(0x00, 0x20)\n      swap1\n      0x03\n      mul\n      add\n        /* \"Documents/GitHub/Store-system-with-feedback/main.sol\":4699:4745  structStatusPurchases[idPurchase].titleProduct */\n      0x01\n      add\n        /* \"Documents/GitHub/Store-system-with-feedback/main.sol\":4684:4746  structProducts[structStatusPurchases[idPurchase].titleProduct] */\n      mload(0x40)\n      tag_139\n      swap2\n      swap1\n      tag_140\n      jump\t// in\n    tag_139:\n      swap1\n      dup2\n      mstore\n      0x20\n      add\n      mload(0x40)\n      dup1\n      swap2\n      sub\n      swap1\n      keccak256\n        /* \"Documents/GitHub/Store-system-with-feedback/main.sol\":4684:4752  structProducts[structStatusPurchases[idPurchase].titleProduct].price */\n      0x02\n      add\n      sload\n        /* \"Documents/GitHub/Store-system-with-feedback/main.sol\":4616:4627  structUsers */\n      0x04\n        /* \"Documents/GitHub/Store-system-with-feedback/main.sol\":4616:4672  structUsers[structStatusPurchases[idPurchase].userLogin] */\n      0x00\n        /* \"Documents/GitHub/Store-system-with-feedback/main.sol\":4628:4649  structStatusPurchases */\n      0x0a\n        /* \"Documents/GitHub/Store-system-with-feedback/main.sol\":4650:4660  idPurchase */\n      dup6\n        /* \"Documents/GitHub/Store-system-with-feedback/main.sol\":4628:4661  structStatusPurchases[idPurchase] */\n      dup2\n      sload\n      dup2\n      lt\n      tag_141\n      jumpi\n      tag_142\n      tag_134\n      jump\t// in\n    tag_142:\n    tag_141:\n      swap1\n      0x00\n      mstore\n      keccak256(0x00, 0x20)\n      swap1\n      0x03\n      mul\n      add\n        /* \"Documents/GitHub/Store-system-with-feedback/main.sol\":4628:4671  structStatusPurchases[idPurchase].userLogin */\n      0x00\n      add\n      0x00\n      swap1\n      sload\n      swap1\n      0x0100\n      exp\n      swap1\n      div\n      0xffffffffffffffffffffffffffffffffffffffff\n      and\n        /* \"Documents/GitHub/Store-system-with-feedback/main.sol\":4616:4672  structUsers[structStatusPurchases[idPurchase].userLogin] */\n      0xffffffffffffffffffffffffffffffffffffffff\n      and\n      0xffffffffffffffffffffffffffffffffffffffff\n      and\n      dup2\n      mstore\n      0x20\n      add\n      swap1\n      dup2\n      mstore\n      0x20\n      add\n      0x00\n      keccak256\n        /* \"Documents/GitHub/Store-system-with-feedback/main.sol\":4616:4681  structUsers[structStatusPurchases[idPurchase].userLogin].ballance */\n      0x02\n      add\n      sload\n        /* \"Documents/GitHub/Store-system-with-feedback/main.sol\":4616:4752  structUsers[structStatusPurchases[idPurchase].userLogin].ballance - structProducts[structStatusPurchases[idPurchase].titleProduct].price */\n      tag_144\n      swap2\n      swap1\n      tag_145\n      jump\t// in\n    tag_144:\n        /* \"Documents/GitHub/Store-system-with-feedback/main.sol\":4548:4559  structUsers */\n      0x04\n        /* \"Documents/GitHub/Store-system-with-feedback/main.sol\":4548:4604  structUsers[structStatusPurchases[idPurchase].userLogin] */\n      0x00\n        /* \"Documents/GitHub/Store-system-with-feedback/main.sol\":4560:4581  structStatusPurchases */\n      0x0a\n        /* \"Documents/GitHub/Store-system-with-feedback/main.sol\":4582:4592  idPurchase */\n      dup6\n        /* \"Documents/GitHub/Store-system-with-feedback/main.sol\":4560:4593  structStatusPurchases[idPurchase] */\n      dup2\n      sload\n      dup2\n      lt\n      tag_146\n      jumpi\n      tag_147\n      tag_134\n      jump\t// in\n    tag_147:\n    tag_146:\n      swap1\n      0x00\n      mstore\n      keccak256(0x00, 0x20)\n      swap1\n      0x03\n      mul\n      add\n        /* \"Documents/GitHub/Store-system-with-feedback/main.sol\":4560:4603  structStatusPurchases[idPurchase].userLogin */\n      0x00\n      add\n      0x00\n      swap1\n      sload\n      swap1\n      0x0100\n      exp\n      swap1\n      div\n      0xffffffffffffffffffffffffffffffffffffffff\n      and\n        /* \"Documents/GitHub/Store-system-with-feedback/main.sol\":4548:4604  structUsers[structStatusPurchases[idPurchase].userLogin] */\n      0xffffffffffffffffffffffffffffffffffffffff\n      and\n      0xffffffffffffffffffffffffffffffffffffffff\n      and\n      dup2\n      mstore\n      0x20\n      add\n      swap1\n      dup2\n      mstore\n      0x20\n      add\n      0x00\n      keccak256\n        /* \"Documents/GitHub/Store-system-with-feedback/main.sol\":4548:4613  structUsers[structStatusPurchases[idPurchase].userLogin].ballance */\n      0x02\n      add\n        /* \"Documents/GitHub/Store-system-with-feedback/main.sol\":4548:4752  structUsers[structStatusPurchases[idPurchase].userLogin].ballance = structUsers[structStatusPurchases[idPurchase].userLogin].ballance - structProducts[structStatusPurchases[idPurchase].titleProduct].price */\n      dup2\n      swap1\n      sstore\n      pop\n        /* \"Documents/GitHub/Store-system-with-feedback/main.sol\":4825:4839  structProducts */\n      0x08\n        /* \"Documents/GitHub/Store-system-with-feedback/main.sol\":4840:4861  structStatusPurchases */\n      0x0a\n        /* \"Documents/GitHub/Store-system-with-feedback/main.sol\":4862:4872  idPurchase */\n      dup4\n        /* \"Documents/GitHub/Store-system-with-feedback/main.sol\":4840:4873  structStatusPurchases[idPurchase] */\n      dup2\n      sload\n      dup2\n      lt\n      tag_149\n      jumpi\n      tag_150\n      tag_134\n      jump\t// in\n    tag_150:\n    tag_149:\n      swap1\n      0x00\n      mstore\n      keccak256(0x00, 0x20)\n      swap1\n      0x03\n      mul\n      add\n        /* \"Documents/GitHub/Store-system-with-feedback/main.sol\":4840:4886  structStatusPurchases[idPurchase].titleProduct */\n      0x01\n      add\n        /* \"Documents/GitHub/Store-system-with-feedback/main.sol\":4825:4887  structProducts[structStatusPurchases[idPurchase].titleProduct] */\n      mload(0x40)\n      tag_152\n      swap2\n      swap1\n      tag_140\n      jump\t// in\n    tag_152:\n      swap1\n      dup2\n      mstore\n      0x20\n      add\n      mload(0x40)\n      dup1\n      swap2\n      sub\n      swap1\n      keccak256\n        /* \"Documents/GitHub/Store-system-with-feedback/main.sol\":4825:4893  structProducts[structStatusPurchases[idPurchase].titleProduct].price */\n      0x02\n      add\n      sload\n        /* \"Documents/GitHub/Store-system-with-feedback/main.sol\":4796:4801  shops */\n      0x00\n        /* \"Documents/GitHub/Store-system-with-feedback/main.sol\":4796:4813  shops[msg.sender] */\n      dup1\n        /* \"Documents/GitHub/Store-system-with-feedback/main.sol\":4802:4812  msg.sender */\n      caller\n        /* \"Documents/GitHub/Store-system-with-feedback/main.sol\":4796:4813  shops[msg.sender] */\n      0xffffffffffffffffffffffffffffffffffffffff\n      and\n      0xffffffffffffffffffffffffffffffffffffffff\n      and\n      dup2\n      mstore\n      0x20\n      add\n      swap1\n      dup2\n      mstore\n      0x20\n      add\n      0x00\n      keccak256\n        /* \"Documents/GitHub/Store-system-with-feedback/main.sol\":4796:4822  shops[msg.sender].ballance */\n      0x04\n      add\n      sload\n        /* \"Documents/GitHub/Store-system-with-feedback/main.sol\":4796:4893  shops[msg.sender].ballance + structProducts[structStatusPurchases[idPurchase].titleProduct].price */\n      tag_153\n      swap2\n      swap1\n      tag_154\n      jump\t// in\n    tag_153:\n        /* \"Documents/GitHub/Store-system-with-feedback/main.sol\":4767:4772  shops */\n      0x00\n        /* \"Documents/GitHub/Store-system-with-feedback/main.sol\":4767:4784  shops[msg.sender] */\n      dup1\n        /* \"Documents/GitHub/Store-system-with-feedback/main.sol\":4773:4783  msg.sender */\n      caller\n        /* \"Documents/GitHub/Store-system-with-feedback/main.sol\":4767:4784  shops[msg.sender] */\n      0xffffffffffffffffffffffffffffffffffffffff\n      and\n      0xffffffffffffffffffffffffffffffffffffffff\n      and\n      dup2\n      mstore\n      0x20\n      add\n      swap1\n      dup2\n      mstore\n      0x20\n      add\n      0x00\n      keccak256\n        /* \"Documents/GitHub/Store-system-with-feedback/main.sol\":4767:4793  shops[msg.sender].ballance */\n      0x04\n      add\n        /* \"Documents/GitHub/Store-system-with-feedback/main.sol\":4767:4893  shops[msg.sender].ballance = shops[msg.sender].ballance + structProducts[structStatusPurchases[idPurchase].titleProduct].price */\n      dup2\n      swap1\n      sstore\n      pop\n        /* \"Documents/GitHub/Store-system-with-feedback/main.sol\":4444:4986  if (confirmation == true) {\r... */\n      jump(tag_155)\n    tag_131:\n        /* \"Documents/GitHub/Store-system-with-feedback/main.sol\":4969:4974  false */\n      0x00\n        /* \"Documents/GitHub/Store-system-with-feedback/main.sol\":4926:4947  structStatusPurchases */\n      0x0a\n        /* \"Documents/GitHub/Store-system-with-feedback/main.sol\":4948:4958  idPurchase */\n      dup4\n        /* \"Documents/GitHub/Store-system-with-feedback/main.sol\":4926:4959  structStatusPurchases[idPurchase] */\n      dup2\n      sload\n      dup2\n      lt\n      tag_156\n      jumpi\n      tag_157\n      tag_134\n      jump\t// in\n    tag_157:\n    tag_156:\n      swap1\n      0x00\n      mstore\n      keccak256(0x00, 0x20)\n      swap1\n      0x03\n      mul\n      add\n        /* \"Documents/GitHub/Store-system-with-feedback/main.sol\":4926:4966  structStatusPurchases[idPurchase].status */\n      0x02\n      add\n      0x00\n        /* \"Documents/GitHub/Store-system-with-feedback/main.sol\":4926:4974  structStatusPurchases[idPurchase].status = false */\n      0x0100\n      exp\n      dup2\n      sload\n      dup2\n      0xff\n      mul\n      not\n      and\n      swap1\n      dup4\n      iszero\n      iszero\n      mul\n      or\n      swap1\n      sstore\n      pop\n        /* \"Documents/GitHub/Store-system-with-feedback/main.sol\":4444:4986  if (confirmation == true) {\r... */\n    tag_155:\n        /* \"Documents/GitHub/Store-system-with-feedback/main.sol\":4365:4993  function acceptPurchase (uint idPurchase, bool confirmation) public {\r... */\n      pop\n      pop\n      jump\t// out\n        /* \"Documents/GitHub/Store-system-with-feedback/main.sol\":8710:9038  function create_user(address addr, string memory login, bytes32 password) public {\r... */\n    tag_37:\n        /* \"Documents/GitHub/Store-system-with-feedback/main.sol\":8845:8846  0 */\n      0x00\n        /* \"Documents/GitHub/Store-system-with-feedback/main.sol\":8810:8847  structUserLogins[login] == address(0) */\n      0xffffffffffffffffffffffffffffffffffffffff\n      and\n        /* \"Documents/GitHub/Store-system-with-feedback/main.sol\":8810:8826  structUserLogins */\n      0x05\n        /* \"Documents/GitHub/Store-system-with-feedback/main.sol\":8827:8832  login */\n      dup4\n        /* \"Documents/GitHub/Store-system-with-feedback/main.sol\":8810:8833  structUserLogins[login] */\n      mload(0x40)\n      tag_160\n      swap2\n      swap1\n      tag_161\n      jump\t// in\n    tag_160:\n      swap1\n      dup2\n      mstore\n      0x20\n      add\n      mload(0x40)\n      dup1\n      swap2\n      sub\n      swap1\n      keccak256\n      0x00\n      swap1\n      sload\n      swap1\n      0x0100\n      exp\n      swap1\n      div\n      0xffffffffffffffffffffffffffffffffffffffff\n      and\n        /* \"Documents/GitHub/Store-system-with-feedback/main.sol\":8810:8847  structUserLogins[login] == address(0) */\n      0xffffffffffffffffffffffffffffffffffffffff\n      and\n      eq\n        /* \"Documents/GitHub/Store-system-with-feedback/main.sol\":8802:8877  require(structUserLogins[login] == address(0), \"Error: User already exist\") */\n      tag_162\n      jumpi\n      mload(0x40)\n      0x08c379a000000000000000000000000000000000000000000000000000000000\n      dup2\n      mstore\n      0x04\n      add\n      tag_163\n      swap1\n      tag_164\n      jump\t// in\n    tag_163:\n      mload(0x40)\n      dup1\n      swap2\n      sub\n      swap1\n      revert\n    tag_162:\n        /* \"Documents/GitHub/Store-system-with-feedback/main.sol\":8908:8951  structUser(login, password, 1000, 0, false) */\n      mload(0x40)\n      dup1\n      0xa0\n      add\n      0x40\n      mstore\n      dup1\n        /* \"Documents/GitHub/Store-system-with-feedback/main.sol\":8919:8924  login */\n      dup4\n        /* \"Documents/GitHub/Store-system-with-feedback/main.sol\":8908:8951  structUser(login, password, 1000, 0, false) */\n      dup2\n      mstore\n      0x20\n      add\n        /* \"Documents/GitHub/Store-system-with-feedback/main.sol\":8926:8934  password */\n      dup3\n        /* \"Documents/GitHub/Store-system-with-feedback/main.sol\":8908:8951  structUser(login, password, 1000, 0, false) */\n      dup2\n      mstore\n      0x20\n      add\n        /* \"Documents/GitHub/Store-system-with-feedback/main.sol\":8936:8940  1000 */\n      0x03e8\n        /* \"Documents/GitHub/Store-system-with-feedback/main.sol\":8908:8951  structUser(login, password, 1000, 0, false) */\n      dup2\n      mstore\n      0x20\n      add\n        /* \"Documents/GitHub/Store-system-with-feedback/main.sol\":8942:8943  0 */\n      0x00\n        /* \"Documents/GitHub/Store-system-with-feedback/main.sol\":8908:8951  structUser(login, password, 1000, 0, false) */\n      dup2\n      mstore\n      0x20\n      add\n        /* \"Documents/GitHub/Store-system-with-feedback/main.sol\":8945:8950  false */\n      0x00\n        /* \"Documents/GitHub/Store-system-with-feedback/main.sol\":8908:8951  structUser(login, password, 1000, 0, false) */\n      iszero\n      iszero\n      dup2\n      mstore\n      pop\n        /* \"Documents/GitHub/Store-system-with-feedback/main.sol\":8888:8899  structUsers */\n      0x04\n        /* \"Documents/GitHub/Store-system-with-feedback/main.sol\":8888:8905  structUsers[addr] */\n      0x00\n        /* \"Documents/GitHub/Store-system-with-feedback/main.sol\":8900:8904  addr */\n      dup6\n        /* \"Documents/GitHub/Store-system-with-feedback/main.sol\":8888:8905  structUsers[addr] */\n      0xffffffffffffffffffffffffffffffffffffffff\n      and\n      0xffffffffffffffffffffffffffffffffffffffff\n      and\n      dup2\n      mstore\n      0x20\n      add\n      swap1\n      dup2\n      mstore\n      0x20\n      add\n      0x00\n      keccak256\n        /* \"Documents/GitHub/Store-system-with-feedback/main.sol\":8888:8951  structUsers[addr] = structUser(login, password, 1000, 0, false) */\n      0x00\n      dup3\n      add\n      mload\n      dup2\n      0x00\n      add\n      swap1\n      dup1\n      mload\n      swap1\n      0x20\n      add\n      swap1\n      tag_165\n      swap3\n      swap2\n      swap1\n      tag_166\n      jump\t// in\n    tag_165:\n      pop\n      0x20\n      dup3\n      add\n      mload\n      dup2\n      0x01\n      add\n      sstore\n      0x40\n      dup3\n      add\n      mload\n      dup2\n      0x02\n      add\n      sstore\n      0x60\n      dup3\n      add\n      mload\n      dup2\n      0x03\n      add\n      sstore\n      0x80\n      dup3\n      add\n      mload\n      dup2\n      0x04\n      add\n      exp(0x0100, 0x00)\n      dup2\n      sload\n      dup2\n      0xff\n      mul\n      not\n      and\n      swap1\n      dup4\n      iszero\n      iszero\n      mul\n      or\n      swap1\n      sstore\n      pop\n      swap1\n      pop\n      pop\n        /* \"Documents/GitHub/Store-system-with-feedback/main.sol\":8988:8992  addr */\n      dup3\n        /* \"Documents/GitHub/Store-system-with-feedback/main.sol\":8962:8978  structUserLogins */\n      0x05\n        /* \"Documents/GitHub/Store-system-with-feedback/main.sol\":8979:8984  login */\n      dup4\n        /* \"Documents/GitHub/Store-system-with-feedback/main.sol\":8962:8985  structUserLogins[login] */\n      mload(0x40)\n      tag_167\n      swap2\n      swap1\n      tag_161\n      jump\t// in\n    tag_167:\n      swap1\n      dup2\n      mstore\n      0x20\n      add\n      mload(0x40)\n      dup1\n      swap2\n      sub\n      swap1\n      keccak256\n      0x00\n        /* \"Documents/GitHub/Store-system-with-feedback/main.sol\":8962:8992  structUserLogins[login] = addr */\n      0x0100\n      exp\n      dup2\n      sload\n      dup2\n      0xffffffffffffffffffffffffffffffffffffffff\n      mul\n      not\n      and\n      swap1\n      dup4\n      0xffffffffffffffffffffffffffffffffffffffff\n      and\n      mul\n      or\n      swap1\n      sstore\n      pop\n        /* \"Documents/GitHub/Store-system-with-feedback/main.sol\":9003:9019  userAddressArray */\n      0x07\n        /* \"Documents/GitHub/Store-system-with-feedback/main.sol\":9025:9029  addr */\n      dup4\n        /* \"Documents/GitHub/Store-system-with-feedback/main.sol\":9003:9030  userAddressArray.push(addr) */\n      swap1\n      dup1\n      0x01\n      dup2\n      sload\n      add\n      dup1\n      dup3\n      sstore\n      dup1\n      swap2\n      pop\n      pop\n      0x01\n      swap1\n      sub\n      swap1\n      0x00\n      mstore\n      keccak256(0x00, 0x20)\n      add\n      0x00\n      swap1\n      swap2\n      swap1\n      swap2\n      swap1\n      swap2\n      0x0100\n      exp\n      dup2\n      sload\n      dup2\n      0xffffffffffffffffffffffffffffffffffffffff\n      mul\n      not\n      and\n      swap1\n      dup4\n      0xffffffffffffffffffffffffffffffffffffffff\n      and\n      mul\n      or\n      swap1\n      sstore\n      pop\n        /* \"Documents/GitHub/Store-system-with-feedback/main.sol\":8710:9038  function create_user(address addr, string memory login, bytes32 password) public {\r... */\n      pop\n      pop\n      pop\n      jump\t// out\n        /* \"Documents/GitHub/Store-system-with-feedback/main.sol\":7817:8088  function productPurchases (string memory titleProduct) public {\r... */\n    tag_41:\n        /* \"Documents/GitHub/Store-system-with-feedback/main.sol\":7934:7948  structProducts */\n      0x08\n        /* \"Documents/GitHub/Store-system-with-feedback/main.sol\":7949:7961  titleProduct */\n      dup2\n        /* \"Documents/GitHub/Store-system-with-feedback/main.sol\":7934:7962  structProducts[titleProduct] */\n      mload(0x40)\n      tag_170\n      swap2\n      swap1\n      tag_161\n      jump\t// in\n    tag_170:\n      swap1\n      dup2\n      mstore\n      0x20\n      add\n      mload(0x40)\n      dup1\n      swap2\n      sub\n      swap1\n      keccak256\n        /* \"Documents/GitHub/Store-system-with-feedback/main.sol\":7934:7968  structProducts[titleProduct].price */\n      0x02\n      add\n      sload\n        /* \"Documents/GitHub/Store-system-with-feedback/main.sol\":7898:7909  structUsers */\n      0x04\n        /* \"Documents/GitHub/Store-system-with-feedback/main.sol\":7898:7921  structUsers[msg.sender] */\n      0x00\n        /* \"Documents/GitHub/Store-system-with-feedback/main.sol\":7910:7920  msg.sender */\n      caller\n        /* \"Documents/GitHub/Store-system-with-feedback/main.sol\":7898:7921  structUsers[msg.sender] */\n      0xffffffffffffffffffffffffffffffffffffffff\n      and\n      0xffffffffffffffffffffffffffffffffffffffff\n      and\n      dup2\n      mstore\n      0x20\n      add\n      swap1\n      dup2\n      mstore\n      0x20\n      add\n      0x00\n      keccak256\n        /* \"Documents/GitHub/Store-system-with-feedback/main.sol\":7898:7930  structUsers[msg.sender].ballance */\n      0x02\n      add\n      sload\n        /* \"Documents/GitHub/Store-system-with-feedback/main.sol\":7898:7968  structUsers[msg.sender].ballance >= structProducts[titleProduct].price */\n      lt\n      iszero\n        /* \"Documents/GitHub/Store-system-with-feedback/main.sol\":7890:7989  require(structUsers[msg.sender].ballance >= structProducts[titleProduct].price, \"error: not money\") */\n      tag_171\n      jumpi\n      mload(0x40)\n      0x08c379a000000000000000000000000000000000000000000000000000000000\n      dup2\n      mstore\n      0x04\n      add\n      tag_172\n      swap1\n      tag_173\n      jump\t// in\n    tag_172:\n      mload(0x40)\n      dup1\n      swap2\n      sub\n      swap1\n      revert\n    tag_171:\n        /* \"Documents/GitHub/Store-system-with-feedback/main.sol\":8000:8021  structStatusPurchases */\n      0x0a\n        /* \"Documents/GitHub/Store-system-with-feedback/main.sol\":8027:8079  structStatusPurchase(msg.sender, titleProduct, true) */\n      mload(0x40)\n      dup1\n      0x60\n      add\n      0x40\n      mstore\n      dup1\n        /* \"Documents/GitHub/Store-system-with-feedback/main.sol\":8048:8058  msg.sender */\n      caller\n        /* \"Documents/GitHub/Store-system-with-feedback/main.sol\":8027:8079  structStatusPurchase(msg.sender, titleProduct, true) */\n      0xffffffffffffffffffffffffffffffffffffffff\n      and\n      dup2\n      mstore\n      0x20\n      add\n        /* \"Documents/GitHub/Store-system-with-feedback/main.sol\":8060:8072  titleProduct */\n      dup4\n        /* \"Documents/GitHub/Store-system-with-feedback/main.sol\":8027:8079  structStatusPurchase(msg.sender, titleProduct, true) */\n      dup2\n      mstore\n      0x20\n      add\n        /* \"Documents/GitHub/Store-system-with-feedback/main.sol\":8074:8078  true */\n      0x01\n        /* \"Documents/GitHub/Store-system-with-feedback/main.sol\":8027:8079  structStatusPurchase(msg.sender, titleProduct, true) */\n      iszero\n      iszero\n      dup2\n      mstore\n      pop\n        /* \"Documents/GitHub/Store-system-with-feedback/main.sol\":8000:8080  structStatusPurchases.push(structStatusPurchase(msg.sender, titleProduct, true)) */\n      swap1\n      dup1\n      0x01\n      dup2\n      sload\n      add\n      dup1\n      dup3\n      sstore\n      dup1\n      swap2\n      pop\n      pop\n      0x01\n      swap1\n      sub\n      swap1\n      0x00\n      mstore\n      keccak256(0x00, 0x20)\n      swap1\n      0x03\n      mul\n      add\n      0x00\n      swap1\n      swap2\n      swap1\n      swap2\n      swap1\n      swap2\n      pop\n      0x00\n      dup3\n      add\n      mload\n      dup2\n      0x00\n      add\n      exp(0x0100, 0x00)\n      dup2\n      sload\n      dup2\n      0xffffffffffffffffffffffffffffffffffffffff\n      mul\n      not\n      and\n      swap1\n      dup4\n      0xffffffffffffffffffffffffffffffffffffffff\n      and\n      mul\n      or\n      swap1\n      sstore\n      pop\n      0x20\n      dup3\n      add\n      mload\n      dup2\n      0x01\n      add\n      swap1\n      dup1\n      mload\n      swap1\n      0x20\n      add\n      swap1\n      tag_175\n      swap3\n      swap2\n      swap1\n      tag_166\n      jump\t// in\n    tag_175:\n      pop\n      0x40\n      dup3\n      add\n      mload\n      dup2\n      0x02\n      add\n      exp(0x0100, 0x00)\n      dup2\n      sload\n      dup2\n      0xff\n      mul\n      not\n      and\n      swap1\n      dup4\n      iszero\n      iszero\n      mul\n      or\n      swap1\n      sstore\n      pop\n      pop\n      pop\n        /* \"Documents/GitHub/Store-system-with-feedback/main.sol\":7817:8088  function productPurchases (string memory titleProduct) public {\r... */\n      pop\n      jump\t// out\n        /* \"Documents/GitHub/Store-system-with-feedback/main.sol\":2154:2204  mapping(string => address) public structUserLogins */\n    tag_44:\n      0x05\n      dup2\n      dup1\n      mload\n      0x20\n      dup2\n      add\n      dup3\n      add\n      dup1\n      mload\n      dup5\n      dup3\n      mstore\n      0x20\n      dup4\n      add\n      0x20\n      dup6\n      add\n      keccak256\n      dup2\n      dup4\n      mstore\n      dup1\n      swap6\n      pop\n      pop\n      pop\n      pop\n      pop\n      pop\n      0x00\n      swap2\n      pop\n      sload\n      swap1\n      0x0100\n      exp\n      swap1\n      div\n      0xffffffffffffffffffffffffffffffffffffffff\n      and\n      dup2\n      jump\t// out\n        /* \"Documents/GitHub/Store-system-with-feedback/main.sol\":7311:7730  function leaveComment (string memory userName, string[] memory comment) public {\r... */\n    tag_50:\n        /* \"Documents/GitHub/Store-system-with-feedback/main.sol\":7405:7411  uint i */\n      0x00\n        /* \"Documents/GitHub/Store-system-with-feedback/main.sol\":7401:7723  for(uint i = 0; i < complaintBooks.length; i++) {\r... */\n    tag_177:\n        /* \"Documents/GitHub/Store-system-with-feedback/main.sol\":7421:7435  complaintBooks */\n      0x03\n        /* \"Documents/GitHub/Store-system-with-feedback/main.sol\":7421:7442  complaintBooks.length */\n      dup1\n      sload\n      swap1\n      pop\n        /* \"Documents/GitHub/Store-system-with-feedback/main.sol\":7417:7418  i */\n      dup2\n        /* \"Documents/GitHub/Store-system-with-feedback/main.sol\":7417:7442  i < complaintBooks.length */\n      lt\n        /* \"Documents/GitHub/Store-system-with-feedback/main.sol\":7401:7723  for(uint i = 0; i < complaintBooks.length; i++) {\r... */\n      iszero\n      tag_178\n      jumpi\n        /* \"Documents/GitHub/Store-system-with-feedback/main.sol\":7464:7490  string memory tempUserName */\n      0x00\n        /* \"Documents/GitHub/Store-system-with-feedback/main.sol\":7493:7507  complaintBooks */\n      0x03\n        /* \"Documents/GitHub/Store-system-with-feedback/main.sol\":7508:7509  i */\n      dup3\n        /* \"Documents/GitHub/Store-system-with-feedback/main.sol\":7493:7510  complaintBooks[i] */\n      dup2\n      sload\n      dup2\n      lt\n      tag_180\n      jumpi\n      tag_181\n      tag_134\n      jump\t// in\n    tag_181:\n    tag_180:\n      swap1\n      0x00\n      mstore\n      keccak256(0x00, 0x20)\n      swap1\n      0x05\n      mul\n      add\n        /* \"Documents/GitHub/Store-system-with-feedback/main.sol\":7493:7519  complaintBooks[i].userName */\n      0x01\n      add\n        /* \"Documents/GitHub/Store-system-with-feedback/main.sol\":7464:7519  string memory tempUserName = complaintBooks[i].userName */\n      dup1\n      sload\n      tag_183\n      swap1\n      tag_184\n      jump\t// in\n    tag_183:\n      dup1\n      0x1f\n      add\n      0x20\n      dup1\n      swap2\n      div\n      mul\n      0x20\n      add\n      mload(0x40)\n      swap1\n      dup2\n      add\n      0x40\n      mstore\n      dup1\n      swap3\n      swap2\n      swap1\n      dup2\n      dup2\n      mstore\n      0x20\n      add\n      dup3\n      dup1\n      sload\n      tag_185\n      swap1\n      tag_184\n      jump\t// in\n    tag_185:\n      dup1\n      iszero\n      tag_186\n      jumpi\n      dup1\n      0x1f\n      lt\n      tag_187\n      jumpi\n      0x0100\n      dup1\n      dup4\n      sload\n      div\n      mul\n      dup4\n      mstore\n      swap2\n      0x20\n      add\n      swap2\n      jump(tag_186)\n    tag_187:\n      dup3\n      add\n      swap2\n      swap1\n      0x00\n      mstore\n      keccak256(0x00, 0x20)\n      swap1\n    tag_188:\n      dup2\n      sload\n      dup2\n      mstore\n      swap1\n      0x01\n      add\n      swap1\n      0x20\n      add\n      dup1\n      dup4\n      gt\n      tag_188\n      jumpi\n      dup3\n      swap1\n      sub\n      0x1f\n      and\n      dup3\n      add\n      swap2\n    tag_186:\n      pop\n      pop\n      pop\n      pop\n      pop\n      swap1\n      pop\n        /* \"Documents/GitHub/Store-system-with-feedback/main.sol\":7609:7617  userName */\n      dup4\n        /* \"Documents/GitHub/Store-system-with-feedback/main.sol\":7592:7618  abi.encodePacked(userName) */\n      add(0x20, mload(0x40))\n      tag_189\n      swap2\n      swap1\n      tag_161\n      jump\t// in\n    tag_189:\n      mload(0x40)\n      0x20\n      dup2\n      dup4\n      sub\n      sub\n      dup2\n      mstore\n      swap1\n      0x40\n      mstore\n        /* \"Documents/GitHub/Store-system-with-feedback/main.sol\":7582:7619  keccak256(abi.encodePacked(userName)) */\n      dup1\n      mload\n      swap1\n      0x20\n      add\n      keccak256\n        /* \"Documents/GitHub/Store-system-with-feedback/main.sol\":7564:7576  tempUserName */\n      dup2\n        /* \"Documents/GitHub/Store-system-with-feedback/main.sol\":7547:7577  abi.encodePacked(tempUserName) */\n      add(0x20, mload(0x40))\n      tag_190\n      swap2\n      swap1\n      tag_161\n      jump\t// in\n    tag_190:\n      mload(0x40)\n      0x20\n      dup2\n      dup4\n      sub\n      sub\n      dup2\n      mstore\n      swap1\n      0x40\n      mstore\n        /* \"Documents/GitHub/Store-system-with-feedback/main.sol\":7537:7578  keccak256(abi.encodePacked(tempUserName)) */\n      dup1\n      mload\n      swap1\n      0x20\n      add\n      keccak256\n        /* \"Documents/GitHub/Store-system-with-feedback/main.sol\":7537:7619  keccak256(abi.encodePacked(tempUserName)) == keccak256(abi.encodePacked(userName)) */\n      eq\n        /* \"Documents/GitHub/Store-system-with-feedback/main.sol\":7534:7712  if(keccak256(abi.encodePacked(tempUserName)) == keccak256(abi.encodePacked(userName))) {                    \r... */\n      iszero\n      tag_191\n      jumpi\n        /* \"Documents/GitHub/Store-system-with-feedback/main.sol\":7689:7696  comment */\n      dup3\n        /* \"Documents/GitHub/Store-system-with-feedback/main.sol\":7660:7674  complaintBooks */\n      0x03\n        /* \"Documents/GitHub/Store-system-with-feedback/main.sol\":7675:7676  i */\n      dup4\n        /* \"Documents/GitHub/Store-system-with-feedback/main.sol\":7660:7677  complaintBooks[i] */\n      dup2\n      sload\n      dup2\n      lt\n      tag_192\n      jumpi\n      tag_193\n      tag_134\n      jump\t// in\n    tag_193:\n    tag_192:\n      swap1\n      0x00\n      mstore\n      keccak256(0x00, 0x20)\n      swap1\n      0x05\n      mul\n      add\n        /* \"Documents/GitHub/Store-system-with-feedback/main.sol\":7660:7686  complaintBooks[i].comments */\n      0x04\n      add\n        /* \"Documents/GitHub/Store-system-with-feedback/main.sol\":7660:7696  complaintBooks[i].comments = comment */\n      swap1\n      dup1\n      mload\n      swap1\n      0x20\n      add\n      swap1\n      tag_195\n      swap3\n      swap2\n      swap1\n      tag_196\n      jump\t// in\n    tag_195:\n      pop\n        /* \"Documents/GitHub/Store-system-with-feedback/main.sol\":7534:7712  if(keccak256(abi.encodePacked(tempUserName)) == keccak256(abi.encodePacked(userName))) {                    \r... */\n    tag_191:\n        /* \"Documents/GitHub/Store-system-with-feedback/main.sol\":7449:7723  {\r... */\n      pop\n        /* \"Documents/GitHub/Store-system-with-feedback/main.sol\":7444:7447  i++ */\n      dup1\n      dup1\n      tag_197\n      swap1\n      tag_198\n      jump\t// in\n    tag_197:\n      swap2\n      pop\n      pop\n        /* \"Documents/GitHub/Store-system-with-feedback/main.sol\":7401:7723  for(uint i = 0; i < complaintBooks.length; i++) {\r... */\n      jump(tag_177)\n    tag_178:\n      pop\n        /* \"Documents/GitHub/Store-system-with-feedback/main.sol\":7311:7730  function leaveComment (string memory userName, string[] memory comment) public {\r... */\n      pop\n      pop\n      jump\t// out\n        /* \"Documents/GitHub/Store-system-with-feedback/main.sol\":5038:5499  function acceptReturn(uint idReturn, bool confirmation) public {\r... */\n    tag_53:\n        /* \"Documents/GitHub/Store-system-with-feedback/main.sol\":5131:5135  true */\n      0x01\n        /* \"Documents/GitHub/Store-system-with-feedback/main.sol\":5115:5135  confirmation == true */\n      iszero\n      iszero\n        /* \"Documents/GitHub/Store-system-with-feedback/main.sol\":5115:5127  confirmation */\n      dup2\n        /* \"Documents/GitHub/Store-system-with-feedback/main.sol\":5115:5135  confirmation == true */\n      iszero\n      iszero\n      eq\n        /* \"Documents/GitHub/Store-system-with-feedback/main.sol\":5112:5492  if(confirmation == true) {\r... */\n      iszero\n      tag_200\n      jumpi\n        /* \"Documents/GitHub/Store-system-with-feedback/main.sol\":5191:5196  false */\n      0x00\n        /* \"Documents/GitHub/Store-system-with-feedback/main.sol\":5152:5171  structStatusReturns */\n      0x0b\n        /* \"Documents/GitHub/Store-system-with-feedback/main.sol\":5172:5180  idReturn */\n      dup4\n        /* \"Documents/GitHub/Store-system-with-feedback/main.sol\":5152:5181  structStatusReturns[idReturn] */\n      dup2\n      sload\n      dup2\n      lt\n      tag_201\n      jumpi\n      tag_202\n      tag_134\n      jump\t// in\n    tag_202:\n    tag_201:\n      swap1\n      0x00\n      mstore\n      keccak256(0x00, 0x20)\n      swap1\n      0x03\n      mul\n      add\n        /* \"Documents/GitHub/Store-system-with-feedback/main.sol\":5152:5188  structStatusReturns[idReturn].status */\n      0x02\n      add\n      0x00\n        /* \"Documents/GitHub/Store-system-with-feedback/main.sol\":5152:5196  structStatusReturns[idReturn].status = false */\n      0x0100\n      exp\n      dup2\n      sload\n      dup2\n      0xff\n      mul\n      not\n      and\n      swap1\n      dup4\n      iszero\n      iszero\n      mul\n      or\n      swap1\n      sstore\n      pop\n        /* \"Documents/GitHub/Store-system-with-feedback/main.sol\":5339:5353  structProducts */\n      0x08\n        /* \"Documents/GitHub/Store-system-with-feedback/main.sol\":5354:5373  structStatusReturns */\n      0x0b\n        /* \"Documents/GitHub/Store-system-with-feedback/main.sol\":5374:5382  idReturn */\n      dup4\n        /* \"Documents/GitHub/Store-system-with-feedback/main.sol\":5354:5383  structStatusReturns[idReturn] */\n      dup2\n      sload\n      dup2\n      lt\n      tag_204\n      jumpi\n      tag_205\n      tag_134\n      jump\t// in\n    tag_205:\n    tag_204:\n      swap1\n      0x00\n      mstore\n      keccak256(0x00, 0x20)\n      swap1\n      0x03\n      mul\n      add\n        /* \"Documents/GitHub/Store-system-with-feedback/main.sol\":5354:5396  structStatusReturns[idReturn].titleProduct */\n      0x01\n      add\n        /* \"Documents/GitHub/Store-system-with-feedback/main.sol\":5339:5397  structProducts[structStatusReturns[idReturn].titleProduct] */\n      mload(0x40)\n      tag_207\n      swap2\n      swap1\n      tag_140\n      jump\t// in\n    tag_207:\n      swap1\n      dup2\n      mstore\n      0x20\n      add\n      mload(0x40)\n      dup1\n      swap2\n      sub\n      swap1\n      keccak256\n        /* \"Documents/GitHub/Store-system-with-feedback/main.sol\":5339:5403  structProducts[structStatusReturns[idReturn].titleProduct].price */\n      0x02\n      add\n      sload\n        /* \"Documents/GitHub/Store-system-with-feedback/main.sol\":5275:5286  structUsers */\n      0x04\n        /* \"Documents/GitHub/Store-system-with-feedback/main.sol\":5275:5327  structUsers[structStatusReturns[idReturn].userLogin] */\n      0x00\n        /* \"Documents/GitHub/Store-system-with-feedback/main.sol\":5287:5306  structStatusReturns */\n      0x0b\n        /* \"Documents/GitHub/Store-system-with-feedback/main.sol\":5307:5315  idReturn */\n      dup6\n        /* \"Documents/GitHub/Store-system-with-feedback/main.sol\":5287:5316  structStatusReturns[idReturn] */\n      dup2\n      sload\n      dup2\n      lt\n      tag_208\n      jumpi\n      tag_209\n      tag_134\n      jump\t// in\n    tag_209:\n    tag_208:\n      swap1\n      0x00\n      mstore\n      keccak256(0x00, 0x20)\n      swap1\n      0x03\n      mul\n      add\n        /* \"Documents/GitHub/Store-system-with-feedback/main.sol\":5287:5326  structStatusReturns[idReturn].userLogin */\n      0x00\n      add\n      0x00\n      swap1\n      sload\n      swap1\n      0x0100\n      exp\n      swap1\n      div\n      0xffffffffffffffffffffffffffffffffffffffff\n      and\n        /* \"Documents/GitHub/Store-system-with-feedback/main.sol\":5275:5327  structUsers[structStatusReturns[idReturn].userLogin] */\n      0xffffffffffffffffffffffffffffffffffffffff\n      and\n      0xffffffffffffffffffffffffffffffffffffffff\n      and\n      dup2\n      mstore\n      0x20\n      add\n      swap1\n      dup2\n      mstore\n      0x20\n      add\n      0x00\n      keccak256\n        /* \"Documents/GitHub/Store-system-with-feedback/main.sol\":5275:5336  structUsers[structStatusReturns[idReturn].userLogin].ballance */\n      0x02\n      add\n      sload\n        /* \"Documents/GitHub/Store-system-with-feedback/main.sol\":5275:5403  structUsers[structStatusReturns[idReturn].userLogin].ballance + structProducts[structStatusReturns[idReturn].titleProduct].price */\n      tag_211\n      swap2\n      swap1\n      tag_154\n      jump\t// in\n    tag_211:\n        /* \"Documents/GitHub/Store-system-with-feedback/main.sol\":5211:5222  structUsers */\n      0x04\n        /* \"Documents/GitHub/Store-system-with-feedback/main.sol\":5211:5263  structUsers[structStatusReturns[idReturn].userLogin] */\n      0x00\n        /* \"Documents/GitHub/Store-system-with-feedback/main.sol\":5223:5242  structStatusReturns */\n      0x0b\n        /* \"Documents/GitHub/Store-system-with-feedback/main.sol\":5243:5251  idReturn */\n      dup6\n        /* \"Documents/GitHub/Store-system-with-feedback/main.sol\":5223:5252  structStatusReturns[idReturn] */\n      dup2\n      sload\n      dup2\n      lt\n      tag_212\n      jumpi\n      tag_213\n      tag_134\n      jump\t// in\n    tag_213:\n    tag_212:\n      swap1\n      0x00\n      mstore\n      keccak256(0x00, 0x20)\n      swap1\n      0x03\n      mul\n      add\n        /* \"Documents/GitHub/Store-system-with-feedback/main.sol\":5223:5262  structStatusReturns[idReturn].userLogin */\n      0x00\n      add\n      0x00\n      swap1\n      sload\n      swap1\n      0x0100\n      exp\n      swap1\n      div\n      0xffffffffffffffffffffffffffffffffffffffff\n      and\n        /* \"Documents/GitHub/Store-system-with-feedback/main.sol\":5211:5263  structUsers[structStatusReturns[idReturn].userLogin] */\n      0xffffffffffffffffffffffffffffffffffffffff\n      and\n      0xffffffffffffffffffffffffffffffffffffffff\n      and\n      dup2\n      mstore\n      0x20\n      add\n      swap1\n      dup2\n      mstore\n      0x20\n      add\n      0x00\n      keccak256\n        /* \"Documents/GitHub/Store-system-with-feedback/main.sol\":5211:5272  structUsers[structStatusReturns[idReturn].userLogin].ballance */\n      0x02\n      add\n        /* \"Documents/GitHub/Store-system-with-feedback/main.sol\":5211:5403  structUsers[structStatusReturns[idReturn].userLogin].ballance = structUsers[structStatusReturns[idReturn].userLogin].ballance + structProducts[structStatusReturns[idReturn].titleProduct].price */\n      dup2\n      swap1\n      sstore\n      pop\n        /* \"Documents/GitHub/Store-system-with-feedback/main.sol\":5112:5492  if(confirmation == true) {\r... */\n      jump(tag_215)\n    tag_200:\n        /* \"Documents/GitHub/Store-system-with-feedback/main.sol\":5475:5480  false */\n      0x00\n        /* \"Documents/GitHub/Store-system-with-feedback/main.sol\":5436:5455  structStatusReturns */\n      0x0b\n        /* \"Documents/GitHub/Store-system-with-feedback/main.sol\":5456:5464  idReturn */\n      dup4\n        /* \"Documents/GitHub/Store-system-with-feedback/main.sol\":5436:5465  structStatusReturns[idReturn] */\n      dup2\n      sload\n      dup2\n      lt\n      tag_216\n      jumpi\n      tag_217\n      tag_134\n      jump\t// in\n    tag_217:\n    tag_216:\n      swap1\n      0x00\n      mstore\n      keccak256(0x00, 0x20)\n      swap1\n      0x03\n      mul\n      add\n        /* \"Documents/GitHub/Store-system-with-feedback/main.sol\":5436:5472  structStatusReturns[idReturn].status */\n      0x02\n      add\n      0x00\n        /* \"Documents/GitHub/Store-system-with-feedback/main.sol\":5436:5480  structStatusReturns[idReturn].status = false */\n      0x0100\n      exp\n      dup2\n      sload\n      dup2\n      0xff\n      mul\n      not\n      and\n      swap1\n      dup4\n      iszero\n      iszero\n      mul\n      or\n      swap1\n      sstore\n      pop\n        /* \"Documents/GitHub/Store-system-with-feedback/main.sol\":5112:5492  if(confirmation == true) {\r... */\n    tag_215:\n        /* \"Documents/GitHub/Store-system-with-feedback/main.sol\":5038:5499  function acceptReturn(uint idReturn, bool confirmation) public {\r... */\n      pop\n      pop\n      jump\t// out\n        /* \"Documents/GitHub/Store-system-with-feedback/main.sol\":8327:8511  function productMarriageRegistration (string memory titleProduct) public {\r... */\n    tag_56:\n        /* \"Documents/GitHub/Store-system-with-feedback/main.sol\":8411:8438  structMarriageRegistrations */\n      0x0c\n        /* \"Documents/GitHub/Store-system-with-feedback/main.sol\":8444:8502  structMarriageRegistration(msg.sender, titleProduct, true) */\n      mload(0x40)\n      dup1\n      0x60\n      add\n      0x40\n      mstore\n      dup1\n        /* \"Documents/GitHub/Store-system-with-feedback/main.sol\":8471:8481  msg.sender */\n      caller\n        /* \"Documents/GitHub/Store-system-with-feedback/main.sol\":8444:8502  structMarriageRegistration(msg.sender, titleProduct, true) */\n      0xffffffffffffffffffffffffffffffffffffffff\n      and\n      dup2\n      mstore\n      0x20\n      add\n        /* \"Documents/GitHub/Store-system-with-feedback/main.sol\":8483:8495  titleProduct */\n      dup4\n        /* \"Documents/GitHub/Store-system-with-feedback/main.sol\":8444:8502  structMarriageRegistration(msg.sender, titleProduct, true) */\n      dup2\n      mstore\n      0x20\n      add\n        /* \"Documents/GitHub/Store-system-with-feedback/main.sol\":8497:8501  true */\n      0x01\n        /* \"Documents/GitHub/Store-system-with-feedback/main.sol\":8444:8502  structMarriageRegistration(msg.sender, titleProduct, true) */\n      iszero\n      iszero\n      dup2\n      mstore\n      pop\n        /* \"Documents/GitHub/Store-system-with-feedback/main.sol\":8411:8503  structMarriageRegistrations.push(structMarriageRegistration(msg.sender, titleProduct, true)) */\n      swap1\n      dup1\n      0x01\n      dup2\n      sload\n      add\n      dup1\n      dup3\n      sstore\n      dup1\n      swap2\n      pop\n      pop\n      0x01\n      swap1\n      sub\n      swap1\n      0x00\n      mstore\n      keccak256(0x00, 0x20)\n      swap1\n      0x03\n      mul\n      add\n      0x00\n      swap1\n      swap2\n      swap1\n      swap2\n      swap1\n      swap2\n      pop\n      0x00\n      dup3\n      add\n      mload\n      dup2\n      0x00\n      add\n      exp(0x0100, 0x00)\n      dup2\n      sload\n      dup2\n      0xffffffffffffffffffffffffffffffffffffffff\n      mul\n      not\n      and\n      swap1\n      dup4\n      0xffffffffffffffffffffffffffffffffffffffff\n      and\n      mul\n      or\n      swap1\n      sstore\n      pop\n      0x20\n      dup3\n      add\n      mload\n      dup2\n      0x01\n      add\n      swap1\n      dup1\n      mload\n      swap1\n      0x20\n      add\n      swap1\n      tag_221\n      swap3\n      swap2\n      swap1\n      tag_166\n      jump\t// in\n    tag_221:\n      pop\n      0x40\n      dup3\n      add\n      mload\n      dup2\n      0x02\n      add\n      exp(0x0100, 0x00)\n      dup2\n      sload\n      dup2\n      0xff\n      mul\n      not\n      and\n      swap1\n      dup4\n      iszero\n      iszero\n      mul\n      or\n      swap1\n      sstore\n      pop\n      pop\n      pop\n        /* \"Documents/GitHub/Store-system-with-feedback/main.sol\":8327:8511  function productMarriageRegistration (string memory titleProduct) public {\r... */\n      pop\n      jump\t// out\n        /* \"Documents/GitHub/Store-system-with-feedback/main.sol\":6286:6386  function getProductList() public view returns(string[] memory) {\r... */\n    tag_58:\n        /* \"Documents/GitHub/Store-system-with-feedback/main.sol\":6332:6347  string[] memory */\n      0x60\n        /* \"Documents/GitHub/Store-system-with-feedback/main.sol\":6367:6378  productList */\n      0x09\n        /* \"Documents/GitHub/Store-system-with-feedback/main.sol\":6360:6378  return productList */\n      dup1\n      sload\n      dup1\n      0x20\n      mul\n      0x20\n      add\n      mload(0x40)\n      swap1\n      dup2\n      add\n      0x40\n      mstore\n      dup1\n      swap3\n      swap2\n      swap1\n      dup2\n      dup2\n      mstore\n      0x20\n      add\n      0x00\n      swap1\n    tag_223:\n      dup3\n      dup3\n      lt\n      iszero\n      tag_224\n      jumpi\n      dup4\n      dup3\n      swap1\n      0x00\n      mstore\n      keccak256(0x00, 0x20)\n      add\n      dup1\n      sload\n      tag_226\n      swap1\n      tag_184\n      jump\t// in\n    tag_226:\n      dup1\n      0x1f\n      add\n      0x20\n      dup1\n      swap2\n      div\n      mul\n      0x20\n      add\n      mload(0x40)\n      swap1\n      dup2\n      add\n      0x40\n      mstore\n      dup1\n      swap3\n      swap2\n      swap1\n      dup2\n      dup2\n      mstore\n      0x20\n      add\n      dup3\n      dup1\n      sload\n      tag_227\n      swap1\n      tag_184\n      jump\t// in\n    tag_227:\n      dup1\n      iszero\n      tag_228\n      jumpi\n      dup1\n      0x1f\n      lt\n      tag_229\n      jumpi\n      0x0100\n      dup1\n      dup4\n      sload\n      div\n      mul\n      dup4\n      mstore\n      swap2\n      0x20\n      add\n      swap2\n      jump(tag_228)\n    tag_229:\n      dup3\n      add\n      swap2\n      swap1\n      0x00\n      mstore\n      keccak256(0x00, 0x20)\n      swap1\n    tag_230:\n      dup2\n      sload\n      dup2\n      mstore\n      swap1\n      0x01\n      add\n      swap1\n      0x20\n      add\n      dup1\n      dup4\n      gt\n      tag_230\n      jumpi\n      dup3\n      swap1\n      sub\n      0x1f\n      and\n      dup3\n      add\n      swap2\n    tag_228:\n      pop\n      pop\n      pop\n      pop\n      pop\n      dup2\n      mstore\n      0x20\n      add\n      swap1\n      0x01\n      add\n      swap1\n      jump(tag_223)\n    tag_224:\n      pop\n      pop\n      pop\n      pop\n      swap1\n      pop\n        /* \"Documents/GitHub/Store-system-with-feedback/main.sol\":6286:6386  function getProductList() public view returns(string[] memory) {\r... */\n      swap1\n      jump\t// out\n        /* \"Documents/GitHub/Store-system-with-feedback/main.sol\":8555:8676  function get_address(string memory login) public view returns(address) {\r... */\n    tag_63:\n        /* \"Documents/GitHub/Store-system-with-feedback/main.sol\":8617:8624  address */\n      0x00\n        /* \"Documents/GitHub/Store-system-with-feedback/main.sol\":8644:8660  structUserLogins */\n      0x05\n        /* \"Documents/GitHub/Store-system-with-feedback/main.sol\":8661:8666  login */\n      dup3\n        /* \"Documents/GitHub/Store-system-with-feedback/main.sol\":8644:8667  structUserLogins[login] */\n      mload(0x40)\n      tag_232\n      swap2\n      swap1\n      tag_161\n      jump\t// in\n    tag_232:\n      swap1\n      dup2\n      mstore\n      0x20\n      add\n      mload(0x40)\n      dup1\n      swap2\n      sub\n      swap1\n      keccak256\n      0x00\n      swap1\n      sload\n      swap1\n      0x0100\n      exp\n      swap1\n      div\n      0xffffffffffffffffffffffffffffffffffffffff\n      and\n        /* \"Documents/GitHub/Store-system-with-feedback/main.sol\":8637:8668  return(structUserLogins[login]) */\n      swap1\n      pop\n        /* \"Documents/GitHub/Store-system-with-feedback/main.sol\":8555:8676  function get_address(string memory login) public view returns(address) {\r... */\n      swap2\n      swap1\n      pop\n      jump\t// out\n        /* \"Documents/GitHub/Store-system-with-feedback/main.sol\":3286:3685  function addProductShop (string memory title, uint256 price, string memory description) public {\r... */\n    tag_68:\n        /* \"Documents/GitHub/Store-system-with-feedback/main.sol\":3501:3573  structProduct(msg.sender, description , price, addProductShop_idProduct) */\n      mload(0x40)\n      dup1\n      0x80\n      add\n      0x40\n      mstore\n      dup1\n        /* \"Documents/GitHub/Store-system-with-feedback/main.sol\":3515:3525  msg.sender */\n      caller\n        /* \"Documents/GitHub/Store-system-with-feedback/main.sol\":3501:3573  structProduct(msg.sender, description , price, addProductShop_idProduct) */\n      0xffffffffffffffffffffffffffffffffffffffff\n      and\n      dup2\n      mstore\n      0x20\n      add\n        /* \"Documents/GitHub/Store-system-with-feedback/main.sol\":3527:3538  description */\n      dup3\n        /* \"Documents/GitHub/Store-system-with-feedback/main.sol\":3501:3573  structProduct(msg.sender, description , price, addProductShop_idProduct) */\n      dup2\n      mstore\n      0x20\n      add\n        /* \"Documents/GitHub/Store-system-with-feedback/main.sol\":3541:3546  price */\n      dup4\n        /* \"Documents/GitHub/Store-system-with-feedback/main.sol\":3501:3573  structProduct(msg.sender, description , price, addProductShop_idProduct) */\n      dup2\n      mstore\n      0x20\n      add\n        /* \"Documents/GitHub/Store-system-with-feedback/main.sol\":3548:3572  addProductShop_idProduct */\n      sload(0x0d)\n        /* \"Documents/GitHub/Store-system-with-feedback/main.sol\":3501:3573  structProduct(msg.sender, description , price, addProductShop_idProduct) */\n      dup2\n      mstore\n      pop\n        /* \"Documents/GitHub/Store-system-with-feedback/main.sol\":3477:3491  structProducts */\n      0x08\n        /* \"Documents/GitHub/Store-system-with-feedback/main.sol\":3492:3497  title */\n      dup5\n        /* \"Documents/GitHub/Store-system-with-feedback/main.sol\":3477:3498  structProducts[title] */\n      mload(0x40)\n      tag_234\n      swap2\n      swap1\n      tag_161\n      jump\t// in\n    tag_234:\n      swap1\n      dup2\n      mstore\n      0x20\n      add\n      mload(0x40)\n      dup1\n      swap2\n      sub\n      swap1\n      keccak256\n        /* \"Documents/GitHub/Store-system-with-feedback/main.sol\":3477:3573  structProducts[title] = structProduct(msg.sender, description , price, addProductShop_idProduct) */\n      0x00\n      dup3\n      add\n      mload\n      dup2\n      0x00\n      add\n      exp(0x0100, 0x00)\n      dup2\n      sload\n      dup2\n      0xffffffffffffffffffffffffffffffffffffffff\n      mul\n      not\n      and\n      swap1\n      dup4\n      0xffffffffffffffffffffffffffffffffffffffff\n      and\n      mul\n      or\n      swap1\n      sstore\n      pop\n      0x20\n      dup3\n      add\n      mload\n      dup2\n      0x01\n      add\n      swap1\n      dup1\n      mload\n      swap1\n      0x20\n      add\n      swap1\n      tag_235\n      swap3\n      swap2\n      swap1\n      tag_166\n      jump\t// in\n    tag_235:\n      pop\n      0x40\n      dup3\n      add\n      mload\n      dup2\n      0x02\n      add\n      sstore\n      0x60\n      dup3\n      add\n      mload\n      dup2\n      0x03\n      add\n      sstore\n      swap1\n      pop\n      pop\n        /* \"Documents/GitHub/Store-system-with-feedback/main.sol\":3588:3599  productList */\n      0x09\n        /* \"Documents/GitHub/Store-system-with-feedback/main.sol\":3605:3610  title */\n      dup4\n        /* \"Documents/GitHub/Store-system-with-feedback/main.sol\":3588:3611  productList.push(title) */\n      swap1\n      dup1\n      0x01\n      dup2\n      sload\n      add\n      dup1\n      dup3\n      sstore\n      dup1\n      swap2\n      pop\n      pop\n      0x01\n      swap1\n      sub\n      swap1\n      0x00\n      mstore\n      keccak256(0x00, 0x20)\n      add\n      0x00\n      swap1\n      swap2\n      swap1\n      swap2\n      swap1\n      swap2\n      pop\n      swap1\n      dup1\n      mload\n      swap1\n      0x20\n      add\n      swap1\n      tag_237\n      swap3\n      swap2\n      swap1\n      tag_166\n      jump\t// in\n    tag_237:\n      pop\n        /* \"Documents/GitHub/Store-system-with-feedback/main.sol\":3626:3650  addProductShop_idProduct */\n      0x0d\n      0x00\n        /* \"Documents/GitHub/Store-system-with-feedback/main.sol\":3626:3652  addProductShop_idProduct++ */\n      dup2\n      sload\n      dup1\n      swap3\n      swap2\n      swap1\n      tag_238\n      swap1\n      tag_198\n      jump\t// in\n    tag_238:\n      swap2\n      swap1\n      pop\n      sstore\n      pop\n        /* \"Documents/GitHub/Store-system-with-feedback/main.sol\":3286:3685  function addProductShop (string memory title, uint256 price, string memory description) public {\r... */\n      pop\n      pop\n      pop\n      jump\t// out\n        /* \"Documents/GitHub/Store-system-with-feedback/main.sol\":3101:3164  structMarriageRegistration[] public structMarriageRegistrations */\n    tag_72:\n      0x0c\n      dup2\n      dup2\n      sload\n      dup2\n      lt\n      tag_239\n      jumpi\n      0x00\n      dup1\n      revert\n    tag_239:\n      swap1\n      0x00\n      mstore\n      keccak256(0x00, 0x20)\n      swap1\n      0x03\n      mul\n      add\n      0x00\n      swap2\n      pop\n      swap1\n      pop\n      dup1\n      0x00\n      add\n      0x00\n      swap1\n      sload\n      swap1\n      0x0100\n      exp\n      swap1\n      div\n      0xffffffffffffffffffffffffffffffffffffffff\n      and\n      swap1\n      dup1\n      0x01\n      add\n      dup1\n      sload\n      tag_241\n      swap1\n      tag_184\n      jump\t// in\n    tag_241:\n      dup1\n      0x1f\n      add\n      0x20\n      dup1\n      swap2\n      div\n      mul\n      0x20\n      add\n      mload(0x40)\n      swap1\n      dup2\n      add\n      0x40\n      mstore\n      dup1\n      swap3\n      swap2\n      swap1\n      dup2\n      dup2\n      mstore\n      0x20\n      add\n      dup3\n      dup1\n      sload\n      tag_242\n      swap1\n      tag_184\n      jump\t// in\n    tag_242:\n      dup1\n      iszero\n      tag_243\n      jumpi\n      dup1\n      0x1f\n      lt\n      tag_244\n      jumpi\n      0x0100\n      dup1\n      dup4\n      sload\n      div\n      mul\n      dup4\n      mstore\n      swap2\n      0x20\n      add\n      swap2\n      jump(tag_243)\n    tag_244:\n      dup3\n      add\n      swap2\n      swap1\n      0x00\n      mstore\n      keccak256(0x00, 0x20)\n      swap1\n    tag_245:\n      dup2\n      sload\n      dup2\n      mstore\n      swap1\n      0x01\n      add\n      swap1\n      0x20\n      add\n      dup1\n      dup4\n      gt\n      tag_245\n      jumpi\n      dup3\n      swap1\n      sub\n      0x1f\n      and\n      dup3\n      add\n      swap2\n    tag_243:\n      pop\n      pop\n      pop\n      pop\n      pop\n      swap1\n      dup1\n      0x02\n      add\n      0x00\n      swap1\n      sload\n      swap1\n      0x0100\n      exp\n      swap1\n      div\n      0xff\n      and\n      swap1\n      pop\n      dup4\n      jump\t// out\n        /* \"Documents/GitHub/Store-system-with-feedback/main.sol\":961:1104  function get_hash(string memory password) public pure returns(bytes32) {\r... */\n    tag_77:\n        /* \"Documents/GitHub/Store-system-with-feedback/main.sol\":1023:1030  bytes32 */\n      0x00\n        /* \"Documents/GitHub/Store-system-with-feedback/main.sol\":1081:1089  password */\n      dup2\n        /* \"Documents/GitHub/Store-system-with-feedback/main.sol\":1064:1090  abi.encodePacked(password) */\n      add(0x20, mload(0x40))\n      tag_247\n      swap2\n      swap1\n      tag_161\n      jump\t// in\n    tag_247:\n      mload(0x40)\n      0x20\n      dup2\n      dup4\n      sub\n      sub\n      dup2\n      mstore\n      swap1\n      0x40\n      mstore\n        /* \"Documents/GitHub/Store-system-with-feedback/main.sol\":1054:1091  keccak256(abi.encodePacked(password)) */\n      dup1\n      mload\n      swap1\n      0x20\n      add\n      keccak256\n        /* \"Documents/GitHub/Store-system-with-feedback/main.sol\":1047:1092  return(keccak256(abi.encodePacked(password))) */\n      swap1\n      pop\n        /* \"Documents/GitHub/Store-system-with-feedback/main.sol\":961:1104  function get_hash(string memory password) public pure returns(bytes32) {\r... */\n      swap2\n      swap1\n      pop\n      jump\t// out\n        /* \"Documents/GitHub/Store-system-with-feedback/main.sol\":2098:2147  mapping(address => structUser) public structUsers */\n    tag_83:\n      mstore(0x20, 0x04)\n      dup1\n      0x00\n      mstore\n      keccak256(0x00, 0x40)\n      0x00\n      swap2\n      pop\n      swap1\n      pop\n      dup1\n      0x00\n      add\n      dup1\n      sload\n      tag_248\n      swap1\n      tag_184\n      jump\t// in\n    tag_248:\n      dup1\n      0x1f\n      add\n      0x20\n      dup1\n      swap2\n      div\n      mul\n      0x20\n      add\n      mload(0x40)\n      swap1\n      dup2\n      add\n      0x40\n      mstore\n      dup1\n      swap3\n      swap2\n      swap1\n      dup2\n      dup2\n      mstore\n      0x20\n      add\n      dup3\n      dup1\n      sload\n      tag_249\n      swap1\n      tag_184\n      jump\t// in\n    tag_249:\n      dup1\n      iszero\n      tag_250\n      jumpi\n      dup1\n      0x1f\n      lt\n      tag_251\n      jumpi\n      0x0100\n      dup1\n      dup4\n      sload\n      div\n      mul\n      dup4\n      mstore\n      swap2\n      0x20\n      add\n      swap2\n      jump(tag_250)\n    tag_251:\n      dup3\n      add\n      swap2\n      swap1\n      0x00\n      mstore\n      keccak256(0x00, 0x20)\n      swap1\n    tag_252:\n      dup2\n      sload\n      dup2\n      mstore\n      swap1\n      0x01\n      add\n      swap1\n      0x20\n      add\n      dup1\n      dup4\n      gt\n      tag_252\n      jumpi\n      dup3\n      swap1\n      sub\n      0x1f\n      and\n      dup3\n      add\n      swap2\n    tag_250:\n      pop\n      pop\n      pop\n      pop\n      pop\n      swap1\n      dup1\n      0x01\n      add\n      sload\n      swap1\n      dup1\n      0x02\n      add\n      sload\n      swap1\n      dup1\n      0x03\n      add\n      sload\n      swap1\n      dup1\n      0x04\n      add\n      0x00\n      swap1\n      sload\n      swap1\n      0x0100\n      exp\n      swap1\n      div\n      0xff\n      and\n      swap1\n      pop\n      dup6\n      jump\t// out\n        /* \"Documents/GitHub/Store-system-with-feedback/main.sol\":6418:7271  function getStoryRating(string memory shopName) public view returns(uint) {\r... */\n    tag_88:\n        /* \"Documents/GitHub/Store-system-with-feedback/main.sol\":6486:6490  uint */\n      0x00\n        /* \"Documents/GitHub/Store-system-with-feedback/main.sol\":6503:6525  uint totalAverageValue */\n      dup1\n        /* \"Documents/GitHub/Store-system-with-feedback/main.sol\":6528:6529  0 */\n      0x00\n        /* \"Documents/GitHub/Store-system-with-feedback/main.sol\":6503:6529  uint totalAverageValue = 0 */\n      swap1\n      pop\n        /* \"Documents/GitHub/Store-system-with-feedback/main.sol\":6540:6561  uint countArrayRating */\n      0x00\n        /* \"Documents/GitHub/Store-system-with-feedback/main.sol\":6580:6586  uint i */\n      dup1\n        /* \"Documents/GitHub/Store-system-with-feedback/main.sol\":6576:7163  for(uint i = 0; i < shopList.length; i++) {\r... */\n    tag_254:\n        /* \"Documents/GitHub/Store-system-with-feedback/main.sol\":6596:6604  shopList */\n      0x02\n        /* \"Documents/GitHub/Store-system-with-feedback/main.sol\":6596:6611  shopList.length */\n      dup1\n      sload\n      swap1\n      pop\n        /* \"Documents/GitHub/Store-system-with-feedback/main.sol\":6592:6593  i */\n      dup2\n        /* \"Documents/GitHub/Store-system-with-feedback/main.sol\":6592:6611  i < shopList.length */\n      lt\n        /* \"Documents/GitHub/Store-system-with-feedback/main.sol\":6576:7163  for(uint i = 0; i < shopList.length; i++) {\r... */\n      iszero\n      tag_255\n      jumpi\n        /* \"Documents/GitHub/Store-system-with-feedback/main.sol\":6633:6659  string memory tempShopName */\n      0x00\n        /* \"Documents/GitHub/Store-system-with-feedback/main.sol\":6662:6670  shopList */\n      0x02\n        /* \"Documents/GitHub/Store-system-with-feedback/main.sol\":6671:6672  i */\n      dup3\n        /* \"Documents/GitHub/Store-system-with-feedback/main.sol\":6662:6673  shopList[i] */\n      dup2\n      sload\n      dup2\n      lt\n      tag_257\n      jumpi\n      tag_258\n      tag_134\n      jump\t// in\n    tag_258:\n    tag_257:\n      swap1\n      0x00\n      mstore\n      keccak256(0x00, 0x20)\n      add\n        /* \"Documents/GitHub/Store-system-with-feedback/main.sol\":6633:6673  string memory tempShopName = shopList[i] */\n      dup1\n      sload\n      tag_260\n      swap1\n      tag_184\n      jump\t// in\n    tag_260:\n      dup1\n      0x1f\n      add\n      0x20\n      dup1\n      swap2\n      div\n      mul\n      0x20\n      add\n      mload(0x40)\n      swap1\n      dup2\n      add\n      0x40\n      mstore\n      dup1\n      swap3\n      swap2\n      swap1\n      dup2\n      dup2\n      mstore\n      0x20\n      add\n      dup3\n      dup1\n      sload\n      tag_261\n      swap1\n      tag_184\n      jump\t// in\n    tag_261:\n      dup1\n      iszero\n      tag_262\n      jumpi\n      dup1\n      0x1f\n      lt\n      tag_263\n      jumpi\n      0x0100\n      dup1\n      dup4\n      sload\n      div\n      mul\n      dup4\n      mstore\n      swap2\n      0x20\n      add\n      swap2\n      jump(tag_262)\n    tag_263:\n      dup3\n      add\n      swap2\n      swap1\n      0x00\n      mstore\n      keccak256(0x00, 0x20)\n      swap1\n    tag_264:\n      dup2\n      sload\n      dup2\n      mstore\n      swap1\n      0x01\n      add\n      swap1\n      0x20\n      add\n      dup1\n      dup4\n      gt\n      tag_264\n      jumpi\n      dup3\n      swap1\n      sub\n      0x1f\n      and\n      dup3\n      add\n      swap2\n    tag_262:\n      pop\n      pop\n      pop\n      pop\n      pop\n      swap1\n      pop\n        /* \"Documents/GitHub/Store-system-with-feedback/main.sol\":6763:6771  shopName */\n      dup6\n        /* \"Documents/GitHub/Store-system-with-feedback/main.sol\":6746:6772  abi.encodePacked(shopName) */\n      add(0x20, mload(0x40))\n      tag_265\n      swap2\n      swap1\n      tag_161\n      jump\t// in\n    tag_265:\n      mload(0x40)\n      0x20\n      dup2\n      dup4\n      sub\n      sub\n      dup2\n      mstore\n      swap1\n      0x40\n      mstore\n        /* \"Documents/GitHub/Store-system-with-feedback/main.sol\":6736:6773  keccak256(abi.encodePacked(shopName)) */\n      dup1\n      mload\n      swap1\n      0x20\n      add\n      keccak256\n        /* \"Documents/GitHub/Store-system-with-feedback/main.sol\":6718:6730  tempShopName */\n      dup2\n        /* \"Documents/GitHub/Store-system-with-feedback/main.sol\":6701:6731  abi.encodePacked(tempShopName) */\n      add(0x20, mload(0x40))\n      tag_266\n      swap2\n      swap1\n      tag_161\n      jump\t// in\n    tag_266:\n      mload(0x40)\n      0x20\n      dup2\n      dup4\n      sub\n      sub\n      dup2\n      mstore\n      swap1\n      0x40\n      mstore\n        /* \"Documents/GitHub/Store-system-with-feedback/main.sol\":6691:6732  keccak256(abi.encodePacked(tempShopName)) */\n      dup1\n      mload\n      swap1\n      0x20\n      add\n      keccak256\n        /* \"Documents/GitHub/Store-system-with-feedback/main.sol\":6691:6773  keccak256(abi.encodePacked(tempShopName)) == keccak256(abi.encodePacked(shopName)) */\n      eq\n        /* \"Documents/GitHub/Store-system-with-feedback/main.sol\":6688:7152  if(keccak256(abi.encodePacked(tempShopName)) == keccak256(abi.encodePacked(shopName))) {                    \r... */\n      iszero\n      tag_267\n      jumpi\n        /* \"Documents/GitHub/Store-system-with-feedback/main.sol\":6823:6824  0 */\n      0x00\n        /* \"Documents/GitHub/Store-system-with-feedback/main.sol\":6819:6824  i = 0 */\n      swap2\n      pop\n        /* \"Documents/GitHub/Store-system-with-feedback/main.sol\":6814:7137  for (i = 0; i <= complaintBooks.length; i++) {\r... */\n    tag_268:\n        /* \"Documents/GitHub/Store-system-with-feedback/main.sol\":6831:6845  complaintBooks */\n      0x03\n        /* \"Documents/GitHub/Store-system-with-feedback/main.sol\":6831:6852  complaintBooks.length */\n      dup1\n      sload\n      swap1\n      pop\n        /* \"Documents/GitHub/Store-system-with-feedback/main.sol\":6826:6827  i */\n      dup3\n        /* \"Documents/GitHub/Store-system-with-feedback/main.sol\":6826:6852  i <= complaintBooks.length */\n      gt\n        /* \"Documents/GitHub/Store-system-with-feedback/main.sol\":6814:7137  for (i = 0; i <= complaintBooks.length; i++) {\r... */\n      tag_269\n      jumpi\n        /* \"Documents/GitHub/Store-system-with-feedback/main.sol\":6953:6967  complaintBooks */\n      0x03\n        /* \"Documents/GitHub/Store-system-with-feedback/main.sol\":6968:6969  i */\n      dup3\n        /* \"Documents/GitHub/Store-system-with-feedback/main.sol\":6953:6970  complaintBooks[i] */\n      dup2\n      sload\n      dup2\n      lt\n      tag_271\n      jumpi\n      tag_272\n      tag_134\n      jump\t// in\n    tag_272:\n    tag_271:\n      swap1\n      0x00\n      mstore\n      keccak256(0x00, 0x20)\n      swap1\n      0x05\n      mul\n      add\n        /* \"Documents/GitHub/Store-system-with-feedback/main.sol\":6953:6975  complaintBooks[i].shop */\n      0x00\n      add\n        /* \"Documents/GitHub/Store-system-with-feedback/main.sol\":6936:6976  abi.encodePacked(complaintBooks[i].shop) */\n      add(0x20, mload(0x40))\n      tag_274\n      swap2\n      swap1\n      tag_140\n      jump\t// in\n    tag_274:\n      mload(0x40)\n      0x20\n      dup2\n      dup4\n      sub\n      sub\n      dup2\n      mstore\n      swap1\n      0x40\n      mstore\n        /* \"Documents/GitHub/Store-system-with-feedback/main.sol\":6926:6977  keccak256(abi.encodePacked(complaintBooks[i].shop)) */\n      dup1\n      mload\n      swap1\n      0x20\n      add\n      keccak256\n        /* \"Documents/GitHub/Store-system-with-feedback/main.sol\":6912:6920  shopName */\n      dup7\n        /* \"Documents/GitHub/Store-system-with-feedback/main.sol\":6895:6921  abi.encodePacked(shopName) */\n      add(0x20, mload(0x40))\n      tag_275\n      swap2\n      swap1\n      tag_161\n      jump\t// in\n    tag_275:\n      mload(0x40)\n      0x20\n      dup2\n      dup4\n      sub\n      sub\n      dup2\n      mstore\n      swap1\n      0x40\n      mstore\n        /* \"Documents/GitHub/Store-system-with-feedback/main.sol\":6885:6922  keccak256(abi.encodePacked(shopName)) */\n      dup1\n      mload\n      swap1\n      0x20\n      add\n      keccak256\n        /* \"Documents/GitHub/Store-system-with-feedback/main.sol\":6885:6977  keccak256(abi.encodePacked(shopName)) == keccak256(abi.encodePacked(complaintBooks[i].shop)) */\n      eq\n        /* \"Documents/GitHub/Store-system-with-feedback/main.sol\":6882:7118  if(keccak256(abi.encodePacked(shopName)) == keccak256(abi.encodePacked(complaintBooks[i].shop))) {\r... */\n      iszero\n      tag_276\n      jumpi\n        /* \"Documents/GitHub/Store-system-with-feedback/main.sol\":7026:7040  complaintBooks */\n      0x03\n        /* \"Documents/GitHub/Store-system-with-feedback/main.sol\":7041:7042  i */\n      dup3\n        /* \"Documents/GitHub/Store-system-with-feedback/main.sol\":7026:7043  complaintBooks[i] */\n      dup2\n      sload\n      dup2\n      lt\n      tag_277\n      jumpi\n      tag_278\n      tag_134\n      jump\t// in\n    tag_278:\n    tag_277:\n      swap1\n      0x00\n      mstore\n      keccak256(0x00, 0x20)\n      swap1\n      0x05\n      mul\n      add\n        /* \"Documents/GitHub/Store-system-with-feedback/main.sol\":7026:7050  complaintBooks[i].rating */\n      0x03\n      add\n      sload\n        /* \"Documents/GitHub/Store-system-with-feedback/main.sol\":7006:7050  countArrayRating += complaintBooks[i].rating */\n      dup4\n      tag_280\n      swap2\n      swap1\n      tag_154\n      jump\t// in\n    tag_280:\n      swap3\n      pop\n        /* \"Documents/GitHub/Store-system-with-feedback/main.sol\":6882:7118  if(keccak256(abi.encodePacked(shopName)) == keccak256(abi.encodePacked(complaintBooks[i].shop))) {\r... */\n    tag_276:\n        /* \"Documents/GitHub/Store-system-with-feedback/main.sol\":6854:6857  i++ */\n      dup2\n      dup1\n      tag_281\n      swap1\n      tag_198\n      jump\t// in\n    tag_281:\n      swap3\n      pop\n      pop\n        /* \"Documents/GitHub/Store-system-with-feedback/main.sol\":6814:7137  for (i = 0; i <= complaintBooks.length; i++) {\r... */\n      jump(tag_268)\n    tag_269:\n        /* \"Documents/GitHub/Store-system-with-feedback/main.sol\":6688:7152  if(keccak256(abi.encodePacked(tempShopName)) == keccak256(abi.encodePacked(shopName))) {                    \r... */\n    tag_267:\n        /* \"Documents/GitHub/Store-system-with-feedback/main.sol\":6618:7163  {\r... */\n      pop\n        /* \"Documents/GitHub/Store-system-with-feedback/main.sol\":6613:6616  i++ */\n      dup1\n      dup1\n      tag_282\n      swap1\n      tag_198\n      jump\t// in\n    tag_282:\n      swap2\n      pop\n      pop\n        /* \"Documents/GitHub/Store-system-with-feedback/main.sol\":6576:7163  for(uint i = 0; i < shopList.length; i++) {\r... */\n      jump(tag_254)\n    tag_255:\n      pop\n        /* \"Documents/GitHub/Store-system-with-feedback/main.sol\":7212:7229  totalAverageValue */\n      dup2\n        /* \"Documents/GitHub/Store-system-with-feedback/main.sol\":7193:7209  countArrayRating */\n      dup2\n        /* \"Documents/GitHub/Store-system-with-feedback/main.sol\":7193:7229  countArrayRating / totalAverageValue */\n      tag_283\n      swap2\n      swap1\n      tag_284\n      jump\t// in\n    tag_283:\n        /* \"Documents/GitHub/Store-system-with-feedback/main.sol\":7173:7229  countArrayRating += countArrayRating / totalAverageValue */\n      dup2\n      tag_285\n      swap2\n      swap1\n      tag_154\n      jump\t// in\n    tag_285:\n      swap1\n      pop\n        /* \"Documents/GitHub/Store-system-with-feedback/main.sol\":7247:7263  countArrayRating */\n      dup1\n        /* \"Documents/GitHub/Store-system-with-feedback/main.sol\":7240:7263  return countArrayRating */\n      swap3\n      pop\n      pop\n      pop\n        /* \"Documents/GitHub/Store-system-with-feedback/main.sol\":6418:7271  function getStoryRating(string memory shopName) public view returns(uint) {\r... */\n      swap2\n      swap1\n      pop\n      jump\t// out\n        /* \"Documents/GitHub/Store-system-with-feedback/main.sol\":2881:2928  structStatusReturn[] public structStatusReturns */\n    tag_93:\n      0x0b\n      dup2\n      dup2\n      sload\n      dup2\n      lt\n      tag_286\n      jumpi\n      0x00\n      dup1\n      revert\n    tag_286:\n      swap1\n      0x00\n      mstore\n      keccak256(0x00, 0x20)\n      swap1\n      0x03\n      mul\n      add\n      0x00\n      swap2\n      pop\n      swap1\n      pop\n      dup1\n      0x00\n      add\n      0x00\n      swap1\n      sload\n      swap1\n      0x0100\n      exp\n      swap1\n      div\n      0xffffffffffffffffffffffffffffffffffffffff\n      and\n      swap1\n      dup1\n      0x01\n      add\n      dup1\n      sload\n      tag_288\n      swap1\n      tag_184\n      jump\t// in\n    tag_288:\n      dup1\n      0x1f\n      add\n      0x20\n      dup1\n      swap2\n      div\n      mul\n      0x20\n      add\n      mload(0x40)\n      swap1\n      dup2\n      add\n      0x40\n      mstore\n      dup1\n      swap3\n      swap2\n      swap1\n      dup2\n      dup2\n      mstore\n      0x20\n      add\n      dup3\n      dup1\n      sload\n      tag_289\n      swap1\n      tag_184\n      jump\t// in\n    tag_289:\n      dup1\n      iszero\n      tag_290\n      jumpi\n      dup1\n      0x1f\n      lt\n      tag_291\n      jumpi\n      0x0100\n      dup1\n      dup4\n      sload\n      div\n      mul\n      dup4\n      mstore\n      swap2\n      0x20\n      add\n      swap2\n      jump(tag_290)\n    tag_291:\n      dup3\n      add\n      swap2\n      swap1\n      0x00\n      mstore\n      keccak256(0x00, 0x20)\n      swap1\n    tag_292:\n      dup2\n      sload\n      dup2\n      mstore\n      swap1\n      0x01\n      add\n      swap1\n      0x20\n      add\n      dup1\n      dup4\n      gt\n      tag_292\n      jumpi\n      dup3\n      swap1\n      sub\n      0x1f\n      and\n      dup3\n      add\n      swap2\n    tag_290:\n      pop\n      pop\n      pop\n      pop\n      pop\n      swap1\n      dup1\n      0x02\n      add\n      0x00\n      swap1\n      sload\n      swap1\n      0x0100\n      exp\n      swap1\n      div\n      0xff\n      and\n      swap1\n      pop\n      dup4\n      jump\t// out\n        /* \"Documents/GitHub/Store-system-with-feedback/main.sol\":8127:8281  function productReturn (string memory titleProduct) public {\r... */\n    tag_97:\n        /* \"Documents/GitHub/Store-system-with-feedback/main.sol\":8197:8216  structStatusReturns */\n      0x0b\n        /* \"Documents/GitHub/Store-system-with-feedback/main.sol\":8222:8272  structStatusReturn(msg.sender, titleProduct, true) */\n      mload(0x40)\n      dup1\n      0x60\n      add\n      0x40\n      mstore\n      dup1\n        /* \"Documents/GitHub/Store-system-with-feedback/main.sol\":8241:8251  msg.sender */\n      caller\n        /* \"Documents/GitHub/Store-system-with-feedback/main.sol\":8222:8272  structStatusReturn(msg.sender, titleProduct, true) */\n      0xffffffffffffffffffffffffffffffffffffffff\n      and\n      dup2\n      mstore\n      0x20\n      add\n        /* \"Documents/GitHub/Store-system-with-feedback/main.sol\":8253:8265  titleProduct */\n      dup4\n        /* \"Documents/GitHub/Store-system-with-feedback/main.sol\":8222:8272  structStatusReturn(msg.sender, titleProduct, true) */\n      dup2\n      mstore\n      0x20\n      add\n        /* \"Documents/GitHub/Store-system-with-feedback/main.sol\":8267:8271  true */\n      0x01\n        /* \"Documents/GitHub/Store-system-with-feedback/main.sol\":8222:8272  structStatusReturn(msg.sender, titleProduct, true) */\n      iszero\n      iszero\n      dup2\n      mstore\n      pop\n        /* \"Documents/GitHub/Store-system-with-feedback/main.sol\":8197:8273  structStatusReturns.push(structStatusReturn(msg.sender, titleProduct, true)) */\n      swap1\n      dup1\n      0x01\n      dup2\n      sload\n      add\n      dup1\n      dup3\n      sstore\n      dup1\n      swap2\n      pop\n      pop\n      0x01\n      swap1\n      sub\n      swap1\n      0x00\n      mstore\n      keccak256(0x00, 0x20)\n      swap1\n      0x03\n      mul\n      add\n      0x00\n      swap1\n      swap2\n      swap1\n      swap2\n      swap1\n      swap2\n      pop\n      0x00\n      dup3\n      add\n      mload\n      dup2\n      0x00\n      add\n      exp(0x0100, 0x00)\n      dup2\n      sload\n      dup2\n      0xffffffffffffffffffffffffffffffffffffffff\n      mul\n      not\n      and\n      swap1\n      dup4\n      0xffffffffffffffffffffffffffffffffffffffff\n      and\n      mul\n      or\n      swap1\n      sstore\n      pop\n      0x20\n      dup3\n      add\n      mload\n      dup2\n      0x01\n      add\n      swap1\n      dup1\n      mload\n      swap1\n      0x20\n      add\n      swap1\n      tag_295\n      swap3\n      swap2\n      swap1\n      tag_166\n      jump\t// in\n    tag_295:\n      pop\n      0x40\n      dup3\n      add\n      mload\n      dup2\n      0x02\n      add\n      exp(0x0100, 0x00)\n      dup2\n      sload\n      dup2\n      0xff\n      mul\n      not\n      and\n      swap1\n      dup4\n      iszero\n      iszero\n      mul\n      or\n      swap1\n      sstore\n      pop\n      pop\n      pop\n        /* \"Documents/GitHub/Store-system-with-feedback/main.sol\":8127:8281  function productReturn (string memory titleProduct) public {\r... */\n      pop\n      jump\t// out\n        /* \"Documents/GitHub/Store-system-with-feedback/main.sol\":6156:6250  function getShopList() public view returns(string[] memory) {\r... */\n    tag_99:\n        /* \"Documents/GitHub/Store-system-with-feedback/main.sol\":6199:6214  string[] memory */\n      0x60\n        /* \"Documents/GitHub/Store-system-with-feedback/main.sol\":6234:6242  shopList */\n      0x02\n        /* \"Documents/GitHub/Store-system-with-feedback/main.sol\":6227:6242  return shopList */\n      dup1\n      sload\n      dup1\n      0x20\n      mul\n      0x20\n      add\n      mload(0x40)\n      swap1\n      dup2\n      add\n      0x40\n      mstore\n      dup1\n      swap3\n      swap2\n      swap1\n      dup2\n      dup2\n      mstore\n      0x20\n      add\n      0x00\n      swap1\n    tag_297:\n      dup3\n      dup3\n      lt\n      iszero\n      tag_298\n      jumpi\n      dup4\n      dup3\n      swap1\n      0x00\n      mstore\n      keccak256(0x00, 0x20)\n      add\n      dup1\n      sload\n      tag_300\n      swap1\n      tag_184\n      jump\t// in\n    tag_300:\n      dup1\n      0x1f\n      add\n      0x20\n      dup1\n      swap2\n      div\n      mul\n      0x20\n      add\n      mload(0x40)\n      swap1\n      dup2\n      add\n      0x40\n      mstore\n      dup1\n      swap3\n      swap2\n      swap1\n      dup2\n      dup2\n      mstore\n      0x20\n      add\n      dup3\n      dup1\n      sload\n      tag_301\n      swap1\n      tag_184\n      jump\t// in\n    tag_301:\n      dup1\n      iszero\n      tag_302\n      jumpi\n      dup1\n      0x1f\n      lt\n      tag_303\n      jumpi\n      0x0100\n      dup1\n      dup4\n      sload\n      div\n      mul\n      dup4\n      mstore\n      swap2\n      0x20\n      add\n      swap2\n      jump(tag_302)\n    tag_303:\n      dup3\n      add\n      swap2\n      swap1\n      0x00\n      mstore\n      keccak256(0x00, 0x20)\n      swap1\n    tag_304:\n      dup2\n      sload\n      dup2\n      mstore\n      swap1\n      0x01\n      add\n      swap1\n      0x20\n      add\n      dup1\n      dup4\n      gt\n      tag_304\n      jumpi\n      dup3\n      swap1\n      sub\n      0x1f\n      and\n      dup3\n      add\n      swap2\n    tag_302:\n      pop\n      pop\n      pop\n      pop\n      pop\n      dup2\n      mstore\n      0x20\n      add\n      swap1\n      0x01\n      add\n      swap1\n      jump(tag_297)\n    tag_298:\n      pop\n      pop\n      pop\n      pop\n      swap1\n      pop\n        /* \"Documents/GitHub/Store-system-with-feedback/main.sol\":6156:6250  function getShopList() public view returns(string[] memory) {\r... */\n      swap1\n      jump\t// out\n        /* \"Documents/GitHub/Store-system-with-feedback/main.sol\":1110:1249  function check_logged(string memory login) public view returns(bool) {\r... */\n    tag_103:\n        /* \"Documents/GitHub/Store-system-with-feedback/main.sol\":1173:1177  bool */\n      0x00\n        /* \"Documents/GitHub/Store-system-with-feedback/main.sol\":1197:1208  structUsers */\n      0x04\n        /* \"Documents/GitHub/Store-system-with-feedback/main.sol\":1197:1233  structUsers[structUserLogins[login]] */\n      0x00\n        /* \"Documents/GitHub/Store-system-with-feedback/main.sol\":1209:1225  structUserLogins */\n      0x05\n        /* \"Documents/GitHub/Store-system-with-feedback/main.sol\":1226:1231  login */\n      dup5\n        /* \"Documents/GitHub/Store-system-with-feedback/main.sol\":1209:1232  structUserLogins[login] */\n      mload(0x40)\n      tag_306\n      swap2\n      swap1\n      tag_161\n      jump\t// in\n    tag_306:\n      swap1\n      dup2\n      mstore\n      0x20\n      add\n      mload(0x40)\n      dup1\n      swap2\n      sub\n      swap1\n      keccak256\n      0x00\n      swap1\n      sload\n      swap1\n      0x0100\n      exp\n      swap1\n      div\n      0xffffffffffffffffffffffffffffffffffffffff\n      and\n        /* \"Documents/GitHub/Store-system-with-feedback/main.sol\":1197:1233  structUsers[structUserLogins[login]] */\n      0xffffffffffffffffffffffffffffffffffffffff\n      and\n      0xffffffffffffffffffffffffffffffffffffffff\n      and\n      dup2\n      mstore\n      0x20\n      add\n      swap1\n      dup2\n      mstore\n      0x20\n      add\n      0x00\n      keccak256\n        /* \"Documents/GitHub/Store-system-with-feedback/main.sol\":1197:1240  structUsers[structUserLogins[login]].logged */\n      0x04\n      add\n      0x00\n      swap1\n      sload\n      swap1\n      0x0100\n      exp\n      swap1\n      div\n      0xff\n      and\n        /* \"Documents/GitHub/Store-system-with-feedback/main.sol\":1190:1241  return(structUsers[structUserLogins[login]].logged) */\n      swap1\n      pop\n        /* \"Documents/GitHub/Store-system-with-feedback/main.sol\":1110:1249  function check_logged(string memory login) public view returns(bool) {\r... */\n      swap2\n      swap1\n      pop\n      jump\t// out\n        /* \"Documents/GitHub/Store-system-with-feedback/main.sol\":1531:1574  mapping(string => address) public shopLists */\n    tag_108:\n      0x01\n      dup2\n      dup1\n      mload\n      0x20\n      dup2\n      add\n      dup3\n      add\n      dup1\n      mload\n      dup5\n      dup3\n      mstore\n      0x20\n      dup4\n      add\n      0x20\n      dup6\n      add\n      keccak256\n      dup2\n      dup4\n      mstore\n      dup1\n      swap6\n      pop\n      pop\n      pop\n      pop\n      pop\n      pop\n      0x00\n      swap2\n      pop\n      sload\n      swap1\n      0x0100\n      exp\n      swap1\n      div\n      0xffffffffffffffffffffffffffffffffffffffff\n      and\n      dup2\n      jump\t// out\n        /* \"Documents/GitHub/Store-system-with-feedback/main.sol\":3730:4318  function leaveFeedback (string memory shop, string memory feedback, uint256 rating) public {\r... */\n    tag_113:\n        /* \"Documents/GitHub/Store-system-with-feedback/main.sol\":3850:3852  10 */\n      0x0a\n        /* \"Documents/GitHub/Store-system-with-feedback/main.sol\":3840:3846  rating */\n      dup2\n        /* \"Documents/GitHub/Store-system-with-feedback/main.sol\":3840:3852  rating <= 10 */\n      gt\n      iszero\n        /* \"Documents/GitHub/Store-system-with-feedback/main.sol\":3832:3889  require(rating <= 10,\"error: rating can be from 1 to 10\") */\n      tag_308\n      jumpi\n      mload(0x40)\n      0x08c379a000000000000000000000000000000000000000000000000000000000\n      dup2\n      mstore\n      0x04\n      add\n      tag_309\n      swap1\n      tag_310\n      jump\t// in\n    tag_309:\n      mload(0x40)\n      dup1\n      swap2\n      sub\n      swap1\n      revert\n    tag_308:\n        /* \"Documents/GitHub/Store-system-with-feedback/main.sol\":3904:3910  uint i */\n      0x00\n        /* \"Documents/GitHub/Store-system-with-feedback/main.sol\":3900:4311  for(uint i = 0; i <= shopList.length; i++) {\r... */\n    tag_311:\n        /* \"Documents/GitHub/Store-system-with-feedback/main.sol\":3921:3929  shopList */\n      0x02\n        /* \"Documents/GitHub/Store-system-with-feedback/main.sol\":3921:3936  shopList.length */\n      dup1\n      sload\n      swap1\n      pop\n        /* \"Documents/GitHub/Store-system-with-feedback/main.sol\":3916:3917  i */\n      dup2\n        /* \"Documents/GitHub/Store-system-with-feedback/main.sol\":3916:3936  i <= shopList.length */\n      gt\n        /* \"Documents/GitHub/Store-system-with-feedback/main.sol\":3900:4311  for(uint i = 0; i <= shopList.length; i++) {\r... */\n      tag_312\n      jumpi\n        /* \"Documents/GitHub/Store-system-with-feedback/main.sol\":3958:3984  string memory tempShopName */\n      0x00\n        /* \"Documents/GitHub/Store-system-with-feedback/main.sol\":3987:3995  shopList */\n      0x02\n        /* \"Documents/GitHub/Store-system-with-feedback/main.sol\":3996:3997  i */\n      dup3\n        /* \"Documents/GitHub/Store-system-with-feedback/main.sol\":3987:3998  shopList[i] */\n      dup2\n      sload\n      dup2\n      lt\n      tag_314\n      jumpi\n      tag_315\n      tag_134\n      jump\t// in\n    tag_315:\n    tag_314:\n      swap1\n      0x00\n      mstore\n      keccak256(0x00, 0x20)\n      add\n        /* \"Documents/GitHub/Store-system-with-feedback/main.sol\":3958:3998  string memory tempShopName = shopList[i] */\n      dup1\n      sload\n      tag_317\n      swap1\n      tag_184\n      jump\t// in\n    tag_317:\n      dup1\n      0x1f\n      add\n      0x20\n      dup1\n      swap2\n      div\n      mul\n      0x20\n      add\n      mload(0x40)\n      swap1\n      dup2\n      add\n      0x40\n      mstore\n      dup1\n      swap3\n      swap2\n      swap1\n      dup2\n      dup2\n      mstore\n      0x20\n      add\n      dup3\n      dup1\n      sload\n      tag_318\n      swap1\n      tag_184\n      jump\t// in\n    tag_318:\n      dup1\n      iszero\n      tag_319\n      jumpi\n      dup1\n      0x1f\n      lt\n      tag_320\n      jumpi\n      0x0100\n      dup1\n      dup4\n      sload\n      div\n      mul\n      dup4\n      mstore\n      swap2\n      0x20\n      add\n      swap2\n      jump(tag_319)\n    tag_320:\n      dup3\n      add\n      swap2\n      swap1\n      0x00\n      mstore\n      keccak256(0x00, 0x20)\n      swap1\n    tag_321:\n      dup2\n      sload\n      dup2\n      mstore\n      swap1\n      0x01\n      add\n      swap1\n      0x20\n      add\n      dup1\n      dup4\n      gt\n      tag_321\n      jumpi\n      dup3\n      swap1\n      sub\n      0x1f\n      and\n      dup3\n      add\n      swap2\n    tag_319:\n      pop\n      pop\n      pop\n      pop\n      pop\n      swap1\n      pop\n        /* \"Documents/GitHub/Store-system-with-feedback/main.sol\":4088:4092  shop */\n      dup5\n        /* \"Documents/GitHub/Store-system-with-feedback/main.sol\":4071:4093  abi.encodePacked(shop) */\n      add(0x20, mload(0x40))\n      tag_322\n      swap2\n      swap1\n      tag_161\n      jump\t// in\n    tag_322:\n      mload(0x40)\n      0x20\n      dup2\n      dup4\n      sub\n      sub\n      dup2\n      mstore\n      swap1\n      0x40\n      mstore\n        /* \"Documents/GitHub/Store-system-with-feedback/main.sol\":4061:4094  keccak256(abi.encodePacked(shop)) */\n      dup1\n      mload\n      swap1\n      0x20\n      add\n      keccak256\n        /* \"Documents/GitHub/Store-system-with-feedback/main.sol\":4043:4055  tempShopName */\n      dup2\n        /* \"Documents/GitHub/Store-system-with-feedback/main.sol\":4026:4056  abi.encodePacked(tempShopName) */\n      add(0x20, mload(0x40))\n      tag_323\n      swap2\n      swap1\n      tag_161\n      jump\t// in\n    tag_323:\n      mload(0x40)\n      0x20\n      dup2\n      dup4\n      sub\n      sub\n      dup2\n      mstore\n      swap1\n      0x40\n      mstore\n        /* \"Documents/GitHub/Store-system-with-feedback/main.sol\":4016:4057  keccak256(abi.encodePacked(tempShopName)) */\n      dup1\n      mload\n      swap1\n      0x20\n      add\n      keccak256\n        /* \"Documents/GitHub/Store-system-with-feedback/main.sol\":4016:4094  keccak256(abi.encodePacked(tempShopName)) == keccak256(abi.encodePacked(shop)) */\n      eq\n        /* \"Documents/GitHub/Store-system-with-feedback/main.sol\":4013:4300  if(keccak256(abi.encodePacked(tempShopName)) == keccak256(abi.encodePacked(shop))) {                    \r... */\n      iszero\n      tag_324\n      jumpi\n        /* \"Documents/GitHub/Store-system-with-feedback/main.sol\":4135:4161  string[] memory zerroArray */\n      0x60\n        /* \"Documents/GitHub/Store-system-with-feedback/main.sol\":4180:4194  complaintBooks */\n      0x03\n        /* \"Documents/GitHub/Store-system-with-feedback/main.sol\":4200:4283  complaintBook(shop, structUsers[msg.sender].userName, feedback, rating, zerroArray) */\n      mload(0x40)\n      dup1\n      0xa0\n      add\n      0x40\n      mstore\n      dup1\n        /* \"Documents/GitHub/Store-system-with-feedback/main.sol\":4214:4218  shop */\n      dup9\n        /* \"Documents/GitHub/Store-system-with-feedback/main.sol\":4200:4283  complaintBook(shop, structUsers[msg.sender].userName, feedback, rating, zerroArray) */\n      dup2\n      mstore\n      0x20\n      add\n        /* \"Documents/GitHub/Store-system-with-feedback/main.sol\":4220:4231  structUsers */\n      0x04\n        /* \"Documents/GitHub/Store-system-with-feedback/main.sol\":4220:4243  structUsers[msg.sender] */\n      0x00\n        /* \"Documents/GitHub/Store-system-with-feedback/main.sol\":4232:4242  msg.sender */\n      caller\n        /* \"Documents/GitHub/Store-system-with-feedback/main.sol\":4220:4243  structUsers[msg.sender] */\n      0xffffffffffffffffffffffffffffffffffffffff\n      and\n      0xffffffffffffffffffffffffffffffffffffffff\n      and\n      dup2\n      mstore\n      0x20\n      add\n      swap1\n      dup2\n      mstore\n      0x20\n      add\n      0x00\n      keccak256\n        /* \"Documents/GitHub/Store-system-with-feedback/main.sol\":4220:4252  structUsers[msg.sender].userName */\n      0x00\n      add\n        /* \"Documents/GitHub/Store-system-with-feedback/main.sol\":4200:4283  complaintBook(shop, structUsers[msg.sender].userName, feedback, rating, zerroArray) */\n      dup1\n      sload\n      tag_325\n      swap1\n      tag_184\n      jump\t// in\n    tag_325:\n      dup1\n      0x1f\n      add\n      0x20\n      dup1\n      swap2\n      div\n      mul\n      0x20\n      add\n      mload(0x40)\n      swap1\n      dup2\n      add\n      0x40\n      mstore\n      dup1\n      swap3\n      swap2\n      swap1\n      dup2\n      dup2\n      mstore\n      0x20\n      add\n      dup3\n      dup1\n      sload\n      tag_326\n      swap1\n      tag_184\n      jump\t// in\n    tag_326:\n      dup1\n      iszero\n      tag_327\n      jumpi\n      dup1\n      0x1f\n      lt\n      tag_328\n      jumpi\n      0x0100\n      dup1\n      dup4\n      sload\n      div\n      mul\n      dup4\n      mstore\n      swap2\n      0x20\n      add\n      swap2\n      jump(tag_327)\n    tag_328:\n      dup3\n      add\n      swap2\n      swap1\n      0x00\n      mstore\n      keccak256(0x00, 0x20)\n      swap1\n    tag_329:\n      dup2\n      sload\n      dup2\n      mstore\n      swap1\n      0x01\n      add\n      swap1\n      0x20\n      add\n      dup1\n      dup4\n      gt\n      tag_329\n      jumpi\n      dup3\n      swap1\n      sub\n      0x1f\n      and\n      dup3\n      add\n      swap2\n    tag_327:\n      pop\n      pop\n      pop\n      pop\n      pop\n      dup2\n      mstore\n      0x20\n      add\n        /* \"Documents/GitHub/Store-system-with-feedback/main.sol\":4254:4262  feedback */\n      dup8\n        /* \"Documents/GitHub/Store-system-with-feedback/main.sol\":4200:4283  complaintBook(shop, structUsers[msg.sender].userName, feedback, rating, zerroArray) */\n      dup2\n      mstore\n      0x20\n      add\n        /* \"Documents/GitHub/Store-system-with-feedback/main.sol\":4264:4270  rating */\n      dup7\n        /* \"Documents/GitHub/Store-system-with-feedback/main.sol\":4200:4283  complaintBook(shop, structUsers[msg.sender].userName, feedback, rating, zerroArray) */\n      dup2\n      mstore\n      0x20\n      add\n        /* \"Documents/GitHub/Store-system-with-feedback/main.sol\":4272:4282  zerroArray */\n      dup4\n        /* \"Documents/GitHub/Store-system-with-feedback/main.sol\":4200:4283  complaintBook(shop, structUsers[msg.sender].userName, feedback, rating, zerroArray) */\n      dup2\n      mstore\n      pop\n        /* \"Documents/GitHub/Store-system-with-feedback/main.sol\":4180:4284  complaintBooks.push(complaintBook(shop, structUsers[msg.sender].userName, feedback, rating, zerroArray)) */\n      swap1\n      dup1\n      0x01\n      dup2\n      sload\n      add\n      dup1\n      dup3\n      sstore\n      dup1\n      swap2\n      pop\n      pop\n      0x01\n      swap1\n      sub\n      swap1\n      0x00\n      mstore\n      keccak256(0x00, 0x20)\n      swap1\n      0x05\n      mul\n      add\n      0x00\n      swap1\n      swap2\n      swap1\n      swap2\n      swap1\n      swap2\n      pop\n      0x00\n      dup3\n      add\n      mload\n      dup2\n      0x00\n      add\n      swap1\n      dup1\n      mload\n      swap1\n      0x20\n      add\n      swap1\n      tag_331\n      swap3\n      swap2\n      swap1\n      tag_166\n      jump\t// in\n    tag_331:\n      pop\n      0x20\n      dup3\n      add\n      mload\n      dup2\n      0x01\n      add\n      swap1\n      dup1\n      mload\n      swap1\n      0x20\n      add\n      swap1\n      tag_332\n      swap3\n      swap2\n      swap1\n      tag_166\n      jump\t// in\n    tag_332:\n      pop\n      0x40\n      dup3\n      add\n      mload\n      dup2\n      0x02\n      add\n      swap1\n      dup1\n      mload\n      swap1\n      0x20\n      add\n      swap1\n      tag_333\n      swap3\n      swap2\n      swap1\n      tag_166\n      jump\t// in\n    tag_333:\n      pop\n      0x60\n      dup3\n      add\n      mload\n      dup2\n      0x03\n      add\n      sstore\n      0x80\n      dup3\n      add\n      mload\n      dup2\n      0x04\n      add\n      swap1\n      dup1\n      mload\n      swap1\n      0x20\n      add\n      swap1\n      tag_334\n      swap3\n      swap2\n      swap1\n      tag_196\n      jump\t// in\n    tag_334:\n      pop\n      pop\n      pop\n        /* \"Documents/GitHub/Store-system-with-feedback/main.sol\":4096:4300  {                    \r... */\n      pop\n        /* \"Documents/GitHub/Store-system-with-feedback/main.sol\":4013:4300  if(keccak256(abi.encodePacked(tempShopName)) == keccak256(abi.encodePacked(shop))) {                    \r... */\n    tag_324:\n        /* \"Documents/GitHub/Store-system-with-feedback/main.sol\":3943:4311  {\r... */\n      pop\n        /* \"Documents/GitHub/Store-system-with-feedback/main.sol\":3938:3941  i++ */\n      dup1\n      dup1\n      tag_335\n      swap1\n      tag_198\n      jump\t// in\n    tag_335:\n      swap2\n      pop\n      pop\n        /* \"Documents/GitHub/Store-system-with-feedback/main.sol\":3900:4311  for(uint i = 0; i <= shopList.length; i++) {\r... */\n      jump(tag_311)\n    tag_312:\n      pop\n        /* \"Documents/GitHub/Store-system-with-feedback/main.sol\":3730:4318  function leaveFeedback (string memory shop, string memory feedback, uint256 rating) public {\r... */\n      pop\n      pop\n      pop\n      jump\t// out\n        /* \"Documents/GitHub/Store-system-with-feedback/main.sol\":9072:9502  function login_user(string memory login, bytes32 password) public {\r... */\n    tag_117:\n        /* \"Documents/GitHub/Store-system-with-feedback/main.sol\":9204:9209  false */\n      0x00\n        /* \"Documents/GitHub/Store-system-with-feedback/main.sol\":9157:9209  structUsers[structUserLogins[login]].logged == false */\n      iszero\n      iszero\n        /* \"Documents/GitHub/Store-system-with-feedback/main.sol\":9157:9168  structUsers */\n      0x04\n        /* \"Documents/GitHub/Store-system-with-feedback/main.sol\":9157:9193  structUsers[structUserLogins[login]] */\n      0x00\n        /* \"Documents/GitHub/Store-system-with-feedback/main.sol\":9169:9185  structUserLogins */\n      0x05\n        /* \"Documents/GitHub/Store-system-with-feedback/main.sol\":9186:9191  login */\n      dup6\n        /* \"Documents/GitHub/Store-system-with-feedback/main.sol\":9169:9192  structUserLogins[login] */\n      mload(0x40)\n      tag_337\n      swap2\n      swap1\n      tag_161\n      jump\t// in\n    tag_337:\n      swap1\n      dup2\n      mstore\n      0x20\n      add\n      mload(0x40)\n      dup1\n      swap2\n      sub\n      swap1\n      keccak256\n      0x00\n      swap1\n      sload\n      swap1\n      0x0100\n      exp\n      swap1\n      div\n      0xffffffffffffffffffffffffffffffffffffffff\n      and\n        /* \"Documents/GitHub/Store-system-with-feedback/main.sol\":9157:9193  structUsers[structUserLogins[login]] */\n      0xffffffffffffffffffffffffffffffffffffffff\n      and\n      0xffffffffffffffffffffffffffffffffffffffff\n      and\n      dup2\n      mstore\n      0x20\n      add\n      swap1\n      dup2\n      mstore\n      0x20\n      add\n      0x00\n      keccak256\n        /* \"Documents/GitHub/Store-system-with-feedback/main.sol\":9157:9200  structUsers[structUserLogins[login]].logged */\n      0x04\n      add\n      0x00\n      swap1\n      sload\n      swap1\n      0x0100\n      exp\n      swap1\n      div\n      0xff\n      and\n        /* \"Documents/GitHub/Store-system-with-feedback/main.sol\":9157:9209  structUsers[structUserLogins[login]].logged == false */\n      iszero\n      iszero\n      eq\n        /* \"Documents/GitHub/Store-system-with-feedback/main.sol\":9149:9243  require(structUsers[structUserLogins[login]].logged == false, \"Error: You are already logged\") */\n      tag_338\n      jumpi\n      mload(0x40)\n      0x08c379a000000000000000000000000000000000000000000000000000000000\n      dup2\n      mstore\n      0x04\n      add\n      tag_339\n      swap1\n      tag_340\n      jump\t// in\n    tag_339:\n      mload(0x40)\n      dup1\n      swap2\n      sub\n      swap1\n      revert\n    tag_338:\n        /* \"Documents/GitHub/Store-system-with-feedback/main.sol\":9297:9298  0 */\n      0x00\n        /* \"Documents/GitHub/Store-system-with-feedback/main.sol\":9262:9299  structUserLogins[login] != address(0) */\n      0xffffffffffffffffffffffffffffffffffffffff\n      and\n        /* \"Documents/GitHub/Store-system-with-feedback/main.sol\":9262:9278  structUserLogins */\n      0x05\n        /* \"Documents/GitHub/Store-system-with-feedback/main.sol\":9279:9284  login */\n      dup4\n        /* \"Documents/GitHub/Store-system-with-feedback/main.sol\":9262:9285  structUserLogins[login] */\n      mload(0x40)\n      tag_341\n      swap2\n      swap1\n      tag_161\n      jump\t// in\n    tag_341:\n      swap1\n      dup2\n      mstore\n      0x20\n      add\n      mload(0x40)\n      dup1\n      swap2\n      sub\n      swap1\n      keccak256\n      0x00\n      swap1\n      sload\n      swap1\n      0x0100\n      exp\n      swap1\n      div\n      0xffffffffffffffffffffffffffffffffffffffff\n      and\n        /* \"Documents/GitHub/Store-system-with-feedback/main.sol\":9262:9299  structUserLogins[login] != address(0) */\n      0xffffffffffffffffffffffffffffffffffffffff\n      and\n      eq\n      iszero\n        /* \"Documents/GitHub/Store-system-with-feedback/main.sol\":9254:9329  require(structUserLogins[login] != address(0), \"Error: User doesn't exist\") */\n      tag_342\n      jumpi\n      mload(0x40)\n      0x08c379a000000000000000000000000000000000000000000000000000000000\n      dup2\n      mstore\n      0x04\n      add\n      tag_343\n      swap1\n      tag_344\n      jump\t// in\n    tag_343:\n      mload(0x40)\n      dup1\n      swap2\n      sub\n      swap1\n      revert\n    tag_342:\n        /* \"Documents/GitHub/Store-system-with-feedback/main.sol\":9397:9405  password */\n      dup1\n        /* \"Documents/GitHub/Store-system-with-feedback/main.sol\":9348:9359  structUsers */\n      0x04\n        /* \"Documents/GitHub/Store-system-with-feedback/main.sol\":9348:9384  structUsers[structUserLogins[login]] */\n      0x00\n        /* \"Documents/GitHub/Store-system-with-feedback/main.sol\":9360:9376  structUserLogins */\n      0x05\n        /* \"Documents/GitHub/Store-system-with-feedback/main.sol\":9377:9382  login */\n      dup6\n        /* \"Documents/GitHub/Store-system-with-feedback/main.sol\":9360:9383  structUserLogins[login] */\n      mload(0x40)\n      tag_345\n      swap2\n      swap1\n      tag_161\n      jump\t// in\n    tag_345:\n      swap1\n      dup2\n      mstore\n      0x20\n      add\n      mload(0x40)\n      dup1\n      swap2\n      sub\n      swap1\n      keccak256\n      0x00\n      swap1\n      sload\n      swap1\n      0x0100\n      exp\n      swap1\n      div\n      0xffffffffffffffffffffffffffffffffffffffff\n      and\n        /* \"Documents/GitHub/Store-system-with-feedback/main.sol\":9348:9384  structUsers[structUserLogins[login]] */\n      0xffffffffffffffffffffffffffffffffffffffff\n      and\n      0xffffffffffffffffffffffffffffffffffffffff\n      and\n      dup2\n      mstore\n      0x20\n      add\n      swap1\n      dup2\n      mstore\n      0x20\n      add\n      0x00\n      keccak256\n        /* \"Documents/GitHub/Store-system-with-feedback/main.sol\":9348:9393  structUsers[structUserLogins[login]].password */\n      0x01\n      add\n      sload\n        /* \"Documents/GitHub/Store-system-with-feedback/main.sol\":9348:9405  structUsers[structUserLogins[login]].password == password */\n      eq\n        /* \"Documents/GitHub/Store-system-with-feedback/main.sol\":9340:9433  require(structUsers[structUserLogins[login]].password == password, \"Error: Invalid password\") */\n      tag_346\n      jumpi\n      mload(0x40)\n      0x08c379a000000000000000000000000000000000000000000000000000000000\n      dup2\n      mstore\n      0x04\n      add\n      tag_347\n      swap1\n      tag_348\n      jump\t// in\n    tag_347:\n      mload(0x40)\n      dup1\n      swap2\n      sub\n      swap1\n      revert\n    tag_346:\n        /* \"Documents/GitHub/Store-system-with-feedback/main.sol\":9490:9494  true */\n      0x01\n        /* \"Documents/GitHub/Store-system-with-feedback/main.sol\":9444:9455  structUsers */\n      0x04\n        /* \"Documents/GitHub/Store-system-with-feedback/main.sol\":9444:9480  structUsers[structUserLogins[login]] */\n      0x00\n        /* \"Documents/GitHub/Store-system-with-feedback/main.sol\":9456:9472  structUserLogins */\n      0x05\n        /* \"Documents/GitHub/Store-system-with-feedback/main.sol\":9473:9478  login */\n      dup6\n        /* \"Documents/GitHub/Store-system-with-feedback/main.sol\":9456:9479  structUserLogins[login] */\n      mload(0x40)\n      tag_349\n      swap2\n      swap1\n      tag_161\n      jump\t// in\n    tag_349:\n      swap1\n      dup2\n      mstore\n      0x20\n      add\n      mload(0x40)\n      dup1\n      swap2\n      sub\n      swap1\n      keccak256\n      0x00\n      swap1\n      sload\n      swap1\n      0x0100\n      exp\n      swap1\n      div\n      0xffffffffffffffffffffffffffffffffffffffff\n      and\n        /* \"Documents/GitHub/Store-system-with-feedback/main.sol\":9444:9480  structUsers[structUserLogins[login]] */\n      0xffffffffffffffffffffffffffffffffffffffff\n      and\n      0xffffffffffffffffffffffffffffffffffffffff\n      and\n      dup2\n      mstore\n      0x20\n      add\n      swap1\n      dup2\n      mstore\n      0x20\n      add\n      0x00\n      keccak256\n        /* \"Documents/GitHub/Store-system-with-feedback/main.sol\":9444:9487  structUsers[structUserLogins[login]].logged */\n      0x04\n      add\n      0x00\n        /* \"Documents/GitHub/Store-system-with-feedback/main.sol\":9444:9494  structUsers[structUserLogins[login]].logged = true */\n      0x0100\n      exp\n      dup2\n      sload\n      dup2\n      0xff\n      mul\n      not\n      and\n      swap1\n      dup4\n      iszero\n      iszero\n      mul\n      or\n      swap1\n      sstore\n      pop\n        /* \"Documents/GitHub/Store-system-with-feedback/main.sol\":9072:9502  function login_user(string memory login, bytes32 password) public {\r... */\n      pop\n      pop\n      jump\t// out\n        /* \"Documents/GitHub/Store-system-with-feedback/main.sol\":2430:2484  mapping(string => structProduct) public structProducts */\n    tag_120:\n      0x08\n      dup2\n      dup1\n      mload\n      0x20\n      dup2\n      add\n      dup3\n      add\n      dup1\n      mload\n      dup5\n      dup3\n      mstore\n      0x20\n      dup4\n      add\n      0x20\n      dup6\n      add\n      keccak256\n      dup2\n      dup4\n      mstore\n      dup1\n      swap6\n      pop\n      pop\n      pop\n      pop\n      pop\n      pop\n      0x00\n      swap2\n      pop\n      swap1\n      pop\n      dup1\n      0x00\n      add\n      0x00\n      swap1\n      sload\n      swap1\n      0x0100\n      exp\n      swap1\n      div\n      0xffffffffffffffffffffffffffffffffffffffff\n      and\n      swap1\n      dup1\n      0x01\n      add\n      dup1\n      sload\n      tag_350\n      swap1\n      tag_184\n      jump\t// in\n    tag_350:\n      dup1\n      0x1f\n      add\n      0x20\n      dup1\n      swap2\n      div\n      mul\n      0x20\n      add\n      mload(0x40)\n      swap1\n      dup2\n      add\n      0x40\n      mstore\n      dup1\n      swap3\n      swap2\n      swap1\n      dup2\n      dup2\n      mstore\n      0x20\n      add\n      dup3\n      dup1\n      sload\n      tag_351\n      swap1\n      tag_184\n      jump\t// in\n    tag_351:\n      dup1\n      iszero\n      tag_352\n      jumpi\n      dup1\n      0x1f\n      lt\n      tag_353\n      jumpi\n      0x0100\n      dup1\n      dup4\n      sload\n      div\n      mul\n      dup4\n      mstore\n      swap2\n      0x20\n      add\n      swap2\n      jump(tag_352)\n    tag_353:\n      dup3\n      add\n      swap2\n      swap1\n      0x00\n      mstore\n      keccak256(0x00, 0x20)\n      swap1\n    tag_354:\n      dup2\n      sload\n      dup2\n      mstore\n      swap1\n      0x01\n      add\n      swap1\n      0x20\n      add\n      dup1\n      dup4\n      gt\n      tag_354\n      jumpi\n      dup3\n      swap1\n      sub\n      0x1f\n      and\n      dup3\n      add\n      swap2\n    tag_352:\n      pop\n      pop\n      pop\n      pop\n      pop\n      swap1\n      dup1\n      0x02\n      add\n      sload\n      swap1\n      dup1\n      0x03\n      add\n      sload\n      swap1\n      pop\n      dup5\n      jump\t// out\n        /* \"Documents/GitHub/Store-system-with-feedback/main.sol\":2673:2724  structStatusPurchase[] public structStatusPurchases */\n    tag_125:\n      0x0a\n      dup2\n      dup2\n      sload\n      dup2\n      lt\n      tag_355\n      jumpi\n      0x00\n      dup1\n      revert\n    tag_355:\n      swap1\n      0x00\n      mstore\n      keccak256(0x00, 0x20)\n      swap1\n      0x03\n      mul\n      add\n      0x00\n      swap2\n      pop\n      swap1\n      pop\n      dup1\n      0x00\n      add\n      0x00\n      swap1\n      sload\n      swap1\n      0x0100\n      exp\n      swap1\n      div\n      0xffffffffffffffffffffffffffffffffffffffff\n      and\n      swap1\n      dup1\n      0x01\n      add\n      dup1\n      sload\n      tag_357\n      swap1\n      tag_184\n      jump\t// in\n    tag_357:\n      dup1\n      0x1f\n      add\n      0x20\n      dup1\n      swap2\n      div\n      mul\n      0x20\n      add\n      mload(0x40)\n      swap1\n      dup2\n      add\n      0x40\n      mstore\n      dup1\n      swap3\n      swap2\n      swap1\n      dup2\n      dup2\n      mstore\n      0x20\n      add\n      dup3\n      dup1\n      sload\n      tag_358\n      swap1\n      tag_184\n      jump\t// in\n    tag_358:\n      dup1\n      iszero\n      tag_359\n      jumpi\n      dup1\n      0x1f\n      lt\n      tag_360\n      jumpi\n      0x0100\n      dup1\n      dup4\n      sload\n      div\n      mul\n      dup4\n      mstore\n      swap2\n      0x20\n      add\n      swap2\n      jump(tag_359)\n    tag_360:\n      dup3\n      add\n      swap2\n      swap1\n      0x00\n      mstore\n      keccak256(0x00, 0x20)\n      swap1\n    tag_361:\n      dup2\n      sload\n      dup2\n      mstore\n      swap1\n      0x01\n      add\n      swap1\n      0x20\n      add\n      dup1\n      dup4\n      gt\n      tag_361\n      jumpi\n      dup3\n      swap1\n      sub\n      0x1f\n      and\n      dup3\n      add\n      swap2\n    tag_359:\n      pop\n      pop\n      pop\n      pop\n      pop\n      swap1\n      dup1\n      0x02\n      add\n      0x00\n      swap1\n      sload\n      swap1\n      0x0100\n      exp\n      swap1\n      div\n      0xff\n      and\n      swap1\n      pop\n      dup4\n      jump\t// out\n        /* \"Documents/GitHub/Store-system-with-feedback/main.sol\":5545:6122  function MarriageRegistration(uint idMarriageRegistration, bool confirmation) public {\r... */\n    tag_129:\n        /* \"Documents/GitHub/Store-system-with-feedback/main.sol\":5660:5664  true */\n      0x01\n        /* \"Documents/GitHub/Store-system-with-feedback/main.sol\":5644:5664  confirmation == true */\n      iszero\n      iszero\n        /* \"Documents/GitHub/Store-system-with-feedback/main.sol\":5644:5656  confirmation */\n      dup2\n        /* \"Documents/GitHub/Store-system-with-feedback/main.sol\":5644:5664  confirmation == true */\n      iszero\n      iszero\n      eq\n        /* \"Documents/GitHub/Store-system-with-feedback/main.sol\":5641:6115  if(confirmation == true) {\r... */\n      iszero\n      tag_363\n      jumpi\n        /* \"Documents/GitHub/Store-system-with-feedback/main.sol\":5853:5867  structProducts */\n      0x08\n        /* \"Documents/GitHub/Store-system-with-feedback/main.sol\":5868:5895  structMarriageRegistrations */\n      0x0c\n        /* \"Documents/GitHub/Store-system-with-feedback/main.sol\":5896:5918  idMarriageRegistration */\n      dup4\n        /* \"Documents/GitHub/Store-system-with-feedback/main.sol\":5868:5919  structMarriageRegistrations[idMarriageRegistration] */\n      dup2\n      sload\n      dup2\n      lt\n      tag_364\n      jumpi\n      tag_365\n      tag_134\n      jump\t// in\n    tag_365:\n    tag_364:\n      swap1\n      0x00\n      mstore\n      keccak256(0x00, 0x20)\n      swap1\n      0x03\n      mul\n      add\n        /* \"Documents/GitHub/Store-system-with-feedback/main.sol\":5868:5932  structMarriageRegistrations[idMarriageRegistration].titleProduct */\n      0x01\n      add\n        /* \"Documents/GitHub/Store-system-with-feedback/main.sol\":5853:5933  structProducts[structMarriageRegistrations[idMarriageRegistration].titleProduct] */\n      mload(0x40)\n      tag_367\n      swap2\n      swap1\n      tag_140\n      jump\t// in\n    tag_367:\n      swap1\n      dup2\n      mstore\n      0x20\n      add\n      mload(0x40)\n      dup1\n      swap2\n      sub\n      swap1\n      keccak256\n        /* \"Documents/GitHub/Store-system-with-feedback/main.sol\":5853:5939  structProducts[structMarriageRegistrations[idMarriageRegistration].titleProduct].price */\n      0x02\n      add\n      sload\n        /* \"Documents/GitHub/Store-system-with-feedback/main.sol\":5767:5778  structUsers */\n      0x04\n        /* \"Documents/GitHub/Store-system-with-feedback/main.sol\":5767:5841  structUsers[structMarriageRegistrations[idMarriageRegistration].userLogin] */\n      0x00\n        /* \"Documents/GitHub/Store-system-with-feedback/main.sol\":5779:5806  structMarriageRegistrations */\n      0x0c\n        /* \"Documents/GitHub/Store-system-with-feedback/main.sol\":5807:5829  idMarriageRegistration */\n      dup6\n        /* \"Documents/GitHub/Store-system-with-feedback/main.sol\":5779:5830  structMarriageRegistrations[idMarriageRegistration] */\n      dup2\n      sload\n      dup2\n      lt\n      tag_368\n      jumpi\n      tag_369\n      tag_134\n      jump\t// in\n    tag_369:\n    tag_368:\n      swap1\n      0x00\n      mstore\n      keccak256(0x00, 0x20)\n      swap1\n      0x03\n      mul\n      add\n        /* \"Documents/GitHub/Store-system-with-feedback/main.sol\":5779:5840  structMarriageRegistrations[idMarriageRegistration].userLogin */\n      0x00\n      add\n      0x00\n      swap1\n      sload\n      swap1\n      0x0100\n      exp\n      swap1\n      div\n      0xffffffffffffffffffffffffffffffffffffffff\n      and\n        /* \"Documents/GitHub/Store-system-with-feedback/main.sol\":5767:5841  structUsers[structMarriageRegistrations[idMarriageRegistration].userLogin] */\n      0xffffffffffffffffffffffffffffffffffffffff\n      and\n      0xffffffffffffffffffffffffffffffffffffffff\n      and\n      dup2\n      mstore\n      0x20\n      add\n      swap1\n      dup2\n      mstore\n      0x20\n      add\n      0x00\n      keccak256\n        /* \"Documents/GitHub/Store-system-with-feedback/main.sol\":5767:5850  structUsers[structMarriageRegistrations[idMarriageRegistration].userLogin].ballance */\n      0x02\n      add\n      sload\n        /* \"Documents/GitHub/Store-system-with-feedback/main.sol\":5767:5939  structUsers[structMarriageRegistrations[idMarriageRegistration].userLogin].ballance + structProducts[structMarriageRegistrations[idMarriageRegistration].titleProduct].price */\n      tag_371\n      swap2\n      swap1\n      tag_154\n      jump\t// in\n    tag_371:\n        /* \"Documents/GitHub/Store-system-with-feedback/main.sol\":5681:5692  structUsers */\n      0x04\n        /* \"Documents/GitHub/Store-system-with-feedback/main.sol\":5681:5755  structUsers[structMarriageRegistrations[idMarriageRegistration].userLogin] */\n      0x00\n        /* \"Documents/GitHub/Store-system-with-feedback/main.sol\":5693:5720  structMarriageRegistrations */\n      0x0c\n        /* \"Documents/GitHub/Store-system-with-feedback/main.sol\":5721:5743  idMarriageRegistration */\n      dup6\n        /* \"Documents/GitHub/Store-system-with-feedback/main.sol\":5693:5744  structMarriageRegistrations[idMarriageRegistration] */\n      dup2\n      sload\n      dup2\n      lt\n      tag_372\n      jumpi\n      tag_373\n      tag_134\n      jump\t// in\n    tag_373:\n    tag_372:\n      swap1\n      0x00\n      mstore\n      keccak256(0x00, 0x20)\n      swap1\n      0x03\n      mul\n      add\n        /* \"Documents/GitHub/Store-system-with-feedback/main.sol\":5693:5754  structMarriageRegistrations[idMarriageRegistration].userLogin */\n      0x00\n      add\n      0x00\n      swap1\n      sload\n      swap1\n      0x0100\n      exp\n      swap1\n      div\n      0xffffffffffffffffffffffffffffffffffffffff\n      and\n        /* \"Documents/GitHub/Store-system-with-feedback/main.sol\":5681:5755  structUsers[structMarriageRegistrations[idMarriageRegistration].userLogin] */\n      0xffffffffffffffffffffffffffffffffffffffff\n      and\n      0xffffffffffffffffffffffffffffffffffffffff\n      and\n      dup2\n      mstore\n      0x20\n      add\n      swap1\n      dup2\n      mstore\n      0x20\n      add\n      0x00\n      keccak256\n        /* \"Documents/GitHub/Store-system-with-feedback/main.sol\":5681:5764  structUsers[structMarriageRegistrations[idMarriageRegistration].userLogin].ballance */\n      0x02\n      add\n        /* \"Documents/GitHub/Store-system-with-feedback/main.sol\":5681:5939  structUsers[structMarriageRegistrations[idMarriageRegistration].userLogin].ballance = structUsers[structMarriageRegistrations[idMarriageRegistration].userLogin].ballance + structProducts[structMarriageRegistrations[idMarriageRegistration].titleProduct].price */\n      dup2\n      swap1\n      sstore\n      pop\n        /* \"Documents/GitHub/Store-system-with-feedback/main.sol\":6007:6012  false */\n      0x00\n        /* \"Documents/GitHub/Store-system-with-feedback/main.sol\":5954:5973  structStatusReturns */\n      0x0b\n        /* \"Documents/GitHub/Store-system-with-feedback/main.sol\":5974:5996  idMarriageRegistration */\n      dup4\n        /* \"Documents/GitHub/Store-system-with-feedback/main.sol\":5954:5997  structStatusReturns[idMarriageRegistration] */\n      dup2\n      sload\n      dup2\n      lt\n      tag_375\n      jumpi\n      tag_376\n      tag_134\n      jump\t// in\n    tag_376:\n    tag_375:\n      swap1\n      0x00\n      mstore\n      keccak256(0x00, 0x20)\n      swap1\n      0x03\n      mul\n      add\n        /* \"Documents/GitHub/Store-system-with-feedback/main.sol\":5954:6004  structStatusReturns[idMarriageRegistration].status */\n      0x02\n      add\n      0x00\n        /* \"Documents/GitHub/Store-system-with-feedback/main.sol\":5954:6012  structStatusReturns[idMarriageRegistration].status = false */\n      0x0100\n      exp\n      dup2\n      sload\n      dup2\n      0xff\n      mul\n      not\n      and\n      swap1\n      dup4\n      iszero\n      iszero\n      mul\n      or\n      swap1\n      sstore\n      pop\n        /* \"Documents/GitHub/Store-system-with-feedback/main.sol\":5641:6115  if(confirmation == true) {\r... */\n      jump(tag_378)\n    tag_363:\n        /* \"Documents/GitHub/Store-system-with-feedback/main.sol\":6098:6103  false */\n      0x00\n        /* \"Documents/GitHub/Store-system-with-feedback/main.sol\":6045:6064  structStatusReturns */\n      0x0b\n        /* \"Documents/GitHub/Store-system-with-feedback/main.sol\":6065:6087  idMarriageRegistration */\n      dup4\n        /* \"Documents/GitHub/Store-system-with-feedback/main.sol\":6045:6088  structStatusReturns[idMarriageRegistration] */\n      dup2\n      sload\n      dup2\n      lt\n      tag_379\n      jumpi\n      tag_380\n      tag_134\n      jump\t// in\n    tag_380:\n    tag_379:\n      swap1\n      0x00\n      mstore\n      keccak256(0x00, 0x20)\n      swap1\n      0x03\n      mul\n      add\n        /* \"Documents/GitHub/Store-system-with-feedback/main.sol\":6045:6095  structStatusReturns[idMarriageRegistration].status */\n      0x02\n      add\n      0x00\n        /* \"Documents/GitHub/Store-system-with-feedback/main.sol\":6045:6103  structStatusReturns[idMarriageRegistration].status = false */\n      0x0100\n      exp\n      dup2\n      sload\n      dup2\n      0xff\n      mul\n      not\n      and\n      swap1\n      dup4\n      iszero\n      iszero\n      mul\n      or\n      swap1\n      sstore\n      pop\n        /* \"Documents/GitHub/Store-system-with-feedback/main.sol\":5641:6115  if(confirmation == true) {\r... */\n    tag_378:\n        /* \"Documents/GitHub/Store-system-with-feedback/main.sol\":5545:6122  function MarriageRegistration(uint idMarriageRegistration, bool confirmation) public {\r... */\n      pop\n      pop\n      jump\t// out\n    tag_166:\n      dup3\n      dup1\n      sload\n      tag_382\n      swap1\n      tag_184\n      jump\t// in\n    tag_382:\n      swap1\n      0x00\n      mstore\n      keccak256(0x00, 0x20)\n      swap1\n      0x1f\n      add\n      0x20\n      swap1\n      div\n      dup2\n      add\n      swap3\n      dup3\n      tag_384\n      jumpi\n      0x00\n      dup6\n      sstore\n      jump(tag_383)\n    tag_384:\n      dup3\n      0x1f\n      lt\n      tag_385\n      jumpi\n      dup1\n      mload\n      not(0xff)\n      and\n      dup4\n      dup1\n      add\n      or\n      dup6\n      sstore\n      jump(tag_383)\n    tag_385:\n      dup3\n      dup1\n      add\n      0x01\n      add\n      dup6\n      sstore\n      dup3\n      iszero\n      tag_383\n      jumpi\n      swap2\n      dup3\n      add\n    tag_386:\n      dup3\n      dup2\n      gt\n      iszero\n      tag_387\n      jumpi\n      dup3\n      mload\n      dup3\n      sstore\n      swap2\n      0x20\n      add\n      swap2\n      swap1\n      0x01\n      add\n      swap1\n      jump(tag_386)\n    tag_387:\n    tag_383:\n      pop\n      swap1\n      pop\n      tag_388\n      swap2\n      swap1\n      tag_389\n      jump\t// in\n    tag_388:\n      pop\n      swap1\n      jump\t// out\n    tag_196:\n      dup3\n      dup1\n      sload\n      dup3\n      dup3\n      sstore\n      swap1\n      0x00\n      mstore\n      keccak256(0x00, 0x20)\n      swap1\n      dup2\n      add\n      swap3\n      dup3\n      iszero\n      tag_390\n      jumpi\n      swap2\n      0x20\n      mul\n      dup3\n      add\n    tag_391:\n      dup3\n      dup2\n      gt\n      iszero\n      tag_392\n      jumpi\n      dup3\n      mload\n      dup3\n      swap1\n      dup1\n      mload\n      swap1\n      0x20\n      add\n      swap1\n      tag_393\n      swap3\n      swap2\n      swap1\n      tag_166\n      jump\t// in\n    tag_393:\n      pop\n      swap2\n      0x20\n      add\n      swap2\n      swap1\n      0x01\n      add\n      swap1\n      jump(tag_391)\n    tag_392:\n    tag_390:\n      pop\n      swap1\n      pop\n      tag_394\n      swap2\n      swap1\n      tag_395\n      jump\t// in\n    tag_394:\n      pop\n      swap1\n      jump\t// out\n    tag_389:\n    tag_396:\n      dup1\n      dup3\n      gt\n      iszero\n      tag_397\n      jumpi\n      0x00\n      dup2\n      0x00\n      swap1\n      sstore\n      pop\n      0x01\n      add\n      jump(tag_396)\n    tag_397:\n      pop\n      swap1\n      jump\t// out\n    tag_395:\n    tag_398:\n      dup1\n      dup3\n      gt\n      iszero\n      tag_399\n      jumpi\n      0x00\n      dup2\n      dup2\n      tag_400\n      swap2\n      swap1\n      tag_401\n      jump\t// in\n    tag_400:\n      pop\n      0x01\n      add\n      jump(tag_398)\n    tag_399:\n      pop\n      swap1\n      jump\t// out\n    tag_401:\n      pop\n      dup1\n      sload\n      tag_402\n      swap1\n      tag_184\n      jump\t// in\n    tag_402:\n      0x00\n      dup3\n      sstore\n      dup1\n      0x1f\n      lt\n      tag_404\n      jumpi\n      pop\n      jump(tag_403)\n    tag_404:\n      0x1f\n      add\n      0x20\n      swap1\n      div\n      swap1\n      0x00\n      mstore\n      keccak256(0x00, 0x20)\n      swap1\n      dup2\n      add\n      swap1\n      tag_405\n      swap2\n      swap1\n      tag_389\n      jump\t// in\n    tag_405:\n    tag_403:\n      pop\n      jump\t// out\n        /* \"#utility.yul\":23:980   */\n    tag_407:\n        /* \"#utility.yul\":129:134   */\n      0x00\n        /* \"#utility.yul\":154:245   */\n      tag_409\n        /* \"#utility.yul\":170:244   */\n      tag_410\n        /* \"#utility.yul\":237:243   */\n      dup5\n        /* \"#utility.yul\":170:244   */\n      tag_411\n      jump\t// in\n    tag_410:\n        /* \"#utility.yul\":154:245   */\n      tag_412\n      jump\t// in\n    tag_409:\n        /* \"#utility.yul\":145:245   */\n      swap1\n      pop\n        /* \"#utility.yul\":265:270   */\n      dup1\n        /* \"#utility.yul\":294:300   */\n      dup4\n        /* \"#utility.yul\":287:292   */\n      dup3\n        /* \"#utility.yul\":280:301   */\n      mstore\n        /* \"#utility.yul\":328:332   */\n      0x20\n        /* \"#utility.yul\":321:326   */\n      dup3\n        /* \"#utility.yul\":317:333   */\n      add\n        /* \"#utility.yul\":310:333   */\n      swap1\n      pop\n        /* \"#utility.yul\":354:360   */\n      dup3\n        /* \"#utility.yul\":404:407   */\n      dup6\n        /* \"#utility.yul\":396:400   */\n      0x20\n        /* \"#utility.yul\":388:394   */\n      dup7\n        /* \"#utility.yul\":384:401   */\n      mul\n        /* \"#utility.yul\":379:382   */\n      dup3\n        /* \"#utility.yul\":375:402   */\n      add\n        /* \"#utility.yul\":372:408   */\n      gt\n        /* \"#utility.yul\":369:512   */\n      iszero\n      tag_413\n      jumpi\n        /* \"#utility.yul\":423:502   */\n      tag_414\n      tag_415\n      jump\t// in\n    tag_414:\n        /* \"#utility.yul\":369:512   */\n    tag_413:\n        /* \"#utility.yul\":536:537   */\n      0x00\n        /* \"#utility.yul\":521:974   */\n    tag_416:\n        /* \"#utility.yul\":546:552   */\n      dup6\n        /* \"#utility.yul\":543:544   */\n      dup2\n        /* \"#utility.yul\":540:553   */\n      lt\n        /* \"#utility.yul\":521:974   */\n      iszero\n      tag_418\n      jumpi\n        /* \"#utility.yul\":628:631   */\n      dup2\n        /* \"#utility.yul\":615:632   */\n      calldataload\n        /* \"#utility.yul\":664:682   */\n      0xffffffffffffffff\n        /* \"#utility.yul\":651:662   */\n      dup2\n        /* \"#utility.yul\":648:683   */\n      gt\n        /* \"#utility.yul\":645:767   */\n      iszero\n      tag_419\n      jumpi\n        /* \"#utility.yul\":686:765   */\n      tag_420\n      tag_421\n      jump\t// in\n    tag_420:\n        /* \"#utility.yul\":645:767   */\n    tag_419:\n        /* \"#utility.yul\":810:821   */\n      dup1\n        /* \"#utility.yul\":802:808   */\n      dup7\n        /* \"#utility.yul\":798:822   */\n      add\n        /* \"#utility.yul\":848:895   */\n      tag_422\n        /* \"#utility.yul\":891:894   */\n      dup10\n        /* \"#utility.yul\":879:889   */\n      dup3\n        /* \"#utility.yul\":848:895   */\n      tag_423\n      jump\t// in\n    tag_422:\n        /* \"#utility.yul\":843:846   */\n      dup6\n        /* \"#utility.yul\":836:896   */\n      mstore\n        /* \"#utility.yul\":925:929   */\n      0x20\n        /* \"#utility.yul\":920:923   */\n      dup6\n        /* \"#utility.yul\":916:930   */\n      add\n        /* \"#utility.yul\":909:930   */\n      swap5\n      pop\n        /* \"#utility.yul\":959:963   */\n      0x20\n        /* \"#utility.yul\":954:957   */\n      dup5\n        /* \"#utility.yul\":950:964   */\n      add\n        /* \"#utility.yul\":943:964   */\n      swap4\n      pop\n        /* \"#utility.yul\":581:974   */\n      pop\n      pop\n        /* \"#utility.yul\":568:569   */\n      0x01\n        /* \"#utility.yul\":565:566   */\n      dup2\n        /* \"#utility.yul\":561:570   */\n      add\n        /* \"#utility.yul\":556:570   */\n      swap1\n      pop\n        /* \"#utility.yul\":521:974   */\n      jump(tag_416)\n    tag_418:\n        /* \"#utility.yul\":525:539   */\n      pop\n        /* \"#utility.yul\":135:980   */\n      pop\n      pop\n        /* \"#utility.yul\":23:980   */\n      swap4\n      swap3\n      pop\n      pop\n      pop\n      jump\t// out\n        /* \"#utility.yul\":986:1398   */\n    tag_424:\n        /* \"#utility.yul\":1064:1069   */\n      0x00\n        /* \"#utility.yul\":1089:1155   */\n      tag_426\n        /* \"#utility.yul\":1105:1154   */\n      tag_427\n        /* \"#utility.yul\":1147:1153   */\n      dup5\n        /* \"#utility.yul\":1105:1154   */\n      tag_428\n      jump\t// in\n    tag_427:\n        /* \"#utility.yul\":1089:1155   */\n      tag_412\n      jump\t// in\n    tag_426:\n        /* \"#utility.yul\":1080:1155   */\n      swap1\n      pop\n        /* \"#utility.yul\":1178:1184   */\n      dup3\n        /* \"#utility.yul\":1171:1176   */\n      dup2\n        /* \"#utility.yul\":1164:1185   */\n      mstore\n        /* \"#utility.yul\":1216:1220   */\n      0x20\n        /* \"#utility.yul\":1209:1214   */\n      dup2\n        /* \"#utility.yul\":1205:1221   */\n      add\n        /* \"#utility.yul\":1254:1257   */\n      dup5\n        /* \"#utility.yul\":1245:1251   */\n      dup5\n        /* \"#utility.yul\":1240:1243   */\n      dup5\n        /* \"#utility.yul\":1236:1252   */\n      add\n        /* \"#utility.yul\":1233:1258   */\n      gt\n        /* \"#utility.yul\":1230:1342   */\n      iszero\n      tag_429\n      jumpi\n        /* \"#utility.yul\":1261:1340   */\n      tag_430\n      tag_431\n      jump\t// in\n    tag_430:\n        /* \"#utility.yul\":1230:1342   */\n    tag_429:\n        /* \"#utility.yul\":1351:1392   */\n      tag_432\n        /* \"#utility.yul\":1385:1391   */\n      dup5\n        /* \"#utility.yul\":1380:1383   */\n      dup3\n        /* \"#utility.yul\":1375:1378   */\n      dup6\n        /* \"#utility.yul\":1351:1392   */\n      tag_433\n      jump\t// in\n    tag_432:\n        /* \"#utility.yul\":1070:1398   */\n      pop\n        /* \"#utility.yul\":986:1398   */\n      swap4\n      swap3\n      pop\n      pop\n      pop\n      jump\t// out\n        /* \"#utility.yul\":1404:1543   */\n    tag_434:\n        /* \"#utility.yul\":1450:1455   */\n      0x00\n        /* \"#utility.yul\":1488:1494   */\n      dup2\n        /* \"#utility.yul\":1475:1495   */\n      calldataload\n        /* \"#utility.yul\":1466:1495   */\n      swap1\n      pop\n        /* \"#utility.yul\":1504:1537   */\n      tag_436\n        /* \"#utility.yul\":1531:1536   */\n      dup2\n        /* \"#utility.yul\":1504:1537   */\n      tag_437\n      jump\t// in\n    tag_436:\n        /* \"#utility.yul\":1404:1543   */\n      swap3\n      swap2\n      pop\n      pop\n      jump\t// out\n        /* \"#utility.yul\":1565:1955   */\n    tag_438:\n        /* \"#utility.yul\":1646:1651   */\n      0x00\n        /* \"#utility.yul\":1695:1698   */\n      dup3\n        /* \"#utility.yul\":1688:1692   */\n      0x1f\n        /* \"#utility.yul\":1680:1686   */\n      dup4\n        /* \"#utility.yul\":1676:1693   */\n      add\n        /* \"#utility.yul\":1672:1699   */\n      slt\n        /* \"#utility.yul\":1662:1784   */\n      tag_440\n      jumpi\n        /* \"#utility.yul\":1703:1782   */\n      tag_441\n      tag_421\n      jump\t// in\n    tag_441:\n        /* \"#utility.yul\":1662:1784   */\n    tag_440:\n        /* \"#utility.yul\":1820:1826   */\n      dup2\n        /* \"#utility.yul\":1807:1827   */\n      calldataload\n        /* \"#utility.yul\":1845:1949   */\n      tag_442\n        /* \"#utility.yul\":1945:1948   */\n      dup5\n        /* \"#utility.yul\":1937:1943   */\n      dup3\n        /* \"#utility.yul\":1930:1934   */\n      0x20\n        /* \"#utility.yul\":1922:1928   */\n      dup7\n        /* \"#utility.yul\":1918:1935   */\n      add\n        /* \"#utility.yul\":1845:1949   */\n      tag_407\n      jump\t// in\n    tag_442:\n        /* \"#utility.yul\":1836:1949   */\n      swap2\n      pop\n        /* \"#utility.yul\":1652:1955   */\n      pop\n        /* \"#utility.yul\":1565:1955   */\n      swap3\n      swap2\n      pop\n      pop\n      jump\t// out\n        /* \"#utility.yul\":1961:2094   */\n    tag_443:\n        /* \"#utility.yul\":2004:2009   */\n      0x00\n        /* \"#utility.yul\":2042:2048   */\n      dup2\n        /* \"#utility.yul\":2029:2049   */\n      calldataload\n        /* \"#utility.yul\":2020:2049   */\n      swap1\n      pop\n        /* \"#utility.yul\":2058:2088   */\n      tag_445\n        /* \"#utility.yul\":2082:2087   */\n      dup2\n        /* \"#utility.yul\":2058:2088   */\n      tag_446\n      jump\t// in\n    tag_445:\n        /* \"#utility.yul\":1961:2094   */\n      swap3\n      swap2\n      pop\n      pop\n      jump\t// out\n        /* \"#utility.yul\":2100:2239   */\n    tag_447:\n        /* \"#utility.yul\":2146:2151   */\n      0x00\n        /* \"#utility.yul\":2184:2190   */\n      dup2\n        /* \"#utility.yul\":2171:2191   */\n      calldataload\n        /* \"#utility.yul\":2162:2191   */\n      swap1\n      pop\n        /* \"#utility.yul\":2200:2233   */\n      tag_449\n        /* \"#utility.yul\":2227:2232   */\n      dup2\n        /* \"#utility.yul\":2200:2233   */\n      tag_450\n      jump\t// in\n    tag_449:\n        /* \"#utility.yul\":2100:2239   */\n      swap3\n      swap2\n      pop\n      pop\n      jump\t// out\n        /* \"#utility.yul\":2259:2599   */\n    tag_423:\n        /* \"#utility.yul\":2315:2320   */\n      0x00\n        /* \"#utility.yul\":2364:2367   */\n      dup3\n        /* \"#utility.yul\":2357:2361   */\n      0x1f\n        /* \"#utility.yul\":2349:2355   */\n      dup4\n        /* \"#utility.yul\":2345:2362   */\n      add\n        /* \"#utility.yul\":2341:2368   */\n      slt\n        /* \"#utility.yul\":2331:2453   */\n      tag_452\n      jumpi\n        /* \"#utility.yul\":2372:2451   */\n      tag_453\n      tag_421\n      jump\t// in\n    tag_453:\n        /* \"#utility.yul\":2331:2453   */\n    tag_452:\n        /* \"#utility.yul\":2489:2495   */\n      dup2\n        /* \"#utility.yul\":2476:2496   */\n      calldataload\n        /* \"#utility.yul\":2514:2593   */\n      tag_454\n        /* \"#utility.yul\":2589:2592   */\n      dup5\n        /* \"#utility.yul\":2581:2587   */\n      dup3\n        /* \"#utility.yul\":2574:2578   */\n      0x20\n        /* \"#utility.yul\":2566:2572   */\n      dup7\n        /* \"#utility.yul\":2562:2579   */\n      add\n        /* \"#utility.yul\":2514:2593   */\n      tag_424\n      jump\t// in\n    tag_454:\n        /* \"#utility.yul\":2505:2593   */\n      swap2\n      pop\n        /* \"#utility.yul\":2321:2599   */\n      pop\n        /* \"#utility.yul\":2259:2599   */\n      swap3\n      swap2\n      pop\n      pop\n      jump\t// out\n        /* \"#utility.yul\":2605:2744   */\n    tag_455:\n        /* \"#utility.yul\":2651:2656   */\n      0x00\n        /* \"#utility.yul\":2689:2695   */\n      dup2\n        /* \"#utility.yul\":2676:2696   */\n      calldataload\n        /* \"#utility.yul\":2667:2696   */\n      swap1\n      pop\n        /* \"#utility.yul\":2705:2738   */\n      tag_457\n        /* \"#utility.yul\":2732:2737   */\n      dup2\n        /* \"#utility.yul\":2705:2738   */\n      tag_458\n      jump\t// in\n    tag_457:\n        /* \"#utility.yul\":2605:2744   */\n      swap3\n      swap2\n      pop\n      pop\n      jump\t// out\n        /* \"#utility.yul\":2750:3079   */\n    tag_82:\n        /* \"#utility.yul\":2809:2815   */\n      0x00\n        /* \"#utility.yul\":2858:2860   */\n      0x20\n        /* \"#utility.yul\":2846:2855   */\n      dup3\n        /* \"#utility.yul\":2837:2844   */\n      dup5\n        /* \"#utility.yul\":2833:2856   */\n      sub\n        /* \"#utility.yul\":2829:2861   */\n      slt\n        /* \"#utility.yul\":2826:2945   */\n      iszero\n      tag_460\n      jumpi\n        /* \"#utility.yul\":2864:2943   */\n      tag_461\n      tag_462\n      jump\t// in\n    tag_461:\n        /* \"#utility.yul\":2826:2945   */\n    tag_460:\n        /* \"#utility.yul\":2984:2985   */\n      0x00\n        /* \"#utility.yul\":3009:3062   */\n      tag_463\n        /* \"#utility.yul\":3054:3061   */\n      dup5\n        /* \"#utility.yul\":3045:3051   */\n      dup3\n        /* \"#utility.yul\":3034:3043   */\n      dup6\n        /* \"#utility.yul\":3030:3052   */\n      add\n        /* \"#utility.yul\":3009:3062   */\n      tag_434\n      jump\t// in\n    tag_463:\n        /* \"#utility.yul\":2999:3062   */\n      swap2\n      pop\n        /* \"#utility.yul\":2955:3072   */\n      pop\n        /* \"#utility.yul\":2750:3079   */\n      swap3\n      swap2\n      pop\n      pop\n      jump\t// out\n        /* \"#utility.yul\":3085:3884   */\n    tag_36:\n        /* \"#utility.yul\":3172:3178   */\n      0x00\n        /* \"#utility.yul\":3180:3186   */\n      dup1\n        /* \"#utility.yul\":3188:3194   */\n      0x00\n        /* \"#utility.yul\":3237:3239   */\n      0x60\n        /* \"#utility.yul\":3225:3234   */\n      dup5\n        /* \"#utility.yul\":3216:3223   */\n      dup7\n        /* \"#utility.yul\":3212:3235   */\n      sub\n        /* \"#utility.yul\":3208:3240   */\n      slt\n        /* \"#utility.yul\":3205:3324   */\n      iszero\n      tag_465\n      jumpi\n        /* \"#utility.yul\":3243:3322   */\n      tag_466\n      tag_462\n      jump\t// in\n    tag_466:\n        /* \"#utility.yul\":3205:3324   */\n    tag_465:\n        /* \"#utility.yul\":3363:3364   */\n      0x00\n        /* \"#utility.yul\":3388:3441   */\n      tag_467\n        /* \"#utility.yul\":3433:3440   */\n      dup7\n        /* \"#utility.yul\":3424:3430   */\n      dup3\n        /* \"#utility.yul\":3413:3422   */\n      dup8\n        /* \"#utility.yul\":3409:3431   */\n      add\n        /* \"#utility.yul\":3388:3441   */\n      tag_434\n      jump\t// in\n    tag_467:\n        /* \"#utility.yul\":3378:3441   */\n      swap4\n      pop\n        /* \"#utility.yul\":3334:3451   */\n      pop\n        /* \"#utility.yul\":3518:3520   */\n      0x20\n        /* \"#utility.yul\":3507:3516   */\n      dup5\n        /* \"#utility.yul\":3503:3521   */\n      add\n        /* \"#utility.yul\":3490:3522   */\n      calldataload\n        /* \"#utility.yul\":3549:3567   */\n      0xffffffffffffffff\n        /* \"#utility.yul\":3541:3547   */\n      dup2\n        /* \"#utility.yul\":3538:3568   */\n      gt\n        /* \"#utility.yul\":3535:3652   */\n      iszero\n      tag_468\n      jumpi\n        /* \"#utility.yul\":3571:3650   */\n      tag_469\n      tag_470\n      jump\t// in\n    tag_469:\n        /* \"#utility.yul\":3535:3652   */\n    tag_468:\n        /* \"#utility.yul\":3676:3739   */\n      tag_471\n        /* \"#utility.yul\":3731:3738   */\n      dup7\n        /* \"#utility.yul\":3722:3728   */\n      dup3\n        /* \"#utility.yul\":3711:3720   */\n      dup8\n        /* \"#utility.yul\":3707:3729   */\n      add\n        /* \"#utility.yul\":3676:3739   */\n      tag_423\n      jump\t// in\n    tag_471:\n        /* \"#utility.yul\":3666:3739   */\n      swap3\n      pop\n        /* \"#utility.yul\":3461:3749   */\n      pop\n        /* \"#utility.yul\":3788:3790   */\n      0x40\n        /* \"#utility.yul\":3814:3867   */\n      tag_472\n        /* \"#utility.yul\":3859:3866   */\n      dup7\n        /* \"#utility.yul\":3850:3856   */\n      dup3\n        /* \"#utility.yul\":3839:3848   */\n      dup8\n        /* \"#utility.yul\":3835:3857   */\n      add\n        /* \"#utility.yul\":3814:3867   */\n      tag_447\n      jump\t// in\n    tag_472:\n        /* \"#utility.yul\":3804:3867   */\n      swap2\n      pop\n        /* \"#utility.yul\":3759:3877   */\n      pop\n        /* \"#utility.yul\":3085:3884   */\n      swap3\n      pop\n      swap3\n      pop\n      swap3\n      jump\t// out\n        /* \"#utility.yul\":3890:4399   */\n    tag_40:\n        /* \"#utility.yul\":3959:3965   */\n      0x00\n        /* \"#utility.yul\":4008:4010   */\n      0x20\n        /* \"#utility.yul\":3996:4005   */\n      dup3\n        /* \"#utility.yul\":3987:3994   */\n      dup5\n        /* \"#utility.yul\":3983:4006   */\n      sub\n        /* \"#utility.yul\":3979:4011   */\n      slt\n        /* \"#utility.yul\":3976:4095   */\n      iszero\n      tag_474\n      jumpi\n        /* \"#utility.yul\":4014:4093   */\n      tag_475\n      tag_462\n      jump\t// in\n    tag_475:\n        /* \"#utility.yul\":3976:4095   */\n    tag_474:\n        /* \"#utility.yul\":4162:4163   */\n      0x00\n        /* \"#utility.yul\":4151:4160   */\n      dup3\n        /* \"#utility.yul\":4147:4164   */\n      add\n        /* \"#utility.yul\":4134:4165   */\n      calldataload\n        /* \"#utility.yul\":4192:4210   */\n      0xffffffffffffffff\n        /* \"#utility.yul\":4184:4190   */\n      dup2\n        /* \"#utility.yul\":4181:4211   */\n      gt\n        /* \"#utility.yul\":4178:4295   */\n      iszero\n      tag_476\n      jumpi\n        /* \"#utility.yul\":4214:4293   */\n      tag_477\n      tag_470\n      jump\t// in\n    tag_477:\n        /* \"#utility.yul\":4178:4295   */\n    tag_476:\n        /* \"#utility.yul\":4319:4382   */\n      tag_478\n        /* \"#utility.yul\":4374:4381   */\n      dup5\n        /* \"#utility.yul\":4365:4371   */\n      dup3\n        /* \"#utility.yul\":4354:4363   */\n      dup6\n        /* \"#utility.yul\":4350:4372   */\n      add\n        /* \"#utility.yul\":4319:4382   */\n      tag_423\n      jump\t// in\n    tag_478:\n        /* \"#utility.yul\":4309:4382   */\n      swap2\n      pop\n        /* \"#utility.yul\":4105:4392   */\n      pop\n        /* \"#utility.yul\":3890:4399   */\n      swap3\n      swap2\n      pop\n      pop\n      jump\t// out\n        /* \"#utility.yul\":4405:5289   */\n    tag_49:\n        /* \"#utility.yul\":4518:4524   */\n      0x00\n        /* \"#utility.yul\":4526:4532   */\n      dup1\n        /* \"#utility.yul\":4575:4577   */\n      0x40\n        /* \"#utility.yul\":4563:4572   */\n      dup4\n        /* \"#utility.yul\":4554:4561   */\n      dup6\n        /* \"#utility.yul\":4550:4573   */\n      sub\n        /* \"#utility.yul\":4546:4578   */\n      slt\n        /* \"#utility.yul\":4543:4662   */\n      iszero\n      tag_480\n      jumpi\n        /* \"#utility.yul\":4581:4660   */\n      tag_481\n      tag_462\n      jump\t// in\n    tag_481:\n        /* \"#utility.yul\":4543:4662   */\n    tag_480:\n        /* \"#utility.yul\":4729:4730   */\n      0x00\n        /* \"#utility.yul\":4718:4727   */\n      dup4\n        /* \"#utility.yul\":4714:4731   */\n      add\n        /* \"#utility.yul\":4701:4732   */\n      calldataload\n        /* \"#utility.yul\":4759:4777   */\n      0xffffffffffffffff\n        /* \"#utility.yul\":4751:4757   */\n      dup2\n        /* \"#utility.yul\":4748:4778   */\n      gt\n        /* \"#utility.yul\":4745:4862   */\n      iszero\n      tag_482\n      jumpi\n        /* \"#utility.yul\":4781:4860   */\n      tag_483\n      tag_470\n      jump\t// in\n    tag_483:\n        /* \"#utility.yul\":4745:4862   */\n    tag_482:\n        /* \"#utility.yul\":4886:4949   */\n      tag_484\n        /* \"#utility.yul\":4941:4948   */\n      dup6\n        /* \"#utility.yul\":4932:4938   */\n      dup3\n        /* \"#utility.yul\":4921:4930   */\n      dup7\n        /* \"#utility.yul\":4917:4939   */\n      add\n        /* \"#utility.yul\":4886:4949   */\n      tag_423\n      jump\t// in\n    tag_484:\n        /* \"#utility.yul\":4876:4949   */\n      swap3\n      pop\n        /* \"#utility.yul\":4672:4959   */\n      pop\n        /* \"#utility.yul\":5026:5028   */\n      0x20\n        /* \"#utility.yul\":5015:5024   */\n      dup4\n        /* \"#utility.yul\":5011:5029   */\n      add\n        /* \"#utility.yul\":4998:5030   */\n      calldataload\n        /* \"#utility.yul\":5057:5075   */\n      0xffffffffffffffff\n        /* \"#utility.yul\":5049:5055   */\n      dup2\n        /* \"#utility.yul\":5046:5076   */\n      gt\n        /* \"#utility.yul\":5043:5160   */\n      iszero\n      tag_485\n      jumpi\n        /* \"#utility.yul\":5079:5158   */\n      tag_486\n      tag_470\n      jump\t// in\n    tag_486:\n        /* \"#utility.yul\":5043:5160   */\n    tag_485:\n        /* \"#utility.yul\":5184:5272   */\n      tag_487\n        /* \"#utility.yul\":5264:5271   */\n      dup6\n        /* \"#utility.yul\":5255:5261   */\n      dup3\n        /* \"#utility.yul\":5244:5253   */\n      dup7\n        /* \"#utility.yul\":5240:5262   */\n      add\n        /* \"#utility.yul\":5184:5272   */\n      tag_438\n      jump\t// in\n    tag_487:\n        /* \"#utility.yul\":5174:5272   */\n      swap2\n      pop\n        /* \"#utility.yul\":4969:5282   */\n      pop\n        /* \"#utility.yul\":4405:5289   */\n      swap3\n      pop\n      swap3\n      swap1\n      pop\n      jump\t// out\n        /* \"#utility.yul\":5295:5949   */\n    tag_116:\n        /* \"#utility.yul\":5373:5379   */\n      0x00\n        /* \"#utility.yul\":5381:5387   */\n      dup1\n        /* \"#utility.yul\":5430:5432   */\n      0x40\n        /* \"#utility.yul\":5418:5427   */\n      dup4\n        /* \"#utility.yul\":5409:5416   */\n      dup6\n        /* \"#utility.yul\":5405:5428   */\n      sub\n        /* \"#utility.yul\":5401:5433   */\n      slt\n        /* \"#utility.yul\":5398:5517   */\n      iszero\n      tag_489\n      jumpi\n        /* \"#utility.yul\":5436:5515   */\n      tag_490\n      tag_462\n      jump\t// in\n    tag_490:\n        /* \"#utility.yul\":5398:5517   */\n    tag_489:\n        /* \"#utility.yul\":5584:5585   */\n      0x00\n        /* \"#utility.yul\":5573:5582   */\n      dup4\n        /* \"#utility.yul\":5569:5586   */\n      add\n        /* \"#utility.yul\":5556:5587   */\n      calldataload\n        /* \"#utility.yul\":5614:5632   */\n      0xffffffffffffffff\n        /* \"#utility.yul\":5606:5612   */\n      dup2\n        /* \"#utility.yul\":5603:5633   */\n      gt\n        /* \"#utility.yul\":5600:5717   */\n      iszero\n      tag_491\n      jumpi\n        /* \"#utility.yul\":5636:5715   */\n      tag_492\n      tag_470\n      jump\t// in\n    tag_492:\n        /* \"#utility.yul\":5600:5717   */\n    tag_491:\n        /* \"#utility.yul\":5741:5804   */\n      tag_493\n        /* \"#utility.yul\":5796:5803   */\n      dup6\n        /* \"#utility.yul\":5787:5793   */\n      dup3\n        /* \"#utility.yul\":5776:5785   */\n      dup7\n        /* \"#utility.yul\":5772:5794   */\n      add\n        /* \"#utility.yul\":5741:5804   */\n      tag_423\n      jump\t// in\n    tag_493:\n        /* \"#utility.yul\":5731:5804   */\n      swap3\n      pop\n        /* \"#utility.yul\":5527:5814   */\n      pop\n        /* \"#utility.yul\":5853:5855   */\n      0x20\n        /* \"#utility.yul\":5879:5932   */\n      tag_494\n        /* \"#utility.yul\":5924:5931   */\n      dup6\n        /* \"#utility.yul\":5915:5921   */\n      dup3\n        /* \"#utility.yul\":5904:5913   */\n      dup7\n        /* \"#utility.yul\":5900:5922   */\n      add\n        /* \"#utility.yul\":5879:5932   */\n      tag_447\n      jump\t// in\n    tag_494:\n        /* \"#utility.yul\":5869:5932   */\n      swap2\n      pop\n        /* \"#utility.yul\":5824:5942   */\n      pop\n        /* \"#utility.yul\":5295:5949   */\n      swap3\n      pop\n      swap3\n      swap1\n      pop\n      jump\t// out\n        /* \"#utility.yul\":5955:6934   */\n    tag_112:\n        /* \"#utility.yul\":6052:6058   */\n      0x00\n        /* \"#utility.yul\":6060:6066   */\n      dup1\n        /* \"#utility.yul\":6068:6074   */\n      0x00\n        /* \"#utility.yul\":6117:6119   */\n      0x60\n        /* \"#utility.yul\":6105:6114   */\n      dup5\n        /* \"#utility.yul\":6096:6103   */\n      dup7\n        /* \"#utility.yul\":6092:6115   */\n      sub\n        /* \"#utility.yul\":6088:6120   */\n      slt\n        /* \"#utility.yul\":6085:6204   */\n      iszero\n      tag_496\n      jumpi\n        /* \"#utility.yul\":6123:6202   */\n      tag_497\n      tag_462\n      jump\t// in\n    tag_497:\n        /* \"#utility.yul\":6085:6204   */\n    tag_496:\n        /* \"#utility.yul\":6271:6272   */\n      0x00\n        /* \"#utility.yul\":6260:6269   */\n      dup5\n        /* \"#utility.yul\":6256:6273   */\n      add\n        /* \"#utility.yul\":6243:6274   */\n      calldataload\n        /* \"#utility.yul\":6301:6319   */\n      0xffffffffffffffff\n        /* \"#utility.yul\":6293:6299   */\n      dup2\n        /* \"#utility.yul\":6290:6320   */\n      gt\n        /* \"#utility.yul\":6287:6404   */\n      iszero\n      tag_498\n      jumpi\n        /* \"#utility.yul\":6323:6402   */\n      tag_499\n      tag_470\n      jump\t// in\n    tag_499:\n        /* \"#utility.yul\":6287:6404   */\n    tag_498:\n        /* \"#utility.yul\":6428:6491   */\n      tag_500\n        /* \"#utility.yul\":6483:6490   */\n      dup7\n        /* \"#utility.yul\":6474:6480   */\n      dup3\n        /* \"#utility.yul\":6463:6472   */\n      dup8\n        /* \"#utility.yul\":6459:6481   */\n      add\n        /* \"#utility.yul\":6428:6491   */\n      tag_423\n      jump\t// in\n    tag_500:\n        /* \"#utility.yul\":6418:6491   */\n      swap4\n      pop\n        /* \"#utility.yul\":6214:6501   */\n      pop\n        /* \"#utility.yul\":6568:6570   */\n      0x20\n        /* \"#utility.yul\":6557:6566   */\n      dup5\n        /* \"#utility.yul\":6553:6571   */\n      add\n        /* \"#utility.yul\":6540:6572   */\n      calldataload\n        /* \"#utility.yul\":6599:6617   */\n      0xffffffffffffffff\n        /* \"#utility.yul\":6591:6597   */\n      dup2\n        /* \"#utility.yul\":6588:6618   */\n      gt\n        /* \"#utility.yul\":6585:6702   */\n      iszero\n      tag_501\n      jumpi\n        /* \"#utility.yul\":6621:6700   */\n      tag_502\n      tag_470\n      jump\t// in\n    tag_502:\n        /* \"#utility.yul\":6585:6702   */\n    tag_501:\n        /* \"#utility.yul\":6726:6789   */\n      tag_503\n        /* \"#utility.yul\":6781:6788   */\n      dup7\n        /* \"#utility.yul\":6772:6778   */\n      dup3\n        /* \"#utility.yul\":6761:6770   */\n      dup8\n        /* \"#utility.yul\":6757:6779   */\n      add\n        /* \"#utility.yul\":6726:6789   */\n      tag_423\n      jump\t// in\n    tag_503:\n        /* \"#utility.yul\":6716:6789   */\n      swap3\n      pop\n        /* \"#utility.yul\":6511:6799   */\n      pop\n        /* \"#utility.yul\":6838:6840   */\n      0x40\n        /* \"#utility.yul\":6864:6917   */\n      tag_504\n        /* \"#utility.yul\":6909:6916   */\n      dup7\n        /* \"#utility.yul\":6900:6906   */\n      dup3\n        /* \"#utility.yul\":6889:6898   */\n      dup8\n        /* \"#utility.yul\":6885:6907   */\n      add\n        /* \"#utility.yul\":6864:6917   */\n      tag_455\n      jump\t// in\n    tag_504:\n        /* \"#utility.yul\":6854:6917   */\n      swap2\n      pop\n        /* \"#utility.yul\":6809:6927   */\n      pop\n        /* \"#utility.yul\":5955:6934   */\n      swap3\n      pop\n      swap3\n      pop\n      swap3\n      jump\t// out\n        /* \"#utility.yul\":6940:7919   */\n    tag_67:\n        /* \"#utility.yul\":7037:7043   */\n      0x00\n        /* \"#utility.yul\":7045:7051   */\n      dup1\n        /* \"#utility.yul\":7053:7059   */\n      0x00\n        /* \"#utility.yul\":7102:7104   */\n      0x60\n        /* \"#utility.yul\":7090:7099   */\n      dup5\n        /* \"#utility.yul\":7081:7088   */\n      dup7\n        /* \"#utility.yul\":7077:7100   */\n      sub\n        /* \"#utility.yul\":7073:7105   */\n      slt\n        /* \"#utility.yul\":7070:7189   */\n      iszero\n      tag_506\n      jumpi\n        /* \"#utility.yul\":7108:7187   */\n      tag_507\n      tag_462\n      jump\t// in\n    tag_507:\n        /* \"#utility.yul\":7070:7189   */\n    tag_506:\n        /* \"#utility.yul\":7256:7257   */\n      0x00\n        /* \"#utility.yul\":7245:7254   */\n      dup5\n        /* \"#utility.yul\":7241:7258   */\n      add\n        /* \"#utility.yul\":7228:7259   */\n      calldataload\n        /* \"#utility.yul\":7286:7304   */\n      0xffffffffffffffff\n        /* \"#utility.yul\":7278:7284   */\n      dup2\n        /* \"#utility.yul\":7275:7305   */\n      gt\n        /* \"#utility.yul\":7272:7389   */\n      iszero\n      tag_508\n      jumpi\n        /* \"#utility.yul\":7308:7387   */\n      tag_509\n      tag_470\n      jump\t// in\n    tag_509:\n        /* \"#utility.yul\":7272:7389   */\n    tag_508:\n        /* \"#utility.yul\":7413:7476   */\n      tag_510\n        /* \"#utility.yul\":7468:7475   */\n      dup7\n        /* \"#utility.yul\":7459:7465   */\n      dup3\n        /* \"#utility.yul\":7448:7457   */\n      dup8\n        /* \"#utility.yul\":7444:7466   */\n      add\n        /* \"#utility.yul\":7413:7476   */\n      tag_423\n      jump\t// in\n    tag_510:\n        /* \"#utility.yul\":7403:7476   */\n      swap4\n      pop\n        /* \"#utility.yul\":7199:7486   */\n      pop\n        /* \"#utility.yul\":7525:7527   */\n      0x20\n        /* \"#utility.yul\":7551:7604   */\n      tag_511\n        /* \"#utility.yul\":7596:7603   */\n      dup7\n        /* \"#utility.yul\":7587:7593   */\n      dup3\n        /* \"#utility.yul\":7576:7585   */\n      dup8\n        /* \"#utility.yul\":7572:7594   */\n      add\n        /* \"#utility.yul\":7551:7604   */\n      tag_455\n      jump\t// in\n    tag_511:\n        /* \"#utility.yul\":7541:7604   */\n      swap3\n      pop\n        /* \"#utility.yul\":7496:7614   */\n      pop\n        /* \"#utility.yul\":7681:7683   */\n      0x40\n        /* \"#utility.yul\":7670:7679   */\n      dup5\n        /* \"#utility.yul\":7666:7684   */\n      add\n        /* \"#utility.yul\":7653:7685   */\n      calldataload\n        /* \"#utility.yul\":7712:7730   */\n      0xffffffffffffffff\n        /* \"#utility.yul\":7704:7710   */\n      dup2\n        /* \"#utility.yul\":7701:7731   */\n      gt\n        /* \"#utility.yul\":7698:7815   */\n      iszero\n      tag_512\n      jumpi\n        /* \"#utility.yul\":7734:7813   */\n      tag_513\n      tag_470\n      jump\t// in\n    tag_513:\n        /* \"#utility.yul\":7698:7815   */\n    tag_512:\n        /* \"#utility.yul\":7839:7902   */\n      tag_514\n        /* \"#utility.yul\":7894:7901   */\n      dup7\n        /* \"#utility.yul\":7885:7891   */\n      dup3\n        /* \"#utility.yul\":7874:7883   */\n      dup8\n        /* \"#utility.yul\":7870:7892   */\n      add\n        /* \"#utility.yul\":7839:7902   */\n      tag_423\n      jump\t// in\n    tag_514:\n        /* \"#utility.yul\":7829:7902   */\n      swap2\n      pop\n        /* \"#utility.yul\":7624:7912   */\n      pop\n        /* \"#utility.yul\":6940:7919   */\n      swap3\n      pop\n      swap3\n      pop\n      swap3\n      jump\t// out\n        /* \"#utility.yul\":7925:8254   */\n    tag_71:\n        /* \"#utility.yul\":7984:7990   */\n      0x00\n        /* \"#utility.yul\":8033:8035   */\n      0x20\n        /* \"#utility.yul\":8021:8030   */\n      dup3\n        /* \"#utility.yul\":8012:8019   */\n      dup5\n        /* \"#utility.yul\":8008:8031   */\n      sub\n        /* \"#utility.yul\":8004:8036   */\n      slt\n        /* \"#utility.yul\":8001:8120   */\n      iszero\n      tag_516\n      jumpi\n        /* \"#utility.yul\":8039:8118   */\n      tag_517\n      tag_462\n      jump\t// in\n    tag_517:\n        /* \"#utility.yul\":8001:8120   */\n    tag_516:\n        /* \"#utility.yul\":8159:8160   */\n      0x00\n        /* \"#utility.yul\":8184:8237   */\n      tag_518\n        /* \"#utility.yul\":8229:8236   */\n      dup5\n        /* \"#utility.yul\":8220:8226   */\n      dup3\n        /* \"#utility.yul\":8209:8218   */\n      dup6\n        /* \"#utility.yul\":8205:8227   */\n      add\n        /* \"#utility.yul\":8184:8237   */\n      tag_455\n      jump\t// in\n    tag_518:\n        /* \"#utility.yul\":8174:8237   */\n      swap2\n      pop\n        /* \"#utility.yul\":8130:8247   */\n      pop\n        /* \"#utility.yul\":7925:8254   */\n      swap3\n      swap2\n      pop\n      pop\n      jump\t// out\n        /* \"#utility.yul\":8260:8728   */\n    tag_32:\n        /* \"#utility.yul\":8325:8331   */\n      0x00\n        /* \"#utility.yul\":8333:8339   */\n      dup1\n        /* \"#utility.yul\":8382:8384   */\n      0x40\n        /* \"#utility.yul\":8370:8379   */\n      dup4\n        /* \"#utility.yul\":8361:8368   */\n      dup6\n        /* \"#utility.yul\":8357:8380   */\n      sub\n        /* \"#utility.yul\":8353:8385   */\n      slt\n        /* \"#utility.yul\":8350:8469   */\n      iszero\n      tag_520\n      jumpi\n        /* \"#utility.yul\":8388:8467   */\n      tag_521\n      tag_462\n      jump\t// in\n    tag_521:\n        /* \"#utility.yul\":8350:8469   */\n    tag_520:\n        /* \"#utility.yul\":8508:8509   */\n      0x00\n        /* \"#utility.yul\":8533:8586   */\n      tag_522\n        /* \"#utility.yul\":8578:8585   */\n      dup6\n        /* \"#utility.yul\":8569:8575   */\n      dup3\n        /* \"#utility.yul\":8558:8567   */\n      dup7\n        /* \"#utility.yul\":8554:8576   */\n      add\n        /* \"#utility.yul\":8533:8586   */\n      tag_455\n      jump\t// in\n    tag_522:\n        /* \"#utility.yul\":8523:8586   */\n      swap3\n      pop\n        /* \"#utility.yul\":8479:8596   */\n      pop\n        /* \"#utility.yul\":8635:8637   */\n      0x20\n        /* \"#utility.yul\":8661:8711   */\n      tag_523\n        /* \"#utility.yul\":8703:8710   */\n      dup6\n        /* \"#utility.yul\":8694:8700   */\n      dup3\n        /* \"#utility.yul\":8683:8692   */\n      dup7\n        /* \"#utility.yul\":8679:8701   */\n      add\n        /* \"#utility.yul\":8661:8711   */\n      tag_443\n      jump\t// in\n    tag_523:\n        /* \"#utility.yul\":8651:8711   */\n      swap2\n      pop\n        /* \"#utility.yul\":8606:8721   */\n      pop\n        /* \"#utility.yul\":8260:8728   */\n      swap3\n      pop\n      swap3\n      swap1\n      pop\n      jump\t// out\n        /* \"#utility.yul\":8734:8930   */\n    tag_524:\n        /* \"#utility.yul\":8823:8833   */\n      0x00\n        /* \"#utility.yul\":8858:8924   */\n      tag_526\n        /* \"#utility.yul\":8920:8923   */\n      dup4\n        /* \"#utility.yul\":8912:8918   */\n      dup4\n        /* \"#utility.yul\":8858:8924   */\n      tag_527\n      jump\t// in\n    tag_526:\n        /* \"#utility.yul\":8844:8924   */\n      swap1\n      pop\n        /* \"#utility.yul\":8734:8930   */\n      swap3\n      swap2\n      pop\n      pop\n      jump\t// out\n        /* \"#utility.yul\":8936:9054   */\n    tag_528:\n        /* \"#utility.yul\":9023:9047   */\n      tag_530\n        /* \"#utility.yul\":9041:9046   */\n      dup2\n        /* \"#utility.yul\":9023:9047   */\n      tag_531\n      jump\t// in\n    tag_530:\n        /* \"#utility.yul\":9018:9021   */\n      dup3\n        /* \"#utility.yul\":9011:9048   */\n      mstore\n        /* \"#utility.yul\":8936:9054   */\n      pop\n      pop\n      jump\t// out\n        /* \"#utility.yul\":9088:10079   */\n    tag_532:\n        /* \"#utility.yul\":9227:9230   */\n      0x00\n        /* \"#utility.yul\":9256:9320   */\n      tag_534\n        /* \"#utility.yul\":9314:9319   */\n      dup3\n        /* \"#utility.yul\":9256:9320   */\n      tag_535\n      jump\t// in\n    tag_534:\n        /* \"#utility.yul\":9336:9432   */\n      tag_536\n        /* \"#utility.yul\":9425:9431   */\n      dup2\n        /* \"#utility.yul\":9420:9423   */\n      dup6\n        /* \"#utility.yul\":9336:9432   */\n      tag_537\n      jump\t// in\n    tag_536:\n        /* \"#utility.yul\":9329:9432   */\n      swap4\n      pop\n        /* \"#utility.yul\":9458:9461   */\n      dup4\n        /* \"#utility.yul\":9503:9507   */\n      0x20\n        /* \"#utility.yul\":9495:9501   */\n      dup3\n        /* \"#utility.yul\":9491:9508   */\n      mul\n        /* \"#utility.yul\":9486:9489   */\n      dup6\n        /* \"#utility.yul\":9482:9509   */\n      add\n        /* \"#utility.yul\":9533:9599   */\n      tag_538\n        /* \"#utility.yul\":9593:9598   */\n      dup6\n        /* \"#utility.yul\":9533:9599   */\n      tag_539\n      jump\t// in\n    tag_538:\n        /* \"#utility.yul\":9622:9629   */\n      dup1\n        /* \"#utility.yul\":9653:9654   */\n      0x00\n        /* \"#utility.yul\":9638:10034   */\n    tag_540:\n        /* \"#utility.yul\":9663:9669   */\n      dup6\n        /* \"#utility.yul\":9660:9661   */\n      dup2\n        /* \"#utility.yul\":9657:9670   */\n      lt\n        /* \"#utility.yul\":9638:10034   */\n      iszero\n      tag_542\n      jumpi\n        /* \"#utility.yul\":9734:9743   */\n      dup5\n        /* \"#utility.yul\":9728:9732   */\n      dup5\n        /* \"#utility.yul\":9724:9744   */\n      sub\n        /* \"#utility.yul\":9719:9722   */\n      dup10\n        /* \"#utility.yul\":9712:9745   */\n      mstore\n        /* \"#utility.yul\":9785:9791   */\n      dup2\n        /* \"#utility.yul\":9779:9792   */\n      mload\n        /* \"#utility.yul\":9813:9897   */\n      tag_543\n        /* \"#utility.yul\":9892:9896   */\n      dup6\n        /* \"#utility.yul\":9877:9890   */\n      dup3\n        /* \"#utility.yul\":9813:9897   */\n      tag_524\n      jump\t// in\n    tag_543:\n        /* \"#utility.yul\":9805:9897   */\n      swap5\n      pop\n        /* \"#utility.yul\":9920:9990   */\n      tag_544\n        /* \"#utility.yul\":9983:9989   */\n      dup4\n        /* \"#utility.yul\":9920:9990   */\n      tag_545\n      jump\t// in\n    tag_544:\n        /* \"#utility.yul\":9910:9990   */\n      swap3\n      pop\n        /* \"#utility.yul\":10019:10023   */\n      0x20\n        /* \"#utility.yul\":10014:10017   */\n      dup11\n        /* \"#utility.yul\":10010:10024   */\n      add\n        /* \"#utility.yul\":10003:10024   */\n      swap10\n      pop\n        /* \"#utility.yul\":9698:10034   */\n      pop\n        /* \"#utility.yul\":9685:9686   */\n      0x01\n        /* \"#utility.yul\":9682:9683   */\n      dup2\n        /* \"#utility.yul\":9678:9687   */\n      add\n        /* \"#utility.yul\":9673:9687   */\n      swap1\n      pop\n        /* \"#utility.yul\":9638:10034   */\n      jump(tag_540)\n    tag_542:\n        /* \"#utility.yul\":9642:9656   */\n      pop\n        /* \"#utility.yul\":10050:10054   */\n      dup3\n        /* \"#utility.yul\":10043:10054   */\n      swap8\n      pop\n        /* \"#utility.yul\":10070:10073   */\n      dup8\n        /* \"#utility.yul\":10063:10073   */\n      swap6\n      pop\n        /* \"#utility.yul\":9232:10079   */\n      pop\n      pop\n      pop\n      pop\n      pop\n        /* \"#utility.yul\":9088:10079   */\n      swap3\n      swap2\n      pop\n      pop\n      jump\t// out\n        /* \"#utility.yul\":10085:10194   */\n    tag_546:\n        /* \"#utility.yul\":10166:10187   */\n      tag_548\n        /* \"#utility.yul\":10181:10186   */\n      dup2\n        /* \"#utility.yul\":10166:10187   */\n      tag_549\n      jump\t// in\n    tag_548:\n        /* \"#utility.yul\":10161:10164   */\n      dup3\n        /* \"#utility.yul\":10154:10188   */\n      mstore\n        /* \"#utility.yul\":10085:10194   */\n      pop\n      pop\n      jump\t// out\n        /* \"#utility.yul\":10200:10318   */\n    tag_550:\n        /* \"#utility.yul\":10287:10311   */\n      tag_552\n        /* \"#utility.yul\":10305:10310   */\n      dup2\n        /* \"#utility.yul\":10287:10311   */\n      tag_553\n      jump\t// in\n    tag_552:\n        /* \"#utility.yul\":10282:10285   */\n      dup3\n        /* \"#utility.yul\":10275:10312   */\n      mstore\n        /* \"#utility.yul\":10200:10318   */\n      pop\n      pop\n      jump\t// out\n        /* \"#utility.yul\":10324:10668   */\n    tag_527:\n        /* \"#utility.yul\":10402:10405   */\n      0x00\n        /* \"#utility.yul\":10430:10469   */\n      tag_555\n        /* \"#utility.yul\":10463:10468   */\n      dup3\n        /* \"#utility.yul\":10430:10469   */\n      tag_556\n      jump\t// in\n    tag_555:\n        /* \"#utility.yul\":10485:10546   */\n      tag_557\n        /* \"#utility.yul\":10539:10545   */\n      dup2\n        /* \"#utility.yul\":10534:10537   */\n      dup6\n        /* \"#utility.yul\":10485:10546   */\n      tag_558\n      jump\t// in\n    tag_557:\n        /* \"#utility.yul\":10478:10546   */\n      swap4\n      pop\n        /* \"#utility.yul\":10555:10607   */\n      tag_559\n        /* \"#utility.yul\":10600:10606   */\n      dup2\n        /* \"#utility.yul\":10595:10598   */\n      dup6\n        /* \"#utility.yul\":10588:10592   */\n      0x20\n        /* \"#utility.yul\":10581:10586   */\n      dup7\n        /* \"#utility.yul\":10577:10593   */\n      add\n        /* \"#utility.yul\":10555:10607   */\n      tag_560\n      jump\t// in\n    tag_559:\n        /* \"#utility.yul\":10632:10661   */\n      tag_561\n        /* \"#utility.yul\":10654:10660   */\n      dup2\n        /* \"#utility.yul\":10632:10661   */\n      tag_562\n      jump\t// in\n    tag_561:\n        /* \"#utility.yul\":10627:10630   */\n      dup5\n        /* \"#utility.yul\":10623:10662   */\n      add\n        /* \"#utility.yul\":10616:10662   */\n      swap2\n      pop\n        /* \"#utility.yul\":10406:10668   */\n      pop\n        /* \"#utility.yul\":10324:10668   */\n      swap3\n      swap2\n      pop\n      pop\n      jump\t// out\n        /* \"#utility.yul\":10674:11038   */\n    tag_563:\n        /* \"#utility.yul\":10762:10765   */\n      0x00\n        /* \"#utility.yul\":10790:10829   */\n      tag_565\n        /* \"#utility.yul\":10823:10828   */\n      dup3\n        /* \"#utility.yul\":10790:10829   */\n      tag_556\n      jump\t// in\n    tag_565:\n        /* \"#utility.yul\":10845:10916   */\n      tag_566\n        /* \"#utility.yul\":10909:10915   */\n      dup2\n        /* \"#utility.yul\":10904:10907   */\n      dup6\n        /* \"#utility.yul\":10845:10916   */\n      tag_567\n      jump\t// in\n    tag_566:\n        /* \"#utility.yul\":10838:10916   */\n      swap4\n      pop\n        /* \"#utility.yul\":10925:10977   */\n      tag_568\n        /* \"#utility.yul\":10970:10976   */\n      dup2\n        /* \"#utility.yul\":10965:10968   */\n      dup6\n        /* \"#utility.yul\":10958:10962   */\n      0x20\n        /* \"#utility.yul\":10951:10956   */\n      dup7\n        /* \"#utility.yul\":10947:10963   */\n      add\n        /* \"#utility.yul\":10925:10977   */\n      tag_560\n      jump\t// in\n    tag_568:\n        /* \"#utility.yul\":11002:11031   */\n      tag_569\n        /* \"#utility.yul\":11024:11030   */\n      dup2\n        /* \"#utility.yul\":11002:11031   */\n      tag_562\n      jump\t// in\n    tag_569:\n        /* \"#utility.yul\":10997:11000   */\n      dup5\n        /* \"#utility.yul\":10993:11032   */\n      add\n        /* \"#utility.yul\":10986:11032   */\n      swap2\n      pop\n        /* \"#utility.yul\":10766:11038   */\n      pop\n        /* \"#utility.yul\":10674:11038   */\n      swap3\n      swap2\n      pop\n      pop\n      jump\t// out\n        /* \"#utility.yul\":11044:11421   */\n    tag_570:\n        /* \"#utility.yul\":11150:11153   */\n      0x00\n        /* \"#utility.yul\":11178:11217   */\n      tag_572\n        /* \"#utility.yul\":11211:11216   */\n      dup3\n        /* \"#utility.yul\":11178:11217   */\n      tag_556\n      jump\t// in\n    tag_572:\n        /* \"#utility.yul\":11233:11322   */\n      tag_573\n        /* \"#utility.yul\":11315:11321   */\n      dup2\n        /* \"#utility.yul\":11310:11313   */\n      dup6\n        /* \"#utility.yul\":11233:11322   */\n      tag_574\n      jump\t// in\n    tag_573:\n        /* \"#utility.yul\":11226:11322   */\n      swap4\n      pop\n        /* \"#utility.yul\":11331:11383   */\n      tag_575\n        /* \"#utility.yul\":11376:11382   */\n      dup2\n        /* \"#utility.yul\":11371:11374   */\n      dup6\n        /* \"#utility.yul\":11364:11368   */\n      0x20\n        /* \"#utility.yul\":11357:11362   */\n      dup7\n        /* \"#utility.yul\":11353:11369   */\n      add\n        /* \"#utility.yul\":11331:11383   */\n      tag_560\n      jump\t// in\n    tag_575:\n        /* \"#utility.yul\":11408:11414   */\n      dup1\n        /* \"#utility.yul\":11403:11406   */\n      dup5\n        /* \"#utility.yul\":11399:11415   */\n      add\n        /* \"#utility.yul\":11392:11415   */\n      swap2\n      pop\n        /* \"#utility.yul\":11154:11421   */\n      pop\n        /* \"#utility.yul\":11044:11421   */\n      swap3\n      swap2\n      pop\n      pop\n      jump\t// out\n        /* \"#utility.yul\":11451:12296   */\n    tag_576:\n        /* \"#utility.yul\":11554:11557   */\n      0x00\n        /* \"#utility.yul\":11591:11596   */\n      dup2\n        /* \"#utility.yul\":11585:11597   */\n      sload\n        /* \"#utility.yul\":11620:11656   */\n      tag_578\n        /* \"#utility.yul\":11646:11655   */\n      dup2\n        /* \"#utility.yul\":11620:11656   */\n      tag_184\n      jump\t// in\n    tag_578:\n        /* \"#utility.yul\":11672:11761   */\n      tag_579\n        /* \"#utility.yul\":11754:11760   */\n      dup2\n        /* \"#utility.yul\":11749:11752   */\n      dup7\n        /* \"#utility.yul\":11672:11761   */\n      tag_574\n      jump\t// in\n    tag_579:\n        /* \"#utility.yul\":11665:11761   */\n      swap5\n      pop\n        /* \"#utility.yul\":11792:11793   */\n      0x01\n        /* \"#utility.yul\":11781:11790   */\n      dup3\n        /* \"#utility.yul\":11777:11794   */\n      and\n        /* \"#utility.yul\":11808:11809   */\n      0x00\n        /* \"#utility.yul\":11803:11940   */\n      dup2\n      eq\n      tag_581\n      jumpi\n        /* \"#utility.yul\":11954:11955   */\n      0x01\n        /* \"#utility.yul\":11949:12290   */\n      dup2\n      eq\n      tag_582\n      jumpi\n        /* \"#utility.yul\":11770:12290   */\n      jump(tag_580)\n        /* \"#utility.yul\":11803:11940   */\n    tag_581:\n        /* \"#utility.yul\":11887:11891   */\n      0xff\n        /* \"#utility.yul\":11883:11892   */\n      not\n        /* \"#utility.yul\":11872:11881   */\n      dup4\n        /* \"#utility.yul\":11868:11893   */\n      and\n        /* \"#utility.yul\":11863:11866   */\n      dup7\n        /* \"#utility.yul\":11856:11894   */\n      mstore\n        /* \"#utility.yul\":11923:11929   */\n      dup2\n        /* \"#utility.yul\":11918:11921   */\n      dup7\n        /* \"#utility.yul\":11914:11930   */\n      add\n        /* \"#utility.yul\":11907:11930   */\n      swap4\n      pop\n        /* \"#utility.yul\":11803:11940   */\n      jump(tag_580)\n        /* \"#utility.yul\":11949:12290   */\n    tag_582:\n        /* \"#utility.yul\":12016:12054   */\n      tag_583\n        /* \"#utility.yul\":12048:12053   */\n      dup6\n        /* \"#utility.yul\":12016:12054   */\n      tag_584\n      jump\t// in\n    tag_583:\n        /* \"#utility.yul\":12076:12077   */\n      0x00\n        /* \"#utility.yul\":12090:12244   */\n    tag_585:\n        /* \"#utility.yul\":12104:12110   */\n      dup4\n        /* \"#utility.yul\":12101:12102   */\n      dup2\n        /* \"#utility.yul\":12098:12111   */\n      lt\n        /* \"#utility.yul\":12090:12244   */\n      iszero\n      tag_587\n      jumpi\n        /* \"#utility.yul\":12178:12185   */\n      dup2\n        /* \"#utility.yul\":12172:12186   */\n      sload\n        /* \"#utility.yul\":12168:12169   */\n      dup2\n        /* \"#utility.yul\":12163:12166   */\n      dup10\n        /* \"#utility.yul\":12159:12170   */\n      add\n        /* \"#utility.yul\":12152:12187   */\n      mstore\n        /* \"#utility.yul\":12228:12229   */\n      0x01\n        /* \"#utility.yul\":12219:12226   */\n      dup3\n        /* \"#utility.yul\":12215:12230   */\n      add\n        /* \"#utility.yul\":12204:12230   */\n      swap2\n      pop\n        /* \"#utility.yul\":12126:12130   */\n      0x20\n        /* \"#utility.yul\":12123:12124   */\n      dup2\n        /* \"#utility.yul\":12119:12131   */\n      add\n        /* \"#utility.yul\":12114:12131   */\n      swap1\n      pop\n        /* \"#utility.yul\":12090:12244   */\n      jump(tag_585)\n    tag_587:\n        /* \"#utility.yul\":12273:12279   */\n      dup4\n        /* \"#utility.yul\":12268:12271   */\n      dup9\n        /* \"#utility.yul\":12264:12280   */\n      add\n        /* \"#utility.yul\":12257:12280   */\n      swap6\n      pop\n        /* \"#utility.yul\":11956:12290   */\n      pop\n      pop\n        /* \"#utility.yul\":11770:12290   */\n    tag_580:\n      pop\n        /* \"#utility.yul\":11558:12296   */\n      pop\n      pop\n        /* \"#utility.yul\":11451:12296   */\n      swap3\n      swap2\n      pop\n      pop\n      jump\t// out\n        /* \"#utility.yul\":12302:12668   */\n    tag_588:\n        /* \"#utility.yul\":12444:12447   */\n      0x00\n        /* \"#utility.yul\":12465:12532   */\n      tag_590\n        /* \"#utility.yul\":12529:12531   */\n      0x19\n        /* \"#utility.yul\":12524:12527   */\n      dup4\n        /* \"#utility.yul\":12465:12532   */\n      tag_567\n      jump\t// in\n    tag_590:\n        /* \"#utility.yul\":12458:12532   */\n      swap2\n      pop\n        /* \"#utility.yul\":12541:12634   */\n      tag_591\n        /* \"#utility.yul\":12630:12633   */\n      dup3\n        /* \"#utility.yul\":12541:12634   */\n      tag_592\n      jump\t// in\n    tag_591:\n        /* \"#utility.yul\":12659:12661   */\n      0x20\n        /* \"#utility.yul\":12654:12657   */\n      dup3\n        /* \"#utility.yul\":12650:12662   */\n      add\n        /* \"#utility.yul\":12643:12662   */\n      swap1\n      pop\n        /* \"#utility.yul\":12302:12668   */\n      swap2\n      swap1\n      pop\n      jump\t// out\n        /* \"#utility.yul\":12674:13040   */\n    tag_593:\n        /* \"#utility.yul\":12816:12819   */\n      0x00\n        /* \"#utility.yul\":12837:12904   */\n      tag_595\n        /* \"#utility.yul\":12901:12903   */\n      0x17\n        /* \"#utility.yul\":12896:12899   */\n      dup4\n        /* \"#utility.yul\":12837:12904   */\n      tag_567\n      jump\t// in\n    tag_595:\n        /* \"#utility.yul\":12830:12904   */\n      swap2\n      pop\n        /* \"#utility.yul\":12913:13006   */\n      tag_596\n        /* \"#utility.yul\":13002:13005   */\n      dup3\n        /* \"#utility.yul\":12913:13006   */\n      tag_597\n      jump\t// in\n    tag_596:\n        /* \"#utility.yul\":13031:13033   */\n      0x20\n        /* \"#utility.yul\":13026:13029   */\n      dup3\n        /* \"#utility.yul\":13022:13034   */\n      add\n        /* \"#utility.yul\":13015:13034   */\n      swap1\n      pop\n        /* \"#utility.yul\":12674:13040   */\n      swap2\n      swap1\n      pop\n      jump\t// out\n        /* \"#utility.yul\":13046:13412   */\n    tag_598:\n        /* \"#utility.yul\":13188:13191   */\n      0x00\n        /* \"#utility.yul\":13209:13276   */\n      tag_600\n        /* \"#utility.yul\":13273:13275   */\n      0x19\n        /* \"#utility.yul\":13268:13271   */\n      dup4\n        /* \"#utility.yul\":13209:13276   */\n      tag_567\n      jump\t// in\n    tag_600:\n        /* \"#utility.yul\":13202:13276   */\n      swap2\n      pop\n        /* \"#utility.yul\":13285:13378   */\n      tag_601\n        /* \"#utility.yul\":13374:13377   */\n      dup3\n        /* \"#utility.yul\":13285:13378   */\n      tag_602\n      jump\t// in\n    tag_601:\n        /* \"#utility.yul\":13403:13405   */\n      0x20\n        /* \"#utility.yul\":13398:13401   */\n      dup3\n        /* \"#utility.yul\":13394:13406   */\n      add\n        /* \"#utility.yul\":13387:13406   */\n      swap1\n      pop\n        /* \"#utility.yul\":13046:13412   */\n      swap2\n      swap1\n      pop\n      jump\t// out\n        /* \"#utility.yul\":13418:13784   */\n    tag_603:\n        /* \"#utility.yul\":13560:13563   */\n      0x00\n        /* \"#utility.yul\":13581:13648   */\n      tag_605\n        /* \"#utility.yul\":13645:13647   */\n      0x10\n        /* \"#utility.yul\":13640:13643   */\n      dup4\n        /* \"#utility.yul\":13581:13648   */\n      tag_567\n      jump\t// in\n    tag_605:\n        /* \"#utility.yul\":13574:13648   */\n      swap2\n      pop\n        /* \"#utility.yul\":13657:13750   */\n      tag_606\n        /* \"#utility.yul\":13746:13749   */\n      dup3\n        /* \"#utility.yul\":13657:13750   */\n      tag_607\n      jump\t// in\n    tag_606:\n        /* \"#utility.yul\":13775:13777   */\n      0x20\n        /* \"#utility.yul\":13770:13773   */\n      dup3\n        /* \"#utility.yul\":13766:13778   */\n      add\n        /* \"#utility.yul\":13759:13778   */\n      swap1\n      pop\n        /* \"#utility.yul\":13418:13784   */\n      swap2\n      swap1\n      pop\n      jump\t// out\n        /* \"#utility.yul\":13790:14156   */\n    tag_608:\n        /* \"#utility.yul\":13932:13935   */\n      0x00\n        /* \"#utility.yul\":13953:14020   */\n      tag_610\n        /* \"#utility.yul\":14017:14019   */\n      0x1d\n        /* \"#utility.yul\":14012:14015   */\n      dup4\n        /* \"#utility.yul\":13953:14020   */\n      tag_567\n      jump\t// in\n    tag_610:\n        /* \"#utility.yul\":13946:14020   */\n      swap2\n      pop\n        /* \"#utility.yul\":14029:14122   */\n      tag_611\n        /* \"#utility.yul\":14118:14121   */\n      dup3\n        /* \"#utility.yul\":14029:14122   */\n      tag_612\n      jump\t// in\n    tag_611:\n        /* \"#utility.yul\":14147:14149   */\n      0x20\n        /* \"#utility.yul\":14142:14145   */\n      dup3\n        /* \"#utility.yul\":14138:14150   */\n      add\n        /* \"#utility.yul\":14131:14150   */\n      swap1\n      pop\n        /* \"#utility.yul\":13790:14156   */\n      swap2\n      swap1\n      pop\n      jump\t// out\n        /* \"#utility.yul\":14162:14528   */\n    tag_613:\n        /* \"#utility.yul\":14304:14307   */\n      0x00\n        /* \"#utility.yul\":14325:14392   */\n      tag_615\n        /* \"#utility.yul\":14389:14391   */\n      0x21\n        /* \"#utility.yul\":14384:14387   */\n      dup4\n        /* \"#utility.yul\":14325:14392   */\n      tag_567\n      jump\t// in\n    tag_615:\n        /* \"#utility.yul\":14318:14392   */\n      swap2\n      pop\n        /* \"#utility.yul\":14401:14494   */\n      tag_616\n        /* \"#utility.yul\":14490:14493   */\n      dup3\n        /* \"#utility.yul\":14401:14494   */\n      tag_617\n      jump\t// in\n    tag_616:\n        /* \"#utility.yul\":14519:14521   */\n      0x40\n        /* \"#utility.yul\":14514:14517   */\n      dup3\n        /* \"#utility.yul\":14510:14522   */\n      add\n        /* \"#utility.yul\":14503:14522   */\n      swap1\n      pop\n        /* \"#utility.yul\":14162:14528   */\n      swap2\n      swap1\n      pop\n      jump\t// out\n        /* \"#utility.yul\":14534:14652   */\n    tag_618:\n        /* \"#utility.yul\":14621:14645   */\n      tag_620\n        /* \"#utility.yul\":14639:14644   */\n      dup2\n        /* \"#utility.yul\":14621:14645   */\n      tag_621\n      jump\t// in\n    tag_620:\n        /* \"#utility.yul\":14616:14619   */\n      dup3\n        /* \"#utility.yul\":14609:14646   */\n      mstore\n        /* \"#utility.yul\":14534:14652   */\n      pop\n      pop\n      jump\t// out\n        /* \"#utility.yul\":14658:14933   */\n    tag_161:\n        /* \"#utility.yul\":14790:14793   */\n      0x00\n        /* \"#utility.yul\":14812:14907   */\n      tag_623\n        /* \"#utility.yul\":14903:14906   */\n      dup3\n        /* \"#utility.yul\":14894:14900   */\n      dup5\n        /* \"#utility.yul\":14812:14907   */\n      tag_570\n      jump\t// in\n    tag_623:\n        /* \"#utility.yul\":14805:14907   */\n      swap2\n      pop\n        /* \"#utility.yul\":14924:14927   */\n      dup2\n        /* \"#utility.yul\":14917:14927   */\n      swap1\n      pop\n        /* \"#utility.yul\":14658:14933   */\n      swap3\n      swap2\n      pop\n      pop\n      jump\t// out\n        /* \"#utility.yul\":14939:15208   */\n    tag_140:\n        /* \"#utility.yul\":15068:15071   */\n      0x00\n        /* \"#utility.yul\":15090:15182   */\n      tag_625\n        /* \"#utility.yul\":15178:15181   */\n      dup3\n        /* \"#utility.yul\":15169:15175   */\n      dup5\n        /* \"#utility.yul\":15090:15182   */\n      tag_576\n      jump\t// in\n    tag_625:\n        /* \"#utility.yul\":15083:15182   */\n      swap2\n      pop\n        /* \"#utility.yul\":15199:15202   */\n      dup2\n        /* \"#utility.yul\":15192:15202   */\n      swap1\n      pop\n        /* \"#utility.yul\":14939:15208   */\n      swap3\n      swap2\n      pop\n      pop\n      jump\t// out\n        /* \"#utility.yul\":15214:15436   */\n    tag_46:\n        /* \"#utility.yul\":15307:15311   */\n      0x00\n        /* \"#utility.yul\":15345:15347   */\n      0x20\n        /* \"#utility.yul\":15334:15343   */\n      dup3\n        /* \"#utility.yul\":15330:15348   */\n      add\n        /* \"#utility.yul\":15322:15348   */\n      swap1\n      pop\n        /* \"#utility.yul\":15358:15429   */\n      tag_627\n        /* \"#utility.yul\":15426:15427   */\n      0x00\n        /* \"#utility.yul\":15415:15424   */\n      dup4\n        /* \"#utility.yul\":15411:15428   */\n      add\n        /* \"#utility.yul\":15402:15408   */\n      dup5\n        /* \"#utility.yul\":15358:15429   */\n      tag_528\n      jump\t// in\n    tag_627:\n        /* \"#utility.yul\":15214:15436   */\n      swap3\n      swap2\n      pop\n      pop\n      jump\t// out\n        /* \"#utility.yul\":15442:15963   */\n    tag_74:\n        /* \"#utility.yul\":15605:15609   */\n      0x00\n        /* \"#utility.yul\":15643:15645   */\n      0x60\n        /* \"#utility.yul\":15632:15641   */\n      dup3\n        /* \"#utility.yul\":15628:15646   */\n      add\n        /* \"#utility.yul\":15620:15646   */\n      swap1\n      pop\n        /* \"#utility.yul\":15656:15727   */\n      tag_629\n        /* \"#utility.yul\":15724:15725   */\n      0x00\n        /* \"#utility.yul\":15713:15722   */\n      dup4\n        /* \"#utility.yul\":15709:15726   */\n      add\n        /* \"#utility.yul\":15700:15706   */\n      dup7\n        /* \"#utility.yul\":15656:15727   */\n      tag_528\n      jump\t// in\n    tag_629:\n        /* \"#utility.yul\":15774:15783   */\n      dup2\n        /* \"#utility.yul\":15768:15772   */\n      dup2\n        /* \"#utility.yul\":15764:15784   */\n      sub\n        /* \"#utility.yul\":15759:15761   */\n      0x20\n        /* \"#utility.yul\":15748:15757   */\n      dup4\n        /* \"#utility.yul\":15744:15762   */\n      add\n        /* \"#utility.yul\":15737:15785   */\n      mstore\n        /* \"#utility.yul\":15802:15880   */\n      tag_630\n        /* \"#utility.yul\":15875:15879   */\n      dup2\n        /* \"#utility.yul\":15866:15872   */\n      dup6\n        /* \"#utility.yul\":15802:15880   */\n      tag_563\n      jump\t// in\n    tag_630:\n        /* \"#utility.yul\":15794:15880   */\n      swap1\n      pop\n        /* \"#utility.yul\":15890:15956   */\n      tag_631\n        /* \"#utility.yul\":15952:15954   */\n      0x40\n        /* \"#utility.yul\":15941:15950   */\n      dup4\n        /* \"#utility.yul\":15937:15955   */\n      add\n        /* \"#utility.yul\":15928:15934   */\n      dup5\n        /* \"#utility.yul\":15890:15956   */\n      tag_546\n      jump\t// in\n    tag_631:\n        /* \"#utility.yul\":15442:15963   */\n      swap5\n      swap4\n      pop\n      pop\n      pop\n      pop\n      jump\t// out\n        /* \"#utility.yul\":15969:16613   */\n    tag_122:\n        /* \"#utility.yul\":16166:16170   */\n      0x00\n        /* \"#utility.yul\":16204:16207   */\n      0x80\n        /* \"#utility.yul\":16193:16202   */\n      dup3\n        /* \"#utility.yul\":16189:16208   */\n      add\n        /* \"#utility.yul\":16181:16208   */\n      swap1\n      pop\n        /* \"#utility.yul\":16218:16289   */\n      tag_633\n        /* \"#utility.yul\":16286:16287   */\n      0x00\n        /* \"#utility.yul\":16275:16284   */\n      dup4\n        /* \"#utility.yul\":16271:16288   */\n      add\n        /* \"#utility.yul\":16262:16268   */\n      dup8\n        /* \"#utility.yul\":16218:16289   */\n      tag_528\n      jump\t// in\n    tag_633:\n        /* \"#utility.yul\":16336:16345   */\n      dup2\n        /* \"#utility.yul\":16330:16334   */\n      dup2\n        /* \"#utility.yul\":16326:16346   */\n      sub\n        /* \"#utility.yul\":16321:16323   */\n      0x20\n        /* \"#utility.yul\":16310:16319   */\n      dup4\n        /* \"#utility.yul\":16306:16324   */\n      add\n        /* \"#utility.yul\":16299:16347   */\n      mstore\n        /* \"#utility.yul\":16364:16442   */\n      tag_634\n        /* \"#utility.yul\":16437:16441   */\n      dup2\n        /* \"#utility.yul\":16428:16434   */\n      dup7\n        /* \"#utility.yul\":16364:16442   */\n      tag_563\n      jump\t// in\n    tag_634:\n        /* \"#utility.yul\":16356:16442   */\n      swap1\n      pop\n        /* \"#utility.yul\":16452:16524   */\n      tag_635\n        /* \"#utility.yul\":16520:16522   */\n      0x40\n        /* \"#utility.yul\":16509:16518   */\n      dup4\n        /* \"#utility.yul\":16505:16523   */\n      add\n        /* \"#utility.yul\":16496:16502   */\n      dup6\n        /* \"#utility.yul\":16452:16524   */\n      tag_618\n      jump\t// in\n    tag_635:\n        /* \"#utility.yul\":16534:16606   */\n      tag_636\n        /* \"#utility.yul\":16602:16604   */\n      0x60\n        /* \"#utility.yul\":16591:16600   */\n      dup4\n        /* \"#utility.yul\":16587:16605   */\n      add\n        /* \"#utility.yul\":16578:16584   */\n      dup5\n        /* \"#utility.yul\":16534:16606   */\n      tag_618\n      jump\t// in\n    tag_636:\n        /* \"#utility.yul\":15969:16613   */\n      swap6\n      swap5\n      pop\n      pop\n      pop\n      pop\n      pop\n      jump\t// out\n        /* \"#utility.yul\":16619:17032   */\n    tag_60:\n        /* \"#utility.yul\":16782:16786   */\n      0x00\n        /* \"#utility.yul\":16820:16822   */\n      0x20\n        /* \"#utility.yul\":16809:16818   */\n      dup3\n        /* \"#utility.yul\":16805:16823   */\n      add\n        /* \"#utility.yul\":16797:16823   */\n      swap1\n      pop\n        /* \"#utility.yul\":16869:16878   */\n      dup2\n        /* \"#utility.yul\":16863:16867   */\n      dup2\n        /* \"#utility.yul\":16859:16879   */\n      sub\n        /* \"#utility.yul\":16855:16856   */\n      0x00\n        /* \"#utility.yul\":16844:16853   */\n      dup4\n        /* \"#utility.yul\":16840:16857   */\n      add\n        /* \"#utility.yul\":16833:16880   */\n      mstore\n        /* \"#utility.yul\":16897:17025   */\n      tag_638\n        /* \"#utility.yul\":17020:17024   */\n      dup2\n        /* \"#utility.yul\":17011:17017   */\n      dup5\n        /* \"#utility.yul\":16897:17025   */\n      tag_532\n      jump\t// in\n    tag_638:\n        /* \"#utility.yul\":16889:17025   */\n      swap1\n      pop\n        /* \"#utility.yul\":16619:17032   */\n      swap3\n      swap2\n      pop\n      pop\n      jump\t// out\n        /* \"#utility.yul\":17038:17248   */\n    tag_105:\n        /* \"#utility.yul\":17125:17129   */\n      0x00\n        /* \"#utility.yul\":17163:17165   */\n      0x20\n        /* \"#utility.yul\":17152:17161   */\n      dup3\n        /* \"#utility.yul\":17148:17166   */\n      add\n        /* \"#utility.yul\":17140:17166   */\n      swap1\n      pop\n        /* \"#utility.yul\":17176:17241   */\n      tag_640\n        /* \"#utility.yul\":17238:17239   */\n      0x00\n        /* \"#utility.yul\":17227:17236   */\n      dup4\n        /* \"#utility.yul\":17223:17240   */\n      add\n        /* \"#utility.yul\":17214:17220   */\n      dup5\n        /* \"#utility.yul\":17176:17241   */\n      tag_546\n      jump\t// in\n    tag_640:\n        /* \"#utility.yul\":17038:17248   */\n      swap3\n      swap2\n      pop\n      pop\n      jump\t// out\n        /* \"#utility.yul\":17254:17476   */\n    tag_79:\n        /* \"#utility.yul\":17347:17351   */\n      0x00\n        /* \"#utility.yul\":17385:17387   */\n      0x20\n        /* \"#utility.yul\":17374:17383   */\n      dup3\n        /* \"#utility.yul\":17370:17388   */\n      add\n        /* \"#utility.yul\":17362:17388   */\n      swap1\n      pop\n        /* \"#utility.yul\":17398:17469   */\n      tag_642\n        /* \"#utility.yul\":17466:17467   */\n      0x00\n        /* \"#utility.yul\":17455:17464   */\n      dup4\n        /* \"#utility.yul\":17451:17468   */\n      add\n        /* \"#utility.yul\":17442:17448   */\n      dup5\n        /* \"#utility.yul\":17398:17469   */\n      tag_550\n      jump\t// in\n    tag_642:\n        /* \"#utility.yul\":17254:17476   */\n      swap3\n      swap2\n      pop\n      pop\n      jump\t// out\n        /* \"#utility.yul\":17482:18225   */\n    tag_85:\n        /* \"#utility.yul\":17701:17705   */\n      0x00\n        /* \"#utility.yul\":17739:17742   */\n      0xa0\n        /* \"#utility.yul\":17728:17737   */\n      dup3\n        /* \"#utility.yul\":17724:17743   */\n      add\n        /* \"#utility.yul\":17716:17743   */\n      swap1\n      pop\n        /* \"#utility.yul\":17789:17798   */\n      dup2\n        /* \"#utility.yul\":17783:17787   */\n      dup2\n        /* \"#utility.yul\":17779:17799   */\n      sub\n        /* \"#utility.yul\":17775:17776   */\n      0x00\n        /* \"#utility.yul\":17764:17773   */\n      dup4\n        /* \"#utility.yul\":17760:17777   */\n      add\n        /* \"#utility.yul\":17753:17800   */\n      mstore\n        /* \"#utility.yul\":17817:17895   */\n      tag_644\n        /* \"#utility.yul\":17890:17894   */\n      dup2\n        /* \"#utility.yul\":17881:17887   */\n      dup9\n        /* \"#utility.yul\":17817:17895   */\n      tag_563\n      jump\t// in\n    tag_644:\n        /* \"#utility.yul\":17809:17895   */\n      swap1\n      pop\n        /* \"#utility.yul\":17905:17977   */\n      tag_645\n        /* \"#utility.yul\":17973:17975   */\n      0x20\n        /* \"#utility.yul\":17962:17971   */\n      dup4\n        /* \"#utility.yul\":17958:17976   */\n      add\n        /* \"#utility.yul\":17949:17955   */\n      dup8\n        /* \"#utility.yul\":17905:17977   */\n      tag_550\n      jump\t// in\n    tag_645:\n        /* \"#utility.yul\":17987:18059   */\n      tag_646\n        /* \"#utility.yul\":18055:18057   */\n      0x40\n        /* \"#utility.yul\":18044:18053   */\n      dup4\n        /* \"#utility.yul\":18040:18058   */\n      add\n        /* \"#utility.yul\":18031:18037   */\n      dup7\n        /* \"#utility.yul\":17987:18059   */\n      tag_618\n      jump\t// in\n    tag_646:\n        /* \"#utility.yul\":18069:18141   */\n      tag_647\n        /* \"#utility.yul\":18137:18139   */\n      0x60\n        /* \"#utility.yul\":18126:18135   */\n      dup4\n        /* \"#utility.yul\":18122:18140   */\n      add\n        /* \"#utility.yul\":18113:18119   */\n      dup6\n        /* \"#utility.yul\":18069:18141   */\n      tag_618\n      jump\t// in\n    tag_647:\n        /* \"#utility.yul\":18151:18218   */\n      tag_648\n        /* \"#utility.yul\":18213:18216   */\n      0x80\n        /* \"#utility.yul\":18202:18211   */\n      dup4\n        /* \"#utility.yul\":18198:18217   */\n      add\n        /* \"#utility.yul\":18189:18195   */\n      dup5\n        /* \"#utility.yul\":18151:18218   */\n      tag_546\n      jump\t// in\n    tag_648:\n        /* \"#utility.yul\":17482:18225   */\n      swap7\n      swap6\n      pop\n      pop\n      pop\n      pop\n      pop\n      pop\n      jump\t// out\n        /* \"#utility.yul\":18231:18650   */\n    tag_164:\n        /* \"#utility.yul\":18397:18401   */\n      0x00\n        /* \"#utility.yul\":18435:18437   */\n      0x20\n        /* \"#utility.yul\":18424:18433   */\n      dup3\n        /* \"#utility.yul\":18420:18438   */\n      add\n        /* \"#utility.yul\":18412:18438   */\n      swap1\n      pop\n        /* \"#utility.yul\":18484:18493   */\n      dup2\n        /* \"#utility.yul\":18478:18482   */\n      dup2\n        /* \"#utility.yul\":18474:18494   */\n      sub\n        /* \"#utility.yul\":18470:18471   */\n      0x00\n        /* \"#utility.yul\":18459:18468   */\n      dup4\n        /* \"#utility.yul\":18455:18472   */\n      add\n        /* \"#utility.yul\":18448:18495   */\n      mstore\n        /* \"#utility.yul\":18512:18643   */\n      tag_650\n        /* \"#utility.yul\":18638:18642   */\n      dup2\n        /* \"#utility.yul\":18512:18643   */\n      tag_588\n      jump\t// in\n    tag_650:\n        /* \"#utility.yul\":18504:18643   */\n      swap1\n      pop\n        /* \"#utility.yul\":18231:18650   */\n      swap2\n      swap1\n      pop\n      jump\t// out\n        /* \"#utility.yul\":18656:19075   */\n    tag_348:\n        /* \"#utility.yul\":18822:18826   */\n      0x00\n        /* \"#utility.yul\":18860:18862   */\n      0x20\n        /* \"#utility.yul\":18849:18858   */\n      dup3\n        /* \"#utility.yul\":18845:18863   */\n      add\n        /* \"#utility.yul\":18837:18863   */\n      swap1\n      pop\n        /* \"#utility.yul\":18909:18918   */\n      dup2\n        /* \"#utility.yul\":18903:18907   */\n      dup2\n        /* \"#utility.yul\":18899:18919   */\n      sub\n        /* \"#utility.yul\":18895:18896   */\n      0x00\n        /* \"#utility.yul\":18884:18893   */\n      dup4\n        /* \"#utility.yul\":18880:18897   */\n      add\n        /* \"#utility.yul\":18873:18920   */\n      mstore\n        /* \"#utility.yul\":18937:19068   */\n      tag_652\n        /* \"#utility.yul\":19063:19067   */\n      dup2\n        /* \"#utility.yul\":18937:19068   */\n      tag_593\n      jump\t// in\n    tag_652:\n        /* \"#utility.yul\":18929:19068   */\n      swap1\n      pop\n        /* \"#utility.yul\":18656:19075   */\n      swap2\n      swap1\n      pop\n      jump\t// out\n        /* \"#utility.yul\":19081:19500   */\n    tag_344:\n        /* \"#utility.yul\":19247:19251   */\n      0x00\n        /* \"#utility.yul\":19285:19287   */\n      0x20\n        /* \"#utility.yul\":19274:19283   */\n      dup3\n        /* \"#utility.yul\":19270:19288   */\n      add\n        /* \"#utility.yul\":19262:19288   */\n      swap1\n      pop\n        /* \"#utility.yul\":19334:19343   */\n      dup2\n        /* \"#utility.yul\":19328:19332   */\n      dup2\n        /* \"#utility.yul\":19324:19344   */\n      sub\n        /* \"#utility.yul\":19320:19321   */\n      0x00\n        /* \"#utility.yul\":19309:19318   */\n      dup4\n        /* \"#utility.yul\":19305:19322   */\n      add\n        /* \"#utility.yul\":19298:19345   */\n      mstore\n        /* \"#utility.yul\":19362:19493   */\n      tag_654\n        /* \"#utility.yul\":19488:19492   */\n      dup2\n        /* \"#utility.yul\":19362:19493   */\n      tag_598\n      jump\t// in\n    tag_654:\n        /* \"#utility.yul\":19354:19493   */\n      swap1\n      pop\n        /* \"#utility.yul\":19081:19500   */\n      swap2\n      swap1\n      pop\n      jump\t// out\n        /* \"#utility.yul\":19506:19925   */\n    tag_173:\n        /* \"#utility.yul\":19672:19676   */\n      0x00\n        /* \"#utility.yul\":19710:19712   */\n      0x20\n        /* \"#utility.yul\":19699:19708   */\n      dup3\n        /* \"#utility.yul\":19695:19713   */\n      add\n        /* \"#utility.yul\":19687:19713   */\n      swap1\n      pop\n        /* \"#utility.yul\":19759:19768   */\n      dup2\n        /* \"#utility.yul\":19753:19757   */\n      dup2\n        /* \"#utility.yul\":19749:19769   */\n      sub\n        /* \"#utility.yul\":19745:19746   */\n      0x00\n        /* \"#utility.yul\":19734:19743   */\n      dup4\n        /* \"#utility.yul\":19730:19747   */\n      add\n        /* \"#utility.yul\":19723:19770   */\n      mstore\n        /* \"#utility.yul\":19787:19918   */\n      tag_656\n        /* \"#utility.yul\":19913:19917   */\n      dup2\n        /* \"#utility.yul\":19787:19918   */\n      tag_603\n      jump\t// in\n    tag_656:\n        /* \"#utility.yul\":19779:19918   */\n      swap1\n      pop\n        /* \"#utility.yul\":19506:19925   */\n      swap2\n      swap1\n      pop\n      jump\t// out\n        /* \"#utility.yul\":19931:20350   */\n    tag_340:\n        /* \"#utility.yul\":20097:20101   */\n      0x00\n        /* \"#utility.yul\":20135:20137   */\n      0x20\n        /* \"#utility.yul\":20124:20133   */\n      dup3\n        /* \"#utility.yul\":20120:20138   */\n      add\n        /* \"#utility.yul\":20112:20138   */\n      swap1\n      pop\n        /* \"#utility.yul\":20184:20193   */\n      dup2\n        /* \"#utility.yul\":20178:20182   */\n      dup2\n        /* \"#utility.yul\":20174:20194   */\n      sub\n        /* \"#utility.yul\":20170:20171   */\n      0x00\n        /* \"#utility.yul\":20159:20168   */\n      dup4\n        /* \"#utility.yul\":20155:20172   */\n      add\n        /* \"#utility.yul\":20148:20195   */\n      mstore\n        /* \"#utility.yul\":20212:20343   */\n      tag_658\n        /* \"#utility.yul\":20338:20342   */\n      dup2\n        /* \"#utility.yul\":20212:20343   */\n      tag_608\n      jump\t// in\n    tag_658:\n        /* \"#utility.yul\":20204:20343   */\n      swap1\n      pop\n        /* \"#utility.yul\":19931:20350   */\n      swap2\n      swap1\n      pop\n      jump\t// out\n        /* \"#utility.yul\":20356:20775   */\n    tag_310:\n        /* \"#utility.yul\":20522:20526   */\n      0x00\n        /* \"#utility.yul\":20560:20562   */\n      0x20\n        /* \"#utility.yul\":20549:20558   */\n      dup3\n        /* \"#utility.yul\":20545:20563   */\n      add\n        /* \"#utility.yul\":20537:20563   */\n      swap1\n      pop\n        /* \"#utility.yul\":20609:20618   */\n      dup2\n        /* \"#utility.yul\":20603:20607   */\n      dup2\n        /* \"#utility.yul\":20599:20619   */\n      sub\n        /* \"#utility.yul\":20595:20596   */\n      0x00\n        /* \"#utility.yul\":20584:20593   */\n      dup4\n        /* \"#utility.yul\":20580:20597   */\n      add\n        /* \"#utility.yul\":20573:20620   */\n      mstore\n        /* \"#utility.yul\":20637:20768   */\n      tag_660\n        /* \"#utility.yul\":20763:20767   */\n      dup2\n        /* \"#utility.yul\":20637:20768   */\n      tag_613\n      jump\t// in\n    tag_660:\n        /* \"#utility.yul\":20629:20768   */\n      swap1\n      pop\n        /* \"#utility.yul\":20356:20775   */\n      swap2\n      swap1\n      pop\n      jump\t// out\n        /* \"#utility.yul\":20781:21003   */\n    tag_90:\n        /* \"#utility.yul\":20874:20878   */\n      0x00\n        /* \"#utility.yul\":20912:20914   */\n      0x20\n        /* \"#utility.yul\":20901:20910   */\n      dup3\n        /* \"#utility.yul\":20897:20915   */\n      add\n        /* \"#utility.yul\":20889:20915   */\n      swap1\n      pop\n        /* \"#utility.yul\":20925:20996   */\n      tag_662\n        /* \"#utility.yul\":20993:20994   */\n      0x00\n        /* \"#utility.yul\":20982:20991   */\n      dup4\n        /* \"#utility.yul\":20978:20995   */\n      add\n        /* \"#utility.yul\":20969:20975   */\n      dup5\n        /* \"#utility.yul\":20925:20996   */\n      tag_618\n      jump\t// in\n    tag_662:\n        /* \"#utility.yul\":20781:21003   */\n      swap3\n      swap2\n      pop\n      pop\n      jump\t// out\n        /* \"#utility.yul\":21009:21138   */\n    tag_412:\n        /* \"#utility.yul\":21043:21049   */\n      0x00\n        /* \"#utility.yul\":21070:21090   */\n      tag_664\n      tag_665\n      jump\t// in\n    tag_664:\n        /* \"#utility.yul\":21060:21090   */\n      swap1\n      pop\n        /* \"#utility.yul\":21099:21132   */\n      tag_666\n        /* \"#utility.yul\":21127:21131   */\n      dup3\n        /* \"#utility.yul\":21119:21125   */\n      dup3\n        /* \"#utility.yul\":21099:21132   */\n      tag_667\n      jump\t// in\n    tag_666:\n        /* \"#utility.yul\":21009:21138   */\n      swap2\n      swap1\n      pop\n      jump\t// out\n        /* \"#utility.yul\":21144:21219   */\n    tag_665:\n        /* \"#utility.yul\":21177:21183   */\n      0x00\n        /* \"#utility.yul\":21210:21212   */\n      0x40\n        /* \"#utility.yul\":21204:21213   */\n      mload\n        /* \"#utility.yul\":21194:21213   */\n      swap1\n      pop\n        /* \"#utility.yul\":21144:21219   */\n      swap1\n      jump\t// out\n        /* \"#utility.yul\":21225:21546   */\n    tag_411:\n        /* \"#utility.yul\":21312:21316   */\n      0x00\n        /* \"#utility.yul\":21402:21420   */\n      0xffffffffffffffff\n        /* \"#utility.yul\":21394:21400   */\n      dup3\n        /* \"#utility.yul\":21391:21421   */\n      gt\n        /* \"#utility.yul\":21388:21444   */\n      iszero\n      tag_670\n      jumpi\n        /* \"#utility.yul\":21424:21442   */\n      tag_671\n      tag_672\n      jump\t// in\n    tag_671:\n        /* \"#utility.yul\":21388:21444   */\n    tag_670:\n        /* \"#utility.yul\":21474:21478   */\n      0x20\n        /* \"#utility.yul\":21466:21472   */\n      dup3\n        /* \"#utility.yul\":21462:21479   */\n      mul\n        /* \"#utility.yul\":21454:21479   */\n      swap1\n      pop\n        /* \"#utility.yul\":21534:21538   */\n      0x20\n        /* \"#utility.yul\":21528:21532   */\n      dup2\n        /* \"#utility.yul\":21524:21539   */\n      add\n        /* \"#utility.yul\":21516:21539   */\n      swap1\n      pop\n        /* \"#utility.yul\":21225:21546   */\n      swap2\n      swap1\n      pop\n      jump\t// out\n        /* \"#utility.yul\":21552:21860   */\n    tag_428:\n        /* \"#utility.yul\":21614:21618   */\n      0x00\n        /* \"#utility.yul\":21704:21722   */\n      0xffffffffffffffff\n        /* \"#utility.yul\":21696:21702   */\n      dup3\n        /* \"#utility.yul\":21693:21723   */\n      gt\n        /* \"#utility.yul\":21690:21746   */\n      iszero\n      tag_674\n      jumpi\n        /* \"#utility.yul\":21726:21744   */\n      tag_675\n      tag_672\n      jump\t// in\n    tag_675:\n        /* \"#utility.yul\":21690:21746   */\n    tag_674:\n        /* \"#utility.yul\":21764:21793   */\n      tag_676\n        /* \"#utility.yul\":21786:21792   */\n      dup3\n        /* \"#utility.yul\":21764:21793   */\n      tag_562\n      jump\t// in\n    tag_676:\n        /* \"#utility.yul\":21756:21793   */\n      swap1\n      pop\n        /* \"#utility.yul\":21848:21852   */\n      0x20\n        /* \"#utility.yul\":21842:21846   */\n      dup2\n        /* \"#utility.yul\":21838:21853   */\n      add\n        /* \"#utility.yul\":21830:21853   */\n      swap1\n      pop\n        /* \"#utility.yul\":21552:21860   */\n      swap2\n      swap1\n      pop\n      jump\t// out\n        /* \"#utility.yul\":21866:22008   */\n    tag_539:\n        /* \"#utility.yul\":21943:21947   */\n      0x00\n        /* \"#utility.yul\":21966:21969   */\n      dup2\n        /* \"#utility.yul\":21958:21969   */\n      swap1\n      pop\n        /* \"#utility.yul\":21996:22000   */\n      0x20\n        /* \"#utility.yul\":21991:21994   */\n      dup3\n        /* \"#utility.yul\":21987:22001   */\n      add\n        /* \"#utility.yul\":21979:22001   */\n      swap1\n      pop\n        /* \"#utility.yul\":21866:22008   */\n      swap2\n      swap1\n      pop\n      jump\t// out\n        /* \"#utility.yul\":22014:22155   */\n    tag_584:\n        /* \"#utility.yul\":22063:22067   */\n      0x00\n        /* \"#utility.yul\":22086:22089   */\n      dup2\n        /* \"#utility.yul\":22078:22089   */\n      swap1\n      pop\n        /* \"#utility.yul\":22109:22112   */\n      dup2\n        /* \"#utility.yul\":22106:22107   */\n      0x00\n        /* \"#utility.yul\":22099:22113   */\n      mstore\n        /* \"#utility.yul\":22143:22147   */\n      0x20\n        /* \"#utility.yul\":22140:22141   */\n      0x00\n        /* \"#utility.yul\":22130:22148   */\n      keccak256\n        /* \"#utility.yul\":22122:22148   */\n      swap1\n      pop\n        /* \"#utility.yul\":22014:22155   */\n      swap2\n      swap1\n      pop\n      jump\t// out\n        /* \"#utility.yul\":22161:22285   */\n    tag_535:\n        /* \"#utility.yul\":22238:22244   */\n      0x00\n        /* \"#utility.yul\":22272:22277   */\n      dup2\n        /* \"#utility.yul\":22266:22278   */\n      mload\n        /* \"#utility.yul\":22256:22278   */\n      swap1\n      pop\n        /* \"#utility.yul\":22161:22285   */\n      swap2\n      swap1\n      pop\n      jump\t// out\n        /* \"#utility.yul\":22291:22390   */\n    tag_556:\n        /* \"#utility.yul\":22343:22349   */\n      0x00\n        /* \"#utility.yul\":22377:22382   */\n      dup2\n        /* \"#utility.yul\":22371:22383   */\n      mload\n        /* \"#utility.yul\":22361:22383   */\n      swap1\n      pop\n        /* \"#utility.yul\":22291:22390   */\n      swap2\n      swap1\n      pop\n      jump\t// out\n        /* \"#utility.yul\":22396:22519   */\n    tag_545:\n        /* \"#utility.yul\":22476:22480   */\n      0x00\n        /* \"#utility.yul\":22508:22512   */\n      0x20\n        /* \"#utility.yul\":22503:22506   */\n      dup3\n        /* \"#utility.yul\":22499:22513   */\n      add\n        /* \"#utility.yul\":22491:22513   */\n      swap1\n      pop\n        /* \"#utility.yul\":22396:22519   */\n      swap2\n      swap1\n      pop\n      jump\t// out\n        /* \"#utility.yul\":22525:22719   */\n    tag_537:\n        /* \"#utility.yul\":22634:22645   */\n      0x00\n        /* \"#utility.yul\":22668:22674   */\n      dup3\n        /* \"#utility.yul\":22663:22666   */\n      dup3\n        /* \"#utility.yul\":22656:22675   */\n      mstore\n        /* \"#utility.yul\":22708:22712   */\n      0x20\n        /* \"#utility.yul\":22703:22706   */\n      dup3\n        /* \"#utility.yul\":22699:22713   */\n      add\n        /* \"#utility.yul\":22684:22713   */\n      swap1\n      pop\n        /* \"#utility.yul\":22525:22719   */\n      swap3\n      swap2\n      pop\n      pop\n      jump\t// out\n        /* \"#utility.yul\":22725:22884   */\n    tag_558:\n        /* \"#utility.yul\":22799:22810   */\n      0x00\n        /* \"#utility.yul\":22833:22839   */\n      dup3\n        /* \"#utility.yul\":22828:22831   */\n      dup3\n        /* \"#utility.yul\":22821:22840   */\n      mstore\n        /* \"#utility.yul\":22873:22877   */\n      0x20\n        /* \"#utility.yul\":22868:22871   */\n      dup3\n        /* \"#utility.yul\":22864:22878   */\n      add\n        /* \"#utility.yul\":22849:22878   */\n      swap1\n      pop\n        /* \"#utility.yul\":22725:22884   */\n      swap3\n      swap2\n      pop\n      pop\n      jump\t// out\n        /* \"#utility.yul\":22890:23059   */\n    tag_567:\n        /* \"#utility.yul\":22974:22985   */\n      0x00\n        /* \"#utility.yul\":23008:23014   */\n      dup3\n        /* \"#utility.yul\":23003:23006   */\n      dup3\n        /* \"#utility.yul\":22996:23015   */\n      mstore\n        /* \"#utility.yul\":23048:23052   */\n      0x20\n        /* \"#utility.yul\":23043:23046   */\n      dup3\n        /* \"#utility.yul\":23039:23053   */\n      add\n        /* \"#utility.yul\":23024:23053   */\n      swap1\n      pop\n        /* \"#utility.yul\":22890:23059   */\n      swap3\n      swap2\n      pop\n      pop\n      jump\t// out\n        /* \"#utility.yul\":23065:23213   */\n    tag_574:\n        /* \"#utility.yul\":23167:23178   */\n      0x00\n        /* \"#utility.yul\":23204:23207   */\n      dup2\n        /* \"#utility.yul\":23189:23207   */\n      swap1\n      pop\n        /* \"#utility.yul\":23065:23213   */\n      swap3\n      swap2\n      pop\n      pop\n      jump\t// out\n        /* \"#utility.yul\":23219:23524   */\n    tag_154:\n        /* \"#utility.yul\":23259:23262   */\n      0x00\n        /* \"#utility.yul\":23278:23298   */\n      tag_687\n        /* \"#utility.yul\":23296:23297   */\n      dup3\n        /* \"#utility.yul\":23278:23298   */\n      tag_621\n      jump\t// in\n    tag_687:\n        /* \"#utility.yul\":23273:23298   */\n      swap2\n      pop\n        /* \"#utility.yul\":23312:23332   */\n      tag_688\n        /* \"#utility.yul\":23330:23331   */\n      dup4\n        /* \"#utility.yul\":23312:23332   */\n      tag_621\n      jump\t// in\n    tag_688:\n        /* \"#utility.yul\":23307:23332   */\n      swap3\n      pop\n        /* \"#utility.yul\":23466:23467   */\n      dup3\n        /* \"#utility.yul\":23398:23464   */\n      0xffffffffffffffffffffffffffffffffffffffffffffffffffffffffffffffff\n        /* \"#utility.yul\":23394:23468   */\n      sub\n        /* \"#utility.yul\":23391:23392   */\n      dup3\n        /* \"#utility.yul\":23388:23469   */\n      gt\n        /* \"#utility.yul\":23385:23492   */\n      iszero\n      tag_689\n      jumpi\n        /* \"#utility.yul\":23472:23490   */\n      tag_690\n      tag_691\n      jump\t// in\n    tag_690:\n        /* \"#utility.yul\":23385:23492   */\n    tag_689:\n        /* \"#utility.yul\":23516:23517   */\n      dup3\n        /* \"#utility.yul\":23513:23514   */\n      dup3\n        /* \"#utility.yul\":23509:23518   */\n      add\n        /* \"#utility.yul\":23502:23518   */\n      swap1\n      pop\n        /* \"#utility.yul\":23219:23524   */\n      swap3\n      swap2\n      pop\n      pop\n      jump\t// out\n        /* \"#utility.yul\":23530:23715   */\n    tag_284:\n        /* \"#utility.yul\":23570:23571   */\n      0x00\n        /* \"#utility.yul\":23587:23607   */\n      tag_693\n        /* \"#utility.yul\":23605:23606   */\n      dup3\n        /* \"#utility.yul\":23587:23607   */\n      tag_621\n      jump\t// in\n    tag_693:\n        /* \"#utility.yul\":23582:23607   */\n      swap2\n      pop\n        /* \"#utility.yul\":23621:23641   */\n      tag_694\n        /* \"#utility.yul\":23639:23640   */\n      dup4\n        /* \"#utility.yul\":23621:23641   */\n      tag_621\n      jump\t// in\n    tag_694:\n        /* \"#utility.yul\":23616:23641   */\n      swap3\n      pop\n        /* \"#utility.yul\":23660:23661   */\n      dup3\n        /* \"#utility.yul\":23650:23685   */\n      tag_695\n      jumpi\n        /* \"#utility.yul\":23665:23683   */\n      tag_696\n      tag_697\n      jump\t// in\n    tag_696:\n        /* \"#utility.yul\":23650:23685   */\n    tag_695:\n        /* \"#utility.yul\":23707:23708   */\n      dup3\n        /* \"#utility.yul\":23704:23705   */\n      dup3\n        /* \"#utility.yul\":23700:23709   */\n      div\n        /* \"#utility.yul\":23695:23709   */\n      swap1\n      pop\n        /* \"#utility.yul\":23530:23715   */\n      swap3\n      swap2\n      pop\n      pop\n      jump\t// out\n        /* \"#utility.yul\":23721:23912   */\n    tag_145:\n        /* \"#utility.yul\":23761:23765   */\n      0x00\n        /* \"#utility.yul\":23781:23801   */\n      tag_699\n        /* \"#utility.yul\":23799:23800   */\n      dup3\n        /* \"#utility.yul\":23781:23801   */\n      tag_621\n      jump\t// in\n    tag_699:\n        /* \"#utility.yul\":23776:23801   */\n      swap2\n      pop\n        /* \"#utility.yul\":23815:23835   */\n      tag_700\n        /* \"#utility.yul\":23833:23834   */\n      dup4\n        /* \"#utility.yul\":23815:23835   */\n      tag_621\n      jump\t// in\n    tag_700:\n        /* \"#utility.yul\":23810:23835   */\n      swap3\n      pop\n        /* \"#utility.yul\":23854:23855   */\n      dup3\n        /* \"#utility.yul\":23851:23852   */\n      dup3\n        /* \"#utility.yul\":23848:23856   */\n      lt\n        /* \"#utility.yul\":23845:23879   */\n      iszero\n      tag_701\n      jumpi\n        /* \"#utility.yul\":23859:23877   */\n      tag_702\n      tag_691\n      jump\t// in\n    tag_702:\n        /* \"#utility.yul\":23845:23879   */\n    tag_701:\n        /* \"#utility.yul\":23904:23905   */\n      dup3\n        /* \"#utility.yul\":23901:23902   */\n      dup3\n        /* \"#utility.yul\":23897:23906   */\n      sub\n        /* \"#utility.yul\":23889:23906   */\n      swap1\n      pop\n        /* \"#utility.yul\":23721:23912   */\n      swap3\n      swap2\n      pop\n      pop\n      jump\t// out\n        /* \"#utility.yul\":23918:24014   */\n    tag_531:\n        /* \"#utility.yul\":23955:23962   */\n      0x00\n        /* \"#utility.yul\":23984:24008   */\n      tag_704\n        /* \"#utility.yul\":24002:24007   */\n      dup3\n        /* \"#utility.yul\":23984:24008   */\n      tag_705\n      jump\t// in\n    tag_704:\n        /* \"#utility.yul\":23973:24008   */\n      swap1\n      pop\n        /* \"#utility.yul\":23918:24014   */\n      swap2\n      swap1\n      pop\n      jump\t// out\n        /* \"#utility.yul\":24020:24110   */\n    tag_549:\n        /* \"#utility.yul\":24054:24061   */\n      0x00\n        /* \"#utility.yul\":24097:24102   */\n      dup2\n        /* \"#utility.yul\":24090:24103   */\n      iszero\n        /* \"#utility.yul\":24083:24104   */\n      iszero\n        /* \"#utility.yul\":24072:24104   */\n      swap1\n      pop\n        /* \"#utility.yul\":24020:24110   */\n      swap2\n      swap1\n      pop\n      jump\t// out\n        /* \"#utility.yul\":24116:24193   */\n    tag_553:\n        /* \"#utility.yul\":24153:24160   */\n      0x00\n        /* \"#utility.yul\":24182:24187   */\n      dup2\n        /* \"#utility.yul\":24171:24187   */\n      swap1\n      pop\n        /* \"#utility.yul\":24116:24193   */\n      swap2\n      swap1\n      pop\n      jump\t// out\n        /* \"#utility.yul\":24199:24325   */\n    tag_705:\n        /* \"#utility.yul\":24236:24243   */\n      0x00\n        /* \"#utility.yul\":24276:24318   */\n      0xffffffffffffffffffffffffffffffffffffffff\n        /* \"#utility.yul\":24269:24274   */\n      dup3\n        /* \"#utility.yul\":24265:24319   */\n      and\n        /* \"#utility.yul\":24254:24319   */\n      swap1\n      pop\n        /* \"#utility.yul\":24199:24325   */\n      swap2\n      swap1\n      pop\n      jump\t// out\n        /* \"#utility.yul\":24331:24408   */\n    tag_621:\n        /* \"#utility.yul\":24368:24375   */\n      0x00\n        /* \"#utility.yul\":24397:24402   */\n      dup2\n        /* \"#utility.yul\":24386:24402   */\n      swap1\n      pop\n        /* \"#utility.yul\":24331:24408   */\n      swap2\n      swap1\n      pop\n      jump\t// out\n        /* \"#utility.yul\":24414:24568   */\n    tag_433:\n        /* \"#utility.yul\":24498:24504   */\n      dup3\n        /* \"#utility.yul\":24493:24496   */\n      dup2\n        /* \"#utility.yul\":24488:24491   */\n      dup4\n        /* \"#utility.yul\":24475:24505   */\n      calldatacopy\n        /* \"#utility.yul\":24560:24561   */\n      0x00\n        /* \"#utility.yul\":24551:24557   */\n      dup4\n        /* \"#utility.yul\":24546:24549   */\n      dup4\n        /* \"#utility.yul\":24542:24558   */\n      add\n        /* \"#utility.yul\":24535:24562   */\n      mstore\n        /* \"#utility.yul\":24414:24568   */\n      pop\n      pop\n      pop\n      jump\t// out\n        /* \"#utility.yul\":24574:24881   */\n    tag_560:\n        /* \"#utility.yul\":24642:24643   */\n      0x00\n        /* \"#utility.yul\":24652:24765   */\n    tag_712:\n        /* \"#utility.yul\":24666:24672   */\n      dup4\n        /* \"#utility.yul\":24663:24664   */\n      dup2\n        /* \"#utility.yul\":24660:24673   */\n      lt\n        /* \"#utility.yul\":24652:24765   */\n      iszero\n      tag_714\n      jumpi\n        /* \"#utility.yul\":24751:24752   */\n      dup1\n        /* \"#utility.yul\":24746:24749   */\n      dup3\n        /* \"#utility.yul\":24742:24753   */\n      add\n        /* \"#utility.yul\":24736:24754   */\n      mload\n        /* \"#utility.yul\":24732:24733   */\n      dup2\n        /* \"#utility.yul\":24727:24730   */\n      dup5\n        /* \"#utility.yul\":24723:24734   */\n      add\n        /* \"#utility.yul\":24716:24755   */\n      mstore\n        /* \"#utility.yul\":24688:24690   */\n      0x20\n        /* \"#utility.yul\":24685:24686   */\n      dup2\n        /* \"#utility.yul\":24681:24691   */\n      add\n        /* \"#utility.yul\":24676:24691   */\n      swap1\n      pop\n        /* \"#utility.yul\":24652:24765   */\n      jump(tag_712)\n    tag_714:\n        /* \"#utility.yul\":24783:24789   */\n      dup4\n        /* \"#utility.yul\":24780:24781   */\n      dup2\n        /* \"#utility.yul\":24777:24790   */\n      gt\n        /* \"#utility.yul\":24774:24875   */\n      iszero\n      tag_715\n      jumpi\n        /* \"#utility.yul\":24863:24864   */\n      0x00\n        /* \"#utility.yul\":24854:24860   */\n      dup5\n        /* \"#utility.yul\":24849:24852   */\n      dup5\n        /* \"#utility.yul\":24845:24861   */\n      add\n        /* \"#utility.yul\":24838:24865   */\n      mstore\n        /* \"#utility.yul\":24774:24875   */\n    tag_715:\n        /* \"#utility.yul\":24623:24881   */\n      pop\n        /* \"#utility.yul\":24574:24881   */\n      pop\n      pop\n      pop\n      jump\t// out\n        /* \"#utility.yul\":24887:25207   */\n    tag_184:\n        /* \"#utility.yul\":24931:24937   */\n      0x00\n        /* \"#utility.yul\":24968:24969   */\n      0x02\n        /* \"#utility.yul\":24962:24966   */\n      dup3\n        /* \"#utility.yul\":24958:24970   */\n      div\n        /* \"#utility.yul\":24948:24970   */\n      swap1\n      pop\n        /* \"#utility.yul\":25015:25016   */\n      0x01\n        /* \"#utility.yul\":25009:25013   */\n      dup3\n        /* \"#utility.yul\":25005:25017   */\n      and\n        /* \"#utility.yul\":25036:25054   */\n      dup1\n        /* \"#utility.yul\":25026:25107   */\n      tag_717\n      jumpi\n        /* \"#utility.yul\":25092:25096   */\n      0x7f\n        /* \"#utility.yul\":25084:25090   */\n      dup3\n        /* \"#utility.yul\":25080:25097   */\n      and\n        /* \"#utility.yul\":25070:25097   */\n      swap2\n      pop\n        /* \"#utility.yul\":25026:25107   */\n    tag_717:\n        /* \"#utility.yul\":25154:25156   */\n      0x20\n        /* \"#utility.yul\":25146:25152   */\n      dup3\n        /* \"#utility.yul\":25143:25157   */\n      lt\n        /* \"#utility.yul\":25123:25141   */\n      dup2\n        /* \"#utility.yul\":25120:25158   */\n      eq\n        /* \"#utility.yul\":25117:25201   */\n      iszero\n      tag_718\n      jumpi\n        /* \"#utility.yul\":25173:25191   */\n      tag_719\n      tag_720\n      jump\t// in\n    tag_719:\n        /* \"#utility.yul\":25117:25201   */\n    tag_718:\n        /* \"#utility.yul\":24938:25207   */\n      pop\n        /* \"#utility.yul\":24887:25207   */\n      swap2\n      swap1\n      pop\n      jump\t// out\n        /* \"#utility.yul\":25213:25494   */\n    tag_667:\n        /* \"#utility.yul\":25296:25323   */\n      tag_722\n        /* \"#utility.yul\":25318:25322   */\n      dup3\n        /* \"#utility.yul\":25296:25323   */\n      tag_562\n      jump\t// in\n    tag_722:\n        /* \"#utility.yul\":25288:25294   */\n      dup2\n        /* \"#utility.yul\":25284:25324   */\n      add\n        /* \"#utility.yul\":25426:25432   */\n      dup2\n        /* \"#utility.yul\":25414:25424   */\n      dup2\n        /* \"#utility.yul\":25411:25433   */\n      lt\n        /* \"#utility.yul\":25390:25408   */\n      0xffffffffffffffff\n        /* \"#utility.yul\":25378:25388   */\n      dup3\n        /* \"#utility.yul\":25375:25409   */\n      gt\n        /* \"#utility.yul\":25372:25434   */\n      or\n        /* \"#utility.yul\":25369:25457   */\n      iszero\n      tag_723\n      jumpi\n        /* \"#utility.yul\":25437:25455   */\n      tag_724\n      tag_672\n      jump\t// in\n    tag_724:\n        /* \"#utility.yul\":25369:25457   */\n    tag_723:\n        /* \"#utility.yul\":25477:25487   */\n      dup1\n        /* \"#utility.yul\":25473:25475   */\n      0x40\n        /* \"#utility.yul\":25466:25488   */\n      mstore\n        /* \"#utility.yul\":25256:25494   */\n      pop\n        /* \"#utility.yul\":25213:25494   */\n      pop\n      pop\n      jump\t// out\n        /* \"#utility.yul\":25500:25733   */\n    tag_198:\n        /* \"#utility.yul\":25539:25542   */\n      0x00\n        /* \"#utility.yul\":25562:25586   */\n      tag_726\n        /* \"#utility.yul\":25580:25585   */\n      dup3\n        /* \"#utility.yul\":25562:25586   */\n      tag_621\n      jump\t// in\n    tag_726:\n        /* \"#utility.yul\":25553:25586   */\n      swap2\n      pop\n        /* \"#utility.yul\":25608:25674   */\n      0xffffffffffffffffffffffffffffffffffffffffffffffffffffffffffffffff\n        /* \"#utility.yul\":25601:25606   */\n      dup3\n        /* \"#utility.yul\":25598:25675   */\n      eq\n        /* \"#utility.yul\":25595:25698   */\n      iszero\n      tag_727\n      jumpi\n        /* \"#utility.yul\":25678:25696   */\n      tag_728\n      tag_691\n      jump\t// in\n    tag_728:\n        /* \"#utility.yul\":25595:25698   */\n    tag_727:\n        /* \"#utility.yul\":25725:25726   */\n      0x01\n        /* \"#utility.yul\":25718:25723   */\n      dup3\n        /* \"#utility.yul\":25714:25727   */\n      add\n        /* \"#utility.yul\":25707:25727   */\n      swap1\n      pop\n        /* \"#utility.yul\":25500:25733   */\n      swap2\n      swap1\n      pop\n      jump\t// out\n        /* \"#utility.yul\":25739:25919   */\n    tag_691:\n        /* \"#utility.yul\":25787:25864   */\n      0x4e487b7100000000000000000000000000000000000000000000000000000000\n        /* \"#utility.yul\":25784:25785   */\n      0x00\n        /* \"#utility.yul\":25777:25865   */\n      mstore\n        /* \"#utility.yul\":25884:25888   */\n      0x11\n        /* \"#utility.yul\":25881:25882   */\n      0x04\n        /* \"#utility.yul\":25874:25889   */\n      mstore\n        /* \"#utility.yul\":25908:25912   */\n      0x24\n        /* \"#utility.yul\":25905:25906   */\n      0x00\n        /* \"#utility.yul\":25898:25913   */\n      revert\n        /* \"#utility.yul\":25925:26105   */\n    tag_697:\n        /* \"#utility.yul\":25973:26050   */\n      0x4e487b7100000000000000000000000000000000000000000000000000000000\n        /* \"#utility.yul\":25970:25971   */\n      0x00\n        /* \"#utility.yul\":25963:26051   */\n      mstore\n        /* \"#utility.yul\":26070:26074   */\n      0x12\n        /* \"#utility.yul\":26067:26068   */\n      0x04\n        /* \"#utility.yul\":26060:26075   */\n      mstore\n        /* \"#utility.yul\":26094:26098   */\n      0x24\n        /* \"#utility.yul\":26091:26092   */\n      0x00\n        /* \"#utility.yul\":26084:26099   */\n      revert\n        /* \"#utility.yul\":26111:26291   */\n    tag_720:\n        /* \"#utility.yul\":26159:26236   */\n      0x4e487b7100000000000000000000000000000000000000000000000000000000\n        /* \"#utility.yul\":26156:26157   */\n      0x00\n        /* \"#utility.yul\":26149:26237   */\n      mstore\n        /* \"#utility.yul\":26256:26260   */\n      0x22\n        /* \"#utility.yul\":26253:26254   */\n      0x04\n        /* \"#utility.yul\":26246:26261   */\n      mstore\n        /* \"#utility.yul\":26280:26284   */\n      0x24\n        /* \"#utility.yul\":26277:26278   */\n      0x00\n        /* \"#utility.yul\":26270:26285   */\n      revert\n        /* \"#utility.yul\":26297:26477   */\n    tag_134:\n        /* \"#utility.yul\":26345:26422   */\n      0x4e487b7100000000000000000000000000000000000000000000000000000000\n        /* \"#utility.yul\":26342:26343   */\n      0x00\n        /* \"#utility.yul\":26335:26423   */\n      mstore\n        /* \"#utility.yul\":26442:26446   */\n      0x32\n        /* \"#utility.yul\":26439:26440   */\n      0x04\n        /* \"#utility.yul\":26432:26447   */\n      mstore\n        /* \"#utility.yul\":26466:26470   */\n      0x24\n        /* \"#utility.yul\":26463:26464   */\n      0x00\n        /* \"#utility.yul\":26456:26471   */\n      revert\n        /* \"#utility.yul\":26483:26663   */\n    tag_672:\n        /* \"#utility.yul\":26531:26608   */\n      0x4e487b7100000000000000000000000000000000000000000000000000000000\n        /* \"#utility.yul\":26528:26529   */\n      0x00\n        /* \"#utility.yul\":26521:26609   */\n      mstore\n        /* \"#utility.yul\":26628:26632   */\n      0x41\n        /* \"#utility.yul\":26625:26626   */\n      0x04\n        /* \"#utility.yul\":26618:26633   */\n      mstore\n        /* \"#utility.yul\":26652:26656   */\n      0x24\n        /* \"#utility.yul\":26649:26650   */\n      0x00\n        /* \"#utility.yul\":26642:26657   */\n      revert\n        /* \"#utility.yul\":26669:26786   */\n    tag_421:\n        /* \"#utility.yul\":26778:26779   */\n      0x00\n        /* \"#utility.yul\":26775:26776   */\n      dup1\n        /* \"#utility.yul\":26768:26780   */\n      revert\n        /* \"#utility.yul\":26792:26909   */\n    tag_415:\n        /* \"#utility.yul\":26901:26902   */\n      0x00\n        /* \"#utility.yul\":26898:26899   */\n      dup1\n        /* \"#utility.yul\":26891:26903   */\n      revert\n        /* \"#utility.yul\":26915:27032   */\n    tag_431:\n        /* \"#utility.yul\":27024:27025   */\n      0x00\n        /* \"#utility.yul\":27021:27022   */\n      dup1\n        /* \"#utility.yul\":27014:27026   */\n      revert\n        /* \"#utility.yul\":27038:27155   */\n    tag_470:\n        /* \"#utility.yul\":27147:27148   */\n      0x00\n        /* \"#utility.yul\":27144:27145   */\n      dup1\n        /* \"#utility.yul\":27137:27149   */\n      revert\n        /* \"#utility.yul\":27161:27278   */\n    tag_462:\n        /* \"#utility.yul\":27270:27271   */\n      0x00\n        /* \"#utility.yul\":27267:27268   */\n      dup1\n        /* \"#utility.yul\":27260:27272   */\n      revert\n        /* \"#utility.yul\":27284:27386   */\n    tag_562:\n        /* \"#utility.yul\":27325:27331   */\n      0x00\n        /* \"#utility.yul\":27376:27378   */\n      0x1f\n        /* \"#utility.yul\":27372:27379   */\n      not\n        /* \"#utility.yul\":27367:27369   */\n      0x1f\n        /* \"#utility.yul\":27360:27365   */\n      dup4\n        /* \"#utility.yul\":27356:27370   */\n      add\n        /* \"#utility.yul\":27352:27380   */\n      and\n        /* \"#utility.yul\":27342:27380   */\n      swap1\n      pop\n        /* \"#utility.yul\":27284:27386   */\n      swap2\n      swap1\n      pop\n      jump\t// out\n        /* \"#utility.yul\":27392:27567   */\n    tag_592:\n        /* \"#utility.yul\":27532:27559   */\n      0x4572726f723a205573657220616c726561647920657869737400000000000000\n        /* \"#utility.yul\":27528:27529   */\n      0x00\n        /* \"#utility.yul\":27520:27526   */\n      dup3\n        /* \"#utility.yul\":27516:27530   */\n      add\n        /* \"#utility.yul\":27509:27560   */\n      mstore\n        /* \"#utility.yul\":27392:27567   */\n      pop\n      jump\t// out\n        /* \"#utility.yul\":27573:27746   */\n    tag_597:\n        /* \"#utility.yul\":27713:27738   */\n      0x4572726f723a20496e76616c69642070617373776f7264000000000000000000\n        /* \"#utility.yul\":27709:27710   */\n      0x00\n        /* \"#utility.yul\":27701:27707   */\n      dup3\n        /* \"#utility.yul\":27697:27711   */\n      add\n        /* \"#utility.yul\":27690:27739   */\n      mstore\n        /* \"#utility.yul\":27573:27746   */\n      pop\n      jump\t// out\n        /* \"#utility.yul\":27752:27927   */\n    tag_602:\n        /* \"#utility.yul\":27892:27919   */\n      0x4572726f723a205573657220646f65736e277420657869737400000000000000\n        /* \"#utility.yul\":27888:27889   */\n      0x00\n        /* \"#utility.yul\":27880:27886   */\n      dup3\n        /* \"#utility.yul\":27876:27890   */\n      add\n        /* \"#utility.yul\":27869:27920   */\n      mstore\n        /* \"#utility.yul\":27752:27927   */\n      pop\n      jump\t// out\n        /* \"#utility.yul\":27933:28099   */\n    tag_607:\n        /* \"#utility.yul\":28073:28091   */\n      0x6572726f723a206e6f74206d6f6e657900000000000000000000000000000000\n        /* \"#utility.yul\":28069:28070   */\n      0x00\n        /* \"#utility.yul\":28061:28067   */\n      dup3\n        /* \"#utility.yul\":28057:28071   */\n      add\n        /* \"#utility.yul\":28050:28092   */\n      mstore\n        /* \"#utility.yul\":27933:28099   */\n      pop\n      jump\t// out\n        /* \"#utility.yul\":28105:28284   */\n    tag_612:\n        /* \"#utility.yul\":28245:28276   */\n      0x4572726f723a20596f752061726520616c7265616479206c6f67676564000000\n        /* \"#utility.yul\":28241:28242   */\n      0x00\n        /* \"#utility.yul\":28233:28239   */\n      dup3\n        /* \"#utility.yul\":28229:28243   */\n      add\n        /* \"#utility.yul\":28222:28277   */\n      mstore\n        /* \"#utility.yul\":28105:28284   */\n      pop\n      jump\t// out\n        /* \"#utility.yul\":28290:28510   */\n    tag_617:\n        /* \"#utility.yul\":28430:28464   */\n      0x6572726f723a20726174696e672063616e2062652066726f6d203120746f2031\n        /* \"#utility.yul\":28426:28427   */\n      0x00\n        /* \"#utility.yul\":28418:28424   */\n      dup3\n        /* \"#utility.yul\":28414:28428   */\n      add\n        /* \"#utility.yul\":28407:28465   */\n      mstore\n        /* \"#utility.yul\":28499:28502   */\n      0x3000000000000000000000000000000000000000000000000000000000000000\n        /* \"#utility.yul\":28494:28496   */\n      0x20\n        /* \"#utility.yul\":28486:28492   */\n      dup3\n        /* \"#utility.yul\":28482:28497   */\n      add\n        /* \"#utility.yul\":28475:28503   */\n      mstore\n        /* \"#utility.yul\":28290:28510   */\n      pop\n      jump\t// out\n        /* \"#utility.yul\":28516:28638   */\n    tag_437:\n        /* \"#utility.yul\":28589:28613   */\n      tag_747\n        /* \"#utility.yul\":28607:28612   */\n      dup2\n        /* \"#utility.yul\":28589:28613   */\n      tag_531\n      jump\t// in\n    tag_747:\n        /* \"#utility.yul\":28582:28587   */\n      dup2\n        /* \"#utility.yul\":28579:28614   */\n      eq\n        /* \"#utility.yul\":28569:28632   */\n      tag_748\n      jumpi\n        /* \"#utility.yul\":28628:28629   */\n      0x00\n        /* \"#utility.yul\":28625:28626   */\n      dup1\n        /* \"#utility.yul\":28618:28630   */\n      revert\n        /* \"#utility.yul\":28569:28632   */\n    tag_748:\n        /* \"#utility.yul\":28516:28638   */\n      pop\n      jump\t// out\n        /* \"#utility.yul\":28644:28760   */\n    tag_446:\n        /* \"#utility.yul\":28714:28735   */\n      tag_750\n        /* \"#utility.yul\":28729:28734   */\n      dup2\n        /* \"#utility.yul\":28714:28735   */\n      tag_549\n      jump\t// in\n    tag_750:\n        /* \"#utility.yul\":28707:28712   */\n      dup2\n        /* \"#utility.yul\":28704:28736   */\n      eq\n        /* \"#utility.yul\":28694:28754   */\n      tag_751\n      jumpi\n        /* \"#utility.yul\":28750:28751   */\n      0x00\n        /* \"#utility.yul\":28747:28748   */\n      dup1\n        /* \"#utility.yul\":28740:28752   */\n      revert\n        /* \"#utility.yul\":28694:28754   */\n    tag_751:\n        /* \"#utility.yul\":28644:28760   */\n      pop\n      jump\t// out\n        /* \"#utility.yul\":28766:28888   */\n    tag_450:\n        /* \"#utility.yul\":28839:28863   */\n      tag_753\n        /* \"#utility.yul\":28857:28862   */\n      dup2\n        /* \"#utility.yul\":28839:28863   */\n      tag_553\n      jump\t// in\n    tag_753:\n        /* \"#utility.yul\":28832:28837   */\n      dup2\n        /* \"#utility.yul\":28829:28864   */\n      eq\n        /* \"#utility.yul\":28819:28882   */\n      tag_754\n      jumpi\n        /* \"#utility.yul\":28878:28879   */\n      0x00\n        /* \"#utility.yul\":28875:28876   */\n      dup1\n        /* \"#utility.yul\":28868:28880   */\n      revert\n        /* \"#utility.yul\":28819:28882   */\n    tag_754:\n        /* \"#utility.yul\":28766:28888   */\n      pop\n      jump\t// out\n        /* \"#utility.yul\":28894:29016   */\n    tag_458:\n        /* \"#utility.yul\":28967:28991   */\n      tag_756\n        /* \"#utility.yul\":28985:28990   */\n      dup2\n        /* \"#utility.yul\":28967:28991   */\n      tag_621\n      jump\t// in\n    tag_756:\n        /* \"#utility.yul\":28960:28965   */\n      dup2\n        /* \"#utility.yul\":28957:28992   */\n      eq\n        /* \"#utility.yul\":28947:29010   */\n      tag_757\n      jumpi\n        /* \"#utility.yul\":29006:29007   */\n      0x00\n        /* \"#utility.yul\":29003:29004   */\n      dup1\n        /* \"#utility.yul\":28996:29008   */\n      revert\n        /* \"#utility.yul\":28947:29010   */\n    tag_757:\n        /* \"#utility.yul\":28894:29016   */\n      pop\n      jump\t// out\n\n    auxdata: 0xa2646970667358221220d6b1b619f9ab5817debe5784d9cb5b49648626ce430f7a8cb1535ce123c8bca464736f6c63430008070033\n}\n",
				"bytecode": {
					"linkReferences": {},
					"object": "60806040526000600d553480156200001657600080fd5b506040518060c001604052806040518060400160405280600481526020017f466f6f64000000000000000000000000000000000000000000000000000000008152508152602001620000a36040518060400160405280600181526020017f3100000000000000000000000000000000000000000000000000000000000000815250620007c760201b60201c565b81526020016040518060400160405280600181526020017f310000000000000000000000000000000000000000000000000000000000000081525081526020016040518060400160405280600681526020017f4d6f73636f77000000000000000000000000000000000000000000000000000081525081526020016103e8815260200160008152506000807322140e5eee5a0341a107bd6a65ee0f5bb72deb9073ffffffffffffffffffffffffffffffffffffffff1673ffffffffffffffffffffffffffffffffffffffff16815260200190815260200160002060008201518160000190805190602001906200019b929190620007f9565b50602082015181600101556040820151816002019080519060200190620001c4929190620007f9565b506060820151816003019080519060200190620001e3929190620007f9565b506080820151816004015560a0820151816005015590505060026000807322140e5eee5a0341a107bd6a65ee0f5bb72deb9073ffffffffffffffffffffffffffffffffffffffff1673ffffffffffffffffffffffffffffffffffffffff16815260200190815260200160002060000190806001815401808255809150506001900390600052602060002001600090919091909150908054620002859062000a1b565b620002929291906200088a565b506040518060c001604052806040518060400160405280600781526020017f436c6f746865730000000000000000000000000000000000000000000000000081525081526020016200031f6040518060400160405280600181526020017f3100000000000000000000000000000000000000000000000000000000000000815250620007c760201b60201c565b81526020016040518060400160405280600181526020017f320000000000000000000000000000000000000000000000000000000000000081525081526020016040518060400160405280600a81526020017f506574657273627572670000000000000000000000000000000000000000000081525081526020016103e8815260200160008152506000807332bbfd99dfcf2a15c1d278a19856683930a8be0b73ffffffffffffffffffffffffffffffffffffffff1673ffffffffffffffffffffffffffffffffffffffff168152602001908152602001600020600082015181600001908051906020019062000417929190620007f9565b5060208201518160010155604082015181600201908051906020019062000440929190620007f9565b5060608201518160030190805190602001906200045f929190620007f9565b506080820151816004015560a0820151816005015590505060026000807332bbfd99dfcf2a15c1d278a19856683930a8be0b73ffffffffffffffffffffffffffffffffffffffff1673ffffffffffffffffffffffffffffffffffffffff16815260200190815260200160002060000190806001815401808255809150506001900390600052602060002001600090919091909150908054620005019062000a1b565b6200050e9291906200088a565b5073c152ad455b16d865f2344140dec6ea95cb361e8a60056040516200053490620009b8565b908152602001604051809103902060006101000a81548173ffffffffffffffffffffffffffffffffffffffff021916908373ffffffffffffffffffffffffffffffffffffffff1602179055506040518060a001604052806040518060400160405280600481526020017f506574610000000000000000000000000000000000000000000000000000000081525081526020016200060c6040518060400160405280600181526020017f3200000000000000000000000000000000000000000000000000000000000000815250620007c760201b60201c565b81526020016103e8815260200160008152602001600015158152506004600073c152ad455b16d865f2344140dec6ea95cb361e8a73ffffffffffffffffffffffffffffffffffffffff1673ffffffffffffffffffffffffffffffffffffffff168152602001908152602001600020600082015181600001908051906020019062000698929190620007f9565b5060208201518160010155604082015181600201556060820151816003015560808201518160040160006101000a81548160ff021916908315150217905550905050600680600181540180825580915050600190039060005260206000200160006040518060400160405280600481526020017f50657461000000000000000000000000000000000000000000000000000000008152509091909150908051906020019062000749929190620007f9565b50600773c152ad455b16d865f2344140dec6ea95cb361e8a9080600181540180825580915050600190039060005260206000200160009091909190916101000a81548173ffffffffffffffffffffffffffffffffffffffff021916908373ffffffffffffffffffffffffffffffffffffffff16021790555062000aa9565b600081604051602001620007dc91906200099f565b604051602081830303815290604052805190602001209050919050565b828054620008079062000a1b565b90600052602060002090601f0160209004810192826200082b576000855562000877565b82601f106200084657805160ff191683800117855562000877565b8280016001018555821562000877579182015b828111156200087657825182559160200191906001019062000859565b5b50905062000886919062000922565b5090565b828054620008989062000a1b565b90600052602060002090601f016020900481019282620008bc57600085556200090f565b82601f10620008cf57805485556200090f565b828001600101855582156200090f57600052602060002091601f016020900482015b828111156200090e578254825591600101919060010190620008f1565b5b5090506200091e919062000922565b5090565b5b808211156200093d57600081600090555060010162000923565b5090565b60006200094e82620009cf565b6200095a8185620009da565b93506200096c818560208601620009e5565b80840191505092915050565b600062000987600483620009da565b9150620009948262000a80565b600482019050919050565b6000620009ad828462000941565b915081905092915050565b6000620009c58262000978565b9150819050919050565b600081519050919050565b600081905092915050565b60005b8381101562000a05578082015181840152602081019050620009e8565b8381111562000a15576000848401525b50505050565b6000600282049050600182168062000a3457607f821691505b6020821081141562000a4b5762000a4a62000a51565b5b50919050565b7f4e487b7100000000000000000000000000000000000000000000000000000000600052602260045260246000fd5b7f5065746100000000000000000000000000000000000000000000000000000000600082015250565b6134ba8062000ab96000396000f3fe608060405234801561001057600080fd5b50600436106101585760003560e01c8063961865f0116100c3578063c4957fa01161007c578063c4957fa014610401578063cc21c18814610431578063d22d90201461044d578063d68cf8c114610469578063dce391511461049c578063f69483c1146104ce57610158565b8063961865f014610301578063a985036d14610335578063a9f9482b14610365578063bbd4336314610397578063c178b9af146103b3578063c26da2f8146103d157610158565b80632d4673e3116101155780632d4673e31461021957806334d2c0ad146102355780636ba44d3c146102535780636c05dd1d146102835780637ddb273d1461029f578063845952a8146102d157610158565b80630c72b1ec1461015d5780630e1c81b214610179578063146dc6ed146101955780631bbe970a146101b157806329e795f3146101e15780632ccdef7c146101fd575b600080fd5b6101776004803603810190610172919061299b565b6104ea565b005b610193600480360381019061018e91906126cc565b6107b7565b005b6101af60048036038101906101aa919061273b565b6109f3565b005b6101cb60048036038101906101c6919061273b565b610b81565b6040516101d89190612cc2565b60405180910390f35b6101fb60048036038101906101f69190612784565b610bca565b005b6102176004803603810190610212919061299b565b610d34565b005b610233600480360381019061022e919061273b565b610f2a565b005b61023d611012565b60405161024a9190612d67565b60405180910390f35b61026d6004803603810190610268919061273b565b6110eb565b60405161027a9190612cc2565b60405180910390f35b61029d600480360381019061029891906128e3565b611133565b005b6102b960048036038101906102b4919061296e565b61125e565b6040516102c893929190612cdd565b60405180910390f35b6102eb60048036038101906102e6919061273b565b61134d565b6040516102f89190612da4565b60405180910390f35b61031b6004803603810190610316919061269f565b61137d565b60405161032c959493929190612dbf565b60405180910390f35b61034f600480360381019061034a919061273b565b611448565b60405161035c9190612ed9565b60405180910390f35b61037f600480360381019061037a919061296e565b611668565b60405161038e93929190612cdd565b60405180910390f35b6103b160048036038101906103ac919061273b565b611757565b005b6103bb61183f565b6040516103c89190612d67565b60405180910390f35b6103eb60048036038101906103e6919061273b565b611918565b6040516103f89190612d89565b60405180910390f35b61041b6004803603810190610416919061273b565b6119af565b6040516104289190612cc2565b60405180910390f35b61044b60048036038101906104469190612858565b6119f8565b005b610467600480360381019061046291906127fc565b611d04565b005b610483600480360381019061047e919061273b565b611fe5565b6040516104939493929190612d1b565b60405180910390f35b6104b660048036038101906104b1919061296e565b6120d3565b6040516104c593929190612cdd565b60405180910390f35b6104e860048036038101906104e3919061299b565b6121c2565b005b600115158115151415610774576000600a838154811061050d5761050c613284565b5b906000526020600020906003020160020160006101000a81548160ff0219169083151502179055506008600a838154811061054b5761054a613284565b5b90600052602060002090600302016001016040516105699190612cab565b90815260200160405180910390206002015460046000600a858154811061059357610592613284565b5b906000526020600020906003020160000160009054906101000a900473ffffffffffffffffffffffffffffffffffffffff1673ffffffffffffffffffffffffffffffffffffffff1673ffffffffffffffffffffffffffffffffffffffff1681526020019081526020016000206002015461060d9190613083565b60046000600a858154811061062557610624613284565b5b906000526020600020906003020160000160009054906101000a900473ffffffffffffffffffffffffffffffffffffffff1673ffffffffffffffffffffffffffffffffffffffff1673ffffffffffffffffffffffffffffffffffffffff168152602001908152602001600020600201819055506008600a83815481106106ae576106ad613284565b5b90600052602060002090600302016001016040516106cc9190612cab565b9081526020016040518091039020600201546000803373ffffffffffffffffffffffffffffffffffffffff1673ffffffffffffffffffffffffffffffffffffffff1681526020019081526020016000206004015461072a9190612ffc565b6000803373ffffffffffffffffffffffffffffffffffffffff1673ffffffffffffffffffffffffffffffffffffffff168152602001908152602001600020600401819055506107b3565b6000600a838154811061078a57610789613284565b5b906000526020600020906003020160020160006101000a81548160ff0219169083151502179055505b5050565b600073ffffffffffffffffffffffffffffffffffffffff166005836040516107df9190612c94565b908152602001604051809103902060009054906101000a900473ffffffffffffffffffffffffffffffffffffffff1673ffffffffffffffffffffffffffffffffffffffff1614610864576040517f08c379a000000000000000000000000000000000000000000000000000000000815260040161085b90612e19565b60405180910390fd5b6040518060a001604052808381526020018281526020016103e881526020016000815260200160001515815250600460008573ffffffffffffffffffffffffffffffffffffffff1673ffffffffffffffffffffffffffffffffffffffff16815260200190815260200160002060008201518160000190805190602001906108ec9291906123b8565b5060208201518160010155604082015181600201556060820151816003015560808201518160040160006101000a81548160ff0219169083151502179055509050508260058360405161093f9190612c94565b908152602001604051809103902060006101000a81548173ffffffffffffffffffffffffffffffffffffffff021916908373ffffffffffffffffffffffffffffffffffffffff1602179055506007839080600181540180825580915050600190039060005260206000200160009091909190916101000a81548173ffffffffffffffffffffffffffffffffffffffff021916908373ffffffffffffffffffffffffffffffffffffffff160217905550505050565b600881604051610a039190612c94565b908152602001604051809103902060020154600460003373ffffffffffffffffffffffffffffffffffffffff1673ffffffffffffffffffffffffffffffffffffffff168152602001908152602001600020600201541015610a99576040517f08c379a0000000000000000000000000000000000000000000000000000000008152600401610a9090612e79565b60405180910390fd5b600a60405180606001604052803373ffffffffffffffffffffffffffffffffffffffff16815260200183815260200160011515815250908060018154018082558091505060019003906000526020600020906003020160009091909190915060008201518160000160006101000a81548173ffffffffffffffffffffffffffffffffffffffff021916908373ffffffffffffffffffffffffffffffffffffffff1602179055506020820151816001019080519060200190610b5b9291906123b8565b5060408201518160020160006101000a81548160ff021916908315150217905550505050565b6005818051602081018201805184825260208301602085012081835280955050505050506000915054906101000a900473ffffffffffffffffffffffffffffffffffffffff1681565b60005b600380549050811015610d2f57600060038281548110610bf057610bef613284565b5b90600052602060002090600502016001018054610c0c9061314b565b80601f0160208091040260200160405190810160405280929190818152602001828054610c389061314b565b8015610c855780601f10610c5a57610100808354040283529160200191610c85565b820191906000526020600020905b815481529060010190602001808311610c6857829003601f168201915b5050505050905083604051602001610c9d9190612c94565b6040516020818303038152906040528051906020012081604051602001610cc49190612c94565b604051602081830303815290604052805190602001201415610d1b578260038381548110610cf557610cf4613284565b5b90600052602060002090600502016004019080519060200190610d1992919061243e565b505b508080610d27906131ae565b915050610bcd565b505050565b600115158115151415610ee7576000600b8381548110610d5757610d56613284565b5b906000526020600020906003020160020160006101000a81548160ff0219169083151502179055506008600b8381548110610d9557610d94613284565b5b9060005260206000209060030201600101604051610db39190612cab565b90815260200160405180910390206002015460046000600b8581548110610ddd57610ddc613284565b5b906000526020600020906003020160000160009054906101000a900473ffffffffffffffffffffffffffffffffffffffff1673ffffffffffffffffffffffffffffffffffffffff1673ffffffffffffffffffffffffffffffffffffffff16815260200190815260200160002060020154610e579190612ffc565b60046000600b8581548110610e6f57610e6e613284565b5b906000526020600020906003020160000160009054906101000a900473ffffffffffffffffffffffffffffffffffffffff1673ffffffffffffffffffffffffffffffffffffffff1673ffffffffffffffffffffffffffffffffffffffff16815260200190815260200160002060020181905550610f26565b6000600b8381548110610efd57610efc613284565b5b906000526020600020906003020160020160006101000a81548160ff0219169083151502179055505b5050565b600c60405180606001604052803373ffffffffffffffffffffffffffffffffffffffff16815260200183815260200160011515815250908060018154018082558091505060019003906000526020600020906003020160009091909190915060008201518160000160006101000a81548173ffffffffffffffffffffffffffffffffffffffff021916908373ffffffffffffffffffffffffffffffffffffffff1602179055506020820151816001019080519060200190610fec9291906123b8565b5060408201518160020160006101000a81548160ff021916908315150217905550505050565b60606009805480602002602001604051908101604052809291908181526020016000905b828210156110e25783829060005260206000200180546110559061314b565b80601f01602080910402602001604051908101604052809291908181526020018280546110819061314b565b80156110ce5780601f106110a3576101008083540402835291602001916110ce565b820191906000526020600020905b8154815290600101906020018083116110b157829003601f168201915b505050505081526020019060010190611036565b50505050905090565b60006005826040516110fd9190612c94565b908152602001604051809103902060009054906101000a900473ffffffffffffffffffffffffffffffffffffffff169050919050565b60405180608001604052803373ffffffffffffffffffffffffffffffffffffffff168152602001828152602001838152602001600d5481525060088460405161117c9190612c94565b908152602001604051809103902060008201518160000160006101000a81548173ffffffffffffffffffffffffffffffffffffffff021916908373ffffffffffffffffffffffffffffffffffffffff16021790555060208201518160010190805190602001906111ed9291906123b8565b5060408201518160020155606082015181600301559050506009839080600181540180825580915050600190039060005260206000200160009091909190915090805190602001906112409291906123b8565b50600d6000815480929190611254906131ae565b9190505550505050565b600c818154811061126e57600080fd5b90600052602060002090600302016000915090508060000160009054906101000a900473ffffffffffffffffffffffffffffffffffffffff16908060010180546112b79061314b565b80601f01602080910402602001604051908101604052809291908181526020018280546112e39061314b565b80156113305780601f1061130557610100808354040283529160200191611330565b820191906000526020600020905b81548152906001019060200180831161131357829003601f168201915b5050505050908060020160009054906101000a900460ff16905083565b6000816040516020016113609190612c94565b604051602081830303815290604052805190602001209050919050565b60046020528060005260406000206000915090508060000180546113a09061314b565b80601f01602080910402602001604051908101604052809291908181526020018280546113cc9061314b565b80156114195780601f106113ee57610100808354040283529160200191611419565b820191906000526020600020905b8154815290600101906020018083116113fc57829003601f168201915b5050505050908060010154908060020154908060030154908060040160009054906101000a900460ff16905085565b600080600090506000805b6002805490508110156116445760006002828154811061147657611475613284565b5b90600052602060002001805461148b9061314b565b80601f01602080910402602001604051908101604052809291908181526020018280546114b79061314b565b80156115045780601f106114d957610100808354040283529160200191611504565b820191906000526020600020905b8154815290600101906020018083116114e757829003601f168201915b505050505090508560405160200161151c9190612c94565b60405160208183030381529060405280519060200120816040516020016115439190612c94565b60405160208183030381529060405280519060200120141561163057600091505b600380549050821161162f576003828154811061158457611583613284565b5b90600052602060002090600502016000016040516020016115a59190612cab565b60405160208183030381529060405280519060200120866040516020016115cc9190612c94565b60405160208183030381529060405280519060200120141561161c57600382815481106115fc576115fb613284565b5b906000526020600020906005020160030154836116199190612ffc565b92505b8180611627906131ae565b925050611564565b5b50808061163c906131ae565b915050611453565b5081816116519190613052565b8161165c9190612ffc565b90508092505050919050565b600b818154811061167857600080fd5b90600052602060002090600302016000915090508060000160009054906101000a900473ffffffffffffffffffffffffffffffffffffffff16908060010180546116c19061314b565b80601f01602080910402602001604051908101604052809291908181526020018280546116ed9061314b565b801561173a5780601f1061170f5761010080835404028352916020019161173a565b820191906000526020600020905b81548152906001019060200180831161171d57829003601f168201915b5050505050908060020160009054906101000a900460ff16905083565b600b60405180606001604052803373ffffffffffffffffffffffffffffffffffffffff16815260200183815260200160011515815250908060018154018082558091505060019003906000526020600020906003020160009091909190915060008201518160000160006101000a81548173ffffffffffffffffffffffffffffffffffffffff021916908373ffffffffffffffffffffffffffffffffffffffff16021790555060208201518160010190805190602001906118199291906123b8565b5060408201518160020160006101000a81548160ff021916908315150217905550505050565b60606002805480602002602001604051908101604052809291908181526020016000905b8282101561190f5783829060005260206000200180546118829061314b565b80601f01602080910402602001604051908101604052809291908181526020018280546118ae9061314b565b80156118fb5780601f106118d0576101008083540402835291602001916118fb565b820191906000526020600020905b8154815290600101906020018083116118de57829003601f168201915b505050505081526020019060010190611863565b50505050905090565b60006004600060058460405161192e9190612c94565b908152602001604051809103902060009054906101000a900473ffffffffffffffffffffffffffffffffffffffff1673ffffffffffffffffffffffffffffffffffffffff1673ffffffffffffffffffffffffffffffffffffffff16815260200190815260200160002060040160009054906101000a900460ff169050919050565b6001818051602081018201805184825260208301602085012081835280955050505050506000915054906101000a900473ffffffffffffffffffffffffffffffffffffffff1681565b600a811115611a3c576040517f08c379a0000000000000000000000000000000000000000000000000000000008152600401611a3390612eb9565b60405180910390fd5b60005b6002805490508111611cfe57600060028281548110611a6157611a60613284565b5b906000526020600020018054611a769061314b565b80601f0160208091040260200160405190810160405280929190818152602001828054611aa29061314b565b8015611aef5780601f10611ac457610100808354040283529160200191611aef565b820191906000526020600020905b815481529060010190602001808311611ad257829003601f168201915b5050505050905084604051602001611b079190612c94565b6040516020818303038152906040528051906020012081604051602001611b2e9190612c94565b604051602081830303815290604052805190602001201415611cea57606060036040518060a00160405280888152602001600460003373ffffffffffffffffffffffffffffffffffffffff1673ffffffffffffffffffffffffffffffffffffffff1681526020019081526020016000206000018054611bac9061314b565b80601f0160208091040260200160405190810160405280929190818152602001828054611bd89061314b565b8015611c255780601f10611bfa57610100808354040283529160200191611c25565b820191906000526020600020905b815481529060010190602001808311611c0857829003601f168201915b505050505081526020018781526020018681526020018381525090806001815401808255809150506001900390600052602060002090600502016000909190919091506000820151816000019080519060200190611c849291906123b8565b506020820151816001019080519060200190611ca19291906123b8565b506040820151816002019080519060200190611cbe9291906123b8565b50606082015181600301556080820151816004019080519060200190611ce592919061243e565b505050505b508080611cf6906131ae565b915050611a3f565b50505050565b6000151560046000600585604051611d1c9190612c94565b908152602001604051809103902060009054906101000a900473ffffffffffffffffffffffffffffffffffffffff1673ffffffffffffffffffffffffffffffffffffffff1673ffffffffffffffffffffffffffffffffffffffff16815260200190815260200160002060040160009054906101000a900460ff16151514611dd8576040517f08c379a0000000000000000000000000000000000000000000000000000000008152600401611dcf90612e99565b60405180910390fd5b600073ffffffffffffffffffffffffffffffffffffffff16600583604051611e009190612c94565b908152602001604051809103902060009054906101000a900473ffffffffffffffffffffffffffffffffffffffff1673ffffffffffffffffffffffffffffffffffffffff161415611e86576040517f08c379a0000000000000000000000000000000000000000000000000000000008152600401611e7d90612e59565b60405180910390fd5b8060046000600585604051611e9b9190612c94565b908152602001604051809103902060009054906101000a900473ffffffffffffffffffffffffffffffffffffffff1673ffffffffffffffffffffffffffffffffffffffff1673ffffffffffffffffffffffffffffffffffffffff1681526020019081526020016000206001015414611f48576040517f08c379a0000000000000000000000000000000000000000000000000000000008152600401611f3f90612e39565b60405180910390fd5b600160046000600585604051611f5e9190612c94565b908152602001604051809103902060009054906101000a900473ffffffffffffffffffffffffffffffffffffffff1673ffffffffffffffffffffffffffffffffffffffff1673ffffffffffffffffffffffffffffffffffffffff16815260200190815260200160002060040160006101000a81548160ff0219169083151502179055505050565b6008818051602081018201805184825260208301602085012081835280955050505050506000915090508060000160009054906101000a900473ffffffffffffffffffffffffffffffffffffffff16908060010180546120449061314b565b80601f01602080910402602001604051908101604052809291908181526020018280546120709061314b565b80156120bd5780601f10612092576101008083540402835291602001916120bd565b820191906000526020600020905b8154815290600101906020018083116120a057829003601f168201915b5050505050908060020154908060030154905084565b600a81815481106120e357600080fd5b90600052602060002090600302016000915090508060000160009054906101000a900473ffffffffffffffffffffffffffffffffffffffff169080600101805461212c9061314b565b80601f01602080910402602001604051908101604052809291908181526020018280546121589061314b565b80156121a55780601f1061217a576101008083540402835291602001916121a5565b820191906000526020600020905b81548152906001019060200180831161218857829003601f168201915b5050505050908060020160009054906101000a900460ff16905083565b600115158115151415612375576008600c83815481106121e5576121e4613284565b5b90600052602060002090600302016001016040516122039190612cab565b90815260200160405180910390206002015460046000600c858154811061222d5761222c613284565b5b906000526020600020906003020160000160009054906101000a900473ffffffffffffffffffffffffffffffffffffffff1673ffffffffffffffffffffffffffffffffffffffff1673ffffffffffffffffffffffffffffffffffffffff168152602001908152602001600020600201546122a79190612ffc565b60046000600c85815481106122bf576122be613284565b5b906000526020600020906003020160000160009054906101000a900473ffffffffffffffffffffffffffffffffffffffff1673ffffffffffffffffffffffffffffffffffffffff1673ffffffffffffffffffffffffffffffffffffffff168152602001908152602001600020600201819055506000600b838154811061234857612347613284565b5b906000526020600020906003020160020160006101000a81548160ff0219169083151502179055506123b4565b6000600b838154811061238b5761238a613284565b5b906000526020600020906003020160020160006101000a81548160ff0219169083151502179055505b5050565b8280546123c49061314b565b90600052602060002090601f0160209004810192826123e6576000855561242d565b82601f106123ff57805160ff191683800117855561242d565b8280016001018555821561242d579182015b8281111561242c578251825591602001919060010190612411565b5b50905061243a919061249e565b5090565b82805482825590600052602060002090810192821561248d579160200282015b8281111561248c57825182908051906020019061247c9291906123b8565b509160200191906001019061245e565b5b50905061249a91906124bb565b5090565b5b808211156124b757600081600090555060010161249f565b5090565b5b808211156124db57600081816124d291906124df565b506001016124bc565b5090565b5080546124eb9061314b565b6000825580601f106124fd575061251c565b601f01602090049060005260206000209081019061251b919061249e565b5b50565b600061253261252d84612f19565b612ef4565b90508083825260208201905082856020860282011115612555576125546132e7565b5b60005b858110156125a357813567ffffffffffffffff81111561257b5761257a6132e2565b5b808601612588898261265c565b85526020850194506020840193505050600181019050612558565b5050509392505050565b60006125c06125bb84612f45565b612ef4565b9050828152602081018484840111156125dc576125db6132ec565b5b6125e7848285613109565b509392505050565b6000813590506125fe81613428565b92915050565b600082601f830112612619576126186132e2565b5b813561262984826020860161251f565b91505092915050565b6000813590506126418161343f565b92915050565b60008135905061265681613456565b92915050565b600082601f830112612671576126706132e2565b5b81356126818482602086016125ad565b91505092915050565b6000813590506126998161346d565b92915050565b6000602082840312156126b5576126b46132f6565b5b60006126c3848285016125ef565b91505092915050565b6000806000606084860312156126e5576126e46132f6565b5b60006126f3868287016125ef565b935050602084013567ffffffffffffffff811115612714576127136132f1565b5b6127208682870161265c565b925050604061273186828701612647565b9150509250925092565b600060208284031215612751576127506132f6565b5b600082013567ffffffffffffffff81111561276f5761276e6132f1565b5b61277b8482850161265c565b91505092915050565b6000806040838503121561279b5761279a6132f6565b5b600083013567ffffffffffffffff8111156127b9576127b86132f1565b5b6127c58582860161265c565b925050602083013567ffffffffffffffff8111156127e6576127e56132f1565b5b6127f285828601612604565b9150509250929050565b60008060408385031215612813576128126132f6565b5b600083013567ffffffffffffffff811115612831576128306132f1565b5b61283d8582860161265c565b925050602061284e85828601612647565b9150509250929050565b600080600060608486031215612871576128706132f6565b5b600084013567ffffffffffffffff81111561288f5761288e6132f1565b5b61289b8682870161265c565b935050602084013567ffffffffffffffff8111156128bc576128bb6132f1565b5b6128c88682870161265c565b92505060406128d98682870161268a565b9150509250925092565b6000806000606084860312156128fc576128fb6132f6565b5b600084013567ffffffffffffffff81111561291a576129196132f1565b5b6129268682870161265c565b93505060206129378682870161268a565b925050604084013567ffffffffffffffff811115612958576129576132f1565b5b6129648682870161265c565b9150509250925092565b600060208284031215612984576129836132f6565b5b60006129928482850161268a565b91505092915050565b600080604083850312156129b2576129b16132f6565b5b60006129c08582860161268a565b92505060206129d185828601612632565b9150509250929050565b60006129e78383612a91565b905092915050565b6129f8816130b7565b82525050565b6000612a0982612f9b565b612a138185612fbe565b935083602082028501612a2585612f76565b8060005b85811015612a615784840389528151612a4285826129db565b9450612a4d83612fb1565b925060208a01995050600181019050612a29565b50829750879550505050505092915050565b612a7c816130c9565b82525050565b612a8b816130d5565b82525050565b6000612a9c82612fa6565b612aa68185612fcf565b9350612ab6818560208601613118565b612abf816132fb565b840191505092915050565b6000612ad582612fa6565b612adf8185612fe0565b9350612aef818560208601613118565b612af8816132fb565b840191505092915050565b6000612b0e82612fa6565b612b188185612ff1565b9350612b28818560208601613118565b80840191505092915050565b60008154612b418161314b565b612b4b8186612ff1565b94506001821660008114612b665760018114612b7757612baa565b60ff19831686528186019350612baa565b612b8085612f86565b60005b83811015612ba257815481890152600182019150602081019050612b83565b838801955050505b50505092915050565b6000612bc0601983612fe0565b9150612bcb8261330c565b602082019050919050565b6000612be3601783612fe0565b9150612bee82613335565b602082019050919050565b6000612c06601983612fe0565b9150612c118261335e565b602082019050919050565b6000612c29601083612fe0565b9150612c3482613387565b602082019050919050565b6000612c4c601d83612fe0565b9150612c57826133b0565b602082019050919050565b6000612c6f602183612fe0565b9150612c7a826133d9565b604082019050919050565b612c8e816130ff565b82525050565b6000612ca08284612b03565b915081905092915050565b6000612cb78284612b34565b915081905092915050565b6000602082019050612cd760008301846129ef565b92915050565b6000606082019050612cf260008301866129ef565b8181036020830152612d048185612aca565b9050612d136040830184612a73565b949350505050565b6000608082019050612d3060008301876129ef565b8181036020830152612d428186612aca565b9050612d516040830185612c85565b612d5e6060830184612c85565b95945050505050565b60006020820190508181036000830152612d8181846129fe565b905092915050565b6000602082019050612d9e6000830184612a73565b92915050565b6000602082019050612db96000830184612a82565b92915050565b600060a0820190508181036000830152612dd98188612aca565b9050612de86020830187612a82565b612df56040830186612c85565b612e026060830185612c85565b612e0f6080830184612a73565b9695505050505050565b60006020820190508181036000830152612e3281612bb3565b9050919050565b60006020820190508181036000830152612e5281612bd6565b9050919050565b60006020820190508181036000830152612e7281612bf9565b9050919050565b60006020820190508181036000830152612e9281612c1c565b9050919050565b60006020820190508181036000830152612eb281612c3f565b9050919050565b60006020820190508181036000830152612ed281612c62565b9050919050565b6000602082019050612eee6000830184612c85565b92915050565b6000612efe612f0f565b9050612f0a828261317d565b919050565b6000604051905090565b600067ffffffffffffffff821115612f3457612f336132b3565b5b602082029050602081019050919050565b600067ffffffffffffffff821115612f6057612f5f6132b3565b5b612f69826132fb565b9050602081019050919050565b6000819050602082019050919050565b60008190508160005260206000209050919050565b600081519050919050565b600081519050919050565b6000602082019050919050565b600082825260208201905092915050565b600082825260208201905092915050565b600082825260208201905092915050565b600081905092915050565b6000613007826130ff565b9150613012836130ff565b9250827fffffffffffffffffffffffffffffffffffffffffffffffffffffffffffffffff03821115613047576130466131f7565b5b828201905092915050565b600061305d826130ff565b9150613068836130ff565b92508261307857613077613226565b5b828204905092915050565b600061308e826130ff565b9150613099836130ff565b9250828210156130ac576130ab6131f7565b5b828203905092915050565b60006130c2826130df565b9050919050565b60008115159050919050565b6000819050919050565b600073ffffffffffffffffffffffffffffffffffffffff82169050919050565b6000819050919050565b82818337600083830152505050565b60005b8381101561313657808201518184015260208101905061311b565b83811115613145576000848401525b50505050565b6000600282049050600182168061316357607f821691505b6020821081141561317757613176613255565b5b50919050565b613186826132fb565b810181811067ffffffffffffffff821117156131a5576131a46132b3565b5b80604052505050565b60006131b9826130ff565b91507fffffffffffffffffffffffffffffffffffffffffffffffffffffffffffffffff8214156131ec576131eb6131f7565b5b600182019050919050565b7f4e487b7100000000000000000000000000000000000000000000000000000000600052601160045260246000fd5b7f4e487b7100000000000000000000000000000000000000000000000000000000600052601260045260246000fd5b7f4e487b7100000000000000000000000000000000000000000000000000000000600052602260045260246000fd5b7f4e487b7100000000000000000000000000000000000000000000000000000000600052603260045260246000fd5b7f4e487b7100000000000000000000000000000000000000000000000000000000600052604160045260246000fd5b600080fd5b600080fd5b600080fd5b600080fd5b600080fd5b6000601f19601f8301169050919050565b7f4572726f723a205573657220616c726561647920657869737400000000000000600082015250565b7f4572726f723a20496e76616c69642070617373776f7264000000000000000000600082015250565b7f4572726f723a205573657220646f65736e277420657869737400000000000000600082015250565b7f6572726f723a206e6f74206d6f6e657900000000000000000000000000000000600082015250565b7f4572726f723a20596f752061726520616c7265616479206c6f67676564000000600082015250565b7f6572726f723a20726174696e672063616e2062652066726f6d203120746f203160008201527f3000000000000000000000000000000000000000000000000000000000000000602082015250565b613431816130b7565b811461343c57600080fd5b50565b613448816130c9565b811461345357600080fd5b50565b61345f816130d5565b811461346a57600080fd5b50565b613476816130ff565b811461348157600080fd5b5056fea2646970667358221220d6b1b619f9ab5817debe5784d9cb5b49648626ce430f7a8cb1535ce123c8bca464736f6c63430008070033",
					"opcodes": "PUSH1 0x80 PUSH1 0x40 MSTORE PUSH1 0x0 PUSH1 0xD SSTORE CALLVALUE DUP1 ISZERO PUSH3 0x16 JUMPI PUSH1 0x0 DUP1 REVERT JUMPDEST POP PUSH1 0x40 MLOAD DUP1 PUSH1 0xC0 ADD PUSH1 0x40 MSTORE DUP1 PUSH1 0x40 MLOAD DUP1 PUSH1 0x40 ADD PUSH1 0x40 MSTORE DUP1 PUSH1 0x4 DUP2 MSTORE PUSH1 0x20 ADD PUSH32 0x466F6F6400000000000000000000000000000000000000000000000000000000 DUP2 MSTORE POP DUP2 MSTORE PUSH1 0x20 ADD PUSH3 0xA3 PUSH1 0x40 MLOAD DUP1 PUSH1 0x40 ADD PUSH1 0x40 MSTORE DUP1 PUSH1 0x1 DUP2 MSTORE PUSH1 0x20 ADD PUSH32 0x3100000000000000000000000000000000000000000000000000000000000000 DUP2 MSTORE POP PUSH3 0x7C7 PUSH1 0x20 SHL PUSH1 0x20 SHR JUMP JUMPDEST DUP2 MSTORE PUSH1 0x20 ADD PUSH1 0x40 MLOAD DUP1 PUSH1 0x40 ADD PUSH1 0x40 MSTORE DUP1 PUSH1 0x1 DUP2 MSTORE PUSH1 0x20 ADD PUSH32 0x3100000000000000000000000000000000000000000000000000000000000000 DUP2 MSTORE POP DUP2 MSTORE PUSH1 0x20 ADD PUSH1 0x40 MLOAD DUP1 PUSH1 0x40 ADD PUSH1 0x40 MSTORE DUP1 PUSH1 0x6 DUP2 MSTORE PUSH1 0x20 ADD PUSH32 0x4D6F73636F770000000000000000000000000000000000000000000000000000 DUP2 MSTORE POP DUP2 MSTORE PUSH1 0x20 ADD PUSH2 0x3E8 DUP2 MSTORE PUSH1 0x20 ADD PUSH1 0x0 DUP2 MSTORE POP PUSH1 0x0 DUP1 PUSH20 0x22140E5EEE5A0341A107BD6A65EE0F5BB72DEB90 PUSH20 0xFFFFFFFFFFFFFFFFFFFFFFFFFFFFFFFFFFFFFFFF AND PUSH20 0xFFFFFFFFFFFFFFFFFFFFFFFFFFFFFFFFFFFFFFFF AND DUP2 MSTORE PUSH1 0x20 ADD SWAP1 DUP2 MSTORE PUSH1 0x20 ADD PUSH1 0x0 KECCAK256 PUSH1 0x0 DUP3 ADD MLOAD DUP2 PUSH1 0x0 ADD SWAP1 DUP1 MLOAD SWAP1 PUSH1 0x20 ADD SWAP1 PUSH3 0x19B SWAP3 SWAP2 SWAP1 PUSH3 0x7F9 JUMP JUMPDEST POP PUSH1 0x20 DUP3 ADD MLOAD DUP2 PUSH1 0x1 ADD SSTORE PUSH1 0x40 DUP3 ADD MLOAD DUP2 PUSH1 0x2 ADD SWAP1 DUP1 MLOAD SWAP1 PUSH1 0x20 ADD SWAP1 PUSH3 0x1C4 SWAP3 SWAP2 SWAP1 PUSH3 0x7F9 JUMP JUMPDEST POP PUSH1 0x60 DUP3 ADD MLOAD DUP2 PUSH1 0x3 ADD SWAP1 DUP1 MLOAD SWAP1 PUSH1 0x20 ADD SWAP1 PUSH3 0x1E3 SWAP3 SWAP2 SWAP1 PUSH3 0x7F9 JUMP JUMPDEST POP PUSH1 0x80 DUP3 ADD MLOAD DUP2 PUSH1 0x4 ADD SSTORE PUSH1 0xA0 DUP3 ADD MLOAD DUP2 PUSH1 0x5 ADD SSTORE SWAP1 POP POP PUSH1 0x2 PUSH1 0x0 DUP1 PUSH20 0x22140E5EEE5A0341A107BD6A65EE0F5BB72DEB90 PUSH20 0xFFFFFFFFFFFFFFFFFFFFFFFFFFFFFFFFFFFFFFFF AND PUSH20 0xFFFFFFFFFFFFFFFFFFFFFFFFFFFFFFFFFFFFFFFF AND DUP2 MSTORE PUSH1 0x20 ADD SWAP1 DUP2 MSTORE PUSH1 0x20 ADD PUSH1 0x0 KECCAK256 PUSH1 0x0 ADD SWAP1 DUP1 PUSH1 0x1 DUP2 SLOAD ADD DUP1 DUP3 SSTORE DUP1 SWAP2 POP POP PUSH1 0x1 SWAP1 SUB SWAP1 PUSH1 0x0 MSTORE PUSH1 0x20 PUSH1 0x0 KECCAK256 ADD PUSH1 0x0 SWAP1 SWAP2 SWAP1 SWAP2 SWAP1 SWAP2 POP SWAP1 DUP1 SLOAD PUSH3 0x285 SWAP1 PUSH3 0xA1B JUMP JUMPDEST PUSH3 0x292 SWAP3 SWAP2 SWAP1 PUSH3 0x88A JUMP JUMPDEST POP PUSH1 0x40 MLOAD DUP1 PUSH1 0xC0 ADD PUSH1 0x40 MSTORE DUP1 PUSH1 0x40 MLOAD DUP1 PUSH1 0x40 ADD PUSH1 0x40 MSTORE DUP1 PUSH1 0x7 DUP2 MSTORE PUSH1 0x20 ADD PUSH32 0x436C6F7468657300000000000000000000000000000000000000000000000000 DUP2 MSTORE POP DUP2 MSTORE PUSH1 0x20 ADD PUSH3 0x31F PUSH1 0x40 MLOAD DUP1 PUSH1 0x40 ADD PUSH1 0x40 MSTORE DUP1 PUSH1 0x1 DUP2 MSTORE PUSH1 0x20 ADD PUSH32 0x3100000000000000000000000000000000000000000000000000000000000000 DUP2 MSTORE POP PUSH3 0x7C7 PUSH1 0x20 SHL PUSH1 0x20 SHR JUMP JUMPDEST DUP2 MSTORE PUSH1 0x20 ADD PUSH1 0x40 MLOAD DUP1 PUSH1 0x40 ADD PUSH1 0x40 MSTORE DUP1 PUSH1 0x1 DUP2 MSTORE PUSH1 0x20 ADD PUSH32 0x3200000000000000000000000000000000000000000000000000000000000000 DUP2 MSTORE POP DUP2 MSTORE PUSH1 0x20 ADD PUSH1 0x40 MLOAD DUP1 PUSH1 0x40 ADD PUSH1 0x40 MSTORE DUP1 PUSH1 0xA DUP2 MSTORE PUSH1 0x20 ADD PUSH32 0x5065746572736275726700000000000000000000000000000000000000000000 DUP2 MSTORE POP DUP2 MSTORE PUSH1 0x20 ADD PUSH2 0x3E8 DUP2 MSTORE PUSH1 0x20 ADD PUSH1 0x0 DUP2 MSTORE POP PUSH1 0x0 DUP1 PUSH20 0x32BBFD99DFCF2A15C1D278A19856683930A8BE0B PUSH20 0xFFFFFFFFFFFFFFFFFFFFFFFFFFFFFFFFFFFFFFFF AND PUSH20 0xFFFFFFFFFFFFFFFFFFFFFFFFFFFFFFFFFFFFFFFF AND DUP2 MSTORE PUSH1 0x20 ADD SWAP1 DUP2 MSTORE PUSH1 0x20 ADD PUSH1 0x0 KECCAK256 PUSH1 0x0 DUP3 ADD MLOAD DUP2 PUSH1 0x0 ADD SWAP1 DUP1 MLOAD SWAP1 PUSH1 0x20 ADD SWAP1 PUSH3 0x417 SWAP3 SWAP2 SWAP1 PUSH3 0x7F9 JUMP JUMPDEST POP PUSH1 0x20 DUP3 ADD MLOAD DUP2 PUSH1 0x1 ADD SSTORE PUSH1 0x40 DUP3 ADD MLOAD DUP2 PUSH1 0x2 ADD SWAP1 DUP1 MLOAD SWAP1 PUSH1 0x20 ADD SWAP1 PUSH3 0x440 SWAP3 SWAP2 SWAP1 PUSH3 0x7F9 JUMP JUMPDEST POP PUSH1 0x60 DUP3 ADD MLOAD DUP2 PUSH1 0x3 ADD SWAP1 DUP1 MLOAD SWAP1 PUSH1 0x20 ADD SWAP1 PUSH3 0x45F SWAP3 SWAP2 SWAP1 PUSH3 0x7F9 JUMP JUMPDEST POP PUSH1 0x80 DUP3 ADD MLOAD DUP2 PUSH1 0x4 ADD SSTORE PUSH1 0xA0 DUP3 ADD MLOAD DUP2 PUSH1 0x5 ADD SSTORE SWAP1 POP POP PUSH1 0x2 PUSH1 0x0 DUP1 PUSH20 0x32BBFD99DFCF2A15C1D278A19856683930A8BE0B PUSH20 0xFFFFFFFFFFFFFFFFFFFFFFFFFFFFFFFFFFFFFFFF AND PUSH20 0xFFFFFFFFFFFFFFFFFFFFFFFFFFFFFFFFFFFFFFFF AND DUP2 MSTORE PUSH1 0x20 ADD SWAP1 DUP2 MSTORE PUSH1 0x20 ADD PUSH1 0x0 KECCAK256 PUSH1 0x0 ADD SWAP1 DUP1 PUSH1 0x1 DUP2 SLOAD ADD DUP1 DUP3 SSTORE DUP1 SWAP2 POP POP PUSH1 0x1 SWAP1 SUB SWAP1 PUSH1 0x0 MSTORE PUSH1 0x20 PUSH1 0x0 KECCAK256 ADD PUSH1 0x0 SWAP1 SWAP2 SWAP1 SWAP2 SWAP1 SWAP2 POP SWAP1 DUP1 SLOAD PUSH3 0x501 SWAP1 PUSH3 0xA1B JUMP JUMPDEST PUSH3 0x50E SWAP3 SWAP2 SWAP1 PUSH3 0x88A JUMP JUMPDEST POP PUSH20 0xC152AD455B16D865F2344140DEC6EA95CB361E8A PUSH1 0x5 PUSH1 0x40 MLOAD PUSH3 0x534 SWAP1 PUSH3 0x9B8 JUMP JUMPDEST SWAP1 DUP2 MSTORE PUSH1 0x20 ADD PUSH1 0x40 MLOAD DUP1 SWAP2 SUB SWAP1 KECCAK256 PUSH1 0x0 PUSH2 0x100 EXP DUP2 SLOAD DUP2 PUSH20 0xFFFFFFFFFFFFFFFFFFFFFFFFFFFFFFFFFFFFFFFF MUL NOT AND SWAP1 DUP4 PUSH20 0xFFFFFFFFFFFFFFFFFFFFFFFFFFFFFFFFFFFFFFFF AND MUL OR SWAP1 SSTORE POP PUSH1 0x40 MLOAD DUP1 PUSH1 0xA0 ADD PUSH1 0x40 MSTORE DUP1 PUSH1 0x40 MLOAD DUP1 PUSH1 0x40 ADD PUSH1 0x40 MSTORE DUP1 PUSH1 0x4 DUP2 MSTORE PUSH1 0x20 ADD PUSH32 0x5065746100000000000000000000000000000000000000000000000000000000 DUP2 MSTORE POP DUP2 MSTORE PUSH1 0x20 ADD PUSH3 0x60C PUSH1 0x40 MLOAD DUP1 PUSH1 0x40 ADD PUSH1 0x40 MSTORE DUP1 PUSH1 0x1 DUP2 MSTORE PUSH1 0x20 ADD PUSH32 0x3200000000000000000000000000000000000000000000000000000000000000 DUP2 MSTORE POP PUSH3 0x7C7 PUSH1 0x20 SHL PUSH1 0x20 SHR JUMP JUMPDEST DUP2 MSTORE PUSH1 0x20 ADD PUSH2 0x3E8 DUP2 MSTORE PUSH1 0x20 ADD PUSH1 0x0 DUP2 MSTORE PUSH1 0x20 ADD PUSH1 0x0 ISZERO ISZERO DUP2 MSTORE POP PUSH1 0x4 PUSH1 0x0 PUSH20 0xC152AD455B16D865F2344140DEC6EA95CB361E8A PUSH20 0xFFFFFFFFFFFFFFFFFFFFFFFFFFFFFFFFFFFFFFFF AND PUSH20 0xFFFFFFFFFFFFFFFFFFFFFFFFFFFFFFFFFFFFFFFF AND DUP2 MSTORE PUSH1 0x20 ADD SWAP1 DUP2 MSTORE PUSH1 0x20 ADD PUSH1 0x0 KECCAK256 PUSH1 0x0 DUP3 ADD MLOAD DUP2 PUSH1 0x0 ADD SWAP1 DUP1 MLOAD SWAP1 PUSH1 0x20 ADD SWAP1 PUSH3 0x698 SWAP3 SWAP2 SWAP1 PUSH3 0x7F9 JUMP JUMPDEST POP PUSH1 0x20 DUP3 ADD MLOAD DUP2 PUSH1 0x1 ADD SSTORE PUSH1 0x40 DUP3 ADD MLOAD DUP2 PUSH1 0x2 ADD SSTORE PUSH1 0x60 DUP3 ADD MLOAD DUP2 PUSH1 0x3 ADD SSTORE PUSH1 0x80 DUP3 ADD MLOAD DUP2 PUSH1 0x4 ADD PUSH1 0x0 PUSH2 0x100 EXP DUP2 SLOAD DUP2 PUSH1 0xFF MUL NOT AND SWAP1 DUP4 ISZERO ISZERO MUL OR SWAP1 SSTORE POP SWAP1 POP POP PUSH1 0x6 DUP1 PUSH1 0x1 DUP2 SLOAD ADD DUP1 DUP3 SSTORE DUP1 SWAP2 POP POP PUSH1 0x1 SWAP1 SUB SWAP1 PUSH1 0x0 MSTORE PUSH1 0x20 PUSH1 0x0 KECCAK256 ADD PUSH1 0x0 PUSH1 0x40 MLOAD DUP1 PUSH1 0x40 ADD PUSH1 0x40 MSTORE DUP1 PUSH1 0x4 DUP2 MSTORE PUSH1 0x20 ADD PUSH32 0x5065746100000000000000000000000000000000000000000000000000000000 DUP2 MSTORE POP SWAP1 SWAP2 SWAP1 SWAP2 POP SWAP1 DUP1 MLOAD SWAP1 PUSH1 0x20 ADD SWAP1 PUSH3 0x749 SWAP3 SWAP2 SWAP1 PUSH3 0x7F9 JUMP JUMPDEST POP PUSH1 0x7 PUSH20 0xC152AD455B16D865F2344140DEC6EA95CB361E8A SWAP1 DUP1 PUSH1 0x1 DUP2 SLOAD ADD DUP1 DUP3 SSTORE DUP1 SWAP2 POP POP PUSH1 0x1 SWAP1 SUB SWAP1 PUSH1 0x0 MSTORE PUSH1 0x20 PUSH1 0x0 KECCAK256 ADD PUSH1 0x0 SWAP1 SWAP2 SWAP1 SWAP2 SWAP1 SWAP2 PUSH2 0x100 EXP DUP2 SLOAD DUP2 PUSH20 0xFFFFFFFFFFFFFFFFFFFFFFFFFFFFFFFFFFFFFFFF MUL NOT AND SWAP1 DUP4 PUSH20 0xFFFFFFFFFFFFFFFFFFFFFFFFFFFFFFFFFFFFFFFF AND MUL OR SWAP1 SSTORE POP PUSH3 0xAA9 JUMP JUMPDEST PUSH1 0x0 DUP2 PUSH1 0x40 MLOAD PUSH1 0x20 ADD PUSH3 0x7DC SWAP2 SWAP1 PUSH3 0x99F JUMP JUMPDEST PUSH1 0x40 MLOAD PUSH1 0x20 DUP2 DUP4 SUB SUB DUP2 MSTORE SWAP1 PUSH1 0x40 MSTORE DUP1 MLOAD SWAP1 PUSH1 0x20 ADD KECCAK256 SWAP1 POP SWAP2 SWAP1 POP JUMP JUMPDEST DUP3 DUP1 SLOAD PUSH3 0x807 SWAP1 PUSH3 0xA1B JUMP JUMPDEST SWAP1 PUSH1 0x0 MSTORE PUSH1 0x20 PUSH1 0x0 KECCAK256 SWAP1 PUSH1 0x1F ADD PUSH1 0x20 SWAP1 DIV DUP2 ADD SWAP3 DUP3 PUSH3 0x82B JUMPI PUSH1 0x0 DUP6 SSTORE PUSH3 0x877 JUMP JUMPDEST DUP3 PUSH1 0x1F LT PUSH3 0x846 JUMPI DUP1 MLOAD PUSH1 0xFF NOT AND DUP4 DUP1 ADD OR DUP6 SSTORE PUSH3 0x877 JUMP JUMPDEST DUP3 DUP1 ADD PUSH1 0x1 ADD DUP6 SSTORE DUP3 ISZERO PUSH3 0x877 JUMPI SWAP2 DUP3 ADD JUMPDEST DUP3 DUP2 GT ISZERO PUSH3 0x876 JUMPI DUP3 MLOAD DUP3 SSTORE SWAP2 PUSH1 0x20 ADD SWAP2 SWAP1 PUSH1 0x1 ADD SWAP1 PUSH3 0x859 JUMP JUMPDEST JUMPDEST POP SWAP1 POP PUSH3 0x886 SWAP2 SWAP1 PUSH3 0x922 JUMP JUMPDEST POP SWAP1 JUMP JUMPDEST DUP3 DUP1 SLOAD PUSH3 0x898 SWAP1 PUSH3 0xA1B JUMP JUMPDEST SWAP1 PUSH1 0x0 MSTORE PUSH1 0x20 PUSH1 0x0 KECCAK256 SWAP1 PUSH1 0x1F ADD PUSH1 0x20 SWAP1 DIV DUP2 ADD SWAP3 DUP3 PUSH3 0x8BC JUMPI PUSH1 0x0 DUP6 SSTORE PUSH3 0x90F JUMP JUMPDEST DUP3 PUSH1 0x1F LT PUSH3 0x8CF JUMPI DUP1 SLOAD DUP6 SSTORE PUSH3 0x90F JUMP JUMPDEST DUP3 DUP1 ADD PUSH1 0x1 ADD DUP6 SSTORE DUP3 ISZERO PUSH3 0x90F JUMPI PUSH1 0x0 MSTORE PUSH1 0x20 PUSH1 0x0 KECCAK256 SWAP2 PUSH1 0x1F ADD PUSH1 0x20 SWAP1 DIV DUP3 ADD JUMPDEST DUP3 DUP2 GT ISZERO PUSH3 0x90E JUMPI DUP3 SLOAD DUP3 SSTORE SWAP2 PUSH1 0x1 ADD SWAP2 SWAP1 PUSH1 0x1 ADD SWAP1 PUSH3 0x8F1 JUMP JUMPDEST JUMPDEST POP SWAP1 POP PUSH3 0x91E SWAP2 SWAP1 PUSH3 0x922 JUMP JUMPDEST POP SWAP1 JUMP JUMPDEST JUMPDEST DUP1 DUP3 GT ISZERO PUSH3 0x93D JUMPI PUSH1 0x0 DUP2 PUSH1 0x0 SWAP1 SSTORE POP PUSH1 0x1 ADD PUSH3 0x923 JUMP JUMPDEST POP SWAP1 JUMP JUMPDEST PUSH1 0x0 PUSH3 0x94E DUP3 PUSH3 0x9CF JUMP JUMPDEST PUSH3 0x95A DUP2 DUP6 PUSH3 0x9DA JUMP JUMPDEST SWAP4 POP PUSH3 0x96C DUP2 DUP6 PUSH1 0x20 DUP7 ADD PUSH3 0x9E5 JUMP JUMPDEST DUP1 DUP5 ADD SWAP2 POP POP SWAP3 SWAP2 POP POP JUMP JUMPDEST PUSH1 0x0 PUSH3 0x987 PUSH1 0x4 DUP4 PUSH3 0x9DA JUMP JUMPDEST SWAP2 POP PUSH3 0x994 DUP3 PUSH3 0xA80 JUMP JUMPDEST PUSH1 0x4 DUP3 ADD SWAP1 POP SWAP2 SWAP1 POP JUMP JUMPDEST PUSH1 0x0 PUSH3 0x9AD DUP3 DUP5 PUSH3 0x941 JUMP JUMPDEST SWAP2 POP DUP2 SWAP1 POP SWAP3 SWAP2 POP POP JUMP JUMPDEST PUSH1 0x0 PUSH3 0x9C5 DUP3 PUSH3 0x978 JUMP JUMPDEST SWAP2 POP DUP2 SWAP1 POP SWAP2 SWAP1 POP JUMP JUMPDEST PUSH1 0x0 DUP2 MLOAD SWAP1 POP SWAP2 SWAP1 POP JUMP JUMPDEST PUSH1 0x0 DUP2 SWAP1 POP SWAP3 SWAP2 POP POP JUMP JUMPDEST PUSH1 0x0 JUMPDEST DUP4 DUP2 LT ISZERO PUSH3 0xA05 JUMPI DUP1 DUP3 ADD MLOAD DUP2 DUP5 ADD MSTORE PUSH1 0x20 DUP2 ADD SWAP1 POP PUSH3 0x9E8 JUMP JUMPDEST DUP4 DUP2 GT ISZERO PUSH3 0xA15 JUMPI PUSH1 0x0 DUP5 DUP5 ADD MSTORE JUMPDEST POP POP POP POP JUMP JUMPDEST PUSH1 0x0 PUSH1 0x2 DUP3 DIV SWAP1 POP PUSH1 0x1 DUP3 AND DUP1 PUSH3 0xA34 JUMPI PUSH1 0x7F DUP3 AND SWAP2 POP JUMPDEST PUSH1 0x20 DUP3 LT DUP2 EQ ISZERO PUSH3 0xA4B JUMPI PUSH3 0xA4A PUSH3 0xA51 JUMP JUMPDEST JUMPDEST POP SWAP2 SWAP1 POP JUMP JUMPDEST PUSH32 0x4E487B7100000000000000000000000000000000000000000000000000000000 PUSH1 0x0 MSTORE PUSH1 0x22 PUSH1 0x4 MSTORE PUSH1 0x24 PUSH1 0x0 REVERT JUMPDEST PUSH32 0x5065746100000000000000000000000000000000000000000000000000000000 PUSH1 0x0 DUP3 ADD MSTORE POP JUMP JUMPDEST PUSH2 0x34BA DUP1 PUSH3 0xAB9 PUSH1 0x0 CODECOPY PUSH1 0x0 RETURN INVALID PUSH1 0x80 PUSH1 0x40 MSTORE CALLVALUE DUP1 ISZERO PUSH2 0x10 JUMPI PUSH1 0x0 DUP1 REVERT JUMPDEST POP PUSH1 0x4 CALLDATASIZE LT PUSH2 0x158 JUMPI PUSH1 0x0 CALLDATALOAD PUSH1 0xE0 SHR DUP1 PUSH4 0x961865F0 GT PUSH2 0xC3 JUMPI DUP1 PUSH4 0xC4957FA0 GT PUSH2 0x7C JUMPI DUP1 PUSH4 0xC4957FA0 EQ PUSH2 0x401 JUMPI DUP1 PUSH4 0xCC21C188 EQ PUSH2 0x431 JUMPI DUP1 PUSH4 0xD22D9020 EQ PUSH2 0x44D JUMPI DUP1 PUSH4 0xD68CF8C1 EQ PUSH2 0x469 JUMPI DUP1 PUSH4 0xDCE39151 EQ PUSH2 0x49C JUMPI DUP1 PUSH4 0xF69483C1 EQ PUSH2 0x4CE JUMPI PUSH2 0x158 JUMP JUMPDEST DUP1 PUSH4 0x961865F0 EQ PUSH2 0x301 JUMPI DUP1 PUSH4 0xA985036D EQ PUSH2 0x335 JUMPI DUP1 PUSH4 0xA9F9482B EQ PUSH2 0x365 JUMPI DUP1 PUSH4 0xBBD43363 EQ PUSH2 0x397 JUMPI DUP1 PUSH4 0xC178B9AF EQ PUSH2 0x3B3 JUMPI DUP1 PUSH4 0xC26DA2F8 EQ PUSH2 0x3D1 JUMPI PUSH2 0x158 JUMP JUMPDEST DUP1 PUSH4 0x2D4673E3 GT PUSH2 0x115 JUMPI DUP1 PUSH4 0x2D4673E3 EQ PUSH2 0x219 JUMPI DUP1 PUSH4 0x34D2C0AD EQ PUSH2 0x235 JUMPI DUP1 PUSH4 0x6BA44D3C EQ PUSH2 0x253 JUMPI DUP1 PUSH4 0x6C05DD1D EQ PUSH2 0x283 JUMPI DUP1 PUSH4 0x7DDB273D EQ PUSH2 0x29F JUMPI DUP1 PUSH4 0x845952A8 EQ PUSH2 0x2D1 JUMPI PUSH2 0x158 JUMP JUMPDEST DUP1 PUSH4 0xC72B1EC EQ PUSH2 0x15D JUMPI DUP1 PUSH4 0xE1C81B2 EQ PUSH2 0x179 JUMPI DUP1 PUSH4 0x146DC6ED EQ PUSH2 0x195 JUMPI DUP1 PUSH4 0x1BBE970A EQ PUSH2 0x1B1 JUMPI DUP1 PUSH4 0x29E795F3 EQ PUSH2 0x1E1 JUMPI DUP1 PUSH4 0x2CCDEF7C EQ PUSH2 0x1FD JUMPI JUMPDEST PUSH1 0x0 DUP1 REVERT JUMPDEST PUSH2 0x177 PUSH1 0x4 DUP1 CALLDATASIZE SUB DUP2 ADD SWAP1 PUSH2 0x172 SWAP2 SWAP1 PUSH2 0x299B JUMP JUMPDEST PUSH2 0x4EA JUMP JUMPDEST STOP JUMPDEST PUSH2 0x193 PUSH1 0x4 DUP1 CALLDATASIZE SUB DUP2 ADD SWAP1 PUSH2 0x18E SWAP2 SWAP1 PUSH2 0x26CC JUMP JUMPDEST PUSH2 0x7B7 JUMP JUMPDEST STOP JUMPDEST PUSH2 0x1AF PUSH1 0x4 DUP1 CALLDATASIZE SUB DUP2 ADD SWAP1 PUSH2 0x1AA SWAP2 SWAP1 PUSH2 0x273B JUMP JUMPDEST PUSH2 0x9F3 JUMP JUMPDEST STOP JUMPDEST PUSH2 0x1CB PUSH1 0x4 DUP1 CALLDATASIZE SUB DUP2 ADD SWAP1 PUSH2 0x1C6 SWAP2 SWAP1 PUSH2 0x273B JUMP JUMPDEST PUSH2 0xB81 JUMP JUMPDEST PUSH1 0x40 MLOAD PUSH2 0x1D8 SWAP2 SWAP1 PUSH2 0x2CC2 JUMP JUMPDEST PUSH1 0x40 MLOAD DUP1 SWAP2 SUB SWAP1 RETURN JUMPDEST PUSH2 0x1FB PUSH1 0x4 DUP1 CALLDATASIZE SUB DUP2 ADD SWAP1 PUSH2 0x1F6 SWAP2 SWAP1 PUSH2 0x2784 JUMP JUMPDEST PUSH2 0xBCA JUMP JUMPDEST STOP JUMPDEST PUSH2 0x217 PUSH1 0x4 DUP1 CALLDATASIZE SUB DUP2 ADD SWAP1 PUSH2 0x212 SWAP2 SWAP1 PUSH2 0x299B JUMP JUMPDEST PUSH2 0xD34 JUMP JUMPDEST STOP JUMPDEST PUSH2 0x233 PUSH1 0x4 DUP1 CALLDATASIZE SUB DUP2 ADD SWAP1 PUSH2 0x22E SWAP2 SWAP1 PUSH2 0x273B JUMP JUMPDEST PUSH2 0xF2A JUMP JUMPDEST STOP JUMPDEST PUSH2 0x23D PUSH2 0x1012 JUMP JUMPDEST PUSH1 0x40 MLOAD PUSH2 0x24A SWAP2 SWAP1 PUSH2 0x2D67 JUMP JUMPDEST PUSH1 0x40 MLOAD DUP1 SWAP2 SUB SWAP1 RETURN JUMPDEST PUSH2 0x26D PUSH1 0x4 DUP1 CALLDATASIZE SUB DUP2 ADD SWAP1 PUSH2 0x268 SWAP2 SWAP1 PUSH2 0x273B JUMP JUMPDEST PUSH2 0x10EB JUMP JUMPDEST PUSH1 0x40 MLOAD PUSH2 0x27A SWAP2 SWAP1 PUSH2 0x2CC2 JUMP JUMPDEST PUSH1 0x40 MLOAD DUP1 SWAP2 SUB SWAP1 RETURN JUMPDEST PUSH2 0x29D PUSH1 0x4 DUP1 CALLDATASIZE SUB DUP2 ADD SWAP1 PUSH2 0x298 SWAP2 SWAP1 PUSH2 0x28E3 JUMP JUMPDEST PUSH2 0x1133 JUMP JUMPDEST STOP JUMPDEST PUSH2 0x2B9 PUSH1 0x4 DUP1 CALLDATASIZE SUB DUP2 ADD SWAP1 PUSH2 0x2B4 SWAP2 SWAP1 PUSH2 0x296E JUMP JUMPDEST PUSH2 0x125E JUMP JUMPDEST PUSH1 0x40 MLOAD PUSH2 0x2C8 SWAP4 SWAP3 SWAP2 SWAP1 PUSH2 0x2CDD JUMP JUMPDEST PUSH1 0x40 MLOAD DUP1 SWAP2 SUB SWAP1 RETURN JUMPDEST PUSH2 0x2EB PUSH1 0x4 DUP1 CALLDATASIZE SUB DUP2 ADD SWAP1 PUSH2 0x2E6 SWAP2 SWAP1 PUSH2 0x273B JUMP JUMPDEST PUSH2 0x134D JUMP JUMPDEST PUSH1 0x40 MLOAD PUSH2 0x2F8 SWAP2 SWAP1 PUSH2 0x2DA4 JUMP JUMPDEST PUSH1 0x40 MLOAD DUP1 SWAP2 SUB SWAP1 RETURN JUMPDEST PUSH2 0x31B PUSH1 0x4 DUP1 CALLDATASIZE SUB DUP2 ADD SWAP1 PUSH2 0x316 SWAP2 SWAP1 PUSH2 0x269F JUMP JUMPDEST PUSH2 0x137D JUMP JUMPDEST PUSH1 0x40 MLOAD PUSH2 0x32C SWAP6 SWAP5 SWAP4 SWAP3 SWAP2 SWAP1 PUSH2 0x2DBF JUMP JUMPDEST PUSH1 0x40 MLOAD DUP1 SWAP2 SUB SWAP1 RETURN JUMPDEST PUSH2 0x34F PUSH1 0x4 DUP1 CALLDATASIZE SUB DUP2 ADD SWAP1 PUSH2 0x34A SWAP2 SWAP1 PUSH2 0x273B JUMP JUMPDEST PUSH2 0x1448 JUMP JUMPDEST PUSH1 0x40 MLOAD PUSH2 0x35C SWAP2 SWAP1 PUSH2 0x2ED9 JUMP JUMPDEST PUSH1 0x40 MLOAD DUP1 SWAP2 SUB SWAP1 RETURN JUMPDEST PUSH2 0x37F PUSH1 0x4 DUP1 CALLDATASIZE SUB DUP2 ADD SWAP1 PUSH2 0x37A SWAP2 SWAP1 PUSH2 0x296E JUMP JUMPDEST PUSH2 0x1668 JUMP JUMPDEST PUSH1 0x40 MLOAD PUSH2 0x38E SWAP4 SWAP3 SWAP2 SWAP1 PUSH2 0x2CDD JUMP JUMPDEST PUSH1 0x40 MLOAD DUP1 SWAP2 SUB SWAP1 RETURN JUMPDEST PUSH2 0x3B1 PUSH1 0x4 DUP1 CALLDATASIZE SUB DUP2 ADD SWAP1 PUSH2 0x3AC SWAP2 SWAP1 PUSH2 0x273B JUMP JUMPDEST PUSH2 0x1757 JUMP JUMPDEST STOP JUMPDEST PUSH2 0x3BB PUSH2 0x183F JUMP JUMPDEST PUSH1 0x40 MLOAD PUSH2 0x3C8 SWAP2 SWAP1 PUSH2 0x2D67 JUMP JUMPDEST PUSH1 0x40 MLOAD DUP1 SWAP2 SUB SWAP1 RETURN JUMPDEST PUSH2 0x3EB PUSH1 0x4 DUP1 CALLDATASIZE SUB DUP2 ADD SWAP1 PUSH2 0x3E6 SWAP2 SWAP1 PUSH2 0x273B JUMP JUMPDEST PUSH2 0x1918 JUMP JUMPDEST PUSH1 0x40 MLOAD PUSH2 0x3F8 SWAP2 SWAP1 PUSH2 0x2D89 JUMP JUMPDEST PUSH1 0x40 MLOAD DUP1 SWAP2 SUB SWAP1 RETURN JUMPDEST PUSH2 0x41B PUSH1 0x4 DUP1 CALLDATASIZE SUB DUP2 ADD SWAP1 PUSH2 0x416 SWAP2 SWAP1 PUSH2 0x273B JUMP JUMPDEST PUSH2 0x19AF JUMP JUMPDEST PUSH1 0x40 MLOAD PUSH2 0x428 SWAP2 SWAP1 PUSH2 0x2CC2 JUMP JUMPDEST PUSH1 0x40 MLOAD DUP1 SWAP2 SUB SWAP1 RETURN JUMPDEST PUSH2 0x44B PUSH1 0x4 DUP1 CALLDATASIZE SUB DUP2 ADD SWAP1 PUSH2 0x446 SWAP2 SWAP1 PUSH2 0x2858 JUMP JUMPDEST PUSH2 0x19F8 JUMP JUMPDEST STOP JUMPDEST PUSH2 0x467 PUSH1 0x4 DUP1 CALLDATASIZE SUB DUP2 ADD SWAP1 PUSH2 0x462 SWAP2 SWAP1 PUSH2 0x27FC JUMP JUMPDEST PUSH2 0x1D04 JUMP JUMPDEST STOP JUMPDEST PUSH2 0x483 PUSH1 0x4 DUP1 CALLDATASIZE SUB DUP2 ADD SWAP1 PUSH2 0x47E SWAP2 SWAP1 PUSH2 0x273B JUMP JUMPDEST PUSH2 0x1FE5 JUMP JUMPDEST PUSH1 0x40 MLOAD PUSH2 0x493 SWAP5 SWAP4 SWAP3 SWAP2 SWAP1 PUSH2 0x2D1B JUMP JUMPDEST PUSH1 0x40 MLOAD DUP1 SWAP2 SUB SWAP1 RETURN JUMPDEST PUSH2 0x4B6 PUSH1 0x4 DUP1 CALLDATASIZE SUB DUP2 ADD SWAP1 PUSH2 0x4B1 SWAP2 SWAP1 PUSH2 0x296E JUMP JUMPDEST PUSH2 0x20D3 JUMP JUMPDEST PUSH1 0x40 MLOAD PUSH2 0x4C5 SWAP4 SWAP3 SWAP2 SWAP1 PUSH2 0x2CDD JUMP JUMPDEST PUSH1 0x40 MLOAD DUP1 SWAP2 SUB SWAP1 RETURN JUMPDEST PUSH2 0x4E8 PUSH1 0x4 DUP1 CALLDATASIZE SUB DUP2 ADD SWAP1 PUSH2 0x4E3 SWAP2 SWAP1 PUSH2 0x299B JUMP JUMPDEST PUSH2 0x21C2 JUMP JUMPDEST STOP JUMPDEST PUSH1 0x1 ISZERO ISZERO DUP2 ISZERO ISZERO EQ ISZERO PUSH2 0x774 JUMPI PUSH1 0x0 PUSH1 0xA DUP4 DUP2 SLOAD DUP2 LT PUSH2 0x50D JUMPI PUSH2 0x50C PUSH2 0x3284 JUMP JUMPDEST JUMPDEST SWAP1 PUSH1 0x0 MSTORE PUSH1 0x20 PUSH1 0x0 KECCAK256 SWAP1 PUSH1 0x3 MUL ADD PUSH1 0x2 ADD PUSH1 0x0 PUSH2 0x100 EXP DUP2 SLOAD DUP2 PUSH1 0xFF MUL NOT AND SWAP1 DUP4 ISZERO ISZERO MUL OR SWAP1 SSTORE POP PUSH1 0x8 PUSH1 0xA DUP4 DUP2 SLOAD DUP2 LT PUSH2 0x54B JUMPI PUSH2 0x54A PUSH2 0x3284 JUMP JUMPDEST JUMPDEST SWAP1 PUSH1 0x0 MSTORE PUSH1 0x20 PUSH1 0x0 KECCAK256 SWAP1 PUSH1 0x3 MUL ADD PUSH1 0x1 ADD PUSH1 0x40 MLOAD PUSH2 0x569 SWAP2 SWAP1 PUSH2 0x2CAB JUMP JUMPDEST SWAP1 DUP2 MSTORE PUSH1 0x20 ADD PUSH1 0x40 MLOAD DUP1 SWAP2 SUB SWAP1 KECCAK256 PUSH1 0x2 ADD SLOAD PUSH1 0x4 PUSH1 0x0 PUSH1 0xA DUP6 DUP2 SLOAD DUP2 LT PUSH2 0x593 JUMPI PUSH2 0x592 PUSH2 0x3284 JUMP JUMPDEST JUMPDEST SWAP1 PUSH1 0x0 MSTORE PUSH1 0x20 PUSH1 0x0 KECCAK256 SWAP1 PUSH1 0x3 MUL ADD PUSH1 0x0 ADD PUSH1 0x0 SWAP1 SLOAD SWAP1 PUSH2 0x100 EXP SWAP1 DIV PUSH20 0xFFFFFFFFFFFFFFFFFFFFFFFFFFFFFFFFFFFFFFFF AND PUSH20 0xFFFFFFFFFFFFFFFFFFFFFFFFFFFFFFFFFFFFFFFF AND PUSH20 0xFFFFFFFFFFFFFFFFFFFFFFFFFFFFFFFFFFFFFFFF AND DUP2 MSTORE PUSH1 0x20 ADD SWAP1 DUP2 MSTORE PUSH1 0x20 ADD PUSH1 0x0 KECCAK256 PUSH1 0x2 ADD SLOAD PUSH2 0x60D SWAP2 SWAP1 PUSH2 0x3083 JUMP JUMPDEST PUSH1 0x4 PUSH1 0x0 PUSH1 0xA DUP6 DUP2 SLOAD DUP2 LT PUSH2 0x625 JUMPI PUSH2 0x624 PUSH2 0x3284 JUMP JUMPDEST JUMPDEST SWAP1 PUSH1 0x0 MSTORE PUSH1 0x20 PUSH1 0x0 KECCAK256 SWAP1 PUSH1 0x3 MUL ADD PUSH1 0x0 ADD PUSH1 0x0 SWAP1 SLOAD SWAP1 PUSH2 0x100 EXP SWAP1 DIV PUSH20 0xFFFFFFFFFFFFFFFFFFFFFFFFFFFFFFFFFFFFFFFF AND PUSH20 0xFFFFFFFFFFFFFFFFFFFFFFFFFFFFFFFFFFFFFFFF AND PUSH20 0xFFFFFFFFFFFFFFFFFFFFFFFFFFFFFFFFFFFFFFFF AND DUP2 MSTORE PUSH1 0x20 ADD SWAP1 DUP2 MSTORE PUSH1 0x20 ADD PUSH1 0x0 KECCAK256 PUSH1 0x2 ADD DUP2 SWAP1 SSTORE POP PUSH1 0x8 PUSH1 0xA DUP4 DUP2 SLOAD DUP2 LT PUSH2 0x6AE JUMPI PUSH2 0x6AD PUSH2 0x3284 JUMP JUMPDEST JUMPDEST SWAP1 PUSH1 0x0 MSTORE PUSH1 0x20 PUSH1 0x0 KECCAK256 SWAP1 PUSH1 0x3 MUL ADD PUSH1 0x1 ADD PUSH1 0x40 MLOAD PUSH2 0x6CC SWAP2 SWAP1 PUSH2 0x2CAB JUMP JUMPDEST SWAP1 DUP2 MSTORE PUSH1 0x20 ADD PUSH1 0x40 MLOAD DUP1 SWAP2 SUB SWAP1 KECCAK256 PUSH1 0x2 ADD SLOAD PUSH1 0x0 DUP1 CALLER PUSH20 0xFFFFFFFFFFFFFFFFFFFFFFFFFFFFFFFFFFFFFFFF AND PUSH20 0xFFFFFFFFFFFFFFFFFFFFFFFFFFFFFFFFFFFFFFFF AND DUP2 MSTORE PUSH1 0x20 ADD SWAP1 DUP2 MSTORE PUSH1 0x20 ADD PUSH1 0x0 KECCAK256 PUSH1 0x4 ADD SLOAD PUSH2 0x72A SWAP2 SWAP1 PUSH2 0x2FFC JUMP JUMPDEST PUSH1 0x0 DUP1 CALLER PUSH20 0xFFFFFFFFFFFFFFFFFFFFFFFFFFFFFFFFFFFFFFFF AND PUSH20 0xFFFFFFFFFFFFFFFFFFFFFFFFFFFFFFFFFFFFFFFF AND DUP2 MSTORE PUSH1 0x20 ADD SWAP1 DUP2 MSTORE PUSH1 0x20 ADD PUSH1 0x0 KECCAK256 PUSH1 0x4 ADD DUP2 SWAP1 SSTORE POP PUSH2 0x7B3 JUMP JUMPDEST PUSH1 0x0 PUSH1 0xA DUP4 DUP2 SLOAD DUP2 LT PUSH2 0x78A JUMPI PUSH2 0x789 PUSH2 0x3284 JUMP JUMPDEST JUMPDEST SWAP1 PUSH1 0x0 MSTORE PUSH1 0x20 PUSH1 0x0 KECCAK256 SWAP1 PUSH1 0x3 MUL ADD PUSH1 0x2 ADD PUSH1 0x0 PUSH2 0x100 EXP DUP2 SLOAD DUP2 PUSH1 0xFF MUL NOT AND SWAP1 DUP4 ISZERO ISZERO MUL OR SWAP1 SSTORE POP JUMPDEST POP POP JUMP JUMPDEST PUSH1 0x0 PUSH20 0xFFFFFFFFFFFFFFFFFFFFFFFFFFFFFFFFFFFFFFFF AND PUSH1 0x5 DUP4 PUSH1 0x40 MLOAD PUSH2 0x7DF SWAP2 SWAP1 PUSH2 0x2C94 JUMP JUMPDEST SWAP1 DUP2 MSTORE PUSH1 0x20 ADD PUSH1 0x40 MLOAD DUP1 SWAP2 SUB SWAP1 KECCAK256 PUSH1 0x0 SWAP1 SLOAD SWAP1 PUSH2 0x100 EXP SWAP1 DIV PUSH20 0xFFFFFFFFFFFFFFFFFFFFFFFFFFFFFFFFFFFFFFFF AND PUSH20 0xFFFFFFFFFFFFFFFFFFFFFFFFFFFFFFFFFFFFFFFF AND EQ PUSH2 0x864 JUMPI PUSH1 0x40 MLOAD PUSH32 0x8C379A000000000000000000000000000000000000000000000000000000000 DUP2 MSTORE PUSH1 0x4 ADD PUSH2 0x85B SWAP1 PUSH2 0x2E19 JUMP JUMPDEST PUSH1 0x40 MLOAD DUP1 SWAP2 SUB SWAP1 REVERT JUMPDEST PUSH1 0x40 MLOAD DUP1 PUSH1 0xA0 ADD PUSH1 0x40 MSTORE DUP1 DUP4 DUP2 MSTORE PUSH1 0x20 ADD DUP3 DUP2 MSTORE PUSH1 0x20 ADD PUSH2 0x3E8 DUP2 MSTORE PUSH1 0x20 ADD PUSH1 0x0 DUP2 MSTORE PUSH1 0x20 ADD PUSH1 0x0 ISZERO ISZERO DUP2 MSTORE POP PUSH1 0x4 PUSH1 0x0 DUP6 PUSH20 0xFFFFFFFFFFFFFFFFFFFFFFFFFFFFFFFFFFFFFFFF AND PUSH20 0xFFFFFFFFFFFFFFFFFFFFFFFFFFFFFFFFFFFFFFFF AND DUP2 MSTORE PUSH1 0x20 ADD SWAP1 DUP2 MSTORE PUSH1 0x20 ADD PUSH1 0x0 KECCAK256 PUSH1 0x0 DUP3 ADD MLOAD DUP2 PUSH1 0x0 ADD SWAP1 DUP1 MLOAD SWAP1 PUSH1 0x20 ADD SWAP1 PUSH2 0x8EC SWAP3 SWAP2 SWAP1 PUSH2 0x23B8 JUMP JUMPDEST POP PUSH1 0x20 DUP3 ADD MLOAD DUP2 PUSH1 0x1 ADD SSTORE PUSH1 0x40 DUP3 ADD MLOAD DUP2 PUSH1 0x2 ADD SSTORE PUSH1 0x60 DUP3 ADD MLOAD DUP2 PUSH1 0x3 ADD SSTORE PUSH1 0x80 DUP3 ADD MLOAD DUP2 PUSH1 0x4 ADD PUSH1 0x0 PUSH2 0x100 EXP DUP2 SLOAD DUP2 PUSH1 0xFF MUL NOT AND SWAP1 DUP4 ISZERO ISZERO MUL OR SWAP1 SSTORE POP SWAP1 POP POP DUP3 PUSH1 0x5 DUP4 PUSH1 0x40 MLOAD PUSH2 0x93F SWAP2 SWAP1 PUSH2 0x2C94 JUMP JUMPDEST SWAP1 DUP2 MSTORE PUSH1 0x20 ADD PUSH1 0x40 MLOAD DUP1 SWAP2 SUB SWAP1 KECCAK256 PUSH1 0x0 PUSH2 0x100 EXP DUP2 SLOAD DUP2 PUSH20 0xFFFFFFFFFFFFFFFFFFFFFFFFFFFFFFFFFFFFFFFF MUL NOT AND SWAP1 DUP4 PUSH20 0xFFFFFFFFFFFFFFFFFFFFFFFFFFFFFFFFFFFFFFFF AND MUL OR SWAP1 SSTORE POP PUSH1 0x7 DUP4 SWAP1 DUP1 PUSH1 0x1 DUP2 SLOAD ADD DUP1 DUP3 SSTORE DUP1 SWAP2 POP POP PUSH1 0x1 SWAP1 SUB SWAP1 PUSH1 0x0 MSTORE PUSH1 0x20 PUSH1 0x0 KECCAK256 ADD PUSH1 0x0 SWAP1 SWAP2 SWAP1 SWAP2 SWAP1 SWAP2 PUSH2 0x100 EXP DUP2 SLOAD DUP2 PUSH20 0xFFFFFFFFFFFFFFFFFFFFFFFFFFFFFFFFFFFFFFFF MUL NOT AND SWAP1 DUP4 PUSH20 0xFFFFFFFFFFFFFFFFFFFFFFFFFFFFFFFFFFFFFFFF AND MUL OR SWAP1 SSTORE POP POP POP POP JUMP JUMPDEST PUSH1 0x8 DUP2 PUSH1 0x40 MLOAD PUSH2 0xA03 SWAP2 SWAP1 PUSH2 0x2C94 JUMP JUMPDEST SWAP1 DUP2 MSTORE PUSH1 0x20 ADD PUSH1 0x40 MLOAD DUP1 SWAP2 SUB SWAP1 KECCAK256 PUSH1 0x2 ADD SLOAD PUSH1 0x4 PUSH1 0x0 CALLER PUSH20 0xFFFFFFFFFFFFFFFFFFFFFFFFFFFFFFFFFFFFFFFF AND PUSH20 0xFFFFFFFFFFFFFFFFFFFFFFFFFFFFFFFFFFFFFFFF AND DUP2 MSTORE PUSH1 0x20 ADD SWAP1 DUP2 MSTORE PUSH1 0x20 ADD PUSH1 0x0 KECCAK256 PUSH1 0x2 ADD SLOAD LT ISZERO PUSH2 0xA99 JUMPI PUSH1 0x40 MLOAD PUSH32 0x8C379A000000000000000000000000000000000000000000000000000000000 DUP2 MSTORE PUSH1 0x4 ADD PUSH2 0xA90 SWAP1 PUSH2 0x2E79 JUMP JUMPDEST PUSH1 0x40 MLOAD DUP1 SWAP2 SUB SWAP1 REVERT JUMPDEST PUSH1 0xA PUSH1 0x40 MLOAD DUP1 PUSH1 0x60 ADD PUSH1 0x40 MSTORE DUP1 CALLER PUSH20 0xFFFFFFFFFFFFFFFFFFFFFFFFFFFFFFFFFFFFFFFF AND DUP2 MSTORE PUSH1 0x20 ADD DUP4 DUP2 MSTORE PUSH1 0x20 ADD PUSH1 0x1 ISZERO ISZERO DUP2 MSTORE POP SWAP1 DUP1 PUSH1 0x1 DUP2 SLOAD ADD DUP1 DUP3 SSTORE DUP1 SWAP2 POP POP PUSH1 0x1 SWAP1 SUB SWAP1 PUSH1 0x0 MSTORE PUSH1 0x20 PUSH1 0x0 KECCAK256 SWAP1 PUSH1 0x3 MUL ADD PUSH1 0x0 SWAP1 SWAP2 SWAP1 SWAP2 SWAP1 SWAP2 POP PUSH1 0x0 DUP3 ADD MLOAD DUP2 PUSH1 0x0 ADD PUSH1 0x0 PUSH2 0x100 EXP DUP2 SLOAD DUP2 PUSH20 0xFFFFFFFFFFFFFFFFFFFFFFFFFFFFFFFFFFFFFFFF MUL NOT AND SWAP1 DUP4 PUSH20 0xFFFFFFFFFFFFFFFFFFFFFFFFFFFFFFFFFFFFFFFF AND MUL OR SWAP1 SSTORE POP PUSH1 0x20 DUP3 ADD MLOAD DUP2 PUSH1 0x1 ADD SWAP1 DUP1 MLOAD SWAP1 PUSH1 0x20 ADD SWAP1 PUSH2 0xB5B SWAP3 SWAP2 SWAP1 PUSH2 0x23B8 JUMP JUMPDEST POP PUSH1 0x40 DUP3 ADD MLOAD DUP2 PUSH1 0x2 ADD PUSH1 0x0 PUSH2 0x100 EXP DUP2 SLOAD DUP2 PUSH1 0xFF MUL NOT AND SWAP1 DUP4 ISZERO ISZERO MUL OR SWAP1 SSTORE POP POP POP POP JUMP JUMPDEST PUSH1 0x5 DUP2 DUP1 MLOAD PUSH1 0x20 DUP2 ADD DUP3 ADD DUP1 MLOAD DUP5 DUP3 MSTORE PUSH1 0x20 DUP4 ADD PUSH1 0x20 DUP6 ADD KECCAK256 DUP2 DUP4 MSTORE DUP1 SWAP6 POP POP POP POP POP POP PUSH1 0x0 SWAP2 POP SLOAD SWAP1 PUSH2 0x100 EXP SWAP1 DIV PUSH20 0xFFFFFFFFFFFFFFFFFFFFFFFFFFFFFFFFFFFFFFFF AND DUP2 JUMP JUMPDEST PUSH1 0x0 JUMPDEST PUSH1 0x3 DUP1 SLOAD SWAP1 POP DUP2 LT ISZERO PUSH2 0xD2F JUMPI PUSH1 0x0 PUSH1 0x3 DUP3 DUP2 SLOAD DUP2 LT PUSH2 0xBF0 JUMPI PUSH2 0xBEF PUSH2 0x3284 JUMP JUMPDEST JUMPDEST SWAP1 PUSH1 0x0 MSTORE PUSH1 0x20 PUSH1 0x0 KECCAK256 SWAP1 PUSH1 0x5 MUL ADD PUSH1 0x1 ADD DUP1 SLOAD PUSH2 0xC0C SWAP1 PUSH2 0x314B JUMP JUMPDEST DUP1 PUSH1 0x1F ADD PUSH1 0x20 DUP1 SWAP2 DIV MUL PUSH1 0x20 ADD PUSH1 0x40 MLOAD SWAP1 DUP2 ADD PUSH1 0x40 MSTORE DUP1 SWAP3 SWAP2 SWAP1 DUP2 DUP2 MSTORE PUSH1 0x20 ADD DUP3 DUP1 SLOAD PUSH2 0xC38 SWAP1 PUSH2 0x314B JUMP JUMPDEST DUP1 ISZERO PUSH2 0xC85 JUMPI DUP1 PUSH1 0x1F LT PUSH2 0xC5A JUMPI PUSH2 0x100 DUP1 DUP4 SLOAD DIV MUL DUP4 MSTORE SWAP2 PUSH1 0x20 ADD SWAP2 PUSH2 0xC85 JUMP JUMPDEST DUP3 ADD SWAP2 SWAP1 PUSH1 0x0 MSTORE PUSH1 0x20 PUSH1 0x0 KECCAK256 SWAP1 JUMPDEST DUP2 SLOAD DUP2 MSTORE SWAP1 PUSH1 0x1 ADD SWAP1 PUSH1 0x20 ADD DUP1 DUP4 GT PUSH2 0xC68 JUMPI DUP3 SWAP1 SUB PUSH1 0x1F AND DUP3 ADD SWAP2 JUMPDEST POP POP POP POP POP SWAP1 POP DUP4 PUSH1 0x40 MLOAD PUSH1 0x20 ADD PUSH2 0xC9D SWAP2 SWAP1 PUSH2 0x2C94 JUMP JUMPDEST PUSH1 0x40 MLOAD PUSH1 0x20 DUP2 DUP4 SUB SUB DUP2 MSTORE SWAP1 PUSH1 0x40 MSTORE DUP1 MLOAD SWAP1 PUSH1 0x20 ADD KECCAK256 DUP2 PUSH1 0x40 MLOAD PUSH1 0x20 ADD PUSH2 0xCC4 SWAP2 SWAP1 PUSH2 0x2C94 JUMP JUMPDEST PUSH1 0x40 MLOAD PUSH1 0x20 DUP2 DUP4 SUB SUB DUP2 MSTORE SWAP1 PUSH1 0x40 MSTORE DUP1 MLOAD SWAP1 PUSH1 0x20 ADD KECCAK256 EQ ISZERO PUSH2 0xD1B JUMPI DUP3 PUSH1 0x3 DUP4 DUP2 SLOAD DUP2 LT PUSH2 0xCF5 JUMPI PUSH2 0xCF4 PUSH2 0x3284 JUMP JUMPDEST JUMPDEST SWAP1 PUSH1 0x0 MSTORE PUSH1 0x20 PUSH1 0x0 KECCAK256 SWAP1 PUSH1 0x5 MUL ADD PUSH1 0x4 ADD SWAP1 DUP1 MLOAD SWAP1 PUSH1 0x20 ADD SWAP1 PUSH2 0xD19 SWAP3 SWAP2 SWAP1 PUSH2 0x243E JUMP JUMPDEST POP JUMPDEST POP DUP1 DUP1 PUSH2 0xD27 SWAP1 PUSH2 0x31AE JUMP JUMPDEST SWAP2 POP POP PUSH2 0xBCD JUMP JUMPDEST POP POP POP JUMP JUMPDEST PUSH1 0x1 ISZERO ISZERO DUP2 ISZERO ISZERO EQ ISZERO PUSH2 0xEE7 JUMPI PUSH1 0x0 PUSH1 0xB DUP4 DUP2 SLOAD DUP2 LT PUSH2 0xD57 JUMPI PUSH2 0xD56 PUSH2 0x3284 JUMP JUMPDEST JUMPDEST SWAP1 PUSH1 0x0 MSTORE PUSH1 0x20 PUSH1 0x0 KECCAK256 SWAP1 PUSH1 0x3 MUL ADD PUSH1 0x2 ADD PUSH1 0x0 PUSH2 0x100 EXP DUP2 SLOAD DUP2 PUSH1 0xFF MUL NOT AND SWAP1 DUP4 ISZERO ISZERO MUL OR SWAP1 SSTORE POP PUSH1 0x8 PUSH1 0xB DUP4 DUP2 SLOAD DUP2 LT PUSH2 0xD95 JUMPI PUSH2 0xD94 PUSH2 0x3284 JUMP JUMPDEST JUMPDEST SWAP1 PUSH1 0x0 MSTORE PUSH1 0x20 PUSH1 0x0 KECCAK256 SWAP1 PUSH1 0x3 MUL ADD PUSH1 0x1 ADD PUSH1 0x40 MLOAD PUSH2 0xDB3 SWAP2 SWAP1 PUSH2 0x2CAB JUMP JUMPDEST SWAP1 DUP2 MSTORE PUSH1 0x20 ADD PUSH1 0x40 MLOAD DUP1 SWAP2 SUB SWAP1 KECCAK256 PUSH1 0x2 ADD SLOAD PUSH1 0x4 PUSH1 0x0 PUSH1 0xB DUP6 DUP2 SLOAD DUP2 LT PUSH2 0xDDD JUMPI PUSH2 0xDDC PUSH2 0x3284 JUMP JUMPDEST JUMPDEST SWAP1 PUSH1 0x0 MSTORE PUSH1 0x20 PUSH1 0x0 KECCAK256 SWAP1 PUSH1 0x3 MUL ADD PUSH1 0x0 ADD PUSH1 0x0 SWAP1 SLOAD SWAP1 PUSH2 0x100 EXP SWAP1 DIV PUSH20 0xFFFFFFFFFFFFFFFFFFFFFFFFFFFFFFFFFFFFFFFF AND PUSH20 0xFFFFFFFFFFFFFFFFFFFFFFFFFFFFFFFFFFFFFFFF AND PUSH20 0xFFFFFFFFFFFFFFFFFFFFFFFFFFFFFFFFFFFFFFFF AND DUP2 MSTORE PUSH1 0x20 ADD SWAP1 DUP2 MSTORE PUSH1 0x20 ADD PUSH1 0x0 KECCAK256 PUSH1 0x2 ADD SLOAD PUSH2 0xE57 SWAP2 SWAP1 PUSH2 0x2FFC JUMP JUMPDEST PUSH1 0x4 PUSH1 0x0 PUSH1 0xB DUP6 DUP2 SLOAD DUP2 LT PUSH2 0xE6F JUMPI PUSH2 0xE6E PUSH2 0x3284 JUMP JUMPDEST JUMPDEST SWAP1 PUSH1 0x0 MSTORE PUSH1 0x20 PUSH1 0x0 KECCAK256 SWAP1 PUSH1 0x3 MUL ADD PUSH1 0x0 ADD PUSH1 0x0 SWAP1 SLOAD SWAP1 PUSH2 0x100 EXP SWAP1 DIV PUSH20 0xFFFFFFFFFFFFFFFFFFFFFFFFFFFFFFFFFFFFFFFF AND PUSH20 0xFFFFFFFFFFFFFFFFFFFFFFFFFFFFFFFFFFFFFFFF AND PUSH20 0xFFFFFFFFFFFFFFFFFFFFFFFFFFFFFFFFFFFFFFFF AND DUP2 MSTORE PUSH1 0x20 ADD SWAP1 DUP2 MSTORE PUSH1 0x20 ADD PUSH1 0x0 KECCAK256 PUSH1 0x2 ADD DUP2 SWAP1 SSTORE POP PUSH2 0xF26 JUMP JUMPDEST PUSH1 0x0 PUSH1 0xB DUP4 DUP2 SLOAD DUP2 LT PUSH2 0xEFD JUMPI PUSH2 0xEFC PUSH2 0x3284 JUMP JUMPDEST JUMPDEST SWAP1 PUSH1 0x0 MSTORE PUSH1 0x20 PUSH1 0x0 KECCAK256 SWAP1 PUSH1 0x3 MUL ADD PUSH1 0x2 ADD PUSH1 0x0 PUSH2 0x100 EXP DUP2 SLOAD DUP2 PUSH1 0xFF MUL NOT AND SWAP1 DUP4 ISZERO ISZERO MUL OR SWAP1 SSTORE POP JUMPDEST POP POP JUMP JUMPDEST PUSH1 0xC PUSH1 0x40 MLOAD DUP1 PUSH1 0x60 ADD PUSH1 0x40 MSTORE DUP1 CALLER PUSH20 0xFFFFFFFFFFFFFFFFFFFFFFFFFFFFFFFFFFFFFFFF AND DUP2 MSTORE PUSH1 0x20 ADD DUP4 DUP2 MSTORE PUSH1 0x20 ADD PUSH1 0x1 ISZERO ISZERO DUP2 MSTORE POP SWAP1 DUP1 PUSH1 0x1 DUP2 SLOAD ADD DUP1 DUP3 SSTORE DUP1 SWAP2 POP POP PUSH1 0x1 SWAP1 SUB SWAP1 PUSH1 0x0 MSTORE PUSH1 0x20 PUSH1 0x0 KECCAK256 SWAP1 PUSH1 0x3 MUL ADD PUSH1 0x0 SWAP1 SWAP2 SWAP1 SWAP2 SWAP1 SWAP2 POP PUSH1 0x0 DUP3 ADD MLOAD DUP2 PUSH1 0x0 ADD PUSH1 0x0 PUSH2 0x100 EXP DUP2 SLOAD DUP2 PUSH20 0xFFFFFFFFFFFFFFFFFFFFFFFFFFFFFFFFFFFFFFFF MUL NOT AND SWAP1 DUP4 PUSH20 0xFFFFFFFFFFFFFFFFFFFFFFFFFFFFFFFFFFFFFFFF AND MUL OR SWAP1 SSTORE POP PUSH1 0x20 DUP3 ADD MLOAD DUP2 PUSH1 0x1 ADD SWAP1 DUP1 MLOAD SWAP1 PUSH1 0x20 ADD SWAP1 PUSH2 0xFEC SWAP3 SWAP2 SWAP1 PUSH2 0x23B8 JUMP JUMPDEST POP PUSH1 0x40 DUP3 ADD MLOAD DUP2 PUSH1 0x2 ADD PUSH1 0x0 PUSH2 0x100 EXP DUP2 SLOAD DUP2 PUSH1 0xFF MUL NOT AND SWAP1 DUP4 ISZERO ISZERO MUL OR SWAP1 SSTORE POP POP POP POP JUMP JUMPDEST PUSH1 0x60 PUSH1 0x9 DUP1 SLOAD DUP1 PUSH1 0x20 MUL PUSH1 0x20 ADD PUSH1 0x40 MLOAD SWAP1 DUP2 ADD PUSH1 0x40 MSTORE DUP1 SWAP3 SWAP2 SWAP1 DUP2 DUP2 MSTORE PUSH1 0x20 ADD PUSH1 0x0 SWAP1 JUMPDEST DUP3 DUP3 LT ISZERO PUSH2 0x10E2 JUMPI DUP4 DUP3 SWAP1 PUSH1 0x0 MSTORE PUSH1 0x20 PUSH1 0x0 KECCAK256 ADD DUP1 SLOAD PUSH2 0x1055 SWAP1 PUSH2 0x314B JUMP JUMPDEST DUP1 PUSH1 0x1F ADD PUSH1 0x20 DUP1 SWAP2 DIV MUL PUSH1 0x20 ADD PUSH1 0x40 MLOAD SWAP1 DUP2 ADD PUSH1 0x40 MSTORE DUP1 SWAP3 SWAP2 SWAP1 DUP2 DUP2 MSTORE PUSH1 0x20 ADD DUP3 DUP1 SLOAD PUSH2 0x1081 SWAP1 PUSH2 0x314B JUMP JUMPDEST DUP1 ISZERO PUSH2 0x10CE JUMPI DUP1 PUSH1 0x1F LT PUSH2 0x10A3 JUMPI PUSH2 0x100 DUP1 DUP4 SLOAD DIV MUL DUP4 MSTORE SWAP2 PUSH1 0x20 ADD SWAP2 PUSH2 0x10CE JUMP JUMPDEST DUP3 ADD SWAP2 SWAP1 PUSH1 0x0 MSTORE PUSH1 0x20 PUSH1 0x0 KECCAK256 SWAP1 JUMPDEST DUP2 SLOAD DUP2 MSTORE SWAP1 PUSH1 0x1 ADD SWAP1 PUSH1 0x20 ADD DUP1 DUP4 GT PUSH2 0x10B1 JUMPI DUP3 SWAP1 SUB PUSH1 0x1F AND DUP3 ADD SWAP2 JUMPDEST POP POP POP POP POP DUP2 MSTORE PUSH1 0x20 ADD SWAP1 PUSH1 0x1 ADD SWAP1 PUSH2 0x1036 JUMP JUMPDEST POP POP POP POP SWAP1 POP SWAP1 JUMP JUMPDEST PUSH1 0x0 PUSH1 0x5 DUP3 PUSH1 0x40 MLOAD PUSH2 0x10FD SWAP2 SWAP1 PUSH2 0x2C94 JUMP JUMPDEST SWAP1 DUP2 MSTORE PUSH1 0x20 ADD PUSH1 0x40 MLOAD DUP1 SWAP2 SUB SWAP1 KECCAK256 PUSH1 0x0 SWAP1 SLOAD SWAP1 PUSH2 0x100 EXP SWAP1 DIV PUSH20 0xFFFFFFFFFFFFFFFFFFFFFFFFFFFFFFFFFFFFFFFF AND SWAP1 POP SWAP2 SWAP1 POP JUMP JUMPDEST PUSH1 0x40 MLOAD DUP1 PUSH1 0x80 ADD PUSH1 0x40 MSTORE DUP1 CALLER PUSH20 0xFFFFFFFFFFFFFFFFFFFFFFFFFFFFFFFFFFFFFFFF AND DUP2 MSTORE PUSH1 0x20 ADD DUP3 DUP2 MSTORE PUSH1 0x20 ADD DUP4 DUP2 MSTORE PUSH1 0x20 ADD PUSH1 0xD SLOAD DUP2 MSTORE POP PUSH1 0x8 DUP5 PUSH1 0x40 MLOAD PUSH2 0x117C SWAP2 SWAP1 PUSH2 0x2C94 JUMP JUMPDEST SWAP1 DUP2 MSTORE PUSH1 0x20 ADD PUSH1 0x40 MLOAD DUP1 SWAP2 SUB SWAP1 KECCAK256 PUSH1 0x0 DUP3 ADD MLOAD DUP2 PUSH1 0x0 ADD PUSH1 0x0 PUSH2 0x100 EXP DUP2 SLOAD DUP2 PUSH20 0xFFFFFFFFFFFFFFFFFFFFFFFFFFFFFFFFFFFFFFFF MUL NOT AND SWAP1 DUP4 PUSH20 0xFFFFFFFFFFFFFFFFFFFFFFFFFFFFFFFFFFFFFFFF AND MUL OR SWAP1 SSTORE POP PUSH1 0x20 DUP3 ADD MLOAD DUP2 PUSH1 0x1 ADD SWAP1 DUP1 MLOAD SWAP1 PUSH1 0x20 ADD SWAP1 PUSH2 0x11ED SWAP3 SWAP2 SWAP1 PUSH2 0x23B8 JUMP JUMPDEST POP PUSH1 0x40 DUP3 ADD MLOAD DUP2 PUSH1 0x2 ADD SSTORE PUSH1 0x60 DUP3 ADD MLOAD DUP2 PUSH1 0x3 ADD SSTORE SWAP1 POP POP PUSH1 0x9 DUP4 SWAP1 DUP1 PUSH1 0x1 DUP2 SLOAD ADD DUP1 DUP3 SSTORE DUP1 SWAP2 POP POP PUSH1 0x1 SWAP1 SUB SWAP1 PUSH1 0x0 MSTORE PUSH1 0x20 PUSH1 0x0 KECCAK256 ADD PUSH1 0x0 SWAP1 SWAP2 SWAP1 SWAP2 SWAP1 SWAP2 POP SWAP1 DUP1 MLOAD SWAP1 PUSH1 0x20 ADD SWAP1 PUSH2 0x1240 SWAP3 SWAP2 SWAP1 PUSH2 0x23B8 JUMP JUMPDEST POP PUSH1 0xD PUSH1 0x0 DUP2 SLOAD DUP1 SWAP3 SWAP2 SWAP1 PUSH2 0x1254 SWAP1 PUSH2 0x31AE JUMP JUMPDEST SWAP2 SWAP1 POP SSTORE POP POP POP POP JUMP JUMPDEST PUSH1 0xC DUP2 DUP2 SLOAD DUP2 LT PUSH2 0x126E JUMPI PUSH1 0x0 DUP1 REVERT JUMPDEST SWAP1 PUSH1 0x0 MSTORE PUSH1 0x20 PUSH1 0x0 KECCAK256 SWAP1 PUSH1 0x3 MUL ADD PUSH1 0x0 SWAP2 POP SWAP1 POP DUP1 PUSH1 0x0 ADD PUSH1 0x0 SWAP1 SLOAD SWAP1 PUSH2 0x100 EXP SWAP1 DIV PUSH20 0xFFFFFFFFFFFFFFFFFFFFFFFFFFFFFFFFFFFFFFFF AND SWAP1 DUP1 PUSH1 0x1 ADD DUP1 SLOAD PUSH2 0x12B7 SWAP1 PUSH2 0x314B JUMP JUMPDEST DUP1 PUSH1 0x1F ADD PUSH1 0x20 DUP1 SWAP2 DIV MUL PUSH1 0x20 ADD PUSH1 0x40 MLOAD SWAP1 DUP2 ADD PUSH1 0x40 MSTORE DUP1 SWAP3 SWAP2 SWAP1 DUP2 DUP2 MSTORE PUSH1 0x20 ADD DUP3 DUP1 SLOAD PUSH2 0x12E3 SWAP1 PUSH2 0x314B JUMP JUMPDEST DUP1 ISZERO PUSH2 0x1330 JUMPI DUP1 PUSH1 0x1F LT PUSH2 0x1305 JUMPI PUSH2 0x100 DUP1 DUP4 SLOAD DIV MUL DUP4 MSTORE SWAP2 PUSH1 0x20 ADD SWAP2 PUSH2 0x1330 JUMP JUMPDEST DUP3 ADD SWAP2 SWAP1 PUSH1 0x0 MSTORE PUSH1 0x20 PUSH1 0x0 KECCAK256 SWAP1 JUMPDEST DUP2 SLOAD DUP2 MSTORE SWAP1 PUSH1 0x1 ADD SWAP1 PUSH1 0x20 ADD DUP1 DUP4 GT PUSH2 0x1313 JUMPI DUP3 SWAP1 SUB PUSH1 0x1F AND DUP3 ADD SWAP2 JUMPDEST POP POP POP POP POP SWAP1 DUP1 PUSH1 0x2 ADD PUSH1 0x0 SWAP1 SLOAD SWAP1 PUSH2 0x100 EXP SWAP1 DIV PUSH1 0xFF AND SWAP1 POP DUP4 JUMP JUMPDEST PUSH1 0x0 DUP2 PUSH1 0x40 MLOAD PUSH1 0x20 ADD PUSH2 0x1360 SWAP2 SWAP1 PUSH2 0x2C94 JUMP JUMPDEST PUSH1 0x40 MLOAD PUSH1 0x20 DUP2 DUP4 SUB SUB DUP2 MSTORE SWAP1 PUSH1 0x40 MSTORE DUP1 MLOAD SWAP1 PUSH1 0x20 ADD KECCAK256 SWAP1 POP SWAP2 SWAP1 POP JUMP JUMPDEST PUSH1 0x4 PUSH1 0x20 MSTORE DUP1 PUSH1 0x0 MSTORE PUSH1 0x40 PUSH1 0x0 KECCAK256 PUSH1 0x0 SWAP2 POP SWAP1 POP DUP1 PUSH1 0x0 ADD DUP1 SLOAD PUSH2 0x13A0 SWAP1 PUSH2 0x314B JUMP JUMPDEST DUP1 PUSH1 0x1F ADD PUSH1 0x20 DUP1 SWAP2 DIV MUL PUSH1 0x20 ADD PUSH1 0x40 MLOAD SWAP1 DUP2 ADD PUSH1 0x40 MSTORE DUP1 SWAP3 SWAP2 SWAP1 DUP2 DUP2 MSTORE PUSH1 0x20 ADD DUP3 DUP1 SLOAD PUSH2 0x13CC SWAP1 PUSH2 0x314B JUMP JUMPDEST DUP1 ISZERO PUSH2 0x1419 JUMPI DUP1 PUSH1 0x1F LT PUSH2 0x13EE JUMPI PUSH2 0x100 DUP1 DUP4 SLOAD DIV MUL DUP4 MSTORE SWAP2 PUSH1 0x20 ADD SWAP2 PUSH2 0x1419 JUMP JUMPDEST DUP3 ADD SWAP2 SWAP1 PUSH1 0x0 MSTORE PUSH1 0x20 PUSH1 0x0 KECCAK256 SWAP1 JUMPDEST DUP2 SLOAD DUP2 MSTORE SWAP1 PUSH1 0x1 ADD SWAP1 PUSH1 0x20 ADD DUP1 DUP4 GT PUSH2 0x13FC JUMPI DUP3 SWAP1 SUB PUSH1 0x1F AND DUP3 ADD SWAP2 JUMPDEST POP POP POP POP POP SWAP1 DUP1 PUSH1 0x1 ADD SLOAD SWAP1 DUP1 PUSH1 0x2 ADD SLOAD SWAP1 DUP1 PUSH1 0x3 ADD SLOAD SWAP1 DUP1 PUSH1 0x4 ADD PUSH1 0x0 SWAP1 SLOAD SWAP1 PUSH2 0x100 EXP SWAP1 DIV PUSH1 0xFF AND SWAP1 POP DUP6 JUMP JUMPDEST PUSH1 0x0 DUP1 PUSH1 0x0 SWAP1 POP PUSH1 0x0 DUP1 JUMPDEST PUSH1 0x2 DUP1 SLOAD SWAP1 POP DUP2 LT ISZERO PUSH2 0x1644 JUMPI PUSH1 0x0 PUSH1 0x2 DUP3 DUP2 SLOAD DUP2 LT PUSH2 0x1476 JUMPI PUSH2 0x1475 PUSH2 0x3284 JUMP JUMPDEST JUMPDEST SWAP1 PUSH1 0x0 MSTORE PUSH1 0x20 PUSH1 0x0 KECCAK256 ADD DUP1 SLOAD PUSH2 0x148B SWAP1 PUSH2 0x314B JUMP JUMPDEST DUP1 PUSH1 0x1F ADD PUSH1 0x20 DUP1 SWAP2 DIV MUL PUSH1 0x20 ADD PUSH1 0x40 MLOAD SWAP1 DUP2 ADD PUSH1 0x40 MSTORE DUP1 SWAP3 SWAP2 SWAP1 DUP2 DUP2 MSTORE PUSH1 0x20 ADD DUP3 DUP1 SLOAD PUSH2 0x14B7 SWAP1 PUSH2 0x314B JUMP JUMPDEST DUP1 ISZERO PUSH2 0x1504 JUMPI DUP1 PUSH1 0x1F LT PUSH2 0x14D9 JUMPI PUSH2 0x100 DUP1 DUP4 SLOAD DIV MUL DUP4 MSTORE SWAP2 PUSH1 0x20 ADD SWAP2 PUSH2 0x1504 JUMP JUMPDEST DUP3 ADD SWAP2 SWAP1 PUSH1 0x0 MSTORE PUSH1 0x20 PUSH1 0x0 KECCAK256 SWAP1 JUMPDEST DUP2 SLOAD DUP2 MSTORE SWAP1 PUSH1 0x1 ADD SWAP1 PUSH1 0x20 ADD DUP1 DUP4 GT PUSH2 0x14E7 JUMPI DUP3 SWAP1 SUB PUSH1 0x1F AND DUP3 ADD SWAP2 JUMPDEST POP POP POP POP POP SWAP1 POP DUP6 PUSH1 0x40 MLOAD PUSH1 0x20 ADD PUSH2 0x151C SWAP2 SWAP1 PUSH2 0x2C94 JUMP JUMPDEST PUSH1 0x40 MLOAD PUSH1 0x20 DUP2 DUP4 SUB SUB DUP2 MSTORE SWAP1 PUSH1 0x40 MSTORE DUP1 MLOAD SWAP1 PUSH1 0x20 ADD KECCAK256 DUP2 PUSH1 0x40 MLOAD PUSH1 0x20 ADD PUSH2 0x1543 SWAP2 SWAP1 PUSH2 0x2C94 JUMP JUMPDEST PUSH1 0x40 MLOAD PUSH1 0x20 DUP2 DUP4 SUB SUB DUP2 MSTORE SWAP1 PUSH1 0x40 MSTORE DUP1 MLOAD SWAP1 PUSH1 0x20 ADD KECCAK256 EQ ISZERO PUSH2 0x1630 JUMPI PUSH1 0x0 SWAP2 POP JUMPDEST PUSH1 0x3 DUP1 SLOAD SWAP1 POP DUP3 GT PUSH2 0x162F JUMPI PUSH1 0x3 DUP3 DUP2 SLOAD DUP2 LT PUSH2 0x1584 JUMPI PUSH2 0x1583 PUSH2 0x3284 JUMP JUMPDEST JUMPDEST SWAP1 PUSH1 0x0 MSTORE PUSH1 0x20 PUSH1 0x0 KECCAK256 SWAP1 PUSH1 0x5 MUL ADD PUSH1 0x0 ADD PUSH1 0x40 MLOAD PUSH1 0x20 ADD PUSH2 0x15A5 SWAP2 SWAP1 PUSH2 0x2CAB JUMP JUMPDEST PUSH1 0x40 MLOAD PUSH1 0x20 DUP2 DUP4 SUB SUB DUP2 MSTORE SWAP1 PUSH1 0x40 MSTORE DUP1 MLOAD SWAP1 PUSH1 0x20 ADD KECCAK256 DUP7 PUSH1 0x40 MLOAD PUSH1 0x20 ADD PUSH2 0x15CC SWAP2 SWAP1 PUSH2 0x2C94 JUMP JUMPDEST PUSH1 0x40 MLOAD PUSH1 0x20 DUP2 DUP4 SUB SUB DUP2 MSTORE SWAP1 PUSH1 0x40 MSTORE DUP1 MLOAD SWAP1 PUSH1 0x20 ADD KECCAK256 EQ ISZERO PUSH2 0x161C JUMPI PUSH1 0x3 DUP3 DUP2 SLOAD DUP2 LT PUSH2 0x15FC JUMPI PUSH2 0x15FB PUSH2 0x3284 JUMP JUMPDEST JUMPDEST SWAP1 PUSH1 0x0 MSTORE PUSH1 0x20 PUSH1 0x0 KECCAK256 SWAP1 PUSH1 0x5 MUL ADD PUSH1 0x3 ADD SLOAD DUP4 PUSH2 0x1619 SWAP2 SWAP1 PUSH2 0x2FFC JUMP JUMPDEST SWAP3 POP JUMPDEST DUP2 DUP1 PUSH2 0x1627 SWAP1 PUSH2 0x31AE JUMP JUMPDEST SWAP3 POP POP PUSH2 0x1564 JUMP JUMPDEST JUMPDEST POP DUP1 DUP1 PUSH2 0x163C SWAP1 PUSH2 0x31AE JUMP JUMPDEST SWAP2 POP POP PUSH2 0x1453 JUMP JUMPDEST POP DUP2 DUP2 PUSH2 0x1651 SWAP2 SWAP1 PUSH2 0x3052 JUMP JUMPDEST DUP2 PUSH2 0x165C SWAP2 SWAP1 PUSH2 0x2FFC JUMP JUMPDEST SWAP1 POP DUP1 SWAP3 POP POP POP SWAP2 SWAP1 POP JUMP JUMPDEST PUSH1 0xB DUP2 DUP2 SLOAD DUP2 LT PUSH2 0x1678 JUMPI PUSH1 0x0 DUP1 REVERT JUMPDEST SWAP1 PUSH1 0x0 MSTORE PUSH1 0x20 PUSH1 0x0 KECCAK256 SWAP1 PUSH1 0x3 MUL ADD PUSH1 0x0 SWAP2 POP SWAP1 POP DUP1 PUSH1 0x0 ADD PUSH1 0x0 SWAP1 SLOAD SWAP1 PUSH2 0x100 EXP SWAP1 DIV PUSH20 0xFFFFFFFFFFFFFFFFFFFFFFFFFFFFFFFFFFFFFFFF AND SWAP1 DUP1 PUSH1 0x1 ADD DUP1 SLOAD PUSH2 0x16C1 SWAP1 PUSH2 0x314B JUMP JUMPDEST DUP1 PUSH1 0x1F ADD PUSH1 0x20 DUP1 SWAP2 DIV MUL PUSH1 0x20 ADD PUSH1 0x40 MLOAD SWAP1 DUP2 ADD PUSH1 0x40 MSTORE DUP1 SWAP3 SWAP2 SWAP1 DUP2 DUP2 MSTORE PUSH1 0x20 ADD DUP3 DUP1 SLOAD PUSH2 0x16ED SWAP1 PUSH2 0x314B JUMP JUMPDEST DUP1 ISZERO PUSH2 0x173A JUMPI DUP1 PUSH1 0x1F LT PUSH2 0x170F JUMPI PUSH2 0x100 DUP1 DUP4 SLOAD DIV MUL DUP4 MSTORE SWAP2 PUSH1 0x20 ADD SWAP2 PUSH2 0x173A JUMP JUMPDEST DUP3 ADD SWAP2 SWAP1 PUSH1 0x0 MSTORE PUSH1 0x20 PUSH1 0x0 KECCAK256 SWAP1 JUMPDEST DUP2 SLOAD DUP2 MSTORE SWAP1 PUSH1 0x1 ADD SWAP1 PUSH1 0x20 ADD DUP1 DUP4 GT PUSH2 0x171D JUMPI DUP3 SWAP1 SUB PUSH1 0x1F AND DUP3 ADD SWAP2 JUMPDEST POP POP POP POP POP SWAP1 DUP1 PUSH1 0x2 ADD PUSH1 0x0 SWAP1 SLOAD SWAP1 PUSH2 0x100 EXP SWAP1 DIV PUSH1 0xFF AND SWAP1 POP DUP4 JUMP JUMPDEST PUSH1 0xB PUSH1 0x40 MLOAD DUP1 PUSH1 0x60 ADD PUSH1 0x40 MSTORE DUP1 CALLER PUSH20 0xFFFFFFFFFFFFFFFFFFFFFFFFFFFFFFFFFFFFFFFF AND DUP2 MSTORE PUSH1 0x20 ADD DUP4 DUP2 MSTORE PUSH1 0x20 ADD PUSH1 0x1 ISZERO ISZERO DUP2 MSTORE POP SWAP1 DUP1 PUSH1 0x1 DUP2 SLOAD ADD DUP1 DUP3 SSTORE DUP1 SWAP2 POP POP PUSH1 0x1 SWAP1 SUB SWAP1 PUSH1 0x0 MSTORE PUSH1 0x20 PUSH1 0x0 KECCAK256 SWAP1 PUSH1 0x3 MUL ADD PUSH1 0x0 SWAP1 SWAP2 SWAP1 SWAP2 SWAP1 SWAP2 POP PUSH1 0x0 DUP3 ADD MLOAD DUP2 PUSH1 0x0 ADD PUSH1 0x0 PUSH2 0x100 EXP DUP2 SLOAD DUP2 PUSH20 0xFFFFFFFFFFFFFFFFFFFFFFFFFFFFFFFFFFFFFFFF MUL NOT AND SWAP1 DUP4 PUSH20 0xFFFFFFFFFFFFFFFFFFFFFFFFFFFFFFFFFFFFFFFF AND MUL OR SWAP1 SSTORE POP PUSH1 0x20 DUP3 ADD MLOAD DUP2 PUSH1 0x1 ADD SWAP1 DUP1 MLOAD SWAP1 PUSH1 0x20 ADD SWAP1 PUSH2 0x1819 SWAP3 SWAP2 SWAP1 PUSH2 0x23B8 JUMP JUMPDEST POP PUSH1 0x40 DUP3 ADD MLOAD DUP2 PUSH1 0x2 ADD PUSH1 0x0 PUSH2 0x100 EXP DUP2 SLOAD DUP2 PUSH1 0xFF MUL NOT AND SWAP1 DUP4 ISZERO ISZERO MUL OR SWAP1 SSTORE POP POP POP POP JUMP JUMPDEST PUSH1 0x60 PUSH1 0x2 DUP1 SLOAD DUP1 PUSH1 0x20 MUL PUSH1 0x20 ADD PUSH1 0x40 MLOAD SWAP1 DUP2 ADD PUSH1 0x40 MSTORE DUP1 SWAP3 SWAP2 SWAP1 DUP2 DUP2 MSTORE PUSH1 0x20 ADD PUSH1 0x0 SWAP1 JUMPDEST DUP3 DUP3 LT ISZERO PUSH2 0x190F JUMPI DUP4 DUP3 SWAP1 PUSH1 0x0 MSTORE PUSH1 0x20 PUSH1 0x0 KECCAK256 ADD DUP1 SLOAD PUSH2 0x1882 SWAP1 PUSH2 0x314B JUMP JUMPDEST DUP1 PUSH1 0x1F ADD PUSH1 0x20 DUP1 SWAP2 DIV MUL PUSH1 0x20 ADD PUSH1 0x40 MLOAD SWAP1 DUP2 ADD PUSH1 0x40 MSTORE DUP1 SWAP3 SWAP2 SWAP1 DUP2 DUP2 MSTORE PUSH1 0x20 ADD DUP3 DUP1 SLOAD PUSH2 0x18AE SWAP1 PUSH2 0x314B JUMP JUMPDEST DUP1 ISZERO PUSH2 0x18FB JUMPI DUP1 PUSH1 0x1F LT PUSH2 0x18D0 JUMPI PUSH2 0x100 DUP1 DUP4 SLOAD DIV MUL DUP4 MSTORE SWAP2 PUSH1 0x20 ADD SWAP2 PUSH2 0x18FB JUMP JUMPDEST DUP3 ADD SWAP2 SWAP1 PUSH1 0x0 MSTORE PUSH1 0x20 PUSH1 0x0 KECCAK256 SWAP1 JUMPDEST DUP2 SLOAD DUP2 MSTORE SWAP1 PUSH1 0x1 ADD SWAP1 PUSH1 0x20 ADD DUP1 DUP4 GT PUSH2 0x18DE JUMPI DUP3 SWAP1 SUB PUSH1 0x1F AND DUP3 ADD SWAP2 JUMPDEST POP POP POP POP POP DUP2 MSTORE PUSH1 0x20 ADD SWAP1 PUSH1 0x1 ADD SWAP1 PUSH2 0x1863 JUMP JUMPDEST POP POP POP POP SWAP1 POP SWAP1 JUMP JUMPDEST PUSH1 0x0 PUSH1 0x4 PUSH1 0x0 PUSH1 0x5 DUP5 PUSH1 0x40 MLOAD PUSH2 0x192E SWAP2 SWAP1 PUSH2 0x2C94 JUMP JUMPDEST SWAP1 DUP2 MSTORE PUSH1 0x20 ADD PUSH1 0x40 MLOAD DUP1 SWAP2 SUB SWAP1 KECCAK256 PUSH1 0x0 SWAP1 SLOAD SWAP1 PUSH2 0x100 EXP SWAP1 DIV PUSH20 0xFFFFFFFFFFFFFFFFFFFFFFFFFFFFFFFFFFFFFFFF AND PUSH20 0xFFFFFFFFFFFFFFFFFFFFFFFFFFFFFFFFFFFFFFFF AND PUSH20 0xFFFFFFFFFFFFFFFFFFFFFFFFFFFFFFFFFFFFFFFF AND DUP2 MSTORE PUSH1 0x20 ADD SWAP1 DUP2 MSTORE PUSH1 0x20 ADD PUSH1 0x0 KECCAK256 PUSH1 0x4 ADD PUSH1 0x0 SWAP1 SLOAD SWAP1 PUSH2 0x100 EXP SWAP1 DIV PUSH1 0xFF AND SWAP1 POP SWAP2 SWAP1 POP JUMP JUMPDEST PUSH1 0x1 DUP2 DUP1 MLOAD PUSH1 0x20 DUP2 ADD DUP3 ADD DUP1 MLOAD DUP5 DUP3 MSTORE PUSH1 0x20 DUP4 ADD PUSH1 0x20 DUP6 ADD KECCAK256 DUP2 DUP4 MSTORE DUP1 SWAP6 POP POP POP POP POP POP PUSH1 0x0 SWAP2 POP SLOAD SWAP1 PUSH2 0x100 EXP SWAP1 DIV PUSH20 0xFFFFFFFFFFFFFFFFFFFFFFFFFFFFFFFFFFFFFFFF AND DUP2 JUMP JUMPDEST PUSH1 0xA DUP2 GT ISZERO PUSH2 0x1A3C JUMPI PUSH1 0x40 MLOAD PUSH32 0x8C379A000000000000000000000000000000000000000000000000000000000 DUP2 MSTORE PUSH1 0x4 ADD PUSH2 0x1A33 SWAP1 PUSH2 0x2EB9 JUMP JUMPDEST PUSH1 0x40 MLOAD DUP1 SWAP2 SUB SWAP1 REVERT JUMPDEST PUSH1 0x0 JUMPDEST PUSH1 0x2 DUP1 SLOAD SWAP1 POP DUP2 GT PUSH2 0x1CFE JUMPI PUSH1 0x0 PUSH1 0x2 DUP3 DUP2 SLOAD DUP2 LT PUSH2 0x1A61 JUMPI PUSH2 0x1A60 PUSH2 0x3284 JUMP JUMPDEST JUMPDEST SWAP1 PUSH1 0x0 MSTORE PUSH1 0x20 PUSH1 0x0 KECCAK256 ADD DUP1 SLOAD PUSH2 0x1A76 SWAP1 PUSH2 0x314B JUMP JUMPDEST DUP1 PUSH1 0x1F ADD PUSH1 0x20 DUP1 SWAP2 DIV MUL PUSH1 0x20 ADD PUSH1 0x40 MLOAD SWAP1 DUP2 ADD PUSH1 0x40 MSTORE DUP1 SWAP3 SWAP2 SWAP1 DUP2 DUP2 MSTORE PUSH1 0x20 ADD DUP3 DUP1 SLOAD PUSH2 0x1AA2 SWAP1 PUSH2 0x314B JUMP JUMPDEST DUP1 ISZERO PUSH2 0x1AEF JUMPI DUP1 PUSH1 0x1F LT PUSH2 0x1AC4 JUMPI PUSH2 0x100 DUP1 DUP4 SLOAD DIV MUL DUP4 MSTORE SWAP2 PUSH1 0x20 ADD SWAP2 PUSH2 0x1AEF JUMP JUMPDEST DUP3 ADD SWAP2 SWAP1 PUSH1 0x0 MSTORE PUSH1 0x20 PUSH1 0x0 KECCAK256 SWAP1 JUMPDEST DUP2 SLOAD DUP2 MSTORE SWAP1 PUSH1 0x1 ADD SWAP1 PUSH1 0x20 ADD DUP1 DUP4 GT PUSH2 0x1AD2 JUMPI DUP3 SWAP1 SUB PUSH1 0x1F AND DUP3 ADD SWAP2 JUMPDEST POP POP POP POP POP SWAP1 POP DUP5 PUSH1 0x40 MLOAD PUSH1 0x20 ADD PUSH2 0x1B07 SWAP2 SWAP1 PUSH2 0x2C94 JUMP JUMPDEST PUSH1 0x40 MLOAD PUSH1 0x20 DUP2 DUP4 SUB SUB DUP2 MSTORE SWAP1 PUSH1 0x40 MSTORE DUP1 MLOAD SWAP1 PUSH1 0x20 ADD KECCAK256 DUP2 PUSH1 0x40 MLOAD PUSH1 0x20 ADD PUSH2 0x1B2E SWAP2 SWAP1 PUSH2 0x2C94 JUMP JUMPDEST PUSH1 0x40 MLOAD PUSH1 0x20 DUP2 DUP4 SUB SUB DUP2 MSTORE SWAP1 PUSH1 0x40 MSTORE DUP1 MLOAD SWAP1 PUSH1 0x20 ADD KECCAK256 EQ ISZERO PUSH2 0x1CEA JUMPI PUSH1 0x60 PUSH1 0x3 PUSH1 0x40 MLOAD DUP1 PUSH1 0xA0 ADD PUSH1 0x40 MSTORE DUP1 DUP9 DUP2 MSTORE PUSH1 0x20 ADD PUSH1 0x4 PUSH1 0x0 CALLER PUSH20 0xFFFFFFFFFFFFFFFFFFFFFFFFFFFFFFFFFFFFFFFF AND PUSH20 0xFFFFFFFFFFFFFFFFFFFFFFFFFFFFFFFFFFFFFFFF AND DUP2 MSTORE PUSH1 0x20 ADD SWAP1 DUP2 MSTORE PUSH1 0x20 ADD PUSH1 0x0 KECCAK256 PUSH1 0x0 ADD DUP1 SLOAD PUSH2 0x1BAC SWAP1 PUSH2 0x314B JUMP JUMPDEST DUP1 PUSH1 0x1F ADD PUSH1 0x20 DUP1 SWAP2 DIV MUL PUSH1 0x20 ADD PUSH1 0x40 MLOAD SWAP1 DUP2 ADD PUSH1 0x40 MSTORE DUP1 SWAP3 SWAP2 SWAP1 DUP2 DUP2 MSTORE PUSH1 0x20 ADD DUP3 DUP1 SLOAD PUSH2 0x1BD8 SWAP1 PUSH2 0x314B JUMP JUMPDEST DUP1 ISZERO PUSH2 0x1C25 JUMPI DUP1 PUSH1 0x1F LT PUSH2 0x1BFA JUMPI PUSH2 0x100 DUP1 DUP4 SLOAD DIV MUL DUP4 MSTORE SWAP2 PUSH1 0x20 ADD SWAP2 PUSH2 0x1C25 JUMP JUMPDEST DUP3 ADD SWAP2 SWAP1 PUSH1 0x0 MSTORE PUSH1 0x20 PUSH1 0x0 KECCAK256 SWAP1 JUMPDEST DUP2 SLOAD DUP2 MSTORE SWAP1 PUSH1 0x1 ADD SWAP1 PUSH1 0x20 ADD DUP1 DUP4 GT PUSH2 0x1C08 JUMPI DUP3 SWAP1 SUB PUSH1 0x1F AND DUP3 ADD SWAP2 JUMPDEST POP POP POP POP POP DUP2 MSTORE PUSH1 0x20 ADD DUP8 DUP2 MSTORE PUSH1 0x20 ADD DUP7 DUP2 MSTORE PUSH1 0x20 ADD DUP4 DUP2 MSTORE POP SWAP1 DUP1 PUSH1 0x1 DUP2 SLOAD ADD DUP1 DUP3 SSTORE DUP1 SWAP2 POP POP PUSH1 0x1 SWAP1 SUB SWAP1 PUSH1 0x0 MSTORE PUSH1 0x20 PUSH1 0x0 KECCAK256 SWAP1 PUSH1 0x5 MUL ADD PUSH1 0x0 SWAP1 SWAP2 SWAP1 SWAP2 SWAP1 SWAP2 POP PUSH1 0x0 DUP3 ADD MLOAD DUP2 PUSH1 0x0 ADD SWAP1 DUP1 MLOAD SWAP1 PUSH1 0x20 ADD SWAP1 PUSH2 0x1C84 SWAP3 SWAP2 SWAP1 PUSH2 0x23B8 JUMP JUMPDEST POP PUSH1 0x20 DUP3 ADD MLOAD DUP2 PUSH1 0x1 ADD SWAP1 DUP1 MLOAD SWAP1 PUSH1 0x20 ADD SWAP1 PUSH2 0x1CA1 SWAP3 SWAP2 SWAP1 PUSH2 0x23B8 JUMP JUMPDEST POP PUSH1 0x40 DUP3 ADD MLOAD DUP2 PUSH1 0x2 ADD SWAP1 DUP1 MLOAD SWAP1 PUSH1 0x20 ADD SWAP1 PUSH2 0x1CBE SWAP3 SWAP2 SWAP1 PUSH2 0x23B8 JUMP JUMPDEST POP PUSH1 0x60 DUP3 ADD MLOAD DUP2 PUSH1 0x3 ADD SSTORE PUSH1 0x80 DUP3 ADD MLOAD DUP2 PUSH1 0x4 ADD SWAP1 DUP1 MLOAD SWAP1 PUSH1 0x20 ADD SWAP1 PUSH2 0x1CE5 SWAP3 SWAP2 SWAP1 PUSH2 0x243E JUMP JUMPDEST POP POP POP POP JUMPDEST POP DUP1 DUP1 PUSH2 0x1CF6 SWAP1 PUSH2 0x31AE JUMP JUMPDEST SWAP2 POP POP PUSH2 0x1A3F JUMP JUMPDEST POP POP POP POP JUMP JUMPDEST PUSH1 0x0 ISZERO ISZERO PUSH1 0x4 PUSH1 0x0 PUSH1 0x5 DUP6 PUSH1 0x40 MLOAD PUSH2 0x1D1C SWAP2 SWAP1 PUSH2 0x2C94 JUMP JUMPDEST SWAP1 DUP2 MSTORE PUSH1 0x20 ADD PUSH1 0x40 MLOAD DUP1 SWAP2 SUB SWAP1 KECCAK256 PUSH1 0x0 SWAP1 SLOAD SWAP1 PUSH2 0x100 EXP SWAP1 DIV PUSH20 0xFFFFFFFFFFFFFFFFFFFFFFFFFFFFFFFFFFFFFFFF AND PUSH20 0xFFFFFFFFFFFFFFFFFFFFFFFFFFFFFFFFFFFFFFFF AND PUSH20 0xFFFFFFFFFFFFFFFFFFFFFFFFFFFFFFFFFFFFFFFF AND DUP2 MSTORE PUSH1 0x20 ADD SWAP1 DUP2 MSTORE PUSH1 0x20 ADD PUSH1 0x0 KECCAK256 PUSH1 0x4 ADD PUSH1 0x0 SWAP1 SLOAD SWAP1 PUSH2 0x100 EXP SWAP1 DIV PUSH1 0xFF AND ISZERO ISZERO EQ PUSH2 0x1DD8 JUMPI PUSH1 0x40 MLOAD PUSH32 0x8C379A000000000000000000000000000000000000000000000000000000000 DUP2 MSTORE PUSH1 0x4 ADD PUSH2 0x1DCF SWAP1 PUSH2 0x2E99 JUMP JUMPDEST PUSH1 0x40 MLOAD DUP1 SWAP2 SUB SWAP1 REVERT JUMPDEST PUSH1 0x0 PUSH20 0xFFFFFFFFFFFFFFFFFFFFFFFFFFFFFFFFFFFFFFFF AND PUSH1 0x5 DUP4 PUSH1 0x40 MLOAD PUSH2 0x1E00 SWAP2 SWAP1 PUSH2 0x2C94 JUMP JUMPDEST SWAP1 DUP2 MSTORE PUSH1 0x20 ADD PUSH1 0x40 MLOAD DUP1 SWAP2 SUB SWAP1 KECCAK256 PUSH1 0x0 SWAP1 SLOAD SWAP1 PUSH2 0x100 EXP SWAP1 DIV PUSH20 0xFFFFFFFFFFFFFFFFFFFFFFFFFFFFFFFFFFFFFFFF AND PUSH20 0xFFFFFFFFFFFFFFFFFFFFFFFFFFFFFFFFFFFFFFFF AND EQ ISZERO PUSH2 0x1E86 JUMPI PUSH1 0x40 MLOAD PUSH32 0x8C379A000000000000000000000000000000000000000000000000000000000 DUP2 MSTORE PUSH1 0x4 ADD PUSH2 0x1E7D SWAP1 PUSH2 0x2E59 JUMP JUMPDEST PUSH1 0x40 MLOAD DUP1 SWAP2 SUB SWAP1 REVERT JUMPDEST DUP1 PUSH1 0x4 PUSH1 0x0 PUSH1 0x5 DUP6 PUSH1 0x40 MLOAD PUSH2 0x1E9B SWAP2 SWAP1 PUSH2 0x2C94 JUMP JUMPDEST SWAP1 DUP2 MSTORE PUSH1 0x20 ADD PUSH1 0x40 MLOAD DUP1 SWAP2 SUB SWAP1 KECCAK256 PUSH1 0x0 SWAP1 SLOAD SWAP1 PUSH2 0x100 EXP SWAP1 DIV PUSH20 0xFFFFFFFFFFFFFFFFFFFFFFFFFFFFFFFFFFFFFFFF AND PUSH20 0xFFFFFFFFFFFFFFFFFFFFFFFFFFFFFFFFFFFFFFFF AND PUSH20 0xFFFFFFFFFFFFFFFFFFFFFFFFFFFFFFFFFFFFFFFF AND DUP2 MSTORE PUSH1 0x20 ADD SWAP1 DUP2 MSTORE PUSH1 0x20 ADD PUSH1 0x0 KECCAK256 PUSH1 0x1 ADD SLOAD EQ PUSH2 0x1F48 JUMPI PUSH1 0x40 MLOAD PUSH32 0x8C379A000000000000000000000000000000000000000000000000000000000 DUP2 MSTORE PUSH1 0x4 ADD PUSH2 0x1F3F SWAP1 PUSH2 0x2E39 JUMP JUMPDEST PUSH1 0x40 MLOAD DUP1 SWAP2 SUB SWAP1 REVERT JUMPDEST PUSH1 0x1 PUSH1 0x4 PUSH1 0x0 PUSH1 0x5 DUP6 PUSH1 0x40 MLOAD PUSH2 0x1F5E SWAP2 SWAP1 PUSH2 0x2C94 JUMP JUMPDEST SWAP1 DUP2 MSTORE PUSH1 0x20 ADD PUSH1 0x40 MLOAD DUP1 SWAP2 SUB SWAP1 KECCAK256 PUSH1 0x0 SWAP1 SLOAD SWAP1 PUSH2 0x100 EXP SWAP1 DIV PUSH20 0xFFFFFFFFFFFFFFFFFFFFFFFFFFFFFFFFFFFFFFFF AND PUSH20 0xFFFFFFFFFFFFFFFFFFFFFFFFFFFFFFFFFFFFFFFF AND PUSH20 0xFFFFFFFFFFFFFFFFFFFFFFFFFFFFFFFFFFFFFFFF AND DUP2 MSTORE PUSH1 0x20 ADD SWAP1 DUP2 MSTORE PUSH1 0x20 ADD PUSH1 0x0 KECCAK256 PUSH1 0x4 ADD PUSH1 0x0 PUSH2 0x100 EXP DUP2 SLOAD DUP2 PUSH1 0xFF MUL NOT AND SWAP1 DUP4 ISZERO ISZERO MUL OR SWAP1 SSTORE POP POP POP JUMP JUMPDEST PUSH1 0x8 DUP2 DUP1 MLOAD PUSH1 0x20 DUP2 ADD DUP3 ADD DUP1 MLOAD DUP5 DUP3 MSTORE PUSH1 0x20 DUP4 ADD PUSH1 0x20 DUP6 ADD KECCAK256 DUP2 DUP4 MSTORE DUP1 SWAP6 POP POP POP POP POP POP PUSH1 0x0 SWAP2 POP SWAP1 POP DUP1 PUSH1 0x0 ADD PUSH1 0x0 SWAP1 SLOAD SWAP1 PUSH2 0x100 EXP SWAP1 DIV PUSH20 0xFFFFFFFFFFFFFFFFFFFFFFFFFFFFFFFFFFFFFFFF AND SWAP1 DUP1 PUSH1 0x1 ADD DUP1 SLOAD PUSH2 0x2044 SWAP1 PUSH2 0x314B JUMP JUMPDEST DUP1 PUSH1 0x1F ADD PUSH1 0x20 DUP1 SWAP2 DIV MUL PUSH1 0x20 ADD PUSH1 0x40 MLOAD SWAP1 DUP2 ADD PUSH1 0x40 MSTORE DUP1 SWAP3 SWAP2 SWAP1 DUP2 DUP2 MSTORE PUSH1 0x20 ADD DUP3 DUP1 SLOAD PUSH2 0x2070 SWAP1 PUSH2 0x314B JUMP JUMPDEST DUP1 ISZERO PUSH2 0x20BD JUMPI DUP1 PUSH1 0x1F LT PUSH2 0x2092 JUMPI PUSH2 0x100 DUP1 DUP4 SLOAD DIV MUL DUP4 MSTORE SWAP2 PUSH1 0x20 ADD SWAP2 PUSH2 0x20BD JUMP JUMPDEST DUP3 ADD SWAP2 SWAP1 PUSH1 0x0 MSTORE PUSH1 0x20 PUSH1 0x0 KECCAK256 SWAP1 JUMPDEST DUP2 SLOAD DUP2 MSTORE SWAP1 PUSH1 0x1 ADD SWAP1 PUSH1 0x20 ADD DUP1 DUP4 GT PUSH2 0x20A0 JUMPI DUP3 SWAP1 SUB PUSH1 0x1F AND DUP3 ADD SWAP2 JUMPDEST POP POP POP POP POP SWAP1 DUP1 PUSH1 0x2 ADD SLOAD SWAP1 DUP1 PUSH1 0x3 ADD SLOAD SWAP1 POP DUP5 JUMP JUMPDEST PUSH1 0xA DUP2 DUP2 SLOAD DUP2 LT PUSH2 0x20E3 JUMPI PUSH1 0x0 DUP1 REVERT JUMPDEST SWAP1 PUSH1 0x0 MSTORE PUSH1 0x20 PUSH1 0x0 KECCAK256 SWAP1 PUSH1 0x3 MUL ADD PUSH1 0x0 SWAP2 POP SWAP1 POP DUP1 PUSH1 0x0 ADD PUSH1 0x0 SWAP1 SLOAD SWAP1 PUSH2 0x100 EXP SWAP1 DIV PUSH20 0xFFFFFFFFFFFFFFFFFFFFFFFFFFFFFFFFFFFFFFFF AND SWAP1 DUP1 PUSH1 0x1 ADD DUP1 SLOAD PUSH2 0x212C SWAP1 PUSH2 0x314B JUMP JUMPDEST DUP1 PUSH1 0x1F ADD PUSH1 0x20 DUP1 SWAP2 DIV MUL PUSH1 0x20 ADD PUSH1 0x40 MLOAD SWAP1 DUP2 ADD PUSH1 0x40 MSTORE DUP1 SWAP3 SWAP2 SWAP1 DUP2 DUP2 MSTORE PUSH1 0x20 ADD DUP3 DUP1 SLOAD PUSH2 0x2158 SWAP1 PUSH2 0x314B JUMP JUMPDEST DUP1 ISZERO PUSH2 0x21A5 JUMPI DUP1 PUSH1 0x1F LT PUSH2 0x217A JUMPI PUSH2 0x100 DUP1 DUP4 SLOAD DIV MUL DUP4 MSTORE SWAP2 PUSH1 0x20 ADD SWAP2 PUSH2 0x21A5 JUMP JUMPDEST DUP3 ADD SWAP2 SWAP1 PUSH1 0x0 MSTORE PUSH1 0x20 PUSH1 0x0 KECCAK256 SWAP1 JUMPDEST DUP2 SLOAD DUP2 MSTORE SWAP1 PUSH1 0x1 ADD SWAP1 PUSH1 0x20 ADD DUP1 DUP4 GT PUSH2 0x2188 JUMPI DUP3 SWAP1 SUB PUSH1 0x1F AND DUP3 ADD SWAP2 JUMPDEST POP POP POP POP POP SWAP1 DUP1 PUSH1 0x2 ADD PUSH1 0x0 SWAP1 SLOAD SWAP1 PUSH2 0x100 EXP SWAP1 DIV PUSH1 0xFF AND SWAP1 POP DUP4 JUMP JUMPDEST PUSH1 0x1 ISZERO ISZERO DUP2 ISZERO ISZERO EQ ISZERO PUSH2 0x2375 JUMPI PUSH1 0x8 PUSH1 0xC DUP4 DUP2 SLOAD DUP2 LT PUSH2 0x21E5 JUMPI PUSH2 0x21E4 PUSH2 0x3284 JUMP JUMPDEST JUMPDEST SWAP1 PUSH1 0x0 MSTORE PUSH1 0x20 PUSH1 0x0 KECCAK256 SWAP1 PUSH1 0x3 MUL ADD PUSH1 0x1 ADD PUSH1 0x40 MLOAD PUSH2 0x2203 SWAP2 SWAP1 PUSH2 0x2CAB JUMP JUMPDEST SWAP1 DUP2 MSTORE PUSH1 0x20 ADD PUSH1 0x40 MLOAD DUP1 SWAP2 SUB SWAP1 KECCAK256 PUSH1 0x2 ADD SLOAD PUSH1 0x4 PUSH1 0x0 PUSH1 0xC DUP6 DUP2 SLOAD DUP2 LT PUSH2 0x222D JUMPI PUSH2 0x222C PUSH2 0x3284 JUMP JUMPDEST JUMPDEST SWAP1 PUSH1 0x0 MSTORE PUSH1 0x20 PUSH1 0x0 KECCAK256 SWAP1 PUSH1 0x3 MUL ADD PUSH1 0x0 ADD PUSH1 0x0 SWAP1 SLOAD SWAP1 PUSH2 0x100 EXP SWAP1 DIV PUSH20 0xFFFFFFFFFFFFFFFFFFFFFFFFFFFFFFFFFFFFFFFF AND PUSH20 0xFFFFFFFFFFFFFFFFFFFFFFFFFFFFFFFFFFFFFFFF AND PUSH20 0xFFFFFFFFFFFFFFFFFFFFFFFFFFFFFFFFFFFFFFFF AND DUP2 MSTORE PUSH1 0x20 ADD SWAP1 DUP2 MSTORE PUSH1 0x20 ADD PUSH1 0x0 KECCAK256 PUSH1 0x2 ADD SLOAD PUSH2 0x22A7 SWAP2 SWAP1 PUSH2 0x2FFC JUMP JUMPDEST PUSH1 0x4 PUSH1 0x0 PUSH1 0xC DUP6 DUP2 SLOAD DUP2 LT PUSH2 0x22BF JUMPI PUSH2 0x22BE PUSH2 0x3284 JUMP JUMPDEST JUMPDEST SWAP1 PUSH1 0x0 MSTORE PUSH1 0x20 PUSH1 0x0 KECCAK256 SWAP1 PUSH1 0x3 MUL ADD PUSH1 0x0 ADD PUSH1 0x0 SWAP1 SLOAD SWAP1 PUSH2 0x100 EXP SWAP1 DIV PUSH20 0xFFFFFFFFFFFFFFFFFFFFFFFFFFFFFFFFFFFFFFFF AND PUSH20 0xFFFFFFFFFFFFFFFFFFFFFFFFFFFFFFFFFFFFFFFF AND PUSH20 0xFFFFFFFFFFFFFFFFFFFFFFFFFFFFFFFFFFFFFFFF AND DUP2 MSTORE PUSH1 0x20 ADD SWAP1 DUP2 MSTORE PUSH1 0x20 ADD PUSH1 0x0 KECCAK256 PUSH1 0x2 ADD DUP2 SWAP1 SSTORE POP PUSH1 0x0 PUSH1 0xB DUP4 DUP2 SLOAD DUP2 LT PUSH2 0x2348 JUMPI PUSH2 0x2347 PUSH2 0x3284 JUMP JUMPDEST JUMPDEST SWAP1 PUSH1 0x0 MSTORE PUSH1 0x20 PUSH1 0x0 KECCAK256 SWAP1 PUSH1 0x3 MUL ADD PUSH1 0x2 ADD PUSH1 0x0 PUSH2 0x100 EXP DUP2 SLOAD DUP2 PUSH1 0xFF MUL NOT AND SWAP1 DUP4 ISZERO ISZERO MUL OR SWAP1 SSTORE POP PUSH2 0x23B4 JUMP JUMPDEST PUSH1 0x0 PUSH1 0xB DUP4 DUP2 SLOAD DUP2 LT PUSH2 0x238B JUMPI PUSH2 0x238A PUSH2 0x3284 JUMP JUMPDEST JUMPDEST SWAP1 PUSH1 0x0 MSTORE PUSH1 0x20 PUSH1 0x0 KECCAK256 SWAP1 PUSH1 0x3 MUL ADD PUSH1 0x2 ADD PUSH1 0x0 PUSH2 0x100 EXP DUP2 SLOAD DUP2 PUSH1 0xFF MUL NOT AND SWAP1 DUP4 ISZERO ISZERO MUL OR SWAP1 SSTORE POP JUMPDEST POP POP JUMP JUMPDEST DUP3 DUP1 SLOAD PUSH2 0x23C4 SWAP1 PUSH2 0x314B JUMP JUMPDEST SWAP1 PUSH1 0x0 MSTORE PUSH1 0x20 PUSH1 0x0 KECCAK256 SWAP1 PUSH1 0x1F ADD PUSH1 0x20 SWAP1 DIV DUP2 ADD SWAP3 DUP3 PUSH2 0x23E6 JUMPI PUSH1 0x0 DUP6 SSTORE PUSH2 0x242D JUMP JUMPDEST DUP3 PUSH1 0x1F LT PUSH2 0x23FF JUMPI DUP1 MLOAD PUSH1 0xFF NOT AND DUP4 DUP1 ADD OR DUP6 SSTORE PUSH2 0x242D JUMP JUMPDEST DUP3 DUP1 ADD PUSH1 0x1 ADD DUP6 SSTORE DUP3 ISZERO PUSH2 0x242D JUMPI SWAP2 DUP3 ADD JUMPDEST DUP3 DUP2 GT ISZERO PUSH2 0x242C JUMPI DUP3 MLOAD DUP3 SSTORE SWAP2 PUSH1 0x20 ADD SWAP2 SWAP1 PUSH1 0x1 ADD SWAP1 PUSH2 0x2411 JUMP JUMPDEST JUMPDEST POP SWAP1 POP PUSH2 0x243A SWAP2 SWAP1 PUSH2 0x249E JUMP JUMPDEST POP SWAP1 JUMP JUMPDEST DUP3 DUP1 SLOAD DUP3 DUP3 SSTORE SWAP1 PUSH1 0x0 MSTORE PUSH1 0x20 PUSH1 0x0 KECCAK256 SWAP1 DUP2 ADD SWAP3 DUP3 ISZERO PUSH2 0x248D JUMPI SWAP2 PUSH1 0x20 MUL DUP3 ADD JUMPDEST DUP3 DUP2 GT ISZERO PUSH2 0x248C JUMPI DUP3 MLOAD DUP3 SWAP1 DUP1 MLOAD SWAP1 PUSH1 0x20 ADD SWAP1 PUSH2 0x247C SWAP3 SWAP2 SWAP1 PUSH2 0x23B8 JUMP JUMPDEST POP SWAP2 PUSH1 0x20 ADD SWAP2 SWAP1 PUSH1 0x1 ADD SWAP1 PUSH2 0x245E JUMP JUMPDEST JUMPDEST POP SWAP1 POP PUSH2 0x249A SWAP2 SWAP1 PUSH2 0x24BB JUMP JUMPDEST POP SWAP1 JUMP JUMPDEST JUMPDEST DUP1 DUP3 GT ISZERO PUSH2 0x24B7 JUMPI PUSH1 0x0 DUP2 PUSH1 0x0 SWAP1 SSTORE POP PUSH1 0x1 ADD PUSH2 0x249F JUMP JUMPDEST POP SWAP1 JUMP JUMPDEST JUMPDEST DUP1 DUP3 GT ISZERO PUSH2 0x24DB JUMPI PUSH1 0x0 DUP2 DUP2 PUSH2 0x24D2 SWAP2 SWAP1 PUSH2 0x24DF JUMP JUMPDEST POP PUSH1 0x1 ADD PUSH2 0x24BC JUMP JUMPDEST POP SWAP1 JUMP JUMPDEST POP DUP1 SLOAD PUSH2 0x24EB SWAP1 PUSH2 0x314B JUMP JUMPDEST PUSH1 0x0 DUP3 SSTORE DUP1 PUSH1 0x1F LT PUSH2 0x24FD JUMPI POP PUSH2 0x251C JUMP JUMPDEST PUSH1 0x1F ADD PUSH1 0x20 SWAP1 DIV SWAP1 PUSH1 0x0 MSTORE PUSH1 0x20 PUSH1 0x0 KECCAK256 SWAP1 DUP2 ADD SWAP1 PUSH2 0x251B SWAP2 SWAP1 PUSH2 0x249E JUMP JUMPDEST JUMPDEST POP JUMP JUMPDEST PUSH1 0x0 PUSH2 0x2532 PUSH2 0x252D DUP5 PUSH2 0x2F19 JUMP JUMPDEST PUSH2 0x2EF4 JUMP JUMPDEST SWAP1 POP DUP1 DUP4 DUP3 MSTORE PUSH1 0x20 DUP3 ADD SWAP1 POP DUP3 DUP6 PUSH1 0x20 DUP7 MUL DUP3 ADD GT ISZERO PUSH2 0x2555 JUMPI PUSH2 0x2554 PUSH2 0x32E7 JUMP JUMPDEST JUMPDEST PUSH1 0x0 JUMPDEST DUP6 DUP2 LT ISZERO PUSH2 0x25A3 JUMPI DUP2 CALLDATALOAD PUSH8 0xFFFFFFFFFFFFFFFF DUP2 GT ISZERO PUSH2 0x257B JUMPI PUSH2 0x257A PUSH2 0x32E2 JUMP JUMPDEST JUMPDEST DUP1 DUP7 ADD PUSH2 0x2588 DUP10 DUP3 PUSH2 0x265C JUMP JUMPDEST DUP6 MSTORE PUSH1 0x20 DUP6 ADD SWAP5 POP PUSH1 0x20 DUP5 ADD SWAP4 POP POP POP PUSH1 0x1 DUP2 ADD SWAP1 POP PUSH2 0x2558 JUMP JUMPDEST POP POP POP SWAP4 SWAP3 POP POP POP JUMP JUMPDEST PUSH1 0x0 PUSH2 0x25C0 PUSH2 0x25BB DUP5 PUSH2 0x2F45 JUMP JUMPDEST PUSH2 0x2EF4 JUMP JUMPDEST SWAP1 POP DUP3 DUP2 MSTORE PUSH1 0x20 DUP2 ADD DUP5 DUP5 DUP5 ADD GT ISZERO PUSH2 0x25DC JUMPI PUSH2 0x25DB PUSH2 0x32EC JUMP JUMPDEST JUMPDEST PUSH2 0x25E7 DUP5 DUP3 DUP6 PUSH2 0x3109 JUMP JUMPDEST POP SWAP4 SWAP3 POP POP POP JUMP JUMPDEST PUSH1 0x0 DUP2 CALLDATALOAD SWAP1 POP PUSH2 0x25FE DUP2 PUSH2 0x3428 JUMP JUMPDEST SWAP3 SWAP2 POP POP JUMP JUMPDEST PUSH1 0x0 DUP3 PUSH1 0x1F DUP4 ADD SLT PUSH2 0x2619 JUMPI PUSH2 0x2618 PUSH2 0x32E2 JUMP JUMPDEST JUMPDEST DUP2 CALLDATALOAD PUSH2 0x2629 DUP5 DUP3 PUSH1 0x20 DUP7 ADD PUSH2 0x251F JUMP JUMPDEST SWAP2 POP POP SWAP3 SWAP2 POP POP JUMP JUMPDEST PUSH1 0x0 DUP2 CALLDATALOAD SWAP1 POP PUSH2 0x2641 DUP2 PUSH2 0x343F JUMP JUMPDEST SWAP3 SWAP2 POP POP JUMP JUMPDEST PUSH1 0x0 DUP2 CALLDATALOAD SWAP1 POP PUSH2 0x2656 DUP2 PUSH2 0x3456 JUMP JUMPDEST SWAP3 SWAP2 POP POP JUMP JUMPDEST PUSH1 0x0 DUP3 PUSH1 0x1F DUP4 ADD SLT PUSH2 0x2671 JUMPI PUSH2 0x2670 PUSH2 0x32E2 JUMP JUMPDEST JUMPDEST DUP2 CALLDATALOAD PUSH2 0x2681 DUP5 DUP3 PUSH1 0x20 DUP7 ADD PUSH2 0x25AD JUMP JUMPDEST SWAP2 POP POP SWAP3 SWAP2 POP POP JUMP JUMPDEST PUSH1 0x0 DUP2 CALLDATALOAD SWAP1 POP PUSH2 0x2699 DUP2 PUSH2 0x346D JUMP JUMPDEST SWAP3 SWAP2 POP POP JUMP JUMPDEST PUSH1 0x0 PUSH1 0x20 DUP3 DUP5 SUB SLT ISZERO PUSH2 0x26B5 JUMPI PUSH2 0x26B4 PUSH2 0x32F6 JUMP JUMPDEST JUMPDEST PUSH1 0x0 PUSH2 0x26C3 DUP5 DUP3 DUP6 ADD PUSH2 0x25EF JUMP JUMPDEST SWAP2 POP POP SWAP3 SWAP2 POP POP JUMP JUMPDEST PUSH1 0x0 DUP1 PUSH1 0x0 PUSH1 0x60 DUP5 DUP7 SUB SLT ISZERO PUSH2 0x26E5 JUMPI PUSH2 0x26E4 PUSH2 0x32F6 JUMP JUMPDEST JUMPDEST PUSH1 0x0 PUSH2 0x26F3 DUP7 DUP3 DUP8 ADD PUSH2 0x25EF JUMP JUMPDEST SWAP4 POP POP PUSH1 0x20 DUP5 ADD CALLDATALOAD PUSH8 0xFFFFFFFFFFFFFFFF DUP2 GT ISZERO PUSH2 0x2714 JUMPI PUSH2 0x2713 PUSH2 0x32F1 JUMP JUMPDEST JUMPDEST PUSH2 0x2720 DUP7 DUP3 DUP8 ADD PUSH2 0x265C JUMP JUMPDEST SWAP3 POP POP PUSH1 0x40 PUSH2 0x2731 DUP7 DUP3 DUP8 ADD PUSH2 0x2647 JUMP JUMPDEST SWAP2 POP POP SWAP3 POP SWAP3 POP SWAP3 JUMP JUMPDEST PUSH1 0x0 PUSH1 0x20 DUP3 DUP5 SUB SLT ISZERO PUSH2 0x2751 JUMPI PUSH2 0x2750 PUSH2 0x32F6 JUMP JUMPDEST JUMPDEST PUSH1 0x0 DUP3 ADD CALLDATALOAD PUSH8 0xFFFFFFFFFFFFFFFF DUP2 GT ISZERO PUSH2 0x276F JUMPI PUSH2 0x276E PUSH2 0x32F1 JUMP JUMPDEST JUMPDEST PUSH2 0x277B DUP5 DUP3 DUP6 ADD PUSH2 0x265C JUMP JUMPDEST SWAP2 POP POP SWAP3 SWAP2 POP POP JUMP JUMPDEST PUSH1 0x0 DUP1 PUSH1 0x40 DUP4 DUP6 SUB SLT ISZERO PUSH2 0x279B JUMPI PUSH2 0x279A PUSH2 0x32F6 JUMP JUMPDEST JUMPDEST PUSH1 0x0 DUP4 ADD CALLDATALOAD PUSH8 0xFFFFFFFFFFFFFFFF DUP2 GT ISZERO PUSH2 0x27B9 JUMPI PUSH2 0x27B8 PUSH2 0x32F1 JUMP JUMPDEST JUMPDEST PUSH2 0x27C5 DUP6 DUP3 DUP7 ADD PUSH2 0x265C JUMP JUMPDEST SWAP3 POP POP PUSH1 0x20 DUP4 ADD CALLDATALOAD PUSH8 0xFFFFFFFFFFFFFFFF DUP2 GT ISZERO PUSH2 0x27E6 JUMPI PUSH2 0x27E5 PUSH2 0x32F1 JUMP JUMPDEST JUMPDEST PUSH2 0x27F2 DUP6 DUP3 DUP7 ADD PUSH2 0x2604 JUMP JUMPDEST SWAP2 POP POP SWAP3 POP SWAP3 SWAP1 POP JUMP JUMPDEST PUSH1 0x0 DUP1 PUSH1 0x40 DUP4 DUP6 SUB SLT ISZERO PUSH2 0x2813 JUMPI PUSH2 0x2812 PUSH2 0x32F6 JUMP JUMPDEST JUMPDEST PUSH1 0x0 DUP4 ADD CALLDATALOAD PUSH8 0xFFFFFFFFFFFFFFFF DUP2 GT ISZERO PUSH2 0x2831 JUMPI PUSH2 0x2830 PUSH2 0x32F1 JUMP JUMPDEST JUMPDEST PUSH2 0x283D DUP6 DUP3 DUP7 ADD PUSH2 0x265C JUMP JUMPDEST SWAP3 POP POP PUSH1 0x20 PUSH2 0x284E DUP6 DUP3 DUP7 ADD PUSH2 0x2647 JUMP JUMPDEST SWAP2 POP POP SWAP3 POP SWAP3 SWAP1 POP JUMP JUMPDEST PUSH1 0x0 DUP1 PUSH1 0x0 PUSH1 0x60 DUP5 DUP7 SUB SLT ISZERO PUSH2 0x2871 JUMPI PUSH2 0x2870 PUSH2 0x32F6 JUMP JUMPDEST JUMPDEST PUSH1 0x0 DUP5 ADD CALLDATALOAD PUSH8 0xFFFFFFFFFFFFFFFF DUP2 GT ISZERO PUSH2 0x288F JUMPI PUSH2 0x288E PUSH2 0x32F1 JUMP JUMPDEST JUMPDEST PUSH2 0x289B DUP7 DUP3 DUP8 ADD PUSH2 0x265C JUMP JUMPDEST SWAP4 POP POP PUSH1 0x20 DUP5 ADD CALLDATALOAD PUSH8 0xFFFFFFFFFFFFFFFF DUP2 GT ISZERO PUSH2 0x28BC JUMPI PUSH2 0x28BB PUSH2 0x32F1 JUMP JUMPDEST JUMPDEST PUSH2 0x28C8 DUP7 DUP3 DUP8 ADD PUSH2 0x265C JUMP JUMPDEST SWAP3 POP POP PUSH1 0x40 PUSH2 0x28D9 DUP7 DUP3 DUP8 ADD PUSH2 0x268A JUMP JUMPDEST SWAP2 POP POP SWAP3 POP SWAP3 POP SWAP3 JUMP JUMPDEST PUSH1 0x0 DUP1 PUSH1 0x0 PUSH1 0x60 DUP5 DUP7 SUB SLT ISZERO PUSH2 0x28FC JUMPI PUSH2 0x28FB PUSH2 0x32F6 JUMP JUMPDEST JUMPDEST PUSH1 0x0 DUP5 ADD CALLDATALOAD PUSH8 0xFFFFFFFFFFFFFFFF DUP2 GT ISZERO PUSH2 0x291A JUMPI PUSH2 0x2919 PUSH2 0x32F1 JUMP JUMPDEST JUMPDEST PUSH2 0x2926 DUP7 DUP3 DUP8 ADD PUSH2 0x265C JUMP JUMPDEST SWAP4 POP POP PUSH1 0x20 PUSH2 0x2937 DUP7 DUP3 DUP8 ADD PUSH2 0x268A JUMP JUMPDEST SWAP3 POP POP PUSH1 0x40 DUP5 ADD CALLDATALOAD PUSH8 0xFFFFFFFFFFFFFFFF DUP2 GT ISZERO PUSH2 0x2958 JUMPI PUSH2 0x2957 PUSH2 0x32F1 JUMP JUMPDEST JUMPDEST PUSH2 0x2964 DUP7 DUP3 DUP8 ADD PUSH2 0x265C JUMP JUMPDEST SWAP2 POP POP SWAP3 POP SWAP3 POP SWAP3 JUMP JUMPDEST PUSH1 0x0 PUSH1 0x20 DUP3 DUP5 SUB SLT ISZERO PUSH2 0x2984 JUMPI PUSH2 0x2983 PUSH2 0x32F6 JUMP JUMPDEST JUMPDEST PUSH1 0x0 PUSH2 0x2992 DUP5 DUP3 DUP6 ADD PUSH2 0x268A JUMP JUMPDEST SWAP2 POP POP SWAP3 SWAP2 POP POP JUMP JUMPDEST PUSH1 0x0 DUP1 PUSH1 0x40 DUP4 DUP6 SUB SLT ISZERO PUSH2 0x29B2 JUMPI PUSH2 0x29B1 PUSH2 0x32F6 JUMP JUMPDEST JUMPDEST PUSH1 0x0 PUSH2 0x29C0 DUP6 DUP3 DUP7 ADD PUSH2 0x268A JUMP JUMPDEST SWAP3 POP POP PUSH1 0x20 PUSH2 0x29D1 DUP6 DUP3 DUP7 ADD PUSH2 0x2632 JUMP JUMPDEST SWAP2 POP POP SWAP3 POP SWAP3 SWAP1 POP JUMP JUMPDEST PUSH1 0x0 PUSH2 0x29E7 DUP4 DUP4 PUSH2 0x2A91 JUMP JUMPDEST SWAP1 POP SWAP3 SWAP2 POP POP JUMP JUMPDEST PUSH2 0x29F8 DUP2 PUSH2 0x30B7 JUMP JUMPDEST DUP3 MSTORE POP POP JUMP JUMPDEST PUSH1 0x0 PUSH2 0x2A09 DUP3 PUSH2 0x2F9B JUMP JUMPDEST PUSH2 0x2A13 DUP2 DUP6 PUSH2 0x2FBE JUMP JUMPDEST SWAP4 POP DUP4 PUSH1 0x20 DUP3 MUL DUP6 ADD PUSH2 0x2A25 DUP6 PUSH2 0x2F76 JUMP JUMPDEST DUP1 PUSH1 0x0 JUMPDEST DUP6 DUP2 LT ISZERO PUSH2 0x2A61 JUMPI DUP5 DUP5 SUB DUP10 MSTORE DUP2 MLOAD PUSH2 0x2A42 DUP6 DUP3 PUSH2 0x29DB JUMP JUMPDEST SWAP5 POP PUSH2 0x2A4D DUP4 PUSH2 0x2FB1 JUMP JUMPDEST SWAP3 POP PUSH1 0x20 DUP11 ADD SWAP10 POP POP PUSH1 0x1 DUP2 ADD SWAP1 POP PUSH2 0x2A29 JUMP JUMPDEST POP DUP3 SWAP8 POP DUP8 SWAP6 POP POP POP POP POP POP SWAP3 SWAP2 POP POP JUMP JUMPDEST PUSH2 0x2A7C DUP2 PUSH2 0x30C9 JUMP JUMPDEST DUP3 MSTORE POP POP JUMP JUMPDEST PUSH2 0x2A8B DUP2 PUSH2 0x30D5 JUMP JUMPDEST DUP3 MSTORE POP POP JUMP JUMPDEST PUSH1 0x0 PUSH2 0x2A9C DUP3 PUSH2 0x2FA6 JUMP JUMPDEST PUSH2 0x2AA6 DUP2 DUP6 PUSH2 0x2FCF JUMP JUMPDEST SWAP4 POP PUSH2 0x2AB6 DUP2 DUP6 PUSH1 0x20 DUP7 ADD PUSH2 0x3118 JUMP JUMPDEST PUSH2 0x2ABF DUP2 PUSH2 0x32FB JUMP JUMPDEST DUP5 ADD SWAP2 POP POP SWAP3 SWAP2 POP POP JUMP JUMPDEST PUSH1 0x0 PUSH2 0x2AD5 DUP3 PUSH2 0x2FA6 JUMP JUMPDEST PUSH2 0x2ADF DUP2 DUP6 PUSH2 0x2FE0 JUMP JUMPDEST SWAP4 POP PUSH2 0x2AEF DUP2 DUP6 PUSH1 0x20 DUP7 ADD PUSH2 0x3118 JUMP JUMPDEST PUSH2 0x2AF8 DUP2 PUSH2 0x32FB JUMP JUMPDEST DUP5 ADD SWAP2 POP POP SWAP3 SWAP2 POP POP JUMP JUMPDEST PUSH1 0x0 PUSH2 0x2B0E DUP3 PUSH2 0x2FA6 JUMP JUMPDEST PUSH2 0x2B18 DUP2 DUP6 PUSH2 0x2FF1 JUMP JUMPDEST SWAP4 POP PUSH2 0x2B28 DUP2 DUP6 PUSH1 0x20 DUP7 ADD PUSH2 0x3118 JUMP JUMPDEST DUP1 DUP5 ADD SWAP2 POP POP SWAP3 SWAP2 POP POP JUMP JUMPDEST PUSH1 0x0 DUP2 SLOAD PUSH2 0x2B41 DUP2 PUSH2 0x314B JUMP JUMPDEST PUSH2 0x2B4B DUP2 DUP7 PUSH2 0x2FF1 JUMP JUMPDEST SWAP5 POP PUSH1 0x1 DUP3 AND PUSH1 0x0 DUP2 EQ PUSH2 0x2B66 JUMPI PUSH1 0x1 DUP2 EQ PUSH2 0x2B77 JUMPI PUSH2 0x2BAA JUMP JUMPDEST PUSH1 0xFF NOT DUP4 AND DUP7 MSTORE DUP2 DUP7 ADD SWAP4 POP PUSH2 0x2BAA JUMP JUMPDEST PUSH2 0x2B80 DUP6 PUSH2 0x2F86 JUMP JUMPDEST PUSH1 0x0 JUMPDEST DUP4 DUP2 LT ISZERO PUSH2 0x2BA2 JUMPI DUP2 SLOAD DUP2 DUP10 ADD MSTORE PUSH1 0x1 DUP3 ADD SWAP2 POP PUSH1 0x20 DUP2 ADD SWAP1 POP PUSH2 0x2B83 JUMP JUMPDEST DUP4 DUP9 ADD SWAP6 POP POP POP JUMPDEST POP POP POP SWAP3 SWAP2 POP POP JUMP JUMPDEST PUSH1 0x0 PUSH2 0x2BC0 PUSH1 0x19 DUP4 PUSH2 0x2FE0 JUMP JUMPDEST SWAP2 POP PUSH2 0x2BCB DUP3 PUSH2 0x330C JUMP JUMPDEST PUSH1 0x20 DUP3 ADD SWAP1 POP SWAP2 SWAP1 POP JUMP JUMPDEST PUSH1 0x0 PUSH2 0x2BE3 PUSH1 0x17 DUP4 PUSH2 0x2FE0 JUMP JUMPDEST SWAP2 POP PUSH2 0x2BEE DUP3 PUSH2 0x3335 JUMP JUMPDEST PUSH1 0x20 DUP3 ADD SWAP1 POP SWAP2 SWAP1 POP JUMP JUMPDEST PUSH1 0x0 PUSH2 0x2C06 PUSH1 0x19 DUP4 PUSH2 0x2FE0 JUMP JUMPDEST SWAP2 POP PUSH2 0x2C11 DUP3 PUSH2 0x335E JUMP JUMPDEST PUSH1 0x20 DUP3 ADD SWAP1 POP SWAP2 SWAP1 POP JUMP JUMPDEST PUSH1 0x0 PUSH2 0x2C29 PUSH1 0x10 DUP4 PUSH2 0x2FE0 JUMP JUMPDEST SWAP2 POP PUSH2 0x2C34 DUP3 PUSH2 0x3387 JUMP JUMPDEST PUSH1 0x20 DUP3 ADD SWAP1 POP SWAP2 SWAP1 POP JUMP JUMPDEST PUSH1 0x0 PUSH2 0x2C4C PUSH1 0x1D DUP4 PUSH2 0x2FE0 JUMP JUMPDEST SWAP2 POP PUSH2 0x2C57 DUP3 PUSH2 0x33B0 JUMP JUMPDEST PUSH1 0x20 DUP3 ADD SWAP1 POP SWAP2 SWAP1 POP JUMP JUMPDEST PUSH1 0x0 PUSH2 0x2C6F PUSH1 0x21 DUP4 PUSH2 0x2FE0 JUMP JUMPDEST SWAP2 POP PUSH2 0x2C7A DUP3 PUSH2 0x33D9 JUMP JUMPDEST PUSH1 0x40 DUP3 ADD SWAP1 POP SWAP2 SWAP1 POP JUMP JUMPDEST PUSH2 0x2C8E DUP2 PUSH2 0x30FF JUMP JUMPDEST DUP3 MSTORE POP POP JUMP JUMPDEST PUSH1 0x0 PUSH2 0x2CA0 DUP3 DUP5 PUSH2 0x2B03 JUMP JUMPDEST SWAP2 POP DUP2 SWAP1 POP SWAP3 SWAP2 POP POP JUMP JUMPDEST PUSH1 0x0 PUSH2 0x2CB7 DUP3 DUP5 PUSH2 0x2B34 JUMP JUMPDEST SWAP2 POP DUP2 SWAP1 POP SWAP3 SWAP2 POP POP JUMP JUMPDEST PUSH1 0x0 PUSH1 0x20 DUP3 ADD SWAP1 POP PUSH2 0x2CD7 PUSH1 0x0 DUP4 ADD DUP5 PUSH2 0x29EF JUMP JUMPDEST SWAP3 SWAP2 POP POP JUMP JUMPDEST PUSH1 0x0 PUSH1 0x60 DUP3 ADD SWAP1 POP PUSH2 0x2CF2 PUSH1 0x0 DUP4 ADD DUP7 PUSH2 0x29EF JUMP JUMPDEST DUP2 DUP2 SUB PUSH1 0x20 DUP4 ADD MSTORE PUSH2 0x2D04 DUP2 DUP6 PUSH2 0x2ACA JUMP JUMPDEST SWAP1 POP PUSH2 0x2D13 PUSH1 0x40 DUP4 ADD DUP5 PUSH2 0x2A73 JUMP JUMPDEST SWAP5 SWAP4 POP POP POP POP JUMP JUMPDEST PUSH1 0x0 PUSH1 0x80 DUP3 ADD SWAP1 POP PUSH2 0x2D30 PUSH1 0x0 DUP4 ADD DUP8 PUSH2 0x29EF JUMP JUMPDEST DUP2 DUP2 SUB PUSH1 0x20 DUP4 ADD MSTORE PUSH2 0x2D42 DUP2 DUP7 PUSH2 0x2ACA JUMP JUMPDEST SWAP1 POP PUSH2 0x2D51 PUSH1 0x40 DUP4 ADD DUP6 PUSH2 0x2C85 JUMP JUMPDEST PUSH2 0x2D5E PUSH1 0x60 DUP4 ADD DUP5 PUSH2 0x2C85 JUMP JUMPDEST SWAP6 SWAP5 POP POP POP POP POP JUMP JUMPDEST PUSH1 0x0 PUSH1 0x20 DUP3 ADD SWAP1 POP DUP2 DUP2 SUB PUSH1 0x0 DUP4 ADD MSTORE PUSH2 0x2D81 DUP2 DUP5 PUSH2 0x29FE JUMP JUMPDEST SWAP1 POP SWAP3 SWAP2 POP POP JUMP JUMPDEST PUSH1 0x0 PUSH1 0x20 DUP3 ADD SWAP1 POP PUSH2 0x2D9E PUSH1 0x0 DUP4 ADD DUP5 PUSH2 0x2A73 JUMP JUMPDEST SWAP3 SWAP2 POP POP JUMP JUMPDEST PUSH1 0x0 PUSH1 0x20 DUP3 ADD SWAP1 POP PUSH2 0x2DB9 PUSH1 0x0 DUP4 ADD DUP5 PUSH2 0x2A82 JUMP JUMPDEST SWAP3 SWAP2 POP POP JUMP JUMPDEST PUSH1 0x0 PUSH1 0xA0 DUP3 ADD SWAP1 POP DUP2 DUP2 SUB PUSH1 0x0 DUP4 ADD MSTORE PUSH2 0x2DD9 DUP2 DUP9 PUSH2 0x2ACA JUMP JUMPDEST SWAP1 POP PUSH2 0x2DE8 PUSH1 0x20 DUP4 ADD DUP8 PUSH2 0x2A82 JUMP JUMPDEST PUSH2 0x2DF5 PUSH1 0x40 DUP4 ADD DUP7 PUSH2 0x2C85 JUMP JUMPDEST PUSH2 0x2E02 PUSH1 0x60 DUP4 ADD DUP6 PUSH2 0x2C85 JUMP JUMPDEST PUSH2 0x2E0F PUSH1 0x80 DUP4 ADD DUP5 PUSH2 0x2A73 JUMP JUMPDEST SWAP7 SWAP6 POP POP POP POP POP POP JUMP JUMPDEST PUSH1 0x0 PUSH1 0x20 DUP3 ADD SWAP1 POP DUP2 DUP2 SUB PUSH1 0x0 DUP4 ADD MSTORE PUSH2 0x2E32 DUP2 PUSH2 0x2BB3 JUMP JUMPDEST SWAP1 POP SWAP2 SWAP1 POP JUMP JUMPDEST PUSH1 0x0 PUSH1 0x20 DUP3 ADD SWAP1 POP DUP2 DUP2 SUB PUSH1 0x0 DUP4 ADD MSTORE PUSH2 0x2E52 DUP2 PUSH2 0x2BD6 JUMP JUMPDEST SWAP1 POP SWAP2 SWAP1 POP JUMP JUMPDEST PUSH1 0x0 PUSH1 0x20 DUP3 ADD SWAP1 POP DUP2 DUP2 SUB PUSH1 0x0 DUP4 ADD MSTORE PUSH2 0x2E72 DUP2 PUSH2 0x2BF9 JUMP JUMPDEST SWAP1 POP SWAP2 SWAP1 POP JUMP JUMPDEST PUSH1 0x0 PUSH1 0x20 DUP3 ADD SWAP1 POP DUP2 DUP2 SUB PUSH1 0x0 DUP4 ADD MSTORE PUSH2 0x2E92 DUP2 PUSH2 0x2C1C JUMP JUMPDEST SWAP1 POP SWAP2 SWAP1 POP JUMP JUMPDEST PUSH1 0x0 PUSH1 0x20 DUP3 ADD SWAP1 POP DUP2 DUP2 SUB PUSH1 0x0 DUP4 ADD MSTORE PUSH2 0x2EB2 DUP2 PUSH2 0x2C3F JUMP JUMPDEST SWAP1 POP SWAP2 SWAP1 POP JUMP JUMPDEST PUSH1 0x0 PUSH1 0x20 DUP3 ADD SWAP1 POP DUP2 DUP2 SUB PUSH1 0x0 DUP4 ADD MSTORE PUSH2 0x2ED2 DUP2 PUSH2 0x2C62 JUMP JUMPDEST SWAP1 POP SWAP2 SWAP1 POP JUMP JUMPDEST PUSH1 0x0 PUSH1 0x20 DUP3 ADD SWAP1 POP PUSH2 0x2EEE PUSH1 0x0 DUP4 ADD DUP5 PUSH2 0x2C85 JUMP JUMPDEST SWAP3 SWAP2 POP POP JUMP JUMPDEST PUSH1 0x0 PUSH2 0x2EFE PUSH2 0x2F0F JUMP JUMPDEST SWAP1 POP PUSH2 0x2F0A DUP3 DUP3 PUSH2 0x317D JUMP JUMPDEST SWAP2 SWAP1 POP JUMP JUMPDEST PUSH1 0x0 PUSH1 0x40 MLOAD SWAP1 POP SWAP1 JUMP JUMPDEST PUSH1 0x0 PUSH8 0xFFFFFFFFFFFFFFFF DUP3 GT ISZERO PUSH2 0x2F34 JUMPI PUSH2 0x2F33 PUSH2 0x32B3 JUMP JUMPDEST JUMPDEST PUSH1 0x20 DUP3 MUL SWAP1 POP PUSH1 0x20 DUP2 ADD SWAP1 POP SWAP2 SWAP1 POP JUMP JUMPDEST PUSH1 0x0 PUSH8 0xFFFFFFFFFFFFFFFF DUP3 GT ISZERO PUSH2 0x2F60 JUMPI PUSH2 0x2F5F PUSH2 0x32B3 JUMP JUMPDEST JUMPDEST PUSH2 0x2F69 DUP3 PUSH2 0x32FB JUMP JUMPDEST SWAP1 POP PUSH1 0x20 DUP2 ADD SWAP1 POP SWAP2 SWAP1 POP JUMP JUMPDEST PUSH1 0x0 DUP2 SWAP1 POP PUSH1 0x20 DUP3 ADD SWAP1 POP SWAP2 SWAP1 POP JUMP JUMPDEST PUSH1 0x0 DUP2 SWAP1 POP DUP2 PUSH1 0x0 MSTORE PUSH1 0x20 PUSH1 0x0 KECCAK256 SWAP1 POP SWAP2 SWAP1 POP JUMP JUMPDEST PUSH1 0x0 DUP2 MLOAD SWAP1 POP SWAP2 SWAP1 POP JUMP JUMPDEST PUSH1 0x0 DUP2 MLOAD SWAP1 POP SWAP2 SWAP1 POP JUMP JUMPDEST PUSH1 0x0 PUSH1 0x20 DUP3 ADD SWAP1 POP SWAP2 SWAP1 POP JUMP JUMPDEST PUSH1 0x0 DUP3 DUP3 MSTORE PUSH1 0x20 DUP3 ADD SWAP1 POP SWAP3 SWAP2 POP POP JUMP JUMPDEST PUSH1 0x0 DUP3 DUP3 MSTORE PUSH1 0x20 DUP3 ADD SWAP1 POP SWAP3 SWAP2 POP POP JUMP JUMPDEST PUSH1 0x0 DUP3 DUP3 MSTORE PUSH1 0x20 DUP3 ADD SWAP1 POP SWAP3 SWAP2 POP POP JUMP JUMPDEST PUSH1 0x0 DUP2 SWAP1 POP SWAP3 SWAP2 POP POP JUMP JUMPDEST PUSH1 0x0 PUSH2 0x3007 DUP3 PUSH2 0x30FF JUMP JUMPDEST SWAP2 POP PUSH2 0x3012 DUP4 PUSH2 0x30FF JUMP JUMPDEST SWAP3 POP DUP3 PUSH32 0xFFFFFFFFFFFFFFFFFFFFFFFFFFFFFFFFFFFFFFFFFFFFFFFFFFFFFFFFFFFFFFFF SUB DUP3 GT ISZERO PUSH2 0x3047 JUMPI PUSH2 0x3046 PUSH2 0x31F7 JUMP JUMPDEST JUMPDEST DUP3 DUP3 ADD SWAP1 POP SWAP3 SWAP2 POP POP JUMP JUMPDEST PUSH1 0x0 PUSH2 0x305D DUP3 PUSH2 0x30FF JUMP JUMPDEST SWAP2 POP PUSH2 0x3068 DUP4 PUSH2 0x30FF JUMP JUMPDEST SWAP3 POP DUP3 PUSH2 0x3078 JUMPI PUSH2 0x3077 PUSH2 0x3226 JUMP JUMPDEST JUMPDEST DUP3 DUP3 DIV SWAP1 POP SWAP3 SWAP2 POP POP JUMP JUMPDEST PUSH1 0x0 PUSH2 0x308E DUP3 PUSH2 0x30FF JUMP JUMPDEST SWAP2 POP PUSH2 0x3099 DUP4 PUSH2 0x30FF JUMP JUMPDEST SWAP3 POP DUP3 DUP3 LT ISZERO PUSH2 0x30AC JUMPI PUSH2 0x30AB PUSH2 0x31F7 JUMP JUMPDEST JUMPDEST DUP3 DUP3 SUB SWAP1 POP SWAP3 SWAP2 POP POP JUMP JUMPDEST PUSH1 0x0 PUSH2 0x30C2 DUP3 PUSH2 0x30DF JUMP JUMPDEST SWAP1 POP SWAP2 SWAP1 POP JUMP JUMPDEST PUSH1 0x0 DUP2 ISZERO ISZERO SWAP1 POP SWAP2 SWAP1 POP JUMP JUMPDEST PUSH1 0x0 DUP2 SWAP1 POP SWAP2 SWAP1 POP JUMP JUMPDEST PUSH1 0x0 PUSH20 0xFFFFFFFFFFFFFFFFFFFFFFFFFFFFFFFFFFFFFFFF DUP3 AND SWAP1 POP SWAP2 SWAP1 POP JUMP JUMPDEST PUSH1 0x0 DUP2 SWAP1 POP SWAP2 SWAP1 POP JUMP JUMPDEST DUP3 DUP2 DUP4 CALLDATACOPY PUSH1 0x0 DUP4 DUP4 ADD MSTORE POP POP POP JUMP JUMPDEST PUSH1 0x0 JUMPDEST DUP4 DUP2 LT ISZERO PUSH2 0x3136 JUMPI DUP1 DUP3 ADD MLOAD DUP2 DUP5 ADD MSTORE PUSH1 0x20 DUP2 ADD SWAP1 POP PUSH2 0x311B JUMP JUMPDEST DUP4 DUP2 GT ISZERO PUSH2 0x3145 JUMPI PUSH1 0x0 DUP5 DUP5 ADD MSTORE JUMPDEST POP POP POP POP JUMP JUMPDEST PUSH1 0x0 PUSH1 0x2 DUP3 DIV SWAP1 POP PUSH1 0x1 DUP3 AND DUP1 PUSH2 0x3163 JUMPI PUSH1 0x7F DUP3 AND SWAP2 POP JUMPDEST PUSH1 0x20 DUP3 LT DUP2 EQ ISZERO PUSH2 0x3177 JUMPI PUSH2 0x3176 PUSH2 0x3255 JUMP JUMPDEST JUMPDEST POP SWAP2 SWAP1 POP JUMP JUMPDEST PUSH2 0x3186 DUP3 PUSH2 0x32FB JUMP JUMPDEST DUP2 ADD DUP2 DUP2 LT PUSH8 0xFFFFFFFFFFFFFFFF DUP3 GT OR ISZERO PUSH2 0x31A5 JUMPI PUSH2 0x31A4 PUSH2 0x32B3 JUMP JUMPDEST JUMPDEST DUP1 PUSH1 0x40 MSTORE POP POP POP JUMP JUMPDEST PUSH1 0x0 PUSH2 0x31B9 DUP3 PUSH2 0x30FF JUMP JUMPDEST SWAP2 POP PUSH32 0xFFFFFFFFFFFFFFFFFFFFFFFFFFFFFFFFFFFFFFFFFFFFFFFFFFFFFFFFFFFFFFFF DUP3 EQ ISZERO PUSH2 0x31EC JUMPI PUSH2 0x31EB PUSH2 0x31F7 JUMP JUMPDEST JUMPDEST PUSH1 0x1 DUP3 ADD SWAP1 POP SWAP2 SWAP1 POP JUMP JUMPDEST PUSH32 0x4E487B7100000000000000000000000000000000000000000000000000000000 PUSH1 0x0 MSTORE PUSH1 0x11 PUSH1 0x4 MSTORE PUSH1 0x24 PUSH1 0x0 REVERT JUMPDEST PUSH32 0x4E487B7100000000000000000000000000000000000000000000000000000000 PUSH1 0x0 MSTORE PUSH1 0x12 PUSH1 0x4 MSTORE PUSH1 0x24 PUSH1 0x0 REVERT JUMPDEST PUSH32 0x4E487B7100000000000000000000000000000000000000000000000000000000 PUSH1 0x0 MSTORE PUSH1 0x22 PUSH1 0x4 MSTORE PUSH1 0x24 PUSH1 0x0 REVERT JUMPDEST PUSH32 0x4E487B7100000000000000000000000000000000000000000000000000000000 PUSH1 0x0 MSTORE PUSH1 0x32 PUSH1 0x4 MSTORE PUSH1 0x24 PUSH1 0x0 REVERT JUMPDEST PUSH32 0x4E487B7100000000000000000000000000000000000000000000000000000000 PUSH1 0x0 MSTORE PUSH1 0x41 PUSH1 0x4 MSTORE PUSH1 0x24 PUSH1 0x0 REVERT JUMPDEST PUSH1 0x0 DUP1 REVERT JUMPDEST PUSH1 0x0 DUP1 REVERT JUMPDEST PUSH1 0x0 DUP1 REVERT JUMPDEST PUSH1 0x0 DUP1 REVERT JUMPDEST PUSH1 0x0 DUP1 REVERT JUMPDEST PUSH1 0x0 PUSH1 0x1F NOT PUSH1 0x1F DUP4 ADD AND SWAP1 POP SWAP2 SWAP1 POP JUMP JUMPDEST PUSH32 0x4572726F723A205573657220616C726561647920657869737400000000000000 PUSH1 0x0 DUP3 ADD MSTORE POP JUMP JUMPDEST PUSH32 0x4572726F723A20496E76616C69642070617373776F7264000000000000000000 PUSH1 0x0 DUP3 ADD MSTORE POP JUMP JUMPDEST PUSH32 0x4572726F723A205573657220646F65736E277420657869737400000000000000 PUSH1 0x0 DUP3 ADD MSTORE POP JUMP JUMPDEST PUSH32 0x6572726F723A206E6F74206D6F6E657900000000000000000000000000000000 PUSH1 0x0 DUP3 ADD MSTORE POP JUMP JUMPDEST PUSH32 0x4572726F723A20596F752061726520616C7265616479206C6F67676564000000 PUSH1 0x0 DUP3 ADD MSTORE POP JUMP JUMPDEST PUSH32 0x6572726F723A20726174696E672063616E2062652066726F6D203120746F2031 PUSH1 0x0 DUP3 ADD MSTORE PUSH32 0x3000000000000000000000000000000000000000000000000000000000000000 PUSH1 0x20 DUP3 ADD MSTORE POP JUMP JUMPDEST PUSH2 0x3431 DUP2 PUSH2 0x30B7 JUMP JUMPDEST DUP2 EQ PUSH2 0x343C JUMPI PUSH1 0x0 DUP1 REVERT JUMPDEST POP JUMP JUMPDEST PUSH2 0x3448 DUP2 PUSH2 0x30C9 JUMP JUMPDEST DUP2 EQ PUSH2 0x3453 JUMPI PUSH1 0x0 DUP1 REVERT JUMPDEST POP JUMP JUMPDEST PUSH2 0x345F DUP2 PUSH2 0x30D5 JUMP JUMPDEST DUP2 EQ PUSH2 0x346A JUMPI PUSH1 0x0 DUP1 REVERT JUMPDEST POP JUMP JUMPDEST PUSH2 0x3476 DUP2 PUSH2 0x30FF JUMP JUMPDEST DUP2 EQ PUSH2 0x3481 JUMPI PUSH1 0x0 DUP1 REVERT JUMPDEST POP JUMP INVALID LOG2 PUSH5 0x6970667358 0x22 SLT KECCAK256 0xD6 0xB1 0xB6 NOT 0xF9 0xAB PC OR 0xDE 0xBE JUMPI DUP5 0xD9 0xCB JUMPDEST 0x49 PUSH5 0x8626CE430F PUSH27 0x8CB1535CE123C8BCA464736F6C6343000807003300000000000000 "
				},
				"gasEstimates": {
					"creation": {
						"codeDepositCost": "2699600",
						"executionCost": "infinite",
						"totalCost": "infinite"
					},
					"external": {
						"MarriageRegistration(uint256,bool)": "infinite",
						"acceptPurchase(uint256,bool)": "infinite",
						"acceptReturn(uint256,bool)": "infinite",
						"addProductShop(string,uint256,string)": "infinite",
						"check_logged(string)": "infinite",
						"create_user(address,string,bytes32)": "infinite",
						"getProductList()": "infinite",
						"getShopList()": "infinite",
						"getStoryRating(string)": "infinite",
						"get_address(string)": "infinite",
						"get_hash(string)": "infinite",
						"leaveComment(string,string[])": "infinite",
						"leaveFeedback(string,string,uint256)": "infinite",
						"login_user(string,bytes32)": "infinite",
						"productMarriageRegistration(string)": "infinite",
						"productPurchases(string)": "infinite",
						"productReturn(string)": "infinite",
						"shopLists(string)": "infinite",
						"structMarriageRegistrations(uint256)": "infinite",
						"structProducts(string)": "infinite",
						"structStatusPurchases(uint256)": "infinite",
						"structStatusReturns(uint256)": "infinite",
						"structUserLogins(string)": "infinite",
						"structUsers(address)": "infinite"
					}
				},
				"methodIdentifiers": {
					"MarriageRegistration(uint256,bool)": "f69483c1",
					"acceptPurchase(uint256,bool)": "0c72b1ec",
					"acceptReturn(uint256,bool)": "2ccdef7c",
					"addProductShop(string,uint256,string)": "6c05dd1d",
					"check_logged(string)": "c26da2f8",
					"create_user(address,string,bytes32)": "0e1c81b2",
					"getProductList()": "34d2c0ad",
					"getShopList()": "c178b9af",
					"getStoryRating(string)": "a985036d",
					"get_address(string)": "6ba44d3c",
					"get_hash(string)": "845952a8",
					"leaveComment(string,string[])": "29e795f3",
					"leaveFeedback(string,string,uint256)": "cc21c188",
					"login_user(string,bytes32)": "d22d9020",
					"productMarriageRegistration(string)": "2d4673e3",
					"productPurchases(string)": "146dc6ed",
					"productReturn(string)": "bbd43363",
					"shopLists(string)": "c4957fa0",
					"structMarriageRegistrations(uint256)": "7ddb273d",
					"structProducts(string)": "d68cf8c1",
					"structStatusPurchases(uint256)": "dce39151",
					"structStatusReturns(uint256)": "a9f9482b",
					"structUserLogins(string)": "1bbe970a",
					"structUsers(address)": "961865f0"
				}
			},
			"userdoc": {
				"kind": "user",
				"methods": {},
				"version": 1
			}
		}
	}
}