{
	"Documents/GitHub/Store-system-with-feedback/main.sol": {
		"coursepaper": {
			"abi": [
				{
					"inputs": [],
					"stateMutability": "nonpayable",
					"type": "constructor"
				},
				{
					"inputs": [
						{
							"internalType": "uint256",
							"name": "idMarriageRegistration",
							"type": "uint256"
						},
						{
							"internalType": "bool",
							"name": "confirmation",
							"type": "bool"
						}
					],
					"name": "MarriageRegistration",
					"outputs": [],
					"stateMutability": "nonpayable",
					"type": "function"
				},
				{
					"inputs": [
						{
							"internalType": "uint256",
							"name": "idPurchase",
							"type": "uint256"
						},
						{
							"internalType": "bool",
							"name": "confirmation",
							"type": "bool"
						}
					],
					"name": "acceptPurchase",
					"outputs": [],
					"stateMutability": "nonpayable",
					"type": "function"
				},
				{
					"inputs": [
						{
							"internalType": "uint256",
							"name": "idReturn",
							"type": "uint256"
						},
						{
							"internalType": "bool",
							"name": "confirmation",
							"type": "bool"
						}
					],
					"name": "acceptReturn",
					"outputs": [],
					"stateMutability": "nonpayable",
					"type": "function"
				},
				{
					"inputs": [
						{
							"internalType": "string",
							"name": "title",
							"type": "string"
						},
						{
							"internalType": "uint256",
							"name": "price",
							"type": "uint256"
						},
						{
							"internalType": "string",
							"name": "description",
							"type": "string"
						}
					],
					"name": "addProductShop",
					"outputs": [],
					"stateMutability": "nonpayable",
					"type": "function"
				},
				{
					"inputs": [
						{
							"internalType": "string",
							"name": "login",
							"type": "string"
						}
					],
					"name": "check_logged",
					"outputs": [
						{
							"internalType": "bool",
							"name": "",
							"type": "bool"
						}
					],
					"stateMutability": "view",
					"type": "function"
				},
				{
					"inputs": [
						{
							"internalType": "address",
							"name": "addr",
							"type": "address"
						},
						{
							"internalType": "string",
							"name": "login",
							"type": "string"
						},
						{
							"internalType": "bytes32",
							"name": "password",
							"type": "bytes32"
						}
					],
					"name": "create_user",
					"outputs": [],
					"stateMutability": "nonpayable",
					"type": "function"
				},
				{
					"inputs": [],
					"name": "getProductList",
					"outputs": [
						{
							"internalType": "string[]",
							"name": "",
							"type": "string[]"
						}
					],
					"stateMutability": "view",
					"type": "function"
				},
				{
					"inputs": [],
					"name": "getShopList",
					"outputs": [
						{
							"internalType": "string[]",
							"name": "",
							"type": "string[]"
						}
					],
					"stateMutability": "view",
					"type": "function"
				},
				{
					"inputs": [
						{
							"internalType": "string",
							"name": "shopName",
							"type": "string"
						}
					],
					"name": "getStoryRating",
					"outputs": [
						{
							"internalType": "uint256",
							"name": "",
							"type": "uint256"
						}
					],
					"stateMutability": "view",
					"type": "function"
				},
				{
					"inputs": [
						{
							"internalType": "string",
							"name": "login",
							"type": "string"
						}
					],
					"name": "get_address",
					"outputs": [
						{
							"internalType": "address",
							"name": "",
							"type": "address"
						}
					],
					"stateMutability": "view",
					"type": "function"
				},
				{
					"inputs": [
						{
							"internalType": "string",
							"name": "password",
							"type": "string"
						}
					],
					"name": "get_hash",
					"outputs": [
						{
							"internalType": "bytes32",
							"name": "",
							"type": "bytes32"
						}
					],
					"stateMutability": "pure",
					"type": "function"
				},
				{
					"inputs": [
						{
							"internalType": "string",
							"name": "userName",
							"type": "string"
						},
						{
							"internalType": "string[]",
							"name": "comment",
							"type": "string[]"
						}
					],
					"name": "leaveComment",
					"outputs": [],
					"stateMutability": "nonpayable",
					"type": "function"
				},
				{
					"inputs": [
						{
							"internalType": "string",
							"name": "shop",
							"type": "string"
						},
						{
							"internalType": "string",
							"name": "feedback",
							"type": "string"
						},
						{
							"internalType": "uint256",
							"name": "rating",
							"type": "uint256"
						}
					],
					"name": "leaveFeedback",
					"outputs": [],
					"stateMutability": "nonpayable",
					"type": "function"
				},
				{
					"inputs": [
						{
							"internalType": "string",
							"name": "login",
							"type": "string"
						},
						{
							"internalType": "bytes32",
							"name": "password",
							"type": "bytes32"
						}
					],
					"name": "login_user",
					"outputs": [],
					"stateMutability": "nonpayable",
					"type": "function"
				},
				{
					"inputs": [
						{
							"internalType": "string",
							"name": "titleProduct",
							"type": "string"
						}
					],
					"name": "productMarriageRegistration",
					"outputs": [],
					"stateMutability": "nonpayable",
					"type": "function"
				},
				{
					"inputs": [
						{
							"internalType": "string",
							"name": "titleProduct",
							"type": "string"
						}
					],
					"name": "productPurchases",
					"outputs": [],
					"stateMutability": "nonpayable",
					"type": "function"
				},
				{
					"inputs": [
						{
							"internalType": "string",
							"name": "titleProduct",
							"type": "string"
						}
					],
					"name": "productReturn",
					"outputs": [],
					"stateMutability": "nonpayable",
					"type": "function"
				},
				{
					"inputs": [
						{
							"internalType": "string",
							"name": "",
							"type": "string"
						}
					],
					"name": "shopLists",
					"outputs": [
						{
							"internalType": "address",
							"name": "",
							"type": "address"
						}
					],
					"stateMutability": "view",
					"type": "function"
				},
				{
					"inputs": [
						{
							"internalType": "uint256",
							"name": "",
							"type": "uint256"
						}
					],
					"name": "structMarriageRegistrations",
					"outputs": [
						{
							"internalType": "address",
							"name": "userLogin",
							"type": "address"
						},
						{
							"internalType": "string",
							"name": "titleProduct",
							"type": "string"
						},
						{
							"internalType": "bool",
							"name": "status",
							"type": "bool"
						}
					],
					"stateMutability": "view",
					"type": "function"
				},
				{
					"inputs": [
						{
							"internalType": "string",
							"name": "",
							"type": "string"
						}
					],
					"name": "structProducts",
					"outputs": [
						{
							"internalType": "address",
							"name": "shop",
							"type": "address"
						},
						{
							"internalType": "string",
							"name": "description",
							"type": "string"
						},
						{
							"internalType": "uint256",
							"name": "price",
							"type": "uint256"
						},
						{
							"internalType": "uint256",
							"name": "id",
							"type": "uint256"
						}
					],
					"stateMutability": "view",
					"type": "function"
				},
				{
					"inputs": [
						{
							"internalType": "uint256",
							"name": "",
							"type": "uint256"
						}
					],
					"name": "structStatusPurchases",
					"outputs": [
						{
							"internalType": "address",
							"name": "userLogin",
							"type": "address"
						},
						{
							"internalType": "string",
							"name": "titleProduct",
							"type": "string"
						},
						{
							"internalType": "bool",
							"name": "status",
							"type": "bool"
						}
					],
					"stateMutability": "view",
					"type": "function"
				},
				{
					"inputs": [
						{
							"internalType": "uint256",
							"name": "",
							"type": "uint256"
						}
					],
					"name": "structStatusReturns",
					"outputs": [
						{
							"internalType": "address",
							"name": "userLogin",
							"type": "address"
						},
						{
							"internalType": "string",
							"name": "titleProduct",
							"type": "string"
						},
						{
							"internalType": "bool",
							"name": "status",
							"type": "bool"
						}
					],
					"stateMutability": "view",
					"type": "function"
				},
				{
					"inputs": [
						{
							"internalType": "string",
							"name": "",
							"type": "string"
						}
					],
					"name": "structUserLogins",
					"outputs": [
						{
							"internalType": "address",
							"name": "",
							"type": "address"
						}
					],
					"stateMutability": "view",
					"type": "function"
				},
				{
					"inputs": [
						{
							"internalType": "address",
							"name": "",
							"type": "address"
						}
					],
					"name": "structUsers",
					"outputs": [
						{
							"internalType": "string",
							"name": "userName",
							"type": "string"
						},
						{
							"internalType": "bytes32",
							"name": "password",
							"type": "bytes32"
						},
						{
							"internalType": "uint256",
							"name": "ballance",
							"type": "uint256"
						},
						{
							"internalType": "uint256",
							"name": "role",
							"type": "uint256"
						},
						{
							"internalType": "bool",
							"name": "logged",
							"type": "bool"
						}
					],
					"stateMutability": "view",
					"type": "function"
				}
			],
			"devdoc": {
				"kind": "dev",
				"methods": {},
				"version": 1
			},
			"evm": {
				"assembly": "    /* \"Documents/GitHub/Store-system-with-feedback/main.sol\":74:9635  contract coursepaper {\r... */\n  mstore(0x40, 0x80)\n    /* \"Documents/GitHub/Store-system-with-feedback/main.sol\":3278:3279  0 */\n  0x00\n    /* \"Documents/GitHub/Store-system-with-feedback/main.sol\":3243:3279  uint256 addProductShop_idProduct = 0 */\n  0x0d\n  sstore\n    /* \"Documents/GitHub/Store-system-with-feedback/main.sol\":129:916  constructor() public {\r... */\n  callvalue\n  dup1\n  iszero\n  tag_1\n  jumpi\n  0x00\n  dup1\n  revert\ntag_1:\n  pop\n    /* \"Documents/GitHub/Store-system-with-feedback/main.sol\":232:289  structShop(\"Food\", get_hash(\"1\"), \"1\", \"Moscow\", 1000, 0) */\n  mload(0x40)\n  dup1\n  0xc0\n  add\n  0x40\n  mstore\n  dup1\n  mload(0x40)\n  dup1\n  0x40\n  add\n  0x40\n  mstore\n  dup1\n  0x04\n  dup2\n  mstore\n  0x20\n  add\n  shl(0xe2, 0x119bdbd9)\n  dup2\n  mstore\n  pop\n  dup2\n  mstore\n  0x20\n  add\n    /* \"Documents/GitHub/Store-system-with-feedback/main.sol\":251:264  get_hash(\"1\") */\n  tag_4\n  mload(0x40)\n  dup1\n  0x40\n  add\n  0x40\n  mstore\n  dup1\n  0x01\n  dup2\n  mstore\n  0x20\n  add\n  shl(0xf8, 0x31)\n  dup2\n  mstore\n  pop\n    /* \"Documents/GitHub/Store-system-with-feedback/main.sol\":251:259  get_hash */\n  shl(0x20, tag_5)\n    /* \"Documents/GitHub/Store-system-with-feedback/main.sol\":251:264  get_hash(\"1\") */\n  0x20\n  shr\n  jump\t// in\ntag_4:\n    /* \"Documents/GitHub/Store-system-with-feedback/main.sol\":232:289  structShop(\"Food\", get_hash(\"1\"), \"1\", \"Moscow\", 1000, 0) */\n  dup2\n  mstore\n  0x40\n  dup1\n  mload\n  dup1\n  dup3\n  add\n  dup3\n  mstore\n  0x01\n  dup2\n  mstore\n  shl(0xf8, 0x31)\n  0x20\n  dup3\n  dup2\n  add\n  swap2\n  swap1\n  swap2\n  mstore\n  dup1\n  dup5\n  add\n  swap2\n  swap1\n  swap2\n  mstore\n  dup2\n  mload\n  dup1\n  dup4\n  add\n  dup4\n  mstore\n  0x06\n  dup2\n  mstore\n  shl(0xd0, 0x4d6f73636f77)\n  dup2\n  dup4\n  add\n  mstore\n  swap2\n  dup4\n  add\n  swap2\n  swap1\n  swap2\n  mstore\n    /* \"Documents/GitHub/Store-system-with-feedback/main.sol\":281:285  1000 */\n  0x03e8\n    /* \"Documents/GitHub/Store-system-with-feedback/main.sol\":232:289  structShop(\"Food\", get_hash(\"1\"), \"1\", \"Moscow\", 1000, 0) */\n  0x60\n  dup4\n  add\n  mstore\n  0x00\n  0x80\n  swap1\n  swap3\n  add\n  dup3\n  swap1\n  mstore\n    /* \"Documents/GitHub/Store-system-with-feedback/main.sol\":186:228  0x22140e5EEE5a0341a107bd6A65ee0F5BB72DEb90 */\n  0x22140e5eee5a0341a107bd6a65ee0f5bb72deb90\n    /* \"Documents/GitHub/Store-system-with-feedback/main.sol\":180:229  shops[0x22140e5EEE5a0341a107bd6A65ee0F5BB72DEb90] */\n  dup3\n  mstore\n  swap1\n  dup2\n  mstore\n    /* \"Documents/GitHub/Store-system-with-feedback/main.sol\":180:289  shops[0x22140e5EEE5a0341a107bd6A65ee0F5BB72DEb90] = structShop(\"Food\", get_hash(\"1\"), \"1\", \"Moscow\", 1000, 0) */\n  dup2\n  mload\n  dup1\n  mload\n  0x00\n  dup1\n  mload\n  0x20\n  data_8993e1cd58841905be2f38dff5727bfce5465d113cd407e0076bae0c6cf830da\n  dup4\n  codecopy\n  dup2\n  mload\n  swap2\n  mstore\n    /* \"Documents/GitHub/Store-system-with-feedback/main.sol\":180:229  shops[0x22140e5EEE5a0341a107bd6A65ee0F5BB72DEb90] */\n  swap3\n    /* \"Documents/GitHub/Store-system-with-feedback/main.sol\":180:289  shops[0x22140e5EEE5a0341a107bd6A65ee0F5BB72DEb90] = structShop(\"Food\", get_hash(\"1\"), \"1\", \"Moscow\", 1000, 0) */\n  tag_6\n  swap3\n    /* \"Documents/GitHub/Store-system-with-feedback/main.sol\":180:229  shops[0x22140e5EEE5a0341a107bd6A65ee0F5BB72DEb90] */\n  dup5\n  swap3\n    /* \"Documents/GitHub/Store-system-with-feedback/main.sol\":180:289  shops[0x22140e5EEE5a0341a107bd6A65ee0F5BB72DEb90] = structShop(\"Food\", get_hash(\"1\"), \"1\", \"Moscow\", 1000, 0) */\n  swap2\n  add\n  swap1\n  tag_7\n  jump\t// in\ntag_6:\n  pop\n  0x20\n  dup3\n  dup2\n  add\n  mload\n  0x01\n  dup4\n  add\n  sstore\n  0x40\n  dup4\n  add\n  mload\n  dup1\n  mload\n  tag_8\n  swap3\n  0x02\n  dup6\n  add\n  swap3\n  add\n  swap1\n  tag_7\n  jump\t// in\ntag_8:\n  pop\n  0x60\n  dup3\n  add\n  mload\n  dup1\n  mload\n  tag_9\n  swap2\n  0x03\n  dup5\n  add\n  swap2\n  0x20\n  swap1\n  swap2\n  add\n  swap1\n  tag_7\n  jump\t// in\ntag_9:\n  pop\n  0x80\n  dup3\n  add\n  mload\n  0x04\n  dup3\n  add\n  sstore\n  0xa0\n  swap1\n  swap2\n  add\n  mload\n  0x05\n  swap1\n  swap2\n  add\n  sstore\n  0x00\n    /* \"Documents/GitHub/Store-system-with-feedback/main.sol\":314:363  shops[0x22140e5EEE5a0341a107bd6A65ee0F5BB72DEb90] */\n  0x20\n  dup2\n  swap1\n  mstore\n    /* \"Documents/GitHub/Store-system-with-feedback/main.sol\":300:308  shopList */\n  0x02\n    /* \"Documents/GitHub/Store-system-with-feedback/main.sol\":300:369  shopList.push(shops[0x22140e5EEE5a0341a107bd6A65ee0F5BB72DEb90].name) */\n  dup1\n  sload\n  0x01\n  dup2\n  add\n  dup3\n  sstore\n  swap2\n  mstore\n  0x00\n  dup1\n  mload\n  0x20\n  data_8993e1cd58841905be2f38dff5727bfce5465d113cd407e0076bae0c6cf830da\n  dup4\n  codecopy\n  dup2\n  mload\n  swap2\n  mstore\n  dup1\n  sload\n  0x00\n  dup1\n  mload\n  0x20\n  data_1ab0c6948a275349ae45a06aad66a8bd65ac18074615d53676c09b67809099e0\n  dup4\n  codecopy\n  dup2\n  mload\n  swap2\n  mstore\n  swap1\n  swap3\n  add\n  swap2\n  tag_11\n  swap1\n  tag_12\n  jump\t// in\ntag_11:\n  tag_13\n  swap3\n  swap2\n  swap1\n  tag_14\n  jump\t// in\ntag_13:\n  pop\n    /* \"Documents/GitHub/Store-system-with-feedback/main.sol\":432:496  structShop(\"Clothes\", get_hash(\"1\"), \"2\", \"Petersburg\", 1000, 0) */\n  mload(0x40)\n  dup1\n  0xc0\n  add\n  0x40\n  mstore\n  dup1\n  mload(0x40)\n  dup1\n  0x40\n  add\n  0x40\n  mstore\n  dup1\n  0x07\n  dup2\n  mstore\n  0x20\n  add\n  shl(0xc8, 0x436c6f74686573)\n  dup2\n  mstore\n  pop\n  dup2\n  mstore\n  0x20\n  add\n    /* \"Documents/GitHub/Store-system-with-feedback/main.sol\":454:467  get_hash(\"1\") */\n  tag_15\n  mload(0x40)\n  dup1\n  0x40\n  add\n  0x40\n  mstore\n  dup1\n  0x01\n  dup2\n  mstore\n  0x20\n  add\n  shl(0xf8, 0x31)\n  dup2\n  mstore\n  pop\n    /* \"Documents/GitHub/Store-system-with-feedback/main.sol\":454:462  get_hash */\n  shl(0x20, tag_5)\n    /* \"Documents/GitHub/Store-system-with-feedback/main.sol\":454:467  get_hash(\"1\") */\n  0x20\n  shr\n  jump\t// in\ntag_15:\n    /* \"Documents/GitHub/Store-system-with-feedback/main.sol\":432:496  structShop(\"Clothes\", get_hash(\"1\"), \"2\", \"Petersburg\", 1000, 0) */\n  dup2\n  mstore\n  0x40\n  dup1\n  mload\n  dup1\n  dup3\n  add\n  dup3\n  mstore\n  0x01\n  dup2\n  mstore\n  shl(0xf9, 0x19)\n  0x20\n  dup3\n  dup2\n  add\n  swap2\n  swap1\n  swap2\n  mstore\n  dup1\n  dup5\n  add\n  swap2\n  swap1\n  swap2\n  mstore\n  dup2\n  mload\n  dup1\n  dup4\n  add\n  dup4\n  mstore\n  0x0a\n  dup2\n  mstore\n  shl(0xb0, 0x50657465727362757267)\n  dup2\n  dup4\n  add\n  mstore\n  swap2\n  dup4\n  add\n  swap2\n  swap1\n  swap2\n  mstore\n    /* \"Documents/GitHub/Store-system-with-feedback/main.sol\":488:492  1000 */\n  0x03e8\n    /* \"Documents/GitHub/Store-system-with-feedback/main.sol\":432:496  structShop(\"Clothes\", get_hash(\"1\"), \"2\", \"Petersburg\", 1000, 0) */\n  0x60\n  dup4\n  add\n  mstore\n  0x00\n  0x80\n  swap1\n  swap3\n  add\n  dup3\n  swap1\n  mstore\n    /* \"Documents/GitHub/Store-system-with-feedback/main.sol\":386:428  0x32BBfd99DFCF2a15c1D278a19856683930A8be0B */\n  0x32bbfd99dfcf2a15c1d278a19856683930a8be0b\n    /* \"Documents/GitHub/Store-system-with-feedback/main.sol\":380:429  shops[0x32BBfd99DFCF2a15c1D278a19856683930A8be0B] */\n  dup3\n  mstore\n  swap1\n  dup2\n  mstore\n    /* \"Documents/GitHub/Store-system-with-feedback/main.sol\":380:496  shops[0x32BBfd99DFCF2a15c1D278a19856683930A8be0B] = structShop(\"Clothes\", get_hash(\"1\"), \"2\", \"Petersburg\", 1000, 0) */\n  dup2\n  mload\n  dup1\n  mload\n  0x00\n  dup1\n  mload\n  0x20\n  data_f4d17a50b75ba59f6ac3e704dcdf75304eb544678a920cb7cfcd9a84a7945e49\n  dup4\n  codecopy\n  dup2\n  mload\n  swap2\n  mstore\n    /* \"Documents/GitHub/Store-system-with-feedback/main.sol\":380:429  shops[0x32BBfd99DFCF2a15c1D278a19856683930A8be0B] */\n  swap3\n    /* \"Documents/GitHub/Store-system-with-feedback/main.sol\":380:496  shops[0x32BBfd99DFCF2a15c1D278a19856683930A8be0B] = structShop(\"Clothes\", get_hash(\"1\"), \"2\", \"Petersburg\", 1000, 0) */\n  tag_16\n  swap3\n    /* \"Documents/GitHub/Store-system-with-feedback/main.sol\":380:429  shops[0x32BBfd99DFCF2a15c1D278a19856683930A8be0B] */\n  dup5\n  swap3\n    /* \"Documents/GitHub/Store-system-with-feedback/main.sol\":380:496  shops[0x32BBfd99DFCF2a15c1D278a19856683930A8be0B] = structShop(\"Clothes\", get_hash(\"1\"), \"2\", \"Petersburg\", 1000, 0) */\n  swap2\n  add\n  swap1\n  tag_7\n  jump\t// in\ntag_16:\n  pop\n  0x20\n  dup3\n  dup2\n  add\n  mload\n  0x01\n  dup4\n  add\n  sstore\n  0x40\n  dup4\n  add\n  mload\n  dup1\n  mload\n  tag_17\n  swap3\n  0x02\n  dup6\n  add\n  swap3\n  add\n  swap1\n  tag_7\n  jump\t// in\ntag_17:\n  pop\n  0x60\n  dup3\n  add\n  mload\n  dup1\n  mload\n  tag_18\n  swap2\n  0x03\n  dup5\n  add\n  swap2\n  0x20\n  swap1\n  swap2\n  add\n  swap1\n  tag_7\n  jump\t// in\ntag_18:\n  pop\n  0x80\n  dup3\n  add\n  mload\n  0x04\n  dup3\n  add\n  sstore\n  0xa0\n  swap1\n  swap2\n  add\n  mload\n  0x05\n  swap1\n  swap2\n  add\n  sstore\n  0x00\n    /* \"Documents/GitHub/Store-system-with-feedback/main.sol\":521:570  shops[0x32BBfd99DFCF2a15c1D278a19856683930A8be0B] */\n  0x20\n  dup2\n  swap1\n  mstore\n    /* \"Documents/GitHub/Store-system-with-feedback/main.sol\":507:515  shopList */\n  0x02\n    /* \"Documents/GitHub/Store-system-with-feedback/main.sol\":507:576  shopList.push(shops[0x32BBfd99DFCF2a15c1D278a19856683930A8be0B].name) */\n  dup1\n  sload\n  0x01\n  dup2\n  add\n  dup3\n  sstore\n  swap2\n  mstore\n  0x00\n  dup1\n  mload\n  0x20\n  data_f4d17a50b75ba59f6ac3e704dcdf75304eb544678a920cb7cfcd9a84a7945e49\n  dup4\n  codecopy\n  dup2\n  mload\n  swap2\n  mstore\n  dup1\n  sload\n  0x00\n  dup1\n  mload\n  0x20\n  data_1ab0c6948a275349ae45a06aad66a8bd65ac18074615d53676c09b67809099e0\n  dup4\n  codecopy\n  dup2\n  mload\n  swap2\n  mstore\n  swap1\n  swap3\n  add\n  swap2\n  tag_20\n  swap1\n  tag_12\n  jump\t// in\ntag_20:\n  tag_21\n  swap3\n  swap2\n  swap1\n  tag_14\n  jump\t// in\ntag_21:\n  pop\n    /* \"Documents/GitHub/Store-system-with-feedback/main.sol\":632:674  0xC152aD455B16d865F2344140dEc6Ea95cb361e8A */\n  0xc152ad455b16d865f2344140dec6ea95cb361e8a\n    /* \"Documents/GitHub/Store-system-with-feedback/main.sol\":605:621  structUserLogins */\n  0x05\n    /* \"Documents/GitHub/Store-system-with-feedback/main.sol\":605:629  structUserLogins[\"Peta\"] */\n  mload(0x40)\n  tag_22\n  swap1\n  shl(0xe0, 0x50657461)\n    /* \"#utility.yul\":649:668   */\n  dup2\n  mstore\n    /* \"#utility.yul\":693:694   */\n  0x04\n    /* \"#utility.yul\":684:695   */\n  add\n  swap1\n    /* \"#utility.yul\":447:701   */\n  jump\n    /* \"Documents/GitHub/Store-system-with-feedback/main.sol\":605:629  structUserLogins[\"Peta\"] */\ntag_22:\n  swap1\n  dup2\n  mstore\n  0x40\n  dup1\n  mload\n  0x20\n  swap3\n  dup2\n  swap1\n  sub\n  dup4\n  add\n  dup2\n  keccak256\n    /* \"Documents/GitHub/Store-system-with-feedback/main.sol\":605:674  structUserLogins[\"Peta\"] = 0xC152aD455B16d865F2344140dEc6Ea95cb361e8A */\n  dup1\n  sload\n  not(sub(shl(0xa0, 0x01), 0x01))\n  and\n  sub(shl(0xa0, 0x01), 0x01)\n  swap6\n  swap1\n  swap6\n  and\n  swap5\n  swap1\n  swap5\n  or\n  swap1\n  swap4\n  sstore\n    /* \"Documents/GitHub/Store-system-with-feedback/main.sol\":743:793  structUser(\"Peta\" , get_hash(\"2\"), 1000, 0, false) */\n  0xe0\n  dup4\n  add\n  dup2\n  mstore\n  0x04\n  0xa0\n  dup5\n  add\n  swap1\n  dup2\n  mstore\n  shl(0xe0, 0x50657461)\n  0xc0\n  dup6\n  add\n  mstore\n  dup4\n  mstore\n    /* \"Documents/GitHub/Store-system-with-feedback/main.sol\":763:776  get_hash(\"2\") */\n  dup1\n  mload\n  dup1\n  dup3\n  add\n  swap1\n  swap2\n  mstore\n  0x01\n  dup2\n  mstore\n  shl(0xf9, 0x19)\n  dup2\n  dup4\n  add\n  mstore\n    /* \"Documents/GitHub/Store-system-with-feedback/main.sol\":743:793  structUser(\"Peta\" , get_hash(\"2\"), 1000, 0, false) */\n  swap1\n  dup3\n  add\n  swap1\n    /* \"Documents/GitHub/Store-system-with-feedback/main.sol\":763:776  get_hash(\"2\") */\n  tag_24\n  swap1\n    /* \"Documents/GitHub/Store-system-with-feedback/main.sol\":763:771  get_hash */\n  tag_5\n    /* \"Documents/GitHub/Store-system-with-feedback/main.sol\":763:776  get_hash(\"2\") */\n  jump\t// in\ntag_24:\n    /* \"Documents/GitHub/Store-system-with-feedback/main.sol\":743:793  structUser(\"Peta\" , get_hash(\"2\"), 1000, 0, false) */\n  dup2\n  mstore\n    /* \"Documents/GitHub/Store-system-with-feedback/main.sol\":778:782  1000 */\n  0x03e8\n    /* \"Documents/GitHub/Store-system-with-feedback/main.sol\":743:793  structUser(\"Peta\" , get_hash(\"2\"), 1000, 0, false) */\n  0x20\n  dup1\n  dup4\n  add\n  swap2\n  swap1\n  swap2\n  mstore\n  0x00\n  0x40\n  dup4\n  add\n  dup2\n  swap1\n  mstore\n  0x60\n  swap1\n  swap3\n  add\n  dup3\n  swap1\n  mstore\n    /* \"Documents/GitHub/Store-system-with-feedback/main.sol\":697:739  0xC152aD455B16d865F2344140dEc6Ea95cb361e8A */\n  0xc152ad455b16d865f2344140dec6ea95cb361e8a\n    /* \"Documents/GitHub/Store-system-with-feedback/main.sol\":685:740  structUsers[0xC152aD455B16d865F2344140dEc6Ea95cb361e8A] */\n  swap1\n  swap2\n  mstore\n    /* \"Documents/GitHub/Store-system-with-feedback/main.sol\":685:696  structUsers */\n  0x04\n    /* \"Documents/GitHub/Store-system-with-feedback/main.sol\":685:740  structUsers[0xC152aD455B16d865F2344140dEc6Ea95cb361e8A] */\n  dup2\n  mstore\n    /* \"Documents/GitHub/Store-system-with-feedback/main.sol\":685:793  structUsers[0xC152aD455B16d865F2344140dEc6Ea95cb361e8A] = structUser(\"Peta\" , get_hash(\"2\"), 1000, 0, false) */\n  dup2\n  mload\n  dup1\n  mload\n    /* \"Documents/GitHub/Store-system-with-feedback/main.sol\":685:740  structUsers[0xC152aD455B16d865F2344140dEc6Ea95cb361e8A] */\n  0x46be32a2e9b8e0f4c8f06b744988be62b4f05119193ea23be26a02d9470d0ccd\n  swap3\n    /* \"Documents/GitHub/Store-system-with-feedback/main.sol\":685:793  structUsers[0xC152aD455B16d865F2344140dEc6Ea95cb361e8A] = structUser(\"Peta\" , get_hash(\"2\"), 1000, 0, false) */\n  tag_25\n  swap3\n    /* \"Documents/GitHub/Store-system-with-feedback/main.sol\":685:740  structUsers[0xC152aD455B16d865F2344140dEc6Ea95cb361e8A] */\n  dup5\n  swap3\n    /* \"Documents/GitHub/Store-system-with-feedback/main.sol\":685:793  structUsers[0xC152aD455B16d865F2344140dEc6Ea95cb361e8A] = structUser(\"Peta\" , get_hash(\"2\"), 1000, 0, false) */\n  swap2\n  add\n  swap1\n  tag_7\n  jump\t// in\ntag_25:\n  pop\n  0x20\n  dup3\n  dup2\n  add\n  mload\n  0x01\n  dup4\n  dup2\n  add\n  swap2\n  swap1\n  swap2\n  sstore\n  0x40\n  dup1\n  dup6\n  add\n  mload\n  0x02\n  dup6\n  add\n  sstore\n  0x60\n  dup6\n  add\n  mload\n  0x03\n  dup6\n  add\n  sstore\n  0x80\n  swap1\n  swap5\n  add\n  mload\n  0x04\n  swap4\n  dup5\n  add\n  dup1\n  sload\n  not(0xff)\n  and\n  swap2\n  iszero\n  iszero\n  swap2\n  swap1\n  swap2\n  or\n  swap1\n  sstore\n    /* \"Documents/GitHub/Store-system-with-feedback/main.sol\":804:819  userLoginsArray */\n  0x06\n    /* \"Documents/GitHub/Store-system-with-feedback/main.sol\":804:832  userLoginsArray.push(\"Peta\") */\n  dup1\n  sload\n  swap2\n  dup3\n  add\n  dup2\n  sstore\n  0x00\n  mstore\n  dup4\n  mload\n  dup1\n  dup6\n  add\n  swap1\n  swap5\n  mstore\n  dup3\n  dup5\n  mstore\n  shl(0xe0, 0x50657461)\n  swap4\n  swap1\n  swap2\n  add\n  swap3\n  dup4\n  mstore\n  tag_27\n  swap3\n  0xf652222313e28459528d920b65115c16c04f3efc82aaedc97be59f3f377c0d3f\n  swap1\n  swap2\n  add\n  swap2\n  tag_7\n  jump\t// in\ntag_27:\n  pop\n    /* \"Documents/GitHub/Store-system-with-feedback/main.sol\":843:859  userAddressArray */\n  0x07\n    /* \"Documents/GitHub/Store-system-with-feedback/main.sol\":843:908  userAddressArray.push(0xC152aD455B16d865F2344140dEc6Ea95cb361e8A) */\n  dup1\n  sload\n  0x01\n  dup2\n  add\n  dup3\n  sstore\n  0x00\n  swap2\n  swap1\n  swap2\n  mstore\n  0xa66cc928b5edb82af9bd49922954155ab7b0942694bea4ce44661d9a8736c688\n  add\n  dup1\n  sload\n  not(sub(shl(0xa0, 0x01), 0x01))\n  and\n    /* \"Documents/GitHub/Store-system-with-feedback/main.sol\":865:907  0xC152aD455B16d865F2344140dEc6Ea95cb361e8A */\n  0xc152ad455b16d865f2344140dec6ea95cb361e8a\n    /* \"Documents/GitHub/Store-system-with-feedback/main.sol\":843:908  userAddressArray.push(0xC152aD455B16d865F2344140dEc6Ea95cb361e8A) */\n  or\n  swap1\n  sstore\n    /* \"Documents/GitHub/Store-system-with-feedback/main.sol\":74:9635  contract coursepaper {\r... */\n  jump(tag_50)\n    /* \"Documents/GitHub/Store-system-with-feedback/main.sol\":961:1104  function get_hash(string memory password) public pure returns(bytes32) {\r... */\ntag_5:\n    /* \"Documents/GitHub/Store-system-with-feedback/main.sol\":1023:1030  bytes32 */\n  0x00\n    /* \"Documents/GitHub/Store-system-with-feedback/main.sol\":1081:1089  password */\n  dup2\n    /* \"Documents/GitHub/Store-system-with-feedback/main.sol\":1064:1090  abi.encodePacked(password) */\n  add(0x20, mload(0x40))\n  tag_31\n  swap2\n  swap1\n  tag_32\n  jump\t// in\ntag_31:\n  mload(0x40)\n  0x20\n  dup2\n  dup4\n  sub\n  sub\n  dup2\n  mstore\n  swap1\n  0x40\n  mstore\n    /* \"Documents/GitHub/Store-system-with-feedback/main.sol\":1054:1091  keccak256(abi.encodePacked(password)) */\n  dup1\n  mload\n  swap1\n  0x20\n  add\n  keccak256\n    /* \"Documents/GitHub/Store-system-with-feedback/main.sol\":1047:1092  return(keccak256(abi.encodePacked(password))) */\n  swap1\n  pop\n    /* \"Documents/GitHub/Store-system-with-feedback/main.sol\":961:1104  function get_hash(string memory password) public pure returns(bytes32) {\r... */\n  swap2\n  swap1\n  pop\n  jump\t// out\n    /* \"Documents/GitHub/Store-system-with-feedback/main.sol\":74:9635  contract coursepaper {\r... */\ntag_7:\n  dup3\n  dup1\n  sload\n  tag_33\n  swap1\n  tag_12\n  jump\t// in\ntag_33:\n  swap1\n  0x00\n  mstore\n  keccak256(0x00, 0x20)\n  swap1\n  0x1f\n  add\n  0x20\n  swap1\n  div\n  dup2\n  add\n  swap3\n  dup3\n  tag_35\n  jumpi\n  0x00\n  dup6\n  sstore\n  jump(tag_38)\ntag_35:\n  dup3\n  0x1f\n  lt\n  tag_36\n  jumpi\n  dup1\n  mload\n  not(0xff)\n  and\n  dup4\n  dup1\n  add\n  or\n  dup6\n  sstore\n  jump(tag_38)\ntag_36:\n  dup3\n  dup1\n  add\n  0x01\n  add\n  dup6\n  sstore\n  dup3\n  iszero\n  tag_38\n  jumpi\n  swap2\n  dup3\n  add\ntag_37:\n  dup3\n  dup2\n  gt\n  iszero\n  tag_38\n  jumpi\n  dup3\n  mload\n  dup3\n  sstore\n  swap2\n  0x20\n  add\n  swap2\n  swap1\n  0x01\n  add\n  swap1\n  jump(tag_37)\ntag_38:\n  pop\n  tag_39\n  swap3\n  swap2\n  pop\n  tag_40\n  jump\t// in\ntag_39:\n  pop\n  swap1\n  jump\t// out\ntag_14:\n  dup3\n  dup1\n  sload\n  tag_41\n  swap1\n  tag_12\n  jump\t// in\ntag_41:\n  swap1\n  0x00\n  mstore\n  keccak256(0x00, 0x20)\n  swap1\n  0x1f\n  add\n  0x20\n  swap1\n  div\n  dup2\n  add\n  swap3\n  dup3\n  tag_43\n  jumpi\n  0x00\n  dup6\n  sstore\n  jump(tag_38)\ntag_43:\n  dup3\n  0x1f\n  lt\n  tag_44\n  jumpi\n  dup1\n  sload\n  dup6\n  sstore\n  jump(tag_38)\ntag_44:\n  dup3\n  dup1\n  add\n  0x01\n  add\n  dup6\n  sstore\n  dup3\n  iszero\n  tag_38\n  jumpi\n  0x00\n  mstore\n  keccak256(0x00, 0x20)\n  swap2\n  0x1f\n  add\n  0x20\n  swap1\n  div\n  dup3\n  add\ntag_45:\n  dup3\n  dup2\n  gt\n  iszero\n  tag_38\n  jumpi\n  dup3\n  sload\n  dup3\n  sstore\n  swap2\n  0x01\n  add\n  swap2\n  swap1\n  0x01\n  add\n  swap1\n  jump(tag_45)\ntag_40:\ntag_48:\n  dup1\n  dup3\n  gt\n  iszero\n  tag_39\n  jumpi\n  0x00\n  dup2\n  sstore\n  0x01\n  add\n  jump(tag_48)\n    /* \"#utility.yul\":14:442   */\ntag_32:\n    /* \"#utility.yul\":145:148   */\n  0x00\n    /* \"#utility.yul\":183:189   */\n  dup3\n    /* \"#utility.yul\":177:190   */\n  mload\n    /* \"#utility.yul\":208:209   */\n  0x00\n    /* \"#utility.yul\":218:347   */\ntag_52:\n    /* \"#utility.yul\":232:238   */\n  dup2\n    /* \"#utility.yul\":229:230   */\n  dup2\n    /* \"#utility.yul\":226:239   */\n  lt\n    /* \"#utility.yul\":218:347   */\n  iszero\n  tag_54\n  jumpi\n    /* \"#utility.yul\":330:334   */\n  0x20\n    /* \"#utility.yul\":314:328   */\n  dup2\n  dup7\n  add\n    /* \"#utility.yul\":310:335   */\n  dup2\n  add\n    /* \"#utility.yul\":304:336   */\n  mload\n    /* \"#utility.yul\":291:302   */\n  dup6\n  dup4\n  add\n    /* \"#utility.yul\":284:337   */\n  mstore\n    /* \"#utility.yul\":247:259   */\n  add\n    /* \"#utility.yul\":218:347   */\n  jump(tag_52)\ntag_54:\n    /* \"#utility.yul\":365:371   */\n  dup2\n    /* \"#utility.yul\":362:363   */\n  dup2\n    /* \"#utility.yul\":359:372   */\n  gt\n    /* \"#utility.yul\":356:404   */\n  iszero\n  tag_55\n  jumpi\n    /* \"#utility.yul\":400:401   */\n  0x00\n    /* \"#utility.yul\":391:397   */\n  dup3\n    /* \"#utility.yul\":386:389   */\n  dup6\n    /* \"#utility.yul\":382:398   */\n  add\n    /* \"#utility.yul\":375:402   */\n  mstore\n    /* \"#utility.yul\":356:404   */\ntag_55:\n  pop\n    /* \"#utility.yul\":420:436   */\n  swap2\n  swap1\n  swap2\n  add\n  swap3\n    /* \"#utility.yul\":14:442   */\n  swap2\n  pop\n  pop\n  jump\t// out\n    /* \"#utility.yul\":706:1086   */\ntag_12:\n    /* \"#utility.yul\":785:786   */\n  0x01\n    /* \"#utility.yul\":781:793   */\n  dup2\n  dup2\n  shr\n  swap1\n    /* \"#utility.yul\":828:840   */\n  dup3\n  and\n  dup1\n    /* \"#utility.yul\":849:910   */\n  tag_58\n  jumpi\n    /* \"#utility.yul\":903:907   */\n  0x7f\n    /* \"#utility.yul\":895:901   */\n  dup3\n    /* \"#utility.yul\":891:908   */\n  and\n    /* \"#utility.yul\":881:908   */\n  swap2\n  pop\n    /* \"#utility.yul\":849:910   */\ntag_58:\n    /* \"#utility.yul\":956:958   */\n  0x20\n    /* \"#utility.yul\":948:954   */\n  dup3\n    /* \"#utility.yul\":945:959   */\n  lt\n    /* \"#utility.yul\":925:943   */\n  dup2\n    /* \"#utility.yul\":922:960   */\n  eq\n    /* \"#utility.yul\":919:1080   */\n  iszero\n  tag_59\n  jumpi\n    /* \"#utility.yul\":1002:1012   */\n  0x4e487b71\n    /* \"#utility.yul\":997:1000   */\n  0xe0\n    /* \"#utility.yul\":993:1013   */\n  shl\n    /* \"#utility.yul\":990:991   */\n  0x00\n    /* \"#utility.yul\":983:1014   */\n  mstore\n    /* \"#utility.yul\":1037:1041   */\n  0x22\n    /* \"#utility.yul\":1034:1035   */\n  0x04\n    /* \"#utility.yul\":1027:1042   */\n  mstore\n    /* \"#utility.yul\":1065:1069   */\n  0x24\n    /* \"#utility.yul\":1062:1063   */\n  0x00\n    /* \"#utility.yul\":1055:1070   */\n  revert\n    /* \"#utility.yul\":919:1080   */\ntag_59:\n  pop\n    /* \"#utility.yul\":706:1086   */\n  swap2\n  swap1\n  pop\n  jump\t// out\ntag_50:\n    /* \"Documents/GitHub/Store-system-with-feedback/main.sol\":74:9635  contract coursepaper {\r... */\n  dataSize(sub_0)\n  dup1\n  dataOffset(sub_0)\n  0x00\n  codecopy\n  0x00\n  return\nstop\ndata_1ab0c6948a275349ae45a06aad66a8bd65ac18074615d53676c09b67809099e0 405787fa12a823e0f2b7631cc41b3ba8828b3321ca811111fa75cd3aa3bb5ace\ndata_8993e1cd58841905be2f38dff5727bfce5465d113cd407e0076bae0c6cf830da c49e92deb93ac19463e0f89b887a2ab81c6b5eadf7dc1bc8bd12ce4040f656fc\ndata_f4d17a50b75ba59f6ac3e704dcdf75304eb544678a920cb7cfcd9a84a7945e49 5c83a96f0abbcc4e29b827af3528e41db71dd7823e05e1374cd098351a380d7f\n\nsub_0: assembly {\n        /* \"Documents/GitHub/Store-system-with-feedback/main.sol\":74:9635  contract coursepaper {\r... */\n      mstore(0x40, 0x80)\n      callvalue\n      dup1\n      iszero\n      tag_1\n      jumpi\n      0x00\n      dup1\n      revert\n    tag_1:\n      pop\n      jumpi(tag_2, lt(calldatasize, 0x04))\n      shr(0xe0, calldataload(0x00))\n      dup1\n      0x0c72b1ec\n      eq\n      tag_3\n      jumpi\n      dup1\n      0x0e1c81b2\n      eq\n      tag_4\n      jumpi\n      dup1\n      0x146dc6ed\n      eq\n      tag_5\n      jumpi\n      dup1\n      0x1bbe970a\n      eq\n      tag_6\n      jumpi\n      dup1\n      0x29e795f3\n      eq\n      tag_7\n      jumpi\n      dup1\n      0x2ccdef7c\n      eq\n      tag_8\n      jumpi\n      dup1\n      0x2d4673e3\n      eq\n      tag_9\n      jumpi\n      dup1\n      0x34d2c0ad\n      eq\n      tag_10\n      jumpi\n      dup1\n      0x6ba44d3c\n      eq\n      tag_11\n      jumpi\n      dup1\n      0x6c05dd1d\n      eq\n      tag_12\n      jumpi\n      dup1\n      0x7ddb273d\n      eq\n      tag_13\n      jumpi\n      dup1\n      0x845952a8\n      eq\n      tag_14\n      jumpi\n      dup1\n      0x961865f0\n      eq\n      tag_15\n      jumpi\n      dup1\n      0xa985036d\n      eq\n      tag_16\n      jumpi\n      dup1\n      0xa9f9482b\n      eq\n      tag_17\n      jumpi\n      dup1\n      0xbbd43363\n      eq\n      tag_18\n      jumpi\n      dup1\n      0xc178b9af\n      eq\n      tag_19\n      jumpi\n      dup1\n      0xc26da2f8\n      eq\n      tag_20\n      jumpi\n      dup1\n      0xc4957fa0\n      eq\n      tag_21\n      jumpi\n      dup1\n      0xcc21c188\n      eq\n      tag_22\n      jumpi\n      dup1\n      0xd22d9020\n      eq\n      tag_23\n      jumpi\n      dup1\n      0xd68cf8c1\n      eq\n      tag_24\n      jumpi\n      dup1\n      0xdce39151\n      eq\n      tag_25\n      jumpi\n      dup1\n      0xf69483c1\n      eq\n      tag_26\n      jumpi\n    tag_2:\n      0x00\n      dup1\n      revert\n        /* \"Documents/GitHub/Store-system-with-feedback/main.sol\":4365:4993  function acceptPurchase (uint idPurchase, bool confirmation) public {\r... */\n    tag_3:\n      tag_27\n      tag_28\n      calldatasize\n      0x04\n      tag_29\n      jump\t// in\n    tag_28:\n      tag_30\n      jump\t// in\n    tag_27:\n      stop\n        /* \"Documents/GitHub/Store-system-with-feedback/main.sol\":8710:9147  function create_user(address addr, string memory login, bytes32 password) public {\r... */\n    tag_4:\n      tag_27\n      tag_32\n      calldatasize\n      0x04\n      tag_33\n      jump\t// in\n    tag_32:\n      tag_34\n      jump\t// in\n        /* \"Documents/GitHub/Store-system-with-feedback/main.sol\":7817:8088  function productPurchases (string memory titleProduct) public {\r... */\n    tag_5:\n      tag_27\n      tag_36\n      calldatasize\n      0x04\n      tag_37\n      jump\t// in\n    tag_36:\n      tag_38\n      jump\t// in\n        /* \"Documents/GitHub/Store-system-with-feedback/main.sol\":2154:2204  mapping(string => address) public structUserLogins */\n    tag_6:\n      tag_39\n      tag_40\n      calldatasize\n      0x04\n      tag_37\n      jump\t// in\n    tag_40:\n      dup1\n      mload\n      0x20\n      dup2\n      dup4\n      add\n      dup2\n      add\n      dup1\n      mload\n      0x05\n      dup3\n      mstore\n      swap3\n      dup3\n      add\n      swap2\n      swap1\n      swap4\n      add\n      keccak256\n      swap2\n      mstore\n      sload\n      sub(shl(0xa0, 0x01), 0x01)\n      and\n      dup2\n      jump\n    tag_39:\n      mload(0x40)\n      sub(shl(0xa0, 0x01), 0x01)\n        /* \"#utility.yul\":7025:7057   */\n      swap1\n      swap2\n      and\n        /* \"#utility.yul\":7007:7058   */\n      dup2\n      mstore\n        /* \"#utility.yul\":6995:6997   */\n      0x20\n        /* \"#utility.yul\":6980:6998   */\n      add\n        /* \"Documents/GitHub/Store-system-with-feedback/main.sol\":2154:2204  mapping(string => address) public structUserLogins */\n    tag_42:\n      mload(0x40)\n      dup1\n      swap2\n      sub\n      swap1\n      return\n        /* \"Documents/GitHub/Store-system-with-feedback/main.sol\":7311:7730  function leaveComment (string memory userName, string[] memory comment) public {\r... */\n    tag_7:\n      tag_27\n      tag_45\n      calldatasize\n      0x04\n      tag_46\n      jump\t// in\n    tag_45:\n      tag_47\n      jump\t// in\n        /* \"Documents/GitHub/Store-system-with-feedback/main.sol\":5038:5499  function acceptReturn(uint idReturn, bool confirmation) public {\r... */\n    tag_8:\n      tag_27\n      tag_49\n      calldatasize\n      0x04\n      tag_29\n      jump\t// in\n    tag_49:\n      tag_50\n      jump\t// in\n        /* \"Documents/GitHub/Store-system-with-feedback/main.sol\":8327:8511  function productMarriageRegistration (string memory titleProduct) public {\r... */\n    tag_9:\n      tag_27\n      tag_52\n      calldatasize\n      0x04\n      tag_37\n      jump\t// in\n    tag_52:\n      tag_53\n      jump\t// in\n        /* \"Documents/GitHub/Store-system-with-feedback/main.sol\":6286:6386  function getProductList() public view returns(string[] memory) {\r... */\n    tag_10:\n      tag_54\n      tag_55\n      jump\t// in\n    tag_54:\n      mload(0x40)\n      tag_42\n      swap2\n      swap1\n      tag_57\n      jump\t// in\n        /* \"Documents/GitHub/Store-system-with-feedback/main.sol\":8555:8676  function get_address(string memory login) public view returns(address) {\r... */\n    tag_11:\n      tag_39\n      tag_59\n      calldatasize\n      0x04\n      tag_37\n      jump\t// in\n    tag_59:\n      tag_60\n      jump\t// in\n        /* \"Documents/GitHub/Store-system-with-feedback/main.sol\":3286:3685  function addProductShop (string memory title, uint256 price, string memory description) public {\r... */\n    tag_12:\n      tag_27\n      tag_63\n      calldatasize\n      0x04\n      tag_64\n      jump\t// in\n    tag_63:\n      tag_65\n      jump\t// in\n        /* \"Documents/GitHub/Store-system-with-feedback/main.sol\":3101:3164  structMarriageRegistration[] public structMarriageRegistrations */\n    tag_13:\n      tag_66\n      tag_67\n      calldatasize\n      0x04\n      tag_68\n      jump\t// in\n    tag_67:\n      tag_69\n      jump\t// in\n    tag_66:\n      mload(0x40)\n      tag_42\n      swap4\n      swap3\n      swap2\n      swap1\n      tag_71\n      jump\t// in\n        /* \"Documents/GitHub/Store-system-with-feedback/main.sol\":961:1104  function get_hash(string memory password) public pure returns(bytes32) {\r... */\n    tag_14:\n      tag_72\n      tag_73\n      calldatasize\n      0x04\n      tag_37\n      jump\t// in\n    tag_73:\n      tag_74\n      jump\t// in\n    tag_72:\n      mload(0x40)\n        /* \"#utility.yul\":9084:9109   */\n      swap1\n      dup2\n      mstore\n        /* \"#utility.yul\":9072:9074   */\n      0x20\n        /* \"#utility.yul\":9057:9075   */\n      add\n        /* \"Documents/GitHub/Store-system-with-feedback/main.sol\":961:1104  function get_hash(string memory password) public pure returns(bytes32) {\r... */\n      tag_42\n        /* \"#utility.yul\":8938:9115   */\n      jump\n        /* \"Documents/GitHub/Store-system-with-feedback/main.sol\":2098:2147  mapping(address => structUser) public structUsers */\n    tag_15:\n      tag_77\n      tag_78\n      calldatasize\n      0x04\n      tag_79\n      jump\t// in\n    tag_78:\n      tag_80\n      jump\t// in\n    tag_77:\n      mload(0x40)\n      tag_42\n      swap6\n      swap5\n      swap4\n      swap3\n      swap2\n      swap1\n      tag_82\n      jump\t// in\n        /* \"Documents/GitHub/Store-system-with-feedback/main.sol\":6418:7271  function getStoryRating(string memory shopName) public view returns(uint) {\r... */\n    tag_16:\n      tag_72\n      tag_84\n      calldatasize\n      0x04\n      tag_37\n      jump\t// in\n    tag_84:\n      tag_85\n      jump\t// in\n        /* \"Documents/GitHub/Store-system-with-feedback/main.sol\":2881:2928  structStatusReturn[] public structStatusReturns */\n    tag_17:\n      tag_66\n      tag_89\n      calldatasize\n      0x04\n      tag_68\n      jump\t// in\n    tag_89:\n      tag_90\n      jump\t// in\n        /* \"Documents/GitHub/Store-system-with-feedback/main.sol\":8127:8281  function productReturn (string memory titleProduct) public {\r... */\n    tag_18:\n      tag_27\n      tag_93\n      calldatasize\n      0x04\n      tag_37\n      jump\t// in\n    tag_93:\n      tag_94\n      jump\t// in\n        /* \"Documents/GitHub/Store-system-with-feedback/main.sol\":6156:6250  function getShopList() public view returns(string[] memory) {\r... */\n    tag_19:\n      tag_54\n      tag_96\n      jump\t// in\n        /* \"Documents/GitHub/Store-system-with-feedback/main.sol\":1110:1249  function check_logged(string memory login) public view returns(bool) {\r... */\n    tag_20:\n      tag_98\n      tag_99\n      calldatasize\n      0x04\n      tag_37\n      jump\t// in\n    tag_99:\n      tag_100\n      jump\t// in\n    tag_98:\n      mload(0x40)\n        /* \"#utility.yul\":8911:8925   */\n      swap1\n      iszero\n        /* \"#utility.yul\":8904:8926   */\n      iszero\n        /* \"#utility.yul\":8886:8927   */\n      dup2\n      mstore\n        /* \"#utility.yul\":8874:8876   */\n      0x20\n        /* \"#utility.yul\":8859:8877   */\n      add\n        /* \"Documents/GitHub/Store-system-with-feedback/main.sol\":1110:1249  function check_logged(string memory login) public view returns(bool) {\r... */\n      tag_42\n        /* \"#utility.yul\":8746:8933   */\n      jump\n        /* \"Documents/GitHub/Store-system-with-feedback/main.sol\":1531:1574  mapping(string => address) public shopLists */\n    tag_21:\n      tag_39\n      tag_104\n      calldatasize\n      0x04\n      tag_37\n      jump\t// in\n    tag_104:\n      dup1\n      mload\n      0x20\n      dup2\n      dup4\n      add\n      dup2\n      add\n      dup1\n      mload\n      0x01\n      dup3\n      mstore\n      swap3\n      dup3\n      add\n      swap2\n      swap1\n      swap4\n      add\n      keccak256\n      swap2\n      mstore\n      sload\n      sub(shl(0xa0, 0x01), 0x01)\n      and\n      dup2\n      jump\n        /* \"Documents/GitHub/Store-system-with-feedback/main.sol\":3730:4318  function leaveFeedback (string memory shop, string memory feedback, uint256 rating) public {\r... */\n    tag_22:\n      tag_27\n      tag_108\n      calldatasize\n      0x04\n      tag_109\n      jump\t// in\n    tag_108:\n      tag_110\n      jump\t// in\n        /* \"Documents/GitHub/Store-system-with-feedback/main.sol\":9181:9611  function login_user(string memory login, bytes32 password) public {\r... */\n    tag_23:\n      tag_27\n      tag_112\n      calldatasize\n      0x04\n      tag_113\n      jump\t// in\n    tag_112:\n      tag_114\n      jump\t// in\n        /* \"Documents/GitHub/Store-system-with-feedback/main.sol\":2430:2484  mapping(string => structProduct) public structProducts */\n    tag_24:\n      tag_115\n      tag_116\n      calldatasize\n      0x04\n      tag_37\n      jump\t// in\n    tag_116:\n      tag_117\n      jump\t// in\n    tag_115:\n      mload(0x40)\n      tag_42\n      swap5\n      swap4\n      swap3\n      swap2\n      swap1\n      tag_119\n      jump\t// in\n        /* \"Documents/GitHub/Store-system-with-feedback/main.sol\":2673:2724  structStatusPurchase[] public structStatusPurchases */\n    tag_25:\n      tag_66\n      tag_121\n      calldatasize\n      0x04\n      tag_68\n      jump\t// in\n    tag_121:\n      tag_122\n      jump\t// in\n        /* \"Documents/GitHub/Store-system-with-feedback/main.sol\":5545:6122  function MarriageRegistration(uint idMarriageRegistration, bool confirmation) public {\r... */\n    tag_26:\n      tag_27\n      tag_125\n      calldatasize\n      0x04\n      tag_29\n      jump\t// in\n    tag_125:\n      tag_126\n      jump\t// in\n        /* \"Documents/GitHub/Store-system-with-feedback/main.sol\":4365:4993  function acceptPurchase (uint idPurchase, bool confirmation) public {\r... */\n    tag_30:\n        /* \"Documents/GitHub/Store-system-with-feedback/main.sol\":4464:4468  true */\n      0x01\n        /* \"Documents/GitHub/Store-system-with-feedback/main.sol\":4448:4468  confirmation == true */\n      dup2\n      iszero\n      iszero\n      eq\n        /* \"Documents/GitHub/Store-system-with-feedback/main.sol\":4444:4986  if (confirmation == true) {\r... */\n      iszero\n      tag_128\n      jumpi\n        /* \"Documents/GitHub/Store-system-with-feedback/main.sol\":4528:4533  false */\n      0x00\n        /* \"Documents/GitHub/Store-system-with-feedback/main.sol\":4485:4506  structStatusPurchases */\n      0x0a\n        /* \"Documents/GitHub/Store-system-with-feedback/main.sol\":4507:4517  idPurchase */\n      dup4\n        /* \"Documents/GitHub/Store-system-with-feedback/main.sol\":4485:4518  structStatusPurchases[idPurchase] */\n      dup2\n      sload\n      dup2\n      lt\n      tag_130\n      jumpi\n      tag_130\n      tag_131\n      jump\t// in\n    tag_130:\n      swap1\n      0x00\n      mstore\n      keccak256(0x00, 0x20)\n      swap1\n      0x03\n      mul\n      add\n        /* \"Documents/GitHub/Store-system-with-feedback/main.sol\":4485:4525  structStatusPurchases[idPurchase].status */\n      0x02\n      add\n      0x00\n        /* \"Documents/GitHub/Store-system-with-feedback/main.sol\":4485:4533  structStatusPurchases[idPurchase].status = false */\n      0x0100\n      exp\n      dup2\n      sload\n      dup2\n      0xff\n      mul\n      not\n      and\n      swap1\n      dup4\n      iszero\n      iszero\n      mul\n      or\n      swap1\n      sstore\n      pop\n        /* \"Documents/GitHub/Store-system-with-feedback/main.sol\":4684:4698  structProducts */\n      0x08\n        /* \"Documents/GitHub/Store-system-with-feedback/main.sol\":4699:4720  structStatusPurchases */\n      0x0a\n        /* \"Documents/GitHub/Store-system-with-feedback/main.sol\":4721:4731  idPurchase */\n      dup4\n        /* \"Documents/GitHub/Store-system-with-feedback/main.sol\":4699:4732  structStatusPurchases[idPurchase] */\n      dup2\n      sload\n      dup2\n      lt\n      tag_134\n      jumpi\n      tag_134\n      tag_131\n      jump\t// in\n    tag_134:\n      swap1\n      0x00\n      mstore\n      keccak256(0x00, 0x20)\n      swap1\n      0x03\n      mul\n      add\n        /* \"Documents/GitHub/Store-system-with-feedback/main.sol\":4699:4745  structStatusPurchases[idPurchase].titleProduct */\n      0x01\n      add\n        /* \"Documents/GitHub/Store-system-with-feedback/main.sol\":4684:4746  structProducts[structStatusPurchases[idPurchase].titleProduct] */\n      mload(0x40)\n      tag_136\n      swap2\n      swap1\n      tag_137\n      jump\t// in\n    tag_136:\n      swap1\n      dup2\n      mstore\n      0x20\n      add\n      mload(0x40)\n      dup1\n      swap2\n      sub\n      swap1\n      keccak256\n        /* \"Documents/GitHub/Store-system-with-feedback/main.sol\":4684:4752  structProducts[structStatusPurchases[idPurchase].titleProduct].price */\n      0x02\n      add\n      sload\n        /* \"Documents/GitHub/Store-system-with-feedback/main.sol\":4616:4627  structUsers */\n      0x04\n        /* \"Documents/GitHub/Store-system-with-feedback/main.sol\":4616:4672  structUsers[structStatusPurchases[idPurchase].userLogin] */\n      0x00\n        /* \"Documents/GitHub/Store-system-with-feedback/main.sol\":4628:4649  structStatusPurchases */\n      0x0a\n        /* \"Documents/GitHub/Store-system-with-feedback/main.sol\":4650:4660  idPurchase */\n      dup6\n        /* \"Documents/GitHub/Store-system-with-feedback/main.sol\":4628:4661  structStatusPurchases[idPurchase] */\n      dup2\n      sload\n      dup2\n      lt\n      tag_139\n      jumpi\n      tag_139\n      tag_131\n      jump\t// in\n    tag_139:\n      0x00\n      swap2\n      dup3\n      mstore\n      0x20\n      dup1\n      dup4\n      keccak256\n      0x03\n      swap1\n      swap3\n      mul\n      swap1\n      swap2\n      add\n        /* \"Documents/GitHub/Store-system-with-feedback/main.sol\":4628:4671  structStatusPurchases[idPurchase].userLogin */\n      sload\n      sub(shl(0xa0, 0x01), 0x01)\n      and\n        /* \"Documents/GitHub/Store-system-with-feedback/main.sol\":4616:4672  structUsers[structStatusPurchases[idPurchase].userLogin] */\n      dup4\n      mstore\n      dup3\n      add\n      swap3\n      swap1\n      swap3\n      mstore\n      0x40\n      add\n      swap1\n      keccak256\n        /* \"Documents/GitHub/Store-system-with-feedback/main.sol\":4616:4681  structUsers[structStatusPurchases[idPurchase].userLogin].ballance */\n      0x02\n      add\n      sload\n        /* \"Documents/GitHub/Store-system-with-feedback/main.sol\":4616:4752  structUsers[structStatusPurchases[idPurchase].userLogin].ballance - structProducts[structStatusPurchases[idPurchase].titleProduct].price */\n      tag_141\n      swap2\n      swap1\n      tag_142\n      jump\t// in\n    tag_141:\n        /* \"Documents/GitHub/Store-system-with-feedback/main.sol\":4548:4559  structUsers */\n      0x04\n        /* \"Documents/GitHub/Store-system-with-feedback/main.sol\":4548:4604  structUsers[structStatusPurchases[idPurchase].userLogin] */\n      0x00\n        /* \"Documents/GitHub/Store-system-with-feedback/main.sol\":4560:4581  structStatusPurchases */\n      0x0a\n        /* \"Documents/GitHub/Store-system-with-feedback/main.sol\":4582:4592  idPurchase */\n      dup6\n        /* \"Documents/GitHub/Store-system-with-feedback/main.sol\":4560:4593  structStatusPurchases[idPurchase] */\n      dup2\n      sload\n      dup2\n      lt\n      tag_144\n      jumpi\n      tag_144\n      tag_131\n      jump\t// in\n    tag_144:\n      0x00\n      swap2\n      dup3\n      mstore\n      0x20\n      dup1\n      dup4\n      keccak256\n      0x03\n      swap1\n      swap3\n      mul\n      swap1\n      swap2\n      add\n        /* \"Documents/GitHub/Store-system-with-feedback/main.sol\":4560:4603  structStatusPurchases[idPurchase].userLogin */\n      sload\n      sub(shl(0xa0, 0x01), 0x01)\n      and\n        /* \"Documents/GitHub/Store-system-with-feedback/main.sol\":4548:4604  structUsers[structStatusPurchases[idPurchase].userLogin] */\n      dup4\n      mstore\n      dup3\n      add\n      swap3\n      swap1\n      swap3\n      mstore\n      0x40\n      add\n      swap1\n      keccak256\n        /* \"Documents/GitHub/Store-system-with-feedback/main.sol\":4548:4613  structUsers[structStatusPurchases[idPurchase].userLogin].ballance */\n      0x02\n      add\n        /* \"Documents/GitHub/Store-system-with-feedback/main.sol\":4548:4752  structUsers[structStatusPurchases[idPurchase].userLogin].ballance = structUsers[structStatusPurchases[idPurchase].userLogin].ballance - structProducts[structStatusPurchases[idPurchase].titleProduct].price */\n      sstore\n        /* \"Documents/GitHub/Store-system-with-feedback/main.sol\":4840:4861  structStatusPurchases */\n      0x0a\n        /* \"Documents/GitHub/Store-system-with-feedback/main.sol\":4840:4873  structStatusPurchases[idPurchase] */\n      dup1\n      sload\n        /* \"Documents/GitHub/Store-system-with-feedback/main.sol\":4825:4839  structProducts */\n      0x08\n      swap2\n        /* \"Documents/GitHub/Store-system-with-feedback/main.sol\":4840:4861  structStatusPurchases */\n      swap1\n        /* \"Documents/GitHub/Store-system-with-feedback/main.sol\":4862:4872  idPurchase */\n      dup5\n      swap1\n        /* \"Documents/GitHub/Store-system-with-feedback/main.sol\":4840:4873  structStatusPurchases[idPurchase] */\n      dup2\n      lt\n      tag_147\n      jumpi\n      tag_147\n      tag_131\n      jump\t// in\n    tag_147:\n      swap1\n      0x00\n      mstore\n      keccak256(0x00, 0x20)\n      swap1\n      0x03\n      mul\n      add\n        /* \"Documents/GitHub/Store-system-with-feedback/main.sol\":4840:4886  structStatusPurchases[idPurchase].titleProduct */\n      0x01\n      add\n        /* \"Documents/GitHub/Store-system-with-feedback/main.sol\":4825:4887  structProducts[structStatusPurchases[idPurchase].titleProduct] */\n      mload(0x40)\n      tag_149\n      swap2\n      swap1\n      tag_137\n      jump\t// in\n    tag_149:\n      swap1\n      dup2\n      mstore\n      0x40\n      dup1\n      mload\n      0x20\n      swap3\n      dup2\n      swap1\n      sub\n      dup4\n      add\n      swap1\n      keccak256\n        /* \"Documents/GitHub/Store-system-with-feedback/main.sol\":4825:4893  structProducts[structStatusPurchases[idPurchase].titleProduct].price */\n      0x02\n      add\n      sload\n        /* \"Documents/GitHub/Store-system-with-feedback/main.sol\":4802:4812  msg.sender */\n      caller\n        /* \"Documents/GitHub/Store-system-with-feedback/main.sol\":4796:4801  shops */\n      0x00\n        /* \"Documents/GitHub/Store-system-with-feedback/main.sol\":4796:4813  shops[msg.sender] */\n      swap1\n      dup2\n      mstore\n      swap3\n      dup4\n      swap1\n      mstore\n      swap2\n      keccak256\n        /* \"Documents/GitHub/Store-system-with-feedback/main.sol\":4796:4822  shops[msg.sender].ballance */\n      0x04\n      add\n      sload\n        /* \"Documents/GitHub/Store-system-with-feedback/main.sol\":4796:4893  shops[msg.sender].ballance + structProducts[structStatusPurchases[idPurchase].titleProduct].price */\n      tag_150\n      swap2\n        /* \"Documents/GitHub/Store-system-with-feedback/main.sol\":4825:4893  structProducts[structStatusPurchases[idPurchase].titleProduct].price */\n      swap1\n        /* \"Documents/GitHub/Store-system-with-feedback/main.sol\":4796:4893  shops[msg.sender].ballance + structProducts[structStatusPurchases[idPurchase].titleProduct].price */\n      tag_151\n      jump\t// in\n    tag_150:\n        /* \"Documents/GitHub/Store-system-with-feedback/main.sol\":4773:4783  msg.sender */\n      caller\n        /* \"Documents/GitHub/Store-system-with-feedback/main.sol\":4767:4772  shops */\n      0x00\n        /* \"Documents/GitHub/Store-system-with-feedback/main.sol\":4767:4784  shops[msg.sender] */\n      swap1\n      dup2\n      mstore\n      0x20\n      dup2\n      swap1\n      mstore\n      0x40\n      swap1\n      keccak256\n        /* \"Documents/GitHub/Store-system-with-feedback/main.sol\":4767:4793  shops[msg.sender].ballance */\n      0x04\n      add\n        /* \"Documents/GitHub/Store-system-with-feedback/main.sol\":4767:4893  shops[msg.sender].ballance = shops[msg.sender].ballance + structProducts[structStatusPurchases[idPurchase].titleProduct].price */\n      sstore\n        /* \"Documents/GitHub/Store-system-with-feedback/main.sol\":4365:4993  function acceptPurchase (uint idPurchase, bool confirmation) public {\r... */\n      pop\n      pop\n      jump\t// out\n        /* \"Documents/GitHub/Store-system-with-feedback/main.sol\":4444:4986  if (confirmation == true) {\r... */\n    tag_128:\n        /* \"Documents/GitHub/Store-system-with-feedback/main.sol\":4969:4974  false */\n      0x00\n        /* \"Documents/GitHub/Store-system-with-feedback/main.sol\":4926:4947  structStatusPurchases */\n      0x0a\n        /* \"Documents/GitHub/Store-system-with-feedback/main.sol\":4948:4958  idPurchase */\n      dup4\n        /* \"Documents/GitHub/Store-system-with-feedback/main.sol\":4926:4959  structStatusPurchases[idPurchase] */\n      dup2\n      sload\n      dup2\n      lt\n      tag_154\n      jumpi\n      tag_154\n      tag_131\n      jump\t// in\n    tag_154:\n      0x00\n      swap2\n      dup3\n      mstore\n      0x20\n      swap1\n      swap2\n      keccak256\n      0x03\n      swap1\n      swap2\n      mul\n      add\n        /* \"Documents/GitHub/Store-system-with-feedback/main.sol\":4926:4966  structStatusPurchases[idPurchase].status */\n      0x02\n      add\n        /* \"Documents/GitHub/Store-system-with-feedback/main.sol\":4926:4974  structStatusPurchases[idPurchase].status = false */\n      dup1\n      sload\n      not(0xff)\n      and\n      swap2\n      iszero\n      iszero\n      swap2\n      swap1\n      swap2\n      or\n      swap1\n      sstore\n      pop\n      pop\n        /* \"Documents/GitHub/Store-system-with-feedback/main.sol\":4365:4993  function acceptPurchase (uint idPurchase, bool confirmation) public {\r... */\n      jump\t// out\n        /* \"Documents/GitHub/Store-system-with-feedback/main.sol\":8710:9147  function create_user(address addr, string memory login, bytes32 password) public {\r... */\n    tag_34:\n        /* \"Documents/GitHub/Store-system-with-feedback/main.sol\":8824:8866  0x9c35a9bdf790A5Ce09b353B1C765269aB466Baad */\n      0x9c35a9bdf790a5ce09b353b1c765269ab466baad\n        /* \"Documents/GitHub/Store-system-with-feedback/main.sol\":8810:8820  msg.sender */\n      caller\n        /* \"Documents/GitHub/Store-system-with-feedback/main.sol\":8810:8866  msg.sender == 0x9c35a9bdf790A5Ce09b353B1C765269aB466Baad */\n      eq\n        /* \"Documents/GitHub/Store-system-with-feedback/main.sol\":8802:8900  require(msg.sender == 0x9c35a9bdf790A5Ce09b353B1C765269aB466Baad, \"Error: You not a zero account\") */\n      tag_157\n      jumpi\n      mload(0x40)\n      shl(0xe5, 0x461bcd)\n      dup2\n      mstore\n        /* \"#utility.yul\":9844:9846   */\n      0x20\n        /* \"Documents/GitHub/Store-system-with-feedback/main.sol\":8802:8900  require(msg.sender == 0x9c35a9bdf790A5Ce09b353B1C765269aB466Baad, \"Error: You not a zero account\") */\n      0x04\n      dup3\n      add\n        /* \"#utility.yul\":9826:9847   */\n      mstore\n        /* \"#utility.yul\":9883:9885   */\n      0x1d\n        /* \"#utility.yul\":9863:9881   */\n      0x24\n      dup3\n      add\n        /* \"#utility.yul\":9856:9886   */\n      mstore\n        /* \"#utility.yul\":9922:9953   */\n      0x4572726f723a20596f75206e6f742061207a65726f206163636f756e74000000\n        /* \"#utility.yul\":9902:9920   */\n      0x44\n      dup3\n      add\n        /* \"#utility.yul\":9895:9954   */\n      mstore\n        /* \"#utility.yul\":9971:9989   */\n      0x64\n      add\n        /* \"Documents/GitHub/Store-system-with-feedback/main.sol\":8802:8900  require(msg.sender == 0x9c35a9bdf790A5Ce09b353B1C765269aB466Baad, \"Error: You not a zero account\") */\n    tag_158:\n      mload(0x40)\n      dup1\n      swap2\n      sub\n      swap1\n      revert\n    tag_157:\n        /* \"Documents/GitHub/Store-system-with-feedback/main.sol\":8954:8955  0 */\n      0x00\n      sub(shl(0xa0, 0x01), 0x01)\n        /* \"Documents/GitHub/Store-system-with-feedback/main.sol\":8919:8956  structUserLogins[login] == address(0) */\n      and\n        /* \"Documents/GitHub/Store-system-with-feedback/main.sol\":8919:8935  structUserLogins */\n      0x05\n        /* \"Documents/GitHub/Store-system-with-feedback/main.sol\":8936:8941  login */\n      dup4\n        /* \"Documents/GitHub/Store-system-with-feedback/main.sol\":8919:8942  structUserLogins[login] */\n      mload(0x40)\n      tag_160\n      swap2\n      swap1\n      tag_161\n      jump\t// in\n    tag_160:\n      swap1\n      dup2\n      mstore\n      mload(0x40)\n      swap1\n      dup2\n      swap1\n      sub\n      0x20\n      add\n      swap1\n      keccak256\n      sload\n      sub(shl(0xa0, 0x01), 0x01)\n      and\n        /* \"Documents/GitHub/Store-system-with-feedback/main.sol\":8919:8956  structUserLogins[login] == address(0) */\n      eq\n        /* \"Documents/GitHub/Store-system-with-feedback/main.sol\":8911:8986  require(structUserLogins[login] == address(0), \"Error: User already exist\") */\n      tag_162\n      jumpi\n      mload(0x40)\n      shl(0xe5, 0x461bcd)\n      dup2\n      mstore\n        /* \"#utility.yul\":10202:10204   */\n      0x20\n        /* \"Documents/GitHub/Store-system-with-feedback/main.sol\":8911:8986  require(structUserLogins[login] == address(0), \"Error: User already exist\") */\n      0x04\n      dup3\n      add\n        /* \"#utility.yul\":10184:10205   */\n      mstore\n        /* \"#utility.yul\":10241:10243   */\n      0x19\n        /* \"#utility.yul\":10221:10239   */\n      0x24\n      dup3\n      add\n        /* \"#utility.yul\":10214:10244   */\n      mstore\n      shl(0x3a, 0x115c9c9bdc8e88155cd95c88185b1c9958591e48195e1a5cdd)\n        /* \"#utility.yul\":10260:10278   */\n      0x44\n      dup3\n      add\n        /* \"#utility.yul\":10253:10308   */\n      mstore\n        /* \"#utility.yul\":10325:10343   */\n      0x64\n      add\n        /* \"Documents/GitHub/Store-system-with-feedback/main.sol\":8911:8986  require(structUserLogins[login] == address(0), \"Error: User already exist\") */\n      tag_158\n        /* \"#utility.yul\":10000:10349   */\n      jump\n        /* \"Documents/GitHub/Store-system-with-feedback/main.sol\":8911:8986  require(structUserLogins[login] == address(0), \"Error: User already exist\") */\n    tag_162:\n        /* \"Documents/GitHub/Store-system-with-feedback/main.sol\":9017:9060  structUser(login, password, 1000, 0, false) */\n      0x40\n      dup1\n      mload\n      0xa0\n      dup2\n      add\n      dup3\n      mstore\n      dup4\n      dup2\n      mstore\n      0x20\n      dup1\n      dup3\n      add\n      dup5\n      swap1\n      mstore\n        /* \"Documents/GitHub/Store-system-with-feedback/main.sol\":9045:9049  1000 */\n      0x03e8\n        /* \"Documents/GitHub/Store-system-with-feedback/main.sol\":9017:9060  structUser(login, password, 1000, 0, false) */\n      dup3\n      dup5\n      add\n      mstore\n      0x00\n      0x60\n      dup4\n      add\n      dup2\n      swap1\n      mstore\n      0x80\n      dup4\n      add\n      dup2\n      swap1\n      mstore\n      sub(shl(0xa0, 0x01), 0x01)\n        /* \"Documents/GitHub/Store-system-with-feedback/main.sol\":8997:9014  structUsers[addr] */\n      dup8\n      and\n      dup2\n      mstore\n        /* \"Documents/GitHub/Store-system-with-feedback/main.sol\":8997:9008  structUsers */\n      0x04\n        /* \"Documents/GitHub/Store-system-with-feedback/main.sol\":8997:9014  structUsers[addr] */\n      dup3\n      mstore\n      swap3\n      swap1\n      swap3\n      keccak256\n        /* \"Documents/GitHub/Store-system-with-feedback/main.sol\":8997:9060  structUsers[addr] = structUser(login, password, 1000, 0, false) */\n      dup2\n      mload\n      dup1\n      mload\n        /* \"Documents/GitHub/Store-system-with-feedback/main.sol\":9017:9060  structUser(login, password, 1000, 0, false) */\n      swap3\n      swap4\n        /* \"Documents/GitHub/Store-system-with-feedback/main.sol\":8997:9014  structUsers[addr] */\n      swap2\n      swap3\n        /* \"Documents/GitHub/Store-system-with-feedback/main.sol\":8997:9060  structUsers[addr] = structUser(login, password, 1000, 0, false) */\n      tag_165\n      swap3\n        /* \"Documents/GitHub/Store-system-with-feedback/main.sol\":8997:9014  structUsers[addr] */\n      dup5\n      swap3\n        /* \"Documents/GitHub/Store-system-with-feedback/main.sol\":8997:9060  structUsers[addr] = structUser(login, password, 1000, 0, false) */\n      add\n      swap1\n      tag_166\n      jump\t// in\n    tag_165:\n      pop\n      0x20\n      dup3\n      add\n      mload\n      0x01\n      dup3\n      add\n      sstore\n      0x40\n      dup1\n      dup4\n      add\n      mload\n      0x02\n      dup4\n      add\n      sstore\n      0x60\n      dup4\n      add\n      mload\n      0x03\n      dup4\n      add\n      sstore\n      0x80\n      swap1\n      swap3\n      add\n      mload\n      0x04\n      swap1\n      swap2\n      add\n      dup1\n      sload\n      not(0xff)\n      and\n      swap2\n      iszero\n      iszero\n      swap2\n      swap1\n      swap2\n      or\n      swap1\n      sstore\n        /* \"Documents/GitHub/Store-system-with-feedback/main.sol\":9071:9094  structUserLogins[login] */\n      mload\n        /* \"Documents/GitHub/Store-system-with-feedback/main.sol\":9097:9101  addr */\n      dup4\n      swap1\n        /* \"Documents/GitHub/Store-system-with-feedback/main.sol\":9071:9087  structUserLogins */\n      0x05\n      swap1\n        /* \"Documents/GitHub/Store-system-with-feedback/main.sol\":9071:9094  structUserLogins[login] */\n      tag_167\n      swap1\n        /* \"Documents/GitHub/Store-system-with-feedback/main.sol\":9088:9093  login */\n      dup6\n      swap1\n        /* \"Documents/GitHub/Store-system-with-feedback/main.sol\":9071:9094  structUserLogins[login] */\n      tag_161\n      jump\t// in\n    tag_167:\n      swap1\n      dup2\n      mstore\n      mload(0x40)\n      swap1\n      dup2\n      swap1\n      sub\n      0x20\n      add\n      swap1\n      keccak256\n        /* \"Documents/GitHub/Store-system-with-feedback/main.sol\":9071:9101  structUserLogins[login] = addr */\n      dup1\n      sload\n      sub(shl(0xa0, 0x01), 0x01)\n      swap3\n      dup4\n      and\n      not(sub(shl(0xa0, 0x01), 0x01))\n      swap2\n      dup3\n      and\n      or\n      swap1\n      swap2\n      sstore\n        /* \"Documents/GitHub/Store-system-with-feedback/main.sol\":9112:9128  userAddressArray */\n      0x07\n        /* \"Documents/GitHub/Store-system-with-feedback/main.sol\":9112:9139  userAddressArray.push(addr) */\n      dup1\n      sload\n        /* \"Documents/GitHub/Store-system-with-feedback/main.sol\":9071:9101  structUserLogins[login] = addr */\n      0x01\n        /* \"Documents/GitHub/Store-system-with-feedback/main.sol\":9112:9139  userAddressArray.push(addr) */\n      dup2\n      add\n      dup3\n      sstore\n        /* \"Documents/GitHub/Store-system-with-feedback/main.sol\":9071:9094  structUserLogins[login] */\n      0x00\n        /* \"Documents/GitHub/Store-system-with-feedback/main.sol\":9112:9139  userAddressArray.push(addr) */\n      swap2\n      swap1\n      swap2\n      mstore\n      0xa66cc928b5edb82af9bd49922954155ab7b0942694bea4ce44661d9a8736c688\n      add\n      dup1\n      sload\n      swap6\n      swap1\n      swap3\n      and\n      swap5\n      and\n      swap4\n      swap1\n      swap4\n      or\n      swap1\n      swap3\n      sstore\n      pop\n      pop\n        /* \"Documents/GitHub/Store-system-with-feedback/main.sol\":8710:9147  function create_user(address addr, string memory login, bytes32 password) public {\r... */\n      jump\t// out\n        /* \"Documents/GitHub/Store-system-with-feedback/main.sol\":7817:8088  function productPurchases (string memory titleProduct) public {\r... */\n    tag_38:\n        /* \"Documents/GitHub/Store-system-with-feedback/main.sol\":7934:7948  structProducts */\n      0x08\n        /* \"Documents/GitHub/Store-system-with-feedback/main.sol\":7949:7961  titleProduct */\n      dup2\n        /* \"Documents/GitHub/Store-system-with-feedback/main.sol\":7934:7962  structProducts[titleProduct] */\n      mload(0x40)\n      tag_170\n      swap2\n      swap1\n      tag_161\n      jump\t// in\n    tag_170:\n      swap1\n      dup2\n      mstore\n      0x20\n      add\n      mload(0x40)\n      dup1\n      swap2\n      sub\n      swap1\n      keccak256\n        /* \"Documents/GitHub/Store-system-with-feedback/main.sol\":7934:7968  structProducts[titleProduct].price */\n      0x02\n      add\n      sload\n        /* \"Documents/GitHub/Store-system-with-feedback/main.sol\":7898:7909  structUsers */\n      0x04\n        /* \"Documents/GitHub/Store-system-with-feedback/main.sol\":7898:7921  structUsers[msg.sender] */\n      0x00\n        /* \"Documents/GitHub/Store-system-with-feedback/main.sol\":7910:7920  msg.sender */\n      caller\n      sub(shl(0xa0, 0x01), 0x01)\n        /* \"Documents/GitHub/Store-system-with-feedback/main.sol\":7898:7921  structUsers[msg.sender] */\n      and\n      sub(shl(0xa0, 0x01), 0x01)\n      and\n      dup2\n      mstore\n      0x20\n      add\n      swap1\n      dup2\n      mstore\n      0x20\n      add\n      0x00\n      keccak256\n        /* \"Documents/GitHub/Store-system-with-feedback/main.sol\":7898:7930  structUsers[msg.sender].ballance */\n      0x02\n      add\n      sload\n        /* \"Documents/GitHub/Store-system-with-feedback/main.sol\":7898:7968  structUsers[msg.sender].ballance >= structProducts[titleProduct].price */\n      lt\n      iszero\n        /* \"Documents/GitHub/Store-system-with-feedback/main.sol\":7890:7989  require(structUsers[msg.sender].ballance >= structProducts[titleProduct].price, \"error: not money\") */\n      tag_171\n      jumpi\n      mload(0x40)\n      shl(0xe5, 0x461bcd)\n      dup2\n      mstore\n        /* \"#utility.yul\":11262:11264   */\n      0x20\n        /* \"Documents/GitHub/Store-system-with-feedback/main.sol\":7890:7989  require(structUsers[msg.sender].ballance >= structProducts[titleProduct].price, \"error: not money\") */\n      0x04\n      dup3\n      add\n        /* \"#utility.yul\":11244:11265   */\n      mstore\n        /* \"#utility.yul\":11301:11303   */\n      0x10\n        /* \"#utility.yul\":11281:11299   */\n      0x24\n      dup3\n      add\n        /* \"#utility.yul\":11274:11304   */\n      mstore\n      shl(0x80, 0x6572726f723a206e6f74206d6f6e6579)\n        /* \"#utility.yul\":11320:11338   */\n      0x44\n      dup3\n      add\n        /* \"#utility.yul\":11313:11359   */\n      mstore\n        /* \"#utility.yul\":11376:11394   */\n      0x64\n      add\n        /* \"Documents/GitHub/Store-system-with-feedback/main.sol\":7890:7989  require(structUsers[msg.sender].ballance >= structProducts[titleProduct].price, \"error: not money\") */\n      tag_158\n        /* \"#utility.yul\":11060:11400   */\n      jump\n        /* \"Documents/GitHub/Store-system-with-feedback/main.sol\":7890:7989  require(structUsers[msg.sender].ballance >= structProducts[titleProduct].price, \"error: not money\") */\n    tag_171:\n        /* \"Documents/GitHub/Store-system-with-feedback/main.sol\":8027:8079  structStatusPurchase(msg.sender, titleProduct, true) */\n      0x40\n      dup1\n      mload\n      0x60\n      dup2\n      add\n      dup3\n      mstore\n        /* \"Documents/GitHub/Store-system-with-feedback/main.sol\":8048:8058  msg.sender */\n      caller\n        /* \"Documents/GitHub/Store-system-with-feedback/main.sol\":8027:8079  structStatusPurchase(msg.sender, titleProduct, true) */\n      dup2\n      mstore\n      0x20\n      dup1\n      dup3\n      add\n      dup5\n      dup2\n      mstore\n        /* \"Documents/GitHub/Store-system-with-feedback/main.sol\":8074:8078  true */\n      0x01\n        /* \"Documents/GitHub/Store-system-with-feedback/main.sol\":8027:8079  structStatusPurchase(msg.sender, titleProduct, true) */\n      swap4\n      dup4\n      add\n      dup5\n      swap1\n      mstore\n        /* \"Documents/GitHub/Store-system-with-feedback/main.sol\":8000:8021  structStatusPurchases */\n      0x0a\n        /* \"Documents/GitHub/Store-system-with-feedback/main.sol\":8000:8080  structStatusPurchases.push(structStatusPurchase(msg.sender, titleProduct, true)) */\n      dup1\n      sload\n      swap5\n      dup6\n      add\n      dup2\n      sstore\n      0x00\n      mstore\n      dup3\n      mload\n      0xc65a7bb8d6351c1cf70c95a316cc6a92839c986682d98bc35f958f4883f9d2a8\n      0x03\n      swap1\n      swap6\n      mul\n      swap5\n      dup6\n      add\n      dup1\n      sload\n      not(sub(shl(0xa0, 0x01), 0x01))\n      and\n      sub(shl(0xa0, 0x01), 0x01)\n      swap1\n      swap3\n      and\n      swap2\n      swap1\n      swap2\n      or\n      dup2\n      sstore\n      swap1\n      mload\n      dup1\n      mload\n        /* \"Documents/GitHub/Store-system-with-feedback/main.sol\":8027:8079  structStatusPurchase(msg.sender, titleProduct, true) */\n      swap4\n      swap5\n        /* \"Documents/GitHub/Store-system-with-feedback/main.sol\":8000:8080  structStatusPurchases.push(structStatusPurchase(msg.sender, titleProduct, true)) */\n      swap2\n      swap4\n      tag_175\n      swap4\n      0xc65a7bb8d6351c1cf70c95a316cc6a92839c986682d98bc35f958f4883f9d2a9\n      swap1\n      swap4\n      add\n      swap3\n      swap2\n      swap1\n      swap2\n      add\n      swap1\n      tag_166\n      jump\t// in\n    tag_175:\n      pop\n      0x40\n      swap2\n      swap1\n      swap2\n      add\n      mload\n      0x02\n      swap1\n      swap2\n      add\n      dup1\n      sload\n      not(0xff)\n      and\n      swap2\n      iszero\n      iszero\n      swap2\n      swap1\n      swap2\n      or\n      swap1\n      sstore\n      pop\n        /* \"Documents/GitHub/Store-system-with-feedback/main.sol\":7817:8088  function productPurchases (string memory titleProduct) public {\r... */\n      jump\t// out\n        /* \"Documents/GitHub/Store-system-with-feedback/main.sol\":7311:7730  function leaveComment (string memory userName, string[] memory comment) public {\r... */\n    tag_47:\n        /* \"Documents/GitHub/Store-system-with-feedback/main.sol\":7405:7411  uint i */\n      0x00\n        /* \"Documents/GitHub/Store-system-with-feedback/main.sol\":7401:7723  for(uint i = 0; i < complaintBooks.length; i++) {\r... */\n    tag_177:\n        /* \"Documents/GitHub/Store-system-with-feedback/main.sol\":7421:7435  complaintBooks */\n      0x03\n        /* \"Documents/GitHub/Store-system-with-feedback/main.sol\":7421:7442  complaintBooks.length */\n      sload\n        /* \"Documents/GitHub/Store-system-with-feedback/main.sol\":7417:7442  i < complaintBooks.length */\n      dup2\n      lt\n        /* \"Documents/GitHub/Store-system-with-feedback/main.sol\":7401:7723  for(uint i = 0; i < complaintBooks.length; i++) {\r... */\n      iszero\n      tag_178\n      jumpi\n        /* \"Documents/GitHub/Store-system-with-feedback/main.sol\":7464:7490  string memory tempUserName */\n      0x00\n        /* \"Documents/GitHub/Store-system-with-feedback/main.sol\":7493:7507  complaintBooks */\n      0x03\n        /* \"Documents/GitHub/Store-system-with-feedback/main.sol\":7508:7509  i */\n      dup3\n        /* \"Documents/GitHub/Store-system-with-feedback/main.sol\":7493:7510  complaintBooks[i] */\n      dup2\n      sload\n      dup2\n      lt\n      tag_181\n      jumpi\n      tag_181\n      tag_131\n      jump\t// in\n    tag_181:\n      swap1\n      0x00\n      mstore\n      keccak256(0x00, 0x20)\n      swap1\n      0x05\n      mul\n      add\n        /* \"Documents/GitHub/Store-system-with-feedback/main.sol\":7493:7519  complaintBooks[i].userName */\n      0x01\n      add\n        /* \"Documents/GitHub/Store-system-with-feedback/main.sol\":7464:7519  string memory tempUserName = complaintBooks[i].userName */\n      dup1\n      sload\n      tag_183\n      swap1\n      tag_184\n      jump\t// in\n    tag_183:\n      dup1\n      0x1f\n      add\n      0x20\n      dup1\n      swap2\n      div\n      mul\n      0x20\n      add\n      mload(0x40)\n      swap1\n      dup2\n      add\n      0x40\n      mstore\n      dup1\n      swap3\n      swap2\n      swap1\n      dup2\n      dup2\n      mstore\n      0x20\n      add\n      dup3\n      dup1\n      sload\n      tag_185\n      swap1\n      tag_184\n      jump\t// in\n    tag_185:\n      dup1\n      iszero\n      tag_186\n      jumpi\n      dup1\n      0x1f\n      lt\n      tag_187\n      jumpi\n      0x0100\n      dup1\n      dup4\n      sload\n      div\n      mul\n      dup4\n      mstore\n      swap2\n      0x20\n      add\n      swap2\n      jump(tag_186)\n    tag_187:\n      dup3\n      add\n      swap2\n      swap1\n      0x00\n      mstore\n      keccak256(0x00, 0x20)\n      swap1\n    tag_188:\n      dup2\n      sload\n      dup2\n      mstore\n      swap1\n      0x01\n      add\n      swap1\n      0x20\n      add\n      dup1\n      dup4\n      gt\n      tag_188\n      jumpi\n      dup3\n      swap1\n      sub\n      0x1f\n      and\n      dup3\n      add\n      swap2\n    tag_186:\n      pop\n      pop\n      pop\n      pop\n      pop\n      swap1\n      pop\n        /* \"Documents/GitHub/Store-system-with-feedback/main.sol\":7609:7617  userName */\n      dup4\n        /* \"Documents/GitHub/Store-system-with-feedback/main.sol\":7592:7618  abi.encodePacked(userName) */\n      add(0x20, mload(0x40))\n      tag_189\n      swap2\n      swap1\n      tag_161\n      jump\t// in\n    tag_189:\n      mload(0x40)\n      0x20\n      dup2\n      dup4\n      sub\n      sub\n      dup2\n      mstore\n      swap1\n      0x40\n      mstore\n        /* \"Documents/GitHub/Store-system-with-feedback/main.sol\":7582:7619  keccak256(abi.encodePacked(userName)) */\n      dup1\n      mload\n      swap1\n      0x20\n      add\n      keccak256\n        /* \"Documents/GitHub/Store-system-with-feedback/main.sol\":7564:7576  tempUserName */\n      dup2\n        /* \"Documents/GitHub/Store-system-with-feedback/main.sol\":7547:7577  abi.encodePacked(tempUserName) */\n      add(0x20, mload(0x40))\n      tag_190\n      swap2\n      swap1\n      tag_161\n      jump\t// in\n    tag_190:\n      mload(0x40)\n      0x20\n      dup2\n      dup4\n      sub\n      sub\n      dup2\n      mstore\n      swap1\n      0x40\n      mstore\n        /* \"Documents/GitHub/Store-system-with-feedback/main.sol\":7537:7578  keccak256(abi.encodePacked(tempUserName)) */\n      dup1\n      mload\n      swap1\n      0x20\n      add\n      keccak256\n        /* \"Documents/GitHub/Store-system-with-feedback/main.sol\":7537:7619  keccak256(abi.encodePacked(tempUserName)) == keccak256(abi.encodePacked(userName)) */\n      eq\n        /* \"Documents/GitHub/Store-system-with-feedback/main.sol\":7534:7712  if(keccak256(abi.encodePacked(tempUserName)) == keccak256(abi.encodePacked(userName))) {                    \r... */\n      iszero\n      tag_191\n      jumpi\n        /* \"Documents/GitHub/Store-system-with-feedback/main.sol\":7689:7696  comment */\n      dup3\n        /* \"Documents/GitHub/Store-system-with-feedback/main.sol\":7660:7674  complaintBooks */\n      0x03\n        /* \"Documents/GitHub/Store-system-with-feedback/main.sol\":7675:7676  i */\n      dup4\n        /* \"Documents/GitHub/Store-system-with-feedback/main.sol\":7660:7677  complaintBooks[i] */\n      dup2\n      sload\n      dup2\n      lt\n      tag_193\n      jumpi\n      tag_193\n      tag_131\n      jump\t// in\n    tag_193:\n      swap1\n      0x00\n      mstore\n      keccak256(0x00, 0x20)\n      swap1\n      0x05\n      mul\n      add\n        /* \"Documents/GitHub/Store-system-with-feedback/main.sol\":7660:7686  complaintBooks[i].comments */\n      0x04\n      add\n        /* \"Documents/GitHub/Store-system-with-feedback/main.sol\":7660:7696  complaintBooks[i].comments = comment */\n      swap1\n      dup1\n      mload\n      swap1\n      0x20\n      add\n      swap1\n      tag_195\n      swap3\n      swap2\n      swap1\n      tag_196\n      jump\t// in\n    tag_195:\n      pop\n        /* \"Documents/GitHub/Store-system-with-feedback/main.sol\":7534:7712  if(keccak256(abi.encodePacked(tempUserName)) == keccak256(abi.encodePacked(userName))) {                    \r... */\n    tag_191:\n      pop\n        /* \"Documents/GitHub/Store-system-with-feedback/main.sol\":7444:7447  i++ */\n      dup1\n      tag_197\n      dup2\n      tag_198\n      jump\t// in\n    tag_197:\n      swap2\n      pop\n      pop\n        /* \"Documents/GitHub/Store-system-with-feedback/main.sol\":7401:7723  for(uint i = 0; i < complaintBooks.length; i++) {\r... */\n      jump(tag_177)\n    tag_178:\n      pop\n        /* \"Documents/GitHub/Store-system-with-feedback/main.sol\":7311:7730  function leaveComment (string memory userName, string[] memory comment) public {\r... */\n      pop\n      pop\n      jump\t// out\n        /* \"Documents/GitHub/Store-system-with-feedback/main.sol\":5038:5499  function acceptReturn(uint idReturn, bool confirmation) public {\r... */\n    tag_50:\n        /* \"Documents/GitHub/Store-system-with-feedback/main.sol\":5131:5135  true */\n      0x01\n        /* \"Documents/GitHub/Store-system-with-feedback/main.sol\":5115:5135  confirmation == true */\n      dup2\n      iszero\n      iszero\n      eq\n        /* \"Documents/GitHub/Store-system-with-feedback/main.sol\":5112:5492  if(confirmation == true) {\r... */\n      iszero\n      tag_200\n      jumpi\n        /* \"Documents/GitHub/Store-system-with-feedback/main.sol\":5191:5196  false */\n      0x00\n        /* \"Documents/GitHub/Store-system-with-feedback/main.sol\":5152:5171  structStatusReturns */\n      0x0b\n        /* \"Documents/GitHub/Store-system-with-feedback/main.sol\":5172:5180  idReturn */\n      dup4\n        /* \"Documents/GitHub/Store-system-with-feedback/main.sol\":5152:5181  structStatusReturns[idReturn] */\n      dup2\n      sload\n      dup2\n      lt\n      tag_202\n      jumpi\n      tag_202\n      tag_131\n      jump\t// in\n    tag_202:\n      swap1\n      0x00\n      mstore\n      keccak256(0x00, 0x20)\n      swap1\n      0x03\n      mul\n      add\n        /* \"Documents/GitHub/Store-system-with-feedback/main.sol\":5152:5188  structStatusReturns[idReturn].status */\n      0x02\n      add\n      0x00\n        /* \"Documents/GitHub/Store-system-with-feedback/main.sol\":5152:5196  structStatusReturns[idReturn].status = false */\n      0x0100\n      exp\n      dup2\n      sload\n      dup2\n      0xff\n      mul\n      not\n      and\n      swap1\n      dup4\n      iszero\n      iszero\n      mul\n      or\n      swap1\n      sstore\n      pop\n        /* \"Documents/GitHub/Store-system-with-feedback/main.sol\":5339:5353  structProducts */\n      0x08\n        /* \"Documents/GitHub/Store-system-with-feedback/main.sol\":5354:5373  structStatusReturns */\n      0x0b\n        /* \"Documents/GitHub/Store-system-with-feedback/main.sol\":5374:5382  idReturn */\n      dup4\n        /* \"Documents/GitHub/Store-system-with-feedback/main.sol\":5354:5383  structStatusReturns[idReturn] */\n      dup2\n      sload\n      dup2\n      lt\n      tag_205\n      jumpi\n      tag_205\n      tag_131\n      jump\t// in\n    tag_205:\n      swap1\n      0x00\n      mstore\n      keccak256(0x00, 0x20)\n      swap1\n      0x03\n      mul\n      add\n        /* \"Documents/GitHub/Store-system-with-feedback/main.sol\":5354:5396  structStatusReturns[idReturn].titleProduct */\n      0x01\n      add\n        /* \"Documents/GitHub/Store-system-with-feedback/main.sol\":5339:5397  structProducts[structStatusReturns[idReturn].titleProduct] */\n      mload(0x40)\n      tag_207\n      swap2\n      swap1\n      tag_137\n      jump\t// in\n    tag_207:\n      swap1\n      dup2\n      mstore\n      0x20\n      add\n      mload(0x40)\n      dup1\n      swap2\n      sub\n      swap1\n      keccak256\n        /* \"Documents/GitHub/Store-system-with-feedback/main.sol\":5339:5403  structProducts[structStatusReturns[idReturn].titleProduct].price */\n      0x02\n      add\n      sload\n        /* \"Documents/GitHub/Store-system-with-feedback/main.sol\":5275:5286  structUsers */\n      0x04\n        /* \"Documents/GitHub/Store-system-with-feedback/main.sol\":5275:5327  structUsers[structStatusReturns[idReturn].userLogin] */\n      0x00\n        /* \"Documents/GitHub/Store-system-with-feedback/main.sol\":5287:5306  structStatusReturns */\n      0x0b\n        /* \"Documents/GitHub/Store-system-with-feedback/main.sol\":5307:5315  idReturn */\n      dup6\n        /* \"Documents/GitHub/Store-system-with-feedback/main.sol\":5287:5316  structStatusReturns[idReturn] */\n      dup2\n      sload\n      dup2\n      lt\n      tag_209\n      jumpi\n      tag_209\n      tag_131\n      jump\t// in\n    tag_209:\n      0x00\n      swap2\n      dup3\n      mstore\n      0x20\n      dup1\n      dup4\n      keccak256\n      0x03\n      swap1\n      swap3\n      mul\n      swap1\n      swap2\n      add\n        /* \"Documents/GitHub/Store-system-with-feedback/main.sol\":5287:5326  structStatusReturns[idReturn].userLogin */\n      sload\n      sub(shl(0xa0, 0x01), 0x01)\n      and\n        /* \"Documents/GitHub/Store-system-with-feedback/main.sol\":5275:5327  structUsers[structStatusReturns[idReturn].userLogin] */\n      dup4\n      mstore\n      dup3\n      add\n      swap3\n      swap1\n      swap3\n      mstore\n      0x40\n      add\n      swap1\n      keccak256\n        /* \"Documents/GitHub/Store-system-with-feedback/main.sol\":5275:5336  structUsers[structStatusReturns[idReturn].userLogin].ballance */\n      0x02\n      add\n      sload\n        /* \"Documents/GitHub/Store-system-with-feedback/main.sol\":5275:5403  structUsers[structStatusReturns[idReturn].userLogin].ballance + structProducts[structStatusReturns[idReturn].titleProduct].price */\n      tag_211\n      swap2\n      swap1\n      tag_151\n      jump\t// in\n    tag_211:\n        /* \"Documents/GitHub/Store-system-with-feedback/main.sol\":5211:5222  structUsers */\n      0x04\n        /* \"Documents/GitHub/Store-system-with-feedback/main.sol\":5211:5263  structUsers[structStatusReturns[idReturn].userLogin] */\n      0x00\n        /* \"Documents/GitHub/Store-system-with-feedback/main.sol\":5223:5242  structStatusReturns */\n      0x0b\n        /* \"Documents/GitHub/Store-system-with-feedback/main.sol\":5243:5251  idReturn */\n      dup6\n        /* \"Documents/GitHub/Store-system-with-feedback/main.sol\":5223:5252  structStatusReturns[idReturn] */\n      dup2\n      sload\n      dup2\n      lt\n      tag_213\n      jumpi\n      tag_213\n      tag_131\n      jump\t// in\n    tag_213:\n      0x00\n      swap2\n      dup3\n      mstore\n      0x20\n      dup1\n      dup4\n      keccak256\n      0x03\n      swap1\n      swap3\n      mul\n      swap1\n      swap2\n      add\n        /* \"Documents/GitHub/Store-system-with-feedback/main.sol\":5223:5262  structStatusReturns[idReturn].userLogin */\n      sload\n      sub(shl(0xa0, 0x01), 0x01)\n      and\n        /* \"Documents/GitHub/Store-system-with-feedback/main.sol\":5211:5263  structUsers[structStatusReturns[idReturn].userLogin] */\n      dup4\n      mstore\n      dup3\n      add\n      swap3\n      swap1\n      swap3\n      mstore\n      0x40\n      add\n      swap1\n      keccak256\n        /* \"Documents/GitHub/Store-system-with-feedback/main.sol\":5211:5272  structUsers[structStatusReturns[idReturn].userLogin].ballance */\n      0x02\n      add\n        /* \"Documents/GitHub/Store-system-with-feedback/main.sol\":5211:5403  structUsers[structStatusReturns[idReturn].userLogin].ballance = structUsers[structStatusReturns[idReturn].userLogin].ballance + structProducts[structStatusReturns[idReturn].titleProduct].price */\n      sstore\n        /* \"Documents/GitHub/Store-system-with-feedback/main.sol\":4365:4993  function acceptPurchase (uint idPurchase, bool confirmation) public {\r... */\n      pop\n      pop\n      jump\t// out\n        /* \"Documents/GitHub/Store-system-with-feedback/main.sol\":5112:5492  if(confirmation == true) {\r... */\n    tag_200:\n        /* \"Documents/GitHub/Store-system-with-feedback/main.sol\":5475:5480  false */\n      0x00\n        /* \"Documents/GitHub/Store-system-with-feedback/main.sol\":5436:5455  structStatusReturns */\n      0x0b\n        /* \"Documents/GitHub/Store-system-with-feedback/main.sol\":5456:5464  idReturn */\n      dup4\n        /* \"Documents/GitHub/Store-system-with-feedback/main.sol\":5436:5465  structStatusReturns[idReturn] */\n      dup2\n      sload\n      dup2\n      lt\n      tag_154\n      jumpi\n      tag_154\n      tag_131\n      jump\t// in\n        /* \"Documents/GitHub/Store-system-with-feedback/main.sol\":8327:8511  function productMarriageRegistration (string memory titleProduct) public {\r... */\n    tag_53:\n        /* \"Documents/GitHub/Store-system-with-feedback/main.sol\":8444:8502  structMarriageRegistration(msg.sender, titleProduct, true) */\n      0x40\n      dup1\n      mload\n      0x60\n      dup2\n      add\n      dup3\n      mstore\n        /* \"Documents/GitHub/Store-system-with-feedback/main.sol\":8471:8481  msg.sender */\n      caller\n        /* \"Documents/GitHub/Store-system-with-feedback/main.sol\":8444:8502  structMarriageRegistration(msg.sender, titleProduct, true) */\n      dup2\n      mstore\n      0x20\n      dup1\n      dup3\n      add\n      dup5\n      dup2\n      mstore\n        /* \"Documents/GitHub/Store-system-with-feedback/main.sol\":8497:8501  true */\n      0x01\n        /* \"Documents/GitHub/Store-system-with-feedback/main.sol\":8444:8502  structMarriageRegistration(msg.sender, titleProduct, true) */\n      swap4\n      dup4\n      add\n      dup5\n      swap1\n      mstore\n        /* \"Documents/GitHub/Store-system-with-feedback/main.sol\":8411:8438  structMarriageRegistrations */\n      0x0c\n        /* \"Documents/GitHub/Store-system-with-feedback/main.sol\":8411:8503  structMarriageRegistrations.push(structMarriageRegistration(msg.sender, titleProduct, true)) */\n      dup1\n      sload\n      swap5\n      dup6\n      add\n      dup2\n      sstore\n      0x00\n      mstore\n      dup3\n      mload\n      0xdf6966c971051c3d54ec59162606531493a51404a002842f56009d7e5cf4a8c7\n      0x03\n      swap1\n      swap6\n      mul\n      swap5\n      dup6\n      add\n      dup1\n      sload\n      not(sub(shl(0xa0, 0x01), 0x01))\n      and\n      sub(shl(0xa0, 0x01), 0x01)\n      swap1\n      swap3\n      and\n      swap2\n      swap1\n      swap2\n      or\n      dup2\n      sstore\n      swap1\n      mload\n      dup1\n      mload\n        /* \"Documents/GitHub/Store-system-with-feedback/main.sol\":8444:8502  structMarriageRegistration(msg.sender, titleProduct, true) */\n      swap4\n      swap5\n        /* \"Documents/GitHub/Store-system-with-feedback/main.sol\":8411:8503  structMarriageRegistrations.push(structMarriageRegistration(msg.sender, titleProduct, true)) */\n      swap2\n      swap4\n      tag_175\n      swap4\n      0xdf6966c971051c3d54ec59162606531493a51404a002842f56009d7e5cf4a8c8\n      swap1\n      swap4\n      add\n      swap3\n      swap2\n      swap1\n      swap2\n      add\n      swap1\n      tag_166\n      jump\t// in\n        /* \"Documents/GitHub/Store-system-with-feedback/main.sol\":6286:6386  function getProductList() public view returns(string[] memory) {\r... */\n    tag_55:\n        /* \"Documents/GitHub/Store-system-with-feedback/main.sol\":6332:6347  string[] memory */\n      0x60\n        /* \"Documents/GitHub/Store-system-with-feedback/main.sol\":6367:6378  productList */\n      0x09\n        /* \"Documents/GitHub/Store-system-with-feedback/main.sol\":6360:6378  return productList */\n      dup1\n      sload\n      dup1\n      0x20\n      mul\n      0x20\n      add\n      mload(0x40)\n      swap1\n      dup2\n      add\n      0x40\n      mstore\n      dup1\n      swap3\n      swap2\n      swap1\n      dup2\n      dup2\n      mstore\n      0x20\n      add\n      0x00\n      swap1\n    tag_223:\n      dup3\n      dup3\n      lt\n      iszero\n      tag_224\n      jumpi\n      dup4\n      dup3\n      swap1\n      0x00\n      mstore\n      keccak256(0x00, 0x20)\n      add\n      dup1\n      sload\n      tag_226\n      swap1\n      tag_184\n      jump\t// in\n    tag_226:\n      dup1\n      0x1f\n      add\n      0x20\n      dup1\n      swap2\n      div\n      mul\n      0x20\n      add\n      mload(0x40)\n      swap1\n      dup2\n      add\n      0x40\n      mstore\n      dup1\n      swap3\n      swap2\n      swap1\n      dup2\n      dup2\n      mstore\n      0x20\n      add\n      dup3\n      dup1\n      sload\n      tag_227\n      swap1\n      tag_184\n      jump\t// in\n    tag_227:\n      dup1\n      iszero\n      tag_228\n      jumpi\n      dup1\n      0x1f\n      lt\n      tag_229\n      jumpi\n      0x0100\n      dup1\n      dup4\n      sload\n      div\n      mul\n      dup4\n      mstore\n      swap2\n      0x20\n      add\n      swap2\n      jump(tag_228)\n    tag_229:\n      dup3\n      add\n      swap2\n      swap1\n      0x00\n      mstore\n      keccak256(0x00, 0x20)\n      swap1\n    tag_230:\n      dup2\n      sload\n      dup2\n      mstore\n      swap1\n      0x01\n      add\n      swap1\n      0x20\n      add\n      dup1\n      dup4\n      gt\n      tag_230\n      jumpi\n      dup3\n      swap1\n      sub\n      0x1f\n      and\n      dup3\n      add\n      swap2\n    tag_228:\n      pop\n      pop\n      pop\n      pop\n      pop\n      dup2\n      mstore\n      0x20\n      add\n      swap1\n      0x01\n      add\n      swap1\n      jump(tag_223)\n    tag_224:\n      pop\n      pop\n      pop\n      pop\n      swap1\n      pop\n        /* \"Documents/GitHub/Store-system-with-feedback/main.sol\":6286:6386  function getProductList() public view returns(string[] memory) {\r... */\n      swap1\n      jump\t// out\n        /* \"Documents/GitHub/Store-system-with-feedback/main.sol\":8555:8676  function get_address(string memory login) public view returns(address) {\r... */\n    tag_60:\n        /* \"Documents/GitHub/Store-system-with-feedback/main.sol\":8617:8624  address */\n      0x00\n        /* \"Documents/GitHub/Store-system-with-feedback/main.sol\":8644:8660  structUserLogins */\n      0x05\n        /* \"Documents/GitHub/Store-system-with-feedback/main.sol\":8661:8666  login */\n      dup3\n        /* \"Documents/GitHub/Store-system-with-feedback/main.sol\":8644:8667  structUserLogins[login] */\n      mload(0x40)\n      tag_232\n      swap2\n      swap1\n      tag_161\n      jump\t// in\n    tag_232:\n      swap1\n      dup2\n      mstore\n      mload(0x40)\n      swap1\n      dup2\n      swap1\n      sub\n      0x20\n      add\n      swap1\n      keccak256\n      sload\n      sub(shl(0xa0, 0x01), 0x01)\n      and\n      swap3\n        /* \"Documents/GitHub/Store-system-with-feedback/main.sol\":8555:8676  function get_address(string memory login) public view returns(address) {\r... */\n      swap2\n      pop\n      pop\n      jump\t// out\n        /* \"Documents/GitHub/Store-system-with-feedback/main.sol\":3286:3685  function addProductShop (string memory title, uint256 price, string memory description) public {\r... */\n    tag_65:\n        /* \"Documents/GitHub/Store-system-with-feedback/main.sol\":3501:3573  structProduct(msg.sender, description , price, addProductShop_idProduct) */\n      mload(0x40)\n      dup1\n      0x80\n      add\n      0x40\n      mstore\n      dup1\n        /* \"Documents/GitHub/Store-system-with-feedback/main.sol\":3515:3525  msg.sender */\n      caller\n      sub(shl(0xa0, 0x01), 0x01)\n        /* \"Documents/GitHub/Store-system-with-feedback/main.sol\":3501:3573  structProduct(msg.sender, description , price, addProductShop_idProduct) */\n      and\n      dup2\n      mstore\n      0x20\n      add\n        /* \"Documents/GitHub/Store-system-with-feedback/main.sol\":3527:3538  description */\n      dup3\n        /* \"Documents/GitHub/Store-system-with-feedback/main.sol\":3501:3573  structProduct(msg.sender, description , price, addProductShop_idProduct) */\n      dup2\n      mstore\n      0x20\n      add\n        /* \"Documents/GitHub/Store-system-with-feedback/main.sol\":3541:3546  price */\n      dup4\n        /* \"Documents/GitHub/Store-system-with-feedback/main.sol\":3501:3573  structProduct(msg.sender, description , price, addProductShop_idProduct) */\n      dup2\n      mstore\n      0x20\n      add\n        /* \"Documents/GitHub/Store-system-with-feedback/main.sol\":3548:3572  addProductShop_idProduct */\n      sload(0x0d)\n        /* \"Documents/GitHub/Store-system-with-feedback/main.sol\":3501:3573  structProduct(msg.sender, description , price, addProductShop_idProduct) */\n      dup2\n      mstore\n      pop\n        /* \"Documents/GitHub/Store-system-with-feedback/main.sol\":3477:3491  structProducts */\n      0x08\n        /* \"Documents/GitHub/Store-system-with-feedback/main.sol\":3492:3497  title */\n      dup5\n        /* \"Documents/GitHub/Store-system-with-feedback/main.sol\":3477:3498  structProducts[title] */\n      mload(0x40)\n      tag_234\n      swap2\n      swap1\n      tag_161\n      jump\t// in\n    tag_234:\n      swap1\n      dup2\n      mstore\n      mload(0x40)\n      0x20\n      swap2\n      dup2\n      swap1\n      sub\n      dup3\n      add\n      swap1\n      keccak256\n        /* \"Documents/GitHub/Store-system-with-feedback/main.sol\":3477:3573  structProducts[title] = structProduct(msg.sender, description , price, addProductShop_idProduct) */\n      dup3\n      mload\n      dup2\n      sload\n      not(sub(shl(0xa0, 0x01), 0x01))\n      and\n      sub(shl(0xa0, 0x01), 0x01)\n      swap1\n      swap2\n      and\n      or\n      dup2\n      sstore\n      dup3\n      dup3\n      add\n      mload\n      dup1\n      mload\n        /* \"Documents/GitHub/Store-system-with-feedback/main.sol\":3477:3498  structProducts[title] */\n      swap2\n      swap3\n        /* \"Documents/GitHub/Store-system-with-feedback/main.sol\":3477:3573  structProducts[title] = structProduct(msg.sender, description , price, addProductShop_idProduct) */\n      tag_235\n      swap3\n      0x01\n      dup6\n      add\n      swap3\n      swap1\n      swap2\n      add\n      swap1\n      tag_166\n      jump\t// in\n    tag_235:\n      pop\n      0x40\n      dup3\n      add\n      mload\n      0x02\n      dup3\n      add\n      sstore\n      0x60\n      swap1\n      swap2\n      add\n      mload\n      0x03\n      swap1\n      swap2\n      add\n      sstore\n        /* \"Documents/GitHub/Store-system-with-feedback/main.sol\":3588:3599  productList */\n      0x09\n        /* \"Documents/GitHub/Store-system-with-feedback/main.sol\":3588:3611  productList.push(title) */\n      dup1\n      sload\n      0x01\n      dup2\n      add\n      dup3\n      sstore\n      0x00\n      swap2\n      swap1\n      swap2\n      mstore\n      dup4\n      mload\n      tag_237\n      swap2\n      0x6e1540171b6c0c960b71a7020d9f60077f6af931a8bbf590da0223dacf75c7af\n      add\n      swap1\n      0x20\n      dup7\n      add\n      swap1\n      tag_166\n      jump\t// in\n    tag_237:\n      pop\n        /* \"Documents/GitHub/Store-system-with-feedback/main.sol\":3626:3650  addProductShop_idProduct */\n      0x0d\n        /* \"Documents/GitHub/Store-system-with-feedback/main.sol\":3626:3652  addProductShop_idProduct++ */\n      dup1\n      sload\n      swap1\n        /* \"Documents/GitHub/Store-system-with-feedback/main.sol\":3626:3650  addProductShop_idProduct */\n      0x00\n        /* \"Documents/GitHub/Store-system-with-feedback/main.sol\":3626:3652  addProductShop_idProduct++ */\n      tag_238\n      dup4\n      tag_198\n      jump\t// in\n    tag_238:\n      swap2\n      swap1\n      pop\n      sstore\n      pop\n        /* \"Documents/GitHub/Store-system-with-feedback/main.sol\":3286:3685  function addProductShop (string memory title, uint256 price, string memory description) public {\r... */\n      pop\n      pop\n      pop\n      jump\t// out\n        /* \"Documents/GitHub/Store-system-with-feedback/main.sol\":3101:3164  structMarriageRegistration[] public structMarriageRegistrations */\n    tag_69:\n      0x0c\n      dup2\n      dup2\n      sload\n      dup2\n      lt\n      tag_239\n      jumpi\n      0x00\n      dup1\n      revert\n    tag_239:\n      0x00\n      swap2\n      dup3\n      mstore\n      0x20\n      swap1\n      swap2\n      keccak256\n      0x03\n      swap1\n      swap2\n      mul\n      add\n      dup1\n      sload\n      0x01\n      dup3\n      add\n      dup1\n      sload\n      sub(shl(0xa0, 0x01), 0x01)\n      swap1\n      swap3\n      and\n      swap4\n      pop\n      swap1\n      tag_241\n      swap1\n      tag_184\n      jump\t// in\n    tag_241:\n      dup1\n      0x1f\n      add\n      0x20\n      dup1\n      swap2\n      div\n      mul\n      0x20\n      add\n      mload(0x40)\n      swap1\n      dup2\n      add\n      0x40\n      mstore\n      dup1\n      swap3\n      swap2\n      swap1\n      dup2\n      dup2\n      mstore\n      0x20\n      add\n      dup3\n      dup1\n      sload\n      tag_242\n      swap1\n      tag_184\n      jump\t// in\n    tag_242:\n      dup1\n      iszero\n      tag_243\n      jumpi\n      dup1\n      0x1f\n      lt\n      tag_244\n      jumpi\n      0x0100\n      dup1\n      dup4\n      sload\n      div\n      mul\n      dup4\n      mstore\n      swap2\n      0x20\n      add\n      swap2\n      jump(tag_243)\n    tag_244:\n      dup3\n      add\n      swap2\n      swap1\n      0x00\n      mstore\n      keccak256(0x00, 0x20)\n      swap1\n    tag_245:\n      dup2\n      sload\n      dup2\n      mstore\n      swap1\n      0x01\n      add\n      swap1\n      0x20\n      add\n      dup1\n      dup4\n      gt\n      tag_245\n      jumpi\n      dup3\n      swap1\n      sub\n      0x1f\n      and\n      dup3\n      add\n      swap2\n    tag_243:\n      pop\n      pop\n      pop\n      0x02\n      swap1\n      swap4\n      add\n      sload\n      swap2\n      swap3\n      pop\n      pop\n      0xff\n      and\n      dup4\n      jump\t// out\n        /* \"Documents/GitHub/Store-system-with-feedback/main.sol\":961:1104  function get_hash(string memory password) public pure returns(bytes32) {\r... */\n    tag_74:\n        /* \"Documents/GitHub/Store-system-with-feedback/main.sol\":1023:1030  bytes32 */\n      0x00\n        /* \"Documents/GitHub/Store-system-with-feedback/main.sol\":1081:1089  password */\n      dup2\n        /* \"Documents/GitHub/Store-system-with-feedback/main.sol\":1064:1090  abi.encodePacked(password) */\n      add(0x20, mload(0x40))\n      tag_247\n      swap2\n      swap1\n      tag_161\n      jump\t// in\n    tag_247:\n      mload(0x40)\n      0x20\n      dup2\n      dup4\n      sub\n      sub\n      dup2\n      mstore\n      swap1\n      0x40\n      mstore\n        /* \"Documents/GitHub/Store-system-with-feedback/main.sol\":1054:1091  keccak256(abi.encodePacked(password)) */\n      dup1\n      mload\n      swap1\n      0x20\n      add\n      keccak256\n        /* \"Documents/GitHub/Store-system-with-feedback/main.sol\":1047:1092  return(keccak256(abi.encodePacked(password))) */\n      swap1\n      pop\n        /* \"Documents/GitHub/Store-system-with-feedback/main.sol\":961:1104  function get_hash(string memory password) public pure returns(bytes32) {\r... */\n      swap2\n      swap1\n      pop\n      jump\t// out\n        /* \"Documents/GitHub/Store-system-with-feedback/main.sol\":2098:2147  mapping(address => structUser) public structUsers */\n    tag_80:\n      mstore(0x20, 0x04)\n      0x00\n      swap1\n      dup2\n      mstore\n      0x40\n      swap1\n      keccak256\n      dup1\n      sload\n      dup2\n      swap1\n      tag_248\n      swap1\n      tag_184\n      jump\t// in\n    tag_248:\n      dup1\n      0x1f\n      add\n      0x20\n      dup1\n      swap2\n      div\n      mul\n      0x20\n      add\n      mload(0x40)\n      swap1\n      dup2\n      add\n      0x40\n      mstore\n      dup1\n      swap3\n      swap2\n      swap1\n      dup2\n      dup2\n      mstore\n      0x20\n      add\n      dup3\n      dup1\n      sload\n      tag_249\n      swap1\n      tag_184\n      jump\t// in\n    tag_249:\n      dup1\n      iszero\n      tag_250\n      jumpi\n      dup1\n      0x1f\n      lt\n      tag_251\n      jumpi\n      0x0100\n      dup1\n      dup4\n      sload\n      div\n      mul\n      dup4\n      mstore\n      swap2\n      0x20\n      add\n      swap2\n      jump(tag_250)\n    tag_251:\n      dup3\n      add\n      swap2\n      swap1\n      0x00\n      mstore\n      keccak256(0x00, 0x20)\n      swap1\n    tag_252:\n      dup2\n      sload\n      dup2\n      mstore\n      swap1\n      0x01\n      add\n      swap1\n      0x20\n      add\n      dup1\n      dup4\n      gt\n      tag_252\n      jumpi\n      dup3\n      swap1\n      sub\n      0x1f\n      and\n      dup3\n      add\n      swap2\n    tag_250:\n      pop\n      pop\n      pop\n      pop\n      0x01\n      dup4\n      add\n      sload\n      0x02\n      dup5\n      add\n      sload\n      0x03\n      dup6\n      add\n      sload\n      0x04\n      swap1\n      swap6\n      add\n      sload\n      swap4\n      swap5\n      swap2\n      swap4\n      swap1\n      swap3\n      pop\n      0xff\n      and\n      dup6\n      jump\t// out\n        /* \"Documents/GitHub/Store-system-with-feedback/main.sol\":6418:7271  function getStoryRating(string memory shopName) public view returns(uint) {\r... */\n    tag_85:\n        /* \"Documents/GitHub/Store-system-with-feedback/main.sol\":6486:6490  uint */\n      0x00\n      dup1\n      dup1\n      dup1\n        /* \"Documents/GitHub/Store-system-with-feedback/main.sol\":6576:7163  for(uint i = 0; i < shopList.length; i++) {\r... */\n    tag_254:\n        /* \"Documents/GitHub/Store-system-with-feedback/main.sol\":6596:6604  shopList */\n      0x02\n        /* \"Documents/GitHub/Store-system-with-feedback/main.sol\":6596:6611  shopList.length */\n      sload\n        /* \"Documents/GitHub/Store-system-with-feedback/main.sol\":6592:6611  i < shopList.length */\n      dup2\n      lt\n        /* \"Documents/GitHub/Store-system-with-feedback/main.sol\":6576:7163  for(uint i = 0; i < shopList.length; i++) {\r... */\n      iszero\n      tag_255\n      jumpi\n        /* \"Documents/GitHub/Store-system-with-feedback/main.sol\":6633:6659  string memory tempShopName */\n      0x00\n        /* \"Documents/GitHub/Store-system-with-feedback/main.sol\":6662:6670  shopList */\n      0x02\n        /* \"Documents/GitHub/Store-system-with-feedback/main.sol\":6671:6672  i */\n      dup3\n        /* \"Documents/GitHub/Store-system-with-feedback/main.sol\":6662:6673  shopList[i] */\n      dup2\n      sload\n      dup2\n      lt\n      tag_258\n      jumpi\n      tag_258\n      tag_131\n      jump\t// in\n    tag_258:\n      swap1\n      0x00\n      mstore\n      keccak256(0x00, 0x20)\n      add\n        /* \"Documents/GitHub/Store-system-with-feedback/main.sol\":6633:6673  string memory tempShopName = shopList[i] */\n      dup1\n      sload\n      tag_260\n      swap1\n      tag_184\n      jump\t// in\n    tag_260:\n      dup1\n      0x1f\n      add\n      0x20\n      dup1\n      swap2\n      div\n      mul\n      0x20\n      add\n      mload(0x40)\n      swap1\n      dup2\n      add\n      0x40\n      mstore\n      dup1\n      swap3\n      swap2\n      swap1\n      dup2\n      dup2\n      mstore\n      0x20\n      add\n      dup3\n      dup1\n      sload\n      tag_261\n      swap1\n      tag_184\n      jump\t// in\n    tag_261:\n      dup1\n      iszero\n      tag_262\n      jumpi\n      dup1\n      0x1f\n      lt\n      tag_263\n      jumpi\n      0x0100\n      dup1\n      dup4\n      sload\n      div\n      mul\n      dup4\n      mstore\n      swap2\n      0x20\n      add\n      swap2\n      jump(tag_262)\n    tag_263:\n      dup3\n      add\n      swap2\n      swap1\n      0x00\n      mstore\n      keccak256(0x00, 0x20)\n      swap1\n    tag_264:\n      dup2\n      sload\n      dup2\n      mstore\n      swap1\n      0x01\n      add\n      swap1\n      0x20\n      add\n      dup1\n      dup4\n      gt\n      tag_264\n      jumpi\n      dup3\n      swap1\n      sub\n      0x1f\n      and\n      dup3\n      add\n      swap2\n    tag_262:\n      pop\n      pop\n      pop\n      pop\n      pop\n      swap1\n      pop\n        /* \"Documents/GitHub/Store-system-with-feedback/main.sol\":6763:6771  shopName */\n      dup6\n        /* \"Documents/GitHub/Store-system-with-feedback/main.sol\":6746:6772  abi.encodePacked(shopName) */\n      add(0x20, mload(0x40))\n      tag_265\n      swap2\n      swap1\n      tag_161\n      jump\t// in\n    tag_265:\n      mload(0x40)\n      0x20\n      dup2\n      dup4\n      sub\n      sub\n      dup2\n      mstore\n      swap1\n      0x40\n      mstore\n        /* \"Documents/GitHub/Store-system-with-feedback/main.sol\":6736:6773  keccak256(abi.encodePacked(shopName)) */\n      dup1\n      mload\n      swap1\n      0x20\n      add\n      keccak256\n        /* \"Documents/GitHub/Store-system-with-feedback/main.sol\":6718:6730  tempShopName */\n      dup2\n        /* \"Documents/GitHub/Store-system-with-feedback/main.sol\":6701:6731  abi.encodePacked(tempShopName) */\n      add(0x20, mload(0x40))\n      tag_266\n      swap2\n      swap1\n      tag_161\n      jump\t// in\n    tag_266:\n      mload(0x40)\n      0x20\n      dup2\n      dup4\n      sub\n      sub\n      dup2\n      mstore\n      swap1\n      0x40\n      mstore\n        /* \"Documents/GitHub/Store-system-with-feedback/main.sol\":6691:6732  keccak256(abi.encodePacked(tempShopName)) */\n      dup1\n      mload\n      swap1\n      0x20\n      add\n      keccak256\n        /* \"Documents/GitHub/Store-system-with-feedback/main.sol\":6691:6773  keccak256(abi.encodePacked(tempShopName)) == keccak256(abi.encodePacked(shopName)) */\n      eq\n        /* \"Documents/GitHub/Store-system-with-feedback/main.sol\":6688:7152  if(keccak256(abi.encodePacked(tempShopName)) == keccak256(abi.encodePacked(shopName))) {                    \r... */\n      iszero\n      tag_269\n      jumpi\n        /* \"Documents/GitHub/Store-system-with-feedback/main.sol\":6823:6824  0 */\n      0x00\n        /* \"Documents/GitHub/Store-system-with-feedback/main.sol\":6819:6824  i = 0 */\n      swap2\n      pop\n        /* \"Documents/GitHub/Store-system-with-feedback/main.sol\":6814:7137  for (i = 0; i <= complaintBooks.length; i++) {\r... */\n    tag_268:\n        /* \"Documents/GitHub/Store-system-with-feedback/main.sol\":6831:6845  complaintBooks */\n      0x03\n        /* \"Documents/GitHub/Store-system-with-feedback/main.sol\":6831:6852  complaintBooks.length */\n      sload\n        /* \"Documents/GitHub/Store-system-with-feedback/main.sol\":6826:6852  i <= complaintBooks.length */\n      dup3\n      gt\n        /* \"Documents/GitHub/Store-system-with-feedback/main.sol\":6814:7137  for (i = 0; i <= complaintBooks.length; i++) {\r... */\n      tag_269\n      jumpi\n        /* \"Documents/GitHub/Store-system-with-feedback/main.sol\":6953:6967  complaintBooks */\n      0x03\n        /* \"Documents/GitHub/Store-system-with-feedback/main.sol\":6968:6969  i */\n      dup3\n        /* \"Documents/GitHub/Store-system-with-feedback/main.sol\":6953:6970  complaintBooks[i] */\n      dup2\n      sload\n      dup2\n      lt\n      tag_272\n      jumpi\n      tag_272\n      tag_131\n      jump\t// in\n    tag_272:\n      swap1\n      0x00\n      mstore\n      keccak256(0x00, 0x20)\n      swap1\n      0x05\n      mul\n      add\n        /* \"Documents/GitHub/Store-system-with-feedback/main.sol\":6953:6975  complaintBooks[i].shop */\n      0x00\n      add\n        /* \"Documents/GitHub/Store-system-with-feedback/main.sol\":6936:6976  abi.encodePacked(complaintBooks[i].shop) */\n      add(0x20, mload(0x40))\n      tag_274\n      swap2\n      swap1\n      tag_137\n      jump\t// in\n    tag_274:\n      mload(0x40)\n      0x20\n      dup2\n      dup4\n      sub\n      sub\n      dup2\n      mstore\n      swap1\n      0x40\n      mstore\n        /* \"Documents/GitHub/Store-system-with-feedback/main.sol\":6926:6977  keccak256(abi.encodePacked(complaintBooks[i].shop)) */\n      dup1\n      mload\n      swap1\n      0x20\n      add\n      keccak256\n        /* \"Documents/GitHub/Store-system-with-feedback/main.sol\":6912:6920  shopName */\n      dup7\n        /* \"Documents/GitHub/Store-system-with-feedback/main.sol\":6895:6921  abi.encodePacked(shopName) */\n      add(0x20, mload(0x40))\n      tag_275\n      swap2\n      swap1\n      tag_161\n      jump\t// in\n    tag_275:\n      mload(0x40)\n      0x20\n      dup2\n      dup4\n      sub\n      sub\n      dup2\n      mstore\n      swap1\n      0x40\n      mstore\n        /* \"Documents/GitHub/Store-system-with-feedback/main.sol\":6885:6922  keccak256(abi.encodePacked(shopName)) */\n      dup1\n      mload\n      swap1\n      0x20\n      add\n      keccak256\n        /* \"Documents/GitHub/Store-system-with-feedback/main.sol\":6885:6977  keccak256(abi.encodePacked(shopName)) == keccak256(abi.encodePacked(complaintBooks[i].shop)) */\n      eq\n        /* \"Documents/GitHub/Store-system-with-feedback/main.sol\":6882:7118  if(keccak256(abi.encodePacked(shopName)) == keccak256(abi.encodePacked(complaintBooks[i].shop))) {\r... */\n      iszero\n      tag_276\n      jumpi\n        /* \"Documents/GitHub/Store-system-with-feedback/main.sol\":7026:7040  complaintBooks */\n      0x03\n        /* \"Documents/GitHub/Store-system-with-feedback/main.sol\":7041:7042  i */\n      dup3\n        /* \"Documents/GitHub/Store-system-with-feedback/main.sol\":7026:7043  complaintBooks[i] */\n      dup2\n      sload\n      dup2\n      lt\n      tag_278\n      jumpi\n      tag_278\n      tag_131\n      jump\t// in\n    tag_278:\n      swap1\n      0x00\n      mstore\n      keccak256(0x00, 0x20)\n      swap1\n      0x05\n      mul\n      add\n        /* \"Documents/GitHub/Store-system-with-feedback/main.sol\":7026:7050  complaintBooks[i].rating */\n      0x03\n      add\n      sload\n        /* \"Documents/GitHub/Store-system-with-feedback/main.sol\":7006:7050  countArrayRating += complaintBooks[i].rating */\n      dup4\n      tag_280\n      swap2\n      swap1\n      tag_151\n      jump\t// in\n    tag_280:\n      swap3\n      pop\n        /* \"Documents/GitHub/Store-system-with-feedback/main.sol\":6882:7118  if(keccak256(abi.encodePacked(shopName)) == keccak256(abi.encodePacked(complaintBooks[i].shop))) {\r... */\n    tag_276:\n        /* \"Documents/GitHub/Store-system-with-feedback/main.sol\":6854:6857  i++ */\n      dup2\n      tag_281\n      dup2\n      tag_198\n      jump\t// in\n    tag_281:\n      swap3\n      pop\n      pop\n        /* \"Documents/GitHub/Store-system-with-feedback/main.sol\":6814:7137  for (i = 0; i <= complaintBooks.length; i++) {\r... */\n      jump(tag_268)\n    tag_269:\n      pop\n        /* \"Documents/GitHub/Store-system-with-feedback/main.sol\":6613:6616  i++ */\n      dup1\n      tag_282\n      dup2\n      tag_198\n      jump\t// in\n    tag_282:\n      swap2\n      pop\n      pop\n        /* \"Documents/GitHub/Store-system-with-feedback/main.sol\":6576:7163  for(uint i = 0; i < shopList.length; i++) {\r... */\n      jump(tag_254)\n    tag_255:\n      pop\n        /* \"Documents/GitHub/Store-system-with-feedback/main.sol\":7193:7229  countArrayRating / totalAverageValue */\n      tag_283\n        /* \"Documents/GitHub/Store-system-with-feedback/main.sol\":7212:7229  totalAverageValue */\n      dup3\n        /* \"Documents/GitHub/Store-system-with-feedback/main.sol\":7193:7209  countArrayRating */\n      dup3\n        /* \"Documents/GitHub/Store-system-with-feedback/main.sol\":7193:7229  countArrayRating / totalAverageValue */\n      tag_284\n      jump\t// in\n    tag_283:\n        /* \"Documents/GitHub/Store-system-with-feedback/main.sol\":7173:7229  countArrayRating += countArrayRating / totalAverageValue */\n      tag_285\n      swap1\n      dup3\n      tag_151\n      jump\t// in\n    tag_285:\n      swap5\n        /* \"Documents/GitHub/Store-system-with-feedback/main.sol\":6418:7271  function getStoryRating(string memory shopName) public view returns(uint) {\r... */\n      swap4\n      pop\n      pop\n      pop\n      pop\n      jump\t// out\n        /* \"Documents/GitHub/Store-system-with-feedback/main.sol\":2881:2928  structStatusReturn[] public structStatusReturns */\n    tag_90:\n      0x0b\n      dup2\n      dup2\n      sload\n      dup2\n      lt\n      tag_239\n      jumpi\n      0x00\n      dup1\n      revert\n        /* \"Documents/GitHub/Store-system-with-feedback/main.sol\":8127:8281  function productReturn (string memory titleProduct) public {\r... */\n    tag_94:\n        /* \"Documents/GitHub/Store-system-with-feedback/main.sol\":8222:8272  structStatusReturn(msg.sender, titleProduct, true) */\n      0x40\n      dup1\n      mload\n      0x60\n      dup2\n      add\n      dup3\n      mstore\n        /* \"Documents/GitHub/Store-system-with-feedback/main.sol\":8241:8251  msg.sender */\n      caller\n        /* \"Documents/GitHub/Store-system-with-feedback/main.sol\":8222:8272  structStatusReturn(msg.sender, titleProduct, true) */\n      dup2\n      mstore\n      0x20\n      dup1\n      dup3\n      add\n      dup5\n      dup2\n      mstore\n        /* \"Documents/GitHub/Store-system-with-feedback/main.sol\":8267:8271  true */\n      0x01\n        /* \"Documents/GitHub/Store-system-with-feedback/main.sol\":8222:8272  structStatusReturn(msg.sender, titleProduct, true) */\n      swap4\n      dup4\n      add\n      dup5\n      swap1\n      mstore\n        /* \"Documents/GitHub/Store-system-with-feedback/main.sol\":8197:8216  structStatusReturns */\n      0x0b\n        /* \"Documents/GitHub/Store-system-with-feedback/main.sol\":8197:8273  structStatusReturns.push(structStatusReturn(msg.sender, titleProduct, true)) */\n      dup1\n      sload\n      swap5\n      dup6\n      add\n      dup2\n      sstore\n      0x00\n      mstore\n      dup3\n      mload\n      0x0175b7a638427703f0dbe7bb9bbf987a2551717b34e79f33b5b1008d1fa01db9\n      0x03\n      swap1\n      swap6\n      mul\n      swap5\n      dup6\n      add\n      dup1\n      sload\n      not(sub(shl(0xa0, 0x01), 0x01))\n      and\n      sub(shl(0xa0, 0x01), 0x01)\n      swap1\n      swap3\n      and\n      swap2\n      swap1\n      swap2\n      or\n      dup2\n      sstore\n      swap1\n      mload\n      dup1\n      mload\n        /* \"Documents/GitHub/Store-system-with-feedback/main.sol\":8222:8272  structStatusReturn(msg.sender, titleProduct, true) */\n      swap4\n      swap5\n        /* \"Documents/GitHub/Store-system-with-feedback/main.sol\":8197:8273  structStatusReturns.push(structStatusReturn(msg.sender, titleProduct, true)) */\n      swap2\n      swap4\n      tag_175\n      swap4\n      0x0175b7a638427703f0dbe7bb9bbf987a2551717b34e79f33b5b1008d1fa01dba\n      swap1\n      swap4\n      add\n      swap3\n      swap2\n      swap1\n      swap2\n      add\n      swap1\n      tag_166\n      jump\t// in\n        /* \"Documents/GitHub/Store-system-with-feedback/main.sol\":6156:6250  function getShopList() public view returns(string[] memory) {\r... */\n    tag_96:\n        /* \"Documents/GitHub/Store-system-with-feedback/main.sol\":6199:6214  string[] memory */\n      0x60\n        /* \"Documents/GitHub/Store-system-with-feedback/main.sol\":6234:6242  shopList */\n      0x02\n        /* \"Documents/GitHub/Store-system-with-feedback/main.sol\":6227:6242  return shopList */\n      dup1\n      sload\n      dup1\n      0x20\n      mul\n      0x20\n      add\n      mload(0x40)\n      swap1\n      dup2\n      add\n      0x40\n      mstore\n      dup1\n      swap3\n      swap2\n      swap1\n      dup2\n      dup2\n      mstore\n      0x20\n      add\n      0x00\n      swap1\n    tag_297:\n      dup3\n      dup3\n      lt\n      iszero\n      tag_224\n      jumpi\n      dup4\n      dup3\n      swap1\n      0x00\n      mstore\n      keccak256(0x00, 0x20)\n      add\n      dup1\n      sload\n      tag_300\n      swap1\n      tag_184\n      jump\t// in\n    tag_300:\n      dup1\n      0x1f\n      add\n      0x20\n      dup1\n      swap2\n      div\n      mul\n      0x20\n      add\n      mload(0x40)\n      swap1\n      dup2\n      add\n      0x40\n      mstore\n      dup1\n      swap3\n      swap2\n      swap1\n      dup2\n      dup2\n      mstore\n      0x20\n      add\n      dup3\n      dup1\n      sload\n      tag_301\n      swap1\n      tag_184\n      jump\t// in\n    tag_301:\n      dup1\n      iszero\n      tag_302\n      jumpi\n      dup1\n      0x1f\n      lt\n      tag_303\n      jumpi\n      0x0100\n      dup1\n      dup4\n      sload\n      div\n      mul\n      dup4\n      mstore\n      swap2\n      0x20\n      add\n      swap2\n      jump(tag_302)\n    tag_303:\n      dup3\n      add\n      swap2\n      swap1\n      0x00\n      mstore\n      keccak256(0x00, 0x20)\n      swap1\n    tag_304:\n      dup2\n      sload\n      dup2\n      mstore\n      swap1\n      0x01\n      add\n      swap1\n      0x20\n      add\n      dup1\n      dup4\n      gt\n      tag_304\n      jumpi\n      dup3\n      swap1\n      sub\n      0x1f\n      and\n      dup3\n      add\n      swap2\n    tag_302:\n      pop\n      pop\n      pop\n      pop\n      pop\n      dup2\n      mstore\n      0x20\n      add\n      swap1\n      0x01\n      add\n      swap1\n      jump(tag_297)\n        /* \"Documents/GitHub/Store-system-with-feedback/main.sol\":1110:1249  function check_logged(string memory login) public view returns(bool) {\r... */\n    tag_100:\n        /* \"Documents/GitHub/Store-system-with-feedback/main.sol\":1173:1177  bool */\n      0x00\n        /* \"Documents/GitHub/Store-system-with-feedback/main.sol\":1197:1208  structUsers */\n      0x04\n        /* \"Documents/GitHub/Store-system-with-feedback/main.sol\":1197:1233  structUsers[structUserLogins[login]] */\n      0x00\n        /* \"Documents/GitHub/Store-system-with-feedback/main.sol\":1209:1225  structUserLogins */\n      0x05\n        /* \"Documents/GitHub/Store-system-with-feedback/main.sol\":1226:1231  login */\n      dup5\n        /* \"Documents/GitHub/Store-system-with-feedback/main.sol\":1209:1232  structUserLogins[login] */\n      mload(0x40)\n      tag_306\n      swap2\n      swap1\n      tag_161\n      jump\t// in\n    tag_306:\n      swap1\n      dup2\n      mstore\n      0x40\n      dup1\n      mload\n      0x20\n      swap3\n      dup2\n      swap1\n      sub\n      dup4\n      add\n      swap1\n      keccak256\n      sload\n      sub(shl(0xa0, 0x01), 0x01)\n      and\n        /* \"Documents/GitHub/Store-system-with-feedback/main.sol\":1197:1233  structUsers[structUserLogins[login]] */\n      dup4\n      mstore\n      swap1\n      dup3\n      add\n      swap3\n      swap1\n      swap3\n      mstore\n      add\n      0x00\n      keccak256\n        /* \"Documents/GitHub/Store-system-with-feedback/main.sol\":1197:1240  structUsers[structUserLogins[login]].logged */\n      0x04\n      add\n      sload\n      0xff\n      and\n      swap3\n      swap2\n      pop\n      pop\n        /* \"Documents/GitHub/Store-system-with-feedback/main.sol\":1110:1249  function check_logged(string memory login) public view returns(bool) {\r... */\n      jump\t// out\n        /* \"Documents/GitHub/Store-system-with-feedback/main.sol\":3730:4318  function leaveFeedback (string memory shop, string memory feedback, uint256 rating) public {\r... */\n    tag_110:\n        /* \"Documents/GitHub/Store-system-with-feedback/main.sol\":3850:3852  10 */\n      0x0a\n        /* \"Documents/GitHub/Store-system-with-feedback/main.sol\":3840:3846  rating */\n      dup2\n        /* \"Documents/GitHub/Store-system-with-feedback/main.sol\":3840:3852  rating <= 10 */\n      gt\n      iszero\n        /* \"Documents/GitHub/Store-system-with-feedback/main.sol\":3832:3889  require(rating <= 10,\"error: rating can be from 1 to 10\") */\n      tag_308\n      jumpi\n      mload(0x40)\n      shl(0xe5, 0x461bcd)\n      dup2\n      mstore\n        /* \"#utility.yul\":11965:11967   */\n      0x20\n        /* \"Documents/GitHub/Store-system-with-feedback/main.sol\":3832:3889  require(rating <= 10,\"error: rating can be from 1 to 10\") */\n      0x04\n      dup3\n      add\n        /* \"#utility.yul\":11947:11968   */\n      mstore\n        /* \"#utility.yul\":12004:12006   */\n      0x21\n        /* \"#utility.yul\":11984:12002   */\n      0x24\n      dup3\n      add\n        /* \"#utility.yul\":11977:12007   */\n      mstore\n        /* \"#utility.yul\":12043:12077   */\n      0x6572726f723a20726174696e672063616e2062652066726f6d203120746f2031\n        /* \"#utility.yul\":12023:12041   */\n      0x44\n      dup3\n      add\n        /* \"#utility.yul\":12016:12078   */\n      mstore\n      shl(0xfc, 0x03)\n        /* \"#utility.yul\":12094:12112   */\n      0x64\n      dup3\n      add\n        /* \"#utility.yul\":12087:12118   */\n      mstore\n        /* \"#utility.yul\":12135:12154   */\n      0x84\n      add\n        /* \"Documents/GitHub/Store-system-with-feedback/main.sol\":3832:3889  require(rating <= 10,\"error: rating can be from 1 to 10\") */\n      tag_158\n        /* \"#utility.yul\":11763:12160   */\n      jump\n        /* \"Documents/GitHub/Store-system-with-feedback/main.sol\":3832:3889  require(rating <= 10,\"error: rating can be from 1 to 10\") */\n    tag_308:\n        /* \"Documents/GitHub/Store-system-with-feedback/main.sol\":3904:3910  uint i */\n      0x00\n        /* \"Documents/GitHub/Store-system-with-feedback/main.sol\":3900:4311  for(uint i = 0; i <= shopList.length; i++) {\r... */\n    tag_311:\n        /* \"Documents/GitHub/Store-system-with-feedback/main.sol\":3921:3929  shopList */\n      0x02\n        /* \"Documents/GitHub/Store-system-with-feedback/main.sol\":3921:3936  shopList.length */\n      sload\n        /* \"Documents/GitHub/Store-system-with-feedback/main.sol\":3916:3936  i <= shopList.length */\n      dup2\n      gt\n        /* \"Documents/GitHub/Store-system-with-feedback/main.sol\":3900:4311  for(uint i = 0; i <= shopList.length; i++) {\r... */\n      tag_312\n      jumpi\n        /* \"Documents/GitHub/Store-system-with-feedback/main.sol\":3958:3984  string memory tempShopName */\n      0x00\n        /* \"Documents/GitHub/Store-system-with-feedback/main.sol\":3987:3995  shopList */\n      0x02\n        /* \"Documents/GitHub/Store-system-with-feedback/main.sol\":3996:3997  i */\n      dup3\n        /* \"Documents/GitHub/Store-system-with-feedback/main.sol\":3987:3998  shopList[i] */\n      dup2\n      sload\n      dup2\n      lt\n      tag_315\n      jumpi\n      tag_315\n      tag_131\n      jump\t// in\n    tag_315:\n      swap1\n      0x00\n      mstore\n      keccak256(0x00, 0x20)\n      add\n        /* \"Documents/GitHub/Store-system-with-feedback/main.sol\":3958:3998  string memory tempShopName = shopList[i] */\n      dup1\n      sload\n      tag_317\n      swap1\n      tag_184\n      jump\t// in\n    tag_317:\n      dup1\n      0x1f\n      add\n      0x20\n      dup1\n      swap2\n      div\n      mul\n      0x20\n      add\n      mload(0x40)\n      swap1\n      dup2\n      add\n      0x40\n      mstore\n      dup1\n      swap3\n      swap2\n      swap1\n      dup2\n      dup2\n      mstore\n      0x20\n      add\n      dup3\n      dup1\n      sload\n      tag_318\n      swap1\n      tag_184\n      jump\t// in\n    tag_318:\n      dup1\n      iszero\n      tag_319\n      jumpi\n      dup1\n      0x1f\n      lt\n      tag_320\n      jumpi\n      0x0100\n      dup1\n      dup4\n      sload\n      div\n      mul\n      dup4\n      mstore\n      swap2\n      0x20\n      add\n      swap2\n      jump(tag_319)\n    tag_320:\n      dup3\n      add\n      swap2\n      swap1\n      0x00\n      mstore\n      keccak256(0x00, 0x20)\n      swap1\n    tag_321:\n      dup2\n      sload\n      dup2\n      mstore\n      swap1\n      0x01\n      add\n      swap1\n      0x20\n      add\n      dup1\n      dup4\n      gt\n      tag_321\n      jumpi\n      dup3\n      swap1\n      sub\n      0x1f\n      and\n      dup3\n      add\n      swap2\n    tag_319:\n      pop\n      pop\n      pop\n      pop\n      pop\n      swap1\n      pop\n        /* \"Documents/GitHub/Store-system-with-feedback/main.sol\":4088:4092  shop */\n      dup5\n        /* \"Documents/GitHub/Store-system-with-feedback/main.sol\":4071:4093  abi.encodePacked(shop) */\n      add(0x20, mload(0x40))\n      tag_322\n      swap2\n      swap1\n      tag_161\n      jump\t// in\n    tag_322:\n      mload(0x40)\n      0x20\n      dup2\n      dup4\n      sub\n      sub\n      dup2\n      mstore\n      swap1\n      0x40\n      mstore\n        /* \"Documents/GitHub/Store-system-with-feedback/main.sol\":4061:4094  keccak256(abi.encodePacked(shop)) */\n      dup1\n      mload\n      swap1\n      0x20\n      add\n      keccak256\n        /* \"Documents/GitHub/Store-system-with-feedback/main.sol\":4043:4055  tempShopName */\n      dup2\n        /* \"Documents/GitHub/Store-system-with-feedback/main.sol\":4026:4056  abi.encodePacked(tempShopName) */\n      add(0x20, mload(0x40))\n      tag_323\n      swap2\n      swap1\n      tag_161\n      jump\t// in\n    tag_323:\n      mload(0x40)\n      0x20\n      dup2\n      dup4\n      sub\n      sub\n      dup2\n      mstore\n      swap1\n      0x40\n      mstore\n        /* \"Documents/GitHub/Store-system-with-feedback/main.sol\":4016:4057  keccak256(abi.encodePacked(tempShopName)) */\n      dup1\n      mload\n      swap1\n      0x20\n      add\n      keccak256\n        /* \"Documents/GitHub/Store-system-with-feedback/main.sol\":4016:4094  keccak256(abi.encodePacked(tempShopName)) == keccak256(abi.encodePacked(shop)) */\n      eq\n        /* \"Documents/GitHub/Store-system-with-feedback/main.sol\":4013:4300  if(keccak256(abi.encodePacked(tempShopName)) == keccak256(abi.encodePacked(shop))) {                    \r... */\n      iszero\n      tag_324\n      jumpi\n        /* \"Documents/GitHub/Store-system-with-feedback/main.sol\":4200:4283  complaintBook(shop, structUsers[msg.sender].userName, feedback, rating, zerroArray) */\n      0x40\n      dup1\n      mload\n      0xa0\n      dup2\n      add\n      dup3\n      mstore\n      dup7\n      dup2\n      mstore\n        /* \"Documents/GitHub/Store-system-with-feedback/main.sol\":4232:4242  msg.sender */\n      caller\n      0x00\n        /* \"Documents/GitHub/Store-system-with-feedback/main.sol\":4220:4243  structUsers[msg.sender] */\n      swap1\n      dup2\n      mstore\n        /* \"Documents/GitHub/Store-system-with-feedback/main.sol\":4220:4231  structUsers */\n      0x04\n        /* \"Documents/GitHub/Store-system-with-feedback/main.sol\":4200:4283  complaintBook(shop, structUsers[msg.sender].userName, feedback, rating, zerroArray) */\n      0x20\n        /* \"Documents/GitHub/Store-system-with-feedback/main.sol\":4220:4243  structUsers[msg.sender] */\n      swap1\n      dup2\n      mstore\n      swap3\n      swap1\n      keccak256\n        /* \"Documents/GitHub/Store-system-with-feedback/main.sol\":4200:4283  complaintBook(shop, structUsers[msg.sender].userName, feedback, rating, zerroArray) */\n      dup1\n      sload\n        /* \"Documents/GitHub/Store-system-with-feedback/main.sol\":4135:4161  string[] memory zerroArray */\n      0x60\n      swap4\n        /* \"Documents/GitHub/Store-system-with-feedback/main.sol\":4180:4194  complaintBooks */\n      0x03\n      swap4\n        /* \"Documents/GitHub/Store-system-with-feedback/main.sol\":4200:4283  complaintBook(shop, structUsers[msg.sender].userName, feedback, rating, zerroArray) */\n      swap3\n      swap1\n      dup4\n      add\n      swap2\n      tag_325\n      swap1\n      tag_184\n      jump\t// in\n    tag_325:\n      dup1\n      0x1f\n      add\n      0x20\n      dup1\n      swap2\n      div\n      mul\n      0x20\n      add\n      mload(0x40)\n      swap1\n      dup2\n      add\n      0x40\n      mstore\n      dup1\n      swap3\n      swap2\n      swap1\n      dup2\n      dup2\n      mstore\n      0x20\n      add\n      dup3\n      dup1\n      sload\n      tag_326\n      swap1\n      tag_184\n      jump\t// in\n    tag_326:\n      dup1\n      iszero\n      tag_327\n      jumpi\n      dup1\n      0x1f\n      lt\n      tag_328\n      jumpi\n      0x0100\n      dup1\n      dup4\n      sload\n      div\n      mul\n      dup4\n      mstore\n      swap2\n      0x20\n      add\n      swap2\n      jump(tag_327)\n    tag_328:\n      dup3\n      add\n      swap2\n      swap1\n      0x00\n      mstore\n      keccak256(0x00, 0x20)\n      swap1\n    tag_329:\n      dup2\n      sload\n      dup2\n      mstore\n      swap1\n      0x01\n      add\n      swap1\n      0x20\n      add\n      dup1\n      dup4\n      gt\n      tag_329\n      jumpi\n      dup3\n      swap1\n      sub\n      0x1f\n      and\n      dup3\n      add\n      swap2\n    tag_327:\n      pop\n      pop\n      pop\n      swap2\n      dup4\n      mstore\n      pop\n      pop\n      0x20\n      dup1\n      dup3\n      add\n      dup10\n      swap1\n      mstore\n      0x40\n      dup3\n      add\n      dup9\n      swap1\n      mstore\n      0x60\n      swap1\n      swap2\n      add\n      dup5\n      swap1\n      mstore\n        /* \"Documents/GitHub/Store-system-with-feedback/main.sol\":4180:4284  complaintBooks.push(complaintBook(shop, structUsers[msg.sender].userName, feedback, rating, zerroArray)) */\n      dup3\n      sload\n      0x01\n      dup2\n      add\n      dup5\n      sstore\n      0x00\n      swap4\n      dup5\n      mstore\n      swap3\n      dup2\n      swap1\n      keccak256\n      dup3\n      mload\n      dup1\n      mload\n      swap4\n      swap5\n      0x05\n      mul\n      swap1\n      swap2\n      add\n      swap3\n      tag_331\n      swap3\n      dup5\n      swap3\n      add\n      swap1\n      tag_166\n      jump\t// in\n    tag_331:\n      pop\n      0x20\n      dup3\n      dup2\n      add\n      mload\n      dup1\n      mload\n      tag_332\n      swap3\n      0x01\n      dup6\n      add\n      swap3\n      add\n      swap1\n      tag_166\n      jump\t// in\n    tag_332:\n      pop\n      0x40\n      dup3\n      add\n      mload\n      dup1\n      mload\n      tag_333\n      swap2\n      0x02\n      dup5\n      add\n      swap2\n      0x20\n      swap1\n      swap2\n      add\n      swap1\n      tag_166\n      jump\t// in\n    tag_333:\n      pop\n      0x60\n      dup3\n      add\n      mload\n      0x03\n      dup3\n      add\n      sstore\n      0x80\n      dup3\n      add\n      mload\n      dup1\n      mload\n      tag_334\n      swap2\n      0x04\n      dup5\n      add\n      swap2\n      0x20\n      swap1\n      swap2\n      add\n      swap1\n      tag_196\n      jump\t// in\n    tag_334:\n      pop\n      pop\n      pop\n        /* \"Documents/GitHub/Store-system-with-feedback/main.sol\":4096:4300  {                    \r... */\n      pop\n        /* \"Documents/GitHub/Store-system-with-feedback/main.sol\":4013:4300  if(keccak256(abi.encodePacked(tempShopName)) == keccak256(abi.encodePacked(shop))) {                    \r... */\n    tag_324:\n      pop\n        /* \"Documents/GitHub/Store-system-with-feedback/main.sol\":3938:3941  i++ */\n      dup1\n      tag_335\n      dup2\n      tag_198\n      jump\t// in\n    tag_335:\n      swap2\n      pop\n      pop\n        /* \"Documents/GitHub/Store-system-with-feedback/main.sol\":3900:4311  for(uint i = 0; i <= shopList.length; i++) {\r... */\n      jump(tag_311)\n    tag_312:\n      pop\n        /* \"Documents/GitHub/Store-system-with-feedback/main.sol\":3730:4318  function leaveFeedback (string memory shop, string memory feedback, uint256 rating) public {\r... */\n      pop\n      pop\n      pop\n      jump\t// out\n        /* \"Documents/GitHub/Store-system-with-feedback/main.sol\":9181:9611  function login_user(string memory login, bytes32 password) public {\r... */\n    tag_114:\n        /* \"Documents/GitHub/Store-system-with-feedback/main.sol\":9266:9277  structUsers */\n      0x04\n        /* \"Documents/GitHub/Store-system-with-feedback/main.sol\":9266:9302  structUsers[structUserLogins[login]] */\n      0x00\n        /* \"Documents/GitHub/Store-system-with-feedback/main.sol\":9278:9294  structUserLogins */\n      0x05\n        /* \"Documents/GitHub/Store-system-with-feedback/main.sol\":9295:9300  login */\n      dup5\n        /* \"Documents/GitHub/Store-system-with-feedback/main.sol\":9278:9301  structUserLogins[login] */\n      mload(0x40)\n      tag_337\n      swap2\n      swap1\n      tag_161\n      jump\t// in\n    tag_337:\n      swap1\n      dup2\n      mstore\n      0x40\n      dup1\n      mload\n      0x20\n      swap3\n      dup2\n      swap1\n      sub\n      dup4\n      add\n      swap1\n      keccak256\n      sload\n      sub(shl(0xa0, 0x01), 0x01)\n      and\n        /* \"Documents/GitHub/Store-system-with-feedback/main.sol\":9266:9302  structUsers[structUserLogins[login]] */\n      dup4\n      mstore\n      swap1\n      dup3\n      add\n      swap3\n      swap1\n      swap3\n      mstore\n      add\n      0x00\n      keccak256\n        /* \"Documents/GitHub/Store-system-with-feedback/main.sol\":9266:9309  structUsers[structUserLogins[login]].logged */\n      0x04\n      add\n      sload\n      0xff\n      and\n        /* \"Documents/GitHub/Store-system-with-feedback/main.sol\":9266:9318  structUsers[structUserLogins[login]].logged == false */\n      iszero\n        /* \"Documents/GitHub/Store-system-with-feedback/main.sol\":9258:9352  require(structUsers[structUserLogins[login]].logged == false, \"Error: You are already logged\") */\n      tag_338\n      jumpi\n      mload(0x40)\n      shl(0xe5, 0x461bcd)\n      dup2\n      mstore\n        /* \"#utility.yul\":11607:11609   */\n      0x20\n        /* \"Documents/GitHub/Store-system-with-feedback/main.sol\":9258:9352  require(structUsers[structUserLogins[login]].logged == false, \"Error: You are already logged\") */\n      0x04\n      dup3\n      add\n        /* \"#utility.yul\":11589:11610   */\n      mstore\n        /* \"#utility.yul\":11646:11648   */\n      0x1d\n        /* \"#utility.yul\":11626:11644   */\n      0x24\n      dup3\n      add\n        /* \"#utility.yul\":11619:11649   */\n      mstore\n        /* \"#utility.yul\":11685:11716   */\n      0x4572726f723a20596f752061726520616c7265616479206c6f67676564000000\n        /* \"#utility.yul\":11665:11683   */\n      0x44\n      dup3\n      add\n        /* \"#utility.yul\":11658:11717   */\n      mstore\n        /* \"#utility.yul\":11734:11752   */\n      0x64\n      add\n        /* \"Documents/GitHub/Store-system-with-feedback/main.sol\":9258:9352  require(structUsers[structUserLogins[login]].logged == false, \"Error: You are already logged\") */\n      tag_158\n        /* \"#utility.yul\":11405:11758   */\n      jump\n        /* \"Documents/GitHub/Store-system-with-feedback/main.sol\":9258:9352  require(structUsers[structUserLogins[login]].logged == false, \"Error: You are already logged\") */\n    tag_338:\n        /* \"Documents/GitHub/Store-system-with-feedback/main.sol\":9406:9407  0 */\n      0x00\n      sub(shl(0xa0, 0x01), 0x01)\n        /* \"Documents/GitHub/Store-system-with-feedback/main.sol\":9371:9408  structUserLogins[login] != address(0) */\n      and\n        /* \"Documents/GitHub/Store-system-with-feedback/main.sol\":9371:9387  structUserLogins */\n      0x05\n        /* \"Documents/GitHub/Store-system-with-feedback/main.sol\":9388:9393  login */\n      dup4\n        /* \"Documents/GitHub/Store-system-with-feedback/main.sol\":9371:9394  structUserLogins[login] */\n      mload(0x40)\n      tag_341\n      swap2\n      swap1\n      tag_161\n      jump\t// in\n    tag_341:\n      swap1\n      dup2\n      mstore\n      mload(0x40)\n      swap1\n      dup2\n      swap1\n      sub\n      0x20\n      add\n      swap1\n      keccak256\n      sload\n      sub(shl(0xa0, 0x01), 0x01)\n      and\n        /* \"Documents/GitHub/Store-system-with-feedback/main.sol\":9371:9408  structUserLogins[login] != address(0) */\n      eq\n      iszero\n        /* \"Documents/GitHub/Store-system-with-feedback/main.sol\":9363:9438  require(structUserLogins[login] != address(0), \"Error: User doesn't exist\") */\n      tag_342\n      jumpi\n      mload(0x40)\n      shl(0xe5, 0x461bcd)\n      dup2\n      mstore\n        /* \"#utility.yul\":10908:10910   */\n      0x20\n        /* \"Documents/GitHub/Store-system-with-feedback/main.sol\":9363:9438  require(structUserLogins[login] != address(0), \"Error: User doesn't exist\") */\n      0x04\n      dup3\n      add\n        /* \"#utility.yul\":10890:10911   */\n      mstore\n        /* \"#utility.yul\":10947:10949   */\n      0x19\n        /* \"#utility.yul\":10927:10945   */\n      0x24\n      dup3\n      add\n        /* \"#utility.yul\":10920:10950   */\n      mstore\n      shl(0x3a, 0x115c9c9bdc8e88155cd95c88191bd95cdb89dd08195e1a5cdd)\n        /* \"#utility.yul\":10966:10984   */\n      0x44\n      dup3\n      add\n        /* \"#utility.yul\":10959:11014   */\n      mstore\n        /* \"#utility.yul\":11031:11049   */\n      0x64\n      add\n        /* \"Documents/GitHub/Store-system-with-feedback/main.sol\":9363:9438  require(structUserLogins[login] != address(0), \"Error: User doesn't exist\") */\n      tag_158\n        /* \"#utility.yul\":10706:11055   */\n      jump\n        /* \"Documents/GitHub/Store-system-with-feedback/main.sol\":9363:9438  require(structUserLogins[login] != address(0), \"Error: User doesn't exist\") */\n    tag_342:\n        /* \"Documents/GitHub/Store-system-with-feedback/main.sol\":9506:9514  password */\n      dup1\n        /* \"Documents/GitHub/Store-system-with-feedback/main.sol\":9457:9468  structUsers */\n      0x04\n        /* \"Documents/GitHub/Store-system-with-feedback/main.sol\":9457:9493  structUsers[structUserLogins[login]] */\n      0x00\n        /* \"Documents/GitHub/Store-system-with-feedback/main.sol\":9469:9485  structUserLogins */\n      0x05\n        /* \"Documents/GitHub/Store-system-with-feedback/main.sol\":9486:9491  login */\n      dup6\n        /* \"Documents/GitHub/Store-system-with-feedback/main.sol\":9469:9492  structUserLogins[login] */\n      mload(0x40)\n      tag_345\n      swap2\n      swap1\n      tag_161\n      jump\t// in\n    tag_345:\n      swap1\n      dup2\n      mstore\n      0x40\n      dup1\n      mload\n      0x20\n      swap3\n      dup2\n      swap1\n      sub\n      dup4\n      add\n      swap1\n      keccak256\n      sload\n      sub(shl(0xa0, 0x01), 0x01)\n      and\n        /* \"Documents/GitHub/Store-system-with-feedback/main.sol\":9457:9493  structUsers[structUserLogins[login]] */\n      dup4\n      mstore\n      swap1\n      dup3\n      add\n      swap3\n      swap1\n      swap3\n      mstore\n      add\n      0x00\n      keccak256\n        /* \"Documents/GitHub/Store-system-with-feedback/main.sol\":9469:9492  structUserLogins[login] */\n      0x01\n        /* \"Documents/GitHub/Store-system-with-feedback/main.sol\":9457:9502  structUsers[structUserLogins[login]].password */\n      add\n      sload\n        /* \"Documents/GitHub/Store-system-with-feedback/main.sol\":9457:9514  structUsers[structUserLogins[login]].password == password */\n      eq\n        /* \"Documents/GitHub/Store-system-with-feedback/main.sol\":9449:9542  require(structUsers[structUserLogins[login]].password == password, \"Error: Invalid password\") */\n      tag_346\n      jumpi\n      mload(0x40)\n      shl(0xe5, 0x461bcd)\n      dup2\n      mstore\n        /* \"#utility.yul\":10556:10558   */\n      0x20\n        /* \"Documents/GitHub/Store-system-with-feedback/main.sol\":9449:9542  require(structUsers[structUserLogins[login]].password == password, \"Error: Invalid password\") */\n      0x04\n      dup3\n      add\n        /* \"#utility.yul\":10538:10559   */\n      mstore\n        /* \"#utility.yul\":10595:10597   */\n      0x17\n        /* \"#utility.yul\":10575:10593   */\n      0x24\n      dup3\n      add\n        /* \"#utility.yul\":10568:10598   */\n      mstore\n      shl(0x4a, 0x115c9c9bdc8e88125b9d985b1a59081c185cdcdddbdc99)\n        /* \"#utility.yul\":10614:10632   */\n      0x44\n      dup3\n      add\n        /* \"#utility.yul\":10607:10660   */\n      mstore\n        /* \"#utility.yul\":10677:10695   */\n      0x64\n      add\n        /* \"Documents/GitHub/Store-system-with-feedback/main.sol\":9449:9542  require(structUsers[structUserLogins[login]].password == password, \"Error: Invalid password\") */\n      tag_158\n        /* \"#utility.yul\":10354:10701   */\n      jump\n        /* \"Documents/GitHub/Store-system-with-feedback/main.sol\":9449:9542  require(structUsers[structUserLogins[login]].password == password, \"Error: Invalid password\") */\n    tag_346:\n        /* \"Documents/GitHub/Store-system-with-feedback/main.sol\":9599:9603  true */\n      0x01\n        /* \"Documents/GitHub/Store-system-with-feedback/main.sol\":9553:9564  structUsers */\n      0x04\n        /* \"Documents/GitHub/Store-system-with-feedback/main.sol\":9553:9589  structUsers[structUserLogins[login]] */\n      0x00\n        /* \"Documents/GitHub/Store-system-with-feedback/main.sol\":9565:9581  structUserLogins */\n      0x05\n        /* \"Documents/GitHub/Store-system-with-feedback/main.sol\":9582:9587  login */\n      dup6\n        /* \"Documents/GitHub/Store-system-with-feedback/main.sol\":9565:9588  structUserLogins[login] */\n      mload(0x40)\n      tag_349\n      swap2\n      swap1\n      tag_161\n      jump\t// in\n    tag_349:\n      swap1\n      dup2\n      mstore\n      0x40\n      dup1\n      mload\n      0x20\n      swap3\n      dup2\n      swap1\n      sub\n      dup4\n      add\n      swap1\n      keccak256\n      sload\n      sub(shl(0xa0, 0x01), 0x01)\n      and\n        /* \"Documents/GitHub/Store-system-with-feedback/main.sol\":9553:9589  structUsers[structUserLogins[login]] */\n      dup4\n      mstore\n      swap1\n      dup3\n      add\n      swap3\n      swap1\n      swap3\n      mstore\n      add\n      0x00\n      keccak256\n        /* \"Documents/GitHub/Store-system-with-feedback/main.sol\":9553:9596  structUsers[structUserLogins[login]].logged */\n      0x04\n      add\n        /* \"Documents/GitHub/Store-system-with-feedback/main.sol\":9553:9603  structUsers[structUserLogins[login]].logged = true */\n      dup1\n      sload\n      not(0xff)\n      and\n      swap2\n      iszero\n      iszero\n      swap2\n      swap1\n      swap2\n      or\n      swap1\n      sstore\n      pop\n      pop\n        /* \"Documents/GitHub/Store-system-with-feedback/main.sol\":9181:9611  function login_user(string memory login, bytes32 password) public {\r... */\n      jump\t// out\n        /* \"Documents/GitHub/Store-system-with-feedback/main.sol\":2430:2484  mapping(string => structProduct) public structProducts */\n    tag_117:\n      dup1\n      mload\n      0x20\n      dup2\n      dup4\n      add\n      dup2\n      add\n      dup1\n      mload\n      0x08\n      dup3\n      mstore\n      swap3\n      dup3\n      add\n      swap2\n      swap1\n      swap4\n      add\n      keccak256\n      swap2\n      mstore\n      dup1\n      sload\n      0x01\n      dup3\n      add\n      dup1\n      sload\n      sub(shl(0xa0, 0x01), 0x01)\n      swap1\n      swap3\n      and\n      swap3\n      swap2\n      tag_350\n      swap1\n      tag_184\n      jump\t// in\n    tag_350:\n      dup1\n      0x1f\n      add\n      0x20\n      dup1\n      swap2\n      div\n      mul\n      0x20\n      add\n      mload(0x40)\n      swap1\n      dup2\n      add\n      0x40\n      mstore\n      dup1\n      swap3\n      swap2\n      swap1\n      dup2\n      dup2\n      mstore\n      0x20\n      add\n      dup3\n      dup1\n      sload\n      tag_351\n      swap1\n      tag_184\n      jump\t// in\n    tag_351:\n      dup1\n      iszero\n      tag_352\n      jumpi\n      dup1\n      0x1f\n      lt\n      tag_353\n      jumpi\n      0x0100\n      dup1\n      dup4\n      sload\n      div\n      mul\n      dup4\n      mstore\n      swap2\n      0x20\n      add\n      swap2\n      jump(tag_352)\n    tag_353:\n      dup3\n      add\n      swap2\n      swap1\n      0x00\n      mstore\n      keccak256(0x00, 0x20)\n      swap1\n    tag_354:\n      dup2\n      sload\n      dup2\n      mstore\n      swap1\n      0x01\n      add\n      swap1\n      0x20\n      add\n      dup1\n      dup4\n      gt\n      tag_354\n      jumpi\n      dup3\n      swap1\n      sub\n      0x1f\n      and\n      dup3\n      add\n      swap2\n    tag_352:\n      pop\n      pop\n      pop\n      pop\n      pop\n      swap1\n      dup1\n      0x02\n      add\n      sload\n      swap1\n      dup1\n      0x03\n      add\n      sload\n      swap1\n      pop\n      dup5\n      jump\t// out\n        /* \"Documents/GitHub/Store-system-with-feedback/main.sol\":2673:2724  structStatusPurchase[] public structStatusPurchases */\n    tag_122:\n      0x0a\n      dup2\n      dup2\n      sload\n      dup2\n      lt\n      tag_239\n      jumpi\n      0x00\n      dup1\n      revert\n        /* \"Documents/GitHub/Store-system-with-feedback/main.sol\":5545:6122  function MarriageRegistration(uint idMarriageRegistration, bool confirmation) public {\r... */\n    tag_126:\n        /* \"Documents/GitHub/Store-system-with-feedback/main.sol\":5660:5664  true */\n      0x01\n        /* \"Documents/GitHub/Store-system-with-feedback/main.sol\":5644:5664  confirmation == true */\n      dup2\n      iszero\n      iszero\n      eq\n        /* \"Documents/GitHub/Store-system-with-feedback/main.sol\":5641:6115  if(confirmation == true) {\r... */\n      iszero\n      tag_200\n      jumpi\n        /* \"Documents/GitHub/Store-system-with-feedback/main.sol\":5853:5867  structProducts */\n      0x08\n        /* \"Documents/GitHub/Store-system-with-feedback/main.sol\":5868:5895  structMarriageRegistrations */\n      0x0c\n        /* \"Documents/GitHub/Store-system-with-feedback/main.sol\":5896:5918  idMarriageRegistration */\n      dup4\n        /* \"Documents/GitHub/Store-system-with-feedback/main.sol\":5868:5919  structMarriageRegistrations[idMarriageRegistration] */\n      dup2\n      sload\n      dup2\n      lt\n      tag_365\n      jumpi\n      tag_365\n      tag_131\n      jump\t// in\n    tag_365:\n      swap1\n      0x00\n      mstore\n      keccak256(0x00, 0x20)\n      swap1\n      0x03\n      mul\n      add\n        /* \"Documents/GitHub/Store-system-with-feedback/main.sol\":5868:5932  structMarriageRegistrations[idMarriageRegistration].titleProduct */\n      0x01\n      add\n        /* \"Documents/GitHub/Store-system-with-feedback/main.sol\":5853:5933  structProducts[structMarriageRegistrations[idMarriageRegistration].titleProduct] */\n      mload(0x40)\n      tag_367\n      swap2\n      swap1\n      tag_137\n      jump\t// in\n    tag_367:\n      swap1\n      dup2\n      mstore\n      0x20\n      add\n      mload(0x40)\n      dup1\n      swap2\n      sub\n      swap1\n      keccak256\n        /* \"Documents/GitHub/Store-system-with-feedback/main.sol\":5853:5939  structProducts[structMarriageRegistrations[idMarriageRegistration].titleProduct].price */\n      0x02\n      add\n      sload\n        /* \"Documents/GitHub/Store-system-with-feedback/main.sol\":5767:5778  structUsers */\n      0x04\n        /* \"Documents/GitHub/Store-system-with-feedback/main.sol\":5767:5841  structUsers[structMarriageRegistrations[idMarriageRegistration].userLogin] */\n      0x00\n        /* \"Documents/GitHub/Store-system-with-feedback/main.sol\":5779:5806  structMarriageRegistrations */\n      0x0c\n        /* \"Documents/GitHub/Store-system-with-feedback/main.sol\":5807:5829  idMarriageRegistration */\n      dup6\n        /* \"Documents/GitHub/Store-system-with-feedback/main.sol\":5779:5830  structMarriageRegistrations[idMarriageRegistration] */\n      dup2\n      sload\n      dup2\n      lt\n      tag_369\n      jumpi\n      tag_369\n      tag_131\n      jump\t// in\n    tag_369:\n      0x00\n      swap2\n      dup3\n      mstore\n      0x20\n      dup1\n      dup4\n      keccak256\n      0x03\n      swap1\n      swap3\n      mul\n      swap1\n      swap2\n      add\n        /* \"Documents/GitHub/Store-system-with-feedback/main.sol\":5779:5840  structMarriageRegistrations[idMarriageRegistration].userLogin */\n      sload\n      sub(shl(0xa0, 0x01), 0x01)\n      and\n        /* \"Documents/GitHub/Store-system-with-feedback/main.sol\":5767:5841  structUsers[structMarriageRegistrations[idMarriageRegistration].userLogin] */\n      dup4\n      mstore\n      dup3\n      add\n      swap3\n      swap1\n      swap3\n      mstore\n      0x40\n      add\n      swap1\n      keccak256\n        /* \"Documents/GitHub/Store-system-with-feedback/main.sol\":5767:5850  structUsers[structMarriageRegistrations[idMarriageRegistration].userLogin].ballance */\n      0x02\n      add\n      sload\n        /* \"Documents/GitHub/Store-system-with-feedback/main.sol\":5767:5939  structUsers[structMarriageRegistrations[idMarriageRegistration].userLogin].ballance + structProducts[structMarriageRegistrations[idMarriageRegistration].titleProduct].price */\n      tag_371\n      swap2\n      swap1\n      tag_151\n      jump\t// in\n    tag_371:\n        /* \"Documents/GitHub/Store-system-with-feedback/main.sol\":5681:5692  structUsers */\n      0x04\n        /* \"Documents/GitHub/Store-system-with-feedback/main.sol\":5681:5755  structUsers[structMarriageRegistrations[idMarriageRegistration].userLogin] */\n      0x00\n        /* \"Documents/GitHub/Store-system-with-feedback/main.sol\":5693:5720  structMarriageRegistrations */\n      0x0c\n        /* \"Documents/GitHub/Store-system-with-feedback/main.sol\":5721:5743  idMarriageRegistration */\n      dup6\n        /* \"Documents/GitHub/Store-system-with-feedback/main.sol\":5693:5744  structMarriageRegistrations[idMarriageRegistration] */\n      dup2\n      sload\n      dup2\n      lt\n      tag_373\n      jumpi\n      tag_373\n      tag_131\n      jump\t// in\n    tag_373:\n      0x00\n      swap2\n      dup3\n      mstore\n      0x20\n      dup1\n      dup4\n      keccak256\n      0x03\n      swap1\n      swap3\n      mul\n      swap1\n      swap2\n      add\n        /* \"Documents/GitHub/Store-system-with-feedback/main.sol\":5693:5754  structMarriageRegistrations[idMarriageRegistration].userLogin */\n      sload\n      sub(shl(0xa0, 0x01), 0x01)\n      and\n        /* \"Documents/GitHub/Store-system-with-feedback/main.sol\":5681:5755  structUsers[structMarriageRegistrations[idMarriageRegistration].userLogin] */\n      dup4\n      mstore\n      dup3\n      add\n      swap3\n      swap1\n      swap3\n      mstore\n      0x40\n      add\n      dup2\n      keccak256\n        /* \"Documents/GitHub/Store-system-with-feedback/main.sol\":5681:5764  structUsers[structMarriageRegistrations[idMarriageRegistration].userLogin].ballance */\n      0x02\n      add\n        /* \"Documents/GitHub/Store-system-with-feedback/main.sol\":5681:5939  structUsers[structMarriageRegistrations[idMarriageRegistration].userLogin].ballance = structUsers[structMarriageRegistrations[idMarriageRegistration].userLogin].ballance + structProducts[structMarriageRegistrations[idMarriageRegistration].titleProduct].price */\n      swap2\n      swap1\n      swap2\n      sstore\n        /* \"Documents/GitHub/Store-system-with-feedback/main.sol\":5954:5973  structStatusReturns */\n      0x0b\n        /* \"Documents/GitHub/Store-system-with-feedback/main.sol\":5954:5997  structStatusReturns[idMarriageRegistration] */\n      dup1\n      sload\n        /* \"Documents/GitHub/Store-system-with-feedback/main.sol\":5974:5996  idMarriageRegistration */\n      dup5\n      swap1\n        /* \"Documents/GitHub/Store-system-with-feedback/main.sol\":5954:5997  structStatusReturns[idMarriageRegistration] */\n      dup2\n      lt\n      tag_154\n      jumpi\n      tag_154\n      tag_131\n      jump\t// in\n    tag_166:\n      dup3\n      dup1\n      sload\n      tag_382\n      swap1\n      tag_184\n      jump\t// in\n    tag_382:\n      swap1\n      0x00\n      mstore\n      keccak256(0x00, 0x20)\n      swap1\n      0x1f\n      add\n      0x20\n      swap1\n      div\n      dup2\n      add\n      swap3\n      dup3\n      tag_384\n      jumpi\n      0x00\n      dup6\n      sstore\n      jump(tag_387)\n    tag_384:\n      dup3\n      0x1f\n      lt\n      tag_385\n      jumpi\n      dup1\n      mload\n      not(0xff)\n      and\n      dup4\n      dup1\n      add\n      or\n      dup6\n      sstore\n      jump(tag_387)\n    tag_385:\n      dup3\n      dup1\n      add\n      0x01\n      add\n      dup6\n      sstore\n      dup3\n      iszero\n      tag_387\n      jumpi\n      swap2\n      dup3\n      add\n    tag_386:\n      dup3\n      dup2\n      gt\n      iszero\n      tag_387\n      jumpi\n      dup3\n      mload\n      dup3\n      sstore\n      swap2\n      0x20\n      add\n      swap2\n      swap1\n      0x01\n      add\n      swap1\n      jump(tag_386)\n    tag_387:\n      pop\n      tag_388\n      swap3\n      swap2\n      pop\n      tag_389\n      jump\t// in\n    tag_388:\n      pop\n      swap1\n      jump\t// out\n    tag_196:\n      dup3\n      dup1\n      sload\n      dup3\n      dup3\n      sstore\n      swap1\n      0x00\n      mstore\n      keccak256(0x00, 0x20)\n      swap1\n      dup2\n      add\n      swap3\n      dup3\n      iszero\n      tag_392\n      jumpi\n      swap2\n      0x20\n      mul\n      dup3\n      add\n    tag_391:\n      dup3\n      dup2\n      gt\n      iszero\n      tag_392\n      jumpi\n      dup3\n      mload\n      dup1\n      mload\n      tag_393\n      swap2\n      dup5\n      swap2\n      0x20\n      swap1\n      swap2\n      add\n      swap1\n      tag_166\n      jump\t// in\n    tag_393:\n      pop\n      swap2\n      0x20\n      add\n      swap2\n      swap1\n      0x01\n      add\n      swap1\n      jump(tag_391)\n    tag_392:\n      pop\n      tag_388\n      swap3\n      swap2\n      pop\n      tag_395\n      jump\t// in\n    tag_389:\n    tag_396:\n      dup1\n      dup3\n      gt\n      iszero\n      tag_388\n      jumpi\n      0x00\n      dup2\n      sstore\n      0x01\n      add\n      jump(tag_396)\n    tag_395:\n      dup1\n      dup3\n      gt\n      iszero\n      tag_388\n      jumpi\n      0x00\n      tag_400\n      dup3\n      dup3\n      tag_401\n      jump\t// in\n    tag_400:\n      pop\n      0x01\n      add\n      jump(tag_395)\n    tag_401:\n      pop\n      dup1\n      sload\n      tag_402\n      swap1\n      tag_184\n      jump\t// in\n    tag_402:\n      0x00\n      dup3\n      sstore\n      dup1\n      0x1f\n      lt\n      tag_404\n      jumpi\n      pop\n      pop\n      jump\t// out\n    tag_404:\n      0x1f\n      add\n      0x20\n      swap1\n      div\n      swap1\n      0x00\n      mstore\n      keccak256(0x00, 0x20)\n      swap1\n      dup2\n      add\n      swap1\n      tag_405\n      swap2\n      swap1\n      tag_389\n      jump\t// in\n    tag_405:\n      pop\n      jump\t// out\n        /* \"#utility.yul\":14:187   */\n    tag_407:\n        /* \"#utility.yul\":82:102   */\n      dup1\n      calldataload\n      sub(shl(0xa0, 0x01), 0x01)\n        /* \"#utility.yul\":131:162   */\n      dup2\n      and\n        /* \"#utility.yul\":121:163   */\n      dup2\n      eq\n        /* \"#utility.yul\":111:181   */\n      tag_409\n      jumpi\n        /* \"#utility.yul\":177:178   */\n      0x00\n        /* \"#utility.yul\":174:175   */\n      dup1\n        /* \"#utility.yul\":167:179   */\n      revert\n        /* \"#utility.yul\":111:181   */\n    tag_409:\n        /* \"#utility.yul\":14:187   */\n      swap2\n      swap1\n      pop\n      jump\t// out\n        /* \"#utility.yul\":192:723   */\n    tag_410:\n        /* \"#utility.yul\":235:240   */\n      0x00\n        /* \"#utility.yul\":288:291   */\n      dup3\n        /* \"#utility.yul\":281:285   */\n      0x1f\n        /* \"#utility.yul\":273:279   */\n      dup4\n        /* \"#utility.yul\":269:286   */\n      add\n        /* \"#utility.yul\":265:292   */\n      slt\n        /* \"#utility.yul\":255:310   */\n      tag_412\n      jumpi\n        /* \"#utility.yul\":306:307   */\n      0x00\n        /* \"#utility.yul\":303:304   */\n      dup1\n        /* \"#utility.yul\":296:308   */\n      revert\n        /* \"#utility.yul\":255:310   */\n    tag_412:\n        /* \"#utility.yul\":329:349   */\n      dup2\n      calldataload\n      sub(shl(0x40, 0x01), 0x01)\n        /* \"#utility.yul\":361:387   */\n      dup2\n      gt\n        /* \"#utility.yul\":358:410   */\n      iszero\n      tag_414\n      jumpi\n        /* \"#utility.yul\":390:408   */\n      tag_414\n      tag_415\n      jump\t// in\n    tag_414:\n        /* \"#utility.yul\":434:489   */\n      tag_416\n        /* \"#utility.yul\":477:479   */\n      0x1f\n        /* \"#utility.yul\":458:471   */\n      dup3\n      add\n      not(0x1f)\n        /* \"#utility.yul\":454:481   */\n      and\n        /* \"#utility.yul\":483:487   */\n      0x20\n        /* \"#utility.yul\":450:488   */\n      add\n        /* \"#utility.yul\":434:489   */\n      tag_417\n      jump\t// in\n    tag_416:\n        /* \"#utility.yul\":514:516   */\n      dup2\n        /* \"#utility.yul\":505:512   */\n      dup2\n        /* \"#utility.yul\":498:517   */\n      mstore\n        /* \"#utility.yul\":560:563   */\n      dup5\n        /* \"#utility.yul\":553:557   */\n      0x20\n        /* \"#utility.yul\":548:550   */\n      dup4\n        /* \"#utility.yul\":540:546   */\n      dup7\n        /* \"#utility.yul\":536:551   */\n      add\n        /* \"#utility.yul\":532:558   */\n      add\n        /* \"#utility.yul\":529:564   */\n      gt\n        /* \"#utility.yul\":526:581   */\n      iszero\n      tag_418\n      jumpi\n        /* \"#utility.yul\":577:578   */\n      0x00\n        /* \"#utility.yul\":574:575   */\n      dup1\n        /* \"#utility.yul\":567:579   */\n      revert\n        /* \"#utility.yul\":526:581   */\n    tag_418:\n        /* \"#utility.yul\":642:644   */\n      dup2\n        /* \"#utility.yul\":635:639   */\n      0x20\n        /* \"#utility.yul\":627:633   */\n      dup6\n        /* \"#utility.yul\":623:640   */\n      add\n        /* \"#utility.yul\":616:620   */\n      0x20\n        /* \"#utility.yul\":607:614   */\n      dup4\n        /* \"#utility.yul\":603:621   */\n      add\n        /* \"#utility.yul\":590:645   */\n      calldatacopy\n        /* \"#utility.yul\":690:691   */\n      0x00\n        /* \"#utility.yul\":665:681   */\n      swap2\n      dup2\n      add\n        /* \"#utility.yul\":683:687   */\n      0x20\n        /* \"#utility.yul\":661:688   */\n      add\n        /* \"#utility.yul\":654:692   */\n      swap2\n      swap1\n      swap2\n      mstore\n        /* \"#utility.yul\":669:676   */\n      swap4\n        /* \"#utility.yul\":192:723   */\n      swap3\n      pop\n      pop\n      pop\n      jump\t// out\n        /* \"#utility.yul\":728:914   */\n    tag_79:\n        /* \"#utility.yul\":787:793   */\n      0x00\n        /* \"#utility.yul\":840:842   */\n      0x20\n        /* \"#utility.yul\":828:837   */\n      dup3\n        /* \"#utility.yul\":819:826   */\n      dup5\n        /* \"#utility.yul\":815:838   */\n      sub\n        /* \"#utility.yul\":811:843   */\n      slt\n        /* \"#utility.yul\":808:860   */\n      iszero\n      tag_420\n      jumpi\n        /* \"#utility.yul\":856:857   */\n      0x00\n        /* \"#utility.yul\":853:854   */\n      dup1\n        /* \"#utility.yul\":846:858   */\n      revert\n        /* \"#utility.yul\":808:860   */\n    tag_420:\n        /* \"#utility.yul\":879:908   */\n      tag_421\n        /* \"#utility.yul\":898:907   */\n      dup3\n        /* \"#utility.yul\":879:908   */\n      tag_407\n      jump\t// in\n    tag_421:\n        /* \"#utility.yul\":869:908   */\n      swap4\n        /* \"#utility.yul\":728:914   */\n      swap3\n      pop\n      pop\n      pop\n      jump\t// out\n        /* \"#utility.yul\":919:1383   */\n    tag_33:\n        /* \"#utility.yul\":1006:1012   */\n      0x00\n        /* \"#utility.yul\":1014:1020   */\n      dup1\n        /* \"#utility.yul\":1022:1028   */\n      0x00\n        /* \"#utility.yul\":1075:1077   */\n      0x60\n        /* \"#utility.yul\":1063:1072   */\n      dup5\n        /* \"#utility.yul\":1054:1061   */\n      dup7\n        /* \"#utility.yul\":1050:1073   */\n      sub\n        /* \"#utility.yul\":1046:1078   */\n      slt\n        /* \"#utility.yul\":1043:1095   */\n      iszero\n      tag_423\n      jumpi\n        /* \"#utility.yul\":1091:1092   */\n      0x00\n        /* \"#utility.yul\":1088:1089   */\n      dup1\n        /* \"#utility.yul\":1081:1093   */\n      revert\n        /* \"#utility.yul\":1043:1095   */\n    tag_423:\n        /* \"#utility.yul\":1114:1143   */\n      tag_424\n        /* \"#utility.yul\":1133:1142   */\n      dup5\n        /* \"#utility.yul\":1114:1143   */\n      tag_407\n      jump\t// in\n    tag_424:\n        /* \"#utility.yul\":1104:1143   */\n      swap3\n      pop\n        /* \"#utility.yul\":1194:1196   */\n      0x20\n        /* \"#utility.yul\":1179:1197   */\n      dup5\n      add\n        /* \"#utility.yul\":1166:1198   */\n      calldataload\n      sub(shl(0x40, 0x01), 0x01)\n        /* \"#utility.yul\":1210:1240   */\n      dup2\n      gt\n        /* \"#utility.yul\":1207:1257   */\n      iszero\n      tag_425\n      jumpi\n        /* \"#utility.yul\":1253:1254   */\n      0x00\n        /* \"#utility.yul\":1250:1251   */\n      dup1\n        /* \"#utility.yul\":1243:1255   */\n      revert\n        /* \"#utility.yul\":1207:1257   */\n    tag_425:\n        /* \"#utility.yul\":1276:1326   */\n      tag_426\n        /* \"#utility.yul\":1318:1325   */\n      dup7\n        /* \"#utility.yul\":1309:1315   */\n      dup3\n        /* \"#utility.yul\":1298:1307   */\n      dup8\n        /* \"#utility.yul\":1294:1316   */\n      add\n        /* \"#utility.yul\":1276:1326   */\n      tag_410\n      jump\t// in\n    tag_426:\n        /* \"#utility.yul\":1266:1326   */\n      swap3\n      pop\n      pop\n        /* \"#utility.yul\":1373:1375   */\n      0x40\n        /* \"#utility.yul\":1362:1371   */\n      dup5\n        /* \"#utility.yul\":1358:1376   */\n      add\n        /* \"#utility.yul\":1345:1377   */\n      calldataload\n        /* \"#utility.yul\":1335:1377   */\n      swap1\n      pop\n        /* \"#utility.yul\":919:1383   */\n      swap3\n      pop\n      swap3\n      pop\n      swap3\n      jump\t// out\n        /* \"#utility.yul\":1388:1710   */\n    tag_37:\n        /* \"#utility.yul\":1457:1463   */\n      0x00\n        /* \"#utility.yul\":1510:1512   */\n      0x20\n        /* \"#utility.yul\":1498:1507   */\n      dup3\n        /* \"#utility.yul\":1489:1496   */\n      dup5\n        /* \"#utility.yul\":1485:1508   */\n      sub\n        /* \"#utility.yul\":1481:1513   */\n      slt\n        /* \"#utility.yul\":1478:1530   */\n      iszero\n      tag_428\n      jumpi\n        /* \"#utility.yul\":1526:1527   */\n      0x00\n        /* \"#utility.yul\":1523:1524   */\n      dup1\n        /* \"#utility.yul\":1516:1528   */\n      revert\n        /* \"#utility.yul\":1478:1530   */\n    tag_428:\n        /* \"#utility.yul\":1553:1576   */\n      dup2\n      calldataload\n      sub(shl(0x40, 0x01), 0x01)\n        /* \"#utility.yul\":1588:1618   */\n      dup2\n      gt\n        /* \"#utility.yul\":1585:1635   */\n      iszero\n      tag_429\n      jumpi\n        /* \"#utility.yul\":1631:1632   */\n      0x00\n        /* \"#utility.yul\":1628:1629   */\n      dup1\n        /* \"#utility.yul\":1621:1633   */\n      revert\n        /* \"#utility.yul\":1585:1635   */\n    tag_429:\n        /* \"#utility.yul\":1654:1704   */\n      tag_285\n        /* \"#utility.yul\":1696:1703   */\n      dup5\n        /* \"#utility.yul\":1687:1693   */\n      dup3\n        /* \"#utility.yul\":1676:1685   */\n      dup6\n        /* \"#utility.yul\":1672:1694   */\n      add\n        /* \"#utility.yul\":1654:1704   */\n      tag_410\n      jump\t// in\n        /* \"#utility.yul\":1715:3050   */\n    tag_46:\n        /* \"#utility.yul\":1828:1834   */\n      0x00\n        /* \"#utility.yul\":1836:1842   */\n      dup1\n        /* \"#utility.yul\":1889:1891   */\n      0x40\n        /* \"#utility.yul\":1877:1886   */\n      dup4\n        /* \"#utility.yul\":1868:1875   */\n      dup6\n        /* \"#utility.yul\":1864:1887   */\n      sub\n        /* \"#utility.yul\":1860:1892   */\n      slt\n        /* \"#utility.yul\":1857:1909   */\n      iszero\n      tag_432\n      jumpi\n        /* \"#utility.yul\":1905:1906   */\n      0x00\n        /* \"#utility.yul\":1902:1903   */\n      dup1\n        /* \"#utility.yul\":1895:1907   */\n      revert\n        /* \"#utility.yul\":1857:1909   */\n    tag_432:\n        /* \"#utility.yul\":1932:1955   */\n      dup3\n      calldataload\n      sub(shl(0x40, 0x01), 0x01)\n        /* \"#utility.yul\":2004:2018   */\n      dup1\n      dup3\n      gt\n        /* \"#utility.yul\":2001:2035   */\n      iszero\n      tag_433\n      jumpi\n        /* \"#utility.yul\":2031:2032   */\n      0x00\n        /* \"#utility.yul\":2028:2029   */\n      dup1\n        /* \"#utility.yul\":2021:2033   */\n      revert\n        /* \"#utility.yul\":2001:2035   */\n    tag_433:\n        /* \"#utility.yul\":2054:2104   */\n      tag_434\n        /* \"#utility.yul\":2096:2103   */\n      dup7\n        /* \"#utility.yul\":2087:2093   */\n      dup4\n        /* \"#utility.yul\":2076:2085   */\n      dup8\n        /* \"#utility.yul\":2072:2094   */\n      add\n        /* \"#utility.yul\":2054:2104   */\n      tag_410\n      jump\t// in\n    tag_434:\n        /* \"#utility.yul\":2044:2104   */\n      swap4\n      pop\n        /* \"#utility.yul\":2123:2125   */\n      0x20\n        /* \"#utility.yul\":2113:2125   */\n      swap2\n      pop\n        /* \"#utility.yul\":2178:2180   */\n      dup2\n        /* \"#utility.yul\":2167:2176   */\n      dup6\n        /* \"#utility.yul\":2163:2181   */\n      add\n        /* \"#utility.yul\":2150:2182   */\n      calldataload\n        /* \"#utility.yul\":2207:2209   */\n      dup2\n        /* \"#utility.yul\":2197:2205   */\n      dup2\n        /* \"#utility.yul\":2194:2210   */\n      gt\n        /* \"#utility.yul\":2191:2227   */\n      iszero\n      tag_435\n      jumpi\n        /* \"#utility.yul\":2223:2224   */\n      0x00\n        /* \"#utility.yul\":2220:2221   */\n      dup1\n        /* \"#utility.yul\":2213:2225   */\n      revert\n        /* \"#utility.yul\":2191:2227   */\n    tag_435:\n        /* \"#utility.yul\":2246:2270   */\n      dup6\n      add\n        /* \"#utility.yul\":2301:2305   */\n      0x1f\n        /* \"#utility.yul\":2293:2306   */\n      dup2\n      add\n        /* \"#utility.yul\":2289:2316   */\n      dup8\n      sgt\n        /* \"#utility.yul\":2279:2334   */\n      tag_436\n      jumpi\n        /* \"#utility.yul\":2330:2331   */\n      0x00\n        /* \"#utility.yul\":2327:2328   */\n      dup1\n        /* \"#utility.yul\":2320:2332   */\n      revert\n        /* \"#utility.yul\":2279:2334   */\n    tag_436:\n        /* \"#utility.yul\":2366:2368   */\n      dup1\n        /* \"#utility.yul\":2353:2369   */\n      calldataload\n        /* \"#utility.yul\":2388:2390   */\n      dup3\n        /* \"#utility.yul\":2384:2386   */\n      dup2\n        /* \"#utility.yul\":2381:2391   */\n      gt\n        /* \"#utility.yul\":2378:2414   */\n      iszero\n      tag_438\n      jumpi\n        /* \"#utility.yul\":2394:2412   */\n      tag_438\n      tag_415\n      jump\t// in\n    tag_438:\n        /* \"#utility.yul\":2440:2442   */\n      dup1\n        /* \"#utility.yul\":2437:2438   */\n      0x05\n        /* \"#utility.yul\":2433:2443   */\n      shl\n        /* \"#utility.yul\":2463:2491   */\n      tag_439\n        /* \"#utility.yul\":2487:2489   */\n      dup6\n        /* \"#utility.yul\":2483:2485   */\n      dup3\n        /* \"#utility.yul\":2479:2490   */\n      add\n        /* \"#utility.yul\":2463:2491   */\n      tag_417\n      jump\t// in\n    tag_439:\n        /* \"#utility.yul\":2525:2540   */\n      dup3\n      dup2\n      mstore\n        /* \"#utility.yul\":2556:2568   */\n      dup6\n      dup2\n      add\n      swap1\n        /* \"#utility.yul\":2588:2599   */\n      dup5\n      dup8\n      add\n        /* \"#utility.yul\":2618:2629   */\n      dup4\n      dup7\n      add\n        /* \"#utility.yul\":2614:2634   */\n      dup9\n      add\n        /* \"#utility.yul\":2611:2644   */\n      dup13\n      lt\n        /* \"#utility.yul\":2608:2661   */\n      iszero\n      tag_440\n      jumpi\n        /* \"#utility.yul\":2657:2658   */\n      0x00\n        /* \"#utility.yul\":2654:2655   */\n      dup1\n        /* \"#utility.yul\":2647:2659   */\n      revert\n        /* \"#utility.yul\":2608:2661   */\n    tag_440:\n        /* \"#utility.yul\":2679:2680   */\n      0x00\n        /* \"#utility.yul\":2670:2680   */\n      swap4\n      pop\n        /* \"#utility.yul\":2700:2701   */\n      dup4\n        /* \"#utility.yul\":2710:3020   */\n    tag_441:\n        /* \"#utility.yul\":2726:2728   */\n      dup6\n        /* \"#utility.yul\":2721:2724   */\n      dup2\n        /* \"#utility.yul\":2718:2729   */\n      lt\n        /* \"#utility.yul\":2710:3020   */\n      iszero\n      tag_443\n      jumpi\n        /* \"#utility.yul\":2807:2810   */\n      dup2\n        /* \"#utility.yul\":2794:2811   */\n      calldataload\n        /* \"#utility.yul\":2843:2845   */\n      dup9\n        /* \"#utility.yul\":2830:2841   */\n      dup2\n        /* \"#utility.yul\":2827:2846   */\n      gt\n        /* \"#utility.yul\":2824:2863   */\n      iszero\n      tag_444\n      jumpi\n        /* \"#utility.yul\":2859:2860   */\n      dup6\n        /* \"#utility.yul\":2856:2857   */\n      dup7\n        /* \"#utility.yul\":2849:2861   */\n      revert\n        /* \"#utility.yul\":2824:2863   */\n    tag_444:\n        /* \"#utility.yul\":2888:2945   */\n      tag_445\n        /* \"#utility.yul\":2937:2944   */\n      dup15\n        /* \"#utility.yul\":2932:2934   */\n      dup12\n        /* \"#utility.yul\":2918:2929   */\n      dup4\n        /* \"#utility.yul\":2914:2916   */\n      dup12\n        /* \"#utility.yul\":2910:2930   */\n      add\n        /* \"#utility.yul\":2906:2935   */\n      add\n        /* \"#utility.yul\":2888:2945   */\n      tag_410\n      jump\t// in\n    tag_445:\n        /* \"#utility.yul\":2876:2946   */\n      dup6\n      mstore\n      pop\n        /* \"#utility.yul\":2966:2978   */\n      swap3\n      dup9\n      add\n      swap3\n        /* \"#utility.yul\":2998:3010   */\n      swap1\n      dup9\n      add\n      swap1\n        /* \"#utility.yul\":2748:2749   */\n      0x01\n        /* \"#utility.yul\":2739:2750   */\n      add\n        /* \"#utility.yul\":2710:3020   */\n      jump(tag_441)\n    tag_443:\n      pop\n        /* \"#utility.yul\":1715:3050   */\n      swap9\n      swap12\n        /* \"#utility.yul\":3039:3044   */\n      swap1\n      swap11\n      pop\n        /* \"#utility.yul\":1715:3050   */\n      swap9\n      pop\n      pop\n      pop\n      pop\n      pop\n      pop\n      pop\n      pop\n      pop\n      jump\t// out\n        /* \"#utility.yul\":3055:3445   */\n    tag_113:\n        /* \"#utility.yul\":3133:3139   */\n      0x00\n        /* \"#utility.yul\":3141:3147   */\n      dup1\n        /* \"#utility.yul\":3194:3196   */\n      0x40\n        /* \"#utility.yul\":3182:3191   */\n      dup4\n        /* \"#utility.yul\":3173:3180   */\n      dup6\n        /* \"#utility.yul\":3169:3192   */\n      sub\n        /* \"#utility.yul\":3165:3197   */\n      slt\n        /* \"#utility.yul\":3162:3214   */\n      iszero\n      tag_447\n      jumpi\n        /* \"#utility.yul\":3210:3211   */\n      0x00\n        /* \"#utility.yul\":3207:3208   */\n      dup1\n        /* \"#utility.yul\":3200:3212   */\n      revert\n        /* \"#utility.yul\":3162:3214   */\n    tag_447:\n        /* \"#utility.yul\":3237:3260   */\n      dup3\n      calldataload\n      sub(shl(0x40, 0x01), 0x01)\n        /* \"#utility.yul\":3272:3302   */\n      dup2\n      gt\n        /* \"#utility.yul\":3269:3319   */\n      iszero\n      tag_448\n      jumpi\n        /* \"#utility.yul\":3315:3316   */\n      0x00\n        /* \"#utility.yul\":3312:3313   */\n      dup1\n        /* \"#utility.yul\":3305:3317   */\n      revert\n        /* \"#utility.yul\":3269:3319   */\n    tag_448:\n        /* \"#utility.yul\":3338:3388   */\n      tag_449\n        /* \"#utility.yul\":3380:3387   */\n      dup6\n        /* \"#utility.yul\":3371:3377   */\n      dup3\n        /* \"#utility.yul\":3360:3369   */\n      dup7\n        /* \"#utility.yul\":3356:3378   */\n      add\n        /* \"#utility.yul\":3338:3388   */\n      tag_410\n      jump\t// in\n    tag_449:\n        /* \"#utility.yul\":3328:3388   */\n      swap6\n        /* \"#utility.yul\":3435:3437   */\n      0x20\n        /* \"#utility.yul\":3420:3438   */\n      swap5\n      swap1\n      swap5\n      add\n        /* \"#utility.yul\":3407:3439   */\n      calldataload\n      swap5\n      pop\n      pop\n      pop\n      pop\n        /* \"#utility.yul\":3055:3445   */\n      jump\t// out\n        /* \"#utility.yul\":3450:4061   */\n    tag_109:\n        /* \"#utility.yul\":3547:3553   */\n      0x00\n        /* \"#utility.yul\":3555:3561   */\n      dup1\n        /* \"#utility.yul\":3563:3569   */\n      0x00\n        /* \"#utility.yul\":3616:3618   */\n      0x60\n        /* \"#utility.yul\":3604:3613   */\n      dup5\n        /* \"#utility.yul\":3595:3602   */\n      dup7\n        /* \"#utility.yul\":3591:3614   */\n      sub\n        /* \"#utility.yul\":3587:3619   */\n      slt\n        /* \"#utility.yul\":3584:3636   */\n      iszero\n      tag_451\n      jumpi\n        /* \"#utility.yul\":3632:3633   */\n      0x00\n        /* \"#utility.yul\":3629:3630   */\n      dup1\n        /* \"#utility.yul\":3622:3634   */\n      revert\n        /* \"#utility.yul\":3584:3636   */\n    tag_451:\n        /* \"#utility.yul\":3659:3682   */\n      dup4\n      calldataload\n      sub(shl(0x40, 0x01), 0x01)\n        /* \"#utility.yul\":3731:3745   */\n      dup1\n      dup3\n      gt\n        /* \"#utility.yul\":3728:3762   */\n      iszero\n      tag_452\n      jumpi\n        /* \"#utility.yul\":3758:3759   */\n      0x00\n        /* \"#utility.yul\":3755:3756   */\n      dup1\n        /* \"#utility.yul\":3748:3760   */\n      revert\n        /* \"#utility.yul\":3728:3762   */\n    tag_452:\n        /* \"#utility.yul\":3781:3831   */\n      tag_453\n        /* \"#utility.yul\":3823:3830   */\n      dup8\n        /* \"#utility.yul\":3814:3820   */\n      dup4\n        /* \"#utility.yul\":3803:3812   */\n      dup9\n        /* \"#utility.yul\":3799:3821   */\n      add\n        /* \"#utility.yul\":3781:3831   */\n      tag_410\n      jump\t// in\n    tag_453:\n        /* \"#utility.yul\":3771:3831   */\n      swap5\n      pop\n        /* \"#utility.yul\":3884:3886   */\n      0x20\n        /* \"#utility.yul\":3873:3882   */\n      dup7\n        /* \"#utility.yul\":3869:3887   */\n      add\n        /* \"#utility.yul\":3856:3888   */\n      calldataload\n        /* \"#utility.yul\":3840:3888   */\n      swap2\n      pop\n        /* \"#utility.yul\":3913:3915   */\n      dup1\n        /* \"#utility.yul\":3903:3911   */\n      dup3\n        /* \"#utility.yul\":3900:3916   */\n      gt\n        /* \"#utility.yul\":3897:3933   */\n      iszero\n      tag_454\n      jumpi\n        /* \"#utility.yul\":3929:3930   */\n      0x00\n        /* \"#utility.yul\":3926:3927   */\n      dup1\n        /* \"#utility.yul\":3919:3931   */\n      revert\n        /* \"#utility.yul\":3897:3933   */\n    tag_454:\n      pop\n        /* \"#utility.yul\":3952:4004   */\n      tag_426\n        /* \"#utility.yul\":3996:4003   */\n      dup7\n        /* \"#utility.yul\":3985:3993   */\n      dup3\n        /* \"#utility.yul\":3974:3983   */\n      dup8\n        /* \"#utility.yul\":3970:3994   */\n      add\n        /* \"#utility.yul\":3952:4004   */\n      tag_410\n      jump\t// in\n        /* \"#utility.yul\":4066:4677   */\n    tag_64:\n        /* \"#utility.yul\":4163:4169   */\n      0x00\n        /* \"#utility.yul\":4171:4177   */\n      dup1\n        /* \"#utility.yul\":4179:4185   */\n      0x00\n        /* \"#utility.yul\":4232:4234   */\n      0x60\n        /* \"#utility.yul\":4220:4229   */\n      dup5\n        /* \"#utility.yul\":4211:4218   */\n      dup7\n        /* \"#utility.yul\":4207:4230   */\n      sub\n        /* \"#utility.yul\":4203:4235   */\n      slt\n        /* \"#utility.yul\":4200:4252   */\n      iszero\n      tag_457\n      jumpi\n        /* \"#utility.yul\":4248:4249   */\n      0x00\n        /* \"#utility.yul\":4245:4246   */\n      dup1\n        /* \"#utility.yul\":4238:4250   */\n      revert\n        /* \"#utility.yul\":4200:4252   */\n    tag_457:\n        /* \"#utility.yul\":4275:4298   */\n      dup4\n      calldataload\n      sub(shl(0x40, 0x01), 0x01)\n        /* \"#utility.yul\":4347:4361   */\n      dup1\n      dup3\n      gt\n        /* \"#utility.yul\":4344:4378   */\n      iszero\n      tag_458\n      jumpi\n        /* \"#utility.yul\":4374:4375   */\n      0x00\n        /* \"#utility.yul\":4371:4372   */\n      dup1\n        /* \"#utility.yul\":4364:4376   */\n      revert\n        /* \"#utility.yul\":4344:4378   */\n    tag_458:\n        /* \"#utility.yul\":4397:4447   */\n      tag_459\n        /* \"#utility.yul\":4439:4446   */\n      dup8\n        /* \"#utility.yul\":4430:4436   */\n      dup4\n        /* \"#utility.yul\":4419:4428   */\n      dup9\n        /* \"#utility.yul\":4415:4437   */\n      add\n        /* \"#utility.yul\":4397:4447   */\n      tag_410\n      jump\t// in\n    tag_459:\n        /* \"#utility.yul\":4387:4447   */\n      swap5\n      pop\n        /* \"#utility.yul\":4494:4496   */\n      0x20\n        /* \"#utility.yul\":4483:4492   */\n      dup7\n        /* \"#utility.yul\":4479:4497   */\n      add\n        /* \"#utility.yul\":4466:4498   */\n      calldataload\n        /* \"#utility.yul\":4456:4498   */\n      swap4\n      pop\n        /* \"#utility.yul\":4551:4553   */\n      0x40\n        /* \"#utility.yul\":4540:4549   */\n      dup7\n        /* \"#utility.yul\":4536:4554   */\n      add\n        /* \"#utility.yul\":4523:4555   */\n      calldataload\n        /* \"#utility.yul\":4507:4555   */\n      swap2\n      pop\n        /* \"#utility.yul\":4580:4582   */\n      dup1\n        /* \"#utility.yul\":4570:4578   */\n      dup3\n        /* \"#utility.yul\":4567:4583   */\n      gt\n        /* \"#utility.yul\":4564:4600   */\n      iszero\n      tag_460\n      jumpi\n        /* \"#utility.yul\":4596:4597   */\n      0x00\n        /* \"#utility.yul\":4593:4594   */\n      dup1\n        /* \"#utility.yul\":4586:4598   */\n      revert\n        /* \"#utility.yul\":4564:4600   */\n    tag_460:\n      pop\n        /* \"#utility.yul\":4619:4671   */\n      tag_461\n        /* \"#utility.yul\":4663:4670   */\n      dup7\n        /* \"#utility.yul\":4652:4660   */\n      dup3\n        /* \"#utility.yul\":4641:4650   */\n      dup8\n        /* \"#utility.yul\":4637:4661   */\n      add\n        /* \"#utility.yul\":4619:4671   */\n      tag_410\n      jump\t// in\n    tag_461:\n        /* \"#utility.yul\":4609:4671   */\n      swap2\n      pop\n      pop\n        /* \"#utility.yul\":4066:4677   */\n      swap3\n      pop\n      swap3\n      pop\n      swap3\n      jump\t// out\n        /* \"#utility.yul\":4682:4862   */\n    tag_68:\n        /* \"#utility.yul\":4741:4747   */\n      0x00\n        /* \"#utility.yul\":4794:4796   */\n      0x20\n        /* \"#utility.yul\":4782:4791   */\n      dup3\n        /* \"#utility.yul\":4773:4780   */\n      dup5\n        /* \"#utility.yul\":4769:4792   */\n      sub\n        /* \"#utility.yul\":4765:4797   */\n      slt\n        /* \"#utility.yul\":4762:4814   */\n      iszero\n      tag_463\n      jumpi\n        /* \"#utility.yul\":4810:4811   */\n      0x00\n        /* \"#utility.yul\":4807:4808   */\n      dup1\n        /* \"#utility.yul\":4800:4812   */\n      revert\n        /* \"#utility.yul\":4762:4814   */\n    tag_463:\n      pop\n        /* \"#utility.yul\":4833:4856   */\n      calldataload\n      swap2\n        /* \"#utility.yul\":4682:4862   */\n      swap1\n      pop\n      jump\t// out\n        /* \"#utility.yul\":4867:5208   */\n    tag_29:\n        /* \"#utility.yul\":4932:4938   */\n      0x00\n        /* \"#utility.yul\":4940:4946   */\n      dup1\n        /* \"#utility.yul\":4993:4995   */\n      0x40\n        /* \"#utility.yul\":4981:4990   */\n      dup4\n        /* \"#utility.yul\":4972:4979   */\n      dup6\n        /* \"#utility.yul\":4968:4991   */\n      sub\n        /* \"#utility.yul\":4964:4996   */\n      slt\n        /* \"#utility.yul\":4961:5013   */\n      iszero\n      tag_465\n      jumpi\n        /* \"#utility.yul\":5009:5010   */\n      0x00\n        /* \"#utility.yul\":5006:5007   */\n      dup1\n        /* \"#utility.yul\":4999:5011   */\n      revert\n        /* \"#utility.yul\":4961:5013   */\n    tag_465:\n        /* \"#utility.yul\":5045:5054   */\n      dup3\n        /* \"#utility.yul\":5032:5055   */\n      calldataload\n        /* \"#utility.yul\":5022:5055   */\n      swap2\n      pop\n        /* \"#utility.yul\":5105:5107   */\n      0x20\n        /* \"#utility.yul\":5094:5103   */\n      dup4\n        /* \"#utility.yul\":5090:5108   */\n      add\n        /* \"#utility.yul\":5077:5109   */\n      calldataload\n        /* \"#utility.yul\":5152:5157   */\n      dup1\n        /* \"#utility.yul\":5145:5158   */\n      iszero\n        /* \"#utility.yul\":5138:5159   */\n      iszero\n        /* \"#utility.yul\":5131:5136   */\n      dup2\n        /* \"#utility.yul\":5128:5160   */\n      eq\n        /* \"#utility.yul\":5118:5178   */\n      tag_466\n      jumpi\n        /* \"#utility.yul\":5174:5175   */\n      0x00\n        /* \"#utility.yul\":5171:5172   */\n      dup1\n        /* \"#utility.yul\":5164:5176   */\n      revert\n        /* \"#utility.yul\":5118:5178   */\n    tag_466:\n        /* \"#utility.yul\":5197:5202   */\n      dup1\n        /* \"#utility.yul\":5187:5202   */\n      swap2\n      pop\n      pop\n        /* \"#utility.yul\":4867:5208   */\n      swap3\n      pop\n      swap3\n      swap1\n      pop\n      jump\t// out\n        /* \"#utility.yul\":5213:5471   */\n    tag_467:\n        /* \"#utility.yul\":5255:5258   */\n      0x00\n        /* \"#utility.yul\":5293:5298   */\n      dup2\n        /* \"#utility.yul\":5287:5299   */\n      mload\n        /* \"#utility.yul\":5320:5326   */\n      dup1\n        /* \"#utility.yul\":5315:5318   */\n      dup5\n        /* \"#utility.yul\":5308:5327   */\n      mstore\n        /* \"#utility.yul\":5336:5399   */\n      tag_469\n        /* \"#utility.yul\":5392:5398   */\n      dup2\n        /* \"#utility.yul\":5385:5389   */\n      0x20\n        /* \"#utility.yul\":5380:5383   */\n      dup7\n        /* \"#utility.yul\":5376:5390   */\n      add\n        /* \"#utility.yul\":5369:5373   */\n      0x20\n        /* \"#utility.yul\":5362:5367   */\n      dup7\n        /* \"#utility.yul\":5358:5374   */\n      add\n        /* \"#utility.yul\":5336:5399   */\n      tag_470\n      jump\t// in\n    tag_469:\n        /* \"#utility.yul\":5453:5455   */\n      0x1f\n        /* \"#utility.yul\":5432:5447   */\n      add\n      not(0x1f)\n        /* \"#utility.yul\":5428:5457   */\n      and\n        /* \"#utility.yul\":5419:5458   */\n      swap3\n      swap1\n      swap3\n      add\n        /* \"#utility.yul\":5460:5464   */\n      0x20\n        /* \"#utility.yul\":5415:5465   */\n      add\n      swap3\n        /* \"#utility.yul\":5213:5471   */\n      swap2\n      pop\n      pop\n      jump\t// out\n        /* \"#utility.yul\":5476:5752   */\n    tag_161:\n        /* \"#utility.yul\":5607:5610   */\n      0x00\n        /* \"#utility.yul\":5645:5651   */\n      dup3\n        /* \"#utility.yul\":5639:5652   */\n      mload\n        /* \"#utility.yul\":5661:5714   */\n      tag_472\n        /* \"#utility.yul\":5707:5713   */\n      dup2\n        /* \"#utility.yul\":5702:5705   */\n      dup5\n        /* \"#utility.yul\":5695:5699   */\n      0x20\n        /* \"#utility.yul\":5687:5693   */\n      dup8\n        /* \"#utility.yul\":5683:5700   */\n      add\n        /* \"#utility.yul\":5661:5714   */\n      tag_470\n      jump\t// in\n    tag_472:\n        /* \"#utility.yul\":5730:5746   */\n      swap2\n      swap1\n      swap2\n      add\n      swap3\n        /* \"#utility.yul\":5476:5752   */\n      swap2\n      pop\n      pop\n      jump\t// out\n        /* \"#utility.yul\":5757:6856   */\n    tag_137:\n        /* \"#utility.yul\":5885:5888   */\n      0x00\n        /* \"#utility.yul\":5914:5915   */\n      dup1\n        /* \"#utility.yul\":5947:5953   */\n      dup4\n        /* \"#utility.yul\":5941:5954   */\n      sload\n        /* \"#utility.yul\":5977:5980   */\n      dup2\n        /* \"#utility.yul\":5999:6000   */\n      0x01\n        /* \"#utility.yul\":6027:6036   */\n      dup3\n        /* \"#utility.yul\":6023:6025   */\n      dup2\n        /* \"#utility.yul\":6019:6037   */\n      shr\n        /* \"#utility.yul\":6009:6037   */\n      swap2\n      pop\n        /* \"#utility.yul\":6087:6089   */\n      dup1\n        /* \"#utility.yul\":6076:6085   */\n      dup4\n        /* \"#utility.yul\":6072:6090   */\n      and\n        /* \"#utility.yul\":6109:6127   */\n      dup1\n        /* \"#utility.yul\":6099:6160   */\n      tag_474\n      jumpi\n        /* \"#utility.yul\":6153:6157   */\n      0x7f\n        /* \"#utility.yul\":6145:6151   */\n      dup4\n        /* \"#utility.yul\":6141:6158   */\n      and\n        /* \"#utility.yul\":6131:6158   */\n      swap3\n      pop\n        /* \"#utility.yul\":6099:6160   */\n    tag_474:\n        /* \"#utility.yul\":6179:6181   */\n      0x20\n        /* \"#utility.yul\":6227:6229   */\n      dup1\n        /* \"#utility.yul\":6219:6225   */\n      dup5\n        /* \"#utility.yul\":6216:6230   */\n      lt\n        /* \"#utility.yul\":6196:6214   */\n      dup3\n        /* \"#utility.yul\":6193:6231   */\n      eq\n        /* \"#utility.yul\":6190:6355   */\n      iszero\n      tag_475\n      jumpi\n      shl(0xe0, 0x4e487b71)\n        /* \"#utility.yul\":6254:6287   */\n      dup7\n      mstore\n        /* \"#utility.yul\":6310:6314   */\n      0x22\n        /* \"#utility.yul\":6307:6308   */\n      0x04\n        /* \"#utility.yul\":6300:6315   */\n      mstore\n        /* \"#utility.yul\":6340:6344   */\n      0x24\n        /* \"#utility.yul\":6261:6264   */\n      dup7\n        /* \"#utility.yul\":6328:6345   */\n      revert\n        /* \"#utility.yul\":6190:6355   */\n    tag_475:\n        /* \"#utility.yul\":6371:6389   */\n      dup2\n        /* \"#utility.yul\":6398:6502   */\n      dup1\n      iszero\n      tag_477\n      jumpi\n        /* \"#utility.yul\":6516:6517   */\n      0x01\n        /* \"#utility.yul\":6511:6831   */\n      dup2\n      eq\n      tag_478\n      jumpi\n        /* \"#utility.yul\":6364:6831   */\n      jump(tag_476)\n        /* \"#utility.yul\":6398:6502   */\n    tag_477:\n      not(0xff)\n        /* \"#utility.yul\":6431:6455   */\n      dup7\n      and\n        /* \"#utility.yul\":6419:6456   */\n      dup10\n      mstore\n        /* \"#utility.yul\":6476:6492   */\n      dup5\n      dup10\n      add\n      swap7\n      pop\n        /* \"#utility.yul\":6398:6502   */\n      jump(tag_476)\n        /* \"#utility.yul\":6511:6831   */\n    tag_478:\n        /* \"#utility.yul\":12700:12701   */\n      0x00\n        /* \"#utility.yul\":12693:12707   */\n      dup11\n      dup2\n      mstore\n        /* \"#utility.yul\":12737:12741   */\n      0x20\n        /* \"#utility.yul\":12724:12742   */\n      swap1\n      keccak256\n        /* \"#utility.yul\":6606:6607   */\n      0x00\n        /* \"#utility.yul\":6620:6785   */\n    tag_481:\n        /* \"#utility.yul\":6634:6640   */\n      dup7\n        /* \"#utility.yul\":6631:6632   */\n      dup2\n        /* \"#utility.yul\":6628:6641   */\n      lt\n        /* \"#utility.yul\":6620:6785   */\n      iszero\n      tag_483\n      jumpi\n        /* \"#utility.yul\":6712:6726   */\n      dup2\n      sload\n        /* \"#utility.yul\":6699:6710   */\n      dup12\n      dup3\n      add\n        /* \"#utility.yul\":6692:6727   */\n      mstore\n        /* \"#utility.yul\":6755:6771   */\n      swap1\n      dup6\n      add\n      swap1\n        /* \"#utility.yul\":6649:6659   */\n      dup4\n      add\n        /* \"#utility.yul\":6620:6785   */\n      jump(tag_481)\n    tag_483:\n        /* \"#utility.yul\":6624:6627   */\n      pop\n      pop\n        /* \"#utility.yul\":6814:6820   */\n      dup5\n        /* \"#utility.yul\":6809:6812   */\n      dup10\n        /* \"#utility.yul\":6805:6821   */\n      add\n        /* \"#utility.yul\":6798:6821   */\n      swap7\n      pop\n        /* \"#utility.yul\":6364:6831   */\n    tag_476:\n      pop\n        /* \"#utility.yul\":6847:6850   */\n      swap5\n      swap9\n        /* \"#utility.yul\":5757:6856   */\n      swap8\n      pop\n      pop\n      pop\n      pop\n      pop\n      pop\n      pop\n      pop\n      jump\t// out\n        /* \"#utility.yul\":7069:7467   */\n    tag_71:\n      sub(shl(0xa0, 0x01), 0x01)\n        /* \"#utility.yul\":7268:7300   */\n      dup5\n      and\n        /* \"#utility.yul\":7250:7301   */\n      dup2\n      mstore\n        /* \"#utility.yul\":7337:7339   */\n      0x60\n        /* \"#utility.yul\":7332:7334   */\n      0x20\n        /* \"#utility.yul\":7317:7335   */\n      dup3\n      add\n        /* \"#utility.yul\":7310:7340   */\n      dup2\n      swap1\n      mstore\n      0x00\n      swap1\n        /* \"#utility.yul\":7357:7402   */\n      tag_486\n      swap1\n        /* \"#utility.yul\":7383:7401   */\n      dup4\n      add\n        /* \"#utility.yul\":7375:7381   */\n      dup6\n        /* \"#utility.yul\":7357:7402   */\n      tag_467\n      jump\t// in\n    tag_486:\n        /* \"#utility.yul\":7349:7402   */\n      swap1\n      pop\n        /* \"#utility.yul\":7452:7458   */\n      dup3\n        /* \"#utility.yul\":7445:7459   */\n      iszero\n        /* \"#utility.yul\":7438:7460   */\n      iszero\n        /* \"#utility.yul\":7433:7435   */\n      0x40\n        /* \"#utility.yul\":7422:7431   */\n      dup4\n        /* \"#utility.yul\":7418:7436   */\n      add\n        /* \"#utility.yul\":7411:7461   */\n      mstore\n        /* \"#utility.yul\":7069:7467   */\n      swap5\n      swap4\n      pop\n      pop\n      pop\n      pop\n      jump\t// out\n        /* \"#utility.yul\":7472:7933   */\n    tag_119:\n      sub(shl(0xa0, 0x01), 0x01)\n        /* \"#utility.yul\":7705:7737   */\n      dup6\n      and\n        /* \"#utility.yul\":7687:7738   */\n      dup2\n      mstore\n        /* \"#utility.yul\":7774:7777   */\n      0x80\n        /* \"#utility.yul\":7769:7771   */\n      0x20\n        /* \"#utility.yul\":7754:7772   */\n      dup3\n      add\n        /* \"#utility.yul\":7747:7778   */\n      dup2\n      swap1\n      mstore\n      0x00\n      swap1\n        /* \"#utility.yul\":7795:7841   */\n      tag_488\n      swap1\n        /* \"#utility.yul\":7821:7840   */\n      dup4\n      add\n        /* \"#utility.yul\":7813:7819   */\n      dup7\n        /* \"#utility.yul\":7795:7841   */\n      tag_467\n      jump\t// in\n    tag_488:\n        /* \"#utility.yul\":7872:7874   */\n      0x40\n        /* \"#utility.yul\":7857:7875   */\n      dup4\n      add\n        /* \"#utility.yul\":7850:7884   */\n      swap5\n      swap1\n      swap5\n      mstore\n      pop\n        /* \"#utility.yul\":7915:7917   */\n      0x60\n        /* \"#utility.yul\":7900:7918   */\n      add\n        /* \"#utility.yul\":7893:7927   */\n      mstore\n        /* \"#utility.yul\":7787:7841   */\n      swap3\n        /* \"#utility.yul\":7472:7933   */\n      swap2\n      pop\n      pop\n      jump\t// out\n        /* \"#utility.yul\":7938:8741   */\n    tag_57:\n        /* \"#utility.yul\":8100:8104   */\n      0x00\n        /* \"#utility.yul\":8129:8131   */\n      0x20\n        /* \"#utility.yul\":8169:8171   */\n      dup1\n        /* \"#utility.yul\":8158:8167   */\n      dup4\n        /* \"#utility.yul\":8154:8172   */\n      add\n        /* \"#utility.yul\":8199:8201   */\n      dup2\n        /* \"#utility.yul\":8188:8197   */\n      dup5\n        /* \"#utility.yul\":8181:8202   */\n      mstore\n        /* \"#utility.yul\":8222:8228   */\n      dup1\n        /* \"#utility.yul\":8257:8263   */\n      dup6\n        /* \"#utility.yul\":8251:8264   */\n      mload\n        /* \"#utility.yul\":8288:8294   */\n      dup1\n        /* \"#utility.yul\":8280:8286   */\n      dup4\n        /* \"#utility.yul\":8273:8295   */\n      mstore\n        /* \"#utility.yul\":8326:8328   */\n      0x40\n        /* \"#utility.yul\":8315:8324   */\n      dup7\n        /* \"#utility.yul\":8311:8329   */\n      add\n        /* \"#utility.yul\":8304:8329   */\n      swap2\n      pop\n        /* \"#utility.yul\":8388:8390   */\n      0x40\n        /* \"#utility.yul\":8378:8384   */\n      dup2\n        /* \"#utility.yul\":8375:8376   */\n      0x05\n        /* \"#utility.yul\":8371:8385   */\n      shl\n        /* \"#utility.yul\":8360:8369   */\n      dup8\n        /* \"#utility.yul\":8356:8386   */\n      add\n        /* \"#utility.yul\":8352:8391   */\n      add\n        /* \"#utility.yul\":8338:8391   */\n      swap3\n      pop\n        /* \"#utility.yul\":8426:8428   */\n      dup4\n        /* \"#utility.yul\":8418:8424   */\n      dup8\n        /* \"#utility.yul\":8414:8429   */\n      add\n        /* \"#utility.yul\":8447:8448   */\n      0x00\n        /* \"#utility.yul\":8457:8712   */\n    tag_490:\n        /* \"#utility.yul\":8471:8477   */\n      dup3\n        /* \"#utility.yul\":8468:8469   */\n      dup2\n        /* \"#utility.yul\":8465:8478   */\n      lt\n        /* \"#utility.yul\":8457:8712   */\n      iszero\n      tag_492\n      jumpi\n        /* \"#utility.yul\":8564:8566   */\n      0x3f\n        /* \"#utility.yul\":8560:8567   */\n      not\n        /* \"#utility.yul\":8548:8557   */\n      dup9\n        /* \"#utility.yul\":8540:8546   */\n      dup7\n        /* \"#utility.yul\":8536:8558   */\n      sub\n        /* \"#utility.yul\":8532:8568   */\n      add\n        /* \"#utility.yul\":8527:8530   */\n      dup5\n        /* \"#utility.yul\":8520:8569   */\n      mstore\n        /* \"#utility.yul\":8592:8632   */\n      tag_493\n        /* \"#utility.yul\":8625:8631   */\n      dup6\n        /* \"#utility.yul\":8616:8622   */\n      dup4\n        /* \"#utility.yul\":8610:8623   */\n      mload\n        /* \"#utility.yul\":8592:8632   */\n      tag_467\n      jump\t// in\n    tag_493:\n        /* \"#utility.yul\":8582:8632   */\n      swap5\n      pop\n        /* \"#utility.yul\":8690:8702   */\n      swap3\n      dup6\n      add\n      swap3\n        /* \"#utility.yul\":8655:8670   */\n      swap1\n      dup6\n      add\n      swap1\n        /* \"#utility.yul\":8493:8494   */\n      0x01\n        /* \"#utility.yul\":8486:8495   */\n      add\n        /* \"#utility.yul\":8457:8712   */\n      jump(tag_490)\n    tag_492:\n      pop\n        /* \"#utility.yul\":8729:8735   */\n      swap3\n      swap8\n        /* \"#utility.yul\":7938:8741   */\n      swap7\n      pop\n      pop\n      pop\n      pop\n      pop\n      pop\n      pop\n      jump\t// out\n        /* \"#utility.yul\":9120:9637   */\n    tag_82:\n        /* \"#utility.yul\":9375:9378   */\n      0xa0\n        /* \"#utility.yul\":9364:9373   */\n      dup2\n        /* \"#utility.yul\":9357:9379   */\n      mstore\n        /* \"#utility.yul\":9338:9342   */\n      0x00\n        /* \"#utility.yul\":9396:9442   */\n      tag_497\n        /* \"#utility.yul\":9437:9440   */\n      0xa0\n        /* \"#utility.yul\":9426:9435   */\n      dup4\n        /* \"#utility.yul\":9422:9441   */\n      add\n        /* \"#utility.yul\":9414:9420   */\n      dup9\n        /* \"#utility.yul\":9396:9442   */\n      tag_467\n      jump\t// in\n    tag_497:\n        /* \"#utility.yul\":9388:9442   */\n      swap1\n      pop\n        /* \"#utility.yul\":9478:9484   */\n      dup6\n        /* \"#utility.yul\":9473:9475   */\n      0x20\n        /* \"#utility.yul\":9462:9471   */\n      dup4\n        /* \"#utility.yul\":9458:9476   */\n      add\n        /* \"#utility.yul\":9451:9485   */\n      mstore\n        /* \"#utility.yul\":9521:9527   */\n      dup5\n        /* \"#utility.yul\":9516:9518   */\n      0x40\n        /* \"#utility.yul\":9505:9514   */\n      dup4\n        /* \"#utility.yul\":9501:9519   */\n      add\n        /* \"#utility.yul\":9494:9528   */\n      mstore\n        /* \"#utility.yul\":9564:9570   */\n      dup4\n        /* \"#utility.yul\":9559:9561   */\n      0x60\n        /* \"#utility.yul\":9548:9557   */\n      dup4\n        /* \"#utility.yul\":9544:9562   */\n      add\n        /* \"#utility.yul\":9537:9571   */\n      mstore\n        /* \"#utility.yul\":9622:9628   */\n      dup3\n        /* \"#utility.yul\":9615:9629   */\n      iszero\n        /* \"#utility.yul\":9608:9630   */\n      iszero\n        /* \"#utility.yul\":9602:9605   */\n      0x80\n        /* \"#utility.yul\":9591:9600   */\n      dup4\n        /* \"#utility.yul\":9587:9606   */\n      add\n        /* \"#utility.yul\":9580:9631   */\n      mstore\n        /* \"#utility.yul\":9120:9637   */\n      swap7\n      swap6\n      pop\n      pop\n      pop\n      pop\n      pop\n      pop\n      jump\t// out\n        /* \"#utility.yul\":12347:12622   */\n    tag_417:\n        /* \"#utility.yul\":12418:12420   */\n      0x40\n        /* \"#utility.yul\":12412:12421   */\n      mload\n        /* \"#utility.yul\":12483:12485   */\n      0x1f\n        /* \"#utility.yul\":12464:12477   */\n      dup3\n      add\n      not(0x1f)\n        /* \"#utility.yul\":12460:12487   */\n      and\n        /* \"#utility.yul\":12448:12488   */\n      dup2\n      add\n      sub(shl(0x40, 0x01), 0x01)\n        /* \"#utility.yul\":12503:12537   */\n      dup2\n      gt\n        /* \"#utility.yul\":12539:12561   */\n      dup3\n      dup3\n      lt\n        /* \"#utility.yul\":12500:12562   */\n      or\n        /* \"#utility.yul\":12497:12585   */\n      iszero\n      tag_508\n      jumpi\n        /* \"#utility.yul\":12565:12583   */\n      tag_508\n      tag_415\n      jump\t// in\n    tag_508:\n        /* \"#utility.yul\":12601:12603   */\n      0x40\n        /* \"#utility.yul\":12594:12616   */\n      mstore\n        /* \"#utility.yul\":12347:12622   */\n      swap2\n      swap1\n      pop\n      jump\t// out\n        /* \"#utility.yul\":12753:12881   */\n    tag_151:\n        /* \"#utility.yul\":12793:12796   */\n      0x00\n        /* \"#utility.yul\":12824:12825   */\n      dup3\n        /* \"#utility.yul\":12820:12826   */\n      not\n        /* \"#utility.yul\":12817:12818   */\n      dup3\n        /* \"#utility.yul\":12814:12827   */\n      gt\n        /* \"#utility.yul\":12811:12850   */\n      iszero\n      tag_512\n      jumpi\n        /* \"#utility.yul\":12830:12848   */\n      tag_512\n      tag_513\n      jump\t// in\n    tag_512:\n      pop\n        /* \"#utility.yul\":12866:12875   */\n      add\n      swap1\n        /* \"#utility.yul\":12753:12881   */\n      jump\t// out\n        /* \"#utility.yul\":12886:13103   */\n    tag_284:\n        /* \"#utility.yul\":12926:12927   */\n      0x00\n        /* \"#utility.yul\":12952:12953   */\n      dup3\n        /* \"#utility.yul\":12942:13074   */\n      tag_515\n      jumpi\n        /* \"#utility.yul\":12996:13006   */\n      0x4e487b71\n        /* \"#utility.yul\":12991:12994   */\n      0xe0\n        /* \"#utility.yul\":12987:13007   */\n      shl\n        /* \"#utility.yul\":12984:12985   */\n      0x00\n        /* \"#utility.yul\":12977:13008   */\n      mstore\n        /* \"#utility.yul\":13031:13035   */\n      0x12\n        /* \"#utility.yul\":13028:13029   */\n      0x04\n        /* \"#utility.yul\":13021:13036   */\n      mstore\n        /* \"#utility.yul\":13059:13063   */\n      0x24\n        /* \"#utility.yul\":13056:13057   */\n      0x00\n        /* \"#utility.yul\":13049:13064   */\n      revert\n        /* \"#utility.yul\":12942:13074   */\n    tag_515:\n      pop\n        /* \"#utility.yul\":13088:13097   */\n      div\n      swap1\n        /* \"#utility.yul\":12886:13103   */\n      jump\t// out\n        /* \"#utility.yul\":13108:13233   */\n    tag_142:\n        /* \"#utility.yul\":13148:13152   */\n      0x00\n        /* \"#utility.yul\":13176:13177   */\n      dup3\n        /* \"#utility.yul\":13173:13174   */\n      dup3\n        /* \"#utility.yul\":13170:13178   */\n      lt\n        /* \"#utility.yul\":13167:13201   */\n      iszero\n      tag_518\n      jumpi\n        /* \"#utility.yul\":13181:13199   */\n      tag_518\n      tag_513\n      jump\t// in\n    tag_518:\n      pop\n        /* \"#utility.yul\":13218:13227   */\n      sub\n      swap1\n        /* \"#utility.yul\":13108:13233   */\n      jump\t// out\n        /* \"#utility.yul\":13238:13496   */\n    tag_470:\n        /* \"#utility.yul\":13310:13311   */\n      0x00\n        /* \"#utility.yul\":13320:13433   */\n    tag_520:\n        /* \"#utility.yul\":13334:13340   */\n      dup4\n        /* \"#utility.yul\":13331:13332   */\n      dup2\n        /* \"#utility.yul\":13328:13341   */\n      lt\n        /* \"#utility.yul\":13320:13433   */\n      iszero\n      tag_522\n      jumpi\n        /* \"#utility.yul\":13410:13421   */\n      dup2\n      dup2\n      add\n        /* \"#utility.yul\":13404:13422   */\n      mload\n        /* \"#utility.yul\":13391:13402   */\n      dup4\n      dup3\n      add\n        /* \"#utility.yul\":13384:13423   */\n      mstore\n        /* \"#utility.yul\":13356:13358   */\n      0x20\n        /* \"#utility.yul\":13349:13359   */\n      add\n        /* \"#utility.yul\":13320:13433   */\n      jump(tag_520)\n    tag_522:\n        /* \"#utility.yul\":13451:13457   */\n      dup4\n        /* \"#utility.yul\":13448:13449   */\n      dup2\n        /* \"#utility.yul\":13445:13458   */\n      gt\n        /* \"#utility.yul\":13442:13490   */\n      iszero\n      tag_312\n      jumpi\n      pop\n      pop\n        /* \"#utility.yul\":13486:13487   */\n      0x00\n        /* \"#utility.yul\":13468:13484   */\n      swap2\n      add\n        /* \"#utility.yul\":13461:13488   */\n      mstore\n        /* \"#utility.yul\":13238:13496   */\n      jump\t// out\n        /* \"#utility.yul\":13501:13881   */\n    tag_184:\n        /* \"#utility.yul\":13580:13581   */\n      0x01\n        /* \"#utility.yul\":13576:13588   */\n      dup2\n      dup2\n      shr\n      swap1\n        /* \"#utility.yul\":13623:13635   */\n      dup3\n      and\n      dup1\n        /* \"#utility.yul\":13644:13705   */\n      tag_525\n      jumpi\n        /* \"#utility.yul\":13698:13702   */\n      0x7f\n        /* \"#utility.yul\":13690:13696   */\n      dup3\n        /* \"#utility.yul\":13686:13703   */\n      and\n        /* \"#utility.yul\":13676:13703   */\n      swap2\n      pop\n        /* \"#utility.yul\":13644:13705   */\n    tag_525:\n        /* \"#utility.yul\":13751:13753   */\n      0x20\n        /* \"#utility.yul\":13743:13749   */\n      dup3\n        /* \"#utility.yul\":13740:13754   */\n      lt\n        /* \"#utility.yul\":13720:13738   */\n      dup2\n        /* \"#utility.yul\":13717:13755   */\n      eq\n        /* \"#utility.yul\":13714:13875   */\n      iszero\n      tag_526\n      jumpi\n        /* \"#utility.yul\":13797:13807   */\n      0x4e487b71\n        /* \"#utility.yul\":13792:13795   */\n      0xe0\n        /* \"#utility.yul\":13788:13808   */\n      shl\n        /* \"#utility.yul\":13785:13786   */\n      0x00\n        /* \"#utility.yul\":13778:13809   */\n      mstore\n        /* \"#utility.yul\":13832:13836   */\n      0x22\n        /* \"#utility.yul\":13829:13830   */\n      0x04\n        /* \"#utility.yul\":13822:13837   */\n      mstore\n        /* \"#utility.yul\":13860:13864   */\n      0x24\n        /* \"#utility.yul\":13857:13858   */\n      0x00\n        /* \"#utility.yul\":13850:13865   */\n      revert\n        /* \"#utility.yul\":13714:13875   */\n    tag_526:\n      pop\n        /* \"#utility.yul\":13501:13881   */\n      swap2\n      swap1\n      pop\n      jump\t// out\n        /* \"#utility.yul\":13886:14021   */\n    tag_198:\n        /* \"#utility.yul\":13925:13928   */\n      0x00\n      not(0x00)\n        /* \"#utility.yul\":13946:13963   */\n      dup3\n      eq\n        /* \"#utility.yul\":13943:13986   */\n      iszero\n      tag_529\n      jumpi\n        /* \"#utility.yul\":13966:13984   */\n      tag_529\n      tag_513\n      jump\t// in\n    tag_529:\n      pop\n        /* \"#utility.yul\":14013:14014   */\n      0x01\n        /* \"#utility.yul\":14002:14015   */\n      add\n      swap1\n        /* \"#utility.yul\":13886:14021   */\n      jump\t// out\n        /* \"#utility.yul\":14026:14153   */\n    tag_513:\n        /* \"#utility.yul\":14087:14097   */\n      0x4e487b71\n        /* \"#utility.yul\":14082:14085   */\n      0xe0\n        /* \"#utility.yul\":14078:14098   */\n      shl\n        /* \"#utility.yul\":14075:14076   */\n      0x00\n        /* \"#utility.yul\":14068:14099   */\n      mstore\n        /* \"#utility.yul\":14118:14122   */\n      0x11\n        /* \"#utility.yul\":14115:14116   */\n      0x04\n        /* \"#utility.yul\":14108:14123   */\n      mstore\n        /* \"#utility.yul\":14142:14146   */\n      0x24\n        /* \"#utility.yul\":14139:14140   */\n      0x00\n        /* \"#utility.yul\":14132:14147   */\n      revert\n        /* \"#utility.yul\":14158:14285   */\n    tag_131:\n        /* \"#utility.yul\":14219:14229   */\n      0x4e487b71\n        /* \"#utility.yul\":14214:14217   */\n      0xe0\n        /* \"#utility.yul\":14210:14230   */\n      shl\n        /* \"#utility.yul\":14207:14208   */\n      0x00\n        /* \"#utility.yul\":14200:14231   */\n      mstore\n        /* \"#utility.yul\":14250:14254   */\n      0x32\n        /* \"#utility.yul\":14247:14248   */\n      0x04\n        /* \"#utility.yul\":14240:14255   */\n      mstore\n        /* \"#utility.yul\":14274:14278   */\n      0x24\n        /* \"#utility.yul\":14271:14272   */\n      0x00\n        /* \"#utility.yul\":14264:14279   */\n      revert\n        /* \"#utility.yul\":14290:14417   */\n    tag_415:\n        /* \"#utility.yul\":14351:14361   */\n      0x4e487b71\n        /* \"#utility.yul\":14346:14349   */\n      0xe0\n        /* \"#utility.yul\":14342:14362   */\n      shl\n        /* \"#utility.yul\":14339:14340   */\n      0x00\n        /* \"#utility.yul\":14332:14363   */\n      mstore\n        /* \"#utility.yul\":14382:14386   */\n      0x41\n        /* \"#utility.yul\":14379:14380   */\n      0x04\n        /* \"#utility.yul\":14372:14387   */\n      mstore\n        /* \"#utility.yul\":14406:14410   */\n      0x24\n        /* \"#utility.yul\":14403:14404   */\n      0x00\n        /* \"#utility.yul\":14396:14411   */\n      revert\n\n    auxdata: 0xa26469706673582212209654ca8d0c4caecbb84bd8b55d5ce6668dbf7c89cd90537ef45f0e6fefd75d7564736f6c63430008070033\n}\n",
				"bytecode": {
					"linkReferences": {},
					"object": "60806040526000600d553480156200001657600080fd5b506040518060c0016040528060405180604001604052806004815260200163119bdbd960e21b81525081526020016200006e604051806040016040528060018152602001603160f81b8152506200055260201b60201c565b815260408051808201825260018152603160f81b602082810191909152808401919091528151808301835260068152654d6f73636f7760d01b81830152918301919091526103e86060830152600060809092018290527322140e5eee5a0341a107bd6a65ee0f5bb72deb90825290815281518051600080516020620029ad833981519152926200010392849291019062000584565b5060208281015160018301556040830151805162000128926002850192019062000584565b50606082015180516200014691600384019160209091019062000584565b506080820151600482015560a09091015160059091015560006020819052600280546001810182559152600080516020620029ad83398151915280546000805160206200298d83398151915290920191620001a190620006ec565b620001ae92919062000613565b506040518060c0016040528060405180604001604052806007815260200166436c6f7468657360c81b815250815260200162000209604051806040016040528060018152602001603160f81b8152506200055260201b60201c565b815260408051808201825260018152601960f91b6020828101919091528084019190915281518083018352600a8152695065746572736275726760b01b81830152918301919091526103e86060830152600060809092018290527332bbfd99dfcf2a15c1d278a19856683930a8be0b825290815281518051600080516020620029cd83398151915292620002a292849291019062000584565b50602082810151600183015560408301518051620002c7926002850192019062000584565b5060608201518051620002e591600384019160209091019062000584565b506080820151600482015560a09091015160059091015560006020819052600280546001810182559152600080516020620029cd83398151915280546000805160206200298d833981519152909201916200034090620006ec565b6200034d92919062000613565b5073c152ad455b16d865f2344140dec6ea95cb361e8a60056040516200037d90635065746160e01b815260040190565b908152604080516020928190038301812080546001600160a01b0319166001600160a01b03959095169490941790935560e083018152600460a08401908152635065746160e01b60c08501528352805180820190915260018152601960f91b8183015290820190620003ef9062000552565b81526103e8602080830191909152600060408301819052606090920182905273c152ad455b16d865f2344140dec6ea95cb361e8a90915260048152815180517f46be32a2e9b8e0f4c8f06b744988be62b4f05119193ea23be26a02d9470d0ccd926200046092849291019062000584565b506020828101516001838101919091556040808501516002850155606085015160038501556080909401516004938401805460ff19169115159190911790556006805491820181556000528351808501909452828452635065746160e01b93909101928352620004f5927ff652222313e28459528d920b65115c16c04f3efc82aaedc97be59f3f377c0d3f9091019162000584565b50600780546001810182556000919091527fa66cc928b5edb82af9bd49922954155ab7b0942694bea4ce44661d9a8736c6880180546001600160a01b03191673c152ad455b16d865f2344140dec6ea95cb361e8a17905562000729565b600081604051602001620005679190620006ae565b604051602081830303815290604052805190602001209050919050565b8280546200059290620006ec565b90600052602060002090601f016020900481019282620005b6576000855562000601565b82601f10620005d157805160ff191683800117855562000601565b8280016001018555821562000601579182015b8281111562000601578251825591602001919060010190620005e4565b506200060f92915062000697565b5090565b8280546200062190620006ec565b90600052602060002090601f01602090048101928262000645576000855562000601565b82601f1062000658578054855562000601565b828001600101855582156200060157600052602060002091601f016020900482015b82811115620006015782548255916001019190600101906200067a565b5b808211156200060f576000815560010162000698565b6000825160005b81811015620006d15760208186018101518583015201620006b5565b81811115620006e1576000828501525b509190910192915050565b600181811c908216806200070157607f821691505b602082108114156200072357634e487b7160e01b600052602260045260246000fd5b50919050565b61225480620007396000396000f3fe608060405234801561001057600080fd5b50600436106101285760003560e01c80630c72b1ec1461012d5780630e1c81b214610142578063146dc6ed146101555780631bbe970a1461016857806329e795f3146101b95780632ccdef7c146101cc5780632d4673e3146101df57806334d2c0ad146101f25780636ba44d3c146102075780636c05dd1d1461021a5780637ddb273d1461022d578063845952a81461024f578063961865f014610270578063a985036d14610294578063a9f9482b146102a7578063bbd43363146102ba578063c178b9af146102cd578063c26da2f8146102d5578063c4957fa0146102f8578063cc21c1881461032c578063d22d90201461033f578063d68cf8c114610352578063dce3915114610375578063f69483c114610388575b600080fd5b61014061013b366004611eb8565b61039b565b005b610140610150366004611c21565b610571565b610140610163366004611c77565b610767565b61019c610176366004611c77565b80516020818301810180516005825292820191909301209152546001600160a01b031681565b6040516001600160a01b0390911681526020015b60405180910390f35b6101406101c7366004611cab565b6108be565b6101406101da366004611eb8565b610a22565b6101406101ed366004611c77565b610b5a565b6101fa610c06565b6040516101b0919061203e565b61019c610215366004611c77565b610cdf565b610140610228366004611e33565b610d10565b61024061023b366004611e9f565b610e07565b6040516101b093929190611fd1565b61026261025d366004611c77565b610ed2565b6040519081526020016101b0565b61028361027e366004611bff565b610f02565b6040516101b09594939291906120a0565b6102626102a2366004611c77565b610fbc565b6102406102b5366004611e9f565b6111c4565b6101406102c8366004611c77565b6111d4565b6101fa611280565b6102e86102e3366004611c77565b611350565b60405190151581526020016101b0565b61019c610306366004611c77565b80516020818301810180516001825292820191909301209152546001600160a01b031681565b61014061033a366004611dd8565b61139b565b61014061034d366004611d94565b61166f565b610365610360366004611c77565b611859565b6040516101b09493929190612007565b610240610383366004611e9f565b61191f565b610140610396366004611eb8565b61192f565b60018115151415610536576000600a83815481106103bb576103bb6121f2565b906000526020600020906003020160020160006101000a81548160ff0219169083151502179055506008600a83815481106103f8576103f86121f2565b90600052602060002090600302016001016040516104169190611f35565b90815260200160405180910390206002015460046000600a858154811061043f5761043f6121f2565b600091825260208083206003909202909101546001600160a01b031683528201929092526040019020600201546104769190612143565b60046000600a858154811061048d5761048d6121f2565b600091825260208083206003909202909101546001600160a01b03168352820192909252604001902060020155600a805460089190849081106104d2576104d26121f2565b90600052602060002090600302016001016040516104f09190611f35565b9081526040805160209281900383019020600201543360009081529283905291206004015461051f9190612109565b336000908152602081905260409020600401555050565b6000600a838154811061054b5761054b6121f2565b60009182526020909120600390910201600201805460ff19169115159190911790555050565b739c35a9bdf790a5ce09b353b1c765269ab466baad33146105d95760405162461bcd60e51b815260206004820152601d60248201527f4572726f723a20596f75206e6f742061207a65726f206163636f756e7400000060448201526064015b60405180910390fd5b60006001600160a01b03166005836040516105f49190611f19565b908152604051908190036020019020546001600160a01b0316146106565760405162461bcd60e51b8152602060048201526019602482015278115c9c9bdc8e88155cd95c88185b1c9958591e48195e1a5cdd603a1b60448201526064016105d0565b6040805160a08101825283815260208082018490526103e882840152600060608301819052608083018190526001600160a01b0387168152600482529290922081518051929391926106ab9284920190611a28565b50602082015160018201556040808301516002830155606083015160038301556080909201516004909101805460ff19169115159190911790555183906005906106f6908590611f19565b90815260405190819003602001902080546001600160a01b039283166001600160a01b031991821617909155600780546001810182556000919091527fa66cc928b5edb82af9bd49922954155ab7b0942694bea4ce44661d9a8736c688018054959092169416939093179092555050565b6008816040516107779190611f19565b90815260200160405180910390206002015460046000336001600160a01b03166001600160a01b031681526020019081526020016000206002015410156107f35760405162461bcd60e51b815260206004820152601060248201526f6572726f723a206e6f74206d6f6e657960801b60448201526064016105d0565b6040805160608101825233815260208082018481526001938301849052600a8054948501815560005282517fc65a7bb8d6351c1cf70c95a316cc6a92839c986682d98bc35f958f4883f9d2a8600390950294850180546001600160a01b0319166001600160a01b03909216919091178155905180519394919361089f937fc65a7bb8d6351c1cf70c95a316cc6a92839c986682d98bc35f958f4883f9d2a9909301929190910190611a28565b50604091909101516002909101805460ff191691151591909117905550565b60005b600354811015610a1d576000600382815481106108e0576108e06121f2565b906000526020600020906005020160010180546108fc90612186565b80601f016020809104026020016040519081016040528092919081815260200182805461092890612186565b80156109755780601f1061094a57610100808354040283529160200191610975565b820191906000526020600020905b81548152906001019060200180831161095857829003601f168201915b505050505090508360405160200161098d9190611f19565b60405160208183030381529060405280519060200120816040516020016109b49190611f19565b604051602081830303815290604052805190602001201415610a0a5782600383815481106109e4576109e46121f2565b90600052602060002090600502016004019080519060200190610a08929190611aac565b505b5080610a15816121c1565b9150506108c1565b505050565b60018115151415610b45576000600b8381548110610a4257610a426121f2565b906000526020600020906003020160020160006101000a81548160ff0219169083151502179055506008600b8381548110610a7f57610a7f6121f2565b9060005260206000209060030201600101604051610a9d9190611f35565b90815260200160405180910390206002015460046000600b8581548110610ac657610ac66121f2565b600091825260208083206003909202909101546001600160a01b03168352820192909252604001902060020154610afd9190612109565b60046000600b8581548110610b1457610b146121f2565b600091825260208083206003909202909101546001600160a01b031683528201929092526040019020600201555050565b6000600b838154811061054b5761054b6121f2565b6040805160608101825233815260208082018481526001938301849052600c8054948501815560005282517fdf6966c971051c3d54ec59162606531493a51404a002842f56009d7e5cf4a8c7600390950294850180546001600160a01b0319166001600160a01b03909216919091178155905180519394919361089f937fdf6966c971051c3d54ec59162606531493a51404a002842f56009d7e5cf4a8c8909301929190910190611a28565b60606009805480602002602001604051908101604052809291908181526020016000905b82821015610cd6578382906000526020600020018054610c4990612186565b80601f0160208091040260200160405190810160405280929190818152602001828054610c7590612186565b8015610cc25780601f10610c9757610100808354040283529160200191610cc2565b820191906000526020600020905b815481529060010190602001808311610ca557829003601f168201915b505050505081526020019060010190610c2a565b50505050905090565b6000600582604051610cf19190611f19565b908152604051908190036020019020546001600160a01b031692915050565b6040518060800160405280336001600160a01b03168152602001828152602001838152602001600d54815250600884604051610d4c9190611f19565b90815260405160209181900382019020825181546001600160a01b0319166001600160a01b039091161781558282015180519192610d9292600185019290910190611a28565b5060408201516002820155606090910151600390910155600980546001810182556000919091528351610dec917f6e1540171b6c0c960b71a7020d9f60077f6af931a8bbf590da0223dacf75c7af01906020860190611a28565b50600d8054906000610dfd836121c1565b9190505550505050565b600c8181548110610e1757600080fd5b6000918252602090912060039091020180546001820180546001600160a01b03909216935090610e4690612186565b80601f0160208091040260200160405190810160405280929190818152602001828054610e7290612186565b8015610ebf5780601f10610e9457610100808354040283529160200191610ebf565b820191906000526020600020905b815481529060010190602001808311610ea257829003601f168201915b5050506002909301549192505060ff1683565b600081604051602001610ee59190611f19565b604051602081830303815290604052805190602001209050919050565b600460205260009081526040902080548190610f1d90612186565b80601f0160208091040260200160405190810160405280929190818152602001828054610f4990612186565b8015610f965780601f10610f6b57610100808354040283529160200191610f96565b820191906000526020600020905b815481529060010190602001808311610f7957829003601f168201915b505050506001830154600284015460038501546004909501549394919390925060ff1685565b60008080805b6002548110156111a757600060028281548110610fe157610fe16121f2565b906000526020600020018054610ff690612186565b80601f016020809104026020016040519081016040528092919081815260200182805461102290612186565b801561106f5780601f106110445761010080835404028352916020019161106f565b820191906000526020600020905b81548152906001019060200180831161105257829003601f168201915b50505050509050856040516020016110879190611f19565b60405160208183030381529060405280519060200120816040516020016110ae9190611f19565b60405160208183030381529060405280519060200120141561119457600091505b600354821161119457600382815481106110eb576110eb6121f2565b906000526020600020906005020160000160405160200161110c9190611f35565b60405160208183030381529060405280519060200120866040516020016111339190611f19565b6040516020818303038152906040528051906020012014156111825760038281548110611162576111626121f2565b9060005260206000209060050201600301548361117f9190612109565b92505b8161118c816121c1565b9250506110cf565b508061119f816121c1565b915050610fc2565b506111b28282612121565b6111bc9082612109565b949350505050565b600b8181548110610e1757600080fd5b6040805160608101825233815260208082018481526001938301849052600b8054948501815560005282517f0175b7a638427703f0dbe7bb9bbf987a2551717b34e79f33b5b1008d1fa01db9600390950294850180546001600160a01b0319166001600160a01b03909216919091178155905180519394919361089f937f0175b7a638427703f0dbe7bb9bbf987a2551717b34e79f33b5b1008d1fa01dba909301929190910190611a28565b60606002805480602002602001604051908101604052809291908181526020016000905b82821015610cd65783829060005260206000200180546112c390612186565b80601f01602080910402602001604051908101604052809291908181526020018280546112ef90612186565b801561133c5780601f106113115761010080835404028352916020019161133c565b820191906000526020600020905b81548152906001019060200180831161131f57829003601f168201915b5050505050815260200190600101906112a4565b6000600460006005846040516113669190611f19565b9081526040805160209281900383019020546001600160a01b0316835290820192909252016000206004015460ff1692915050565b600a8111156113f65760405162461bcd60e51b815260206004820152602160248201527f6572726f723a20726174696e672063616e2062652066726f6d203120746f20316044820152600360fc1b60648201526084016105d0565b60005b600254811161166957600060028281548110611417576114176121f2565b90600052602060002001805461142c90612186565b80601f016020809104026020016040519081016040528092919081815260200182805461145890612186565b80156114a55780601f1061147a576101008083540402835291602001916114a5565b820191906000526020600020905b81548152906001019060200180831161148857829003601f168201915b50505050509050846040516020016114bd9190611f19565b60405160208183030381529060405280519060200120816040516020016114e49190611f19565b604051602081830303815290604052805190602001201415611656576040805160a081018252868152336000908152600460209081529290208054606093600393929083019161153390612186565b80601f016020809104026020016040519081016040528092919081815260200182805461155f90612186565b80156115ac5780601f10611581576101008083540402835291602001916115ac565b820191906000526020600020905b81548152906001019060200180831161158f57829003601f168201915b505050918352505060208082018990526040820188905260609091018490528254600181018455600093845292819020825180519394600502909101926115f69284920190611a28565b50602082810151805161160f9260018501920190611a28565b506040820151805161162b916002840191602090910190611a28565b506060820151600382015560808201518051611651916004840191602090910190611aac565b505050505b5080611661816121c1565b9150506113f9565b50505050565b600460006005846040516116839190611f19565b9081526040805160209281900383019020546001600160a01b0316835290820192909252016000206004015460ff16156116ff5760405162461bcd60e51b815260206004820152601d60248201527f4572726f723a20596f752061726520616c7265616479206c6f6767656400000060448201526064016105d0565b60006001600160a01b031660058360405161171a9190611f19565b908152604051908190036020019020546001600160a01b0316141561177d5760405162461bcd60e51b8152602060048201526019602482015278115c9c9bdc8e88155cd95c88191bd95cdb89dd08195e1a5cdd603a1b60448201526064016105d0565b80600460006005856040516117929190611f19565b9081526040805160209281900383019020546001600160a01b03168352908201929092520160002060010154146118055760405162461bcd60e51b8152602060048201526017602482015276115c9c9bdc8e88125b9d985b1a59081c185cdcdddbdc99604a1b60448201526064016105d0565b60016004600060058560405161181b9190611f19565b9081526040805160209281900383019020546001600160a01b031683529082019290925201600020600401805460ff19169115159190911790555050565b8051602081830181018051600882529282019190930120915280546001820180546001600160a01b03909216929161189090612186565b80601f01602080910402602001604051908101604052809291908181526020018280546118bc90612186565b80156119095780601f106118de57610100808354040283529160200191611909565b820191906000526020600020905b8154815290600101906020018083116118ec57829003601f168201915b5050505050908060020154908060030154905084565b600a8181548110610e1757600080fd5b60018115151415610b45576008600c838154811061194f5761194f6121f2565b906000526020600020906003020160010160405161196d9190611f35565b90815260200160405180910390206002015460046000600c8581548110611996576119966121f2565b600091825260208083206003909202909101546001600160a01b031683528201929092526040019020600201546119cd9190612109565b60046000600c85815481106119e4576119e46121f2565b600091825260208083206003909202909101546001600160a01b03168352820192909252604001812060020191909155600b80548490811061054b5761054b6121f2565b828054611a3490612186565b90600052602060002090601f016020900481019282611a565760008555611a9c565b82601f10611a6f57805160ff1916838001178555611a9c565b82800160010185558215611a9c579182015b82811115611a9c578251825591602001919060010190611a81565b50611aa8929150611b05565b5090565b828054828255906000526020600020908101928215611af9579160200282015b82811115611af95782518051611ae9918491602090910190611a28565b5091602001919060010190611acc565b50611aa8929150611b1a565b5b80821115611aa85760008155600101611b06565b80821115611aa8576000611b2e8282611b37565b50600101611b1a565b508054611b4390612186565b6000825580601f10611b53575050565b601f016020900490600052602060002090810190611b719190611b05565b50565b80356001600160a01b0381168114611b8b57600080fd5b919050565b600082601f830112611ba157600080fd5b81356001600160401b03811115611bba57611bba612208565b611bcd601f8201601f19166020016120d9565b818152846020838601011115611be257600080fd5b816020850160208301376000918101602001919091529392505050565b600060208284031215611c1157600080fd5b611c1a82611b74565b9392505050565b600080600060608486031215611c3657600080fd5b611c3f84611b74565b925060208401356001600160401b03811115611c5a57600080fd5b611c6686828701611b90565b925050604084013590509250925092565b600060208284031215611c8957600080fd5b81356001600160401b03811115611c9f57600080fd5b6111bc84828501611b90565b60008060408385031215611cbe57600080fd5b82356001600160401b0380821115611cd557600080fd5b611ce186838701611b90565b9350602091508185013581811115611cf857600080fd5b8501601f81018713611d0957600080fd5b803582811115611d1b57611d1b612208565b8060051b611d2a8582016120d9565b8281528581019084870183860188018c1015611d4557600080fd5b60009350835b85811015611d8257813588811115611d61578586fd5b611d6f8e8b838b0101611b90565b8552509288019290880190600101611d4b565b50989b909a5098505050505050505050565b60008060408385031215611da757600080fd5b82356001600160401b03811115611dbd57600080fd5b611dc985828601611b90565b95602094909401359450505050565b600080600060608486031215611ded57600080fd5b83356001600160401b0380821115611e0457600080fd5b611e1087838801611b90565b94506020860135915080821115611e2657600080fd5b50611c6686828701611b90565b600080600060608486031215611e4857600080fd5b83356001600160401b0380821115611e5f57600080fd5b611e6b87838801611b90565b9450602086013593506040860135915080821115611e8857600080fd5b50611e9586828701611b90565b9150509250925092565b600060208284031215611eb157600080fd5b5035919050565b60008060408385031215611ecb57600080fd5b8235915060208301358015158114611ee257600080fd5b809150509250929050565b60008151808452611f0581602086016020860161215a565b601f01601f19169290920160200192915050565b60008251611f2b81846020870161215a565b9190910192915050565b600080835481600182811c915080831680611f5157607f831692505b6020808410821415611f7157634e487b7160e01b86526022600452602486fd5b818015611f855760018114611f9657611fc3565b60ff19861689528489019650611fc3565b60008a81526020902060005b86811015611fbb5781548b820152908501908301611fa2565b505084890196505b509498975050505050505050565b6001600160a01b0384168152606060208201819052600090611ff590830185611eed565b90508215156040830152949350505050565b6001600160a01b038516815260806020820181905260009061202b90830186611eed565b6040830194909452506060015292915050565b6000602080830181845280855180835260408601915060408160051b870101925083870160005b8281101561209357603f19888603018452612081858351611eed565b94509285019290850190600101612065565b5092979650505050505050565b60a0815260006120b360a0830188611eed565b905085602083015284604083015283606083015282151560808301529695505050505050565b604051601f8201601f191681016001600160401b038111828210171561210157612101612208565b604052919050565b6000821982111561211c5761211c6121dc565b500190565b60008261213e57634e487b7160e01b600052601260045260246000fd5b500490565b600082821015612155576121556121dc565b500390565b60005b8381101561217557818101518382015260200161215d565b838111156116695750506000910152565b600181811c9082168061219a57607f821691505b602082108114156121bb57634e487b7160e01b600052602260045260246000fd5b50919050565b60006000198214156121d5576121d56121dc565b5060010190565b634e487b7160e01b600052601160045260246000fd5b634e487b7160e01b600052603260045260246000fd5b634e487b7160e01b600052604160045260246000fdfea26469706673582212209654ca8d0c4caecbb84bd8b55d5ce6668dbf7c89cd90537ef45f0e6fefd75d7564736f6c63430008070033405787fa12a823e0f2b7631cc41b3ba8828b3321ca811111fa75cd3aa3bb5acec49e92deb93ac19463e0f89b887a2ab81c6b5eadf7dc1bc8bd12ce4040f656fc5c83a96f0abbcc4e29b827af3528e41db71dd7823e05e1374cd098351a380d7f",
					"opcodes": "PUSH1 0x80 PUSH1 0x40 MSTORE PUSH1 0x0 PUSH1 0xD SSTORE CALLVALUE DUP1 ISZERO PUSH3 0x16 JUMPI PUSH1 0x0 DUP1 REVERT JUMPDEST POP PUSH1 0x40 MLOAD DUP1 PUSH1 0xC0 ADD PUSH1 0x40 MSTORE DUP1 PUSH1 0x40 MLOAD DUP1 PUSH1 0x40 ADD PUSH1 0x40 MSTORE DUP1 PUSH1 0x4 DUP2 MSTORE PUSH1 0x20 ADD PUSH4 0x119BDBD9 PUSH1 0xE2 SHL DUP2 MSTORE POP DUP2 MSTORE PUSH1 0x20 ADD PUSH3 0x6E PUSH1 0x40 MLOAD DUP1 PUSH1 0x40 ADD PUSH1 0x40 MSTORE DUP1 PUSH1 0x1 DUP2 MSTORE PUSH1 0x20 ADD PUSH1 0x31 PUSH1 0xF8 SHL DUP2 MSTORE POP PUSH3 0x552 PUSH1 0x20 SHL PUSH1 0x20 SHR JUMP JUMPDEST DUP2 MSTORE PUSH1 0x40 DUP1 MLOAD DUP1 DUP3 ADD DUP3 MSTORE PUSH1 0x1 DUP2 MSTORE PUSH1 0x31 PUSH1 0xF8 SHL PUSH1 0x20 DUP3 DUP2 ADD SWAP2 SWAP1 SWAP2 MSTORE DUP1 DUP5 ADD SWAP2 SWAP1 SWAP2 MSTORE DUP2 MLOAD DUP1 DUP4 ADD DUP4 MSTORE PUSH1 0x6 DUP2 MSTORE PUSH6 0x4D6F73636F77 PUSH1 0xD0 SHL DUP2 DUP4 ADD MSTORE SWAP2 DUP4 ADD SWAP2 SWAP1 SWAP2 MSTORE PUSH2 0x3E8 PUSH1 0x60 DUP4 ADD MSTORE PUSH1 0x0 PUSH1 0x80 SWAP1 SWAP3 ADD DUP3 SWAP1 MSTORE PUSH20 0x22140E5EEE5A0341A107BD6A65EE0F5BB72DEB90 DUP3 MSTORE SWAP1 DUP2 MSTORE DUP2 MLOAD DUP1 MLOAD PUSH1 0x0 DUP1 MLOAD PUSH1 0x20 PUSH3 0x29AD DUP4 CODECOPY DUP2 MLOAD SWAP2 MSTORE SWAP3 PUSH3 0x103 SWAP3 DUP5 SWAP3 SWAP2 ADD SWAP1 PUSH3 0x584 JUMP JUMPDEST POP PUSH1 0x20 DUP3 DUP2 ADD MLOAD PUSH1 0x1 DUP4 ADD SSTORE PUSH1 0x40 DUP4 ADD MLOAD DUP1 MLOAD PUSH3 0x128 SWAP3 PUSH1 0x2 DUP6 ADD SWAP3 ADD SWAP1 PUSH3 0x584 JUMP JUMPDEST POP PUSH1 0x60 DUP3 ADD MLOAD DUP1 MLOAD PUSH3 0x146 SWAP2 PUSH1 0x3 DUP5 ADD SWAP2 PUSH1 0x20 SWAP1 SWAP2 ADD SWAP1 PUSH3 0x584 JUMP JUMPDEST POP PUSH1 0x80 DUP3 ADD MLOAD PUSH1 0x4 DUP3 ADD SSTORE PUSH1 0xA0 SWAP1 SWAP2 ADD MLOAD PUSH1 0x5 SWAP1 SWAP2 ADD SSTORE PUSH1 0x0 PUSH1 0x20 DUP2 SWAP1 MSTORE PUSH1 0x2 DUP1 SLOAD PUSH1 0x1 DUP2 ADD DUP3 SSTORE SWAP2 MSTORE PUSH1 0x0 DUP1 MLOAD PUSH1 0x20 PUSH3 0x29AD DUP4 CODECOPY DUP2 MLOAD SWAP2 MSTORE DUP1 SLOAD PUSH1 0x0 DUP1 MLOAD PUSH1 0x20 PUSH3 0x298D DUP4 CODECOPY DUP2 MLOAD SWAP2 MSTORE SWAP1 SWAP3 ADD SWAP2 PUSH3 0x1A1 SWAP1 PUSH3 0x6EC JUMP JUMPDEST PUSH3 0x1AE SWAP3 SWAP2 SWAP1 PUSH3 0x613 JUMP JUMPDEST POP PUSH1 0x40 MLOAD DUP1 PUSH1 0xC0 ADD PUSH1 0x40 MSTORE DUP1 PUSH1 0x40 MLOAD DUP1 PUSH1 0x40 ADD PUSH1 0x40 MSTORE DUP1 PUSH1 0x7 DUP2 MSTORE PUSH1 0x20 ADD PUSH7 0x436C6F74686573 PUSH1 0xC8 SHL DUP2 MSTORE POP DUP2 MSTORE PUSH1 0x20 ADD PUSH3 0x209 PUSH1 0x40 MLOAD DUP1 PUSH1 0x40 ADD PUSH1 0x40 MSTORE DUP1 PUSH1 0x1 DUP2 MSTORE PUSH1 0x20 ADD PUSH1 0x31 PUSH1 0xF8 SHL DUP2 MSTORE POP PUSH3 0x552 PUSH1 0x20 SHL PUSH1 0x20 SHR JUMP JUMPDEST DUP2 MSTORE PUSH1 0x40 DUP1 MLOAD DUP1 DUP3 ADD DUP3 MSTORE PUSH1 0x1 DUP2 MSTORE PUSH1 0x19 PUSH1 0xF9 SHL PUSH1 0x20 DUP3 DUP2 ADD SWAP2 SWAP1 SWAP2 MSTORE DUP1 DUP5 ADD SWAP2 SWAP1 SWAP2 MSTORE DUP2 MLOAD DUP1 DUP4 ADD DUP4 MSTORE PUSH1 0xA DUP2 MSTORE PUSH10 0x50657465727362757267 PUSH1 0xB0 SHL DUP2 DUP4 ADD MSTORE SWAP2 DUP4 ADD SWAP2 SWAP1 SWAP2 MSTORE PUSH2 0x3E8 PUSH1 0x60 DUP4 ADD MSTORE PUSH1 0x0 PUSH1 0x80 SWAP1 SWAP3 ADD DUP3 SWAP1 MSTORE PUSH20 0x32BBFD99DFCF2A15C1D278A19856683930A8BE0B DUP3 MSTORE SWAP1 DUP2 MSTORE DUP2 MLOAD DUP1 MLOAD PUSH1 0x0 DUP1 MLOAD PUSH1 0x20 PUSH3 0x29CD DUP4 CODECOPY DUP2 MLOAD SWAP2 MSTORE SWAP3 PUSH3 0x2A2 SWAP3 DUP5 SWAP3 SWAP2 ADD SWAP1 PUSH3 0x584 JUMP JUMPDEST POP PUSH1 0x20 DUP3 DUP2 ADD MLOAD PUSH1 0x1 DUP4 ADD SSTORE PUSH1 0x40 DUP4 ADD MLOAD DUP1 MLOAD PUSH3 0x2C7 SWAP3 PUSH1 0x2 DUP6 ADD SWAP3 ADD SWAP1 PUSH3 0x584 JUMP JUMPDEST POP PUSH1 0x60 DUP3 ADD MLOAD DUP1 MLOAD PUSH3 0x2E5 SWAP2 PUSH1 0x3 DUP5 ADD SWAP2 PUSH1 0x20 SWAP1 SWAP2 ADD SWAP1 PUSH3 0x584 JUMP JUMPDEST POP PUSH1 0x80 DUP3 ADD MLOAD PUSH1 0x4 DUP3 ADD SSTORE PUSH1 0xA0 SWAP1 SWAP2 ADD MLOAD PUSH1 0x5 SWAP1 SWAP2 ADD SSTORE PUSH1 0x0 PUSH1 0x20 DUP2 SWAP1 MSTORE PUSH1 0x2 DUP1 SLOAD PUSH1 0x1 DUP2 ADD DUP3 SSTORE SWAP2 MSTORE PUSH1 0x0 DUP1 MLOAD PUSH1 0x20 PUSH3 0x29CD DUP4 CODECOPY DUP2 MLOAD SWAP2 MSTORE DUP1 SLOAD PUSH1 0x0 DUP1 MLOAD PUSH1 0x20 PUSH3 0x298D DUP4 CODECOPY DUP2 MLOAD SWAP2 MSTORE SWAP1 SWAP3 ADD SWAP2 PUSH3 0x340 SWAP1 PUSH3 0x6EC JUMP JUMPDEST PUSH3 0x34D SWAP3 SWAP2 SWAP1 PUSH3 0x613 JUMP JUMPDEST POP PUSH20 0xC152AD455B16D865F2344140DEC6EA95CB361E8A PUSH1 0x5 PUSH1 0x40 MLOAD PUSH3 0x37D SWAP1 PUSH4 0x50657461 PUSH1 0xE0 SHL DUP2 MSTORE PUSH1 0x4 ADD SWAP1 JUMP JUMPDEST SWAP1 DUP2 MSTORE PUSH1 0x40 DUP1 MLOAD PUSH1 0x20 SWAP3 DUP2 SWAP1 SUB DUP4 ADD DUP2 KECCAK256 DUP1 SLOAD PUSH1 0x1 PUSH1 0x1 PUSH1 0xA0 SHL SUB NOT AND PUSH1 0x1 PUSH1 0x1 PUSH1 0xA0 SHL SUB SWAP6 SWAP1 SWAP6 AND SWAP5 SWAP1 SWAP5 OR SWAP1 SWAP4 SSTORE PUSH1 0xE0 DUP4 ADD DUP2 MSTORE PUSH1 0x4 PUSH1 0xA0 DUP5 ADD SWAP1 DUP2 MSTORE PUSH4 0x50657461 PUSH1 0xE0 SHL PUSH1 0xC0 DUP6 ADD MSTORE DUP4 MSTORE DUP1 MLOAD DUP1 DUP3 ADD SWAP1 SWAP2 MSTORE PUSH1 0x1 DUP2 MSTORE PUSH1 0x19 PUSH1 0xF9 SHL DUP2 DUP4 ADD MSTORE SWAP1 DUP3 ADD SWAP1 PUSH3 0x3EF SWAP1 PUSH3 0x552 JUMP JUMPDEST DUP2 MSTORE PUSH2 0x3E8 PUSH1 0x20 DUP1 DUP4 ADD SWAP2 SWAP1 SWAP2 MSTORE PUSH1 0x0 PUSH1 0x40 DUP4 ADD DUP2 SWAP1 MSTORE PUSH1 0x60 SWAP1 SWAP3 ADD DUP3 SWAP1 MSTORE PUSH20 0xC152AD455B16D865F2344140DEC6EA95CB361E8A SWAP1 SWAP2 MSTORE PUSH1 0x4 DUP2 MSTORE DUP2 MLOAD DUP1 MLOAD PUSH32 0x46BE32A2E9B8E0F4C8F06B744988BE62B4F05119193EA23BE26A02D9470D0CCD SWAP3 PUSH3 0x460 SWAP3 DUP5 SWAP3 SWAP2 ADD SWAP1 PUSH3 0x584 JUMP JUMPDEST POP PUSH1 0x20 DUP3 DUP2 ADD MLOAD PUSH1 0x1 DUP4 DUP2 ADD SWAP2 SWAP1 SWAP2 SSTORE PUSH1 0x40 DUP1 DUP6 ADD MLOAD PUSH1 0x2 DUP6 ADD SSTORE PUSH1 0x60 DUP6 ADD MLOAD PUSH1 0x3 DUP6 ADD SSTORE PUSH1 0x80 SWAP1 SWAP5 ADD MLOAD PUSH1 0x4 SWAP4 DUP5 ADD DUP1 SLOAD PUSH1 0xFF NOT AND SWAP2 ISZERO ISZERO SWAP2 SWAP1 SWAP2 OR SWAP1 SSTORE PUSH1 0x6 DUP1 SLOAD SWAP2 DUP3 ADD DUP2 SSTORE PUSH1 0x0 MSTORE DUP4 MLOAD DUP1 DUP6 ADD SWAP1 SWAP5 MSTORE DUP3 DUP5 MSTORE PUSH4 0x50657461 PUSH1 0xE0 SHL SWAP4 SWAP1 SWAP2 ADD SWAP3 DUP4 MSTORE PUSH3 0x4F5 SWAP3 PUSH32 0xF652222313E28459528D920B65115C16C04F3EFC82AAEDC97BE59F3F377C0D3F SWAP1 SWAP2 ADD SWAP2 PUSH3 0x584 JUMP JUMPDEST POP PUSH1 0x7 DUP1 SLOAD PUSH1 0x1 DUP2 ADD DUP3 SSTORE PUSH1 0x0 SWAP2 SWAP1 SWAP2 MSTORE PUSH32 0xA66CC928B5EDB82AF9BD49922954155AB7B0942694BEA4CE44661D9A8736C688 ADD DUP1 SLOAD PUSH1 0x1 PUSH1 0x1 PUSH1 0xA0 SHL SUB NOT AND PUSH20 0xC152AD455B16D865F2344140DEC6EA95CB361E8A OR SWAP1 SSTORE PUSH3 0x729 JUMP JUMPDEST PUSH1 0x0 DUP2 PUSH1 0x40 MLOAD PUSH1 0x20 ADD PUSH3 0x567 SWAP2 SWAP1 PUSH3 0x6AE JUMP JUMPDEST PUSH1 0x40 MLOAD PUSH1 0x20 DUP2 DUP4 SUB SUB DUP2 MSTORE SWAP1 PUSH1 0x40 MSTORE DUP1 MLOAD SWAP1 PUSH1 0x20 ADD KECCAK256 SWAP1 POP SWAP2 SWAP1 POP JUMP JUMPDEST DUP3 DUP1 SLOAD PUSH3 0x592 SWAP1 PUSH3 0x6EC JUMP JUMPDEST SWAP1 PUSH1 0x0 MSTORE PUSH1 0x20 PUSH1 0x0 KECCAK256 SWAP1 PUSH1 0x1F ADD PUSH1 0x20 SWAP1 DIV DUP2 ADD SWAP3 DUP3 PUSH3 0x5B6 JUMPI PUSH1 0x0 DUP6 SSTORE PUSH3 0x601 JUMP JUMPDEST DUP3 PUSH1 0x1F LT PUSH3 0x5D1 JUMPI DUP1 MLOAD PUSH1 0xFF NOT AND DUP4 DUP1 ADD OR DUP6 SSTORE PUSH3 0x601 JUMP JUMPDEST DUP3 DUP1 ADD PUSH1 0x1 ADD DUP6 SSTORE DUP3 ISZERO PUSH3 0x601 JUMPI SWAP2 DUP3 ADD JUMPDEST DUP3 DUP2 GT ISZERO PUSH3 0x601 JUMPI DUP3 MLOAD DUP3 SSTORE SWAP2 PUSH1 0x20 ADD SWAP2 SWAP1 PUSH1 0x1 ADD SWAP1 PUSH3 0x5E4 JUMP JUMPDEST POP PUSH3 0x60F SWAP3 SWAP2 POP PUSH3 0x697 JUMP JUMPDEST POP SWAP1 JUMP JUMPDEST DUP3 DUP1 SLOAD PUSH3 0x621 SWAP1 PUSH3 0x6EC JUMP JUMPDEST SWAP1 PUSH1 0x0 MSTORE PUSH1 0x20 PUSH1 0x0 KECCAK256 SWAP1 PUSH1 0x1F ADD PUSH1 0x20 SWAP1 DIV DUP2 ADD SWAP3 DUP3 PUSH3 0x645 JUMPI PUSH1 0x0 DUP6 SSTORE PUSH3 0x601 JUMP JUMPDEST DUP3 PUSH1 0x1F LT PUSH3 0x658 JUMPI DUP1 SLOAD DUP6 SSTORE PUSH3 0x601 JUMP JUMPDEST DUP3 DUP1 ADD PUSH1 0x1 ADD DUP6 SSTORE DUP3 ISZERO PUSH3 0x601 JUMPI PUSH1 0x0 MSTORE PUSH1 0x20 PUSH1 0x0 KECCAK256 SWAP2 PUSH1 0x1F ADD PUSH1 0x20 SWAP1 DIV DUP3 ADD JUMPDEST DUP3 DUP2 GT ISZERO PUSH3 0x601 JUMPI DUP3 SLOAD DUP3 SSTORE SWAP2 PUSH1 0x1 ADD SWAP2 SWAP1 PUSH1 0x1 ADD SWAP1 PUSH3 0x67A JUMP JUMPDEST JUMPDEST DUP1 DUP3 GT ISZERO PUSH3 0x60F JUMPI PUSH1 0x0 DUP2 SSTORE PUSH1 0x1 ADD PUSH3 0x698 JUMP JUMPDEST PUSH1 0x0 DUP3 MLOAD PUSH1 0x0 JUMPDEST DUP2 DUP2 LT ISZERO PUSH3 0x6D1 JUMPI PUSH1 0x20 DUP2 DUP7 ADD DUP2 ADD MLOAD DUP6 DUP4 ADD MSTORE ADD PUSH3 0x6B5 JUMP JUMPDEST DUP2 DUP2 GT ISZERO PUSH3 0x6E1 JUMPI PUSH1 0x0 DUP3 DUP6 ADD MSTORE JUMPDEST POP SWAP2 SWAP1 SWAP2 ADD SWAP3 SWAP2 POP POP JUMP JUMPDEST PUSH1 0x1 DUP2 DUP2 SHR SWAP1 DUP3 AND DUP1 PUSH3 0x701 JUMPI PUSH1 0x7F DUP3 AND SWAP2 POP JUMPDEST PUSH1 0x20 DUP3 LT DUP2 EQ ISZERO PUSH3 0x723 JUMPI PUSH4 0x4E487B71 PUSH1 0xE0 SHL PUSH1 0x0 MSTORE PUSH1 0x22 PUSH1 0x4 MSTORE PUSH1 0x24 PUSH1 0x0 REVERT JUMPDEST POP SWAP2 SWAP1 POP JUMP JUMPDEST PUSH2 0x2254 DUP1 PUSH3 0x739 PUSH1 0x0 CODECOPY PUSH1 0x0 RETURN INVALID PUSH1 0x80 PUSH1 0x40 MSTORE CALLVALUE DUP1 ISZERO PUSH2 0x10 JUMPI PUSH1 0x0 DUP1 REVERT JUMPDEST POP PUSH1 0x4 CALLDATASIZE LT PUSH2 0x128 JUMPI PUSH1 0x0 CALLDATALOAD PUSH1 0xE0 SHR DUP1 PUSH4 0xC72B1EC EQ PUSH2 0x12D JUMPI DUP1 PUSH4 0xE1C81B2 EQ PUSH2 0x142 JUMPI DUP1 PUSH4 0x146DC6ED EQ PUSH2 0x155 JUMPI DUP1 PUSH4 0x1BBE970A EQ PUSH2 0x168 JUMPI DUP1 PUSH4 0x29E795F3 EQ PUSH2 0x1B9 JUMPI DUP1 PUSH4 0x2CCDEF7C EQ PUSH2 0x1CC JUMPI DUP1 PUSH4 0x2D4673E3 EQ PUSH2 0x1DF JUMPI DUP1 PUSH4 0x34D2C0AD EQ PUSH2 0x1F2 JUMPI DUP1 PUSH4 0x6BA44D3C EQ PUSH2 0x207 JUMPI DUP1 PUSH4 0x6C05DD1D EQ PUSH2 0x21A JUMPI DUP1 PUSH4 0x7DDB273D EQ PUSH2 0x22D JUMPI DUP1 PUSH4 0x845952A8 EQ PUSH2 0x24F JUMPI DUP1 PUSH4 0x961865F0 EQ PUSH2 0x270 JUMPI DUP1 PUSH4 0xA985036D EQ PUSH2 0x294 JUMPI DUP1 PUSH4 0xA9F9482B EQ PUSH2 0x2A7 JUMPI DUP1 PUSH4 0xBBD43363 EQ PUSH2 0x2BA JUMPI DUP1 PUSH4 0xC178B9AF EQ PUSH2 0x2CD JUMPI DUP1 PUSH4 0xC26DA2F8 EQ PUSH2 0x2D5 JUMPI DUP1 PUSH4 0xC4957FA0 EQ PUSH2 0x2F8 JUMPI DUP1 PUSH4 0xCC21C188 EQ PUSH2 0x32C JUMPI DUP1 PUSH4 0xD22D9020 EQ PUSH2 0x33F JUMPI DUP1 PUSH4 0xD68CF8C1 EQ PUSH2 0x352 JUMPI DUP1 PUSH4 0xDCE39151 EQ PUSH2 0x375 JUMPI DUP1 PUSH4 0xF69483C1 EQ PUSH2 0x388 JUMPI JUMPDEST PUSH1 0x0 DUP1 REVERT JUMPDEST PUSH2 0x140 PUSH2 0x13B CALLDATASIZE PUSH1 0x4 PUSH2 0x1EB8 JUMP JUMPDEST PUSH2 0x39B JUMP JUMPDEST STOP JUMPDEST PUSH2 0x140 PUSH2 0x150 CALLDATASIZE PUSH1 0x4 PUSH2 0x1C21 JUMP JUMPDEST PUSH2 0x571 JUMP JUMPDEST PUSH2 0x140 PUSH2 0x163 CALLDATASIZE PUSH1 0x4 PUSH2 0x1C77 JUMP JUMPDEST PUSH2 0x767 JUMP JUMPDEST PUSH2 0x19C PUSH2 0x176 CALLDATASIZE PUSH1 0x4 PUSH2 0x1C77 JUMP JUMPDEST DUP1 MLOAD PUSH1 0x20 DUP2 DUP4 ADD DUP2 ADD DUP1 MLOAD PUSH1 0x5 DUP3 MSTORE SWAP3 DUP3 ADD SWAP2 SWAP1 SWAP4 ADD KECCAK256 SWAP2 MSTORE SLOAD PUSH1 0x1 PUSH1 0x1 PUSH1 0xA0 SHL SUB AND DUP2 JUMP JUMPDEST PUSH1 0x40 MLOAD PUSH1 0x1 PUSH1 0x1 PUSH1 0xA0 SHL SUB SWAP1 SWAP2 AND DUP2 MSTORE PUSH1 0x20 ADD JUMPDEST PUSH1 0x40 MLOAD DUP1 SWAP2 SUB SWAP1 RETURN JUMPDEST PUSH2 0x140 PUSH2 0x1C7 CALLDATASIZE PUSH1 0x4 PUSH2 0x1CAB JUMP JUMPDEST PUSH2 0x8BE JUMP JUMPDEST PUSH2 0x140 PUSH2 0x1DA CALLDATASIZE PUSH1 0x4 PUSH2 0x1EB8 JUMP JUMPDEST PUSH2 0xA22 JUMP JUMPDEST PUSH2 0x140 PUSH2 0x1ED CALLDATASIZE PUSH1 0x4 PUSH2 0x1C77 JUMP JUMPDEST PUSH2 0xB5A JUMP JUMPDEST PUSH2 0x1FA PUSH2 0xC06 JUMP JUMPDEST PUSH1 0x40 MLOAD PUSH2 0x1B0 SWAP2 SWAP1 PUSH2 0x203E JUMP JUMPDEST PUSH2 0x19C PUSH2 0x215 CALLDATASIZE PUSH1 0x4 PUSH2 0x1C77 JUMP JUMPDEST PUSH2 0xCDF JUMP JUMPDEST PUSH2 0x140 PUSH2 0x228 CALLDATASIZE PUSH1 0x4 PUSH2 0x1E33 JUMP JUMPDEST PUSH2 0xD10 JUMP JUMPDEST PUSH2 0x240 PUSH2 0x23B CALLDATASIZE PUSH1 0x4 PUSH2 0x1E9F JUMP JUMPDEST PUSH2 0xE07 JUMP JUMPDEST PUSH1 0x40 MLOAD PUSH2 0x1B0 SWAP4 SWAP3 SWAP2 SWAP1 PUSH2 0x1FD1 JUMP JUMPDEST PUSH2 0x262 PUSH2 0x25D CALLDATASIZE PUSH1 0x4 PUSH2 0x1C77 JUMP JUMPDEST PUSH2 0xED2 JUMP JUMPDEST PUSH1 0x40 MLOAD SWAP1 DUP2 MSTORE PUSH1 0x20 ADD PUSH2 0x1B0 JUMP JUMPDEST PUSH2 0x283 PUSH2 0x27E CALLDATASIZE PUSH1 0x4 PUSH2 0x1BFF JUMP JUMPDEST PUSH2 0xF02 JUMP JUMPDEST PUSH1 0x40 MLOAD PUSH2 0x1B0 SWAP6 SWAP5 SWAP4 SWAP3 SWAP2 SWAP1 PUSH2 0x20A0 JUMP JUMPDEST PUSH2 0x262 PUSH2 0x2A2 CALLDATASIZE PUSH1 0x4 PUSH2 0x1C77 JUMP JUMPDEST PUSH2 0xFBC JUMP JUMPDEST PUSH2 0x240 PUSH2 0x2B5 CALLDATASIZE PUSH1 0x4 PUSH2 0x1E9F JUMP JUMPDEST PUSH2 0x11C4 JUMP JUMPDEST PUSH2 0x140 PUSH2 0x2C8 CALLDATASIZE PUSH1 0x4 PUSH2 0x1C77 JUMP JUMPDEST PUSH2 0x11D4 JUMP JUMPDEST PUSH2 0x1FA PUSH2 0x1280 JUMP JUMPDEST PUSH2 0x2E8 PUSH2 0x2E3 CALLDATASIZE PUSH1 0x4 PUSH2 0x1C77 JUMP JUMPDEST PUSH2 0x1350 JUMP JUMPDEST PUSH1 0x40 MLOAD SWAP1 ISZERO ISZERO DUP2 MSTORE PUSH1 0x20 ADD PUSH2 0x1B0 JUMP JUMPDEST PUSH2 0x19C PUSH2 0x306 CALLDATASIZE PUSH1 0x4 PUSH2 0x1C77 JUMP JUMPDEST DUP1 MLOAD PUSH1 0x20 DUP2 DUP4 ADD DUP2 ADD DUP1 MLOAD PUSH1 0x1 DUP3 MSTORE SWAP3 DUP3 ADD SWAP2 SWAP1 SWAP4 ADD KECCAK256 SWAP2 MSTORE SLOAD PUSH1 0x1 PUSH1 0x1 PUSH1 0xA0 SHL SUB AND DUP2 JUMP JUMPDEST PUSH2 0x140 PUSH2 0x33A CALLDATASIZE PUSH1 0x4 PUSH2 0x1DD8 JUMP JUMPDEST PUSH2 0x139B JUMP JUMPDEST PUSH2 0x140 PUSH2 0x34D CALLDATASIZE PUSH1 0x4 PUSH2 0x1D94 JUMP JUMPDEST PUSH2 0x166F JUMP JUMPDEST PUSH2 0x365 PUSH2 0x360 CALLDATASIZE PUSH1 0x4 PUSH2 0x1C77 JUMP JUMPDEST PUSH2 0x1859 JUMP JUMPDEST PUSH1 0x40 MLOAD PUSH2 0x1B0 SWAP5 SWAP4 SWAP3 SWAP2 SWAP1 PUSH2 0x2007 JUMP JUMPDEST PUSH2 0x240 PUSH2 0x383 CALLDATASIZE PUSH1 0x4 PUSH2 0x1E9F JUMP JUMPDEST PUSH2 0x191F JUMP JUMPDEST PUSH2 0x140 PUSH2 0x396 CALLDATASIZE PUSH1 0x4 PUSH2 0x1EB8 JUMP JUMPDEST PUSH2 0x192F JUMP JUMPDEST PUSH1 0x1 DUP2 ISZERO ISZERO EQ ISZERO PUSH2 0x536 JUMPI PUSH1 0x0 PUSH1 0xA DUP4 DUP2 SLOAD DUP2 LT PUSH2 0x3BB JUMPI PUSH2 0x3BB PUSH2 0x21F2 JUMP JUMPDEST SWAP1 PUSH1 0x0 MSTORE PUSH1 0x20 PUSH1 0x0 KECCAK256 SWAP1 PUSH1 0x3 MUL ADD PUSH1 0x2 ADD PUSH1 0x0 PUSH2 0x100 EXP DUP2 SLOAD DUP2 PUSH1 0xFF MUL NOT AND SWAP1 DUP4 ISZERO ISZERO MUL OR SWAP1 SSTORE POP PUSH1 0x8 PUSH1 0xA DUP4 DUP2 SLOAD DUP2 LT PUSH2 0x3F8 JUMPI PUSH2 0x3F8 PUSH2 0x21F2 JUMP JUMPDEST SWAP1 PUSH1 0x0 MSTORE PUSH1 0x20 PUSH1 0x0 KECCAK256 SWAP1 PUSH1 0x3 MUL ADD PUSH1 0x1 ADD PUSH1 0x40 MLOAD PUSH2 0x416 SWAP2 SWAP1 PUSH2 0x1F35 JUMP JUMPDEST SWAP1 DUP2 MSTORE PUSH1 0x20 ADD PUSH1 0x40 MLOAD DUP1 SWAP2 SUB SWAP1 KECCAK256 PUSH1 0x2 ADD SLOAD PUSH1 0x4 PUSH1 0x0 PUSH1 0xA DUP6 DUP2 SLOAD DUP2 LT PUSH2 0x43F JUMPI PUSH2 0x43F PUSH2 0x21F2 JUMP JUMPDEST PUSH1 0x0 SWAP2 DUP3 MSTORE PUSH1 0x20 DUP1 DUP4 KECCAK256 PUSH1 0x3 SWAP1 SWAP3 MUL SWAP1 SWAP2 ADD SLOAD PUSH1 0x1 PUSH1 0x1 PUSH1 0xA0 SHL SUB AND DUP4 MSTORE DUP3 ADD SWAP3 SWAP1 SWAP3 MSTORE PUSH1 0x40 ADD SWAP1 KECCAK256 PUSH1 0x2 ADD SLOAD PUSH2 0x476 SWAP2 SWAP1 PUSH2 0x2143 JUMP JUMPDEST PUSH1 0x4 PUSH1 0x0 PUSH1 0xA DUP6 DUP2 SLOAD DUP2 LT PUSH2 0x48D JUMPI PUSH2 0x48D PUSH2 0x21F2 JUMP JUMPDEST PUSH1 0x0 SWAP2 DUP3 MSTORE PUSH1 0x20 DUP1 DUP4 KECCAK256 PUSH1 0x3 SWAP1 SWAP3 MUL SWAP1 SWAP2 ADD SLOAD PUSH1 0x1 PUSH1 0x1 PUSH1 0xA0 SHL SUB AND DUP4 MSTORE DUP3 ADD SWAP3 SWAP1 SWAP3 MSTORE PUSH1 0x40 ADD SWAP1 KECCAK256 PUSH1 0x2 ADD SSTORE PUSH1 0xA DUP1 SLOAD PUSH1 0x8 SWAP2 SWAP1 DUP5 SWAP1 DUP2 LT PUSH2 0x4D2 JUMPI PUSH2 0x4D2 PUSH2 0x21F2 JUMP JUMPDEST SWAP1 PUSH1 0x0 MSTORE PUSH1 0x20 PUSH1 0x0 KECCAK256 SWAP1 PUSH1 0x3 MUL ADD PUSH1 0x1 ADD PUSH1 0x40 MLOAD PUSH2 0x4F0 SWAP2 SWAP1 PUSH2 0x1F35 JUMP JUMPDEST SWAP1 DUP2 MSTORE PUSH1 0x40 DUP1 MLOAD PUSH1 0x20 SWAP3 DUP2 SWAP1 SUB DUP4 ADD SWAP1 KECCAK256 PUSH1 0x2 ADD SLOAD CALLER PUSH1 0x0 SWAP1 DUP2 MSTORE SWAP3 DUP4 SWAP1 MSTORE SWAP2 KECCAK256 PUSH1 0x4 ADD SLOAD PUSH2 0x51F SWAP2 SWAP1 PUSH2 0x2109 JUMP JUMPDEST CALLER PUSH1 0x0 SWAP1 DUP2 MSTORE PUSH1 0x20 DUP2 SWAP1 MSTORE PUSH1 0x40 SWAP1 KECCAK256 PUSH1 0x4 ADD SSTORE POP POP JUMP JUMPDEST PUSH1 0x0 PUSH1 0xA DUP4 DUP2 SLOAD DUP2 LT PUSH2 0x54B JUMPI PUSH2 0x54B PUSH2 0x21F2 JUMP JUMPDEST PUSH1 0x0 SWAP2 DUP3 MSTORE PUSH1 0x20 SWAP1 SWAP2 KECCAK256 PUSH1 0x3 SWAP1 SWAP2 MUL ADD PUSH1 0x2 ADD DUP1 SLOAD PUSH1 0xFF NOT AND SWAP2 ISZERO ISZERO SWAP2 SWAP1 SWAP2 OR SWAP1 SSTORE POP POP JUMP JUMPDEST PUSH20 0x9C35A9BDF790A5CE09B353B1C765269AB466BAAD CALLER EQ PUSH2 0x5D9 JUMPI PUSH1 0x40 MLOAD PUSH3 0x461BCD PUSH1 0xE5 SHL DUP2 MSTORE PUSH1 0x20 PUSH1 0x4 DUP3 ADD MSTORE PUSH1 0x1D PUSH1 0x24 DUP3 ADD MSTORE PUSH32 0x4572726F723A20596F75206E6F742061207A65726F206163636F756E74000000 PUSH1 0x44 DUP3 ADD MSTORE PUSH1 0x64 ADD JUMPDEST PUSH1 0x40 MLOAD DUP1 SWAP2 SUB SWAP1 REVERT JUMPDEST PUSH1 0x0 PUSH1 0x1 PUSH1 0x1 PUSH1 0xA0 SHL SUB AND PUSH1 0x5 DUP4 PUSH1 0x40 MLOAD PUSH2 0x5F4 SWAP2 SWAP1 PUSH2 0x1F19 JUMP JUMPDEST SWAP1 DUP2 MSTORE PUSH1 0x40 MLOAD SWAP1 DUP2 SWAP1 SUB PUSH1 0x20 ADD SWAP1 KECCAK256 SLOAD PUSH1 0x1 PUSH1 0x1 PUSH1 0xA0 SHL SUB AND EQ PUSH2 0x656 JUMPI PUSH1 0x40 MLOAD PUSH3 0x461BCD PUSH1 0xE5 SHL DUP2 MSTORE PUSH1 0x20 PUSH1 0x4 DUP3 ADD MSTORE PUSH1 0x19 PUSH1 0x24 DUP3 ADD MSTORE PUSH25 0x115C9C9BDC8E88155CD95C88185B1C9958591E48195E1A5CDD PUSH1 0x3A SHL PUSH1 0x44 DUP3 ADD MSTORE PUSH1 0x64 ADD PUSH2 0x5D0 JUMP JUMPDEST PUSH1 0x40 DUP1 MLOAD PUSH1 0xA0 DUP2 ADD DUP3 MSTORE DUP4 DUP2 MSTORE PUSH1 0x20 DUP1 DUP3 ADD DUP5 SWAP1 MSTORE PUSH2 0x3E8 DUP3 DUP5 ADD MSTORE PUSH1 0x0 PUSH1 0x60 DUP4 ADD DUP2 SWAP1 MSTORE PUSH1 0x80 DUP4 ADD DUP2 SWAP1 MSTORE PUSH1 0x1 PUSH1 0x1 PUSH1 0xA0 SHL SUB DUP8 AND DUP2 MSTORE PUSH1 0x4 DUP3 MSTORE SWAP3 SWAP1 SWAP3 KECCAK256 DUP2 MLOAD DUP1 MLOAD SWAP3 SWAP4 SWAP2 SWAP3 PUSH2 0x6AB SWAP3 DUP5 SWAP3 ADD SWAP1 PUSH2 0x1A28 JUMP JUMPDEST POP PUSH1 0x20 DUP3 ADD MLOAD PUSH1 0x1 DUP3 ADD SSTORE PUSH1 0x40 DUP1 DUP4 ADD MLOAD PUSH1 0x2 DUP4 ADD SSTORE PUSH1 0x60 DUP4 ADD MLOAD PUSH1 0x3 DUP4 ADD SSTORE PUSH1 0x80 SWAP1 SWAP3 ADD MLOAD PUSH1 0x4 SWAP1 SWAP2 ADD DUP1 SLOAD PUSH1 0xFF NOT AND SWAP2 ISZERO ISZERO SWAP2 SWAP1 SWAP2 OR SWAP1 SSTORE MLOAD DUP4 SWAP1 PUSH1 0x5 SWAP1 PUSH2 0x6F6 SWAP1 DUP6 SWAP1 PUSH2 0x1F19 JUMP JUMPDEST SWAP1 DUP2 MSTORE PUSH1 0x40 MLOAD SWAP1 DUP2 SWAP1 SUB PUSH1 0x20 ADD SWAP1 KECCAK256 DUP1 SLOAD PUSH1 0x1 PUSH1 0x1 PUSH1 0xA0 SHL SUB SWAP3 DUP4 AND PUSH1 0x1 PUSH1 0x1 PUSH1 0xA0 SHL SUB NOT SWAP2 DUP3 AND OR SWAP1 SWAP2 SSTORE PUSH1 0x7 DUP1 SLOAD PUSH1 0x1 DUP2 ADD DUP3 SSTORE PUSH1 0x0 SWAP2 SWAP1 SWAP2 MSTORE PUSH32 0xA66CC928B5EDB82AF9BD49922954155AB7B0942694BEA4CE44661D9A8736C688 ADD DUP1 SLOAD SWAP6 SWAP1 SWAP3 AND SWAP5 AND SWAP4 SWAP1 SWAP4 OR SWAP1 SWAP3 SSTORE POP POP JUMP JUMPDEST PUSH1 0x8 DUP2 PUSH1 0x40 MLOAD PUSH2 0x777 SWAP2 SWAP1 PUSH2 0x1F19 JUMP JUMPDEST SWAP1 DUP2 MSTORE PUSH1 0x20 ADD PUSH1 0x40 MLOAD DUP1 SWAP2 SUB SWAP1 KECCAK256 PUSH1 0x2 ADD SLOAD PUSH1 0x4 PUSH1 0x0 CALLER PUSH1 0x1 PUSH1 0x1 PUSH1 0xA0 SHL SUB AND PUSH1 0x1 PUSH1 0x1 PUSH1 0xA0 SHL SUB AND DUP2 MSTORE PUSH1 0x20 ADD SWAP1 DUP2 MSTORE PUSH1 0x20 ADD PUSH1 0x0 KECCAK256 PUSH1 0x2 ADD SLOAD LT ISZERO PUSH2 0x7F3 JUMPI PUSH1 0x40 MLOAD PUSH3 0x461BCD PUSH1 0xE5 SHL DUP2 MSTORE PUSH1 0x20 PUSH1 0x4 DUP3 ADD MSTORE PUSH1 0x10 PUSH1 0x24 DUP3 ADD MSTORE PUSH16 0x6572726F723A206E6F74206D6F6E6579 PUSH1 0x80 SHL PUSH1 0x44 DUP3 ADD MSTORE PUSH1 0x64 ADD PUSH2 0x5D0 JUMP JUMPDEST PUSH1 0x40 DUP1 MLOAD PUSH1 0x60 DUP2 ADD DUP3 MSTORE CALLER DUP2 MSTORE PUSH1 0x20 DUP1 DUP3 ADD DUP5 DUP2 MSTORE PUSH1 0x1 SWAP4 DUP4 ADD DUP5 SWAP1 MSTORE PUSH1 0xA DUP1 SLOAD SWAP5 DUP6 ADD DUP2 SSTORE PUSH1 0x0 MSTORE DUP3 MLOAD PUSH32 0xC65A7BB8D6351C1CF70C95A316CC6A92839C986682D98BC35F958F4883F9D2A8 PUSH1 0x3 SWAP1 SWAP6 MUL SWAP5 DUP6 ADD DUP1 SLOAD PUSH1 0x1 PUSH1 0x1 PUSH1 0xA0 SHL SUB NOT AND PUSH1 0x1 PUSH1 0x1 PUSH1 0xA0 SHL SUB SWAP1 SWAP3 AND SWAP2 SWAP1 SWAP2 OR DUP2 SSTORE SWAP1 MLOAD DUP1 MLOAD SWAP4 SWAP5 SWAP2 SWAP4 PUSH2 0x89F SWAP4 PUSH32 0xC65A7BB8D6351C1CF70C95A316CC6A92839C986682D98BC35F958F4883F9D2A9 SWAP1 SWAP4 ADD SWAP3 SWAP2 SWAP1 SWAP2 ADD SWAP1 PUSH2 0x1A28 JUMP JUMPDEST POP PUSH1 0x40 SWAP2 SWAP1 SWAP2 ADD MLOAD PUSH1 0x2 SWAP1 SWAP2 ADD DUP1 SLOAD PUSH1 0xFF NOT AND SWAP2 ISZERO ISZERO SWAP2 SWAP1 SWAP2 OR SWAP1 SSTORE POP JUMP JUMPDEST PUSH1 0x0 JUMPDEST PUSH1 0x3 SLOAD DUP2 LT ISZERO PUSH2 0xA1D JUMPI PUSH1 0x0 PUSH1 0x3 DUP3 DUP2 SLOAD DUP2 LT PUSH2 0x8E0 JUMPI PUSH2 0x8E0 PUSH2 0x21F2 JUMP JUMPDEST SWAP1 PUSH1 0x0 MSTORE PUSH1 0x20 PUSH1 0x0 KECCAK256 SWAP1 PUSH1 0x5 MUL ADD PUSH1 0x1 ADD DUP1 SLOAD PUSH2 0x8FC SWAP1 PUSH2 0x2186 JUMP JUMPDEST DUP1 PUSH1 0x1F ADD PUSH1 0x20 DUP1 SWAP2 DIV MUL PUSH1 0x20 ADD PUSH1 0x40 MLOAD SWAP1 DUP2 ADD PUSH1 0x40 MSTORE DUP1 SWAP3 SWAP2 SWAP1 DUP2 DUP2 MSTORE PUSH1 0x20 ADD DUP3 DUP1 SLOAD PUSH2 0x928 SWAP1 PUSH2 0x2186 JUMP JUMPDEST DUP1 ISZERO PUSH2 0x975 JUMPI DUP1 PUSH1 0x1F LT PUSH2 0x94A JUMPI PUSH2 0x100 DUP1 DUP4 SLOAD DIV MUL DUP4 MSTORE SWAP2 PUSH1 0x20 ADD SWAP2 PUSH2 0x975 JUMP JUMPDEST DUP3 ADD SWAP2 SWAP1 PUSH1 0x0 MSTORE PUSH1 0x20 PUSH1 0x0 KECCAK256 SWAP1 JUMPDEST DUP2 SLOAD DUP2 MSTORE SWAP1 PUSH1 0x1 ADD SWAP1 PUSH1 0x20 ADD DUP1 DUP4 GT PUSH2 0x958 JUMPI DUP3 SWAP1 SUB PUSH1 0x1F AND DUP3 ADD SWAP2 JUMPDEST POP POP POP POP POP SWAP1 POP DUP4 PUSH1 0x40 MLOAD PUSH1 0x20 ADD PUSH2 0x98D SWAP2 SWAP1 PUSH2 0x1F19 JUMP JUMPDEST PUSH1 0x40 MLOAD PUSH1 0x20 DUP2 DUP4 SUB SUB DUP2 MSTORE SWAP1 PUSH1 0x40 MSTORE DUP1 MLOAD SWAP1 PUSH1 0x20 ADD KECCAK256 DUP2 PUSH1 0x40 MLOAD PUSH1 0x20 ADD PUSH2 0x9B4 SWAP2 SWAP1 PUSH2 0x1F19 JUMP JUMPDEST PUSH1 0x40 MLOAD PUSH1 0x20 DUP2 DUP4 SUB SUB DUP2 MSTORE SWAP1 PUSH1 0x40 MSTORE DUP1 MLOAD SWAP1 PUSH1 0x20 ADD KECCAK256 EQ ISZERO PUSH2 0xA0A JUMPI DUP3 PUSH1 0x3 DUP4 DUP2 SLOAD DUP2 LT PUSH2 0x9E4 JUMPI PUSH2 0x9E4 PUSH2 0x21F2 JUMP JUMPDEST SWAP1 PUSH1 0x0 MSTORE PUSH1 0x20 PUSH1 0x0 KECCAK256 SWAP1 PUSH1 0x5 MUL ADD PUSH1 0x4 ADD SWAP1 DUP1 MLOAD SWAP1 PUSH1 0x20 ADD SWAP1 PUSH2 0xA08 SWAP3 SWAP2 SWAP1 PUSH2 0x1AAC JUMP JUMPDEST POP JUMPDEST POP DUP1 PUSH2 0xA15 DUP2 PUSH2 0x21C1 JUMP JUMPDEST SWAP2 POP POP PUSH2 0x8C1 JUMP JUMPDEST POP POP POP JUMP JUMPDEST PUSH1 0x1 DUP2 ISZERO ISZERO EQ ISZERO PUSH2 0xB45 JUMPI PUSH1 0x0 PUSH1 0xB DUP4 DUP2 SLOAD DUP2 LT PUSH2 0xA42 JUMPI PUSH2 0xA42 PUSH2 0x21F2 JUMP JUMPDEST SWAP1 PUSH1 0x0 MSTORE PUSH1 0x20 PUSH1 0x0 KECCAK256 SWAP1 PUSH1 0x3 MUL ADD PUSH1 0x2 ADD PUSH1 0x0 PUSH2 0x100 EXP DUP2 SLOAD DUP2 PUSH1 0xFF MUL NOT AND SWAP1 DUP4 ISZERO ISZERO MUL OR SWAP1 SSTORE POP PUSH1 0x8 PUSH1 0xB DUP4 DUP2 SLOAD DUP2 LT PUSH2 0xA7F JUMPI PUSH2 0xA7F PUSH2 0x21F2 JUMP JUMPDEST SWAP1 PUSH1 0x0 MSTORE PUSH1 0x20 PUSH1 0x0 KECCAK256 SWAP1 PUSH1 0x3 MUL ADD PUSH1 0x1 ADD PUSH1 0x40 MLOAD PUSH2 0xA9D SWAP2 SWAP1 PUSH2 0x1F35 JUMP JUMPDEST SWAP1 DUP2 MSTORE PUSH1 0x20 ADD PUSH1 0x40 MLOAD DUP1 SWAP2 SUB SWAP1 KECCAK256 PUSH1 0x2 ADD SLOAD PUSH1 0x4 PUSH1 0x0 PUSH1 0xB DUP6 DUP2 SLOAD DUP2 LT PUSH2 0xAC6 JUMPI PUSH2 0xAC6 PUSH2 0x21F2 JUMP JUMPDEST PUSH1 0x0 SWAP2 DUP3 MSTORE PUSH1 0x20 DUP1 DUP4 KECCAK256 PUSH1 0x3 SWAP1 SWAP3 MUL SWAP1 SWAP2 ADD SLOAD PUSH1 0x1 PUSH1 0x1 PUSH1 0xA0 SHL SUB AND DUP4 MSTORE DUP3 ADD SWAP3 SWAP1 SWAP3 MSTORE PUSH1 0x40 ADD SWAP1 KECCAK256 PUSH1 0x2 ADD SLOAD PUSH2 0xAFD SWAP2 SWAP1 PUSH2 0x2109 JUMP JUMPDEST PUSH1 0x4 PUSH1 0x0 PUSH1 0xB DUP6 DUP2 SLOAD DUP2 LT PUSH2 0xB14 JUMPI PUSH2 0xB14 PUSH2 0x21F2 JUMP JUMPDEST PUSH1 0x0 SWAP2 DUP3 MSTORE PUSH1 0x20 DUP1 DUP4 KECCAK256 PUSH1 0x3 SWAP1 SWAP3 MUL SWAP1 SWAP2 ADD SLOAD PUSH1 0x1 PUSH1 0x1 PUSH1 0xA0 SHL SUB AND DUP4 MSTORE DUP3 ADD SWAP3 SWAP1 SWAP3 MSTORE PUSH1 0x40 ADD SWAP1 KECCAK256 PUSH1 0x2 ADD SSTORE POP POP JUMP JUMPDEST PUSH1 0x0 PUSH1 0xB DUP4 DUP2 SLOAD DUP2 LT PUSH2 0x54B JUMPI PUSH2 0x54B PUSH2 0x21F2 JUMP JUMPDEST PUSH1 0x40 DUP1 MLOAD PUSH1 0x60 DUP2 ADD DUP3 MSTORE CALLER DUP2 MSTORE PUSH1 0x20 DUP1 DUP3 ADD DUP5 DUP2 MSTORE PUSH1 0x1 SWAP4 DUP4 ADD DUP5 SWAP1 MSTORE PUSH1 0xC DUP1 SLOAD SWAP5 DUP6 ADD DUP2 SSTORE PUSH1 0x0 MSTORE DUP3 MLOAD PUSH32 0xDF6966C971051C3D54EC59162606531493A51404A002842F56009D7E5CF4A8C7 PUSH1 0x3 SWAP1 SWAP6 MUL SWAP5 DUP6 ADD DUP1 SLOAD PUSH1 0x1 PUSH1 0x1 PUSH1 0xA0 SHL SUB NOT AND PUSH1 0x1 PUSH1 0x1 PUSH1 0xA0 SHL SUB SWAP1 SWAP3 AND SWAP2 SWAP1 SWAP2 OR DUP2 SSTORE SWAP1 MLOAD DUP1 MLOAD SWAP4 SWAP5 SWAP2 SWAP4 PUSH2 0x89F SWAP4 PUSH32 0xDF6966C971051C3D54EC59162606531493A51404A002842F56009D7E5CF4A8C8 SWAP1 SWAP4 ADD SWAP3 SWAP2 SWAP1 SWAP2 ADD SWAP1 PUSH2 0x1A28 JUMP JUMPDEST PUSH1 0x60 PUSH1 0x9 DUP1 SLOAD DUP1 PUSH1 0x20 MUL PUSH1 0x20 ADD PUSH1 0x40 MLOAD SWAP1 DUP2 ADD PUSH1 0x40 MSTORE DUP1 SWAP3 SWAP2 SWAP1 DUP2 DUP2 MSTORE PUSH1 0x20 ADD PUSH1 0x0 SWAP1 JUMPDEST DUP3 DUP3 LT ISZERO PUSH2 0xCD6 JUMPI DUP4 DUP3 SWAP1 PUSH1 0x0 MSTORE PUSH1 0x20 PUSH1 0x0 KECCAK256 ADD DUP1 SLOAD PUSH2 0xC49 SWAP1 PUSH2 0x2186 JUMP JUMPDEST DUP1 PUSH1 0x1F ADD PUSH1 0x20 DUP1 SWAP2 DIV MUL PUSH1 0x20 ADD PUSH1 0x40 MLOAD SWAP1 DUP2 ADD PUSH1 0x40 MSTORE DUP1 SWAP3 SWAP2 SWAP1 DUP2 DUP2 MSTORE PUSH1 0x20 ADD DUP3 DUP1 SLOAD PUSH2 0xC75 SWAP1 PUSH2 0x2186 JUMP JUMPDEST DUP1 ISZERO PUSH2 0xCC2 JUMPI DUP1 PUSH1 0x1F LT PUSH2 0xC97 JUMPI PUSH2 0x100 DUP1 DUP4 SLOAD DIV MUL DUP4 MSTORE SWAP2 PUSH1 0x20 ADD SWAP2 PUSH2 0xCC2 JUMP JUMPDEST DUP3 ADD SWAP2 SWAP1 PUSH1 0x0 MSTORE PUSH1 0x20 PUSH1 0x0 KECCAK256 SWAP1 JUMPDEST DUP2 SLOAD DUP2 MSTORE SWAP1 PUSH1 0x1 ADD SWAP1 PUSH1 0x20 ADD DUP1 DUP4 GT PUSH2 0xCA5 JUMPI DUP3 SWAP1 SUB PUSH1 0x1F AND DUP3 ADD SWAP2 JUMPDEST POP POP POP POP POP DUP2 MSTORE PUSH1 0x20 ADD SWAP1 PUSH1 0x1 ADD SWAP1 PUSH2 0xC2A JUMP JUMPDEST POP POP POP POP SWAP1 POP SWAP1 JUMP JUMPDEST PUSH1 0x0 PUSH1 0x5 DUP3 PUSH1 0x40 MLOAD PUSH2 0xCF1 SWAP2 SWAP1 PUSH2 0x1F19 JUMP JUMPDEST SWAP1 DUP2 MSTORE PUSH1 0x40 MLOAD SWAP1 DUP2 SWAP1 SUB PUSH1 0x20 ADD SWAP1 KECCAK256 SLOAD PUSH1 0x1 PUSH1 0x1 PUSH1 0xA0 SHL SUB AND SWAP3 SWAP2 POP POP JUMP JUMPDEST PUSH1 0x40 MLOAD DUP1 PUSH1 0x80 ADD PUSH1 0x40 MSTORE DUP1 CALLER PUSH1 0x1 PUSH1 0x1 PUSH1 0xA0 SHL SUB AND DUP2 MSTORE PUSH1 0x20 ADD DUP3 DUP2 MSTORE PUSH1 0x20 ADD DUP4 DUP2 MSTORE PUSH1 0x20 ADD PUSH1 0xD SLOAD DUP2 MSTORE POP PUSH1 0x8 DUP5 PUSH1 0x40 MLOAD PUSH2 0xD4C SWAP2 SWAP1 PUSH2 0x1F19 JUMP JUMPDEST SWAP1 DUP2 MSTORE PUSH1 0x40 MLOAD PUSH1 0x20 SWAP2 DUP2 SWAP1 SUB DUP3 ADD SWAP1 KECCAK256 DUP3 MLOAD DUP2 SLOAD PUSH1 0x1 PUSH1 0x1 PUSH1 0xA0 SHL SUB NOT AND PUSH1 0x1 PUSH1 0x1 PUSH1 0xA0 SHL SUB SWAP1 SWAP2 AND OR DUP2 SSTORE DUP3 DUP3 ADD MLOAD DUP1 MLOAD SWAP2 SWAP3 PUSH2 0xD92 SWAP3 PUSH1 0x1 DUP6 ADD SWAP3 SWAP1 SWAP2 ADD SWAP1 PUSH2 0x1A28 JUMP JUMPDEST POP PUSH1 0x40 DUP3 ADD MLOAD PUSH1 0x2 DUP3 ADD SSTORE PUSH1 0x60 SWAP1 SWAP2 ADD MLOAD PUSH1 0x3 SWAP1 SWAP2 ADD SSTORE PUSH1 0x9 DUP1 SLOAD PUSH1 0x1 DUP2 ADD DUP3 SSTORE PUSH1 0x0 SWAP2 SWAP1 SWAP2 MSTORE DUP4 MLOAD PUSH2 0xDEC SWAP2 PUSH32 0x6E1540171B6C0C960B71A7020D9F60077F6AF931A8BBF590DA0223DACF75C7AF ADD SWAP1 PUSH1 0x20 DUP7 ADD SWAP1 PUSH2 0x1A28 JUMP JUMPDEST POP PUSH1 0xD DUP1 SLOAD SWAP1 PUSH1 0x0 PUSH2 0xDFD DUP4 PUSH2 0x21C1 JUMP JUMPDEST SWAP2 SWAP1 POP SSTORE POP POP POP POP JUMP JUMPDEST PUSH1 0xC DUP2 DUP2 SLOAD DUP2 LT PUSH2 0xE17 JUMPI PUSH1 0x0 DUP1 REVERT JUMPDEST PUSH1 0x0 SWAP2 DUP3 MSTORE PUSH1 0x20 SWAP1 SWAP2 KECCAK256 PUSH1 0x3 SWAP1 SWAP2 MUL ADD DUP1 SLOAD PUSH1 0x1 DUP3 ADD DUP1 SLOAD PUSH1 0x1 PUSH1 0x1 PUSH1 0xA0 SHL SUB SWAP1 SWAP3 AND SWAP4 POP SWAP1 PUSH2 0xE46 SWAP1 PUSH2 0x2186 JUMP JUMPDEST DUP1 PUSH1 0x1F ADD PUSH1 0x20 DUP1 SWAP2 DIV MUL PUSH1 0x20 ADD PUSH1 0x40 MLOAD SWAP1 DUP2 ADD PUSH1 0x40 MSTORE DUP1 SWAP3 SWAP2 SWAP1 DUP2 DUP2 MSTORE PUSH1 0x20 ADD DUP3 DUP1 SLOAD PUSH2 0xE72 SWAP1 PUSH2 0x2186 JUMP JUMPDEST DUP1 ISZERO PUSH2 0xEBF JUMPI DUP1 PUSH1 0x1F LT PUSH2 0xE94 JUMPI PUSH2 0x100 DUP1 DUP4 SLOAD DIV MUL DUP4 MSTORE SWAP2 PUSH1 0x20 ADD SWAP2 PUSH2 0xEBF JUMP JUMPDEST DUP3 ADD SWAP2 SWAP1 PUSH1 0x0 MSTORE PUSH1 0x20 PUSH1 0x0 KECCAK256 SWAP1 JUMPDEST DUP2 SLOAD DUP2 MSTORE SWAP1 PUSH1 0x1 ADD SWAP1 PUSH1 0x20 ADD DUP1 DUP4 GT PUSH2 0xEA2 JUMPI DUP3 SWAP1 SUB PUSH1 0x1F AND DUP3 ADD SWAP2 JUMPDEST POP POP POP PUSH1 0x2 SWAP1 SWAP4 ADD SLOAD SWAP2 SWAP3 POP POP PUSH1 0xFF AND DUP4 JUMP JUMPDEST PUSH1 0x0 DUP2 PUSH1 0x40 MLOAD PUSH1 0x20 ADD PUSH2 0xEE5 SWAP2 SWAP1 PUSH2 0x1F19 JUMP JUMPDEST PUSH1 0x40 MLOAD PUSH1 0x20 DUP2 DUP4 SUB SUB DUP2 MSTORE SWAP1 PUSH1 0x40 MSTORE DUP1 MLOAD SWAP1 PUSH1 0x20 ADD KECCAK256 SWAP1 POP SWAP2 SWAP1 POP JUMP JUMPDEST PUSH1 0x4 PUSH1 0x20 MSTORE PUSH1 0x0 SWAP1 DUP2 MSTORE PUSH1 0x40 SWAP1 KECCAK256 DUP1 SLOAD DUP2 SWAP1 PUSH2 0xF1D SWAP1 PUSH2 0x2186 JUMP JUMPDEST DUP1 PUSH1 0x1F ADD PUSH1 0x20 DUP1 SWAP2 DIV MUL PUSH1 0x20 ADD PUSH1 0x40 MLOAD SWAP1 DUP2 ADD PUSH1 0x40 MSTORE DUP1 SWAP3 SWAP2 SWAP1 DUP2 DUP2 MSTORE PUSH1 0x20 ADD DUP3 DUP1 SLOAD PUSH2 0xF49 SWAP1 PUSH2 0x2186 JUMP JUMPDEST DUP1 ISZERO PUSH2 0xF96 JUMPI DUP1 PUSH1 0x1F LT PUSH2 0xF6B JUMPI PUSH2 0x100 DUP1 DUP4 SLOAD DIV MUL DUP4 MSTORE SWAP2 PUSH1 0x20 ADD SWAP2 PUSH2 0xF96 JUMP JUMPDEST DUP3 ADD SWAP2 SWAP1 PUSH1 0x0 MSTORE PUSH1 0x20 PUSH1 0x0 KECCAK256 SWAP1 JUMPDEST DUP2 SLOAD DUP2 MSTORE SWAP1 PUSH1 0x1 ADD SWAP1 PUSH1 0x20 ADD DUP1 DUP4 GT PUSH2 0xF79 JUMPI DUP3 SWAP1 SUB PUSH1 0x1F AND DUP3 ADD SWAP2 JUMPDEST POP POP POP POP PUSH1 0x1 DUP4 ADD SLOAD PUSH1 0x2 DUP5 ADD SLOAD PUSH1 0x3 DUP6 ADD SLOAD PUSH1 0x4 SWAP1 SWAP6 ADD SLOAD SWAP4 SWAP5 SWAP2 SWAP4 SWAP1 SWAP3 POP PUSH1 0xFF AND DUP6 JUMP JUMPDEST PUSH1 0x0 DUP1 DUP1 DUP1 JUMPDEST PUSH1 0x2 SLOAD DUP2 LT ISZERO PUSH2 0x11A7 JUMPI PUSH1 0x0 PUSH1 0x2 DUP3 DUP2 SLOAD DUP2 LT PUSH2 0xFE1 JUMPI PUSH2 0xFE1 PUSH2 0x21F2 JUMP JUMPDEST SWAP1 PUSH1 0x0 MSTORE PUSH1 0x20 PUSH1 0x0 KECCAK256 ADD DUP1 SLOAD PUSH2 0xFF6 SWAP1 PUSH2 0x2186 JUMP JUMPDEST DUP1 PUSH1 0x1F ADD PUSH1 0x20 DUP1 SWAP2 DIV MUL PUSH1 0x20 ADD PUSH1 0x40 MLOAD SWAP1 DUP2 ADD PUSH1 0x40 MSTORE DUP1 SWAP3 SWAP2 SWAP1 DUP2 DUP2 MSTORE PUSH1 0x20 ADD DUP3 DUP1 SLOAD PUSH2 0x1022 SWAP1 PUSH2 0x2186 JUMP JUMPDEST DUP1 ISZERO PUSH2 0x106F JUMPI DUP1 PUSH1 0x1F LT PUSH2 0x1044 JUMPI PUSH2 0x100 DUP1 DUP4 SLOAD DIV MUL DUP4 MSTORE SWAP2 PUSH1 0x20 ADD SWAP2 PUSH2 0x106F JUMP JUMPDEST DUP3 ADD SWAP2 SWAP1 PUSH1 0x0 MSTORE PUSH1 0x20 PUSH1 0x0 KECCAK256 SWAP1 JUMPDEST DUP2 SLOAD DUP2 MSTORE SWAP1 PUSH1 0x1 ADD SWAP1 PUSH1 0x20 ADD DUP1 DUP4 GT PUSH2 0x1052 JUMPI DUP3 SWAP1 SUB PUSH1 0x1F AND DUP3 ADD SWAP2 JUMPDEST POP POP POP POP POP SWAP1 POP DUP6 PUSH1 0x40 MLOAD PUSH1 0x20 ADD PUSH2 0x1087 SWAP2 SWAP1 PUSH2 0x1F19 JUMP JUMPDEST PUSH1 0x40 MLOAD PUSH1 0x20 DUP2 DUP4 SUB SUB DUP2 MSTORE SWAP1 PUSH1 0x40 MSTORE DUP1 MLOAD SWAP1 PUSH1 0x20 ADD KECCAK256 DUP2 PUSH1 0x40 MLOAD PUSH1 0x20 ADD PUSH2 0x10AE SWAP2 SWAP1 PUSH2 0x1F19 JUMP JUMPDEST PUSH1 0x40 MLOAD PUSH1 0x20 DUP2 DUP4 SUB SUB DUP2 MSTORE SWAP1 PUSH1 0x40 MSTORE DUP1 MLOAD SWAP1 PUSH1 0x20 ADD KECCAK256 EQ ISZERO PUSH2 0x1194 JUMPI PUSH1 0x0 SWAP2 POP JUMPDEST PUSH1 0x3 SLOAD DUP3 GT PUSH2 0x1194 JUMPI PUSH1 0x3 DUP3 DUP2 SLOAD DUP2 LT PUSH2 0x10EB JUMPI PUSH2 0x10EB PUSH2 0x21F2 JUMP JUMPDEST SWAP1 PUSH1 0x0 MSTORE PUSH1 0x20 PUSH1 0x0 KECCAK256 SWAP1 PUSH1 0x5 MUL ADD PUSH1 0x0 ADD PUSH1 0x40 MLOAD PUSH1 0x20 ADD PUSH2 0x110C SWAP2 SWAP1 PUSH2 0x1F35 JUMP JUMPDEST PUSH1 0x40 MLOAD PUSH1 0x20 DUP2 DUP4 SUB SUB DUP2 MSTORE SWAP1 PUSH1 0x40 MSTORE DUP1 MLOAD SWAP1 PUSH1 0x20 ADD KECCAK256 DUP7 PUSH1 0x40 MLOAD PUSH1 0x20 ADD PUSH2 0x1133 SWAP2 SWAP1 PUSH2 0x1F19 JUMP JUMPDEST PUSH1 0x40 MLOAD PUSH1 0x20 DUP2 DUP4 SUB SUB DUP2 MSTORE SWAP1 PUSH1 0x40 MSTORE DUP1 MLOAD SWAP1 PUSH1 0x20 ADD KECCAK256 EQ ISZERO PUSH2 0x1182 JUMPI PUSH1 0x3 DUP3 DUP2 SLOAD DUP2 LT PUSH2 0x1162 JUMPI PUSH2 0x1162 PUSH2 0x21F2 JUMP JUMPDEST SWAP1 PUSH1 0x0 MSTORE PUSH1 0x20 PUSH1 0x0 KECCAK256 SWAP1 PUSH1 0x5 MUL ADD PUSH1 0x3 ADD SLOAD DUP4 PUSH2 0x117F SWAP2 SWAP1 PUSH2 0x2109 JUMP JUMPDEST SWAP3 POP JUMPDEST DUP2 PUSH2 0x118C DUP2 PUSH2 0x21C1 JUMP JUMPDEST SWAP3 POP POP PUSH2 0x10CF JUMP JUMPDEST POP DUP1 PUSH2 0x119F DUP2 PUSH2 0x21C1 JUMP JUMPDEST SWAP2 POP POP PUSH2 0xFC2 JUMP JUMPDEST POP PUSH2 0x11B2 DUP3 DUP3 PUSH2 0x2121 JUMP JUMPDEST PUSH2 0x11BC SWAP1 DUP3 PUSH2 0x2109 JUMP JUMPDEST SWAP5 SWAP4 POP POP POP POP JUMP JUMPDEST PUSH1 0xB DUP2 DUP2 SLOAD DUP2 LT PUSH2 0xE17 JUMPI PUSH1 0x0 DUP1 REVERT JUMPDEST PUSH1 0x40 DUP1 MLOAD PUSH1 0x60 DUP2 ADD DUP3 MSTORE CALLER DUP2 MSTORE PUSH1 0x20 DUP1 DUP3 ADD DUP5 DUP2 MSTORE PUSH1 0x1 SWAP4 DUP4 ADD DUP5 SWAP1 MSTORE PUSH1 0xB DUP1 SLOAD SWAP5 DUP6 ADD DUP2 SSTORE PUSH1 0x0 MSTORE DUP3 MLOAD PUSH32 0x175B7A638427703F0DBE7BB9BBF987A2551717B34E79F33B5B1008D1FA01DB9 PUSH1 0x3 SWAP1 SWAP6 MUL SWAP5 DUP6 ADD DUP1 SLOAD PUSH1 0x1 PUSH1 0x1 PUSH1 0xA0 SHL SUB NOT AND PUSH1 0x1 PUSH1 0x1 PUSH1 0xA0 SHL SUB SWAP1 SWAP3 AND SWAP2 SWAP1 SWAP2 OR DUP2 SSTORE SWAP1 MLOAD DUP1 MLOAD SWAP4 SWAP5 SWAP2 SWAP4 PUSH2 0x89F SWAP4 PUSH32 0x175B7A638427703F0DBE7BB9BBF987A2551717B34E79F33B5B1008D1FA01DBA SWAP1 SWAP4 ADD SWAP3 SWAP2 SWAP1 SWAP2 ADD SWAP1 PUSH2 0x1A28 JUMP JUMPDEST PUSH1 0x60 PUSH1 0x2 DUP1 SLOAD DUP1 PUSH1 0x20 MUL PUSH1 0x20 ADD PUSH1 0x40 MLOAD SWAP1 DUP2 ADD PUSH1 0x40 MSTORE DUP1 SWAP3 SWAP2 SWAP1 DUP2 DUP2 MSTORE PUSH1 0x20 ADD PUSH1 0x0 SWAP1 JUMPDEST DUP3 DUP3 LT ISZERO PUSH2 0xCD6 JUMPI DUP4 DUP3 SWAP1 PUSH1 0x0 MSTORE PUSH1 0x20 PUSH1 0x0 KECCAK256 ADD DUP1 SLOAD PUSH2 0x12C3 SWAP1 PUSH2 0x2186 JUMP JUMPDEST DUP1 PUSH1 0x1F ADD PUSH1 0x20 DUP1 SWAP2 DIV MUL PUSH1 0x20 ADD PUSH1 0x40 MLOAD SWAP1 DUP2 ADD PUSH1 0x40 MSTORE DUP1 SWAP3 SWAP2 SWAP1 DUP2 DUP2 MSTORE PUSH1 0x20 ADD DUP3 DUP1 SLOAD PUSH2 0x12EF SWAP1 PUSH2 0x2186 JUMP JUMPDEST DUP1 ISZERO PUSH2 0x133C JUMPI DUP1 PUSH1 0x1F LT PUSH2 0x1311 JUMPI PUSH2 0x100 DUP1 DUP4 SLOAD DIV MUL DUP4 MSTORE SWAP2 PUSH1 0x20 ADD SWAP2 PUSH2 0x133C JUMP JUMPDEST DUP3 ADD SWAP2 SWAP1 PUSH1 0x0 MSTORE PUSH1 0x20 PUSH1 0x0 KECCAK256 SWAP1 JUMPDEST DUP2 SLOAD DUP2 MSTORE SWAP1 PUSH1 0x1 ADD SWAP1 PUSH1 0x20 ADD DUP1 DUP4 GT PUSH2 0x131F JUMPI DUP3 SWAP1 SUB PUSH1 0x1F AND DUP3 ADD SWAP2 JUMPDEST POP POP POP POP POP DUP2 MSTORE PUSH1 0x20 ADD SWAP1 PUSH1 0x1 ADD SWAP1 PUSH2 0x12A4 JUMP JUMPDEST PUSH1 0x0 PUSH1 0x4 PUSH1 0x0 PUSH1 0x5 DUP5 PUSH1 0x40 MLOAD PUSH2 0x1366 SWAP2 SWAP1 PUSH2 0x1F19 JUMP JUMPDEST SWAP1 DUP2 MSTORE PUSH1 0x40 DUP1 MLOAD PUSH1 0x20 SWAP3 DUP2 SWAP1 SUB DUP4 ADD SWAP1 KECCAK256 SLOAD PUSH1 0x1 PUSH1 0x1 PUSH1 0xA0 SHL SUB AND DUP4 MSTORE SWAP1 DUP3 ADD SWAP3 SWAP1 SWAP3 MSTORE ADD PUSH1 0x0 KECCAK256 PUSH1 0x4 ADD SLOAD PUSH1 0xFF AND SWAP3 SWAP2 POP POP JUMP JUMPDEST PUSH1 0xA DUP2 GT ISZERO PUSH2 0x13F6 JUMPI PUSH1 0x40 MLOAD PUSH3 0x461BCD PUSH1 0xE5 SHL DUP2 MSTORE PUSH1 0x20 PUSH1 0x4 DUP3 ADD MSTORE PUSH1 0x21 PUSH1 0x24 DUP3 ADD MSTORE PUSH32 0x6572726F723A20726174696E672063616E2062652066726F6D203120746F2031 PUSH1 0x44 DUP3 ADD MSTORE PUSH1 0x3 PUSH1 0xFC SHL PUSH1 0x64 DUP3 ADD MSTORE PUSH1 0x84 ADD PUSH2 0x5D0 JUMP JUMPDEST PUSH1 0x0 JUMPDEST PUSH1 0x2 SLOAD DUP2 GT PUSH2 0x1669 JUMPI PUSH1 0x0 PUSH1 0x2 DUP3 DUP2 SLOAD DUP2 LT PUSH2 0x1417 JUMPI PUSH2 0x1417 PUSH2 0x21F2 JUMP JUMPDEST SWAP1 PUSH1 0x0 MSTORE PUSH1 0x20 PUSH1 0x0 KECCAK256 ADD DUP1 SLOAD PUSH2 0x142C SWAP1 PUSH2 0x2186 JUMP JUMPDEST DUP1 PUSH1 0x1F ADD PUSH1 0x20 DUP1 SWAP2 DIV MUL PUSH1 0x20 ADD PUSH1 0x40 MLOAD SWAP1 DUP2 ADD PUSH1 0x40 MSTORE DUP1 SWAP3 SWAP2 SWAP1 DUP2 DUP2 MSTORE PUSH1 0x20 ADD DUP3 DUP1 SLOAD PUSH2 0x1458 SWAP1 PUSH2 0x2186 JUMP JUMPDEST DUP1 ISZERO PUSH2 0x14A5 JUMPI DUP1 PUSH1 0x1F LT PUSH2 0x147A JUMPI PUSH2 0x100 DUP1 DUP4 SLOAD DIV MUL DUP4 MSTORE SWAP2 PUSH1 0x20 ADD SWAP2 PUSH2 0x14A5 JUMP JUMPDEST DUP3 ADD SWAP2 SWAP1 PUSH1 0x0 MSTORE PUSH1 0x20 PUSH1 0x0 KECCAK256 SWAP1 JUMPDEST DUP2 SLOAD DUP2 MSTORE SWAP1 PUSH1 0x1 ADD SWAP1 PUSH1 0x20 ADD DUP1 DUP4 GT PUSH2 0x1488 JUMPI DUP3 SWAP1 SUB PUSH1 0x1F AND DUP3 ADD SWAP2 JUMPDEST POP POP POP POP POP SWAP1 POP DUP5 PUSH1 0x40 MLOAD PUSH1 0x20 ADD PUSH2 0x14BD SWAP2 SWAP1 PUSH2 0x1F19 JUMP JUMPDEST PUSH1 0x40 MLOAD PUSH1 0x20 DUP2 DUP4 SUB SUB DUP2 MSTORE SWAP1 PUSH1 0x40 MSTORE DUP1 MLOAD SWAP1 PUSH1 0x20 ADD KECCAK256 DUP2 PUSH1 0x40 MLOAD PUSH1 0x20 ADD PUSH2 0x14E4 SWAP2 SWAP1 PUSH2 0x1F19 JUMP JUMPDEST PUSH1 0x40 MLOAD PUSH1 0x20 DUP2 DUP4 SUB SUB DUP2 MSTORE SWAP1 PUSH1 0x40 MSTORE DUP1 MLOAD SWAP1 PUSH1 0x20 ADD KECCAK256 EQ ISZERO PUSH2 0x1656 JUMPI PUSH1 0x40 DUP1 MLOAD PUSH1 0xA0 DUP2 ADD DUP3 MSTORE DUP7 DUP2 MSTORE CALLER PUSH1 0x0 SWAP1 DUP2 MSTORE PUSH1 0x4 PUSH1 0x20 SWAP1 DUP2 MSTORE SWAP3 SWAP1 KECCAK256 DUP1 SLOAD PUSH1 0x60 SWAP4 PUSH1 0x3 SWAP4 SWAP3 SWAP1 DUP4 ADD SWAP2 PUSH2 0x1533 SWAP1 PUSH2 0x2186 JUMP JUMPDEST DUP1 PUSH1 0x1F ADD PUSH1 0x20 DUP1 SWAP2 DIV MUL PUSH1 0x20 ADD PUSH1 0x40 MLOAD SWAP1 DUP2 ADD PUSH1 0x40 MSTORE DUP1 SWAP3 SWAP2 SWAP1 DUP2 DUP2 MSTORE PUSH1 0x20 ADD DUP3 DUP1 SLOAD PUSH2 0x155F SWAP1 PUSH2 0x2186 JUMP JUMPDEST DUP1 ISZERO PUSH2 0x15AC JUMPI DUP1 PUSH1 0x1F LT PUSH2 0x1581 JUMPI PUSH2 0x100 DUP1 DUP4 SLOAD DIV MUL DUP4 MSTORE SWAP2 PUSH1 0x20 ADD SWAP2 PUSH2 0x15AC JUMP JUMPDEST DUP3 ADD SWAP2 SWAP1 PUSH1 0x0 MSTORE PUSH1 0x20 PUSH1 0x0 KECCAK256 SWAP1 JUMPDEST DUP2 SLOAD DUP2 MSTORE SWAP1 PUSH1 0x1 ADD SWAP1 PUSH1 0x20 ADD DUP1 DUP4 GT PUSH2 0x158F JUMPI DUP3 SWAP1 SUB PUSH1 0x1F AND DUP3 ADD SWAP2 JUMPDEST POP POP POP SWAP2 DUP4 MSTORE POP POP PUSH1 0x20 DUP1 DUP3 ADD DUP10 SWAP1 MSTORE PUSH1 0x40 DUP3 ADD DUP9 SWAP1 MSTORE PUSH1 0x60 SWAP1 SWAP2 ADD DUP5 SWAP1 MSTORE DUP3 SLOAD PUSH1 0x1 DUP2 ADD DUP5 SSTORE PUSH1 0x0 SWAP4 DUP5 MSTORE SWAP3 DUP2 SWAP1 KECCAK256 DUP3 MLOAD DUP1 MLOAD SWAP4 SWAP5 PUSH1 0x5 MUL SWAP1 SWAP2 ADD SWAP3 PUSH2 0x15F6 SWAP3 DUP5 SWAP3 ADD SWAP1 PUSH2 0x1A28 JUMP JUMPDEST POP PUSH1 0x20 DUP3 DUP2 ADD MLOAD DUP1 MLOAD PUSH2 0x160F SWAP3 PUSH1 0x1 DUP6 ADD SWAP3 ADD SWAP1 PUSH2 0x1A28 JUMP JUMPDEST POP PUSH1 0x40 DUP3 ADD MLOAD DUP1 MLOAD PUSH2 0x162B SWAP2 PUSH1 0x2 DUP5 ADD SWAP2 PUSH1 0x20 SWAP1 SWAP2 ADD SWAP1 PUSH2 0x1A28 JUMP JUMPDEST POP PUSH1 0x60 DUP3 ADD MLOAD PUSH1 0x3 DUP3 ADD SSTORE PUSH1 0x80 DUP3 ADD MLOAD DUP1 MLOAD PUSH2 0x1651 SWAP2 PUSH1 0x4 DUP5 ADD SWAP2 PUSH1 0x20 SWAP1 SWAP2 ADD SWAP1 PUSH2 0x1AAC JUMP JUMPDEST POP POP POP POP JUMPDEST POP DUP1 PUSH2 0x1661 DUP2 PUSH2 0x21C1 JUMP JUMPDEST SWAP2 POP POP PUSH2 0x13F9 JUMP JUMPDEST POP POP POP POP JUMP JUMPDEST PUSH1 0x4 PUSH1 0x0 PUSH1 0x5 DUP5 PUSH1 0x40 MLOAD PUSH2 0x1683 SWAP2 SWAP1 PUSH2 0x1F19 JUMP JUMPDEST SWAP1 DUP2 MSTORE PUSH1 0x40 DUP1 MLOAD PUSH1 0x20 SWAP3 DUP2 SWAP1 SUB DUP4 ADD SWAP1 KECCAK256 SLOAD PUSH1 0x1 PUSH1 0x1 PUSH1 0xA0 SHL SUB AND DUP4 MSTORE SWAP1 DUP3 ADD SWAP3 SWAP1 SWAP3 MSTORE ADD PUSH1 0x0 KECCAK256 PUSH1 0x4 ADD SLOAD PUSH1 0xFF AND ISZERO PUSH2 0x16FF JUMPI PUSH1 0x40 MLOAD PUSH3 0x461BCD PUSH1 0xE5 SHL DUP2 MSTORE PUSH1 0x20 PUSH1 0x4 DUP3 ADD MSTORE PUSH1 0x1D PUSH1 0x24 DUP3 ADD MSTORE PUSH32 0x4572726F723A20596F752061726520616C7265616479206C6F67676564000000 PUSH1 0x44 DUP3 ADD MSTORE PUSH1 0x64 ADD PUSH2 0x5D0 JUMP JUMPDEST PUSH1 0x0 PUSH1 0x1 PUSH1 0x1 PUSH1 0xA0 SHL SUB AND PUSH1 0x5 DUP4 PUSH1 0x40 MLOAD PUSH2 0x171A SWAP2 SWAP1 PUSH2 0x1F19 JUMP JUMPDEST SWAP1 DUP2 MSTORE PUSH1 0x40 MLOAD SWAP1 DUP2 SWAP1 SUB PUSH1 0x20 ADD SWAP1 KECCAK256 SLOAD PUSH1 0x1 PUSH1 0x1 PUSH1 0xA0 SHL SUB AND EQ ISZERO PUSH2 0x177D JUMPI PUSH1 0x40 MLOAD PUSH3 0x461BCD PUSH1 0xE5 SHL DUP2 MSTORE PUSH1 0x20 PUSH1 0x4 DUP3 ADD MSTORE PUSH1 0x19 PUSH1 0x24 DUP3 ADD MSTORE PUSH25 0x115C9C9BDC8E88155CD95C88191BD95CDB89DD08195E1A5CDD PUSH1 0x3A SHL PUSH1 0x44 DUP3 ADD MSTORE PUSH1 0x64 ADD PUSH2 0x5D0 JUMP JUMPDEST DUP1 PUSH1 0x4 PUSH1 0x0 PUSH1 0x5 DUP6 PUSH1 0x40 MLOAD PUSH2 0x1792 SWAP2 SWAP1 PUSH2 0x1F19 JUMP JUMPDEST SWAP1 DUP2 MSTORE PUSH1 0x40 DUP1 MLOAD PUSH1 0x20 SWAP3 DUP2 SWAP1 SUB DUP4 ADD SWAP1 KECCAK256 SLOAD PUSH1 0x1 PUSH1 0x1 PUSH1 0xA0 SHL SUB AND DUP4 MSTORE SWAP1 DUP3 ADD SWAP3 SWAP1 SWAP3 MSTORE ADD PUSH1 0x0 KECCAK256 PUSH1 0x1 ADD SLOAD EQ PUSH2 0x1805 JUMPI PUSH1 0x40 MLOAD PUSH3 0x461BCD PUSH1 0xE5 SHL DUP2 MSTORE PUSH1 0x20 PUSH1 0x4 DUP3 ADD MSTORE PUSH1 0x17 PUSH1 0x24 DUP3 ADD MSTORE PUSH23 0x115C9C9BDC8E88125B9D985B1A59081C185CDCDDDBDC99 PUSH1 0x4A SHL PUSH1 0x44 DUP3 ADD MSTORE PUSH1 0x64 ADD PUSH2 0x5D0 JUMP JUMPDEST PUSH1 0x1 PUSH1 0x4 PUSH1 0x0 PUSH1 0x5 DUP6 PUSH1 0x40 MLOAD PUSH2 0x181B SWAP2 SWAP1 PUSH2 0x1F19 JUMP JUMPDEST SWAP1 DUP2 MSTORE PUSH1 0x40 DUP1 MLOAD PUSH1 0x20 SWAP3 DUP2 SWAP1 SUB DUP4 ADD SWAP1 KECCAK256 SLOAD PUSH1 0x1 PUSH1 0x1 PUSH1 0xA0 SHL SUB AND DUP4 MSTORE SWAP1 DUP3 ADD SWAP3 SWAP1 SWAP3 MSTORE ADD PUSH1 0x0 KECCAK256 PUSH1 0x4 ADD DUP1 SLOAD PUSH1 0xFF NOT AND SWAP2 ISZERO ISZERO SWAP2 SWAP1 SWAP2 OR SWAP1 SSTORE POP POP JUMP JUMPDEST DUP1 MLOAD PUSH1 0x20 DUP2 DUP4 ADD DUP2 ADD DUP1 MLOAD PUSH1 0x8 DUP3 MSTORE SWAP3 DUP3 ADD SWAP2 SWAP1 SWAP4 ADD KECCAK256 SWAP2 MSTORE DUP1 SLOAD PUSH1 0x1 DUP3 ADD DUP1 SLOAD PUSH1 0x1 PUSH1 0x1 PUSH1 0xA0 SHL SUB SWAP1 SWAP3 AND SWAP3 SWAP2 PUSH2 0x1890 SWAP1 PUSH2 0x2186 JUMP JUMPDEST DUP1 PUSH1 0x1F ADD PUSH1 0x20 DUP1 SWAP2 DIV MUL PUSH1 0x20 ADD PUSH1 0x40 MLOAD SWAP1 DUP2 ADD PUSH1 0x40 MSTORE DUP1 SWAP3 SWAP2 SWAP1 DUP2 DUP2 MSTORE PUSH1 0x20 ADD DUP3 DUP1 SLOAD PUSH2 0x18BC SWAP1 PUSH2 0x2186 JUMP JUMPDEST DUP1 ISZERO PUSH2 0x1909 JUMPI DUP1 PUSH1 0x1F LT PUSH2 0x18DE JUMPI PUSH2 0x100 DUP1 DUP4 SLOAD DIV MUL DUP4 MSTORE SWAP2 PUSH1 0x20 ADD SWAP2 PUSH2 0x1909 JUMP JUMPDEST DUP3 ADD SWAP2 SWAP1 PUSH1 0x0 MSTORE PUSH1 0x20 PUSH1 0x0 KECCAK256 SWAP1 JUMPDEST DUP2 SLOAD DUP2 MSTORE SWAP1 PUSH1 0x1 ADD SWAP1 PUSH1 0x20 ADD DUP1 DUP4 GT PUSH2 0x18EC JUMPI DUP3 SWAP1 SUB PUSH1 0x1F AND DUP3 ADD SWAP2 JUMPDEST POP POP POP POP POP SWAP1 DUP1 PUSH1 0x2 ADD SLOAD SWAP1 DUP1 PUSH1 0x3 ADD SLOAD SWAP1 POP DUP5 JUMP JUMPDEST PUSH1 0xA DUP2 DUP2 SLOAD DUP2 LT PUSH2 0xE17 JUMPI PUSH1 0x0 DUP1 REVERT JUMPDEST PUSH1 0x1 DUP2 ISZERO ISZERO EQ ISZERO PUSH2 0xB45 JUMPI PUSH1 0x8 PUSH1 0xC DUP4 DUP2 SLOAD DUP2 LT PUSH2 0x194F JUMPI PUSH2 0x194F PUSH2 0x21F2 JUMP JUMPDEST SWAP1 PUSH1 0x0 MSTORE PUSH1 0x20 PUSH1 0x0 KECCAK256 SWAP1 PUSH1 0x3 MUL ADD PUSH1 0x1 ADD PUSH1 0x40 MLOAD PUSH2 0x196D SWAP2 SWAP1 PUSH2 0x1F35 JUMP JUMPDEST SWAP1 DUP2 MSTORE PUSH1 0x20 ADD PUSH1 0x40 MLOAD DUP1 SWAP2 SUB SWAP1 KECCAK256 PUSH1 0x2 ADD SLOAD PUSH1 0x4 PUSH1 0x0 PUSH1 0xC DUP6 DUP2 SLOAD DUP2 LT PUSH2 0x1996 JUMPI PUSH2 0x1996 PUSH2 0x21F2 JUMP JUMPDEST PUSH1 0x0 SWAP2 DUP3 MSTORE PUSH1 0x20 DUP1 DUP4 KECCAK256 PUSH1 0x3 SWAP1 SWAP3 MUL SWAP1 SWAP2 ADD SLOAD PUSH1 0x1 PUSH1 0x1 PUSH1 0xA0 SHL SUB AND DUP4 MSTORE DUP3 ADD SWAP3 SWAP1 SWAP3 MSTORE PUSH1 0x40 ADD SWAP1 KECCAK256 PUSH1 0x2 ADD SLOAD PUSH2 0x19CD SWAP2 SWAP1 PUSH2 0x2109 JUMP JUMPDEST PUSH1 0x4 PUSH1 0x0 PUSH1 0xC DUP6 DUP2 SLOAD DUP2 LT PUSH2 0x19E4 JUMPI PUSH2 0x19E4 PUSH2 0x21F2 JUMP JUMPDEST PUSH1 0x0 SWAP2 DUP3 MSTORE PUSH1 0x20 DUP1 DUP4 KECCAK256 PUSH1 0x3 SWAP1 SWAP3 MUL SWAP1 SWAP2 ADD SLOAD PUSH1 0x1 PUSH1 0x1 PUSH1 0xA0 SHL SUB AND DUP4 MSTORE DUP3 ADD SWAP3 SWAP1 SWAP3 MSTORE PUSH1 0x40 ADD DUP2 KECCAK256 PUSH1 0x2 ADD SWAP2 SWAP1 SWAP2 SSTORE PUSH1 0xB DUP1 SLOAD DUP5 SWAP1 DUP2 LT PUSH2 0x54B JUMPI PUSH2 0x54B PUSH2 0x21F2 JUMP JUMPDEST DUP3 DUP1 SLOAD PUSH2 0x1A34 SWAP1 PUSH2 0x2186 JUMP JUMPDEST SWAP1 PUSH1 0x0 MSTORE PUSH1 0x20 PUSH1 0x0 KECCAK256 SWAP1 PUSH1 0x1F ADD PUSH1 0x20 SWAP1 DIV DUP2 ADD SWAP3 DUP3 PUSH2 0x1A56 JUMPI PUSH1 0x0 DUP6 SSTORE PUSH2 0x1A9C JUMP JUMPDEST DUP3 PUSH1 0x1F LT PUSH2 0x1A6F JUMPI DUP1 MLOAD PUSH1 0xFF NOT AND DUP4 DUP1 ADD OR DUP6 SSTORE PUSH2 0x1A9C JUMP JUMPDEST DUP3 DUP1 ADD PUSH1 0x1 ADD DUP6 SSTORE DUP3 ISZERO PUSH2 0x1A9C JUMPI SWAP2 DUP3 ADD JUMPDEST DUP3 DUP2 GT ISZERO PUSH2 0x1A9C JUMPI DUP3 MLOAD DUP3 SSTORE SWAP2 PUSH1 0x20 ADD SWAP2 SWAP1 PUSH1 0x1 ADD SWAP1 PUSH2 0x1A81 JUMP JUMPDEST POP PUSH2 0x1AA8 SWAP3 SWAP2 POP PUSH2 0x1B05 JUMP JUMPDEST POP SWAP1 JUMP JUMPDEST DUP3 DUP1 SLOAD DUP3 DUP3 SSTORE SWAP1 PUSH1 0x0 MSTORE PUSH1 0x20 PUSH1 0x0 KECCAK256 SWAP1 DUP2 ADD SWAP3 DUP3 ISZERO PUSH2 0x1AF9 JUMPI SWAP2 PUSH1 0x20 MUL DUP3 ADD JUMPDEST DUP3 DUP2 GT ISZERO PUSH2 0x1AF9 JUMPI DUP3 MLOAD DUP1 MLOAD PUSH2 0x1AE9 SWAP2 DUP5 SWAP2 PUSH1 0x20 SWAP1 SWAP2 ADD SWAP1 PUSH2 0x1A28 JUMP JUMPDEST POP SWAP2 PUSH1 0x20 ADD SWAP2 SWAP1 PUSH1 0x1 ADD SWAP1 PUSH2 0x1ACC JUMP JUMPDEST POP PUSH2 0x1AA8 SWAP3 SWAP2 POP PUSH2 0x1B1A JUMP JUMPDEST JUMPDEST DUP1 DUP3 GT ISZERO PUSH2 0x1AA8 JUMPI PUSH1 0x0 DUP2 SSTORE PUSH1 0x1 ADD PUSH2 0x1B06 JUMP JUMPDEST DUP1 DUP3 GT ISZERO PUSH2 0x1AA8 JUMPI PUSH1 0x0 PUSH2 0x1B2E DUP3 DUP3 PUSH2 0x1B37 JUMP JUMPDEST POP PUSH1 0x1 ADD PUSH2 0x1B1A JUMP JUMPDEST POP DUP1 SLOAD PUSH2 0x1B43 SWAP1 PUSH2 0x2186 JUMP JUMPDEST PUSH1 0x0 DUP3 SSTORE DUP1 PUSH1 0x1F LT PUSH2 0x1B53 JUMPI POP POP JUMP JUMPDEST PUSH1 0x1F ADD PUSH1 0x20 SWAP1 DIV SWAP1 PUSH1 0x0 MSTORE PUSH1 0x20 PUSH1 0x0 KECCAK256 SWAP1 DUP2 ADD SWAP1 PUSH2 0x1B71 SWAP2 SWAP1 PUSH2 0x1B05 JUMP JUMPDEST POP JUMP JUMPDEST DUP1 CALLDATALOAD PUSH1 0x1 PUSH1 0x1 PUSH1 0xA0 SHL SUB DUP2 AND DUP2 EQ PUSH2 0x1B8B JUMPI PUSH1 0x0 DUP1 REVERT JUMPDEST SWAP2 SWAP1 POP JUMP JUMPDEST PUSH1 0x0 DUP3 PUSH1 0x1F DUP4 ADD SLT PUSH2 0x1BA1 JUMPI PUSH1 0x0 DUP1 REVERT JUMPDEST DUP2 CALLDATALOAD PUSH1 0x1 PUSH1 0x1 PUSH1 0x40 SHL SUB DUP2 GT ISZERO PUSH2 0x1BBA JUMPI PUSH2 0x1BBA PUSH2 0x2208 JUMP JUMPDEST PUSH2 0x1BCD PUSH1 0x1F DUP3 ADD PUSH1 0x1F NOT AND PUSH1 0x20 ADD PUSH2 0x20D9 JUMP JUMPDEST DUP2 DUP2 MSTORE DUP5 PUSH1 0x20 DUP4 DUP7 ADD ADD GT ISZERO PUSH2 0x1BE2 JUMPI PUSH1 0x0 DUP1 REVERT JUMPDEST DUP2 PUSH1 0x20 DUP6 ADD PUSH1 0x20 DUP4 ADD CALLDATACOPY PUSH1 0x0 SWAP2 DUP2 ADD PUSH1 0x20 ADD SWAP2 SWAP1 SWAP2 MSTORE SWAP4 SWAP3 POP POP POP JUMP JUMPDEST PUSH1 0x0 PUSH1 0x20 DUP3 DUP5 SUB SLT ISZERO PUSH2 0x1C11 JUMPI PUSH1 0x0 DUP1 REVERT JUMPDEST PUSH2 0x1C1A DUP3 PUSH2 0x1B74 JUMP JUMPDEST SWAP4 SWAP3 POP POP POP JUMP JUMPDEST PUSH1 0x0 DUP1 PUSH1 0x0 PUSH1 0x60 DUP5 DUP7 SUB SLT ISZERO PUSH2 0x1C36 JUMPI PUSH1 0x0 DUP1 REVERT JUMPDEST PUSH2 0x1C3F DUP5 PUSH2 0x1B74 JUMP JUMPDEST SWAP3 POP PUSH1 0x20 DUP5 ADD CALLDATALOAD PUSH1 0x1 PUSH1 0x1 PUSH1 0x40 SHL SUB DUP2 GT ISZERO PUSH2 0x1C5A JUMPI PUSH1 0x0 DUP1 REVERT JUMPDEST PUSH2 0x1C66 DUP7 DUP3 DUP8 ADD PUSH2 0x1B90 JUMP JUMPDEST SWAP3 POP POP PUSH1 0x40 DUP5 ADD CALLDATALOAD SWAP1 POP SWAP3 POP SWAP3 POP SWAP3 JUMP JUMPDEST PUSH1 0x0 PUSH1 0x20 DUP3 DUP5 SUB SLT ISZERO PUSH2 0x1C89 JUMPI PUSH1 0x0 DUP1 REVERT JUMPDEST DUP2 CALLDATALOAD PUSH1 0x1 PUSH1 0x1 PUSH1 0x40 SHL SUB DUP2 GT ISZERO PUSH2 0x1C9F JUMPI PUSH1 0x0 DUP1 REVERT JUMPDEST PUSH2 0x11BC DUP5 DUP3 DUP6 ADD PUSH2 0x1B90 JUMP JUMPDEST PUSH1 0x0 DUP1 PUSH1 0x40 DUP4 DUP6 SUB SLT ISZERO PUSH2 0x1CBE JUMPI PUSH1 0x0 DUP1 REVERT JUMPDEST DUP3 CALLDATALOAD PUSH1 0x1 PUSH1 0x1 PUSH1 0x40 SHL SUB DUP1 DUP3 GT ISZERO PUSH2 0x1CD5 JUMPI PUSH1 0x0 DUP1 REVERT JUMPDEST PUSH2 0x1CE1 DUP7 DUP4 DUP8 ADD PUSH2 0x1B90 JUMP JUMPDEST SWAP4 POP PUSH1 0x20 SWAP2 POP DUP2 DUP6 ADD CALLDATALOAD DUP2 DUP2 GT ISZERO PUSH2 0x1CF8 JUMPI PUSH1 0x0 DUP1 REVERT JUMPDEST DUP6 ADD PUSH1 0x1F DUP2 ADD DUP8 SGT PUSH2 0x1D09 JUMPI PUSH1 0x0 DUP1 REVERT JUMPDEST DUP1 CALLDATALOAD DUP3 DUP2 GT ISZERO PUSH2 0x1D1B JUMPI PUSH2 0x1D1B PUSH2 0x2208 JUMP JUMPDEST DUP1 PUSH1 0x5 SHL PUSH2 0x1D2A DUP6 DUP3 ADD PUSH2 0x20D9 JUMP JUMPDEST DUP3 DUP2 MSTORE DUP6 DUP2 ADD SWAP1 DUP5 DUP8 ADD DUP4 DUP7 ADD DUP9 ADD DUP13 LT ISZERO PUSH2 0x1D45 JUMPI PUSH1 0x0 DUP1 REVERT JUMPDEST PUSH1 0x0 SWAP4 POP DUP4 JUMPDEST DUP6 DUP2 LT ISZERO PUSH2 0x1D82 JUMPI DUP2 CALLDATALOAD DUP9 DUP2 GT ISZERO PUSH2 0x1D61 JUMPI DUP6 DUP7 REVERT JUMPDEST PUSH2 0x1D6F DUP15 DUP12 DUP4 DUP12 ADD ADD PUSH2 0x1B90 JUMP JUMPDEST DUP6 MSTORE POP SWAP3 DUP9 ADD SWAP3 SWAP1 DUP9 ADD SWAP1 PUSH1 0x1 ADD PUSH2 0x1D4B JUMP JUMPDEST POP SWAP9 SWAP12 SWAP1 SWAP11 POP SWAP9 POP POP POP POP POP POP POP POP POP JUMP JUMPDEST PUSH1 0x0 DUP1 PUSH1 0x40 DUP4 DUP6 SUB SLT ISZERO PUSH2 0x1DA7 JUMPI PUSH1 0x0 DUP1 REVERT JUMPDEST DUP3 CALLDATALOAD PUSH1 0x1 PUSH1 0x1 PUSH1 0x40 SHL SUB DUP2 GT ISZERO PUSH2 0x1DBD JUMPI PUSH1 0x0 DUP1 REVERT JUMPDEST PUSH2 0x1DC9 DUP6 DUP3 DUP7 ADD PUSH2 0x1B90 JUMP JUMPDEST SWAP6 PUSH1 0x20 SWAP5 SWAP1 SWAP5 ADD CALLDATALOAD SWAP5 POP POP POP POP JUMP JUMPDEST PUSH1 0x0 DUP1 PUSH1 0x0 PUSH1 0x60 DUP5 DUP7 SUB SLT ISZERO PUSH2 0x1DED JUMPI PUSH1 0x0 DUP1 REVERT JUMPDEST DUP4 CALLDATALOAD PUSH1 0x1 PUSH1 0x1 PUSH1 0x40 SHL SUB DUP1 DUP3 GT ISZERO PUSH2 0x1E04 JUMPI PUSH1 0x0 DUP1 REVERT JUMPDEST PUSH2 0x1E10 DUP8 DUP4 DUP9 ADD PUSH2 0x1B90 JUMP JUMPDEST SWAP5 POP PUSH1 0x20 DUP7 ADD CALLDATALOAD SWAP2 POP DUP1 DUP3 GT ISZERO PUSH2 0x1E26 JUMPI PUSH1 0x0 DUP1 REVERT JUMPDEST POP PUSH2 0x1C66 DUP7 DUP3 DUP8 ADD PUSH2 0x1B90 JUMP JUMPDEST PUSH1 0x0 DUP1 PUSH1 0x0 PUSH1 0x60 DUP5 DUP7 SUB SLT ISZERO PUSH2 0x1E48 JUMPI PUSH1 0x0 DUP1 REVERT JUMPDEST DUP4 CALLDATALOAD PUSH1 0x1 PUSH1 0x1 PUSH1 0x40 SHL SUB DUP1 DUP3 GT ISZERO PUSH2 0x1E5F JUMPI PUSH1 0x0 DUP1 REVERT JUMPDEST PUSH2 0x1E6B DUP8 DUP4 DUP9 ADD PUSH2 0x1B90 JUMP JUMPDEST SWAP5 POP PUSH1 0x20 DUP7 ADD CALLDATALOAD SWAP4 POP PUSH1 0x40 DUP7 ADD CALLDATALOAD SWAP2 POP DUP1 DUP3 GT ISZERO PUSH2 0x1E88 JUMPI PUSH1 0x0 DUP1 REVERT JUMPDEST POP PUSH2 0x1E95 DUP7 DUP3 DUP8 ADD PUSH2 0x1B90 JUMP JUMPDEST SWAP2 POP POP SWAP3 POP SWAP3 POP SWAP3 JUMP JUMPDEST PUSH1 0x0 PUSH1 0x20 DUP3 DUP5 SUB SLT ISZERO PUSH2 0x1EB1 JUMPI PUSH1 0x0 DUP1 REVERT JUMPDEST POP CALLDATALOAD SWAP2 SWAP1 POP JUMP JUMPDEST PUSH1 0x0 DUP1 PUSH1 0x40 DUP4 DUP6 SUB SLT ISZERO PUSH2 0x1ECB JUMPI PUSH1 0x0 DUP1 REVERT JUMPDEST DUP3 CALLDATALOAD SWAP2 POP PUSH1 0x20 DUP4 ADD CALLDATALOAD DUP1 ISZERO ISZERO DUP2 EQ PUSH2 0x1EE2 JUMPI PUSH1 0x0 DUP1 REVERT JUMPDEST DUP1 SWAP2 POP POP SWAP3 POP SWAP3 SWAP1 POP JUMP JUMPDEST PUSH1 0x0 DUP2 MLOAD DUP1 DUP5 MSTORE PUSH2 0x1F05 DUP2 PUSH1 0x20 DUP7 ADD PUSH1 0x20 DUP7 ADD PUSH2 0x215A JUMP JUMPDEST PUSH1 0x1F ADD PUSH1 0x1F NOT AND SWAP3 SWAP1 SWAP3 ADD PUSH1 0x20 ADD SWAP3 SWAP2 POP POP JUMP JUMPDEST PUSH1 0x0 DUP3 MLOAD PUSH2 0x1F2B DUP2 DUP5 PUSH1 0x20 DUP8 ADD PUSH2 0x215A JUMP JUMPDEST SWAP2 SWAP1 SWAP2 ADD SWAP3 SWAP2 POP POP JUMP JUMPDEST PUSH1 0x0 DUP1 DUP4 SLOAD DUP2 PUSH1 0x1 DUP3 DUP2 SHR SWAP2 POP DUP1 DUP4 AND DUP1 PUSH2 0x1F51 JUMPI PUSH1 0x7F DUP4 AND SWAP3 POP JUMPDEST PUSH1 0x20 DUP1 DUP5 LT DUP3 EQ ISZERO PUSH2 0x1F71 JUMPI PUSH4 0x4E487B71 PUSH1 0xE0 SHL DUP7 MSTORE PUSH1 0x22 PUSH1 0x4 MSTORE PUSH1 0x24 DUP7 REVERT JUMPDEST DUP2 DUP1 ISZERO PUSH2 0x1F85 JUMPI PUSH1 0x1 DUP2 EQ PUSH2 0x1F96 JUMPI PUSH2 0x1FC3 JUMP JUMPDEST PUSH1 0xFF NOT DUP7 AND DUP10 MSTORE DUP5 DUP10 ADD SWAP7 POP PUSH2 0x1FC3 JUMP JUMPDEST PUSH1 0x0 DUP11 DUP2 MSTORE PUSH1 0x20 SWAP1 KECCAK256 PUSH1 0x0 JUMPDEST DUP7 DUP2 LT ISZERO PUSH2 0x1FBB JUMPI DUP2 SLOAD DUP12 DUP3 ADD MSTORE SWAP1 DUP6 ADD SWAP1 DUP4 ADD PUSH2 0x1FA2 JUMP JUMPDEST POP POP DUP5 DUP10 ADD SWAP7 POP JUMPDEST POP SWAP5 SWAP9 SWAP8 POP POP POP POP POP POP POP POP JUMP JUMPDEST PUSH1 0x1 PUSH1 0x1 PUSH1 0xA0 SHL SUB DUP5 AND DUP2 MSTORE PUSH1 0x60 PUSH1 0x20 DUP3 ADD DUP2 SWAP1 MSTORE PUSH1 0x0 SWAP1 PUSH2 0x1FF5 SWAP1 DUP4 ADD DUP6 PUSH2 0x1EED JUMP JUMPDEST SWAP1 POP DUP3 ISZERO ISZERO PUSH1 0x40 DUP4 ADD MSTORE SWAP5 SWAP4 POP POP POP POP JUMP JUMPDEST PUSH1 0x1 PUSH1 0x1 PUSH1 0xA0 SHL SUB DUP6 AND DUP2 MSTORE PUSH1 0x80 PUSH1 0x20 DUP3 ADD DUP2 SWAP1 MSTORE PUSH1 0x0 SWAP1 PUSH2 0x202B SWAP1 DUP4 ADD DUP7 PUSH2 0x1EED JUMP JUMPDEST PUSH1 0x40 DUP4 ADD SWAP5 SWAP1 SWAP5 MSTORE POP PUSH1 0x60 ADD MSTORE SWAP3 SWAP2 POP POP JUMP JUMPDEST PUSH1 0x0 PUSH1 0x20 DUP1 DUP4 ADD DUP2 DUP5 MSTORE DUP1 DUP6 MLOAD DUP1 DUP4 MSTORE PUSH1 0x40 DUP7 ADD SWAP2 POP PUSH1 0x40 DUP2 PUSH1 0x5 SHL DUP8 ADD ADD SWAP3 POP DUP4 DUP8 ADD PUSH1 0x0 JUMPDEST DUP3 DUP2 LT ISZERO PUSH2 0x2093 JUMPI PUSH1 0x3F NOT DUP9 DUP7 SUB ADD DUP5 MSTORE PUSH2 0x2081 DUP6 DUP4 MLOAD PUSH2 0x1EED JUMP JUMPDEST SWAP5 POP SWAP3 DUP6 ADD SWAP3 SWAP1 DUP6 ADD SWAP1 PUSH1 0x1 ADD PUSH2 0x2065 JUMP JUMPDEST POP SWAP3 SWAP8 SWAP7 POP POP POP POP POP POP POP JUMP JUMPDEST PUSH1 0xA0 DUP2 MSTORE PUSH1 0x0 PUSH2 0x20B3 PUSH1 0xA0 DUP4 ADD DUP9 PUSH2 0x1EED JUMP JUMPDEST SWAP1 POP DUP6 PUSH1 0x20 DUP4 ADD MSTORE DUP5 PUSH1 0x40 DUP4 ADD MSTORE DUP4 PUSH1 0x60 DUP4 ADD MSTORE DUP3 ISZERO ISZERO PUSH1 0x80 DUP4 ADD MSTORE SWAP7 SWAP6 POP POP POP POP POP POP JUMP JUMPDEST PUSH1 0x40 MLOAD PUSH1 0x1F DUP3 ADD PUSH1 0x1F NOT AND DUP2 ADD PUSH1 0x1 PUSH1 0x1 PUSH1 0x40 SHL SUB DUP2 GT DUP3 DUP3 LT OR ISZERO PUSH2 0x2101 JUMPI PUSH2 0x2101 PUSH2 0x2208 JUMP JUMPDEST PUSH1 0x40 MSTORE SWAP2 SWAP1 POP JUMP JUMPDEST PUSH1 0x0 DUP3 NOT DUP3 GT ISZERO PUSH2 0x211C JUMPI PUSH2 0x211C PUSH2 0x21DC JUMP JUMPDEST POP ADD SWAP1 JUMP JUMPDEST PUSH1 0x0 DUP3 PUSH2 0x213E JUMPI PUSH4 0x4E487B71 PUSH1 0xE0 SHL PUSH1 0x0 MSTORE PUSH1 0x12 PUSH1 0x4 MSTORE PUSH1 0x24 PUSH1 0x0 REVERT JUMPDEST POP DIV SWAP1 JUMP JUMPDEST PUSH1 0x0 DUP3 DUP3 LT ISZERO PUSH2 0x2155 JUMPI PUSH2 0x2155 PUSH2 0x21DC JUMP JUMPDEST POP SUB SWAP1 JUMP JUMPDEST PUSH1 0x0 JUMPDEST DUP4 DUP2 LT ISZERO PUSH2 0x2175 JUMPI DUP2 DUP2 ADD MLOAD DUP4 DUP3 ADD MSTORE PUSH1 0x20 ADD PUSH2 0x215D JUMP JUMPDEST DUP4 DUP2 GT ISZERO PUSH2 0x1669 JUMPI POP POP PUSH1 0x0 SWAP2 ADD MSTORE JUMP JUMPDEST PUSH1 0x1 DUP2 DUP2 SHR SWAP1 DUP3 AND DUP1 PUSH2 0x219A JUMPI PUSH1 0x7F DUP3 AND SWAP2 POP JUMPDEST PUSH1 0x20 DUP3 LT DUP2 EQ ISZERO PUSH2 0x21BB JUMPI PUSH4 0x4E487B71 PUSH1 0xE0 SHL PUSH1 0x0 MSTORE PUSH1 0x22 PUSH1 0x4 MSTORE PUSH1 0x24 PUSH1 0x0 REVERT JUMPDEST POP SWAP2 SWAP1 POP JUMP JUMPDEST PUSH1 0x0 PUSH1 0x0 NOT DUP3 EQ ISZERO PUSH2 0x21D5 JUMPI PUSH2 0x21D5 PUSH2 0x21DC JUMP JUMPDEST POP PUSH1 0x1 ADD SWAP1 JUMP JUMPDEST PUSH4 0x4E487B71 PUSH1 0xE0 SHL PUSH1 0x0 MSTORE PUSH1 0x11 PUSH1 0x4 MSTORE PUSH1 0x24 PUSH1 0x0 REVERT JUMPDEST PUSH4 0x4E487B71 PUSH1 0xE0 SHL PUSH1 0x0 MSTORE PUSH1 0x32 PUSH1 0x4 MSTORE PUSH1 0x24 PUSH1 0x0 REVERT JUMPDEST PUSH4 0x4E487B71 PUSH1 0xE0 SHL PUSH1 0x0 MSTORE PUSH1 0x41 PUSH1 0x4 MSTORE PUSH1 0x24 PUSH1 0x0 REVERT INVALID LOG2 PUSH5 0x6970667358 0x22 SLT KECCAK256 SWAP7 SLOAD 0xCA DUP14 0xC 0x4C 0xAE 0xCB 0xB8 0x4B 0xD8 0xB5 0x5D 0x5C 0xE6 PUSH7 0x8DBF7C89CD9053 PUSH31 0xF45F0E6FEFD75D7564736F6C63430008070033405787FA12A823E0F2B7631C 0xC4 SHL EXTCODESIZE 0xA8 DUP3 DUP12 CALLER 0x21 0xCA DUP2 GT GT STATICCALL PUSH22 0xCD3AA3BB5ACEC49E92DEB93AC19463E0F89B887A2AB8 SHR PUSH12 0x5EADF7DC1BC8BD12CE4040F6 JUMP 0xFC 0x5C DUP4 0xA9 PUSH16 0xABBCC4E29B827AF3528E41DB71DD782 RETURNDATACOPY SDIV 0xE1 CALLDATACOPY 0x4C 0xD0 SWAP9 CALLDATALOAD BYTE CODESIZE 0xD PUSH32 0x0 "
				},
				"gasEstimates": {
					"creation": {
						"codeDepositCost": "1757600",
						"executionCost": "infinite",
						"totalCost": "infinite"
					},
					"external": {
						"MarriageRegistration(uint256,bool)": "infinite",
						"acceptPurchase(uint256,bool)": "infinite",
						"acceptReturn(uint256,bool)": "infinite",
						"addProductShop(string,uint256,string)": "infinite",
						"check_logged(string)": "infinite",
						"create_user(address,string,bytes32)": "infinite",
						"getProductList()": "infinite",
						"getShopList()": "infinite",
						"getStoryRating(string)": "infinite",
						"get_address(string)": "infinite",
						"get_hash(string)": "infinite",
						"leaveComment(string,string[])": "infinite",
						"leaveFeedback(string,string,uint256)": "infinite",
						"login_user(string,bytes32)": "infinite",
						"productMarriageRegistration(string)": "infinite",
						"productPurchases(string)": "infinite",
						"productReturn(string)": "infinite",
						"shopLists(string)": "infinite",
						"structMarriageRegistrations(uint256)": "infinite",
						"structProducts(string)": "infinite",
						"structStatusPurchases(uint256)": "infinite",
						"structStatusReturns(uint256)": "infinite",
						"structUserLogins(string)": "infinite",
						"structUsers(address)": "infinite"
					}
				},
				"methodIdentifiers": {
					"MarriageRegistration(uint256,bool)": "f69483c1",
					"acceptPurchase(uint256,bool)": "0c72b1ec",
					"acceptReturn(uint256,bool)": "2ccdef7c",
					"addProductShop(string,uint256,string)": "6c05dd1d",
					"check_logged(string)": "c26da2f8",
					"create_user(address,string,bytes32)": "0e1c81b2",
					"getProductList()": "34d2c0ad",
					"getShopList()": "c178b9af",
					"getStoryRating(string)": "a985036d",
					"get_address(string)": "6ba44d3c",
					"get_hash(string)": "845952a8",
					"leaveComment(string,string[])": "29e795f3",
					"leaveFeedback(string,string,uint256)": "cc21c188",
					"login_user(string,bytes32)": "d22d9020",
					"productMarriageRegistration(string)": "2d4673e3",
					"productPurchases(string)": "146dc6ed",
					"productReturn(string)": "bbd43363",
					"shopLists(string)": "c4957fa0",
					"structMarriageRegistrations(uint256)": "7ddb273d",
					"structProducts(string)": "d68cf8c1",
					"structStatusPurchases(uint256)": "dce39151",
					"structStatusReturns(uint256)": "a9f9482b",
					"structUserLogins(string)": "1bbe970a",
					"structUsers(address)": "961865f0"
				}
			},
			"userdoc": {
				"kind": "user",
				"methods": {},
				"version": 1
			}
		}
	}
}