{
	"Documents/GitHub/Store-system-with-feedback/main.sol": {
		"coursepaper": {
			"abi": [
				{
					"inputs": [],
					"stateMutability": "nonpayable",
					"type": "constructor"
				},
				{
					"inputs": [
						{
							"internalType": "uint256",
							"name": "idMarriage",
							"type": "uint256"
						},
						{
							"internalType": "bool",
							"name": "confirmation",
							"type": "bool"
						}
					],
					"name": "acceptMarriage",
					"outputs": [],
					"stateMutability": "nonpayable",
					"type": "function"
				},
				{
					"inputs": [
						{
							"internalType": "uint256",
							"name": "idPurchase",
							"type": "uint256"
						},
						{
							"internalType": "uint256",
							"name": "confirmation",
							"type": "uint256"
						}
					],
					"name": "acceptPurchase",
					"outputs": [],
					"stateMutability": "payable",
					"type": "function"
				},
				{
					"inputs": [
						{
							"internalType": "uint256",
							"name": "idReturn",
							"type": "uint256"
						},
						{
							"internalType": "bool",
							"name": "confirmation",
							"type": "bool"
						}
					],
					"name": "acceptReturn",
					"outputs": [],
					"stateMutability": "payable",
					"type": "function"
				},
				{
					"inputs": [
						{
							"internalType": "string",
							"name": "title",
							"type": "string"
						},
						{
							"internalType": "uint256",
							"name": "price",
							"type": "uint256"
						},
						{
							"internalType": "string",
							"name": "description",
							"type": "string"
						}
					],
					"name": "addProductShop",
					"outputs": [],
					"stateMutability": "nonpayable",
					"type": "function"
				},
				{
					"inputs": [
						{
							"internalType": "string",
							"name": "login",
							"type": "string"
						}
					],
					"name": "check_logged_shop",
					"outputs": [
						{
							"internalType": "bool",
							"name": "",
							"type": "bool"
						}
					],
					"stateMutability": "view",
					"type": "function"
				},
				{
					"inputs": [
						{
							"internalType": "string",
							"name": "login",
							"type": "string"
						}
					],
					"name": "check_logged_user",
					"outputs": [
						{
							"internalType": "bool",
							"name": "",
							"type": "bool"
						}
					],
					"stateMutability": "view",
					"type": "function"
				},
				{
					"inputs": [
						{
							"internalType": "address",
							"name": "addr",
							"type": "address"
						},
						{
							"internalType": "string",
							"name": "login",
							"type": "string"
						},
						{
							"internalType": "bytes32",
							"name": "password",
							"type": "bytes32"
						}
					],
					"name": "create_user",
					"outputs": [],
					"stateMutability": "nonpayable",
					"type": "function"
				},
				{
					"inputs": [
						{
							"internalType": "string",
							"name": "shopName",
							"type": "string"
						}
					],
					"name": "getStoryRating",
					"outputs": [
						{
							"internalType": "uint256",
							"name": "",
							"type": "uint256"
						}
					],
					"stateMutability": "view",
					"type": "function"
				},
				{
					"inputs": [
						{
							"internalType": "string",
							"name": "login",
							"type": "string"
						}
					],
					"name": "get_address",
					"outputs": [
						{
							"internalType": "address",
							"name": "",
							"type": "address"
						}
					],
					"stateMutability": "view",
					"type": "function"
				},
				{
					"inputs": [
						{
							"internalType": "address",
							"name": "adr",
							"type": "address"
						}
					],
					"name": "get_balance",
					"outputs": [
						{
							"internalType": "uint256",
							"name": "",
							"type": "uint256"
						}
					],
					"stateMutability": "view",
					"type": "function"
				},
				{
					"inputs": [
						{
							"internalType": "string",
							"name": "login",
							"type": "string"
						}
					],
					"name": "get_city",
					"outputs": [
						{
							"internalType": "string",
							"name": "",
							"type": "string"
						}
					],
					"stateMutability": "view",
					"type": "function"
				},
				{
					"inputs": [
						{
							"internalType": "string",
							"name": "password",
							"type": "string"
						}
					],
					"name": "get_hash",
					"outputs": [
						{
							"internalType": "bytes32",
							"name": "",
							"type": "bytes32"
						}
					],
					"stateMutability": "pure",
					"type": "function"
				},
				{
					"inputs": [],
					"name": "get_product_list",
					"outputs": [
						{
							"internalType": "string[]",
							"name": "",
							"type": "string[]"
						}
					],
					"stateMutability": "view",
					"type": "function"
				},
				{
					"inputs": [
						{
							"internalType": "string",
							"name": "login",
							"type": "string"
						}
					],
					"name": "get_role_shop",
					"outputs": [
						{
							"internalType": "uint256",
							"name": "",
							"type": "uint256"
						}
					],
					"stateMutability": "view",
					"type": "function"
				},
				{
					"inputs": [
						{
							"internalType": "string",
							"name": "login",
							"type": "string"
						}
					],
					"name": "get_role_user",
					"outputs": [
						{
							"internalType": "uint256",
							"name": "",
							"type": "uint256"
						}
					],
					"stateMutability": "view",
					"type": "function"
				},
				{
					"inputs": [],
					"name": "get_shop_list",
					"outputs": [
						{
							"internalType": "string[]",
							"name": "",
							"type": "string[]"
						}
					],
					"stateMutability": "view",
					"type": "function"
				},
				{
					"inputs": [
						{
							"internalType": "string",
							"name": "userName",
							"type": "string"
						},
						{
							"internalType": "string[]",
							"name": "comment",
							"type": "string[]"
						}
					],
					"name": "leaveComment",
					"outputs": [],
					"stateMutability": "nonpayable",
					"type": "function"
				},
				{
					"inputs": [
						{
							"internalType": "string",
							"name": "shop",
							"type": "string"
						},
						{
							"internalType": "string",
							"name": "feedback",
							"type": "string"
						},
						{
							"internalType": "uint256",
							"name": "rating",
							"type": "uint256"
						}
					],
					"name": "leaveFeedback",
					"outputs": [],
					"stateMutability": "nonpayable",
					"type": "function"
				},
				{
					"inputs": [
						{
							"internalType": "string",
							"name": "login",
							"type": "string"
						}
					],
					"name": "login_out_shop",
					"outputs": [],
					"stateMutability": "nonpayable",
					"type": "function"
				},
				{
					"inputs": [
						{
							"internalType": "string",
							"name": "login",
							"type": "string"
						}
					],
					"name": "login_out_user",
					"outputs": [],
					"stateMutability": "nonpayable",
					"type": "function"
				},
				{
					"inputs": [
						{
							"internalType": "string",
							"name": "login",
							"type": "string"
						},
						{
							"internalType": "bytes32",
							"name": "password",
							"type": "bytes32"
						}
					],
					"name": "login_shop",
					"outputs": [],
					"stateMutability": "nonpayable",
					"type": "function"
				},
				{
					"inputs": [
						{
							"internalType": "string",
							"name": "login",
							"type": "string"
						},
						{
							"internalType": "bytes32",
							"name": "password",
							"type": "bytes32"
						}
					],
					"name": "login_user",
					"outputs": [],
					"stateMutability": "nonpayable",
					"type": "function"
				},
				{
					"inputs": [
						{
							"internalType": "string",
							"name": "titleProduct",
							"type": "string"
						}
					],
					"name": "productMarriage",
					"outputs": [],
					"stateMutability": "nonpayable",
					"type": "function"
				},
				{
					"inputs": [
						{
							"internalType": "string",
							"name": "titleProduct",
							"type": "string"
						}
					],
					"name": "productPurchases",
					"outputs": [],
					"stateMutability": "payable",
					"type": "function"
				},
				{
					"inputs": [
						{
							"internalType": "string",
							"name": "titleProduct",
							"type": "string"
						}
					],
					"name": "productReturn",
					"outputs": [],
					"stateMutability": "nonpayable",
					"type": "function"
				},
				{
					"inputs": [
						{
							"internalType": "string",
							"name": "",
							"type": "string"
						}
					],
					"name": "shopLists",
					"outputs": [
						{
							"internalType": "address",
							"name": "",
							"type": "address"
						}
					],
					"stateMutability": "view",
					"type": "function"
				},
				{
					"inputs": [
						{
							"internalType": "string",
							"name": "",
							"type": "string"
						}
					],
					"name": "structProducts",
					"outputs": [
						{
							"internalType": "address",
							"name": "shop",
							"type": "address"
						},
						{
							"internalType": "string",
							"name": "description",
							"type": "string"
						},
						{
							"internalType": "uint256",
							"name": "price",
							"type": "uint256"
						},
						{
							"internalType": "uint256",
							"name": "id",
							"type": "uint256"
						}
					],
					"stateMutability": "view",
					"type": "function"
				},
				{
					"inputs": [
						{
							"internalType": "address",
							"name": "",
							"type": "address"
						}
					],
					"name": "structShops",
					"outputs": [
						{
							"internalType": "string",
							"name": "shopName",
							"type": "string"
						},
						{
							"internalType": "bytes32",
							"name": "password",
							"type": "bytes32"
						},
						{
							"internalType": "uint256",
							"name": "role",
							"type": "uint256"
						},
						{
							"internalType": "bool",
							"name": "logged",
							"type": "bool"
						},
						{
							"internalType": "string",
							"name": "number",
							"type": "string"
						},
						{
							"internalType": "string",
							"name": "city",
							"type": "string"
						},
						{
							"internalType": "uint256",
							"name": "rating",
							"type": "uint256"
						}
					],
					"stateMutability": "view",
					"type": "function"
				},
				{
					"inputs": [
						{
							"internalType": "uint256",
							"name": "",
							"type": "uint256"
						}
					],
					"name": "structStatusMarriages",
					"outputs": [
						{
							"internalType": "address",
							"name": "userLogin",
							"type": "address"
						},
						{
							"internalType": "string",
							"name": "titleProduct",
							"type": "string"
						},
						{
							"internalType": "bool",
							"name": "status",
							"type": "bool"
						}
					],
					"stateMutability": "view",
					"type": "function"
				},
				{
					"inputs": [
						{
							"internalType": "uint256",
							"name": "",
							"type": "uint256"
						}
					],
					"name": "structStatusPurchases",
					"outputs": [
						{
							"internalType": "address",
							"name": "userLogin",
							"type": "address"
						},
						{
							"internalType": "string",
							"name": "titleProduct",
							"type": "string"
						},
						{
							"internalType": "uint256",
							"name": "price",
							"type": "uint256"
						},
						{
							"internalType": "bool",
							"name": "status",
							"type": "bool"
						}
					],
					"stateMutability": "view",
					"type": "function"
				},
				{
					"inputs": [
						{
							"internalType": "uint256",
							"name": "",
							"type": "uint256"
						}
					],
					"name": "structStatusReturns",
					"outputs": [
						{
							"internalType": "address",
							"name": "userLogin",
							"type": "address"
						},
						{
							"internalType": "string",
							"name": "titleProduct",
							"type": "string"
						},
						{
							"internalType": "bool",
							"name": "status",
							"type": "bool"
						}
					],
					"stateMutability": "view",
					"type": "function"
				},
				{
					"inputs": [
						{
							"internalType": "string",
							"name": "",
							"type": "string"
						}
					],
					"name": "structUserLogins",
					"outputs": [
						{
							"internalType": "address",
							"name": "",
							"type": "address"
						}
					],
					"stateMutability": "view",
					"type": "function"
				},
				{
					"inputs": [
						{
							"internalType": "address",
							"name": "",
							"type": "address"
						}
					],
					"name": "structUsers",
					"outputs": [
						{
							"internalType": "string",
							"name": "userName",
							"type": "string"
						},
						{
							"internalType": "bytes32",
							"name": "password",
							"type": "bytes32"
						},
						{
							"internalType": "uint256",
							"name": "role",
							"type": "uint256"
						},
						{
							"internalType": "bool",
							"name": "logged",
							"type": "bool"
						}
					],
					"stateMutability": "view",
					"type": "function"
				}
			],
			"devdoc": {
				"kind": "dev",
				"methods": {},
				"version": 1
			},
			"evm": {
				"assembly": "    /* \"Documents/GitHub/Store-system-with-feedback/main.sol\":74:12537  contract coursepaper {\r... */\n  mstore(0x40, 0x80)\n    /* \"Documents/GitHub/Store-system-with-feedback/main.sol\":5995:5996  0 */\n  0x00\n    /* \"Documents/GitHub/Store-system-with-feedback/main.sol\":5960:5996  uint256 addProductShop_idProduct = 0 */\n  0x0d\n  sstore\n    /* \"Documents/GitHub/Store-system-with-feedback/main.sol\":125:1104  constructor() {\r... */\n  callvalue\n  dup1\n  iszero\n  tag_1\n  jumpi\n  0x00\n  dup1\n  revert\ntag_1:\n  pop\n    /* \"Documents/GitHub/Store-system-with-feedback/main.sol\":200:242  0x5412E9b0e4Ef9d1546DF79ae907eeE34bDCF3004 */\n  0x5412e9b0e4ef9d1546df79ae907eee34bdcf3004\n    /* \"Documents/GitHub/Store-system-with-feedback/main.sol\":180:189  shopLists */\n  0x01\n    /* \"Documents/GitHub/Store-system-with-feedback/main.sol\":180:197  shopLists[\"Beer\"] */\n  mload(0x40)\n  tag_4\n  swap1\n  tag_5\n  jump\t// in\ntag_4:\n  swap1\n  dup2\n  mstore\n  0x20\n  add\n  mload(0x40)\n  dup1\n  swap2\n  sub\n  swap1\n  keccak256\n  0x00\n    /* \"Documents/GitHub/Store-system-with-feedback/main.sol\":180:242  shopLists[\"Beer\"] = 0x5412E9b0e4Ef9d1546DF79ae907eeE34bDCF3004 */\n  0x0100\n  exp\n  dup2\n  sload\n  dup2\n  0xffffffffffffffffffffffffffffffffffffffff\n  mul\n  not\n  and\n  swap1\n  dup4\n  0xffffffffffffffffffffffffffffffffffffffff\n  and\n  mul\n  or\n  swap1\n  sstore\n  pop\n    /* \"Documents/GitHub/Store-system-with-feedback/main.sol\":311:372  structShop(\"Beer\", get_hash(\"2\"), 3, false, \"1\", \"Moscow\", 0) */\n  mload(0x40)\n  dup1\n  0xe0\n  add\n  0x40\n  mstore\n  dup1\n  mload(0x40)\n  dup1\n  0x40\n  add\n  0x40\n  mstore\n  dup1\n  0x04\n  dup2\n  mstore\n  0x20\n  add\n  0x4265657200000000000000000000000000000000000000000000000000000000\n  dup2\n  mstore\n  pop\n  dup2\n  mstore\n  0x20\n  add\n    /* \"Documents/GitHub/Store-system-with-feedback/main.sol\":330:343  get_hash(\"2\") */\n  tag_6\n  mload(0x40)\n  dup1\n  0x40\n  add\n  0x40\n  mstore\n  dup1\n  0x01\n  dup2\n  mstore\n  0x20\n  add\n  0x3200000000000000000000000000000000000000000000000000000000000000\n  dup2\n  mstore\n  pop\n    /* \"Documents/GitHub/Store-system-with-feedback/main.sol\":330:338  get_hash */\n  shl(0x20, tag_7)\n    /* \"Documents/GitHub/Store-system-with-feedback/main.sol\":330:343  get_hash(\"2\") */\n  0x20\n  shr\n  jump\t// in\ntag_6:\n    /* \"Documents/GitHub/Store-system-with-feedback/main.sol\":311:372  structShop(\"Beer\", get_hash(\"2\"), 3, false, \"1\", \"Moscow\", 0) */\n  dup2\n  mstore\n  0x20\n  add\n    /* \"Documents/GitHub/Store-system-with-feedback/main.sol\":345:346  3 */\n  0x03\n    /* \"Documents/GitHub/Store-system-with-feedback/main.sol\":311:372  structShop(\"Beer\", get_hash(\"2\"), 3, false, \"1\", \"Moscow\", 0) */\n  dup2\n  mstore\n  0x20\n  add\n    /* \"Documents/GitHub/Store-system-with-feedback/main.sol\":348:353  false */\n  0x00\n    /* \"Documents/GitHub/Store-system-with-feedback/main.sol\":311:372  structShop(\"Beer\", get_hash(\"2\"), 3, false, \"1\", \"Moscow\", 0) */\n  iszero\n  iszero\n  dup2\n  mstore\n  0x20\n  add\n  mload(0x40)\n  dup1\n  0x40\n  add\n  0x40\n  mstore\n  dup1\n  0x01\n  dup2\n  mstore\n  0x20\n  add\n  0x3100000000000000000000000000000000000000000000000000000000000000\n  dup2\n  mstore\n  pop\n  dup2\n  mstore\n  0x20\n  add\n  mload(0x40)\n  dup1\n  0x40\n  add\n  0x40\n  mstore\n  dup1\n  0x06\n  dup2\n  mstore\n  0x20\n  add\n  0x4d6f73636f770000000000000000000000000000000000000000000000000000\n  dup2\n  mstore\n  pop\n  dup2\n  mstore\n  0x20\n  add\n    /* \"Documents/GitHub/Store-system-with-feedback/main.sol\":370:371  0 */\n  0x00\n    /* \"Documents/GitHub/Store-system-with-feedback/main.sol\":311:372  structShop(\"Beer\", get_hash(\"2\"), 3, false, \"1\", \"Moscow\", 0) */\n  dup2\n  mstore\n  pop\n    /* \"Documents/GitHub/Store-system-with-feedback/main.sol\":253:264  structShops */\n  0x00\n    /* \"Documents/GitHub/Store-system-with-feedback/main.sol\":253:308  structShops[0x5412E9b0e4Ef9d1546DF79ae907eeE34bDCF3004] */\n  dup1\n    /* \"Documents/GitHub/Store-system-with-feedback/main.sol\":265:307  0x5412E9b0e4Ef9d1546DF79ae907eeE34bDCF3004 */\n  0x5412e9b0e4ef9d1546df79ae907eee34bdcf3004\n    /* \"Documents/GitHub/Store-system-with-feedback/main.sol\":253:308  structShops[0x5412E9b0e4Ef9d1546DF79ae907eeE34bDCF3004] */\n  0xffffffffffffffffffffffffffffffffffffffff\n  and\n  0xffffffffffffffffffffffffffffffffffffffff\n  and\n  dup2\n  mstore\n  0x20\n  add\n  swap1\n  dup2\n  mstore\n  0x20\n  add\n  0x00\n  keccak256\n    /* \"Documents/GitHub/Store-system-with-feedback/main.sol\":253:372  structShops[0x5412E9b0e4Ef9d1546DF79ae907eeE34bDCF3004] = structShop(\"Beer\", get_hash(\"2\"), 3, false, \"1\", \"Moscow\", 0) */\n  0x00\n  dup3\n  add\n  mload\n  dup2\n  0x00\n  add\n  swap1\n  dup1\n  mload\n  swap1\n  0x20\n  add\n  swap1\n  tag_8\n  swap3\n  swap2\n  swap1\n  tag_9\n  jump\t// in\ntag_8:\n  pop\n  0x20\n  dup3\n  add\n  mload\n  dup2\n  0x01\n  add\n  sstore\n  0x40\n  dup3\n  add\n  mload\n  dup2\n  0x02\n  add\n  sstore\n  0x60\n  dup3\n  add\n  mload\n  dup2\n  0x03\n  add\n  exp(0x0100, 0x00)\n  dup2\n  sload\n  dup2\n  0xff\n  mul\n  not\n  and\n  swap1\n  dup4\n  iszero\n  iszero\n  mul\n  or\n  swap1\n  sstore\n  pop\n  0x80\n  dup3\n  add\n  mload\n  dup2\n  0x04\n  add\n  swap1\n  dup1\n  mload\n  swap1\n  0x20\n  add\n  swap1\n  tag_10\n  swap3\n  swap2\n  swap1\n  tag_9\n  jump\t// in\ntag_10:\n  pop\n  0xa0\n  dup3\n  add\n  mload\n  dup2\n  0x05\n  add\n  swap1\n  dup1\n  mload\n  swap1\n  0x20\n  add\n  swap1\n  tag_11\n  swap3\n  swap2\n  swap1\n  tag_9\n  jump\t// in\ntag_11:\n  pop\n  0xc0\n  dup3\n  add\n  mload\n  dup2\n  0x06\n  add\n  sstore\n  swap1\n  pop\n  pop\n    /* \"Documents/GitHub/Store-system-with-feedback/main.sol\":383:391  shopList */\n  0x02\n    /* \"Documents/GitHub/Store-system-with-feedback/main.sol\":397:408  structShops */\n  0x00\n    /* \"Documents/GitHub/Store-system-with-feedback/main.sol\":397:452  structShops[0x5412E9b0e4Ef9d1546DF79ae907eeE34bDCF3004] */\n  dup1\n    /* \"Documents/GitHub/Store-system-with-feedback/main.sol\":409:451  0x5412E9b0e4Ef9d1546DF79ae907eeE34bDCF3004 */\n  0x5412e9b0e4ef9d1546df79ae907eee34bdcf3004\n    /* \"Documents/GitHub/Store-system-with-feedback/main.sol\":397:452  structShops[0x5412E9b0e4Ef9d1546DF79ae907eeE34bDCF3004] */\n  0xffffffffffffffffffffffffffffffffffffffff\n  and\n  0xffffffffffffffffffffffffffffffffffffffff\n  and\n  dup2\n  mstore\n  0x20\n  add\n  swap1\n  dup2\n  mstore\n  0x20\n  add\n  0x00\n  keccak256\n    /* \"Documents/GitHub/Store-system-with-feedback/main.sol\":397:461  structShops[0x5412E9b0e4Ef9d1546DF79ae907eeE34bDCF3004].shopName */\n  0x00\n  add\n    /* \"Documents/GitHub/Store-system-with-feedback/main.sol\":383:462  shopList.push(structShops[0x5412E9b0e4Ef9d1546DF79ae907eeE34bDCF3004].shopName) */\n  swap1\n  dup1\n  0x01\n  dup2\n  sload\n  add\n  dup1\n  dup3\n  sstore\n  dup1\n  swap2\n  pop\n  pop\n  0x01\n  swap1\n  sub\n  swap1\n  0x00\n  mstore\n  keccak256(0x00, 0x20)\n  add\n  0x00\n  swap1\n  swap2\n  swap1\n  swap2\n  swap1\n  swap2\n  pop\n  swap1\n  dup1\n  sload\n  tag_13\n  swap1\n  tag_14\n  jump\t// in\ntag_13:\n  tag_15\n  swap3\n  swap2\n  swap1\n  tag_16\n  jump\t// in\ntag_15:\n  pop\n    /* \"Documents/GitHub/Store-system-with-feedback/main.sol\":496:538  0x49C364fedaD517382ee5A776d3071f11CfDE4C5c */\n  0x49c364fedad517382ee5a776d3071f11cfde4c5c\n    /* \"Documents/GitHub/Store-system-with-feedback/main.sol\":473:482  shopLists */\n  0x01\n    /* \"Documents/GitHub/Store-system-with-feedback/main.sol\":473:493  shopLists[\"Product\"] */\n  mload(0x40)\n  tag_17\n  swap1\n  tag_18\n  jump\t// in\ntag_17:\n  swap1\n  dup2\n  mstore\n  0x20\n  add\n  mload(0x40)\n  dup1\n  swap2\n  sub\n  swap1\n  keccak256\n  0x00\n    /* \"Documents/GitHub/Store-system-with-feedback/main.sol\":473:538  shopLists[\"Product\"] = 0x49C364fedaD517382ee5A776d3071f11CfDE4C5c */\n  0x0100\n  exp\n  dup2\n  sload\n  dup2\n  0xffffffffffffffffffffffffffffffffffffffff\n  mul\n  not\n  and\n  swap1\n  dup4\n  0xffffffffffffffffffffffffffffffffffffffff\n  and\n  mul\n  or\n  swap1\n  sstore\n  pop\n    /* \"Documents/GitHub/Store-system-with-feedback/main.sol\":607:675  structShop(\"Product\", get_hash(\"2\"), 3, false, \"2\", \"Petersburg\", 0) */\n  mload(0x40)\n  dup1\n  0xe0\n  add\n  0x40\n  mstore\n  dup1\n  mload(0x40)\n  dup1\n  0x40\n  add\n  0x40\n  mstore\n  dup1\n  0x07\n  dup2\n  mstore\n  0x20\n  add\n  0x50726f6475637400000000000000000000000000000000000000000000000000\n  dup2\n  mstore\n  pop\n  dup2\n  mstore\n  0x20\n  add\n    /* \"Documents/GitHub/Store-system-with-feedback/main.sol\":629:642  get_hash(\"2\") */\n  tag_19\n  mload(0x40)\n  dup1\n  0x40\n  add\n  0x40\n  mstore\n  dup1\n  0x01\n  dup2\n  mstore\n  0x20\n  add\n  0x3200000000000000000000000000000000000000000000000000000000000000\n  dup2\n  mstore\n  pop\n    /* \"Documents/GitHub/Store-system-with-feedback/main.sol\":629:637  get_hash */\n  shl(0x20, tag_7)\n    /* \"Documents/GitHub/Store-system-with-feedback/main.sol\":629:642  get_hash(\"2\") */\n  0x20\n  shr\n  jump\t// in\ntag_19:\n    /* \"Documents/GitHub/Store-system-with-feedback/main.sol\":607:675  structShop(\"Product\", get_hash(\"2\"), 3, false, \"2\", \"Petersburg\", 0) */\n  dup2\n  mstore\n  0x20\n  add\n    /* \"Documents/GitHub/Store-system-with-feedback/main.sol\":644:645  3 */\n  0x03\n    /* \"Documents/GitHub/Store-system-with-feedback/main.sol\":607:675  structShop(\"Product\", get_hash(\"2\"), 3, false, \"2\", \"Petersburg\", 0) */\n  dup2\n  mstore\n  0x20\n  add\n    /* \"Documents/GitHub/Store-system-with-feedback/main.sol\":647:652  false */\n  0x00\n    /* \"Documents/GitHub/Store-system-with-feedback/main.sol\":607:675  structShop(\"Product\", get_hash(\"2\"), 3, false, \"2\", \"Petersburg\", 0) */\n  iszero\n  iszero\n  dup2\n  mstore\n  0x20\n  add\n  mload(0x40)\n  dup1\n  0x40\n  add\n  0x40\n  mstore\n  dup1\n  0x01\n  dup2\n  mstore\n  0x20\n  add\n  0x3200000000000000000000000000000000000000000000000000000000000000\n  dup2\n  mstore\n  pop\n  dup2\n  mstore\n  0x20\n  add\n  mload(0x40)\n  dup1\n  0x40\n  add\n  0x40\n  mstore\n  dup1\n  0x0a\n  dup2\n  mstore\n  0x20\n  add\n  0x5065746572736275726700000000000000000000000000000000000000000000\n  dup2\n  mstore\n  pop\n  dup2\n  mstore\n  0x20\n  add\n    /* \"Documents/GitHub/Store-system-with-feedback/main.sol\":673:674  0 */\n  0x00\n    /* \"Documents/GitHub/Store-system-with-feedback/main.sol\":607:675  structShop(\"Product\", get_hash(\"2\"), 3, false, \"2\", \"Petersburg\", 0) */\n  dup2\n  mstore\n  pop\n    /* \"Documents/GitHub/Store-system-with-feedback/main.sol\":549:560  structShops */\n  0x00\n    /* \"Documents/GitHub/Store-system-with-feedback/main.sol\":549:604  structShops[0x49C364fedaD517382ee5A776d3071f11CfDE4C5c] */\n  dup1\n    /* \"Documents/GitHub/Store-system-with-feedback/main.sol\":561:603  0x49C364fedaD517382ee5A776d3071f11CfDE4C5c */\n  0x49c364fedad517382ee5a776d3071f11cfde4c5c\n    /* \"Documents/GitHub/Store-system-with-feedback/main.sol\":549:604  structShops[0x49C364fedaD517382ee5A776d3071f11CfDE4C5c] */\n  0xffffffffffffffffffffffffffffffffffffffff\n  and\n  0xffffffffffffffffffffffffffffffffffffffff\n  and\n  dup2\n  mstore\n  0x20\n  add\n  swap1\n  dup2\n  mstore\n  0x20\n  add\n  0x00\n  keccak256\n    /* \"Documents/GitHub/Store-system-with-feedback/main.sol\":549:675  structShops[0x49C364fedaD517382ee5A776d3071f11CfDE4C5c] = structShop(\"Product\", get_hash(\"2\"), 3, false, \"2\", \"Petersburg\", 0) */\n  0x00\n  dup3\n  add\n  mload\n  dup2\n  0x00\n  add\n  swap1\n  dup1\n  mload\n  swap1\n  0x20\n  add\n  swap1\n  tag_20\n  swap3\n  swap2\n  swap1\n  tag_9\n  jump\t// in\ntag_20:\n  pop\n  0x20\n  dup3\n  add\n  mload\n  dup2\n  0x01\n  add\n  sstore\n  0x40\n  dup3\n  add\n  mload\n  dup2\n  0x02\n  add\n  sstore\n  0x60\n  dup3\n  add\n  mload\n  dup2\n  0x03\n  add\n  exp(0x0100, 0x00)\n  dup2\n  sload\n  dup2\n  0xff\n  mul\n  not\n  and\n  swap1\n  dup4\n  iszero\n  iszero\n  mul\n  or\n  swap1\n  sstore\n  pop\n  0x80\n  dup3\n  add\n  mload\n  dup2\n  0x04\n  add\n  swap1\n  dup1\n  mload\n  swap1\n  0x20\n  add\n  swap1\n  tag_21\n  swap3\n  swap2\n  swap1\n  tag_9\n  jump\t// in\ntag_21:\n  pop\n  0xa0\n  dup3\n  add\n  mload\n  dup2\n  0x05\n  add\n  swap1\n  dup1\n  mload\n  swap1\n  0x20\n  add\n  swap1\n  tag_22\n  swap3\n  swap2\n  swap1\n  tag_9\n  jump\t// in\ntag_22:\n  pop\n  0xc0\n  dup3\n  add\n  mload\n  dup2\n  0x06\n  add\n  sstore\n  swap1\n  pop\n  pop\n    /* \"Documents/GitHub/Store-system-with-feedback/main.sol\":686:694  shopList */\n  0x02\n    /* \"Documents/GitHub/Store-system-with-feedback/main.sol\":700:711  structShops */\n  0x00\n    /* \"Documents/GitHub/Store-system-with-feedback/main.sol\":700:755  structShops[0x49C364fedaD517382ee5A776d3071f11CfDE4C5c] */\n  dup1\n    /* \"Documents/GitHub/Store-system-with-feedback/main.sol\":712:754  0x49C364fedaD517382ee5A776d3071f11CfDE4C5c */\n  0x49c364fedad517382ee5a776d3071f11cfde4c5c\n    /* \"Documents/GitHub/Store-system-with-feedback/main.sol\":700:755  structShops[0x49C364fedaD517382ee5A776d3071f11CfDE4C5c] */\n  0xffffffffffffffffffffffffffffffffffffffff\n  and\n  0xffffffffffffffffffffffffffffffffffffffff\n  and\n  dup2\n  mstore\n  0x20\n  add\n  swap1\n  dup2\n  mstore\n  0x20\n  add\n  0x00\n  keccak256\n    /* \"Documents/GitHub/Store-system-with-feedback/main.sol\":700:764  structShops[0x49C364fedaD517382ee5A776d3071f11CfDE4C5c].shopName */\n  0x00\n  add\n    /* \"Documents/GitHub/Store-system-with-feedback/main.sol\":686:765  shopList.push(structShops[0x49C364fedaD517382ee5A776d3071f11CfDE4C5c].shopName) */\n  swap1\n  dup1\n  0x01\n  dup2\n  sload\n  add\n  dup1\n  dup3\n  sstore\n  dup1\n  swap2\n  pop\n  pop\n  0x01\n  swap1\n  sub\n  swap1\n  0x00\n  mstore\n  keccak256(0x00, 0x20)\n  add\n  0x00\n  swap1\n  swap2\n  swap1\n  swap2\n  swap1\n  swap2\n  pop\n  swap1\n  dup1\n  sload\n  tag_24\n  swap1\n  tag_14\n  jump\t// in\ntag_24:\n  tag_25\n  swap3\n  swap2\n  swap1\n  tag_16\n  jump\t// in\ntag_25:\n  pop\n    /* \"Documents/GitHub/Store-system-with-feedback/main.sol\":827:869  0xAdA67460CF329D12c1ed898710CC8Da5D40d8025 */\n  0xada67460cf329d12c1ed898710cc8da5d40d8025\n    /* \"Documents/GitHub/Store-system-with-feedback/main.sol\":800:816  structUserLogins */\n  0x05\n    /* \"Documents/GitHub/Store-system-with-feedback/main.sol\":800:824  structUserLogins[\"Peta\"] */\n  mload(0x40)\n  tag_26\n  swap1\n  tag_27\n  jump\t// in\ntag_26:\n  swap1\n  dup2\n  mstore\n  0x20\n  add\n  mload(0x40)\n  dup1\n  swap2\n  sub\n  swap1\n  keccak256\n  0x00\n    /* \"Documents/GitHub/Store-system-with-feedback/main.sol\":800:869  structUserLogins[\"Peta\"] = 0xAdA67460CF329D12c1ed898710CC8Da5D40d8025 */\n  0x0100\n  exp\n  dup2\n  sload\n  dup2\n  0xffffffffffffffffffffffffffffffffffffffff\n  mul\n  not\n  and\n  swap1\n  dup4\n  0xffffffffffffffffffffffffffffffffffffffff\n  and\n  mul\n  or\n  swap1\n  sstore\n  pop\n    /* \"Documents/GitHub/Store-system-with-feedback/main.sol\":938:981  structUser(\"Peta\", get_hash(\"3\"), 2, false) */\n  mload(0x40)\n  dup1\n  0x80\n  add\n  0x40\n  mstore\n  dup1\n  mload(0x40)\n  dup1\n  0x40\n  add\n  0x40\n  mstore\n  dup1\n  0x04\n  dup2\n  mstore\n  0x20\n  add\n  0x5065746100000000000000000000000000000000000000000000000000000000\n  dup2\n  mstore\n  pop\n  dup2\n  mstore\n  0x20\n  add\n    /* \"Documents/GitHub/Store-system-with-feedback/main.sol\":957:970  get_hash(\"3\") */\n  tag_28\n  mload(0x40)\n  dup1\n  0x40\n  add\n  0x40\n  mstore\n  dup1\n  0x01\n  dup2\n  mstore\n  0x20\n  add\n  0x3300000000000000000000000000000000000000000000000000000000000000\n  dup2\n  mstore\n  pop\n    /* \"Documents/GitHub/Store-system-with-feedback/main.sol\":957:965  get_hash */\n  shl(0x20, tag_7)\n    /* \"Documents/GitHub/Store-system-with-feedback/main.sol\":957:970  get_hash(\"3\") */\n  0x20\n  shr\n  jump\t// in\ntag_28:\n    /* \"Documents/GitHub/Store-system-with-feedback/main.sol\":938:981  structUser(\"Peta\", get_hash(\"3\"), 2, false) */\n  dup2\n  mstore\n  0x20\n  add\n    /* \"Documents/GitHub/Store-system-with-feedback/main.sol\":972:973  2 */\n  0x02\n    /* \"Documents/GitHub/Store-system-with-feedback/main.sol\":938:981  structUser(\"Peta\", get_hash(\"3\"), 2, false) */\n  dup2\n  mstore\n  0x20\n  add\n    /* \"Documents/GitHub/Store-system-with-feedback/main.sol\":975:980  false */\n  0x00\n    /* \"Documents/GitHub/Store-system-with-feedback/main.sol\":938:981  structUser(\"Peta\", get_hash(\"3\"), 2, false) */\n  iszero\n  iszero\n  dup2\n  mstore\n  pop\n    /* \"Documents/GitHub/Store-system-with-feedback/main.sol\":880:891  structUsers */\n  0x04\n    /* \"Documents/GitHub/Store-system-with-feedback/main.sol\":880:935  structUsers[0xAdA67460CF329D12c1ed898710CC8Da5D40d8025] */\n  0x00\n    /* \"Documents/GitHub/Store-system-with-feedback/main.sol\":892:934  0xAdA67460CF329D12c1ed898710CC8Da5D40d8025 */\n  0xada67460cf329d12c1ed898710cc8da5d40d8025\n    /* \"Documents/GitHub/Store-system-with-feedback/main.sol\":880:935  structUsers[0xAdA67460CF329D12c1ed898710CC8Da5D40d8025] */\n  0xffffffffffffffffffffffffffffffffffffffff\n  and\n  0xffffffffffffffffffffffffffffffffffffffff\n  and\n  dup2\n  mstore\n  0x20\n  add\n  swap1\n  dup2\n  mstore\n  0x20\n  add\n  0x00\n  keccak256\n    /* \"Documents/GitHub/Store-system-with-feedback/main.sol\":880:981  structUsers[0xAdA67460CF329D12c1ed898710CC8Da5D40d8025] = structUser(\"Peta\", get_hash(\"3\"), 2, false) */\n  0x00\n  dup3\n  add\n  mload\n  dup2\n  0x00\n  add\n  swap1\n  dup1\n  mload\n  swap1\n  0x20\n  add\n  swap1\n  tag_29\n  swap3\n  swap2\n  swap1\n  tag_9\n  jump\t// in\ntag_29:\n  pop\n  0x20\n  dup3\n  add\n  mload\n  dup2\n  0x01\n  add\n  sstore\n  0x40\n  dup3\n  add\n  mload\n  dup2\n  0x02\n  add\n  sstore\n  0x60\n  dup3\n  add\n  mload\n  dup2\n  0x03\n  add\n  exp(0x0100, 0x00)\n  dup2\n  sload\n  dup2\n  0xff\n  mul\n  not\n  and\n  swap1\n  dup4\n  iszero\n  iszero\n  mul\n  or\n  swap1\n  sstore\n  pop\n  swap1\n  pop\n  pop\n    /* \"Documents/GitHub/Store-system-with-feedback/main.sol\":992:1007  userLoginsArray */\n  0x06\n    /* \"Documents/GitHub/Store-system-with-feedback/main.sol\":992:1020  userLoginsArray.push(\"Peta\") */\n  dup1\n  0x01\n  dup2\n  sload\n  add\n  dup1\n  dup3\n  sstore\n  dup1\n  swap2\n  pop\n  pop\n  0x01\n  swap1\n  sub\n  swap1\n  0x00\n  mstore\n  keccak256(0x00, 0x20)\n  add\n  0x00\n  mload(0x40)\n  dup1\n  0x40\n  add\n  0x40\n  mstore\n  dup1\n  0x04\n  dup2\n  mstore\n  0x20\n  add\n  0x5065746100000000000000000000000000000000000000000000000000000000\n  dup2\n  mstore\n  pop\n  swap1\n  swap2\n  swap1\n  swap2\n  pop\n  swap1\n  dup1\n  mload\n  swap1\n  0x20\n  add\n  swap1\n  tag_31\n  swap3\n  swap2\n  swap1\n  tag_9\n  jump\t// in\ntag_31:\n  pop\n    /* \"Documents/GitHub/Store-system-with-feedback/main.sol\":1031:1047  userAddressArray */\n  0x07\n    /* \"Documents/GitHub/Store-system-with-feedback/main.sol\":1053:1095  0xAdA67460CF329D12c1ed898710CC8Da5D40d8025 */\n  0xada67460cf329d12c1ed898710cc8da5d40d8025\n    /* \"Documents/GitHub/Store-system-with-feedback/main.sol\":1031:1096  userAddressArray.push(0xAdA67460CF329D12c1ed898710CC8Da5D40d8025) */\n  swap1\n  dup1\n  0x01\n  dup2\n  sload\n  add\n  dup1\n  dup3\n  sstore\n  dup1\n  swap2\n  pop\n  pop\n  0x01\n  swap1\n  sub\n  swap1\n  0x00\n  mstore\n  keccak256(0x00, 0x20)\n  add\n  0x00\n  swap1\n  swap2\n  swap1\n  swap2\n  swap1\n  swap2\n  0x0100\n  exp\n  dup2\n  sload\n  dup2\n  0xffffffffffffffffffffffffffffffffffffffff\n  mul\n  not\n  and\n  swap1\n  dup4\n  0xffffffffffffffffffffffffffffffffffffffff\n  and\n  mul\n  or\n  swap1\n  sstore\n  pop\n    /* \"Documents/GitHub/Store-system-with-feedback/main.sol\":74:12537  contract coursepaper {\r... */\n  jump(tag_33)\n    /* \"Documents/GitHub/Store-system-with-feedback/main.sol\":3114:3253  function get_hash(string memory password) public pure returns(bytes32) {\r... */\ntag_7:\n    /* \"Documents/GitHub/Store-system-with-feedback/main.sol\":3176:3183  bytes32 */\n  0x00\n    /* \"Documents/GitHub/Store-system-with-feedback/main.sol\":3234:3242  password */\n  dup2\n    /* \"Documents/GitHub/Store-system-with-feedback/main.sol\":3217:3243  abi.encodePacked(password) */\n  add(0x20, mload(0x40))\n  tag_35\n  swap2\n  swap1\n  tag_36\n  jump\t// in\ntag_35:\n  mload(0x40)\n  0x20\n  dup2\n  dup4\n  sub\n  sub\n  dup2\n  mstore\n  swap1\n  0x40\n  mstore\n    /* \"Documents/GitHub/Store-system-with-feedback/main.sol\":3207:3244  keccak256(abi.encodePacked(password)) */\n  dup1\n  mload\n  swap1\n  0x20\n  add\n  keccak256\n    /* \"Documents/GitHub/Store-system-with-feedback/main.sol\":3200:3245  return(keccak256(abi.encodePacked(password))) */\n  swap1\n  pop\n    /* \"Documents/GitHub/Store-system-with-feedback/main.sol\":3114:3253  function get_hash(string memory password) public pure returns(bytes32) {\r... */\n  swap2\n  swap1\n  pop\n  jump\t// out\n    /* \"Documents/GitHub/Store-system-with-feedback/main.sol\":74:12537  contract coursepaper {\r... */\ntag_9:\n  dup3\n  dup1\n  sload\n  tag_37\n  swap1\n  tag_14\n  jump\t// in\ntag_37:\n  swap1\n  0x00\n  mstore\n  keccak256(0x00, 0x20)\n  swap1\n  0x1f\n  add\n  0x20\n  swap1\n  div\n  dup2\n  add\n  swap3\n  dup3\n  tag_39\n  jumpi\n  0x00\n  dup6\n  sstore\n  jump(tag_38)\ntag_39:\n  dup3\n  0x1f\n  lt\n  tag_40\n  jumpi\n  dup1\n  mload\n  not(0xff)\n  and\n  dup4\n  dup1\n  add\n  or\n  dup6\n  sstore\n  jump(tag_38)\ntag_40:\n  dup3\n  dup1\n  add\n  0x01\n  add\n  dup6\n  sstore\n  dup3\n  iszero\n  tag_38\n  jumpi\n  swap2\n  dup3\n  add\ntag_41:\n  dup3\n  dup2\n  gt\n  iszero\n  tag_42\n  jumpi\n  dup3\n  mload\n  dup3\n  sstore\n  swap2\n  0x20\n  add\n  swap2\n  swap1\n  0x01\n  add\n  swap1\n  jump(tag_41)\ntag_42:\ntag_38:\n  pop\n  swap1\n  pop\n  tag_43\n  swap2\n  swap1\n  tag_44\n  jump\t// in\ntag_43:\n  pop\n  swap1\n  jump\t// out\ntag_16:\n  dup3\n  dup1\n  sload\n  tag_45\n  swap1\n  tag_14\n  jump\t// in\ntag_45:\n  swap1\n  0x00\n  mstore\n  keccak256(0x00, 0x20)\n  swap1\n  0x1f\n  add\n  0x20\n  swap1\n  div\n  dup2\n  add\n  swap3\n  dup3\n  tag_47\n  jumpi\n  0x00\n  dup6\n  sstore\n  jump(tag_46)\ntag_47:\n  dup3\n  0x1f\n  lt\n  tag_48\n  jumpi\n  dup1\n  sload\n  dup6\n  sstore\n  jump(tag_46)\ntag_48:\n  dup3\n  dup1\n  add\n  0x01\n  add\n  dup6\n  sstore\n  dup3\n  iszero\n  tag_46\n  jumpi\n  0x00\n  mstore\n  keccak256(0x00, 0x20)\n  swap2\n  0x1f\n  add\n  0x20\n  swap1\n  div\n  dup3\n  add\ntag_49:\n  dup3\n  dup2\n  gt\n  iszero\n  tag_50\n  jumpi\n  dup3\n  sload\n  dup3\n  sstore\n  swap2\n  0x01\n  add\n  swap2\n  swap1\n  0x01\n  add\n  swap1\n  jump(tag_49)\ntag_50:\ntag_46:\n  pop\n  swap1\n  pop\n  tag_51\n  swap2\n  swap1\n  tag_44\n  jump\t// in\ntag_51:\n  pop\n  swap1\n  jump\t// out\ntag_44:\ntag_52:\n  dup1\n  dup3\n  gt\n  iszero\n  tag_53\n  jumpi\n  0x00\n  dup2\n  0x00\n  swap1\n  sstore\n  pop\n  0x01\n  add\n  jump(tag_52)\ntag_53:\n  pop\n  swap1\n  jump\t// out\n    /* \"#utility.yul\":7:384   */\ntag_55:\n    /* \"#utility.yul\":113:116   */\n  0x00\n    /* \"#utility.yul\":141:180   */\n  tag_57\n    /* \"#utility.yul\":174:179   */\n  dup3\n    /* \"#utility.yul\":141:180   */\n  tag_58\n  jump\t// in\ntag_57:\n    /* \"#utility.yul\":196:285   */\n  tag_59\n    /* \"#utility.yul\":278:284   */\n  dup2\n    /* \"#utility.yul\":273:276   */\n  dup6\n    /* \"#utility.yul\":196:285   */\n  tag_60\n  jump\t// in\ntag_59:\n    /* \"#utility.yul\":189:285   */\n  swap4\n  pop\n    /* \"#utility.yul\":294:346   */\n  tag_61\n    /* \"#utility.yul\":339:345   */\n  dup2\n    /* \"#utility.yul\":334:337   */\n  dup6\n    /* \"#utility.yul\":327:331   */\n  0x20\n    /* \"#utility.yul\":320:325   */\n  dup7\n    /* \"#utility.yul\":316:332   */\n  add\n    /* \"#utility.yul\":294:346   */\n  tag_62\n  jump\t// in\ntag_61:\n    /* \"#utility.yul\":371:377   */\n  dup1\n    /* \"#utility.yul\":366:369   */\n  dup5\n    /* \"#utility.yul\":362:378   */\n  add\n    /* \"#utility.yul\":355:378   */\n  swap2\n  pop\n    /* \"#utility.yul\":117:384   */\n  pop\n    /* \"#utility.yul\":7:384   */\n  swap3\n  swap2\n  pop\n  pop\n  jump\t// out\n    /* \"#utility.yul\":390:790   */\ntag_63:\n    /* \"#utility.yul\":550:553   */\n  0x00\n    /* \"#utility.yul\":571:655   */\n  tag_65\n    /* \"#utility.yul\":653:654   */\n  0x04\n    /* \"#utility.yul\":648:651   */\n  dup4\n    /* \"#utility.yul\":571:655   */\n  tag_60\n  jump\t// in\ntag_65:\n    /* \"#utility.yul\":564:655   */\n  swap2\n  pop\n    /* \"#utility.yul\":664:757   */\n  tag_66\n    /* \"#utility.yul\":753:756   */\n  dup3\n    /* \"#utility.yul\":664:757   */\n  tag_67\n  jump\t// in\ntag_66:\n    /* \"#utility.yul\":782:783   */\n  0x04\n    /* \"#utility.yul\":777:780   */\n  dup3\n    /* \"#utility.yul\":773:784   */\n  add\n    /* \"#utility.yul\":766:784   */\n  swap1\n  pop\n    /* \"#utility.yul\":390:790   */\n  swap2\n  swap1\n  pop\n  jump\t// out\n    /* \"#utility.yul\":796:1196   */\ntag_68:\n    /* \"#utility.yul\":956:959   */\n  0x00\n    /* \"#utility.yul\":977:1061   */\n  tag_70\n    /* \"#utility.yul\":1059:1060   */\n  0x07\n    /* \"#utility.yul\":1054:1057   */\n  dup4\n    /* \"#utility.yul\":977:1061   */\n  tag_60\n  jump\t// in\ntag_70:\n    /* \"#utility.yul\":970:1061   */\n  swap2\n  pop\n    /* \"#utility.yul\":1070:1163   */\n  tag_71\n    /* \"#utility.yul\":1159:1162   */\n  dup3\n    /* \"#utility.yul\":1070:1163   */\n  tag_72\n  jump\t// in\ntag_71:\n    /* \"#utility.yul\":1188:1189   */\n  0x07\n    /* \"#utility.yul\":1183:1186   */\n  dup3\n    /* \"#utility.yul\":1179:1190   */\n  add\n    /* \"#utility.yul\":1172:1190   */\n  swap1\n  pop\n    /* \"#utility.yul\":796:1196   */\n  swap2\n  swap1\n  pop\n  jump\t// out\n    /* \"#utility.yul\":1202:1602   */\ntag_73:\n    /* \"#utility.yul\":1362:1365   */\n  0x00\n    /* \"#utility.yul\":1383:1467   */\n  tag_75\n    /* \"#utility.yul\":1465:1466   */\n  0x04\n    /* \"#utility.yul\":1460:1463   */\n  dup4\n    /* \"#utility.yul\":1383:1467   */\n  tag_60\n  jump\t// in\ntag_75:\n    /* \"#utility.yul\":1376:1467   */\n  swap2\n  pop\n    /* \"#utility.yul\":1476:1569   */\n  tag_76\n    /* \"#utility.yul\":1565:1568   */\n  dup3\n    /* \"#utility.yul\":1476:1569   */\n  tag_77\n  jump\t// in\ntag_76:\n    /* \"#utility.yul\":1594:1595   */\n  0x04\n    /* \"#utility.yul\":1589:1592   */\n  dup3\n    /* \"#utility.yul\":1585:1596   */\n  add\n    /* \"#utility.yul\":1578:1596   */\n  swap1\n  pop\n    /* \"#utility.yul\":1202:1602   */\n  swap2\n  swap1\n  pop\n  jump\t// out\n    /* \"#utility.yul\":1608:1883   */\ntag_36:\n    /* \"#utility.yul\":1740:1743   */\n  0x00\n    /* \"#utility.yul\":1762:1857   */\n  tag_79\n    /* \"#utility.yul\":1853:1856   */\n  dup3\n    /* \"#utility.yul\":1844:1850   */\n  dup5\n    /* \"#utility.yul\":1762:1857   */\n  tag_55\n  jump\t// in\ntag_79:\n    /* \"#utility.yul\":1755:1857   */\n  swap2\n  pop\n    /* \"#utility.yul\":1874:1877   */\n  dup2\n    /* \"#utility.yul\":1867:1877   */\n  swap1\n  pop\n    /* \"#utility.yul\":1608:1883   */\n  swap3\n  swap2\n  pop\n  pop\n  jump\t// out\n    /* \"#utility.yul\":1889:2270   */\ntag_27:\n    /* \"#utility.yul\":2074:2077   */\n  0x00\n    /* \"#utility.yul\":2096:2244   */\n  tag_81\n    /* \"#utility.yul\":2240:2243   */\n  dup3\n    /* \"#utility.yul\":2096:2244   */\n  tag_63\n  jump\t// in\ntag_81:\n    /* \"#utility.yul\":2089:2244   */\n  swap2\n  pop\n    /* \"#utility.yul\":2261:2264   */\n  dup2\n    /* \"#utility.yul\":2254:2264   */\n  swap1\n  pop\n    /* \"#utility.yul\":1889:2270   */\n  swap2\n  swap1\n  pop\n  jump\t// out\n    /* \"#utility.yul\":2276:2657   */\ntag_18:\n    /* \"#utility.yul\":2461:2464   */\n  0x00\n    /* \"#utility.yul\":2483:2631   */\n  tag_83\n    /* \"#utility.yul\":2627:2630   */\n  dup3\n    /* \"#utility.yul\":2483:2631   */\n  tag_68\n  jump\t// in\ntag_83:\n    /* \"#utility.yul\":2476:2631   */\n  swap2\n  pop\n    /* \"#utility.yul\":2648:2651   */\n  dup2\n    /* \"#utility.yul\":2641:2651   */\n  swap1\n  pop\n    /* \"#utility.yul\":2276:2657   */\n  swap2\n  swap1\n  pop\n  jump\t// out\n    /* \"#utility.yul\":2663:3044   */\ntag_5:\n    /* \"#utility.yul\":2848:2851   */\n  0x00\n    /* \"#utility.yul\":2870:3018   */\n  tag_85\n    /* \"#utility.yul\":3014:3017   */\n  dup3\n    /* \"#utility.yul\":2870:3018   */\n  tag_73\n  jump\t// in\ntag_85:\n    /* \"#utility.yul\":2863:3018   */\n  swap2\n  pop\n    /* \"#utility.yul\":3035:3038   */\n  dup2\n    /* \"#utility.yul\":3028:3038   */\n  swap1\n  pop\n    /* \"#utility.yul\":2663:3044   */\n  swap2\n  swap1\n  pop\n  jump\t// out\n    /* \"#utility.yul\":3050:3149   */\ntag_58:\n    /* \"#utility.yul\":3102:3108   */\n  0x00\n    /* \"#utility.yul\":3136:3141   */\n  dup2\n    /* \"#utility.yul\":3130:3142   */\n  mload\n    /* \"#utility.yul\":3120:3142   */\n  swap1\n  pop\n    /* \"#utility.yul\":3050:3149   */\n  swap2\n  swap1\n  pop\n  jump\t// out\n    /* \"#utility.yul\":3155:3303   */\ntag_60:\n    /* \"#utility.yul\":3257:3268   */\n  0x00\n    /* \"#utility.yul\":3294:3297   */\n  dup2\n    /* \"#utility.yul\":3279:3297   */\n  swap1\n  pop\n    /* \"#utility.yul\":3155:3303   */\n  swap3\n  swap2\n  pop\n  pop\n  jump\t// out\n    /* \"#utility.yul\":3309:3616   */\ntag_62:\n    /* \"#utility.yul\":3377:3378   */\n  0x00\n    /* \"#utility.yul\":3387:3500   */\ntag_89:\n    /* \"#utility.yul\":3401:3407   */\n  dup4\n    /* \"#utility.yul\":3398:3399   */\n  dup2\n    /* \"#utility.yul\":3395:3408   */\n  lt\n    /* \"#utility.yul\":3387:3500   */\n  iszero\n  tag_91\n  jumpi\n    /* \"#utility.yul\":3486:3487   */\n  dup1\n    /* \"#utility.yul\":3481:3484   */\n  dup3\n    /* \"#utility.yul\":3477:3488   */\n  add\n    /* \"#utility.yul\":3471:3489   */\n  mload\n    /* \"#utility.yul\":3467:3468   */\n  dup2\n    /* \"#utility.yul\":3462:3465   */\n  dup5\n    /* \"#utility.yul\":3458:3469   */\n  add\n    /* \"#utility.yul\":3451:3490   */\n  mstore\n    /* \"#utility.yul\":3423:3425   */\n  0x20\n    /* \"#utility.yul\":3420:3421   */\n  dup2\n    /* \"#utility.yul\":3416:3426   */\n  add\n    /* \"#utility.yul\":3411:3426   */\n  swap1\n  pop\n    /* \"#utility.yul\":3387:3500   */\n  jump(tag_89)\ntag_91:\n    /* \"#utility.yul\":3518:3524   */\n  dup4\n    /* \"#utility.yul\":3515:3516   */\n  dup2\n    /* \"#utility.yul\":3512:3525   */\n  gt\n    /* \"#utility.yul\":3509:3610   */\n  iszero\n  tag_92\n  jumpi\n    /* \"#utility.yul\":3598:3599   */\n  0x00\n    /* \"#utility.yul\":3589:3595   */\n  dup5\n    /* \"#utility.yul\":3584:3587   */\n  dup5\n    /* \"#utility.yul\":3580:3596   */\n  add\n    /* \"#utility.yul\":3573:3600   */\n  mstore\n    /* \"#utility.yul\":3509:3610   */\ntag_92:\n    /* \"#utility.yul\":3358:3616   */\n  pop\n    /* \"#utility.yul\":3309:3616   */\n  pop\n  pop\n  pop\n  jump\t// out\n    /* \"#utility.yul\":3622:3942   */\ntag_14:\n    /* \"#utility.yul\":3666:3672   */\n  0x00\n    /* \"#utility.yul\":3703:3704   */\n  0x02\n    /* \"#utility.yul\":3697:3701   */\n  dup3\n    /* \"#utility.yul\":3693:3705   */\n  div\n    /* \"#utility.yul\":3683:3705   */\n  swap1\n  pop\n    /* \"#utility.yul\":3750:3751   */\n  0x01\n    /* \"#utility.yul\":3744:3748   */\n  dup3\n    /* \"#utility.yul\":3740:3752   */\n  and\n    /* \"#utility.yul\":3771:3789   */\n  dup1\n    /* \"#utility.yul\":3761:3842   */\n  tag_94\n  jumpi\n    /* \"#utility.yul\":3827:3831   */\n  0x7f\n    /* \"#utility.yul\":3819:3825   */\n  dup3\n    /* \"#utility.yul\":3815:3832   */\n  and\n    /* \"#utility.yul\":3805:3832   */\n  swap2\n  pop\n    /* \"#utility.yul\":3761:3842   */\ntag_94:\n    /* \"#utility.yul\":3889:3891   */\n  0x20\n    /* \"#utility.yul\":3881:3887   */\n  dup3\n    /* \"#utility.yul\":3878:3892   */\n  lt\n    /* \"#utility.yul\":3858:3876   */\n  dup2\n    /* \"#utility.yul\":3855:3893   */\n  eq\n    /* \"#utility.yul\":3852:3936   */\n  iszero\n  tag_95\n  jumpi\n    /* \"#utility.yul\":3908:3926   */\n  tag_96\n  tag_97\n  jump\t// in\ntag_96:\n    /* \"#utility.yul\":3852:3936   */\ntag_95:\n    /* \"#utility.yul\":3673:3942   */\n  pop\n    /* \"#utility.yul\":3622:3942   */\n  swap2\n  swap1\n  pop\n  jump\t// out\n    /* \"#utility.yul\":3948:4128   */\ntag_97:\n    /* \"#utility.yul\":3996:4073   */\n  0x4e487b7100000000000000000000000000000000000000000000000000000000\n    /* \"#utility.yul\":3993:3994   */\n  0x00\n    /* \"#utility.yul\":3986:4074   */\n  mstore\n    /* \"#utility.yul\":4093:4097   */\n  0x22\n    /* \"#utility.yul\":4090:4091   */\n  0x04\n    /* \"#utility.yul\":4083:4098   */\n  mstore\n    /* \"#utility.yul\":4117:4121   */\n  0x24\n    /* \"#utility.yul\":4114:4115   */\n  0x00\n    /* \"#utility.yul\":4107:4122   */\n  revert\n    /* \"#utility.yul\":4134:4288   */\ntag_67:\n    /* \"#utility.yul\":4274:4280   */\n  0x5065746100000000000000000000000000000000000000000000000000000000\n    /* \"#utility.yul\":4270:4271   */\n  0x00\n    /* \"#utility.yul\":4262:4268   */\n  dup3\n    /* \"#utility.yul\":4258:4272   */\n  add\n    /* \"#utility.yul\":4251:4281   */\n  mstore\n    /* \"#utility.yul\":4134:4288   */\n  pop\n  jump\t// out\n    /* \"#utility.yul\":4294:4451   */\ntag_72:\n    /* \"#utility.yul\":4434:4443   */\n  0x50726f6475637400000000000000000000000000000000000000000000000000\n    /* \"#utility.yul\":4430:4431   */\n  0x00\n    /* \"#utility.yul\":4422:4428   */\n  dup3\n    /* \"#utility.yul\":4418:4432   */\n  add\n    /* \"#utility.yul\":4411:4444   */\n  mstore\n    /* \"#utility.yul\":4294:4451   */\n  pop\n  jump\t// out\n    /* \"#utility.yul\":4457:4611   */\ntag_77:\n    /* \"#utility.yul\":4597:4603   */\n  0x4265657200000000000000000000000000000000000000000000000000000000\n    /* \"#utility.yul\":4593:4594   */\n  0x00\n    /* \"#utility.yul\":4585:4591   */\n  dup3\n    /* \"#utility.yul\":4581:4595   */\n  add\n    /* \"#utility.yul\":4574:4604   */\n  mstore\n    /* \"#utility.yul\":4457:4611   */\n  pop\n  jump\t// out\n    /* \"Documents/GitHub/Store-system-with-feedback/main.sol\":74:12537  contract coursepaper {\r... */\ntag_33:\n  dataSize(sub_0)\n  dup1\n  dataOffset(sub_0)\n  0x00\n  codecopy\n  0x00\n  return\nstop\n\nsub_0: assembly {\n        /* \"Documents/GitHub/Store-system-with-feedback/main.sol\":74:12537  contract coursepaper {\r... */\n      mstore(0x40, 0x80)\n      jumpi(tag_1, lt(calldatasize, 0x04))\n      shr(0xe0, calldataload(0x00))\n      dup1\n      0x6ba44d3c\n      gt\n      tag_35\n      jumpi\n      dup1\n      0xa985036d\n      gt\n      tag_36\n      jumpi\n      dup1\n      0xcc21c188\n      gt\n      tag_37\n      jumpi\n      dup1\n      0xcc21c188\n      eq\n      tag_30\n      jumpi\n      dup1\n      0xd22d9020\n      eq\n      tag_31\n      jumpi\n      dup1\n      0xd68cf8c1\n      eq\n      tag_32\n      jumpi\n      dup1\n      0xdce39151\n      eq\n      tag_33\n      jumpi\n      dup1\n      0xf7647f36\n      eq\n      tag_34\n      jumpi\n      jump(tag_1)\n    tag_37:\n      dup1\n      0xa985036d\n      eq\n      tag_26\n      jumpi\n      dup1\n      0xa9f9482b\n      eq\n      tag_27\n      jumpi\n      dup1\n      0xbbd43363\n      eq\n      tag_28\n      jumpi\n      dup1\n      0xc4957fa0\n      eq\n      tag_29\n      jumpi\n      jump(tag_1)\n    tag_36:\n      dup1\n      0x845952a8\n      gt\n      tag_38\n      jumpi\n      dup1\n      0x845952a8\n      eq\n      tag_22\n      jumpi\n      dup1\n      0x87048043\n      eq\n      tag_23\n      jumpi\n      dup1\n      0x8e23cb40\n      eq\n      tag_24\n      jumpi\n      dup1\n      0x961865f0\n      eq\n      tag_25\n      jumpi\n      jump(tag_1)\n    tag_38:\n      dup1\n      0x6ba44d3c\n      eq\n      tag_18\n      jumpi\n      dup1\n      0x6c05dd1d\n      eq\n      tag_19\n      jumpi\n      dup1\n      0x73b62bd0\n      eq\n      tag_20\n      jumpi\n      dup1\n      0x775eb9e6\n      eq\n      tag_21\n      jumpi\n      jump(tag_1)\n    tag_35:\n      dup1\n      0x2ccdef7c\n      gt\n      tag_39\n      jumpi\n      dup1\n      0x5828c584\n      gt\n      tag_40\n      jumpi\n      dup1\n      0x5828c584\n      eq\n      tag_14\n      jumpi\n      dup1\n      0x5bbc9a3f\n      eq\n      tag_15\n      jumpi\n      dup1\n      0x5bd37c9e\n      eq\n      tag_16\n      jumpi\n      dup1\n      0x5bdb63fa\n      eq\n      tag_17\n      jumpi\n      jump(tag_1)\n    tag_40:\n      dup1\n      0x2ccdef7c\n      eq\n      tag_10\n      jumpi\n      dup1\n      0x3b84aedc\n      eq\n      tag_11\n      jumpi\n      dup1\n      0x521b9170\n      eq\n      tag_12\n      jumpi\n      dup1\n      0x55149fd5\n      eq\n      tag_13\n      jumpi\n      jump(tag_1)\n    tag_39:\n      dup1\n      0x1bbe970a\n      gt\n      tag_41\n      jumpi\n      dup1\n      0x1bbe970a\n      eq\n      tag_6\n      jumpi\n      dup1\n      0x1e279a37\n      eq\n      tag_7\n      jumpi\n      dup1\n      0x1f8daac8\n      eq\n      tag_8\n      jumpi\n      dup1\n      0x29e795f3\n      eq\n      tag_9\n      jumpi\n      jump(tag_1)\n    tag_41:\n      dup1\n      0x033ff0b8\n      eq\n      tag_2\n      jumpi\n      dup1\n      0x04ac16f6\n      eq\n      tag_3\n      jumpi\n      dup1\n      0x0e1c81b2\n      eq\n      tag_4\n      jumpi\n      dup1\n      0x146dc6ed\n      eq\n      tag_5\n      jumpi\n    tag_1:\n      0x00\n      dup1\n      revert\n        /* \"Documents/GitHub/Store-system-with-feedback/main.sol\":1899:2038  function get_role_shop(string memory login) public view returns(uint) {\r... */\n    tag_2:\n      callvalue\n      dup1\n      iszero\n      tag_42\n      jumpi\n      0x00\n      dup1\n      revert\n    tag_42:\n      pop\n      tag_43\n      0x04\n      dup1\n      calldatasize\n      sub\n      dup2\n      add\n      swap1\n      tag_44\n      swap2\n      swap1\n      tag_45\n      jump\t// in\n    tag_44:\n      tag_46\n      jump\t// in\n    tag_43:\n      mload(0x40)\n      tag_47\n      swap2\n      swap1\n      tag_48\n      jump\t// in\n    tag_47:\n      mload(0x40)\n      dup1\n      swap2\n      sub\n      swap1\n      return\n        /* \"Documents/GitHub/Store-system-with-feedback/main.sol\":10479:10594  function login_out_shop(string memory login) public {\r... */\n    tag_3:\n      callvalue\n      dup1\n      iszero\n      tag_49\n      jumpi\n      0x00\n      dup1\n      revert\n    tag_49:\n      pop\n      tag_50\n      0x04\n      dup1\n      calldatasize\n      sub\n      dup2\n      add\n      swap1\n      tag_51\n      swap2\n      swap1\n      tag_45\n      jump\t// in\n    tag_51:\n      tag_52\n      jump\t// in\n    tag_50:\n      stop\n        /* \"Documents/GitHub/Store-system-with-feedback/main.sol\":11462:11784  function create_user(address addr, string memory login, bytes32 password) public {\r... */\n    tag_4:\n      callvalue\n      dup1\n      iszero\n      tag_53\n      jumpi\n      0x00\n      dup1\n      revert\n    tag_53:\n      pop\n      tag_54\n      0x04\n      dup1\n      calldatasize\n      sub\n      dup2\n      add\n      swap1\n      tag_55\n      swap2\n      swap1\n      tag_56\n      jump\t// in\n    tag_55:\n      tag_57\n      jump\t// in\n    tag_54:\n      stop\n        /* \"Documents/GitHub/Store-system-with-feedback/main.sol\":10683:10951  function productPurchases(string memory titleProduct) public payable {\r... */\n    tag_5:\n      tag_58\n      0x04\n      dup1\n      calldatasize\n      sub\n      dup2\n      add\n      swap1\n      tag_59\n      swap2\n      swap1\n      tag_45\n      jump\t// in\n    tag_59:\n      tag_60\n      jump\t// in\n    tag_58:\n      stop\n        /* \"Documents/GitHub/Store-system-with-feedback/main.sol\":4720:4770  mapping(string => address) public structUserLogins */\n    tag_6:\n      callvalue\n      dup1\n      iszero\n      tag_61\n      jumpi\n      0x00\n      dup1\n      revert\n    tag_61:\n      pop\n      tag_62\n      0x04\n      dup1\n      calldatasize\n      sub\n      dup2\n      add\n      swap1\n      tag_63\n      swap2\n      swap1\n      tag_45\n      jump\t// in\n    tag_63:\n      tag_64\n      jump\t// in\n    tag_62:\n      mload(0x40)\n      tag_65\n      swap2\n      swap1\n      tag_66\n      jump\t// in\n    tag_65:\n      mload(0x40)\n      dup1\n      swap2\n      sub\n      swap1\n      return\n        /* \"Documents/GitHub/Store-system-with-feedback/main.sol\":2910:3047  function get_balance(address adr) public view returns (uint) {\r... */\n    tag_7:\n      callvalue\n      dup1\n      iszero\n      tag_67\n      jumpi\n      0x00\n      dup1\n      revert\n    tag_67:\n      pop\n      tag_68\n      0x04\n      dup1\n      calldatasize\n      sub\n      dup2\n      add\n      swap1\n      tag_69\n      swap2\n      swap1\n      tag_70\n      jump\t// in\n    tag_69:\n      tag_71\n      jump\t// in\n    tag_68:\n      mload(0x40)\n      tag_72\n      swap2\n      swap1\n      tag_48\n      jump\t// in\n    tag_72:\n      mload(0x40)\n      dup1\n      swap2\n      sub\n      swap1\n      return\n        /* \"Documents/GitHub/Store-system-with-feedback/main.sol\":1267:1371  function get_shop_list() public view returns(string[] memory) {\r... */\n    tag_8:\n      callvalue\n      dup1\n      iszero\n      tag_73\n      jumpi\n      0x00\n      dup1\n      revert\n    tag_73:\n      pop\n      tag_74\n      tag_75\n      jump\t// in\n    tag_74:\n      mload(0x40)\n      tag_76\n      swap2\n      swap1\n      tag_77\n      jump\t// in\n    tag_76:\n      mload(0x40)\n      dup1\n      swap2\n      sub\n      swap1\n      return\n        /* \"Documents/GitHub/Store-system-with-feedback/main.sol\":9497:9916  function leaveComment (string memory userName, string[] memory comment) public {\r... */\n    tag_9:\n      callvalue\n      dup1\n      iszero\n      tag_78\n      jumpi\n      0x00\n      dup1\n      revert\n    tag_78:\n      pop\n      tag_79\n      0x04\n      dup1\n      calldatasize\n      sub\n      dup2\n      add\n      swap1\n      tag_80\n      swap2\n      swap1\n      tag_81\n      jump\t// in\n    tag_80:\n      tag_82\n      jump\t// in\n    tag_79:\n      stop\n        /* \"Documents/GitHub/Store-system-with-feedback/main.sol\":7579:7979  function acceptReturn(uint idReturn, bool confirmation) public payable {\r... */\n    tag_10:\n      tag_83\n      0x04\n      dup1\n      calldatasize\n      sub\n      dup2\n      add\n      swap1\n      tag_84\n      swap2\n      swap1\n      tag_85\n      jump\t// in\n    tag_84:\n      tag_86\n      jump\t// in\n    tag_83:\n      stop\n        /* \"Documents/GitHub/Store-system-with-feedback/main.sol\":1666:1811  function check_logged_shop(string memory login) public view returns(bool) {\r... */\n    tag_11:\n      callvalue\n      dup1\n      iszero\n      tag_87\n      jumpi\n      0x00\n      dup1\n      revert\n    tag_87:\n      pop\n      tag_88\n      0x04\n      dup1\n      calldatasize\n      sub\n      dup2\n      add\n      swap1\n      tag_89\n      swap2\n      swap1\n      tag_45\n      jump\t// in\n    tag_89:\n      tag_90\n      jump\t// in\n    tag_88:\n      mload(0x40)\n      tag_91\n      swap2\n      swap1\n      tag_92\n      jump\t// in\n    tag_91:\n      mload(0x40)\n      dup1\n      swap2\n      sub\n      swap1\n      return\n        /* \"Documents/GitHub/Store-system-with-feedback/main.sol\":12391:12513  function login_out_user(string memory login) public {\r... */\n    tag_12:\n      callvalue\n      dup1\n      iszero\n      tag_93\n      jumpi\n      0x00\n      dup1\n      revert\n    tag_93:\n      pop\n      tag_94\n      0x04\n      dup1\n      calldatasize\n      sub\n      dup2\n      add\n      swap1\n      tag_95\n      swap2\n      swap1\n      tag_45\n      jump\t// in\n    tag_95:\n      tag_96\n      jump\t// in\n    tag_94:\n      stop\n        /* \"Documents/GitHub/Store-system-with-feedback/main.sol\":2130:2269  function get_city(string memory login) public view returns(string memory) {\r... */\n    tag_13:\n      callvalue\n      dup1\n      iszero\n      tag_97\n      jumpi\n      0x00\n      dup1\n      revert\n    tag_97:\n      pop\n      tag_98\n      0x04\n      dup1\n      calldatasize\n      sub\n      dup2\n      add\n      swap1\n      tag_99\n      swap2\n      swap1\n      tag_45\n      jump\t// in\n    tag_99:\n      tag_100\n      jump\t// in\n    tag_98:\n      mload(0x40)\n      tag_101\n      swap2\n      swap1\n      tag_102\n      jump\t// in\n    tag_101:\n      mload(0x40)\n      dup1\n      swap2\n      sub\n      swap1\n      return\n        /* \"Documents/GitHub/Store-system-with-feedback/main.sol\":11233:11392  function productMarriage(string memory titleProduct) public {\r... */\n    tag_14:\n      callvalue\n      dup1\n      iszero\n      tag_103\n      jumpi\n      0x00\n      dup1\n      revert\n    tag_103:\n      pop\n      tag_104\n      0x04\n      dup1\n      calldatasize\n      sub\n      dup2\n      add\n      swap1\n      tag_105\n      swap2\n      swap1\n      tag_45\n      jump\t// in\n    tag_105:\n      tag_106\n      jump\t// in\n    tag_104:\n      stop\n        /* \"Documents/GitHub/Store-system-with-feedback/main.sol\":2439:2591  function check_logged_user(string memory login) public view returns(bool) {\r... */\n    tag_15:\n      callvalue\n      dup1\n      iszero\n      tag_107\n      jumpi\n      0x00\n      dup1\n      revert\n    tag_107:\n      pop\n      tag_108\n      0x04\n      dup1\n      calldatasize\n      sub\n      dup2\n      add\n      swap1\n      tag_109\n      swap2\n      swap1\n      tag_45\n      jump\t// in\n    tag_109:\n      tag_110\n      jump\t// in\n    tag_108:\n      mload(0x40)\n      tag_111\n      swap2\n      swap1\n      tag_92\n      jump\t// in\n    tag_111:\n      mload(0x40)\n      dup1\n      swap2\n      sub\n      swap1\n      return\n        /* \"Documents/GitHub/Store-system-with-feedback/main.sol\":1458:1568  function get_product_list() public view returns(string[] memory) {\r... */\n    tag_16:\n      callvalue\n      dup1\n      iszero\n      tag_112\n      jumpi\n      0x00\n      dup1\n      revert\n    tag_112:\n      pop\n      tag_113\n      tag_114\n      jump\t// in\n    tag_113:\n      mload(0x40)\n      tag_115\n      swap2\n      swap1\n      tag_77\n      jump\t// in\n    tag_115:\n      mload(0x40)\n      dup1\n      swap2\n      sub\n      swap1\n      return\n        /* \"Documents/GitHub/Store-system-with-feedback/main.sol\":2687:2833  function get_role_user(string memory login) public view returns(uint) {\r... */\n    tag_17:\n      callvalue\n      dup1\n      iszero\n      tag_116\n      jumpi\n      0x00\n      dup1\n      revert\n    tag_116:\n      pop\n      tag_117\n      0x04\n      dup1\n      calldatasize\n      sub\n      dup2\n      add\n      swap1\n      tag_118\n      swap2\n      swap1\n      tag_45\n      jump\t// in\n    tag_118:\n      tag_119\n      jump\t// in\n    tag_117:\n      mload(0x40)\n      tag_120\n      swap2\n      swap1\n      tag_48\n      jump\t// in\n    tag_120:\n      mload(0x40)\n      dup1\n      swap2\n      sub\n      swap1\n      return\n        /* \"Documents/GitHub/Store-system-with-feedback/main.sol\":3331:3618  function get_address(string memory login) public view returns(address) {\r... */\n    tag_18:\n      callvalue\n      dup1\n      iszero\n      tag_121\n      jumpi\n      0x00\n      dup1\n      revert\n    tag_121:\n      pop\n      tag_122\n      0x04\n      dup1\n      calldatasize\n      sub\n      dup2\n      add\n      swap1\n      tag_123\n      swap2\n      swap1\n      tag_45\n      jump\t// in\n    tag_123:\n      tag_124\n      jump\t// in\n    tag_122:\n      mload(0x40)\n      tag_125\n      swap2\n      swap1\n      tag_66\n      jump\t// in\n    tag_125:\n      mload(0x40)\n      dup1\n      swap2\n      sub\n      swap1\n      return\n        /* \"Documents/GitHub/Store-system-with-feedback/main.sol\":6003:6293  function addProductShop (string memory title, uint256 price, string memory description) public {\r... */\n    tag_19:\n      callvalue\n      dup1\n      iszero\n      tag_126\n      jumpi\n      0x00\n      dup1\n      revert\n    tag_126:\n      pop\n      tag_127\n      0x04\n      dup1\n      calldatasize\n      sub\n      dup2\n      add\n      swap1\n      tag_128\n      swap2\n      swap1\n      tag_129\n      jump\t// in\n    tag_128:\n      tag_130\n      jump\t// in\n    tag_127:\n      stop\n        /* \"Documents/GitHub/Store-system-with-feedback/main.sol\":5803:5854  structStatusMarriage[] public structStatusMarriages */\n    tag_20:\n      callvalue\n      dup1\n      iszero\n      tag_131\n      jumpi\n      0x00\n      dup1\n      revert\n    tag_131:\n      pop\n      tag_132\n      0x04\n      dup1\n      calldatasize\n      sub\n      dup2\n      add\n      swap1\n      tag_133\n      swap2\n      swap1\n      tag_134\n      jump\t// in\n    tag_133:\n      tag_135\n      jump\t// in\n    tag_132:\n      mload(0x40)\n      tag_136\n      swap4\n      swap3\n      swap2\n      swap1\n      tag_137\n      jump\t// in\n    tag_136:\n      mload(0x40)\n      dup1\n      swap2\n      sub\n      swap1\n      return\n        /* \"Documents/GitHub/Store-system-with-feedback/main.sol\":9996:10398  function login_shop(string memory login, bytes32 password) public {\r... */\n    tag_21:\n      callvalue\n      dup1\n      iszero\n      tag_138\n      jumpi\n      0x00\n      dup1\n      revert\n    tag_138:\n      pop\n      tag_139\n      0x04\n      dup1\n      calldatasize\n      sub\n      dup2\n      add\n      swap1\n      tag_140\n      swap2\n      swap1\n      tag_141\n      jump\t// in\n    tag_140:\n      tag_142\n      jump\t// in\n    tag_139:\n      stop\n        /* \"Documents/GitHub/Store-system-with-feedback/main.sol\":3114:3253  function get_hash(string memory password) public pure returns(bytes32) {\r... */\n    tag_22:\n      callvalue\n      dup1\n      iszero\n      tag_143\n      jumpi\n      0x00\n      dup1\n      revert\n    tag_143:\n      pop\n      tag_144\n      0x04\n      dup1\n      calldatasize\n      sub\n      dup2\n      add\n      swap1\n      tag_145\n      swap2\n      swap1\n      tag_45\n      jump\t// in\n    tag_145:\n      tag_146\n      jump\t// in\n    tag_144:\n      mload(0x40)\n      tag_147\n      swap2\n      swap1\n      tag_148\n      jump\t// in\n    tag_147:\n      mload(0x40)\n      dup1\n      swap2\n      sub\n      swap1\n      return\n        /* \"Documents/GitHub/Store-system-with-feedback/main.sol\":8056:8464  function acceptMarriage(uint idMarriage, bool confirmation) public {\r... */\n    tag_23:\n      callvalue\n      dup1\n      iszero\n      tag_149\n      jumpi\n      0x00\n      dup1\n      revert\n    tag_149:\n      pop\n      tag_150\n      0x04\n      dup1\n      calldatasize\n      sub\n      dup2\n      add\n      swap1\n      tag_151\n      swap2\n      swap1\n      tag_85\n      jump\t// in\n    tag_151:\n      tag_152\n      jump\t// in\n    tag_150:\n      stop\n        /* \"Documents/GitHub/Store-system-with-feedback/main.sol\":3980:4030  mapping (address => structShop) public structShops */\n    tag_24:\n      callvalue\n      dup1\n      iszero\n      tag_153\n      jumpi\n      0x00\n      dup1\n      revert\n    tag_153:\n      pop\n      tag_154\n      0x04\n      dup1\n      calldatasize\n      sub\n      dup2\n      add\n      swap1\n      tag_155\n      swap2\n      swap1\n      tag_70\n      jump\t// in\n    tag_155:\n      tag_156\n      jump\t// in\n    tag_154:\n      mload(0x40)\n      tag_157\n      swap8\n      swap7\n      swap6\n      swap5\n      swap4\n      swap3\n      swap2\n      swap1\n      tag_158\n      jump\t// in\n    tag_157:\n      mload(0x40)\n      dup1\n      swap2\n      sub\n      swap1\n      return\n        /* \"Documents/GitHub/Store-system-with-feedback/main.sol\":4664:4713  mapping(address => structUser) public structUsers */\n    tag_25:\n      callvalue\n      dup1\n      iszero\n      tag_159\n      jumpi\n      0x00\n      dup1\n      revert\n    tag_159:\n      pop\n      tag_160\n      0x04\n      dup1\n      calldatasize\n      sub\n      dup2\n      add\n      swap1\n      tag_161\n      swap2\n      swap1\n      tag_70\n      jump\t// in\n    tag_161:\n      tag_162\n      jump\t// in\n    tag_160:\n      mload(0x40)\n      tag_163\n      swap5\n      swap4\n      swap3\n      swap2\n      swap1\n      tag_164\n      jump\t// in\n    tag_163:\n      mload(0x40)\n      dup1\n      swap2\n      sub\n      swap1\n      return\n        /* \"Documents/GitHub/Store-system-with-feedback/main.sol\":8547:9400  function getStoryRating(string memory shopName) public view returns(uint) {\r... */\n    tag_26:\n      callvalue\n      dup1\n      iszero\n      tag_165\n      jumpi\n      0x00\n      dup1\n      revert\n    tag_165:\n      pop\n      tag_166\n      0x04\n      dup1\n      calldatasize\n      sub\n      dup2\n      add\n      swap1\n      tag_167\n      swap2\n      swap1\n      tag_45\n      jump\t// in\n    tag_167:\n      tag_168\n      jump\t// in\n    tag_166:\n      mload(0x40)\n      tag_169\n      swap2\n      swap1\n      tag_48\n      jump\t// in\n    tag_169:\n      mload(0x40)\n      dup1\n      swap2\n      sub\n      swap1\n      return\n        /* \"Documents/GitHub/Store-system-with-feedback/main.sol\":5550:5597  structStatusReturn[] public structStatusReturns */\n    tag_27:\n      callvalue\n      dup1\n      iszero\n      tag_170\n      jumpi\n      0x00\n      dup1\n      revert\n    tag_170:\n      pop\n      tag_171\n      0x04\n      dup1\n      calldatasize\n      sub\n      dup2\n      add\n      swap1\n      tag_172\n      swap2\n      swap1\n      tag_134\n      jump\t// in\n    tag_172:\n      tag_173\n      jump\t// in\n    tag_171:\n      mload(0x40)\n      tag_174\n      swap4\n      swap3\n      swap2\n      swap1\n      tag_137\n      jump\t// in\n    tag_174:\n      mload(0x40)\n      dup1\n      swap2\n      sub\n      swap1\n      return\n        /* \"Documents/GitHub/Store-system-with-feedback/main.sol\":11017:11170  function productReturn(string memory titleProduct) public {\r... */\n    tag_28:\n      callvalue\n      dup1\n      iszero\n      tag_175\n      jumpi\n      0x00\n      dup1\n      revert\n    tag_175:\n      pop\n      tag_176\n      0x04\n      dup1\n      calldatasize\n      sub\n      dup2\n      add\n      swap1\n      tag_177\n      swap2\n      swap1\n      tag_45\n      jump\t// in\n    tag_177:\n      tag_178\n      jump\t// in\n    tag_176:\n      stop\n        /* \"Documents/GitHub/Store-system-with-feedback/main.sol\":4037:4080  mapping(string => address) public shopLists */\n    tag_29:\n      callvalue\n      dup1\n      iszero\n      tag_179\n      jumpi\n      0x00\n      dup1\n      revert\n    tag_179:\n      pop\n      tag_180\n      0x04\n      dup1\n      calldatasize\n      sub\n      dup2\n      add\n      swap1\n      tag_181\n      swap2\n      swap1\n      tag_45\n      jump\t// in\n    tag_181:\n      tag_182\n      jump\t// in\n    tag_180:\n      mload(0x40)\n      tag_183\n      swap2\n      swap1\n      tag_66\n      jump\t// in\n    tag_183:\n      mload(0x40)\n      dup1\n      swap2\n      sub\n      swap1\n      return\n        /* \"Documents/GitHub/Store-system-with-feedback/main.sol\":6368:6956  function leaveFeedback (string memory shop, string memory feedback, uint256 rating) public {\r... */\n    tag_30:\n      callvalue\n      dup1\n      iszero\n      tag_184\n      jumpi\n      0x00\n      dup1\n      revert\n    tag_184:\n      pop\n      tag_185\n      0x04\n      dup1\n      calldatasize\n      sub\n      dup2\n      add\n      swap1\n      tag_186\n      swap2\n      swap1\n      tag_187\n      jump\t// in\n    tag_186:\n      tag_188\n      jump\t// in\n    tag_185:\n      stop\n        /* \"Documents/GitHub/Store-system-with-feedback/main.sol\":11872:12302  function login_user(string memory login, bytes32 password) public {\r... */\n    tag_31:\n      callvalue\n      dup1\n      iszero\n      tag_189\n      jumpi\n      0x00\n      dup1\n      revert\n    tag_189:\n      pop\n      tag_190\n      0x04\n      dup1\n      calldatasize\n      sub\n      dup2\n      add\n      swap1\n      tag_191\n      swap2\n      swap1\n      tag_141\n      jump\t// in\n    tag_191:\n      tag_192\n      jump\t// in\n    tag_190:\n      stop\n        /* \"Documents/GitHub/Store-system-with-feedback/main.sol\":5020:5074  mapping(string => structProduct) public structProducts */\n    tag_32:\n      callvalue\n      dup1\n      iszero\n      tag_193\n      jumpi\n      0x00\n      dup1\n      revert\n    tag_193:\n      pop\n      tag_194\n      0x04\n      dup1\n      calldatasize\n      sub\n      dup2\n      add\n      swap1\n      tag_195\n      swap2\n      swap1\n      tag_45\n      jump\t// in\n    tag_195:\n      tag_196\n      jump\t// in\n    tag_194:\n      mload(0x40)\n      tag_197\n      swap5\n      swap4\n      swap3\n      swap2\n      swap1\n      tag_198\n      jump\t// in\n    tag_197:\n      mload(0x40)\n      dup1\n      swap2\n      sub\n      swap1\n      return\n        /* \"Documents/GitHub/Store-system-with-feedback/main.sol\":5312:5363  structStatusPurchase[] public structStatusPurchases */\n    tag_33:\n      callvalue\n      dup1\n      iszero\n      tag_199\n      jumpi\n      0x00\n      dup1\n      revert\n    tag_199:\n      pop\n      tag_200\n      0x04\n      dup1\n      calldatasize\n      sub\n      dup2\n      add\n      swap1\n      tag_201\n      swap2\n      swap1\n      tag_134\n      jump\t// in\n    tag_201:\n      tag_202\n      jump\t// in\n    tag_200:\n      mload(0x40)\n      tag_203\n      swap5\n      swap4\n      swap3\n      swap2\n      swap1\n      tag_204\n      jump\t// in\n    tag_203:\n      mload(0x40)\n      dup1\n      swap2\n      sub\n      swap1\n      return\n        /* \"Documents/GitHub/Store-system-with-feedback/main.sol\":7018:7515  function acceptPurchase (uint idPurchase, uint confirmation) public payable {\r... */\n    tag_34:\n      tag_205\n      0x04\n      dup1\n      calldatasize\n      sub\n      dup2\n      add\n      swap1\n      tag_206\n      swap2\n      swap1\n      tag_207\n      jump\t// in\n    tag_206:\n      tag_208\n      jump\t// in\n    tag_205:\n      stop\n        /* \"Documents/GitHub/Store-system-with-feedback/main.sol\":1899:2038  function get_role_shop(string memory login) public view returns(uint) {\r... */\n    tag_46:\n        /* \"Documents/GitHub/Store-system-with-feedback/main.sol\":1963:1967  uint */\n      0x00\n        /* \"Documents/GitHub/Store-system-with-feedback/main.sol\":1991:2002  structShops */\n      dup1\n        /* \"Documents/GitHub/Store-system-with-feedback/main.sol\":1991:2020  structShops[shopLists[login]] */\n      0x00\n        /* \"Documents/GitHub/Store-system-with-feedback/main.sol\":2003:2012  shopLists */\n      0x01\n        /* \"Documents/GitHub/Store-system-with-feedback/main.sol\":2013:2018  login */\n      dup5\n        /* \"Documents/GitHub/Store-system-with-feedback/main.sol\":2003:2019  shopLists[login] */\n      mload(0x40)\n      tag_210\n      swap2\n      swap1\n      tag_211\n      jump\t// in\n    tag_210:\n      swap1\n      dup2\n      mstore\n      0x20\n      add\n      mload(0x40)\n      dup1\n      swap2\n      sub\n      swap1\n      keccak256\n      0x00\n      swap1\n      sload\n      swap1\n      0x0100\n      exp\n      swap1\n      div\n      0xffffffffffffffffffffffffffffffffffffffff\n      and\n        /* \"Documents/GitHub/Store-system-with-feedback/main.sol\":1991:2020  structShops[shopLists[login]] */\n      0xffffffffffffffffffffffffffffffffffffffff\n      and\n      0xffffffffffffffffffffffffffffffffffffffff\n      and\n      dup2\n      mstore\n      0x20\n      add\n      swap1\n      dup2\n      mstore\n      0x20\n      add\n      0x00\n      keccak256\n        /* \"Documents/GitHub/Store-system-with-feedback/main.sol\":1991:2025  structShops[shopLists[login]].role */\n      0x02\n      add\n      sload\n        /* \"Documents/GitHub/Store-system-with-feedback/main.sol\":1984:2026  return(structShops[shopLists[login]].role) */\n      swap1\n      pop\n        /* \"Documents/GitHub/Store-system-with-feedback/main.sol\":1899:2038  function get_role_shop(string memory login) public view returns(uint) {\r... */\n      swap2\n      swap1\n      pop\n      jump\t// out\n        /* \"Documents/GitHub/Store-system-with-feedback/main.sol\":10479:10594  function login_out_shop(string memory login) public {\r... */\n    tag_52:\n        /* \"Documents/GitHub/Store-system-with-feedback/main.sol\":10581:10586  false */\n      0x00\n        /* \"Documents/GitHub/Store-system-with-feedback/main.sol\":10542:10553  structShops */\n      dup1\n        /* \"Documents/GitHub/Store-system-with-feedback/main.sol\":10542:10571  structShops[shopLists[login]] */\n      0x00\n        /* \"Documents/GitHub/Store-system-with-feedback/main.sol\":10554:10563  shopLists */\n      0x01\n        /* \"Documents/GitHub/Store-system-with-feedback/main.sol\":10564:10569  login */\n      dup5\n        /* \"Documents/GitHub/Store-system-with-feedback/main.sol\":10554:10570  shopLists[login] */\n      mload(0x40)\n      tag_213\n      swap2\n      swap1\n      tag_211\n      jump\t// in\n    tag_213:\n      swap1\n      dup2\n      mstore\n      0x20\n      add\n      mload(0x40)\n      dup1\n      swap2\n      sub\n      swap1\n      keccak256\n      0x00\n      swap1\n      sload\n      swap1\n      0x0100\n      exp\n      swap1\n      div\n      0xffffffffffffffffffffffffffffffffffffffff\n      and\n        /* \"Documents/GitHub/Store-system-with-feedback/main.sol\":10542:10571  structShops[shopLists[login]] */\n      0xffffffffffffffffffffffffffffffffffffffff\n      and\n      0xffffffffffffffffffffffffffffffffffffffff\n      and\n      dup2\n      mstore\n      0x20\n      add\n      swap1\n      dup2\n      mstore\n      0x20\n      add\n      0x00\n      keccak256\n        /* \"Documents/GitHub/Store-system-with-feedback/main.sol\":10542:10578  structShops[shopLists[login]].logged */\n      0x03\n      add\n      0x00\n        /* \"Documents/GitHub/Store-system-with-feedback/main.sol\":10542:10586  structShops[shopLists[login]].logged = false */\n      0x0100\n      exp\n      dup2\n      sload\n      dup2\n      0xff\n      mul\n      not\n      and\n      swap1\n      dup4\n      iszero\n      iszero\n      mul\n      or\n      swap1\n      sstore\n      pop\n        /* \"Documents/GitHub/Store-system-with-feedback/main.sol\":10479:10594  function login_out_shop(string memory login) public {\r... */\n      pop\n      jump\t// out\n        /* \"Documents/GitHub/Store-system-with-feedback/main.sol\":11462:11784  function create_user(address addr, string memory login, bytes32 password) public {\r... */\n    tag_57:\n        /* \"Documents/GitHub/Store-system-with-feedback/main.sol\":11597:11598  0 */\n      0x00\n        /* \"Documents/GitHub/Store-system-with-feedback/main.sol\":11562:11599  structUserLogins[login] == address(0) */\n      0xffffffffffffffffffffffffffffffffffffffff\n      and\n        /* \"Documents/GitHub/Store-system-with-feedback/main.sol\":11562:11578  structUserLogins */\n      0x05\n        /* \"Documents/GitHub/Store-system-with-feedback/main.sol\":11579:11584  login */\n      dup4\n        /* \"Documents/GitHub/Store-system-with-feedback/main.sol\":11562:11585  structUserLogins[login] */\n      mload(0x40)\n      tag_215\n      swap2\n      swap1\n      tag_211\n      jump\t// in\n    tag_215:\n      swap1\n      dup2\n      mstore\n      0x20\n      add\n      mload(0x40)\n      dup1\n      swap2\n      sub\n      swap1\n      keccak256\n      0x00\n      swap1\n      sload\n      swap1\n      0x0100\n      exp\n      swap1\n      div\n      0xffffffffffffffffffffffffffffffffffffffff\n      and\n        /* \"Documents/GitHub/Store-system-with-feedback/main.sol\":11562:11599  structUserLogins[login] == address(0) */\n      0xffffffffffffffffffffffffffffffffffffffff\n      and\n      eq\n        /* \"Documents/GitHub/Store-system-with-feedback/main.sol\":11554:11629  require(structUserLogins[login] == address(0), \"Error: User already exist\") */\n      tag_216\n      jumpi\n      mload(0x40)\n      0x08c379a000000000000000000000000000000000000000000000000000000000\n      dup2\n      mstore\n      0x04\n      add\n      tag_217\n      swap1\n      tag_218\n      jump\t// in\n    tag_217:\n      mload(0x40)\n      dup1\n      swap2\n      sub\n      swap1\n      revert\n    tag_216:\n        /* \"Documents/GitHub/Store-system-with-feedback/main.sol\":11660:11697  structUser(login, password, 2, false) */\n      mload(0x40)\n      dup1\n      0x80\n      add\n      0x40\n      mstore\n      dup1\n        /* \"Documents/GitHub/Store-system-with-feedback/main.sol\":11671:11676  login */\n      dup4\n        /* \"Documents/GitHub/Store-system-with-feedback/main.sol\":11660:11697  structUser(login, password, 2, false) */\n      dup2\n      mstore\n      0x20\n      add\n        /* \"Documents/GitHub/Store-system-with-feedback/main.sol\":11678:11686  password */\n      dup3\n        /* \"Documents/GitHub/Store-system-with-feedback/main.sol\":11660:11697  structUser(login, password, 2, false) */\n      dup2\n      mstore\n      0x20\n      add\n        /* \"Documents/GitHub/Store-system-with-feedback/main.sol\":11688:11689  2 */\n      0x02\n        /* \"Documents/GitHub/Store-system-with-feedback/main.sol\":11660:11697  structUser(login, password, 2, false) */\n      dup2\n      mstore\n      0x20\n      add\n        /* \"Documents/GitHub/Store-system-with-feedback/main.sol\":11691:11696  false */\n      0x00\n        /* \"Documents/GitHub/Store-system-with-feedback/main.sol\":11660:11697  structUser(login, password, 2, false) */\n      iszero\n      iszero\n      dup2\n      mstore\n      pop\n        /* \"Documents/GitHub/Store-system-with-feedback/main.sol\":11640:11651  structUsers */\n      0x04\n        /* \"Documents/GitHub/Store-system-with-feedback/main.sol\":11640:11657  structUsers[addr] */\n      0x00\n        /* \"Documents/GitHub/Store-system-with-feedback/main.sol\":11652:11656  addr */\n      dup6\n        /* \"Documents/GitHub/Store-system-with-feedback/main.sol\":11640:11657  structUsers[addr] */\n      0xffffffffffffffffffffffffffffffffffffffff\n      and\n      0xffffffffffffffffffffffffffffffffffffffff\n      and\n      dup2\n      mstore\n      0x20\n      add\n      swap1\n      dup2\n      mstore\n      0x20\n      add\n      0x00\n      keccak256\n        /* \"Documents/GitHub/Store-system-with-feedback/main.sol\":11640:11697  structUsers[addr] = structUser(login, password, 2, false) */\n      0x00\n      dup3\n      add\n      mload\n      dup2\n      0x00\n      add\n      swap1\n      dup1\n      mload\n      swap1\n      0x20\n      add\n      swap1\n      tag_219\n      swap3\n      swap2\n      swap1\n      tag_220\n      jump\t// in\n    tag_219:\n      pop\n      0x20\n      dup3\n      add\n      mload\n      dup2\n      0x01\n      add\n      sstore\n      0x40\n      dup3\n      add\n      mload\n      dup2\n      0x02\n      add\n      sstore\n      0x60\n      dup3\n      add\n      mload\n      dup2\n      0x03\n      add\n      exp(0x0100, 0x00)\n      dup2\n      sload\n      dup2\n      0xff\n      mul\n      not\n      and\n      swap1\n      dup4\n      iszero\n      iszero\n      mul\n      or\n      swap1\n      sstore\n      pop\n      swap1\n      pop\n      pop\n        /* \"Documents/GitHub/Store-system-with-feedback/main.sol\":11734:11738  addr */\n      dup3\n        /* \"Documents/GitHub/Store-system-with-feedback/main.sol\":11708:11724  structUserLogins */\n      0x05\n        /* \"Documents/GitHub/Store-system-with-feedback/main.sol\":11725:11730  login */\n      dup4\n        /* \"Documents/GitHub/Store-system-with-feedback/main.sol\":11708:11731  structUserLogins[login] */\n      mload(0x40)\n      tag_221\n      swap2\n      swap1\n      tag_211\n      jump\t// in\n    tag_221:\n      swap1\n      dup2\n      mstore\n      0x20\n      add\n      mload(0x40)\n      dup1\n      swap2\n      sub\n      swap1\n      keccak256\n      0x00\n        /* \"Documents/GitHub/Store-system-with-feedback/main.sol\":11708:11738  structUserLogins[login] = addr */\n      0x0100\n      exp\n      dup2\n      sload\n      dup2\n      0xffffffffffffffffffffffffffffffffffffffff\n      mul\n      not\n      and\n      swap1\n      dup4\n      0xffffffffffffffffffffffffffffffffffffffff\n      and\n      mul\n      or\n      swap1\n      sstore\n      pop\n        /* \"Documents/GitHub/Store-system-with-feedback/main.sol\":11749:11765  userAddressArray */\n      0x07\n        /* \"Documents/GitHub/Store-system-with-feedback/main.sol\":11771:11775  addr */\n      dup4\n        /* \"Documents/GitHub/Store-system-with-feedback/main.sol\":11749:11776  userAddressArray.push(addr) */\n      swap1\n      dup1\n      0x01\n      dup2\n      sload\n      add\n      dup1\n      dup3\n      sstore\n      dup1\n      swap2\n      pop\n      pop\n      0x01\n      swap1\n      sub\n      swap1\n      0x00\n      mstore\n      keccak256(0x00, 0x20)\n      add\n      0x00\n      swap1\n      swap2\n      swap1\n      swap2\n      swap1\n      swap2\n      0x0100\n      exp\n      dup2\n      sload\n      dup2\n      0xffffffffffffffffffffffffffffffffffffffff\n      mul\n      not\n      and\n      swap1\n      dup4\n      0xffffffffffffffffffffffffffffffffffffffff\n      and\n      mul\n      or\n      swap1\n      sstore\n      pop\n        /* \"Documents/GitHub/Store-system-with-feedback/main.sol\":11462:11784  function create_user(address addr, string memory login, bytes32 password) public {\r... */\n      pop\n      pop\n      pop\n      jump\t// out\n        /* \"Documents/GitHub/Store-system-with-feedback/main.sol\":10683:10951  function productPurchases(string memory titleProduct) public payable {\r... */\n    tag_60:\n        /* \"Documents/GitHub/Store-system-with-feedback/main.sol\":10785:10799  structProducts */\n      0x08\n        /* \"Documents/GitHub/Store-system-with-feedback/main.sol\":10800:10812  titleProduct */\n      dup2\n        /* \"Documents/GitHub/Store-system-with-feedback/main.sol\":10785:10813  structProducts[titleProduct] */\n      mload(0x40)\n      tag_224\n      swap2\n      swap1\n      tag_211\n      jump\t// in\n    tag_224:\n      swap1\n      dup2\n      mstore\n      0x20\n      add\n      mload(0x40)\n      dup1\n      swap2\n      sub\n      swap1\n      keccak256\n        /* \"Documents/GitHub/Store-system-with-feedback/main.sol\":10785:10819  structProducts[titleProduct].price */\n      0x02\n      add\n      sload\n        /* \"Documents/GitHub/Store-system-with-feedback/main.sol\":10771:10780  msg.value */\n      callvalue\n        /* \"Documents/GitHub/Store-system-with-feedback/main.sol\":10771:10820  msg.value == (structProducts[titleProduct].price) */\n      eq\n        /* \"Documents/GitHub/Store-system-with-feedback/main.sol\":10763:10841  require(msg.value == (structProducts[titleProduct].price), \"error: not money\") */\n      tag_225\n      jumpi\n      mload(0x40)\n      0x08c379a000000000000000000000000000000000000000000000000000000000\n      dup2\n      mstore\n      0x04\n      add\n      tag_226\n      swap1\n      tag_227\n      jump\t// in\n    tag_226:\n      mload(0x40)\n      dup1\n      swap2\n      sub\n      swap1\n      revert\n    tag_225:\n        /* \"Documents/GitHub/Store-system-with-feedback/main.sol\":10852:10873  structStatusPurchases */\n      0x0a\n        /* \"Documents/GitHub/Store-system-with-feedback/main.sol\":10879:10942  structStatusPurchase(msg.sender, titleProduct, msg.value, true) */\n      mload(0x40)\n      dup1\n      0x80\n      add\n      0x40\n      mstore\n      dup1\n        /* \"Documents/GitHub/Store-system-with-feedback/main.sol\":10900:10910  msg.sender */\n      caller\n        /* \"Documents/GitHub/Store-system-with-feedback/main.sol\":10879:10942  structStatusPurchase(msg.sender, titleProduct, msg.value, true) */\n      0xffffffffffffffffffffffffffffffffffffffff\n      and\n      dup2\n      mstore\n      0x20\n      add\n        /* \"Documents/GitHub/Store-system-with-feedback/main.sol\":10912:10924  titleProduct */\n      dup4\n        /* \"Documents/GitHub/Store-system-with-feedback/main.sol\":10879:10942  structStatusPurchase(msg.sender, titleProduct, msg.value, true) */\n      dup2\n      mstore\n      0x20\n      add\n        /* \"Documents/GitHub/Store-system-with-feedback/main.sol\":10926:10935  msg.value */\n      callvalue\n        /* \"Documents/GitHub/Store-system-with-feedback/main.sol\":10879:10942  structStatusPurchase(msg.sender, titleProduct, msg.value, true) */\n      dup2\n      mstore\n      0x20\n      add\n        /* \"Documents/GitHub/Store-system-with-feedback/main.sol\":10937:10941  true */\n      0x01\n        /* \"Documents/GitHub/Store-system-with-feedback/main.sol\":10879:10942  structStatusPurchase(msg.sender, titleProduct, msg.value, true) */\n      iszero\n      iszero\n      dup2\n      mstore\n      pop\n        /* \"Documents/GitHub/Store-system-with-feedback/main.sol\":10852:10943  structStatusPurchases.push(structStatusPurchase(msg.sender, titleProduct, msg.value, true)) */\n      swap1\n      dup1\n      0x01\n      dup2\n      sload\n      add\n      dup1\n      dup3\n      sstore\n      dup1\n      swap2\n      pop\n      pop\n      0x01\n      swap1\n      sub\n      swap1\n      0x00\n      mstore\n      keccak256(0x00, 0x20)\n      swap1\n      0x04\n      mul\n      add\n      0x00\n      swap1\n      swap2\n      swap1\n      swap2\n      swap1\n      swap2\n      pop\n      0x00\n      dup3\n      add\n      mload\n      dup2\n      0x00\n      add\n      exp(0x0100, 0x00)\n      dup2\n      sload\n      dup2\n      0xffffffffffffffffffffffffffffffffffffffff\n      mul\n      not\n      and\n      swap1\n      dup4\n      0xffffffffffffffffffffffffffffffffffffffff\n      and\n      mul\n      or\n      swap1\n      sstore\n      pop\n      0x20\n      dup3\n      add\n      mload\n      dup2\n      0x01\n      add\n      swap1\n      dup1\n      mload\n      swap1\n      0x20\n      add\n      swap1\n      tag_229\n      swap3\n      swap2\n      swap1\n      tag_220\n      jump\t// in\n    tag_229:\n      pop\n      0x40\n      dup3\n      add\n      mload\n      dup2\n      0x02\n      add\n      sstore\n      0x60\n      dup3\n      add\n      mload\n      dup2\n      0x03\n      add\n      exp(0x0100, 0x00)\n      dup2\n      sload\n      dup2\n      0xff\n      mul\n      not\n      and\n      swap1\n      dup4\n      iszero\n      iszero\n      mul\n      or\n      swap1\n      sstore\n      pop\n      pop\n      pop\n        /* \"Documents/GitHub/Store-system-with-feedback/main.sol\":10683:10951  function productPurchases(string memory titleProduct) public payable {\r... */\n      pop\n      jump\t// out\n        /* \"Documents/GitHub/Store-system-with-feedback/main.sol\":4720:4770  mapping(string => address) public structUserLogins */\n    tag_64:\n      0x05\n      dup2\n      dup1\n      mload\n      0x20\n      dup2\n      add\n      dup3\n      add\n      dup1\n      mload\n      dup5\n      dup3\n      mstore\n      0x20\n      dup4\n      add\n      0x20\n      dup6\n      add\n      keccak256\n      dup2\n      dup4\n      mstore\n      dup1\n      swap6\n      pop\n      pop\n      pop\n      pop\n      pop\n      pop\n      0x00\n      swap2\n      pop\n      sload\n      swap1\n      0x0100\n      exp\n      swap1\n      div\n      0xffffffffffffffffffffffffffffffffffffffff\n      and\n      dup2\n      jump\t// out\n        /* \"Documents/GitHub/Store-system-with-feedback/main.sol\":2910:3047  function get_balance(address adr) public view returns (uint) {\r... */\n    tag_71:\n        /* \"Documents/GitHub/Store-system-with-feedback/main.sol\":2965:2969  uint */\n      0x00\n        /* \"Documents/GitHub/Store-system-with-feedback/main.sol\":2982:2997  uint curBalance */\n      dup1\n        /* \"Documents/GitHub/Store-system-with-feedback/main.sol\":3000:3003  adr */\n      dup3\n        /* \"Documents/GitHub/Store-system-with-feedback/main.sol\":3000:3011  adr.balance */\n      0xffffffffffffffffffffffffffffffffffffffff\n      and\n      balance\n        /* \"Documents/GitHub/Store-system-with-feedback/main.sol\":2982:3011  uint curBalance = adr.balance */\n      swap1\n      pop\n        /* \"Documents/GitHub/Store-system-with-feedback/main.sol\":3029:3039  curBalance */\n      dup1\n        /* \"Documents/GitHub/Store-system-with-feedback/main.sol\":3022:3039  return curBalance */\n      swap2\n      pop\n      pop\n        /* \"Documents/GitHub/Store-system-with-feedback/main.sol\":2910:3047  function get_balance(address adr) public view returns (uint) {\r... */\n      swap2\n      swap1\n      pop\n      jump\t// out\n        /* \"Documents/GitHub/Store-system-with-feedback/main.sol\":1267:1371  function get_shop_list() public view returns(string[] memory) {\r... */\n    tag_75:\n        /* \"Documents/GitHub/Store-system-with-feedback/main.sol\":1312:1327  string[] memory */\n      0x60\n        /* \"Documents/GitHub/Store-system-with-feedback/main.sol\":1351:1359  shopList */\n      0x02\n        /* \"Documents/GitHub/Store-system-with-feedback/main.sol\":1344:1359  return shopList */\n      dup1\n      sload\n      dup1\n      0x20\n      mul\n      0x20\n      add\n      mload(0x40)\n      swap1\n      dup2\n      add\n      0x40\n      mstore\n      dup1\n      swap3\n      swap2\n      swap1\n      dup2\n      dup2\n      mstore\n      0x20\n      add\n      0x00\n      swap1\n    tag_232:\n      dup3\n      dup3\n      lt\n      iszero\n      tag_233\n      jumpi\n      dup4\n      dup3\n      swap1\n      0x00\n      mstore\n      keccak256(0x00, 0x20)\n      add\n      dup1\n      sload\n      tag_235\n      swap1\n      tag_236\n      jump\t// in\n    tag_235:\n      dup1\n      0x1f\n      add\n      0x20\n      dup1\n      swap2\n      div\n      mul\n      0x20\n      add\n      mload(0x40)\n      swap1\n      dup2\n      add\n      0x40\n      mstore\n      dup1\n      swap3\n      swap2\n      swap1\n      dup2\n      dup2\n      mstore\n      0x20\n      add\n      dup3\n      dup1\n      sload\n      tag_237\n      swap1\n      tag_236\n      jump\t// in\n    tag_237:\n      dup1\n      iszero\n      tag_238\n      jumpi\n      dup1\n      0x1f\n      lt\n      tag_239\n      jumpi\n      0x0100\n      dup1\n      dup4\n      sload\n      div\n      mul\n      dup4\n      mstore\n      swap2\n      0x20\n      add\n      swap2\n      jump(tag_238)\n    tag_239:\n      dup3\n      add\n      swap2\n      swap1\n      0x00\n      mstore\n      keccak256(0x00, 0x20)\n      swap1\n    tag_240:\n      dup2\n      sload\n      dup2\n      mstore\n      swap1\n      0x01\n      add\n      swap1\n      0x20\n      add\n      dup1\n      dup4\n      gt\n      tag_240\n      jumpi\n      dup3\n      swap1\n      sub\n      0x1f\n      and\n      dup3\n      add\n      swap2\n    tag_238:\n      pop\n      pop\n      pop\n      pop\n      pop\n      dup2\n      mstore\n      0x20\n      add\n      swap1\n      0x01\n      add\n      swap1\n      jump(tag_232)\n    tag_233:\n      pop\n      pop\n      pop\n      pop\n      swap1\n      pop\n        /* \"Documents/GitHub/Store-system-with-feedback/main.sol\":1267:1371  function get_shop_list() public view returns(string[] memory) {\r... */\n      swap1\n      jump\t// out\n        /* \"Documents/GitHub/Store-system-with-feedback/main.sol\":9497:9916  function leaveComment (string memory userName, string[] memory comment) public {\r... */\n    tag_82:\n        /* \"Documents/GitHub/Store-system-with-feedback/main.sol\":9591:9597  uint i */\n      0x00\n        /* \"Documents/GitHub/Store-system-with-feedback/main.sol\":9587:9909  for(uint i = 0; i < complaintBooks.length; i++) {\r... */\n    tag_242:\n        /* \"Documents/GitHub/Store-system-with-feedback/main.sol\":9607:9621  complaintBooks */\n      0x03\n        /* \"Documents/GitHub/Store-system-with-feedback/main.sol\":9607:9628  complaintBooks.length */\n      dup1\n      sload\n      swap1\n      pop\n        /* \"Documents/GitHub/Store-system-with-feedback/main.sol\":9603:9604  i */\n      dup2\n        /* \"Documents/GitHub/Store-system-with-feedback/main.sol\":9603:9628  i < complaintBooks.length */\n      lt\n        /* \"Documents/GitHub/Store-system-with-feedback/main.sol\":9587:9909  for(uint i = 0; i < complaintBooks.length; i++) {\r... */\n      iszero\n      tag_243\n      jumpi\n        /* \"Documents/GitHub/Store-system-with-feedback/main.sol\":9650:9676  string memory tempUserName */\n      0x00\n        /* \"Documents/GitHub/Store-system-with-feedback/main.sol\":9679:9693  complaintBooks */\n      0x03\n        /* \"Documents/GitHub/Store-system-with-feedback/main.sol\":9694:9695  i */\n      dup3\n        /* \"Documents/GitHub/Store-system-with-feedback/main.sol\":9679:9696  complaintBooks[i] */\n      dup2\n      sload\n      dup2\n      lt\n      tag_245\n      jumpi\n      tag_246\n      tag_247\n      jump\t// in\n    tag_246:\n    tag_245:\n      swap1\n      0x00\n      mstore\n      keccak256(0x00, 0x20)\n      swap1\n      0x05\n      mul\n      add\n        /* \"Documents/GitHub/Store-system-with-feedback/main.sol\":9679:9705  complaintBooks[i].userName */\n      0x01\n      add\n        /* \"Documents/GitHub/Store-system-with-feedback/main.sol\":9650:9705  string memory tempUserName = complaintBooks[i].userName */\n      dup1\n      sload\n      tag_249\n      swap1\n      tag_236\n      jump\t// in\n    tag_249:\n      dup1\n      0x1f\n      add\n      0x20\n      dup1\n      swap2\n      div\n      mul\n      0x20\n      add\n      mload(0x40)\n      swap1\n      dup2\n      add\n      0x40\n      mstore\n      dup1\n      swap3\n      swap2\n      swap1\n      dup2\n      dup2\n      mstore\n      0x20\n      add\n      dup3\n      dup1\n      sload\n      tag_250\n      swap1\n      tag_236\n      jump\t// in\n    tag_250:\n      dup1\n      iszero\n      tag_251\n      jumpi\n      dup1\n      0x1f\n      lt\n      tag_252\n      jumpi\n      0x0100\n      dup1\n      dup4\n      sload\n      div\n      mul\n      dup4\n      mstore\n      swap2\n      0x20\n      add\n      swap2\n      jump(tag_251)\n    tag_252:\n      dup3\n      add\n      swap2\n      swap1\n      0x00\n      mstore\n      keccak256(0x00, 0x20)\n      swap1\n    tag_253:\n      dup2\n      sload\n      dup2\n      mstore\n      swap1\n      0x01\n      add\n      swap1\n      0x20\n      add\n      dup1\n      dup4\n      gt\n      tag_253\n      jumpi\n      dup3\n      swap1\n      sub\n      0x1f\n      and\n      dup3\n      add\n      swap2\n    tag_251:\n      pop\n      pop\n      pop\n      pop\n      pop\n      swap1\n      pop\n        /* \"Documents/GitHub/Store-system-with-feedback/main.sol\":9795:9803  userName */\n      dup4\n        /* \"Documents/GitHub/Store-system-with-feedback/main.sol\":9778:9804  abi.encodePacked(userName) */\n      add(0x20, mload(0x40))\n      tag_254\n      swap2\n      swap1\n      tag_211\n      jump\t// in\n    tag_254:\n      mload(0x40)\n      0x20\n      dup2\n      dup4\n      sub\n      sub\n      dup2\n      mstore\n      swap1\n      0x40\n      mstore\n        /* \"Documents/GitHub/Store-system-with-feedback/main.sol\":9768:9805  keccak256(abi.encodePacked(userName)) */\n      dup1\n      mload\n      swap1\n      0x20\n      add\n      keccak256\n        /* \"Documents/GitHub/Store-system-with-feedback/main.sol\":9750:9762  tempUserName */\n      dup2\n        /* \"Documents/GitHub/Store-system-with-feedback/main.sol\":9733:9763  abi.encodePacked(tempUserName) */\n      add(0x20, mload(0x40))\n      tag_255\n      swap2\n      swap1\n      tag_211\n      jump\t// in\n    tag_255:\n      mload(0x40)\n      0x20\n      dup2\n      dup4\n      sub\n      sub\n      dup2\n      mstore\n      swap1\n      0x40\n      mstore\n        /* \"Documents/GitHub/Store-system-with-feedback/main.sol\":9723:9764  keccak256(abi.encodePacked(tempUserName)) */\n      dup1\n      mload\n      swap1\n      0x20\n      add\n      keccak256\n        /* \"Documents/GitHub/Store-system-with-feedback/main.sol\":9723:9805  keccak256(abi.encodePacked(tempUserName)) == keccak256(abi.encodePacked(userName)) */\n      eq\n        /* \"Documents/GitHub/Store-system-with-feedback/main.sol\":9720:9898  if(keccak256(abi.encodePacked(tempUserName)) == keccak256(abi.encodePacked(userName))) {                    \r... */\n      iszero\n      tag_256\n      jumpi\n        /* \"Documents/GitHub/Store-system-with-feedback/main.sol\":9875:9882  comment */\n      dup3\n        /* \"Documents/GitHub/Store-system-with-feedback/main.sol\":9846:9860  complaintBooks */\n      0x03\n        /* \"Documents/GitHub/Store-system-with-feedback/main.sol\":9861:9862  i */\n      dup4\n        /* \"Documents/GitHub/Store-system-with-feedback/main.sol\":9846:9863  complaintBooks[i] */\n      dup2\n      sload\n      dup2\n      lt\n      tag_257\n      jumpi\n      tag_258\n      tag_247\n      jump\t// in\n    tag_258:\n    tag_257:\n      swap1\n      0x00\n      mstore\n      keccak256(0x00, 0x20)\n      swap1\n      0x05\n      mul\n      add\n        /* \"Documents/GitHub/Store-system-with-feedback/main.sol\":9846:9872  complaintBooks[i].comments */\n      0x04\n      add\n        /* \"Documents/GitHub/Store-system-with-feedback/main.sol\":9846:9882  complaintBooks[i].comments = comment */\n      swap1\n      dup1\n      mload\n      swap1\n      0x20\n      add\n      swap1\n      tag_260\n      swap3\n      swap2\n      swap1\n      tag_261\n      jump\t// in\n    tag_260:\n      pop\n        /* \"Documents/GitHub/Store-system-with-feedback/main.sol\":9720:9898  if(keccak256(abi.encodePacked(tempUserName)) == keccak256(abi.encodePacked(userName))) {                    \r... */\n    tag_256:\n        /* \"Documents/GitHub/Store-system-with-feedback/main.sol\":9635:9909  {\r... */\n      pop\n        /* \"Documents/GitHub/Store-system-with-feedback/main.sol\":9630:9633  i++ */\n      dup1\n      dup1\n      tag_262\n      swap1\n      tag_263\n      jump\t// in\n    tag_262:\n      swap2\n      pop\n      pop\n        /* \"Documents/GitHub/Store-system-with-feedback/main.sol\":9587:9909  for(uint i = 0; i < complaintBooks.length; i++) {\r... */\n      jump(tag_242)\n    tag_243:\n      pop\n        /* \"Documents/GitHub/Store-system-with-feedback/main.sol\":9497:9916  function leaveComment (string memory userName, string[] memory comment) public {\r... */\n      pop\n      pop\n      jump\t// out\n        /* \"Documents/GitHub/Store-system-with-feedback/main.sol\":7579:7979  function acceptReturn(uint idReturn, bool confirmation) public payable {\r... */\n    tag_86:\n        /* \"Documents/GitHub/Store-system-with-feedback/main.sol\":7680:7684  true */\n      0x01\n        /* \"Documents/GitHub/Store-system-with-feedback/main.sol\":7664:7684  confirmation == true */\n      iszero\n      iszero\n        /* \"Documents/GitHub/Store-system-with-feedback/main.sol\":7664:7676  confirmation */\n      dup2\n        /* \"Documents/GitHub/Store-system-with-feedback/main.sol\":7664:7684  confirmation == true */\n      iszero\n      iszero\n      eq\n        /* \"Documents/GitHub/Store-system-with-feedback/main.sol\":7661:7972  if(confirmation == true) {\r... */\n      iszero\n      tag_265\n      jumpi\n        /* \"Documents/GitHub/Store-system-with-feedback/main.sol\":7709:7728  structStatusReturns */\n      0x0b\n        /* \"Documents/GitHub/Store-system-with-feedback/main.sol\":7729:7737  idReturn */\n      dup3\n        /* \"Documents/GitHub/Store-system-with-feedback/main.sol\":7709:7738  structStatusReturns[idReturn] */\n      dup2\n      sload\n      dup2\n      lt\n      tag_266\n      jumpi\n      tag_267\n      tag_247\n      jump\t// in\n    tag_267:\n    tag_266:\n      swap1\n      0x00\n      mstore\n      keccak256(0x00, 0x20)\n      swap1\n      0x03\n      mul\n      add\n        /* \"Documents/GitHub/Store-system-with-feedback/main.sol\":7709:7748  structStatusReturns[idReturn].userLogin */\n      0x00\n      add\n      0x00\n      swap1\n      sload\n      swap1\n      0x0100\n      exp\n      swap1\n      div\n      0xffffffffffffffffffffffffffffffffffffffff\n      and\n        /* \"Documents/GitHub/Store-system-with-feedback/main.sol\":7701:7758  payable(structStatusReturns[idReturn].userLogin).transfer */\n      0xffffffffffffffffffffffffffffffffffffffff\n      and\n        /* \"Documents/GitHub/Store-system-with-feedback/main.sol\":7701:7824  payable(structStatusReturns[idReturn].userLogin).transfer(structProducts[structStatusReturns[idReturn].titleProduct].price) */\n      0x08fc\n        /* \"Documents/GitHub/Store-system-with-feedback/main.sol\":7759:7773  structProducts */\n      0x08\n        /* \"Documents/GitHub/Store-system-with-feedback/main.sol\":7774:7793  structStatusReturns */\n      0x0b\n        /* \"Documents/GitHub/Store-system-with-feedback/main.sol\":7794:7802  idReturn */\n      dup6\n        /* \"Documents/GitHub/Store-system-with-feedback/main.sol\":7774:7803  structStatusReturns[idReturn] */\n      dup2\n      sload\n      dup2\n      lt\n      tag_269\n      jumpi\n      tag_270\n      tag_247\n      jump\t// in\n    tag_270:\n    tag_269:\n      swap1\n      0x00\n      mstore\n      keccak256(0x00, 0x20)\n      swap1\n      0x03\n      mul\n      add\n        /* \"Documents/GitHub/Store-system-with-feedback/main.sol\":7774:7816  structStatusReturns[idReturn].titleProduct */\n      0x01\n      add\n        /* \"Documents/GitHub/Store-system-with-feedback/main.sol\":7759:7817  structProducts[structStatusReturns[idReturn].titleProduct] */\n      mload(0x40)\n      tag_272\n      swap2\n      swap1\n      tag_273\n      jump\t// in\n    tag_272:\n      swap1\n      dup2\n      mstore\n      0x20\n      add\n      mload(0x40)\n      dup1\n      swap2\n      sub\n      swap1\n      keccak256\n        /* \"Documents/GitHub/Store-system-with-feedback/main.sol\":7759:7823  structProducts[structStatusReturns[idReturn].titleProduct].price */\n      0x02\n      add\n      sload\n        /* \"Documents/GitHub/Store-system-with-feedback/main.sol\":7701:7824  payable(structStatusReturns[idReturn].userLogin).transfer(structProducts[structStatusReturns[idReturn].titleProduct].price) */\n      swap1\n      dup2\n      iszero\n      mul\n      swap1\n      mload(0x40)\n      0x00\n      mload(0x40)\n      dup1\n      dup4\n      sub\n      dup2\n      dup6\n      dup9\n      dup9\n      call\n      swap4\n      pop\n      pop\n      pop\n      pop\n      iszero\n      dup1\n      iszero\n      tag_275\n      jumpi\n      returndatasize\n      0x00\n      dup1\n      returndatacopy\n      revert(0x00, returndatasize)\n    tag_275:\n      pop\n        /* \"Documents/GitHub/Store-system-with-feedback/main.sol\":7878:7883  false */\n      0x00\n        /* \"Documents/GitHub/Store-system-with-feedback/main.sol\":7839:7858  structStatusReturns */\n      0x0b\n        /* \"Documents/GitHub/Store-system-with-feedback/main.sol\":7859:7867  idReturn */\n      dup4\n        /* \"Documents/GitHub/Store-system-with-feedback/main.sol\":7839:7868  structStatusReturns[idReturn] */\n      dup2\n      sload\n      dup2\n      lt\n      tag_276\n      jumpi\n      tag_277\n      tag_247\n      jump\t// in\n    tag_277:\n    tag_276:\n      swap1\n      0x00\n      mstore\n      keccak256(0x00, 0x20)\n      swap1\n      0x03\n      mul\n      add\n        /* \"Documents/GitHub/Store-system-with-feedback/main.sol\":7839:7875  structStatusReturns[idReturn].status */\n      0x02\n      add\n      0x00\n        /* \"Documents/GitHub/Store-system-with-feedback/main.sol\":7839:7883  structStatusReturns[idReturn].status = false */\n      0x0100\n      exp\n      dup2\n      sload\n      dup2\n      0xff\n      mul\n      not\n      and\n      swap1\n      dup4\n      iszero\n      iszero\n      mul\n      or\n      swap1\n      sstore\n      pop\n        /* \"Documents/GitHub/Store-system-with-feedback/main.sol\":7661:7972  if(confirmation == true) {\r... */\n      jump(tag_279)\n    tag_265:\n        /* \"Documents/GitHub/Store-system-with-feedback/main.sol\":7955:7960  false */\n      0x00\n        /* \"Documents/GitHub/Store-system-with-feedback/main.sol\":7916:7935  structStatusReturns */\n      0x0b\n        /* \"Documents/GitHub/Store-system-with-feedback/main.sol\":7936:7944  idReturn */\n      dup4\n        /* \"Documents/GitHub/Store-system-with-feedback/main.sol\":7916:7945  structStatusReturns[idReturn] */\n      dup2\n      sload\n      dup2\n      lt\n      tag_280\n      jumpi\n      tag_281\n      tag_247\n      jump\t// in\n    tag_281:\n    tag_280:\n      swap1\n      0x00\n      mstore\n      keccak256(0x00, 0x20)\n      swap1\n      0x03\n      mul\n      add\n        /* \"Documents/GitHub/Store-system-with-feedback/main.sol\":7916:7952  structStatusReturns[idReturn].status */\n      0x02\n      add\n      0x00\n        /* \"Documents/GitHub/Store-system-with-feedback/main.sol\":7916:7960  structStatusReturns[idReturn].status = false */\n      0x0100\n      exp\n      dup2\n      sload\n      dup2\n      0xff\n      mul\n      not\n      and\n      swap1\n      dup4\n      iszero\n      iszero\n      mul\n      or\n      swap1\n      sstore\n      pop\n        /* \"Documents/GitHub/Store-system-with-feedback/main.sol\":7661:7972  if(confirmation == true) {\r... */\n    tag_279:\n        /* \"Documents/GitHub/Store-system-with-feedback/main.sol\":7579:7979  function acceptReturn(uint idReturn, bool confirmation) public payable {\r... */\n      pop\n      pop\n      jump\t// out\n        /* \"Documents/GitHub/Store-system-with-feedback/main.sol\":1666:1811  function check_logged_shop(string memory login) public view returns(bool) {\r... */\n    tag_90:\n        /* \"Documents/GitHub/Store-system-with-feedback/main.sol\":1734:1738  bool */\n      0x00\n        /* \"Documents/GitHub/Store-system-with-feedback/main.sol\":1762:1773  structShops */\n      dup1\n        /* \"Documents/GitHub/Store-system-with-feedback/main.sol\":1762:1791  structShops[shopLists[login]] */\n      0x00\n        /* \"Documents/GitHub/Store-system-with-feedback/main.sol\":1774:1783  shopLists */\n      0x01\n        /* \"Documents/GitHub/Store-system-with-feedback/main.sol\":1784:1789  login */\n      dup5\n        /* \"Documents/GitHub/Store-system-with-feedback/main.sol\":1774:1790  shopLists[login] */\n      mload(0x40)\n      tag_284\n      swap2\n      swap1\n      tag_211\n      jump\t// in\n    tag_284:\n      swap1\n      dup2\n      mstore\n      0x20\n      add\n      mload(0x40)\n      dup1\n      swap2\n      sub\n      swap1\n      keccak256\n      0x00\n      swap1\n      sload\n      swap1\n      0x0100\n      exp\n      swap1\n      div\n      0xffffffffffffffffffffffffffffffffffffffff\n      and\n        /* \"Documents/GitHub/Store-system-with-feedback/main.sol\":1762:1791  structShops[shopLists[login]] */\n      0xffffffffffffffffffffffffffffffffffffffff\n      and\n      0xffffffffffffffffffffffffffffffffffffffff\n      and\n      dup2\n      mstore\n      0x20\n      add\n      swap1\n      dup2\n      mstore\n      0x20\n      add\n      0x00\n      keccak256\n        /* \"Documents/GitHub/Store-system-with-feedback/main.sol\":1762:1798  structShops[shopLists[login]].logged */\n      0x03\n      add\n      0x00\n      swap1\n      sload\n      swap1\n      0x0100\n      exp\n      swap1\n      div\n      0xff\n      and\n        /* \"Documents/GitHub/Store-system-with-feedback/main.sol\":1755:1799  return(structShops[shopLists[login]].logged) */\n      swap1\n      pop\n        /* \"Documents/GitHub/Store-system-with-feedback/main.sol\":1666:1811  function check_logged_shop(string memory login) public view returns(bool) {\r... */\n      swap2\n      swap1\n      pop\n      jump\t// out\n        /* \"Documents/GitHub/Store-system-with-feedback/main.sol\":12391:12513  function login_out_user(string memory login) public {\r... */\n    tag_96:\n        /* \"Documents/GitHub/Store-system-with-feedback/main.sol\":12500:12505  false */\n      0x00\n        /* \"Documents/GitHub/Store-system-with-feedback/main.sol\":12454:12465  structUsers */\n      0x04\n        /* \"Documents/GitHub/Store-system-with-feedback/main.sol\":12454:12490  structUsers[structUserLogins[login]] */\n      0x00\n        /* \"Documents/GitHub/Store-system-with-feedback/main.sol\":12466:12482  structUserLogins */\n      0x05\n        /* \"Documents/GitHub/Store-system-with-feedback/main.sol\":12483:12488  login */\n      dup5\n        /* \"Documents/GitHub/Store-system-with-feedback/main.sol\":12466:12489  structUserLogins[login] */\n      mload(0x40)\n      tag_286\n      swap2\n      swap1\n      tag_211\n      jump\t// in\n    tag_286:\n      swap1\n      dup2\n      mstore\n      0x20\n      add\n      mload(0x40)\n      dup1\n      swap2\n      sub\n      swap1\n      keccak256\n      0x00\n      swap1\n      sload\n      swap1\n      0x0100\n      exp\n      swap1\n      div\n      0xffffffffffffffffffffffffffffffffffffffff\n      and\n        /* \"Documents/GitHub/Store-system-with-feedback/main.sol\":12454:12490  structUsers[structUserLogins[login]] */\n      0xffffffffffffffffffffffffffffffffffffffff\n      and\n      0xffffffffffffffffffffffffffffffffffffffff\n      and\n      dup2\n      mstore\n      0x20\n      add\n      swap1\n      dup2\n      mstore\n      0x20\n      add\n      0x00\n      keccak256\n        /* \"Documents/GitHub/Store-system-with-feedback/main.sol\":12454:12497  structUsers[structUserLogins[login]].logged */\n      0x03\n      add\n      0x00\n        /* \"Documents/GitHub/Store-system-with-feedback/main.sol\":12454:12505  structUsers[structUserLogins[login]].logged = false */\n      0x0100\n      exp\n      dup2\n      sload\n      dup2\n      0xff\n      mul\n      not\n      and\n      swap1\n      dup4\n      iszero\n      iszero\n      mul\n      or\n      swap1\n      sstore\n      pop\n        /* \"Documents/GitHub/Store-system-with-feedback/main.sol\":12391:12513  function login_out_user(string memory login) public {\r... */\n      pop\n      jump\t// out\n        /* \"Documents/GitHub/Store-system-with-feedback/main.sol\":2130:2269  function get_city(string memory login) public view returns(string memory) {\r... */\n    tag_100:\n        /* \"Documents/GitHub/Store-system-with-feedback/main.sol\":2189:2202  string memory */\n      0x60\n        /* \"Documents/GitHub/Store-system-with-feedback/main.sol\":2222:2233  structShops */\n      0x00\n        /* \"Documents/GitHub/Store-system-with-feedback/main.sol\":2222:2251  structShops[shopLists[login]] */\n      dup1\n        /* \"Documents/GitHub/Store-system-with-feedback/main.sol\":2234:2243  shopLists */\n      0x01\n        /* \"Documents/GitHub/Store-system-with-feedback/main.sol\":2244:2249  login */\n      dup5\n        /* \"Documents/GitHub/Store-system-with-feedback/main.sol\":2234:2250  shopLists[login] */\n      mload(0x40)\n      tag_288\n      swap2\n      swap1\n      tag_211\n      jump\t// in\n    tag_288:\n      swap1\n      dup2\n      mstore\n      0x20\n      add\n      mload(0x40)\n      dup1\n      swap2\n      sub\n      swap1\n      keccak256\n      0x00\n      swap1\n      sload\n      swap1\n      0x0100\n      exp\n      swap1\n      div\n      0xffffffffffffffffffffffffffffffffffffffff\n      and\n        /* \"Documents/GitHub/Store-system-with-feedback/main.sol\":2222:2251  structShops[shopLists[login]] */\n      0xffffffffffffffffffffffffffffffffffffffff\n      and\n      0xffffffffffffffffffffffffffffffffffffffff\n      and\n      dup2\n      mstore\n      0x20\n      add\n      swap1\n      dup2\n      mstore\n      0x20\n      add\n      0x00\n      keccak256\n        /* \"Documents/GitHub/Store-system-with-feedback/main.sol\":2222:2256  structShops[shopLists[login]].city */\n      0x05\n      add\n        /* \"Documents/GitHub/Store-system-with-feedback/main.sol\":2215:2257  return(structShops[shopLists[login]].city) */\n      dup1\n      sload\n      tag_289\n      swap1\n      tag_236\n      jump\t// in\n    tag_289:\n      dup1\n      0x1f\n      add\n      0x20\n      dup1\n      swap2\n      div\n      mul\n      0x20\n      add\n      mload(0x40)\n      swap1\n      dup2\n      add\n      0x40\n      mstore\n      dup1\n      swap3\n      swap2\n      swap1\n      dup2\n      dup2\n      mstore\n      0x20\n      add\n      dup3\n      dup1\n      sload\n      tag_290\n      swap1\n      tag_236\n      jump\t// in\n    tag_290:\n      dup1\n      iszero\n      tag_291\n      jumpi\n      dup1\n      0x1f\n      lt\n      tag_292\n      jumpi\n      0x0100\n      dup1\n      dup4\n      sload\n      div\n      mul\n      dup4\n      mstore\n      swap2\n      0x20\n      add\n      swap2\n      jump(tag_291)\n    tag_292:\n      dup3\n      add\n      swap2\n      swap1\n      0x00\n      mstore\n      keccak256(0x00, 0x20)\n      swap1\n    tag_293:\n      dup2\n      sload\n      dup2\n      mstore\n      swap1\n      0x01\n      add\n      swap1\n      0x20\n      add\n      dup1\n      dup4\n      gt\n      tag_293\n      jumpi\n      dup3\n      swap1\n      sub\n      0x1f\n      and\n      dup3\n      add\n      swap2\n    tag_291:\n      pop\n      pop\n      pop\n      pop\n      pop\n      swap1\n      pop\n        /* \"Documents/GitHub/Store-system-with-feedback/main.sol\":2130:2269  function get_city(string memory login) public view returns(string memory) {\r... */\n      swap2\n      swap1\n      pop\n      jump\t// out\n        /* \"Documents/GitHub/Store-system-with-feedback/main.sol\":11233:11392  function productMarriage(string memory titleProduct) public {\r... */\n    tag_106:\n        /* \"Documents/GitHub/Store-system-with-feedback/main.sol\":11304:11325  structStatusMarriages */\n      0x0c\n        /* \"Documents/GitHub/Store-system-with-feedback/main.sol\":11331:11383  structStatusMarriage(msg.sender, titleProduct, true) */\n      mload(0x40)\n      dup1\n      0x60\n      add\n      0x40\n      mstore\n      dup1\n        /* \"Documents/GitHub/Store-system-with-feedback/main.sol\":11352:11362  msg.sender */\n      caller\n        /* \"Documents/GitHub/Store-system-with-feedback/main.sol\":11331:11383  structStatusMarriage(msg.sender, titleProduct, true) */\n      0xffffffffffffffffffffffffffffffffffffffff\n      and\n      dup2\n      mstore\n      0x20\n      add\n        /* \"Documents/GitHub/Store-system-with-feedback/main.sol\":11364:11376  titleProduct */\n      dup4\n        /* \"Documents/GitHub/Store-system-with-feedback/main.sol\":11331:11383  structStatusMarriage(msg.sender, titleProduct, true) */\n      dup2\n      mstore\n      0x20\n      add\n        /* \"Documents/GitHub/Store-system-with-feedback/main.sol\":11378:11382  true */\n      0x01\n        /* \"Documents/GitHub/Store-system-with-feedback/main.sol\":11331:11383  structStatusMarriage(msg.sender, titleProduct, true) */\n      iszero\n      iszero\n      dup2\n      mstore\n      pop\n        /* \"Documents/GitHub/Store-system-with-feedback/main.sol\":11304:11384  structStatusMarriages.push(structStatusMarriage(msg.sender, titleProduct, true)) */\n      swap1\n      dup1\n      0x01\n      dup2\n      sload\n      add\n      dup1\n      dup3\n      sstore\n      dup1\n      swap2\n      pop\n      pop\n      0x01\n      swap1\n      sub\n      swap1\n      0x00\n      mstore\n      keccak256(0x00, 0x20)\n      swap1\n      0x03\n      mul\n      add\n      0x00\n      swap1\n      swap2\n      swap1\n      swap2\n      swap1\n      swap2\n      pop\n      0x00\n      dup3\n      add\n      mload\n      dup2\n      0x00\n      add\n      exp(0x0100, 0x00)\n      dup2\n      sload\n      dup2\n      0xffffffffffffffffffffffffffffffffffffffff\n      mul\n      not\n      and\n      swap1\n      dup4\n      0xffffffffffffffffffffffffffffffffffffffff\n      and\n      mul\n      or\n      swap1\n      sstore\n      pop\n      0x20\n      dup3\n      add\n      mload\n      dup2\n      0x01\n      add\n      swap1\n      dup1\n      mload\n      swap1\n      0x20\n      add\n      swap1\n      tag_296\n      swap3\n      swap2\n      swap1\n      tag_220\n      jump\t// in\n    tag_296:\n      pop\n      0x40\n      dup3\n      add\n      mload\n      dup2\n      0x02\n      add\n      exp(0x0100, 0x00)\n      dup2\n      sload\n      dup2\n      0xff\n      mul\n      not\n      and\n      swap1\n      dup4\n      iszero\n      iszero\n      mul\n      or\n      swap1\n      sstore\n      pop\n      pop\n      pop\n        /* \"Documents/GitHub/Store-system-with-feedback/main.sol\":11233:11392  function productMarriage(string memory titleProduct) public {\r... */\n      pop\n      jump\t// out\n        /* \"Documents/GitHub/Store-system-with-feedback/main.sol\":2439:2591  function check_logged_user(string memory login) public view returns(bool) {\r... */\n    tag_110:\n        /* \"Documents/GitHub/Store-system-with-feedback/main.sol\":2507:2511  bool */\n      0x00\n        /* \"Documents/GitHub/Store-system-with-feedback/main.sol\":2535:2546  structUsers */\n      0x04\n        /* \"Documents/GitHub/Store-system-with-feedback/main.sol\":2535:2571  structUsers[structUserLogins[login]] */\n      0x00\n        /* \"Documents/GitHub/Store-system-with-feedback/main.sol\":2547:2563  structUserLogins */\n      0x05\n        /* \"Documents/GitHub/Store-system-with-feedback/main.sol\":2564:2569  login */\n      dup5\n        /* \"Documents/GitHub/Store-system-with-feedback/main.sol\":2547:2570  structUserLogins[login] */\n      mload(0x40)\n      tag_298\n      swap2\n      swap1\n      tag_211\n      jump\t// in\n    tag_298:\n      swap1\n      dup2\n      mstore\n      0x20\n      add\n      mload(0x40)\n      dup1\n      swap2\n      sub\n      swap1\n      keccak256\n      0x00\n      swap1\n      sload\n      swap1\n      0x0100\n      exp\n      swap1\n      div\n      0xffffffffffffffffffffffffffffffffffffffff\n      and\n        /* \"Documents/GitHub/Store-system-with-feedback/main.sol\":2535:2571  structUsers[structUserLogins[login]] */\n      0xffffffffffffffffffffffffffffffffffffffff\n      and\n      0xffffffffffffffffffffffffffffffffffffffff\n      and\n      dup2\n      mstore\n      0x20\n      add\n      swap1\n      dup2\n      mstore\n      0x20\n      add\n      0x00\n      keccak256\n        /* \"Documents/GitHub/Store-system-with-feedback/main.sol\":2535:2578  structUsers[structUserLogins[login]].logged */\n      0x03\n      add\n      0x00\n      swap1\n      sload\n      swap1\n      0x0100\n      exp\n      swap1\n      div\n      0xff\n      and\n        /* \"Documents/GitHub/Store-system-with-feedback/main.sol\":2528:2579  return(structUsers[structUserLogins[login]].logged) */\n      swap1\n      pop\n        /* \"Documents/GitHub/Store-system-with-feedback/main.sol\":2439:2591  function check_logged_user(string memory login) public view returns(bool) {\r... */\n      swap2\n      swap1\n      pop\n      jump\t// out\n        /* \"Documents/GitHub/Store-system-with-feedback/main.sol\":1458:1568  function get_product_list() public view returns(string[] memory) {\r... */\n    tag_114:\n        /* \"Documents/GitHub/Store-system-with-feedback/main.sol\":1506:1521  string[] memory */\n      0x60\n        /* \"Documents/GitHub/Store-system-with-feedback/main.sol\":1545:1556  productList */\n      0x09\n        /* \"Documents/GitHub/Store-system-with-feedback/main.sol\":1538:1556  return productList */\n      dup1\n      sload\n      dup1\n      0x20\n      mul\n      0x20\n      add\n      mload(0x40)\n      swap1\n      dup2\n      add\n      0x40\n      mstore\n      dup1\n      swap3\n      swap2\n      swap1\n      dup2\n      dup2\n      mstore\n      0x20\n      add\n      0x00\n      swap1\n    tag_300:\n      dup3\n      dup3\n      lt\n      iszero\n      tag_301\n      jumpi\n      dup4\n      dup3\n      swap1\n      0x00\n      mstore\n      keccak256(0x00, 0x20)\n      add\n      dup1\n      sload\n      tag_303\n      swap1\n      tag_236\n      jump\t// in\n    tag_303:\n      dup1\n      0x1f\n      add\n      0x20\n      dup1\n      swap2\n      div\n      mul\n      0x20\n      add\n      mload(0x40)\n      swap1\n      dup2\n      add\n      0x40\n      mstore\n      dup1\n      swap3\n      swap2\n      swap1\n      dup2\n      dup2\n      mstore\n      0x20\n      add\n      dup3\n      dup1\n      sload\n      tag_304\n      swap1\n      tag_236\n      jump\t// in\n    tag_304:\n      dup1\n      iszero\n      tag_305\n      jumpi\n      dup1\n      0x1f\n      lt\n      tag_306\n      jumpi\n      0x0100\n      dup1\n      dup4\n      sload\n      div\n      mul\n      dup4\n      mstore\n      swap2\n      0x20\n      add\n      swap2\n      jump(tag_305)\n    tag_306:\n      dup3\n      add\n      swap2\n      swap1\n      0x00\n      mstore\n      keccak256(0x00, 0x20)\n      swap1\n    tag_307:\n      dup2\n      sload\n      dup2\n      mstore\n      swap1\n      0x01\n      add\n      swap1\n      0x20\n      add\n      dup1\n      dup4\n      gt\n      tag_307\n      jumpi\n      dup3\n      swap1\n      sub\n      0x1f\n      and\n      dup3\n      add\n      swap2\n    tag_305:\n      pop\n      pop\n      pop\n      pop\n      pop\n      dup2\n      mstore\n      0x20\n      add\n      swap1\n      0x01\n      add\n      swap1\n      jump(tag_300)\n    tag_301:\n      pop\n      pop\n      pop\n      pop\n      swap1\n      pop\n        /* \"Documents/GitHub/Store-system-with-feedback/main.sol\":1458:1568  function get_product_list() public view returns(string[] memory) {\r... */\n      swap1\n      jump\t// out\n        /* \"Documents/GitHub/Store-system-with-feedback/main.sol\":2687:2833  function get_role_user(string memory login) public view returns(uint) {\r... */\n    tag_119:\n        /* \"Documents/GitHub/Store-system-with-feedback/main.sol\":2751:2755  uint */\n      0x00\n        /* \"Documents/GitHub/Store-system-with-feedback/main.sol\":2779:2790  structUsers */\n      0x04\n        /* \"Documents/GitHub/Store-system-with-feedback/main.sol\":2779:2815  structUsers[structUserLogins[login]] */\n      0x00\n        /* \"Documents/GitHub/Store-system-with-feedback/main.sol\":2791:2807  structUserLogins */\n      0x05\n        /* \"Documents/GitHub/Store-system-with-feedback/main.sol\":2808:2813  login */\n      dup5\n        /* \"Documents/GitHub/Store-system-with-feedback/main.sol\":2791:2814  structUserLogins[login] */\n      mload(0x40)\n      tag_309\n      swap2\n      swap1\n      tag_211\n      jump\t// in\n    tag_309:\n      swap1\n      dup2\n      mstore\n      0x20\n      add\n      mload(0x40)\n      dup1\n      swap2\n      sub\n      swap1\n      keccak256\n      0x00\n      swap1\n      sload\n      swap1\n      0x0100\n      exp\n      swap1\n      div\n      0xffffffffffffffffffffffffffffffffffffffff\n      and\n        /* \"Documents/GitHub/Store-system-with-feedback/main.sol\":2779:2815  structUsers[structUserLogins[login]] */\n      0xffffffffffffffffffffffffffffffffffffffff\n      and\n      0xffffffffffffffffffffffffffffffffffffffff\n      and\n      dup2\n      mstore\n      0x20\n      add\n      swap1\n      dup2\n      mstore\n      0x20\n      add\n      0x00\n      keccak256\n        /* \"Documents/GitHub/Store-system-with-feedback/main.sol\":2779:2820  structUsers[structUserLogins[login]].role */\n      0x02\n      add\n      sload\n        /* \"Documents/GitHub/Store-system-with-feedback/main.sol\":2772:2821  return(structUsers[structUserLogins[login]].role) */\n      swap1\n      pop\n        /* \"Documents/GitHub/Store-system-with-feedback/main.sol\":2687:2833  function get_role_user(string memory login) public view returns(uint) {\r... */\n      swap2\n      swap1\n      pop\n      jump\t// out\n        /* \"Documents/GitHub/Store-system-with-feedback/main.sol\":3331:3618  function get_address(string memory login) public view returns(address) {\r... */\n    tag_124:\n        /* \"Documents/GitHub/Store-system-with-feedback/main.sol\":3393:3400  address */\n      0x00\n        /* \"Documents/GitHub/Store-system-with-feedback/main.sol\":3413:3424  address adr */\n      dup1\n        /* \"Documents/GitHub/Store-system-with-feedback/main.sol\":3474:3475  0 */\n      0x00\n        /* \"Documents/GitHub/Store-system-with-feedback/main.sol\":3439:3476  structUserLogins[login] != address(0) */\n      0xffffffffffffffffffffffffffffffffffffffff\n      and\n        /* \"Documents/GitHub/Store-system-with-feedback/main.sol\":3439:3455  structUserLogins */\n      0x05\n        /* \"Documents/GitHub/Store-system-with-feedback/main.sol\":3456:3461  login */\n      dup5\n        /* \"Documents/GitHub/Store-system-with-feedback/main.sol\":3439:3462  structUserLogins[login] */\n      mload(0x40)\n      tag_311\n      swap2\n      swap1\n      tag_211\n      jump\t// in\n    tag_311:\n      swap1\n      dup2\n      mstore\n      0x20\n      add\n      mload(0x40)\n      dup1\n      swap2\n      sub\n      swap1\n      keccak256\n      0x00\n      swap1\n      sload\n      swap1\n      0x0100\n      exp\n      swap1\n      div\n      0xffffffffffffffffffffffffffffffffffffffff\n      and\n        /* \"Documents/GitHub/Store-system-with-feedback/main.sol\":3439:3476  structUserLogins[login] != address(0) */\n      0xffffffffffffffffffffffffffffffffffffffff\n      and\n      eq\n        /* \"Documents/GitHub/Store-system-with-feedback/main.sol\":3435:3589  if (structUserLogins[login] != address(0)) {\r... */\n      tag_312\n      jumpi\n        /* \"Documents/GitHub/Store-system-with-feedback/main.sol\":3499:3515  structUserLogins */\n      0x05\n        /* \"Documents/GitHub/Store-system-with-feedback/main.sol\":3516:3521  login */\n      dup4\n        /* \"Documents/GitHub/Store-system-with-feedback/main.sol\":3499:3522  structUserLogins[login] */\n      mload(0x40)\n      tag_313\n      swap2\n      swap1\n      tag_211\n      jump\t// in\n    tag_313:\n      swap1\n      dup2\n      mstore\n      0x20\n      add\n      mload(0x40)\n      dup1\n      swap2\n      sub\n      swap1\n      keccak256\n      0x00\n      swap1\n      sload\n      swap1\n      0x0100\n      exp\n      swap1\n      div\n      0xffffffffffffffffffffffffffffffffffffffff\n      and\n        /* \"Documents/GitHub/Store-system-with-feedback/main.sol\":3493:3522  adr = structUserLogins[login] */\n      swap1\n      pop\n        /* \"Documents/GitHub/Store-system-with-feedback/main.sol\":3435:3589  if (structUserLogins[login] != address(0)) {\r... */\n      jump(tag_314)\n    tag_312:\n        /* \"Documents/GitHub/Store-system-with-feedback/main.sol\":3561:3570  shopLists */\n      0x01\n        /* \"Documents/GitHub/Store-system-with-feedback/main.sol\":3571:3576  login */\n      dup4\n        /* \"Documents/GitHub/Store-system-with-feedback/main.sol\":3561:3577  shopLists[login] */\n      mload(0x40)\n      tag_315\n      swap2\n      swap1\n      tag_211\n      jump\t// in\n    tag_315:\n      swap1\n      dup2\n      mstore\n      0x20\n      add\n      mload(0x40)\n      dup1\n      swap2\n      sub\n      swap1\n      keccak256\n      0x00\n      swap1\n      sload\n      swap1\n      0x0100\n      exp\n      swap1\n      div\n      0xffffffffffffffffffffffffffffffffffffffff\n      and\n        /* \"Documents/GitHub/Store-system-with-feedback/main.sol\":3555:3577  adr = shopLists[login] */\n      swap1\n      pop\n        /* \"Documents/GitHub/Store-system-with-feedback/main.sol\":3435:3589  if (structUserLogins[login] != address(0)) {\r... */\n    tag_314:\n        /* \"Documents/GitHub/Store-system-with-feedback/main.sol\":3606:3609  adr */\n      dup1\n        /* \"Documents/GitHub/Store-system-with-feedback/main.sol\":3599:3610  return(adr) */\n      swap2\n      pop\n      pop\n        /* \"Documents/GitHub/Store-system-with-feedback/main.sol\":3331:3618  function get_address(string memory login) public view returns(address) {\r... */\n      swap2\n      swap1\n      pop\n      jump\t// out\n        /* \"Documents/GitHub/Store-system-with-feedback/main.sol\":6003:6293  function addProductShop (string memory title, uint256 price, string memory description) public {\r... */\n    tag_130:\n        /* \"Documents/GitHub/Store-system-with-feedback/main.sol\":6133:6214  structProduct(msg.sender, description , price*(10**18), addProductShop_idProduct) */\n      mload(0x40)\n      dup1\n      0x80\n      add\n      0x40\n      mstore\n      dup1\n        /* \"Documents/GitHub/Store-system-with-feedback/main.sol\":6147:6157  msg.sender */\n      caller\n        /* \"Documents/GitHub/Store-system-with-feedback/main.sol\":6133:6214  structProduct(msg.sender, description , price*(10**18), addProductShop_idProduct) */\n      0xffffffffffffffffffffffffffffffffffffffff\n      and\n      dup2\n      mstore\n      0x20\n      add\n        /* \"Documents/GitHub/Store-system-with-feedback/main.sol\":6159:6170  description */\n      dup3\n        /* \"Documents/GitHub/Store-system-with-feedback/main.sol\":6133:6214  structProduct(msg.sender, description , price*(10**18), addProductShop_idProduct) */\n      dup2\n      mstore\n      0x20\n      add\n        /* \"Documents/GitHub/Store-system-with-feedback/main.sol\":6180:6186  10**18 */\n      0x0de0b6b3a7640000\n        /* \"Documents/GitHub/Store-system-with-feedback/main.sol\":6173:6178  price */\n      dup5\n        /* \"Documents/GitHub/Store-system-with-feedback/main.sol\":6173:6187  price*(10**18) */\n      tag_317\n      swap2\n      swap1\n      tag_318\n      jump\t// in\n    tag_317:\n        /* \"Documents/GitHub/Store-system-with-feedback/main.sol\":6133:6214  structProduct(msg.sender, description , price*(10**18), addProductShop_idProduct) */\n      dup2\n      mstore\n      0x20\n      add\n        /* \"Documents/GitHub/Store-system-with-feedback/main.sol\":6189:6213  addProductShop_idProduct */\n      sload(0x0d)\n        /* \"Documents/GitHub/Store-system-with-feedback/main.sol\":6133:6214  structProduct(msg.sender, description , price*(10**18), addProductShop_idProduct) */\n      dup2\n      mstore\n      pop\n        /* \"Documents/GitHub/Store-system-with-feedback/main.sol\":6109:6123  structProducts */\n      0x08\n        /* \"Documents/GitHub/Store-system-with-feedback/main.sol\":6124:6129  title */\n      dup5\n        /* \"Documents/GitHub/Store-system-with-feedback/main.sol\":6109:6130  structProducts[title] */\n      mload(0x40)\n      tag_319\n      swap2\n      swap1\n      tag_211\n      jump\t// in\n    tag_319:\n      swap1\n      dup2\n      mstore\n      0x20\n      add\n      mload(0x40)\n      dup1\n      swap2\n      sub\n      swap1\n      keccak256\n        /* \"Documents/GitHub/Store-system-with-feedback/main.sol\":6109:6214  structProducts[title] = structProduct(msg.sender, description , price*(10**18), addProductShop_idProduct) */\n      0x00\n      dup3\n      add\n      mload\n      dup2\n      0x00\n      add\n      exp(0x0100, 0x00)\n      dup2\n      sload\n      dup2\n      0xffffffffffffffffffffffffffffffffffffffff\n      mul\n      not\n      and\n      swap1\n      dup4\n      0xffffffffffffffffffffffffffffffffffffffff\n      and\n      mul\n      or\n      swap1\n      sstore\n      pop\n      0x20\n      dup3\n      add\n      mload\n      dup2\n      0x01\n      add\n      swap1\n      dup1\n      mload\n      swap1\n      0x20\n      add\n      swap1\n      tag_320\n      swap3\n      swap2\n      swap1\n      tag_220\n      jump\t// in\n    tag_320:\n      pop\n      0x40\n      dup3\n      add\n      mload\n      dup2\n      0x02\n      add\n      sstore\n      0x60\n      dup3\n      add\n      mload\n      dup2\n      0x03\n      add\n      sstore\n      swap1\n      pop\n      pop\n        /* \"Documents/GitHub/Store-system-with-feedback/main.sol\":6225:6236  productList */\n      0x09\n        /* \"Documents/GitHub/Store-system-with-feedback/main.sol\":6242:6247  title */\n      dup4\n        /* \"Documents/GitHub/Store-system-with-feedback/main.sol\":6225:6248  productList.push(title) */\n      swap1\n      dup1\n      0x01\n      dup2\n      sload\n      add\n      dup1\n      dup3\n      sstore\n      dup1\n      swap2\n      pop\n      pop\n      0x01\n      swap1\n      sub\n      swap1\n      0x00\n      mstore\n      keccak256(0x00, 0x20)\n      add\n      0x00\n      swap1\n      swap2\n      swap1\n      swap2\n      swap1\n      swap2\n      pop\n      swap1\n      dup1\n      mload\n      swap1\n      0x20\n      add\n      swap1\n      tag_322\n      swap3\n      swap2\n      swap1\n      tag_220\n      jump\t// in\n    tag_322:\n      pop\n        /* \"Documents/GitHub/Store-system-with-feedback/main.sol\":6259:6283  addProductShop_idProduct */\n      0x0d\n      0x00\n        /* \"Documents/GitHub/Store-system-with-feedback/main.sol\":6259:6285  addProductShop_idProduct++ */\n      dup2\n      sload\n      dup1\n      swap3\n      swap2\n      swap1\n      tag_323\n      swap1\n      tag_263\n      jump\t// in\n    tag_323:\n      swap2\n      swap1\n      pop\n      sstore\n      pop\n        /* \"Documents/GitHub/Store-system-with-feedback/main.sol\":6003:6293  function addProductShop (string memory title, uint256 price, string memory description) public {\r... */\n      pop\n      pop\n      pop\n      jump\t// out\n        /* \"Documents/GitHub/Store-system-with-feedback/main.sol\":5803:5854  structStatusMarriage[] public structStatusMarriages */\n    tag_135:\n      0x0c\n      dup2\n      dup2\n      sload\n      dup2\n      lt\n      tag_324\n      jumpi\n      0x00\n      dup1\n      revert\n    tag_324:\n      swap1\n      0x00\n      mstore\n      keccak256(0x00, 0x20)\n      swap1\n      0x03\n      mul\n      add\n      0x00\n      swap2\n      pop\n      swap1\n      pop\n      dup1\n      0x00\n      add\n      0x00\n      swap1\n      sload\n      swap1\n      0x0100\n      exp\n      swap1\n      div\n      0xffffffffffffffffffffffffffffffffffffffff\n      and\n      swap1\n      dup1\n      0x01\n      add\n      dup1\n      sload\n      tag_326\n      swap1\n      tag_236\n      jump\t// in\n    tag_326:\n      dup1\n      0x1f\n      add\n      0x20\n      dup1\n      swap2\n      div\n      mul\n      0x20\n      add\n      mload(0x40)\n      swap1\n      dup2\n      add\n      0x40\n      mstore\n      dup1\n      swap3\n      swap2\n      swap1\n      dup2\n      dup2\n      mstore\n      0x20\n      add\n      dup3\n      dup1\n      sload\n      tag_327\n      swap1\n      tag_236\n      jump\t// in\n    tag_327:\n      dup1\n      iszero\n      tag_328\n      jumpi\n      dup1\n      0x1f\n      lt\n      tag_329\n      jumpi\n      0x0100\n      dup1\n      dup4\n      sload\n      div\n      mul\n      dup4\n      mstore\n      swap2\n      0x20\n      add\n      swap2\n      jump(tag_328)\n    tag_329:\n      dup3\n      add\n      swap2\n      swap1\n      0x00\n      mstore\n      keccak256(0x00, 0x20)\n      swap1\n    tag_330:\n      dup2\n      sload\n      dup2\n      mstore\n      swap1\n      0x01\n      add\n      swap1\n      0x20\n      add\n      dup1\n      dup4\n      gt\n      tag_330\n      jumpi\n      dup3\n      swap1\n      sub\n      0x1f\n      and\n      dup3\n      add\n      swap2\n    tag_328:\n      pop\n      pop\n      pop\n      pop\n      pop\n      swap1\n      dup1\n      0x02\n      add\n      0x00\n      swap1\n      sload\n      swap1\n      0x0100\n      exp\n      swap1\n      div\n      0xff\n      and\n      swap1\n      pop\n      dup4\n      jump\t// out\n        /* \"Documents/GitHub/Store-system-with-feedback/main.sol\":9996:10398  function login_shop(string memory login, bytes32 password) public {\r... */\n    tag_142:\n        /* \"Documents/GitHub/Store-system-with-feedback/main.sol\":10121:10126  false */\n      0x00\n        /* \"Documents/GitHub/Store-system-with-feedback/main.sol\":10081:10126  structShops[shopLists[login]].logged == false */\n      iszero\n      iszero\n        /* \"Documents/GitHub/Store-system-with-feedback/main.sol\":10081:10092  structShops */\n      0x00\n        /* \"Documents/GitHub/Store-system-with-feedback/main.sol\":10081:10110  structShops[shopLists[login]] */\n      dup1\n        /* \"Documents/GitHub/Store-system-with-feedback/main.sol\":10093:10102  shopLists */\n      0x01\n        /* \"Documents/GitHub/Store-system-with-feedback/main.sol\":10103:10108  login */\n      dup6\n        /* \"Documents/GitHub/Store-system-with-feedback/main.sol\":10093:10109  shopLists[login] */\n      mload(0x40)\n      tag_332\n      swap2\n      swap1\n      tag_211\n      jump\t// in\n    tag_332:\n      swap1\n      dup2\n      mstore\n      0x20\n      add\n      mload(0x40)\n      dup1\n      swap2\n      sub\n      swap1\n      keccak256\n      0x00\n      swap1\n      sload\n      swap1\n      0x0100\n      exp\n      swap1\n      div\n      0xffffffffffffffffffffffffffffffffffffffff\n      and\n        /* \"Documents/GitHub/Store-system-with-feedback/main.sol\":10081:10110  structShops[shopLists[login]] */\n      0xffffffffffffffffffffffffffffffffffffffff\n      and\n      0xffffffffffffffffffffffffffffffffffffffff\n      and\n      dup2\n      mstore\n      0x20\n      add\n      swap1\n      dup2\n      mstore\n      0x20\n      add\n      0x00\n      keccak256\n        /* \"Documents/GitHub/Store-system-with-feedback/main.sol\":10081:10117  structShops[shopLists[login]].logged */\n      0x03\n      add\n      0x00\n      swap1\n      sload\n      swap1\n      0x0100\n      exp\n      swap1\n      div\n      0xff\n      and\n        /* \"Documents/GitHub/Store-system-with-feedback/main.sol\":10081:10126  structShops[shopLists[login]].logged == false */\n      iszero\n      iszero\n      eq\n        /* \"Documents/GitHub/Store-system-with-feedback/main.sol\":10073:10160  require(structShops[shopLists[login]].logged == false, \"Error: You are already logged\") */\n      tag_333\n      jumpi\n      mload(0x40)\n      0x08c379a000000000000000000000000000000000000000000000000000000000\n      dup2\n      mstore\n      0x04\n      add\n      tag_334\n      swap1\n      tag_335\n      jump\t// in\n    tag_334:\n      mload(0x40)\n      dup1\n      swap2\n      sub\n      swap1\n      revert\n    tag_333:\n        /* \"Documents/GitHub/Store-system-with-feedback/main.sol\":10207:10208  0 */\n      0x00\n        /* \"Documents/GitHub/Store-system-with-feedback/main.sol\":10179:10209  shopLists[login] != address(0) */\n      0xffffffffffffffffffffffffffffffffffffffff\n      and\n        /* \"Documents/GitHub/Store-system-with-feedback/main.sol\":10179:10188  shopLists */\n      0x01\n        /* \"Documents/GitHub/Store-system-with-feedback/main.sol\":10189:10194  login */\n      dup4\n        /* \"Documents/GitHub/Store-system-with-feedback/main.sol\":10179:10195  shopLists[login] */\n      mload(0x40)\n      tag_336\n      swap2\n      swap1\n      tag_211\n      jump\t// in\n    tag_336:\n      swap1\n      dup2\n      mstore\n      0x20\n      add\n      mload(0x40)\n      dup1\n      swap2\n      sub\n      swap1\n      keccak256\n      0x00\n      swap1\n      sload\n      swap1\n      0x0100\n      exp\n      swap1\n      div\n      0xffffffffffffffffffffffffffffffffffffffff\n      and\n        /* \"Documents/GitHub/Store-system-with-feedback/main.sol\":10179:10209  shopLists[login] != address(0) */\n      0xffffffffffffffffffffffffffffffffffffffff\n      and\n      eq\n      iszero\n        /* \"Documents/GitHub/Store-system-with-feedback/main.sol\":10171:10239  require(shopLists[login] != address(0), \"Error: User doesn't exist\") */\n      tag_337\n      jumpi\n      mload(0x40)\n      0x08c379a000000000000000000000000000000000000000000000000000000000\n      dup2\n      mstore\n      0x04\n      add\n      tag_338\n      swap1\n      tag_339\n      jump\t// in\n    tag_338:\n      mload(0x40)\n      dup1\n      swap2\n      sub\n      swap1\n      revert\n    tag_337:\n        /* \"Documents/GitHub/Store-system-with-feedback/main.sol\":10300:10308  password */\n      dup1\n        /* \"Documents/GitHub/Store-system-with-feedback/main.sol\":10258:10269  structShops */\n      0x00\n        /* \"Documents/GitHub/Store-system-with-feedback/main.sol\":10258:10287  structShops[shopLists[login]] */\n      dup1\n        /* \"Documents/GitHub/Store-system-with-feedback/main.sol\":10270:10279  shopLists */\n      0x01\n        /* \"Documents/GitHub/Store-system-with-feedback/main.sol\":10280:10285  login */\n      dup6\n        /* \"Documents/GitHub/Store-system-with-feedback/main.sol\":10270:10286  shopLists[login] */\n      mload(0x40)\n      tag_340\n      swap2\n      swap1\n      tag_211\n      jump\t// in\n    tag_340:\n      swap1\n      dup2\n      mstore\n      0x20\n      add\n      mload(0x40)\n      dup1\n      swap2\n      sub\n      swap1\n      keccak256\n      0x00\n      swap1\n      sload\n      swap1\n      0x0100\n      exp\n      swap1\n      div\n      0xffffffffffffffffffffffffffffffffffffffff\n      and\n        /* \"Documents/GitHub/Store-system-with-feedback/main.sol\":10258:10287  structShops[shopLists[login]] */\n      0xffffffffffffffffffffffffffffffffffffffff\n      and\n      0xffffffffffffffffffffffffffffffffffffffff\n      and\n      dup2\n      mstore\n      0x20\n      add\n      swap1\n      dup2\n      mstore\n      0x20\n      add\n      0x00\n      keccak256\n        /* \"Documents/GitHub/Store-system-with-feedback/main.sol\":10258:10296  structShops[shopLists[login]].password */\n      0x01\n      add\n      sload\n        /* \"Documents/GitHub/Store-system-with-feedback/main.sol\":10258:10308  structShops[shopLists[login]].password == password */\n      eq\n        /* \"Documents/GitHub/Store-system-with-feedback/main.sol\":10250:10336  require(structShops[shopLists[login]].password == password, \"Error: Invalid password\") */\n      tag_341\n      jumpi\n      mload(0x40)\n      0x08c379a000000000000000000000000000000000000000000000000000000000\n      dup2\n      mstore\n      0x04\n      add\n      tag_342\n      swap1\n      tag_343\n      jump\t// in\n    tag_342:\n      mload(0x40)\n      dup1\n      swap2\n      sub\n      swap1\n      revert\n    tag_341:\n        /* \"Documents/GitHub/Store-system-with-feedback/main.sol\":10386:10390  true */\n      0x01\n        /* \"Documents/GitHub/Store-system-with-feedback/main.sol\":10347:10358  structShops */\n      0x00\n        /* \"Documents/GitHub/Store-system-with-feedback/main.sol\":10347:10376  structShops[shopLists[login]] */\n      dup1\n        /* \"Documents/GitHub/Store-system-with-feedback/main.sol\":10359:10368  shopLists */\n      0x01\n        /* \"Documents/GitHub/Store-system-with-feedback/main.sol\":10369:10374  login */\n      dup6\n        /* \"Documents/GitHub/Store-system-with-feedback/main.sol\":10359:10375  shopLists[login] */\n      mload(0x40)\n      tag_344\n      swap2\n      swap1\n      tag_211\n      jump\t// in\n    tag_344:\n      swap1\n      dup2\n      mstore\n      0x20\n      add\n      mload(0x40)\n      dup1\n      swap2\n      sub\n      swap1\n      keccak256\n      0x00\n      swap1\n      sload\n      swap1\n      0x0100\n      exp\n      swap1\n      div\n      0xffffffffffffffffffffffffffffffffffffffff\n      and\n        /* \"Documents/GitHub/Store-system-with-feedback/main.sol\":10347:10376  structShops[shopLists[login]] */\n      0xffffffffffffffffffffffffffffffffffffffff\n      and\n      0xffffffffffffffffffffffffffffffffffffffff\n      and\n      dup2\n      mstore\n      0x20\n      add\n      swap1\n      dup2\n      mstore\n      0x20\n      add\n      0x00\n      keccak256\n        /* \"Documents/GitHub/Store-system-with-feedback/main.sol\":10347:10383  structShops[shopLists[login]].logged */\n      0x03\n      add\n      0x00\n        /* \"Documents/GitHub/Store-system-with-feedback/main.sol\":10347:10390  structShops[shopLists[login]].logged = true */\n      0x0100\n      exp\n      dup2\n      sload\n      dup2\n      0xff\n      mul\n      not\n      and\n      swap1\n      dup4\n      iszero\n      iszero\n      mul\n      or\n      swap1\n      sstore\n      pop\n        /* \"Documents/GitHub/Store-system-with-feedback/main.sol\":9996:10398  function login_shop(string memory login, bytes32 password) public {\r... */\n      pop\n      pop\n      jump\t// out\n        /* \"Documents/GitHub/Store-system-with-feedback/main.sol\":3114:3253  function get_hash(string memory password) public pure returns(bytes32) {\r... */\n    tag_146:\n        /* \"Documents/GitHub/Store-system-with-feedback/main.sol\":3176:3183  bytes32 */\n      0x00\n        /* \"Documents/GitHub/Store-system-with-feedback/main.sol\":3234:3242  password */\n      dup2\n        /* \"Documents/GitHub/Store-system-with-feedback/main.sol\":3217:3243  abi.encodePacked(password) */\n      add(0x20, mload(0x40))\n      tag_346\n      swap2\n      swap1\n      tag_211\n      jump\t// in\n    tag_346:\n      mload(0x40)\n      0x20\n      dup2\n      dup4\n      sub\n      sub\n      dup2\n      mstore\n      swap1\n      0x40\n      mstore\n        /* \"Documents/GitHub/Store-system-with-feedback/main.sol\":3207:3244  keccak256(abi.encodePacked(password)) */\n      dup1\n      mload\n      swap1\n      0x20\n      add\n      keccak256\n        /* \"Documents/GitHub/Store-system-with-feedback/main.sol\":3200:3245  return(keccak256(abi.encodePacked(password))) */\n      swap1\n      pop\n        /* \"Documents/GitHub/Store-system-with-feedback/main.sol\":3114:3253  function get_hash(string memory password) public pure returns(bytes32) {\r... */\n      swap2\n      swap1\n      pop\n      jump\t// out\n        /* \"Documents/GitHub/Store-system-with-feedback/main.sol\":8056:8464  function acceptMarriage(uint idMarriage, bool confirmation) public {\r... */\n    tag_152:\n        /* \"Documents/GitHub/Store-system-with-feedback/main.sol\":8153:8157  true */\n      0x01\n        /* \"Documents/GitHub/Store-system-with-feedback/main.sol\":8137:8157  confirmation == true */\n      iszero\n      iszero\n        /* \"Documents/GitHub/Store-system-with-feedback/main.sol\":8137:8149  confirmation */\n      dup2\n        /* \"Documents/GitHub/Store-system-with-feedback/main.sol\":8137:8157  confirmation == true */\n      iszero\n      iszero\n      eq\n        /* \"Documents/GitHub/Store-system-with-feedback/main.sol\":8134:8457  if(confirmation == true) {\r... */\n      iszero\n      tag_348\n      jumpi\n        /* \"Documents/GitHub/Store-system-with-feedback/main.sol\":8182:8203  structStatusMarriages */\n      0x0c\n        /* \"Documents/GitHub/Store-system-with-feedback/main.sol\":8204:8214  idMarriage */\n      dup3\n        /* \"Documents/GitHub/Store-system-with-feedback/main.sol\":8182:8215  structStatusMarriages[idMarriage] */\n      dup2\n      sload\n      dup2\n      lt\n      tag_349\n      jumpi\n      tag_350\n      tag_247\n      jump\t// in\n    tag_350:\n    tag_349:\n      swap1\n      0x00\n      mstore\n      keccak256(0x00, 0x20)\n      swap1\n      0x03\n      mul\n      add\n        /* \"Documents/GitHub/Store-system-with-feedback/main.sol\":8182:8225  structStatusMarriages[idMarriage].userLogin */\n      0x00\n      add\n      0x00\n      swap1\n      sload\n      swap1\n      0x0100\n      exp\n      swap1\n      div\n      0xffffffffffffffffffffffffffffffffffffffff\n      and\n        /* \"Documents/GitHub/Store-system-with-feedback/main.sol\":8174:8235  payable(structStatusMarriages[idMarriage].userLogin).transfer */\n      0xffffffffffffffffffffffffffffffffffffffff\n      and\n        /* \"Documents/GitHub/Store-system-with-feedback/main.sol\":8174:8305  payable(structStatusMarriages[idMarriage].userLogin).transfer(structProducts[structStatusMarriages[idMarriage].titleProduct].price) */\n      0x08fc\n        /* \"Documents/GitHub/Store-system-with-feedback/main.sol\":8236:8250  structProducts */\n      0x08\n        /* \"Documents/GitHub/Store-system-with-feedback/main.sol\":8251:8272  structStatusMarriages */\n      0x0c\n        /* \"Documents/GitHub/Store-system-with-feedback/main.sol\":8273:8283  idMarriage */\n      dup6\n        /* \"Documents/GitHub/Store-system-with-feedback/main.sol\":8251:8284  structStatusMarriages[idMarriage] */\n      dup2\n      sload\n      dup2\n      lt\n      tag_352\n      jumpi\n      tag_353\n      tag_247\n      jump\t// in\n    tag_353:\n    tag_352:\n      swap1\n      0x00\n      mstore\n      keccak256(0x00, 0x20)\n      swap1\n      0x03\n      mul\n      add\n        /* \"Documents/GitHub/Store-system-with-feedback/main.sol\":8251:8297  structStatusMarriages[idMarriage].titleProduct */\n      0x01\n      add\n        /* \"Documents/GitHub/Store-system-with-feedback/main.sol\":8236:8298  structProducts[structStatusMarriages[idMarriage].titleProduct] */\n      mload(0x40)\n      tag_355\n      swap2\n      swap1\n      tag_273\n      jump\t// in\n    tag_355:\n      swap1\n      dup2\n      mstore\n      0x20\n      add\n      mload(0x40)\n      dup1\n      swap2\n      sub\n      swap1\n      keccak256\n        /* \"Documents/GitHub/Store-system-with-feedback/main.sol\":8236:8304  structProducts[structStatusMarriages[idMarriage].titleProduct].price */\n      0x02\n      add\n      sload\n        /* \"Documents/GitHub/Store-system-with-feedback/main.sol\":8174:8305  payable(structStatusMarriages[idMarriage].userLogin).transfer(structProducts[structStatusMarriages[idMarriage].titleProduct].price) */\n      swap1\n      dup2\n      iszero\n      mul\n      swap1\n      mload(0x40)\n      0x00\n      mload(0x40)\n      dup1\n      dup4\n      sub\n      dup2\n      dup6\n      dup9\n      dup9\n      call\n      swap4\n      pop\n      pop\n      pop\n      pop\n      iszero\n      dup1\n      iszero\n      tag_357\n      jumpi\n      returndatasize\n      0x00\n      dup1\n      returndatacopy\n      revert(0x00, returndatasize)\n    tag_357:\n      pop\n        /* \"Documents/GitHub/Store-system-with-feedback/main.sol\":8361:8366  false */\n      0x00\n        /* \"Documents/GitHub/Store-system-with-feedback/main.sol\":8320:8339  structStatusReturns */\n      0x0b\n        /* \"Documents/GitHub/Store-system-with-feedback/main.sol\":8340:8350  idMarriage */\n      dup4\n        /* \"Documents/GitHub/Store-system-with-feedback/main.sol\":8320:8351  structStatusReturns[idMarriage] */\n      dup2\n      sload\n      dup2\n      lt\n      tag_358\n      jumpi\n      tag_359\n      tag_247\n      jump\t// in\n    tag_359:\n    tag_358:\n      swap1\n      0x00\n      mstore\n      keccak256(0x00, 0x20)\n      swap1\n      0x03\n      mul\n      add\n        /* \"Documents/GitHub/Store-system-with-feedback/main.sol\":8320:8358  structStatusReturns[idMarriage].status */\n      0x02\n      add\n      0x00\n        /* \"Documents/GitHub/Store-system-with-feedback/main.sol\":8320:8366  structStatusReturns[idMarriage].status = false */\n      0x0100\n      exp\n      dup2\n      sload\n      dup2\n      0xff\n      mul\n      not\n      and\n      swap1\n      dup4\n      iszero\n      iszero\n      mul\n      or\n      swap1\n      sstore\n      pop\n        /* \"Documents/GitHub/Store-system-with-feedback/main.sol\":8134:8457  if(confirmation == true) {\r... */\n      jump(tag_361)\n    tag_348:\n        /* \"Documents/GitHub/Store-system-with-feedback/main.sol\":8440:8445  false */\n      0x00\n        /* \"Documents/GitHub/Store-system-with-feedback/main.sol\":8399:8418  structStatusReturns */\n      0x0b\n        /* \"Documents/GitHub/Store-system-with-feedback/main.sol\":8419:8429  idMarriage */\n      dup4\n        /* \"Documents/GitHub/Store-system-with-feedback/main.sol\":8399:8430  structStatusReturns[idMarriage] */\n      dup2\n      sload\n      dup2\n      lt\n      tag_362\n      jumpi\n      tag_363\n      tag_247\n      jump\t// in\n    tag_363:\n    tag_362:\n      swap1\n      0x00\n      mstore\n      keccak256(0x00, 0x20)\n      swap1\n      0x03\n      mul\n      add\n        /* \"Documents/GitHub/Store-system-with-feedback/main.sol\":8399:8437  structStatusReturns[idMarriage].status */\n      0x02\n      add\n      0x00\n        /* \"Documents/GitHub/Store-system-with-feedback/main.sol\":8399:8445  structStatusReturns[idMarriage].status = false */\n      0x0100\n      exp\n      dup2\n      sload\n      dup2\n      0xff\n      mul\n      not\n      and\n      swap1\n      dup4\n      iszero\n      iszero\n      mul\n      or\n      swap1\n      sstore\n      pop\n        /* \"Documents/GitHub/Store-system-with-feedback/main.sol\":8134:8457  if(confirmation == true) {\r... */\n    tag_361:\n        /* \"Documents/GitHub/Store-system-with-feedback/main.sol\":8056:8464  function acceptMarriage(uint idMarriage, bool confirmation) public {\r... */\n      pop\n      pop\n      jump\t// out\n        /* \"Documents/GitHub/Store-system-with-feedback/main.sol\":3980:4030  mapping (address => structShop) public structShops */\n    tag_156:\n      mstore(0x20, 0x00)\n      dup1\n      0x00\n      mstore\n      keccak256(0x00, 0x40)\n      0x00\n      swap2\n      pop\n      swap1\n      pop\n      dup1\n      0x00\n      add\n      dup1\n      sload\n      tag_365\n      swap1\n      tag_236\n      jump\t// in\n    tag_365:\n      dup1\n      0x1f\n      add\n      0x20\n      dup1\n      swap2\n      div\n      mul\n      0x20\n      add\n      mload(0x40)\n      swap1\n      dup2\n      add\n      0x40\n      mstore\n      dup1\n      swap3\n      swap2\n      swap1\n      dup2\n      dup2\n      mstore\n      0x20\n      add\n      dup3\n      dup1\n      sload\n      tag_366\n      swap1\n      tag_236\n      jump\t// in\n    tag_366:\n      dup1\n      iszero\n      tag_367\n      jumpi\n      dup1\n      0x1f\n      lt\n      tag_368\n      jumpi\n      0x0100\n      dup1\n      dup4\n      sload\n      div\n      mul\n      dup4\n      mstore\n      swap2\n      0x20\n      add\n      swap2\n      jump(tag_367)\n    tag_368:\n      dup3\n      add\n      swap2\n      swap1\n      0x00\n      mstore\n      keccak256(0x00, 0x20)\n      swap1\n    tag_369:\n      dup2\n      sload\n      dup2\n      mstore\n      swap1\n      0x01\n      add\n      swap1\n      0x20\n      add\n      dup1\n      dup4\n      gt\n      tag_369\n      jumpi\n      dup3\n      swap1\n      sub\n      0x1f\n      and\n      dup3\n      add\n      swap2\n    tag_367:\n      pop\n      pop\n      pop\n      pop\n      pop\n      swap1\n      dup1\n      0x01\n      add\n      sload\n      swap1\n      dup1\n      0x02\n      add\n      sload\n      swap1\n      dup1\n      0x03\n      add\n      0x00\n      swap1\n      sload\n      swap1\n      0x0100\n      exp\n      swap1\n      div\n      0xff\n      and\n      swap1\n      dup1\n      0x04\n      add\n      dup1\n      sload\n      tag_370\n      swap1\n      tag_236\n      jump\t// in\n    tag_370:\n      dup1\n      0x1f\n      add\n      0x20\n      dup1\n      swap2\n      div\n      mul\n      0x20\n      add\n      mload(0x40)\n      swap1\n      dup2\n      add\n      0x40\n      mstore\n      dup1\n      swap3\n      swap2\n      swap1\n      dup2\n      dup2\n      mstore\n      0x20\n      add\n      dup3\n      dup1\n      sload\n      tag_371\n      swap1\n      tag_236\n      jump\t// in\n    tag_371:\n      dup1\n      iszero\n      tag_372\n      jumpi\n      dup1\n      0x1f\n      lt\n      tag_373\n      jumpi\n      0x0100\n      dup1\n      dup4\n      sload\n      div\n      mul\n      dup4\n      mstore\n      swap2\n      0x20\n      add\n      swap2\n      jump(tag_372)\n    tag_373:\n      dup3\n      add\n      swap2\n      swap1\n      0x00\n      mstore\n      keccak256(0x00, 0x20)\n      swap1\n    tag_374:\n      dup2\n      sload\n      dup2\n      mstore\n      swap1\n      0x01\n      add\n      swap1\n      0x20\n      add\n      dup1\n      dup4\n      gt\n      tag_374\n      jumpi\n      dup3\n      swap1\n      sub\n      0x1f\n      and\n      dup3\n      add\n      swap2\n    tag_372:\n      pop\n      pop\n      pop\n      pop\n      pop\n      swap1\n      dup1\n      0x05\n      add\n      dup1\n      sload\n      tag_375\n      swap1\n      tag_236\n      jump\t// in\n    tag_375:\n      dup1\n      0x1f\n      add\n      0x20\n      dup1\n      swap2\n      div\n      mul\n      0x20\n      add\n      mload(0x40)\n      swap1\n      dup2\n      add\n      0x40\n      mstore\n      dup1\n      swap3\n      swap2\n      swap1\n      dup2\n      dup2\n      mstore\n      0x20\n      add\n      dup3\n      dup1\n      sload\n      tag_376\n      swap1\n      tag_236\n      jump\t// in\n    tag_376:\n      dup1\n      iszero\n      tag_377\n      jumpi\n      dup1\n      0x1f\n      lt\n      tag_378\n      jumpi\n      0x0100\n      dup1\n      dup4\n      sload\n      div\n      mul\n      dup4\n      mstore\n      swap2\n      0x20\n      add\n      swap2\n      jump(tag_377)\n    tag_378:\n      dup3\n      add\n      swap2\n      swap1\n      0x00\n      mstore\n      keccak256(0x00, 0x20)\n      swap1\n    tag_379:\n      dup2\n      sload\n      dup2\n      mstore\n      swap1\n      0x01\n      add\n      swap1\n      0x20\n      add\n      dup1\n      dup4\n      gt\n      tag_379\n      jumpi\n      dup3\n      swap1\n      sub\n      0x1f\n      and\n      dup3\n      add\n      swap2\n    tag_377:\n      pop\n      pop\n      pop\n      pop\n      pop\n      swap1\n      dup1\n      0x06\n      add\n      sload\n      swap1\n      pop\n      dup8\n      jump\t// out\n        /* \"Documents/GitHub/Store-system-with-feedback/main.sol\":4664:4713  mapping(address => structUser) public structUsers */\n    tag_162:\n      mstore(0x20, 0x04)\n      dup1\n      0x00\n      mstore\n      keccak256(0x00, 0x40)\n      0x00\n      swap2\n      pop\n      swap1\n      pop\n      dup1\n      0x00\n      add\n      dup1\n      sload\n      tag_380\n      swap1\n      tag_236\n      jump\t// in\n    tag_380:\n      dup1\n      0x1f\n      add\n      0x20\n      dup1\n      swap2\n      div\n      mul\n      0x20\n      add\n      mload(0x40)\n      swap1\n      dup2\n      add\n      0x40\n      mstore\n      dup1\n      swap3\n      swap2\n      swap1\n      dup2\n      dup2\n      mstore\n      0x20\n      add\n      dup3\n      dup1\n      sload\n      tag_381\n      swap1\n      tag_236\n      jump\t// in\n    tag_381:\n      dup1\n      iszero\n      tag_382\n      jumpi\n      dup1\n      0x1f\n      lt\n      tag_383\n      jumpi\n      0x0100\n      dup1\n      dup4\n      sload\n      div\n      mul\n      dup4\n      mstore\n      swap2\n      0x20\n      add\n      swap2\n      jump(tag_382)\n    tag_383:\n      dup3\n      add\n      swap2\n      swap1\n      0x00\n      mstore\n      keccak256(0x00, 0x20)\n      swap1\n    tag_384:\n      dup2\n      sload\n      dup2\n      mstore\n      swap1\n      0x01\n      add\n      swap1\n      0x20\n      add\n      dup1\n      dup4\n      gt\n      tag_384\n      jumpi\n      dup3\n      swap1\n      sub\n      0x1f\n      and\n      dup3\n      add\n      swap2\n    tag_382:\n      pop\n      pop\n      pop\n      pop\n      pop\n      swap1\n      dup1\n      0x01\n      add\n      sload\n      swap1\n      dup1\n      0x02\n      add\n      sload\n      swap1\n      dup1\n      0x03\n      add\n      0x00\n      swap1\n      sload\n      swap1\n      0x0100\n      exp\n      swap1\n      div\n      0xff\n      and\n      swap1\n      pop\n      dup5\n      jump\t// out\n        /* \"Documents/GitHub/Store-system-with-feedback/main.sol\":8547:9400  function getStoryRating(string memory shopName) public view returns(uint) {\r... */\n    tag_168:\n        /* \"Documents/GitHub/Store-system-with-feedback/main.sol\":8615:8619  uint */\n      0x00\n        /* \"Documents/GitHub/Store-system-with-feedback/main.sol\":8632:8654  uint totalAverageValue */\n      dup1\n        /* \"Documents/GitHub/Store-system-with-feedback/main.sol\":8657:8658  0 */\n      0x00\n        /* \"Documents/GitHub/Store-system-with-feedback/main.sol\":8632:8658  uint totalAverageValue = 0 */\n      swap1\n      pop\n        /* \"Documents/GitHub/Store-system-with-feedback/main.sol\":8669:8690  uint countArrayRating */\n      0x00\n        /* \"Documents/GitHub/Store-system-with-feedback/main.sol\":8709:8715  uint i */\n      dup1\n        /* \"Documents/GitHub/Store-system-with-feedback/main.sol\":8705:9292  for(uint i = 0; i < shopList.length; i++) {\r... */\n    tag_386:\n        /* \"Documents/GitHub/Store-system-with-feedback/main.sol\":8725:8733  shopList */\n      0x02\n        /* \"Documents/GitHub/Store-system-with-feedback/main.sol\":8725:8740  shopList.length */\n      dup1\n      sload\n      swap1\n      pop\n        /* \"Documents/GitHub/Store-system-with-feedback/main.sol\":8721:8722  i */\n      dup2\n        /* \"Documents/GitHub/Store-system-with-feedback/main.sol\":8721:8740  i < shopList.length */\n      lt\n        /* \"Documents/GitHub/Store-system-with-feedback/main.sol\":8705:9292  for(uint i = 0; i < shopList.length; i++) {\r... */\n      iszero\n      tag_387\n      jumpi\n        /* \"Documents/GitHub/Store-system-with-feedback/main.sol\":8762:8788  string memory tempShopName */\n      0x00\n        /* \"Documents/GitHub/Store-system-with-feedback/main.sol\":8791:8799  shopList */\n      0x02\n        /* \"Documents/GitHub/Store-system-with-feedback/main.sol\":8800:8801  i */\n      dup3\n        /* \"Documents/GitHub/Store-system-with-feedback/main.sol\":8791:8802  shopList[i] */\n      dup2\n      sload\n      dup2\n      lt\n      tag_389\n      jumpi\n      tag_390\n      tag_247\n      jump\t// in\n    tag_390:\n    tag_389:\n      swap1\n      0x00\n      mstore\n      keccak256(0x00, 0x20)\n      add\n        /* \"Documents/GitHub/Store-system-with-feedback/main.sol\":8762:8802  string memory tempShopName = shopList[i] */\n      dup1\n      sload\n      tag_392\n      swap1\n      tag_236\n      jump\t// in\n    tag_392:\n      dup1\n      0x1f\n      add\n      0x20\n      dup1\n      swap2\n      div\n      mul\n      0x20\n      add\n      mload(0x40)\n      swap1\n      dup2\n      add\n      0x40\n      mstore\n      dup1\n      swap3\n      swap2\n      swap1\n      dup2\n      dup2\n      mstore\n      0x20\n      add\n      dup3\n      dup1\n      sload\n      tag_393\n      swap1\n      tag_236\n      jump\t// in\n    tag_393:\n      dup1\n      iszero\n      tag_394\n      jumpi\n      dup1\n      0x1f\n      lt\n      tag_395\n      jumpi\n      0x0100\n      dup1\n      dup4\n      sload\n      div\n      mul\n      dup4\n      mstore\n      swap2\n      0x20\n      add\n      swap2\n      jump(tag_394)\n    tag_395:\n      dup3\n      add\n      swap2\n      swap1\n      0x00\n      mstore\n      keccak256(0x00, 0x20)\n      swap1\n    tag_396:\n      dup2\n      sload\n      dup2\n      mstore\n      swap1\n      0x01\n      add\n      swap1\n      0x20\n      add\n      dup1\n      dup4\n      gt\n      tag_396\n      jumpi\n      dup3\n      swap1\n      sub\n      0x1f\n      and\n      dup3\n      add\n      swap2\n    tag_394:\n      pop\n      pop\n      pop\n      pop\n      pop\n      swap1\n      pop\n        /* \"Documents/GitHub/Store-system-with-feedback/main.sol\":8892:8900  shopName */\n      dup6\n        /* \"Documents/GitHub/Store-system-with-feedback/main.sol\":8875:8901  abi.encodePacked(shopName) */\n      add(0x20, mload(0x40))\n      tag_397\n      swap2\n      swap1\n      tag_211\n      jump\t// in\n    tag_397:\n      mload(0x40)\n      0x20\n      dup2\n      dup4\n      sub\n      sub\n      dup2\n      mstore\n      swap1\n      0x40\n      mstore\n        /* \"Documents/GitHub/Store-system-with-feedback/main.sol\":8865:8902  keccak256(abi.encodePacked(shopName)) */\n      dup1\n      mload\n      swap1\n      0x20\n      add\n      keccak256\n        /* \"Documents/GitHub/Store-system-with-feedback/main.sol\":8847:8859  tempShopName */\n      dup2\n        /* \"Documents/GitHub/Store-system-with-feedback/main.sol\":8830:8860  abi.encodePacked(tempShopName) */\n      add(0x20, mload(0x40))\n      tag_398\n      swap2\n      swap1\n      tag_211\n      jump\t// in\n    tag_398:\n      mload(0x40)\n      0x20\n      dup2\n      dup4\n      sub\n      sub\n      dup2\n      mstore\n      swap1\n      0x40\n      mstore\n        /* \"Documents/GitHub/Store-system-with-feedback/main.sol\":8820:8861  keccak256(abi.encodePacked(tempShopName)) */\n      dup1\n      mload\n      swap1\n      0x20\n      add\n      keccak256\n        /* \"Documents/GitHub/Store-system-with-feedback/main.sol\":8820:8902  keccak256(abi.encodePacked(tempShopName)) == keccak256(abi.encodePacked(shopName)) */\n      eq\n        /* \"Documents/GitHub/Store-system-with-feedback/main.sol\":8817:9281  if(keccak256(abi.encodePacked(tempShopName)) == keccak256(abi.encodePacked(shopName))) {                    \r... */\n      iszero\n      tag_399\n      jumpi\n        /* \"Documents/GitHub/Store-system-with-feedback/main.sol\":8952:8953  0 */\n      0x00\n        /* \"Documents/GitHub/Store-system-with-feedback/main.sol\":8948:8953  i = 0 */\n      swap2\n      pop\n        /* \"Documents/GitHub/Store-system-with-feedback/main.sol\":8943:9266  for (i = 0; i <= complaintBooks.length; i++) {\r... */\n    tag_400:\n        /* \"Documents/GitHub/Store-system-with-feedback/main.sol\":8960:8974  complaintBooks */\n      0x03\n        /* \"Documents/GitHub/Store-system-with-feedback/main.sol\":8960:8981  complaintBooks.length */\n      dup1\n      sload\n      swap1\n      pop\n        /* \"Documents/GitHub/Store-system-with-feedback/main.sol\":8955:8956  i */\n      dup3\n        /* \"Documents/GitHub/Store-system-with-feedback/main.sol\":8955:8981  i <= complaintBooks.length */\n      gt\n        /* \"Documents/GitHub/Store-system-with-feedback/main.sol\":8943:9266  for (i = 0; i <= complaintBooks.length; i++) {\r... */\n      tag_401\n      jumpi\n        /* \"Documents/GitHub/Store-system-with-feedback/main.sol\":9082:9096  complaintBooks */\n      0x03\n        /* \"Documents/GitHub/Store-system-with-feedback/main.sol\":9097:9098  i */\n      dup3\n        /* \"Documents/GitHub/Store-system-with-feedback/main.sol\":9082:9099  complaintBooks[i] */\n      dup2\n      sload\n      dup2\n      lt\n      tag_403\n      jumpi\n      tag_404\n      tag_247\n      jump\t// in\n    tag_404:\n    tag_403:\n      swap1\n      0x00\n      mstore\n      keccak256(0x00, 0x20)\n      swap1\n      0x05\n      mul\n      add\n        /* \"Documents/GitHub/Store-system-with-feedback/main.sol\":9082:9104  complaintBooks[i].shop */\n      0x00\n      add\n        /* \"Documents/GitHub/Store-system-with-feedback/main.sol\":9065:9105  abi.encodePacked(complaintBooks[i].shop) */\n      add(0x20, mload(0x40))\n      tag_406\n      swap2\n      swap1\n      tag_273\n      jump\t// in\n    tag_406:\n      mload(0x40)\n      0x20\n      dup2\n      dup4\n      sub\n      sub\n      dup2\n      mstore\n      swap1\n      0x40\n      mstore\n        /* \"Documents/GitHub/Store-system-with-feedback/main.sol\":9055:9106  keccak256(abi.encodePacked(complaintBooks[i].shop)) */\n      dup1\n      mload\n      swap1\n      0x20\n      add\n      keccak256\n        /* \"Documents/GitHub/Store-system-with-feedback/main.sol\":9041:9049  shopName */\n      dup7\n        /* \"Documents/GitHub/Store-system-with-feedback/main.sol\":9024:9050  abi.encodePacked(shopName) */\n      add(0x20, mload(0x40))\n      tag_407\n      swap2\n      swap1\n      tag_211\n      jump\t// in\n    tag_407:\n      mload(0x40)\n      0x20\n      dup2\n      dup4\n      sub\n      sub\n      dup2\n      mstore\n      swap1\n      0x40\n      mstore\n        /* \"Documents/GitHub/Store-system-with-feedback/main.sol\":9014:9051  keccak256(abi.encodePacked(shopName)) */\n      dup1\n      mload\n      swap1\n      0x20\n      add\n      keccak256\n        /* \"Documents/GitHub/Store-system-with-feedback/main.sol\":9014:9106  keccak256(abi.encodePacked(shopName)) == keccak256(abi.encodePacked(complaintBooks[i].shop)) */\n      eq\n        /* \"Documents/GitHub/Store-system-with-feedback/main.sol\":9011:9247  if(keccak256(abi.encodePacked(shopName)) == keccak256(abi.encodePacked(complaintBooks[i].shop))) {\r... */\n      iszero\n      tag_408\n      jumpi\n        /* \"Documents/GitHub/Store-system-with-feedback/main.sol\":9155:9169  complaintBooks */\n      0x03\n        /* \"Documents/GitHub/Store-system-with-feedback/main.sol\":9170:9171  i */\n      dup3\n        /* \"Documents/GitHub/Store-system-with-feedback/main.sol\":9155:9172  complaintBooks[i] */\n      dup2\n      sload\n      dup2\n      lt\n      tag_409\n      jumpi\n      tag_410\n      tag_247\n      jump\t// in\n    tag_410:\n    tag_409:\n      swap1\n      0x00\n      mstore\n      keccak256(0x00, 0x20)\n      swap1\n      0x05\n      mul\n      add\n        /* \"Documents/GitHub/Store-system-with-feedback/main.sol\":9155:9179  complaintBooks[i].rating */\n      0x03\n      add\n      sload\n        /* \"Documents/GitHub/Store-system-with-feedback/main.sol\":9135:9179  countArrayRating += complaintBooks[i].rating */\n      dup4\n      tag_412\n      swap2\n      swap1\n      tag_413\n      jump\t// in\n    tag_412:\n      swap3\n      pop\n        /* \"Documents/GitHub/Store-system-with-feedback/main.sol\":9011:9247  if(keccak256(abi.encodePacked(shopName)) == keccak256(abi.encodePacked(complaintBooks[i].shop))) {\r... */\n    tag_408:\n        /* \"Documents/GitHub/Store-system-with-feedback/main.sol\":8983:8986  i++ */\n      dup2\n      dup1\n      tag_414\n      swap1\n      tag_263\n      jump\t// in\n    tag_414:\n      swap3\n      pop\n      pop\n        /* \"Documents/GitHub/Store-system-with-feedback/main.sol\":8943:9266  for (i = 0; i <= complaintBooks.length; i++) {\r... */\n      jump(tag_400)\n    tag_401:\n        /* \"Documents/GitHub/Store-system-with-feedback/main.sol\":8817:9281  if(keccak256(abi.encodePacked(tempShopName)) == keccak256(abi.encodePacked(shopName))) {                    \r... */\n    tag_399:\n        /* \"Documents/GitHub/Store-system-with-feedback/main.sol\":8747:9292  {\r... */\n      pop\n        /* \"Documents/GitHub/Store-system-with-feedback/main.sol\":8742:8745  i++ */\n      dup1\n      dup1\n      tag_415\n      swap1\n      tag_263\n      jump\t// in\n    tag_415:\n      swap2\n      pop\n      pop\n        /* \"Documents/GitHub/Store-system-with-feedback/main.sol\":8705:9292  for(uint i = 0; i < shopList.length; i++) {\r... */\n      jump(tag_386)\n    tag_387:\n      pop\n        /* \"Documents/GitHub/Store-system-with-feedback/main.sol\":9341:9358  totalAverageValue */\n      dup2\n        /* \"Documents/GitHub/Store-system-with-feedback/main.sol\":9322:9338  countArrayRating */\n      dup2\n        /* \"Documents/GitHub/Store-system-with-feedback/main.sol\":9322:9358  countArrayRating / totalAverageValue */\n      tag_416\n      swap2\n      swap1\n      tag_417\n      jump\t// in\n    tag_416:\n        /* \"Documents/GitHub/Store-system-with-feedback/main.sol\":9302:9358  countArrayRating += countArrayRating / totalAverageValue */\n      dup2\n      tag_418\n      swap2\n      swap1\n      tag_413\n      jump\t// in\n    tag_418:\n      swap1\n      pop\n        /* \"Documents/GitHub/Store-system-with-feedback/main.sol\":9376:9392  countArrayRating */\n      dup1\n        /* \"Documents/GitHub/Store-system-with-feedback/main.sol\":9369:9392  return countArrayRating */\n      swap3\n      pop\n      pop\n      pop\n        /* \"Documents/GitHub/Store-system-with-feedback/main.sol\":8547:9400  function getStoryRating(string memory shopName) public view returns(uint) {\r... */\n      swap2\n      swap1\n      pop\n      jump\t// out\n        /* \"Documents/GitHub/Store-system-with-feedback/main.sol\":5550:5597  structStatusReturn[] public structStatusReturns */\n    tag_173:\n      0x0b\n      dup2\n      dup2\n      sload\n      dup2\n      lt\n      tag_419\n      jumpi\n      0x00\n      dup1\n      revert\n    tag_419:\n      swap1\n      0x00\n      mstore\n      keccak256(0x00, 0x20)\n      swap1\n      0x03\n      mul\n      add\n      0x00\n      swap2\n      pop\n      swap1\n      pop\n      dup1\n      0x00\n      add\n      0x00\n      swap1\n      sload\n      swap1\n      0x0100\n      exp\n      swap1\n      div\n      0xffffffffffffffffffffffffffffffffffffffff\n      and\n      swap1\n      dup1\n      0x01\n      add\n      dup1\n      sload\n      tag_421\n      swap1\n      tag_236\n      jump\t// in\n    tag_421:\n      dup1\n      0x1f\n      add\n      0x20\n      dup1\n      swap2\n      div\n      mul\n      0x20\n      add\n      mload(0x40)\n      swap1\n      dup2\n      add\n      0x40\n      mstore\n      dup1\n      swap3\n      swap2\n      swap1\n      dup2\n      dup2\n      mstore\n      0x20\n      add\n      dup3\n      dup1\n      sload\n      tag_422\n      swap1\n      tag_236\n      jump\t// in\n    tag_422:\n      dup1\n      iszero\n      tag_423\n      jumpi\n      dup1\n      0x1f\n      lt\n      tag_424\n      jumpi\n      0x0100\n      dup1\n      dup4\n      sload\n      div\n      mul\n      dup4\n      mstore\n      swap2\n      0x20\n      add\n      swap2\n      jump(tag_423)\n    tag_424:\n      dup3\n      add\n      swap2\n      swap1\n      0x00\n      mstore\n      keccak256(0x00, 0x20)\n      swap1\n    tag_425:\n      dup2\n      sload\n      dup2\n      mstore\n      swap1\n      0x01\n      add\n      swap1\n      0x20\n      add\n      dup1\n      dup4\n      gt\n      tag_425\n      jumpi\n      dup3\n      swap1\n      sub\n      0x1f\n      and\n      dup3\n      add\n      swap2\n    tag_423:\n      pop\n      pop\n      pop\n      pop\n      pop\n      swap1\n      dup1\n      0x02\n      add\n      0x00\n      swap1\n      sload\n      swap1\n      0x0100\n      exp\n      swap1\n      div\n      0xff\n      and\n      swap1\n      pop\n      dup4\n      jump\t// out\n        /* \"Documents/GitHub/Store-system-with-feedback/main.sol\":11017:11170  function productReturn(string memory titleProduct) public {\r... */\n    tag_178:\n        /* \"Documents/GitHub/Store-system-with-feedback/main.sol\":11086:11105  structStatusReturns */\n      0x0b\n        /* \"Documents/GitHub/Store-system-with-feedback/main.sol\":11111:11161  structStatusReturn(msg.sender, titleProduct, true) */\n      mload(0x40)\n      dup1\n      0x60\n      add\n      0x40\n      mstore\n      dup1\n        /* \"Documents/GitHub/Store-system-with-feedback/main.sol\":11130:11140  msg.sender */\n      caller\n        /* \"Documents/GitHub/Store-system-with-feedback/main.sol\":11111:11161  structStatusReturn(msg.sender, titleProduct, true) */\n      0xffffffffffffffffffffffffffffffffffffffff\n      and\n      dup2\n      mstore\n      0x20\n      add\n        /* \"Documents/GitHub/Store-system-with-feedback/main.sol\":11142:11154  titleProduct */\n      dup4\n        /* \"Documents/GitHub/Store-system-with-feedback/main.sol\":11111:11161  structStatusReturn(msg.sender, titleProduct, true) */\n      dup2\n      mstore\n      0x20\n      add\n        /* \"Documents/GitHub/Store-system-with-feedback/main.sol\":11156:11160  true */\n      0x01\n        /* \"Documents/GitHub/Store-system-with-feedback/main.sol\":11111:11161  structStatusReturn(msg.sender, titleProduct, true) */\n      iszero\n      iszero\n      dup2\n      mstore\n      pop\n        /* \"Documents/GitHub/Store-system-with-feedback/main.sol\":11086:11162  structStatusReturns.push(structStatusReturn(msg.sender, titleProduct, true)) */\n      swap1\n      dup1\n      0x01\n      dup2\n      sload\n      add\n      dup1\n      dup3\n      sstore\n      dup1\n      swap2\n      pop\n      pop\n      0x01\n      swap1\n      sub\n      swap1\n      0x00\n      mstore\n      keccak256(0x00, 0x20)\n      swap1\n      0x03\n      mul\n      add\n      0x00\n      swap1\n      swap2\n      swap1\n      swap2\n      swap1\n      swap2\n      pop\n      0x00\n      dup3\n      add\n      mload\n      dup2\n      0x00\n      add\n      exp(0x0100, 0x00)\n      dup2\n      sload\n      dup2\n      0xffffffffffffffffffffffffffffffffffffffff\n      mul\n      not\n      and\n      swap1\n      dup4\n      0xffffffffffffffffffffffffffffffffffffffff\n      and\n      mul\n      or\n      swap1\n      sstore\n      pop\n      0x20\n      dup3\n      add\n      mload\n      dup2\n      0x01\n      add\n      swap1\n      dup1\n      mload\n      swap1\n      0x20\n      add\n      swap1\n      tag_428\n      swap3\n      swap2\n      swap1\n      tag_220\n      jump\t// in\n    tag_428:\n      pop\n      0x40\n      dup3\n      add\n      mload\n      dup2\n      0x02\n      add\n      exp(0x0100, 0x00)\n      dup2\n      sload\n      dup2\n      0xff\n      mul\n      not\n      and\n      swap1\n      dup4\n      iszero\n      iszero\n      mul\n      or\n      swap1\n      sstore\n      pop\n      pop\n      pop\n        /* \"Documents/GitHub/Store-system-with-feedback/main.sol\":11017:11170  function productReturn(string memory titleProduct) public {\r... */\n      pop\n      jump\t// out\n        /* \"Documents/GitHub/Store-system-with-feedback/main.sol\":4037:4080  mapping(string => address) public shopLists */\n    tag_182:\n      0x01\n      dup2\n      dup1\n      mload\n      0x20\n      dup2\n      add\n      dup3\n      add\n      dup1\n      mload\n      dup5\n      dup3\n      mstore\n      0x20\n      dup4\n      add\n      0x20\n      dup6\n      add\n      keccak256\n      dup2\n      dup4\n      mstore\n      dup1\n      swap6\n      pop\n      pop\n      pop\n      pop\n      pop\n      pop\n      0x00\n      swap2\n      pop\n      sload\n      swap1\n      0x0100\n      exp\n      swap1\n      div\n      0xffffffffffffffffffffffffffffffffffffffff\n      and\n      dup2\n      jump\t// out\n        /* \"Documents/GitHub/Store-system-with-feedback/main.sol\":6368:6956  function leaveFeedback (string memory shop, string memory feedback, uint256 rating) public {\r... */\n    tag_188:\n        /* \"Documents/GitHub/Store-system-with-feedback/main.sol\":6488:6490  10 */\n      0x0a\n        /* \"Documents/GitHub/Store-system-with-feedback/main.sol\":6478:6484  rating */\n      dup2\n        /* \"Documents/GitHub/Store-system-with-feedback/main.sol\":6478:6490  rating <= 10 */\n      gt\n      iszero\n        /* \"Documents/GitHub/Store-system-with-feedback/main.sol\":6470:6527  require(rating <= 10,\"error: rating can be from 1 to 10\") */\n      tag_430\n      jumpi\n      mload(0x40)\n      0x08c379a000000000000000000000000000000000000000000000000000000000\n      dup2\n      mstore\n      0x04\n      add\n      tag_431\n      swap1\n      tag_432\n      jump\t// in\n    tag_431:\n      mload(0x40)\n      dup1\n      swap2\n      sub\n      swap1\n      revert\n    tag_430:\n        /* \"Documents/GitHub/Store-system-with-feedback/main.sol\":6542:6548  uint i */\n      0x00\n        /* \"Documents/GitHub/Store-system-with-feedback/main.sol\":6538:6949  for(uint i = 0; i <= shopList.length; i++) {\r... */\n    tag_433:\n        /* \"Documents/GitHub/Store-system-with-feedback/main.sol\":6559:6567  shopList */\n      0x02\n        /* \"Documents/GitHub/Store-system-with-feedback/main.sol\":6559:6574  shopList.length */\n      dup1\n      sload\n      swap1\n      pop\n        /* \"Documents/GitHub/Store-system-with-feedback/main.sol\":6554:6555  i */\n      dup2\n        /* \"Documents/GitHub/Store-system-with-feedback/main.sol\":6554:6574  i <= shopList.length */\n      gt\n        /* \"Documents/GitHub/Store-system-with-feedback/main.sol\":6538:6949  for(uint i = 0; i <= shopList.length; i++) {\r... */\n      tag_434\n      jumpi\n        /* \"Documents/GitHub/Store-system-with-feedback/main.sol\":6596:6622  string memory tempShopName */\n      0x00\n        /* \"Documents/GitHub/Store-system-with-feedback/main.sol\":6625:6633  shopList */\n      0x02\n        /* \"Documents/GitHub/Store-system-with-feedback/main.sol\":6634:6635  i */\n      dup3\n        /* \"Documents/GitHub/Store-system-with-feedback/main.sol\":6625:6636  shopList[i] */\n      dup2\n      sload\n      dup2\n      lt\n      tag_436\n      jumpi\n      tag_437\n      tag_247\n      jump\t// in\n    tag_437:\n    tag_436:\n      swap1\n      0x00\n      mstore\n      keccak256(0x00, 0x20)\n      add\n        /* \"Documents/GitHub/Store-system-with-feedback/main.sol\":6596:6636  string memory tempShopName = shopList[i] */\n      dup1\n      sload\n      tag_439\n      swap1\n      tag_236\n      jump\t// in\n    tag_439:\n      dup1\n      0x1f\n      add\n      0x20\n      dup1\n      swap2\n      div\n      mul\n      0x20\n      add\n      mload(0x40)\n      swap1\n      dup2\n      add\n      0x40\n      mstore\n      dup1\n      swap3\n      swap2\n      swap1\n      dup2\n      dup2\n      mstore\n      0x20\n      add\n      dup3\n      dup1\n      sload\n      tag_440\n      swap1\n      tag_236\n      jump\t// in\n    tag_440:\n      dup1\n      iszero\n      tag_441\n      jumpi\n      dup1\n      0x1f\n      lt\n      tag_442\n      jumpi\n      0x0100\n      dup1\n      dup4\n      sload\n      div\n      mul\n      dup4\n      mstore\n      swap2\n      0x20\n      add\n      swap2\n      jump(tag_441)\n    tag_442:\n      dup3\n      add\n      swap2\n      swap1\n      0x00\n      mstore\n      keccak256(0x00, 0x20)\n      swap1\n    tag_443:\n      dup2\n      sload\n      dup2\n      mstore\n      swap1\n      0x01\n      add\n      swap1\n      0x20\n      add\n      dup1\n      dup4\n      gt\n      tag_443\n      jumpi\n      dup3\n      swap1\n      sub\n      0x1f\n      and\n      dup3\n      add\n      swap2\n    tag_441:\n      pop\n      pop\n      pop\n      pop\n      pop\n      swap1\n      pop\n        /* \"Documents/GitHub/Store-system-with-feedback/main.sol\":6726:6730  shop */\n      dup5\n        /* \"Documents/GitHub/Store-system-with-feedback/main.sol\":6709:6731  abi.encodePacked(shop) */\n      add(0x20, mload(0x40))\n      tag_444\n      swap2\n      swap1\n      tag_211\n      jump\t// in\n    tag_444:\n      mload(0x40)\n      0x20\n      dup2\n      dup4\n      sub\n      sub\n      dup2\n      mstore\n      swap1\n      0x40\n      mstore\n        /* \"Documents/GitHub/Store-system-with-feedback/main.sol\":6699:6732  keccak256(abi.encodePacked(shop)) */\n      dup1\n      mload\n      swap1\n      0x20\n      add\n      keccak256\n        /* \"Documents/GitHub/Store-system-with-feedback/main.sol\":6681:6693  tempShopName */\n      dup2\n        /* \"Documents/GitHub/Store-system-with-feedback/main.sol\":6664:6694  abi.encodePacked(tempShopName) */\n      add(0x20, mload(0x40))\n      tag_445\n      swap2\n      swap1\n      tag_211\n      jump\t// in\n    tag_445:\n      mload(0x40)\n      0x20\n      dup2\n      dup4\n      sub\n      sub\n      dup2\n      mstore\n      swap1\n      0x40\n      mstore\n        /* \"Documents/GitHub/Store-system-with-feedback/main.sol\":6654:6695  keccak256(abi.encodePacked(tempShopName)) */\n      dup1\n      mload\n      swap1\n      0x20\n      add\n      keccak256\n        /* \"Documents/GitHub/Store-system-with-feedback/main.sol\":6654:6732  keccak256(abi.encodePacked(tempShopName)) == keccak256(abi.encodePacked(shop)) */\n      eq\n        /* \"Documents/GitHub/Store-system-with-feedback/main.sol\":6651:6938  if(keccak256(abi.encodePacked(tempShopName)) == keccak256(abi.encodePacked(shop))) {                    \r... */\n      iszero\n      tag_446\n      jumpi\n        /* \"Documents/GitHub/Store-system-with-feedback/main.sol\":6773:6799  string[] memory zerroArray */\n      0x60\n        /* \"Documents/GitHub/Store-system-with-feedback/main.sol\":6818:6832  complaintBooks */\n      0x03\n        /* \"Documents/GitHub/Store-system-with-feedback/main.sol\":6838:6921  complaintBook(shop, structUsers[msg.sender].userName, feedback, rating, zerroArray) */\n      mload(0x40)\n      dup1\n      0xa0\n      add\n      0x40\n      mstore\n      dup1\n        /* \"Documents/GitHub/Store-system-with-feedback/main.sol\":6852:6856  shop */\n      dup9\n        /* \"Documents/GitHub/Store-system-with-feedback/main.sol\":6838:6921  complaintBook(shop, structUsers[msg.sender].userName, feedback, rating, zerroArray) */\n      dup2\n      mstore\n      0x20\n      add\n        /* \"Documents/GitHub/Store-system-with-feedback/main.sol\":6858:6869  structUsers */\n      0x04\n        /* \"Documents/GitHub/Store-system-with-feedback/main.sol\":6858:6881  structUsers[msg.sender] */\n      0x00\n        /* \"Documents/GitHub/Store-system-with-feedback/main.sol\":6870:6880  msg.sender */\n      caller\n        /* \"Documents/GitHub/Store-system-with-feedback/main.sol\":6858:6881  structUsers[msg.sender] */\n      0xffffffffffffffffffffffffffffffffffffffff\n      and\n      0xffffffffffffffffffffffffffffffffffffffff\n      and\n      dup2\n      mstore\n      0x20\n      add\n      swap1\n      dup2\n      mstore\n      0x20\n      add\n      0x00\n      keccak256\n        /* \"Documents/GitHub/Store-system-with-feedback/main.sol\":6858:6890  structUsers[msg.sender].userName */\n      0x00\n      add\n        /* \"Documents/GitHub/Store-system-with-feedback/main.sol\":6838:6921  complaintBook(shop, structUsers[msg.sender].userName, feedback, rating, zerroArray) */\n      dup1\n      sload\n      tag_447\n      swap1\n      tag_236\n      jump\t// in\n    tag_447:\n      dup1\n      0x1f\n      add\n      0x20\n      dup1\n      swap2\n      div\n      mul\n      0x20\n      add\n      mload(0x40)\n      swap1\n      dup2\n      add\n      0x40\n      mstore\n      dup1\n      swap3\n      swap2\n      swap1\n      dup2\n      dup2\n      mstore\n      0x20\n      add\n      dup3\n      dup1\n      sload\n      tag_448\n      swap1\n      tag_236\n      jump\t// in\n    tag_448:\n      dup1\n      iszero\n      tag_449\n      jumpi\n      dup1\n      0x1f\n      lt\n      tag_450\n      jumpi\n      0x0100\n      dup1\n      dup4\n      sload\n      div\n      mul\n      dup4\n      mstore\n      swap2\n      0x20\n      add\n      swap2\n      jump(tag_449)\n    tag_450:\n      dup3\n      add\n      swap2\n      swap1\n      0x00\n      mstore\n      keccak256(0x00, 0x20)\n      swap1\n    tag_451:\n      dup2\n      sload\n      dup2\n      mstore\n      swap1\n      0x01\n      add\n      swap1\n      0x20\n      add\n      dup1\n      dup4\n      gt\n      tag_451\n      jumpi\n      dup3\n      swap1\n      sub\n      0x1f\n      and\n      dup3\n      add\n      swap2\n    tag_449:\n      pop\n      pop\n      pop\n      pop\n      pop\n      dup2\n      mstore\n      0x20\n      add\n        /* \"Documents/GitHub/Store-system-with-feedback/main.sol\":6892:6900  feedback */\n      dup8\n        /* \"Documents/GitHub/Store-system-with-feedback/main.sol\":6838:6921  complaintBook(shop, structUsers[msg.sender].userName, feedback, rating, zerroArray) */\n      dup2\n      mstore\n      0x20\n      add\n        /* \"Documents/GitHub/Store-system-with-feedback/main.sol\":6902:6908  rating */\n      dup7\n        /* \"Documents/GitHub/Store-system-with-feedback/main.sol\":6838:6921  complaintBook(shop, structUsers[msg.sender].userName, feedback, rating, zerroArray) */\n      dup2\n      mstore\n      0x20\n      add\n        /* \"Documents/GitHub/Store-system-with-feedback/main.sol\":6910:6920  zerroArray */\n      dup4\n        /* \"Documents/GitHub/Store-system-with-feedback/main.sol\":6838:6921  complaintBook(shop, structUsers[msg.sender].userName, feedback, rating, zerroArray) */\n      dup2\n      mstore\n      pop\n        /* \"Documents/GitHub/Store-system-with-feedback/main.sol\":6818:6922  complaintBooks.push(complaintBook(shop, structUsers[msg.sender].userName, feedback, rating, zerroArray)) */\n      swap1\n      dup1\n      0x01\n      dup2\n      sload\n      add\n      dup1\n      dup3\n      sstore\n      dup1\n      swap2\n      pop\n      pop\n      0x01\n      swap1\n      sub\n      swap1\n      0x00\n      mstore\n      keccak256(0x00, 0x20)\n      swap1\n      0x05\n      mul\n      add\n      0x00\n      swap1\n      swap2\n      swap1\n      swap2\n      swap1\n      swap2\n      pop\n      0x00\n      dup3\n      add\n      mload\n      dup2\n      0x00\n      add\n      swap1\n      dup1\n      mload\n      swap1\n      0x20\n      add\n      swap1\n      tag_453\n      swap3\n      swap2\n      swap1\n      tag_220\n      jump\t// in\n    tag_453:\n      pop\n      0x20\n      dup3\n      add\n      mload\n      dup2\n      0x01\n      add\n      swap1\n      dup1\n      mload\n      swap1\n      0x20\n      add\n      swap1\n      tag_454\n      swap3\n      swap2\n      swap1\n      tag_220\n      jump\t// in\n    tag_454:\n      pop\n      0x40\n      dup3\n      add\n      mload\n      dup2\n      0x02\n      add\n      swap1\n      dup1\n      mload\n      swap1\n      0x20\n      add\n      swap1\n      tag_455\n      swap3\n      swap2\n      swap1\n      tag_220\n      jump\t// in\n    tag_455:\n      pop\n      0x60\n      dup3\n      add\n      mload\n      dup2\n      0x03\n      add\n      sstore\n      0x80\n      dup3\n      add\n      mload\n      dup2\n      0x04\n      add\n      swap1\n      dup1\n      mload\n      swap1\n      0x20\n      add\n      swap1\n      tag_456\n      swap3\n      swap2\n      swap1\n      tag_261\n      jump\t// in\n    tag_456:\n      pop\n      pop\n      pop\n        /* \"Documents/GitHub/Store-system-with-feedback/main.sol\":6734:6938  {                    \r... */\n      pop\n        /* \"Documents/GitHub/Store-system-with-feedback/main.sol\":6651:6938  if(keccak256(abi.encodePacked(tempShopName)) == keccak256(abi.encodePacked(shop))) {                    \r... */\n    tag_446:\n        /* \"Documents/GitHub/Store-system-with-feedback/main.sol\":6581:6949  {\r... */\n      pop\n        /* \"Documents/GitHub/Store-system-with-feedback/main.sol\":6576:6579  i++ */\n      dup1\n      dup1\n      tag_457\n      swap1\n      tag_263\n      jump\t// in\n    tag_457:\n      swap2\n      pop\n      pop\n        /* \"Documents/GitHub/Store-system-with-feedback/main.sol\":6538:6949  for(uint i = 0; i <= shopList.length; i++) {\r... */\n      jump(tag_433)\n    tag_434:\n      pop\n        /* \"Documents/GitHub/Store-system-with-feedback/main.sol\":6368:6956  function leaveFeedback (string memory shop, string memory feedback, uint256 rating) public {\r... */\n      pop\n      pop\n      pop\n      jump\t// out\n        /* \"Documents/GitHub/Store-system-with-feedback/main.sol\":11872:12302  function login_user(string memory login, bytes32 password) public {\r... */\n    tag_192:\n        /* \"Documents/GitHub/Store-system-with-feedback/main.sol\":12004:12009  false */\n      0x00\n        /* \"Documents/GitHub/Store-system-with-feedback/main.sol\":11957:12009  structUsers[structUserLogins[login]].logged == false */\n      iszero\n      iszero\n        /* \"Documents/GitHub/Store-system-with-feedback/main.sol\":11957:11968  structUsers */\n      0x04\n        /* \"Documents/GitHub/Store-system-with-feedback/main.sol\":11957:11993  structUsers[structUserLogins[login]] */\n      0x00\n        /* \"Documents/GitHub/Store-system-with-feedback/main.sol\":11969:11985  structUserLogins */\n      0x05\n        /* \"Documents/GitHub/Store-system-with-feedback/main.sol\":11986:11991  login */\n      dup6\n        /* \"Documents/GitHub/Store-system-with-feedback/main.sol\":11969:11992  structUserLogins[login] */\n      mload(0x40)\n      tag_459\n      swap2\n      swap1\n      tag_211\n      jump\t// in\n    tag_459:\n      swap1\n      dup2\n      mstore\n      0x20\n      add\n      mload(0x40)\n      dup1\n      swap2\n      sub\n      swap1\n      keccak256\n      0x00\n      swap1\n      sload\n      swap1\n      0x0100\n      exp\n      swap1\n      div\n      0xffffffffffffffffffffffffffffffffffffffff\n      and\n        /* \"Documents/GitHub/Store-system-with-feedback/main.sol\":11957:11993  structUsers[structUserLogins[login]] */\n      0xffffffffffffffffffffffffffffffffffffffff\n      and\n      0xffffffffffffffffffffffffffffffffffffffff\n      and\n      dup2\n      mstore\n      0x20\n      add\n      swap1\n      dup2\n      mstore\n      0x20\n      add\n      0x00\n      keccak256\n        /* \"Documents/GitHub/Store-system-with-feedback/main.sol\":11957:12000  structUsers[structUserLogins[login]].logged */\n      0x03\n      add\n      0x00\n      swap1\n      sload\n      swap1\n      0x0100\n      exp\n      swap1\n      div\n      0xff\n      and\n        /* \"Documents/GitHub/Store-system-with-feedback/main.sol\":11957:12009  structUsers[structUserLogins[login]].logged == false */\n      iszero\n      iszero\n      eq\n        /* \"Documents/GitHub/Store-system-with-feedback/main.sol\":11949:12043  require(structUsers[structUserLogins[login]].logged == false, \"Error: You are already logged\") */\n      tag_460\n      jumpi\n      mload(0x40)\n      0x08c379a000000000000000000000000000000000000000000000000000000000\n      dup2\n      mstore\n      0x04\n      add\n      tag_461\n      swap1\n      tag_335\n      jump\t// in\n    tag_461:\n      mload(0x40)\n      dup1\n      swap2\n      sub\n      swap1\n      revert\n    tag_460:\n        /* \"Documents/GitHub/Store-system-with-feedback/main.sol\":12097:12098  0 */\n      0x00\n        /* \"Documents/GitHub/Store-system-with-feedback/main.sol\":12062:12099  structUserLogins[login] != address(0) */\n      0xffffffffffffffffffffffffffffffffffffffff\n      and\n        /* \"Documents/GitHub/Store-system-with-feedback/main.sol\":12062:12078  structUserLogins */\n      0x05\n        /* \"Documents/GitHub/Store-system-with-feedback/main.sol\":12079:12084  login */\n      dup4\n        /* \"Documents/GitHub/Store-system-with-feedback/main.sol\":12062:12085  structUserLogins[login] */\n      mload(0x40)\n      tag_462\n      swap2\n      swap1\n      tag_211\n      jump\t// in\n    tag_462:\n      swap1\n      dup2\n      mstore\n      0x20\n      add\n      mload(0x40)\n      dup1\n      swap2\n      sub\n      swap1\n      keccak256\n      0x00\n      swap1\n      sload\n      swap1\n      0x0100\n      exp\n      swap1\n      div\n      0xffffffffffffffffffffffffffffffffffffffff\n      and\n        /* \"Documents/GitHub/Store-system-with-feedback/main.sol\":12062:12099  structUserLogins[login] != address(0) */\n      0xffffffffffffffffffffffffffffffffffffffff\n      and\n      eq\n      iszero\n        /* \"Documents/GitHub/Store-system-with-feedback/main.sol\":12054:12129  require(structUserLogins[login] != address(0), \"Error: User doesn't exist\") */\n      tag_463\n      jumpi\n      mload(0x40)\n      0x08c379a000000000000000000000000000000000000000000000000000000000\n      dup2\n      mstore\n      0x04\n      add\n      tag_464\n      swap1\n      tag_339\n      jump\t// in\n    tag_464:\n      mload(0x40)\n      dup1\n      swap2\n      sub\n      swap1\n      revert\n    tag_463:\n        /* \"Documents/GitHub/Store-system-with-feedback/main.sol\":12197:12205  password */\n      dup1\n        /* \"Documents/GitHub/Store-system-with-feedback/main.sol\":12148:12159  structUsers */\n      0x04\n        /* \"Documents/GitHub/Store-system-with-feedback/main.sol\":12148:12184  structUsers[structUserLogins[login]] */\n      0x00\n        /* \"Documents/GitHub/Store-system-with-feedback/main.sol\":12160:12176  structUserLogins */\n      0x05\n        /* \"Documents/GitHub/Store-system-with-feedback/main.sol\":12177:12182  login */\n      dup6\n        /* \"Documents/GitHub/Store-system-with-feedback/main.sol\":12160:12183  structUserLogins[login] */\n      mload(0x40)\n      tag_465\n      swap2\n      swap1\n      tag_211\n      jump\t// in\n    tag_465:\n      swap1\n      dup2\n      mstore\n      0x20\n      add\n      mload(0x40)\n      dup1\n      swap2\n      sub\n      swap1\n      keccak256\n      0x00\n      swap1\n      sload\n      swap1\n      0x0100\n      exp\n      swap1\n      div\n      0xffffffffffffffffffffffffffffffffffffffff\n      and\n        /* \"Documents/GitHub/Store-system-with-feedback/main.sol\":12148:12184  structUsers[structUserLogins[login]] */\n      0xffffffffffffffffffffffffffffffffffffffff\n      and\n      0xffffffffffffffffffffffffffffffffffffffff\n      and\n      dup2\n      mstore\n      0x20\n      add\n      swap1\n      dup2\n      mstore\n      0x20\n      add\n      0x00\n      keccak256\n        /* \"Documents/GitHub/Store-system-with-feedback/main.sol\":12148:12193  structUsers[structUserLogins[login]].password */\n      0x01\n      add\n      sload\n        /* \"Documents/GitHub/Store-system-with-feedback/main.sol\":12148:12205  structUsers[structUserLogins[login]].password == password */\n      eq\n        /* \"Documents/GitHub/Store-system-with-feedback/main.sol\":12140:12233  require(structUsers[structUserLogins[login]].password == password, \"Error: Invalid password\") */\n      tag_466\n      jumpi\n      mload(0x40)\n      0x08c379a000000000000000000000000000000000000000000000000000000000\n      dup2\n      mstore\n      0x04\n      add\n      tag_467\n      swap1\n      tag_343\n      jump\t// in\n    tag_467:\n      mload(0x40)\n      dup1\n      swap2\n      sub\n      swap1\n      revert\n    tag_466:\n        /* \"Documents/GitHub/Store-system-with-feedback/main.sol\":12290:12294  true */\n      0x01\n        /* \"Documents/GitHub/Store-system-with-feedback/main.sol\":12244:12255  structUsers */\n      0x04\n        /* \"Documents/GitHub/Store-system-with-feedback/main.sol\":12244:12280  structUsers[structUserLogins[login]] */\n      0x00\n        /* \"Documents/GitHub/Store-system-with-feedback/main.sol\":12256:12272  structUserLogins */\n      0x05\n        /* \"Documents/GitHub/Store-system-with-feedback/main.sol\":12273:12278  login */\n      dup6\n        /* \"Documents/GitHub/Store-system-with-feedback/main.sol\":12256:12279  structUserLogins[login] */\n      mload(0x40)\n      tag_468\n      swap2\n      swap1\n      tag_211\n      jump\t// in\n    tag_468:\n      swap1\n      dup2\n      mstore\n      0x20\n      add\n      mload(0x40)\n      dup1\n      swap2\n      sub\n      swap1\n      keccak256\n      0x00\n      swap1\n      sload\n      swap1\n      0x0100\n      exp\n      swap1\n      div\n      0xffffffffffffffffffffffffffffffffffffffff\n      and\n        /* \"Documents/GitHub/Store-system-with-feedback/main.sol\":12244:12280  structUsers[structUserLogins[login]] */\n      0xffffffffffffffffffffffffffffffffffffffff\n      and\n      0xffffffffffffffffffffffffffffffffffffffff\n      and\n      dup2\n      mstore\n      0x20\n      add\n      swap1\n      dup2\n      mstore\n      0x20\n      add\n      0x00\n      keccak256\n        /* \"Documents/GitHub/Store-system-with-feedback/main.sol\":12244:12287  structUsers[structUserLogins[login]].logged */\n      0x03\n      add\n      0x00\n        /* \"Documents/GitHub/Store-system-with-feedback/main.sol\":12244:12294  structUsers[structUserLogins[login]].logged = true */\n      0x0100\n      exp\n      dup2\n      sload\n      dup2\n      0xff\n      mul\n      not\n      and\n      swap1\n      dup4\n      iszero\n      iszero\n      mul\n      or\n      swap1\n      sstore\n      pop\n        /* \"Documents/GitHub/Store-system-with-feedback/main.sol\":11872:12302  function login_user(string memory login, bytes32 password) public {\r... */\n      pop\n      pop\n      jump\t// out\n        /* \"Documents/GitHub/Store-system-with-feedback/main.sol\":5020:5074  mapping(string => structProduct) public structProducts */\n    tag_196:\n      0x08\n      dup2\n      dup1\n      mload\n      0x20\n      dup2\n      add\n      dup3\n      add\n      dup1\n      mload\n      dup5\n      dup3\n      mstore\n      0x20\n      dup4\n      add\n      0x20\n      dup6\n      add\n      keccak256\n      dup2\n      dup4\n      mstore\n      dup1\n      swap6\n      pop\n      pop\n      pop\n      pop\n      pop\n      pop\n      0x00\n      swap2\n      pop\n      swap1\n      pop\n      dup1\n      0x00\n      add\n      0x00\n      swap1\n      sload\n      swap1\n      0x0100\n      exp\n      swap1\n      div\n      0xffffffffffffffffffffffffffffffffffffffff\n      and\n      swap1\n      dup1\n      0x01\n      add\n      dup1\n      sload\n      tag_469\n      swap1\n      tag_236\n      jump\t// in\n    tag_469:\n      dup1\n      0x1f\n      add\n      0x20\n      dup1\n      swap2\n      div\n      mul\n      0x20\n      add\n      mload(0x40)\n      swap1\n      dup2\n      add\n      0x40\n      mstore\n      dup1\n      swap3\n      swap2\n      swap1\n      dup2\n      dup2\n      mstore\n      0x20\n      add\n      dup3\n      dup1\n      sload\n      tag_470\n      swap1\n      tag_236\n      jump\t// in\n    tag_470:\n      dup1\n      iszero\n      tag_471\n      jumpi\n      dup1\n      0x1f\n      lt\n      tag_472\n      jumpi\n      0x0100\n      dup1\n      dup4\n      sload\n      div\n      mul\n      dup4\n      mstore\n      swap2\n      0x20\n      add\n      swap2\n      jump(tag_471)\n    tag_472:\n      dup3\n      add\n      swap2\n      swap1\n      0x00\n      mstore\n      keccak256(0x00, 0x20)\n      swap1\n    tag_473:\n      dup2\n      sload\n      dup2\n      mstore\n      swap1\n      0x01\n      add\n      swap1\n      0x20\n      add\n      dup1\n      dup4\n      gt\n      tag_473\n      jumpi\n      dup3\n      swap1\n      sub\n      0x1f\n      and\n      dup3\n      add\n      swap2\n    tag_471:\n      pop\n      pop\n      pop\n      pop\n      pop\n      swap1\n      dup1\n      0x02\n      add\n      sload\n      swap1\n      dup1\n      0x03\n      add\n      sload\n      swap1\n      pop\n      dup5\n      jump\t// out\n        /* \"Documents/GitHub/Store-system-with-feedback/main.sol\":5312:5363  structStatusPurchase[] public structStatusPurchases */\n    tag_202:\n      0x0a\n      dup2\n      dup2\n      sload\n      dup2\n      lt\n      tag_474\n      jumpi\n      0x00\n      dup1\n      revert\n    tag_474:\n      swap1\n      0x00\n      mstore\n      keccak256(0x00, 0x20)\n      swap1\n      0x04\n      mul\n      add\n      0x00\n      swap2\n      pop\n      swap1\n      pop\n      dup1\n      0x00\n      add\n      0x00\n      swap1\n      sload\n      swap1\n      0x0100\n      exp\n      swap1\n      div\n      0xffffffffffffffffffffffffffffffffffffffff\n      and\n      swap1\n      dup1\n      0x01\n      add\n      dup1\n      sload\n      tag_476\n      swap1\n      tag_236\n      jump\t// in\n    tag_476:\n      dup1\n      0x1f\n      add\n      0x20\n      dup1\n      swap2\n      div\n      mul\n      0x20\n      add\n      mload(0x40)\n      swap1\n      dup2\n      add\n      0x40\n      mstore\n      dup1\n      swap3\n      swap2\n      swap1\n      dup2\n      dup2\n      mstore\n      0x20\n      add\n      dup3\n      dup1\n      sload\n      tag_477\n      swap1\n      tag_236\n      jump\t// in\n    tag_477:\n      dup1\n      iszero\n      tag_478\n      jumpi\n      dup1\n      0x1f\n      lt\n      tag_479\n      jumpi\n      0x0100\n      dup1\n      dup4\n      sload\n      div\n      mul\n      dup4\n      mstore\n      swap2\n      0x20\n      add\n      swap2\n      jump(tag_478)\n    tag_479:\n      dup3\n      add\n      swap2\n      swap1\n      0x00\n      mstore\n      keccak256(0x00, 0x20)\n      swap1\n    tag_480:\n      dup2\n      sload\n      dup2\n      mstore\n      swap1\n      0x01\n      add\n      swap1\n      0x20\n      add\n      dup1\n      dup4\n      gt\n      tag_480\n      jumpi\n      dup3\n      swap1\n      sub\n      0x1f\n      and\n      dup3\n      add\n      swap2\n    tag_478:\n      pop\n      pop\n      pop\n      pop\n      pop\n      swap1\n      dup1\n      0x02\n      add\n      sload\n      swap1\n      dup1\n      0x03\n      add\n      0x00\n      swap1\n      sload\n      swap1\n      0x0100\n      exp\n      swap1\n      div\n      0xff\n      and\n      swap1\n      pop\n      dup5\n      jump\t// out\n        /* \"Documents/GitHub/Store-system-with-feedback/main.sol\":7018:7515  function acceptPurchase (uint idPurchase, uint confirmation) public payable {\r... */\n    tag_208:\n        /* \"Documents/GitHub/Store-system-with-feedback/main.sol\":7125:7126  1 */\n      0x01\n        /* \"Documents/GitHub/Store-system-with-feedback/main.sol\":7109:7121  confirmation */\n      dup2\n        /* \"Documents/GitHub/Store-system-with-feedback/main.sol\":7109:7126  confirmation == 1 */\n      eq\n        /* \"Documents/GitHub/Store-system-with-feedback/main.sol\":7105:7508  if (confirmation == 1) {\r... */\n      iszero\n      tag_482\n      jumpi\n        /* \"Documents/GitHub/Store-system-with-feedback/main.sol\":7151:7161  msg.sender */\n      caller\n        /* \"Documents/GitHub/Store-system-with-feedback/main.sol\":7143:7171  payable(msg.sender).transfer */\n      0xffffffffffffffffffffffffffffffffffffffff\n      and\n        /* \"Documents/GitHub/Store-system-with-feedback/main.sol\":7143:7212  payable(msg.sender).transfer(structStatusPurchases[idPurchase].price) */\n      0x08fc\n        /* \"Documents/GitHub/Store-system-with-feedback/main.sol\":7172:7193  structStatusPurchases */\n      0x0a\n        /* \"Documents/GitHub/Store-system-with-feedback/main.sol\":7194:7204  idPurchase */\n      dup5\n        /* \"Documents/GitHub/Store-system-with-feedback/main.sol\":7172:7205  structStatusPurchases[idPurchase] */\n      dup2\n      sload\n      dup2\n      lt\n      tag_483\n      jumpi\n      tag_484\n      tag_247\n      jump\t// in\n    tag_484:\n    tag_483:\n      swap1\n      0x00\n      mstore\n      keccak256(0x00, 0x20)\n      swap1\n      0x04\n      mul\n      add\n        /* \"Documents/GitHub/Store-system-with-feedback/main.sol\":7172:7211  structStatusPurchases[idPurchase].price */\n      0x02\n      add\n      sload\n        /* \"Documents/GitHub/Store-system-with-feedback/main.sol\":7143:7212  payable(msg.sender).transfer(structStatusPurchases[idPurchase].price) */\n      swap1\n      dup2\n      iszero\n      mul\n      swap1\n      mload(0x40)\n      0x00\n      mload(0x40)\n      dup1\n      dup4\n      sub\n      dup2\n      dup6\n      dup9\n      dup9\n      call\n      swap4\n      pop\n      pop\n      pop\n      pop\n      iszero\n      dup1\n      iszero\n      tag_487\n      jumpi\n      returndatasize\n      0x00\n      dup1\n      returndatacopy\n      revert(0x00, returndatasize)\n    tag_487:\n      pop\n        /* \"Documents/GitHub/Store-system-with-feedback/main.sol\":7270:7275  false */\n      0x00\n        /* \"Documents/GitHub/Store-system-with-feedback/main.sol\":7227:7248  structStatusPurchases */\n      0x0a\n        /* \"Documents/GitHub/Store-system-with-feedback/main.sol\":7249:7259  idPurchase */\n      dup4\n        /* \"Documents/GitHub/Store-system-with-feedback/main.sol\":7227:7260  structStatusPurchases[idPurchase] */\n      dup2\n      sload\n      dup2\n      lt\n      tag_488\n      jumpi\n      tag_489\n      tag_247\n      jump\t// in\n    tag_489:\n    tag_488:\n      swap1\n      0x00\n      mstore\n      keccak256(0x00, 0x20)\n      swap1\n      0x04\n      mul\n      add\n        /* \"Documents/GitHub/Store-system-with-feedback/main.sol\":7227:7267  structStatusPurchases[idPurchase].status */\n      0x03\n      add\n      0x00\n        /* \"Documents/GitHub/Store-system-with-feedback/main.sol\":7227:7275  structStatusPurchases[idPurchase].status = false */\n      0x0100\n      exp\n      dup2\n      sload\n      dup2\n      0xff\n      mul\n      not\n      and\n      swap1\n      dup4\n      iszero\n      iszero\n      mul\n      or\n      swap1\n      sstore\n      pop\n        /* \"Documents/GitHub/Store-system-with-feedback/main.sol\":7105:7508  if (confirmation == 1) {\r... */\n      jump(tag_491)\n    tag_482:\n        /* \"Documents/GitHub/Store-system-with-feedback/main.sol\":7313:7314  0 */\n      0x00\n        /* \"Documents/GitHub/Store-system-with-feedback/main.sol\":7297:7309  confirmation */\n      dup2\n        /* \"Documents/GitHub/Store-system-with-feedback/main.sol\":7297:7314  confirmation == 0 */\n      eq\n        /* \"Documents/GitHub/Store-system-with-feedback/main.sol\":7293:7508  if (confirmation == 0) {\r... */\n      iszero\n      tag_492\n      jumpi\n        /* \"Documents/GitHub/Store-system-with-feedback/main.sol\":7339:7360  structStatusPurchases */\n      0x0a\n        /* \"Documents/GitHub/Store-system-with-feedback/main.sol\":7361:7371  idPurchase */\n      dup3\n        /* \"Documents/GitHub/Store-system-with-feedback/main.sol\":7339:7372  structStatusPurchases[idPurchase] */\n      dup2\n      sload\n      dup2\n      lt\n      tag_493\n      jumpi\n      tag_494\n      tag_247\n      jump\t// in\n    tag_494:\n    tag_493:\n      swap1\n      0x00\n      mstore\n      keccak256(0x00, 0x20)\n      swap1\n      0x04\n      mul\n      add\n        /* \"Documents/GitHub/Store-system-with-feedback/main.sol\":7339:7382  structStatusPurchases[idPurchase].userLogin */\n      0x00\n      add\n      0x00\n      swap1\n      sload\n      swap1\n      0x0100\n      exp\n      swap1\n      div\n      0xffffffffffffffffffffffffffffffffffffffff\n      and\n        /* \"Documents/GitHub/Store-system-with-feedback/main.sol\":7331:7392  payable(structStatusPurchases[idPurchase].userLogin).transfer */\n      0xffffffffffffffffffffffffffffffffffffffff\n      and\n        /* \"Documents/GitHub/Store-system-with-feedback/main.sol\":7331:7433  payable(structStatusPurchases[idPurchase].userLogin).transfer(structStatusPurchases[idPurchase].price) */\n      0x08fc\n        /* \"Documents/GitHub/Store-system-with-feedback/main.sol\":7393:7414  structStatusPurchases */\n      0x0a\n        /* \"Documents/GitHub/Store-system-with-feedback/main.sol\":7415:7425  idPurchase */\n      dup5\n        /* \"Documents/GitHub/Store-system-with-feedback/main.sol\":7393:7426  structStatusPurchases[idPurchase] */\n      dup2\n      sload\n      dup2\n      lt\n      tag_496\n      jumpi\n      tag_497\n      tag_247\n      jump\t// in\n    tag_497:\n    tag_496:\n      swap1\n      0x00\n      mstore\n      keccak256(0x00, 0x20)\n      swap1\n      0x04\n      mul\n      add\n        /* \"Documents/GitHub/Store-system-with-feedback/main.sol\":7393:7432  structStatusPurchases[idPurchase].price */\n      0x02\n      add\n      sload\n        /* \"Documents/GitHub/Store-system-with-feedback/main.sol\":7331:7433  payable(structStatusPurchases[idPurchase].userLogin).transfer(structStatusPurchases[idPurchase].price) */\n      swap1\n      dup2\n      iszero\n      mul\n      swap1\n      mload(0x40)\n      0x00\n      mload(0x40)\n      dup1\n      dup4\n      sub\n      dup2\n      dup6\n      dup9\n      dup9\n      call\n      swap4\n      pop\n      pop\n      pop\n      pop\n      iszero\n      dup1\n      iszero\n      tag_500\n      jumpi\n      returndatasize\n      0x00\n      dup1\n      returndatacopy\n      revert(0x00, returndatasize)\n    tag_500:\n      pop\n        /* \"Documents/GitHub/Store-system-with-feedback/main.sol\":7491:7496  false */\n      0x00\n        /* \"Documents/GitHub/Store-system-with-feedback/main.sol\":7448:7469  structStatusPurchases */\n      0x0a\n        /* \"Documents/GitHub/Store-system-with-feedback/main.sol\":7470:7480  idPurchase */\n      dup4\n        /* \"Documents/GitHub/Store-system-with-feedback/main.sol\":7448:7481  structStatusPurchases[idPurchase] */\n      dup2\n      sload\n      dup2\n      lt\n      tag_501\n      jumpi\n      tag_502\n      tag_247\n      jump\t// in\n    tag_502:\n    tag_501:\n      swap1\n      0x00\n      mstore\n      keccak256(0x00, 0x20)\n      swap1\n      0x04\n      mul\n      add\n        /* \"Documents/GitHub/Store-system-with-feedback/main.sol\":7448:7488  structStatusPurchases[idPurchase].status */\n      0x03\n      add\n      0x00\n        /* \"Documents/GitHub/Store-system-with-feedback/main.sol\":7448:7496  structStatusPurchases[idPurchase].status = false */\n      0x0100\n      exp\n      dup2\n      sload\n      dup2\n      0xff\n      mul\n      not\n      and\n      swap1\n      dup4\n      iszero\n      iszero\n      mul\n      or\n      swap1\n      sstore\n      pop\n        /* \"Documents/GitHub/Store-system-with-feedback/main.sol\":7293:7508  if (confirmation == 0) {\r... */\n    tag_492:\n        /* \"Documents/GitHub/Store-system-with-feedback/main.sol\":7105:7508  if (confirmation == 1) {\r... */\n    tag_491:\n        /* \"Documents/GitHub/Store-system-with-feedback/main.sol\":7018:7515  function acceptPurchase (uint idPurchase, uint confirmation) public payable {\r... */\n      pop\n      pop\n      jump\t// out\n    tag_220:\n      dup3\n      dup1\n      sload\n      tag_504\n      swap1\n      tag_236\n      jump\t// in\n    tag_504:\n      swap1\n      0x00\n      mstore\n      keccak256(0x00, 0x20)\n      swap1\n      0x1f\n      add\n      0x20\n      swap1\n      div\n      dup2\n      add\n      swap3\n      dup3\n      tag_506\n      jumpi\n      0x00\n      dup6\n      sstore\n      jump(tag_505)\n    tag_506:\n      dup3\n      0x1f\n      lt\n      tag_507\n      jumpi\n      dup1\n      mload\n      not(0xff)\n      and\n      dup4\n      dup1\n      add\n      or\n      dup6\n      sstore\n      jump(tag_505)\n    tag_507:\n      dup3\n      dup1\n      add\n      0x01\n      add\n      dup6\n      sstore\n      dup3\n      iszero\n      tag_505\n      jumpi\n      swap2\n      dup3\n      add\n    tag_508:\n      dup3\n      dup2\n      gt\n      iszero\n      tag_509\n      jumpi\n      dup3\n      mload\n      dup3\n      sstore\n      swap2\n      0x20\n      add\n      swap2\n      swap1\n      0x01\n      add\n      swap1\n      jump(tag_508)\n    tag_509:\n    tag_505:\n      pop\n      swap1\n      pop\n      tag_510\n      swap2\n      swap1\n      tag_511\n      jump\t// in\n    tag_510:\n      pop\n      swap1\n      jump\t// out\n    tag_261:\n      dup3\n      dup1\n      sload\n      dup3\n      dup3\n      sstore\n      swap1\n      0x00\n      mstore\n      keccak256(0x00, 0x20)\n      swap1\n      dup2\n      add\n      swap3\n      dup3\n      iszero\n      tag_512\n      jumpi\n      swap2\n      0x20\n      mul\n      dup3\n      add\n    tag_513:\n      dup3\n      dup2\n      gt\n      iszero\n      tag_514\n      jumpi\n      dup3\n      mload\n      dup3\n      swap1\n      dup1\n      mload\n      swap1\n      0x20\n      add\n      swap1\n      tag_515\n      swap3\n      swap2\n      swap1\n      tag_220\n      jump\t// in\n    tag_515:\n      pop\n      swap2\n      0x20\n      add\n      swap2\n      swap1\n      0x01\n      add\n      swap1\n      jump(tag_513)\n    tag_514:\n    tag_512:\n      pop\n      swap1\n      pop\n      tag_516\n      swap2\n      swap1\n      tag_517\n      jump\t// in\n    tag_516:\n      pop\n      swap1\n      jump\t// out\n    tag_511:\n    tag_518:\n      dup1\n      dup3\n      gt\n      iszero\n      tag_519\n      jumpi\n      0x00\n      dup2\n      0x00\n      swap1\n      sstore\n      pop\n      0x01\n      add\n      jump(tag_518)\n    tag_519:\n      pop\n      swap1\n      jump\t// out\n    tag_517:\n    tag_520:\n      dup1\n      dup3\n      gt\n      iszero\n      tag_521\n      jumpi\n      0x00\n      dup2\n      dup2\n      tag_522\n      swap2\n      swap1\n      tag_523\n      jump\t// in\n    tag_522:\n      pop\n      0x01\n      add\n      jump(tag_520)\n    tag_521:\n      pop\n      swap1\n      jump\t// out\n    tag_523:\n      pop\n      dup1\n      sload\n      tag_524\n      swap1\n      tag_236\n      jump\t// in\n    tag_524:\n      0x00\n      dup3\n      sstore\n      dup1\n      0x1f\n      lt\n      tag_526\n      jumpi\n      pop\n      jump(tag_525)\n    tag_526:\n      0x1f\n      add\n      0x20\n      swap1\n      div\n      swap1\n      0x00\n      mstore\n      keccak256(0x00, 0x20)\n      swap1\n      dup2\n      add\n      swap1\n      tag_527\n      swap2\n      swap1\n      tag_511\n      jump\t// in\n    tag_527:\n    tag_525:\n      pop\n      jump\t// out\n        /* \"#utility.yul\":23:980   */\n    tag_529:\n        /* \"#utility.yul\":129:134   */\n      0x00\n        /* \"#utility.yul\":154:245   */\n      tag_531\n        /* \"#utility.yul\":170:244   */\n      tag_532\n        /* \"#utility.yul\":237:243   */\n      dup5\n        /* \"#utility.yul\":170:244   */\n      tag_533\n      jump\t// in\n    tag_532:\n        /* \"#utility.yul\":154:245   */\n      tag_534\n      jump\t// in\n    tag_531:\n        /* \"#utility.yul\":145:245   */\n      swap1\n      pop\n        /* \"#utility.yul\":265:270   */\n      dup1\n        /* \"#utility.yul\":294:300   */\n      dup4\n        /* \"#utility.yul\":287:292   */\n      dup3\n        /* \"#utility.yul\":280:301   */\n      mstore\n        /* \"#utility.yul\":328:332   */\n      0x20\n        /* \"#utility.yul\":321:326   */\n      dup3\n        /* \"#utility.yul\":317:333   */\n      add\n        /* \"#utility.yul\":310:333   */\n      swap1\n      pop\n        /* \"#utility.yul\":354:360   */\n      dup3\n        /* \"#utility.yul\":404:407   */\n      dup6\n        /* \"#utility.yul\":396:400   */\n      0x20\n        /* \"#utility.yul\":388:394   */\n      dup7\n        /* \"#utility.yul\":384:401   */\n      mul\n        /* \"#utility.yul\":379:382   */\n      dup3\n        /* \"#utility.yul\":375:402   */\n      add\n        /* \"#utility.yul\":372:408   */\n      gt\n        /* \"#utility.yul\":369:512   */\n      iszero\n      tag_535\n      jumpi\n        /* \"#utility.yul\":423:502   */\n      tag_536\n      tag_537\n      jump\t// in\n    tag_536:\n        /* \"#utility.yul\":369:512   */\n    tag_535:\n        /* \"#utility.yul\":536:537   */\n      0x00\n        /* \"#utility.yul\":521:974   */\n    tag_538:\n        /* \"#utility.yul\":546:552   */\n      dup6\n        /* \"#utility.yul\":543:544   */\n      dup2\n        /* \"#utility.yul\":540:553   */\n      lt\n        /* \"#utility.yul\":521:974   */\n      iszero\n      tag_540\n      jumpi\n        /* \"#utility.yul\":628:631   */\n      dup2\n        /* \"#utility.yul\":615:632   */\n      calldataload\n        /* \"#utility.yul\":664:682   */\n      0xffffffffffffffff\n        /* \"#utility.yul\":651:662   */\n      dup2\n        /* \"#utility.yul\":648:683   */\n      gt\n        /* \"#utility.yul\":645:767   */\n      iszero\n      tag_541\n      jumpi\n        /* \"#utility.yul\":686:765   */\n      tag_542\n      tag_543\n      jump\t// in\n    tag_542:\n        /* \"#utility.yul\":645:767   */\n    tag_541:\n        /* \"#utility.yul\":810:821   */\n      dup1\n        /* \"#utility.yul\":802:808   */\n      dup7\n        /* \"#utility.yul\":798:822   */\n      add\n        /* \"#utility.yul\":848:895   */\n      tag_544\n        /* \"#utility.yul\":891:894   */\n      dup10\n        /* \"#utility.yul\":879:889   */\n      dup3\n        /* \"#utility.yul\":848:895   */\n      tag_545\n      jump\t// in\n    tag_544:\n        /* \"#utility.yul\":843:846   */\n      dup6\n        /* \"#utility.yul\":836:896   */\n      mstore\n        /* \"#utility.yul\":925:929   */\n      0x20\n        /* \"#utility.yul\":920:923   */\n      dup6\n        /* \"#utility.yul\":916:930   */\n      add\n        /* \"#utility.yul\":909:930   */\n      swap5\n      pop\n        /* \"#utility.yul\":959:963   */\n      0x20\n        /* \"#utility.yul\":954:957   */\n      dup5\n        /* \"#utility.yul\":950:964   */\n      add\n        /* \"#utility.yul\":943:964   */\n      swap4\n      pop\n        /* \"#utility.yul\":581:974   */\n      pop\n      pop\n        /* \"#utility.yul\":568:569   */\n      0x01\n        /* \"#utility.yul\":565:566   */\n      dup2\n        /* \"#utility.yul\":561:570   */\n      add\n        /* \"#utility.yul\":556:570   */\n      swap1\n      pop\n        /* \"#utility.yul\":521:974   */\n      jump(tag_538)\n    tag_540:\n        /* \"#utility.yul\":525:539   */\n      pop\n        /* \"#utility.yul\":135:980   */\n      pop\n      pop\n        /* \"#utility.yul\":23:980   */\n      swap4\n      swap3\n      pop\n      pop\n      pop\n      jump\t// out\n        /* \"#utility.yul\":986:1398   */\n    tag_546:\n        /* \"#utility.yul\":1064:1069   */\n      0x00\n        /* \"#utility.yul\":1089:1155   */\n      tag_548\n        /* \"#utility.yul\":1105:1154   */\n      tag_549\n        /* \"#utility.yul\":1147:1153   */\n      dup5\n        /* \"#utility.yul\":1105:1154   */\n      tag_550\n      jump\t// in\n    tag_549:\n        /* \"#utility.yul\":1089:1155   */\n      tag_534\n      jump\t// in\n    tag_548:\n        /* \"#utility.yul\":1080:1155   */\n      swap1\n      pop\n        /* \"#utility.yul\":1178:1184   */\n      dup3\n        /* \"#utility.yul\":1171:1176   */\n      dup2\n        /* \"#utility.yul\":1164:1185   */\n      mstore\n        /* \"#utility.yul\":1216:1220   */\n      0x20\n        /* \"#utility.yul\":1209:1214   */\n      dup2\n        /* \"#utility.yul\":1205:1221   */\n      add\n        /* \"#utility.yul\":1254:1257   */\n      dup5\n        /* \"#utility.yul\":1245:1251   */\n      dup5\n        /* \"#utility.yul\":1240:1243   */\n      dup5\n        /* \"#utility.yul\":1236:1252   */\n      add\n        /* \"#utility.yul\":1233:1258   */\n      gt\n        /* \"#utility.yul\":1230:1342   */\n      iszero\n      tag_551\n      jumpi\n        /* \"#utility.yul\":1261:1340   */\n      tag_552\n      tag_553\n      jump\t// in\n    tag_552:\n        /* \"#utility.yul\":1230:1342   */\n    tag_551:\n        /* \"#utility.yul\":1351:1392   */\n      tag_554\n        /* \"#utility.yul\":1385:1391   */\n      dup5\n        /* \"#utility.yul\":1380:1383   */\n      dup3\n        /* \"#utility.yul\":1375:1378   */\n      dup6\n        /* \"#utility.yul\":1351:1392   */\n      tag_555\n      jump\t// in\n    tag_554:\n        /* \"#utility.yul\":1070:1398   */\n      pop\n        /* \"#utility.yul\":986:1398   */\n      swap4\n      swap3\n      pop\n      pop\n      pop\n      jump\t// out\n        /* \"#utility.yul\":1404:1543   */\n    tag_556:\n        /* \"#utility.yul\":1450:1455   */\n      0x00\n        /* \"#utility.yul\":1488:1494   */\n      dup2\n        /* \"#utility.yul\":1475:1495   */\n      calldataload\n        /* \"#utility.yul\":1466:1495   */\n      swap1\n      pop\n        /* \"#utility.yul\":1504:1537   */\n      tag_558\n        /* \"#utility.yul\":1531:1536   */\n      dup2\n        /* \"#utility.yul\":1504:1537   */\n      tag_559\n      jump\t// in\n    tag_558:\n        /* \"#utility.yul\":1404:1543   */\n      swap3\n      swap2\n      pop\n      pop\n      jump\t// out\n        /* \"#utility.yul\":1565:1955   */\n    tag_560:\n        /* \"#utility.yul\":1646:1651   */\n      0x00\n        /* \"#utility.yul\":1695:1698   */\n      dup3\n        /* \"#utility.yul\":1688:1692   */\n      0x1f\n        /* \"#utility.yul\":1680:1686   */\n      dup4\n        /* \"#utility.yul\":1676:1693   */\n      add\n        /* \"#utility.yul\":1672:1699   */\n      slt\n        /* \"#utility.yul\":1662:1784   */\n      tag_562\n      jumpi\n        /* \"#utility.yul\":1703:1782   */\n      tag_563\n      tag_543\n      jump\t// in\n    tag_563:\n        /* \"#utility.yul\":1662:1784   */\n    tag_562:\n        /* \"#utility.yul\":1820:1826   */\n      dup2\n        /* \"#utility.yul\":1807:1827   */\n      calldataload\n        /* \"#utility.yul\":1845:1949   */\n      tag_564\n        /* \"#utility.yul\":1945:1948   */\n      dup5\n        /* \"#utility.yul\":1937:1943   */\n      dup3\n        /* \"#utility.yul\":1930:1934   */\n      0x20\n        /* \"#utility.yul\":1922:1928   */\n      dup7\n        /* \"#utility.yul\":1918:1935   */\n      add\n        /* \"#utility.yul\":1845:1949   */\n      tag_529\n      jump\t// in\n    tag_564:\n        /* \"#utility.yul\":1836:1949   */\n      swap2\n      pop\n        /* \"#utility.yul\":1652:1955   */\n      pop\n        /* \"#utility.yul\":1565:1955   */\n      swap3\n      swap2\n      pop\n      pop\n      jump\t// out\n        /* \"#utility.yul\":1961:2094   */\n    tag_565:\n        /* \"#utility.yul\":2004:2009   */\n      0x00\n        /* \"#utility.yul\":2042:2048   */\n      dup2\n        /* \"#utility.yul\":2029:2049   */\n      calldataload\n        /* \"#utility.yul\":2020:2049   */\n      swap1\n      pop\n        /* \"#utility.yul\":2058:2088   */\n      tag_567\n        /* \"#utility.yul\":2082:2087   */\n      dup2\n        /* \"#utility.yul\":2058:2088   */\n      tag_568\n      jump\t// in\n    tag_567:\n        /* \"#utility.yul\":1961:2094   */\n      swap3\n      swap2\n      pop\n      pop\n      jump\t// out\n        /* \"#utility.yul\":2100:2239   */\n    tag_569:\n        /* \"#utility.yul\":2146:2151   */\n      0x00\n        /* \"#utility.yul\":2184:2190   */\n      dup2\n        /* \"#utility.yul\":2171:2191   */\n      calldataload\n        /* \"#utility.yul\":2162:2191   */\n      swap1\n      pop\n        /* \"#utility.yul\":2200:2233   */\n      tag_571\n        /* \"#utility.yul\":2227:2232   */\n      dup2\n        /* \"#utility.yul\":2200:2233   */\n      tag_572\n      jump\t// in\n    tag_571:\n        /* \"#utility.yul\":2100:2239   */\n      swap3\n      swap2\n      pop\n      pop\n      jump\t// out\n        /* \"#utility.yul\":2259:2599   */\n    tag_545:\n        /* \"#utility.yul\":2315:2320   */\n      0x00\n        /* \"#utility.yul\":2364:2367   */\n      dup3\n        /* \"#utility.yul\":2357:2361   */\n      0x1f\n        /* \"#utility.yul\":2349:2355   */\n      dup4\n        /* \"#utility.yul\":2345:2362   */\n      add\n        /* \"#utility.yul\":2341:2368   */\n      slt\n        /* \"#utility.yul\":2331:2453   */\n      tag_574\n      jumpi\n        /* \"#utility.yul\":2372:2451   */\n      tag_575\n      tag_543\n      jump\t// in\n    tag_575:\n        /* \"#utility.yul\":2331:2453   */\n    tag_574:\n        /* \"#utility.yul\":2489:2495   */\n      dup2\n        /* \"#utility.yul\":2476:2496   */\n      calldataload\n        /* \"#utility.yul\":2514:2593   */\n      tag_576\n        /* \"#utility.yul\":2589:2592   */\n      dup5\n        /* \"#utility.yul\":2581:2587   */\n      dup3\n        /* \"#utility.yul\":2574:2578   */\n      0x20\n        /* \"#utility.yul\":2566:2572   */\n      dup7\n        /* \"#utility.yul\":2562:2579   */\n      add\n        /* \"#utility.yul\":2514:2593   */\n      tag_546\n      jump\t// in\n    tag_576:\n        /* \"#utility.yul\":2505:2593   */\n      swap2\n      pop\n        /* \"#utility.yul\":2321:2599   */\n      pop\n        /* \"#utility.yul\":2259:2599   */\n      swap3\n      swap2\n      pop\n      pop\n      jump\t// out\n        /* \"#utility.yul\":2605:2744   */\n    tag_577:\n        /* \"#utility.yul\":2651:2656   */\n      0x00\n        /* \"#utility.yul\":2689:2695   */\n      dup2\n        /* \"#utility.yul\":2676:2696   */\n      calldataload\n        /* \"#utility.yul\":2667:2696   */\n      swap1\n      pop\n        /* \"#utility.yul\":2705:2738   */\n      tag_579\n        /* \"#utility.yul\":2732:2737   */\n      dup2\n        /* \"#utility.yul\":2705:2738   */\n      tag_580\n      jump\t// in\n    tag_579:\n        /* \"#utility.yul\":2605:2744   */\n      swap3\n      swap2\n      pop\n      pop\n      jump\t// out\n        /* \"#utility.yul\":2750:3079   */\n    tag_70:\n        /* \"#utility.yul\":2809:2815   */\n      0x00\n        /* \"#utility.yul\":2858:2860   */\n      0x20\n        /* \"#utility.yul\":2846:2855   */\n      dup3\n        /* \"#utility.yul\":2837:2844   */\n      dup5\n        /* \"#utility.yul\":2833:2856   */\n      sub\n        /* \"#utility.yul\":2829:2861   */\n      slt\n        /* \"#utility.yul\":2826:2945   */\n      iszero\n      tag_582\n      jumpi\n        /* \"#utility.yul\":2864:2943   */\n      tag_583\n      tag_584\n      jump\t// in\n    tag_583:\n        /* \"#utility.yul\":2826:2945   */\n    tag_582:\n        /* \"#utility.yul\":2984:2985   */\n      0x00\n        /* \"#utility.yul\":3009:3062   */\n      tag_585\n        /* \"#utility.yul\":3054:3061   */\n      dup5\n        /* \"#utility.yul\":3045:3051   */\n      dup3\n        /* \"#utility.yul\":3034:3043   */\n      dup6\n        /* \"#utility.yul\":3030:3052   */\n      add\n        /* \"#utility.yul\":3009:3062   */\n      tag_556\n      jump\t// in\n    tag_585:\n        /* \"#utility.yul\":2999:3062   */\n      swap2\n      pop\n        /* \"#utility.yul\":2955:3072   */\n      pop\n        /* \"#utility.yul\":2750:3079   */\n      swap3\n      swap2\n      pop\n      pop\n      jump\t// out\n        /* \"#utility.yul\":3085:3884   */\n    tag_56:\n        /* \"#utility.yul\":3172:3178   */\n      0x00\n        /* \"#utility.yul\":3180:3186   */\n      dup1\n        /* \"#utility.yul\":3188:3194   */\n      0x00\n        /* \"#utility.yul\":3237:3239   */\n      0x60\n        /* \"#utility.yul\":3225:3234   */\n      dup5\n        /* \"#utility.yul\":3216:3223   */\n      dup7\n        /* \"#utility.yul\":3212:3235   */\n      sub\n        /* \"#utility.yul\":3208:3240   */\n      slt\n        /* \"#utility.yul\":3205:3324   */\n      iszero\n      tag_587\n      jumpi\n        /* \"#utility.yul\":3243:3322   */\n      tag_588\n      tag_584\n      jump\t// in\n    tag_588:\n        /* \"#utility.yul\":3205:3324   */\n    tag_587:\n        /* \"#utility.yul\":3363:3364   */\n      0x00\n        /* \"#utility.yul\":3388:3441   */\n      tag_589\n        /* \"#utility.yul\":3433:3440   */\n      dup7\n        /* \"#utility.yul\":3424:3430   */\n      dup3\n        /* \"#utility.yul\":3413:3422   */\n      dup8\n        /* \"#utility.yul\":3409:3431   */\n      add\n        /* \"#utility.yul\":3388:3441   */\n      tag_556\n      jump\t// in\n    tag_589:\n        /* \"#utility.yul\":3378:3441   */\n      swap4\n      pop\n        /* \"#utility.yul\":3334:3451   */\n      pop\n        /* \"#utility.yul\":3518:3520   */\n      0x20\n        /* \"#utility.yul\":3507:3516   */\n      dup5\n        /* \"#utility.yul\":3503:3521   */\n      add\n        /* \"#utility.yul\":3490:3522   */\n      calldataload\n        /* \"#utility.yul\":3549:3567   */\n      0xffffffffffffffff\n        /* \"#utility.yul\":3541:3547   */\n      dup2\n        /* \"#utility.yul\":3538:3568   */\n      gt\n        /* \"#utility.yul\":3535:3652   */\n      iszero\n      tag_590\n      jumpi\n        /* \"#utility.yul\":3571:3650   */\n      tag_591\n      tag_592\n      jump\t// in\n    tag_591:\n        /* \"#utility.yul\":3535:3652   */\n    tag_590:\n        /* \"#utility.yul\":3676:3739   */\n      tag_593\n        /* \"#utility.yul\":3731:3738   */\n      dup7\n        /* \"#utility.yul\":3722:3728   */\n      dup3\n        /* \"#utility.yul\":3711:3720   */\n      dup8\n        /* \"#utility.yul\":3707:3729   */\n      add\n        /* \"#utility.yul\":3676:3739   */\n      tag_545\n      jump\t// in\n    tag_593:\n        /* \"#utility.yul\":3666:3739   */\n      swap3\n      pop\n        /* \"#utility.yul\":3461:3749   */\n      pop\n        /* \"#utility.yul\":3788:3790   */\n      0x40\n        /* \"#utility.yul\":3814:3867   */\n      tag_594\n        /* \"#utility.yul\":3859:3866   */\n      dup7\n        /* \"#utility.yul\":3850:3856   */\n      dup3\n        /* \"#utility.yul\":3839:3848   */\n      dup8\n        /* \"#utility.yul\":3835:3857   */\n      add\n        /* \"#utility.yul\":3814:3867   */\n      tag_569\n      jump\t// in\n    tag_594:\n        /* \"#utility.yul\":3804:3867   */\n      swap2\n      pop\n        /* \"#utility.yul\":3759:3877   */\n      pop\n        /* \"#utility.yul\":3085:3884   */\n      swap3\n      pop\n      swap3\n      pop\n      swap3\n      jump\t// out\n        /* \"#utility.yul\":3890:4399   */\n    tag_45:\n        /* \"#utility.yul\":3959:3965   */\n      0x00\n        /* \"#utility.yul\":4008:4010   */\n      0x20\n        /* \"#utility.yul\":3996:4005   */\n      dup3\n        /* \"#utility.yul\":3987:3994   */\n      dup5\n        /* \"#utility.yul\":3983:4006   */\n      sub\n        /* \"#utility.yul\":3979:4011   */\n      slt\n        /* \"#utility.yul\":3976:4095   */\n      iszero\n      tag_596\n      jumpi\n        /* \"#utility.yul\":4014:4093   */\n      tag_597\n      tag_584\n      jump\t// in\n    tag_597:\n        /* \"#utility.yul\":3976:4095   */\n    tag_596:\n        /* \"#utility.yul\":4162:4163   */\n      0x00\n        /* \"#utility.yul\":4151:4160   */\n      dup3\n        /* \"#utility.yul\":4147:4164   */\n      add\n        /* \"#utility.yul\":4134:4165   */\n      calldataload\n        /* \"#utility.yul\":4192:4210   */\n      0xffffffffffffffff\n        /* \"#utility.yul\":4184:4190   */\n      dup2\n        /* \"#utility.yul\":4181:4211   */\n      gt\n        /* \"#utility.yul\":4178:4295   */\n      iszero\n      tag_598\n      jumpi\n        /* \"#utility.yul\":4214:4293   */\n      tag_599\n      tag_592\n      jump\t// in\n    tag_599:\n        /* \"#utility.yul\":4178:4295   */\n    tag_598:\n        /* \"#utility.yul\":4319:4382   */\n      tag_600\n        /* \"#utility.yul\":4374:4381   */\n      dup5\n        /* \"#utility.yul\":4365:4371   */\n      dup3\n        /* \"#utility.yul\":4354:4363   */\n      dup6\n        /* \"#utility.yul\":4350:4372   */\n      add\n        /* \"#utility.yul\":4319:4382   */\n      tag_545\n      jump\t// in\n    tag_600:\n        /* \"#utility.yul\":4309:4382   */\n      swap2\n      pop\n        /* \"#utility.yul\":4105:4392   */\n      pop\n        /* \"#utility.yul\":3890:4399   */\n      swap3\n      swap2\n      pop\n      pop\n      jump\t// out\n        /* \"#utility.yul\":4405:5289   */\n    tag_81:\n        /* \"#utility.yul\":4518:4524   */\n      0x00\n        /* \"#utility.yul\":4526:4532   */\n      dup1\n        /* \"#utility.yul\":4575:4577   */\n      0x40\n        /* \"#utility.yul\":4563:4572   */\n      dup4\n        /* \"#utility.yul\":4554:4561   */\n      dup6\n        /* \"#utility.yul\":4550:4573   */\n      sub\n        /* \"#utility.yul\":4546:4578   */\n      slt\n        /* \"#utility.yul\":4543:4662   */\n      iszero\n      tag_602\n      jumpi\n        /* \"#utility.yul\":4581:4660   */\n      tag_603\n      tag_584\n      jump\t// in\n    tag_603:\n        /* \"#utility.yul\":4543:4662   */\n    tag_602:\n        /* \"#utility.yul\":4729:4730   */\n      0x00\n        /* \"#utility.yul\":4718:4727   */\n      dup4\n        /* \"#utility.yul\":4714:4731   */\n      add\n        /* \"#utility.yul\":4701:4732   */\n      calldataload\n        /* \"#utility.yul\":4759:4777   */\n      0xffffffffffffffff\n        /* \"#utility.yul\":4751:4757   */\n      dup2\n        /* \"#utility.yul\":4748:4778   */\n      gt\n        /* \"#utility.yul\":4745:4862   */\n      iszero\n      tag_604\n      jumpi\n        /* \"#utility.yul\":4781:4860   */\n      tag_605\n      tag_592\n      jump\t// in\n    tag_605:\n        /* \"#utility.yul\":4745:4862   */\n    tag_604:\n        /* \"#utility.yul\":4886:4949   */\n      tag_606\n        /* \"#utility.yul\":4941:4948   */\n      dup6\n        /* \"#utility.yul\":4932:4938   */\n      dup3\n        /* \"#utility.yul\":4921:4930   */\n      dup7\n        /* \"#utility.yul\":4917:4939   */\n      add\n        /* \"#utility.yul\":4886:4949   */\n      tag_545\n      jump\t// in\n    tag_606:\n        /* \"#utility.yul\":4876:4949   */\n      swap3\n      pop\n        /* \"#utility.yul\":4672:4959   */\n      pop\n        /* \"#utility.yul\":5026:5028   */\n      0x20\n        /* \"#utility.yul\":5015:5024   */\n      dup4\n        /* \"#utility.yul\":5011:5029   */\n      add\n        /* \"#utility.yul\":4998:5030   */\n      calldataload\n        /* \"#utility.yul\":5057:5075   */\n      0xffffffffffffffff\n        /* \"#utility.yul\":5049:5055   */\n      dup2\n        /* \"#utility.yul\":5046:5076   */\n      gt\n        /* \"#utility.yul\":5043:5160   */\n      iszero\n      tag_607\n      jumpi\n        /* \"#utility.yul\":5079:5158   */\n      tag_608\n      tag_592\n      jump\t// in\n    tag_608:\n        /* \"#utility.yul\":5043:5160   */\n    tag_607:\n        /* \"#utility.yul\":5184:5272   */\n      tag_609\n        /* \"#utility.yul\":5264:5271   */\n      dup6\n        /* \"#utility.yul\":5255:5261   */\n      dup3\n        /* \"#utility.yul\":5244:5253   */\n      dup7\n        /* \"#utility.yul\":5240:5262   */\n      add\n        /* \"#utility.yul\":5184:5272   */\n      tag_560\n      jump\t// in\n    tag_609:\n        /* \"#utility.yul\":5174:5272   */\n      swap2\n      pop\n        /* \"#utility.yul\":4969:5282   */\n      pop\n        /* \"#utility.yul\":4405:5289   */\n      swap3\n      pop\n      swap3\n      swap1\n      pop\n      jump\t// out\n        /* \"#utility.yul\":5295:5949   */\n    tag_141:\n        /* \"#utility.yul\":5373:5379   */\n      0x00\n        /* \"#utility.yul\":5381:5387   */\n      dup1\n        /* \"#utility.yul\":5430:5432   */\n      0x40\n        /* \"#utility.yul\":5418:5427   */\n      dup4\n        /* \"#utility.yul\":5409:5416   */\n      dup6\n        /* \"#utility.yul\":5405:5428   */\n      sub\n        /* \"#utility.yul\":5401:5433   */\n      slt\n        /* \"#utility.yul\":5398:5517   */\n      iszero\n      tag_611\n      jumpi\n        /* \"#utility.yul\":5436:5515   */\n      tag_612\n      tag_584\n      jump\t// in\n    tag_612:\n        /* \"#utility.yul\":5398:5517   */\n    tag_611:\n        /* \"#utility.yul\":5584:5585   */\n      0x00\n        /* \"#utility.yul\":5573:5582   */\n      dup4\n        /* \"#utility.yul\":5569:5586   */\n      add\n        /* \"#utility.yul\":5556:5587   */\n      calldataload\n        /* \"#utility.yul\":5614:5632   */\n      0xffffffffffffffff\n        /* \"#utility.yul\":5606:5612   */\n      dup2\n        /* \"#utility.yul\":5603:5633   */\n      gt\n        /* \"#utility.yul\":5600:5717   */\n      iszero\n      tag_613\n      jumpi\n        /* \"#utility.yul\":5636:5715   */\n      tag_614\n      tag_592\n      jump\t// in\n    tag_614:\n        /* \"#utility.yul\":5600:5717   */\n    tag_613:\n        /* \"#utility.yul\":5741:5804   */\n      tag_615\n        /* \"#utility.yul\":5796:5803   */\n      dup6\n        /* \"#utility.yul\":5787:5793   */\n      dup3\n        /* \"#utility.yul\":5776:5785   */\n      dup7\n        /* \"#utility.yul\":5772:5794   */\n      add\n        /* \"#utility.yul\":5741:5804   */\n      tag_545\n      jump\t// in\n    tag_615:\n        /* \"#utility.yul\":5731:5804   */\n      swap3\n      pop\n        /* \"#utility.yul\":5527:5814   */\n      pop\n        /* \"#utility.yul\":5853:5855   */\n      0x20\n        /* \"#utility.yul\":5879:5932   */\n      tag_616\n        /* \"#utility.yul\":5924:5931   */\n      dup6\n        /* \"#utility.yul\":5915:5921   */\n      dup3\n        /* \"#utility.yul\":5904:5913   */\n      dup7\n        /* \"#utility.yul\":5900:5922   */\n      add\n        /* \"#utility.yul\":5879:5932   */\n      tag_569\n      jump\t// in\n    tag_616:\n        /* \"#utility.yul\":5869:5932   */\n      swap2\n      pop\n        /* \"#utility.yul\":5824:5942   */\n      pop\n        /* \"#utility.yul\":5295:5949   */\n      swap3\n      pop\n      swap3\n      swap1\n      pop\n      jump\t// out\n        /* \"#utility.yul\":5955:6934   */\n    tag_187:\n        /* \"#utility.yul\":6052:6058   */\n      0x00\n        /* \"#utility.yul\":6060:6066   */\n      dup1\n        /* \"#utility.yul\":6068:6074   */\n      0x00\n        /* \"#utility.yul\":6117:6119   */\n      0x60\n        /* \"#utility.yul\":6105:6114   */\n      dup5\n        /* \"#utility.yul\":6096:6103   */\n      dup7\n        /* \"#utility.yul\":6092:6115   */\n      sub\n        /* \"#utility.yul\":6088:6120   */\n      slt\n        /* \"#utility.yul\":6085:6204   */\n      iszero\n      tag_618\n      jumpi\n        /* \"#utility.yul\":6123:6202   */\n      tag_619\n      tag_584\n      jump\t// in\n    tag_619:\n        /* \"#utility.yul\":6085:6204   */\n    tag_618:\n        /* \"#utility.yul\":6271:6272   */\n      0x00\n        /* \"#utility.yul\":6260:6269   */\n      dup5\n        /* \"#utility.yul\":6256:6273   */\n      add\n        /* \"#utility.yul\":6243:6274   */\n      calldataload\n        /* \"#utility.yul\":6301:6319   */\n      0xffffffffffffffff\n        /* \"#utility.yul\":6293:6299   */\n      dup2\n        /* \"#utility.yul\":6290:6320   */\n      gt\n        /* \"#utility.yul\":6287:6404   */\n      iszero\n      tag_620\n      jumpi\n        /* \"#utility.yul\":6323:6402   */\n      tag_621\n      tag_592\n      jump\t// in\n    tag_621:\n        /* \"#utility.yul\":6287:6404   */\n    tag_620:\n        /* \"#utility.yul\":6428:6491   */\n      tag_622\n        /* \"#utility.yul\":6483:6490   */\n      dup7\n        /* \"#utility.yul\":6474:6480   */\n      dup3\n        /* \"#utility.yul\":6463:6472   */\n      dup8\n        /* \"#utility.yul\":6459:6481   */\n      add\n        /* \"#utility.yul\":6428:6491   */\n      tag_545\n      jump\t// in\n    tag_622:\n        /* \"#utility.yul\":6418:6491   */\n      swap4\n      pop\n        /* \"#utility.yul\":6214:6501   */\n      pop\n        /* \"#utility.yul\":6568:6570   */\n      0x20\n        /* \"#utility.yul\":6557:6566   */\n      dup5\n        /* \"#utility.yul\":6553:6571   */\n      add\n        /* \"#utility.yul\":6540:6572   */\n      calldataload\n        /* \"#utility.yul\":6599:6617   */\n      0xffffffffffffffff\n        /* \"#utility.yul\":6591:6597   */\n      dup2\n        /* \"#utility.yul\":6588:6618   */\n      gt\n        /* \"#utility.yul\":6585:6702   */\n      iszero\n      tag_623\n      jumpi\n        /* \"#utility.yul\":6621:6700   */\n      tag_624\n      tag_592\n      jump\t// in\n    tag_624:\n        /* \"#utility.yul\":6585:6702   */\n    tag_623:\n        /* \"#utility.yul\":6726:6789   */\n      tag_625\n        /* \"#utility.yul\":6781:6788   */\n      dup7\n        /* \"#utility.yul\":6772:6778   */\n      dup3\n        /* \"#utility.yul\":6761:6770   */\n      dup8\n        /* \"#utility.yul\":6757:6779   */\n      add\n        /* \"#utility.yul\":6726:6789   */\n      tag_545\n      jump\t// in\n    tag_625:\n        /* \"#utility.yul\":6716:6789   */\n      swap3\n      pop\n        /* \"#utility.yul\":6511:6799   */\n      pop\n        /* \"#utility.yul\":6838:6840   */\n      0x40\n        /* \"#utility.yul\":6864:6917   */\n      tag_626\n        /* \"#utility.yul\":6909:6916   */\n      dup7\n        /* \"#utility.yul\":6900:6906   */\n      dup3\n        /* \"#utility.yul\":6889:6898   */\n      dup8\n        /* \"#utility.yul\":6885:6907   */\n      add\n        /* \"#utility.yul\":6864:6917   */\n      tag_577\n      jump\t// in\n    tag_626:\n        /* \"#utility.yul\":6854:6917   */\n      swap2\n      pop\n        /* \"#utility.yul\":6809:6927   */\n      pop\n        /* \"#utility.yul\":5955:6934   */\n      swap3\n      pop\n      swap3\n      pop\n      swap3\n      jump\t// out\n        /* \"#utility.yul\":6940:7919   */\n    tag_129:\n        /* \"#utility.yul\":7037:7043   */\n      0x00\n        /* \"#utility.yul\":7045:7051   */\n      dup1\n        /* \"#utility.yul\":7053:7059   */\n      0x00\n        /* \"#utility.yul\":7102:7104   */\n      0x60\n        /* \"#utility.yul\":7090:7099   */\n      dup5\n        /* \"#utility.yul\":7081:7088   */\n      dup7\n        /* \"#utility.yul\":7077:7100   */\n      sub\n        /* \"#utility.yul\":7073:7105   */\n      slt\n        /* \"#utility.yul\":7070:7189   */\n      iszero\n      tag_628\n      jumpi\n        /* \"#utility.yul\":7108:7187   */\n      tag_629\n      tag_584\n      jump\t// in\n    tag_629:\n        /* \"#utility.yul\":7070:7189   */\n    tag_628:\n        /* \"#utility.yul\":7256:7257   */\n      0x00\n        /* \"#utility.yul\":7245:7254   */\n      dup5\n        /* \"#utility.yul\":7241:7258   */\n      add\n        /* \"#utility.yul\":7228:7259   */\n      calldataload\n        /* \"#utility.yul\":7286:7304   */\n      0xffffffffffffffff\n        /* \"#utility.yul\":7278:7284   */\n      dup2\n        /* \"#utility.yul\":7275:7305   */\n      gt\n        /* \"#utility.yul\":7272:7389   */\n      iszero\n      tag_630\n      jumpi\n        /* \"#utility.yul\":7308:7387   */\n      tag_631\n      tag_592\n      jump\t// in\n    tag_631:\n        /* \"#utility.yul\":7272:7389   */\n    tag_630:\n        /* \"#utility.yul\":7413:7476   */\n      tag_632\n        /* \"#utility.yul\":7468:7475   */\n      dup7\n        /* \"#utility.yul\":7459:7465   */\n      dup3\n        /* \"#utility.yul\":7448:7457   */\n      dup8\n        /* \"#utility.yul\":7444:7466   */\n      add\n        /* \"#utility.yul\":7413:7476   */\n      tag_545\n      jump\t// in\n    tag_632:\n        /* \"#utility.yul\":7403:7476   */\n      swap4\n      pop\n        /* \"#utility.yul\":7199:7486   */\n      pop\n        /* \"#utility.yul\":7525:7527   */\n      0x20\n        /* \"#utility.yul\":7551:7604   */\n      tag_633\n        /* \"#utility.yul\":7596:7603   */\n      dup7\n        /* \"#utility.yul\":7587:7593   */\n      dup3\n        /* \"#utility.yul\":7576:7585   */\n      dup8\n        /* \"#utility.yul\":7572:7594   */\n      add\n        /* \"#utility.yul\":7551:7604   */\n      tag_577\n      jump\t// in\n    tag_633:\n        /* \"#utility.yul\":7541:7604   */\n      swap3\n      pop\n        /* \"#utility.yul\":7496:7614   */\n      pop\n        /* \"#utility.yul\":7681:7683   */\n      0x40\n        /* \"#utility.yul\":7670:7679   */\n      dup5\n        /* \"#utility.yul\":7666:7684   */\n      add\n        /* \"#utility.yul\":7653:7685   */\n      calldataload\n        /* \"#utility.yul\":7712:7730   */\n      0xffffffffffffffff\n        /* \"#utility.yul\":7704:7710   */\n      dup2\n        /* \"#utility.yul\":7701:7731   */\n      gt\n        /* \"#utility.yul\":7698:7815   */\n      iszero\n      tag_634\n      jumpi\n        /* \"#utility.yul\":7734:7813   */\n      tag_635\n      tag_592\n      jump\t// in\n    tag_635:\n        /* \"#utility.yul\":7698:7815   */\n    tag_634:\n        /* \"#utility.yul\":7839:7902   */\n      tag_636\n        /* \"#utility.yul\":7894:7901   */\n      dup7\n        /* \"#utility.yul\":7885:7891   */\n      dup3\n        /* \"#utility.yul\":7874:7883   */\n      dup8\n        /* \"#utility.yul\":7870:7892   */\n      add\n        /* \"#utility.yul\":7839:7902   */\n      tag_545\n      jump\t// in\n    tag_636:\n        /* \"#utility.yul\":7829:7902   */\n      swap2\n      pop\n        /* \"#utility.yul\":7624:7912   */\n      pop\n        /* \"#utility.yul\":6940:7919   */\n      swap3\n      pop\n      swap3\n      pop\n      swap3\n      jump\t// out\n        /* \"#utility.yul\":7925:8254   */\n    tag_134:\n        /* \"#utility.yul\":7984:7990   */\n      0x00\n        /* \"#utility.yul\":8033:8035   */\n      0x20\n        /* \"#utility.yul\":8021:8030   */\n      dup3\n        /* \"#utility.yul\":8012:8019   */\n      dup5\n        /* \"#utility.yul\":8008:8031   */\n      sub\n        /* \"#utility.yul\":8004:8036   */\n      slt\n        /* \"#utility.yul\":8001:8120   */\n      iszero\n      tag_638\n      jumpi\n        /* \"#utility.yul\":8039:8118   */\n      tag_639\n      tag_584\n      jump\t// in\n    tag_639:\n        /* \"#utility.yul\":8001:8120   */\n    tag_638:\n        /* \"#utility.yul\":8159:8160   */\n      0x00\n        /* \"#utility.yul\":8184:8237   */\n      tag_640\n        /* \"#utility.yul\":8229:8236   */\n      dup5\n        /* \"#utility.yul\":8220:8226   */\n      dup3\n        /* \"#utility.yul\":8209:8218   */\n      dup6\n        /* \"#utility.yul\":8205:8227   */\n      add\n        /* \"#utility.yul\":8184:8237   */\n      tag_577\n      jump\t// in\n    tag_640:\n        /* \"#utility.yul\":8174:8237   */\n      swap2\n      pop\n        /* \"#utility.yul\":8130:8247   */\n      pop\n        /* \"#utility.yul\":7925:8254   */\n      swap3\n      swap2\n      pop\n      pop\n      jump\t// out\n        /* \"#utility.yul\":8260:8728   */\n    tag_85:\n        /* \"#utility.yul\":8325:8331   */\n      0x00\n        /* \"#utility.yul\":8333:8339   */\n      dup1\n        /* \"#utility.yul\":8382:8384   */\n      0x40\n        /* \"#utility.yul\":8370:8379   */\n      dup4\n        /* \"#utility.yul\":8361:8368   */\n      dup6\n        /* \"#utility.yul\":8357:8380   */\n      sub\n        /* \"#utility.yul\":8353:8385   */\n      slt\n        /* \"#utility.yul\":8350:8469   */\n      iszero\n      tag_642\n      jumpi\n        /* \"#utility.yul\":8388:8467   */\n      tag_643\n      tag_584\n      jump\t// in\n    tag_643:\n        /* \"#utility.yul\":8350:8469   */\n    tag_642:\n        /* \"#utility.yul\":8508:8509   */\n      0x00\n        /* \"#utility.yul\":8533:8586   */\n      tag_644\n        /* \"#utility.yul\":8578:8585   */\n      dup6\n        /* \"#utility.yul\":8569:8575   */\n      dup3\n        /* \"#utility.yul\":8558:8567   */\n      dup7\n        /* \"#utility.yul\":8554:8576   */\n      add\n        /* \"#utility.yul\":8533:8586   */\n      tag_577\n      jump\t// in\n    tag_644:\n        /* \"#utility.yul\":8523:8586   */\n      swap3\n      pop\n        /* \"#utility.yul\":8479:8596   */\n      pop\n        /* \"#utility.yul\":8635:8637   */\n      0x20\n        /* \"#utility.yul\":8661:8711   */\n      tag_645\n        /* \"#utility.yul\":8703:8710   */\n      dup6\n        /* \"#utility.yul\":8694:8700   */\n      dup3\n        /* \"#utility.yul\":8683:8692   */\n      dup7\n        /* \"#utility.yul\":8679:8701   */\n      add\n        /* \"#utility.yul\":8661:8711   */\n      tag_565\n      jump\t// in\n    tag_645:\n        /* \"#utility.yul\":8651:8711   */\n      swap2\n      pop\n        /* \"#utility.yul\":8606:8721   */\n      pop\n        /* \"#utility.yul\":8260:8728   */\n      swap3\n      pop\n      swap3\n      swap1\n      pop\n      jump\t// out\n        /* \"#utility.yul\":8734:9208   */\n    tag_207:\n        /* \"#utility.yul\":8802:8808   */\n      0x00\n        /* \"#utility.yul\":8810:8816   */\n      dup1\n        /* \"#utility.yul\":8859:8861   */\n      0x40\n        /* \"#utility.yul\":8847:8856   */\n      dup4\n        /* \"#utility.yul\":8838:8845   */\n      dup6\n        /* \"#utility.yul\":8834:8857   */\n      sub\n        /* \"#utility.yul\":8830:8862   */\n      slt\n        /* \"#utility.yul\":8827:8946   */\n      iszero\n      tag_647\n      jumpi\n        /* \"#utility.yul\":8865:8944   */\n      tag_648\n      tag_584\n      jump\t// in\n    tag_648:\n        /* \"#utility.yul\":8827:8946   */\n    tag_647:\n        /* \"#utility.yul\":8985:8986   */\n      0x00\n        /* \"#utility.yul\":9010:9063   */\n      tag_649\n        /* \"#utility.yul\":9055:9062   */\n      dup6\n        /* \"#utility.yul\":9046:9052   */\n      dup3\n        /* \"#utility.yul\":9035:9044   */\n      dup7\n        /* \"#utility.yul\":9031:9053   */\n      add\n        /* \"#utility.yul\":9010:9063   */\n      tag_577\n      jump\t// in\n    tag_649:\n        /* \"#utility.yul\":9000:9063   */\n      swap3\n      pop\n        /* \"#utility.yul\":8956:9073   */\n      pop\n        /* \"#utility.yul\":9112:9114   */\n      0x20\n        /* \"#utility.yul\":9138:9191   */\n      tag_650\n        /* \"#utility.yul\":9183:9190   */\n      dup6\n        /* \"#utility.yul\":9174:9180   */\n      dup3\n        /* \"#utility.yul\":9163:9172   */\n      dup7\n        /* \"#utility.yul\":9159:9181   */\n      add\n        /* \"#utility.yul\":9138:9191   */\n      tag_577\n      jump\t// in\n    tag_650:\n        /* \"#utility.yul\":9128:9191   */\n      swap2\n      pop\n        /* \"#utility.yul\":9083:9201   */\n      pop\n        /* \"#utility.yul\":8734:9208   */\n      swap3\n      pop\n      swap3\n      swap1\n      pop\n      jump\t// out\n        /* \"#utility.yul\":9214:9410   */\n    tag_651:\n        /* \"#utility.yul\":9303:9313   */\n      0x00\n        /* \"#utility.yul\":9338:9404   */\n      tag_653\n        /* \"#utility.yul\":9400:9403   */\n      dup4\n        /* \"#utility.yul\":9392:9398   */\n      dup4\n        /* \"#utility.yul\":9338:9404   */\n      tag_654\n      jump\t// in\n    tag_653:\n        /* \"#utility.yul\":9324:9404   */\n      swap1\n      pop\n        /* \"#utility.yul\":9214:9410   */\n      swap3\n      swap2\n      pop\n      pop\n      jump\t// out\n        /* \"#utility.yul\":9416:9534   */\n    tag_655:\n        /* \"#utility.yul\":9503:9527   */\n      tag_657\n        /* \"#utility.yul\":9521:9526   */\n      dup2\n        /* \"#utility.yul\":9503:9527   */\n      tag_658\n      jump\t// in\n    tag_657:\n        /* \"#utility.yul\":9498:9501   */\n      dup3\n        /* \"#utility.yul\":9491:9528   */\n      mstore\n        /* \"#utility.yul\":9416:9534   */\n      pop\n      pop\n      jump\t// out\n        /* \"#utility.yul\":9568:10559   */\n    tag_659:\n        /* \"#utility.yul\":9707:9710   */\n      0x00\n        /* \"#utility.yul\":9736:9800   */\n      tag_661\n        /* \"#utility.yul\":9794:9799   */\n      dup3\n        /* \"#utility.yul\":9736:9800   */\n      tag_662\n      jump\t// in\n    tag_661:\n        /* \"#utility.yul\":9816:9912   */\n      tag_663\n        /* \"#utility.yul\":9905:9911   */\n      dup2\n        /* \"#utility.yul\":9900:9903   */\n      dup6\n        /* \"#utility.yul\":9816:9912   */\n      tag_664\n      jump\t// in\n    tag_663:\n        /* \"#utility.yul\":9809:9912   */\n      swap4\n      pop\n        /* \"#utility.yul\":9938:9941   */\n      dup4\n        /* \"#utility.yul\":9983:9987   */\n      0x20\n        /* \"#utility.yul\":9975:9981   */\n      dup3\n        /* \"#utility.yul\":9971:9988   */\n      mul\n        /* \"#utility.yul\":9966:9969   */\n      dup6\n        /* \"#utility.yul\":9962:9989   */\n      add\n        /* \"#utility.yul\":10013:10079   */\n      tag_665\n        /* \"#utility.yul\":10073:10078   */\n      dup6\n        /* \"#utility.yul\":10013:10079   */\n      tag_666\n      jump\t// in\n    tag_665:\n        /* \"#utility.yul\":10102:10109   */\n      dup1\n        /* \"#utility.yul\":10133:10134   */\n      0x00\n        /* \"#utility.yul\":10118:10514   */\n    tag_667:\n        /* \"#utility.yul\":10143:10149   */\n      dup6\n        /* \"#utility.yul\":10140:10141   */\n      dup2\n        /* \"#utility.yul\":10137:10150   */\n      lt\n        /* \"#utility.yul\":10118:10514   */\n      iszero\n      tag_669\n      jumpi\n        /* \"#utility.yul\":10214:10223   */\n      dup5\n        /* \"#utility.yul\":10208:10212   */\n      dup5\n        /* \"#utility.yul\":10204:10224   */\n      sub\n        /* \"#utility.yul\":10199:10202   */\n      dup10\n        /* \"#utility.yul\":10192:10225   */\n      mstore\n        /* \"#utility.yul\":10265:10271   */\n      dup2\n        /* \"#utility.yul\":10259:10272   */\n      mload\n        /* \"#utility.yul\":10293:10377   */\n      tag_670\n        /* \"#utility.yul\":10372:10376   */\n      dup6\n        /* \"#utility.yul\":10357:10370   */\n      dup3\n        /* \"#utility.yul\":10293:10377   */\n      tag_651\n      jump\t// in\n    tag_670:\n        /* \"#utility.yul\":10285:10377   */\n      swap5\n      pop\n        /* \"#utility.yul\":10400:10470   */\n      tag_671\n        /* \"#utility.yul\":10463:10469   */\n      dup4\n        /* \"#utility.yul\":10400:10470   */\n      tag_672\n      jump\t// in\n    tag_671:\n        /* \"#utility.yul\":10390:10470   */\n      swap3\n      pop\n        /* \"#utility.yul\":10499:10503   */\n      0x20\n        /* \"#utility.yul\":10494:10497   */\n      dup11\n        /* \"#utility.yul\":10490:10504   */\n      add\n        /* \"#utility.yul\":10483:10504   */\n      swap10\n      pop\n        /* \"#utility.yul\":10178:10514   */\n      pop\n        /* \"#utility.yul\":10165:10166   */\n      0x01\n        /* \"#utility.yul\":10162:10163   */\n      dup2\n        /* \"#utility.yul\":10158:10167   */\n      add\n        /* \"#utility.yul\":10153:10167   */\n      swap1\n      pop\n        /* \"#utility.yul\":10118:10514   */\n      jump(tag_667)\n    tag_669:\n        /* \"#utility.yul\":10122:10136   */\n      pop\n        /* \"#utility.yul\":10530:10534   */\n      dup3\n        /* \"#utility.yul\":10523:10534   */\n      swap8\n      pop\n        /* \"#utility.yul\":10550:10553   */\n      dup8\n        /* \"#utility.yul\":10543:10553   */\n      swap6\n      pop\n        /* \"#utility.yul\":9712:10559   */\n      pop\n      pop\n      pop\n      pop\n      pop\n        /* \"#utility.yul\":9568:10559   */\n      swap3\n      swap2\n      pop\n      pop\n      jump\t// out\n        /* \"#utility.yul\":10565:10674   */\n    tag_673:\n        /* \"#utility.yul\":10646:10667   */\n      tag_675\n        /* \"#utility.yul\":10661:10666   */\n      dup2\n        /* \"#utility.yul\":10646:10667   */\n      tag_676\n      jump\t// in\n    tag_675:\n        /* \"#utility.yul\":10641:10644   */\n      dup3\n        /* \"#utility.yul\":10634:10668   */\n      mstore\n        /* \"#utility.yul\":10565:10674   */\n      pop\n      pop\n      jump\t// out\n        /* \"#utility.yul\":10680:10798   */\n    tag_677:\n        /* \"#utility.yul\":10767:10791   */\n      tag_679\n        /* \"#utility.yul\":10785:10790   */\n      dup2\n        /* \"#utility.yul\":10767:10791   */\n      tag_680\n      jump\t// in\n    tag_679:\n        /* \"#utility.yul\":10762:10765   */\n      dup3\n        /* \"#utility.yul\":10755:10792   */\n      mstore\n        /* \"#utility.yul\":10680:10798   */\n      pop\n      pop\n      jump\t// out\n        /* \"#utility.yul\":10804:11148   */\n    tag_654:\n        /* \"#utility.yul\":10882:10885   */\n      0x00\n        /* \"#utility.yul\":10910:10949   */\n      tag_682\n        /* \"#utility.yul\":10943:10948   */\n      dup3\n        /* \"#utility.yul\":10910:10949   */\n      tag_683\n      jump\t// in\n    tag_682:\n        /* \"#utility.yul\":10965:11026   */\n      tag_684\n        /* \"#utility.yul\":11019:11025   */\n      dup2\n        /* \"#utility.yul\":11014:11017   */\n      dup6\n        /* \"#utility.yul\":10965:11026   */\n      tag_685\n      jump\t// in\n    tag_684:\n        /* \"#utility.yul\":10958:11026   */\n      swap4\n      pop\n        /* \"#utility.yul\":11035:11087   */\n      tag_686\n        /* \"#utility.yul\":11080:11086   */\n      dup2\n        /* \"#utility.yul\":11075:11078   */\n      dup6\n        /* \"#utility.yul\":11068:11072   */\n      0x20\n        /* \"#utility.yul\":11061:11066   */\n      dup7\n        /* \"#utility.yul\":11057:11073   */\n      add\n        /* \"#utility.yul\":11035:11087   */\n      tag_687\n      jump\t// in\n    tag_686:\n        /* \"#utility.yul\":11112:11141   */\n      tag_688\n        /* \"#utility.yul\":11134:11140   */\n      dup2\n        /* \"#utility.yul\":11112:11141   */\n      tag_689\n      jump\t// in\n    tag_688:\n        /* \"#utility.yul\":11107:11110   */\n      dup5\n        /* \"#utility.yul\":11103:11142   */\n      add\n        /* \"#utility.yul\":11096:11142   */\n      swap2\n      pop\n        /* \"#utility.yul\":10886:11148   */\n      pop\n        /* \"#utility.yul\":10804:11148   */\n      swap3\n      swap2\n      pop\n      pop\n      jump\t// out\n        /* \"#utility.yul\":11154:11518   */\n    tag_690:\n        /* \"#utility.yul\":11242:11245   */\n      0x00\n        /* \"#utility.yul\":11270:11309   */\n      tag_692\n        /* \"#utility.yul\":11303:11308   */\n      dup3\n        /* \"#utility.yul\":11270:11309   */\n      tag_683\n      jump\t// in\n    tag_692:\n        /* \"#utility.yul\":11325:11396   */\n      tag_693\n        /* \"#utility.yul\":11389:11395   */\n      dup2\n        /* \"#utility.yul\":11384:11387   */\n      dup6\n        /* \"#utility.yul\":11325:11396   */\n      tag_694\n      jump\t// in\n    tag_693:\n        /* \"#utility.yul\":11318:11396   */\n      swap4\n      pop\n        /* \"#utility.yul\":11405:11457   */\n      tag_695\n        /* \"#utility.yul\":11450:11456   */\n      dup2\n        /* \"#utility.yul\":11445:11448   */\n      dup6\n        /* \"#utility.yul\":11438:11442   */\n      0x20\n        /* \"#utility.yul\":11431:11436   */\n      dup7\n        /* \"#utility.yul\":11427:11443   */\n      add\n        /* \"#utility.yul\":11405:11457   */\n      tag_687\n      jump\t// in\n    tag_695:\n        /* \"#utility.yul\":11482:11511   */\n      tag_696\n        /* \"#utility.yul\":11504:11510   */\n      dup2\n        /* \"#utility.yul\":11482:11511   */\n      tag_689\n      jump\t// in\n    tag_696:\n        /* \"#utility.yul\":11477:11480   */\n      dup5\n        /* \"#utility.yul\":11473:11512   */\n      add\n        /* \"#utility.yul\":11466:11512   */\n      swap2\n      pop\n        /* \"#utility.yul\":11246:11518   */\n      pop\n        /* \"#utility.yul\":11154:11518   */\n      swap3\n      swap2\n      pop\n      pop\n      jump\t// out\n        /* \"#utility.yul\":11524:11901   */\n    tag_697:\n        /* \"#utility.yul\":11630:11633   */\n      0x00\n        /* \"#utility.yul\":11658:11697   */\n      tag_699\n        /* \"#utility.yul\":11691:11696   */\n      dup3\n        /* \"#utility.yul\":11658:11697   */\n      tag_683\n      jump\t// in\n    tag_699:\n        /* \"#utility.yul\":11713:11802   */\n      tag_700\n        /* \"#utility.yul\":11795:11801   */\n      dup2\n        /* \"#utility.yul\":11790:11793   */\n      dup6\n        /* \"#utility.yul\":11713:11802   */\n      tag_701\n      jump\t// in\n    tag_700:\n        /* \"#utility.yul\":11706:11802   */\n      swap4\n      pop\n        /* \"#utility.yul\":11811:11863   */\n      tag_702\n        /* \"#utility.yul\":11856:11862   */\n      dup2\n        /* \"#utility.yul\":11851:11854   */\n      dup6\n        /* \"#utility.yul\":11844:11848   */\n      0x20\n        /* \"#utility.yul\":11837:11842   */\n      dup7\n        /* \"#utility.yul\":11833:11849   */\n      add\n        /* \"#utility.yul\":11811:11863   */\n      tag_687\n      jump\t// in\n    tag_702:\n        /* \"#utility.yul\":11888:11894   */\n      dup1\n        /* \"#utility.yul\":11883:11886   */\n      dup5\n        /* \"#utility.yul\":11879:11895   */\n      add\n        /* \"#utility.yul\":11872:11895   */\n      swap2\n      pop\n        /* \"#utility.yul\":11634:11901   */\n      pop\n        /* \"#utility.yul\":11524:11901   */\n      swap3\n      swap2\n      pop\n      pop\n      jump\t// out\n        /* \"#utility.yul\":11931:12776   */\n    tag_703:\n        /* \"#utility.yul\":12034:12037   */\n      0x00\n        /* \"#utility.yul\":12071:12076   */\n      dup2\n        /* \"#utility.yul\":12065:12077   */\n      sload\n        /* \"#utility.yul\":12100:12136   */\n      tag_705\n        /* \"#utility.yul\":12126:12135   */\n      dup2\n        /* \"#utility.yul\":12100:12136   */\n      tag_236\n      jump\t// in\n    tag_705:\n        /* \"#utility.yul\":12152:12241   */\n      tag_706\n        /* \"#utility.yul\":12234:12240   */\n      dup2\n        /* \"#utility.yul\":12229:12232   */\n      dup7\n        /* \"#utility.yul\":12152:12241   */\n      tag_701\n      jump\t// in\n    tag_706:\n        /* \"#utility.yul\":12145:12241   */\n      swap5\n      pop\n        /* \"#utility.yul\":12272:12273   */\n      0x01\n        /* \"#utility.yul\":12261:12270   */\n      dup3\n        /* \"#utility.yul\":12257:12274   */\n      and\n        /* \"#utility.yul\":12288:12289   */\n      0x00\n        /* \"#utility.yul\":12283:12420   */\n      dup2\n      eq\n      tag_708\n      jumpi\n        /* \"#utility.yul\":12434:12435   */\n      0x01\n        /* \"#utility.yul\":12429:12770   */\n      dup2\n      eq\n      tag_709\n      jumpi\n        /* \"#utility.yul\":12250:12770   */\n      jump(tag_707)\n        /* \"#utility.yul\":12283:12420   */\n    tag_708:\n        /* \"#utility.yul\":12367:12371   */\n      0xff\n        /* \"#utility.yul\":12363:12372   */\n      not\n        /* \"#utility.yul\":12352:12361   */\n      dup4\n        /* \"#utility.yul\":12348:12373   */\n      and\n        /* \"#utility.yul\":12343:12346   */\n      dup7\n        /* \"#utility.yul\":12336:12374   */\n      mstore\n        /* \"#utility.yul\":12403:12409   */\n      dup2\n        /* \"#utility.yul\":12398:12401   */\n      dup7\n        /* \"#utility.yul\":12394:12410   */\n      add\n        /* \"#utility.yul\":12387:12410   */\n      swap4\n      pop\n        /* \"#utility.yul\":12283:12420   */\n      jump(tag_707)\n        /* \"#utility.yul\":12429:12770   */\n    tag_709:\n        /* \"#utility.yul\":12496:12534   */\n      tag_710\n        /* \"#utility.yul\":12528:12533   */\n      dup6\n        /* \"#utility.yul\":12496:12534   */\n      tag_711\n      jump\t// in\n    tag_710:\n        /* \"#utility.yul\":12556:12557   */\n      0x00\n        /* \"#utility.yul\":12570:12724   */\n    tag_712:\n        /* \"#utility.yul\":12584:12590   */\n      dup4\n        /* \"#utility.yul\":12581:12582   */\n      dup2\n        /* \"#utility.yul\":12578:12591   */\n      lt\n        /* \"#utility.yul\":12570:12724   */\n      iszero\n      tag_714\n      jumpi\n        /* \"#utility.yul\":12658:12665   */\n      dup2\n        /* \"#utility.yul\":12652:12666   */\n      sload\n        /* \"#utility.yul\":12648:12649   */\n      dup2\n        /* \"#utility.yul\":12643:12646   */\n      dup10\n        /* \"#utility.yul\":12639:12650   */\n      add\n        /* \"#utility.yul\":12632:12667   */\n      mstore\n        /* \"#utility.yul\":12708:12709   */\n      0x01\n        /* \"#utility.yul\":12699:12706   */\n      dup3\n        /* \"#utility.yul\":12695:12710   */\n      add\n        /* \"#utility.yul\":12684:12710   */\n      swap2\n      pop\n        /* \"#utility.yul\":12606:12610   */\n      0x20\n        /* \"#utility.yul\":12603:12604   */\n      dup2\n        /* \"#utility.yul\":12599:12611   */\n      add\n        /* \"#utility.yul\":12594:12611   */\n      swap1\n      pop\n        /* \"#utility.yul\":12570:12724   */\n      jump(tag_712)\n    tag_714:\n        /* \"#utility.yul\":12753:12759   */\n      dup4\n        /* \"#utility.yul\":12748:12751   */\n      dup9\n        /* \"#utility.yul\":12744:12760   */\n      add\n        /* \"#utility.yul\":12737:12760   */\n      swap6\n      pop\n        /* \"#utility.yul\":12436:12770   */\n      pop\n      pop\n        /* \"#utility.yul\":12250:12770   */\n    tag_707:\n      pop\n        /* \"#utility.yul\":12038:12776   */\n      pop\n      pop\n        /* \"#utility.yul\":11931:12776   */\n      swap3\n      swap2\n      pop\n      pop\n      jump\t// out\n        /* \"#utility.yul\":12782:13148   */\n    tag_715:\n        /* \"#utility.yul\":12924:12927   */\n      0x00\n        /* \"#utility.yul\":12945:13012   */\n      tag_717\n        /* \"#utility.yul\":13009:13011   */\n      0x19\n        /* \"#utility.yul\":13004:13007   */\n      dup4\n        /* \"#utility.yul\":12945:13012   */\n      tag_694\n      jump\t// in\n    tag_717:\n        /* \"#utility.yul\":12938:13012   */\n      swap2\n      pop\n        /* \"#utility.yul\":13021:13114   */\n      tag_718\n        /* \"#utility.yul\":13110:13113   */\n      dup3\n        /* \"#utility.yul\":13021:13114   */\n      tag_719\n      jump\t// in\n    tag_718:\n        /* \"#utility.yul\":13139:13141   */\n      0x20\n        /* \"#utility.yul\":13134:13137   */\n      dup3\n        /* \"#utility.yul\":13130:13142   */\n      add\n        /* \"#utility.yul\":13123:13142   */\n      swap1\n      pop\n        /* \"#utility.yul\":12782:13148   */\n      swap2\n      swap1\n      pop\n      jump\t// out\n        /* \"#utility.yul\":13154:13520   */\n    tag_720:\n        /* \"#utility.yul\":13296:13299   */\n      0x00\n        /* \"#utility.yul\":13317:13384   */\n      tag_722\n        /* \"#utility.yul\":13381:13383   */\n      0x17\n        /* \"#utility.yul\":13376:13379   */\n      dup4\n        /* \"#utility.yul\":13317:13384   */\n      tag_694\n      jump\t// in\n    tag_722:\n        /* \"#utility.yul\":13310:13384   */\n      swap2\n      pop\n        /* \"#utility.yul\":13393:13486   */\n      tag_723\n        /* \"#utility.yul\":13482:13485   */\n      dup3\n        /* \"#utility.yul\":13393:13486   */\n      tag_724\n      jump\t// in\n    tag_723:\n        /* \"#utility.yul\":13511:13513   */\n      0x20\n        /* \"#utility.yul\":13506:13509   */\n      dup3\n        /* \"#utility.yul\":13502:13514   */\n      add\n        /* \"#utility.yul\":13495:13514   */\n      swap1\n      pop\n        /* \"#utility.yul\":13154:13520   */\n      swap2\n      swap1\n      pop\n      jump\t// out\n        /* \"#utility.yul\":13526:13892   */\n    tag_725:\n        /* \"#utility.yul\":13668:13671   */\n      0x00\n        /* \"#utility.yul\":13689:13756   */\n      tag_727\n        /* \"#utility.yul\":13753:13755   */\n      0x19\n        /* \"#utility.yul\":13748:13751   */\n      dup4\n        /* \"#utility.yul\":13689:13756   */\n      tag_694\n      jump\t// in\n    tag_727:\n        /* \"#utility.yul\":13682:13756   */\n      swap2\n      pop\n        /* \"#utility.yul\":13765:13858   */\n      tag_728\n        /* \"#utility.yul\":13854:13857   */\n      dup3\n        /* \"#utility.yul\":13765:13858   */\n      tag_729\n      jump\t// in\n    tag_728:\n        /* \"#utility.yul\":13883:13885   */\n      0x20\n        /* \"#utility.yul\":13878:13881   */\n      dup3\n        /* \"#utility.yul\":13874:13886   */\n      add\n        /* \"#utility.yul\":13867:13886   */\n      swap1\n      pop\n        /* \"#utility.yul\":13526:13892   */\n      swap2\n      swap1\n      pop\n      jump\t// out\n        /* \"#utility.yul\":13898:14264   */\n    tag_730:\n        /* \"#utility.yul\":14040:14043   */\n      0x00\n        /* \"#utility.yul\":14061:14128   */\n      tag_732\n        /* \"#utility.yul\":14125:14127   */\n      0x10\n        /* \"#utility.yul\":14120:14123   */\n      dup4\n        /* \"#utility.yul\":14061:14128   */\n      tag_694\n      jump\t// in\n    tag_732:\n        /* \"#utility.yul\":14054:14128   */\n      swap2\n      pop\n        /* \"#utility.yul\":14137:14230   */\n      tag_733\n        /* \"#utility.yul\":14226:14229   */\n      dup3\n        /* \"#utility.yul\":14137:14230   */\n      tag_734\n      jump\t// in\n    tag_733:\n        /* \"#utility.yul\":14255:14257   */\n      0x20\n        /* \"#utility.yul\":14250:14253   */\n      dup3\n        /* \"#utility.yul\":14246:14258   */\n      add\n        /* \"#utility.yul\":14239:14258   */\n      swap1\n      pop\n        /* \"#utility.yul\":13898:14264   */\n      swap2\n      swap1\n      pop\n      jump\t// out\n        /* \"#utility.yul\":14270:14636   */\n    tag_735:\n        /* \"#utility.yul\":14412:14415   */\n      0x00\n        /* \"#utility.yul\":14433:14500   */\n      tag_737\n        /* \"#utility.yul\":14497:14499   */\n      0x1d\n        /* \"#utility.yul\":14492:14495   */\n      dup4\n        /* \"#utility.yul\":14433:14500   */\n      tag_694\n      jump\t// in\n    tag_737:\n        /* \"#utility.yul\":14426:14500   */\n      swap2\n      pop\n        /* \"#utility.yul\":14509:14602   */\n      tag_738\n        /* \"#utility.yul\":14598:14601   */\n      dup3\n        /* \"#utility.yul\":14509:14602   */\n      tag_739\n      jump\t// in\n    tag_738:\n        /* \"#utility.yul\":14627:14629   */\n      0x20\n        /* \"#utility.yul\":14622:14625   */\n      dup3\n        /* \"#utility.yul\":14618:14630   */\n      add\n        /* \"#utility.yul\":14611:14630   */\n      swap1\n      pop\n        /* \"#utility.yul\":14270:14636   */\n      swap2\n      swap1\n      pop\n      jump\t// out\n        /* \"#utility.yul\":14642:15008   */\n    tag_740:\n        /* \"#utility.yul\":14784:14787   */\n      0x00\n        /* \"#utility.yul\":14805:14872   */\n      tag_742\n        /* \"#utility.yul\":14869:14871   */\n      0x21\n        /* \"#utility.yul\":14864:14867   */\n      dup4\n        /* \"#utility.yul\":14805:14872   */\n      tag_694\n      jump\t// in\n    tag_742:\n        /* \"#utility.yul\":14798:14872   */\n      swap2\n      pop\n        /* \"#utility.yul\":14881:14974   */\n      tag_743\n        /* \"#utility.yul\":14970:14973   */\n      dup3\n        /* \"#utility.yul\":14881:14974   */\n      tag_744\n      jump\t// in\n    tag_743:\n        /* \"#utility.yul\":14999:15001   */\n      0x40\n        /* \"#utility.yul\":14994:14997   */\n      dup3\n        /* \"#utility.yul\":14990:15002   */\n      add\n        /* \"#utility.yul\":14983:15002   */\n      swap1\n      pop\n        /* \"#utility.yul\":14642:15008   */\n      swap2\n      swap1\n      pop\n      jump\t// out\n        /* \"#utility.yul\":15014:15132   */\n    tag_745:\n        /* \"#utility.yul\":15101:15125   */\n      tag_747\n        /* \"#utility.yul\":15119:15124   */\n      dup2\n        /* \"#utility.yul\":15101:15125   */\n      tag_748\n      jump\t// in\n    tag_747:\n        /* \"#utility.yul\":15096:15099   */\n      dup3\n        /* \"#utility.yul\":15089:15126   */\n      mstore\n        /* \"#utility.yul\":15014:15132   */\n      pop\n      pop\n      jump\t// out\n        /* \"#utility.yul\":15138:15413   */\n    tag_211:\n        /* \"#utility.yul\":15270:15273   */\n      0x00\n        /* \"#utility.yul\":15292:15387   */\n      tag_750\n        /* \"#utility.yul\":15383:15386   */\n      dup3\n        /* \"#utility.yul\":15374:15380   */\n      dup5\n        /* \"#utility.yul\":15292:15387   */\n      tag_697\n      jump\t// in\n    tag_750:\n        /* \"#utility.yul\":15285:15387   */\n      swap2\n      pop\n        /* \"#utility.yul\":15404:15407   */\n      dup2\n        /* \"#utility.yul\":15397:15407   */\n      swap1\n      pop\n        /* \"#utility.yul\":15138:15413   */\n      swap3\n      swap2\n      pop\n      pop\n      jump\t// out\n        /* \"#utility.yul\":15419:15688   */\n    tag_273:\n        /* \"#utility.yul\":15548:15551   */\n      0x00\n        /* \"#utility.yul\":15570:15662   */\n      tag_752\n        /* \"#utility.yul\":15658:15661   */\n      dup3\n        /* \"#utility.yul\":15649:15655   */\n      dup5\n        /* \"#utility.yul\":15570:15662   */\n      tag_703\n      jump\t// in\n    tag_752:\n        /* \"#utility.yul\":15563:15662   */\n      swap2\n      pop\n        /* \"#utility.yul\":15679:15682   */\n      dup2\n        /* \"#utility.yul\":15672:15682   */\n      swap1\n      pop\n        /* \"#utility.yul\":15419:15688   */\n      swap3\n      swap2\n      pop\n      pop\n      jump\t// out\n        /* \"#utility.yul\":15694:15916   */\n    tag_66:\n        /* \"#utility.yul\":15787:15791   */\n      0x00\n        /* \"#utility.yul\":15825:15827   */\n      0x20\n        /* \"#utility.yul\":15814:15823   */\n      dup3\n        /* \"#utility.yul\":15810:15828   */\n      add\n        /* \"#utility.yul\":15802:15828   */\n      swap1\n      pop\n        /* \"#utility.yul\":15838:15909   */\n      tag_754\n        /* \"#utility.yul\":15906:15907   */\n      0x00\n        /* \"#utility.yul\":15895:15904   */\n      dup4\n        /* \"#utility.yul\":15891:15908   */\n      add\n        /* \"#utility.yul\":15882:15888   */\n      dup5\n        /* \"#utility.yul\":15838:15909   */\n      tag_655\n      jump\t// in\n    tag_754:\n        /* \"#utility.yul\":15694:15916   */\n      swap3\n      swap2\n      pop\n      pop\n      jump\t// out\n        /* \"#utility.yul\":15922:16443   */\n    tag_137:\n        /* \"#utility.yul\":16085:16089   */\n      0x00\n        /* \"#utility.yul\":16123:16125   */\n      0x60\n        /* \"#utility.yul\":16112:16121   */\n      dup3\n        /* \"#utility.yul\":16108:16126   */\n      add\n        /* \"#utility.yul\":16100:16126   */\n      swap1\n      pop\n        /* \"#utility.yul\":16136:16207   */\n      tag_756\n        /* \"#utility.yul\":16204:16205   */\n      0x00\n        /* \"#utility.yul\":16193:16202   */\n      dup4\n        /* \"#utility.yul\":16189:16206   */\n      add\n        /* \"#utility.yul\":16180:16186   */\n      dup7\n        /* \"#utility.yul\":16136:16207   */\n      tag_655\n      jump\t// in\n    tag_756:\n        /* \"#utility.yul\":16254:16263   */\n      dup2\n        /* \"#utility.yul\":16248:16252   */\n      dup2\n        /* \"#utility.yul\":16244:16264   */\n      sub\n        /* \"#utility.yul\":16239:16241   */\n      0x20\n        /* \"#utility.yul\":16228:16237   */\n      dup4\n        /* \"#utility.yul\":16224:16242   */\n      add\n        /* \"#utility.yul\":16217:16265   */\n      mstore\n        /* \"#utility.yul\":16282:16360   */\n      tag_757\n        /* \"#utility.yul\":16355:16359   */\n      dup2\n        /* \"#utility.yul\":16346:16352   */\n      dup6\n        /* \"#utility.yul\":16282:16360   */\n      tag_690\n      jump\t// in\n    tag_757:\n        /* \"#utility.yul\":16274:16360   */\n      swap1\n      pop\n        /* \"#utility.yul\":16370:16436   */\n      tag_758\n        /* \"#utility.yul\":16432:16434   */\n      0x40\n        /* \"#utility.yul\":16421:16430   */\n      dup4\n        /* \"#utility.yul\":16417:16435   */\n      add\n        /* \"#utility.yul\":16408:16414   */\n      dup5\n        /* \"#utility.yul\":16370:16436   */\n      tag_673\n      jump\t// in\n    tag_758:\n        /* \"#utility.yul\":15922:16443   */\n      swap5\n      swap4\n      pop\n      pop\n      pop\n      pop\n      jump\t// out\n        /* \"#utility.yul\":16449:17081   */\n    tag_204:\n        /* \"#utility.yul\":16640:16644   */\n      0x00\n        /* \"#utility.yul\":16678:16681   */\n      0x80\n        /* \"#utility.yul\":16667:16676   */\n      dup3\n        /* \"#utility.yul\":16663:16682   */\n      add\n        /* \"#utility.yul\":16655:16682   */\n      swap1\n      pop\n        /* \"#utility.yul\":16692:16763   */\n      tag_760\n        /* \"#utility.yul\":16760:16761   */\n      0x00\n        /* \"#utility.yul\":16749:16758   */\n      dup4\n        /* \"#utility.yul\":16745:16762   */\n      add\n        /* \"#utility.yul\":16736:16742   */\n      dup8\n        /* \"#utility.yul\":16692:16763   */\n      tag_655\n      jump\t// in\n    tag_760:\n        /* \"#utility.yul\":16810:16819   */\n      dup2\n        /* \"#utility.yul\":16804:16808   */\n      dup2\n        /* \"#utility.yul\":16800:16820   */\n      sub\n        /* \"#utility.yul\":16795:16797   */\n      0x20\n        /* \"#utility.yul\":16784:16793   */\n      dup4\n        /* \"#utility.yul\":16780:16798   */\n      add\n        /* \"#utility.yul\":16773:16821   */\n      mstore\n        /* \"#utility.yul\":16838:16916   */\n      tag_761\n        /* \"#utility.yul\":16911:16915   */\n      dup2\n        /* \"#utility.yul\":16902:16908   */\n      dup7\n        /* \"#utility.yul\":16838:16916   */\n      tag_690\n      jump\t// in\n    tag_761:\n        /* \"#utility.yul\":16830:16916   */\n      swap1\n      pop\n        /* \"#utility.yul\":16926:16998   */\n      tag_762\n        /* \"#utility.yul\":16994:16996   */\n      0x40\n        /* \"#utility.yul\":16983:16992   */\n      dup4\n        /* \"#utility.yul\":16979:16997   */\n      add\n        /* \"#utility.yul\":16970:16976   */\n      dup6\n        /* \"#utility.yul\":16926:16998   */\n      tag_745\n      jump\t// in\n    tag_762:\n        /* \"#utility.yul\":17008:17074   */\n      tag_763\n        /* \"#utility.yul\":17070:17072   */\n      0x60\n        /* \"#utility.yul\":17059:17068   */\n      dup4\n        /* \"#utility.yul\":17055:17073   */\n      add\n        /* \"#utility.yul\":17046:17052   */\n      dup5\n        /* \"#utility.yul\":17008:17074   */\n      tag_673\n      jump\t// in\n    tag_763:\n        /* \"#utility.yul\":16449:17081   */\n      swap6\n      swap5\n      pop\n      pop\n      pop\n      pop\n      pop\n      jump\t// out\n        /* \"#utility.yul\":17087:17731   */\n    tag_198:\n        /* \"#utility.yul\":17284:17288   */\n      0x00\n        /* \"#utility.yul\":17322:17325   */\n      0x80\n        /* \"#utility.yul\":17311:17320   */\n      dup3\n        /* \"#utility.yul\":17307:17326   */\n      add\n        /* \"#utility.yul\":17299:17326   */\n      swap1\n      pop\n        /* \"#utility.yul\":17336:17407   */\n      tag_765\n        /* \"#utility.yul\":17404:17405   */\n      0x00\n        /* \"#utility.yul\":17393:17402   */\n      dup4\n        /* \"#utility.yul\":17389:17406   */\n      add\n        /* \"#utility.yul\":17380:17386   */\n      dup8\n        /* \"#utility.yul\":17336:17407   */\n      tag_655\n      jump\t// in\n    tag_765:\n        /* \"#utility.yul\":17454:17463   */\n      dup2\n        /* \"#utility.yul\":17448:17452   */\n      dup2\n        /* \"#utility.yul\":17444:17464   */\n      sub\n        /* \"#utility.yul\":17439:17441   */\n      0x20\n        /* \"#utility.yul\":17428:17437   */\n      dup4\n        /* \"#utility.yul\":17424:17442   */\n      add\n        /* \"#utility.yul\":17417:17465   */\n      mstore\n        /* \"#utility.yul\":17482:17560   */\n      tag_766\n        /* \"#utility.yul\":17555:17559   */\n      dup2\n        /* \"#utility.yul\":17546:17552   */\n      dup7\n        /* \"#utility.yul\":17482:17560   */\n      tag_690\n      jump\t// in\n    tag_766:\n        /* \"#utility.yul\":17474:17560   */\n      swap1\n      pop\n        /* \"#utility.yul\":17570:17642   */\n      tag_767\n        /* \"#utility.yul\":17638:17640   */\n      0x40\n        /* \"#utility.yul\":17627:17636   */\n      dup4\n        /* \"#utility.yul\":17623:17641   */\n      add\n        /* \"#utility.yul\":17614:17620   */\n      dup6\n        /* \"#utility.yul\":17570:17642   */\n      tag_745\n      jump\t// in\n    tag_767:\n        /* \"#utility.yul\":17652:17724   */\n      tag_768\n        /* \"#utility.yul\":17720:17722   */\n      0x60\n        /* \"#utility.yul\":17709:17718   */\n      dup4\n        /* \"#utility.yul\":17705:17723   */\n      add\n        /* \"#utility.yul\":17696:17702   */\n      dup5\n        /* \"#utility.yul\":17652:17724   */\n      tag_745\n      jump\t// in\n    tag_768:\n        /* \"#utility.yul\":17087:17731   */\n      swap6\n      swap5\n      pop\n      pop\n      pop\n      pop\n      pop\n      jump\t// out\n        /* \"#utility.yul\":17737:18150   */\n    tag_77:\n        /* \"#utility.yul\":17900:17904   */\n      0x00\n        /* \"#utility.yul\":17938:17940   */\n      0x20\n        /* \"#utility.yul\":17927:17936   */\n      dup3\n        /* \"#utility.yul\":17923:17941   */\n      add\n        /* \"#utility.yul\":17915:17941   */\n      swap1\n      pop\n        /* \"#utility.yul\":17987:17996   */\n      dup2\n        /* \"#utility.yul\":17981:17985   */\n      dup2\n        /* \"#utility.yul\":17977:17997   */\n      sub\n        /* \"#utility.yul\":17973:17974   */\n      0x00\n        /* \"#utility.yul\":17962:17971   */\n      dup4\n        /* \"#utility.yul\":17958:17975   */\n      add\n        /* \"#utility.yul\":17951:17998   */\n      mstore\n        /* \"#utility.yul\":18015:18143   */\n      tag_770\n        /* \"#utility.yul\":18138:18142   */\n      dup2\n        /* \"#utility.yul\":18129:18135   */\n      dup5\n        /* \"#utility.yul\":18015:18143   */\n      tag_659\n      jump\t// in\n    tag_770:\n        /* \"#utility.yul\":18007:18143   */\n      swap1\n      pop\n        /* \"#utility.yul\":17737:18150   */\n      swap3\n      swap2\n      pop\n      pop\n      jump\t// out\n        /* \"#utility.yul\":18156:18366   */\n    tag_92:\n        /* \"#utility.yul\":18243:18247   */\n      0x00\n        /* \"#utility.yul\":18281:18283   */\n      0x20\n        /* \"#utility.yul\":18270:18279   */\n      dup3\n        /* \"#utility.yul\":18266:18284   */\n      add\n        /* \"#utility.yul\":18258:18284   */\n      swap1\n      pop\n        /* \"#utility.yul\":18294:18359   */\n      tag_772\n        /* \"#utility.yul\":18356:18357   */\n      0x00\n        /* \"#utility.yul\":18345:18354   */\n      dup4\n        /* \"#utility.yul\":18341:18358   */\n      add\n        /* \"#utility.yul\":18332:18338   */\n      dup5\n        /* \"#utility.yul\":18294:18359   */\n      tag_673\n      jump\t// in\n    tag_772:\n        /* \"#utility.yul\":18156:18366   */\n      swap3\n      swap2\n      pop\n      pop\n      jump\t// out\n        /* \"#utility.yul\":18372:18594   */\n    tag_148:\n        /* \"#utility.yul\":18465:18469   */\n      0x00\n        /* \"#utility.yul\":18503:18505   */\n      0x20\n        /* \"#utility.yul\":18492:18501   */\n      dup3\n        /* \"#utility.yul\":18488:18506   */\n      add\n        /* \"#utility.yul\":18480:18506   */\n      swap1\n      pop\n        /* \"#utility.yul\":18516:18587   */\n      tag_774\n        /* \"#utility.yul\":18584:18585   */\n      0x00\n        /* \"#utility.yul\":18573:18582   */\n      dup4\n        /* \"#utility.yul\":18569:18586   */\n      add\n        /* \"#utility.yul\":18560:18566   */\n      dup5\n        /* \"#utility.yul\":18516:18587   */\n      tag_677\n      jump\t// in\n    tag_774:\n        /* \"#utility.yul\":18372:18594   */\n      swap3\n      swap2\n      pop\n      pop\n      jump\t// out\n        /* \"#utility.yul\":18600:18913   */\n    tag_102:\n        /* \"#utility.yul\":18713:18717   */\n      0x00\n        /* \"#utility.yul\":18751:18753   */\n      0x20\n        /* \"#utility.yul\":18740:18749   */\n      dup3\n        /* \"#utility.yul\":18736:18754   */\n      add\n        /* \"#utility.yul\":18728:18754   */\n      swap1\n      pop\n        /* \"#utility.yul\":18800:18809   */\n      dup2\n        /* \"#utility.yul\":18794:18798   */\n      dup2\n        /* \"#utility.yul\":18790:18810   */\n      sub\n        /* \"#utility.yul\":18786:18787   */\n      0x00\n        /* \"#utility.yul\":18775:18784   */\n      dup4\n        /* \"#utility.yul\":18771:18788   */\n      add\n        /* \"#utility.yul\":18764:18811   */\n      mstore\n        /* \"#utility.yul\":18828:18906   */\n      tag_776\n        /* \"#utility.yul\":18901:18905   */\n      dup2\n        /* \"#utility.yul\":18892:18898   */\n      dup5\n        /* \"#utility.yul\":18828:18906   */\n      tag_690\n      jump\t// in\n    tag_776:\n        /* \"#utility.yul\":18820:18906   */\n      swap1\n      pop\n        /* \"#utility.yul\":18600:18913   */\n      swap3\n      swap2\n      pop\n      pop\n      jump\t// out\n        /* \"#utility.yul\":18919:19551   */\n    tag_164:\n        /* \"#utility.yul\":19110:19114   */\n      0x00\n        /* \"#utility.yul\":19148:19151   */\n      0x80\n        /* \"#utility.yul\":19137:19146   */\n      dup3\n        /* \"#utility.yul\":19133:19152   */\n      add\n        /* \"#utility.yul\":19125:19152   */\n      swap1\n      pop\n        /* \"#utility.yul\":19198:19207   */\n      dup2\n        /* \"#utility.yul\":19192:19196   */\n      dup2\n        /* \"#utility.yul\":19188:19208   */\n      sub\n        /* \"#utility.yul\":19184:19185   */\n      0x00\n        /* \"#utility.yul\":19173:19182   */\n      dup4\n        /* \"#utility.yul\":19169:19186   */\n      add\n        /* \"#utility.yul\":19162:19209   */\n      mstore\n        /* \"#utility.yul\":19226:19304   */\n      tag_778\n        /* \"#utility.yul\":19299:19303   */\n      dup2\n        /* \"#utility.yul\":19290:19296   */\n      dup8\n        /* \"#utility.yul\":19226:19304   */\n      tag_690\n      jump\t// in\n    tag_778:\n        /* \"#utility.yul\":19218:19304   */\n      swap1\n      pop\n        /* \"#utility.yul\":19314:19386   */\n      tag_779\n        /* \"#utility.yul\":19382:19384   */\n      0x20\n        /* \"#utility.yul\":19371:19380   */\n      dup4\n        /* \"#utility.yul\":19367:19385   */\n      add\n        /* \"#utility.yul\":19358:19364   */\n      dup7\n        /* \"#utility.yul\":19314:19386   */\n      tag_677\n      jump\t// in\n    tag_779:\n        /* \"#utility.yul\":19396:19468   */\n      tag_780\n        /* \"#utility.yul\":19464:19466   */\n      0x40\n        /* \"#utility.yul\":19453:19462   */\n      dup4\n        /* \"#utility.yul\":19449:19467   */\n      add\n        /* \"#utility.yul\":19440:19446   */\n      dup6\n        /* \"#utility.yul\":19396:19468   */\n      tag_745\n      jump\t// in\n    tag_780:\n        /* \"#utility.yul\":19478:19544   */\n      tag_781\n        /* \"#utility.yul\":19540:19542   */\n      0x60\n        /* \"#utility.yul\":19529:19538   */\n      dup4\n        /* \"#utility.yul\":19525:19543   */\n      add\n        /* \"#utility.yul\":19516:19522   */\n      dup5\n        /* \"#utility.yul\":19478:19544   */\n      tag_673\n      jump\t// in\n    tag_781:\n        /* \"#utility.yul\":18919:19551   */\n      swap6\n      swap5\n      pop\n      pop\n      pop\n      pop\n      pop\n      jump\t// out\n        /* \"#utility.yul\":19557:20704   */\n    tag_158:\n        /* \"#utility.yul\":19872:19876   */\n      0x00\n        /* \"#utility.yul\":19910:19913   */\n      0xe0\n        /* \"#utility.yul\":19899:19908   */\n      dup3\n        /* \"#utility.yul\":19895:19914   */\n      add\n        /* \"#utility.yul\":19887:19914   */\n      swap1\n      pop\n        /* \"#utility.yul\":19960:19969   */\n      dup2\n        /* \"#utility.yul\":19954:19958   */\n      dup2\n        /* \"#utility.yul\":19950:19970   */\n      sub\n        /* \"#utility.yul\":19946:19947   */\n      0x00\n        /* \"#utility.yul\":19935:19944   */\n      dup4\n        /* \"#utility.yul\":19931:19948   */\n      add\n        /* \"#utility.yul\":19924:19971   */\n      mstore\n        /* \"#utility.yul\":19988:20066   */\n      tag_783\n        /* \"#utility.yul\":20061:20065   */\n      dup2\n        /* \"#utility.yul\":20052:20058   */\n      dup11\n        /* \"#utility.yul\":19988:20066   */\n      tag_690\n      jump\t// in\n    tag_783:\n        /* \"#utility.yul\":19980:20066   */\n      swap1\n      pop\n        /* \"#utility.yul\":20076:20148   */\n      tag_784\n        /* \"#utility.yul\":20144:20146   */\n      0x20\n        /* \"#utility.yul\":20133:20142   */\n      dup4\n        /* \"#utility.yul\":20129:20147   */\n      add\n        /* \"#utility.yul\":20120:20126   */\n      dup10\n        /* \"#utility.yul\":20076:20148   */\n      tag_677\n      jump\t// in\n    tag_784:\n        /* \"#utility.yul\":20158:20230   */\n      tag_785\n        /* \"#utility.yul\":20226:20228   */\n      0x40\n        /* \"#utility.yul\":20215:20224   */\n      dup4\n        /* \"#utility.yul\":20211:20229   */\n      add\n        /* \"#utility.yul\":20202:20208   */\n      dup9\n        /* \"#utility.yul\":20158:20230   */\n      tag_745\n      jump\t// in\n    tag_785:\n        /* \"#utility.yul\":20240:20306   */\n      tag_786\n        /* \"#utility.yul\":20302:20304   */\n      0x60\n        /* \"#utility.yul\":20291:20300   */\n      dup4\n        /* \"#utility.yul\":20287:20305   */\n      add\n        /* \"#utility.yul\":20278:20284   */\n      dup8\n        /* \"#utility.yul\":20240:20306   */\n      tag_673\n      jump\t// in\n    tag_786:\n        /* \"#utility.yul\":20354:20363   */\n      dup2\n        /* \"#utility.yul\":20348:20352   */\n      dup2\n        /* \"#utility.yul\":20344:20364   */\n      sub\n        /* \"#utility.yul\":20338:20341   */\n      0x80\n        /* \"#utility.yul\":20327:20336   */\n      dup4\n        /* \"#utility.yul\":20323:20342   */\n      add\n        /* \"#utility.yul\":20316:20365   */\n      mstore\n        /* \"#utility.yul\":20382:20460   */\n      tag_787\n        /* \"#utility.yul\":20455:20459   */\n      dup2\n        /* \"#utility.yul\":20446:20452   */\n      dup7\n        /* \"#utility.yul\":20382:20460   */\n      tag_690\n      jump\t// in\n    tag_787:\n        /* \"#utility.yul\":20374:20460   */\n      swap1\n      pop\n        /* \"#utility.yul\":20508:20517   */\n      dup2\n        /* \"#utility.yul\":20502:20506   */\n      dup2\n        /* \"#utility.yul\":20498:20518   */\n      sub\n        /* \"#utility.yul\":20492:20495   */\n      0xa0\n        /* \"#utility.yul\":20481:20490   */\n      dup4\n        /* \"#utility.yul\":20477:20496   */\n      add\n        /* \"#utility.yul\":20470:20519   */\n      mstore\n        /* \"#utility.yul\":20536:20614   */\n      tag_788\n        /* \"#utility.yul\":20609:20613   */\n      dup2\n        /* \"#utility.yul\":20600:20606   */\n      dup6\n        /* \"#utility.yul\":20536:20614   */\n      tag_690\n      jump\t// in\n    tag_788:\n        /* \"#utility.yul\":20528:20614   */\n      swap1\n      pop\n        /* \"#utility.yul\":20624:20697   */\n      tag_789\n        /* \"#utility.yul\":20692:20695   */\n      0xc0\n        /* \"#utility.yul\":20681:20690   */\n      dup4\n        /* \"#utility.yul\":20677:20696   */\n      add\n        /* \"#utility.yul\":20668:20674   */\n      dup5\n        /* \"#utility.yul\":20624:20697   */\n      tag_745\n      jump\t// in\n    tag_789:\n        /* \"#utility.yul\":19557:20704   */\n      swap9\n      swap8\n      pop\n      pop\n      pop\n      pop\n      pop\n      pop\n      pop\n      pop\n      jump\t// out\n        /* \"#utility.yul\":20710:21129   */\n    tag_218:\n        /* \"#utility.yul\":20876:20880   */\n      0x00\n        /* \"#utility.yul\":20914:20916   */\n      0x20\n        /* \"#utility.yul\":20903:20912   */\n      dup3\n        /* \"#utility.yul\":20899:20917   */\n      add\n        /* \"#utility.yul\":20891:20917   */\n      swap1\n      pop\n        /* \"#utility.yul\":20963:20972   */\n      dup2\n        /* \"#utility.yul\":20957:20961   */\n      dup2\n        /* \"#utility.yul\":20953:20973   */\n      sub\n        /* \"#utility.yul\":20949:20950   */\n      0x00\n        /* \"#utility.yul\":20938:20947   */\n      dup4\n        /* \"#utility.yul\":20934:20951   */\n      add\n        /* \"#utility.yul\":20927:20974   */\n      mstore\n        /* \"#utility.yul\":20991:21122   */\n      tag_791\n        /* \"#utility.yul\":21117:21121   */\n      dup2\n        /* \"#utility.yul\":20991:21122   */\n      tag_715\n      jump\t// in\n    tag_791:\n        /* \"#utility.yul\":20983:21122   */\n      swap1\n      pop\n        /* \"#utility.yul\":20710:21129   */\n      swap2\n      swap1\n      pop\n      jump\t// out\n        /* \"#utility.yul\":21135:21554   */\n    tag_343:\n        /* \"#utility.yul\":21301:21305   */\n      0x00\n        /* \"#utility.yul\":21339:21341   */\n      0x20\n        /* \"#utility.yul\":21328:21337   */\n      dup3\n        /* \"#utility.yul\":21324:21342   */\n      add\n        /* \"#utility.yul\":21316:21342   */\n      swap1\n      pop\n        /* \"#utility.yul\":21388:21397   */\n      dup2\n        /* \"#utility.yul\":21382:21386   */\n      dup2\n        /* \"#utility.yul\":21378:21398   */\n      sub\n        /* \"#utility.yul\":21374:21375   */\n      0x00\n        /* \"#utility.yul\":21363:21372   */\n      dup4\n        /* \"#utility.yul\":21359:21376   */\n      add\n        /* \"#utility.yul\":21352:21399   */\n      mstore\n        /* \"#utility.yul\":21416:21547   */\n      tag_793\n        /* \"#utility.yul\":21542:21546   */\n      dup2\n        /* \"#utility.yul\":21416:21547   */\n      tag_720\n      jump\t// in\n    tag_793:\n        /* \"#utility.yul\":21408:21547   */\n      swap1\n      pop\n        /* \"#utility.yul\":21135:21554   */\n      swap2\n      swap1\n      pop\n      jump\t// out\n        /* \"#utility.yul\":21560:21979   */\n    tag_339:\n        /* \"#utility.yul\":21726:21730   */\n      0x00\n        /* \"#utility.yul\":21764:21766   */\n      0x20\n        /* \"#utility.yul\":21753:21762   */\n      dup3\n        /* \"#utility.yul\":21749:21767   */\n      add\n        /* \"#utility.yul\":21741:21767   */\n      swap1\n      pop\n        /* \"#utility.yul\":21813:21822   */\n      dup2\n        /* \"#utility.yul\":21807:21811   */\n      dup2\n        /* \"#utility.yul\":21803:21823   */\n      sub\n        /* \"#utility.yul\":21799:21800   */\n      0x00\n        /* \"#utility.yul\":21788:21797   */\n      dup4\n        /* \"#utility.yul\":21784:21801   */\n      add\n        /* \"#utility.yul\":21777:21824   */\n      mstore\n        /* \"#utility.yul\":21841:21972   */\n      tag_795\n        /* \"#utility.yul\":21967:21971   */\n      dup2\n        /* \"#utility.yul\":21841:21972   */\n      tag_725\n      jump\t// in\n    tag_795:\n        /* \"#utility.yul\":21833:21972   */\n      swap1\n      pop\n        /* \"#utility.yul\":21560:21979   */\n      swap2\n      swap1\n      pop\n      jump\t// out\n        /* \"#utility.yul\":21985:22404   */\n    tag_227:\n        /* \"#utility.yul\":22151:22155   */\n      0x00\n        /* \"#utility.yul\":22189:22191   */\n      0x20\n        /* \"#utility.yul\":22178:22187   */\n      dup3\n        /* \"#utility.yul\":22174:22192   */\n      add\n        /* \"#utility.yul\":22166:22192   */\n      swap1\n      pop\n        /* \"#utility.yul\":22238:22247   */\n      dup2\n        /* \"#utility.yul\":22232:22236   */\n      dup2\n        /* \"#utility.yul\":22228:22248   */\n      sub\n        /* \"#utility.yul\":22224:22225   */\n      0x00\n        /* \"#utility.yul\":22213:22222   */\n      dup4\n        /* \"#utility.yul\":22209:22226   */\n      add\n        /* \"#utility.yul\":22202:22249   */\n      mstore\n        /* \"#utility.yul\":22266:22397   */\n      tag_797\n        /* \"#utility.yul\":22392:22396   */\n      dup2\n        /* \"#utility.yul\":22266:22397   */\n      tag_730\n      jump\t// in\n    tag_797:\n        /* \"#utility.yul\":22258:22397   */\n      swap1\n      pop\n        /* \"#utility.yul\":21985:22404   */\n      swap2\n      swap1\n      pop\n      jump\t// out\n        /* \"#utility.yul\":22410:22829   */\n    tag_335:\n        /* \"#utility.yul\":22576:22580   */\n      0x00\n        /* \"#utility.yul\":22614:22616   */\n      0x20\n        /* \"#utility.yul\":22603:22612   */\n      dup3\n        /* \"#utility.yul\":22599:22617   */\n      add\n        /* \"#utility.yul\":22591:22617   */\n      swap1\n      pop\n        /* \"#utility.yul\":22663:22672   */\n      dup2\n        /* \"#utility.yul\":22657:22661   */\n      dup2\n        /* \"#utility.yul\":22653:22673   */\n      sub\n        /* \"#utility.yul\":22649:22650   */\n      0x00\n        /* \"#utility.yul\":22638:22647   */\n      dup4\n        /* \"#utility.yul\":22634:22651   */\n      add\n        /* \"#utility.yul\":22627:22674   */\n      mstore\n        /* \"#utility.yul\":22691:22822   */\n      tag_799\n        /* \"#utility.yul\":22817:22821   */\n      dup2\n        /* \"#utility.yul\":22691:22822   */\n      tag_735\n      jump\t// in\n    tag_799:\n        /* \"#utility.yul\":22683:22822   */\n      swap1\n      pop\n        /* \"#utility.yul\":22410:22829   */\n      swap2\n      swap1\n      pop\n      jump\t// out\n        /* \"#utility.yul\":22835:23254   */\n    tag_432:\n        /* \"#utility.yul\":23001:23005   */\n      0x00\n        /* \"#utility.yul\":23039:23041   */\n      0x20\n        /* \"#utility.yul\":23028:23037   */\n      dup3\n        /* \"#utility.yul\":23024:23042   */\n      add\n        /* \"#utility.yul\":23016:23042   */\n      swap1\n      pop\n        /* \"#utility.yul\":23088:23097   */\n      dup2\n        /* \"#utility.yul\":23082:23086   */\n      dup2\n        /* \"#utility.yul\":23078:23098   */\n      sub\n        /* \"#utility.yul\":23074:23075   */\n      0x00\n        /* \"#utility.yul\":23063:23072   */\n      dup4\n        /* \"#utility.yul\":23059:23076   */\n      add\n        /* \"#utility.yul\":23052:23099   */\n      mstore\n        /* \"#utility.yul\":23116:23247   */\n      tag_801\n        /* \"#utility.yul\":23242:23246   */\n      dup2\n        /* \"#utility.yul\":23116:23247   */\n      tag_740\n      jump\t// in\n    tag_801:\n        /* \"#utility.yul\":23108:23247   */\n      swap1\n      pop\n        /* \"#utility.yul\":22835:23254   */\n      swap2\n      swap1\n      pop\n      jump\t// out\n        /* \"#utility.yul\":23260:23482   */\n    tag_48:\n        /* \"#utility.yul\":23353:23357   */\n      0x00\n        /* \"#utility.yul\":23391:23393   */\n      0x20\n        /* \"#utility.yul\":23380:23389   */\n      dup3\n        /* \"#utility.yul\":23376:23394   */\n      add\n        /* \"#utility.yul\":23368:23394   */\n      swap1\n      pop\n        /* \"#utility.yul\":23404:23475   */\n      tag_803\n        /* \"#utility.yul\":23472:23473   */\n      0x00\n        /* \"#utility.yul\":23461:23470   */\n      dup4\n        /* \"#utility.yul\":23457:23474   */\n      add\n        /* \"#utility.yul\":23448:23454   */\n      dup5\n        /* \"#utility.yul\":23404:23475   */\n      tag_745\n      jump\t// in\n    tag_803:\n        /* \"#utility.yul\":23260:23482   */\n      swap3\n      swap2\n      pop\n      pop\n      jump\t// out\n        /* \"#utility.yul\":23488:23617   */\n    tag_534:\n        /* \"#utility.yul\":23522:23528   */\n      0x00\n        /* \"#utility.yul\":23549:23569   */\n      tag_805\n      tag_806\n      jump\t// in\n    tag_805:\n        /* \"#utility.yul\":23539:23569   */\n      swap1\n      pop\n        /* \"#utility.yul\":23578:23611   */\n      tag_807\n        /* \"#utility.yul\":23606:23610   */\n      dup3\n        /* \"#utility.yul\":23598:23604   */\n      dup3\n        /* \"#utility.yul\":23578:23611   */\n      tag_808\n      jump\t// in\n    tag_807:\n        /* \"#utility.yul\":23488:23617   */\n      swap2\n      swap1\n      pop\n      jump\t// out\n        /* \"#utility.yul\":23623:23698   */\n    tag_806:\n        /* \"#utility.yul\":23656:23662   */\n      0x00\n        /* \"#utility.yul\":23689:23691   */\n      0x40\n        /* \"#utility.yul\":23683:23692   */\n      mload\n        /* \"#utility.yul\":23673:23692   */\n      swap1\n      pop\n        /* \"#utility.yul\":23623:23698   */\n      swap1\n      jump\t// out\n        /* \"#utility.yul\":23704:24025   */\n    tag_533:\n        /* \"#utility.yul\":23791:23795   */\n      0x00\n        /* \"#utility.yul\":23881:23899   */\n      0xffffffffffffffff\n        /* \"#utility.yul\":23873:23879   */\n      dup3\n        /* \"#utility.yul\":23870:23900   */\n      gt\n        /* \"#utility.yul\":23867:23923   */\n      iszero\n      tag_811\n      jumpi\n        /* \"#utility.yul\":23903:23921   */\n      tag_812\n      tag_813\n      jump\t// in\n    tag_812:\n        /* \"#utility.yul\":23867:23923   */\n    tag_811:\n        /* \"#utility.yul\":23953:23957   */\n      0x20\n        /* \"#utility.yul\":23945:23951   */\n      dup3\n        /* \"#utility.yul\":23941:23958   */\n      mul\n        /* \"#utility.yul\":23933:23958   */\n      swap1\n      pop\n        /* \"#utility.yul\":24013:24017   */\n      0x20\n        /* \"#utility.yul\":24007:24011   */\n      dup2\n        /* \"#utility.yul\":24003:24018   */\n      add\n        /* \"#utility.yul\":23995:24018   */\n      swap1\n      pop\n        /* \"#utility.yul\":23704:24025   */\n      swap2\n      swap1\n      pop\n      jump\t// out\n        /* \"#utility.yul\":24031:24339   */\n    tag_550:\n        /* \"#utility.yul\":24093:24097   */\n      0x00\n        /* \"#utility.yul\":24183:24201   */\n      0xffffffffffffffff\n        /* \"#utility.yul\":24175:24181   */\n      dup3\n        /* \"#utility.yul\":24172:24202   */\n      gt\n        /* \"#utility.yul\":24169:24225   */\n      iszero\n      tag_815\n      jumpi\n        /* \"#utility.yul\":24205:24223   */\n      tag_816\n      tag_813\n      jump\t// in\n    tag_816:\n        /* \"#utility.yul\":24169:24225   */\n    tag_815:\n        /* \"#utility.yul\":24243:24272   */\n      tag_817\n        /* \"#utility.yul\":24265:24271   */\n      dup3\n        /* \"#utility.yul\":24243:24272   */\n      tag_689\n      jump\t// in\n    tag_817:\n        /* \"#utility.yul\":24235:24272   */\n      swap1\n      pop\n        /* \"#utility.yul\":24327:24331   */\n      0x20\n        /* \"#utility.yul\":24321:24325   */\n      dup2\n        /* \"#utility.yul\":24317:24332   */\n      add\n        /* \"#utility.yul\":24309:24332   */\n      swap1\n      pop\n        /* \"#utility.yul\":24031:24339   */\n      swap2\n      swap1\n      pop\n      jump\t// out\n        /* \"#utility.yul\":24345:24487   */\n    tag_666:\n        /* \"#utility.yul\":24422:24426   */\n      0x00\n        /* \"#utility.yul\":24445:24448   */\n      dup2\n        /* \"#utility.yul\":24437:24448   */\n      swap1\n      pop\n        /* \"#utility.yul\":24475:24479   */\n      0x20\n        /* \"#utility.yul\":24470:24473   */\n      dup3\n        /* \"#utility.yul\":24466:24480   */\n      add\n        /* \"#utility.yul\":24458:24480   */\n      swap1\n      pop\n        /* \"#utility.yul\":24345:24487   */\n      swap2\n      swap1\n      pop\n      jump\t// out\n        /* \"#utility.yul\":24493:24634   */\n    tag_711:\n        /* \"#utility.yul\":24542:24546   */\n      0x00\n        /* \"#utility.yul\":24565:24568   */\n      dup2\n        /* \"#utility.yul\":24557:24568   */\n      swap1\n      pop\n        /* \"#utility.yul\":24588:24591   */\n      dup2\n        /* \"#utility.yul\":24585:24586   */\n      0x00\n        /* \"#utility.yul\":24578:24592   */\n      mstore\n        /* \"#utility.yul\":24622:24626   */\n      0x20\n        /* \"#utility.yul\":24619:24620   */\n      0x00\n        /* \"#utility.yul\":24609:24627   */\n      keccak256\n        /* \"#utility.yul\":24601:24627   */\n      swap1\n      pop\n        /* \"#utility.yul\":24493:24634   */\n      swap2\n      swap1\n      pop\n      jump\t// out\n        /* \"#utility.yul\":24640:24764   */\n    tag_662:\n        /* \"#utility.yul\":24717:24723   */\n      0x00\n        /* \"#utility.yul\":24751:24756   */\n      dup2\n        /* \"#utility.yul\":24745:24757   */\n      mload\n        /* \"#utility.yul\":24735:24757   */\n      swap1\n      pop\n        /* \"#utility.yul\":24640:24764   */\n      swap2\n      swap1\n      pop\n      jump\t// out\n        /* \"#utility.yul\":24770:24869   */\n    tag_683:\n        /* \"#utility.yul\":24822:24828   */\n      0x00\n        /* \"#utility.yul\":24856:24861   */\n      dup2\n        /* \"#utility.yul\":24850:24862   */\n      mload\n        /* \"#utility.yul\":24840:24862   */\n      swap1\n      pop\n        /* \"#utility.yul\":24770:24869   */\n      swap2\n      swap1\n      pop\n      jump\t// out\n        /* \"#utility.yul\":24875:24998   */\n    tag_672:\n        /* \"#utility.yul\":24955:24959   */\n      0x00\n        /* \"#utility.yul\":24987:24991   */\n      0x20\n        /* \"#utility.yul\":24982:24985   */\n      dup3\n        /* \"#utility.yul\":24978:24992   */\n      add\n        /* \"#utility.yul\":24970:24992   */\n      swap1\n      pop\n        /* \"#utility.yul\":24875:24998   */\n      swap2\n      swap1\n      pop\n      jump\t// out\n        /* \"#utility.yul\":25004:25198   */\n    tag_664:\n        /* \"#utility.yul\":25113:25124   */\n      0x00\n        /* \"#utility.yul\":25147:25153   */\n      dup3\n        /* \"#utility.yul\":25142:25145   */\n      dup3\n        /* \"#utility.yul\":25135:25154   */\n      mstore\n        /* \"#utility.yul\":25187:25191   */\n      0x20\n        /* \"#utility.yul\":25182:25185   */\n      dup3\n        /* \"#utility.yul\":25178:25192   */\n      add\n        /* \"#utility.yul\":25163:25192   */\n      swap1\n      pop\n        /* \"#utility.yul\":25004:25198   */\n      swap3\n      swap2\n      pop\n      pop\n      jump\t// out\n        /* \"#utility.yul\":25204:25363   */\n    tag_685:\n        /* \"#utility.yul\":25278:25289   */\n      0x00\n        /* \"#utility.yul\":25312:25318   */\n      dup3\n        /* \"#utility.yul\":25307:25310   */\n      dup3\n        /* \"#utility.yul\":25300:25319   */\n      mstore\n        /* \"#utility.yul\":25352:25356   */\n      0x20\n        /* \"#utility.yul\":25347:25350   */\n      dup3\n        /* \"#utility.yul\":25343:25357   */\n      add\n        /* \"#utility.yul\":25328:25357   */\n      swap1\n      pop\n        /* \"#utility.yul\":25204:25363   */\n      swap3\n      swap2\n      pop\n      pop\n      jump\t// out\n        /* \"#utility.yul\":25369:25538   */\n    tag_694:\n        /* \"#utility.yul\":25453:25464   */\n      0x00\n        /* \"#utility.yul\":25487:25493   */\n      dup3\n        /* \"#utility.yul\":25482:25485   */\n      dup3\n        /* \"#utility.yul\":25475:25494   */\n      mstore\n        /* \"#utility.yul\":25527:25531   */\n      0x20\n        /* \"#utility.yul\":25522:25525   */\n      dup3\n        /* \"#utility.yul\":25518:25532   */\n      add\n        /* \"#utility.yul\":25503:25532   */\n      swap1\n      pop\n        /* \"#utility.yul\":25369:25538   */\n      swap3\n      swap2\n      pop\n      pop\n      jump\t// out\n        /* \"#utility.yul\":25544:25692   */\n    tag_701:\n        /* \"#utility.yul\":25646:25657   */\n      0x00\n        /* \"#utility.yul\":25683:25686   */\n      dup2\n        /* \"#utility.yul\":25668:25686   */\n      swap1\n      pop\n        /* \"#utility.yul\":25544:25692   */\n      swap3\n      swap2\n      pop\n      pop\n      jump\t// out\n        /* \"#utility.yul\":25698:26003   */\n    tag_413:\n        /* \"#utility.yul\":25738:25741   */\n      0x00\n        /* \"#utility.yul\":25757:25777   */\n      tag_828\n        /* \"#utility.yul\":25775:25776   */\n      dup3\n        /* \"#utility.yul\":25757:25777   */\n      tag_748\n      jump\t// in\n    tag_828:\n        /* \"#utility.yul\":25752:25777   */\n      swap2\n      pop\n        /* \"#utility.yul\":25791:25811   */\n      tag_829\n        /* \"#utility.yul\":25809:25810   */\n      dup4\n        /* \"#utility.yul\":25791:25811   */\n      tag_748\n      jump\t// in\n    tag_829:\n        /* \"#utility.yul\":25786:25811   */\n      swap3\n      pop\n        /* \"#utility.yul\":25945:25946   */\n      dup3\n        /* \"#utility.yul\":25877:25943   */\n      0xffffffffffffffffffffffffffffffffffffffffffffffffffffffffffffffff\n        /* \"#utility.yul\":25873:25947   */\n      sub\n        /* \"#utility.yul\":25870:25871   */\n      dup3\n        /* \"#utility.yul\":25867:25948   */\n      gt\n        /* \"#utility.yul\":25864:25971   */\n      iszero\n      tag_830\n      jumpi\n        /* \"#utility.yul\":25951:25969   */\n      tag_831\n      tag_832\n      jump\t// in\n    tag_831:\n        /* \"#utility.yul\":25864:25971   */\n    tag_830:\n        /* \"#utility.yul\":25995:25996   */\n      dup3\n        /* \"#utility.yul\":25992:25993   */\n      dup3\n        /* \"#utility.yul\":25988:25997   */\n      add\n        /* \"#utility.yul\":25981:25997   */\n      swap1\n      pop\n        /* \"#utility.yul\":25698:26003   */\n      swap3\n      swap2\n      pop\n      pop\n      jump\t// out\n        /* \"#utility.yul\":26009:26194   */\n    tag_417:\n        /* \"#utility.yul\":26049:26050   */\n      0x00\n        /* \"#utility.yul\":26066:26086   */\n      tag_834\n        /* \"#utility.yul\":26084:26085   */\n      dup3\n        /* \"#utility.yul\":26066:26086   */\n      tag_748\n      jump\t// in\n    tag_834:\n        /* \"#utility.yul\":26061:26086   */\n      swap2\n      pop\n        /* \"#utility.yul\":26100:26120   */\n      tag_835\n        /* \"#utility.yul\":26118:26119   */\n      dup4\n        /* \"#utility.yul\":26100:26120   */\n      tag_748\n      jump\t// in\n    tag_835:\n        /* \"#utility.yul\":26095:26120   */\n      swap3\n      pop\n        /* \"#utility.yul\":26139:26140   */\n      dup3\n        /* \"#utility.yul\":26129:26164   */\n      tag_836\n      jumpi\n        /* \"#utility.yul\":26144:26162   */\n      tag_837\n      tag_838\n      jump\t// in\n    tag_837:\n        /* \"#utility.yul\":26129:26164   */\n    tag_836:\n        /* \"#utility.yul\":26186:26187   */\n      dup3\n        /* \"#utility.yul\":26183:26184   */\n      dup3\n        /* \"#utility.yul\":26179:26188   */\n      div\n        /* \"#utility.yul\":26174:26188   */\n      swap1\n      pop\n        /* \"#utility.yul\":26009:26194   */\n      swap3\n      swap2\n      pop\n      pop\n      jump\t// out\n        /* \"#utility.yul\":26200:26548   */\n    tag_318:\n        /* \"#utility.yul\":26240:26247   */\n      0x00\n        /* \"#utility.yul\":26263:26283   */\n      tag_840\n        /* \"#utility.yul\":26281:26282   */\n      dup3\n        /* \"#utility.yul\":26263:26283   */\n      tag_748\n      jump\t// in\n    tag_840:\n        /* \"#utility.yul\":26258:26283   */\n      swap2\n      pop\n        /* \"#utility.yul\":26297:26317   */\n      tag_841\n        /* \"#utility.yul\":26315:26316   */\n      dup4\n        /* \"#utility.yul\":26297:26317   */\n      tag_748\n      jump\t// in\n    tag_841:\n        /* \"#utility.yul\":26292:26317   */\n      swap3\n      pop\n        /* \"#utility.yul\":26485:26486   */\n      dup2\n        /* \"#utility.yul\":26417:26483   */\n      0xffffffffffffffffffffffffffffffffffffffffffffffffffffffffffffffff\n        /* \"#utility.yul\":26413:26487   */\n      div\n        /* \"#utility.yul\":26410:26411   */\n      dup4\n        /* \"#utility.yul\":26407:26488   */\n      gt\n        /* \"#utility.yul\":26402:26403   */\n      dup3\n        /* \"#utility.yul\":26395:26404   */\n      iszero\n        /* \"#utility.yul\":26388:26405   */\n      iszero\n        /* \"#utility.yul\":26384:26489   */\n      and\n        /* \"#utility.yul\":26381:26512   */\n      iszero\n      tag_842\n      jumpi\n        /* \"#utility.yul\":26492:26510   */\n      tag_843\n      tag_832\n      jump\t// in\n    tag_843:\n        /* \"#utility.yul\":26381:26512   */\n    tag_842:\n        /* \"#utility.yul\":26540:26541   */\n      dup3\n        /* \"#utility.yul\":26537:26538   */\n      dup3\n        /* \"#utility.yul\":26533:26542   */\n      mul\n        /* \"#utility.yul\":26522:26542   */\n      swap1\n      pop\n        /* \"#utility.yul\":26200:26548   */\n      swap3\n      swap2\n      pop\n      pop\n      jump\t// out\n        /* \"#utility.yul\":26554:26650   */\n    tag_658:\n        /* \"#utility.yul\":26591:26598   */\n      0x00\n        /* \"#utility.yul\":26620:26644   */\n      tag_845\n        /* \"#utility.yul\":26638:26643   */\n      dup3\n        /* \"#utility.yul\":26620:26644   */\n      tag_846\n      jump\t// in\n    tag_845:\n        /* \"#utility.yul\":26609:26644   */\n      swap1\n      pop\n        /* \"#utility.yul\":26554:26650   */\n      swap2\n      swap1\n      pop\n      jump\t// out\n        /* \"#utility.yul\":26656:26746   */\n    tag_676:\n        /* \"#utility.yul\":26690:26697   */\n      0x00\n        /* \"#utility.yul\":26733:26738   */\n      dup2\n        /* \"#utility.yul\":26726:26739   */\n      iszero\n        /* \"#utility.yul\":26719:26740   */\n      iszero\n        /* \"#utility.yul\":26708:26740   */\n      swap1\n      pop\n        /* \"#utility.yul\":26656:26746   */\n      swap2\n      swap1\n      pop\n      jump\t// out\n        /* \"#utility.yul\":26752:26829   */\n    tag_680:\n        /* \"#utility.yul\":26789:26796   */\n      0x00\n        /* \"#utility.yul\":26818:26823   */\n      dup2\n        /* \"#utility.yul\":26807:26823   */\n      swap1\n      pop\n        /* \"#utility.yul\":26752:26829   */\n      swap2\n      swap1\n      pop\n      jump\t// out\n        /* \"#utility.yul\":26835:26961   */\n    tag_846:\n        /* \"#utility.yul\":26872:26879   */\n      0x00\n        /* \"#utility.yul\":26912:26954   */\n      0xffffffffffffffffffffffffffffffffffffffff\n        /* \"#utility.yul\":26905:26910   */\n      dup3\n        /* \"#utility.yul\":26901:26955   */\n      and\n        /* \"#utility.yul\":26890:26955   */\n      swap1\n      pop\n        /* \"#utility.yul\":26835:26961   */\n      swap2\n      swap1\n      pop\n      jump\t// out\n        /* \"#utility.yul\":26967:27044   */\n    tag_748:\n        /* \"#utility.yul\":27004:27011   */\n      0x00\n        /* \"#utility.yul\":27033:27038   */\n      dup2\n        /* \"#utility.yul\":27022:27038   */\n      swap1\n      pop\n        /* \"#utility.yul\":26967:27044   */\n      swap2\n      swap1\n      pop\n      jump\t// out\n        /* \"#utility.yul\":27050:27204   */\n    tag_555:\n        /* \"#utility.yul\":27134:27140   */\n      dup3\n        /* \"#utility.yul\":27129:27132   */\n      dup2\n        /* \"#utility.yul\":27124:27127   */\n      dup4\n        /* \"#utility.yul\":27111:27141   */\n      calldatacopy\n        /* \"#utility.yul\":27196:27197   */\n      0x00\n        /* \"#utility.yul\":27187:27193   */\n      dup4\n        /* \"#utility.yul\":27182:27185   */\n      dup4\n        /* \"#utility.yul\":27178:27194   */\n      add\n        /* \"#utility.yul\":27171:27198   */\n      mstore\n        /* \"#utility.yul\":27050:27204   */\n      pop\n      pop\n      pop\n      jump\t// out\n        /* \"#utility.yul\":27210:27517   */\n    tag_687:\n        /* \"#utility.yul\":27278:27279   */\n      0x00\n        /* \"#utility.yul\":27288:27401   */\n    tag_853:\n        /* \"#utility.yul\":27302:27308   */\n      dup4\n        /* \"#utility.yul\":27299:27300   */\n      dup2\n        /* \"#utility.yul\":27296:27309   */\n      lt\n        /* \"#utility.yul\":27288:27401   */\n      iszero\n      tag_855\n      jumpi\n        /* \"#utility.yul\":27387:27388   */\n      dup1\n        /* \"#utility.yul\":27382:27385   */\n      dup3\n        /* \"#utility.yul\":27378:27389   */\n      add\n        /* \"#utility.yul\":27372:27390   */\n      mload\n        /* \"#utility.yul\":27368:27369   */\n      dup2\n        /* \"#utility.yul\":27363:27366   */\n      dup5\n        /* \"#utility.yul\":27359:27370   */\n      add\n        /* \"#utility.yul\":27352:27391   */\n      mstore\n        /* \"#utility.yul\":27324:27326   */\n      0x20\n        /* \"#utility.yul\":27321:27322   */\n      dup2\n        /* \"#utility.yul\":27317:27327   */\n      add\n        /* \"#utility.yul\":27312:27327   */\n      swap1\n      pop\n        /* \"#utility.yul\":27288:27401   */\n      jump(tag_853)\n    tag_855:\n        /* \"#utility.yul\":27419:27425   */\n      dup4\n        /* \"#utility.yul\":27416:27417   */\n      dup2\n        /* \"#utility.yul\":27413:27426   */\n      gt\n        /* \"#utility.yul\":27410:27511   */\n      iszero\n      tag_856\n      jumpi\n        /* \"#utility.yul\":27499:27500   */\n      0x00\n        /* \"#utility.yul\":27490:27496   */\n      dup5\n        /* \"#utility.yul\":27485:27488   */\n      dup5\n        /* \"#utility.yul\":27481:27497   */\n      add\n        /* \"#utility.yul\":27474:27501   */\n      mstore\n        /* \"#utility.yul\":27410:27511   */\n    tag_856:\n        /* \"#utility.yul\":27259:27517   */\n      pop\n        /* \"#utility.yul\":27210:27517   */\n      pop\n      pop\n      pop\n      jump\t// out\n        /* \"#utility.yul\":27523:27843   */\n    tag_236:\n        /* \"#utility.yul\":27567:27573   */\n      0x00\n        /* \"#utility.yul\":27604:27605   */\n      0x02\n        /* \"#utility.yul\":27598:27602   */\n      dup3\n        /* \"#utility.yul\":27594:27606   */\n      div\n        /* \"#utility.yul\":27584:27606   */\n      swap1\n      pop\n        /* \"#utility.yul\":27651:27652   */\n      0x01\n        /* \"#utility.yul\":27645:27649   */\n      dup3\n        /* \"#utility.yul\":27641:27653   */\n      and\n        /* \"#utility.yul\":27672:27690   */\n      dup1\n        /* \"#utility.yul\":27662:27743   */\n      tag_858\n      jumpi\n        /* \"#utility.yul\":27728:27732   */\n      0x7f\n        /* \"#utility.yul\":27720:27726   */\n      dup3\n        /* \"#utility.yul\":27716:27733   */\n      and\n        /* \"#utility.yul\":27706:27733   */\n      swap2\n      pop\n        /* \"#utility.yul\":27662:27743   */\n    tag_858:\n        /* \"#utility.yul\":27790:27792   */\n      0x20\n        /* \"#utility.yul\":27782:27788   */\n      dup3\n        /* \"#utility.yul\":27779:27793   */\n      lt\n        /* \"#utility.yul\":27759:27777   */\n      dup2\n        /* \"#utility.yul\":27756:27794   */\n      eq\n        /* \"#utility.yul\":27753:27837   */\n      iszero\n      tag_859\n      jumpi\n        /* \"#utility.yul\":27809:27827   */\n      tag_860\n      tag_861\n      jump\t// in\n    tag_860:\n        /* \"#utility.yul\":27753:27837   */\n    tag_859:\n        /* \"#utility.yul\":27574:27843   */\n      pop\n        /* \"#utility.yul\":27523:27843   */\n      swap2\n      swap1\n      pop\n      jump\t// out\n        /* \"#utility.yul\":27849:28130   */\n    tag_808:\n        /* \"#utility.yul\":27932:27959   */\n      tag_863\n        /* \"#utility.yul\":27954:27958   */\n      dup3\n        /* \"#utility.yul\":27932:27959   */\n      tag_689\n      jump\t// in\n    tag_863:\n        /* \"#utility.yul\":27924:27930   */\n      dup2\n        /* \"#utility.yul\":27920:27960   */\n      add\n        /* \"#utility.yul\":28062:28068   */\n      dup2\n        /* \"#utility.yul\":28050:28060   */\n      dup2\n        /* \"#utility.yul\":28047:28069   */\n      lt\n        /* \"#utility.yul\":28026:28044   */\n      0xffffffffffffffff\n        /* \"#utility.yul\":28014:28024   */\n      dup3\n        /* \"#utility.yul\":28011:28045   */\n      gt\n        /* \"#utility.yul\":28008:28070   */\n      or\n        /* \"#utility.yul\":28005:28093   */\n      iszero\n      tag_864\n      jumpi\n        /* \"#utility.yul\":28073:28091   */\n      tag_865\n      tag_813\n      jump\t// in\n    tag_865:\n        /* \"#utility.yul\":28005:28093   */\n    tag_864:\n        /* \"#utility.yul\":28113:28123   */\n      dup1\n        /* \"#utility.yul\":28109:28111   */\n      0x40\n        /* \"#utility.yul\":28102:28124   */\n      mstore\n        /* \"#utility.yul\":27892:28130   */\n      pop\n        /* \"#utility.yul\":27849:28130   */\n      pop\n      pop\n      jump\t// out\n        /* \"#utility.yul\":28136:28369   */\n    tag_263:\n        /* \"#utility.yul\":28175:28178   */\n      0x00\n        /* \"#utility.yul\":28198:28222   */\n      tag_867\n        /* \"#utility.yul\":28216:28221   */\n      dup3\n        /* \"#utility.yul\":28198:28222   */\n      tag_748\n      jump\t// in\n    tag_867:\n        /* \"#utility.yul\":28189:28222   */\n      swap2\n      pop\n        /* \"#utility.yul\":28244:28310   */\n      0xffffffffffffffffffffffffffffffffffffffffffffffffffffffffffffffff\n        /* \"#utility.yul\":28237:28242   */\n      dup3\n        /* \"#utility.yul\":28234:28311   */\n      eq\n        /* \"#utility.yul\":28231:28334   */\n      iszero\n      tag_868\n      jumpi\n        /* \"#utility.yul\":28314:28332   */\n      tag_869\n      tag_832\n      jump\t// in\n    tag_869:\n        /* \"#utility.yul\":28231:28334   */\n    tag_868:\n        /* \"#utility.yul\":28361:28362   */\n      0x01\n        /* \"#utility.yul\":28354:28359   */\n      dup3\n        /* \"#utility.yul\":28350:28363   */\n      add\n        /* \"#utility.yul\":28343:28363   */\n      swap1\n      pop\n        /* \"#utility.yul\":28136:28369   */\n      swap2\n      swap1\n      pop\n      jump\t// out\n        /* \"#utility.yul\":28375:28555   */\n    tag_832:\n        /* \"#utility.yul\":28423:28500   */\n      0x4e487b7100000000000000000000000000000000000000000000000000000000\n        /* \"#utility.yul\":28420:28421   */\n      0x00\n        /* \"#utility.yul\":28413:28501   */\n      mstore\n        /* \"#utility.yul\":28520:28524   */\n      0x11\n        /* \"#utility.yul\":28517:28518   */\n      0x04\n        /* \"#utility.yul\":28510:28525   */\n      mstore\n        /* \"#utility.yul\":28544:28548   */\n      0x24\n        /* \"#utility.yul\":28541:28542   */\n      0x00\n        /* \"#utility.yul\":28534:28549   */\n      revert\n        /* \"#utility.yul\":28561:28741   */\n    tag_838:\n        /* \"#utility.yul\":28609:28686   */\n      0x4e487b7100000000000000000000000000000000000000000000000000000000\n        /* \"#utility.yul\":28606:28607   */\n      0x00\n        /* \"#utility.yul\":28599:28687   */\n      mstore\n        /* \"#utility.yul\":28706:28710   */\n      0x12\n        /* \"#utility.yul\":28703:28704   */\n      0x04\n        /* \"#utility.yul\":28696:28711   */\n      mstore\n        /* \"#utility.yul\":28730:28734   */\n      0x24\n        /* \"#utility.yul\":28727:28728   */\n      0x00\n        /* \"#utility.yul\":28720:28735   */\n      revert\n        /* \"#utility.yul\":28747:28927   */\n    tag_861:\n        /* \"#utility.yul\":28795:28872   */\n      0x4e487b7100000000000000000000000000000000000000000000000000000000\n        /* \"#utility.yul\":28792:28793   */\n      0x00\n        /* \"#utility.yul\":28785:28873   */\n      mstore\n        /* \"#utility.yul\":28892:28896   */\n      0x22\n        /* \"#utility.yul\":28889:28890   */\n      0x04\n        /* \"#utility.yul\":28882:28897   */\n      mstore\n        /* \"#utility.yul\":28916:28920   */\n      0x24\n        /* \"#utility.yul\":28913:28914   */\n      0x00\n        /* \"#utility.yul\":28906:28921   */\n      revert\n        /* \"#utility.yul\":28933:29113   */\n    tag_247:\n        /* \"#utility.yul\":28981:29058   */\n      0x4e487b7100000000000000000000000000000000000000000000000000000000\n        /* \"#utility.yul\":28978:28979   */\n      0x00\n        /* \"#utility.yul\":28971:29059   */\n      mstore\n        /* \"#utility.yul\":29078:29082   */\n      0x32\n        /* \"#utility.yul\":29075:29076   */\n      0x04\n        /* \"#utility.yul\":29068:29083   */\n      mstore\n        /* \"#utility.yul\":29102:29106   */\n      0x24\n        /* \"#utility.yul\":29099:29100   */\n      0x00\n        /* \"#utility.yul\":29092:29107   */\n      revert\n        /* \"#utility.yul\":29119:29299   */\n    tag_813:\n        /* \"#utility.yul\":29167:29244   */\n      0x4e487b7100000000000000000000000000000000000000000000000000000000\n        /* \"#utility.yul\":29164:29165   */\n      0x00\n        /* \"#utility.yul\":29157:29245   */\n      mstore\n        /* \"#utility.yul\":29264:29268   */\n      0x41\n        /* \"#utility.yul\":29261:29262   */\n      0x04\n        /* \"#utility.yul\":29254:29269   */\n      mstore\n        /* \"#utility.yul\":29288:29292   */\n      0x24\n        /* \"#utility.yul\":29285:29286   */\n      0x00\n        /* \"#utility.yul\":29278:29293   */\n      revert\n        /* \"#utility.yul\":29305:29422   */\n    tag_543:\n        /* \"#utility.yul\":29414:29415   */\n      0x00\n        /* \"#utility.yul\":29411:29412   */\n      dup1\n        /* \"#utility.yul\":29404:29416   */\n      revert\n        /* \"#utility.yul\":29428:29545   */\n    tag_537:\n        /* \"#utility.yul\":29537:29538   */\n      0x00\n        /* \"#utility.yul\":29534:29535   */\n      dup1\n        /* \"#utility.yul\":29527:29539   */\n      revert\n        /* \"#utility.yul\":29551:29668   */\n    tag_553:\n        /* \"#utility.yul\":29660:29661   */\n      0x00\n        /* \"#utility.yul\":29657:29658   */\n      dup1\n        /* \"#utility.yul\":29650:29662   */\n      revert\n        /* \"#utility.yul\":29674:29791   */\n    tag_592:\n        /* \"#utility.yul\":29783:29784   */\n      0x00\n        /* \"#utility.yul\":29780:29781   */\n      dup1\n        /* \"#utility.yul\":29773:29785   */\n      revert\n        /* \"#utility.yul\":29797:29914   */\n    tag_584:\n        /* \"#utility.yul\":29906:29907   */\n      0x00\n        /* \"#utility.yul\":29903:29904   */\n      dup1\n        /* \"#utility.yul\":29896:29908   */\n      revert\n        /* \"#utility.yul\":29920:30022   */\n    tag_689:\n        /* \"#utility.yul\":29961:29967   */\n      0x00\n        /* \"#utility.yul\":30012:30014   */\n      0x1f\n        /* \"#utility.yul\":30008:30015   */\n      not\n        /* \"#utility.yul\":30003:30005   */\n      0x1f\n        /* \"#utility.yul\":29996:30001   */\n      dup4\n        /* \"#utility.yul\":29992:30006   */\n      add\n        /* \"#utility.yul\":29988:30016   */\n      and\n        /* \"#utility.yul\":29978:30016   */\n      swap1\n      pop\n        /* \"#utility.yul\":29920:30022   */\n      swap2\n      swap1\n      pop\n      jump\t// out\n        /* \"#utility.yul\":30028:30203   */\n    tag_719:\n        /* \"#utility.yul\":30168:30195   */\n      0x4572726f723a205573657220616c726561647920657869737400000000000000\n        /* \"#utility.yul\":30164:30165   */\n      0x00\n        /* \"#utility.yul\":30156:30162   */\n      dup3\n        /* \"#utility.yul\":30152:30166   */\n      add\n        /* \"#utility.yul\":30145:30196   */\n      mstore\n        /* \"#utility.yul\":30028:30203   */\n      pop\n      jump\t// out\n        /* \"#utility.yul\":30209:30382   */\n    tag_724:\n        /* \"#utility.yul\":30349:30374   */\n      0x4572726f723a20496e76616c69642070617373776f7264000000000000000000\n        /* \"#utility.yul\":30345:30346   */\n      0x00\n        /* \"#utility.yul\":30337:30343   */\n      dup3\n        /* \"#utility.yul\":30333:30347   */\n      add\n        /* \"#utility.yul\":30326:30375   */\n      mstore\n        /* \"#utility.yul\":30209:30382   */\n      pop\n      jump\t// out\n        /* \"#utility.yul\":30388:30563   */\n    tag_729:\n        /* \"#utility.yul\":30528:30555   */\n      0x4572726f723a205573657220646f65736e277420657869737400000000000000\n        /* \"#utility.yul\":30524:30525   */\n      0x00\n        /* \"#utility.yul\":30516:30522   */\n      dup3\n        /* \"#utility.yul\":30512:30526   */\n      add\n        /* \"#utility.yul\":30505:30556   */\n      mstore\n        /* \"#utility.yul\":30388:30563   */\n      pop\n      jump\t// out\n        /* \"#utility.yul\":30569:30735   */\n    tag_734:\n        /* \"#utility.yul\":30709:30727   */\n      0x6572726f723a206e6f74206d6f6e657900000000000000000000000000000000\n        /* \"#utility.yul\":30705:30706   */\n      0x00\n        /* \"#utility.yul\":30697:30703   */\n      dup3\n        /* \"#utility.yul\":30693:30707   */\n      add\n        /* \"#utility.yul\":30686:30728   */\n      mstore\n        /* \"#utility.yul\":30569:30735   */\n      pop\n      jump\t// out\n        /* \"#utility.yul\":30741:30920   */\n    tag_739:\n        /* \"#utility.yul\":30881:30912   */\n      0x4572726f723a20596f752061726520616c7265616479206c6f67676564000000\n        /* \"#utility.yul\":30877:30878   */\n      0x00\n        /* \"#utility.yul\":30869:30875   */\n      dup3\n        /* \"#utility.yul\":30865:30879   */\n      add\n        /* \"#utility.yul\":30858:30913   */\n      mstore\n        /* \"#utility.yul\":30741:30920   */\n      pop\n      jump\t// out\n        /* \"#utility.yul\":30926:31146   */\n    tag_744:\n        /* \"#utility.yul\":31066:31100   */\n      0x6572726f723a20726174696e672063616e2062652066726f6d203120746f2031\n        /* \"#utility.yul\":31062:31063   */\n      0x00\n        /* \"#utility.yul\":31054:31060   */\n      dup3\n        /* \"#utility.yul\":31050:31064   */\n      add\n        /* \"#utility.yul\":31043:31101   */\n      mstore\n        /* \"#utility.yul\":31135:31138   */\n      0x3000000000000000000000000000000000000000000000000000000000000000\n        /* \"#utility.yul\":31130:31132   */\n      0x20\n        /* \"#utility.yul\":31122:31128   */\n      dup3\n        /* \"#utility.yul\":31118:31133   */\n      add\n        /* \"#utility.yul\":31111:31139   */\n      mstore\n        /* \"#utility.yul\":30926:31146   */\n      pop\n      jump\t// out\n        /* \"#utility.yul\":31152:31274   */\n    tag_559:\n        /* \"#utility.yul\":31225:31249   */\n      tag_888\n        /* \"#utility.yul\":31243:31248   */\n      dup2\n        /* \"#utility.yul\":31225:31249   */\n      tag_658\n      jump\t// in\n    tag_888:\n        /* \"#utility.yul\":31218:31223   */\n      dup2\n        /* \"#utility.yul\":31215:31250   */\n      eq\n        /* \"#utility.yul\":31205:31268   */\n      tag_889\n      jumpi\n        /* \"#utility.yul\":31264:31265   */\n      0x00\n        /* \"#utility.yul\":31261:31262   */\n      dup1\n        /* \"#utility.yul\":31254:31266   */\n      revert\n        /* \"#utility.yul\":31205:31268   */\n    tag_889:\n        /* \"#utility.yul\":31152:31274   */\n      pop\n      jump\t// out\n        /* \"#utility.yul\":31280:31396   */\n    tag_568:\n        /* \"#utility.yul\":31350:31371   */\n      tag_891\n        /* \"#utility.yul\":31365:31370   */\n      dup2\n        /* \"#utility.yul\":31350:31371   */\n      tag_676\n      jump\t// in\n    tag_891:\n        /* \"#utility.yul\":31343:31348   */\n      dup2\n        /* \"#utility.yul\":31340:31372   */\n      eq\n        /* \"#utility.yul\":31330:31390   */\n      tag_892\n      jumpi\n        /* \"#utility.yul\":31386:31387   */\n      0x00\n        /* \"#utility.yul\":31383:31384   */\n      dup1\n        /* \"#utility.yul\":31376:31388   */\n      revert\n        /* \"#utility.yul\":31330:31390   */\n    tag_892:\n        /* \"#utility.yul\":31280:31396   */\n      pop\n      jump\t// out\n        /* \"#utility.yul\":31402:31524   */\n    tag_572:\n        /* \"#utility.yul\":31475:31499   */\n      tag_894\n        /* \"#utility.yul\":31493:31498   */\n      dup2\n        /* \"#utility.yul\":31475:31499   */\n      tag_680\n      jump\t// in\n    tag_894:\n        /* \"#utility.yul\":31468:31473   */\n      dup2\n        /* \"#utility.yul\":31465:31500   */\n      eq\n        /* \"#utility.yul\":31455:31518   */\n      tag_895\n      jumpi\n        /* \"#utility.yul\":31514:31515   */\n      0x00\n        /* \"#utility.yul\":31511:31512   */\n      dup1\n        /* \"#utility.yul\":31504:31516   */\n      revert\n        /* \"#utility.yul\":31455:31518   */\n    tag_895:\n        /* \"#utility.yul\":31402:31524   */\n      pop\n      jump\t// out\n        /* \"#utility.yul\":31530:31652   */\n    tag_580:\n        /* \"#utility.yul\":31603:31627   */\n      tag_897\n        /* \"#utility.yul\":31621:31626   */\n      dup2\n        /* \"#utility.yul\":31603:31627   */\n      tag_748\n      jump\t// in\n    tag_897:\n        /* \"#utility.yul\":31596:31601   */\n      dup2\n        /* \"#utility.yul\":31593:31628   */\n      eq\n        /* \"#utility.yul\":31583:31646   */\n      tag_898\n      jumpi\n        /* \"#utility.yul\":31642:31643   */\n      0x00\n        /* \"#utility.yul\":31639:31640   */\n      dup1\n        /* \"#utility.yul\":31632:31644   */\n      revert\n        /* \"#utility.yul\":31583:31646   */\n    tag_898:\n        /* \"#utility.yul\":31530:31652   */\n      pop\n      jump\t// out\n\n    auxdata: 0xa2646970667358221220427b018d9279fbaf75f0ecda4e6291eabfa65306c4754102fd10254c2bbf7d9d64736f6c63430008070033\n}\n",
				"bytecode": {
					"linkReferences": {},
					"object": "60806040526000600d553480156200001657600080fd5b50735412e9b0e4ef9d1546df79ae907eee34bdcf300460016040516200003c9062000b54565b908152602001604051809103902060006101000a81548173ffffffffffffffffffffffffffffffffffffffff021916908373ffffffffffffffffffffffffffffffffffffffff1602179055506040518060e001604052806040518060400160405280600481526020017f42656572000000000000000000000000000000000000000000000000000000008152508152602001620001146040518060400160405280600181526020017f3200000000000000000000000000000000000000000000000000000000000000815250620008e760201b60201c565b8152602001600381526020016000151581526020016040518060400160405280600181526020017f310000000000000000000000000000000000000000000000000000000000000081525081526020016040518060400160405280600681526020017f4d6f73636f77000000000000000000000000000000000000000000000000000081525081526020016000815250600080735412e9b0e4ef9d1546df79ae907eee34bdcf300473ffffffffffffffffffffffffffffffffffffffff1673ffffffffffffffffffffffffffffffffffffffff16815260200190815260200160002060008201518160000190805190602001906200021492919062000919565b50602082015181600101556040820151816002015560608201518160030160006101000a81548160ff02191690831515021790555060808201518160040190805190602001906200026792919062000919565b5060a08201518160050190805190602001906200028692919062000919565b5060c082015181600601559050506002600080735412e9b0e4ef9d1546df79ae907eee34bdcf300473ffffffffffffffffffffffffffffffffffffffff1673ffffffffffffffffffffffffffffffffffffffff168152602001908152602001600020600001908060018154018082558091505060019003906000526020600020016000909190919091509080546200031e9062000bb7565b6200032b929190620009aa565b507349c364fedad517382ee5a776d3071f11cfde4c5c6001604051620003519062000b3d565b908152602001604051809103902060006101000a81548173ffffffffffffffffffffffffffffffffffffffff021916908373ffffffffffffffffffffffffffffffffffffffff1602179055506040518060e001604052806040518060400160405280600781526020017f50726f64756374000000000000000000000000000000000000000000000000008152508152602001620004296040518060400160405280600181526020017f3200000000000000000000000000000000000000000000000000000000000000815250620008e760201b60201c565b8152602001600381526020016000151581526020016040518060400160405280600181526020017f320000000000000000000000000000000000000000000000000000000000000081525081526020016040518060400160405280600a81526020017f5065746572736275726700000000000000000000000000000000000000000000815250815260200160008152506000807349c364fedad517382ee5a776d3071f11cfde4c5c73ffffffffffffffffffffffffffffffffffffffff1673ffffffffffffffffffffffffffffffffffffffff16815260200190815260200160002060008201518160000190805190602001906200052992919062000919565b50602082015181600101556040820151816002015560608201518160030160006101000a81548160ff02191690831515021790555060808201518160040190805190602001906200057c92919062000919565b5060a08201518160050190805190602001906200059b92919062000919565b5060c0820151816006015590505060026000807349c364fedad517382ee5a776d3071f11cfde4c5c73ffffffffffffffffffffffffffffffffffffffff1673ffffffffffffffffffffffffffffffffffffffff16815260200190815260200160002060000190806001815401808255809150506001900390600052602060002001600090919091909150908054620006339062000bb7565b62000640929190620009aa565b5073ada67460cf329d12c1ed898710cc8da5d40d80256005604051620006669062000b26565b908152602001604051809103902060006101000a81548173ffffffffffffffffffffffffffffffffffffffff021916908373ffffffffffffffffffffffffffffffffffffffff16021790555060405180608001604052806040518060400160405280600481526020017f506574610000000000000000000000000000000000000000000000000000000081525081526020016200073e6040518060400160405280600181526020017f3300000000000000000000000000000000000000000000000000000000000000815250620008e760201b60201c565b815260200160028152602001600015158152506004600073ada67460cf329d12c1ed898710cc8da5d40d802573ffffffffffffffffffffffffffffffffffffffff1673ffffffffffffffffffffffffffffffffffffffff1681526020019081526020016000206000820151816000019080519060200190620007c292919062000919565b50602082015181600101556040820151816002015560608201518160030160006101000a81548160ff021916908315150217905550905050600680600181540180825580915050600190039060005260206000200160006040518060400160405280600481526020017f5065746100000000000000000000000000000000000000000000000000000000815250909190915090805190602001906200086992919062000919565b50600773ada67460cf329d12c1ed898710cc8da5d40d80259080600181540180825580915050600190039060005260206000200160009091909190916101000a81548173ffffffffffffffffffffffffffffffffffffffff021916908373ffffffffffffffffffffffffffffffffffffffff16021790555062000c97565b600081604051602001620008fc919062000b0d565b604051602081830303815290604052805190602001209050919050565b828054620009279062000bb7565b90600052602060002090601f0160209004810192826200094b576000855562000997565b82601f106200096657805160ff191683800117855562000997565b8280016001018555821562000997579182015b828111156200099657825182559160200191906001019062000979565b5b509050620009a6919062000a42565b5090565b828054620009b89062000bb7565b90600052602060002090601f016020900481019282620009dc576000855562000a2f565b82601f10620009ef578054855562000a2f565b8280016001018555821562000a2f57600052602060002091601f016020900482015b8281111562000a2e57825482559160010191906001019062000a11565b5b50905062000a3e919062000a42565b5090565b5b8082111562000a5d57600081600090555060010162000a43565b5090565b600062000a6e8262000b6b565b62000a7a818562000b76565b935062000a8c81856020860162000b81565b80840191505092915050565b600062000aa760048362000b76565b915062000ab48262000c1c565b600482019050919050565b600062000ace60078362000b76565b915062000adb8262000c45565b600782019050919050565b600062000af560048362000b76565b915062000b028262000c6e565b600482019050919050565b600062000b1b828462000a61565b915081905092915050565b600062000b338262000a98565b9150819050919050565b600062000b4a8262000abf565b9150819050919050565b600062000b618262000ae6565b9150819050919050565b600081519050919050565b600081905092915050565b60005b8381101562000ba157808201518184015260208101905062000b84565b8381111562000bb1576000848401525b50505050565b6000600282049050600182168062000bd057607f821691505b6020821081141562000be75762000be662000bed565b5b50919050565b7f4e487b7100000000000000000000000000000000000000000000000000000000600052602260045260246000fd5b7f5065746100000000000000000000000000000000000000000000000000000000600082015250565b7f50726f6475637400000000000000000000000000000000000000000000000000600082015250565b7f4265657200000000000000000000000000000000000000000000000000000000600082015250565b6140c78062000ca76000396000f3fe6080604052600436106101ee5760003560e01c80636ba44d3c1161010d578063a985036d116100a0578063cc21c1881161006f578063cc21c18814610792578063d22d9020146107bb578063d68cf8c1146107e4578063dce3915114610824578063f7647f3614610864576101ee565b8063a985036d146106b0578063a9f9482b146106ed578063bbd433631461072c578063c4957fa014610755576101ee565b8063845952a8116100dc578063845952a8146105c757806387048043146106045780638e23cb401461062d578063961865f014610670576101ee565b80636ba44d3c146104f95780636c05dd1d1461053657806373b62bd01461055f578063775eb9e61461059e576101ee565b80632ccdef7c116101855780635828c584116101545780635828c5841461042b5780635bbc9a3f146104545780635bd37c9e146104915780635bdb63fa146104bc576101ee565b80632ccdef7c1461036c5780633b84aedc14610388578063521b9170146103c557806355149fd5146103ee576101ee565b80631bbe970a116101c15780631bbe970a1461029e5780631e279a37146102db5780631f8daac81461031857806329e795f314610343576101ee565b8063033ff0b8146101f357806304ac16f6146102305780630e1c81b214610259578063146dc6ed14610282575b600080fd5b3480156101ff57600080fd5b5061021a600480360381019061021591906131fe565b610880565b6040516102279190613ac0565b60405180910390f35b34801561023c57600080fd5b50610257600480360381019061025291906131fe565b610909565b005b34801561026557600080fd5b50610280600480360381019061027b919061318f565b6109a4565b005b61029c600480360381019061029791906131fe565b610bce565b005b3480156102aa57600080fd5b506102c560048036038101906102c091906131fe565b610d29565b6040516102d291906137c5565b60405180910390f35b3480156102e757600080fd5b5061030260048036038101906102fd9190613162565b610d72565b60405161030f9190613ac0565b60405180910390f35b34801561032457600080fd5b5061032d610d98565b60405161033a91906138b6565b60405180910390f35b34801561034f57600080fd5b5061036a60048036038101906103659190613247565b610e71565b005b6103866004803603810190610381919061345e565b610fdb565b005b34801561039457600080fd5b506103af60048036038101906103aa91906131fe565b61113f565b6040516103bc91906138d8565b60405180910390f35b3480156103d157600080fd5b506103ec60048036038101906103e791906131fe565b6111d5565b005b3480156103fa57600080fd5b50610415600480360381019061041091906131fe565b611271565b604051610422919061390e565b60405180910390f35b34801561043757600080fd5b50610452600480360381019061044d91906131fe565b611382565b005b34801561046057600080fd5b5061047b600480360381019061047691906131fe565b61146a565b60405161048891906138d8565b60405180910390f35b34801561049d57600080fd5b506104a6611501565b6040516104b391906138b6565b60405180910390f35b3480156104c857600080fd5b506104e360048036038101906104de91906131fe565b6115da565b6040516104f09190613ac0565b60405180910390f35b34801561050557600080fd5b50610520600480360381019061051b91906131fe565b611664565b60405161052d91906137c5565b60405180910390f35b34801561054257600080fd5b5061055d600480360381019061055891906133a6565b61176a565b005b34801561056b57600080fd5b5061058660048036038101906105819190613431565b6118a8565b604051610595939291906137e0565b60405180910390f35b3480156105aa57600080fd5b506105c560048036038101906105c091906132bf565b611997565b005b3480156105d357600080fd5b506105ee60048036038101906105e991906131fe565b611c75565b6040516105fb91906138f3565b60405180910390f35b34801561061057600080fd5b5061062b6004803603810190610626919061345e565b611ca5565b005b34801561063957600080fd5b50610654600480360381019061064f9190613162565b611e09565b604051610667979695949392919061397c565b60405180910390f35b34801561067c57600080fd5b5061069760048036038101906106929190613162565b611ff0565b6040516106a79493929190613930565b60405180910390f35b3480156106bc57600080fd5b506106d760048036038101906106d291906131fe565b6120b5565b6040516106e49190613ac0565b60405180910390f35b3480156106f957600080fd5b50610714600480360381019061070f9190613431565b6122d5565b604051610723939291906137e0565b60405180910390f35b34801561073857600080fd5b50610753600480360381019061074e91906131fe565b6123c4565b005b34801561076157600080fd5b5061077c600480360381019061077791906131fe565b6124ac565b60405161078991906137c5565b60405180910390f35b34801561079e57600080fd5b506107b960048036038101906107b4919061331b565b6124f5565b005b3480156107c757600080fd5b506107e260048036038101906107dd91906132bf565b612801565b005b3480156107f057600080fd5b5061080b600480360381019061080691906131fe565b612ae2565b60405161081b949392919061386a565b60405180910390f35b34801561083057600080fd5b5061084b60048036038101906108469190613431565b612bd0565b60405161085b949392919061381e565b60405180910390f35b61087e6004803603810190610879919061349e565b612cc5565b005b60008060006001846040516108959190613797565b908152602001604051809103902060009054906101000a900473ffffffffffffffffffffffffffffffffffffffff1673ffffffffffffffffffffffffffffffffffffffff1673ffffffffffffffffffffffffffffffffffffffff168152602001908152602001600020600201549050919050565b600080600060018460405161091e9190613797565b908152602001604051809103902060009054906101000a900473ffffffffffffffffffffffffffffffffffffffff1673ffffffffffffffffffffffffffffffffffffffff1673ffffffffffffffffffffffffffffffffffffffff16815260200190815260200160002060030160006101000a81548160ff02191690831515021790555050565b600073ffffffffffffffffffffffffffffffffffffffff166005836040516109cc9190613797565b908152602001604051809103902060009054906101000a900473ffffffffffffffffffffffffffffffffffffffff1673ffffffffffffffffffffffffffffffffffffffff1614610a51576040517f08c379a0000000000000000000000000000000000000000000000000000000008152600401610a4890613a00565b60405180910390fd5b60405180608001604052808381526020018281526020016002815260200160001515815250600460008573ffffffffffffffffffffffffffffffffffffffff1673ffffffffffffffffffffffffffffffffffffffff1681526020019081526020016000206000820151816000019080519060200190610ad1929190612e7b565b50602082015181600101556040820151816002015560608201518160030160006101000a81548160ff02191690831515021790555090505082600583604051610b1a9190613797565b908152602001604051809103902060006101000a81548173ffffffffffffffffffffffffffffffffffffffff021916908373ffffffffffffffffffffffffffffffffffffffff1602179055506007839080600181540180825580915050600190039060005260206000200160009091909190916101000a81548173ffffffffffffffffffffffffffffffffffffffff021916908373ffffffffffffffffffffffffffffffffffffffff160217905550505050565b600881604051610bde9190613797565b9081526020016040518091039020600201543414610c31576040517f08c379a0000000000000000000000000000000000000000000000000000000008152600401610c2890613a60565b60405180910390fd5b600a60405180608001604052803373ffffffffffffffffffffffffffffffffffffffff16815260200183815260200134815260200160011515815250908060018154018082558091505060019003906000526020600020906004020160009091909190915060008201518160000160006101000a81548173ffffffffffffffffffffffffffffffffffffffff021916908373ffffffffffffffffffffffffffffffffffffffff1602179055506020820151816001019080519060200190610cf9929190612e7b565b506040820151816002015560608201518160030160006101000a81548160ff021916908315150217905550505050565b6005818051602081018201805184825260208301602085012081835280955050505050506000915054906101000a900473ffffffffffffffffffffffffffffffffffffffff1681565b6000808273ffffffffffffffffffffffffffffffffffffffff1631905080915050919050565b60606002805480602002602001604051908101604052809291908181526020016000905b82821015610e68578382906000526020600020018054610ddb90613d58565b80601f0160208091040260200160405190810160405280929190818152602001828054610e0790613d58565b8015610e545780601f10610e2957610100808354040283529160200191610e54565b820191906000526020600020905b815481529060010190602001808311610e3757829003601f168201915b505050505081526020019060010190610dbc565b50505050905090565b60005b600380549050811015610fd657600060038281548110610e9757610e96613e91565b5b90600052602060002090600502016001018054610eb390613d58565b80601f0160208091040260200160405190810160405280929190818152602001828054610edf90613d58565b8015610f2c5780601f10610f0157610100808354040283529160200191610f2c565b820191906000526020600020905b815481529060010190602001808311610f0f57829003601f168201915b5050505050905083604051602001610f449190613797565b6040516020818303038152906040528051906020012081604051602001610f6b9190613797565b604051602081830303815290604052805190602001201415610fc2578260038381548110610f9c57610f9b613e91565b5b90600052602060002090600502016004019080519060200190610fc0929190612f01565b505b508080610fce90613dbb565b915050610e74565b505050565b6001151581151514156110fc57600b8281548110610ffc57610ffb613e91565b5b906000526020600020906003020160000160009054906101000a900473ffffffffffffffffffffffffffffffffffffffff1673ffffffffffffffffffffffffffffffffffffffff166108fc6008600b858154811061105d5761105c613e91565b5b906000526020600020906003020160010160405161107b91906137ae565b9081526020016040518091039020600201549081150290604051600060405180830381858888f193505050501580156110b8573d6000803e3d6000fd5b506000600b83815481106110cf576110ce613e91565b5b906000526020600020906003020160020160006101000a81548160ff02191690831515021790555061113b565b6000600b838154811061111257611111613e91565b5b906000526020600020906003020160020160006101000a81548160ff0219169083151502179055505b5050565b60008060006001846040516111549190613797565b908152602001604051809103902060009054906101000a900473ffffffffffffffffffffffffffffffffffffffff1673ffffffffffffffffffffffffffffffffffffffff1673ffffffffffffffffffffffffffffffffffffffff16815260200190815260200160002060030160009054906101000a900460ff169050919050565b6000600460006005846040516111eb9190613797565b908152602001604051809103902060009054906101000a900473ffffffffffffffffffffffffffffffffffffffff1673ffffffffffffffffffffffffffffffffffffffff1673ffffffffffffffffffffffffffffffffffffffff16815260200190815260200160002060030160006101000a81548160ff02191690831515021790555050565b60606000806001846040516112869190613797565b908152602001604051809103902060009054906101000a900473ffffffffffffffffffffffffffffffffffffffff1673ffffffffffffffffffffffffffffffffffffffff1673ffffffffffffffffffffffffffffffffffffffff16815260200190815260200160002060050180546112fd90613d58565b80601f016020809104026020016040519081016040528092919081815260200182805461132990613d58565b80156113765780601f1061134b57610100808354040283529160200191611376565b820191906000526020600020905b81548152906001019060200180831161135957829003601f168201915b50505050509050919050565b600c60405180606001604052803373ffffffffffffffffffffffffffffffffffffffff16815260200183815260200160011515815250908060018154018082558091505060019003906000526020600020906003020160009091909190915060008201518160000160006101000a81548173ffffffffffffffffffffffffffffffffffffffff021916908373ffffffffffffffffffffffffffffffffffffffff1602179055506020820151816001019080519060200190611444929190612e7b565b5060408201518160020160006101000a81548160ff021916908315150217905550505050565b6000600460006005846040516114809190613797565b908152602001604051809103902060009054906101000a900473ffffffffffffffffffffffffffffffffffffffff1673ffffffffffffffffffffffffffffffffffffffff1673ffffffffffffffffffffffffffffffffffffffff16815260200190815260200160002060030160009054906101000a900460ff169050919050565b60606009805480602002602001604051908101604052809291908181526020016000905b828210156115d157838290600052602060002001805461154490613d58565b80601f016020809104026020016040519081016040528092919081815260200182805461157090613d58565b80156115bd5780601f10611592576101008083540402835291602001916115bd565b820191906000526020600020905b8154815290600101906020018083116115a057829003601f168201915b505050505081526020019060010190611525565b50505050905090565b6000600460006005846040516115f09190613797565b908152602001604051809103902060009054906101000a900473ffffffffffffffffffffffffffffffffffffffff1673ffffffffffffffffffffffffffffffffffffffff1673ffffffffffffffffffffffffffffffffffffffff168152602001908152602001600020600201549050919050565b600080600073ffffffffffffffffffffffffffffffffffffffff1660058460405161168f9190613797565b908152602001604051809103902060009054906101000a900473ffffffffffffffffffffffffffffffffffffffff1673ffffffffffffffffffffffffffffffffffffffff161461171f576005836040516116e99190613797565b908152602001604051809103902060009054906101000a900473ffffffffffffffffffffffffffffffffffffffff169050611761565b60018360405161172f9190613797565b908152602001604051809103902060009054906101000a900473ffffffffffffffffffffffffffffffffffffffff1690505b80915050919050565b60405180608001604052803373ffffffffffffffffffffffffffffffffffffffff168152602001828152602001670de0b6b3a7640000846117ab9190613c6a565b8152602001600d548152506008846040516117c69190613797565b908152602001604051809103902060008201518160000160006101000a81548173ffffffffffffffffffffffffffffffffffffffff021916908373ffffffffffffffffffffffffffffffffffffffff1602179055506020820151816001019080519060200190611837929190612e7b565b50604082015181600201556060820151816003015590505060098390806001815401808255809150506001900390600052602060002001600090919091909150908051906020019061188a929190612e7b565b50600d600081548092919061189e90613dbb565b9190505550505050565b600c81815481106118b857600080fd5b90600052602060002090600302016000915090508060000160009054906101000a900473ffffffffffffffffffffffffffffffffffffffff169080600101805461190190613d58565b80601f016020809104026020016040519081016040528092919081815260200182805461192d90613d58565b801561197a5780601f1061194f5761010080835404028352916020019161197a565b820191906000526020600020905b81548152906001019060200180831161195d57829003601f168201915b5050505050908060020160009054906101000a900460ff16905083565b600015156000806001856040516119ae9190613797565b908152602001604051809103902060009054906101000a900473ffffffffffffffffffffffffffffffffffffffff1673ffffffffffffffffffffffffffffffffffffffff1673ffffffffffffffffffffffffffffffffffffffff16815260200190815260200160002060030160009054906101000a900460ff16151514611a6a576040517f08c379a0000000000000000000000000000000000000000000000000000000008152600401611a6190613a80565b60405180910390fd5b600073ffffffffffffffffffffffffffffffffffffffff16600183604051611a929190613797565b908152602001604051809103902060009054906101000a900473ffffffffffffffffffffffffffffffffffffffff1673ffffffffffffffffffffffffffffffffffffffff161415611b18576040517f08c379a0000000000000000000000000000000000000000000000000000000008152600401611b0f90613a40565b60405180910390fd5b80600080600185604051611b2c9190613797565b908152602001604051809103902060009054906101000a900473ffffffffffffffffffffffffffffffffffffffff1673ffffffffffffffffffffffffffffffffffffffff1673ffffffffffffffffffffffffffffffffffffffff1681526020019081526020016000206001015414611bd9576040517f08c379a0000000000000000000000000000000000000000000000000000000008152600401611bd090613a20565b60405180910390fd5b6001600080600185604051611bee9190613797565b908152602001604051809103902060009054906101000a900473ffffffffffffffffffffffffffffffffffffffff1673ffffffffffffffffffffffffffffffffffffffff1673ffffffffffffffffffffffffffffffffffffffff16815260200190815260200160002060030160006101000a81548160ff0219169083151502179055505050565b600081604051602001611c889190613797565b604051602081830303815290604052805190602001209050919050565b600115158115151415611dc657600c8281548110611cc657611cc5613e91565b5b906000526020600020906003020160000160009054906101000a900473ffffffffffffffffffffffffffffffffffffffff1673ffffffffffffffffffffffffffffffffffffffff166108fc6008600c8581548110611d2757611d26613e91565b5b9060005260206000209060030201600101604051611d4591906137ae565b9081526020016040518091039020600201549081150290604051600060405180830381858888f19350505050158015611d82573d6000803e3d6000fd5b506000600b8381548110611d9957611d98613e91565b5b906000526020600020906003020160020160006101000a81548160ff021916908315150217905550611e05565b6000600b8381548110611ddc57611ddb613e91565b5b906000526020600020906003020160020160006101000a81548160ff0219169083151502179055505b5050565b6000602052806000526040600020600091509050806000018054611e2c90613d58565b80601f0160208091040260200160405190810160405280929190818152602001828054611e5890613d58565b8015611ea55780601f10611e7a57610100808354040283529160200191611ea5565b820191906000526020600020905b815481529060010190602001808311611e8857829003601f168201915b5050505050908060010154908060020154908060030160009054906101000a900460ff1690806004018054611ed990613d58565b80601f0160208091040260200160405190810160405280929190818152602001828054611f0590613d58565b8015611f525780601f10611f2757610100808354040283529160200191611f52565b820191906000526020600020905b815481529060010190602001808311611f3557829003601f168201915b505050505090806005018054611f6790613d58565b80601f0160208091040260200160405190810160405280929190818152602001828054611f9390613d58565b8015611fe05780601f10611fb557610100808354040283529160200191611fe0565b820191906000526020600020905b815481529060010190602001808311611fc357829003601f168201915b5050505050908060060154905087565b600460205280600052604060002060009150905080600001805461201390613d58565b80601f016020809104026020016040519081016040528092919081815260200182805461203f90613d58565b801561208c5780601f106120615761010080835404028352916020019161208c565b820191906000526020600020905b81548152906001019060200180831161206f57829003601f168201915b5050505050908060010154908060020154908060030160009054906101000a900460ff16905084565b600080600090506000805b6002805490508110156122b1576000600282815481106120e3576120e2613e91565b5b9060005260206000200180546120f890613d58565b80601f016020809104026020016040519081016040528092919081815260200182805461212490613d58565b80156121715780601f1061214657610100808354040283529160200191612171565b820191906000526020600020905b81548152906001019060200180831161215457829003601f168201915b50505050509050856040516020016121899190613797565b60405160208183030381529060405280519060200120816040516020016121b09190613797565b60405160208183030381529060405280519060200120141561229d57600091505b600380549050821161229c57600382815481106121f1576121f0613e91565b5b906000526020600020906005020160000160405160200161221291906137ae565b60405160208183030381529060405280519060200120866040516020016122399190613797565b604051602081830303815290604052805190602001201415612289576003828154811061226957612268613e91565b5b906000526020600020906005020160030154836122869190613be3565b92505b818061229490613dbb565b9250506121d1565b5b5080806122a990613dbb565b9150506120c0565b5081816122be9190613c39565b816122c99190613be3565b90508092505050919050565b600b81815481106122e557600080fd5b90600052602060002090600302016000915090508060000160009054906101000a900473ffffffffffffffffffffffffffffffffffffffff169080600101805461232e90613d58565b80601f016020809104026020016040519081016040528092919081815260200182805461235a90613d58565b80156123a75780601f1061237c576101008083540402835291602001916123a7565b820191906000526020600020905b81548152906001019060200180831161238a57829003601f168201915b5050505050908060020160009054906101000a900460ff16905083565b600b60405180606001604052803373ffffffffffffffffffffffffffffffffffffffff16815260200183815260200160011515815250908060018154018082558091505060019003906000526020600020906003020160009091909190915060008201518160000160006101000a81548173ffffffffffffffffffffffffffffffffffffffff021916908373ffffffffffffffffffffffffffffffffffffffff1602179055506020820151816001019080519060200190612486929190612e7b565b5060408201518160020160006101000a81548160ff021916908315150217905550505050565b6001818051602081018201805184825260208301602085012081835280955050505050506000915054906101000a900473ffffffffffffffffffffffffffffffffffffffff1681565b600a811115612539576040517f08c379a000000000000000000000000000000000000000000000000000000000815260040161253090613aa0565b60405180910390fd5b60005b60028054905081116127fb5760006002828154811061255e5761255d613e91565b5b90600052602060002001805461257390613d58565b80601f016020809104026020016040519081016040528092919081815260200182805461259f90613d58565b80156125ec5780601f106125c1576101008083540402835291602001916125ec565b820191906000526020600020905b8154815290600101906020018083116125cf57829003601f168201915b50505050509050846040516020016126049190613797565b604051602081830303815290604052805190602001208160405160200161262b9190613797565b6040516020818303038152906040528051906020012014156127e757606060036040518060a00160405280888152602001600460003373ffffffffffffffffffffffffffffffffffffffff1673ffffffffffffffffffffffffffffffffffffffff16815260200190815260200160002060000180546126a990613d58565b80601f01602080910402602001604051908101604052809291908181526020018280546126d590613d58565b80156127225780601f106126f757610100808354040283529160200191612722565b820191906000526020600020905b81548152906001019060200180831161270557829003601f168201915b505050505081526020018781526020018681526020018381525090806001815401808255809150506001900390600052602060002090600502016000909190919091506000820151816000019080519060200190612781929190612e7b565b50602082015181600101908051906020019061279e929190612e7b565b5060408201518160020190805190602001906127bb929190612e7b565b506060820151816003015560808201518160040190805190602001906127e2929190612f01565b505050505b5080806127f390613dbb565b91505061253c565b50505050565b60001515600460006005856040516128199190613797565b908152602001604051809103902060009054906101000a900473ffffffffffffffffffffffffffffffffffffffff1673ffffffffffffffffffffffffffffffffffffffff1673ffffffffffffffffffffffffffffffffffffffff16815260200190815260200160002060030160009054906101000a900460ff161515146128d5576040517f08c379a00000000000000000000000000000000000000000000000000000000081526004016128cc90613a80565b60405180910390fd5b600073ffffffffffffffffffffffffffffffffffffffff166005836040516128fd9190613797565b908152602001604051809103902060009054906101000a900473ffffffffffffffffffffffffffffffffffffffff1673ffffffffffffffffffffffffffffffffffffffff161415612983576040517f08c379a000000000000000000000000000000000000000000000000000000000815260040161297a90613a40565b60405180910390fd5b80600460006005856040516129989190613797565b908152602001604051809103902060009054906101000a900473ffffffffffffffffffffffffffffffffffffffff1673ffffffffffffffffffffffffffffffffffffffff1673ffffffffffffffffffffffffffffffffffffffff1681526020019081526020016000206001015414612a45576040517f08c379a0000000000000000000000000000000000000000000000000000000008152600401612a3c90613a20565b60405180910390fd5b600160046000600585604051612a5b9190613797565b908152602001604051809103902060009054906101000a900473ffffffffffffffffffffffffffffffffffffffff1673ffffffffffffffffffffffffffffffffffffffff1673ffffffffffffffffffffffffffffffffffffffff16815260200190815260200160002060030160006101000a81548160ff0219169083151502179055505050565b6008818051602081018201805184825260208301602085012081835280955050505050506000915090508060000160009054906101000a900473ffffffffffffffffffffffffffffffffffffffff1690806001018054612b4190613d58565b80601f0160208091040260200160405190810160405280929190818152602001828054612b6d90613d58565b8015612bba5780601f10612b8f57610100808354040283529160200191612bba565b820191906000526020600020905b815481529060010190602001808311612b9d57829003601f168201915b5050505050908060020154908060030154905084565b600a8181548110612be057600080fd5b90600052602060002090600402016000915090508060000160009054906101000a900473ffffffffffffffffffffffffffffffffffffffff1690806001018054612c2990613d58565b80601f0160208091040260200160405190810160405280929190818152602001828054612c5590613d58565b8015612ca25780601f10612c7757610100808354040283529160200191612ca2565b820191906000526020600020905b815481529060010190602001808311612c8557829003601f168201915b5050505050908060020154908060030160009054906101000a900460ff16905084565b6001811415612d7d573373ffffffffffffffffffffffffffffffffffffffff166108fc600a8481548110612cfc57612cfb613e91565b5b9060005260206000209060040201600201549081150290604051600060405180830381858888f19350505050158015612d39573d6000803e3d6000fd5b506000600a8381548110612d5057612d4f613e91565b5b906000526020600020906004020160030160006101000a81548160ff021916908315150217905550612e77565b6000811415612e7657600a8281548110612d9a57612d99613e91565b5b906000526020600020906004020160000160009054906101000a900473ffffffffffffffffffffffffffffffffffffffff1673ffffffffffffffffffffffffffffffffffffffff166108fc600a8481548110612df957612df8613e91565b5b9060005260206000209060040201600201549081150290604051600060405180830381858888f19350505050158015612e36573d6000803e3d6000fd5b506000600a8381548110612e4d57612e4c613e91565b5b906000526020600020906004020160030160006101000a81548160ff0219169083151502179055505b5b5050565b828054612e8790613d58565b90600052602060002090601f016020900481019282612ea95760008555612ef0565b82601f10612ec257805160ff1916838001178555612ef0565b82800160010185558215612ef0579182015b82811115612eef578251825591602001919060010190612ed4565b5b509050612efd9190612f61565b5090565b828054828255906000526020600020908101928215612f50579160200282015b82811115612f4f578251829080519060200190612f3f929190612e7b565b5091602001919060010190612f21565b5b509050612f5d9190612f7e565b5090565b5b80821115612f7a576000816000905550600101612f62565b5090565b5b80821115612f9e5760008181612f959190612fa2565b50600101612f7f565b5090565b508054612fae90613d58565b6000825580601f10612fc05750612fdf565b601f016020900490600052602060002090810190612fde9190612f61565b5b50565b6000612ff5612ff084613b00565b613adb565b9050808382526020820190508285602086028201111561301857613017613ef4565b5b60005b8581101561306657813567ffffffffffffffff81111561303e5761303d613eef565b5b80860161304b898261311f565b8552602085019450602084019350505060018101905061301b565b5050509392505050565b600061308361307e84613b2c565b613adb565b90508281526020810184848401111561309f5761309e613ef9565b5b6130aa848285613d16565b509392505050565b6000813590506130c181614035565b92915050565b600082601f8301126130dc576130db613eef565b5b81356130ec848260208601612fe2565b91505092915050565b6000813590506131048161404c565b92915050565b60008135905061311981614063565b92915050565b600082601f83011261313457613133613eef565b5b8135613144848260208601613070565b91505092915050565b60008135905061315c8161407a565b92915050565b60006020828403121561317857613177613f03565b5b6000613186848285016130b2565b91505092915050565b6000806000606084860312156131a8576131a7613f03565b5b60006131b6868287016130b2565b935050602084013567ffffffffffffffff8111156131d7576131d6613efe565b5b6131e38682870161311f565b92505060406131f48682870161310a565b9150509250925092565b60006020828403121561321457613213613f03565b5b600082013567ffffffffffffffff81111561323257613231613efe565b5b61323e8482850161311f565b91505092915050565b6000806040838503121561325e5761325d613f03565b5b600083013567ffffffffffffffff81111561327c5761327b613efe565b5b6132888582860161311f565b925050602083013567ffffffffffffffff8111156132a9576132a8613efe565b5b6132b5858286016130c7565b9150509250929050565b600080604083850312156132d6576132d5613f03565b5b600083013567ffffffffffffffff8111156132f4576132f3613efe565b5b6133008582860161311f565b92505060206133118582860161310a565b9150509250929050565b60008060006060848603121561333457613333613f03565b5b600084013567ffffffffffffffff81111561335257613351613efe565b5b61335e8682870161311f565b935050602084013567ffffffffffffffff81111561337f5761337e613efe565b5b61338b8682870161311f565b925050604061339c8682870161314d565b9150509250925092565b6000806000606084860312156133bf576133be613f03565b5b600084013567ffffffffffffffff8111156133dd576133dc613efe565b5b6133e98682870161311f565b93505060206133fa8682870161314d565b925050604084013567ffffffffffffffff81111561341b5761341a613efe565b5b6134278682870161311f565b9150509250925092565b60006020828403121561344757613446613f03565b5b60006134558482850161314d565b91505092915050565b6000806040838503121561347557613474613f03565b5b60006134838582860161314d565b9250506020613494858286016130f5565b9150509250929050565b600080604083850312156134b5576134b4613f03565b5b60006134c38582860161314d565b92505060206134d48582860161314d565b9150509250929050565b60006134ea8383613594565b905092915050565b6134fb81613cc4565b82525050565b600061350c82613b82565b6135168185613ba5565b93508360208202850161352885613b5d565b8060005b85811015613564578484038952815161354585826134de565b945061355083613b98565b925060208a0199505060018101905061352c565b50829750879550505050505092915050565b61357f81613cd6565b82525050565b61358e81613ce2565b82525050565b600061359f82613b8d565b6135a98185613bb6565b93506135b9818560208601613d25565b6135c281613f08565b840191505092915050565b60006135d882613b8d565b6135e28185613bc7565b93506135f2818560208601613d25565b6135fb81613f08565b840191505092915050565b600061361182613b8d565b61361b8185613bd8565b935061362b818560208601613d25565b80840191505092915050565b6000815461364481613d58565b61364e8186613bd8565b94506001821660008114613669576001811461367a576136ad565b60ff198316865281860193506136ad565b61368385613b6d565b60005b838110156136a557815481890152600182019150602081019050613686565b838801955050505b50505092915050565b60006136c3601983613bc7565b91506136ce82613f19565b602082019050919050565b60006136e6601783613bc7565b91506136f182613f42565b602082019050919050565b6000613709601983613bc7565b915061371482613f6b565b602082019050919050565b600061372c601083613bc7565b915061373782613f94565b602082019050919050565b600061374f601d83613bc7565b915061375a82613fbd565b602082019050919050565b6000613772602183613bc7565b915061377d82613fe6565b604082019050919050565b61379181613d0c565b82525050565b60006137a38284613606565b915081905092915050565b60006137ba8284613637565b915081905092915050565b60006020820190506137da60008301846134f2565b92915050565b60006060820190506137f560008301866134f2565b818103602083015261380781856135cd565b90506138166040830184613576565b949350505050565b600060808201905061383360008301876134f2565b818103602083015261384581866135cd565b90506138546040830185613788565b6138616060830184613576565b95945050505050565b600060808201905061387f60008301876134f2565b818103602083015261389181866135cd565b90506138a06040830185613788565b6138ad6060830184613788565b95945050505050565b600060208201905081810360008301526138d08184613501565b905092915050565b60006020820190506138ed6000830184613576565b92915050565b60006020820190506139086000830184613585565b92915050565b6000602082019050818103600083015261392881846135cd565b905092915050565b6000608082019050818103600083015261394a81876135cd565b90506139596020830186613585565b6139666040830185613788565b6139736060830184613576565b95945050505050565b600060e0820190508181036000830152613996818a6135cd565b90506139a56020830189613585565b6139b26040830188613788565b6139bf6060830187613576565b81810360808301526139d181866135cd565b905081810360a08301526139e581856135cd565b90506139f460c0830184613788565b98975050505050505050565b60006020820190508181036000830152613a19816136b6565b9050919050565b60006020820190508181036000830152613a39816136d9565b9050919050565b60006020820190508181036000830152613a59816136fc565b9050919050565b60006020820190508181036000830152613a798161371f565b9050919050565b60006020820190508181036000830152613a9981613742565b9050919050565b60006020820190508181036000830152613ab981613765565b9050919050565b6000602082019050613ad56000830184613788565b92915050565b6000613ae5613af6565b9050613af18282613d8a565b919050565b6000604051905090565b600067ffffffffffffffff821115613b1b57613b1a613ec0565b5b602082029050602081019050919050565b600067ffffffffffffffff821115613b4757613b46613ec0565b5b613b5082613f08565b9050602081019050919050565b6000819050602082019050919050565b60008190508160005260206000209050919050565b600081519050919050565b600081519050919050565b6000602082019050919050565b600082825260208201905092915050565b600082825260208201905092915050565b600082825260208201905092915050565b600081905092915050565b6000613bee82613d0c565b9150613bf983613d0c565b9250827fffffffffffffffffffffffffffffffffffffffffffffffffffffffffffffffff03821115613c2e57613c2d613e04565b5b828201905092915050565b6000613c4482613d0c565b9150613c4f83613d0c565b925082613c5f57613c5e613e33565b5b828204905092915050565b6000613c7582613d0c565b9150613c8083613d0c565b9250817fffffffffffffffffffffffffffffffffffffffffffffffffffffffffffffffff0483118215151615613cb957613cb8613e04565b5b828202905092915050565b6000613ccf82613cec565b9050919050565b60008115159050919050565b6000819050919050565b600073ffffffffffffffffffffffffffffffffffffffff82169050919050565b6000819050919050565b82818337600083830152505050565b60005b83811015613d43578082015181840152602081019050613d28565b83811115613d52576000848401525b50505050565b60006002820490506001821680613d7057607f821691505b60208210811415613d8457613d83613e62565b5b50919050565b613d9382613f08565b810181811067ffffffffffffffff82111715613db257613db1613ec0565b5b80604052505050565b6000613dc682613d0c565b91507fffffffffffffffffffffffffffffffffffffffffffffffffffffffffffffffff821415613df957613df8613e04565b5b600182019050919050565b7f4e487b7100000000000000000000000000000000000000000000000000000000600052601160045260246000fd5b7f4e487b7100000000000000000000000000000000000000000000000000000000600052601260045260246000fd5b7f4e487b7100000000000000000000000000000000000000000000000000000000600052602260045260246000fd5b7f4e487b7100000000000000000000000000000000000000000000000000000000600052603260045260246000fd5b7f4e487b7100000000000000000000000000000000000000000000000000000000600052604160045260246000fd5b600080fd5b600080fd5b600080fd5b600080fd5b600080fd5b6000601f19601f8301169050919050565b7f4572726f723a205573657220616c726561647920657869737400000000000000600082015250565b7f4572726f723a20496e76616c69642070617373776f7264000000000000000000600082015250565b7f4572726f723a205573657220646f65736e277420657869737400000000000000600082015250565b7f6572726f723a206e6f74206d6f6e657900000000000000000000000000000000600082015250565b7f4572726f723a20596f752061726520616c7265616479206c6f67676564000000600082015250565b7f6572726f723a20726174696e672063616e2062652066726f6d203120746f203160008201527f3000000000000000000000000000000000000000000000000000000000000000602082015250565b61403e81613cc4565b811461404957600080fd5b50565b61405581613cd6565b811461406057600080fd5b50565b61406c81613ce2565b811461407757600080fd5b50565b61408381613d0c565b811461408e57600080fd5b5056fea2646970667358221220427b018d9279fbaf75f0ecda4e6291eabfa65306c4754102fd10254c2bbf7d9d64736f6c63430008070033",
					"opcodes": "PUSH1 0x80 PUSH1 0x40 MSTORE PUSH1 0x0 PUSH1 0xD SSTORE CALLVALUE DUP1 ISZERO PUSH3 0x16 JUMPI PUSH1 0x0 DUP1 REVERT JUMPDEST POP PUSH20 0x5412E9B0E4EF9D1546DF79AE907EEE34BDCF3004 PUSH1 0x1 PUSH1 0x40 MLOAD PUSH3 0x3C SWAP1 PUSH3 0xB54 JUMP JUMPDEST SWAP1 DUP2 MSTORE PUSH1 0x20 ADD PUSH1 0x40 MLOAD DUP1 SWAP2 SUB SWAP1 KECCAK256 PUSH1 0x0 PUSH2 0x100 EXP DUP2 SLOAD DUP2 PUSH20 0xFFFFFFFFFFFFFFFFFFFFFFFFFFFFFFFFFFFFFFFF MUL NOT AND SWAP1 DUP4 PUSH20 0xFFFFFFFFFFFFFFFFFFFFFFFFFFFFFFFFFFFFFFFF AND MUL OR SWAP1 SSTORE POP PUSH1 0x40 MLOAD DUP1 PUSH1 0xE0 ADD PUSH1 0x40 MSTORE DUP1 PUSH1 0x40 MLOAD DUP1 PUSH1 0x40 ADD PUSH1 0x40 MSTORE DUP1 PUSH1 0x4 DUP2 MSTORE PUSH1 0x20 ADD PUSH32 0x4265657200000000000000000000000000000000000000000000000000000000 DUP2 MSTORE POP DUP2 MSTORE PUSH1 0x20 ADD PUSH3 0x114 PUSH1 0x40 MLOAD DUP1 PUSH1 0x40 ADD PUSH1 0x40 MSTORE DUP1 PUSH1 0x1 DUP2 MSTORE PUSH1 0x20 ADD PUSH32 0x3200000000000000000000000000000000000000000000000000000000000000 DUP2 MSTORE POP PUSH3 0x8E7 PUSH1 0x20 SHL PUSH1 0x20 SHR JUMP JUMPDEST DUP2 MSTORE PUSH1 0x20 ADD PUSH1 0x3 DUP2 MSTORE PUSH1 0x20 ADD PUSH1 0x0 ISZERO ISZERO DUP2 MSTORE PUSH1 0x20 ADD PUSH1 0x40 MLOAD DUP1 PUSH1 0x40 ADD PUSH1 0x40 MSTORE DUP1 PUSH1 0x1 DUP2 MSTORE PUSH1 0x20 ADD PUSH32 0x3100000000000000000000000000000000000000000000000000000000000000 DUP2 MSTORE POP DUP2 MSTORE PUSH1 0x20 ADD PUSH1 0x40 MLOAD DUP1 PUSH1 0x40 ADD PUSH1 0x40 MSTORE DUP1 PUSH1 0x6 DUP2 MSTORE PUSH1 0x20 ADD PUSH32 0x4D6F73636F770000000000000000000000000000000000000000000000000000 DUP2 MSTORE POP DUP2 MSTORE PUSH1 0x20 ADD PUSH1 0x0 DUP2 MSTORE POP PUSH1 0x0 DUP1 PUSH20 0x5412E9B0E4EF9D1546DF79AE907EEE34BDCF3004 PUSH20 0xFFFFFFFFFFFFFFFFFFFFFFFFFFFFFFFFFFFFFFFF AND PUSH20 0xFFFFFFFFFFFFFFFFFFFFFFFFFFFFFFFFFFFFFFFF AND DUP2 MSTORE PUSH1 0x20 ADD SWAP1 DUP2 MSTORE PUSH1 0x20 ADD PUSH1 0x0 KECCAK256 PUSH1 0x0 DUP3 ADD MLOAD DUP2 PUSH1 0x0 ADD SWAP1 DUP1 MLOAD SWAP1 PUSH1 0x20 ADD SWAP1 PUSH3 0x214 SWAP3 SWAP2 SWAP1 PUSH3 0x919 JUMP JUMPDEST POP PUSH1 0x20 DUP3 ADD MLOAD DUP2 PUSH1 0x1 ADD SSTORE PUSH1 0x40 DUP3 ADD MLOAD DUP2 PUSH1 0x2 ADD SSTORE PUSH1 0x60 DUP3 ADD MLOAD DUP2 PUSH1 0x3 ADD PUSH1 0x0 PUSH2 0x100 EXP DUP2 SLOAD DUP2 PUSH1 0xFF MUL NOT AND SWAP1 DUP4 ISZERO ISZERO MUL OR SWAP1 SSTORE POP PUSH1 0x80 DUP3 ADD MLOAD DUP2 PUSH1 0x4 ADD SWAP1 DUP1 MLOAD SWAP1 PUSH1 0x20 ADD SWAP1 PUSH3 0x267 SWAP3 SWAP2 SWAP1 PUSH3 0x919 JUMP JUMPDEST POP PUSH1 0xA0 DUP3 ADD MLOAD DUP2 PUSH1 0x5 ADD SWAP1 DUP1 MLOAD SWAP1 PUSH1 0x20 ADD SWAP1 PUSH3 0x286 SWAP3 SWAP2 SWAP1 PUSH3 0x919 JUMP JUMPDEST POP PUSH1 0xC0 DUP3 ADD MLOAD DUP2 PUSH1 0x6 ADD SSTORE SWAP1 POP POP PUSH1 0x2 PUSH1 0x0 DUP1 PUSH20 0x5412E9B0E4EF9D1546DF79AE907EEE34BDCF3004 PUSH20 0xFFFFFFFFFFFFFFFFFFFFFFFFFFFFFFFFFFFFFFFF AND PUSH20 0xFFFFFFFFFFFFFFFFFFFFFFFFFFFFFFFFFFFFFFFF AND DUP2 MSTORE PUSH1 0x20 ADD SWAP1 DUP2 MSTORE PUSH1 0x20 ADD PUSH1 0x0 KECCAK256 PUSH1 0x0 ADD SWAP1 DUP1 PUSH1 0x1 DUP2 SLOAD ADD DUP1 DUP3 SSTORE DUP1 SWAP2 POP POP PUSH1 0x1 SWAP1 SUB SWAP1 PUSH1 0x0 MSTORE PUSH1 0x20 PUSH1 0x0 KECCAK256 ADD PUSH1 0x0 SWAP1 SWAP2 SWAP1 SWAP2 SWAP1 SWAP2 POP SWAP1 DUP1 SLOAD PUSH3 0x31E SWAP1 PUSH3 0xBB7 JUMP JUMPDEST PUSH3 0x32B SWAP3 SWAP2 SWAP1 PUSH3 0x9AA JUMP JUMPDEST POP PUSH20 0x49C364FEDAD517382EE5A776D3071F11CFDE4C5C PUSH1 0x1 PUSH1 0x40 MLOAD PUSH3 0x351 SWAP1 PUSH3 0xB3D JUMP JUMPDEST SWAP1 DUP2 MSTORE PUSH1 0x20 ADD PUSH1 0x40 MLOAD DUP1 SWAP2 SUB SWAP1 KECCAK256 PUSH1 0x0 PUSH2 0x100 EXP DUP2 SLOAD DUP2 PUSH20 0xFFFFFFFFFFFFFFFFFFFFFFFFFFFFFFFFFFFFFFFF MUL NOT AND SWAP1 DUP4 PUSH20 0xFFFFFFFFFFFFFFFFFFFFFFFFFFFFFFFFFFFFFFFF AND MUL OR SWAP1 SSTORE POP PUSH1 0x40 MLOAD DUP1 PUSH1 0xE0 ADD PUSH1 0x40 MSTORE DUP1 PUSH1 0x40 MLOAD DUP1 PUSH1 0x40 ADD PUSH1 0x40 MSTORE DUP1 PUSH1 0x7 DUP2 MSTORE PUSH1 0x20 ADD PUSH32 0x50726F6475637400000000000000000000000000000000000000000000000000 DUP2 MSTORE POP DUP2 MSTORE PUSH1 0x20 ADD PUSH3 0x429 PUSH1 0x40 MLOAD DUP1 PUSH1 0x40 ADD PUSH1 0x40 MSTORE DUP1 PUSH1 0x1 DUP2 MSTORE PUSH1 0x20 ADD PUSH32 0x3200000000000000000000000000000000000000000000000000000000000000 DUP2 MSTORE POP PUSH3 0x8E7 PUSH1 0x20 SHL PUSH1 0x20 SHR JUMP JUMPDEST DUP2 MSTORE PUSH1 0x20 ADD PUSH1 0x3 DUP2 MSTORE PUSH1 0x20 ADD PUSH1 0x0 ISZERO ISZERO DUP2 MSTORE PUSH1 0x20 ADD PUSH1 0x40 MLOAD DUP1 PUSH1 0x40 ADD PUSH1 0x40 MSTORE DUP1 PUSH1 0x1 DUP2 MSTORE PUSH1 0x20 ADD PUSH32 0x3200000000000000000000000000000000000000000000000000000000000000 DUP2 MSTORE POP DUP2 MSTORE PUSH1 0x20 ADD PUSH1 0x40 MLOAD DUP1 PUSH1 0x40 ADD PUSH1 0x40 MSTORE DUP1 PUSH1 0xA DUP2 MSTORE PUSH1 0x20 ADD PUSH32 0x5065746572736275726700000000000000000000000000000000000000000000 DUP2 MSTORE POP DUP2 MSTORE PUSH1 0x20 ADD PUSH1 0x0 DUP2 MSTORE POP PUSH1 0x0 DUP1 PUSH20 0x49C364FEDAD517382EE5A776D3071F11CFDE4C5C PUSH20 0xFFFFFFFFFFFFFFFFFFFFFFFFFFFFFFFFFFFFFFFF AND PUSH20 0xFFFFFFFFFFFFFFFFFFFFFFFFFFFFFFFFFFFFFFFF AND DUP2 MSTORE PUSH1 0x20 ADD SWAP1 DUP2 MSTORE PUSH1 0x20 ADD PUSH1 0x0 KECCAK256 PUSH1 0x0 DUP3 ADD MLOAD DUP2 PUSH1 0x0 ADD SWAP1 DUP1 MLOAD SWAP1 PUSH1 0x20 ADD SWAP1 PUSH3 0x529 SWAP3 SWAP2 SWAP1 PUSH3 0x919 JUMP JUMPDEST POP PUSH1 0x20 DUP3 ADD MLOAD DUP2 PUSH1 0x1 ADD SSTORE PUSH1 0x40 DUP3 ADD MLOAD DUP2 PUSH1 0x2 ADD SSTORE PUSH1 0x60 DUP3 ADD MLOAD DUP2 PUSH1 0x3 ADD PUSH1 0x0 PUSH2 0x100 EXP DUP2 SLOAD DUP2 PUSH1 0xFF MUL NOT AND SWAP1 DUP4 ISZERO ISZERO MUL OR SWAP1 SSTORE POP PUSH1 0x80 DUP3 ADD MLOAD DUP2 PUSH1 0x4 ADD SWAP1 DUP1 MLOAD SWAP1 PUSH1 0x20 ADD SWAP1 PUSH3 0x57C SWAP3 SWAP2 SWAP1 PUSH3 0x919 JUMP JUMPDEST POP PUSH1 0xA0 DUP3 ADD MLOAD DUP2 PUSH1 0x5 ADD SWAP1 DUP1 MLOAD SWAP1 PUSH1 0x20 ADD SWAP1 PUSH3 0x59B SWAP3 SWAP2 SWAP1 PUSH3 0x919 JUMP JUMPDEST POP PUSH1 0xC0 DUP3 ADD MLOAD DUP2 PUSH1 0x6 ADD SSTORE SWAP1 POP POP PUSH1 0x2 PUSH1 0x0 DUP1 PUSH20 0x49C364FEDAD517382EE5A776D3071F11CFDE4C5C PUSH20 0xFFFFFFFFFFFFFFFFFFFFFFFFFFFFFFFFFFFFFFFF AND PUSH20 0xFFFFFFFFFFFFFFFFFFFFFFFFFFFFFFFFFFFFFFFF AND DUP2 MSTORE PUSH1 0x20 ADD SWAP1 DUP2 MSTORE PUSH1 0x20 ADD PUSH1 0x0 KECCAK256 PUSH1 0x0 ADD SWAP1 DUP1 PUSH1 0x1 DUP2 SLOAD ADD DUP1 DUP3 SSTORE DUP1 SWAP2 POP POP PUSH1 0x1 SWAP1 SUB SWAP1 PUSH1 0x0 MSTORE PUSH1 0x20 PUSH1 0x0 KECCAK256 ADD PUSH1 0x0 SWAP1 SWAP2 SWAP1 SWAP2 SWAP1 SWAP2 POP SWAP1 DUP1 SLOAD PUSH3 0x633 SWAP1 PUSH3 0xBB7 JUMP JUMPDEST PUSH3 0x640 SWAP3 SWAP2 SWAP1 PUSH3 0x9AA JUMP JUMPDEST POP PUSH20 0xADA67460CF329D12C1ED898710CC8DA5D40D8025 PUSH1 0x5 PUSH1 0x40 MLOAD PUSH3 0x666 SWAP1 PUSH3 0xB26 JUMP JUMPDEST SWAP1 DUP2 MSTORE PUSH1 0x20 ADD PUSH1 0x40 MLOAD DUP1 SWAP2 SUB SWAP1 KECCAK256 PUSH1 0x0 PUSH2 0x100 EXP DUP2 SLOAD DUP2 PUSH20 0xFFFFFFFFFFFFFFFFFFFFFFFFFFFFFFFFFFFFFFFF MUL NOT AND SWAP1 DUP4 PUSH20 0xFFFFFFFFFFFFFFFFFFFFFFFFFFFFFFFFFFFFFFFF AND MUL OR SWAP1 SSTORE POP PUSH1 0x40 MLOAD DUP1 PUSH1 0x80 ADD PUSH1 0x40 MSTORE DUP1 PUSH1 0x40 MLOAD DUP1 PUSH1 0x40 ADD PUSH1 0x40 MSTORE DUP1 PUSH1 0x4 DUP2 MSTORE PUSH1 0x20 ADD PUSH32 0x5065746100000000000000000000000000000000000000000000000000000000 DUP2 MSTORE POP DUP2 MSTORE PUSH1 0x20 ADD PUSH3 0x73E PUSH1 0x40 MLOAD DUP1 PUSH1 0x40 ADD PUSH1 0x40 MSTORE DUP1 PUSH1 0x1 DUP2 MSTORE PUSH1 0x20 ADD PUSH32 0x3300000000000000000000000000000000000000000000000000000000000000 DUP2 MSTORE POP PUSH3 0x8E7 PUSH1 0x20 SHL PUSH1 0x20 SHR JUMP JUMPDEST DUP2 MSTORE PUSH1 0x20 ADD PUSH1 0x2 DUP2 MSTORE PUSH1 0x20 ADD PUSH1 0x0 ISZERO ISZERO DUP2 MSTORE POP PUSH1 0x4 PUSH1 0x0 PUSH20 0xADA67460CF329D12C1ED898710CC8DA5D40D8025 PUSH20 0xFFFFFFFFFFFFFFFFFFFFFFFFFFFFFFFFFFFFFFFF AND PUSH20 0xFFFFFFFFFFFFFFFFFFFFFFFFFFFFFFFFFFFFFFFF AND DUP2 MSTORE PUSH1 0x20 ADD SWAP1 DUP2 MSTORE PUSH1 0x20 ADD PUSH1 0x0 KECCAK256 PUSH1 0x0 DUP3 ADD MLOAD DUP2 PUSH1 0x0 ADD SWAP1 DUP1 MLOAD SWAP1 PUSH1 0x20 ADD SWAP1 PUSH3 0x7C2 SWAP3 SWAP2 SWAP1 PUSH3 0x919 JUMP JUMPDEST POP PUSH1 0x20 DUP3 ADD MLOAD DUP2 PUSH1 0x1 ADD SSTORE PUSH1 0x40 DUP3 ADD MLOAD DUP2 PUSH1 0x2 ADD SSTORE PUSH1 0x60 DUP3 ADD MLOAD DUP2 PUSH1 0x3 ADD PUSH1 0x0 PUSH2 0x100 EXP DUP2 SLOAD DUP2 PUSH1 0xFF MUL NOT AND SWAP1 DUP4 ISZERO ISZERO MUL OR SWAP1 SSTORE POP SWAP1 POP POP PUSH1 0x6 DUP1 PUSH1 0x1 DUP2 SLOAD ADD DUP1 DUP3 SSTORE DUP1 SWAP2 POP POP PUSH1 0x1 SWAP1 SUB SWAP1 PUSH1 0x0 MSTORE PUSH1 0x20 PUSH1 0x0 KECCAK256 ADD PUSH1 0x0 PUSH1 0x40 MLOAD DUP1 PUSH1 0x40 ADD PUSH1 0x40 MSTORE DUP1 PUSH1 0x4 DUP2 MSTORE PUSH1 0x20 ADD PUSH32 0x5065746100000000000000000000000000000000000000000000000000000000 DUP2 MSTORE POP SWAP1 SWAP2 SWAP1 SWAP2 POP SWAP1 DUP1 MLOAD SWAP1 PUSH1 0x20 ADD SWAP1 PUSH3 0x869 SWAP3 SWAP2 SWAP1 PUSH3 0x919 JUMP JUMPDEST POP PUSH1 0x7 PUSH20 0xADA67460CF329D12C1ED898710CC8DA5D40D8025 SWAP1 DUP1 PUSH1 0x1 DUP2 SLOAD ADD DUP1 DUP3 SSTORE DUP1 SWAP2 POP POP PUSH1 0x1 SWAP1 SUB SWAP1 PUSH1 0x0 MSTORE PUSH1 0x20 PUSH1 0x0 KECCAK256 ADD PUSH1 0x0 SWAP1 SWAP2 SWAP1 SWAP2 SWAP1 SWAP2 PUSH2 0x100 EXP DUP2 SLOAD DUP2 PUSH20 0xFFFFFFFFFFFFFFFFFFFFFFFFFFFFFFFFFFFFFFFF MUL NOT AND SWAP1 DUP4 PUSH20 0xFFFFFFFFFFFFFFFFFFFFFFFFFFFFFFFFFFFFFFFF AND MUL OR SWAP1 SSTORE POP PUSH3 0xC97 JUMP JUMPDEST PUSH1 0x0 DUP2 PUSH1 0x40 MLOAD PUSH1 0x20 ADD PUSH3 0x8FC SWAP2 SWAP1 PUSH3 0xB0D JUMP JUMPDEST PUSH1 0x40 MLOAD PUSH1 0x20 DUP2 DUP4 SUB SUB DUP2 MSTORE SWAP1 PUSH1 0x40 MSTORE DUP1 MLOAD SWAP1 PUSH1 0x20 ADD KECCAK256 SWAP1 POP SWAP2 SWAP1 POP JUMP JUMPDEST DUP3 DUP1 SLOAD PUSH3 0x927 SWAP1 PUSH3 0xBB7 JUMP JUMPDEST SWAP1 PUSH1 0x0 MSTORE PUSH1 0x20 PUSH1 0x0 KECCAK256 SWAP1 PUSH1 0x1F ADD PUSH1 0x20 SWAP1 DIV DUP2 ADD SWAP3 DUP3 PUSH3 0x94B JUMPI PUSH1 0x0 DUP6 SSTORE PUSH3 0x997 JUMP JUMPDEST DUP3 PUSH1 0x1F LT PUSH3 0x966 JUMPI DUP1 MLOAD PUSH1 0xFF NOT AND DUP4 DUP1 ADD OR DUP6 SSTORE PUSH3 0x997 JUMP JUMPDEST DUP3 DUP1 ADD PUSH1 0x1 ADD DUP6 SSTORE DUP3 ISZERO PUSH3 0x997 JUMPI SWAP2 DUP3 ADD JUMPDEST DUP3 DUP2 GT ISZERO PUSH3 0x996 JUMPI DUP3 MLOAD DUP3 SSTORE SWAP2 PUSH1 0x20 ADD SWAP2 SWAP1 PUSH1 0x1 ADD SWAP1 PUSH3 0x979 JUMP JUMPDEST JUMPDEST POP SWAP1 POP PUSH3 0x9A6 SWAP2 SWAP1 PUSH3 0xA42 JUMP JUMPDEST POP SWAP1 JUMP JUMPDEST DUP3 DUP1 SLOAD PUSH3 0x9B8 SWAP1 PUSH3 0xBB7 JUMP JUMPDEST SWAP1 PUSH1 0x0 MSTORE PUSH1 0x20 PUSH1 0x0 KECCAK256 SWAP1 PUSH1 0x1F ADD PUSH1 0x20 SWAP1 DIV DUP2 ADD SWAP3 DUP3 PUSH3 0x9DC JUMPI PUSH1 0x0 DUP6 SSTORE PUSH3 0xA2F JUMP JUMPDEST DUP3 PUSH1 0x1F LT PUSH3 0x9EF JUMPI DUP1 SLOAD DUP6 SSTORE PUSH3 0xA2F JUMP JUMPDEST DUP3 DUP1 ADD PUSH1 0x1 ADD DUP6 SSTORE DUP3 ISZERO PUSH3 0xA2F JUMPI PUSH1 0x0 MSTORE PUSH1 0x20 PUSH1 0x0 KECCAK256 SWAP2 PUSH1 0x1F ADD PUSH1 0x20 SWAP1 DIV DUP3 ADD JUMPDEST DUP3 DUP2 GT ISZERO PUSH3 0xA2E JUMPI DUP3 SLOAD DUP3 SSTORE SWAP2 PUSH1 0x1 ADD SWAP2 SWAP1 PUSH1 0x1 ADD SWAP1 PUSH3 0xA11 JUMP JUMPDEST JUMPDEST POP SWAP1 POP PUSH3 0xA3E SWAP2 SWAP1 PUSH3 0xA42 JUMP JUMPDEST POP SWAP1 JUMP JUMPDEST JUMPDEST DUP1 DUP3 GT ISZERO PUSH3 0xA5D JUMPI PUSH1 0x0 DUP2 PUSH1 0x0 SWAP1 SSTORE POP PUSH1 0x1 ADD PUSH3 0xA43 JUMP JUMPDEST POP SWAP1 JUMP JUMPDEST PUSH1 0x0 PUSH3 0xA6E DUP3 PUSH3 0xB6B JUMP JUMPDEST PUSH3 0xA7A DUP2 DUP6 PUSH3 0xB76 JUMP JUMPDEST SWAP4 POP PUSH3 0xA8C DUP2 DUP6 PUSH1 0x20 DUP7 ADD PUSH3 0xB81 JUMP JUMPDEST DUP1 DUP5 ADD SWAP2 POP POP SWAP3 SWAP2 POP POP JUMP JUMPDEST PUSH1 0x0 PUSH3 0xAA7 PUSH1 0x4 DUP4 PUSH3 0xB76 JUMP JUMPDEST SWAP2 POP PUSH3 0xAB4 DUP3 PUSH3 0xC1C JUMP JUMPDEST PUSH1 0x4 DUP3 ADD SWAP1 POP SWAP2 SWAP1 POP JUMP JUMPDEST PUSH1 0x0 PUSH3 0xACE PUSH1 0x7 DUP4 PUSH3 0xB76 JUMP JUMPDEST SWAP2 POP PUSH3 0xADB DUP3 PUSH3 0xC45 JUMP JUMPDEST PUSH1 0x7 DUP3 ADD SWAP1 POP SWAP2 SWAP1 POP JUMP JUMPDEST PUSH1 0x0 PUSH3 0xAF5 PUSH1 0x4 DUP4 PUSH3 0xB76 JUMP JUMPDEST SWAP2 POP PUSH3 0xB02 DUP3 PUSH3 0xC6E JUMP JUMPDEST PUSH1 0x4 DUP3 ADD SWAP1 POP SWAP2 SWAP1 POP JUMP JUMPDEST PUSH1 0x0 PUSH3 0xB1B DUP3 DUP5 PUSH3 0xA61 JUMP JUMPDEST SWAP2 POP DUP2 SWAP1 POP SWAP3 SWAP2 POP POP JUMP JUMPDEST PUSH1 0x0 PUSH3 0xB33 DUP3 PUSH3 0xA98 JUMP JUMPDEST SWAP2 POP DUP2 SWAP1 POP SWAP2 SWAP1 POP JUMP JUMPDEST PUSH1 0x0 PUSH3 0xB4A DUP3 PUSH3 0xABF JUMP JUMPDEST SWAP2 POP DUP2 SWAP1 POP SWAP2 SWAP1 POP JUMP JUMPDEST PUSH1 0x0 PUSH3 0xB61 DUP3 PUSH3 0xAE6 JUMP JUMPDEST SWAP2 POP DUP2 SWAP1 POP SWAP2 SWAP1 POP JUMP JUMPDEST PUSH1 0x0 DUP2 MLOAD SWAP1 POP SWAP2 SWAP1 POP JUMP JUMPDEST PUSH1 0x0 DUP2 SWAP1 POP SWAP3 SWAP2 POP POP JUMP JUMPDEST PUSH1 0x0 JUMPDEST DUP4 DUP2 LT ISZERO PUSH3 0xBA1 JUMPI DUP1 DUP3 ADD MLOAD DUP2 DUP5 ADD MSTORE PUSH1 0x20 DUP2 ADD SWAP1 POP PUSH3 0xB84 JUMP JUMPDEST DUP4 DUP2 GT ISZERO PUSH3 0xBB1 JUMPI PUSH1 0x0 DUP5 DUP5 ADD MSTORE JUMPDEST POP POP POP POP JUMP JUMPDEST PUSH1 0x0 PUSH1 0x2 DUP3 DIV SWAP1 POP PUSH1 0x1 DUP3 AND DUP1 PUSH3 0xBD0 JUMPI PUSH1 0x7F DUP3 AND SWAP2 POP JUMPDEST PUSH1 0x20 DUP3 LT DUP2 EQ ISZERO PUSH3 0xBE7 JUMPI PUSH3 0xBE6 PUSH3 0xBED JUMP JUMPDEST JUMPDEST POP SWAP2 SWAP1 POP JUMP JUMPDEST PUSH32 0x4E487B7100000000000000000000000000000000000000000000000000000000 PUSH1 0x0 MSTORE PUSH1 0x22 PUSH1 0x4 MSTORE PUSH1 0x24 PUSH1 0x0 REVERT JUMPDEST PUSH32 0x5065746100000000000000000000000000000000000000000000000000000000 PUSH1 0x0 DUP3 ADD MSTORE POP JUMP JUMPDEST PUSH32 0x50726F6475637400000000000000000000000000000000000000000000000000 PUSH1 0x0 DUP3 ADD MSTORE POP JUMP JUMPDEST PUSH32 0x4265657200000000000000000000000000000000000000000000000000000000 PUSH1 0x0 DUP3 ADD MSTORE POP JUMP JUMPDEST PUSH2 0x40C7 DUP1 PUSH3 0xCA7 PUSH1 0x0 CODECOPY PUSH1 0x0 RETURN INVALID PUSH1 0x80 PUSH1 0x40 MSTORE PUSH1 0x4 CALLDATASIZE LT PUSH2 0x1EE JUMPI PUSH1 0x0 CALLDATALOAD PUSH1 0xE0 SHR DUP1 PUSH4 0x6BA44D3C GT PUSH2 0x10D JUMPI DUP1 PUSH4 0xA985036D GT PUSH2 0xA0 JUMPI DUP1 PUSH4 0xCC21C188 GT PUSH2 0x6F JUMPI DUP1 PUSH4 0xCC21C188 EQ PUSH2 0x792 JUMPI DUP1 PUSH4 0xD22D9020 EQ PUSH2 0x7BB JUMPI DUP1 PUSH4 0xD68CF8C1 EQ PUSH2 0x7E4 JUMPI DUP1 PUSH4 0xDCE39151 EQ PUSH2 0x824 JUMPI DUP1 PUSH4 0xF7647F36 EQ PUSH2 0x864 JUMPI PUSH2 0x1EE JUMP JUMPDEST DUP1 PUSH4 0xA985036D EQ PUSH2 0x6B0 JUMPI DUP1 PUSH4 0xA9F9482B EQ PUSH2 0x6ED JUMPI DUP1 PUSH4 0xBBD43363 EQ PUSH2 0x72C JUMPI DUP1 PUSH4 0xC4957FA0 EQ PUSH2 0x755 JUMPI PUSH2 0x1EE JUMP JUMPDEST DUP1 PUSH4 0x845952A8 GT PUSH2 0xDC JUMPI DUP1 PUSH4 0x845952A8 EQ PUSH2 0x5C7 JUMPI DUP1 PUSH4 0x87048043 EQ PUSH2 0x604 JUMPI DUP1 PUSH4 0x8E23CB40 EQ PUSH2 0x62D JUMPI DUP1 PUSH4 0x961865F0 EQ PUSH2 0x670 JUMPI PUSH2 0x1EE JUMP JUMPDEST DUP1 PUSH4 0x6BA44D3C EQ PUSH2 0x4F9 JUMPI DUP1 PUSH4 0x6C05DD1D EQ PUSH2 0x536 JUMPI DUP1 PUSH4 0x73B62BD0 EQ PUSH2 0x55F JUMPI DUP1 PUSH4 0x775EB9E6 EQ PUSH2 0x59E JUMPI PUSH2 0x1EE JUMP JUMPDEST DUP1 PUSH4 0x2CCDEF7C GT PUSH2 0x185 JUMPI DUP1 PUSH4 0x5828C584 GT PUSH2 0x154 JUMPI DUP1 PUSH4 0x5828C584 EQ PUSH2 0x42B JUMPI DUP1 PUSH4 0x5BBC9A3F EQ PUSH2 0x454 JUMPI DUP1 PUSH4 0x5BD37C9E EQ PUSH2 0x491 JUMPI DUP1 PUSH4 0x5BDB63FA EQ PUSH2 0x4BC JUMPI PUSH2 0x1EE JUMP JUMPDEST DUP1 PUSH4 0x2CCDEF7C EQ PUSH2 0x36C JUMPI DUP1 PUSH4 0x3B84AEDC EQ PUSH2 0x388 JUMPI DUP1 PUSH4 0x521B9170 EQ PUSH2 0x3C5 JUMPI DUP1 PUSH4 0x55149FD5 EQ PUSH2 0x3EE JUMPI PUSH2 0x1EE JUMP JUMPDEST DUP1 PUSH4 0x1BBE970A GT PUSH2 0x1C1 JUMPI DUP1 PUSH4 0x1BBE970A EQ PUSH2 0x29E JUMPI DUP1 PUSH4 0x1E279A37 EQ PUSH2 0x2DB JUMPI DUP1 PUSH4 0x1F8DAAC8 EQ PUSH2 0x318 JUMPI DUP1 PUSH4 0x29E795F3 EQ PUSH2 0x343 JUMPI PUSH2 0x1EE JUMP JUMPDEST DUP1 PUSH4 0x33FF0B8 EQ PUSH2 0x1F3 JUMPI DUP1 PUSH4 0x4AC16F6 EQ PUSH2 0x230 JUMPI DUP1 PUSH4 0xE1C81B2 EQ PUSH2 0x259 JUMPI DUP1 PUSH4 0x146DC6ED EQ PUSH2 0x282 JUMPI JUMPDEST PUSH1 0x0 DUP1 REVERT JUMPDEST CALLVALUE DUP1 ISZERO PUSH2 0x1FF JUMPI PUSH1 0x0 DUP1 REVERT JUMPDEST POP PUSH2 0x21A PUSH1 0x4 DUP1 CALLDATASIZE SUB DUP2 ADD SWAP1 PUSH2 0x215 SWAP2 SWAP1 PUSH2 0x31FE JUMP JUMPDEST PUSH2 0x880 JUMP JUMPDEST PUSH1 0x40 MLOAD PUSH2 0x227 SWAP2 SWAP1 PUSH2 0x3AC0 JUMP JUMPDEST PUSH1 0x40 MLOAD DUP1 SWAP2 SUB SWAP1 RETURN JUMPDEST CALLVALUE DUP1 ISZERO PUSH2 0x23C JUMPI PUSH1 0x0 DUP1 REVERT JUMPDEST POP PUSH2 0x257 PUSH1 0x4 DUP1 CALLDATASIZE SUB DUP2 ADD SWAP1 PUSH2 0x252 SWAP2 SWAP1 PUSH2 0x31FE JUMP JUMPDEST PUSH2 0x909 JUMP JUMPDEST STOP JUMPDEST CALLVALUE DUP1 ISZERO PUSH2 0x265 JUMPI PUSH1 0x0 DUP1 REVERT JUMPDEST POP PUSH2 0x280 PUSH1 0x4 DUP1 CALLDATASIZE SUB DUP2 ADD SWAP1 PUSH2 0x27B SWAP2 SWAP1 PUSH2 0x318F JUMP JUMPDEST PUSH2 0x9A4 JUMP JUMPDEST STOP JUMPDEST PUSH2 0x29C PUSH1 0x4 DUP1 CALLDATASIZE SUB DUP2 ADD SWAP1 PUSH2 0x297 SWAP2 SWAP1 PUSH2 0x31FE JUMP JUMPDEST PUSH2 0xBCE JUMP JUMPDEST STOP JUMPDEST CALLVALUE DUP1 ISZERO PUSH2 0x2AA JUMPI PUSH1 0x0 DUP1 REVERT JUMPDEST POP PUSH2 0x2C5 PUSH1 0x4 DUP1 CALLDATASIZE SUB DUP2 ADD SWAP1 PUSH2 0x2C0 SWAP2 SWAP1 PUSH2 0x31FE JUMP JUMPDEST PUSH2 0xD29 JUMP JUMPDEST PUSH1 0x40 MLOAD PUSH2 0x2D2 SWAP2 SWAP1 PUSH2 0x37C5 JUMP JUMPDEST PUSH1 0x40 MLOAD DUP1 SWAP2 SUB SWAP1 RETURN JUMPDEST CALLVALUE DUP1 ISZERO PUSH2 0x2E7 JUMPI PUSH1 0x0 DUP1 REVERT JUMPDEST POP PUSH2 0x302 PUSH1 0x4 DUP1 CALLDATASIZE SUB DUP2 ADD SWAP1 PUSH2 0x2FD SWAP2 SWAP1 PUSH2 0x3162 JUMP JUMPDEST PUSH2 0xD72 JUMP JUMPDEST PUSH1 0x40 MLOAD PUSH2 0x30F SWAP2 SWAP1 PUSH2 0x3AC0 JUMP JUMPDEST PUSH1 0x40 MLOAD DUP1 SWAP2 SUB SWAP1 RETURN JUMPDEST CALLVALUE DUP1 ISZERO PUSH2 0x324 JUMPI PUSH1 0x0 DUP1 REVERT JUMPDEST POP PUSH2 0x32D PUSH2 0xD98 JUMP JUMPDEST PUSH1 0x40 MLOAD PUSH2 0x33A SWAP2 SWAP1 PUSH2 0x38B6 JUMP JUMPDEST PUSH1 0x40 MLOAD DUP1 SWAP2 SUB SWAP1 RETURN JUMPDEST CALLVALUE DUP1 ISZERO PUSH2 0x34F JUMPI PUSH1 0x0 DUP1 REVERT JUMPDEST POP PUSH2 0x36A PUSH1 0x4 DUP1 CALLDATASIZE SUB DUP2 ADD SWAP1 PUSH2 0x365 SWAP2 SWAP1 PUSH2 0x3247 JUMP JUMPDEST PUSH2 0xE71 JUMP JUMPDEST STOP JUMPDEST PUSH2 0x386 PUSH1 0x4 DUP1 CALLDATASIZE SUB DUP2 ADD SWAP1 PUSH2 0x381 SWAP2 SWAP1 PUSH2 0x345E JUMP JUMPDEST PUSH2 0xFDB JUMP JUMPDEST STOP JUMPDEST CALLVALUE DUP1 ISZERO PUSH2 0x394 JUMPI PUSH1 0x0 DUP1 REVERT JUMPDEST POP PUSH2 0x3AF PUSH1 0x4 DUP1 CALLDATASIZE SUB DUP2 ADD SWAP1 PUSH2 0x3AA SWAP2 SWAP1 PUSH2 0x31FE JUMP JUMPDEST PUSH2 0x113F JUMP JUMPDEST PUSH1 0x40 MLOAD PUSH2 0x3BC SWAP2 SWAP1 PUSH2 0x38D8 JUMP JUMPDEST PUSH1 0x40 MLOAD DUP1 SWAP2 SUB SWAP1 RETURN JUMPDEST CALLVALUE DUP1 ISZERO PUSH2 0x3D1 JUMPI PUSH1 0x0 DUP1 REVERT JUMPDEST POP PUSH2 0x3EC PUSH1 0x4 DUP1 CALLDATASIZE SUB DUP2 ADD SWAP1 PUSH2 0x3E7 SWAP2 SWAP1 PUSH2 0x31FE JUMP JUMPDEST PUSH2 0x11D5 JUMP JUMPDEST STOP JUMPDEST CALLVALUE DUP1 ISZERO PUSH2 0x3FA JUMPI PUSH1 0x0 DUP1 REVERT JUMPDEST POP PUSH2 0x415 PUSH1 0x4 DUP1 CALLDATASIZE SUB DUP2 ADD SWAP1 PUSH2 0x410 SWAP2 SWAP1 PUSH2 0x31FE JUMP JUMPDEST PUSH2 0x1271 JUMP JUMPDEST PUSH1 0x40 MLOAD PUSH2 0x422 SWAP2 SWAP1 PUSH2 0x390E JUMP JUMPDEST PUSH1 0x40 MLOAD DUP1 SWAP2 SUB SWAP1 RETURN JUMPDEST CALLVALUE DUP1 ISZERO PUSH2 0x437 JUMPI PUSH1 0x0 DUP1 REVERT JUMPDEST POP PUSH2 0x452 PUSH1 0x4 DUP1 CALLDATASIZE SUB DUP2 ADD SWAP1 PUSH2 0x44D SWAP2 SWAP1 PUSH2 0x31FE JUMP JUMPDEST PUSH2 0x1382 JUMP JUMPDEST STOP JUMPDEST CALLVALUE DUP1 ISZERO PUSH2 0x460 JUMPI PUSH1 0x0 DUP1 REVERT JUMPDEST POP PUSH2 0x47B PUSH1 0x4 DUP1 CALLDATASIZE SUB DUP2 ADD SWAP1 PUSH2 0x476 SWAP2 SWAP1 PUSH2 0x31FE JUMP JUMPDEST PUSH2 0x146A JUMP JUMPDEST PUSH1 0x40 MLOAD PUSH2 0x488 SWAP2 SWAP1 PUSH2 0x38D8 JUMP JUMPDEST PUSH1 0x40 MLOAD DUP1 SWAP2 SUB SWAP1 RETURN JUMPDEST CALLVALUE DUP1 ISZERO PUSH2 0x49D JUMPI PUSH1 0x0 DUP1 REVERT JUMPDEST POP PUSH2 0x4A6 PUSH2 0x1501 JUMP JUMPDEST PUSH1 0x40 MLOAD PUSH2 0x4B3 SWAP2 SWAP1 PUSH2 0x38B6 JUMP JUMPDEST PUSH1 0x40 MLOAD DUP1 SWAP2 SUB SWAP1 RETURN JUMPDEST CALLVALUE DUP1 ISZERO PUSH2 0x4C8 JUMPI PUSH1 0x0 DUP1 REVERT JUMPDEST POP PUSH2 0x4E3 PUSH1 0x4 DUP1 CALLDATASIZE SUB DUP2 ADD SWAP1 PUSH2 0x4DE SWAP2 SWAP1 PUSH2 0x31FE JUMP JUMPDEST PUSH2 0x15DA JUMP JUMPDEST PUSH1 0x40 MLOAD PUSH2 0x4F0 SWAP2 SWAP1 PUSH2 0x3AC0 JUMP JUMPDEST PUSH1 0x40 MLOAD DUP1 SWAP2 SUB SWAP1 RETURN JUMPDEST CALLVALUE DUP1 ISZERO PUSH2 0x505 JUMPI PUSH1 0x0 DUP1 REVERT JUMPDEST POP PUSH2 0x520 PUSH1 0x4 DUP1 CALLDATASIZE SUB DUP2 ADD SWAP1 PUSH2 0x51B SWAP2 SWAP1 PUSH2 0x31FE JUMP JUMPDEST PUSH2 0x1664 JUMP JUMPDEST PUSH1 0x40 MLOAD PUSH2 0x52D SWAP2 SWAP1 PUSH2 0x37C5 JUMP JUMPDEST PUSH1 0x40 MLOAD DUP1 SWAP2 SUB SWAP1 RETURN JUMPDEST CALLVALUE DUP1 ISZERO PUSH2 0x542 JUMPI PUSH1 0x0 DUP1 REVERT JUMPDEST POP PUSH2 0x55D PUSH1 0x4 DUP1 CALLDATASIZE SUB DUP2 ADD SWAP1 PUSH2 0x558 SWAP2 SWAP1 PUSH2 0x33A6 JUMP JUMPDEST PUSH2 0x176A JUMP JUMPDEST STOP JUMPDEST CALLVALUE DUP1 ISZERO PUSH2 0x56B JUMPI PUSH1 0x0 DUP1 REVERT JUMPDEST POP PUSH2 0x586 PUSH1 0x4 DUP1 CALLDATASIZE SUB DUP2 ADD SWAP1 PUSH2 0x581 SWAP2 SWAP1 PUSH2 0x3431 JUMP JUMPDEST PUSH2 0x18A8 JUMP JUMPDEST PUSH1 0x40 MLOAD PUSH2 0x595 SWAP4 SWAP3 SWAP2 SWAP1 PUSH2 0x37E0 JUMP JUMPDEST PUSH1 0x40 MLOAD DUP1 SWAP2 SUB SWAP1 RETURN JUMPDEST CALLVALUE DUP1 ISZERO PUSH2 0x5AA JUMPI PUSH1 0x0 DUP1 REVERT JUMPDEST POP PUSH2 0x5C5 PUSH1 0x4 DUP1 CALLDATASIZE SUB DUP2 ADD SWAP1 PUSH2 0x5C0 SWAP2 SWAP1 PUSH2 0x32BF JUMP JUMPDEST PUSH2 0x1997 JUMP JUMPDEST STOP JUMPDEST CALLVALUE DUP1 ISZERO PUSH2 0x5D3 JUMPI PUSH1 0x0 DUP1 REVERT JUMPDEST POP PUSH2 0x5EE PUSH1 0x4 DUP1 CALLDATASIZE SUB DUP2 ADD SWAP1 PUSH2 0x5E9 SWAP2 SWAP1 PUSH2 0x31FE JUMP JUMPDEST PUSH2 0x1C75 JUMP JUMPDEST PUSH1 0x40 MLOAD PUSH2 0x5FB SWAP2 SWAP1 PUSH2 0x38F3 JUMP JUMPDEST PUSH1 0x40 MLOAD DUP1 SWAP2 SUB SWAP1 RETURN JUMPDEST CALLVALUE DUP1 ISZERO PUSH2 0x610 JUMPI PUSH1 0x0 DUP1 REVERT JUMPDEST POP PUSH2 0x62B PUSH1 0x4 DUP1 CALLDATASIZE SUB DUP2 ADD SWAP1 PUSH2 0x626 SWAP2 SWAP1 PUSH2 0x345E JUMP JUMPDEST PUSH2 0x1CA5 JUMP JUMPDEST STOP JUMPDEST CALLVALUE DUP1 ISZERO PUSH2 0x639 JUMPI PUSH1 0x0 DUP1 REVERT JUMPDEST POP PUSH2 0x654 PUSH1 0x4 DUP1 CALLDATASIZE SUB DUP2 ADD SWAP1 PUSH2 0x64F SWAP2 SWAP1 PUSH2 0x3162 JUMP JUMPDEST PUSH2 0x1E09 JUMP JUMPDEST PUSH1 0x40 MLOAD PUSH2 0x667 SWAP8 SWAP7 SWAP6 SWAP5 SWAP4 SWAP3 SWAP2 SWAP1 PUSH2 0x397C JUMP JUMPDEST PUSH1 0x40 MLOAD DUP1 SWAP2 SUB SWAP1 RETURN JUMPDEST CALLVALUE DUP1 ISZERO PUSH2 0x67C JUMPI PUSH1 0x0 DUP1 REVERT JUMPDEST POP PUSH2 0x697 PUSH1 0x4 DUP1 CALLDATASIZE SUB DUP2 ADD SWAP1 PUSH2 0x692 SWAP2 SWAP1 PUSH2 0x3162 JUMP JUMPDEST PUSH2 0x1FF0 JUMP JUMPDEST PUSH1 0x40 MLOAD PUSH2 0x6A7 SWAP5 SWAP4 SWAP3 SWAP2 SWAP1 PUSH2 0x3930 JUMP JUMPDEST PUSH1 0x40 MLOAD DUP1 SWAP2 SUB SWAP1 RETURN JUMPDEST CALLVALUE DUP1 ISZERO PUSH2 0x6BC JUMPI PUSH1 0x0 DUP1 REVERT JUMPDEST POP PUSH2 0x6D7 PUSH1 0x4 DUP1 CALLDATASIZE SUB DUP2 ADD SWAP1 PUSH2 0x6D2 SWAP2 SWAP1 PUSH2 0x31FE JUMP JUMPDEST PUSH2 0x20B5 JUMP JUMPDEST PUSH1 0x40 MLOAD PUSH2 0x6E4 SWAP2 SWAP1 PUSH2 0x3AC0 JUMP JUMPDEST PUSH1 0x40 MLOAD DUP1 SWAP2 SUB SWAP1 RETURN JUMPDEST CALLVALUE DUP1 ISZERO PUSH2 0x6F9 JUMPI PUSH1 0x0 DUP1 REVERT JUMPDEST POP PUSH2 0x714 PUSH1 0x4 DUP1 CALLDATASIZE SUB DUP2 ADD SWAP1 PUSH2 0x70F SWAP2 SWAP1 PUSH2 0x3431 JUMP JUMPDEST PUSH2 0x22D5 JUMP JUMPDEST PUSH1 0x40 MLOAD PUSH2 0x723 SWAP4 SWAP3 SWAP2 SWAP1 PUSH2 0x37E0 JUMP JUMPDEST PUSH1 0x40 MLOAD DUP1 SWAP2 SUB SWAP1 RETURN JUMPDEST CALLVALUE DUP1 ISZERO PUSH2 0x738 JUMPI PUSH1 0x0 DUP1 REVERT JUMPDEST POP PUSH2 0x753 PUSH1 0x4 DUP1 CALLDATASIZE SUB DUP2 ADD SWAP1 PUSH2 0x74E SWAP2 SWAP1 PUSH2 0x31FE JUMP JUMPDEST PUSH2 0x23C4 JUMP JUMPDEST STOP JUMPDEST CALLVALUE DUP1 ISZERO PUSH2 0x761 JUMPI PUSH1 0x0 DUP1 REVERT JUMPDEST POP PUSH2 0x77C PUSH1 0x4 DUP1 CALLDATASIZE SUB DUP2 ADD SWAP1 PUSH2 0x777 SWAP2 SWAP1 PUSH2 0x31FE JUMP JUMPDEST PUSH2 0x24AC JUMP JUMPDEST PUSH1 0x40 MLOAD PUSH2 0x789 SWAP2 SWAP1 PUSH2 0x37C5 JUMP JUMPDEST PUSH1 0x40 MLOAD DUP1 SWAP2 SUB SWAP1 RETURN JUMPDEST CALLVALUE DUP1 ISZERO PUSH2 0x79E JUMPI PUSH1 0x0 DUP1 REVERT JUMPDEST POP PUSH2 0x7B9 PUSH1 0x4 DUP1 CALLDATASIZE SUB DUP2 ADD SWAP1 PUSH2 0x7B4 SWAP2 SWAP1 PUSH2 0x331B JUMP JUMPDEST PUSH2 0x24F5 JUMP JUMPDEST STOP JUMPDEST CALLVALUE DUP1 ISZERO PUSH2 0x7C7 JUMPI PUSH1 0x0 DUP1 REVERT JUMPDEST POP PUSH2 0x7E2 PUSH1 0x4 DUP1 CALLDATASIZE SUB DUP2 ADD SWAP1 PUSH2 0x7DD SWAP2 SWAP1 PUSH2 0x32BF JUMP JUMPDEST PUSH2 0x2801 JUMP JUMPDEST STOP JUMPDEST CALLVALUE DUP1 ISZERO PUSH2 0x7F0 JUMPI PUSH1 0x0 DUP1 REVERT JUMPDEST POP PUSH2 0x80B PUSH1 0x4 DUP1 CALLDATASIZE SUB DUP2 ADD SWAP1 PUSH2 0x806 SWAP2 SWAP1 PUSH2 0x31FE JUMP JUMPDEST PUSH2 0x2AE2 JUMP JUMPDEST PUSH1 0x40 MLOAD PUSH2 0x81B SWAP5 SWAP4 SWAP3 SWAP2 SWAP1 PUSH2 0x386A JUMP JUMPDEST PUSH1 0x40 MLOAD DUP1 SWAP2 SUB SWAP1 RETURN JUMPDEST CALLVALUE DUP1 ISZERO PUSH2 0x830 JUMPI PUSH1 0x0 DUP1 REVERT JUMPDEST POP PUSH2 0x84B PUSH1 0x4 DUP1 CALLDATASIZE SUB DUP2 ADD SWAP1 PUSH2 0x846 SWAP2 SWAP1 PUSH2 0x3431 JUMP JUMPDEST PUSH2 0x2BD0 JUMP JUMPDEST PUSH1 0x40 MLOAD PUSH2 0x85B SWAP5 SWAP4 SWAP3 SWAP2 SWAP1 PUSH2 0x381E JUMP JUMPDEST PUSH1 0x40 MLOAD DUP1 SWAP2 SUB SWAP1 RETURN JUMPDEST PUSH2 0x87E PUSH1 0x4 DUP1 CALLDATASIZE SUB DUP2 ADD SWAP1 PUSH2 0x879 SWAP2 SWAP1 PUSH2 0x349E JUMP JUMPDEST PUSH2 0x2CC5 JUMP JUMPDEST STOP JUMPDEST PUSH1 0x0 DUP1 PUSH1 0x0 PUSH1 0x1 DUP5 PUSH1 0x40 MLOAD PUSH2 0x895 SWAP2 SWAP1 PUSH2 0x3797 JUMP JUMPDEST SWAP1 DUP2 MSTORE PUSH1 0x20 ADD PUSH1 0x40 MLOAD DUP1 SWAP2 SUB SWAP1 KECCAK256 PUSH1 0x0 SWAP1 SLOAD SWAP1 PUSH2 0x100 EXP SWAP1 DIV PUSH20 0xFFFFFFFFFFFFFFFFFFFFFFFFFFFFFFFFFFFFFFFF AND PUSH20 0xFFFFFFFFFFFFFFFFFFFFFFFFFFFFFFFFFFFFFFFF AND PUSH20 0xFFFFFFFFFFFFFFFFFFFFFFFFFFFFFFFFFFFFFFFF AND DUP2 MSTORE PUSH1 0x20 ADD SWAP1 DUP2 MSTORE PUSH1 0x20 ADD PUSH1 0x0 KECCAK256 PUSH1 0x2 ADD SLOAD SWAP1 POP SWAP2 SWAP1 POP JUMP JUMPDEST PUSH1 0x0 DUP1 PUSH1 0x0 PUSH1 0x1 DUP5 PUSH1 0x40 MLOAD PUSH2 0x91E SWAP2 SWAP1 PUSH2 0x3797 JUMP JUMPDEST SWAP1 DUP2 MSTORE PUSH1 0x20 ADD PUSH1 0x40 MLOAD DUP1 SWAP2 SUB SWAP1 KECCAK256 PUSH1 0x0 SWAP1 SLOAD SWAP1 PUSH2 0x100 EXP SWAP1 DIV PUSH20 0xFFFFFFFFFFFFFFFFFFFFFFFFFFFFFFFFFFFFFFFF AND PUSH20 0xFFFFFFFFFFFFFFFFFFFFFFFFFFFFFFFFFFFFFFFF AND PUSH20 0xFFFFFFFFFFFFFFFFFFFFFFFFFFFFFFFFFFFFFFFF AND DUP2 MSTORE PUSH1 0x20 ADD SWAP1 DUP2 MSTORE PUSH1 0x20 ADD PUSH1 0x0 KECCAK256 PUSH1 0x3 ADD PUSH1 0x0 PUSH2 0x100 EXP DUP2 SLOAD DUP2 PUSH1 0xFF MUL NOT AND SWAP1 DUP4 ISZERO ISZERO MUL OR SWAP1 SSTORE POP POP JUMP JUMPDEST PUSH1 0x0 PUSH20 0xFFFFFFFFFFFFFFFFFFFFFFFFFFFFFFFFFFFFFFFF AND PUSH1 0x5 DUP4 PUSH1 0x40 MLOAD PUSH2 0x9CC SWAP2 SWAP1 PUSH2 0x3797 JUMP JUMPDEST SWAP1 DUP2 MSTORE PUSH1 0x20 ADD PUSH1 0x40 MLOAD DUP1 SWAP2 SUB SWAP1 KECCAK256 PUSH1 0x0 SWAP1 SLOAD SWAP1 PUSH2 0x100 EXP SWAP1 DIV PUSH20 0xFFFFFFFFFFFFFFFFFFFFFFFFFFFFFFFFFFFFFFFF AND PUSH20 0xFFFFFFFFFFFFFFFFFFFFFFFFFFFFFFFFFFFFFFFF AND EQ PUSH2 0xA51 JUMPI PUSH1 0x40 MLOAD PUSH32 0x8C379A000000000000000000000000000000000000000000000000000000000 DUP2 MSTORE PUSH1 0x4 ADD PUSH2 0xA48 SWAP1 PUSH2 0x3A00 JUMP JUMPDEST PUSH1 0x40 MLOAD DUP1 SWAP2 SUB SWAP1 REVERT JUMPDEST PUSH1 0x40 MLOAD DUP1 PUSH1 0x80 ADD PUSH1 0x40 MSTORE DUP1 DUP4 DUP2 MSTORE PUSH1 0x20 ADD DUP3 DUP2 MSTORE PUSH1 0x20 ADD PUSH1 0x2 DUP2 MSTORE PUSH1 0x20 ADD PUSH1 0x0 ISZERO ISZERO DUP2 MSTORE POP PUSH1 0x4 PUSH1 0x0 DUP6 PUSH20 0xFFFFFFFFFFFFFFFFFFFFFFFFFFFFFFFFFFFFFFFF AND PUSH20 0xFFFFFFFFFFFFFFFFFFFFFFFFFFFFFFFFFFFFFFFF AND DUP2 MSTORE PUSH1 0x20 ADD SWAP1 DUP2 MSTORE PUSH1 0x20 ADD PUSH1 0x0 KECCAK256 PUSH1 0x0 DUP3 ADD MLOAD DUP2 PUSH1 0x0 ADD SWAP1 DUP1 MLOAD SWAP1 PUSH1 0x20 ADD SWAP1 PUSH2 0xAD1 SWAP3 SWAP2 SWAP1 PUSH2 0x2E7B JUMP JUMPDEST POP PUSH1 0x20 DUP3 ADD MLOAD DUP2 PUSH1 0x1 ADD SSTORE PUSH1 0x40 DUP3 ADD MLOAD DUP2 PUSH1 0x2 ADD SSTORE PUSH1 0x60 DUP3 ADD MLOAD DUP2 PUSH1 0x3 ADD PUSH1 0x0 PUSH2 0x100 EXP DUP2 SLOAD DUP2 PUSH1 0xFF MUL NOT AND SWAP1 DUP4 ISZERO ISZERO MUL OR SWAP1 SSTORE POP SWAP1 POP POP DUP3 PUSH1 0x5 DUP4 PUSH1 0x40 MLOAD PUSH2 0xB1A SWAP2 SWAP1 PUSH2 0x3797 JUMP JUMPDEST SWAP1 DUP2 MSTORE PUSH1 0x20 ADD PUSH1 0x40 MLOAD DUP1 SWAP2 SUB SWAP1 KECCAK256 PUSH1 0x0 PUSH2 0x100 EXP DUP2 SLOAD DUP2 PUSH20 0xFFFFFFFFFFFFFFFFFFFFFFFFFFFFFFFFFFFFFFFF MUL NOT AND SWAP1 DUP4 PUSH20 0xFFFFFFFFFFFFFFFFFFFFFFFFFFFFFFFFFFFFFFFF AND MUL OR SWAP1 SSTORE POP PUSH1 0x7 DUP4 SWAP1 DUP1 PUSH1 0x1 DUP2 SLOAD ADD DUP1 DUP3 SSTORE DUP1 SWAP2 POP POP PUSH1 0x1 SWAP1 SUB SWAP1 PUSH1 0x0 MSTORE PUSH1 0x20 PUSH1 0x0 KECCAK256 ADD PUSH1 0x0 SWAP1 SWAP2 SWAP1 SWAP2 SWAP1 SWAP2 PUSH2 0x100 EXP DUP2 SLOAD DUP2 PUSH20 0xFFFFFFFFFFFFFFFFFFFFFFFFFFFFFFFFFFFFFFFF MUL NOT AND SWAP1 DUP4 PUSH20 0xFFFFFFFFFFFFFFFFFFFFFFFFFFFFFFFFFFFFFFFF AND MUL OR SWAP1 SSTORE POP POP POP POP JUMP JUMPDEST PUSH1 0x8 DUP2 PUSH1 0x40 MLOAD PUSH2 0xBDE SWAP2 SWAP1 PUSH2 0x3797 JUMP JUMPDEST SWAP1 DUP2 MSTORE PUSH1 0x20 ADD PUSH1 0x40 MLOAD DUP1 SWAP2 SUB SWAP1 KECCAK256 PUSH1 0x2 ADD SLOAD CALLVALUE EQ PUSH2 0xC31 JUMPI PUSH1 0x40 MLOAD PUSH32 0x8C379A000000000000000000000000000000000000000000000000000000000 DUP2 MSTORE PUSH1 0x4 ADD PUSH2 0xC28 SWAP1 PUSH2 0x3A60 JUMP JUMPDEST PUSH1 0x40 MLOAD DUP1 SWAP2 SUB SWAP1 REVERT JUMPDEST PUSH1 0xA PUSH1 0x40 MLOAD DUP1 PUSH1 0x80 ADD PUSH1 0x40 MSTORE DUP1 CALLER PUSH20 0xFFFFFFFFFFFFFFFFFFFFFFFFFFFFFFFFFFFFFFFF AND DUP2 MSTORE PUSH1 0x20 ADD DUP4 DUP2 MSTORE PUSH1 0x20 ADD CALLVALUE DUP2 MSTORE PUSH1 0x20 ADD PUSH1 0x1 ISZERO ISZERO DUP2 MSTORE POP SWAP1 DUP1 PUSH1 0x1 DUP2 SLOAD ADD DUP1 DUP3 SSTORE DUP1 SWAP2 POP POP PUSH1 0x1 SWAP1 SUB SWAP1 PUSH1 0x0 MSTORE PUSH1 0x20 PUSH1 0x0 KECCAK256 SWAP1 PUSH1 0x4 MUL ADD PUSH1 0x0 SWAP1 SWAP2 SWAP1 SWAP2 SWAP1 SWAP2 POP PUSH1 0x0 DUP3 ADD MLOAD DUP2 PUSH1 0x0 ADD PUSH1 0x0 PUSH2 0x100 EXP DUP2 SLOAD DUP2 PUSH20 0xFFFFFFFFFFFFFFFFFFFFFFFFFFFFFFFFFFFFFFFF MUL NOT AND SWAP1 DUP4 PUSH20 0xFFFFFFFFFFFFFFFFFFFFFFFFFFFFFFFFFFFFFFFF AND MUL OR SWAP1 SSTORE POP PUSH1 0x20 DUP3 ADD MLOAD DUP2 PUSH1 0x1 ADD SWAP1 DUP1 MLOAD SWAP1 PUSH1 0x20 ADD SWAP1 PUSH2 0xCF9 SWAP3 SWAP2 SWAP1 PUSH2 0x2E7B JUMP JUMPDEST POP PUSH1 0x40 DUP3 ADD MLOAD DUP2 PUSH1 0x2 ADD SSTORE PUSH1 0x60 DUP3 ADD MLOAD DUP2 PUSH1 0x3 ADD PUSH1 0x0 PUSH2 0x100 EXP DUP2 SLOAD DUP2 PUSH1 0xFF MUL NOT AND SWAP1 DUP4 ISZERO ISZERO MUL OR SWAP1 SSTORE POP POP POP POP JUMP JUMPDEST PUSH1 0x5 DUP2 DUP1 MLOAD PUSH1 0x20 DUP2 ADD DUP3 ADD DUP1 MLOAD DUP5 DUP3 MSTORE PUSH1 0x20 DUP4 ADD PUSH1 0x20 DUP6 ADD KECCAK256 DUP2 DUP4 MSTORE DUP1 SWAP6 POP POP POP POP POP POP PUSH1 0x0 SWAP2 POP SLOAD SWAP1 PUSH2 0x100 EXP SWAP1 DIV PUSH20 0xFFFFFFFFFFFFFFFFFFFFFFFFFFFFFFFFFFFFFFFF AND DUP2 JUMP JUMPDEST PUSH1 0x0 DUP1 DUP3 PUSH20 0xFFFFFFFFFFFFFFFFFFFFFFFFFFFFFFFFFFFFFFFF AND BALANCE SWAP1 POP DUP1 SWAP2 POP POP SWAP2 SWAP1 POP JUMP JUMPDEST PUSH1 0x60 PUSH1 0x2 DUP1 SLOAD DUP1 PUSH1 0x20 MUL PUSH1 0x20 ADD PUSH1 0x40 MLOAD SWAP1 DUP2 ADD PUSH1 0x40 MSTORE DUP1 SWAP3 SWAP2 SWAP1 DUP2 DUP2 MSTORE PUSH1 0x20 ADD PUSH1 0x0 SWAP1 JUMPDEST DUP3 DUP3 LT ISZERO PUSH2 0xE68 JUMPI DUP4 DUP3 SWAP1 PUSH1 0x0 MSTORE PUSH1 0x20 PUSH1 0x0 KECCAK256 ADD DUP1 SLOAD PUSH2 0xDDB SWAP1 PUSH2 0x3D58 JUMP JUMPDEST DUP1 PUSH1 0x1F ADD PUSH1 0x20 DUP1 SWAP2 DIV MUL PUSH1 0x20 ADD PUSH1 0x40 MLOAD SWAP1 DUP2 ADD PUSH1 0x40 MSTORE DUP1 SWAP3 SWAP2 SWAP1 DUP2 DUP2 MSTORE PUSH1 0x20 ADD DUP3 DUP1 SLOAD PUSH2 0xE07 SWAP1 PUSH2 0x3D58 JUMP JUMPDEST DUP1 ISZERO PUSH2 0xE54 JUMPI DUP1 PUSH1 0x1F LT PUSH2 0xE29 JUMPI PUSH2 0x100 DUP1 DUP4 SLOAD DIV MUL DUP4 MSTORE SWAP2 PUSH1 0x20 ADD SWAP2 PUSH2 0xE54 JUMP JUMPDEST DUP3 ADD SWAP2 SWAP1 PUSH1 0x0 MSTORE PUSH1 0x20 PUSH1 0x0 KECCAK256 SWAP1 JUMPDEST DUP2 SLOAD DUP2 MSTORE SWAP1 PUSH1 0x1 ADD SWAP1 PUSH1 0x20 ADD DUP1 DUP4 GT PUSH2 0xE37 JUMPI DUP3 SWAP1 SUB PUSH1 0x1F AND DUP3 ADD SWAP2 JUMPDEST POP POP POP POP POP DUP2 MSTORE PUSH1 0x20 ADD SWAP1 PUSH1 0x1 ADD SWAP1 PUSH2 0xDBC JUMP JUMPDEST POP POP POP POP SWAP1 POP SWAP1 JUMP JUMPDEST PUSH1 0x0 JUMPDEST PUSH1 0x3 DUP1 SLOAD SWAP1 POP DUP2 LT ISZERO PUSH2 0xFD6 JUMPI PUSH1 0x0 PUSH1 0x3 DUP3 DUP2 SLOAD DUP2 LT PUSH2 0xE97 JUMPI PUSH2 0xE96 PUSH2 0x3E91 JUMP JUMPDEST JUMPDEST SWAP1 PUSH1 0x0 MSTORE PUSH1 0x20 PUSH1 0x0 KECCAK256 SWAP1 PUSH1 0x5 MUL ADD PUSH1 0x1 ADD DUP1 SLOAD PUSH2 0xEB3 SWAP1 PUSH2 0x3D58 JUMP JUMPDEST DUP1 PUSH1 0x1F ADD PUSH1 0x20 DUP1 SWAP2 DIV MUL PUSH1 0x20 ADD PUSH1 0x40 MLOAD SWAP1 DUP2 ADD PUSH1 0x40 MSTORE DUP1 SWAP3 SWAP2 SWAP1 DUP2 DUP2 MSTORE PUSH1 0x20 ADD DUP3 DUP1 SLOAD PUSH2 0xEDF SWAP1 PUSH2 0x3D58 JUMP JUMPDEST DUP1 ISZERO PUSH2 0xF2C JUMPI DUP1 PUSH1 0x1F LT PUSH2 0xF01 JUMPI PUSH2 0x100 DUP1 DUP4 SLOAD DIV MUL DUP4 MSTORE SWAP2 PUSH1 0x20 ADD SWAP2 PUSH2 0xF2C JUMP JUMPDEST DUP3 ADD SWAP2 SWAP1 PUSH1 0x0 MSTORE PUSH1 0x20 PUSH1 0x0 KECCAK256 SWAP1 JUMPDEST DUP2 SLOAD DUP2 MSTORE SWAP1 PUSH1 0x1 ADD SWAP1 PUSH1 0x20 ADD DUP1 DUP4 GT PUSH2 0xF0F JUMPI DUP3 SWAP1 SUB PUSH1 0x1F AND DUP3 ADD SWAP2 JUMPDEST POP POP POP POP POP SWAP1 POP DUP4 PUSH1 0x40 MLOAD PUSH1 0x20 ADD PUSH2 0xF44 SWAP2 SWAP1 PUSH2 0x3797 JUMP JUMPDEST PUSH1 0x40 MLOAD PUSH1 0x20 DUP2 DUP4 SUB SUB DUP2 MSTORE SWAP1 PUSH1 0x40 MSTORE DUP1 MLOAD SWAP1 PUSH1 0x20 ADD KECCAK256 DUP2 PUSH1 0x40 MLOAD PUSH1 0x20 ADD PUSH2 0xF6B SWAP2 SWAP1 PUSH2 0x3797 JUMP JUMPDEST PUSH1 0x40 MLOAD PUSH1 0x20 DUP2 DUP4 SUB SUB DUP2 MSTORE SWAP1 PUSH1 0x40 MSTORE DUP1 MLOAD SWAP1 PUSH1 0x20 ADD KECCAK256 EQ ISZERO PUSH2 0xFC2 JUMPI DUP3 PUSH1 0x3 DUP4 DUP2 SLOAD DUP2 LT PUSH2 0xF9C JUMPI PUSH2 0xF9B PUSH2 0x3E91 JUMP JUMPDEST JUMPDEST SWAP1 PUSH1 0x0 MSTORE PUSH1 0x20 PUSH1 0x0 KECCAK256 SWAP1 PUSH1 0x5 MUL ADD PUSH1 0x4 ADD SWAP1 DUP1 MLOAD SWAP1 PUSH1 0x20 ADD SWAP1 PUSH2 0xFC0 SWAP3 SWAP2 SWAP1 PUSH2 0x2F01 JUMP JUMPDEST POP JUMPDEST POP DUP1 DUP1 PUSH2 0xFCE SWAP1 PUSH2 0x3DBB JUMP JUMPDEST SWAP2 POP POP PUSH2 0xE74 JUMP JUMPDEST POP POP POP JUMP JUMPDEST PUSH1 0x1 ISZERO ISZERO DUP2 ISZERO ISZERO EQ ISZERO PUSH2 0x10FC JUMPI PUSH1 0xB DUP3 DUP2 SLOAD DUP2 LT PUSH2 0xFFC JUMPI PUSH2 0xFFB PUSH2 0x3E91 JUMP JUMPDEST JUMPDEST SWAP1 PUSH1 0x0 MSTORE PUSH1 0x20 PUSH1 0x0 KECCAK256 SWAP1 PUSH1 0x3 MUL ADD PUSH1 0x0 ADD PUSH1 0x0 SWAP1 SLOAD SWAP1 PUSH2 0x100 EXP SWAP1 DIV PUSH20 0xFFFFFFFFFFFFFFFFFFFFFFFFFFFFFFFFFFFFFFFF AND PUSH20 0xFFFFFFFFFFFFFFFFFFFFFFFFFFFFFFFFFFFFFFFF AND PUSH2 0x8FC PUSH1 0x8 PUSH1 0xB DUP6 DUP2 SLOAD DUP2 LT PUSH2 0x105D JUMPI PUSH2 0x105C PUSH2 0x3E91 JUMP JUMPDEST JUMPDEST SWAP1 PUSH1 0x0 MSTORE PUSH1 0x20 PUSH1 0x0 KECCAK256 SWAP1 PUSH1 0x3 MUL ADD PUSH1 0x1 ADD PUSH1 0x40 MLOAD PUSH2 0x107B SWAP2 SWAP1 PUSH2 0x37AE JUMP JUMPDEST SWAP1 DUP2 MSTORE PUSH1 0x20 ADD PUSH1 0x40 MLOAD DUP1 SWAP2 SUB SWAP1 KECCAK256 PUSH1 0x2 ADD SLOAD SWAP1 DUP2 ISZERO MUL SWAP1 PUSH1 0x40 MLOAD PUSH1 0x0 PUSH1 0x40 MLOAD DUP1 DUP4 SUB DUP2 DUP6 DUP9 DUP9 CALL SWAP4 POP POP POP POP ISZERO DUP1 ISZERO PUSH2 0x10B8 JUMPI RETURNDATASIZE PUSH1 0x0 DUP1 RETURNDATACOPY RETURNDATASIZE PUSH1 0x0 REVERT JUMPDEST POP PUSH1 0x0 PUSH1 0xB DUP4 DUP2 SLOAD DUP2 LT PUSH2 0x10CF JUMPI PUSH2 0x10CE PUSH2 0x3E91 JUMP JUMPDEST JUMPDEST SWAP1 PUSH1 0x0 MSTORE PUSH1 0x20 PUSH1 0x0 KECCAK256 SWAP1 PUSH1 0x3 MUL ADD PUSH1 0x2 ADD PUSH1 0x0 PUSH2 0x100 EXP DUP2 SLOAD DUP2 PUSH1 0xFF MUL NOT AND SWAP1 DUP4 ISZERO ISZERO MUL OR SWAP1 SSTORE POP PUSH2 0x113B JUMP JUMPDEST PUSH1 0x0 PUSH1 0xB DUP4 DUP2 SLOAD DUP2 LT PUSH2 0x1112 JUMPI PUSH2 0x1111 PUSH2 0x3E91 JUMP JUMPDEST JUMPDEST SWAP1 PUSH1 0x0 MSTORE PUSH1 0x20 PUSH1 0x0 KECCAK256 SWAP1 PUSH1 0x3 MUL ADD PUSH1 0x2 ADD PUSH1 0x0 PUSH2 0x100 EXP DUP2 SLOAD DUP2 PUSH1 0xFF MUL NOT AND SWAP1 DUP4 ISZERO ISZERO MUL OR SWAP1 SSTORE POP JUMPDEST POP POP JUMP JUMPDEST PUSH1 0x0 DUP1 PUSH1 0x0 PUSH1 0x1 DUP5 PUSH1 0x40 MLOAD PUSH2 0x1154 SWAP2 SWAP1 PUSH2 0x3797 JUMP JUMPDEST SWAP1 DUP2 MSTORE PUSH1 0x20 ADD PUSH1 0x40 MLOAD DUP1 SWAP2 SUB SWAP1 KECCAK256 PUSH1 0x0 SWAP1 SLOAD SWAP1 PUSH2 0x100 EXP SWAP1 DIV PUSH20 0xFFFFFFFFFFFFFFFFFFFFFFFFFFFFFFFFFFFFFFFF AND PUSH20 0xFFFFFFFFFFFFFFFFFFFFFFFFFFFFFFFFFFFFFFFF AND PUSH20 0xFFFFFFFFFFFFFFFFFFFFFFFFFFFFFFFFFFFFFFFF AND DUP2 MSTORE PUSH1 0x20 ADD SWAP1 DUP2 MSTORE PUSH1 0x20 ADD PUSH1 0x0 KECCAK256 PUSH1 0x3 ADD PUSH1 0x0 SWAP1 SLOAD SWAP1 PUSH2 0x100 EXP SWAP1 DIV PUSH1 0xFF AND SWAP1 POP SWAP2 SWAP1 POP JUMP JUMPDEST PUSH1 0x0 PUSH1 0x4 PUSH1 0x0 PUSH1 0x5 DUP5 PUSH1 0x40 MLOAD PUSH2 0x11EB SWAP2 SWAP1 PUSH2 0x3797 JUMP JUMPDEST SWAP1 DUP2 MSTORE PUSH1 0x20 ADD PUSH1 0x40 MLOAD DUP1 SWAP2 SUB SWAP1 KECCAK256 PUSH1 0x0 SWAP1 SLOAD SWAP1 PUSH2 0x100 EXP SWAP1 DIV PUSH20 0xFFFFFFFFFFFFFFFFFFFFFFFFFFFFFFFFFFFFFFFF AND PUSH20 0xFFFFFFFFFFFFFFFFFFFFFFFFFFFFFFFFFFFFFFFF AND PUSH20 0xFFFFFFFFFFFFFFFFFFFFFFFFFFFFFFFFFFFFFFFF AND DUP2 MSTORE PUSH1 0x20 ADD SWAP1 DUP2 MSTORE PUSH1 0x20 ADD PUSH1 0x0 KECCAK256 PUSH1 0x3 ADD PUSH1 0x0 PUSH2 0x100 EXP DUP2 SLOAD DUP2 PUSH1 0xFF MUL NOT AND SWAP1 DUP4 ISZERO ISZERO MUL OR SWAP1 SSTORE POP POP JUMP JUMPDEST PUSH1 0x60 PUSH1 0x0 DUP1 PUSH1 0x1 DUP5 PUSH1 0x40 MLOAD PUSH2 0x1286 SWAP2 SWAP1 PUSH2 0x3797 JUMP JUMPDEST SWAP1 DUP2 MSTORE PUSH1 0x20 ADD PUSH1 0x40 MLOAD DUP1 SWAP2 SUB SWAP1 KECCAK256 PUSH1 0x0 SWAP1 SLOAD SWAP1 PUSH2 0x100 EXP SWAP1 DIV PUSH20 0xFFFFFFFFFFFFFFFFFFFFFFFFFFFFFFFFFFFFFFFF AND PUSH20 0xFFFFFFFFFFFFFFFFFFFFFFFFFFFFFFFFFFFFFFFF AND PUSH20 0xFFFFFFFFFFFFFFFFFFFFFFFFFFFFFFFFFFFFFFFF AND DUP2 MSTORE PUSH1 0x20 ADD SWAP1 DUP2 MSTORE PUSH1 0x20 ADD PUSH1 0x0 KECCAK256 PUSH1 0x5 ADD DUP1 SLOAD PUSH2 0x12FD SWAP1 PUSH2 0x3D58 JUMP JUMPDEST DUP1 PUSH1 0x1F ADD PUSH1 0x20 DUP1 SWAP2 DIV MUL PUSH1 0x20 ADD PUSH1 0x40 MLOAD SWAP1 DUP2 ADD PUSH1 0x40 MSTORE DUP1 SWAP3 SWAP2 SWAP1 DUP2 DUP2 MSTORE PUSH1 0x20 ADD DUP3 DUP1 SLOAD PUSH2 0x1329 SWAP1 PUSH2 0x3D58 JUMP JUMPDEST DUP1 ISZERO PUSH2 0x1376 JUMPI DUP1 PUSH1 0x1F LT PUSH2 0x134B JUMPI PUSH2 0x100 DUP1 DUP4 SLOAD DIV MUL DUP4 MSTORE SWAP2 PUSH1 0x20 ADD SWAP2 PUSH2 0x1376 JUMP JUMPDEST DUP3 ADD SWAP2 SWAP1 PUSH1 0x0 MSTORE PUSH1 0x20 PUSH1 0x0 KECCAK256 SWAP1 JUMPDEST DUP2 SLOAD DUP2 MSTORE SWAP1 PUSH1 0x1 ADD SWAP1 PUSH1 0x20 ADD DUP1 DUP4 GT PUSH2 0x1359 JUMPI DUP3 SWAP1 SUB PUSH1 0x1F AND DUP3 ADD SWAP2 JUMPDEST POP POP POP POP POP SWAP1 POP SWAP2 SWAP1 POP JUMP JUMPDEST PUSH1 0xC PUSH1 0x40 MLOAD DUP1 PUSH1 0x60 ADD PUSH1 0x40 MSTORE DUP1 CALLER PUSH20 0xFFFFFFFFFFFFFFFFFFFFFFFFFFFFFFFFFFFFFFFF AND DUP2 MSTORE PUSH1 0x20 ADD DUP4 DUP2 MSTORE PUSH1 0x20 ADD PUSH1 0x1 ISZERO ISZERO DUP2 MSTORE POP SWAP1 DUP1 PUSH1 0x1 DUP2 SLOAD ADD DUP1 DUP3 SSTORE DUP1 SWAP2 POP POP PUSH1 0x1 SWAP1 SUB SWAP1 PUSH1 0x0 MSTORE PUSH1 0x20 PUSH1 0x0 KECCAK256 SWAP1 PUSH1 0x3 MUL ADD PUSH1 0x0 SWAP1 SWAP2 SWAP1 SWAP2 SWAP1 SWAP2 POP PUSH1 0x0 DUP3 ADD MLOAD DUP2 PUSH1 0x0 ADD PUSH1 0x0 PUSH2 0x100 EXP DUP2 SLOAD DUP2 PUSH20 0xFFFFFFFFFFFFFFFFFFFFFFFFFFFFFFFFFFFFFFFF MUL NOT AND SWAP1 DUP4 PUSH20 0xFFFFFFFFFFFFFFFFFFFFFFFFFFFFFFFFFFFFFFFF AND MUL OR SWAP1 SSTORE POP PUSH1 0x20 DUP3 ADD MLOAD DUP2 PUSH1 0x1 ADD SWAP1 DUP1 MLOAD SWAP1 PUSH1 0x20 ADD SWAP1 PUSH2 0x1444 SWAP3 SWAP2 SWAP1 PUSH2 0x2E7B JUMP JUMPDEST POP PUSH1 0x40 DUP3 ADD MLOAD DUP2 PUSH1 0x2 ADD PUSH1 0x0 PUSH2 0x100 EXP DUP2 SLOAD DUP2 PUSH1 0xFF MUL NOT AND SWAP1 DUP4 ISZERO ISZERO MUL OR SWAP1 SSTORE POP POP POP POP JUMP JUMPDEST PUSH1 0x0 PUSH1 0x4 PUSH1 0x0 PUSH1 0x5 DUP5 PUSH1 0x40 MLOAD PUSH2 0x1480 SWAP2 SWAP1 PUSH2 0x3797 JUMP JUMPDEST SWAP1 DUP2 MSTORE PUSH1 0x20 ADD PUSH1 0x40 MLOAD DUP1 SWAP2 SUB SWAP1 KECCAK256 PUSH1 0x0 SWAP1 SLOAD SWAP1 PUSH2 0x100 EXP SWAP1 DIV PUSH20 0xFFFFFFFFFFFFFFFFFFFFFFFFFFFFFFFFFFFFFFFF AND PUSH20 0xFFFFFFFFFFFFFFFFFFFFFFFFFFFFFFFFFFFFFFFF AND PUSH20 0xFFFFFFFFFFFFFFFFFFFFFFFFFFFFFFFFFFFFFFFF AND DUP2 MSTORE PUSH1 0x20 ADD SWAP1 DUP2 MSTORE PUSH1 0x20 ADD PUSH1 0x0 KECCAK256 PUSH1 0x3 ADD PUSH1 0x0 SWAP1 SLOAD SWAP1 PUSH2 0x100 EXP SWAP1 DIV PUSH1 0xFF AND SWAP1 POP SWAP2 SWAP1 POP JUMP JUMPDEST PUSH1 0x60 PUSH1 0x9 DUP1 SLOAD DUP1 PUSH1 0x20 MUL PUSH1 0x20 ADD PUSH1 0x40 MLOAD SWAP1 DUP2 ADD PUSH1 0x40 MSTORE DUP1 SWAP3 SWAP2 SWAP1 DUP2 DUP2 MSTORE PUSH1 0x20 ADD PUSH1 0x0 SWAP1 JUMPDEST DUP3 DUP3 LT ISZERO PUSH2 0x15D1 JUMPI DUP4 DUP3 SWAP1 PUSH1 0x0 MSTORE PUSH1 0x20 PUSH1 0x0 KECCAK256 ADD DUP1 SLOAD PUSH2 0x1544 SWAP1 PUSH2 0x3D58 JUMP JUMPDEST DUP1 PUSH1 0x1F ADD PUSH1 0x20 DUP1 SWAP2 DIV MUL PUSH1 0x20 ADD PUSH1 0x40 MLOAD SWAP1 DUP2 ADD PUSH1 0x40 MSTORE DUP1 SWAP3 SWAP2 SWAP1 DUP2 DUP2 MSTORE PUSH1 0x20 ADD DUP3 DUP1 SLOAD PUSH2 0x1570 SWAP1 PUSH2 0x3D58 JUMP JUMPDEST DUP1 ISZERO PUSH2 0x15BD JUMPI DUP1 PUSH1 0x1F LT PUSH2 0x1592 JUMPI PUSH2 0x100 DUP1 DUP4 SLOAD DIV MUL DUP4 MSTORE SWAP2 PUSH1 0x20 ADD SWAP2 PUSH2 0x15BD JUMP JUMPDEST DUP3 ADD SWAP2 SWAP1 PUSH1 0x0 MSTORE PUSH1 0x20 PUSH1 0x0 KECCAK256 SWAP1 JUMPDEST DUP2 SLOAD DUP2 MSTORE SWAP1 PUSH1 0x1 ADD SWAP1 PUSH1 0x20 ADD DUP1 DUP4 GT PUSH2 0x15A0 JUMPI DUP3 SWAP1 SUB PUSH1 0x1F AND DUP3 ADD SWAP2 JUMPDEST POP POP POP POP POP DUP2 MSTORE PUSH1 0x20 ADD SWAP1 PUSH1 0x1 ADD SWAP1 PUSH2 0x1525 JUMP JUMPDEST POP POP POP POP SWAP1 POP SWAP1 JUMP JUMPDEST PUSH1 0x0 PUSH1 0x4 PUSH1 0x0 PUSH1 0x5 DUP5 PUSH1 0x40 MLOAD PUSH2 0x15F0 SWAP2 SWAP1 PUSH2 0x3797 JUMP JUMPDEST SWAP1 DUP2 MSTORE PUSH1 0x20 ADD PUSH1 0x40 MLOAD DUP1 SWAP2 SUB SWAP1 KECCAK256 PUSH1 0x0 SWAP1 SLOAD SWAP1 PUSH2 0x100 EXP SWAP1 DIV PUSH20 0xFFFFFFFFFFFFFFFFFFFFFFFFFFFFFFFFFFFFFFFF AND PUSH20 0xFFFFFFFFFFFFFFFFFFFFFFFFFFFFFFFFFFFFFFFF AND PUSH20 0xFFFFFFFFFFFFFFFFFFFFFFFFFFFFFFFFFFFFFFFF AND DUP2 MSTORE PUSH1 0x20 ADD SWAP1 DUP2 MSTORE PUSH1 0x20 ADD PUSH1 0x0 KECCAK256 PUSH1 0x2 ADD SLOAD SWAP1 POP SWAP2 SWAP1 POP JUMP JUMPDEST PUSH1 0x0 DUP1 PUSH1 0x0 PUSH20 0xFFFFFFFFFFFFFFFFFFFFFFFFFFFFFFFFFFFFFFFF AND PUSH1 0x5 DUP5 PUSH1 0x40 MLOAD PUSH2 0x168F SWAP2 SWAP1 PUSH2 0x3797 JUMP JUMPDEST SWAP1 DUP2 MSTORE PUSH1 0x20 ADD PUSH1 0x40 MLOAD DUP1 SWAP2 SUB SWAP1 KECCAK256 PUSH1 0x0 SWAP1 SLOAD SWAP1 PUSH2 0x100 EXP SWAP1 DIV PUSH20 0xFFFFFFFFFFFFFFFFFFFFFFFFFFFFFFFFFFFFFFFF AND PUSH20 0xFFFFFFFFFFFFFFFFFFFFFFFFFFFFFFFFFFFFFFFF AND EQ PUSH2 0x171F JUMPI PUSH1 0x5 DUP4 PUSH1 0x40 MLOAD PUSH2 0x16E9 SWAP2 SWAP1 PUSH2 0x3797 JUMP JUMPDEST SWAP1 DUP2 MSTORE PUSH1 0x20 ADD PUSH1 0x40 MLOAD DUP1 SWAP2 SUB SWAP1 KECCAK256 PUSH1 0x0 SWAP1 SLOAD SWAP1 PUSH2 0x100 EXP SWAP1 DIV PUSH20 0xFFFFFFFFFFFFFFFFFFFFFFFFFFFFFFFFFFFFFFFF AND SWAP1 POP PUSH2 0x1761 JUMP JUMPDEST PUSH1 0x1 DUP4 PUSH1 0x40 MLOAD PUSH2 0x172F SWAP2 SWAP1 PUSH2 0x3797 JUMP JUMPDEST SWAP1 DUP2 MSTORE PUSH1 0x20 ADD PUSH1 0x40 MLOAD DUP1 SWAP2 SUB SWAP1 KECCAK256 PUSH1 0x0 SWAP1 SLOAD SWAP1 PUSH2 0x100 EXP SWAP1 DIV PUSH20 0xFFFFFFFFFFFFFFFFFFFFFFFFFFFFFFFFFFFFFFFF AND SWAP1 POP JUMPDEST DUP1 SWAP2 POP POP SWAP2 SWAP1 POP JUMP JUMPDEST PUSH1 0x40 MLOAD DUP1 PUSH1 0x80 ADD PUSH1 0x40 MSTORE DUP1 CALLER PUSH20 0xFFFFFFFFFFFFFFFFFFFFFFFFFFFFFFFFFFFFFFFF AND DUP2 MSTORE PUSH1 0x20 ADD DUP3 DUP2 MSTORE PUSH1 0x20 ADD PUSH8 0xDE0B6B3A7640000 DUP5 PUSH2 0x17AB SWAP2 SWAP1 PUSH2 0x3C6A JUMP JUMPDEST DUP2 MSTORE PUSH1 0x20 ADD PUSH1 0xD SLOAD DUP2 MSTORE POP PUSH1 0x8 DUP5 PUSH1 0x40 MLOAD PUSH2 0x17C6 SWAP2 SWAP1 PUSH2 0x3797 JUMP JUMPDEST SWAP1 DUP2 MSTORE PUSH1 0x20 ADD PUSH1 0x40 MLOAD DUP1 SWAP2 SUB SWAP1 KECCAK256 PUSH1 0x0 DUP3 ADD MLOAD DUP2 PUSH1 0x0 ADD PUSH1 0x0 PUSH2 0x100 EXP DUP2 SLOAD DUP2 PUSH20 0xFFFFFFFFFFFFFFFFFFFFFFFFFFFFFFFFFFFFFFFF MUL NOT AND SWAP1 DUP4 PUSH20 0xFFFFFFFFFFFFFFFFFFFFFFFFFFFFFFFFFFFFFFFF AND MUL OR SWAP1 SSTORE POP PUSH1 0x20 DUP3 ADD MLOAD DUP2 PUSH1 0x1 ADD SWAP1 DUP1 MLOAD SWAP1 PUSH1 0x20 ADD SWAP1 PUSH2 0x1837 SWAP3 SWAP2 SWAP1 PUSH2 0x2E7B JUMP JUMPDEST POP PUSH1 0x40 DUP3 ADD MLOAD DUP2 PUSH1 0x2 ADD SSTORE PUSH1 0x60 DUP3 ADD MLOAD DUP2 PUSH1 0x3 ADD SSTORE SWAP1 POP POP PUSH1 0x9 DUP4 SWAP1 DUP1 PUSH1 0x1 DUP2 SLOAD ADD DUP1 DUP3 SSTORE DUP1 SWAP2 POP POP PUSH1 0x1 SWAP1 SUB SWAP1 PUSH1 0x0 MSTORE PUSH1 0x20 PUSH1 0x0 KECCAK256 ADD PUSH1 0x0 SWAP1 SWAP2 SWAP1 SWAP2 SWAP1 SWAP2 POP SWAP1 DUP1 MLOAD SWAP1 PUSH1 0x20 ADD SWAP1 PUSH2 0x188A SWAP3 SWAP2 SWAP1 PUSH2 0x2E7B JUMP JUMPDEST POP PUSH1 0xD PUSH1 0x0 DUP2 SLOAD DUP1 SWAP3 SWAP2 SWAP1 PUSH2 0x189E SWAP1 PUSH2 0x3DBB JUMP JUMPDEST SWAP2 SWAP1 POP SSTORE POP POP POP POP JUMP JUMPDEST PUSH1 0xC DUP2 DUP2 SLOAD DUP2 LT PUSH2 0x18B8 JUMPI PUSH1 0x0 DUP1 REVERT JUMPDEST SWAP1 PUSH1 0x0 MSTORE PUSH1 0x20 PUSH1 0x0 KECCAK256 SWAP1 PUSH1 0x3 MUL ADD PUSH1 0x0 SWAP2 POP SWAP1 POP DUP1 PUSH1 0x0 ADD PUSH1 0x0 SWAP1 SLOAD SWAP1 PUSH2 0x100 EXP SWAP1 DIV PUSH20 0xFFFFFFFFFFFFFFFFFFFFFFFFFFFFFFFFFFFFFFFF AND SWAP1 DUP1 PUSH1 0x1 ADD DUP1 SLOAD PUSH2 0x1901 SWAP1 PUSH2 0x3D58 JUMP JUMPDEST DUP1 PUSH1 0x1F ADD PUSH1 0x20 DUP1 SWAP2 DIV MUL PUSH1 0x20 ADD PUSH1 0x40 MLOAD SWAP1 DUP2 ADD PUSH1 0x40 MSTORE DUP1 SWAP3 SWAP2 SWAP1 DUP2 DUP2 MSTORE PUSH1 0x20 ADD DUP3 DUP1 SLOAD PUSH2 0x192D SWAP1 PUSH2 0x3D58 JUMP JUMPDEST DUP1 ISZERO PUSH2 0x197A JUMPI DUP1 PUSH1 0x1F LT PUSH2 0x194F JUMPI PUSH2 0x100 DUP1 DUP4 SLOAD DIV MUL DUP4 MSTORE SWAP2 PUSH1 0x20 ADD SWAP2 PUSH2 0x197A JUMP JUMPDEST DUP3 ADD SWAP2 SWAP1 PUSH1 0x0 MSTORE PUSH1 0x20 PUSH1 0x0 KECCAK256 SWAP1 JUMPDEST DUP2 SLOAD DUP2 MSTORE SWAP1 PUSH1 0x1 ADD SWAP1 PUSH1 0x20 ADD DUP1 DUP4 GT PUSH2 0x195D JUMPI DUP3 SWAP1 SUB PUSH1 0x1F AND DUP3 ADD SWAP2 JUMPDEST POP POP POP POP POP SWAP1 DUP1 PUSH1 0x2 ADD PUSH1 0x0 SWAP1 SLOAD SWAP1 PUSH2 0x100 EXP SWAP1 DIV PUSH1 0xFF AND SWAP1 POP DUP4 JUMP JUMPDEST PUSH1 0x0 ISZERO ISZERO PUSH1 0x0 DUP1 PUSH1 0x1 DUP6 PUSH1 0x40 MLOAD PUSH2 0x19AE SWAP2 SWAP1 PUSH2 0x3797 JUMP JUMPDEST SWAP1 DUP2 MSTORE PUSH1 0x20 ADD PUSH1 0x40 MLOAD DUP1 SWAP2 SUB SWAP1 KECCAK256 PUSH1 0x0 SWAP1 SLOAD SWAP1 PUSH2 0x100 EXP SWAP1 DIV PUSH20 0xFFFFFFFFFFFFFFFFFFFFFFFFFFFFFFFFFFFFFFFF AND PUSH20 0xFFFFFFFFFFFFFFFFFFFFFFFFFFFFFFFFFFFFFFFF AND PUSH20 0xFFFFFFFFFFFFFFFFFFFFFFFFFFFFFFFFFFFFFFFF AND DUP2 MSTORE PUSH1 0x20 ADD SWAP1 DUP2 MSTORE PUSH1 0x20 ADD PUSH1 0x0 KECCAK256 PUSH1 0x3 ADD PUSH1 0x0 SWAP1 SLOAD SWAP1 PUSH2 0x100 EXP SWAP1 DIV PUSH1 0xFF AND ISZERO ISZERO EQ PUSH2 0x1A6A JUMPI PUSH1 0x40 MLOAD PUSH32 0x8C379A000000000000000000000000000000000000000000000000000000000 DUP2 MSTORE PUSH1 0x4 ADD PUSH2 0x1A61 SWAP1 PUSH2 0x3A80 JUMP JUMPDEST PUSH1 0x40 MLOAD DUP1 SWAP2 SUB SWAP1 REVERT JUMPDEST PUSH1 0x0 PUSH20 0xFFFFFFFFFFFFFFFFFFFFFFFFFFFFFFFFFFFFFFFF AND PUSH1 0x1 DUP4 PUSH1 0x40 MLOAD PUSH2 0x1A92 SWAP2 SWAP1 PUSH2 0x3797 JUMP JUMPDEST SWAP1 DUP2 MSTORE PUSH1 0x20 ADD PUSH1 0x40 MLOAD DUP1 SWAP2 SUB SWAP1 KECCAK256 PUSH1 0x0 SWAP1 SLOAD SWAP1 PUSH2 0x100 EXP SWAP1 DIV PUSH20 0xFFFFFFFFFFFFFFFFFFFFFFFFFFFFFFFFFFFFFFFF AND PUSH20 0xFFFFFFFFFFFFFFFFFFFFFFFFFFFFFFFFFFFFFFFF AND EQ ISZERO PUSH2 0x1B18 JUMPI PUSH1 0x40 MLOAD PUSH32 0x8C379A000000000000000000000000000000000000000000000000000000000 DUP2 MSTORE PUSH1 0x4 ADD PUSH2 0x1B0F SWAP1 PUSH2 0x3A40 JUMP JUMPDEST PUSH1 0x40 MLOAD DUP1 SWAP2 SUB SWAP1 REVERT JUMPDEST DUP1 PUSH1 0x0 DUP1 PUSH1 0x1 DUP6 PUSH1 0x40 MLOAD PUSH2 0x1B2C SWAP2 SWAP1 PUSH2 0x3797 JUMP JUMPDEST SWAP1 DUP2 MSTORE PUSH1 0x20 ADD PUSH1 0x40 MLOAD DUP1 SWAP2 SUB SWAP1 KECCAK256 PUSH1 0x0 SWAP1 SLOAD SWAP1 PUSH2 0x100 EXP SWAP1 DIV PUSH20 0xFFFFFFFFFFFFFFFFFFFFFFFFFFFFFFFFFFFFFFFF AND PUSH20 0xFFFFFFFFFFFFFFFFFFFFFFFFFFFFFFFFFFFFFFFF AND PUSH20 0xFFFFFFFFFFFFFFFFFFFFFFFFFFFFFFFFFFFFFFFF AND DUP2 MSTORE PUSH1 0x20 ADD SWAP1 DUP2 MSTORE PUSH1 0x20 ADD PUSH1 0x0 KECCAK256 PUSH1 0x1 ADD SLOAD EQ PUSH2 0x1BD9 JUMPI PUSH1 0x40 MLOAD PUSH32 0x8C379A000000000000000000000000000000000000000000000000000000000 DUP2 MSTORE PUSH1 0x4 ADD PUSH2 0x1BD0 SWAP1 PUSH2 0x3A20 JUMP JUMPDEST PUSH1 0x40 MLOAD DUP1 SWAP2 SUB SWAP1 REVERT JUMPDEST PUSH1 0x1 PUSH1 0x0 DUP1 PUSH1 0x1 DUP6 PUSH1 0x40 MLOAD PUSH2 0x1BEE SWAP2 SWAP1 PUSH2 0x3797 JUMP JUMPDEST SWAP1 DUP2 MSTORE PUSH1 0x20 ADD PUSH1 0x40 MLOAD DUP1 SWAP2 SUB SWAP1 KECCAK256 PUSH1 0x0 SWAP1 SLOAD SWAP1 PUSH2 0x100 EXP SWAP1 DIV PUSH20 0xFFFFFFFFFFFFFFFFFFFFFFFFFFFFFFFFFFFFFFFF AND PUSH20 0xFFFFFFFFFFFFFFFFFFFFFFFFFFFFFFFFFFFFFFFF AND PUSH20 0xFFFFFFFFFFFFFFFFFFFFFFFFFFFFFFFFFFFFFFFF AND DUP2 MSTORE PUSH1 0x20 ADD SWAP1 DUP2 MSTORE PUSH1 0x20 ADD PUSH1 0x0 KECCAK256 PUSH1 0x3 ADD PUSH1 0x0 PUSH2 0x100 EXP DUP2 SLOAD DUP2 PUSH1 0xFF MUL NOT AND SWAP1 DUP4 ISZERO ISZERO MUL OR SWAP1 SSTORE POP POP POP JUMP JUMPDEST PUSH1 0x0 DUP2 PUSH1 0x40 MLOAD PUSH1 0x20 ADD PUSH2 0x1C88 SWAP2 SWAP1 PUSH2 0x3797 JUMP JUMPDEST PUSH1 0x40 MLOAD PUSH1 0x20 DUP2 DUP4 SUB SUB DUP2 MSTORE SWAP1 PUSH1 0x40 MSTORE DUP1 MLOAD SWAP1 PUSH1 0x20 ADD KECCAK256 SWAP1 POP SWAP2 SWAP1 POP JUMP JUMPDEST PUSH1 0x1 ISZERO ISZERO DUP2 ISZERO ISZERO EQ ISZERO PUSH2 0x1DC6 JUMPI PUSH1 0xC DUP3 DUP2 SLOAD DUP2 LT PUSH2 0x1CC6 JUMPI PUSH2 0x1CC5 PUSH2 0x3E91 JUMP JUMPDEST JUMPDEST SWAP1 PUSH1 0x0 MSTORE PUSH1 0x20 PUSH1 0x0 KECCAK256 SWAP1 PUSH1 0x3 MUL ADD PUSH1 0x0 ADD PUSH1 0x0 SWAP1 SLOAD SWAP1 PUSH2 0x100 EXP SWAP1 DIV PUSH20 0xFFFFFFFFFFFFFFFFFFFFFFFFFFFFFFFFFFFFFFFF AND PUSH20 0xFFFFFFFFFFFFFFFFFFFFFFFFFFFFFFFFFFFFFFFF AND PUSH2 0x8FC PUSH1 0x8 PUSH1 0xC DUP6 DUP2 SLOAD DUP2 LT PUSH2 0x1D27 JUMPI PUSH2 0x1D26 PUSH2 0x3E91 JUMP JUMPDEST JUMPDEST SWAP1 PUSH1 0x0 MSTORE PUSH1 0x20 PUSH1 0x0 KECCAK256 SWAP1 PUSH1 0x3 MUL ADD PUSH1 0x1 ADD PUSH1 0x40 MLOAD PUSH2 0x1D45 SWAP2 SWAP1 PUSH2 0x37AE JUMP JUMPDEST SWAP1 DUP2 MSTORE PUSH1 0x20 ADD PUSH1 0x40 MLOAD DUP1 SWAP2 SUB SWAP1 KECCAK256 PUSH1 0x2 ADD SLOAD SWAP1 DUP2 ISZERO MUL SWAP1 PUSH1 0x40 MLOAD PUSH1 0x0 PUSH1 0x40 MLOAD DUP1 DUP4 SUB DUP2 DUP6 DUP9 DUP9 CALL SWAP4 POP POP POP POP ISZERO DUP1 ISZERO PUSH2 0x1D82 JUMPI RETURNDATASIZE PUSH1 0x0 DUP1 RETURNDATACOPY RETURNDATASIZE PUSH1 0x0 REVERT JUMPDEST POP PUSH1 0x0 PUSH1 0xB DUP4 DUP2 SLOAD DUP2 LT PUSH2 0x1D99 JUMPI PUSH2 0x1D98 PUSH2 0x3E91 JUMP JUMPDEST JUMPDEST SWAP1 PUSH1 0x0 MSTORE PUSH1 0x20 PUSH1 0x0 KECCAK256 SWAP1 PUSH1 0x3 MUL ADD PUSH1 0x2 ADD PUSH1 0x0 PUSH2 0x100 EXP DUP2 SLOAD DUP2 PUSH1 0xFF MUL NOT AND SWAP1 DUP4 ISZERO ISZERO MUL OR SWAP1 SSTORE POP PUSH2 0x1E05 JUMP JUMPDEST PUSH1 0x0 PUSH1 0xB DUP4 DUP2 SLOAD DUP2 LT PUSH2 0x1DDC JUMPI PUSH2 0x1DDB PUSH2 0x3E91 JUMP JUMPDEST JUMPDEST SWAP1 PUSH1 0x0 MSTORE PUSH1 0x20 PUSH1 0x0 KECCAK256 SWAP1 PUSH1 0x3 MUL ADD PUSH1 0x2 ADD PUSH1 0x0 PUSH2 0x100 EXP DUP2 SLOAD DUP2 PUSH1 0xFF MUL NOT AND SWAP1 DUP4 ISZERO ISZERO MUL OR SWAP1 SSTORE POP JUMPDEST POP POP JUMP JUMPDEST PUSH1 0x0 PUSH1 0x20 MSTORE DUP1 PUSH1 0x0 MSTORE PUSH1 0x40 PUSH1 0x0 KECCAK256 PUSH1 0x0 SWAP2 POP SWAP1 POP DUP1 PUSH1 0x0 ADD DUP1 SLOAD PUSH2 0x1E2C SWAP1 PUSH2 0x3D58 JUMP JUMPDEST DUP1 PUSH1 0x1F ADD PUSH1 0x20 DUP1 SWAP2 DIV MUL PUSH1 0x20 ADD PUSH1 0x40 MLOAD SWAP1 DUP2 ADD PUSH1 0x40 MSTORE DUP1 SWAP3 SWAP2 SWAP1 DUP2 DUP2 MSTORE PUSH1 0x20 ADD DUP3 DUP1 SLOAD PUSH2 0x1E58 SWAP1 PUSH2 0x3D58 JUMP JUMPDEST DUP1 ISZERO PUSH2 0x1EA5 JUMPI DUP1 PUSH1 0x1F LT PUSH2 0x1E7A JUMPI PUSH2 0x100 DUP1 DUP4 SLOAD DIV MUL DUP4 MSTORE SWAP2 PUSH1 0x20 ADD SWAP2 PUSH2 0x1EA5 JUMP JUMPDEST DUP3 ADD SWAP2 SWAP1 PUSH1 0x0 MSTORE PUSH1 0x20 PUSH1 0x0 KECCAK256 SWAP1 JUMPDEST DUP2 SLOAD DUP2 MSTORE SWAP1 PUSH1 0x1 ADD SWAP1 PUSH1 0x20 ADD DUP1 DUP4 GT PUSH2 0x1E88 JUMPI DUP3 SWAP1 SUB PUSH1 0x1F AND DUP3 ADD SWAP2 JUMPDEST POP POP POP POP POP SWAP1 DUP1 PUSH1 0x1 ADD SLOAD SWAP1 DUP1 PUSH1 0x2 ADD SLOAD SWAP1 DUP1 PUSH1 0x3 ADD PUSH1 0x0 SWAP1 SLOAD SWAP1 PUSH2 0x100 EXP SWAP1 DIV PUSH1 0xFF AND SWAP1 DUP1 PUSH1 0x4 ADD DUP1 SLOAD PUSH2 0x1ED9 SWAP1 PUSH2 0x3D58 JUMP JUMPDEST DUP1 PUSH1 0x1F ADD PUSH1 0x20 DUP1 SWAP2 DIV MUL PUSH1 0x20 ADD PUSH1 0x40 MLOAD SWAP1 DUP2 ADD PUSH1 0x40 MSTORE DUP1 SWAP3 SWAP2 SWAP1 DUP2 DUP2 MSTORE PUSH1 0x20 ADD DUP3 DUP1 SLOAD PUSH2 0x1F05 SWAP1 PUSH2 0x3D58 JUMP JUMPDEST DUP1 ISZERO PUSH2 0x1F52 JUMPI DUP1 PUSH1 0x1F LT PUSH2 0x1F27 JUMPI PUSH2 0x100 DUP1 DUP4 SLOAD DIV MUL DUP4 MSTORE SWAP2 PUSH1 0x20 ADD SWAP2 PUSH2 0x1F52 JUMP JUMPDEST DUP3 ADD SWAP2 SWAP1 PUSH1 0x0 MSTORE PUSH1 0x20 PUSH1 0x0 KECCAK256 SWAP1 JUMPDEST DUP2 SLOAD DUP2 MSTORE SWAP1 PUSH1 0x1 ADD SWAP1 PUSH1 0x20 ADD DUP1 DUP4 GT PUSH2 0x1F35 JUMPI DUP3 SWAP1 SUB PUSH1 0x1F AND DUP3 ADD SWAP2 JUMPDEST POP POP POP POP POP SWAP1 DUP1 PUSH1 0x5 ADD DUP1 SLOAD PUSH2 0x1F67 SWAP1 PUSH2 0x3D58 JUMP JUMPDEST DUP1 PUSH1 0x1F ADD PUSH1 0x20 DUP1 SWAP2 DIV MUL PUSH1 0x20 ADD PUSH1 0x40 MLOAD SWAP1 DUP2 ADD PUSH1 0x40 MSTORE DUP1 SWAP3 SWAP2 SWAP1 DUP2 DUP2 MSTORE PUSH1 0x20 ADD DUP3 DUP1 SLOAD PUSH2 0x1F93 SWAP1 PUSH2 0x3D58 JUMP JUMPDEST DUP1 ISZERO PUSH2 0x1FE0 JUMPI DUP1 PUSH1 0x1F LT PUSH2 0x1FB5 JUMPI PUSH2 0x100 DUP1 DUP4 SLOAD DIV MUL DUP4 MSTORE SWAP2 PUSH1 0x20 ADD SWAP2 PUSH2 0x1FE0 JUMP JUMPDEST DUP3 ADD SWAP2 SWAP1 PUSH1 0x0 MSTORE PUSH1 0x20 PUSH1 0x0 KECCAK256 SWAP1 JUMPDEST DUP2 SLOAD DUP2 MSTORE SWAP1 PUSH1 0x1 ADD SWAP1 PUSH1 0x20 ADD DUP1 DUP4 GT PUSH2 0x1FC3 JUMPI DUP3 SWAP1 SUB PUSH1 0x1F AND DUP3 ADD SWAP2 JUMPDEST POP POP POP POP POP SWAP1 DUP1 PUSH1 0x6 ADD SLOAD SWAP1 POP DUP8 JUMP JUMPDEST PUSH1 0x4 PUSH1 0x20 MSTORE DUP1 PUSH1 0x0 MSTORE PUSH1 0x40 PUSH1 0x0 KECCAK256 PUSH1 0x0 SWAP2 POP SWAP1 POP DUP1 PUSH1 0x0 ADD DUP1 SLOAD PUSH2 0x2013 SWAP1 PUSH2 0x3D58 JUMP JUMPDEST DUP1 PUSH1 0x1F ADD PUSH1 0x20 DUP1 SWAP2 DIV MUL PUSH1 0x20 ADD PUSH1 0x40 MLOAD SWAP1 DUP2 ADD PUSH1 0x40 MSTORE DUP1 SWAP3 SWAP2 SWAP1 DUP2 DUP2 MSTORE PUSH1 0x20 ADD DUP3 DUP1 SLOAD PUSH2 0x203F SWAP1 PUSH2 0x3D58 JUMP JUMPDEST DUP1 ISZERO PUSH2 0x208C JUMPI DUP1 PUSH1 0x1F LT PUSH2 0x2061 JUMPI PUSH2 0x100 DUP1 DUP4 SLOAD DIV MUL DUP4 MSTORE SWAP2 PUSH1 0x20 ADD SWAP2 PUSH2 0x208C JUMP JUMPDEST DUP3 ADD SWAP2 SWAP1 PUSH1 0x0 MSTORE PUSH1 0x20 PUSH1 0x0 KECCAK256 SWAP1 JUMPDEST DUP2 SLOAD DUP2 MSTORE SWAP1 PUSH1 0x1 ADD SWAP1 PUSH1 0x20 ADD DUP1 DUP4 GT PUSH2 0x206F JUMPI DUP3 SWAP1 SUB PUSH1 0x1F AND DUP3 ADD SWAP2 JUMPDEST POP POP POP POP POP SWAP1 DUP1 PUSH1 0x1 ADD SLOAD SWAP1 DUP1 PUSH1 0x2 ADD SLOAD SWAP1 DUP1 PUSH1 0x3 ADD PUSH1 0x0 SWAP1 SLOAD SWAP1 PUSH2 0x100 EXP SWAP1 DIV PUSH1 0xFF AND SWAP1 POP DUP5 JUMP JUMPDEST PUSH1 0x0 DUP1 PUSH1 0x0 SWAP1 POP PUSH1 0x0 DUP1 JUMPDEST PUSH1 0x2 DUP1 SLOAD SWAP1 POP DUP2 LT ISZERO PUSH2 0x22B1 JUMPI PUSH1 0x0 PUSH1 0x2 DUP3 DUP2 SLOAD DUP2 LT PUSH2 0x20E3 JUMPI PUSH2 0x20E2 PUSH2 0x3E91 JUMP JUMPDEST JUMPDEST SWAP1 PUSH1 0x0 MSTORE PUSH1 0x20 PUSH1 0x0 KECCAK256 ADD DUP1 SLOAD PUSH2 0x20F8 SWAP1 PUSH2 0x3D58 JUMP JUMPDEST DUP1 PUSH1 0x1F ADD PUSH1 0x20 DUP1 SWAP2 DIV MUL PUSH1 0x20 ADD PUSH1 0x40 MLOAD SWAP1 DUP2 ADD PUSH1 0x40 MSTORE DUP1 SWAP3 SWAP2 SWAP1 DUP2 DUP2 MSTORE PUSH1 0x20 ADD DUP3 DUP1 SLOAD PUSH2 0x2124 SWAP1 PUSH2 0x3D58 JUMP JUMPDEST DUP1 ISZERO PUSH2 0x2171 JUMPI DUP1 PUSH1 0x1F LT PUSH2 0x2146 JUMPI PUSH2 0x100 DUP1 DUP4 SLOAD DIV MUL DUP4 MSTORE SWAP2 PUSH1 0x20 ADD SWAP2 PUSH2 0x2171 JUMP JUMPDEST DUP3 ADD SWAP2 SWAP1 PUSH1 0x0 MSTORE PUSH1 0x20 PUSH1 0x0 KECCAK256 SWAP1 JUMPDEST DUP2 SLOAD DUP2 MSTORE SWAP1 PUSH1 0x1 ADD SWAP1 PUSH1 0x20 ADD DUP1 DUP4 GT PUSH2 0x2154 JUMPI DUP3 SWAP1 SUB PUSH1 0x1F AND DUP3 ADD SWAP2 JUMPDEST POP POP POP POP POP SWAP1 POP DUP6 PUSH1 0x40 MLOAD PUSH1 0x20 ADD PUSH2 0x2189 SWAP2 SWAP1 PUSH2 0x3797 JUMP JUMPDEST PUSH1 0x40 MLOAD PUSH1 0x20 DUP2 DUP4 SUB SUB DUP2 MSTORE SWAP1 PUSH1 0x40 MSTORE DUP1 MLOAD SWAP1 PUSH1 0x20 ADD KECCAK256 DUP2 PUSH1 0x40 MLOAD PUSH1 0x20 ADD PUSH2 0x21B0 SWAP2 SWAP1 PUSH2 0x3797 JUMP JUMPDEST PUSH1 0x40 MLOAD PUSH1 0x20 DUP2 DUP4 SUB SUB DUP2 MSTORE SWAP1 PUSH1 0x40 MSTORE DUP1 MLOAD SWAP1 PUSH1 0x20 ADD KECCAK256 EQ ISZERO PUSH2 0x229D JUMPI PUSH1 0x0 SWAP2 POP JUMPDEST PUSH1 0x3 DUP1 SLOAD SWAP1 POP DUP3 GT PUSH2 0x229C JUMPI PUSH1 0x3 DUP3 DUP2 SLOAD DUP2 LT PUSH2 0x21F1 JUMPI PUSH2 0x21F0 PUSH2 0x3E91 JUMP JUMPDEST JUMPDEST SWAP1 PUSH1 0x0 MSTORE PUSH1 0x20 PUSH1 0x0 KECCAK256 SWAP1 PUSH1 0x5 MUL ADD PUSH1 0x0 ADD PUSH1 0x40 MLOAD PUSH1 0x20 ADD PUSH2 0x2212 SWAP2 SWAP1 PUSH2 0x37AE JUMP JUMPDEST PUSH1 0x40 MLOAD PUSH1 0x20 DUP2 DUP4 SUB SUB DUP2 MSTORE SWAP1 PUSH1 0x40 MSTORE DUP1 MLOAD SWAP1 PUSH1 0x20 ADD KECCAK256 DUP7 PUSH1 0x40 MLOAD PUSH1 0x20 ADD PUSH2 0x2239 SWAP2 SWAP1 PUSH2 0x3797 JUMP JUMPDEST PUSH1 0x40 MLOAD PUSH1 0x20 DUP2 DUP4 SUB SUB DUP2 MSTORE SWAP1 PUSH1 0x40 MSTORE DUP1 MLOAD SWAP1 PUSH1 0x20 ADD KECCAK256 EQ ISZERO PUSH2 0x2289 JUMPI PUSH1 0x3 DUP3 DUP2 SLOAD DUP2 LT PUSH2 0x2269 JUMPI PUSH2 0x2268 PUSH2 0x3E91 JUMP JUMPDEST JUMPDEST SWAP1 PUSH1 0x0 MSTORE PUSH1 0x20 PUSH1 0x0 KECCAK256 SWAP1 PUSH1 0x5 MUL ADD PUSH1 0x3 ADD SLOAD DUP4 PUSH2 0x2286 SWAP2 SWAP1 PUSH2 0x3BE3 JUMP JUMPDEST SWAP3 POP JUMPDEST DUP2 DUP1 PUSH2 0x2294 SWAP1 PUSH2 0x3DBB JUMP JUMPDEST SWAP3 POP POP PUSH2 0x21D1 JUMP JUMPDEST JUMPDEST POP DUP1 DUP1 PUSH2 0x22A9 SWAP1 PUSH2 0x3DBB JUMP JUMPDEST SWAP2 POP POP PUSH2 0x20C0 JUMP JUMPDEST POP DUP2 DUP2 PUSH2 0x22BE SWAP2 SWAP1 PUSH2 0x3C39 JUMP JUMPDEST DUP2 PUSH2 0x22C9 SWAP2 SWAP1 PUSH2 0x3BE3 JUMP JUMPDEST SWAP1 POP DUP1 SWAP3 POP POP POP SWAP2 SWAP1 POP JUMP JUMPDEST PUSH1 0xB DUP2 DUP2 SLOAD DUP2 LT PUSH2 0x22E5 JUMPI PUSH1 0x0 DUP1 REVERT JUMPDEST SWAP1 PUSH1 0x0 MSTORE PUSH1 0x20 PUSH1 0x0 KECCAK256 SWAP1 PUSH1 0x3 MUL ADD PUSH1 0x0 SWAP2 POP SWAP1 POP DUP1 PUSH1 0x0 ADD PUSH1 0x0 SWAP1 SLOAD SWAP1 PUSH2 0x100 EXP SWAP1 DIV PUSH20 0xFFFFFFFFFFFFFFFFFFFFFFFFFFFFFFFFFFFFFFFF AND SWAP1 DUP1 PUSH1 0x1 ADD DUP1 SLOAD PUSH2 0x232E SWAP1 PUSH2 0x3D58 JUMP JUMPDEST DUP1 PUSH1 0x1F ADD PUSH1 0x20 DUP1 SWAP2 DIV MUL PUSH1 0x20 ADD PUSH1 0x40 MLOAD SWAP1 DUP2 ADD PUSH1 0x40 MSTORE DUP1 SWAP3 SWAP2 SWAP1 DUP2 DUP2 MSTORE PUSH1 0x20 ADD DUP3 DUP1 SLOAD PUSH2 0x235A SWAP1 PUSH2 0x3D58 JUMP JUMPDEST DUP1 ISZERO PUSH2 0x23A7 JUMPI DUP1 PUSH1 0x1F LT PUSH2 0x237C JUMPI PUSH2 0x100 DUP1 DUP4 SLOAD DIV MUL DUP4 MSTORE SWAP2 PUSH1 0x20 ADD SWAP2 PUSH2 0x23A7 JUMP JUMPDEST DUP3 ADD SWAP2 SWAP1 PUSH1 0x0 MSTORE PUSH1 0x20 PUSH1 0x0 KECCAK256 SWAP1 JUMPDEST DUP2 SLOAD DUP2 MSTORE SWAP1 PUSH1 0x1 ADD SWAP1 PUSH1 0x20 ADD DUP1 DUP4 GT PUSH2 0x238A JUMPI DUP3 SWAP1 SUB PUSH1 0x1F AND DUP3 ADD SWAP2 JUMPDEST POP POP POP POP POP SWAP1 DUP1 PUSH1 0x2 ADD PUSH1 0x0 SWAP1 SLOAD SWAP1 PUSH2 0x100 EXP SWAP1 DIV PUSH1 0xFF AND SWAP1 POP DUP4 JUMP JUMPDEST PUSH1 0xB PUSH1 0x40 MLOAD DUP1 PUSH1 0x60 ADD PUSH1 0x40 MSTORE DUP1 CALLER PUSH20 0xFFFFFFFFFFFFFFFFFFFFFFFFFFFFFFFFFFFFFFFF AND DUP2 MSTORE PUSH1 0x20 ADD DUP4 DUP2 MSTORE PUSH1 0x20 ADD PUSH1 0x1 ISZERO ISZERO DUP2 MSTORE POP SWAP1 DUP1 PUSH1 0x1 DUP2 SLOAD ADD DUP1 DUP3 SSTORE DUP1 SWAP2 POP POP PUSH1 0x1 SWAP1 SUB SWAP1 PUSH1 0x0 MSTORE PUSH1 0x20 PUSH1 0x0 KECCAK256 SWAP1 PUSH1 0x3 MUL ADD PUSH1 0x0 SWAP1 SWAP2 SWAP1 SWAP2 SWAP1 SWAP2 POP PUSH1 0x0 DUP3 ADD MLOAD DUP2 PUSH1 0x0 ADD PUSH1 0x0 PUSH2 0x100 EXP DUP2 SLOAD DUP2 PUSH20 0xFFFFFFFFFFFFFFFFFFFFFFFFFFFFFFFFFFFFFFFF MUL NOT AND SWAP1 DUP4 PUSH20 0xFFFFFFFFFFFFFFFFFFFFFFFFFFFFFFFFFFFFFFFF AND MUL OR SWAP1 SSTORE POP PUSH1 0x20 DUP3 ADD MLOAD DUP2 PUSH1 0x1 ADD SWAP1 DUP1 MLOAD SWAP1 PUSH1 0x20 ADD SWAP1 PUSH2 0x2486 SWAP3 SWAP2 SWAP1 PUSH2 0x2E7B JUMP JUMPDEST POP PUSH1 0x40 DUP3 ADD MLOAD DUP2 PUSH1 0x2 ADD PUSH1 0x0 PUSH2 0x100 EXP DUP2 SLOAD DUP2 PUSH1 0xFF MUL NOT AND SWAP1 DUP4 ISZERO ISZERO MUL OR SWAP1 SSTORE POP POP POP POP JUMP JUMPDEST PUSH1 0x1 DUP2 DUP1 MLOAD PUSH1 0x20 DUP2 ADD DUP3 ADD DUP1 MLOAD DUP5 DUP3 MSTORE PUSH1 0x20 DUP4 ADD PUSH1 0x20 DUP6 ADD KECCAK256 DUP2 DUP4 MSTORE DUP1 SWAP6 POP POP POP POP POP POP PUSH1 0x0 SWAP2 POP SLOAD SWAP1 PUSH2 0x100 EXP SWAP1 DIV PUSH20 0xFFFFFFFFFFFFFFFFFFFFFFFFFFFFFFFFFFFFFFFF AND DUP2 JUMP JUMPDEST PUSH1 0xA DUP2 GT ISZERO PUSH2 0x2539 JUMPI PUSH1 0x40 MLOAD PUSH32 0x8C379A000000000000000000000000000000000000000000000000000000000 DUP2 MSTORE PUSH1 0x4 ADD PUSH2 0x2530 SWAP1 PUSH2 0x3AA0 JUMP JUMPDEST PUSH1 0x40 MLOAD DUP1 SWAP2 SUB SWAP1 REVERT JUMPDEST PUSH1 0x0 JUMPDEST PUSH1 0x2 DUP1 SLOAD SWAP1 POP DUP2 GT PUSH2 0x27FB JUMPI PUSH1 0x0 PUSH1 0x2 DUP3 DUP2 SLOAD DUP2 LT PUSH2 0x255E JUMPI PUSH2 0x255D PUSH2 0x3E91 JUMP JUMPDEST JUMPDEST SWAP1 PUSH1 0x0 MSTORE PUSH1 0x20 PUSH1 0x0 KECCAK256 ADD DUP1 SLOAD PUSH2 0x2573 SWAP1 PUSH2 0x3D58 JUMP JUMPDEST DUP1 PUSH1 0x1F ADD PUSH1 0x20 DUP1 SWAP2 DIV MUL PUSH1 0x20 ADD PUSH1 0x40 MLOAD SWAP1 DUP2 ADD PUSH1 0x40 MSTORE DUP1 SWAP3 SWAP2 SWAP1 DUP2 DUP2 MSTORE PUSH1 0x20 ADD DUP3 DUP1 SLOAD PUSH2 0x259F SWAP1 PUSH2 0x3D58 JUMP JUMPDEST DUP1 ISZERO PUSH2 0x25EC JUMPI DUP1 PUSH1 0x1F LT PUSH2 0x25C1 JUMPI PUSH2 0x100 DUP1 DUP4 SLOAD DIV MUL DUP4 MSTORE SWAP2 PUSH1 0x20 ADD SWAP2 PUSH2 0x25EC JUMP JUMPDEST DUP3 ADD SWAP2 SWAP1 PUSH1 0x0 MSTORE PUSH1 0x20 PUSH1 0x0 KECCAK256 SWAP1 JUMPDEST DUP2 SLOAD DUP2 MSTORE SWAP1 PUSH1 0x1 ADD SWAP1 PUSH1 0x20 ADD DUP1 DUP4 GT PUSH2 0x25CF JUMPI DUP3 SWAP1 SUB PUSH1 0x1F AND DUP3 ADD SWAP2 JUMPDEST POP POP POP POP POP SWAP1 POP DUP5 PUSH1 0x40 MLOAD PUSH1 0x20 ADD PUSH2 0x2604 SWAP2 SWAP1 PUSH2 0x3797 JUMP JUMPDEST PUSH1 0x40 MLOAD PUSH1 0x20 DUP2 DUP4 SUB SUB DUP2 MSTORE SWAP1 PUSH1 0x40 MSTORE DUP1 MLOAD SWAP1 PUSH1 0x20 ADD KECCAK256 DUP2 PUSH1 0x40 MLOAD PUSH1 0x20 ADD PUSH2 0x262B SWAP2 SWAP1 PUSH2 0x3797 JUMP JUMPDEST PUSH1 0x40 MLOAD PUSH1 0x20 DUP2 DUP4 SUB SUB DUP2 MSTORE SWAP1 PUSH1 0x40 MSTORE DUP1 MLOAD SWAP1 PUSH1 0x20 ADD KECCAK256 EQ ISZERO PUSH2 0x27E7 JUMPI PUSH1 0x60 PUSH1 0x3 PUSH1 0x40 MLOAD DUP1 PUSH1 0xA0 ADD PUSH1 0x40 MSTORE DUP1 DUP9 DUP2 MSTORE PUSH1 0x20 ADD PUSH1 0x4 PUSH1 0x0 CALLER PUSH20 0xFFFFFFFFFFFFFFFFFFFFFFFFFFFFFFFFFFFFFFFF AND PUSH20 0xFFFFFFFFFFFFFFFFFFFFFFFFFFFFFFFFFFFFFFFF AND DUP2 MSTORE PUSH1 0x20 ADD SWAP1 DUP2 MSTORE PUSH1 0x20 ADD PUSH1 0x0 KECCAK256 PUSH1 0x0 ADD DUP1 SLOAD PUSH2 0x26A9 SWAP1 PUSH2 0x3D58 JUMP JUMPDEST DUP1 PUSH1 0x1F ADD PUSH1 0x20 DUP1 SWAP2 DIV MUL PUSH1 0x20 ADD PUSH1 0x40 MLOAD SWAP1 DUP2 ADD PUSH1 0x40 MSTORE DUP1 SWAP3 SWAP2 SWAP1 DUP2 DUP2 MSTORE PUSH1 0x20 ADD DUP3 DUP1 SLOAD PUSH2 0x26D5 SWAP1 PUSH2 0x3D58 JUMP JUMPDEST DUP1 ISZERO PUSH2 0x2722 JUMPI DUP1 PUSH1 0x1F LT PUSH2 0x26F7 JUMPI PUSH2 0x100 DUP1 DUP4 SLOAD DIV MUL DUP4 MSTORE SWAP2 PUSH1 0x20 ADD SWAP2 PUSH2 0x2722 JUMP JUMPDEST DUP3 ADD SWAP2 SWAP1 PUSH1 0x0 MSTORE PUSH1 0x20 PUSH1 0x0 KECCAK256 SWAP1 JUMPDEST DUP2 SLOAD DUP2 MSTORE SWAP1 PUSH1 0x1 ADD SWAP1 PUSH1 0x20 ADD DUP1 DUP4 GT PUSH2 0x2705 JUMPI DUP3 SWAP1 SUB PUSH1 0x1F AND DUP3 ADD SWAP2 JUMPDEST POP POP POP POP POP DUP2 MSTORE PUSH1 0x20 ADD DUP8 DUP2 MSTORE PUSH1 0x20 ADD DUP7 DUP2 MSTORE PUSH1 0x20 ADD DUP4 DUP2 MSTORE POP SWAP1 DUP1 PUSH1 0x1 DUP2 SLOAD ADD DUP1 DUP3 SSTORE DUP1 SWAP2 POP POP PUSH1 0x1 SWAP1 SUB SWAP1 PUSH1 0x0 MSTORE PUSH1 0x20 PUSH1 0x0 KECCAK256 SWAP1 PUSH1 0x5 MUL ADD PUSH1 0x0 SWAP1 SWAP2 SWAP1 SWAP2 SWAP1 SWAP2 POP PUSH1 0x0 DUP3 ADD MLOAD DUP2 PUSH1 0x0 ADD SWAP1 DUP1 MLOAD SWAP1 PUSH1 0x20 ADD SWAP1 PUSH2 0x2781 SWAP3 SWAP2 SWAP1 PUSH2 0x2E7B JUMP JUMPDEST POP PUSH1 0x20 DUP3 ADD MLOAD DUP2 PUSH1 0x1 ADD SWAP1 DUP1 MLOAD SWAP1 PUSH1 0x20 ADD SWAP1 PUSH2 0x279E SWAP3 SWAP2 SWAP1 PUSH2 0x2E7B JUMP JUMPDEST POP PUSH1 0x40 DUP3 ADD MLOAD DUP2 PUSH1 0x2 ADD SWAP1 DUP1 MLOAD SWAP1 PUSH1 0x20 ADD SWAP1 PUSH2 0x27BB SWAP3 SWAP2 SWAP1 PUSH2 0x2E7B JUMP JUMPDEST POP PUSH1 0x60 DUP3 ADD MLOAD DUP2 PUSH1 0x3 ADD SSTORE PUSH1 0x80 DUP3 ADD MLOAD DUP2 PUSH1 0x4 ADD SWAP1 DUP1 MLOAD SWAP1 PUSH1 0x20 ADD SWAP1 PUSH2 0x27E2 SWAP3 SWAP2 SWAP1 PUSH2 0x2F01 JUMP JUMPDEST POP POP POP POP JUMPDEST POP DUP1 DUP1 PUSH2 0x27F3 SWAP1 PUSH2 0x3DBB JUMP JUMPDEST SWAP2 POP POP PUSH2 0x253C JUMP JUMPDEST POP POP POP POP JUMP JUMPDEST PUSH1 0x0 ISZERO ISZERO PUSH1 0x4 PUSH1 0x0 PUSH1 0x5 DUP6 PUSH1 0x40 MLOAD PUSH2 0x2819 SWAP2 SWAP1 PUSH2 0x3797 JUMP JUMPDEST SWAP1 DUP2 MSTORE PUSH1 0x20 ADD PUSH1 0x40 MLOAD DUP1 SWAP2 SUB SWAP1 KECCAK256 PUSH1 0x0 SWAP1 SLOAD SWAP1 PUSH2 0x100 EXP SWAP1 DIV PUSH20 0xFFFFFFFFFFFFFFFFFFFFFFFFFFFFFFFFFFFFFFFF AND PUSH20 0xFFFFFFFFFFFFFFFFFFFFFFFFFFFFFFFFFFFFFFFF AND PUSH20 0xFFFFFFFFFFFFFFFFFFFFFFFFFFFFFFFFFFFFFFFF AND DUP2 MSTORE PUSH1 0x20 ADD SWAP1 DUP2 MSTORE PUSH1 0x20 ADD PUSH1 0x0 KECCAK256 PUSH1 0x3 ADD PUSH1 0x0 SWAP1 SLOAD SWAP1 PUSH2 0x100 EXP SWAP1 DIV PUSH1 0xFF AND ISZERO ISZERO EQ PUSH2 0x28D5 JUMPI PUSH1 0x40 MLOAD PUSH32 0x8C379A000000000000000000000000000000000000000000000000000000000 DUP2 MSTORE PUSH1 0x4 ADD PUSH2 0x28CC SWAP1 PUSH2 0x3A80 JUMP JUMPDEST PUSH1 0x40 MLOAD DUP1 SWAP2 SUB SWAP1 REVERT JUMPDEST PUSH1 0x0 PUSH20 0xFFFFFFFFFFFFFFFFFFFFFFFFFFFFFFFFFFFFFFFF AND PUSH1 0x5 DUP4 PUSH1 0x40 MLOAD PUSH2 0x28FD SWAP2 SWAP1 PUSH2 0x3797 JUMP JUMPDEST SWAP1 DUP2 MSTORE PUSH1 0x20 ADD PUSH1 0x40 MLOAD DUP1 SWAP2 SUB SWAP1 KECCAK256 PUSH1 0x0 SWAP1 SLOAD SWAP1 PUSH2 0x100 EXP SWAP1 DIV PUSH20 0xFFFFFFFFFFFFFFFFFFFFFFFFFFFFFFFFFFFFFFFF AND PUSH20 0xFFFFFFFFFFFFFFFFFFFFFFFFFFFFFFFFFFFFFFFF AND EQ ISZERO PUSH2 0x2983 JUMPI PUSH1 0x40 MLOAD PUSH32 0x8C379A000000000000000000000000000000000000000000000000000000000 DUP2 MSTORE PUSH1 0x4 ADD PUSH2 0x297A SWAP1 PUSH2 0x3A40 JUMP JUMPDEST PUSH1 0x40 MLOAD DUP1 SWAP2 SUB SWAP1 REVERT JUMPDEST DUP1 PUSH1 0x4 PUSH1 0x0 PUSH1 0x5 DUP6 PUSH1 0x40 MLOAD PUSH2 0x2998 SWAP2 SWAP1 PUSH2 0x3797 JUMP JUMPDEST SWAP1 DUP2 MSTORE PUSH1 0x20 ADD PUSH1 0x40 MLOAD DUP1 SWAP2 SUB SWAP1 KECCAK256 PUSH1 0x0 SWAP1 SLOAD SWAP1 PUSH2 0x100 EXP SWAP1 DIV PUSH20 0xFFFFFFFFFFFFFFFFFFFFFFFFFFFFFFFFFFFFFFFF AND PUSH20 0xFFFFFFFFFFFFFFFFFFFFFFFFFFFFFFFFFFFFFFFF AND PUSH20 0xFFFFFFFFFFFFFFFFFFFFFFFFFFFFFFFFFFFFFFFF AND DUP2 MSTORE PUSH1 0x20 ADD SWAP1 DUP2 MSTORE PUSH1 0x20 ADD PUSH1 0x0 KECCAK256 PUSH1 0x1 ADD SLOAD EQ PUSH2 0x2A45 JUMPI PUSH1 0x40 MLOAD PUSH32 0x8C379A000000000000000000000000000000000000000000000000000000000 DUP2 MSTORE PUSH1 0x4 ADD PUSH2 0x2A3C SWAP1 PUSH2 0x3A20 JUMP JUMPDEST PUSH1 0x40 MLOAD DUP1 SWAP2 SUB SWAP1 REVERT JUMPDEST PUSH1 0x1 PUSH1 0x4 PUSH1 0x0 PUSH1 0x5 DUP6 PUSH1 0x40 MLOAD PUSH2 0x2A5B SWAP2 SWAP1 PUSH2 0x3797 JUMP JUMPDEST SWAP1 DUP2 MSTORE PUSH1 0x20 ADD PUSH1 0x40 MLOAD DUP1 SWAP2 SUB SWAP1 KECCAK256 PUSH1 0x0 SWAP1 SLOAD SWAP1 PUSH2 0x100 EXP SWAP1 DIV PUSH20 0xFFFFFFFFFFFFFFFFFFFFFFFFFFFFFFFFFFFFFFFF AND PUSH20 0xFFFFFFFFFFFFFFFFFFFFFFFFFFFFFFFFFFFFFFFF AND PUSH20 0xFFFFFFFFFFFFFFFFFFFFFFFFFFFFFFFFFFFFFFFF AND DUP2 MSTORE PUSH1 0x20 ADD SWAP1 DUP2 MSTORE PUSH1 0x20 ADD PUSH1 0x0 KECCAK256 PUSH1 0x3 ADD PUSH1 0x0 PUSH2 0x100 EXP DUP2 SLOAD DUP2 PUSH1 0xFF MUL NOT AND SWAP1 DUP4 ISZERO ISZERO MUL OR SWAP1 SSTORE POP POP POP JUMP JUMPDEST PUSH1 0x8 DUP2 DUP1 MLOAD PUSH1 0x20 DUP2 ADD DUP3 ADD DUP1 MLOAD DUP5 DUP3 MSTORE PUSH1 0x20 DUP4 ADD PUSH1 0x20 DUP6 ADD KECCAK256 DUP2 DUP4 MSTORE DUP1 SWAP6 POP POP POP POP POP POP PUSH1 0x0 SWAP2 POP SWAP1 POP DUP1 PUSH1 0x0 ADD PUSH1 0x0 SWAP1 SLOAD SWAP1 PUSH2 0x100 EXP SWAP1 DIV PUSH20 0xFFFFFFFFFFFFFFFFFFFFFFFFFFFFFFFFFFFFFFFF AND SWAP1 DUP1 PUSH1 0x1 ADD DUP1 SLOAD PUSH2 0x2B41 SWAP1 PUSH2 0x3D58 JUMP JUMPDEST DUP1 PUSH1 0x1F ADD PUSH1 0x20 DUP1 SWAP2 DIV MUL PUSH1 0x20 ADD PUSH1 0x40 MLOAD SWAP1 DUP2 ADD PUSH1 0x40 MSTORE DUP1 SWAP3 SWAP2 SWAP1 DUP2 DUP2 MSTORE PUSH1 0x20 ADD DUP3 DUP1 SLOAD PUSH2 0x2B6D SWAP1 PUSH2 0x3D58 JUMP JUMPDEST DUP1 ISZERO PUSH2 0x2BBA JUMPI DUP1 PUSH1 0x1F LT PUSH2 0x2B8F JUMPI PUSH2 0x100 DUP1 DUP4 SLOAD DIV MUL DUP4 MSTORE SWAP2 PUSH1 0x20 ADD SWAP2 PUSH2 0x2BBA JUMP JUMPDEST DUP3 ADD SWAP2 SWAP1 PUSH1 0x0 MSTORE PUSH1 0x20 PUSH1 0x0 KECCAK256 SWAP1 JUMPDEST DUP2 SLOAD DUP2 MSTORE SWAP1 PUSH1 0x1 ADD SWAP1 PUSH1 0x20 ADD DUP1 DUP4 GT PUSH2 0x2B9D JUMPI DUP3 SWAP1 SUB PUSH1 0x1F AND DUP3 ADD SWAP2 JUMPDEST POP POP POP POP POP SWAP1 DUP1 PUSH1 0x2 ADD SLOAD SWAP1 DUP1 PUSH1 0x3 ADD SLOAD SWAP1 POP DUP5 JUMP JUMPDEST PUSH1 0xA DUP2 DUP2 SLOAD DUP2 LT PUSH2 0x2BE0 JUMPI PUSH1 0x0 DUP1 REVERT JUMPDEST SWAP1 PUSH1 0x0 MSTORE PUSH1 0x20 PUSH1 0x0 KECCAK256 SWAP1 PUSH1 0x4 MUL ADD PUSH1 0x0 SWAP2 POP SWAP1 POP DUP1 PUSH1 0x0 ADD PUSH1 0x0 SWAP1 SLOAD SWAP1 PUSH2 0x100 EXP SWAP1 DIV PUSH20 0xFFFFFFFFFFFFFFFFFFFFFFFFFFFFFFFFFFFFFFFF AND SWAP1 DUP1 PUSH1 0x1 ADD DUP1 SLOAD PUSH2 0x2C29 SWAP1 PUSH2 0x3D58 JUMP JUMPDEST DUP1 PUSH1 0x1F ADD PUSH1 0x20 DUP1 SWAP2 DIV MUL PUSH1 0x20 ADD PUSH1 0x40 MLOAD SWAP1 DUP2 ADD PUSH1 0x40 MSTORE DUP1 SWAP3 SWAP2 SWAP1 DUP2 DUP2 MSTORE PUSH1 0x20 ADD DUP3 DUP1 SLOAD PUSH2 0x2C55 SWAP1 PUSH2 0x3D58 JUMP JUMPDEST DUP1 ISZERO PUSH2 0x2CA2 JUMPI DUP1 PUSH1 0x1F LT PUSH2 0x2C77 JUMPI PUSH2 0x100 DUP1 DUP4 SLOAD DIV MUL DUP4 MSTORE SWAP2 PUSH1 0x20 ADD SWAP2 PUSH2 0x2CA2 JUMP JUMPDEST DUP3 ADD SWAP2 SWAP1 PUSH1 0x0 MSTORE PUSH1 0x20 PUSH1 0x0 KECCAK256 SWAP1 JUMPDEST DUP2 SLOAD DUP2 MSTORE SWAP1 PUSH1 0x1 ADD SWAP1 PUSH1 0x20 ADD DUP1 DUP4 GT PUSH2 0x2C85 JUMPI DUP3 SWAP1 SUB PUSH1 0x1F AND DUP3 ADD SWAP2 JUMPDEST POP POP POP POP POP SWAP1 DUP1 PUSH1 0x2 ADD SLOAD SWAP1 DUP1 PUSH1 0x3 ADD PUSH1 0x0 SWAP1 SLOAD SWAP1 PUSH2 0x100 EXP SWAP1 DIV PUSH1 0xFF AND SWAP1 POP DUP5 JUMP JUMPDEST PUSH1 0x1 DUP2 EQ ISZERO PUSH2 0x2D7D JUMPI CALLER PUSH20 0xFFFFFFFFFFFFFFFFFFFFFFFFFFFFFFFFFFFFFFFF AND PUSH2 0x8FC PUSH1 0xA DUP5 DUP2 SLOAD DUP2 LT PUSH2 0x2CFC JUMPI PUSH2 0x2CFB PUSH2 0x3E91 JUMP JUMPDEST JUMPDEST SWAP1 PUSH1 0x0 MSTORE PUSH1 0x20 PUSH1 0x0 KECCAK256 SWAP1 PUSH1 0x4 MUL ADD PUSH1 0x2 ADD SLOAD SWAP1 DUP2 ISZERO MUL SWAP1 PUSH1 0x40 MLOAD PUSH1 0x0 PUSH1 0x40 MLOAD DUP1 DUP4 SUB DUP2 DUP6 DUP9 DUP9 CALL SWAP4 POP POP POP POP ISZERO DUP1 ISZERO PUSH2 0x2D39 JUMPI RETURNDATASIZE PUSH1 0x0 DUP1 RETURNDATACOPY RETURNDATASIZE PUSH1 0x0 REVERT JUMPDEST POP PUSH1 0x0 PUSH1 0xA DUP4 DUP2 SLOAD DUP2 LT PUSH2 0x2D50 JUMPI PUSH2 0x2D4F PUSH2 0x3E91 JUMP JUMPDEST JUMPDEST SWAP1 PUSH1 0x0 MSTORE PUSH1 0x20 PUSH1 0x0 KECCAK256 SWAP1 PUSH1 0x4 MUL ADD PUSH1 0x3 ADD PUSH1 0x0 PUSH2 0x100 EXP DUP2 SLOAD DUP2 PUSH1 0xFF MUL NOT AND SWAP1 DUP4 ISZERO ISZERO MUL OR SWAP1 SSTORE POP PUSH2 0x2E77 JUMP JUMPDEST PUSH1 0x0 DUP2 EQ ISZERO PUSH2 0x2E76 JUMPI PUSH1 0xA DUP3 DUP2 SLOAD DUP2 LT PUSH2 0x2D9A JUMPI PUSH2 0x2D99 PUSH2 0x3E91 JUMP JUMPDEST JUMPDEST SWAP1 PUSH1 0x0 MSTORE PUSH1 0x20 PUSH1 0x0 KECCAK256 SWAP1 PUSH1 0x4 MUL ADD PUSH1 0x0 ADD PUSH1 0x0 SWAP1 SLOAD SWAP1 PUSH2 0x100 EXP SWAP1 DIV PUSH20 0xFFFFFFFFFFFFFFFFFFFFFFFFFFFFFFFFFFFFFFFF AND PUSH20 0xFFFFFFFFFFFFFFFFFFFFFFFFFFFFFFFFFFFFFFFF AND PUSH2 0x8FC PUSH1 0xA DUP5 DUP2 SLOAD DUP2 LT PUSH2 0x2DF9 JUMPI PUSH2 0x2DF8 PUSH2 0x3E91 JUMP JUMPDEST JUMPDEST SWAP1 PUSH1 0x0 MSTORE PUSH1 0x20 PUSH1 0x0 KECCAK256 SWAP1 PUSH1 0x4 MUL ADD PUSH1 0x2 ADD SLOAD SWAP1 DUP2 ISZERO MUL SWAP1 PUSH1 0x40 MLOAD PUSH1 0x0 PUSH1 0x40 MLOAD DUP1 DUP4 SUB DUP2 DUP6 DUP9 DUP9 CALL SWAP4 POP POP POP POP ISZERO DUP1 ISZERO PUSH2 0x2E36 JUMPI RETURNDATASIZE PUSH1 0x0 DUP1 RETURNDATACOPY RETURNDATASIZE PUSH1 0x0 REVERT JUMPDEST POP PUSH1 0x0 PUSH1 0xA DUP4 DUP2 SLOAD DUP2 LT PUSH2 0x2E4D JUMPI PUSH2 0x2E4C PUSH2 0x3E91 JUMP JUMPDEST JUMPDEST SWAP1 PUSH1 0x0 MSTORE PUSH1 0x20 PUSH1 0x0 KECCAK256 SWAP1 PUSH1 0x4 MUL ADD PUSH1 0x3 ADD PUSH1 0x0 PUSH2 0x100 EXP DUP2 SLOAD DUP2 PUSH1 0xFF MUL NOT AND SWAP1 DUP4 ISZERO ISZERO MUL OR SWAP1 SSTORE POP JUMPDEST JUMPDEST POP POP JUMP JUMPDEST DUP3 DUP1 SLOAD PUSH2 0x2E87 SWAP1 PUSH2 0x3D58 JUMP JUMPDEST SWAP1 PUSH1 0x0 MSTORE PUSH1 0x20 PUSH1 0x0 KECCAK256 SWAP1 PUSH1 0x1F ADD PUSH1 0x20 SWAP1 DIV DUP2 ADD SWAP3 DUP3 PUSH2 0x2EA9 JUMPI PUSH1 0x0 DUP6 SSTORE PUSH2 0x2EF0 JUMP JUMPDEST DUP3 PUSH1 0x1F LT PUSH2 0x2EC2 JUMPI DUP1 MLOAD PUSH1 0xFF NOT AND DUP4 DUP1 ADD OR DUP6 SSTORE PUSH2 0x2EF0 JUMP JUMPDEST DUP3 DUP1 ADD PUSH1 0x1 ADD DUP6 SSTORE DUP3 ISZERO PUSH2 0x2EF0 JUMPI SWAP2 DUP3 ADD JUMPDEST DUP3 DUP2 GT ISZERO PUSH2 0x2EEF JUMPI DUP3 MLOAD DUP3 SSTORE SWAP2 PUSH1 0x20 ADD SWAP2 SWAP1 PUSH1 0x1 ADD SWAP1 PUSH2 0x2ED4 JUMP JUMPDEST JUMPDEST POP SWAP1 POP PUSH2 0x2EFD SWAP2 SWAP1 PUSH2 0x2F61 JUMP JUMPDEST POP SWAP1 JUMP JUMPDEST DUP3 DUP1 SLOAD DUP3 DUP3 SSTORE SWAP1 PUSH1 0x0 MSTORE PUSH1 0x20 PUSH1 0x0 KECCAK256 SWAP1 DUP2 ADD SWAP3 DUP3 ISZERO PUSH2 0x2F50 JUMPI SWAP2 PUSH1 0x20 MUL DUP3 ADD JUMPDEST DUP3 DUP2 GT ISZERO PUSH2 0x2F4F JUMPI DUP3 MLOAD DUP3 SWAP1 DUP1 MLOAD SWAP1 PUSH1 0x20 ADD SWAP1 PUSH2 0x2F3F SWAP3 SWAP2 SWAP1 PUSH2 0x2E7B JUMP JUMPDEST POP SWAP2 PUSH1 0x20 ADD SWAP2 SWAP1 PUSH1 0x1 ADD SWAP1 PUSH2 0x2F21 JUMP JUMPDEST JUMPDEST POP SWAP1 POP PUSH2 0x2F5D SWAP2 SWAP1 PUSH2 0x2F7E JUMP JUMPDEST POP SWAP1 JUMP JUMPDEST JUMPDEST DUP1 DUP3 GT ISZERO PUSH2 0x2F7A JUMPI PUSH1 0x0 DUP2 PUSH1 0x0 SWAP1 SSTORE POP PUSH1 0x1 ADD PUSH2 0x2F62 JUMP JUMPDEST POP SWAP1 JUMP JUMPDEST JUMPDEST DUP1 DUP3 GT ISZERO PUSH2 0x2F9E JUMPI PUSH1 0x0 DUP2 DUP2 PUSH2 0x2F95 SWAP2 SWAP1 PUSH2 0x2FA2 JUMP JUMPDEST POP PUSH1 0x1 ADD PUSH2 0x2F7F JUMP JUMPDEST POP SWAP1 JUMP JUMPDEST POP DUP1 SLOAD PUSH2 0x2FAE SWAP1 PUSH2 0x3D58 JUMP JUMPDEST PUSH1 0x0 DUP3 SSTORE DUP1 PUSH1 0x1F LT PUSH2 0x2FC0 JUMPI POP PUSH2 0x2FDF JUMP JUMPDEST PUSH1 0x1F ADD PUSH1 0x20 SWAP1 DIV SWAP1 PUSH1 0x0 MSTORE PUSH1 0x20 PUSH1 0x0 KECCAK256 SWAP1 DUP2 ADD SWAP1 PUSH2 0x2FDE SWAP2 SWAP1 PUSH2 0x2F61 JUMP JUMPDEST JUMPDEST POP JUMP JUMPDEST PUSH1 0x0 PUSH2 0x2FF5 PUSH2 0x2FF0 DUP5 PUSH2 0x3B00 JUMP JUMPDEST PUSH2 0x3ADB JUMP JUMPDEST SWAP1 POP DUP1 DUP4 DUP3 MSTORE PUSH1 0x20 DUP3 ADD SWAP1 POP DUP3 DUP6 PUSH1 0x20 DUP7 MUL DUP3 ADD GT ISZERO PUSH2 0x3018 JUMPI PUSH2 0x3017 PUSH2 0x3EF4 JUMP JUMPDEST JUMPDEST PUSH1 0x0 JUMPDEST DUP6 DUP2 LT ISZERO PUSH2 0x3066 JUMPI DUP2 CALLDATALOAD PUSH8 0xFFFFFFFFFFFFFFFF DUP2 GT ISZERO PUSH2 0x303E JUMPI PUSH2 0x303D PUSH2 0x3EEF JUMP JUMPDEST JUMPDEST DUP1 DUP7 ADD PUSH2 0x304B DUP10 DUP3 PUSH2 0x311F JUMP JUMPDEST DUP6 MSTORE PUSH1 0x20 DUP6 ADD SWAP5 POP PUSH1 0x20 DUP5 ADD SWAP4 POP POP POP PUSH1 0x1 DUP2 ADD SWAP1 POP PUSH2 0x301B JUMP JUMPDEST POP POP POP SWAP4 SWAP3 POP POP POP JUMP JUMPDEST PUSH1 0x0 PUSH2 0x3083 PUSH2 0x307E DUP5 PUSH2 0x3B2C JUMP JUMPDEST PUSH2 0x3ADB JUMP JUMPDEST SWAP1 POP DUP3 DUP2 MSTORE PUSH1 0x20 DUP2 ADD DUP5 DUP5 DUP5 ADD GT ISZERO PUSH2 0x309F JUMPI PUSH2 0x309E PUSH2 0x3EF9 JUMP JUMPDEST JUMPDEST PUSH2 0x30AA DUP5 DUP3 DUP6 PUSH2 0x3D16 JUMP JUMPDEST POP SWAP4 SWAP3 POP POP POP JUMP JUMPDEST PUSH1 0x0 DUP2 CALLDATALOAD SWAP1 POP PUSH2 0x30C1 DUP2 PUSH2 0x4035 JUMP JUMPDEST SWAP3 SWAP2 POP POP JUMP JUMPDEST PUSH1 0x0 DUP3 PUSH1 0x1F DUP4 ADD SLT PUSH2 0x30DC JUMPI PUSH2 0x30DB PUSH2 0x3EEF JUMP JUMPDEST JUMPDEST DUP2 CALLDATALOAD PUSH2 0x30EC DUP5 DUP3 PUSH1 0x20 DUP7 ADD PUSH2 0x2FE2 JUMP JUMPDEST SWAP2 POP POP SWAP3 SWAP2 POP POP JUMP JUMPDEST PUSH1 0x0 DUP2 CALLDATALOAD SWAP1 POP PUSH2 0x3104 DUP2 PUSH2 0x404C JUMP JUMPDEST SWAP3 SWAP2 POP POP JUMP JUMPDEST PUSH1 0x0 DUP2 CALLDATALOAD SWAP1 POP PUSH2 0x3119 DUP2 PUSH2 0x4063 JUMP JUMPDEST SWAP3 SWAP2 POP POP JUMP JUMPDEST PUSH1 0x0 DUP3 PUSH1 0x1F DUP4 ADD SLT PUSH2 0x3134 JUMPI PUSH2 0x3133 PUSH2 0x3EEF JUMP JUMPDEST JUMPDEST DUP2 CALLDATALOAD PUSH2 0x3144 DUP5 DUP3 PUSH1 0x20 DUP7 ADD PUSH2 0x3070 JUMP JUMPDEST SWAP2 POP POP SWAP3 SWAP2 POP POP JUMP JUMPDEST PUSH1 0x0 DUP2 CALLDATALOAD SWAP1 POP PUSH2 0x315C DUP2 PUSH2 0x407A JUMP JUMPDEST SWAP3 SWAP2 POP POP JUMP JUMPDEST PUSH1 0x0 PUSH1 0x20 DUP3 DUP5 SUB SLT ISZERO PUSH2 0x3178 JUMPI PUSH2 0x3177 PUSH2 0x3F03 JUMP JUMPDEST JUMPDEST PUSH1 0x0 PUSH2 0x3186 DUP5 DUP3 DUP6 ADD PUSH2 0x30B2 JUMP JUMPDEST SWAP2 POP POP SWAP3 SWAP2 POP POP JUMP JUMPDEST PUSH1 0x0 DUP1 PUSH1 0x0 PUSH1 0x60 DUP5 DUP7 SUB SLT ISZERO PUSH2 0x31A8 JUMPI PUSH2 0x31A7 PUSH2 0x3F03 JUMP JUMPDEST JUMPDEST PUSH1 0x0 PUSH2 0x31B6 DUP7 DUP3 DUP8 ADD PUSH2 0x30B2 JUMP JUMPDEST SWAP4 POP POP PUSH1 0x20 DUP5 ADD CALLDATALOAD PUSH8 0xFFFFFFFFFFFFFFFF DUP2 GT ISZERO PUSH2 0x31D7 JUMPI PUSH2 0x31D6 PUSH2 0x3EFE JUMP JUMPDEST JUMPDEST PUSH2 0x31E3 DUP7 DUP3 DUP8 ADD PUSH2 0x311F JUMP JUMPDEST SWAP3 POP POP PUSH1 0x40 PUSH2 0x31F4 DUP7 DUP3 DUP8 ADD PUSH2 0x310A JUMP JUMPDEST SWAP2 POP POP SWAP3 POP SWAP3 POP SWAP3 JUMP JUMPDEST PUSH1 0x0 PUSH1 0x20 DUP3 DUP5 SUB SLT ISZERO PUSH2 0x3214 JUMPI PUSH2 0x3213 PUSH2 0x3F03 JUMP JUMPDEST JUMPDEST PUSH1 0x0 DUP3 ADD CALLDATALOAD PUSH8 0xFFFFFFFFFFFFFFFF DUP2 GT ISZERO PUSH2 0x3232 JUMPI PUSH2 0x3231 PUSH2 0x3EFE JUMP JUMPDEST JUMPDEST PUSH2 0x323E DUP5 DUP3 DUP6 ADD PUSH2 0x311F JUMP JUMPDEST SWAP2 POP POP SWAP3 SWAP2 POP POP JUMP JUMPDEST PUSH1 0x0 DUP1 PUSH1 0x40 DUP4 DUP6 SUB SLT ISZERO PUSH2 0x325E JUMPI PUSH2 0x325D PUSH2 0x3F03 JUMP JUMPDEST JUMPDEST PUSH1 0x0 DUP4 ADD CALLDATALOAD PUSH8 0xFFFFFFFFFFFFFFFF DUP2 GT ISZERO PUSH2 0x327C JUMPI PUSH2 0x327B PUSH2 0x3EFE JUMP JUMPDEST JUMPDEST PUSH2 0x3288 DUP6 DUP3 DUP7 ADD PUSH2 0x311F JUMP JUMPDEST SWAP3 POP POP PUSH1 0x20 DUP4 ADD CALLDATALOAD PUSH8 0xFFFFFFFFFFFFFFFF DUP2 GT ISZERO PUSH2 0x32A9 JUMPI PUSH2 0x32A8 PUSH2 0x3EFE JUMP JUMPDEST JUMPDEST PUSH2 0x32B5 DUP6 DUP3 DUP7 ADD PUSH2 0x30C7 JUMP JUMPDEST SWAP2 POP POP SWAP3 POP SWAP3 SWAP1 POP JUMP JUMPDEST PUSH1 0x0 DUP1 PUSH1 0x40 DUP4 DUP6 SUB SLT ISZERO PUSH2 0x32D6 JUMPI PUSH2 0x32D5 PUSH2 0x3F03 JUMP JUMPDEST JUMPDEST PUSH1 0x0 DUP4 ADD CALLDATALOAD PUSH8 0xFFFFFFFFFFFFFFFF DUP2 GT ISZERO PUSH2 0x32F4 JUMPI PUSH2 0x32F3 PUSH2 0x3EFE JUMP JUMPDEST JUMPDEST PUSH2 0x3300 DUP6 DUP3 DUP7 ADD PUSH2 0x311F JUMP JUMPDEST SWAP3 POP POP PUSH1 0x20 PUSH2 0x3311 DUP6 DUP3 DUP7 ADD PUSH2 0x310A JUMP JUMPDEST SWAP2 POP POP SWAP3 POP SWAP3 SWAP1 POP JUMP JUMPDEST PUSH1 0x0 DUP1 PUSH1 0x0 PUSH1 0x60 DUP5 DUP7 SUB SLT ISZERO PUSH2 0x3334 JUMPI PUSH2 0x3333 PUSH2 0x3F03 JUMP JUMPDEST JUMPDEST PUSH1 0x0 DUP5 ADD CALLDATALOAD PUSH8 0xFFFFFFFFFFFFFFFF DUP2 GT ISZERO PUSH2 0x3352 JUMPI PUSH2 0x3351 PUSH2 0x3EFE JUMP JUMPDEST JUMPDEST PUSH2 0x335E DUP7 DUP3 DUP8 ADD PUSH2 0x311F JUMP JUMPDEST SWAP4 POP POP PUSH1 0x20 DUP5 ADD CALLDATALOAD PUSH8 0xFFFFFFFFFFFFFFFF DUP2 GT ISZERO PUSH2 0x337F JUMPI PUSH2 0x337E PUSH2 0x3EFE JUMP JUMPDEST JUMPDEST PUSH2 0x338B DUP7 DUP3 DUP8 ADD PUSH2 0x311F JUMP JUMPDEST SWAP3 POP POP PUSH1 0x40 PUSH2 0x339C DUP7 DUP3 DUP8 ADD PUSH2 0x314D JUMP JUMPDEST SWAP2 POP POP SWAP3 POP SWAP3 POP SWAP3 JUMP JUMPDEST PUSH1 0x0 DUP1 PUSH1 0x0 PUSH1 0x60 DUP5 DUP7 SUB SLT ISZERO PUSH2 0x33BF JUMPI PUSH2 0x33BE PUSH2 0x3F03 JUMP JUMPDEST JUMPDEST PUSH1 0x0 DUP5 ADD CALLDATALOAD PUSH8 0xFFFFFFFFFFFFFFFF DUP2 GT ISZERO PUSH2 0x33DD JUMPI PUSH2 0x33DC PUSH2 0x3EFE JUMP JUMPDEST JUMPDEST PUSH2 0x33E9 DUP7 DUP3 DUP8 ADD PUSH2 0x311F JUMP JUMPDEST SWAP4 POP POP PUSH1 0x20 PUSH2 0x33FA DUP7 DUP3 DUP8 ADD PUSH2 0x314D JUMP JUMPDEST SWAP3 POP POP PUSH1 0x40 DUP5 ADD CALLDATALOAD PUSH8 0xFFFFFFFFFFFFFFFF DUP2 GT ISZERO PUSH2 0x341B JUMPI PUSH2 0x341A PUSH2 0x3EFE JUMP JUMPDEST JUMPDEST PUSH2 0x3427 DUP7 DUP3 DUP8 ADD PUSH2 0x311F JUMP JUMPDEST SWAP2 POP POP SWAP3 POP SWAP3 POP SWAP3 JUMP JUMPDEST PUSH1 0x0 PUSH1 0x20 DUP3 DUP5 SUB SLT ISZERO PUSH2 0x3447 JUMPI PUSH2 0x3446 PUSH2 0x3F03 JUMP JUMPDEST JUMPDEST PUSH1 0x0 PUSH2 0x3455 DUP5 DUP3 DUP6 ADD PUSH2 0x314D JUMP JUMPDEST SWAP2 POP POP SWAP3 SWAP2 POP POP JUMP JUMPDEST PUSH1 0x0 DUP1 PUSH1 0x40 DUP4 DUP6 SUB SLT ISZERO PUSH2 0x3475 JUMPI PUSH2 0x3474 PUSH2 0x3F03 JUMP JUMPDEST JUMPDEST PUSH1 0x0 PUSH2 0x3483 DUP6 DUP3 DUP7 ADD PUSH2 0x314D JUMP JUMPDEST SWAP3 POP POP PUSH1 0x20 PUSH2 0x3494 DUP6 DUP3 DUP7 ADD PUSH2 0x30F5 JUMP JUMPDEST SWAP2 POP POP SWAP3 POP SWAP3 SWAP1 POP JUMP JUMPDEST PUSH1 0x0 DUP1 PUSH1 0x40 DUP4 DUP6 SUB SLT ISZERO PUSH2 0x34B5 JUMPI PUSH2 0x34B4 PUSH2 0x3F03 JUMP JUMPDEST JUMPDEST PUSH1 0x0 PUSH2 0x34C3 DUP6 DUP3 DUP7 ADD PUSH2 0x314D JUMP JUMPDEST SWAP3 POP POP PUSH1 0x20 PUSH2 0x34D4 DUP6 DUP3 DUP7 ADD PUSH2 0x314D JUMP JUMPDEST SWAP2 POP POP SWAP3 POP SWAP3 SWAP1 POP JUMP JUMPDEST PUSH1 0x0 PUSH2 0x34EA DUP4 DUP4 PUSH2 0x3594 JUMP JUMPDEST SWAP1 POP SWAP3 SWAP2 POP POP JUMP JUMPDEST PUSH2 0x34FB DUP2 PUSH2 0x3CC4 JUMP JUMPDEST DUP3 MSTORE POP POP JUMP JUMPDEST PUSH1 0x0 PUSH2 0x350C DUP3 PUSH2 0x3B82 JUMP JUMPDEST PUSH2 0x3516 DUP2 DUP6 PUSH2 0x3BA5 JUMP JUMPDEST SWAP4 POP DUP4 PUSH1 0x20 DUP3 MUL DUP6 ADD PUSH2 0x3528 DUP6 PUSH2 0x3B5D JUMP JUMPDEST DUP1 PUSH1 0x0 JUMPDEST DUP6 DUP2 LT ISZERO PUSH2 0x3564 JUMPI DUP5 DUP5 SUB DUP10 MSTORE DUP2 MLOAD PUSH2 0x3545 DUP6 DUP3 PUSH2 0x34DE JUMP JUMPDEST SWAP5 POP PUSH2 0x3550 DUP4 PUSH2 0x3B98 JUMP JUMPDEST SWAP3 POP PUSH1 0x20 DUP11 ADD SWAP10 POP POP PUSH1 0x1 DUP2 ADD SWAP1 POP PUSH2 0x352C JUMP JUMPDEST POP DUP3 SWAP8 POP DUP8 SWAP6 POP POP POP POP POP POP SWAP3 SWAP2 POP POP JUMP JUMPDEST PUSH2 0x357F DUP2 PUSH2 0x3CD6 JUMP JUMPDEST DUP3 MSTORE POP POP JUMP JUMPDEST PUSH2 0x358E DUP2 PUSH2 0x3CE2 JUMP JUMPDEST DUP3 MSTORE POP POP JUMP JUMPDEST PUSH1 0x0 PUSH2 0x359F DUP3 PUSH2 0x3B8D JUMP JUMPDEST PUSH2 0x35A9 DUP2 DUP6 PUSH2 0x3BB6 JUMP JUMPDEST SWAP4 POP PUSH2 0x35B9 DUP2 DUP6 PUSH1 0x20 DUP7 ADD PUSH2 0x3D25 JUMP JUMPDEST PUSH2 0x35C2 DUP2 PUSH2 0x3F08 JUMP JUMPDEST DUP5 ADD SWAP2 POP POP SWAP3 SWAP2 POP POP JUMP JUMPDEST PUSH1 0x0 PUSH2 0x35D8 DUP3 PUSH2 0x3B8D JUMP JUMPDEST PUSH2 0x35E2 DUP2 DUP6 PUSH2 0x3BC7 JUMP JUMPDEST SWAP4 POP PUSH2 0x35F2 DUP2 DUP6 PUSH1 0x20 DUP7 ADD PUSH2 0x3D25 JUMP JUMPDEST PUSH2 0x35FB DUP2 PUSH2 0x3F08 JUMP JUMPDEST DUP5 ADD SWAP2 POP POP SWAP3 SWAP2 POP POP JUMP JUMPDEST PUSH1 0x0 PUSH2 0x3611 DUP3 PUSH2 0x3B8D JUMP JUMPDEST PUSH2 0x361B DUP2 DUP6 PUSH2 0x3BD8 JUMP JUMPDEST SWAP4 POP PUSH2 0x362B DUP2 DUP6 PUSH1 0x20 DUP7 ADD PUSH2 0x3D25 JUMP JUMPDEST DUP1 DUP5 ADD SWAP2 POP POP SWAP3 SWAP2 POP POP JUMP JUMPDEST PUSH1 0x0 DUP2 SLOAD PUSH2 0x3644 DUP2 PUSH2 0x3D58 JUMP JUMPDEST PUSH2 0x364E DUP2 DUP7 PUSH2 0x3BD8 JUMP JUMPDEST SWAP5 POP PUSH1 0x1 DUP3 AND PUSH1 0x0 DUP2 EQ PUSH2 0x3669 JUMPI PUSH1 0x1 DUP2 EQ PUSH2 0x367A JUMPI PUSH2 0x36AD JUMP JUMPDEST PUSH1 0xFF NOT DUP4 AND DUP7 MSTORE DUP2 DUP7 ADD SWAP4 POP PUSH2 0x36AD JUMP JUMPDEST PUSH2 0x3683 DUP6 PUSH2 0x3B6D JUMP JUMPDEST PUSH1 0x0 JUMPDEST DUP4 DUP2 LT ISZERO PUSH2 0x36A5 JUMPI DUP2 SLOAD DUP2 DUP10 ADD MSTORE PUSH1 0x1 DUP3 ADD SWAP2 POP PUSH1 0x20 DUP2 ADD SWAP1 POP PUSH2 0x3686 JUMP JUMPDEST DUP4 DUP9 ADD SWAP6 POP POP POP JUMPDEST POP POP POP SWAP3 SWAP2 POP POP JUMP JUMPDEST PUSH1 0x0 PUSH2 0x36C3 PUSH1 0x19 DUP4 PUSH2 0x3BC7 JUMP JUMPDEST SWAP2 POP PUSH2 0x36CE DUP3 PUSH2 0x3F19 JUMP JUMPDEST PUSH1 0x20 DUP3 ADD SWAP1 POP SWAP2 SWAP1 POP JUMP JUMPDEST PUSH1 0x0 PUSH2 0x36E6 PUSH1 0x17 DUP4 PUSH2 0x3BC7 JUMP JUMPDEST SWAP2 POP PUSH2 0x36F1 DUP3 PUSH2 0x3F42 JUMP JUMPDEST PUSH1 0x20 DUP3 ADD SWAP1 POP SWAP2 SWAP1 POP JUMP JUMPDEST PUSH1 0x0 PUSH2 0x3709 PUSH1 0x19 DUP4 PUSH2 0x3BC7 JUMP JUMPDEST SWAP2 POP PUSH2 0x3714 DUP3 PUSH2 0x3F6B JUMP JUMPDEST PUSH1 0x20 DUP3 ADD SWAP1 POP SWAP2 SWAP1 POP JUMP JUMPDEST PUSH1 0x0 PUSH2 0x372C PUSH1 0x10 DUP4 PUSH2 0x3BC7 JUMP JUMPDEST SWAP2 POP PUSH2 0x3737 DUP3 PUSH2 0x3F94 JUMP JUMPDEST PUSH1 0x20 DUP3 ADD SWAP1 POP SWAP2 SWAP1 POP JUMP JUMPDEST PUSH1 0x0 PUSH2 0x374F PUSH1 0x1D DUP4 PUSH2 0x3BC7 JUMP JUMPDEST SWAP2 POP PUSH2 0x375A DUP3 PUSH2 0x3FBD JUMP JUMPDEST PUSH1 0x20 DUP3 ADD SWAP1 POP SWAP2 SWAP1 POP JUMP JUMPDEST PUSH1 0x0 PUSH2 0x3772 PUSH1 0x21 DUP4 PUSH2 0x3BC7 JUMP JUMPDEST SWAP2 POP PUSH2 0x377D DUP3 PUSH2 0x3FE6 JUMP JUMPDEST PUSH1 0x40 DUP3 ADD SWAP1 POP SWAP2 SWAP1 POP JUMP JUMPDEST PUSH2 0x3791 DUP2 PUSH2 0x3D0C JUMP JUMPDEST DUP3 MSTORE POP POP JUMP JUMPDEST PUSH1 0x0 PUSH2 0x37A3 DUP3 DUP5 PUSH2 0x3606 JUMP JUMPDEST SWAP2 POP DUP2 SWAP1 POP SWAP3 SWAP2 POP POP JUMP JUMPDEST PUSH1 0x0 PUSH2 0x37BA DUP3 DUP5 PUSH2 0x3637 JUMP JUMPDEST SWAP2 POP DUP2 SWAP1 POP SWAP3 SWAP2 POP POP JUMP JUMPDEST PUSH1 0x0 PUSH1 0x20 DUP3 ADD SWAP1 POP PUSH2 0x37DA PUSH1 0x0 DUP4 ADD DUP5 PUSH2 0x34F2 JUMP JUMPDEST SWAP3 SWAP2 POP POP JUMP JUMPDEST PUSH1 0x0 PUSH1 0x60 DUP3 ADD SWAP1 POP PUSH2 0x37F5 PUSH1 0x0 DUP4 ADD DUP7 PUSH2 0x34F2 JUMP JUMPDEST DUP2 DUP2 SUB PUSH1 0x20 DUP4 ADD MSTORE PUSH2 0x3807 DUP2 DUP6 PUSH2 0x35CD JUMP JUMPDEST SWAP1 POP PUSH2 0x3816 PUSH1 0x40 DUP4 ADD DUP5 PUSH2 0x3576 JUMP JUMPDEST SWAP5 SWAP4 POP POP POP POP JUMP JUMPDEST PUSH1 0x0 PUSH1 0x80 DUP3 ADD SWAP1 POP PUSH2 0x3833 PUSH1 0x0 DUP4 ADD DUP8 PUSH2 0x34F2 JUMP JUMPDEST DUP2 DUP2 SUB PUSH1 0x20 DUP4 ADD MSTORE PUSH2 0x3845 DUP2 DUP7 PUSH2 0x35CD JUMP JUMPDEST SWAP1 POP PUSH2 0x3854 PUSH1 0x40 DUP4 ADD DUP6 PUSH2 0x3788 JUMP JUMPDEST PUSH2 0x3861 PUSH1 0x60 DUP4 ADD DUP5 PUSH2 0x3576 JUMP JUMPDEST SWAP6 SWAP5 POP POP POP POP POP JUMP JUMPDEST PUSH1 0x0 PUSH1 0x80 DUP3 ADD SWAP1 POP PUSH2 0x387F PUSH1 0x0 DUP4 ADD DUP8 PUSH2 0x34F2 JUMP JUMPDEST DUP2 DUP2 SUB PUSH1 0x20 DUP4 ADD MSTORE PUSH2 0x3891 DUP2 DUP7 PUSH2 0x35CD JUMP JUMPDEST SWAP1 POP PUSH2 0x38A0 PUSH1 0x40 DUP4 ADD DUP6 PUSH2 0x3788 JUMP JUMPDEST PUSH2 0x38AD PUSH1 0x60 DUP4 ADD DUP5 PUSH2 0x3788 JUMP JUMPDEST SWAP6 SWAP5 POP POP POP POP POP JUMP JUMPDEST PUSH1 0x0 PUSH1 0x20 DUP3 ADD SWAP1 POP DUP2 DUP2 SUB PUSH1 0x0 DUP4 ADD MSTORE PUSH2 0x38D0 DUP2 DUP5 PUSH2 0x3501 JUMP JUMPDEST SWAP1 POP SWAP3 SWAP2 POP POP JUMP JUMPDEST PUSH1 0x0 PUSH1 0x20 DUP3 ADD SWAP1 POP PUSH2 0x38ED PUSH1 0x0 DUP4 ADD DUP5 PUSH2 0x3576 JUMP JUMPDEST SWAP3 SWAP2 POP POP JUMP JUMPDEST PUSH1 0x0 PUSH1 0x20 DUP3 ADD SWAP1 POP PUSH2 0x3908 PUSH1 0x0 DUP4 ADD DUP5 PUSH2 0x3585 JUMP JUMPDEST SWAP3 SWAP2 POP POP JUMP JUMPDEST PUSH1 0x0 PUSH1 0x20 DUP3 ADD SWAP1 POP DUP2 DUP2 SUB PUSH1 0x0 DUP4 ADD MSTORE PUSH2 0x3928 DUP2 DUP5 PUSH2 0x35CD JUMP JUMPDEST SWAP1 POP SWAP3 SWAP2 POP POP JUMP JUMPDEST PUSH1 0x0 PUSH1 0x80 DUP3 ADD SWAP1 POP DUP2 DUP2 SUB PUSH1 0x0 DUP4 ADD MSTORE PUSH2 0x394A DUP2 DUP8 PUSH2 0x35CD JUMP JUMPDEST SWAP1 POP PUSH2 0x3959 PUSH1 0x20 DUP4 ADD DUP7 PUSH2 0x3585 JUMP JUMPDEST PUSH2 0x3966 PUSH1 0x40 DUP4 ADD DUP6 PUSH2 0x3788 JUMP JUMPDEST PUSH2 0x3973 PUSH1 0x60 DUP4 ADD DUP5 PUSH2 0x3576 JUMP JUMPDEST SWAP6 SWAP5 POP POP POP POP POP JUMP JUMPDEST PUSH1 0x0 PUSH1 0xE0 DUP3 ADD SWAP1 POP DUP2 DUP2 SUB PUSH1 0x0 DUP4 ADD MSTORE PUSH2 0x3996 DUP2 DUP11 PUSH2 0x35CD JUMP JUMPDEST SWAP1 POP PUSH2 0x39A5 PUSH1 0x20 DUP4 ADD DUP10 PUSH2 0x3585 JUMP JUMPDEST PUSH2 0x39B2 PUSH1 0x40 DUP4 ADD DUP9 PUSH2 0x3788 JUMP JUMPDEST PUSH2 0x39BF PUSH1 0x60 DUP4 ADD DUP8 PUSH2 0x3576 JUMP JUMPDEST DUP2 DUP2 SUB PUSH1 0x80 DUP4 ADD MSTORE PUSH2 0x39D1 DUP2 DUP7 PUSH2 0x35CD JUMP JUMPDEST SWAP1 POP DUP2 DUP2 SUB PUSH1 0xA0 DUP4 ADD MSTORE PUSH2 0x39E5 DUP2 DUP6 PUSH2 0x35CD JUMP JUMPDEST SWAP1 POP PUSH2 0x39F4 PUSH1 0xC0 DUP4 ADD DUP5 PUSH2 0x3788 JUMP JUMPDEST SWAP9 SWAP8 POP POP POP POP POP POP POP POP JUMP JUMPDEST PUSH1 0x0 PUSH1 0x20 DUP3 ADD SWAP1 POP DUP2 DUP2 SUB PUSH1 0x0 DUP4 ADD MSTORE PUSH2 0x3A19 DUP2 PUSH2 0x36B6 JUMP JUMPDEST SWAP1 POP SWAP2 SWAP1 POP JUMP JUMPDEST PUSH1 0x0 PUSH1 0x20 DUP3 ADD SWAP1 POP DUP2 DUP2 SUB PUSH1 0x0 DUP4 ADD MSTORE PUSH2 0x3A39 DUP2 PUSH2 0x36D9 JUMP JUMPDEST SWAP1 POP SWAP2 SWAP1 POP JUMP JUMPDEST PUSH1 0x0 PUSH1 0x20 DUP3 ADD SWAP1 POP DUP2 DUP2 SUB PUSH1 0x0 DUP4 ADD MSTORE PUSH2 0x3A59 DUP2 PUSH2 0x36FC JUMP JUMPDEST SWAP1 POP SWAP2 SWAP1 POP JUMP JUMPDEST PUSH1 0x0 PUSH1 0x20 DUP3 ADD SWAP1 POP DUP2 DUP2 SUB PUSH1 0x0 DUP4 ADD MSTORE PUSH2 0x3A79 DUP2 PUSH2 0x371F JUMP JUMPDEST SWAP1 POP SWAP2 SWAP1 POP JUMP JUMPDEST PUSH1 0x0 PUSH1 0x20 DUP3 ADD SWAP1 POP DUP2 DUP2 SUB PUSH1 0x0 DUP4 ADD MSTORE PUSH2 0x3A99 DUP2 PUSH2 0x3742 JUMP JUMPDEST SWAP1 POP SWAP2 SWAP1 POP JUMP JUMPDEST PUSH1 0x0 PUSH1 0x20 DUP3 ADD SWAP1 POP DUP2 DUP2 SUB PUSH1 0x0 DUP4 ADD MSTORE PUSH2 0x3AB9 DUP2 PUSH2 0x3765 JUMP JUMPDEST SWAP1 POP SWAP2 SWAP1 POP JUMP JUMPDEST PUSH1 0x0 PUSH1 0x20 DUP3 ADD SWAP1 POP PUSH2 0x3AD5 PUSH1 0x0 DUP4 ADD DUP5 PUSH2 0x3788 JUMP JUMPDEST SWAP3 SWAP2 POP POP JUMP JUMPDEST PUSH1 0x0 PUSH2 0x3AE5 PUSH2 0x3AF6 JUMP JUMPDEST SWAP1 POP PUSH2 0x3AF1 DUP3 DUP3 PUSH2 0x3D8A JUMP JUMPDEST SWAP2 SWAP1 POP JUMP JUMPDEST PUSH1 0x0 PUSH1 0x40 MLOAD SWAP1 POP SWAP1 JUMP JUMPDEST PUSH1 0x0 PUSH8 0xFFFFFFFFFFFFFFFF DUP3 GT ISZERO PUSH2 0x3B1B JUMPI PUSH2 0x3B1A PUSH2 0x3EC0 JUMP JUMPDEST JUMPDEST PUSH1 0x20 DUP3 MUL SWAP1 POP PUSH1 0x20 DUP2 ADD SWAP1 POP SWAP2 SWAP1 POP JUMP JUMPDEST PUSH1 0x0 PUSH8 0xFFFFFFFFFFFFFFFF DUP3 GT ISZERO PUSH2 0x3B47 JUMPI PUSH2 0x3B46 PUSH2 0x3EC0 JUMP JUMPDEST JUMPDEST PUSH2 0x3B50 DUP3 PUSH2 0x3F08 JUMP JUMPDEST SWAP1 POP PUSH1 0x20 DUP2 ADD SWAP1 POP SWAP2 SWAP1 POP JUMP JUMPDEST PUSH1 0x0 DUP2 SWAP1 POP PUSH1 0x20 DUP3 ADD SWAP1 POP SWAP2 SWAP1 POP JUMP JUMPDEST PUSH1 0x0 DUP2 SWAP1 POP DUP2 PUSH1 0x0 MSTORE PUSH1 0x20 PUSH1 0x0 KECCAK256 SWAP1 POP SWAP2 SWAP1 POP JUMP JUMPDEST PUSH1 0x0 DUP2 MLOAD SWAP1 POP SWAP2 SWAP1 POP JUMP JUMPDEST PUSH1 0x0 DUP2 MLOAD SWAP1 POP SWAP2 SWAP1 POP JUMP JUMPDEST PUSH1 0x0 PUSH1 0x20 DUP3 ADD SWAP1 POP SWAP2 SWAP1 POP JUMP JUMPDEST PUSH1 0x0 DUP3 DUP3 MSTORE PUSH1 0x20 DUP3 ADD SWAP1 POP SWAP3 SWAP2 POP POP JUMP JUMPDEST PUSH1 0x0 DUP3 DUP3 MSTORE PUSH1 0x20 DUP3 ADD SWAP1 POP SWAP3 SWAP2 POP POP JUMP JUMPDEST PUSH1 0x0 DUP3 DUP3 MSTORE PUSH1 0x20 DUP3 ADD SWAP1 POP SWAP3 SWAP2 POP POP JUMP JUMPDEST PUSH1 0x0 DUP2 SWAP1 POP SWAP3 SWAP2 POP POP JUMP JUMPDEST PUSH1 0x0 PUSH2 0x3BEE DUP3 PUSH2 0x3D0C JUMP JUMPDEST SWAP2 POP PUSH2 0x3BF9 DUP4 PUSH2 0x3D0C JUMP JUMPDEST SWAP3 POP DUP3 PUSH32 0xFFFFFFFFFFFFFFFFFFFFFFFFFFFFFFFFFFFFFFFFFFFFFFFFFFFFFFFFFFFFFFFF SUB DUP3 GT ISZERO PUSH2 0x3C2E JUMPI PUSH2 0x3C2D PUSH2 0x3E04 JUMP JUMPDEST JUMPDEST DUP3 DUP3 ADD SWAP1 POP SWAP3 SWAP2 POP POP JUMP JUMPDEST PUSH1 0x0 PUSH2 0x3C44 DUP3 PUSH2 0x3D0C JUMP JUMPDEST SWAP2 POP PUSH2 0x3C4F DUP4 PUSH2 0x3D0C JUMP JUMPDEST SWAP3 POP DUP3 PUSH2 0x3C5F JUMPI PUSH2 0x3C5E PUSH2 0x3E33 JUMP JUMPDEST JUMPDEST DUP3 DUP3 DIV SWAP1 POP SWAP3 SWAP2 POP POP JUMP JUMPDEST PUSH1 0x0 PUSH2 0x3C75 DUP3 PUSH2 0x3D0C JUMP JUMPDEST SWAP2 POP PUSH2 0x3C80 DUP4 PUSH2 0x3D0C JUMP JUMPDEST SWAP3 POP DUP2 PUSH32 0xFFFFFFFFFFFFFFFFFFFFFFFFFFFFFFFFFFFFFFFFFFFFFFFFFFFFFFFFFFFFFFFF DIV DUP4 GT DUP3 ISZERO ISZERO AND ISZERO PUSH2 0x3CB9 JUMPI PUSH2 0x3CB8 PUSH2 0x3E04 JUMP JUMPDEST JUMPDEST DUP3 DUP3 MUL SWAP1 POP SWAP3 SWAP2 POP POP JUMP JUMPDEST PUSH1 0x0 PUSH2 0x3CCF DUP3 PUSH2 0x3CEC JUMP JUMPDEST SWAP1 POP SWAP2 SWAP1 POP JUMP JUMPDEST PUSH1 0x0 DUP2 ISZERO ISZERO SWAP1 POP SWAP2 SWAP1 POP JUMP JUMPDEST PUSH1 0x0 DUP2 SWAP1 POP SWAP2 SWAP1 POP JUMP JUMPDEST PUSH1 0x0 PUSH20 0xFFFFFFFFFFFFFFFFFFFFFFFFFFFFFFFFFFFFFFFF DUP3 AND SWAP1 POP SWAP2 SWAP1 POP JUMP JUMPDEST PUSH1 0x0 DUP2 SWAP1 POP SWAP2 SWAP1 POP JUMP JUMPDEST DUP3 DUP2 DUP4 CALLDATACOPY PUSH1 0x0 DUP4 DUP4 ADD MSTORE POP POP POP JUMP JUMPDEST PUSH1 0x0 JUMPDEST DUP4 DUP2 LT ISZERO PUSH2 0x3D43 JUMPI DUP1 DUP3 ADD MLOAD DUP2 DUP5 ADD MSTORE PUSH1 0x20 DUP2 ADD SWAP1 POP PUSH2 0x3D28 JUMP JUMPDEST DUP4 DUP2 GT ISZERO PUSH2 0x3D52 JUMPI PUSH1 0x0 DUP5 DUP5 ADD MSTORE JUMPDEST POP POP POP POP JUMP JUMPDEST PUSH1 0x0 PUSH1 0x2 DUP3 DIV SWAP1 POP PUSH1 0x1 DUP3 AND DUP1 PUSH2 0x3D70 JUMPI PUSH1 0x7F DUP3 AND SWAP2 POP JUMPDEST PUSH1 0x20 DUP3 LT DUP2 EQ ISZERO PUSH2 0x3D84 JUMPI PUSH2 0x3D83 PUSH2 0x3E62 JUMP JUMPDEST JUMPDEST POP SWAP2 SWAP1 POP JUMP JUMPDEST PUSH2 0x3D93 DUP3 PUSH2 0x3F08 JUMP JUMPDEST DUP2 ADD DUP2 DUP2 LT PUSH8 0xFFFFFFFFFFFFFFFF DUP3 GT OR ISZERO PUSH2 0x3DB2 JUMPI PUSH2 0x3DB1 PUSH2 0x3EC0 JUMP JUMPDEST JUMPDEST DUP1 PUSH1 0x40 MSTORE POP POP POP JUMP JUMPDEST PUSH1 0x0 PUSH2 0x3DC6 DUP3 PUSH2 0x3D0C JUMP JUMPDEST SWAP2 POP PUSH32 0xFFFFFFFFFFFFFFFFFFFFFFFFFFFFFFFFFFFFFFFFFFFFFFFFFFFFFFFFFFFFFFFF DUP3 EQ ISZERO PUSH2 0x3DF9 JUMPI PUSH2 0x3DF8 PUSH2 0x3E04 JUMP JUMPDEST JUMPDEST PUSH1 0x1 DUP3 ADD SWAP1 POP SWAP2 SWAP1 POP JUMP JUMPDEST PUSH32 0x4E487B7100000000000000000000000000000000000000000000000000000000 PUSH1 0x0 MSTORE PUSH1 0x11 PUSH1 0x4 MSTORE PUSH1 0x24 PUSH1 0x0 REVERT JUMPDEST PUSH32 0x4E487B7100000000000000000000000000000000000000000000000000000000 PUSH1 0x0 MSTORE PUSH1 0x12 PUSH1 0x4 MSTORE PUSH1 0x24 PUSH1 0x0 REVERT JUMPDEST PUSH32 0x4E487B7100000000000000000000000000000000000000000000000000000000 PUSH1 0x0 MSTORE PUSH1 0x22 PUSH1 0x4 MSTORE PUSH1 0x24 PUSH1 0x0 REVERT JUMPDEST PUSH32 0x4E487B7100000000000000000000000000000000000000000000000000000000 PUSH1 0x0 MSTORE PUSH1 0x32 PUSH1 0x4 MSTORE PUSH1 0x24 PUSH1 0x0 REVERT JUMPDEST PUSH32 0x4E487B7100000000000000000000000000000000000000000000000000000000 PUSH1 0x0 MSTORE PUSH1 0x41 PUSH1 0x4 MSTORE PUSH1 0x24 PUSH1 0x0 REVERT JUMPDEST PUSH1 0x0 DUP1 REVERT JUMPDEST PUSH1 0x0 DUP1 REVERT JUMPDEST PUSH1 0x0 DUP1 REVERT JUMPDEST PUSH1 0x0 DUP1 REVERT JUMPDEST PUSH1 0x0 DUP1 REVERT JUMPDEST PUSH1 0x0 PUSH1 0x1F NOT PUSH1 0x1F DUP4 ADD AND SWAP1 POP SWAP2 SWAP1 POP JUMP JUMPDEST PUSH32 0x4572726F723A205573657220616C726561647920657869737400000000000000 PUSH1 0x0 DUP3 ADD MSTORE POP JUMP JUMPDEST PUSH32 0x4572726F723A20496E76616C69642070617373776F7264000000000000000000 PUSH1 0x0 DUP3 ADD MSTORE POP JUMP JUMPDEST PUSH32 0x4572726F723A205573657220646F65736E277420657869737400000000000000 PUSH1 0x0 DUP3 ADD MSTORE POP JUMP JUMPDEST PUSH32 0x6572726F723A206E6F74206D6F6E657900000000000000000000000000000000 PUSH1 0x0 DUP3 ADD MSTORE POP JUMP JUMPDEST PUSH32 0x4572726F723A20596F752061726520616C7265616479206C6F67676564000000 PUSH1 0x0 DUP3 ADD MSTORE POP JUMP JUMPDEST PUSH32 0x6572726F723A20726174696E672063616E2062652066726F6D203120746F2031 PUSH1 0x0 DUP3 ADD MSTORE PUSH32 0x3000000000000000000000000000000000000000000000000000000000000000 PUSH1 0x20 DUP3 ADD MSTORE POP JUMP JUMPDEST PUSH2 0x403E DUP2 PUSH2 0x3CC4 JUMP JUMPDEST DUP2 EQ PUSH2 0x4049 JUMPI PUSH1 0x0 DUP1 REVERT JUMPDEST POP JUMP JUMPDEST PUSH2 0x4055 DUP2 PUSH2 0x3CD6 JUMP JUMPDEST DUP2 EQ PUSH2 0x4060 JUMPI PUSH1 0x0 DUP1 REVERT JUMPDEST POP JUMP JUMPDEST PUSH2 0x406C DUP2 PUSH2 0x3CE2 JUMP JUMPDEST DUP2 EQ PUSH2 0x4077 JUMPI PUSH1 0x0 DUP1 REVERT JUMPDEST POP JUMP JUMPDEST PUSH2 0x4083 DUP2 PUSH2 0x3D0C JUMP JUMPDEST DUP2 EQ PUSH2 0x408E JUMPI PUSH1 0x0 DUP1 REVERT JUMPDEST POP JUMP INVALID LOG2 PUSH5 0x6970667358 0x22 SLT KECCAK256 TIMESTAMP PUSH28 0x18D9279FBAF75F0ECDA4E6291EABFA65306C4754102FD10254C2BBF PUSH30 0x9D64736F6C63430008070033000000000000000000000000000000000000 "
				},
				"gasEstimates": {
					"creation": {
						"codeDepositCost": "3316600",
						"executionCost": "infinite",
						"totalCost": "infinite"
					},
					"external": {
						"acceptMarriage(uint256,bool)": "infinite",
						"acceptPurchase(uint256,uint256)": "infinite",
						"acceptReturn(uint256,bool)": "infinite",
						"addProductShop(string,uint256,string)": "infinite",
						"check_logged_shop(string)": "infinite",
						"check_logged_user(string)": "infinite",
						"create_user(address,string,bytes32)": "infinite",
						"getStoryRating(string)": "infinite",
						"get_address(string)": "infinite",
						"get_balance(address)": "3338",
						"get_city(string)": "infinite",
						"get_hash(string)": "infinite",
						"get_product_list()": "infinite",
						"get_role_shop(string)": "infinite",
						"get_role_user(string)": "infinite",
						"get_shop_list()": "infinite",
						"leaveComment(string,string[])": "infinite",
						"leaveFeedback(string,string,uint256)": "infinite",
						"login_out_shop(string)": "infinite",
						"login_out_user(string)": "infinite",
						"login_shop(string,bytes32)": "infinite",
						"login_user(string,bytes32)": "infinite",
						"productMarriage(string)": "infinite",
						"productPurchases(string)": "infinite",
						"productReturn(string)": "infinite",
						"shopLists(string)": "infinite",
						"structProducts(string)": "infinite",
						"structShops(address)": "infinite",
						"structStatusMarriages(uint256)": "infinite",
						"structStatusPurchases(uint256)": "infinite",
						"structStatusReturns(uint256)": "infinite",
						"structUserLogins(string)": "infinite",
						"structUsers(address)": "infinite"
					}
				},
				"methodIdentifiers": {
					"acceptMarriage(uint256,bool)": "87048043",
					"acceptPurchase(uint256,uint256)": "f7647f36",
					"acceptReturn(uint256,bool)": "2ccdef7c",
					"addProductShop(string,uint256,string)": "6c05dd1d",
					"check_logged_shop(string)": "3b84aedc",
					"check_logged_user(string)": "5bbc9a3f",
					"create_user(address,string,bytes32)": "0e1c81b2",
					"getStoryRating(string)": "a985036d",
					"get_address(string)": "6ba44d3c",
					"get_balance(address)": "1e279a37",
					"get_city(string)": "55149fd5",
					"get_hash(string)": "845952a8",
					"get_product_list()": "5bd37c9e",
					"get_role_shop(string)": "033ff0b8",
					"get_role_user(string)": "5bdb63fa",
					"get_shop_list()": "1f8daac8",
					"leaveComment(string,string[])": "29e795f3",
					"leaveFeedback(string,string,uint256)": "cc21c188",
					"login_out_shop(string)": "04ac16f6",
					"login_out_user(string)": "521b9170",
					"login_shop(string,bytes32)": "775eb9e6",
					"login_user(string,bytes32)": "d22d9020",
					"productMarriage(string)": "5828c584",
					"productPurchases(string)": "146dc6ed",
					"productReturn(string)": "bbd43363",
					"shopLists(string)": "c4957fa0",
					"structProducts(string)": "d68cf8c1",
					"structShops(address)": "8e23cb40",
					"structStatusMarriages(uint256)": "73b62bd0",
					"structStatusPurchases(uint256)": "dce39151",
					"structStatusReturns(uint256)": "a9f9482b",
					"structUserLogins(string)": "1bbe970a",
					"structUsers(address)": "961865f0"
				}
			},
			"storageLayout": {
				"storage": [
					{
						"astId": 284,
						"contract": "Documents/GitHub/Store-system-with-feedback/main.sol:coursepaper",
						"label": "structShops",
						"offset": 0,
						"slot": "0",
						"type": "t_mapping(t_address,t_struct(structShop)279_storage)"
					},
					{
						"astId": 288,
						"contract": "Documents/GitHub/Store-system-with-feedback/main.sol:coursepaper",
						"label": "shopLists",
						"offset": 0,
						"slot": "1",
						"type": "t_mapping(t_string_memory_ptr,t_address)"
					},
					{
						"astId": 291,
						"contract": "Documents/GitHub/Store-system-with-feedback/main.sol:coursepaper",
						"label": "shopList",
						"offset": 0,
						"slot": "2",
						"type": "t_array(t_string_storage)dyn_storage"
					},
					{
						"astId": 307,
						"contract": "Documents/GitHub/Store-system-with-feedback/main.sol:coursepaper",
						"label": "complaintBooks",
						"offset": 0,
						"slot": "3",
						"type": "t_array(t_struct(complaintBook)303_storage)dyn_storage"
					},
					{
						"astId": 321,
						"contract": "Documents/GitHub/Store-system-with-feedback/main.sol:coursepaper",
						"label": "structUsers",
						"offset": 0,
						"slot": "4",
						"type": "t_mapping(t_address,t_struct(structUser)316_storage)"
					},
					{
						"astId": 325,
						"contract": "Documents/GitHub/Store-system-with-feedback/main.sol:coursepaper",
						"label": "structUserLogins",
						"offset": 0,
						"slot": "5",
						"type": "t_mapping(t_string_memory_ptr,t_address)"
					},
					{
						"astId": 328,
						"contract": "Documents/GitHub/Store-system-with-feedback/main.sol:coursepaper",
						"label": "userLoginsArray",
						"offset": 0,
						"slot": "6",
						"type": "t_array(t_string_storage)dyn_storage"
					},
					{
						"astId": 331,
						"contract": "Documents/GitHub/Store-system-with-feedback/main.sol:coursepaper",
						"label": "userAddressArray",
						"offset": 0,
						"slot": "7",
						"type": "t_array(t_address)dyn_storage"
					},
					{
						"astId": 345,
						"contract": "Documents/GitHub/Store-system-with-feedback/main.sol:coursepaper",
						"label": "structProducts",
						"offset": 0,
						"slot": "8",
						"type": "t_mapping(t_string_memory_ptr,t_struct(structProduct)340_storage)"
					},
					{
						"astId": 348,
						"contract": "Documents/GitHub/Store-system-with-feedback/main.sol:coursepaper",
						"label": "productList",
						"offset": 0,
						"slot": "9",
						"type": "t_array(t_string_storage)dyn_storage"
					},
					{
						"astId": 361,
						"contract": "Documents/GitHub/Store-system-with-feedback/main.sol:coursepaper",
						"label": "structStatusPurchases",
						"offset": 0,
						"slot": "10",
						"type": "t_array(t_struct(structStatusPurchase)357_storage)dyn_storage"
					},
					{
						"astId": 372,
						"contract": "Documents/GitHub/Store-system-with-feedback/main.sol:coursepaper",
						"label": "structStatusReturns",
						"offset": 0,
						"slot": "11",
						"type": "t_array(t_struct(structStatusReturn)368_storage)dyn_storage"
					},
					{
						"astId": 383,
						"contract": "Documents/GitHub/Store-system-with-feedback/main.sol:coursepaper",
						"label": "structStatusMarriages",
						"offset": 0,
						"slot": "12",
						"type": "t_array(t_struct(structStatusMarriage)379_storage)dyn_storage"
					},
					{
						"astId": 386,
						"contract": "Documents/GitHub/Store-system-with-feedback/main.sol:coursepaper",
						"label": "addProductShop_idProduct",
						"offset": 0,
						"slot": "13",
						"type": "t_uint256"
					}
				],
				"types": {
					"t_address": {
						"encoding": "inplace",
						"label": "address",
						"numberOfBytes": "20"
					},
					"t_array(t_address)dyn_storage": {
						"base": "t_address",
						"encoding": "dynamic_array",
						"label": "address[]",
						"numberOfBytes": "32"
					},
					"t_array(t_string_storage)dyn_storage": {
						"base": "t_string_storage",
						"encoding": "dynamic_array",
						"label": "string[]",
						"numberOfBytes": "32"
					},
					"t_array(t_struct(complaintBook)303_storage)dyn_storage": {
						"base": "t_struct(complaintBook)303_storage",
						"encoding": "dynamic_array",
						"label": "struct coursepaper.complaintBook[]",
						"numberOfBytes": "32"
					},
					"t_array(t_struct(structStatusMarriage)379_storage)dyn_storage": {
						"base": "t_struct(structStatusMarriage)379_storage",
						"encoding": "dynamic_array",
						"label": "struct coursepaper.structStatusMarriage[]",
						"numberOfBytes": "32"
					},
					"t_array(t_struct(structStatusPurchase)357_storage)dyn_storage": {
						"base": "t_struct(structStatusPurchase)357_storage",
						"encoding": "dynamic_array",
						"label": "struct coursepaper.structStatusPurchase[]",
						"numberOfBytes": "32"
					},
					"t_array(t_struct(structStatusReturn)368_storage)dyn_storage": {
						"base": "t_struct(structStatusReturn)368_storage",
						"encoding": "dynamic_array",
						"label": "struct coursepaper.structStatusReturn[]",
						"numberOfBytes": "32"
					},
					"t_bool": {
						"encoding": "inplace",
						"label": "bool",
						"numberOfBytes": "1"
					},
					"t_bytes32": {
						"encoding": "inplace",
						"label": "bytes32",
						"numberOfBytes": "32"
					},
					"t_mapping(t_address,t_struct(structShop)279_storage)": {
						"encoding": "mapping",
						"key": "t_address",
						"label": "mapping(address => struct coursepaper.structShop)",
						"numberOfBytes": "32",
						"value": "t_struct(structShop)279_storage"
					},
					"t_mapping(t_address,t_struct(structUser)316_storage)": {
						"encoding": "mapping",
						"key": "t_address",
						"label": "mapping(address => struct coursepaper.structUser)",
						"numberOfBytes": "32",
						"value": "t_struct(structUser)316_storage"
					},
					"t_mapping(t_string_memory_ptr,t_address)": {
						"encoding": "mapping",
						"key": "t_string_memory_ptr",
						"label": "mapping(string => address)",
						"numberOfBytes": "32",
						"value": "t_address"
					},
					"t_mapping(t_string_memory_ptr,t_struct(structProduct)340_storage)": {
						"encoding": "mapping",
						"key": "t_string_memory_ptr",
						"label": "mapping(string => struct coursepaper.structProduct)",
						"numberOfBytes": "32",
						"value": "t_struct(structProduct)340_storage"
					},
					"t_string_memory_ptr": {
						"encoding": "bytes",
						"label": "string",
						"numberOfBytes": "32"
					},
					"t_string_storage": {
						"encoding": "bytes",
						"label": "string",
						"numberOfBytes": "32"
					},
					"t_struct(complaintBook)303_storage": {
						"encoding": "inplace",
						"label": "struct coursepaper.complaintBook",
						"members": [
							{
								"astId": 293,
								"contract": "Documents/GitHub/Store-system-with-feedback/main.sol:coursepaper",
								"label": "shop",
								"offset": 0,
								"slot": "0",
								"type": "t_string_storage"
							},
							{
								"astId": 295,
								"contract": "Documents/GitHub/Store-system-with-feedback/main.sol:coursepaper",
								"label": "userName",
								"offset": 0,
								"slot": "1",
								"type": "t_string_storage"
							},
							{
								"astId": 297,
								"contract": "Documents/GitHub/Store-system-with-feedback/main.sol:coursepaper",
								"label": "feedback",
								"offset": 0,
								"slot": "2",
								"type": "t_string_storage"
							},
							{
								"astId": 299,
								"contract": "Documents/GitHub/Store-system-with-feedback/main.sol:coursepaper",
								"label": "rating",
								"offset": 0,
								"slot": "3",
								"type": "t_uint256"
							},
							{
								"astId": 302,
								"contract": "Documents/GitHub/Store-system-with-feedback/main.sol:coursepaper",
								"label": "comments",
								"offset": 0,
								"slot": "4",
								"type": "t_array(t_string_storage)dyn_storage"
							}
						],
						"numberOfBytes": "160"
					},
					"t_struct(structProduct)340_storage": {
						"encoding": "inplace",
						"label": "struct coursepaper.structProduct",
						"members": [
							{
								"astId": 333,
								"contract": "Documents/GitHub/Store-system-with-feedback/main.sol:coursepaper",
								"label": "shop",
								"offset": 0,
								"slot": "0",
								"type": "t_address"
							},
							{
								"astId": 335,
								"contract": "Documents/GitHub/Store-system-with-feedback/main.sol:coursepaper",
								"label": "description",
								"offset": 0,
								"slot": "1",
								"type": "t_string_storage"
							},
							{
								"astId": 337,
								"contract": "Documents/GitHub/Store-system-with-feedback/main.sol:coursepaper",
								"label": "price",
								"offset": 0,
								"slot": "2",
								"type": "t_uint256"
							},
							{
								"astId": 339,
								"contract": "Documents/GitHub/Store-system-with-feedback/main.sol:coursepaper",
								"label": "id",
								"offset": 0,
								"slot": "3",
								"type": "t_uint256"
							}
						],
						"numberOfBytes": "128"
					},
					"t_struct(structShop)279_storage": {
						"encoding": "inplace",
						"label": "struct coursepaper.structShop",
						"members": [
							{
								"astId": 266,
								"contract": "Documents/GitHub/Store-system-with-feedback/main.sol:coursepaper",
								"label": "shopName",
								"offset": 0,
								"slot": "0",
								"type": "t_string_storage"
							},
							{
								"astId": 268,
								"contract": "Documents/GitHub/Store-system-with-feedback/main.sol:coursepaper",
								"label": "password",
								"offset": 0,
								"slot": "1",
								"type": "t_bytes32"
							},
							{
								"astId": 270,
								"contract": "Documents/GitHub/Store-system-with-feedback/main.sol:coursepaper",
								"label": "role",
								"offset": 0,
								"slot": "2",
								"type": "t_uint256"
							},
							{
								"astId": 272,
								"contract": "Documents/GitHub/Store-system-with-feedback/main.sol:coursepaper",
								"label": "logged",
								"offset": 0,
								"slot": "3",
								"type": "t_bool"
							},
							{
								"astId": 274,
								"contract": "Documents/GitHub/Store-system-with-feedback/main.sol:coursepaper",
								"label": "number",
								"offset": 0,
								"slot": "4",
								"type": "t_string_storage"
							},
							{
								"astId": 276,
								"contract": "Documents/GitHub/Store-system-with-feedback/main.sol:coursepaper",
								"label": "city",
								"offset": 0,
								"slot": "5",
								"type": "t_string_storage"
							},
							{
								"astId": 278,
								"contract": "Documents/GitHub/Store-system-with-feedback/main.sol:coursepaper",
								"label": "rating",
								"offset": 0,
								"slot": "6",
								"type": "t_uint256"
							}
						],
						"numberOfBytes": "224"
					},
					"t_struct(structStatusMarriage)379_storage": {
						"encoding": "inplace",
						"label": "struct coursepaper.structStatusMarriage",
						"members": [
							{
								"astId": 374,
								"contract": "Documents/GitHub/Store-system-with-feedback/main.sol:coursepaper",
								"label": "userLogin",
								"offset": 0,
								"slot": "0",
								"type": "t_address"
							},
							{
								"astId": 376,
								"contract": "Documents/GitHub/Store-system-with-feedback/main.sol:coursepaper",
								"label": "titleProduct",
								"offset": 0,
								"slot": "1",
								"type": "t_string_storage"
							},
							{
								"astId": 378,
								"contract": "Documents/GitHub/Store-system-with-feedback/main.sol:coursepaper",
								"label": "status",
								"offset": 0,
								"slot": "2",
								"type": "t_bool"
							}
						],
						"numberOfBytes": "96"
					},
					"t_struct(structStatusPurchase)357_storage": {
						"encoding": "inplace",
						"label": "struct coursepaper.structStatusPurchase",
						"members": [
							{
								"astId": 350,
								"contract": "Documents/GitHub/Store-system-with-feedback/main.sol:coursepaper",
								"label": "userLogin",
								"offset": 0,
								"slot": "0",
								"type": "t_address"
							},
							{
								"astId": 352,
								"contract": "Documents/GitHub/Store-system-with-feedback/main.sol:coursepaper",
								"label": "titleProduct",
								"offset": 0,
								"slot": "1",
								"type": "t_string_storage"
							},
							{
								"astId": 354,
								"contract": "Documents/GitHub/Store-system-with-feedback/main.sol:coursepaper",
								"label": "price",
								"offset": 0,
								"slot": "2",
								"type": "t_uint256"
							},
							{
								"astId": 356,
								"contract": "Documents/GitHub/Store-system-with-feedback/main.sol:coursepaper",
								"label": "status",
								"offset": 0,
								"slot": "3",
								"type": "t_bool"
							}
						],
						"numberOfBytes": "128"
					},
					"t_struct(structStatusReturn)368_storage": {
						"encoding": "inplace",
						"label": "struct coursepaper.structStatusReturn",
						"members": [
							{
								"astId": 363,
								"contract": "Documents/GitHub/Store-system-with-feedback/main.sol:coursepaper",
								"label": "userLogin",
								"offset": 0,
								"slot": "0",
								"type": "t_address"
							},
							{
								"astId": 365,
								"contract": "Documents/GitHub/Store-system-with-feedback/main.sol:coursepaper",
								"label": "titleProduct",
								"offset": 0,
								"slot": "1",
								"type": "t_string_storage"
							},
							{
								"astId": 367,
								"contract": "Documents/GitHub/Store-system-with-feedback/main.sol:coursepaper",
								"label": "status",
								"offset": 0,
								"slot": "2",
								"type": "t_bool"
							}
						],
						"numberOfBytes": "96"
					},
					"t_struct(structUser)316_storage": {
						"encoding": "inplace",
						"label": "struct coursepaper.structUser",
						"members": [
							{
								"astId": 309,
								"contract": "Documents/GitHub/Store-system-with-feedback/main.sol:coursepaper",
								"label": "userName",
								"offset": 0,
								"slot": "0",
								"type": "t_string_storage"
							},
							{
								"astId": 311,
								"contract": "Documents/GitHub/Store-system-with-feedback/main.sol:coursepaper",
								"label": "password",
								"offset": 0,
								"slot": "1",
								"type": "t_bytes32"
							},
							{
								"astId": 313,
								"contract": "Documents/GitHub/Store-system-with-feedback/main.sol:coursepaper",
								"label": "role",
								"offset": 0,
								"slot": "2",
								"type": "t_uint256"
							},
							{
								"astId": 315,
								"contract": "Documents/GitHub/Store-system-with-feedback/main.sol:coursepaper",
								"label": "logged",
								"offset": 0,
								"slot": "3",
								"type": "t_bool"
							}
						],
						"numberOfBytes": "128"
					},
					"t_uint256": {
						"encoding": "inplace",
						"label": "uint256",
						"numberOfBytes": "32"
					}
				}
			},
			"userdoc": {
				"kind": "user",
				"methods": {},
				"version": 1
			}
		}
	}
}