{
	"Documents/GitHub/Store-system-with-feedback/main.sol": {
		"coursepaper": {
			"abi": [
				{
					"inputs": [],
					"stateMutability": "nonpayable",
					"type": "constructor"
				},
				{
					"inputs": [
						{
							"internalType": "uint256",
							"name": "idMarriageRegistration",
							"type": "uint256"
						},
						{
							"internalType": "bool",
							"name": "confirmation",
							"type": "bool"
						}
					],
					"name": "MarriageRegistration",
					"outputs": [],
					"stateMutability": "nonpayable",
					"type": "function"
				},
				{
					"inputs": [
						{
							"internalType": "uint256",
							"name": "idPurchase",
							"type": "uint256"
						},
						{
							"internalType": "bool",
							"name": "confirmation",
							"type": "bool"
						}
					],
					"name": "acceptPurchase",
					"outputs": [],
					"stateMutability": "nonpayable",
					"type": "function"
				},
				{
					"inputs": [
						{
							"internalType": "uint256",
							"name": "idReturn",
							"type": "uint256"
						},
						{
							"internalType": "bool",
							"name": "confirmation",
							"type": "bool"
						}
					],
					"name": "acceptReturn",
					"outputs": [],
					"stateMutability": "nonpayable",
					"type": "function"
				},
				{
					"inputs": [
						{
							"internalType": "string",
							"name": "title",
							"type": "string"
						},
						{
							"internalType": "uint256",
							"name": "price",
							"type": "uint256"
						},
						{
							"internalType": "string",
							"name": "description",
							"type": "string"
						}
					],
					"name": "addProductShop",
					"outputs": [],
					"stateMutability": "nonpayable",
					"type": "function"
				},
				{
					"inputs": [
						{
							"internalType": "string",
							"name": "login",
							"type": "string"
						}
					],
					"name": "check_logged_shop",
					"outputs": [
						{
							"internalType": "bool",
							"name": "",
							"type": "bool"
						}
					],
					"stateMutability": "view",
					"type": "function"
				},
				{
					"inputs": [
						{
							"internalType": "string",
							"name": "login",
							"type": "string"
						}
					],
					"name": "check_logged_user",
					"outputs": [
						{
							"internalType": "bool",
							"name": "",
							"type": "bool"
						}
					],
					"stateMutability": "view",
					"type": "function"
				},
				{
					"inputs": [
						{
							"internalType": "address",
							"name": "addr",
							"type": "address"
						},
						{
							"internalType": "string",
							"name": "login",
							"type": "string"
						},
						{
							"internalType": "bytes32",
							"name": "password",
							"type": "bytes32"
						}
					],
					"name": "create_user",
					"outputs": [],
					"stateMutability": "nonpayable",
					"type": "function"
				},
				{
					"inputs": [],
					"name": "getProductList",
					"outputs": [
						{
							"internalType": "string[]",
							"name": "",
							"type": "string[]"
						}
					],
					"stateMutability": "view",
					"type": "function"
				},
				{
					"inputs": [],
					"name": "getShopList",
					"outputs": [
						{
							"internalType": "string[]",
							"name": "",
							"type": "string[]"
						}
					],
					"stateMutability": "view",
					"type": "function"
				},
				{
					"inputs": [
						{
							"internalType": "string",
							"name": "shopName",
							"type": "string"
						}
					],
					"name": "getStoryRating",
					"outputs": [
						{
							"internalType": "uint256",
							"name": "",
							"type": "uint256"
						}
					],
					"stateMutability": "view",
					"type": "function"
				},
				{
					"inputs": [
						{
							"internalType": "string",
							"name": "login",
							"type": "string"
						}
					],
					"name": "get_address",
					"outputs": [
						{
							"internalType": "address",
							"name": "",
							"type": "address"
						}
					],
					"stateMutability": "view",
					"type": "function"
				},
				{
					"inputs": [
						{
							"internalType": "string",
							"name": "password",
							"type": "string"
						}
					],
					"name": "get_hash",
					"outputs": [
						{
							"internalType": "bytes32",
							"name": "",
							"type": "bytes32"
						}
					],
					"stateMutability": "pure",
					"type": "function"
				},
				{
					"inputs": [
						{
							"internalType": "string",
							"name": "login",
							"type": "string"
						}
					],
					"name": "get_role_shop",
					"outputs": [
						{
							"internalType": "uint256",
							"name": "",
							"type": "uint256"
						}
					],
					"stateMutability": "view",
					"type": "function"
				},
				{
					"inputs": [
						{
							"internalType": "string",
							"name": "login",
							"type": "string"
						}
					],
					"name": "get_role_user",
					"outputs": [
						{
							"internalType": "uint256",
							"name": "",
							"type": "uint256"
						}
					],
					"stateMutability": "view",
					"type": "function"
				},
				{
					"inputs": [
						{
							"internalType": "string",
							"name": "userName",
							"type": "string"
						},
						{
							"internalType": "string[]",
							"name": "comment",
							"type": "string[]"
						}
					],
					"name": "leaveComment",
					"outputs": [],
					"stateMutability": "nonpayable",
					"type": "function"
				},
				{
					"inputs": [
						{
							"internalType": "string",
							"name": "shop",
							"type": "string"
						},
						{
							"internalType": "string",
							"name": "feedback",
							"type": "string"
						},
						{
							"internalType": "uint256",
							"name": "rating",
							"type": "uint256"
						}
					],
					"name": "leaveFeedback",
					"outputs": [],
					"stateMutability": "nonpayable",
					"type": "function"
				},
				{
					"inputs": [
						{
							"internalType": "string",
							"name": "login",
							"type": "string"
						},
						{
							"internalType": "bytes32",
							"name": "password",
							"type": "bytes32"
						}
					],
					"name": "login_shop",
					"outputs": [],
					"stateMutability": "nonpayable",
					"type": "function"
				},
				{
					"inputs": [
						{
							"internalType": "string",
							"name": "login",
							"type": "string"
						},
						{
							"internalType": "bytes32",
							"name": "password",
							"type": "bytes32"
						}
					],
					"name": "login_user",
					"outputs": [],
					"stateMutability": "nonpayable",
					"type": "function"
				},
				{
					"inputs": [
						{
							"internalType": "string",
							"name": "titleProduct",
							"type": "string"
						}
					],
					"name": "productMarriageRegistration",
					"outputs": [],
					"stateMutability": "nonpayable",
					"type": "function"
				},
				{
					"inputs": [
						{
							"internalType": "string",
							"name": "titleProduct",
							"type": "string"
						}
					],
					"name": "productPurchases",
					"outputs": [],
					"stateMutability": "nonpayable",
					"type": "function"
				},
				{
					"inputs": [
						{
							"internalType": "string",
							"name": "titleProduct",
							"type": "string"
						}
					],
					"name": "productReturn",
					"outputs": [],
					"stateMutability": "nonpayable",
					"type": "function"
				},
				{
					"inputs": [
						{
							"internalType": "string",
							"name": "",
							"type": "string"
						}
					],
					"name": "shopLists",
					"outputs": [
						{
							"internalType": "address",
							"name": "",
							"type": "address"
						}
					],
					"stateMutability": "view",
					"type": "function"
				},
				{
					"inputs": [
						{
							"internalType": "uint256",
							"name": "",
							"type": "uint256"
						}
					],
					"name": "structMarriageRegistrations",
					"outputs": [
						{
							"internalType": "address",
							"name": "userLogin",
							"type": "address"
						},
						{
							"internalType": "string",
							"name": "titleProduct",
							"type": "string"
						},
						{
							"internalType": "bool",
							"name": "status",
							"type": "bool"
						}
					],
					"stateMutability": "view",
					"type": "function"
				},
				{
					"inputs": [
						{
							"internalType": "string",
							"name": "",
							"type": "string"
						}
					],
					"name": "structProducts",
					"outputs": [
						{
							"internalType": "address",
							"name": "shop",
							"type": "address"
						},
						{
							"internalType": "string",
							"name": "description",
							"type": "string"
						},
						{
							"internalType": "uint256",
							"name": "price",
							"type": "uint256"
						},
						{
							"internalType": "uint256",
							"name": "id",
							"type": "uint256"
						}
					],
					"stateMutability": "view",
					"type": "function"
				},
				{
					"inputs": [
						{
							"internalType": "uint256",
							"name": "",
							"type": "uint256"
						}
					],
					"name": "structStatusPurchases",
					"outputs": [
						{
							"internalType": "address",
							"name": "userLogin",
							"type": "address"
						},
						{
							"internalType": "string",
							"name": "titleProduct",
							"type": "string"
						},
						{
							"internalType": "bool",
							"name": "status",
							"type": "bool"
						}
					],
					"stateMutability": "view",
					"type": "function"
				},
				{
					"inputs": [
						{
							"internalType": "uint256",
							"name": "",
							"type": "uint256"
						}
					],
					"name": "structStatusReturns",
					"outputs": [
						{
							"internalType": "address",
							"name": "userLogin",
							"type": "address"
						},
						{
							"internalType": "string",
							"name": "titleProduct",
							"type": "string"
						},
						{
							"internalType": "bool",
							"name": "status",
							"type": "bool"
						}
					],
					"stateMutability": "view",
					"type": "function"
				},
				{
					"inputs": [
						{
							"internalType": "string",
							"name": "",
							"type": "string"
						}
					],
					"name": "structUserLogins",
					"outputs": [
						{
							"internalType": "address",
							"name": "",
							"type": "address"
						}
					],
					"stateMutability": "view",
					"type": "function"
				},
				{
					"inputs": [
						{
							"internalType": "address",
							"name": "",
							"type": "address"
						}
					],
					"name": "structUsers",
					"outputs": [
						{
							"internalType": "string",
							"name": "userName",
							"type": "string"
						},
						{
							"internalType": "bytes32",
							"name": "password",
							"type": "bytes32"
						},
						{
							"internalType": "uint256",
							"name": "ballance",
							"type": "uint256"
						},
						{
							"internalType": "uint256",
							"name": "role",
							"type": "uint256"
						},
						{
							"internalType": "bool",
							"name": "logged",
							"type": "bool"
						}
					],
					"stateMutability": "view",
					"type": "function"
				}
			],
			"devdoc": {
				"kind": "dev",
				"methods": {},
				"version": 1
			},
			"evm": {
				"assembly": "    /* \"Documents/GitHub/Store-system-with-feedback/main.sol\":74:10648  contract coursepaper {\r... */\n  mstore(0x40, 0x80)\n    /* \"Documents/GitHub/Store-system-with-feedback/main.sol\":3982:3983  0 */\n  0x00\n    /* \"Documents/GitHub/Store-system-with-feedback/main.sol\":3947:3983  uint256 addProductShop_idProduct = 0 */\n  0x0d\n  sstore\n    /* \"Documents/GitHub/Store-system-with-feedback/main.sol\":129:944  constructor() public {\r... */\n  callvalue\n  dup1\n  iszero\n  tag_1\n  jumpi\n  0x00\n  dup1\n  revert\ntag_1:\n  pop\n    /* \"Documents/GitHub/Store-system-with-feedback/main.sol\":232:299  structShop(\"Beer\", get_hash(\"1\"), 1000, 3, false, \"1\", \"Moscow\", 0) */\n  mload(0x40)\n  dup1\n  0x0100\n  add\n  0x40\n  mstore\n  dup1\n  mload(0x40)\n  dup1\n  0x40\n  add\n  0x40\n  mstore\n  dup1\n  0x04\n  dup2\n  mstore\n  0x20\n  add\n  shl(0xe1, 0x2132b2b9)\n  dup2\n  mstore\n  pop\n  dup2\n  mstore\n  0x20\n  add\n    /* \"Documents/GitHub/Store-system-with-feedback/main.sol\":251:264  get_hash(\"1\") */\n  tag_4\n  mload(0x40)\n  dup1\n  0x40\n  add\n  0x40\n  mstore\n  dup1\n  0x01\n  dup2\n  mstore\n  0x20\n  add\n  shl(0xf8, 0x31)\n  dup2\n  mstore\n  pop\n    /* \"Documents/GitHub/Store-system-with-feedback/main.sol\":251:259  get_hash */\n  shl(0x20, tag_5)\n    /* \"Documents/GitHub/Store-system-with-feedback/main.sol\":251:264  get_hash(\"1\") */\n  0x20\n  shr\n  jump\t// in\ntag_4:\n    /* \"Documents/GitHub/Store-system-with-feedback/main.sol\":232:299  structShop(\"Beer\", get_hash(\"1\"), 1000, 3, false, \"1\", \"Moscow\", 0) */\n  dup2\n  mstore\n    /* \"Documents/GitHub/Store-system-with-feedback/main.sol\":266:270  1000 */\n  0x03e8\n    /* \"Documents/GitHub/Store-system-with-feedback/main.sol\":232:299  structShop(\"Beer\", get_hash(\"1\"), 1000, 3, false, \"1\", \"Moscow\", 0) */\n  0x20\n  dup1\n  dup4\n  add\n  swap2\n  swap1\n  swap2\n  mstore\n    /* \"Documents/GitHub/Store-system-with-feedback/main.sol\":272:273  3 */\n  0x03\n    /* \"Documents/GitHub/Store-system-with-feedback/main.sol\":232:299  structShop(\"Beer\", get_hash(\"1\"), 1000, 3, false, \"1\", \"Moscow\", 0) */\n  0x40\n  dup1\n  dup5\n  add\n  swap2\n  swap1\n  swap2\n  mstore\n  0x00\n  0x60\n  dup5\n  add\n  dup2\n  swap1\n  mstore\n  dup2\n  mload\n  dup1\n  dup4\n  add\n  dup4\n  mstore\n  0x01\n  dup2\n  mstore\n  shl(0xf8, 0x31)\n  dup2\n  dup6\n  add\n  mstore\n  0x80\n  dup6\n  add\n  mstore\n  dup2\n  mload\n  dup1\n  dup4\n  add\n  swap1\n  swap3\n  mstore\n  0x06\n  dup3\n  mstore\n  shl(0xd0, 0x4d6f73636f77)\n  dup3\n  dup5\n  add\n  mstore\n  0xa0\n  dup5\n  add\n  swap2\n  swap1\n  swap2\n  mstore\n  0xc0\n  swap1\n  swap3\n  add\n  dup3\n  swap1\n  mstore\n    /* \"Documents/GitHub/Store-system-with-feedback/main.sol\":186:228  0x22140e5EEE5a0341a107bd6A65ee0F5BB72DEb90 */\n  0x22140e5eee5a0341a107bd6a65ee0f5bb72deb90\n    /* \"Documents/GitHub/Store-system-with-feedback/main.sol\":180:229  shops[0x22140e5EEE5a0341a107bd6A65ee0F5BB72DEb90] */\n  dup3\n  mstore\n  swap1\n  dup2\n  mstore\n    /* \"Documents/GitHub/Store-system-with-feedback/main.sol\":180:299  shops[0x22140e5EEE5a0341a107bd6A65ee0F5BB72DEb90] = structShop(\"Beer\", get_hash(\"1\"), 1000, 3, false, \"1\", \"Moscow\", 0) */\n  dup2\n  mload\n  dup1\n  mload\n  0x00\n  dup1\n  mload\n  0x20\n  data_8993e1cd58841905be2f38dff5727bfce5465d113cd407e0076bae0c6cf830da\n  dup4\n  codecopy\n  dup2\n  mload\n  swap2\n  mstore\n    /* \"Documents/GitHub/Store-system-with-feedback/main.sol\":180:229  shops[0x22140e5EEE5a0341a107bd6A65ee0F5BB72DEb90] */\n  swap3\n    /* \"Documents/GitHub/Store-system-with-feedback/main.sol\":180:299  shops[0x22140e5EEE5a0341a107bd6A65ee0F5BB72DEb90] = structShop(\"Beer\", get_hash(\"1\"), 1000, 3, false, \"1\", \"Moscow\", 0) */\n  tag_6\n  swap3\n    /* \"Documents/GitHub/Store-system-with-feedback/main.sol\":180:229  shops[0x22140e5EEE5a0341a107bd6A65ee0F5BB72DEb90] */\n  dup5\n  swap3\n    /* \"Documents/GitHub/Store-system-with-feedback/main.sol\":180:299  shops[0x22140e5EEE5a0341a107bd6A65ee0F5BB72DEb90] = structShop(\"Beer\", get_hash(\"1\"), 1000, 3, false, \"1\", \"Moscow\", 0) */\n  swap2\n  add\n  swap1\n  tag_7\n  jump\t// in\ntag_6:\n  pop\n  0x20\n  dup3\n  dup2\n  add\n  mload\n  0x01\n  dup4\n  add\n  sstore\n  0x40\n  dup4\n  add\n  mload\n  0x02\n  dup4\n  add\n  sstore\n  0x60\n  dup4\n  add\n  mload\n  0x03\n  dup4\n  add\n  sstore\n  0x80\n  dup4\n  add\n  mload\n  0x04\n  dup4\n  add\n  dup1\n  sload\n  not(0xff)\n  and\n  swap2\n  iszero\n  iszero\n  swap2\n  swap1\n  swap2\n  or\n  swap1\n  sstore\n  0xa0\n  dup4\n  add\n  mload\n  dup1\n  mload\n  tag_8\n  swap3\n  0x05\n  dup6\n  add\n  swap3\n  add\n  swap1\n  tag_7\n  jump\t// in\ntag_8:\n  pop\n  0xc0\n  dup3\n  add\n  mload\n  dup1\n  mload\n  tag_9\n  swap2\n  0x06\n  dup5\n  add\n  swap2\n  0x20\n  swap1\n  swap2\n  add\n  swap1\n  tag_7\n  jump\t// in\ntag_9:\n  pop\n  0xe0\n  swap2\n  swap1\n  swap2\n  add\n  mload\n  0x07\n  swap1\n  swap2\n  add\n  sstore\n    /* \"Documents/GitHub/Store-system-with-feedback/main.sol\":324:329  shops */\n  0x00\n    /* \"Documents/GitHub/Store-system-with-feedback/main.sol\":324:373  shops[0x22140e5EEE5a0341a107bd6A65ee0F5BB72DEb90] */\n  0x20\n  dup2\n  swap1\n  mstore\n    /* \"Documents/GitHub/Store-system-with-feedback/main.sol\":310:318  shopList */\n  0x02\n    /* \"Documents/GitHub/Store-system-with-feedback/main.sol\":310:383  shopList.push(shops[0x22140e5EEE5a0341a107bd6A65ee0F5BB72DEb90].shopName) */\n  dup1\n  sload\n  0x01\n  dup2\n  add\n  dup3\n  sstore\n  swap2\n  mstore\n  0x00\n  dup1\n  mload\n  0x20\n  data_8993e1cd58841905be2f38dff5727bfce5465d113cd407e0076bae0c6cf830da\n  dup4\n  codecopy\n  dup2\n  mload\n  swap2\n  mstore\n  dup1\n  sload\n  0x00\n  dup1\n  mload\n  0x20\n  data_1ab0c6948a275349ae45a06aad66a8bd65ac18074615d53676c09b67809099e0\n  dup4\n  codecopy\n  dup2\n  mload\n  swap2\n  mstore\n  swap1\n  swap3\n  add\n  swap2\n  tag_11\n  swap1\n  tag_12\n  jump\t// in\ntag_11:\n  tag_13\n  swap3\n  swap2\n  swap1\n  tag_14\n  jump\t// in\ntag_13:\n  pop\n    /* \"Documents/GitHub/Store-system-with-feedback/main.sol\":446:520  structShop(\"Clothes\", get_hash(\"1\"), 1000, 3, false, \"2\", \"Petersburg\", 0) */\n  mload(0x40)\n  dup1\n  0x0100\n  add\n  0x40\n  mstore\n  dup1\n  mload(0x40)\n  dup1\n  0x40\n  add\n  0x40\n  mstore\n  dup1\n  0x07\n  dup2\n  mstore\n  0x20\n  add\n  shl(0xc8, 0x436c6f74686573)\n  dup2\n  mstore\n  pop\n  dup2\n  mstore\n  0x20\n  add\n    /* \"Documents/GitHub/Store-system-with-feedback/main.sol\":468:481  get_hash(\"1\") */\n  tag_15\n  mload(0x40)\n  dup1\n  0x40\n  add\n  0x40\n  mstore\n  dup1\n  0x01\n  dup2\n  mstore\n  0x20\n  add\n  shl(0xf8, 0x31)\n  dup2\n  mstore\n  pop\n    /* \"Documents/GitHub/Store-system-with-feedback/main.sol\":468:476  get_hash */\n  shl(0x20, tag_5)\n    /* \"Documents/GitHub/Store-system-with-feedback/main.sol\":468:481  get_hash(\"1\") */\n  0x20\n  shr\n  jump\t// in\ntag_15:\n    /* \"Documents/GitHub/Store-system-with-feedback/main.sol\":446:520  structShop(\"Clothes\", get_hash(\"1\"), 1000, 3, false, \"2\", \"Petersburg\", 0) */\n  dup2\n  mstore\n    /* \"Documents/GitHub/Store-system-with-feedback/main.sol\":483:487  1000 */\n  0x03e8\n    /* \"Documents/GitHub/Store-system-with-feedback/main.sol\":446:520  structShop(\"Clothes\", get_hash(\"1\"), 1000, 3, false, \"2\", \"Petersburg\", 0) */\n  0x20\n  dup1\n  dup4\n  add\n  swap2\n  swap1\n  swap2\n  mstore\n    /* \"Documents/GitHub/Store-system-with-feedback/main.sol\":489:490  3 */\n  0x03\n    /* \"Documents/GitHub/Store-system-with-feedback/main.sol\":446:520  structShop(\"Clothes\", get_hash(\"1\"), 1000, 3, false, \"2\", \"Petersburg\", 0) */\n  0x40\n  dup1\n  dup5\n  add\n  swap2\n  swap1\n  swap2\n  mstore\n  0x00\n  0x60\n  dup5\n  add\n  dup2\n  swap1\n  mstore\n  dup2\n  mload\n  dup1\n  dup4\n  add\n  dup4\n  mstore\n  0x01\n  dup2\n  mstore\n  shl(0xf9, 0x19)\n  dup2\n  dup6\n  add\n  mstore\n  0x80\n  dup6\n  add\n  mstore\n  dup2\n  mload\n  dup1\n  dup4\n  add\n  swap1\n  swap3\n  mstore\n  0x0a\n  dup3\n  mstore\n  shl(0xb0, 0x50657465727362757267)\n  dup3\n  dup5\n  add\n  mstore\n  0xa0\n  dup5\n  add\n  swap2\n  swap1\n  swap2\n  mstore\n  0xc0\n  swap1\n  swap3\n  add\n  dup3\n  swap1\n  mstore\n    /* \"Documents/GitHub/Store-system-with-feedback/main.sol\":400:442  0x32BBfd99DFCF2a15c1D278a19856683930A8be0B */\n  0x32bbfd99dfcf2a15c1d278a19856683930a8be0b\n    /* \"Documents/GitHub/Store-system-with-feedback/main.sol\":394:443  shops[0x32BBfd99DFCF2a15c1D278a19856683930A8be0B] */\n  dup3\n  mstore\n  swap1\n  dup2\n  mstore\n    /* \"Documents/GitHub/Store-system-with-feedback/main.sol\":394:520  shops[0x32BBfd99DFCF2a15c1D278a19856683930A8be0B] = structShop(\"Clothes\", get_hash(\"1\"), 1000, 3, false, \"2\", \"Petersburg\", 0) */\n  dup2\n  mload\n  dup1\n  mload\n  0x00\n  dup1\n  mload\n  0x20\n  data_f4d17a50b75ba59f6ac3e704dcdf75304eb544678a920cb7cfcd9a84a7945e49\n  dup4\n  codecopy\n  dup2\n  mload\n  swap2\n  mstore\n    /* \"Documents/GitHub/Store-system-with-feedback/main.sol\":394:443  shops[0x32BBfd99DFCF2a15c1D278a19856683930A8be0B] */\n  swap3\n    /* \"Documents/GitHub/Store-system-with-feedback/main.sol\":394:520  shops[0x32BBfd99DFCF2a15c1D278a19856683930A8be0B] = structShop(\"Clothes\", get_hash(\"1\"), 1000, 3, false, \"2\", \"Petersburg\", 0) */\n  tag_16\n  swap3\n    /* \"Documents/GitHub/Store-system-with-feedback/main.sol\":394:443  shops[0x32BBfd99DFCF2a15c1D278a19856683930A8be0B] */\n  dup5\n  swap3\n    /* \"Documents/GitHub/Store-system-with-feedback/main.sol\":394:520  shops[0x32BBfd99DFCF2a15c1D278a19856683930A8be0B] = structShop(\"Clothes\", get_hash(\"1\"), 1000, 3, false, \"2\", \"Petersburg\", 0) */\n  swap2\n  add\n  swap1\n  tag_7\n  jump\t// in\ntag_16:\n  pop\n  0x20\n  dup3\n  dup2\n  add\n  mload\n  0x01\n  dup4\n  add\n  sstore\n  0x40\n  dup4\n  add\n  mload\n  0x02\n  dup4\n  add\n  sstore\n  0x60\n  dup4\n  add\n  mload\n  0x03\n  dup4\n  add\n  sstore\n  0x80\n  dup4\n  add\n  mload\n  0x04\n  dup4\n  add\n  dup1\n  sload\n  not(0xff)\n  and\n  swap2\n  iszero\n  iszero\n  swap2\n  swap1\n  swap2\n  or\n  swap1\n  sstore\n  0xa0\n  dup4\n  add\n  mload\n  dup1\n  mload\n  tag_17\n  swap3\n  0x05\n  dup6\n  add\n  swap3\n  add\n  swap1\n  tag_7\n  jump\t// in\ntag_17:\n  pop\n  0xc0\n  dup3\n  add\n  mload\n  dup1\n  mload\n  tag_18\n  swap2\n  0x06\n  dup5\n  add\n  swap2\n  0x20\n  swap1\n  swap2\n  add\n  swap1\n  tag_7\n  jump\t// in\ntag_18:\n  pop\n  0xe0\n  swap2\n  swap1\n  swap2\n  add\n  mload\n  0x07\n  swap1\n  swap2\n  add\n  sstore\n    /* \"Documents/GitHub/Store-system-with-feedback/main.sol\":545:550  shops */\n  0x00\n    /* \"Documents/GitHub/Store-system-with-feedback/main.sol\":545:594  shops[0x32BBfd99DFCF2a15c1D278a19856683930A8be0B] */\n  0x20\n  dup2\n  swap1\n  mstore\n    /* \"Documents/GitHub/Store-system-with-feedback/main.sol\":531:539  shopList */\n  0x02\n    /* \"Documents/GitHub/Store-system-with-feedback/main.sol\":531:604  shopList.push(shops[0x32BBfd99DFCF2a15c1D278a19856683930A8be0B].shopName) */\n  dup1\n  sload\n  0x01\n  dup2\n  add\n  dup3\n  sstore\n  swap2\n  mstore\n  0x00\n  dup1\n  mload\n  0x20\n  data_f4d17a50b75ba59f6ac3e704dcdf75304eb544678a920cb7cfcd9a84a7945e49\n  dup4\n  codecopy\n  dup2\n  mload\n  swap2\n  mstore\n  dup1\n  sload\n  0x00\n  dup1\n  mload\n  0x20\n  data_1ab0c6948a275349ae45a06aad66a8bd65ac18074615d53676c09b67809099e0\n  dup4\n  codecopy\n  dup2\n  mload\n  swap2\n  mstore\n  swap1\n  swap3\n  add\n  swap2\n  tag_20\n  swap1\n  tag_12\n  jump\t// in\ntag_20:\n  tag_21\n  swap3\n  swap2\n  swap1\n  tag_14\n  jump\t// in\ntag_21:\n  pop\n    /* \"Documents/GitHub/Store-system-with-feedback/main.sol\":660:702  0xC152aD455B16d865F2344140dEc6Ea95cb361e8A */\n  0xc152ad455b16d865f2344140dec6ea95cb361e8a\n    /* \"Documents/GitHub/Store-system-with-feedback/main.sol\":633:649  structUserLogins */\n  0x05\n    /* \"Documents/GitHub/Store-system-with-feedback/main.sol\":633:657  structUserLogins[\"Peta\"] */\n  mload(0x40)\n  tag_22\n  swap1\n  shl(0xe0, 0x50657461)\n    /* \"#utility.yul\":649:668   */\n  dup2\n  mstore\n    /* \"#utility.yul\":693:694   */\n  0x04\n    /* \"#utility.yul\":684:695   */\n  add\n  swap1\n    /* \"#utility.yul\":447:701   */\n  jump\n    /* \"Documents/GitHub/Store-system-with-feedback/main.sol\":633:657  structUserLogins[\"Peta\"] */\ntag_22:\n  swap1\n  dup2\n  mstore\n  0x40\n  dup1\n  mload\n  0x20\n  swap3\n  dup2\n  swap1\n  sub\n  dup4\n  add\n  dup2\n  keccak256\n    /* \"Documents/GitHub/Store-system-with-feedback/main.sol\":633:702  structUserLogins[\"Peta\"] = 0xC152aD455B16d865F2344140dEc6Ea95cb361e8A */\n  dup1\n  sload\n  not(sub(shl(0xa0, 0x01), 0x01))\n  and\n  sub(shl(0xa0, 0x01), 0x01)\n  swap6\n  swap1\n  swap6\n  and\n  swap5\n  swap1\n  swap5\n  or\n  swap1\n  swap4\n  sstore\n    /* \"Documents/GitHub/Store-system-with-feedback/main.sol\":771:821  structUser(\"Peta\" , get_hash(\"2\"), 1000, 0, false) */\n  0xe0\n  dup4\n  add\n  dup2\n  mstore\n  0x04\n  0xa0\n  dup5\n  add\n  swap1\n  dup2\n  mstore\n  shl(0xe0, 0x50657461)\n  0xc0\n  dup6\n  add\n  mstore\n  dup4\n  mstore\n    /* \"Documents/GitHub/Store-system-with-feedback/main.sol\":791:804  get_hash(\"2\") */\n  dup1\n  mload\n  dup1\n  dup3\n  add\n  swap1\n  swap2\n  mstore\n  0x01\n  dup2\n  mstore\n  shl(0xf9, 0x19)\n  dup2\n  dup4\n  add\n  mstore\n    /* \"Documents/GitHub/Store-system-with-feedback/main.sol\":771:821  structUser(\"Peta\" , get_hash(\"2\"), 1000, 0, false) */\n  swap1\n  dup3\n  add\n  swap1\n    /* \"Documents/GitHub/Store-system-with-feedback/main.sol\":791:804  get_hash(\"2\") */\n  tag_24\n  swap1\n    /* \"Documents/GitHub/Store-system-with-feedback/main.sol\":791:799  get_hash */\n  tag_5\n    /* \"Documents/GitHub/Store-system-with-feedback/main.sol\":791:804  get_hash(\"2\") */\n  jump\t// in\ntag_24:\n    /* \"Documents/GitHub/Store-system-with-feedback/main.sol\":771:821  structUser(\"Peta\" , get_hash(\"2\"), 1000, 0, false) */\n  dup2\n  mstore\n    /* \"Documents/GitHub/Store-system-with-feedback/main.sol\":806:810  1000 */\n  0x03e8\n    /* \"Documents/GitHub/Store-system-with-feedback/main.sol\":771:821  structUser(\"Peta\" , get_hash(\"2\"), 1000, 0, false) */\n  0x20\n  dup1\n  dup4\n  add\n  swap2\n  swap1\n  swap2\n  mstore\n  0x00\n  0x40\n  dup4\n  add\n  dup2\n  swap1\n  mstore\n  0x60\n  swap1\n  swap3\n  add\n  dup3\n  swap1\n  mstore\n    /* \"Documents/GitHub/Store-system-with-feedback/main.sol\":725:767  0xC152aD455B16d865F2344140dEc6Ea95cb361e8A */\n  0xc152ad455b16d865f2344140dec6ea95cb361e8a\n    /* \"Documents/GitHub/Store-system-with-feedback/main.sol\":713:768  structUsers[0xC152aD455B16d865F2344140dEc6Ea95cb361e8A] */\n  swap1\n  swap2\n  mstore\n    /* \"Documents/GitHub/Store-system-with-feedback/main.sol\":713:724  structUsers */\n  0x04\n    /* \"Documents/GitHub/Store-system-with-feedback/main.sol\":713:768  structUsers[0xC152aD455B16d865F2344140dEc6Ea95cb361e8A] */\n  dup2\n  mstore\n    /* \"Documents/GitHub/Store-system-with-feedback/main.sol\":713:821  structUsers[0xC152aD455B16d865F2344140dEc6Ea95cb361e8A] = structUser(\"Peta\" , get_hash(\"2\"), 1000, 0, false) */\n  dup2\n  mload\n  dup1\n  mload\n    /* \"Documents/GitHub/Store-system-with-feedback/main.sol\":713:768  structUsers[0xC152aD455B16d865F2344140dEc6Ea95cb361e8A] */\n  0x46be32a2e9b8e0f4c8f06b744988be62b4f05119193ea23be26a02d9470d0ccd\n  swap3\n    /* \"Documents/GitHub/Store-system-with-feedback/main.sol\":713:821  structUsers[0xC152aD455B16d865F2344140dEc6Ea95cb361e8A] = structUser(\"Peta\" , get_hash(\"2\"), 1000, 0, false) */\n  tag_25\n  swap3\n    /* \"Documents/GitHub/Store-system-with-feedback/main.sol\":713:768  structUsers[0xC152aD455B16d865F2344140dEc6Ea95cb361e8A] */\n  dup5\n  swap3\n    /* \"Documents/GitHub/Store-system-with-feedback/main.sol\":713:821  structUsers[0xC152aD455B16d865F2344140dEc6Ea95cb361e8A] = structUser(\"Peta\" , get_hash(\"2\"), 1000, 0, false) */\n  swap2\n  add\n  swap1\n  tag_7\n  jump\t// in\ntag_25:\n  pop\n  0x20\n  dup3\n  dup2\n  add\n  mload\n  0x01\n  dup4\n  dup2\n  add\n  swap2\n  swap1\n  swap2\n  sstore\n  0x40\n  dup1\n  dup6\n  add\n  mload\n  0x02\n  dup6\n  add\n  sstore\n  0x60\n  dup6\n  add\n  mload\n  0x03\n  dup6\n  add\n  sstore\n  0x80\n  swap1\n  swap5\n  add\n  mload\n  0x04\n  swap4\n  dup5\n  add\n  dup1\n  sload\n  not(0xff)\n  and\n  swap2\n  iszero\n  iszero\n  swap2\n  swap1\n  swap2\n  or\n  swap1\n  sstore\n    /* \"Documents/GitHub/Store-system-with-feedback/main.sol\":832:847  userLoginsArray */\n  0x06\n    /* \"Documents/GitHub/Store-system-with-feedback/main.sol\":832:860  userLoginsArray.push(\"Peta\") */\n  dup1\n  sload\n  swap2\n  dup3\n  add\n  dup2\n  sstore\n  0x00\n  mstore\n  dup4\n  mload\n  dup1\n  dup6\n  add\n  swap1\n  swap5\n  mstore\n  dup3\n  dup5\n  mstore\n  shl(0xe0, 0x50657461)\n  swap4\n  swap1\n  swap2\n  add\n  swap3\n  dup4\n  mstore\n  tag_27\n  swap3\n  0xf652222313e28459528d920b65115c16c04f3efc82aaedc97be59f3f377c0d3f\n  swap1\n  swap2\n  add\n  swap2\n  tag_7\n  jump\t// in\ntag_27:\n  pop\n    /* \"Documents/GitHub/Store-system-with-feedback/main.sol\":871:887  userAddressArray */\n  0x07\n    /* \"Documents/GitHub/Store-system-with-feedback/main.sol\":871:936  userAddressArray.push(0xC152aD455B16d865F2344140dEc6Ea95cb361e8A) */\n  dup1\n  sload\n  0x01\n  dup2\n  add\n  dup3\n  sstore\n  0x00\n  swap2\n  swap1\n  swap2\n  mstore\n  0xa66cc928b5edb82af9bd49922954155ab7b0942694bea4ce44661d9a8736c688\n  add\n  dup1\n  sload\n  not(sub(shl(0xa0, 0x01), 0x01))\n  and\n    /* \"Documents/GitHub/Store-system-with-feedback/main.sol\":893:935  0xC152aD455B16d865F2344140dEc6Ea95cb361e8A */\n  0xc152ad455b16d865f2344140dec6ea95cb361e8a\n    /* \"Documents/GitHub/Store-system-with-feedback/main.sol\":871:936  userAddressArray.push(0xC152aD455B16d865F2344140dEc6Ea95cb361e8A) */\n  or\n  swap1\n  sstore\n    /* \"Documents/GitHub/Store-system-with-feedback/main.sol\":74:10648  contract coursepaper {\r... */\n  jump(tag_50)\n    /* \"Documents/GitHub/Store-system-with-feedback/main.sol\":1020:1159  function get_hash(string memory password) public pure returns(bytes32) {\r... */\ntag_5:\n    /* \"Documents/GitHub/Store-system-with-feedback/main.sol\":1082:1089  bytes32 */\n  0x00\n    /* \"Documents/GitHub/Store-system-with-feedback/main.sol\":1140:1148  password */\n  dup2\n    /* \"Documents/GitHub/Store-system-with-feedback/main.sol\":1123:1149  abi.encodePacked(password) */\n  add(0x20, mload(0x40))\n  tag_31\n  swap2\n  swap1\n  tag_32\n  jump\t// in\ntag_31:\n  mload(0x40)\n  0x20\n  dup2\n  dup4\n  sub\n  sub\n  dup2\n  mstore\n  swap1\n  0x40\n  mstore\n    /* \"Documents/GitHub/Store-system-with-feedback/main.sol\":1113:1150  keccak256(abi.encodePacked(password)) */\n  dup1\n  mload\n  swap1\n  0x20\n  add\n  keccak256\n    /* \"Documents/GitHub/Store-system-with-feedback/main.sol\":1106:1151  return(keccak256(abi.encodePacked(password))) */\n  swap1\n  pop\n    /* \"Documents/GitHub/Store-system-with-feedback/main.sol\":1020:1159  function get_hash(string memory password) public pure returns(bytes32) {\r... */\n  swap2\n  swap1\n  pop\n  jump\t// out\n    /* \"Documents/GitHub/Store-system-with-feedback/main.sol\":74:10648  contract coursepaper {\r... */\ntag_7:\n  dup3\n  dup1\n  sload\n  tag_33\n  swap1\n  tag_12\n  jump\t// in\ntag_33:\n  swap1\n  0x00\n  mstore\n  keccak256(0x00, 0x20)\n  swap1\n  0x1f\n  add\n  0x20\n  swap1\n  div\n  dup2\n  add\n  swap3\n  dup3\n  tag_35\n  jumpi\n  0x00\n  dup6\n  sstore\n  jump(tag_38)\ntag_35:\n  dup3\n  0x1f\n  lt\n  tag_36\n  jumpi\n  dup1\n  mload\n  not(0xff)\n  and\n  dup4\n  dup1\n  add\n  or\n  dup6\n  sstore\n  jump(tag_38)\ntag_36:\n  dup3\n  dup1\n  add\n  0x01\n  add\n  dup6\n  sstore\n  dup3\n  iszero\n  tag_38\n  jumpi\n  swap2\n  dup3\n  add\ntag_37:\n  dup3\n  dup2\n  gt\n  iszero\n  tag_38\n  jumpi\n  dup3\n  mload\n  dup3\n  sstore\n  swap2\n  0x20\n  add\n  swap2\n  swap1\n  0x01\n  add\n  swap1\n  jump(tag_37)\ntag_38:\n  pop\n  tag_39\n  swap3\n  swap2\n  pop\n  tag_40\n  jump\t// in\ntag_39:\n  pop\n  swap1\n  jump\t// out\ntag_14:\n  dup3\n  dup1\n  sload\n  tag_41\n  swap1\n  tag_12\n  jump\t// in\ntag_41:\n  swap1\n  0x00\n  mstore\n  keccak256(0x00, 0x20)\n  swap1\n  0x1f\n  add\n  0x20\n  swap1\n  div\n  dup2\n  add\n  swap3\n  dup3\n  tag_43\n  jumpi\n  0x00\n  dup6\n  sstore\n  jump(tag_38)\ntag_43:\n  dup3\n  0x1f\n  lt\n  tag_44\n  jumpi\n  dup1\n  sload\n  dup6\n  sstore\n  jump(tag_38)\ntag_44:\n  dup3\n  dup1\n  add\n  0x01\n  add\n  dup6\n  sstore\n  dup3\n  iszero\n  tag_38\n  jumpi\n  0x00\n  mstore\n  keccak256(0x00, 0x20)\n  swap2\n  0x1f\n  add\n  0x20\n  swap1\n  div\n  dup3\n  add\ntag_45:\n  dup3\n  dup2\n  gt\n  iszero\n  tag_38\n  jumpi\n  dup3\n  sload\n  dup3\n  sstore\n  swap2\n  0x01\n  add\n  swap2\n  swap1\n  0x01\n  add\n  swap1\n  jump(tag_45)\ntag_40:\ntag_48:\n  dup1\n  dup3\n  gt\n  iszero\n  tag_39\n  jumpi\n  0x00\n  dup2\n  sstore\n  0x01\n  add\n  jump(tag_48)\n    /* \"#utility.yul\":14:442   */\ntag_32:\n    /* \"#utility.yul\":145:148   */\n  0x00\n    /* \"#utility.yul\":183:189   */\n  dup3\n    /* \"#utility.yul\":177:190   */\n  mload\n    /* \"#utility.yul\":208:209   */\n  0x00\n    /* \"#utility.yul\":218:347   */\ntag_52:\n    /* \"#utility.yul\":232:238   */\n  dup2\n    /* \"#utility.yul\":229:230   */\n  dup2\n    /* \"#utility.yul\":226:239   */\n  lt\n    /* \"#utility.yul\":218:347   */\n  iszero\n  tag_54\n  jumpi\n    /* \"#utility.yul\":330:334   */\n  0x20\n    /* \"#utility.yul\":314:328   */\n  dup2\n  dup7\n  add\n    /* \"#utility.yul\":310:335   */\n  dup2\n  add\n    /* \"#utility.yul\":304:336   */\n  mload\n    /* \"#utility.yul\":291:302   */\n  dup6\n  dup4\n  add\n    /* \"#utility.yul\":284:337   */\n  mstore\n    /* \"#utility.yul\":247:259   */\n  add\n    /* \"#utility.yul\":218:347   */\n  jump(tag_52)\ntag_54:\n    /* \"#utility.yul\":365:371   */\n  dup2\n    /* \"#utility.yul\":362:363   */\n  dup2\n    /* \"#utility.yul\":359:372   */\n  gt\n    /* \"#utility.yul\":356:404   */\n  iszero\n  tag_55\n  jumpi\n    /* \"#utility.yul\":400:401   */\n  0x00\n    /* \"#utility.yul\":391:397   */\n  dup3\n    /* \"#utility.yul\":386:389   */\n  dup6\n    /* \"#utility.yul\":382:398   */\n  add\n    /* \"#utility.yul\":375:402   */\n  mstore\n    /* \"#utility.yul\":356:404   */\ntag_55:\n  pop\n    /* \"#utility.yul\":420:436   */\n  swap2\n  swap1\n  swap2\n  add\n  swap3\n    /* \"#utility.yul\":14:442   */\n  swap2\n  pop\n  pop\n  jump\t// out\n    /* \"#utility.yul\":706:1086   */\ntag_12:\n    /* \"#utility.yul\":785:786   */\n  0x01\n    /* \"#utility.yul\":781:793   */\n  dup2\n  dup2\n  shr\n  swap1\n    /* \"#utility.yul\":828:840   */\n  dup3\n  and\n  dup1\n    /* \"#utility.yul\":849:910   */\n  tag_58\n  jumpi\n    /* \"#utility.yul\":903:907   */\n  0x7f\n    /* \"#utility.yul\":895:901   */\n  dup3\n    /* \"#utility.yul\":891:908   */\n  and\n    /* \"#utility.yul\":881:908   */\n  swap2\n  pop\n    /* \"#utility.yul\":849:910   */\ntag_58:\n    /* \"#utility.yul\":956:958   */\n  0x20\n    /* \"#utility.yul\":948:954   */\n  dup3\n    /* \"#utility.yul\":945:959   */\n  lt\n    /* \"#utility.yul\":925:943   */\n  dup2\n    /* \"#utility.yul\":922:960   */\n  eq\n    /* \"#utility.yul\":919:1080   */\n  iszero\n  tag_59\n  jumpi\n    /* \"#utility.yul\":1002:1012   */\n  0x4e487b71\n    /* \"#utility.yul\":997:1000   */\n  0xe0\n    /* \"#utility.yul\":993:1013   */\n  shl\n    /* \"#utility.yul\":990:991   */\n  0x00\n    /* \"#utility.yul\":983:1014   */\n  mstore\n    /* \"#utility.yul\":1037:1041   */\n  0x22\n    /* \"#utility.yul\":1034:1035   */\n  0x04\n    /* \"#utility.yul\":1027:1042   */\n  mstore\n    /* \"#utility.yul\":1065:1069   */\n  0x24\n    /* \"#utility.yul\":1062:1063   */\n  0x00\n    /* \"#utility.yul\":1055:1070   */\n  revert\n    /* \"#utility.yul\":919:1080   */\ntag_59:\n  pop\n    /* \"#utility.yul\":706:1086   */\n  swap2\n  swap1\n  pop\n  jump\t// out\ntag_50:\n    /* \"Documents/GitHub/Store-system-with-feedback/main.sol\":74:10648  contract coursepaper {\r... */\n  dataSize(sub_0)\n  dup1\n  dataOffset(sub_0)\n  0x00\n  codecopy\n  0x00\n  return\nstop\ndata_1ab0c6948a275349ae45a06aad66a8bd65ac18074615d53676c09b67809099e0 405787fa12a823e0f2b7631cc41b3ba8828b3321ca811111fa75cd3aa3bb5ace\ndata_8993e1cd58841905be2f38dff5727bfce5465d113cd407e0076bae0c6cf830da c49e92deb93ac19463e0f89b887a2ab81c6b5eadf7dc1bc8bd12ce4040f656fc\ndata_f4d17a50b75ba59f6ac3e704dcdf75304eb544678a920cb7cfcd9a84a7945e49 5c83a96f0abbcc4e29b827af3528e41db71dd7823e05e1374cd098351a380d7f\n\nsub_0: assembly {\n        /* \"Documents/GitHub/Store-system-with-feedback/main.sol\":74:10648  contract coursepaper {\r... */\n      mstore(0x40, 0x80)\n      callvalue\n      dup1\n      iszero\n      tag_1\n      jumpi\n      0x00\n      dup1\n      revert\n    tag_1:\n      pop\n      jumpi(tag_2, lt(calldatasize, 0x04))\n      shr(0xe0, calldataload(0x00))\n      dup1\n      0x033ff0b8\n      eq\n      tag_3\n      jumpi\n      dup1\n      0x0c72b1ec\n      eq\n      tag_4\n      jumpi\n      dup1\n      0x0e1c81b2\n      eq\n      tag_5\n      jumpi\n      dup1\n      0x146dc6ed\n      eq\n      tag_6\n      jumpi\n      dup1\n      0x1bbe970a\n      eq\n      tag_7\n      jumpi\n      dup1\n      0x29e795f3\n      eq\n      tag_8\n      jumpi\n      dup1\n      0x2ccdef7c\n      eq\n      tag_9\n      jumpi\n      dup1\n      0x2d4673e3\n      eq\n      tag_10\n      jumpi\n      dup1\n      0x34d2c0ad\n      eq\n      tag_11\n      jumpi\n      dup1\n      0x3b84aedc\n      eq\n      tag_12\n      jumpi\n      dup1\n      0x5bbc9a3f\n      eq\n      tag_13\n      jumpi\n      dup1\n      0x5bdb63fa\n      eq\n      tag_14\n      jumpi\n      dup1\n      0x6ba44d3c\n      eq\n      tag_15\n      jumpi\n      dup1\n      0x6c05dd1d\n      eq\n      tag_16\n      jumpi\n      dup1\n      0x775eb9e6\n      eq\n      tag_17\n      jumpi\n      dup1\n      0x7ddb273d\n      eq\n      tag_18\n      jumpi\n      dup1\n      0x845952a8\n      eq\n      tag_19\n      jumpi\n      dup1\n      0x961865f0\n      eq\n      tag_20\n      jumpi\n      dup1\n      0xa985036d\n      eq\n      tag_21\n      jumpi\n      dup1\n      0xa9f9482b\n      eq\n      tag_22\n      jumpi\n      dup1\n      0xbbd43363\n      eq\n      tag_23\n      jumpi\n      dup1\n      0xc178b9af\n      eq\n      tag_24\n      jumpi\n      dup1\n      0xc4957fa0\n      eq\n      tag_25\n      jumpi\n      dup1\n      0xcc21c188\n      eq\n      tag_26\n      jumpi\n      dup1\n      0xd22d9020\n      eq\n      tag_27\n      jumpi\n      dup1\n      0xd68cf8c1\n      eq\n      tag_28\n      jumpi\n      dup1\n      0xdce39151\n      eq\n      tag_29\n      jumpi\n      dup1\n      0xf69483c1\n      eq\n      tag_30\n      jumpi\n    tag_2:\n      0x00\n      dup1\n      revert\n        /* \"Documents/GitHub/Store-system-with-feedback/main.sol\":1726:1851  function get_role_shop(string memory login) public view returns(uint) {\r... */\n    tag_3:\n      tag_31\n      tag_32\n      calldatasize\n      0x04\n      tag_33\n      jump\t// in\n    tag_32:\n      tag_34\n      jump\t// in\n    tag_31:\n      mload(0x40)\n        /* \"#utility.yul\":9084:9109   */\n      swap1\n      dup2\n      mstore\n        /* \"#utility.yul\":9072:9074   */\n      0x20\n        /* \"#utility.yul\":9057:9075   */\n      add\n        /* \"Documents/GitHub/Store-system-with-feedback/main.sol\":1726:1851  function get_role_shop(string memory login) public view returns(uint) {\r... */\n    tag_35:\n      mload(0x40)\n      dup1\n      swap2\n      sub\n      swap1\n      return\n        /* \"Documents/GitHub/Store-system-with-feedback/main.sol\":5069:5697  function acceptPurchase (uint idPurchase, bool confirmation) public {\r... */\n    tag_4:\n      tag_37\n      tag_38\n      calldatasize\n      0x04\n      tag_39\n      jump\t// in\n    tag_38:\n      tag_40\n      jump\t// in\n    tag_37:\n      stop\n        /* \"Documents/GitHub/Store-system-with-feedback/main.sol\":9414:9742  function create_user(address addr, string memory login, bytes32 password) public {\r... */\n    tag_5:\n      tag_37\n      tag_42\n      calldatasize\n      0x04\n      tag_43\n      jump\t// in\n    tag_42:\n      tag_44\n      jump\t// in\n        /* \"Documents/GitHub/Store-system-with-feedback/main.sol\":8521:8792  function productPurchases (string memory titleProduct) public {\r... */\n    tag_6:\n      tag_37\n      tag_46\n      calldatasize\n      0x04\n      tag_33\n      jump\t// in\n    tag_46:\n      tag_47\n      jump\t// in\n        /* \"Documents/GitHub/Store-system-with-feedback/main.sol\":2858:2908  mapping(string => address) public structUserLogins */\n    tag_7:\n      tag_48\n      tag_49\n      calldatasize\n      0x04\n      tag_33\n      jump\t// in\n    tag_49:\n      dup1\n      mload\n      0x20\n      dup2\n      dup4\n      add\n      dup2\n      add\n      dup1\n      mload\n      0x05\n      dup3\n      mstore\n      swap3\n      dup3\n      add\n      swap2\n      swap1\n      swap4\n      add\n      keccak256\n      swap2\n      mstore\n      sload\n      sub(shl(0xa0, 0x01), 0x01)\n      and\n      dup2\n      jump\n    tag_48:\n      mload(0x40)\n      sub(shl(0xa0, 0x01), 0x01)\n        /* \"#utility.yul\":7025:7057   */\n      swap1\n      swap2\n      and\n        /* \"#utility.yul\":7007:7058   */\n      dup2\n      mstore\n        /* \"#utility.yul\":6995:6997   */\n      0x20\n        /* \"#utility.yul\":6980:6998   */\n      add\n        /* \"Documents/GitHub/Store-system-with-feedback/main.sol\":2858:2908  mapping(string => address) public structUserLogins */\n      tag_35\n        /* \"#utility.yul\":6861:7064   */\n      jump\n        /* \"Documents/GitHub/Store-system-with-feedback/main.sol\":8015:8434  function leaveComment (string memory userName, string[] memory comment) public {\r... */\n    tag_8:\n      tag_37\n      tag_54\n      calldatasize\n      0x04\n      tag_55\n      jump\t// in\n    tag_54:\n      tag_56\n      jump\t// in\n        /* \"Documents/GitHub/Store-system-with-feedback/main.sol\":5742:6203  function acceptReturn(uint idReturn, bool confirmation) public {\r... */\n    tag_9:\n      tag_37\n      tag_58\n      calldatasize\n      0x04\n      tag_39\n      jump\t// in\n    tag_58:\n      tag_59\n      jump\t// in\n        /* \"Documents/GitHub/Store-system-with-feedback/main.sol\":9031:9215  function productMarriageRegistration (string memory titleProduct) public {\r... */\n    tag_10:\n      tag_37\n      tag_61\n      calldatasize\n      0x04\n      tag_33\n      jump\t// in\n    tag_61:\n      tag_62\n      jump\t// in\n        /* \"Documents/GitHub/Store-system-with-feedback/main.sol\":6990:7090  function getProductList() public view returns(string[] memory) {\r... */\n    tag_11:\n      tag_63\n      tag_64\n      jump\t// in\n    tag_63:\n      mload(0x40)\n      tag_35\n      swap2\n      swap1\n      tag_66\n      jump\t// in\n        /* \"Documents/GitHub/Store-system-with-feedback/main.sol\":1385:1516  function check_logged_shop(string memory login) public view returns(bool) {\r... */\n    tag_12:\n      tag_67\n      tag_68\n      calldatasize\n      0x04\n      tag_33\n      jump\t// in\n    tag_68:\n      tag_69\n      jump\t// in\n    tag_67:\n      mload(0x40)\n        /* \"#utility.yul\":8911:8925   */\n      swap1\n      iszero\n        /* \"#utility.yul\":8904:8926   */\n      iszero\n        /* \"#utility.yul\":8886:8927   */\n      dup2\n      mstore\n        /* \"#utility.yul\":8874:8876   */\n      0x20\n        /* \"#utility.yul\":8859:8877   */\n      add\n        /* \"Documents/GitHub/Store-system-with-feedback/main.sol\":1385:1516  function check_logged_shop(string memory login) public view returns(bool) {\r... */\n      tag_35\n        /* \"#utility.yul\":8746:8933   */\n      jump\n        /* \"Documents/GitHub/Store-system-with-feedback/main.sol\":1200:1344  function check_logged_user(string memory login) public view returns(bool) {\r... */\n    tag_13:\n      tag_67\n      tag_73\n      calldatasize\n      0x04\n      tag_33\n      jump\t// in\n    tag_73:\n      tag_74\n      jump\t// in\n        /* \"Documents/GitHub/Store-system-with-feedback/main.sol\":1552:1690  function get_role_user(string memory login) public view returns(uint) {\r... */\n    tag_14:\n      tag_31\n      tag_77\n      calldatasize\n      0x04\n      tag_33\n      jump\t// in\n    tag_77:\n      tag_78\n      jump\t// in\n        /* \"Documents/GitHub/Store-system-with-feedback/main.sol\":9259:9380  function get_address(string memory login) public view returns(address) {\r... */\n    tag_15:\n      tag_48\n      tag_81\n      calldatasize\n      0x04\n      tag_33\n      jump\t// in\n    tag_81:\n      tag_82\n      jump\t// in\n        /* \"Documents/GitHub/Store-system-with-feedback/main.sol\":3990:4389  function addProductShop (string memory title, uint256 price, string memory description) public {\r... */\n    tag_16:\n      tag_37\n      tag_85\n      calldatasize\n      0x04\n      tag_86\n      jump\t// in\n    tag_85:\n      tag_87\n      jump\t// in\n        /* \"Documents/GitHub/Store-system-with-feedback/main.sol\":10240:10624  function login_shop(string memory login, bytes32 password) public {\r... */\n    tag_17:\n      tag_37\n      tag_89\n      calldatasize\n      0x04\n      tag_90\n      jump\t// in\n    tag_89:\n      tag_91\n      jump\t// in\n        /* \"Documents/GitHub/Store-system-with-feedback/main.sol\":3805:3868  structMarriageRegistration[] public structMarriageRegistrations */\n    tag_18:\n      tag_92\n      tag_93\n      calldatasize\n      0x04\n      tag_94\n      jump\t// in\n    tag_93:\n      tag_95\n      jump\t// in\n    tag_92:\n      mload(0x40)\n      tag_35\n      swap4\n      swap3\n      swap2\n      swap1\n      tag_97\n      jump\t// in\n        /* \"Documents/GitHub/Store-system-with-feedback/main.sol\":1020:1159  function get_hash(string memory password) public pure returns(bytes32) {\r... */\n    tag_19:\n      tag_31\n      tag_99\n      calldatasize\n      0x04\n      tag_33\n      jump\t// in\n    tag_99:\n      tag_100\n      jump\t// in\n        /* \"Documents/GitHub/Store-system-with-feedback/main.sol\":2802:2851  mapping(address => structUser) public structUsers */\n    tag_20:\n      tag_103\n      tag_104\n      calldatasize\n      0x04\n      tag_105\n      jump\t// in\n    tag_104:\n      tag_106\n      jump\t// in\n    tag_103:\n      mload(0x40)\n      tag_35\n      swap6\n      swap5\n      swap4\n      swap3\n      swap2\n      swap1\n      tag_108\n      jump\t// in\n        /* \"Documents/GitHub/Store-system-with-feedback/main.sol\":7122:7975  function getStoryRating(string memory shopName) public view returns(uint) {\r... */\n    tag_21:\n      tag_31\n      tag_110\n      calldatasize\n      0x04\n      tag_33\n      jump\t// in\n    tag_110:\n      tag_111\n      jump\t// in\n        /* \"Documents/GitHub/Store-system-with-feedback/main.sol\":3585:3632  structStatusReturn[] public structStatusReturns */\n    tag_22:\n      tag_92\n      tag_114\n      calldatasize\n      0x04\n      tag_94\n      jump\t// in\n    tag_114:\n      tag_115\n      jump\t// in\n        /* \"Documents/GitHub/Store-system-with-feedback/main.sol\":8831:8985  function productReturn (string memory titleProduct) public {\r... */\n    tag_23:\n      tag_37\n      tag_118\n      calldatasize\n      0x04\n      tag_33\n      jump\t// in\n    tag_118:\n      tag_119\n      jump\t// in\n        /* \"Documents/GitHub/Store-system-with-feedback/main.sol\":6860:6954  function getShopList() public view returns(string[] memory) {\r... */\n    tag_24:\n      tag_63\n      tag_121\n      jump\t// in\n        /* \"Documents/GitHub/Store-system-with-feedback/main.sol\":2225:2268  mapping(string => address) public shopLists */\n    tag_25:\n      tag_48\n      tag_124\n      calldatasize\n      0x04\n      tag_33\n      jump\t// in\n    tag_124:\n      dup1\n      mload\n      0x20\n      dup2\n      dup4\n      add\n      dup2\n      add\n      dup1\n      mload\n      0x01\n      dup3\n      mstore\n      swap3\n      dup3\n      add\n      swap2\n      swap1\n      swap4\n      add\n      keccak256\n      swap2\n      mstore\n      sload\n      sub(shl(0xa0, 0x01), 0x01)\n      and\n      dup2\n      jump\n        /* \"Documents/GitHub/Store-system-with-feedback/main.sol\":4434:5022  function leaveFeedback (string memory shop, string memory feedback, uint256 rating) public {\r... */\n    tag_26:\n      tag_37\n      tag_128\n      calldatasize\n      0x04\n      tag_129\n      jump\t// in\n    tag_128:\n      tag_130\n      jump\t// in\n        /* \"Documents/GitHub/Store-system-with-feedback/main.sol\":9776:10206  function login_user(string memory login, bytes32 password) public {\r... */\n    tag_27:\n      tag_37\n      tag_132\n      calldatasize\n      0x04\n      tag_90\n      jump\t// in\n    tag_132:\n      tag_133\n      jump\t// in\n        /* \"Documents/GitHub/Store-system-with-feedback/main.sol\":3134:3188  mapping(string => structProduct) public structProducts */\n    tag_28:\n      tag_134\n      tag_135\n      calldatasize\n      0x04\n      tag_33\n      jump\t// in\n    tag_135:\n      tag_136\n      jump\t// in\n    tag_134:\n      mload(0x40)\n      tag_35\n      swap5\n      swap4\n      swap3\n      swap2\n      swap1\n      tag_138\n      jump\t// in\n        /* \"Documents/GitHub/Store-system-with-feedback/main.sol\":3377:3428  structStatusPurchase[] public structStatusPurchases */\n    tag_29:\n      tag_92\n      tag_140\n      calldatasize\n      0x04\n      tag_94\n      jump\t// in\n    tag_140:\n      tag_141\n      jump\t// in\n        /* \"Documents/GitHub/Store-system-with-feedback/main.sol\":6249:6826  function MarriageRegistration(uint idMarriageRegistration, bool confirmation) public {\r... */\n    tag_30:\n      tag_37\n      tag_144\n      calldatasize\n      0x04\n      tag_39\n      jump\t// in\n    tag_144:\n      tag_145\n      jump\t// in\n        /* \"Documents/GitHub/Store-system-with-feedback/main.sol\":1726:1851  function get_role_shop(string memory login) public view returns(uint) {\r... */\n    tag_34:\n        /* \"Documents/GitHub/Store-system-with-feedback/main.sol\":1790:1794  uint */\n      0x00\n        /* \"Documents/GitHub/Store-system-with-feedback/main.sol\":1814:1819  shops */\n      dup1\n        /* \"Documents/GitHub/Store-system-with-feedback/main.sol\":1814:1837  shops[shopLists[login]] */\n      0x00\n        /* \"Documents/GitHub/Store-system-with-feedback/main.sol\":1820:1829  shopLists */\n      0x01\n        /* \"Documents/GitHub/Store-system-with-feedback/main.sol\":1830:1835  login */\n      dup5\n        /* \"Documents/GitHub/Store-system-with-feedback/main.sol\":1820:1836  shopLists[login] */\n      mload(0x40)\n      tag_147\n      swap2\n      swap1\n      tag_148\n      jump\t// in\n    tag_147:\n      swap1\n      dup2\n      mstore\n      0x40\n      dup1\n      mload\n      0x20\n      swap3\n      dup2\n      swap1\n      sub\n      dup4\n      add\n      swap1\n      keccak256\n      sload\n      sub(shl(0xa0, 0x01), 0x01)\n      and\n        /* \"Documents/GitHub/Store-system-with-feedback/main.sol\":1814:1837  shops[shopLists[login]] */\n      dup4\n      mstore\n      swap1\n      dup3\n      add\n      swap3\n      swap1\n      swap3\n      mstore\n      add\n      0x00\n      keccak256\n        /* \"Documents/GitHub/Store-system-with-feedback/main.sol\":1814:1842  shops[shopLists[login]].role */\n      0x03\n      add\n      sload\n      swap3\n      swap2\n      pop\n      pop\n        /* \"Documents/GitHub/Store-system-with-feedback/main.sol\":1726:1851  function get_role_shop(string memory login) public view returns(uint) {\r... */\n      jump\t// out\n        /* \"Documents/GitHub/Store-system-with-feedback/main.sol\":5069:5697  function acceptPurchase (uint idPurchase, bool confirmation) public {\r... */\n    tag_40:\n        /* \"Documents/GitHub/Store-system-with-feedback/main.sol\":5168:5172  true */\n      0x01\n        /* \"Documents/GitHub/Store-system-with-feedback/main.sol\":5152:5172  confirmation == true */\n      dup2\n      iszero\n      iszero\n      eq\n        /* \"Documents/GitHub/Store-system-with-feedback/main.sol\":5148:5690  if (confirmation == true) {\r... */\n      iszero\n      tag_150\n      jumpi\n        /* \"Documents/GitHub/Store-system-with-feedback/main.sol\":5232:5237  false */\n      0x00\n        /* \"Documents/GitHub/Store-system-with-feedback/main.sol\":5189:5210  structStatusPurchases */\n      0x0a\n        /* \"Documents/GitHub/Store-system-with-feedback/main.sol\":5211:5221  idPurchase */\n      dup4\n        /* \"Documents/GitHub/Store-system-with-feedback/main.sol\":5189:5222  structStatusPurchases[idPurchase] */\n      dup2\n      sload\n      dup2\n      lt\n      tag_152\n      jumpi\n      tag_152\n      tag_153\n      jump\t// in\n    tag_152:\n      swap1\n      0x00\n      mstore\n      keccak256(0x00, 0x20)\n      swap1\n      0x03\n      mul\n      add\n        /* \"Documents/GitHub/Store-system-with-feedback/main.sol\":5189:5229  structStatusPurchases[idPurchase].status */\n      0x02\n      add\n      0x00\n        /* \"Documents/GitHub/Store-system-with-feedback/main.sol\":5189:5237  structStatusPurchases[idPurchase].status = false */\n      0x0100\n      exp\n      dup2\n      sload\n      dup2\n      0xff\n      mul\n      not\n      and\n      swap1\n      dup4\n      iszero\n      iszero\n      mul\n      or\n      swap1\n      sstore\n      pop\n        /* \"Documents/GitHub/Store-system-with-feedback/main.sol\":5388:5402  structProducts */\n      0x08\n        /* \"Documents/GitHub/Store-system-with-feedback/main.sol\":5403:5424  structStatusPurchases */\n      0x0a\n        /* \"Documents/GitHub/Store-system-with-feedback/main.sol\":5425:5435  idPurchase */\n      dup4\n        /* \"Documents/GitHub/Store-system-with-feedback/main.sol\":5403:5436  structStatusPurchases[idPurchase] */\n      dup2\n      sload\n      dup2\n      lt\n      tag_156\n      jumpi\n      tag_156\n      tag_153\n      jump\t// in\n    tag_156:\n      swap1\n      0x00\n      mstore\n      keccak256(0x00, 0x20)\n      swap1\n      0x03\n      mul\n      add\n        /* \"Documents/GitHub/Store-system-with-feedback/main.sol\":5403:5449  structStatusPurchases[idPurchase].titleProduct */\n      0x01\n      add\n        /* \"Documents/GitHub/Store-system-with-feedback/main.sol\":5388:5450  structProducts[structStatusPurchases[idPurchase].titleProduct] */\n      mload(0x40)\n      tag_158\n      swap2\n      swap1\n      tag_159\n      jump\t// in\n    tag_158:\n      swap1\n      dup2\n      mstore\n      0x20\n      add\n      mload(0x40)\n      dup1\n      swap2\n      sub\n      swap1\n      keccak256\n        /* \"Documents/GitHub/Store-system-with-feedback/main.sol\":5388:5456  structProducts[structStatusPurchases[idPurchase].titleProduct].price */\n      0x02\n      add\n      sload\n        /* \"Documents/GitHub/Store-system-with-feedback/main.sol\":5320:5331  structUsers */\n      0x04\n        /* \"Documents/GitHub/Store-system-with-feedback/main.sol\":5320:5376  structUsers[structStatusPurchases[idPurchase].userLogin] */\n      0x00\n        /* \"Documents/GitHub/Store-system-with-feedback/main.sol\":5332:5353  structStatusPurchases */\n      0x0a\n        /* \"Documents/GitHub/Store-system-with-feedback/main.sol\":5354:5364  idPurchase */\n      dup6\n        /* \"Documents/GitHub/Store-system-with-feedback/main.sol\":5332:5365  structStatusPurchases[idPurchase] */\n      dup2\n      sload\n      dup2\n      lt\n      tag_161\n      jumpi\n      tag_161\n      tag_153\n      jump\t// in\n    tag_161:\n      0x00\n      swap2\n      dup3\n      mstore\n      0x20\n      dup1\n      dup4\n      keccak256\n      0x03\n      swap1\n      swap3\n      mul\n      swap1\n      swap2\n      add\n        /* \"Documents/GitHub/Store-system-with-feedback/main.sol\":5332:5375  structStatusPurchases[idPurchase].userLogin */\n      sload\n      sub(shl(0xa0, 0x01), 0x01)\n      and\n        /* \"Documents/GitHub/Store-system-with-feedback/main.sol\":5320:5376  structUsers[structStatusPurchases[idPurchase].userLogin] */\n      dup4\n      mstore\n      dup3\n      add\n      swap3\n      swap1\n      swap3\n      mstore\n      0x40\n      add\n      swap1\n      keccak256\n        /* \"Documents/GitHub/Store-system-with-feedback/main.sol\":5320:5385  structUsers[structStatusPurchases[idPurchase].userLogin].ballance */\n      0x02\n      add\n      sload\n        /* \"Documents/GitHub/Store-system-with-feedback/main.sol\":5320:5456  structUsers[structStatusPurchases[idPurchase].userLogin].ballance - structProducts[structStatusPurchases[idPurchase].titleProduct].price */\n      tag_163\n      swap2\n      swap1\n      tag_164\n      jump\t// in\n    tag_163:\n        /* \"Documents/GitHub/Store-system-with-feedback/main.sol\":5252:5263  structUsers */\n      0x04\n        /* \"Documents/GitHub/Store-system-with-feedback/main.sol\":5252:5308  structUsers[structStatusPurchases[idPurchase].userLogin] */\n      0x00\n        /* \"Documents/GitHub/Store-system-with-feedback/main.sol\":5264:5285  structStatusPurchases */\n      0x0a\n        /* \"Documents/GitHub/Store-system-with-feedback/main.sol\":5286:5296  idPurchase */\n      dup6\n        /* \"Documents/GitHub/Store-system-with-feedback/main.sol\":5264:5297  structStatusPurchases[idPurchase] */\n      dup2\n      sload\n      dup2\n      lt\n      tag_166\n      jumpi\n      tag_166\n      tag_153\n      jump\t// in\n    tag_166:\n      0x00\n      swap2\n      dup3\n      mstore\n      0x20\n      dup1\n      dup4\n      keccak256\n      0x03\n      swap1\n      swap3\n      mul\n      swap1\n      swap2\n      add\n        /* \"Documents/GitHub/Store-system-with-feedback/main.sol\":5264:5307  structStatusPurchases[idPurchase].userLogin */\n      sload\n      sub(shl(0xa0, 0x01), 0x01)\n      and\n        /* \"Documents/GitHub/Store-system-with-feedback/main.sol\":5252:5308  structUsers[structStatusPurchases[idPurchase].userLogin] */\n      dup4\n      mstore\n      dup3\n      add\n      swap3\n      swap1\n      swap3\n      mstore\n      0x40\n      add\n      swap1\n      keccak256\n        /* \"Documents/GitHub/Store-system-with-feedback/main.sol\":5252:5317  structUsers[structStatusPurchases[idPurchase].userLogin].ballance */\n      0x02\n      add\n        /* \"Documents/GitHub/Store-system-with-feedback/main.sol\":5252:5456  structUsers[structStatusPurchases[idPurchase].userLogin].ballance = structUsers[structStatusPurchases[idPurchase].userLogin].ballance - structProducts[structStatusPurchases[idPurchase].titleProduct].price */\n      sstore\n        /* \"Documents/GitHub/Store-system-with-feedback/main.sol\":5544:5565  structStatusPurchases */\n      0x0a\n        /* \"Documents/GitHub/Store-system-with-feedback/main.sol\":5544:5577  structStatusPurchases[idPurchase] */\n      dup1\n      sload\n        /* \"Documents/GitHub/Store-system-with-feedback/main.sol\":5529:5543  structProducts */\n      0x08\n      swap2\n        /* \"Documents/GitHub/Store-system-with-feedback/main.sol\":5544:5565  structStatusPurchases */\n      swap1\n        /* \"Documents/GitHub/Store-system-with-feedback/main.sol\":5566:5576  idPurchase */\n      dup5\n      swap1\n        /* \"Documents/GitHub/Store-system-with-feedback/main.sol\":5544:5577  structStatusPurchases[idPurchase] */\n      dup2\n      lt\n      tag_169\n      jumpi\n      tag_169\n      tag_153\n      jump\t// in\n    tag_169:\n      swap1\n      0x00\n      mstore\n      keccak256(0x00, 0x20)\n      swap1\n      0x03\n      mul\n      add\n        /* \"Documents/GitHub/Store-system-with-feedback/main.sol\":5544:5590  structStatusPurchases[idPurchase].titleProduct */\n      0x01\n      add\n        /* \"Documents/GitHub/Store-system-with-feedback/main.sol\":5529:5591  structProducts[structStatusPurchases[idPurchase].titleProduct] */\n      mload(0x40)\n      tag_171\n      swap2\n      swap1\n      tag_159\n      jump\t// in\n    tag_171:\n      swap1\n      dup2\n      mstore\n      0x20\n      add\n      mload(0x40)\n      dup1\n      swap2\n      sub\n      swap1\n      keccak256\n        /* \"Documents/GitHub/Store-system-with-feedback/main.sol\":5529:5597  structProducts[structStatusPurchases[idPurchase].titleProduct].price */\n      0x02\n      add\n      sload\n        /* \"Documents/GitHub/Store-system-with-feedback/main.sol\":5500:5505  shops */\n      0x00\n        /* \"Documents/GitHub/Store-system-with-feedback/main.sol\":5500:5517  shops[msg.sender] */\n      dup1\n        /* \"Documents/GitHub/Store-system-with-feedback/main.sol\":5506:5516  msg.sender */\n      caller\n      sub(shl(0xa0, 0x01), 0x01)\n        /* \"Documents/GitHub/Store-system-with-feedback/main.sol\":5500:5517  shops[msg.sender] */\n      and\n      sub(shl(0xa0, 0x01), 0x01)\n      and\n      dup2\n      mstore\n      0x20\n      add\n      swap1\n      dup2\n      mstore\n      0x20\n      add\n      0x00\n      keccak256\n        /* \"Documents/GitHub/Store-system-with-feedback/main.sol\":5500:5526  shops[msg.sender].ballance */\n      0x02\n      add\n      sload\n        /* \"Documents/GitHub/Store-system-with-feedback/main.sol\":5500:5597  shops[msg.sender].ballance + structProducts[structStatusPurchases[idPurchase].titleProduct].price */\n      tag_172\n      swap2\n      swap1\n      tag_173\n      jump\t// in\n    tag_172:\n        /* \"Documents/GitHub/Store-system-with-feedback/main.sol\":5477:5487  msg.sender */\n      caller\n        /* \"Documents/GitHub/Store-system-with-feedback/main.sol\":5471:5476  shops */\n      0x00\n        /* \"Documents/GitHub/Store-system-with-feedback/main.sol\":5471:5488  shops[msg.sender] */\n      swap1\n      dup2\n      mstore\n      0x20\n      dup2\n      swap1\n      mstore\n      0x40\n      swap1\n      keccak256\n        /* \"Documents/GitHub/Store-system-with-feedback/main.sol\":5471:5497  shops[msg.sender].ballance */\n      0x02\n      add\n        /* \"Documents/GitHub/Store-system-with-feedback/main.sol\":5471:5597  shops[msg.sender].ballance = shops[msg.sender].ballance + structProducts[structStatusPurchases[idPurchase].titleProduct].price */\n      sstore\n        /* \"Documents/GitHub/Store-system-with-feedback/main.sol\":5069:5697  function acceptPurchase (uint idPurchase, bool confirmation) public {\r... */\n      pop\n      pop\n      jump\t// out\n        /* \"Documents/GitHub/Store-system-with-feedback/main.sol\":5148:5690  if (confirmation == true) {\r... */\n    tag_150:\n        /* \"Documents/GitHub/Store-system-with-feedback/main.sol\":5673:5678  false */\n      0x00\n        /* \"Documents/GitHub/Store-system-with-feedback/main.sol\":5630:5651  structStatusPurchases */\n      0x0a\n        /* \"Documents/GitHub/Store-system-with-feedback/main.sol\":5652:5662  idPurchase */\n      dup4\n        /* \"Documents/GitHub/Store-system-with-feedback/main.sol\":5630:5663  structStatusPurchases[idPurchase] */\n      dup2\n      sload\n      dup2\n      lt\n      tag_176\n      jumpi\n      tag_176\n      tag_153\n      jump\t// in\n    tag_176:\n      0x00\n      swap2\n      dup3\n      mstore\n      0x20\n      swap1\n      swap2\n      keccak256\n      0x03\n      swap1\n      swap2\n      mul\n      add\n        /* \"Documents/GitHub/Store-system-with-feedback/main.sol\":5630:5670  structStatusPurchases[idPurchase].status */\n      0x02\n      add\n        /* \"Documents/GitHub/Store-system-with-feedback/main.sol\":5630:5678  structStatusPurchases[idPurchase].status = false */\n      dup1\n      sload\n      not(0xff)\n      and\n      swap2\n      iszero\n      iszero\n      swap2\n      swap1\n      swap2\n      or\n      swap1\n      sstore\n      pop\n      pop\n        /* \"Documents/GitHub/Store-system-with-feedback/main.sol\":5069:5697  function acceptPurchase (uint idPurchase, bool confirmation) public {\r... */\n      jump\t// out\n        /* \"Documents/GitHub/Store-system-with-feedback/main.sol\":9414:9742  function create_user(address addr, string memory login, bytes32 password) public {\r... */\n    tag_44:\n        /* \"Documents/GitHub/Store-system-with-feedback/main.sol\":9549:9550  0 */\n      0x00\n      sub(shl(0xa0, 0x01), 0x01)\n        /* \"Documents/GitHub/Store-system-with-feedback/main.sol\":9514:9551  structUserLogins[login] == address(0) */\n      and\n        /* \"Documents/GitHub/Store-system-with-feedback/main.sol\":9514:9530  structUserLogins */\n      0x05\n        /* \"Documents/GitHub/Store-system-with-feedback/main.sol\":9531:9536  login */\n      dup4\n        /* \"Documents/GitHub/Store-system-with-feedback/main.sol\":9514:9537  structUserLogins[login] */\n      mload(0x40)\n      tag_179\n      swap2\n      swap1\n      tag_148\n      jump\t// in\n    tag_179:\n      swap1\n      dup2\n      mstore\n      mload(0x40)\n      swap1\n      dup2\n      swap1\n      sub\n      0x20\n      add\n      swap1\n      keccak256\n      sload\n      sub(shl(0xa0, 0x01), 0x01)\n      and\n        /* \"Documents/GitHub/Store-system-with-feedback/main.sol\":9514:9551  structUserLogins[login] == address(0) */\n      eq\n        /* \"Documents/GitHub/Store-system-with-feedback/main.sol\":9506:9581  require(structUserLogins[login] == address(0), \"Error: User already exist\") */\n      tag_180\n      jumpi\n      mload(0x40)\n      shl(0xe5, 0x461bcd)\n      dup2\n      mstore\n        /* \"#utility.yul\":9844:9846   */\n      0x20\n        /* \"Documents/GitHub/Store-system-with-feedback/main.sol\":9506:9581  require(structUserLogins[login] == address(0), \"Error: User already exist\") */\n      0x04\n      dup3\n      add\n        /* \"#utility.yul\":9826:9847   */\n      mstore\n        /* \"#utility.yul\":9883:9885   */\n      0x19\n        /* \"#utility.yul\":9863:9881   */\n      0x24\n      dup3\n      add\n        /* \"#utility.yul\":9856:9886   */\n      mstore\n      shl(0x3a, 0x115c9c9bdc8e88155cd95c88185b1c9958591e48195e1a5cdd)\n        /* \"#utility.yul\":9902:9920   */\n      0x44\n      dup3\n      add\n        /* \"#utility.yul\":9895:9950   */\n      mstore\n        /* \"#utility.yul\":9967:9985   */\n      0x64\n      add\n        /* \"Documents/GitHub/Store-system-with-feedback/main.sol\":9506:9581  require(structUserLogins[login] == address(0), \"Error: User already exist\") */\n    tag_181:\n      mload(0x40)\n      dup1\n      swap2\n      sub\n      swap1\n      revert\n    tag_180:\n        /* \"Documents/GitHub/Store-system-with-feedback/main.sol\":9612:9655  structUser(login, password, 1000, 0, false) */\n      0x40\n      dup1\n      mload\n      0xa0\n      dup2\n      add\n      dup3\n      mstore\n      dup4\n      dup2\n      mstore\n      0x20\n      dup1\n      dup3\n      add\n      dup5\n      swap1\n      mstore\n        /* \"Documents/GitHub/Store-system-with-feedback/main.sol\":9640:9644  1000 */\n      0x03e8\n        /* \"Documents/GitHub/Store-system-with-feedback/main.sol\":9612:9655  structUser(login, password, 1000, 0, false) */\n      dup3\n      dup5\n      add\n      mstore\n      0x00\n      0x60\n      dup4\n      add\n      dup2\n      swap1\n      mstore\n      0x80\n      dup4\n      add\n      dup2\n      swap1\n      mstore\n      sub(shl(0xa0, 0x01), 0x01)\n        /* \"Documents/GitHub/Store-system-with-feedback/main.sol\":9592:9609  structUsers[addr] */\n      dup8\n      and\n      dup2\n      mstore\n        /* \"Documents/GitHub/Store-system-with-feedback/main.sol\":9592:9603  structUsers */\n      0x04\n        /* \"Documents/GitHub/Store-system-with-feedback/main.sol\":9592:9609  structUsers[addr] */\n      dup3\n      mstore\n      swap3\n      swap1\n      swap3\n      keccak256\n        /* \"Documents/GitHub/Store-system-with-feedback/main.sol\":9592:9655  structUsers[addr] = structUser(login, password, 1000, 0, false) */\n      dup2\n      mload\n      dup1\n      mload\n        /* \"Documents/GitHub/Store-system-with-feedback/main.sol\":9612:9655  structUser(login, password, 1000, 0, false) */\n      swap3\n      swap4\n        /* \"Documents/GitHub/Store-system-with-feedback/main.sol\":9592:9609  structUsers[addr] */\n      swap2\n      swap3\n        /* \"Documents/GitHub/Store-system-with-feedback/main.sol\":9592:9655  structUsers[addr] = structUser(login, password, 1000, 0, false) */\n      tag_183\n      swap3\n        /* \"Documents/GitHub/Store-system-with-feedback/main.sol\":9592:9609  structUsers[addr] */\n      dup5\n      swap3\n        /* \"Documents/GitHub/Store-system-with-feedback/main.sol\":9592:9655  structUsers[addr] = structUser(login, password, 1000, 0, false) */\n      add\n      swap1\n      tag_184\n      jump\t// in\n    tag_183:\n      pop\n      0x20\n      dup3\n      add\n      mload\n      0x01\n      dup3\n      add\n      sstore\n      0x40\n      dup1\n      dup4\n      add\n      mload\n      0x02\n      dup4\n      add\n      sstore\n      0x60\n      dup4\n      add\n      mload\n      0x03\n      dup4\n      add\n      sstore\n      0x80\n      swap1\n      swap3\n      add\n      mload\n      0x04\n      swap1\n      swap2\n      add\n      dup1\n      sload\n      not(0xff)\n      and\n      swap2\n      iszero\n      iszero\n      swap2\n      swap1\n      swap2\n      or\n      swap1\n      sstore\n        /* \"Documents/GitHub/Store-system-with-feedback/main.sol\":9666:9689  structUserLogins[login] */\n      mload\n        /* \"Documents/GitHub/Store-system-with-feedback/main.sol\":9692:9696  addr */\n      dup4\n      swap1\n        /* \"Documents/GitHub/Store-system-with-feedback/main.sol\":9666:9682  structUserLogins */\n      0x05\n      swap1\n        /* \"Documents/GitHub/Store-system-with-feedback/main.sol\":9666:9689  structUserLogins[login] */\n      tag_185\n      swap1\n        /* \"Documents/GitHub/Store-system-with-feedback/main.sol\":9683:9688  login */\n      dup6\n      swap1\n        /* \"Documents/GitHub/Store-system-with-feedback/main.sol\":9666:9689  structUserLogins[login] */\n      tag_148\n      jump\t// in\n    tag_185:\n      swap1\n      dup2\n      mstore\n      mload(0x40)\n      swap1\n      dup2\n      swap1\n      sub\n      0x20\n      add\n      swap1\n      keccak256\n        /* \"Documents/GitHub/Store-system-with-feedback/main.sol\":9666:9696  structUserLogins[login] = addr */\n      dup1\n      sload\n      sub(shl(0xa0, 0x01), 0x01)\n      swap3\n      dup4\n      and\n      not(sub(shl(0xa0, 0x01), 0x01))\n      swap2\n      dup3\n      and\n      or\n      swap1\n      swap2\n      sstore\n        /* \"Documents/GitHub/Store-system-with-feedback/main.sol\":9707:9723  userAddressArray */\n      0x07\n        /* \"Documents/GitHub/Store-system-with-feedback/main.sol\":9707:9734  userAddressArray.push(addr) */\n      dup1\n      sload\n        /* \"Documents/GitHub/Store-system-with-feedback/main.sol\":9666:9696  structUserLogins[login] = addr */\n      0x01\n        /* \"Documents/GitHub/Store-system-with-feedback/main.sol\":9707:9734  userAddressArray.push(addr) */\n      dup2\n      add\n      dup3\n      sstore\n        /* \"Documents/GitHub/Store-system-with-feedback/main.sol\":9666:9689  structUserLogins[login] */\n      0x00\n        /* \"Documents/GitHub/Store-system-with-feedback/main.sol\":9707:9734  userAddressArray.push(addr) */\n      swap2\n      swap1\n      swap2\n      mstore\n      0xa66cc928b5edb82af9bd49922954155ab7b0942694bea4ce44661d9a8736c688\n      add\n      dup1\n      sload\n      swap6\n      swap1\n      swap3\n      and\n      swap5\n      and\n      swap4\n      swap1\n      swap4\n      or\n      swap1\n      swap3\n      sstore\n      pop\n      pop\n        /* \"Documents/GitHub/Store-system-with-feedback/main.sol\":9414:9742  function create_user(address addr, string memory login, bytes32 password) public {\r... */\n      jump\t// out\n        /* \"Documents/GitHub/Store-system-with-feedback/main.sol\":8521:8792  function productPurchases (string memory titleProduct) public {\r... */\n    tag_47:\n        /* \"Documents/GitHub/Store-system-with-feedback/main.sol\":8638:8652  structProducts */\n      0x08\n        /* \"Documents/GitHub/Store-system-with-feedback/main.sol\":8653:8665  titleProduct */\n      dup2\n        /* \"Documents/GitHub/Store-system-with-feedback/main.sol\":8638:8666  structProducts[titleProduct] */\n      mload(0x40)\n      tag_188\n      swap2\n      swap1\n      tag_148\n      jump\t// in\n    tag_188:\n      swap1\n      dup2\n      mstore\n      0x20\n      add\n      mload(0x40)\n      dup1\n      swap2\n      sub\n      swap1\n      keccak256\n        /* \"Documents/GitHub/Store-system-with-feedback/main.sol\":8638:8672  structProducts[titleProduct].price */\n      0x02\n      add\n      sload\n        /* \"Documents/GitHub/Store-system-with-feedback/main.sol\":8602:8613  structUsers */\n      0x04\n        /* \"Documents/GitHub/Store-system-with-feedback/main.sol\":8602:8625  structUsers[msg.sender] */\n      0x00\n        /* \"Documents/GitHub/Store-system-with-feedback/main.sol\":8614:8624  msg.sender */\n      caller\n      sub(shl(0xa0, 0x01), 0x01)\n        /* \"Documents/GitHub/Store-system-with-feedback/main.sol\":8602:8625  structUsers[msg.sender] */\n      and\n      sub(shl(0xa0, 0x01), 0x01)\n      and\n      dup2\n      mstore\n      0x20\n      add\n      swap1\n      dup2\n      mstore\n      0x20\n      add\n      0x00\n      keccak256\n        /* \"Documents/GitHub/Store-system-with-feedback/main.sol\":8602:8634  structUsers[msg.sender].ballance */\n      0x02\n      add\n      sload\n        /* \"Documents/GitHub/Store-system-with-feedback/main.sol\":8602:8672  structUsers[msg.sender].ballance >= structProducts[titleProduct].price */\n      lt\n      iszero\n        /* \"Documents/GitHub/Store-system-with-feedback/main.sol\":8594:8693  require(structUsers[msg.sender].ballance >= structProducts[titleProduct].price, \"error: not money\") */\n      tag_189\n      jumpi\n      mload(0x40)\n      shl(0xe5, 0x461bcd)\n      dup2\n      mstore\n        /* \"#utility.yul\":10904:10906   */\n      0x20\n        /* \"Documents/GitHub/Store-system-with-feedback/main.sol\":8594:8693  require(structUsers[msg.sender].ballance >= structProducts[titleProduct].price, \"error: not money\") */\n      0x04\n      dup3\n      add\n        /* \"#utility.yul\":10886:10907   */\n      mstore\n        /* \"#utility.yul\":10943:10945   */\n      0x10\n        /* \"#utility.yul\":10923:10941   */\n      0x24\n      dup3\n      add\n        /* \"#utility.yul\":10916:10946   */\n      mstore\n      shl(0x80, 0x6572726f723a206e6f74206d6f6e6579)\n        /* \"#utility.yul\":10962:10980   */\n      0x44\n      dup3\n      add\n        /* \"#utility.yul\":10955:11001   */\n      mstore\n        /* \"#utility.yul\":11018:11036   */\n      0x64\n      add\n        /* \"Documents/GitHub/Store-system-with-feedback/main.sol\":8594:8693  require(structUsers[msg.sender].ballance >= structProducts[titleProduct].price, \"error: not money\") */\n      tag_181\n        /* \"#utility.yul\":10702:11042   */\n      jump\n        /* \"Documents/GitHub/Store-system-with-feedback/main.sol\":8594:8693  require(structUsers[msg.sender].ballance >= structProducts[titleProduct].price, \"error: not money\") */\n    tag_189:\n        /* \"Documents/GitHub/Store-system-with-feedback/main.sol\":8731:8783  structStatusPurchase(msg.sender, titleProduct, true) */\n      0x40\n      dup1\n      mload\n      0x60\n      dup2\n      add\n      dup3\n      mstore\n        /* \"Documents/GitHub/Store-system-with-feedback/main.sol\":8752:8762  msg.sender */\n      caller\n        /* \"Documents/GitHub/Store-system-with-feedback/main.sol\":8731:8783  structStatusPurchase(msg.sender, titleProduct, true) */\n      dup2\n      mstore\n      0x20\n      dup1\n      dup3\n      add\n      dup5\n      dup2\n      mstore\n        /* \"Documents/GitHub/Store-system-with-feedback/main.sol\":8778:8782  true */\n      0x01\n        /* \"Documents/GitHub/Store-system-with-feedback/main.sol\":8731:8783  structStatusPurchase(msg.sender, titleProduct, true) */\n      swap4\n      dup4\n      add\n      dup5\n      swap1\n      mstore\n        /* \"Documents/GitHub/Store-system-with-feedback/main.sol\":8704:8725  structStatusPurchases */\n      0x0a\n        /* \"Documents/GitHub/Store-system-with-feedback/main.sol\":8704:8784  structStatusPurchases.push(structStatusPurchase(msg.sender, titleProduct, true)) */\n      dup1\n      sload\n      swap5\n      dup6\n      add\n      dup2\n      sstore\n      0x00\n      mstore\n      dup3\n      mload\n      0xc65a7bb8d6351c1cf70c95a316cc6a92839c986682d98bc35f958f4883f9d2a8\n      0x03\n      swap1\n      swap6\n      mul\n      swap5\n      dup6\n      add\n      dup1\n      sload\n      not(sub(shl(0xa0, 0x01), 0x01))\n      and\n      sub(shl(0xa0, 0x01), 0x01)\n      swap1\n      swap3\n      and\n      swap2\n      swap1\n      swap2\n      or\n      dup2\n      sstore\n      swap1\n      mload\n      dup1\n      mload\n        /* \"Documents/GitHub/Store-system-with-feedback/main.sol\":8731:8783  structStatusPurchase(msg.sender, titleProduct, true) */\n      swap4\n      swap5\n        /* \"Documents/GitHub/Store-system-with-feedback/main.sol\":8704:8784  structStatusPurchases.push(structStatusPurchase(msg.sender, titleProduct, true)) */\n      swap2\n      swap4\n      tag_193\n      swap4\n      0xc65a7bb8d6351c1cf70c95a316cc6a92839c986682d98bc35f958f4883f9d2a9\n      swap1\n      swap4\n      add\n      swap3\n      swap2\n      swap1\n      swap2\n      add\n      swap1\n      tag_184\n      jump\t// in\n    tag_193:\n      pop\n      0x40\n      swap2\n      swap1\n      swap2\n      add\n      mload\n      0x02\n      swap1\n      swap2\n      add\n      dup1\n      sload\n      not(0xff)\n      and\n      swap2\n      iszero\n      iszero\n      swap2\n      swap1\n      swap2\n      or\n      swap1\n      sstore\n      pop\n        /* \"Documents/GitHub/Store-system-with-feedback/main.sol\":8521:8792  function productPurchases (string memory titleProduct) public {\r... */\n      jump\t// out\n        /* \"Documents/GitHub/Store-system-with-feedback/main.sol\":8015:8434  function leaveComment (string memory userName, string[] memory comment) public {\r... */\n    tag_56:\n        /* \"Documents/GitHub/Store-system-with-feedback/main.sol\":8109:8115  uint i */\n      0x00\n        /* \"Documents/GitHub/Store-system-with-feedback/main.sol\":8105:8427  for(uint i = 0; i < complaintBooks.length; i++) {\r... */\n    tag_195:\n        /* \"Documents/GitHub/Store-system-with-feedback/main.sol\":8125:8139  complaintBooks */\n      0x03\n        /* \"Documents/GitHub/Store-system-with-feedback/main.sol\":8125:8146  complaintBooks.length */\n      sload\n        /* \"Documents/GitHub/Store-system-with-feedback/main.sol\":8121:8146  i < complaintBooks.length */\n      dup2\n      lt\n        /* \"Documents/GitHub/Store-system-with-feedback/main.sol\":8105:8427  for(uint i = 0; i < complaintBooks.length; i++) {\r... */\n      iszero\n      tag_196\n      jumpi\n        /* \"Documents/GitHub/Store-system-with-feedback/main.sol\":8168:8194  string memory tempUserName */\n      0x00\n        /* \"Documents/GitHub/Store-system-with-feedback/main.sol\":8197:8211  complaintBooks */\n      0x03\n        /* \"Documents/GitHub/Store-system-with-feedback/main.sol\":8212:8213  i */\n      dup3\n        /* \"Documents/GitHub/Store-system-with-feedback/main.sol\":8197:8214  complaintBooks[i] */\n      dup2\n      sload\n      dup2\n      lt\n      tag_199\n      jumpi\n      tag_199\n      tag_153\n      jump\t// in\n    tag_199:\n      swap1\n      0x00\n      mstore\n      keccak256(0x00, 0x20)\n      swap1\n      0x05\n      mul\n      add\n        /* \"Documents/GitHub/Store-system-with-feedback/main.sol\":8197:8223  complaintBooks[i].userName */\n      0x01\n      add\n        /* \"Documents/GitHub/Store-system-with-feedback/main.sol\":8168:8223  string memory tempUserName = complaintBooks[i].userName */\n      dup1\n      sload\n      tag_201\n      swap1\n      tag_202\n      jump\t// in\n    tag_201:\n      dup1\n      0x1f\n      add\n      0x20\n      dup1\n      swap2\n      div\n      mul\n      0x20\n      add\n      mload(0x40)\n      swap1\n      dup2\n      add\n      0x40\n      mstore\n      dup1\n      swap3\n      swap2\n      swap1\n      dup2\n      dup2\n      mstore\n      0x20\n      add\n      dup3\n      dup1\n      sload\n      tag_203\n      swap1\n      tag_202\n      jump\t// in\n    tag_203:\n      dup1\n      iszero\n      tag_204\n      jumpi\n      dup1\n      0x1f\n      lt\n      tag_205\n      jumpi\n      0x0100\n      dup1\n      dup4\n      sload\n      div\n      mul\n      dup4\n      mstore\n      swap2\n      0x20\n      add\n      swap2\n      jump(tag_204)\n    tag_205:\n      dup3\n      add\n      swap2\n      swap1\n      0x00\n      mstore\n      keccak256(0x00, 0x20)\n      swap1\n    tag_206:\n      dup2\n      sload\n      dup2\n      mstore\n      swap1\n      0x01\n      add\n      swap1\n      0x20\n      add\n      dup1\n      dup4\n      gt\n      tag_206\n      jumpi\n      dup3\n      swap1\n      sub\n      0x1f\n      and\n      dup3\n      add\n      swap2\n    tag_204:\n      pop\n      pop\n      pop\n      pop\n      pop\n      swap1\n      pop\n        /* \"Documents/GitHub/Store-system-with-feedback/main.sol\":8313:8321  userName */\n      dup4\n        /* \"Documents/GitHub/Store-system-with-feedback/main.sol\":8296:8322  abi.encodePacked(userName) */\n      add(0x20, mload(0x40))\n      tag_207\n      swap2\n      swap1\n      tag_148\n      jump\t// in\n    tag_207:\n      mload(0x40)\n      0x20\n      dup2\n      dup4\n      sub\n      sub\n      dup2\n      mstore\n      swap1\n      0x40\n      mstore\n        /* \"Documents/GitHub/Store-system-with-feedback/main.sol\":8286:8323  keccak256(abi.encodePacked(userName)) */\n      dup1\n      mload\n      swap1\n      0x20\n      add\n      keccak256\n        /* \"Documents/GitHub/Store-system-with-feedback/main.sol\":8268:8280  tempUserName */\n      dup2\n        /* \"Documents/GitHub/Store-system-with-feedback/main.sol\":8251:8281  abi.encodePacked(tempUserName) */\n      add(0x20, mload(0x40))\n      tag_208\n      swap2\n      swap1\n      tag_148\n      jump\t// in\n    tag_208:\n      mload(0x40)\n      0x20\n      dup2\n      dup4\n      sub\n      sub\n      dup2\n      mstore\n      swap1\n      0x40\n      mstore\n        /* \"Documents/GitHub/Store-system-with-feedback/main.sol\":8241:8282  keccak256(abi.encodePacked(tempUserName)) */\n      dup1\n      mload\n      swap1\n      0x20\n      add\n      keccak256\n        /* \"Documents/GitHub/Store-system-with-feedback/main.sol\":8241:8323  keccak256(abi.encodePacked(tempUserName)) == keccak256(abi.encodePacked(userName)) */\n      eq\n        /* \"Documents/GitHub/Store-system-with-feedback/main.sol\":8238:8416  if(keccak256(abi.encodePacked(tempUserName)) == keccak256(abi.encodePacked(userName))) {                    \r... */\n      iszero\n      tag_209\n      jumpi\n        /* \"Documents/GitHub/Store-system-with-feedback/main.sol\":8393:8400  comment */\n      dup3\n        /* \"Documents/GitHub/Store-system-with-feedback/main.sol\":8364:8378  complaintBooks */\n      0x03\n        /* \"Documents/GitHub/Store-system-with-feedback/main.sol\":8379:8380  i */\n      dup4\n        /* \"Documents/GitHub/Store-system-with-feedback/main.sol\":8364:8381  complaintBooks[i] */\n      dup2\n      sload\n      dup2\n      lt\n      tag_211\n      jumpi\n      tag_211\n      tag_153\n      jump\t// in\n    tag_211:\n      swap1\n      0x00\n      mstore\n      keccak256(0x00, 0x20)\n      swap1\n      0x05\n      mul\n      add\n        /* \"Documents/GitHub/Store-system-with-feedback/main.sol\":8364:8390  complaintBooks[i].comments */\n      0x04\n      add\n        /* \"Documents/GitHub/Store-system-with-feedback/main.sol\":8364:8400  complaintBooks[i].comments = comment */\n      swap1\n      dup1\n      mload\n      swap1\n      0x20\n      add\n      swap1\n      tag_213\n      swap3\n      swap2\n      swap1\n      tag_214\n      jump\t// in\n    tag_213:\n      pop\n        /* \"Documents/GitHub/Store-system-with-feedback/main.sol\":8238:8416  if(keccak256(abi.encodePacked(tempUserName)) == keccak256(abi.encodePacked(userName))) {                    \r... */\n    tag_209:\n      pop\n        /* \"Documents/GitHub/Store-system-with-feedback/main.sol\":8148:8151  i++ */\n      dup1\n      tag_215\n      dup2\n      tag_216\n      jump\t// in\n    tag_215:\n      swap2\n      pop\n      pop\n        /* \"Documents/GitHub/Store-system-with-feedback/main.sol\":8105:8427  for(uint i = 0; i < complaintBooks.length; i++) {\r... */\n      jump(tag_195)\n    tag_196:\n      pop\n        /* \"Documents/GitHub/Store-system-with-feedback/main.sol\":8015:8434  function leaveComment (string memory userName, string[] memory comment) public {\r... */\n      pop\n      pop\n      jump\t// out\n        /* \"Documents/GitHub/Store-system-with-feedback/main.sol\":5742:6203  function acceptReturn(uint idReturn, bool confirmation) public {\r... */\n    tag_59:\n        /* \"Documents/GitHub/Store-system-with-feedback/main.sol\":5835:5839  true */\n      0x01\n        /* \"Documents/GitHub/Store-system-with-feedback/main.sol\":5819:5839  confirmation == true */\n      dup2\n      iszero\n      iszero\n      eq\n        /* \"Documents/GitHub/Store-system-with-feedback/main.sol\":5816:6196  if(confirmation == true) {\r... */\n      iszero\n      tag_218\n      jumpi\n        /* \"Documents/GitHub/Store-system-with-feedback/main.sol\":5895:5900  false */\n      0x00\n        /* \"Documents/GitHub/Store-system-with-feedback/main.sol\":5856:5875  structStatusReturns */\n      0x0b\n        /* \"Documents/GitHub/Store-system-with-feedback/main.sol\":5876:5884  idReturn */\n      dup4\n        /* \"Documents/GitHub/Store-system-with-feedback/main.sol\":5856:5885  structStatusReturns[idReturn] */\n      dup2\n      sload\n      dup2\n      lt\n      tag_220\n      jumpi\n      tag_220\n      tag_153\n      jump\t// in\n    tag_220:\n      swap1\n      0x00\n      mstore\n      keccak256(0x00, 0x20)\n      swap1\n      0x03\n      mul\n      add\n        /* \"Documents/GitHub/Store-system-with-feedback/main.sol\":5856:5892  structStatusReturns[idReturn].status */\n      0x02\n      add\n      0x00\n        /* \"Documents/GitHub/Store-system-with-feedback/main.sol\":5856:5900  structStatusReturns[idReturn].status = false */\n      0x0100\n      exp\n      dup2\n      sload\n      dup2\n      0xff\n      mul\n      not\n      and\n      swap1\n      dup4\n      iszero\n      iszero\n      mul\n      or\n      swap1\n      sstore\n      pop\n        /* \"Documents/GitHub/Store-system-with-feedback/main.sol\":6043:6057  structProducts */\n      0x08\n        /* \"Documents/GitHub/Store-system-with-feedback/main.sol\":6058:6077  structStatusReturns */\n      0x0b\n        /* \"Documents/GitHub/Store-system-with-feedback/main.sol\":6078:6086  idReturn */\n      dup4\n        /* \"Documents/GitHub/Store-system-with-feedback/main.sol\":6058:6087  structStatusReturns[idReturn] */\n      dup2\n      sload\n      dup2\n      lt\n      tag_223\n      jumpi\n      tag_223\n      tag_153\n      jump\t// in\n    tag_223:\n      swap1\n      0x00\n      mstore\n      keccak256(0x00, 0x20)\n      swap1\n      0x03\n      mul\n      add\n        /* \"Documents/GitHub/Store-system-with-feedback/main.sol\":6058:6100  structStatusReturns[idReturn].titleProduct */\n      0x01\n      add\n        /* \"Documents/GitHub/Store-system-with-feedback/main.sol\":6043:6101  structProducts[structStatusReturns[idReturn].titleProduct] */\n      mload(0x40)\n      tag_225\n      swap2\n      swap1\n      tag_159\n      jump\t// in\n    tag_225:\n      swap1\n      dup2\n      mstore\n      0x20\n      add\n      mload(0x40)\n      dup1\n      swap2\n      sub\n      swap1\n      keccak256\n        /* \"Documents/GitHub/Store-system-with-feedback/main.sol\":6043:6107  structProducts[structStatusReturns[idReturn].titleProduct].price */\n      0x02\n      add\n      sload\n        /* \"Documents/GitHub/Store-system-with-feedback/main.sol\":5979:5990  structUsers */\n      0x04\n        /* \"Documents/GitHub/Store-system-with-feedback/main.sol\":5979:6031  structUsers[structStatusReturns[idReturn].userLogin] */\n      0x00\n        /* \"Documents/GitHub/Store-system-with-feedback/main.sol\":5991:6010  structStatusReturns */\n      0x0b\n        /* \"Documents/GitHub/Store-system-with-feedback/main.sol\":6011:6019  idReturn */\n      dup6\n        /* \"Documents/GitHub/Store-system-with-feedback/main.sol\":5991:6020  structStatusReturns[idReturn] */\n      dup2\n      sload\n      dup2\n      lt\n      tag_227\n      jumpi\n      tag_227\n      tag_153\n      jump\t// in\n    tag_227:\n      0x00\n      swap2\n      dup3\n      mstore\n      0x20\n      dup1\n      dup4\n      keccak256\n      0x03\n      swap1\n      swap3\n      mul\n      swap1\n      swap2\n      add\n        /* \"Documents/GitHub/Store-system-with-feedback/main.sol\":5991:6030  structStatusReturns[idReturn].userLogin */\n      sload\n      sub(shl(0xa0, 0x01), 0x01)\n      and\n        /* \"Documents/GitHub/Store-system-with-feedback/main.sol\":5979:6031  structUsers[structStatusReturns[idReturn].userLogin] */\n      dup4\n      mstore\n      dup3\n      add\n      swap3\n      swap1\n      swap3\n      mstore\n      0x40\n      add\n      swap1\n      keccak256\n        /* \"Documents/GitHub/Store-system-with-feedback/main.sol\":5979:6040  structUsers[structStatusReturns[idReturn].userLogin].ballance */\n      0x02\n      add\n      sload\n        /* \"Documents/GitHub/Store-system-with-feedback/main.sol\":5979:6107  structUsers[structStatusReturns[idReturn].userLogin].ballance + structProducts[structStatusReturns[idReturn].titleProduct].price */\n      tag_229\n      swap2\n      swap1\n      tag_173\n      jump\t// in\n    tag_229:\n        /* \"Documents/GitHub/Store-system-with-feedback/main.sol\":5915:5926  structUsers */\n      0x04\n        /* \"Documents/GitHub/Store-system-with-feedback/main.sol\":5915:5967  structUsers[structStatusReturns[idReturn].userLogin] */\n      0x00\n        /* \"Documents/GitHub/Store-system-with-feedback/main.sol\":5927:5946  structStatusReturns */\n      0x0b\n        /* \"Documents/GitHub/Store-system-with-feedback/main.sol\":5947:5955  idReturn */\n      dup6\n        /* \"Documents/GitHub/Store-system-with-feedback/main.sol\":5927:5956  structStatusReturns[idReturn] */\n      dup2\n      sload\n      dup2\n      lt\n      tag_231\n      jumpi\n      tag_231\n      tag_153\n      jump\t// in\n    tag_231:\n      0x00\n      swap2\n      dup3\n      mstore\n      0x20\n      dup1\n      dup4\n      keccak256\n      0x03\n      swap1\n      swap3\n      mul\n      swap1\n      swap2\n      add\n        /* \"Documents/GitHub/Store-system-with-feedback/main.sol\":5927:5966  structStatusReturns[idReturn].userLogin */\n      sload\n      sub(shl(0xa0, 0x01), 0x01)\n      and\n        /* \"Documents/GitHub/Store-system-with-feedback/main.sol\":5915:5967  structUsers[structStatusReturns[idReturn].userLogin] */\n      dup4\n      mstore\n      dup3\n      add\n      swap3\n      swap1\n      swap3\n      mstore\n      0x40\n      add\n      swap1\n      keccak256\n        /* \"Documents/GitHub/Store-system-with-feedback/main.sol\":5915:5976  structUsers[structStatusReturns[idReturn].userLogin].ballance */\n      0x02\n      add\n        /* \"Documents/GitHub/Store-system-with-feedback/main.sol\":5915:6107  structUsers[structStatusReturns[idReturn].userLogin].ballance = structUsers[structStatusReturns[idReturn].userLogin].ballance + structProducts[structStatusReturns[idReturn].titleProduct].price */\n      sstore\n        /* \"Documents/GitHub/Store-system-with-feedback/main.sol\":5069:5697  function acceptPurchase (uint idPurchase, bool confirmation) public {\r... */\n      pop\n      pop\n      jump\t// out\n        /* \"Documents/GitHub/Store-system-with-feedback/main.sol\":5816:6196  if(confirmation == true) {\r... */\n    tag_218:\n        /* \"Documents/GitHub/Store-system-with-feedback/main.sol\":6179:6184  false */\n      0x00\n        /* \"Documents/GitHub/Store-system-with-feedback/main.sol\":6140:6159  structStatusReturns */\n      0x0b\n        /* \"Documents/GitHub/Store-system-with-feedback/main.sol\":6160:6168  idReturn */\n      dup4\n        /* \"Documents/GitHub/Store-system-with-feedback/main.sol\":6140:6169  structStatusReturns[idReturn] */\n      dup2\n      sload\n      dup2\n      lt\n      tag_176\n      jumpi\n      tag_176\n      tag_153\n      jump\t// in\n        /* \"Documents/GitHub/Store-system-with-feedback/main.sol\":9031:9215  function productMarriageRegistration (string memory titleProduct) public {\r... */\n    tag_62:\n        /* \"Documents/GitHub/Store-system-with-feedback/main.sol\":9148:9206  structMarriageRegistration(msg.sender, titleProduct, true) */\n      0x40\n      dup1\n      mload\n      0x60\n      dup2\n      add\n      dup3\n      mstore\n        /* \"Documents/GitHub/Store-system-with-feedback/main.sol\":9175:9185  msg.sender */\n      caller\n        /* \"Documents/GitHub/Store-system-with-feedback/main.sol\":9148:9206  structMarriageRegistration(msg.sender, titleProduct, true) */\n      dup2\n      mstore\n      0x20\n      dup1\n      dup3\n      add\n      dup5\n      dup2\n      mstore\n        /* \"Documents/GitHub/Store-system-with-feedback/main.sol\":9201:9205  true */\n      0x01\n        /* \"Documents/GitHub/Store-system-with-feedback/main.sol\":9148:9206  structMarriageRegistration(msg.sender, titleProduct, true) */\n      swap4\n      dup4\n      add\n      dup5\n      swap1\n      mstore\n        /* \"Documents/GitHub/Store-system-with-feedback/main.sol\":9115:9142  structMarriageRegistrations */\n      0x0c\n        /* \"Documents/GitHub/Store-system-with-feedback/main.sol\":9115:9207  structMarriageRegistrations.push(structMarriageRegistration(msg.sender, titleProduct, true)) */\n      dup1\n      sload\n      swap5\n      dup6\n      add\n      dup2\n      sstore\n      0x00\n      mstore\n      dup3\n      mload\n      0xdf6966c971051c3d54ec59162606531493a51404a002842f56009d7e5cf4a8c7\n      0x03\n      swap1\n      swap6\n      mul\n      swap5\n      dup6\n      add\n      dup1\n      sload\n      not(sub(shl(0xa0, 0x01), 0x01))\n      and\n      sub(shl(0xa0, 0x01), 0x01)\n      swap1\n      swap3\n      and\n      swap2\n      swap1\n      swap2\n      or\n      dup2\n      sstore\n      swap1\n      mload\n      dup1\n      mload\n        /* \"Documents/GitHub/Store-system-with-feedback/main.sol\":9148:9206  structMarriageRegistration(msg.sender, titleProduct, true) */\n      swap4\n      swap5\n        /* \"Documents/GitHub/Store-system-with-feedback/main.sol\":9115:9207  structMarriageRegistrations.push(structMarriageRegistration(msg.sender, titleProduct, true)) */\n      swap2\n      swap4\n      tag_193\n      swap4\n      0xdf6966c971051c3d54ec59162606531493a51404a002842f56009d7e5cf4a8c8\n      swap1\n      swap4\n      add\n      swap3\n      swap2\n      swap1\n      swap2\n      add\n      swap1\n      tag_184\n      jump\t// in\n        /* \"Documents/GitHub/Store-system-with-feedback/main.sol\":6990:7090  function getProductList() public view returns(string[] memory) {\r... */\n    tag_64:\n        /* \"Documents/GitHub/Store-system-with-feedback/main.sol\":7036:7051  string[] memory */\n      0x60\n        /* \"Documents/GitHub/Store-system-with-feedback/main.sol\":7071:7082  productList */\n      0x09\n        /* \"Documents/GitHub/Store-system-with-feedback/main.sol\":7064:7082  return productList */\n      dup1\n      sload\n      dup1\n      0x20\n      mul\n      0x20\n      add\n      mload(0x40)\n      swap1\n      dup2\n      add\n      0x40\n      mstore\n      dup1\n      swap3\n      swap2\n      swap1\n      dup2\n      dup2\n      mstore\n      0x20\n      add\n      0x00\n      swap1\n    tag_241:\n      dup3\n      dup3\n      lt\n      iszero\n      tag_242\n      jumpi\n      dup4\n      dup3\n      swap1\n      0x00\n      mstore\n      keccak256(0x00, 0x20)\n      add\n      dup1\n      sload\n      tag_244\n      swap1\n      tag_202\n      jump\t// in\n    tag_244:\n      dup1\n      0x1f\n      add\n      0x20\n      dup1\n      swap2\n      div\n      mul\n      0x20\n      add\n      mload(0x40)\n      swap1\n      dup2\n      add\n      0x40\n      mstore\n      dup1\n      swap3\n      swap2\n      swap1\n      dup2\n      dup2\n      mstore\n      0x20\n      add\n      dup3\n      dup1\n      sload\n      tag_245\n      swap1\n      tag_202\n      jump\t// in\n    tag_245:\n      dup1\n      iszero\n      tag_246\n      jumpi\n      dup1\n      0x1f\n      lt\n      tag_247\n      jumpi\n      0x0100\n      dup1\n      dup4\n      sload\n      div\n      mul\n      dup4\n      mstore\n      swap2\n      0x20\n      add\n      swap2\n      jump(tag_246)\n    tag_247:\n      dup3\n      add\n      swap2\n      swap1\n      0x00\n      mstore\n      keccak256(0x00, 0x20)\n      swap1\n    tag_248:\n      dup2\n      sload\n      dup2\n      mstore\n      swap1\n      0x01\n      add\n      swap1\n      0x20\n      add\n      dup1\n      dup4\n      gt\n      tag_248\n      jumpi\n      dup3\n      swap1\n      sub\n      0x1f\n      and\n      dup3\n      add\n      swap2\n    tag_246:\n      pop\n      pop\n      pop\n      pop\n      pop\n      dup2\n      mstore\n      0x20\n      add\n      swap1\n      0x01\n      add\n      swap1\n      jump(tag_241)\n    tag_242:\n      pop\n      pop\n      pop\n      pop\n      swap1\n      pop\n        /* \"Documents/GitHub/Store-system-with-feedback/main.sol\":6990:7090  function getProductList() public view returns(string[] memory) {\r... */\n      swap1\n      jump\t// out\n        /* \"Documents/GitHub/Store-system-with-feedback/main.sol\":1385:1516  function check_logged_shop(string memory login) public view returns(bool) {\r... */\n    tag_69:\n        /* \"Documents/GitHub/Store-system-with-feedback/main.sol\":1453:1457  bool */\n      0x00\n        /* \"Documents/GitHub/Store-system-with-feedback/main.sol\":1477:1482  shops */\n      dup1\n        /* \"Documents/GitHub/Store-system-with-feedback/main.sol\":1477:1500  shops[shopLists[login]] */\n      0x00\n        /* \"Documents/GitHub/Store-system-with-feedback/main.sol\":1483:1492  shopLists */\n      0x01\n        /* \"Documents/GitHub/Store-system-with-feedback/main.sol\":1493:1498  login */\n      dup5\n        /* \"Documents/GitHub/Store-system-with-feedback/main.sol\":1483:1499  shopLists[login] */\n      mload(0x40)\n      tag_250\n      swap2\n      swap1\n      tag_148\n      jump\t// in\n    tag_250:\n      swap1\n      dup2\n      mstore\n      0x40\n      dup1\n      mload\n      0x20\n      swap3\n      dup2\n      swap1\n      sub\n      dup4\n      add\n      swap1\n      keccak256\n      sload\n      sub(shl(0xa0, 0x01), 0x01)\n      and\n        /* \"Documents/GitHub/Store-system-with-feedback/main.sol\":1477:1500  shops[shopLists[login]] */\n      dup4\n      mstore\n      swap1\n      dup3\n      add\n      swap3\n      swap1\n      swap3\n      mstore\n      add\n      0x00\n      keccak256\n        /* \"Documents/GitHub/Store-system-with-feedback/main.sol\":1477:1507  shops[shopLists[login]].logged */\n      0x04\n      add\n      sload\n      0xff\n      and\n      swap3\n      swap2\n      pop\n      pop\n        /* \"Documents/GitHub/Store-system-with-feedback/main.sol\":1385:1516  function check_logged_shop(string memory login) public view returns(bool) {\r... */\n      jump\t// out\n        /* \"Documents/GitHub/Store-system-with-feedback/main.sol\":1200:1344  function check_logged_user(string memory login) public view returns(bool) {\r... */\n    tag_74:\n        /* \"Documents/GitHub/Store-system-with-feedback/main.sol\":1268:1272  bool */\n      0x00\n        /* \"Documents/GitHub/Store-system-with-feedback/main.sol\":1292:1303  structUsers */\n      0x04\n        /* \"Documents/GitHub/Store-system-with-feedback/main.sol\":1292:1328  structUsers[structUserLogins[login]] */\n      0x00\n        /* \"Documents/GitHub/Store-system-with-feedback/main.sol\":1304:1320  structUserLogins */\n      0x05\n        /* \"Documents/GitHub/Store-system-with-feedback/main.sol\":1321:1326  login */\n      dup5\n        /* \"Documents/GitHub/Store-system-with-feedback/main.sol\":1304:1327  structUserLogins[login] */\n      mload(0x40)\n      tag_250\n      swap2\n      swap1\n      tag_148\n      jump\t// in\n        /* \"Documents/GitHub/Store-system-with-feedback/main.sol\":1552:1690  function get_role_user(string memory login) public view returns(uint) {\r... */\n    tag_78:\n        /* \"Documents/GitHub/Store-system-with-feedback/main.sol\":1616:1620  uint */\n      0x00\n        /* \"Documents/GitHub/Store-system-with-feedback/main.sol\":1640:1651  structUsers */\n      0x04\n        /* \"Documents/GitHub/Store-system-with-feedback/main.sol\":1640:1676  structUsers[structUserLogins[login]] */\n      0x00\n        /* \"Documents/GitHub/Store-system-with-feedback/main.sol\":1652:1668  structUserLogins */\n      0x05\n        /* \"Documents/GitHub/Store-system-with-feedback/main.sol\":1669:1674  login */\n      dup5\n        /* \"Documents/GitHub/Store-system-with-feedback/main.sol\":1652:1675  structUserLogins[login] */\n      mload(0x40)\n      tag_147\n      swap2\n      swap1\n      tag_148\n      jump\t// in\n        /* \"Documents/GitHub/Store-system-with-feedback/main.sol\":9259:9380  function get_address(string memory login) public view returns(address) {\r... */\n    tag_82:\n        /* \"Documents/GitHub/Store-system-with-feedback/main.sol\":9321:9328  address */\n      0x00\n        /* \"Documents/GitHub/Store-system-with-feedback/main.sol\":9348:9364  structUserLogins */\n      0x05\n        /* \"Documents/GitHub/Store-system-with-feedback/main.sol\":9365:9370  login */\n      dup3\n        /* \"Documents/GitHub/Store-system-with-feedback/main.sol\":9348:9371  structUserLogins[login] */\n      mload(0x40)\n      tag_256\n      swap2\n      swap1\n      tag_148\n      jump\t// in\n    tag_256:\n      swap1\n      dup2\n      mstore\n      mload(0x40)\n      swap1\n      dup2\n      swap1\n      sub\n      0x20\n      add\n      swap1\n      keccak256\n      sload\n      sub(shl(0xa0, 0x01), 0x01)\n      and\n      swap3\n        /* \"Documents/GitHub/Store-system-with-feedback/main.sol\":9259:9380  function get_address(string memory login) public view returns(address) {\r... */\n      swap2\n      pop\n      pop\n      jump\t// out\n        /* \"Documents/GitHub/Store-system-with-feedback/main.sol\":3990:4389  function addProductShop (string memory title, uint256 price, string memory description) public {\r... */\n    tag_87:\n        /* \"Documents/GitHub/Store-system-with-feedback/main.sol\":4205:4277  structProduct(msg.sender, description , price, addProductShop_idProduct) */\n      mload(0x40)\n      dup1\n      0x80\n      add\n      0x40\n      mstore\n      dup1\n        /* \"Documents/GitHub/Store-system-with-feedback/main.sol\":4219:4229  msg.sender */\n      caller\n      sub(shl(0xa0, 0x01), 0x01)\n        /* \"Documents/GitHub/Store-system-with-feedback/main.sol\":4205:4277  structProduct(msg.sender, description , price, addProductShop_idProduct) */\n      and\n      dup2\n      mstore\n      0x20\n      add\n        /* \"Documents/GitHub/Store-system-with-feedback/main.sol\":4231:4242  description */\n      dup3\n        /* \"Documents/GitHub/Store-system-with-feedback/main.sol\":4205:4277  structProduct(msg.sender, description , price, addProductShop_idProduct) */\n      dup2\n      mstore\n      0x20\n      add\n        /* \"Documents/GitHub/Store-system-with-feedback/main.sol\":4245:4250  price */\n      dup4\n        /* \"Documents/GitHub/Store-system-with-feedback/main.sol\":4205:4277  structProduct(msg.sender, description , price, addProductShop_idProduct) */\n      dup2\n      mstore\n      0x20\n      add\n        /* \"Documents/GitHub/Store-system-with-feedback/main.sol\":4252:4276  addProductShop_idProduct */\n      sload(0x0d)\n        /* \"Documents/GitHub/Store-system-with-feedback/main.sol\":4205:4277  structProduct(msg.sender, description , price, addProductShop_idProduct) */\n      dup2\n      mstore\n      pop\n        /* \"Documents/GitHub/Store-system-with-feedback/main.sol\":4181:4195  structProducts */\n      0x08\n        /* \"Documents/GitHub/Store-system-with-feedback/main.sol\":4196:4201  title */\n      dup5\n        /* \"Documents/GitHub/Store-system-with-feedback/main.sol\":4181:4202  structProducts[title] */\n      mload(0x40)\n      tag_258\n      swap2\n      swap1\n      tag_148\n      jump\t// in\n    tag_258:\n      swap1\n      dup2\n      mstore\n      mload(0x40)\n      0x20\n      swap2\n      dup2\n      swap1\n      sub\n      dup3\n      add\n      swap1\n      keccak256\n        /* \"Documents/GitHub/Store-system-with-feedback/main.sol\":4181:4277  structProducts[title] = structProduct(msg.sender, description , price, addProductShop_idProduct) */\n      dup3\n      mload\n      dup2\n      sload\n      not(sub(shl(0xa0, 0x01), 0x01))\n      and\n      sub(shl(0xa0, 0x01), 0x01)\n      swap1\n      swap2\n      and\n      or\n      dup2\n      sstore\n      dup3\n      dup3\n      add\n      mload\n      dup1\n      mload\n        /* \"Documents/GitHub/Store-system-with-feedback/main.sol\":4181:4202  structProducts[title] */\n      swap2\n      swap3\n        /* \"Documents/GitHub/Store-system-with-feedback/main.sol\":4181:4277  structProducts[title] = structProduct(msg.sender, description , price, addProductShop_idProduct) */\n      tag_259\n      swap3\n      0x01\n      dup6\n      add\n      swap3\n      swap1\n      swap2\n      add\n      swap1\n      tag_184\n      jump\t// in\n    tag_259:\n      pop\n      0x40\n      dup3\n      add\n      mload\n      0x02\n      dup3\n      add\n      sstore\n      0x60\n      swap1\n      swap2\n      add\n      mload\n      0x03\n      swap1\n      swap2\n      add\n      sstore\n        /* \"Documents/GitHub/Store-system-with-feedback/main.sol\":4292:4303  productList */\n      0x09\n        /* \"Documents/GitHub/Store-system-with-feedback/main.sol\":4292:4315  productList.push(title) */\n      dup1\n      sload\n      0x01\n      dup2\n      add\n      dup3\n      sstore\n      0x00\n      swap2\n      swap1\n      swap2\n      mstore\n      dup4\n      mload\n      tag_261\n      swap2\n      0x6e1540171b6c0c960b71a7020d9f60077f6af931a8bbf590da0223dacf75c7af\n      add\n      swap1\n      0x20\n      dup7\n      add\n      swap1\n      tag_184\n      jump\t// in\n    tag_261:\n      pop\n        /* \"Documents/GitHub/Store-system-with-feedback/main.sol\":4330:4354  addProductShop_idProduct */\n      0x0d\n        /* \"Documents/GitHub/Store-system-with-feedback/main.sol\":4330:4356  addProductShop_idProduct++ */\n      dup1\n      sload\n      swap1\n        /* \"Documents/GitHub/Store-system-with-feedback/main.sol\":4330:4354  addProductShop_idProduct */\n      0x00\n        /* \"Documents/GitHub/Store-system-with-feedback/main.sol\":4330:4356  addProductShop_idProduct++ */\n      tag_262\n      dup4\n      tag_216\n      jump\t// in\n    tag_262:\n      swap2\n      swap1\n      pop\n      sstore\n      pop\n        /* \"Documents/GitHub/Store-system-with-feedback/main.sol\":3990:4389  function addProductShop (string memory title, uint256 price, string memory description) public {\r... */\n      pop\n      pop\n      pop\n      jump\t// out\n        /* \"Documents/GitHub/Store-system-with-feedback/main.sol\":10240:10624  function login_shop(string memory login, bytes32 password) public {\r... */\n    tag_91:\n        /* \"Documents/GitHub/Store-system-with-feedback/main.sol\":10325:10330  shops */\n      0x00\n        /* \"Documents/GitHub/Store-system-with-feedback/main.sol\":10325:10348  shops[shopLists[login]] */\n      dup1\n        /* \"Documents/GitHub/Store-system-with-feedback/main.sol\":10331:10340  shopLists */\n      0x01\n        /* \"Documents/GitHub/Store-system-with-feedback/main.sol\":10341:10346  login */\n      dup5\n        /* \"Documents/GitHub/Store-system-with-feedback/main.sol\":10331:10347  shopLists[login] */\n      mload(0x40)\n      tag_264\n      swap2\n      swap1\n      tag_148\n      jump\t// in\n    tag_264:\n      swap1\n      dup2\n      mstore\n      0x40\n      dup1\n      mload\n      0x20\n      swap3\n      dup2\n      swap1\n      sub\n      dup4\n      add\n      swap1\n      keccak256\n      sload\n      sub(shl(0xa0, 0x01), 0x01)\n      and\n        /* \"Documents/GitHub/Store-system-with-feedback/main.sol\":10325:10348  shops[shopLists[login]] */\n      dup4\n      mstore\n      swap1\n      dup3\n      add\n      swap3\n      swap1\n      swap3\n      mstore\n      add\n      0x00\n      keccak256\n        /* \"Documents/GitHub/Store-system-with-feedback/main.sol\":10325:10355  shops[shopLists[login]].logged */\n      0x04\n      add\n      sload\n      0xff\n      and\n        /* \"Documents/GitHub/Store-system-with-feedback/main.sol\":10325:10364  shops[shopLists[login]].logged == false */\n      iszero\n        /* \"Documents/GitHub/Store-system-with-feedback/main.sol\":10317:10398  require(shops[shopLists[login]].logged == false, \"Error: You are already logged\") */\n      tag_265\n      jumpi\n      mload(0x40)\n      shl(0xe5, 0x461bcd)\n      dup2\n      mstore\n      0x04\n      add\n      tag_181\n      swap1\n      tag_267\n      jump\t// in\n    tag_265:\n        /* \"Documents/GitHub/Store-system-with-feedback/main.sol\":10445:10446  0 */\n      0x00\n      sub(shl(0xa0, 0x01), 0x01)\n        /* \"Documents/GitHub/Store-system-with-feedback/main.sol\":10417:10447  shopLists[login] != address(0) */\n      and\n        /* \"Documents/GitHub/Store-system-with-feedback/main.sol\":10417:10426  shopLists */\n      0x01\n        /* \"Documents/GitHub/Store-system-with-feedback/main.sol\":10427:10432  login */\n      dup4\n        /* \"Documents/GitHub/Store-system-with-feedback/main.sol\":10417:10433  shopLists[login] */\n      mload(0x40)\n      tag_268\n      swap2\n      swap1\n      tag_148\n      jump\t// in\n    tag_268:\n      swap1\n      dup2\n      mstore\n      mload(0x40)\n      swap1\n      dup2\n      swap1\n      sub\n      0x20\n      add\n      swap1\n      keccak256\n      sload\n      sub(shl(0xa0, 0x01), 0x01)\n      and\n        /* \"Documents/GitHub/Store-system-with-feedback/main.sol\":10417:10447  shopLists[login] != address(0) */\n      eq\n      iszero\n        /* \"Documents/GitHub/Store-system-with-feedback/main.sol\":10409:10477  require(shopLists[login] != address(0), \"Error: User doesn't exist\") */\n      tag_269\n      jumpi\n      mload(0x40)\n      shl(0xe5, 0x461bcd)\n      dup2\n      mstore\n      0x04\n      add\n      tag_181\n      swap1\n      tag_271\n      jump\t// in\n    tag_269:\n        /* \"Documents/GitHub/Store-system-with-feedback/main.sol\":10532:10540  password */\n      dup1\n        /* \"Documents/GitHub/Store-system-with-feedback/main.sol\":10496:10501  shops */\n      0x00\n        /* \"Documents/GitHub/Store-system-with-feedback/main.sol\":10496:10519  shops[shopLists[login]] */\n      dup1\n        /* \"Documents/GitHub/Store-system-with-feedback/main.sol\":10502:10511  shopLists */\n      0x01\n        /* \"Documents/GitHub/Store-system-with-feedback/main.sol\":10512:10517  login */\n      dup6\n        /* \"Documents/GitHub/Store-system-with-feedback/main.sol\":10502:10518  shopLists[login] */\n      mload(0x40)\n      tag_272\n      swap2\n      swap1\n      tag_148\n      jump\t// in\n    tag_272:\n      swap1\n      dup2\n      mstore\n      0x40\n      dup1\n      mload\n      0x20\n      swap3\n      dup2\n      swap1\n      sub\n      dup4\n      add\n      swap1\n      keccak256\n      sload\n      sub(shl(0xa0, 0x01), 0x01)\n      and\n        /* \"Documents/GitHub/Store-system-with-feedback/main.sol\":10496:10519  shops[shopLists[login]] */\n      dup4\n      mstore\n      swap1\n      dup3\n      add\n      swap3\n      swap1\n      swap3\n      mstore\n      add\n      0x00\n      keccak256\n        /* \"Documents/GitHub/Store-system-with-feedback/main.sol\":10502:10518  shopLists[login] */\n      0x01\n        /* \"Documents/GitHub/Store-system-with-feedback/main.sol\":10496:10528  shops[shopLists[login]].password */\n      add\n      sload\n        /* \"Documents/GitHub/Store-system-with-feedback/main.sol\":10496:10540  shops[shopLists[login]].password == password */\n      eq\n        /* \"Documents/GitHub/Store-system-with-feedback/main.sol\":10488:10568  require(shops[shopLists[login]].password == password, \"Error: Invalid password\") */\n      tag_273\n      jumpi\n      mload(0x40)\n      shl(0xe5, 0x461bcd)\n      dup2\n      mstore\n      0x04\n      add\n      tag_181\n      swap1\n      tag_275\n      jump\t// in\n    tag_273:\n        /* \"Documents/GitHub/Store-system-with-feedback/main.sol\":10612:10616  true */\n      0x01\n        /* \"Documents/GitHub/Store-system-with-feedback/main.sol\":10579:10584  shops */\n      0x00\n        /* \"Documents/GitHub/Store-system-with-feedback/main.sol\":10579:10602  shops[shopLists[login]] */\n      dup1\n        /* \"Documents/GitHub/Store-system-with-feedback/main.sol\":10585:10594  shopLists */\n      0x01\n        /* \"Documents/GitHub/Store-system-with-feedback/main.sol\":10595:10600  login */\n      dup6\n        /* \"Documents/GitHub/Store-system-with-feedback/main.sol\":10585:10601  shopLists[login] */\n      mload(0x40)\n      tag_276\n      swap2\n      swap1\n      tag_148\n      jump\t// in\n    tag_276:\n      swap1\n      dup2\n      mstore\n      0x40\n      dup1\n      mload\n      0x20\n      swap3\n      dup2\n      swap1\n      sub\n      dup4\n      add\n      swap1\n      keccak256\n      sload\n      sub(shl(0xa0, 0x01), 0x01)\n      and\n        /* \"Documents/GitHub/Store-system-with-feedback/main.sol\":10579:10602  shops[shopLists[login]] */\n      dup4\n      mstore\n      swap1\n      dup3\n      add\n      swap3\n      swap1\n      swap3\n      mstore\n      add\n      0x00\n      keccak256\n        /* \"Documents/GitHub/Store-system-with-feedback/main.sol\":10579:10609  shops[shopLists[login]].logged */\n      0x04\n      add\n        /* \"Documents/GitHub/Store-system-with-feedback/main.sol\":10579:10616  shops[shopLists[login]].logged = true */\n      dup1\n      sload\n      not(0xff)\n      and\n      swap2\n      iszero\n      iszero\n      swap2\n      swap1\n      swap2\n      or\n      swap1\n      sstore\n      pop\n      pop\n        /* \"Documents/GitHub/Store-system-with-feedback/main.sol\":10240:10624  function login_shop(string memory login, bytes32 password) public {\r... */\n      jump\t// out\n        /* \"Documents/GitHub/Store-system-with-feedback/main.sol\":3805:3868  structMarriageRegistration[] public structMarriageRegistrations */\n    tag_95:\n      0x0c\n      dup2\n      dup2\n      sload\n      dup2\n      lt\n      tag_277\n      jumpi\n      0x00\n      dup1\n      revert\n    tag_277:\n      0x00\n      swap2\n      dup3\n      mstore\n      0x20\n      swap1\n      swap2\n      keccak256\n      0x03\n      swap1\n      swap2\n      mul\n      add\n      dup1\n      sload\n      0x01\n      dup3\n      add\n      dup1\n      sload\n      sub(shl(0xa0, 0x01), 0x01)\n      swap1\n      swap3\n      and\n      swap4\n      pop\n      swap1\n      tag_279\n      swap1\n      tag_202\n      jump\t// in\n    tag_279:\n      dup1\n      0x1f\n      add\n      0x20\n      dup1\n      swap2\n      div\n      mul\n      0x20\n      add\n      mload(0x40)\n      swap1\n      dup2\n      add\n      0x40\n      mstore\n      dup1\n      swap3\n      swap2\n      swap1\n      dup2\n      dup2\n      mstore\n      0x20\n      add\n      dup3\n      dup1\n      sload\n      tag_280\n      swap1\n      tag_202\n      jump\t// in\n    tag_280:\n      dup1\n      iszero\n      tag_281\n      jumpi\n      dup1\n      0x1f\n      lt\n      tag_282\n      jumpi\n      0x0100\n      dup1\n      dup4\n      sload\n      div\n      mul\n      dup4\n      mstore\n      swap2\n      0x20\n      add\n      swap2\n      jump(tag_281)\n    tag_282:\n      dup3\n      add\n      swap2\n      swap1\n      0x00\n      mstore\n      keccak256(0x00, 0x20)\n      swap1\n    tag_283:\n      dup2\n      sload\n      dup2\n      mstore\n      swap1\n      0x01\n      add\n      swap1\n      0x20\n      add\n      dup1\n      dup4\n      gt\n      tag_283\n      jumpi\n      dup3\n      swap1\n      sub\n      0x1f\n      and\n      dup3\n      add\n      swap2\n    tag_281:\n      pop\n      pop\n      pop\n      0x02\n      swap1\n      swap4\n      add\n      sload\n      swap2\n      swap3\n      pop\n      pop\n      0xff\n      and\n      dup4\n      jump\t// out\n        /* \"Documents/GitHub/Store-system-with-feedback/main.sol\":1020:1159  function get_hash(string memory password) public pure returns(bytes32) {\r... */\n    tag_100:\n        /* \"Documents/GitHub/Store-system-with-feedback/main.sol\":1082:1089  bytes32 */\n      0x00\n        /* \"Documents/GitHub/Store-system-with-feedback/main.sol\":1140:1148  password */\n      dup2\n        /* \"Documents/GitHub/Store-system-with-feedback/main.sol\":1123:1149  abi.encodePacked(password) */\n      add(0x20, mload(0x40))\n      tag_285\n      swap2\n      swap1\n      tag_148\n      jump\t// in\n    tag_285:\n      mload(0x40)\n      0x20\n      dup2\n      dup4\n      sub\n      sub\n      dup2\n      mstore\n      swap1\n      0x40\n      mstore\n        /* \"Documents/GitHub/Store-system-with-feedback/main.sol\":1113:1150  keccak256(abi.encodePacked(password)) */\n      dup1\n      mload\n      swap1\n      0x20\n      add\n      keccak256\n        /* \"Documents/GitHub/Store-system-with-feedback/main.sol\":1106:1151  return(keccak256(abi.encodePacked(password))) */\n      swap1\n      pop\n        /* \"Documents/GitHub/Store-system-with-feedback/main.sol\":1020:1159  function get_hash(string memory password) public pure returns(bytes32) {\r... */\n      swap2\n      swap1\n      pop\n      jump\t// out\n        /* \"Documents/GitHub/Store-system-with-feedback/main.sol\":2802:2851  mapping(address => structUser) public structUsers */\n    tag_106:\n      mstore(0x20, 0x04)\n      0x00\n      swap1\n      dup2\n      mstore\n      0x40\n      swap1\n      keccak256\n      dup1\n      sload\n      dup2\n      swap1\n      tag_286\n      swap1\n      tag_202\n      jump\t// in\n    tag_286:\n      dup1\n      0x1f\n      add\n      0x20\n      dup1\n      swap2\n      div\n      mul\n      0x20\n      add\n      mload(0x40)\n      swap1\n      dup2\n      add\n      0x40\n      mstore\n      dup1\n      swap3\n      swap2\n      swap1\n      dup2\n      dup2\n      mstore\n      0x20\n      add\n      dup3\n      dup1\n      sload\n      tag_287\n      swap1\n      tag_202\n      jump\t// in\n    tag_287:\n      dup1\n      iszero\n      tag_288\n      jumpi\n      dup1\n      0x1f\n      lt\n      tag_289\n      jumpi\n      0x0100\n      dup1\n      dup4\n      sload\n      div\n      mul\n      dup4\n      mstore\n      swap2\n      0x20\n      add\n      swap2\n      jump(tag_288)\n    tag_289:\n      dup3\n      add\n      swap2\n      swap1\n      0x00\n      mstore\n      keccak256(0x00, 0x20)\n      swap1\n    tag_290:\n      dup2\n      sload\n      dup2\n      mstore\n      swap1\n      0x01\n      add\n      swap1\n      0x20\n      add\n      dup1\n      dup4\n      gt\n      tag_290\n      jumpi\n      dup3\n      swap1\n      sub\n      0x1f\n      and\n      dup3\n      add\n      swap2\n    tag_288:\n      pop\n      pop\n      pop\n      pop\n      0x01\n      dup4\n      add\n      sload\n      0x02\n      dup5\n      add\n      sload\n      0x03\n      dup6\n      add\n      sload\n      0x04\n      swap1\n      swap6\n      add\n      sload\n      swap4\n      swap5\n      swap2\n      swap4\n      swap1\n      swap3\n      pop\n      0xff\n      and\n      dup6\n      jump\t// out\n        /* \"Documents/GitHub/Store-system-with-feedback/main.sol\":7122:7975  function getStoryRating(string memory shopName) public view returns(uint) {\r... */\n    tag_111:\n        /* \"Documents/GitHub/Store-system-with-feedback/main.sol\":7190:7194  uint */\n      0x00\n      dup1\n      dup1\n      dup1\n        /* \"Documents/GitHub/Store-system-with-feedback/main.sol\":7280:7867  for(uint i = 0; i < shopList.length; i++) {\r... */\n    tag_292:\n        /* \"Documents/GitHub/Store-system-with-feedback/main.sol\":7300:7308  shopList */\n      0x02\n        /* \"Documents/GitHub/Store-system-with-feedback/main.sol\":7300:7315  shopList.length */\n      sload\n        /* \"Documents/GitHub/Store-system-with-feedback/main.sol\":7296:7315  i < shopList.length */\n      dup2\n      lt\n        /* \"Documents/GitHub/Store-system-with-feedback/main.sol\":7280:7867  for(uint i = 0; i < shopList.length; i++) {\r... */\n      iszero\n      tag_293\n      jumpi\n        /* \"Documents/GitHub/Store-system-with-feedback/main.sol\":7337:7363  string memory tempShopName */\n      0x00\n        /* \"Documents/GitHub/Store-system-with-feedback/main.sol\":7366:7374  shopList */\n      0x02\n        /* \"Documents/GitHub/Store-system-with-feedback/main.sol\":7375:7376  i */\n      dup3\n        /* \"Documents/GitHub/Store-system-with-feedback/main.sol\":7366:7377  shopList[i] */\n      dup2\n      sload\n      dup2\n      lt\n      tag_296\n      jumpi\n      tag_296\n      tag_153\n      jump\t// in\n    tag_296:\n      swap1\n      0x00\n      mstore\n      keccak256(0x00, 0x20)\n      add\n        /* \"Documents/GitHub/Store-system-with-feedback/main.sol\":7337:7377  string memory tempShopName = shopList[i] */\n      dup1\n      sload\n      tag_298\n      swap1\n      tag_202\n      jump\t// in\n    tag_298:\n      dup1\n      0x1f\n      add\n      0x20\n      dup1\n      swap2\n      div\n      mul\n      0x20\n      add\n      mload(0x40)\n      swap1\n      dup2\n      add\n      0x40\n      mstore\n      dup1\n      swap3\n      swap2\n      swap1\n      dup2\n      dup2\n      mstore\n      0x20\n      add\n      dup3\n      dup1\n      sload\n      tag_299\n      swap1\n      tag_202\n      jump\t// in\n    tag_299:\n      dup1\n      iszero\n      tag_300\n      jumpi\n      dup1\n      0x1f\n      lt\n      tag_301\n      jumpi\n      0x0100\n      dup1\n      dup4\n      sload\n      div\n      mul\n      dup4\n      mstore\n      swap2\n      0x20\n      add\n      swap2\n      jump(tag_300)\n    tag_301:\n      dup3\n      add\n      swap2\n      swap1\n      0x00\n      mstore\n      keccak256(0x00, 0x20)\n      swap1\n    tag_302:\n      dup2\n      sload\n      dup2\n      mstore\n      swap1\n      0x01\n      add\n      swap1\n      0x20\n      add\n      dup1\n      dup4\n      gt\n      tag_302\n      jumpi\n      dup3\n      swap1\n      sub\n      0x1f\n      and\n      dup3\n      add\n      swap2\n    tag_300:\n      pop\n      pop\n      pop\n      pop\n      pop\n      swap1\n      pop\n        /* \"Documents/GitHub/Store-system-with-feedback/main.sol\":7467:7475  shopName */\n      dup6\n        /* \"Documents/GitHub/Store-system-with-feedback/main.sol\":7450:7476  abi.encodePacked(shopName) */\n      add(0x20, mload(0x40))\n      tag_303\n      swap2\n      swap1\n      tag_148\n      jump\t// in\n    tag_303:\n      mload(0x40)\n      0x20\n      dup2\n      dup4\n      sub\n      sub\n      dup2\n      mstore\n      swap1\n      0x40\n      mstore\n        /* \"Documents/GitHub/Store-system-with-feedback/main.sol\":7440:7477  keccak256(abi.encodePacked(shopName)) */\n      dup1\n      mload\n      swap1\n      0x20\n      add\n      keccak256\n        /* \"Documents/GitHub/Store-system-with-feedback/main.sol\":7422:7434  tempShopName */\n      dup2\n        /* \"Documents/GitHub/Store-system-with-feedback/main.sol\":7405:7435  abi.encodePacked(tempShopName) */\n      add(0x20, mload(0x40))\n      tag_304\n      swap2\n      swap1\n      tag_148\n      jump\t// in\n    tag_304:\n      mload(0x40)\n      0x20\n      dup2\n      dup4\n      sub\n      sub\n      dup2\n      mstore\n      swap1\n      0x40\n      mstore\n        /* \"Documents/GitHub/Store-system-with-feedback/main.sol\":7395:7436  keccak256(abi.encodePacked(tempShopName)) */\n      dup1\n      mload\n      swap1\n      0x20\n      add\n      keccak256\n        /* \"Documents/GitHub/Store-system-with-feedback/main.sol\":7395:7477  keccak256(abi.encodePacked(tempShopName)) == keccak256(abi.encodePacked(shopName)) */\n      eq\n        /* \"Documents/GitHub/Store-system-with-feedback/main.sol\":7392:7856  if(keccak256(abi.encodePacked(tempShopName)) == keccak256(abi.encodePacked(shopName))) {                    \r... */\n      iszero\n      tag_307\n      jumpi\n        /* \"Documents/GitHub/Store-system-with-feedback/main.sol\":7527:7528  0 */\n      0x00\n        /* \"Documents/GitHub/Store-system-with-feedback/main.sol\":7523:7528  i = 0 */\n      swap2\n      pop\n        /* \"Documents/GitHub/Store-system-with-feedback/main.sol\":7518:7841  for (i = 0; i <= complaintBooks.length; i++) {\r... */\n    tag_306:\n        /* \"Documents/GitHub/Store-system-with-feedback/main.sol\":7535:7549  complaintBooks */\n      0x03\n        /* \"Documents/GitHub/Store-system-with-feedback/main.sol\":7535:7556  complaintBooks.length */\n      sload\n        /* \"Documents/GitHub/Store-system-with-feedback/main.sol\":7530:7556  i <= complaintBooks.length */\n      dup3\n      gt\n        /* \"Documents/GitHub/Store-system-with-feedback/main.sol\":7518:7841  for (i = 0; i <= complaintBooks.length; i++) {\r... */\n      tag_307\n      jumpi\n        /* \"Documents/GitHub/Store-system-with-feedback/main.sol\":7657:7671  complaintBooks */\n      0x03\n        /* \"Documents/GitHub/Store-system-with-feedback/main.sol\":7672:7673  i */\n      dup3\n        /* \"Documents/GitHub/Store-system-with-feedback/main.sol\":7657:7674  complaintBooks[i] */\n      dup2\n      sload\n      dup2\n      lt\n      tag_310\n      jumpi\n      tag_310\n      tag_153\n      jump\t// in\n    tag_310:\n      swap1\n      0x00\n      mstore\n      keccak256(0x00, 0x20)\n      swap1\n      0x05\n      mul\n      add\n        /* \"Documents/GitHub/Store-system-with-feedback/main.sol\":7657:7679  complaintBooks[i].shop */\n      0x00\n      add\n        /* \"Documents/GitHub/Store-system-with-feedback/main.sol\":7640:7680  abi.encodePacked(complaintBooks[i].shop) */\n      add(0x20, mload(0x40))\n      tag_312\n      swap2\n      swap1\n      tag_159\n      jump\t// in\n    tag_312:\n      mload(0x40)\n      0x20\n      dup2\n      dup4\n      sub\n      sub\n      dup2\n      mstore\n      swap1\n      0x40\n      mstore\n        /* \"Documents/GitHub/Store-system-with-feedback/main.sol\":7630:7681  keccak256(abi.encodePacked(complaintBooks[i].shop)) */\n      dup1\n      mload\n      swap1\n      0x20\n      add\n      keccak256\n        /* \"Documents/GitHub/Store-system-with-feedback/main.sol\":7616:7624  shopName */\n      dup7\n        /* \"Documents/GitHub/Store-system-with-feedback/main.sol\":7599:7625  abi.encodePacked(shopName) */\n      add(0x20, mload(0x40))\n      tag_313\n      swap2\n      swap1\n      tag_148\n      jump\t// in\n    tag_313:\n      mload(0x40)\n      0x20\n      dup2\n      dup4\n      sub\n      sub\n      dup2\n      mstore\n      swap1\n      0x40\n      mstore\n        /* \"Documents/GitHub/Store-system-with-feedback/main.sol\":7589:7626  keccak256(abi.encodePacked(shopName)) */\n      dup1\n      mload\n      swap1\n      0x20\n      add\n      keccak256\n        /* \"Documents/GitHub/Store-system-with-feedback/main.sol\":7589:7681  keccak256(abi.encodePacked(shopName)) == keccak256(abi.encodePacked(complaintBooks[i].shop)) */\n      eq\n        /* \"Documents/GitHub/Store-system-with-feedback/main.sol\":7586:7822  if(keccak256(abi.encodePacked(shopName)) == keccak256(abi.encodePacked(complaintBooks[i].shop))) {\r... */\n      iszero\n      tag_314\n      jumpi\n        /* \"Documents/GitHub/Store-system-with-feedback/main.sol\":7730:7744  complaintBooks */\n      0x03\n        /* \"Documents/GitHub/Store-system-with-feedback/main.sol\":7745:7746  i */\n      dup3\n        /* \"Documents/GitHub/Store-system-with-feedback/main.sol\":7730:7747  complaintBooks[i] */\n      dup2\n      sload\n      dup2\n      lt\n      tag_316\n      jumpi\n      tag_316\n      tag_153\n      jump\t// in\n    tag_316:\n      swap1\n      0x00\n      mstore\n      keccak256(0x00, 0x20)\n      swap1\n      0x05\n      mul\n      add\n        /* \"Documents/GitHub/Store-system-with-feedback/main.sol\":7730:7754  complaintBooks[i].rating */\n      0x03\n      add\n      sload\n        /* \"Documents/GitHub/Store-system-with-feedback/main.sol\":7710:7754  countArrayRating += complaintBooks[i].rating */\n      dup4\n      tag_318\n      swap2\n      swap1\n      tag_173\n      jump\t// in\n    tag_318:\n      swap3\n      pop\n        /* \"Documents/GitHub/Store-system-with-feedback/main.sol\":7586:7822  if(keccak256(abi.encodePacked(shopName)) == keccak256(abi.encodePacked(complaintBooks[i].shop))) {\r... */\n    tag_314:\n        /* \"Documents/GitHub/Store-system-with-feedback/main.sol\":7558:7561  i++ */\n      dup2\n      tag_319\n      dup2\n      tag_216\n      jump\t// in\n    tag_319:\n      swap3\n      pop\n      pop\n        /* \"Documents/GitHub/Store-system-with-feedback/main.sol\":7518:7841  for (i = 0; i <= complaintBooks.length; i++) {\r... */\n      jump(tag_306)\n    tag_307:\n      pop\n        /* \"Documents/GitHub/Store-system-with-feedback/main.sol\":7317:7320  i++ */\n      dup1\n      tag_320\n      dup2\n      tag_216\n      jump\t// in\n    tag_320:\n      swap2\n      pop\n      pop\n        /* \"Documents/GitHub/Store-system-with-feedback/main.sol\":7280:7867  for(uint i = 0; i < shopList.length; i++) {\r... */\n      jump(tag_292)\n    tag_293:\n      pop\n        /* \"Documents/GitHub/Store-system-with-feedback/main.sol\":7897:7933  countArrayRating / totalAverageValue */\n      tag_321\n        /* \"Documents/GitHub/Store-system-with-feedback/main.sol\":7916:7933  totalAverageValue */\n      dup3\n        /* \"Documents/GitHub/Store-system-with-feedback/main.sol\":7897:7913  countArrayRating */\n      dup3\n        /* \"Documents/GitHub/Store-system-with-feedback/main.sol\":7897:7933  countArrayRating / totalAverageValue */\n      tag_322\n      jump\t// in\n    tag_321:\n        /* \"Documents/GitHub/Store-system-with-feedback/main.sol\":7877:7933  countArrayRating += countArrayRating / totalAverageValue */\n      tag_323\n      swap1\n      dup3\n      tag_173\n      jump\t// in\n    tag_323:\n      swap5\n        /* \"Documents/GitHub/Store-system-with-feedback/main.sol\":7122:7975  function getStoryRating(string memory shopName) public view returns(uint) {\r... */\n      swap4\n      pop\n      pop\n      pop\n      pop\n      jump\t// out\n        /* \"Documents/GitHub/Store-system-with-feedback/main.sol\":3585:3632  structStatusReturn[] public structStatusReturns */\n    tag_115:\n      0x0b\n      dup2\n      dup2\n      sload\n      dup2\n      lt\n      tag_277\n      jumpi\n      0x00\n      dup1\n      revert\n        /* \"Documents/GitHub/Store-system-with-feedback/main.sol\":8831:8985  function productReturn (string memory titleProduct) public {\r... */\n    tag_119:\n        /* \"Documents/GitHub/Store-system-with-feedback/main.sol\":8926:8976  structStatusReturn(msg.sender, titleProduct, true) */\n      0x40\n      dup1\n      mload\n      0x60\n      dup2\n      add\n      dup3\n      mstore\n        /* \"Documents/GitHub/Store-system-with-feedback/main.sol\":8945:8955  msg.sender */\n      caller\n        /* \"Documents/GitHub/Store-system-with-feedback/main.sol\":8926:8976  structStatusReturn(msg.sender, titleProduct, true) */\n      dup2\n      mstore\n      0x20\n      dup1\n      dup3\n      add\n      dup5\n      dup2\n      mstore\n        /* \"Documents/GitHub/Store-system-with-feedback/main.sol\":8971:8975  true */\n      0x01\n        /* \"Documents/GitHub/Store-system-with-feedback/main.sol\":8926:8976  structStatusReturn(msg.sender, titleProduct, true) */\n      swap4\n      dup4\n      add\n      dup5\n      swap1\n      mstore\n        /* \"Documents/GitHub/Store-system-with-feedback/main.sol\":8901:8920  structStatusReturns */\n      0x0b\n        /* \"Documents/GitHub/Store-system-with-feedback/main.sol\":8901:8977  structStatusReturns.push(structStatusReturn(msg.sender, titleProduct, true)) */\n      dup1\n      sload\n      swap5\n      dup6\n      add\n      dup2\n      sstore\n      0x00\n      mstore\n      dup3\n      mload\n      0x0175b7a638427703f0dbe7bb9bbf987a2551717b34e79f33b5b1008d1fa01db9\n      0x03\n      swap1\n      swap6\n      mul\n      swap5\n      dup6\n      add\n      dup1\n      sload\n      not(sub(shl(0xa0, 0x01), 0x01))\n      and\n      sub(shl(0xa0, 0x01), 0x01)\n      swap1\n      swap3\n      and\n      swap2\n      swap1\n      swap2\n      or\n      dup2\n      sstore\n      swap1\n      mload\n      dup1\n      mload\n        /* \"Documents/GitHub/Store-system-with-feedback/main.sol\":8926:8976  structStatusReturn(msg.sender, titleProduct, true) */\n      swap4\n      swap5\n        /* \"Documents/GitHub/Store-system-with-feedback/main.sol\":8901:8977  structStatusReturns.push(structStatusReturn(msg.sender, titleProduct, true)) */\n      swap2\n      swap4\n      tag_193\n      swap4\n      0x0175b7a638427703f0dbe7bb9bbf987a2551717b34e79f33b5b1008d1fa01dba\n      swap1\n      swap4\n      add\n      swap3\n      swap2\n      swap1\n      swap2\n      add\n      swap1\n      tag_184\n      jump\t// in\n        /* \"Documents/GitHub/Store-system-with-feedback/main.sol\":6860:6954  function getShopList() public view returns(string[] memory) {\r... */\n    tag_121:\n        /* \"Documents/GitHub/Store-system-with-feedback/main.sol\":6903:6918  string[] memory */\n      0x60\n        /* \"Documents/GitHub/Store-system-with-feedback/main.sol\":6938:6946  shopList */\n      0x02\n        /* \"Documents/GitHub/Store-system-with-feedback/main.sol\":6931:6946  return shopList */\n      dup1\n      sload\n      dup1\n      0x20\n      mul\n      0x20\n      add\n      mload(0x40)\n      swap1\n      dup2\n      add\n      0x40\n      mstore\n      dup1\n      swap3\n      swap2\n      swap1\n      dup2\n      dup2\n      mstore\n      0x20\n      add\n      0x00\n      swap1\n    tag_335:\n      dup3\n      dup3\n      lt\n      iszero\n      tag_242\n      jumpi\n      dup4\n      dup3\n      swap1\n      0x00\n      mstore\n      keccak256(0x00, 0x20)\n      add\n      dup1\n      sload\n      tag_338\n      swap1\n      tag_202\n      jump\t// in\n    tag_338:\n      dup1\n      0x1f\n      add\n      0x20\n      dup1\n      swap2\n      div\n      mul\n      0x20\n      add\n      mload(0x40)\n      swap1\n      dup2\n      add\n      0x40\n      mstore\n      dup1\n      swap3\n      swap2\n      swap1\n      dup2\n      dup2\n      mstore\n      0x20\n      add\n      dup3\n      dup1\n      sload\n      tag_339\n      swap1\n      tag_202\n      jump\t// in\n    tag_339:\n      dup1\n      iszero\n      tag_340\n      jumpi\n      dup1\n      0x1f\n      lt\n      tag_341\n      jumpi\n      0x0100\n      dup1\n      dup4\n      sload\n      div\n      mul\n      dup4\n      mstore\n      swap2\n      0x20\n      add\n      swap2\n      jump(tag_340)\n    tag_341:\n      dup3\n      add\n      swap2\n      swap1\n      0x00\n      mstore\n      keccak256(0x00, 0x20)\n      swap1\n    tag_342:\n      dup2\n      sload\n      dup2\n      mstore\n      swap1\n      0x01\n      add\n      swap1\n      0x20\n      add\n      dup1\n      dup4\n      gt\n      tag_342\n      jumpi\n      dup3\n      swap1\n      sub\n      0x1f\n      and\n      dup3\n      add\n      swap2\n    tag_340:\n      pop\n      pop\n      pop\n      pop\n      pop\n      dup2\n      mstore\n      0x20\n      add\n      swap1\n      0x01\n      add\n      swap1\n      jump(tag_335)\n        /* \"Documents/GitHub/Store-system-with-feedback/main.sol\":4434:5022  function leaveFeedback (string memory shop, string memory feedback, uint256 rating) public {\r... */\n    tag_130:\n        /* \"Documents/GitHub/Store-system-with-feedback/main.sol\":4554:4556  10 */\n      0x0a\n        /* \"Documents/GitHub/Store-system-with-feedback/main.sol\":4544:4550  rating */\n      dup2\n        /* \"Documents/GitHub/Store-system-with-feedback/main.sol\":4544:4556  rating <= 10 */\n      gt\n      iszero\n        /* \"Documents/GitHub/Store-system-with-feedback/main.sol\":4536:4593  require(rating <= 10,\"error: rating can be from 1 to 10\") */\n      tag_344\n      jumpi\n      mload(0x40)\n      shl(0xe5, 0x461bcd)\n      dup2\n      mstore\n        /* \"#utility.yul\":11607:11609   */\n      0x20\n        /* \"Documents/GitHub/Store-system-with-feedback/main.sol\":4536:4593  require(rating <= 10,\"error: rating can be from 1 to 10\") */\n      0x04\n      dup3\n      add\n        /* \"#utility.yul\":11589:11610   */\n      mstore\n        /* \"#utility.yul\":11646:11648   */\n      0x21\n        /* \"#utility.yul\":11626:11644   */\n      0x24\n      dup3\n      add\n        /* \"#utility.yul\":11619:11649   */\n      mstore\n        /* \"#utility.yul\":11685:11719   */\n      0x6572726f723a20726174696e672063616e2062652066726f6d203120746f2031\n        /* \"#utility.yul\":11665:11683   */\n      0x44\n      dup3\n      add\n        /* \"#utility.yul\":11658:11720   */\n      mstore\n      shl(0xfc, 0x03)\n        /* \"#utility.yul\":11736:11754   */\n      0x64\n      dup3\n      add\n        /* \"#utility.yul\":11729:11760   */\n      mstore\n        /* \"#utility.yul\":11777:11796   */\n      0x84\n      add\n        /* \"Documents/GitHub/Store-system-with-feedback/main.sol\":4536:4593  require(rating <= 10,\"error: rating can be from 1 to 10\") */\n      tag_181\n        /* \"#utility.yul\":11405:11802   */\n      jump\n        /* \"Documents/GitHub/Store-system-with-feedback/main.sol\":4536:4593  require(rating <= 10,\"error: rating can be from 1 to 10\") */\n    tag_344:\n        /* \"Documents/GitHub/Store-system-with-feedback/main.sol\":4608:4614  uint i */\n      0x00\n        /* \"Documents/GitHub/Store-system-with-feedback/main.sol\":4604:5015  for(uint i = 0; i <= shopList.length; i++) {\r... */\n    tag_347:\n        /* \"Documents/GitHub/Store-system-with-feedback/main.sol\":4625:4633  shopList */\n      0x02\n        /* \"Documents/GitHub/Store-system-with-feedback/main.sol\":4625:4640  shopList.length */\n      sload\n        /* \"Documents/GitHub/Store-system-with-feedback/main.sol\":4620:4640  i <= shopList.length */\n      dup2\n      gt\n        /* \"Documents/GitHub/Store-system-with-feedback/main.sol\":4604:5015  for(uint i = 0; i <= shopList.length; i++) {\r... */\n      tag_348\n      jumpi\n        /* \"Documents/GitHub/Store-system-with-feedback/main.sol\":4662:4688  string memory tempShopName */\n      0x00\n        /* \"Documents/GitHub/Store-system-with-feedback/main.sol\":4691:4699  shopList */\n      0x02\n        /* \"Documents/GitHub/Store-system-with-feedback/main.sol\":4700:4701  i */\n      dup3\n        /* \"Documents/GitHub/Store-system-with-feedback/main.sol\":4691:4702  shopList[i] */\n      dup2\n      sload\n      dup2\n      lt\n      tag_351\n      jumpi\n      tag_351\n      tag_153\n      jump\t// in\n    tag_351:\n      swap1\n      0x00\n      mstore\n      keccak256(0x00, 0x20)\n      add\n        /* \"Documents/GitHub/Store-system-with-feedback/main.sol\":4662:4702  string memory tempShopName = shopList[i] */\n      dup1\n      sload\n      tag_353\n      swap1\n      tag_202\n      jump\t// in\n    tag_353:\n      dup1\n      0x1f\n      add\n      0x20\n      dup1\n      swap2\n      div\n      mul\n      0x20\n      add\n      mload(0x40)\n      swap1\n      dup2\n      add\n      0x40\n      mstore\n      dup1\n      swap3\n      swap2\n      swap1\n      dup2\n      dup2\n      mstore\n      0x20\n      add\n      dup3\n      dup1\n      sload\n      tag_354\n      swap1\n      tag_202\n      jump\t// in\n    tag_354:\n      dup1\n      iszero\n      tag_355\n      jumpi\n      dup1\n      0x1f\n      lt\n      tag_356\n      jumpi\n      0x0100\n      dup1\n      dup4\n      sload\n      div\n      mul\n      dup4\n      mstore\n      swap2\n      0x20\n      add\n      swap2\n      jump(tag_355)\n    tag_356:\n      dup3\n      add\n      swap2\n      swap1\n      0x00\n      mstore\n      keccak256(0x00, 0x20)\n      swap1\n    tag_357:\n      dup2\n      sload\n      dup2\n      mstore\n      swap1\n      0x01\n      add\n      swap1\n      0x20\n      add\n      dup1\n      dup4\n      gt\n      tag_357\n      jumpi\n      dup3\n      swap1\n      sub\n      0x1f\n      and\n      dup3\n      add\n      swap2\n    tag_355:\n      pop\n      pop\n      pop\n      pop\n      pop\n      swap1\n      pop\n        /* \"Documents/GitHub/Store-system-with-feedback/main.sol\":4792:4796  shop */\n      dup5\n        /* \"Documents/GitHub/Store-system-with-feedback/main.sol\":4775:4797  abi.encodePacked(shop) */\n      add(0x20, mload(0x40))\n      tag_358\n      swap2\n      swap1\n      tag_148\n      jump\t// in\n    tag_358:\n      mload(0x40)\n      0x20\n      dup2\n      dup4\n      sub\n      sub\n      dup2\n      mstore\n      swap1\n      0x40\n      mstore\n        /* \"Documents/GitHub/Store-system-with-feedback/main.sol\":4765:4798  keccak256(abi.encodePacked(shop)) */\n      dup1\n      mload\n      swap1\n      0x20\n      add\n      keccak256\n        /* \"Documents/GitHub/Store-system-with-feedback/main.sol\":4747:4759  tempShopName */\n      dup2\n        /* \"Documents/GitHub/Store-system-with-feedback/main.sol\":4730:4760  abi.encodePacked(tempShopName) */\n      add(0x20, mload(0x40))\n      tag_359\n      swap2\n      swap1\n      tag_148\n      jump\t// in\n    tag_359:\n      mload(0x40)\n      0x20\n      dup2\n      dup4\n      sub\n      sub\n      dup2\n      mstore\n      swap1\n      0x40\n      mstore\n        /* \"Documents/GitHub/Store-system-with-feedback/main.sol\":4720:4761  keccak256(abi.encodePacked(tempShopName)) */\n      dup1\n      mload\n      swap1\n      0x20\n      add\n      keccak256\n        /* \"Documents/GitHub/Store-system-with-feedback/main.sol\":4720:4798  keccak256(abi.encodePacked(tempShopName)) == keccak256(abi.encodePacked(shop)) */\n      eq\n        /* \"Documents/GitHub/Store-system-with-feedback/main.sol\":4717:5004  if(keccak256(abi.encodePacked(tempShopName)) == keccak256(abi.encodePacked(shop))) {                    \r... */\n      iszero\n      tag_360\n      jumpi\n        /* \"Documents/GitHub/Store-system-with-feedback/main.sol\":4904:4987  complaintBook(shop, structUsers[msg.sender].userName, feedback, rating, zerroArray) */\n      0x40\n      dup1\n      mload\n      0xa0\n      dup2\n      add\n      dup3\n      mstore\n      dup7\n      dup2\n      mstore\n        /* \"Documents/GitHub/Store-system-with-feedback/main.sol\":4936:4946  msg.sender */\n      caller\n      0x00\n        /* \"Documents/GitHub/Store-system-with-feedback/main.sol\":4924:4947  structUsers[msg.sender] */\n      swap1\n      dup2\n      mstore\n        /* \"Documents/GitHub/Store-system-with-feedback/main.sol\":4924:4935  structUsers */\n      0x04\n        /* \"Documents/GitHub/Store-system-with-feedback/main.sol\":4904:4987  complaintBook(shop, structUsers[msg.sender].userName, feedback, rating, zerroArray) */\n      0x20\n        /* \"Documents/GitHub/Store-system-with-feedback/main.sol\":4924:4947  structUsers[msg.sender] */\n      swap1\n      dup2\n      mstore\n      swap3\n      swap1\n      keccak256\n        /* \"Documents/GitHub/Store-system-with-feedback/main.sol\":4904:4987  complaintBook(shop, structUsers[msg.sender].userName, feedback, rating, zerroArray) */\n      dup1\n      sload\n        /* \"Documents/GitHub/Store-system-with-feedback/main.sol\":4839:4865  string[] memory zerroArray */\n      0x60\n      swap4\n        /* \"Documents/GitHub/Store-system-with-feedback/main.sol\":4884:4898  complaintBooks */\n      0x03\n      swap4\n        /* \"Documents/GitHub/Store-system-with-feedback/main.sol\":4904:4987  complaintBook(shop, structUsers[msg.sender].userName, feedback, rating, zerroArray) */\n      swap3\n      swap1\n      dup4\n      add\n      swap2\n      tag_361\n      swap1\n      tag_202\n      jump\t// in\n    tag_361:\n      dup1\n      0x1f\n      add\n      0x20\n      dup1\n      swap2\n      div\n      mul\n      0x20\n      add\n      mload(0x40)\n      swap1\n      dup2\n      add\n      0x40\n      mstore\n      dup1\n      swap3\n      swap2\n      swap1\n      dup2\n      dup2\n      mstore\n      0x20\n      add\n      dup3\n      dup1\n      sload\n      tag_362\n      swap1\n      tag_202\n      jump\t// in\n    tag_362:\n      dup1\n      iszero\n      tag_363\n      jumpi\n      dup1\n      0x1f\n      lt\n      tag_364\n      jumpi\n      0x0100\n      dup1\n      dup4\n      sload\n      div\n      mul\n      dup4\n      mstore\n      swap2\n      0x20\n      add\n      swap2\n      jump(tag_363)\n    tag_364:\n      dup3\n      add\n      swap2\n      swap1\n      0x00\n      mstore\n      keccak256(0x00, 0x20)\n      swap1\n    tag_365:\n      dup2\n      sload\n      dup2\n      mstore\n      swap1\n      0x01\n      add\n      swap1\n      0x20\n      add\n      dup1\n      dup4\n      gt\n      tag_365\n      jumpi\n      dup3\n      swap1\n      sub\n      0x1f\n      and\n      dup3\n      add\n      swap2\n    tag_363:\n      pop\n      pop\n      pop\n      swap2\n      dup4\n      mstore\n      pop\n      pop\n      0x20\n      dup1\n      dup3\n      add\n      dup10\n      swap1\n      mstore\n      0x40\n      dup3\n      add\n      dup9\n      swap1\n      mstore\n      0x60\n      swap1\n      swap2\n      add\n      dup5\n      swap1\n      mstore\n        /* \"Documents/GitHub/Store-system-with-feedback/main.sol\":4884:4988  complaintBooks.push(complaintBook(shop, structUsers[msg.sender].userName, feedback, rating, zerroArray)) */\n      dup3\n      sload\n      0x01\n      dup2\n      add\n      dup5\n      sstore\n      0x00\n      swap4\n      dup5\n      mstore\n      swap3\n      dup2\n      swap1\n      keccak256\n      dup3\n      mload\n      dup1\n      mload\n      swap4\n      swap5\n      0x05\n      mul\n      swap1\n      swap2\n      add\n      swap3\n      tag_367\n      swap3\n      dup5\n      swap3\n      add\n      swap1\n      tag_184\n      jump\t// in\n    tag_367:\n      pop\n      0x20\n      dup3\n      dup2\n      add\n      mload\n      dup1\n      mload\n      tag_368\n      swap3\n      0x01\n      dup6\n      add\n      swap3\n      add\n      swap1\n      tag_184\n      jump\t// in\n    tag_368:\n      pop\n      0x40\n      dup3\n      add\n      mload\n      dup1\n      mload\n      tag_369\n      swap2\n      0x02\n      dup5\n      add\n      swap2\n      0x20\n      swap1\n      swap2\n      add\n      swap1\n      tag_184\n      jump\t// in\n    tag_369:\n      pop\n      0x60\n      dup3\n      add\n      mload\n      0x03\n      dup3\n      add\n      sstore\n      0x80\n      dup3\n      add\n      mload\n      dup1\n      mload\n      tag_370\n      swap2\n      0x04\n      dup5\n      add\n      swap2\n      0x20\n      swap1\n      swap2\n      add\n      swap1\n      tag_214\n      jump\t// in\n    tag_370:\n      pop\n      pop\n      pop\n        /* \"Documents/GitHub/Store-system-with-feedback/main.sol\":4800:5004  {                    \r... */\n      pop\n        /* \"Documents/GitHub/Store-system-with-feedback/main.sol\":4717:5004  if(keccak256(abi.encodePacked(tempShopName)) == keccak256(abi.encodePacked(shop))) {                    \r... */\n    tag_360:\n      pop\n        /* \"Documents/GitHub/Store-system-with-feedback/main.sol\":4642:4645  i++ */\n      dup1\n      tag_371\n      dup2\n      tag_216\n      jump\t// in\n    tag_371:\n      swap2\n      pop\n      pop\n        /* \"Documents/GitHub/Store-system-with-feedback/main.sol\":4604:5015  for(uint i = 0; i <= shopList.length; i++) {\r... */\n      jump(tag_347)\n    tag_348:\n      pop\n        /* \"Documents/GitHub/Store-system-with-feedback/main.sol\":4434:5022  function leaveFeedback (string memory shop, string memory feedback, uint256 rating) public {\r... */\n      pop\n      pop\n      pop\n      jump\t// out\n        /* \"Documents/GitHub/Store-system-with-feedback/main.sol\":9776:10206  function login_user(string memory login, bytes32 password) public {\r... */\n    tag_133:\n        /* \"Documents/GitHub/Store-system-with-feedback/main.sol\":9861:9872  structUsers */\n      0x04\n        /* \"Documents/GitHub/Store-system-with-feedback/main.sol\":9861:9897  structUsers[structUserLogins[login]] */\n      0x00\n        /* \"Documents/GitHub/Store-system-with-feedback/main.sol\":9873:9889  structUserLogins */\n      0x05\n        /* \"Documents/GitHub/Store-system-with-feedback/main.sol\":9890:9895  login */\n      dup5\n        /* \"Documents/GitHub/Store-system-with-feedback/main.sol\":9873:9896  structUserLogins[login] */\n      mload(0x40)\n      tag_373\n      swap2\n      swap1\n      tag_148\n      jump\t// in\n    tag_373:\n      swap1\n      dup2\n      mstore\n      0x40\n      dup1\n      mload\n      0x20\n      swap3\n      dup2\n      swap1\n      sub\n      dup4\n      add\n      swap1\n      keccak256\n      sload\n      sub(shl(0xa0, 0x01), 0x01)\n      and\n        /* \"Documents/GitHub/Store-system-with-feedback/main.sol\":9861:9897  structUsers[structUserLogins[login]] */\n      dup4\n      mstore\n      swap1\n      dup3\n      add\n      swap3\n      swap1\n      swap3\n      mstore\n      add\n      0x00\n      keccak256\n        /* \"Documents/GitHub/Store-system-with-feedback/main.sol\":9861:9904  structUsers[structUserLogins[login]].logged */\n      0x04\n      add\n      sload\n      0xff\n      and\n        /* \"Documents/GitHub/Store-system-with-feedback/main.sol\":9861:9913  structUsers[structUserLogins[login]].logged == false */\n      iszero\n        /* \"Documents/GitHub/Store-system-with-feedback/main.sol\":9853:9947  require(structUsers[structUserLogins[login]].logged == false, \"Error: You are already logged\") */\n      tag_374\n      jumpi\n      mload(0x40)\n      shl(0xe5, 0x461bcd)\n      dup2\n      mstore\n      0x04\n      add\n      tag_181\n      swap1\n      tag_267\n      jump\t// in\n    tag_374:\n        /* \"Documents/GitHub/Store-system-with-feedback/main.sol\":10001:10002  0 */\n      0x00\n      sub(shl(0xa0, 0x01), 0x01)\n        /* \"Documents/GitHub/Store-system-with-feedback/main.sol\":9966:10003  structUserLogins[login] != address(0) */\n      and\n        /* \"Documents/GitHub/Store-system-with-feedback/main.sol\":9966:9982  structUserLogins */\n      0x05\n        /* \"Documents/GitHub/Store-system-with-feedback/main.sol\":9983:9988  login */\n      dup4\n        /* \"Documents/GitHub/Store-system-with-feedback/main.sol\":9966:9989  structUserLogins[login] */\n      mload(0x40)\n      tag_376\n      swap2\n      swap1\n      tag_148\n      jump\t// in\n    tag_376:\n      swap1\n      dup2\n      mstore\n      mload(0x40)\n      swap1\n      dup2\n      swap1\n      sub\n      0x20\n      add\n      swap1\n      keccak256\n      sload\n      sub(shl(0xa0, 0x01), 0x01)\n      and\n        /* \"Documents/GitHub/Store-system-with-feedback/main.sol\":9966:10003  structUserLogins[login] != address(0) */\n      eq\n      iszero\n        /* \"Documents/GitHub/Store-system-with-feedback/main.sol\":9958:10033  require(structUserLogins[login] != address(0), \"Error: User doesn't exist\") */\n      tag_377\n      jumpi\n      mload(0x40)\n      shl(0xe5, 0x461bcd)\n      dup2\n      mstore\n      0x04\n      add\n      tag_181\n      swap1\n      tag_271\n      jump\t// in\n    tag_377:\n        /* \"Documents/GitHub/Store-system-with-feedback/main.sol\":10101:10109  password */\n      dup1\n        /* \"Documents/GitHub/Store-system-with-feedback/main.sol\":10052:10063  structUsers */\n      0x04\n        /* \"Documents/GitHub/Store-system-with-feedback/main.sol\":10052:10088  structUsers[structUserLogins[login]] */\n      0x00\n        /* \"Documents/GitHub/Store-system-with-feedback/main.sol\":10064:10080  structUserLogins */\n      0x05\n        /* \"Documents/GitHub/Store-system-with-feedback/main.sol\":10081:10086  login */\n      dup6\n        /* \"Documents/GitHub/Store-system-with-feedback/main.sol\":10064:10087  structUserLogins[login] */\n      mload(0x40)\n      tag_379\n      swap2\n      swap1\n      tag_148\n      jump\t// in\n    tag_379:\n      swap1\n      dup2\n      mstore\n      0x40\n      dup1\n      mload\n      0x20\n      swap3\n      dup2\n      swap1\n      sub\n      dup4\n      add\n      swap1\n      keccak256\n      sload\n      sub(shl(0xa0, 0x01), 0x01)\n      and\n        /* \"Documents/GitHub/Store-system-with-feedback/main.sol\":10052:10088  structUsers[structUserLogins[login]] */\n      dup4\n      mstore\n      swap1\n      dup3\n      add\n      swap3\n      swap1\n      swap3\n      mstore\n      add\n      0x00\n      keccak256\n        /* \"Documents/GitHub/Store-system-with-feedback/main.sol\":10064:10087  structUserLogins[login] */\n      0x01\n        /* \"Documents/GitHub/Store-system-with-feedback/main.sol\":10052:10097  structUsers[structUserLogins[login]].password */\n      add\n      sload\n        /* \"Documents/GitHub/Store-system-with-feedback/main.sol\":10052:10109  structUsers[structUserLogins[login]].password == password */\n      eq\n        /* \"Documents/GitHub/Store-system-with-feedback/main.sol\":10044:10137  require(structUsers[structUserLogins[login]].password == password, \"Error: Invalid password\") */\n      tag_380\n      jumpi\n      mload(0x40)\n      shl(0xe5, 0x461bcd)\n      dup2\n      mstore\n      0x04\n      add\n      tag_181\n      swap1\n      tag_275\n      jump\t// in\n    tag_380:\n        /* \"Documents/GitHub/Store-system-with-feedback/main.sol\":10194:10198  true */\n      0x01\n        /* \"Documents/GitHub/Store-system-with-feedback/main.sol\":10148:10159  structUsers */\n      0x04\n        /* \"Documents/GitHub/Store-system-with-feedback/main.sol\":10148:10184  structUsers[structUserLogins[login]] */\n      0x00\n        /* \"Documents/GitHub/Store-system-with-feedback/main.sol\":10160:10176  structUserLogins */\n      0x05\n        /* \"Documents/GitHub/Store-system-with-feedback/main.sol\":10177:10182  login */\n      dup6\n        /* \"Documents/GitHub/Store-system-with-feedback/main.sol\":10160:10183  structUserLogins[login] */\n      mload(0x40)\n      tag_276\n      swap2\n      swap1\n      tag_148\n      jump\t// in\n        /* \"Documents/GitHub/Store-system-with-feedback/main.sol\":3134:3188  mapping(string => structProduct) public structProducts */\n    tag_136:\n      dup1\n      mload\n      0x20\n      dup2\n      dup4\n      add\n      dup2\n      add\n      dup1\n      mload\n      0x08\n      dup3\n      mstore\n      swap3\n      dup3\n      add\n      swap2\n      swap1\n      swap4\n      add\n      keccak256\n      swap2\n      mstore\n      dup1\n      sload\n      0x01\n      dup3\n      add\n      dup1\n      sload\n      sub(shl(0xa0, 0x01), 0x01)\n      swap1\n      swap3\n      and\n      swap3\n      swap2\n      tag_383\n      swap1\n      tag_202\n      jump\t// in\n    tag_383:\n      dup1\n      0x1f\n      add\n      0x20\n      dup1\n      swap2\n      div\n      mul\n      0x20\n      add\n      mload(0x40)\n      swap1\n      dup2\n      add\n      0x40\n      mstore\n      dup1\n      swap3\n      swap2\n      swap1\n      dup2\n      dup2\n      mstore\n      0x20\n      add\n      dup3\n      dup1\n      sload\n      tag_384\n      swap1\n      tag_202\n      jump\t// in\n    tag_384:\n      dup1\n      iszero\n      tag_385\n      jumpi\n      dup1\n      0x1f\n      lt\n      tag_386\n      jumpi\n      0x0100\n      dup1\n      dup4\n      sload\n      div\n      mul\n      dup4\n      mstore\n      swap2\n      0x20\n      add\n      swap2\n      jump(tag_385)\n    tag_386:\n      dup3\n      add\n      swap2\n      swap1\n      0x00\n      mstore\n      keccak256(0x00, 0x20)\n      swap1\n    tag_387:\n      dup2\n      sload\n      dup2\n      mstore\n      swap1\n      0x01\n      add\n      swap1\n      0x20\n      add\n      dup1\n      dup4\n      gt\n      tag_387\n      jumpi\n      dup3\n      swap1\n      sub\n      0x1f\n      and\n      dup3\n      add\n      swap2\n    tag_385:\n      pop\n      pop\n      pop\n      pop\n      pop\n      swap1\n      dup1\n      0x02\n      add\n      sload\n      swap1\n      dup1\n      0x03\n      add\n      sload\n      swap1\n      pop\n      dup5\n      jump\t// out\n        /* \"Documents/GitHub/Store-system-with-feedback/main.sol\":3377:3428  structStatusPurchase[] public structStatusPurchases */\n    tag_141:\n      0x0a\n      dup2\n      dup2\n      sload\n      dup2\n      lt\n      tag_277\n      jumpi\n      0x00\n      dup1\n      revert\n        /* \"Documents/GitHub/Store-system-with-feedback/main.sol\":6249:6826  function MarriageRegistration(uint idMarriageRegistration, bool confirmation) public {\r... */\n    tag_145:\n        /* \"Documents/GitHub/Store-system-with-feedback/main.sol\":6364:6368  true */\n      0x01\n        /* \"Documents/GitHub/Store-system-with-feedback/main.sol\":6348:6368  confirmation == true */\n      dup2\n      iszero\n      iszero\n      eq\n        /* \"Documents/GitHub/Store-system-with-feedback/main.sol\":6345:6819  if(confirmation == true) {\r... */\n      iszero\n      tag_218\n      jumpi\n        /* \"Documents/GitHub/Store-system-with-feedback/main.sol\":6557:6571  structProducts */\n      0x08\n        /* \"Documents/GitHub/Store-system-with-feedback/main.sol\":6572:6599  structMarriageRegistrations */\n      0x0c\n        /* \"Documents/GitHub/Store-system-with-feedback/main.sol\":6600:6622  idMarriageRegistration */\n      dup4\n        /* \"Documents/GitHub/Store-system-with-feedback/main.sol\":6572:6623  structMarriageRegistrations[idMarriageRegistration] */\n      dup2\n      sload\n      dup2\n      lt\n      tag_398\n      jumpi\n      tag_398\n      tag_153\n      jump\t// in\n    tag_398:\n      swap1\n      0x00\n      mstore\n      keccak256(0x00, 0x20)\n      swap1\n      0x03\n      mul\n      add\n        /* \"Documents/GitHub/Store-system-with-feedback/main.sol\":6572:6636  structMarriageRegistrations[idMarriageRegistration].titleProduct */\n      0x01\n      add\n        /* \"Documents/GitHub/Store-system-with-feedback/main.sol\":6557:6637  structProducts[structMarriageRegistrations[idMarriageRegistration].titleProduct] */\n      mload(0x40)\n      tag_400\n      swap2\n      swap1\n      tag_159\n      jump\t// in\n    tag_400:\n      swap1\n      dup2\n      mstore\n      0x20\n      add\n      mload(0x40)\n      dup1\n      swap2\n      sub\n      swap1\n      keccak256\n        /* \"Documents/GitHub/Store-system-with-feedback/main.sol\":6557:6643  structProducts[structMarriageRegistrations[idMarriageRegistration].titleProduct].price */\n      0x02\n      add\n      sload\n        /* \"Documents/GitHub/Store-system-with-feedback/main.sol\":6471:6482  structUsers */\n      0x04\n        /* \"Documents/GitHub/Store-system-with-feedback/main.sol\":6471:6545  structUsers[structMarriageRegistrations[idMarriageRegistration].userLogin] */\n      0x00\n        /* \"Documents/GitHub/Store-system-with-feedback/main.sol\":6483:6510  structMarriageRegistrations */\n      0x0c\n        /* \"Documents/GitHub/Store-system-with-feedback/main.sol\":6511:6533  idMarriageRegistration */\n      dup6\n        /* \"Documents/GitHub/Store-system-with-feedback/main.sol\":6483:6534  structMarriageRegistrations[idMarriageRegistration] */\n      dup2\n      sload\n      dup2\n      lt\n      tag_402\n      jumpi\n      tag_402\n      tag_153\n      jump\t// in\n    tag_402:\n      0x00\n      swap2\n      dup3\n      mstore\n      0x20\n      dup1\n      dup4\n      keccak256\n      0x03\n      swap1\n      swap3\n      mul\n      swap1\n      swap2\n      add\n        /* \"Documents/GitHub/Store-system-with-feedback/main.sol\":6483:6544  structMarriageRegistrations[idMarriageRegistration].userLogin */\n      sload\n      sub(shl(0xa0, 0x01), 0x01)\n      and\n        /* \"Documents/GitHub/Store-system-with-feedback/main.sol\":6471:6545  structUsers[structMarriageRegistrations[idMarriageRegistration].userLogin] */\n      dup4\n      mstore\n      dup3\n      add\n      swap3\n      swap1\n      swap3\n      mstore\n      0x40\n      add\n      swap1\n      keccak256\n        /* \"Documents/GitHub/Store-system-with-feedback/main.sol\":6471:6554  structUsers[structMarriageRegistrations[idMarriageRegistration].userLogin].ballance */\n      0x02\n      add\n      sload\n        /* \"Documents/GitHub/Store-system-with-feedback/main.sol\":6471:6643  structUsers[structMarriageRegistrations[idMarriageRegistration].userLogin].ballance + structProducts[structMarriageRegistrations[idMarriageRegistration].titleProduct].price */\n      tag_404\n      swap2\n      swap1\n      tag_173\n      jump\t// in\n    tag_404:\n        /* \"Documents/GitHub/Store-system-with-feedback/main.sol\":6385:6396  structUsers */\n      0x04\n        /* \"Documents/GitHub/Store-system-with-feedback/main.sol\":6385:6459  structUsers[structMarriageRegistrations[idMarriageRegistration].userLogin] */\n      0x00\n        /* \"Documents/GitHub/Store-system-with-feedback/main.sol\":6397:6424  structMarriageRegistrations */\n      0x0c\n        /* \"Documents/GitHub/Store-system-with-feedback/main.sol\":6425:6447  idMarriageRegistration */\n      dup6\n        /* \"Documents/GitHub/Store-system-with-feedback/main.sol\":6397:6448  structMarriageRegistrations[idMarriageRegistration] */\n      dup2\n      sload\n      dup2\n      lt\n      tag_406\n      jumpi\n      tag_406\n      tag_153\n      jump\t// in\n    tag_406:\n      0x00\n      swap2\n      dup3\n      mstore\n      0x20\n      dup1\n      dup4\n      keccak256\n      0x03\n      swap1\n      swap3\n      mul\n      swap1\n      swap2\n      add\n        /* \"Documents/GitHub/Store-system-with-feedback/main.sol\":6397:6458  structMarriageRegistrations[idMarriageRegistration].userLogin */\n      sload\n      sub(shl(0xa0, 0x01), 0x01)\n      and\n        /* \"Documents/GitHub/Store-system-with-feedback/main.sol\":6385:6459  structUsers[structMarriageRegistrations[idMarriageRegistration].userLogin] */\n      dup4\n      mstore\n      dup3\n      add\n      swap3\n      swap1\n      swap3\n      mstore\n      0x40\n      add\n      dup2\n      keccak256\n        /* \"Documents/GitHub/Store-system-with-feedback/main.sol\":6385:6468  structUsers[structMarriageRegistrations[idMarriageRegistration].userLogin].ballance */\n      0x02\n      add\n        /* \"Documents/GitHub/Store-system-with-feedback/main.sol\":6385:6643  structUsers[structMarriageRegistrations[idMarriageRegistration].userLogin].ballance = structUsers[structMarriageRegistrations[idMarriageRegistration].userLogin].ballance + structProducts[structMarriageRegistrations[idMarriageRegistration].titleProduct].price */\n      swap2\n      swap1\n      swap2\n      sstore\n        /* \"Documents/GitHub/Store-system-with-feedback/main.sol\":6658:6677  structStatusReturns */\n      0x0b\n        /* \"Documents/GitHub/Store-system-with-feedback/main.sol\":6658:6701  structStatusReturns[idMarriageRegistration] */\n      dup1\n      sload\n        /* \"Documents/GitHub/Store-system-with-feedback/main.sol\":6678:6700  idMarriageRegistration */\n      dup5\n      swap1\n        /* \"Documents/GitHub/Store-system-with-feedback/main.sol\":6658:6701  structStatusReturns[idMarriageRegistration] */\n      dup2\n      lt\n      tag_176\n      jumpi\n      tag_176\n      tag_153\n      jump\t// in\n    tag_184:\n      dup3\n      dup1\n      sload\n      tag_415\n      swap1\n      tag_202\n      jump\t// in\n    tag_415:\n      swap1\n      0x00\n      mstore\n      keccak256(0x00, 0x20)\n      swap1\n      0x1f\n      add\n      0x20\n      swap1\n      div\n      dup2\n      add\n      swap3\n      dup3\n      tag_417\n      jumpi\n      0x00\n      dup6\n      sstore\n      jump(tag_420)\n    tag_417:\n      dup3\n      0x1f\n      lt\n      tag_418\n      jumpi\n      dup1\n      mload\n      not(0xff)\n      and\n      dup4\n      dup1\n      add\n      or\n      dup6\n      sstore\n      jump(tag_420)\n    tag_418:\n      dup3\n      dup1\n      add\n      0x01\n      add\n      dup6\n      sstore\n      dup3\n      iszero\n      tag_420\n      jumpi\n      swap2\n      dup3\n      add\n    tag_419:\n      dup3\n      dup2\n      gt\n      iszero\n      tag_420\n      jumpi\n      dup3\n      mload\n      dup3\n      sstore\n      swap2\n      0x20\n      add\n      swap2\n      swap1\n      0x01\n      add\n      swap1\n      jump(tag_419)\n    tag_420:\n      pop\n      tag_421\n      swap3\n      swap2\n      pop\n      tag_422\n      jump\t// in\n    tag_421:\n      pop\n      swap1\n      jump\t// out\n    tag_214:\n      dup3\n      dup1\n      sload\n      dup3\n      dup3\n      sstore\n      swap1\n      0x00\n      mstore\n      keccak256(0x00, 0x20)\n      swap1\n      dup2\n      add\n      swap3\n      dup3\n      iszero\n      tag_425\n      jumpi\n      swap2\n      0x20\n      mul\n      dup3\n      add\n    tag_424:\n      dup3\n      dup2\n      gt\n      iszero\n      tag_425\n      jumpi\n      dup3\n      mload\n      dup1\n      mload\n      tag_426\n      swap2\n      dup5\n      swap2\n      0x20\n      swap1\n      swap2\n      add\n      swap1\n      tag_184\n      jump\t// in\n    tag_426:\n      pop\n      swap2\n      0x20\n      add\n      swap2\n      swap1\n      0x01\n      add\n      swap1\n      jump(tag_424)\n    tag_425:\n      pop\n      tag_421\n      swap3\n      swap2\n      pop\n      tag_428\n      jump\t// in\n    tag_422:\n    tag_429:\n      dup1\n      dup3\n      gt\n      iszero\n      tag_421\n      jumpi\n      0x00\n      dup2\n      sstore\n      0x01\n      add\n      jump(tag_429)\n    tag_428:\n      dup1\n      dup3\n      gt\n      iszero\n      tag_421\n      jumpi\n      0x00\n      tag_433\n      dup3\n      dup3\n      tag_434\n      jump\t// in\n    tag_433:\n      pop\n      0x01\n      add\n      jump(tag_428)\n    tag_434:\n      pop\n      dup1\n      sload\n      tag_435\n      swap1\n      tag_202\n      jump\t// in\n    tag_435:\n      0x00\n      dup3\n      sstore\n      dup1\n      0x1f\n      lt\n      tag_437\n      jumpi\n      pop\n      pop\n      jump\t// out\n    tag_437:\n      0x1f\n      add\n      0x20\n      swap1\n      div\n      swap1\n      0x00\n      mstore\n      keccak256(0x00, 0x20)\n      swap1\n      dup2\n      add\n      swap1\n      tag_438\n      swap2\n      swap1\n      tag_422\n      jump\t// in\n    tag_438:\n      pop\n      jump\t// out\n        /* \"#utility.yul\":14:187   */\n    tag_440:\n        /* \"#utility.yul\":82:102   */\n      dup1\n      calldataload\n      sub(shl(0xa0, 0x01), 0x01)\n        /* \"#utility.yul\":131:162   */\n      dup2\n      and\n        /* \"#utility.yul\":121:163   */\n      dup2\n      eq\n        /* \"#utility.yul\":111:181   */\n      tag_442\n      jumpi\n        /* \"#utility.yul\":177:178   */\n      0x00\n        /* \"#utility.yul\":174:175   */\n      dup1\n        /* \"#utility.yul\":167:179   */\n      revert\n        /* \"#utility.yul\":111:181   */\n    tag_442:\n        /* \"#utility.yul\":14:187   */\n      swap2\n      swap1\n      pop\n      jump\t// out\n        /* \"#utility.yul\":192:723   */\n    tag_443:\n        /* \"#utility.yul\":235:240   */\n      0x00\n        /* \"#utility.yul\":288:291   */\n      dup3\n        /* \"#utility.yul\":281:285   */\n      0x1f\n        /* \"#utility.yul\":273:279   */\n      dup4\n        /* \"#utility.yul\":269:286   */\n      add\n        /* \"#utility.yul\":265:292   */\n      slt\n        /* \"#utility.yul\":255:310   */\n      tag_445\n      jumpi\n        /* \"#utility.yul\":306:307   */\n      0x00\n        /* \"#utility.yul\":303:304   */\n      dup1\n        /* \"#utility.yul\":296:308   */\n      revert\n        /* \"#utility.yul\":255:310   */\n    tag_445:\n        /* \"#utility.yul\":329:349   */\n      dup2\n      calldataload\n      sub(shl(0x40, 0x01), 0x01)\n        /* \"#utility.yul\":361:387   */\n      dup2\n      gt\n        /* \"#utility.yul\":358:410   */\n      iszero\n      tag_447\n      jumpi\n        /* \"#utility.yul\":390:408   */\n      tag_447\n      tag_448\n      jump\t// in\n    tag_447:\n        /* \"#utility.yul\":434:489   */\n      tag_449\n        /* \"#utility.yul\":477:479   */\n      0x1f\n        /* \"#utility.yul\":458:471   */\n      dup3\n      add\n      not(0x1f)\n        /* \"#utility.yul\":454:481   */\n      and\n        /* \"#utility.yul\":483:487   */\n      0x20\n        /* \"#utility.yul\":450:488   */\n      add\n        /* \"#utility.yul\":434:489   */\n      tag_450\n      jump\t// in\n    tag_449:\n        /* \"#utility.yul\":514:516   */\n      dup2\n        /* \"#utility.yul\":505:512   */\n      dup2\n        /* \"#utility.yul\":498:517   */\n      mstore\n        /* \"#utility.yul\":560:563   */\n      dup5\n        /* \"#utility.yul\":553:557   */\n      0x20\n        /* \"#utility.yul\":548:550   */\n      dup4\n        /* \"#utility.yul\":540:546   */\n      dup7\n        /* \"#utility.yul\":536:551   */\n      add\n        /* \"#utility.yul\":532:558   */\n      add\n        /* \"#utility.yul\":529:564   */\n      gt\n        /* \"#utility.yul\":526:581   */\n      iszero\n      tag_451\n      jumpi\n        /* \"#utility.yul\":577:578   */\n      0x00\n        /* \"#utility.yul\":574:575   */\n      dup1\n        /* \"#utility.yul\":567:579   */\n      revert\n        /* \"#utility.yul\":526:581   */\n    tag_451:\n        /* \"#utility.yul\":642:644   */\n      dup2\n        /* \"#utility.yul\":635:639   */\n      0x20\n        /* \"#utility.yul\":627:633   */\n      dup6\n        /* \"#utility.yul\":623:640   */\n      add\n        /* \"#utility.yul\":616:620   */\n      0x20\n        /* \"#utility.yul\":607:614   */\n      dup4\n        /* \"#utility.yul\":603:621   */\n      add\n        /* \"#utility.yul\":590:645   */\n      calldatacopy\n        /* \"#utility.yul\":690:691   */\n      0x00\n        /* \"#utility.yul\":665:681   */\n      swap2\n      dup2\n      add\n        /* \"#utility.yul\":683:687   */\n      0x20\n        /* \"#utility.yul\":661:688   */\n      add\n        /* \"#utility.yul\":654:692   */\n      swap2\n      swap1\n      swap2\n      mstore\n        /* \"#utility.yul\":669:676   */\n      swap4\n        /* \"#utility.yul\":192:723   */\n      swap3\n      pop\n      pop\n      pop\n      jump\t// out\n        /* \"#utility.yul\":728:914   */\n    tag_105:\n        /* \"#utility.yul\":787:793   */\n      0x00\n        /* \"#utility.yul\":840:842   */\n      0x20\n        /* \"#utility.yul\":828:837   */\n      dup3\n        /* \"#utility.yul\":819:826   */\n      dup5\n        /* \"#utility.yul\":815:838   */\n      sub\n        /* \"#utility.yul\":811:843   */\n      slt\n        /* \"#utility.yul\":808:860   */\n      iszero\n      tag_453\n      jumpi\n        /* \"#utility.yul\":856:857   */\n      0x00\n        /* \"#utility.yul\":853:854   */\n      dup1\n        /* \"#utility.yul\":846:858   */\n      revert\n        /* \"#utility.yul\":808:860   */\n    tag_453:\n        /* \"#utility.yul\":879:908   */\n      tag_454\n        /* \"#utility.yul\":898:907   */\n      dup3\n        /* \"#utility.yul\":879:908   */\n      tag_440\n      jump\t// in\n    tag_454:\n        /* \"#utility.yul\":869:908   */\n      swap4\n        /* \"#utility.yul\":728:914   */\n      swap3\n      pop\n      pop\n      pop\n      jump\t// out\n        /* \"#utility.yul\":919:1383   */\n    tag_43:\n        /* \"#utility.yul\":1006:1012   */\n      0x00\n        /* \"#utility.yul\":1014:1020   */\n      dup1\n        /* \"#utility.yul\":1022:1028   */\n      0x00\n        /* \"#utility.yul\":1075:1077   */\n      0x60\n        /* \"#utility.yul\":1063:1072   */\n      dup5\n        /* \"#utility.yul\":1054:1061   */\n      dup7\n        /* \"#utility.yul\":1050:1073   */\n      sub\n        /* \"#utility.yul\":1046:1078   */\n      slt\n        /* \"#utility.yul\":1043:1095   */\n      iszero\n      tag_456\n      jumpi\n        /* \"#utility.yul\":1091:1092   */\n      0x00\n        /* \"#utility.yul\":1088:1089   */\n      dup1\n        /* \"#utility.yul\":1081:1093   */\n      revert\n        /* \"#utility.yul\":1043:1095   */\n    tag_456:\n        /* \"#utility.yul\":1114:1143   */\n      tag_457\n        /* \"#utility.yul\":1133:1142   */\n      dup5\n        /* \"#utility.yul\":1114:1143   */\n      tag_440\n      jump\t// in\n    tag_457:\n        /* \"#utility.yul\":1104:1143   */\n      swap3\n      pop\n        /* \"#utility.yul\":1194:1196   */\n      0x20\n        /* \"#utility.yul\":1179:1197   */\n      dup5\n      add\n        /* \"#utility.yul\":1166:1198   */\n      calldataload\n      sub(shl(0x40, 0x01), 0x01)\n        /* \"#utility.yul\":1210:1240   */\n      dup2\n      gt\n        /* \"#utility.yul\":1207:1257   */\n      iszero\n      tag_458\n      jumpi\n        /* \"#utility.yul\":1253:1254   */\n      0x00\n        /* \"#utility.yul\":1250:1251   */\n      dup1\n        /* \"#utility.yul\":1243:1255   */\n      revert\n        /* \"#utility.yul\":1207:1257   */\n    tag_458:\n        /* \"#utility.yul\":1276:1326   */\n      tag_459\n        /* \"#utility.yul\":1318:1325   */\n      dup7\n        /* \"#utility.yul\":1309:1315   */\n      dup3\n        /* \"#utility.yul\":1298:1307   */\n      dup8\n        /* \"#utility.yul\":1294:1316   */\n      add\n        /* \"#utility.yul\":1276:1326   */\n      tag_443\n      jump\t// in\n    tag_459:\n        /* \"#utility.yul\":1266:1326   */\n      swap3\n      pop\n      pop\n        /* \"#utility.yul\":1373:1375   */\n      0x40\n        /* \"#utility.yul\":1362:1371   */\n      dup5\n        /* \"#utility.yul\":1358:1376   */\n      add\n        /* \"#utility.yul\":1345:1377   */\n      calldataload\n        /* \"#utility.yul\":1335:1377   */\n      swap1\n      pop\n        /* \"#utility.yul\":919:1383   */\n      swap3\n      pop\n      swap3\n      pop\n      swap3\n      jump\t// out\n        /* \"#utility.yul\":1388:1710   */\n    tag_33:\n        /* \"#utility.yul\":1457:1463   */\n      0x00\n        /* \"#utility.yul\":1510:1512   */\n      0x20\n        /* \"#utility.yul\":1498:1507   */\n      dup3\n        /* \"#utility.yul\":1489:1496   */\n      dup5\n        /* \"#utility.yul\":1485:1508   */\n      sub\n        /* \"#utility.yul\":1481:1513   */\n      slt\n        /* \"#utility.yul\":1478:1530   */\n      iszero\n      tag_461\n      jumpi\n        /* \"#utility.yul\":1526:1527   */\n      0x00\n        /* \"#utility.yul\":1523:1524   */\n      dup1\n        /* \"#utility.yul\":1516:1528   */\n      revert\n        /* \"#utility.yul\":1478:1530   */\n    tag_461:\n        /* \"#utility.yul\":1553:1576   */\n      dup2\n      calldataload\n      sub(shl(0x40, 0x01), 0x01)\n        /* \"#utility.yul\":1588:1618   */\n      dup2\n      gt\n        /* \"#utility.yul\":1585:1635   */\n      iszero\n      tag_462\n      jumpi\n        /* \"#utility.yul\":1631:1632   */\n      0x00\n        /* \"#utility.yul\":1628:1629   */\n      dup1\n        /* \"#utility.yul\":1621:1633   */\n      revert\n        /* \"#utility.yul\":1585:1635   */\n    tag_462:\n        /* \"#utility.yul\":1654:1704   */\n      tag_323\n        /* \"#utility.yul\":1696:1703   */\n      dup5\n        /* \"#utility.yul\":1687:1693   */\n      dup3\n        /* \"#utility.yul\":1676:1685   */\n      dup6\n        /* \"#utility.yul\":1672:1694   */\n      add\n        /* \"#utility.yul\":1654:1704   */\n      tag_443\n      jump\t// in\n        /* \"#utility.yul\":1715:3050   */\n    tag_55:\n        /* \"#utility.yul\":1828:1834   */\n      0x00\n        /* \"#utility.yul\":1836:1842   */\n      dup1\n        /* \"#utility.yul\":1889:1891   */\n      0x40\n        /* \"#utility.yul\":1877:1886   */\n      dup4\n        /* \"#utility.yul\":1868:1875   */\n      dup6\n        /* \"#utility.yul\":1864:1887   */\n      sub\n        /* \"#utility.yul\":1860:1892   */\n      slt\n        /* \"#utility.yul\":1857:1909   */\n      iszero\n      tag_465\n      jumpi\n        /* \"#utility.yul\":1905:1906   */\n      0x00\n        /* \"#utility.yul\":1902:1903   */\n      dup1\n        /* \"#utility.yul\":1895:1907   */\n      revert\n        /* \"#utility.yul\":1857:1909   */\n    tag_465:\n        /* \"#utility.yul\":1932:1955   */\n      dup3\n      calldataload\n      sub(shl(0x40, 0x01), 0x01)\n        /* \"#utility.yul\":2004:2018   */\n      dup1\n      dup3\n      gt\n        /* \"#utility.yul\":2001:2035   */\n      iszero\n      tag_466\n      jumpi\n        /* \"#utility.yul\":2031:2032   */\n      0x00\n        /* \"#utility.yul\":2028:2029   */\n      dup1\n        /* \"#utility.yul\":2021:2033   */\n      revert\n        /* \"#utility.yul\":2001:2035   */\n    tag_466:\n        /* \"#utility.yul\":2054:2104   */\n      tag_467\n        /* \"#utility.yul\":2096:2103   */\n      dup7\n        /* \"#utility.yul\":2087:2093   */\n      dup4\n        /* \"#utility.yul\":2076:2085   */\n      dup8\n        /* \"#utility.yul\":2072:2094   */\n      add\n        /* \"#utility.yul\":2054:2104   */\n      tag_443\n      jump\t// in\n    tag_467:\n        /* \"#utility.yul\":2044:2104   */\n      swap4\n      pop\n        /* \"#utility.yul\":2123:2125   */\n      0x20\n        /* \"#utility.yul\":2113:2125   */\n      swap2\n      pop\n        /* \"#utility.yul\":2178:2180   */\n      dup2\n        /* \"#utility.yul\":2167:2176   */\n      dup6\n        /* \"#utility.yul\":2163:2181   */\n      add\n        /* \"#utility.yul\":2150:2182   */\n      calldataload\n        /* \"#utility.yul\":2207:2209   */\n      dup2\n        /* \"#utility.yul\":2197:2205   */\n      dup2\n        /* \"#utility.yul\":2194:2210   */\n      gt\n        /* \"#utility.yul\":2191:2227   */\n      iszero\n      tag_468\n      jumpi\n        /* \"#utility.yul\":2223:2224   */\n      0x00\n        /* \"#utility.yul\":2220:2221   */\n      dup1\n        /* \"#utility.yul\":2213:2225   */\n      revert\n        /* \"#utility.yul\":2191:2227   */\n    tag_468:\n        /* \"#utility.yul\":2246:2270   */\n      dup6\n      add\n        /* \"#utility.yul\":2301:2305   */\n      0x1f\n        /* \"#utility.yul\":2293:2306   */\n      dup2\n      add\n        /* \"#utility.yul\":2289:2316   */\n      dup8\n      sgt\n        /* \"#utility.yul\":2279:2334   */\n      tag_469\n      jumpi\n        /* \"#utility.yul\":2330:2331   */\n      0x00\n        /* \"#utility.yul\":2327:2328   */\n      dup1\n        /* \"#utility.yul\":2320:2332   */\n      revert\n        /* \"#utility.yul\":2279:2334   */\n    tag_469:\n        /* \"#utility.yul\":2366:2368   */\n      dup1\n        /* \"#utility.yul\":2353:2369   */\n      calldataload\n        /* \"#utility.yul\":2388:2390   */\n      dup3\n        /* \"#utility.yul\":2384:2386   */\n      dup2\n        /* \"#utility.yul\":2381:2391   */\n      gt\n        /* \"#utility.yul\":2378:2414   */\n      iszero\n      tag_471\n      jumpi\n        /* \"#utility.yul\":2394:2412   */\n      tag_471\n      tag_448\n      jump\t// in\n    tag_471:\n        /* \"#utility.yul\":2440:2442   */\n      dup1\n        /* \"#utility.yul\":2437:2438   */\n      0x05\n        /* \"#utility.yul\":2433:2443   */\n      shl\n        /* \"#utility.yul\":2463:2491   */\n      tag_472\n        /* \"#utility.yul\":2487:2489   */\n      dup6\n        /* \"#utility.yul\":2483:2485   */\n      dup3\n        /* \"#utility.yul\":2479:2490   */\n      add\n        /* \"#utility.yul\":2463:2491   */\n      tag_450\n      jump\t// in\n    tag_472:\n        /* \"#utility.yul\":2525:2540   */\n      dup3\n      dup2\n      mstore\n        /* \"#utility.yul\":2556:2568   */\n      dup6\n      dup2\n      add\n      swap1\n        /* \"#utility.yul\":2588:2599   */\n      dup5\n      dup8\n      add\n        /* \"#utility.yul\":2618:2629   */\n      dup4\n      dup7\n      add\n        /* \"#utility.yul\":2614:2634   */\n      dup9\n      add\n        /* \"#utility.yul\":2611:2644   */\n      dup13\n      lt\n        /* \"#utility.yul\":2608:2661   */\n      iszero\n      tag_473\n      jumpi\n        /* \"#utility.yul\":2657:2658   */\n      0x00\n        /* \"#utility.yul\":2654:2655   */\n      dup1\n        /* \"#utility.yul\":2647:2659   */\n      revert\n        /* \"#utility.yul\":2608:2661   */\n    tag_473:\n        /* \"#utility.yul\":2679:2680   */\n      0x00\n        /* \"#utility.yul\":2670:2680   */\n      swap4\n      pop\n        /* \"#utility.yul\":2700:2701   */\n      dup4\n        /* \"#utility.yul\":2710:3020   */\n    tag_474:\n        /* \"#utility.yul\":2726:2728   */\n      dup6\n        /* \"#utility.yul\":2721:2724   */\n      dup2\n        /* \"#utility.yul\":2718:2729   */\n      lt\n        /* \"#utility.yul\":2710:3020   */\n      iszero\n      tag_476\n      jumpi\n        /* \"#utility.yul\":2807:2810   */\n      dup2\n        /* \"#utility.yul\":2794:2811   */\n      calldataload\n        /* \"#utility.yul\":2843:2845   */\n      dup9\n        /* \"#utility.yul\":2830:2841   */\n      dup2\n        /* \"#utility.yul\":2827:2846   */\n      gt\n        /* \"#utility.yul\":2824:2863   */\n      iszero\n      tag_477\n      jumpi\n        /* \"#utility.yul\":2859:2860   */\n      dup6\n        /* \"#utility.yul\":2856:2857   */\n      dup7\n        /* \"#utility.yul\":2849:2861   */\n      revert\n        /* \"#utility.yul\":2824:2863   */\n    tag_477:\n        /* \"#utility.yul\":2888:2945   */\n      tag_478\n        /* \"#utility.yul\":2937:2944   */\n      dup15\n        /* \"#utility.yul\":2932:2934   */\n      dup12\n        /* \"#utility.yul\":2918:2929   */\n      dup4\n        /* \"#utility.yul\":2914:2916   */\n      dup12\n        /* \"#utility.yul\":2910:2930   */\n      add\n        /* \"#utility.yul\":2906:2935   */\n      add\n        /* \"#utility.yul\":2888:2945   */\n      tag_443\n      jump\t// in\n    tag_478:\n        /* \"#utility.yul\":2876:2946   */\n      dup6\n      mstore\n      pop\n        /* \"#utility.yul\":2966:2978   */\n      swap3\n      dup9\n      add\n      swap3\n        /* \"#utility.yul\":2998:3010   */\n      swap1\n      dup9\n      add\n      swap1\n        /* \"#utility.yul\":2748:2749   */\n      0x01\n        /* \"#utility.yul\":2739:2750   */\n      add\n        /* \"#utility.yul\":2710:3020   */\n      jump(tag_474)\n    tag_476:\n      pop\n        /* \"#utility.yul\":1715:3050   */\n      swap9\n      swap12\n        /* \"#utility.yul\":3039:3044   */\n      swap1\n      swap11\n      pop\n        /* \"#utility.yul\":1715:3050   */\n      swap9\n      pop\n      pop\n      pop\n      pop\n      pop\n      pop\n      pop\n      pop\n      pop\n      jump\t// out\n        /* \"#utility.yul\":3055:3445   */\n    tag_90:\n        /* \"#utility.yul\":3133:3139   */\n      0x00\n        /* \"#utility.yul\":3141:3147   */\n      dup1\n        /* \"#utility.yul\":3194:3196   */\n      0x40\n        /* \"#utility.yul\":3182:3191   */\n      dup4\n        /* \"#utility.yul\":3173:3180   */\n      dup6\n        /* \"#utility.yul\":3169:3192   */\n      sub\n        /* \"#utility.yul\":3165:3197   */\n      slt\n        /* \"#utility.yul\":3162:3214   */\n      iszero\n      tag_480\n      jumpi\n        /* \"#utility.yul\":3210:3211   */\n      0x00\n        /* \"#utility.yul\":3207:3208   */\n      dup1\n        /* \"#utility.yul\":3200:3212   */\n      revert\n        /* \"#utility.yul\":3162:3214   */\n    tag_480:\n        /* \"#utility.yul\":3237:3260   */\n      dup3\n      calldataload\n      sub(shl(0x40, 0x01), 0x01)\n        /* \"#utility.yul\":3272:3302   */\n      dup2\n      gt\n        /* \"#utility.yul\":3269:3319   */\n      iszero\n      tag_481\n      jumpi\n        /* \"#utility.yul\":3315:3316   */\n      0x00\n        /* \"#utility.yul\":3312:3313   */\n      dup1\n        /* \"#utility.yul\":3305:3317   */\n      revert\n        /* \"#utility.yul\":3269:3319   */\n    tag_481:\n        /* \"#utility.yul\":3338:3388   */\n      tag_482\n        /* \"#utility.yul\":3380:3387   */\n      dup6\n        /* \"#utility.yul\":3371:3377   */\n      dup3\n        /* \"#utility.yul\":3360:3369   */\n      dup7\n        /* \"#utility.yul\":3356:3378   */\n      add\n        /* \"#utility.yul\":3338:3388   */\n      tag_443\n      jump\t// in\n    tag_482:\n        /* \"#utility.yul\":3328:3388   */\n      swap6\n        /* \"#utility.yul\":3435:3437   */\n      0x20\n        /* \"#utility.yul\":3420:3438   */\n      swap5\n      swap1\n      swap5\n      add\n        /* \"#utility.yul\":3407:3439   */\n      calldataload\n      swap5\n      pop\n      pop\n      pop\n      pop\n        /* \"#utility.yul\":3055:3445   */\n      jump\t// out\n        /* \"#utility.yul\":3450:4061   */\n    tag_129:\n        /* \"#utility.yul\":3547:3553   */\n      0x00\n        /* \"#utility.yul\":3555:3561   */\n      dup1\n        /* \"#utility.yul\":3563:3569   */\n      0x00\n        /* \"#utility.yul\":3616:3618   */\n      0x60\n        /* \"#utility.yul\":3604:3613   */\n      dup5\n        /* \"#utility.yul\":3595:3602   */\n      dup7\n        /* \"#utility.yul\":3591:3614   */\n      sub\n        /* \"#utility.yul\":3587:3619   */\n      slt\n        /* \"#utility.yul\":3584:3636   */\n      iszero\n      tag_484\n      jumpi\n        /* \"#utility.yul\":3632:3633   */\n      0x00\n        /* \"#utility.yul\":3629:3630   */\n      dup1\n        /* \"#utility.yul\":3622:3634   */\n      revert\n        /* \"#utility.yul\":3584:3636   */\n    tag_484:\n        /* \"#utility.yul\":3659:3682   */\n      dup4\n      calldataload\n      sub(shl(0x40, 0x01), 0x01)\n        /* \"#utility.yul\":3731:3745   */\n      dup1\n      dup3\n      gt\n        /* \"#utility.yul\":3728:3762   */\n      iszero\n      tag_485\n      jumpi\n        /* \"#utility.yul\":3758:3759   */\n      0x00\n        /* \"#utility.yul\":3755:3756   */\n      dup1\n        /* \"#utility.yul\":3748:3760   */\n      revert\n        /* \"#utility.yul\":3728:3762   */\n    tag_485:\n        /* \"#utility.yul\":3781:3831   */\n      tag_486\n        /* \"#utility.yul\":3823:3830   */\n      dup8\n        /* \"#utility.yul\":3814:3820   */\n      dup4\n        /* \"#utility.yul\":3803:3812   */\n      dup9\n        /* \"#utility.yul\":3799:3821   */\n      add\n        /* \"#utility.yul\":3781:3831   */\n      tag_443\n      jump\t// in\n    tag_486:\n        /* \"#utility.yul\":3771:3831   */\n      swap5\n      pop\n        /* \"#utility.yul\":3884:3886   */\n      0x20\n        /* \"#utility.yul\":3873:3882   */\n      dup7\n        /* \"#utility.yul\":3869:3887   */\n      add\n        /* \"#utility.yul\":3856:3888   */\n      calldataload\n        /* \"#utility.yul\":3840:3888   */\n      swap2\n      pop\n        /* \"#utility.yul\":3913:3915   */\n      dup1\n        /* \"#utility.yul\":3903:3911   */\n      dup3\n        /* \"#utility.yul\":3900:3916   */\n      gt\n        /* \"#utility.yul\":3897:3933   */\n      iszero\n      tag_487\n      jumpi\n        /* \"#utility.yul\":3929:3930   */\n      0x00\n        /* \"#utility.yul\":3926:3927   */\n      dup1\n        /* \"#utility.yul\":3919:3931   */\n      revert\n        /* \"#utility.yul\":3897:3933   */\n    tag_487:\n      pop\n        /* \"#utility.yul\":3952:4004   */\n      tag_459\n        /* \"#utility.yul\":3996:4003   */\n      dup7\n        /* \"#utility.yul\":3985:3993   */\n      dup3\n        /* \"#utility.yul\":3974:3983   */\n      dup8\n        /* \"#utility.yul\":3970:3994   */\n      add\n        /* \"#utility.yul\":3952:4004   */\n      tag_443\n      jump\t// in\n        /* \"#utility.yul\":4066:4677   */\n    tag_86:\n        /* \"#utility.yul\":4163:4169   */\n      0x00\n        /* \"#utility.yul\":4171:4177   */\n      dup1\n        /* \"#utility.yul\":4179:4185   */\n      0x00\n        /* \"#utility.yul\":4232:4234   */\n      0x60\n        /* \"#utility.yul\":4220:4229   */\n      dup5\n        /* \"#utility.yul\":4211:4218   */\n      dup7\n        /* \"#utility.yul\":4207:4230   */\n      sub\n        /* \"#utility.yul\":4203:4235   */\n      slt\n        /* \"#utility.yul\":4200:4252   */\n      iszero\n      tag_490\n      jumpi\n        /* \"#utility.yul\":4248:4249   */\n      0x00\n        /* \"#utility.yul\":4245:4246   */\n      dup1\n        /* \"#utility.yul\":4238:4250   */\n      revert\n        /* \"#utility.yul\":4200:4252   */\n    tag_490:\n        /* \"#utility.yul\":4275:4298   */\n      dup4\n      calldataload\n      sub(shl(0x40, 0x01), 0x01)\n        /* \"#utility.yul\":4347:4361   */\n      dup1\n      dup3\n      gt\n        /* \"#utility.yul\":4344:4378   */\n      iszero\n      tag_491\n      jumpi\n        /* \"#utility.yul\":4374:4375   */\n      0x00\n        /* \"#utility.yul\":4371:4372   */\n      dup1\n        /* \"#utility.yul\":4364:4376   */\n      revert\n        /* \"#utility.yul\":4344:4378   */\n    tag_491:\n        /* \"#utility.yul\":4397:4447   */\n      tag_492\n        /* \"#utility.yul\":4439:4446   */\n      dup8\n        /* \"#utility.yul\":4430:4436   */\n      dup4\n        /* \"#utility.yul\":4419:4428   */\n      dup9\n        /* \"#utility.yul\":4415:4437   */\n      add\n        /* \"#utility.yul\":4397:4447   */\n      tag_443\n      jump\t// in\n    tag_492:\n        /* \"#utility.yul\":4387:4447   */\n      swap5\n      pop\n        /* \"#utility.yul\":4494:4496   */\n      0x20\n        /* \"#utility.yul\":4483:4492   */\n      dup7\n        /* \"#utility.yul\":4479:4497   */\n      add\n        /* \"#utility.yul\":4466:4498   */\n      calldataload\n        /* \"#utility.yul\":4456:4498   */\n      swap4\n      pop\n        /* \"#utility.yul\":4551:4553   */\n      0x40\n        /* \"#utility.yul\":4540:4549   */\n      dup7\n        /* \"#utility.yul\":4536:4554   */\n      add\n        /* \"#utility.yul\":4523:4555   */\n      calldataload\n        /* \"#utility.yul\":4507:4555   */\n      swap2\n      pop\n        /* \"#utility.yul\":4580:4582   */\n      dup1\n        /* \"#utility.yul\":4570:4578   */\n      dup3\n        /* \"#utility.yul\":4567:4583   */\n      gt\n        /* \"#utility.yul\":4564:4600   */\n      iszero\n      tag_493\n      jumpi\n        /* \"#utility.yul\":4596:4597   */\n      0x00\n        /* \"#utility.yul\":4593:4594   */\n      dup1\n        /* \"#utility.yul\":4586:4598   */\n      revert\n        /* \"#utility.yul\":4564:4600   */\n    tag_493:\n      pop\n        /* \"#utility.yul\":4619:4671   */\n      tag_494\n        /* \"#utility.yul\":4663:4670   */\n      dup7\n        /* \"#utility.yul\":4652:4660   */\n      dup3\n        /* \"#utility.yul\":4641:4650   */\n      dup8\n        /* \"#utility.yul\":4637:4661   */\n      add\n        /* \"#utility.yul\":4619:4671   */\n      tag_443\n      jump\t// in\n    tag_494:\n        /* \"#utility.yul\":4609:4671   */\n      swap2\n      pop\n      pop\n        /* \"#utility.yul\":4066:4677   */\n      swap3\n      pop\n      swap3\n      pop\n      swap3\n      jump\t// out\n        /* \"#utility.yul\":4682:4862   */\n    tag_94:\n        /* \"#utility.yul\":4741:4747   */\n      0x00\n        /* \"#utility.yul\":4794:4796   */\n      0x20\n        /* \"#utility.yul\":4782:4791   */\n      dup3\n        /* \"#utility.yul\":4773:4780   */\n      dup5\n        /* \"#utility.yul\":4769:4792   */\n      sub\n        /* \"#utility.yul\":4765:4797   */\n      slt\n        /* \"#utility.yul\":4762:4814   */\n      iszero\n      tag_496\n      jumpi\n        /* \"#utility.yul\":4810:4811   */\n      0x00\n        /* \"#utility.yul\":4807:4808   */\n      dup1\n        /* \"#utility.yul\":4800:4812   */\n      revert\n        /* \"#utility.yul\":4762:4814   */\n    tag_496:\n      pop\n        /* \"#utility.yul\":4833:4856   */\n      calldataload\n      swap2\n        /* \"#utility.yul\":4682:4862   */\n      swap1\n      pop\n      jump\t// out\n        /* \"#utility.yul\":4867:5208   */\n    tag_39:\n        /* \"#utility.yul\":4932:4938   */\n      0x00\n        /* \"#utility.yul\":4940:4946   */\n      dup1\n        /* \"#utility.yul\":4993:4995   */\n      0x40\n        /* \"#utility.yul\":4981:4990   */\n      dup4\n        /* \"#utility.yul\":4972:4979   */\n      dup6\n        /* \"#utility.yul\":4968:4991   */\n      sub\n        /* \"#utility.yul\":4964:4996   */\n      slt\n        /* \"#utility.yul\":4961:5013   */\n      iszero\n      tag_498\n      jumpi\n        /* \"#utility.yul\":5009:5010   */\n      0x00\n        /* \"#utility.yul\":5006:5007   */\n      dup1\n        /* \"#utility.yul\":4999:5011   */\n      revert\n        /* \"#utility.yul\":4961:5013   */\n    tag_498:\n        /* \"#utility.yul\":5045:5054   */\n      dup3\n        /* \"#utility.yul\":5032:5055   */\n      calldataload\n        /* \"#utility.yul\":5022:5055   */\n      swap2\n      pop\n        /* \"#utility.yul\":5105:5107   */\n      0x20\n        /* \"#utility.yul\":5094:5103   */\n      dup4\n        /* \"#utility.yul\":5090:5108   */\n      add\n        /* \"#utility.yul\":5077:5109   */\n      calldataload\n        /* \"#utility.yul\":5152:5157   */\n      dup1\n        /* \"#utility.yul\":5145:5158   */\n      iszero\n        /* \"#utility.yul\":5138:5159   */\n      iszero\n        /* \"#utility.yul\":5131:5136   */\n      dup2\n        /* \"#utility.yul\":5128:5160   */\n      eq\n        /* \"#utility.yul\":5118:5178   */\n      tag_499\n      jumpi\n        /* \"#utility.yul\":5174:5175   */\n      0x00\n        /* \"#utility.yul\":5171:5172   */\n      dup1\n        /* \"#utility.yul\":5164:5176   */\n      revert\n        /* \"#utility.yul\":5118:5178   */\n    tag_499:\n        /* \"#utility.yul\":5197:5202   */\n      dup1\n        /* \"#utility.yul\":5187:5202   */\n      swap2\n      pop\n      pop\n        /* \"#utility.yul\":4867:5208   */\n      swap3\n      pop\n      swap3\n      swap1\n      pop\n      jump\t// out\n        /* \"#utility.yul\":5213:5471   */\n    tag_500:\n        /* \"#utility.yul\":5255:5258   */\n      0x00\n        /* \"#utility.yul\":5293:5298   */\n      dup2\n        /* \"#utility.yul\":5287:5299   */\n      mload\n        /* \"#utility.yul\":5320:5326   */\n      dup1\n        /* \"#utility.yul\":5315:5318   */\n      dup5\n        /* \"#utility.yul\":5308:5327   */\n      mstore\n        /* \"#utility.yul\":5336:5399   */\n      tag_502\n        /* \"#utility.yul\":5392:5398   */\n      dup2\n        /* \"#utility.yul\":5385:5389   */\n      0x20\n        /* \"#utility.yul\":5380:5383   */\n      dup7\n        /* \"#utility.yul\":5376:5390   */\n      add\n        /* \"#utility.yul\":5369:5373   */\n      0x20\n        /* \"#utility.yul\":5362:5367   */\n      dup7\n        /* \"#utility.yul\":5358:5374   */\n      add\n        /* \"#utility.yul\":5336:5399   */\n      tag_503\n      jump\t// in\n    tag_502:\n        /* \"#utility.yul\":5453:5455   */\n      0x1f\n        /* \"#utility.yul\":5432:5447   */\n      add\n      not(0x1f)\n        /* \"#utility.yul\":5428:5457   */\n      and\n        /* \"#utility.yul\":5419:5458   */\n      swap3\n      swap1\n      swap3\n      add\n        /* \"#utility.yul\":5460:5464   */\n      0x20\n        /* \"#utility.yul\":5415:5465   */\n      add\n      swap3\n        /* \"#utility.yul\":5213:5471   */\n      swap2\n      pop\n      pop\n      jump\t// out\n        /* \"#utility.yul\":5476:5752   */\n    tag_148:\n        /* \"#utility.yul\":5607:5610   */\n      0x00\n        /* \"#utility.yul\":5645:5651   */\n      dup3\n        /* \"#utility.yul\":5639:5652   */\n      mload\n        /* \"#utility.yul\":5661:5714   */\n      tag_505\n        /* \"#utility.yul\":5707:5713   */\n      dup2\n        /* \"#utility.yul\":5702:5705   */\n      dup5\n        /* \"#utility.yul\":5695:5699   */\n      0x20\n        /* \"#utility.yul\":5687:5693   */\n      dup8\n        /* \"#utility.yul\":5683:5700   */\n      add\n        /* \"#utility.yul\":5661:5714   */\n      tag_503\n      jump\t// in\n    tag_505:\n        /* \"#utility.yul\":5730:5746   */\n      swap2\n      swap1\n      swap2\n      add\n      swap3\n        /* \"#utility.yul\":5476:5752   */\n      swap2\n      pop\n      pop\n      jump\t// out\n        /* \"#utility.yul\":5757:6856   */\n    tag_159:\n        /* \"#utility.yul\":5885:5888   */\n      0x00\n        /* \"#utility.yul\":5914:5915   */\n      dup1\n        /* \"#utility.yul\":5947:5953   */\n      dup4\n        /* \"#utility.yul\":5941:5954   */\n      sload\n        /* \"#utility.yul\":5977:5980   */\n      dup2\n        /* \"#utility.yul\":5999:6000   */\n      0x01\n        /* \"#utility.yul\":6027:6036   */\n      dup3\n        /* \"#utility.yul\":6023:6025   */\n      dup2\n        /* \"#utility.yul\":6019:6037   */\n      shr\n        /* \"#utility.yul\":6009:6037   */\n      swap2\n      pop\n        /* \"#utility.yul\":6087:6089   */\n      dup1\n        /* \"#utility.yul\":6076:6085   */\n      dup4\n        /* \"#utility.yul\":6072:6090   */\n      and\n        /* \"#utility.yul\":6109:6127   */\n      dup1\n        /* \"#utility.yul\":6099:6160   */\n      tag_507\n      jumpi\n        /* \"#utility.yul\":6153:6157   */\n      0x7f\n        /* \"#utility.yul\":6145:6151   */\n      dup4\n        /* \"#utility.yul\":6141:6158   */\n      and\n        /* \"#utility.yul\":6131:6158   */\n      swap3\n      pop\n        /* \"#utility.yul\":6099:6160   */\n    tag_507:\n        /* \"#utility.yul\":6179:6181   */\n      0x20\n        /* \"#utility.yul\":6227:6229   */\n      dup1\n        /* \"#utility.yul\":6219:6225   */\n      dup5\n        /* \"#utility.yul\":6216:6230   */\n      lt\n        /* \"#utility.yul\":6196:6214   */\n      dup3\n        /* \"#utility.yul\":6193:6231   */\n      eq\n        /* \"#utility.yul\":6190:6355   */\n      iszero\n      tag_508\n      jumpi\n      shl(0xe0, 0x4e487b71)\n        /* \"#utility.yul\":6254:6287   */\n      dup7\n      mstore\n        /* \"#utility.yul\":6310:6314   */\n      0x22\n        /* \"#utility.yul\":6307:6308   */\n      0x04\n        /* \"#utility.yul\":6300:6315   */\n      mstore\n        /* \"#utility.yul\":6340:6344   */\n      0x24\n        /* \"#utility.yul\":6261:6264   */\n      dup7\n        /* \"#utility.yul\":6328:6345   */\n      revert\n        /* \"#utility.yul\":6190:6355   */\n    tag_508:\n        /* \"#utility.yul\":6371:6389   */\n      dup2\n        /* \"#utility.yul\":6398:6502   */\n      dup1\n      iszero\n      tag_510\n      jumpi\n        /* \"#utility.yul\":6516:6517   */\n      0x01\n        /* \"#utility.yul\":6511:6831   */\n      dup2\n      eq\n      tag_511\n      jumpi\n        /* \"#utility.yul\":6364:6831   */\n      jump(tag_509)\n        /* \"#utility.yul\":6398:6502   */\n    tag_510:\n      not(0xff)\n        /* \"#utility.yul\":6431:6455   */\n      dup7\n      and\n        /* \"#utility.yul\":6419:6456   */\n      dup10\n      mstore\n        /* \"#utility.yul\":6476:6492   */\n      dup5\n      dup10\n      add\n      swap7\n      pop\n        /* \"#utility.yul\":6398:6502   */\n      jump(tag_509)\n        /* \"#utility.yul\":6511:6831   */\n    tag_511:\n        /* \"#utility.yul\":12342:12343   */\n      0x00\n        /* \"#utility.yul\":12335:12349   */\n      dup11\n      dup2\n      mstore\n        /* \"#utility.yul\":12379:12383   */\n      0x20\n        /* \"#utility.yul\":12366:12384   */\n      swap1\n      keccak256\n        /* \"#utility.yul\":6606:6607   */\n      0x00\n        /* \"#utility.yul\":6620:6785   */\n    tag_514:\n        /* \"#utility.yul\":6634:6640   */\n      dup7\n        /* \"#utility.yul\":6631:6632   */\n      dup2\n        /* \"#utility.yul\":6628:6641   */\n      lt\n        /* \"#utility.yul\":6620:6785   */\n      iszero\n      tag_516\n      jumpi\n        /* \"#utility.yul\":6712:6726   */\n      dup2\n      sload\n        /* \"#utility.yul\":6699:6710   */\n      dup12\n      dup3\n      add\n        /* \"#utility.yul\":6692:6727   */\n      mstore\n        /* \"#utility.yul\":6755:6771   */\n      swap1\n      dup6\n      add\n      swap1\n        /* \"#utility.yul\":6649:6659   */\n      dup4\n      add\n        /* \"#utility.yul\":6620:6785   */\n      jump(tag_514)\n    tag_516:\n        /* \"#utility.yul\":6624:6627   */\n      pop\n      pop\n        /* \"#utility.yul\":6814:6820   */\n      dup5\n        /* \"#utility.yul\":6809:6812   */\n      dup10\n        /* \"#utility.yul\":6805:6821   */\n      add\n        /* \"#utility.yul\":6798:6821   */\n      swap7\n      pop\n        /* \"#utility.yul\":6364:6831   */\n    tag_509:\n      pop\n        /* \"#utility.yul\":6847:6850   */\n      swap5\n      swap9\n        /* \"#utility.yul\":5757:6856   */\n      swap8\n      pop\n      pop\n      pop\n      pop\n      pop\n      pop\n      pop\n      pop\n      jump\t// out\n        /* \"#utility.yul\":7069:7467   */\n    tag_97:\n      sub(shl(0xa0, 0x01), 0x01)\n        /* \"#utility.yul\":7268:7300   */\n      dup5\n      and\n        /* \"#utility.yul\":7250:7301   */\n      dup2\n      mstore\n        /* \"#utility.yul\":7337:7339   */\n      0x60\n        /* \"#utility.yul\":7332:7334   */\n      0x20\n        /* \"#utility.yul\":7317:7335   */\n      dup3\n      add\n        /* \"#utility.yul\":7310:7340   */\n      dup2\n      swap1\n      mstore\n      0x00\n      swap1\n        /* \"#utility.yul\":7357:7402   */\n      tag_519\n      swap1\n        /* \"#utility.yul\":7383:7401   */\n      dup4\n      add\n        /* \"#utility.yul\":7375:7381   */\n      dup6\n        /* \"#utility.yul\":7357:7402   */\n      tag_500\n      jump\t// in\n    tag_519:\n        /* \"#utility.yul\":7349:7402   */\n      swap1\n      pop\n        /* \"#utility.yul\":7452:7458   */\n      dup3\n        /* \"#utility.yul\":7445:7459   */\n      iszero\n        /* \"#utility.yul\":7438:7460   */\n      iszero\n        /* \"#utility.yul\":7433:7435   */\n      0x40\n        /* \"#utility.yul\":7422:7431   */\n      dup4\n        /* \"#utility.yul\":7418:7436   */\n      add\n        /* \"#utility.yul\":7411:7461   */\n      mstore\n        /* \"#utility.yul\":7069:7467   */\n      swap5\n      swap4\n      pop\n      pop\n      pop\n      pop\n      jump\t// out\n        /* \"#utility.yul\":7472:7933   */\n    tag_138:\n      sub(shl(0xa0, 0x01), 0x01)\n        /* \"#utility.yul\":7705:7737   */\n      dup6\n      and\n        /* \"#utility.yul\":7687:7738   */\n      dup2\n      mstore\n        /* \"#utility.yul\":7774:7777   */\n      0x80\n        /* \"#utility.yul\":7769:7771   */\n      0x20\n        /* \"#utility.yul\":7754:7772   */\n      dup3\n      add\n        /* \"#utility.yul\":7747:7778   */\n      dup2\n      swap1\n      mstore\n      0x00\n      swap1\n        /* \"#utility.yul\":7795:7841   */\n      tag_521\n      swap1\n        /* \"#utility.yul\":7821:7840   */\n      dup4\n      add\n        /* \"#utility.yul\":7813:7819   */\n      dup7\n        /* \"#utility.yul\":7795:7841   */\n      tag_500\n      jump\t// in\n    tag_521:\n        /* \"#utility.yul\":7872:7874   */\n      0x40\n        /* \"#utility.yul\":7857:7875   */\n      dup4\n      add\n        /* \"#utility.yul\":7850:7884   */\n      swap5\n      swap1\n      swap5\n      mstore\n      pop\n        /* \"#utility.yul\":7915:7917   */\n      0x60\n        /* \"#utility.yul\":7900:7918   */\n      add\n        /* \"#utility.yul\":7893:7927   */\n      mstore\n        /* \"#utility.yul\":7787:7841   */\n      swap3\n        /* \"#utility.yul\":7472:7933   */\n      swap2\n      pop\n      pop\n      jump\t// out\n        /* \"#utility.yul\":7938:8741   */\n    tag_66:\n        /* \"#utility.yul\":8100:8104   */\n      0x00\n        /* \"#utility.yul\":8129:8131   */\n      0x20\n        /* \"#utility.yul\":8169:8171   */\n      dup1\n        /* \"#utility.yul\":8158:8167   */\n      dup4\n        /* \"#utility.yul\":8154:8172   */\n      add\n        /* \"#utility.yul\":8199:8201   */\n      dup2\n        /* \"#utility.yul\":8188:8197   */\n      dup5\n        /* \"#utility.yul\":8181:8202   */\n      mstore\n        /* \"#utility.yul\":8222:8228   */\n      dup1\n        /* \"#utility.yul\":8257:8263   */\n      dup6\n        /* \"#utility.yul\":8251:8264   */\n      mload\n        /* \"#utility.yul\":8288:8294   */\n      dup1\n        /* \"#utility.yul\":8280:8286   */\n      dup4\n        /* \"#utility.yul\":8273:8295   */\n      mstore\n        /* \"#utility.yul\":8326:8328   */\n      0x40\n        /* \"#utility.yul\":8315:8324   */\n      dup7\n        /* \"#utility.yul\":8311:8329   */\n      add\n        /* \"#utility.yul\":8304:8329   */\n      swap2\n      pop\n        /* \"#utility.yul\":8388:8390   */\n      0x40\n        /* \"#utility.yul\":8378:8384   */\n      dup2\n        /* \"#utility.yul\":8375:8376   */\n      0x05\n        /* \"#utility.yul\":8371:8385   */\n      shl\n        /* \"#utility.yul\":8360:8369   */\n      dup8\n        /* \"#utility.yul\":8356:8386   */\n      add\n        /* \"#utility.yul\":8352:8391   */\n      add\n        /* \"#utility.yul\":8338:8391   */\n      swap3\n      pop\n        /* \"#utility.yul\":8426:8428   */\n      dup4\n        /* \"#utility.yul\":8418:8424   */\n      dup8\n        /* \"#utility.yul\":8414:8429   */\n      add\n        /* \"#utility.yul\":8447:8448   */\n      0x00\n        /* \"#utility.yul\":8457:8712   */\n    tag_523:\n        /* \"#utility.yul\":8471:8477   */\n      dup3\n        /* \"#utility.yul\":8468:8469   */\n      dup2\n        /* \"#utility.yul\":8465:8478   */\n      lt\n        /* \"#utility.yul\":8457:8712   */\n      iszero\n      tag_525\n      jumpi\n        /* \"#utility.yul\":8564:8566   */\n      0x3f\n        /* \"#utility.yul\":8560:8567   */\n      not\n        /* \"#utility.yul\":8548:8557   */\n      dup9\n        /* \"#utility.yul\":8540:8546   */\n      dup7\n        /* \"#utility.yul\":8536:8558   */\n      sub\n        /* \"#utility.yul\":8532:8568   */\n      add\n        /* \"#utility.yul\":8527:8530   */\n      dup5\n        /* \"#utility.yul\":8520:8569   */\n      mstore\n        /* \"#utility.yul\":8592:8632   */\n      tag_526\n        /* \"#utility.yul\":8625:8631   */\n      dup6\n        /* \"#utility.yul\":8616:8622   */\n      dup4\n        /* \"#utility.yul\":8610:8623   */\n      mload\n        /* \"#utility.yul\":8592:8632   */\n      tag_500\n      jump\t// in\n    tag_526:\n        /* \"#utility.yul\":8582:8632   */\n      swap5\n      pop\n        /* \"#utility.yul\":8690:8702   */\n      swap3\n      dup6\n      add\n      swap3\n        /* \"#utility.yul\":8655:8670   */\n      swap1\n      dup6\n      add\n      swap1\n        /* \"#utility.yul\":8493:8494   */\n      0x01\n        /* \"#utility.yul\":8486:8495   */\n      add\n        /* \"#utility.yul\":8457:8712   */\n      jump(tag_523)\n    tag_525:\n      pop\n        /* \"#utility.yul\":8729:8735   */\n      swap3\n      swap8\n        /* \"#utility.yul\":7938:8741   */\n      swap7\n      pop\n      pop\n      pop\n      pop\n      pop\n      pop\n      pop\n      jump\t// out\n        /* \"#utility.yul\":9120:9637   */\n    tag_108:\n        /* \"#utility.yul\":9375:9378   */\n      0xa0\n        /* \"#utility.yul\":9364:9373   */\n      dup2\n        /* \"#utility.yul\":9357:9379   */\n      mstore\n        /* \"#utility.yul\":9338:9342   */\n      0x00\n        /* \"#utility.yul\":9396:9442   */\n      tag_530\n        /* \"#utility.yul\":9437:9440   */\n      0xa0\n        /* \"#utility.yul\":9426:9435   */\n      dup4\n        /* \"#utility.yul\":9422:9441   */\n      add\n        /* \"#utility.yul\":9414:9420   */\n      dup9\n        /* \"#utility.yul\":9396:9442   */\n      tag_500\n      jump\t// in\n    tag_530:\n        /* \"#utility.yul\":9388:9442   */\n      swap1\n      pop\n        /* \"#utility.yul\":9478:9484   */\n      dup6\n        /* \"#utility.yul\":9473:9475   */\n      0x20\n        /* \"#utility.yul\":9462:9471   */\n      dup4\n        /* \"#utility.yul\":9458:9476   */\n      add\n        /* \"#utility.yul\":9451:9485   */\n      mstore\n        /* \"#utility.yul\":9521:9527   */\n      dup5\n        /* \"#utility.yul\":9516:9518   */\n      0x40\n        /* \"#utility.yul\":9505:9514   */\n      dup4\n        /* \"#utility.yul\":9501:9519   */\n      add\n        /* \"#utility.yul\":9494:9528   */\n      mstore\n        /* \"#utility.yul\":9564:9570   */\n      dup4\n        /* \"#utility.yul\":9559:9561   */\n      0x60\n        /* \"#utility.yul\":9548:9557   */\n      dup4\n        /* \"#utility.yul\":9544:9562   */\n      add\n        /* \"#utility.yul\":9537:9571   */\n      mstore\n        /* \"#utility.yul\":9622:9628   */\n      dup3\n        /* \"#utility.yul\":9615:9629   */\n      iszero\n        /* \"#utility.yul\":9608:9630   */\n      iszero\n        /* \"#utility.yul\":9602:9605   */\n      0x80\n        /* \"#utility.yul\":9591:9600   */\n      dup4\n        /* \"#utility.yul\":9587:9606   */\n      add\n        /* \"#utility.yul\":9580:9631   */\n      mstore\n        /* \"#utility.yul\":9120:9637   */\n      swap7\n      swap6\n      pop\n      pop\n      pop\n      pop\n      pop\n      pop\n      jump\t// out\n        /* \"#utility.yul\":9996:10343   */\n    tag_275:\n        /* \"#utility.yul\":10198:10200   */\n      0x20\n        /* \"#utility.yul\":10180:10201   */\n      dup1\n      dup3\n      mstore\n        /* \"#utility.yul\":10237:10239   */\n      0x17\n        /* \"#utility.yul\":10217:10235   */\n      swap1\n      dup3\n      add\n        /* \"#utility.yul\":10210:10240   */\n      mstore\n      shl(0x4a, 0x115c9c9bdc8e88125b9d985b1a59081c185cdcdddbdc99)\n        /* \"#utility.yul\":10271:10273   */\n      0x40\n        /* \"#utility.yul\":10256:10274   */\n      dup3\n      add\n        /* \"#utility.yul\":10249:10302   */\n      mstore\n        /* \"#utility.yul\":10334:10336   */\n      0x60\n        /* \"#utility.yul\":10319:10337   */\n      add\n      swap1\n        /* \"#utility.yul\":9996:10343   */\n      jump\t// out\n        /* \"#utility.yul\":10348:10697   */\n    tag_271:\n        /* \"#utility.yul\":10550:10552   */\n      0x20\n        /* \"#utility.yul\":10532:10553   */\n      dup1\n      dup3\n      mstore\n        /* \"#utility.yul\":10589:10591   */\n      0x19\n        /* \"#utility.yul\":10569:10587   */\n      swap1\n      dup3\n      add\n        /* \"#utility.yul\":10562:10592   */\n      mstore\n      shl(0x3a, 0x115c9c9bdc8e88155cd95c88191bd95cdb89dd08195e1a5cdd)\n        /* \"#utility.yul\":10623:10625   */\n      0x40\n        /* \"#utility.yul\":10608:10626   */\n      dup3\n      add\n        /* \"#utility.yul\":10601:10656   */\n      mstore\n        /* \"#utility.yul\":10688:10690   */\n      0x60\n        /* \"#utility.yul\":10673:10691   */\n      add\n      swap1\n        /* \"#utility.yul\":10348:10697   */\n      jump\t// out\n        /* \"#utility.yul\":11047:11400   */\n    tag_267:\n        /* \"#utility.yul\":11249:11251   */\n      0x20\n        /* \"#utility.yul\":11231:11252   */\n      dup1\n      dup3\n      mstore\n        /* \"#utility.yul\":11288:11290   */\n      0x1d\n        /* \"#utility.yul\":11268:11286   */\n      swap1\n      dup3\n      add\n        /* \"#utility.yul\":11261:11291   */\n      mstore\n        /* \"#utility.yul\":11327:11358   */\n      0x4572726f723a20596f752061726520616c7265616479206c6f67676564000000\n        /* \"#utility.yul\":11322:11324   */\n      0x40\n        /* \"#utility.yul\":11307:11325   */\n      dup3\n      add\n        /* \"#utility.yul\":11300:11359   */\n      mstore\n        /* \"#utility.yul\":11391:11393   */\n      0x60\n        /* \"#utility.yul\":11376:11394   */\n      add\n      swap1\n        /* \"#utility.yul\":11047:11400   */\n      jump\t// out\n        /* \"#utility.yul\":11989:12264   */\n    tag_450:\n        /* \"#utility.yul\":12060:12062   */\n      0x40\n        /* \"#utility.yul\":12054:12063   */\n      mload\n        /* \"#utility.yul\":12125:12127   */\n      0x1f\n        /* \"#utility.yul\":12106:12119   */\n      dup3\n      add\n      not(0x1f)\n        /* \"#utility.yul\":12102:12129   */\n      and\n        /* \"#utility.yul\":12090:12130   */\n      dup2\n      add\n      sub(shl(0x40, 0x01), 0x01)\n        /* \"#utility.yul\":12145:12179   */\n      dup2\n      gt\n        /* \"#utility.yul\":12181:12203   */\n      dup3\n      dup3\n      lt\n        /* \"#utility.yul\":12142:12204   */\n      or\n        /* \"#utility.yul\":12139:12227   */\n      iszero\n      tag_540\n      jumpi\n        /* \"#utility.yul\":12207:12225   */\n      tag_540\n      tag_448\n      jump\t// in\n    tag_540:\n        /* \"#utility.yul\":12243:12245   */\n      0x40\n        /* \"#utility.yul\":12236:12258   */\n      mstore\n        /* \"#utility.yul\":11989:12264   */\n      swap2\n      swap1\n      pop\n      jump\t// out\n        /* \"#utility.yul\":12395:12523   */\n    tag_173:\n        /* \"#utility.yul\":12435:12438   */\n      0x00\n        /* \"#utility.yul\":12466:12467   */\n      dup3\n        /* \"#utility.yul\":12462:12468   */\n      not\n        /* \"#utility.yul\":12459:12460   */\n      dup3\n        /* \"#utility.yul\":12456:12469   */\n      gt\n        /* \"#utility.yul\":12453:12492   */\n      iszero\n      tag_544\n      jumpi\n        /* \"#utility.yul\":12472:12490   */\n      tag_544\n      tag_545\n      jump\t// in\n    tag_544:\n      pop\n        /* \"#utility.yul\":12508:12517   */\n      add\n      swap1\n        /* \"#utility.yul\":12395:12523   */\n      jump\t// out\n        /* \"#utility.yul\":12528:12745   */\n    tag_322:\n        /* \"#utility.yul\":12568:12569   */\n      0x00\n        /* \"#utility.yul\":12594:12595   */\n      dup3\n        /* \"#utility.yul\":12584:12716   */\n      tag_547\n      jumpi\n        /* \"#utility.yul\":12638:12648   */\n      0x4e487b71\n        /* \"#utility.yul\":12633:12636   */\n      0xe0\n        /* \"#utility.yul\":12629:12649   */\n      shl\n        /* \"#utility.yul\":12626:12627   */\n      0x00\n        /* \"#utility.yul\":12619:12650   */\n      mstore\n        /* \"#utility.yul\":12673:12677   */\n      0x12\n        /* \"#utility.yul\":12670:12671   */\n      0x04\n        /* \"#utility.yul\":12663:12678   */\n      mstore\n        /* \"#utility.yul\":12701:12705   */\n      0x24\n        /* \"#utility.yul\":12698:12699   */\n      0x00\n        /* \"#utility.yul\":12691:12706   */\n      revert\n        /* \"#utility.yul\":12584:12716   */\n    tag_547:\n      pop\n        /* \"#utility.yul\":12730:12739   */\n      div\n      swap1\n        /* \"#utility.yul\":12528:12745   */\n      jump\t// out\n        /* \"#utility.yul\":12750:12875   */\n    tag_164:\n        /* \"#utility.yul\":12790:12794   */\n      0x00\n        /* \"#utility.yul\":12818:12819   */\n      dup3\n        /* \"#utility.yul\":12815:12816   */\n      dup3\n        /* \"#utility.yul\":12812:12820   */\n      lt\n        /* \"#utility.yul\":12809:12843   */\n      iszero\n      tag_550\n      jumpi\n        /* \"#utility.yul\":12823:12841   */\n      tag_550\n      tag_545\n      jump\t// in\n    tag_550:\n      pop\n        /* \"#utility.yul\":12860:12869   */\n      sub\n      swap1\n        /* \"#utility.yul\":12750:12875   */\n      jump\t// out\n        /* \"#utility.yul\":12880:13138   */\n    tag_503:\n        /* \"#utility.yul\":12952:12953   */\n      0x00\n        /* \"#utility.yul\":12962:13075   */\n    tag_552:\n        /* \"#utility.yul\":12976:12982   */\n      dup4\n        /* \"#utility.yul\":12973:12974   */\n      dup2\n        /* \"#utility.yul\":12970:12983   */\n      lt\n        /* \"#utility.yul\":12962:13075   */\n      iszero\n      tag_554\n      jumpi\n        /* \"#utility.yul\":13052:13063   */\n      dup2\n      dup2\n      add\n        /* \"#utility.yul\":13046:13064   */\n      mload\n        /* \"#utility.yul\":13033:13044   */\n      dup4\n      dup3\n      add\n        /* \"#utility.yul\":13026:13065   */\n      mstore\n        /* \"#utility.yul\":12998:13000   */\n      0x20\n        /* \"#utility.yul\":12991:13001   */\n      add\n        /* \"#utility.yul\":12962:13075   */\n      jump(tag_552)\n    tag_554:\n        /* \"#utility.yul\":13093:13099   */\n      dup4\n        /* \"#utility.yul\":13090:13091   */\n      dup2\n        /* \"#utility.yul\":13087:13100   */\n      gt\n        /* \"#utility.yul\":13084:13132   */\n      iszero\n      tag_348\n      jumpi\n      pop\n      pop\n        /* \"#utility.yul\":13128:13129   */\n      0x00\n        /* \"#utility.yul\":13110:13126   */\n      swap2\n      add\n        /* \"#utility.yul\":13103:13130   */\n      mstore\n        /* \"#utility.yul\":12880:13138   */\n      jump\t// out\n        /* \"#utility.yul\":13143:13523   */\n    tag_202:\n        /* \"#utility.yul\":13222:13223   */\n      0x01\n        /* \"#utility.yul\":13218:13230   */\n      dup2\n      dup2\n      shr\n      swap1\n        /* \"#utility.yul\":13265:13277   */\n      dup3\n      and\n      dup1\n        /* \"#utility.yul\":13286:13347   */\n      tag_557\n      jumpi\n        /* \"#utility.yul\":13340:13344   */\n      0x7f\n        /* \"#utility.yul\":13332:13338   */\n      dup3\n        /* \"#utility.yul\":13328:13345   */\n      and\n        /* \"#utility.yul\":13318:13345   */\n      swap2\n      pop\n        /* \"#utility.yul\":13286:13347   */\n    tag_557:\n        /* \"#utility.yul\":13393:13395   */\n      0x20\n        /* \"#utility.yul\":13385:13391   */\n      dup3\n        /* \"#utility.yul\":13382:13396   */\n      lt\n        /* \"#utility.yul\":13362:13380   */\n      dup2\n        /* \"#utility.yul\":13359:13397   */\n      eq\n        /* \"#utility.yul\":13356:13517   */\n      iszero\n      tag_558\n      jumpi\n        /* \"#utility.yul\":13439:13449   */\n      0x4e487b71\n        /* \"#utility.yul\":13434:13437   */\n      0xe0\n        /* \"#utility.yul\":13430:13450   */\n      shl\n        /* \"#utility.yul\":13427:13428   */\n      0x00\n        /* \"#utility.yul\":13420:13451   */\n      mstore\n        /* \"#utility.yul\":13474:13478   */\n      0x22\n        /* \"#utility.yul\":13471:13472   */\n      0x04\n        /* \"#utility.yul\":13464:13479   */\n      mstore\n        /* \"#utility.yul\":13502:13506   */\n      0x24\n        /* \"#utility.yul\":13499:13500   */\n      0x00\n        /* \"#utility.yul\":13492:13507   */\n      revert\n        /* \"#utility.yul\":13356:13517   */\n    tag_558:\n      pop\n        /* \"#utility.yul\":13143:13523   */\n      swap2\n      swap1\n      pop\n      jump\t// out\n        /* \"#utility.yul\":13528:13663   */\n    tag_216:\n        /* \"#utility.yul\":13567:13570   */\n      0x00\n      not(0x00)\n        /* \"#utility.yul\":13588:13605   */\n      dup3\n      eq\n        /* \"#utility.yul\":13585:13628   */\n      iszero\n      tag_561\n      jumpi\n        /* \"#utility.yul\":13608:13626   */\n      tag_561\n      tag_545\n      jump\t// in\n    tag_561:\n      pop\n        /* \"#utility.yul\":13655:13656   */\n      0x01\n        /* \"#utility.yul\":13644:13657   */\n      add\n      swap1\n        /* \"#utility.yul\":13528:13663   */\n      jump\t// out\n        /* \"#utility.yul\":13668:13795   */\n    tag_545:\n        /* \"#utility.yul\":13729:13739   */\n      0x4e487b71\n        /* \"#utility.yul\":13724:13727   */\n      0xe0\n        /* \"#utility.yul\":13720:13740   */\n      shl\n        /* \"#utility.yul\":13717:13718   */\n      0x00\n        /* \"#utility.yul\":13710:13741   */\n      mstore\n        /* \"#utility.yul\":13760:13764   */\n      0x11\n        /* \"#utility.yul\":13757:13758   */\n      0x04\n        /* \"#utility.yul\":13750:13765   */\n      mstore\n        /* \"#utility.yul\":13784:13788   */\n      0x24\n        /* \"#utility.yul\":13781:13782   */\n      0x00\n        /* \"#utility.yul\":13774:13789   */\n      revert\n        /* \"#utility.yul\":13800:13927   */\n    tag_153:\n        /* \"#utility.yul\":13861:13871   */\n      0x4e487b71\n        /* \"#utility.yul\":13856:13859   */\n      0xe0\n        /* \"#utility.yul\":13852:13872   */\n      shl\n        /* \"#utility.yul\":13849:13850   */\n      0x00\n        /* \"#utility.yul\":13842:13873   */\n      mstore\n        /* \"#utility.yul\":13892:13896   */\n      0x32\n        /* \"#utility.yul\":13889:13890   */\n      0x04\n        /* \"#utility.yul\":13882:13897   */\n      mstore\n        /* \"#utility.yul\":13916:13920   */\n      0x24\n        /* \"#utility.yul\":13913:13914   */\n      0x00\n        /* \"#utility.yul\":13906:13921   */\n      revert\n        /* \"#utility.yul\":13932:14059   */\n    tag_448:\n        /* \"#utility.yul\":13993:14003   */\n      0x4e487b71\n        /* \"#utility.yul\":13988:13991   */\n      0xe0\n        /* \"#utility.yul\":13984:14004   */\n      shl\n        /* \"#utility.yul\":13981:13982   */\n      0x00\n        /* \"#utility.yul\":13974:14005   */\n      mstore\n        /* \"#utility.yul\":14024:14028   */\n      0x41\n        /* \"#utility.yul\":14021:14022   */\n      0x04\n        /* \"#utility.yul\":14014:14029   */\n      mstore\n        /* \"#utility.yul\":14048:14052   */\n      0x24\n        /* \"#utility.yul\":14045:14046   */\n      0x00\n        /* \"#utility.yul\":14038:14053   */\n      revert\n\n    auxdata: 0xa2646970667358221220223b00608eb1595ff23ada9d5f66639b341a1618d4c0d69dc2e71e6dad3b9ad064736f6c63430008070033\n}\n",
				"bytecode": {
					"linkReferences": {},
					"object": "60806040526000600d553480156200001657600080fd5b50604051806101000160405280604051806040016040528060048152602001632132b2b960e11b81525081526020016200006f604051806040016040528060018152602001603160f81b815250620005b860201b60201c565b81526103e860208083019190915260036040808401919091526000606084018190528151808301835260018152603160f81b818501526080850152815180830190925260068252654d6f73636f7760d01b8284015260a084019190915260c09092018290527322140e5eee5a0341a107bd6a65ee0f5bb72deb9082529081528151805160008051602062002be78339815191529262000113928492910190620005ea565b5060208281015160018301556040830151600283015560608301516003830155608083015160048301805460ff191691151591909117905560a08301518051620001649260058501920190620005ea565b5060c0820151805162000182916006840191602090910190620005ea565b5060e091909101516007909101556000602081905260028054600181018255915260008051602062002be7833981519152805460008051602062002bc783398151915290920191620001d49062000752565b620001e192919062000679565b5060405180610100016040528060405180604001604052806007815260200166436c6f7468657360c81b81525081526020016200023d604051806040016040528060018152602001603160f81b815250620005b860201b60201c565b81526103e860208083019190915260036040808401919091526000606084018190528151808301835260018152601960f91b8185015260808501528151808301909252600a8252695065746572736275726760b01b8284015260a084019190915260c09092018290527332bbfd99dfcf2a15c1d278a19856683930a8be0b82529081528151805160008051602062002c0783398151915292620002e5928492910190620005ea565b5060208281015160018301556040830151600283015560608301516003830155608083015160048301805460ff191691151591909117905560a08301518051620003369260058501920190620005ea565b5060c0820151805162000354916006840191602090910190620005ea565b5060e091909101516007909101556000602081905260028054600181018255915260008051602062002c07833981519152805460008051602062002bc783398151915290920191620003a69062000752565b620003b392919062000679565b5073c152ad455b16d865f2344140dec6ea95cb361e8a6005604051620003e390635065746160e01b815260040190565b908152604080516020928190038301812080546001600160a01b0319166001600160a01b03959095169490941790935560e083018152600460a08401908152635065746160e01b60c08501528352805180820190915260018152601960f91b81830152908201906200045590620005b8565b81526103e8602080830191909152600060408301819052606090920182905273c152ad455b16d865f2344140dec6ea95cb361e8a90915260048152815180517f46be32a2e9b8e0f4c8f06b744988be62b4f05119193ea23be26a02d9470d0ccd92620004c6928492910190620005ea565b506020828101516001838101919091556040808501516002850155606085015160038501556080909401516004938401805460ff19169115159190911790556006805491820181556000528351808501909452828452635065746160e01b939091019283526200055b927ff652222313e28459528d920b65115c16c04f3efc82aaedc97be59f3f377c0d3f90910191620005ea565b50600780546001810182556000919091527fa66cc928b5edb82af9bd49922954155ab7b0942694bea4ce44661d9a8736c6880180546001600160a01b03191673c152ad455b16d865f2344140dec6ea95cb361e8a1790556200078f565b600081604051602001620005cd919062000714565b604051602081830303815290604052805190602001209050919050565b828054620005f89062000752565b90600052602060002090601f0160209004810192826200061c576000855562000667565b82601f106200063757805160ff191683800117855562000667565b8280016001018555821562000667579182015b82811115620006675782518255916020019190600101906200064a565b5062000675929150620006fd565b5090565b828054620006879062000752565b90600052602060002090601f016020900481019282620006ab576000855562000667565b82601f10620006be578054855562000667565b828001600101855582156200066757600052602060002091601f016020900482015b8281111562000667578254825591600101919060010190620006e0565b5b80821115620006755760008155600101620006fe565b6000825160005b818110156200073757602081860181015185830152016200071b565b8181111562000747576000828501525b509190910192915050565b600181811c908216806200076757607f821691505b602082108114156200078957634e487b7160e01b600052602260045260246000fd5b50919050565b612428806200079f6000396000f3fe608060405234801561001057600080fd5b50600436106101545760003560e01c8063033ff0b8146101595780630c72b1ec1461017f5780630e1c81b214610194578063146dc6ed146101a75780631bbe970a146101ba57806329e795f3146102065780632ccdef7c146102195780632d4673e31461022c57806334d2c0ad1461023f5780633b84aedc146102545780635bbc9a3f146102775780635bdb63fa1461028a5780636ba44d3c1461029d5780636c05dd1d146102b0578063775eb9e6146102c35780637ddb273d146102d6578063845952a8146102f8578063961865f01461030b578063a985036d1461032f578063a9f9482b14610342578063bbd4336314610355578063c178b9af14610368578063c4957fa014610370578063cc21c188146103a4578063d22d9020146103b7578063d68cf8c1146103ca578063dce39151146103ed578063f69483c114610400575b600080fd5b61016c610167366004611db0565b610413565b6040519081526020015b60405180910390f35b61019261018d366004611ff1565b61045a565b005b6101926101a2366004611d5a565b610645565b6101926101b5366004611db0565b6107d8565b6101ee6101c8366004611db0565b80516020818301810180516005825292820191909301209152546001600160a01b031681565b6040516001600160a01b039091168152602001610176565b610192610214366004611de4565b61092f565b610192610227366004611ff1565b610a93565b61019261023a366004611db0565b610bcb565b610247610c77565b6040516101769190612177565b610267610262366004611db0565b610d50565b6040519015158152602001610176565b610267610285366004611db0565b610d9a565b61016c610298366004611db0565b610db0565b6101ee6102ab366004611db0565b610dc6565b6101926102be366004611f6c565b610df7565b6101926102d1366004611ecd565b610eee565b6102e96102e4366004611fd8565b61104f565b6040516101769392919061210a565b61016c610306366004611db0565b61111a565b61031e610319366004611d38565b61114a565b6040516101769594939291906121d9565b61016c61033d366004611db0565b611204565b6102e9610350366004611fd8565b61140c565b610192610363366004611db0565b61141c565b6102476114c8565b6101ee61037e366004611db0565b80516020818301810180516001825292820191909301209152546001600160a01b031681565b6101926103b2366004611f11565b611598565b6101926103c5366004611ecd565b61186c565b6103dd6103d8366004611db0565b611992565b6040516101769493929190612140565b6102e96103fb366004611fd8565b611a58565b61019261040e366004611ff1565b611a68565b60008060006001846040516104289190612052565b9081526040805160209281900383019020546001600160a01b0316835290820192909252016000206003015492915050565b6001811515141561060a576000600a838154811061047a5761047a6123c6565b906000526020600020906003020160020160006101000a81548160ff0219169083151502179055506008600a83815481106104b7576104b76123c6565b90600052602060002090600302016001016040516104d5919061206e565b90815260200160405180910390206002015460046000600a85815481106104fe576104fe6123c6565b600091825260208083206003909202909101546001600160a01b031683528201929092526040019020600201546105359190612317565b60046000600a858154811061054c5761054c6123c6565b600091825260208083206003909202909101546001600160a01b03168352820192909252604001902060020155600a80546008919084908110610591576105916123c6565b90600052602060002090600302016001016040516105af919061206e565b908152602001604051809103902060020154600080336001600160a01b03166001600160a01b03168152602001908152602001600020600201546105f391906122dd565b336000908152602081905260409020600201555050565b6000600a838154811061061f5761061f6123c6565b60009182526020909120600390910201600201805460ff19169115159190911790555050565b60006001600160a01b03166005836040516106609190612052565b908152604051908190036020019020546001600160a01b0316146106c75760405162461bcd60e51b8152602060048201526019602482015278115c9c9bdc8e88155cd95c88185b1c9958591e48195e1a5cdd603a1b60448201526064015b60405180910390fd5b6040805160a08101825283815260208082018490526103e882840152600060608301819052608083018190526001600160a01b03871681526004825292909220815180519293919261071c9284920190611b61565b50602082015160018201556040808301516002830155606083015160038301556080909201516004909101805460ff1916911515919091179055518390600590610767908590612052565b90815260405190819003602001902080546001600160a01b039283166001600160a01b031991821617909155600780546001810182556000919091527fa66cc928b5edb82af9bd49922954155ab7b0942694bea4ce44661d9a8736c688018054959092169416939093179092555050565b6008816040516107e89190612052565b90815260200160405180910390206002015460046000336001600160a01b03166001600160a01b031681526020019081526020016000206002015410156108645760405162461bcd60e51b815260206004820152601060248201526f6572726f723a206e6f74206d6f6e657960801b60448201526064016106be565b6040805160608101825233815260208082018481526001938301849052600a8054948501815560005282517fc65a7bb8d6351c1cf70c95a316cc6a92839c986682d98bc35f958f4883f9d2a8600390950294850180546001600160a01b0319166001600160a01b039092169190911781559051805193949193610910937fc65a7bb8d6351c1cf70c95a316cc6a92839c986682d98bc35f958f4883f9d2a9909301929190910190611b61565b50604091909101516002909101805460ff191691151591909117905550565b60005b600354811015610a8e57600060038281548110610951576109516123c6565b9060005260206000209060050201600101805461096d9061235a565b80601f01602080910402602001604051908101604052809291908181526020018280546109999061235a565b80156109e65780601f106109bb576101008083540402835291602001916109e6565b820191906000526020600020905b8154815290600101906020018083116109c957829003601f168201915b50505050509050836040516020016109fe9190612052565b6040516020818303038152906040528051906020012081604051602001610a259190612052565b604051602081830303815290604052805190602001201415610a7b578260038381548110610a5557610a556123c6565b90600052602060002090600502016004019080519060200190610a79929190611be5565b505b5080610a8681612395565b915050610932565b505050565b60018115151415610bb6576000600b8381548110610ab357610ab36123c6565b906000526020600020906003020160020160006101000a81548160ff0219169083151502179055506008600b8381548110610af057610af06123c6565b9060005260206000209060030201600101604051610b0e919061206e565b90815260200160405180910390206002015460046000600b8581548110610b3757610b376123c6565b600091825260208083206003909202909101546001600160a01b03168352820192909252604001902060020154610b6e91906122dd565b60046000600b8581548110610b8557610b856123c6565b600091825260208083206003909202909101546001600160a01b031683528201929092526040019020600201555050565b6000600b838154811061061f5761061f6123c6565b6040805160608101825233815260208082018481526001938301849052600c8054948501815560005282517fdf6966c971051c3d54ec59162606531493a51404a002842f56009d7e5cf4a8c7600390950294850180546001600160a01b0319166001600160a01b039092169190911781559051805193949193610910937fdf6966c971051c3d54ec59162606531493a51404a002842f56009d7e5cf4a8c8909301929190910190611b61565b60606009805480602002602001604051908101604052809291908181526020016000905b82821015610d47578382906000526020600020018054610cba9061235a565b80601f0160208091040260200160405190810160405280929190818152602001828054610ce69061235a565b8015610d335780601f10610d0857610100808354040283529160200191610d33565b820191906000526020600020905b815481529060010190602001808311610d1657829003601f168201915b505050505081526020019060010190610c9b565b50505050905090565b6000806000600184604051610d659190612052565b9081526040805160209281900383019020546001600160a01b0316835290820192909252016000206004015460ff1692915050565b600060046000600584604051610d659190612052565b6000600460006005846040516104289190612052565b6000600582604051610dd89190612052565b908152604051908190036020019020546001600160a01b031692915050565b6040518060800160405280336001600160a01b03168152602001828152602001838152602001600d54815250600884604051610e339190612052565b90815260405160209181900382019020825181546001600160a01b0319166001600160a01b039091161781558282015180519192610e7992600185019290910190611b61565b5060408201516002820155606090910151600390910155600980546001810182556000919091528351610ed3917f6e1540171b6c0c960b71a7020d9f60077f6af931a8bbf590da0223dacf75c7af01906020860190611b61565b50600d8054906000610ee483612395565b9190505550505050565b600080600184604051610f019190612052565b9081526040805160209281900383019020546001600160a01b0316835290820192909252016000206004015460ff1615610f4d5760405162461bcd60e51b81526004016106be90612276565b60006001600160a01b0316600183604051610f689190612052565b908152604051908190036020019020546001600160a01b03161415610f9f5760405162461bcd60e51b81526004016106be90612243565b80600080600185604051610fb39190612052565b9081526040805160209281900383019020546001600160a01b0316835290820192909252016000206001015414610ffc5760405162461bcd60e51b81526004016106be90612212565b60016000806001856040516110119190612052565b9081526040805160209281900383019020546001600160a01b031683529082019290925201600020600401805460ff19169115159190911790555050565b600c818154811061105f57600080fd5b6000918252602090912060039091020180546001820180546001600160a01b0390921693509061108e9061235a565b80601f01602080910402602001604051908101604052809291908181526020018280546110ba9061235a565b80156111075780601f106110dc57610100808354040283529160200191611107565b820191906000526020600020905b8154815290600101906020018083116110ea57829003601f168201915b5050506002909301549192505060ff1683565b60008160405160200161112d9190612052565b604051602081830303815290604052805190602001209050919050565b6004602052600090815260409020805481906111659061235a565b80601f01602080910402602001604051908101604052809291908181526020018280546111919061235a565b80156111de5780601f106111b3576101008083540402835291602001916111de565b820191906000526020600020905b8154815290600101906020018083116111c157829003601f168201915b505050506001830154600284015460038501546004909501549394919390925060ff1685565b60008080805b6002548110156113ef57600060028281548110611229576112296123c6565b90600052602060002001805461123e9061235a565b80601f016020809104026020016040519081016040528092919081815260200182805461126a9061235a565b80156112b75780601f1061128c576101008083540402835291602001916112b7565b820191906000526020600020905b81548152906001019060200180831161129a57829003601f168201915b50505050509050856040516020016112cf9190612052565b60405160208183030381529060405280519060200120816040516020016112f69190612052565b6040516020818303038152906040528051906020012014156113dc57600091505b60035482116113dc5760038281548110611333576113336123c6565b9060005260206000209060050201600001604051602001611354919061206e565b604051602081830303815290604052805190602001208660405160200161137b9190612052565b6040516020818303038152906040528051906020012014156113ca57600382815481106113aa576113aa6123c6565b906000526020600020906005020160030154836113c791906122dd565b92505b816113d481612395565b925050611317565b50806113e781612395565b91505061120a565b506113fa82826122f5565b61140490826122dd565b949350505050565b600b818154811061105f57600080fd5b6040805160608101825233815260208082018481526001938301849052600b8054948501815560005282517f0175b7a638427703f0dbe7bb9bbf987a2551717b34e79f33b5b1008d1fa01db9600390950294850180546001600160a01b0319166001600160a01b039092169190911781559051805193949193610910937f0175b7a638427703f0dbe7bb9bbf987a2551717b34e79f33b5b1008d1fa01dba909301929190910190611b61565b60606002805480602002602001604051908101604052809291908181526020016000905b82821015610d4757838290600052602060002001805461150b9061235a565b80601f01602080910402602001604051908101604052809291908181526020018280546115379061235a565b80156115845780601f1061155957610100808354040283529160200191611584565b820191906000526020600020905b81548152906001019060200180831161156757829003601f168201915b5050505050815260200190600101906114ec565b600a8111156115f35760405162461bcd60e51b815260206004820152602160248201527f6572726f723a20726174696e672063616e2062652066726f6d203120746f20316044820152600360fc1b60648201526084016106be565b60005b600254811161186657600060028281548110611614576116146123c6565b9060005260206000200180546116299061235a565b80601f01602080910402602001604051908101604052809291908181526020018280546116559061235a565b80156116a25780601f10611677576101008083540402835291602001916116a2565b820191906000526020600020905b81548152906001019060200180831161168557829003601f168201915b50505050509050846040516020016116ba9190612052565b60405160208183030381529060405280519060200120816040516020016116e19190612052565b604051602081830303815290604052805190602001201415611853576040805160a08101825286815233600090815260046020908152929020805460609360039392908301916117309061235a565b80601f016020809104026020016040519081016040528092919081815260200182805461175c9061235a565b80156117a95780601f1061177e576101008083540402835291602001916117a9565b820191906000526020600020905b81548152906001019060200180831161178c57829003601f168201915b505050918352505060208082018990526040820188905260609091018490528254600181018455600093845292819020825180519394600502909101926117f39284920190611b61565b50602082810151805161180c9260018501920190611b61565b5060408201518051611828916002840191602090910190611b61565b50606082015160038201556080820151805161184e916004840191602090910190611be5565b505050505b508061185e81612395565b9150506115f6565b50505050565b600460006005846040516118809190612052565b9081526040805160209281900383019020546001600160a01b0316835290820192909252016000206004015460ff16156118cc5760405162461bcd60e51b81526004016106be90612276565b60006001600160a01b03166005836040516118e79190612052565b908152604051908190036020019020546001600160a01b0316141561191e5760405162461bcd60e51b81526004016106be90612243565b80600460006005856040516119339190612052565b9081526040805160209281900383019020546001600160a01b031683529082019290925201600020600101541461197c5760405162461bcd60e51b81526004016106be90612212565b6001600460006005856040516110119190612052565b8051602081830181018051600882529282019190930120915280546001820180546001600160a01b0390921692916119c99061235a565b80601f01602080910402602001604051908101604052809291908181526020018280546119f59061235a565b8015611a425780601f10611a1757610100808354040283529160200191611a42565b820191906000526020600020905b815481529060010190602001808311611a2557829003601f168201915b5050505050908060020154908060030154905084565b600a818154811061105f57600080fd5b60018115151415610bb6576008600c8381548110611a8857611a886123c6565b9060005260206000209060030201600101604051611aa6919061206e565b90815260200160405180910390206002015460046000600c8581548110611acf57611acf6123c6565b600091825260208083206003909202909101546001600160a01b03168352820192909252604001902060020154611b0691906122dd565b60046000600c8581548110611b1d57611b1d6123c6565b600091825260208083206003909202909101546001600160a01b03168352820192909252604001812060020191909155600b80548490811061061f5761061f6123c6565b828054611b6d9061235a565b90600052602060002090601f016020900481019282611b8f5760008555611bd5565b82601f10611ba857805160ff1916838001178555611bd5565b82800160010185558215611bd5579182015b82811115611bd5578251825591602001919060010190611bba565b50611be1929150611c3e565b5090565b828054828255906000526020600020908101928215611c32579160200282015b82811115611c325782518051611c22918491602090910190611b61565b5091602001919060010190611c05565b50611be1929150611c53565b5b80821115611be15760008155600101611c3f565b80821115611be1576000611c678282611c70565b50600101611c53565b508054611c7c9061235a565b6000825580601f10611c8c575050565b601f016020900490600052602060002090810190611caa9190611c3e565b50565b80356001600160a01b0381168114611cc457600080fd5b919050565b600082601f830112611cda57600080fd5b81356001600160401b03811115611cf357611cf36123dc565b611d06601f8201601f19166020016122ad565b818152846020838601011115611d1b57600080fd5b816020850160208301376000918101602001919091529392505050565b600060208284031215611d4a57600080fd5b611d5382611cad565b9392505050565b600080600060608486031215611d6f57600080fd5b611d7884611cad565b925060208401356001600160401b03811115611d9357600080fd5b611d9f86828701611cc9565b925050604084013590509250925092565b600060208284031215611dc257600080fd5b81356001600160401b03811115611dd857600080fd5b61140484828501611cc9565b60008060408385031215611df757600080fd5b82356001600160401b0380821115611e0e57600080fd5b611e1a86838701611cc9565b9350602091508185013581811115611e3157600080fd5b8501601f81018713611e4257600080fd5b803582811115611e5457611e546123dc565b8060051b611e638582016122ad565b8281528581019084870183860188018c1015611e7e57600080fd5b60009350835b85811015611ebb57813588811115611e9a578586fd5b611ea88e8b838b0101611cc9565b8552509288019290880190600101611e84565b50989b909a5098505050505050505050565b60008060408385031215611ee057600080fd5b82356001600160401b03811115611ef657600080fd5b611f0285828601611cc9565b95602094909401359450505050565b600080600060608486031215611f2657600080fd5b83356001600160401b0380821115611f3d57600080fd5b611f4987838801611cc9565b94506020860135915080821115611f5f57600080fd5b50611d9f86828701611cc9565b600080600060608486031215611f8157600080fd5b83356001600160401b0380821115611f9857600080fd5b611fa487838801611cc9565b9450602086013593506040860135915080821115611fc157600080fd5b50611fce86828701611cc9565b9150509250925092565b600060208284031215611fea57600080fd5b5035919050565b6000806040838503121561200457600080fd5b823591506020830135801515811461201b57600080fd5b809150509250929050565b6000815180845261203e81602086016020860161232e565b601f01601f19169290920160200192915050565b6000825161206481846020870161232e565b9190910192915050565b600080835481600182811c91508083168061208a57607f831692505b60208084108214156120aa57634e487b7160e01b86526022600452602486fd5b8180156120be57600181146120cf576120fc565b60ff198616895284890196506120fc565b60008a81526020902060005b868110156120f45781548b8201529085019083016120db565b505084890196505b509498975050505050505050565b6001600160a01b038416815260606020820181905260009061212e90830185612026565b90508215156040830152949350505050565b6001600160a01b038516815260806020820181905260009061216490830186612026565b6040830194909452506060015292915050565b6000602080830181845280855180835260408601915060408160051b870101925083870160005b828110156121cc57603f198886030184526121ba858351612026565b9450928501929085019060010161219e565b5092979650505050505050565b60a0815260006121ec60a0830188612026565b905085602083015284604083015283606083015282151560808301529695505050505050565b602080825260179082015276115c9c9bdc8e88125b9d985b1a59081c185cdcdddbdc99604a1b604082015260600190565b602080825260199082015278115c9c9bdc8e88155cd95c88191bd95cdb89dd08195e1a5cdd603a1b604082015260600190565b6020808252601d908201527f4572726f723a20596f752061726520616c7265616479206c6f67676564000000604082015260600190565b604051601f8201601f191681016001600160401b03811182821017156122d5576122d56123dc565b604052919050565b600082198211156122f0576122f06123b0565b500190565b60008261231257634e487b7160e01b600052601260045260246000fd5b500490565b600082821015612329576123296123b0565b500390565b60005b83811015612349578181015183820152602001612331565b838111156118665750506000910152565b600181811c9082168061236e57607f821691505b6020821081141561238f57634e487b7160e01b600052602260045260246000fd5b50919050565b60006000198214156123a9576123a96123b0565b5060010190565b634e487b7160e01b600052601160045260246000fd5b634e487b7160e01b600052603260045260246000fd5b634e487b7160e01b600052604160045260246000fdfea2646970667358221220223b00608eb1595ff23ada9d5f66639b341a1618d4c0d69dc2e71e6dad3b9ad064736f6c63430008070033405787fa12a823e0f2b7631cc41b3ba8828b3321ca811111fa75cd3aa3bb5acec49e92deb93ac19463e0f89b887a2ab81c6b5eadf7dc1bc8bd12ce4040f656fc5c83a96f0abbcc4e29b827af3528e41db71dd7823e05e1374cd098351a380d7f",
					"opcodes": "PUSH1 0x80 PUSH1 0x40 MSTORE PUSH1 0x0 PUSH1 0xD SSTORE CALLVALUE DUP1 ISZERO PUSH3 0x16 JUMPI PUSH1 0x0 DUP1 REVERT JUMPDEST POP PUSH1 0x40 MLOAD DUP1 PUSH2 0x100 ADD PUSH1 0x40 MSTORE DUP1 PUSH1 0x40 MLOAD DUP1 PUSH1 0x40 ADD PUSH1 0x40 MSTORE DUP1 PUSH1 0x4 DUP2 MSTORE PUSH1 0x20 ADD PUSH4 0x2132B2B9 PUSH1 0xE1 SHL DUP2 MSTORE POP DUP2 MSTORE PUSH1 0x20 ADD PUSH3 0x6F PUSH1 0x40 MLOAD DUP1 PUSH1 0x40 ADD PUSH1 0x40 MSTORE DUP1 PUSH1 0x1 DUP2 MSTORE PUSH1 0x20 ADD PUSH1 0x31 PUSH1 0xF8 SHL DUP2 MSTORE POP PUSH3 0x5B8 PUSH1 0x20 SHL PUSH1 0x20 SHR JUMP JUMPDEST DUP2 MSTORE PUSH2 0x3E8 PUSH1 0x20 DUP1 DUP4 ADD SWAP2 SWAP1 SWAP2 MSTORE PUSH1 0x3 PUSH1 0x40 DUP1 DUP5 ADD SWAP2 SWAP1 SWAP2 MSTORE PUSH1 0x0 PUSH1 0x60 DUP5 ADD DUP2 SWAP1 MSTORE DUP2 MLOAD DUP1 DUP4 ADD DUP4 MSTORE PUSH1 0x1 DUP2 MSTORE PUSH1 0x31 PUSH1 0xF8 SHL DUP2 DUP6 ADD MSTORE PUSH1 0x80 DUP6 ADD MSTORE DUP2 MLOAD DUP1 DUP4 ADD SWAP1 SWAP3 MSTORE PUSH1 0x6 DUP3 MSTORE PUSH6 0x4D6F73636F77 PUSH1 0xD0 SHL DUP3 DUP5 ADD MSTORE PUSH1 0xA0 DUP5 ADD SWAP2 SWAP1 SWAP2 MSTORE PUSH1 0xC0 SWAP1 SWAP3 ADD DUP3 SWAP1 MSTORE PUSH20 0x22140E5EEE5A0341A107BD6A65EE0F5BB72DEB90 DUP3 MSTORE SWAP1 DUP2 MSTORE DUP2 MLOAD DUP1 MLOAD PUSH1 0x0 DUP1 MLOAD PUSH1 0x20 PUSH3 0x2BE7 DUP4 CODECOPY DUP2 MLOAD SWAP2 MSTORE SWAP3 PUSH3 0x113 SWAP3 DUP5 SWAP3 SWAP2 ADD SWAP1 PUSH3 0x5EA JUMP JUMPDEST POP PUSH1 0x20 DUP3 DUP2 ADD MLOAD PUSH1 0x1 DUP4 ADD SSTORE PUSH1 0x40 DUP4 ADD MLOAD PUSH1 0x2 DUP4 ADD SSTORE PUSH1 0x60 DUP4 ADD MLOAD PUSH1 0x3 DUP4 ADD SSTORE PUSH1 0x80 DUP4 ADD MLOAD PUSH1 0x4 DUP4 ADD DUP1 SLOAD PUSH1 0xFF NOT AND SWAP2 ISZERO ISZERO SWAP2 SWAP1 SWAP2 OR SWAP1 SSTORE PUSH1 0xA0 DUP4 ADD MLOAD DUP1 MLOAD PUSH3 0x164 SWAP3 PUSH1 0x5 DUP6 ADD SWAP3 ADD SWAP1 PUSH3 0x5EA JUMP JUMPDEST POP PUSH1 0xC0 DUP3 ADD MLOAD DUP1 MLOAD PUSH3 0x182 SWAP2 PUSH1 0x6 DUP5 ADD SWAP2 PUSH1 0x20 SWAP1 SWAP2 ADD SWAP1 PUSH3 0x5EA JUMP JUMPDEST POP PUSH1 0xE0 SWAP2 SWAP1 SWAP2 ADD MLOAD PUSH1 0x7 SWAP1 SWAP2 ADD SSTORE PUSH1 0x0 PUSH1 0x20 DUP2 SWAP1 MSTORE PUSH1 0x2 DUP1 SLOAD PUSH1 0x1 DUP2 ADD DUP3 SSTORE SWAP2 MSTORE PUSH1 0x0 DUP1 MLOAD PUSH1 0x20 PUSH3 0x2BE7 DUP4 CODECOPY DUP2 MLOAD SWAP2 MSTORE DUP1 SLOAD PUSH1 0x0 DUP1 MLOAD PUSH1 0x20 PUSH3 0x2BC7 DUP4 CODECOPY DUP2 MLOAD SWAP2 MSTORE SWAP1 SWAP3 ADD SWAP2 PUSH3 0x1D4 SWAP1 PUSH3 0x752 JUMP JUMPDEST PUSH3 0x1E1 SWAP3 SWAP2 SWAP1 PUSH3 0x679 JUMP JUMPDEST POP PUSH1 0x40 MLOAD DUP1 PUSH2 0x100 ADD PUSH1 0x40 MSTORE DUP1 PUSH1 0x40 MLOAD DUP1 PUSH1 0x40 ADD PUSH1 0x40 MSTORE DUP1 PUSH1 0x7 DUP2 MSTORE PUSH1 0x20 ADD PUSH7 0x436C6F74686573 PUSH1 0xC8 SHL DUP2 MSTORE POP DUP2 MSTORE PUSH1 0x20 ADD PUSH3 0x23D PUSH1 0x40 MLOAD DUP1 PUSH1 0x40 ADD PUSH1 0x40 MSTORE DUP1 PUSH1 0x1 DUP2 MSTORE PUSH1 0x20 ADD PUSH1 0x31 PUSH1 0xF8 SHL DUP2 MSTORE POP PUSH3 0x5B8 PUSH1 0x20 SHL PUSH1 0x20 SHR JUMP JUMPDEST DUP2 MSTORE PUSH2 0x3E8 PUSH1 0x20 DUP1 DUP4 ADD SWAP2 SWAP1 SWAP2 MSTORE PUSH1 0x3 PUSH1 0x40 DUP1 DUP5 ADD SWAP2 SWAP1 SWAP2 MSTORE PUSH1 0x0 PUSH1 0x60 DUP5 ADD DUP2 SWAP1 MSTORE DUP2 MLOAD DUP1 DUP4 ADD DUP4 MSTORE PUSH1 0x1 DUP2 MSTORE PUSH1 0x19 PUSH1 0xF9 SHL DUP2 DUP6 ADD MSTORE PUSH1 0x80 DUP6 ADD MSTORE DUP2 MLOAD DUP1 DUP4 ADD SWAP1 SWAP3 MSTORE PUSH1 0xA DUP3 MSTORE PUSH10 0x50657465727362757267 PUSH1 0xB0 SHL DUP3 DUP5 ADD MSTORE PUSH1 0xA0 DUP5 ADD SWAP2 SWAP1 SWAP2 MSTORE PUSH1 0xC0 SWAP1 SWAP3 ADD DUP3 SWAP1 MSTORE PUSH20 0x32BBFD99DFCF2A15C1D278A19856683930A8BE0B DUP3 MSTORE SWAP1 DUP2 MSTORE DUP2 MLOAD DUP1 MLOAD PUSH1 0x0 DUP1 MLOAD PUSH1 0x20 PUSH3 0x2C07 DUP4 CODECOPY DUP2 MLOAD SWAP2 MSTORE SWAP3 PUSH3 0x2E5 SWAP3 DUP5 SWAP3 SWAP2 ADD SWAP1 PUSH3 0x5EA JUMP JUMPDEST POP PUSH1 0x20 DUP3 DUP2 ADD MLOAD PUSH1 0x1 DUP4 ADD SSTORE PUSH1 0x40 DUP4 ADD MLOAD PUSH1 0x2 DUP4 ADD SSTORE PUSH1 0x60 DUP4 ADD MLOAD PUSH1 0x3 DUP4 ADD SSTORE PUSH1 0x80 DUP4 ADD MLOAD PUSH1 0x4 DUP4 ADD DUP1 SLOAD PUSH1 0xFF NOT AND SWAP2 ISZERO ISZERO SWAP2 SWAP1 SWAP2 OR SWAP1 SSTORE PUSH1 0xA0 DUP4 ADD MLOAD DUP1 MLOAD PUSH3 0x336 SWAP3 PUSH1 0x5 DUP6 ADD SWAP3 ADD SWAP1 PUSH3 0x5EA JUMP JUMPDEST POP PUSH1 0xC0 DUP3 ADD MLOAD DUP1 MLOAD PUSH3 0x354 SWAP2 PUSH1 0x6 DUP5 ADD SWAP2 PUSH1 0x20 SWAP1 SWAP2 ADD SWAP1 PUSH3 0x5EA JUMP JUMPDEST POP PUSH1 0xE0 SWAP2 SWAP1 SWAP2 ADD MLOAD PUSH1 0x7 SWAP1 SWAP2 ADD SSTORE PUSH1 0x0 PUSH1 0x20 DUP2 SWAP1 MSTORE PUSH1 0x2 DUP1 SLOAD PUSH1 0x1 DUP2 ADD DUP3 SSTORE SWAP2 MSTORE PUSH1 0x0 DUP1 MLOAD PUSH1 0x20 PUSH3 0x2C07 DUP4 CODECOPY DUP2 MLOAD SWAP2 MSTORE DUP1 SLOAD PUSH1 0x0 DUP1 MLOAD PUSH1 0x20 PUSH3 0x2BC7 DUP4 CODECOPY DUP2 MLOAD SWAP2 MSTORE SWAP1 SWAP3 ADD SWAP2 PUSH3 0x3A6 SWAP1 PUSH3 0x752 JUMP JUMPDEST PUSH3 0x3B3 SWAP3 SWAP2 SWAP1 PUSH3 0x679 JUMP JUMPDEST POP PUSH20 0xC152AD455B16D865F2344140DEC6EA95CB361E8A PUSH1 0x5 PUSH1 0x40 MLOAD PUSH3 0x3E3 SWAP1 PUSH4 0x50657461 PUSH1 0xE0 SHL DUP2 MSTORE PUSH1 0x4 ADD SWAP1 JUMP JUMPDEST SWAP1 DUP2 MSTORE PUSH1 0x40 DUP1 MLOAD PUSH1 0x20 SWAP3 DUP2 SWAP1 SUB DUP4 ADD DUP2 KECCAK256 DUP1 SLOAD PUSH1 0x1 PUSH1 0x1 PUSH1 0xA0 SHL SUB NOT AND PUSH1 0x1 PUSH1 0x1 PUSH1 0xA0 SHL SUB SWAP6 SWAP1 SWAP6 AND SWAP5 SWAP1 SWAP5 OR SWAP1 SWAP4 SSTORE PUSH1 0xE0 DUP4 ADD DUP2 MSTORE PUSH1 0x4 PUSH1 0xA0 DUP5 ADD SWAP1 DUP2 MSTORE PUSH4 0x50657461 PUSH1 0xE0 SHL PUSH1 0xC0 DUP6 ADD MSTORE DUP4 MSTORE DUP1 MLOAD DUP1 DUP3 ADD SWAP1 SWAP2 MSTORE PUSH1 0x1 DUP2 MSTORE PUSH1 0x19 PUSH1 0xF9 SHL DUP2 DUP4 ADD MSTORE SWAP1 DUP3 ADD SWAP1 PUSH3 0x455 SWAP1 PUSH3 0x5B8 JUMP JUMPDEST DUP2 MSTORE PUSH2 0x3E8 PUSH1 0x20 DUP1 DUP4 ADD SWAP2 SWAP1 SWAP2 MSTORE PUSH1 0x0 PUSH1 0x40 DUP4 ADD DUP2 SWAP1 MSTORE PUSH1 0x60 SWAP1 SWAP3 ADD DUP3 SWAP1 MSTORE PUSH20 0xC152AD455B16D865F2344140DEC6EA95CB361E8A SWAP1 SWAP2 MSTORE PUSH1 0x4 DUP2 MSTORE DUP2 MLOAD DUP1 MLOAD PUSH32 0x46BE32A2E9B8E0F4C8F06B744988BE62B4F05119193EA23BE26A02D9470D0CCD SWAP3 PUSH3 0x4C6 SWAP3 DUP5 SWAP3 SWAP2 ADD SWAP1 PUSH3 0x5EA JUMP JUMPDEST POP PUSH1 0x20 DUP3 DUP2 ADD MLOAD PUSH1 0x1 DUP4 DUP2 ADD SWAP2 SWAP1 SWAP2 SSTORE PUSH1 0x40 DUP1 DUP6 ADD MLOAD PUSH1 0x2 DUP6 ADD SSTORE PUSH1 0x60 DUP6 ADD MLOAD PUSH1 0x3 DUP6 ADD SSTORE PUSH1 0x80 SWAP1 SWAP5 ADD MLOAD PUSH1 0x4 SWAP4 DUP5 ADD DUP1 SLOAD PUSH1 0xFF NOT AND SWAP2 ISZERO ISZERO SWAP2 SWAP1 SWAP2 OR SWAP1 SSTORE PUSH1 0x6 DUP1 SLOAD SWAP2 DUP3 ADD DUP2 SSTORE PUSH1 0x0 MSTORE DUP4 MLOAD DUP1 DUP6 ADD SWAP1 SWAP5 MSTORE DUP3 DUP5 MSTORE PUSH4 0x50657461 PUSH1 0xE0 SHL SWAP4 SWAP1 SWAP2 ADD SWAP3 DUP4 MSTORE PUSH3 0x55B SWAP3 PUSH32 0xF652222313E28459528D920B65115C16C04F3EFC82AAEDC97BE59F3F377C0D3F SWAP1 SWAP2 ADD SWAP2 PUSH3 0x5EA JUMP JUMPDEST POP PUSH1 0x7 DUP1 SLOAD PUSH1 0x1 DUP2 ADD DUP3 SSTORE PUSH1 0x0 SWAP2 SWAP1 SWAP2 MSTORE PUSH32 0xA66CC928B5EDB82AF9BD49922954155AB7B0942694BEA4CE44661D9A8736C688 ADD DUP1 SLOAD PUSH1 0x1 PUSH1 0x1 PUSH1 0xA0 SHL SUB NOT AND PUSH20 0xC152AD455B16D865F2344140DEC6EA95CB361E8A OR SWAP1 SSTORE PUSH3 0x78F JUMP JUMPDEST PUSH1 0x0 DUP2 PUSH1 0x40 MLOAD PUSH1 0x20 ADD PUSH3 0x5CD SWAP2 SWAP1 PUSH3 0x714 JUMP JUMPDEST PUSH1 0x40 MLOAD PUSH1 0x20 DUP2 DUP4 SUB SUB DUP2 MSTORE SWAP1 PUSH1 0x40 MSTORE DUP1 MLOAD SWAP1 PUSH1 0x20 ADD KECCAK256 SWAP1 POP SWAP2 SWAP1 POP JUMP JUMPDEST DUP3 DUP1 SLOAD PUSH3 0x5F8 SWAP1 PUSH3 0x752 JUMP JUMPDEST SWAP1 PUSH1 0x0 MSTORE PUSH1 0x20 PUSH1 0x0 KECCAK256 SWAP1 PUSH1 0x1F ADD PUSH1 0x20 SWAP1 DIV DUP2 ADD SWAP3 DUP3 PUSH3 0x61C JUMPI PUSH1 0x0 DUP6 SSTORE PUSH3 0x667 JUMP JUMPDEST DUP3 PUSH1 0x1F LT PUSH3 0x637 JUMPI DUP1 MLOAD PUSH1 0xFF NOT AND DUP4 DUP1 ADD OR DUP6 SSTORE PUSH3 0x667 JUMP JUMPDEST DUP3 DUP1 ADD PUSH1 0x1 ADD DUP6 SSTORE DUP3 ISZERO PUSH3 0x667 JUMPI SWAP2 DUP3 ADD JUMPDEST DUP3 DUP2 GT ISZERO PUSH3 0x667 JUMPI DUP3 MLOAD DUP3 SSTORE SWAP2 PUSH1 0x20 ADD SWAP2 SWAP1 PUSH1 0x1 ADD SWAP1 PUSH3 0x64A JUMP JUMPDEST POP PUSH3 0x675 SWAP3 SWAP2 POP PUSH3 0x6FD JUMP JUMPDEST POP SWAP1 JUMP JUMPDEST DUP3 DUP1 SLOAD PUSH3 0x687 SWAP1 PUSH3 0x752 JUMP JUMPDEST SWAP1 PUSH1 0x0 MSTORE PUSH1 0x20 PUSH1 0x0 KECCAK256 SWAP1 PUSH1 0x1F ADD PUSH1 0x20 SWAP1 DIV DUP2 ADD SWAP3 DUP3 PUSH3 0x6AB JUMPI PUSH1 0x0 DUP6 SSTORE PUSH3 0x667 JUMP JUMPDEST DUP3 PUSH1 0x1F LT PUSH3 0x6BE JUMPI DUP1 SLOAD DUP6 SSTORE PUSH3 0x667 JUMP JUMPDEST DUP3 DUP1 ADD PUSH1 0x1 ADD DUP6 SSTORE DUP3 ISZERO PUSH3 0x667 JUMPI PUSH1 0x0 MSTORE PUSH1 0x20 PUSH1 0x0 KECCAK256 SWAP2 PUSH1 0x1F ADD PUSH1 0x20 SWAP1 DIV DUP3 ADD JUMPDEST DUP3 DUP2 GT ISZERO PUSH3 0x667 JUMPI DUP3 SLOAD DUP3 SSTORE SWAP2 PUSH1 0x1 ADD SWAP2 SWAP1 PUSH1 0x1 ADD SWAP1 PUSH3 0x6E0 JUMP JUMPDEST JUMPDEST DUP1 DUP3 GT ISZERO PUSH3 0x675 JUMPI PUSH1 0x0 DUP2 SSTORE PUSH1 0x1 ADD PUSH3 0x6FE JUMP JUMPDEST PUSH1 0x0 DUP3 MLOAD PUSH1 0x0 JUMPDEST DUP2 DUP2 LT ISZERO PUSH3 0x737 JUMPI PUSH1 0x20 DUP2 DUP7 ADD DUP2 ADD MLOAD DUP6 DUP4 ADD MSTORE ADD PUSH3 0x71B JUMP JUMPDEST DUP2 DUP2 GT ISZERO PUSH3 0x747 JUMPI PUSH1 0x0 DUP3 DUP6 ADD MSTORE JUMPDEST POP SWAP2 SWAP1 SWAP2 ADD SWAP3 SWAP2 POP POP JUMP JUMPDEST PUSH1 0x1 DUP2 DUP2 SHR SWAP1 DUP3 AND DUP1 PUSH3 0x767 JUMPI PUSH1 0x7F DUP3 AND SWAP2 POP JUMPDEST PUSH1 0x20 DUP3 LT DUP2 EQ ISZERO PUSH3 0x789 JUMPI PUSH4 0x4E487B71 PUSH1 0xE0 SHL PUSH1 0x0 MSTORE PUSH1 0x22 PUSH1 0x4 MSTORE PUSH1 0x24 PUSH1 0x0 REVERT JUMPDEST POP SWAP2 SWAP1 POP JUMP JUMPDEST PUSH2 0x2428 DUP1 PUSH3 0x79F PUSH1 0x0 CODECOPY PUSH1 0x0 RETURN INVALID PUSH1 0x80 PUSH1 0x40 MSTORE CALLVALUE DUP1 ISZERO PUSH2 0x10 JUMPI PUSH1 0x0 DUP1 REVERT JUMPDEST POP PUSH1 0x4 CALLDATASIZE LT PUSH2 0x154 JUMPI PUSH1 0x0 CALLDATALOAD PUSH1 0xE0 SHR DUP1 PUSH4 0x33FF0B8 EQ PUSH2 0x159 JUMPI DUP1 PUSH4 0xC72B1EC EQ PUSH2 0x17F JUMPI DUP1 PUSH4 0xE1C81B2 EQ PUSH2 0x194 JUMPI DUP1 PUSH4 0x146DC6ED EQ PUSH2 0x1A7 JUMPI DUP1 PUSH4 0x1BBE970A EQ PUSH2 0x1BA JUMPI DUP1 PUSH4 0x29E795F3 EQ PUSH2 0x206 JUMPI DUP1 PUSH4 0x2CCDEF7C EQ PUSH2 0x219 JUMPI DUP1 PUSH4 0x2D4673E3 EQ PUSH2 0x22C JUMPI DUP1 PUSH4 0x34D2C0AD EQ PUSH2 0x23F JUMPI DUP1 PUSH4 0x3B84AEDC EQ PUSH2 0x254 JUMPI DUP1 PUSH4 0x5BBC9A3F EQ PUSH2 0x277 JUMPI DUP1 PUSH4 0x5BDB63FA EQ PUSH2 0x28A JUMPI DUP1 PUSH4 0x6BA44D3C EQ PUSH2 0x29D JUMPI DUP1 PUSH4 0x6C05DD1D EQ PUSH2 0x2B0 JUMPI DUP1 PUSH4 0x775EB9E6 EQ PUSH2 0x2C3 JUMPI DUP1 PUSH4 0x7DDB273D EQ PUSH2 0x2D6 JUMPI DUP1 PUSH4 0x845952A8 EQ PUSH2 0x2F8 JUMPI DUP1 PUSH4 0x961865F0 EQ PUSH2 0x30B JUMPI DUP1 PUSH4 0xA985036D EQ PUSH2 0x32F JUMPI DUP1 PUSH4 0xA9F9482B EQ PUSH2 0x342 JUMPI DUP1 PUSH4 0xBBD43363 EQ PUSH2 0x355 JUMPI DUP1 PUSH4 0xC178B9AF EQ PUSH2 0x368 JUMPI DUP1 PUSH4 0xC4957FA0 EQ PUSH2 0x370 JUMPI DUP1 PUSH4 0xCC21C188 EQ PUSH2 0x3A4 JUMPI DUP1 PUSH4 0xD22D9020 EQ PUSH2 0x3B7 JUMPI DUP1 PUSH4 0xD68CF8C1 EQ PUSH2 0x3CA JUMPI DUP1 PUSH4 0xDCE39151 EQ PUSH2 0x3ED JUMPI DUP1 PUSH4 0xF69483C1 EQ PUSH2 0x400 JUMPI JUMPDEST PUSH1 0x0 DUP1 REVERT JUMPDEST PUSH2 0x16C PUSH2 0x167 CALLDATASIZE PUSH1 0x4 PUSH2 0x1DB0 JUMP JUMPDEST PUSH2 0x413 JUMP JUMPDEST PUSH1 0x40 MLOAD SWAP1 DUP2 MSTORE PUSH1 0x20 ADD JUMPDEST PUSH1 0x40 MLOAD DUP1 SWAP2 SUB SWAP1 RETURN JUMPDEST PUSH2 0x192 PUSH2 0x18D CALLDATASIZE PUSH1 0x4 PUSH2 0x1FF1 JUMP JUMPDEST PUSH2 0x45A JUMP JUMPDEST STOP JUMPDEST PUSH2 0x192 PUSH2 0x1A2 CALLDATASIZE PUSH1 0x4 PUSH2 0x1D5A JUMP JUMPDEST PUSH2 0x645 JUMP JUMPDEST PUSH2 0x192 PUSH2 0x1B5 CALLDATASIZE PUSH1 0x4 PUSH2 0x1DB0 JUMP JUMPDEST PUSH2 0x7D8 JUMP JUMPDEST PUSH2 0x1EE PUSH2 0x1C8 CALLDATASIZE PUSH1 0x4 PUSH2 0x1DB0 JUMP JUMPDEST DUP1 MLOAD PUSH1 0x20 DUP2 DUP4 ADD DUP2 ADD DUP1 MLOAD PUSH1 0x5 DUP3 MSTORE SWAP3 DUP3 ADD SWAP2 SWAP1 SWAP4 ADD KECCAK256 SWAP2 MSTORE SLOAD PUSH1 0x1 PUSH1 0x1 PUSH1 0xA0 SHL SUB AND DUP2 JUMP JUMPDEST PUSH1 0x40 MLOAD PUSH1 0x1 PUSH1 0x1 PUSH1 0xA0 SHL SUB SWAP1 SWAP2 AND DUP2 MSTORE PUSH1 0x20 ADD PUSH2 0x176 JUMP JUMPDEST PUSH2 0x192 PUSH2 0x214 CALLDATASIZE PUSH1 0x4 PUSH2 0x1DE4 JUMP JUMPDEST PUSH2 0x92F JUMP JUMPDEST PUSH2 0x192 PUSH2 0x227 CALLDATASIZE PUSH1 0x4 PUSH2 0x1FF1 JUMP JUMPDEST PUSH2 0xA93 JUMP JUMPDEST PUSH2 0x192 PUSH2 0x23A CALLDATASIZE PUSH1 0x4 PUSH2 0x1DB0 JUMP JUMPDEST PUSH2 0xBCB JUMP JUMPDEST PUSH2 0x247 PUSH2 0xC77 JUMP JUMPDEST PUSH1 0x40 MLOAD PUSH2 0x176 SWAP2 SWAP1 PUSH2 0x2177 JUMP JUMPDEST PUSH2 0x267 PUSH2 0x262 CALLDATASIZE PUSH1 0x4 PUSH2 0x1DB0 JUMP JUMPDEST PUSH2 0xD50 JUMP JUMPDEST PUSH1 0x40 MLOAD SWAP1 ISZERO ISZERO DUP2 MSTORE PUSH1 0x20 ADD PUSH2 0x176 JUMP JUMPDEST PUSH2 0x267 PUSH2 0x285 CALLDATASIZE PUSH1 0x4 PUSH2 0x1DB0 JUMP JUMPDEST PUSH2 0xD9A JUMP JUMPDEST PUSH2 0x16C PUSH2 0x298 CALLDATASIZE PUSH1 0x4 PUSH2 0x1DB0 JUMP JUMPDEST PUSH2 0xDB0 JUMP JUMPDEST PUSH2 0x1EE PUSH2 0x2AB CALLDATASIZE PUSH1 0x4 PUSH2 0x1DB0 JUMP JUMPDEST PUSH2 0xDC6 JUMP JUMPDEST PUSH2 0x192 PUSH2 0x2BE CALLDATASIZE PUSH1 0x4 PUSH2 0x1F6C JUMP JUMPDEST PUSH2 0xDF7 JUMP JUMPDEST PUSH2 0x192 PUSH2 0x2D1 CALLDATASIZE PUSH1 0x4 PUSH2 0x1ECD JUMP JUMPDEST PUSH2 0xEEE JUMP JUMPDEST PUSH2 0x2E9 PUSH2 0x2E4 CALLDATASIZE PUSH1 0x4 PUSH2 0x1FD8 JUMP JUMPDEST PUSH2 0x104F JUMP JUMPDEST PUSH1 0x40 MLOAD PUSH2 0x176 SWAP4 SWAP3 SWAP2 SWAP1 PUSH2 0x210A JUMP JUMPDEST PUSH2 0x16C PUSH2 0x306 CALLDATASIZE PUSH1 0x4 PUSH2 0x1DB0 JUMP JUMPDEST PUSH2 0x111A JUMP JUMPDEST PUSH2 0x31E PUSH2 0x319 CALLDATASIZE PUSH1 0x4 PUSH2 0x1D38 JUMP JUMPDEST PUSH2 0x114A JUMP JUMPDEST PUSH1 0x40 MLOAD PUSH2 0x176 SWAP6 SWAP5 SWAP4 SWAP3 SWAP2 SWAP1 PUSH2 0x21D9 JUMP JUMPDEST PUSH2 0x16C PUSH2 0x33D CALLDATASIZE PUSH1 0x4 PUSH2 0x1DB0 JUMP JUMPDEST PUSH2 0x1204 JUMP JUMPDEST PUSH2 0x2E9 PUSH2 0x350 CALLDATASIZE PUSH1 0x4 PUSH2 0x1FD8 JUMP JUMPDEST PUSH2 0x140C JUMP JUMPDEST PUSH2 0x192 PUSH2 0x363 CALLDATASIZE PUSH1 0x4 PUSH2 0x1DB0 JUMP JUMPDEST PUSH2 0x141C JUMP JUMPDEST PUSH2 0x247 PUSH2 0x14C8 JUMP JUMPDEST PUSH2 0x1EE PUSH2 0x37E CALLDATASIZE PUSH1 0x4 PUSH2 0x1DB0 JUMP JUMPDEST DUP1 MLOAD PUSH1 0x20 DUP2 DUP4 ADD DUP2 ADD DUP1 MLOAD PUSH1 0x1 DUP3 MSTORE SWAP3 DUP3 ADD SWAP2 SWAP1 SWAP4 ADD KECCAK256 SWAP2 MSTORE SLOAD PUSH1 0x1 PUSH1 0x1 PUSH1 0xA0 SHL SUB AND DUP2 JUMP JUMPDEST PUSH2 0x192 PUSH2 0x3B2 CALLDATASIZE PUSH1 0x4 PUSH2 0x1F11 JUMP JUMPDEST PUSH2 0x1598 JUMP JUMPDEST PUSH2 0x192 PUSH2 0x3C5 CALLDATASIZE PUSH1 0x4 PUSH2 0x1ECD JUMP JUMPDEST PUSH2 0x186C JUMP JUMPDEST PUSH2 0x3DD PUSH2 0x3D8 CALLDATASIZE PUSH1 0x4 PUSH2 0x1DB0 JUMP JUMPDEST PUSH2 0x1992 JUMP JUMPDEST PUSH1 0x40 MLOAD PUSH2 0x176 SWAP5 SWAP4 SWAP3 SWAP2 SWAP1 PUSH2 0x2140 JUMP JUMPDEST PUSH2 0x2E9 PUSH2 0x3FB CALLDATASIZE PUSH1 0x4 PUSH2 0x1FD8 JUMP JUMPDEST PUSH2 0x1A58 JUMP JUMPDEST PUSH2 0x192 PUSH2 0x40E CALLDATASIZE PUSH1 0x4 PUSH2 0x1FF1 JUMP JUMPDEST PUSH2 0x1A68 JUMP JUMPDEST PUSH1 0x0 DUP1 PUSH1 0x0 PUSH1 0x1 DUP5 PUSH1 0x40 MLOAD PUSH2 0x428 SWAP2 SWAP1 PUSH2 0x2052 JUMP JUMPDEST SWAP1 DUP2 MSTORE PUSH1 0x40 DUP1 MLOAD PUSH1 0x20 SWAP3 DUP2 SWAP1 SUB DUP4 ADD SWAP1 KECCAK256 SLOAD PUSH1 0x1 PUSH1 0x1 PUSH1 0xA0 SHL SUB AND DUP4 MSTORE SWAP1 DUP3 ADD SWAP3 SWAP1 SWAP3 MSTORE ADD PUSH1 0x0 KECCAK256 PUSH1 0x3 ADD SLOAD SWAP3 SWAP2 POP POP JUMP JUMPDEST PUSH1 0x1 DUP2 ISZERO ISZERO EQ ISZERO PUSH2 0x60A JUMPI PUSH1 0x0 PUSH1 0xA DUP4 DUP2 SLOAD DUP2 LT PUSH2 0x47A JUMPI PUSH2 0x47A PUSH2 0x23C6 JUMP JUMPDEST SWAP1 PUSH1 0x0 MSTORE PUSH1 0x20 PUSH1 0x0 KECCAK256 SWAP1 PUSH1 0x3 MUL ADD PUSH1 0x2 ADD PUSH1 0x0 PUSH2 0x100 EXP DUP2 SLOAD DUP2 PUSH1 0xFF MUL NOT AND SWAP1 DUP4 ISZERO ISZERO MUL OR SWAP1 SSTORE POP PUSH1 0x8 PUSH1 0xA DUP4 DUP2 SLOAD DUP2 LT PUSH2 0x4B7 JUMPI PUSH2 0x4B7 PUSH2 0x23C6 JUMP JUMPDEST SWAP1 PUSH1 0x0 MSTORE PUSH1 0x20 PUSH1 0x0 KECCAK256 SWAP1 PUSH1 0x3 MUL ADD PUSH1 0x1 ADD PUSH1 0x40 MLOAD PUSH2 0x4D5 SWAP2 SWAP1 PUSH2 0x206E JUMP JUMPDEST SWAP1 DUP2 MSTORE PUSH1 0x20 ADD PUSH1 0x40 MLOAD DUP1 SWAP2 SUB SWAP1 KECCAK256 PUSH1 0x2 ADD SLOAD PUSH1 0x4 PUSH1 0x0 PUSH1 0xA DUP6 DUP2 SLOAD DUP2 LT PUSH2 0x4FE JUMPI PUSH2 0x4FE PUSH2 0x23C6 JUMP JUMPDEST PUSH1 0x0 SWAP2 DUP3 MSTORE PUSH1 0x20 DUP1 DUP4 KECCAK256 PUSH1 0x3 SWAP1 SWAP3 MUL SWAP1 SWAP2 ADD SLOAD PUSH1 0x1 PUSH1 0x1 PUSH1 0xA0 SHL SUB AND DUP4 MSTORE DUP3 ADD SWAP3 SWAP1 SWAP3 MSTORE PUSH1 0x40 ADD SWAP1 KECCAK256 PUSH1 0x2 ADD SLOAD PUSH2 0x535 SWAP2 SWAP1 PUSH2 0x2317 JUMP JUMPDEST PUSH1 0x4 PUSH1 0x0 PUSH1 0xA DUP6 DUP2 SLOAD DUP2 LT PUSH2 0x54C JUMPI PUSH2 0x54C PUSH2 0x23C6 JUMP JUMPDEST PUSH1 0x0 SWAP2 DUP3 MSTORE PUSH1 0x20 DUP1 DUP4 KECCAK256 PUSH1 0x3 SWAP1 SWAP3 MUL SWAP1 SWAP2 ADD SLOAD PUSH1 0x1 PUSH1 0x1 PUSH1 0xA0 SHL SUB AND DUP4 MSTORE DUP3 ADD SWAP3 SWAP1 SWAP3 MSTORE PUSH1 0x40 ADD SWAP1 KECCAK256 PUSH1 0x2 ADD SSTORE PUSH1 0xA DUP1 SLOAD PUSH1 0x8 SWAP2 SWAP1 DUP5 SWAP1 DUP2 LT PUSH2 0x591 JUMPI PUSH2 0x591 PUSH2 0x23C6 JUMP JUMPDEST SWAP1 PUSH1 0x0 MSTORE PUSH1 0x20 PUSH1 0x0 KECCAK256 SWAP1 PUSH1 0x3 MUL ADD PUSH1 0x1 ADD PUSH1 0x40 MLOAD PUSH2 0x5AF SWAP2 SWAP1 PUSH2 0x206E JUMP JUMPDEST SWAP1 DUP2 MSTORE PUSH1 0x20 ADD PUSH1 0x40 MLOAD DUP1 SWAP2 SUB SWAP1 KECCAK256 PUSH1 0x2 ADD SLOAD PUSH1 0x0 DUP1 CALLER PUSH1 0x1 PUSH1 0x1 PUSH1 0xA0 SHL SUB AND PUSH1 0x1 PUSH1 0x1 PUSH1 0xA0 SHL SUB AND DUP2 MSTORE PUSH1 0x20 ADD SWAP1 DUP2 MSTORE PUSH1 0x20 ADD PUSH1 0x0 KECCAK256 PUSH1 0x2 ADD SLOAD PUSH2 0x5F3 SWAP2 SWAP1 PUSH2 0x22DD JUMP JUMPDEST CALLER PUSH1 0x0 SWAP1 DUP2 MSTORE PUSH1 0x20 DUP2 SWAP1 MSTORE PUSH1 0x40 SWAP1 KECCAK256 PUSH1 0x2 ADD SSTORE POP POP JUMP JUMPDEST PUSH1 0x0 PUSH1 0xA DUP4 DUP2 SLOAD DUP2 LT PUSH2 0x61F JUMPI PUSH2 0x61F PUSH2 0x23C6 JUMP JUMPDEST PUSH1 0x0 SWAP2 DUP3 MSTORE PUSH1 0x20 SWAP1 SWAP2 KECCAK256 PUSH1 0x3 SWAP1 SWAP2 MUL ADD PUSH1 0x2 ADD DUP1 SLOAD PUSH1 0xFF NOT AND SWAP2 ISZERO ISZERO SWAP2 SWAP1 SWAP2 OR SWAP1 SSTORE POP POP JUMP JUMPDEST PUSH1 0x0 PUSH1 0x1 PUSH1 0x1 PUSH1 0xA0 SHL SUB AND PUSH1 0x5 DUP4 PUSH1 0x40 MLOAD PUSH2 0x660 SWAP2 SWAP1 PUSH2 0x2052 JUMP JUMPDEST SWAP1 DUP2 MSTORE PUSH1 0x40 MLOAD SWAP1 DUP2 SWAP1 SUB PUSH1 0x20 ADD SWAP1 KECCAK256 SLOAD PUSH1 0x1 PUSH1 0x1 PUSH1 0xA0 SHL SUB AND EQ PUSH2 0x6C7 JUMPI PUSH1 0x40 MLOAD PUSH3 0x461BCD PUSH1 0xE5 SHL DUP2 MSTORE PUSH1 0x20 PUSH1 0x4 DUP3 ADD MSTORE PUSH1 0x19 PUSH1 0x24 DUP3 ADD MSTORE PUSH25 0x115C9C9BDC8E88155CD95C88185B1C9958591E48195E1A5CDD PUSH1 0x3A SHL PUSH1 0x44 DUP3 ADD MSTORE PUSH1 0x64 ADD JUMPDEST PUSH1 0x40 MLOAD DUP1 SWAP2 SUB SWAP1 REVERT JUMPDEST PUSH1 0x40 DUP1 MLOAD PUSH1 0xA0 DUP2 ADD DUP3 MSTORE DUP4 DUP2 MSTORE PUSH1 0x20 DUP1 DUP3 ADD DUP5 SWAP1 MSTORE PUSH2 0x3E8 DUP3 DUP5 ADD MSTORE PUSH1 0x0 PUSH1 0x60 DUP4 ADD DUP2 SWAP1 MSTORE PUSH1 0x80 DUP4 ADD DUP2 SWAP1 MSTORE PUSH1 0x1 PUSH1 0x1 PUSH1 0xA0 SHL SUB DUP8 AND DUP2 MSTORE PUSH1 0x4 DUP3 MSTORE SWAP3 SWAP1 SWAP3 KECCAK256 DUP2 MLOAD DUP1 MLOAD SWAP3 SWAP4 SWAP2 SWAP3 PUSH2 0x71C SWAP3 DUP5 SWAP3 ADD SWAP1 PUSH2 0x1B61 JUMP JUMPDEST POP PUSH1 0x20 DUP3 ADD MLOAD PUSH1 0x1 DUP3 ADD SSTORE PUSH1 0x40 DUP1 DUP4 ADD MLOAD PUSH1 0x2 DUP4 ADD SSTORE PUSH1 0x60 DUP4 ADD MLOAD PUSH1 0x3 DUP4 ADD SSTORE PUSH1 0x80 SWAP1 SWAP3 ADD MLOAD PUSH1 0x4 SWAP1 SWAP2 ADD DUP1 SLOAD PUSH1 0xFF NOT AND SWAP2 ISZERO ISZERO SWAP2 SWAP1 SWAP2 OR SWAP1 SSTORE MLOAD DUP4 SWAP1 PUSH1 0x5 SWAP1 PUSH2 0x767 SWAP1 DUP6 SWAP1 PUSH2 0x2052 JUMP JUMPDEST SWAP1 DUP2 MSTORE PUSH1 0x40 MLOAD SWAP1 DUP2 SWAP1 SUB PUSH1 0x20 ADD SWAP1 KECCAK256 DUP1 SLOAD PUSH1 0x1 PUSH1 0x1 PUSH1 0xA0 SHL SUB SWAP3 DUP4 AND PUSH1 0x1 PUSH1 0x1 PUSH1 0xA0 SHL SUB NOT SWAP2 DUP3 AND OR SWAP1 SWAP2 SSTORE PUSH1 0x7 DUP1 SLOAD PUSH1 0x1 DUP2 ADD DUP3 SSTORE PUSH1 0x0 SWAP2 SWAP1 SWAP2 MSTORE PUSH32 0xA66CC928B5EDB82AF9BD49922954155AB7B0942694BEA4CE44661D9A8736C688 ADD DUP1 SLOAD SWAP6 SWAP1 SWAP3 AND SWAP5 AND SWAP4 SWAP1 SWAP4 OR SWAP1 SWAP3 SSTORE POP POP JUMP JUMPDEST PUSH1 0x8 DUP2 PUSH1 0x40 MLOAD PUSH2 0x7E8 SWAP2 SWAP1 PUSH2 0x2052 JUMP JUMPDEST SWAP1 DUP2 MSTORE PUSH1 0x20 ADD PUSH1 0x40 MLOAD DUP1 SWAP2 SUB SWAP1 KECCAK256 PUSH1 0x2 ADD SLOAD PUSH1 0x4 PUSH1 0x0 CALLER PUSH1 0x1 PUSH1 0x1 PUSH1 0xA0 SHL SUB AND PUSH1 0x1 PUSH1 0x1 PUSH1 0xA0 SHL SUB AND DUP2 MSTORE PUSH1 0x20 ADD SWAP1 DUP2 MSTORE PUSH1 0x20 ADD PUSH1 0x0 KECCAK256 PUSH1 0x2 ADD SLOAD LT ISZERO PUSH2 0x864 JUMPI PUSH1 0x40 MLOAD PUSH3 0x461BCD PUSH1 0xE5 SHL DUP2 MSTORE PUSH1 0x20 PUSH1 0x4 DUP3 ADD MSTORE PUSH1 0x10 PUSH1 0x24 DUP3 ADD MSTORE PUSH16 0x6572726F723A206E6F74206D6F6E6579 PUSH1 0x80 SHL PUSH1 0x44 DUP3 ADD MSTORE PUSH1 0x64 ADD PUSH2 0x6BE JUMP JUMPDEST PUSH1 0x40 DUP1 MLOAD PUSH1 0x60 DUP2 ADD DUP3 MSTORE CALLER DUP2 MSTORE PUSH1 0x20 DUP1 DUP3 ADD DUP5 DUP2 MSTORE PUSH1 0x1 SWAP4 DUP4 ADD DUP5 SWAP1 MSTORE PUSH1 0xA DUP1 SLOAD SWAP5 DUP6 ADD DUP2 SSTORE PUSH1 0x0 MSTORE DUP3 MLOAD PUSH32 0xC65A7BB8D6351C1CF70C95A316CC6A92839C986682D98BC35F958F4883F9D2A8 PUSH1 0x3 SWAP1 SWAP6 MUL SWAP5 DUP6 ADD DUP1 SLOAD PUSH1 0x1 PUSH1 0x1 PUSH1 0xA0 SHL SUB NOT AND PUSH1 0x1 PUSH1 0x1 PUSH1 0xA0 SHL SUB SWAP1 SWAP3 AND SWAP2 SWAP1 SWAP2 OR DUP2 SSTORE SWAP1 MLOAD DUP1 MLOAD SWAP4 SWAP5 SWAP2 SWAP4 PUSH2 0x910 SWAP4 PUSH32 0xC65A7BB8D6351C1CF70C95A316CC6A92839C986682D98BC35F958F4883F9D2A9 SWAP1 SWAP4 ADD SWAP3 SWAP2 SWAP1 SWAP2 ADD SWAP1 PUSH2 0x1B61 JUMP JUMPDEST POP PUSH1 0x40 SWAP2 SWAP1 SWAP2 ADD MLOAD PUSH1 0x2 SWAP1 SWAP2 ADD DUP1 SLOAD PUSH1 0xFF NOT AND SWAP2 ISZERO ISZERO SWAP2 SWAP1 SWAP2 OR SWAP1 SSTORE POP JUMP JUMPDEST PUSH1 0x0 JUMPDEST PUSH1 0x3 SLOAD DUP2 LT ISZERO PUSH2 0xA8E JUMPI PUSH1 0x0 PUSH1 0x3 DUP3 DUP2 SLOAD DUP2 LT PUSH2 0x951 JUMPI PUSH2 0x951 PUSH2 0x23C6 JUMP JUMPDEST SWAP1 PUSH1 0x0 MSTORE PUSH1 0x20 PUSH1 0x0 KECCAK256 SWAP1 PUSH1 0x5 MUL ADD PUSH1 0x1 ADD DUP1 SLOAD PUSH2 0x96D SWAP1 PUSH2 0x235A JUMP JUMPDEST DUP1 PUSH1 0x1F ADD PUSH1 0x20 DUP1 SWAP2 DIV MUL PUSH1 0x20 ADD PUSH1 0x40 MLOAD SWAP1 DUP2 ADD PUSH1 0x40 MSTORE DUP1 SWAP3 SWAP2 SWAP1 DUP2 DUP2 MSTORE PUSH1 0x20 ADD DUP3 DUP1 SLOAD PUSH2 0x999 SWAP1 PUSH2 0x235A JUMP JUMPDEST DUP1 ISZERO PUSH2 0x9E6 JUMPI DUP1 PUSH1 0x1F LT PUSH2 0x9BB JUMPI PUSH2 0x100 DUP1 DUP4 SLOAD DIV MUL DUP4 MSTORE SWAP2 PUSH1 0x20 ADD SWAP2 PUSH2 0x9E6 JUMP JUMPDEST DUP3 ADD SWAP2 SWAP1 PUSH1 0x0 MSTORE PUSH1 0x20 PUSH1 0x0 KECCAK256 SWAP1 JUMPDEST DUP2 SLOAD DUP2 MSTORE SWAP1 PUSH1 0x1 ADD SWAP1 PUSH1 0x20 ADD DUP1 DUP4 GT PUSH2 0x9C9 JUMPI DUP3 SWAP1 SUB PUSH1 0x1F AND DUP3 ADD SWAP2 JUMPDEST POP POP POP POP POP SWAP1 POP DUP4 PUSH1 0x40 MLOAD PUSH1 0x20 ADD PUSH2 0x9FE SWAP2 SWAP1 PUSH2 0x2052 JUMP JUMPDEST PUSH1 0x40 MLOAD PUSH1 0x20 DUP2 DUP4 SUB SUB DUP2 MSTORE SWAP1 PUSH1 0x40 MSTORE DUP1 MLOAD SWAP1 PUSH1 0x20 ADD KECCAK256 DUP2 PUSH1 0x40 MLOAD PUSH1 0x20 ADD PUSH2 0xA25 SWAP2 SWAP1 PUSH2 0x2052 JUMP JUMPDEST PUSH1 0x40 MLOAD PUSH1 0x20 DUP2 DUP4 SUB SUB DUP2 MSTORE SWAP1 PUSH1 0x40 MSTORE DUP1 MLOAD SWAP1 PUSH1 0x20 ADD KECCAK256 EQ ISZERO PUSH2 0xA7B JUMPI DUP3 PUSH1 0x3 DUP4 DUP2 SLOAD DUP2 LT PUSH2 0xA55 JUMPI PUSH2 0xA55 PUSH2 0x23C6 JUMP JUMPDEST SWAP1 PUSH1 0x0 MSTORE PUSH1 0x20 PUSH1 0x0 KECCAK256 SWAP1 PUSH1 0x5 MUL ADD PUSH1 0x4 ADD SWAP1 DUP1 MLOAD SWAP1 PUSH1 0x20 ADD SWAP1 PUSH2 0xA79 SWAP3 SWAP2 SWAP1 PUSH2 0x1BE5 JUMP JUMPDEST POP JUMPDEST POP DUP1 PUSH2 0xA86 DUP2 PUSH2 0x2395 JUMP JUMPDEST SWAP2 POP POP PUSH2 0x932 JUMP JUMPDEST POP POP POP JUMP JUMPDEST PUSH1 0x1 DUP2 ISZERO ISZERO EQ ISZERO PUSH2 0xBB6 JUMPI PUSH1 0x0 PUSH1 0xB DUP4 DUP2 SLOAD DUP2 LT PUSH2 0xAB3 JUMPI PUSH2 0xAB3 PUSH2 0x23C6 JUMP JUMPDEST SWAP1 PUSH1 0x0 MSTORE PUSH1 0x20 PUSH1 0x0 KECCAK256 SWAP1 PUSH1 0x3 MUL ADD PUSH1 0x2 ADD PUSH1 0x0 PUSH2 0x100 EXP DUP2 SLOAD DUP2 PUSH1 0xFF MUL NOT AND SWAP1 DUP4 ISZERO ISZERO MUL OR SWAP1 SSTORE POP PUSH1 0x8 PUSH1 0xB DUP4 DUP2 SLOAD DUP2 LT PUSH2 0xAF0 JUMPI PUSH2 0xAF0 PUSH2 0x23C6 JUMP JUMPDEST SWAP1 PUSH1 0x0 MSTORE PUSH1 0x20 PUSH1 0x0 KECCAK256 SWAP1 PUSH1 0x3 MUL ADD PUSH1 0x1 ADD PUSH1 0x40 MLOAD PUSH2 0xB0E SWAP2 SWAP1 PUSH2 0x206E JUMP JUMPDEST SWAP1 DUP2 MSTORE PUSH1 0x20 ADD PUSH1 0x40 MLOAD DUP1 SWAP2 SUB SWAP1 KECCAK256 PUSH1 0x2 ADD SLOAD PUSH1 0x4 PUSH1 0x0 PUSH1 0xB DUP6 DUP2 SLOAD DUP2 LT PUSH2 0xB37 JUMPI PUSH2 0xB37 PUSH2 0x23C6 JUMP JUMPDEST PUSH1 0x0 SWAP2 DUP3 MSTORE PUSH1 0x20 DUP1 DUP4 KECCAK256 PUSH1 0x3 SWAP1 SWAP3 MUL SWAP1 SWAP2 ADD SLOAD PUSH1 0x1 PUSH1 0x1 PUSH1 0xA0 SHL SUB AND DUP4 MSTORE DUP3 ADD SWAP3 SWAP1 SWAP3 MSTORE PUSH1 0x40 ADD SWAP1 KECCAK256 PUSH1 0x2 ADD SLOAD PUSH2 0xB6E SWAP2 SWAP1 PUSH2 0x22DD JUMP JUMPDEST PUSH1 0x4 PUSH1 0x0 PUSH1 0xB DUP6 DUP2 SLOAD DUP2 LT PUSH2 0xB85 JUMPI PUSH2 0xB85 PUSH2 0x23C6 JUMP JUMPDEST PUSH1 0x0 SWAP2 DUP3 MSTORE PUSH1 0x20 DUP1 DUP4 KECCAK256 PUSH1 0x3 SWAP1 SWAP3 MUL SWAP1 SWAP2 ADD SLOAD PUSH1 0x1 PUSH1 0x1 PUSH1 0xA0 SHL SUB AND DUP4 MSTORE DUP3 ADD SWAP3 SWAP1 SWAP3 MSTORE PUSH1 0x40 ADD SWAP1 KECCAK256 PUSH1 0x2 ADD SSTORE POP POP JUMP JUMPDEST PUSH1 0x0 PUSH1 0xB DUP4 DUP2 SLOAD DUP2 LT PUSH2 0x61F JUMPI PUSH2 0x61F PUSH2 0x23C6 JUMP JUMPDEST PUSH1 0x40 DUP1 MLOAD PUSH1 0x60 DUP2 ADD DUP3 MSTORE CALLER DUP2 MSTORE PUSH1 0x20 DUP1 DUP3 ADD DUP5 DUP2 MSTORE PUSH1 0x1 SWAP4 DUP4 ADD DUP5 SWAP1 MSTORE PUSH1 0xC DUP1 SLOAD SWAP5 DUP6 ADD DUP2 SSTORE PUSH1 0x0 MSTORE DUP3 MLOAD PUSH32 0xDF6966C971051C3D54EC59162606531493A51404A002842F56009D7E5CF4A8C7 PUSH1 0x3 SWAP1 SWAP6 MUL SWAP5 DUP6 ADD DUP1 SLOAD PUSH1 0x1 PUSH1 0x1 PUSH1 0xA0 SHL SUB NOT AND PUSH1 0x1 PUSH1 0x1 PUSH1 0xA0 SHL SUB SWAP1 SWAP3 AND SWAP2 SWAP1 SWAP2 OR DUP2 SSTORE SWAP1 MLOAD DUP1 MLOAD SWAP4 SWAP5 SWAP2 SWAP4 PUSH2 0x910 SWAP4 PUSH32 0xDF6966C971051C3D54EC59162606531493A51404A002842F56009D7E5CF4A8C8 SWAP1 SWAP4 ADD SWAP3 SWAP2 SWAP1 SWAP2 ADD SWAP1 PUSH2 0x1B61 JUMP JUMPDEST PUSH1 0x60 PUSH1 0x9 DUP1 SLOAD DUP1 PUSH1 0x20 MUL PUSH1 0x20 ADD PUSH1 0x40 MLOAD SWAP1 DUP2 ADD PUSH1 0x40 MSTORE DUP1 SWAP3 SWAP2 SWAP1 DUP2 DUP2 MSTORE PUSH1 0x20 ADD PUSH1 0x0 SWAP1 JUMPDEST DUP3 DUP3 LT ISZERO PUSH2 0xD47 JUMPI DUP4 DUP3 SWAP1 PUSH1 0x0 MSTORE PUSH1 0x20 PUSH1 0x0 KECCAK256 ADD DUP1 SLOAD PUSH2 0xCBA SWAP1 PUSH2 0x235A JUMP JUMPDEST DUP1 PUSH1 0x1F ADD PUSH1 0x20 DUP1 SWAP2 DIV MUL PUSH1 0x20 ADD PUSH1 0x40 MLOAD SWAP1 DUP2 ADD PUSH1 0x40 MSTORE DUP1 SWAP3 SWAP2 SWAP1 DUP2 DUP2 MSTORE PUSH1 0x20 ADD DUP3 DUP1 SLOAD PUSH2 0xCE6 SWAP1 PUSH2 0x235A JUMP JUMPDEST DUP1 ISZERO PUSH2 0xD33 JUMPI DUP1 PUSH1 0x1F LT PUSH2 0xD08 JUMPI PUSH2 0x100 DUP1 DUP4 SLOAD DIV MUL DUP4 MSTORE SWAP2 PUSH1 0x20 ADD SWAP2 PUSH2 0xD33 JUMP JUMPDEST DUP3 ADD SWAP2 SWAP1 PUSH1 0x0 MSTORE PUSH1 0x20 PUSH1 0x0 KECCAK256 SWAP1 JUMPDEST DUP2 SLOAD DUP2 MSTORE SWAP1 PUSH1 0x1 ADD SWAP1 PUSH1 0x20 ADD DUP1 DUP4 GT PUSH2 0xD16 JUMPI DUP3 SWAP1 SUB PUSH1 0x1F AND DUP3 ADD SWAP2 JUMPDEST POP POP POP POP POP DUP2 MSTORE PUSH1 0x20 ADD SWAP1 PUSH1 0x1 ADD SWAP1 PUSH2 0xC9B JUMP JUMPDEST POP POP POP POP SWAP1 POP SWAP1 JUMP JUMPDEST PUSH1 0x0 DUP1 PUSH1 0x0 PUSH1 0x1 DUP5 PUSH1 0x40 MLOAD PUSH2 0xD65 SWAP2 SWAP1 PUSH2 0x2052 JUMP JUMPDEST SWAP1 DUP2 MSTORE PUSH1 0x40 DUP1 MLOAD PUSH1 0x20 SWAP3 DUP2 SWAP1 SUB DUP4 ADD SWAP1 KECCAK256 SLOAD PUSH1 0x1 PUSH1 0x1 PUSH1 0xA0 SHL SUB AND DUP4 MSTORE SWAP1 DUP3 ADD SWAP3 SWAP1 SWAP3 MSTORE ADD PUSH1 0x0 KECCAK256 PUSH1 0x4 ADD SLOAD PUSH1 0xFF AND SWAP3 SWAP2 POP POP JUMP JUMPDEST PUSH1 0x0 PUSH1 0x4 PUSH1 0x0 PUSH1 0x5 DUP5 PUSH1 0x40 MLOAD PUSH2 0xD65 SWAP2 SWAP1 PUSH2 0x2052 JUMP JUMPDEST PUSH1 0x0 PUSH1 0x4 PUSH1 0x0 PUSH1 0x5 DUP5 PUSH1 0x40 MLOAD PUSH2 0x428 SWAP2 SWAP1 PUSH2 0x2052 JUMP JUMPDEST PUSH1 0x0 PUSH1 0x5 DUP3 PUSH1 0x40 MLOAD PUSH2 0xDD8 SWAP2 SWAP1 PUSH2 0x2052 JUMP JUMPDEST SWAP1 DUP2 MSTORE PUSH1 0x40 MLOAD SWAP1 DUP2 SWAP1 SUB PUSH1 0x20 ADD SWAP1 KECCAK256 SLOAD PUSH1 0x1 PUSH1 0x1 PUSH1 0xA0 SHL SUB AND SWAP3 SWAP2 POP POP JUMP JUMPDEST PUSH1 0x40 MLOAD DUP1 PUSH1 0x80 ADD PUSH1 0x40 MSTORE DUP1 CALLER PUSH1 0x1 PUSH1 0x1 PUSH1 0xA0 SHL SUB AND DUP2 MSTORE PUSH1 0x20 ADD DUP3 DUP2 MSTORE PUSH1 0x20 ADD DUP4 DUP2 MSTORE PUSH1 0x20 ADD PUSH1 0xD SLOAD DUP2 MSTORE POP PUSH1 0x8 DUP5 PUSH1 0x40 MLOAD PUSH2 0xE33 SWAP2 SWAP1 PUSH2 0x2052 JUMP JUMPDEST SWAP1 DUP2 MSTORE PUSH1 0x40 MLOAD PUSH1 0x20 SWAP2 DUP2 SWAP1 SUB DUP3 ADD SWAP1 KECCAK256 DUP3 MLOAD DUP2 SLOAD PUSH1 0x1 PUSH1 0x1 PUSH1 0xA0 SHL SUB NOT AND PUSH1 0x1 PUSH1 0x1 PUSH1 0xA0 SHL SUB SWAP1 SWAP2 AND OR DUP2 SSTORE DUP3 DUP3 ADD MLOAD DUP1 MLOAD SWAP2 SWAP3 PUSH2 0xE79 SWAP3 PUSH1 0x1 DUP6 ADD SWAP3 SWAP1 SWAP2 ADD SWAP1 PUSH2 0x1B61 JUMP JUMPDEST POP PUSH1 0x40 DUP3 ADD MLOAD PUSH1 0x2 DUP3 ADD SSTORE PUSH1 0x60 SWAP1 SWAP2 ADD MLOAD PUSH1 0x3 SWAP1 SWAP2 ADD SSTORE PUSH1 0x9 DUP1 SLOAD PUSH1 0x1 DUP2 ADD DUP3 SSTORE PUSH1 0x0 SWAP2 SWAP1 SWAP2 MSTORE DUP4 MLOAD PUSH2 0xED3 SWAP2 PUSH32 0x6E1540171B6C0C960B71A7020D9F60077F6AF931A8BBF590DA0223DACF75C7AF ADD SWAP1 PUSH1 0x20 DUP7 ADD SWAP1 PUSH2 0x1B61 JUMP JUMPDEST POP PUSH1 0xD DUP1 SLOAD SWAP1 PUSH1 0x0 PUSH2 0xEE4 DUP4 PUSH2 0x2395 JUMP JUMPDEST SWAP2 SWAP1 POP SSTORE POP POP POP POP JUMP JUMPDEST PUSH1 0x0 DUP1 PUSH1 0x1 DUP5 PUSH1 0x40 MLOAD PUSH2 0xF01 SWAP2 SWAP1 PUSH2 0x2052 JUMP JUMPDEST SWAP1 DUP2 MSTORE PUSH1 0x40 DUP1 MLOAD PUSH1 0x20 SWAP3 DUP2 SWAP1 SUB DUP4 ADD SWAP1 KECCAK256 SLOAD PUSH1 0x1 PUSH1 0x1 PUSH1 0xA0 SHL SUB AND DUP4 MSTORE SWAP1 DUP3 ADD SWAP3 SWAP1 SWAP3 MSTORE ADD PUSH1 0x0 KECCAK256 PUSH1 0x4 ADD SLOAD PUSH1 0xFF AND ISZERO PUSH2 0xF4D JUMPI PUSH1 0x40 MLOAD PUSH3 0x461BCD PUSH1 0xE5 SHL DUP2 MSTORE PUSH1 0x4 ADD PUSH2 0x6BE SWAP1 PUSH2 0x2276 JUMP JUMPDEST PUSH1 0x0 PUSH1 0x1 PUSH1 0x1 PUSH1 0xA0 SHL SUB AND PUSH1 0x1 DUP4 PUSH1 0x40 MLOAD PUSH2 0xF68 SWAP2 SWAP1 PUSH2 0x2052 JUMP JUMPDEST SWAP1 DUP2 MSTORE PUSH1 0x40 MLOAD SWAP1 DUP2 SWAP1 SUB PUSH1 0x20 ADD SWAP1 KECCAK256 SLOAD PUSH1 0x1 PUSH1 0x1 PUSH1 0xA0 SHL SUB AND EQ ISZERO PUSH2 0xF9F JUMPI PUSH1 0x40 MLOAD PUSH3 0x461BCD PUSH1 0xE5 SHL DUP2 MSTORE PUSH1 0x4 ADD PUSH2 0x6BE SWAP1 PUSH2 0x2243 JUMP JUMPDEST DUP1 PUSH1 0x0 DUP1 PUSH1 0x1 DUP6 PUSH1 0x40 MLOAD PUSH2 0xFB3 SWAP2 SWAP1 PUSH2 0x2052 JUMP JUMPDEST SWAP1 DUP2 MSTORE PUSH1 0x40 DUP1 MLOAD PUSH1 0x20 SWAP3 DUP2 SWAP1 SUB DUP4 ADD SWAP1 KECCAK256 SLOAD PUSH1 0x1 PUSH1 0x1 PUSH1 0xA0 SHL SUB AND DUP4 MSTORE SWAP1 DUP3 ADD SWAP3 SWAP1 SWAP3 MSTORE ADD PUSH1 0x0 KECCAK256 PUSH1 0x1 ADD SLOAD EQ PUSH2 0xFFC JUMPI PUSH1 0x40 MLOAD PUSH3 0x461BCD PUSH1 0xE5 SHL DUP2 MSTORE PUSH1 0x4 ADD PUSH2 0x6BE SWAP1 PUSH2 0x2212 JUMP JUMPDEST PUSH1 0x1 PUSH1 0x0 DUP1 PUSH1 0x1 DUP6 PUSH1 0x40 MLOAD PUSH2 0x1011 SWAP2 SWAP1 PUSH2 0x2052 JUMP JUMPDEST SWAP1 DUP2 MSTORE PUSH1 0x40 DUP1 MLOAD PUSH1 0x20 SWAP3 DUP2 SWAP1 SUB DUP4 ADD SWAP1 KECCAK256 SLOAD PUSH1 0x1 PUSH1 0x1 PUSH1 0xA0 SHL SUB AND DUP4 MSTORE SWAP1 DUP3 ADD SWAP3 SWAP1 SWAP3 MSTORE ADD PUSH1 0x0 KECCAK256 PUSH1 0x4 ADD DUP1 SLOAD PUSH1 0xFF NOT AND SWAP2 ISZERO ISZERO SWAP2 SWAP1 SWAP2 OR SWAP1 SSTORE POP POP JUMP JUMPDEST PUSH1 0xC DUP2 DUP2 SLOAD DUP2 LT PUSH2 0x105F JUMPI PUSH1 0x0 DUP1 REVERT JUMPDEST PUSH1 0x0 SWAP2 DUP3 MSTORE PUSH1 0x20 SWAP1 SWAP2 KECCAK256 PUSH1 0x3 SWAP1 SWAP2 MUL ADD DUP1 SLOAD PUSH1 0x1 DUP3 ADD DUP1 SLOAD PUSH1 0x1 PUSH1 0x1 PUSH1 0xA0 SHL SUB SWAP1 SWAP3 AND SWAP4 POP SWAP1 PUSH2 0x108E SWAP1 PUSH2 0x235A JUMP JUMPDEST DUP1 PUSH1 0x1F ADD PUSH1 0x20 DUP1 SWAP2 DIV MUL PUSH1 0x20 ADD PUSH1 0x40 MLOAD SWAP1 DUP2 ADD PUSH1 0x40 MSTORE DUP1 SWAP3 SWAP2 SWAP1 DUP2 DUP2 MSTORE PUSH1 0x20 ADD DUP3 DUP1 SLOAD PUSH2 0x10BA SWAP1 PUSH2 0x235A JUMP JUMPDEST DUP1 ISZERO PUSH2 0x1107 JUMPI DUP1 PUSH1 0x1F LT PUSH2 0x10DC JUMPI PUSH2 0x100 DUP1 DUP4 SLOAD DIV MUL DUP4 MSTORE SWAP2 PUSH1 0x20 ADD SWAP2 PUSH2 0x1107 JUMP JUMPDEST DUP3 ADD SWAP2 SWAP1 PUSH1 0x0 MSTORE PUSH1 0x20 PUSH1 0x0 KECCAK256 SWAP1 JUMPDEST DUP2 SLOAD DUP2 MSTORE SWAP1 PUSH1 0x1 ADD SWAP1 PUSH1 0x20 ADD DUP1 DUP4 GT PUSH2 0x10EA JUMPI DUP3 SWAP1 SUB PUSH1 0x1F AND DUP3 ADD SWAP2 JUMPDEST POP POP POP PUSH1 0x2 SWAP1 SWAP4 ADD SLOAD SWAP2 SWAP3 POP POP PUSH1 0xFF AND DUP4 JUMP JUMPDEST PUSH1 0x0 DUP2 PUSH1 0x40 MLOAD PUSH1 0x20 ADD PUSH2 0x112D SWAP2 SWAP1 PUSH2 0x2052 JUMP JUMPDEST PUSH1 0x40 MLOAD PUSH1 0x20 DUP2 DUP4 SUB SUB DUP2 MSTORE SWAP1 PUSH1 0x40 MSTORE DUP1 MLOAD SWAP1 PUSH1 0x20 ADD KECCAK256 SWAP1 POP SWAP2 SWAP1 POP JUMP JUMPDEST PUSH1 0x4 PUSH1 0x20 MSTORE PUSH1 0x0 SWAP1 DUP2 MSTORE PUSH1 0x40 SWAP1 KECCAK256 DUP1 SLOAD DUP2 SWAP1 PUSH2 0x1165 SWAP1 PUSH2 0x235A JUMP JUMPDEST DUP1 PUSH1 0x1F ADD PUSH1 0x20 DUP1 SWAP2 DIV MUL PUSH1 0x20 ADD PUSH1 0x40 MLOAD SWAP1 DUP2 ADD PUSH1 0x40 MSTORE DUP1 SWAP3 SWAP2 SWAP1 DUP2 DUP2 MSTORE PUSH1 0x20 ADD DUP3 DUP1 SLOAD PUSH2 0x1191 SWAP1 PUSH2 0x235A JUMP JUMPDEST DUP1 ISZERO PUSH2 0x11DE JUMPI DUP1 PUSH1 0x1F LT PUSH2 0x11B3 JUMPI PUSH2 0x100 DUP1 DUP4 SLOAD DIV MUL DUP4 MSTORE SWAP2 PUSH1 0x20 ADD SWAP2 PUSH2 0x11DE JUMP JUMPDEST DUP3 ADD SWAP2 SWAP1 PUSH1 0x0 MSTORE PUSH1 0x20 PUSH1 0x0 KECCAK256 SWAP1 JUMPDEST DUP2 SLOAD DUP2 MSTORE SWAP1 PUSH1 0x1 ADD SWAP1 PUSH1 0x20 ADD DUP1 DUP4 GT PUSH2 0x11C1 JUMPI DUP3 SWAP1 SUB PUSH1 0x1F AND DUP3 ADD SWAP2 JUMPDEST POP POP POP POP PUSH1 0x1 DUP4 ADD SLOAD PUSH1 0x2 DUP5 ADD SLOAD PUSH1 0x3 DUP6 ADD SLOAD PUSH1 0x4 SWAP1 SWAP6 ADD SLOAD SWAP4 SWAP5 SWAP2 SWAP4 SWAP1 SWAP3 POP PUSH1 0xFF AND DUP6 JUMP JUMPDEST PUSH1 0x0 DUP1 DUP1 DUP1 JUMPDEST PUSH1 0x2 SLOAD DUP2 LT ISZERO PUSH2 0x13EF JUMPI PUSH1 0x0 PUSH1 0x2 DUP3 DUP2 SLOAD DUP2 LT PUSH2 0x1229 JUMPI PUSH2 0x1229 PUSH2 0x23C6 JUMP JUMPDEST SWAP1 PUSH1 0x0 MSTORE PUSH1 0x20 PUSH1 0x0 KECCAK256 ADD DUP1 SLOAD PUSH2 0x123E SWAP1 PUSH2 0x235A JUMP JUMPDEST DUP1 PUSH1 0x1F ADD PUSH1 0x20 DUP1 SWAP2 DIV MUL PUSH1 0x20 ADD PUSH1 0x40 MLOAD SWAP1 DUP2 ADD PUSH1 0x40 MSTORE DUP1 SWAP3 SWAP2 SWAP1 DUP2 DUP2 MSTORE PUSH1 0x20 ADD DUP3 DUP1 SLOAD PUSH2 0x126A SWAP1 PUSH2 0x235A JUMP JUMPDEST DUP1 ISZERO PUSH2 0x12B7 JUMPI DUP1 PUSH1 0x1F LT PUSH2 0x128C JUMPI PUSH2 0x100 DUP1 DUP4 SLOAD DIV MUL DUP4 MSTORE SWAP2 PUSH1 0x20 ADD SWAP2 PUSH2 0x12B7 JUMP JUMPDEST DUP3 ADD SWAP2 SWAP1 PUSH1 0x0 MSTORE PUSH1 0x20 PUSH1 0x0 KECCAK256 SWAP1 JUMPDEST DUP2 SLOAD DUP2 MSTORE SWAP1 PUSH1 0x1 ADD SWAP1 PUSH1 0x20 ADD DUP1 DUP4 GT PUSH2 0x129A JUMPI DUP3 SWAP1 SUB PUSH1 0x1F AND DUP3 ADD SWAP2 JUMPDEST POP POP POP POP POP SWAP1 POP DUP6 PUSH1 0x40 MLOAD PUSH1 0x20 ADD PUSH2 0x12CF SWAP2 SWAP1 PUSH2 0x2052 JUMP JUMPDEST PUSH1 0x40 MLOAD PUSH1 0x20 DUP2 DUP4 SUB SUB DUP2 MSTORE SWAP1 PUSH1 0x40 MSTORE DUP1 MLOAD SWAP1 PUSH1 0x20 ADD KECCAK256 DUP2 PUSH1 0x40 MLOAD PUSH1 0x20 ADD PUSH2 0x12F6 SWAP2 SWAP1 PUSH2 0x2052 JUMP JUMPDEST PUSH1 0x40 MLOAD PUSH1 0x20 DUP2 DUP4 SUB SUB DUP2 MSTORE SWAP1 PUSH1 0x40 MSTORE DUP1 MLOAD SWAP1 PUSH1 0x20 ADD KECCAK256 EQ ISZERO PUSH2 0x13DC JUMPI PUSH1 0x0 SWAP2 POP JUMPDEST PUSH1 0x3 SLOAD DUP3 GT PUSH2 0x13DC JUMPI PUSH1 0x3 DUP3 DUP2 SLOAD DUP2 LT PUSH2 0x1333 JUMPI PUSH2 0x1333 PUSH2 0x23C6 JUMP JUMPDEST SWAP1 PUSH1 0x0 MSTORE PUSH1 0x20 PUSH1 0x0 KECCAK256 SWAP1 PUSH1 0x5 MUL ADD PUSH1 0x0 ADD PUSH1 0x40 MLOAD PUSH1 0x20 ADD PUSH2 0x1354 SWAP2 SWAP1 PUSH2 0x206E JUMP JUMPDEST PUSH1 0x40 MLOAD PUSH1 0x20 DUP2 DUP4 SUB SUB DUP2 MSTORE SWAP1 PUSH1 0x40 MSTORE DUP1 MLOAD SWAP1 PUSH1 0x20 ADD KECCAK256 DUP7 PUSH1 0x40 MLOAD PUSH1 0x20 ADD PUSH2 0x137B SWAP2 SWAP1 PUSH2 0x2052 JUMP JUMPDEST PUSH1 0x40 MLOAD PUSH1 0x20 DUP2 DUP4 SUB SUB DUP2 MSTORE SWAP1 PUSH1 0x40 MSTORE DUP1 MLOAD SWAP1 PUSH1 0x20 ADD KECCAK256 EQ ISZERO PUSH2 0x13CA JUMPI PUSH1 0x3 DUP3 DUP2 SLOAD DUP2 LT PUSH2 0x13AA JUMPI PUSH2 0x13AA PUSH2 0x23C6 JUMP JUMPDEST SWAP1 PUSH1 0x0 MSTORE PUSH1 0x20 PUSH1 0x0 KECCAK256 SWAP1 PUSH1 0x5 MUL ADD PUSH1 0x3 ADD SLOAD DUP4 PUSH2 0x13C7 SWAP2 SWAP1 PUSH2 0x22DD JUMP JUMPDEST SWAP3 POP JUMPDEST DUP2 PUSH2 0x13D4 DUP2 PUSH2 0x2395 JUMP JUMPDEST SWAP3 POP POP PUSH2 0x1317 JUMP JUMPDEST POP DUP1 PUSH2 0x13E7 DUP2 PUSH2 0x2395 JUMP JUMPDEST SWAP2 POP POP PUSH2 0x120A JUMP JUMPDEST POP PUSH2 0x13FA DUP3 DUP3 PUSH2 0x22F5 JUMP JUMPDEST PUSH2 0x1404 SWAP1 DUP3 PUSH2 0x22DD JUMP JUMPDEST SWAP5 SWAP4 POP POP POP POP JUMP JUMPDEST PUSH1 0xB DUP2 DUP2 SLOAD DUP2 LT PUSH2 0x105F JUMPI PUSH1 0x0 DUP1 REVERT JUMPDEST PUSH1 0x40 DUP1 MLOAD PUSH1 0x60 DUP2 ADD DUP3 MSTORE CALLER DUP2 MSTORE PUSH1 0x20 DUP1 DUP3 ADD DUP5 DUP2 MSTORE PUSH1 0x1 SWAP4 DUP4 ADD DUP5 SWAP1 MSTORE PUSH1 0xB DUP1 SLOAD SWAP5 DUP6 ADD DUP2 SSTORE PUSH1 0x0 MSTORE DUP3 MLOAD PUSH32 0x175B7A638427703F0DBE7BB9BBF987A2551717B34E79F33B5B1008D1FA01DB9 PUSH1 0x3 SWAP1 SWAP6 MUL SWAP5 DUP6 ADD DUP1 SLOAD PUSH1 0x1 PUSH1 0x1 PUSH1 0xA0 SHL SUB NOT AND PUSH1 0x1 PUSH1 0x1 PUSH1 0xA0 SHL SUB SWAP1 SWAP3 AND SWAP2 SWAP1 SWAP2 OR DUP2 SSTORE SWAP1 MLOAD DUP1 MLOAD SWAP4 SWAP5 SWAP2 SWAP4 PUSH2 0x910 SWAP4 PUSH32 0x175B7A638427703F0DBE7BB9BBF987A2551717B34E79F33B5B1008D1FA01DBA SWAP1 SWAP4 ADD SWAP3 SWAP2 SWAP1 SWAP2 ADD SWAP1 PUSH2 0x1B61 JUMP JUMPDEST PUSH1 0x60 PUSH1 0x2 DUP1 SLOAD DUP1 PUSH1 0x20 MUL PUSH1 0x20 ADD PUSH1 0x40 MLOAD SWAP1 DUP2 ADD PUSH1 0x40 MSTORE DUP1 SWAP3 SWAP2 SWAP1 DUP2 DUP2 MSTORE PUSH1 0x20 ADD PUSH1 0x0 SWAP1 JUMPDEST DUP3 DUP3 LT ISZERO PUSH2 0xD47 JUMPI DUP4 DUP3 SWAP1 PUSH1 0x0 MSTORE PUSH1 0x20 PUSH1 0x0 KECCAK256 ADD DUP1 SLOAD PUSH2 0x150B SWAP1 PUSH2 0x235A JUMP JUMPDEST DUP1 PUSH1 0x1F ADD PUSH1 0x20 DUP1 SWAP2 DIV MUL PUSH1 0x20 ADD PUSH1 0x40 MLOAD SWAP1 DUP2 ADD PUSH1 0x40 MSTORE DUP1 SWAP3 SWAP2 SWAP1 DUP2 DUP2 MSTORE PUSH1 0x20 ADD DUP3 DUP1 SLOAD PUSH2 0x1537 SWAP1 PUSH2 0x235A JUMP JUMPDEST DUP1 ISZERO PUSH2 0x1584 JUMPI DUP1 PUSH1 0x1F LT PUSH2 0x1559 JUMPI PUSH2 0x100 DUP1 DUP4 SLOAD DIV MUL DUP4 MSTORE SWAP2 PUSH1 0x20 ADD SWAP2 PUSH2 0x1584 JUMP JUMPDEST DUP3 ADD SWAP2 SWAP1 PUSH1 0x0 MSTORE PUSH1 0x20 PUSH1 0x0 KECCAK256 SWAP1 JUMPDEST DUP2 SLOAD DUP2 MSTORE SWAP1 PUSH1 0x1 ADD SWAP1 PUSH1 0x20 ADD DUP1 DUP4 GT PUSH2 0x1567 JUMPI DUP3 SWAP1 SUB PUSH1 0x1F AND DUP3 ADD SWAP2 JUMPDEST POP POP POP POP POP DUP2 MSTORE PUSH1 0x20 ADD SWAP1 PUSH1 0x1 ADD SWAP1 PUSH2 0x14EC JUMP JUMPDEST PUSH1 0xA DUP2 GT ISZERO PUSH2 0x15F3 JUMPI PUSH1 0x40 MLOAD PUSH3 0x461BCD PUSH1 0xE5 SHL DUP2 MSTORE PUSH1 0x20 PUSH1 0x4 DUP3 ADD MSTORE PUSH1 0x21 PUSH1 0x24 DUP3 ADD MSTORE PUSH32 0x6572726F723A20726174696E672063616E2062652066726F6D203120746F2031 PUSH1 0x44 DUP3 ADD MSTORE PUSH1 0x3 PUSH1 0xFC SHL PUSH1 0x64 DUP3 ADD MSTORE PUSH1 0x84 ADD PUSH2 0x6BE JUMP JUMPDEST PUSH1 0x0 JUMPDEST PUSH1 0x2 SLOAD DUP2 GT PUSH2 0x1866 JUMPI PUSH1 0x0 PUSH1 0x2 DUP3 DUP2 SLOAD DUP2 LT PUSH2 0x1614 JUMPI PUSH2 0x1614 PUSH2 0x23C6 JUMP JUMPDEST SWAP1 PUSH1 0x0 MSTORE PUSH1 0x20 PUSH1 0x0 KECCAK256 ADD DUP1 SLOAD PUSH2 0x1629 SWAP1 PUSH2 0x235A JUMP JUMPDEST DUP1 PUSH1 0x1F ADD PUSH1 0x20 DUP1 SWAP2 DIV MUL PUSH1 0x20 ADD PUSH1 0x40 MLOAD SWAP1 DUP2 ADD PUSH1 0x40 MSTORE DUP1 SWAP3 SWAP2 SWAP1 DUP2 DUP2 MSTORE PUSH1 0x20 ADD DUP3 DUP1 SLOAD PUSH2 0x1655 SWAP1 PUSH2 0x235A JUMP JUMPDEST DUP1 ISZERO PUSH2 0x16A2 JUMPI DUP1 PUSH1 0x1F LT PUSH2 0x1677 JUMPI PUSH2 0x100 DUP1 DUP4 SLOAD DIV MUL DUP4 MSTORE SWAP2 PUSH1 0x20 ADD SWAP2 PUSH2 0x16A2 JUMP JUMPDEST DUP3 ADD SWAP2 SWAP1 PUSH1 0x0 MSTORE PUSH1 0x20 PUSH1 0x0 KECCAK256 SWAP1 JUMPDEST DUP2 SLOAD DUP2 MSTORE SWAP1 PUSH1 0x1 ADD SWAP1 PUSH1 0x20 ADD DUP1 DUP4 GT PUSH2 0x1685 JUMPI DUP3 SWAP1 SUB PUSH1 0x1F AND DUP3 ADD SWAP2 JUMPDEST POP POP POP POP POP SWAP1 POP DUP5 PUSH1 0x40 MLOAD PUSH1 0x20 ADD PUSH2 0x16BA SWAP2 SWAP1 PUSH2 0x2052 JUMP JUMPDEST PUSH1 0x40 MLOAD PUSH1 0x20 DUP2 DUP4 SUB SUB DUP2 MSTORE SWAP1 PUSH1 0x40 MSTORE DUP1 MLOAD SWAP1 PUSH1 0x20 ADD KECCAK256 DUP2 PUSH1 0x40 MLOAD PUSH1 0x20 ADD PUSH2 0x16E1 SWAP2 SWAP1 PUSH2 0x2052 JUMP JUMPDEST PUSH1 0x40 MLOAD PUSH1 0x20 DUP2 DUP4 SUB SUB DUP2 MSTORE SWAP1 PUSH1 0x40 MSTORE DUP1 MLOAD SWAP1 PUSH1 0x20 ADD KECCAK256 EQ ISZERO PUSH2 0x1853 JUMPI PUSH1 0x40 DUP1 MLOAD PUSH1 0xA0 DUP2 ADD DUP3 MSTORE DUP7 DUP2 MSTORE CALLER PUSH1 0x0 SWAP1 DUP2 MSTORE PUSH1 0x4 PUSH1 0x20 SWAP1 DUP2 MSTORE SWAP3 SWAP1 KECCAK256 DUP1 SLOAD PUSH1 0x60 SWAP4 PUSH1 0x3 SWAP4 SWAP3 SWAP1 DUP4 ADD SWAP2 PUSH2 0x1730 SWAP1 PUSH2 0x235A JUMP JUMPDEST DUP1 PUSH1 0x1F ADD PUSH1 0x20 DUP1 SWAP2 DIV MUL PUSH1 0x20 ADD PUSH1 0x40 MLOAD SWAP1 DUP2 ADD PUSH1 0x40 MSTORE DUP1 SWAP3 SWAP2 SWAP1 DUP2 DUP2 MSTORE PUSH1 0x20 ADD DUP3 DUP1 SLOAD PUSH2 0x175C SWAP1 PUSH2 0x235A JUMP JUMPDEST DUP1 ISZERO PUSH2 0x17A9 JUMPI DUP1 PUSH1 0x1F LT PUSH2 0x177E JUMPI PUSH2 0x100 DUP1 DUP4 SLOAD DIV MUL DUP4 MSTORE SWAP2 PUSH1 0x20 ADD SWAP2 PUSH2 0x17A9 JUMP JUMPDEST DUP3 ADD SWAP2 SWAP1 PUSH1 0x0 MSTORE PUSH1 0x20 PUSH1 0x0 KECCAK256 SWAP1 JUMPDEST DUP2 SLOAD DUP2 MSTORE SWAP1 PUSH1 0x1 ADD SWAP1 PUSH1 0x20 ADD DUP1 DUP4 GT PUSH2 0x178C JUMPI DUP3 SWAP1 SUB PUSH1 0x1F AND DUP3 ADD SWAP2 JUMPDEST POP POP POP SWAP2 DUP4 MSTORE POP POP PUSH1 0x20 DUP1 DUP3 ADD DUP10 SWAP1 MSTORE PUSH1 0x40 DUP3 ADD DUP9 SWAP1 MSTORE PUSH1 0x60 SWAP1 SWAP2 ADD DUP5 SWAP1 MSTORE DUP3 SLOAD PUSH1 0x1 DUP2 ADD DUP5 SSTORE PUSH1 0x0 SWAP4 DUP5 MSTORE SWAP3 DUP2 SWAP1 KECCAK256 DUP3 MLOAD DUP1 MLOAD SWAP4 SWAP5 PUSH1 0x5 MUL SWAP1 SWAP2 ADD SWAP3 PUSH2 0x17F3 SWAP3 DUP5 SWAP3 ADD SWAP1 PUSH2 0x1B61 JUMP JUMPDEST POP PUSH1 0x20 DUP3 DUP2 ADD MLOAD DUP1 MLOAD PUSH2 0x180C SWAP3 PUSH1 0x1 DUP6 ADD SWAP3 ADD SWAP1 PUSH2 0x1B61 JUMP JUMPDEST POP PUSH1 0x40 DUP3 ADD MLOAD DUP1 MLOAD PUSH2 0x1828 SWAP2 PUSH1 0x2 DUP5 ADD SWAP2 PUSH1 0x20 SWAP1 SWAP2 ADD SWAP1 PUSH2 0x1B61 JUMP JUMPDEST POP PUSH1 0x60 DUP3 ADD MLOAD PUSH1 0x3 DUP3 ADD SSTORE PUSH1 0x80 DUP3 ADD MLOAD DUP1 MLOAD PUSH2 0x184E SWAP2 PUSH1 0x4 DUP5 ADD SWAP2 PUSH1 0x20 SWAP1 SWAP2 ADD SWAP1 PUSH2 0x1BE5 JUMP JUMPDEST POP POP POP POP JUMPDEST POP DUP1 PUSH2 0x185E DUP2 PUSH2 0x2395 JUMP JUMPDEST SWAP2 POP POP PUSH2 0x15F6 JUMP JUMPDEST POP POP POP POP JUMP JUMPDEST PUSH1 0x4 PUSH1 0x0 PUSH1 0x5 DUP5 PUSH1 0x40 MLOAD PUSH2 0x1880 SWAP2 SWAP1 PUSH2 0x2052 JUMP JUMPDEST SWAP1 DUP2 MSTORE PUSH1 0x40 DUP1 MLOAD PUSH1 0x20 SWAP3 DUP2 SWAP1 SUB DUP4 ADD SWAP1 KECCAK256 SLOAD PUSH1 0x1 PUSH1 0x1 PUSH1 0xA0 SHL SUB AND DUP4 MSTORE SWAP1 DUP3 ADD SWAP3 SWAP1 SWAP3 MSTORE ADD PUSH1 0x0 KECCAK256 PUSH1 0x4 ADD SLOAD PUSH1 0xFF AND ISZERO PUSH2 0x18CC JUMPI PUSH1 0x40 MLOAD PUSH3 0x461BCD PUSH1 0xE5 SHL DUP2 MSTORE PUSH1 0x4 ADD PUSH2 0x6BE SWAP1 PUSH2 0x2276 JUMP JUMPDEST PUSH1 0x0 PUSH1 0x1 PUSH1 0x1 PUSH1 0xA0 SHL SUB AND PUSH1 0x5 DUP4 PUSH1 0x40 MLOAD PUSH2 0x18E7 SWAP2 SWAP1 PUSH2 0x2052 JUMP JUMPDEST SWAP1 DUP2 MSTORE PUSH1 0x40 MLOAD SWAP1 DUP2 SWAP1 SUB PUSH1 0x20 ADD SWAP1 KECCAK256 SLOAD PUSH1 0x1 PUSH1 0x1 PUSH1 0xA0 SHL SUB AND EQ ISZERO PUSH2 0x191E JUMPI PUSH1 0x40 MLOAD PUSH3 0x461BCD PUSH1 0xE5 SHL DUP2 MSTORE PUSH1 0x4 ADD PUSH2 0x6BE SWAP1 PUSH2 0x2243 JUMP JUMPDEST DUP1 PUSH1 0x4 PUSH1 0x0 PUSH1 0x5 DUP6 PUSH1 0x40 MLOAD PUSH2 0x1933 SWAP2 SWAP1 PUSH2 0x2052 JUMP JUMPDEST SWAP1 DUP2 MSTORE PUSH1 0x40 DUP1 MLOAD PUSH1 0x20 SWAP3 DUP2 SWAP1 SUB DUP4 ADD SWAP1 KECCAK256 SLOAD PUSH1 0x1 PUSH1 0x1 PUSH1 0xA0 SHL SUB AND DUP4 MSTORE SWAP1 DUP3 ADD SWAP3 SWAP1 SWAP3 MSTORE ADD PUSH1 0x0 KECCAK256 PUSH1 0x1 ADD SLOAD EQ PUSH2 0x197C JUMPI PUSH1 0x40 MLOAD PUSH3 0x461BCD PUSH1 0xE5 SHL DUP2 MSTORE PUSH1 0x4 ADD PUSH2 0x6BE SWAP1 PUSH2 0x2212 JUMP JUMPDEST PUSH1 0x1 PUSH1 0x4 PUSH1 0x0 PUSH1 0x5 DUP6 PUSH1 0x40 MLOAD PUSH2 0x1011 SWAP2 SWAP1 PUSH2 0x2052 JUMP JUMPDEST DUP1 MLOAD PUSH1 0x20 DUP2 DUP4 ADD DUP2 ADD DUP1 MLOAD PUSH1 0x8 DUP3 MSTORE SWAP3 DUP3 ADD SWAP2 SWAP1 SWAP4 ADD KECCAK256 SWAP2 MSTORE DUP1 SLOAD PUSH1 0x1 DUP3 ADD DUP1 SLOAD PUSH1 0x1 PUSH1 0x1 PUSH1 0xA0 SHL SUB SWAP1 SWAP3 AND SWAP3 SWAP2 PUSH2 0x19C9 SWAP1 PUSH2 0x235A JUMP JUMPDEST DUP1 PUSH1 0x1F ADD PUSH1 0x20 DUP1 SWAP2 DIV MUL PUSH1 0x20 ADD PUSH1 0x40 MLOAD SWAP1 DUP2 ADD PUSH1 0x40 MSTORE DUP1 SWAP3 SWAP2 SWAP1 DUP2 DUP2 MSTORE PUSH1 0x20 ADD DUP3 DUP1 SLOAD PUSH2 0x19F5 SWAP1 PUSH2 0x235A JUMP JUMPDEST DUP1 ISZERO PUSH2 0x1A42 JUMPI DUP1 PUSH1 0x1F LT PUSH2 0x1A17 JUMPI PUSH2 0x100 DUP1 DUP4 SLOAD DIV MUL DUP4 MSTORE SWAP2 PUSH1 0x20 ADD SWAP2 PUSH2 0x1A42 JUMP JUMPDEST DUP3 ADD SWAP2 SWAP1 PUSH1 0x0 MSTORE PUSH1 0x20 PUSH1 0x0 KECCAK256 SWAP1 JUMPDEST DUP2 SLOAD DUP2 MSTORE SWAP1 PUSH1 0x1 ADD SWAP1 PUSH1 0x20 ADD DUP1 DUP4 GT PUSH2 0x1A25 JUMPI DUP3 SWAP1 SUB PUSH1 0x1F AND DUP3 ADD SWAP2 JUMPDEST POP POP POP POP POP SWAP1 DUP1 PUSH1 0x2 ADD SLOAD SWAP1 DUP1 PUSH1 0x3 ADD SLOAD SWAP1 POP DUP5 JUMP JUMPDEST PUSH1 0xA DUP2 DUP2 SLOAD DUP2 LT PUSH2 0x105F JUMPI PUSH1 0x0 DUP1 REVERT JUMPDEST PUSH1 0x1 DUP2 ISZERO ISZERO EQ ISZERO PUSH2 0xBB6 JUMPI PUSH1 0x8 PUSH1 0xC DUP4 DUP2 SLOAD DUP2 LT PUSH2 0x1A88 JUMPI PUSH2 0x1A88 PUSH2 0x23C6 JUMP JUMPDEST SWAP1 PUSH1 0x0 MSTORE PUSH1 0x20 PUSH1 0x0 KECCAK256 SWAP1 PUSH1 0x3 MUL ADD PUSH1 0x1 ADD PUSH1 0x40 MLOAD PUSH2 0x1AA6 SWAP2 SWAP1 PUSH2 0x206E JUMP JUMPDEST SWAP1 DUP2 MSTORE PUSH1 0x20 ADD PUSH1 0x40 MLOAD DUP1 SWAP2 SUB SWAP1 KECCAK256 PUSH1 0x2 ADD SLOAD PUSH1 0x4 PUSH1 0x0 PUSH1 0xC DUP6 DUP2 SLOAD DUP2 LT PUSH2 0x1ACF JUMPI PUSH2 0x1ACF PUSH2 0x23C6 JUMP JUMPDEST PUSH1 0x0 SWAP2 DUP3 MSTORE PUSH1 0x20 DUP1 DUP4 KECCAK256 PUSH1 0x3 SWAP1 SWAP3 MUL SWAP1 SWAP2 ADD SLOAD PUSH1 0x1 PUSH1 0x1 PUSH1 0xA0 SHL SUB AND DUP4 MSTORE DUP3 ADD SWAP3 SWAP1 SWAP3 MSTORE PUSH1 0x40 ADD SWAP1 KECCAK256 PUSH1 0x2 ADD SLOAD PUSH2 0x1B06 SWAP2 SWAP1 PUSH2 0x22DD JUMP JUMPDEST PUSH1 0x4 PUSH1 0x0 PUSH1 0xC DUP6 DUP2 SLOAD DUP2 LT PUSH2 0x1B1D JUMPI PUSH2 0x1B1D PUSH2 0x23C6 JUMP JUMPDEST PUSH1 0x0 SWAP2 DUP3 MSTORE PUSH1 0x20 DUP1 DUP4 KECCAK256 PUSH1 0x3 SWAP1 SWAP3 MUL SWAP1 SWAP2 ADD SLOAD PUSH1 0x1 PUSH1 0x1 PUSH1 0xA0 SHL SUB AND DUP4 MSTORE DUP3 ADD SWAP3 SWAP1 SWAP3 MSTORE PUSH1 0x40 ADD DUP2 KECCAK256 PUSH1 0x2 ADD SWAP2 SWAP1 SWAP2 SSTORE PUSH1 0xB DUP1 SLOAD DUP5 SWAP1 DUP2 LT PUSH2 0x61F JUMPI PUSH2 0x61F PUSH2 0x23C6 JUMP JUMPDEST DUP3 DUP1 SLOAD PUSH2 0x1B6D SWAP1 PUSH2 0x235A JUMP JUMPDEST SWAP1 PUSH1 0x0 MSTORE PUSH1 0x20 PUSH1 0x0 KECCAK256 SWAP1 PUSH1 0x1F ADD PUSH1 0x20 SWAP1 DIV DUP2 ADD SWAP3 DUP3 PUSH2 0x1B8F JUMPI PUSH1 0x0 DUP6 SSTORE PUSH2 0x1BD5 JUMP JUMPDEST DUP3 PUSH1 0x1F LT PUSH2 0x1BA8 JUMPI DUP1 MLOAD PUSH1 0xFF NOT AND DUP4 DUP1 ADD OR DUP6 SSTORE PUSH2 0x1BD5 JUMP JUMPDEST DUP3 DUP1 ADD PUSH1 0x1 ADD DUP6 SSTORE DUP3 ISZERO PUSH2 0x1BD5 JUMPI SWAP2 DUP3 ADD JUMPDEST DUP3 DUP2 GT ISZERO PUSH2 0x1BD5 JUMPI DUP3 MLOAD DUP3 SSTORE SWAP2 PUSH1 0x20 ADD SWAP2 SWAP1 PUSH1 0x1 ADD SWAP1 PUSH2 0x1BBA JUMP JUMPDEST POP PUSH2 0x1BE1 SWAP3 SWAP2 POP PUSH2 0x1C3E JUMP JUMPDEST POP SWAP1 JUMP JUMPDEST DUP3 DUP1 SLOAD DUP3 DUP3 SSTORE SWAP1 PUSH1 0x0 MSTORE PUSH1 0x20 PUSH1 0x0 KECCAK256 SWAP1 DUP2 ADD SWAP3 DUP3 ISZERO PUSH2 0x1C32 JUMPI SWAP2 PUSH1 0x20 MUL DUP3 ADD JUMPDEST DUP3 DUP2 GT ISZERO PUSH2 0x1C32 JUMPI DUP3 MLOAD DUP1 MLOAD PUSH2 0x1C22 SWAP2 DUP5 SWAP2 PUSH1 0x20 SWAP1 SWAP2 ADD SWAP1 PUSH2 0x1B61 JUMP JUMPDEST POP SWAP2 PUSH1 0x20 ADD SWAP2 SWAP1 PUSH1 0x1 ADD SWAP1 PUSH2 0x1C05 JUMP JUMPDEST POP PUSH2 0x1BE1 SWAP3 SWAP2 POP PUSH2 0x1C53 JUMP JUMPDEST JUMPDEST DUP1 DUP3 GT ISZERO PUSH2 0x1BE1 JUMPI PUSH1 0x0 DUP2 SSTORE PUSH1 0x1 ADD PUSH2 0x1C3F JUMP JUMPDEST DUP1 DUP3 GT ISZERO PUSH2 0x1BE1 JUMPI PUSH1 0x0 PUSH2 0x1C67 DUP3 DUP3 PUSH2 0x1C70 JUMP JUMPDEST POP PUSH1 0x1 ADD PUSH2 0x1C53 JUMP JUMPDEST POP DUP1 SLOAD PUSH2 0x1C7C SWAP1 PUSH2 0x235A JUMP JUMPDEST PUSH1 0x0 DUP3 SSTORE DUP1 PUSH1 0x1F LT PUSH2 0x1C8C JUMPI POP POP JUMP JUMPDEST PUSH1 0x1F ADD PUSH1 0x20 SWAP1 DIV SWAP1 PUSH1 0x0 MSTORE PUSH1 0x20 PUSH1 0x0 KECCAK256 SWAP1 DUP2 ADD SWAP1 PUSH2 0x1CAA SWAP2 SWAP1 PUSH2 0x1C3E JUMP JUMPDEST POP JUMP JUMPDEST DUP1 CALLDATALOAD PUSH1 0x1 PUSH1 0x1 PUSH1 0xA0 SHL SUB DUP2 AND DUP2 EQ PUSH2 0x1CC4 JUMPI PUSH1 0x0 DUP1 REVERT JUMPDEST SWAP2 SWAP1 POP JUMP JUMPDEST PUSH1 0x0 DUP3 PUSH1 0x1F DUP4 ADD SLT PUSH2 0x1CDA JUMPI PUSH1 0x0 DUP1 REVERT JUMPDEST DUP2 CALLDATALOAD PUSH1 0x1 PUSH1 0x1 PUSH1 0x40 SHL SUB DUP2 GT ISZERO PUSH2 0x1CF3 JUMPI PUSH2 0x1CF3 PUSH2 0x23DC JUMP JUMPDEST PUSH2 0x1D06 PUSH1 0x1F DUP3 ADD PUSH1 0x1F NOT AND PUSH1 0x20 ADD PUSH2 0x22AD JUMP JUMPDEST DUP2 DUP2 MSTORE DUP5 PUSH1 0x20 DUP4 DUP7 ADD ADD GT ISZERO PUSH2 0x1D1B JUMPI PUSH1 0x0 DUP1 REVERT JUMPDEST DUP2 PUSH1 0x20 DUP6 ADD PUSH1 0x20 DUP4 ADD CALLDATACOPY PUSH1 0x0 SWAP2 DUP2 ADD PUSH1 0x20 ADD SWAP2 SWAP1 SWAP2 MSTORE SWAP4 SWAP3 POP POP POP JUMP JUMPDEST PUSH1 0x0 PUSH1 0x20 DUP3 DUP5 SUB SLT ISZERO PUSH2 0x1D4A JUMPI PUSH1 0x0 DUP1 REVERT JUMPDEST PUSH2 0x1D53 DUP3 PUSH2 0x1CAD JUMP JUMPDEST SWAP4 SWAP3 POP POP POP JUMP JUMPDEST PUSH1 0x0 DUP1 PUSH1 0x0 PUSH1 0x60 DUP5 DUP7 SUB SLT ISZERO PUSH2 0x1D6F JUMPI PUSH1 0x0 DUP1 REVERT JUMPDEST PUSH2 0x1D78 DUP5 PUSH2 0x1CAD JUMP JUMPDEST SWAP3 POP PUSH1 0x20 DUP5 ADD CALLDATALOAD PUSH1 0x1 PUSH1 0x1 PUSH1 0x40 SHL SUB DUP2 GT ISZERO PUSH2 0x1D93 JUMPI PUSH1 0x0 DUP1 REVERT JUMPDEST PUSH2 0x1D9F DUP7 DUP3 DUP8 ADD PUSH2 0x1CC9 JUMP JUMPDEST SWAP3 POP POP PUSH1 0x40 DUP5 ADD CALLDATALOAD SWAP1 POP SWAP3 POP SWAP3 POP SWAP3 JUMP JUMPDEST PUSH1 0x0 PUSH1 0x20 DUP3 DUP5 SUB SLT ISZERO PUSH2 0x1DC2 JUMPI PUSH1 0x0 DUP1 REVERT JUMPDEST DUP2 CALLDATALOAD PUSH1 0x1 PUSH1 0x1 PUSH1 0x40 SHL SUB DUP2 GT ISZERO PUSH2 0x1DD8 JUMPI PUSH1 0x0 DUP1 REVERT JUMPDEST PUSH2 0x1404 DUP5 DUP3 DUP6 ADD PUSH2 0x1CC9 JUMP JUMPDEST PUSH1 0x0 DUP1 PUSH1 0x40 DUP4 DUP6 SUB SLT ISZERO PUSH2 0x1DF7 JUMPI PUSH1 0x0 DUP1 REVERT JUMPDEST DUP3 CALLDATALOAD PUSH1 0x1 PUSH1 0x1 PUSH1 0x40 SHL SUB DUP1 DUP3 GT ISZERO PUSH2 0x1E0E JUMPI PUSH1 0x0 DUP1 REVERT JUMPDEST PUSH2 0x1E1A DUP7 DUP4 DUP8 ADD PUSH2 0x1CC9 JUMP JUMPDEST SWAP4 POP PUSH1 0x20 SWAP2 POP DUP2 DUP6 ADD CALLDATALOAD DUP2 DUP2 GT ISZERO PUSH2 0x1E31 JUMPI PUSH1 0x0 DUP1 REVERT JUMPDEST DUP6 ADD PUSH1 0x1F DUP2 ADD DUP8 SGT PUSH2 0x1E42 JUMPI PUSH1 0x0 DUP1 REVERT JUMPDEST DUP1 CALLDATALOAD DUP3 DUP2 GT ISZERO PUSH2 0x1E54 JUMPI PUSH2 0x1E54 PUSH2 0x23DC JUMP JUMPDEST DUP1 PUSH1 0x5 SHL PUSH2 0x1E63 DUP6 DUP3 ADD PUSH2 0x22AD JUMP JUMPDEST DUP3 DUP2 MSTORE DUP6 DUP2 ADD SWAP1 DUP5 DUP8 ADD DUP4 DUP7 ADD DUP9 ADD DUP13 LT ISZERO PUSH2 0x1E7E JUMPI PUSH1 0x0 DUP1 REVERT JUMPDEST PUSH1 0x0 SWAP4 POP DUP4 JUMPDEST DUP6 DUP2 LT ISZERO PUSH2 0x1EBB JUMPI DUP2 CALLDATALOAD DUP9 DUP2 GT ISZERO PUSH2 0x1E9A JUMPI DUP6 DUP7 REVERT JUMPDEST PUSH2 0x1EA8 DUP15 DUP12 DUP4 DUP12 ADD ADD PUSH2 0x1CC9 JUMP JUMPDEST DUP6 MSTORE POP SWAP3 DUP9 ADD SWAP3 SWAP1 DUP9 ADD SWAP1 PUSH1 0x1 ADD PUSH2 0x1E84 JUMP JUMPDEST POP SWAP9 SWAP12 SWAP1 SWAP11 POP SWAP9 POP POP POP POP POP POP POP POP POP JUMP JUMPDEST PUSH1 0x0 DUP1 PUSH1 0x40 DUP4 DUP6 SUB SLT ISZERO PUSH2 0x1EE0 JUMPI PUSH1 0x0 DUP1 REVERT JUMPDEST DUP3 CALLDATALOAD PUSH1 0x1 PUSH1 0x1 PUSH1 0x40 SHL SUB DUP2 GT ISZERO PUSH2 0x1EF6 JUMPI PUSH1 0x0 DUP1 REVERT JUMPDEST PUSH2 0x1F02 DUP6 DUP3 DUP7 ADD PUSH2 0x1CC9 JUMP JUMPDEST SWAP6 PUSH1 0x20 SWAP5 SWAP1 SWAP5 ADD CALLDATALOAD SWAP5 POP POP POP POP JUMP JUMPDEST PUSH1 0x0 DUP1 PUSH1 0x0 PUSH1 0x60 DUP5 DUP7 SUB SLT ISZERO PUSH2 0x1F26 JUMPI PUSH1 0x0 DUP1 REVERT JUMPDEST DUP4 CALLDATALOAD PUSH1 0x1 PUSH1 0x1 PUSH1 0x40 SHL SUB DUP1 DUP3 GT ISZERO PUSH2 0x1F3D JUMPI PUSH1 0x0 DUP1 REVERT JUMPDEST PUSH2 0x1F49 DUP8 DUP4 DUP9 ADD PUSH2 0x1CC9 JUMP JUMPDEST SWAP5 POP PUSH1 0x20 DUP7 ADD CALLDATALOAD SWAP2 POP DUP1 DUP3 GT ISZERO PUSH2 0x1F5F JUMPI PUSH1 0x0 DUP1 REVERT JUMPDEST POP PUSH2 0x1D9F DUP7 DUP3 DUP8 ADD PUSH2 0x1CC9 JUMP JUMPDEST PUSH1 0x0 DUP1 PUSH1 0x0 PUSH1 0x60 DUP5 DUP7 SUB SLT ISZERO PUSH2 0x1F81 JUMPI PUSH1 0x0 DUP1 REVERT JUMPDEST DUP4 CALLDATALOAD PUSH1 0x1 PUSH1 0x1 PUSH1 0x40 SHL SUB DUP1 DUP3 GT ISZERO PUSH2 0x1F98 JUMPI PUSH1 0x0 DUP1 REVERT JUMPDEST PUSH2 0x1FA4 DUP8 DUP4 DUP9 ADD PUSH2 0x1CC9 JUMP JUMPDEST SWAP5 POP PUSH1 0x20 DUP7 ADD CALLDATALOAD SWAP4 POP PUSH1 0x40 DUP7 ADD CALLDATALOAD SWAP2 POP DUP1 DUP3 GT ISZERO PUSH2 0x1FC1 JUMPI PUSH1 0x0 DUP1 REVERT JUMPDEST POP PUSH2 0x1FCE DUP7 DUP3 DUP8 ADD PUSH2 0x1CC9 JUMP JUMPDEST SWAP2 POP POP SWAP3 POP SWAP3 POP SWAP3 JUMP JUMPDEST PUSH1 0x0 PUSH1 0x20 DUP3 DUP5 SUB SLT ISZERO PUSH2 0x1FEA JUMPI PUSH1 0x0 DUP1 REVERT JUMPDEST POP CALLDATALOAD SWAP2 SWAP1 POP JUMP JUMPDEST PUSH1 0x0 DUP1 PUSH1 0x40 DUP4 DUP6 SUB SLT ISZERO PUSH2 0x2004 JUMPI PUSH1 0x0 DUP1 REVERT JUMPDEST DUP3 CALLDATALOAD SWAP2 POP PUSH1 0x20 DUP4 ADD CALLDATALOAD DUP1 ISZERO ISZERO DUP2 EQ PUSH2 0x201B JUMPI PUSH1 0x0 DUP1 REVERT JUMPDEST DUP1 SWAP2 POP POP SWAP3 POP SWAP3 SWAP1 POP JUMP JUMPDEST PUSH1 0x0 DUP2 MLOAD DUP1 DUP5 MSTORE PUSH2 0x203E DUP2 PUSH1 0x20 DUP7 ADD PUSH1 0x20 DUP7 ADD PUSH2 0x232E JUMP JUMPDEST PUSH1 0x1F ADD PUSH1 0x1F NOT AND SWAP3 SWAP1 SWAP3 ADD PUSH1 0x20 ADD SWAP3 SWAP2 POP POP JUMP JUMPDEST PUSH1 0x0 DUP3 MLOAD PUSH2 0x2064 DUP2 DUP5 PUSH1 0x20 DUP8 ADD PUSH2 0x232E JUMP JUMPDEST SWAP2 SWAP1 SWAP2 ADD SWAP3 SWAP2 POP POP JUMP JUMPDEST PUSH1 0x0 DUP1 DUP4 SLOAD DUP2 PUSH1 0x1 DUP3 DUP2 SHR SWAP2 POP DUP1 DUP4 AND DUP1 PUSH2 0x208A JUMPI PUSH1 0x7F DUP4 AND SWAP3 POP JUMPDEST PUSH1 0x20 DUP1 DUP5 LT DUP3 EQ ISZERO PUSH2 0x20AA JUMPI PUSH4 0x4E487B71 PUSH1 0xE0 SHL DUP7 MSTORE PUSH1 0x22 PUSH1 0x4 MSTORE PUSH1 0x24 DUP7 REVERT JUMPDEST DUP2 DUP1 ISZERO PUSH2 0x20BE JUMPI PUSH1 0x1 DUP2 EQ PUSH2 0x20CF JUMPI PUSH2 0x20FC JUMP JUMPDEST PUSH1 0xFF NOT DUP7 AND DUP10 MSTORE DUP5 DUP10 ADD SWAP7 POP PUSH2 0x20FC JUMP JUMPDEST PUSH1 0x0 DUP11 DUP2 MSTORE PUSH1 0x20 SWAP1 KECCAK256 PUSH1 0x0 JUMPDEST DUP7 DUP2 LT ISZERO PUSH2 0x20F4 JUMPI DUP2 SLOAD DUP12 DUP3 ADD MSTORE SWAP1 DUP6 ADD SWAP1 DUP4 ADD PUSH2 0x20DB JUMP JUMPDEST POP POP DUP5 DUP10 ADD SWAP7 POP JUMPDEST POP SWAP5 SWAP9 SWAP8 POP POP POP POP POP POP POP POP JUMP JUMPDEST PUSH1 0x1 PUSH1 0x1 PUSH1 0xA0 SHL SUB DUP5 AND DUP2 MSTORE PUSH1 0x60 PUSH1 0x20 DUP3 ADD DUP2 SWAP1 MSTORE PUSH1 0x0 SWAP1 PUSH2 0x212E SWAP1 DUP4 ADD DUP6 PUSH2 0x2026 JUMP JUMPDEST SWAP1 POP DUP3 ISZERO ISZERO PUSH1 0x40 DUP4 ADD MSTORE SWAP5 SWAP4 POP POP POP POP JUMP JUMPDEST PUSH1 0x1 PUSH1 0x1 PUSH1 0xA0 SHL SUB DUP6 AND DUP2 MSTORE PUSH1 0x80 PUSH1 0x20 DUP3 ADD DUP2 SWAP1 MSTORE PUSH1 0x0 SWAP1 PUSH2 0x2164 SWAP1 DUP4 ADD DUP7 PUSH2 0x2026 JUMP JUMPDEST PUSH1 0x40 DUP4 ADD SWAP5 SWAP1 SWAP5 MSTORE POP PUSH1 0x60 ADD MSTORE SWAP3 SWAP2 POP POP JUMP JUMPDEST PUSH1 0x0 PUSH1 0x20 DUP1 DUP4 ADD DUP2 DUP5 MSTORE DUP1 DUP6 MLOAD DUP1 DUP4 MSTORE PUSH1 0x40 DUP7 ADD SWAP2 POP PUSH1 0x40 DUP2 PUSH1 0x5 SHL DUP8 ADD ADD SWAP3 POP DUP4 DUP8 ADD PUSH1 0x0 JUMPDEST DUP3 DUP2 LT ISZERO PUSH2 0x21CC JUMPI PUSH1 0x3F NOT DUP9 DUP7 SUB ADD DUP5 MSTORE PUSH2 0x21BA DUP6 DUP4 MLOAD PUSH2 0x2026 JUMP JUMPDEST SWAP5 POP SWAP3 DUP6 ADD SWAP3 SWAP1 DUP6 ADD SWAP1 PUSH1 0x1 ADD PUSH2 0x219E JUMP JUMPDEST POP SWAP3 SWAP8 SWAP7 POP POP POP POP POP POP POP JUMP JUMPDEST PUSH1 0xA0 DUP2 MSTORE PUSH1 0x0 PUSH2 0x21EC PUSH1 0xA0 DUP4 ADD DUP9 PUSH2 0x2026 JUMP JUMPDEST SWAP1 POP DUP6 PUSH1 0x20 DUP4 ADD MSTORE DUP5 PUSH1 0x40 DUP4 ADD MSTORE DUP4 PUSH1 0x60 DUP4 ADD MSTORE DUP3 ISZERO ISZERO PUSH1 0x80 DUP4 ADD MSTORE SWAP7 SWAP6 POP POP POP POP POP POP JUMP JUMPDEST PUSH1 0x20 DUP1 DUP3 MSTORE PUSH1 0x17 SWAP1 DUP3 ADD MSTORE PUSH23 0x115C9C9BDC8E88125B9D985B1A59081C185CDCDDDBDC99 PUSH1 0x4A SHL PUSH1 0x40 DUP3 ADD MSTORE PUSH1 0x60 ADD SWAP1 JUMP JUMPDEST PUSH1 0x20 DUP1 DUP3 MSTORE PUSH1 0x19 SWAP1 DUP3 ADD MSTORE PUSH25 0x115C9C9BDC8E88155CD95C88191BD95CDB89DD08195E1A5CDD PUSH1 0x3A SHL PUSH1 0x40 DUP3 ADD MSTORE PUSH1 0x60 ADD SWAP1 JUMP JUMPDEST PUSH1 0x20 DUP1 DUP3 MSTORE PUSH1 0x1D SWAP1 DUP3 ADD MSTORE PUSH32 0x4572726F723A20596F752061726520616C7265616479206C6F67676564000000 PUSH1 0x40 DUP3 ADD MSTORE PUSH1 0x60 ADD SWAP1 JUMP JUMPDEST PUSH1 0x40 MLOAD PUSH1 0x1F DUP3 ADD PUSH1 0x1F NOT AND DUP2 ADD PUSH1 0x1 PUSH1 0x1 PUSH1 0x40 SHL SUB DUP2 GT DUP3 DUP3 LT OR ISZERO PUSH2 0x22D5 JUMPI PUSH2 0x22D5 PUSH2 0x23DC JUMP JUMPDEST PUSH1 0x40 MSTORE SWAP2 SWAP1 POP JUMP JUMPDEST PUSH1 0x0 DUP3 NOT DUP3 GT ISZERO PUSH2 0x22F0 JUMPI PUSH2 0x22F0 PUSH2 0x23B0 JUMP JUMPDEST POP ADD SWAP1 JUMP JUMPDEST PUSH1 0x0 DUP3 PUSH2 0x2312 JUMPI PUSH4 0x4E487B71 PUSH1 0xE0 SHL PUSH1 0x0 MSTORE PUSH1 0x12 PUSH1 0x4 MSTORE PUSH1 0x24 PUSH1 0x0 REVERT JUMPDEST POP DIV SWAP1 JUMP JUMPDEST PUSH1 0x0 DUP3 DUP3 LT ISZERO PUSH2 0x2329 JUMPI PUSH2 0x2329 PUSH2 0x23B0 JUMP JUMPDEST POP SUB SWAP1 JUMP JUMPDEST PUSH1 0x0 JUMPDEST DUP4 DUP2 LT ISZERO PUSH2 0x2349 JUMPI DUP2 DUP2 ADD MLOAD DUP4 DUP3 ADD MSTORE PUSH1 0x20 ADD PUSH2 0x2331 JUMP JUMPDEST DUP4 DUP2 GT ISZERO PUSH2 0x1866 JUMPI POP POP PUSH1 0x0 SWAP2 ADD MSTORE JUMP JUMPDEST PUSH1 0x1 DUP2 DUP2 SHR SWAP1 DUP3 AND DUP1 PUSH2 0x236E JUMPI PUSH1 0x7F DUP3 AND SWAP2 POP JUMPDEST PUSH1 0x20 DUP3 LT DUP2 EQ ISZERO PUSH2 0x238F JUMPI PUSH4 0x4E487B71 PUSH1 0xE0 SHL PUSH1 0x0 MSTORE PUSH1 0x22 PUSH1 0x4 MSTORE PUSH1 0x24 PUSH1 0x0 REVERT JUMPDEST POP SWAP2 SWAP1 POP JUMP JUMPDEST PUSH1 0x0 PUSH1 0x0 NOT DUP3 EQ ISZERO PUSH2 0x23A9 JUMPI PUSH2 0x23A9 PUSH2 0x23B0 JUMP JUMPDEST POP PUSH1 0x1 ADD SWAP1 JUMP JUMPDEST PUSH4 0x4E487B71 PUSH1 0xE0 SHL PUSH1 0x0 MSTORE PUSH1 0x11 PUSH1 0x4 MSTORE PUSH1 0x24 PUSH1 0x0 REVERT JUMPDEST PUSH4 0x4E487B71 PUSH1 0xE0 SHL PUSH1 0x0 MSTORE PUSH1 0x32 PUSH1 0x4 MSTORE PUSH1 0x24 PUSH1 0x0 REVERT JUMPDEST PUSH4 0x4E487B71 PUSH1 0xE0 SHL PUSH1 0x0 MSTORE PUSH1 0x41 PUSH1 0x4 MSTORE PUSH1 0x24 PUSH1 0x0 REVERT INVALID LOG2 PUSH5 0x6970667358 0x22 SLT KECCAK256 0x22 EXTCODESIZE STOP PUSH1 0x8E 0xB1 MSIZE 0x5F CALLCODE GASPRICE 0xDA SWAP14 0x5F PUSH7 0x639B341A1618D4 0xC0 0xD6 SWAP14 0xC2 0xE7 0x1E PUSH14 0xAD3B9AD064736F6C634300080700 CALLER BLOCKHASH JUMPI DUP8 STATICCALL SLT 0xA8 0x23 0xE0 CALLCODE 0xB7 PUSH4 0x1CC41B3B 0xA8 DUP3 DUP12 CALLER 0x21 0xCA DUP2 GT GT STATICCALL PUSH22 0xCD3AA3BB5ACEC49E92DEB93AC19463E0F89B887A2AB8 SHR PUSH12 0x5EADF7DC1BC8BD12CE4040F6 JUMP 0xFC 0x5C DUP4 0xA9 PUSH16 0xABBCC4E29B827AF3528E41DB71DD782 RETURNDATACOPY SDIV 0xE1 CALLDATACOPY 0x4C 0xD0 SWAP9 CALLDATALOAD BYTE CODESIZE 0xD PUSH32 0x0 "
				},
				"gasEstimates": {
					"creation": {
						"codeDepositCost": "1851200",
						"executionCost": "infinite",
						"totalCost": "infinite"
					},
					"external": {
						"MarriageRegistration(uint256,bool)": "infinite",
						"acceptPurchase(uint256,bool)": "infinite",
						"acceptReturn(uint256,bool)": "infinite",
						"addProductShop(string,uint256,string)": "infinite",
						"check_logged_shop(string)": "infinite",
						"check_logged_user(string)": "infinite",
						"create_user(address,string,bytes32)": "infinite",
						"getProductList()": "infinite",
						"getShopList()": "infinite",
						"getStoryRating(string)": "infinite",
						"get_address(string)": "infinite",
						"get_hash(string)": "infinite",
						"get_role_shop(string)": "infinite",
						"get_role_user(string)": "infinite",
						"leaveComment(string,string[])": "infinite",
						"leaveFeedback(string,string,uint256)": "infinite",
						"login_shop(string,bytes32)": "infinite",
						"login_user(string,bytes32)": "infinite",
						"productMarriageRegistration(string)": "infinite",
						"productPurchases(string)": "infinite",
						"productReturn(string)": "infinite",
						"shopLists(string)": "infinite",
						"structMarriageRegistrations(uint256)": "infinite",
						"structProducts(string)": "infinite",
						"structStatusPurchases(uint256)": "infinite",
						"structStatusReturns(uint256)": "infinite",
						"structUserLogins(string)": "infinite",
						"structUsers(address)": "infinite"
					}
				},
				"methodIdentifiers": {
					"MarriageRegistration(uint256,bool)": "f69483c1",
					"acceptPurchase(uint256,bool)": "0c72b1ec",
					"acceptReturn(uint256,bool)": "2ccdef7c",
					"addProductShop(string,uint256,string)": "6c05dd1d",
					"check_logged_shop(string)": "3b84aedc",
					"check_logged_user(string)": "5bbc9a3f",
					"create_user(address,string,bytes32)": "0e1c81b2",
					"getProductList()": "34d2c0ad",
					"getShopList()": "c178b9af",
					"getStoryRating(string)": "a985036d",
					"get_address(string)": "6ba44d3c",
					"get_hash(string)": "845952a8",
					"get_role_shop(string)": "033ff0b8",
					"get_role_user(string)": "5bdb63fa",
					"leaveComment(string,string[])": "29e795f3",
					"leaveFeedback(string,string,uint256)": "cc21c188",
					"login_shop(string,bytes32)": "775eb9e6",
					"login_user(string,bytes32)": "d22d9020",
					"productMarriageRegistration(string)": "2d4673e3",
					"productPurchases(string)": "146dc6ed",
					"productReturn(string)": "bbd43363",
					"shopLists(string)": "c4957fa0",
					"structMarriageRegistrations(uint256)": "7ddb273d",
					"structProducts(string)": "d68cf8c1",
					"structStatusPurchases(uint256)": "dce39151",
					"structStatusReturns(uint256)": "a9f9482b",
					"structUserLogins(string)": "1bbe970a",
					"structUsers(address)": "961865f0"
				}
			},
			"userdoc": {
				"kind": "user",
				"methods": {},
				"version": 1
			}
		}
	}
}