{
	"Documents/GitHub/Store-system-with-feedback/main.sol": {
		"coursepaper": {
			"abi": [
				{
					"inputs": [],
					"stateMutability": "nonpayable",
					"type": "constructor"
				},
				{
					"inputs": [
						{
							"internalType": "uint256",
							"name": "idMarriage",
							"type": "uint256"
						},
						{
							"internalType": "bool",
							"name": "confirmation",
							"type": "bool"
						}
					],
					"name": "acceptMarriage",
					"outputs": [],
					"stateMutability": "payable",
					"type": "function"
				},
				{
					"inputs": [
						{
							"internalType": "uint256",
							"name": "idPurchase",
							"type": "uint256"
						},
						{
							"internalType": "uint256",
							"name": "confirmation",
							"type": "uint256"
						}
					],
					"name": "acceptPurchase",
					"outputs": [],
					"stateMutability": "payable",
					"type": "function"
				},
				{
					"inputs": [
						{
							"internalType": "uint256",
							"name": "idReturn",
							"type": "uint256"
						},
						{
							"internalType": "uint256",
							"name": "confirmation",
							"type": "uint256"
						}
					],
					"name": "acceptReturn",
					"outputs": [],
					"stateMutability": "payable",
					"type": "function"
				},
				{
					"inputs": [
						{
							"internalType": "string",
							"name": "title",
							"type": "string"
						},
						{
							"internalType": "uint256",
							"name": "price",
							"type": "uint256"
						},
						{
							"internalType": "string",
							"name": "description",
							"type": "string"
						}
					],
					"name": "addProductShop",
					"outputs": [],
					"stateMutability": "nonpayable",
					"type": "function"
				},
				{
					"inputs": [
						{
							"internalType": "string",
							"name": "login",
							"type": "string"
						}
					],
					"name": "check_logged_shop",
					"outputs": [
						{
							"internalType": "bool",
							"name": "",
							"type": "bool"
						}
					],
					"stateMutability": "view",
					"type": "function"
				},
				{
					"inputs": [
						{
							"internalType": "string",
							"name": "login",
							"type": "string"
						}
					],
					"name": "check_logged_user",
					"outputs": [
						{
							"internalType": "bool",
							"name": "",
							"type": "bool"
						}
					],
					"stateMutability": "view",
					"type": "function"
				},
				{
					"inputs": [
						{
							"internalType": "address",
							"name": "addr",
							"type": "address"
						},
						{
							"internalType": "string",
							"name": "login",
							"type": "string"
						},
						{
							"internalType": "bytes32",
							"name": "password",
							"type": "bytes32"
						}
					],
					"name": "create_user",
					"outputs": [],
					"stateMutability": "nonpayable",
					"type": "function"
				},
				{
					"inputs": [
						{
							"internalType": "string",
							"name": "shopName",
							"type": "string"
						}
					],
					"name": "getStoryRating",
					"outputs": [
						{
							"internalType": "uint256",
							"name": "",
							"type": "uint256"
						}
					],
					"stateMutability": "view",
					"type": "function"
				},
				{
					"inputs": [
						{
							"internalType": "string",
							"name": "login",
							"type": "string"
						}
					],
					"name": "get_address",
					"outputs": [
						{
							"internalType": "address",
							"name": "",
							"type": "address"
						}
					],
					"stateMutability": "view",
					"type": "function"
				},
				{
					"inputs": [
						{
							"internalType": "address",
							"name": "adr",
							"type": "address"
						}
					],
					"name": "get_balance",
					"outputs": [
						{
							"internalType": "uint256",
							"name": "",
							"type": "uint256"
						}
					],
					"stateMutability": "view",
					"type": "function"
				},
				{
					"inputs": [
						{
							"internalType": "string",
							"name": "login",
							"type": "string"
						}
					],
					"name": "get_city",
					"outputs": [
						{
							"internalType": "string",
							"name": "",
							"type": "string"
						}
					],
					"stateMutability": "view",
					"type": "function"
				},
				{
					"inputs": [
						{
							"internalType": "string",
							"name": "password",
							"type": "string"
						}
					],
					"name": "get_hash",
					"outputs": [
						{
							"internalType": "bytes32",
							"name": "",
							"type": "bytes32"
						}
					],
					"stateMutability": "pure",
					"type": "function"
				},
				{
					"inputs": [],
					"name": "get_product_list",
					"outputs": [
						{
							"internalType": "string[]",
							"name": "",
							"type": "string[]"
						}
					],
					"stateMutability": "view",
					"type": "function"
				},
				{
					"inputs": [
						{
							"internalType": "string",
							"name": "login",
							"type": "string"
						}
					],
					"name": "get_role_shop",
					"outputs": [
						{
							"internalType": "uint256",
							"name": "",
							"type": "uint256"
						}
					],
					"stateMutability": "view",
					"type": "function"
				},
				{
					"inputs": [
						{
							"internalType": "string",
							"name": "login",
							"type": "string"
						}
					],
					"name": "get_role_user",
					"outputs": [
						{
							"internalType": "uint256",
							"name": "",
							"type": "uint256"
						}
					],
					"stateMutability": "view",
					"type": "function"
				},
				{
					"inputs": [],
					"name": "get_shop_list",
					"outputs": [
						{
							"internalType": "string[]",
							"name": "",
							"type": "string[]"
						}
					],
					"stateMutability": "view",
					"type": "function"
				},
				{
					"inputs": [
						{
							"internalType": "string",
							"name": "userName",
							"type": "string"
						},
						{
							"internalType": "string[]",
							"name": "comment",
							"type": "string[]"
						}
					],
					"name": "leaveComment",
					"outputs": [],
					"stateMutability": "nonpayable",
					"type": "function"
				},
				{
					"inputs": [
						{
							"internalType": "string",
							"name": "shop",
							"type": "string"
						},
						{
							"internalType": "string",
							"name": "feedback",
							"type": "string"
						},
						{
							"internalType": "uint256",
							"name": "rating",
							"type": "uint256"
						}
					],
					"name": "leaveFeedback",
					"outputs": [],
					"stateMutability": "nonpayable",
					"type": "function"
				},
				{
					"inputs": [
						{
							"internalType": "string",
							"name": "login",
							"type": "string"
						}
					],
					"name": "login_out_shop",
					"outputs": [],
					"stateMutability": "nonpayable",
					"type": "function"
				},
				{
					"inputs": [
						{
							"internalType": "string",
							"name": "login",
							"type": "string"
						}
					],
					"name": "login_out_user",
					"outputs": [],
					"stateMutability": "nonpayable",
					"type": "function"
				},
				{
					"inputs": [
						{
							"internalType": "string",
							"name": "login",
							"type": "string"
						},
						{
							"internalType": "bytes32",
							"name": "password",
							"type": "bytes32"
						}
					],
					"name": "login_shop",
					"outputs": [],
					"stateMutability": "nonpayable",
					"type": "function"
				},
				{
					"inputs": [
						{
							"internalType": "string",
							"name": "login",
							"type": "string"
						},
						{
							"internalType": "bytes32",
							"name": "password",
							"type": "bytes32"
						}
					],
					"name": "login_user",
					"outputs": [],
					"stateMutability": "nonpayable",
					"type": "function"
				},
				{
					"inputs": [
						{
							"internalType": "string",
							"name": "titleProduct",
							"type": "string"
						}
					],
					"name": "productMarriage",
					"outputs": [],
					"stateMutability": "nonpayable",
					"type": "function"
				},
				{
					"inputs": [
						{
							"internalType": "string",
							"name": "titleProduct",
							"type": "string"
						}
					],
					"name": "productPurchases",
					"outputs": [],
					"stateMutability": "payable",
					"type": "function"
				},
				{
					"inputs": [
						{
							"internalType": "string",
							"name": "titleProduct",
							"type": "string"
						}
					],
					"name": "productReturn",
					"outputs": [],
					"stateMutability": "nonpayable",
					"type": "function"
				},
				{
					"inputs": [
						{
							"internalType": "uint256",
							"name": "idPurchase",
							"type": "uint256"
						}
					],
					"name": "refusalToPurchase",
					"outputs": [],
					"stateMutability": "payable",
					"type": "function"
				},
				{
					"inputs": [
						{
							"internalType": "string",
							"name": "",
							"type": "string"
						}
					],
					"name": "shopLists",
					"outputs": [
						{
							"internalType": "address",
							"name": "",
							"type": "address"
						}
					],
					"stateMutability": "view",
					"type": "function"
				},
				{
					"inputs": [
						{
							"internalType": "string",
							"name": "",
							"type": "string"
						}
					],
					"name": "structProducts",
					"outputs": [
						{
							"internalType": "address",
							"name": "shop",
							"type": "address"
						},
						{
							"internalType": "string",
							"name": "description",
							"type": "string"
						},
						{
							"internalType": "uint256",
							"name": "price",
							"type": "uint256"
						},
						{
							"internalType": "uint256",
							"name": "id",
							"type": "uint256"
						}
					],
					"stateMutability": "view",
					"type": "function"
				},
				{
					"inputs": [
						{
							"internalType": "address",
							"name": "",
							"type": "address"
						}
					],
					"name": "structShops",
					"outputs": [
						{
							"internalType": "string",
							"name": "shopName",
							"type": "string"
						},
						{
							"internalType": "bytes32",
							"name": "password",
							"type": "bytes32"
						},
						{
							"internalType": "uint256",
							"name": "role",
							"type": "uint256"
						},
						{
							"internalType": "bool",
							"name": "logged",
							"type": "bool"
						},
						{
							"internalType": "string",
							"name": "number",
							"type": "string"
						},
						{
							"internalType": "string",
							"name": "city",
							"type": "string"
						},
						{
							"internalType": "uint256",
							"name": "rating",
							"type": "uint256"
						}
					],
					"stateMutability": "view",
					"type": "function"
				},
				{
					"inputs": [
						{
							"internalType": "uint256",
							"name": "",
							"type": "uint256"
						}
					],
					"name": "structStatusMarriages",
					"outputs": [
						{
							"internalType": "address",
							"name": "userLogin",
							"type": "address"
						},
						{
							"internalType": "string",
							"name": "titleProduct",
							"type": "string"
						},
						{
							"internalType": "bool",
							"name": "status",
							"type": "bool"
						}
					],
					"stateMutability": "view",
					"type": "function"
				},
				{
					"inputs": [
						{
							"internalType": "uint256",
							"name": "",
							"type": "uint256"
						}
					],
					"name": "structStatusPurchases",
					"outputs": [
						{
							"internalType": "address",
							"name": "userLogin",
							"type": "address"
						},
						{
							"internalType": "string",
							"name": "titleProduct",
							"type": "string"
						},
						{
							"internalType": "uint256",
							"name": "price",
							"type": "uint256"
						},
						{
							"internalType": "bool",
							"name": "status",
							"type": "bool"
						}
					],
					"stateMutability": "view",
					"type": "function"
				},
				{
					"inputs": [
						{
							"internalType": "uint256",
							"name": "",
							"type": "uint256"
						}
					],
					"name": "structStatusReturns",
					"outputs": [
						{
							"internalType": "address",
							"name": "userLogin",
							"type": "address"
						},
						{
							"internalType": "string",
							"name": "titleProduct",
							"type": "string"
						},
						{
							"internalType": "bool",
							"name": "status",
							"type": "bool"
						}
					],
					"stateMutability": "view",
					"type": "function"
				},
				{
					"inputs": [
						{
							"internalType": "string",
							"name": "",
							"type": "string"
						}
					],
					"name": "structUserLogins",
					"outputs": [
						{
							"internalType": "address",
							"name": "",
							"type": "address"
						}
					],
					"stateMutability": "view",
					"type": "function"
				},
				{
					"inputs": [
						{
							"internalType": "address",
							"name": "",
							"type": "address"
						}
					],
					"name": "structUsers",
					"outputs": [
						{
							"internalType": "string",
							"name": "userName",
							"type": "string"
						},
						{
							"internalType": "bytes32",
							"name": "password",
							"type": "bytes32"
						},
						{
							"internalType": "uint256",
							"name": "role",
							"type": "uint256"
						},
						{
							"internalType": "bool",
							"name": "logged",
							"type": "bool"
						}
					],
					"stateMutability": "view",
					"type": "function"
				}
			],
			"devdoc": {
				"kind": "dev",
				"methods": {},
				"version": 1
			},
			"evm": {
				"assembly": "    /* \"Documents/GitHub/Store-system-with-feedback/main.sol\":74:14340  contract coursepaper {\r... */\n  mstore(0x40, 0x80)\n    /* \"Documents/GitHub/Store-system-with-feedback/main.sol\":6250:6251  0 */\n  0x00\n    /* \"Documents/GitHub/Store-system-with-feedback/main.sol\":6215:6251  uint256 addProductShop_idProduct = 0 */\n  0x0d\n  sstore\n    /* \"Documents/GitHub/Store-system-with-feedback/main.sol\":125:1344  constructor() {\r... */\n  callvalue\n  dup1\n  iszero\n  tag_1\n  jumpi\n  0x00\n  dup1\n  revert\ntag_1:\n  pop\n    /* \"Documents/GitHub/Store-system-with-feedback/main.sol\":200:242  0x5412E9b0e4Ef9d1546DF79ae907eeE34bDCF3004 */\n  0x5412e9b0e4ef9d1546df79ae907eee34bdcf3004\n    /* \"Documents/GitHub/Store-system-with-feedback/main.sol\":180:189  shopLists */\n  0x01\n    /* \"Documents/GitHub/Store-system-with-feedback/main.sol\":180:197  shopLists[\"Beer\"] */\n  mload(0x40)\n  tag_4\n  swap1\n  shl(0xe1, 0x2132b2b9)\n    /* \"#utility.yul\":1430:1449   */\n  dup2\n  mstore\n    /* \"#utility.yul\":1474:1475   */\n  0x04\n    /* \"#utility.yul\":1465:1476   */\n  add\n  swap1\n    /* \"#utility.yul\":1228:1482   */\n  jump\n    /* \"Documents/GitHub/Store-system-with-feedback/main.sol\":180:197  shopLists[\"Beer\"] */\ntag_4:\n  swap1\n  dup2\n  mstore\n  0x40\n  dup1\n  mload\n  0x20\n  swap3\n  dup2\n  swap1\n  sub\n  dup4\n  add\n  dup2\n  keccak256\n    /* \"Documents/GitHub/Store-system-with-feedback/main.sol\":180:242  shopLists[\"Beer\"] = 0x5412E9b0e4Ef9d1546DF79ae907eeE34bDCF3004 */\n  dup1\n  sload\n  not(sub(shl(0xa0, 0x01), 0x01))\n  and\n  sub(shl(0xa0, 0x01), 0x01)\n  swap6\n  swap1\n  swap6\n  and\n  swap5\n  swap1\n  swap5\n  or\n  swap1\n  swap4\n  sstore\n    /* \"Documents/GitHub/Store-system-with-feedback/main.sol\":311:372  structShop(\"Beer\", get_hash(\"2\"), 3, false, \"1\", \"Moscow\", 0) */\n  0x0120\n  dup4\n  add\n  dup2\n  mstore\n  0x04\n  0xe0\n  dup5\n  add\n  swap1\n  dup2\n  mstore\n  shl(0xe1, 0x2132b2b9)\n    /* \"Documents/GitHub/Store-system-with-feedback/main.sol\":180:242  shopLists[\"Beer\"] = 0x5412E9b0e4Ef9d1546DF79ae907eeE34bDCF3004 */\n  0x0100\n    /* \"Documents/GitHub/Store-system-with-feedback/main.sol\":311:372  structShop(\"Beer\", get_hash(\"2\"), 3, false, \"1\", \"Moscow\", 0) */\n  dup6\n  add\n  mstore\n  dup4\n  mstore\n    /* \"Documents/GitHub/Store-system-with-feedback/main.sol\":330:343  get_hash(\"2\") */\n  dup1\n  mload\n  dup1\n  dup3\n  add\n  swap1\n  swap2\n  mstore\n  0x01\n  dup2\n  mstore\n  shl(0xf9, 0x19)\n  dup2\n  dup4\n  add\n  mstore\n    /* \"Documents/GitHub/Store-system-with-feedback/main.sol\":311:372  structShop(\"Beer\", get_hash(\"2\"), 3, false, \"1\", \"Moscow\", 0) */\n  swap1\n  dup3\n  add\n  swap1\n    /* \"Documents/GitHub/Store-system-with-feedback/main.sol\":330:343  get_hash(\"2\") */\n  tag_6\n  swap1\n    /* \"Documents/GitHub/Store-system-with-feedback/main.sol\":330:338  get_hash */\n  tag_7\n    /* \"Documents/GitHub/Store-system-with-feedback/main.sol\":330:343  get_hash(\"2\") */\n  jump\t// in\ntag_6:\n    /* \"Documents/GitHub/Store-system-with-feedback/main.sol\":311:372  structShop(\"Beer\", get_hash(\"2\"), 3, false, \"1\", \"Moscow\", 0) */\n  dup2\n  mstore\n    /* \"Documents/GitHub/Store-system-with-feedback/main.sol\":345:346  3 */\n  0x03\n    /* \"Documents/GitHub/Store-system-with-feedback/main.sol\":311:372  structShop(\"Beer\", get_hash(\"2\"), 3, false, \"1\", \"Moscow\", 0) */\n  0x20\n  dup1\n  dup4\n  add\n  swap2\n  swap1\n  swap2\n  mstore\n  0x00\n  0x40\n  dup1\n  dup5\n  add\n  dup3\n  swap1\n  mstore\n  dup1\n  mload\n  dup1\n  dup3\n  add\n  dup3\n  mstore\n  0x01\n  dup2\n  mstore\n  shl(0xf8, 0x31)\n  dup2\n  dup6\n  add\n  mstore\n  0x60\n  dup6\n  add\n  mstore\n  dup1\n  mload\n  dup1\n  dup3\n  add\n  swap1\n  swap2\n  mstore\n  0x06\n  dup2\n  mstore\n  shl(0xd0, 0x4d6f73636f77)\n  dup2\n  dup5\n  add\n  mstore\n  0x80\n  dup5\n  add\n  mstore\n  0xa0\n  swap1\n  swap3\n  add\n  dup3\n  swap1\n  mstore\n    /* \"Documents/GitHub/Store-system-with-feedback/main.sol\":265:307  0x5412E9b0e4Ef9d1546DF79ae907eeE34bDCF3004 */\n  0x5412e9b0e4ef9d1546df79ae907eee34bdcf3004\n    /* \"Documents/GitHub/Store-system-with-feedback/main.sol\":253:308  structShops[0x5412E9b0e4Ef9d1546DF79ae907eeE34bDCF3004] */\n  dup3\n  mstore\n  swap1\n  dup2\n  mstore\n    /* \"Documents/GitHub/Store-system-with-feedback/main.sol\":253:372  structShops[0x5412E9b0e4Ef9d1546DF79ae907eeE34bDCF3004] = structShop(\"Beer\", get_hash(\"2\"), 3, false, \"1\", \"Moscow\", 0) */\n  dup2\n  mload\n  dup1\n  mload\n  0x00\n  dup1\n  mload\n  0x20\n  data_f9525e0112460024fbe4d5a34594c1701ce0e90aeee55f3b18c9114979275102\n  dup4\n  codecopy\n  dup2\n  mload\n  swap2\n  mstore\n    /* \"Documents/GitHub/Store-system-with-feedback/main.sol\":253:308  structShops[0x5412E9b0e4Ef9d1546DF79ae907eeE34bDCF3004] */\n  swap3\n    /* \"Documents/GitHub/Store-system-with-feedback/main.sol\":253:372  structShops[0x5412E9b0e4Ef9d1546DF79ae907eeE34bDCF3004] = structShop(\"Beer\", get_hash(\"2\"), 3, false, \"1\", \"Moscow\", 0) */\n  tag_8\n  swap3\n    /* \"Documents/GitHub/Store-system-with-feedback/main.sol\":253:308  structShops[0x5412E9b0e4Ef9d1546DF79ae907eeE34bDCF3004] */\n  dup5\n  swap3\n    /* \"Documents/GitHub/Store-system-with-feedback/main.sol\":253:372  structShops[0x5412E9b0e4Ef9d1546DF79ae907eeE34bDCF3004] = structShop(\"Beer\", get_hash(\"2\"), 3, false, \"1\", \"Moscow\", 0) */\n  swap2\n  add\n  swap1\n  tag_9\n  jump\t// in\ntag_8:\n  pop\n  0x20\n  dup3\n  dup2\n  add\n  mload\n  0x01\n  dup4\n  add\n  sstore\n  0x40\n  dup4\n  add\n  mload\n  0x02\n  dup4\n  add\n  sstore\n  0x60\n  dup4\n  add\n  mload\n  0x03\n  dup4\n  add\n  dup1\n  sload\n  not(0xff)\n  and\n  swap2\n  iszero\n  iszero\n  swap2\n  swap1\n  swap2\n  or\n  swap1\n  sstore\n  0x80\n  dup4\n  add\n  mload\n  dup1\n  mload\n  tag_10\n  swap3\n  0x04\n  dup6\n  add\n  swap3\n  add\n  swap1\n  tag_9\n  jump\t// in\ntag_10:\n  pop\n  0xa0\n  dup3\n  add\n  mload\n  dup1\n  mload\n  tag_11\n  swap2\n  0x05\n  dup5\n  add\n  swap2\n  0x20\n  swap1\n  swap2\n  add\n  swap1\n  tag_9\n  jump\t// in\ntag_11:\n  pop\n  0xc0\n  swap2\n  swap1\n  swap2\n  add\n  mload\n  0x06\n  swap1\n  swap2\n  add\n  sstore\n    /* \"Documents/GitHub/Store-system-with-feedback/main.sol\":397:408  structShops */\n  0x00\n    /* \"Documents/GitHub/Store-system-with-feedback/main.sol\":397:452  structShops[0x5412E9b0e4Ef9d1546DF79ae907eeE34bDCF3004] */\n  0x20\n  dup2\n  swap1\n  mstore\n    /* \"Documents/GitHub/Store-system-with-feedback/main.sol\":383:391  shopList */\n  0x02\n    /* \"Documents/GitHub/Store-system-with-feedback/main.sol\":383:462  shopList.push(structShops[0x5412E9b0e4Ef9d1546DF79ae907eeE34bDCF3004].shopName) */\n  dup1\n  sload\n  0x01\n  dup2\n  add\n  dup3\n  sstore\n  swap2\n  mstore\n  0x00\n  dup1\n  mload\n  0x20\n  data_f9525e0112460024fbe4d5a34594c1701ce0e90aeee55f3b18c9114979275102\n  dup4\n  codecopy\n  dup2\n  mload\n  swap2\n  mstore\n  dup1\n  sload\n  0x00\n  dup1\n  mload\n  0x20\n  data_1ab0c6948a275349ae45a06aad66a8bd65ac18074615d53676c09b67809099e0\n  dup4\n  codecopy\n  dup2\n  mload\n  swap2\n  mstore\n  swap1\n  swap3\n  add\n  swap2\n  tag_13\n  swap1\n  tag_14\n  jump\t// in\ntag_13:\n  tag_15\n  swap3\n  swap2\n  swap1\n  tag_16\n  jump\t// in\ntag_15:\n  pop\n    /* \"Documents/GitHub/Store-system-with-feedback/main.sol\":496:538  0x49C364fedaD517382ee5A776d3071f11CfDE4C5c */\n  0x49c364fedad517382ee5a776d3071f11cfde4c5c\n    /* \"Documents/GitHub/Store-system-with-feedback/main.sol\":473:482  shopLists */\n  0x01\n    /* \"Documents/GitHub/Store-system-with-feedback/main.sol\":473:493  shopLists[\"Product\"] */\n  mload(0x40)\n  tag_17\n  swap1\n  shl(0xca, 0x141c9bd91d58dd)\n    /* \"#utility.yul\":1168:1190   */\n  dup2\n  mstore\n    /* \"#utility.yul\":1215:1216   */\n  0x07\n    /* \"#utility.yul\":1206:1217   */\n  add\n  swap1\n    /* \"#utility.yul\":966:1223   */\n  jump\n    /* \"Documents/GitHub/Store-system-with-feedback/main.sol\":473:493  shopLists[\"Product\"] */\ntag_17:\n  swap1\n  dup2\n  mstore\n  0x40\n  dup1\n  mload\n  0x20\n  swap3\n  dup2\n  swap1\n  sub\n  dup4\n  add\n  dup2\n  keccak256\n    /* \"Documents/GitHub/Store-system-with-feedback/main.sol\":473:538  shopLists[\"Product\"] = 0x49C364fedaD517382ee5A776d3071f11CfDE4C5c */\n  dup1\n  sload\n  not(sub(shl(0xa0, 0x01), 0x01))\n  and\n  sub(shl(0xa0, 0x01), 0x01)\n  swap6\n  swap1\n  swap6\n  and\n  swap5\n  swap1\n  swap5\n  or\n  swap1\n  swap4\n  sstore\n    /* \"Documents/GitHub/Store-system-with-feedback/main.sol\":607:675  structShop(\"Product\", get_hash(\"2\"), 3, false, \"2\", \"Petersburg\", 0) */\n  0x0120\n  dup4\n  add\n  dup2\n  mstore\n  0x07\n  0xe0\n  dup5\n  add\n  swap1\n  dup2\n  mstore\n  shl(0xca, 0x141c9bd91d58dd)\n    /* \"Documents/GitHub/Store-system-with-feedback/main.sol\":473:538  shopLists[\"Product\"] = 0x49C364fedaD517382ee5A776d3071f11CfDE4C5c */\n  0x0100\n    /* \"Documents/GitHub/Store-system-with-feedback/main.sol\":607:675  structShop(\"Product\", get_hash(\"2\"), 3, false, \"2\", \"Petersburg\", 0) */\n  dup6\n  add\n  mstore\n  dup4\n  mstore\n    /* \"Documents/GitHub/Store-system-with-feedback/main.sol\":629:642  get_hash(\"2\") */\n  dup1\n  mload\n  dup1\n  dup3\n  add\n  swap1\n  swap2\n  mstore\n  0x01\n  dup2\n  mstore\n  shl(0xf9, 0x19)\n  dup2\n  dup4\n  add\n  mstore\n    /* \"Documents/GitHub/Store-system-with-feedback/main.sol\":607:675  structShop(\"Product\", get_hash(\"2\"), 3, false, \"2\", \"Petersburg\", 0) */\n  swap1\n  dup3\n  add\n  swap1\n    /* \"Documents/GitHub/Store-system-with-feedback/main.sol\":629:642  get_hash(\"2\") */\n  tag_19\n  swap1\n    /* \"Documents/GitHub/Store-system-with-feedback/main.sol\":629:637  get_hash */\n  tag_7\n    /* \"Documents/GitHub/Store-system-with-feedback/main.sol\":629:642  get_hash(\"2\") */\n  jump\t// in\ntag_19:\n    /* \"Documents/GitHub/Store-system-with-feedback/main.sol\":607:675  structShop(\"Product\", get_hash(\"2\"), 3, false, \"2\", \"Petersburg\", 0) */\n  dup2\n  mstore\n    /* \"Documents/GitHub/Store-system-with-feedback/main.sol\":644:645  3 */\n  0x03\n    /* \"Documents/GitHub/Store-system-with-feedback/main.sol\":607:675  structShop(\"Product\", get_hash(\"2\"), 3, false, \"2\", \"Petersburg\", 0) */\n  0x20\n  dup1\n  dup4\n  add\n  swap2\n  swap1\n  swap2\n  mstore\n  0x00\n  0x40\n  dup1\n  dup5\n  add\n  dup3\n  swap1\n  mstore\n  dup1\n  mload\n  dup1\n  dup3\n  add\n  dup3\n  mstore\n  0x01\n  dup2\n  mstore\n  shl(0xf9, 0x19)\n  dup2\n  dup6\n  add\n  mstore\n  0x60\n  dup6\n  add\n  mstore\n  dup1\n  mload\n  dup1\n  dup3\n  add\n  swap1\n  swap2\n  mstore\n  0x0a\n  dup2\n  mstore\n  shl(0xb0, 0x50657465727362757267)\n  dup2\n  dup5\n  add\n  mstore\n  0x80\n  dup5\n  add\n  mstore\n  0xa0\n  swap1\n  swap3\n  add\n  dup3\n  swap1\n  mstore\n    /* \"Documents/GitHub/Store-system-with-feedback/main.sol\":561:603  0x49C364fedaD517382ee5A776d3071f11CfDE4C5c */\n  0x49c364fedad517382ee5a776d3071f11cfde4c5c\n    /* \"Documents/GitHub/Store-system-with-feedback/main.sol\":549:604  structShops[0x49C364fedaD517382ee5A776d3071f11CfDE4C5c] */\n  dup3\n  mstore\n  swap1\n  dup2\n  mstore\n    /* \"Documents/GitHub/Store-system-with-feedback/main.sol\":549:675  structShops[0x49C364fedaD517382ee5A776d3071f11CfDE4C5c] = structShop(\"Product\", get_hash(\"2\"), 3, false, \"2\", \"Petersburg\", 0) */\n  dup2\n  mload\n  dup1\n  mload\n  0x00\n  dup1\n  mload\n  0x20\n  data_02d9cdcbcfa4cd8c6761b1b14b7bfe8ce5c69d2b558fc8eef153a2c2ff25ae65\n  dup4\n  codecopy\n  dup2\n  mload\n  swap2\n  mstore\n    /* \"Documents/GitHub/Store-system-with-feedback/main.sol\":549:604  structShops[0x49C364fedaD517382ee5A776d3071f11CfDE4C5c] */\n  swap3\n    /* \"Documents/GitHub/Store-system-with-feedback/main.sol\":549:675  structShops[0x49C364fedaD517382ee5A776d3071f11CfDE4C5c] = structShop(\"Product\", get_hash(\"2\"), 3, false, \"2\", \"Petersburg\", 0) */\n  tag_20\n  swap3\n    /* \"Documents/GitHub/Store-system-with-feedback/main.sol\":549:604  structShops[0x49C364fedaD517382ee5A776d3071f11CfDE4C5c] */\n  dup5\n  swap3\n    /* \"Documents/GitHub/Store-system-with-feedback/main.sol\":549:675  structShops[0x49C364fedaD517382ee5A776d3071f11CfDE4C5c] = structShop(\"Product\", get_hash(\"2\"), 3, false, \"2\", \"Petersburg\", 0) */\n  swap2\n  add\n  swap1\n  tag_9\n  jump\t// in\ntag_20:\n  pop\n  0x20\n  dup3\n  dup2\n  add\n  mload\n  0x01\n  dup4\n  add\n  sstore\n  0x40\n  dup4\n  add\n  mload\n  0x02\n  dup4\n  add\n  sstore\n  0x60\n  dup4\n  add\n  mload\n  0x03\n  dup4\n  add\n  dup1\n  sload\n  not(0xff)\n  and\n  swap2\n  iszero\n  iszero\n  swap2\n  swap1\n  swap2\n  or\n  swap1\n  sstore\n  0x80\n  dup4\n  add\n  mload\n  dup1\n  mload\n  tag_21\n  swap3\n  0x04\n  dup6\n  add\n  swap3\n  add\n  swap1\n  tag_9\n  jump\t// in\ntag_21:\n  pop\n  0xa0\n  dup3\n  add\n  mload\n  dup1\n  mload\n  tag_22\n  swap2\n  0x05\n  dup5\n  add\n  swap2\n  0x20\n  swap1\n  swap2\n  add\n  swap1\n  tag_9\n  jump\t// in\ntag_22:\n  pop\n  0xc0\n  swap2\n  swap1\n  swap2\n  add\n  mload\n  0x06\n  swap1\n  swap2\n  add\n  sstore\n    /* \"Documents/GitHub/Store-system-with-feedback/main.sol\":700:711  structShops */\n  0x00\n    /* \"Documents/GitHub/Store-system-with-feedback/main.sol\":700:755  structShops[0x49C364fedaD517382ee5A776d3071f11CfDE4C5c] */\n  0x20\n  dup2\n  swap1\n  mstore\n    /* \"Documents/GitHub/Store-system-with-feedback/main.sol\":686:694  shopList */\n  0x02\n    /* \"Documents/GitHub/Store-system-with-feedback/main.sol\":686:765  shopList.push(structShops[0x49C364fedaD517382ee5A776d3071f11CfDE4C5c].shopName) */\n  dup1\n  sload\n  0x01\n  dup2\n  add\n  dup3\n  sstore\n  swap2\n  mstore\n  0x00\n  dup1\n  mload\n  0x20\n  data_02d9cdcbcfa4cd8c6761b1b14b7bfe8ce5c69d2b558fc8eef153a2c2ff25ae65\n  dup4\n  codecopy\n  dup2\n  mload\n  swap2\n  mstore\n  dup1\n  sload\n  0x00\n  dup1\n  mload\n  0x20\n  data_1ab0c6948a275349ae45a06aad66a8bd65ac18074615d53676c09b67809099e0\n  dup4\n  codecopy\n  dup2\n  mload\n  swap2\n  mstore\n  swap1\n  swap3\n  add\n  swap2\n  tag_24\n  swap1\n  tag_14\n  jump\t// in\ntag_24:\n  tag_25\n  swap3\n  swap2\n  swap1\n  tag_16\n  jump\t// in\ntag_25:\n  pop\n    /* \"Documents/GitHub/Store-system-with-feedback/main.sol\":827:869  0xAdA67460CF329D12c1ed898710CC8Da5D40d8025 */\n  0xada67460cf329d12c1ed898710cc8da5d40d8025\n    /* \"Documents/GitHub/Store-system-with-feedback/main.sol\":800:816  structUserLogins */\n  0x05\n    /* \"Documents/GitHub/Store-system-with-feedback/main.sol\":800:824  structUserLogins[\"Peta\"] */\n  mload(0x40)\n  tag_26\n  swap1\n  shl(0xe0, 0x50657461)\n    /* \"#utility.yul\":909:928   */\n  dup2\n  mstore\n    /* \"#utility.yul\":953:954   */\n  0x04\n    /* \"#utility.yul\":944:955   */\n  add\n  swap1\n    /* \"#utility.yul\":707:961   */\n  jump\n    /* \"Documents/GitHub/Store-system-with-feedback/main.sol\":800:824  structUserLogins[\"Peta\"] */\ntag_26:\n  swap1\n  dup2\n  mstore\n  0x40\n  dup1\n  mload\n  0x20\n  swap3\n  dup2\n  swap1\n  sub\n  dup4\n  add\n  dup2\n  keccak256\n    /* \"Documents/GitHub/Store-system-with-feedback/main.sol\":800:869  structUserLogins[\"Peta\"] = 0xAdA67460CF329D12c1ed898710CC8Da5D40d8025 */\n  dup1\n  sload\n  not(sub(shl(0xa0, 0x01), 0x01))\n  and\n  sub(shl(0xa0, 0x01), 0x01)\n  swap6\n  swap1\n  swap6\n  and\n  swap5\n  swap1\n  swap5\n  or\n  swap1\n  swap4\n  sstore\n    /* \"Documents/GitHub/Store-system-with-feedback/main.sol\":938:981  structUser(\"Peta\", get_hash(\"3\"), 2, false) */\n  0xc0\n  dup4\n  add\n  dup2\n  mstore\n  0x04\n  0x80\n  dup5\n  add\n  swap1\n  dup2\n  mstore\n  shl(0xe0, 0x50657461)\n  0xa0\n  dup6\n  add\n  mstore\n  dup4\n  mstore\n    /* \"Documents/GitHub/Store-system-with-feedback/main.sol\":957:970  get_hash(\"3\") */\n  dup1\n  mload\n  dup1\n  dup3\n  add\n  swap1\n  swap2\n  mstore\n  0x01\n  dup2\n  mstore\n  shl(0xf8, 0x33)\n  dup2\n  dup4\n  add\n  mstore\n    /* \"Documents/GitHub/Store-system-with-feedback/main.sol\":938:981  structUser(\"Peta\", get_hash(\"3\"), 2, false) */\n  swap1\n  dup3\n  add\n  swap1\n    /* \"Documents/GitHub/Store-system-with-feedback/main.sol\":957:970  get_hash(\"3\") */\n  tag_28\n  swap1\n    /* \"Documents/GitHub/Store-system-with-feedback/main.sol\":957:965  get_hash */\n  tag_7\n    /* \"Documents/GitHub/Store-system-with-feedback/main.sol\":957:970  get_hash(\"3\") */\n  jump\t// in\ntag_28:\n    /* \"Documents/GitHub/Store-system-with-feedback/main.sol\":938:981  structUser(\"Peta\", get_hash(\"3\"), 2, false) */\n  dup2\n  mstore\n    /* \"Documents/GitHub/Store-system-with-feedback/main.sol\":972:973  2 */\n  0x02\n    /* \"Documents/GitHub/Store-system-with-feedback/main.sol\":938:981  structUser(\"Peta\", get_hash(\"3\"), 2, false) */\n  0x20\n  dup1\n  dup4\n  add\n  swap2\n  swap1\n  swap2\n  mstore\n  0x00\n  0x40\n  swap1\n  swap3\n  add\n  dup3\n  swap1\n  mstore\n    /* \"Documents/GitHub/Store-system-with-feedback/main.sol\":892:934  0xAdA67460CF329D12c1ed898710CC8Da5D40d8025 */\n  0xada67460cf329d12c1ed898710cc8da5d40d8025\n    /* \"Documents/GitHub/Store-system-with-feedback/main.sol\":880:935  structUsers[0xAdA67460CF329D12c1ed898710CC8Da5D40d8025] */\n  swap1\n  swap2\n  mstore\n    /* \"Documents/GitHub/Store-system-with-feedback/main.sol\":880:891  structUsers */\n  0x04\n    /* \"Documents/GitHub/Store-system-with-feedback/main.sol\":880:935  structUsers[0xAdA67460CF329D12c1ed898710CC8Da5D40d8025] */\n  dup2\n  mstore\n    /* \"Documents/GitHub/Store-system-with-feedback/main.sol\":880:981  structUsers[0xAdA67460CF329D12c1ed898710CC8Da5D40d8025] = structUser(\"Peta\", get_hash(\"3\"), 2, false) */\n  dup2\n  mload\n  dup1\n  mload\n    /* \"Documents/GitHub/Store-system-with-feedback/main.sol\":880:935  structUsers[0xAdA67460CF329D12c1ed898710CC8Da5D40d8025] */\n  0x7276c473c3031176624ead5b5cbfdea5cdbc158289c185f75f825e40aed0bb37\n  swap3\n    /* \"Documents/GitHub/Store-system-with-feedback/main.sol\":880:981  structUsers[0xAdA67460CF329D12c1ed898710CC8Da5D40d8025] = structUser(\"Peta\", get_hash(\"3\"), 2, false) */\n  tag_29\n  swap3\n    /* \"Documents/GitHub/Store-system-with-feedback/main.sol\":880:935  structUsers[0xAdA67460CF329D12c1ed898710CC8Da5D40d8025] */\n  dup5\n  swap3\n    /* \"Documents/GitHub/Store-system-with-feedback/main.sol\":880:981  structUsers[0xAdA67460CF329D12c1ed898710CC8Da5D40d8025] = structUser(\"Peta\", get_hash(\"3\"), 2, false) */\n  swap2\n  add\n  swap1\n  tag_9\n  jump\t// in\ntag_29:\n  pop\n  0x20\n  dup3\n  dup2\n  add\n  mload\n  0x01\n  dup4\n  dup2\n  add\n  swap2\n  swap1\n  swap2\n  sstore\n  0x40\n  dup1\n  dup6\n  add\n  mload\n  0x02\n  dup6\n  add\n  sstore\n  0x60\n  swap1\n  swap5\n  add\n  mload\n  0x03\n  swap1\n  swap4\n  add\n  dup1\n  sload\n  not(0xff)\n  and\n  swap4\n  iszero\n  iszero\n  swap4\n  swap1\n  swap4\n  or\n  swap1\n  swap3\n  sstore\n    /* \"Documents/GitHub/Store-system-with-feedback/main.sol\":992:1007  userLoginsArray */\n  0x06\n    /* \"Documents/GitHub/Store-system-with-feedback/main.sol\":992:1020  userLoginsArray.push(\"Peta\") */\n  dup1\n  sload\n  swap3\n  dup4\n  add\n  dup2\n  sstore\n  0x00\n  mstore\n  dup3\n  mload\n  dup1\n  dup5\n  add\n  swap1\n  swap4\n  mstore\n  0x04\n  dup1\n  dup5\n  mstore\n  shl(0xe0, 0x50657461)\n  swap4\n  swap1\n  swap2\n  add\n  swap3\n  dup4\n  mstore\n  tag_31\n  swap3\n  0xf652222313e28459528d920b65115c16c04f3efc82aaedc97be59f3f377c0d3f\n  swap1\n  swap3\n  add\n  swap2\n  swap1\n  tag_9\n  jump\t// in\ntag_31:\n  pop\n    /* \"Documents/GitHub/Store-system-with-feedback/main.sol\":1031:1047  userAddressArray */\n  0x07\n    /* \"Documents/GitHub/Store-system-with-feedback/main.sol\":1031:1096  userAddressArray.push(0xAdA67460CF329D12c1ed898710CC8Da5D40d8025) */\n  dup1\n  sload\n  0x01\n  dup2\n  add\n  dup3\n  sstore\n  0x00\n  swap2\n  swap1\n  swap2\n  mstore\n  0xa66cc928b5edb82af9bd49922954155ab7b0942694bea4ce44661d9a8736c688\n  add\n  dup1\n  sload\n  not(sub(shl(0xa0, 0x01), 0x01))\n  and\n    /* \"Documents/GitHub/Store-system-with-feedback/main.sol\":1053:1095  0xAdA67460CF329D12c1ed898710CC8Da5D40d8025 */\n  0xada67460cf329d12c1ed898710cc8da5d40d8025\n    /* \"Documents/GitHub/Store-system-with-feedback/main.sol\":1031:1096  userAddressArray.push(0xAdA67460CF329D12c1ed898710CC8Da5D40d8025) */\n  or\n  swap1\n  sstore\n    /* \"Documents/GitHub/Store-system-with-feedback/main.sol\":1157:1261  structProduct(0x5412E9b0e4Ef9d1546DF79ae907eeE34bDCF3004, \"asd\", 100*(10**18), addProductShop_idProduct) */\n  0x40\n  dup1\n  mload\n  0x80\n  dup2\n  add\n  dup3\n  mstore\n    /* \"Documents/GitHub/Store-system-with-feedback/main.sol\":1171:1213  0x5412E9b0e4Ef9d1546DF79ae907eeE34bDCF3004 */\n  0x5412e9b0e4ef9d1546df79ae907eee34bdcf3004\n    /* \"Documents/GitHub/Store-system-with-feedback/main.sol\":1157:1261  structProduct(0x5412E9b0e4Ef9d1546DF79ae907eeE34bDCF3004, \"asd\", 100*(10**18), addProductShop_idProduct) */\n  dup2\n  mstore\n  dup2\n  mload\n  dup1\n  dup4\n  add\n  dup4\n  mstore\n  0x03\n  dup2\n  mstore\n  shl(0xea, 0x185cd9)\n    /* \"Documents/GitHub/Store-system-with-feedback/main.sol\":1031:1096  userAddressArray.push(0xAdA67460CF329D12c1ed898710CC8Da5D40d8025) */\n  0x20\n    /* \"Documents/GitHub/Store-system-with-feedback/main.sol\":1157:1261  structProduct(0x5412E9b0e4Ef9d1546DF79ae907eeE34bDCF3004, \"asd\", 100*(10**18), addProductShop_idProduct) */\n  dup3\n  dup2\n  add\n  swap2\n  swap1\n  swap2\n  mstore\n  dup3\n  add\n  mstore\n    /* \"Documents/GitHub/Store-system-with-feedback/main.sol\":1222:1234  100*(10**18) */\n  0x056bc75e2d63100000\n    /* \"Documents/GitHub/Store-system-with-feedback/main.sol\":1157:1261  structProduct(0x5412E9b0e4Ef9d1546DF79ae907eeE34bDCF3004, \"asd\", 100*(10**18), addProductShop_idProduct) */\n  dup2\n  dup4\n  add\n  mstore\n    /* \"Documents/GitHub/Store-system-with-feedback/main.sol\":1236:1260  addProductShop_idProduct */\n  sload(0x0d)\n    /* \"Documents/GitHub/Store-system-with-feedback/main.sol\":1157:1261  structProduct(0x5412E9b0e4Ef9d1546DF79ae907eeE34bDCF3004, \"asd\", 100*(10**18), addProductShop_idProduct) */\n  0x60\n  dup3\n  add\n  mstore\n    /* \"Documents/GitHub/Store-system-with-feedback/main.sol\":1131:1154  structProducts[\"Apple\"] */\n  swap1\n  mload\n    /* \"Documents/GitHub/Store-system-with-feedback/main.sol\":1131:1145  structProducts */\n  0x08\n  swap1\n    /* \"Documents/GitHub/Store-system-with-feedback/main.sol\":1131:1154  structProducts[\"Apple\"] */\n  tag_33\n  swap1\n  shl(0xd8, 0x4170706c65)\n    /* \"#utility.yul\":649:669   */\n  dup2\n  mstore\n    /* \"#utility.yul\":694:695   */\n  0x05\n    /* \"#utility.yul\":685:696   */\n  add\n  swap1\n    /* \"#utility.yul\":447:702   */\n  jump\n    /* \"Documents/GitHub/Store-system-with-feedback/main.sol\":1131:1154  structProducts[\"Apple\"] */\ntag_33:\n  swap1\n  dup2\n  mstore\n  mload(0x40)\n  0x20\n  swap2\n  dup2\n  swap1\n  sub\n  dup3\n  add\n  swap1\n  keccak256\n    /* \"Documents/GitHub/Store-system-with-feedback/main.sol\":1131:1261  structProducts[\"Apple\"] = structProduct(0x5412E9b0e4Ef9d1546DF79ae907eeE34bDCF3004, \"asd\", 100*(10**18), addProductShop_idProduct) */\n  dup3\n  mload\n  dup2\n  sload\n  not(sub(shl(0xa0, 0x01), 0x01))\n  and\n  sub(shl(0xa0, 0x01), 0x01)\n  swap1\n  swap2\n  and\n  or\n  dup2\n  sstore\n  dup3\n  dup3\n  add\n  mload\n  dup1\n  mload\n    /* \"Documents/GitHub/Store-system-with-feedback/main.sol\":1131:1154  structProducts[\"Apple\"] */\n  swap2\n  swap3\n    /* \"Documents/GitHub/Store-system-with-feedback/main.sol\":1131:1261  structProducts[\"Apple\"] = structProduct(0x5412E9b0e4Ef9d1546DF79ae907eeE34bDCF3004, \"asd\", 100*(10**18), addProductShop_idProduct) */\n  tag_35\n  swap3\n  0x01\n  dup6\n  add\n  swap3\n  swap1\n  swap2\n  add\n  swap1\n  tag_9\n  jump\t// in\ntag_35:\n  pop\n  0x40\n  dup3\n  dup2\n  add\n  mload\n  0x02\n  dup4\n  add\n  sstore\n  0x60\n  swap1\n  swap3\n  add\n  mload\n  0x03\n  swap1\n  swap2\n  add\n  sstore\n    /* \"Documents/GitHub/Store-system-with-feedback/main.sol\":1272:1283  productList */\n  0x09\n    /* \"Documents/GitHub/Store-system-with-feedback/main.sol\":1272:1297  productList.push(\"Apple\") */\n  dup1\n  sload\n  0x01\n  dup2\n  add\n  dup3\n  sstore\n  0x00\n  swap2\n  swap1\n  swap2\n  mstore\n  dup2\n  mload\n  dup1\n  dup4\n  add\n  swap1\n  swap3\n  mstore\n  0x05\n  dup1\n  dup4\n  mstore\n  shl(0xd8, 0x4170706c65)\n  0x20\n  swap1\n  swap4\n  add\n  swap3\n  dup4\n  mstore\n  tag_37\n  swap3\n  0x6e1540171b6c0c960b71a7020d9f60077f6af931a8bbf590da0223dacf75c7af\n  swap1\n  swap3\n  add\n  swap2\n  swap1\n  tag_9\n  jump\t// in\ntag_37:\n  pop\n    /* \"Documents/GitHub/Store-system-with-feedback/main.sol\":1308:1332  addProductShop_idProduct */\n  0x0d\n    /* \"Documents/GitHub/Store-system-with-feedback/main.sol\":1308:1334  addProductShop_idProduct++ */\n  dup1\n  sload\n  swap1\n    /* \"Documents/GitHub/Store-system-with-feedback/main.sol\":1308:1332  addProductShop_idProduct */\n  0x00\n    /* \"Documents/GitHub/Store-system-with-feedback/main.sol\":1308:1334  addProductShop_idProduct++ */\n  tag_38\n  dup4\n  tag_39\n  jump\t// in\ntag_38:\n  swap2\n  swap1\n  pop\n  sstore\n  pop\n    /* \"Documents/GitHub/Store-system-with-feedback/main.sol\":74:14340  contract coursepaper {\r... */\n  jump(tag_61)\n    /* \"Documents/GitHub/Store-system-with-feedback/main.sol\":3354:3493  function get_hash(string memory password) public pure returns(bytes32) {\r... */\ntag_7:\n    /* \"Documents/GitHub/Store-system-with-feedback/main.sol\":3416:3423  bytes32 */\n  0x00\n    /* \"Documents/GitHub/Store-system-with-feedback/main.sol\":3474:3482  password */\n  dup2\n    /* \"Documents/GitHub/Store-system-with-feedback/main.sol\":3457:3483  abi.encodePacked(password) */\n  add(0x20, mload(0x40))\n  tag_42\n  swap2\n  swap1\n  tag_43\n  jump\t// in\ntag_42:\n  mload(0x40)\n  0x20\n  dup2\n  dup4\n  sub\n  sub\n  dup2\n  mstore\n  swap1\n  0x40\n  mstore\n    /* \"Documents/GitHub/Store-system-with-feedback/main.sol\":3447:3484  keccak256(abi.encodePacked(password)) */\n  dup1\n  mload\n  swap1\n  0x20\n  add\n  keccak256\n    /* \"Documents/GitHub/Store-system-with-feedback/main.sol\":3440:3485  return(keccak256(abi.encodePacked(password))) */\n  swap1\n  pop\n    /* \"Documents/GitHub/Store-system-with-feedback/main.sol\":3354:3493  function get_hash(string memory password) public pure returns(bytes32) {\r... */\n  swap2\n  swap1\n  pop\n  jump\t// out\n    /* \"Documents/GitHub/Store-system-with-feedback/main.sol\":74:14340  contract coursepaper {\r... */\ntag_9:\n  dup3\n  dup1\n  sload\n  tag_44\n  swap1\n  tag_14\n  jump\t// in\ntag_44:\n  swap1\n  0x00\n  mstore\n  keccak256(0x00, 0x20)\n  swap1\n  0x1f\n  add\n  0x20\n  swap1\n  div\n  dup2\n  add\n  swap3\n  dup3\n  tag_46\n  jumpi\n  0x00\n  dup6\n  sstore\n  jump(tag_49)\ntag_46:\n  dup3\n  0x1f\n  lt\n  tag_47\n  jumpi\n  dup1\n  mload\n  not(0xff)\n  and\n  dup4\n  dup1\n  add\n  or\n  dup6\n  sstore\n  jump(tag_49)\ntag_47:\n  dup3\n  dup1\n  add\n  0x01\n  add\n  dup6\n  sstore\n  dup3\n  iszero\n  tag_49\n  jumpi\n  swap2\n  dup3\n  add\ntag_48:\n  dup3\n  dup2\n  gt\n  iszero\n  tag_49\n  jumpi\n  dup3\n  mload\n  dup3\n  sstore\n  swap2\n  0x20\n  add\n  swap2\n  swap1\n  0x01\n  add\n  swap1\n  jump(tag_48)\ntag_49:\n  pop\n  tag_50\n  swap3\n  swap2\n  pop\n  tag_51\n  jump\t// in\ntag_50:\n  pop\n  swap1\n  jump\t// out\ntag_16:\n  dup3\n  dup1\n  sload\n  tag_52\n  swap1\n  tag_14\n  jump\t// in\ntag_52:\n  swap1\n  0x00\n  mstore\n  keccak256(0x00, 0x20)\n  swap1\n  0x1f\n  add\n  0x20\n  swap1\n  div\n  dup2\n  add\n  swap3\n  dup3\n  tag_54\n  jumpi\n  0x00\n  dup6\n  sstore\n  jump(tag_49)\ntag_54:\n  dup3\n  0x1f\n  lt\n  tag_55\n  jumpi\n  dup1\n  sload\n  dup6\n  sstore\n  jump(tag_49)\ntag_55:\n  dup3\n  dup1\n  add\n  0x01\n  add\n  dup6\n  sstore\n  dup3\n  iszero\n  tag_49\n  jumpi\n  0x00\n  mstore\n  keccak256(0x00, 0x20)\n  swap2\n  0x1f\n  add\n  0x20\n  swap1\n  div\n  dup3\n  add\ntag_56:\n  dup3\n  dup2\n  gt\n  iszero\n  tag_49\n  jumpi\n  dup3\n  sload\n  dup3\n  sstore\n  swap2\n  0x01\n  add\n  swap2\n  swap1\n  0x01\n  add\n  swap1\n  jump(tag_56)\ntag_51:\ntag_59:\n  dup1\n  dup3\n  gt\n  iszero\n  tag_50\n  jumpi\n  0x00\n  dup2\n  sstore\n  0x01\n  add\n  jump(tag_59)\n    /* \"#utility.yul\":14:442   */\ntag_43:\n    /* \"#utility.yul\":145:148   */\n  0x00\n    /* \"#utility.yul\":183:189   */\n  dup3\n    /* \"#utility.yul\":177:190   */\n  mload\n    /* \"#utility.yul\":208:209   */\n  0x00\n    /* \"#utility.yul\":218:347   */\ntag_63:\n    /* \"#utility.yul\":232:238   */\n  dup2\n    /* \"#utility.yul\":229:230   */\n  dup2\n    /* \"#utility.yul\":226:239   */\n  lt\n    /* \"#utility.yul\":218:347   */\n  iszero\n  tag_65\n  jumpi\n    /* \"#utility.yul\":330:334   */\n  0x20\n    /* \"#utility.yul\":314:328   */\n  dup2\n  dup7\n  add\n    /* \"#utility.yul\":310:335   */\n  dup2\n  add\n    /* \"#utility.yul\":304:336   */\n  mload\n    /* \"#utility.yul\":291:302   */\n  dup6\n  dup4\n  add\n    /* \"#utility.yul\":284:337   */\n  mstore\n    /* \"#utility.yul\":247:259   */\n  add\n    /* \"#utility.yul\":218:347   */\n  jump(tag_63)\ntag_65:\n    /* \"#utility.yul\":365:371   */\n  dup2\n    /* \"#utility.yul\":362:363   */\n  dup2\n    /* \"#utility.yul\":359:372   */\n  gt\n    /* \"#utility.yul\":356:404   */\n  iszero\n  tag_66\n  jumpi\n    /* \"#utility.yul\":400:401   */\n  0x00\n    /* \"#utility.yul\":391:397   */\n  dup3\n    /* \"#utility.yul\":386:389   */\n  dup6\n    /* \"#utility.yul\":382:398   */\n  add\n    /* \"#utility.yul\":375:402   */\n  mstore\n    /* \"#utility.yul\":356:404   */\ntag_66:\n  pop\n    /* \"#utility.yul\":420:436   */\n  swap2\n  swap1\n  swap2\n  add\n  swap3\n    /* \"#utility.yul\":14:442   */\n  swap2\n  pop\n  pop\n  jump\t// out\n    /* \"#utility.yul\":1487:1867   */\ntag_14:\n    /* \"#utility.yul\":1566:1567   */\n  0x01\n    /* \"#utility.yul\":1562:1574   */\n  dup2\n  dup2\n  shr\n  swap1\n    /* \"#utility.yul\":1609:1621   */\n  dup3\n  and\n  dup1\n    /* \"#utility.yul\":1630:1691   */\n  tag_72\n  jumpi\n    /* \"#utility.yul\":1684:1688   */\n  0x7f\n    /* \"#utility.yul\":1676:1682   */\n  dup3\n    /* \"#utility.yul\":1672:1689   */\n  and\n    /* \"#utility.yul\":1662:1689   */\n  swap2\n  pop\n    /* \"#utility.yul\":1630:1691   */\ntag_72:\n    /* \"#utility.yul\":1737:1739   */\n  0x20\n    /* \"#utility.yul\":1729:1735   */\n  dup3\n    /* \"#utility.yul\":1726:1740   */\n  lt\n    /* \"#utility.yul\":1706:1724   */\n  dup2\n    /* \"#utility.yul\":1703:1741   */\n  eq\n    /* \"#utility.yul\":1700:1861   */\n  iszero\n  tag_73\n  jumpi\n    /* \"#utility.yul\":1783:1793   */\n  0x4e487b71\n    /* \"#utility.yul\":1778:1781   */\n  0xe0\n    /* \"#utility.yul\":1774:1794   */\n  shl\n    /* \"#utility.yul\":1771:1772   */\n  0x00\n    /* \"#utility.yul\":1764:1795   */\n  mstore\n    /* \"#utility.yul\":1818:1822   */\n  0x22\n    /* \"#utility.yul\":1815:1816   */\n  0x04\n    /* \"#utility.yul\":1808:1823   */\n  mstore\n    /* \"#utility.yul\":1846:1850   */\n  0x24\n    /* \"#utility.yul\":1843:1844   */\n  0x00\n    /* \"#utility.yul\":1836:1851   */\n  revert\n    /* \"#utility.yul\":1700:1861   */\ntag_73:\n  pop\n    /* \"#utility.yul\":1487:1867   */\n  swap2\n  swap1\n  pop\n  jump\t// out\n    /* \"#utility.yul\":1872:2104   */\ntag_39:\n    /* \"#utility.yul\":1911:1914   */\n  0x00\n  not(0x00)\n    /* \"#utility.yul\":1932:1949   */\n  dup3\n  eq\n    /* \"#utility.yul\":1929:2069   */\n  iszero\n  tag_75\n  jumpi\n    /* \"#utility.yul\":1991:2001   */\n  0x4e487b71\n    /* \"#utility.yul\":1986:1989   */\n  0xe0\n    /* \"#utility.yul\":1982:2002   */\n  shl\n    /* \"#utility.yul\":1979:1980   */\n  0x00\n    /* \"#utility.yul\":1972:2003   */\n  mstore\n    /* \"#utility.yul\":2026:2030   */\n  0x11\n    /* \"#utility.yul\":2023:2024   */\n  0x04\n    /* \"#utility.yul\":2016:2031   */\n  mstore\n    /* \"#utility.yul\":2054:2058   */\n  0x24\n    /* \"#utility.yul\":2051:2052   */\n  0x00\n    /* \"#utility.yul\":2044:2059   */\n  revert\n    /* \"#utility.yul\":1929:2069   */\ntag_75:\n  pop\n    /* \"#utility.yul\":2096:2097   */\n  0x01\n    /* \"#utility.yul\":2085:2098   */\n  add\n  swap1\n    /* \"#utility.yul\":1872:2104   */\n  jump\t// out\ntag_61:\n    /* \"Documents/GitHub/Store-system-with-feedback/main.sol\":74:14340  contract coursepaper {\r... */\n  dataSize(sub_0)\n  dup1\n  dataOffset(sub_0)\n  0x00\n  codecopy\n  0x00\n  return\nstop\ndata_02d9cdcbcfa4cd8c6761b1b14b7bfe8ce5c69d2b558fc8eef153a2c2ff25ae65 b5b2e77f7cc5f741808c088fc930a78382cbc738160d08c471b4672fc39743aa\ndata_1ab0c6948a275349ae45a06aad66a8bd65ac18074615d53676c09b67809099e0 405787fa12a823e0f2b7631cc41b3ba8828b3321ca811111fa75cd3aa3bb5ace\ndata_f9525e0112460024fbe4d5a34594c1701ce0e90aeee55f3b18c9114979275102 418456ba3c801fd0a494a221a407852a26db46c4f8395142565b3b3cd0653b99\n\nsub_0: assembly {\n        /* \"Documents/GitHub/Store-system-with-feedback/main.sol\":74:14340  contract coursepaper {\r... */\n      mstore(0x40, 0x80)\n      jumpi(tag_1, lt(calldatasize, 0x04))\n      shr(0xe0, calldataload(0x00))\n      dup1\n      0x033ff0b8\n      eq\n      tag_2\n      jumpi\n      dup1\n      0x04ac16f6\n      eq\n      tag_3\n      jumpi\n      dup1\n      0x0e1c81b2\n      eq\n      tag_4\n      jumpi\n      dup1\n      0x146dc6ed\n      eq\n      tag_5\n      jumpi\n      dup1\n      0x1bbe970a\n      eq\n      tag_6\n      jumpi\n      dup1\n      0x1e279a37\n      eq\n      tag_7\n      jumpi\n      dup1\n      0x1f8daac8\n      eq\n      tag_8\n      jumpi\n      dup1\n      0x29e795f3\n      eq\n      tag_9\n      jumpi\n      dup1\n      0x3b84aedc\n      eq\n      tag_10\n      jumpi\n      dup1\n      0x521b9170\n      eq\n      tag_11\n      jumpi\n      dup1\n      0x55149fd5\n      eq\n      tag_12\n      jumpi\n      dup1\n      0x5828c584\n      eq\n      tag_13\n      jumpi\n      dup1\n      0x5bbc9a3f\n      eq\n      tag_14\n      jumpi\n      dup1\n      0x5bd37c9e\n      eq\n      tag_15\n      jumpi\n      dup1\n      0x5bdb63fa\n      eq\n      tag_16\n      jumpi\n      dup1\n      0x6ba44d3c\n      eq\n      tag_17\n      jumpi\n      dup1\n      0x6c05dd1d\n      eq\n      tag_18\n      jumpi\n      dup1\n      0x7033a382\n      eq\n      tag_19\n      jumpi\n      dup1\n      0x73b62bd0\n      eq\n      tag_20\n      jumpi\n      dup1\n      0x775eb9e6\n      eq\n      tag_21\n      jumpi\n      dup1\n      0x845952a8\n      eq\n      tag_22\n      jumpi\n      dup1\n      0x87048043\n      eq\n      tag_23\n      jumpi\n      dup1\n      0x8e23cb40\n      eq\n      tag_24\n      jumpi\n      dup1\n      0x961865f0\n      eq\n      tag_25\n      jumpi\n      dup1\n      0xa333797f\n      eq\n      tag_26\n      jumpi\n      dup1\n      0xa985036d\n      eq\n      tag_27\n      jumpi\n      dup1\n      0xa9f9482b\n      eq\n      tag_28\n      jumpi\n      dup1\n      0xbbd43363\n      eq\n      tag_29\n      jumpi\n      dup1\n      0xc4957fa0\n      eq\n      tag_30\n      jumpi\n      dup1\n      0xcc21c188\n      eq\n      tag_31\n      jumpi\n      dup1\n      0xd22d9020\n      eq\n      tag_32\n      jumpi\n      dup1\n      0xd68cf8c1\n      eq\n      tag_33\n      jumpi\n      dup1\n      0xdce39151\n      eq\n      tag_34\n      jumpi\n      dup1\n      0xf7647f36\n      eq\n      tag_35\n      jumpi\n    tag_1:\n      0x00\n      dup1\n      revert\n        /* \"Documents/GitHub/Store-system-with-feedback/main.sol\":2139:2278  function get_role_shop(string memory login) public view returns(uint) {\r... */\n    tag_2:\n      callvalue\n      dup1\n      iszero\n      tag_36\n      jumpi\n      0x00\n      dup1\n      revert\n    tag_36:\n      pop\n      tag_37\n      tag_38\n      calldatasize\n      0x04\n      tag_39\n      jump\t// in\n    tag_38:\n      tag_40\n      jump\t// in\n    tag_37:\n      mload(0x40)\n        /* \"#utility.yul\":9813:9838   */\n      swap1\n      dup2\n      mstore\n        /* \"#utility.yul\":9801:9803   */\n      0x20\n        /* \"#utility.yul\":9786:9804   */\n      add\n        /* \"Documents/GitHub/Store-system-with-feedback/main.sol\":2139:2278  function get_role_shop(string memory login) public view returns(uint) {\r... */\n    tag_41:\n      mload(0x40)\n      dup1\n      swap2\n      sub\n      swap1\n      return\n        /* \"Documents/GitHub/Store-system-with-feedback/main.sol\":11062:11177  function login_out_shop(string memory login) public {\r... */\n    tag_3:\n      callvalue\n      dup1\n      iszero\n      tag_43\n      jumpi\n      0x00\n      dup1\n      revert\n    tag_43:\n      pop\n      tag_44\n      tag_45\n      calldatasize\n      0x04\n      tag_39\n      jump\t// in\n    tag_45:\n      tag_46\n      jump\t// in\n    tag_44:\n      stop\n        /* \"Documents/GitHub/Store-system-with-feedback/main.sol\":13265:13587  function create_user(address addr, string memory login, bytes32 password) public {\r... */\n    tag_4:\n      callvalue\n      dup1\n      iszero\n      tag_47\n      jumpi\n      0x00\n      dup1\n      revert\n    tag_47:\n      pop\n      tag_44\n      tag_49\n      calldatasize\n      0x04\n      tag_50\n      jump\t// in\n    tag_49:\n      tag_51\n      jump\t// in\n        /* \"Documents/GitHub/Store-system-with-feedback/main.sol\":11266:11534  function productPurchases(string memory titleProduct) public payable {\r... */\n    tag_5:\n      tag_44\n      tag_53\n      calldatasize\n      0x04\n      tag_39\n      jump\t// in\n    tag_53:\n      tag_54\n      jump\t// in\n        /* \"Documents/GitHub/Store-system-with-feedback/main.sol\":4960:5010  mapping(string => address) public structUserLogins */\n    tag_6:\n      callvalue\n      dup1\n      iszero\n      tag_55\n      jumpi\n      0x00\n      dup1\n      revert\n    tag_55:\n      pop\n      tag_56\n      tag_57\n      calldatasize\n      0x04\n      tag_39\n      jump\t// in\n    tag_57:\n      dup1\n      mload\n      0x20\n      dup2\n      dup4\n      add\n      dup2\n      add\n      dup1\n      mload\n      0x05\n      dup3\n      mstore\n      swap3\n      dup3\n      add\n      swap2\n      swap1\n      swap4\n      add\n      keccak256\n      swap2\n      mstore\n      sload\n      sub(shl(0xa0, 0x01), 0x01)\n      and\n      dup2\n      jump\n    tag_56:\n      mload(0x40)\n      sub(shl(0xa0, 0x01), 0x01)\n        /* \"#utility.yul\":7278:7310   */\n      swap1\n      swap2\n      and\n        /* \"#utility.yul\":7260:7311   */\n      dup2\n      mstore\n        /* \"#utility.yul\":7248:7250   */\n      0x20\n        /* \"#utility.yul\":7233:7251   */\n      add\n        /* \"Documents/GitHub/Store-system-with-feedback/main.sol\":4960:5010  mapping(string => address) public structUserLogins */\n      tag_41\n        /* \"#utility.yul\":7114:7317   */\n      jump\n        /* \"Documents/GitHub/Store-system-with-feedback/main.sol\":3150:3287  function get_balance(address adr) public view returns (uint) {\r... */\n    tag_7:\n      callvalue\n      dup1\n      iszero\n      tag_61\n      jumpi\n      0x00\n      dup1\n      revert\n    tag_61:\n      pop\n      tag_37\n      tag_63\n      calldatasize\n      0x04\n      tag_64\n      jump\t// in\n    tag_63:\n      sub(shl(0xa0, 0x01), 0x01)\n        /* \"Documents/GitHub/Store-system-with-feedback/main.sol\":3240:3251  adr.balance */\n      and\n      balance\n      swap1\n        /* \"Documents/GitHub/Store-system-with-feedback/main.sol\":3150:3287  function get_balance(address adr) public view returns (uint) {\r... */\n      jump\n        /* \"Documents/GitHub/Store-system-with-feedback/main.sol\":1507:1611  function get_shop_list() public view returns(string[] memory) {\r... */\n    tag_8:\n      callvalue\n      dup1\n      iszero\n      tag_67\n      jumpi\n      0x00\n      dup1\n      revert\n    tag_67:\n      pop\n      tag_68\n      tag_69\n      jump\t// in\n    tag_68:\n      mload(0x40)\n      tag_41\n      swap2\n      swap1\n      tag_71\n      jump\t// in\n        /* \"Documents/GitHub/Store-system-with-feedback/main.sol\":10080:10499  function leaveComment (string memory userName, string[] memory comment) public {\r... */\n    tag_9:\n      callvalue\n      dup1\n      iszero\n      tag_72\n      jumpi\n      0x00\n      dup1\n      revert\n    tag_72:\n      pop\n      tag_44\n      tag_74\n      calldatasize\n      0x04\n      tag_75\n      jump\t// in\n    tag_74:\n      tag_76\n      jump\t// in\n        /* \"Documents/GitHub/Store-system-with-feedback/main.sol\":1906:2051  function check_logged_shop(string memory login) public view returns(bool) {\r... */\n    tag_10:\n      callvalue\n      dup1\n      iszero\n      tag_77\n      jumpi\n      0x00\n      dup1\n      revert\n    tag_77:\n      pop\n      tag_78\n      tag_79\n      calldatasize\n      0x04\n      tag_39\n      jump\t// in\n    tag_79:\n      tag_80\n      jump\t// in\n    tag_78:\n      mload(0x40)\n        /* \"#utility.yul\":9640:9654   */\n      swap1\n      iszero\n        /* \"#utility.yul\":9633:9655   */\n      iszero\n        /* \"#utility.yul\":9615:9656   */\n      dup2\n      mstore\n        /* \"#utility.yul\":9603:9605   */\n      0x20\n        /* \"#utility.yul\":9588:9606   */\n      add\n        /* \"Documents/GitHub/Store-system-with-feedback/main.sol\":1906:2051  function check_logged_shop(string memory login) public view returns(bool) {\r... */\n      tag_41\n        /* \"#utility.yul\":9475:9662   */\n      jump\n        /* \"Documents/GitHub/Store-system-with-feedback/main.sol\":14194:14316  function login_out_user(string memory login) public {\r... */\n    tag_11:\n      callvalue\n      dup1\n      iszero\n      tag_83\n      jumpi\n      0x00\n      dup1\n      revert\n    tag_83:\n      pop\n      tag_44\n      tag_85\n      calldatasize\n      0x04\n      tag_39\n      jump\t// in\n    tag_85:\n      tag_86\n      jump\t// in\n        /* \"Documents/GitHub/Store-system-with-feedback/main.sol\":2370:2509  function get_city(string memory login) public view returns(string memory) {\r... */\n    tag_12:\n      callvalue\n      dup1\n      iszero\n      tag_87\n      jumpi\n      0x00\n      dup1\n      revert\n    tag_87:\n      pop\n      tag_88\n      tag_89\n      calldatasize\n      0x04\n      tag_39\n      jump\t// in\n    tag_89:\n      tag_90\n      jump\t// in\n    tag_88:\n      mload(0x40)\n      tag_41\n      swap2\n      swap1\n      tag_92\n      jump\t// in\n        /* \"Documents/GitHub/Store-system-with-feedback/main.sol\":12618:13195  function productMarriage(string memory titleProduct) public {\r... */\n    tag_13:\n      callvalue\n      dup1\n      iszero\n      tag_93\n      jumpi\n      0x00\n      dup1\n      revert\n    tag_93:\n      pop\n      tag_44\n      tag_95\n      calldatasize\n      0x04\n      tag_39\n      jump\t// in\n    tag_95:\n      tag_96\n      jump\t// in\n        /* \"Documents/GitHub/Store-system-with-feedback/main.sol\":2679:2831  function check_logged_user(string memory login) public view returns(bool) {\r... */\n    tag_14:\n      callvalue\n      dup1\n      iszero\n      tag_97\n      jumpi\n      0x00\n      dup1\n      revert\n    tag_97:\n      pop\n      tag_78\n      tag_99\n      calldatasize\n      0x04\n      tag_39\n      jump\t// in\n    tag_99:\n      tag_100\n      jump\t// in\n        /* \"Documents/GitHub/Store-system-with-feedback/main.sol\":1698:1808  function get_product_list() public view returns(string[] memory) {\r... */\n    tag_15:\n      callvalue\n      dup1\n      iszero\n      tag_102\n      jumpi\n      0x00\n      dup1\n      revert\n    tag_102:\n      pop\n      tag_68\n      tag_104\n      jump\t// in\n        /* \"Documents/GitHub/Store-system-with-feedback/main.sol\":2927:3073  function get_role_user(string memory login) public view returns(uint) {\r... */\n    tag_16:\n      callvalue\n      dup1\n      iszero\n      tag_106\n      jumpi\n      0x00\n      dup1\n      revert\n    tag_106:\n      pop\n      tag_37\n      tag_108\n      calldatasize\n      0x04\n      tag_39\n      jump\t// in\n    tag_108:\n      tag_109\n      jump\t// in\n        /* \"Documents/GitHub/Store-system-with-feedback/main.sol\":3571:3858  function get_address(string memory login) public view returns(address) {\r... */\n    tag_17:\n      callvalue\n      dup1\n      iszero\n      tag_111\n      jumpi\n      0x00\n      dup1\n      revert\n    tag_111:\n      pop\n      tag_56\n      tag_113\n      calldatasize\n      0x04\n      tag_39\n      jump\t// in\n    tag_113:\n      tag_114\n      jump\t// in\n        /* \"Documents/GitHub/Store-system-with-feedback/main.sol\":6258:6548  function addProductShop (string memory title, uint256 price, string memory description) public {\r... */\n    tag_18:\n      callvalue\n      dup1\n      iszero\n      tag_116\n      jumpi\n      0x00\n      dup1\n      revert\n    tag_116:\n      pop\n      tag_44\n      tag_118\n      calldatasize\n      0x04\n      tag_119\n      jump\t// in\n    tag_118:\n      tag_120\n      jump\t// in\n        /* \"Documents/GitHub/Store-system-with-feedback/main.sol\":11608:11921  function refusalToPurchase (uint idPurchase) public payable {\r... */\n    tag_19:\n      tag_44\n      tag_122\n      calldatasize\n      0x04\n      tag_123\n      jump\t// in\n    tag_122:\n      tag_124\n      jump\t// in\n        /* \"Documents/GitHub/Store-system-with-feedback/main.sol\":6058:6109  structStatusMarriage[] public structStatusMarriages */\n    tag_20:\n      callvalue\n      dup1\n      iszero\n      tag_125\n      jumpi\n      0x00\n      dup1\n      revert\n    tag_125:\n      pop\n      tag_126\n      tag_127\n      calldatasize\n      0x04\n      tag_123\n      jump\t// in\n    tag_127:\n      tag_128\n      jump\t// in\n    tag_126:\n      mload(0x40)\n      tag_41\n      swap4\n      swap3\n      swap2\n      swap1\n      tag_130\n      jump\t// in\n        /* \"Documents/GitHub/Store-system-with-feedback/main.sol\":10579:10981  function login_shop(string memory login, bytes32 password) public {\r... */\n    tag_21:\n      callvalue\n      dup1\n      iszero\n      tag_131\n      jumpi\n      0x00\n      dup1\n      revert\n    tag_131:\n      pop\n      tag_44\n      tag_133\n      calldatasize\n      0x04\n      tag_134\n      jump\t// in\n    tag_133:\n      tag_135\n      jump\t// in\n        /* \"Documents/GitHub/Store-system-with-feedback/main.sol\":3354:3493  function get_hash(string memory password) public pure returns(bytes32) {\r... */\n    tag_22:\n      callvalue\n      dup1\n      iszero\n      tag_136\n      jumpi\n      0x00\n      dup1\n      revert\n    tag_136:\n      pop\n      tag_37\n      tag_138\n      calldatasize\n      0x04\n      tag_39\n      jump\t// in\n    tag_138:\n      tag_139\n      jump\t// in\n        /* \"Documents/GitHub/Store-system-with-feedback/main.sol\":8524:9047  function acceptMarriage(uint idMarriage, bool confirmation) public payable {\r... */\n    tag_23:\n      tag_44\n      tag_143\n      calldatasize\n      0x04\n      tag_144\n      jump\t// in\n    tag_143:\n      tag_145\n      jump\t// in\n        /* \"Documents/GitHub/Store-system-with-feedback/main.sol\":4220:4270  mapping (address => structShop) public structShops */\n    tag_24:\n      callvalue\n      dup1\n      iszero\n      tag_146\n      jumpi\n      0x00\n      dup1\n      revert\n    tag_146:\n      pop\n      tag_147\n      tag_148\n      calldatasize\n      0x04\n      tag_64\n      jump\t// in\n    tag_148:\n      tag_149\n      jump\t// in\n    tag_147:\n      mload(0x40)\n      tag_41\n      swap8\n      swap7\n      swap6\n      swap5\n      swap4\n      swap3\n      swap2\n      swap1\n      tag_151\n      jump\t// in\n        /* \"Documents/GitHub/Store-system-with-feedback/main.sol\":4904:4953  mapping(address => structUser) public structUsers */\n    tag_25:\n      callvalue\n      dup1\n      iszero\n      tag_152\n      jumpi\n      0x00\n      dup1\n      revert\n    tag_152:\n      pop\n      tag_153\n      tag_154\n      calldatasize\n      0x04\n      tag_64\n      jump\t// in\n    tag_154:\n      tag_155\n      jump\t// in\n    tag_153:\n      mload(0x40)\n      tag_41\n      swap5\n      swap4\n      swap3\n      swap2\n      swap1\n      tag_157\n      jump\t// in\n        /* \"Documents/GitHub/Store-system-with-feedback/main.sol\":7970:8466  function acceptReturn(uint idReturn, uint confirmation) public payable {\r... */\n    tag_26:\n      tag_44\n      tag_159\n      calldatasize\n      0x04\n      tag_160\n      jump\t// in\n    tag_159:\n      tag_161\n      jump\t// in\n        /* \"Documents/GitHub/Store-system-with-feedback/main.sol\":9130:9983  function getStoryRating(string memory shopName) public view returns(uint) {\r... */\n    tag_27:\n      callvalue\n      dup1\n      iszero\n      tag_162\n      jumpi\n      0x00\n      dup1\n      revert\n    tag_162:\n      pop\n      tag_37\n      tag_164\n      calldatasize\n      0x04\n      tag_39\n      jump\t// in\n    tag_164:\n      tag_165\n      jump\t// in\n        /* \"Documents/GitHub/Store-system-with-feedback/main.sol\":5805:5852  structStatusReturn[] public structStatusReturns */\n    tag_28:\n      callvalue\n      dup1\n      iszero\n      tag_167\n      jumpi\n      0x00\n      dup1\n      revert\n    tag_167:\n      pop\n      tag_126\n      tag_169\n      calldatasize\n      0x04\n      tag_123\n      jump\t// in\n    tag_169:\n      tag_170\n      jump\t// in\n        /* \"Documents/GitHub/Store-system-with-feedback/main.sol\":11987:12558  function productReturn(string memory titleProduct) public {\r... */\n    tag_29:\n      callvalue\n      dup1\n      iszero\n      tag_172\n      jumpi\n      0x00\n      dup1\n      revert\n    tag_172:\n      pop\n      tag_44\n      tag_174\n      calldatasize\n      0x04\n      tag_39\n      jump\t// in\n    tag_174:\n      tag_175\n      jump\t// in\n        /* \"Documents/GitHub/Store-system-with-feedback/main.sol\":4277:4320  mapping(string => address) public shopLists */\n    tag_30:\n      callvalue\n      dup1\n      iszero\n      tag_176\n      jumpi\n      0x00\n      dup1\n      revert\n    tag_176:\n      pop\n      tag_56\n      tag_178\n      calldatasize\n      0x04\n      tag_39\n      jump\t// in\n    tag_178:\n      dup1\n      mload\n      0x20\n      dup2\n      dup4\n      add\n      dup2\n      add\n      dup1\n      mload\n      0x01\n      dup3\n      mstore\n      swap3\n      dup3\n      add\n      swap2\n      swap1\n      swap4\n      add\n      keccak256\n      swap2\n      mstore\n      sload\n      sub(shl(0xa0, 0x01), 0x01)\n      and\n      dup2\n      jump\n        /* \"Documents/GitHub/Store-system-with-feedback/main.sol\":6623:7211  function leaveFeedback (string memory shop, string memory feedback, uint256 rating) public {\r... */\n    tag_31:\n      callvalue\n      dup1\n      iszero\n      tag_181\n      jumpi\n      0x00\n      dup1\n      revert\n    tag_181:\n      pop\n      tag_44\n      tag_183\n      calldatasize\n      0x04\n      tag_184\n      jump\t// in\n    tag_183:\n      tag_185\n      jump\t// in\n        /* \"Documents/GitHub/Store-system-with-feedback/main.sol\":13675:14105  function login_user(string memory login, bytes32 password) public {\r... */\n    tag_32:\n      callvalue\n      dup1\n      iszero\n      tag_186\n      jumpi\n      0x00\n      dup1\n      revert\n    tag_186:\n      pop\n      tag_44\n      tag_188\n      calldatasize\n      0x04\n      tag_134\n      jump\t// in\n    tag_188:\n      tag_189\n      jump\t// in\n        /* \"Documents/GitHub/Store-system-with-feedback/main.sol\":5260:5314  mapping(string => structProduct) public structProducts */\n    tag_33:\n      callvalue\n      dup1\n      iszero\n      tag_190\n      jumpi\n      0x00\n      dup1\n      revert\n    tag_190:\n      pop\n      tag_191\n      tag_192\n      calldatasize\n      0x04\n      tag_39\n      jump\t// in\n    tag_192:\n      tag_193\n      jump\t// in\n    tag_191:\n      mload(0x40)\n      tag_41\n      swap5\n      swap4\n      swap3\n      swap2\n      swap1\n      tag_195\n      jump\t// in\n        /* \"Documents/GitHub/Store-system-with-feedback/main.sol\":5567:5618  structStatusPurchase[] public structStatusPurchases */\n    tag_34:\n      callvalue\n      dup1\n      iszero\n      tag_196\n      jumpi\n      0x00\n      dup1\n      revert\n    tag_196:\n      pop\n      tag_197\n      tag_198\n      calldatasize\n      0x04\n      tag_123\n      jump\t// in\n    tag_198:\n      tag_199\n      jump\t// in\n    tag_197:\n      mload(0x40)\n      tag_41\n      swap5\n      swap4\n      swap3\n      swap2\n      swap1\n      tag_201\n      jump\t// in\n        /* \"Documents/GitHub/Store-system-with-feedback/main.sol\":7273:7906  function acceptPurchase (uint idPurchase, uint confirmation) public payable {\r... */\n    tag_35:\n      tag_44\n      tag_203\n      calldatasize\n      0x04\n      tag_160\n      jump\t// in\n    tag_203:\n      tag_204\n      jump\t// in\n        /* \"Documents/GitHub/Store-system-with-feedback/main.sol\":2139:2278  function get_role_shop(string memory login) public view returns(uint) {\r... */\n    tag_40:\n        /* \"Documents/GitHub/Store-system-with-feedback/main.sol\":2203:2207  uint */\n      0x00\n        /* \"Documents/GitHub/Store-system-with-feedback/main.sol\":2231:2242  structShops */\n      dup1\n        /* \"Documents/GitHub/Store-system-with-feedback/main.sol\":2231:2260  structShops[shopLists[login]] */\n      0x00\n        /* \"Documents/GitHub/Store-system-with-feedback/main.sol\":2243:2252  shopLists */\n      0x01\n        /* \"Documents/GitHub/Store-system-with-feedback/main.sol\":2253:2258  login */\n      dup5\n        /* \"Documents/GitHub/Store-system-with-feedback/main.sol\":2243:2259  shopLists[login] */\n      mload(0x40)\n      tag_206\n      swap2\n      swap1\n      tag_207\n      jump\t// in\n    tag_206:\n      swap1\n      dup2\n      mstore\n      0x40\n      dup1\n      mload\n      0x20\n      swap3\n      dup2\n      swap1\n      sub\n      dup4\n      add\n      swap1\n      keccak256\n      sload\n      sub(shl(0xa0, 0x01), 0x01)\n      and\n        /* \"Documents/GitHub/Store-system-with-feedback/main.sol\":2231:2260  structShops[shopLists[login]] */\n      dup4\n      mstore\n      swap1\n      dup3\n      add\n      swap3\n      swap1\n      swap3\n      mstore\n      add\n      0x00\n      keccak256\n        /* \"Documents/GitHub/Store-system-with-feedback/main.sol\":2231:2265  structShops[shopLists[login]].role */\n      0x02\n      add\n      sload\n      swap3\n      swap2\n      pop\n      pop\n        /* \"Documents/GitHub/Store-system-with-feedback/main.sol\":2139:2278  function get_role_shop(string memory login) public view returns(uint) {\r... */\n      jump\t// out\n        /* \"Documents/GitHub/Store-system-with-feedback/main.sol\":11062:11177  function login_out_shop(string memory login) public {\r... */\n    tag_46:\n        /* \"Documents/GitHub/Store-system-with-feedback/main.sol\":11164:11169  false */\n      0x00\n        /* \"Documents/GitHub/Store-system-with-feedback/main.sol\":11125:11136  structShops */\n      dup1\n        /* \"Documents/GitHub/Store-system-with-feedback/main.sol\":11125:11154  structShops[shopLists[login]] */\n      0x00\n        /* \"Documents/GitHub/Store-system-with-feedback/main.sol\":11137:11146  shopLists */\n      0x01\n        /* \"Documents/GitHub/Store-system-with-feedback/main.sol\":11147:11152  login */\n      dup5\n        /* \"Documents/GitHub/Store-system-with-feedback/main.sol\":11137:11153  shopLists[login] */\n      mload(0x40)\n      tag_209\n      swap2\n      swap1\n      tag_207\n      jump\t// in\n    tag_209:\n      swap1\n      dup2\n      mstore\n      0x40\n      dup1\n      mload\n      0x20\n      swap3\n      dup2\n      swap1\n      sub\n      dup4\n      add\n      swap1\n      keccak256\n      sload\n      sub(shl(0xa0, 0x01), 0x01)\n      and\n        /* \"Documents/GitHub/Store-system-with-feedback/main.sol\":11125:11154  structShops[shopLists[login]] */\n      dup4\n      mstore\n      swap1\n      dup3\n      add\n      swap3\n      swap1\n      swap3\n      mstore\n      add\n      0x00\n      keccak256\n        /* \"Documents/GitHub/Store-system-with-feedback/main.sol\":11125:11161  structShops[shopLists[login]].logged */\n      0x03\n      add\n        /* \"Documents/GitHub/Store-system-with-feedback/main.sol\":11125:11169  structShops[shopLists[login]].logged = false */\n      dup1\n      sload\n      not(0xff)\n      and\n      swap2\n      iszero\n      iszero\n      swap2\n      swap1\n      swap2\n      or\n      swap1\n      sstore\n      pop\n        /* \"Documents/GitHub/Store-system-with-feedback/main.sol\":11062:11177  function login_out_shop(string memory login) public {\r... */\n      jump\t// out\n        /* \"Documents/GitHub/Store-system-with-feedback/main.sol\":13265:13587  function create_user(address addr, string memory login, bytes32 password) public {\r... */\n    tag_51:\n        /* \"Documents/GitHub/Store-system-with-feedback/main.sol\":13400:13401  0 */\n      0x00\n      sub(shl(0xa0, 0x01), 0x01)\n        /* \"Documents/GitHub/Store-system-with-feedback/main.sol\":13365:13402  structUserLogins[login] == address(0) */\n      and\n        /* \"Documents/GitHub/Store-system-with-feedback/main.sol\":13365:13381  structUserLogins */\n      0x05\n        /* \"Documents/GitHub/Store-system-with-feedback/main.sol\":13382:13387  login */\n      dup4\n        /* \"Documents/GitHub/Store-system-with-feedback/main.sol\":13365:13388  structUserLogins[login] */\n      mload(0x40)\n      tag_211\n      swap2\n      swap1\n      tag_207\n      jump\t// in\n    tag_211:\n      swap1\n      dup2\n      mstore\n      mload(0x40)\n      swap1\n      dup2\n      swap1\n      sub\n      0x20\n      add\n      swap1\n      keccak256\n      sload\n      sub(shl(0xa0, 0x01), 0x01)\n      and\n        /* \"Documents/GitHub/Store-system-with-feedback/main.sol\":13365:13402  structUserLogins[login] == address(0) */\n      eq\n        /* \"Documents/GitHub/Store-system-with-feedback/main.sol\":13357:13432  require(structUserLogins[login] == address(0), \"Error: User already exist\") */\n      tag_212\n      jumpi\n      mload(0x40)\n      shl(0xe5, 0x461bcd)\n      dup2\n      mstore\n        /* \"#utility.yul\":11576:11578   */\n      0x20\n        /* \"Documents/GitHub/Store-system-with-feedback/main.sol\":13357:13432  require(structUserLogins[login] == address(0), \"Error: User already exist\") */\n      0x04\n      dup3\n      add\n        /* \"#utility.yul\":11558:11579   */\n      mstore\n        /* \"#utility.yul\":11615:11617   */\n      0x19\n        /* \"#utility.yul\":11595:11613   */\n      0x24\n      dup3\n      add\n        /* \"#utility.yul\":11588:11618   */\n      mstore\n      shl(0x3a, 0x115c9c9bdc8e88155cd95c88185b1c9958591e48195e1a5cdd)\n        /* \"#utility.yul\":11634:11652   */\n      0x44\n      dup3\n      add\n        /* \"#utility.yul\":11627:11682   */\n      mstore\n        /* \"#utility.yul\":11699:11717   */\n      0x64\n      add\n        /* \"Documents/GitHub/Store-system-with-feedback/main.sol\":13357:13432  require(structUserLogins[login] == address(0), \"Error: User already exist\") */\n    tag_213:\n      mload(0x40)\n      dup1\n      swap2\n      sub\n      swap1\n      revert\n    tag_212:\n        /* \"Documents/GitHub/Store-system-with-feedback/main.sol\":13463:13500  structUser(login, password, 2, false) */\n      0x40\n      dup1\n      mload\n      0x80\n      dup2\n      add\n      dup3\n      mstore\n      dup4\n      dup2\n      mstore\n      0x20\n      dup1\n      dup3\n      add\n      dup5\n      swap1\n      mstore\n        /* \"Documents/GitHub/Store-system-with-feedback/main.sol\":13491:13492  2 */\n      0x02\n        /* \"Documents/GitHub/Store-system-with-feedback/main.sol\":13463:13500  structUser(login, password, 2, false) */\n      dup3\n      dup5\n      add\n      mstore\n      0x00\n      0x60\n      dup4\n      add\n      dup2\n      swap1\n      mstore\n      sub(shl(0xa0, 0x01), 0x01)\n        /* \"Documents/GitHub/Store-system-with-feedback/main.sol\":13443:13460  structUsers[addr] */\n      dup8\n      and\n      dup2\n      mstore\n        /* \"Documents/GitHub/Store-system-with-feedback/main.sol\":13443:13454  structUsers */\n      0x04\n        /* \"Documents/GitHub/Store-system-with-feedback/main.sol\":13443:13460  structUsers[addr] */\n      dup3\n      mstore\n      swap3\n      swap1\n      swap3\n      keccak256\n        /* \"Documents/GitHub/Store-system-with-feedback/main.sol\":13443:13500  structUsers[addr] = structUser(login, password, 2, false) */\n      dup2\n      mload\n      dup1\n      mload\n        /* \"Documents/GitHub/Store-system-with-feedback/main.sol\":13463:13500  structUser(login, password, 2, false) */\n      swap3\n      swap4\n        /* \"Documents/GitHub/Store-system-with-feedback/main.sol\":13443:13460  structUsers[addr] */\n      swap2\n      swap3\n        /* \"Documents/GitHub/Store-system-with-feedback/main.sol\":13443:13500  structUsers[addr] = structUser(login, password, 2, false) */\n      tag_215\n      swap3\n        /* \"Documents/GitHub/Store-system-with-feedback/main.sol\":13443:13460  structUsers[addr] */\n      dup5\n      swap3\n        /* \"Documents/GitHub/Store-system-with-feedback/main.sol\":13443:13500  structUsers[addr] = structUser(login, password, 2, false) */\n      add\n      swap1\n      tag_216\n      jump\t// in\n    tag_215:\n      pop\n      0x20\n      dup3\n      add\n      mload\n      0x01\n      dup3\n      add\n      sstore\n      0x40\n      dup1\n      dup4\n      add\n      mload\n      0x02\n      dup4\n      add\n      sstore\n      0x60\n      swap1\n      swap3\n      add\n      mload\n      0x03\n      swap1\n      swap2\n      add\n      dup1\n      sload\n      not(0xff)\n      and\n      swap2\n      iszero\n      iszero\n      swap2\n      swap1\n      swap2\n      or\n      swap1\n      sstore\n        /* \"Documents/GitHub/Store-system-with-feedback/main.sol\":13511:13534  structUserLogins[login] */\n      mload\n        /* \"Documents/GitHub/Store-system-with-feedback/main.sol\":13537:13541  addr */\n      dup4\n      swap1\n        /* \"Documents/GitHub/Store-system-with-feedback/main.sol\":13511:13527  structUserLogins */\n      0x05\n      swap1\n        /* \"Documents/GitHub/Store-system-with-feedback/main.sol\":13511:13534  structUserLogins[login] */\n      tag_217\n      swap1\n        /* \"Documents/GitHub/Store-system-with-feedback/main.sol\":13528:13533  login */\n      dup6\n      swap1\n        /* \"Documents/GitHub/Store-system-with-feedback/main.sol\":13511:13534  structUserLogins[login] */\n      tag_207\n      jump\t// in\n    tag_217:\n      swap1\n      dup2\n      mstore\n      mload(0x40)\n      swap1\n      dup2\n      swap1\n      sub\n      0x20\n      add\n      swap1\n      keccak256\n        /* \"Documents/GitHub/Store-system-with-feedback/main.sol\":13511:13541  structUserLogins[login] = addr */\n      dup1\n      sload\n      sub(shl(0xa0, 0x01), 0x01)\n      swap3\n      dup4\n      and\n      not(sub(shl(0xa0, 0x01), 0x01))\n      swap2\n      dup3\n      and\n      or\n      swap1\n      swap2\n      sstore\n        /* \"Documents/GitHub/Store-system-with-feedback/main.sol\":13552:13568  userAddressArray */\n      0x07\n        /* \"Documents/GitHub/Store-system-with-feedback/main.sol\":13552:13579  userAddressArray.push(addr) */\n      dup1\n      sload\n        /* \"Documents/GitHub/Store-system-with-feedback/main.sol\":13511:13541  structUserLogins[login] = addr */\n      0x01\n        /* \"Documents/GitHub/Store-system-with-feedback/main.sol\":13552:13579  userAddressArray.push(addr) */\n      dup2\n      add\n      dup3\n      sstore\n        /* \"Documents/GitHub/Store-system-with-feedback/main.sol\":13511:13534  structUserLogins[login] */\n      0x00\n        /* \"Documents/GitHub/Store-system-with-feedback/main.sol\":13552:13579  userAddressArray.push(addr) */\n      swap2\n      swap1\n      swap2\n      mstore\n      0xa66cc928b5edb82af9bd49922954155ab7b0942694bea4ce44661d9a8736c688\n      add\n      dup1\n      sload\n      swap6\n      swap1\n      swap3\n      and\n      swap5\n      and\n      swap4\n      swap1\n      swap4\n      or\n      swap1\n      swap3\n      sstore\n      pop\n      pop\n        /* \"Documents/GitHub/Store-system-with-feedback/main.sol\":13265:13587  function create_user(address addr, string memory login, bytes32 password) public {\r... */\n      jump\t// out\n        /* \"Documents/GitHub/Store-system-with-feedback/main.sol\":11266:11534  function productPurchases(string memory titleProduct) public payable {\r... */\n    tag_54:\n        /* \"Documents/GitHub/Store-system-with-feedback/main.sol\":11368:11382  structProducts */\n      0x08\n        /* \"Documents/GitHub/Store-system-with-feedback/main.sol\":11383:11395  titleProduct */\n      dup2\n        /* \"Documents/GitHub/Store-system-with-feedback/main.sol\":11368:11396  structProducts[titleProduct] */\n      mload(0x40)\n      tag_220\n      swap2\n      swap1\n      tag_207\n      jump\t// in\n    tag_220:\n      swap1\n      dup2\n      mstore\n      0x20\n      add\n      mload(0x40)\n      dup1\n      swap2\n      sub\n      swap1\n      keccak256\n        /* \"Documents/GitHub/Store-system-with-feedback/main.sol\":11368:11402  structProducts[titleProduct].price */\n      0x02\n      add\n      sload\n        /* \"Documents/GitHub/Store-system-with-feedback/main.sol\":11354:11363  msg.value */\n      callvalue\n        /* \"Documents/GitHub/Store-system-with-feedback/main.sol\":11354:11403  msg.value == (structProducts[titleProduct].price) */\n      eq\n        /* \"Documents/GitHub/Store-system-with-feedback/main.sol\":11346:11424  require(msg.value == (structProducts[titleProduct].price), \"error: not money\") */\n      tag_221\n      jumpi\n      mload(0x40)\n      shl(0xe5, 0x461bcd)\n      dup2\n      mstore\n        /* \"#utility.yul\":13710:13712   */\n      0x20\n        /* \"Documents/GitHub/Store-system-with-feedback/main.sol\":11346:11424  require(msg.value == (structProducts[titleProduct].price), \"error: not money\") */\n      0x04\n      dup3\n      add\n        /* \"#utility.yul\":13692:13713   */\n      mstore\n        /* \"#utility.yul\":13749:13751   */\n      0x10\n        /* \"#utility.yul\":13729:13747   */\n      0x24\n      dup3\n      add\n        /* \"#utility.yul\":13722:13752   */\n      mstore\n      shl(0x80, 0x6572726f723a206e6f74206d6f6e6579)\n        /* \"#utility.yul\":13768:13786   */\n      0x44\n      dup3\n      add\n        /* \"#utility.yul\":13761:13807   */\n      mstore\n        /* \"#utility.yul\":13824:13842   */\n      0x64\n      add\n        /* \"Documents/GitHub/Store-system-with-feedback/main.sol\":11346:11424  require(msg.value == (structProducts[titleProduct].price), \"error: not money\") */\n      tag_213\n        /* \"#utility.yul\":13508:13848   */\n      jump\n        /* \"Documents/GitHub/Store-system-with-feedback/main.sol\":11346:11424  require(msg.value == (structProducts[titleProduct].price), \"error: not money\") */\n    tag_221:\n        /* \"Documents/GitHub/Store-system-with-feedback/main.sol\":11462:11525  structStatusPurchase(msg.sender, titleProduct, msg.value, true) */\n      0x40\n      dup1\n      mload\n      0x80\n      dup2\n      add\n      dup3\n      mstore\n        /* \"Documents/GitHub/Store-system-with-feedback/main.sol\":11483:11493  msg.sender */\n      caller\n        /* \"Documents/GitHub/Store-system-with-feedback/main.sol\":11462:11525  structStatusPurchase(msg.sender, titleProduct, msg.value, true) */\n      dup2\n      mstore\n      0x20\n      dup1\n      dup3\n      add\n      dup5\n      dup2\n      mstore\n        /* \"Documents/GitHub/Store-system-with-feedback/main.sol\":11509:11518  msg.value */\n      callvalue\n        /* \"Documents/GitHub/Store-system-with-feedback/main.sol\":11462:11525  structStatusPurchase(msg.sender, titleProduct, msg.value, true) */\n      swap4\n      dup4\n      add\n      swap4\n      swap1\n      swap4\n      mstore\n        /* \"Documents/GitHub/Store-system-with-feedback/main.sol\":11520:11524  true */\n      0x01\n        /* \"Documents/GitHub/Store-system-with-feedback/main.sol\":11462:11525  structStatusPurchase(msg.sender, titleProduct, msg.value, true) */\n      0x60\n      dup4\n      add\n      dup2\n      swap1\n      mstore\n        /* \"Documents/GitHub/Store-system-with-feedback/main.sol\":11435:11456  structStatusPurchases */\n      0x0a\n        /* \"Documents/GitHub/Store-system-with-feedback/main.sol\":11435:11526  structStatusPurchases.push(structStatusPurchase(msg.sender, titleProduct, msg.value, true)) */\n      dup1\n      sload\n      swap2\n      dup3\n      add\n      dup2\n      sstore\n      0x00\n      mstore\n      dup3\n      mload\n      0xc65a7bb8d6351c1cf70c95a316cc6a92839c986682d98bc35f958f4883f9d2a8\n      0x04\n      swap1\n      swap3\n      mul\n      swap2\n      dup3\n      add\n      dup1\n      sload\n      not(sub(shl(0xa0, 0x01), 0x01))\n      and\n      sub(shl(0xa0, 0x01), 0x01)\n      swap1\n      swap3\n      and\n      swap2\n      swap1\n      swap2\n      or\n      dup2\n      sstore\n      swap4\n      mload\n      dup1\n      mload\n        /* \"Documents/GitHub/Store-system-with-feedback/main.sol\":11462:11525  structStatusPurchase(msg.sender, titleProduct, msg.value, true) */\n      swap4\n      swap5\n        /* \"Documents/GitHub/Store-system-with-feedback/main.sol\":11435:11526  structStatusPurchases.push(structStatusPurchase(msg.sender, titleProduct, msg.value, true)) */\n      swap4\n      tag_225\n      swap4\n      0xc65a7bb8d6351c1cf70c95a316cc6a92839c986682d98bc35f958f4883f9d2a9\n      swap1\n      swap4\n      add\n      swap3\n      swap2\n      swap1\n      swap2\n      add\n      swap1\n      tag_216\n      jump\t// in\n    tag_225:\n      pop\n      0x40\n      dup3\n      add\n      mload\n      0x02\n      dup3\n      add\n      sstore\n      0x60\n      swap1\n      swap2\n      add\n      mload\n      0x03\n      swap1\n      swap2\n      add\n      dup1\n      sload\n      not(0xff)\n      and\n      swap2\n      iszero\n      iszero\n      swap2\n      swap1\n      swap2\n      or\n      swap1\n      sstore\n      pop\n        /* \"Documents/GitHub/Store-system-with-feedback/main.sol\":11266:11534  function productPurchases(string memory titleProduct) public payable {\r... */\n      jump\t// out\n        /* \"Documents/GitHub/Store-system-with-feedback/main.sol\":1507:1611  function get_shop_list() public view returns(string[] memory) {\r... */\n    tag_69:\n        /* \"Documents/GitHub/Store-system-with-feedback/main.sol\":1552:1567  string[] memory */\n      0x60\n        /* \"Documents/GitHub/Store-system-with-feedback/main.sol\":1591:1599  shopList */\n      0x02\n        /* \"Documents/GitHub/Store-system-with-feedback/main.sol\":1584:1599  return shopList */\n      dup1\n      sload\n      dup1\n      0x20\n      mul\n      0x20\n      add\n      mload(0x40)\n      swap1\n      dup2\n      add\n      0x40\n      mstore\n      dup1\n      swap3\n      swap2\n      swap1\n      dup2\n      dup2\n      mstore\n      0x20\n      add\n      0x00\n      swap1\n    tag_228:\n      dup3\n      dup3\n      lt\n      iszero\n      tag_229\n      jumpi\n      dup4\n      dup3\n      swap1\n      0x00\n      mstore\n      keccak256(0x00, 0x20)\n      add\n      dup1\n      sload\n      tag_231\n      swap1\n      tag_232\n      jump\t// in\n    tag_231:\n      dup1\n      0x1f\n      add\n      0x20\n      dup1\n      swap2\n      div\n      mul\n      0x20\n      add\n      mload(0x40)\n      swap1\n      dup2\n      add\n      0x40\n      mstore\n      dup1\n      swap3\n      swap2\n      swap1\n      dup2\n      dup2\n      mstore\n      0x20\n      add\n      dup3\n      dup1\n      sload\n      tag_233\n      swap1\n      tag_232\n      jump\t// in\n    tag_233:\n      dup1\n      iszero\n      tag_234\n      jumpi\n      dup1\n      0x1f\n      lt\n      tag_235\n      jumpi\n      0x0100\n      dup1\n      dup4\n      sload\n      div\n      mul\n      dup4\n      mstore\n      swap2\n      0x20\n      add\n      swap2\n      jump(tag_234)\n    tag_235:\n      dup3\n      add\n      swap2\n      swap1\n      0x00\n      mstore\n      keccak256(0x00, 0x20)\n      swap1\n    tag_236:\n      dup2\n      sload\n      dup2\n      mstore\n      swap1\n      0x01\n      add\n      swap1\n      0x20\n      add\n      dup1\n      dup4\n      gt\n      tag_236\n      jumpi\n      dup3\n      swap1\n      sub\n      0x1f\n      and\n      dup3\n      add\n      swap2\n    tag_234:\n      pop\n      pop\n      pop\n      pop\n      pop\n      dup2\n      mstore\n      0x20\n      add\n      swap1\n      0x01\n      add\n      swap1\n      jump(tag_228)\n    tag_229:\n      pop\n      pop\n      pop\n      pop\n      swap1\n      pop\n        /* \"Documents/GitHub/Store-system-with-feedback/main.sol\":1507:1611  function get_shop_list() public view returns(string[] memory) {\r... */\n      swap1\n      jump\t// out\n        /* \"Documents/GitHub/Store-system-with-feedback/main.sol\":10080:10499  function leaveComment (string memory userName, string[] memory comment) public {\r... */\n    tag_76:\n        /* \"Documents/GitHub/Store-system-with-feedback/main.sol\":10174:10180  uint i */\n      0x00\n        /* \"Documents/GitHub/Store-system-with-feedback/main.sol\":10170:10492  for(uint i = 0; i < complaintBooks.length; i++) {\r... */\n    tag_238:\n        /* \"Documents/GitHub/Store-system-with-feedback/main.sol\":10190:10204  complaintBooks */\n      0x03\n        /* \"Documents/GitHub/Store-system-with-feedback/main.sol\":10190:10211  complaintBooks.length */\n      sload\n        /* \"Documents/GitHub/Store-system-with-feedback/main.sol\":10186:10211  i < complaintBooks.length */\n      dup2\n      lt\n        /* \"Documents/GitHub/Store-system-with-feedback/main.sol\":10170:10492  for(uint i = 0; i < complaintBooks.length; i++) {\r... */\n      iszero\n      tag_239\n      jumpi\n        /* \"Documents/GitHub/Store-system-with-feedback/main.sol\":10233:10259  string memory tempUserName */\n      0x00\n        /* \"Documents/GitHub/Store-system-with-feedback/main.sol\":10262:10276  complaintBooks */\n      0x03\n        /* \"Documents/GitHub/Store-system-with-feedback/main.sol\":10277:10278  i */\n      dup3\n        /* \"Documents/GitHub/Store-system-with-feedback/main.sol\":10262:10279  complaintBooks[i] */\n      dup2\n      sload\n      dup2\n      lt\n      tag_242\n      jumpi\n      tag_242\n      tag_243\n      jump\t// in\n    tag_242:\n      swap1\n      0x00\n      mstore\n      keccak256(0x00, 0x20)\n      swap1\n      0x05\n      mul\n      add\n        /* \"Documents/GitHub/Store-system-with-feedback/main.sol\":10262:10288  complaintBooks[i].userName */\n      0x01\n      add\n        /* \"Documents/GitHub/Store-system-with-feedback/main.sol\":10233:10288  string memory tempUserName = complaintBooks[i].userName */\n      dup1\n      sload\n      tag_245\n      swap1\n      tag_232\n      jump\t// in\n    tag_245:\n      dup1\n      0x1f\n      add\n      0x20\n      dup1\n      swap2\n      div\n      mul\n      0x20\n      add\n      mload(0x40)\n      swap1\n      dup2\n      add\n      0x40\n      mstore\n      dup1\n      swap3\n      swap2\n      swap1\n      dup2\n      dup2\n      mstore\n      0x20\n      add\n      dup3\n      dup1\n      sload\n      tag_246\n      swap1\n      tag_232\n      jump\t// in\n    tag_246:\n      dup1\n      iszero\n      tag_247\n      jumpi\n      dup1\n      0x1f\n      lt\n      tag_248\n      jumpi\n      0x0100\n      dup1\n      dup4\n      sload\n      div\n      mul\n      dup4\n      mstore\n      swap2\n      0x20\n      add\n      swap2\n      jump(tag_247)\n    tag_248:\n      dup3\n      add\n      swap2\n      swap1\n      0x00\n      mstore\n      keccak256(0x00, 0x20)\n      swap1\n    tag_249:\n      dup2\n      sload\n      dup2\n      mstore\n      swap1\n      0x01\n      add\n      swap1\n      0x20\n      add\n      dup1\n      dup4\n      gt\n      tag_249\n      jumpi\n      dup3\n      swap1\n      sub\n      0x1f\n      and\n      dup3\n      add\n      swap2\n    tag_247:\n      pop\n      pop\n      pop\n      pop\n      pop\n      swap1\n      pop\n        /* \"Documents/GitHub/Store-system-with-feedback/main.sol\":10378:10386  userName */\n      dup4\n        /* \"Documents/GitHub/Store-system-with-feedback/main.sol\":10361:10387  abi.encodePacked(userName) */\n      add(0x20, mload(0x40))\n      tag_250\n      swap2\n      swap1\n      tag_207\n      jump\t// in\n    tag_250:\n      mload(0x40)\n      0x20\n      dup2\n      dup4\n      sub\n      sub\n      dup2\n      mstore\n      swap1\n      0x40\n      mstore\n        /* \"Documents/GitHub/Store-system-with-feedback/main.sol\":10351:10388  keccak256(abi.encodePacked(userName)) */\n      dup1\n      mload\n      swap1\n      0x20\n      add\n      keccak256\n        /* \"Documents/GitHub/Store-system-with-feedback/main.sol\":10333:10345  tempUserName */\n      dup2\n        /* \"Documents/GitHub/Store-system-with-feedback/main.sol\":10316:10346  abi.encodePacked(tempUserName) */\n      add(0x20, mload(0x40))\n      tag_251\n      swap2\n      swap1\n      tag_207\n      jump\t// in\n    tag_251:\n      mload(0x40)\n      0x20\n      dup2\n      dup4\n      sub\n      sub\n      dup2\n      mstore\n      swap1\n      0x40\n      mstore\n        /* \"Documents/GitHub/Store-system-with-feedback/main.sol\":10306:10347  keccak256(abi.encodePacked(tempUserName)) */\n      dup1\n      mload\n      swap1\n      0x20\n      add\n      keccak256\n        /* \"Documents/GitHub/Store-system-with-feedback/main.sol\":10306:10388  keccak256(abi.encodePacked(tempUserName)) == keccak256(abi.encodePacked(userName)) */\n      eq\n        /* \"Documents/GitHub/Store-system-with-feedback/main.sol\":10303:10481  if(keccak256(abi.encodePacked(tempUserName)) == keccak256(abi.encodePacked(userName))) {                    \r... */\n      iszero\n      tag_252\n      jumpi\n        /* \"Documents/GitHub/Store-system-with-feedback/main.sol\":10458:10465  comment */\n      dup3\n        /* \"Documents/GitHub/Store-system-with-feedback/main.sol\":10429:10443  complaintBooks */\n      0x03\n        /* \"Documents/GitHub/Store-system-with-feedback/main.sol\":10444:10445  i */\n      dup4\n        /* \"Documents/GitHub/Store-system-with-feedback/main.sol\":10429:10446  complaintBooks[i] */\n      dup2\n      sload\n      dup2\n      lt\n      tag_254\n      jumpi\n      tag_254\n      tag_243\n      jump\t// in\n    tag_254:\n      swap1\n      0x00\n      mstore\n      keccak256(0x00, 0x20)\n      swap1\n      0x05\n      mul\n      add\n        /* \"Documents/GitHub/Store-system-with-feedback/main.sol\":10429:10455  complaintBooks[i].comments */\n      0x04\n      add\n        /* \"Documents/GitHub/Store-system-with-feedback/main.sol\":10429:10465  complaintBooks[i].comments = comment */\n      swap1\n      dup1\n      mload\n      swap1\n      0x20\n      add\n      swap1\n      tag_256\n      swap3\n      swap2\n      swap1\n      tag_257\n      jump\t// in\n    tag_256:\n      pop\n        /* \"Documents/GitHub/Store-system-with-feedback/main.sol\":10303:10481  if(keccak256(abi.encodePacked(tempUserName)) == keccak256(abi.encodePacked(userName))) {                    \r... */\n    tag_252:\n      pop\n        /* \"Documents/GitHub/Store-system-with-feedback/main.sol\":10213:10216  i++ */\n      dup1\n      tag_258\n      dup2\n      tag_259\n      jump\t// in\n    tag_258:\n      swap2\n      pop\n      pop\n        /* \"Documents/GitHub/Store-system-with-feedback/main.sol\":10170:10492  for(uint i = 0; i < complaintBooks.length; i++) {\r... */\n      jump(tag_238)\n    tag_239:\n      pop\n        /* \"Documents/GitHub/Store-system-with-feedback/main.sol\":10080:10499  function leaveComment (string memory userName, string[] memory comment) public {\r... */\n      pop\n      pop\n      jump\t// out\n        /* \"Documents/GitHub/Store-system-with-feedback/main.sol\":1906:2051  function check_logged_shop(string memory login) public view returns(bool) {\r... */\n    tag_80:\n        /* \"Documents/GitHub/Store-system-with-feedback/main.sol\":1974:1978  bool */\n      0x00\n        /* \"Documents/GitHub/Store-system-with-feedback/main.sol\":2002:2013  structShops */\n      dup1\n        /* \"Documents/GitHub/Store-system-with-feedback/main.sol\":2002:2031  structShops[shopLists[login]] */\n      0x00\n        /* \"Documents/GitHub/Store-system-with-feedback/main.sol\":2014:2023  shopLists */\n      0x01\n        /* \"Documents/GitHub/Store-system-with-feedback/main.sol\":2024:2029  login */\n      dup5\n        /* \"Documents/GitHub/Store-system-with-feedback/main.sol\":2014:2030  shopLists[login] */\n      mload(0x40)\n      tag_261\n      swap2\n      swap1\n      tag_207\n      jump\t// in\n    tag_261:\n      swap1\n      dup2\n      mstore\n      0x40\n      dup1\n      mload\n      0x20\n      swap3\n      dup2\n      swap1\n      sub\n      dup4\n      add\n      swap1\n      keccak256\n      sload\n      sub(shl(0xa0, 0x01), 0x01)\n      and\n        /* \"Documents/GitHub/Store-system-with-feedback/main.sol\":2002:2031  structShops[shopLists[login]] */\n      dup4\n      mstore\n      swap1\n      dup3\n      add\n      swap3\n      swap1\n      swap3\n      mstore\n      add\n      0x00\n      keccak256\n        /* \"Documents/GitHub/Store-system-with-feedback/main.sol\":2002:2038  structShops[shopLists[login]].logged */\n      0x03\n      add\n      sload\n      0xff\n      and\n      swap3\n      swap2\n      pop\n      pop\n        /* \"Documents/GitHub/Store-system-with-feedback/main.sol\":1906:2051  function check_logged_shop(string memory login) public view returns(bool) {\r... */\n      jump\t// out\n        /* \"Documents/GitHub/Store-system-with-feedback/main.sol\":14194:14316  function login_out_user(string memory login) public {\r... */\n    tag_86:\n        /* \"Documents/GitHub/Store-system-with-feedback/main.sol\":14303:14308  false */\n      0x00\n        /* \"Documents/GitHub/Store-system-with-feedback/main.sol\":14257:14268  structUsers */\n      0x04\n        /* \"Documents/GitHub/Store-system-with-feedback/main.sol\":14257:14293  structUsers[structUserLogins[login]] */\n      0x00\n        /* \"Documents/GitHub/Store-system-with-feedback/main.sol\":14269:14285  structUserLogins */\n      0x05\n        /* \"Documents/GitHub/Store-system-with-feedback/main.sol\":14286:14291  login */\n      dup5\n        /* \"Documents/GitHub/Store-system-with-feedback/main.sol\":14269:14292  structUserLogins[login] */\n      mload(0x40)\n      tag_209\n      swap2\n      swap1\n      tag_207\n      jump\t// in\n        /* \"Documents/GitHub/Store-system-with-feedback/main.sol\":2370:2509  function get_city(string memory login) public view returns(string memory) {\r... */\n    tag_90:\n        /* \"Documents/GitHub/Store-system-with-feedback/main.sol\":2429:2442  string memory */\n      0x60\n        /* \"Documents/GitHub/Store-system-with-feedback/main.sol\":2462:2473  structShops */\n      0x00\n        /* \"Documents/GitHub/Store-system-with-feedback/main.sol\":2462:2491  structShops[shopLists[login]] */\n      dup1\n        /* \"Documents/GitHub/Store-system-with-feedback/main.sol\":2474:2483  shopLists */\n      0x01\n        /* \"Documents/GitHub/Store-system-with-feedback/main.sol\":2484:2489  login */\n      dup5\n        /* \"Documents/GitHub/Store-system-with-feedback/main.sol\":2474:2490  shopLists[login] */\n      mload(0x40)\n      tag_265\n      swap2\n      swap1\n      tag_207\n      jump\t// in\n    tag_265:\n      swap1\n      dup2\n      mstore\n      0x40\n      dup1\n      mload\n      0x20\n      swap3\n      dup2\n      swap1\n      sub\n      dup4\n      add\n      swap1\n      keccak256\n      sload\n      sub(shl(0xa0, 0x01), 0x01)\n      and\n        /* \"Documents/GitHub/Store-system-with-feedback/main.sol\":2462:2491  structShops[shopLists[login]] */\n      dup4\n      mstore\n      swap1\n      dup3\n      add\n      swap3\n      swap1\n      swap3\n      mstore\n      add\n      0x00\n      keccak256\n        /* \"Documents/GitHub/Store-system-with-feedback/main.sol\":2462:2496  structShops[shopLists[login]].city */\n      0x05\n      add\n        /* \"Documents/GitHub/Store-system-with-feedback/main.sol\":2455:2497  return(structShops[shopLists[login]].city) */\n      dup1\n      sload\n      tag_266\n      swap1\n      tag_232\n      jump\t// in\n    tag_266:\n      dup1\n      0x1f\n      add\n      0x20\n      dup1\n      swap2\n      div\n      mul\n      0x20\n      add\n      mload(0x40)\n      swap1\n      dup2\n      add\n      0x40\n      mstore\n      dup1\n      swap3\n      swap2\n      swap1\n      dup2\n      dup2\n      mstore\n      0x20\n      add\n      dup3\n      dup1\n      sload\n      tag_267\n      swap1\n      tag_232\n      jump\t// in\n    tag_267:\n      dup1\n      iszero\n      tag_268\n      jumpi\n      dup1\n      0x1f\n      lt\n      tag_269\n      jumpi\n      0x0100\n      dup1\n      dup4\n      sload\n      div\n      mul\n      dup4\n      mstore\n      swap2\n      0x20\n      add\n      swap2\n      jump(tag_268)\n    tag_269:\n      dup3\n      add\n      swap2\n      swap1\n      0x00\n      mstore\n      keccak256(0x00, 0x20)\n      swap1\n    tag_270:\n      dup2\n      sload\n      dup2\n      mstore\n      swap1\n      0x01\n      add\n      swap1\n      0x20\n      add\n      dup1\n      dup4\n      gt\n      tag_270\n      jumpi\n      dup3\n      swap1\n      sub\n      0x1f\n      and\n      dup3\n      add\n      swap2\n    tag_268:\n      pop\n      pop\n      pop\n      pop\n      pop\n      swap1\n      pop\n        /* \"Documents/GitHub/Store-system-with-feedback/main.sol\":2370:2509  function get_city(string memory login) public view returns(string memory) {\r... */\n      swap2\n      swap1\n      pop\n      jump\t// out\n        /* \"Documents/GitHub/Store-system-with-feedback/main.sol\":12618:13195  function productMarriage(string memory titleProduct) public {\r... */\n    tag_96:\n        /* \"Documents/GitHub/Store-system-with-feedback/main.sol\":12689:12705  bool tempRequire */\n      0x00\n      dup1\n        /* \"Documents/GitHub/Store-system-with-feedback/main.sol\":12716:13114  for(uint i = 0; i < productList.length; i++) {\r... */\n    tag_272:\n        /* \"Documents/GitHub/Store-system-with-feedback/main.sol\":12736:12747  productList */\n      0x09\n        /* \"Documents/GitHub/Store-system-with-feedback/main.sol\":12736:12754  productList.length */\n      sload\n        /* \"Documents/GitHub/Store-system-with-feedback/main.sol\":12732:12754  i < productList.length */\n      dup2\n      lt\n        /* \"Documents/GitHub/Store-system-with-feedback/main.sol\":12716:13114  for(uint i = 0; i < productList.length; i++) {\r... */\n      iszero\n      tag_273\n      jumpi\n        /* \"Documents/GitHub/Store-system-with-feedback/main.sol\":12776:12805  string memory tempProductName */\n      0x00\n        /* \"Documents/GitHub/Store-system-with-feedback/main.sol\":12808:12819  productList */\n      0x09\n        /* \"Documents/GitHub/Store-system-with-feedback/main.sol\":12820:12821  i */\n      dup3\n        /* \"Documents/GitHub/Store-system-with-feedback/main.sol\":12808:12822  productList[i] */\n      dup2\n      sload\n      dup2\n      lt\n      tag_276\n      jumpi\n      tag_276\n      tag_243\n      jump\t// in\n    tag_276:\n      swap1\n      0x00\n      mstore\n      keccak256(0x00, 0x20)\n      add\n        /* \"Documents/GitHub/Store-system-with-feedback/main.sol\":12776:12822  string memory tempProductName = productList[i] */\n      dup1\n      sload\n      tag_278\n      swap1\n      tag_232\n      jump\t// in\n    tag_278:\n      dup1\n      0x1f\n      add\n      0x20\n      dup1\n      swap2\n      div\n      mul\n      0x20\n      add\n      mload(0x40)\n      swap1\n      dup2\n      add\n      0x40\n      mstore\n      dup1\n      swap3\n      swap2\n      swap1\n      dup2\n      dup2\n      mstore\n      0x20\n      add\n      dup3\n      dup1\n      sload\n      tag_279\n      swap1\n      tag_232\n      jump\t// in\n    tag_279:\n      dup1\n      iszero\n      tag_280\n      jumpi\n      dup1\n      0x1f\n      lt\n      tag_281\n      jumpi\n      0x0100\n      dup1\n      dup4\n      sload\n      div\n      mul\n      dup4\n      mstore\n      swap2\n      0x20\n      add\n      swap2\n      jump(tag_280)\n    tag_281:\n      dup3\n      add\n      swap2\n      swap1\n      0x00\n      mstore\n      keccak256(0x00, 0x20)\n      swap1\n    tag_282:\n      dup2\n      sload\n      dup2\n      mstore\n      swap1\n      0x01\n      add\n      swap1\n      0x20\n      add\n      dup1\n      dup4\n      gt\n      tag_282\n      jumpi\n      dup3\n      swap1\n      sub\n      0x1f\n      and\n      dup3\n      add\n      swap2\n    tag_280:\n      pop\n      pop\n      pop\n      pop\n      pop\n      swap1\n      pop\n        /* \"Documents/GitHub/Store-system-with-feedback/main.sol\":12915:12927  titleProduct */\n      dup4\n        /* \"Documents/GitHub/Store-system-with-feedback/main.sol\":12898:12928  abi.encodePacked(titleProduct) */\n      add(0x20, mload(0x40))\n      tag_283\n      swap2\n      swap1\n      tag_207\n      jump\t// in\n    tag_283:\n      mload(0x40)\n      0x20\n      dup2\n      dup4\n      sub\n      sub\n      dup2\n      mstore\n      swap1\n      0x40\n      mstore\n        /* \"Documents/GitHub/Store-system-with-feedback/main.sol\":12888:12929  keccak256(abi.encodePacked(titleProduct)) */\n      dup1\n      mload\n      swap1\n      0x20\n      add\n      keccak256\n        /* \"Documents/GitHub/Store-system-with-feedback/main.sol\":12867:12882  tempProductName */\n      dup2\n        /* \"Documents/GitHub/Store-system-with-feedback/main.sol\":12850:12883  abi.encodePacked(tempProductName) */\n      add(0x20, mload(0x40))\n      tag_284\n      swap2\n      swap1\n      tag_207\n      jump\t// in\n    tag_284:\n      mload(0x40)\n      0x20\n      dup2\n      dup4\n      sub\n      sub\n      dup2\n      mstore\n      swap1\n      0x40\n      mstore\n        /* \"Documents/GitHub/Store-system-with-feedback/main.sol\":12840:12884  keccak256(abi.encodePacked(tempProductName)) */\n      dup1\n      mload\n      swap1\n      0x20\n      add\n      keccak256\n        /* \"Documents/GitHub/Store-system-with-feedback/main.sol\":12840:12929  keccak256(abi.encodePacked(tempProductName)) == keccak256(abi.encodePacked(titleProduct)) */\n      eq\n        /* \"Documents/GitHub/Store-system-with-feedback/main.sol\":12837:13103  if(keccak256(abi.encodePacked(tempProductName)) == keccak256(abi.encodePacked(titleProduct))) {                    \r... */\n      iszero\n      tag_285\n      jumpi\n        /* \"Documents/GitHub/Store-system-with-feedback/main.sol\":12997:13049  structStatusMarriage(msg.sender, titleProduct, true) */\n      0x40\n      dup1\n      mload\n      0x60\n      dup2\n      add\n      dup3\n      mstore\n        /* \"Documents/GitHub/Store-system-with-feedback/main.sol\":13018:13028  msg.sender */\n      caller\n        /* \"Documents/GitHub/Store-system-with-feedback/main.sol\":12997:13049  structStatusMarriage(msg.sender, titleProduct, true) */\n      dup2\n      mstore\n      0x20\n      dup1\n      dup3\n      add\n      dup8\n      dup2\n      mstore\n        /* \"Documents/GitHub/Store-system-with-feedback/main.sol\":13044:13048  true */\n      0x01\n        /* \"Documents/GitHub/Store-system-with-feedback/main.sol\":12997:13049  structStatusMarriage(msg.sender, titleProduct, true) */\n      swap4\n      dup4\n      add\n      dup5\n      swap1\n      mstore\n        /* \"Documents/GitHub/Store-system-with-feedback/main.sol\":12970:12991  structStatusMarriages */\n      0x0c\n        /* \"Documents/GitHub/Store-system-with-feedback/main.sol\":12970:13050  structStatusMarriages.push(structStatusMarriage(msg.sender, titleProduct, true)) */\n      dup1\n      sload\n      swap5\n      dup6\n      add\n      dup2\n      sstore\n      0x00\n      mstore\n      dup3\n      mload\n      0xdf6966c971051c3d54ec59162606531493a51404a002842f56009d7e5cf4a8c7\n      0x03\n      swap1\n      swap6\n      mul\n      swap5\n      dup6\n      add\n      dup1\n      sload\n      not(sub(shl(0xa0, 0x01), 0x01))\n      and\n      sub(shl(0xa0, 0x01), 0x01)\n      swap1\n      swap3\n      and\n      swap2\n      swap1\n      swap2\n      or\n      dup2\n      sstore\n      swap1\n      mload\n      dup1\n      mload\n        /* \"Documents/GitHub/Store-system-with-feedback/main.sol\":12997:13049  structStatusMarriage(msg.sender, titleProduct, true) */\n      swap4\n      swap5\n        /* \"Documents/GitHub/Store-system-with-feedback/main.sol\":12970:13050  structStatusMarriages.push(structStatusMarriage(msg.sender, titleProduct, true)) */\n      swap2\n      swap4\n      tag_287\n      swap4\n      0xdf6966c971051c3d54ec59162606531493a51404a002842f56009d7e5cf4a8c8\n      swap1\n      swap4\n      add\n      swap3\n      swap2\n      swap1\n      swap2\n      add\n      swap1\n      tag_216\n      jump\t// in\n    tag_287:\n      pop\n      0x40\n      swap2\n      swap1\n      swap2\n      add\n      mload\n      0x02\n      swap1\n      swap2\n      add\n      dup1\n      sload\n      not(0xff)\n      and\n      swap2\n      iszero\n      iszero\n      swap2\n      swap1\n      swap2\n      or\n      swap1\n      sstore\n      0x01\n      swap3\n      pop\n        /* \"Documents/GitHub/Store-system-with-feedback/main.sol\":12837:13103  if(keccak256(abi.encodePacked(tempProductName)) == keccak256(abi.encodePacked(titleProduct))) {                    \r... */\n    tag_285:\n      pop\n        /* \"Documents/GitHub/Store-system-with-feedback/main.sol\":12756:12759  i++ */\n      dup1\n      tag_288\n      dup2\n      tag_259\n      jump\t// in\n    tag_288:\n      swap2\n      pop\n      pop\n        /* \"Documents/GitHub/Store-system-with-feedback/main.sol\":12716:13114  for(uint i = 0; i < productList.length; i++) {\r... */\n      jump(tag_272)\n    tag_273:\n      pop\n        /* \"Documents/GitHub/Store-system-with-feedback/main.sol\":13147:13151  true */\n      0x01\n        /* \"Documents/GitHub/Store-system-with-feedback/main.sol\":13132:13151  tempRequire == true */\n      dup2\n      iszero\n      iszero\n      eq\n        /* \"Documents/GitHub/Store-system-with-feedback/main.sol\":13124:13187  require(tempRequire == true, \"error: there is no such product\") */\n      tag_289\n      jumpi\n      mload(0x40)\n      shl(0xe5, 0x461bcd)\n      dup2\n      mstore\n        /* \"#utility.yul\":12636:12638   */\n      0x20\n        /* \"Documents/GitHub/Store-system-with-feedback/main.sol\":13124:13187  require(tempRequire == true, \"error: there is no such product\") */\n      0x04\n      dup3\n      add\n        /* \"#utility.yul\":12618:12639   */\n      mstore\n        /* \"#utility.yul\":12675:12677   */\n      0x1f\n        /* \"#utility.yul\":12655:12673   */\n      0x24\n      dup3\n      add\n        /* \"#utility.yul\":12648:12678   */\n      mstore\n        /* \"#utility.yul\":12714:12747   */\n      0x6572726f723a207468657265206973206e6f20737563682070726f6475637400\n        /* \"#utility.yul\":12694:12712   */\n      0x44\n      dup3\n      add\n        /* \"#utility.yul\":12687:12748   */\n      mstore\n        /* \"#utility.yul\":12765:12783   */\n      0x64\n      add\n        /* \"Documents/GitHub/Store-system-with-feedback/main.sol\":13124:13187  require(tempRequire == true, \"error: there is no such product\") */\n      tag_213\n        /* \"#utility.yul\":12434:12789   */\n      jump\n        /* \"Documents/GitHub/Store-system-with-feedback/main.sol\":13124:13187  require(tempRequire == true, \"error: there is no such product\") */\n    tag_289:\n        /* \"Documents/GitHub/Store-system-with-feedback/main.sol\":12678:13195  {\r... */\n      pop\n        /* \"Documents/GitHub/Store-system-with-feedback/main.sol\":12618:13195  function productMarriage(string memory titleProduct) public {\r... */\n      pop\n      jump\t// out\n        /* \"Documents/GitHub/Store-system-with-feedback/main.sol\":2679:2831  function check_logged_user(string memory login) public view returns(bool) {\r... */\n    tag_100:\n        /* \"Documents/GitHub/Store-system-with-feedback/main.sol\":2747:2751  bool */\n      0x00\n        /* \"Documents/GitHub/Store-system-with-feedback/main.sol\":2775:2786  structUsers */\n      0x04\n        /* \"Documents/GitHub/Store-system-with-feedback/main.sol\":2775:2811  structUsers[structUserLogins[login]] */\n      0x00\n        /* \"Documents/GitHub/Store-system-with-feedback/main.sol\":2787:2803  structUserLogins */\n      0x05\n        /* \"Documents/GitHub/Store-system-with-feedback/main.sol\":2804:2809  login */\n      dup5\n        /* \"Documents/GitHub/Store-system-with-feedback/main.sol\":2787:2810  structUserLogins[login] */\n      mload(0x40)\n      tag_261\n      swap2\n      swap1\n      tag_207\n      jump\t// in\n        /* \"Documents/GitHub/Store-system-with-feedback/main.sol\":1698:1808  function get_product_list() public view returns(string[] memory) {\r... */\n    tag_104:\n        /* \"Documents/GitHub/Store-system-with-feedback/main.sol\":1746:1761  string[] memory */\n      0x60\n        /* \"Documents/GitHub/Store-system-with-feedback/main.sol\":1785:1796  productList */\n      0x09\n        /* \"Documents/GitHub/Store-system-with-feedback/main.sol\":1778:1796  return productList */\n      dup1\n      sload\n      dup1\n      0x20\n      mul\n      0x20\n      add\n      mload(0x40)\n      swap1\n      dup2\n      add\n      0x40\n      mstore\n      dup1\n      swap3\n      swap2\n      swap1\n      dup2\n      dup2\n      mstore\n      0x20\n      add\n      0x00\n      swap1\n    tag_295:\n      dup3\n      dup3\n      lt\n      iszero\n      tag_229\n      jumpi\n      dup4\n      dup3\n      swap1\n      0x00\n      mstore\n      keccak256(0x00, 0x20)\n      add\n      dup1\n      sload\n      tag_298\n      swap1\n      tag_232\n      jump\t// in\n    tag_298:\n      dup1\n      0x1f\n      add\n      0x20\n      dup1\n      swap2\n      div\n      mul\n      0x20\n      add\n      mload(0x40)\n      swap1\n      dup2\n      add\n      0x40\n      mstore\n      dup1\n      swap3\n      swap2\n      swap1\n      dup2\n      dup2\n      mstore\n      0x20\n      add\n      dup3\n      dup1\n      sload\n      tag_299\n      swap1\n      tag_232\n      jump\t// in\n    tag_299:\n      dup1\n      iszero\n      tag_300\n      jumpi\n      dup1\n      0x1f\n      lt\n      tag_301\n      jumpi\n      0x0100\n      dup1\n      dup4\n      sload\n      div\n      mul\n      dup4\n      mstore\n      swap2\n      0x20\n      add\n      swap2\n      jump(tag_300)\n    tag_301:\n      dup3\n      add\n      swap2\n      swap1\n      0x00\n      mstore\n      keccak256(0x00, 0x20)\n      swap1\n    tag_302:\n      dup2\n      sload\n      dup2\n      mstore\n      swap1\n      0x01\n      add\n      swap1\n      0x20\n      add\n      dup1\n      dup4\n      gt\n      tag_302\n      jumpi\n      dup3\n      swap1\n      sub\n      0x1f\n      and\n      dup3\n      add\n      swap2\n    tag_300:\n      pop\n      pop\n      pop\n      pop\n      pop\n      dup2\n      mstore\n      0x20\n      add\n      swap1\n      0x01\n      add\n      swap1\n      jump(tag_295)\n        /* \"Documents/GitHub/Store-system-with-feedback/main.sol\":2927:3073  function get_role_user(string memory login) public view returns(uint) {\r... */\n    tag_109:\n        /* \"Documents/GitHub/Store-system-with-feedback/main.sol\":2991:2995  uint */\n      0x00\n        /* \"Documents/GitHub/Store-system-with-feedback/main.sol\":3019:3030  structUsers */\n      0x04\n        /* \"Documents/GitHub/Store-system-with-feedback/main.sol\":3019:3055  structUsers[structUserLogins[login]] */\n      0x00\n        /* \"Documents/GitHub/Store-system-with-feedback/main.sol\":3031:3047  structUserLogins */\n      0x05\n        /* \"Documents/GitHub/Store-system-with-feedback/main.sol\":3048:3053  login */\n      dup5\n        /* \"Documents/GitHub/Store-system-with-feedback/main.sol\":3031:3054  structUserLogins[login] */\n      mload(0x40)\n      tag_206\n      swap2\n      swap1\n      tag_207\n      jump\t// in\n        /* \"Documents/GitHub/Store-system-with-feedback/main.sol\":3571:3858  function get_address(string memory login) public view returns(address) {\r... */\n    tag_114:\n        /* \"Documents/GitHub/Store-system-with-feedback/main.sol\":3633:3640  address */\n      0x00\n        /* \"Documents/GitHub/Store-system-with-feedback/main.sol\":3653:3664  address adr */\n      dup1\n        /* \"Documents/GitHub/Store-system-with-feedback/main.sol\":3714:3715  0 */\n      0x00\n      sub(shl(0xa0, 0x01), 0x01)\n        /* \"Documents/GitHub/Store-system-with-feedback/main.sol\":3679:3716  structUserLogins[login] != address(0) */\n      and\n        /* \"Documents/GitHub/Store-system-with-feedback/main.sol\":3679:3695  structUserLogins */\n      0x05\n        /* \"Documents/GitHub/Store-system-with-feedback/main.sol\":3696:3701  login */\n      dup5\n        /* \"Documents/GitHub/Store-system-with-feedback/main.sol\":3679:3702  structUserLogins[login] */\n      mload(0x40)\n      tag_306\n      swap2\n      swap1\n      tag_207\n      jump\t// in\n    tag_306:\n      swap1\n      dup2\n      mstore\n      mload(0x40)\n      swap1\n      dup2\n      swap1\n      sub\n      0x20\n      add\n      swap1\n      keccak256\n      sload\n      sub(shl(0xa0, 0x01), 0x01)\n      and\n        /* \"Documents/GitHub/Store-system-with-feedback/main.sol\":3679:3716  structUserLogins[login] != address(0) */\n      eq\n        /* \"Documents/GitHub/Store-system-with-feedback/main.sol\":3675:3829  if (structUserLogins[login] != address(0)) {\r... */\n      tag_307\n      jumpi\n        /* \"Documents/GitHub/Store-system-with-feedback/main.sol\":3739:3755  structUserLogins */\n      0x05\n        /* \"Documents/GitHub/Store-system-with-feedback/main.sol\":3756:3761  login */\n      dup4\n        /* \"Documents/GitHub/Store-system-with-feedback/main.sol\":3739:3762  structUserLogins[login] */\n      mload(0x40)\n      tag_308\n      swap2\n      swap1\n      tag_207\n      jump\t// in\n    tag_308:\n      swap1\n      dup2\n      mstore\n      mload(0x40)\n      swap1\n      dup2\n      swap1\n      sub\n      0x20\n      add\n      swap1\n      keccak256\n      sload\n      sub(shl(0xa0, 0x01), 0x01)\n      and\n      swap1\n      pop\n        /* \"Documents/GitHub/Store-system-with-feedback/main.sol\":3675:3829  if (structUserLogins[login] != address(0)) {\r... */\n      jump(tag_309)\n    tag_307:\n        /* \"Documents/GitHub/Store-system-with-feedback/main.sol\":3801:3810  shopLists */\n      0x01\n        /* \"Documents/GitHub/Store-system-with-feedback/main.sol\":3811:3816  login */\n      dup4\n        /* \"Documents/GitHub/Store-system-with-feedback/main.sol\":3801:3817  shopLists[login] */\n      mload(0x40)\n      tag_310\n      swap2\n      swap1\n      tag_207\n      jump\t// in\n    tag_310:\n      swap1\n      dup2\n      mstore\n      mload(0x40)\n      swap1\n      dup2\n      swap1\n      sub\n      0x20\n      add\n      swap1\n      keccak256\n      sload\n      sub(shl(0xa0, 0x01), 0x01)\n      and\n      swap1\n      pop\n        /* \"Documents/GitHub/Store-system-with-feedback/main.sol\":3675:3829  if (structUserLogins[login] != address(0)) {\r... */\n    tag_309:\n        /* \"Documents/GitHub/Store-system-with-feedback/main.sol\":3846:3849  adr */\n      swap3\n        /* \"Documents/GitHub/Store-system-with-feedback/main.sol\":3571:3858  function get_address(string memory login) public view returns(address) {\r... */\n      swap2\n      pop\n      pop\n      jump\t// out\n        /* \"Documents/GitHub/Store-system-with-feedback/main.sol\":6258:6548  function addProductShop (string memory title, uint256 price, string memory description) public {\r... */\n    tag_120:\n        /* \"Documents/GitHub/Store-system-with-feedback/main.sol\":6388:6469  structProduct(msg.sender, description , price*(10**18), addProductShop_idProduct) */\n      0x40\n      dup1\n      mload\n      0x80\n      dup2\n      add\n      dup3\n      mstore\n        /* \"Documents/GitHub/Store-system-with-feedback/main.sol\":6402:6412  msg.sender */\n      caller\n        /* \"Documents/GitHub/Store-system-with-feedback/main.sol\":6388:6469  structProduct(msg.sender, description , price*(10**18), addProductShop_idProduct) */\n      dup2\n      mstore\n      0x20\n      dup2\n      add\n      dup4\n      swap1\n      mstore\n      swap1\n      dup2\n      add\n        /* \"Documents/GitHub/Store-system-with-feedback/main.sol\":6428:6442  price*(10**18) */\n      tag_312\n        /* \"Documents/GitHub/Store-system-with-feedback/main.sol\":6428:6433  price */\n      dup5\n        /* \"Documents/GitHub/Store-system-with-feedback/main.sol\":6435:6441  10**18 */\n      0x0de0b6b3a7640000\n        /* \"Documents/GitHub/Store-system-with-feedback/main.sol\":6428:6442  price*(10**18) */\n      tag_313\n      jump\t// in\n    tag_312:\n        /* \"Documents/GitHub/Store-system-with-feedback/main.sol\":6388:6469  structProduct(msg.sender, description , price*(10**18), addProductShop_idProduct) */\n      dup2\n      mstore\n      0x20\n      add\n        /* \"Documents/GitHub/Store-system-with-feedback/main.sol\":6444:6468  addProductShop_idProduct */\n      sload(0x0d)\n        /* \"Documents/GitHub/Store-system-with-feedback/main.sol\":6388:6469  structProduct(msg.sender, description , price*(10**18), addProductShop_idProduct) */\n      dup2\n      mstore\n      pop\n        /* \"Documents/GitHub/Store-system-with-feedback/main.sol\":6364:6378  structProducts */\n      0x08\n        /* \"Documents/GitHub/Store-system-with-feedback/main.sol\":6379:6384  title */\n      dup5\n        /* \"Documents/GitHub/Store-system-with-feedback/main.sol\":6364:6385  structProducts[title] */\n      mload(0x40)\n      tag_314\n      swap2\n      swap1\n      tag_207\n      jump\t// in\n    tag_314:\n      swap1\n      dup2\n      mstore\n      mload(0x40)\n      0x20\n      swap2\n      dup2\n      swap1\n      sub\n      dup3\n      add\n      swap1\n      keccak256\n        /* \"Documents/GitHub/Store-system-with-feedback/main.sol\":6364:6469  structProducts[title] = structProduct(msg.sender, description , price*(10**18), addProductShop_idProduct) */\n      dup3\n      mload\n      dup2\n      sload\n      not(sub(shl(0xa0, 0x01), 0x01))\n      and\n      sub(shl(0xa0, 0x01), 0x01)\n      swap1\n      swap2\n      and\n      or\n      dup2\n      sstore\n      dup3\n      dup3\n      add\n      mload\n      dup1\n      mload\n        /* \"Documents/GitHub/Store-system-with-feedback/main.sol\":6364:6385  structProducts[title] */\n      swap2\n      swap3\n        /* \"Documents/GitHub/Store-system-with-feedback/main.sol\":6364:6469  structProducts[title] = structProduct(msg.sender, description , price*(10**18), addProductShop_idProduct) */\n      tag_315\n      swap3\n      0x01\n      dup6\n      add\n      swap3\n      swap1\n      swap2\n      add\n      swap1\n      tag_216\n      jump\t// in\n    tag_315:\n      pop\n      0x40\n      dup3\n      add\n      mload\n      0x02\n      dup3\n      add\n      sstore\n      0x60\n      swap1\n      swap2\n      add\n      mload\n      0x03\n      swap1\n      swap2\n      add\n      sstore\n        /* \"Documents/GitHub/Store-system-with-feedback/main.sol\":6480:6491  productList */\n      0x09\n        /* \"Documents/GitHub/Store-system-with-feedback/main.sol\":6480:6503  productList.push(title) */\n      dup1\n      sload\n      0x01\n      dup2\n      add\n      dup3\n      sstore\n      0x00\n      swap2\n      swap1\n      swap2\n      mstore\n      dup4\n      mload\n      tag_317\n      swap2\n      0x6e1540171b6c0c960b71a7020d9f60077f6af931a8bbf590da0223dacf75c7af\n      add\n      swap1\n      0x20\n      dup7\n      add\n      swap1\n      tag_216\n      jump\t// in\n    tag_317:\n      pop\n        /* \"Documents/GitHub/Store-system-with-feedback/main.sol\":6514:6538  addProductShop_idProduct */\n      0x0d\n        /* \"Documents/GitHub/Store-system-with-feedback/main.sol\":6514:6540  addProductShop_idProduct++ */\n      dup1\n      sload\n      swap1\n        /* \"Documents/GitHub/Store-system-with-feedback/main.sol\":6514:6538  addProductShop_idProduct */\n      0x00\n        /* \"Documents/GitHub/Store-system-with-feedback/main.sol\":6514:6540  addProductShop_idProduct++ */\n      tag_318\n      dup4\n      tag_259\n      jump\t// in\n    tag_318:\n      swap2\n      swap1\n      pop\n      sstore\n      pop\n        /* \"Documents/GitHub/Store-system-with-feedback/main.sol\":6258:6548  function addProductShop (string memory title, uint256 price, string memory description) public {\r... */\n      pop\n      pop\n      pop\n      jump\t// out\n        /* \"Documents/GitHub/Store-system-with-feedback/main.sol\":11608:11921  function refusalToPurchase (uint idPurchase) public payable {\r... */\n    tag_124:\n        /* \"Documents/GitHub/Store-system-with-feedback/main.sol\":11701:11722  structStatusPurchases */\n      0x0a\n        /* \"Documents/GitHub/Store-system-with-feedback/main.sol\":11723:11733  idPurchase */\n      dup2\n        /* \"Documents/GitHub/Store-system-with-feedback/main.sol\":11701:11734  structStatusPurchases[idPurchase] */\n      dup2\n      sload\n      dup2\n      lt\n      tag_321\n      jumpi\n      tag_321\n      tag_243\n      jump\t// in\n    tag_321:\n      0x00\n      swap2\n      dup3\n      mstore\n      0x20\n      swap1\n      swap2\n      keccak256\n      0x04\n      swap1\n      swap2\n      mul\n      add\n        /* \"Documents/GitHub/Store-system-with-feedback/main.sol\":11701:11744  structStatusPurchases[idPurchase].userLogin */\n      sload\n      sub(shl(0xa0, 0x01), 0x01)\n      and\n        /* \"Documents/GitHub/Store-system-with-feedback/main.sol\":11687:11697  msg.sender */\n      caller\n        /* \"Documents/GitHub/Store-system-with-feedback/main.sol\":11687:11744  msg.sender == structStatusPurchases[idPurchase].userLogin */\n      eq\n        /* \"Documents/GitHub/Store-system-with-feedback/main.sol\":11679:11774  require(msg.sender == structStatusPurchases[idPurchase].userLogin, \"error: yor not msg.sender\") */\n      tag_323\n      jumpi\n      mload(0x40)\n      shl(0xe5, 0x461bcd)\n      dup2\n      mstore\n        /* \"#utility.yul\":12996:12998   */\n      0x20\n        /* \"Documents/GitHub/Store-system-with-feedback/main.sol\":11679:11774  require(msg.sender == structStatusPurchases[idPurchase].userLogin, \"error: yor not msg.sender\") */\n      0x04\n      dup3\n      add\n        /* \"#utility.yul\":12978:12999   */\n      mstore\n        /* \"#utility.yul\":13035:13037   */\n      0x19\n        /* \"#utility.yul\":13015:13033   */\n      0x24\n      dup3\n      add\n        /* \"#utility.yul\":13008:13038   */\n      mstore\n      shl(0x39, 0x32b93937b91d103cb7b9103737ba1036b9b39739b2b73232b9)\n        /* \"#utility.yul\":13054:13072   */\n      0x44\n      dup3\n      add\n        /* \"#utility.yul\":13047:13102   */\n      mstore\n        /* \"#utility.yul\":13119:13137   */\n      0x64\n      add\n        /* \"Documents/GitHub/Store-system-with-feedback/main.sol\":11679:11774  require(msg.sender == structStatusPurchases[idPurchase].userLogin, \"error: yor not msg.sender\") */\n      tag_213\n        /* \"#utility.yul\":12794:13143   */\n      jump\n        /* \"Documents/GitHub/Store-system-with-feedback/main.sol\":11679:11774  require(msg.sender == structStatusPurchases[idPurchase].userLogin, \"error: yor not msg.sender\") */\n    tag_323:\n        /* \"Documents/GitHub/Store-system-with-feedback/main.sol\":11793:11803  msg.sender */\n      caller\n      sub(shl(0xa0, 0x01), 0x01)\n        /* \"Documents/GitHub/Store-system-with-feedback/main.sol\":11785:11813  payable(msg.sender).transfer */\n      and\n        /* \"Documents/GitHub/Store-system-with-feedback/main.sol\":11785:11854  payable(msg.sender).transfer(structStatusPurchases[idPurchase].price) */\n      0x08fc\n        /* \"Documents/GitHub/Store-system-with-feedback/main.sol\":11814:11835  structStatusPurchases */\n      0x0a\n        /* \"Documents/GitHub/Store-system-with-feedback/main.sol\":11836:11846  idPurchase */\n      dup4\n        /* \"Documents/GitHub/Store-system-with-feedback/main.sol\":11814:11847  structStatusPurchases[idPurchase] */\n      dup2\n      sload\n      dup2\n      lt\n      tag_327\n      jumpi\n      tag_327\n      tag_243\n      jump\t// in\n    tag_327:\n      swap1\n      0x00\n      mstore\n      keccak256(0x00, 0x20)\n      swap1\n      0x04\n      mul\n      add\n        /* \"Documents/GitHub/Store-system-with-feedback/main.sol\":11814:11853  structStatusPurchases[idPurchase].price */\n      0x02\n      add\n      sload\n        /* \"Documents/GitHub/Store-system-with-feedback/main.sol\":11785:11854  payable(msg.sender).transfer(structStatusPurchases[idPurchase].price) */\n      swap1\n      dup2\n      iszero\n      mul\n      swap1\n      mload(0x40)\n      0x00\n      mload(0x40)\n      dup1\n      dup4\n      sub\n      dup2\n      dup6\n      dup9\n      dup9\n      call\n      swap4\n      pop\n      pop\n      pop\n      pop\n      iszero\n      dup1\n      iszero\n      tag_330\n      jumpi\n      returndatasize\n      0x00\n      dup1\n      returndatacopy\n      revert(0x00, returndatasize)\n    tag_330:\n      pop\n        /* \"Documents/GitHub/Store-system-with-feedback/main.sol\":11908:11913  false */\n      0x00\n        /* \"Documents/GitHub/Store-system-with-feedback/main.sol\":11865:11886  structStatusPurchases */\n      0x0a\n        /* \"Documents/GitHub/Store-system-with-feedback/main.sol\":11887:11897  idPurchase */\n      dup3\n        /* \"Documents/GitHub/Store-system-with-feedback/main.sol\":11865:11898  structStatusPurchases[idPurchase] */\n      dup2\n      sload\n      dup2\n      lt\n      tag_332\n      jumpi\n      tag_332\n      tag_243\n      jump\t// in\n    tag_332:\n      0x00\n      swap2\n      dup3\n      mstore\n      0x20\n      swap1\n      swap2\n      keccak256\n      0x04\n      swap1\n      swap2\n      mul\n      add\n        /* \"Documents/GitHub/Store-system-with-feedback/main.sol\":11865:11905  structStatusPurchases[idPurchase].status */\n      0x03\n      add\n        /* \"Documents/GitHub/Store-system-with-feedback/main.sol\":11865:11913  structStatusPurchases[idPurchase].status = false */\n      dup1\n      sload\n      not(0xff)\n      and\n      swap2\n      iszero\n      iszero\n      swap2\n      swap1\n      swap2\n      or\n      swap1\n      sstore\n      pop\n        /* \"Documents/GitHub/Store-system-with-feedback/main.sol\":11608:11921  function refusalToPurchase (uint idPurchase) public payable {\r... */\n      jump\t// out\n        /* \"Documents/GitHub/Store-system-with-feedback/main.sol\":6058:6109  structStatusMarriage[] public structStatusMarriages */\n    tag_128:\n      0x0c\n      dup2\n      dup2\n      sload\n      dup2\n      lt\n      tag_334\n      jumpi\n      0x00\n      dup1\n      revert\n    tag_334:\n      0x00\n      swap2\n      dup3\n      mstore\n      0x20\n      swap1\n      swap2\n      keccak256\n      0x03\n      swap1\n      swap2\n      mul\n      add\n      dup1\n      sload\n      0x01\n      dup3\n      add\n      dup1\n      sload\n      sub(shl(0xa0, 0x01), 0x01)\n      swap1\n      swap3\n      and\n      swap4\n      pop\n      swap1\n      tag_336\n      swap1\n      tag_232\n      jump\t// in\n    tag_336:\n      dup1\n      0x1f\n      add\n      0x20\n      dup1\n      swap2\n      div\n      mul\n      0x20\n      add\n      mload(0x40)\n      swap1\n      dup2\n      add\n      0x40\n      mstore\n      dup1\n      swap3\n      swap2\n      swap1\n      dup2\n      dup2\n      mstore\n      0x20\n      add\n      dup3\n      dup1\n      sload\n      tag_337\n      swap1\n      tag_232\n      jump\t// in\n    tag_337:\n      dup1\n      iszero\n      tag_338\n      jumpi\n      dup1\n      0x1f\n      lt\n      tag_339\n      jumpi\n      0x0100\n      dup1\n      dup4\n      sload\n      div\n      mul\n      dup4\n      mstore\n      swap2\n      0x20\n      add\n      swap2\n      jump(tag_338)\n    tag_339:\n      dup3\n      add\n      swap2\n      swap1\n      0x00\n      mstore\n      keccak256(0x00, 0x20)\n      swap1\n    tag_340:\n      dup2\n      sload\n      dup2\n      mstore\n      swap1\n      0x01\n      add\n      swap1\n      0x20\n      add\n      dup1\n      dup4\n      gt\n      tag_340\n      jumpi\n      dup3\n      swap1\n      sub\n      0x1f\n      and\n      dup3\n      add\n      swap2\n    tag_338:\n      pop\n      pop\n      pop\n      0x02\n      swap1\n      swap4\n      add\n      sload\n      swap2\n      swap3\n      pop\n      pop\n      0xff\n      and\n      dup4\n      jump\t// out\n        /* \"Documents/GitHub/Store-system-with-feedback/main.sol\":10579:10981  function login_shop(string memory login, bytes32 password) public {\r... */\n    tag_135:\n        /* \"Documents/GitHub/Store-system-with-feedback/main.sol\":10664:10675  structShops */\n      0x00\n        /* \"Documents/GitHub/Store-system-with-feedback/main.sol\":10664:10693  structShops[shopLists[login]] */\n      dup1\n        /* \"Documents/GitHub/Store-system-with-feedback/main.sol\":10676:10685  shopLists */\n      0x01\n        /* \"Documents/GitHub/Store-system-with-feedback/main.sol\":10686:10691  login */\n      dup5\n        /* \"Documents/GitHub/Store-system-with-feedback/main.sol\":10676:10692  shopLists[login] */\n      mload(0x40)\n      tag_342\n      swap2\n      swap1\n      tag_207\n      jump\t// in\n    tag_342:\n      swap1\n      dup2\n      mstore\n      0x40\n      dup1\n      mload\n      0x20\n      swap3\n      dup2\n      swap1\n      sub\n      dup4\n      add\n      swap1\n      keccak256\n      sload\n      sub(shl(0xa0, 0x01), 0x01)\n      and\n        /* \"Documents/GitHub/Store-system-with-feedback/main.sol\":10664:10693  structShops[shopLists[login]] */\n      dup4\n      mstore\n      swap1\n      dup3\n      add\n      swap3\n      swap1\n      swap3\n      mstore\n      add\n      0x00\n      keccak256\n        /* \"Documents/GitHub/Store-system-with-feedback/main.sol\":10664:10700  structShops[shopLists[login]].logged */\n      0x03\n      add\n      sload\n      0xff\n      and\n        /* \"Documents/GitHub/Store-system-with-feedback/main.sol\":10664:10709  structShops[shopLists[login]].logged == false */\n      iszero\n        /* \"Documents/GitHub/Store-system-with-feedback/main.sol\":10656:10743  require(structShops[shopLists[login]].logged == false, \"Error: You are already logged\") */\n      tag_343\n      jumpi\n      mload(0x40)\n      shl(0xe5, 0x461bcd)\n      dup2\n      mstore\n      0x04\n      add\n      tag_213\n      swap1\n      tag_345\n      jump\t// in\n    tag_343:\n        /* \"Documents/GitHub/Store-system-with-feedback/main.sol\":10790:10791  0 */\n      0x00\n      sub(shl(0xa0, 0x01), 0x01)\n        /* \"Documents/GitHub/Store-system-with-feedback/main.sol\":10762:10792  shopLists[login] != address(0) */\n      and\n        /* \"Documents/GitHub/Store-system-with-feedback/main.sol\":10762:10771  shopLists */\n      0x01\n        /* \"Documents/GitHub/Store-system-with-feedback/main.sol\":10772:10777  login */\n      dup4\n        /* \"Documents/GitHub/Store-system-with-feedback/main.sol\":10762:10778  shopLists[login] */\n      mload(0x40)\n      tag_346\n      swap2\n      swap1\n      tag_207\n      jump\t// in\n    tag_346:\n      swap1\n      dup2\n      mstore\n      mload(0x40)\n      swap1\n      dup2\n      swap1\n      sub\n      0x20\n      add\n      swap1\n      keccak256\n      sload\n      sub(shl(0xa0, 0x01), 0x01)\n      and\n        /* \"Documents/GitHub/Store-system-with-feedback/main.sol\":10762:10792  shopLists[login] != address(0) */\n      eq\n      iszero\n        /* \"Documents/GitHub/Store-system-with-feedback/main.sol\":10754:10822  require(shopLists[login] != address(0), \"Error: User doesn't exist\") */\n      tag_347\n      jumpi\n      mload(0x40)\n      shl(0xe5, 0x461bcd)\n      dup2\n      mstore\n      0x04\n      add\n      tag_213\n      swap1\n      tag_349\n      jump\t// in\n    tag_347:\n        /* \"Documents/GitHub/Store-system-with-feedback/main.sol\":10883:10891  password */\n      dup1\n        /* \"Documents/GitHub/Store-system-with-feedback/main.sol\":10841:10852  structShops */\n      0x00\n        /* \"Documents/GitHub/Store-system-with-feedback/main.sol\":10841:10870  structShops[shopLists[login]] */\n      dup1\n        /* \"Documents/GitHub/Store-system-with-feedback/main.sol\":10853:10862  shopLists */\n      0x01\n        /* \"Documents/GitHub/Store-system-with-feedback/main.sol\":10863:10868  login */\n      dup6\n        /* \"Documents/GitHub/Store-system-with-feedback/main.sol\":10853:10869  shopLists[login] */\n      mload(0x40)\n      tag_350\n      swap2\n      swap1\n      tag_207\n      jump\t// in\n    tag_350:\n      swap1\n      dup2\n      mstore\n      0x40\n      dup1\n      mload\n      0x20\n      swap3\n      dup2\n      swap1\n      sub\n      dup4\n      add\n      swap1\n      keccak256\n      sload\n      sub(shl(0xa0, 0x01), 0x01)\n      and\n        /* \"Documents/GitHub/Store-system-with-feedback/main.sol\":10841:10870  structShops[shopLists[login]] */\n      dup4\n      mstore\n      swap1\n      dup3\n      add\n      swap3\n      swap1\n      swap3\n      mstore\n      add\n      0x00\n      keccak256\n        /* \"Documents/GitHub/Store-system-with-feedback/main.sol\":10853:10869  shopLists[login] */\n      0x01\n        /* \"Documents/GitHub/Store-system-with-feedback/main.sol\":10841:10879  structShops[shopLists[login]].password */\n      add\n      sload\n        /* \"Documents/GitHub/Store-system-with-feedback/main.sol\":10841:10891  structShops[shopLists[login]].password == password */\n      eq\n        /* \"Documents/GitHub/Store-system-with-feedback/main.sol\":10833:10919  require(structShops[shopLists[login]].password == password, \"Error: Invalid password\") */\n      tag_351\n      jumpi\n      mload(0x40)\n      shl(0xe5, 0x461bcd)\n      dup2\n      mstore\n      0x04\n      add\n      tag_213\n      swap1\n      tag_353\n      jump\t// in\n    tag_351:\n        /* \"Documents/GitHub/Store-system-with-feedback/main.sol\":10969:10973  true */\n      0x01\n        /* \"Documents/GitHub/Store-system-with-feedback/main.sol\":10930:10941  structShops */\n      0x00\n        /* \"Documents/GitHub/Store-system-with-feedback/main.sol\":10930:10959  structShops[shopLists[login]] */\n      dup1\n        /* \"Documents/GitHub/Store-system-with-feedback/main.sol\":10942:10951  shopLists */\n      0x01\n        /* \"Documents/GitHub/Store-system-with-feedback/main.sol\":10952:10957  login */\n      dup6\n        /* \"Documents/GitHub/Store-system-with-feedback/main.sol\":10942:10958  shopLists[login] */\n      mload(0x40)\n      tag_354\n      swap2\n      swap1\n      tag_207\n      jump\t// in\n    tag_354:\n      swap1\n      dup2\n      mstore\n      0x40\n      dup1\n      mload\n      0x20\n      swap3\n      dup2\n      swap1\n      sub\n      dup4\n      add\n      swap1\n      keccak256\n      sload\n      sub(shl(0xa0, 0x01), 0x01)\n      and\n        /* \"Documents/GitHub/Store-system-with-feedback/main.sol\":10930:10959  structShops[shopLists[login]] */\n      dup4\n      mstore\n      swap1\n      dup3\n      add\n      swap3\n      swap1\n      swap3\n      mstore\n      add\n      0x00\n      keccak256\n        /* \"Documents/GitHub/Store-system-with-feedback/main.sol\":10930:10966  structShops[shopLists[login]].logged */\n      0x03\n      add\n        /* \"Documents/GitHub/Store-system-with-feedback/main.sol\":10930:10973  structShops[shopLists[login]].logged = true */\n      dup1\n      sload\n      not(0xff)\n      and\n      swap2\n      iszero\n      iszero\n      swap2\n      swap1\n      swap2\n      or\n      swap1\n      sstore\n      pop\n      pop\n        /* \"Documents/GitHub/Store-system-with-feedback/main.sol\":10579:10981  function login_shop(string memory login, bytes32 password) public {\r... */\n      jump\t// out\n        /* \"Documents/GitHub/Store-system-with-feedback/main.sol\":3354:3493  function get_hash(string memory password) public pure returns(bytes32) {\r... */\n    tag_139:\n        /* \"Documents/GitHub/Store-system-with-feedback/main.sol\":3416:3423  bytes32 */\n      0x00\n        /* \"Documents/GitHub/Store-system-with-feedback/main.sol\":3474:3482  password */\n      dup2\n        /* \"Documents/GitHub/Store-system-with-feedback/main.sol\":3457:3483  abi.encodePacked(password) */\n      add(0x20, mload(0x40))\n      tag_356\n      swap2\n      swap1\n      tag_207\n      jump\t// in\n    tag_356:\n      mload(0x40)\n      0x20\n      dup2\n      dup4\n      sub\n      sub\n      dup2\n      mstore\n      swap1\n      0x40\n      mstore\n        /* \"Documents/GitHub/Store-system-with-feedback/main.sol\":3447:3484  keccak256(abi.encodePacked(password)) */\n      dup1\n      mload\n      swap1\n      0x20\n      add\n      keccak256\n        /* \"Documents/GitHub/Store-system-with-feedback/main.sol\":3440:3485  return(keccak256(abi.encodePacked(password))) */\n      swap1\n      pop\n        /* \"Documents/GitHub/Store-system-with-feedback/main.sol\":3354:3493  function get_hash(string memory password) public pure returns(bytes32) {\r... */\n      swap2\n      swap1\n      pop\n      jump\t// out\n        /* \"Documents/GitHub/Store-system-with-feedback/main.sol\":8524:9047  function acceptMarriage(uint idMarriage, bool confirmation) public payable {\r... */\n    tag_145:\n        /* \"Documents/GitHub/Store-system-with-feedback/main.sol\":8632:8646  structProducts */\n      0x08\n        /* \"Documents/GitHub/Store-system-with-feedback/main.sol\":8647:8668  structStatusMarriages */\n      0x0c\n        /* \"Documents/GitHub/Store-system-with-feedback/main.sol\":8669:8679  idMarriage */\n      dup4\n        /* \"Documents/GitHub/Store-system-with-feedback/main.sol\":8647:8680  structStatusMarriages[idMarriage] */\n      dup2\n      sload\n      dup2\n      lt\n      tag_359\n      jumpi\n      tag_359\n      tag_243\n      jump\t// in\n    tag_359:\n      swap1\n      0x00\n      mstore\n      keccak256(0x00, 0x20)\n      swap1\n      0x03\n      mul\n      add\n        /* \"Documents/GitHub/Store-system-with-feedback/main.sol\":8647:8693  structStatusMarriages[idMarriage].titleProduct */\n      0x01\n      add\n        /* \"Documents/GitHub/Store-system-with-feedback/main.sol\":8632:8694  structProducts[structStatusMarriages[idMarriage].titleProduct] */\n      mload(0x40)\n      tag_361\n      swap2\n      swap1\n      tag_362\n      jump\t// in\n    tag_361:\n      swap1\n      dup2\n      mstore\n      mload(0x40)\n      swap1\n      dup2\n      swap1\n      sub\n      0x20\n      add\n      swap1\n      keccak256\n        /* \"Documents/GitHub/Store-system-with-feedback/main.sol\":8632:8699  structProducts[structStatusMarriages[idMarriage].titleProduct].shop */\n      sload\n        /* \"Documents/GitHub/Store-system-with-feedback/main.sol\":8618:8628  msg.sender */\n      caller\n      sub(shl(0xa0, 0x01), 0x01)\n        /* \"Documents/GitHub/Store-system-with-feedback/main.sol\":8632:8699  structProducts[structStatusMarriages[idMarriage].titleProduct].shop */\n      swap1\n      swap2\n      and\n        /* \"Documents/GitHub/Store-system-with-feedback/main.sol\":8618:8699  msg.sender == structProducts[structStatusMarriages[idMarriage].titleProduct].shop */\n      eq\n        /* \"Documents/GitHub/Store-system-with-feedback/main.sol\":8610:8735  require(msg.sender == structProducts[structStatusMarriages[idMarriage].titleProduct].shop, \"error: this is not your product\") */\n      tag_363\n      jumpi\n      mload(0x40)\n      shl(0xe5, 0x461bcd)\n      dup2\n      mstore\n      0x04\n      add\n      tag_213\n      swap1\n      tag_365\n      jump\t// in\n    tag_363:\n        /* \"Documents/GitHub/Store-system-with-feedback/main.sol\":8765:8769  true */\n      0x01\n        /* \"Documents/GitHub/Store-system-with-feedback/main.sol\":8749:8769  confirmation == true */\n      dup2\n      iszero\n      iszero\n      eq\n        /* \"Documents/GitHub/Store-system-with-feedback/main.sol\":8746:9040  if(confirmation == true) {\r... */\n      iszero\n      tag_366\n      jumpi\n        /* \"Documents/GitHub/Store-system-with-feedback/main.sol\":8794:8815  structStatusMarriages */\n      0x0c\n        /* \"Documents/GitHub/Store-system-with-feedback/main.sol\":8816:8826  idMarriage */\n      dup3\n        /* \"Documents/GitHub/Store-system-with-feedback/main.sol\":8794:8827  structStatusMarriages[idMarriage] */\n      dup2\n      sload\n      dup2\n      lt\n      tag_368\n      jumpi\n      tag_368\n      tag_243\n      jump\t// in\n    tag_368:\n      0x00\n      swap2\n      dup3\n      mstore\n      0x20\n      dup3\n      keccak256\n      0x03\n      swap1\n      swap2\n      mul\n      add\n        /* \"Documents/GitHub/Store-system-with-feedback/main.sol\":8794:8837  structStatusMarriages[idMarriage].userLogin */\n      sload\n        /* \"Documents/GitHub/Store-system-with-feedback/main.sol\":8786:8858  payable(structStatusMarriages[idMarriage].userLogin).transfer(msg.value) */\n      mload(0x40)\n      sub(shl(0xa0, 0x01), 0x01)\n        /* \"Documents/GitHub/Store-system-with-feedback/main.sol\":8794:8837  structStatusMarriages[idMarriage].userLogin */\n      swap1\n      swap2\n      and\n      swap2\n        /* \"Documents/GitHub/Store-system-with-feedback/main.sol\":8848:8857  msg.value */\n      callvalue\n        /* \"Documents/GitHub/Store-system-with-feedback/main.sol\":8786:8858  payable(structStatusMarriages[idMarriage].userLogin).transfer(msg.value) */\n      dup1\n      iszero\n      0x08fc\n      mul\n      swap3\n        /* \"Documents/GitHub/Store-system-with-feedback/main.sol\":8848:8857  msg.value */\n      swap1\n      swap2\n        /* \"Documents/GitHub/Store-system-with-feedback/main.sol\":8786:8858  payable(structStatusMarriages[idMarriage].userLogin).transfer(msg.value) */\n      dup2\n        /* \"Documents/GitHub/Store-system-with-feedback/main.sol\":8794:8827  structStatusMarriages[idMarriage] */\n      dup2\n        /* \"Documents/GitHub/Store-system-with-feedback/main.sol\":8786:8858  payable(structStatusMarriages[idMarriage].userLogin).transfer(msg.value) */\n      dup2\n        /* \"Documents/GitHub/Store-system-with-feedback/main.sol\":8848:8857  msg.value */\n      dup6\n        /* \"Documents/GitHub/Store-system-with-feedback/main.sol\":8794:8837  structStatusMarriages[idMarriage].userLogin */\n      dup9\n        /* \"Documents/GitHub/Store-system-with-feedback/main.sol\":8786:8858  payable(structStatusMarriages[idMarriage].userLogin).transfer(msg.value) */\n      dup9\n      call\n      swap4\n      pop\n      pop\n      pop\n      pop\n      iszero\n      dup1\n      iszero\n      tag_371\n      jumpi\n      returndatasize\n      0x00\n      dup1\n      returndatacopy\n      revert(0x00, returndatasize)\n    tag_371:\n      pop\n        /* \"Documents/GitHub/Store-system-with-feedback/main.sol\":8916:8921  false */\n      0x00\n        /* \"Documents/GitHub/Store-system-with-feedback/main.sol\":8873:8894  structStatusMarriages */\n      0x0c\n        /* \"Documents/GitHub/Store-system-with-feedback/main.sol\":8895:8905  idMarriage */\n      dup4\n        /* \"Documents/GitHub/Store-system-with-feedback/main.sol\":8873:8906  structStatusMarriages[idMarriage] */\n      dup2\n      sload\n      dup2\n      lt\n      tag_373\n      jumpi\n      tag_373\n      tag_243\n      jump\t// in\n    tag_373:\n      0x00\n      swap2\n      dup3\n      mstore\n      0x20\n      swap1\n      swap2\n      keccak256\n      0x03\n      swap1\n      swap2\n      mul\n      add\n        /* \"Documents/GitHub/Store-system-with-feedback/main.sol\":8873:8913  structStatusMarriages[idMarriage].status */\n      0x02\n      add\n        /* \"Documents/GitHub/Store-system-with-feedback/main.sol\":8873:8921  structStatusMarriages[idMarriage].status = false */\n      dup1\n      sload\n      not(0xff)\n      and\n      swap2\n      iszero\n      iszero\n      swap2\n      swap1\n      swap2\n      or\n      swap1\n      sstore\n      pop\n      pop\n        /* \"Documents/GitHub/Store-system-with-feedback/main.sol\":12618:13195  function productMarriage(string memory titleProduct) public {\r... */\n      jump\t// out\n        /* \"Documents/GitHub/Store-system-with-feedback/main.sol\":8746:9040  if(confirmation == true) {\r... */\n    tag_366:\n        /* \"Documents/GitHub/Store-system-with-feedback/main.sol\":8942:8963  confirmation == false */\n      dup1\n        /* \"Documents/GitHub/Store-system-with-feedback/main.sol\":8939:9040  if(confirmation == false) {\r... */\n      tag_289\n      jumpi\n        /* \"Documents/GitHub/Store-system-with-feedback/main.sol\":9023:9028  false */\n      0x00\n        /* \"Documents/GitHub/Store-system-with-feedback/main.sol\":8980:9001  structStatusMarriages */\n      0x0c\n        /* \"Documents/GitHub/Store-system-with-feedback/main.sol\":9002:9012  idMarriage */\n      dup4\n        /* \"Documents/GitHub/Store-system-with-feedback/main.sol\":8980:9013  structStatusMarriages[idMarriage] */\n      dup2\n      sload\n      dup2\n      lt\n      tag_373\n      jumpi\n      tag_373\n      tag_243\n      jump\t// in\n        /* \"Documents/GitHub/Store-system-with-feedback/main.sol\":4220:4270  mapping (address => structShop) public structShops */\n    tag_149:\n      0x00\n      0x20\n      dup2\n      swap1\n      mstore\n      swap1\n      dup2\n      mstore\n      0x40\n      swap1\n      keccak256\n      dup1\n      sload\n      dup2\n      swap1\n      tag_380\n      swap1\n      tag_232\n      jump\t// in\n    tag_380:\n      dup1\n      0x1f\n      add\n      0x20\n      dup1\n      swap2\n      div\n      mul\n      0x20\n      add\n      mload(0x40)\n      swap1\n      dup2\n      add\n      0x40\n      mstore\n      dup1\n      swap3\n      swap2\n      swap1\n      dup2\n      dup2\n      mstore\n      0x20\n      add\n      dup3\n      dup1\n      sload\n      tag_381\n      swap1\n      tag_232\n      jump\t// in\n    tag_381:\n      dup1\n      iszero\n      tag_382\n      jumpi\n      dup1\n      0x1f\n      lt\n      tag_383\n      jumpi\n      0x0100\n      dup1\n      dup4\n      sload\n      div\n      mul\n      dup4\n      mstore\n      swap2\n      0x20\n      add\n      swap2\n      jump(tag_382)\n    tag_383:\n      dup3\n      add\n      swap2\n      swap1\n      0x00\n      mstore\n      keccak256(0x00, 0x20)\n      swap1\n    tag_384:\n      dup2\n      sload\n      dup2\n      mstore\n      swap1\n      0x01\n      add\n      swap1\n      0x20\n      add\n      dup1\n      dup4\n      gt\n      tag_384\n      jumpi\n      dup3\n      swap1\n      sub\n      0x1f\n      and\n      dup3\n      add\n      swap2\n    tag_382:\n      pop\n      pop\n      pop\n      0x01\n      dup5\n      add\n      sload\n      0x02\n      dup6\n      add\n      sload\n      0x03\n      dup7\n      add\n      sload\n      0x04\n      dup8\n      add\n      dup1\n      sload\n      swap7\n      swap8\n      swap4\n      swap7\n      swap3\n      swap6\n      pop\n      0xff\n      swap1\n      swap2\n      and\n      swap4\n      pop\n      swap1\n      tag_385\n      swap1\n      tag_232\n      jump\t// in\n    tag_385:\n      dup1\n      0x1f\n      add\n      0x20\n      dup1\n      swap2\n      div\n      mul\n      0x20\n      add\n      mload(0x40)\n      swap1\n      dup2\n      add\n      0x40\n      mstore\n      dup1\n      swap3\n      swap2\n      swap1\n      dup2\n      dup2\n      mstore\n      0x20\n      add\n      dup3\n      dup1\n      sload\n      tag_386\n      swap1\n      tag_232\n      jump\t// in\n    tag_386:\n      dup1\n      iszero\n      tag_387\n      jumpi\n      dup1\n      0x1f\n      lt\n      tag_388\n      jumpi\n      0x0100\n      dup1\n      dup4\n      sload\n      div\n      mul\n      dup4\n      mstore\n      swap2\n      0x20\n      add\n      swap2\n      jump(tag_387)\n    tag_388:\n      dup3\n      add\n      swap2\n      swap1\n      0x00\n      mstore\n      keccak256(0x00, 0x20)\n      swap1\n    tag_389:\n      dup2\n      sload\n      dup2\n      mstore\n      swap1\n      0x01\n      add\n      swap1\n      0x20\n      add\n      dup1\n      dup4\n      gt\n      tag_389\n      jumpi\n      dup3\n      swap1\n      sub\n      0x1f\n      and\n      dup3\n      add\n      swap2\n    tag_387:\n      pop\n      pop\n      pop\n      pop\n      pop\n      swap1\n      dup1\n      0x05\n      add\n      dup1\n      sload\n      tag_390\n      swap1\n      tag_232\n      jump\t// in\n    tag_390:\n      dup1\n      0x1f\n      add\n      0x20\n      dup1\n      swap2\n      div\n      mul\n      0x20\n      add\n      mload(0x40)\n      swap1\n      dup2\n      add\n      0x40\n      mstore\n      dup1\n      swap3\n      swap2\n      swap1\n      dup2\n      dup2\n      mstore\n      0x20\n      add\n      dup3\n      dup1\n      sload\n      tag_391\n      swap1\n      tag_232\n      jump\t// in\n    tag_391:\n      dup1\n      iszero\n      tag_392\n      jumpi\n      dup1\n      0x1f\n      lt\n      tag_393\n      jumpi\n      0x0100\n      dup1\n      dup4\n      sload\n      div\n      mul\n      dup4\n      mstore\n      swap2\n      0x20\n      add\n      swap2\n      jump(tag_392)\n    tag_393:\n      dup3\n      add\n      swap2\n      swap1\n      0x00\n      mstore\n      keccak256(0x00, 0x20)\n      swap1\n    tag_394:\n      dup2\n      sload\n      dup2\n      mstore\n      swap1\n      0x01\n      add\n      swap1\n      0x20\n      add\n      dup1\n      dup4\n      gt\n      tag_394\n      jumpi\n      dup3\n      swap1\n      sub\n      0x1f\n      and\n      dup3\n      add\n      swap2\n    tag_392:\n      pop\n      pop\n      pop\n      pop\n      pop\n      swap1\n      dup1\n      0x06\n      add\n      sload\n      swap1\n      pop\n      dup8\n      jump\t// out\n        /* \"Documents/GitHub/Store-system-with-feedback/main.sol\":4904:4953  mapping(address => structUser) public structUsers */\n    tag_155:\n      mstore(0x20, 0x04)\n      0x00\n      swap1\n      dup2\n      mstore\n      0x40\n      swap1\n      keccak256\n      dup1\n      sload\n      dup2\n      swap1\n      tag_395\n      swap1\n      tag_232\n      jump\t// in\n    tag_395:\n      dup1\n      0x1f\n      add\n      0x20\n      dup1\n      swap2\n      div\n      mul\n      0x20\n      add\n      mload(0x40)\n      swap1\n      dup2\n      add\n      0x40\n      mstore\n      dup1\n      swap3\n      swap2\n      swap1\n      dup2\n      dup2\n      mstore\n      0x20\n      add\n      dup3\n      dup1\n      sload\n      tag_396\n      swap1\n      tag_232\n      jump\t// in\n    tag_396:\n      dup1\n      iszero\n      tag_397\n      jumpi\n      dup1\n      0x1f\n      lt\n      tag_398\n      jumpi\n      0x0100\n      dup1\n      dup4\n      sload\n      div\n      mul\n      dup4\n      mstore\n      swap2\n      0x20\n      add\n      swap2\n      jump(tag_397)\n    tag_398:\n      dup3\n      add\n      swap2\n      swap1\n      0x00\n      mstore\n      keccak256(0x00, 0x20)\n      swap1\n    tag_399:\n      dup2\n      sload\n      dup2\n      mstore\n      swap1\n      0x01\n      add\n      swap1\n      0x20\n      add\n      dup1\n      dup4\n      gt\n      tag_399\n      jumpi\n      dup3\n      swap1\n      sub\n      0x1f\n      and\n      dup3\n      add\n      swap2\n    tag_397:\n      pop\n      pop\n      pop\n      pop\n      0x01\n      dup4\n      add\n      sload\n      0x02\n      dup5\n      add\n      sload\n      0x03\n      swap1\n      swap5\n      add\n      sload\n      swap3\n      swap4\n      swap1\n      swap3\n      swap1\n      swap2\n      pop\n      0xff\n      and\n      dup5\n      jump\t// out\n        /* \"Documents/GitHub/Store-system-with-feedback/main.sol\":7970:8466  function acceptReturn(uint idReturn, uint confirmation) public payable {\r... */\n    tag_161:\n        /* \"Documents/GitHub/Store-system-with-feedback/main.sol\":8074:8088  structProducts */\n      0x08\n        /* \"Documents/GitHub/Store-system-with-feedback/main.sol\":8089:8108  structStatusReturns */\n      0x0b\n        /* \"Documents/GitHub/Store-system-with-feedback/main.sol\":8109:8117  idReturn */\n      dup4\n        /* \"Documents/GitHub/Store-system-with-feedback/main.sol\":8089:8118  structStatusReturns[idReturn] */\n      dup2\n      sload\n      dup2\n      lt\n      tag_402\n      jumpi\n      tag_402\n      tag_243\n      jump\t// in\n    tag_402:\n      swap1\n      0x00\n      mstore\n      keccak256(0x00, 0x20)\n      swap1\n      0x03\n      mul\n      add\n        /* \"Documents/GitHub/Store-system-with-feedback/main.sol\":8089:8131  structStatusReturns[idReturn].titleProduct */\n      0x01\n      add\n        /* \"Documents/GitHub/Store-system-with-feedback/main.sol\":8074:8132  structProducts[structStatusReturns[idReturn].titleProduct] */\n      mload(0x40)\n      tag_404\n      swap2\n      swap1\n      tag_362\n      jump\t// in\n    tag_404:\n      swap1\n      dup2\n      mstore\n      mload(0x40)\n      swap1\n      dup2\n      swap1\n      sub\n      0x20\n      add\n      swap1\n      keccak256\n        /* \"Documents/GitHub/Store-system-with-feedback/main.sol\":8074:8137  structProducts[structStatusReturns[idReturn].titleProduct].shop */\n      sload\n        /* \"Documents/GitHub/Store-system-with-feedback/main.sol\":8060:8070  msg.sender */\n      caller\n      sub(shl(0xa0, 0x01), 0x01)\n        /* \"Documents/GitHub/Store-system-with-feedback/main.sol\":8074:8137  structProducts[structStatusReturns[idReturn].titleProduct].shop */\n      swap1\n      swap2\n      and\n        /* \"Documents/GitHub/Store-system-with-feedback/main.sol\":8060:8137  msg.sender == structProducts[structStatusReturns[idReturn].titleProduct].shop */\n      eq\n        /* \"Documents/GitHub/Store-system-with-feedback/main.sol\":8052:8173  require(msg.sender == structProducts[structStatusReturns[idReturn].titleProduct].shop, \"error: this is not your product\") */\n      tag_405\n      jumpi\n      mload(0x40)\n      shl(0xe5, 0x461bcd)\n      dup2\n      mstore\n      0x04\n      add\n      tag_213\n      swap1\n      tag_365\n      jump\t// in\n    tag_405:\n        /* \"Documents/GitHub/Store-system-with-feedback/main.sol\":8187:8199  confirmation */\n      dup1\n        /* \"Documents/GitHub/Store-system-with-feedback/main.sol\":8203:8204  1 */\n      0x01\n        /* \"Documents/GitHub/Store-system-with-feedback/main.sol\":8187:8204  confirmation == 1 */\n      eq\n        /* \"Documents/GitHub/Store-system-with-feedback/main.sol\":8184:8459  if(confirmation == 1) {\r... */\n      iszero\n      tag_407\n      jumpi\n        /* \"Documents/GitHub/Store-system-with-feedback/main.sol\":8229:8248  structStatusReturns */\n      0x0b\n        /* \"Documents/GitHub/Store-system-with-feedback/main.sol\":8249:8257  idReturn */\n      dup3\n        /* \"Documents/GitHub/Store-system-with-feedback/main.sol\":8229:8258  structStatusReturns[idReturn] */\n      dup2\n      sload\n      dup2\n      lt\n      tag_409\n      jumpi\n      tag_409\n      tag_243\n      jump\t// in\n    tag_409:\n      0x00\n      swap2\n      dup3\n      mstore\n      0x20\n      dup3\n      keccak256\n      0x03\n      swap1\n      swap2\n      mul\n      add\n        /* \"Documents/GitHub/Store-system-with-feedback/main.sol\":8229:8268  structStatusReturns[idReturn].userLogin */\n      sload\n        /* \"Documents/GitHub/Store-system-with-feedback/main.sol\":8221:8289  payable(structStatusReturns[idReturn].userLogin).transfer(msg.value) */\n      mload(0x40)\n      sub(shl(0xa0, 0x01), 0x01)\n        /* \"Documents/GitHub/Store-system-with-feedback/main.sol\":8229:8268  structStatusReturns[idReturn].userLogin */\n      swap1\n      swap2\n      and\n      swap2\n        /* \"Documents/GitHub/Store-system-with-feedback/main.sol\":8279:8288  msg.value */\n      callvalue\n        /* \"Documents/GitHub/Store-system-with-feedback/main.sol\":8221:8289  payable(structStatusReturns[idReturn].userLogin).transfer(msg.value) */\n      dup1\n      iszero\n      0x08fc\n      mul\n      swap3\n        /* \"Documents/GitHub/Store-system-with-feedback/main.sol\":8279:8288  msg.value */\n      swap1\n      swap2\n        /* \"Documents/GitHub/Store-system-with-feedback/main.sol\":8221:8289  payable(structStatusReturns[idReturn].userLogin).transfer(msg.value) */\n      dup2\n        /* \"Documents/GitHub/Store-system-with-feedback/main.sol\":8229:8258  structStatusReturns[idReturn] */\n      dup2\n        /* \"Documents/GitHub/Store-system-with-feedback/main.sol\":8221:8289  payable(structStatusReturns[idReturn].userLogin).transfer(msg.value) */\n      dup2\n        /* \"Documents/GitHub/Store-system-with-feedback/main.sol\":8279:8288  msg.value */\n      dup6\n        /* \"Documents/GitHub/Store-system-with-feedback/main.sol\":8229:8268  structStatusReturns[idReturn].userLogin */\n      dup9\n        /* \"Documents/GitHub/Store-system-with-feedback/main.sol\":8221:8289  payable(structStatusReturns[idReturn].userLogin).transfer(msg.value) */\n      dup9\n      call\n      swap4\n      pop\n      pop\n      pop\n      pop\n      iszero\n      dup1\n      iszero\n      tag_412\n      jumpi\n      returndatasize\n      0x00\n      dup1\n      returndatacopy\n      revert(0x00, returndatasize)\n    tag_412:\n      pop\n        /* \"Documents/GitHub/Store-system-with-feedback/main.sol\":8343:8348  false */\n      0x00\n        /* \"Documents/GitHub/Store-system-with-feedback/main.sol\":8304:8323  structStatusReturns */\n      0x0b\n        /* \"Documents/GitHub/Store-system-with-feedback/main.sol\":8324:8332  idReturn */\n      dup4\n        /* \"Documents/GitHub/Store-system-with-feedback/main.sol\":8304:8333  structStatusReturns[idReturn] */\n      dup2\n      sload\n      dup2\n      lt\n      tag_373\n      jumpi\n      tag_373\n      tag_243\n      jump\t// in\n        /* \"Documents/GitHub/Store-system-with-feedback/main.sol\":8184:8459  if(confirmation == 1) {\r... */\n    tag_407:\n        /* \"Documents/GitHub/Store-system-with-feedback/main.sol\":8369:8386  confirmation == 0 */\n      dup1\n        /* \"Documents/GitHub/Store-system-with-feedback/main.sol\":8366:8459  if(confirmation == 0) {\r... */\n      tag_289\n      jumpi\n        /* \"Documents/GitHub/Store-system-with-feedback/main.sol\":8442:8447  false */\n      0x00\n        /* \"Documents/GitHub/Store-system-with-feedback/main.sol\":8403:8422  structStatusReturns */\n      0x0b\n        /* \"Documents/GitHub/Store-system-with-feedback/main.sol\":8423:8431  idReturn */\n      dup4\n        /* \"Documents/GitHub/Store-system-with-feedback/main.sol\":8403:8432  structStatusReturns[idReturn] */\n      dup2\n      sload\n      dup2\n      lt\n      tag_373\n      jumpi\n      tag_373\n      tag_243\n      jump\t// in\n        /* \"Documents/GitHub/Store-system-with-feedback/main.sol\":9130:9983  function getStoryRating(string memory shopName) public view returns(uint) {\r... */\n    tag_165:\n        /* \"Documents/GitHub/Store-system-with-feedback/main.sol\":9198:9202  uint */\n      0x00\n      dup1\n      dup1\n      dup1\n        /* \"Documents/GitHub/Store-system-with-feedback/main.sol\":9288:9875  for(uint i = 0; i < shopList.length; i++) {\r... */\n    tag_422:\n        /* \"Documents/GitHub/Store-system-with-feedback/main.sol\":9308:9316  shopList */\n      0x02\n        /* \"Documents/GitHub/Store-system-with-feedback/main.sol\":9308:9323  shopList.length */\n      sload\n        /* \"Documents/GitHub/Store-system-with-feedback/main.sol\":9304:9323  i < shopList.length */\n      dup2\n      lt\n        /* \"Documents/GitHub/Store-system-with-feedback/main.sol\":9288:9875  for(uint i = 0; i < shopList.length; i++) {\r... */\n      iszero\n      tag_423\n      jumpi\n        /* \"Documents/GitHub/Store-system-with-feedback/main.sol\":9345:9371  string memory tempShopName */\n      0x00\n        /* \"Documents/GitHub/Store-system-with-feedback/main.sol\":9374:9382  shopList */\n      0x02\n        /* \"Documents/GitHub/Store-system-with-feedback/main.sol\":9383:9384  i */\n      dup3\n        /* \"Documents/GitHub/Store-system-with-feedback/main.sol\":9374:9385  shopList[i] */\n      dup2\n      sload\n      dup2\n      lt\n      tag_426\n      jumpi\n      tag_426\n      tag_243\n      jump\t// in\n    tag_426:\n      swap1\n      0x00\n      mstore\n      keccak256(0x00, 0x20)\n      add\n        /* \"Documents/GitHub/Store-system-with-feedback/main.sol\":9345:9385  string memory tempShopName = shopList[i] */\n      dup1\n      sload\n      tag_428\n      swap1\n      tag_232\n      jump\t// in\n    tag_428:\n      dup1\n      0x1f\n      add\n      0x20\n      dup1\n      swap2\n      div\n      mul\n      0x20\n      add\n      mload(0x40)\n      swap1\n      dup2\n      add\n      0x40\n      mstore\n      dup1\n      swap3\n      swap2\n      swap1\n      dup2\n      dup2\n      mstore\n      0x20\n      add\n      dup3\n      dup1\n      sload\n      tag_429\n      swap1\n      tag_232\n      jump\t// in\n    tag_429:\n      dup1\n      iszero\n      tag_430\n      jumpi\n      dup1\n      0x1f\n      lt\n      tag_431\n      jumpi\n      0x0100\n      dup1\n      dup4\n      sload\n      div\n      mul\n      dup4\n      mstore\n      swap2\n      0x20\n      add\n      swap2\n      jump(tag_430)\n    tag_431:\n      dup3\n      add\n      swap2\n      swap1\n      0x00\n      mstore\n      keccak256(0x00, 0x20)\n      swap1\n    tag_432:\n      dup2\n      sload\n      dup2\n      mstore\n      swap1\n      0x01\n      add\n      swap1\n      0x20\n      add\n      dup1\n      dup4\n      gt\n      tag_432\n      jumpi\n      dup3\n      swap1\n      sub\n      0x1f\n      and\n      dup3\n      add\n      swap2\n    tag_430:\n      pop\n      pop\n      pop\n      pop\n      pop\n      swap1\n      pop\n        /* \"Documents/GitHub/Store-system-with-feedback/main.sol\":9475:9483  shopName */\n      dup6\n        /* \"Documents/GitHub/Store-system-with-feedback/main.sol\":9458:9484  abi.encodePacked(shopName) */\n      add(0x20, mload(0x40))\n      tag_433\n      swap2\n      swap1\n      tag_207\n      jump\t// in\n    tag_433:\n      mload(0x40)\n      0x20\n      dup2\n      dup4\n      sub\n      sub\n      dup2\n      mstore\n      swap1\n      0x40\n      mstore\n        /* \"Documents/GitHub/Store-system-with-feedback/main.sol\":9448:9485  keccak256(abi.encodePacked(shopName)) */\n      dup1\n      mload\n      swap1\n      0x20\n      add\n      keccak256\n        /* \"Documents/GitHub/Store-system-with-feedback/main.sol\":9430:9442  tempShopName */\n      dup2\n        /* \"Documents/GitHub/Store-system-with-feedback/main.sol\":9413:9443  abi.encodePacked(tempShopName) */\n      add(0x20, mload(0x40))\n      tag_434\n      swap2\n      swap1\n      tag_207\n      jump\t// in\n    tag_434:\n      mload(0x40)\n      0x20\n      dup2\n      dup4\n      sub\n      sub\n      dup2\n      mstore\n      swap1\n      0x40\n      mstore\n        /* \"Documents/GitHub/Store-system-with-feedback/main.sol\":9403:9444  keccak256(abi.encodePacked(tempShopName)) */\n      dup1\n      mload\n      swap1\n      0x20\n      add\n      keccak256\n        /* \"Documents/GitHub/Store-system-with-feedback/main.sol\":9403:9485  keccak256(abi.encodePacked(tempShopName)) == keccak256(abi.encodePacked(shopName)) */\n      eq\n        /* \"Documents/GitHub/Store-system-with-feedback/main.sol\":9400:9864  if(keccak256(abi.encodePacked(tempShopName)) == keccak256(abi.encodePacked(shopName))) {                    \r... */\n      iszero\n      tag_437\n      jumpi\n        /* \"Documents/GitHub/Store-system-with-feedback/main.sol\":9535:9536  0 */\n      0x00\n        /* \"Documents/GitHub/Store-system-with-feedback/main.sol\":9531:9536  i = 0 */\n      swap2\n      pop\n        /* \"Documents/GitHub/Store-system-with-feedback/main.sol\":9526:9849  for (i = 0; i <= complaintBooks.length; i++) {\r... */\n    tag_436:\n        /* \"Documents/GitHub/Store-system-with-feedback/main.sol\":9543:9557  complaintBooks */\n      0x03\n        /* \"Documents/GitHub/Store-system-with-feedback/main.sol\":9543:9564  complaintBooks.length */\n      sload\n        /* \"Documents/GitHub/Store-system-with-feedback/main.sol\":9538:9564  i <= complaintBooks.length */\n      dup3\n      gt\n        /* \"Documents/GitHub/Store-system-with-feedback/main.sol\":9526:9849  for (i = 0; i <= complaintBooks.length; i++) {\r... */\n      tag_437\n      jumpi\n        /* \"Documents/GitHub/Store-system-with-feedback/main.sol\":9665:9679  complaintBooks */\n      0x03\n        /* \"Documents/GitHub/Store-system-with-feedback/main.sol\":9680:9681  i */\n      dup3\n        /* \"Documents/GitHub/Store-system-with-feedback/main.sol\":9665:9682  complaintBooks[i] */\n      dup2\n      sload\n      dup2\n      lt\n      tag_440\n      jumpi\n      tag_440\n      tag_243\n      jump\t// in\n    tag_440:\n      swap1\n      0x00\n      mstore\n      keccak256(0x00, 0x20)\n      swap1\n      0x05\n      mul\n      add\n        /* \"Documents/GitHub/Store-system-with-feedback/main.sol\":9665:9687  complaintBooks[i].shop */\n      0x00\n      add\n        /* \"Documents/GitHub/Store-system-with-feedback/main.sol\":9648:9688  abi.encodePacked(complaintBooks[i].shop) */\n      add(0x20, mload(0x40))\n      tag_442\n      swap2\n      swap1\n      tag_362\n      jump\t// in\n    tag_442:\n      mload(0x40)\n      0x20\n      dup2\n      dup4\n      sub\n      sub\n      dup2\n      mstore\n      swap1\n      0x40\n      mstore\n        /* \"Documents/GitHub/Store-system-with-feedback/main.sol\":9638:9689  keccak256(abi.encodePacked(complaintBooks[i].shop)) */\n      dup1\n      mload\n      swap1\n      0x20\n      add\n      keccak256\n        /* \"Documents/GitHub/Store-system-with-feedback/main.sol\":9624:9632  shopName */\n      dup7\n        /* \"Documents/GitHub/Store-system-with-feedback/main.sol\":9607:9633  abi.encodePacked(shopName) */\n      add(0x20, mload(0x40))\n      tag_443\n      swap2\n      swap1\n      tag_207\n      jump\t// in\n    tag_443:\n      mload(0x40)\n      0x20\n      dup2\n      dup4\n      sub\n      sub\n      dup2\n      mstore\n      swap1\n      0x40\n      mstore\n        /* \"Documents/GitHub/Store-system-with-feedback/main.sol\":9597:9634  keccak256(abi.encodePacked(shopName)) */\n      dup1\n      mload\n      swap1\n      0x20\n      add\n      keccak256\n        /* \"Documents/GitHub/Store-system-with-feedback/main.sol\":9597:9689  keccak256(abi.encodePacked(shopName)) == keccak256(abi.encodePacked(complaintBooks[i].shop)) */\n      eq\n        /* \"Documents/GitHub/Store-system-with-feedback/main.sol\":9594:9830  if(keccak256(abi.encodePacked(shopName)) == keccak256(abi.encodePacked(complaintBooks[i].shop))) {\r... */\n      iszero\n      tag_444\n      jumpi\n        /* \"Documents/GitHub/Store-system-with-feedback/main.sol\":9738:9752  complaintBooks */\n      0x03\n        /* \"Documents/GitHub/Store-system-with-feedback/main.sol\":9753:9754  i */\n      dup3\n        /* \"Documents/GitHub/Store-system-with-feedback/main.sol\":9738:9755  complaintBooks[i] */\n      dup2\n      sload\n      dup2\n      lt\n      tag_446\n      jumpi\n      tag_446\n      tag_243\n      jump\t// in\n    tag_446:\n      swap1\n      0x00\n      mstore\n      keccak256(0x00, 0x20)\n      swap1\n      0x05\n      mul\n      add\n        /* \"Documents/GitHub/Store-system-with-feedback/main.sol\":9738:9762  complaintBooks[i].rating */\n      0x03\n      add\n      sload\n        /* \"Documents/GitHub/Store-system-with-feedback/main.sol\":9718:9762  countArrayRating += complaintBooks[i].rating */\n      dup4\n      tag_448\n      swap2\n      swap1\n      tag_449\n      jump\t// in\n    tag_448:\n      swap3\n      pop\n        /* \"Documents/GitHub/Store-system-with-feedback/main.sol\":9594:9830  if(keccak256(abi.encodePacked(shopName)) == keccak256(abi.encodePacked(complaintBooks[i].shop))) {\r... */\n    tag_444:\n        /* \"Documents/GitHub/Store-system-with-feedback/main.sol\":9566:9569  i++ */\n      dup2\n      tag_450\n      dup2\n      tag_259\n      jump\t// in\n    tag_450:\n      swap3\n      pop\n      pop\n        /* \"Documents/GitHub/Store-system-with-feedback/main.sol\":9526:9849  for (i = 0; i <= complaintBooks.length; i++) {\r... */\n      jump(tag_436)\n    tag_437:\n      pop\n        /* \"Documents/GitHub/Store-system-with-feedback/main.sol\":9325:9328  i++ */\n      dup1\n      tag_451\n      dup2\n      tag_259\n      jump\t// in\n    tag_451:\n      swap2\n      pop\n      pop\n        /* \"Documents/GitHub/Store-system-with-feedback/main.sol\":9288:9875  for(uint i = 0; i < shopList.length; i++) {\r... */\n      jump(tag_422)\n    tag_423:\n      pop\n        /* \"Documents/GitHub/Store-system-with-feedback/main.sol\":9905:9941  countArrayRating / totalAverageValue */\n      tag_452\n        /* \"Documents/GitHub/Store-system-with-feedback/main.sol\":9924:9941  totalAverageValue */\n      dup3\n        /* \"Documents/GitHub/Store-system-with-feedback/main.sol\":9905:9921  countArrayRating */\n      dup3\n        /* \"Documents/GitHub/Store-system-with-feedback/main.sol\":9905:9941  countArrayRating / totalAverageValue */\n      tag_453\n      jump\t// in\n    tag_452:\n        /* \"Documents/GitHub/Store-system-with-feedback/main.sol\":9885:9941  countArrayRating += countArrayRating / totalAverageValue */\n      tag_454\n      swap1\n      dup3\n      tag_449\n      jump\t// in\n    tag_454:\n      swap5\n        /* \"Documents/GitHub/Store-system-with-feedback/main.sol\":9130:9983  function getStoryRating(string memory shopName) public view returns(uint) {\r... */\n      swap4\n      pop\n      pop\n      pop\n      pop\n      jump\t// out\n        /* \"Documents/GitHub/Store-system-with-feedback/main.sol\":5805:5852  structStatusReturn[] public structStatusReturns */\n    tag_170:\n      0x0b\n      dup2\n      dup2\n      sload\n      dup2\n      lt\n      tag_334\n      jumpi\n      0x00\n      dup1\n      revert\n        /* \"Documents/GitHub/Store-system-with-feedback/main.sol\":11987:12558  function productReturn(string memory titleProduct) public {\r... */\n    tag_175:\n        /* \"Documents/GitHub/Store-system-with-feedback/main.sol\":12056:12072  bool tempRequire */\n      0x00\n      dup1\n        /* \"Documents/GitHub/Store-system-with-feedback/main.sol\":12083:12477  for(uint i = 0; i < productList.length; i++) {\r... */\n    tag_463:\n        /* \"Documents/GitHub/Store-system-with-feedback/main.sol\":12103:12114  productList */\n      0x09\n        /* \"Documents/GitHub/Store-system-with-feedback/main.sol\":12103:12121  productList.length */\n      sload\n        /* \"Documents/GitHub/Store-system-with-feedback/main.sol\":12099:12121  i < productList.length */\n      dup2\n      lt\n        /* \"Documents/GitHub/Store-system-with-feedback/main.sol\":12083:12477  for(uint i = 0; i < productList.length; i++) {\r... */\n      iszero\n      tag_273\n      jumpi\n        /* \"Documents/GitHub/Store-system-with-feedback/main.sol\":12143:12172  string memory tempProductName */\n      0x00\n        /* \"Documents/GitHub/Store-system-with-feedback/main.sol\":12175:12186  productList */\n      0x09\n        /* \"Documents/GitHub/Store-system-with-feedback/main.sol\":12187:12188  i */\n      dup3\n        /* \"Documents/GitHub/Store-system-with-feedback/main.sol\":12175:12189  productList[i] */\n      dup2\n      sload\n      dup2\n      lt\n      tag_467\n      jumpi\n      tag_467\n      tag_243\n      jump\t// in\n    tag_467:\n      swap1\n      0x00\n      mstore\n      keccak256(0x00, 0x20)\n      add\n        /* \"Documents/GitHub/Store-system-with-feedback/main.sol\":12143:12189  string memory tempProductName = productList[i] */\n      dup1\n      sload\n      tag_469\n      swap1\n      tag_232\n      jump\t// in\n    tag_469:\n      dup1\n      0x1f\n      add\n      0x20\n      dup1\n      swap2\n      div\n      mul\n      0x20\n      add\n      mload(0x40)\n      swap1\n      dup2\n      add\n      0x40\n      mstore\n      dup1\n      swap3\n      swap2\n      swap1\n      dup2\n      dup2\n      mstore\n      0x20\n      add\n      dup3\n      dup1\n      sload\n      tag_470\n      swap1\n      tag_232\n      jump\t// in\n    tag_470:\n      dup1\n      iszero\n      tag_471\n      jumpi\n      dup1\n      0x1f\n      lt\n      tag_472\n      jumpi\n      0x0100\n      dup1\n      dup4\n      sload\n      div\n      mul\n      dup4\n      mstore\n      swap2\n      0x20\n      add\n      swap2\n      jump(tag_471)\n    tag_472:\n      dup3\n      add\n      swap2\n      swap1\n      0x00\n      mstore\n      keccak256(0x00, 0x20)\n      swap1\n    tag_473:\n      dup2\n      sload\n      dup2\n      mstore\n      swap1\n      0x01\n      add\n      swap1\n      0x20\n      add\n      dup1\n      dup4\n      gt\n      tag_473\n      jumpi\n      dup3\n      swap1\n      sub\n      0x1f\n      and\n      dup3\n      add\n      swap2\n    tag_471:\n      pop\n      pop\n      pop\n      pop\n      pop\n      swap1\n      pop\n        /* \"Documents/GitHub/Store-system-with-feedback/main.sol\":12282:12294  titleProduct */\n      dup4\n        /* \"Documents/GitHub/Store-system-with-feedback/main.sol\":12265:12295  abi.encodePacked(titleProduct) */\n      add(0x20, mload(0x40))\n      tag_474\n      swap2\n      swap1\n      tag_207\n      jump\t// in\n    tag_474:\n      mload(0x40)\n      0x20\n      dup2\n      dup4\n      sub\n      sub\n      dup2\n      mstore\n      swap1\n      0x40\n      mstore\n        /* \"Documents/GitHub/Store-system-with-feedback/main.sol\":12255:12296  keccak256(abi.encodePacked(titleProduct)) */\n      dup1\n      mload\n      swap1\n      0x20\n      add\n      keccak256\n        /* \"Documents/GitHub/Store-system-with-feedback/main.sol\":12234:12249  tempProductName */\n      dup2\n        /* \"Documents/GitHub/Store-system-with-feedback/main.sol\":12217:12250  abi.encodePacked(tempProductName) */\n      add(0x20, mload(0x40))\n      tag_475\n      swap2\n      swap1\n      tag_207\n      jump\t// in\n    tag_475:\n      mload(0x40)\n      0x20\n      dup2\n      dup4\n      sub\n      sub\n      dup2\n      mstore\n      swap1\n      0x40\n      mstore\n        /* \"Documents/GitHub/Store-system-with-feedback/main.sol\":12207:12251  keccak256(abi.encodePacked(tempProductName)) */\n      dup1\n      mload\n      swap1\n      0x20\n      add\n      keccak256\n        /* \"Documents/GitHub/Store-system-with-feedback/main.sol\":12207:12296  keccak256(abi.encodePacked(tempProductName)) == keccak256(abi.encodePacked(titleProduct)) */\n      eq\n        /* \"Documents/GitHub/Store-system-with-feedback/main.sol\":12204:12466  if(keccak256(abi.encodePacked(tempProductName)) == keccak256(abi.encodePacked(titleProduct))) {                    \r... */\n      iszero\n      tag_476\n      jumpi\n        /* \"Documents/GitHub/Store-system-with-feedback/main.sol\":12362:12412  structStatusReturn(msg.sender, titleProduct, true) */\n      0x40\n      dup1\n      mload\n      0x60\n      dup2\n      add\n      dup3\n      mstore\n        /* \"Documents/GitHub/Store-system-with-feedback/main.sol\":12381:12391  msg.sender */\n      caller\n        /* \"Documents/GitHub/Store-system-with-feedback/main.sol\":12362:12412  structStatusReturn(msg.sender, titleProduct, true) */\n      dup2\n      mstore\n      0x20\n      dup1\n      dup3\n      add\n      dup8\n      dup2\n      mstore\n        /* \"Documents/GitHub/Store-system-with-feedback/main.sol\":12407:12411  true */\n      0x01\n        /* \"Documents/GitHub/Store-system-with-feedback/main.sol\":12362:12412  structStatusReturn(msg.sender, titleProduct, true) */\n      swap4\n      dup4\n      add\n      dup5\n      swap1\n      mstore\n        /* \"Documents/GitHub/Store-system-with-feedback/main.sol\":12337:12356  structStatusReturns */\n      0x0b\n        /* \"Documents/GitHub/Store-system-with-feedback/main.sol\":12337:12413  structStatusReturns.push(structStatusReturn(msg.sender, titleProduct, true)) */\n      dup1\n      sload\n      swap5\n      dup6\n      add\n      dup2\n      sstore\n      0x00\n      mstore\n      dup3\n      mload\n      0x0175b7a638427703f0dbe7bb9bbf987a2551717b34e79f33b5b1008d1fa01db9\n      0x03\n      swap1\n      swap6\n      mul\n      swap5\n      dup6\n      add\n      dup1\n      sload\n      not(sub(shl(0xa0, 0x01), 0x01))\n      and\n      sub(shl(0xa0, 0x01), 0x01)\n      swap1\n      swap3\n      and\n      swap2\n      swap1\n      swap2\n      or\n      dup2\n      sstore\n      swap1\n      mload\n      dup1\n      mload\n        /* \"Documents/GitHub/Store-system-with-feedback/main.sol\":12362:12412  structStatusReturn(msg.sender, titleProduct, true) */\n      swap4\n      swap5\n        /* \"Documents/GitHub/Store-system-with-feedback/main.sol\":12337:12413  structStatusReturns.push(structStatusReturn(msg.sender, titleProduct, true)) */\n      swap2\n      swap4\n      tag_478\n      swap4\n      0x0175b7a638427703f0dbe7bb9bbf987a2551717b34e79f33b5b1008d1fa01dba\n      swap1\n      swap4\n      add\n      swap3\n      swap2\n      swap1\n      swap2\n      add\n      swap1\n      tag_216\n      jump\t// in\n    tag_478:\n      pop\n      0x40\n      swap2\n      swap1\n      swap2\n      add\n      mload\n      0x02\n      swap1\n      swap2\n      add\n      dup1\n      sload\n      not(0xff)\n      and\n      swap2\n      iszero\n      iszero\n      swap2\n      swap1\n      swap2\n      or\n      swap1\n      sstore\n      0x01\n      swap3\n      pop\n        /* \"Documents/GitHub/Store-system-with-feedback/main.sol\":12204:12466  if(keccak256(abi.encodePacked(tempProductName)) == keccak256(abi.encodePacked(titleProduct))) {                    \r... */\n    tag_476:\n      pop\n        /* \"Documents/GitHub/Store-system-with-feedback/main.sol\":12123:12126  i++ */\n      dup1\n      tag_479\n      dup2\n      tag_259\n      jump\t// in\n    tag_479:\n      swap2\n      pop\n      pop\n        /* \"Documents/GitHub/Store-system-with-feedback/main.sol\":12083:12477  for(uint i = 0; i < productList.length; i++) {\r... */\n      jump(tag_463)\n        /* \"Documents/GitHub/Store-system-with-feedback/main.sol\":6623:7211  function leaveFeedback (string memory shop, string memory feedback, uint256 rating) public {\r... */\n    tag_185:\n        /* \"Documents/GitHub/Store-system-with-feedback/main.sol\":6743:6745  10 */\n      0x0a\n        /* \"Documents/GitHub/Store-system-with-feedback/main.sol\":6733:6739  rating */\n      dup2\n        /* \"Documents/GitHub/Store-system-with-feedback/main.sol\":6733:6745  rating <= 10 */\n      gt\n      iszero\n        /* \"Documents/GitHub/Store-system-with-feedback/main.sol\":6725:6782  require(rating <= 10,\"error: rating can be from 1 to 10\") */\n      tag_483\n      jumpi\n      mload(0x40)\n      shl(0xe5, 0x461bcd)\n      dup2\n      mstore\n        /* \"#utility.yul\":14413:14415   */\n      0x20\n        /* \"Documents/GitHub/Store-system-with-feedback/main.sol\":6725:6782  require(rating <= 10,\"error: rating can be from 1 to 10\") */\n      0x04\n      dup3\n      add\n        /* \"#utility.yul\":14395:14416   */\n      mstore\n        /* \"#utility.yul\":14452:14454   */\n      0x21\n        /* \"#utility.yul\":14432:14450   */\n      0x24\n      dup3\n      add\n        /* \"#utility.yul\":14425:14455   */\n      mstore\n        /* \"#utility.yul\":14491:14525   */\n      0x6572726f723a20726174696e672063616e2062652066726f6d203120746f2031\n        /* \"#utility.yul\":14471:14489   */\n      0x44\n      dup3\n      add\n        /* \"#utility.yul\":14464:14526   */\n      mstore\n      shl(0xfc, 0x03)\n        /* \"#utility.yul\":14542:14560   */\n      0x64\n      dup3\n      add\n        /* \"#utility.yul\":14535:14566   */\n      mstore\n        /* \"#utility.yul\":14583:14602   */\n      0x84\n      add\n        /* \"Documents/GitHub/Store-system-with-feedback/main.sol\":6725:6782  require(rating <= 10,\"error: rating can be from 1 to 10\") */\n      tag_213\n        /* \"#utility.yul\":14211:14608   */\n      jump\n        /* \"Documents/GitHub/Store-system-with-feedback/main.sol\":6725:6782  require(rating <= 10,\"error: rating can be from 1 to 10\") */\n    tag_483:\n        /* \"Documents/GitHub/Store-system-with-feedback/main.sol\":6797:6803  uint i */\n      0x00\n        /* \"Documents/GitHub/Store-system-with-feedback/main.sol\":6793:7204  for(uint i = 0; i <= shopList.length; i++) {\r... */\n    tag_486:\n        /* \"Documents/GitHub/Store-system-with-feedback/main.sol\":6814:6822  shopList */\n      0x02\n        /* \"Documents/GitHub/Store-system-with-feedback/main.sol\":6814:6829  shopList.length */\n      sload\n        /* \"Documents/GitHub/Store-system-with-feedback/main.sol\":6809:6829  i <= shopList.length */\n      dup2\n      gt\n        /* \"Documents/GitHub/Store-system-with-feedback/main.sol\":6793:7204  for(uint i = 0; i <= shopList.length; i++) {\r... */\n      tag_487\n      jumpi\n        /* \"Documents/GitHub/Store-system-with-feedback/main.sol\":6851:6877  string memory tempShopName */\n      0x00\n        /* \"Documents/GitHub/Store-system-with-feedback/main.sol\":6880:6888  shopList */\n      0x02\n        /* \"Documents/GitHub/Store-system-with-feedback/main.sol\":6889:6890  i */\n      dup3\n        /* \"Documents/GitHub/Store-system-with-feedback/main.sol\":6880:6891  shopList[i] */\n      dup2\n      sload\n      dup2\n      lt\n      tag_490\n      jumpi\n      tag_490\n      tag_243\n      jump\t// in\n    tag_490:\n      swap1\n      0x00\n      mstore\n      keccak256(0x00, 0x20)\n      add\n        /* \"Documents/GitHub/Store-system-with-feedback/main.sol\":6851:6891  string memory tempShopName = shopList[i] */\n      dup1\n      sload\n      tag_492\n      swap1\n      tag_232\n      jump\t// in\n    tag_492:\n      dup1\n      0x1f\n      add\n      0x20\n      dup1\n      swap2\n      div\n      mul\n      0x20\n      add\n      mload(0x40)\n      swap1\n      dup2\n      add\n      0x40\n      mstore\n      dup1\n      swap3\n      swap2\n      swap1\n      dup2\n      dup2\n      mstore\n      0x20\n      add\n      dup3\n      dup1\n      sload\n      tag_493\n      swap1\n      tag_232\n      jump\t// in\n    tag_493:\n      dup1\n      iszero\n      tag_494\n      jumpi\n      dup1\n      0x1f\n      lt\n      tag_495\n      jumpi\n      0x0100\n      dup1\n      dup4\n      sload\n      div\n      mul\n      dup4\n      mstore\n      swap2\n      0x20\n      add\n      swap2\n      jump(tag_494)\n    tag_495:\n      dup3\n      add\n      swap2\n      swap1\n      0x00\n      mstore\n      keccak256(0x00, 0x20)\n      swap1\n    tag_496:\n      dup2\n      sload\n      dup2\n      mstore\n      swap1\n      0x01\n      add\n      swap1\n      0x20\n      add\n      dup1\n      dup4\n      gt\n      tag_496\n      jumpi\n      dup3\n      swap1\n      sub\n      0x1f\n      and\n      dup3\n      add\n      swap2\n    tag_494:\n      pop\n      pop\n      pop\n      pop\n      pop\n      swap1\n      pop\n        /* \"Documents/GitHub/Store-system-with-feedback/main.sol\":6981:6985  shop */\n      dup5\n        /* \"Documents/GitHub/Store-system-with-feedback/main.sol\":6964:6986  abi.encodePacked(shop) */\n      add(0x20, mload(0x40))\n      tag_497\n      swap2\n      swap1\n      tag_207\n      jump\t// in\n    tag_497:\n      mload(0x40)\n      0x20\n      dup2\n      dup4\n      sub\n      sub\n      dup2\n      mstore\n      swap1\n      0x40\n      mstore\n        /* \"Documents/GitHub/Store-system-with-feedback/main.sol\":6954:6987  keccak256(abi.encodePacked(shop)) */\n      dup1\n      mload\n      swap1\n      0x20\n      add\n      keccak256\n        /* \"Documents/GitHub/Store-system-with-feedback/main.sol\":6936:6948  tempShopName */\n      dup2\n        /* \"Documents/GitHub/Store-system-with-feedback/main.sol\":6919:6949  abi.encodePacked(tempShopName) */\n      add(0x20, mload(0x40))\n      tag_498\n      swap2\n      swap1\n      tag_207\n      jump\t// in\n    tag_498:\n      mload(0x40)\n      0x20\n      dup2\n      dup4\n      sub\n      sub\n      dup2\n      mstore\n      swap1\n      0x40\n      mstore\n        /* \"Documents/GitHub/Store-system-with-feedback/main.sol\":6909:6950  keccak256(abi.encodePacked(tempShopName)) */\n      dup1\n      mload\n      swap1\n      0x20\n      add\n      keccak256\n        /* \"Documents/GitHub/Store-system-with-feedback/main.sol\":6909:6987  keccak256(abi.encodePacked(tempShopName)) == keccak256(abi.encodePacked(shop)) */\n      eq\n        /* \"Documents/GitHub/Store-system-with-feedback/main.sol\":6906:7193  if(keccak256(abi.encodePacked(tempShopName)) == keccak256(abi.encodePacked(shop))) {                    \r... */\n      iszero\n      tag_499\n      jumpi\n        /* \"Documents/GitHub/Store-system-with-feedback/main.sol\":7093:7176  complaintBook(shop, structUsers[msg.sender].userName, feedback, rating, zerroArray) */\n      0x40\n      dup1\n      mload\n      0xa0\n      dup2\n      add\n      dup3\n      mstore\n      dup7\n      dup2\n      mstore\n        /* \"Documents/GitHub/Store-system-with-feedback/main.sol\":7125:7135  msg.sender */\n      caller\n      0x00\n        /* \"Documents/GitHub/Store-system-with-feedback/main.sol\":7113:7136  structUsers[msg.sender] */\n      swap1\n      dup2\n      mstore\n        /* \"Documents/GitHub/Store-system-with-feedback/main.sol\":7113:7124  structUsers */\n      0x04\n        /* \"Documents/GitHub/Store-system-with-feedback/main.sol\":7093:7176  complaintBook(shop, structUsers[msg.sender].userName, feedback, rating, zerroArray) */\n      0x20\n        /* \"Documents/GitHub/Store-system-with-feedback/main.sol\":7113:7136  structUsers[msg.sender] */\n      swap1\n      dup2\n      mstore\n      swap3\n      swap1\n      keccak256\n        /* \"Documents/GitHub/Store-system-with-feedback/main.sol\":7093:7176  complaintBook(shop, structUsers[msg.sender].userName, feedback, rating, zerroArray) */\n      dup1\n      sload\n        /* \"Documents/GitHub/Store-system-with-feedback/main.sol\":7028:7054  string[] memory zerroArray */\n      0x60\n      swap4\n        /* \"Documents/GitHub/Store-system-with-feedback/main.sol\":7073:7087  complaintBooks */\n      0x03\n      swap4\n        /* \"Documents/GitHub/Store-system-with-feedback/main.sol\":7093:7176  complaintBook(shop, structUsers[msg.sender].userName, feedback, rating, zerroArray) */\n      swap3\n      swap1\n      dup4\n      add\n      swap2\n      tag_500\n      swap1\n      tag_232\n      jump\t// in\n    tag_500:\n      dup1\n      0x1f\n      add\n      0x20\n      dup1\n      swap2\n      div\n      mul\n      0x20\n      add\n      mload(0x40)\n      swap1\n      dup2\n      add\n      0x40\n      mstore\n      dup1\n      swap3\n      swap2\n      swap1\n      dup2\n      dup2\n      mstore\n      0x20\n      add\n      dup3\n      dup1\n      sload\n      tag_501\n      swap1\n      tag_232\n      jump\t// in\n    tag_501:\n      dup1\n      iszero\n      tag_502\n      jumpi\n      dup1\n      0x1f\n      lt\n      tag_503\n      jumpi\n      0x0100\n      dup1\n      dup4\n      sload\n      div\n      mul\n      dup4\n      mstore\n      swap2\n      0x20\n      add\n      swap2\n      jump(tag_502)\n    tag_503:\n      dup3\n      add\n      swap2\n      swap1\n      0x00\n      mstore\n      keccak256(0x00, 0x20)\n      swap1\n    tag_504:\n      dup2\n      sload\n      dup2\n      mstore\n      swap1\n      0x01\n      add\n      swap1\n      0x20\n      add\n      dup1\n      dup4\n      gt\n      tag_504\n      jumpi\n      dup3\n      swap1\n      sub\n      0x1f\n      and\n      dup3\n      add\n      swap2\n    tag_502:\n      pop\n      pop\n      pop\n      swap2\n      dup4\n      mstore\n      pop\n      pop\n      0x20\n      dup1\n      dup3\n      add\n      dup10\n      swap1\n      mstore\n      0x40\n      dup3\n      add\n      dup9\n      swap1\n      mstore\n      0x60\n      swap1\n      swap2\n      add\n      dup5\n      swap1\n      mstore\n        /* \"Documents/GitHub/Store-system-with-feedback/main.sol\":7073:7177  complaintBooks.push(complaintBook(shop, structUsers[msg.sender].userName, feedback, rating, zerroArray)) */\n      dup3\n      sload\n      0x01\n      dup2\n      add\n      dup5\n      sstore\n      0x00\n      swap4\n      dup5\n      mstore\n      swap3\n      dup2\n      swap1\n      keccak256\n      dup3\n      mload\n      dup1\n      mload\n      swap4\n      swap5\n      0x05\n      mul\n      swap1\n      swap2\n      add\n      swap3\n      tag_506\n      swap3\n      dup5\n      swap3\n      add\n      swap1\n      tag_216\n      jump\t// in\n    tag_506:\n      pop\n      0x20\n      dup3\n      dup2\n      add\n      mload\n      dup1\n      mload\n      tag_507\n      swap3\n      0x01\n      dup6\n      add\n      swap3\n      add\n      swap1\n      tag_216\n      jump\t// in\n    tag_507:\n      pop\n      0x40\n      dup3\n      add\n      mload\n      dup1\n      mload\n      tag_508\n      swap2\n      0x02\n      dup5\n      add\n      swap2\n      0x20\n      swap1\n      swap2\n      add\n      swap1\n      tag_216\n      jump\t// in\n    tag_508:\n      pop\n      0x60\n      dup3\n      add\n      mload\n      0x03\n      dup3\n      add\n      sstore\n      0x80\n      dup3\n      add\n      mload\n      dup1\n      mload\n      tag_509\n      swap2\n      0x04\n      dup5\n      add\n      swap2\n      0x20\n      swap1\n      swap2\n      add\n      swap1\n      tag_257\n      jump\t// in\n    tag_509:\n      pop\n      pop\n      pop\n        /* \"Documents/GitHub/Store-system-with-feedback/main.sol\":6989:7193  {                    \r... */\n      pop\n        /* \"Documents/GitHub/Store-system-with-feedback/main.sol\":6906:7193  if(keccak256(abi.encodePacked(tempShopName)) == keccak256(abi.encodePacked(shop))) {                    \r... */\n    tag_499:\n      pop\n        /* \"Documents/GitHub/Store-system-with-feedback/main.sol\":6831:6834  i++ */\n      dup1\n      tag_510\n      dup2\n      tag_259\n      jump\t// in\n    tag_510:\n      swap2\n      pop\n      pop\n        /* \"Documents/GitHub/Store-system-with-feedback/main.sol\":6793:7204  for(uint i = 0; i <= shopList.length; i++) {\r... */\n      jump(tag_486)\n    tag_487:\n      pop\n        /* \"Documents/GitHub/Store-system-with-feedback/main.sol\":6623:7211  function leaveFeedback (string memory shop, string memory feedback, uint256 rating) public {\r... */\n      pop\n      pop\n      pop\n      jump\t// out\n        /* \"Documents/GitHub/Store-system-with-feedback/main.sol\":13675:14105  function login_user(string memory login, bytes32 password) public {\r... */\n    tag_189:\n        /* \"Documents/GitHub/Store-system-with-feedback/main.sol\":13760:13771  structUsers */\n      0x04\n        /* \"Documents/GitHub/Store-system-with-feedback/main.sol\":13760:13796  structUsers[structUserLogins[login]] */\n      0x00\n        /* \"Documents/GitHub/Store-system-with-feedback/main.sol\":13772:13788  structUserLogins */\n      0x05\n        /* \"Documents/GitHub/Store-system-with-feedback/main.sol\":13789:13794  login */\n      dup5\n        /* \"Documents/GitHub/Store-system-with-feedback/main.sol\":13772:13795  structUserLogins[login] */\n      mload(0x40)\n      tag_512\n      swap2\n      swap1\n      tag_207\n      jump\t// in\n    tag_512:\n      swap1\n      dup2\n      mstore\n      0x40\n      dup1\n      mload\n      0x20\n      swap3\n      dup2\n      swap1\n      sub\n      dup4\n      add\n      swap1\n      keccak256\n      sload\n      sub(shl(0xa0, 0x01), 0x01)\n      and\n        /* \"Documents/GitHub/Store-system-with-feedback/main.sol\":13760:13796  structUsers[structUserLogins[login]] */\n      dup4\n      mstore\n      swap1\n      dup3\n      add\n      swap3\n      swap1\n      swap3\n      mstore\n      add\n      0x00\n      keccak256\n        /* \"Documents/GitHub/Store-system-with-feedback/main.sol\":13760:13803  structUsers[structUserLogins[login]].logged */\n      0x03\n      add\n      sload\n      0xff\n      and\n        /* \"Documents/GitHub/Store-system-with-feedback/main.sol\":13760:13812  structUsers[structUserLogins[login]].logged == false */\n      iszero\n        /* \"Documents/GitHub/Store-system-with-feedback/main.sol\":13752:13846  require(structUsers[structUserLogins[login]].logged == false, \"Error: You are already logged\") */\n      tag_513\n      jumpi\n      mload(0x40)\n      shl(0xe5, 0x461bcd)\n      dup2\n      mstore\n      0x04\n      add\n      tag_213\n      swap1\n      tag_345\n      jump\t// in\n    tag_513:\n        /* \"Documents/GitHub/Store-system-with-feedback/main.sol\":13900:13901  0 */\n      0x00\n      sub(shl(0xa0, 0x01), 0x01)\n        /* \"Documents/GitHub/Store-system-with-feedback/main.sol\":13865:13902  structUserLogins[login] != address(0) */\n      and\n        /* \"Documents/GitHub/Store-system-with-feedback/main.sol\":13865:13881  structUserLogins */\n      0x05\n        /* \"Documents/GitHub/Store-system-with-feedback/main.sol\":13882:13887  login */\n      dup4\n        /* \"Documents/GitHub/Store-system-with-feedback/main.sol\":13865:13888  structUserLogins[login] */\n      mload(0x40)\n      tag_515\n      swap2\n      swap1\n      tag_207\n      jump\t// in\n    tag_515:\n      swap1\n      dup2\n      mstore\n      mload(0x40)\n      swap1\n      dup2\n      swap1\n      sub\n      0x20\n      add\n      swap1\n      keccak256\n      sload\n      sub(shl(0xa0, 0x01), 0x01)\n      and\n        /* \"Documents/GitHub/Store-system-with-feedback/main.sol\":13865:13902  structUserLogins[login] != address(0) */\n      eq\n      iszero\n        /* \"Documents/GitHub/Store-system-with-feedback/main.sol\":13857:13932  require(structUserLogins[login] != address(0), \"Error: User doesn't exist\") */\n      tag_516\n      jumpi\n      mload(0x40)\n      shl(0xe5, 0x461bcd)\n      dup2\n      mstore\n      0x04\n      add\n      tag_213\n      swap1\n      tag_349\n      jump\t// in\n    tag_516:\n        /* \"Documents/GitHub/Store-system-with-feedback/main.sol\":14000:14008  password */\n      dup1\n        /* \"Documents/GitHub/Store-system-with-feedback/main.sol\":13951:13962  structUsers */\n      0x04\n        /* \"Documents/GitHub/Store-system-with-feedback/main.sol\":13951:13987  structUsers[structUserLogins[login]] */\n      0x00\n        /* \"Documents/GitHub/Store-system-with-feedback/main.sol\":13963:13979  structUserLogins */\n      0x05\n        /* \"Documents/GitHub/Store-system-with-feedback/main.sol\":13980:13985  login */\n      dup6\n        /* \"Documents/GitHub/Store-system-with-feedback/main.sol\":13963:13986  structUserLogins[login] */\n      mload(0x40)\n      tag_518\n      swap2\n      swap1\n      tag_207\n      jump\t// in\n    tag_518:\n      swap1\n      dup2\n      mstore\n      0x40\n      dup1\n      mload\n      0x20\n      swap3\n      dup2\n      swap1\n      sub\n      dup4\n      add\n      swap1\n      keccak256\n      sload\n      sub(shl(0xa0, 0x01), 0x01)\n      and\n        /* \"Documents/GitHub/Store-system-with-feedback/main.sol\":13951:13987  structUsers[structUserLogins[login]] */\n      dup4\n      mstore\n      swap1\n      dup3\n      add\n      swap3\n      swap1\n      swap3\n      mstore\n      add\n      0x00\n      keccak256\n        /* \"Documents/GitHub/Store-system-with-feedback/main.sol\":13963:13986  structUserLogins[login] */\n      0x01\n        /* \"Documents/GitHub/Store-system-with-feedback/main.sol\":13951:13996  structUsers[structUserLogins[login]].password */\n      add\n      sload\n        /* \"Documents/GitHub/Store-system-with-feedback/main.sol\":13951:14008  structUsers[structUserLogins[login]].password == password */\n      eq\n        /* \"Documents/GitHub/Store-system-with-feedback/main.sol\":13943:14036  require(structUsers[structUserLogins[login]].password == password, \"Error: Invalid password\") */\n      tag_519\n      jumpi\n      mload(0x40)\n      shl(0xe5, 0x461bcd)\n      dup2\n      mstore\n      0x04\n      add\n      tag_213\n      swap1\n      tag_353\n      jump\t// in\n    tag_519:\n        /* \"Documents/GitHub/Store-system-with-feedback/main.sol\":14093:14097  true */\n      0x01\n        /* \"Documents/GitHub/Store-system-with-feedback/main.sol\":14047:14058  structUsers */\n      0x04\n        /* \"Documents/GitHub/Store-system-with-feedback/main.sol\":14047:14083  structUsers[structUserLogins[login]] */\n      0x00\n        /* \"Documents/GitHub/Store-system-with-feedback/main.sol\":14059:14075  structUserLogins */\n      0x05\n        /* \"Documents/GitHub/Store-system-with-feedback/main.sol\":14076:14081  login */\n      dup6\n        /* \"Documents/GitHub/Store-system-with-feedback/main.sol\":14059:14082  structUserLogins[login] */\n      mload(0x40)\n      tag_354\n      swap2\n      swap1\n      tag_207\n      jump\t// in\n        /* \"Documents/GitHub/Store-system-with-feedback/main.sol\":5260:5314  mapping(string => structProduct) public structProducts */\n    tag_193:\n      dup1\n      mload\n      0x20\n      dup2\n      dup4\n      add\n      dup2\n      add\n      dup1\n      mload\n      0x08\n      dup3\n      mstore\n      swap3\n      dup3\n      add\n      swap2\n      swap1\n      swap4\n      add\n      keccak256\n      swap2\n      mstore\n      dup1\n      sload\n      0x01\n      dup3\n      add\n      dup1\n      sload\n      sub(shl(0xa0, 0x01), 0x01)\n      swap1\n      swap3\n      and\n      swap3\n      swap2\n      tag_522\n      swap1\n      tag_232\n      jump\t// in\n    tag_522:\n      dup1\n      0x1f\n      add\n      0x20\n      dup1\n      swap2\n      div\n      mul\n      0x20\n      add\n      mload(0x40)\n      swap1\n      dup2\n      add\n      0x40\n      mstore\n      dup1\n      swap3\n      swap2\n      swap1\n      dup2\n      dup2\n      mstore\n      0x20\n      add\n      dup3\n      dup1\n      sload\n      tag_523\n      swap1\n      tag_232\n      jump\t// in\n    tag_523:\n      dup1\n      iszero\n      tag_524\n      jumpi\n      dup1\n      0x1f\n      lt\n      tag_525\n      jumpi\n      0x0100\n      dup1\n      dup4\n      sload\n      div\n      mul\n      dup4\n      mstore\n      swap2\n      0x20\n      add\n      swap2\n      jump(tag_524)\n    tag_525:\n      dup3\n      add\n      swap2\n      swap1\n      0x00\n      mstore\n      keccak256(0x00, 0x20)\n      swap1\n    tag_526:\n      dup2\n      sload\n      dup2\n      mstore\n      swap1\n      0x01\n      add\n      swap1\n      0x20\n      add\n      dup1\n      dup4\n      gt\n      tag_526\n      jumpi\n      dup3\n      swap1\n      sub\n      0x1f\n      and\n      dup3\n      add\n      swap2\n    tag_524:\n      pop\n      pop\n      pop\n      pop\n      pop\n      swap1\n      dup1\n      0x02\n      add\n      sload\n      swap1\n      dup1\n      0x03\n      add\n      sload\n      swap1\n      pop\n      dup5\n      jump\t// out\n        /* \"Documents/GitHub/Store-system-with-feedback/main.sol\":5567:5618  structStatusPurchase[] public structStatusPurchases */\n    tag_199:\n      0x0a\n      dup2\n      dup2\n      sload\n      dup2\n      lt\n      tag_527\n      jumpi\n      0x00\n      dup1\n      revert\n    tag_527:\n      0x00\n      swap2\n      dup3\n      mstore\n      0x20\n      swap1\n      swap2\n      keccak256\n      0x04\n      swap1\n      swap2\n      mul\n      add\n      dup1\n      sload\n      0x01\n      dup3\n      add\n      dup1\n      sload\n      sub(shl(0xa0, 0x01), 0x01)\n      swap1\n      swap3\n      and\n      swap4\n      pop\n      swap1\n      tag_529\n      swap1\n      tag_232\n      jump\t// in\n    tag_529:\n      dup1\n      0x1f\n      add\n      0x20\n      dup1\n      swap2\n      div\n      mul\n      0x20\n      add\n      mload(0x40)\n      swap1\n      dup2\n      add\n      0x40\n      mstore\n      dup1\n      swap3\n      swap2\n      swap1\n      dup2\n      dup2\n      mstore\n      0x20\n      add\n      dup3\n      dup1\n      sload\n      tag_530\n      swap1\n      tag_232\n      jump\t// in\n    tag_530:\n      dup1\n      iszero\n      tag_531\n      jumpi\n      dup1\n      0x1f\n      lt\n      tag_532\n      jumpi\n      0x0100\n      dup1\n      dup4\n      sload\n      div\n      mul\n      dup4\n      mstore\n      swap2\n      0x20\n      add\n      swap2\n      jump(tag_531)\n    tag_532:\n      dup3\n      add\n      swap2\n      swap1\n      0x00\n      mstore\n      keccak256(0x00, 0x20)\n      swap1\n    tag_533:\n      dup2\n      sload\n      dup2\n      mstore\n      swap1\n      0x01\n      add\n      swap1\n      0x20\n      add\n      dup1\n      dup4\n      gt\n      tag_533\n      jumpi\n      dup3\n      swap1\n      sub\n      0x1f\n      and\n      dup3\n      add\n      swap2\n    tag_531:\n      pop\n      pop\n      pop\n      pop\n      0x02\n      dup4\n      add\n      sload\n      0x03\n      swap1\n      swap4\n      add\n      sload\n      swap2\n      swap3\n      swap2\n      0xff\n      and\n      swap1\n      pop\n      dup5\n      jump\t// out\n        /* \"Documents/GitHub/Store-system-with-feedback/main.sol\":7273:7906  function acceptPurchase (uint idPurchase, uint confirmation) public payable {\r... */\n    tag_204:\n        /* \"Documents/GitHub/Store-system-with-feedback/main.sol\":7382:7396  structProducts */\n      0x08\n        /* \"Documents/GitHub/Store-system-with-feedback/main.sol\":7397:7418  structStatusPurchases */\n      0x0a\n        /* \"Documents/GitHub/Store-system-with-feedback/main.sol\":7419:7429  idPurchase */\n      dup4\n        /* \"Documents/GitHub/Store-system-with-feedback/main.sol\":7397:7430  structStatusPurchases[idPurchase] */\n      dup2\n      sload\n      dup2\n      lt\n      tag_536\n      jumpi\n      tag_536\n      tag_243\n      jump\t// in\n    tag_536:\n      swap1\n      0x00\n      mstore\n      keccak256(0x00, 0x20)\n      swap1\n      0x04\n      mul\n      add\n        /* \"Documents/GitHub/Store-system-with-feedback/main.sol\":7397:7443  structStatusPurchases[idPurchase].titleProduct */\n      0x01\n      add\n        /* \"Documents/GitHub/Store-system-with-feedback/main.sol\":7382:7444  structProducts[structStatusPurchases[idPurchase].titleProduct] */\n      mload(0x40)\n      tag_538\n      swap2\n      swap1\n      tag_362\n      jump\t// in\n    tag_538:\n      swap1\n      dup2\n      mstore\n      mload(0x40)\n      swap1\n      dup2\n      swap1\n      sub\n      0x20\n      add\n      swap1\n      keccak256\n        /* \"Documents/GitHub/Store-system-with-feedback/main.sol\":7382:7449  structProducts[structStatusPurchases[idPurchase].titleProduct].shop */\n      sload\n        /* \"Documents/GitHub/Store-system-with-feedback/main.sol\":7368:7378  msg.sender */\n      caller\n      sub(shl(0xa0, 0x01), 0x01)\n        /* \"Documents/GitHub/Store-system-with-feedback/main.sol\":7382:7449  structProducts[structStatusPurchases[idPurchase].titleProduct].shop */\n      swap1\n      swap2\n      and\n        /* \"Documents/GitHub/Store-system-with-feedback/main.sol\":7368:7449  msg.sender == structProducts[structStatusPurchases[idPurchase].titleProduct].shop */\n      eq\n        /* \"Documents/GitHub/Store-system-with-feedback/main.sol\":7360:7485  require(msg.sender == structProducts[structStatusPurchases[idPurchase].titleProduct].shop, \"error: this is not your product\") */\n      tag_539\n      jumpi\n      mload(0x40)\n      shl(0xe5, 0x461bcd)\n      dup2\n      mstore\n      0x04\n      add\n      tag_213\n      swap1\n      tag_365\n      jump\t// in\n    tag_539:\n        /* \"Documents/GitHub/Store-system-with-feedback/main.sol\":7500:7512  confirmation */\n      dup1\n        /* \"Documents/GitHub/Store-system-with-feedback/main.sol\":7516:7517  1 */\n      0x01\n        /* \"Documents/GitHub/Store-system-with-feedback/main.sol\":7500:7517  confirmation == 1 */\n      eq\n        /* \"Documents/GitHub/Store-system-with-feedback/main.sol\":7496:7899  if (confirmation == 1) {\r... */\n      iszero\n      tag_541\n      jumpi\n        /* \"Documents/GitHub/Store-system-with-feedback/main.sol\":7542:7552  msg.sender */\n      caller\n      sub(shl(0xa0, 0x01), 0x01)\n        /* \"Documents/GitHub/Store-system-with-feedback/main.sol\":7534:7562  payable(msg.sender).transfer */\n      and\n        /* \"Documents/GitHub/Store-system-with-feedback/main.sol\":7534:7603  payable(msg.sender).transfer(structStatusPurchases[idPurchase].price) */\n      0x08fc\n        /* \"Documents/GitHub/Store-system-with-feedback/main.sol\":7563:7584  structStatusPurchases */\n      0x0a\n        /* \"Documents/GitHub/Store-system-with-feedback/main.sol\":7585:7595  idPurchase */\n      dup5\n        /* \"Documents/GitHub/Store-system-with-feedback/main.sol\":7563:7596  structStatusPurchases[idPurchase] */\n      dup2\n      sload\n      dup2\n      lt\n      tag_543\n      jumpi\n      tag_543\n      tag_243\n      jump\t// in\n    tag_543:\n      swap1\n      0x00\n      mstore\n      keccak256(0x00, 0x20)\n      swap1\n      0x04\n      mul\n      add\n        /* \"Documents/GitHub/Store-system-with-feedback/main.sol\":7563:7602  structStatusPurchases[idPurchase].price */\n      0x02\n      add\n      sload\n        /* \"Documents/GitHub/Store-system-with-feedback/main.sol\":7534:7603  payable(msg.sender).transfer(structStatusPurchases[idPurchase].price) */\n      swap1\n      dup2\n      iszero\n      mul\n      swap1\n      mload(0x40)\n      0x00\n      mload(0x40)\n      dup1\n      dup4\n      sub\n      dup2\n      dup6\n      dup9\n      dup9\n      call\n      swap4\n      pop\n      pop\n      pop\n      pop\n      iszero\n      dup1\n      iszero\n      tag_546\n      jumpi\n      returndatasize\n      0x00\n      dup1\n      returndatacopy\n      revert(0x00, returndatasize)\n    tag_546:\n      pop\n        /* \"Documents/GitHub/Store-system-with-feedback/main.sol\":7661:7666  false */\n      0x00\n        /* \"Documents/GitHub/Store-system-with-feedback/main.sol\":7618:7639  structStatusPurchases */\n      0x0a\n        /* \"Documents/GitHub/Store-system-with-feedback/main.sol\":7640:7650  idPurchase */\n      dup4\n        /* \"Documents/GitHub/Store-system-with-feedback/main.sol\":7618:7651  structStatusPurchases[idPurchase] */\n      dup2\n      sload\n      dup2\n      lt\n      tag_548\n      jumpi\n      tag_548\n      tag_243\n      jump\t// in\n    tag_548:\n      0x00\n      swap2\n      dup3\n      mstore\n      0x20\n      swap1\n      swap2\n      keccak256\n      0x04\n      swap1\n      swap2\n      mul\n      add\n        /* \"Documents/GitHub/Store-system-with-feedback/main.sol\":7618:7658  structStatusPurchases[idPurchase].status */\n      0x03\n      add\n        /* \"Documents/GitHub/Store-system-with-feedback/main.sol\":7618:7666  structStatusPurchases[idPurchase].status = false */\n      dup1\n      sload\n      not(0xff)\n      and\n      swap2\n      iszero\n      iszero\n      swap2\n      swap1\n      swap2\n      or\n      swap1\n      sstore\n      pop\n      pop\n        /* \"Documents/GitHub/Store-system-with-feedback/main.sol\":12618:13195  function productMarriage(string memory titleProduct) public {\r... */\n      jump\t// out\n        /* \"Documents/GitHub/Store-system-with-feedback/main.sol\":7496:7899  if (confirmation == 1) {\r... */\n    tag_541:\n        /* \"Documents/GitHub/Store-system-with-feedback/main.sol\":7688:7705  confirmation == 0 */\n      dup1\n        /* \"Documents/GitHub/Store-system-with-feedback/main.sol\":7684:7899  if (confirmation == 0) {\r... */\n      tag_289\n      jumpi\n        /* \"Documents/GitHub/Store-system-with-feedback/main.sol\":7730:7751  structStatusPurchases */\n      0x0a\n        /* \"Documents/GitHub/Store-system-with-feedback/main.sol\":7752:7762  idPurchase */\n      dup3\n        /* \"Documents/GitHub/Store-system-with-feedback/main.sol\":7730:7763  structStatusPurchases[idPurchase] */\n      dup2\n      sload\n      dup2\n      lt\n      tag_553\n      jumpi\n      tag_553\n      tag_243\n      jump\t// in\n    tag_553:\n      0x00\n      swap2\n      dup3\n      mstore\n      0x20\n      swap1\n      swap2\n      keccak256\n      0x04\n      swap1\n      swap2\n      mul\n      add\n        /* \"Documents/GitHub/Store-system-with-feedback/main.sol\":7730:7773  structStatusPurchases[idPurchase].userLogin */\n      sload\n        /* \"Documents/GitHub/Store-system-with-feedback/main.sol\":7784:7805  structStatusPurchases */\n      0x0a\n        /* \"Documents/GitHub/Store-system-with-feedback/main.sol\":7784:7817  structStatusPurchases[idPurchase] */\n      dup1\n      sload\n      sub(shl(0xa0, 0x01), 0x01)\n        /* \"Documents/GitHub/Store-system-with-feedback/main.sol\":7730:7773  structStatusPurchases[idPurchase].userLogin */\n      swap1\n      swap3\n      and\n      swap2\n        /* \"Documents/GitHub/Store-system-with-feedback/main.sol\":7722:7824  payable(structStatusPurchases[idPurchase].userLogin).transfer(structStatusPurchases[idPurchase].price) */\n      0x08fc\n      swap2\n        /* \"Documents/GitHub/Store-system-with-feedback/main.sol\":7784:7805  structStatusPurchases */\n      swap1\n        /* \"Documents/GitHub/Store-system-with-feedback/main.sol\":7806:7816  idPurchase */\n      dup6\n      swap1\n        /* \"Documents/GitHub/Store-system-with-feedback/main.sol\":7784:7817  structStatusPurchases[idPurchase] */\n      dup2\n      lt\n      tag_543\n      jumpi\n      tag_543\n      tag_243\n      jump\t// in\n    tag_216:\n      dup3\n      dup1\n      sload\n      tag_563\n      swap1\n      tag_232\n      jump\t// in\n    tag_563:\n      swap1\n      0x00\n      mstore\n      keccak256(0x00, 0x20)\n      swap1\n      0x1f\n      add\n      0x20\n      swap1\n      div\n      dup2\n      add\n      swap3\n      dup3\n      tag_565\n      jumpi\n      0x00\n      dup6\n      sstore\n      jump(tag_568)\n    tag_565:\n      dup3\n      0x1f\n      lt\n      tag_566\n      jumpi\n      dup1\n      mload\n      not(0xff)\n      and\n      dup4\n      dup1\n      add\n      or\n      dup6\n      sstore\n      jump(tag_568)\n    tag_566:\n      dup3\n      dup1\n      add\n      0x01\n      add\n      dup6\n      sstore\n      dup3\n      iszero\n      tag_568\n      jumpi\n      swap2\n      dup3\n      add\n    tag_567:\n      dup3\n      dup2\n      gt\n      iszero\n      tag_568\n      jumpi\n      dup3\n      mload\n      dup3\n      sstore\n      swap2\n      0x20\n      add\n      swap2\n      swap1\n      0x01\n      add\n      swap1\n      jump(tag_567)\n    tag_568:\n      pop\n      tag_569\n      swap3\n      swap2\n      pop\n      tag_570\n      jump\t// in\n    tag_569:\n      pop\n      swap1\n      jump\t// out\n    tag_257:\n      dup3\n      dup1\n      sload\n      dup3\n      dup3\n      sstore\n      swap1\n      0x00\n      mstore\n      keccak256(0x00, 0x20)\n      swap1\n      dup2\n      add\n      swap3\n      dup3\n      iszero\n      tag_573\n      jumpi\n      swap2\n      0x20\n      mul\n      dup3\n      add\n    tag_572:\n      dup3\n      dup2\n      gt\n      iszero\n      tag_573\n      jumpi\n      dup3\n      mload\n      dup1\n      mload\n      tag_574\n      swap2\n      dup5\n      swap2\n      0x20\n      swap1\n      swap2\n      add\n      swap1\n      tag_216\n      jump\t// in\n    tag_574:\n      pop\n      swap2\n      0x20\n      add\n      swap2\n      swap1\n      0x01\n      add\n      swap1\n      jump(tag_572)\n    tag_573:\n      pop\n      tag_569\n      swap3\n      swap2\n      pop\n      tag_576\n      jump\t// in\n    tag_570:\n    tag_577:\n      dup1\n      dup3\n      gt\n      iszero\n      tag_569\n      jumpi\n      0x00\n      dup2\n      sstore\n      0x01\n      add\n      jump(tag_577)\n    tag_576:\n      dup1\n      dup3\n      gt\n      iszero\n      tag_569\n      jumpi\n      0x00\n      tag_581\n      dup3\n      dup3\n      tag_582\n      jump\t// in\n    tag_581:\n      pop\n      0x01\n      add\n      jump(tag_576)\n    tag_582:\n      pop\n      dup1\n      sload\n      tag_583\n      swap1\n      tag_232\n      jump\t// in\n    tag_583:\n      0x00\n      dup3\n      sstore\n      dup1\n      0x1f\n      lt\n      tag_585\n      jumpi\n      pop\n      pop\n      jump\t// out\n    tag_585:\n      0x1f\n      add\n      0x20\n      swap1\n      div\n      swap1\n      0x00\n      mstore\n      keccak256(0x00, 0x20)\n      swap1\n      dup2\n      add\n      swap1\n      tag_586\n      swap2\n      swap1\n      tag_570\n      jump\t// in\n    tag_586:\n      pop\n      jump\t// out\n        /* \"#utility.yul\":14:187   */\n    tag_588:\n        /* \"#utility.yul\":82:102   */\n      dup1\n      calldataload\n      sub(shl(0xa0, 0x01), 0x01)\n        /* \"#utility.yul\":131:162   */\n      dup2\n      and\n        /* \"#utility.yul\":121:163   */\n      dup2\n      eq\n        /* \"#utility.yul\":111:181   */\n      tag_590\n      jumpi\n        /* \"#utility.yul\":177:178   */\n      0x00\n        /* \"#utility.yul\":174:175   */\n      dup1\n        /* \"#utility.yul\":167:179   */\n      revert\n        /* \"#utility.yul\":111:181   */\n    tag_590:\n        /* \"#utility.yul\":14:187   */\n      swap2\n      swap1\n      pop\n      jump\t// out\n        /* \"#utility.yul\":192:723   */\n    tag_591:\n        /* \"#utility.yul\":235:240   */\n      0x00\n        /* \"#utility.yul\":288:291   */\n      dup3\n        /* \"#utility.yul\":281:285   */\n      0x1f\n        /* \"#utility.yul\":273:279   */\n      dup4\n        /* \"#utility.yul\":269:286   */\n      add\n        /* \"#utility.yul\":265:292   */\n      slt\n        /* \"#utility.yul\":255:310   */\n      tag_593\n      jumpi\n        /* \"#utility.yul\":306:307   */\n      0x00\n        /* \"#utility.yul\":303:304   */\n      dup1\n        /* \"#utility.yul\":296:308   */\n      revert\n        /* \"#utility.yul\":255:310   */\n    tag_593:\n        /* \"#utility.yul\":329:349   */\n      dup2\n      calldataload\n      sub(shl(0x40, 0x01), 0x01)\n        /* \"#utility.yul\":361:387   */\n      dup2\n      gt\n        /* \"#utility.yul\":358:410   */\n      iszero\n      tag_595\n      jumpi\n        /* \"#utility.yul\":390:408   */\n      tag_595\n      tag_596\n      jump\t// in\n    tag_595:\n        /* \"#utility.yul\":434:489   */\n      tag_597\n        /* \"#utility.yul\":477:479   */\n      0x1f\n        /* \"#utility.yul\":458:471   */\n      dup3\n      add\n      not(0x1f)\n        /* \"#utility.yul\":454:481   */\n      and\n        /* \"#utility.yul\":483:487   */\n      0x20\n        /* \"#utility.yul\":450:488   */\n      add\n        /* \"#utility.yul\":434:489   */\n      tag_598\n      jump\t// in\n    tag_597:\n        /* \"#utility.yul\":514:516   */\n      dup2\n        /* \"#utility.yul\":505:512   */\n      dup2\n        /* \"#utility.yul\":498:517   */\n      mstore\n        /* \"#utility.yul\":560:563   */\n      dup5\n        /* \"#utility.yul\":553:557   */\n      0x20\n        /* \"#utility.yul\":548:550   */\n      dup4\n        /* \"#utility.yul\":540:546   */\n      dup7\n        /* \"#utility.yul\":536:551   */\n      add\n        /* \"#utility.yul\":532:558   */\n      add\n        /* \"#utility.yul\":529:564   */\n      gt\n        /* \"#utility.yul\":526:581   */\n      iszero\n      tag_599\n      jumpi\n        /* \"#utility.yul\":577:578   */\n      0x00\n        /* \"#utility.yul\":574:575   */\n      dup1\n        /* \"#utility.yul\":567:579   */\n      revert\n        /* \"#utility.yul\":526:581   */\n    tag_599:\n        /* \"#utility.yul\":642:644   */\n      dup2\n        /* \"#utility.yul\":635:639   */\n      0x20\n        /* \"#utility.yul\":627:633   */\n      dup6\n        /* \"#utility.yul\":623:640   */\n      add\n        /* \"#utility.yul\":616:620   */\n      0x20\n        /* \"#utility.yul\":607:614   */\n      dup4\n        /* \"#utility.yul\":603:621   */\n      add\n        /* \"#utility.yul\":590:645   */\n      calldatacopy\n        /* \"#utility.yul\":690:691   */\n      0x00\n        /* \"#utility.yul\":665:681   */\n      swap2\n      dup2\n      add\n        /* \"#utility.yul\":683:687   */\n      0x20\n        /* \"#utility.yul\":661:688   */\n      add\n        /* \"#utility.yul\":654:692   */\n      swap2\n      swap1\n      swap2\n      mstore\n        /* \"#utility.yul\":669:676   */\n      swap4\n        /* \"#utility.yul\":192:723   */\n      swap3\n      pop\n      pop\n      pop\n      jump\t// out\n        /* \"#utility.yul\":728:914   */\n    tag_64:\n        /* \"#utility.yul\":787:793   */\n      0x00\n        /* \"#utility.yul\":840:842   */\n      0x20\n        /* \"#utility.yul\":828:837   */\n      dup3\n        /* \"#utility.yul\":819:826   */\n      dup5\n        /* \"#utility.yul\":815:838   */\n      sub\n        /* \"#utility.yul\":811:843   */\n      slt\n        /* \"#utility.yul\":808:860   */\n      iszero\n      tag_601\n      jumpi\n        /* \"#utility.yul\":856:857   */\n      0x00\n        /* \"#utility.yul\":853:854   */\n      dup1\n        /* \"#utility.yul\":846:858   */\n      revert\n        /* \"#utility.yul\":808:860   */\n    tag_601:\n        /* \"#utility.yul\":879:908   */\n      tag_602\n        /* \"#utility.yul\":898:907   */\n      dup3\n        /* \"#utility.yul\":879:908   */\n      tag_588\n      jump\t// in\n    tag_602:\n        /* \"#utility.yul\":869:908   */\n      swap4\n        /* \"#utility.yul\":728:914   */\n      swap3\n      pop\n      pop\n      pop\n      jump\t// out\n        /* \"#utility.yul\":919:1383   */\n    tag_50:\n        /* \"#utility.yul\":1006:1012   */\n      0x00\n        /* \"#utility.yul\":1014:1020   */\n      dup1\n        /* \"#utility.yul\":1022:1028   */\n      0x00\n        /* \"#utility.yul\":1075:1077   */\n      0x60\n        /* \"#utility.yul\":1063:1072   */\n      dup5\n        /* \"#utility.yul\":1054:1061   */\n      dup7\n        /* \"#utility.yul\":1050:1073   */\n      sub\n        /* \"#utility.yul\":1046:1078   */\n      slt\n        /* \"#utility.yul\":1043:1095   */\n      iszero\n      tag_604\n      jumpi\n        /* \"#utility.yul\":1091:1092   */\n      0x00\n        /* \"#utility.yul\":1088:1089   */\n      dup1\n        /* \"#utility.yul\":1081:1093   */\n      revert\n        /* \"#utility.yul\":1043:1095   */\n    tag_604:\n        /* \"#utility.yul\":1114:1143   */\n      tag_605\n        /* \"#utility.yul\":1133:1142   */\n      dup5\n        /* \"#utility.yul\":1114:1143   */\n      tag_588\n      jump\t// in\n    tag_605:\n        /* \"#utility.yul\":1104:1143   */\n      swap3\n      pop\n        /* \"#utility.yul\":1194:1196   */\n      0x20\n        /* \"#utility.yul\":1179:1197   */\n      dup5\n      add\n        /* \"#utility.yul\":1166:1198   */\n      calldataload\n      sub(shl(0x40, 0x01), 0x01)\n        /* \"#utility.yul\":1210:1240   */\n      dup2\n      gt\n        /* \"#utility.yul\":1207:1257   */\n      iszero\n      tag_606\n      jumpi\n        /* \"#utility.yul\":1253:1254   */\n      0x00\n        /* \"#utility.yul\":1250:1251   */\n      dup1\n        /* \"#utility.yul\":1243:1255   */\n      revert\n        /* \"#utility.yul\":1207:1257   */\n    tag_606:\n        /* \"#utility.yul\":1276:1326   */\n      tag_607\n        /* \"#utility.yul\":1318:1325   */\n      dup7\n        /* \"#utility.yul\":1309:1315   */\n      dup3\n        /* \"#utility.yul\":1298:1307   */\n      dup8\n        /* \"#utility.yul\":1294:1316   */\n      add\n        /* \"#utility.yul\":1276:1326   */\n      tag_591\n      jump\t// in\n    tag_607:\n        /* \"#utility.yul\":1266:1326   */\n      swap3\n      pop\n      pop\n        /* \"#utility.yul\":1373:1375   */\n      0x40\n        /* \"#utility.yul\":1362:1371   */\n      dup5\n        /* \"#utility.yul\":1358:1376   */\n      add\n        /* \"#utility.yul\":1345:1377   */\n      calldataload\n        /* \"#utility.yul\":1335:1377   */\n      swap1\n      pop\n        /* \"#utility.yul\":919:1383   */\n      swap3\n      pop\n      swap3\n      pop\n      swap3\n      jump\t// out\n        /* \"#utility.yul\":1388:1710   */\n    tag_39:\n        /* \"#utility.yul\":1457:1463   */\n      0x00\n        /* \"#utility.yul\":1510:1512   */\n      0x20\n        /* \"#utility.yul\":1498:1507   */\n      dup3\n        /* \"#utility.yul\":1489:1496   */\n      dup5\n        /* \"#utility.yul\":1485:1508   */\n      sub\n        /* \"#utility.yul\":1481:1513   */\n      slt\n        /* \"#utility.yul\":1478:1530   */\n      iszero\n      tag_609\n      jumpi\n        /* \"#utility.yul\":1526:1527   */\n      0x00\n        /* \"#utility.yul\":1523:1524   */\n      dup1\n        /* \"#utility.yul\":1516:1528   */\n      revert\n        /* \"#utility.yul\":1478:1530   */\n    tag_609:\n        /* \"#utility.yul\":1553:1576   */\n      dup2\n      calldataload\n      sub(shl(0x40, 0x01), 0x01)\n        /* \"#utility.yul\":1588:1618   */\n      dup2\n      gt\n        /* \"#utility.yul\":1585:1635   */\n      iszero\n      tag_610\n      jumpi\n        /* \"#utility.yul\":1631:1632   */\n      0x00\n        /* \"#utility.yul\":1628:1629   */\n      dup1\n        /* \"#utility.yul\":1621:1633   */\n      revert\n        /* \"#utility.yul\":1585:1635   */\n    tag_610:\n        /* \"#utility.yul\":1654:1704   */\n      tag_454\n        /* \"#utility.yul\":1696:1703   */\n      dup5\n        /* \"#utility.yul\":1687:1693   */\n      dup3\n        /* \"#utility.yul\":1676:1685   */\n      dup6\n        /* \"#utility.yul\":1672:1694   */\n      add\n        /* \"#utility.yul\":1654:1704   */\n      tag_591\n      jump\t// in\n        /* \"#utility.yul\":1715:3050   */\n    tag_75:\n        /* \"#utility.yul\":1828:1834   */\n      0x00\n        /* \"#utility.yul\":1836:1842   */\n      dup1\n        /* \"#utility.yul\":1889:1891   */\n      0x40\n        /* \"#utility.yul\":1877:1886   */\n      dup4\n        /* \"#utility.yul\":1868:1875   */\n      dup6\n        /* \"#utility.yul\":1864:1887   */\n      sub\n        /* \"#utility.yul\":1860:1892   */\n      slt\n        /* \"#utility.yul\":1857:1909   */\n      iszero\n      tag_613\n      jumpi\n        /* \"#utility.yul\":1905:1906   */\n      0x00\n        /* \"#utility.yul\":1902:1903   */\n      dup1\n        /* \"#utility.yul\":1895:1907   */\n      revert\n        /* \"#utility.yul\":1857:1909   */\n    tag_613:\n        /* \"#utility.yul\":1932:1955   */\n      dup3\n      calldataload\n      sub(shl(0x40, 0x01), 0x01)\n        /* \"#utility.yul\":2004:2018   */\n      dup1\n      dup3\n      gt\n        /* \"#utility.yul\":2001:2035   */\n      iszero\n      tag_614\n      jumpi\n        /* \"#utility.yul\":2031:2032   */\n      0x00\n        /* \"#utility.yul\":2028:2029   */\n      dup1\n        /* \"#utility.yul\":2021:2033   */\n      revert\n        /* \"#utility.yul\":2001:2035   */\n    tag_614:\n        /* \"#utility.yul\":2054:2104   */\n      tag_615\n        /* \"#utility.yul\":2096:2103   */\n      dup7\n        /* \"#utility.yul\":2087:2093   */\n      dup4\n        /* \"#utility.yul\":2076:2085   */\n      dup8\n        /* \"#utility.yul\":2072:2094   */\n      add\n        /* \"#utility.yul\":2054:2104   */\n      tag_591\n      jump\t// in\n    tag_615:\n        /* \"#utility.yul\":2044:2104   */\n      swap4\n      pop\n        /* \"#utility.yul\":2123:2125   */\n      0x20\n        /* \"#utility.yul\":2113:2125   */\n      swap2\n      pop\n        /* \"#utility.yul\":2178:2180   */\n      dup2\n        /* \"#utility.yul\":2167:2176   */\n      dup6\n        /* \"#utility.yul\":2163:2181   */\n      add\n        /* \"#utility.yul\":2150:2182   */\n      calldataload\n        /* \"#utility.yul\":2207:2209   */\n      dup2\n        /* \"#utility.yul\":2197:2205   */\n      dup2\n        /* \"#utility.yul\":2194:2210   */\n      gt\n        /* \"#utility.yul\":2191:2227   */\n      iszero\n      tag_616\n      jumpi\n        /* \"#utility.yul\":2223:2224   */\n      0x00\n        /* \"#utility.yul\":2220:2221   */\n      dup1\n        /* \"#utility.yul\":2213:2225   */\n      revert\n        /* \"#utility.yul\":2191:2227   */\n    tag_616:\n        /* \"#utility.yul\":2246:2270   */\n      dup6\n      add\n        /* \"#utility.yul\":2301:2305   */\n      0x1f\n        /* \"#utility.yul\":2293:2306   */\n      dup2\n      add\n        /* \"#utility.yul\":2289:2316   */\n      dup8\n      sgt\n        /* \"#utility.yul\":2279:2334   */\n      tag_617\n      jumpi\n        /* \"#utility.yul\":2330:2331   */\n      0x00\n        /* \"#utility.yul\":2327:2328   */\n      dup1\n        /* \"#utility.yul\":2320:2332   */\n      revert\n        /* \"#utility.yul\":2279:2334   */\n    tag_617:\n        /* \"#utility.yul\":2366:2368   */\n      dup1\n        /* \"#utility.yul\":2353:2369   */\n      calldataload\n        /* \"#utility.yul\":2388:2390   */\n      dup3\n        /* \"#utility.yul\":2384:2386   */\n      dup2\n        /* \"#utility.yul\":2381:2391   */\n      gt\n        /* \"#utility.yul\":2378:2414   */\n      iszero\n      tag_619\n      jumpi\n        /* \"#utility.yul\":2394:2412   */\n      tag_619\n      tag_596\n      jump\t// in\n    tag_619:\n        /* \"#utility.yul\":2440:2442   */\n      dup1\n        /* \"#utility.yul\":2437:2438   */\n      0x05\n        /* \"#utility.yul\":2433:2443   */\n      shl\n        /* \"#utility.yul\":2463:2491   */\n      tag_620\n        /* \"#utility.yul\":2487:2489   */\n      dup6\n        /* \"#utility.yul\":2483:2485   */\n      dup3\n        /* \"#utility.yul\":2479:2490   */\n      add\n        /* \"#utility.yul\":2463:2491   */\n      tag_598\n      jump\t// in\n    tag_620:\n        /* \"#utility.yul\":2525:2540   */\n      dup3\n      dup2\n      mstore\n        /* \"#utility.yul\":2556:2568   */\n      dup6\n      dup2\n      add\n      swap1\n        /* \"#utility.yul\":2588:2599   */\n      dup5\n      dup8\n      add\n        /* \"#utility.yul\":2618:2629   */\n      dup4\n      dup7\n      add\n        /* \"#utility.yul\":2614:2634   */\n      dup9\n      add\n        /* \"#utility.yul\":2611:2644   */\n      dup13\n      lt\n        /* \"#utility.yul\":2608:2661   */\n      iszero\n      tag_621\n      jumpi\n        /* \"#utility.yul\":2657:2658   */\n      0x00\n        /* \"#utility.yul\":2654:2655   */\n      dup1\n        /* \"#utility.yul\":2647:2659   */\n      revert\n        /* \"#utility.yul\":2608:2661   */\n    tag_621:\n        /* \"#utility.yul\":2679:2680   */\n      0x00\n        /* \"#utility.yul\":2670:2680   */\n      swap4\n      pop\n        /* \"#utility.yul\":2700:2701   */\n      dup4\n        /* \"#utility.yul\":2710:3020   */\n    tag_622:\n        /* \"#utility.yul\":2726:2728   */\n      dup6\n        /* \"#utility.yul\":2721:2724   */\n      dup2\n        /* \"#utility.yul\":2718:2729   */\n      lt\n        /* \"#utility.yul\":2710:3020   */\n      iszero\n      tag_624\n      jumpi\n        /* \"#utility.yul\":2807:2810   */\n      dup2\n        /* \"#utility.yul\":2794:2811   */\n      calldataload\n        /* \"#utility.yul\":2843:2845   */\n      dup9\n        /* \"#utility.yul\":2830:2841   */\n      dup2\n        /* \"#utility.yul\":2827:2846   */\n      gt\n        /* \"#utility.yul\":2824:2863   */\n      iszero\n      tag_625\n      jumpi\n        /* \"#utility.yul\":2859:2860   */\n      dup6\n        /* \"#utility.yul\":2856:2857   */\n      dup7\n        /* \"#utility.yul\":2849:2861   */\n      revert\n        /* \"#utility.yul\":2824:2863   */\n    tag_625:\n        /* \"#utility.yul\":2888:2945   */\n      tag_626\n        /* \"#utility.yul\":2937:2944   */\n      dup15\n        /* \"#utility.yul\":2932:2934   */\n      dup12\n        /* \"#utility.yul\":2918:2929   */\n      dup4\n        /* \"#utility.yul\":2914:2916   */\n      dup12\n        /* \"#utility.yul\":2910:2930   */\n      add\n        /* \"#utility.yul\":2906:2935   */\n      add\n        /* \"#utility.yul\":2888:2945   */\n      tag_591\n      jump\t// in\n    tag_626:\n        /* \"#utility.yul\":2876:2946   */\n      dup6\n      mstore\n      pop\n        /* \"#utility.yul\":2966:2978   */\n      swap3\n      dup9\n      add\n      swap3\n        /* \"#utility.yul\":2998:3010   */\n      swap1\n      dup9\n      add\n      swap1\n        /* \"#utility.yul\":2748:2749   */\n      0x01\n        /* \"#utility.yul\":2739:2750   */\n      add\n        /* \"#utility.yul\":2710:3020   */\n      jump(tag_622)\n    tag_624:\n      pop\n        /* \"#utility.yul\":1715:3050   */\n      swap9\n      swap12\n        /* \"#utility.yul\":3039:3044   */\n      swap1\n      swap11\n      pop\n        /* \"#utility.yul\":1715:3050   */\n      swap9\n      pop\n      pop\n      pop\n      pop\n      pop\n      pop\n      pop\n      pop\n      pop\n      jump\t// out\n        /* \"#utility.yul\":3055:3445   */\n    tag_134:\n        /* \"#utility.yul\":3133:3139   */\n      0x00\n        /* \"#utility.yul\":3141:3147   */\n      dup1\n        /* \"#utility.yul\":3194:3196   */\n      0x40\n        /* \"#utility.yul\":3182:3191   */\n      dup4\n        /* \"#utility.yul\":3173:3180   */\n      dup6\n        /* \"#utility.yul\":3169:3192   */\n      sub\n        /* \"#utility.yul\":3165:3197   */\n      slt\n        /* \"#utility.yul\":3162:3214   */\n      iszero\n      tag_628\n      jumpi\n        /* \"#utility.yul\":3210:3211   */\n      0x00\n        /* \"#utility.yul\":3207:3208   */\n      dup1\n        /* \"#utility.yul\":3200:3212   */\n      revert\n        /* \"#utility.yul\":3162:3214   */\n    tag_628:\n        /* \"#utility.yul\":3237:3260   */\n      dup3\n      calldataload\n      sub(shl(0x40, 0x01), 0x01)\n        /* \"#utility.yul\":3272:3302   */\n      dup2\n      gt\n        /* \"#utility.yul\":3269:3319   */\n      iszero\n      tag_629\n      jumpi\n        /* \"#utility.yul\":3315:3316   */\n      0x00\n        /* \"#utility.yul\":3312:3313   */\n      dup1\n        /* \"#utility.yul\":3305:3317   */\n      revert\n        /* \"#utility.yul\":3269:3319   */\n    tag_629:\n        /* \"#utility.yul\":3338:3388   */\n      tag_630\n        /* \"#utility.yul\":3380:3387   */\n      dup6\n        /* \"#utility.yul\":3371:3377   */\n      dup3\n        /* \"#utility.yul\":3360:3369   */\n      dup7\n        /* \"#utility.yul\":3356:3378   */\n      add\n        /* \"#utility.yul\":3338:3388   */\n      tag_591\n      jump\t// in\n    tag_630:\n        /* \"#utility.yul\":3328:3388   */\n      swap6\n        /* \"#utility.yul\":3435:3437   */\n      0x20\n        /* \"#utility.yul\":3420:3438   */\n      swap5\n      swap1\n      swap5\n      add\n        /* \"#utility.yul\":3407:3439   */\n      calldataload\n      swap5\n      pop\n      pop\n      pop\n      pop\n        /* \"#utility.yul\":3055:3445   */\n      jump\t// out\n        /* \"#utility.yul\":3450:4061   */\n    tag_184:\n        /* \"#utility.yul\":3547:3553   */\n      0x00\n        /* \"#utility.yul\":3555:3561   */\n      dup1\n        /* \"#utility.yul\":3563:3569   */\n      0x00\n        /* \"#utility.yul\":3616:3618   */\n      0x60\n        /* \"#utility.yul\":3604:3613   */\n      dup5\n        /* \"#utility.yul\":3595:3602   */\n      dup7\n        /* \"#utility.yul\":3591:3614   */\n      sub\n        /* \"#utility.yul\":3587:3619   */\n      slt\n        /* \"#utility.yul\":3584:3636   */\n      iszero\n      tag_632\n      jumpi\n        /* \"#utility.yul\":3632:3633   */\n      0x00\n        /* \"#utility.yul\":3629:3630   */\n      dup1\n        /* \"#utility.yul\":3622:3634   */\n      revert\n        /* \"#utility.yul\":3584:3636   */\n    tag_632:\n        /* \"#utility.yul\":3659:3682   */\n      dup4\n      calldataload\n      sub(shl(0x40, 0x01), 0x01)\n        /* \"#utility.yul\":3731:3745   */\n      dup1\n      dup3\n      gt\n        /* \"#utility.yul\":3728:3762   */\n      iszero\n      tag_633\n      jumpi\n        /* \"#utility.yul\":3758:3759   */\n      0x00\n        /* \"#utility.yul\":3755:3756   */\n      dup1\n        /* \"#utility.yul\":3748:3760   */\n      revert\n        /* \"#utility.yul\":3728:3762   */\n    tag_633:\n        /* \"#utility.yul\":3781:3831   */\n      tag_634\n        /* \"#utility.yul\":3823:3830   */\n      dup8\n        /* \"#utility.yul\":3814:3820   */\n      dup4\n        /* \"#utility.yul\":3803:3812   */\n      dup9\n        /* \"#utility.yul\":3799:3821   */\n      add\n        /* \"#utility.yul\":3781:3831   */\n      tag_591\n      jump\t// in\n    tag_634:\n        /* \"#utility.yul\":3771:3831   */\n      swap5\n      pop\n        /* \"#utility.yul\":3884:3886   */\n      0x20\n        /* \"#utility.yul\":3873:3882   */\n      dup7\n        /* \"#utility.yul\":3869:3887   */\n      add\n        /* \"#utility.yul\":3856:3888   */\n      calldataload\n        /* \"#utility.yul\":3840:3888   */\n      swap2\n      pop\n        /* \"#utility.yul\":3913:3915   */\n      dup1\n        /* \"#utility.yul\":3903:3911   */\n      dup3\n        /* \"#utility.yul\":3900:3916   */\n      gt\n        /* \"#utility.yul\":3897:3933   */\n      iszero\n      tag_635\n      jumpi\n        /* \"#utility.yul\":3929:3930   */\n      0x00\n        /* \"#utility.yul\":3926:3927   */\n      dup1\n        /* \"#utility.yul\":3919:3931   */\n      revert\n        /* \"#utility.yul\":3897:3933   */\n    tag_635:\n      pop\n        /* \"#utility.yul\":3952:4004   */\n      tag_607\n        /* \"#utility.yul\":3996:4003   */\n      dup7\n        /* \"#utility.yul\":3985:3993   */\n      dup3\n        /* \"#utility.yul\":3974:3983   */\n      dup8\n        /* \"#utility.yul\":3970:3994   */\n      add\n        /* \"#utility.yul\":3952:4004   */\n      tag_591\n      jump\t// in\n        /* \"#utility.yul\":4066:4677   */\n    tag_119:\n        /* \"#utility.yul\":4163:4169   */\n      0x00\n        /* \"#utility.yul\":4171:4177   */\n      dup1\n        /* \"#utility.yul\":4179:4185   */\n      0x00\n        /* \"#utility.yul\":4232:4234   */\n      0x60\n        /* \"#utility.yul\":4220:4229   */\n      dup5\n        /* \"#utility.yul\":4211:4218   */\n      dup7\n        /* \"#utility.yul\":4207:4230   */\n      sub\n        /* \"#utility.yul\":4203:4235   */\n      slt\n        /* \"#utility.yul\":4200:4252   */\n      iszero\n      tag_638\n      jumpi\n        /* \"#utility.yul\":4248:4249   */\n      0x00\n        /* \"#utility.yul\":4245:4246   */\n      dup1\n        /* \"#utility.yul\":4238:4250   */\n      revert\n        /* \"#utility.yul\":4200:4252   */\n    tag_638:\n        /* \"#utility.yul\":4275:4298   */\n      dup4\n      calldataload\n      sub(shl(0x40, 0x01), 0x01)\n        /* \"#utility.yul\":4347:4361   */\n      dup1\n      dup3\n      gt\n        /* \"#utility.yul\":4344:4378   */\n      iszero\n      tag_639\n      jumpi\n        /* \"#utility.yul\":4374:4375   */\n      0x00\n        /* \"#utility.yul\":4371:4372   */\n      dup1\n        /* \"#utility.yul\":4364:4376   */\n      revert\n        /* \"#utility.yul\":4344:4378   */\n    tag_639:\n        /* \"#utility.yul\":4397:4447   */\n      tag_640\n        /* \"#utility.yul\":4439:4446   */\n      dup8\n        /* \"#utility.yul\":4430:4436   */\n      dup4\n        /* \"#utility.yul\":4419:4428   */\n      dup9\n        /* \"#utility.yul\":4415:4437   */\n      add\n        /* \"#utility.yul\":4397:4447   */\n      tag_591\n      jump\t// in\n    tag_640:\n        /* \"#utility.yul\":4387:4447   */\n      swap5\n      pop\n        /* \"#utility.yul\":4494:4496   */\n      0x20\n        /* \"#utility.yul\":4483:4492   */\n      dup7\n        /* \"#utility.yul\":4479:4497   */\n      add\n        /* \"#utility.yul\":4466:4498   */\n      calldataload\n        /* \"#utility.yul\":4456:4498   */\n      swap4\n      pop\n        /* \"#utility.yul\":4551:4553   */\n      0x40\n        /* \"#utility.yul\":4540:4549   */\n      dup7\n        /* \"#utility.yul\":4536:4554   */\n      add\n        /* \"#utility.yul\":4523:4555   */\n      calldataload\n        /* \"#utility.yul\":4507:4555   */\n      swap2\n      pop\n        /* \"#utility.yul\":4580:4582   */\n      dup1\n        /* \"#utility.yul\":4570:4578   */\n      dup3\n        /* \"#utility.yul\":4567:4583   */\n      gt\n        /* \"#utility.yul\":4564:4600   */\n      iszero\n      tag_641\n      jumpi\n        /* \"#utility.yul\":4596:4597   */\n      0x00\n        /* \"#utility.yul\":4593:4594   */\n      dup1\n        /* \"#utility.yul\":4586:4598   */\n      revert\n        /* \"#utility.yul\":4564:4600   */\n    tag_641:\n      pop\n        /* \"#utility.yul\":4619:4671   */\n      tag_642\n        /* \"#utility.yul\":4663:4670   */\n      dup7\n        /* \"#utility.yul\":4652:4660   */\n      dup3\n        /* \"#utility.yul\":4641:4650   */\n      dup8\n        /* \"#utility.yul\":4637:4661   */\n      add\n        /* \"#utility.yul\":4619:4671   */\n      tag_591\n      jump\t// in\n    tag_642:\n        /* \"#utility.yul\":4609:4671   */\n      swap2\n      pop\n      pop\n        /* \"#utility.yul\":4066:4677   */\n      swap3\n      pop\n      swap3\n      pop\n      swap3\n      jump\t// out\n        /* \"#utility.yul\":4682:4862   */\n    tag_123:\n        /* \"#utility.yul\":4741:4747   */\n      0x00\n        /* \"#utility.yul\":4794:4796   */\n      0x20\n        /* \"#utility.yul\":4782:4791   */\n      dup3\n        /* \"#utility.yul\":4773:4780   */\n      dup5\n        /* \"#utility.yul\":4769:4792   */\n      sub\n        /* \"#utility.yul\":4765:4797   */\n      slt\n        /* \"#utility.yul\":4762:4814   */\n      iszero\n      tag_644\n      jumpi\n        /* \"#utility.yul\":4810:4811   */\n      0x00\n        /* \"#utility.yul\":4807:4808   */\n      dup1\n        /* \"#utility.yul\":4800:4812   */\n      revert\n        /* \"#utility.yul\":4762:4814   */\n    tag_644:\n      pop\n        /* \"#utility.yul\":4833:4856   */\n      calldataload\n      swap2\n        /* \"#utility.yul\":4682:4862   */\n      swap1\n      pop\n      jump\t// out\n        /* \"#utility.yul\":4867:5208   */\n    tag_144:\n        /* \"#utility.yul\":4932:4938   */\n      0x00\n        /* \"#utility.yul\":4940:4946   */\n      dup1\n        /* \"#utility.yul\":4993:4995   */\n      0x40\n        /* \"#utility.yul\":4981:4990   */\n      dup4\n        /* \"#utility.yul\":4972:4979   */\n      dup6\n        /* \"#utility.yul\":4968:4991   */\n      sub\n        /* \"#utility.yul\":4964:4996   */\n      slt\n        /* \"#utility.yul\":4961:5013   */\n      iszero\n      tag_646\n      jumpi\n        /* \"#utility.yul\":5009:5010   */\n      0x00\n        /* \"#utility.yul\":5006:5007   */\n      dup1\n        /* \"#utility.yul\":4999:5011   */\n      revert\n        /* \"#utility.yul\":4961:5013   */\n    tag_646:\n        /* \"#utility.yul\":5045:5054   */\n      dup3\n        /* \"#utility.yul\":5032:5055   */\n      calldataload\n        /* \"#utility.yul\":5022:5055   */\n      swap2\n      pop\n        /* \"#utility.yul\":5105:5107   */\n      0x20\n        /* \"#utility.yul\":5094:5103   */\n      dup4\n        /* \"#utility.yul\":5090:5108   */\n      add\n        /* \"#utility.yul\":5077:5109   */\n      calldataload\n        /* \"#utility.yul\":5152:5157   */\n      dup1\n        /* \"#utility.yul\":5145:5158   */\n      iszero\n        /* \"#utility.yul\":5138:5159   */\n      iszero\n        /* \"#utility.yul\":5131:5136   */\n      dup2\n        /* \"#utility.yul\":5128:5160   */\n      eq\n        /* \"#utility.yul\":5118:5178   */\n      tag_647\n      jumpi\n        /* \"#utility.yul\":5174:5175   */\n      0x00\n        /* \"#utility.yul\":5171:5172   */\n      dup1\n        /* \"#utility.yul\":5164:5176   */\n      revert\n        /* \"#utility.yul\":5118:5178   */\n    tag_647:\n        /* \"#utility.yul\":5197:5202   */\n      dup1\n        /* \"#utility.yul\":5187:5202   */\n      swap2\n      pop\n      pop\n        /* \"#utility.yul\":4867:5208   */\n      swap3\n      pop\n      swap3\n      swap1\n      pop\n      jump\t// out\n        /* \"#utility.yul\":5213:5461   */\n    tag_160:\n        /* \"#utility.yul\":5281:5287   */\n      0x00\n        /* \"#utility.yul\":5289:5295   */\n      dup1\n        /* \"#utility.yul\":5342:5344   */\n      0x40\n        /* \"#utility.yul\":5330:5339   */\n      dup4\n        /* \"#utility.yul\":5321:5328   */\n      dup6\n        /* \"#utility.yul\":5317:5340   */\n      sub\n        /* \"#utility.yul\":5313:5345   */\n      slt\n        /* \"#utility.yul\":5310:5362   */\n      iszero\n      tag_649\n      jumpi\n        /* \"#utility.yul\":5358:5359   */\n      0x00\n        /* \"#utility.yul\":5355:5356   */\n      dup1\n        /* \"#utility.yul\":5348:5360   */\n      revert\n        /* \"#utility.yul\":5310:5362   */\n    tag_649:\n      pop\n      pop\n        /* \"#utility.yul\":5381:5404   */\n      dup1\n      calldataload\n      swap3\n        /* \"#utility.yul\":5451:5453   */\n      0x20\n        /* \"#utility.yul\":5436:5454   */\n      swap1\n      swap2\n      add\n        /* \"#utility.yul\":5423:5455   */\n      calldataload\n      swap2\n      pop\n        /* \"#utility.yul\":5213:5461   */\n      jump\t// out\n        /* \"#utility.yul\":5466:5724   */\n    tag_650:\n        /* \"#utility.yul\":5508:5511   */\n      0x00\n        /* \"#utility.yul\":5546:5551   */\n      dup2\n        /* \"#utility.yul\":5540:5552   */\n      mload\n        /* \"#utility.yul\":5573:5579   */\n      dup1\n        /* \"#utility.yul\":5568:5571   */\n      dup5\n        /* \"#utility.yul\":5561:5580   */\n      mstore\n        /* \"#utility.yul\":5589:5652   */\n      tag_652\n        /* \"#utility.yul\":5645:5651   */\n      dup2\n        /* \"#utility.yul\":5638:5642   */\n      0x20\n        /* \"#utility.yul\":5633:5636   */\n      dup7\n        /* \"#utility.yul\":5629:5643   */\n      add\n        /* \"#utility.yul\":5622:5626   */\n      0x20\n        /* \"#utility.yul\":5615:5620   */\n      dup7\n        /* \"#utility.yul\":5611:5627   */\n      add\n        /* \"#utility.yul\":5589:5652   */\n      tag_653\n      jump\t// in\n    tag_652:\n        /* \"#utility.yul\":5706:5708   */\n      0x1f\n        /* \"#utility.yul\":5685:5700   */\n      add\n      not(0x1f)\n        /* \"#utility.yul\":5681:5710   */\n      and\n        /* \"#utility.yul\":5672:5711   */\n      swap3\n      swap1\n      swap3\n      add\n        /* \"#utility.yul\":5713:5717   */\n      0x20\n        /* \"#utility.yul\":5668:5718   */\n      add\n      swap3\n        /* \"#utility.yul\":5466:5724   */\n      swap2\n      pop\n      pop\n      jump\t// out\n        /* \"#utility.yul\":5729:6005   */\n    tag_207:\n        /* \"#utility.yul\":5860:5863   */\n      0x00\n        /* \"#utility.yul\":5898:5904   */\n      dup3\n        /* \"#utility.yul\":5892:5905   */\n      mload\n        /* \"#utility.yul\":5914:5967   */\n      tag_655\n        /* \"#utility.yul\":5960:5966   */\n      dup2\n        /* \"#utility.yul\":5955:5958   */\n      dup5\n        /* \"#utility.yul\":5948:5952   */\n      0x20\n        /* \"#utility.yul\":5940:5946   */\n      dup8\n        /* \"#utility.yul\":5936:5953   */\n      add\n        /* \"#utility.yul\":5914:5967   */\n      tag_653\n      jump\t// in\n    tag_655:\n        /* \"#utility.yul\":5983:5999   */\n      swap2\n      swap1\n      swap2\n      add\n      swap3\n        /* \"#utility.yul\":5729:6005   */\n      swap2\n      pop\n      pop\n      jump\t// out\n        /* \"#utility.yul\":6010:7109   */\n    tag_362:\n        /* \"#utility.yul\":6138:6141   */\n      0x00\n        /* \"#utility.yul\":6167:6168   */\n      dup1\n        /* \"#utility.yul\":6200:6206   */\n      dup4\n        /* \"#utility.yul\":6194:6207   */\n      sload\n        /* \"#utility.yul\":6230:6233   */\n      dup2\n        /* \"#utility.yul\":6252:6253   */\n      0x01\n        /* \"#utility.yul\":6280:6289   */\n      dup3\n        /* \"#utility.yul\":6276:6278   */\n      dup2\n        /* \"#utility.yul\":6272:6290   */\n      shr\n        /* \"#utility.yul\":6262:6290   */\n      swap2\n      pop\n        /* \"#utility.yul\":6340:6342   */\n      dup1\n        /* \"#utility.yul\":6329:6338   */\n      dup4\n        /* \"#utility.yul\":6325:6343   */\n      and\n        /* \"#utility.yul\":6362:6380   */\n      dup1\n        /* \"#utility.yul\":6352:6413   */\n      tag_657\n      jumpi\n        /* \"#utility.yul\":6406:6410   */\n      0x7f\n        /* \"#utility.yul\":6398:6404   */\n      dup4\n        /* \"#utility.yul\":6394:6411   */\n      and\n        /* \"#utility.yul\":6384:6411   */\n      swap3\n      pop\n        /* \"#utility.yul\":6352:6413   */\n    tag_657:\n        /* \"#utility.yul\":6432:6434   */\n      0x20\n        /* \"#utility.yul\":6480:6482   */\n      dup1\n        /* \"#utility.yul\":6472:6478   */\n      dup5\n        /* \"#utility.yul\":6469:6483   */\n      lt\n        /* \"#utility.yul\":6449:6467   */\n      dup3\n        /* \"#utility.yul\":6446:6484   */\n      eq\n        /* \"#utility.yul\":6443:6608   */\n      iszero\n      tag_658\n      jumpi\n      shl(0xe0, 0x4e487b71)\n        /* \"#utility.yul\":6507:6540   */\n      dup7\n      mstore\n        /* \"#utility.yul\":6563:6567   */\n      0x22\n        /* \"#utility.yul\":6560:6561   */\n      0x04\n        /* \"#utility.yul\":6553:6568   */\n      mstore\n        /* \"#utility.yul\":6593:6597   */\n      0x24\n        /* \"#utility.yul\":6514:6517   */\n      dup7\n        /* \"#utility.yul\":6581:6598   */\n      revert\n        /* \"#utility.yul\":6443:6608   */\n    tag_658:\n        /* \"#utility.yul\":6624:6642   */\n      dup2\n        /* \"#utility.yul\":6651:6755   */\n      dup1\n      iszero\n      tag_660\n      jumpi\n        /* \"#utility.yul\":6769:6770   */\n      0x01\n        /* \"#utility.yul\":6764:7084   */\n      dup2\n      eq\n      tag_661\n      jumpi\n        /* \"#utility.yul\":6617:7084   */\n      jump(tag_659)\n        /* \"#utility.yul\":6651:6755   */\n    tag_660:\n      not(0xff)\n        /* \"#utility.yul\":6684:6708   */\n      dup7\n      and\n        /* \"#utility.yul\":6672:6709   */\n      dup10\n      mstore\n        /* \"#utility.yul\":6729:6745   */\n      dup5\n      dup10\n      add\n      swap7\n      pop\n        /* \"#utility.yul\":6651:6755   */\n      jump(tag_659)\n        /* \"#utility.yul\":6764:7084   */\n    tag_661:\n        /* \"#utility.yul\":15148:15149   */\n      0x00\n        /* \"#utility.yul\":15141:15155   */\n      dup11\n      dup2\n      mstore\n        /* \"#utility.yul\":15185:15189   */\n      0x20\n        /* \"#utility.yul\":15172:15190   */\n      swap1\n      keccak256\n        /* \"#utility.yul\":6859:6860   */\n      0x00\n        /* \"#utility.yul\":6873:7038   */\n    tag_664:\n        /* \"#utility.yul\":6887:6893   */\n      dup7\n        /* \"#utility.yul\":6884:6885   */\n      dup2\n        /* \"#utility.yul\":6881:6894   */\n      lt\n        /* \"#utility.yul\":6873:7038   */\n      iszero\n      tag_666\n      jumpi\n        /* \"#utility.yul\":6965:6979   */\n      dup2\n      sload\n        /* \"#utility.yul\":6952:6963   */\n      dup12\n      dup3\n      add\n        /* \"#utility.yul\":6945:6980   */\n      mstore\n        /* \"#utility.yul\":7008:7024   */\n      swap1\n      dup6\n      add\n      swap1\n        /* \"#utility.yul\":6902:6912   */\n      dup4\n      add\n        /* \"#utility.yul\":6873:7038   */\n      jump(tag_664)\n    tag_666:\n        /* \"#utility.yul\":6877:6880   */\n      pop\n      pop\n        /* \"#utility.yul\":7067:7073   */\n      dup5\n        /* \"#utility.yul\":7062:7065   */\n      dup10\n        /* \"#utility.yul\":7058:7074   */\n      add\n        /* \"#utility.yul\":7051:7074   */\n      swap7\n      pop\n        /* \"#utility.yul\":6617:7084   */\n    tag_659:\n      pop\n        /* \"#utility.yul\":7100:7103   */\n      swap5\n      swap9\n        /* \"#utility.yul\":6010:7109   */\n      swap8\n      pop\n      pop\n      pop\n      pop\n      pop\n      pop\n      pop\n      pop\n      jump\t// out\n        /* \"#utility.yul\":7322:7720   */\n    tag_130:\n      sub(shl(0xa0, 0x01), 0x01)\n        /* \"#utility.yul\":7521:7553   */\n      dup5\n      and\n        /* \"#utility.yul\":7503:7554   */\n      dup2\n      mstore\n        /* \"#utility.yul\":7590:7592   */\n      0x60\n        /* \"#utility.yul\":7585:7587   */\n      0x20\n        /* \"#utility.yul\":7570:7588   */\n      dup3\n      add\n        /* \"#utility.yul\":7563:7593   */\n      dup2\n      swap1\n      mstore\n      0x00\n      swap1\n        /* \"#utility.yul\":7610:7655   */\n      tag_669\n      swap1\n        /* \"#utility.yul\":7636:7654   */\n      dup4\n      add\n        /* \"#utility.yul\":7628:7634   */\n      dup6\n        /* \"#utility.yul\":7610:7655   */\n      tag_650\n      jump\t// in\n    tag_669:\n        /* \"#utility.yul\":7602:7655   */\n      swap1\n      pop\n        /* \"#utility.yul\":7705:7711   */\n      dup3\n        /* \"#utility.yul\":7698:7712   */\n      iszero\n        /* \"#utility.yul\":7691:7713   */\n      iszero\n        /* \"#utility.yul\":7686:7688   */\n      0x40\n        /* \"#utility.yul\":7675:7684   */\n      dup4\n        /* \"#utility.yul\":7671:7689   */\n      add\n        /* \"#utility.yul\":7664:7714   */\n      mstore\n        /* \"#utility.yul\":7322:7720   */\n      swap5\n      swap4\n      pop\n      pop\n      pop\n      pop\n      jump\t// out\n        /* \"#utility.yul\":7725:8196   */\n    tag_201:\n      sub(shl(0xa0, 0x01), 0x01)\n        /* \"#utility.yul\":7952:7984   */\n      dup6\n      and\n        /* \"#utility.yul\":7934:7985   */\n      dup2\n      mstore\n        /* \"#utility.yul\":8021:8024   */\n      0x80\n        /* \"#utility.yul\":8016:8018   */\n      0x20\n        /* \"#utility.yul\":8001:8019   */\n      dup3\n      add\n        /* \"#utility.yul\":7994:8025   */\n      dup2\n      swap1\n      mstore\n      0x00\n      swap1\n        /* \"#utility.yul\":8042:8088   */\n      tag_671\n      swap1\n        /* \"#utility.yul\":8068:8087   */\n      dup4\n      add\n        /* \"#utility.yul\":8060:8066   */\n      dup7\n        /* \"#utility.yul\":8042:8088   */\n      tag_650\n      jump\t// in\n    tag_671:\n        /* \"#utility.yul\":8119:8121   */\n      0x40\n        /* \"#utility.yul\":8104:8122   */\n      dup4\n      add\n        /* \"#utility.yul\":8097:8131   */\n      swap5\n      swap1\n      swap5\n      mstore\n      pop\n        /* \"#utility.yul\":8174:8188   */\n      swap1\n      iszero\n        /* \"#utility.yul\":8167:8189   */\n      iszero\n        /* \"#utility.yul\":8162:8164   */\n      0x60\n        /* \"#utility.yul\":8147:8165   */\n      swap1\n      swap2\n      add\n        /* \"#utility.yul\":8140:8190   */\n      mstore\n        /* \"#utility.yul\":8034:8088   */\n      swap3\n        /* \"#utility.yul\":7725:8196   */\n      swap2\n      pop\n      pop\n      jump\t// out\n        /* \"#utility.yul\":8201:8662   */\n    tag_195:\n      sub(shl(0xa0, 0x01), 0x01)\n        /* \"#utility.yul\":8434:8466   */\n      dup6\n      and\n        /* \"#utility.yul\":8416:8467   */\n      dup2\n      mstore\n        /* \"#utility.yul\":8503:8506   */\n      0x80\n        /* \"#utility.yul\":8498:8500   */\n      0x20\n        /* \"#utility.yul\":8483:8501   */\n      dup3\n      add\n        /* \"#utility.yul\":8476:8507   */\n      dup2\n      swap1\n      mstore\n      0x00\n      swap1\n        /* \"#utility.yul\":8524:8570   */\n      tag_673\n      swap1\n        /* \"#utility.yul\":8550:8569   */\n      dup4\n      add\n        /* \"#utility.yul\":8542:8548   */\n      dup7\n        /* \"#utility.yul\":8524:8570   */\n      tag_650\n      jump\t// in\n    tag_673:\n        /* \"#utility.yul\":8601:8603   */\n      0x40\n        /* \"#utility.yul\":8586:8604   */\n      dup4\n      add\n        /* \"#utility.yul\":8579:8613   */\n      swap5\n      swap1\n      swap5\n      mstore\n      pop\n        /* \"#utility.yul\":8644:8646   */\n      0x60\n        /* \"#utility.yul\":8629:8647   */\n      add\n        /* \"#utility.yul\":8622:8656   */\n      mstore\n        /* \"#utility.yul\":8516:8570   */\n      swap3\n        /* \"#utility.yul\":8201:8662   */\n      swap2\n      pop\n      pop\n      jump\t// out\n        /* \"#utility.yul\":8667:9470   */\n    tag_71:\n        /* \"#utility.yul\":8829:8833   */\n      0x00\n        /* \"#utility.yul\":8858:8860   */\n      0x20\n        /* \"#utility.yul\":8898:8900   */\n      dup1\n        /* \"#utility.yul\":8887:8896   */\n      dup4\n        /* \"#utility.yul\":8883:8901   */\n      add\n        /* \"#utility.yul\":8928:8930   */\n      dup2\n        /* \"#utility.yul\":8917:8926   */\n      dup5\n        /* \"#utility.yul\":8910:8931   */\n      mstore\n        /* \"#utility.yul\":8951:8957   */\n      dup1\n        /* \"#utility.yul\":8986:8992   */\n      dup6\n        /* \"#utility.yul\":8980:8993   */\n      mload\n        /* \"#utility.yul\":9017:9023   */\n      dup1\n        /* \"#utility.yul\":9009:9015   */\n      dup4\n        /* \"#utility.yul\":9002:9024   */\n      mstore\n        /* \"#utility.yul\":9055:9057   */\n      0x40\n        /* \"#utility.yul\":9044:9053   */\n      dup7\n        /* \"#utility.yul\":9040:9058   */\n      add\n        /* \"#utility.yul\":9033:9058   */\n      swap2\n      pop\n        /* \"#utility.yul\":9117:9119   */\n      0x40\n        /* \"#utility.yul\":9107:9113   */\n      dup2\n        /* \"#utility.yul\":9104:9105   */\n      0x05\n        /* \"#utility.yul\":9100:9114   */\n      shl\n        /* \"#utility.yul\":9089:9098   */\n      dup8\n        /* \"#utility.yul\":9085:9115   */\n      add\n        /* \"#utility.yul\":9081:9120   */\n      add\n        /* \"#utility.yul\":9067:9120   */\n      swap3\n      pop\n        /* \"#utility.yul\":9155:9157   */\n      dup4\n        /* \"#utility.yul\":9147:9153   */\n      dup8\n        /* \"#utility.yul\":9143:9158   */\n      add\n        /* \"#utility.yul\":9176:9177   */\n      0x00\n        /* \"#utility.yul\":9186:9441   */\n    tag_675:\n        /* \"#utility.yul\":9200:9206   */\n      dup3\n        /* \"#utility.yul\":9197:9198   */\n      dup2\n        /* \"#utility.yul\":9194:9207   */\n      lt\n        /* \"#utility.yul\":9186:9441   */\n      iszero\n      tag_677\n      jumpi\n        /* \"#utility.yul\":9293:9295   */\n      0x3f\n        /* \"#utility.yul\":9289:9296   */\n      not\n        /* \"#utility.yul\":9277:9286   */\n      dup9\n        /* \"#utility.yul\":9269:9275   */\n      dup7\n        /* \"#utility.yul\":9265:9287   */\n      sub\n        /* \"#utility.yul\":9261:9297   */\n      add\n        /* \"#utility.yul\":9256:9259   */\n      dup5\n        /* \"#utility.yul\":9249:9298   */\n      mstore\n        /* \"#utility.yul\":9321:9361   */\n      tag_678\n        /* \"#utility.yul\":9354:9360   */\n      dup6\n        /* \"#utility.yul\":9345:9351   */\n      dup4\n        /* \"#utility.yul\":9339:9352   */\n      mload\n        /* \"#utility.yul\":9321:9361   */\n      tag_650\n      jump\t// in\n    tag_678:\n        /* \"#utility.yul\":9311:9361   */\n      swap5\n      pop\n        /* \"#utility.yul\":9419:9431   */\n      swap3\n      dup6\n      add\n      swap3\n        /* \"#utility.yul\":9384:9399   */\n      swap1\n      dup6\n      add\n      swap1\n        /* \"#utility.yul\":9222:9223   */\n      0x01\n        /* \"#utility.yul\":9215:9224   */\n      add\n        /* \"#utility.yul\":9186:9441   */\n      jump(tag_675)\n    tag_677:\n      pop\n        /* \"#utility.yul\":9458:9464   */\n      swap3\n      swap8\n        /* \"#utility.yul\":8667:9470   */\n      swap7\n      pop\n      pop\n      pop\n      pop\n      pop\n      pop\n      pop\n      jump\t// out\n        /* \"#utility.yul\":9849:10069   */\n    tag_92:\n        /* \"#utility.yul\":9998:10000   */\n      0x20\n        /* \"#utility.yul\":9987:9996   */\n      dup2\n        /* \"#utility.yul\":9980:10001   */\n      mstore\n        /* \"#utility.yul\":9961:9965   */\n      0x00\n        /* \"#utility.yul\":10018:10063   */\n      tag_602\n        /* \"#utility.yul\":10059:10061   */\n      0x20\n        /* \"#utility.yul\":10048:10057   */\n      dup4\n        /* \"#utility.yul\":10044:10062   */\n      add\n        /* \"#utility.yul\":10036:10042   */\n      dup5\n        /* \"#utility.yul\":10018:10063   */\n      tag_650\n      jump\t// in\n        /* \"#utility.yul\":10074:10519   */\n    tag_157:\n        /* \"#utility.yul\":10301:10304   */\n      0x80\n        /* \"#utility.yul\":10290:10299   */\n      dup2\n        /* \"#utility.yul\":10283:10305   */\n      mstore\n        /* \"#utility.yul\":10264:10268   */\n      0x00\n        /* \"#utility.yul\":10322:10368   */\n      tag_684\n        /* \"#utility.yul\":10363:10366   */\n      0x80\n        /* \"#utility.yul\":10352:10361   */\n      dup4\n        /* \"#utility.yul\":10348:10367   */\n      add\n        /* \"#utility.yul\":10340:10346   */\n      dup8\n        /* \"#utility.yul\":10322:10368   */\n      tag_650\n      jump\t// in\n    tag_684:\n        /* \"#utility.yul\":10399:10401   */\n      0x20\n        /* \"#utility.yul\":10384:10402   */\n      dup4\n      add\n        /* \"#utility.yul\":10377:10411   */\n      swap6\n      swap1\n      swap6\n      mstore\n      pop\n        /* \"#utility.yul\":10442:10444   */\n      0x40\n        /* \"#utility.yul\":10427:10445   */\n      dup2\n      add\n        /* \"#utility.yul\":10420:10454   */\n      swap3\n      swap1\n      swap3\n      mstore\n        /* \"#utility.yul\":10497:10511   */\n      iszero\n        /* \"#utility.yul\":10490:10512   */\n      iszero\n        /* \"#utility.yul\":10485:10487   */\n      0x60\n        /* \"#utility.yul\":10470:10488   */\n      swap1\n      swap2\n      add\n        /* \"#utility.yul\":10463:10513   */\n      mstore\n        /* \"#utility.yul\":10314:10368   */\n      swap2\n        /* \"#utility.yul\":10074:10519   */\n      swap1\n      pop\n      jump\t// out\n        /* \"#utility.yul\":10524:11369   */\n    tag_151:\n        /* \"#utility.yul\":10875:10878   */\n      0xe0\n        /* \"#utility.yul\":10864:10873   */\n      dup2\n        /* \"#utility.yul\":10857:10879   */\n      mstore\n        /* \"#utility.yul\":10838:10842   */\n      0x00\n        /* \"#utility.yul\":10902:10948   */\n      tag_686\n        /* \"#utility.yul\":10943:10946   */\n      0xe0\n        /* \"#utility.yul\":10932:10941   */\n      dup4\n        /* \"#utility.yul\":10928:10947   */\n      add\n        /* \"#utility.yul\":10920:10926   */\n      dup11\n        /* \"#utility.yul\":10902:10948   */\n      tag_650\n      jump\t// in\n    tag_686:\n        /* \"#utility.yul\":10984:10990   */\n      dup9\n        /* \"#utility.yul\":10979:10981   */\n      0x20\n        /* \"#utility.yul\":10968:10977   */\n      dup5\n        /* \"#utility.yul\":10964:10982   */\n      add\n        /* \"#utility.yul\":10957:10991   */\n      mstore\n        /* \"#utility.yul\":11027:11033   */\n      dup8\n        /* \"#utility.yul\":11022:11024   */\n      0x40\n        /* \"#utility.yul\":11011:11020   */\n      dup5\n        /* \"#utility.yul\":11007:11025   */\n      add\n        /* \"#utility.yul\":11000:11034   */\n      mstore\n        /* \"#utility.yul\":11084:11090   */\n      dup7\n        /* \"#utility.yul\":11077:11091   */\n      iszero\n        /* \"#utility.yul\":11070:11092   */\n      iszero\n        /* \"#utility.yul\":11065:11067   */\n      0x60\n        /* \"#utility.yul\":11054:11063   */\n      dup5\n        /* \"#utility.yul\":11050:11068   */\n      add\n        /* \"#utility.yul\":11043:11093   */\n      mstore\n        /* \"#utility.yul\":11142:11151   */\n      dup3\n        /* \"#utility.yul\":11134:11140   */\n      dup2\n        /* \"#utility.yul\":11130:11152   */\n      sub\n        /* \"#utility.yul\":11124:11127   */\n      0x80\n        /* \"#utility.yul\":11113:11122   */\n      dup5\n        /* \"#utility.yul\":11109:11128   */\n      add\n        /* \"#utility.yul\":11102:11153   */\n      mstore\n        /* \"#utility.yul\":11176:11209   */\n      tag_687\n        /* \"#utility.yul\":11202:11208   */\n      dup2\n        /* \"#utility.yul\":11194:11200   */\n      dup8\n        /* \"#utility.yul\":11176:11209   */\n      tag_650\n      jump\t// in\n    tag_687:\n        /* \"#utility.yul\":11162:11209   */\n      swap1\n      pop\n        /* \"#utility.yul\":11258:11267   */\n      dup3\n        /* \"#utility.yul\":11250:11256   */\n      dup2\n        /* \"#utility.yul\":11246:11268   */\n      sub\n        /* \"#utility.yul\":11240:11243   */\n      0xa0\n        /* \"#utility.yul\":11229:11238   */\n      dup5\n        /* \"#utility.yul\":11225:11244   */\n      add\n        /* \"#utility.yul\":11218:11269   */\n      mstore\n        /* \"#utility.yul\":11286:11319   */\n      tag_688\n        /* \"#utility.yul\":11312:11318   */\n      dup2\n        /* \"#utility.yul\":11304:11310   */\n      dup7\n        /* \"#utility.yul\":11286:11319   */\n      tag_650\n      jump\t// in\n    tag_688:\n        /* \"#utility.yul\":11278:11319   */\n      swap2\n      pop\n      pop\n        /* \"#utility.yul\":11356:11362   */\n      dup3\n        /* \"#utility.yul\":11350:11353   */\n      0xc0\n        /* \"#utility.yul\":11339:11348   */\n      dup4\n        /* \"#utility.yul\":11335:11354   */\n      add\n        /* \"#utility.yul\":11328:11363   */\n      mstore\n        /* \"#utility.yul\":10524:11369   */\n      swap9\n      swap8\n      pop\n      pop\n      pop\n      pop\n      pop\n      pop\n      pop\n      pop\n      jump\t// out\n        /* \"#utility.yul\":11728:12075   */\n    tag_353:\n        /* \"#utility.yul\":11930:11932   */\n      0x20\n        /* \"#utility.yul\":11912:11933   */\n      dup1\n      dup3\n      mstore\n        /* \"#utility.yul\":11969:11971   */\n      0x17\n        /* \"#utility.yul\":11949:11967   */\n      swap1\n      dup3\n      add\n        /* \"#utility.yul\":11942:11972   */\n      mstore\n      shl(0x4a, 0x115c9c9bdc8e88125b9d985b1a59081c185cdcdddbdc99)\n        /* \"#utility.yul\":12003:12005   */\n      0x40\n        /* \"#utility.yul\":11988:12006   */\n      dup3\n      add\n        /* \"#utility.yul\":11981:12034   */\n      mstore\n        /* \"#utility.yul\":12066:12068   */\n      0x60\n        /* \"#utility.yul\":12051:12069   */\n      add\n      swap1\n        /* \"#utility.yul\":11728:12075   */\n      jump\t// out\n        /* \"#utility.yul\":12080:12429   */\n    tag_349:\n        /* \"#utility.yul\":12282:12284   */\n      0x20\n        /* \"#utility.yul\":12264:12285   */\n      dup1\n      dup3\n      mstore\n        /* \"#utility.yul\":12321:12323   */\n      0x19\n        /* \"#utility.yul\":12301:12319   */\n      swap1\n      dup3\n      add\n        /* \"#utility.yul\":12294:12324   */\n      mstore\n      shl(0x3a, 0x115c9c9bdc8e88155cd95c88191bd95cdb89dd08195e1a5cdd)\n        /* \"#utility.yul\":12355:12357   */\n      0x40\n        /* \"#utility.yul\":12340:12358   */\n      dup3\n      add\n        /* \"#utility.yul\":12333:12388   */\n      mstore\n        /* \"#utility.yul\":12420:12422   */\n      0x60\n        /* \"#utility.yul\":12405:12423   */\n      add\n      swap1\n        /* \"#utility.yul\":12080:12429   */\n      jump\t// out\n        /* \"#utility.yul\":13148:13503   */\n    tag_365:\n        /* \"#utility.yul\":13350:13352   */\n      0x20\n        /* \"#utility.yul\":13332:13353   */\n      dup1\n      dup3\n      mstore\n        /* \"#utility.yul\":13389:13391   */\n      0x1f\n        /* \"#utility.yul\":13369:13387   */\n      swap1\n      dup3\n      add\n        /* \"#utility.yul\":13362:13392   */\n      mstore\n        /* \"#utility.yul\":13428:13461   */\n      0x6572726f723a2074686973206973206e6f7420796f75722070726f6475637400\n        /* \"#utility.yul\":13423:13425   */\n      0x40\n        /* \"#utility.yul\":13408:13426   */\n      dup3\n      add\n        /* \"#utility.yul\":13401:13462   */\n      mstore\n        /* \"#utility.yul\":13494:13496   */\n      0x60\n        /* \"#utility.yul\":13479:13497   */\n      add\n      swap1\n        /* \"#utility.yul\":13148:13503   */\n      jump\t// out\n        /* \"#utility.yul\":13853:14206   */\n    tag_345:\n        /* \"#utility.yul\":14055:14057   */\n      0x20\n        /* \"#utility.yul\":14037:14058   */\n      dup1\n      dup3\n      mstore\n        /* \"#utility.yul\":14094:14096   */\n      0x1d\n        /* \"#utility.yul\":14074:14092   */\n      swap1\n      dup3\n      add\n        /* \"#utility.yul\":14067:14097   */\n      mstore\n        /* \"#utility.yul\":14133:14164   */\n      0x4572726f723a20596f752061726520616c7265616479206c6f67676564000000\n        /* \"#utility.yul\":14128:14130   */\n      0x40\n        /* \"#utility.yul\":14113:14131   */\n      dup3\n      add\n        /* \"#utility.yul\":14106:14165   */\n      mstore\n        /* \"#utility.yul\":14197:14199   */\n      0x60\n        /* \"#utility.yul\":14182:14200   */\n      add\n      swap1\n        /* \"#utility.yul\":13853:14206   */\n      jump\t// out\n        /* \"#utility.yul\":14795:15070   */\n    tag_598:\n        /* \"#utility.yul\":14866:14868   */\n      0x40\n        /* \"#utility.yul\":14860:14869   */\n      mload\n        /* \"#utility.yul\":14931:14933   */\n      0x1f\n        /* \"#utility.yul\":14912:14925   */\n      dup3\n      add\n      not(0x1f)\n        /* \"#utility.yul\":14908:14935   */\n      and\n        /* \"#utility.yul\":14896:14936   */\n      dup2\n      add\n      sub(shl(0x40, 0x01), 0x01)\n        /* \"#utility.yul\":14951:14985   */\n      dup2\n      gt\n        /* \"#utility.yul\":14987:15009   */\n      dup3\n      dup3\n      lt\n        /* \"#utility.yul\":14948:15010   */\n      or\n        /* \"#utility.yul\":14945:15033   */\n      iszero\n      tag_701\n      jumpi\n        /* \"#utility.yul\":15013:15031   */\n      tag_701\n      tag_596\n      jump\t// in\n    tag_701:\n        /* \"#utility.yul\":15049:15051   */\n      0x40\n        /* \"#utility.yul\":15042:15064   */\n      mstore\n        /* \"#utility.yul\":14795:15070   */\n      swap2\n      swap1\n      pop\n      jump\t// out\n        /* \"#utility.yul\":15201:15329   */\n    tag_449:\n        /* \"#utility.yul\":15241:15244   */\n      0x00\n        /* \"#utility.yul\":15272:15273   */\n      dup3\n        /* \"#utility.yul\":15268:15274   */\n      not\n        /* \"#utility.yul\":15265:15266   */\n      dup3\n        /* \"#utility.yul\":15262:15275   */\n      gt\n        /* \"#utility.yul\":15259:15298   */\n      iszero\n      tag_705\n      jumpi\n        /* \"#utility.yul\":15278:15296   */\n      tag_705\n      tag_706\n      jump\t// in\n    tag_705:\n      pop\n        /* \"#utility.yul\":15314:15323   */\n      add\n      swap1\n        /* \"#utility.yul\":15201:15329   */\n      jump\t// out\n        /* \"#utility.yul\":15334:15551   */\n    tag_453:\n        /* \"#utility.yul\":15374:15375   */\n      0x00\n        /* \"#utility.yul\":15400:15401   */\n      dup3\n        /* \"#utility.yul\":15390:15522   */\n      tag_708\n      jumpi\n        /* \"#utility.yul\":15444:15454   */\n      0x4e487b71\n        /* \"#utility.yul\":15439:15442   */\n      0xe0\n        /* \"#utility.yul\":15435:15455   */\n      shl\n        /* \"#utility.yul\":15432:15433   */\n      0x00\n        /* \"#utility.yul\":15425:15456   */\n      mstore\n        /* \"#utility.yul\":15479:15483   */\n      0x12\n        /* \"#utility.yul\":15476:15477   */\n      0x04\n        /* \"#utility.yul\":15469:15484   */\n      mstore\n        /* \"#utility.yul\":15507:15511   */\n      0x24\n        /* \"#utility.yul\":15504:15505   */\n      0x00\n        /* \"#utility.yul\":15497:15512   */\n      revert\n        /* \"#utility.yul\":15390:15522   */\n    tag_708:\n      pop\n        /* \"#utility.yul\":15536:15545   */\n      div\n      swap1\n        /* \"#utility.yul\":15334:15551   */\n      jump\t// out\n        /* \"#utility.yul\":15556:15724   */\n    tag_313:\n        /* \"#utility.yul\":15596:15603   */\n      0x00\n        /* \"#utility.yul\":15662:15663   */\n      dup2\n        /* \"#utility.yul\":15658:15659   */\n      0x00\n        /* \"#utility.yul\":15654:15660   */\n      not\n        /* \"#utility.yul\":15650:15664   */\n      div\n        /* \"#utility.yul\":15647:15648   */\n      dup4\n        /* \"#utility.yul\":15644:15665   */\n      gt\n        /* \"#utility.yul\":15639:15640   */\n      dup3\n        /* \"#utility.yul\":15632:15641   */\n      iszero\n        /* \"#utility.yul\":15625:15642   */\n      iszero\n        /* \"#utility.yul\":15621:15666   */\n      and\n        /* \"#utility.yul\":15618:15689   */\n      iszero\n      tag_711\n      jumpi\n        /* \"#utility.yul\":15669:15687   */\n      tag_711\n      tag_706\n      jump\t// in\n    tag_711:\n      pop\n        /* \"#utility.yul\":15709:15718   */\n      mul\n      swap1\n        /* \"#utility.yul\":15556:15724   */\n      jump\t// out\n        /* \"#utility.yul\":15729:15987   */\n    tag_653:\n        /* \"#utility.yul\":15801:15802   */\n      0x00\n        /* \"#utility.yul\":15811:15924   */\n    tag_713:\n        /* \"#utility.yul\":15825:15831   */\n      dup4\n        /* \"#utility.yul\":15822:15823   */\n      dup2\n        /* \"#utility.yul\":15819:15832   */\n      lt\n        /* \"#utility.yul\":15811:15924   */\n      iszero\n      tag_715\n      jumpi\n        /* \"#utility.yul\":15901:15912   */\n      dup2\n      dup2\n      add\n        /* \"#utility.yul\":15895:15913   */\n      mload\n        /* \"#utility.yul\":15882:15893   */\n      dup4\n      dup3\n      add\n        /* \"#utility.yul\":15875:15914   */\n      mstore\n        /* \"#utility.yul\":15847:15849   */\n      0x20\n        /* \"#utility.yul\":15840:15850   */\n      add\n        /* \"#utility.yul\":15811:15924   */\n      jump(tag_713)\n    tag_715:\n        /* \"#utility.yul\":15942:15948   */\n      dup4\n        /* \"#utility.yul\":15939:15940   */\n      dup2\n        /* \"#utility.yul\":15936:15949   */\n      gt\n        /* \"#utility.yul\":15933:15981   */\n      iszero\n      tag_487\n      jumpi\n      pop\n      pop\n        /* \"#utility.yul\":15977:15978   */\n      0x00\n        /* \"#utility.yul\":15959:15975   */\n      swap2\n      add\n        /* \"#utility.yul\":15952:15979   */\n      mstore\n        /* \"#utility.yul\":15729:15987   */\n      jump\t// out\n        /* \"#utility.yul\":15992:16372   */\n    tag_232:\n        /* \"#utility.yul\":16071:16072   */\n      0x01\n        /* \"#utility.yul\":16067:16079   */\n      dup2\n      dup2\n      shr\n      swap1\n        /* \"#utility.yul\":16114:16126   */\n      dup3\n      and\n      dup1\n        /* \"#utility.yul\":16135:16196   */\n      tag_718\n      jumpi\n        /* \"#utility.yul\":16189:16193   */\n      0x7f\n        /* \"#utility.yul\":16181:16187   */\n      dup3\n        /* \"#utility.yul\":16177:16194   */\n      and\n        /* \"#utility.yul\":16167:16194   */\n      swap2\n      pop\n        /* \"#utility.yul\":16135:16196   */\n    tag_718:\n        /* \"#utility.yul\":16242:16244   */\n      0x20\n        /* \"#utility.yul\":16234:16240   */\n      dup3\n        /* \"#utility.yul\":16231:16245   */\n      lt\n        /* \"#utility.yul\":16211:16229   */\n      dup2\n        /* \"#utility.yul\":16208:16246   */\n      eq\n        /* \"#utility.yul\":16205:16366   */\n      iszero\n      tag_719\n      jumpi\n        /* \"#utility.yul\":16288:16298   */\n      0x4e487b71\n        /* \"#utility.yul\":16283:16286   */\n      0xe0\n        /* \"#utility.yul\":16279:16299   */\n      shl\n        /* \"#utility.yul\":16276:16277   */\n      0x00\n        /* \"#utility.yul\":16269:16300   */\n      mstore\n        /* \"#utility.yul\":16323:16327   */\n      0x22\n        /* \"#utility.yul\":16320:16321   */\n      0x04\n        /* \"#utility.yul\":16313:16328   */\n      mstore\n        /* \"#utility.yul\":16351:16355   */\n      0x24\n        /* \"#utility.yul\":16348:16349   */\n      0x00\n        /* \"#utility.yul\":16341:16356   */\n      revert\n        /* \"#utility.yul\":16205:16366   */\n    tag_719:\n      pop\n        /* \"#utility.yul\":15992:16372   */\n      swap2\n      swap1\n      pop\n      jump\t// out\n        /* \"#utility.yul\":16377:16512   */\n    tag_259:\n        /* \"#utility.yul\":16416:16419   */\n      0x00\n      not(0x00)\n        /* \"#utility.yul\":16437:16454   */\n      dup3\n      eq\n        /* \"#utility.yul\":16434:16477   */\n      iszero\n      tag_722\n      jumpi\n        /* \"#utility.yul\":16457:16475   */\n      tag_722\n      tag_706\n      jump\t// in\n    tag_722:\n      pop\n        /* \"#utility.yul\":16504:16505   */\n      0x01\n        /* \"#utility.yul\":16493:16506   */\n      add\n      swap1\n        /* \"#utility.yul\":16377:16512   */\n      jump\t// out\n        /* \"#utility.yul\":16517:16644   */\n    tag_706:\n        /* \"#utility.yul\":16578:16588   */\n      0x4e487b71\n        /* \"#utility.yul\":16573:16576   */\n      0xe0\n        /* \"#utility.yul\":16569:16589   */\n      shl\n        /* \"#utility.yul\":16566:16567   */\n      0x00\n        /* \"#utility.yul\":16559:16590   */\n      mstore\n        /* \"#utility.yul\":16609:16613   */\n      0x11\n        /* \"#utility.yul\":16606:16607   */\n      0x04\n        /* \"#utility.yul\":16599:16614   */\n      mstore\n        /* \"#utility.yul\":16633:16637   */\n      0x24\n        /* \"#utility.yul\":16630:16631   */\n      0x00\n        /* \"#utility.yul\":16623:16638   */\n      revert\n        /* \"#utility.yul\":16649:16776   */\n    tag_243:\n        /* \"#utility.yul\":16710:16720   */\n      0x4e487b71\n        /* \"#utility.yul\":16705:16708   */\n      0xe0\n        /* \"#utility.yul\":16701:16721   */\n      shl\n        /* \"#utility.yul\":16698:16699   */\n      0x00\n        /* \"#utility.yul\":16691:16722   */\n      mstore\n        /* \"#utility.yul\":16741:16745   */\n      0x32\n        /* \"#utility.yul\":16738:16739   */\n      0x04\n        /* \"#utility.yul\":16731:16746   */\n      mstore\n        /* \"#utility.yul\":16765:16769   */\n      0x24\n        /* \"#utility.yul\":16762:16763   */\n      0x00\n        /* \"#utility.yul\":16755:16770   */\n      revert\n        /* \"#utility.yul\":16781:16908   */\n    tag_596:\n        /* \"#utility.yul\":16842:16852   */\n      0x4e487b71\n        /* \"#utility.yul\":16837:16840   */\n      0xe0\n        /* \"#utility.yul\":16833:16853   */\n      shl\n        /* \"#utility.yul\":16830:16831   */\n      0x00\n        /* \"#utility.yul\":16823:16854   */\n      mstore\n        /* \"#utility.yul\":16873:16877   */\n      0x41\n        /* \"#utility.yul\":16870:16871   */\n      0x04\n        /* \"#utility.yul\":16863:16878   */\n      mstore\n        /* \"#utility.yul\":16897:16901   */\n      0x24\n        /* \"#utility.yul\":16894:16895   */\n      0x00\n        /* \"#utility.yul\":16887:16902   */\n      revert\n\n    auxdata: 0xa26469706673582212204e337a95e89ceb25db14b40092361fb3c81ac2496068afdf65050106a0e8205264736f6c63430008070033\n}\n",
				"bytecode": {
					"linkReferences": {},
					"object": "60806040526000600d553480156200001657600080fd5b50735412e9b0e4ef9d1546df79ae907eee34bdcf300460016040516200004690632132b2b960e11b815260040190565b908152604080516020928190038301812080546001600160a01b0319166001600160a01b03959095169490941790935561012083018152600460e08401908152632132b2b960e11b6101008501528352805180820190915260018152601960f91b8183015290820190620000ba906200075a565b81526003602080830191909152600060408084018290528051808201825260018152603160f81b818501526060850152805180820190915260068152654d6f73636f7760d01b81840152608084015260a0909201829052735412e9b0e4ef9d1546df79ae907eee34bdcf30048252908152815180516000805160206200389983398151915292620001509284929101906200078c565b50602082810151600183015560408301516002830155606083015160038301805460ff1916911515919091179055608083015180516200019792600485019201906200078c565b5060a08201518051620001b59160058401916020909101906200078c565b5060c091909101516006909101556000602081905260028054600181018255915260008051602062003899833981519152805460008051602062003879833981519152909201916200020790620008f4565b620002149291906200081b565b507349c364fedad517382ee5a776d3071f11cfde4c5c6001604051620002479066141c9bd91d58dd60ca1b815260070190565b908152604080516020928190038301812080546001600160a01b0319166001600160a01b03959095169490941790935561012083018152600760e0840190815266141c9bd91d58dd60ca1b6101008501528352805180820190915260018152601960f91b8183015290820190620002be906200075a565b81526003602080830191909152600060408084018290528051808201825260018152601960f91b8185015260608501528051808201909152600a8152695065746572736275726760b01b81840152608084015260a09092018290527349c364fedad517382ee5a776d3071f11cfde4c5c8252908152815180516000805160206200385983398151915292620003589284929101906200078c565b50602082810151600183015560408301516002830155606083015160038301805460ff1916911515919091179055608083015180516200039f92600485019201906200078c565b5060a08201518051620003bd9160058401916020909101906200078c565b5060c091909101516006909101556000602081905260028054600181018255915260008051602062003859833981519152805460008051602062003879833981519152909201916200040f90620008f4565b6200041c9291906200081b565b5073ada67460cf329d12c1ed898710cc8da5d40d802560056040516200044c90635065746160e01b815260040190565b908152604080516020928190038301812080546001600160a01b0319166001600160a01b03959095169490941790935560c083018152600460808401908152635065746160e01b60a08501528352805180820190915260018152603360f81b8183015290820190620004be906200075a565b815260026020808301919091526000604090920182905273ada67460cf329d12c1ed898710cc8da5d40d802590915260048152815180517f7276c473c3031176624ead5b5cbfdea5cdbc158289c185f75f825e40aed0bb3792620005279284929101906200078c565b5060208281015160018381019190915560408085015160028501556060909401516003909301805460ff19169315159390931790925560068054928301815560005282518084019093526004808452635065746160e01b93909101928352620005b6927ff652222313e28459528d920b65115c16c04f3efc82aaedc97be59f3f377c0d3f90920191906200078c565b50600780546001810182556000919091527fa66cc928b5edb82af9bd49922954155ab7b0942694bea4ce44661d9a8736c6880180546001600160a01b03191673ada67460cf329d12c1ed898710cc8da5d40d802517905560408051608081018252735412e9b0e4ef9d1546df79ae907eee34bdcf30048152815180830183526003815262185cd960ea1b60208281019190915282015268056bc75e2d6310000081830152600d54606082015290516008906200067d90644170706c6560d81b815260050190565b90815260405160209181900382019020825181546001600160a01b0319166001600160a01b039091161781558282015180519192620006c5926001850192909101906200078c565b5060408281015160028301556060909201516003909101556009805460018101825560009190915281518083019092526005808352644170706c6560d81b60209093019283526200073c927f6e1540171b6c0c960b71a7020d9f60077f6af931a8bbf590da0223dacf75c7af90920191906200078c565b50600d80549060006200074f8362000931565b91905055506200095b565b6000816040516020016200076f9190620008b6565b604051602081830303815290604052805190602001209050919050565b8280546200079a90620008f4565b90600052602060002090601f016020900481019282620007be576000855562000809565b82601f10620007d957805160ff191683800117855562000809565b8280016001018555821562000809579182015b8281111562000809578251825591602001919060010190620007ec565b50620008179291506200089f565b5090565b8280546200082990620008f4565b90600052602060002090601f0160209004810192826200084d576000855562000809565b82601f1062000860578054855562000809565b828001600101855582156200080957600052602060002091601f016020900482015b828111156200080957825482559160010191906001019062000882565b5b80821115620008175760008155600101620008a0565b6000825160005b81811015620008d95760208186018101518583015201620008bd565b81811115620008e9576000828501525b509190910192915050565b600181811c908216806200090957607f821691505b602082108114156200092b57634e487b7160e01b600052602260045260246000fd5b50919050565b60006000198214156200095457634e487b7160e01b600052601160045260246000fd5b5060010190565b612eee806200096b6000396000f3fe6080604052600436106101895760003560e01c8063033ff0b81461018e57806304ac16f6146101c15780630e1c81b2146101e3578063146dc6ed146102035780631bbe970a146102165780631e279a371461026f5780631f8daac81461029757806329e795f3146102b95780633b84aedc146102d9578063521b91701461030957806355149fd5146103295780635828c584146103565780635bbc9a3f146103765780635bd37c9e146103965780635bdb63fa146103ab5780636ba44d3c146103cb5780636c05dd1d146103eb5780637033a3821461040b57806373b62bd01461041e578063775eb9e61461044d578063845952a81461046d578063870480431461048d5780638e23cb40146104a0578063961865f0146104d3578063a333797f14610503578063a985036d14610516578063a9f9482b14610536578063bbd4336314610556578063c4957fa014610576578063cc21c188146105b7578063d22d9020146105d7578063d68cf8c1146105f7578063dce3915114610627578063f7647f3614610657575b600080fd5b34801561019a57600080fd5b506101ae6101a936600461276c565b61066a565b6040519081526020015b60405180910390f35b3480156101cd57600080fd5b506101e16101dc36600461276c565b6106b1565b005b3480156101ef57600080fd5b506101e16101fe366004612716565b610703565b6101e161021136600461276c565b610884565b34801561022257600080fd5b5061025761023136600461276c565b80516020818301810180516005825292820191909301209152546001600160a01b031681565b6040516001600160a01b0390911681526020016101b8565b34801561027b57600080fd5b506101ae61028a3660046126f4565b6001600160a01b03163190565b3480156102a357600080fd5b506102ac6109c3565b6040516101b89190612b91565b3480156102c557600080fd5b506101e16102d43660046127a0565b610a9c565b3480156102e557600080fd5b506102f96102f436600461276c565b610c00565b60405190151581526020016101b8565b34801561031557600080fd5b506101e161032436600461276c565b610c4a565b34801561033557600080fd5b5061034961034436600461276c565b610c60565b6040516101b89190612bf3565b34801561036257600080fd5b506101e161037136600461276c565b610d30565b34801561038257600080fd5b506102f961039136600461276c565b610f73565b3480156103a257600080fd5b506102ac610f89565b3480156103b757600080fd5b506101ae6103c636600461276c565b611059565b3480156103d757600080fd5b506102576103e636600461276c565b61106f565b3480156103f757600080fd5b506101e1610406366004612928565b61110d565b6101e1610419366004612994565b61120c565b34801561042a57600080fd5b5061043e610439366004612994565b61131b565b6040516101b893929190612ae8565b34801561045957600080fd5b506101e1610468366004612889565b6113e6565b34801561047957600080fd5b506101ae61048836600461276c565b611547565b6101e161049b3660046129ad565b611577565b3480156104ac57600080fd5b506104c06104bb3660046126f4565b61169d565b6040516101b89796959493929190612c37565b3480156104df57600080fd5b506104f36104ee3660046126f4565b611878565b6040516101b89493929190612c06565b6101e16105113660046129e2565b61192d565b34801561052257600080fd5b506101ae61053136600461276c565b611a2b565b34801561054257600080fd5b5061043e610551366004612994565b611c33565b34801561056257600080fd5b506101e161057136600461276c565b611c43565b34801561058257600080fd5b5061025761059136600461276c565b80516020818301810180516001825292820191909301209152546001600160a01b031681565b3480156105c357600080fd5b506101e16105d23660046128cd565b611e2f565b3480156105e357600080fd5b506101e16105f2366004612889565b612103565b34801561060357600080fd5b5061061761061236600461276c565b612229565b6040516101b89493929190612b5a565b34801561063357600080fd5b50610647610642366004612994565b6122ef565b6040516101b89493929190612b1e565b6101e16106653660046129e2565b6123c1565b600080600060018460405161067f9190612a30565b9081526040805160209281900383019020546001600160a01b0316835290820192909252016000206002015492915050565b60008060006001846040516106c69190612a30565b9081526040805160209281900383019020546001600160a01b031683529082019290925201600020600301805460ff191691151591909117905550565b60006001600160a01b031660058360405161071e9190612a30565b908152604051908190036020019020546001600160a01b0316146107855760405162461bcd60e51b8152602060048201526019602482015278115c9c9bdc8e88155cd95c88185b1c9958591e48195e1a5cdd603a1b60448201526064015b60405180910390fd5b6040805160808101825283815260208082018490526002828401526000606083018190526001600160a01b0387168152600482529290922081518051929391926107d2928492019061251d565b506020820151600182015560408083015160028301556060909201516003909101805460ff1916911515919091179055518390600590610813908590612a30565b90815260405190819003602001902080546001600160a01b039283166001600160a01b031991821617909155600780546001810182556000919091527fa66cc928b5edb82af9bd49922954155ab7b0942694bea4ce44661d9a8736c688018054959092169416939093179092555050565b6008816040516108949190612a30565b90815260200160405180910390206002015434146108e75760405162461bcd60e51b815260206004820152601060248201526f6572726f723a206e6f74206d6f6e657960801b604482015260640161077c565b6040805160808101825233815260208082018481523493830193909352600160608301819052600a8054918201815560005282517fc65a7bb8d6351c1cf70c95a316cc6a92839c986682d98bc35f958f4883f9d2a8600490920291820180546001600160a01b0319166001600160a01b039092169190911781559351805193949361099b937fc65a7bb8d6351c1cf70c95a316cc6a92839c986682d98bc35f958f4883f9d2a990930192919091019061251d565b50604082015160028201556060909101516003909101805460ff191691151591909117905550565b60606002805480602002602001604051908101604052809291908181526020016000905b82821015610a93578382906000526020600020018054610a0690612e20565b80601f0160208091040260200160405190810160405280929190818152602001828054610a3290612e20565b8015610a7f5780601f10610a5457610100808354040283529160200191610a7f565b820191906000526020600020905b815481529060010190602001808311610a6257829003601f168201915b5050505050815260200190600101906109e7565b50505050905090565b60005b600354811015610bfb57600060038281548110610abe57610abe612e8c565b90600052602060002090600502016001018054610ada90612e20565b80601f0160208091040260200160405190810160405280929190818152602001828054610b0690612e20565b8015610b535780601f10610b2857610100808354040283529160200191610b53565b820191906000526020600020905b815481529060010190602001808311610b3657829003601f168201915b5050505050905083604051602001610b6b9190612a30565b6040516020818303038152906040528051906020012081604051602001610b929190612a30565b604051602081830303815290604052805190602001201415610be8578260038381548110610bc257610bc2612e8c565b90600052602060002090600502016004019080519060200190610be69291906125a1565b505b5080610bf381612e5b565b915050610a9f565b505050565b6000806000600184604051610c159190612a30565b9081526040805160209281900383019020546001600160a01b0316835290820192909252016000206003015460ff1692915050565b6000600460006005846040516106c69190612a30565b6060600080600184604051610c759190612a30565b9081526040805160209281900383019020546001600160a01b0316835290820192909252016000206005018054610cab90612e20565b80601f0160208091040260200160405190810160405280929190818152602001828054610cd790612e20565b8015610d245780601f10610cf957610100808354040283529160200191610d24565b820191906000526020600020905b815481529060010190602001808311610d0757829003601f168201915b50505050509050919050565b6000805b600954811015610f1c57600060098281548110610d5357610d53612e8c565b906000526020600020018054610d6890612e20565b80601f0160208091040260200160405190810160405280929190818152602001828054610d9490612e20565b8015610de15780601f10610db657610100808354040283529160200191610de1565b820191906000526020600020905b815481529060010190602001808311610dc457829003601f168201915b5050505050905083604051602001610df99190612a30565b6040516020818303038152906040528051906020012081604051602001610e209190612a30565b604051602081830303815290604052805190602001201415610f09576040805160608101825233815260208082018781526001938301849052600c8054948501815560005282517fdf6966c971051c3d54ec59162606531493a51404a002842f56009d7e5cf4a8c7600390950294850180546001600160a01b0319166001600160a01b039092169190911781559051805193949193610ee8937fdf6966c971051c3d54ec59162606531493a51404a002842f56009d7e5cf4a8c890930192919091019061251d565b50604091909101516002909101805460ff1916911515919091179055600192505b5080610f1481612e5b565b915050610d34565b50600181151514610f6f5760405162461bcd60e51b815260206004820152601f60248201527f6572726f723a207468657265206973206e6f20737563682070726f6475637400604482015260640161077c565b5050565b600060046000600584604051610c159190612a30565b60606009805480602002602001604051908101604052809291908181526020016000905b82821015610a93578382906000526020600020018054610fcc90612e20565b80601f0160208091040260200160405190810160405280929190818152602001828054610ff890612e20565b80156110455780601f1061101a57610100808354040283529160200191611045565b820191906000526020600020905b81548152906001019060200180831161102857829003601f168201915b505050505081526020019060010190610fad565b60006004600060058460405161067f9190612a30565b60008060006001600160a01b031660058460405161108d9190612a30565b908152604051908190036020019020546001600160a01b0316146110db576005836040516110bb9190612a30565b908152604051908190036020019020546001600160a01b03169050611107565b6001836040516110eb9190612a30565b908152604051908190036020019020546001600160a01b031690505b92915050565b604080516080810182523381526020810183905290810161113684670de0b6b3a7640000612dd5565b8152602001600d548152506008846040516111519190612a30565b90815260405160209181900382019020825181546001600160a01b0319166001600160a01b0390911617815582820151805191926111979260018501929091019061251d565b50604082015160028201556060909101516003909101556009805460018101825560009190915283516111f1917f6e1540171b6c0c960b71a7020d9f60077f6af931a8bbf590da0223dacf75c7af0190602086019061251d565b50600d805490600061120283612e5b565b9190505550505050565b600a818154811061121f5761121f612e8c565b60009182526020909120600490910201546001600160a01b031633146112835760405162461bcd60e51b815260206004820152601960248201527832b93937b91d103cb7b9103737ba1036b9b39739b2b73232b960391b604482015260640161077c565b336001600160a01b03166108fc600a83815481106112a3576112a3612e8c565b9060005260206000209060040201600201549081150290604051600060405180830381858888f193505050501580156112e0573d6000803e3d6000fd5b506000600a82815481106112f6576112f6612e8c565b60009182526020909120600490910201600301805460ff191691151591909117905550565b600c818154811061132b57600080fd5b6000918252602090912060039091020180546001820180546001600160a01b0390921693509061135a90612e20565b80601f016020809104026020016040519081016040528092919081815260200182805461138690612e20565b80156113d35780601f106113a8576101008083540402835291602001916113d3565b820191906000526020600020905b8154815290600101906020018083116113b657829003601f168201915b5050506002909301549192505060ff1683565b6000806001846040516113f99190612a30565b9081526040805160209281900383019020546001600160a01b0316835290820192909252016000206003015460ff16156114455760405162461bcd60e51b815260040161077c90612d34565b60006001600160a01b03166001836040516114609190612a30565b908152604051908190036020019020546001600160a01b031614156114975760405162461bcd60e51b815260040161077c90612cca565b806000806001856040516114ab9190612a30565b9081526040805160209281900383019020546001600160a01b03168352908201929092520160002060010154146114f45760405162461bcd60e51b815260040161077c90612c99565b60016000806001856040516115099190612a30565b9081526040805160209281900383019020546001600160a01b031683529082019290925201600020600301805460ff19169115159190911790555050565b60008160405160200161155a9190612a30565b604051602081830303815290604052805190602001209050919050565b6008600c838154811061158c5761158c612e8c565b90600052602060002090600302016001016040516115aa9190612a4c565b90815260405190819003602001902054336001600160a01b03909116146115e35760405162461bcd60e51b815260040161077c90612cfd565b6001811515141561168357600c828154811061160157611601612e8c565b600091825260208220600390910201546040516001600160a01b03909116913480156108fc02929091818181858888f19350505050158015611647573d6000803e3d6000fd5b506000600c838154811061165d5761165d612e8c565b60009182526020909120600390910201600201805460ff19169115159190911790555050565b80610f6f576000600c838154811061165d5761165d612e8c565b6000602081905290815260409020805481906116b890612e20565b80601f01602080910402602001604051908101604052809291908181526020018280546116e490612e20565b80156117315780601f1061170657610100808354040283529160200191611731565b820191906000526020600020905b81548152906001019060200180831161171457829003601f168201915b5050506001840154600285015460038601546004870180549697939692955060ff90911693509061176190612e20565b80601f016020809104026020016040519081016040528092919081815260200182805461178d90612e20565b80156117da5780601f106117af576101008083540402835291602001916117da565b820191906000526020600020905b8154815290600101906020018083116117bd57829003601f168201915b5050505050908060050180546117ef90612e20565b80601f016020809104026020016040519081016040528092919081815260200182805461181b90612e20565b80156118685780601f1061183d57610100808354040283529160200191611868565b820191906000526020600020905b81548152906001019060200180831161184b57829003601f168201915b5050505050908060060154905087565b60046020526000908152604090208054819061189390612e20565b80601f01602080910402602001604051908101604052809291908181526020018280546118bf90612e20565b801561190c5780601f106118e15761010080835404028352916020019161190c565b820191906000526020600020905b8154815290600101906020018083116118ef57829003601f168201915b50505050600183015460028401546003909401549293909290915060ff1684565b6008600b838154811061194257611942612e8c565b90600052602060002090600302016001016040516119609190612a4c565b90815260405190819003602001902054336001600160a01b03909116146119995760405162461bcd60e51b815260040161077c90612cfd565b8060011415611a1157600b82815481106119b5576119b5612e8c565b600091825260208220600390910201546040516001600160a01b03909116913480156108fc02929091818181858888f193505050501580156119fb573d6000803e3d6000fd5b506000600b838154811061165d5761165d612e8c565b80610f6f576000600b838154811061165d5761165d612e8c565b60008080805b600254811015611c1657600060028281548110611a5057611a50612e8c565b906000526020600020018054611a6590612e20565b80601f0160208091040260200160405190810160405280929190818152602001828054611a9190612e20565b8015611ade5780601f10611ab357610100808354040283529160200191611ade565b820191906000526020600020905b815481529060010190602001808311611ac157829003601f168201915b5050505050905085604051602001611af69190612a30565b6040516020818303038152906040528051906020012081604051602001611b1d9190612a30565b604051602081830303815290604052805190602001201415611c0357600091505b6003548211611c035760038281548110611b5a57611b5a612e8c565b9060005260206000209060050201600001604051602001611b7b9190612a4c565b6040516020818303038152906040528051906020012086604051602001611ba29190612a30565b604051602081830303815290604052805190602001201415611bf15760038281548110611bd157611bd1612e8c565b90600052602060002090600502016003015483611bee9190612d9b565b92505b81611bfb81612e5b565b925050611b3e565b5080611c0e81612e5b565b915050611a31565b50611c218282612db3565b611c2b9082612d9b565b949350505050565b600b818154811061132b57600080fd5b6000805b600954811015610f1c57600060098281548110611c6657611c66612e8c565b906000526020600020018054611c7b90612e20565b80601f0160208091040260200160405190810160405280929190818152602001828054611ca790612e20565b8015611cf45780601f10611cc957610100808354040283529160200191611cf4565b820191906000526020600020905b815481529060010190602001808311611cd757829003601f168201915b5050505050905083604051602001611d0c9190612a30565b6040516020818303038152906040528051906020012081604051602001611d339190612a30565b604051602081830303815290604052805190602001201415611e1c576040805160608101825233815260208082018781526001938301849052600b8054948501815560005282517f0175b7a638427703f0dbe7bb9bbf987a2551717b34e79f33b5b1008d1fa01db9600390950294850180546001600160a01b0319166001600160a01b039092169190911781559051805193949193611dfb937f0175b7a638427703f0dbe7bb9bbf987a2551717b34e79f33b5b1008d1fa01dba90930192919091019061251d565b50604091909101516002909101805460ff1916911515919091179055600192505b5080611e2781612e5b565b915050611c47565b600a811115611e8a5760405162461bcd60e51b815260206004820152602160248201527f6572726f723a20726174696e672063616e2062652066726f6d203120746f20316044820152600360fc1b606482015260840161077c565b60005b60025481116120fd57600060028281548110611eab57611eab612e8c565b906000526020600020018054611ec090612e20565b80601f0160208091040260200160405190810160405280929190818152602001828054611eec90612e20565b8015611f395780601f10611f0e57610100808354040283529160200191611f39565b820191906000526020600020905b815481529060010190602001808311611f1c57829003601f168201915b5050505050905084604051602001611f519190612a30565b6040516020818303038152906040528051906020012081604051602001611f789190612a30565b6040516020818303038152906040528051906020012014156120ea576040805160a0810182528681523360009081526004602090815292902080546060936003939290830191611fc790612e20565b80601f0160208091040260200160405190810160405280929190818152602001828054611ff390612e20565b80156120405780601f1061201557610100808354040283529160200191612040565b820191906000526020600020905b81548152906001019060200180831161202357829003601f168201915b5050509183525050602080820189905260408201889052606090910184905282546001810184556000938452928190208251805193946005029091019261208a928492019061251d565b5060208281015180516120a3926001850192019061251d565b50604082015180516120bf91600284019160209091019061251d565b5060608201516003820155608082015180516120e59160048401916020909101906125a1565b505050505b50806120f581612e5b565b915050611e8d565b50505050565b600460006005846040516121179190612a30565b9081526040805160209281900383019020546001600160a01b0316835290820192909252016000206003015460ff16156121635760405162461bcd60e51b815260040161077c90612d34565b60006001600160a01b031660058360405161217e9190612a30565b908152604051908190036020019020546001600160a01b031614156121b55760405162461bcd60e51b815260040161077c90612cca565b80600460006005856040516121ca9190612a30565b9081526040805160209281900383019020546001600160a01b03168352908201929092520160002060010154146122135760405162461bcd60e51b815260040161077c90612c99565b6001600460006005856040516115099190612a30565b8051602081830181018051600882529282019190930120915280546001820180546001600160a01b03909216929161226090612e20565b80601f016020809104026020016040519081016040528092919081815260200182805461228c90612e20565b80156122d95780601f106122ae576101008083540402835291602001916122d9565b820191906000526020600020905b8154815290600101906020018083116122bc57829003601f168201915b5050505050908060020154908060030154905084565b600a81815481106122ff57600080fd5b6000918252602090912060049091020180546001820180546001600160a01b0390921693509061232e90612e20565b80601f016020809104026020016040519081016040528092919081815260200182805461235a90612e20565b80156123a75780601f1061237c576101008083540402835291602001916123a7565b820191906000526020600020905b81548152906001019060200180831161238a57829003601f168201915b50505050600283015460039093015491929160ff16905084565b6008600a83815481106123d6576123d6612e8c565b90600052602060002090600402016001016040516123f49190612a4c565b90815260405190819003602001902054336001600160a01b039091161461242d5760405162461bcd60e51b815260040161077c90612cfd565b80600114156124cf57336001600160a01b03166108fc600a848154811061245657612456612e8c565b9060005260206000209060040201600201549081150290604051600060405180830381858888f19350505050158015612493573d6000803e3d6000fd5b506000600a83815481106124a9576124a9612e8c565b60009182526020909120600490910201600301805460ff19169115159190911790555050565b80610f6f57600a82815481106124e7576124e7612e8c565b6000918252602090912060049091020154600a80546001600160a01b03909216916108fc91908590811061245657612456612e8c565b82805461252990612e20565b90600052602060002090601f01602090048101928261254b5760008555612591565b82601f1061256457805160ff1916838001178555612591565b82800160010185558215612591579182015b82811115612591578251825591602001919060010190612576565b5061259d9291506125fa565b5090565b8280548282559060005260206000209081019282156125ee579160200282015b828111156125ee57825180516125de91849160209091019061251d565b50916020019190600101906125c1565b5061259d92915061260f565b5b8082111561259d57600081556001016125fb565b8082111561259d576000612623828261262c565b5060010161260f565b50805461263890612e20565b6000825580601f10612648575050565b601f01602090049060005260206000209081019061266691906125fa565b50565b80356001600160a01b038116811461268057600080fd5b919050565b600082601f83011261269657600080fd5b81356001600160401b038111156126af576126af612ea2565b6126c2601f8201601f1916602001612d6b565b8181528460208386010111156126d757600080fd5b816020850160208301376000918101602001919091529392505050565b60006020828403121561270657600080fd5b61270f82612669565b9392505050565b60008060006060848603121561272b57600080fd5b61273484612669565b925060208401356001600160401b0381111561274f57600080fd5b61275b86828701612685565b925050604084013590509250925092565b60006020828403121561277e57600080fd5b81356001600160401b0381111561279457600080fd5b611c2b84828501612685565b600080604083850312156127b357600080fd5b82356001600160401b03808211156127ca57600080fd5b6127d686838701612685565b93506020915081850135818111156127ed57600080fd5b8501601f810187136127fe57600080fd5b80358281111561281057612810612ea2565b8060051b61281f858201612d6b565b8281528581019084870183860188018c101561283a57600080fd5b60009350835b8581101561287757813588811115612856578586fd5b6128648e8b838b0101612685565b8552509288019290880190600101612840565b50989b909a5098505050505050505050565b6000806040838503121561289c57600080fd5b82356001600160401b038111156128b257600080fd5b6128be85828601612685565b95602094909401359450505050565b6000806000606084860312156128e257600080fd5b83356001600160401b03808211156128f957600080fd5b61290587838801612685565b9450602086013591508082111561291b57600080fd5b5061275b86828701612685565b60008060006060848603121561293d57600080fd5b83356001600160401b038082111561295457600080fd5b61296087838801612685565b945060208601359350604086013591508082111561297d57600080fd5b5061298a86828701612685565b9150509250925092565b6000602082840312156129a657600080fd5b5035919050565b600080604083850312156129c057600080fd5b82359150602083013580151581146129d757600080fd5b809150509250929050565b600080604083850312156129f557600080fd5b50508035926020909101359150565b60008151808452612a1c816020860160208601612df4565b601f01601f19169290920160200192915050565b60008251612a42818460208701612df4565b9190910192915050565b600080835481600182811c915080831680612a6857607f831692505b6020808410821415612a8857634e487b7160e01b86526022600452602486fd5b818015612a9c5760018114612aad57612ada565b60ff19861689528489019650612ada565b60008a81526020902060005b86811015612ad25781548b820152908501908301612ab9565b505084890196505b509498975050505050505050565b6001600160a01b0384168152606060208201819052600090612b0c90830185612a04565b90508215156040830152949350505050565b6001600160a01b0385168152608060208201819052600090612b4290830186612a04565b60408301949094525090151560609091015292915050565b6001600160a01b0385168152608060208201819052600090612b7e90830186612a04565b6040830194909452506060015292915050565b6000602080830181845280855180835260408601915060408160051b870101925083870160005b82811015612be657603f19888603018452612bd4858351612a04565b94509285019290850190600101612bb8565b5092979650505050505050565b60208152600061270f6020830184612a04565b608081526000612c196080830187612a04565b60208301959095525060408101929092521515606090910152919050565b60e081526000612c4a60e083018a612a04565b88602084015287604084015286151560608401528281036080840152612c708187612a04565b905082810360a0840152612c848186612a04565b9150508260c083015298975050505050505050565b602080825260179082015276115c9c9bdc8e88125b9d985b1a59081c185cdcdddbdc99604a1b604082015260600190565b602080825260199082015278115c9c9bdc8e88155cd95c88191bd95cdb89dd08195e1a5cdd603a1b604082015260600190565b6020808252601f908201527f6572726f723a2074686973206973206e6f7420796f75722070726f6475637400604082015260600190565b6020808252601d908201527f4572726f723a20596f752061726520616c7265616479206c6f67676564000000604082015260600190565b604051601f8201601f191681016001600160401b0381118282101715612d9357612d93612ea2565b604052919050565b60008219821115612dae57612dae612e76565b500190565b600082612dd057634e487b7160e01b600052601260045260246000fd5b500490565b6000816000190483118215151615612def57612def612e76565b500290565b60005b83811015612e0f578181015183820152602001612df7565b838111156120fd5750506000910152565b600181811c90821680612e3457607f821691505b60208210811415612e5557634e487b7160e01b600052602260045260246000fd5b50919050565b6000600019821415612e6f57612e6f612e76565b5060010190565b634e487b7160e01b600052601160045260246000fd5b634e487b7160e01b600052603260045260246000fd5b634e487b7160e01b600052604160045260246000fdfea26469706673582212204e337a95e89ceb25db14b40092361fb3c81ac2496068afdf65050106a0e8205264736f6c63430008070033b5b2e77f7cc5f741808c088fc930a78382cbc738160d08c471b4672fc39743aa405787fa12a823e0f2b7631cc41b3ba8828b3321ca811111fa75cd3aa3bb5ace418456ba3c801fd0a494a221a407852a26db46c4f8395142565b3b3cd0653b99",
					"opcodes": "PUSH1 0x80 PUSH1 0x40 MSTORE PUSH1 0x0 PUSH1 0xD SSTORE CALLVALUE DUP1 ISZERO PUSH3 0x16 JUMPI PUSH1 0x0 DUP1 REVERT JUMPDEST POP PUSH20 0x5412E9B0E4EF9D1546DF79AE907EEE34BDCF3004 PUSH1 0x1 PUSH1 0x40 MLOAD PUSH3 0x46 SWAP1 PUSH4 0x2132B2B9 PUSH1 0xE1 SHL DUP2 MSTORE PUSH1 0x4 ADD SWAP1 JUMP JUMPDEST SWAP1 DUP2 MSTORE PUSH1 0x40 DUP1 MLOAD PUSH1 0x20 SWAP3 DUP2 SWAP1 SUB DUP4 ADD DUP2 KECCAK256 DUP1 SLOAD PUSH1 0x1 PUSH1 0x1 PUSH1 0xA0 SHL SUB NOT AND PUSH1 0x1 PUSH1 0x1 PUSH1 0xA0 SHL SUB SWAP6 SWAP1 SWAP6 AND SWAP5 SWAP1 SWAP5 OR SWAP1 SWAP4 SSTORE PUSH2 0x120 DUP4 ADD DUP2 MSTORE PUSH1 0x4 PUSH1 0xE0 DUP5 ADD SWAP1 DUP2 MSTORE PUSH4 0x2132B2B9 PUSH1 0xE1 SHL PUSH2 0x100 DUP6 ADD MSTORE DUP4 MSTORE DUP1 MLOAD DUP1 DUP3 ADD SWAP1 SWAP2 MSTORE PUSH1 0x1 DUP2 MSTORE PUSH1 0x19 PUSH1 0xF9 SHL DUP2 DUP4 ADD MSTORE SWAP1 DUP3 ADD SWAP1 PUSH3 0xBA SWAP1 PUSH3 0x75A JUMP JUMPDEST DUP2 MSTORE PUSH1 0x3 PUSH1 0x20 DUP1 DUP4 ADD SWAP2 SWAP1 SWAP2 MSTORE PUSH1 0x0 PUSH1 0x40 DUP1 DUP5 ADD DUP3 SWAP1 MSTORE DUP1 MLOAD DUP1 DUP3 ADD DUP3 MSTORE PUSH1 0x1 DUP2 MSTORE PUSH1 0x31 PUSH1 0xF8 SHL DUP2 DUP6 ADD MSTORE PUSH1 0x60 DUP6 ADD MSTORE DUP1 MLOAD DUP1 DUP3 ADD SWAP1 SWAP2 MSTORE PUSH1 0x6 DUP2 MSTORE PUSH6 0x4D6F73636F77 PUSH1 0xD0 SHL DUP2 DUP5 ADD MSTORE PUSH1 0x80 DUP5 ADD MSTORE PUSH1 0xA0 SWAP1 SWAP3 ADD DUP3 SWAP1 MSTORE PUSH20 0x5412E9B0E4EF9D1546DF79AE907EEE34BDCF3004 DUP3 MSTORE SWAP1 DUP2 MSTORE DUP2 MLOAD DUP1 MLOAD PUSH1 0x0 DUP1 MLOAD PUSH1 0x20 PUSH3 0x3899 DUP4 CODECOPY DUP2 MLOAD SWAP2 MSTORE SWAP3 PUSH3 0x150 SWAP3 DUP5 SWAP3 SWAP2 ADD SWAP1 PUSH3 0x78C JUMP JUMPDEST POP PUSH1 0x20 DUP3 DUP2 ADD MLOAD PUSH1 0x1 DUP4 ADD SSTORE PUSH1 0x40 DUP4 ADD MLOAD PUSH1 0x2 DUP4 ADD SSTORE PUSH1 0x60 DUP4 ADD MLOAD PUSH1 0x3 DUP4 ADD DUP1 SLOAD PUSH1 0xFF NOT AND SWAP2 ISZERO ISZERO SWAP2 SWAP1 SWAP2 OR SWAP1 SSTORE PUSH1 0x80 DUP4 ADD MLOAD DUP1 MLOAD PUSH3 0x197 SWAP3 PUSH1 0x4 DUP6 ADD SWAP3 ADD SWAP1 PUSH3 0x78C JUMP JUMPDEST POP PUSH1 0xA0 DUP3 ADD MLOAD DUP1 MLOAD PUSH3 0x1B5 SWAP2 PUSH1 0x5 DUP5 ADD SWAP2 PUSH1 0x20 SWAP1 SWAP2 ADD SWAP1 PUSH3 0x78C JUMP JUMPDEST POP PUSH1 0xC0 SWAP2 SWAP1 SWAP2 ADD MLOAD PUSH1 0x6 SWAP1 SWAP2 ADD SSTORE PUSH1 0x0 PUSH1 0x20 DUP2 SWAP1 MSTORE PUSH1 0x2 DUP1 SLOAD PUSH1 0x1 DUP2 ADD DUP3 SSTORE SWAP2 MSTORE PUSH1 0x0 DUP1 MLOAD PUSH1 0x20 PUSH3 0x3899 DUP4 CODECOPY DUP2 MLOAD SWAP2 MSTORE DUP1 SLOAD PUSH1 0x0 DUP1 MLOAD PUSH1 0x20 PUSH3 0x3879 DUP4 CODECOPY DUP2 MLOAD SWAP2 MSTORE SWAP1 SWAP3 ADD SWAP2 PUSH3 0x207 SWAP1 PUSH3 0x8F4 JUMP JUMPDEST PUSH3 0x214 SWAP3 SWAP2 SWAP1 PUSH3 0x81B JUMP JUMPDEST POP PUSH20 0x49C364FEDAD517382EE5A776D3071F11CFDE4C5C PUSH1 0x1 PUSH1 0x40 MLOAD PUSH3 0x247 SWAP1 PUSH7 0x141C9BD91D58DD PUSH1 0xCA SHL DUP2 MSTORE PUSH1 0x7 ADD SWAP1 JUMP JUMPDEST SWAP1 DUP2 MSTORE PUSH1 0x40 DUP1 MLOAD PUSH1 0x20 SWAP3 DUP2 SWAP1 SUB DUP4 ADD DUP2 KECCAK256 DUP1 SLOAD PUSH1 0x1 PUSH1 0x1 PUSH1 0xA0 SHL SUB NOT AND PUSH1 0x1 PUSH1 0x1 PUSH1 0xA0 SHL SUB SWAP6 SWAP1 SWAP6 AND SWAP5 SWAP1 SWAP5 OR SWAP1 SWAP4 SSTORE PUSH2 0x120 DUP4 ADD DUP2 MSTORE PUSH1 0x7 PUSH1 0xE0 DUP5 ADD SWAP1 DUP2 MSTORE PUSH7 0x141C9BD91D58DD PUSH1 0xCA SHL PUSH2 0x100 DUP6 ADD MSTORE DUP4 MSTORE DUP1 MLOAD DUP1 DUP3 ADD SWAP1 SWAP2 MSTORE PUSH1 0x1 DUP2 MSTORE PUSH1 0x19 PUSH1 0xF9 SHL DUP2 DUP4 ADD MSTORE SWAP1 DUP3 ADD SWAP1 PUSH3 0x2BE SWAP1 PUSH3 0x75A JUMP JUMPDEST DUP2 MSTORE PUSH1 0x3 PUSH1 0x20 DUP1 DUP4 ADD SWAP2 SWAP1 SWAP2 MSTORE PUSH1 0x0 PUSH1 0x40 DUP1 DUP5 ADD DUP3 SWAP1 MSTORE DUP1 MLOAD DUP1 DUP3 ADD DUP3 MSTORE PUSH1 0x1 DUP2 MSTORE PUSH1 0x19 PUSH1 0xF9 SHL DUP2 DUP6 ADD MSTORE PUSH1 0x60 DUP6 ADD MSTORE DUP1 MLOAD DUP1 DUP3 ADD SWAP1 SWAP2 MSTORE PUSH1 0xA DUP2 MSTORE PUSH10 0x50657465727362757267 PUSH1 0xB0 SHL DUP2 DUP5 ADD MSTORE PUSH1 0x80 DUP5 ADD MSTORE PUSH1 0xA0 SWAP1 SWAP3 ADD DUP3 SWAP1 MSTORE PUSH20 0x49C364FEDAD517382EE5A776D3071F11CFDE4C5C DUP3 MSTORE SWAP1 DUP2 MSTORE DUP2 MLOAD DUP1 MLOAD PUSH1 0x0 DUP1 MLOAD PUSH1 0x20 PUSH3 0x3859 DUP4 CODECOPY DUP2 MLOAD SWAP2 MSTORE SWAP3 PUSH3 0x358 SWAP3 DUP5 SWAP3 SWAP2 ADD SWAP1 PUSH3 0x78C JUMP JUMPDEST POP PUSH1 0x20 DUP3 DUP2 ADD MLOAD PUSH1 0x1 DUP4 ADD SSTORE PUSH1 0x40 DUP4 ADD MLOAD PUSH1 0x2 DUP4 ADD SSTORE PUSH1 0x60 DUP4 ADD MLOAD PUSH1 0x3 DUP4 ADD DUP1 SLOAD PUSH1 0xFF NOT AND SWAP2 ISZERO ISZERO SWAP2 SWAP1 SWAP2 OR SWAP1 SSTORE PUSH1 0x80 DUP4 ADD MLOAD DUP1 MLOAD PUSH3 0x39F SWAP3 PUSH1 0x4 DUP6 ADD SWAP3 ADD SWAP1 PUSH3 0x78C JUMP JUMPDEST POP PUSH1 0xA0 DUP3 ADD MLOAD DUP1 MLOAD PUSH3 0x3BD SWAP2 PUSH1 0x5 DUP5 ADD SWAP2 PUSH1 0x20 SWAP1 SWAP2 ADD SWAP1 PUSH3 0x78C JUMP JUMPDEST POP PUSH1 0xC0 SWAP2 SWAP1 SWAP2 ADD MLOAD PUSH1 0x6 SWAP1 SWAP2 ADD SSTORE PUSH1 0x0 PUSH1 0x20 DUP2 SWAP1 MSTORE PUSH1 0x2 DUP1 SLOAD PUSH1 0x1 DUP2 ADD DUP3 SSTORE SWAP2 MSTORE PUSH1 0x0 DUP1 MLOAD PUSH1 0x20 PUSH3 0x3859 DUP4 CODECOPY DUP2 MLOAD SWAP2 MSTORE DUP1 SLOAD PUSH1 0x0 DUP1 MLOAD PUSH1 0x20 PUSH3 0x3879 DUP4 CODECOPY DUP2 MLOAD SWAP2 MSTORE SWAP1 SWAP3 ADD SWAP2 PUSH3 0x40F SWAP1 PUSH3 0x8F4 JUMP JUMPDEST PUSH3 0x41C SWAP3 SWAP2 SWAP1 PUSH3 0x81B JUMP JUMPDEST POP PUSH20 0xADA67460CF329D12C1ED898710CC8DA5D40D8025 PUSH1 0x5 PUSH1 0x40 MLOAD PUSH3 0x44C SWAP1 PUSH4 0x50657461 PUSH1 0xE0 SHL DUP2 MSTORE PUSH1 0x4 ADD SWAP1 JUMP JUMPDEST SWAP1 DUP2 MSTORE PUSH1 0x40 DUP1 MLOAD PUSH1 0x20 SWAP3 DUP2 SWAP1 SUB DUP4 ADD DUP2 KECCAK256 DUP1 SLOAD PUSH1 0x1 PUSH1 0x1 PUSH1 0xA0 SHL SUB NOT AND PUSH1 0x1 PUSH1 0x1 PUSH1 0xA0 SHL SUB SWAP6 SWAP1 SWAP6 AND SWAP5 SWAP1 SWAP5 OR SWAP1 SWAP4 SSTORE PUSH1 0xC0 DUP4 ADD DUP2 MSTORE PUSH1 0x4 PUSH1 0x80 DUP5 ADD SWAP1 DUP2 MSTORE PUSH4 0x50657461 PUSH1 0xE0 SHL PUSH1 0xA0 DUP6 ADD MSTORE DUP4 MSTORE DUP1 MLOAD DUP1 DUP3 ADD SWAP1 SWAP2 MSTORE PUSH1 0x1 DUP2 MSTORE PUSH1 0x33 PUSH1 0xF8 SHL DUP2 DUP4 ADD MSTORE SWAP1 DUP3 ADD SWAP1 PUSH3 0x4BE SWAP1 PUSH3 0x75A JUMP JUMPDEST DUP2 MSTORE PUSH1 0x2 PUSH1 0x20 DUP1 DUP4 ADD SWAP2 SWAP1 SWAP2 MSTORE PUSH1 0x0 PUSH1 0x40 SWAP1 SWAP3 ADD DUP3 SWAP1 MSTORE PUSH20 0xADA67460CF329D12C1ED898710CC8DA5D40D8025 SWAP1 SWAP2 MSTORE PUSH1 0x4 DUP2 MSTORE DUP2 MLOAD DUP1 MLOAD PUSH32 0x7276C473C3031176624EAD5B5CBFDEA5CDBC158289C185F75F825E40AED0BB37 SWAP3 PUSH3 0x527 SWAP3 DUP5 SWAP3 SWAP2 ADD SWAP1 PUSH3 0x78C JUMP JUMPDEST POP PUSH1 0x20 DUP3 DUP2 ADD MLOAD PUSH1 0x1 DUP4 DUP2 ADD SWAP2 SWAP1 SWAP2 SSTORE PUSH1 0x40 DUP1 DUP6 ADD MLOAD PUSH1 0x2 DUP6 ADD SSTORE PUSH1 0x60 SWAP1 SWAP5 ADD MLOAD PUSH1 0x3 SWAP1 SWAP4 ADD DUP1 SLOAD PUSH1 0xFF NOT AND SWAP4 ISZERO ISZERO SWAP4 SWAP1 SWAP4 OR SWAP1 SWAP3 SSTORE PUSH1 0x6 DUP1 SLOAD SWAP3 DUP4 ADD DUP2 SSTORE PUSH1 0x0 MSTORE DUP3 MLOAD DUP1 DUP5 ADD SWAP1 SWAP4 MSTORE PUSH1 0x4 DUP1 DUP5 MSTORE PUSH4 0x50657461 PUSH1 0xE0 SHL SWAP4 SWAP1 SWAP2 ADD SWAP3 DUP4 MSTORE PUSH3 0x5B6 SWAP3 PUSH32 0xF652222313E28459528D920B65115C16C04F3EFC82AAEDC97BE59F3F377C0D3F SWAP1 SWAP3 ADD SWAP2 SWAP1 PUSH3 0x78C JUMP JUMPDEST POP PUSH1 0x7 DUP1 SLOAD PUSH1 0x1 DUP2 ADD DUP3 SSTORE PUSH1 0x0 SWAP2 SWAP1 SWAP2 MSTORE PUSH32 0xA66CC928B5EDB82AF9BD49922954155AB7B0942694BEA4CE44661D9A8736C688 ADD DUP1 SLOAD PUSH1 0x1 PUSH1 0x1 PUSH1 0xA0 SHL SUB NOT AND PUSH20 0xADA67460CF329D12C1ED898710CC8DA5D40D8025 OR SWAP1 SSTORE PUSH1 0x40 DUP1 MLOAD PUSH1 0x80 DUP2 ADD DUP3 MSTORE PUSH20 0x5412E9B0E4EF9D1546DF79AE907EEE34BDCF3004 DUP2 MSTORE DUP2 MLOAD DUP1 DUP4 ADD DUP4 MSTORE PUSH1 0x3 DUP2 MSTORE PUSH3 0x185CD9 PUSH1 0xEA SHL PUSH1 0x20 DUP3 DUP2 ADD SWAP2 SWAP1 SWAP2 MSTORE DUP3 ADD MSTORE PUSH9 0x56BC75E2D63100000 DUP2 DUP4 ADD MSTORE PUSH1 0xD SLOAD PUSH1 0x60 DUP3 ADD MSTORE SWAP1 MLOAD PUSH1 0x8 SWAP1 PUSH3 0x67D SWAP1 PUSH5 0x4170706C65 PUSH1 0xD8 SHL DUP2 MSTORE PUSH1 0x5 ADD SWAP1 JUMP JUMPDEST SWAP1 DUP2 MSTORE PUSH1 0x40 MLOAD PUSH1 0x20 SWAP2 DUP2 SWAP1 SUB DUP3 ADD SWAP1 KECCAK256 DUP3 MLOAD DUP2 SLOAD PUSH1 0x1 PUSH1 0x1 PUSH1 0xA0 SHL SUB NOT AND PUSH1 0x1 PUSH1 0x1 PUSH1 0xA0 SHL SUB SWAP1 SWAP2 AND OR DUP2 SSTORE DUP3 DUP3 ADD MLOAD DUP1 MLOAD SWAP2 SWAP3 PUSH3 0x6C5 SWAP3 PUSH1 0x1 DUP6 ADD SWAP3 SWAP1 SWAP2 ADD SWAP1 PUSH3 0x78C JUMP JUMPDEST POP PUSH1 0x40 DUP3 DUP2 ADD MLOAD PUSH1 0x2 DUP4 ADD SSTORE PUSH1 0x60 SWAP1 SWAP3 ADD MLOAD PUSH1 0x3 SWAP1 SWAP2 ADD SSTORE PUSH1 0x9 DUP1 SLOAD PUSH1 0x1 DUP2 ADD DUP3 SSTORE PUSH1 0x0 SWAP2 SWAP1 SWAP2 MSTORE DUP2 MLOAD DUP1 DUP4 ADD SWAP1 SWAP3 MSTORE PUSH1 0x5 DUP1 DUP4 MSTORE PUSH5 0x4170706C65 PUSH1 0xD8 SHL PUSH1 0x20 SWAP1 SWAP4 ADD SWAP3 DUP4 MSTORE PUSH3 0x73C SWAP3 PUSH32 0x6E1540171B6C0C960B71A7020D9F60077F6AF931A8BBF590DA0223DACF75C7AF SWAP1 SWAP3 ADD SWAP2 SWAP1 PUSH3 0x78C JUMP JUMPDEST POP PUSH1 0xD DUP1 SLOAD SWAP1 PUSH1 0x0 PUSH3 0x74F DUP4 PUSH3 0x931 JUMP JUMPDEST SWAP2 SWAP1 POP SSTORE POP PUSH3 0x95B JUMP JUMPDEST PUSH1 0x0 DUP2 PUSH1 0x40 MLOAD PUSH1 0x20 ADD PUSH3 0x76F SWAP2 SWAP1 PUSH3 0x8B6 JUMP JUMPDEST PUSH1 0x40 MLOAD PUSH1 0x20 DUP2 DUP4 SUB SUB DUP2 MSTORE SWAP1 PUSH1 0x40 MSTORE DUP1 MLOAD SWAP1 PUSH1 0x20 ADD KECCAK256 SWAP1 POP SWAP2 SWAP1 POP JUMP JUMPDEST DUP3 DUP1 SLOAD PUSH3 0x79A SWAP1 PUSH3 0x8F4 JUMP JUMPDEST SWAP1 PUSH1 0x0 MSTORE PUSH1 0x20 PUSH1 0x0 KECCAK256 SWAP1 PUSH1 0x1F ADD PUSH1 0x20 SWAP1 DIV DUP2 ADD SWAP3 DUP3 PUSH3 0x7BE JUMPI PUSH1 0x0 DUP6 SSTORE PUSH3 0x809 JUMP JUMPDEST DUP3 PUSH1 0x1F LT PUSH3 0x7D9 JUMPI DUP1 MLOAD PUSH1 0xFF NOT AND DUP4 DUP1 ADD OR DUP6 SSTORE PUSH3 0x809 JUMP JUMPDEST DUP3 DUP1 ADD PUSH1 0x1 ADD DUP6 SSTORE DUP3 ISZERO PUSH3 0x809 JUMPI SWAP2 DUP3 ADD JUMPDEST DUP3 DUP2 GT ISZERO PUSH3 0x809 JUMPI DUP3 MLOAD DUP3 SSTORE SWAP2 PUSH1 0x20 ADD SWAP2 SWAP1 PUSH1 0x1 ADD SWAP1 PUSH3 0x7EC JUMP JUMPDEST POP PUSH3 0x817 SWAP3 SWAP2 POP PUSH3 0x89F JUMP JUMPDEST POP SWAP1 JUMP JUMPDEST DUP3 DUP1 SLOAD PUSH3 0x829 SWAP1 PUSH3 0x8F4 JUMP JUMPDEST SWAP1 PUSH1 0x0 MSTORE PUSH1 0x20 PUSH1 0x0 KECCAK256 SWAP1 PUSH1 0x1F ADD PUSH1 0x20 SWAP1 DIV DUP2 ADD SWAP3 DUP3 PUSH3 0x84D JUMPI PUSH1 0x0 DUP6 SSTORE PUSH3 0x809 JUMP JUMPDEST DUP3 PUSH1 0x1F LT PUSH3 0x860 JUMPI DUP1 SLOAD DUP6 SSTORE PUSH3 0x809 JUMP JUMPDEST DUP3 DUP1 ADD PUSH1 0x1 ADD DUP6 SSTORE DUP3 ISZERO PUSH3 0x809 JUMPI PUSH1 0x0 MSTORE PUSH1 0x20 PUSH1 0x0 KECCAK256 SWAP2 PUSH1 0x1F ADD PUSH1 0x20 SWAP1 DIV DUP3 ADD JUMPDEST DUP3 DUP2 GT ISZERO PUSH3 0x809 JUMPI DUP3 SLOAD DUP3 SSTORE SWAP2 PUSH1 0x1 ADD SWAP2 SWAP1 PUSH1 0x1 ADD SWAP1 PUSH3 0x882 JUMP JUMPDEST JUMPDEST DUP1 DUP3 GT ISZERO PUSH3 0x817 JUMPI PUSH1 0x0 DUP2 SSTORE PUSH1 0x1 ADD PUSH3 0x8A0 JUMP JUMPDEST PUSH1 0x0 DUP3 MLOAD PUSH1 0x0 JUMPDEST DUP2 DUP2 LT ISZERO PUSH3 0x8D9 JUMPI PUSH1 0x20 DUP2 DUP7 ADD DUP2 ADD MLOAD DUP6 DUP4 ADD MSTORE ADD PUSH3 0x8BD JUMP JUMPDEST DUP2 DUP2 GT ISZERO PUSH3 0x8E9 JUMPI PUSH1 0x0 DUP3 DUP6 ADD MSTORE JUMPDEST POP SWAP2 SWAP1 SWAP2 ADD SWAP3 SWAP2 POP POP JUMP JUMPDEST PUSH1 0x1 DUP2 DUP2 SHR SWAP1 DUP3 AND DUP1 PUSH3 0x909 JUMPI PUSH1 0x7F DUP3 AND SWAP2 POP JUMPDEST PUSH1 0x20 DUP3 LT DUP2 EQ ISZERO PUSH3 0x92B JUMPI PUSH4 0x4E487B71 PUSH1 0xE0 SHL PUSH1 0x0 MSTORE PUSH1 0x22 PUSH1 0x4 MSTORE PUSH1 0x24 PUSH1 0x0 REVERT JUMPDEST POP SWAP2 SWAP1 POP JUMP JUMPDEST PUSH1 0x0 PUSH1 0x0 NOT DUP3 EQ ISZERO PUSH3 0x954 JUMPI PUSH4 0x4E487B71 PUSH1 0xE0 SHL PUSH1 0x0 MSTORE PUSH1 0x11 PUSH1 0x4 MSTORE PUSH1 0x24 PUSH1 0x0 REVERT JUMPDEST POP PUSH1 0x1 ADD SWAP1 JUMP JUMPDEST PUSH2 0x2EEE DUP1 PUSH3 0x96B PUSH1 0x0 CODECOPY PUSH1 0x0 RETURN INVALID PUSH1 0x80 PUSH1 0x40 MSTORE PUSH1 0x4 CALLDATASIZE LT PUSH2 0x189 JUMPI PUSH1 0x0 CALLDATALOAD PUSH1 0xE0 SHR DUP1 PUSH4 0x33FF0B8 EQ PUSH2 0x18E JUMPI DUP1 PUSH4 0x4AC16F6 EQ PUSH2 0x1C1 JUMPI DUP1 PUSH4 0xE1C81B2 EQ PUSH2 0x1E3 JUMPI DUP1 PUSH4 0x146DC6ED EQ PUSH2 0x203 JUMPI DUP1 PUSH4 0x1BBE970A EQ PUSH2 0x216 JUMPI DUP1 PUSH4 0x1E279A37 EQ PUSH2 0x26F JUMPI DUP1 PUSH4 0x1F8DAAC8 EQ PUSH2 0x297 JUMPI DUP1 PUSH4 0x29E795F3 EQ PUSH2 0x2B9 JUMPI DUP1 PUSH4 0x3B84AEDC EQ PUSH2 0x2D9 JUMPI DUP1 PUSH4 0x521B9170 EQ PUSH2 0x309 JUMPI DUP1 PUSH4 0x55149FD5 EQ PUSH2 0x329 JUMPI DUP1 PUSH4 0x5828C584 EQ PUSH2 0x356 JUMPI DUP1 PUSH4 0x5BBC9A3F EQ PUSH2 0x376 JUMPI DUP1 PUSH4 0x5BD37C9E EQ PUSH2 0x396 JUMPI DUP1 PUSH4 0x5BDB63FA EQ PUSH2 0x3AB JUMPI DUP1 PUSH4 0x6BA44D3C EQ PUSH2 0x3CB JUMPI DUP1 PUSH4 0x6C05DD1D EQ PUSH2 0x3EB JUMPI DUP1 PUSH4 0x7033A382 EQ PUSH2 0x40B JUMPI DUP1 PUSH4 0x73B62BD0 EQ PUSH2 0x41E JUMPI DUP1 PUSH4 0x775EB9E6 EQ PUSH2 0x44D JUMPI DUP1 PUSH4 0x845952A8 EQ PUSH2 0x46D JUMPI DUP1 PUSH4 0x87048043 EQ PUSH2 0x48D JUMPI DUP1 PUSH4 0x8E23CB40 EQ PUSH2 0x4A0 JUMPI DUP1 PUSH4 0x961865F0 EQ PUSH2 0x4D3 JUMPI DUP1 PUSH4 0xA333797F EQ PUSH2 0x503 JUMPI DUP1 PUSH4 0xA985036D EQ PUSH2 0x516 JUMPI DUP1 PUSH4 0xA9F9482B EQ PUSH2 0x536 JUMPI DUP1 PUSH4 0xBBD43363 EQ PUSH2 0x556 JUMPI DUP1 PUSH4 0xC4957FA0 EQ PUSH2 0x576 JUMPI DUP1 PUSH4 0xCC21C188 EQ PUSH2 0x5B7 JUMPI DUP1 PUSH4 0xD22D9020 EQ PUSH2 0x5D7 JUMPI DUP1 PUSH4 0xD68CF8C1 EQ PUSH2 0x5F7 JUMPI DUP1 PUSH4 0xDCE39151 EQ PUSH2 0x627 JUMPI DUP1 PUSH4 0xF7647F36 EQ PUSH2 0x657 JUMPI JUMPDEST PUSH1 0x0 DUP1 REVERT JUMPDEST CALLVALUE DUP1 ISZERO PUSH2 0x19A JUMPI PUSH1 0x0 DUP1 REVERT JUMPDEST POP PUSH2 0x1AE PUSH2 0x1A9 CALLDATASIZE PUSH1 0x4 PUSH2 0x276C JUMP JUMPDEST PUSH2 0x66A JUMP JUMPDEST PUSH1 0x40 MLOAD SWAP1 DUP2 MSTORE PUSH1 0x20 ADD JUMPDEST PUSH1 0x40 MLOAD DUP1 SWAP2 SUB SWAP1 RETURN JUMPDEST CALLVALUE DUP1 ISZERO PUSH2 0x1CD JUMPI PUSH1 0x0 DUP1 REVERT JUMPDEST POP PUSH2 0x1E1 PUSH2 0x1DC CALLDATASIZE PUSH1 0x4 PUSH2 0x276C JUMP JUMPDEST PUSH2 0x6B1 JUMP JUMPDEST STOP JUMPDEST CALLVALUE DUP1 ISZERO PUSH2 0x1EF JUMPI PUSH1 0x0 DUP1 REVERT JUMPDEST POP PUSH2 0x1E1 PUSH2 0x1FE CALLDATASIZE PUSH1 0x4 PUSH2 0x2716 JUMP JUMPDEST PUSH2 0x703 JUMP JUMPDEST PUSH2 0x1E1 PUSH2 0x211 CALLDATASIZE PUSH1 0x4 PUSH2 0x276C JUMP JUMPDEST PUSH2 0x884 JUMP JUMPDEST CALLVALUE DUP1 ISZERO PUSH2 0x222 JUMPI PUSH1 0x0 DUP1 REVERT JUMPDEST POP PUSH2 0x257 PUSH2 0x231 CALLDATASIZE PUSH1 0x4 PUSH2 0x276C JUMP JUMPDEST DUP1 MLOAD PUSH1 0x20 DUP2 DUP4 ADD DUP2 ADD DUP1 MLOAD PUSH1 0x5 DUP3 MSTORE SWAP3 DUP3 ADD SWAP2 SWAP1 SWAP4 ADD KECCAK256 SWAP2 MSTORE SLOAD PUSH1 0x1 PUSH1 0x1 PUSH1 0xA0 SHL SUB AND DUP2 JUMP JUMPDEST PUSH1 0x40 MLOAD PUSH1 0x1 PUSH1 0x1 PUSH1 0xA0 SHL SUB SWAP1 SWAP2 AND DUP2 MSTORE PUSH1 0x20 ADD PUSH2 0x1B8 JUMP JUMPDEST CALLVALUE DUP1 ISZERO PUSH2 0x27B JUMPI PUSH1 0x0 DUP1 REVERT JUMPDEST POP PUSH2 0x1AE PUSH2 0x28A CALLDATASIZE PUSH1 0x4 PUSH2 0x26F4 JUMP JUMPDEST PUSH1 0x1 PUSH1 0x1 PUSH1 0xA0 SHL SUB AND BALANCE SWAP1 JUMP JUMPDEST CALLVALUE DUP1 ISZERO PUSH2 0x2A3 JUMPI PUSH1 0x0 DUP1 REVERT JUMPDEST POP PUSH2 0x2AC PUSH2 0x9C3 JUMP JUMPDEST PUSH1 0x40 MLOAD PUSH2 0x1B8 SWAP2 SWAP1 PUSH2 0x2B91 JUMP JUMPDEST CALLVALUE DUP1 ISZERO PUSH2 0x2C5 JUMPI PUSH1 0x0 DUP1 REVERT JUMPDEST POP PUSH2 0x1E1 PUSH2 0x2D4 CALLDATASIZE PUSH1 0x4 PUSH2 0x27A0 JUMP JUMPDEST PUSH2 0xA9C JUMP JUMPDEST CALLVALUE DUP1 ISZERO PUSH2 0x2E5 JUMPI PUSH1 0x0 DUP1 REVERT JUMPDEST POP PUSH2 0x2F9 PUSH2 0x2F4 CALLDATASIZE PUSH1 0x4 PUSH2 0x276C JUMP JUMPDEST PUSH2 0xC00 JUMP JUMPDEST PUSH1 0x40 MLOAD SWAP1 ISZERO ISZERO DUP2 MSTORE PUSH1 0x20 ADD PUSH2 0x1B8 JUMP JUMPDEST CALLVALUE DUP1 ISZERO PUSH2 0x315 JUMPI PUSH1 0x0 DUP1 REVERT JUMPDEST POP PUSH2 0x1E1 PUSH2 0x324 CALLDATASIZE PUSH1 0x4 PUSH2 0x276C JUMP JUMPDEST PUSH2 0xC4A JUMP JUMPDEST CALLVALUE DUP1 ISZERO PUSH2 0x335 JUMPI PUSH1 0x0 DUP1 REVERT JUMPDEST POP PUSH2 0x349 PUSH2 0x344 CALLDATASIZE PUSH1 0x4 PUSH2 0x276C JUMP JUMPDEST PUSH2 0xC60 JUMP JUMPDEST PUSH1 0x40 MLOAD PUSH2 0x1B8 SWAP2 SWAP1 PUSH2 0x2BF3 JUMP JUMPDEST CALLVALUE DUP1 ISZERO PUSH2 0x362 JUMPI PUSH1 0x0 DUP1 REVERT JUMPDEST POP PUSH2 0x1E1 PUSH2 0x371 CALLDATASIZE PUSH1 0x4 PUSH2 0x276C JUMP JUMPDEST PUSH2 0xD30 JUMP JUMPDEST CALLVALUE DUP1 ISZERO PUSH2 0x382 JUMPI PUSH1 0x0 DUP1 REVERT JUMPDEST POP PUSH2 0x2F9 PUSH2 0x391 CALLDATASIZE PUSH1 0x4 PUSH2 0x276C JUMP JUMPDEST PUSH2 0xF73 JUMP JUMPDEST CALLVALUE DUP1 ISZERO PUSH2 0x3A2 JUMPI PUSH1 0x0 DUP1 REVERT JUMPDEST POP PUSH2 0x2AC PUSH2 0xF89 JUMP JUMPDEST CALLVALUE DUP1 ISZERO PUSH2 0x3B7 JUMPI PUSH1 0x0 DUP1 REVERT JUMPDEST POP PUSH2 0x1AE PUSH2 0x3C6 CALLDATASIZE PUSH1 0x4 PUSH2 0x276C JUMP JUMPDEST PUSH2 0x1059 JUMP JUMPDEST CALLVALUE DUP1 ISZERO PUSH2 0x3D7 JUMPI PUSH1 0x0 DUP1 REVERT JUMPDEST POP PUSH2 0x257 PUSH2 0x3E6 CALLDATASIZE PUSH1 0x4 PUSH2 0x276C JUMP JUMPDEST PUSH2 0x106F JUMP JUMPDEST CALLVALUE DUP1 ISZERO PUSH2 0x3F7 JUMPI PUSH1 0x0 DUP1 REVERT JUMPDEST POP PUSH2 0x1E1 PUSH2 0x406 CALLDATASIZE PUSH1 0x4 PUSH2 0x2928 JUMP JUMPDEST PUSH2 0x110D JUMP JUMPDEST PUSH2 0x1E1 PUSH2 0x419 CALLDATASIZE PUSH1 0x4 PUSH2 0x2994 JUMP JUMPDEST PUSH2 0x120C JUMP JUMPDEST CALLVALUE DUP1 ISZERO PUSH2 0x42A JUMPI PUSH1 0x0 DUP1 REVERT JUMPDEST POP PUSH2 0x43E PUSH2 0x439 CALLDATASIZE PUSH1 0x4 PUSH2 0x2994 JUMP JUMPDEST PUSH2 0x131B JUMP JUMPDEST PUSH1 0x40 MLOAD PUSH2 0x1B8 SWAP4 SWAP3 SWAP2 SWAP1 PUSH2 0x2AE8 JUMP JUMPDEST CALLVALUE DUP1 ISZERO PUSH2 0x459 JUMPI PUSH1 0x0 DUP1 REVERT JUMPDEST POP PUSH2 0x1E1 PUSH2 0x468 CALLDATASIZE PUSH1 0x4 PUSH2 0x2889 JUMP JUMPDEST PUSH2 0x13E6 JUMP JUMPDEST CALLVALUE DUP1 ISZERO PUSH2 0x479 JUMPI PUSH1 0x0 DUP1 REVERT JUMPDEST POP PUSH2 0x1AE PUSH2 0x488 CALLDATASIZE PUSH1 0x4 PUSH2 0x276C JUMP JUMPDEST PUSH2 0x1547 JUMP JUMPDEST PUSH2 0x1E1 PUSH2 0x49B CALLDATASIZE PUSH1 0x4 PUSH2 0x29AD JUMP JUMPDEST PUSH2 0x1577 JUMP JUMPDEST CALLVALUE DUP1 ISZERO PUSH2 0x4AC JUMPI PUSH1 0x0 DUP1 REVERT JUMPDEST POP PUSH2 0x4C0 PUSH2 0x4BB CALLDATASIZE PUSH1 0x4 PUSH2 0x26F4 JUMP JUMPDEST PUSH2 0x169D JUMP JUMPDEST PUSH1 0x40 MLOAD PUSH2 0x1B8 SWAP8 SWAP7 SWAP6 SWAP5 SWAP4 SWAP3 SWAP2 SWAP1 PUSH2 0x2C37 JUMP JUMPDEST CALLVALUE DUP1 ISZERO PUSH2 0x4DF JUMPI PUSH1 0x0 DUP1 REVERT JUMPDEST POP PUSH2 0x4F3 PUSH2 0x4EE CALLDATASIZE PUSH1 0x4 PUSH2 0x26F4 JUMP JUMPDEST PUSH2 0x1878 JUMP JUMPDEST PUSH1 0x40 MLOAD PUSH2 0x1B8 SWAP5 SWAP4 SWAP3 SWAP2 SWAP1 PUSH2 0x2C06 JUMP JUMPDEST PUSH2 0x1E1 PUSH2 0x511 CALLDATASIZE PUSH1 0x4 PUSH2 0x29E2 JUMP JUMPDEST PUSH2 0x192D JUMP JUMPDEST CALLVALUE DUP1 ISZERO PUSH2 0x522 JUMPI PUSH1 0x0 DUP1 REVERT JUMPDEST POP PUSH2 0x1AE PUSH2 0x531 CALLDATASIZE PUSH1 0x4 PUSH2 0x276C JUMP JUMPDEST PUSH2 0x1A2B JUMP JUMPDEST CALLVALUE DUP1 ISZERO PUSH2 0x542 JUMPI PUSH1 0x0 DUP1 REVERT JUMPDEST POP PUSH2 0x43E PUSH2 0x551 CALLDATASIZE PUSH1 0x4 PUSH2 0x2994 JUMP JUMPDEST PUSH2 0x1C33 JUMP JUMPDEST CALLVALUE DUP1 ISZERO PUSH2 0x562 JUMPI PUSH1 0x0 DUP1 REVERT JUMPDEST POP PUSH2 0x1E1 PUSH2 0x571 CALLDATASIZE PUSH1 0x4 PUSH2 0x276C JUMP JUMPDEST PUSH2 0x1C43 JUMP JUMPDEST CALLVALUE DUP1 ISZERO PUSH2 0x582 JUMPI PUSH1 0x0 DUP1 REVERT JUMPDEST POP PUSH2 0x257 PUSH2 0x591 CALLDATASIZE PUSH1 0x4 PUSH2 0x276C JUMP JUMPDEST DUP1 MLOAD PUSH1 0x20 DUP2 DUP4 ADD DUP2 ADD DUP1 MLOAD PUSH1 0x1 DUP3 MSTORE SWAP3 DUP3 ADD SWAP2 SWAP1 SWAP4 ADD KECCAK256 SWAP2 MSTORE SLOAD PUSH1 0x1 PUSH1 0x1 PUSH1 0xA0 SHL SUB AND DUP2 JUMP JUMPDEST CALLVALUE DUP1 ISZERO PUSH2 0x5C3 JUMPI PUSH1 0x0 DUP1 REVERT JUMPDEST POP PUSH2 0x1E1 PUSH2 0x5D2 CALLDATASIZE PUSH1 0x4 PUSH2 0x28CD JUMP JUMPDEST PUSH2 0x1E2F JUMP JUMPDEST CALLVALUE DUP1 ISZERO PUSH2 0x5E3 JUMPI PUSH1 0x0 DUP1 REVERT JUMPDEST POP PUSH2 0x1E1 PUSH2 0x5F2 CALLDATASIZE PUSH1 0x4 PUSH2 0x2889 JUMP JUMPDEST PUSH2 0x2103 JUMP JUMPDEST CALLVALUE DUP1 ISZERO PUSH2 0x603 JUMPI PUSH1 0x0 DUP1 REVERT JUMPDEST POP PUSH2 0x617 PUSH2 0x612 CALLDATASIZE PUSH1 0x4 PUSH2 0x276C JUMP JUMPDEST PUSH2 0x2229 JUMP JUMPDEST PUSH1 0x40 MLOAD PUSH2 0x1B8 SWAP5 SWAP4 SWAP3 SWAP2 SWAP1 PUSH2 0x2B5A JUMP JUMPDEST CALLVALUE DUP1 ISZERO PUSH2 0x633 JUMPI PUSH1 0x0 DUP1 REVERT JUMPDEST POP PUSH2 0x647 PUSH2 0x642 CALLDATASIZE PUSH1 0x4 PUSH2 0x2994 JUMP JUMPDEST PUSH2 0x22EF JUMP JUMPDEST PUSH1 0x40 MLOAD PUSH2 0x1B8 SWAP5 SWAP4 SWAP3 SWAP2 SWAP1 PUSH2 0x2B1E JUMP JUMPDEST PUSH2 0x1E1 PUSH2 0x665 CALLDATASIZE PUSH1 0x4 PUSH2 0x29E2 JUMP JUMPDEST PUSH2 0x23C1 JUMP JUMPDEST PUSH1 0x0 DUP1 PUSH1 0x0 PUSH1 0x1 DUP5 PUSH1 0x40 MLOAD PUSH2 0x67F SWAP2 SWAP1 PUSH2 0x2A30 JUMP JUMPDEST SWAP1 DUP2 MSTORE PUSH1 0x40 DUP1 MLOAD PUSH1 0x20 SWAP3 DUP2 SWAP1 SUB DUP4 ADD SWAP1 KECCAK256 SLOAD PUSH1 0x1 PUSH1 0x1 PUSH1 0xA0 SHL SUB AND DUP4 MSTORE SWAP1 DUP3 ADD SWAP3 SWAP1 SWAP3 MSTORE ADD PUSH1 0x0 KECCAK256 PUSH1 0x2 ADD SLOAD SWAP3 SWAP2 POP POP JUMP JUMPDEST PUSH1 0x0 DUP1 PUSH1 0x0 PUSH1 0x1 DUP5 PUSH1 0x40 MLOAD PUSH2 0x6C6 SWAP2 SWAP1 PUSH2 0x2A30 JUMP JUMPDEST SWAP1 DUP2 MSTORE PUSH1 0x40 DUP1 MLOAD PUSH1 0x20 SWAP3 DUP2 SWAP1 SUB DUP4 ADD SWAP1 KECCAK256 SLOAD PUSH1 0x1 PUSH1 0x1 PUSH1 0xA0 SHL SUB AND DUP4 MSTORE SWAP1 DUP3 ADD SWAP3 SWAP1 SWAP3 MSTORE ADD PUSH1 0x0 KECCAK256 PUSH1 0x3 ADD DUP1 SLOAD PUSH1 0xFF NOT AND SWAP2 ISZERO ISZERO SWAP2 SWAP1 SWAP2 OR SWAP1 SSTORE POP JUMP JUMPDEST PUSH1 0x0 PUSH1 0x1 PUSH1 0x1 PUSH1 0xA0 SHL SUB AND PUSH1 0x5 DUP4 PUSH1 0x40 MLOAD PUSH2 0x71E SWAP2 SWAP1 PUSH2 0x2A30 JUMP JUMPDEST SWAP1 DUP2 MSTORE PUSH1 0x40 MLOAD SWAP1 DUP2 SWAP1 SUB PUSH1 0x20 ADD SWAP1 KECCAK256 SLOAD PUSH1 0x1 PUSH1 0x1 PUSH1 0xA0 SHL SUB AND EQ PUSH2 0x785 JUMPI PUSH1 0x40 MLOAD PUSH3 0x461BCD PUSH1 0xE5 SHL DUP2 MSTORE PUSH1 0x20 PUSH1 0x4 DUP3 ADD MSTORE PUSH1 0x19 PUSH1 0x24 DUP3 ADD MSTORE PUSH25 0x115C9C9BDC8E88155CD95C88185B1C9958591E48195E1A5CDD PUSH1 0x3A SHL PUSH1 0x44 DUP3 ADD MSTORE PUSH1 0x64 ADD JUMPDEST PUSH1 0x40 MLOAD DUP1 SWAP2 SUB SWAP1 REVERT JUMPDEST PUSH1 0x40 DUP1 MLOAD PUSH1 0x80 DUP2 ADD DUP3 MSTORE DUP4 DUP2 MSTORE PUSH1 0x20 DUP1 DUP3 ADD DUP5 SWAP1 MSTORE PUSH1 0x2 DUP3 DUP5 ADD MSTORE PUSH1 0x0 PUSH1 0x60 DUP4 ADD DUP2 SWAP1 MSTORE PUSH1 0x1 PUSH1 0x1 PUSH1 0xA0 SHL SUB DUP8 AND DUP2 MSTORE PUSH1 0x4 DUP3 MSTORE SWAP3 SWAP1 SWAP3 KECCAK256 DUP2 MLOAD DUP1 MLOAD SWAP3 SWAP4 SWAP2 SWAP3 PUSH2 0x7D2 SWAP3 DUP5 SWAP3 ADD SWAP1 PUSH2 0x251D JUMP JUMPDEST POP PUSH1 0x20 DUP3 ADD MLOAD PUSH1 0x1 DUP3 ADD SSTORE PUSH1 0x40 DUP1 DUP4 ADD MLOAD PUSH1 0x2 DUP4 ADD SSTORE PUSH1 0x60 SWAP1 SWAP3 ADD MLOAD PUSH1 0x3 SWAP1 SWAP2 ADD DUP1 SLOAD PUSH1 0xFF NOT AND SWAP2 ISZERO ISZERO SWAP2 SWAP1 SWAP2 OR SWAP1 SSTORE MLOAD DUP4 SWAP1 PUSH1 0x5 SWAP1 PUSH2 0x813 SWAP1 DUP6 SWAP1 PUSH2 0x2A30 JUMP JUMPDEST SWAP1 DUP2 MSTORE PUSH1 0x40 MLOAD SWAP1 DUP2 SWAP1 SUB PUSH1 0x20 ADD SWAP1 KECCAK256 DUP1 SLOAD PUSH1 0x1 PUSH1 0x1 PUSH1 0xA0 SHL SUB SWAP3 DUP4 AND PUSH1 0x1 PUSH1 0x1 PUSH1 0xA0 SHL SUB NOT SWAP2 DUP3 AND OR SWAP1 SWAP2 SSTORE PUSH1 0x7 DUP1 SLOAD PUSH1 0x1 DUP2 ADD DUP3 SSTORE PUSH1 0x0 SWAP2 SWAP1 SWAP2 MSTORE PUSH32 0xA66CC928B5EDB82AF9BD49922954155AB7B0942694BEA4CE44661D9A8736C688 ADD DUP1 SLOAD SWAP6 SWAP1 SWAP3 AND SWAP5 AND SWAP4 SWAP1 SWAP4 OR SWAP1 SWAP3 SSTORE POP POP JUMP JUMPDEST PUSH1 0x8 DUP2 PUSH1 0x40 MLOAD PUSH2 0x894 SWAP2 SWAP1 PUSH2 0x2A30 JUMP JUMPDEST SWAP1 DUP2 MSTORE PUSH1 0x20 ADD PUSH1 0x40 MLOAD DUP1 SWAP2 SUB SWAP1 KECCAK256 PUSH1 0x2 ADD SLOAD CALLVALUE EQ PUSH2 0x8E7 JUMPI PUSH1 0x40 MLOAD PUSH3 0x461BCD PUSH1 0xE5 SHL DUP2 MSTORE PUSH1 0x20 PUSH1 0x4 DUP3 ADD MSTORE PUSH1 0x10 PUSH1 0x24 DUP3 ADD MSTORE PUSH16 0x6572726F723A206E6F74206D6F6E6579 PUSH1 0x80 SHL PUSH1 0x44 DUP3 ADD MSTORE PUSH1 0x64 ADD PUSH2 0x77C JUMP JUMPDEST PUSH1 0x40 DUP1 MLOAD PUSH1 0x80 DUP2 ADD DUP3 MSTORE CALLER DUP2 MSTORE PUSH1 0x20 DUP1 DUP3 ADD DUP5 DUP2 MSTORE CALLVALUE SWAP4 DUP4 ADD SWAP4 SWAP1 SWAP4 MSTORE PUSH1 0x1 PUSH1 0x60 DUP4 ADD DUP2 SWAP1 MSTORE PUSH1 0xA DUP1 SLOAD SWAP2 DUP3 ADD DUP2 SSTORE PUSH1 0x0 MSTORE DUP3 MLOAD PUSH32 0xC65A7BB8D6351C1CF70C95A316CC6A92839C986682D98BC35F958F4883F9D2A8 PUSH1 0x4 SWAP1 SWAP3 MUL SWAP2 DUP3 ADD DUP1 SLOAD PUSH1 0x1 PUSH1 0x1 PUSH1 0xA0 SHL SUB NOT AND PUSH1 0x1 PUSH1 0x1 PUSH1 0xA0 SHL SUB SWAP1 SWAP3 AND SWAP2 SWAP1 SWAP2 OR DUP2 SSTORE SWAP4 MLOAD DUP1 MLOAD SWAP4 SWAP5 SWAP4 PUSH2 0x99B SWAP4 PUSH32 0xC65A7BB8D6351C1CF70C95A316CC6A92839C986682D98BC35F958F4883F9D2A9 SWAP1 SWAP4 ADD SWAP3 SWAP2 SWAP1 SWAP2 ADD SWAP1 PUSH2 0x251D JUMP JUMPDEST POP PUSH1 0x40 DUP3 ADD MLOAD PUSH1 0x2 DUP3 ADD SSTORE PUSH1 0x60 SWAP1 SWAP2 ADD MLOAD PUSH1 0x3 SWAP1 SWAP2 ADD DUP1 SLOAD PUSH1 0xFF NOT AND SWAP2 ISZERO ISZERO SWAP2 SWAP1 SWAP2 OR SWAP1 SSTORE POP JUMP JUMPDEST PUSH1 0x60 PUSH1 0x2 DUP1 SLOAD DUP1 PUSH1 0x20 MUL PUSH1 0x20 ADD PUSH1 0x40 MLOAD SWAP1 DUP2 ADD PUSH1 0x40 MSTORE DUP1 SWAP3 SWAP2 SWAP1 DUP2 DUP2 MSTORE PUSH1 0x20 ADD PUSH1 0x0 SWAP1 JUMPDEST DUP3 DUP3 LT ISZERO PUSH2 0xA93 JUMPI DUP4 DUP3 SWAP1 PUSH1 0x0 MSTORE PUSH1 0x20 PUSH1 0x0 KECCAK256 ADD DUP1 SLOAD PUSH2 0xA06 SWAP1 PUSH2 0x2E20 JUMP JUMPDEST DUP1 PUSH1 0x1F ADD PUSH1 0x20 DUP1 SWAP2 DIV MUL PUSH1 0x20 ADD PUSH1 0x40 MLOAD SWAP1 DUP2 ADD PUSH1 0x40 MSTORE DUP1 SWAP3 SWAP2 SWAP1 DUP2 DUP2 MSTORE PUSH1 0x20 ADD DUP3 DUP1 SLOAD PUSH2 0xA32 SWAP1 PUSH2 0x2E20 JUMP JUMPDEST DUP1 ISZERO PUSH2 0xA7F JUMPI DUP1 PUSH1 0x1F LT PUSH2 0xA54 JUMPI PUSH2 0x100 DUP1 DUP4 SLOAD DIV MUL DUP4 MSTORE SWAP2 PUSH1 0x20 ADD SWAP2 PUSH2 0xA7F JUMP JUMPDEST DUP3 ADD SWAP2 SWAP1 PUSH1 0x0 MSTORE PUSH1 0x20 PUSH1 0x0 KECCAK256 SWAP1 JUMPDEST DUP2 SLOAD DUP2 MSTORE SWAP1 PUSH1 0x1 ADD SWAP1 PUSH1 0x20 ADD DUP1 DUP4 GT PUSH2 0xA62 JUMPI DUP3 SWAP1 SUB PUSH1 0x1F AND DUP3 ADD SWAP2 JUMPDEST POP POP POP POP POP DUP2 MSTORE PUSH1 0x20 ADD SWAP1 PUSH1 0x1 ADD SWAP1 PUSH2 0x9E7 JUMP JUMPDEST POP POP POP POP SWAP1 POP SWAP1 JUMP JUMPDEST PUSH1 0x0 JUMPDEST PUSH1 0x3 SLOAD DUP2 LT ISZERO PUSH2 0xBFB JUMPI PUSH1 0x0 PUSH1 0x3 DUP3 DUP2 SLOAD DUP2 LT PUSH2 0xABE JUMPI PUSH2 0xABE PUSH2 0x2E8C JUMP JUMPDEST SWAP1 PUSH1 0x0 MSTORE PUSH1 0x20 PUSH1 0x0 KECCAK256 SWAP1 PUSH1 0x5 MUL ADD PUSH1 0x1 ADD DUP1 SLOAD PUSH2 0xADA SWAP1 PUSH2 0x2E20 JUMP JUMPDEST DUP1 PUSH1 0x1F ADD PUSH1 0x20 DUP1 SWAP2 DIV MUL PUSH1 0x20 ADD PUSH1 0x40 MLOAD SWAP1 DUP2 ADD PUSH1 0x40 MSTORE DUP1 SWAP3 SWAP2 SWAP1 DUP2 DUP2 MSTORE PUSH1 0x20 ADD DUP3 DUP1 SLOAD PUSH2 0xB06 SWAP1 PUSH2 0x2E20 JUMP JUMPDEST DUP1 ISZERO PUSH2 0xB53 JUMPI DUP1 PUSH1 0x1F LT PUSH2 0xB28 JUMPI PUSH2 0x100 DUP1 DUP4 SLOAD DIV MUL DUP4 MSTORE SWAP2 PUSH1 0x20 ADD SWAP2 PUSH2 0xB53 JUMP JUMPDEST DUP3 ADD SWAP2 SWAP1 PUSH1 0x0 MSTORE PUSH1 0x20 PUSH1 0x0 KECCAK256 SWAP1 JUMPDEST DUP2 SLOAD DUP2 MSTORE SWAP1 PUSH1 0x1 ADD SWAP1 PUSH1 0x20 ADD DUP1 DUP4 GT PUSH2 0xB36 JUMPI DUP3 SWAP1 SUB PUSH1 0x1F AND DUP3 ADD SWAP2 JUMPDEST POP POP POP POP POP SWAP1 POP DUP4 PUSH1 0x40 MLOAD PUSH1 0x20 ADD PUSH2 0xB6B SWAP2 SWAP1 PUSH2 0x2A30 JUMP JUMPDEST PUSH1 0x40 MLOAD PUSH1 0x20 DUP2 DUP4 SUB SUB DUP2 MSTORE SWAP1 PUSH1 0x40 MSTORE DUP1 MLOAD SWAP1 PUSH1 0x20 ADD KECCAK256 DUP2 PUSH1 0x40 MLOAD PUSH1 0x20 ADD PUSH2 0xB92 SWAP2 SWAP1 PUSH2 0x2A30 JUMP JUMPDEST PUSH1 0x40 MLOAD PUSH1 0x20 DUP2 DUP4 SUB SUB DUP2 MSTORE SWAP1 PUSH1 0x40 MSTORE DUP1 MLOAD SWAP1 PUSH1 0x20 ADD KECCAK256 EQ ISZERO PUSH2 0xBE8 JUMPI DUP3 PUSH1 0x3 DUP4 DUP2 SLOAD DUP2 LT PUSH2 0xBC2 JUMPI PUSH2 0xBC2 PUSH2 0x2E8C JUMP JUMPDEST SWAP1 PUSH1 0x0 MSTORE PUSH1 0x20 PUSH1 0x0 KECCAK256 SWAP1 PUSH1 0x5 MUL ADD PUSH1 0x4 ADD SWAP1 DUP1 MLOAD SWAP1 PUSH1 0x20 ADD SWAP1 PUSH2 0xBE6 SWAP3 SWAP2 SWAP1 PUSH2 0x25A1 JUMP JUMPDEST POP JUMPDEST POP DUP1 PUSH2 0xBF3 DUP2 PUSH2 0x2E5B JUMP JUMPDEST SWAP2 POP POP PUSH2 0xA9F JUMP JUMPDEST POP POP POP JUMP JUMPDEST PUSH1 0x0 DUP1 PUSH1 0x0 PUSH1 0x1 DUP5 PUSH1 0x40 MLOAD PUSH2 0xC15 SWAP2 SWAP1 PUSH2 0x2A30 JUMP JUMPDEST SWAP1 DUP2 MSTORE PUSH1 0x40 DUP1 MLOAD PUSH1 0x20 SWAP3 DUP2 SWAP1 SUB DUP4 ADD SWAP1 KECCAK256 SLOAD PUSH1 0x1 PUSH1 0x1 PUSH1 0xA0 SHL SUB AND DUP4 MSTORE SWAP1 DUP3 ADD SWAP3 SWAP1 SWAP3 MSTORE ADD PUSH1 0x0 KECCAK256 PUSH1 0x3 ADD SLOAD PUSH1 0xFF AND SWAP3 SWAP2 POP POP JUMP JUMPDEST PUSH1 0x0 PUSH1 0x4 PUSH1 0x0 PUSH1 0x5 DUP5 PUSH1 0x40 MLOAD PUSH2 0x6C6 SWAP2 SWAP1 PUSH2 0x2A30 JUMP JUMPDEST PUSH1 0x60 PUSH1 0x0 DUP1 PUSH1 0x1 DUP5 PUSH1 0x40 MLOAD PUSH2 0xC75 SWAP2 SWAP1 PUSH2 0x2A30 JUMP JUMPDEST SWAP1 DUP2 MSTORE PUSH1 0x40 DUP1 MLOAD PUSH1 0x20 SWAP3 DUP2 SWAP1 SUB DUP4 ADD SWAP1 KECCAK256 SLOAD PUSH1 0x1 PUSH1 0x1 PUSH1 0xA0 SHL SUB AND DUP4 MSTORE SWAP1 DUP3 ADD SWAP3 SWAP1 SWAP3 MSTORE ADD PUSH1 0x0 KECCAK256 PUSH1 0x5 ADD DUP1 SLOAD PUSH2 0xCAB SWAP1 PUSH2 0x2E20 JUMP JUMPDEST DUP1 PUSH1 0x1F ADD PUSH1 0x20 DUP1 SWAP2 DIV MUL PUSH1 0x20 ADD PUSH1 0x40 MLOAD SWAP1 DUP2 ADD PUSH1 0x40 MSTORE DUP1 SWAP3 SWAP2 SWAP1 DUP2 DUP2 MSTORE PUSH1 0x20 ADD DUP3 DUP1 SLOAD PUSH2 0xCD7 SWAP1 PUSH2 0x2E20 JUMP JUMPDEST DUP1 ISZERO PUSH2 0xD24 JUMPI DUP1 PUSH1 0x1F LT PUSH2 0xCF9 JUMPI PUSH2 0x100 DUP1 DUP4 SLOAD DIV MUL DUP4 MSTORE SWAP2 PUSH1 0x20 ADD SWAP2 PUSH2 0xD24 JUMP JUMPDEST DUP3 ADD SWAP2 SWAP1 PUSH1 0x0 MSTORE PUSH1 0x20 PUSH1 0x0 KECCAK256 SWAP1 JUMPDEST DUP2 SLOAD DUP2 MSTORE SWAP1 PUSH1 0x1 ADD SWAP1 PUSH1 0x20 ADD DUP1 DUP4 GT PUSH2 0xD07 JUMPI DUP3 SWAP1 SUB PUSH1 0x1F AND DUP3 ADD SWAP2 JUMPDEST POP POP POP POP POP SWAP1 POP SWAP2 SWAP1 POP JUMP JUMPDEST PUSH1 0x0 DUP1 JUMPDEST PUSH1 0x9 SLOAD DUP2 LT ISZERO PUSH2 0xF1C JUMPI PUSH1 0x0 PUSH1 0x9 DUP3 DUP2 SLOAD DUP2 LT PUSH2 0xD53 JUMPI PUSH2 0xD53 PUSH2 0x2E8C JUMP JUMPDEST SWAP1 PUSH1 0x0 MSTORE PUSH1 0x20 PUSH1 0x0 KECCAK256 ADD DUP1 SLOAD PUSH2 0xD68 SWAP1 PUSH2 0x2E20 JUMP JUMPDEST DUP1 PUSH1 0x1F ADD PUSH1 0x20 DUP1 SWAP2 DIV MUL PUSH1 0x20 ADD PUSH1 0x40 MLOAD SWAP1 DUP2 ADD PUSH1 0x40 MSTORE DUP1 SWAP3 SWAP2 SWAP1 DUP2 DUP2 MSTORE PUSH1 0x20 ADD DUP3 DUP1 SLOAD PUSH2 0xD94 SWAP1 PUSH2 0x2E20 JUMP JUMPDEST DUP1 ISZERO PUSH2 0xDE1 JUMPI DUP1 PUSH1 0x1F LT PUSH2 0xDB6 JUMPI PUSH2 0x100 DUP1 DUP4 SLOAD DIV MUL DUP4 MSTORE SWAP2 PUSH1 0x20 ADD SWAP2 PUSH2 0xDE1 JUMP JUMPDEST DUP3 ADD SWAP2 SWAP1 PUSH1 0x0 MSTORE PUSH1 0x20 PUSH1 0x0 KECCAK256 SWAP1 JUMPDEST DUP2 SLOAD DUP2 MSTORE SWAP1 PUSH1 0x1 ADD SWAP1 PUSH1 0x20 ADD DUP1 DUP4 GT PUSH2 0xDC4 JUMPI DUP3 SWAP1 SUB PUSH1 0x1F AND DUP3 ADD SWAP2 JUMPDEST POP POP POP POP POP SWAP1 POP DUP4 PUSH1 0x40 MLOAD PUSH1 0x20 ADD PUSH2 0xDF9 SWAP2 SWAP1 PUSH2 0x2A30 JUMP JUMPDEST PUSH1 0x40 MLOAD PUSH1 0x20 DUP2 DUP4 SUB SUB DUP2 MSTORE SWAP1 PUSH1 0x40 MSTORE DUP1 MLOAD SWAP1 PUSH1 0x20 ADD KECCAK256 DUP2 PUSH1 0x40 MLOAD PUSH1 0x20 ADD PUSH2 0xE20 SWAP2 SWAP1 PUSH2 0x2A30 JUMP JUMPDEST PUSH1 0x40 MLOAD PUSH1 0x20 DUP2 DUP4 SUB SUB DUP2 MSTORE SWAP1 PUSH1 0x40 MSTORE DUP1 MLOAD SWAP1 PUSH1 0x20 ADD KECCAK256 EQ ISZERO PUSH2 0xF09 JUMPI PUSH1 0x40 DUP1 MLOAD PUSH1 0x60 DUP2 ADD DUP3 MSTORE CALLER DUP2 MSTORE PUSH1 0x20 DUP1 DUP3 ADD DUP8 DUP2 MSTORE PUSH1 0x1 SWAP4 DUP4 ADD DUP5 SWAP1 MSTORE PUSH1 0xC DUP1 SLOAD SWAP5 DUP6 ADD DUP2 SSTORE PUSH1 0x0 MSTORE DUP3 MLOAD PUSH32 0xDF6966C971051C3D54EC59162606531493A51404A002842F56009D7E5CF4A8C7 PUSH1 0x3 SWAP1 SWAP6 MUL SWAP5 DUP6 ADD DUP1 SLOAD PUSH1 0x1 PUSH1 0x1 PUSH1 0xA0 SHL SUB NOT AND PUSH1 0x1 PUSH1 0x1 PUSH1 0xA0 SHL SUB SWAP1 SWAP3 AND SWAP2 SWAP1 SWAP2 OR DUP2 SSTORE SWAP1 MLOAD DUP1 MLOAD SWAP4 SWAP5 SWAP2 SWAP4 PUSH2 0xEE8 SWAP4 PUSH32 0xDF6966C971051C3D54EC59162606531493A51404A002842F56009D7E5CF4A8C8 SWAP1 SWAP4 ADD SWAP3 SWAP2 SWAP1 SWAP2 ADD SWAP1 PUSH2 0x251D JUMP JUMPDEST POP PUSH1 0x40 SWAP2 SWAP1 SWAP2 ADD MLOAD PUSH1 0x2 SWAP1 SWAP2 ADD DUP1 SLOAD PUSH1 0xFF NOT AND SWAP2 ISZERO ISZERO SWAP2 SWAP1 SWAP2 OR SWAP1 SSTORE PUSH1 0x1 SWAP3 POP JUMPDEST POP DUP1 PUSH2 0xF14 DUP2 PUSH2 0x2E5B JUMP JUMPDEST SWAP2 POP POP PUSH2 0xD34 JUMP JUMPDEST POP PUSH1 0x1 DUP2 ISZERO ISZERO EQ PUSH2 0xF6F JUMPI PUSH1 0x40 MLOAD PUSH3 0x461BCD PUSH1 0xE5 SHL DUP2 MSTORE PUSH1 0x20 PUSH1 0x4 DUP3 ADD MSTORE PUSH1 0x1F PUSH1 0x24 DUP3 ADD MSTORE PUSH32 0x6572726F723A207468657265206973206E6F20737563682070726F6475637400 PUSH1 0x44 DUP3 ADD MSTORE PUSH1 0x64 ADD PUSH2 0x77C JUMP JUMPDEST POP POP JUMP JUMPDEST PUSH1 0x0 PUSH1 0x4 PUSH1 0x0 PUSH1 0x5 DUP5 PUSH1 0x40 MLOAD PUSH2 0xC15 SWAP2 SWAP1 PUSH2 0x2A30 JUMP JUMPDEST PUSH1 0x60 PUSH1 0x9 DUP1 SLOAD DUP1 PUSH1 0x20 MUL PUSH1 0x20 ADD PUSH1 0x40 MLOAD SWAP1 DUP2 ADD PUSH1 0x40 MSTORE DUP1 SWAP3 SWAP2 SWAP1 DUP2 DUP2 MSTORE PUSH1 0x20 ADD PUSH1 0x0 SWAP1 JUMPDEST DUP3 DUP3 LT ISZERO PUSH2 0xA93 JUMPI DUP4 DUP3 SWAP1 PUSH1 0x0 MSTORE PUSH1 0x20 PUSH1 0x0 KECCAK256 ADD DUP1 SLOAD PUSH2 0xFCC SWAP1 PUSH2 0x2E20 JUMP JUMPDEST DUP1 PUSH1 0x1F ADD PUSH1 0x20 DUP1 SWAP2 DIV MUL PUSH1 0x20 ADD PUSH1 0x40 MLOAD SWAP1 DUP2 ADD PUSH1 0x40 MSTORE DUP1 SWAP3 SWAP2 SWAP1 DUP2 DUP2 MSTORE PUSH1 0x20 ADD DUP3 DUP1 SLOAD PUSH2 0xFF8 SWAP1 PUSH2 0x2E20 JUMP JUMPDEST DUP1 ISZERO PUSH2 0x1045 JUMPI DUP1 PUSH1 0x1F LT PUSH2 0x101A JUMPI PUSH2 0x100 DUP1 DUP4 SLOAD DIV MUL DUP4 MSTORE SWAP2 PUSH1 0x20 ADD SWAP2 PUSH2 0x1045 JUMP JUMPDEST DUP3 ADD SWAP2 SWAP1 PUSH1 0x0 MSTORE PUSH1 0x20 PUSH1 0x0 KECCAK256 SWAP1 JUMPDEST DUP2 SLOAD DUP2 MSTORE SWAP1 PUSH1 0x1 ADD SWAP1 PUSH1 0x20 ADD DUP1 DUP4 GT PUSH2 0x1028 JUMPI DUP3 SWAP1 SUB PUSH1 0x1F AND DUP3 ADD SWAP2 JUMPDEST POP POP POP POP POP DUP2 MSTORE PUSH1 0x20 ADD SWAP1 PUSH1 0x1 ADD SWAP1 PUSH2 0xFAD JUMP JUMPDEST PUSH1 0x0 PUSH1 0x4 PUSH1 0x0 PUSH1 0x5 DUP5 PUSH1 0x40 MLOAD PUSH2 0x67F SWAP2 SWAP1 PUSH2 0x2A30 JUMP JUMPDEST PUSH1 0x0 DUP1 PUSH1 0x0 PUSH1 0x1 PUSH1 0x1 PUSH1 0xA0 SHL SUB AND PUSH1 0x5 DUP5 PUSH1 0x40 MLOAD PUSH2 0x108D SWAP2 SWAP1 PUSH2 0x2A30 JUMP JUMPDEST SWAP1 DUP2 MSTORE PUSH1 0x40 MLOAD SWAP1 DUP2 SWAP1 SUB PUSH1 0x20 ADD SWAP1 KECCAK256 SLOAD PUSH1 0x1 PUSH1 0x1 PUSH1 0xA0 SHL SUB AND EQ PUSH2 0x10DB JUMPI PUSH1 0x5 DUP4 PUSH1 0x40 MLOAD PUSH2 0x10BB SWAP2 SWAP1 PUSH2 0x2A30 JUMP JUMPDEST SWAP1 DUP2 MSTORE PUSH1 0x40 MLOAD SWAP1 DUP2 SWAP1 SUB PUSH1 0x20 ADD SWAP1 KECCAK256 SLOAD PUSH1 0x1 PUSH1 0x1 PUSH1 0xA0 SHL SUB AND SWAP1 POP PUSH2 0x1107 JUMP JUMPDEST PUSH1 0x1 DUP4 PUSH1 0x40 MLOAD PUSH2 0x10EB SWAP2 SWAP1 PUSH2 0x2A30 JUMP JUMPDEST SWAP1 DUP2 MSTORE PUSH1 0x40 MLOAD SWAP1 DUP2 SWAP1 SUB PUSH1 0x20 ADD SWAP1 KECCAK256 SLOAD PUSH1 0x1 PUSH1 0x1 PUSH1 0xA0 SHL SUB AND SWAP1 POP JUMPDEST SWAP3 SWAP2 POP POP JUMP JUMPDEST PUSH1 0x40 DUP1 MLOAD PUSH1 0x80 DUP2 ADD DUP3 MSTORE CALLER DUP2 MSTORE PUSH1 0x20 DUP2 ADD DUP4 SWAP1 MSTORE SWAP1 DUP2 ADD PUSH2 0x1136 DUP5 PUSH8 0xDE0B6B3A7640000 PUSH2 0x2DD5 JUMP JUMPDEST DUP2 MSTORE PUSH1 0x20 ADD PUSH1 0xD SLOAD DUP2 MSTORE POP PUSH1 0x8 DUP5 PUSH1 0x40 MLOAD PUSH2 0x1151 SWAP2 SWAP1 PUSH2 0x2A30 JUMP JUMPDEST SWAP1 DUP2 MSTORE PUSH1 0x40 MLOAD PUSH1 0x20 SWAP2 DUP2 SWAP1 SUB DUP3 ADD SWAP1 KECCAK256 DUP3 MLOAD DUP2 SLOAD PUSH1 0x1 PUSH1 0x1 PUSH1 0xA0 SHL SUB NOT AND PUSH1 0x1 PUSH1 0x1 PUSH1 0xA0 SHL SUB SWAP1 SWAP2 AND OR DUP2 SSTORE DUP3 DUP3 ADD MLOAD DUP1 MLOAD SWAP2 SWAP3 PUSH2 0x1197 SWAP3 PUSH1 0x1 DUP6 ADD SWAP3 SWAP1 SWAP2 ADD SWAP1 PUSH2 0x251D JUMP JUMPDEST POP PUSH1 0x40 DUP3 ADD MLOAD PUSH1 0x2 DUP3 ADD SSTORE PUSH1 0x60 SWAP1 SWAP2 ADD MLOAD PUSH1 0x3 SWAP1 SWAP2 ADD SSTORE PUSH1 0x9 DUP1 SLOAD PUSH1 0x1 DUP2 ADD DUP3 SSTORE PUSH1 0x0 SWAP2 SWAP1 SWAP2 MSTORE DUP4 MLOAD PUSH2 0x11F1 SWAP2 PUSH32 0x6E1540171B6C0C960B71A7020D9F60077F6AF931A8BBF590DA0223DACF75C7AF ADD SWAP1 PUSH1 0x20 DUP7 ADD SWAP1 PUSH2 0x251D JUMP JUMPDEST POP PUSH1 0xD DUP1 SLOAD SWAP1 PUSH1 0x0 PUSH2 0x1202 DUP4 PUSH2 0x2E5B JUMP JUMPDEST SWAP2 SWAP1 POP SSTORE POP POP POP POP JUMP JUMPDEST PUSH1 0xA DUP2 DUP2 SLOAD DUP2 LT PUSH2 0x121F JUMPI PUSH2 0x121F PUSH2 0x2E8C JUMP JUMPDEST PUSH1 0x0 SWAP2 DUP3 MSTORE PUSH1 0x20 SWAP1 SWAP2 KECCAK256 PUSH1 0x4 SWAP1 SWAP2 MUL ADD SLOAD PUSH1 0x1 PUSH1 0x1 PUSH1 0xA0 SHL SUB AND CALLER EQ PUSH2 0x1283 JUMPI PUSH1 0x40 MLOAD PUSH3 0x461BCD PUSH1 0xE5 SHL DUP2 MSTORE PUSH1 0x20 PUSH1 0x4 DUP3 ADD MSTORE PUSH1 0x19 PUSH1 0x24 DUP3 ADD MSTORE PUSH25 0x32B93937B91D103CB7B9103737BA1036B9B39739B2B73232B9 PUSH1 0x39 SHL PUSH1 0x44 DUP3 ADD MSTORE PUSH1 0x64 ADD PUSH2 0x77C JUMP JUMPDEST CALLER PUSH1 0x1 PUSH1 0x1 PUSH1 0xA0 SHL SUB AND PUSH2 0x8FC PUSH1 0xA DUP4 DUP2 SLOAD DUP2 LT PUSH2 0x12A3 JUMPI PUSH2 0x12A3 PUSH2 0x2E8C JUMP JUMPDEST SWAP1 PUSH1 0x0 MSTORE PUSH1 0x20 PUSH1 0x0 KECCAK256 SWAP1 PUSH1 0x4 MUL ADD PUSH1 0x2 ADD SLOAD SWAP1 DUP2 ISZERO MUL SWAP1 PUSH1 0x40 MLOAD PUSH1 0x0 PUSH1 0x40 MLOAD DUP1 DUP4 SUB DUP2 DUP6 DUP9 DUP9 CALL SWAP4 POP POP POP POP ISZERO DUP1 ISZERO PUSH2 0x12E0 JUMPI RETURNDATASIZE PUSH1 0x0 DUP1 RETURNDATACOPY RETURNDATASIZE PUSH1 0x0 REVERT JUMPDEST POP PUSH1 0x0 PUSH1 0xA DUP3 DUP2 SLOAD DUP2 LT PUSH2 0x12F6 JUMPI PUSH2 0x12F6 PUSH2 0x2E8C JUMP JUMPDEST PUSH1 0x0 SWAP2 DUP3 MSTORE PUSH1 0x20 SWAP1 SWAP2 KECCAK256 PUSH1 0x4 SWAP1 SWAP2 MUL ADD PUSH1 0x3 ADD DUP1 SLOAD PUSH1 0xFF NOT AND SWAP2 ISZERO ISZERO SWAP2 SWAP1 SWAP2 OR SWAP1 SSTORE POP JUMP JUMPDEST PUSH1 0xC DUP2 DUP2 SLOAD DUP2 LT PUSH2 0x132B JUMPI PUSH1 0x0 DUP1 REVERT JUMPDEST PUSH1 0x0 SWAP2 DUP3 MSTORE PUSH1 0x20 SWAP1 SWAP2 KECCAK256 PUSH1 0x3 SWAP1 SWAP2 MUL ADD DUP1 SLOAD PUSH1 0x1 DUP3 ADD DUP1 SLOAD PUSH1 0x1 PUSH1 0x1 PUSH1 0xA0 SHL SUB SWAP1 SWAP3 AND SWAP4 POP SWAP1 PUSH2 0x135A SWAP1 PUSH2 0x2E20 JUMP JUMPDEST DUP1 PUSH1 0x1F ADD PUSH1 0x20 DUP1 SWAP2 DIV MUL PUSH1 0x20 ADD PUSH1 0x40 MLOAD SWAP1 DUP2 ADD PUSH1 0x40 MSTORE DUP1 SWAP3 SWAP2 SWAP1 DUP2 DUP2 MSTORE PUSH1 0x20 ADD DUP3 DUP1 SLOAD PUSH2 0x1386 SWAP1 PUSH2 0x2E20 JUMP JUMPDEST DUP1 ISZERO PUSH2 0x13D3 JUMPI DUP1 PUSH1 0x1F LT PUSH2 0x13A8 JUMPI PUSH2 0x100 DUP1 DUP4 SLOAD DIV MUL DUP4 MSTORE SWAP2 PUSH1 0x20 ADD SWAP2 PUSH2 0x13D3 JUMP JUMPDEST DUP3 ADD SWAP2 SWAP1 PUSH1 0x0 MSTORE PUSH1 0x20 PUSH1 0x0 KECCAK256 SWAP1 JUMPDEST DUP2 SLOAD DUP2 MSTORE SWAP1 PUSH1 0x1 ADD SWAP1 PUSH1 0x20 ADD DUP1 DUP4 GT PUSH2 0x13B6 JUMPI DUP3 SWAP1 SUB PUSH1 0x1F AND DUP3 ADD SWAP2 JUMPDEST POP POP POP PUSH1 0x2 SWAP1 SWAP4 ADD SLOAD SWAP2 SWAP3 POP POP PUSH1 0xFF AND DUP4 JUMP JUMPDEST PUSH1 0x0 DUP1 PUSH1 0x1 DUP5 PUSH1 0x40 MLOAD PUSH2 0x13F9 SWAP2 SWAP1 PUSH2 0x2A30 JUMP JUMPDEST SWAP1 DUP2 MSTORE PUSH1 0x40 DUP1 MLOAD PUSH1 0x20 SWAP3 DUP2 SWAP1 SUB DUP4 ADD SWAP1 KECCAK256 SLOAD PUSH1 0x1 PUSH1 0x1 PUSH1 0xA0 SHL SUB AND DUP4 MSTORE SWAP1 DUP3 ADD SWAP3 SWAP1 SWAP3 MSTORE ADD PUSH1 0x0 KECCAK256 PUSH1 0x3 ADD SLOAD PUSH1 0xFF AND ISZERO PUSH2 0x1445 JUMPI PUSH1 0x40 MLOAD PUSH3 0x461BCD PUSH1 0xE5 SHL DUP2 MSTORE PUSH1 0x4 ADD PUSH2 0x77C SWAP1 PUSH2 0x2D34 JUMP JUMPDEST PUSH1 0x0 PUSH1 0x1 PUSH1 0x1 PUSH1 0xA0 SHL SUB AND PUSH1 0x1 DUP4 PUSH1 0x40 MLOAD PUSH2 0x1460 SWAP2 SWAP1 PUSH2 0x2A30 JUMP JUMPDEST SWAP1 DUP2 MSTORE PUSH1 0x40 MLOAD SWAP1 DUP2 SWAP1 SUB PUSH1 0x20 ADD SWAP1 KECCAK256 SLOAD PUSH1 0x1 PUSH1 0x1 PUSH1 0xA0 SHL SUB AND EQ ISZERO PUSH2 0x1497 JUMPI PUSH1 0x40 MLOAD PUSH3 0x461BCD PUSH1 0xE5 SHL DUP2 MSTORE PUSH1 0x4 ADD PUSH2 0x77C SWAP1 PUSH2 0x2CCA JUMP JUMPDEST DUP1 PUSH1 0x0 DUP1 PUSH1 0x1 DUP6 PUSH1 0x40 MLOAD PUSH2 0x14AB SWAP2 SWAP1 PUSH2 0x2A30 JUMP JUMPDEST SWAP1 DUP2 MSTORE PUSH1 0x40 DUP1 MLOAD PUSH1 0x20 SWAP3 DUP2 SWAP1 SUB DUP4 ADD SWAP1 KECCAK256 SLOAD PUSH1 0x1 PUSH1 0x1 PUSH1 0xA0 SHL SUB AND DUP4 MSTORE SWAP1 DUP3 ADD SWAP3 SWAP1 SWAP3 MSTORE ADD PUSH1 0x0 KECCAK256 PUSH1 0x1 ADD SLOAD EQ PUSH2 0x14F4 JUMPI PUSH1 0x40 MLOAD PUSH3 0x461BCD PUSH1 0xE5 SHL DUP2 MSTORE PUSH1 0x4 ADD PUSH2 0x77C SWAP1 PUSH2 0x2C99 JUMP JUMPDEST PUSH1 0x1 PUSH1 0x0 DUP1 PUSH1 0x1 DUP6 PUSH1 0x40 MLOAD PUSH2 0x1509 SWAP2 SWAP1 PUSH2 0x2A30 JUMP JUMPDEST SWAP1 DUP2 MSTORE PUSH1 0x40 DUP1 MLOAD PUSH1 0x20 SWAP3 DUP2 SWAP1 SUB DUP4 ADD SWAP1 KECCAK256 SLOAD PUSH1 0x1 PUSH1 0x1 PUSH1 0xA0 SHL SUB AND DUP4 MSTORE SWAP1 DUP3 ADD SWAP3 SWAP1 SWAP3 MSTORE ADD PUSH1 0x0 KECCAK256 PUSH1 0x3 ADD DUP1 SLOAD PUSH1 0xFF NOT AND SWAP2 ISZERO ISZERO SWAP2 SWAP1 SWAP2 OR SWAP1 SSTORE POP POP JUMP JUMPDEST PUSH1 0x0 DUP2 PUSH1 0x40 MLOAD PUSH1 0x20 ADD PUSH2 0x155A SWAP2 SWAP1 PUSH2 0x2A30 JUMP JUMPDEST PUSH1 0x40 MLOAD PUSH1 0x20 DUP2 DUP4 SUB SUB DUP2 MSTORE SWAP1 PUSH1 0x40 MSTORE DUP1 MLOAD SWAP1 PUSH1 0x20 ADD KECCAK256 SWAP1 POP SWAP2 SWAP1 POP JUMP JUMPDEST PUSH1 0x8 PUSH1 0xC DUP4 DUP2 SLOAD DUP2 LT PUSH2 0x158C JUMPI PUSH2 0x158C PUSH2 0x2E8C JUMP JUMPDEST SWAP1 PUSH1 0x0 MSTORE PUSH1 0x20 PUSH1 0x0 KECCAK256 SWAP1 PUSH1 0x3 MUL ADD PUSH1 0x1 ADD PUSH1 0x40 MLOAD PUSH2 0x15AA SWAP2 SWAP1 PUSH2 0x2A4C JUMP JUMPDEST SWAP1 DUP2 MSTORE PUSH1 0x40 MLOAD SWAP1 DUP2 SWAP1 SUB PUSH1 0x20 ADD SWAP1 KECCAK256 SLOAD CALLER PUSH1 0x1 PUSH1 0x1 PUSH1 0xA0 SHL SUB SWAP1 SWAP2 AND EQ PUSH2 0x15E3 JUMPI PUSH1 0x40 MLOAD PUSH3 0x461BCD PUSH1 0xE5 SHL DUP2 MSTORE PUSH1 0x4 ADD PUSH2 0x77C SWAP1 PUSH2 0x2CFD JUMP JUMPDEST PUSH1 0x1 DUP2 ISZERO ISZERO EQ ISZERO PUSH2 0x1683 JUMPI PUSH1 0xC DUP3 DUP2 SLOAD DUP2 LT PUSH2 0x1601 JUMPI PUSH2 0x1601 PUSH2 0x2E8C JUMP JUMPDEST PUSH1 0x0 SWAP2 DUP3 MSTORE PUSH1 0x20 DUP3 KECCAK256 PUSH1 0x3 SWAP1 SWAP2 MUL ADD SLOAD PUSH1 0x40 MLOAD PUSH1 0x1 PUSH1 0x1 PUSH1 0xA0 SHL SUB SWAP1 SWAP2 AND SWAP2 CALLVALUE DUP1 ISZERO PUSH2 0x8FC MUL SWAP3 SWAP1 SWAP2 DUP2 DUP2 DUP2 DUP6 DUP9 DUP9 CALL SWAP4 POP POP POP POP ISZERO DUP1 ISZERO PUSH2 0x1647 JUMPI RETURNDATASIZE PUSH1 0x0 DUP1 RETURNDATACOPY RETURNDATASIZE PUSH1 0x0 REVERT JUMPDEST POP PUSH1 0x0 PUSH1 0xC DUP4 DUP2 SLOAD DUP2 LT PUSH2 0x165D JUMPI PUSH2 0x165D PUSH2 0x2E8C JUMP JUMPDEST PUSH1 0x0 SWAP2 DUP3 MSTORE PUSH1 0x20 SWAP1 SWAP2 KECCAK256 PUSH1 0x3 SWAP1 SWAP2 MUL ADD PUSH1 0x2 ADD DUP1 SLOAD PUSH1 0xFF NOT AND SWAP2 ISZERO ISZERO SWAP2 SWAP1 SWAP2 OR SWAP1 SSTORE POP POP JUMP JUMPDEST DUP1 PUSH2 0xF6F JUMPI PUSH1 0x0 PUSH1 0xC DUP4 DUP2 SLOAD DUP2 LT PUSH2 0x165D JUMPI PUSH2 0x165D PUSH2 0x2E8C JUMP JUMPDEST PUSH1 0x0 PUSH1 0x20 DUP2 SWAP1 MSTORE SWAP1 DUP2 MSTORE PUSH1 0x40 SWAP1 KECCAK256 DUP1 SLOAD DUP2 SWAP1 PUSH2 0x16B8 SWAP1 PUSH2 0x2E20 JUMP JUMPDEST DUP1 PUSH1 0x1F ADD PUSH1 0x20 DUP1 SWAP2 DIV MUL PUSH1 0x20 ADD PUSH1 0x40 MLOAD SWAP1 DUP2 ADD PUSH1 0x40 MSTORE DUP1 SWAP3 SWAP2 SWAP1 DUP2 DUP2 MSTORE PUSH1 0x20 ADD DUP3 DUP1 SLOAD PUSH2 0x16E4 SWAP1 PUSH2 0x2E20 JUMP JUMPDEST DUP1 ISZERO PUSH2 0x1731 JUMPI DUP1 PUSH1 0x1F LT PUSH2 0x1706 JUMPI PUSH2 0x100 DUP1 DUP4 SLOAD DIV MUL DUP4 MSTORE SWAP2 PUSH1 0x20 ADD SWAP2 PUSH2 0x1731 JUMP JUMPDEST DUP3 ADD SWAP2 SWAP1 PUSH1 0x0 MSTORE PUSH1 0x20 PUSH1 0x0 KECCAK256 SWAP1 JUMPDEST DUP2 SLOAD DUP2 MSTORE SWAP1 PUSH1 0x1 ADD SWAP1 PUSH1 0x20 ADD DUP1 DUP4 GT PUSH2 0x1714 JUMPI DUP3 SWAP1 SUB PUSH1 0x1F AND DUP3 ADD SWAP2 JUMPDEST POP POP POP PUSH1 0x1 DUP5 ADD SLOAD PUSH1 0x2 DUP6 ADD SLOAD PUSH1 0x3 DUP7 ADD SLOAD PUSH1 0x4 DUP8 ADD DUP1 SLOAD SWAP7 SWAP8 SWAP4 SWAP7 SWAP3 SWAP6 POP PUSH1 0xFF SWAP1 SWAP2 AND SWAP4 POP SWAP1 PUSH2 0x1761 SWAP1 PUSH2 0x2E20 JUMP JUMPDEST DUP1 PUSH1 0x1F ADD PUSH1 0x20 DUP1 SWAP2 DIV MUL PUSH1 0x20 ADD PUSH1 0x40 MLOAD SWAP1 DUP2 ADD PUSH1 0x40 MSTORE DUP1 SWAP3 SWAP2 SWAP1 DUP2 DUP2 MSTORE PUSH1 0x20 ADD DUP3 DUP1 SLOAD PUSH2 0x178D SWAP1 PUSH2 0x2E20 JUMP JUMPDEST DUP1 ISZERO PUSH2 0x17DA JUMPI DUP1 PUSH1 0x1F LT PUSH2 0x17AF JUMPI PUSH2 0x100 DUP1 DUP4 SLOAD DIV MUL DUP4 MSTORE SWAP2 PUSH1 0x20 ADD SWAP2 PUSH2 0x17DA JUMP JUMPDEST DUP3 ADD SWAP2 SWAP1 PUSH1 0x0 MSTORE PUSH1 0x20 PUSH1 0x0 KECCAK256 SWAP1 JUMPDEST DUP2 SLOAD DUP2 MSTORE SWAP1 PUSH1 0x1 ADD SWAP1 PUSH1 0x20 ADD DUP1 DUP4 GT PUSH2 0x17BD JUMPI DUP3 SWAP1 SUB PUSH1 0x1F AND DUP3 ADD SWAP2 JUMPDEST POP POP POP POP POP SWAP1 DUP1 PUSH1 0x5 ADD DUP1 SLOAD PUSH2 0x17EF SWAP1 PUSH2 0x2E20 JUMP JUMPDEST DUP1 PUSH1 0x1F ADD PUSH1 0x20 DUP1 SWAP2 DIV MUL PUSH1 0x20 ADD PUSH1 0x40 MLOAD SWAP1 DUP2 ADD PUSH1 0x40 MSTORE DUP1 SWAP3 SWAP2 SWAP1 DUP2 DUP2 MSTORE PUSH1 0x20 ADD DUP3 DUP1 SLOAD PUSH2 0x181B SWAP1 PUSH2 0x2E20 JUMP JUMPDEST DUP1 ISZERO PUSH2 0x1868 JUMPI DUP1 PUSH1 0x1F LT PUSH2 0x183D JUMPI PUSH2 0x100 DUP1 DUP4 SLOAD DIV MUL DUP4 MSTORE SWAP2 PUSH1 0x20 ADD SWAP2 PUSH2 0x1868 JUMP JUMPDEST DUP3 ADD SWAP2 SWAP1 PUSH1 0x0 MSTORE PUSH1 0x20 PUSH1 0x0 KECCAK256 SWAP1 JUMPDEST DUP2 SLOAD DUP2 MSTORE SWAP1 PUSH1 0x1 ADD SWAP1 PUSH1 0x20 ADD DUP1 DUP4 GT PUSH2 0x184B JUMPI DUP3 SWAP1 SUB PUSH1 0x1F AND DUP3 ADD SWAP2 JUMPDEST POP POP POP POP POP SWAP1 DUP1 PUSH1 0x6 ADD SLOAD SWAP1 POP DUP8 JUMP JUMPDEST PUSH1 0x4 PUSH1 0x20 MSTORE PUSH1 0x0 SWAP1 DUP2 MSTORE PUSH1 0x40 SWAP1 KECCAK256 DUP1 SLOAD DUP2 SWAP1 PUSH2 0x1893 SWAP1 PUSH2 0x2E20 JUMP JUMPDEST DUP1 PUSH1 0x1F ADD PUSH1 0x20 DUP1 SWAP2 DIV MUL PUSH1 0x20 ADD PUSH1 0x40 MLOAD SWAP1 DUP2 ADD PUSH1 0x40 MSTORE DUP1 SWAP3 SWAP2 SWAP1 DUP2 DUP2 MSTORE PUSH1 0x20 ADD DUP3 DUP1 SLOAD PUSH2 0x18BF SWAP1 PUSH2 0x2E20 JUMP JUMPDEST DUP1 ISZERO PUSH2 0x190C JUMPI DUP1 PUSH1 0x1F LT PUSH2 0x18E1 JUMPI PUSH2 0x100 DUP1 DUP4 SLOAD DIV MUL DUP4 MSTORE SWAP2 PUSH1 0x20 ADD SWAP2 PUSH2 0x190C JUMP JUMPDEST DUP3 ADD SWAP2 SWAP1 PUSH1 0x0 MSTORE PUSH1 0x20 PUSH1 0x0 KECCAK256 SWAP1 JUMPDEST DUP2 SLOAD DUP2 MSTORE SWAP1 PUSH1 0x1 ADD SWAP1 PUSH1 0x20 ADD DUP1 DUP4 GT PUSH2 0x18EF JUMPI DUP3 SWAP1 SUB PUSH1 0x1F AND DUP3 ADD SWAP2 JUMPDEST POP POP POP POP PUSH1 0x1 DUP4 ADD SLOAD PUSH1 0x2 DUP5 ADD SLOAD PUSH1 0x3 SWAP1 SWAP5 ADD SLOAD SWAP3 SWAP4 SWAP1 SWAP3 SWAP1 SWAP2 POP PUSH1 0xFF AND DUP5 JUMP JUMPDEST PUSH1 0x8 PUSH1 0xB DUP4 DUP2 SLOAD DUP2 LT PUSH2 0x1942 JUMPI PUSH2 0x1942 PUSH2 0x2E8C JUMP JUMPDEST SWAP1 PUSH1 0x0 MSTORE PUSH1 0x20 PUSH1 0x0 KECCAK256 SWAP1 PUSH1 0x3 MUL ADD PUSH1 0x1 ADD PUSH1 0x40 MLOAD PUSH2 0x1960 SWAP2 SWAP1 PUSH2 0x2A4C JUMP JUMPDEST SWAP1 DUP2 MSTORE PUSH1 0x40 MLOAD SWAP1 DUP2 SWAP1 SUB PUSH1 0x20 ADD SWAP1 KECCAK256 SLOAD CALLER PUSH1 0x1 PUSH1 0x1 PUSH1 0xA0 SHL SUB SWAP1 SWAP2 AND EQ PUSH2 0x1999 JUMPI PUSH1 0x40 MLOAD PUSH3 0x461BCD PUSH1 0xE5 SHL DUP2 MSTORE PUSH1 0x4 ADD PUSH2 0x77C SWAP1 PUSH2 0x2CFD JUMP JUMPDEST DUP1 PUSH1 0x1 EQ ISZERO PUSH2 0x1A11 JUMPI PUSH1 0xB DUP3 DUP2 SLOAD DUP2 LT PUSH2 0x19B5 JUMPI PUSH2 0x19B5 PUSH2 0x2E8C JUMP JUMPDEST PUSH1 0x0 SWAP2 DUP3 MSTORE PUSH1 0x20 DUP3 KECCAK256 PUSH1 0x3 SWAP1 SWAP2 MUL ADD SLOAD PUSH1 0x40 MLOAD PUSH1 0x1 PUSH1 0x1 PUSH1 0xA0 SHL SUB SWAP1 SWAP2 AND SWAP2 CALLVALUE DUP1 ISZERO PUSH2 0x8FC MUL SWAP3 SWAP1 SWAP2 DUP2 DUP2 DUP2 DUP6 DUP9 DUP9 CALL SWAP4 POP POP POP POP ISZERO DUP1 ISZERO PUSH2 0x19FB JUMPI RETURNDATASIZE PUSH1 0x0 DUP1 RETURNDATACOPY RETURNDATASIZE PUSH1 0x0 REVERT JUMPDEST POP PUSH1 0x0 PUSH1 0xB DUP4 DUP2 SLOAD DUP2 LT PUSH2 0x165D JUMPI PUSH2 0x165D PUSH2 0x2E8C JUMP JUMPDEST DUP1 PUSH2 0xF6F JUMPI PUSH1 0x0 PUSH1 0xB DUP4 DUP2 SLOAD DUP2 LT PUSH2 0x165D JUMPI PUSH2 0x165D PUSH2 0x2E8C JUMP JUMPDEST PUSH1 0x0 DUP1 DUP1 DUP1 JUMPDEST PUSH1 0x2 SLOAD DUP2 LT ISZERO PUSH2 0x1C16 JUMPI PUSH1 0x0 PUSH1 0x2 DUP3 DUP2 SLOAD DUP2 LT PUSH2 0x1A50 JUMPI PUSH2 0x1A50 PUSH2 0x2E8C JUMP JUMPDEST SWAP1 PUSH1 0x0 MSTORE PUSH1 0x20 PUSH1 0x0 KECCAK256 ADD DUP1 SLOAD PUSH2 0x1A65 SWAP1 PUSH2 0x2E20 JUMP JUMPDEST DUP1 PUSH1 0x1F ADD PUSH1 0x20 DUP1 SWAP2 DIV MUL PUSH1 0x20 ADD PUSH1 0x40 MLOAD SWAP1 DUP2 ADD PUSH1 0x40 MSTORE DUP1 SWAP3 SWAP2 SWAP1 DUP2 DUP2 MSTORE PUSH1 0x20 ADD DUP3 DUP1 SLOAD PUSH2 0x1A91 SWAP1 PUSH2 0x2E20 JUMP JUMPDEST DUP1 ISZERO PUSH2 0x1ADE JUMPI DUP1 PUSH1 0x1F LT PUSH2 0x1AB3 JUMPI PUSH2 0x100 DUP1 DUP4 SLOAD DIV MUL DUP4 MSTORE SWAP2 PUSH1 0x20 ADD SWAP2 PUSH2 0x1ADE JUMP JUMPDEST DUP3 ADD SWAP2 SWAP1 PUSH1 0x0 MSTORE PUSH1 0x20 PUSH1 0x0 KECCAK256 SWAP1 JUMPDEST DUP2 SLOAD DUP2 MSTORE SWAP1 PUSH1 0x1 ADD SWAP1 PUSH1 0x20 ADD DUP1 DUP4 GT PUSH2 0x1AC1 JUMPI DUP3 SWAP1 SUB PUSH1 0x1F AND DUP3 ADD SWAP2 JUMPDEST POP POP POP POP POP SWAP1 POP DUP6 PUSH1 0x40 MLOAD PUSH1 0x20 ADD PUSH2 0x1AF6 SWAP2 SWAP1 PUSH2 0x2A30 JUMP JUMPDEST PUSH1 0x40 MLOAD PUSH1 0x20 DUP2 DUP4 SUB SUB DUP2 MSTORE SWAP1 PUSH1 0x40 MSTORE DUP1 MLOAD SWAP1 PUSH1 0x20 ADD KECCAK256 DUP2 PUSH1 0x40 MLOAD PUSH1 0x20 ADD PUSH2 0x1B1D SWAP2 SWAP1 PUSH2 0x2A30 JUMP JUMPDEST PUSH1 0x40 MLOAD PUSH1 0x20 DUP2 DUP4 SUB SUB DUP2 MSTORE SWAP1 PUSH1 0x40 MSTORE DUP1 MLOAD SWAP1 PUSH1 0x20 ADD KECCAK256 EQ ISZERO PUSH2 0x1C03 JUMPI PUSH1 0x0 SWAP2 POP JUMPDEST PUSH1 0x3 SLOAD DUP3 GT PUSH2 0x1C03 JUMPI PUSH1 0x3 DUP3 DUP2 SLOAD DUP2 LT PUSH2 0x1B5A JUMPI PUSH2 0x1B5A PUSH2 0x2E8C JUMP JUMPDEST SWAP1 PUSH1 0x0 MSTORE PUSH1 0x20 PUSH1 0x0 KECCAK256 SWAP1 PUSH1 0x5 MUL ADD PUSH1 0x0 ADD PUSH1 0x40 MLOAD PUSH1 0x20 ADD PUSH2 0x1B7B SWAP2 SWAP1 PUSH2 0x2A4C JUMP JUMPDEST PUSH1 0x40 MLOAD PUSH1 0x20 DUP2 DUP4 SUB SUB DUP2 MSTORE SWAP1 PUSH1 0x40 MSTORE DUP1 MLOAD SWAP1 PUSH1 0x20 ADD KECCAK256 DUP7 PUSH1 0x40 MLOAD PUSH1 0x20 ADD PUSH2 0x1BA2 SWAP2 SWAP1 PUSH2 0x2A30 JUMP JUMPDEST PUSH1 0x40 MLOAD PUSH1 0x20 DUP2 DUP4 SUB SUB DUP2 MSTORE SWAP1 PUSH1 0x40 MSTORE DUP1 MLOAD SWAP1 PUSH1 0x20 ADD KECCAK256 EQ ISZERO PUSH2 0x1BF1 JUMPI PUSH1 0x3 DUP3 DUP2 SLOAD DUP2 LT PUSH2 0x1BD1 JUMPI PUSH2 0x1BD1 PUSH2 0x2E8C JUMP JUMPDEST SWAP1 PUSH1 0x0 MSTORE PUSH1 0x20 PUSH1 0x0 KECCAK256 SWAP1 PUSH1 0x5 MUL ADD PUSH1 0x3 ADD SLOAD DUP4 PUSH2 0x1BEE SWAP2 SWAP1 PUSH2 0x2D9B JUMP JUMPDEST SWAP3 POP JUMPDEST DUP2 PUSH2 0x1BFB DUP2 PUSH2 0x2E5B JUMP JUMPDEST SWAP3 POP POP PUSH2 0x1B3E JUMP JUMPDEST POP DUP1 PUSH2 0x1C0E DUP2 PUSH2 0x2E5B JUMP JUMPDEST SWAP2 POP POP PUSH2 0x1A31 JUMP JUMPDEST POP PUSH2 0x1C21 DUP3 DUP3 PUSH2 0x2DB3 JUMP JUMPDEST PUSH2 0x1C2B SWAP1 DUP3 PUSH2 0x2D9B JUMP JUMPDEST SWAP5 SWAP4 POP POP POP POP JUMP JUMPDEST PUSH1 0xB DUP2 DUP2 SLOAD DUP2 LT PUSH2 0x132B JUMPI PUSH1 0x0 DUP1 REVERT JUMPDEST PUSH1 0x0 DUP1 JUMPDEST PUSH1 0x9 SLOAD DUP2 LT ISZERO PUSH2 0xF1C JUMPI PUSH1 0x0 PUSH1 0x9 DUP3 DUP2 SLOAD DUP2 LT PUSH2 0x1C66 JUMPI PUSH2 0x1C66 PUSH2 0x2E8C JUMP JUMPDEST SWAP1 PUSH1 0x0 MSTORE PUSH1 0x20 PUSH1 0x0 KECCAK256 ADD DUP1 SLOAD PUSH2 0x1C7B SWAP1 PUSH2 0x2E20 JUMP JUMPDEST DUP1 PUSH1 0x1F ADD PUSH1 0x20 DUP1 SWAP2 DIV MUL PUSH1 0x20 ADD PUSH1 0x40 MLOAD SWAP1 DUP2 ADD PUSH1 0x40 MSTORE DUP1 SWAP3 SWAP2 SWAP1 DUP2 DUP2 MSTORE PUSH1 0x20 ADD DUP3 DUP1 SLOAD PUSH2 0x1CA7 SWAP1 PUSH2 0x2E20 JUMP JUMPDEST DUP1 ISZERO PUSH2 0x1CF4 JUMPI DUP1 PUSH1 0x1F LT PUSH2 0x1CC9 JUMPI PUSH2 0x100 DUP1 DUP4 SLOAD DIV MUL DUP4 MSTORE SWAP2 PUSH1 0x20 ADD SWAP2 PUSH2 0x1CF4 JUMP JUMPDEST DUP3 ADD SWAP2 SWAP1 PUSH1 0x0 MSTORE PUSH1 0x20 PUSH1 0x0 KECCAK256 SWAP1 JUMPDEST DUP2 SLOAD DUP2 MSTORE SWAP1 PUSH1 0x1 ADD SWAP1 PUSH1 0x20 ADD DUP1 DUP4 GT PUSH2 0x1CD7 JUMPI DUP3 SWAP1 SUB PUSH1 0x1F AND DUP3 ADD SWAP2 JUMPDEST POP POP POP POP POP SWAP1 POP DUP4 PUSH1 0x40 MLOAD PUSH1 0x20 ADD PUSH2 0x1D0C SWAP2 SWAP1 PUSH2 0x2A30 JUMP JUMPDEST PUSH1 0x40 MLOAD PUSH1 0x20 DUP2 DUP4 SUB SUB DUP2 MSTORE SWAP1 PUSH1 0x40 MSTORE DUP1 MLOAD SWAP1 PUSH1 0x20 ADD KECCAK256 DUP2 PUSH1 0x40 MLOAD PUSH1 0x20 ADD PUSH2 0x1D33 SWAP2 SWAP1 PUSH2 0x2A30 JUMP JUMPDEST PUSH1 0x40 MLOAD PUSH1 0x20 DUP2 DUP4 SUB SUB DUP2 MSTORE SWAP1 PUSH1 0x40 MSTORE DUP1 MLOAD SWAP1 PUSH1 0x20 ADD KECCAK256 EQ ISZERO PUSH2 0x1E1C JUMPI PUSH1 0x40 DUP1 MLOAD PUSH1 0x60 DUP2 ADD DUP3 MSTORE CALLER DUP2 MSTORE PUSH1 0x20 DUP1 DUP3 ADD DUP8 DUP2 MSTORE PUSH1 0x1 SWAP4 DUP4 ADD DUP5 SWAP1 MSTORE PUSH1 0xB DUP1 SLOAD SWAP5 DUP6 ADD DUP2 SSTORE PUSH1 0x0 MSTORE DUP3 MLOAD PUSH32 0x175B7A638427703F0DBE7BB9BBF987A2551717B34E79F33B5B1008D1FA01DB9 PUSH1 0x3 SWAP1 SWAP6 MUL SWAP5 DUP6 ADD DUP1 SLOAD PUSH1 0x1 PUSH1 0x1 PUSH1 0xA0 SHL SUB NOT AND PUSH1 0x1 PUSH1 0x1 PUSH1 0xA0 SHL SUB SWAP1 SWAP3 AND SWAP2 SWAP1 SWAP2 OR DUP2 SSTORE SWAP1 MLOAD DUP1 MLOAD SWAP4 SWAP5 SWAP2 SWAP4 PUSH2 0x1DFB SWAP4 PUSH32 0x175B7A638427703F0DBE7BB9BBF987A2551717B34E79F33B5B1008D1FA01DBA SWAP1 SWAP4 ADD SWAP3 SWAP2 SWAP1 SWAP2 ADD SWAP1 PUSH2 0x251D JUMP JUMPDEST POP PUSH1 0x40 SWAP2 SWAP1 SWAP2 ADD MLOAD PUSH1 0x2 SWAP1 SWAP2 ADD DUP1 SLOAD PUSH1 0xFF NOT AND SWAP2 ISZERO ISZERO SWAP2 SWAP1 SWAP2 OR SWAP1 SSTORE PUSH1 0x1 SWAP3 POP JUMPDEST POP DUP1 PUSH2 0x1E27 DUP2 PUSH2 0x2E5B JUMP JUMPDEST SWAP2 POP POP PUSH2 0x1C47 JUMP JUMPDEST PUSH1 0xA DUP2 GT ISZERO PUSH2 0x1E8A JUMPI PUSH1 0x40 MLOAD PUSH3 0x461BCD PUSH1 0xE5 SHL DUP2 MSTORE PUSH1 0x20 PUSH1 0x4 DUP3 ADD MSTORE PUSH1 0x21 PUSH1 0x24 DUP3 ADD MSTORE PUSH32 0x6572726F723A20726174696E672063616E2062652066726F6D203120746F2031 PUSH1 0x44 DUP3 ADD MSTORE PUSH1 0x3 PUSH1 0xFC SHL PUSH1 0x64 DUP3 ADD MSTORE PUSH1 0x84 ADD PUSH2 0x77C JUMP JUMPDEST PUSH1 0x0 JUMPDEST PUSH1 0x2 SLOAD DUP2 GT PUSH2 0x20FD JUMPI PUSH1 0x0 PUSH1 0x2 DUP3 DUP2 SLOAD DUP2 LT PUSH2 0x1EAB JUMPI PUSH2 0x1EAB PUSH2 0x2E8C JUMP JUMPDEST SWAP1 PUSH1 0x0 MSTORE PUSH1 0x20 PUSH1 0x0 KECCAK256 ADD DUP1 SLOAD PUSH2 0x1EC0 SWAP1 PUSH2 0x2E20 JUMP JUMPDEST DUP1 PUSH1 0x1F ADD PUSH1 0x20 DUP1 SWAP2 DIV MUL PUSH1 0x20 ADD PUSH1 0x40 MLOAD SWAP1 DUP2 ADD PUSH1 0x40 MSTORE DUP1 SWAP3 SWAP2 SWAP1 DUP2 DUP2 MSTORE PUSH1 0x20 ADD DUP3 DUP1 SLOAD PUSH2 0x1EEC SWAP1 PUSH2 0x2E20 JUMP JUMPDEST DUP1 ISZERO PUSH2 0x1F39 JUMPI DUP1 PUSH1 0x1F LT PUSH2 0x1F0E JUMPI PUSH2 0x100 DUP1 DUP4 SLOAD DIV MUL DUP4 MSTORE SWAP2 PUSH1 0x20 ADD SWAP2 PUSH2 0x1F39 JUMP JUMPDEST DUP3 ADD SWAP2 SWAP1 PUSH1 0x0 MSTORE PUSH1 0x20 PUSH1 0x0 KECCAK256 SWAP1 JUMPDEST DUP2 SLOAD DUP2 MSTORE SWAP1 PUSH1 0x1 ADD SWAP1 PUSH1 0x20 ADD DUP1 DUP4 GT PUSH2 0x1F1C JUMPI DUP3 SWAP1 SUB PUSH1 0x1F AND DUP3 ADD SWAP2 JUMPDEST POP POP POP POP POP SWAP1 POP DUP5 PUSH1 0x40 MLOAD PUSH1 0x20 ADD PUSH2 0x1F51 SWAP2 SWAP1 PUSH2 0x2A30 JUMP JUMPDEST PUSH1 0x40 MLOAD PUSH1 0x20 DUP2 DUP4 SUB SUB DUP2 MSTORE SWAP1 PUSH1 0x40 MSTORE DUP1 MLOAD SWAP1 PUSH1 0x20 ADD KECCAK256 DUP2 PUSH1 0x40 MLOAD PUSH1 0x20 ADD PUSH2 0x1F78 SWAP2 SWAP1 PUSH2 0x2A30 JUMP JUMPDEST PUSH1 0x40 MLOAD PUSH1 0x20 DUP2 DUP4 SUB SUB DUP2 MSTORE SWAP1 PUSH1 0x40 MSTORE DUP1 MLOAD SWAP1 PUSH1 0x20 ADD KECCAK256 EQ ISZERO PUSH2 0x20EA JUMPI PUSH1 0x40 DUP1 MLOAD PUSH1 0xA0 DUP2 ADD DUP3 MSTORE DUP7 DUP2 MSTORE CALLER PUSH1 0x0 SWAP1 DUP2 MSTORE PUSH1 0x4 PUSH1 0x20 SWAP1 DUP2 MSTORE SWAP3 SWAP1 KECCAK256 DUP1 SLOAD PUSH1 0x60 SWAP4 PUSH1 0x3 SWAP4 SWAP3 SWAP1 DUP4 ADD SWAP2 PUSH2 0x1FC7 SWAP1 PUSH2 0x2E20 JUMP JUMPDEST DUP1 PUSH1 0x1F ADD PUSH1 0x20 DUP1 SWAP2 DIV MUL PUSH1 0x20 ADD PUSH1 0x40 MLOAD SWAP1 DUP2 ADD PUSH1 0x40 MSTORE DUP1 SWAP3 SWAP2 SWAP1 DUP2 DUP2 MSTORE PUSH1 0x20 ADD DUP3 DUP1 SLOAD PUSH2 0x1FF3 SWAP1 PUSH2 0x2E20 JUMP JUMPDEST DUP1 ISZERO PUSH2 0x2040 JUMPI DUP1 PUSH1 0x1F LT PUSH2 0x2015 JUMPI PUSH2 0x100 DUP1 DUP4 SLOAD DIV MUL DUP4 MSTORE SWAP2 PUSH1 0x20 ADD SWAP2 PUSH2 0x2040 JUMP JUMPDEST DUP3 ADD SWAP2 SWAP1 PUSH1 0x0 MSTORE PUSH1 0x20 PUSH1 0x0 KECCAK256 SWAP1 JUMPDEST DUP2 SLOAD DUP2 MSTORE SWAP1 PUSH1 0x1 ADD SWAP1 PUSH1 0x20 ADD DUP1 DUP4 GT PUSH2 0x2023 JUMPI DUP3 SWAP1 SUB PUSH1 0x1F AND DUP3 ADD SWAP2 JUMPDEST POP POP POP SWAP2 DUP4 MSTORE POP POP PUSH1 0x20 DUP1 DUP3 ADD DUP10 SWAP1 MSTORE PUSH1 0x40 DUP3 ADD DUP9 SWAP1 MSTORE PUSH1 0x60 SWAP1 SWAP2 ADD DUP5 SWAP1 MSTORE DUP3 SLOAD PUSH1 0x1 DUP2 ADD DUP5 SSTORE PUSH1 0x0 SWAP4 DUP5 MSTORE SWAP3 DUP2 SWAP1 KECCAK256 DUP3 MLOAD DUP1 MLOAD SWAP4 SWAP5 PUSH1 0x5 MUL SWAP1 SWAP2 ADD SWAP3 PUSH2 0x208A SWAP3 DUP5 SWAP3 ADD SWAP1 PUSH2 0x251D JUMP JUMPDEST POP PUSH1 0x20 DUP3 DUP2 ADD MLOAD DUP1 MLOAD PUSH2 0x20A3 SWAP3 PUSH1 0x1 DUP6 ADD SWAP3 ADD SWAP1 PUSH2 0x251D JUMP JUMPDEST POP PUSH1 0x40 DUP3 ADD MLOAD DUP1 MLOAD PUSH2 0x20BF SWAP2 PUSH1 0x2 DUP5 ADD SWAP2 PUSH1 0x20 SWAP1 SWAP2 ADD SWAP1 PUSH2 0x251D JUMP JUMPDEST POP PUSH1 0x60 DUP3 ADD MLOAD PUSH1 0x3 DUP3 ADD SSTORE PUSH1 0x80 DUP3 ADD MLOAD DUP1 MLOAD PUSH2 0x20E5 SWAP2 PUSH1 0x4 DUP5 ADD SWAP2 PUSH1 0x20 SWAP1 SWAP2 ADD SWAP1 PUSH2 0x25A1 JUMP JUMPDEST POP POP POP POP JUMPDEST POP DUP1 PUSH2 0x20F5 DUP2 PUSH2 0x2E5B JUMP JUMPDEST SWAP2 POP POP PUSH2 0x1E8D JUMP JUMPDEST POP POP POP POP JUMP JUMPDEST PUSH1 0x4 PUSH1 0x0 PUSH1 0x5 DUP5 PUSH1 0x40 MLOAD PUSH2 0x2117 SWAP2 SWAP1 PUSH2 0x2A30 JUMP JUMPDEST SWAP1 DUP2 MSTORE PUSH1 0x40 DUP1 MLOAD PUSH1 0x20 SWAP3 DUP2 SWAP1 SUB DUP4 ADD SWAP1 KECCAK256 SLOAD PUSH1 0x1 PUSH1 0x1 PUSH1 0xA0 SHL SUB AND DUP4 MSTORE SWAP1 DUP3 ADD SWAP3 SWAP1 SWAP3 MSTORE ADD PUSH1 0x0 KECCAK256 PUSH1 0x3 ADD SLOAD PUSH1 0xFF AND ISZERO PUSH2 0x2163 JUMPI PUSH1 0x40 MLOAD PUSH3 0x461BCD PUSH1 0xE5 SHL DUP2 MSTORE PUSH1 0x4 ADD PUSH2 0x77C SWAP1 PUSH2 0x2D34 JUMP JUMPDEST PUSH1 0x0 PUSH1 0x1 PUSH1 0x1 PUSH1 0xA0 SHL SUB AND PUSH1 0x5 DUP4 PUSH1 0x40 MLOAD PUSH2 0x217E SWAP2 SWAP1 PUSH2 0x2A30 JUMP JUMPDEST SWAP1 DUP2 MSTORE PUSH1 0x40 MLOAD SWAP1 DUP2 SWAP1 SUB PUSH1 0x20 ADD SWAP1 KECCAK256 SLOAD PUSH1 0x1 PUSH1 0x1 PUSH1 0xA0 SHL SUB AND EQ ISZERO PUSH2 0x21B5 JUMPI PUSH1 0x40 MLOAD PUSH3 0x461BCD PUSH1 0xE5 SHL DUP2 MSTORE PUSH1 0x4 ADD PUSH2 0x77C SWAP1 PUSH2 0x2CCA JUMP JUMPDEST DUP1 PUSH1 0x4 PUSH1 0x0 PUSH1 0x5 DUP6 PUSH1 0x40 MLOAD PUSH2 0x21CA SWAP2 SWAP1 PUSH2 0x2A30 JUMP JUMPDEST SWAP1 DUP2 MSTORE PUSH1 0x40 DUP1 MLOAD PUSH1 0x20 SWAP3 DUP2 SWAP1 SUB DUP4 ADD SWAP1 KECCAK256 SLOAD PUSH1 0x1 PUSH1 0x1 PUSH1 0xA0 SHL SUB AND DUP4 MSTORE SWAP1 DUP3 ADD SWAP3 SWAP1 SWAP3 MSTORE ADD PUSH1 0x0 KECCAK256 PUSH1 0x1 ADD SLOAD EQ PUSH2 0x2213 JUMPI PUSH1 0x40 MLOAD PUSH3 0x461BCD PUSH1 0xE5 SHL DUP2 MSTORE PUSH1 0x4 ADD PUSH2 0x77C SWAP1 PUSH2 0x2C99 JUMP JUMPDEST PUSH1 0x1 PUSH1 0x4 PUSH1 0x0 PUSH1 0x5 DUP6 PUSH1 0x40 MLOAD PUSH2 0x1509 SWAP2 SWAP1 PUSH2 0x2A30 JUMP JUMPDEST DUP1 MLOAD PUSH1 0x20 DUP2 DUP4 ADD DUP2 ADD DUP1 MLOAD PUSH1 0x8 DUP3 MSTORE SWAP3 DUP3 ADD SWAP2 SWAP1 SWAP4 ADD KECCAK256 SWAP2 MSTORE DUP1 SLOAD PUSH1 0x1 DUP3 ADD DUP1 SLOAD PUSH1 0x1 PUSH1 0x1 PUSH1 0xA0 SHL SUB SWAP1 SWAP3 AND SWAP3 SWAP2 PUSH2 0x2260 SWAP1 PUSH2 0x2E20 JUMP JUMPDEST DUP1 PUSH1 0x1F ADD PUSH1 0x20 DUP1 SWAP2 DIV MUL PUSH1 0x20 ADD PUSH1 0x40 MLOAD SWAP1 DUP2 ADD PUSH1 0x40 MSTORE DUP1 SWAP3 SWAP2 SWAP1 DUP2 DUP2 MSTORE PUSH1 0x20 ADD DUP3 DUP1 SLOAD PUSH2 0x228C SWAP1 PUSH2 0x2E20 JUMP JUMPDEST DUP1 ISZERO PUSH2 0x22D9 JUMPI DUP1 PUSH1 0x1F LT PUSH2 0x22AE JUMPI PUSH2 0x100 DUP1 DUP4 SLOAD DIV MUL DUP4 MSTORE SWAP2 PUSH1 0x20 ADD SWAP2 PUSH2 0x22D9 JUMP JUMPDEST DUP3 ADD SWAP2 SWAP1 PUSH1 0x0 MSTORE PUSH1 0x20 PUSH1 0x0 KECCAK256 SWAP1 JUMPDEST DUP2 SLOAD DUP2 MSTORE SWAP1 PUSH1 0x1 ADD SWAP1 PUSH1 0x20 ADD DUP1 DUP4 GT PUSH2 0x22BC JUMPI DUP3 SWAP1 SUB PUSH1 0x1F AND DUP3 ADD SWAP2 JUMPDEST POP POP POP POP POP SWAP1 DUP1 PUSH1 0x2 ADD SLOAD SWAP1 DUP1 PUSH1 0x3 ADD SLOAD SWAP1 POP DUP5 JUMP JUMPDEST PUSH1 0xA DUP2 DUP2 SLOAD DUP2 LT PUSH2 0x22FF JUMPI PUSH1 0x0 DUP1 REVERT JUMPDEST PUSH1 0x0 SWAP2 DUP3 MSTORE PUSH1 0x20 SWAP1 SWAP2 KECCAK256 PUSH1 0x4 SWAP1 SWAP2 MUL ADD DUP1 SLOAD PUSH1 0x1 DUP3 ADD DUP1 SLOAD PUSH1 0x1 PUSH1 0x1 PUSH1 0xA0 SHL SUB SWAP1 SWAP3 AND SWAP4 POP SWAP1 PUSH2 0x232E SWAP1 PUSH2 0x2E20 JUMP JUMPDEST DUP1 PUSH1 0x1F ADD PUSH1 0x20 DUP1 SWAP2 DIV MUL PUSH1 0x20 ADD PUSH1 0x40 MLOAD SWAP1 DUP2 ADD PUSH1 0x40 MSTORE DUP1 SWAP3 SWAP2 SWAP1 DUP2 DUP2 MSTORE PUSH1 0x20 ADD DUP3 DUP1 SLOAD PUSH2 0x235A SWAP1 PUSH2 0x2E20 JUMP JUMPDEST DUP1 ISZERO PUSH2 0x23A7 JUMPI DUP1 PUSH1 0x1F LT PUSH2 0x237C JUMPI PUSH2 0x100 DUP1 DUP4 SLOAD DIV MUL DUP4 MSTORE SWAP2 PUSH1 0x20 ADD SWAP2 PUSH2 0x23A7 JUMP JUMPDEST DUP3 ADD SWAP2 SWAP1 PUSH1 0x0 MSTORE PUSH1 0x20 PUSH1 0x0 KECCAK256 SWAP1 JUMPDEST DUP2 SLOAD DUP2 MSTORE SWAP1 PUSH1 0x1 ADD SWAP1 PUSH1 0x20 ADD DUP1 DUP4 GT PUSH2 0x238A JUMPI DUP3 SWAP1 SUB PUSH1 0x1F AND DUP3 ADD SWAP2 JUMPDEST POP POP POP POP PUSH1 0x2 DUP4 ADD SLOAD PUSH1 0x3 SWAP1 SWAP4 ADD SLOAD SWAP2 SWAP3 SWAP2 PUSH1 0xFF AND SWAP1 POP DUP5 JUMP JUMPDEST PUSH1 0x8 PUSH1 0xA DUP4 DUP2 SLOAD DUP2 LT PUSH2 0x23D6 JUMPI PUSH2 0x23D6 PUSH2 0x2E8C JUMP JUMPDEST SWAP1 PUSH1 0x0 MSTORE PUSH1 0x20 PUSH1 0x0 KECCAK256 SWAP1 PUSH1 0x4 MUL ADD PUSH1 0x1 ADD PUSH1 0x40 MLOAD PUSH2 0x23F4 SWAP2 SWAP1 PUSH2 0x2A4C JUMP JUMPDEST SWAP1 DUP2 MSTORE PUSH1 0x40 MLOAD SWAP1 DUP2 SWAP1 SUB PUSH1 0x20 ADD SWAP1 KECCAK256 SLOAD CALLER PUSH1 0x1 PUSH1 0x1 PUSH1 0xA0 SHL SUB SWAP1 SWAP2 AND EQ PUSH2 0x242D JUMPI PUSH1 0x40 MLOAD PUSH3 0x461BCD PUSH1 0xE5 SHL DUP2 MSTORE PUSH1 0x4 ADD PUSH2 0x77C SWAP1 PUSH2 0x2CFD JUMP JUMPDEST DUP1 PUSH1 0x1 EQ ISZERO PUSH2 0x24CF JUMPI CALLER PUSH1 0x1 PUSH1 0x1 PUSH1 0xA0 SHL SUB AND PUSH2 0x8FC PUSH1 0xA DUP5 DUP2 SLOAD DUP2 LT PUSH2 0x2456 JUMPI PUSH2 0x2456 PUSH2 0x2E8C JUMP JUMPDEST SWAP1 PUSH1 0x0 MSTORE PUSH1 0x20 PUSH1 0x0 KECCAK256 SWAP1 PUSH1 0x4 MUL ADD PUSH1 0x2 ADD SLOAD SWAP1 DUP2 ISZERO MUL SWAP1 PUSH1 0x40 MLOAD PUSH1 0x0 PUSH1 0x40 MLOAD DUP1 DUP4 SUB DUP2 DUP6 DUP9 DUP9 CALL SWAP4 POP POP POP POP ISZERO DUP1 ISZERO PUSH2 0x2493 JUMPI RETURNDATASIZE PUSH1 0x0 DUP1 RETURNDATACOPY RETURNDATASIZE PUSH1 0x0 REVERT JUMPDEST POP PUSH1 0x0 PUSH1 0xA DUP4 DUP2 SLOAD DUP2 LT PUSH2 0x24A9 JUMPI PUSH2 0x24A9 PUSH2 0x2E8C JUMP JUMPDEST PUSH1 0x0 SWAP2 DUP3 MSTORE PUSH1 0x20 SWAP1 SWAP2 KECCAK256 PUSH1 0x4 SWAP1 SWAP2 MUL ADD PUSH1 0x3 ADD DUP1 SLOAD PUSH1 0xFF NOT AND SWAP2 ISZERO ISZERO SWAP2 SWAP1 SWAP2 OR SWAP1 SSTORE POP POP JUMP JUMPDEST DUP1 PUSH2 0xF6F JUMPI PUSH1 0xA DUP3 DUP2 SLOAD DUP2 LT PUSH2 0x24E7 JUMPI PUSH2 0x24E7 PUSH2 0x2E8C JUMP JUMPDEST PUSH1 0x0 SWAP2 DUP3 MSTORE PUSH1 0x20 SWAP1 SWAP2 KECCAK256 PUSH1 0x4 SWAP1 SWAP2 MUL ADD SLOAD PUSH1 0xA DUP1 SLOAD PUSH1 0x1 PUSH1 0x1 PUSH1 0xA0 SHL SUB SWAP1 SWAP3 AND SWAP2 PUSH2 0x8FC SWAP2 SWAP1 DUP6 SWAP1 DUP2 LT PUSH2 0x2456 JUMPI PUSH2 0x2456 PUSH2 0x2E8C JUMP JUMPDEST DUP3 DUP1 SLOAD PUSH2 0x2529 SWAP1 PUSH2 0x2E20 JUMP JUMPDEST SWAP1 PUSH1 0x0 MSTORE PUSH1 0x20 PUSH1 0x0 KECCAK256 SWAP1 PUSH1 0x1F ADD PUSH1 0x20 SWAP1 DIV DUP2 ADD SWAP3 DUP3 PUSH2 0x254B JUMPI PUSH1 0x0 DUP6 SSTORE PUSH2 0x2591 JUMP JUMPDEST DUP3 PUSH1 0x1F LT PUSH2 0x2564 JUMPI DUP1 MLOAD PUSH1 0xFF NOT AND DUP4 DUP1 ADD OR DUP6 SSTORE PUSH2 0x2591 JUMP JUMPDEST DUP3 DUP1 ADD PUSH1 0x1 ADD DUP6 SSTORE DUP3 ISZERO PUSH2 0x2591 JUMPI SWAP2 DUP3 ADD JUMPDEST DUP3 DUP2 GT ISZERO PUSH2 0x2591 JUMPI DUP3 MLOAD DUP3 SSTORE SWAP2 PUSH1 0x20 ADD SWAP2 SWAP1 PUSH1 0x1 ADD SWAP1 PUSH2 0x2576 JUMP JUMPDEST POP PUSH2 0x259D SWAP3 SWAP2 POP PUSH2 0x25FA JUMP JUMPDEST POP SWAP1 JUMP JUMPDEST DUP3 DUP1 SLOAD DUP3 DUP3 SSTORE SWAP1 PUSH1 0x0 MSTORE PUSH1 0x20 PUSH1 0x0 KECCAK256 SWAP1 DUP2 ADD SWAP3 DUP3 ISZERO PUSH2 0x25EE JUMPI SWAP2 PUSH1 0x20 MUL DUP3 ADD JUMPDEST DUP3 DUP2 GT ISZERO PUSH2 0x25EE JUMPI DUP3 MLOAD DUP1 MLOAD PUSH2 0x25DE SWAP2 DUP5 SWAP2 PUSH1 0x20 SWAP1 SWAP2 ADD SWAP1 PUSH2 0x251D JUMP JUMPDEST POP SWAP2 PUSH1 0x20 ADD SWAP2 SWAP1 PUSH1 0x1 ADD SWAP1 PUSH2 0x25C1 JUMP JUMPDEST POP PUSH2 0x259D SWAP3 SWAP2 POP PUSH2 0x260F JUMP JUMPDEST JUMPDEST DUP1 DUP3 GT ISZERO PUSH2 0x259D JUMPI PUSH1 0x0 DUP2 SSTORE PUSH1 0x1 ADD PUSH2 0x25FB JUMP JUMPDEST DUP1 DUP3 GT ISZERO PUSH2 0x259D JUMPI PUSH1 0x0 PUSH2 0x2623 DUP3 DUP3 PUSH2 0x262C JUMP JUMPDEST POP PUSH1 0x1 ADD PUSH2 0x260F JUMP JUMPDEST POP DUP1 SLOAD PUSH2 0x2638 SWAP1 PUSH2 0x2E20 JUMP JUMPDEST PUSH1 0x0 DUP3 SSTORE DUP1 PUSH1 0x1F LT PUSH2 0x2648 JUMPI POP POP JUMP JUMPDEST PUSH1 0x1F ADD PUSH1 0x20 SWAP1 DIV SWAP1 PUSH1 0x0 MSTORE PUSH1 0x20 PUSH1 0x0 KECCAK256 SWAP1 DUP2 ADD SWAP1 PUSH2 0x2666 SWAP2 SWAP1 PUSH2 0x25FA JUMP JUMPDEST POP JUMP JUMPDEST DUP1 CALLDATALOAD PUSH1 0x1 PUSH1 0x1 PUSH1 0xA0 SHL SUB DUP2 AND DUP2 EQ PUSH2 0x2680 JUMPI PUSH1 0x0 DUP1 REVERT JUMPDEST SWAP2 SWAP1 POP JUMP JUMPDEST PUSH1 0x0 DUP3 PUSH1 0x1F DUP4 ADD SLT PUSH2 0x2696 JUMPI PUSH1 0x0 DUP1 REVERT JUMPDEST DUP2 CALLDATALOAD PUSH1 0x1 PUSH1 0x1 PUSH1 0x40 SHL SUB DUP2 GT ISZERO PUSH2 0x26AF JUMPI PUSH2 0x26AF PUSH2 0x2EA2 JUMP JUMPDEST PUSH2 0x26C2 PUSH1 0x1F DUP3 ADD PUSH1 0x1F NOT AND PUSH1 0x20 ADD PUSH2 0x2D6B JUMP JUMPDEST DUP2 DUP2 MSTORE DUP5 PUSH1 0x20 DUP4 DUP7 ADD ADD GT ISZERO PUSH2 0x26D7 JUMPI PUSH1 0x0 DUP1 REVERT JUMPDEST DUP2 PUSH1 0x20 DUP6 ADD PUSH1 0x20 DUP4 ADD CALLDATACOPY PUSH1 0x0 SWAP2 DUP2 ADD PUSH1 0x20 ADD SWAP2 SWAP1 SWAP2 MSTORE SWAP4 SWAP3 POP POP POP JUMP JUMPDEST PUSH1 0x0 PUSH1 0x20 DUP3 DUP5 SUB SLT ISZERO PUSH2 0x2706 JUMPI PUSH1 0x0 DUP1 REVERT JUMPDEST PUSH2 0x270F DUP3 PUSH2 0x2669 JUMP JUMPDEST SWAP4 SWAP3 POP POP POP JUMP JUMPDEST PUSH1 0x0 DUP1 PUSH1 0x0 PUSH1 0x60 DUP5 DUP7 SUB SLT ISZERO PUSH2 0x272B JUMPI PUSH1 0x0 DUP1 REVERT JUMPDEST PUSH2 0x2734 DUP5 PUSH2 0x2669 JUMP JUMPDEST SWAP3 POP PUSH1 0x20 DUP5 ADD CALLDATALOAD PUSH1 0x1 PUSH1 0x1 PUSH1 0x40 SHL SUB DUP2 GT ISZERO PUSH2 0x274F JUMPI PUSH1 0x0 DUP1 REVERT JUMPDEST PUSH2 0x275B DUP7 DUP3 DUP8 ADD PUSH2 0x2685 JUMP JUMPDEST SWAP3 POP POP PUSH1 0x40 DUP5 ADD CALLDATALOAD SWAP1 POP SWAP3 POP SWAP3 POP SWAP3 JUMP JUMPDEST PUSH1 0x0 PUSH1 0x20 DUP3 DUP5 SUB SLT ISZERO PUSH2 0x277E JUMPI PUSH1 0x0 DUP1 REVERT JUMPDEST DUP2 CALLDATALOAD PUSH1 0x1 PUSH1 0x1 PUSH1 0x40 SHL SUB DUP2 GT ISZERO PUSH2 0x2794 JUMPI PUSH1 0x0 DUP1 REVERT JUMPDEST PUSH2 0x1C2B DUP5 DUP3 DUP6 ADD PUSH2 0x2685 JUMP JUMPDEST PUSH1 0x0 DUP1 PUSH1 0x40 DUP4 DUP6 SUB SLT ISZERO PUSH2 0x27B3 JUMPI PUSH1 0x0 DUP1 REVERT JUMPDEST DUP3 CALLDATALOAD PUSH1 0x1 PUSH1 0x1 PUSH1 0x40 SHL SUB DUP1 DUP3 GT ISZERO PUSH2 0x27CA JUMPI PUSH1 0x0 DUP1 REVERT JUMPDEST PUSH2 0x27D6 DUP7 DUP4 DUP8 ADD PUSH2 0x2685 JUMP JUMPDEST SWAP4 POP PUSH1 0x20 SWAP2 POP DUP2 DUP6 ADD CALLDATALOAD DUP2 DUP2 GT ISZERO PUSH2 0x27ED JUMPI PUSH1 0x0 DUP1 REVERT JUMPDEST DUP6 ADD PUSH1 0x1F DUP2 ADD DUP8 SGT PUSH2 0x27FE JUMPI PUSH1 0x0 DUP1 REVERT JUMPDEST DUP1 CALLDATALOAD DUP3 DUP2 GT ISZERO PUSH2 0x2810 JUMPI PUSH2 0x2810 PUSH2 0x2EA2 JUMP JUMPDEST DUP1 PUSH1 0x5 SHL PUSH2 0x281F DUP6 DUP3 ADD PUSH2 0x2D6B JUMP JUMPDEST DUP3 DUP2 MSTORE DUP6 DUP2 ADD SWAP1 DUP5 DUP8 ADD DUP4 DUP7 ADD DUP9 ADD DUP13 LT ISZERO PUSH2 0x283A JUMPI PUSH1 0x0 DUP1 REVERT JUMPDEST PUSH1 0x0 SWAP4 POP DUP4 JUMPDEST DUP6 DUP2 LT ISZERO PUSH2 0x2877 JUMPI DUP2 CALLDATALOAD DUP9 DUP2 GT ISZERO PUSH2 0x2856 JUMPI DUP6 DUP7 REVERT JUMPDEST PUSH2 0x2864 DUP15 DUP12 DUP4 DUP12 ADD ADD PUSH2 0x2685 JUMP JUMPDEST DUP6 MSTORE POP SWAP3 DUP9 ADD SWAP3 SWAP1 DUP9 ADD SWAP1 PUSH1 0x1 ADD PUSH2 0x2840 JUMP JUMPDEST POP SWAP9 SWAP12 SWAP1 SWAP11 POP SWAP9 POP POP POP POP POP POP POP POP POP JUMP JUMPDEST PUSH1 0x0 DUP1 PUSH1 0x40 DUP4 DUP6 SUB SLT ISZERO PUSH2 0x289C JUMPI PUSH1 0x0 DUP1 REVERT JUMPDEST DUP3 CALLDATALOAD PUSH1 0x1 PUSH1 0x1 PUSH1 0x40 SHL SUB DUP2 GT ISZERO PUSH2 0x28B2 JUMPI PUSH1 0x0 DUP1 REVERT JUMPDEST PUSH2 0x28BE DUP6 DUP3 DUP7 ADD PUSH2 0x2685 JUMP JUMPDEST SWAP6 PUSH1 0x20 SWAP5 SWAP1 SWAP5 ADD CALLDATALOAD SWAP5 POP POP POP POP JUMP JUMPDEST PUSH1 0x0 DUP1 PUSH1 0x0 PUSH1 0x60 DUP5 DUP7 SUB SLT ISZERO PUSH2 0x28E2 JUMPI PUSH1 0x0 DUP1 REVERT JUMPDEST DUP4 CALLDATALOAD PUSH1 0x1 PUSH1 0x1 PUSH1 0x40 SHL SUB DUP1 DUP3 GT ISZERO PUSH2 0x28F9 JUMPI PUSH1 0x0 DUP1 REVERT JUMPDEST PUSH2 0x2905 DUP8 DUP4 DUP9 ADD PUSH2 0x2685 JUMP JUMPDEST SWAP5 POP PUSH1 0x20 DUP7 ADD CALLDATALOAD SWAP2 POP DUP1 DUP3 GT ISZERO PUSH2 0x291B JUMPI PUSH1 0x0 DUP1 REVERT JUMPDEST POP PUSH2 0x275B DUP7 DUP3 DUP8 ADD PUSH2 0x2685 JUMP JUMPDEST PUSH1 0x0 DUP1 PUSH1 0x0 PUSH1 0x60 DUP5 DUP7 SUB SLT ISZERO PUSH2 0x293D JUMPI PUSH1 0x0 DUP1 REVERT JUMPDEST DUP4 CALLDATALOAD PUSH1 0x1 PUSH1 0x1 PUSH1 0x40 SHL SUB DUP1 DUP3 GT ISZERO PUSH2 0x2954 JUMPI PUSH1 0x0 DUP1 REVERT JUMPDEST PUSH2 0x2960 DUP8 DUP4 DUP9 ADD PUSH2 0x2685 JUMP JUMPDEST SWAP5 POP PUSH1 0x20 DUP7 ADD CALLDATALOAD SWAP4 POP PUSH1 0x40 DUP7 ADD CALLDATALOAD SWAP2 POP DUP1 DUP3 GT ISZERO PUSH2 0x297D JUMPI PUSH1 0x0 DUP1 REVERT JUMPDEST POP PUSH2 0x298A DUP7 DUP3 DUP8 ADD PUSH2 0x2685 JUMP JUMPDEST SWAP2 POP POP SWAP3 POP SWAP3 POP SWAP3 JUMP JUMPDEST PUSH1 0x0 PUSH1 0x20 DUP3 DUP5 SUB SLT ISZERO PUSH2 0x29A6 JUMPI PUSH1 0x0 DUP1 REVERT JUMPDEST POP CALLDATALOAD SWAP2 SWAP1 POP JUMP JUMPDEST PUSH1 0x0 DUP1 PUSH1 0x40 DUP4 DUP6 SUB SLT ISZERO PUSH2 0x29C0 JUMPI PUSH1 0x0 DUP1 REVERT JUMPDEST DUP3 CALLDATALOAD SWAP2 POP PUSH1 0x20 DUP4 ADD CALLDATALOAD DUP1 ISZERO ISZERO DUP2 EQ PUSH2 0x29D7 JUMPI PUSH1 0x0 DUP1 REVERT JUMPDEST DUP1 SWAP2 POP POP SWAP3 POP SWAP3 SWAP1 POP JUMP JUMPDEST PUSH1 0x0 DUP1 PUSH1 0x40 DUP4 DUP6 SUB SLT ISZERO PUSH2 0x29F5 JUMPI PUSH1 0x0 DUP1 REVERT JUMPDEST POP POP DUP1 CALLDATALOAD SWAP3 PUSH1 0x20 SWAP1 SWAP2 ADD CALLDATALOAD SWAP2 POP JUMP JUMPDEST PUSH1 0x0 DUP2 MLOAD DUP1 DUP5 MSTORE PUSH2 0x2A1C DUP2 PUSH1 0x20 DUP7 ADD PUSH1 0x20 DUP7 ADD PUSH2 0x2DF4 JUMP JUMPDEST PUSH1 0x1F ADD PUSH1 0x1F NOT AND SWAP3 SWAP1 SWAP3 ADD PUSH1 0x20 ADD SWAP3 SWAP2 POP POP JUMP JUMPDEST PUSH1 0x0 DUP3 MLOAD PUSH2 0x2A42 DUP2 DUP5 PUSH1 0x20 DUP8 ADD PUSH2 0x2DF4 JUMP JUMPDEST SWAP2 SWAP1 SWAP2 ADD SWAP3 SWAP2 POP POP JUMP JUMPDEST PUSH1 0x0 DUP1 DUP4 SLOAD DUP2 PUSH1 0x1 DUP3 DUP2 SHR SWAP2 POP DUP1 DUP4 AND DUP1 PUSH2 0x2A68 JUMPI PUSH1 0x7F DUP4 AND SWAP3 POP JUMPDEST PUSH1 0x20 DUP1 DUP5 LT DUP3 EQ ISZERO PUSH2 0x2A88 JUMPI PUSH4 0x4E487B71 PUSH1 0xE0 SHL DUP7 MSTORE PUSH1 0x22 PUSH1 0x4 MSTORE PUSH1 0x24 DUP7 REVERT JUMPDEST DUP2 DUP1 ISZERO PUSH2 0x2A9C JUMPI PUSH1 0x1 DUP2 EQ PUSH2 0x2AAD JUMPI PUSH2 0x2ADA JUMP JUMPDEST PUSH1 0xFF NOT DUP7 AND DUP10 MSTORE DUP5 DUP10 ADD SWAP7 POP PUSH2 0x2ADA JUMP JUMPDEST PUSH1 0x0 DUP11 DUP2 MSTORE PUSH1 0x20 SWAP1 KECCAK256 PUSH1 0x0 JUMPDEST DUP7 DUP2 LT ISZERO PUSH2 0x2AD2 JUMPI DUP2 SLOAD DUP12 DUP3 ADD MSTORE SWAP1 DUP6 ADD SWAP1 DUP4 ADD PUSH2 0x2AB9 JUMP JUMPDEST POP POP DUP5 DUP10 ADD SWAP7 POP JUMPDEST POP SWAP5 SWAP9 SWAP8 POP POP POP POP POP POP POP POP JUMP JUMPDEST PUSH1 0x1 PUSH1 0x1 PUSH1 0xA0 SHL SUB DUP5 AND DUP2 MSTORE PUSH1 0x60 PUSH1 0x20 DUP3 ADD DUP2 SWAP1 MSTORE PUSH1 0x0 SWAP1 PUSH2 0x2B0C SWAP1 DUP4 ADD DUP6 PUSH2 0x2A04 JUMP JUMPDEST SWAP1 POP DUP3 ISZERO ISZERO PUSH1 0x40 DUP4 ADD MSTORE SWAP5 SWAP4 POP POP POP POP JUMP JUMPDEST PUSH1 0x1 PUSH1 0x1 PUSH1 0xA0 SHL SUB DUP6 AND DUP2 MSTORE PUSH1 0x80 PUSH1 0x20 DUP3 ADD DUP2 SWAP1 MSTORE PUSH1 0x0 SWAP1 PUSH2 0x2B42 SWAP1 DUP4 ADD DUP7 PUSH2 0x2A04 JUMP JUMPDEST PUSH1 0x40 DUP4 ADD SWAP5 SWAP1 SWAP5 MSTORE POP SWAP1 ISZERO ISZERO PUSH1 0x60 SWAP1 SWAP2 ADD MSTORE SWAP3 SWAP2 POP POP JUMP JUMPDEST PUSH1 0x1 PUSH1 0x1 PUSH1 0xA0 SHL SUB DUP6 AND DUP2 MSTORE PUSH1 0x80 PUSH1 0x20 DUP3 ADD DUP2 SWAP1 MSTORE PUSH1 0x0 SWAP1 PUSH2 0x2B7E SWAP1 DUP4 ADD DUP7 PUSH2 0x2A04 JUMP JUMPDEST PUSH1 0x40 DUP4 ADD SWAP5 SWAP1 SWAP5 MSTORE POP PUSH1 0x60 ADD MSTORE SWAP3 SWAP2 POP POP JUMP JUMPDEST PUSH1 0x0 PUSH1 0x20 DUP1 DUP4 ADD DUP2 DUP5 MSTORE DUP1 DUP6 MLOAD DUP1 DUP4 MSTORE PUSH1 0x40 DUP7 ADD SWAP2 POP PUSH1 0x40 DUP2 PUSH1 0x5 SHL DUP8 ADD ADD SWAP3 POP DUP4 DUP8 ADD PUSH1 0x0 JUMPDEST DUP3 DUP2 LT ISZERO PUSH2 0x2BE6 JUMPI PUSH1 0x3F NOT DUP9 DUP7 SUB ADD DUP5 MSTORE PUSH2 0x2BD4 DUP6 DUP4 MLOAD PUSH2 0x2A04 JUMP JUMPDEST SWAP5 POP SWAP3 DUP6 ADD SWAP3 SWAP1 DUP6 ADD SWAP1 PUSH1 0x1 ADD PUSH2 0x2BB8 JUMP JUMPDEST POP SWAP3 SWAP8 SWAP7 POP POP POP POP POP POP POP JUMP JUMPDEST PUSH1 0x20 DUP2 MSTORE PUSH1 0x0 PUSH2 0x270F PUSH1 0x20 DUP4 ADD DUP5 PUSH2 0x2A04 JUMP JUMPDEST PUSH1 0x80 DUP2 MSTORE PUSH1 0x0 PUSH2 0x2C19 PUSH1 0x80 DUP4 ADD DUP8 PUSH2 0x2A04 JUMP JUMPDEST PUSH1 0x20 DUP4 ADD SWAP6 SWAP1 SWAP6 MSTORE POP PUSH1 0x40 DUP2 ADD SWAP3 SWAP1 SWAP3 MSTORE ISZERO ISZERO PUSH1 0x60 SWAP1 SWAP2 ADD MSTORE SWAP2 SWAP1 POP JUMP JUMPDEST PUSH1 0xE0 DUP2 MSTORE PUSH1 0x0 PUSH2 0x2C4A PUSH1 0xE0 DUP4 ADD DUP11 PUSH2 0x2A04 JUMP JUMPDEST DUP9 PUSH1 0x20 DUP5 ADD MSTORE DUP8 PUSH1 0x40 DUP5 ADD MSTORE DUP7 ISZERO ISZERO PUSH1 0x60 DUP5 ADD MSTORE DUP3 DUP2 SUB PUSH1 0x80 DUP5 ADD MSTORE PUSH2 0x2C70 DUP2 DUP8 PUSH2 0x2A04 JUMP JUMPDEST SWAP1 POP DUP3 DUP2 SUB PUSH1 0xA0 DUP5 ADD MSTORE PUSH2 0x2C84 DUP2 DUP7 PUSH2 0x2A04 JUMP JUMPDEST SWAP2 POP POP DUP3 PUSH1 0xC0 DUP4 ADD MSTORE SWAP9 SWAP8 POP POP POP POP POP POP POP POP JUMP JUMPDEST PUSH1 0x20 DUP1 DUP3 MSTORE PUSH1 0x17 SWAP1 DUP3 ADD MSTORE PUSH23 0x115C9C9BDC8E88125B9D985B1A59081C185CDCDDDBDC99 PUSH1 0x4A SHL PUSH1 0x40 DUP3 ADD MSTORE PUSH1 0x60 ADD SWAP1 JUMP JUMPDEST PUSH1 0x20 DUP1 DUP3 MSTORE PUSH1 0x19 SWAP1 DUP3 ADD MSTORE PUSH25 0x115C9C9BDC8E88155CD95C88191BD95CDB89DD08195E1A5CDD PUSH1 0x3A SHL PUSH1 0x40 DUP3 ADD MSTORE PUSH1 0x60 ADD SWAP1 JUMP JUMPDEST PUSH1 0x20 DUP1 DUP3 MSTORE PUSH1 0x1F SWAP1 DUP3 ADD MSTORE PUSH32 0x6572726F723A2074686973206973206E6F7420796F75722070726F6475637400 PUSH1 0x40 DUP3 ADD MSTORE PUSH1 0x60 ADD SWAP1 JUMP JUMPDEST PUSH1 0x20 DUP1 DUP3 MSTORE PUSH1 0x1D SWAP1 DUP3 ADD MSTORE PUSH32 0x4572726F723A20596F752061726520616C7265616479206C6F67676564000000 PUSH1 0x40 DUP3 ADD MSTORE PUSH1 0x60 ADD SWAP1 JUMP JUMPDEST PUSH1 0x40 MLOAD PUSH1 0x1F DUP3 ADD PUSH1 0x1F NOT AND DUP2 ADD PUSH1 0x1 PUSH1 0x1 PUSH1 0x40 SHL SUB DUP2 GT DUP3 DUP3 LT OR ISZERO PUSH2 0x2D93 JUMPI PUSH2 0x2D93 PUSH2 0x2EA2 JUMP JUMPDEST PUSH1 0x40 MSTORE SWAP2 SWAP1 POP JUMP JUMPDEST PUSH1 0x0 DUP3 NOT DUP3 GT ISZERO PUSH2 0x2DAE JUMPI PUSH2 0x2DAE PUSH2 0x2E76 JUMP JUMPDEST POP ADD SWAP1 JUMP JUMPDEST PUSH1 0x0 DUP3 PUSH2 0x2DD0 JUMPI PUSH4 0x4E487B71 PUSH1 0xE0 SHL PUSH1 0x0 MSTORE PUSH1 0x12 PUSH1 0x4 MSTORE PUSH1 0x24 PUSH1 0x0 REVERT JUMPDEST POP DIV SWAP1 JUMP JUMPDEST PUSH1 0x0 DUP2 PUSH1 0x0 NOT DIV DUP4 GT DUP3 ISZERO ISZERO AND ISZERO PUSH2 0x2DEF JUMPI PUSH2 0x2DEF PUSH2 0x2E76 JUMP JUMPDEST POP MUL SWAP1 JUMP JUMPDEST PUSH1 0x0 JUMPDEST DUP4 DUP2 LT ISZERO PUSH2 0x2E0F JUMPI DUP2 DUP2 ADD MLOAD DUP4 DUP3 ADD MSTORE PUSH1 0x20 ADD PUSH2 0x2DF7 JUMP JUMPDEST DUP4 DUP2 GT ISZERO PUSH2 0x20FD JUMPI POP POP PUSH1 0x0 SWAP2 ADD MSTORE JUMP JUMPDEST PUSH1 0x1 DUP2 DUP2 SHR SWAP1 DUP3 AND DUP1 PUSH2 0x2E34 JUMPI PUSH1 0x7F DUP3 AND SWAP2 POP JUMPDEST PUSH1 0x20 DUP3 LT DUP2 EQ ISZERO PUSH2 0x2E55 JUMPI PUSH4 0x4E487B71 PUSH1 0xE0 SHL PUSH1 0x0 MSTORE PUSH1 0x22 PUSH1 0x4 MSTORE PUSH1 0x24 PUSH1 0x0 REVERT JUMPDEST POP SWAP2 SWAP1 POP JUMP JUMPDEST PUSH1 0x0 PUSH1 0x0 NOT DUP3 EQ ISZERO PUSH2 0x2E6F JUMPI PUSH2 0x2E6F PUSH2 0x2E76 JUMP JUMPDEST POP PUSH1 0x1 ADD SWAP1 JUMP JUMPDEST PUSH4 0x4E487B71 PUSH1 0xE0 SHL PUSH1 0x0 MSTORE PUSH1 0x11 PUSH1 0x4 MSTORE PUSH1 0x24 PUSH1 0x0 REVERT JUMPDEST PUSH4 0x4E487B71 PUSH1 0xE0 SHL PUSH1 0x0 MSTORE PUSH1 0x32 PUSH1 0x4 MSTORE PUSH1 0x24 PUSH1 0x0 REVERT JUMPDEST PUSH4 0x4E487B71 PUSH1 0xE0 SHL PUSH1 0x0 MSTORE PUSH1 0x41 PUSH1 0x4 MSTORE PUSH1 0x24 PUSH1 0x0 REVERT INVALID LOG2 PUSH5 0x6970667358 0x22 SLT KECCAK256 0x4E CALLER PUSH27 0x95E89CEB25DB14B40092361FB3C81AC2496068AFDF65050106A0E8 KECCAK256 MSTORE PUSH5 0x736F6C6343 STOP ADDMOD SMOD STOP CALLER 0xB5 0xB2 0xE7 PUSH32 0x7CC5F741808C088FC930A78382CBC738160D08C471B4672FC39743AA405787FA SLT 0xA8 0x23 0xE0 CALLCODE 0xB7 PUSH4 0x1CC41B3B 0xA8 DUP3 DUP12 CALLER 0x21 0xCA DUP2 GT GT STATICCALL PUSH22 0xCD3AA3BB5ACE418456BA3C801FD0A494A221A407852A 0x26 0xDB CHAINID 0xC4 0xF8 CODECOPY MLOAD TIMESTAMP JUMP JUMPDEST EXTCODESIZE EXTCODECOPY 0xD0 PUSH6 0x3B9900000000 "
				},
				"gasEstimates": {
					"creation": {
						"codeDepositCost": "2402800",
						"executionCost": "infinite",
						"totalCost": "infinite"
					},
					"external": {
						"acceptMarriage(uint256,bool)": "infinite",
						"acceptPurchase(uint256,uint256)": "infinite",
						"acceptReturn(uint256,uint256)": "infinite",
						"addProductShop(string,uint256,string)": "infinite",
						"check_logged_shop(string)": "infinite",
						"check_logged_user(string)": "infinite",
						"create_user(address,string,bytes32)": "infinite",
						"getStoryRating(string)": "infinite",
						"get_address(string)": "infinite",
						"get_balance(address)": "3045",
						"get_city(string)": "infinite",
						"get_hash(string)": "infinite",
						"get_product_list()": "infinite",
						"get_role_shop(string)": "infinite",
						"get_role_user(string)": "infinite",
						"get_shop_list()": "infinite",
						"leaveComment(string,string[])": "infinite",
						"leaveFeedback(string,string,uint256)": "infinite",
						"login_out_shop(string)": "infinite",
						"login_out_user(string)": "infinite",
						"login_shop(string,bytes32)": "infinite",
						"login_user(string,bytes32)": "infinite",
						"productMarriage(string)": "infinite",
						"productPurchases(string)": "infinite",
						"productReturn(string)": "infinite",
						"refusalToPurchase(uint256)": "infinite",
						"shopLists(string)": "infinite",
						"structProducts(string)": "infinite",
						"structShops(address)": "infinite",
						"structStatusMarriages(uint256)": "infinite",
						"structStatusPurchases(uint256)": "infinite",
						"structStatusReturns(uint256)": "infinite",
						"structUserLogins(string)": "infinite",
						"structUsers(address)": "infinite"
					}
				},
				"methodIdentifiers": {
					"acceptMarriage(uint256,bool)": "87048043",
					"acceptPurchase(uint256,uint256)": "f7647f36",
					"acceptReturn(uint256,uint256)": "a333797f",
					"addProductShop(string,uint256,string)": "6c05dd1d",
					"check_logged_shop(string)": "3b84aedc",
					"check_logged_user(string)": "5bbc9a3f",
					"create_user(address,string,bytes32)": "0e1c81b2",
					"getStoryRating(string)": "a985036d",
					"get_address(string)": "6ba44d3c",
					"get_balance(address)": "1e279a37",
					"get_city(string)": "55149fd5",
					"get_hash(string)": "845952a8",
					"get_product_list()": "5bd37c9e",
					"get_role_shop(string)": "033ff0b8",
					"get_role_user(string)": "5bdb63fa",
					"get_shop_list()": "1f8daac8",
					"leaveComment(string,string[])": "29e795f3",
					"leaveFeedback(string,string,uint256)": "cc21c188",
					"login_out_shop(string)": "04ac16f6",
					"login_out_user(string)": "521b9170",
					"login_shop(string,bytes32)": "775eb9e6",
					"login_user(string,bytes32)": "d22d9020",
					"productMarriage(string)": "5828c584",
					"productPurchases(string)": "146dc6ed",
					"productReturn(string)": "bbd43363",
					"refusalToPurchase(uint256)": "7033a382",
					"shopLists(string)": "c4957fa0",
					"structProducts(string)": "d68cf8c1",
					"structShops(address)": "8e23cb40",
					"structStatusMarriages(uint256)": "73b62bd0",
					"structStatusPurchases(uint256)": "dce39151",
					"structStatusReturns(uint256)": "a9f9482b",
					"structUserLogins(string)": "1bbe970a",
					"structUsers(address)": "961865f0"
				}
			},
			"storageLayout": {
				"storage": [
					{
						"astId": 309,
						"contract": "Documents/GitHub/Store-system-with-feedback/main.sol:coursepaper",
						"label": "structShops",
						"offset": 0,
						"slot": "0",
						"type": "t_mapping(t_address,t_struct(structShop)304_storage)"
					},
					{
						"astId": 313,
						"contract": "Documents/GitHub/Store-system-with-feedback/main.sol:coursepaper",
						"label": "shopLists",
						"offset": 0,
						"slot": "1",
						"type": "t_mapping(t_string_memory_ptr,t_address)"
					},
					{
						"astId": 316,
						"contract": "Documents/GitHub/Store-system-with-feedback/main.sol:coursepaper",
						"label": "shopList",
						"offset": 0,
						"slot": "2",
						"type": "t_array(t_string_storage)dyn_storage"
					},
					{
						"astId": 332,
						"contract": "Documents/GitHub/Store-system-with-feedback/main.sol:coursepaper",
						"label": "complaintBooks",
						"offset": 0,
						"slot": "3",
						"type": "t_array(t_struct(complaintBook)328_storage)dyn_storage"
					},
					{
						"astId": 346,
						"contract": "Documents/GitHub/Store-system-with-feedback/main.sol:coursepaper",
						"label": "structUsers",
						"offset": 0,
						"slot": "4",
						"type": "t_mapping(t_address,t_struct(structUser)341_storage)"
					},
					{
						"astId": 350,
						"contract": "Documents/GitHub/Store-system-with-feedback/main.sol:coursepaper",
						"label": "structUserLogins",
						"offset": 0,
						"slot": "5",
						"type": "t_mapping(t_string_memory_ptr,t_address)"
					},
					{
						"astId": 353,
						"contract": "Documents/GitHub/Store-system-with-feedback/main.sol:coursepaper",
						"label": "userLoginsArray",
						"offset": 0,
						"slot": "6",
						"type": "t_array(t_string_storage)dyn_storage"
					},
					{
						"astId": 356,
						"contract": "Documents/GitHub/Store-system-with-feedback/main.sol:coursepaper",
						"label": "userAddressArray",
						"offset": 0,
						"slot": "7",
						"type": "t_array(t_address)dyn_storage"
					},
					{
						"astId": 370,
						"contract": "Documents/GitHub/Store-system-with-feedback/main.sol:coursepaper",
						"label": "structProducts",
						"offset": 0,
						"slot": "8",
						"type": "t_mapping(t_string_memory_ptr,t_struct(structProduct)365_storage)"
					},
					{
						"astId": 373,
						"contract": "Documents/GitHub/Store-system-with-feedback/main.sol:coursepaper",
						"label": "productList",
						"offset": 0,
						"slot": "9",
						"type": "t_array(t_string_storage)dyn_storage"
					},
					{
						"astId": 386,
						"contract": "Documents/GitHub/Store-system-with-feedback/main.sol:coursepaper",
						"label": "structStatusPurchases",
						"offset": 0,
						"slot": "10",
						"type": "t_array(t_struct(structStatusPurchase)382_storage)dyn_storage"
					},
					{
						"astId": 397,
						"contract": "Documents/GitHub/Store-system-with-feedback/main.sol:coursepaper",
						"label": "structStatusReturns",
						"offset": 0,
						"slot": "11",
						"type": "t_array(t_struct(structStatusReturn)393_storage)dyn_storage"
					},
					{
						"astId": 408,
						"contract": "Documents/GitHub/Store-system-with-feedback/main.sol:coursepaper",
						"label": "structStatusMarriages",
						"offset": 0,
						"slot": "12",
						"type": "t_array(t_struct(structStatusMarriage)404_storage)dyn_storage"
					},
					{
						"astId": 411,
						"contract": "Documents/GitHub/Store-system-with-feedback/main.sol:coursepaper",
						"label": "addProductShop_idProduct",
						"offset": 0,
						"slot": "13",
						"type": "t_uint256"
					}
				],
				"types": {
					"t_address": {
						"encoding": "inplace",
						"label": "address",
						"numberOfBytes": "20"
					},
					"t_array(t_address)dyn_storage": {
						"base": "t_address",
						"encoding": "dynamic_array",
						"label": "address[]",
						"numberOfBytes": "32"
					},
					"t_array(t_string_storage)dyn_storage": {
						"base": "t_string_storage",
						"encoding": "dynamic_array",
						"label": "string[]",
						"numberOfBytes": "32"
					},
					"t_array(t_struct(complaintBook)328_storage)dyn_storage": {
						"base": "t_struct(complaintBook)328_storage",
						"encoding": "dynamic_array",
						"label": "struct coursepaper.complaintBook[]",
						"numberOfBytes": "32"
					},
					"t_array(t_struct(structStatusMarriage)404_storage)dyn_storage": {
						"base": "t_struct(structStatusMarriage)404_storage",
						"encoding": "dynamic_array",
						"label": "struct coursepaper.structStatusMarriage[]",
						"numberOfBytes": "32"
					},
					"t_array(t_struct(structStatusPurchase)382_storage)dyn_storage": {
						"base": "t_struct(structStatusPurchase)382_storage",
						"encoding": "dynamic_array",
						"label": "struct coursepaper.structStatusPurchase[]",
						"numberOfBytes": "32"
					},
					"t_array(t_struct(structStatusReturn)393_storage)dyn_storage": {
						"base": "t_struct(structStatusReturn)393_storage",
						"encoding": "dynamic_array",
						"label": "struct coursepaper.structStatusReturn[]",
						"numberOfBytes": "32"
					},
					"t_bool": {
						"encoding": "inplace",
						"label": "bool",
						"numberOfBytes": "1"
					},
					"t_bytes32": {
						"encoding": "inplace",
						"label": "bytes32",
						"numberOfBytes": "32"
					},
					"t_mapping(t_address,t_struct(structShop)304_storage)": {
						"encoding": "mapping",
						"key": "t_address",
						"label": "mapping(address => struct coursepaper.structShop)",
						"numberOfBytes": "32",
						"value": "t_struct(structShop)304_storage"
					},
					"t_mapping(t_address,t_struct(structUser)341_storage)": {
						"encoding": "mapping",
						"key": "t_address",
						"label": "mapping(address => struct coursepaper.structUser)",
						"numberOfBytes": "32",
						"value": "t_struct(structUser)341_storage"
					},
					"t_mapping(t_string_memory_ptr,t_address)": {
						"encoding": "mapping",
						"key": "t_string_memory_ptr",
						"label": "mapping(string => address)",
						"numberOfBytes": "32",
						"value": "t_address"
					},
					"t_mapping(t_string_memory_ptr,t_struct(structProduct)365_storage)": {
						"encoding": "mapping",
						"key": "t_string_memory_ptr",
						"label": "mapping(string => struct coursepaper.structProduct)",
						"numberOfBytes": "32",
						"value": "t_struct(structProduct)365_storage"
					},
					"t_string_memory_ptr": {
						"encoding": "bytes",
						"label": "string",
						"numberOfBytes": "32"
					},
					"t_string_storage": {
						"encoding": "bytes",
						"label": "string",
						"numberOfBytes": "32"
					},
					"t_struct(complaintBook)328_storage": {
						"encoding": "inplace",
						"label": "struct coursepaper.complaintBook",
						"members": [
							{
								"astId": 318,
								"contract": "Documents/GitHub/Store-system-with-feedback/main.sol:coursepaper",
								"label": "shop",
								"offset": 0,
								"slot": "0",
								"type": "t_string_storage"
							},
							{
								"astId": 320,
								"contract": "Documents/GitHub/Store-system-with-feedback/main.sol:coursepaper",
								"label": "userName",
								"offset": 0,
								"slot": "1",
								"type": "t_string_storage"
							},
							{
								"astId": 322,
								"contract": "Documents/GitHub/Store-system-with-feedback/main.sol:coursepaper",
								"label": "feedback",
								"offset": 0,
								"slot": "2",
								"type": "t_string_storage"
							},
							{
								"astId": 324,
								"contract": "Documents/GitHub/Store-system-with-feedback/main.sol:coursepaper",
								"label": "rating",
								"offset": 0,
								"slot": "3",
								"type": "t_uint256"
							},
							{
								"astId": 327,
								"contract": "Documents/GitHub/Store-system-with-feedback/main.sol:coursepaper",
								"label": "comments",
								"offset": 0,
								"slot": "4",
								"type": "t_array(t_string_storage)dyn_storage"
							}
						],
						"numberOfBytes": "160"
					},
					"t_struct(structProduct)365_storage": {
						"encoding": "inplace",
						"label": "struct coursepaper.structProduct",
						"members": [
							{
								"astId": 358,
								"contract": "Documents/GitHub/Store-system-with-feedback/main.sol:coursepaper",
								"label": "shop",
								"offset": 0,
								"slot": "0",
								"type": "t_address"
							},
							{
								"astId": 360,
								"contract": "Documents/GitHub/Store-system-with-feedback/main.sol:coursepaper",
								"label": "description",
								"offset": 0,
								"slot": "1",
								"type": "t_string_storage"
							},
							{
								"astId": 362,
								"contract": "Documents/GitHub/Store-system-with-feedback/main.sol:coursepaper",
								"label": "price",
								"offset": 0,
								"slot": "2",
								"type": "t_uint256"
							},
							{
								"astId": 364,
								"contract": "Documents/GitHub/Store-system-with-feedback/main.sol:coursepaper",
								"label": "id",
								"offset": 0,
								"slot": "3",
								"type": "t_uint256"
							}
						],
						"numberOfBytes": "128"
					},
					"t_struct(structShop)304_storage": {
						"encoding": "inplace",
						"label": "struct coursepaper.structShop",
						"members": [
							{
								"astId": 291,
								"contract": "Documents/GitHub/Store-system-with-feedback/main.sol:coursepaper",
								"label": "shopName",
								"offset": 0,
								"slot": "0",
								"type": "t_string_storage"
							},
							{
								"astId": 293,
								"contract": "Documents/GitHub/Store-system-with-feedback/main.sol:coursepaper",
								"label": "password",
								"offset": 0,
								"slot": "1",
								"type": "t_bytes32"
							},
							{
								"astId": 295,
								"contract": "Documents/GitHub/Store-system-with-feedback/main.sol:coursepaper",
								"label": "role",
								"offset": 0,
								"slot": "2",
								"type": "t_uint256"
							},
							{
								"astId": 297,
								"contract": "Documents/GitHub/Store-system-with-feedback/main.sol:coursepaper",
								"label": "logged",
								"offset": 0,
								"slot": "3",
								"type": "t_bool"
							},
							{
								"astId": 299,
								"contract": "Documents/GitHub/Store-system-with-feedback/main.sol:coursepaper",
								"label": "number",
								"offset": 0,
								"slot": "4",
								"type": "t_string_storage"
							},
							{
								"astId": 301,
								"contract": "Documents/GitHub/Store-system-with-feedback/main.sol:coursepaper",
								"label": "city",
								"offset": 0,
								"slot": "5",
								"type": "t_string_storage"
							},
							{
								"astId": 303,
								"contract": "Documents/GitHub/Store-system-with-feedback/main.sol:coursepaper",
								"label": "rating",
								"offset": 0,
								"slot": "6",
								"type": "t_uint256"
							}
						],
						"numberOfBytes": "224"
					},
					"t_struct(structStatusMarriage)404_storage": {
						"encoding": "inplace",
						"label": "struct coursepaper.structStatusMarriage",
						"members": [
							{
								"astId": 399,
								"contract": "Documents/GitHub/Store-system-with-feedback/main.sol:coursepaper",
								"label": "userLogin",
								"offset": 0,
								"slot": "0",
								"type": "t_address"
							},
							{
								"astId": 401,
								"contract": "Documents/GitHub/Store-system-with-feedback/main.sol:coursepaper",
								"label": "titleProduct",
								"offset": 0,
								"slot": "1",
								"type": "t_string_storage"
							},
							{
								"astId": 403,
								"contract": "Documents/GitHub/Store-system-with-feedback/main.sol:coursepaper",
								"label": "status",
								"offset": 0,
								"slot": "2",
								"type": "t_bool"
							}
						],
						"numberOfBytes": "96"
					},
					"t_struct(structStatusPurchase)382_storage": {
						"encoding": "inplace",
						"label": "struct coursepaper.structStatusPurchase",
						"members": [
							{
								"astId": 375,
								"contract": "Documents/GitHub/Store-system-with-feedback/main.sol:coursepaper",
								"label": "userLogin",
								"offset": 0,
								"slot": "0",
								"type": "t_address"
							},
							{
								"astId": 377,
								"contract": "Documents/GitHub/Store-system-with-feedback/main.sol:coursepaper",
								"label": "titleProduct",
								"offset": 0,
								"slot": "1",
								"type": "t_string_storage"
							},
							{
								"astId": 379,
								"contract": "Documents/GitHub/Store-system-with-feedback/main.sol:coursepaper",
								"label": "price",
								"offset": 0,
								"slot": "2",
								"type": "t_uint256"
							},
							{
								"astId": 381,
								"contract": "Documents/GitHub/Store-system-with-feedback/main.sol:coursepaper",
								"label": "status",
								"offset": 0,
								"slot": "3",
								"type": "t_bool"
							}
						],
						"numberOfBytes": "128"
					},
					"t_struct(structStatusReturn)393_storage": {
						"encoding": "inplace",
						"label": "struct coursepaper.structStatusReturn",
						"members": [
							{
								"astId": 388,
								"contract": "Documents/GitHub/Store-system-with-feedback/main.sol:coursepaper",
								"label": "userLogin",
								"offset": 0,
								"slot": "0",
								"type": "t_address"
							},
							{
								"astId": 390,
								"contract": "Documents/GitHub/Store-system-with-feedback/main.sol:coursepaper",
								"label": "titleProduct",
								"offset": 0,
								"slot": "1",
								"type": "t_string_storage"
							},
							{
								"astId": 392,
								"contract": "Documents/GitHub/Store-system-with-feedback/main.sol:coursepaper",
								"label": "status",
								"offset": 0,
								"slot": "2",
								"type": "t_bool"
							}
						],
						"numberOfBytes": "96"
					},
					"t_struct(structUser)341_storage": {
						"encoding": "inplace",
						"label": "struct coursepaper.structUser",
						"members": [
							{
								"astId": 334,
								"contract": "Documents/GitHub/Store-system-with-feedback/main.sol:coursepaper",
								"label": "userName",
								"offset": 0,
								"slot": "0",
								"type": "t_string_storage"
							},
							{
								"astId": 336,
								"contract": "Documents/GitHub/Store-system-with-feedback/main.sol:coursepaper",
								"label": "password",
								"offset": 0,
								"slot": "1",
								"type": "t_bytes32"
							},
							{
								"astId": 338,
								"contract": "Documents/GitHub/Store-system-with-feedback/main.sol:coursepaper",
								"label": "role",
								"offset": 0,
								"slot": "2",
								"type": "t_uint256"
							},
							{
								"astId": 340,
								"contract": "Documents/GitHub/Store-system-with-feedback/main.sol:coursepaper",
								"label": "logged",
								"offset": 0,
								"slot": "3",
								"type": "t_bool"
							}
						],
						"numberOfBytes": "128"
					},
					"t_uint256": {
						"encoding": "inplace",
						"label": "uint256",
						"numberOfBytes": "32"
					}
				}
			},
			"userdoc": {
				"kind": "user",
				"methods": {},
				"version": 1
			}
		}
	}
}