{
	"Documents/GitHub/Store-system-with-feedback/main.sol": {
		"coursepaper": {
			"abi": [
				{
					"inputs": [],
					"stateMutability": "nonpayable",
					"type": "constructor"
				},
				{
					"inputs": [
						{
							"internalType": "uint256",
							"name": "idMarriage",
							"type": "uint256"
						},
						{
							"internalType": "bool",
							"name": "confirmation",
							"type": "bool"
						}
					],
					"name": "acceptMarriage",
					"outputs": [],
					"stateMutability": "payable",
					"type": "function"
				},
				{
					"inputs": [
						{
							"internalType": "uint256",
							"name": "idPurchase",
							"type": "uint256"
						},
						{
							"internalType": "bool",
							"name": "confirmation",
							"type": "bool"
						}
					],
					"name": "acceptPurchase",
					"outputs": [],
					"stateMutability": "payable",
					"type": "function"
				},
				{
					"inputs": [
						{
							"internalType": "uint256",
							"name": "idReturn",
							"type": "uint256"
						},
						{
							"internalType": "bool",
							"name": "confirmation",
							"type": "bool"
						}
					],
					"name": "acceptReturn",
					"outputs": [],
					"stateMutability": "payable",
					"type": "function"
				},
				{
					"inputs": [
						{
							"internalType": "string",
							"name": "title",
							"type": "string"
						},
						{
							"internalType": "uint256",
							"name": "price",
							"type": "uint256"
						},
						{
							"internalType": "string",
							"name": "description",
							"type": "string"
						}
					],
					"name": "addProductShop",
					"outputs": [],
					"stateMutability": "nonpayable",
					"type": "function"
				},
				{
					"inputs": [
						{
							"internalType": "string",
							"name": "login",
							"type": "string"
						}
					],
					"name": "check_logged_shop",
					"outputs": [
						{
							"internalType": "bool",
							"name": "",
							"type": "bool"
						}
					],
					"stateMutability": "view",
					"type": "function"
				},
				{
					"inputs": [
						{
							"internalType": "string",
							"name": "login",
							"type": "string"
						}
					],
					"name": "check_logged_user",
					"outputs": [
						{
							"internalType": "bool",
							"name": "",
							"type": "bool"
						}
					],
					"stateMutability": "view",
					"type": "function"
				},
				{
					"inputs": [
						{
							"internalType": "address",
							"name": "addr",
							"type": "address"
						},
						{
							"internalType": "string",
							"name": "login",
							"type": "string"
						},
						{
							"internalType": "bytes32",
							"name": "password",
							"type": "bytes32"
						}
					],
					"name": "create_user",
					"outputs": [],
					"stateMutability": "nonpayable",
					"type": "function"
				},
				{
					"inputs": [
						{
							"internalType": "string",
							"name": "shopName",
							"type": "string"
						}
					],
					"name": "getStoryRating",
					"outputs": [
						{
							"internalType": "uint256",
							"name": "",
							"type": "uint256"
						}
					],
					"stateMutability": "view",
					"type": "function"
				},
				{
					"inputs": [
						{
							"internalType": "string",
							"name": "login",
							"type": "string"
						}
					],
					"name": "get_address",
					"outputs": [
						{
							"internalType": "address",
							"name": "",
							"type": "address"
						}
					],
					"stateMutability": "view",
					"type": "function"
				},
				{
					"inputs": [
						{
							"internalType": "address",
							"name": "adr",
							"type": "address"
						}
					],
					"name": "get_balance",
					"outputs": [
						{
							"internalType": "uint256",
							"name": "",
							"type": "uint256"
						}
					],
					"stateMutability": "view",
					"type": "function"
				},
				{
					"inputs": [
						{
							"internalType": "string",
							"name": "login",
							"type": "string"
						}
					],
					"name": "get_city",
					"outputs": [
						{
							"internalType": "string",
							"name": "",
							"type": "string"
						}
					],
					"stateMutability": "view",
					"type": "function"
				},
				{
					"inputs": [
						{
							"internalType": "string",
							"name": "password",
							"type": "string"
						}
					],
					"name": "get_hash",
					"outputs": [
						{
							"internalType": "bytes32",
							"name": "",
							"type": "bytes32"
						}
					],
					"stateMutability": "pure",
					"type": "function"
				},
				{
					"inputs": [],
					"name": "get_product_list",
					"outputs": [
						{
							"internalType": "string[]",
							"name": "",
							"type": "string[]"
						}
					],
					"stateMutability": "view",
					"type": "function"
				},
				{
					"inputs": [
						{
							"internalType": "string",
							"name": "login",
							"type": "string"
						}
					],
					"name": "get_product_list_for_login",
					"outputs": [
						{
							"internalType": "string[]",
							"name": "",
							"type": "string[]"
						}
					],
					"stateMutability": "view",
					"type": "function"
				},
				{
					"inputs": [
						{
							"internalType": "string",
							"name": "login",
							"type": "string"
						}
					],
					"name": "get_role_shop",
					"outputs": [
						{
							"internalType": "uint256",
							"name": "",
							"type": "uint256"
						}
					],
					"stateMutability": "view",
					"type": "function"
				},
				{
					"inputs": [
						{
							"internalType": "string",
							"name": "login",
							"type": "string"
						}
					],
					"name": "get_role_user",
					"outputs": [
						{
							"internalType": "uint256",
							"name": "",
							"type": "uint256"
						}
					],
					"stateMutability": "view",
					"type": "function"
				},
				{
					"inputs": [],
					"name": "get_shop_list",
					"outputs": [
						{
							"internalType": "string[]",
							"name": "",
							"type": "string[]"
						}
					],
					"stateMutability": "view",
					"type": "function"
				},
				{
					"inputs": [
						{
							"internalType": "string",
							"name": "userName",
							"type": "string"
						},
						{
							"internalType": "string[]",
							"name": "comment",
							"type": "string[]"
						}
					],
					"name": "leaveComment",
					"outputs": [],
					"stateMutability": "nonpayable",
					"type": "function"
				},
				{
					"inputs": [
						{
							"internalType": "string",
							"name": "shop",
							"type": "string"
						},
						{
							"internalType": "string",
							"name": "feedback",
							"type": "string"
						},
						{
							"internalType": "uint256",
							"name": "rating",
							"type": "uint256"
						}
					],
					"name": "leaveFeedback",
					"outputs": [],
					"stateMutability": "nonpayable",
					"type": "function"
				},
				{
					"inputs": [
						{
							"internalType": "string",
							"name": "login",
							"type": "string"
						}
					],
					"name": "login_out_shop",
					"outputs": [],
					"stateMutability": "nonpayable",
					"type": "function"
				},
				{
					"inputs": [
						{
							"internalType": "string",
							"name": "login",
							"type": "string"
						}
					],
					"name": "login_out_user",
					"outputs": [],
					"stateMutability": "nonpayable",
					"type": "function"
				},
				{
					"inputs": [
						{
							"internalType": "string",
							"name": "login",
							"type": "string"
						},
						{
							"internalType": "bytes32",
							"name": "password",
							"type": "bytes32"
						}
					],
					"name": "login_shop",
					"outputs": [],
					"stateMutability": "nonpayable",
					"type": "function"
				},
				{
					"inputs": [
						{
							"internalType": "string",
							"name": "login",
							"type": "string"
						},
						{
							"internalType": "bytes32",
							"name": "password",
							"type": "bytes32"
						}
					],
					"name": "login_user",
					"outputs": [],
					"stateMutability": "nonpayable",
					"type": "function"
				},
				{
					"inputs": [
						{
							"internalType": "string",
							"name": "titleProduct",
							"type": "string"
						}
					],
					"name": "productMarriage",
					"outputs": [],
					"stateMutability": "nonpayable",
					"type": "function"
				},
				{
					"inputs": [
						{
							"internalType": "string",
							"name": "titleProduct",
							"type": "string"
						}
					],
					"name": "productPurchases",
					"outputs": [],
					"stateMutability": "payable",
					"type": "function"
				},
				{
					"inputs": [
						{
							"internalType": "string",
							"name": "titleProduct",
							"type": "string"
						}
					],
					"name": "productReturn",
					"outputs": [],
					"stateMutability": "nonpayable",
					"type": "function"
				},
				{
					"inputs": [
						{
							"internalType": "uint256",
							"name": "idPurchase",
							"type": "uint256"
						}
					],
					"name": "refusalToPurchase",
					"outputs": [],
					"stateMutability": "payable",
					"type": "function"
				},
				{
					"inputs": [
						{
							"internalType": "string",
							"name": "",
							"type": "string"
						}
					],
					"name": "shopLists",
					"outputs": [
						{
							"internalType": "address",
							"name": "",
							"type": "address"
						}
					],
					"stateMutability": "view",
					"type": "function"
				},
				{
					"inputs": [
						{
							"internalType": "string",
							"name": "",
							"type": "string"
						}
					],
					"name": "structProducts",
					"outputs": [
						{
							"internalType": "address",
							"name": "shop",
							"type": "address"
						},
						{
							"internalType": "string",
							"name": "description",
							"type": "string"
						},
						{
							"internalType": "uint256",
							"name": "price",
							"type": "uint256"
						},
						{
							"internalType": "uint256",
							"name": "id",
							"type": "uint256"
						}
					],
					"stateMutability": "view",
					"type": "function"
				},
				{
					"inputs": [
						{
							"internalType": "address",
							"name": "",
							"type": "address"
						}
					],
					"name": "structShops",
					"outputs": [
						{
							"internalType": "string",
							"name": "shopName",
							"type": "string"
						},
						{
							"internalType": "bytes32",
							"name": "password",
							"type": "bytes32"
						},
						{
							"internalType": "uint256",
							"name": "role",
							"type": "uint256"
						},
						{
							"internalType": "bool",
							"name": "logged",
							"type": "bool"
						},
						{
							"internalType": "string",
							"name": "number",
							"type": "string"
						},
						{
							"internalType": "string",
							"name": "city",
							"type": "string"
						},
						{
							"internalType": "uint256",
							"name": "rating",
							"type": "uint256"
						}
					],
					"stateMutability": "view",
					"type": "function"
				},
				{
					"inputs": [
						{
							"internalType": "uint256",
							"name": "",
							"type": "uint256"
						}
					],
					"name": "structStatusMarriages",
					"outputs": [
						{
							"internalType": "address",
							"name": "userLogin",
							"type": "address"
						},
						{
							"internalType": "string",
							"name": "titleProduct",
							"type": "string"
						},
						{
							"internalType": "bool",
							"name": "status",
							"type": "bool"
						}
					],
					"stateMutability": "view",
					"type": "function"
				},
				{
					"inputs": [
						{
							"internalType": "uint256",
							"name": "",
							"type": "uint256"
						}
					],
					"name": "structStatusPurchases",
					"outputs": [
						{
							"internalType": "address",
							"name": "userLogin",
							"type": "address"
						},
						{
							"internalType": "string",
							"name": "titleProduct",
							"type": "string"
						},
						{
							"internalType": "uint256",
							"name": "price",
							"type": "uint256"
						},
						{
							"internalType": "bool",
							"name": "status",
							"type": "bool"
						}
					],
					"stateMutability": "view",
					"type": "function"
				},
				{
					"inputs": [
						{
							"internalType": "uint256",
							"name": "",
							"type": "uint256"
						}
					],
					"name": "structStatusReturns",
					"outputs": [
						{
							"internalType": "address",
							"name": "userLogin",
							"type": "address"
						},
						{
							"internalType": "string",
							"name": "titleProduct",
							"type": "string"
						},
						{
							"internalType": "bool",
							"name": "status",
							"type": "bool"
						}
					],
					"stateMutability": "view",
					"type": "function"
				},
				{
					"inputs": [
						{
							"internalType": "string",
							"name": "",
							"type": "string"
						}
					],
					"name": "structUserLogins",
					"outputs": [
						{
							"internalType": "address",
							"name": "",
							"type": "address"
						}
					],
					"stateMutability": "view",
					"type": "function"
				},
				{
					"inputs": [
						{
							"internalType": "address",
							"name": "",
							"type": "address"
						}
					],
					"name": "structUsers",
					"outputs": [
						{
							"internalType": "string",
							"name": "userName",
							"type": "string"
						},
						{
							"internalType": "bytes32",
							"name": "password",
							"type": "bytes32"
						},
						{
							"internalType": "uint256",
							"name": "role",
							"type": "uint256"
						},
						{
							"internalType": "bool",
							"name": "logged",
							"type": "bool"
						}
					],
					"stateMutability": "view",
					"type": "function"
				}
			],
			"devdoc": {
				"kind": "dev",
				"methods": {},
				"version": 1
			},
			"evm": {
				"assembly": "    /* \"Documents/GitHub/Store-system-with-feedback/main.sol\":74:15422  contract coursepaper {\r... */\n  mstore(0x40, 0x80)\n    /* \"Documents/GitHub/Store-system-with-feedback/main.sol\":7318:7319  0 */\n  0x00\n    /* \"Documents/GitHub/Store-system-with-feedback/main.sol\":7283:7319  uint256 addProductShop_idProduct = 0 */\n  0x0d\n  sstore\n    /* \"Documents/GitHub/Store-system-with-feedback/main.sol\":125:1564  constructor() {\r... */\n  callvalue\n  dup1\n  iszero\n  tag_1\n  jumpi\n  0x00\n  dup1\n  revert\ntag_1:\n  pop\n    /* \"Documents/GitHub/Store-system-with-feedback/main.sol\":200:242  0x5412E9b0e4Ef9d1546DF79ae907eeE34bDCF3004 */\n  0x5412e9b0e4ef9d1546df79ae907eee34bdcf3004\n    /* \"Documents/GitHub/Store-system-with-feedback/main.sol\":180:189  shopLists */\n  0x01\n    /* \"Documents/GitHub/Store-system-with-feedback/main.sol\":180:197  shopLists[\"Beer\"] */\n  mload(0x40)\n  tag_4\n  swap1\n  shl(0xe1, 0x2132b2b9)\n    /* \"#utility.yul\":1692:1711   */\n  dup2\n  mstore\n    /* \"#utility.yul\":1736:1737   */\n  0x04\n    /* \"#utility.yul\":1727:1738   */\n  add\n  swap1\n    /* \"#utility.yul\":1490:1744   */\n  jump\n    /* \"Documents/GitHub/Store-system-with-feedback/main.sol\":180:197  shopLists[\"Beer\"] */\ntag_4:\n  swap1\n  dup2\n  mstore\n  0x40\n  dup1\n  mload\n  0x20\n  swap3\n  dup2\n  swap1\n  sub\n  dup4\n  add\n  dup2\n  keccak256\n    /* \"Documents/GitHub/Store-system-with-feedback/main.sol\":180:242  shopLists[\"Beer\"] = 0x5412E9b0e4Ef9d1546DF79ae907eeE34bDCF3004 */\n  dup1\n  sload\n  not(sub(shl(0xa0, 0x01), 0x01))\n  and\n  sub(shl(0xa0, 0x01), 0x01)\n  swap6\n  swap1\n  swap6\n  and\n  swap5\n  swap1\n  swap5\n  or\n  swap1\n  swap4\n  sstore\n    /* \"Documents/GitHub/Store-system-with-feedback/main.sol\":311:372  structShop(\"Beer\", get_hash(\"2\"), 3, false, \"1\", \"Moscow\", 0) */\n  0x0120\n  dup4\n  add\n  dup2\n  mstore\n  0x04\n  0xe0\n  dup5\n  add\n  swap1\n  dup2\n  mstore\n  shl(0xe1, 0x2132b2b9)\n    /* \"Documents/GitHub/Store-system-with-feedback/main.sol\":180:242  shopLists[\"Beer\"] = 0x5412E9b0e4Ef9d1546DF79ae907eeE34bDCF3004 */\n  0x0100\n    /* \"Documents/GitHub/Store-system-with-feedback/main.sol\":311:372  structShop(\"Beer\", get_hash(\"2\"), 3, false, \"1\", \"Moscow\", 0) */\n  dup6\n  add\n  mstore\n  dup4\n  mstore\n    /* \"Documents/GitHub/Store-system-with-feedback/main.sol\":330:343  get_hash(\"2\") */\n  dup1\n  mload\n  dup1\n  dup3\n  add\n  swap1\n  swap2\n  mstore\n  0x01\n  dup2\n  mstore\n  shl(0xf9, 0x19)\n  dup2\n  dup4\n  add\n  mstore\n    /* \"Documents/GitHub/Store-system-with-feedback/main.sol\":311:372  structShop(\"Beer\", get_hash(\"2\"), 3, false, \"1\", \"Moscow\", 0) */\n  swap1\n  dup3\n  add\n  swap1\n    /* \"Documents/GitHub/Store-system-with-feedback/main.sol\":330:343  get_hash(\"2\") */\n  tag_6\n  swap1\n    /* \"Documents/GitHub/Store-system-with-feedback/main.sol\":330:338  get_hash */\n  tag_7\n    /* \"Documents/GitHub/Store-system-with-feedback/main.sol\":330:343  get_hash(\"2\") */\n  jump\t// in\ntag_6:\n    /* \"Documents/GitHub/Store-system-with-feedback/main.sol\":311:372  structShop(\"Beer\", get_hash(\"2\"), 3, false, \"1\", \"Moscow\", 0) */\n  dup2\n  mstore\n    /* \"Documents/GitHub/Store-system-with-feedback/main.sol\":345:346  3 */\n  0x03\n    /* \"Documents/GitHub/Store-system-with-feedback/main.sol\":311:372  structShop(\"Beer\", get_hash(\"2\"), 3, false, \"1\", \"Moscow\", 0) */\n  0x20\n  dup1\n  dup4\n  add\n  swap2\n  swap1\n  swap2\n  mstore\n  0x00\n  0x40\n  dup1\n  dup5\n  add\n  dup3\n  swap1\n  mstore\n  dup1\n  mload\n  dup1\n  dup3\n  add\n  dup3\n  mstore\n  0x01\n  dup2\n  mstore\n  shl(0xf8, 0x31)\n  dup2\n  dup6\n  add\n  mstore\n  0x60\n  dup6\n  add\n  mstore\n  dup1\n  mload\n  dup1\n  dup3\n  add\n  swap1\n  swap2\n  mstore\n  0x06\n  dup2\n  mstore\n  shl(0xd0, 0x4d6f73636f77)\n  dup2\n  dup5\n  add\n  mstore\n  0x80\n  dup5\n  add\n  mstore\n  0xa0\n  swap1\n  swap3\n  add\n  dup3\n  swap1\n  mstore\n    /* \"Documents/GitHub/Store-system-with-feedback/main.sol\":265:307  0x5412E9b0e4Ef9d1546DF79ae907eeE34bDCF3004 */\n  0x5412e9b0e4ef9d1546df79ae907eee34bdcf3004\n    /* \"Documents/GitHub/Store-system-with-feedback/main.sol\":253:308  structShops[0x5412E9b0e4Ef9d1546DF79ae907eeE34bDCF3004] */\n  dup3\n  mstore\n  swap1\n  dup2\n  mstore\n    /* \"Documents/GitHub/Store-system-with-feedback/main.sol\":253:372  structShops[0x5412E9b0e4Ef9d1546DF79ae907eeE34bDCF3004] = structShop(\"Beer\", get_hash(\"2\"), 3, false, \"1\", \"Moscow\", 0) */\n  dup2\n  mload\n  dup1\n  mload\n  0x00\n  dup1\n  mload\n  0x20\n  data_f9525e0112460024fbe4d5a34594c1701ce0e90aeee55f3b18c9114979275102\n  dup4\n  codecopy\n  dup2\n  mload\n  swap2\n  mstore\n    /* \"Documents/GitHub/Store-system-with-feedback/main.sol\":253:308  structShops[0x5412E9b0e4Ef9d1546DF79ae907eeE34bDCF3004] */\n  swap3\n    /* \"Documents/GitHub/Store-system-with-feedback/main.sol\":253:372  structShops[0x5412E9b0e4Ef9d1546DF79ae907eeE34bDCF3004] = structShop(\"Beer\", get_hash(\"2\"), 3, false, \"1\", \"Moscow\", 0) */\n  tag_8\n  swap3\n    /* \"Documents/GitHub/Store-system-with-feedback/main.sol\":253:308  structShops[0x5412E9b0e4Ef9d1546DF79ae907eeE34bDCF3004] */\n  dup5\n  swap3\n    /* \"Documents/GitHub/Store-system-with-feedback/main.sol\":253:372  structShops[0x5412E9b0e4Ef9d1546DF79ae907eeE34bDCF3004] = structShop(\"Beer\", get_hash(\"2\"), 3, false, \"1\", \"Moscow\", 0) */\n  swap2\n  add\n  swap1\n  tag_9\n  jump\t// in\ntag_8:\n  pop\n  0x20\n  dup3\n  dup2\n  add\n  mload\n  0x01\n  dup4\n  add\n  sstore\n  0x40\n  dup4\n  add\n  mload\n  0x02\n  dup4\n  add\n  sstore\n  0x60\n  dup4\n  add\n  mload\n  0x03\n  dup4\n  add\n  dup1\n  sload\n  not(0xff)\n  and\n  swap2\n  iszero\n  iszero\n  swap2\n  swap1\n  swap2\n  or\n  swap1\n  sstore\n  0x80\n  dup4\n  add\n  mload\n  dup1\n  mload\n  tag_10\n  swap3\n  0x04\n  dup6\n  add\n  swap3\n  add\n  swap1\n  tag_9\n  jump\t// in\ntag_10:\n  pop\n  0xa0\n  dup3\n  add\n  mload\n  dup1\n  mload\n  tag_11\n  swap2\n  0x05\n  dup5\n  add\n  swap2\n  0x20\n  swap1\n  swap2\n  add\n  swap1\n  tag_9\n  jump\t// in\ntag_11:\n  pop\n  0xc0\n  swap2\n  swap1\n  swap2\n  add\n  mload\n  0x06\n  swap1\n  swap2\n  add\n  sstore\n    /* \"Documents/GitHub/Store-system-with-feedback/main.sol\":397:408  structShops */\n  0x00\n    /* \"Documents/GitHub/Store-system-with-feedback/main.sol\":397:452  structShops[0x5412E9b0e4Ef9d1546DF79ae907eeE34bDCF3004] */\n  0x20\n  dup2\n  swap1\n  mstore\n    /* \"Documents/GitHub/Store-system-with-feedback/main.sol\":383:391  shopList */\n  0x02\n    /* \"Documents/GitHub/Store-system-with-feedback/main.sol\":383:462  shopList.push(structShops[0x5412E9b0e4Ef9d1546DF79ae907eeE34bDCF3004].shopName) */\n  dup1\n  sload\n  0x01\n  dup2\n  add\n  dup3\n  sstore\n  swap2\n  mstore\n  0x00\n  dup1\n  mload\n  0x20\n  data_f9525e0112460024fbe4d5a34594c1701ce0e90aeee55f3b18c9114979275102\n  dup4\n  codecopy\n  dup2\n  mload\n  swap2\n  mstore\n  dup1\n  sload\n  0x00\n  dup1\n  mload\n  0x20\n  data_1ab0c6948a275349ae45a06aad66a8bd65ac18074615d53676c09b67809099e0\n  dup4\n  codecopy\n  dup2\n  mload\n  swap2\n  mstore\n  swap1\n  swap3\n  add\n  swap2\n  tag_13\n  swap1\n  tag_14\n  jump\t// in\ntag_13:\n  tag_15\n  swap3\n  swap2\n  swap1\n  tag_16\n  jump\t// in\ntag_15:\n  pop\n    /* \"Documents/GitHub/Store-system-with-feedback/main.sol\":496:538  0x49C364fedaD517382ee5A776d3071f11CfDE4C5c */\n  0x49c364fedad517382ee5a776d3071f11cfde4c5c\n    /* \"Documents/GitHub/Store-system-with-feedback/main.sol\":473:482  shopLists */\n  0x01\n    /* \"Documents/GitHub/Store-system-with-feedback/main.sol\":473:493  shopLists[\"Product\"] */\n  mload(0x40)\n  tag_17\n  swap1\n  shl(0xca, 0x141c9bd91d58dd)\n    /* \"#utility.yul\":1430:1452   */\n  dup2\n  mstore\n    /* \"#utility.yul\":1477:1478   */\n  0x07\n    /* \"#utility.yul\":1468:1479   */\n  add\n  swap1\n    /* \"#utility.yul\":1228:1485   */\n  jump\n    /* \"Documents/GitHub/Store-system-with-feedback/main.sol\":473:493  shopLists[\"Product\"] */\ntag_17:\n  swap1\n  dup2\n  mstore\n  0x40\n  dup1\n  mload\n  0x20\n  swap3\n  dup2\n  swap1\n  sub\n  dup4\n  add\n  dup2\n  keccak256\n    /* \"Documents/GitHub/Store-system-with-feedback/main.sol\":473:538  shopLists[\"Product\"] = 0x49C364fedaD517382ee5A776d3071f11CfDE4C5c */\n  dup1\n  sload\n  not(sub(shl(0xa0, 0x01), 0x01))\n  and\n  sub(shl(0xa0, 0x01), 0x01)\n  swap6\n  swap1\n  swap6\n  and\n  swap5\n  swap1\n  swap5\n  or\n  swap1\n  swap4\n  sstore\n    /* \"Documents/GitHub/Store-system-with-feedback/main.sol\":607:675  structShop(\"Product\", get_hash(\"2\"), 3, false, \"2\", \"Petersburg\", 0) */\n  0x0120\n  dup4\n  add\n  dup2\n  mstore\n  0x07\n  0xe0\n  dup5\n  add\n  swap1\n  dup2\n  mstore\n  shl(0xca, 0x141c9bd91d58dd)\n    /* \"Documents/GitHub/Store-system-with-feedback/main.sol\":473:538  shopLists[\"Product\"] = 0x49C364fedaD517382ee5A776d3071f11CfDE4C5c */\n  0x0100\n    /* \"Documents/GitHub/Store-system-with-feedback/main.sol\":607:675  structShop(\"Product\", get_hash(\"2\"), 3, false, \"2\", \"Petersburg\", 0) */\n  dup6\n  add\n  mstore\n  dup4\n  mstore\n    /* \"Documents/GitHub/Store-system-with-feedback/main.sol\":629:642  get_hash(\"2\") */\n  dup1\n  mload\n  dup1\n  dup3\n  add\n  swap1\n  swap2\n  mstore\n  0x01\n  dup2\n  mstore\n  shl(0xf9, 0x19)\n  dup2\n  dup4\n  add\n  mstore\n    /* \"Documents/GitHub/Store-system-with-feedback/main.sol\":607:675  structShop(\"Product\", get_hash(\"2\"), 3, false, \"2\", \"Petersburg\", 0) */\n  swap1\n  dup3\n  add\n  swap1\n    /* \"Documents/GitHub/Store-system-with-feedback/main.sol\":629:642  get_hash(\"2\") */\n  tag_19\n  swap1\n    /* \"Documents/GitHub/Store-system-with-feedback/main.sol\":629:637  get_hash */\n  tag_7\n    /* \"Documents/GitHub/Store-system-with-feedback/main.sol\":629:642  get_hash(\"2\") */\n  jump\t// in\ntag_19:\n    /* \"Documents/GitHub/Store-system-with-feedback/main.sol\":607:675  structShop(\"Product\", get_hash(\"2\"), 3, false, \"2\", \"Petersburg\", 0) */\n  dup2\n  mstore\n    /* \"Documents/GitHub/Store-system-with-feedback/main.sol\":644:645  3 */\n  0x03\n    /* \"Documents/GitHub/Store-system-with-feedback/main.sol\":607:675  structShop(\"Product\", get_hash(\"2\"), 3, false, \"2\", \"Petersburg\", 0) */\n  0x20\n  dup1\n  dup4\n  add\n  swap2\n  swap1\n  swap2\n  mstore\n  0x00\n  0x40\n  dup1\n  dup5\n  add\n  dup3\n  swap1\n  mstore\n  dup1\n  mload\n  dup1\n  dup3\n  add\n  dup3\n  mstore\n  0x01\n  dup2\n  mstore\n  shl(0xf9, 0x19)\n  dup2\n  dup6\n  add\n  mstore\n  0x60\n  dup6\n  add\n  mstore\n  dup1\n  mload\n  dup1\n  dup3\n  add\n  swap1\n  swap2\n  mstore\n  0x0a\n  dup2\n  mstore\n  shl(0xb0, 0x50657465727362757267)\n  dup2\n  dup5\n  add\n  mstore\n  0x80\n  dup5\n  add\n  mstore\n  0xa0\n  swap1\n  swap3\n  add\n  dup3\n  swap1\n  mstore\n    /* \"Documents/GitHub/Store-system-with-feedback/main.sol\":561:603  0x49C364fedaD517382ee5A776d3071f11CfDE4C5c */\n  0x49c364fedad517382ee5a776d3071f11cfde4c5c\n    /* \"Documents/GitHub/Store-system-with-feedback/main.sol\":549:604  structShops[0x49C364fedaD517382ee5A776d3071f11CfDE4C5c] */\n  dup3\n  mstore\n  swap1\n  dup2\n  mstore\n    /* \"Documents/GitHub/Store-system-with-feedback/main.sol\":549:675  structShops[0x49C364fedaD517382ee5A776d3071f11CfDE4C5c] = structShop(\"Product\", get_hash(\"2\"), 3, false, \"2\", \"Petersburg\", 0) */\n  dup2\n  mload\n  dup1\n  mload\n  0x00\n  dup1\n  mload\n  0x20\n  data_02d9cdcbcfa4cd8c6761b1b14b7bfe8ce5c69d2b558fc8eef153a2c2ff25ae65\n  dup4\n  codecopy\n  dup2\n  mload\n  swap2\n  mstore\n    /* \"Documents/GitHub/Store-system-with-feedback/main.sol\":549:604  structShops[0x49C364fedaD517382ee5A776d3071f11CfDE4C5c] */\n  swap3\n    /* \"Documents/GitHub/Store-system-with-feedback/main.sol\":549:675  structShops[0x49C364fedaD517382ee5A776d3071f11CfDE4C5c] = structShop(\"Product\", get_hash(\"2\"), 3, false, \"2\", \"Petersburg\", 0) */\n  tag_20\n  swap3\n    /* \"Documents/GitHub/Store-system-with-feedback/main.sol\":549:604  structShops[0x49C364fedaD517382ee5A776d3071f11CfDE4C5c] */\n  dup5\n  swap3\n    /* \"Documents/GitHub/Store-system-with-feedback/main.sol\":549:675  structShops[0x49C364fedaD517382ee5A776d3071f11CfDE4C5c] = structShop(\"Product\", get_hash(\"2\"), 3, false, \"2\", \"Petersburg\", 0) */\n  swap2\n  add\n  swap1\n  tag_9\n  jump\t// in\ntag_20:\n  pop\n  0x20\n  dup3\n  dup2\n  add\n  mload\n  0x01\n  dup4\n  add\n  sstore\n  0x40\n  dup4\n  add\n  mload\n  0x02\n  dup4\n  add\n  sstore\n  0x60\n  dup4\n  add\n  mload\n  0x03\n  dup4\n  add\n  dup1\n  sload\n  not(0xff)\n  and\n  swap2\n  iszero\n  iszero\n  swap2\n  swap1\n  swap2\n  or\n  swap1\n  sstore\n  0x80\n  dup4\n  add\n  mload\n  dup1\n  mload\n  tag_21\n  swap3\n  0x04\n  dup6\n  add\n  swap3\n  add\n  swap1\n  tag_9\n  jump\t// in\ntag_21:\n  pop\n  0xa0\n  dup3\n  add\n  mload\n  dup1\n  mload\n  tag_22\n  swap2\n  0x05\n  dup5\n  add\n  swap2\n  0x20\n  swap1\n  swap2\n  add\n  swap1\n  tag_9\n  jump\t// in\ntag_22:\n  pop\n  0xc0\n  swap2\n  swap1\n  swap2\n  add\n  mload\n  0x06\n  swap1\n  swap2\n  add\n  sstore\n    /* \"Documents/GitHub/Store-system-with-feedback/main.sol\":700:711  structShops */\n  0x00\n    /* \"Documents/GitHub/Store-system-with-feedback/main.sol\":700:755  structShops[0x49C364fedaD517382ee5A776d3071f11CfDE4C5c] */\n  0x20\n  dup2\n  swap1\n  mstore\n    /* \"Documents/GitHub/Store-system-with-feedback/main.sol\":686:694  shopList */\n  0x02\n    /* \"Documents/GitHub/Store-system-with-feedback/main.sol\":686:765  shopList.push(structShops[0x49C364fedaD517382ee5A776d3071f11CfDE4C5c].shopName) */\n  dup1\n  sload\n  0x01\n  dup2\n  add\n  dup3\n  sstore\n  swap2\n  mstore\n  0x00\n  dup1\n  mload\n  0x20\n  data_02d9cdcbcfa4cd8c6761b1b14b7bfe8ce5c69d2b558fc8eef153a2c2ff25ae65\n  dup4\n  codecopy\n  dup2\n  mload\n  swap2\n  mstore\n  dup1\n  sload\n  0x00\n  dup1\n  mload\n  0x20\n  data_1ab0c6948a275349ae45a06aad66a8bd65ac18074615d53676c09b67809099e0\n  dup4\n  codecopy\n  dup2\n  mload\n  swap2\n  mstore\n  swap1\n  swap3\n  add\n  swap2\n  tag_24\n  swap1\n  tag_14\n  jump\t// in\ntag_24:\n  tag_25\n  swap3\n  swap2\n  swap1\n  tag_16\n  jump\t// in\ntag_25:\n  pop\n    /* \"Documents/GitHub/Store-system-with-feedback/main.sol\":827:869  0xAdA67460CF329D12c1ed898710CC8Da5D40d8025 */\n  0xada67460cf329d12c1ed898710cc8da5d40d8025\n    /* \"Documents/GitHub/Store-system-with-feedback/main.sol\":800:816  structUserLogins */\n  0x05\n    /* \"Documents/GitHub/Store-system-with-feedback/main.sol\":800:824  structUserLogins[\"Peta\"] */\n  mload(0x40)\n  tag_26\n  swap1\n  shl(0xe0, 0x50657461)\n    /* \"#utility.yul\":1171:1190   */\n  dup2\n  mstore\n    /* \"#utility.yul\":1215:1216   */\n  0x04\n    /* \"#utility.yul\":1206:1217   */\n  add\n  swap1\n    /* \"#utility.yul\":969:1223   */\n  jump\n    /* \"Documents/GitHub/Store-system-with-feedback/main.sol\":800:824  structUserLogins[\"Peta\"] */\ntag_26:\n  swap1\n  dup2\n  mstore\n  0x40\n  dup1\n  mload\n  0x20\n  swap3\n  dup2\n  swap1\n  sub\n  dup4\n  add\n  dup2\n  keccak256\n    /* \"Documents/GitHub/Store-system-with-feedback/main.sol\":800:869  structUserLogins[\"Peta\"] = 0xAdA67460CF329D12c1ed898710CC8Da5D40d8025 */\n  dup1\n  sload\n  not(sub(shl(0xa0, 0x01), 0x01))\n  and\n  sub(shl(0xa0, 0x01), 0x01)\n  swap6\n  swap1\n  swap6\n  and\n  swap5\n  swap1\n  swap5\n  or\n  swap1\n  swap4\n  sstore\n    /* \"Documents/GitHub/Store-system-with-feedback/main.sol\":938:981  structUser(\"Peta\", get_hash(\"3\"), 2, false) */\n  0xc0\n  dup4\n  add\n  dup2\n  mstore\n  0x04\n  0x80\n  dup5\n  add\n  swap1\n  dup2\n  mstore\n  shl(0xe0, 0x50657461)\n  0xa0\n  dup6\n  add\n  mstore\n  dup4\n  mstore\n    /* \"Documents/GitHub/Store-system-with-feedback/main.sol\":957:970  get_hash(\"3\") */\n  dup1\n  mload\n  dup1\n  dup3\n  add\n  swap1\n  swap2\n  mstore\n  0x01\n  dup2\n  mstore\n  shl(0xf8, 0x33)\n  dup2\n  dup4\n  add\n  mstore\n    /* \"Documents/GitHub/Store-system-with-feedback/main.sol\":938:981  structUser(\"Peta\", get_hash(\"3\"), 2, false) */\n  swap1\n  dup3\n  add\n  swap1\n    /* \"Documents/GitHub/Store-system-with-feedback/main.sol\":957:970  get_hash(\"3\") */\n  tag_28\n  swap1\n    /* \"Documents/GitHub/Store-system-with-feedback/main.sol\":957:965  get_hash */\n  tag_7\n    /* \"Documents/GitHub/Store-system-with-feedback/main.sol\":957:970  get_hash(\"3\") */\n  jump\t// in\ntag_28:\n    /* \"Documents/GitHub/Store-system-with-feedback/main.sol\":938:981  structUser(\"Peta\", get_hash(\"3\"), 2, false) */\n  dup2\n  mstore\n    /* \"Documents/GitHub/Store-system-with-feedback/main.sol\":972:973  2 */\n  0x02\n    /* \"Documents/GitHub/Store-system-with-feedback/main.sol\":938:981  structUser(\"Peta\", get_hash(\"3\"), 2, false) */\n  0x20\n  dup1\n  dup4\n  add\n  swap2\n  swap1\n  swap2\n  mstore\n  0x00\n  0x40\n  swap1\n  swap3\n  add\n  dup3\n  swap1\n  mstore\n    /* \"Documents/GitHub/Store-system-with-feedback/main.sol\":892:934  0xAdA67460CF329D12c1ed898710CC8Da5D40d8025 */\n  0xada67460cf329d12c1ed898710cc8da5d40d8025\n    /* \"Documents/GitHub/Store-system-with-feedback/main.sol\":880:935  structUsers[0xAdA67460CF329D12c1ed898710CC8Da5D40d8025] */\n  swap1\n  swap2\n  mstore\n    /* \"Documents/GitHub/Store-system-with-feedback/main.sol\":880:891  structUsers */\n  0x04\n    /* \"Documents/GitHub/Store-system-with-feedback/main.sol\":880:935  structUsers[0xAdA67460CF329D12c1ed898710CC8Da5D40d8025] */\n  dup2\n  mstore\n    /* \"Documents/GitHub/Store-system-with-feedback/main.sol\":880:981  structUsers[0xAdA67460CF329D12c1ed898710CC8Da5D40d8025] = structUser(\"Peta\", get_hash(\"3\"), 2, false) */\n  dup2\n  mload\n  dup1\n  mload\n    /* \"Documents/GitHub/Store-system-with-feedback/main.sol\":880:935  structUsers[0xAdA67460CF329D12c1ed898710CC8Da5D40d8025] */\n  0x7276c473c3031176624ead5b5cbfdea5cdbc158289c185f75f825e40aed0bb37\n  swap3\n    /* \"Documents/GitHub/Store-system-with-feedback/main.sol\":880:981  structUsers[0xAdA67460CF329D12c1ed898710CC8Da5D40d8025] = structUser(\"Peta\", get_hash(\"3\"), 2, false) */\n  tag_29\n  swap3\n    /* \"Documents/GitHub/Store-system-with-feedback/main.sol\":880:935  structUsers[0xAdA67460CF329D12c1ed898710CC8Da5D40d8025] */\n  dup5\n  swap3\n    /* \"Documents/GitHub/Store-system-with-feedback/main.sol\":880:981  structUsers[0xAdA67460CF329D12c1ed898710CC8Da5D40d8025] = structUser(\"Peta\", get_hash(\"3\"), 2, false) */\n  swap2\n  add\n  swap1\n  tag_9\n  jump\t// in\ntag_29:\n  pop\n  0x20\n  dup3\n  dup2\n  add\n  mload\n  0x01\n  dup4\n  dup2\n  add\n  swap2\n  swap1\n  swap2\n  sstore\n  0x40\n  dup1\n  dup6\n  add\n  mload\n  0x02\n  dup6\n  add\n  sstore\n  0x60\n  swap1\n  swap5\n  add\n  mload\n  0x03\n  swap1\n  swap4\n  add\n  dup1\n  sload\n  not(0xff)\n  and\n  swap4\n  iszero\n  iszero\n  swap4\n  swap1\n  swap4\n  or\n  swap1\n  swap3\n  sstore\n    /* \"Documents/GitHub/Store-system-with-feedback/main.sol\":992:1007  userLoginsArray */\n  0x06\n    /* \"Documents/GitHub/Store-system-with-feedback/main.sol\":992:1020  userLoginsArray.push(\"Peta\") */\n  dup1\n  sload\n  swap3\n  dup4\n  add\n  dup2\n  sstore\n  0x00\n  mstore\n  dup3\n  mload\n  dup1\n  dup5\n  add\n  swap1\n  swap4\n  mstore\n  0x04\n  dup1\n  dup5\n  mstore\n  shl(0xe0, 0x50657461)\n  swap4\n  swap1\n  swap2\n  add\n  swap3\n  dup4\n  mstore\n  tag_31\n  swap3\n  0xf652222313e28459528d920b65115c16c04f3efc82aaedc97be59f3f377c0d3f\n  swap1\n  swap3\n  add\n  swap2\n  swap1\n  tag_9\n  jump\t// in\ntag_31:\n  pop\n    /* \"Documents/GitHub/Store-system-with-feedback/main.sol\":1031:1047  userAddressArray */\n  0x07\n    /* \"Documents/GitHub/Store-system-with-feedback/main.sol\":1031:1096  userAddressArray.push(0xAdA67460CF329D12c1ed898710CC8Da5D40d8025) */\n  dup1\n  sload\n  0x01\n  dup2\n  add\n  dup3\n  sstore\n  0x00\n  swap2\n  swap1\n  swap2\n  mstore\n  0xa66cc928b5edb82af9bd49922954155ab7b0942694bea4ce44661d9a8736c688\n  add\n  dup1\n  sload\n  not(sub(shl(0xa0, 0x01), 0x01))\n  and\n    /* \"Documents/GitHub/Store-system-with-feedback/main.sol\":1053:1095  0xAdA67460CF329D12c1ed898710CC8Da5D40d8025 */\n  0xada67460cf329d12c1ed898710cc8da5d40d8025\n    /* \"Documents/GitHub/Store-system-with-feedback/main.sol\":1031:1096  userAddressArray.push(0xAdA67460CF329D12c1ed898710CC8Da5D40d8025) */\n  or\n  swap1\n  sstore\n    /* \"Documents/GitHub/Store-system-with-feedback/main.sol\":1157:1261  structProduct(0x5412E9b0e4Ef9d1546DF79ae907eeE34bDCF3004, \"asd\", 100*(10**18), addProductShop_idProduct) */\n  0x40\n  dup1\n  mload\n  0x80\n  dup2\n  add\n  dup3\n  mstore\n    /* \"Documents/GitHub/Store-system-with-feedback/main.sol\":1171:1213  0x5412E9b0e4Ef9d1546DF79ae907eeE34bDCF3004 */\n  0x5412e9b0e4ef9d1546df79ae907eee34bdcf3004\n    /* \"Documents/GitHub/Store-system-with-feedback/main.sol\":1157:1261  structProduct(0x5412E9b0e4Ef9d1546DF79ae907eeE34bDCF3004, \"asd\", 100*(10**18), addProductShop_idProduct) */\n  dup2\n  mstore\n  dup2\n  mload\n  dup1\n  dup4\n  add\n  dup4\n  mstore\n  0x03\n  dup2\n  mstore\n  shl(0xea, 0x185cd9)\n    /* \"Documents/GitHub/Store-system-with-feedback/main.sol\":1031:1096  userAddressArray.push(0xAdA67460CF329D12c1ed898710CC8Da5D40d8025) */\n  0x20\n    /* \"Documents/GitHub/Store-system-with-feedback/main.sol\":1157:1261  structProduct(0x5412E9b0e4Ef9d1546DF79ae907eeE34bDCF3004, \"asd\", 100*(10**18), addProductShop_idProduct) */\n  dup3\n  dup2\n  add\n  swap2\n  swap1\n  swap2\n  mstore\n  dup3\n  add\n  mstore\n    /* \"Documents/GitHub/Store-system-with-feedback/main.sol\":1222:1234  100*(10**18) */\n  0x056bc75e2d63100000\n    /* \"Documents/GitHub/Store-system-with-feedback/main.sol\":1157:1261  structProduct(0x5412E9b0e4Ef9d1546DF79ae907eeE34bDCF3004, \"asd\", 100*(10**18), addProductShop_idProduct) */\n  dup2\n  dup4\n  add\n  mstore\n    /* \"Documents/GitHub/Store-system-with-feedback/main.sol\":1236:1260  addProductShop_idProduct */\n  sload(0x0d)\n    /* \"Documents/GitHub/Store-system-with-feedback/main.sol\":1157:1261  structProduct(0x5412E9b0e4Ef9d1546DF79ae907eeE34bDCF3004, \"asd\", 100*(10**18), addProductShop_idProduct) */\n  0x60\n  dup3\n  add\n  mstore\n    /* \"Documents/GitHub/Store-system-with-feedback/main.sol\":1131:1154  structProducts[\"Vodka\"] */\n  swap1\n  mload\n    /* \"Documents/GitHub/Store-system-with-feedback/main.sol\":1131:1145  structProducts */\n  0x08\n  swap1\n    /* \"Documents/GitHub/Store-system-with-feedback/main.sol\":1131:1154  structProducts[\"Vodka\"] */\n  tag_33\n  swap1\n  shl(0xd8, 0x566f646b61)\n    /* \"#utility.yul\":911:931   */\n  dup2\n  mstore\n    /* \"#utility.yul\":956:957   */\n  0x05\n    /* \"#utility.yul\":947:958   */\n  add\n  swap1\n    /* \"#utility.yul\":709:964   */\n  jump\n    /* \"Documents/GitHub/Store-system-with-feedback/main.sol\":1131:1154  structProducts[\"Vodka\"] */\ntag_33:\n  swap1\n  dup2\n  mstore\n  mload(0x40)\n  0x20\n  swap2\n  dup2\n  swap1\n  sub\n  dup3\n  add\n  swap1\n  keccak256\n    /* \"Documents/GitHub/Store-system-with-feedback/main.sol\":1131:1261  structProducts[\"Vodka\"] = structProduct(0x5412E9b0e4Ef9d1546DF79ae907eeE34bDCF3004, \"asd\", 100*(10**18), addProductShop_idProduct) */\n  dup3\n  mload\n  dup2\n  sload\n  not(sub(shl(0xa0, 0x01), 0x01))\n  and\n  sub(shl(0xa0, 0x01), 0x01)\n  swap1\n  swap2\n  and\n  or\n  dup2\n  sstore\n  dup3\n  dup3\n  add\n  mload\n  dup1\n  mload\n    /* \"Documents/GitHub/Store-system-with-feedback/main.sol\":1131:1154  structProducts[\"Vodka\"] */\n  swap2\n  swap3\n    /* \"Documents/GitHub/Store-system-with-feedback/main.sol\":1131:1261  structProducts[\"Vodka\"] = structProduct(0x5412E9b0e4Ef9d1546DF79ae907eeE34bDCF3004, \"asd\", 100*(10**18), addProductShop_idProduct) */\n  tag_35\n  swap3\n  0x01\n  dup6\n  add\n  swap3\n  swap1\n  swap2\n  add\n  swap1\n  tag_9\n  jump\t// in\ntag_35:\n  pop\n  0x40\n  dup3\n  dup2\n  add\n  mload\n  0x02\n  dup4\n  add\n  sstore\n  0x60\n  swap1\n  swap3\n  add\n  mload\n  0x03\n  swap1\n  swap2\n  add\n  sstore\n    /* \"Documents/GitHub/Store-system-with-feedback/main.sol\":1272:1283  productList */\n  0x09\n    /* \"Documents/GitHub/Store-system-with-feedback/main.sol\":1272:1297  productList.push(\"Vodka\") */\n  dup1\n  sload\n  0x01\n  dup2\n  add\n  dup3\n  sstore\n  0x00\n  swap2\n  swap1\n  swap2\n  mstore\n  dup2\n  mload\n  dup1\n  dup4\n  add\n  swap1\n  swap3\n  mstore\n  0x05\n  dup1\n  dup4\n  mstore\n  shl(0xd8, 0x566f646b61)\n  0x20\n  swap1\n  swap4\n  add\n  swap3\n  dup4\n  mstore\n  tag_37\n  swap3\n  0x00\n  dup1\n  mload\n  0x20\n  data_aef723aaf2a9471d0444688035cd22ee9e9408f4d3390ce0a2a80b76aeab390a\n  dup4\n  codecopy\n  dup2\n  mload\n  swap2\n  mstore\n  swap1\n  swap3\n  add\n  swap2\n  swap1\n  tag_9\n  jump\t// in\ntag_37:\n  pop\n    /* \"Documents/GitHub/Store-system-with-feedback/main.sol\":1308:1332  addProductShop_idProduct */\n  0x0d\n    /* \"Documents/GitHub/Store-system-with-feedback/main.sol\":1308:1334  addProductShop_idProduct++ */\n  dup1\n  sload\n  swap1\n    /* \"Documents/GitHub/Store-system-with-feedback/main.sol\":1308:1332  addProductShop_idProduct */\n  0x00\n    /* \"Documents/GitHub/Store-system-with-feedback/main.sol\":1308:1334  addProductShop_idProduct++ */\n  tag_38\n  dup4\n  tag_39\n  jump\t// in\ntag_38:\n  swap1\n  swap2\n  sstore\n  pop\n  pop\n    /* \"Documents/GitHub/Store-system-with-feedback/main.sol\":1375:1479  structProduct(0x49C364fedaD517382ee5A776d3071f11CfDE4C5c, \"asd\", 100*(10**18), addProductShop_idProduct) */\n  0x40\n  dup1\n  mload\n  0x80\n  dup2\n  add\n  dup3\n  mstore\n    /* \"Documents/GitHub/Store-system-with-feedback/main.sol\":1389:1431  0x49C364fedaD517382ee5A776d3071f11CfDE4C5c */\n  0x49c364fedad517382ee5a776d3071f11cfde4c5c\n    /* \"Documents/GitHub/Store-system-with-feedback/main.sol\":1375:1479  structProduct(0x49C364fedaD517382ee5A776d3071f11CfDE4C5c, \"asd\", 100*(10**18), addProductShop_idProduct) */\n  dup2\n  mstore\n  dup2\n  mload\n  dup1\n  dup4\n  add\n  dup4\n  mstore\n  0x03\n  dup2\n  mstore\n  shl(0xea, 0x185cd9)\n  0x20\n  dup1\n  dup4\n  add\n  swap2\n  swap1\n  swap2\n  mstore\n  dup3\n  add\n  mstore\n    /* \"Documents/GitHub/Store-system-with-feedback/main.sol\":1440:1452  100*(10**18) */\n  0x056bc75e2d63100000\n    /* \"Documents/GitHub/Store-system-with-feedback/main.sol\":1375:1479  structProduct(0x49C364fedaD517382ee5A776d3071f11CfDE4C5c, \"asd\", 100*(10**18), addProductShop_idProduct) */\n  dup2\n  dup4\n  add\n  mstore\n    /* \"Documents/GitHub/Store-system-with-feedback/main.sol\":1454:1478  addProductShop_idProduct */\n  sload(0x0d)\n    /* \"Documents/GitHub/Store-system-with-feedback/main.sol\":1375:1479  structProduct(0x49C364fedaD517382ee5A776d3071f11CfDE4C5c, \"asd\", 100*(10**18), addProductShop_idProduct) */\n  0x60\n  dup3\n  add\n  mstore\n    /* \"Documents/GitHub/Store-system-with-feedback/main.sol\":1347:1372  structProducts[\"Bannana\"] */\n  swap1\n  mload\n  shl(0xc8, 0x42616e6e616e61)\n    /* \"#utility.yul\":649:671   */\n  dup2\n  mstore\n    /* \"Documents/GitHub/Store-system-with-feedback/main.sol\":1347:1361  structProducts */\n  0x08\n  swap1\n    /* \"#utility.yul\":696:697   */\n  0x07\n    /* \"#utility.yul\":687:698   */\n  add\n    /* \"Documents/GitHub/Store-system-with-feedback/main.sol\":1347:1372  structProducts[\"Bannana\"] */\n  swap1\n  dup2\n  mstore\n  mload(0x40)\n  0x20\n  swap2\n  dup2\n  swap1\n  sub\n  dup3\n  add\n  swap1\n  keccak256\n    /* \"Documents/GitHub/Store-system-with-feedback/main.sol\":1347:1479  structProducts[\"Bannana\"] = structProduct(0x49C364fedaD517382ee5A776d3071f11CfDE4C5c, \"asd\", 100*(10**18), addProductShop_idProduct) */\n  dup3\n  mload\n  dup2\n  sload\n  not(sub(shl(0xa0, 0x01), 0x01))\n  and\n  sub(shl(0xa0, 0x01), 0x01)\n  swap1\n  swap2\n  and\n  or\n  dup2\n  sstore\n  dup3\n  dup3\n  add\n  mload\n  dup1\n  mload\n    /* \"Documents/GitHub/Store-system-with-feedback/main.sol\":1347:1372  structProducts[\"Bannana\"] */\n  swap2\n  swap3\n    /* \"Documents/GitHub/Store-system-with-feedback/main.sol\":1347:1479  structProducts[\"Bannana\"] = structProduct(0x49C364fedaD517382ee5A776d3071f11CfDE4C5c, \"asd\", 100*(10**18), addProductShop_idProduct) */\n  tag_42\n  swap3\n  0x01\n  dup6\n  add\n  swap3\n  swap1\n  swap2\n  add\n  swap1\n  tag_9\n  jump\t// in\ntag_42:\n  pop\n  0x40\n  dup3\n  dup2\n  add\n  mload\n  0x02\n  dup4\n  add\n  sstore\n  0x60\n  swap1\n  swap3\n  add\n  mload\n  0x03\n  swap1\n  swap2\n  add\n  sstore\n    /* \"Documents/GitHub/Store-system-with-feedback/main.sol\":1490:1501  productList */\n  0x09\n    /* \"Documents/GitHub/Store-system-with-feedback/main.sol\":1490:1517  productList.push(\"Bannana\") */\n  dup1\n  sload\n  0x01\n  dup2\n  add\n  dup3\n  sstore\n  0x00\n  swap2\n  swap1\n  swap2\n  mstore\n  dup2\n  mload\n  dup1\n  dup4\n  add\n  swap1\n  swap3\n  mstore\n  0x07\n  dup1\n  dup4\n  mstore\n  shl(0xc8, 0x42616e6e616e61)\n  0x20\n  swap1\n  swap4\n  add\n  swap3\n  dup4\n  mstore\n  tag_44\n  swap3\n  0x00\n  dup1\n  mload\n  0x20\n  data_aef723aaf2a9471d0444688035cd22ee9e9408f4d3390ce0a2a80b76aeab390a\n  dup4\n  codecopy\n  dup2\n  mload\n  swap2\n  mstore\n  swap1\n  swap3\n  add\n  swap2\n  swap1\n  tag_9\n  jump\t// in\ntag_44:\n  pop\n    /* \"Documents/GitHub/Store-system-with-feedback/main.sol\":1528:1552  addProductShop_idProduct */\n  0x0d\n    /* \"Documents/GitHub/Store-system-with-feedback/main.sol\":1528:1554  addProductShop_idProduct++ */\n  dup1\n  sload\n  swap1\n    /* \"Documents/GitHub/Store-system-with-feedback/main.sol\":1528:1552  addProductShop_idProduct */\n  0x00\n    /* \"Documents/GitHub/Store-system-with-feedback/main.sol\":1528:1554  addProductShop_idProduct++ */\n  tag_45\n  dup4\n  tag_39\n  jump\t// in\ntag_45:\n  swap2\n  swap1\n  pop\n  sstore\n  pop\n    /* \"Documents/GitHub/Store-system-with-feedback/main.sol\":74:15422  contract coursepaper {\r... */\n  jump(tag_67)\n    /* \"Documents/GitHub/Store-system-with-feedback/main.sol\":4422:4561  function get_hash(string memory password) public pure returns(bytes32) {\r... */\ntag_7:\n    /* \"Documents/GitHub/Store-system-with-feedback/main.sol\":4484:4491  bytes32 */\n  0x00\n    /* \"Documents/GitHub/Store-system-with-feedback/main.sol\":4542:4550  password */\n  dup2\n    /* \"Documents/GitHub/Store-system-with-feedback/main.sol\":4525:4551  abi.encodePacked(password) */\n  add(0x20, mload(0x40))\n  tag_48\n  swap2\n  swap1\n  tag_49\n  jump\t// in\ntag_48:\n  mload(0x40)\n  0x20\n  dup2\n  dup4\n  sub\n  sub\n  dup2\n  mstore\n  swap1\n  0x40\n  mstore\n    /* \"Documents/GitHub/Store-system-with-feedback/main.sol\":4515:4552  keccak256(abi.encodePacked(password)) */\n  dup1\n  mload\n  swap1\n  0x20\n  add\n  keccak256\n    /* \"Documents/GitHub/Store-system-with-feedback/main.sol\":4508:4553  return(keccak256(abi.encodePacked(password))) */\n  swap1\n  pop\n    /* \"Documents/GitHub/Store-system-with-feedback/main.sol\":4422:4561  function get_hash(string memory password) public pure returns(bytes32) {\r... */\n  swap2\n  swap1\n  pop\n  jump\t// out\n    /* \"Documents/GitHub/Store-system-with-feedback/main.sol\":74:15422  contract coursepaper {\r... */\ntag_9:\n  dup3\n  dup1\n  sload\n  tag_50\n  swap1\n  tag_14\n  jump\t// in\ntag_50:\n  swap1\n  0x00\n  mstore\n  keccak256(0x00, 0x20)\n  swap1\n  0x1f\n  add\n  0x20\n  swap1\n  div\n  dup2\n  add\n  swap3\n  dup3\n  tag_52\n  jumpi\n  0x00\n  dup6\n  sstore\n  jump(tag_55)\ntag_52:\n  dup3\n  0x1f\n  lt\n  tag_53\n  jumpi\n  dup1\n  mload\n  not(0xff)\n  and\n  dup4\n  dup1\n  add\n  or\n  dup6\n  sstore\n  jump(tag_55)\ntag_53:\n  dup3\n  dup1\n  add\n  0x01\n  add\n  dup6\n  sstore\n  dup3\n  iszero\n  tag_55\n  jumpi\n  swap2\n  dup3\n  add\ntag_54:\n  dup3\n  dup2\n  gt\n  iszero\n  tag_55\n  jumpi\n  dup3\n  mload\n  dup3\n  sstore\n  swap2\n  0x20\n  add\n  swap2\n  swap1\n  0x01\n  add\n  swap1\n  jump(tag_54)\ntag_55:\n  pop\n  tag_56\n  swap3\n  swap2\n  pop\n  tag_57\n  jump\t// in\ntag_56:\n  pop\n  swap1\n  jump\t// out\ntag_16:\n  dup3\n  dup1\n  sload\n  tag_58\n  swap1\n  tag_14\n  jump\t// in\ntag_58:\n  swap1\n  0x00\n  mstore\n  keccak256(0x00, 0x20)\n  swap1\n  0x1f\n  add\n  0x20\n  swap1\n  div\n  dup2\n  add\n  swap3\n  dup3\n  tag_60\n  jumpi\n  0x00\n  dup6\n  sstore\n  jump(tag_55)\ntag_60:\n  dup3\n  0x1f\n  lt\n  tag_61\n  jumpi\n  dup1\n  sload\n  dup6\n  sstore\n  jump(tag_55)\ntag_61:\n  dup3\n  dup1\n  add\n  0x01\n  add\n  dup6\n  sstore\n  dup3\n  iszero\n  tag_55\n  jumpi\n  0x00\n  mstore\n  keccak256(0x00, 0x20)\n  swap2\n  0x1f\n  add\n  0x20\n  swap1\n  div\n  dup3\n  add\ntag_62:\n  dup3\n  dup2\n  gt\n  iszero\n  tag_55\n  jumpi\n  dup3\n  sload\n  dup3\n  sstore\n  swap2\n  0x01\n  add\n  swap2\n  swap1\n  0x01\n  add\n  swap1\n  jump(tag_62)\ntag_57:\ntag_65:\n  dup1\n  dup3\n  gt\n  iszero\n  tag_56\n  jumpi\n  0x00\n  dup2\n  sstore\n  0x01\n  add\n  jump(tag_65)\n    /* \"#utility.yul\":14:442   */\ntag_49:\n    /* \"#utility.yul\":145:148   */\n  0x00\n    /* \"#utility.yul\":183:189   */\n  dup3\n    /* \"#utility.yul\":177:190   */\n  mload\n    /* \"#utility.yul\":208:209   */\n  0x00\n    /* \"#utility.yul\":218:347   */\ntag_69:\n    /* \"#utility.yul\":232:238   */\n  dup2\n    /* \"#utility.yul\":229:230   */\n  dup2\n    /* \"#utility.yul\":226:239   */\n  lt\n    /* \"#utility.yul\":218:347   */\n  iszero\n  tag_71\n  jumpi\n    /* \"#utility.yul\":330:334   */\n  0x20\n    /* \"#utility.yul\":314:328   */\n  dup2\n  dup7\n  add\n    /* \"#utility.yul\":310:335   */\n  dup2\n  add\n    /* \"#utility.yul\":304:336   */\n  mload\n    /* \"#utility.yul\":291:302   */\n  dup6\n  dup4\n  add\n    /* \"#utility.yul\":284:337   */\n  mstore\n    /* \"#utility.yul\":247:259   */\n  add\n    /* \"#utility.yul\":218:347   */\n  jump(tag_69)\ntag_71:\n    /* \"#utility.yul\":365:371   */\n  dup2\n    /* \"#utility.yul\":362:363   */\n  dup2\n    /* \"#utility.yul\":359:372   */\n  gt\n    /* \"#utility.yul\":356:404   */\n  iszero\n  tag_72\n  jumpi\n    /* \"#utility.yul\":400:401   */\n  0x00\n    /* \"#utility.yul\":391:397   */\n  dup3\n    /* \"#utility.yul\":386:389   */\n  dup6\n    /* \"#utility.yul\":382:398   */\n  add\n    /* \"#utility.yul\":375:402   */\n  mstore\n    /* \"#utility.yul\":356:404   */\ntag_72:\n  pop\n    /* \"#utility.yul\":420:436   */\n  swap2\n  swap1\n  swap2\n  add\n  swap3\n    /* \"#utility.yul\":14:442   */\n  swap2\n  pop\n  pop\n  jump\t// out\n    /* \"#utility.yul\":1749:2129   */\ntag_14:\n    /* \"#utility.yul\":1828:1829   */\n  0x01\n    /* \"#utility.yul\":1824:1836   */\n  dup2\n  dup2\n  shr\n  swap1\n    /* \"#utility.yul\":1871:1883   */\n  dup3\n  and\n  dup1\n    /* \"#utility.yul\":1892:1953   */\n  tag_79\n  jumpi\n    /* \"#utility.yul\":1946:1950   */\n  0x7f\n    /* \"#utility.yul\":1938:1944   */\n  dup3\n    /* \"#utility.yul\":1934:1951   */\n  and\n    /* \"#utility.yul\":1924:1951   */\n  swap2\n  pop\n    /* \"#utility.yul\":1892:1953   */\ntag_79:\n    /* \"#utility.yul\":1999:2001   */\n  0x20\n    /* \"#utility.yul\":1991:1997   */\n  dup3\n    /* \"#utility.yul\":1988:2002   */\n  lt\n    /* \"#utility.yul\":1968:1986   */\n  dup2\n    /* \"#utility.yul\":1965:2003   */\n  eq\n    /* \"#utility.yul\":1962:2123   */\n  iszero\n  tag_80\n  jumpi\n    /* \"#utility.yul\":2045:2055   */\n  0x4e487b71\n    /* \"#utility.yul\":2040:2043   */\n  0xe0\n    /* \"#utility.yul\":2036:2056   */\n  shl\n    /* \"#utility.yul\":2033:2034   */\n  0x00\n    /* \"#utility.yul\":2026:2057   */\n  mstore\n    /* \"#utility.yul\":2080:2084   */\n  0x22\n    /* \"#utility.yul\":2077:2078   */\n  0x04\n    /* \"#utility.yul\":2070:2085   */\n  mstore\n    /* \"#utility.yul\":2108:2112   */\n  0x24\n    /* \"#utility.yul\":2105:2106   */\n  0x00\n    /* \"#utility.yul\":2098:2113   */\n  revert\n    /* \"#utility.yul\":1962:2123   */\ntag_80:\n  pop\n    /* \"#utility.yul\":1749:2129   */\n  swap2\n  swap1\n  pop\n  jump\t// out\n    /* \"#utility.yul\":2134:2366   */\ntag_39:\n    /* \"#utility.yul\":2173:2176   */\n  0x00\n  not(0x00)\n    /* \"#utility.yul\":2194:2211   */\n  dup3\n  eq\n    /* \"#utility.yul\":2191:2331   */\n  iszero\n  tag_82\n  jumpi\n    /* \"#utility.yul\":2253:2263   */\n  0x4e487b71\n    /* \"#utility.yul\":2248:2251   */\n  0xe0\n    /* \"#utility.yul\":2244:2264   */\n  shl\n    /* \"#utility.yul\":2241:2242   */\n  0x00\n    /* \"#utility.yul\":2234:2265   */\n  mstore\n    /* \"#utility.yul\":2288:2292   */\n  0x11\n    /* \"#utility.yul\":2285:2286   */\n  0x04\n    /* \"#utility.yul\":2278:2293   */\n  mstore\n    /* \"#utility.yul\":2316:2320   */\n  0x24\n    /* \"#utility.yul\":2313:2314   */\n  0x00\n    /* \"#utility.yul\":2306:2321   */\n  revert\n    /* \"#utility.yul\":2191:2331   */\ntag_82:\n  pop\n    /* \"#utility.yul\":2358:2359   */\n  0x01\n    /* \"#utility.yul\":2347:2360   */\n  add\n  swap1\n    /* \"#utility.yul\":2134:2366   */\n  jump\t// out\ntag_67:\n    /* \"Documents/GitHub/Store-system-with-feedback/main.sol\":74:15422  contract coursepaper {\r... */\n  dataSize(sub_0)\n  dup1\n  dataOffset(sub_0)\n  0x00\n  codecopy\n  0x00\n  return\nstop\ndata_02d9cdcbcfa4cd8c6761b1b14b7bfe8ce5c69d2b558fc8eef153a2c2ff25ae65 b5b2e77f7cc5f741808c088fc930a78382cbc738160d08c471b4672fc39743aa\ndata_1ab0c6948a275349ae45a06aad66a8bd65ac18074615d53676c09b67809099e0 405787fa12a823e0f2b7631cc41b3ba8828b3321ca811111fa75cd3aa3bb5ace\ndata_aef723aaf2a9471d0444688035cd22ee9e9408f4d3390ce0a2a80b76aeab390a 6e1540171b6c0c960b71a7020d9f60077f6af931a8bbf590da0223dacf75c7af\ndata_f9525e0112460024fbe4d5a34594c1701ce0e90aeee55f3b18c9114979275102 418456ba3c801fd0a494a221a407852a26db46c4f8395142565b3b3cd0653b99\n\nsub_0: assembly {\n        /* \"Documents/GitHub/Store-system-with-feedback/main.sol\":74:15422  contract coursepaper {\r... */\n      mstore(0x40, 0x80)\n      jumpi(tag_1, lt(calldatasize, 0x04))\n      shr(0xe0, calldataload(0x00))\n      dup1\n      0x033ff0b8\n      eq\n      tag_2\n      jumpi\n      dup1\n      0x04ac16f6\n      eq\n      tag_3\n      jumpi\n      dup1\n      0x0c72b1ec\n      eq\n      tag_4\n      jumpi\n      dup1\n      0x0e1c81b2\n      eq\n      tag_5\n      jumpi\n      dup1\n      0x146dc6ed\n      eq\n      tag_6\n      jumpi\n      dup1\n      0x1bbe970a\n      eq\n      tag_7\n      jumpi\n      dup1\n      0x1e279a37\n      eq\n      tag_8\n      jumpi\n      dup1\n      0x1f8daac8\n      eq\n      tag_9\n      jumpi\n      dup1\n      0x29e795f3\n      eq\n      tag_10\n      jumpi\n      dup1\n      0x2ccdef7c\n      eq\n      tag_11\n      jumpi\n      dup1\n      0x3b84aedc\n      eq\n      tag_12\n      jumpi\n      dup1\n      0x521b9170\n      eq\n      tag_13\n      jumpi\n      dup1\n      0x55149fd5\n      eq\n      tag_14\n      jumpi\n      dup1\n      0x5828c584\n      eq\n      tag_15\n      jumpi\n      dup1\n      0x5bbc9a3f\n      eq\n      tag_16\n      jumpi\n      dup1\n      0x5bd37c9e\n      eq\n      tag_17\n      jumpi\n      dup1\n      0x5bdb63fa\n      eq\n      tag_18\n      jumpi\n      dup1\n      0x6ba44d3c\n      eq\n      tag_19\n      jumpi\n      dup1\n      0x6c05dd1d\n      eq\n      tag_20\n      jumpi\n      dup1\n      0x7033a382\n      eq\n      tag_21\n      jumpi\n      dup1\n      0x73b62bd0\n      eq\n      tag_22\n      jumpi\n      dup1\n      0x775eb9e6\n      eq\n      tag_23\n      jumpi\n      dup1\n      0x845952a8\n      eq\n      tag_24\n      jumpi\n      dup1\n      0x87048043\n      eq\n      tag_25\n      jumpi\n      dup1\n      0x8e23cb40\n      eq\n      tag_26\n      jumpi\n      dup1\n      0x961865f0\n      eq\n      tag_27\n      jumpi\n      dup1\n      0xa985036d\n      eq\n      tag_28\n      jumpi\n      dup1\n      0xa9f9482b\n      eq\n      tag_29\n      jumpi\n      dup1\n      0xbbd43363\n      eq\n      tag_30\n      jumpi\n      dup1\n      0xc4957fa0\n      eq\n      tag_31\n      jumpi\n      dup1\n      0xcc21c188\n      eq\n      tag_32\n      jumpi\n      dup1\n      0xd22d9020\n      eq\n      tag_33\n      jumpi\n      dup1\n      0xd68cf8c1\n      eq\n      tag_34\n      jumpi\n      dup1\n      0xdce39151\n      eq\n      tag_35\n      jumpi\n      dup1\n      0xde3ab424\n      eq\n      tag_36\n      jumpi\n    tag_1:\n      0x00\n      dup1\n      revert\n        /* \"Documents/GitHub/Store-system-with-feedback/main.sol\":3207:3346  function get_role_shop(string memory login) public view returns(uint) {\r... */\n    tag_2:\n      callvalue\n      dup1\n      iszero\n      tag_37\n      jumpi\n      0x00\n      dup1\n      revert\n    tag_37:\n      pop\n      tag_38\n      tag_39\n      calldatasize\n      0x04\n      tag_40\n      jump\t// in\n    tag_39:\n      tag_41\n      jump\t// in\n    tag_38:\n      mload(0x40)\n        /* \"#utility.yul\":9786:9811   */\n      swap1\n      dup2\n      mstore\n        /* \"#utility.yul\":9774:9776   */\n      0x20\n        /* \"#utility.yul\":9759:9777   */\n      add\n        /* \"Documents/GitHub/Store-system-with-feedback/main.sol\":3207:3346  function get_role_shop(string memory login) public view returns(uint) {\r... */\n    tag_42:\n      mload(0x40)\n      dup1\n      swap2\n      sub\n      swap1\n      return\n        /* \"Documents/GitHub/Store-system-with-feedback/main.sol\":12144:12259  function login_out_shop(string memory login) public {\r... */\n    tag_3:\n      callvalue\n      dup1\n      iszero\n      tag_44\n      jumpi\n      0x00\n      dup1\n      revert\n    tag_44:\n      pop\n      tag_45\n      tag_46\n      calldatasize\n      0x04\n      tag_40\n      jump\t// in\n    tag_46:\n      tag_47\n      jump\t// in\n    tag_45:\n      stop\n        /* \"Documents/GitHub/Store-system-with-feedback/main.sol\":8341:8981  function acceptPurchase (uint idPurchase, bool confirmation) public payable {\r... */\n    tag_4:\n      tag_45\n      tag_49\n      calldatasize\n      0x04\n      tag_50\n      jump\t// in\n    tag_49:\n      tag_51\n      jump\t// in\n        /* \"Documents/GitHub/Store-system-with-feedback/main.sol\":14347:14669  function create_user(address addr, string memory login, bytes32 password) public {\r... */\n    tag_5:\n      callvalue\n      dup1\n      iszero\n      tag_52\n      jumpi\n      0x00\n      dup1\n      revert\n    tag_52:\n      pop\n      tag_45\n      tag_54\n      calldatasize\n      0x04\n      tag_55\n      jump\t// in\n    tag_54:\n      tag_56\n      jump\t// in\n        /* \"Documents/GitHub/Store-system-with-feedback/main.sol\":12348:12616  function productPurchases(string memory titleProduct) public payable {\r... */\n    tag_6:\n      tag_45\n      tag_58\n      calldatasize\n      0x04\n      tag_40\n      jump\t// in\n    tag_58:\n      tag_59\n      jump\t// in\n        /* \"Documents/GitHub/Store-system-with-feedback/main.sol\":6028:6078  mapping(string => address) public structUserLogins */\n    tag_7:\n      callvalue\n      dup1\n      iszero\n      tag_60\n      jumpi\n      0x00\n      dup1\n      revert\n    tag_60:\n      pop\n      tag_61\n      tag_62\n      calldatasize\n      0x04\n      tag_40\n      jump\t// in\n    tag_62:\n      dup1\n      mload\n      0x20\n      dup2\n      dup4\n      add\n      dup2\n      add\n      dup1\n      mload\n      0x05\n      dup3\n      mstore\n      swap3\n      dup3\n      add\n      swap2\n      swap1\n      swap4\n      add\n      keccak256\n      swap2\n      mstore\n      sload\n      sub(shl(0xa0, 0x01), 0x01)\n      and\n      dup2\n      jump\n    tag_61:\n      mload(0x40)\n      sub(shl(0xa0, 0x01), 0x01)\n        /* \"#utility.yul\":7251:7283   */\n      swap1\n      swap2\n      and\n        /* \"#utility.yul\":7233:7284   */\n      dup2\n      mstore\n        /* \"#utility.yul\":7221:7223   */\n      0x20\n        /* \"#utility.yul\":7206:7224   */\n      add\n        /* \"Documents/GitHub/Store-system-with-feedback/main.sol\":6028:6078  mapping(string => address) public structUserLogins */\n      tag_42\n        /* \"#utility.yul\":7087:7290   */\n      jump\n        /* \"Documents/GitHub/Store-system-with-feedback/main.sol\":4218:4355  function get_balance(address adr) public view returns (uint) {\r... */\n    tag_8:\n      callvalue\n      dup1\n      iszero\n      tag_66\n      jumpi\n      0x00\n      dup1\n      revert\n    tag_66:\n      pop\n      tag_38\n      tag_68\n      calldatasize\n      0x04\n      tag_69\n      jump\t// in\n    tag_68:\n      sub(shl(0xa0, 0x01), 0x01)\n        /* \"Documents/GitHub/Store-system-with-feedback/main.sol\":4308:4319  adr.balance */\n      and\n      balance\n      swap1\n        /* \"Documents/GitHub/Store-system-with-feedback/main.sol\":4218:4355  function get_balance(address adr) public view returns (uint) {\r... */\n      jump\n        /* \"Documents/GitHub/Store-system-with-feedback/main.sol\":1727:1831  function get_shop_list() public view returns(string[] memory) {\r... */\n    tag_9:\n      callvalue\n      dup1\n      iszero\n      tag_72\n      jumpi\n      0x00\n      dup1\n      revert\n    tag_72:\n      pop\n      tag_73\n      tag_74\n      jump\t// in\n    tag_73:\n      mload(0x40)\n      tag_42\n      swap2\n      swap1\n      tag_76\n      jump\t// in\n        /* \"Documents/GitHub/Store-system-with-feedback/main.sol\":11162:11581  function leaveComment (string memory userName, string[] memory comment) public {\r... */\n    tag_10:\n      callvalue\n      dup1\n      iszero\n      tag_77\n      jumpi\n      0x00\n      dup1\n      revert\n    tag_77:\n      pop\n      tag_45\n      tag_79\n      calldatasize\n      0x04\n      tag_80\n      jump\t// in\n    tag_79:\n      tag_81\n      jump\t// in\n        /* \"Documents/GitHub/Store-system-with-feedback/main.sol\":9045:9548  function acceptReturn(uint idReturn, bool confirmation) public payable {\r... */\n    tag_11:\n      tag_45\n      tag_83\n      calldatasize\n      0x04\n      tag_50\n      jump\t// in\n    tag_83:\n      tag_84\n      jump\t// in\n        /* \"Documents/GitHub/Store-system-with-feedback/main.sol\":2974:3119  function check_logged_shop(string memory login) public view returns(bool) {\r... */\n    tag_12:\n      callvalue\n      dup1\n      iszero\n      tag_85\n      jumpi\n      0x00\n      dup1\n      revert\n    tag_85:\n      pop\n      tag_86\n      tag_87\n      calldatasize\n      0x04\n      tag_40\n      jump\t// in\n    tag_87:\n      tag_88\n      jump\t// in\n    tag_86:\n      mload(0x40)\n        /* \"#utility.yul\":9613:9627   */\n      swap1\n      iszero\n        /* \"#utility.yul\":9606:9628   */\n      iszero\n        /* \"#utility.yul\":9588:9629   */\n      dup2\n      mstore\n        /* \"#utility.yul\":9576:9578   */\n      0x20\n        /* \"#utility.yul\":9561:9579   */\n      add\n        /* \"Documents/GitHub/Store-system-with-feedback/main.sol\":2974:3119  function check_logged_shop(string memory login) public view returns(bool) {\r... */\n      tag_42\n        /* \"#utility.yul\":9448:9635   */\n      jump\n        /* \"Documents/GitHub/Store-system-with-feedback/main.sol\":15276:15398  function login_out_user(string memory login) public {\r... */\n    tag_13:\n      callvalue\n      dup1\n      iszero\n      tag_91\n      jumpi\n      0x00\n      dup1\n      revert\n    tag_91:\n      pop\n      tag_45\n      tag_93\n      calldatasize\n      0x04\n      tag_40\n      jump\t// in\n    tag_93:\n      tag_94\n      jump\t// in\n        /* \"Documents/GitHub/Store-system-with-feedback/main.sol\":3438:3577  function get_city(string memory login) public view returns(string memory) {\r... */\n    tag_14:\n      callvalue\n      dup1\n      iszero\n      tag_95\n      jumpi\n      0x00\n      dup1\n      revert\n    tag_95:\n      pop\n      tag_96\n      tag_97\n      calldatasize\n      0x04\n      tag_40\n      jump\t// in\n    tag_97:\n      tag_98\n      jump\t// in\n    tag_96:\n      mload(0x40)\n      tag_42\n      swap2\n      swap1\n      tag_100\n      jump\t// in\n        /* \"Documents/GitHub/Store-system-with-feedback/main.sol\":13700:14277  function productMarriage(string memory titleProduct) public {\r... */\n    tag_15:\n      callvalue\n      dup1\n      iszero\n      tag_101\n      jumpi\n      0x00\n      dup1\n      revert\n    tag_101:\n      pop\n      tag_45\n      tag_103\n      calldatasize\n      0x04\n      tag_40\n      jump\t// in\n    tag_103:\n      tag_104\n      jump\t// in\n        /* \"Documents/GitHub/Store-system-with-feedback/main.sol\":3747:3899  function check_logged_user(string memory login) public view returns(bool) {\r... */\n    tag_16:\n      callvalue\n      dup1\n      iszero\n      tag_105\n      jumpi\n      0x00\n      dup1\n      revert\n    tag_105:\n      pop\n      tag_86\n      tag_107\n      calldatasize\n      0x04\n      tag_40\n      jump\t// in\n    tag_107:\n      tag_108\n      jump\t// in\n        /* \"Documents/GitHub/Store-system-with-feedback/main.sol\":2766:2876  function get_product_list() public view returns(string[] memory) {\r... */\n    tag_17:\n      callvalue\n      dup1\n      iszero\n      tag_110\n      jumpi\n      0x00\n      dup1\n      revert\n    tag_110:\n      pop\n      tag_73\n      tag_112\n      jump\t// in\n        /* \"Documents/GitHub/Store-system-with-feedback/main.sol\":3995:4141  function get_role_user(string memory login) public view returns(uint) {\r... */\n    tag_18:\n      callvalue\n      dup1\n      iszero\n      tag_114\n      jumpi\n      0x00\n      dup1\n      revert\n    tag_114:\n      pop\n      tag_38\n      tag_116\n      calldatasize\n      0x04\n      tag_40\n      jump\t// in\n    tag_116:\n      tag_117\n      jump\t// in\n        /* \"Documents/GitHub/Store-system-with-feedback/main.sol\":4639:4926  function get_address(string memory login) public view returns(address) {\r... */\n    tag_19:\n      callvalue\n      dup1\n      iszero\n      tag_119\n      jumpi\n      0x00\n      dup1\n      revert\n    tag_119:\n      pop\n      tag_61\n      tag_121\n      calldatasize\n      0x04\n      tag_40\n      jump\t// in\n    tag_121:\n      tag_122\n      jump\t// in\n        /* \"Documents/GitHub/Store-system-with-feedback/main.sol\":7326:7616  function addProductShop (string memory title, uint256 price, string memory description) public {\r... */\n    tag_20:\n      callvalue\n      dup1\n      iszero\n      tag_124\n      jumpi\n      0x00\n      dup1\n      revert\n    tag_124:\n      pop\n      tag_45\n      tag_126\n      calldatasize\n      0x04\n      tag_127\n      jump\t// in\n    tag_126:\n      tag_128\n      jump\t// in\n        /* \"Documents/GitHub/Store-system-with-feedback/main.sol\":12690:13003  function refusalToPurchase (uint idPurchase) public payable {\r... */\n    tag_21:\n      tag_45\n      tag_130\n      calldatasize\n      0x04\n      tag_131\n      jump\t// in\n    tag_130:\n      tag_132\n      jump\t// in\n        /* \"Documents/GitHub/Store-system-with-feedback/main.sol\":7126:7177  structStatusMarriage[] public structStatusMarriages */\n    tag_22:\n      callvalue\n      dup1\n      iszero\n      tag_133\n      jumpi\n      0x00\n      dup1\n      revert\n    tag_133:\n      pop\n      tag_134\n      tag_135\n      calldatasize\n      0x04\n      tag_131\n      jump\t// in\n    tag_135:\n      tag_136\n      jump\t// in\n    tag_134:\n      mload(0x40)\n      tag_42\n      swap4\n      swap3\n      swap2\n      swap1\n      tag_138\n      jump\t// in\n        /* \"Documents/GitHub/Store-system-with-feedback/main.sol\":11661:12063  function login_shop(string memory login, bytes32 password) public {\r... */\n    tag_23:\n      callvalue\n      dup1\n      iszero\n      tag_139\n      jumpi\n      0x00\n      dup1\n      revert\n    tag_139:\n      pop\n      tag_45\n      tag_141\n      calldatasize\n      0x04\n      tag_142\n      jump\t// in\n    tag_141:\n      tag_143\n      jump\t// in\n        /* \"Documents/GitHub/Store-system-with-feedback/main.sol\":4422:4561  function get_hash(string memory password) public pure returns(bytes32) {\r... */\n    tag_24:\n      callvalue\n      dup1\n      iszero\n      tag_144\n      jumpi\n      0x00\n      dup1\n      revert\n    tag_144:\n      pop\n      tag_38\n      tag_146\n      calldatasize\n      0x04\n      tag_40\n      jump\t// in\n    tag_146:\n      tag_147\n      jump\t// in\n        /* \"Documents/GitHub/Store-system-with-feedback/main.sol\":9606:10129  function acceptMarriage(uint idMarriage, bool confirmation) public payable {\r... */\n    tag_25:\n      tag_45\n      tag_151\n      calldatasize\n      0x04\n      tag_50\n      jump\t// in\n    tag_151:\n      tag_152\n      jump\t// in\n        /* \"Documents/GitHub/Store-system-with-feedback/main.sol\":5288:5338  mapping (address => structShop) public structShops */\n    tag_26:\n      callvalue\n      dup1\n      iszero\n      tag_153\n      jumpi\n      0x00\n      dup1\n      revert\n    tag_153:\n      pop\n      tag_154\n      tag_155\n      calldatasize\n      0x04\n      tag_69\n      jump\t// in\n    tag_155:\n      tag_156\n      jump\t// in\n    tag_154:\n      mload(0x40)\n      tag_42\n      swap8\n      swap7\n      swap6\n      swap5\n      swap4\n      swap3\n      swap2\n      swap1\n      tag_158\n      jump\t// in\n        /* \"Documents/GitHub/Store-system-with-feedback/main.sol\":5972:6021  mapping(address => structUser) public structUsers */\n    tag_27:\n      callvalue\n      dup1\n      iszero\n      tag_159\n      jumpi\n      0x00\n      dup1\n      revert\n    tag_159:\n      pop\n      tag_160\n      tag_161\n      calldatasize\n      0x04\n      tag_69\n      jump\t// in\n    tag_161:\n      tag_162\n      jump\t// in\n    tag_160:\n      mload(0x40)\n      tag_42\n      swap5\n      swap4\n      swap3\n      swap2\n      swap1\n      tag_164\n      jump\t// in\n        /* \"Documents/GitHub/Store-system-with-feedback/main.sol\":10212:11065  function getStoryRating(string memory shopName) public view returns(uint) {\r... */\n    tag_28:\n      callvalue\n      dup1\n      iszero\n      tag_165\n      jumpi\n      0x00\n      dup1\n      revert\n    tag_165:\n      pop\n      tag_38\n      tag_167\n      calldatasize\n      0x04\n      tag_40\n      jump\t// in\n    tag_167:\n      tag_168\n      jump\t// in\n        /* \"Documents/GitHub/Store-system-with-feedback/main.sol\":6873:6920  structStatusReturn[] public structStatusReturns */\n    tag_29:\n      callvalue\n      dup1\n      iszero\n      tag_170\n      jumpi\n      0x00\n      dup1\n      revert\n    tag_170:\n      pop\n      tag_134\n      tag_172\n      calldatasize\n      0x04\n      tag_131\n      jump\t// in\n    tag_172:\n      tag_173\n      jump\t// in\n        /* \"Documents/GitHub/Store-system-with-feedback/main.sol\":13069:13640  function productReturn(string memory titleProduct) public {\r... */\n    tag_30:\n      callvalue\n      dup1\n      iszero\n      tag_175\n      jumpi\n      0x00\n      dup1\n      revert\n    tag_175:\n      pop\n      tag_45\n      tag_177\n      calldatasize\n      0x04\n      tag_40\n      jump\t// in\n    tag_177:\n      tag_178\n      jump\t// in\n        /* \"Documents/GitHub/Store-system-with-feedback/main.sol\":5345:5388  mapping(string => address) public shopLists */\n    tag_31:\n      callvalue\n      dup1\n      iszero\n      tag_179\n      jumpi\n      0x00\n      dup1\n      revert\n    tag_179:\n      pop\n      tag_61\n      tag_181\n      calldatasize\n      0x04\n      tag_40\n      jump\t// in\n    tag_181:\n      dup1\n      mload\n      0x20\n      dup2\n      dup4\n      add\n      dup2\n      add\n      dup1\n      mload\n      0x01\n      dup3\n      mstore\n      swap3\n      dup3\n      add\n      swap2\n      swap1\n      swap4\n      add\n      keccak256\n      swap2\n      mstore\n      sload\n      sub(shl(0xa0, 0x01), 0x01)\n      and\n      dup2\n      jump\n        /* \"Documents/GitHub/Store-system-with-feedback/main.sol\":7691:8279  function leaveFeedback (string memory shop, string memory feedback, uint256 rating) public {\r... */\n    tag_32:\n      callvalue\n      dup1\n      iszero\n      tag_184\n      jumpi\n      0x00\n      dup1\n      revert\n    tag_184:\n      pop\n      tag_45\n      tag_186\n      calldatasize\n      0x04\n      tag_187\n      jump\t// in\n    tag_186:\n      tag_188\n      jump\t// in\n        /* \"Documents/GitHub/Store-system-with-feedback/main.sol\":14757:15187  function login_user(string memory login, bytes32 password) public {\r... */\n    tag_33:\n      callvalue\n      dup1\n      iszero\n      tag_189\n      jumpi\n      0x00\n      dup1\n      revert\n    tag_189:\n      pop\n      tag_45\n      tag_191\n      calldatasize\n      0x04\n      tag_142\n      jump\t// in\n    tag_191:\n      tag_192\n      jump\t// in\n        /* \"Documents/GitHub/Store-system-with-feedback/main.sol\":6328:6382  mapping(string => structProduct) public structProducts */\n    tag_34:\n      callvalue\n      dup1\n      iszero\n      tag_193\n      jumpi\n      0x00\n      dup1\n      revert\n    tag_193:\n      pop\n      tag_194\n      tag_195\n      calldatasize\n      0x04\n      tag_40\n      jump\t// in\n    tag_195:\n      tag_196\n      jump\t// in\n    tag_194:\n      mload(0x40)\n      tag_42\n      swap5\n      swap4\n      swap3\n      swap2\n      swap1\n      tag_198\n      jump\t// in\n        /* \"Documents/GitHub/Store-system-with-feedback/main.sol\":6635:6686  structStatusPurchase[] public structStatusPurchases */\n    tag_35:\n      callvalue\n      dup1\n      iszero\n      tag_199\n      jumpi\n      0x00\n      dup1\n      revert\n    tag_199:\n      pop\n      tag_200\n      tag_201\n      calldatasize\n      0x04\n      tag_131\n      jump\t// in\n    tag_201:\n      tag_202\n      jump\t// in\n    tag_200:\n      mload(0x40)\n      tag_42\n      swap5\n      swap4\n      swap3\n      swap2\n      swap1\n      tag_204\n      jump\t// in\n        /* \"Documents/GitHub/Store-system-with-feedback/main.sol\":1936:2661  function get_product_list_for_login(string memory login) public view returns(string[] memory) {\r... */\n    tag_36:\n      callvalue\n      dup1\n      iszero\n      tag_205\n      jumpi\n      0x00\n      dup1\n      revert\n    tag_205:\n      pop\n      tag_73\n      tag_207\n      calldatasize\n      0x04\n      tag_40\n      jump\t// in\n    tag_207:\n      tag_208\n      jump\t// in\n        /* \"Documents/GitHub/Store-system-with-feedback/main.sol\":3207:3346  function get_role_shop(string memory login) public view returns(uint) {\r... */\n    tag_41:\n        /* \"Documents/GitHub/Store-system-with-feedback/main.sol\":3271:3275  uint */\n      0x00\n        /* \"Documents/GitHub/Store-system-with-feedback/main.sol\":3299:3310  structShops */\n      dup1\n        /* \"Documents/GitHub/Store-system-with-feedback/main.sol\":3299:3328  structShops[shopLists[login]] */\n      0x00\n        /* \"Documents/GitHub/Store-system-with-feedback/main.sol\":3311:3320  shopLists */\n      0x01\n        /* \"Documents/GitHub/Store-system-with-feedback/main.sol\":3321:3326  login */\n      dup5\n        /* \"Documents/GitHub/Store-system-with-feedback/main.sol\":3311:3327  shopLists[login] */\n      mload(0x40)\n      tag_211\n      swap2\n      swap1\n      tag_212\n      jump\t// in\n    tag_211:\n      swap1\n      dup2\n      mstore\n      0x40\n      dup1\n      mload\n      0x20\n      swap3\n      dup2\n      swap1\n      sub\n      dup4\n      add\n      swap1\n      keccak256\n      sload\n      sub(shl(0xa0, 0x01), 0x01)\n      and\n        /* \"Documents/GitHub/Store-system-with-feedback/main.sol\":3299:3328  structShops[shopLists[login]] */\n      dup4\n      mstore\n      swap1\n      dup3\n      add\n      swap3\n      swap1\n      swap3\n      mstore\n      add\n      0x00\n      keccak256\n        /* \"Documents/GitHub/Store-system-with-feedback/main.sol\":3299:3333  structShops[shopLists[login]].role */\n      0x02\n      add\n      sload\n      swap3\n      swap2\n      pop\n      pop\n        /* \"Documents/GitHub/Store-system-with-feedback/main.sol\":3207:3346  function get_role_shop(string memory login) public view returns(uint) {\r... */\n      jump\t// out\n        /* \"Documents/GitHub/Store-system-with-feedback/main.sol\":12144:12259  function login_out_shop(string memory login) public {\r... */\n    tag_47:\n        /* \"Documents/GitHub/Store-system-with-feedback/main.sol\":12246:12251  false */\n      0x00\n        /* \"Documents/GitHub/Store-system-with-feedback/main.sol\":12207:12218  structShops */\n      dup1\n        /* \"Documents/GitHub/Store-system-with-feedback/main.sol\":12207:12236  structShops[shopLists[login]] */\n      0x00\n        /* \"Documents/GitHub/Store-system-with-feedback/main.sol\":12219:12228  shopLists */\n      0x01\n        /* \"Documents/GitHub/Store-system-with-feedback/main.sol\":12229:12234  login */\n      dup5\n        /* \"Documents/GitHub/Store-system-with-feedback/main.sol\":12219:12235  shopLists[login] */\n      mload(0x40)\n      tag_214\n      swap2\n      swap1\n      tag_212\n      jump\t// in\n    tag_214:\n      swap1\n      dup2\n      mstore\n      0x40\n      dup1\n      mload\n      0x20\n      swap3\n      dup2\n      swap1\n      sub\n      dup4\n      add\n      swap1\n      keccak256\n      sload\n      sub(shl(0xa0, 0x01), 0x01)\n      and\n        /* \"Documents/GitHub/Store-system-with-feedback/main.sol\":12207:12236  structShops[shopLists[login]] */\n      dup4\n      mstore\n      swap1\n      dup3\n      add\n      swap3\n      swap1\n      swap3\n      mstore\n      add\n      0x00\n      keccak256\n        /* \"Documents/GitHub/Store-system-with-feedback/main.sol\":12207:12243  structShops[shopLists[login]].logged */\n      0x03\n      add\n        /* \"Documents/GitHub/Store-system-with-feedback/main.sol\":12207:12251  structShops[shopLists[login]].logged = false */\n      dup1\n      sload\n      not(0xff)\n      and\n      swap2\n      iszero\n      iszero\n      swap2\n      swap1\n      swap2\n      or\n      swap1\n      sstore\n      pop\n        /* \"Documents/GitHub/Store-system-with-feedback/main.sol\":12144:12259  function login_out_shop(string memory login) public {\r... */\n      jump\t// out\n        /* \"Documents/GitHub/Store-system-with-feedback/main.sol\":8341:8981  function acceptPurchase (uint idPurchase, bool confirmation) public payable {\r... */\n    tag_51:\n        /* \"Documents/GitHub/Store-system-with-feedback/main.sol\":8450:8464  structProducts */\n      0x08\n        /* \"Documents/GitHub/Store-system-with-feedback/main.sol\":8465:8486  structStatusPurchases */\n      0x0a\n        /* \"Documents/GitHub/Store-system-with-feedback/main.sol\":8487:8497  idPurchase */\n      dup4\n        /* \"Documents/GitHub/Store-system-with-feedback/main.sol\":8465:8498  structStatusPurchases[idPurchase] */\n      dup2\n      sload\n      dup2\n      lt\n      tag_217\n      jumpi\n      tag_217\n      tag_218\n      jump\t// in\n    tag_217:\n      swap1\n      0x00\n      mstore\n      keccak256(0x00, 0x20)\n      swap1\n      0x04\n      mul\n      add\n        /* \"Documents/GitHub/Store-system-with-feedback/main.sol\":8465:8511  structStatusPurchases[idPurchase].titleProduct */\n      0x01\n      add\n        /* \"Documents/GitHub/Store-system-with-feedback/main.sol\":8450:8512  structProducts[structStatusPurchases[idPurchase].titleProduct] */\n      mload(0x40)\n      tag_220\n      swap2\n      swap1\n      tag_221\n      jump\t// in\n    tag_220:\n      swap1\n      dup2\n      mstore\n      mload(0x40)\n      swap1\n      dup2\n      swap1\n      sub\n      0x20\n      add\n      swap1\n      keccak256\n        /* \"Documents/GitHub/Store-system-with-feedback/main.sol\":8450:8517  structProducts[structStatusPurchases[idPurchase].titleProduct].shop */\n      sload\n        /* \"Documents/GitHub/Store-system-with-feedback/main.sol\":8436:8446  msg.sender */\n      caller\n      sub(shl(0xa0, 0x01), 0x01)\n        /* \"Documents/GitHub/Store-system-with-feedback/main.sol\":8450:8517  structProducts[structStatusPurchases[idPurchase].titleProduct].shop */\n      swap1\n      swap2\n      and\n        /* \"Documents/GitHub/Store-system-with-feedback/main.sol\":8436:8517  msg.sender == structProducts[structStatusPurchases[idPurchase].titleProduct].shop */\n      eq\n        /* \"Documents/GitHub/Store-system-with-feedback/main.sol\":8428:8553  require(msg.sender == structProducts[structStatusPurchases[idPurchase].titleProduct].shop, \"error: this is not your product\") */\n      tag_222\n      jumpi\n      mload(0x40)\n      shl(0xe5, 0x461bcd)\n      dup2\n      mstore\n      0x04\n      add\n      tag_223\n      swap1\n      tag_224\n      jump\t// in\n    tag_223:\n      mload(0x40)\n      dup1\n      swap2\n      sub\n      swap1\n      revert\n    tag_222:\n        /* \"Documents/GitHub/Store-system-with-feedback/main.sol\":8584:8588  true */\n      0x01\n        /* \"Documents/GitHub/Store-system-with-feedback/main.sol\":8568:8588  confirmation == true */\n      dup2\n      iszero\n      iszero\n      eq\n        /* \"Documents/GitHub/Store-system-with-feedback/main.sol\":8564:8974  if (confirmation == true) {\r... */\n      iszero\n      tag_225\n      jumpi\n        /* \"Documents/GitHub/Store-system-with-feedback/main.sol\":8613:8623  msg.sender */\n      caller\n      sub(shl(0xa0, 0x01), 0x01)\n        /* \"Documents/GitHub/Store-system-with-feedback/main.sol\":8605:8633  payable(msg.sender).transfer */\n      and\n        /* \"Documents/GitHub/Store-system-with-feedback/main.sol\":8605:8674  payable(msg.sender).transfer(structStatusPurchases[idPurchase].price) */\n      0x08fc\n        /* \"Documents/GitHub/Store-system-with-feedback/main.sol\":8634:8655  structStatusPurchases */\n      0x0a\n        /* \"Documents/GitHub/Store-system-with-feedback/main.sol\":8656:8666  idPurchase */\n      dup5\n        /* \"Documents/GitHub/Store-system-with-feedback/main.sol\":8634:8667  structStatusPurchases[idPurchase] */\n      dup2\n      sload\n      dup2\n      lt\n      tag_227\n      jumpi\n      tag_227\n      tag_218\n      jump\t// in\n    tag_227:\n      swap1\n      0x00\n      mstore\n      keccak256(0x00, 0x20)\n      swap1\n      0x04\n      mul\n      add\n        /* \"Documents/GitHub/Store-system-with-feedback/main.sol\":8634:8673  structStatusPurchases[idPurchase].price */\n      0x02\n      add\n      sload\n        /* \"Documents/GitHub/Store-system-with-feedback/main.sol\":8605:8674  payable(msg.sender).transfer(structStatusPurchases[idPurchase].price) */\n      swap1\n      dup2\n      iszero\n      mul\n      swap1\n      mload(0x40)\n      0x00\n      mload(0x40)\n      dup1\n      dup4\n      sub\n      dup2\n      dup6\n      dup9\n      dup9\n      call\n      swap4\n      pop\n      pop\n      pop\n      pop\n      iszero\n      dup1\n      iszero\n      tag_230\n      jumpi\n      returndatasize\n      0x00\n      dup1\n      returndatacopy\n      revert(0x00, returndatasize)\n    tag_230:\n      pop\n        /* \"Documents/GitHub/Store-system-with-feedback/main.sol\":8732:8737  false */\n      0x00\n        /* \"Documents/GitHub/Store-system-with-feedback/main.sol\":8689:8710  structStatusPurchases */\n      0x0a\n        /* \"Documents/GitHub/Store-system-with-feedback/main.sol\":8711:8721  idPurchase */\n      dup4\n        /* \"Documents/GitHub/Store-system-with-feedback/main.sol\":8689:8722  structStatusPurchases[idPurchase] */\n      dup2\n      sload\n      dup2\n      lt\n      tag_232\n      jumpi\n      tag_232\n      tag_218\n      jump\t// in\n    tag_232:\n      0x00\n      swap2\n      dup3\n      mstore\n      0x20\n      swap1\n      swap2\n      keccak256\n      0x04\n      swap1\n      swap2\n      mul\n      add\n        /* \"Documents/GitHub/Store-system-with-feedback/main.sol\":8689:8729  structStatusPurchases[idPurchase].status */\n      0x03\n      add\n        /* \"Documents/GitHub/Store-system-with-feedback/main.sol\":8689:8737  structStatusPurchases[idPurchase].status = false */\n      dup1\n      sload\n      not(0xff)\n      and\n      swap2\n      iszero\n      iszero\n      swap2\n      swap1\n      swap2\n      or\n      swap1\n      sstore\n        /* \"Documents/GitHub/Store-system-with-feedback/main.sol\":8341:8981  function acceptPurchase (uint idPurchase, bool confirmation) public payable {\r... */\n      pop\n      pop\n      jump\t// out\n        /* \"Documents/GitHub/Store-system-with-feedback/main.sol\":8564:8974  if (confirmation == true) {\r... */\n    tag_225:\n        /* \"Documents/GitHub/Store-system-with-feedback/main.sol\":8759:8780  confirmation == false */\n      dup1\n        /* \"Documents/GitHub/Store-system-with-feedback/main.sol\":8755:8974  if (confirmation == false) {\r... */\n      tag_235\n      jumpi\n        /* \"Documents/GitHub/Store-system-with-feedback/main.sol\":8805:8826  structStatusPurchases */\n      0x0a\n        /* \"Documents/GitHub/Store-system-with-feedback/main.sol\":8827:8837  idPurchase */\n      dup3\n        /* \"Documents/GitHub/Store-system-with-feedback/main.sol\":8805:8838  structStatusPurchases[idPurchase] */\n      dup2\n      sload\n      dup2\n      lt\n      tag_237\n      jumpi\n      tag_237\n      tag_218\n      jump\t// in\n    tag_237:\n      0x00\n      swap2\n      dup3\n      mstore\n      0x20\n      swap1\n      swap2\n      keccak256\n      0x04\n      swap1\n      swap2\n      mul\n      add\n        /* \"Documents/GitHub/Store-system-with-feedback/main.sol\":8805:8848  structStatusPurchases[idPurchase].userLogin */\n      sload\n        /* \"Documents/GitHub/Store-system-with-feedback/main.sol\":8859:8880  structStatusPurchases */\n      0x0a\n        /* \"Documents/GitHub/Store-system-with-feedback/main.sol\":8859:8892  structStatusPurchases[idPurchase] */\n      dup1\n      sload\n      sub(shl(0xa0, 0x01), 0x01)\n        /* \"Documents/GitHub/Store-system-with-feedback/main.sol\":8805:8848  structStatusPurchases[idPurchase].userLogin */\n      swap1\n      swap3\n      and\n      swap2\n        /* \"Documents/GitHub/Store-system-with-feedback/main.sol\":8797:8899  payable(structStatusPurchases[idPurchase].userLogin).transfer(structStatusPurchases[idPurchase].price) */\n      0x08fc\n      swap2\n        /* \"Documents/GitHub/Store-system-with-feedback/main.sol\":8859:8880  structStatusPurchases */\n      swap1\n        /* \"Documents/GitHub/Store-system-with-feedback/main.sol\":8881:8891  idPurchase */\n      dup6\n      swap1\n        /* \"Documents/GitHub/Store-system-with-feedback/main.sol\":8859:8892  structStatusPurchases[idPurchase] */\n      dup2\n      lt\n      tag_227\n      jumpi\n      tag_227\n      tag_218\n      jump\t// in\n        /* \"Documents/GitHub/Store-system-with-feedback/main.sol\":8755:8974  if (confirmation == false) {\r... */\n    tag_235:\n        /* \"Documents/GitHub/Store-system-with-feedback/main.sol\":8341:8981  function acceptPurchase (uint idPurchase, bool confirmation) public payable {\r... */\n      pop\n      pop\n      jump\t// out\n        /* \"Documents/GitHub/Store-system-with-feedback/main.sol\":14347:14669  function create_user(address addr, string memory login, bytes32 password) public {\r... */\n    tag_56:\n        /* \"Documents/GitHub/Store-system-with-feedback/main.sol\":14482:14483  0 */\n      0x00\n      sub(shl(0xa0, 0x01), 0x01)\n        /* \"Documents/GitHub/Store-system-with-feedback/main.sol\":14447:14484  structUserLogins[login] == address(0) */\n      and\n        /* \"Documents/GitHub/Store-system-with-feedback/main.sol\":14447:14463  structUserLogins */\n      0x05\n        /* \"Documents/GitHub/Store-system-with-feedback/main.sol\":14464:14469  login */\n      dup4\n        /* \"Documents/GitHub/Store-system-with-feedback/main.sol\":14447:14470  structUserLogins[login] */\n      mload(0x40)\n      tag_248\n      swap2\n      swap1\n      tag_212\n      jump\t// in\n    tag_248:\n      swap1\n      dup2\n      mstore\n      mload(0x40)\n      swap1\n      dup2\n      swap1\n      sub\n      0x20\n      add\n      swap1\n      keccak256\n      sload\n      sub(shl(0xa0, 0x01), 0x01)\n      and\n        /* \"Documents/GitHub/Store-system-with-feedback/main.sol\":14447:14484  structUserLogins[login] == address(0) */\n      eq\n        /* \"Documents/GitHub/Store-system-with-feedback/main.sol\":14439:14514  require(structUserLogins[login] == address(0), \"Error: User already exist\") */\n      tag_249\n      jumpi\n      mload(0x40)\n      shl(0xe5, 0x461bcd)\n      dup2\n      mstore\n        /* \"#utility.yul\":11549:11551   */\n      0x20\n        /* \"Documents/GitHub/Store-system-with-feedback/main.sol\":14439:14514  require(structUserLogins[login] == address(0), \"Error: User already exist\") */\n      0x04\n      dup3\n      add\n        /* \"#utility.yul\":11531:11552   */\n      mstore\n        /* \"#utility.yul\":11588:11590   */\n      0x19\n        /* \"#utility.yul\":11568:11586   */\n      0x24\n      dup3\n      add\n        /* \"#utility.yul\":11561:11591   */\n      mstore\n      shl(0x3a, 0x115c9c9bdc8e88155cd95c88185b1c9958591e48195e1a5cdd)\n        /* \"#utility.yul\":11607:11625   */\n      0x44\n      dup3\n      add\n        /* \"#utility.yul\":11600:11655   */\n      mstore\n        /* \"#utility.yul\":11672:11690   */\n      0x64\n      add\n        /* \"Documents/GitHub/Store-system-with-feedback/main.sol\":14439:14514  require(structUserLogins[login] == address(0), \"Error: User already exist\") */\n      tag_223\n        /* \"#utility.yul\":11347:11696   */\n      jump\n        /* \"Documents/GitHub/Store-system-with-feedback/main.sol\":14439:14514  require(structUserLogins[login] == address(0), \"Error: User already exist\") */\n    tag_249:\n        /* \"Documents/GitHub/Store-system-with-feedback/main.sol\":14545:14582  structUser(login, password, 2, false) */\n      0x40\n      dup1\n      mload\n      0x80\n      dup2\n      add\n      dup3\n      mstore\n      dup4\n      dup2\n      mstore\n      0x20\n      dup1\n      dup3\n      add\n      dup5\n      swap1\n      mstore\n        /* \"Documents/GitHub/Store-system-with-feedback/main.sol\":14573:14574  2 */\n      0x02\n        /* \"Documents/GitHub/Store-system-with-feedback/main.sol\":14545:14582  structUser(login, password, 2, false) */\n      dup3\n      dup5\n      add\n      mstore\n      0x00\n      0x60\n      dup4\n      add\n      dup2\n      swap1\n      mstore\n      sub(shl(0xa0, 0x01), 0x01)\n        /* \"Documents/GitHub/Store-system-with-feedback/main.sol\":14525:14542  structUsers[addr] */\n      dup8\n      and\n      dup2\n      mstore\n        /* \"Documents/GitHub/Store-system-with-feedback/main.sol\":14525:14536  structUsers */\n      0x04\n        /* \"Documents/GitHub/Store-system-with-feedback/main.sol\":14525:14542  structUsers[addr] */\n      dup3\n      mstore\n      swap3\n      swap1\n      swap3\n      keccak256\n        /* \"Documents/GitHub/Store-system-with-feedback/main.sol\":14525:14582  structUsers[addr] = structUser(login, password, 2, false) */\n      dup2\n      mload\n      dup1\n      mload\n        /* \"Documents/GitHub/Store-system-with-feedback/main.sol\":14545:14582  structUser(login, password, 2, false) */\n      swap3\n      swap4\n        /* \"Documents/GitHub/Store-system-with-feedback/main.sol\":14525:14542  structUsers[addr] */\n      swap2\n      swap3\n        /* \"Documents/GitHub/Store-system-with-feedback/main.sol\":14525:14582  structUsers[addr] = structUser(login, password, 2, false) */\n      tag_252\n      swap3\n        /* \"Documents/GitHub/Store-system-with-feedback/main.sol\":14525:14542  structUsers[addr] */\n      dup5\n      swap3\n        /* \"Documents/GitHub/Store-system-with-feedback/main.sol\":14525:14582  structUsers[addr] = structUser(login, password, 2, false) */\n      add\n      swap1\n      tag_253\n      jump\t// in\n    tag_252:\n      pop\n      0x20\n      dup3\n      add\n      mload\n      0x01\n      dup3\n      add\n      sstore\n      0x40\n      dup1\n      dup4\n      add\n      mload\n      0x02\n      dup4\n      add\n      sstore\n      0x60\n      swap1\n      swap3\n      add\n      mload\n      0x03\n      swap1\n      swap2\n      add\n      dup1\n      sload\n      not(0xff)\n      and\n      swap2\n      iszero\n      iszero\n      swap2\n      swap1\n      swap2\n      or\n      swap1\n      sstore\n        /* \"Documents/GitHub/Store-system-with-feedback/main.sol\":14593:14616  structUserLogins[login] */\n      mload\n        /* \"Documents/GitHub/Store-system-with-feedback/main.sol\":14619:14623  addr */\n      dup4\n      swap1\n        /* \"Documents/GitHub/Store-system-with-feedback/main.sol\":14593:14609  structUserLogins */\n      0x05\n      swap1\n        /* \"Documents/GitHub/Store-system-with-feedback/main.sol\":14593:14616  structUserLogins[login] */\n      tag_254\n      swap1\n        /* \"Documents/GitHub/Store-system-with-feedback/main.sol\":14610:14615  login */\n      dup6\n      swap1\n        /* \"Documents/GitHub/Store-system-with-feedback/main.sol\":14593:14616  structUserLogins[login] */\n      tag_212\n      jump\t// in\n    tag_254:\n      swap1\n      dup2\n      mstore\n      mload(0x40)\n      swap1\n      dup2\n      swap1\n      sub\n      0x20\n      add\n      swap1\n      keccak256\n        /* \"Documents/GitHub/Store-system-with-feedback/main.sol\":14593:14623  structUserLogins[login] = addr */\n      dup1\n      sload\n      sub(shl(0xa0, 0x01), 0x01)\n      swap3\n      dup4\n      and\n      not(sub(shl(0xa0, 0x01), 0x01))\n      swap2\n      dup3\n      and\n      or\n      swap1\n      swap2\n      sstore\n        /* \"Documents/GitHub/Store-system-with-feedback/main.sol\":14634:14650  userAddressArray */\n      0x07\n        /* \"Documents/GitHub/Store-system-with-feedback/main.sol\":14634:14661  userAddressArray.push(addr) */\n      dup1\n      sload\n        /* \"Documents/GitHub/Store-system-with-feedback/main.sol\":14593:14623  structUserLogins[login] = addr */\n      0x01\n        /* \"Documents/GitHub/Store-system-with-feedback/main.sol\":14634:14661  userAddressArray.push(addr) */\n      dup2\n      add\n      dup3\n      sstore\n        /* \"Documents/GitHub/Store-system-with-feedback/main.sol\":14593:14616  structUserLogins[login] */\n      0x00\n        /* \"Documents/GitHub/Store-system-with-feedback/main.sol\":14634:14661  userAddressArray.push(addr) */\n      swap2\n      swap1\n      swap2\n      mstore\n      0xa66cc928b5edb82af9bd49922954155ab7b0942694bea4ce44661d9a8736c688\n      add\n      dup1\n      sload\n      swap6\n      swap1\n      swap3\n      and\n      swap5\n      and\n      swap4\n      swap1\n      swap4\n      or\n      swap1\n      swap3\n      sstore\n      pop\n      pop\n        /* \"Documents/GitHub/Store-system-with-feedback/main.sol\":14347:14669  function create_user(address addr, string memory login, bytes32 password) public {\r... */\n      jump\t// out\n        /* \"Documents/GitHub/Store-system-with-feedback/main.sol\":12348:12616  function productPurchases(string memory titleProduct) public payable {\r... */\n    tag_59:\n        /* \"Documents/GitHub/Store-system-with-feedback/main.sol\":12450:12464  structProducts */\n      0x08\n        /* \"Documents/GitHub/Store-system-with-feedback/main.sol\":12465:12477  titleProduct */\n      dup2\n        /* \"Documents/GitHub/Store-system-with-feedback/main.sol\":12450:12478  structProducts[titleProduct] */\n      mload(0x40)\n      tag_257\n      swap2\n      swap1\n      tag_212\n      jump\t// in\n    tag_257:\n      swap1\n      dup2\n      mstore\n      0x20\n      add\n      mload(0x40)\n      dup1\n      swap2\n      sub\n      swap1\n      keccak256\n        /* \"Documents/GitHub/Store-system-with-feedback/main.sol\":12450:12484  structProducts[titleProduct].price */\n      0x02\n      add\n      sload\n        /* \"Documents/GitHub/Store-system-with-feedback/main.sol\":12436:12445  msg.value */\n      callvalue\n        /* \"Documents/GitHub/Store-system-with-feedback/main.sol\":12436:12485  msg.value == (structProducts[titleProduct].price) */\n      eq\n        /* \"Documents/GitHub/Store-system-with-feedback/main.sol\":12428:12506  require(msg.value == (structProducts[titleProduct].price), \"error: not money\") */\n      tag_258\n      jumpi\n      mload(0x40)\n      shl(0xe5, 0x461bcd)\n      dup2\n      mstore\n        /* \"#utility.yul\":13683:13685   */\n      0x20\n        /* \"Documents/GitHub/Store-system-with-feedback/main.sol\":12428:12506  require(msg.value == (structProducts[titleProduct].price), \"error: not money\") */\n      0x04\n      dup3\n      add\n        /* \"#utility.yul\":13665:13686   */\n      mstore\n        /* \"#utility.yul\":13722:13724   */\n      0x10\n        /* \"#utility.yul\":13702:13720   */\n      0x24\n      dup3\n      add\n        /* \"#utility.yul\":13695:13725   */\n      mstore\n      shl(0x80, 0x6572726f723a206e6f74206d6f6e6579)\n        /* \"#utility.yul\":13741:13759   */\n      0x44\n      dup3\n      add\n        /* \"#utility.yul\":13734:13780   */\n      mstore\n        /* \"#utility.yul\":13797:13815   */\n      0x64\n      add\n        /* \"Documents/GitHub/Store-system-with-feedback/main.sol\":12428:12506  require(msg.value == (structProducts[titleProduct].price), \"error: not money\") */\n      tag_223\n        /* \"#utility.yul\":13481:13821   */\n      jump\n        /* \"Documents/GitHub/Store-system-with-feedback/main.sol\":12428:12506  require(msg.value == (structProducts[titleProduct].price), \"error: not money\") */\n    tag_258:\n        /* \"Documents/GitHub/Store-system-with-feedback/main.sol\":12544:12607  structStatusPurchase(msg.sender, titleProduct, msg.value, true) */\n      0x40\n      dup1\n      mload\n      0x80\n      dup2\n      add\n      dup3\n      mstore\n        /* \"Documents/GitHub/Store-system-with-feedback/main.sol\":12565:12575  msg.sender */\n      caller\n        /* \"Documents/GitHub/Store-system-with-feedback/main.sol\":12544:12607  structStatusPurchase(msg.sender, titleProduct, msg.value, true) */\n      dup2\n      mstore\n      0x20\n      dup1\n      dup3\n      add\n      dup5\n      dup2\n      mstore\n        /* \"Documents/GitHub/Store-system-with-feedback/main.sol\":12591:12600  msg.value */\n      callvalue\n        /* \"Documents/GitHub/Store-system-with-feedback/main.sol\":12544:12607  structStatusPurchase(msg.sender, titleProduct, msg.value, true) */\n      swap4\n      dup4\n      add\n      swap4\n      swap1\n      swap4\n      mstore\n        /* \"Documents/GitHub/Store-system-with-feedback/main.sol\":12602:12606  true */\n      0x01\n        /* \"Documents/GitHub/Store-system-with-feedback/main.sol\":12544:12607  structStatusPurchase(msg.sender, titleProduct, msg.value, true) */\n      0x60\n      dup4\n      add\n      dup2\n      swap1\n      mstore\n        /* \"Documents/GitHub/Store-system-with-feedback/main.sol\":12517:12538  structStatusPurchases */\n      0x0a\n        /* \"Documents/GitHub/Store-system-with-feedback/main.sol\":12517:12608  structStatusPurchases.push(structStatusPurchase(msg.sender, titleProduct, msg.value, true)) */\n      dup1\n      sload\n      swap2\n      dup3\n      add\n      dup2\n      sstore\n      0x00\n      mstore\n      dup3\n      mload\n      0xc65a7bb8d6351c1cf70c95a316cc6a92839c986682d98bc35f958f4883f9d2a8\n      0x04\n      swap1\n      swap3\n      mul\n      swap2\n      dup3\n      add\n      dup1\n      sload\n      not(sub(shl(0xa0, 0x01), 0x01))\n      and\n      sub(shl(0xa0, 0x01), 0x01)\n      swap1\n      swap3\n      and\n      swap2\n      swap1\n      swap2\n      or\n      dup2\n      sstore\n      swap4\n      mload\n      dup1\n      mload\n        /* \"Documents/GitHub/Store-system-with-feedback/main.sol\":12544:12607  structStatusPurchase(msg.sender, titleProduct, msg.value, true) */\n      swap4\n      swap5\n        /* \"Documents/GitHub/Store-system-with-feedback/main.sol\":12517:12608  structStatusPurchases.push(structStatusPurchase(msg.sender, titleProduct, msg.value, true)) */\n      swap4\n      tag_262\n      swap4\n      0xc65a7bb8d6351c1cf70c95a316cc6a92839c986682d98bc35f958f4883f9d2a9\n      swap1\n      swap4\n      add\n      swap3\n      swap2\n      swap1\n      swap2\n      add\n      swap1\n      tag_253\n      jump\t// in\n    tag_262:\n      pop\n      0x40\n      dup3\n      add\n      mload\n      0x02\n      dup3\n      add\n      sstore\n      0x60\n      swap1\n      swap2\n      add\n      mload\n      0x03\n      swap1\n      swap2\n      add\n      dup1\n      sload\n      not(0xff)\n      and\n      swap2\n      iszero\n      iszero\n      swap2\n      swap1\n      swap2\n      or\n      swap1\n      sstore\n      pop\n        /* \"Documents/GitHub/Store-system-with-feedback/main.sol\":12348:12616  function productPurchases(string memory titleProduct) public payable {\r... */\n      jump\t// out\n        /* \"Documents/GitHub/Store-system-with-feedback/main.sol\":1727:1831  function get_shop_list() public view returns(string[] memory) {\r... */\n    tag_74:\n        /* \"Documents/GitHub/Store-system-with-feedback/main.sol\":1772:1787  string[] memory */\n      0x60\n        /* \"Documents/GitHub/Store-system-with-feedback/main.sol\":1811:1819  shopList */\n      0x02\n        /* \"Documents/GitHub/Store-system-with-feedback/main.sol\":1804:1819  return shopList */\n      dup1\n      sload\n      dup1\n      0x20\n      mul\n      0x20\n      add\n      mload(0x40)\n      swap1\n      dup2\n      add\n      0x40\n      mstore\n      dup1\n      swap3\n      swap2\n      swap1\n      dup2\n      dup2\n      mstore\n      0x20\n      add\n      0x00\n      swap1\n    tag_265:\n      dup3\n      dup3\n      lt\n      iszero\n      tag_266\n      jumpi\n      dup4\n      dup3\n      swap1\n      0x00\n      mstore\n      keccak256(0x00, 0x20)\n      add\n      dup1\n      sload\n      tag_268\n      swap1\n      tag_269\n      jump\t// in\n    tag_268:\n      dup1\n      0x1f\n      add\n      0x20\n      dup1\n      swap2\n      div\n      mul\n      0x20\n      add\n      mload(0x40)\n      swap1\n      dup2\n      add\n      0x40\n      mstore\n      dup1\n      swap3\n      swap2\n      swap1\n      dup2\n      dup2\n      mstore\n      0x20\n      add\n      dup3\n      dup1\n      sload\n      tag_270\n      swap1\n      tag_269\n      jump\t// in\n    tag_270:\n      dup1\n      iszero\n      tag_271\n      jumpi\n      dup1\n      0x1f\n      lt\n      tag_272\n      jumpi\n      0x0100\n      dup1\n      dup4\n      sload\n      div\n      mul\n      dup4\n      mstore\n      swap2\n      0x20\n      add\n      swap2\n      jump(tag_271)\n    tag_272:\n      dup3\n      add\n      swap2\n      swap1\n      0x00\n      mstore\n      keccak256(0x00, 0x20)\n      swap1\n    tag_273:\n      dup2\n      sload\n      dup2\n      mstore\n      swap1\n      0x01\n      add\n      swap1\n      0x20\n      add\n      dup1\n      dup4\n      gt\n      tag_273\n      jumpi\n      dup3\n      swap1\n      sub\n      0x1f\n      and\n      dup3\n      add\n      swap2\n    tag_271:\n      pop\n      pop\n      pop\n      pop\n      pop\n      dup2\n      mstore\n      0x20\n      add\n      swap1\n      0x01\n      add\n      swap1\n      jump(tag_265)\n    tag_266:\n      pop\n      pop\n      pop\n      pop\n      swap1\n      pop\n        /* \"Documents/GitHub/Store-system-with-feedback/main.sol\":1727:1831  function get_shop_list() public view returns(string[] memory) {\r... */\n      swap1\n      jump\t// out\n        /* \"Documents/GitHub/Store-system-with-feedback/main.sol\":11162:11581  function leaveComment (string memory userName, string[] memory comment) public {\r... */\n    tag_81:\n        /* \"Documents/GitHub/Store-system-with-feedback/main.sol\":11256:11262  uint i */\n      0x00\n        /* \"Documents/GitHub/Store-system-with-feedback/main.sol\":11252:11574  for(uint i = 0; i < complaintBooks.length; i++) {\r... */\n    tag_275:\n        /* \"Documents/GitHub/Store-system-with-feedback/main.sol\":11272:11286  complaintBooks */\n      0x03\n        /* \"Documents/GitHub/Store-system-with-feedback/main.sol\":11272:11293  complaintBooks.length */\n      sload\n        /* \"Documents/GitHub/Store-system-with-feedback/main.sol\":11268:11293  i < complaintBooks.length */\n      dup2\n      lt\n        /* \"Documents/GitHub/Store-system-with-feedback/main.sol\":11252:11574  for(uint i = 0; i < complaintBooks.length; i++) {\r... */\n      iszero\n      tag_276\n      jumpi\n        /* \"Documents/GitHub/Store-system-with-feedback/main.sol\":11315:11341  string memory tempUserName */\n      0x00\n        /* \"Documents/GitHub/Store-system-with-feedback/main.sol\":11344:11358  complaintBooks */\n      0x03\n        /* \"Documents/GitHub/Store-system-with-feedback/main.sol\":11359:11360  i */\n      dup3\n        /* \"Documents/GitHub/Store-system-with-feedback/main.sol\":11344:11361  complaintBooks[i] */\n      dup2\n      sload\n      dup2\n      lt\n      tag_279\n      jumpi\n      tag_279\n      tag_218\n      jump\t// in\n    tag_279:\n      swap1\n      0x00\n      mstore\n      keccak256(0x00, 0x20)\n      swap1\n      0x05\n      mul\n      add\n        /* \"Documents/GitHub/Store-system-with-feedback/main.sol\":11344:11370  complaintBooks[i].userName */\n      0x01\n      add\n        /* \"Documents/GitHub/Store-system-with-feedback/main.sol\":11315:11370  string memory tempUserName = complaintBooks[i].userName */\n      dup1\n      sload\n      tag_281\n      swap1\n      tag_269\n      jump\t// in\n    tag_281:\n      dup1\n      0x1f\n      add\n      0x20\n      dup1\n      swap2\n      div\n      mul\n      0x20\n      add\n      mload(0x40)\n      swap1\n      dup2\n      add\n      0x40\n      mstore\n      dup1\n      swap3\n      swap2\n      swap1\n      dup2\n      dup2\n      mstore\n      0x20\n      add\n      dup3\n      dup1\n      sload\n      tag_282\n      swap1\n      tag_269\n      jump\t// in\n    tag_282:\n      dup1\n      iszero\n      tag_283\n      jumpi\n      dup1\n      0x1f\n      lt\n      tag_284\n      jumpi\n      0x0100\n      dup1\n      dup4\n      sload\n      div\n      mul\n      dup4\n      mstore\n      swap2\n      0x20\n      add\n      swap2\n      jump(tag_283)\n    tag_284:\n      dup3\n      add\n      swap2\n      swap1\n      0x00\n      mstore\n      keccak256(0x00, 0x20)\n      swap1\n    tag_285:\n      dup2\n      sload\n      dup2\n      mstore\n      swap1\n      0x01\n      add\n      swap1\n      0x20\n      add\n      dup1\n      dup4\n      gt\n      tag_285\n      jumpi\n      dup3\n      swap1\n      sub\n      0x1f\n      and\n      dup3\n      add\n      swap2\n    tag_283:\n      pop\n      pop\n      pop\n      pop\n      pop\n      swap1\n      pop\n        /* \"Documents/GitHub/Store-system-with-feedback/main.sol\":11460:11468  userName */\n      dup4\n        /* \"Documents/GitHub/Store-system-with-feedback/main.sol\":11443:11469  abi.encodePacked(userName) */\n      add(0x20, mload(0x40))\n      tag_286\n      swap2\n      swap1\n      tag_212\n      jump\t// in\n    tag_286:\n      mload(0x40)\n      0x20\n      dup2\n      dup4\n      sub\n      sub\n      dup2\n      mstore\n      swap1\n      0x40\n      mstore\n        /* \"Documents/GitHub/Store-system-with-feedback/main.sol\":11433:11470  keccak256(abi.encodePacked(userName)) */\n      dup1\n      mload\n      swap1\n      0x20\n      add\n      keccak256\n        /* \"Documents/GitHub/Store-system-with-feedback/main.sol\":11415:11427  tempUserName */\n      dup2\n        /* \"Documents/GitHub/Store-system-with-feedback/main.sol\":11398:11428  abi.encodePacked(tempUserName) */\n      add(0x20, mload(0x40))\n      tag_287\n      swap2\n      swap1\n      tag_212\n      jump\t// in\n    tag_287:\n      mload(0x40)\n      0x20\n      dup2\n      dup4\n      sub\n      sub\n      dup2\n      mstore\n      swap1\n      0x40\n      mstore\n        /* \"Documents/GitHub/Store-system-with-feedback/main.sol\":11388:11429  keccak256(abi.encodePacked(tempUserName)) */\n      dup1\n      mload\n      swap1\n      0x20\n      add\n      keccak256\n        /* \"Documents/GitHub/Store-system-with-feedback/main.sol\":11388:11470  keccak256(abi.encodePacked(tempUserName)) == keccak256(abi.encodePacked(userName)) */\n      eq\n        /* \"Documents/GitHub/Store-system-with-feedback/main.sol\":11385:11563  if(keccak256(abi.encodePacked(tempUserName)) == keccak256(abi.encodePacked(userName))) {                    \r... */\n      iszero\n      tag_288\n      jumpi\n        /* \"Documents/GitHub/Store-system-with-feedback/main.sol\":11540:11547  comment */\n      dup3\n        /* \"Documents/GitHub/Store-system-with-feedback/main.sol\":11511:11525  complaintBooks */\n      0x03\n        /* \"Documents/GitHub/Store-system-with-feedback/main.sol\":11526:11527  i */\n      dup4\n        /* \"Documents/GitHub/Store-system-with-feedback/main.sol\":11511:11528  complaintBooks[i] */\n      dup2\n      sload\n      dup2\n      lt\n      tag_290\n      jumpi\n      tag_290\n      tag_218\n      jump\t// in\n    tag_290:\n      swap1\n      0x00\n      mstore\n      keccak256(0x00, 0x20)\n      swap1\n      0x05\n      mul\n      add\n        /* \"Documents/GitHub/Store-system-with-feedback/main.sol\":11511:11537  complaintBooks[i].comments */\n      0x04\n      add\n        /* \"Documents/GitHub/Store-system-with-feedback/main.sol\":11511:11547  complaintBooks[i].comments = comment */\n      swap1\n      dup1\n      mload\n      swap1\n      0x20\n      add\n      swap1\n      tag_292\n      swap3\n      swap2\n      swap1\n      tag_293\n      jump\t// in\n    tag_292:\n      pop\n        /* \"Documents/GitHub/Store-system-with-feedback/main.sol\":11385:11563  if(keccak256(abi.encodePacked(tempUserName)) == keccak256(abi.encodePacked(userName))) {                    \r... */\n    tag_288:\n      pop\n        /* \"Documents/GitHub/Store-system-with-feedback/main.sol\":11295:11298  i++ */\n      dup1\n      tag_294\n      dup2\n      tag_295\n      jump\t// in\n    tag_294:\n      swap2\n      pop\n      pop\n        /* \"Documents/GitHub/Store-system-with-feedback/main.sol\":11252:11574  for(uint i = 0; i < complaintBooks.length; i++) {\r... */\n      jump(tag_275)\n    tag_276:\n      pop\n        /* \"Documents/GitHub/Store-system-with-feedback/main.sol\":11162:11581  function leaveComment (string memory userName, string[] memory comment) public {\r... */\n      pop\n      pop\n      jump\t// out\n        /* \"Documents/GitHub/Store-system-with-feedback/main.sol\":9045:9548  function acceptReturn(uint idReturn, bool confirmation) public payable {\r... */\n    tag_84:\n        /* \"Documents/GitHub/Store-system-with-feedback/main.sol\":9149:9163  structProducts */\n      0x08\n        /* \"Documents/GitHub/Store-system-with-feedback/main.sol\":9164:9183  structStatusReturns */\n      0x0b\n        /* \"Documents/GitHub/Store-system-with-feedback/main.sol\":9184:9192  idReturn */\n      dup4\n        /* \"Documents/GitHub/Store-system-with-feedback/main.sol\":9164:9193  structStatusReturns[idReturn] */\n      dup2\n      sload\n      dup2\n      lt\n      tag_298\n      jumpi\n      tag_298\n      tag_218\n      jump\t// in\n    tag_298:\n      swap1\n      0x00\n      mstore\n      keccak256(0x00, 0x20)\n      swap1\n      0x03\n      mul\n      add\n        /* \"Documents/GitHub/Store-system-with-feedback/main.sol\":9164:9206  structStatusReturns[idReturn].titleProduct */\n      0x01\n      add\n        /* \"Documents/GitHub/Store-system-with-feedback/main.sol\":9149:9207  structProducts[structStatusReturns[idReturn].titleProduct] */\n      mload(0x40)\n      tag_300\n      swap2\n      swap1\n      tag_221\n      jump\t// in\n    tag_300:\n      swap1\n      dup2\n      mstore\n      mload(0x40)\n      swap1\n      dup2\n      swap1\n      sub\n      0x20\n      add\n      swap1\n      keccak256\n        /* \"Documents/GitHub/Store-system-with-feedback/main.sol\":9149:9212  structProducts[structStatusReturns[idReturn].titleProduct].shop */\n      sload\n        /* \"Documents/GitHub/Store-system-with-feedback/main.sol\":9135:9145  msg.sender */\n      caller\n      sub(shl(0xa0, 0x01), 0x01)\n        /* \"Documents/GitHub/Store-system-with-feedback/main.sol\":9149:9212  structProducts[structStatusReturns[idReturn].titleProduct].shop */\n      swap1\n      swap2\n      and\n        /* \"Documents/GitHub/Store-system-with-feedback/main.sol\":9135:9212  msg.sender == structProducts[structStatusReturns[idReturn].titleProduct].shop */\n      eq\n        /* \"Documents/GitHub/Store-system-with-feedback/main.sol\":9127:9248  require(msg.sender == structProducts[structStatusReturns[idReturn].titleProduct].shop, \"error: this is not your product\") */\n      tag_301\n      jumpi\n      mload(0x40)\n      shl(0xe5, 0x461bcd)\n      dup2\n      mstore\n      0x04\n      add\n      tag_223\n      swap1\n      tag_224\n      jump\t// in\n    tag_301:\n        /* \"Documents/GitHub/Store-system-with-feedback/main.sol\":9278:9282  true */\n      0x01\n        /* \"Documents/GitHub/Store-system-with-feedback/main.sol\":9262:9282  confirmation == true */\n      dup2\n      iszero\n      iszero\n      eq\n        /* \"Documents/GitHub/Store-system-with-feedback/main.sol\":9259:9541  if(confirmation == true) {\r... */\n      iszero\n      tag_303\n      jumpi\n        /* \"Documents/GitHub/Store-system-with-feedback/main.sol\":9307:9326  structStatusReturns */\n      0x0b\n        /* \"Documents/GitHub/Store-system-with-feedback/main.sol\":9327:9335  idReturn */\n      dup3\n        /* \"Documents/GitHub/Store-system-with-feedback/main.sol\":9307:9336  structStatusReturns[idReturn] */\n      dup2\n      sload\n      dup2\n      lt\n      tag_305\n      jumpi\n      tag_305\n      tag_218\n      jump\t// in\n    tag_305:\n      0x00\n      swap2\n      dup3\n      mstore\n      0x20\n      dup3\n      keccak256\n      0x03\n      swap1\n      swap2\n      mul\n      add\n        /* \"Documents/GitHub/Store-system-with-feedback/main.sol\":9307:9346  structStatusReturns[idReturn].userLogin */\n      sload\n        /* \"Documents/GitHub/Store-system-with-feedback/main.sol\":9299:9367  payable(structStatusReturns[idReturn].userLogin).transfer(msg.value) */\n      mload(0x40)\n      sub(shl(0xa0, 0x01), 0x01)\n        /* \"Documents/GitHub/Store-system-with-feedback/main.sol\":9307:9346  structStatusReturns[idReturn].userLogin */\n      swap1\n      swap2\n      and\n      swap2\n        /* \"Documents/GitHub/Store-system-with-feedback/main.sol\":9357:9366  msg.value */\n      callvalue\n        /* \"Documents/GitHub/Store-system-with-feedback/main.sol\":9299:9367  payable(structStatusReturns[idReturn].userLogin).transfer(msg.value) */\n      dup1\n      iszero\n      0x08fc\n      mul\n      swap3\n        /* \"Documents/GitHub/Store-system-with-feedback/main.sol\":9357:9366  msg.value */\n      swap1\n      swap2\n        /* \"Documents/GitHub/Store-system-with-feedback/main.sol\":9299:9367  payable(structStatusReturns[idReturn].userLogin).transfer(msg.value) */\n      dup2\n        /* \"Documents/GitHub/Store-system-with-feedback/main.sol\":9307:9336  structStatusReturns[idReturn] */\n      dup2\n        /* \"Documents/GitHub/Store-system-with-feedback/main.sol\":9299:9367  payable(structStatusReturns[idReturn].userLogin).transfer(msg.value) */\n      dup2\n        /* \"Documents/GitHub/Store-system-with-feedback/main.sol\":9357:9366  msg.value */\n      dup6\n        /* \"Documents/GitHub/Store-system-with-feedback/main.sol\":9307:9346  structStatusReturns[idReturn].userLogin */\n      dup9\n        /* \"Documents/GitHub/Store-system-with-feedback/main.sol\":9299:9367  payable(structStatusReturns[idReturn].userLogin).transfer(msg.value) */\n      dup9\n      call\n      swap4\n      pop\n      pop\n      pop\n      pop\n      iszero\n      dup1\n      iszero\n      tag_308\n      jumpi\n      returndatasize\n      0x00\n      dup1\n      returndatacopy\n      revert(0x00, returndatasize)\n    tag_308:\n      pop\n        /* \"Documents/GitHub/Store-system-with-feedback/main.sol\":9421:9426  false */\n      0x00\n        /* \"Documents/GitHub/Store-system-with-feedback/main.sol\":9382:9401  structStatusReturns */\n      0x0b\n        /* \"Documents/GitHub/Store-system-with-feedback/main.sol\":9402:9410  idReturn */\n      dup4\n        /* \"Documents/GitHub/Store-system-with-feedback/main.sol\":9382:9411  structStatusReturns[idReturn] */\n      dup2\n      sload\n      dup2\n      lt\n      tag_310\n      jumpi\n      tag_310\n      tag_218\n      jump\t// in\n    tag_310:\n      0x00\n      swap2\n      dup3\n      mstore\n      0x20\n      swap1\n      swap2\n      keccak256\n      0x03\n      swap1\n      swap2\n      mul\n      add\n        /* \"Documents/GitHub/Store-system-with-feedback/main.sol\":9382:9418  structStatusReturns[idReturn].status */\n      0x02\n      add\n        /* \"Documents/GitHub/Store-system-with-feedback/main.sol\":9382:9426  structStatusReturns[idReturn].status = false */\n      dup1\n      sload\n      not(0xff)\n      and\n      swap2\n      iszero\n      iszero\n      swap2\n      swap1\n      swap2\n      or\n      swap1\n      sstore\n        /* \"Documents/GitHub/Store-system-with-feedback/main.sol\":8341:8981  function acceptPurchase (uint idPurchase, bool confirmation) public payable {\r... */\n      pop\n      pop\n      jump\t// out\n        /* \"Documents/GitHub/Store-system-with-feedback/main.sol\":9259:9541  if(confirmation == true) {\r... */\n    tag_303:\n        /* \"Documents/GitHub/Store-system-with-feedback/main.sol\":9447:9468  confirmation == false */\n      dup1\n        /* \"Documents/GitHub/Store-system-with-feedback/main.sol\":9444:9541  if(confirmation == false) {\r... */\n      tag_235\n      jumpi\n        /* \"Documents/GitHub/Store-system-with-feedback/main.sol\":9524:9529  false */\n      0x00\n        /* \"Documents/GitHub/Store-system-with-feedback/main.sol\":9485:9504  structStatusReturns */\n      0x0b\n        /* \"Documents/GitHub/Store-system-with-feedback/main.sol\":9505:9513  idReturn */\n      dup4\n        /* \"Documents/GitHub/Store-system-with-feedback/main.sol\":9485:9514  structStatusReturns[idReturn] */\n      dup2\n      sload\n      dup2\n      lt\n      tag_310\n      jumpi\n      tag_310\n      tag_218\n      jump\t// in\n        /* \"Documents/GitHub/Store-system-with-feedback/main.sol\":2974:3119  function check_logged_shop(string memory login) public view returns(bool) {\r... */\n    tag_88:\n        /* \"Documents/GitHub/Store-system-with-feedback/main.sol\":3042:3046  bool */\n      0x00\n        /* \"Documents/GitHub/Store-system-with-feedback/main.sol\":3070:3081  structShops */\n      dup1\n        /* \"Documents/GitHub/Store-system-with-feedback/main.sol\":3070:3099  structShops[shopLists[login]] */\n      0x00\n        /* \"Documents/GitHub/Store-system-with-feedback/main.sol\":3082:3091  shopLists */\n      0x01\n        /* \"Documents/GitHub/Store-system-with-feedback/main.sol\":3092:3097  login */\n      dup5\n        /* \"Documents/GitHub/Store-system-with-feedback/main.sol\":3082:3098  shopLists[login] */\n      mload(0x40)\n      tag_318\n      swap2\n      swap1\n      tag_212\n      jump\t// in\n    tag_318:\n      swap1\n      dup2\n      mstore\n      0x40\n      dup1\n      mload\n      0x20\n      swap3\n      dup2\n      swap1\n      sub\n      dup4\n      add\n      swap1\n      keccak256\n      sload\n      sub(shl(0xa0, 0x01), 0x01)\n      and\n        /* \"Documents/GitHub/Store-system-with-feedback/main.sol\":3070:3099  structShops[shopLists[login]] */\n      dup4\n      mstore\n      swap1\n      dup3\n      add\n      swap3\n      swap1\n      swap3\n      mstore\n      add\n      0x00\n      keccak256\n        /* \"Documents/GitHub/Store-system-with-feedback/main.sol\":3070:3106  structShops[shopLists[login]].logged */\n      0x03\n      add\n      sload\n      0xff\n      and\n      swap3\n      swap2\n      pop\n      pop\n        /* \"Documents/GitHub/Store-system-with-feedback/main.sol\":2974:3119  function check_logged_shop(string memory login) public view returns(bool) {\r... */\n      jump\t// out\n        /* \"Documents/GitHub/Store-system-with-feedback/main.sol\":15276:15398  function login_out_user(string memory login) public {\r... */\n    tag_94:\n        /* \"Documents/GitHub/Store-system-with-feedback/main.sol\":15385:15390  false */\n      0x00\n        /* \"Documents/GitHub/Store-system-with-feedback/main.sol\":15339:15350  structUsers */\n      0x04\n        /* \"Documents/GitHub/Store-system-with-feedback/main.sol\":15339:15375  structUsers[structUserLogins[login]] */\n      0x00\n        /* \"Documents/GitHub/Store-system-with-feedback/main.sol\":15351:15367  structUserLogins */\n      0x05\n        /* \"Documents/GitHub/Store-system-with-feedback/main.sol\":15368:15373  login */\n      dup5\n        /* \"Documents/GitHub/Store-system-with-feedback/main.sol\":15351:15374  structUserLogins[login] */\n      mload(0x40)\n      tag_214\n      swap2\n      swap1\n      tag_212\n      jump\t// in\n        /* \"Documents/GitHub/Store-system-with-feedback/main.sol\":3438:3577  function get_city(string memory login) public view returns(string memory) {\r... */\n    tag_98:\n        /* \"Documents/GitHub/Store-system-with-feedback/main.sol\":3497:3510  string memory */\n      0x60\n        /* \"Documents/GitHub/Store-system-with-feedback/main.sol\":3530:3541  structShops */\n      0x00\n        /* \"Documents/GitHub/Store-system-with-feedback/main.sol\":3530:3559  structShops[shopLists[login]] */\n      dup1\n        /* \"Documents/GitHub/Store-system-with-feedback/main.sol\":3542:3551  shopLists */\n      0x01\n        /* \"Documents/GitHub/Store-system-with-feedback/main.sol\":3552:3557  login */\n      dup5\n        /* \"Documents/GitHub/Store-system-with-feedback/main.sol\":3542:3558  shopLists[login] */\n      mload(0x40)\n      tag_322\n      swap2\n      swap1\n      tag_212\n      jump\t// in\n    tag_322:\n      swap1\n      dup2\n      mstore\n      0x40\n      dup1\n      mload\n      0x20\n      swap3\n      dup2\n      swap1\n      sub\n      dup4\n      add\n      swap1\n      keccak256\n      sload\n      sub(shl(0xa0, 0x01), 0x01)\n      and\n        /* \"Documents/GitHub/Store-system-with-feedback/main.sol\":3530:3559  structShops[shopLists[login]] */\n      dup4\n      mstore\n      swap1\n      dup3\n      add\n      swap3\n      swap1\n      swap3\n      mstore\n      add\n      0x00\n      keccak256\n        /* \"Documents/GitHub/Store-system-with-feedback/main.sol\":3530:3564  structShops[shopLists[login]].city */\n      0x05\n      add\n        /* \"Documents/GitHub/Store-system-with-feedback/main.sol\":3523:3565  return(structShops[shopLists[login]].city) */\n      dup1\n      sload\n      tag_323\n      swap1\n      tag_269\n      jump\t// in\n    tag_323:\n      dup1\n      0x1f\n      add\n      0x20\n      dup1\n      swap2\n      div\n      mul\n      0x20\n      add\n      mload(0x40)\n      swap1\n      dup2\n      add\n      0x40\n      mstore\n      dup1\n      swap3\n      swap2\n      swap1\n      dup2\n      dup2\n      mstore\n      0x20\n      add\n      dup3\n      dup1\n      sload\n      tag_324\n      swap1\n      tag_269\n      jump\t// in\n    tag_324:\n      dup1\n      iszero\n      tag_325\n      jumpi\n      dup1\n      0x1f\n      lt\n      tag_326\n      jumpi\n      0x0100\n      dup1\n      dup4\n      sload\n      div\n      mul\n      dup4\n      mstore\n      swap2\n      0x20\n      add\n      swap2\n      jump(tag_325)\n    tag_326:\n      dup3\n      add\n      swap2\n      swap1\n      0x00\n      mstore\n      keccak256(0x00, 0x20)\n      swap1\n    tag_327:\n      dup2\n      sload\n      dup2\n      mstore\n      swap1\n      0x01\n      add\n      swap1\n      0x20\n      add\n      dup1\n      dup4\n      gt\n      tag_327\n      jumpi\n      dup3\n      swap1\n      sub\n      0x1f\n      and\n      dup3\n      add\n      swap2\n    tag_325:\n      pop\n      pop\n      pop\n      pop\n      pop\n      swap1\n      pop\n        /* \"Documents/GitHub/Store-system-with-feedback/main.sol\":3438:3577  function get_city(string memory login) public view returns(string memory) {\r... */\n      swap2\n      swap1\n      pop\n      jump\t// out\n        /* \"Documents/GitHub/Store-system-with-feedback/main.sol\":13700:14277  function productMarriage(string memory titleProduct) public {\r... */\n    tag_104:\n        /* \"Documents/GitHub/Store-system-with-feedback/main.sol\":13771:13787  bool tempRequire */\n      0x00\n      dup1\n        /* \"Documents/GitHub/Store-system-with-feedback/main.sol\":13798:14196  for(uint i = 0; i < productList.length; i++) {\r... */\n    tag_329:\n        /* \"Documents/GitHub/Store-system-with-feedback/main.sol\":13818:13829  productList */\n      0x09\n        /* \"Documents/GitHub/Store-system-with-feedback/main.sol\":13818:13836  productList.length */\n      sload\n        /* \"Documents/GitHub/Store-system-with-feedback/main.sol\":13814:13836  i < productList.length */\n      dup2\n      lt\n        /* \"Documents/GitHub/Store-system-with-feedback/main.sol\":13798:14196  for(uint i = 0; i < productList.length; i++) {\r... */\n      iszero\n      tag_330\n      jumpi\n        /* \"Documents/GitHub/Store-system-with-feedback/main.sol\":13858:13887  string memory tempProductName */\n      0x00\n        /* \"Documents/GitHub/Store-system-with-feedback/main.sol\":13890:13901  productList */\n      0x09\n        /* \"Documents/GitHub/Store-system-with-feedback/main.sol\":13902:13903  i */\n      dup3\n        /* \"Documents/GitHub/Store-system-with-feedback/main.sol\":13890:13904  productList[i] */\n      dup2\n      sload\n      dup2\n      lt\n      tag_333\n      jumpi\n      tag_333\n      tag_218\n      jump\t// in\n    tag_333:\n      swap1\n      0x00\n      mstore\n      keccak256(0x00, 0x20)\n      add\n        /* \"Documents/GitHub/Store-system-with-feedback/main.sol\":13858:13904  string memory tempProductName = productList[i] */\n      dup1\n      sload\n      tag_335\n      swap1\n      tag_269\n      jump\t// in\n    tag_335:\n      dup1\n      0x1f\n      add\n      0x20\n      dup1\n      swap2\n      div\n      mul\n      0x20\n      add\n      mload(0x40)\n      swap1\n      dup2\n      add\n      0x40\n      mstore\n      dup1\n      swap3\n      swap2\n      swap1\n      dup2\n      dup2\n      mstore\n      0x20\n      add\n      dup3\n      dup1\n      sload\n      tag_336\n      swap1\n      tag_269\n      jump\t// in\n    tag_336:\n      dup1\n      iszero\n      tag_337\n      jumpi\n      dup1\n      0x1f\n      lt\n      tag_338\n      jumpi\n      0x0100\n      dup1\n      dup4\n      sload\n      div\n      mul\n      dup4\n      mstore\n      swap2\n      0x20\n      add\n      swap2\n      jump(tag_337)\n    tag_338:\n      dup3\n      add\n      swap2\n      swap1\n      0x00\n      mstore\n      keccak256(0x00, 0x20)\n      swap1\n    tag_339:\n      dup2\n      sload\n      dup2\n      mstore\n      swap1\n      0x01\n      add\n      swap1\n      0x20\n      add\n      dup1\n      dup4\n      gt\n      tag_339\n      jumpi\n      dup3\n      swap1\n      sub\n      0x1f\n      and\n      dup3\n      add\n      swap2\n    tag_337:\n      pop\n      pop\n      pop\n      pop\n      pop\n      swap1\n      pop\n        /* \"Documents/GitHub/Store-system-with-feedback/main.sol\":13997:14009  titleProduct */\n      dup4\n        /* \"Documents/GitHub/Store-system-with-feedback/main.sol\":13980:14010  abi.encodePacked(titleProduct) */\n      add(0x20, mload(0x40))\n      tag_340\n      swap2\n      swap1\n      tag_212\n      jump\t// in\n    tag_340:\n      mload(0x40)\n      0x20\n      dup2\n      dup4\n      sub\n      sub\n      dup2\n      mstore\n      swap1\n      0x40\n      mstore\n        /* \"Documents/GitHub/Store-system-with-feedback/main.sol\":13970:14011  keccak256(abi.encodePacked(titleProduct)) */\n      dup1\n      mload\n      swap1\n      0x20\n      add\n      keccak256\n        /* \"Documents/GitHub/Store-system-with-feedback/main.sol\":13949:13964  tempProductName */\n      dup2\n        /* \"Documents/GitHub/Store-system-with-feedback/main.sol\":13932:13965  abi.encodePacked(tempProductName) */\n      add(0x20, mload(0x40))\n      tag_341\n      swap2\n      swap1\n      tag_212\n      jump\t// in\n    tag_341:\n      mload(0x40)\n      0x20\n      dup2\n      dup4\n      sub\n      sub\n      dup2\n      mstore\n      swap1\n      0x40\n      mstore\n        /* \"Documents/GitHub/Store-system-with-feedback/main.sol\":13922:13966  keccak256(abi.encodePacked(tempProductName)) */\n      dup1\n      mload\n      swap1\n      0x20\n      add\n      keccak256\n        /* \"Documents/GitHub/Store-system-with-feedback/main.sol\":13922:14011  keccak256(abi.encodePacked(tempProductName)) == keccak256(abi.encodePacked(titleProduct)) */\n      eq\n        /* \"Documents/GitHub/Store-system-with-feedback/main.sol\":13919:14185  if(keccak256(abi.encodePacked(tempProductName)) == keccak256(abi.encodePacked(titleProduct))) {                    \r... */\n      iszero\n      tag_342\n      jumpi\n        /* \"Documents/GitHub/Store-system-with-feedback/main.sol\":14079:14131  structStatusMarriage(msg.sender, titleProduct, true) */\n      0x40\n      dup1\n      mload\n      0x60\n      dup2\n      add\n      dup3\n      mstore\n        /* \"Documents/GitHub/Store-system-with-feedback/main.sol\":14100:14110  msg.sender */\n      caller\n        /* \"Documents/GitHub/Store-system-with-feedback/main.sol\":14079:14131  structStatusMarriage(msg.sender, titleProduct, true) */\n      dup2\n      mstore\n      0x20\n      dup1\n      dup3\n      add\n      dup8\n      dup2\n      mstore\n        /* \"Documents/GitHub/Store-system-with-feedback/main.sol\":14126:14130  true */\n      0x01\n        /* \"Documents/GitHub/Store-system-with-feedback/main.sol\":14079:14131  structStatusMarriage(msg.sender, titleProduct, true) */\n      swap4\n      dup4\n      add\n      dup5\n      swap1\n      mstore\n        /* \"Documents/GitHub/Store-system-with-feedback/main.sol\":14052:14073  structStatusMarriages */\n      0x0c\n        /* \"Documents/GitHub/Store-system-with-feedback/main.sol\":14052:14132  structStatusMarriages.push(structStatusMarriage(msg.sender, titleProduct, true)) */\n      dup1\n      sload\n      swap5\n      dup6\n      add\n      dup2\n      sstore\n      0x00\n      mstore\n      dup3\n      mload\n      0xdf6966c971051c3d54ec59162606531493a51404a002842f56009d7e5cf4a8c7\n      0x03\n      swap1\n      swap6\n      mul\n      swap5\n      dup6\n      add\n      dup1\n      sload\n      not(sub(shl(0xa0, 0x01), 0x01))\n      and\n      sub(shl(0xa0, 0x01), 0x01)\n      swap1\n      swap3\n      and\n      swap2\n      swap1\n      swap2\n      or\n      dup2\n      sstore\n      swap1\n      mload\n      dup1\n      mload\n        /* \"Documents/GitHub/Store-system-with-feedback/main.sol\":14079:14131  structStatusMarriage(msg.sender, titleProduct, true) */\n      swap4\n      swap5\n        /* \"Documents/GitHub/Store-system-with-feedback/main.sol\":14052:14132  structStatusMarriages.push(structStatusMarriage(msg.sender, titleProduct, true)) */\n      swap2\n      swap4\n      tag_344\n      swap4\n      0xdf6966c971051c3d54ec59162606531493a51404a002842f56009d7e5cf4a8c8\n      swap1\n      swap4\n      add\n      swap3\n      swap2\n      swap1\n      swap2\n      add\n      swap1\n      tag_253\n      jump\t// in\n    tag_344:\n      pop\n      0x40\n      swap2\n      swap1\n      swap2\n      add\n      mload\n      0x02\n      swap1\n      swap2\n      add\n      dup1\n      sload\n      not(0xff)\n      and\n      swap2\n      iszero\n      iszero\n      swap2\n      swap1\n      swap2\n      or\n      swap1\n      sstore\n      0x01\n      swap3\n      pop\n        /* \"Documents/GitHub/Store-system-with-feedback/main.sol\":13919:14185  if(keccak256(abi.encodePacked(tempProductName)) == keccak256(abi.encodePacked(titleProduct))) {                    \r... */\n    tag_342:\n      pop\n        /* \"Documents/GitHub/Store-system-with-feedback/main.sol\":13838:13841  i++ */\n      dup1\n      tag_345\n      dup2\n      tag_295\n      jump\t// in\n    tag_345:\n      swap2\n      pop\n      pop\n        /* \"Documents/GitHub/Store-system-with-feedback/main.sol\":13798:14196  for(uint i = 0; i < productList.length; i++) {\r... */\n      jump(tag_329)\n    tag_330:\n      pop\n        /* \"Documents/GitHub/Store-system-with-feedback/main.sol\":14229:14233  true */\n      0x01\n        /* \"Documents/GitHub/Store-system-with-feedback/main.sol\":14214:14233  tempRequire == true */\n      dup2\n      iszero\n      iszero\n      eq\n        /* \"Documents/GitHub/Store-system-with-feedback/main.sol\":14206:14269  require(tempRequire == true, \"error: there is no such product\") */\n      tag_235\n      jumpi\n      mload(0x40)\n      shl(0xe5, 0x461bcd)\n      dup2\n      mstore\n        /* \"#utility.yul\":12609:12611   */\n      0x20\n        /* \"Documents/GitHub/Store-system-with-feedback/main.sol\":14206:14269  require(tempRequire == true, \"error: there is no such product\") */\n      0x04\n      dup3\n      add\n        /* \"#utility.yul\":12591:12612   */\n      mstore\n        /* \"#utility.yul\":12648:12650   */\n      0x1f\n        /* \"#utility.yul\":12628:12646   */\n      0x24\n      dup3\n      add\n        /* \"#utility.yul\":12621:12651   */\n      mstore\n        /* \"#utility.yul\":12687:12720   */\n      0x6572726f723a207468657265206973206e6f20737563682070726f6475637400\n        /* \"#utility.yul\":12667:12685   */\n      0x44\n      dup3\n      add\n        /* \"#utility.yul\":12660:12721   */\n      mstore\n        /* \"#utility.yul\":12738:12756   */\n      0x64\n      add\n        /* \"Documents/GitHub/Store-system-with-feedback/main.sol\":14206:14269  require(tempRequire == true, \"error: there is no such product\") */\n      tag_223\n        /* \"#utility.yul\":12407:12762   */\n      jump\n        /* \"Documents/GitHub/Store-system-with-feedback/main.sol\":3747:3899  function check_logged_user(string memory login) public view returns(bool) {\r... */\n    tag_108:\n        /* \"Documents/GitHub/Store-system-with-feedback/main.sol\":3815:3819  bool */\n      0x00\n        /* \"Documents/GitHub/Store-system-with-feedback/main.sol\":3843:3854  structUsers */\n      0x04\n        /* \"Documents/GitHub/Store-system-with-feedback/main.sol\":3843:3879  structUsers[structUserLogins[login]] */\n      0x00\n        /* \"Documents/GitHub/Store-system-with-feedback/main.sol\":3855:3871  structUserLogins */\n      0x05\n        /* \"Documents/GitHub/Store-system-with-feedback/main.sol\":3872:3877  login */\n      dup5\n        /* \"Documents/GitHub/Store-system-with-feedback/main.sol\":3855:3878  structUserLogins[login] */\n      mload(0x40)\n      tag_318\n      swap2\n      swap1\n      tag_212\n      jump\t// in\n        /* \"Documents/GitHub/Store-system-with-feedback/main.sol\":2766:2876  function get_product_list() public view returns(string[] memory) {\r... */\n    tag_112:\n        /* \"Documents/GitHub/Store-system-with-feedback/main.sol\":2814:2829  string[] memory */\n      0x60\n        /* \"Documents/GitHub/Store-system-with-feedback/main.sol\":2853:2864  productList */\n      0x09\n        /* \"Documents/GitHub/Store-system-with-feedback/main.sol\":2846:2864  return productList */\n      dup1\n      sload\n      dup1\n      0x20\n      mul\n      0x20\n      add\n      mload(0x40)\n      swap1\n      dup2\n      add\n      0x40\n      mstore\n      dup1\n      swap3\n      swap2\n      swap1\n      dup2\n      dup2\n      mstore\n      0x20\n      add\n      0x00\n      swap1\n    tag_352:\n      dup3\n      dup3\n      lt\n      iszero\n      tag_266\n      jumpi\n      dup4\n      dup3\n      swap1\n      0x00\n      mstore\n      keccak256(0x00, 0x20)\n      add\n      dup1\n      sload\n      tag_355\n      swap1\n      tag_269\n      jump\t// in\n    tag_355:\n      dup1\n      0x1f\n      add\n      0x20\n      dup1\n      swap2\n      div\n      mul\n      0x20\n      add\n      mload(0x40)\n      swap1\n      dup2\n      add\n      0x40\n      mstore\n      dup1\n      swap3\n      swap2\n      swap1\n      dup2\n      dup2\n      mstore\n      0x20\n      add\n      dup3\n      dup1\n      sload\n      tag_356\n      swap1\n      tag_269\n      jump\t// in\n    tag_356:\n      dup1\n      iszero\n      tag_357\n      jumpi\n      dup1\n      0x1f\n      lt\n      tag_358\n      jumpi\n      0x0100\n      dup1\n      dup4\n      sload\n      div\n      mul\n      dup4\n      mstore\n      swap2\n      0x20\n      add\n      swap2\n      jump(tag_357)\n    tag_358:\n      dup3\n      add\n      swap2\n      swap1\n      0x00\n      mstore\n      keccak256(0x00, 0x20)\n      swap1\n    tag_359:\n      dup2\n      sload\n      dup2\n      mstore\n      swap1\n      0x01\n      add\n      swap1\n      0x20\n      add\n      dup1\n      dup4\n      gt\n      tag_359\n      jumpi\n      dup3\n      swap1\n      sub\n      0x1f\n      and\n      dup3\n      add\n      swap2\n    tag_357:\n      pop\n      pop\n      pop\n      pop\n      pop\n      dup2\n      mstore\n      0x20\n      add\n      swap1\n      0x01\n      add\n      swap1\n      jump(tag_352)\n        /* \"Documents/GitHub/Store-system-with-feedback/main.sol\":3995:4141  function get_role_user(string memory login) public view returns(uint) {\r... */\n    tag_117:\n        /* \"Documents/GitHub/Store-system-with-feedback/main.sol\":4059:4063  uint */\n      0x00\n        /* \"Documents/GitHub/Store-system-with-feedback/main.sol\":4087:4098  structUsers */\n      0x04\n        /* \"Documents/GitHub/Store-system-with-feedback/main.sol\":4087:4123  structUsers[structUserLogins[login]] */\n      0x00\n        /* \"Documents/GitHub/Store-system-with-feedback/main.sol\":4099:4115  structUserLogins */\n      0x05\n        /* \"Documents/GitHub/Store-system-with-feedback/main.sol\":4116:4121  login */\n      dup5\n        /* \"Documents/GitHub/Store-system-with-feedback/main.sol\":4099:4122  structUserLogins[login] */\n      mload(0x40)\n      tag_211\n      swap2\n      swap1\n      tag_212\n      jump\t// in\n        /* \"Documents/GitHub/Store-system-with-feedback/main.sol\":4639:4926  function get_address(string memory login) public view returns(address) {\r... */\n    tag_122:\n        /* \"Documents/GitHub/Store-system-with-feedback/main.sol\":4701:4708  address */\n      0x00\n        /* \"Documents/GitHub/Store-system-with-feedback/main.sol\":4721:4732  address adr */\n      dup1\n        /* \"Documents/GitHub/Store-system-with-feedback/main.sol\":4782:4783  0 */\n      0x00\n      sub(shl(0xa0, 0x01), 0x01)\n        /* \"Documents/GitHub/Store-system-with-feedback/main.sol\":4747:4784  structUserLogins[login] != address(0) */\n      and\n        /* \"Documents/GitHub/Store-system-with-feedback/main.sol\":4747:4763  structUserLogins */\n      0x05\n        /* \"Documents/GitHub/Store-system-with-feedback/main.sol\":4764:4769  login */\n      dup5\n        /* \"Documents/GitHub/Store-system-with-feedback/main.sol\":4747:4770  structUserLogins[login] */\n      mload(0x40)\n      tag_363\n      swap2\n      swap1\n      tag_212\n      jump\t// in\n    tag_363:\n      swap1\n      dup2\n      mstore\n      mload(0x40)\n      swap1\n      dup2\n      swap1\n      sub\n      0x20\n      add\n      swap1\n      keccak256\n      sload\n      sub(shl(0xa0, 0x01), 0x01)\n      and\n        /* \"Documents/GitHub/Store-system-with-feedback/main.sol\":4747:4784  structUserLogins[login] != address(0) */\n      eq\n        /* \"Documents/GitHub/Store-system-with-feedback/main.sol\":4743:4897  if (structUserLogins[login] != address(0)) {\r... */\n      tag_364\n      jumpi\n        /* \"Documents/GitHub/Store-system-with-feedback/main.sol\":4807:4823  structUserLogins */\n      0x05\n        /* \"Documents/GitHub/Store-system-with-feedback/main.sol\":4824:4829  login */\n      dup4\n        /* \"Documents/GitHub/Store-system-with-feedback/main.sol\":4807:4830  structUserLogins[login] */\n      mload(0x40)\n      tag_365\n      swap2\n      swap1\n      tag_212\n      jump\t// in\n    tag_365:\n      swap1\n      dup2\n      mstore\n      mload(0x40)\n      swap1\n      dup2\n      swap1\n      sub\n      0x20\n      add\n      swap1\n      keccak256\n      sload\n      sub(shl(0xa0, 0x01), 0x01)\n      and\n      swap1\n      pop\n        /* \"Documents/GitHub/Store-system-with-feedback/main.sol\":4743:4897  if (structUserLogins[login] != address(0)) {\r... */\n      jump(tag_366)\n    tag_364:\n        /* \"Documents/GitHub/Store-system-with-feedback/main.sol\":4869:4878  shopLists */\n      0x01\n        /* \"Documents/GitHub/Store-system-with-feedback/main.sol\":4879:4884  login */\n      dup4\n        /* \"Documents/GitHub/Store-system-with-feedback/main.sol\":4869:4885  shopLists[login] */\n      mload(0x40)\n      tag_367\n      swap2\n      swap1\n      tag_212\n      jump\t// in\n    tag_367:\n      swap1\n      dup2\n      mstore\n      mload(0x40)\n      swap1\n      dup2\n      swap1\n      sub\n      0x20\n      add\n      swap1\n      keccak256\n      sload\n      sub(shl(0xa0, 0x01), 0x01)\n      and\n      swap1\n      pop\n        /* \"Documents/GitHub/Store-system-with-feedback/main.sol\":4743:4897  if (structUserLogins[login] != address(0)) {\r... */\n    tag_366:\n        /* \"Documents/GitHub/Store-system-with-feedback/main.sol\":4914:4917  adr */\n      swap3\n        /* \"Documents/GitHub/Store-system-with-feedback/main.sol\":4639:4926  function get_address(string memory login) public view returns(address) {\r... */\n      swap2\n      pop\n      pop\n      jump\t// out\n        /* \"Documents/GitHub/Store-system-with-feedback/main.sol\":7326:7616  function addProductShop (string memory title, uint256 price, string memory description) public {\r... */\n    tag_128:\n        /* \"Documents/GitHub/Store-system-with-feedback/main.sol\":7456:7537  structProduct(msg.sender, description , price*(10**18), addProductShop_idProduct) */\n      0x40\n      dup1\n      mload\n      0x80\n      dup2\n      add\n      dup3\n      mstore\n        /* \"Documents/GitHub/Store-system-with-feedback/main.sol\":7470:7480  msg.sender */\n      caller\n        /* \"Documents/GitHub/Store-system-with-feedback/main.sol\":7456:7537  structProduct(msg.sender, description , price*(10**18), addProductShop_idProduct) */\n      dup2\n      mstore\n      0x20\n      dup2\n      add\n      dup4\n      swap1\n      mstore\n      swap1\n      dup2\n      add\n        /* \"Documents/GitHub/Store-system-with-feedback/main.sol\":7496:7510  price*(10**18) */\n      tag_369\n        /* \"Documents/GitHub/Store-system-with-feedback/main.sol\":7496:7501  price */\n      dup5\n        /* \"Documents/GitHub/Store-system-with-feedback/main.sol\":7503:7509  10**18 */\n      0x0de0b6b3a7640000\n        /* \"Documents/GitHub/Store-system-with-feedback/main.sol\":7496:7510  price*(10**18) */\n      tag_370\n      jump\t// in\n    tag_369:\n        /* \"Documents/GitHub/Store-system-with-feedback/main.sol\":7456:7537  structProduct(msg.sender, description , price*(10**18), addProductShop_idProduct) */\n      dup2\n      mstore\n      0x20\n      add\n        /* \"Documents/GitHub/Store-system-with-feedback/main.sol\":7512:7536  addProductShop_idProduct */\n      sload(0x0d)\n        /* \"Documents/GitHub/Store-system-with-feedback/main.sol\":7456:7537  structProduct(msg.sender, description , price*(10**18), addProductShop_idProduct) */\n      dup2\n      mstore\n      pop\n        /* \"Documents/GitHub/Store-system-with-feedback/main.sol\":7432:7446  structProducts */\n      0x08\n        /* \"Documents/GitHub/Store-system-with-feedback/main.sol\":7447:7452  title */\n      dup5\n        /* \"Documents/GitHub/Store-system-with-feedback/main.sol\":7432:7453  structProducts[title] */\n      mload(0x40)\n      tag_371\n      swap2\n      swap1\n      tag_212\n      jump\t// in\n    tag_371:\n      swap1\n      dup2\n      mstore\n      mload(0x40)\n      0x20\n      swap2\n      dup2\n      swap1\n      sub\n      dup3\n      add\n      swap1\n      keccak256\n        /* \"Documents/GitHub/Store-system-with-feedback/main.sol\":7432:7537  structProducts[title] = structProduct(msg.sender, description , price*(10**18), addProductShop_idProduct) */\n      dup3\n      mload\n      dup2\n      sload\n      not(sub(shl(0xa0, 0x01), 0x01))\n      and\n      sub(shl(0xa0, 0x01), 0x01)\n      swap1\n      swap2\n      and\n      or\n      dup2\n      sstore\n      dup3\n      dup3\n      add\n      mload\n      dup1\n      mload\n        /* \"Documents/GitHub/Store-system-with-feedback/main.sol\":7432:7453  structProducts[title] */\n      swap2\n      swap3\n        /* \"Documents/GitHub/Store-system-with-feedback/main.sol\":7432:7537  structProducts[title] = structProduct(msg.sender, description , price*(10**18), addProductShop_idProduct) */\n      tag_372\n      swap3\n      0x01\n      dup6\n      add\n      swap3\n      swap1\n      swap2\n      add\n      swap1\n      tag_253\n      jump\t// in\n    tag_372:\n      pop\n      0x40\n      dup3\n      add\n      mload\n      0x02\n      dup3\n      add\n      sstore\n      0x60\n      swap1\n      swap2\n      add\n      mload\n      0x03\n      swap1\n      swap2\n      add\n      sstore\n        /* \"Documents/GitHub/Store-system-with-feedback/main.sol\":7548:7559  productList */\n      0x09\n        /* \"Documents/GitHub/Store-system-with-feedback/main.sol\":7548:7571  productList.push(title) */\n      dup1\n      sload\n      0x01\n      dup2\n      add\n      dup3\n      sstore\n      0x00\n      swap2\n      swap1\n      swap2\n      mstore\n      dup4\n      mload\n      tag_374\n      swap2\n      0x6e1540171b6c0c960b71a7020d9f60077f6af931a8bbf590da0223dacf75c7af\n      add\n      swap1\n      0x20\n      dup7\n      add\n      swap1\n      tag_253\n      jump\t// in\n    tag_374:\n      pop\n        /* \"Documents/GitHub/Store-system-with-feedback/main.sol\":7582:7606  addProductShop_idProduct */\n      0x0d\n        /* \"Documents/GitHub/Store-system-with-feedback/main.sol\":7582:7608  addProductShop_idProduct++ */\n      dup1\n      sload\n      swap1\n        /* \"Documents/GitHub/Store-system-with-feedback/main.sol\":7582:7606  addProductShop_idProduct */\n      0x00\n        /* \"Documents/GitHub/Store-system-with-feedback/main.sol\":7582:7608  addProductShop_idProduct++ */\n      tag_375\n      dup4\n      tag_295\n      jump\t// in\n    tag_375:\n      swap2\n      swap1\n      pop\n      sstore\n      pop\n        /* \"Documents/GitHub/Store-system-with-feedback/main.sol\":7326:7616  function addProductShop (string memory title, uint256 price, string memory description) public {\r... */\n      pop\n      pop\n      pop\n      jump\t// out\n        /* \"Documents/GitHub/Store-system-with-feedback/main.sol\":12690:13003  function refusalToPurchase (uint idPurchase) public payable {\r... */\n    tag_132:\n        /* \"Documents/GitHub/Store-system-with-feedback/main.sol\":12783:12804  structStatusPurchases */\n      0x0a\n        /* \"Documents/GitHub/Store-system-with-feedback/main.sol\":12805:12815  idPurchase */\n      dup2\n        /* \"Documents/GitHub/Store-system-with-feedback/main.sol\":12783:12816  structStatusPurchases[idPurchase] */\n      dup2\n      sload\n      dup2\n      lt\n      tag_378\n      jumpi\n      tag_378\n      tag_218\n      jump\t// in\n    tag_378:\n      0x00\n      swap2\n      dup3\n      mstore\n      0x20\n      swap1\n      swap2\n      keccak256\n      0x04\n      swap1\n      swap2\n      mul\n      add\n        /* \"Documents/GitHub/Store-system-with-feedback/main.sol\":12783:12826  structStatusPurchases[idPurchase].userLogin */\n      sload\n      sub(shl(0xa0, 0x01), 0x01)\n      and\n        /* \"Documents/GitHub/Store-system-with-feedback/main.sol\":12769:12779  msg.sender */\n      caller\n        /* \"Documents/GitHub/Store-system-with-feedback/main.sol\":12769:12826  msg.sender == structStatusPurchases[idPurchase].userLogin */\n      eq\n        /* \"Documents/GitHub/Store-system-with-feedback/main.sol\":12761:12856  require(msg.sender == structStatusPurchases[idPurchase].userLogin, \"error: yor not msg.sender\") */\n      tag_380\n      jumpi\n      mload(0x40)\n      shl(0xe5, 0x461bcd)\n      dup2\n      mstore\n        /* \"#utility.yul\":12969:12971   */\n      0x20\n        /* \"Documents/GitHub/Store-system-with-feedback/main.sol\":12761:12856  require(msg.sender == structStatusPurchases[idPurchase].userLogin, \"error: yor not msg.sender\") */\n      0x04\n      dup3\n      add\n        /* \"#utility.yul\":12951:12972   */\n      mstore\n        /* \"#utility.yul\":13008:13010   */\n      0x19\n        /* \"#utility.yul\":12988:13006   */\n      0x24\n      dup3\n      add\n        /* \"#utility.yul\":12981:13011   */\n      mstore\n      shl(0x39, 0x32b93937b91d103cb7b9103737ba1036b9b39739b2b73232b9)\n        /* \"#utility.yul\":13027:13045   */\n      0x44\n      dup3\n      add\n        /* \"#utility.yul\":13020:13075   */\n      mstore\n        /* \"#utility.yul\":13092:13110   */\n      0x64\n      add\n        /* \"Documents/GitHub/Store-system-with-feedback/main.sol\":12761:12856  require(msg.sender == structStatusPurchases[idPurchase].userLogin, \"error: yor not msg.sender\") */\n      tag_223\n        /* \"#utility.yul\":12767:13116   */\n      jump\n        /* \"Documents/GitHub/Store-system-with-feedback/main.sol\":12761:12856  require(msg.sender == structStatusPurchases[idPurchase].userLogin, \"error: yor not msg.sender\") */\n    tag_380:\n        /* \"Documents/GitHub/Store-system-with-feedback/main.sol\":12875:12885  msg.sender */\n      caller\n      sub(shl(0xa0, 0x01), 0x01)\n        /* \"Documents/GitHub/Store-system-with-feedback/main.sol\":12867:12895  payable(msg.sender).transfer */\n      and\n        /* \"Documents/GitHub/Store-system-with-feedback/main.sol\":12867:12936  payable(msg.sender).transfer(structStatusPurchases[idPurchase].price) */\n      0x08fc\n        /* \"Documents/GitHub/Store-system-with-feedback/main.sol\":12896:12917  structStatusPurchases */\n      0x0a\n        /* \"Documents/GitHub/Store-system-with-feedback/main.sol\":12918:12928  idPurchase */\n      dup4\n        /* \"Documents/GitHub/Store-system-with-feedback/main.sol\":12896:12929  structStatusPurchases[idPurchase] */\n      dup2\n      sload\n      dup2\n      lt\n      tag_384\n      jumpi\n      tag_384\n      tag_218\n      jump\t// in\n    tag_384:\n      swap1\n      0x00\n      mstore\n      keccak256(0x00, 0x20)\n      swap1\n      0x04\n      mul\n      add\n        /* \"Documents/GitHub/Store-system-with-feedback/main.sol\":12896:12935  structStatusPurchases[idPurchase].price */\n      0x02\n      add\n      sload\n        /* \"Documents/GitHub/Store-system-with-feedback/main.sol\":12867:12936  payable(msg.sender).transfer(structStatusPurchases[idPurchase].price) */\n      swap1\n      dup2\n      iszero\n      mul\n      swap1\n      mload(0x40)\n      0x00\n      mload(0x40)\n      dup1\n      dup4\n      sub\n      dup2\n      dup6\n      dup9\n      dup9\n      call\n      swap4\n      pop\n      pop\n      pop\n      pop\n      iszero\n      dup1\n      iszero\n      tag_387\n      jumpi\n      returndatasize\n      0x00\n      dup1\n      returndatacopy\n      revert(0x00, returndatasize)\n    tag_387:\n      pop\n        /* \"Documents/GitHub/Store-system-with-feedback/main.sol\":12990:12995  false */\n      0x00\n        /* \"Documents/GitHub/Store-system-with-feedback/main.sol\":12947:12968  structStatusPurchases */\n      0x0a\n        /* \"Documents/GitHub/Store-system-with-feedback/main.sol\":12969:12979  idPurchase */\n      dup3\n        /* \"Documents/GitHub/Store-system-with-feedback/main.sol\":12947:12980  structStatusPurchases[idPurchase] */\n      dup2\n      sload\n      dup2\n      lt\n      tag_389\n      jumpi\n      tag_389\n      tag_218\n      jump\t// in\n    tag_389:\n      0x00\n      swap2\n      dup3\n      mstore\n      0x20\n      swap1\n      swap2\n      keccak256\n      0x04\n      swap1\n      swap2\n      mul\n      add\n        /* \"Documents/GitHub/Store-system-with-feedback/main.sol\":12947:12987  structStatusPurchases[idPurchase].status */\n      0x03\n      add\n        /* \"Documents/GitHub/Store-system-with-feedback/main.sol\":12947:12995  structStatusPurchases[idPurchase].status = false */\n      dup1\n      sload\n      not(0xff)\n      and\n      swap2\n      iszero\n      iszero\n      swap2\n      swap1\n      swap2\n      or\n      swap1\n      sstore\n      pop\n        /* \"Documents/GitHub/Store-system-with-feedback/main.sol\":12690:13003  function refusalToPurchase (uint idPurchase) public payable {\r... */\n      jump\t// out\n        /* \"Documents/GitHub/Store-system-with-feedback/main.sol\":7126:7177  structStatusMarriage[] public structStatusMarriages */\n    tag_136:\n      0x0c\n      dup2\n      dup2\n      sload\n      dup2\n      lt\n      tag_391\n      jumpi\n      0x00\n      dup1\n      revert\n    tag_391:\n      0x00\n      swap2\n      dup3\n      mstore\n      0x20\n      swap1\n      swap2\n      keccak256\n      0x03\n      swap1\n      swap2\n      mul\n      add\n      dup1\n      sload\n      0x01\n      dup3\n      add\n      dup1\n      sload\n      sub(shl(0xa0, 0x01), 0x01)\n      swap1\n      swap3\n      and\n      swap4\n      pop\n      swap1\n      tag_393\n      swap1\n      tag_269\n      jump\t// in\n    tag_393:\n      dup1\n      0x1f\n      add\n      0x20\n      dup1\n      swap2\n      div\n      mul\n      0x20\n      add\n      mload(0x40)\n      swap1\n      dup2\n      add\n      0x40\n      mstore\n      dup1\n      swap3\n      swap2\n      swap1\n      dup2\n      dup2\n      mstore\n      0x20\n      add\n      dup3\n      dup1\n      sload\n      tag_394\n      swap1\n      tag_269\n      jump\t// in\n    tag_394:\n      dup1\n      iszero\n      tag_395\n      jumpi\n      dup1\n      0x1f\n      lt\n      tag_396\n      jumpi\n      0x0100\n      dup1\n      dup4\n      sload\n      div\n      mul\n      dup4\n      mstore\n      swap2\n      0x20\n      add\n      swap2\n      jump(tag_395)\n    tag_396:\n      dup3\n      add\n      swap2\n      swap1\n      0x00\n      mstore\n      keccak256(0x00, 0x20)\n      swap1\n    tag_397:\n      dup2\n      sload\n      dup2\n      mstore\n      swap1\n      0x01\n      add\n      swap1\n      0x20\n      add\n      dup1\n      dup4\n      gt\n      tag_397\n      jumpi\n      dup3\n      swap1\n      sub\n      0x1f\n      and\n      dup3\n      add\n      swap2\n    tag_395:\n      pop\n      pop\n      pop\n      0x02\n      swap1\n      swap4\n      add\n      sload\n      swap2\n      swap3\n      pop\n      pop\n      0xff\n      and\n      dup4\n      jump\t// out\n        /* \"Documents/GitHub/Store-system-with-feedback/main.sol\":11661:12063  function login_shop(string memory login, bytes32 password) public {\r... */\n    tag_143:\n        /* \"Documents/GitHub/Store-system-with-feedback/main.sol\":11746:11757  structShops */\n      0x00\n        /* \"Documents/GitHub/Store-system-with-feedback/main.sol\":11746:11775  structShops[shopLists[login]] */\n      dup1\n        /* \"Documents/GitHub/Store-system-with-feedback/main.sol\":11758:11767  shopLists */\n      0x01\n        /* \"Documents/GitHub/Store-system-with-feedback/main.sol\":11768:11773  login */\n      dup5\n        /* \"Documents/GitHub/Store-system-with-feedback/main.sol\":11758:11774  shopLists[login] */\n      mload(0x40)\n      tag_399\n      swap2\n      swap1\n      tag_212\n      jump\t// in\n    tag_399:\n      swap1\n      dup2\n      mstore\n      0x40\n      dup1\n      mload\n      0x20\n      swap3\n      dup2\n      swap1\n      sub\n      dup4\n      add\n      swap1\n      keccak256\n      sload\n      sub(shl(0xa0, 0x01), 0x01)\n      and\n        /* \"Documents/GitHub/Store-system-with-feedback/main.sol\":11746:11775  structShops[shopLists[login]] */\n      dup4\n      mstore\n      swap1\n      dup3\n      add\n      swap3\n      swap1\n      swap3\n      mstore\n      add\n      0x00\n      keccak256\n        /* \"Documents/GitHub/Store-system-with-feedback/main.sol\":11746:11782  structShops[shopLists[login]].logged */\n      0x03\n      add\n      sload\n      0xff\n      and\n        /* \"Documents/GitHub/Store-system-with-feedback/main.sol\":11746:11791  structShops[shopLists[login]].logged == false */\n      iszero\n        /* \"Documents/GitHub/Store-system-with-feedback/main.sol\":11738:11825  require(structShops[shopLists[login]].logged == false, \"Error: You are already logged\") */\n      tag_400\n      jumpi\n      mload(0x40)\n      shl(0xe5, 0x461bcd)\n      dup2\n      mstore\n      0x04\n      add\n      tag_223\n      swap1\n      tag_402\n      jump\t// in\n    tag_400:\n        /* \"Documents/GitHub/Store-system-with-feedback/main.sol\":11872:11873  0 */\n      0x00\n      sub(shl(0xa0, 0x01), 0x01)\n        /* \"Documents/GitHub/Store-system-with-feedback/main.sol\":11844:11874  shopLists[login] != address(0) */\n      and\n        /* \"Documents/GitHub/Store-system-with-feedback/main.sol\":11844:11853  shopLists */\n      0x01\n        /* \"Documents/GitHub/Store-system-with-feedback/main.sol\":11854:11859  login */\n      dup4\n        /* \"Documents/GitHub/Store-system-with-feedback/main.sol\":11844:11860  shopLists[login] */\n      mload(0x40)\n      tag_403\n      swap2\n      swap1\n      tag_212\n      jump\t// in\n    tag_403:\n      swap1\n      dup2\n      mstore\n      mload(0x40)\n      swap1\n      dup2\n      swap1\n      sub\n      0x20\n      add\n      swap1\n      keccak256\n      sload\n      sub(shl(0xa0, 0x01), 0x01)\n      and\n        /* \"Documents/GitHub/Store-system-with-feedback/main.sol\":11844:11874  shopLists[login] != address(0) */\n      eq\n      iszero\n        /* \"Documents/GitHub/Store-system-with-feedback/main.sol\":11836:11904  require(shopLists[login] != address(0), \"Error: User doesn't exist\") */\n      tag_404\n      jumpi\n      mload(0x40)\n      shl(0xe5, 0x461bcd)\n      dup2\n      mstore\n      0x04\n      add\n      tag_223\n      swap1\n      tag_406\n      jump\t// in\n    tag_404:\n        /* \"Documents/GitHub/Store-system-with-feedback/main.sol\":11965:11973  password */\n      dup1\n        /* \"Documents/GitHub/Store-system-with-feedback/main.sol\":11923:11934  structShops */\n      0x00\n        /* \"Documents/GitHub/Store-system-with-feedback/main.sol\":11923:11952  structShops[shopLists[login]] */\n      dup1\n        /* \"Documents/GitHub/Store-system-with-feedback/main.sol\":11935:11944  shopLists */\n      0x01\n        /* \"Documents/GitHub/Store-system-with-feedback/main.sol\":11945:11950  login */\n      dup6\n        /* \"Documents/GitHub/Store-system-with-feedback/main.sol\":11935:11951  shopLists[login] */\n      mload(0x40)\n      tag_407\n      swap2\n      swap1\n      tag_212\n      jump\t// in\n    tag_407:\n      swap1\n      dup2\n      mstore\n      0x40\n      dup1\n      mload\n      0x20\n      swap3\n      dup2\n      swap1\n      sub\n      dup4\n      add\n      swap1\n      keccak256\n      sload\n      sub(shl(0xa0, 0x01), 0x01)\n      and\n        /* \"Documents/GitHub/Store-system-with-feedback/main.sol\":11923:11952  structShops[shopLists[login]] */\n      dup4\n      mstore\n      swap1\n      dup3\n      add\n      swap3\n      swap1\n      swap3\n      mstore\n      add\n      0x00\n      keccak256\n        /* \"Documents/GitHub/Store-system-with-feedback/main.sol\":11935:11951  shopLists[login] */\n      0x01\n        /* \"Documents/GitHub/Store-system-with-feedback/main.sol\":11923:11961  structShops[shopLists[login]].password */\n      add\n      sload\n        /* \"Documents/GitHub/Store-system-with-feedback/main.sol\":11923:11973  structShops[shopLists[login]].password == password */\n      eq\n        /* \"Documents/GitHub/Store-system-with-feedback/main.sol\":11915:12001  require(structShops[shopLists[login]].password == password, \"Error: Invalid password\") */\n      tag_408\n      jumpi\n      mload(0x40)\n      shl(0xe5, 0x461bcd)\n      dup2\n      mstore\n      0x04\n      add\n      tag_223\n      swap1\n      tag_410\n      jump\t// in\n    tag_408:\n        /* \"Documents/GitHub/Store-system-with-feedback/main.sol\":12051:12055  true */\n      0x01\n        /* \"Documents/GitHub/Store-system-with-feedback/main.sol\":12012:12023  structShops */\n      0x00\n        /* \"Documents/GitHub/Store-system-with-feedback/main.sol\":12012:12041  structShops[shopLists[login]] */\n      dup1\n        /* \"Documents/GitHub/Store-system-with-feedback/main.sol\":12024:12033  shopLists */\n      0x01\n        /* \"Documents/GitHub/Store-system-with-feedback/main.sol\":12034:12039  login */\n      dup6\n        /* \"Documents/GitHub/Store-system-with-feedback/main.sol\":12024:12040  shopLists[login] */\n      mload(0x40)\n      tag_411\n      swap2\n      swap1\n      tag_212\n      jump\t// in\n    tag_411:\n      swap1\n      dup2\n      mstore\n      0x40\n      dup1\n      mload\n      0x20\n      swap3\n      dup2\n      swap1\n      sub\n      dup4\n      add\n      swap1\n      keccak256\n      sload\n      sub(shl(0xa0, 0x01), 0x01)\n      and\n        /* \"Documents/GitHub/Store-system-with-feedback/main.sol\":12012:12041  structShops[shopLists[login]] */\n      dup4\n      mstore\n      swap1\n      dup3\n      add\n      swap3\n      swap1\n      swap3\n      mstore\n      add\n      0x00\n      keccak256\n        /* \"Documents/GitHub/Store-system-with-feedback/main.sol\":12012:12048  structShops[shopLists[login]].logged */\n      0x03\n      add\n        /* \"Documents/GitHub/Store-system-with-feedback/main.sol\":12012:12055  structShops[shopLists[login]].logged = true */\n      dup1\n      sload\n      not(0xff)\n      and\n      swap2\n      iszero\n      iszero\n      swap2\n      swap1\n      swap2\n      or\n      swap1\n      sstore\n      pop\n      pop\n        /* \"Documents/GitHub/Store-system-with-feedback/main.sol\":11661:12063  function login_shop(string memory login, bytes32 password) public {\r... */\n      jump\t// out\n        /* \"Documents/GitHub/Store-system-with-feedback/main.sol\":4422:4561  function get_hash(string memory password) public pure returns(bytes32) {\r... */\n    tag_147:\n        /* \"Documents/GitHub/Store-system-with-feedback/main.sol\":4484:4491  bytes32 */\n      0x00\n        /* \"Documents/GitHub/Store-system-with-feedback/main.sol\":4542:4550  password */\n      dup2\n        /* \"Documents/GitHub/Store-system-with-feedback/main.sol\":4525:4551  abi.encodePacked(password) */\n      add(0x20, mload(0x40))\n      tag_413\n      swap2\n      swap1\n      tag_212\n      jump\t// in\n    tag_413:\n      mload(0x40)\n      0x20\n      dup2\n      dup4\n      sub\n      sub\n      dup2\n      mstore\n      swap1\n      0x40\n      mstore\n        /* \"Documents/GitHub/Store-system-with-feedback/main.sol\":4515:4552  keccak256(abi.encodePacked(password)) */\n      dup1\n      mload\n      swap1\n      0x20\n      add\n      keccak256\n        /* \"Documents/GitHub/Store-system-with-feedback/main.sol\":4508:4553  return(keccak256(abi.encodePacked(password))) */\n      swap1\n      pop\n        /* \"Documents/GitHub/Store-system-with-feedback/main.sol\":4422:4561  function get_hash(string memory password) public pure returns(bytes32) {\r... */\n      swap2\n      swap1\n      pop\n      jump\t// out\n        /* \"Documents/GitHub/Store-system-with-feedback/main.sol\":9606:10129  function acceptMarriage(uint idMarriage, bool confirmation) public payable {\r... */\n    tag_152:\n        /* \"Documents/GitHub/Store-system-with-feedback/main.sol\":9714:9728  structProducts */\n      0x08\n        /* \"Documents/GitHub/Store-system-with-feedback/main.sol\":9729:9750  structStatusMarriages */\n      0x0c\n        /* \"Documents/GitHub/Store-system-with-feedback/main.sol\":9751:9761  idMarriage */\n      dup4\n        /* \"Documents/GitHub/Store-system-with-feedback/main.sol\":9729:9762  structStatusMarriages[idMarriage] */\n      dup2\n      sload\n      dup2\n      lt\n      tag_416\n      jumpi\n      tag_416\n      tag_218\n      jump\t// in\n    tag_416:\n      swap1\n      0x00\n      mstore\n      keccak256(0x00, 0x20)\n      swap1\n      0x03\n      mul\n      add\n        /* \"Documents/GitHub/Store-system-with-feedback/main.sol\":9729:9775  structStatusMarriages[idMarriage].titleProduct */\n      0x01\n      add\n        /* \"Documents/GitHub/Store-system-with-feedback/main.sol\":9714:9776  structProducts[structStatusMarriages[idMarriage].titleProduct] */\n      mload(0x40)\n      tag_418\n      swap2\n      swap1\n      tag_221\n      jump\t// in\n    tag_418:\n      swap1\n      dup2\n      mstore\n      mload(0x40)\n      swap1\n      dup2\n      swap1\n      sub\n      0x20\n      add\n      swap1\n      keccak256\n        /* \"Documents/GitHub/Store-system-with-feedback/main.sol\":9714:9781  structProducts[structStatusMarriages[idMarriage].titleProduct].shop */\n      sload\n        /* \"Documents/GitHub/Store-system-with-feedback/main.sol\":9700:9710  msg.sender */\n      caller\n      sub(shl(0xa0, 0x01), 0x01)\n        /* \"Documents/GitHub/Store-system-with-feedback/main.sol\":9714:9781  structProducts[structStatusMarriages[idMarriage].titleProduct].shop */\n      swap1\n      swap2\n      and\n        /* \"Documents/GitHub/Store-system-with-feedback/main.sol\":9700:9781  msg.sender == structProducts[structStatusMarriages[idMarriage].titleProduct].shop */\n      eq\n        /* \"Documents/GitHub/Store-system-with-feedback/main.sol\":9692:9817  require(msg.sender == structProducts[structStatusMarriages[idMarriage].titleProduct].shop, \"error: this is not your product\") */\n      tag_419\n      jumpi\n      mload(0x40)\n      shl(0xe5, 0x461bcd)\n      dup2\n      mstore\n      0x04\n      add\n      tag_223\n      swap1\n      tag_224\n      jump\t// in\n    tag_419:\n        /* \"Documents/GitHub/Store-system-with-feedback/main.sol\":9847:9851  true */\n      0x01\n        /* \"Documents/GitHub/Store-system-with-feedback/main.sol\":9831:9851  confirmation == true */\n      dup2\n      iszero\n      iszero\n      eq\n        /* \"Documents/GitHub/Store-system-with-feedback/main.sol\":9828:10122  if(confirmation == true) {\r... */\n      iszero\n      tag_421\n      jumpi\n        /* \"Documents/GitHub/Store-system-with-feedback/main.sol\":9876:9897  structStatusMarriages */\n      0x0c\n        /* \"Documents/GitHub/Store-system-with-feedback/main.sol\":9898:9908  idMarriage */\n      dup3\n        /* \"Documents/GitHub/Store-system-with-feedback/main.sol\":9876:9909  structStatusMarriages[idMarriage] */\n      dup2\n      sload\n      dup2\n      lt\n      tag_423\n      jumpi\n      tag_423\n      tag_218\n      jump\t// in\n    tag_423:\n      0x00\n      swap2\n      dup3\n      mstore\n      0x20\n      dup3\n      keccak256\n      0x03\n      swap1\n      swap2\n      mul\n      add\n        /* \"Documents/GitHub/Store-system-with-feedback/main.sol\":9876:9919  structStatusMarriages[idMarriage].userLogin */\n      sload\n        /* \"Documents/GitHub/Store-system-with-feedback/main.sol\":9868:9940  payable(structStatusMarriages[idMarriage].userLogin).transfer(msg.value) */\n      mload(0x40)\n      sub(shl(0xa0, 0x01), 0x01)\n        /* \"Documents/GitHub/Store-system-with-feedback/main.sol\":9876:9919  structStatusMarriages[idMarriage].userLogin */\n      swap1\n      swap2\n      and\n      swap2\n        /* \"Documents/GitHub/Store-system-with-feedback/main.sol\":9930:9939  msg.value */\n      callvalue\n        /* \"Documents/GitHub/Store-system-with-feedback/main.sol\":9868:9940  payable(structStatusMarriages[idMarriage].userLogin).transfer(msg.value) */\n      dup1\n      iszero\n      0x08fc\n      mul\n      swap3\n        /* \"Documents/GitHub/Store-system-with-feedback/main.sol\":9930:9939  msg.value */\n      swap1\n      swap2\n        /* \"Documents/GitHub/Store-system-with-feedback/main.sol\":9868:9940  payable(structStatusMarriages[idMarriage].userLogin).transfer(msg.value) */\n      dup2\n        /* \"Documents/GitHub/Store-system-with-feedback/main.sol\":9876:9909  structStatusMarriages[idMarriage] */\n      dup2\n        /* \"Documents/GitHub/Store-system-with-feedback/main.sol\":9868:9940  payable(structStatusMarriages[idMarriage].userLogin).transfer(msg.value) */\n      dup2\n        /* \"Documents/GitHub/Store-system-with-feedback/main.sol\":9930:9939  msg.value */\n      dup6\n        /* \"Documents/GitHub/Store-system-with-feedback/main.sol\":9876:9919  structStatusMarriages[idMarriage].userLogin */\n      dup9\n        /* \"Documents/GitHub/Store-system-with-feedback/main.sol\":9868:9940  payable(structStatusMarriages[idMarriage].userLogin).transfer(msg.value) */\n      dup9\n      call\n      swap4\n      pop\n      pop\n      pop\n      pop\n      iszero\n      dup1\n      iszero\n      tag_426\n      jumpi\n      returndatasize\n      0x00\n      dup1\n      returndatacopy\n      revert(0x00, returndatasize)\n    tag_426:\n      pop\n        /* \"Documents/GitHub/Store-system-with-feedback/main.sol\":9998:10003  false */\n      0x00\n        /* \"Documents/GitHub/Store-system-with-feedback/main.sol\":9955:9976  structStatusMarriages */\n      0x0c\n        /* \"Documents/GitHub/Store-system-with-feedback/main.sol\":9977:9987  idMarriage */\n      dup4\n        /* \"Documents/GitHub/Store-system-with-feedback/main.sol\":9955:9988  structStatusMarriages[idMarriage] */\n      dup2\n      sload\n      dup2\n      lt\n      tag_310\n      jumpi\n      tag_310\n      tag_218\n      jump\t// in\n        /* \"Documents/GitHub/Store-system-with-feedback/main.sol\":9828:10122  if(confirmation == true) {\r... */\n    tag_421:\n        /* \"Documents/GitHub/Store-system-with-feedback/main.sol\":10024:10045  confirmation == false */\n      dup1\n        /* \"Documents/GitHub/Store-system-with-feedback/main.sol\":10021:10122  if(confirmation == false) {\r... */\n      tag_235\n      jumpi\n        /* \"Documents/GitHub/Store-system-with-feedback/main.sol\":10105:10110  false */\n      0x00\n        /* \"Documents/GitHub/Store-system-with-feedback/main.sol\":10062:10083  structStatusMarriages */\n      0x0c\n        /* \"Documents/GitHub/Store-system-with-feedback/main.sol\":10084:10094  idMarriage */\n      dup4\n        /* \"Documents/GitHub/Store-system-with-feedback/main.sol\":10062:10095  structStatusMarriages[idMarriage] */\n      dup2\n      sload\n      dup2\n      lt\n      tag_310\n      jumpi\n      tag_310\n      tag_218\n      jump\t// in\n        /* \"Documents/GitHub/Store-system-with-feedback/main.sol\":5288:5338  mapping (address => structShop) public structShops */\n    tag_156:\n      0x00\n      0x20\n      dup2\n      swap1\n      mstore\n      swap1\n      dup2\n      mstore\n      0x40\n      swap1\n      keccak256\n      dup1\n      sload\n      dup2\n      swap1\n      tag_435\n      swap1\n      tag_269\n      jump\t// in\n    tag_435:\n      dup1\n      0x1f\n      add\n      0x20\n      dup1\n      swap2\n      div\n      mul\n      0x20\n      add\n      mload(0x40)\n      swap1\n      dup2\n      add\n      0x40\n      mstore\n      dup1\n      swap3\n      swap2\n      swap1\n      dup2\n      dup2\n      mstore\n      0x20\n      add\n      dup3\n      dup1\n      sload\n      tag_436\n      swap1\n      tag_269\n      jump\t// in\n    tag_436:\n      dup1\n      iszero\n      tag_437\n      jumpi\n      dup1\n      0x1f\n      lt\n      tag_438\n      jumpi\n      0x0100\n      dup1\n      dup4\n      sload\n      div\n      mul\n      dup4\n      mstore\n      swap2\n      0x20\n      add\n      swap2\n      jump(tag_437)\n    tag_438:\n      dup3\n      add\n      swap2\n      swap1\n      0x00\n      mstore\n      keccak256(0x00, 0x20)\n      swap1\n    tag_439:\n      dup2\n      sload\n      dup2\n      mstore\n      swap1\n      0x01\n      add\n      swap1\n      0x20\n      add\n      dup1\n      dup4\n      gt\n      tag_439\n      jumpi\n      dup3\n      swap1\n      sub\n      0x1f\n      and\n      dup3\n      add\n      swap2\n    tag_437:\n      pop\n      pop\n      pop\n      0x01\n      dup5\n      add\n      sload\n      0x02\n      dup6\n      add\n      sload\n      0x03\n      dup7\n      add\n      sload\n      0x04\n      dup8\n      add\n      dup1\n      sload\n      swap7\n      swap8\n      swap4\n      swap7\n      swap3\n      swap6\n      pop\n      0xff\n      swap1\n      swap2\n      and\n      swap4\n      pop\n      swap1\n      tag_440\n      swap1\n      tag_269\n      jump\t// in\n    tag_440:\n      dup1\n      0x1f\n      add\n      0x20\n      dup1\n      swap2\n      div\n      mul\n      0x20\n      add\n      mload(0x40)\n      swap1\n      dup2\n      add\n      0x40\n      mstore\n      dup1\n      swap3\n      swap2\n      swap1\n      dup2\n      dup2\n      mstore\n      0x20\n      add\n      dup3\n      dup1\n      sload\n      tag_441\n      swap1\n      tag_269\n      jump\t// in\n    tag_441:\n      dup1\n      iszero\n      tag_442\n      jumpi\n      dup1\n      0x1f\n      lt\n      tag_443\n      jumpi\n      0x0100\n      dup1\n      dup4\n      sload\n      div\n      mul\n      dup4\n      mstore\n      swap2\n      0x20\n      add\n      swap2\n      jump(tag_442)\n    tag_443:\n      dup3\n      add\n      swap2\n      swap1\n      0x00\n      mstore\n      keccak256(0x00, 0x20)\n      swap1\n    tag_444:\n      dup2\n      sload\n      dup2\n      mstore\n      swap1\n      0x01\n      add\n      swap1\n      0x20\n      add\n      dup1\n      dup4\n      gt\n      tag_444\n      jumpi\n      dup3\n      swap1\n      sub\n      0x1f\n      and\n      dup3\n      add\n      swap2\n    tag_442:\n      pop\n      pop\n      pop\n      pop\n      pop\n      swap1\n      dup1\n      0x05\n      add\n      dup1\n      sload\n      tag_445\n      swap1\n      tag_269\n      jump\t// in\n    tag_445:\n      dup1\n      0x1f\n      add\n      0x20\n      dup1\n      swap2\n      div\n      mul\n      0x20\n      add\n      mload(0x40)\n      swap1\n      dup2\n      add\n      0x40\n      mstore\n      dup1\n      swap3\n      swap2\n      swap1\n      dup2\n      dup2\n      mstore\n      0x20\n      add\n      dup3\n      dup1\n      sload\n      tag_446\n      swap1\n      tag_269\n      jump\t// in\n    tag_446:\n      dup1\n      iszero\n      tag_447\n      jumpi\n      dup1\n      0x1f\n      lt\n      tag_448\n      jumpi\n      0x0100\n      dup1\n      dup4\n      sload\n      div\n      mul\n      dup4\n      mstore\n      swap2\n      0x20\n      add\n      swap2\n      jump(tag_447)\n    tag_448:\n      dup3\n      add\n      swap2\n      swap1\n      0x00\n      mstore\n      keccak256(0x00, 0x20)\n      swap1\n    tag_449:\n      dup2\n      sload\n      dup2\n      mstore\n      swap1\n      0x01\n      add\n      swap1\n      0x20\n      add\n      dup1\n      dup4\n      gt\n      tag_449\n      jumpi\n      dup3\n      swap1\n      sub\n      0x1f\n      and\n      dup3\n      add\n      swap2\n    tag_447:\n      pop\n      pop\n      pop\n      pop\n      pop\n      swap1\n      dup1\n      0x06\n      add\n      sload\n      swap1\n      pop\n      dup8\n      jump\t// out\n        /* \"Documents/GitHub/Store-system-with-feedback/main.sol\":5972:6021  mapping(address => structUser) public structUsers */\n    tag_162:\n      mstore(0x20, 0x04)\n      0x00\n      swap1\n      dup2\n      mstore\n      0x40\n      swap1\n      keccak256\n      dup1\n      sload\n      dup2\n      swap1\n      tag_450\n      swap1\n      tag_269\n      jump\t// in\n    tag_450:\n      dup1\n      0x1f\n      add\n      0x20\n      dup1\n      swap2\n      div\n      mul\n      0x20\n      add\n      mload(0x40)\n      swap1\n      dup2\n      add\n      0x40\n      mstore\n      dup1\n      swap3\n      swap2\n      swap1\n      dup2\n      dup2\n      mstore\n      0x20\n      add\n      dup3\n      dup1\n      sload\n      tag_451\n      swap1\n      tag_269\n      jump\t// in\n    tag_451:\n      dup1\n      iszero\n      tag_452\n      jumpi\n      dup1\n      0x1f\n      lt\n      tag_453\n      jumpi\n      0x0100\n      dup1\n      dup4\n      sload\n      div\n      mul\n      dup4\n      mstore\n      swap2\n      0x20\n      add\n      swap2\n      jump(tag_452)\n    tag_453:\n      dup3\n      add\n      swap2\n      swap1\n      0x00\n      mstore\n      keccak256(0x00, 0x20)\n      swap1\n    tag_454:\n      dup2\n      sload\n      dup2\n      mstore\n      swap1\n      0x01\n      add\n      swap1\n      0x20\n      add\n      dup1\n      dup4\n      gt\n      tag_454\n      jumpi\n      dup3\n      swap1\n      sub\n      0x1f\n      and\n      dup3\n      add\n      swap2\n    tag_452:\n      pop\n      pop\n      pop\n      pop\n      0x01\n      dup4\n      add\n      sload\n      0x02\n      dup5\n      add\n      sload\n      0x03\n      swap1\n      swap5\n      add\n      sload\n      swap3\n      swap4\n      swap1\n      swap3\n      swap1\n      swap2\n      pop\n      0xff\n      and\n      dup5\n      jump\t// out\n        /* \"Documents/GitHub/Store-system-with-feedback/main.sol\":10212:11065  function getStoryRating(string memory shopName) public view returns(uint) {\r... */\n    tag_168:\n        /* \"Documents/GitHub/Store-system-with-feedback/main.sol\":10280:10284  uint */\n      0x00\n      dup1\n      dup1\n      dup1\n        /* \"Documents/GitHub/Store-system-with-feedback/main.sol\":10370:10957  for(uint i = 0; i < shopList.length; i++) {\r... */\n    tag_456:\n        /* \"Documents/GitHub/Store-system-with-feedback/main.sol\":10390:10398  shopList */\n      0x02\n        /* \"Documents/GitHub/Store-system-with-feedback/main.sol\":10390:10405  shopList.length */\n      sload\n        /* \"Documents/GitHub/Store-system-with-feedback/main.sol\":10386:10405  i < shopList.length */\n      dup2\n      lt\n        /* \"Documents/GitHub/Store-system-with-feedback/main.sol\":10370:10957  for(uint i = 0; i < shopList.length; i++) {\r... */\n      iszero\n      tag_457\n      jumpi\n        /* \"Documents/GitHub/Store-system-with-feedback/main.sol\":10427:10453  string memory tempShopName */\n      0x00\n        /* \"Documents/GitHub/Store-system-with-feedback/main.sol\":10456:10464  shopList */\n      0x02\n        /* \"Documents/GitHub/Store-system-with-feedback/main.sol\":10465:10466  i */\n      dup3\n        /* \"Documents/GitHub/Store-system-with-feedback/main.sol\":10456:10467  shopList[i] */\n      dup2\n      sload\n      dup2\n      lt\n      tag_460\n      jumpi\n      tag_460\n      tag_218\n      jump\t// in\n    tag_460:\n      swap1\n      0x00\n      mstore\n      keccak256(0x00, 0x20)\n      add\n        /* \"Documents/GitHub/Store-system-with-feedback/main.sol\":10427:10467  string memory tempShopName = shopList[i] */\n      dup1\n      sload\n      tag_462\n      swap1\n      tag_269\n      jump\t// in\n    tag_462:\n      dup1\n      0x1f\n      add\n      0x20\n      dup1\n      swap2\n      div\n      mul\n      0x20\n      add\n      mload(0x40)\n      swap1\n      dup2\n      add\n      0x40\n      mstore\n      dup1\n      swap3\n      swap2\n      swap1\n      dup2\n      dup2\n      mstore\n      0x20\n      add\n      dup3\n      dup1\n      sload\n      tag_463\n      swap1\n      tag_269\n      jump\t// in\n    tag_463:\n      dup1\n      iszero\n      tag_464\n      jumpi\n      dup1\n      0x1f\n      lt\n      tag_465\n      jumpi\n      0x0100\n      dup1\n      dup4\n      sload\n      div\n      mul\n      dup4\n      mstore\n      swap2\n      0x20\n      add\n      swap2\n      jump(tag_464)\n    tag_465:\n      dup3\n      add\n      swap2\n      swap1\n      0x00\n      mstore\n      keccak256(0x00, 0x20)\n      swap1\n    tag_466:\n      dup2\n      sload\n      dup2\n      mstore\n      swap1\n      0x01\n      add\n      swap1\n      0x20\n      add\n      dup1\n      dup4\n      gt\n      tag_466\n      jumpi\n      dup3\n      swap1\n      sub\n      0x1f\n      and\n      dup3\n      add\n      swap2\n    tag_464:\n      pop\n      pop\n      pop\n      pop\n      pop\n      swap1\n      pop\n        /* \"Documents/GitHub/Store-system-with-feedback/main.sol\":10557:10565  shopName */\n      dup6\n        /* \"Documents/GitHub/Store-system-with-feedback/main.sol\":10540:10566  abi.encodePacked(shopName) */\n      add(0x20, mload(0x40))\n      tag_467\n      swap2\n      swap1\n      tag_212\n      jump\t// in\n    tag_467:\n      mload(0x40)\n      0x20\n      dup2\n      dup4\n      sub\n      sub\n      dup2\n      mstore\n      swap1\n      0x40\n      mstore\n        /* \"Documents/GitHub/Store-system-with-feedback/main.sol\":10530:10567  keccak256(abi.encodePacked(shopName)) */\n      dup1\n      mload\n      swap1\n      0x20\n      add\n      keccak256\n        /* \"Documents/GitHub/Store-system-with-feedback/main.sol\":10512:10524  tempShopName */\n      dup2\n        /* \"Documents/GitHub/Store-system-with-feedback/main.sol\":10495:10525  abi.encodePacked(tempShopName) */\n      add(0x20, mload(0x40))\n      tag_468\n      swap2\n      swap1\n      tag_212\n      jump\t// in\n    tag_468:\n      mload(0x40)\n      0x20\n      dup2\n      dup4\n      sub\n      sub\n      dup2\n      mstore\n      swap1\n      0x40\n      mstore\n        /* \"Documents/GitHub/Store-system-with-feedback/main.sol\":10485:10526  keccak256(abi.encodePacked(tempShopName)) */\n      dup1\n      mload\n      swap1\n      0x20\n      add\n      keccak256\n        /* \"Documents/GitHub/Store-system-with-feedback/main.sol\":10485:10567  keccak256(abi.encodePacked(tempShopName)) == keccak256(abi.encodePacked(shopName)) */\n      eq\n        /* \"Documents/GitHub/Store-system-with-feedback/main.sol\":10482:10946  if(keccak256(abi.encodePacked(tempShopName)) == keccak256(abi.encodePacked(shopName))) {                    \r... */\n      iszero\n      tag_471\n      jumpi\n        /* \"Documents/GitHub/Store-system-with-feedback/main.sol\":10617:10618  0 */\n      0x00\n        /* \"Documents/GitHub/Store-system-with-feedback/main.sol\":10613:10618  i = 0 */\n      swap2\n      pop\n        /* \"Documents/GitHub/Store-system-with-feedback/main.sol\":10608:10931  for (i = 0; i <= complaintBooks.length; i++) {\r... */\n    tag_470:\n        /* \"Documents/GitHub/Store-system-with-feedback/main.sol\":10625:10639  complaintBooks */\n      0x03\n        /* \"Documents/GitHub/Store-system-with-feedback/main.sol\":10625:10646  complaintBooks.length */\n      sload\n        /* \"Documents/GitHub/Store-system-with-feedback/main.sol\":10620:10646  i <= complaintBooks.length */\n      dup3\n      gt\n        /* \"Documents/GitHub/Store-system-with-feedback/main.sol\":10608:10931  for (i = 0; i <= complaintBooks.length; i++) {\r... */\n      tag_471\n      jumpi\n        /* \"Documents/GitHub/Store-system-with-feedback/main.sol\":10747:10761  complaintBooks */\n      0x03\n        /* \"Documents/GitHub/Store-system-with-feedback/main.sol\":10762:10763  i */\n      dup3\n        /* \"Documents/GitHub/Store-system-with-feedback/main.sol\":10747:10764  complaintBooks[i] */\n      dup2\n      sload\n      dup2\n      lt\n      tag_474\n      jumpi\n      tag_474\n      tag_218\n      jump\t// in\n    tag_474:\n      swap1\n      0x00\n      mstore\n      keccak256(0x00, 0x20)\n      swap1\n      0x05\n      mul\n      add\n        /* \"Documents/GitHub/Store-system-with-feedback/main.sol\":10747:10769  complaintBooks[i].shop */\n      0x00\n      add\n        /* \"Documents/GitHub/Store-system-with-feedback/main.sol\":10730:10770  abi.encodePacked(complaintBooks[i].shop) */\n      add(0x20, mload(0x40))\n      tag_476\n      swap2\n      swap1\n      tag_221\n      jump\t// in\n    tag_476:\n      mload(0x40)\n      0x20\n      dup2\n      dup4\n      sub\n      sub\n      dup2\n      mstore\n      swap1\n      0x40\n      mstore\n        /* \"Documents/GitHub/Store-system-with-feedback/main.sol\":10720:10771  keccak256(abi.encodePacked(complaintBooks[i].shop)) */\n      dup1\n      mload\n      swap1\n      0x20\n      add\n      keccak256\n        /* \"Documents/GitHub/Store-system-with-feedback/main.sol\":10706:10714  shopName */\n      dup7\n        /* \"Documents/GitHub/Store-system-with-feedback/main.sol\":10689:10715  abi.encodePacked(shopName) */\n      add(0x20, mload(0x40))\n      tag_477\n      swap2\n      swap1\n      tag_212\n      jump\t// in\n    tag_477:\n      mload(0x40)\n      0x20\n      dup2\n      dup4\n      sub\n      sub\n      dup2\n      mstore\n      swap1\n      0x40\n      mstore\n        /* \"Documents/GitHub/Store-system-with-feedback/main.sol\":10679:10716  keccak256(abi.encodePacked(shopName)) */\n      dup1\n      mload\n      swap1\n      0x20\n      add\n      keccak256\n        /* \"Documents/GitHub/Store-system-with-feedback/main.sol\":10679:10771  keccak256(abi.encodePacked(shopName)) == keccak256(abi.encodePacked(complaintBooks[i].shop)) */\n      eq\n        /* \"Documents/GitHub/Store-system-with-feedback/main.sol\":10676:10912  if(keccak256(abi.encodePacked(shopName)) == keccak256(abi.encodePacked(complaintBooks[i].shop))) {\r... */\n      iszero\n      tag_478\n      jumpi\n        /* \"Documents/GitHub/Store-system-with-feedback/main.sol\":10820:10834  complaintBooks */\n      0x03\n        /* \"Documents/GitHub/Store-system-with-feedback/main.sol\":10835:10836  i */\n      dup3\n        /* \"Documents/GitHub/Store-system-with-feedback/main.sol\":10820:10837  complaintBooks[i] */\n      dup2\n      sload\n      dup2\n      lt\n      tag_480\n      jumpi\n      tag_480\n      tag_218\n      jump\t// in\n    tag_480:\n      swap1\n      0x00\n      mstore\n      keccak256(0x00, 0x20)\n      swap1\n      0x05\n      mul\n      add\n        /* \"Documents/GitHub/Store-system-with-feedback/main.sol\":10820:10844  complaintBooks[i].rating */\n      0x03\n      add\n      sload\n        /* \"Documents/GitHub/Store-system-with-feedback/main.sol\":10800:10844  countArrayRating += complaintBooks[i].rating */\n      dup4\n      tag_482\n      swap2\n      swap1\n      tag_483\n      jump\t// in\n    tag_482:\n      swap3\n      pop\n        /* \"Documents/GitHub/Store-system-with-feedback/main.sol\":10676:10912  if(keccak256(abi.encodePacked(shopName)) == keccak256(abi.encodePacked(complaintBooks[i].shop))) {\r... */\n    tag_478:\n        /* \"Documents/GitHub/Store-system-with-feedback/main.sol\":10648:10651  i++ */\n      dup2\n      tag_484\n      dup2\n      tag_295\n      jump\t// in\n    tag_484:\n      swap3\n      pop\n      pop\n        /* \"Documents/GitHub/Store-system-with-feedback/main.sol\":10608:10931  for (i = 0; i <= complaintBooks.length; i++) {\r... */\n      jump(tag_470)\n    tag_471:\n      pop\n        /* \"Documents/GitHub/Store-system-with-feedback/main.sol\":10407:10410  i++ */\n      dup1\n      tag_485\n      dup2\n      tag_295\n      jump\t// in\n    tag_485:\n      swap2\n      pop\n      pop\n        /* \"Documents/GitHub/Store-system-with-feedback/main.sol\":10370:10957  for(uint i = 0; i < shopList.length; i++) {\r... */\n      jump(tag_456)\n    tag_457:\n      pop\n        /* \"Documents/GitHub/Store-system-with-feedback/main.sol\":10987:11023  countArrayRating / totalAverageValue */\n      tag_486\n        /* \"Documents/GitHub/Store-system-with-feedback/main.sol\":11006:11023  totalAverageValue */\n      dup3\n        /* \"Documents/GitHub/Store-system-with-feedback/main.sol\":10987:11003  countArrayRating */\n      dup3\n        /* \"Documents/GitHub/Store-system-with-feedback/main.sol\":10987:11023  countArrayRating / totalAverageValue */\n      tag_487\n      jump\t// in\n    tag_486:\n        /* \"Documents/GitHub/Store-system-with-feedback/main.sol\":10967:11023  countArrayRating += countArrayRating / totalAverageValue */\n      tag_488\n      swap1\n      dup3\n      tag_483\n      jump\t// in\n    tag_488:\n      swap5\n        /* \"Documents/GitHub/Store-system-with-feedback/main.sol\":10212:11065  function getStoryRating(string memory shopName) public view returns(uint) {\r... */\n      swap4\n      pop\n      pop\n      pop\n      pop\n      jump\t// out\n        /* \"Documents/GitHub/Store-system-with-feedback/main.sol\":6873:6920  structStatusReturn[] public structStatusReturns */\n    tag_173:\n      0x0b\n      dup2\n      dup2\n      sload\n      dup2\n      lt\n      tag_391\n      jumpi\n      0x00\n      dup1\n      revert\n        /* \"Documents/GitHub/Store-system-with-feedback/main.sol\":13069:13640  function productReturn(string memory titleProduct) public {\r... */\n    tag_178:\n        /* \"Documents/GitHub/Store-system-with-feedback/main.sol\":13138:13154  bool tempRequire */\n      0x00\n      dup1\n        /* \"Documents/GitHub/Store-system-with-feedback/main.sol\":13165:13559  for(uint i = 0; i < productList.length; i++) {\r... */\n    tag_497:\n        /* \"Documents/GitHub/Store-system-with-feedback/main.sol\":13185:13196  productList */\n      0x09\n        /* \"Documents/GitHub/Store-system-with-feedback/main.sol\":13185:13203  productList.length */\n      sload\n        /* \"Documents/GitHub/Store-system-with-feedback/main.sol\":13181:13203  i < productList.length */\n      dup2\n      lt\n        /* \"Documents/GitHub/Store-system-with-feedback/main.sol\":13165:13559  for(uint i = 0; i < productList.length; i++) {\r... */\n      iszero\n      tag_330\n      jumpi\n        /* \"Documents/GitHub/Store-system-with-feedback/main.sol\":13225:13254  string memory tempProductName */\n      0x00\n        /* \"Documents/GitHub/Store-system-with-feedback/main.sol\":13257:13268  productList */\n      0x09\n        /* \"Documents/GitHub/Store-system-with-feedback/main.sol\":13269:13270  i */\n      dup3\n        /* \"Documents/GitHub/Store-system-with-feedback/main.sol\":13257:13271  productList[i] */\n      dup2\n      sload\n      dup2\n      lt\n      tag_501\n      jumpi\n      tag_501\n      tag_218\n      jump\t// in\n    tag_501:\n      swap1\n      0x00\n      mstore\n      keccak256(0x00, 0x20)\n      add\n        /* \"Documents/GitHub/Store-system-with-feedback/main.sol\":13225:13271  string memory tempProductName = productList[i] */\n      dup1\n      sload\n      tag_503\n      swap1\n      tag_269\n      jump\t// in\n    tag_503:\n      dup1\n      0x1f\n      add\n      0x20\n      dup1\n      swap2\n      div\n      mul\n      0x20\n      add\n      mload(0x40)\n      swap1\n      dup2\n      add\n      0x40\n      mstore\n      dup1\n      swap3\n      swap2\n      swap1\n      dup2\n      dup2\n      mstore\n      0x20\n      add\n      dup3\n      dup1\n      sload\n      tag_504\n      swap1\n      tag_269\n      jump\t// in\n    tag_504:\n      dup1\n      iszero\n      tag_505\n      jumpi\n      dup1\n      0x1f\n      lt\n      tag_506\n      jumpi\n      0x0100\n      dup1\n      dup4\n      sload\n      div\n      mul\n      dup4\n      mstore\n      swap2\n      0x20\n      add\n      swap2\n      jump(tag_505)\n    tag_506:\n      dup3\n      add\n      swap2\n      swap1\n      0x00\n      mstore\n      keccak256(0x00, 0x20)\n      swap1\n    tag_507:\n      dup2\n      sload\n      dup2\n      mstore\n      swap1\n      0x01\n      add\n      swap1\n      0x20\n      add\n      dup1\n      dup4\n      gt\n      tag_507\n      jumpi\n      dup3\n      swap1\n      sub\n      0x1f\n      and\n      dup3\n      add\n      swap2\n    tag_505:\n      pop\n      pop\n      pop\n      pop\n      pop\n      swap1\n      pop\n        /* \"Documents/GitHub/Store-system-with-feedback/main.sol\":13364:13376  titleProduct */\n      dup4\n        /* \"Documents/GitHub/Store-system-with-feedback/main.sol\":13347:13377  abi.encodePacked(titleProduct) */\n      add(0x20, mload(0x40))\n      tag_508\n      swap2\n      swap1\n      tag_212\n      jump\t// in\n    tag_508:\n      mload(0x40)\n      0x20\n      dup2\n      dup4\n      sub\n      sub\n      dup2\n      mstore\n      swap1\n      0x40\n      mstore\n        /* \"Documents/GitHub/Store-system-with-feedback/main.sol\":13337:13378  keccak256(abi.encodePacked(titleProduct)) */\n      dup1\n      mload\n      swap1\n      0x20\n      add\n      keccak256\n        /* \"Documents/GitHub/Store-system-with-feedback/main.sol\":13316:13331  tempProductName */\n      dup2\n        /* \"Documents/GitHub/Store-system-with-feedback/main.sol\":13299:13332  abi.encodePacked(tempProductName) */\n      add(0x20, mload(0x40))\n      tag_509\n      swap2\n      swap1\n      tag_212\n      jump\t// in\n    tag_509:\n      mload(0x40)\n      0x20\n      dup2\n      dup4\n      sub\n      sub\n      dup2\n      mstore\n      swap1\n      0x40\n      mstore\n        /* \"Documents/GitHub/Store-system-with-feedback/main.sol\":13289:13333  keccak256(abi.encodePacked(tempProductName)) */\n      dup1\n      mload\n      swap1\n      0x20\n      add\n      keccak256\n        /* \"Documents/GitHub/Store-system-with-feedback/main.sol\":13289:13378  keccak256(abi.encodePacked(tempProductName)) == keccak256(abi.encodePacked(titleProduct)) */\n      eq\n        /* \"Documents/GitHub/Store-system-with-feedback/main.sol\":13286:13548  if(keccak256(abi.encodePacked(tempProductName)) == keccak256(abi.encodePacked(titleProduct))) {                    \r... */\n      iszero\n      tag_510\n      jumpi\n        /* \"Documents/GitHub/Store-system-with-feedback/main.sol\":13444:13494  structStatusReturn(msg.sender, titleProduct, true) */\n      0x40\n      dup1\n      mload\n      0x60\n      dup2\n      add\n      dup3\n      mstore\n        /* \"Documents/GitHub/Store-system-with-feedback/main.sol\":13463:13473  msg.sender */\n      caller\n        /* \"Documents/GitHub/Store-system-with-feedback/main.sol\":13444:13494  structStatusReturn(msg.sender, titleProduct, true) */\n      dup2\n      mstore\n      0x20\n      dup1\n      dup3\n      add\n      dup8\n      dup2\n      mstore\n        /* \"Documents/GitHub/Store-system-with-feedback/main.sol\":13489:13493  true */\n      0x01\n        /* \"Documents/GitHub/Store-system-with-feedback/main.sol\":13444:13494  structStatusReturn(msg.sender, titleProduct, true) */\n      swap4\n      dup4\n      add\n      dup5\n      swap1\n      mstore\n        /* \"Documents/GitHub/Store-system-with-feedback/main.sol\":13419:13438  structStatusReturns */\n      0x0b\n        /* \"Documents/GitHub/Store-system-with-feedback/main.sol\":13419:13495  structStatusReturns.push(structStatusReturn(msg.sender, titleProduct, true)) */\n      dup1\n      sload\n      swap5\n      dup6\n      add\n      dup2\n      sstore\n      0x00\n      mstore\n      dup3\n      mload\n      0x0175b7a638427703f0dbe7bb9bbf987a2551717b34e79f33b5b1008d1fa01db9\n      0x03\n      swap1\n      swap6\n      mul\n      swap5\n      dup6\n      add\n      dup1\n      sload\n      not(sub(shl(0xa0, 0x01), 0x01))\n      and\n      sub(shl(0xa0, 0x01), 0x01)\n      swap1\n      swap3\n      and\n      swap2\n      swap1\n      swap2\n      or\n      dup2\n      sstore\n      swap1\n      mload\n      dup1\n      mload\n        /* \"Documents/GitHub/Store-system-with-feedback/main.sol\":13444:13494  structStatusReturn(msg.sender, titleProduct, true) */\n      swap4\n      swap5\n        /* \"Documents/GitHub/Store-system-with-feedback/main.sol\":13419:13495  structStatusReturns.push(structStatusReturn(msg.sender, titleProduct, true)) */\n      swap2\n      swap4\n      tag_512\n      swap4\n      0x0175b7a638427703f0dbe7bb9bbf987a2551717b34e79f33b5b1008d1fa01dba\n      swap1\n      swap4\n      add\n      swap3\n      swap2\n      swap1\n      swap2\n      add\n      swap1\n      tag_253\n      jump\t// in\n    tag_512:\n      pop\n      0x40\n      swap2\n      swap1\n      swap2\n      add\n      mload\n      0x02\n      swap1\n      swap2\n      add\n      dup1\n      sload\n      not(0xff)\n      and\n      swap2\n      iszero\n      iszero\n      swap2\n      swap1\n      swap2\n      or\n      swap1\n      sstore\n      0x01\n      swap3\n      pop\n        /* \"Documents/GitHub/Store-system-with-feedback/main.sol\":13286:13548  if(keccak256(abi.encodePacked(tempProductName)) == keccak256(abi.encodePacked(titleProduct))) {                    \r... */\n    tag_510:\n      pop\n        /* \"Documents/GitHub/Store-system-with-feedback/main.sol\":13205:13208  i++ */\n      dup1\n      tag_513\n      dup2\n      tag_295\n      jump\t// in\n    tag_513:\n      swap2\n      pop\n      pop\n        /* \"Documents/GitHub/Store-system-with-feedback/main.sol\":13165:13559  for(uint i = 0; i < productList.length; i++) {\r... */\n      jump(tag_497)\n        /* \"Documents/GitHub/Store-system-with-feedback/main.sol\":7691:8279  function leaveFeedback (string memory shop, string memory feedback, uint256 rating) public {\r... */\n    tag_188:\n        /* \"Documents/GitHub/Store-system-with-feedback/main.sol\":7811:7813  10 */\n      0x0a\n        /* \"Documents/GitHub/Store-system-with-feedback/main.sol\":7801:7807  rating */\n      dup2\n        /* \"Documents/GitHub/Store-system-with-feedback/main.sol\":7801:7813  rating <= 10 */\n      gt\n      iszero\n        /* \"Documents/GitHub/Store-system-with-feedback/main.sol\":7793:7850  require(rating <= 10,\"error: rating can be from 1 to 10\") */\n      tag_517\n      jumpi\n      mload(0x40)\n      shl(0xe5, 0x461bcd)\n      dup2\n      mstore\n        /* \"#utility.yul\":14386:14388   */\n      0x20\n        /* \"Documents/GitHub/Store-system-with-feedback/main.sol\":7793:7850  require(rating <= 10,\"error: rating can be from 1 to 10\") */\n      0x04\n      dup3\n      add\n        /* \"#utility.yul\":14368:14389   */\n      mstore\n        /* \"#utility.yul\":14425:14427   */\n      0x21\n        /* \"#utility.yul\":14405:14423   */\n      0x24\n      dup3\n      add\n        /* \"#utility.yul\":14398:14428   */\n      mstore\n        /* \"#utility.yul\":14464:14498   */\n      0x6572726f723a20726174696e672063616e2062652066726f6d203120746f2031\n        /* \"#utility.yul\":14444:14462   */\n      0x44\n      dup3\n      add\n        /* \"#utility.yul\":14437:14499   */\n      mstore\n      shl(0xfc, 0x03)\n        /* \"#utility.yul\":14515:14533   */\n      0x64\n      dup3\n      add\n        /* \"#utility.yul\":14508:14539   */\n      mstore\n        /* \"#utility.yul\":14556:14575   */\n      0x84\n      add\n        /* \"Documents/GitHub/Store-system-with-feedback/main.sol\":7793:7850  require(rating <= 10,\"error: rating can be from 1 to 10\") */\n      tag_223\n        /* \"#utility.yul\":14184:14581   */\n      jump\n        /* \"Documents/GitHub/Store-system-with-feedback/main.sol\":7793:7850  require(rating <= 10,\"error: rating can be from 1 to 10\") */\n    tag_517:\n        /* \"Documents/GitHub/Store-system-with-feedback/main.sol\":7865:7871  uint i */\n      0x00\n        /* \"Documents/GitHub/Store-system-with-feedback/main.sol\":7861:8272  for(uint i = 0; i <= shopList.length; i++) {\r... */\n    tag_520:\n        /* \"Documents/GitHub/Store-system-with-feedback/main.sol\":7882:7890  shopList */\n      0x02\n        /* \"Documents/GitHub/Store-system-with-feedback/main.sol\":7882:7897  shopList.length */\n      sload\n        /* \"Documents/GitHub/Store-system-with-feedback/main.sol\":7877:7897  i <= shopList.length */\n      dup2\n      gt\n        /* \"Documents/GitHub/Store-system-with-feedback/main.sol\":7861:8272  for(uint i = 0; i <= shopList.length; i++) {\r... */\n      tag_521\n      jumpi\n        /* \"Documents/GitHub/Store-system-with-feedback/main.sol\":7919:7945  string memory tempShopName */\n      0x00\n        /* \"Documents/GitHub/Store-system-with-feedback/main.sol\":7948:7956  shopList */\n      0x02\n        /* \"Documents/GitHub/Store-system-with-feedback/main.sol\":7957:7958  i */\n      dup3\n        /* \"Documents/GitHub/Store-system-with-feedback/main.sol\":7948:7959  shopList[i] */\n      dup2\n      sload\n      dup2\n      lt\n      tag_524\n      jumpi\n      tag_524\n      tag_218\n      jump\t// in\n    tag_524:\n      swap1\n      0x00\n      mstore\n      keccak256(0x00, 0x20)\n      add\n        /* \"Documents/GitHub/Store-system-with-feedback/main.sol\":7919:7959  string memory tempShopName = shopList[i] */\n      dup1\n      sload\n      tag_526\n      swap1\n      tag_269\n      jump\t// in\n    tag_526:\n      dup1\n      0x1f\n      add\n      0x20\n      dup1\n      swap2\n      div\n      mul\n      0x20\n      add\n      mload(0x40)\n      swap1\n      dup2\n      add\n      0x40\n      mstore\n      dup1\n      swap3\n      swap2\n      swap1\n      dup2\n      dup2\n      mstore\n      0x20\n      add\n      dup3\n      dup1\n      sload\n      tag_527\n      swap1\n      tag_269\n      jump\t// in\n    tag_527:\n      dup1\n      iszero\n      tag_528\n      jumpi\n      dup1\n      0x1f\n      lt\n      tag_529\n      jumpi\n      0x0100\n      dup1\n      dup4\n      sload\n      div\n      mul\n      dup4\n      mstore\n      swap2\n      0x20\n      add\n      swap2\n      jump(tag_528)\n    tag_529:\n      dup3\n      add\n      swap2\n      swap1\n      0x00\n      mstore\n      keccak256(0x00, 0x20)\n      swap1\n    tag_530:\n      dup2\n      sload\n      dup2\n      mstore\n      swap1\n      0x01\n      add\n      swap1\n      0x20\n      add\n      dup1\n      dup4\n      gt\n      tag_530\n      jumpi\n      dup3\n      swap1\n      sub\n      0x1f\n      and\n      dup3\n      add\n      swap2\n    tag_528:\n      pop\n      pop\n      pop\n      pop\n      pop\n      swap1\n      pop\n        /* \"Documents/GitHub/Store-system-with-feedback/main.sol\":8049:8053  shop */\n      dup5\n        /* \"Documents/GitHub/Store-system-with-feedback/main.sol\":8032:8054  abi.encodePacked(shop) */\n      add(0x20, mload(0x40))\n      tag_531\n      swap2\n      swap1\n      tag_212\n      jump\t// in\n    tag_531:\n      mload(0x40)\n      0x20\n      dup2\n      dup4\n      sub\n      sub\n      dup2\n      mstore\n      swap1\n      0x40\n      mstore\n        /* \"Documents/GitHub/Store-system-with-feedback/main.sol\":8022:8055  keccak256(abi.encodePacked(shop)) */\n      dup1\n      mload\n      swap1\n      0x20\n      add\n      keccak256\n        /* \"Documents/GitHub/Store-system-with-feedback/main.sol\":8004:8016  tempShopName */\n      dup2\n        /* \"Documents/GitHub/Store-system-with-feedback/main.sol\":7987:8017  abi.encodePacked(tempShopName) */\n      add(0x20, mload(0x40))\n      tag_532\n      swap2\n      swap1\n      tag_212\n      jump\t// in\n    tag_532:\n      mload(0x40)\n      0x20\n      dup2\n      dup4\n      sub\n      sub\n      dup2\n      mstore\n      swap1\n      0x40\n      mstore\n        /* \"Documents/GitHub/Store-system-with-feedback/main.sol\":7977:8018  keccak256(abi.encodePacked(tempShopName)) */\n      dup1\n      mload\n      swap1\n      0x20\n      add\n      keccak256\n        /* \"Documents/GitHub/Store-system-with-feedback/main.sol\":7977:8055  keccak256(abi.encodePacked(tempShopName)) == keccak256(abi.encodePacked(shop)) */\n      eq\n        /* \"Documents/GitHub/Store-system-with-feedback/main.sol\":7974:8261  if(keccak256(abi.encodePacked(tempShopName)) == keccak256(abi.encodePacked(shop))) {                    \r... */\n      iszero\n      tag_533\n      jumpi\n        /* \"Documents/GitHub/Store-system-with-feedback/main.sol\":8161:8244  complaintBook(shop, structUsers[msg.sender].userName, feedback, rating, zerroArray) */\n      0x40\n      dup1\n      mload\n      0xa0\n      dup2\n      add\n      dup3\n      mstore\n      dup7\n      dup2\n      mstore\n        /* \"Documents/GitHub/Store-system-with-feedback/main.sol\":8193:8203  msg.sender */\n      caller\n      0x00\n        /* \"Documents/GitHub/Store-system-with-feedback/main.sol\":8181:8204  structUsers[msg.sender] */\n      swap1\n      dup2\n      mstore\n        /* \"Documents/GitHub/Store-system-with-feedback/main.sol\":8181:8192  structUsers */\n      0x04\n        /* \"Documents/GitHub/Store-system-with-feedback/main.sol\":8161:8244  complaintBook(shop, structUsers[msg.sender].userName, feedback, rating, zerroArray) */\n      0x20\n        /* \"Documents/GitHub/Store-system-with-feedback/main.sol\":8181:8204  structUsers[msg.sender] */\n      swap1\n      dup2\n      mstore\n      swap3\n      swap1\n      keccak256\n        /* \"Documents/GitHub/Store-system-with-feedback/main.sol\":8161:8244  complaintBook(shop, structUsers[msg.sender].userName, feedback, rating, zerroArray) */\n      dup1\n      sload\n        /* \"Documents/GitHub/Store-system-with-feedback/main.sol\":8096:8122  string[] memory zerroArray */\n      0x60\n      swap4\n        /* \"Documents/GitHub/Store-system-with-feedback/main.sol\":8141:8155  complaintBooks */\n      0x03\n      swap4\n        /* \"Documents/GitHub/Store-system-with-feedback/main.sol\":8161:8244  complaintBook(shop, structUsers[msg.sender].userName, feedback, rating, zerroArray) */\n      swap3\n      swap1\n      dup4\n      add\n      swap2\n      tag_534\n      swap1\n      tag_269\n      jump\t// in\n    tag_534:\n      dup1\n      0x1f\n      add\n      0x20\n      dup1\n      swap2\n      div\n      mul\n      0x20\n      add\n      mload(0x40)\n      swap1\n      dup2\n      add\n      0x40\n      mstore\n      dup1\n      swap3\n      swap2\n      swap1\n      dup2\n      dup2\n      mstore\n      0x20\n      add\n      dup3\n      dup1\n      sload\n      tag_535\n      swap1\n      tag_269\n      jump\t// in\n    tag_535:\n      dup1\n      iszero\n      tag_536\n      jumpi\n      dup1\n      0x1f\n      lt\n      tag_537\n      jumpi\n      0x0100\n      dup1\n      dup4\n      sload\n      div\n      mul\n      dup4\n      mstore\n      swap2\n      0x20\n      add\n      swap2\n      jump(tag_536)\n    tag_537:\n      dup3\n      add\n      swap2\n      swap1\n      0x00\n      mstore\n      keccak256(0x00, 0x20)\n      swap1\n    tag_538:\n      dup2\n      sload\n      dup2\n      mstore\n      swap1\n      0x01\n      add\n      swap1\n      0x20\n      add\n      dup1\n      dup4\n      gt\n      tag_538\n      jumpi\n      dup3\n      swap1\n      sub\n      0x1f\n      and\n      dup3\n      add\n      swap2\n    tag_536:\n      pop\n      pop\n      pop\n      swap2\n      dup4\n      mstore\n      pop\n      pop\n      0x20\n      dup1\n      dup3\n      add\n      dup10\n      swap1\n      mstore\n      0x40\n      dup3\n      add\n      dup9\n      swap1\n      mstore\n      0x60\n      swap1\n      swap2\n      add\n      dup5\n      swap1\n      mstore\n        /* \"Documents/GitHub/Store-system-with-feedback/main.sol\":8141:8245  complaintBooks.push(complaintBook(shop, structUsers[msg.sender].userName, feedback, rating, zerroArray)) */\n      dup3\n      sload\n      0x01\n      dup2\n      add\n      dup5\n      sstore\n      0x00\n      swap4\n      dup5\n      mstore\n      swap3\n      dup2\n      swap1\n      keccak256\n      dup3\n      mload\n      dup1\n      mload\n      swap4\n      swap5\n      0x05\n      mul\n      swap1\n      swap2\n      add\n      swap3\n      tag_540\n      swap3\n      dup5\n      swap3\n      add\n      swap1\n      tag_253\n      jump\t// in\n    tag_540:\n      pop\n      0x20\n      dup3\n      dup2\n      add\n      mload\n      dup1\n      mload\n      tag_541\n      swap3\n      0x01\n      dup6\n      add\n      swap3\n      add\n      swap1\n      tag_253\n      jump\t// in\n    tag_541:\n      pop\n      0x40\n      dup3\n      add\n      mload\n      dup1\n      mload\n      tag_542\n      swap2\n      0x02\n      dup5\n      add\n      swap2\n      0x20\n      swap1\n      swap2\n      add\n      swap1\n      tag_253\n      jump\t// in\n    tag_542:\n      pop\n      0x60\n      dup3\n      add\n      mload\n      0x03\n      dup3\n      add\n      sstore\n      0x80\n      dup3\n      add\n      mload\n      dup1\n      mload\n      tag_543\n      swap2\n      0x04\n      dup5\n      add\n      swap2\n      0x20\n      swap1\n      swap2\n      add\n      swap1\n      tag_293\n      jump\t// in\n    tag_543:\n      pop\n      pop\n      pop\n        /* \"Documents/GitHub/Store-system-with-feedback/main.sol\":8057:8261  {                    \r... */\n      pop\n        /* \"Documents/GitHub/Store-system-with-feedback/main.sol\":7974:8261  if(keccak256(abi.encodePacked(tempShopName)) == keccak256(abi.encodePacked(shop))) {                    \r... */\n    tag_533:\n      pop\n        /* \"Documents/GitHub/Store-system-with-feedback/main.sol\":7899:7902  i++ */\n      dup1\n      tag_544\n      dup2\n      tag_295\n      jump\t// in\n    tag_544:\n      swap2\n      pop\n      pop\n        /* \"Documents/GitHub/Store-system-with-feedback/main.sol\":7861:8272  for(uint i = 0; i <= shopList.length; i++) {\r... */\n      jump(tag_520)\n    tag_521:\n      pop\n        /* \"Documents/GitHub/Store-system-with-feedback/main.sol\":7691:8279  function leaveFeedback (string memory shop, string memory feedback, uint256 rating) public {\r... */\n      pop\n      pop\n      pop\n      jump\t// out\n        /* \"Documents/GitHub/Store-system-with-feedback/main.sol\":14757:15187  function login_user(string memory login, bytes32 password) public {\r... */\n    tag_192:\n        /* \"Documents/GitHub/Store-system-with-feedback/main.sol\":14842:14853  structUsers */\n      0x04\n        /* \"Documents/GitHub/Store-system-with-feedback/main.sol\":14842:14878  structUsers[structUserLogins[login]] */\n      0x00\n        /* \"Documents/GitHub/Store-system-with-feedback/main.sol\":14854:14870  structUserLogins */\n      0x05\n        /* \"Documents/GitHub/Store-system-with-feedback/main.sol\":14871:14876  login */\n      dup5\n        /* \"Documents/GitHub/Store-system-with-feedback/main.sol\":14854:14877  structUserLogins[login] */\n      mload(0x40)\n      tag_546\n      swap2\n      swap1\n      tag_212\n      jump\t// in\n    tag_546:\n      swap1\n      dup2\n      mstore\n      0x40\n      dup1\n      mload\n      0x20\n      swap3\n      dup2\n      swap1\n      sub\n      dup4\n      add\n      swap1\n      keccak256\n      sload\n      sub(shl(0xa0, 0x01), 0x01)\n      and\n        /* \"Documents/GitHub/Store-system-with-feedback/main.sol\":14842:14878  structUsers[structUserLogins[login]] */\n      dup4\n      mstore\n      swap1\n      dup3\n      add\n      swap3\n      swap1\n      swap3\n      mstore\n      add\n      0x00\n      keccak256\n        /* \"Documents/GitHub/Store-system-with-feedback/main.sol\":14842:14885  structUsers[structUserLogins[login]].logged */\n      0x03\n      add\n      sload\n      0xff\n      and\n        /* \"Documents/GitHub/Store-system-with-feedback/main.sol\":14842:14894  structUsers[structUserLogins[login]].logged == false */\n      iszero\n        /* \"Documents/GitHub/Store-system-with-feedback/main.sol\":14834:14928  require(structUsers[structUserLogins[login]].logged == false, \"Error: You are already logged\") */\n      tag_547\n      jumpi\n      mload(0x40)\n      shl(0xe5, 0x461bcd)\n      dup2\n      mstore\n      0x04\n      add\n      tag_223\n      swap1\n      tag_402\n      jump\t// in\n    tag_547:\n        /* \"Documents/GitHub/Store-system-with-feedback/main.sol\":14982:14983  0 */\n      0x00\n      sub(shl(0xa0, 0x01), 0x01)\n        /* \"Documents/GitHub/Store-system-with-feedback/main.sol\":14947:14984  structUserLogins[login] != address(0) */\n      and\n        /* \"Documents/GitHub/Store-system-with-feedback/main.sol\":14947:14963  structUserLogins */\n      0x05\n        /* \"Documents/GitHub/Store-system-with-feedback/main.sol\":14964:14969  login */\n      dup4\n        /* \"Documents/GitHub/Store-system-with-feedback/main.sol\":14947:14970  structUserLogins[login] */\n      mload(0x40)\n      tag_549\n      swap2\n      swap1\n      tag_212\n      jump\t// in\n    tag_549:\n      swap1\n      dup2\n      mstore\n      mload(0x40)\n      swap1\n      dup2\n      swap1\n      sub\n      0x20\n      add\n      swap1\n      keccak256\n      sload\n      sub(shl(0xa0, 0x01), 0x01)\n      and\n        /* \"Documents/GitHub/Store-system-with-feedback/main.sol\":14947:14984  structUserLogins[login] != address(0) */\n      eq\n      iszero\n        /* \"Documents/GitHub/Store-system-with-feedback/main.sol\":14939:15014  require(structUserLogins[login] != address(0), \"Error: User doesn't exist\") */\n      tag_550\n      jumpi\n      mload(0x40)\n      shl(0xe5, 0x461bcd)\n      dup2\n      mstore\n      0x04\n      add\n      tag_223\n      swap1\n      tag_406\n      jump\t// in\n    tag_550:\n        /* \"Documents/GitHub/Store-system-with-feedback/main.sol\":15082:15090  password */\n      dup1\n        /* \"Documents/GitHub/Store-system-with-feedback/main.sol\":15033:15044  structUsers */\n      0x04\n        /* \"Documents/GitHub/Store-system-with-feedback/main.sol\":15033:15069  structUsers[structUserLogins[login]] */\n      0x00\n        /* \"Documents/GitHub/Store-system-with-feedback/main.sol\":15045:15061  structUserLogins */\n      0x05\n        /* \"Documents/GitHub/Store-system-with-feedback/main.sol\":15062:15067  login */\n      dup6\n        /* \"Documents/GitHub/Store-system-with-feedback/main.sol\":15045:15068  structUserLogins[login] */\n      mload(0x40)\n      tag_552\n      swap2\n      swap1\n      tag_212\n      jump\t// in\n    tag_552:\n      swap1\n      dup2\n      mstore\n      0x40\n      dup1\n      mload\n      0x20\n      swap3\n      dup2\n      swap1\n      sub\n      dup4\n      add\n      swap1\n      keccak256\n      sload\n      sub(shl(0xa0, 0x01), 0x01)\n      and\n        /* \"Documents/GitHub/Store-system-with-feedback/main.sol\":15033:15069  structUsers[structUserLogins[login]] */\n      dup4\n      mstore\n      swap1\n      dup3\n      add\n      swap3\n      swap1\n      swap3\n      mstore\n      add\n      0x00\n      keccak256\n        /* \"Documents/GitHub/Store-system-with-feedback/main.sol\":15045:15068  structUserLogins[login] */\n      0x01\n        /* \"Documents/GitHub/Store-system-with-feedback/main.sol\":15033:15078  structUsers[structUserLogins[login]].password */\n      add\n      sload\n        /* \"Documents/GitHub/Store-system-with-feedback/main.sol\":15033:15090  structUsers[structUserLogins[login]].password == password */\n      eq\n        /* \"Documents/GitHub/Store-system-with-feedback/main.sol\":15025:15118  require(structUsers[structUserLogins[login]].password == password, \"Error: Invalid password\") */\n      tag_553\n      jumpi\n      mload(0x40)\n      shl(0xe5, 0x461bcd)\n      dup2\n      mstore\n      0x04\n      add\n      tag_223\n      swap1\n      tag_410\n      jump\t// in\n    tag_553:\n        /* \"Documents/GitHub/Store-system-with-feedback/main.sol\":15175:15179  true */\n      0x01\n        /* \"Documents/GitHub/Store-system-with-feedback/main.sol\":15129:15140  structUsers */\n      0x04\n        /* \"Documents/GitHub/Store-system-with-feedback/main.sol\":15129:15165  structUsers[structUserLogins[login]] */\n      0x00\n        /* \"Documents/GitHub/Store-system-with-feedback/main.sol\":15141:15157  structUserLogins */\n      0x05\n        /* \"Documents/GitHub/Store-system-with-feedback/main.sol\":15158:15163  login */\n      dup6\n        /* \"Documents/GitHub/Store-system-with-feedback/main.sol\":15141:15164  structUserLogins[login] */\n      mload(0x40)\n      tag_411\n      swap2\n      swap1\n      tag_212\n      jump\t// in\n        /* \"Documents/GitHub/Store-system-with-feedback/main.sol\":6328:6382  mapping(string => structProduct) public structProducts */\n    tag_196:\n      dup1\n      mload\n      0x20\n      dup2\n      dup4\n      add\n      dup2\n      add\n      dup1\n      mload\n      0x08\n      dup3\n      mstore\n      swap3\n      dup3\n      add\n      swap2\n      swap1\n      swap4\n      add\n      keccak256\n      swap2\n      mstore\n      dup1\n      sload\n      0x01\n      dup3\n      add\n      dup1\n      sload\n      sub(shl(0xa0, 0x01), 0x01)\n      swap1\n      swap3\n      and\n      swap3\n      swap2\n      tag_556\n      swap1\n      tag_269\n      jump\t// in\n    tag_556:\n      dup1\n      0x1f\n      add\n      0x20\n      dup1\n      swap2\n      div\n      mul\n      0x20\n      add\n      mload(0x40)\n      swap1\n      dup2\n      add\n      0x40\n      mstore\n      dup1\n      swap3\n      swap2\n      swap1\n      dup2\n      dup2\n      mstore\n      0x20\n      add\n      dup3\n      dup1\n      sload\n      tag_557\n      swap1\n      tag_269\n      jump\t// in\n    tag_557:\n      dup1\n      iszero\n      tag_558\n      jumpi\n      dup1\n      0x1f\n      lt\n      tag_559\n      jumpi\n      0x0100\n      dup1\n      dup4\n      sload\n      div\n      mul\n      dup4\n      mstore\n      swap2\n      0x20\n      add\n      swap2\n      jump(tag_558)\n    tag_559:\n      dup3\n      add\n      swap2\n      swap1\n      0x00\n      mstore\n      keccak256(0x00, 0x20)\n      swap1\n    tag_560:\n      dup2\n      sload\n      dup2\n      mstore\n      swap1\n      0x01\n      add\n      swap1\n      0x20\n      add\n      dup1\n      dup4\n      gt\n      tag_560\n      jumpi\n      dup3\n      swap1\n      sub\n      0x1f\n      and\n      dup3\n      add\n      swap2\n    tag_558:\n      pop\n      pop\n      pop\n      pop\n      pop\n      swap1\n      dup1\n      0x02\n      add\n      sload\n      swap1\n      dup1\n      0x03\n      add\n      sload\n      swap1\n      pop\n      dup5\n      jump\t// out\n        /* \"Documents/GitHub/Store-system-with-feedback/main.sol\":6635:6686  structStatusPurchase[] public structStatusPurchases */\n    tag_202:\n      0x0a\n      dup2\n      dup2\n      sload\n      dup2\n      lt\n      tag_561\n      jumpi\n      0x00\n      dup1\n      revert\n    tag_561:\n      0x00\n      swap2\n      dup3\n      mstore\n      0x20\n      swap1\n      swap2\n      keccak256\n      0x04\n      swap1\n      swap2\n      mul\n      add\n      dup1\n      sload\n      0x01\n      dup3\n      add\n      dup1\n      sload\n      sub(shl(0xa0, 0x01), 0x01)\n      swap1\n      swap3\n      and\n      swap4\n      pop\n      swap1\n      tag_563\n      swap1\n      tag_269\n      jump\t// in\n    tag_563:\n      dup1\n      0x1f\n      add\n      0x20\n      dup1\n      swap2\n      div\n      mul\n      0x20\n      add\n      mload(0x40)\n      swap1\n      dup2\n      add\n      0x40\n      mstore\n      dup1\n      swap3\n      swap2\n      swap1\n      dup2\n      dup2\n      mstore\n      0x20\n      add\n      dup3\n      dup1\n      sload\n      tag_564\n      swap1\n      tag_269\n      jump\t// in\n    tag_564:\n      dup1\n      iszero\n      tag_565\n      jumpi\n      dup1\n      0x1f\n      lt\n      tag_566\n      jumpi\n      0x0100\n      dup1\n      dup4\n      sload\n      div\n      mul\n      dup4\n      mstore\n      swap2\n      0x20\n      add\n      swap2\n      jump(tag_565)\n    tag_566:\n      dup3\n      add\n      swap2\n      swap1\n      0x00\n      mstore\n      keccak256(0x00, 0x20)\n      swap1\n    tag_567:\n      dup2\n      sload\n      dup2\n      mstore\n      swap1\n      0x01\n      add\n      swap1\n      0x20\n      add\n      dup1\n      dup4\n      gt\n      tag_567\n      jumpi\n      dup3\n      swap1\n      sub\n      0x1f\n      and\n      dup3\n      add\n      swap2\n    tag_565:\n      pop\n      pop\n      pop\n      pop\n      0x02\n      dup4\n      add\n      sload\n      0x03\n      swap1\n      swap4\n      add\n      sload\n      swap2\n      swap3\n      swap2\n      0xff\n      and\n      swap1\n      pop\n      dup5\n      jump\t// out\n        /* \"Documents/GitHub/Store-system-with-feedback/main.sol\":1936:2661  function get_product_list_for_login(string memory login) public view returns(string[] memory) {\r... */\n    tag_208:\n        /* \"Documents/GitHub/Store-system-with-feedback/main.sol\":2013:2028  string[] memory */\n      0x60\n        /* \"Documents/GitHub/Store-system-with-feedback/main.sol\":2045:2060  address tempAdr */\n      0x00\n        /* \"Documents/GitHub/Store-system-with-feedback/main.sol\":2063:2081  get_address(login) */\n      tag_569\n        /* \"Documents/GitHub/Store-system-with-feedback/main.sol\":2075:2080  login */\n      dup4\n        /* \"Documents/GitHub/Store-system-with-feedback/main.sol\":2063:2074  get_address */\n      tag_122\n        /* \"Documents/GitHub/Store-system-with-feedback/main.sol\":2063:2081  get_address(login) */\n      jump\t// in\n    tag_569:\n        /* \"Documents/GitHub/Store-system-with-feedback/main.sol\":2045:2081  address tempAdr = get_address(login) */\n      swap1\n      pop\n        /* \"Documents/GitHub/Store-system-with-feedback/main.sol\":2156:2187  string[] memory tempProductList */\n      0x60\n        /* \"Documents/GitHub/Store-system-with-feedback/main.sol\":2206:2212  uint i */\n      0x00\n        /* \"Documents/GitHub/Store-system-with-feedback/main.sol\":2202:2613  for(uint i = 0; i < productList.length; i++) {\r... */\n    tag_570:\n        /* \"Documents/GitHub/Store-system-with-feedback/main.sol\":2222:2233  productList */\n      0x09\n        /* \"Documents/GitHub/Store-system-with-feedback/main.sol\":2222:2240  productList.length */\n      sload\n        /* \"Documents/GitHub/Store-system-with-feedback/main.sol\":2218:2240  i < productList.length */\n      dup2\n      lt\n        /* \"Documents/GitHub/Store-system-with-feedback/main.sol\":2202:2613  for(uint i = 0; i < productList.length; i++) {\r... */\n      iszero\n      tag_571\n      jumpi\n        /* \"Documents/GitHub/Store-system-with-feedback/main.sol\":2266:2295  string memory tempProductName */\n      0x00\n        /* \"Documents/GitHub/Store-system-with-feedback/main.sol\":2298:2309  productList */\n      0x09\n        /* \"Documents/GitHub/Store-system-with-feedback/main.sol\":2310:2311  i */\n      dup3\n        /* \"Documents/GitHub/Store-system-with-feedback/main.sol\":2298:2312  productList[i] */\n      dup2\n      sload\n      dup2\n      lt\n      tag_574\n      jumpi\n      tag_574\n      tag_218\n      jump\t// in\n    tag_574:\n      swap1\n      0x00\n      mstore\n      keccak256(0x00, 0x20)\n      add\n        /* \"Documents/GitHub/Store-system-with-feedback/main.sol\":2266:2312  string memory tempProductName = productList[i] */\n      dup1\n      sload\n      tag_576\n      swap1\n      tag_269\n      jump\t// in\n    tag_576:\n      dup1\n      0x1f\n      add\n      0x20\n      dup1\n      swap2\n      div\n      mul\n      0x20\n      add\n      mload(0x40)\n      swap1\n      dup2\n      add\n      0x40\n      mstore\n      dup1\n      swap3\n      swap2\n      swap1\n      dup2\n      dup2\n      mstore\n      0x20\n      add\n      dup3\n      dup1\n      sload\n      tag_577\n      swap1\n      tag_269\n      jump\t// in\n    tag_577:\n      dup1\n      iszero\n      tag_578\n      jumpi\n      dup1\n      0x1f\n      lt\n      tag_579\n      jumpi\n      0x0100\n      dup1\n      dup4\n      sload\n      div\n      mul\n      dup4\n      mstore\n      swap2\n      0x20\n      add\n      swap2\n      jump(tag_578)\n    tag_579:\n      dup3\n      add\n      swap2\n      swap1\n      0x00\n      mstore\n      keccak256(0x00, 0x20)\n      swap1\n    tag_580:\n      dup2\n      sload\n      dup2\n      mstore\n      swap1\n      0x01\n      add\n      swap1\n      0x20\n      add\n      dup1\n      dup4\n      gt\n      tag_580\n      jumpi\n      dup3\n      swap1\n      sub\n      0x1f\n      and\n      dup3\n      add\n      swap2\n    tag_578:\n      pop\n      pop\n      pop\n      pop\n      pop\n      swap1\n      pop\n        /* \"Documents/GitHub/Store-system-with-feedback/main.sol\":2331:2353  address adrProductShop */\n      0x00\n        /* \"Documents/GitHub/Store-system-with-feedback/main.sol\":2356:2370  structProducts */\n      0x08\n        /* \"Documents/GitHub/Store-system-with-feedback/main.sol\":2371:2386  tempProductName */\n      dup3\n        /* \"Documents/GitHub/Store-system-with-feedback/main.sol\":2356:2387  structProducts[tempProductName] */\n      mload(0x40)\n      tag_581\n      swap2\n      swap1\n      tag_212\n      jump\t// in\n    tag_581:\n      swap1\n      dup2\n      mstore\n      mload(0x40)\n      0x20\n      swap2\n      dup2\n      swap1\n      sub\n      dup3\n      add\n      dup2\n      keccak256\n        /* \"Documents/GitHub/Store-system-with-feedback/main.sol\":2356:2392  structProducts[tempProductName].shop */\n      sload\n      sub(shl(0xa0, 0x01), 0x01)\n      and\n      swap3\n      pop\n        /* \"Documents/GitHub/Store-system-with-feedback/main.sol\":2464:2496  abi.encodePacked(adrProductShop) */\n      tag_582\n      swap2\n        /* \"Documents/GitHub/Store-system-with-feedback/main.sol\":2356:2392  structProducts[tempProductName].shop */\n      dup4\n      swap2\n        /* \"Documents/GitHub/Store-system-with-feedback/main.sol\":2464:2496  abi.encodePacked(adrProductShop) */\n      add\n      tag_583\n      jump\t// in\n    tag_582:\n      mload(0x40)\n      0x20\n      dup2\n      dup4\n      sub\n      sub\n      dup2\n      mstore\n      swap1\n      0x40\n      mstore\n        /* \"Documents/GitHub/Store-system-with-feedback/main.sol\":2454:2497  keccak256(abi.encodePacked(adrProductShop)) */\n      dup1\n      mload\n      swap1\n      0x20\n      add\n      keccak256\n        /* \"Documents/GitHub/Store-system-with-feedback/main.sol\":2441:2448  tempAdr */\n      dup6\n        /* \"Documents/GitHub/Store-system-with-feedback/main.sol\":2424:2449  abi.encodePacked(tempAdr) */\n      add(0x20, mload(0x40))\n      tag_584\n      swap2\n      swap1\n      tag_583\n      jump\t// in\n    tag_584:\n      mload(0x40)\n      0x20\n      dup2\n      dup4\n      sub\n      sub\n      dup2\n      mstore\n      swap1\n      0x40\n      mstore\n        /* \"Documents/GitHub/Store-system-with-feedback/main.sol\":2414:2450  keccak256(abi.encodePacked(tempAdr)) */\n      dup1\n      mload\n      swap1\n      0x20\n      add\n      keccak256\n        /* \"Documents/GitHub/Store-system-with-feedback/main.sol\":2414:2497  keccak256(abi.encodePacked(tempAdr)) == keccak256(abi.encodePacked(adrProductShop)) */\n      eq\n        /* \"Documents/GitHub/Store-system-with-feedback/main.sol\":2411:2598  if(keccak256(abi.encodePacked(tempAdr)) == keccak256(abi.encodePacked(adrProductShop))) {                    \r... */\n      iszero\n      tag_585\n      jumpi\n        /* \"Documents/GitHub/Store-system-with-feedback/main.sol\":2563:2578  tempProductName */\n      dup2\n        /* \"Documents/GitHub/Store-system-with-feedback/main.sol\":2542:2557  tempProductList */\n      dup5\n        /* \"Documents/GitHub/Store-system-with-feedback/main.sol\":2558:2559  i */\n      dup5\n        /* \"Documents/GitHub/Store-system-with-feedback/main.sol\":2542:2560  tempProductList[i] */\n      dup2\n      mload\n      dup2\n      lt\n      tag_587\n      jumpi\n      tag_587\n      tag_218\n      jump\t// in\n    tag_587:\n      0x20\n      mul\n      0x20\n      add\n      add\n        /* \"Documents/GitHub/Store-system-with-feedback/main.sol\":2542:2578  tempProductList[i] = tempProductName */\n      dup2\n      swap1\n      mstore\n      pop\n        /* \"Documents/GitHub/Store-system-with-feedback/main.sol\":2411:2598  if(keccak256(abi.encodePacked(tempAdr)) == keccak256(abi.encodePacked(adrProductShop))) {                    \r... */\n    tag_585:\n        /* \"Documents/GitHub/Store-system-with-feedback/main.sol\":2247:2613  {\r... */\n      pop\n      pop\n        /* \"Documents/GitHub/Store-system-with-feedback/main.sol\":2242:2245  i++ */\n      dup1\n      dup1\n      tag_588\n      swap1\n      tag_295\n      jump\t// in\n    tag_588:\n      swap2\n      pop\n      pop\n        /* \"Documents/GitHub/Store-system-with-feedback/main.sol\":2202:2613  for(uint i = 0; i < productList.length; i++) {\r... */\n      jump(tag_570)\n    tag_571:\n      pop\n        /* \"Documents/GitHub/Store-system-with-feedback/main.sol\":2634:2649  tempProductList */\n      swap4\n        /* \"Documents/GitHub/Store-system-with-feedback/main.sol\":1936:2661  function get_product_list_for_login(string memory login) public view returns(string[] memory) {\r... */\n      swap3\n      pop\n      pop\n      pop\n      jump\t// out\n    tag_253:\n      dup3\n      dup1\n      sload\n      tag_589\n      swap1\n      tag_269\n      jump\t// in\n    tag_589:\n      swap1\n      0x00\n      mstore\n      keccak256(0x00, 0x20)\n      swap1\n      0x1f\n      add\n      0x20\n      swap1\n      div\n      dup2\n      add\n      swap3\n      dup3\n      tag_591\n      jumpi\n      0x00\n      dup6\n      sstore\n      jump(tag_594)\n    tag_591:\n      dup3\n      0x1f\n      lt\n      tag_592\n      jumpi\n      dup1\n      mload\n      not(0xff)\n      and\n      dup4\n      dup1\n      add\n      or\n      dup6\n      sstore\n      jump(tag_594)\n    tag_592:\n      dup3\n      dup1\n      add\n      0x01\n      add\n      dup6\n      sstore\n      dup3\n      iszero\n      tag_594\n      jumpi\n      swap2\n      dup3\n      add\n    tag_593:\n      dup3\n      dup2\n      gt\n      iszero\n      tag_594\n      jumpi\n      dup3\n      mload\n      dup3\n      sstore\n      swap2\n      0x20\n      add\n      swap2\n      swap1\n      0x01\n      add\n      swap1\n      jump(tag_593)\n    tag_594:\n      pop\n      tag_595\n      swap3\n      swap2\n      pop\n      tag_596\n      jump\t// in\n    tag_595:\n      pop\n      swap1\n      jump\t// out\n    tag_293:\n      dup3\n      dup1\n      sload\n      dup3\n      dup3\n      sstore\n      swap1\n      0x00\n      mstore\n      keccak256(0x00, 0x20)\n      swap1\n      dup2\n      add\n      swap3\n      dup3\n      iszero\n      tag_599\n      jumpi\n      swap2\n      0x20\n      mul\n      dup3\n      add\n    tag_598:\n      dup3\n      dup2\n      gt\n      iszero\n      tag_599\n      jumpi\n      dup3\n      mload\n      dup1\n      mload\n      tag_600\n      swap2\n      dup5\n      swap2\n      0x20\n      swap1\n      swap2\n      add\n      swap1\n      tag_253\n      jump\t// in\n    tag_600:\n      pop\n      swap2\n      0x20\n      add\n      swap2\n      swap1\n      0x01\n      add\n      swap1\n      jump(tag_598)\n    tag_599:\n      pop\n      tag_595\n      swap3\n      swap2\n      pop\n      tag_602\n      jump\t// in\n    tag_596:\n    tag_603:\n      dup1\n      dup3\n      gt\n      iszero\n      tag_595\n      jumpi\n      0x00\n      dup2\n      sstore\n      0x01\n      add\n      jump(tag_603)\n    tag_602:\n      dup1\n      dup3\n      gt\n      iszero\n      tag_595\n      jumpi\n      0x00\n      tag_607\n      dup3\n      dup3\n      tag_608\n      jump\t// in\n    tag_607:\n      pop\n      0x01\n      add\n      jump(tag_602)\n    tag_608:\n      pop\n      dup1\n      sload\n      tag_609\n      swap1\n      tag_269\n      jump\t// in\n    tag_609:\n      0x00\n      dup3\n      sstore\n      dup1\n      0x1f\n      lt\n      tag_611\n      jumpi\n      pop\n      pop\n      jump\t// out\n    tag_611:\n      0x1f\n      add\n      0x20\n      swap1\n      div\n      swap1\n      0x00\n      mstore\n      keccak256(0x00, 0x20)\n      swap1\n      dup2\n      add\n      swap1\n      tag_612\n      swap2\n      swap1\n      tag_596\n      jump\t// in\n    tag_612:\n      pop\n      jump\t// out\n        /* \"#utility.yul\":14:187   */\n    tag_614:\n        /* \"#utility.yul\":82:102   */\n      dup1\n      calldataload\n      sub(shl(0xa0, 0x01), 0x01)\n        /* \"#utility.yul\":131:162   */\n      dup2\n      and\n        /* \"#utility.yul\":121:163   */\n      dup2\n      eq\n        /* \"#utility.yul\":111:181   */\n      tag_616\n      jumpi\n        /* \"#utility.yul\":177:178   */\n      0x00\n        /* \"#utility.yul\":174:175   */\n      dup1\n        /* \"#utility.yul\":167:179   */\n      revert\n        /* \"#utility.yul\":111:181   */\n    tag_616:\n        /* \"#utility.yul\":14:187   */\n      swap2\n      swap1\n      pop\n      jump\t// out\n        /* \"#utility.yul\":192:723   */\n    tag_617:\n        /* \"#utility.yul\":235:240   */\n      0x00\n        /* \"#utility.yul\":288:291   */\n      dup3\n        /* \"#utility.yul\":281:285   */\n      0x1f\n        /* \"#utility.yul\":273:279   */\n      dup4\n        /* \"#utility.yul\":269:286   */\n      add\n        /* \"#utility.yul\":265:292   */\n      slt\n        /* \"#utility.yul\":255:310   */\n      tag_619\n      jumpi\n        /* \"#utility.yul\":306:307   */\n      0x00\n        /* \"#utility.yul\":303:304   */\n      dup1\n        /* \"#utility.yul\":296:308   */\n      revert\n        /* \"#utility.yul\":255:310   */\n    tag_619:\n        /* \"#utility.yul\":329:349   */\n      dup2\n      calldataload\n      sub(shl(0x40, 0x01), 0x01)\n        /* \"#utility.yul\":361:387   */\n      dup2\n      gt\n        /* \"#utility.yul\":358:410   */\n      iszero\n      tag_621\n      jumpi\n        /* \"#utility.yul\":390:408   */\n      tag_621\n      tag_622\n      jump\t// in\n    tag_621:\n        /* \"#utility.yul\":434:489   */\n      tag_623\n        /* \"#utility.yul\":477:479   */\n      0x1f\n        /* \"#utility.yul\":458:471   */\n      dup3\n      add\n      not(0x1f)\n        /* \"#utility.yul\":454:481   */\n      and\n        /* \"#utility.yul\":483:487   */\n      0x20\n        /* \"#utility.yul\":450:488   */\n      add\n        /* \"#utility.yul\":434:489   */\n      tag_624\n      jump\t// in\n    tag_623:\n        /* \"#utility.yul\":514:516   */\n      dup2\n        /* \"#utility.yul\":505:512   */\n      dup2\n        /* \"#utility.yul\":498:517   */\n      mstore\n        /* \"#utility.yul\":560:563   */\n      dup5\n        /* \"#utility.yul\":553:557   */\n      0x20\n        /* \"#utility.yul\":548:550   */\n      dup4\n        /* \"#utility.yul\":540:546   */\n      dup7\n        /* \"#utility.yul\":536:551   */\n      add\n        /* \"#utility.yul\":532:558   */\n      add\n        /* \"#utility.yul\":529:564   */\n      gt\n        /* \"#utility.yul\":526:581   */\n      iszero\n      tag_625\n      jumpi\n        /* \"#utility.yul\":577:578   */\n      0x00\n        /* \"#utility.yul\":574:575   */\n      dup1\n        /* \"#utility.yul\":567:579   */\n      revert\n        /* \"#utility.yul\":526:581   */\n    tag_625:\n        /* \"#utility.yul\":642:644   */\n      dup2\n        /* \"#utility.yul\":635:639   */\n      0x20\n        /* \"#utility.yul\":627:633   */\n      dup6\n        /* \"#utility.yul\":623:640   */\n      add\n        /* \"#utility.yul\":616:620   */\n      0x20\n        /* \"#utility.yul\":607:614   */\n      dup4\n        /* \"#utility.yul\":603:621   */\n      add\n        /* \"#utility.yul\":590:645   */\n      calldatacopy\n        /* \"#utility.yul\":690:691   */\n      0x00\n        /* \"#utility.yul\":665:681   */\n      swap2\n      dup2\n      add\n        /* \"#utility.yul\":683:687   */\n      0x20\n        /* \"#utility.yul\":661:688   */\n      add\n        /* \"#utility.yul\":654:692   */\n      swap2\n      swap1\n      swap2\n      mstore\n        /* \"#utility.yul\":669:676   */\n      swap4\n        /* \"#utility.yul\":192:723   */\n      swap3\n      pop\n      pop\n      pop\n      jump\t// out\n        /* \"#utility.yul\":728:914   */\n    tag_69:\n        /* \"#utility.yul\":787:793   */\n      0x00\n        /* \"#utility.yul\":840:842   */\n      0x20\n        /* \"#utility.yul\":828:837   */\n      dup3\n        /* \"#utility.yul\":819:826   */\n      dup5\n        /* \"#utility.yul\":815:838   */\n      sub\n        /* \"#utility.yul\":811:843   */\n      slt\n        /* \"#utility.yul\":808:860   */\n      iszero\n      tag_627\n      jumpi\n        /* \"#utility.yul\":856:857   */\n      0x00\n        /* \"#utility.yul\":853:854   */\n      dup1\n        /* \"#utility.yul\":846:858   */\n      revert\n        /* \"#utility.yul\":808:860   */\n    tag_627:\n        /* \"#utility.yul\":879:908   */\n      tag_628\n        /* \"#utility.yul\":898:907   */\n      dup3\n        /* \"#utility.yul\":879:908   */\n      tag_614\n      jump\t// in\n    tag_628:\n        /* \"#utility.yul\":869:908   */\n      swap4\n        /* \"#utility.yul\":728:914   */\n      swap3\n      pop\n      pop\n      pop\n      jump\t// out\n        /* \"#utility.yul\":919:1383   */\n    tag_55:\n        /* \"#utility.yul\":1006:1012   */\n      0x00\n        /* \"#utility.yul\":1014:1020   */\n      dup1\n        /* \"#utility.yul\":1022:1028   */\n      0x00\n        /* \"#utility.yul\":1075:1077   */\n      0x60\n        /* \"#utility.yul\":1063:1072   */\n      dup5\n        /* \"#utility.yul\":1054:1061   */\n      dup7\n        /* \"#utility.yul\":1050:1073   */\n      sub\n        /* \"#utility.yul\":1046:1078   */\n      slt\n        /* \"#utility.yul\":1043:1095   */\n      iszero\n      tag_630\n      jumpi\n        /* \"#utility.yul\":1091:1092   */\n      0x00\n        /* \"#utility.yul\":1088:1089   */\n      dup1\n        /* \"#utility.yul\":1081:1093   */\n      revert\n        /* \"#utility.yul\":1043:1095   */\n    tag_630:\n        /* \"#utility.yul\":1114:1143   */\n      tag_631\n        /* \"#utility.yul\":1133:1142   */\n      dup5\n        /* \"#utility.yul\":1114:1143   */\n      tag_614\n      jump\t// in\n    tag_631:\n        /* \"#utility.yul\":1104:1143   */\n      swap3\n      pop\n        /* \"#utility.yul\":1194:1196   */\n      0x20\n        /* \"#utility.yul\":1179:1197   */\n      dup5\n      add\n        /* \"#utility.yul\":1166:1198   */\n      calldataload\n      sub(shl(0x40, 0x01), 0x01)\n        /* \"#utility.yul\":1210:1240   */\n      dup2\n      gt\n        /* \"#utility.yul\":1207:1257   */\n      iszero\n      tag_632\n      jumpi\n        /* \"#utility.yul\":1253:1254   */\n      0x00\n        /* \"#utility.yul\":1250:1251   */\n      dup1\n        /* \"#utility.yul\":1243:1255   */\n      revert\n        /* \"#utility.yul\":1207:1257   */\n    tag_632:\n        /* \"#utility.yul\":1276:1326   */\n      tag_633\n        /* \"#utility.yul\":1318:1325   */\n      dup7\n        /* \"#utility.yul\":1309:1315   */\n      dup3\n        /* \"#utility.yul\":1298:1307   */\n      dup8\n        /* \"#utility.yul\":1294:1316   */\n      add\n        /* \"#utility.yul\":1276:1326   */\n      tag_617\n      jump\t// in\n    tag_633:\n        /* \"#utility.yul\":1266:1326   */\n      swap3\n      pop\n      pop\n        /* \"#utility.yul\":1373:1375   */\n      0x40\n        /* \"#utility.yul\":1362:1371   */\n      dup5\n        /* \"#utility.yul\":1358:1376   */\n      add\n        /* \"#utility.yul\":1345:1377   */\n      calldataload\n        /* \"#utility.yul\":1335:1377   */\n      swap1\n      pop\n        /* \"#utility.yul\":919:1383   */\n      swap3\n      pop\n      swap3\n      pop\n      swap3\n      jump\t// out\n        /* \"#utility.yul\":1388:1710   */\n    tag_40:\n        /* \"#utility.yul\":1457:1463   */\n      0x00\n        /* \"#utility.yul\":1510:1512   */\n      0x20\n        /* \"#utility.yul\":1498:1507   */\n      dup3\n        /* \"#utility.yul\":1489:1496   */\n      dup5\n        /* \"#utility.yul\":1485:1508   */\n      sub\n        /* \"#utility.yul\":1481:1513   */\n      slt\n        /* \"#utility.yul\":1478:1530   */\n      iszero\n      tag_635\n      jumpi\n        /* \"#utility.yul\":1526:1527   */\n      0x00\n        /* \"#utility.yul\":1523:1524   */\n      dup1\n        /* \"#utility.yul\":1516:1528   */\n      revert\n        /* \"#utility.yul\":1478:1530   */\n    tag_635:\n        /* \"#utility.yul\":1553:1576   */\n      dup2\n      calldataload\n      sub(shl(0x40, 0x01), 0x01)\n        /* \"#utility.yul\":1588:1618   */\n      dup2\n      gt\n        /* \"#utility.yul\":1585:1635   */\n      iszero\n      tag_636\n      jumpi\n        /* \"#utility.yul\":1631:1632   */\n      0x00\n        /* \"#utility.yul\":1628:1629   */\n      dup1\n        /* \"#utility.yul\":1621:1633   */\n      revert\n        /* \"#utility.yul\":1585:1635   */\n    tag_636:\n        /* \"#utility.yul\":1654:1704   */\n      tag_488\n        /* \"#utility.yul\":1696:1703   */\n      dup5\n        /* \"#utility.yul\":1687:1693   */\n      dup3\n        /* \"#utility.yul\":1676:1685   */\n      dup6\n        /* \"#utility.yul\":1672:1694   */\n      add\n        /* \"#utility.yul\":1654:1704   */\n      tag_617\n      jump\t// in\n        /* \"#utility.yul\":1715:3050   */\n    tag_80:\n        /* \"#utility.yul\":1828:1834   */\n      0x00\n        /* \"#utility.yul\":1836:1842   */\n      dup1\n        /* \"#utility.yul\":1889:1891   */\n      0x40\n        /* \"#utility.yul\":1877:1886   */\n      dup4\n        /* \"#utility.yul\":1868:1875   */\n      dup6\n        /* \"#utility.yul\":1864:1887   */\n      sub\n        /* \"#utility.yul\":1860:1892   */\n      slt\n        /* \"#utility.yul\":1857:1909   */\n      iszero\n      tag_639\n      jumpi\n        /* \"#utility.yul\":1905:1906   */\n      0x00\n        /* \"#utility.yul\":1902:1903   */\n      dup1\n        /* \"#utility.yul\":1895:1907   */\n      revert\n        /* \"#utility.yul\":1857:1909   */\n    tag_639:\n        /* \"#utility.yul\":1932:1955   */\n      dup3\n      calldataload\n      sub(shl(0x40, 0x01), 0x01)\n        /* \"#utility.yul\":2004:2018   */\n      dup1\n      dup3\n      gt\n        /* \"#utility.yul\":2001:2035   */\n      iszero\n      tag_640\n      jumpi\n        /* \"#utility.yul\":2031:2032   */\n      0x00\n        /* \"#utility.yul\":2028:2029   */\n      dup1\n        /* \"#utility.yul\":2021:2033   */\n      revert\n        /* \"#utility.yul\":2001:2035   */\n    tag_640:\n        /* \"#utility.yul\":2054:2104   */\n      tag_641\n        /* \"#utility.yul\":2096:2103   */\n      dup7\n        /* \"#utility.yul\":2087:2093   */\n      dup4\n        /* \"#utility.yul\":2076:2085   */\n      dup8\n        /* \"#utility.yul\":2072:2094   */\n      add\n        /* \"#utility.yul\":2054:2104   */\n      tag_617\n      jump\t// in\n    tag_641:\n        /* \"#utility.yul\":2044:2104   */\n      swap4\n      pop\n        /* \"#utility.yul\":2123:2125   */\n      0x20\n        /* \"#utility.yul\":2113:2125   */\n      swap2\n      pop\n        /* \"#utility.yul\":2178:2180   */\n      dup2\n        /* \"#utility.yul\":2167:2176   */\n      dup6\n        /* \"#utility.yul\":2163:2181   */\n      add\n        /* \"#utility.yul\":2150:2182   */\n      calldataload\n        /* \"#utility.yul\":2207:2209   */\n      dup2\n        /* \"#utility.yul\":2197:2205   */\n      dup2\n        /* \"#utility.yul\":2194:2210   */\n      gt\n        /* \"#utility.yul\":2191:2227   */\n      iszero\n      tag_642\n      jumpi\n        /* \"#utility.yul\":2223:2224   */\n      0x00\n        /* \"#utility.yul\":2220:2221   */\n      dup1\n        /* \"#utility.yul\":2213:2225   */\n      revert\n        /* \"#utility.yul\":2191:2227   */\n    tag_642:\n        /* \"#utility.yul\":2246:2270   */\n      dup6\n      add\n        /* \"#utility.yul\":2301:2305   */\n      0x1f\n        /* \"#utility.yul\":2293:2306   */\n      dup2\n      add\n        /* \"#utility.yul\":2289:2316   */\n      dup8\n      sgt\n        /* \"#utility.yul\":2279:2334   */\n      tag_643\n      jumpi\n        /* \"#utility.yul\":2330:2331   */\n      0x00\n        /* \"#utility.yul\":2327:2328   */\n      dup1\n        /* \"#utility.yul\":2320:2332   */\n      revert\n        /* \"#utility.yul\":2279:2334   */\n    tag_643:\n        /* \"#utility.yul\":2366:2368   */\n      dup1\n        /* \"#utility.yul\":2353:2369   */\n      calldataload\n        /* \"#utility.yul\":2388:2390   */\n      dup3\n        /* \"#utility.yul\":2384:2386   */\n      dup2\n        /* \"#utility.yul\":2381:2391   */\n      gt\n        /* \"#utility.yul\":2378:2414   */\n      iszero\n      tag_645\n      jumpi\n        /* \"#utility.yul\":2394:2412   */\n      tag_645\n      tag_622\n      jump\t// in\n    tag_645:\n        /* \"#utility.yul\":2440:2442   */\n      dup1\n        /* \"#utility.yul\":2437:2438   */\n      0x05\n        /* \"#utility.yul\":2433:2443   */\n      shl\n        /* \"#utility.yul\":2463:2491   */\n      tag_646\n        /* \"#utility.yul\":2487:2489   */\n      dup6\n        /* \"#utility.yul\":2483:2485   */\n      dup3\n        /* \"#utility.yul\":2479:2490   */\n      add\n        /* \"#utility.yul\":2463:2491   */\n      tag_624\n      jump\t// in\n    tag_646:\n        /* \"#utility.yul\":2525:2540   */\n      dup3\n      dup2\n      mstore\n        /* \"#utility.yul\":2556:2568   */\n      dup6\n      dup2\n      add\n      swap1\n        /* \"#utility.yul\":2588:2599   */\n      dup5\n      dup8\n      add\n        /* \"#utility.yul\":2618:2629   */\n      dup4\n      dup7\n      add\n        /* \"#utility.yul\":2614:2634   */\n      dup9\n      add\n        /* \"#utility.yul\":2611:2644   */\n      dup13\n      lt\n        /* \"#utility.yul\":2608:2661   */\n      iszero\n      tag_647\n      jumpi\n        /* \"#utility.yul\":2657:2658   */\n      0x00\n        /* \"#utility.yul\":2654:2655   */\n      dup1\n        /* \"#utility.yul\":2647:2659   */\n      revert\n        /* \"#utility.yul\":2608:2661   */\n    tag_647:\n        /* \"#utility.yul\":2679:2680   */\n      0x00\n        /* \"#utility.yul\":2670:2680   */\n      swap4\n      pop\n        /* \"#utility.yul\":2700:2701   */\n      dup4\n        /* \"#utility.yul\":2710:3020   */\n    tag_648:\n        /* \"#utility.yul\":2726:2728   */\n      dup6\n        /* \"#utility.yul\":2721:2724   */\n      dup2\n        /* \"#utility.yul\":2718:2729   */\n      lt\n        /* \"#utility.yul\":2710:3020   */\n      iszero\n      tag_650\n      jumpi\n        /* \"#utility.yul\":2807:2810   */\n      dup2\n        /* \"#utility.yul\":2794:2811   */\n      calldataload\n        /* \"#utility.yul\":2843:2845   */\n      dup9\n        /* \"#utility.yul\":2830:2841   */\n      dup2\n        /* \"#utility.yul\":2827:2846   */\n      gt\n        /* \"#utility.yul\":2824:2863   */\n      iszero\n      tag_651\n      jumpi\n        /* \"#utility.yul\":2859:2860   */\n      dup6\n        /* \"#utility.yul\":2856:2857   */\n      dup7\n        /* \"#utility.yul\":2849:2861   */\n      revert\n        /* \"#utility.yul\":2824:2863   */\n    tag_651:\n        /* \"#utility.yul\":2888:2945   */\n      tag_652\n        /* \"#utility.yul\":2937:2944   */\n      dup15\n        /* \"#utility.yul\":2932:2934   */\n      dup12\n        /* \"#utility.yul\":2918:2929   */\n      dup4\n        /* \"#utility.yul\":2914:2916   */\n      dup12\n        /* \"#utility.yul\":2910:2930   */\n      add\n        /* \"#utility.yul\":2906:2935   */\n      add\n        /* \"#utility.yul\":2888:2945   */\n      tag_617\n      jump\t// in\n    tag_652:\n        /* \"#utility.yul\":2876:2946   */\n      dup6\n      mstore\n      pop\n        /* \"#utility.yul\":2966:2978   */\n      swap3\n      dup9\n      add\n      swap3\n        /* \"#utility.yul\":2998:3010   */\n      swap1\n      dup9\n      add\n      swap1\n        /* \"#utility.yul\":2748:2749   */\n      0x01\n        /* \"#utility.yul\":2739:2750   */\n      add\n        /* \"#utility.yul\":2710:3020   */\n      jump(tag_648)\n    tag_650:\n      pop\n        /* \"#utility.yul\":1715:3050   */\n      swap9\n      swap12\n        /* \"#utility.yul\":3039:3044   */\n      swap1\n      swap11\n      pop\n        /* \"#utility.yul\":1715:3050   */\n      swap9\n      pop\n      pop\n      pop\n      pop\n      pop\n      pop\n      pop\n      pop\n      pop\n      jump\t// out\n        /* \"#utility.yul\":3055:3445   */\n    tag_142:\n        /* \"#utility.yul\":3133:3139   */\n      0x00\n        /* \"#utility.yul\":3141:3147   */\n      dup1\n        /* \"#utility.yul\":3194:3196   */\n      0x40\n        /* \"#utility.yul\":3182:3191   */\n      dup4\n        /* \"#utility.yul\":3173:3180   */\n      dup6\n        /* \"#utility.yul\":3169:3192   */\n      sub\n        /* \"#utility.yul\":3165:3197   */\n      slt\n        /* \"#utility.yul\":3162:3214   */\n      iszero\n      tag_654\n      jumpi\n        /* \"#utility.yul\":3210:3211   */\n      0x00\n        /* \"#utility.yul\":3207:3208   */\n      dup1\n        /* \"#utility.yul\":3200:3212   */\n      revert\n        /* \"#utility.yul\":3162:3214   */\n    tag_654:\n        /* \"#utility.yul\":3237:3260   */\n      dup3\n      calldataload\n      sub(shl(0x40, 0x01), 0x01)\n        /* \"#utility.yul\":3272:3302   */\n      dup2\n      gt\n        /* \"#utility.yul\":3269:3319   */\n      iszero\n      tag_655\n      jumpi\n        /* \"#utility.yul\":3315:3316   */\n      0x00\n        /* \"#utility.yul\":3312:3313   */\n      dup1\n        /* \"#utility.yul\":3305:3317   */\n      revert\n        /* \"#utility.yul\":3269:3319   */\n    tag_655:\n        /* \"#utility.yul\":3338:3388   */\n      tag_656\n        /* \"#utility.yul\":3380:3387   */\n      dup6\n        /* \"#utility.yul\":3371:3377   */\n      dup3\n        /* \"#utility.yul\":3360:3369   */\n      dup7\n        /* \"#utility.yul\":3356:3378   */\n      add\n        /* \"#utility.yul\":3338:3388   */\n      tag_617\n      jump\t// in\n    tag_656:\n        /* \"#utility.yul\":3328:3388   */\n      swap6\n        /* \"#utility.yul\":3435:3437   */\n      0x20\n        /* \"#utility.yul\":3420:3438   */\n      swap5\n      swap1\n      swap5\n      add\n        /* \"#utility.yul\":3407:3439   */\n      calldataload\n      swap5\n      pop\n      pop\n      pop\n      pop\n        /* \"#utility.yul\":3055:3445   */\n      jump\t// out\n        /* \"#utility.yul\":3450:4061   */\n    tag_187:\n        /* \"#utility.yul\":3547:3553   */\n      0x00\n        /* \"#utility.yul\":3555:3561   */\n      dup1\n        /* \"#utility.yul\":3563:3569   */\n      0x00\n        /* \"#utility.yul\":3616:3618   */\n      0x60\n        /* \"#utility.yul\":3604:3613   */\n      dup5\n        /* \"#utility.yul\":3595:3602   */\n      dup7\n        /* \"#utility.yul\":3591:3614   */\n      sub\n        /* \"#utility.yul\":3587:3619   */\n      slt\n        /* \"#utility.yul\":3584:3636   */\n      iszero\n      tag_658\n      jumpi\n        /* \"#utility.yul\":3632:3633   */\n      0x00\n        /* \"#utility.yul\":3629:3630   */\n      dup1\n        /* \"#utility.yul\":3622:3634   */\n      revert\n        /* \"#utility.yul\":3584:3636   */\n    tag_658:\n        /* \"#utility.yul\":3659:3682   */\n      dup4\n      calldataload\n      sub(shl(0x40, 0x01), 0x01)\n        /* \"#utility.yul\":3731:3745   */\n      dup1\n      dup3\n      gt\n        /* \"#utility.yul\":3728:3762   */\n      iszero\n      tag_659\n      jumpi\n        /* \"#utility.yul\":3758:3759   */\n      0x00\n        /* \"#utility.yul\":3755:3756   */\n      dup1\n        /* \"#utility.yul\":3748:3760   */\n      revert\n        /* \"#utility.yul\":3728:3762   */\n    tag_659:\n        /* \"#utility.yul\":3781:3831   */\n      tag_660\n        /* \"#utility.yul\":3823:3830   */\n      dup8\n        /* \"#utility.yul\":3814:3820   */\n      dup4\n        /* \"#utility.yul\":3803:3812   */\n      dup9\n        /* \"#utility.yul\":3799:3821   */\n      add\n        /* \"#utility.yul\":3781:3831   */\n      tag_617\n      jump\t// in\n    tag_660:\n        /* \"#utility.yul\":3771:3831   */\n      swap5\n      pop\n        /* \"#utility.yul\":3884:3886   */\n      0x20\n        /* \"#utility.yul\":3873:3882   */\n      dup7\n        /* \"#utility.yul\":3869:3887   */\n      add\n        /* \"#utility.yul\":3856:3888   */\n      calldataload\n        /* \"#utility.yul\":3840:3888   */\n      swap2\n      pop\n        /* \"#utility.yul\":3913:3915   */\n      dup1\n        /* \"#utility.yul\":3903:3911   */\n      dup3\n        /* \"#utility.yul\":3900:3916   */\n      gt\n        /* \"#utility.yul\":3897:3933   */\n      iszero\n      tag_661\n      jumpi\n        /* \"#utility.yul\":3929:3930   */\n      0x00\n        /* \"#utility.yul\":3926:3927   */\n      dup1\n        /* \"#utility.yul\":3919:3931   */\n      revert\n        /* \"#utility.yul\":3897:3933   */\n    tag_661:\n      pop\n        /* \"#utility.yul\":3952:4004   */\n      tag_633\n        /* \"#utility.yul\":3996:4003   */\n      dup7\n        /* \"#utility.yul\":3985:3993   */\n      dup3\n        /* \"#utility.yul\":3974:3983   */\n      dup8\n        /* \"#utility.yul\":3970:3994   */\n      add\n        /* \"#utility.yul\":3952:4004   */\n      tag_617\n      jump\t// in\n        /* \"#utility.yul\":4066:4677   */\n    tag_127:\n        /* \"#utility.yul\":4163:4169   */\n      0x00\n        /* \"#utility.yul\":4171:4177   */\n      dup1\n        /* \"#utility.yul\":4179:4185   */\n      0x00\n        /* \"#utility.yul\":4232:4234   */\n      0x60\n        /* \"#utility.yul\":4220:4229   */\n      dup5\n        /* \"#utility.yul\":4211:4218   */\n      dup7\n        /* \"#utility.yul\":4207:4230   */\n      sub\n        /* \"#utility.yul\":4203:4235   */\n      slt\n        /* \"#utility.yul\":4200:4252   */\n      iszero\n      tag_664\n      jumpi\n        /* \"#utility.yul\":4248:4249   */\n      0x00\n        /* \"#utility.yul\":4245:4246   */\n      dup1\n        /* \"#utility.yul\":4238:4250   */\n      revert\n        /* \"#utility.yul\":4200:4252   */\n    tag_664:\n        /* \"#utility.yul\":4275:4298   */\n      dup4\n      calldataload\n      sub(shl(0x40, 0x01), 0x01)\n        /* \"#utility.yul\":4347:4361   */\n      dup1\n      dup3\n      gt\n        /* \"#utility.yul\":4344:4378   */\n      iszero\n      tag_665\n      jumpi\n        /* \"#utility.yul\":4374:4375   */\n      0x00\n        /* \"#utility.yul\":4371:4372   */\n      dup1\n        /* \"#utility.yul\":4364:4376   */\n      revert\n        /* \"#utility.yul\":4344:4378   */\n    tag_665:\n        /* \"#utility.yul\":4397:4447   */\n      tag_666\n        /* \"#utility.yul\":4439:4446   */\n      dup8\n        /* \"#utility.yul\":4430:4436   */\n      dup4\n        /* \"#utility.yul\":4419:4428   */\n      dup9\n        /* \"#utility.yul\":4415:4437   */\n      add\n        /* \"#utility.yul\":4397:4447   */\n      tag_617\n      jump\t// in\n    tag_666:\n        /* \"#utility.yul\":4387:4447   */\n      swap5\n      pop\n        /* \"#utility.yul\":4494:4496   */\n      0x20\n        /* \"#utility.yul\":4483:4492   */\n      dup7\n        /* \"#utility.yul\":4479:4497   */\n      add\n        /* \"#utility.yul\":4466:4498   */\n      calldataload\n        /* \"#utility.yul\":4456:4498   */\n      swap4\n      pop\n        /* \"#utility.yul\":4551:4553   */\n      0x40\n        /* \"#utility.yul\":4540:4549   */\n      dup7\n        /* \"#utility.yul\":4536:4554   */\n      add\n        /* \"#utility.yul\":4523:4555   */\n      calldataload\n        /* \"#utility.yul\":4507:4555   */\n      swap2\n      pop\n        /* \"#utility.yul\":4580:4582   */\n      dup1\n        /* \"#utility.yul\":4570:4578   */\n      dup3\n        /* \"#utility.yul\":4567:4583   */\n      gt\n        /* \"#utility.yul\":4564:4600   */\n      iszero\n      tag_667\n      jumpi\n        /* \"#utility.yul\":4596:4597   */\n      0x00\n        /* \"#utility.yul\":4593:4594   */\n      dup1\n        /* \"#utility.yul\":4586:4598   */\n      revert\n        /* \"#utility.yul\":4564:4600   */\n    tag_667:\n      pop\n        /* \"#utility.yul\":4619:4671   */\n      tag_668\n        /* \"#utility.yul\":4663:4670   */\n      dup7\n        /* \"#utility.yul\":4652:4660   */\n      dup3\n        /* \"#utility.yul\":4641:4650   */\n      dup8\n        /* \"#utility.yul\":4637:4661   */\n      add\n        /* \"#utility.yul\":4619:4671   */\n      tag_617\n      jump\t// in\n    tag_668:\n        /* \"#utility.yul\":4609:4671   */\n      swap2\n      pop\n      pop\n        /* \"#utility.yul\":4066:4677   */\n      swap3\n      pop\n      swap3\n      pop\n      swap3\n      jump\t// out\n        /* \"#utility.yul\":4682:4862   */\n    tag_131:\n        /* \"#utility.yul\":4741:4747   */\n      0x00\n        /* \"#utility.yul\":4794:4796   */\n      0x20\n        /* \"#utility.yul\":4782:4791   */\n      dup3\n        /* \"#utility.yul\":4773:4780   */\n      dup5\n        /* \"#utility.yul\":4769:4792   */\n      sub\n        /* \"#utility.yul\":4765:4797   */\n      slt\n        /* \"#utility.yul\":4762:4814   */\n      iszero\n      tag_670\n      jumpi\n        /* \"#utility.yul\":4810:4811   */\n      0x00\n        /* \"#utility.yul\":4807:4808   */\n      dup1\n        /* \"#utility.yul\":4800:4812   */\n      revert\n        /* \"#utility.yul\":4762:4814   */\n    tag_670:\n      pop\n        /* \"#utility.yul\":4833:4856   */\n      calldataload\n      swap2\n        /* \"#utility.yul\":4682:4862   */\n      swap1\n      pop\n      jump\t// out\n        /* \"#utility.yul\":4867:5208   */\n    tag_50:\n        /* \"#utility.yul\":4932:4938   */\n      0x00\n        /* \"#utility.yul\":4940:4946   */\n      dup1\n        /* \"#utility.yul\":4993:4995   */\n      0x40\n        /* \"#utility.yul\":4981:4990   */\n      dup4\n        /* \"#utility.yul\":4972:4979   */\n      dup6\n        /* \"#utility.yul\":4968:4991   */\n      sub\n        /* \"#utility.yul\":4964:4996   */\n      slt\n        /* \"#utility.yul\":4961:5013   */\n      iszero\n      tag_672\n      jumpi\n        /* \"#utility.yul\":5009:5010   */\n      0x00\n        /* \"#utility.yul\":5006:5007   */\n      dup1\n        /* \"#utility.yul\":4999:5011   */\n      revert\n        /* \"#utility.yul\":4961:5013   */\n    tag_672:\n        /* \"#utility.yul\":5045:5054   */\n      dup3\n        /* \"#utility.yul\":5032:5055   */\n      calldataload\n        /* \"#utility.yul\":5022:5055   */\n      swap2\n      pop\n        /* \"#utility.yul\":5105:5107   */\n      0x20\n        /* \"#utility.yul\":5094:5103   */\n      dup4\n        /* \"#utility.yul\":5090:5108   */\n      add\n        /* \"#utility.yul\":5077:5109   */\n      calldataload\n        /* \"#utility.yul\":5152:5157   */\n      dup1\n        /* \"#utility.yul\":5145:5158   */\n      iszero\n        /* \"#utility.yul\":5138:5159   */\n      iszero\n        /* \"#utility.yul\":5131:5136   */\n      dup2\n        /* \"#utility.yul\":5128:5160   */\n      eq\n        /* \"#utility.yul\":5118:5178   */\n      tag_673\n      jumpi\n        /* \"#utility.yul\":5174:5175   */\n      0x00\n        /* \"#utility.yul\":5171:5172   */\n      dup1\n        /* \"#utility.yul\":5164:5176   */\n      revert\n        /* \"#utility.yul\":5118:5178   */\n    tag_673:\n        /* \"#utility.yul\":5197:5202   */\n      dup1\n        /* \"#utility.yul\":5187:5202   */\n      swap2\n      pop\n      pop\n        /* \"#utility.yul\":4867:5208   */\n      swap3\n      pop\n      swap3\n      swap1\n      pop\n      jump\t// out\n        /* \"#utility.yul\":5213:5471   */\n    tag_674:\n        /* \"#utility.yul\":5255:5258   */\n      0x00\n        /* \"#utility.yul\":5293:5298   */\n      dup2\n        /* \"#utility.yul\":5287:5299   */\n      mload\n        /* \"#utility.yul\":5320:5326   */\n      dup1\n        /* \"#utility.yul\":5315:5318   */\n      dup5\n        /* \"#utility.yul\":5308:5327   */\n      mstore\n        /* \"#utility.yul\":5336:5399   */\n      tag_676\n        /* \"#utility.yul\":5392:5398   */\n      dup2\n        /* \"#utility.yul\":5385:5389   */\n      0x20\n        /* \"#utility.yul\":5380:5383   */\n      dup7\n        /* \"#utility.yul\":5376:5390   */\n      add\n        /* \"#utility.yul\":5369:5373   */\n      0x20\n        /* \"#utility.yul\":5362:5367   */\n      dup7\n        /* \"#utility.yul\":5358:5374   */\n      add\n        /* \"#utility.yul\":5336:5399   */\n      tag_677\n      jump\t// in\n    tag_676:\n        /* \"#utility.yul\":5453:5455   */\n      0x1f\n        /* \"#utility.yul\":5432:5447   */\n      add\n      not(0x1f)\n        /* \"#utility.yul\":5428:5457   */\n      and\n        /* \"#utility.yul\":5419:5458   */\n      swap3\n      swap1\n      swap3\n      add\n        /* \"#utility.yul\":5460:5464   */\n      0x20\n        /* \"#utility.yul\":5415:5465   */\n      add\n      swap3\n        /* \"#utility.yul\":5213:5471   */\n      swap2\n      pop\n      pop\n      jump\t// out\n        /* \"#utility.yul\":5476:5697   */\n    tag_583:\n        /* \"#utility.yul\":5650:5652   */\n      0x60\n        /* \"#utility.yul\":5621:5636   */\n      swap2\n      swap1\n      swap2\n      shl\n      not(sub(shl(0x60, 0x01), 0x01))\n        /* \"#utility.yul\":5617:5662   */\n      and\n        /* \"#utility.yul\":5605:5663   */\n      dup2\n      mstore\n        /* \"#utility.yul\":5688:5690   */\n      0x14\n        /* \"#utility.yul\":5679:5691   */\n      add\n      swap1\n        /* \"#utility.yul\":5476:5697   */\n      jump\t// out\n        /* \"#utility.yul\":5702:5978   */\n    tag_212:\n        /* \"#utility.yul\":5833:5836   */\n      0x00\n        /* \"#utility.yul\":5871:5877   */\n      dup3\n        /* \"#utility.yul\":5865:5878   */\n      mload\n        /* \"#utility.yul\":5887:5940   */\n      tag_680\n        /* \"#utility.yul\":5933:5939   */\n      dup2\n        /* \"#utility.yul\":5928:5931   */\n      dup5\n        /* \"#utility.yul\":5921:5925   */\n      0x20\n        /* \"#utility.yul\":5913:5919   */\n      dup8\n        /* \"#utility.yul\":5909:5926   */\n      add\n        /* \"#utility.yul\":5887:5940   */\n      tag_677\n      jump\t// in\n    tag_680:\n        /* \"#utility.yul\":5956:5972   */\n      swap2\n      swap1\n      swap2\n      add\n      swap3\n        /* \"#utility.yul\":5702:5978   */\n      swap2\n      pop\n      pop\n      jump\t// out\n        /* \"#utility.yul\":5983:7082   */\n    tag_221:\n        /* \"#utility.yul\":6111:6114   */\n      0x00\n        /* \"#utility.yul\":6140:6141   */\n      dup1\n        /* \"#utility.yul\":6173:6179   */\n      dup4\n        /* \"#utility.yul\":6167:6180   */\n      sload\n        /* \"#utility.yul\":6203:6206   */\n      dup2\n        /* \"#utility.yul\":6225:6226   */\n      0x01\n        /* \"#utility.yul\":6253:6262   */\n      dup3\n        /* \"#utility.yul\":6249:6251   */\n      dup2\n        /* \"#utility.yul\":6245:6263   */\n      shr\n        /* \"#utility.yul\":6235:6263   */\n      swap2\n      pop\n        /* \"#utility.yul\":6313:6315   */\n      dup1\n        /* \"#utility.yul\":6302:6311   */\n      dup4\n        /* \"#utility.yul\":6298:6316   */\n      and\n        /* \"#utility.yul\":6335:6353   */\n      dup1\n        /* \"#utility.yul\":6325:6386   */\n      tag_682\n      jumpi\n        /* \"#utility.yul\":6379:6383   */\n      0x7f\n        /* \"#utility.yul\":6371:6377   */\n      dup4\n        /* \"#utility.yul\":6367:6384   */\n      and\n        /* \"#utility.yul\":6357:6384   */\n      swap3\n      pop\n        /* \"#utility.yul\":6325:6386   */\n    tag_682:\n        /* \"#utility.yul\":6405:6407   */\n      0x20\n        /* \"#utility.yul\":6453:6455   */\n      dup1\n        /* \"#utility.yul\":6445:6451   */\n      dup5\n        /* \"#utility.yul\":6442:6456   */\n      lt\n        /* \"#utility.yul\":6422:6440   */\n      dup3\n        /* \"#utility.yul\":6419:6457   */\n      eq\n        /* \"#utility.yul\":6416:6581   */\n      iszero\n      tag_683\n      jumpi\n      shl(0xe0, 0x4e487b71)\n        /* \"#utility.yul\":6480:6513   */\n      dup7\n      mstore\n        /* \"#utility.yul\":6536:6540   */\n      0x22\n        /* \"#utility.yul\":6533:6534   */\n      0x04\n        /* \"#utility.yul\":6526:6541   */\n      mstore\n        /* \"#utility.yul\":6566:6570   */\n      0x24\n        /* \"#utility.yul\":6487:6490   */\n      dup7\n        /* \"#utility.yul\":6554:6571   */\n      revert\n        /* \"#utility.yul\":6416:6581   */\n    tag_683:\n        /* \"#utility.yul\":6597:6615   */\n      dup2\n        /* \"#utility.yul\":6624:6728   */\n      dup1\n      iszero\n      tag_685\n      jumpi\n        /* \"#utility.yul\":6742:6743   */\n      0x01\n        /* \"#utility.yul\":6737:7057   */\n      dup2\n      eq\n      tag_686\n      jumpi\n        /* \"#utility.yul\":6590:7057   */\n      jump(tag_684)\n        /* \"#utility.yul\":6624:6728   */\n    tag_685:\n      not(0xff)\n        /* \"#utility.yul\":6657:6681   */\n      dup7\n      and\n        /* \"#utility.yul\":6645:6682   */\n      dup10\n      mstore\n        /* \"#utility.yul\":6702:6718   */\n      dup5\n      dup10\n      add\n      swap7\n      pop\n        /* \"#utility.yul\":6624:6728   */\n      jump(tag_684)\n        /* \"#utility.yul\":6737:7057   */\n    tag_686:\n        /* \"#utility.yul\":15121:15122   */\n      0x00\n        /* \"#utility.yul\":15114:15128   */\n      dup11\n      dup2\n      mstore\n        /* \"#utility.yul\":15158:15162   */\n      0x20\n        /* \"#utility.yul\":15145:15163   */\n      swap1\n      keccak256\n        /* \"#utility.yul\":6832:6833   */\n      0x00\n        /* \"#utility.yul\":6846:7011   */\n    tag_689:\n        /* \"#utility.yul\":6860:6866   */\n      dup7\n        /* \"#utility.yul\":6857:6858   */\n      dup2\n        /* \"#utility.yul\":6854:6867   */\n      lt\n        /* \"#utility.yul\":6846:7011   */\n      iszero\n      tag_691\n      jumpi\n        /* \"#utility.yul\":6938:6952   */\n      dup2\n      sload\n        /* \"#utility.yul\":6925:6936   */\n      dup12\n      dup3\n      add\n        /* \"#utility.yul\":6918:6953   */\n      mstore\n        /* \"#utility.yul\":6981:6997   */\n      swap1\n      dup6\n      add\n      swap1\n        /* \"#utility.yul\":6875:6885   */\n      dup4\n      add\n        /* \"#utility.yul\":6846:7011   */\n      jump(tag_689)\n    tag_691:\n        /* \"#utility.yul\":6850:6853   */\n      pop\n      pop\n        /* \"#utility.yul\":7040:7046   */\n      dup5\n        /* \"#utility.yul\":7035:7038   */\n      dup10\n        /* \"#utility.yul\":7031:7047   */\n      add\n        /* \"#utility.yul\":7024:7047   */\n      swap7\n      pop\n        /* \"#utility.yul\":6590:7057   */\n    tag_684:\n      pop\n        /* \"#utility.yul\":7073:7076   */\n      swap5\n      swap9\n        /* \"#utility.yul\":5983:7082   */\n      swap8\n      pop\n      pop\n      pop\n      pop\n      pop\n      pop\n      pop\n      pop\n      jump\t// out\n        /* \"#utility.yul\":7295:7693   */\n    tag_138:\n      sub(shl(0xa0, 0x01), 0x01)\n        /* \"#utility.yul\":7494:7526   */\n      dup5\n      and\n        /* \"#utility.yul\":7476:7527   */\n      dup2\n      mstore\n        /* \"#utility.yul\":7563:7565   */\n      0x60\n        /* \"#utility.yul\":7558:7560   */\n      0x20\n        /* \"#utility.yul\":7543:7561   */\n      dup3\n      add\n        /* \"#utility.yul\":7536:7566   */\n      dup2\n      swap1\n      mstore\n      0x00\n      swap1\n        /* \"#utility.yul\":7583:7628   */\n      tag_694\n      swap1\n        /* \"#utility.yul\":7609:7627   */\n      dup4\n      add\n        /* \"#utility.yul\":7601:7607   */\n      dup6\n        /* \"#utility.yul\":7583:7628   */\n      tag_674\n      jump\t// in\n    tag_694:\n        /* \"#utility.yul\":7575:7628   */\n      swap1\n      pop\n        /* \"#utility.yul\":7678:7684   */\n      dup3\n        /* \"#utility.yul\":7671:7685   */\n      iszero\n        /* \"#utility.yul\":7664:7686   */\n      iszero\n        /* \"#utility.yul\":7659:7661   */\n      0x40\n        /* \"#utility.yul\":7648:7657   */\n      dup4\n        /* \"#utility.yul\":7644:7662   */\n      add\n        /* \"#utility.yul\":7637:7687   */\n      mstore\n        /* \"#utility.yul\":7295:7693   */\n      swap5\n      swap4\n      pop\n      pop\n      pop\n      pop\n      jump\t// out\n        /* \"#utility.yul\":7698:8169   */\n    tag_204:\n      sub(shl(0xa0, 0x01), 0x01)\n        /* \"#utility.yul\":7925:7957   */\n      dup6\n      and\n        /* \"#utility.yul\":7907:7958   */\n      dup2\n      mstore\n        /* \"#utility.yul\":7994:7997   */\n      0x80\n        /* \"#utility.yul\":7989:7991   */\n      0x20\n        /* \"#utility.yul\":7974:7992   */\n      dup3\n      add\n        /* \"#utility.yul\":7967:7998   */\n      dup2\n      swap1\n      mstore\n      0x00\n      swap1\n        /* \"#utility.yul\":8015:8061   */\n      tag_696\n      swap1\n        /* \"#utility.yul\":8041:8060   */\n      dup4\n      add\n        /* \"#utility.yul\":8033:8039   */\n      dup7\n        /* \"#utility.yul\":8015:8061   */\n      tag_674\n      jump\t// in\n    tag_696:\n        /* \"#utility.yul\":8092:8094   */\n      0x40\n        /* \"#utility.yul\":8077:8095   */\n      dup4\n      add\n        /* \"#utility.yul\":8070:8104   */\n      swap5\n      swap1\n      swap5\n      mstore\n      pop\n        /* \"#utility.yul\":8147:8161   */\n      swap1\n      iszero\n        /* \"#utility.yul\":8140:8162   */\n      iszero\n        /* \"#utility.yul\":8135:8137   */\n      0x60\n        /* \"#utility.yul\":8120:8138   */\n      swap1\n      swap2\n      add\n        /* \"#utility.yul\":8113:8163   */\n      mstore\n        /* \"#utility.yul\":8007:8061   */\n      swap3\n        /* \"#utility.yul\":7698:8169   */\n      swap2\n      pop\n      pop\n      jump\t// out\n        /* \"#utility.yul\":8174:8635   */\n    tag_198:\n      sub(shl(0xa0, 0x01), 0x01)\n        /* \"#utility.yul\":8407:8439   */\n      dup6\n      and\n        /* \"#utility.yul\":8389:8440   */\n      dup2\n      mstore\n        /* \"#utility.yul\":8476:8479   */\n      0x80\n        /* \"#utility.yul\":8471:8473   */\n      0x20\n        /* \"#utility.yul\":8456:8474   */\n      dup3\n      add\n        /* \"#utility.yul\":8449:8480   */\n      dup2\n      swap1\n      mstore\n      0x00\n      swap1\n        /* \"#utility.yul\":8497:8543   */\n      tag_698\n      swap1\n        /* \"#utility.yul\":8523:8542   */\n      dup4\n      add\n        /* \"#utility.yul\":8515:8521   */\n      dup7\n        /* \"#utility.yul\":8497:8543   */\n      tag_674\n      jump\t// in\n    tag_698:\n        /* \"#utility.yul\":8574:8576   */\n      0x40\n        /* \"#utility.yul\":8559:8577   */\n      dup4\n      add\n        /* \"#utility.yul\":8552:8586   */\n      swap5\n      swap1\n      swap5\n      mstore\n      pop\n        /* \"#utility.yul\":8617:8619   */\n      0x60\n        /* \"#utility.yul\":8602:8620   */\n      add\n        /* \"#utility.yul\":8595:8629   */\n      mstore\n        /* \"#utility.yul\":8489:8543   */\n      swap3\n        /* \"#utility.yul\":8174:8635   */\n      swap2\n      pop\n      pop\n      jump\t// out\n        /* \"#utility.yul\":8640:9443   */\n    tag_76:\n        /* \"#utility.yul\":8802:8806   */\n      0x00\n        /* \"#utility.yul\":8831:8833   */\n      0x20\n        /* \"#utility.yul\":8871:8873   */\n      dup1\n        /* \"#utility.yul\":8860:8869   */\n      dup4\n        /* \"#utility.yul\":8856:8874   */\n      add\n        /* \"#utility.yul\":8901:8903   */\n      dup2\n        /* \"#utility.yul\":8890:8899   */\n      dup5\n        /* \"#utility.yul\":8883:8904   */\n      mstore\n        /* \"#utility.yul\":8924:8930   */\n      dup1\n        /* \"#utility.yul\":8959:8965   */\n      dup6\n        /* \"#utility.yul\":8953:8966   */\n      mload\n        /* \"#utility.yul\":8990:8996   */\n      dup1\n        /* \"#utility.yul\":8982:8988   */\n      dup4\n        /* \"#utility.yul\":8975:8997   */\n      mstore\n        /* \"#utility.yul\":9028:9030   */\n      0x40\n        /* \"#utility.yul\":9017:9026   */\n      dup7\n        /* \"#utility.yul\":9013:9031   */\n      add\n        /* \"#utility.yul\":9006:9031   */\n      swap2\n      pop\n        /* \"#utility.yul\":9090:9092   */\n      0x40\n        /* \"#utility.yul\":9080:9086   */\n      dup2\n        /* \"#utility.yul\":9077:9078   */\n      0x05\n        /* \"#utility.yul\":9073:9087   */\n      shl\n        /* \"#utility.yul\":9062:9071   */\n      dup8\n        /* \"#utility.yul\":9058:9088   */\n      add\n        /* \"#utility.yul\":9054:9093   */\n      add\n        /* \"#utility.yul\":9040:9093   */\n      swap3\n      pop\n        /* \"#utility.yul\":9128:9130   */\n      dup4\n        /* \"#utility.yul\":9120:9126   */\n      dup8\n        /* \"#utility.yul\":9116:9131   */\n      add\n        /* \"#utility.yul\":9149:9150   */\n      0x00\n        /* \"#utility.yul\":9159:9414   */\n    tag_700:\n        /* \"#utility.yul\":9173:9179   */\n      dup3\n        /* \"#utility.yul\":9170:9171   */\n      dup2\n        /* \"#utility.yul\":9167:9180   */\n      lt\n        /* \"#utility.yul\":9159:9414   */\n      iszero\n      tag_702\n      jumpi\n        /* \"#utility.yul\":9266:9268   */\n      0x3f\n        /* \"#utility.yul\":9262:9269   */\n      not\n        /* \"#utility.yul\":9250:9259   */\n      dup9\n        /* \"#utility.yul\":9242:9248   */\n      dup7\n        /* \"#utility.yul\":9238:9260   */\n      sub\n        /* \"#utility.yul\":9234:9270   */\n      add\n        /* \"#utility.yul\":9229:9232   */\n      dup5\n        /* \"#utility.yul\":9222:9271   */\n      mstore\n        /* \"#utility.yul\":9294:9334   */\n      tag_703\n        /* \"#utility.yul\":9327:9333   */\n      dup6\n        /* \"#utility.yul\":9318:9324   */\n      dup4\n        /* \"#utility.yul\":9312:9325   */\n      mload\n        /* \"#utility.yul\":9294:9334   */\n      tag_674\n      jump\t// in\n    tag_703:\n        /* \"#utility.yul\":9284:9334   */\n      swap5\n      pop\n        /* \"#utility.yul\":9392:9404   */\n      swap3\n      dup6\n      add\n      swap3\n        /* \"#utility.yul\":9357:9372   */\n      swap1\n      dup6\n      add\n      swap1\n        /* \"#utility.yul\":9195:9196   */\n      0x01\n        /* \"#utility.yul\":9188:9197   */\n      add\n        /* \"#utility.yul\":9159:9414   */\n      jump(tag_700)\n    tag_702:\n      pop\n        /* \"#utility.yul\":9431:9437   */\n      swap3\n      swap8\n        /* \"#utility.yul\":8640:9443   */\n      swap7\n      pop\n      pop\n      pop\n      pop\n      pop\n      pop\n      pop\n      jump\t// out\n        /* \"#utility.yul\":9822:10042   */\n    tag_100:\n        /* \"#utility.yul\":9971:9973   */\n      0x20\n        /* \"#utility.yul\":9960:9969   */\n      dup2\n        /* \"#utility.yul\":9953:9974   */\n      mstore\n        /* \"#utility.yul\":9934:9938   */\n      0x00\n        /* \"#utility.yul\":9991:10036   */\n      tag_628\n        /* \"#utility.yul\":10032:10034   */\n      0x20\n        /* \"#utility.yul\":10021:10030   */\n      dup4\n        /* \"#utility.yul\":10017:10035   */\n      add\n        /* \"#utility.yul\":10009:10015   */\n      dup5\n        /* \"#utility.yul\":9991:10036   */\n      tag_674\n      jump\t// in\n        /* \"#utility.yul\":10047:10492   */\n    tag_164:\n        /* \"#utility.yul\":10274:10277   */\n      0x80\n        /* \"#utility.yul\":10263:10272   */\n      dup2\n        /* \"#utility.yul\":10256:10278   */\n      mstore\n        /* \"#utility.yul\":10237:10241   */\n      0x00\n        /* \"#utility.yul\":10295:10341   */\n      tag_709\n        /* \"#utility.yul\":10336:10339   */\n      0x80\n        /* \"#utility.yul\":10325:10334   */\n      dup4\n        /* \"#utility.yul\":10321:10340   */\n      add\n        /* \"#utility.yul\":10313:10319   */\n      dup8\n        /* \"#utility.yul\":10295:10341   */\n      tag_674\n      jump\t// in\n    tag_709:\n        /* \"#utility.yul\":10372:10374   */\n      0x20\n        /* \"#utility.yul\":10357:10375   */\n      dup4\n      add\n        /* \"#utility.yul\":10350:10384   */\n      swap6\n      swap1\n      swap6\n      mstore\n      pop\n        /* \"#utility.yul\":10415:10417   */\n      0x40\n        /* \"#utility.yul\":10400:10418   */\n      dup2\n      add\n        /* \"#utility.yul\":10393:10427   */\n      swap3\n      swap1\n      swap3\n      mstore\n        /* \"#utility.yul\":10470:10484   */\n      iszero\n        /* \"#utility.yul\":10463:10485   */\n      iszero\n        /* \"#utility.yul\":10458:10460   */\n      0x60\n        /* \"#utility.yul\":10443:10461   */\n      swap1\n      swap2\n      add\n        /* \"#utility.yul\":10436:10486   */\n      mstore\n        /* \"#utility.yul\":10287:10341   */\n      swap2\n        /* \"#utility.yul\":10047:10492   */\n      swap1\n      pop\n      jump\t// out\n        /* \"#utility.yul\":10497:11342   */\n    tag_158:\n        /* \"#utility.yul\":10848:10851   */\n      0xe0\n        /* \"#utility.yul\":10837:10846   */\n      dup2\n        /* \"#utility.yul\":10830:10852   */\n      mstore\n        /* \"#utility.yul\":10811:10815   */\n      0x00\n        /* \"#utility.yul\":10875:10921   */\n      tag_711\n        /* \"#utility.yul\":10916:10919   */\n      0xe0\n        /* \"#utility.yul\":10905:10914   */\n      dup4\n        /* \"#utility.yul\":10901:10920   */\n      add\n        /* \"#utility.yul\":10893:10899   */\n      dup11\n        /* \"#utility.yul\":10875:10921   */\n      tag_674\n      jump\t// in\n    tag_711:\n        /* \"#utility.yul\":10957:10963   */\n      dup9\n        /* \"#utility.yul\":10952:10954   */\n      0x20\n        /* \"#utility.yul\":10941:10950   */\n      dup5\n        /* \"#utility.yul\":10937:10955   */\n      add\n        /* \"#utility.yul\":10930:10964   */\n      mstore\n        /* \"#utility.yul\":11000:11006   */\n      dup8\n        /* \"#utility.yul\":10995:10997   */\n      0x40\n        /* \"#utility.yul\":10984:10993   */\n      dup5\n        /* \"#utility.yul\":10980:10998   */\n      add\n        /* \"#utility.yul\":10973:11007   */\n      mstore\n        /* \"#utility.yul\":11057:11063   */\n      dup7\n        /* \"#utility.yul\":11050:11064   */\n      iszero\n        /* \"#utility.yul\":11043:11065   */\n      iszero\n        /* \"#utility.yul\":11038:11040   */\n      0x60\n        /* \"#utility.yul\":11027:11036   */\n      dup5\n        /* \"#utility.yul\":11023:11041   */\n      add\n        /* \"#utility.yul\":11016:11066   */\n      mstore\n        /* \"#utility.yul\":11115:11124   */\n      dup3\n        /* \"#utility.yul\":11107:11113   */\n      dup2\n        /* \"#utility.yul\":11103:11125   */\n      sub\n        /* \"#utility.yul\":11097:11100   */\n      0x80\n        /* \"#utility.yul\":11086:11095   */\n      dup5\n        /* \"#utility.yul\":11082:11101   */\n      add\n        /* \"#utility.yul\":11075:11126   */\n      mstore\n        /* \"#utility.yul\":11149:11182   */\n      tag_712\n        /* \"#utility.yul\":11175:11181   */\n      dup2\n        /* \"#utility.yul\":11167:11173   */\n      dup8\n        /* \"#utility.yul\":11149:11182   */\n      tag_674\n      jump\t// in\n    tag_712:\n        /* \"#utility.yul\":11135:11182   */\n      swap1\n      pop\n        /* \"#utility.yul\":11231:11240   */\n      dup3\n        /* \"#utility.yul\":11223:11229   */\n      dup2\n        /* \"#utility.yul\":11219:11241   */\n      sub\n        /* \"#utility.yul\":11213:11216   */\n      0xa0\n        /* \"#utility.yul\":11202:11211   */\n      dup5\n        /* \"#utility.yul\":11198:11217   */\n      add\n        /* \"#utility.yul\":11191:11242   */\n      mstore\n        /* \"#utility.yul\":11259:11292   */\n      tag_713\n        /* \"#utility.yul\":11285:11291   */\n      dup2\n        /* \"#utility.yul\":11277:11283   */\n      dup7\n        /* \"#utility.yul\":11259:11292   */\n      tag_674\n      jump\t// in\n    tag_713:\n        /* \"#utility.yul\":11251:11292   */\n      swap2\n      pop\n      pop\n        /* \"#utility.yul\":11329:11335   */\n      dup3\n        /* \"#utility.yul\":11323:11326   */\n      0xc0\n        /* \"#utility.yul\":11312:11321   */\n      dup4\n        /* \"#utility.yul\":11308:11327   */\n      add\n        /* \"#utility.yul\":11301:11336   */\n      mstore\n        /* \"#utility.yul\":10497:11342   */\n      swap9\n      swap8\n      pop\n      pop\n      pop\n      pop\n      pop\n      pop\n      pop\n      pop\n      jump\t// out\n        /* \"#utility.yul\":11701:12048   */\n    tag_410:\n        /* \"#utility.yul\":11903:11905   */\n      0x20\n        /* \"#utility.yul\":11885:11906   */\n      dup1\n      dup3\n      mstore\n        /* \"#utility.yul\":11942:11944   */\n      0x17\n        /* \"#utility.yul\":11922:11940   */\n      swap1\n      dup3\n      add\n        /* \"#utility.yul\":11915:11945   */\n      mstore\n      shl(0x4a, 0x115c9c9bdc8e88125b9d985b1a59081c185cdcdddbdc99)\n        /* \"#utility.yul\":11976:11978   */\n      0x40\n        /* \"#utility.yul\":11961:11979   */\n      dup3\n      add\n        /* \"#utility.yul\":11954:12007   */\n      mstore\n        /* \"#utility.yul\":12039:12041   */\n      0x60\n        /* \"#utility.yul\":12024:12042   */\n      add\n      swap1\n        /* \"#utility.yul\":11701:12048   */\n      jump\t// out\n        /* \"#utility.yul\":12053:12402   */\n    tag_406:\n        /* \"#utility.yul\":12255:12257   */\n      0x20\n        /* \"#utility.yul\":12237:12258   */\n      dup1\n      dup3\n      mstore\n        /* \"#utility.yul\":12294:12296   */\n      0x19\n        /* \"#utility.yul\":12274:12292   */\n      swap1\n      dup3\n      add\n        /* \"#utility.yul\":12267:12297   */\n      mstore\n      shl(0x3a, 0x115c9c9bdc8e88155cd95c88191bd95cdb89dd08195e1a5cdd)\n        /* \"#utility.yul\":12328:12330   */\n      0x40\n        /* \"#utility.yul\":12313:12331   */\n      dup3\n      add\n        /* \"#utility.yul\":12306:12361   */\n      mstore\n        /* \"#utility.yul\":12393:12395   */\n      0x60\n        /* \"#utility.yul\":12378:12396   */\n      add\n      swap1\n        /* \"#utility.yul\":12053:12402   */\n      jump\t// out\n        /* \"#utility.yul\":13121:13476   */\n    tag_224:\n        /* \"#utility.yul\":13323:13325   */\n      0x20\n        /* \"#utility.yul\":13305:13326   */\n      dup1\n      dup3\n      mstore\n        /* \"#utility.yul\":13362:13364   */\n      0x1f\n        /* \"#utility.yul\":13342:13360   */\n      swap1\n      dup3\n      add\n        /* \"#utility.yul\":13335:13365   */\n      mstore\n        /* \"#utility.yul\":13401:13434   */\n      0x6572726f723a2074686973206973206e6f7420796f75722070726f6475637400\n        /* \"#utility.yul\":13396:13398   */\n      0x40\n        /* \"#utility.yul\":13381:13399   */\n      dup3\n      add\n        /* \"#utility.yul\":13374:13435   */\n      mstore\n        /* \"#utility.yul\":13467:13469   */\n      0x60\n        /* \"#utility.yul\":13452:13470   */\n      add\n      swap1\n        /* \"#utility.yul\":13121:13476   */\n      jump\t// out\n        /* \"#utility.yul\":13826:14179   */\n    tag_402:\n        /* \"#utility.yul\":14028:14030   */\n      0x20\n        /* \"#utility.yul\":14010:14031   */\n      dup1\n      dup3\n      mstore\n        /* \"#utility.yul\":14067:14069   */\n      0x1d\n        /* \"#utility.yul\":14047:14065   */\n      swap1\n      dup3\n      add\n        /* \"#utility.yul\":14040:14070   */\n      mstore\n        /* \"#utility.yul\":14106:14137   */\n      0x4572726f723a20596f752061726520616c7265616479206c6f67676564000000\n        /* \"#utility.yul\":14101:14103   */\n      0x40\n        /* \"#utility.yul\":14086:14104   */\n      dup3\n      add\n        /* \"#utility.yul\":14079:14138   */\n      mstore\n        /* \"#utility.yul\":14170:14172   */\n      0x60\n        /* \"#utility.yul\":14155:14173   */\n      add\n      swap1\n        /* \"#utility.yul\":13826:14179   */\n      jump\t// out\n        /* \"#utility.yul\":14768:15043   */\n    tag_624:\n        /* \"#utility.yul\":14839:14841   */\n      0x40\n        /* \"#utility.yul\":14833:14842   */\n      mload\n        /* \"#utility.yul\":14904:14906   */\n      0x1f\n        /* \"#utility.yul\":14885:14898   */\n      dup3\n      add\n      not(0x1f)\n        /* \"#utility.yul\":14881:14908   */\n      and\n        /* \"#utility.yul\":14869:14909   */\n      dup2\n      add\n      sub(shl(0x40, 0x01), 0x01)\n        /* \"#utility.yul\":14924:14958   */\n      dup2\n      gt\n        /* \"#utility.yul\":14960:14982   */\n      dup3\n      dup3\n      lt\n        /* \"#utility.yul\":14921:14983   */\n      or\n        /* \"#utility.yul\":14918:15006   */\n      iszero\n      tag_726\n      jumpi\n        /* \"#utility.yul\":14986:15004   */\n      tag_726\n      tag_622\n      jump\t// in\n    tag_726:\n        /* \"#utility.yul\":15022:15024   */\n      0x40\n        /* \"#utility.yul\":15015:15037   */\n      mstore\n        /* \"#utility.yul\":14768:15043   */\n      swap2\n      swap1\n      pop\n      jump\t// out\n        /* \"#utility.yul\":15174:15302   */\n    tag_483:\n        /* \"#utility.yul\":15214:15217   */\n      0x00\n        /* \"#utility.yul\":15245:15246   */\n      dup3\n        /* \"#utility.yul\":15241:15247   */\n      not\n        /* \"#utility.yul\":15238:15239   */\n      dup3\n        /* \"#utility.yul\":15235:15248   */\n      gt\n        /* \"#utility.yul\":15232:15271   */\n      iszero\n      tag_730\n      jumpi\n        /* \"#utility.yul\":15251:15269   */\n      tag_730\n      tag_731\n      jump\t// in\n    tag_730:\n      pop\n        /* \"#utility.yul\":15287:15296   */\n      add\n      swap1\n        /* \"#utility.yul\":15174:15302   */\n      jump\t// out\n        /* \"#utility.yul\":15307:15524   */\n    tag_487:\n        /* \"#utility.yul\":15347:15348   */\n      0x00\n        /* \"#utility.yul\":15373:15374   */\n      dup3\n        /* \"#utility.yul\":15363:15495   */\n      tag_733\n      jumpi\n        /* \"#utility.yul\":15417:15427   */\n      0x4e487b71\n        /* \"#utility.yul\":15412:15415   */\n      0xe0\n        /* \"#utility.yul\":15408:15428   */\n      shl\n        /* \"#utility.yul\":15405:15406   */\n      0x00\n        /* \"#utility.yul\":15398:15429   */\n      mstore\n        /* \"#utility.yul\":15452:15456   */\n      0x12\n        /* \"#utility.yul\":15449:15450   */\n      0x04\n        /* \"#utility.yul\":15442:15457   */\n      mstore\n        /* \"#utility.yul\":15480:15484   */\n      0x24\n        /* \"#utility.yul\":15477:15478   */\n      0x00\n        /* \"#utility.yul\":15470:15485   */\n      revert\n        /* \"#utility.yul\":15363:15495   */\n    tag_733:\n      pop\n        /* \"#utility.yul\":15509:15518   */\n      div\n      swap1\n        /* \"#utility.yul\":15307:15524   */\n      jump\t// out\n        /* \"#utility.yul\":15529:15697   */\n    tag_370:\n        /* \"#utility.yul\":15569:15576   */\n      0x00\n        /* \"#utility.yul\":15635:15636   */\n      dup2\n        /* \"#utility.yul\":15631:15632   */\n      0x00\n        /* \"#utility.yul\":15627:15633   */\n      not\n        /* \"#utility.yul\":15623:15637   */\n      div\n        /* \"#utility.yul\":15620:15621   */\n      dup4\n        /* \"#utility.yul\":15617:15638   */\n      gt\n        /* \"#utility.yul\":15612:15613   */\n      dup3\n        /* \"#utility.yul\":15605:15614   */\n      iszero\n        /* \"#utility.yul\":15598:15615   */\n      iszero\n        /* \"#utility.yul\":15594:15639   */\n      and\n        /* \"#utility.yul\":15591:15662   */\n      iszero\n      tag_736\n      jumpi\n        /* \"#utility.yul\":15642:15660   */\n      tag_736\n      tag_731\n      jump\t// in\n    tag_736:\n      pop\n        /* \"#utility.yul\":15682:15691   */\n      mul\n      swap1\n        /* \"#utility.yul\":15529:15697   */\n      jump\t// out\n        /* \"#utility.yul\":15702:15960   */\n    tag_677:\n        /* \"#utility.yul\":15774:15775   */\n      0x00\n        /* \"#utility.yul\":15784:15897   */\n    tag_738:\n        /* \"#utility.yul\":15798:15804   */\n      dup4\n        /* \"#utility.yul\":15795:15796   */\n      dup2\n        /* \"#utility.yul\":15792:15805   */\n      lt\n        /* \"#utility.yul\":15784:15897   */\n      iszero\n      tag_740\n      jumpi\n        /* \"#utility.yul\":15874:15885   */\n      dup2\n      dup2\n      add\n        /* \"#utility.yul\":15868:15886   */\n      mload\n        /* \"#utility.yul\":15855:15866   */\n      dup4\n      dup3\n      add\n        /* \"#utility.yul\":15848:15887   */\n      mstore\n        /* \"#utility.yul\":15820:15822   */\n      0x20\n        /* \"#utility.yul\":15813:15823   */\n      add\n        /* \"#utility.yul\":15784:15897   */\n      jump(tag_738)\n    tag_740:\n        /* \"#utility.yul\":15915:15921   */\n      dup4\n        /* \"#utility.yul\":15912:15913   */\n      dup2\n        /* \"#utility.yul\":15909:15922   */\n      gt\n        /* \"#utility.yul\":15906:15954   */\n      iszero\n      tag_521\n      jumpi\n      pop\n      pop\n        /* \"#utility.yul\":15950:15951   */\n      0x00\n        /* \"#utility.yul\":15932:15948   */\n      swap2\n      add\n        /* \"#utility.yul\":15925:15952   */\n      mstore\n        /* \"#utility.yul\":15702:15960   */\n      jump\t// out\n        /* \"#utility.yul\":15965:16345   */\n    tag_269:\n        /* \"#utility.yul\":16044:16045   */\n      0x01\n        /* \"#utility.yul\":16040:16052   */\n      dup2\n      dup2\n      shr\n      swap1\n        /* \"#utility.yul\":16087:16099   */\n      dup3\n      and\n      dup1\n        /* \"#utility.yul\":16108:16169   */\n      tag_743\n      jumpi\n        /* \"#utility.yul\":16162:16166   */\n      0x7f\n        /* \"#utility.yul\":16154:16160   */\n      dup3\n        /* \"#utility.yul\":16150:16167   */\n      and\n        /* \"#utility.yul\":16140:16167   */\n      swap2\n      pop\n        /* \"#utility.yul\":16108:16169   */\n    tag_743:\n        /* \"#utility.yul\":16215:16217   */\n      0x20\n        /* \"#utility.yul\":16207:16213   */\n      dup3\n        /* \"#utility.yul\":16204:16218   */\n      lt\n        /* \"#utility.yul\":16184:16202   */\n      dup2\n        /* \"#utility.yul\":16181:16219   */\n      eq\n        /* \"#utility.yul\":16178:16339   */\n      iszero\n      tag_744\n      jumpi\n        /* \"#utility.yul\":16261:16271   */\n      0x4e487b71\n        /* \"#utility.yul\":16256:16259   */\n      0xe0\n        /* \"#utility.yul\":16252:16272   */\n      shl\n        /* \"#utility.yul\":16249:16250   */\n      0x00\n        /* \"#utility.yul\":16242:16273   */\n      mstore\n        /* \"#utility.yul\":16296:16300   */\n      0x22\n        /* \"#utility.yul\":16293:16294   */\n      0x04\n        /* \"#utility.yul\":16286:16301   */\n      mstore\n        /* \"#utility.yul\":16324:16328   */\n      0x24\n        /* \"#utility.yul\":16321:16322   */\n      0x00\n        /* \"#utility.yul\":16314:16329   */\n      revert\n        /* \"#utility.yul\":16178:16339   */\n    tag_744:\n      pop\n        /* \"#utility.yul\":15965:16345   */\n      swap2\n      swap1\n      pop\n      jump\t// out\n        /* \"#utility.yul\":16350:16485   */\n    tag_295:\n        /* \"#utility.yul\":16389:16392   */\n      0x00\n      not(0x00)\n        /* \"#utility.yul\":16410:16427   */\n      dup3\n      eq\n        /* \"#utility.yul\":16407:16450   */\n      iszero\n      tag_747\n      jumpi\n        /* \"#utility.yul\":16430:16448   */\n      tag_747\n      tag_731\n      jump\t// in\n    tag_747:\n      pop\n        /* \"#utility.yul\":16477:16478   */\n      0x01\n        /* \"#utility.yul\":16466:16479   */\n      add\n      swap1\n        /* \"#utility.yul\":16350:16485   */\n      jump\t// out\n        /* \"#utility.yul\":16490:16617   */\n    tag_731:\n        /* \"#utility.yul\":16551:16561   */\n      0x4e487b71\n        /* \"#utility.yul\":16546:16549   */\n      0xe0\n        /* \"#utility.yul\":16542:16562   */\n      shl\n        /* \"#utility.yul\":16539:16540   */\n      0x00\n        /* \"#utility.yul\":16532:16563   */\n      mstore\n        /* \"#utility.yul\":16582:16586   */\n      0x11\n        /* \"#utility.yul\":16579:16580   */\n      0x04\n        /* \"#utility.yul\":16572:16587   */\n      mstore\n        /* \"#utility.yul\":16606:16610   */\n      0x24\n        /* \"#utility.yul\":16603:16604   */\n      0x00\n        /* \"#utility.yul\":16596:16611   */\n      revert\n        /* \"#utility.yul\":16622:16749   */\n    tag_218:\n        /* \"#utility.yul\":16683:16693   */\n      0x4e487b71\n        /* \"#utility.yul\":16678:16681   */\n      0xe0\n        /* \"#utility.yul\":16674:16694   */\n      shl\n        /* \"#utility.yul\":16671:16672   */\n      0x00\n        /* \"#utility.yul\":16664:16695   */\n      mstore\n        /* \"#utility.yul\":16714:16718   */\n      0x32\n        /* \"#utility.yul\":16711:16712   */\n      0x04\n        /* \"#utility.yul\":16704:16719   */\n      mstore\n        /* \"#utility.yul\":16738:16742   */\n      0x24\n        /* \"#utility.yul\":16735:16736   */\n      0x00\n        /* \"#utility.yul\":16728:16743   */\n      revert\n        /* \"#utility.yul\":16754:16881   */\n    tag_622:\n        /* \"#utility.yul\":16815:16825   */\n      0x4e487b71\n        /* \"#utility.yul\":16810:16813   */\n      0xe0\n        /* \"#utility.yul\":16806:16826   */\n      shl\n        /* \"#utility.yul\":16803:16804   */\n      0x00\n        /* \"#utility.yul\":16796:16827   */\n      mstore\n        /* \"#utility.yul\":16846:16850   */\n      0x41\n        /* \"#utility.yul\":16843:16844   */\n      0x04\n        /* \"#utility.yul\":16836:16851   */\n      mstore\n        /* \"#utility.yul\":16870:16874   */\n      0x24\n        /* \"#utility.yul\":16867:16868   */\n      0x00\n        /* \"#utility.yul\":16860:16875   */\n      revert\n\n    auxdata: 0xa2646970667358221220813a2d3f6d2b30967d2ebc91f837efef4bbca492c9639023d723f141f7bf10b264736f6c63430008070033\n}\n",
				"bytecode": {
					"linkReferences": {},
					"object": "60806040526000600d553480156200001657600080fd5b50735412e9b0e4ef9d1546df79ae907eee34bdcf300460016040516200004690632132b2b960e11b815260040190565b908152604080516020928190038301812080546001600160a01b0319166001600160a01b03959095169490941790935561012083018152600460e08401908152632132b2b960e11b6101008501528352805180820190915260018152601960f91b8183015290820190620000ba906200087b565b81526003602080830191909152600060408084018290528051808201825260018152603160f81b818501526060850152805180820190915260068152654d6f73636f7760d01b81840152608084015260a0909201829052735412e9b0e4ef9d1546df79ae907eee34bdcf300482529081528151805160008051602062003b848339815191529262000150928492910190620008ad565b50602082810151600183015560408301516002830155606083015160038301805460ff191691151591909117905560808301518051620001979260048501920190620008ad565b5060a08201518051620001b5916005840191602090910190620008ad565b5060c091909101516006909101556000602081905260028054600181018255915260008051602062003b84833981519152805460008051602062003b4483398151915290920191620002079062000a15565b620002149291906200093c565b507349c364fedad517382ee5a776d3071f11cfde4c5c6001604051620002479066141c9bd91d58dd60ca1b815260070190565b908152604080516020928190038301812080546001600160a01b0319166001600160a01b03959095169490941790935561012083018152600760e0840190815266141c9bd91d58dd60ca1b6101008501528352805180820190915260018152601960f91b8183015290820190620002be906200087b565b81526003602080830191909152600060408084018290528051808201825260018152601960f91b8185015260608501528051808201909152600a8152695065746572736275726760b01b81840152608084015260a09092018290527349c364fedad517382ee5a776d3071f11cfde4c5c82529081528151805160008051602062003b248339815191529262000358928492910190620008ad565b50602082810151600183015560408301516002830155606083015160038301805460ff1916911515919091179055608083015180516200039f9260048501920190620008ad565b5060a08201518051620003bd916005840191602090910190620008ad565b5060c091909101516006909101556000602081905260028054600181018255915260008051602062003b24833981519152805460008051602062003b44833981519152909201916200040f9062000a15565b6200041c9291906200093c565b5073ada67460cf329d12c1ed898710cc8da5d40d802560056040516200044c90635065746160e01b815260040190565b908152604080516020928190038301812080546001600160a01b0319166001600160a01b03959095169490941790935560c083018152600460808401908152635065746160e01b60a08501528352805180820190915260018152603360f81b8183015290820190620004be906200087b565b815260026020808301919091526000604090920182905273ada67460cf329d12c1ed898710cc8da5d40d802590915260048152815180517f7276c473c3031176624ead5b5cbfdea5cdbc158289c185f75f825e40aed0bb379262000527928492910190620008ad565b5060208281015160018381019190915560408085015160028501556060909401516003909301805460ff19169315159390931790925560068054928301815560005282518084019093526004808452635065746160e01b93909101928352620005b6927ff652222313e28459528d920b65115c16c04f3efc82aaedc97be59f3f377c0d3f9092019190620008ad565b50600780546001810182556000919091527fa66cc928b5edb82af9bd49922954155ab7b0942694bea4ce44661d9a8736c6880180546001600160a01b03191673ada67460cf329d12c1ed898710cc8da5d40d802517905560408051608081018252735412e9b0e4ef9d1546df79ae907eee34bdcf30048152815180830183526003815262185cd960ea1b60208281019190915282015268056bc75e2d6310000081830152600d54606082015290516008906200067d9064566f646b6160d81b815260050190565b90815260405160209181900382019020825181546001600160a01b0319166001600160a01b039091161781558282015180519192620006c592600185019290910190620008ad565b506040828101516002830155606090920151600390910155600980546001810182556000919091528151808301909252600580835264566f646b6160d81b60209093019283526200072b9260008051602062003b648339815191529092019190620008ad565b50600d80549060006200073e8362000a52565b9091555050604080516080810182527349c364fedad517382ee5a776d3071f11cfde4c5c8152815180830183526003815262185cd960ea1b60208083019190915282015268056bc75e2d6310000081830152600d54606082015290516642616e6e616e6160c81b815260089060070190815260405160209181900382019020825181546001600160a01b0319166001600160a01b039091161781558282015180519192620007f592600185019290910190620008ad565b50604082810151600283015560609092015160039091015560098054600181018255600091909152815180830190925260078083526642616e6e616e6160c81b60209093019283526200085d9260008051602062003b648339815191529092019190620008ad565b50600d8054906000620008708362000a52565b919050555062000a7c565b600081604051602001620008909190620009d7565b604051602081830303815290604052805190602001209050919050565b828054620008bb9062000a15565b90600052602060002090601f016020900481019282620008df57600085556200092a565b82601f10620008fa57805160ff19168380011785556200092a565b828001600101855582156200092a579182015b828111156200092a5782518255916020019190600101906200090d565b5062000938929150620009c0565b5090565b8280546200094a9062000a15565b90600052602060002090601f0160209004810192826200096e57600085556200092a565b82601f106200098157805485556200092a565b828001600101855582156200092a57600052602060002091601f016020900482015b828111156200092a578254825591600101919060010190620009a3565b5b80821115620009385760008155600101620009c1565b6000825160005b81811015620009fa5760208186018101518583015201620009de565b8181111562000a0a576000828501525b509190910192915050565b600181811c9082168062000a2a57607f821691505b6020821081141562000a4c57634e487b7160e01b600052602260045260246000fd5b50919050565b600060001982141562000a7557634e487b7160e01b600052601160045260246000fd5b5060010190565b6130988062000a8c6000396000f3fe6080604052600436106101945760003560e01c8063033ff0b81461019957806304ac16f6146101cc5780630c72b1ec146101ee5780630e1c81b214610201578063146dc6ed146102215780631bbe970a146102345780631e279a371461028d5780631f8daac8146102b557806329e795f3146102d75780632ccdef7c146102f75780633b84aedc1461030a578063521b91701461033a57806355149fd51461035a5780635828c584146103875780635bbc9a3f146103a75780635bd37c9e146103c75780635bdb63fa146103dc5780636ba44d3c146103fc5780636c05dd1d1461041c5780637033a3821461043c57806373b62bd01461044f578063775eb9e61461047e578063845952a81461049e57806387048043146104be5780638e23cb40146104d1578063961865f014610504578063a985036d14610534578063a9f9482b14610554578063bbd4336314610574578063c4957fa014610594578063cc21c188146105d5578063d22d9020146105f5578063d68cf8c114610615578063dce3915114610645578063de3ab42414610675575b600080fd5b3480156101a557600080fd5b506101b96101b4366004612920565b610695565b6040519081526020015b60405180910390f35b3480156101d857600080fd5b506101ec6101e7366004612920565b6106dc565b005b6101ec6101fc366004612b61565b61072e565b34801561020d57600080fd5b506101ec61021c3660046128ca565b610899565b6101ec61022f366004612920565b610a15565b34801561024057600080fd5b5061027561024f366004612920565b80516020818301810180516005825292820191909301209152546001600160a01b031681565b6040516001600160a01b0390911681526020016101c3565b34801561029957600080fd5b506101b96102a83660046128a8565b6001600160a01b03163190565b3480156102c157600080fd5b506102ca610b54565b6040516101c39190612d3b565b3480156102e357600080fd5b506101ec6102f2366004612954565b610c2d565b6101ec610305366004612b61565b610d91565b34801561031657600080fd5b5061032a610325366004612920565b610eb7565b60405190151581526020016101c3565b34801561034657600080fd5b506101ec610355366004612920565b610f01565b34801561036657600080fd5b5061037a610375366004612920565b610f17565b6040516101c39190612d9d565b34801561039357600080fd5b506101ec6103a2366004612920565b610fe7565b3480156103b357600080fd5b5061032a6103c2366004612920565b611226565b3480156103d357600080fd5b506102ca61123c565b3480156103e857600080fd5b506101b96103f7366004612920565b61130c565b34801561040857600080fd5b50610275610417366004612920565b611322565b34801561042857600080fd5b506101ec610437366004612adc565b6113c0565b6101ec61044a366004612b48565b6114bf565b34801561045b57600080fd5b5061046f61046a366004612b48565b6115ce565b6040516101c393929190612c92565b34801561048a57600080fd5b506101ec610499366004612a3d565b611699565b3480156104aa57600080fd5b506101b96104b9366004612920565b6117fa565b6101ec6104cc366004612b61565b61182a565b3480156104dd57600080fd5b506104f16104ec3660046128a8565b61192a565b6040516101c39796959493929190612de1565b34801561051057600080fd5b5061052461051f3660046128a8565b611b05565b6040516101c39493929190612db0565b34801561054057600080fd5b506101b961054f366004612920565b611bba565b34801561056057600080fd5b5061046f61056f366004612b48565b611dc2565b34801561058057600080fd5b506101ec61058f366004612920565b611dd2565b3480156105a057600080fd5b506102756105af366004612920565b80516020818301810180516001825292820191909301209152546001600160a01b031681565b3480156105e157600080fd5b506101ec6105f0366004612a81565b611fbe565b34801561060157600080fd5b506101ec610610366004612a3d565b612292565b34801561062157600080fd5b50610635610630366004612920565b6123b8565b6040516101c39493929190612d04565b34801561065157600080fd5b50610665610660366004612b48565b61247e565b6040516101c39493929190612cc8565b34801561068157600080fd5b506102ca610690366004612920565b612550565b60008060006001846040516106aa9190612bda565b9081526040805160209281900383019020546001600160a01b0316835290820192909252016000206002015492915050565b60008060006001846040516106f19190612bda565b9081526040805160209281900383019020546001600160a01b031683529082019290925201600020600301805460ff191691151591909117905550565b6008600a838154811061074357610743613036565b90600052602060002090600402016001016040516107619190612bf6565b90815260405190819003602001902054336001600160a01b03909116146107a35760405162461bcd60e51b815260040161079a90612ea7565b60405180910390fd5b6001811515141561084757336001600160a01b03166108fc600a84815481106107ce576107ce613036565b9060005260206000209060040201600201549081150290604051600060405180830381858888f1935050505015801561080b573d6000803e3d6000fd5b506000600a838154811061082157610821613036565b60009182526020909120600490910201600301805460ff19169115159190911790555050565b8061089557600a828154811061085f5761085f613036565b6000918252602090912060049091020154600a80546001600160a01b03909216916108fc9190859081106107ce576107ce613036565b5050565b60006001600160a01b03166005836040516108b49190612bda565b908152604051908190036020019020546001600160a01b0316146109165760405162461bcd60e51b8152602060048201526019602482015278115c9c9bdc8e88155cd95c88185b1c9958591e48195e1a5cdd603a1b604482015260640161079a565b6040805160808101825283815260208082018490526002828401526000606083018190526001600160a01b03871681526004825292909220815180519293919261096392849201906126d1565b506020820151600182015560408083015160028301556060909201516003909101805460ff19169115159190911790555183906005906109a4908590612bda565b90815260405190819003602001902080546001600160a01b039283166001600160a01b031991821617909155600780546001810182556000919091527fa66cc928b5edb82af9bd49922954155ab7b0942694bea4ce44661d9a8736c688018054959092169416939093179092555050565b600881604051610a259190612bda565b9081526020016040518091039020600201543414610a785760405162461bcd60e51b815260206004820152601060248201526f6572726f723a206e6f74206d6f6e657960801b604482015260640161079a565b6040805160808101825233815260208082018481523493830193909352600160608301819052600a8054918201815560005282517fc65a7bb8d6351c1cf70c95a316cc6a92839c986682d98bc35f958f4883f9d2a8600490920291820180546001600160a01b0319166001600160a01b0390921691909117815593518051939493610b2c937fc65a7bb8d6351c1cf70c95a316cc6a92839c986682d98bc35f958f4883f9d2a99093019291909101906126d1565b50604082015160028201556060909101516003909101805460ff191691151591909117905550565b60606002805480602002602001604051908101604052809291908181526020016000905b82821015610c24578382906000526020600020018054610b9790612fca565b80601f0160208091040260200160405190810160405280929190818152602001828054610bc390612fca565b8015610c105780601f10610be557610100808354040283529160200191610c10565b820191906000526020600020905b815481529060010190602001808311610bf357829003601f168201915b505050505081526020019060010190610b78565b50505050905090565b60005b600354811015610d8c57600060038281548110610c4f57610c4f613036565b90600052602060002090600502016001018054610c6b90612fca565b80601f0160208091040260200160405190810160405280929190818152602001828054610c9790612fca565b8015610ce45780601f10610cb957610100808354040283529160200191610ce4565b820191906000526020600020905b815481529060010190602001808311610cc757829003601f168201915b5050505050905083604051602001610cfc9190612bda565b6040516020818303038152906040528051906020012081604051602001610d239190612bda565b604051602081830303815290604052805190602001201415610d79578260038381548110610d5357610d53613036565b90600052602060002090600502016004019080519060200190610d77929190612755565b505b5080610d8481613005565b915050610c30565b505050565b6008600b8381548110610da657610da6613036565b9060005260206000209060030201600101604051610dc49190612bf6565b90815260405190819003602001902054336001600160a01b0390911614610dfd5760405162461bcd60e51b815260040161079a90612ea7565b60018115151415610e9d57600b8281548110610e1b57610e1b613036565b600091825260208220600390910201546040516001600160a01b03909116913480156108fc02929091818181858888f19350505050158015610e61573d6000803e3d6000fd5b506000600b8381548110610e7757610e77613036565b60009182526020909120600390910201600201805460ff19169115159190911790555050565b80610895576000600b8381548110610e7757610e77613036565b6000806000600184604051610ecc9190612bda565b9081526040805160209281900383019020546001600160a01b0316835290820192909252016000206003015460ff1692915050565b6000600460006005846040516106f19190612bda565b6060600080600184604051610f2c9190612bda565b9081526040805160209281900383019020546001600160a01b0316835290820192909252016000206005018054610f6290612fca565b80601f0160208091040260200160405190810160405280929190818152602001828054610f8e90612fca565b8015610fdb5780601f10610fb057610100808354040283529160200191610fdb565b820191906000526020600020905b815481529060010190602001808311610fbe57829003601f168201915b50505050509050919050565b6000805b6009548110156111d35760006009828154811061100a5761100a613036565b90600052602060002001805461101f90612fca565b80601f016020809104026020016040519081016040528092919081815260200182805461104b90612fca565b80156110985780601f1061106d57610100808354040283529160200191611098565b820191906000526020600020905b81548152906001019060200180831161107b57829003601f168201915b50505050509050836040516020016110b09190612bda565b60405160208183030381529060405280519060200120816040516020016110d79190612bda565b6040516020818303038152906040528051906020012014156111c0576040805160608101825233815260208082018781526001938301849052600c8054948501815560005282517fdf6966c971051c3d54ec59162606531493a51404a002842f56009d7e5cf4a8c7600390950294850180546001600160a01b0319166001600160a01b03909216919091178155905180519394919361119f937fdf6966c971051c3d54ec59162606531493a51404a002842f56009d7e5cf4a8c89093019291909101906126d1565b50604091909101516002909101805460ff1916911515919091179055600192505b50806111cb81613005565b915050610feb565b506001811515146108955760405162461bcd60e51b815260206004820152601f60248201527f6572726f723a207468657265206973206e6f20737563682070726f6475637400604482015260640161079a565b600060046000600584604051610ecc9190612bda565b60606009805480602002602001604051908101604052809291908181526020016000905b82821015610c2457838290600052602060002001805461127f90612fca565b80601f01602080910402602001604051908101604052809291908181526020018280546112ab90612fca565b80156112f85780601f106112cd576101008083540402835291602001916112f8565b820191906000526020600020905b8154815290600101906020018083116112db57829003601f168201915b505050505081526020019060010190611260565b6000600460006005846040516106aa9190612bda565b60008060006001600160a01b03166005846040516113409190612bda565b908152604051908190036020019020546001600160a01b03161461138e5760058360405161136e9190612bda565b908152604051908190036020019020546001600160a01b031690506113ba565b60018360405161139e9190612bda565b908152604051908190036020019020546001600160a01b031690505b92915050565b60408051608081018252338152602081018390529081016113e984670de0b6b3a7640000612f7f565b8152602001600d548152506008846040516114049190612bda565b90815260405160209181900382019020825181546001600160a01b0319166001600160a01b03909116178155828201518051919261144a926001850192909101906126d1565b50604082015160028201556060909101516003909101556009805460018101825560009190915283516114a4917f6e1540171b6c0c960b71a7020d9f60077f6af931a8bbf590da0223dacf75c7af019060208601906126d1565b50600d80549060006114b583613005565b9190505550505050565b600a81815481106114d2576114d2613036565b60009182526020909120600490910201546001600160a01b031633146115365760405162461bcd60e51b815260206004820152601960248201527832b93937b91d103cb7b9103737ba1036b9b39739b2b73232b960391b604482015260640161079a565b336001600160a01b03166108fc600a838154811061155657611556613036565b9060005260206000209060040201600201549081150290604051600060405180830381858888f19350505050158015611593573d6000803e3d6000fd5b506000600a82815481106115a9576115a9613036565b60009182526020909120600490910201600301805460ff191691151591909117905550565b600c81815481106115de57600080fd5b6000918252602090912060039091020180546001820180546001600160a01b0390921693509061160d90612fca565b80601f016020809104026020016040519081016040528092919081815260200182805461163990612fca565b80156116865780601f1061165b57610100808354040283529160200191611686565b820191906000526020600020905b81548152906001019060200180831161166957829003601f168201915b5050506002909301549192505060ff1683565b6000806001846040516116ac9190612bda565b9081526040805160209281900383019020546001600160a01b0316835290820192909252016000206003015460ff16156116f85760405162461bcd60e51b815260040161079a90612ede565b60006001600160a01b03166001836040516117139190612bda565b908152604051908190036020019020546001600160a01b0316141561174a5760405162461bcd60e51b815260040161079a90612e74565b8060008060018560405161175e9190612bda565b9081526040805160209281900383019020546001600160a01b03168352908201929092520160002060010154146117a75760405162461bcd60e51b815260040161079a90612e43565b60016000806001856040516117bc9190612bda565b9081526040805160209281900383019020546001600160a01b031683529082019290925201600020600301805460ff19169115159190911790555050565b60008160405160200161180d9190612bda565b604051602081830303815290604052805190602001209050919050565b6008600c838154811061183f5761183f613036565b906000526020600020906003020160010160405161185d9190612bf6565b90815260405190819003602001902054336001600160a01b03909116146118965760405162461bcd60e51b815260040161079a90612ea7565b6001811515141561191057600c82815481106118b4576118b4613036565b600091825260208220600390910201546040516001600160a01b03909116913480156108fc02929091818181858888f193505050501580156118fa573d6000803e3d6000fd5b506000600c8381548110610e7757610e77613036565b80610895576000600c8381548110610e7757610e77613036565b60006020819052908152604090208054819061194590612fca565b80601f016020809104026020016040519081016040528092919081815260200182805461197190612fca565b80156119be5780601f10611993576101008083540402835291602001916119be565b820191906000526020600020905b8154815290600101906020018083116119a157829003601f168201915b5050506001840154600285015460038601546004870180549697939692955060ff9091169350906119ee90612fca565b80601f0160208091040260200160405190810160405280929190818152602001828054611a1a90612fca565b8015611a675780601f10611a3c57610100808354040283529160200191611a67565b820191906000526020600020905b815481529060010190602001808311611a4a57829003601f168201915b505050505090806005018054611a7c90612fca565b80601f0160208091040260200160405190810160405280929190818152602001828054611aa890612fca565b8015611af55780601f10611aca57610100808354040283529160200191611af5565b820191906000526020600020905b815481529060010190602001808311611ad857829003601f168201915b5050505050908060060154905087565b600460205260009081526040902080548190611b2090612fca565b80601f0160208091040260200160405190810160405280929190818152602001828054611b4c90612fca565b8015611b995780601f10611b6e57610100808354040283529160200191611b99565b820191906000526020600020905b815481529060010190602001808311611b7c57829003601f168201915b50505050600183015460028401546003909401549293909290915060ff1684565b60008080805b600254811015611da557600060028281548110611bdf57611bdf613036565b906000526020600020018054611bf490612fca565b80601f0160208091040260200160405190810160405280929190818152602001828054611c2090612fca565b8015611c6d5780601f10611c4257610100808354040283529160200191611c6d565b820191906000526020600020905b815481529060010190602001808311611c5057829003601f168201915b5050505050905085604051602001611c859190612bda565b6040516020818303038152906040528051906020012081604051602001611cac9190612bda565b604051602081830303815290604052805190602001201415611d9257600091505b6003548211611d925760038281548110611ce957611ce9613036565b9060005260206000209060050201600001604051602001611d0a9190612bf6565b6040516020818303038152906040528051906020012086604051602001611d319190612bda565b604051602081830303815290604052805190602001201415611d805760038281548110611d6057611d60613036565b90600052602060002090600502016003015483611d7d9190612f45565b92505b81611d8a81613005565b925050611ccd565b5080611d9d81613005565b915050611bc0565b50611db08282612f5d565b611dba9082612f45565b949350505050565b600b81815481106115de57600080fd5b6000805b6009548110156111d357600060098281548110611df557611df5613036565b906000526020600020018054611e0a90612fca565b80601f0160208091040260200160405190810160405280929190818152602001828054611e3690612fca565b8015611e835780601f10611e5857610100808354040283529160200191611e83565b820191906000526020600020905b815481529060010190602001808311611e6657829003601f168201915b5050505050905083604051602001611e9b9190612bda565b6040516020818303038152906040528051906020012081604051602001611ec29190612bda565b604051602081830303815290604052805190602001201415611fab576040805160608101825233815260208082018781526001938301849052600b8054948501815560005282517f0175b7a638427703f0dbe7bb9bbf987a2551717b34e79f33b5b1008d1fa01db9600390950294850180546001600160a01b0319166001600160a01b039092169190911781559051805193949193611f8a937f0175b7a638427703f0dbe7bb9bbf987a2551717b34e79f33b5b1008d1fa01dba9093019291909101906126d1565b50604091909101516002909101805460ff1916911515919091179055600192505b5080611fb681613005565b915050611dd6565b600a8111156120195760405162461bcd60e51b815260206004820152602160248201527f6572726f723a20726174696e672063616e2062652066726f6d203120746f20316044820152600360fc1b606482015260840161079a565b60005b600254811161228c5760006002828154811061203a5761203a613036565b90600052602060002001805461204f90612fca565b80601f016020809104026020016040519081016040528092919081815260200182805461207b90612fca565b80156120c85780601f1061209d576101008083540402835291602001916120c8565b820191906000526020600020905b8154815290600101906020018083116120ab57829003601f168201915b50505050509050846040516020016120e09190612bda565b60405160208183030381529060405280519060200120816040516020016121079190612bda565b604051602081830303815290604052805190602001201415612279576040805160a081018252868152336000908152600460209081529290208054606093600393929083019161215690612fca565b80601f016020809104026020016040519081016040528092919081815260200182805461218290612fca565b80156121cf5780601f106121a4576101008083540402835291602001916121cf565b820191906000526020600020905b8154815290600101906020018083116121b257829003601f168201915b5050509183525050602080820189905260408201889052606090910184905282546001810184556000938452928190208251805193946005029091019261221992849201906126d1565b50602082810151805161223292600185019201906126d1565b506040820151805161224e9160028401916020909101906126d1565b506060820151600382015560808201518051612274916004840191602090910190612755565b505050505b508061228481613005565b91505061201c565b50505050565b600460006005846040516122a69190612bda565b9081526040805160209281900383019020546001600160a01b0316835290820192909252016000206003015460ff16156122f25760405162461bcd60e51b815260040161079a90612ede565b60006001600160a01b031660058360405161230d9190612bda565b908152604051908190036020019020546001600160a01b031614156123445760405162461bcd60e51b815260040161079a90612e74565b80600460006005856040516123599190612bda565b9081526040805160209281900383019020546001600160a01b03168352908201929092520160002060010154146123a25760405162461bcd60e51b815260040161079a90612e43565b6001600460006005856040516117bc9190612bda565b8051602081830181018051600882529282019190930120915280546001820180546001600160a01b0390921692916123ef90612fca565b80601f016020809104026020016040519081016040528092919081815260200182805461241b90612fca565b80156124685780601f1061243d57610100808354040283529160200191612468565b820191906000526020600020905b81548152906001019060200180831161244b57829003601f168201915b5050505050908060020154908060030154905084565b600a818154811061248e57600080fd5b6000918252602090912060049091020180546001820180546001600160a01b039092169350906124bd90612fca565b80601f01602080910402602001604051908101604052809291908181526020018280546124e990612fca565b80156125365780601f1061250b57610100808354040283529160200191612536565b820191906000526020600020905b81548152906001019060200180831161251957829003601f168201915b50505050600283015460039093015491929160ff16905084565b6060600061255d83611322565b9050606060005b6009548110156126c95760006009828154811061258357612583613036565b90600052602060002001805461259890612fca565b80601f01602080910402602001604051908101604052809291908181526020018280546125c490612fca565b80156126115780601f106125e657610100808354040283529160200191612611565b820191906000526020600020905b8154815290600101906020018083116125f457829003601f168201915b50505050509050600060088260405161262a9190612bda565b90815260405160209181900382018120546001600160a01b0316925061265291839101612bc2565b60405160208183030381529060405280519060200120856040516020016126799190612bc2565b6040516020818303038152906040528051906020012014156126b457818484815181106126a8576126a8613036565b60200260200101819052505b505080806126c190613005565b915050612564565b509392505050565b8280546126dd90612fca565b90600052602060002090601f0160209004810192826126ff5760008555612745565b82601f1061271857805160ff1916838001178555612745565b82800160010185558215612745579182015b8281111561274557825182559160200191906001019061272a565b506127519291506127ae565b5090565b8280548282559060005260206000209081019282156127a2579160200282015b828111156127a257825180516127929184916020909101906126d1565b5091602001919060010190612775565b506127519291506127c3565b5b8082111561275157600081556001016127af565b808211156127515760006127d782826127e0565b506001016127c3565b5080546127ec90612fca565b6000825580601f106127fc575050565b601f01602090049060005260206000209081019061281a91906127ae565b50565b80356001600160a01b038116811461283457600080fd5b919050565b600082601f83011261284a57600080fd5b81356001600160401b038111156128635761286361304c565b612876601f8201601f1916602001612f15565b81815284602083860101111561288b57600080fd5b816020850160208301376000918101602001919091529392505050565b6000602082840312156128ba57600080fd5b6128c38261281d565b9392505050565b6000806000606084860312156128df57600080fd5b6128e88461281d565b925060208401356001600160401b0381111561290357600080fd5b61290f86828701612839565b925050604084013590509250925092565b60006020828403121561293257600080fd5b81356001600160401b0381111561294857600080fd5b611dba84828501612839565b6000806040838503121561296757600080fd5b82356001600160401b038082111561297e57600080fd5b61298a86838701612839565b93506020915081850135818111156129a157600080fd5b8501601f810187136129b257600080fd5b8035828111156129c4576129c461304c565b8060051b6129d3858201612f15565b8281528581019084870183860188018c10156129ee57600080fd5b60009350835b85811015612a2b57813588811115612a0a578586fd5b612a188e8b838b0101612839565b85525092880192908801906001016129f4565b50989b909a5098505050505050505050565b60008060408385031215612a5057600080fd5b82356001600160401b03811115612a6657600080fd5b612a7285828601612839565b95602094909401359450505050565b600080600060608486031215612a9657600080fd5b83356001600160401b0380821115612aad57600080fd5b612ab987838801612839565b94506020860135915080821115612acf57600080fd5b5061290f86828701612839565b600080600060608486031215612af157600080fd5b83356001600160401b0380821115612b0857600080fd5b612b1487838801612839565b9450602086013593506040860135915080821115612b3157600080fd5b50612b3e86828701612839565b9150509250925092565b600060208284031215612b5a57600080fd5b5035919050565b60008060408385031215612b7457600080fd5b8235915060208301358015158114612b8b57600080fd5b809150509250929050565b60008151808452612bae816020860160208601612f9e565b601f01601f19169290920160200192915050565b60609190911b6001600160601b031916815260140190565b60008251612bec818460208701612f9e565b9190910192915050565b600080835481600182811c915080831680612c1257607f831692505b6020808410821415612c3257634e487b7160e01b86526022600452602486fd5b818015612c465760018114612c5757612c84565b60ff19861689528489019650612c84565b60008a81526020902060005b86811015612c7c5781548b820152908501908301612c63565b505084890196505b509498975050505050505050565b6001600160a01b0384168152606060208201819052600090612cb690830185612b96565b90508215156040830152949350505050565b6001600160a01b0385168152608060208201819052600090612cec90830186612b96565b60408301949094525090151560609091015292915050565b6001600160a01b0385168152608060208201819052600090612d2890830186612b96565b6040830194909452506060015292915050565b6000602080830181845280855180835260408601915060408160051b870101925083870160005b82811015612d9057603f19888603018452612d7e858351612b96565b94509285019290850190600101612d62565b5092979650505050505050565b6020815260006128c36020830184612b96565b608081526000612dc36080830187612b96565b60208301959095525060408101929092521515606090910152919050565b60e081526000612df460e083018a612b96565b88602084015287604084015286151560608401528281036080840152612e1a8187612b96565b905082810360a0840152612e2e8186612b96565b9150508260c083015298975050505050505050565b602080825260179082015276115c9c9bdc8e88125b9d985b1a59081c185cdcdddbdc99604a1b604082015260600190565b602080825260199082015278115c9c9bdc8e88155cd95c88191bd95cdb89dd08195e1a5cdd603a1b604082015260600190565b6020808252601f908201527f6572726f723a2074686973206973206e6f7420796f75722070726f6475637400604082015260600190565b6020808252601d908201527f4572726f723a20596f752061726520616c7265616479206c6f67676564000000604082015260600190565b604051601f8201601f191681016001600160401b0381118282101715612f3d57612f3d61304c565b604052919050565b60008219821115612f5857612f58613020565b500190565b600082612f7a57634e487b7160e01b600052601260045260246000fd5b500490565b6000816000190483118215151615612f9957612f99613020565b500290565b60005b83811015612fb9578181015183820152602001612fa1565b8381111561228c5750506000910152565b600181811c90821680612fde57607f821691505b60208210811415612fff57634e487b7160e01b600052602260045260246000fd5b50919050565b600060001982141561301957613019613020565b5060010190565b634e487b7160e01b600052601160045260246000fd5b634e487b7160e01b600052603260045260246000fd5b634e487b7160e01b600052604160045260246000fdfea2646970667358221220813a2d3f6d2b30967d2ebc91f837efef4bbca492c9639023d723f141f7bf10b264736f6c63430008070033b5b2e77f7cc5f741808c088fc930a78382cbc738160d08c471b4672fc39743aa405787fa12a823e0f2b7631cc41b3ba8828b3321ca811111fa75cd3aa3bb5ace6e1540171b6c0c960b71a7020d9f60077f6af931a8bbf590da0223dacf75c7af418456ba3c801fd0a494a221a407852a26db46c4f8395142565b3b3cd0653b99",
					"opcodes": "PUSH1 0x80 PUSH1 0x40 MSTORE PUSH1 0x0 PUSH1 0xD SSTORE CALLVALUE DUP1 ISZERO PUSH3 0x16 JUMPI PUSH1 0x0 DUP1 REVERT JUMPDEST POP PUSH20 0x5412E9B0E4EF9D1546DF79AE907EEE34BDCF3004 PUSH1 0x1 PUSH1 0x40 MLOAD PUSH3 0x46 SWAP1 PUSH4 0x2132B2B9 PUSH1 0xE1 SHL DUP2 MSTORE PUSH1 0x4 ADD SWAP1 JUMP JUMPDEST SWAP1 DUP2 MSTORE PUSH1 0x40 DUP1 MLOAD PUSH1 0x20 SWAP3 DUP2 SWAP1 SUB DUP4 ADD DUP2 KECCAK256 DUP1 SLOAD PUSH1 0x1 PUSH1 0x1 PUSH1 0xA0 SHL SUB NOT AND PUSH1 0x1 PUSH1 0x1 PUSH1 0xA0 SHL SUB SWAP6 SWAP1 SWAP6 AND SWAP5 SWAP1 SWAP5 OR SWAP1 SWAP4 SSTORE PUSH2 0x120 DUP4 ADD DUP2 MSTORE PUSH1 0x4 PUSH1 0xE0 DUP5 ADD SWAP1 DUP2 MSTORE PUSH4 0x2132B2B9 PUSH1 0xE1 SHL PUSH2 0x100 DUP6 ADD MSTORE DUP4 MSTORE DUP1 MLOAD DUP1 DUP3 ADD SWAP1 SWAP2 MSTORE PUSH1 0x1 DUP2 MSTORE PUSH1 0x19 PUSH1 0xF9 SHL DUP2 DUP4 ADD MSTORE SWAP1 DUP3 ADD SWAP1 PUSH3 0xBA SWAP1 PUSH3 0x87B JUMP JUMPDEST DUP2 MSTORE PUSH1 0x3 PUSH1 0x20 DUP1 DUP4 ADD SWAP2 SWAP1 SWAP2 MSTORE PUSH1 0x0 PUSH1 0x40 DUP1 DUP5 ADD DUP3 SWAP1 MSTORE DUP1 MLOAD DUP1 DUP3 ADD DUP3 MSTORE PUSH1 0x1 DUP2 MSTORE PUSH1 0x31 PUSH1 0xF8 SHL DUP2 DUP6 ADD MSTORE PUSH1 0x60 DUP6 ADD MSTORE DUP1 MLOAD DUP1 DUP3 ADD SWAP1 SWAP2 MSTORE PUSH1 0x6 DUP2 MSTORE PUSH6 0x4D6F73636F77 PUSH1 0xD0 SHL DUP2 DUP5 ADD MSTORE PUSH1 0x80 DUP5 ADD MSTORE PUSH1 0xA0 SWAP1 SWAP3 ADD DUP3 SWAP1 MSTORE PUSH20 0x5412E9B0E4EF9D1546DF79AE907EEE34BDCF3004 DUP3 MSTORE SWAP1 DUP2 MSTORE DUP2 MLOAD DUP1 MLOAD PUSH1 0x0 DUP1 MLOAD PUSH1 0x20 PUSH3 0x3B84 DUP4 CODECOPY DUP2 MLOAD SWAP2 MSTORE SWAP3 PUSH3 0x150 SWAP3 DUP5 SWAP3 SWAP2 ADD SWAP1 PUSH3 0x8AD JUMP JUMPDEST POP PUSH1 0x20 DUP3 DUP2 ADD MLOAD PUSH1 0x1 DUP4 ADD SSTORE PUSH1 0x40 DUP4 ADD MLOAD PUSH1 0x2 DUP4 ADD SSTORE PUSH1 0x60 DUP4 ADD MLOAD PUSH1 0x3 DUP4 ADD DUP1 SLOAD PUSH1 0xFF NOT AND SWAP2 ISZERO ISZERO SWAP2 SWAP1 SWAP2 OR SWAP1 SSTORE PUSH1 0x80 DUP4 ADD MLOAD DUP1 MLOAD PUSH3 0x197 SWAP3 PUSH1 0x4 DUP6 ADD SWAP3 ADD SWAP1 PUSH3 0x8AD JUMP JUMPDEST POP PUSH1 0xA0 DUP3 ADD MLOAD DUP1 MLOAD PUSH3 0x1B5 SWAP2 PUSH1 0x5 DUP5 ADD SWAP2 PUSH1 0x20 SWAP1 SWAP2 ADD SWAP1 PUSH3 0x8AD JUMP JUMPDEST POP PUSH1 0xC0 SWAP2 SWAP1 SWAP2 ADD MLOAD PUSH1 0x6 SWAP1 SWAP2 ADD SSTORE PUSH1 0x0 PUSH1 0x20 DUP2 SWAP1 MSTORE PUSH1 0x2 DUP1 SLOAD PUSH1 0x1 DUP2 ADD DUP3 SSTORE SWAP2 MSTORE PUSH1 0x0 DUP1 MLOAD PUSH1 0x20 PUSH3 0x3B84 DUP4 CODECOPY DUP2 MLOAD SWAP2 MSTORE DUP1 SLOAD PUSH1 0x0 DUP1 MLOAD PUSH1 0x20 PUSH3 0x3B44 DUP4 CODECOPY DUP2 MLOAD SWAP2 MSTORE SWAP1 SWAP3 ADD SWAP2 PUSH3 0x207 SWAP1 PUSH3 0xA15 JUMP JUMPDEST PUSH3 0x214 SWAP3 SWAP2 SWAP1 PUSH3 0x93C JUMP JUMPDEST POP PUSH20 0x49C364FEDAD517382EE5A776D3071F11CFDE4C5C PUSH1 0x1 PUSH1 0x40 MLOAD PUSH3 0x247 SWAP1 PUSH7 0x141C9BD91D58DD PUSH1 0xCA SHL DUP2 MSTORE PUSH1 0x7 ADD SWAP1 JUMP JUMPDEST SWAP1 DUP2 MSTORE PUSH1 0x40 DUP1 MLOAD PUSH1 0x20 SWAP3 DUP2 SWAP1 SUB DUP4 ADD DUP2 KECCAK256 DUP1 SLOAD PUSH1 0x1 PUSH1 0x1 PUSH1 0xA0 SHL SUB NOT AND PUSH1 0x1 PUSH1 0x1 PUSH1 0xA0 SHL SUB SWAP6 SWAP1 SWAP6 AND SWAP5 SWAP1 SWAP5 OR SWAP1 SWAP4 SSTORE PUSH2 0x120 DUP4 ADD DUP2 MSTORE PUSH1 0x7 PUSH1 0xE0 DUP5 ADD SWAP1 DUP2 MSTORE PUSH7 0x141C9BD91D58DD PUSH1 0xCA SHL PUSH2 0x100 DUP6 ADD MSTORE DUP4 MSTORE DUP1 MLOAD DUP1 DUP3 ADD SWAP1 SWAP2 MSTORE PUSH1 0x1 DUP2 MSTORE PUSH1 0x19 PUSH1 0xF9 SHL DUP2 DUP4 ADD MSTORE SWAP1 DUP3 ADD SWAP1 PUSH3 0x2BE SWAP1 PUSH3 0x87B JUMP JUMPDEST DUP2 MSTORE PUSH1 0x3 PUSH1 0x20 DUP1 DUP4 ADD SWAP2 SWAP1 SWAP2 MSTORE PUSH1 0x0 PUSH1 0x40 DUP1 DUP5 ADD DUP3 SWAP1 MSTORE DUP1 MLOAD DUP1 DUP3 ADD DUP3 MSTORE PUSH1 0x1 DUP2 MSTORE PUSH1 0x19 PUSH1 0xF9 SHL DUP2 DUP6 ADD MSTORE PUSH1 0x60 DUP6 ADD MSTORE DUP1 MLOAD DUP1 DUP3 ADD SWAP1 SWAP2 MSTORE PUSH1 0xA DUP2 MSTORE PUSH10 0x50657465727362757267 PUSH1 0xB0 SHL DUP2 DUP5 ADD MSTORE PUSH1 0x80 DUP5 ADD MSTORE PUSH1 0xA0 SWAP1 SWAP3 ADD DUP3 SWAP1 MSTORE PUSH20 0x49C364FEDAD517382EE5A776D3071F11CFDE4C5C DUP3 MSTORE SWAP1 DUP2 MSTORE DUP2 MLOAD DUP1 MLOAD PUSH1 0x0 DUP1 MLOAD PUSH1 0x20 PUSH3 0x3B24 DUP4 CODECOPY DUP2 MLOAD SWAP2 MSTORE SWAP3 PUSH3 0x358 SWAP3 DUP5 SWAP3 SWAP2 ADD SWAP1 PUSH3 0x8AD JUMP JUMPDEST POP PUSH1 0x20 DUP3 DUP2 ADD MLOAD PUSH1 0x1 DUP4 ADD SSTORE PUSH1 0x40 DUP4 ADD MLOAD PUSH1 0x2 DUP4 ADD SSTORE PUSH1 0x60 DUP4 ADD MLOAD PUSH1 0x3 DUP4 ADD DUP1 SLOAD PUSH1 0xFF NOT AND SWAP2 ISZERO ISZERO SWAP2 SWAP1 SWAP2 OR SWAP1 SSTORE PUSH1 0x80 DUP4 ADD MLOAD DUP1 MLOAD PUSH3 0x39F SWAP3 PUSH1 0x4 DUP6 ADD SWAP3 ADD SWAP1 PUSH3 0x8AD JUMP JUMPDEST POP PUSH1 0xA0 DUP3 ADD MLOAD DUP1 MLOAD PUSH3 0x3BD SWAP2 PUSH1 0x5 DUP5 ADD SWAP2 PUSH1 0x20 SWAP1 SWAP2 ADD SWAP1 PUSH3 0x8AD JUMP JUMPDEST POP PUSH1 0xC0 SWAP2 SWAP1 SWAP2 ADD MLOAD PUSH1 0x6 SWAP1 SWAP2 ADD SSTORE PUSH1 0x0 PUSH1 0x20 DUP2 SWAP1 MSTORE PUSH1 0x2 DUP1 SLOAD PUSH1 0x1 DUP2 ADD DUP3 SSTORE SWAP2 MSTORE PUSH1 0x0 DUP1 MLOAD PUSH1 0x20 PUSH3 0x3B24 DUP4 CODECOPY DUP2 MLOAD SWAP2 MSTORE DUP1 SLOAD PUSH1 0x0 DUP1 MLOAD PUSH1 0x20 PUSH3 0x3B44 DUP4 CODECOPY DUP2 MLOAD SWAP2 MSTORE SWAP1 SWAP3 ADD SWAP2 PUSH3 0x40F SWAP1 PUSH3 0xA15 JUMP JUMPDEST PUSH3 0x41C SWAP3 SWAP2 SWAP1 PUSH3 0x93C JUMP JUMPDEST POP PUSH20 0xADA67460CF329D12C1ED898710CC8DA5D40D8025 PUSH1 0x5 PUSH1 0x40 MLOAD PUSH3 0x44C SWAP1 PUSH4 0x50657461 PUSH1 0xE0 SHL DUP2 MSTORE PUSH1 0x4 ADD SWAP1 JUMP JUMPDEST SWAP1 DUP2 MSTORE PUSH1 0x40 DUP1 MLOAD PUSH1 0x20 SWAP3 DUP2 SWAP1 SUB DUP4 ADD DUP2 KECCAK256 DUP1 SLOAD PUSH1 0x1 PUSH1 0x1 PUSH1 0xA0 SHL SUB NOT AND PUSH1 0x1 PUSH1 0x1 PUSH1 0xA0 SHL SUB SWAP6 SWAP1 SWAP6 AND SWAP5 SWAP1 SWAP5 OR SWAP1 SWAP4 SSTORE PUSH1 0xC0 DUP4 ADD DUP2 MSTORE PUSH1 0x4 PUSH1 0x80 DUP5 ADD SWAP1 DUP2 MSTORE PUSH4 0x50657461 PUSH1 0xE0 SHL PUSH1 0xA0 DUP6 ADD MSTORE DUP4 MSTORE DUP1 MLOAD DUP1 DUP3 ADD SWAP1 SWAP2 MSTORE PUSH1 0x1 DUP2 MSTORE PUSH1 0x33 PUSH1 0xF8 SHL DUP2 DUP4 ADD MSTORE SWAP1 DUP3 ADD SWAP1 PUSH3 0x4BE SWAP1 PUSH3 0x87B JUMP JUMPDEST DUP2 MSTORE PUSH1 0x2 PUSH1 0x20 DUP1 DUP4 ADD SWAP2 SWAP1 SWAP2 MSTORE PUSH1 0x0 PUSH1 0x40 SWAP1 SWAP3 ADD DUP3 SWAP1 MSTORE PUSH20 0xADA67460CF329D12C1ED898710CC8DA5D40D8025 SWAP1 SWAP2 MSTORE PUSH1 0x4 DUP2 MSTORE DUP2 MLOAD DUP1 MLOAD PUSH32 0x7276C473C3031176624EAD5B5CBFDEA5CDBC158289C185F75F825E40AED0BB37 SWAP3 PUSH3 0x527 SWAP3 DUP5 SWAP3 SWAP2 ADD SWAP1 PUSH3 0x8AD JUMP JUMPDEST POP PUSH1 0x20 DUP3 DUP2 ADD MLOAD PUSH1 0x1 DUP4 DUP2 ADD SWAP2 SWAP1 SWAP2 SSTORE PUSH1 0x40 DUP1 DUP6 ADD MLOAD PUSH1 0x2 DUP6 ADD SSTORE PUSH1 0x60 SWAP1 SWAP5 ADD MLOAD PUSH1 0x3 SWAP1 SWAP4 ADD DUP1 SLOAD PUSH1 0xFF NOT AND SWAP4 ISZERO ISZERO SWAP4 SWAP1 SWAP4 OR SWAP1 SWAP3 SSTORE PUSH1 0x6 DUP1 SLOAD SWAP3 DUP4 ADD DUP2 SSTORE PUSH1 0x0 MSTORE DUP3 MLOAD DUP1 DUP5 ADD SWAP1 SWAP4 MSTORE PUSH1 0x4 DUP1 DUP5 MSTORE PUSH4 0x50657461 PUSH1 0xE0 SHL SWAP4 SWAP1 SWAP2 ADD SWAP3 DUP4 MSTORE PUSH3 0x5B6 SWAP3 PUSH32 0xF652222313E28459528D920B65115C16C04F3EFC82AAEDC97BE59F3F377C0D3F SWAP1 SWAP3 ADD SWAP2 SWAP1 PUSH3 0x8AD JUMP JUMPDEST POP PUSH1 0x7 DUP1 SLOAD PUSH1 0x1 DUP2 ADD DUP3 SSTORE PUSH1 0x0 SWAP2 SWAP1 SWAP2 MSTORE PUSH32 0xA66CC928B5EDB82AF9BD49922954155AB7B0942694BEA4CE44661D9A8736C688 ADD DUP1 SLOAD PUSH1 0x1 PUSH1 0x1 PUSH1 0xA0 SHL SUB NOT AND PUSH20 0xADA67460CF329D12C1ED898710CC8DA5D40D8025 OR SWAP1 SSTORE PUSH1 0x40 DUP1 MLOAD PUSH1 0x80 DUP2 ADD DUP3 MSTORE PUSH20 0x5412E9B0E4EF9D1546DF79AE907EEE34BDCF3004 DUP2 MSTORE DUP2 MLOAD DUP1 DUP4 ADD DUP4 MSTORE PUSH1 0x3 DUP2 MSTORE PUSH3 0x185CD9 PUSH1 0xEA SHL PUSH1 0x20 DUP3 DUP2 ADD SWAP2 SWAP1 SWAP2 MSTORE DUP3 ADD MSTORE PUSH9 0x56BC75E2D63100000 DUP2 DUP4 ADD MSTORE PUSH1 0xD SLOAD PUSH1 0x60 DUP3 ADD MSTORE SWAP1 MLOAD PUSH1 0x8 SWAP1 PUSH3 0x67D SWAP1 PUSH5 0x566F646B61 PUSH1 0xD8 SHL DUP2 MSTORE PUSH1 0x5 ADD SWAP1 JUMP JUMPDEST SWAP1 DUP2 MSTORE PUSH1 0x40 MLOAD PUSH1 0x20 SWAP2 DUP2 SWAP1 SUB DUP3 ADD SWAP1 KECCAK256 DUP3 MLOAD DUP2 SLOAD PUSH1 0x1 PUSH1 0x1 PUSH1 0xA0 SHL SUB NOT AND PUSH1 0x1 PUSH1 0x1 PUSH1 0xA0 SHL SUB SWAP1 SWAP2 AND OR DUP2 SSTORE DUP3 DUP3 ADD MLOAD DUP1 MLOAD SWAP2 SWAP3 PUSH3 0x6C5 SWAP3 PUSH1 0x1 DUP6 ADD SWAP3 SWAP1 SWAP2 ADD SWAP1 PUSH3 0x8AD JUMP JUMPDEST POP PUSH1 0x40 DUP3 DUP2 ADD MLOAD PUSH1 0x2 DUP4 ADD SSTORE PUSH1 0x60 SWAP1 SWAP3 ADD MLOAD PUSH1 0x3 SWAP1 SWAP2 ADD SSTORE PUSH1 0x9 DUP1 SLOAD PUSH1 0x1 DUP2 ADD DUP3 SSTORE PUSH1 0x0 SWAP2 SWAP1 SWAP2 MSTORE DUP2 MLOAD DUP1 DUP4 ADD SWAP1 SWAP3 MSTORE PUSH1 0x5 DUP1 DUP4 MSTORE PUSH5 0x566F646B61 PUSH1 0xD8 SHL PUSH1 0x20 SWAP1 SWAP4 ADD SWAP3 DUP4 MSTORE PUSH3 0x72B SWAP3 PUSH1 0x0 DUP1 MLOAD PUSH1 0x20 PUSH3 0x3B64 DUP4 CODECOPY DUP2 MLOAD SWAP2 MSTORE SWAP1 SWAP3 ADD SWAP2 SWAP1 PUSH3 0x8AD JUMP JUMPDEST POP PUSH1 0xD DUP1 SLOAD SWAP1 PUSH1 0x0 PUSH3 0x73E DUP4 PUSH3 0xA52 JUMP JUMPDEST SWAP1 SWAP2 SSTORE POP POP PUSH1 0x40 DUP1 MLOAD PUSH1 0x80 DUP2 ADD DUP3 MSTORE PUSH20 0x49C364FEDAD517382EE5A776D3071F11CFDE4C5C DUP2 MSTORE DUP2 MLOAD DUP1 DUP4 ADD DUP4 MSTORE PUSH1 0x3 DUP2 MSTORE PUSH3 0x185CD9 PUSH1 0xEA SHL PUSH1 0x20 DUP1 DUP4 ADD SWAP2 SWAP1 SWAP2 MSTORE DUP3 ADD MSTORE PUSH9 0x56BC75E2D63100000 DUP2 DUP4 ADD MSTORE PUSH1 0xD SLOAD PUSH1 0x60 DUP3 ADD MSTORE SWAP1 MLOAD PUSH7 0x42616E6E616E61 PUSH1 0xC8 SHL DUP2 MSTORE PUSH1 0x8 SWAP1 PUSH1 0x7 ADD SWAP1 DUP2 MSTORE PUSH1 0x40 MLOAD PUSH1 0x20 SWAP2 DUP2 SWAP1 SUB DUP3 ADD SWAP1 KECCAK256 DUP3 MLOAD DUP2 SLOAD PUSH1 0x1 PUSH1 0x1 PUSH1 0xA0 SHL SUB NOT AND PUSH1 0x1 PUSH1 0x1 PUSH1 0xA0 SHL SUB SWAP1 SWAP2 AND OR DUP2 SSTORE DUP3 DUP3 ADD MLOAD DUP1 MLOAD SWAP2 SWAP3 PUSH3 0x7F5 SWAP3 PUSH1 0x1 DUP6 ADD SWAP3 SWAP1 SWAP2 ADD SWAP1 PUSH3 0x8AD JUMP JUMPDEST POP PUSH1 0x40 DUP3 DUP2 ADD MLOAD PUSH1 0x2 DUP4 ADD SSTORE PUSH1 0x60 SWAP1 SWAP3 ADD MLOAD PUSH1 0x3 SWAP1 SWAP2 ADD SSTORE PUSH1 0x9 DUP1 SLOAD PUSH1 0x1 DUP2 ADD DUP3 SSTORE PUSH1 0x0 SWAP2 SWAP1 SWAP2 MSTORE DUP2 MLOAD DUP1 DUP4 ADD SWAP1 SWAP3 MSTORE PUSH1 0x7 DUP1 DUP4 MSTORE PUSH7 0x42616E6E616E61 PUSH1 0xC8 SHL PUSH1 0x20 SWAP1 SWAP4 ADD SWAP3 DUP4 MSTORE PUSH3 0x85D SWAP3 PUSH1 0x0 DUP1 MLOAD PUSH1 0x20 PUSH3 0x3B64 DUP4 CODECOPY DUP2 MLOAD SWAP2 MSTORE SWAP1 SWAP3 ADD SWAP2 SWAP1 PUSH3 0x8AD JUMP JUMPDEST POP PUSH1 0xD DUP1 SLOAD SWAP1 PUSH1 0x0 PUSH3 0x870 DUP4 PUSH3 0xA52 JUMP JUMPDEST SWAP2 SWAP1 POP SSTORE POP PUSH3 0xA7C JUMP JUMPDEST PUSH1 0x0 DUP2 PUSH1 0x40 MLOAD PUSH1 0x20 ADD PUSH3 0x890 SWAP2 SWAP1 PUSH3 0x9D7 JUMP JUMPDEST PUSH1 0x40 MLOAD PUSH1 0x20 DUP2 DUP4 SUB SUB DUP2 MSTORE SWAP1 PUSH1 0x40 MSTORE DUP1 MLOAD SWAP1 PUSH1 0x20 ADD KECCAK256 SWAP1 POP SWAP2 SWAP1 POP JUMP JUMPDEST DUP3 DUP1 SLOAD PUSH3 0x8BB SWAP1 PUSH3 0xA15 JUMP JUMPDEST SWAP1 PUSH1 0x0 MSTORE PUSH1 0x20 PUSH1 0x0 KECCAK256 SWAP1 PUSH1 0x1F ADD PUSH1 0x20 SWAP1 DIV DUP2 ADD SWAP3 DUP3 PUSH3 0x8DF JUMPI PUSH1 0x0 DUP6 SSTORE PUSH3 0x92A JUMP JUMPDEST DUP3 PUSH1 0x1F LT PUSH3 0x8FA JUMPI DUP1 MLOAD PUSH1 0xFF NOT AND DUP4 DUP1 ADD OR DUP6 SSTORE PUSH3 0x92A JUMP JUMPDEST DUP3 DUP1 ADD PUSH1 0x1 ADD DUP6 SSTORE DUP3 ISZERO PUSH3 0x92A JUMPI SWAP2 DUP3 ADD JUMPDEST DUP3 DUP2 GT ISZERO PUSH3 0x92A JUMPI DUP3 MLOAD DUP3 SSTORE SWAP2 PUSH1 0x20 ADD SWAP2 SWAP1 PUSH1 0x1 ADD SWAP1 PUSH3 0x90D JUMP JUMPDEST POP PUSH3 0x938 SWAP3 SWAP2 POP PUSH3 0x9C0 JUMP JUMPDEST POP SWAP1 JUMP JUMPDEST DUP3 DUP1 SLOAD PUSH3 0x94A SWAP1 PUSH3 0xA15 JUMP JUMPDEST SWAP1 PUSH1 0x0 MSTORE PUSH1 0x20 PUSH1 0x0 KECCAK256 SWAP1 PUSH1 0x1F ADD PUSH1 0x20 SWAP1 DIV DUP2 ADD SWAP3 DUP3 PUSH3 0x96E JUMPI PUSH1 0x0 DUP6 SSTORE PUSH3 0x92A JUMP JUMPDEST DUP3 PUSH1 0x1F LT PUSH3 0x981 JUMPI DUP1 SLOAD DUP6 SSTORE PUSH3 0x92A JUMP JUMPDEST DUP3 DUP1 ADD PUSH1 0x1 ADD DUP6 SSTORE DUP3 ISZERO PUSH3 0x92A JUMPI PUSH1 0x0 MSTORE PUSH1 0x20 PUSH1 0x0 KECCAK256 SWAP2 PUSH1 0x1F ADD PUSH1 0x20 SWAP1 DIV DUP3 ADD JUMPDEST DUP3 DUP2 GT ISZERO PUSH3 0x92A JUMPI DUP3 SLOAD DUP3 SSTORE SWAP2 PUSH1 0x1 ADD SWAP2 SWAP1 PUSH1 0x1 ADD SWAP1 PUSH3 0x9A3 JUMP JUMPDEST JUMPDEST DUP1 DUP3 GT ISZERO PUSH3 0x938 JUMPI PUSH1 0x0 DUP2 SSTORE PUSH1 0x1 ADD PUSH3 0x9C1 JUMP JUMPDEST PUSH1 0x0 DUP3 MLOAD PUSH1 0x0 JUMPDEST DUP2 DUP2 LT ISZERO PUSH3 0x9FA JUMPI PUSH1 0x20 DUP2 DUP7 ADD DUP2 ADD MLOAD DUP6 DUP4 ADD MSTORE ADD PUSH3 0x9DE JUMP JUMPDEST DUP2 DUP2 GT ISZERO PUSH3 0xA0A JUMPI PUSH1 0x0 DUP3 DUP6 ADD MSTORE JUMPDEST POP SWAP2 SWAP1 SWAP2 ADD SWAP3 SWAP2 POP POP JUMP JUMPDEST PUSH1 0x1 DUP2 DUP2 SHR SWAP1 DUP3 AND DUP1 PUSH3 0xA2A JUMPI PUSH1 0x7F DUP3 AND SWAP2 POP JUMPDEST PUSH1 0x20 DUP3 LT DUP2 EQ ISZERO PUSH3 0xA4C JUMPI PUSH4 0x4E487B71 PUSH1 0xE0 SHL PUSH1 0x0 MSTORE PUSH1 0x22 PUSH1 0x4 MSTORE PUSH1 0x24 PUSH1 0x0 REVERT JUMPDEST POP SWAP2 SWAP1 POP JUMP JUMPDEST PUSH1 0x0 PUSH1 0x0 NOT DUP3 EQ ISZERO PUSH3 0xA75 JUMPI PUSH4 0x4E487B71 PUSH1 0xE0 SHL PUSH1 0x0 MSTORE PUSH1 0x11 PUSH1 0x4 MSTORE PUSH1 0x24 PUSH1 0x0 REVERT JUMPDEST POP PUSH1 0x1 ADD SWAP1 JUMP JUMPDEST PUSH2 0x3098 DUP1 PUSH3 0xA8C PUSH1 0x0 CODECOPY PUSH1 0x0 RETURN INVALID PUSH1 0x80 PUSH1 0x40 MSTORE PUSH1 0x4 CALLDATASIZE LT PUSH2 0x194 JUMPI PUSH1 0x0 CALLDATALOAD PUSH1 0xE0 SHR DUP1 PUSH4 0x33FF0B8 EQ PUSH2 0x199 JUMPI DUP1 PUSH4 0x4AC16F6 EQ PUSH2 0x1CC JUMPI DUP1 PUSH4 0xC72B1EC EQ PUSH2 0x1EE JUMPI DUP1 PUSH4 0xE1C81B2 EQ PUSH2 0x201 JUMPI DUP1 PUSH4 0x146DC6ED EQ PUSH2 0x221 JUMPI DUP1 PUSH4 0x1BBE970A EQ PUSH2 0x234 JUMPI DUP1 PUSH4 0x1E279A37 EQ PUSH2 0x28D JUMPI DUP1 PUSH4 0x1F8DAAC8 EQ PUSH2 0x2B5 JUMPI DUP1 PUSH4 0x29E795F3 EQ PUSH2 0x2D7 JUMPI DUP1 PUSH4 0x2CCDEF7C EQ PUSH2 0x2F7 JUMPI DUP1 PUSH4 0x3B84AEDC EQ PUSH2 0x30A JUMPI DUP1 PUSH4 0x521B9170 EQ PUSH2 0x33A JUMPI DUP1 PUSH4 0x55149FD5 EQ PUSH2 0x35A JUMPI DUP1 PUSH4 0x5828C584 EQ PUSH2 0x387 JUMPI DUP1 PUSH4 0x5BBC9A3F EQ PUSH2 0x3A7 JUMPI DUP1 PUSH4 0x5BD37C9E EQ PUSH2 0x3C7 JUMPI DUP1 PUSH4 0x5BDB63FA EQ PUSH2 0x3DC JUMPI DUP1 PUSH4 0x6BA44D3C EQ PUSH2 0x3FC JUMPI DUP1 PUSH4 0x6C05DD1D EQ PUSH2 0x41C JUMPI DUP1 PUSH4 0x7033A382 EQ PUSH2 0x43C JUMPI DUP1 PUSH4 0x73B62BD0 EQ PUSH2 0x44F JUMPI DUP1 PUSH4 0x775EB9E6 EQ PUSH2 0x47E JUMPI DUP1 PUSH4 0x845952A8 EQ PUSH2 0x49E JUMPI DUP1 PUSH4 0x87048043 EQ PUSH2 0x4BE JUMPI DUP1 PUSH4 0x8E23CB40 EQ PUSH2 0x4D1 JUMPI DUP1 PUSH4 0x961865F0 EQ PUSH2 0x504 JUMPI DUP1 PUSH4 0xA985036D EQ PUSH2 0x534 JUMPI DUP1 PUSH4 0xA9F9482B EQ PUSH2 0x554 JUMPI DUP1 PUSH4 0xBBD43363 EQ PUSH2 0x574 JUMPI DUP1 PUSH4 0xC4957FA0 EQ PUSH2 0x594 JUMPI DUP1 PUSH4 0xCC21C188 EQ PUSH2 0x5D5 JUMPI DUP1 PUSH4 0xD22D9020 EQ PUSH2 0x5F5 JUMPI DUP1 PUSH4 0xD68CF8C1 EQ PUSH2 0x615 JUMPI DUP1 PUSH4 0xDCE39151 EQ PUSH2 0x645 JUMPI DUP1 PUSH4 0xDE3AB424 EQ PUSH2 0x675 JUMPI JUMPDEST PUSH1 0x0 DUP1 REVERT JUMPDEST CALLVALUE DUP1 ISZERO PUSH2 0x1A5 JUMPI PUSH1 0x0 DUP1 REVERT JUMPDEST POP PUSH2 0x1B9 PUSH2 0x1B4 CALLDATASIZE PUSH1 0x4 PUSH2 0x2920 JUMP JUMPDEST PUSH2 0x695 JUMP JUMPDEST PUSH1 0x40 MLOAD SWAP1 DUP2 MSTORE PUSH1 0x20 ADD JUMPDEST PUSH1 0x40 MLOAD DUP1 SWAP2 SUB SWAP1 RETURN JUMPDEST CALLVALUE DUP1 ISZERO PUSH2 0x1D8 JUMPI PUSH1 0x0 DUP1 REVERT JUMPDEST POP PUSH2 0x1EC PUSH2 0x1E7 CALLDATASIZE PUSH1 0x4 PUSH2 0x2920 JUMP JUMPDEST PUSH2 0x6DC JUMP JUMPDEST STOP JUMPDEST PUSH2 0x1EC PUSH2 0x1FC CALLDATASIZE PUSH1 0x4 PUSH2 0x2B61 JUMP JUMPDEST PUSH2 0x72E JUMP JUMPDEST CALLVALUE DUP1 ISZERO PUSH2 0x20D JUMPI PUSH1 0x0 DUP1 REVERT JUMPDEST POP PUSH2 0x1EC PUSH2 0x21C CALLDATASIZE PUSH1 0x4 PUSH2 0x28CA JUMP JUMPDEST PUSH2 0x899 JUMP JUMPDEST PUSH2 0x1EC PUSH2 0x22F CALLDATASIZE PUSH1 0x4 PUSH2 0x2920 JUMP JUMPDEST PUSH2 0xA15 JUMP JUMPDEST CALLVALUE DUP1 ISZERO PUSH2 0x240 JUMPI PUSH1 0x0 DUP1 REVERT JUMPDEST POP PUSH2 0x275 PUSH2 0x24F CALLDATASIZE PUSH1 0x4 PUSH2 0x2920 JUMP JUMPDEST DUP1 MLOAD PUSH1 0x20 DUP2 DUP4 ADD DUP2 ADD DUP1 MLOAD PUSH1 0x5 DUP3 MSTORE SWAP3 DUP3 ADD SWAP2 SWAP1 SWAP4 ADD KECCAK256 SWAP2 MSTORE SLOAD PUSH1 0x1 PUSH1 0x1 PUSH1 0xA0 SHL SUB AND DUP2 JUMP JUMPDEST PUSH1 0x40 MLOAD PUSH1 0x1 PUSH1 0x1 PUSH1 0xA0 SHL SUB SWAP1 SWAP2 AND DUP2 MSTORE PUSH1 0x20 ADD PUSH2 0x1C3 JUMP JUMPDEST CALLVALUE DUP1 ISZERO PUSH2 0x299 JUMPI PUSH1 0x0 DUP1 REVERT JUMPDEST POP PUSH2 0x1B9 PUSH2 0x2A8 CALLDATASIZE PUSH1 0x4 PUSH2 0x28A8 JUMP JUMPDEST PUSH1 0x1 PUSH1 0x1 PUSH1 0xA0 SHL SUB AND BALANCE SWAP1 JUMP JUMPDEST CALLVALUE DUP1 ISZERO PUSH2 0x2C1 JUMPI PUSH1 0x0 DUP1 REVERT JUMPDEST POP PUSH2 0x2CA PUSH2 0xB54 JUMP JUMPDEST PUSH1 0x40 MLOAD PUSH2 0x1C3 SWAP2 SWAP1 PUSH2 0x2D3B JUMP JUMPDEST CALLVALUE DUP1 ISZERO PUSH2 0x2E3 JUMPI PUSH1 0x0 DUP1 REVERT JUMPDEST POP PUSH2 0x1EC PUSH2 0x2F2 CALLDATASIZE PUSH1 0x4 PUSH2 0x2954 JUMP JUMPDEST PUSH2 0xC2D JUMP JUMPDEST PUSH2 0x1EC PUSH2 0x305 CALLDATASIZE PUSH1 0x4 PUSH2 0x2B61 JUMP JUMPDEST PUSH2 0xD91 JUMP JUMPDEST CALLVALUE DUP1 ISZERO PUSH2 0x316 JUMPI PUSH1 0x0 DUP1 REVERT JUMPDEST POP PUSH2 0x32A PUSH2 0x325 CALLDATASIZE PUSH1 0x4 PUSH2 0x2920 JUMP JUMPDEST PUSH2 0xEB7 JUMP JUMPDEST PUSH1 0x40 MLOAD SWAP1 ISZERO ISZERO DUP2 MSTORE PUSH1 0x20 ADD PUSH2 0x1C3 JUMP JUMPDEST CALLVALUE DUP1 ISZERO PUSH2 0x346 JUMPI PUSH1 0x0 DUP1 REVERT JUMPDEST POP PUSH2 0x1EC PUSH2 0x355 CALLDATASIZE PUSH1 0x4 PUSH2 0x2920 JUMP JUMPDEST PUSH2 0xF01 JUMP JUMPDEST CALLVALUE DUP1 ISZERO PUSH2 0x366 JUMPI PUSH1 0x0 DUP1 REVERT JUMPDEST POP PUSH2 0x37A PUSH2 0x375 CALLDATASIZE PUSH1 0x4 PUSH2 0x2920 JUMP JUMPDEST PUSH2 0xF17 JUMP JUMPDEST PUSH1 0x40 MLOAD PUSH2 0x1C3 SWAP2 SWAP1 PUSH2 0x2D9D JUMP JUMPDEST CALLVALUE DUP1 ISZERO PUSH2 0x393 JUMPI PUSH1 0x0 DUP1 REVERT JUMPDEST POP PUSH2 0x1EC PUSH2 0x3A2 CALLDATASIZE PUSH1 0x4 PUSH2 0x2920 JUMP JUMPDEST PUSH2 0xFE7 JUMP JUMPDEST CALLVALUE DUP1 ISZERO PUSH2 0x3B3 JUMPI PUSH1 0x0 DUP1 REVERT JUMPDEST POP PUSH2 0x32A PUSH2 0x3C2 CALLDATASIZE PUSH1 0x4 PUSH2 0x2920 JUMP JUMPDEST PUSH2 0x1226 JUMP JUMPDEST CALLVALUE DUP1 ISZERO PUSH2 0x3D3 JUMPI PUSH1 0x0 DUP1 REVERT JUMPDEST POP PUSH2 0x2CA PUSH2 0x123C JUMP JUMPDEST CALLVALUE DUP1 ISZERO PUSH2 0x3E8 JUMPI PUSH1 0x0 DUP1 REVERT JUMPDEST POP PUSH2 0x1B9 PUSH2 0x3F7 CALLDATASIZE PUSH1 0x4 PUSH2 0x2920 JUMP JUMPDEST PUSH2 0x130C JUMP JUMPDEST CALLVALUE DUP1 ISZERO PUSH2 0x408 JUMPI PUSH1 0x0 DUP1 REVERT JUMPDEST POP PUSH2 0x275 PUSH2 0x417 CALLDATASIZE PUSH1 0x4 PUSH2 0x2920 JUMP JUMPDEST PUSH2 0x1322 JUMP JUMPDEST CALLVALUE DUP1 ISZERO PUSH2 0x428 JUMPI PUSH1 0x0 DUP1 REVERT JUMPDEST POP PUSH2 0x1EC PUSH2 0x437 CALLDATASIZE PUSH1 0x4 PUSH2 0x2ADC JUMP JUMPDEST PUSH2 0x13C0 JUMP JUMPDEST PUSH2 0x1EC PUSH2 0x44A CALLDATASIZE PUSH1 0x4 PUSH2 0x2B48 JUMP JUMPDEST PUSH2 0x14BF JUMP JUMPDEST CALLVALUE DUP1 ISZERO PUSH2 0x45B JUMPI PUSH1 0x0 DUP1 REVERT JUMPDEST POP PUSH2 0x46F PUSH2 0x46A CALLDATASIZE PUSH1 0x4 PUSH2 0x2B48 JUMP JUMPDEST PUSH2 0x15CE JUMP JUMPDEST PUSH1 0x40 MLOAD PUSH2 0x1C3 SWAP4 SWAP3 SWAP2 SWAP1 PUSH2 0x2C92 JUMP JUMPDEST CALLVALUE DUP1 ISZERO PUSH2 0x48A JUMPI PUSH1 0x0 DUP1 REVERT JUMPDEST POP PUSH2 0x1EC PUSH2 0x499 CALLDATASIZE PUSH1 0x4 PUSH2 0x2A3D JUMP JUMPDEST PUSH2 0x1699 JUMP JUMPDEST CALLVALUE DUP1 ISZERO PUSH2 0x4AA JUMPI PUSH1 0x0 DUP1 REVERT JUMPDEST POP PUSH2 0x1B9 PUSH2 0x4B9 CALLDATASIZE PUSH1 0x4 PUSH2 0x2920 JUMP JUMPDEST PUSH2 0x17FA JUMP JUMPDEST PUSH2 0x1EC PUSH2 0x4CC CALLDATASIZE PUSH1 0x4 PUSH2 0x2B61 JUMP JUMPDEST PUSH2 0x182A JUMP JUMPDEST CALLVALUE DUP1 ISZERO PUSH2 0x4DD JUMPI PUSH1 0x0 DUP1 REVERT JUMPDEST POP PUSH2 0x4F1 PUSH2 0x4EC CALLDATASIZE PUSH1 0x4 PUSH2 0x28A8 JUMP JUMPDEST PUSH2 0x192A JUMP JUMPDEST PUSH1 0x40 MLOAD PUSH2 0x1C3 SWAP8 SWAP7 SWAP6 SWAP5 SWAP4 SWAP3 SWAP2 SWAP1 PUSH2 0x2DE1 JUMP JUMPDEST CALLVALUE DUP1 ISZERO PUSH2 0x510 JUMPI PUSH1 0x0 DUP1 REVERT JUMPDEST POP PUSH2 0x524 PUSH2 0x51F CALLDATASIZE PUSH1 0x4 PUSH2 0x28A8 JUMP JUMPDEST PUSH2 0x1B05 JUMP JUMPDEST PUSH1 0x40 MLOAD PUSH2 0x1C3 SWAP5 SWAP4 SWAP3 SWAP2 SWAP1 PUSH2 0x2DB0 JUMP JUMPDEST CALLVALUE DUP1 ISZERO PUSH2 0x540 JUMPI PUSH1 0x0 DUP1 REVERT JUMPDEST POP PUSH2 0x1B9 PUSH2 0x54F CALLDATASIZE PUSH1 0x4 PUSH2 0x2920 JUMP JUMPDEST PUSH2 0x1BBA JUMP JUMPDEST CALLVALUE DUP1 ISZERO PUSH2 0x560 JUMPI PUSH1 0x0 DUP1 REVERT JUMPDEST POP PUSH2 0x46F PUSH2 0x56F CALLDATASIZE PUSH1 0x4 PUSH2 0x2B48 JUMP JUMPDEST PUSH2 0x1DC2 JUMP JUMPDEST CALLVALUE DUP1 ISZERO PUSH2 0x580 JUMPI PUSH1 0x0 DUP1 REVERT JUMPDEST POP PUSH2 0x1EC PUSH2 0x58F CALLDATASIZE PUSH1 0x4 PUSH2 0x2920 JUMP JUMPDEST PUSH2 0x1DD2 JUMP JUMPDEST CALLVALUE DUP1 ISZERO PUSH2 0x5A0 JUMPI PUSH1 0x0 DUP1 REVERT JUMPDEST POP PUSH2 0x275 PUSH2 0x5AF CALLDATASIZE PUSH1 0x4 PUSH2 0x2920 JUMP JUMPDEST DUP1 MLOAD PUSH1 0x20 DUP2 DUP4 ADD DUP2 ADD DUP1 MLOAD PUSH1 0x1 DUP3 MSTORE SWAP3 DUP3 ADD SWAP2 SWAP1 SWAP4 ADD KECCAK256 SWAP2 MSTORE SLOAD PUSH1 0x1 PUSH1 0x1 PUSH1 0xA0 SHL SUB AND DUP2 JUMP JUMPDEST CALLVALUE DUP1 ISZERO PUSH2 0x5E1 JUMPI PUSH1 0x0 DUP1 REVERT JUMPDEST POP PUSH2 0x1EC PUSH2 0x5F0 CALLDATASIZE PUSH1 0x4 PUSH2 0x2A81 JUMP JUMPDEST PUSH2 0x1FBE JUMP JUMPDEST CALLVALUE DUP1 ISZERO PUSH2 0x601 JUMPI PUSH1 0x0 DUP1 REVERT JUMPDEST POP PUSH2 0x1EC PUSH2 0x610 CALLDATASIZE PUSH1 0x4 PUSH2 0x2A3D JUMP JUMPDEST PUSH2 0x2292 JUMP JUMPDEST CALLVALUE DUP1 ISZERO PUSH2 0x621 JUMPI PUSH1 0x0 DUP1 REVERT JUMPDEST POP PUSH2 0x635 PUSH2 0x630 CALLDATASIZE PUSH1 0x4 PUSH2 0x2920 JUMP JUMPDEST PUSH2 0x23B8 JUMP JUMPDEST PUSH1 0x40 MLOAD PUSH2 0x1C3 SWAP5 SWAP4 SWAP3 SWAP2 SWAP1 PUSH2 0x2D04 JUMP JUMPDEST CALLVALUE DUP1 ISZERO PUSH2 0x651 JUMPI PUSH1 0x0 DUP1 REVERT JUMPDEST POP PUSH2 0x665 PUSH2 0x660 CALLDATASIZE PUSH1 0x4 PUSH2 0x2B48 JUMP JUMPDEST PUSH2 0x247E JUMP JUMPDEST PUSH1 0x40 MLOAD PUSH2 0x1C3 SWAP5 SWAP4 SWAP3 SWAP2 SWAP1 PUSH2 0x2CC8 JUMP JUMPDEST CALLVALUE DUP1 ISZERO PUSH2 0x681 JUMPI PUSH1 0x0 DUP1 REVERT JUMPDEST POP PUSH2 0x2CA PUSH2 0x690 CALLDATASIZE PUSH1 0x4 PUSH2 0x2920 JUMP JUMPDEST PUSH2 0x2550 JUMP JUMPDEST PUSH1 0x0 DUP1 PUSH1 0x0 PUSH1 0x1 DUP5 PUSH1 0x40 MLOAD PUSH2 0x6AA SWAP2 SWAP1 PUSH2 0x2BDA JUMP JUMPDEST SWAP1 DUP2 MSTORE PUSH1 0x40 DUP1 MLOAD PUSH1 0x20 SWAP3 DUP2 SWAP1 SUB DUP4 ADD SWAP1 KECCAK256 SLOAD PUSH1 0x1 PUSH1 0x1 PUSH1 0xA0 SHL SUB AND DUP4 MSTORE SWAP1 DUP3 ADD SWAP3 SWAP1 SWAP3 MSTORE ADD PUSH1 0x0 KECCAK256 PUSH1 0x2 ADD SLOAD SWAP3 SWAP2 POP POP JUMP JUMPDEST PUSH1 0x0 DUP1 PUSH1 0x0 PUSH1 0x1 DUP5 PUSH1 0x40 MLOAD PUSH2 0x6F1 SWAP2 SWAP1 PUSH2 0x2BDA JUMP JUMPDEST SWAP1 DUP2 MSTORE PUSH1 0x40 DUP1 MLOAD PUSH1 0x20 SWAP3 DUP2 SWAP1 SUB DUP4 ADD SWAP1 KECCAK256 SLOAD PUSH1 0x1 PUSH1 0x1 PUSH1 0xA0 SHL SUB AND DUP4 MSTORE SWAP1 DUP3 ADD SWAP3 SWAP1 SWAP3 MSTORE ADD PUSH1 0x0 KECCAK256 PUSH1 0x3 ADD DUP1 SLOAD PUSH1 0xFF NOT AND SWAP2 ISZERO ISZERO SWAP2 SWAP1 SWAP2 OR SWAP1 SSTORE POP JUMP JUMPDEST PUSH1 0x8 PUSH1 0xA DUP4 DUP2 SLOAD DUP2 LT PUSH2 0x743 JUMPI PUSH2 0x743 PUSH2 0x3036 JUMP JUMPDEST SWAP1 PUSH1 0x0 MSTORE PUSH1 0x20 PUSH1 0x0 KECCAK256 SWAP1 PUSH1 0x4 MUL ADD PUSH1 0x1 ADD PUSH1 0x40 MLOAD PUSH2 0x761 SWAP2 SWAP1 PUSH2 0x2BF6 JUMP JUMPDEST SWAP1 DUP2 MSTORE PUSH1 0x40 MLOAD SWAP1 DUP2 SWAP1 SUB PUSH1 0x20 ADD SWAP1 KECCAK256 SLOAD CALLER PUSH1 0x1 PUSH1 0x1 PUSH1 0xA0 SHL SUB SWAP1 SWAP2 AND EQ PUSH2 0x7A3 JUMPI PUSH1 0x40 MLOAD PUSH3 0x461BCD PUSH1 0xE5 SHL DUP2 MSTORE PUSH1 0x4 ADD PUSH2 0x79A SWAP1 PUSH2 0x2EA7 JUMP JUMPDEST PUSH1 0x40 MLOAD DUP1 SWAP2 SUB SWAP1 REVERT JUMPDEST PUSH1 0x1 DUP2 ISZERO ISZERO EQ ISZERO PUSH2 0x847 JUMPI CALLER PUSH1 0x1 PUSH1 0x1 PUSH1 0xA0 SHL SUB AND PUSH2 0x8FC PUSH1 0xA DUP5 DUP2 SLOAD DUP2 LT PUSH2 0x7CE JUMPI PUSH2 0x7CE PUSH2 0x3036 JUMP JUMPDEST SWAP1 PUSH1 0x0 MSTORE PUSH1 0x20 PUSH1 0x0 KECCAK256 SWAP1 PUSH1 0x4 MUL ADD PUSH1 0x2 ADD SLOAD SWAP1 DUP2 ISZERO MUL SWAP1 PUSH1 0x40 MLOAD PUSH1 0x0 PUSH1 0x40 MLOAD DUP1 DUP4 SUB DUP2 DUP6 DUP9 DUP9 CALL SWAP4 POP POP POP POP ISZERO DUP1 ISZERO PUSH2 0x80B JUMPI RETURNDATASIZE PUSH1 0x0 DUP1 RETURNDATACOPY RETURNDATASIZE PUSH1 0x0 REVERT JUMPDEST POP PUSH1 0x0 PUSH1 0xA DUP4 DUP2 SLOAD DUP2 LT PUSH2 0x821 JUMPI PUSH2 0x821 PUSH2 0x3036 JUMP JUMPDEST PUSH1 0x0 SWAP2 DUP3 MSTORE PUSH1 0x20 SWAP1 SWAP2 KECCAK256 PUSH1 0x4 SWAP1 SWAP2 MUL ADD PUSH1 0x3 ADD DUP1 SLOAD PUSH1 0xFF NOT AND SWAP2 ISZERO ISZERO SWAP2 SWAP1 SWAP2 OR SWAP1 SSTORE POP POP JUMP JUMPDEST DUP1 PUSH2 0x895 JUMPI PUSH1 0xA DUP3 DUP2 SLOAD DUP2 LT PUSH2 0x85F JUMPI PUSH2 0x85F PUSH2 0x3036 JUMP JUMPDEST PUSH1 0x0 SWAP2 DUP3 MSTORE PUSH1 0x20 SWAP1 SWAP2 KECCAK256 PUSH1 0x4 SWAP1 SWAP2 MUL ADD SLOAD PUSH1 0xA DUP1 SLOAD PUSH1 0x1 PUSH1 0x1 PUSH1 0xA0 SHL SUB SWAP1 SWAP3 AND SWAP2 PUSH2 0x8FC SWAP2 SWAP1 DUP6 SWAP1 DUP2 LT PUSH2 0x7CE JUMPI PUSH2 0x7CE PUSH2 0x3036 JUMP JUMPDEST POP POP JUMP JUMPDEST PUSH1 0x0 PUSH1 0x1 PUSH1 0x1 PUSH1 0xA0 SHL SUB AND PUSH1 0x5 DUP4 PUSH1 0x40 MLOAD PUSH2 0x8B4 SWAP2 SWAP1 PUSH2 0x2BDA JUMP JUMPDEST SWAP1 DUP2 MSTORE PUSH1 0x40 MLOAD SWAP1 DUP2 SWAP1 SUB PUSH1 0x20 ADD SWAP1 KECCAK256 SLOAD PUSH1 0x1 PUSH1 0x1 PUSH1 0xA0 SHL SUB AND EQ PUSH2 0x916 JUMPI PUSH1 0x40 MLOAD PUSH3 0x461BCD PUSH1 0xE5 SHL DUP2 MSTORE PUSH1 0x20 PUSH1 0x4 DUP3 ADD MSTORE PUSH1 0x19 PUSH1 0x24 DUP3 ADD MSTORE PUSH25 0x115C9C9BDC8E88155CD95C88185B1C9958591E48195E1A5CDD PUSH1 0x3A SHL PUSH1 0x44 DUP3 ADD MSTORE PUSH1 0x64 ADD PUSH2 0x79A JUMP JUMPDEST PUSH1 0x40 DUP1 MLOAD PUSH1 0x80 DUP2 ADD DUP3 MSTORE DUP4 DUP2 MSTORE PUSH1 0x20 DUP1 DUP3 ADD DUP5 SWAP1 MSTORE PUSH1 0x2 DUP3 DUP5 ADD MSTORE PUSH1 0x0 PUSH1 0x60 DUP4 ADD DUP2 SWAP1 MSTORE PUSH1 0x1 PUSH1 0x1 PUSH1 0xA0 SHL SUB DUP8 AND DUP2 MSTORE PUSH1 0x4 DUP3 MSTORE SWAP3 SWAP1 SWAP3 KECCAK256 DUP2 MLOAD DUP1 MLOAD SWAP3 SWAP4 SWAP2 SWAP3 PUSH2 0x963 SWAP3 DUP5 SWAP3 ADD SWAP1 PUSH2 0x26D1 JUMP JUMPDEST POP PUSH1 0x20 DUP3 ADD MLOAD PUSH1 0x1 DUP3 ADD SSTORE PUSH1 0x40 DUP1 DUP4 ADD MLOAD PUSH1 0x2 DUP4 ADD SSTORE PUSH1 0x60 SWAP1 SWAP3 ADD MLOAD PUSH1 0x3 SWAP1 SWAP2 ADD DUP1 SLOAD PUSH1 0xFF NOT AND SWAP2 ISZERO ISZERO SWAP2 SWAP1 SWAP2 OR SWAP1 SSTORE MLOAD DUP4 SWAP1 PUSH1 0x5 SWAP1 PUSH2 0x9A4 SWAP1 DUP6 SWAP1 PUSH2 0x2BDA JUMP JUMPDEST SWAP1 DUP2 MSTORE PUSH1 0x40 MLOAD SWAP1 DUP2 SWAP1 SUB PUSH1 0x20 ADD SWAP1 KECCAK256 DUP1 SLOAD PUSH1 0x1 PUSH1 0x1 PUSH1 0xA0 SHL SUB SWAP3 DUP4 AND PUSH1 0x1 PUSH1 0x1 PUSH1 0xA0 SHL SUB NOT SWAP2 DUP3 AND OR SWAP1 SWAP2 SSTORE PUSH1 0x7 DUP1 SLOAD PUSH1 0x1 DUP2 ADD DUP3 SSTORE PUSH1 0x0 SWAP2 SWAP1 SWAP2 MSTORE PUSH32 0xA66CC928B5EDB82AF9BD49922954155AB7B0942694BEA4CE44661D9A8736C688 ADD DUP1 SLOAD SWAP6 SWAP1 SWAP3 AND SWAP5 AND SWAP4 SWAP1 SWAP4 OR SWAP1 SWAP3 SSTORE POP POP JUMP JUMPDEST PUSH1 0x8 DUP2 PUSH1 0x40 MLOAD PUSH2 0xA25 SWAP2 SWAP1 PUSH2 0x2BDA JUMP JUMPDEST SWAP1 DUP2 MSTORE PUSH1 0x20 ADD PUSH1 0x40 MLOAD DUP1 SWAP2 SUB SWAP1 KECCAK256 PUSH1 0x2 ADD SLOAD CALLVALUE EQ PUSH2 0xA78 JUMPI PUSH1 0x40 MLOAD PUSH3 0x461BCD PUSH1 0xE5 SHL DUP2 MSTORE PUSH1 0x20 PUSH1 0x4 DUP3 ADD MSTORE PUSH1 0x10 PUSH1 0x24 DUP3 ADD MSTORE PUSH16 0x6572726F723A206E6F74206D6F6E6579 PUSH1 0x80 SHL PUSH1 0x44 DUP3 ADD MSTORE PUSH1 0x64 ADD PUSH2 0x79A JUMP JUMPDEST PUSH1 0x40 DUP1 MLOAD PUSH1 0x80 DUP2 ADD DUP3 MSTORE CALLER DUP2 MSTORE PUSH1 0x20 DUP1 DUP3 ADD DUP5 DUP2 MSTORE CALLVALUE SWAP4 DUP4 ADD SWAP4 SWAP1 SWAP4 MSTORE PUSH1 0x1 PUSH1 0x60 DUP4 ADD DUP2 SWAP1 MSTORE PUSH1 0xA DUP1 SLOAD SWAP2 DUP3 ADD DUP2 SSTORE PUSH1 0x0 MSTORE DUP3 MLOAD PUSH32 0xC65A7BB8D6351C1CF70C95A316CC6A92839C986682D98BC35F958F4883F9D2A8 PUSH1 0x4 SWAP1 SWAP3 MUL SWAP2 DUP3 ADD DUP1 SLOAD PUSH1 0x1 PUSH1 0x1 PUSH1 0xA0 SHL SUB NOT AND PUSH1 0x1 PUSH1 0x1 PUSH1 0xA0 SHL SUB SWAP1 SWAP3 AND SWAP2 SWAP1 SWAP2 OR DUP2 SSTORE SWAP4 MLOAD DUP1 MLOAD SWAP4 SWAP5 SWAP4 PUSH2 0xB2C SWAP4 PUSH32 0xC65A7BB8D6351C1CF70C95A316CC6A92839C986682D98BC35F958F4883F9D2A9 SWAP1 SWAP4 ADD SWAP3 SWAP2 SWAP1 SWAP2 ADD SWAP1 PUSH2 0x26D1 JUMP JUMPDEST POP PUSH1 0x40 DUP3 ADD MLOAD PUSH1 0x2 DUP3 ADD SSTORE PUSH1 0x60 SWAP1 SWAP2 ADD MLOAD PUSH1 0x3 SWAP1 SWAP2 ADD DUP1 SLOAD PUSH1 0xFF NOT AND SWAP2 ISZERO ISZERO SWAP2 SWAP1 SWAP2 OR SWAP1 SSTORE POP JUMP JUMPDEST PUSH1 0x60 PUSH1 0x2 DUP1 SLOAD DUP1 PUSH1 0x20 MUL PUSH1 0x20 ADD PUSH1 0x40 MLOAD SWAP1 DUP2 ADD PUSH1 0x40 MSTORE DUP1 SWAP3 SWAP2 SWAP1 DUP2 DUP2 MSTORE PUSH1 0x20 ADD PUSH1 0x0 SWAP1 JUMPDEST DUP3 DUP3 LT ISZERO PUSH2 0xC24 JUMPI DUP4 DUP3 SWAP1 PUSH1 0x0 MSTORE PUSH1 0x20 PUSH1 0x0 KECCAK256 ADD DUP1 SLOAD PUSH2 0xB97 SWAP1 PUSH2 0x2FCA JUMP JUMPDEST DUP1 PUSH1 0x1F ADD PUSH1 0x20 DUP1 SWAP2 DIV MUL PUSH1 0x20 ADD PUSH1 0x40 MLOAD SWAP1 DUP2 ADD PUSH1 0x40 MSTORE DUP1 SWAP3 SWAP2 SWAP1 DUP2 DUP2 MSTORE PUSH1 0x20 ADD DUP3 DUP1 SLOAD PUSH2 0xBC3 SWAP1 PUSH2 0x2FCA JUMP JUMPDEST DUP1 ISZERO PUSH2 0xC10 JUMPI DUP1 PUSH1 0x1F LT PUSH2 0xBE5 JUMPI PUSH2 0x100 DUP1 DUP4 SLOAD DIV MUL DUP4 MSTORE SWAP2 PUSH1 0x20 ADD SWAP2 PUSH2 0xC10 JUMP JUMPDEST DUP3 ADD SWAP2 SWAP1 PUSH1 0x0 MSTORE PUSH1 0x20 PUSH1 0x0 KECCAK256 SWAP1 JUMPDEST DUP2 SLOAD DUP2 MSTORE SWAP1 PUSH1 0x1 ADD SWAP1 PUSH1 0x20 ADD DUP1 DUP4 GT PUSH2 0xBF3 JUMPI DUP3 SWAP1 SUB PUSH1 0x1F AND DUP3 ADD SWAP2 JUMPDEST POP POP POP POP POP DUP2 MSTORE PUSH1 0x20 ADD SWAP1 PUSH1 0x1 ADD SWAP1 PUSH2 0xB78 JUMP JUMPDEST POP POP POP POP SWAP1 POP SWAP1 JUMP JUMPDEST PUSH1 0x0 JUMPDEST PUSH1 0x3 SLOAD DUP2 LT ISZERO PUSH2 0xD8C JUMPI PUSH1 0x0 PUSH1 0x3 DUP3 DUP2 SLOAD DUP2 LT PUSH2 0xC4F JUMPI PUSH2 0xC4F PUSH2 0x3036 JUMP JUMPDEST SWAP1 PUSH1 0x0 MSTORE PUSH1 0x20 PUSH1 0x0 KECCAK256 SWAP1 PUSH1 0x5 MUL ADD PUSH1 0x1 ADD DUP1 SLOAD PUSH2 0xC6B SWAP1 PUSH2 0x2FCA JUMP JUMPDEST DUP1 PUSH1 0x1F ADD PUSH1 0x20 DUP1 SWAP2 DIV MUL PUSH1 0x20 ADD PUSH1 0x40 MLOAD SWAP1 DUP2 ADD PUSH1 0x40 MSTORE DUP1 SWAP3 SWAP2 SWAP1 DUP2 DUP2 MSTORE PUSH1 0x20 ADD DUP3 DUP1 SLOAD PUSH2 0xC97 SWAP1 PUSH2 0x2FCA JUMP JUMPDEST DUP1 ISZERO PUSH2 0xCE4 JUMPI DUP1 PUSH1 0x1F LT PUSH2 0xCB9 JUMPI PUSH2 0x100 DUP1 DUP4 SLOAD DIV MUL DUP4 MSTORE SWAP2 PUSH1 0x20 ADD SWAP2 PUSH2 0xCE4 JUMP JUMPDEST DUP3 ADD SWAP2 SWAP1 PUSH1 0x0 MSTORE PUSH1 0x20 PUSH1 0x0 KECCAK256 SWAP1 JUMPDEST DUP2 SLOAD DUP2 MSTORE SWAP1 PUSH1 0x1 ADD SWAP1 PUSH1 0x20 ADD DUP1 DUP4 GT PUSH2 0xCC7 JUMPI DUP3 SWAP1 SUB PUSH1 0x1F AND DUP3 ADD SWAP2 JUMPDEST POP POP POP POP POP SWAP1 POP DUP4 PUSH1 0x40 MLOAD PUSH1 0x20 ADD PUSH2 0xCFC SWAP2 SWAP1 PUSH2 0x2BDA JUMP JUMPDEST PUSH1 0x40 MLOAD PUSH1 0x20 DUP2 DUP4 SUB SUB DUP2 MSTORE SWAP1 PUSH1 0x40 MSTORE DUP1 MLOAD SWAP1 PUSH1 0x20 ADD KECCAK256 DUP2 PUSH1 0x40 MLOAD PUSH1 0x20 ADD PUSH2 0xD23 SWAP2 SWAP1 PUSH2 0x2BDA JUMP JUMPDEST PUSH1 0x40 MLOAD PUSH1 0x20 DUP2 DUP4 SUB SUB DUP2 MSTORE SWAP1 PUSH1 0x40 MSTORE DUP1 MLOAD SWAP1 PUSH1 0x20 ADD KECCAK256 EQ ISZERO PUSH2 0xD79 JUMPI DUP3 PUSH1 0x3 DUP4 DUP2 SLOAD DUP2 LT PUSH2 0xD53 JUMPI PUSH2 0xD53 PUSH2 0x3036 JUMP JUMPDEST SWAP1 PUSH1 0x0 MSTORE PUSH1 0x20 PUSH1 0x0 KECCAK256 SWAP1 PUSH1 0x5 MUL ADD PUSH1 0x4 ADD SWAP1 DUP1 MLOAD SWAP1 PUSH1 0x20 ADD SWAP1 PUSH2 0xD77 SWAP3 SWAP2 SWAP1 PUSH2 0x2755 JUMP JUMPDEST POP JUMPDEST POP DUP1 PUSH2 0xD84 DUP2 PUSH2 0x3005 JUMP JUMPDEST SWAP2 POP POP PUSH2 0xC30 JUMP JUMPDEST POP POP POP JUMP JUMPDEST PUSH1 0x8 PUSH1 0xB DUP4 DUP2 SLOAD DUP2 LT PUSH2 0xDA6 JUMPI PUSH2 0xDA6 PUSH2 0x3036 JUMP JUMPDEST SWAP1 PUSH1 0x0 MSTORE PUSH1 0x20 PUSH1 0x0 KECCAK256 SWAP1 PUSH1 0x3 MUL ADD PUSH1 0x1 ADD PUSH1 0x40 MLOAD PUSH2 0xDC4 SWAP2 SWAP1 PUSH2 0x2BF6 JUMP JUMPDEST SWAP1 DUP2 MSTORE PUSH1 0x40 MLOAD SWAP1 DUP2 SWAP1 SUB PUSH1 0x20 ADD SWAP1 KECCAK256 SLOAD CALLER PUSH1 0x1 PUSH1 0x1 PUSH1 0xA0 SHL SUB SWAP1 SWAP2 AND EQ PUSH2 0xDFD JUMPI PUSH1 0x40 MLOAD PUSH3 0x461BCD PUSH1 0xE5 SHL DUP2 MSTORE PUSH1 0x4 ADD PUSH2 0x79A SWAP1 PUSH2 0x2EA7 JUMP JUMPDEST PUSH1 0x1 DUP2 ISZERO ISZERO EQ ISZERO PUSH2 0xE9D JUMPI PUSH1 0xB DUP3 DUP2 SLOAD DUP2 LT PUSH2 0xE1B JUMPI PUSH2 0xE1B PUSH2 0x3036 JUMP JUMPDEST PUSH1 0x0 SWAP2 DUP3 MSTORE PUSH1 0x20 DUP3 KECCAK256 PUSH1 0x3 SWAP1 SWAP2 MUL ADD SLOAD PUSH1 0x40 MLOAD PUSH1 0x1 PUSH1 0x1 PUSH1 0xA0 SHL SUB SWAP1 SWAP2 AND SWAP2 CALLVALUE DUP1 ISZERO PUSH2 0x8FC MUL SWAP3 SWAP1 SWAP2 DUP2 DUP2 DUP2 DUP6 DUP9 DUP9 CALL SWAP4 POP POP POP POP ISZERO DUP1 ISZERO PUSH2 0xE61 JUMPI RETURNDATASIZE PUSH1 0x0 DUP1 RETURNDATACOPY RETURNDATASIZE PUSH1 0x0 REVERT JUMPDEST POP PUSH1 0x0 PUSH1 0xB DUP4 DUP2 SLOAD DUP2 LT PUSH2 0xE77 JUMPI PUSH2 0xE77 PUSH2 0x3036 JUMP JUMPDEST PUSH1 0x0 SWAP2 DUP3 MSTORE PUSH1 0x20 SWAP1 SWAP2 KECCAK256 PUSH1 0x3 SWAP1 SWAP2 MUL ADD PUSH1 0x2 ADD DUP1 SLOAD PUSH1 0xFF NOT AND SWAP2 ISZERO ISZERO SWAP2 SWAP1 SWAP2 OR SWAP1 SSTORE POP POP JUMP JUMPDEST DUP1 PUSH2 0x895 JUMPI PUSH1 0x0 PUSH1 0xB DUP4 DUP2 SLOAD DUP2 LT PUSH2 0xE77 JUMPI PUSH2 0xE77 PUSH2 0x3036 JUMP JUMPDEST PUSH1 0x0 DUP1 PUSH1 0x0 PUSH1 0x1 DUP5 PUSH1 0x40 MLOAD PUSH2 0xECC SWAP2 SWAP1 PUSH2 0x2BDA JUMP JUMPDEST SWAP1 DUP2 MSTORE PUSH1 0x40 DUP1 MLOAD PUSH1 0x20 SWAP3 DUP2 SWAP1 SUB DUP4 ADD SWAP1 KECCAK256 SLOAD PUSH1 0x1 PUSH1 0x1 PUSH1 0xA0 SHL SUB AND DUP4 MSTORE SWAP1 DUP3 ADD SWAP3 SWAP1 SWAP3 MSTORE ADD PUSH1 0x0 KECCAK256 PUSH1 0x3 ADD SLOAD PUSH1 0xFF AND SWAP3 SWAP2 POP POP JUMP JUMPDEST PUSH1 0x0 PUSH1 0x4 PUSH1 0x0 PUSH1 0x5 DUP5 PUSH1 0x40 MLOAD PUSH2 0x6F1 SWAP2 SWAP1 PUSH2 0x2BDA JUMP JUMPDEST PUSH1 0x60 PUSH1 0x0 DUP1 PUSH1 0x1 DUP5 PUSH1 0x40 MLOAD PUSH2 0xF2C SWAP2 SWAP1 PUSH2 0x2BDA JUMP JUMPDEST SWAP1 DUP2 MSTORE PUSH1 0x40 DUP1 MLOAD PUSH1 0x20 SWAP3 DUP2 SWAP1 SUB DUP4 ADD SWAP1 KECCAK256 SLOAD PUSH1 0x1 PUSH1 0x1 PUSH1 0xA0 SHL SUB AND DUP4 MSTORE SWAP1 DUP3 ADD SWAP3 SWAP1 SWAP3 MSTORE ADD PUSH1 0x0 KECCAK256 PUSH1 0x5 ADD DUP1 SLOAD PUSH2 0xF62 SWAP1 PUSH2 0x2FCA JUMP JUMPDEST DUP1 PUSH1 0x1F ADD PUSH1 0x20 DUP1 SWAP2 DIV MUL PUSH1 0x20 ADD PUSH1 0x40 MLOAD SWAP1 DUP2 ADD PUSH1 0x40 MSTORE DUP1 SWAP3 SWAP2 SWAP1 DUP2 DUP2 MSTORE PUSH1 0x20 ADD DUP3 DUP1 SLOAD PUSH2 0xF8E SWAP1 PUSH2 0x2FCA JUMP JUMPDEST DUP1 ISZERO PUSH2 0xFDB JUMPI DUP1 PUSH1 0x1F LT PUSH2 0xFB0 JUMPI PUSH2 0x100 DUP1 DUP4 SLOAD DIV MUL DUP4 MSTORE SWAP2 PUSH1 0x20 ADD SWAP2 PUSH2 0xFDB JUMP JUMPDEST DUP3 ADD SWAP2 SWAP1 PUSH1 0x0 MSTORE PUSH1 0x20 PUSH1 0x0 KECCAK256 SWAP1 JUMPDEST DUP2 SLOAD DUP2 MSTORE SWAP1 PUSH1 0x1 ADD SWAP1 PUSH1 0x20 ADD DUP1 DUP4 GT PUSH2 0xFBE JUMPI DUP3 SWAP1 SUB PUSH1 0x1F AND DUP3 ADD SWAP2 JUMPDEST POP POP POP POP POP SWAP1 POP SWAP2 SWAP1 POP JUMP JUMPDEST PUSH1 0x0 DUP1 JUMPDEST PUSH1 0x9 SLOAD DUP2 LT ISZERO PUSH2 0x11D3 JUMPI PUSH1 0x0 PUSH1 0x9 DUP3 DUP2 SLOAD DUP2 LT PUSH2 0x100A JUMPI PUSH2 0x100A PUSH2 0x3036 JUMP JUMPDEST SWAP1 PUSH1 0x0 MSTORE PUSH1 0x20 PUSH1 0x0 KECCAK256 ADD DUP1 SLOAD PUSH2 0x101F SWAP1 PUSH2 0x2FCA JUMP JUMPDEST DUP1 PUSH1 0x1F ADD PUSH1 0x20 DUP1 SWAP2 DIV MUL PUSH1 0x20 ADD PUSH1 0x40 MLOAD SWAP1 DUP2 ADD PUSH1 0x40 MSTORE DUP1 SWAP3 SWAP2 SWAP1 DUP2 DUP2 MSTORE PUSH1 0x20 ADD DUP3 DUP1 SLOAD PUSH2 0x104B SWAP1 PUSH2 0x2FCA JUMP JUMPDEST DUP1 ISZERO PUSH2 0x1098 JUMPI DUP1 PUSH1 0x1F LT PUSH2 0x106D JUMPI PUSH2 0x100 DUP1 DUP4 SLOAD DIV MUL DUP4 MSTORE SWAP2 PUSH1 0x20 ADD SWAP2 PUSH2 0x1098 JUMP JUMPDEST DUP3 ADD SWAP2 SWAP1 PUSH1 0x0 MSTORE PUSH1 0x20 PUSH1 0x0 KECCAK256 SWAP1 JUMPDEST DUP2 SLOAD DUP2 MSTORE SWAP1 PUSH1 0x1 ADD SWAP1 PUSH1 0x20 ADD DUP1 DUP4 GT PUSH2 0x107B JUMPI DUP3 SWAP1 SUB PUSH1 0x1F AND DUP3 ADD SWAP2 JUMPDEST POP POP POP POP POP SWAP1 POP DUP4 PUSH1 0x40 MLOAD PUSH1 0x20 ADD PUSH2 0x10B0 SWAP2 SWAP1 PUSH2 0x2BDA JUMP JUMPDEST PUSH1 0x40 MLOAD PUSH1 0x20 DUP2 DUP4 SUB SUB DUP2 MSTORE SWAP1 PUSH1 0x40 MSTORE DUP1 MLOAD SWAP1 PUSH1 0x20 ADD KECCAK256 DUP2 PUSH1 0x40 MLOAD PUSH1 0x20 ADD PUSH2 0x10D7 SWAP2 SWAP1 PUSH2 0x2BDA JUMP JUMPDEST PUSH1 0x40 MLOAD PUSH1 0x20 DUP2 DUP4 SUB SUB DUP2 MSTORE SWAP1 PUSH1 0x40 MSTORE DUP1 MLOAD SWAP1 PUSH1 0x20 ADD KECCAK256 EQ ISZERO PUSH2 0x11C0 JUMPI PUSH1 0x40 DUP1 MLOAD PUSH1 0x60 DUP2 ADD DUP3 MSTORE CALLER DUP2 MSTORE PUSH1 0x20 DUP1 DUP3 ADD DUP8 DUP2 MSTORE PUSH1 0x1 SWAP4 DUP4 ADD DUP5 SWAP1 MSTORE PUSH1 0xC DUP1 SLOAD SWAP5 DUP6 ADD DUP2 SSTORE PUSH1 0x0 MSTORE DUP3 MLOAD PUSH32 0xDF6966C971051C3D54EC59162606531493A51404A002842F56009D7E5CF4A8C7 PUSH1 0x3 SWAP1 SWAP6 MUL SWAP5 DUP6 ADD DUP1 SLOAD PUSH1 0x1 PUSH1 0x1 PUSH1 0xA0 SHL SUB NOT AND PUSH1 0x1 PUSH1 0x1 PUSH1 0xA0 SHL SUB SWAP1 SWAP3 AND SWAP2 SWAP1 SWAP2 OR DUP2 SSTORE SWAP1 MLOAD DUP1 MLOAD SWAP4 SWAP5 SWAP2 SWAP4 PUSH2 0x119F SWAP4 PUSH32 0xDF6966C971051C3D54EC59162606531493A51404A002842F56009D7E5CF4A8C8 SWAP1 SWAP4 ADD SWAP3 SWAP2 SWAP1 SWAP2 ADD SWAP1 PUSH2 0x26D1 JUMP JUMPDEST POP PUSH1 0x40 SWAP2 SWAP1 SWAP2 ADD MLOAD PUSH1 0x2 SWAP1 SWAP2 ADD DUP1 SLOAD PUSH1 0xFF NOT AND SWAP2 ISZERO ISZERO SWAP2 SWAP1 SWAP2 OR SWAP1 SSTORE PUSH1 0x1 SWAP3 POP JUMPDEST POP DUP1 PUSH2 0x11CB DUP2 PUSH2 0x3005 JUMP JUMPDEST SWAP2 POP POP PUSH2 0xFEB JUMP JUMPDEST POP PUSH1 0x1 DUP2 ISZERO ISZERO EQ PUSH2 0x895 JUMPI PUSH1 0x40 MLOAD PUSH3 0x461BCD PUSH1 0xE5 SHL DUP2 MSTORE PUSH1 0x20 PUSH1 0x4 DUP3 ADD MSTORE PUSH1 0x1F PUSH1 0x24 DUP3 ADD MSTORE PUSH32 0x6572726F723A207468657265206973206E6F20737563682070726F6475637400 PUSH1 0x44 DUP3 ADD MSTORE PUSH1 0x64 ADD PUSH2 0x79A JUMP JUMPDEST PUSH1 0x0 PUSH1 0x4 PUSH1 0x0 PUSH1 0x5 DUP5 PUSH1 0x40 MLOAD PUSH2 0xECC SWAP2 SWAP1 PUSH2 0x2BDA JUMP JUMPDEST PUSH1 0x60 PUSH1 0x9 DUP1 SLOAD DUP1 PUSH1 0x20 MUL PUSH1 0x20 ADD PUSH1 0x40 MLOAD SWAP1 DUP2 ADD PUSH1 0x40 MSTORE DUP1 SWAP3 SWAP2 SWAP1 DUP2 DUP2 MSTORE PUSH1 0x20 ADD PUSH1 0x0 SWAP1 JUMPDEST DUP3 DUP3 LT ISZERO PUSH2 0xC24 JUMPI DUP4 DUP3 SWAP1 PUSH1 0x0 MSTORE PUSH1 0x20 PUSH1 0x0 KECCAK256 ADD DUP1 SLOAD PUSH2 0x127F SWAP1 PUSH2 0x2FCA JUMP JUMPDEST DUP1 PUSH1 0x1F ADD PUSH1 0x20 DUP1 SWAP2 DIV MUL PUSH1 0x20 ADD PUSH1 0x40 MLOAD SWAP1 DUP2 ADD PUSH1 0x40 MSTORE DUP1 SWAP3 SWAP2 SWAP1 DUP2 DUP2 MSTORE PUSH1 0x20 ADD DUP3 DUP1 SLOAD PUSH2 0x12AB SWAP1 PUSH2 0x2FCA JUMP JUMPDEST DUP1 ISZERO PUSH2 0x12F8 JUMPI DUP1 PUSH1 0x1F LT PUSH2 0x12CD JUMPI PUSH2 0x100 DUP1 DUP4 SLOAD DIV MUL DUP4 MSTORE SWAP2 PUSH1 0x20 ADD SWAP2 PUSH2 0x12F8 JUMP JUMPDEST DUP3 ADD SWAP2 SWAP1 PUSH1 0x0 MSTORE PUSH1 0x20 PUSH1 0x0 KECCAK256 SWAP1 JUMPDEST DUP2 SLOAD DUP2 MSTORE SWAP1 PUSH1 0x1 ADD SWAP1 PUSH1 0x20 ADD DUP1 DUP4 GT PUSH2 0x12DB JUMPI DUP3 SWAP1 SUB PUSH1 0x1F AND DUP3 ADD SWAP2 JUMPDEST POP POP POP POP POP DUP2 MSTORE PUSH1 0x20 ADD SWAP1 PUSH1 0x1 ADD SWAP1 PUSH2 0x1260 JUMP JUMPDEST PUSH1 0x0 PUSH1 0x4 PUSH1 0x0 PUSH1 0x5 DUP5 PUSH1 0x40 MLOAD PUSH2 0x6AA SWAP2 SWAP1 PUSH2 0x2BDA JUMP JUMPDEST PUSH1 0x0 DUP1 PUSH1 0x0 PUSH1 0x1 PUSH1 0x1 PUSH1 0xA0 SHL SUB AND PUSH1 0x5 DUP5 PUSH1 0x40 MLOAD PUSH2 0x1340 SWAP2 SWAP1 PUSH2 0x2BDA JUMP JUMPDEST SWAP1 DUP2 MSTORE PUSH1 0x40 MLOAD SWAP1 DUP2 SWAP1 SUB PUSH1 0x20 ADD SWAP1 KECCAK256 SLOAD PUSH1 0x1 PUSH1 0x1 PUSH1 0xA0 SHL SUB AND EQ PUSH2 0x138E JUMPI PUSH1 0x5 DUP4 PUSH1 0x40 MLOAD PUSH2 0x136E SWAP2 SWAP1 PUSH2 0x2BDA JUMP JUMPDEST SWAP1 DUP2 MSTORE PUSH1 0x40 MLOAD SWAP1 DUP2 SWAP1 SUB PUSH1 0x20 ADD SWAP1 KECCAK256 SLOAD PUSH1 0x1 PUSH1 0x1 PUSH1 0xA0 SHL SUB AND SWAP1 POP PUSH2 0x13BA JUMP JUMPDEST PUSH1 0x1 DUP4 PUSH1 0x40 MLOAD PUSH2 0x139E SWAP2 SWAP1 PUSH2 0x2BDA JUMP JUMPDEST SWAP1 DUP2 MSTORE PUSH1 0x40 MLOAD SWAP1 DUP2 SWAP1 SUB PUSH1 0x20 ADD SWAP1 KECCAK256 SLOAD PUSH1 0x1 PUSH1 0x1 PUSH1 0xA0 SHL SUB AND SWAP1 POP JUMPDEST SWAP3 SWAP2 POP POP JUMP JUMPDEST PUSH1 0x40 DUP1 MLOAD PUSH1 0x80 DUP2 ADD DUP3 MSTORE CALLER DUP2 MSTORE PUSH1 0x20 DUP2 ADD DUP4 SWAP1 MSTORE SWAP1 DUP2 ADD PUSH2 0x13E9 DUP5 PUSH8 0xDE0B6B3A7640000 PUSH2 0x2F7F JUMP JUMPDEST DUP2 MSTORE PUSH1 0x20 ADD PUSH1 0xD SLOAD DUP2 MSTORE POP PUSH1 0x8 DUP5 PUSH1 0x40 MLOAD PUSH2 0x1404 SWAP2 SWAP1 PUSH2 0x2BDA JUMP JUMPDEST SWAP1 DUP2 MSTORE PUSH1 0x40 MLOAD PUSH1 0x20 SWAP2 DUP2 SWAP1 SUB DUP3 ADD SWAP1 KECCAK256 DUP3 MLOAD DUP2 SLOAD PUSH1 0x1 PUSH1 0x1 PUSH1 0xA0 SHL SUB NOT AND PUSH1 0x1 PUSH1 0x1 PUSH1 0xA0 SHL SUB SWAP1 SWAP2 AND OR DUP2 SSTORE DUP3 DUP3 ADD MLOAD DUP1 MLOAD SWAP2 SWAP3 PUSH2 0x144A SWAP3 PUSH1 0x1 DUP6 ADD SWAP3 SWAP1 SWAP2 ADD SWAP1 PUSH2 0x26D1 JUMP JUMPDEST POP PUSH1 0x40 DUP3 ADD MLOAD PUSH1 0x2 DUP3 ADD SSTORE PUSH1 0x60 SWAP1 SWAP2 ADD MLOAD PUSH1 0x3 SWAP1 SWAP2 ADD SSTORE PUSH1 0x9 DUP1 SLOAD PUSH1 0x1 DUP2 ADD DUP3 SSTORE PUSH1 0x0 SWAP2 SWAP1 SWAP2 MSTORE DUP4 MLOAD PUSH2 0x14A4 SWAP2 PUSH32 0x6E1540171B6C0C960B71A7020D9F60077F6AF931A8BBF590DA0223DACF75C7AF ADD SWAP1 PUSH1 0x20 DUP7 ADD SWAP1 PUSH2 0x26D1 JUMP JUMPDEST POP PUSH1 0xD DUP1 SLOAD SWAP1 PUSH1 0x0 PUSH2 0x14B5 DUP4 PUSH2 0x3005 JUMP JUMPDEST SWAP2 SWAP1 POP SSTORE POP POP POP POP JUMP JUMPDEST PUSH1 0xA DUP2 DUP2 SLOAD DUP2 LT PUSH2 0x14D2 JUMPI PUSH2 0x14D2 PUSH2 0x3036 JUMP JUMPDEST PUSH1 0x0 SWAP2 DUP3 MSTORE PUSH1 0x20 SWAP1 SWAP2 KECCAK256 PUSH1 0x4 SWAP1 SWAP2 MUL ADD SLOAD PUSH1 0x1 PUSH1 0x1 PUSH1 0xA0 SHL SUB AND CALLER EQ PUSH2 0x1536 JUMPI PUSH1 0x40 MLOAD PUSH3 0x461BCD PUSH1 0xE5 SHL DUP2 MSTORE PUSH1 0x20 PUSH1 0x4 DUP3 ADD MSTORE PUSH1 0x19 PUSH1 0x24 DUP3 ADD MSTORE PUSH25 0x32B93937B91D103CB7B9103737BA1036B9B39739B2B73232B9 PUSH1 0x39 SHL PUSH1 0x44 DUP3 ADD MSTORE PUSH1 0x64 ADD PUSH2 0x79A JUMP JUMPDEST CALLER PUSH1 0x1 PUSH1 0x1 PUSH1 0xA0 SHL SUB AND PUSH2 0x8FC PUSH1 0xA DUP4 DUP2 SLOAD DUP2 LT PUSH2 0x1556 JUMPI PUSH2 0x1556 PUSH2 0x3036 JUMP JUMPDEST SWAP1 PUSH1 0x0 MSTORE PUSH1 0x20 PUSH1 0x0 KECCAK256 SWAP1 PUSH1 0x4 MUL ADD PUSH1 0x2 ADD SLOAD SWAP1 DUP2 ISZERO MUL SWAP1 PUSH1 0x40 MLOAD PUSH1 0x0 PUSH1 0x40 MLOAD DUP1 DUP4 SUB DUP2 DUP6 DUP9 DUP9 CALL SWAP4 POP POP POP POP ISZERO DUP1 ISZERO PUSH2 0x1593 JUMPI RETURNDATASIZE PUSH1 0x0 DUP1 RETURNDATACOPY RETURNDATASIZE PUSH1 0x0 REVERT JUMPDEST POP PUSH1 0x0 PUSH1 0xA DUP3 DUP2 SLOAD DUP2 LT PUSH2 0x15A9 JUMPI PUSH2 0x15A9 PUSH2 0x3036 JUMP JUMPDEST PUSH1 0x0 SWAP2 DUP3 MSTORE PUSH1 0x20 SWAP1 SWAP2 KECCAK256 PUSH1 0x4 SWAP1 SWAP2 MUL ADD PUSH1 0x3 ADD DUP1 SLOAD PUSH1 0xFF NOT AND SWAP2 ISZERO ISZERO SWAP2 SWAP1 SWAP2 OR SWAP1 SSTORE POP JUMP JUMPDEST PUSH1 0xC DUP2 DUP2 SLOAD DUP2 LT PUSH2 0x15DE JUMPI PUSH1 0x0 DUP1 REVERT JUMPDEST PUSH1 0x0 SWAP2 DUP3 MSTORE PUSH1 0x20 SWAP1 SWAP2 KECCAK256 PUSH1 0x3 SWAP1 SWAP2 MUL ADD DUP1 SLOAD PUSH1 0x1 DUP3 ADD DUP1 SLOAD PUSH1 0x1 PUSH1 0x1 PUSH1 0xA0 SHL SUB SWAP1 SWAP3 AND SWAP4 POP SWAP1 PUSH2 0x160D SWAP1 PUSH2 0x2FCA JUMP JUMPDEST DUP1 PUSH1 0x1F ADD PUSH1 0x20 DUP1 SWAP2 DIV MUL PUSH1 0x20 ADD PUSH1 0x40 MLOAD SWAP1 DUP2 ADD PUSH1 0x40 MSTORE DUP1 SWAP3 SWAP2 SWAP1 DUP2 DUP2 MSTORE PUSH1 0x20 ADD DUP3 DUP1 SLOAD PUSH2 0x1639 SWAP1 PUSH2 0x2FCA JUMP JUMPDEST DUP1 ISZERO PUSH2 0x1686 JUMPI DUP1 PUSH1 0x1F LT PUSH2 0x165B JUMPI PUSH2 0x100 DUP1 DUP4 SLOAD DIV MUL DUP4 MSTORE SWAP2 PUSH1 0x20 ADD SWAP2 PUSH2 0x1686 JUMP JUMPDEST DUP3 ADD SWAP2 SWAP1 PUSH1 0x0 MSTORE PUSH1 0x20 PUSH1 0x0 KECCAK256 SWAP1 JUMPDEST DUP2 SLOAD DUP2 MSTORE SWAP1 PUSH1 0x1 ADD SWAP1 PUSH1 0x20 ADD DUP1 DUP4 GT PUSH2 0x1669 JUMPI DUP3 SWAP1 SUB PUSH1 0x1F AND DUP3 ADD SWAP2 JUMPDEST POP POP POP PUSH1 0x2 SWAP1 SWAP4 ADD SLOAD SWAP2 SWAP3 POP POP PUSH1 0xFF AND DUP4 JUMP JUMPDEST PUSH1 0x0 DUP1 PUSH1 0x1 DUP5 PUSH1 0x40 MLOAD PUSH2 0x16AC SWAP2 SWAP1 PUSH2 0x2BDA JUMP JUMPDEST SWAP1 DUP2 MSTORE PUSH1 0x40 DUP1 MLOAD PUSH1 0x20 SWAP3 DUP2 SWAP1 SUB DUP4 ADD SWAP1 KECCAK256 SLOAD PUSH1 0x1 PUSH1 0x1 PUSH1 0xA0 SHL SUB AND DUP4 MSTORE SWAP1 DUP3 ADD SWAP3 SWAP1 SWAP3 MSTORE ADD PUSH1 0x0 KECCAK256 PUSH1 0x3 ADD SLOAD PUSH1 0xFF AND ISZERO PUSH2 0x16F8 JUMPI PUSH1 0x40 MLOAD PUSH3 0x461BCD PUSH1 0xE5 SHL DUP2 MSTORE PUSH1 0x4 ADD PUSH2 0x79A SWAP1 PUSH2 0x2EDE JUMP JUMPDEST PUSH1 0x0 PUSH1 0x1 PUSH1 0x1 PUSH1 0xA0 SHL SUB AND PUSH1 0x1 DUP4 PUSH1 0x40 MLOAD PUSH2 0x1713 SWAP2 SWAP1 PUSH2 0x2BDA JUMP JUMPDEST SWAP1 DUP2 MSTORE PUSH1 0x40 MLOAD SWAP1 DUP2 SWAP1 SUB PUSH1 0x20 ADD SWAP1 KECCAK256 SLOAD PUSH1 0x1 PUSH1 0x1 PUSH1 0xA0 SHL SUB AND EQ ISZERO PUSH2 0x174A JUMPI PUSH1 0x40 MLOAD PUSH3 0x461BCD PUSH1 0xE5 SHL DUP2 MSTORE PUSH1 0x4 ADD PUSH2 0x79A SWAP1 PUSH2 0x2E74 JUMP JUMPDEST DUP1 PUSH1 0x0 DUP1 PUSH1 0x1 DUP6 PUSH1 0x40 MLOAD PUSH2 0x175E SWAP2 SWAP1 PUSH2 0x2BDA JUMP JUMPDEST SWAP1 DUP2 MSTORE PUSH1 0x40 DUP1 MLOAD PUSH1 0x20 SWAP3 DUP2 SWAP1 SUB DUP4 ADD SWAP1 KECCAK256 SLOAD PUSH1 0x1 PUSH1 0x1 PUSH1 0xA0 SHL SUB AND DUP4 MSTORE SWAP1 DUP3 ADD SWAP3 SWAP1 SWAP3 MSTORE ADD PUSH1 0x0 KECCAK256 PUSH1 0x1 ADD SLOAD EQ PUSH2 0x17A7 JUMPI PUSH1 0x40 MLOAD PUSH3 0x461BCD PUSH1 0xE5 SHL DUP2 MSTORE PUSH1 0x4 ADD PUSH2 0x79A SWAP1 PUSH2 0x2E43 JUMP JUMPDEST PUSH1 0x1 PUSH1 0x0 DUP1 PUSH1 0x1 DUP6 PUSH1 0x40 MLOAD PUSH2 0x17BC SWAP2 SWAP1 PUSH2 0x2BDA JUMP JUMPDEST SWAP1 DUP2 MSTORE PUSH1 0x40 DUP1 MLOAD PUSH1 0x20 SWAP3 DUP2 SWAP1 SUB DUP4 ADD SWAP1 KECCAK256 SLOAD PUSH1 0x1 PUSH1 0x1 PUSH1 0xA0 SHL SUB AND DUP4 MSTORE SWAP1 DUP3 ADD SWAP3 SWAP1 SWAP3 MSTORE ADD PUSH1 0x0 KECCAK256 PUSH1 0x3 ADD DUP1 SLOAD PUSH1 0xFF NOT AND SWAP2 ISZERO ISZERO SWAP2 SWAP1 SWAP2 OR SWAP1 SSTORE POP POP JUMP JUMPDEST PUSH1 0x0 DUP2 PUSH1 0x40 MLOAD PUSH1 0x20 ADD PUSH2 0x180D SWAP2 SWAP1 PUSH2 0x2BDA JUMP JUMPDEST PUSH1 0x40 MLOAD PUSH1 0x20 DUP2 DUP4 SUB SUB DUP2 MSTORE SWAP1 PUSH1 0x40 MSTORE DUP1 MLOAD SWAP1 PUSH1 0x20 ADD KECCAK256 SWAP1 POP SWAP2 SWAP1 POP JUMP JUMPDEST PUSH1 0x8 PUSH1 0xC DUP4 DUP2 SLOAD DUP2 LT PUSH2 0x183F JUMPI PUSH2 0x183F PUSH2 0x3036 JUMP JUMPDEST SWAP1 PUSH1 0x0 MSTORE PUSH1 0x20 PUSH1 0x0 KECCAK256 SWAP1 PUSH1 0x3 MUL ADD PUSH1 0x1 ADD PUSH1 0x40 MLOAD PUSH2 0x185D SWAP2 SWAP1 PUSH2 0x2BF6 JUMP JUMPDEST SWAP1 DUP2 MSTORE PUSH1 0x40 MLOAD SWAP1 DUP2 SWAP1 SUB PUSH1 0x20 ADD SWAP1 KECCAK256 SLOAD CALLER PUSH1 0x1 PUSH1 0x1 PUSH1 0xA0 SHL SUB SWAP1 SWAP2 AND EQ PUSH2 0x1896 JUMPI PUSH1 0x40 MLOAD PUSH3 0x461BCD PUSH1 0xE5 SHL DUP2 MSTORE PUSH1 0x4 ADD PUSH2 0x79A SWAP1 PUSH2 0x2EA7 JUMP JUMPDEST PUSH1 0x1 DUP2 ISZERO ISZERO EQ ISZERO PUSH2 0x1910 JUMPI PUSH1 0xC DUP3 DUP2 SLOAD DUP2 LT PUSH2 0x18B4 JUMPI PUSH2 0x18B4 PUSH2 0x3036 JUMP JUMPDEST PUSH1 0x0 SWAP2 DUP3 MSTORE PUSH1 0x20 DUP3 KECCAK256 PUSH1 0x3 SWAP1 SWAP2 MUL ADD SLOAD PUSH1 0x40 MLOAD PUSH1 0x1 PUSH1 0x1 PUSH1 0xA0 SHL SUB SWAP1 SWAP2 AND SWAP2 CALLVALUE DUP1 ISZERO PUSH2 0x8FC MUL SWAP3 SWAP1 SWAP2 DUP2 DUP2 DUP2 DUP6 DUP9 DUP9 CALL SWAP4 POP POP POP POP ISZERO DUP1 ISZERO PUSH2 0x18FA JUMPI RETURNDATASIZE PUSH1 0x0 DUP1 RETURNDATACOPY RETURNDATASIZE PUSH1 0x0 REVERT JUMPDEST POP PUSH1 0x0 PUSH1 0xC DUP4 DUP2 SLOAD DUP2 LT PUSH2 0xE77 JUMPI PUSH2 0xE77 PUSH2 0x3036 JUMP JUMPDEST DUP1 PUSH2 0x895 JUMPI PUSH1 0x0 PUSH1 0xC DUP4 DUP2 SLOAD DUP2 LT PUSH2 0xE77 JUMPI PUSH2 0xE77 PUSH2 0x3036 JUMP JUMPDEST PUSH1 0x0 PUSH1 0x20 DUP2 SWAP1 MSTORE SWAP1 DUP2 MSTORE PUSH1 0x40 SWAP1 KECCAK256 DUP1 SLOAD DUP2 SWAP1 PUSH2 0x1945 SWAP1 PUSH2 0x2FCA JUMP JUMPDEST DUP1 PUSH1 0x1F ADD PUSH1 0x20 DUP1 SWAP2 DIV MUL PUSH1 0x20 ADD PUSH1 0x40 MLOAD SWAP1 DUP2 ADD PUSH1 0x40 MSTORE DUP1 SWAP3 SWAP2 SWAP1 DUP2 DUP2 MSTORE PUSH1 0x20 ADD DUP3 DUP1 SLOAD PUSH2 0x1971 SWAP1 PUSH2 0x2FCA JUMP JUMPDEST DUP1 ISZERO PUSH2 0x19BE JUMPI DUP1 PUSH1 0x1F LT PUSH2 0x1993 JUMPI PUSH2 0x100 DUP1 DUP4 SLOAD DIV MUL DUP4 MSTORE SWAP2 PUSH1 0x20 ADD SWAP2 PUSH2 0x19BE JUMP JUMPDEST DUP3 ADD SWAP2 SWAP1 PUSH1 0x0 MSTORE PUSH1 0x20 PUSH1 0x0 KECCAK256 SWAP1 JUMPDEST DUP2 SLOAD DUP2 MSTORE SWAP1 PUSH1 0x1 ADD SWAP1 PUSH1 0x20 ADD DUP1 DUP4 GT PUSH2 0x19A1 JUMPI DUP3 SWAP1 SUB PUSH1 0x1F AND DUP3 ADD SWAP2 JUMPDEST POP POP POP PUSH1 0x1 DUP5 ADD SLOAD PUSH1 0x2 DUP6 ADD SLOAD PUSH1 0x3 DUP7 ADD SLOAD PUSH1 0x4 DUP8 ADD DUP1 SLOAD SWAP7 SWAP8 SWAP4 SWAP7 SWAP3 SWAP6 POP PUSH1 0xFF SWAP1 SWAP2 AND SWAP4 POP SWAP1 PUSH2 0x19EE SWAP1 PUSH2 0x2FCA JUMP JUMPDEST DUP1 PUSH1 0x1F ADD PUSH1 0x20 DUP1 SWAP2 DIV MUL PUSH1 0x20 ADD PUSH1 0x40 MLOAD SWAP1 DUP2 ADD PUSH1 0x40 MSTORE DUP1 SWAP3 SWAP2 SWAP1 DUP2 DUP2 MSTORE PUSH1 0x20 ADD DUP3 DUP1 SLOAD PUSH2 0x1A1A SWAP1 PUSH2 0x2FCA JUMP JUMPDEST DUP1 ISZERO PUSH2 0x1A67 JUMPI DUP1 PUSH1 0x1F LT PUSH2 0x1A3C JUMPI PUSH2 0x100 DUP1 DUP4 SLOAD DIV MUL DUP4 MSTORE SWAP2 PUSH1 0x20 ADD SWAP2 PUSH2 0x1A67 JUMP JUMPDEST DUP3 ADD SWAP2 SWAP1 PUSH1 0x0 MSTORE PUSH1 0x20 PUSH1 0x0 KECCAK256 SWAP1 JUMPDEST DUP2 SLOAD DUP2 MSTORE SWAP1 PUSH1 0x1 ADD SWAP1 PUSH1 0x20 ADD DUP1 DUP4 GT PUSH2 0x1A4A JUMPI DUP3 SWAP1 SUB PUSH1 0x1F AND DUP3 ADD SWAP2 JUMPDEST POP POP POP POP POP SWAP1 DUP1 PUSH1 0x5 ADD DUP1 SLOAD PUSH2 0x1A7C SWAP1 PUSH2 0x2FCA JUMP JUMPDEST DUP1 PUSH1 0x1F ADD PUSH1 0x20 DUP1 SWAP2 DIV MUL PUSH1 0x20 ADD PUSH1 0x40 MLOAD SWAP1 DUP2 ADD PUSH1 0x40 MSTORE DUP1 SWAP3 SWAP2 SWAP1 DUP2 DUP2 MSTORE PUSH1 0x20 ADD DUP3 DUP1 SLOAD PUSH2 0x1AA8 SWAP1 PUSH2 0x2FCA JUMP JUMPDEST DUP1 ISZERO PUSH2 0x1AF5 JUMPI DUP1 PUSH1 0x1F LT PUSH2 0x1ACA JUMPI PUSH2 0x100 DUP1 DUP4 SLOAD DIV MUL DUP4 MSTORE SWAP2 PUSH1 0x20 ADD SWAP2 PUSH2 0x1AF5 JUMP JUMPDEST DUP3 ADD SWAP2 SWAP1 PUSH1 0x0 MSTORE PUSH1 0x20 PUSH1 0x0 KECCAK256 SWAP1 JUMPDEST DUP2 SLOAD DUP2 MSTORE SWAP1 PUSH1 0x1 ADD SWAP1 PUSH1 0x20 ADD DUP1 DUP4 GT PUSH2 0x1AD8 JUMPI DUP3 SWAP1 SUB PUSH1 0x1F AND DUP3 ADD SWAP2 JUMPDEST POP POP POP POP POP SWAP1 DUP1 PUSH1 0x6 ADD SLOAD SWAP1 POP DUP8 JUMP JUMPDEST PUSH1 0x4 PUSH1 0x20 MSTORE PUSH1 0x0 SWAP1 DUP2 MSTORE PUSH1 0x40 SWAP1 KECCAK256 DUP1 SLOAD DUP2 SWAP1 PUSH2 0x1B20 SWAP1 PUSH2 0x2FCA JUMP JUMPDEST DUP1 PUSH1 0x1F ADD PUSH1 0x20 DUP1 SWAP2 DIV MUL PUSH1 0x20 ADD PUSH1 0x40 MLOAD SWAP1 DUP2 ADD PUSH1 0x40 MSTORE DUP1 SWAP3 SWAP2 SWAP1 DUP2 DUP2 MSTORE PUSH1 0x20 ADD DUP3 DUP1 SLOAD PUSH2 0x1B4C SWAP1 PUSH2 0x2FCA JUMP JUMPDEST DUP1 ISZERO PUSH2 0x1B99 JUMPI DUP1 PUSH1 0x1F LT PUSH2 0x1B6E JUMPI PUSH2 0x100 DUP1 DUP4 SLOAD DIV MUL DUP4 MSTORE SWAP2 PUSH1 0x20 ADD SWAP2 PUSH2 0x1B99 JUMP JUMPDEST DUP3 ADD SWAP2 SWAP1 PUSH1 0x0 MSTORE PUSH1 0x20 PUSH1 0x0 KECCAK256 SWAP1 JUMPDEST DUP2 SLOAD DUP2 MSTORE SWAP1 PUSH1 0x1 ADD SWAP1 PUSH1 0x20 ADD DUP1 DUP4 GT PUSH2 0x1B7C JUMPI DUP3 SWAP1 SUB PUSH1 0x1F AND DUP3 ADD SWAP2 JUMPDEST POP POP POP POP PUSH1 0x1 DUP4 ADD SLOAD PUSH1 0x2 DUP5 ADD SLOAD PUSH1 0x3 SWAP1 SWAP5 ADD SLOAD SWAP3 SWAP4 SWAP1 SWAP3 SWAP1 SWAP2 POP PUSH1 0xFF AND DUP5 JUMP JUMPDEST PUSH1 0x0 DUP1 DUP1 DUP1 JUMPDEST PUSH1 0x2 SLOAD DUP2 LT ISZERO PUSH2 0x1DA5 JUMPI PUSH1 0x0 PUSH1 0x2 DUP3 DUP2 SLOAD DUP2 LT PUSH2 0x1BDF JUMPI PUSH2 0x1BDF PUSH2 0x3036 JUMP JUMPDEST SWAP1 PUSH1 0x0 MSTORE PUSH1 0x20 PUSH1 0x0 KECCAK256 ADD DUP1 SLOAD PUSH2 0x1BF4 SWAP1 PUSH2 0x2FCA JUMP JUMPDEST DUP1 PUSH1 0x1F ADD PUSH1 0x20 DUP1 SWAP2 DIV MUL PUSH1 0x20 ADD PUSH1 0x40 MLOAD SWAP1 DUP2 ADD PUSH1 0x40 MSTORE DUP1 SWAP3 SWAP2 SWAP1 DUP2 DUP2 MSTORE PUSH1 0x20 ADD DUP3 DUP1 SLOAD PUSH2 0x1C20 SWAP1 PUSH2 0x2FCA JUMP JUMPDEST DUP1 ISZERO PUSH2 0x1C6D JUMPI DUP1 PUSH1 0x1F LT PUSH2 0x1C42 JUMPI PUSH2 0x100 DUP1 DUP4 SLOAD DIV MUL DUP4 MSTORE SWAP2 PUSH1 0x20 ADD SWAP2 PUSH2 0x1C6D JUMP JUMPDEST DUP3 ADD SWAP2 SWAP1 PUSH1 0x0 MSTORE PUSH1 0x20 PUSH1 0x0 KECCAK256 SWAP1 JUMPDEST DUP2 SLOAD DUP2 MSTORE SWAP1 PUSH1 0x1 ADD SWAP1 PUSH1 0x20 ADD DUP1 DUP4 GT PUSH2 0x1C50 JUMPI DUP3 SWAP1 SUB PUSH1 0x1F AND DUP3 ADD SWAP2 JUMPDEST POP POP POP POP POP SWAP1 POP DUP6 PUSH1 0x40 MLOAD PUSH1 0x20 ADD PUSH2 0x1C85 SWAP2 SWAP1 PUSH2 0x2BDA JUMP JUMPDEST PUSH1 0x40 MLOAD PUSH1 0x20 DUP2 DUP4 SUB SUB DUP2 MSTORE SWAP1 PUSH1 0x40 MSTORE DUP1 MLOAD SWAP1 PUSH1 0x20 ADD KECCAK256 DUP2 PUSH1 0x40 MLOAD PUSH1 0x20 ADD PUSH2 0x1CAC SWAP2 SWAP1 PUSH2 0x2BDA JUMP JUMPDEST PUSH1 0x40 MLOAD PUSH1 0x20 DUP2 DUP4 SUB SUB DUP2 MSTORE SWAP1 PUSH1 0x40 MSTORE DUP1 MLOAD SWAP1 PUSH1 0x20 ADD KECCAK256 EQ ISZERO PUSH2 0x1D92 JUMPI PUSH1 0x0 SWAP2 POP JUMPDEST PUSH1 0x3 SLOAD DUP3 GT PUSH2 0x1D92 JUMPI PUSH1 0x3 DUP3 DUP2 SLOAD DUP2 LT PUSH2 0x1CE9 JUMPI PUSH2 0x1CE9 PUSH2 0x3036 JUMP JUMPDEST SWAP1 PUSH1 0x0 MSTORE PUSH1 0x20 PUSH1 0x0 KECCAK256 SWAP1 PUSH1 0x5 MUL ADD PUSH1 0x0 ADD PUSH1 0x40 MLOAD PUSH1 0x20 ADD PUSH2 0x1D0A SWAP2 SWAP1 PUSH2 0x2BF6 JUMP JUMPDEST PUSH1 0x40 MLOAD PUSH1 0x20 DUP2 DUP4 SUB SUB DUP2 MSTORE SWAP1 PUSH1 0x40 MSTORE DUP1 MLOAD SWAP1 PUSH1 0x20 ADD KECCAK256 DUP7 PUSH1 0x40 MLOAD PUSH1 0x20 ADD PUSH2 0x1D31 SWAP2 SWAP1 PUSH2 0x2BDA JUMP JUMPDEST PUSH1 0x40 MLOAD PUSH1 0x20 DUP2 DUP4 SUB SUB DUP2 MSTORE SWAP1 PUSH1 0x40 MSTORE DUP1 MLOAD SWAP1 PUSH1 0x20 ADD KECCAK256 EQ ISZERO PUSH2 0x1D80 JUMPI PUSH1 0x3 DUP3 DUP2 SLOAD DUP2 LT PUSH2 0x1D60 JUMPI PUSH2 0x1D60 PUSH2 0x3036 JUMP JUMPDEST SWAP1 PUSH1 0x0 MSTORE PUSH1 0x20 PUSH1 0x0 KECCAK256 SWAP1 PUSH1 0x5 MUL ADD PUSH1 0x3 ADD SLOAD DUP4 PUSH2 0x1D7D SWAP2 SWAP1 PUSH2 0x2F45 JUMP JUMPDEST SWAP3 POP JUMPDEST DUP2 PUSH2 0x1D8A DUP2 PUSH2 0x3005 JUMP JUMPDEST SWAP3 POP POP PUSH2 0x1CCD JUMP JUMPDEST POP DUP1 PUSH2 0x1D9D DUP2 PUSH2 0x3005 JUMP JUMPDEST SWAP2 POP POP PUSH2 0x1BC0 JUMP JUMPDEST POP PUSH2 0x1DB0 DUP3 DUP3 PUSH2 0x2F5D JUMP JUMPDEST PUSH2 0x1DBA SWAP1 DUP3 PUSH2 0x2F45 JUMP JUMPDEST SWAP5 SWAP4 POP POP POP POP JUMP JUMPDEST PUSH1 0xB DUP2 DUP2 SLOAD DUP2 LT PUSH2 0x15DE JUMPI PUSH1 0x0 DUP1 REVERT JUMPDEST PUSH1 0x0 DUP1 JUMPDEST PUSH1 0x9 SLOAD DUP2 LT ISZERO PUSH2 0x11D3 JUMPI PUSH1 0x0 PUSH1 0x9 DUP3 DUP2 SLOAD DUP2 LT PUSH2 0x1DF5 JUMPI PUSH2 0x1DF5 PUSH2 0x3036 JUMP JUMPDEST SWAP1 PUSH1 0x0 MSTORE PUSH1 0x20 PUSH1 0x0 KECCAK256 ADD DUP1 SLOAD PUSH2 0x1E0A SWAP1 PUSH2 0x2FCA JUMP JUMPDEST DUP1 PUSH1 0x1F ADD PUSH1 0x20 DUP1 SWAP2 DIV MUL PUSH1 0x20 ADD PUSH1 0x40 MLOAD SWAP1 DUP2 ADD PUSH1 0x40 MSTORE DUP1 SWAP3 SWAP2 SWAP1 DUP2 DUP2 MSTORE PUSH1 0x20 ADD DUP3 DUP1 SLOAD PUSH2 0x1E36 SWAP1 PUSH2 0x2FCA JUMP JUMPDEST DUP1 ISZERO PUSH2 0x1E83 JUMPI DUP1 PUSH1 0x1F LT PUSH2 0x1E58 JUMPI PUSH2 0x100 DUP1 DUP4 SLOAD DIV MUL DUP4 MSTORE SWAP2 PUSH1 0x20 ADD SWAP2 PUSH2 0x1E83 JUMP JUMPDEST DUP3 ADD SWAP2 SWAP1 PUSH1 0x0 MSTORE PUSH1 0x20 PUSH1 0x0 KECCAK256 SWAP1 JUMPDEST DUP2 SLOAD DUP2 MSTORE SWAP1 PUSH1 0x1 ADD SWAP1 PUSH1 0x20 ADD DUP1 DUP4 GT PUSH2 0x1E66 JUMPI DUP3 SWAP1 SUB PUSH1 0x1F AND DUP3 ADD SWAP2 JUMPDEST POP POP POP POP POP SWAP1 POP DUP4 PUSH1 0x40 MLOAD PUSH1 0x20 ADD PUSH2 0x1E9B SWAP2 SWAP1 PUSH2 0x2BDA JUMP JUMPDEST PUSH1 0x40 MLOAD PUSH1 0x20 DUP2 DUP4 SUB SUB DUP2 MSTORE SWAP1 PUSH1 0x40 MSTORE DUP1 MLOAD SWAP1 PUSH1 0x20 ADD KECCAK256 DUP2 PUSH1 0x40 MLOAD PUSH1 0x20 ADD PUSH2 0x1EC2 SWAP2 SWAP1 PUSH2 0x2BDA JUMP JUMPDEST PUSH1 0x40 MLOAD PUSH1 0x20 DUP2 DUP4 SUB SUB DUP2 MSTORE SWAP1 PUSH1 0x40 MSTORE DUP1 MLOAD SWAP1 PUSH1 0x20 ADD KECCAK256 EQ ISZERO PUSH2 0x1FAB JUMPI PUSH1 0x40 DUP1 MLOAD PUSH1 0x60 DUP2 ADD DUP3 MSTORE CALLER DUP2 MSTORE PUSH1 0x20 DUP1 DUP3 ADD DUP8 DUP2 MSTORE PUSH1 0x1 SWAP4 DUP4 ADD DUP5 SWAP1 MSTORE PUSH1 0xB DUP1 SLOAD SWAP5 DUP6 ADD DUP2 SSTORE PUSH1 0x0 MSTORE DUP3 MLOAD PUSH32 0x175B7A638427703F0DBE7BB9BBF987A2551717B34E79F33B5B1008D1FA01DB9 PUSH1 0x3 SWAP1 SWAP6 MUL SWAP5 DUP6 ADD DUP1 SLOAD PUSH1 0x1 PUSH1 0x1 PUSH1 0xA0 SHL SUB NOT AND PUSH1 0x1 PUSH1 0x1 PUSH1 0xA0 SHL SUB SWAP1 SWAP3 AND SWAP2 SWAP1 SWAP2 OR DUP2 SSTORE SWAP1 MLOAD DUP1 MLOAD SWAP4 SWAP5 SWAP2 SWAP4 PUSH2 0x1F8A SWAP4 PUSH32 0x175B7A638427703F0DBE7BB9BBF987A2551717B34E79F33B5B1008D1FA01DBA SWAP1 SWAP4 ADD SWAP3 SWAP2 SWAP1 SWAP2 ADD SWAP1 PUSH2 0x26D1 JUMP JUMPDEST POP PUSH1 0x40 SWAP2 SWAP1 SWAP2 ADD MLOAD PUSH1 0x2 SWAP1 SWAP2 ADD DUP1 SLOAD PUSH1 0xFF NOT AND SWAP2 ISZERO ISZERO SWAP2 SWAP1 SWAP2 OR SWAP1 SSTORE PUSH1 0x1 SWAP3 POP JUMPDEST POP DUP1 PUSH2 0x1FB6 DUP2 PUSH2 0x3005 JUMP JUMPDEST SWAP2 POP POP PUSH2 0x1DD6 JUMP JUMPDEST PUSH1 0xA DUP2 GT ISZERO PUSH2 0x2019 JUMPI PUSH1 0x40 MLOAD PUSH3 0x461BCD PUSH1 0xE5 SHL DUP2 MSTORE PUSH1 0x20 PUSH1 0x4 DUP3 ADD MSTORE PUSH1 0x21 PUSH1 0x24 DUP3 ADD MSTORE PUSH32 0x6572726F723A20726174696E672063616E2062652066726F6D203120746F2031 PUSH1 0x44 DUP3 ADD MSTORE PUSH1 0x3 PUSH1 0xFC SHL PUSH1 0x64 DUP3 ADD MSTORE PUSH1 0x84 ADD PUSH2 0x79A JUMP JUMPDEST PUSH1 0x0 JUMPDEST PUSH1 0x2 SLOAD DUP2 GT PUSH2 0x228C JUMPI PUSH1 0x0 PUSH1 0x2 DUP3 DUP2 SLOAD DUP2 LT PUSH2 0x203A JUMPI PUSH2 0x203A PUSH2 0x3036 JUMP JUMPDEST SWAP1 PUSH1 0x0 MSTORE PUSH1 0x20 PUSH1 0x0 KECCAK256 ADD DUP1 SLOAD PUSH2 0x204F SWAP1 PUSH2 0x2FCA JUMP JUMPDEST DUP1 PUSH1 0x1F ADD PUSH1 0x20 DUP1 SWAP2 DIV MUL PUSH1 0x20 ADD PUSH1 0x40 MLOAD SWAP1 DUP2 ADD PUSH1 0x40 MSTORE DUP1 SWAP3 SWAP2 SWAP1 DUP2 DUP2 MSTORE PUSH1 0x20 ADD DUP3 DUP1 SLOAD PUSH2 0x207B SWAP1 PUSH2 0x2FCA JUMP JUMPDEST DUP1 ISZERO PUSH2 0x20C8 JUMPI DUP1 PUSH1 0x1F LT PUSH2 0x209D JUMPI PUSH2 0x100 DUP1 DUP4 SLOAD DIV MUL DUP4 MSTORE SWAP2 PUSH1 0x20 ADD SWAP2 PUSH2 0x20C8 JUMP JUMPDEST DUP3 ADD SWAP2 SWAP1 PUSH1 0x0 MSTORE PUSH1 0x20 PUSH1 0x0 KECCAK256 SWAP1 JUMPDEST DUP2 SLOAD DUP2 MSTORE SWAP1 PUSH1 0x1 ADD SWAP1 PUSH1 0x20 ADD DUP1 DUP4 GT PUSH2 0x20AB JUMPI DUP3 SWAP1 SUB PUSH1 0x1F AND DUP3 ADD SWAP2 JUMPDEST POP POP POP POP POP SWAP1 POP DUP5 PUSH1 0x40 MLOAD PUSH1 0x20 ADD PUSH2 0x20E0 SWAP2 SWAP1 PUSH2 0x2BDA JUMP JUMPDEST PUSH1 0x40 MLOAD PUSH1 0x20 DUP2 DUP4 SUB SUB DUP2 MSTORE SWAP1 PUSH1 0x40 MSTORE DUP1 MLOAD SWAP1 PUSH1 0x20 ADD KECCAK256 DUP2 PUSH1 0x40 MLOAD PUSH1 0x20 ADD PUSH2 0x2107 SWAP2 SWAP1 PUSH2 0x2BDA JUMP JUMPDEST PUSH1 0x40 MLOAD PUSH1 0x20 DUP2 DUP4 SUB SUB DUP2 MSTORE SWAP1 PUSH1 0x40 MSTORE DUP1 MLOAD SWAP1 PUSH1 0x20 ADD KECCAK256 EQ ISZERO PUSH2 0x2279 JUMPI PUSH1 0x40 DUP1 MLOAD PUSH1 0xA0 DUP2 ADD DUP3 MSTORE DUP7 DUP2 MSTORE CALLER PUSH1 0x0 SWAP1 DUP2 MSTORE PUSH1 0x4 PUSH1 0x20 SWAP1 DUP2 MSTORE SWAP3 SWAP1 KECCAK256 DUP1 SLOAD PUSH1 0x60 SWAP4 PUSH1 0x3 SWAP4 SWAP3 SWAP1 DUP4 ADD SWAP2 PUSH2 0x2156 SWAP1 PUSH2 0x2FCA JUMP JUMPDEST DUP1 PUSH1 0x1F ADD PUSH1 0x20 DUP1 SWAP2 DIV MUL PUSH1 0x20 ADD PUSH1 0x40 MLOAD SWAP1 DUP2 ADD PUSH1 0x40 MSTORE DUP1 SWAP3 SWAP2 SWAP1 DUP2 DUP2 MSTORE PUSH1 0x20 ADD DUP3 DUP1 SLOAD PUSH2 0x2182 SWAP1 PUSH2 0x2FCA JUMP JUMPDEST DUP1 ISZERO PUSH2 0x21CF JUMPI DUP1 PUSH1 0x1F LT PUSH2 0x21A4 JUMPI PUSH2 0x100 DUP1 DUP4 SLOAD DIV MUL DUP4 MSTORE SWAP2 PUSH1 0x20 ADD SWAP2 PUSH2 0x21CF JUMP JUMPDEST DUP3 ADD SWAP2 SWAP1 PUSH1 0x0 MSTORE PUSH1 0x20 PUSH1 0x0 KECCAK256 SWAP1 JUMPDEST DUP2 SLOAD DUP2 MSTORE SWAP1 PUSH1 0x1 ADD SWAP1 PUSH1 0x20 ADD DUP1 DUP4 GT PUSH2 0x21B2 JUMPI DUP3 SWAP1 SUB PUSH1 0x1F AND DUP3 ADD SWAP2 JUMPDEST POP POP POP SWAP2 DUP4 MSTORE POP POP PUSH1 0x20 DUP1 DUP3 ADD DUP10 SWAP1 MSTORE PUSH1 0x40 DUP3 ADD DUP9 SWAP1 MSTORE PUSH1 0x60 SWAP1 SWAP2 ADD DUP5 SWAP1 MSTORE DUP3 SLOAD PUSH1 0x1 DUP2 ADD DUP5 SSTORE PUSH1 0x0 SWAP4 DUP5 MSTORE SWAP3 DUP2 SWAP1 KECCAK256 DUP3 MLOAD DUP1 MLOAD SWAP4 SWAP5 PUSH1 0x5 MUL SWAP1 SWAP2 ADD SWAP3 PUSH2 0x2219 SWAP3 DUP5 SWAP3 ADD SWAP1 PUSH2 0x26D1 JUMP JUMPDEST POP PUSH1 0x20 DUP3 DUP2 ADD MLOAD DUP1 MLOAD PUSH2 0x2232 SWAP3 PUSH1 0x1 DUP6 ADD SWAP3 ADD SWAP1 PUSH2 0x26D1 JUMP JUMPDEST POP PUSH1 0x40 DUP3 ADD MLOAD DUP1 MLOAD PUSH2 0x224E SWAP2 PUSH1 0x2 DUP5 ADD SWAP2 PUSH1 0x20 SWAP1 SWAP2 ADD SWAP1 PUSH2 0x26D1 JUMP JUMPDEST POP PUSH1 0x60 DUP3 ADD MLOAD PUSH1 0x3 DUP3 ADD SSTORE PUSH1 0x80 DUP3 ADD MLOAD DUP1 MLOAD PUSH2 0x2274 SWAP2 PUSH1 0x4 DUP5 ADD SWAP2 PUSH1 0x20 SWAP1 SWAP2 ADD SWAP1 PUSH2 0x2755 JUMP JUMPDEST POP POP POP POP JUMPDEST POP DUP1 PUSH2 0x2284 DUP2 PUSH2 0x3005 JUMP JUMPDEST SWAP2 POP POP PUSH2 0x201C JUMP JUMPDEST POP POP POP POP JUMP JUMPDEST PUSH1 0x4 PUSH1 0x0 PUSH1 0x5 DUP5 PUSH1 0x40 MLOAD PUSH2 0x22A6 SWAP2 SWAP1 PUSH2 0x2BDA JUMP JUMPDEST SWAP1 DUP2 MSTORE PUSH1 0x40 DUP1 MLOAD PUSH1 0x20 SWAP3 DUP2 SWAP1 SUB DUP4 ADD SWAP1 KECCAK256 SLOAD PUSH1 0x1 PUSH1 0x1 PUSH1 0xA0 SHL SUB AND DUP4 MSTORE SWAP1 DUP3 ADD SWAP3 SWAP1 SWAP3 MSTORE ADD PUSH1 0x0 KECCAK256 PUSH1 0x3 ADD SLOAD PUSH1 0xFF AND ISZERO PUSH2 0x22F2 JUMPI PUSH1 0x40 MLOAD PUSH3 0x461BCD PUSH1 0xE5 SHL DUP2 MSTORE PUSH1 0x4 ADD PUSH2 0x79A SWAP1 PUSH2 0x2EDE JUMP JUMPDEST PUSH1 0x0 PUSH1 0x1 PUSH1 0x1 PUSH1 0xA0 SHL SUB AND PUSH1 0x5 DUP4 PUSH1 0x40 MLOAD PUSH2 0x230D SWAP2 SWAP1 PUSH2 0x2BDA JUMP JUMPDEST SWAP1 DUP2 MSTORE PUSH1 0x40 MLOAD SWAP1 DUP2 SWAP1 SUB PUSH1 0x20 ADD SWAP1 KECCAK256 SLOAD PUSH1 0x1 PUSH1 0x1 PUSH1 0xA0 SHL SUB AND EQ ISZERO PUSH2 0x2344 JUMPI PUSH1 0x40 MLOAD PUSH3 0x461BCD PUSH1 0xE5 SHL DUP2 MSTORE PUSH1 0x4 ADD PUSH2 0x79A SWAP1 PUSH2 0x2E74 JUMP JUMPDEST DUP1 PUSH1 0x4 PUSH1 0x0 PUSH1 0x5 DUP6 PUSH1 0x40 MLOAD PUSH2 0x2359 SWAP2 SWAP1 PUSH2 0x2BDA JUMP JUMPDEST SWAP1 DUP2 MSTORE PUSH1 0x40 DUP1 MLOAD PUSH1 0x20 SWAP3 DUP2 SWAP1 SUB DUP4 ADD SWAP1 KECCAK256 SLOAD PUSH1 0x1 PUSH1 0x1 PUSH1 0xA0 SHL SUB AND DUP4 MSTORE SWAP1 DUP3 ADD SWAP3 SWAP1 SWAP3 MSTORE ADD PUSH1 0x0 KECCAK256 PUSH1 0x1 ADD SLOAD EQ PUSH2 0x23A2 JUMPI PUSH1 0x40 MLOAD PUSH3 0x461BCD PUSH1 0xE5 SHL DUP2 MSTORE PUSH1 0x4 ADD PUSH2 0x79A SWAP1 PUSH2 0x2E43 JUMP JUMPDEST PUSH1 0x1 PUSH1 0x4 PUSH1 0x0 PUSH1 0x5 DUP6 PUSH1 0x40 MLOAD PUSH2 0x17BC SWAP2 SWAP1 PUSH2 0x2BDA JUMP JUMPDEST DUP1 MLOAD PUSH1 0x20 DUP2 DUP4 ADD DUP2 ADD DUP1 MLOAD PUSH1 0x8 DUP3 MSTORE SWAP3 DUP3 ADD SWAP2 SWAP1 SWAP4 ADD KECCAK256 SWAP2 MSTORE DUP1 SLOAD PUSH1 0x1 DUP3 ADD DUP1 SLOAD PUSH1 0x1 PUSH1 0x1 PUSH1 0xA0 SHL SUB SWAP1 SWAP3 AND SWAP3 SWAP2 PUSH2 0x23EF SWAP1 PUSH2 0x2FCA JUMP JUMPDEST DUP1 PUSH1 0x1F ADD PUSH1 0x20 DUP1 SWAP2 DIV MUL PUSH1 0x20 ADD PUSH1 0x40 MLOAD SWAP1 DUP2 ADD PUSH1 0x40 MSTORE DUP1 SWAP3 SWAP2 SWAP1 DUP2 DUP2 MSTORE PUSH1 0x20 ADD DUP3 DUP1 SLOAD PUSH2 0x241B SWAP1 PUSH2 0x2FCA JUMP JUMPDEST DUP1 ISZERO PUSH2 0x2468 JUMPI DUP1 PUSH1 0x1F LT PUSH2 0x243D JUMPI PUSH2 0x100 DUP1 DUP4 SLOAD DIV MUL DUP4 MSTORE SWAP2 PUSH1 0x20 ADD SWAP2 PUSH2 0x2468 JUMP JUMPDEST DUP3 ADD SWAP2 SWAP1 PUSH1 0x0 MSTORE PUSH1 0x20 PUSH1 0x0 KECCAK256 SWAP1 JUMPDEST DUP2 SLOAD DUP2 MSTORE SWAP1 PUSH1 0x1 ADD SWAP1 PUSH1 0x20 ADD DUP1 DUP4 GT PUSH2 0x244B JUMPI DUP3 SWAP1 SUB PUSH1 0x1F AND DUP3 ADD SWAP2 JUMPDEST POP POP POP POP POP SWAP1 DUP1 PUSH1 0x2 ADD SLOAD SWAP1 DUP1 PUSH1 0x3 ADD SLOAD SWAP1 POP DUP5 JUMP JUMPDEST PUSH1 0xA DUP2 DUP2 SLOAD DUP2 LT PUSH2 0x248E JUMPI PUSH1 0x0 DUP1 REVERT JUMPDEST PUSH1 0x0 SWAP2 DUP3 MSTORE PUSH1 0x20 SWAP1 SWAP2 KECCAK256 PUSH1 0x4 SWAP1 SWAP2 MUL ADD DUP1 SLOAD PUSH1 0x1 DUP3 ADD DUP1 SLOAD PUSH1 0x1 PUSH1 0x1 PUSH1 0xA0 SHL SUB SWAP1 SWAP3 AND SWAP4 POP SWAP1 PUSH2 0x24BD SWAP1 PUSH2 0x2FCA JUMP JUMPDEST DUP1 PUSH1 0x1F ADD PUSH1 0x20 DUP1 SWAP2 DIV MUL PUSH1 0x20 ADD PUSH1 0x40 MLOAD SWAP1 DUP2 ADD PUSH1 0x40 MSTORE DUP1 SWAP3 SWAP2 SWAP1 DUP2 DUP2 MSTORE PUSH1 0x20 ADD DUP3 DUP1 SLOAD PUSH2 0x24E9 SWAP1 PUSH2 0x2FCA JUMP JUMPDEST DUP1 ISZERO PUSH2 0x2536 JUMPI DUP1 PUSH1 0x1F LT PUSH2 0x250B JUMPI PUSH2 0x100 DUP1 DUP4 SLOAD DIV MUL DUP4 MSTORE SWAP2 PUSH1 0x20 ADD SWAP2 PUSH2 0x2536 JUMP JUMPDEST DUP3 ADD SWAP2 SWAP1 PUSH1 0x0 MSTORE PUSH1 0x20 PUSH1 0x0 KECCAK256 SWAP1 JUMPDEST DUP2 SLOAD DUP2 MSTORE SWAP1 PUSH1 0x1 ADD SWAP1 PUSH1 0x20 ADD DUP1 DUP4 GT PUSH2 0x2519 JUMPI DUP3 SWAP1 SUB PUSH1 0x1F AND DUP3 ADD SWAP2 JUMPDEST POP POP POP POP PUSH1 0x2 DUP4 ADD SLOAD PUSH1 0x3 SWAP1 SWAP4 ADD SLOAD SWAP2 SWAP3 SWAP2 PUSH1 0xFF AND SWAP1 POP DUP5 JUMP JUMPDEST PUSH1 0x60 PUSH1 0x0 PUSH2 0x255D DUP4 PUSH2 0x1322 JUMP JUMPDEST SWAP1 POP PUSH1 0x60 PUSH1 0x0 JUMPDEST PUSH1 0x9 SLOAD DUP2 LT ISZERO PUSH2 0x26C9 JUMPI PUSH1 0x0 PUSH1 0x9 DUP3 DUP2 SLOAD DUP2 LT PUSH2 0x2583 JUMPI PUSH2 0x2583 PUSH2 0x3036 JUMP JUMPDEST SWAP1 PUSH1 0x0 MSTORE PUSH1 0x20 PUSH1 0x0 KECCAK256 ADD DUP1 SLOAD PUSH2 0x2598 SWAP1 PUSH2 0x2FCA JUMP JUMPDEST DUP1 PUSH1 0x1F ADD PUSH1 0x20 DUP1 SWAP2 DIV MUL PUSH1 0x20 ADD PUSH1 0x40 MLOAD SWAP1 DUP2 ADD PUSH1 0x40 MSTORE DUP1 SWAP3 SWAP2 SWAP1 DUP2 DUP2 MSTORE PUSH1 0x20 ADD DUP3 DUP1 SLOAD PUSH2 0x25C4 SWAP1 PUSH2 0x2FCA JUMP JUMPDEST DUP1 ISZERO PUSH2 0x2611 JUMPI DUP1 PUSH1 0x1F LT PUSH2 0x25E6 JUMPI PUSH2 0x100 DUP1 DUP4 SLOAD DIV MUL DUP4 MSTORE SWAP2 PUSH1 0x20 ADD SWAP2 PUSH2 0x2611 JUMP JUMPDEST DUP3 ADD SWAP2 SWAP1 PUSH1 0x0 MSTORE PUSH1 0x20 PUSH1 0x0 KECCAK256 SWAP1 JUMPDEST DUP2 SLOAD DUP2 MSTORE SWAP1 PUSH1 0x1 ADD SWAP1 PUSH1 0x20 ADD DUP1 DUP4 GT PUSH2 0x25F4 JUMPI DUP3 SWAP1 SUB PUSH1 0x1F AND DUP3 ADD SWAP2 JUMPDEST POP POP POP POP POP SWAP1 POP PUSH1 0x0 PUSH1 0x8 DUP3 PUSH1 0x40 MLOAD PUSH2 0x262A SWAP2 SWAP1 PUSH2 0x2BDA JUMP JUMPDEST SWAP1 DUP2 MSTORE PUSH1 0x40 MLOAD PUSH1 0x20 SWAP2 DUP2 SWAP1 SUB DUP3 ADD DUP2 KECCAK256 SLOAD PUSH1 0x1 PUSH1 0x1 PUSH1 0xA0 SHL SUB AND SWAP3 POP PUSH2 0x2652 SWAP2 DUP4 SWAP2 ADD PUSH2 0x2BC2 JUMP JUMPDEST PUSH1 0x40 MLOAD PUSH1 0x20 DUP2 DUP4 SUB SUB DUP2 MSTORE SWAP1 PUSH1 0x40 MSTORE DUP1 MLOAD SWAP1 PUSH1 0x20 ADD KECCAK256 DUP6 PUSH1 0x40 MLOAD PUSH1 0x20 ADD PUSH2 0x2679 SWAP2 SWAP1 PUSH2 0x2BC2 JUMP JUMPDEST PUSH1 0x40 MLOAD PUSH1 0x20 DUP2 DUP4 SUB SUB DUP2 MSTORE SWAP1 PUSH1 0x40 MSTORE DUP1 MLOAD SWAP1 PUSH1 0x20 ADD KECCAK256 EQ ISZERO PUSH2 0x26B4 JUMPI DUP2 DUP5 DUP5 DUP2 MLOAD DUP2 LT PUSH2 0x26A8 JUMPI PUSH2 0x26A8 PUSH2 0x3036 JUMP JUMPDEST PUSH1 0x20 MUL PUSH1 0x20 ADD ADD DUP2 SWAP1 MSTORE POP JUMPDEST POP POP DUP1 DUP1 PUSH2 0x26C1 SWAP1 PUSH2 0x3005 JUMP JUMPDEST SWAP2 POP POP PUSH2 0x2564 JUMP JUMPDEST POP SWAP4 SWAP3 POP POP POP JUMP JUMPDEST DUP3 DUP1 SLOAD PUSH2 0x26DD SWAP1 PUSH2 0x2FCA JUMP JUMPDEST SWAP1 PUSH1 0x0 MSTORE PUSH1 0x20 PUSH1 0x0 KECCAK256 SWAP1 PUSH1 0x1F ADD PUSH1 0x20 SWAP1 DIV DUP2 ADD SWAP3 DUP3 PUSH2 0x26FF JUMPI PUSH1 0x0 DUP6 SSTORE PUSH2 0x2745 JUMP JUMPDEST DUP3 PUSH1 0x1F LT PUSH2 0x2718 JUMPI DUP1 MLOAD PUSH1 0xFF NOT AND DUP4 DUP1 ADD OR DUP6 SSTORE PUSH2 0x2745 JUMP JUMPDEST DUP3 DUP1 ADD PUSH1 0x1 ADD DUP6 SSTORE DUP3 ISZERO PUSH2 0x2745 JUMPI SWAP2 DUP3 ADD JUMPDEST DUP3 DUP2 GT ISZERO PUSH2 0x2745 JUMPI DUP3 MLOAD DUP3 SSTORE SWAP2 PUSH1 0x20 ADD SWAP2 SWAP1 PUSH1 0x1 ADD SWAP1 PUSH2 0x272A JUMP JUMPDEST POP PUSH2 0x2751 SWAP3 SWAP2 POP PUSH2 0x27AE JUMP JUMPDEST POP SWAP1 JUMP JUMPDEST DUP3 DUP1 SLOAD DUP3 DUP3 SSTORE SWAP1 PUSH1 0x0 MSTORE PUSH1 0x20 PUSH1 0x0 KECCAK256 SWAP1 DUP2 ADD SWAP3 DUP3 ISZERO PUSH2 0x27A2 JUMPI SWAP2 PUSH1 0x20 MUL DUP3 ADD JUMPDEST DUP3 DUP2 GT ISZERO PUSH2 0x27A2 JUMPI DUP3 MLOAD DUP1 MLOAD PUSH2 0x2792 SWAP2 DUP5 SWAP2 PUSH1 0x20 SWAP1 SWAP2 ADD SWAP1 PUSH2 0x26D1 JUMP JUMPDEST POP SWAP2 PUSH1 0x20 ADD SWAP2 SWAP1 PUSH1 0x1 ADD SWAP1 PUSH2 0x2775 JUMP JUMPDEST POP PUSH2 0x2751 SWAP3 SWAP2 POP PUSH2 0x27C3 JUMP JUMPDEST JUMPDEST DUP1 DUP3 GT ISZERO PUSH2 0x2751 JUMPI PUSH1 0x0 DUP2 SSTORE PUSH1 0x1 ADD PUSH2 0x27AF JUMP JUMPDEST DUP1 DUP3 GT ISZERO PUSH2 0x2751 JUMPI PUSH1 0x0 PUSH2 0x27D7 DUP3 DUP3 PUSH2 0x27E0 JUMP JUMPDEST POP PUSH1 0x1 ADD PUSH2 0x27C3 JUMP JUMPDEST POP DUP1 SLOAD PUSH2 0x27EC SWAP1 PUSH2 0x2FCA JUMP JUMPDEST PUSH1 0x0 DUP3 SSTORE DUP1 PUSH1 0x1F LT PUSH2 0x27FC JUMPI POP POP JUMP JUMPDEST PUSH1 0x1F ADD PUSH1 0x20 SWAP1 DIV SWAP1 PUSH1 0x0 MSTORE PUSH1 0x20 PUSH1 0x0 KECCAK256 SWAP1 DUP2 ADD SWAP1 PUSH2 0x281A SWAP2 SWAP1 PUSH2 0x27AE JUMP JUMPDEST POP JUMP JUMPDEST DUP1 CALLDATALOAD PUSH1 0x1 PUSH1 0x1 PUSH1 0xA0 SHL SUB DUP2 AND DUP2 EQ PUSH2 0x2834 JUMPI PUSH1 0x0 DUP1 REVERT JUMPDEST SWAP2 SWAP1 POP JUMP JUMPDEST PUSH1 0x0 DUP3 PUSH1 0x1F DUP4 ADD SLT PUSH2 0x284A JUMPI PUSH1 0x0 DUP1 REVERT JUMPDEST DUP2 CALLDATALOAD PUSH1 0x1 PUSH1 0x1 PUSH1 0x40 SHL SUB DUP2 GT ISZERO PUSH2 0x2863 JUMPI PUSH2 0x2863 PUSH2 0x304C JUMP JUMPDEST PUSH2 0x2876 PUSH1 0x1F DUP3 ADD PUSH1 0x1F NOT AND PUSH1 0x20 ADD PUSH2 0x2F15 JUMP JUMPDEST DUP2 DUP2 MSTORE DUP5 PUSH1 0x20 DUP4 DUP7 ADD ADD GT ISZERO PUSH2 0x288B JUMPI PUSH1 0x0 DUP1 REVERT JUMPDEST DUP2 PUSH1 0x20 DUP6 ADD PUSH1 0x20 DUP4 ADD CALLDATACOPY PUSH1 0x0 SWAP2 DUP2 ADD PUSH1 0x20 ADD SWAP2 SWAP1 SWAP2 MSTORE SWAP4 SWAP3 POP POP POP JUMP JUMPDEST PUSH1 0x0 PUSH1 0x20 DUP3 DUP5 SUB SLT ISZERO PUSH2 0x28BA JUMPI PUSH1 0x0 DUP1 REVERT JUMPDEST PUSH2 0x28C3 DUP3 PUSH2 0x281D JUMP JUMPDEST SWAP4 SWAP3 POP POP POP JUMP JUMPDEST PUSH1 0x0 DUP1 PUSH1 0x0 PUSH1 0x60 DUP5 DUP7 SUB SLT ISZERO PUSH2 0x28DF JUMPI PUSH1 0x0 DUP1 REVERT JUMPDEST PUSH2 0x28E8 DUP5 PUSH2 0x281D JUMP JUMPDEST SWAP3 POP PUSH1 0x20 DUP5 ADD CALLDATALOAD PUSH1 0x1 PUSH1 0x1 PUSH1 0x40 SHL SUB DUP2 GT ISZERO PUSH2 0x2903 JUMPI PUSH1 0x0 DUP1 REVERT JUMPDEST PUSH2 0x290F DUP7 DUP3 DUP8 ADD PUSH2 0x2839 JUMP JUMPDEST SWAP3 POP POP PUSH1 0x40 DUP5 ADD CALLDATALOAD SWAP1 POP SWAP3 POP SWAP3 POP SWAP3 JUMP JUMPDEST PUSH1 0x0 PUSH1 0x20 DUP3 DUP5 SUB SLT ISZERO PUSH2 0x2932 JUMPI PUSH1 0x0 DUP1 REVERT JUMPDEST DUP2 CALLDATALOAD PUSH1 0x1 PUSH1 0x1 PUSH1 0x40 SHL SUB DUP2 GT ISZERO PUSH2 0x2948 JUMPI PUSH1 0x0 DUP1 REVERT JUMPDEST PUSH2 0x1DBA DUP5 DUP3 DUP6 ADD PUSH2 0x2839 JUMP JUMPDEST PUSH1 0x0 DUP1 PUSH1 0x40 DUP4 DUP6 SUB SLT ISZERO PUSH2 0x2967 JUMPI PUSH1 0x0 DUP1 REVERT JUMPDEST DUP3 CALLDATALOAD PUSH1 0x1 PUSH1 0x1 PUSH1 0x40 SHL SUB DUP1 DUP3 GT ISZERO PUSH2 0x297E JUMPI PUSH1 0x0 DUP1 REVERT JUMPDEST PUSH2 0x298A DUP7 DUP4 DUP8 ADD PUSH2 0x2839 JUMP JUMPDEST SWAP4 POP PUSH1 0x20 SWAP2 POP DUP2 DUP6 ADD CALLDATALOAD DUP2 DUP2 GT ISZERO PUSH2 0x29A1 JUMPI PUSH1 0x0 DUP1 REVERT JUMPDEST DUP6 ADD PUSH1 0x1F DUP2 ADD DUP8 SGT PUSH2 0x29B2 JUMPI PUSH1 0x0 DUP1 REVERT JUMPDEST DUP1 CALLDATALOAD DUP3 DUP2 GT ISZERO PUSH2 0x29C4 JUMPI PUSH2 0x29C4 PUSH2 0x304C JUMP JUMPDEST DUP1 PUSH1 0x5 SHL PUSH2 0x29D3 DUP6 DUP3 ADD PUSH2 0x2F15 JUMP JUMPDEST DUP3 DUP2 MSTORE DUP6 DUP2 ADD SWAP1 DUP5 DUP8 ADD DUP4 DUP7 ADD DUP9 ADD DUP13 LT ISZERO PUSH2 0x29EE JUMPI PUSH1 0x0 DUP1 REVERT JUMPDEST PUSH1 0x0 SWAP4 POP DUP4 JUMPDEST DUP6 DUP2 LT ISZERO PUSH2 0x2A2B JUMPI DUP2 CALLDATALOAD DUP9 DUP2 GT ISZERO PUSH2 0x2A0A JUMPI DUP6 DUP7 REVERT JUMPDEST PUSH2 0x2A18 DUP15 DUP12 DUP4 DUP12 ADD ADD PUSH2 0x2839 JUMP JUMPDEST DUP6 MSTORE POP SWAP3 DUP9 ADD SWAP3 SWAP1 DUP9 ADD SWAP1 PUSH1 0x1 ADD PUSH2 0x29F4 JUMP JUMPDEST POP SWAP9 SWAP12 SWAP1 SWAP11 POP SWAP9 POP POP POP POP POP POP POP POP POP JUMP JUMPDEST PUSH1 0x0 DUP1 PUSH1 0x40 DUP4 DUP6 SUB SLT ISZERO PUSH2 0x2A50 JUMPI PUSH1 0x0 DUP1 REVERT JUMPDEST DUP3 CALLDATALOAD PUSH1 0x1 PUSH1 0x1 PUSH1 0x40 SHL SUB DUP2 GT ISZERO PUSH2 0x2A66 JUMPI PUSH1 0x0 DUP1 REVERT JUMPDEST PUSH2 0x2A72 DUP6 DUP3 DUP7 ADD PUSH2 0x2839 JUMP JUMPDEST SWAP6 PUSH1 0x20 SWAP5 SWAP1 SWAP5 ADD CALLDATALOAD SWAP5 POP POP POP POP JUMP JUMPDEST PUSH1 0x0 DUP1 PUSH1 0x0 PUSH1 0x60 DUP5 DUP7 SUB SLT ISZERO PUSH2 0x2A96 JUMPI PUSH1 0x0 DUP1 REVERT JUMPDEST DUP4 CALLDATALOAD PUSH1 0x1 PUSH1 0x1 PUSH1 0x40 SHL SUB DUP1 DUP3 GT ISZERO PUSH2 0x2AAD JUMPI PUSH1 0x0 DUP1 REVERT JUMPDEST PUSH2 0x2AB9 DUP8 DUP4 DUP9 ADD PUSH2 0x2839 JUMP JUMPDEST SWAP5 POP PUSH1 0x20 DUP7 ADD CALLDATALOAD SWAP2 POP DUP1 DUP3 GT ISZERO PUSH2 0x2ACF JUMPI PUSH1 0x0 DUP1 REVERT JUMPDEST POP PUSH2 0x290F DUP7 DUP3 DUP8 ADD PUSH2 0x2839 JUMP JUMPDEST PUSH1 0x0 DUP1 PUSH1 0x0 PUSH1 0x60 DUP5 DUP7 SUB SLT ISZERO PUSH2 0x2AF1 JUMPI PUSH1 0x0 DUP1 REVERT JUMPDEST DUP4 CALLDATALOAD PUSH1 0x1 PUSH1 0x1 PUSH1 0x40 SHL SUB DUP1 DUP3 GT ISZERO PUSH2 0x2B08 JUMPI PUSH1 0x0 DUP1 REVERT JUMPDEST PUSH2 0x2B14 DUP8 DUP4 DUP9 ADD PUSH2 0x2839 JUMP JUMPDEST SWAP5 POP PUSH1 0x20 DUP7 ADD CALLDATALOAD SWAP4 POP PUSH1 0x40 DUP7 ADD CALLDATALOAD SWAP2 POP DUP1 DUP3 GT ISZERO PUSH2 0x2B31 JUMPI PUSH1 0x0 DUP1 REVERT JUMPDEST POP PUSH2 0x2B3E DUP7 DUP3 DUP8 ADD PUSH2 0x2839 JUMP JUMPDEST SWAP2 POP POP SWAP3 POP SWAP3 POP SWAP3 JUMP JUMPDEST PUSH1 0x0 PUSH1 0x20 DUP3 DUP5 SUB SLT ISZERO PUSH2 0x2B5A JUMPI PUSH1 0x0 DUP1 REVERT JUMPDEST POP CALLDATALOAD SWAP2 SWAP1 POP JUMP JUMPDEST PUSH1 0x0 DUP1 PUSH1 0x40 DUP4 DUP6 SUB SLT ISZERO PUSH2 0x2B74 JUMPI PUSH1 0x0 DUP1 REVERT JUMPDEST DUP3 CALLDATALOAD SWAP2 POP PUSH1 0x20 DUP4 ADD CALLDATALOAD DUP1 ISZERO ISZERO DUP2 EQ PUSH2 0x2B8B JUMPI PUSH1 0x0 DUP1 REVERT JUMPDEST DUP1 SWAP2 POP POP SWAP3 POP SWAP3 SWAP1 POP JUMP JUMPDEST PUSH1 0x0 DUP2 MLOAD DUP1 DUP5 MSTORE PUSH2 0x2BAE DUP2 PUSH1 0x20 DUP7 ADD PUSH1 0x20 DUP7 ADD PUSH2 0x2F9E JUMP JUMPDEST PUSH1 0x1F ADD PUSH1 0x1F NOT AND SWAP3 SWAP1 SWAP3 ADD PUSH1 0x20 ADD SWAP3 SWAP2 POP POP JUMP JUMPDEST PUSH1 0x60 SWAP2 SWAP1 SWAP2 SHL PUSH1 0x1 PUSH1 0x1 PUSH1 0x60 SHL SUB NOT AND DUP2 MSTORE PUSH1 0x14 ADD SWAP1 JUMP JUMPDEST PUSH1 0x0 DUP3 MLOAD PUSH2 0x2BEC DUP2 DUP5 PUSH1 0x20 DUP8 ADD PUSH2 0x2F9E JUMP JUMPDEST SWAP2 SWAP1 SWAP2 ADD SWAP3 SWAP2 POP POP JUMP JUMPDEST PUSH1 0x0 DUP1 DUP4 SLOAD DUP2 PUSH1 0x1 DUP3 DUP2 SHR SWAP2 POP DUP1 DUP4 AND DUP1 PUSH2 0x2C12 JUMPI PUSH1 0x7F DUP4 AND SWAP3 POP JUMPDEST PUSH1 0x20 DUP1 DUP5 LT DUP3 EQ ISZERO PUSH2 0x2C32 JUMPI PUSH4 0x4E487B71 PUSH1 0xE0 SHL DUP7 MSTORE PUSH1 0x22 PUSH1 0x4 MSTORE PUSH1 0x24 DUP7 REVERT JUMPDEST DUP2 DUP1 ISZERO PUSH2 0x2C46 JUMPI PUSH1 0x1 DUP2 EQ PUSH2 0x2C57 JUMPI PUSH2 0x2C84 JUMP JUMPDEST PUSH1 0xFF NOT DUP7 AND DUP10 MSTORE DUP5 DUP10 ADD SWAP7 POP PUSH2 0x2C84 JUMP JUMPDEST PUSH1 0x0 DUP11 DUP2 MSTORE PUSH1 0x20 SWAP1 KECCAK256 PUSH1 0x0 JUMPDEST DUP7 DUP2 LT ISZERO PUSH2 0x2C7C JUMPI DUP2 SLOAD DUP12 DUP3 ADD MSTORE SWAP1 DUP6 ADD SWAP1 DUP4 ADD PUSH2 0x2C63 JUMP JUMPDEST POP POP DUP5 DUP10 ADD SWAP7 POP JUMPDEST POP SWAP5 SWAP9 SWAP8 POP POP POP POP POP POP POP POP JUMP JUMPDEST PUSH1 0x1 PUSH1 0x1 PUSH1 0xA0 SHL SUB DUP5 AND DUP2 MSTORE PUSH1 0x60 PUSH1 0x20 DUP3 ADD DUP2 SWAP1 MSTORE PUSH1 0x0 SWAP1 PUSH2 0x2CB6 SWAP1 DUP4 ADD DUP6 PUSH2 0x2B96 JUMP JUMPDEST SWAP1 POP DUP3 ISZERO ISZERO PUSH1 0x40 DUP4 ADD MSTORE SWAP5 SWAP4 POP POP POP POP JUMP JUMPDEST PUSH1 0x1 PUSH1 0x1 PUSH1 0xA0 SHL SUB DUP6 AND DUP2 MSTORE PUSH1 0x80 PUSH1 0x20 DUP3 ADD DUP2 SWAP1 MSTORE PUSH1 0x0 SWAP1 PUSH2 0x2CEC SWAP1 DUP4 ADD DUP7 PUSH2 0x2B96 JUMP JUMPDEST PUSH1 0x40 DUP4 ADD SWAP5 SWAP1 SWAP5 MSTORE POP SWAP1 ISZERO ISZERO PUSH1 0x60 SWAP1 SWAP2 ADD MSTORE SWAP3 SWAP2 POP POP JUMP JUMPDEST PUSH1 0x1 PUSH1 0x1 PUSH1 0xA0 SHL SUB DUP6 AND DUP2 MSTORE PUSH1 0x80 PUSH1 0x20 DUP3 ADD DUP2 SWAP1 MSTORE PUSH1 0x0 SWAP1 PUSH2 0x2D28 SWAP1 DUP4 ADD DUP7 PUSH2 0x2B96 JUMP JUMPDEST PUSH1 0x40 DUP4 ADD SWAP5 SWAP1 SWAP5 MSTORE POP PUSH1 0x60 ADD MSTORE SWAP3 SWAP2 POP POP JUMP JUMPDEST PUSH1 0x0 PUSH1 0x20 DUP1 DUP4 ADD DUP2 DUP5 MSTORE DUP1 DUP6 MLOAD DUP1 DUP4 MSTORE PUSH1 0x40 DUP7 ADD SWAP2 POP PUSH1 0x40 DUP2 PUSH1 0x5 SHL DUP8 ADD ADD SWAP3 POP DUP4 DUP8 ADD PUSH1 0x0 JUMPDEST DUP3 DUP2 LT ISZERO PUSH2 0x2D90 JUMPI PUSH1 0x3F NOT DUP9 DUP7 SUB ADD DUP5 MSTORE PUSH2 0x2D7E DUP6 DUP4 MLOAD PUSH2 0x2B96 JUMP JUMPDEST SWAP5 POP SWAP3 DUP6 ADD SWAP3 SWAP1 DUP6 ADD SWAP1 PUSH1 0x1 ADD PUSH2 0x2D62 JUMP JUMPDEST POP SWAP3 SWAP8 SWAP7 POP POP POP POP POP POP POP JUMP JUMPDEST PUSH1 0x20 DUP2 MSTORE PUSH1 0x0 PUSH2 0x28C3 PUSH1 0x20 DUP4 ADD DUP5 PUSH2 0x2B96 JUMP JUMPDEST PUSH1 0x80 DUP2 MSTORE PUSH1 0x0 PUSH2 0x2DC3 PUSH1 0x80 DUP4 ADD DUP8 PUSH2 0x2B96 JUMP JUMPDEST PUSH1 0x20 DUP4 ADD SWAP6 SWAP1 SWAP6 MSTORE POP PUSH1 0x40 DUP2 ADD SWAP3 SWAP1 SWAP3 MSTORE ISZERO ISZERO PUSH1 0x60 SWAP1 SWAP2 ADD MSTORE SWAP2 SWAP1 POP JUMP JUMPDEST PUSH1 0xE0 DUP2 MSTORE PUSH1 0x0 PUSH2 0x2DF4 PUSH1 0xE0 DUP4 ADD DUP11 PUSH2 0x2B96 JUMP JUMPDEST DUP9 PUSH1 0x20 DUP5 ADD MSTORE DUP8 PUSH1 0x40 DUP5 ADD MSTORE DUP7 ISZERO ISZERO PUSH1 0x60 DUP5 ADD MSTORE DUP3 DUP2 SUB PUSH1 0x80 DUP5 ADD MSTORE PUSH2 0x2E1A DUP2 DUP8 PUSH2 0x2B96 JUMP JUMPDEST SWAP1 POP DUP3 DUP2 SUB PUSH1 0xA0 DUP5 ADD MSTORE PUSH2 0x2E2E DUP2 DUP7 PUSH2 0x2B96 JUMP JUMPDEST SWAP2 POP POP DUP3 PUSH1 0xC0 DUP4 ADD MSTORE SWAP9 SWAP8 POP POP POP POP POP POP POP POP JUMP JUMPDEST PUSH1 0x20 DUP1 DUP3 MSTORE PUSH1 0x17 SWAP1 DUP3 ADD MSTORE PUSH23 0x115C9C9BDC8E88125B9D985B1A59081C185CDCDDDBDC99 PUSH1 0x4A SHL PUSH1 0x40 DUP3 ADD MSTORE PUSH1 0x60 ADD SWAP1 JUMP JUMPDEST PUSH1 0x20 DUP1 DUP3 MSTORE PUSH1 0x19 SWAP1 DUP3 ADD MSTORE PUSH25 0x115C9C9BDC8E88155CD95C88191BD95CDB89DD08195E1A5CDD PUSH1 0x3A SHL PUSH1 0x40 DUP3 ADD MSTORE PUSH1 0x60 ADD SWAP1 JUMP JUMPDEST PUSH1 0x20 DUP1 DUP3 MSTORE PUSH1 0x1F SWAP1 DUP3 ADD MSTORE PUSH32 0x6572726F723A2074686973206973206E6F7420796F75722070726F6475637400 PUSH1 0x40 DUP3 ADD MSTORE PUSH1 0x60 ADD SWAP1 JUMP JUMPDEST PUSH1 0x20 DUP1 DUP3 MSTORE PUSH1 0x1D SWAP1 DUP3 ADD MSTORE PUSH32 0x4572726F723A20596F752061726520616C7265616479206C6F67676564000000 PUSH1 0x40 DUP3 ADD MSTORE PUSH1 0x60 ADD SWAP1 JUMP JUMPDEST PUSH1 0x40 MLOAD PUSH1 0x1F DUP3 ADD PUSH1 0x1F NOT AND DUP2 ADD PUSH1 0x1 PUSH1 0x1 PUSH1 0x40 SHL SUB DUP2 GT DUP3 DUP3 LT OR ISZERO PUSH2 0x2F3D JUMPI PUSH2 0x2F3D PUSH2 0x304C JUMP JUMPDEST PUSH1 0x40 MSTORE SWAP2 SWAP1 POP JUMP JUMPDEST PUSH1 0x0 DUP3 NOT DUP3 GT ISZERO PUSH2 0x2F58 JUMPI PUSH2 0x2F58 PUSH2 0x3020 JUMP JUMPDEST POP ADD SWAP1 JUMP JUMPDEST PUSH1 0x0 DUP3 PUSH2 0x2F7A JUMPI PUSH4 0x4E487B71 PUSH1 0xE0 SHL PUSH1 0x0 MSTORE PUSH1 0x12 PUSH1 0x4 MSTORE PUSH1 0x24 PUSH1 0x0 REVERT JUMPDEST POP DIV SWAP1 JUMP JUMPDEST PUSH1 0x0 DUP2 PUSH1 0x0 NOT DIV DUP4 GT DUP3 ISZERO ISZERO AND ISZERO PUSH2 0x2F99 JUMPI PUSH2 0x2F99 PUSH2 0x3020 JUMP JUMPDEST POP MUL SWAP1 JUMP JUMPDEST PUSH1 0x0 JUMPDEST DUP4 DUP2 LT ISZERO PUSH2 0x2FB9 JUMPI DUP2 DUP2 ADD MLOAD DUP4 DUP3 ADD MSTORE PUSH1 0x20 ADD PUSH2 0x2FA1 JUMP JUMPDEST DUP4 DUP2 GT ISZERO PUSH2 0x228C JUMPI POP POP PUSH1 0x0 SWAP2 ADD MSTORE JUMP JUMPDEST PUSH1 0x1 DUP2 DUP2 SHR SWAP1 DUP3 AND DUP1 PUSH2 0x2FDE JUMPI PUSH1 0x7F DUP3 AND SWAP2 POP JUMPDEST PUSH1 0x20 DUP3 LT DUP2 EQ ISZERO PUSH2 0x2FFF JUMPI PUSH4 0x4E487B71 PUSH1 0xE0 SHL PUSH1 0x0 MSTORE PUSH1 0x22 PUSH1 0x4 MSTORE PUSH1 0x24 PUSH1 0x0 REVERT JUMPDEST POP SWAP2 SWAP1 POP JUMP JUMPDEST PUSH1 0x0 PUSH1 0x0 NOT DUP3 EQ ISZERO PUSH2 0x3019 JUMPI PUSH2 0x3019 PUSH2 0x3020 JUMP JUMPDEST POP PUSH1 0x1 ADD SWAP1 JUMP JUMPDEST PUSH4 0x4E487B71 PUSH1 0xE0 SHL PUSH1 0x0 MSTORE PUSH1 0x11 PUSH1 0x4 MSTORE PUSH1 0x24 PUSH1 0x0 REVERT JUMPDEST PUSH4 0x4E487B71 PUSH1 0xE0 SHL PUSH1 0x0 MSTORE PUSH1 0x32 PUSH1 0x4 MSTORE PUSH1 0x24 PUSH1 0x0 REVERT JUMPDEST PUSH4 0x4E487B71 PUSH1 0xE0 SHL PUSH1 0x0 MSTORE PUSH1 0x41 PUSH1 0x4 MSTORE PUSH1 0x24 PUSH1 0x0 REVERT INVALID LOG2 PUSH5 0x6970667358 0x22 SLT KECCAK256 DUP2 GASPRICE 0x2D EXTCODEHASH PUSH14 0x2B30967D2EBC91F837EFEF4BBCA4 SWAP3 0xC9 PUSH4 0x9023D723 CALL COINBASE 0xF7 0xBF LT 0xB2 PUSH5 0x736F6C6343 STOP ADDMOD SMOD STOP CALLER 0xB5 0xB2 0xE7 PUSH32 0x7CC5F741808C088FC930A78382CBC738160D08C471B4672FC39743AA405787FA SLT 0xA8 0x23 0xE0 CALLCODE 0xB7 PUSH4 0x1CC41B3B 0xA8 DUP3 DUP12 CALLER 0x21 0xCA DUP2 GT GT STATICCALL PUSH22 0xCD3AA3BB5ACE6E1540171B6C0C960B71A7020D9F6007 PUSH32 0x6AF931A8BBF590DA0223DACF75C7AF418456BA3C801FD0A494A221A407852A26 0xDB CHAINID 0xC4 0xF8 CODECOPY MLOAD TIMESTAMP JUMP JUMPDEST EXTCODESIZE EXTCODECOPY 0xD0 PUSH6 0x3B9900000000 "
				},
				"gasEstimates": {
					"creation": {
						"codeDepositCost": "2488000",
						"executionCost": "infinite",
						"totalCost": "infinite"
					},
					"external": {
						"acceptMarriage(uint256,bool)": "infinite",
						"acceptPurchase(uint256,bool)": "infinite",
						"acceptReturn(uint256,bool)": "infinite",
						"addProductShop(string,uint256,string)": "infinite",
						"check_logged_shop(string)": "infinite",
						"check_logged_user(string)": "infinite",
						"create_user(address,string,bytes32)": "infinite",
						"getStoryRating(string)": "infinite",
						"get_address(string)": "infinite",
						"get_balance(address)": "3067",
						"get_city(string)": "infinite",
						"get_hash(string)": "infinite",
						"get_product_list()": "infinite",
						"get_product_list_for_login(string)": "infinite",
						"get_role_shop(string)": "infinite",
						"get_role_user(string)": "infinite",
						"get_shop_list()": "infinite",
						"leaveComment(string,string[])": "infinite",
						"leaveFeedback(string,string,uint256)": "infinite",
						"login_out_shop(string)": "infinite",
						"login_out_user(string)": "infinite",
						"login_shop(string,bytes32)": "infinite",
						"login_user(string,bytes32)": "infinite",
						"productMarriage(string)": "infinite",
						"productPurchases(string)": "infinite",
						"productReturn(string)": "infinite",
						"refusalToPurchase(uint256)": "infinite",
						"shopLists(string)": "infinite",
						"structProducts(string)": "infinite",
						"structShops(address)": "infinite",
						"structStatusMarriages(uint256)": "infinite",
						"structStatusPurchases(uint256)": "infinite",
						"structStatusReturns(uint256)": "infinite",
						"structUserLogins(string)": "infinite",
						"structUsers(address)": "infinite"
					}
				},
				"methodIdentifiers": {
					"acceptMarriage(uint256,bool)": "87048043",
					"acceptPurchase(uint256,bool)": "0c72b1ec",
					"acceptReturn(uint256,bool)": "2ccdef7c",
					"addProductShop(string,uint256,string)": "6c05dd1d",
					"check_logged_shop(string)": "3b84aedc",
					"check_logged_user(string)": "5bbc9a3f",
					"create_user(address,string,bytes32)": "0e1c81b2",
					"getStoryRating(string)": "a985036d",
					"get_address(string)": "6ba44d3c",
					"get_balance(address)": "1e279a37",
					"get_city(string)": "55149fd5",
					"get_hash(string)": "845952a8",
					"get_product_list()": "5bd37c9e",
					"get_product_list_for_login(string)": "de3ab424",
					"get_role_shop(string)": "033ff0b8",
					"get_role_user(string)": "5bdb63fa",
					"get_shop_list()": "1f8daac8",
					"leaveComment(string,string[])": "29e795f3",
					"leaveFeedback(string,string,uint256)": "cc21c188",
					"login_out_shop(string)": "04ac16f6",
					"login_out_user(string)": "521b9170",
					"login_shop(string,bytes32)": "775eb9e6",
					"login_user(string,bytes32)": "d22d9020",
					"productMarriage(string)": "5828c584",
					"productPurchases(string)": "146dc6ed",
					"productReturn(string)": "bbd43363",
					"refusalToPurchase(uint256)": "7033a382",
					"shopLists(string)": "c4957fa0",
					"structProducts(string)": "d68cf8c1",
					"structShops(address)": "8e23cb40",
					"structStatusMarriages(uint256)": "73b62bd0",
					"structStatusPurchases(uint256)": "dce39151",
					"structStatusReturns(uint256)": "a9f9482b",
					"structUserLogins(string)": "1bbe970a",
					"structUsers(address)": "961865f0"
				}
			},
			"storageLayout": {
				"storage": [
					{
						"astId": 404,
						"contract": "Documents/GitHub/Store-system-with-feedback/main.sol:coursepaper",
						"label": "structShops",
						"offset": 0,
						"slot": "0",
						"type": "t_mapping(t_address,t_struct(structShop)399_storage)"
					},
					{
						"astId": 408,
						"contract": "Documents/GitHub/Store-system-with-feedback/main.sol:coursepaper",
						"label": "shopLists",
						"offset": 0,
						"slot": "1",
						"type": "t_mapping(t_string_memory_ptr,t_address)"
					},
					{
						"astId": 411,
						"contract": "Documents/GitHub/Store-system-with-feedback/main.sol:coursepaper",
						"label": "shopList",
						"offset": 0,
						"slot": "2",
						"type": "t_array(t_string_storage)dyn_storage"
					},
					{
						"astId": 427,
						"contract": "Documents/GitHub/Store-system-with-feedback/main.sol:coursepaper",
						"label": "complaintBooks",
						"offset": 0,
						"slot": "3",
						"type": "t_array(t_struct(complaintBook)423_storage)dyn_storage"
					},
					{
						"astId": 441,
						"contract": "Documents/GitHub/Store-system-with-feedback/main.sol:coursepaper",
						"label": "structUsers",
						"offset": 0,
						"slot": "4",
						"type": "t_mapping(t_address,t_struct(structUser)436_storage)"
					},
					{
						"astId": 445,
						"contract": "Documents/GitHub/Store-system-with-feedback/main.sol:coursepaper",
						"label": "structUserLogins",
						"offset": 0,
						"slot": "5",
						"type": "t_mapping(t_string_memory_ptr,t_address)"
					},
					{
						"astId": 448,
						"contract": "Documents/GitHub/Store-system-with-feedback/main.sol:coursepaper",
						"label": "userLoginsArray",
						"offset": 0,
						"slot": "6",
						"type": "t_array(t_string_storage)dyn_storage"
					},
					{
						"astId": 451,
						"contract": "Documents/GitHub/Store-system-with-feedback/main.sol:coursepaper",
						"label": "userAddressArray",
						"offset": 0,
						"slot": "7",
						"type": "t_array(t_address)dyn_storage"
					},
					{
						"astId": 465,
						"contract": "Documents/GitHub/Store-system-with-feedback/main.sol:coursepaper",
						"label": "structProducts",
						"offset": 0,
						"slot": "8",
						"type": "t_mapping(t_string_memory_ptr,t_struct(structProduct)460_storage)"
					},
					{
						"astId": 468,
						"contract": "Documents/GitHub/Store-system-with-feedback/main.sol:coursepaper",
						"label": "productList",
						"offset": 0,
						"slot": "9",
						"type": "t_array(t_string_storage)dyn_storage"
					},
					{
						"astId": 481,
						"contract": "Documents/GitHub/Store-system-with-feedback/main.sol:coursepaper",
						"label": "structStatusPurchases",
						"offset": 0,
						"slot": "10",
						"type": "t_array(t_struct(structStatusPurchase)477_storage)dyn_storage"
					},
					{
						"astId": 492,
						"contract": "Documents/GitHub/Store-system-with-feedback/main.sol:coursepaper",
						"label": "structStatusReturns",
						"offset": 0,
						"slot": "11",
						"type": "t_array(t_struct(structStatusReturn)488_storage)dyn_storage"
					},
					{
						"astId": 503,
						"contract": "Documents/GitHub/Store-system-with-feedback/main.sol:coursepaper",
						"label": "structStatusMarriages",
						"offset": 0,
						"slot": "12",
						"type": "t_array(t_struct(structStatusMarriage)499_storage)dyn_storage"
					},
					{
						"astId": 506,
						"contract": "Documents/GitHub/Store-system-with-feedback/main.sol:coursepaper",
						"label": "addProductShop_idProduct",
						"offset": 0,
						"slot": "13",
						"type": "t_uint256"
					}
				],
				"types": {
					"t_address": {
						"encoding": "inplace",
						"label": "address",
						"numberOfBytes": "20"
					},
					"t_array(t_address)dyn_storage": {
						"base": "t_address",
						"encoding": "dynamic_array",
						"label": "address[]",
						"numberOfBytes": "32"
					},
					"t_array(t_string_storage)dyn_storage": {
						"base": "t_string_storage",
						"encoding": "dynamic_array",
						"label": "string[]",
						"numberOfBytes": "32"
					},
					"t_array(t_struct(complaintBook)423_storage)dyn_storage": {
						"base": "t_struct(complaintBook)423_storage",
						"encoding": "dynamic_array",
						"label": "struct coursepaper.complaintBook[]",
						"numberOfBytes": "32"
					},
					"t_array(t_struct(structStatusMarriage)499_storage)dyn_storage": {
						"base": "t_struct(structStatusMarriage)499_storage",
						"encoding": "dynamic_array",
						"label": "struct coursepaper.structStatusMarriage[]",
						"numberOfBytes": "32"
					},
					"t_array(t_struct(structStatusPurchase)477_storage)dyn_storage": {
						"base": "t_struct(structStatusPurchase)477_storage",
						"encoding": "dynamic_array",
						"label": "struct coursepaper.structStatusPurchase[]",
						"numberOfBytes": "32"
					},
					"t_array(t_struct(structStatusReturn)488_storage)dyn_storage": {
						"base": "t_struct(structStatusReturn)488_storage",
						"encoding": "dynamic_array",
						"label": "struct coursepaper.structStatusReturn[]",
						"numberOfBytes": "32"
					},
					"t_bool": {
						"encoding": "inplace",
						"label": "bool",
						"numberOfBytes": "1"
					},
					"t_bytes32": {
						"encoding": "inplace",
						"label": "bytes32",
						"numberOfBytes": "32"
					},
					"t_mapping(t_address,t_struct(structShop)399_storage)": {
						"encoding": "mapping",
						"key": "t_address",
						"label": "mapping(address => struct coursepaper.structShop)",
						"numberOfBytes": "32",
						"value": "t_struct(structShop)399_storage"
					},
					"t_mapping(t_address,t_struct(structUser)436_storage)": {
						"encoding": "mapping",
						"key": "t_address",
						"label": "mapping(address => struct coursepaper.structUser)",
						"numberOfBytes": "32",
						"value": "t_struct(structUser)436_storage"
					},
					"t_mapping(t_string_memory_ptr,t_address)": {
						"encoding": "mapping",
						"key": "t_string_memory_ptr",
						"label": "mapping(string => address)",
						"numberOfBytes": "32",
						"value": "t_address"
					},
					"t_mapping(t_string_memory_ptr,t_struct(structProduct)460_storage)": {
						"encoding": "mapping",
						"key": "t_string_memory_ptr",
						"label": "mapping(string => struct coursepaper.structProduct)",
						"numberOfBytes": "32",
						"value": "t_struct(structProduct)460_storage"
					},
					"t_string_memory_ptr": {
						"encoding": "bytes",
						"label": "string",
						"numberOfBytes": "32"
					},
					"t_string_storage": {
						"encoding": "bytes",
						"label": "string",
						"numberOfBytes": "32"
					},
					"t_struct(complaintBook)423_storage": {
						"encoding": "inplace",
						"label": "struct coursepaper.complaintBook",
						"members": [
							{
								"astId": 413,
								"contract": "Documents/GitHub/Store-system-with-feedback/main.sol:coursepaper",
								"label": "shop",
								"offset": 0,
								"slot": "0",
								"type": "t_string_storage"
							},
							{
								"astId": 415,
								"contract": "Documents/GitHub/Store-system-with-feedback/main.sol:coursepaper",
								"label": "userName",
								"offset": 0,
								"slot": "1",
								"type": "t_string_storage"
							},
							{
								"astId": 417,
								"contract": "Documents/GitHub/Store-system-with-feedback/main.sol:coursepaper",
								"label": "feedback",
								"offset": 0,
								"slot": "2",
								"type": "t_string_storage"
							},
							{
								"astId": 419,
								"contract": "Documents/GitHub/Store-system-with-feedback/main.sol:coursepaper",
								"label": "rating",
								"offset": 0,
								"slot": "3",
								"type": "t_uint256"
							},
							{
								"astId": 422,
								"contract": "Documents/GitHub/Store-system-with-feedback/main.sol:coursepaper",
								"label": "comments",
								"offset": 0,
								"slot": "4",
								"type": "t_array(t_string_storage)dyn_storage"
							}
						],
						"numberOfBytes": "160"
					},
					"t_struct(structProduct)460_storage": {
						"encoding": "inplace",
						"label": "struct coursepaper.structProduct",
						"members": [
							{
								"astId": 453,
								"contract": "Documents/GitHub/Store-system-with-feedback/main.sol:coursepaper",
								"label": "shop",
								"offset": 0,
								"slot": "0",
								"type": "t_address"
							},
							{
								"astId": 455,
								"contract": "Documents/GitHub/Store-system-with-feedback/main.sol:coursepaper",
								"label": "description",
								"offset": 0,
								"slot": "1",
								"type": "t_string_storage"
							},
							{
								"astId": 457,
								"contract": "Documents/GitHub/Store-system-with-feedback/main.sol:coursepaper",
								"label": "price",
								"offset": 0,
								"slot": "2",
								"type": "t_uint256"
							},
							{
								"astId": 459,
								"contract": "Documents/GitHub/Store-system-with-feedback/main.sol:coursepaper",
								"label": "id",
								"offset": 0,
								"slot": "3",
								"type": "t_uint256"
							}
						],
						"numberOfBytes": "128"
					},
					"t_struct(structShop)399_storage": {
						"encoding": "inplace",
						"label": "struct coursepaper.structShop",
						"members": [
							{
								"astId": 386,
								"contract": "Documents/GitHub/Store-system-with-feedback/main.sol:coursepaper",
								"label": "shopName",
								"offset": 0,
								"slot": "0",
								"type": "t_string_storage"
							},
							{
								"astId": 388,
								"contract": "Documents/GitHub/Store-system-with-feedback/main.sol:coursepaper",
								"label": "password",
								"offset": 0,
								"slot": "1",
								"type": "t_bytes32"
							},
							{
								"astId": 390,
								"contract": "Documents/GitHub/Store-system-with-feedback/main.sol:coursepaper",
								"label": "role",
								"offset": 0,
								"slot": "2",
								"type": "t_uint256"
							},
							{
								"astId": 392,
								"contract": "Documents/GitHub/Store-system-with-feedback/main.sol:coursepaper",
								"label": "logged",
								"offset": 0,
								"slot": "3",
								"type": "t_bool"
							},
							{
								"astId": 394,
								"contract": "Documents/GitHub/Store-system-with-feedback/main.sol:coursepaper",
								"label": "number",
								"offset": 0,
								"slot": "4",
								"type": "t_string_storage"
							},
							{
								"astId": 396,
								"contract": "Documents/GitHub/Store-system-with-feedback/main.sol:coursepaper",
								"label": "city",
								"offset": 0,
								"slot": "5",
								"type": "t_string_storage"
							},
							{
								"astId": 398,
								"contract": "Documents/GitHub/Store-system-with-feedback/main.sol:coursepaper",
								"label": "rating",
								"offset": 0,
								"slot": "6",
								"type": "t_uint256"
							}
						],
						"numberOfBytes": "224"
					},
					"t_struct(structStatusMarriage)499_storage": {
						"encoding": "inplace",
						"label": "struct coursepaper.structStatusMarriage",
						"members": [
							{
								"astId": 494,
								"contract": "Documents/GitHub/Store-system-with-feedback/main.sol:coursepaper",
								"label": "userLogin",
								"offset": 0,
								"slot": "0",
								"type": "t_address"
							},
							{
								"astId": 496,
								"contract": "Documents/GitHub/Store-system-with-feedback/main.sol:coursepaper",
								"label": "titleProduct",
								"offset": 0,
								"slot": "1",
								"type": "t_string_storage"
							},
							{
								"astId": 498,
								"contract": "Documents/GitHub/Store-system-with-feedback/main.sol:coursepaper",
								"label": "status",
								"offset": 0,
								"slot": "2",
								"type": "t_bool"
							}
						],
						"numberOfBytes": "96"
					},
					"t_struct(structStatusPurchase)477_storage": {
						"encoding": "inplace",
						"label": "struct coursepaper.structStatusPurchase",
						"members": [
							{
								"astId": 470,
								"contract": "Documents/GitHub/Store-system-with-feedback/main.sol:coursepaper",
								"label": "userLogin",
								"offset": 0,
								"slot": "0",
								"type": "t_address"
							},
							{
								"astId": 472,
								"contract": "Documents/GitHub/Store-system-with-feedback/main.sol:coursepaper",
								"label": "titleProduct",
								"offset": 0,
								"slot": "1",
								"type": "t_string_storage"
							},
							{
								"astId": 474,
								"contract": "Documents/GitHub/Store-system-with-feedback/main.sol:coursepaper",
								"label": "price",
								"offset": 0,
								"slot": "2",
								"type": "t_uint256"
							},
							{
								"astId": 476,
								"contract": "Documents/GitHub/Store-system-with-feedback/main.sol:coursepaper",
								"label": "status",
								"offset": 0,
								"slot": "3",
								"type": "t_bool"
							}
						],
						"numberOfBytes": "128"
					},
					"t_struct(structStatusReturn)488_storage": {
						"encoding": "inplace",
						"label": "struct coursepaper.structStatusReturn",
						"members": [
							{
								"astId": 483,
								"contract": "Documents/GitHub/Store-system-with-feedback/main.sol:coursepaper",
								"label": "userLogin",
								"offset": 0,
								"slot": "0",
								"type": "t_address"
							},
							{
								"astId": 485,
								"contract": "Documents/GitHub/Store-system-with-feedback/main.sol:coursepaper",
								"label": "titleProduct",
								"offset": 0,
								"slot": "1",
								"type": "t_string_storage"
							},
							{
								"astId": 487,
								"contract": "Documents/GitHub/Store-system-with-feedback/main.sol:coursepaper",
								"label": "status",
								"offset": 0,
								"slot": "2",
								"type": "t_bool"
							}
						],
						"numberOfBytes": "96"
					},
					"t_struct(structUser)436_storage": {
						"encoding": "inplace",
						"label": "struct coursepaper.structUser",
						"members": [
							{
								"astId": 429,
								"contract": "Documents/GitHub/Store-system-with-feedback/main.sol:coursepaper",
								"label": "userName",
								"offset": 0,
								"slot": "0",
								"type": "t_string_storage"
							},
							{
								"astId": 431,
								"contract": "Documents/GitHub/Store-system-with-feedback/main.sol:coursepaper",
								"label": "password",
								"offset": 0,
								"slot": "1",
								"type": "t_bytes32"
							},
							{
								"astId": 433,
								"contract": "Documents/GitHub/Store-system-with-feedback/main.sol:coursepaper",
								"label": "role",
								"offset": 0,
								"slot": "2",
								"type": "t_uint256"
							},
							{
								"astId": 435,
								"contract": "Documents/GitHub/Store-system-with-feedback/main.sol:coursepaper",
								"label": "logged",
								"offset": 0,
								"slot": "3",
								"type": "t_bool"
							}
						],
						"numberOfBytes": "128"
					},
					"t_uint256": {
						"encoding": "inplace",
						"label": "uint256",
						"numberOfBytes": "32"
					}
				}
			},
			"userdoc": {
				"kind": "user",
				"methods": {},
				"version": 1
			}
		}
	}
}