{
	"Documents/GitHub/Store-system-with-feedback/main.sol": {
		"coursepaper": {
			"abi": [
				{
					"inputs": [],
					"stateMutability": "nonpayable",
					"type": "constructor"
				},
				{
					"inputs": [
						{
							"internalType": "uint256",
							"name": "idMarriage",
							"type": "uint256"
						},
						{
							"internalType": "bool",
							"name": "confirmation",
							"type": "bool"
						}
					],
					"name": "acceptMarriage",
					"outputs": [],
					"stateMutability": "payable",
					"type": "function"
				},
				{
					"inputs": [
						{
							"internalType": "uint256",
							"name": "idPurchase",
							"type": "uint256"
						},
						{
							"internalType": "bool",
							"name": "confirmation",
							"type": "bool"
						}
					],
					"name": "acceptPurchase",
					"outputs": [],
					"stateMutability": "payable",
					"type": "function"
				},
				{
					"inputs": [
						{
							"internalType": "uint256",
							"name": "idReturn",
							"type": "uint256"
						},
						{
							"internalType": "bool",
							"name": "confirmation",
							"type": "bool"
						}
					],
					"name": "acceptReturn",
					"outputs": [],
					"stateMutability": "payable",
					"type": "function"
				},
				{
					"inputs": [
						{
							"internalType": "string",
							"name": "title",
							"type": "string"
						},
						{
							"internalType": "uint256",
							"name": "price",
							"type": "uint256"
						},
						{
							"internalType": "string",
							"name": "description",
							"type": "string"
						}
					],
					"name": "addProductShop",
					"outputs": [],
					"stateMutability": "nonpayable",
					"type": "function"
				},
				{
					"inputs": [
						{
							"internalType": "string",
							"name": "login",
							"type": "string"
						}
					],
					"name": "check_logged_shop",
					"outputs": [
						{
							"internalType": "bool",
							"name": "",
							"type": "bool"
						}
					],
					"stateMutability": "view",
					"type": "function"
				},
				{
					"inputs": [
						{
							"internalType": "string",
							"name": "login",
							"type": "string"
						}
					],
					"name": "check_logged_user",
					"outputs": [
						{
							"internalType": "bool",
							"name": "",
							"type": "bool"
						}
					],
					"stateMutability": "view",
					"type": "function"
				},
				{
					"inputs": [
						{
							"internalType": "address",
							"name": "addr",
							"type": "address"
						},
						{
							"internalType": "string",
							"name": "login",
							"type": "string"
						},
						{
							"internalType": "bytes32",
							"name": "password",
							"type": "bytes32"
						}
					],
					"name": "create_user",
					"outputs": [],
					"stateMutability": "nonpayable",
					"type": "function"
				},
				{
					"inputs": [
						{
							"internalType": "string",
							"name": "shopName",
							"type": "string"
						}
					],
					"name": "getStoryRating",
					"outputs": [
						{
							"internalType": "uint256",
							"name": "",
							"type": "uint256"
						}
					],
					"stateMutability": "view",
					"type": "function"
				},
				{
					"inputs": [
						{
							"internalType": "string",
							"name": "login",
							"type": "string"
						}
					],
					"name": "get_address",
					"outputs": [
						{
							"internalType": "address",
							"name": "",
							"type": "address"
						}
					],
					"stateMutability": "view",
					"type": "function"
				},
				{
					"inputs": [
						{
							"internalType": "address",
							"name": "adr",
							"type": "address"
						}
					],
					"name": "get_balance",
					"outputs": [
						{
							"internalType": "uint256",
							"name": "",
							"type": "uint256"
						}
					],
					"stateMutability": "view",
					"type": "function"
				},
				{
					"inputs": [
						{
							"internalType": "string",
							"name": "login",
							"type": "string"
						}
					],
					"name": "get_city",
					"outputs": [
						{
							"internalType": "string",
							"name": "",
							"type": "string"
						}
					],
					"stateMutability": "view",
					"type": "function"
				},
				{
					"inputs": [
						{
							"internalType": "string",
							"name": "password",
							"type": "string"
						}
					],
					"name": "get_hash",
					"outputs": [
						{
							"internalType": "bytes32",
							"name": "",
							"type": "bytes32"
						}
					],
					"stateMutability": "pure",
					"type": "function"
				},
				{
					"inputs": [
						{
							"internalType": "string",
							"name": "login",
							"type": "string"
						}
					],
					"name": "get_product_list",
					"outputs": [
						{
							"internalType": "string[]",
							"name": "",
							"type": "string[]"
						}
					],
					"stateMutability": "view",
					"type": "function"
				},
				{
					"inputs": [
						{
							"internalType": "string",
							"name": "login",
							"type": "string"
						}
					],
					"name": "get_role_shop",
					"outputs": [
						{
							"internalType": "uint256",
							"name": "",
							"type": "uint256"
						}
					],
					"stateMutability": "view",
					"type": "function"
				},
				{
					"inputs": [
						{
							"internalType": "string",
							"name": "login",
							"type": "string"
						}
					],
					"name": "get_role_user",
					"outputs": [
						{
							"internalType": "uint256",
							"name": "",
							"type": "uint256"
						}
					],
					"stateMutability": "view",
					"type": "function"
				},
				{
					"inputs": [],
					"name": "get_shop_list",
					"outputs": [
						{
							"internalType": "string[]",
							"name": "",
							"type": "string[]"
						}
					],
					"stateMutability": "view",
					"type": "function"
				},
				{
					"inputs": [
						{
							"internalType": "string",
							"name": "userName",
							"type": "string"
						},
						{
							"internalType": "string[]",
							"name": "comment",
							"type": "string[]"
						}
					],
					"name": "leaveComment",
					"outputs": [],
					"stateMutability": "nonpayable",
					"type": "function"
				},
				{
					"inputs": [
						{
							"internalType": "string",
							"name": "shop",
							"type": "string"
						},
						{
							"internalType": "string",
							"name": "feedback",
							"type": "string"
						},
						{
							"internalType": "uint256",
							"name": "rating",
							"type": "uint256"
						}
					],
					"name": "leaveFeedback",
					"outputs": [],
					"stateMutability": "nonpayable",
					"type": "function"
				},
				{
					"inputs": [
						{
							"internalType": "string",
							"name": "login",
							"type": "string"
						}
					],
					"name": "login_out_shop",
					"outputs": [],
					"stateMutability": "nonpayable",
					"type": "function"
				},
				{
					"inputs": [
						{
							"internalType": "string",
							"name": "login",
							"type": "string"
						}
					],
					"name": "login_out_user",
					"outputs": [],
					"stateMutability": "nonpayable",
					"type": "function"
				},
				{
					"inputs": [
						{
							"internalType": "string",
							"name": "login",
							"type": "string"
						},
						{
							"internalType": "bytes32",
							"name": "password",
							"type": "bytes32"
						}
					],
					"name": "login_shop",
					"outputs": [],
					"stateMutability": "nonpayable",
					"type": "function"
				},
				{
					"inputs": [
						{
							"internalType": "string",
							"name": "login",
							"type": "string"
						},
						{
							"internalType": "bytes32",
							"name": "password",
							"type": "bytes32"
						}
					],
					"name": "login_user",
					"outputs": [],
					"stateMutability": "nonpayable",
					"type": "function"
				},
				{
					"inputs": [
						{
							"internalType": "string",
							"name": "titleProduct",
							"type": "string"
						}
					],
					"name": "productMarriage",
					"outputs": [],
					"stateMutability": "nonpayable",
					"type": "function"
				},
				{
					"inputs": [
						{
							"internalType": "string",
							"name": "titleProduct",
							"type": "string"
						}
					],
					"name": "productPurchases",
					"outputs": [],
					"stateMutability": "payable",
					"type": "function"
				},
				{
					"inputs": [
						{
							"internalType": "string",
							"name": "titleProduct",
							"type": "string"
						}
					],
					"name": "productReturn",
					"outputs": [],
					"stateMutability": "nonpayable",
					"type": "function"
				},
				{
					"inputs": [
						{
							"internalType": "uint256",
							"name": "idPurchase",
							"type": "uint256"
						}
					],
					"name": "refusalToPurchase",
					"outputs": [],
					"stateMutability": "payable",
					"type": "function"
				},
				{
					"inputs": [
						{
							"internalType": "string",
							"name": "",
							"type": "string"
						}
					],
					"name": "shopLists",
					"outputs": [
						{
							"internalType": "address",
							"name": "",
							"type": "address"
						}
					],
					"stateMutability": "view",
					"type": "function"
				},
				{
					"inputs": [
						{
							"internalType": "string",
							"name": "",
							"type": "string"
						}
					],
					"name": "structProducts",
					"outputs": [
						{
							"internalType": "address",
							"name": "shop",
							"type": "address"
						},
						{
							"internalType": "string",
							"name": "description",
							"type": "string"
						},
						{
							"internalType": "uint256",
							"name": "price",
							"type": "uint256"
						},
						{
							"internalType": "uint256",
							"name": "id",
							"type": "uint256"
						}
					],
					"stateMutability": "view",
					"type": "function"
				},
				{
					"inputs": [
						{
							"internalType": "address",
							"name": "",
							"type": "address"
						}
					],
					"name": "structShops",
					"outputs": [
						{
							"internalType": "string",
							"name": "shopName",
							"type": "string"
						},
						{
							"internalType": "bytes32",
							"name": "password",
							"type": "bytes32"
						},
						{
							"internalType": "uint256",
							"name": "role",
							"type": "uint256"
						},
						{
							"internalType": "bool",
							"name": "logged",
							"type": "bool"
						},
						{
							"internalType": "string",
							"name": "number",
							"type": "string"
						},
						{
							"internalType": "string",
							"name": "city",
							"type": "string"
						},
						{
							"internalType": "uint256",
							"name": "rating",
							"type": "uint256"
						}
					],
					"stateMutability": "view",
					"type": "function"
				},
				{
					"inputs": [
						{
							"internalType": "uint256",
							"name": "",
							"type": "uint256"
						}
					],
					"name": "structStatusMarriages",
					"outputs": [
						{
							"internalType": "address",
							"name": "userLogin",
							"type": "address"
						},
						{
							"internalType": "string",
							"name": "titleProduct",
							"type": "string"
						},
						{
							"internalType": "bool",
							"name": "status",
							"type": "bool"
						}
					],
					"stateMutability": "view",
					"type": "function"
				},
				{
					"inputs": [
						{
							"internalType": "uint256",
							"name": "",
							"type": "uint256"
						}
					],
					"name": "structStatusPurchases",
					"outputs": [
						{
							"internalType": "address",
							"name": "userLogin",
							"type": "address"
						},
						{
							"internalType": "string",
							"name": "titleProduct",
							"type": "string"
						},
						{
							"internalType": "uint256",
							"name": "price",
							"type": "uint256"
						},
						{
							"internalType": "bool",
							"name": "status",
							"type": "bool"
						}
					],
					"stateMutability": "view",
					"type": "function"
				},
				{
					"inputs": [
						{
							"internalType": "uint256",
							"name": "",
							"type": "uint256"
						}
					],
					"name": "structStatusReturns",
					"outputs": [
						{
							"internalType": "address",
							"name": "userLogin",
							"type": "address"
						},
						{
							"internalType": "string",
							"name": "titleProduct",
							"type": "string"
						},
						{
							"internalType": "bool",
							"name": "status",
							"type": "bool"
						}
					],
					"stateMutability": "view",
					"type": "function"
				},
				{
					"inputs": [
						{
							"internalType": "string",
							"name": "",
							"type": "string"
						}
					],
					"name": "structUserLogins",
					"outputs": [
						{
							"internalType": "address",
							"name": "",
							"type": "address"
						}
					],
					"stateMutability": "view",
					"type": "function"
				},
				{
					"inputs": [
						{
							"internalType": "address",
							"name": "",
							"type": "address"
						}
					],
					"name": "structUsers",
					"outputs": [
						{
							"internalType": "string",
							"name": "userName",
							"type": "string"
						},
						{
							"internalType": "bytes32",
							"name": "password",
							"type": "bytes32"
						},
						{
							"internalType": "uint256",
							"name": "role",
							"type": "uint256"
						},
						{
							"internalType": "bool",
							"name": "logged",
							"type": "bool"
						}
					],
					"stateMutability": "view",
					"type": "function"
				}
			],
			"devdoc": {
				"kind": "dev",
				"methods": {},
				"version": 1
			},
			"evm": {
				"assembly": "    /* \"Documents/GitHub/Store-system-with-feedback/main.sol\":74:14973  contract coursepaper {\r... */\n  mstore(0x40, 0x80)\n    /* \"Documents/GitHub/Store-system-with-feedback/main.sol\":6869:6870  0 */\n  0x00\n    /* \"Documents/GitHub/Store-system-with-feedback/main.sol\":6834:6870  uint256 addProductShop_idProduct = 0 */\n  0x0d\n  sstore\n    /* \"Documents/GitHub/Store-system-with-feedback/main.sol\":125:1344  constructor() {\r... */\n  callvalue\n  dup1\n  iszero\n  tag_1\n  jumpi\n  0x00\n  dup1\n  revert\ntag_1:\n  pop\n    /* \"Documents/GitHub/Store-system-with-feedback/main.sol\":200:242  0x5412E9b0e4Ef9d1546DF79ae907eeE34bDCF3004 */\n  0x5412e9b0e4ef9d1546df79ae907eee34bdcf3004\n    /* \"Documents/GitHub/Store-system-with-feedback/main.sol\":180:189  shopLists */\n  0x01\n    /* \"Documents/GitHub/Store-system-with-feedback/main.sol\":180:197  shopLists[\"Beer\"] */\n  mload(0x40)\n  tag_4\n  swap1\n  shl(0xe1, 0x2132b2b9)\n    /* \"#utility.yul\":1430:1449   */\n  dup2\n  mstore\n    /* \"#utility.yul\":1474:1475   */\n  0x04\n    /* \"#utility.yul\":1465:1476   */\n  add\n  swap1\n    /* \"#utility.yul\":1228:1482   */\n  jump\n    /* \"Documents/GitHub/Store-system-with-feedback/main.sol\":180:197  shopLists[\"Beer\"] */\ntag_4:\n  swap1\n  dup2\n  mstore\n  0x40\n  dup1\n  mload\n  0x20\n  swap3\n  dup2\n  swap1\n  sub\n  dup4\n  add\n  dup2\n  keccak256\n    /* \"Documents/GitHub/Store-system-with-feedback/main.sol\":180:242  shopLists[\"Beer\"] = 0x5412E9b0e4Ef9d1546DF79ae907eeE34bDCF3004 */\n  dup1\n  sload\n  not(sub(shl(0xa0, 0x01), 0x01))\n  and\n  sub(shl(0xa0, 0x01), 0x01)\n  swap6\n  swap1\n  swap6\n  and\n  swap5\n  swap1\n  swap5\n  or\n  swap1\n  swap4\n  sstore\n    /* \"Documents/GitHub/Store-system-with-feedback/main.sol\":311:372  structShop(\"Beer\", get_hash(\"2\"), 3, false, \"1\", \"Moscow\", 0) */\n  0x0120\n  dup4\n  add\n  dup2\n  mstore\n  0x04\n  0xe0\n  dup5\n  add\n  swap1\n  dup2\n  mstore\n  shl(0xe1, 0x2132b2b9)\n    /* \"Documents/GitHub/Store-system-with-feedback/main.sol\":180:242  shopLists[\"Beer\"] = 0x5412E9b0e4Ef9d1546DF79ae907eeE34bDCF3004 */\n  0x0100\n    /* \"Documents/GitHub/Store-system-with-feedback/main.sol\":311:372  structShop(\"Beer\", get_hash(\"2\"), 3, false, \"1\", \"Moscow\", 0) */\n  dup6\n  add\n  mstore\n  dup4\n  mstore\n    /* \"Documents/GitHub/Store-system-with-feedback/main.sol\":330:343  get_hash(\"2\") */\n  dup1\n  mload\n  dup1\n  dup3\n  add\n  swap1\n  swap2\n  mstore\n  0x01\n  dup2\n  mstore\n  shl(0xf9, 0x19)\n  dup2\n  dup4\n  add\n  mstore\n    /* \"Documents/GitHub/Store-system-with-feedback/main.sol\":311:372  structShop(\"Beer\", get_hash(\"2\"), 3, false, \"1\", \"Moscow\", 0) */\n  swap1\n  dup3\n  add\n  swap1\n    /* \"Documents/GitHub/Store-system-with-feedback/main.sol\":330:343  get_hash(\"2\") */\n  tag_6\n  swap1\n    /* \"Documents/GitHub/Store-system-with-feedback/main.sol\":330:338  get_hash */\n  tag_7\n    /* \"Documents/GitHub/Store-system-with-feedback/main.sol\":330:343  get_hash(\"2\") */\n  jump\t// in\ntag_6:\n    /* \"Documents/GitHub/Store-system-with-feedback/main.sol\":311:372  structShop(\"Beer\", get_hash(\"2\"), 3, false, \"1\", \"Moscow\", 0) */\n  dup2\n  mstore\n    /* \"Documents/GitHub/Store-system-with-feedback/main.sol\":345:346  3 */\n  0x03\n    /* \"Documents/GitHub/Store-system-with-feedback/main.sol\":311:372  structShop(\"Beer\", get_hash(\"2\"), 3, false, \"1\", \"Moscow\", 0) */\n  0x20\n  dup1\n  dup4\n  add\n  swap2\n  swap1\n  swap2\n  mstore\n  0x00\n  0x40\n  dup1\n  dup5\n  add\n  dup3\n  swap1\n  mstore\n  dup1\n  mload\n  dup1\n  dup3\n  add\n  dup3\n  mstore\n  0x01\n  dup2\n  mstore\n  shl(0xf8, 0x31)\n  dup2\n  dup6\n  add\n  mstore\n  0x60\n  dup6\n  add\n  mstore\n  dup1\n  mload\n  dup1\n  dup3\n  add\n  swap1\n  swap2\n  mstore\n  0x06\n  dup2\n  mstore\n  shl(0xd0, 0x4d6f73636f77)\n  dup2\n  dup5\n  add\n  mstore\n  0x80\n  dup5\n  add\n  mstore\n  0xa0\n  swap1\n  swap3\n  add\n  dup3\n  swap1\n  mstore\n    /* \"Documents/GitHub/Store-system-with-feedback/main.sol\":265:307  0x5412E9b0e4Ef9d1546DF79ae907eeE34bDCF3004 */\n  0x5412e9b0e4ef9d1546df79ae907eee34bdcf3004\n    /* \"Documents/GitHub/Store-system-with-feedback/main.sol\":253:308  structShops[0x5412E9b0e4Ef9d1546DF79ae907eeE34bDCF3004] */\n  dup3\n  mstore\n  swap1\n  dup2\n  mstore\n    /* \"Documents/GitHub/Store-system-with-feedback/main.sol\":253:372  structShops[0x5412E9b0e4Ef9d1546DF79ae907eeE34bDCF3004] = structShop(\"Beer\", get_hash(\"2\"), 3, false, \"1\", \"Moscow\", 0) */\n  dup2\n  mload\n  dup1\n  mload\n  0x00\n  dup1\n  mload\n  0x20\n  data_f9525e0112460024fbe4d5a34594c1701ce0e90aeee55f3b18c9114979275102\n  dup4\n  codecopy\n  dup2\n  mload\n  swap2\n  mstore\n    /* \"Documents/GitHub/Store-system-with-feedback/main.sol\":253:308  structShops[0x5412E9b0e4Ef9d1546DF79ae907eeE34bDCF3004] */\n  swap3\n    /* \"Documents/GitHub/Store-system-with-feedback/main.sol\":253:372  structShops[0x5412E9b0e4Ef9d1546DF79ae907eeE34bDCF3004] = structShop(\"Beer\", get_hash(\"2\"), 3, false, \"1\", \"Moscow\", 0) */\n  tag_8\n  swap3\n    /* \"Documents/GitHub/Store-system-with-feedback/main.sol\":253:308  structShops[0x5412E9b0e4Ef9d1546DF79ae907eeE34bDCF3004] */\n  dup5\n  swap3\n    /* \"Documents/GitHub/Store-system-with-feedback/main.sol\":253:372  structShops[0x5412E9b0e4Ef9d1546DF79ae907eeE34bDCF3004] = structShop(\"Beer\", get_hash(\"2\"), 3, false, \"1\", \"Moscow\", 0) */\n  swap2\n  add\n  swap1\n  tag_9\n  jump\t// in\ntag_8:\n  pop\n  0x20\n  dup3\n  dup2\n  add\n  mload\n  0x01\n  dup4\n  add\n  sstore\n  0x40\n  dup4\n  add\n  mload\n  0x02\n  dup4\n  add\n  sstore\n  0x60\n  dup4\n  add\n  mload\n  0x03\n  dup4\n  add\n  dup1\n  sload\n  not(0xff)\n  and\n  swap2\n  iszero\n  iszero\n  swap2\n  swap1\n  swap2\n  or\n  swap1\n  sstore\n  0x80\n  dup4\n  add\n  mload\n  dup1\n  mload\n  tag_10\n  swap3\n  0x04\n  dup6\n  add\n  swap3\n  add\n  swap1\n  tag_9\n  jump\t// in\ntag_10:\n  pop\n  0xa0\n  dup3\n  add\n  mload\n  dup1\n  mload\n  tag_11\n  swap2\n  0x05\n  dup5\n  add\n  swap2\n  0x20\n  swap1\n  swap2\n  add\n  swap1\n  tag_9\n  jump\t// in\ntag_11:\n  pop\n  0xc0\n  swap2\n  swap1\n  swap2\n  add\n  mload\n  0x06\n  swap1\n  swap2\n  add\n  sstore\n    /* \"Documents/GitHub/Store-system-with-feedback/main.sol\":397:408  structShops */\n  0x00\n    /* \"Documents/GitHub/Store-system-with-feedback/main.sol\":397:452  structShops[0x5412E9b0e4Ef9d1546DF79ae907eeE34bDCF3004] */\n  0x20\n  dup2\n  swap1\n  mstore\n    /* \"Documents/GitHub/Store-system-with-feedback/main.sol\":383:391  shopList */\n  0x02\n    /* \"Documents/GitHub/Store-system-with-feedback/main.sol\":383:462  shopList.push(structShops[0x5412E9b0e4Ef9d1546DF79ae907eeE34bDCF3004].shopName) */\n  dup1\n  sload\n  0x01\n  dup2\n  add\n  dup3\n  sstore\n  swap2\n  mstore\n  0x00\n  dup1\n  mload\n  0x20\n  data_f9525e0112460024fbe4d5a34594c1701ce0e90aeee55f3b18c9114979275102\n  dup4\n  codecopy\n  dup2\n  mload\n  swap2\n  mstore\n  dup1\n  sload\n  0x00\n  dup1\n  mload\n  0x20\n  data_1ab0c6948a275349ae45a06aad66a8bd65ac18074615d53676c09b67809099e0\n  dup4\n  codecopy\n  dup2\n  mload\n  swap2\n  mstore\n  swap1\n  swap3\n  add\n  swap2\n  tag_13\n  swap1\n  tag_14\n  jump\t// in\ntag_13:\n  tag_15\n  swap3\n  swap2\n  swap1\n  tag_16\n  jump\t// in\ntag_15:\n  pop\n    /* \"Documents/GitHub/Store-system-with-feedback/main.sol\":496:538  0x49C364fedaD517382ee5A776d3071f11CfDE4C5c */\n  0x49c364fedad517382ee5a776d3071f11cfde4c5c\n    /* \"Documents/GitHub/Store-system-with-feedback/main.sol\":473:482  shopLists */\n  0x01\n    /* \"Documents/GitHub/Store-system-with-feedback/main.sol\":473:493  shopLists[\"Product\"] */\n  mload(0x40)\n  tag_17\n  swap1\n  shl(0xca, 0x141c9bd91d58dd)\n    /* \"#utility.yul\":1168:1190   */\n  dup2\n  mstore\n    /* \"#utility.yul\":1215:1216   */\n  0x07\n    /* \"#utility.yul\":1206:1217   */\n  add\n  swap1\n    /* \"#utility.yul\":966:1223   */\n  jump\n    /* \"Documents/GitHub/Store-system-with-feedback/main.sol\":473:493  shopLists[\"Product\"] */\ntag_17:\n  swap1\n  dup2\n  mstore\n  0x40\n  dup1\n  mload\n  0x20\n  swap3\n  dup2\n  swap1\n  sub\n  dup4\n  add\n  dup2\n  keccak256\n    /* \"Documents/GitHub/Store-system-with-feedback/main.sol\":473:538  shopLists[\"Product\"] = 0x49C364fedaD517382ee5A776d3071f11CfDE4C5c */\n  dup1\n  sload\n  not(sub(shl(0xa0, 0x01), 0x01))\n  and\n  sub(shl(0xa0, 0x01), 0x01)\n  swap6\n  swap1\n  swap6\n  and\n  swap5\n  swap1\n  swap5\n  or\n  swap1\n  swap4\n  sstore\n    /* \"Documents/GitHub/Store-system-with-feedback/main.sol\":607:675  structShop(\"Product\", get_hash(\"2\"), 3, false, \"2\", \"Petersburg\", 0) */\n  0x0120\n  dup4\n  add\n  dup2\n  mstore\n  0x07\n  0xe0\n  dup5\n  add\n  swap1\n  dup2\n  mstore\n  shl(0xca, 0x141c9bd91d58dd)\n    /* \"Documents/GitHub/Store-system-with-feedback/main.sol\":473:538  shopLists[\"Product\"] = 0x49C364fedaD517382ee5A776d3071f11CfDE4C5c */\n  0x0100\n    /* \"Documents/GitHub/Store-system-with-feedback/main.sol\":607:675  structShop(\"Product\", get_hash(\"2\"), 3, false, \"2\", \"Petersburg\", 0) */\n  dup6\n  add\n  mstore\n  dup4\n  mstore\n    /* \"Documents/GitHub/Store-system-with-feedback/main.sol\":629:642  get_hash(\"2\") */\n  dup1\n  mload\n  dup1\n  dup3\n  add\n  swap1\n  swap2\n  mstore\n  0x01\n  dup2\n  mstore\n  shl(0xf9, 0x19)\n  dup2\n  dup4\n  add\n  mstore\n    /* \"Documents/GitHub/Store-system-with-feedback/main.sol\":607:675  structShop(\"Product\", get_hash(\"2\"), 3, false, \"2\", \"Petersburg\", 0) */\n  swap1\n  dup3\n  add\n  swap1\n    /* \"Documents/GitHub/Store-system-with-feedback/main.sol\":629:642  get_hash(\"2\") */\n  tag_19\n  swap1\n    /* \"Documents/GitHub/Store-system-with-feedback/main.sol\":629:637  get_hash */\n  tag_7\n    /* \"Documents/GitHub/Store-system-with-feedback/main.sol\":629:642  get_hash(\"2\") */\n  jump\t// in\ntag_19:\n    /* \"Documents/GitHub/Store-system-with-feedback/main.sol\":607:675  structShop(\"Product\", get_hash(\"2\"), 3, false, \"2\", \"Petersburg\", 0) */\n  dup2\n  mstore\n    /* \"Documents/GitHub/Store-system-with-feedback/main.sol\":644:645  3 */\n  0x03\n    /* \"Documents/GitHub/Store-system-with-feedback/main.sol\":607:675  structShop(\"Product\", get_hash(\"2\"), 3, false, \"2\", \"Petersburg\", 0) */\n  0x20\n  dup1\n  dup4\n  add\n  swap2\n  swap1\n  swap2\n  mstore\n  0x00\n  0x40\n  dup1\n  dup5\n  add\n  dup3\n  swap1\n  mstore\n  dup1\n  mload\n  dup1\n  dup3\n  add\n  dup3\n  mstore\n  0x01\n  dup2\n  mstore\n  shl(0xf9, 0x19)\n  dup2\n  dup6\n  add\n  mstore\n  0x60\n  dup6\n  add\n  mstore\n  dup1\n  mload\n  dup1\n  dup3\n  add\n  swap1\n  swap2\n  mstore\n  0x0a\n  dup2\n  mstore\n  shl(0xb0, 0x50657465727362757267)\n  dup2\n  dup5\n  add\n  mstore\n  0x80\n  dup5\n  add\n  mstore\n  0xa0\n  swap1\n  swap3\n  add\n  dup3\n  swap1\n  mstore\n    /* \"Documents/GitHub/Store-system-with-feedback/main.sol\":561:603  0x49C364fedaD517382ee5A776d3071f11CfDE4C5c */\n  0x49c364fedad517382ee5a776d3071f11cfde4c5c\n    /* \"Documents/GitHub/Store-system-with-feedback/main.sol\":549:604  structShops[0x49C364fedaD517382ee5A776d3071f11CfDE4C5c] */\n  dup3\n  mstore\n  swap1\n  dup2\n  mstore\n    /* \"Documents/GitHub/Store-system-with-feedback/main.sol\":549:675  structShops[0x49C364fedaD517382ee5A776d3071f11CfDE4C5c] = structShop(\"Product\", get_hash(\"2\"), 3, false, \"2\", \"Petersburg\", 0) */\n  dup2\n  mload\n  dup1\n  mload\n  0x00\n  dup1\n  mload\n  0x20\n  data_02d9cdcbcfa4cd8c6761b1b14b7bfe8ce5c69d2b558fc8eef153a2c2ff25ae65\n  dup4\n  codecopy\n  dup2\n  mload\n  swap2\n  mstore\n    /* \"Documents/GitHub/Store-system-with-feedback/main.sol\":549:604  structShops[0x49C364fedaD517382ee5A776d3071f11CfDE4C5c] */\n  swap3\n    /* \"Documents/GitHub/Store-system-with-feedback/main.sol\":549:675  structShops[0x49C364fedaD517382ee5A776d3071f11CfDE4C5c] = structShop(\"Product\", get_hash(\"2\"), 3, false, \"2\", \"Petersburg\", 0) */\n  tag_20\n  swap3\n    /* \"Documents/GitHub/Store-system-with-feedback/main.sol\":549:604  structShops[0x49C364fedaD517382ee5A776d3071f11CfDE4C5c] */\n  dup5\n  swap3\n    /* \"Documents/GitHub/Store-system-with-feedback/main.sol\":549:675  structShops[0x49C364fedaD517382ee5A776d3071f11CfDE4C5c] = structShop(\"Product\", get_hash(\"2\"), 3, false, \"2\", \"Petersburg\", 0) */\n  swap2\n  add\n  swap1\n  tag_9\n  jump\t// in\ntag_20:\n  pop\n  0x20\n  dup3\n  dup2\n  add\n  mload\n  0x01\n  dup4\n  add\n  sstore\n  0x40\n  dup4\n  add\n  mload\n  0x02\n  dup4\n  add\n  sstore\n  0x60\n  dup4\n  add\n  mload\n  0x03\n  dup4\n  add\n  dup1\n  sload\n  not(0xff)\n  and\n  swap2\n  iszero\n  iszero\n  swap2\n  swap1\n  swap2\n  or\n  swap1\n  sstore\n  0x80\n  dup4\n  add\n  mload\n  dup1\n  mload\n  tag_21\n  swap3\n  0x04\n  dup6\n  add\n  swap3\n  add\n  swap1\n  tag_9\n  jump\t// in\ntag_21:\n  pop\n  0xa0\n  dup3\n  add\n  mload\n  dup1\n  mload\n  tag_22\n  swap2\n  0x05\n  dup5\n  add\n  swap2\n  0x20\n  swap1\n  swap2\n  add\n  swap1\n  tag_9\n  jump\t// in\ntag_22:\n  pop\n  0xc0\n  swap2\n  swap1\n  swap2\n  add\n  mload\n  0x06\n  swap1\n  swap2\n  add\n  sstore\n    /* \"Documents/GitHub/Store-system-with-feedback/main.sol\":700:711  structShops */\n  0x00\n    /* \"Documents/GitHub/Store-system-with-feedback/main.sol\":700:755  structShops[0x49C364fedaD517382ee5A776d3071f11CfDE4C5c] */\n  0x20\n  dup2\n  swap1\n  mstore\n    /* \"Documents/GitHub/Store-system-with-feedback/main.sol\":686:694  shopList */\n  0x02\n    /* \"Documents/GitHub/Store-system-with-feedback/main.sol\":686:765  shopList.push(structShops[0x49C364fedaD517382ee5A776d3071f11CfDE4C5c].shopName) */\n  dup1\n  sload\n  0x01\n  dup2\n  add\n  dup3\n  sstore\n  swap2\n  mstore\n  0x00\n  dup1\n  mload\n  0x20\n  data_02d9cdcbcfa4cd8c6761b1b14b7bfe8ce5c69d2b558fc8eef153a2c2ff25ae65\n  dup4\n  codecopy\n  dup2\n  mload\n  swap2\n  mstore\n  dup1\n  sload\n  0x00\n  dup1\n  mload\n  0x20\n  data_1ab0c6948a275349ae45a06aad66a8bd65ac18074615d53676c09b67809099e0\n  dup4\n  codecopy\n  dup2\n  mload\n  swap2\n  mstore\n  swap1\n  swap3\n  add\n  swap2\n  tag_24\n  swap1\n  tag_14\n  jump\t// in\ntag_24:\n  tag_25\n  swap3\n  swap2\n  swap1\n  tag_16\n  jump\t// in\ntag_25:\n  pop\n    /* \"Documents/GitHub/Store-system-with-feedback/main.sol\":827:869  0xAdA67460CF329D12c1ed898710CC8Da5D40d8025 */\n  0xada67460cf329d12c1ed898710cc8da5d40d8025\n    /* \"Documents/GitHub/Store-system-with-feedback/main.sol\":800:816  structUserLogins */\n  0x05\n    /* \"Documents/GitHub/Store-system-with-feedback/main.sol\":800:824  structUserLogins[\"Peta\"] */\n  mload(0x40)\n  tag_26\n  swap1\n  shl(0xe0, 0x50657461)\n    /* \"#utility.yul\":909:928   */\n  dup2\n  mstore\n    /* \"#utility.yul\":953:954   */\n  0x04\n    /* \"#utility.yul\":944:955   */\n  add\n  swap1\n    /* \"#utility.yul\":707:961   */\n  jump\n    /* \"Documents/GitHub/Store-system-with-feedback/main.sol\":800:824  structUserLogins[\"Peta\"] */\ntag_26:\n  swap1\n  dup2\n  mstore\n  0x40\n  dup1\n  mload\n  0x20\n  swap3\n  dup2\n  swap1\n  sub\n  dup4\n  add\n  dup2\n  keccak256\n    /* \"Documents/GitHub/Store-system-with-feedback/main.sol\":800:869  structUserLogins[\"Peta\"] = 0xAdA67460CF329D12c1ed898710CC8Da5D40d8025 */\n  dup1\n  sload\n  not(sub(shl(0xa0, 0x01), 0x01))\n  and\n  sub(shl(0xa0, 0x01), 0x01)\n  swap6\n  swap1\n  swap6\n  and\n  swap5\n  swap1\n  swap5\n  or\n  swap1\n  swap4\n  sstore\n    /* \"Documents/GitHub/Store-system-with-feedback/main.sol\":938:981  structUser(\"Peta\", get_hash(\"3\"), 2, false) */\n  0xc0\n  dup4\n  add\n  dup2\n  mstore\n  0x04\n  0x80\n  dup5\n  add\n  swap1\n  dup2\n  mstore\n  shl(0xe0, 0x50657461)\n  0xa0\n  dup6\n  add\n  mstore\n  dup4\n  mstore\n    /* \"Documents/GitHub/Store-system-with-feedback/main.sol\":957:970  get_hash(\"3\") */\n  dup1\n  mload\n  dup1\n  dup3\n  add\n  swap1\n  swap2\n  mstore\n  0x01\n  dup2\n  mstore\n  shl(0xf8, 0x33)\n  dup2\n  dup4\n  add\n  mstore\n    /* \"Documents/GitHub/Store-system-with-feedback/main.sol\":938:981  structUser(\"Peta\", get_hash(\"3\"), 2, false) */\n  swap1\n  dup3\n  add\n  swap1\n    /* \"Documents/GitHub/Store-system-with-feedback/main.sol\":957:970  get_hash(\"3\") */\n  tag_28\n  swap1\n    /* \"Documents/GitHub/Store-system-with-feedback/main.sol\":957:965  get_hash */\n  tag_7\n    /* \"Documents/GitHub/Store-system-with-feedback/main.sol\":957:970  get_hash(\"3\") */\n  jump\t// in\ntag_28:\n    /* \"Documents/GitHub/Store-system-with-feedback/main.sol\":938:981  structUser(\"Peta\", get_hash(\"3\"), 2, false) */\n  dup2\n  mstore\n    /* \"Documents/GitHub/Store-system-with-feedback/main.sol\":972:973  2 */\n  0x02\n    /* \"Documents/GitHub/Store-system-with-feedback/main.sol\":938:981  structUser(\"Peta\", get_hash(\"3\"), 2, false) */\n  0x20\n  dup1\n  dup4\n  add\n  swap2\n  swap1\n  swap2\n  mstore\n  0x00\n  0x40\n  swap1\n  swap3\n  add\n  dup3\n  swap1\n  mstore\n    /* \"Documents/GitHub/Store-system-with-feedback/main.sol\":892:934  0xAdA67460CF329D12c1ed898710CC8Da5D40d8025 */\n  0xada67460cf329d12c1ed898710cc8da5d40d8025\n    /* \"Documents/GitHub/Store-system-with-feedback/main.sol\":880:935  structUsers[0xAdA67460CF329D12c1ed898710CC8Da5D40d8025] */\n  swap1\n  swap2\n  mstore\n    /* \"Documents/GitHub/Store-system-with-feedback/main.sol\":880:891  structUsers */\n  0x04\n    /* \"Documents/GitHub/Store-system-with-feedback/main.sol\":880:935  structUsers[0xAdA67460CF329D12c1ed898710CC8Da5D40d8025] */\n  dup2\n  mstore\n    /* \"Documents/GitHub/Store-system-with-feedback/main.sol\":880:981  structUsers[0xAdA67460CF329D12c1ed898710CC8Da5D40d8025] = structUser(\"Peta\", get_hash(\"3\"), 2, false) */\n  dup2\n  mload\n  dup1\n  mload\n    /* \"Documents/GitHub/Store-system-with-feedback/main.sol\":880:935  structUsers[0xAdA67460CF329D12c1ed898710CC8Da5D40d8025] */\n  0x7276c473c3031176624ead5b5cbfdea5cdbc158289c185f75f825e40aed0bb37\n  swap3\n    /* \"Documents/GitHub/Store-system-with-feedback/main.sol\":880:981  structUsers[0xAdA67460CF329D12c1ed898710CC8Da5D40d8025] = structUser(\"Peta\", get_hash(\"3\"), 2, false) */\n  tag_29\n  swap3\n    /* \"Documents/GitHub/Store-system-with-feedback/main.sol\":880:935  structUsers[0xAdA67460CF329D12c1ed898710CC8Da5D40d8025] */\n  dup5\n  swap3\n    /* \"Documents/GitHub/Store-system-with-feedback/main.sol\":880:981  structUsers[0xAdA67460CF329D12c1ed898710CC8Da5D40d8025] = structUser(\"Peta\", get_hash(\"3\"), 2, false) */\n  swap2\n  add\n  swap1\n  tag_9\n  jump\t// in\ntag_29:\n  pop\n  0x20\n  dup3\n  dup2\n  add\n  mload\n  0x01\n  dup4\n  dup2\n  add\n  swap2\n  swap1\n  swap2\n  sstore\n  0x40\n  dup1\n  dup6\n  add\n  mload\n  0x02\n  dup6\n  add\n  sstore\n  0x60\n  swap1\n  swap5\n  add\n  mload\n  0x03\n  swap1\n  swap4\n  add\n  dup1\n  sload\n  not(0xff)\n  and\n  swap4\n  iszero\n  iszero\n  swap4\n  swap1\n  swap4\n  or\n  swap1\n  swap3\n  sstore\n    /* \"Documents/GitHub/Store-system-with-feedback/main.sol\":992:1007  userLoginsArray */\n  0x06\n    /* \"Documents/GitHub/Store-system-with-feedback/main.sol\":992:1020  userLoginsArray.push(\"Peta\") */\n  dup1\n  sload\n  swap3\n  dup4\n  add\n  dup2\n  sstore\n  0x00\n  mstore\n  dup3\n  mload\n  dup1\n  dup5\n  add\n  swap1\n  swap4\n  mstore\n  0x04\n  dup1\n  dup5\n  mstore\n  shl(0xe0, 0x50657461)\n  swap4\n  swap1\n  swap2\n  add\n  swap3\n  dup4\n  mstore\n  tag_31\n  swap3\n  0xf652222313e28459528d920b65115c16c04f3efc82aaedc97be59f3f377c0d3f\n  swap1\n  swap3\n  add\n  swap2\n  swap1\n  tag_9\n  jump\t// in\ntag_31:\n  pop\n    /* \"Documents/GitHub/Store-system-with-feedback/main.sol\":1031:1047  userAddressArray */\n  0x07\n    /* \"Documents/GitHub/Store-system-with-feedback/main.sol\":1031:1096  userAddressArray.push(0xAdA67460CF329D12c1ed898710CC8Da5D40d8025) */\n  dup1\n  sload\n  0x01\n  dup2\n  add\n  dup3\n  sstore\n  0x00\n  swap2\n  swap1\n  swap2\n  mstore\n  0xa66cc928b5edb82af9bd49922954155ab7b0942694bea4ce44661d9a8736c688\n  add\n  dup1\n  sload\n  not(sub(shl(0xa0, 0x01), 0x01))\n  and\n    /* \"Documents/GitHub/Store-system-with-feedback/main.sol\":1053:1095  0xAdA67460CF329D12c1ed898710CC8Da5D40d8025 */\n  0xada67460cf329d12c1ed898710cc8da5d40d8025\n    /* \"Documents/GitHub/Store-system-with-feedback/main.sol\":1031:1096  userAddressArray.push(0xAdA67460CF329D12c1ed898710CC8Da5D40d8025) */\n  or\n  swap1\n  sstore\n    /* \"Documents/GitHub/Store-system-with-feedback/main.sol\":1157:1261  structProduct(0x5412E9b0e4Ef9d1546DF79ae907eeE34bDCF3004, \"asd\", 100*(10**18), addProductShop_idProduct) */\n  0x40\n  dup1\n  mload\n  0x80\n  dup2\n  add\n  dup3\n  mstore\n    /* \"Documents/GitHub/Store-system-with-feedback/main.sol\":1171:1213  0x5412E9b0e4Ef9d1546DF79ae907eeE34bDCF3004 */\n  0x5412e9b0e4ef9d1546df79ae907eee34bdcf3004\n    /* \"Documents/GitHub/Store-system-with-feedback/main.sol\":1157:1261  structProduct(0x5412E9b0e4Ef9d1546DF79ae907eeE34bDCF3004, \"asd\", 100*(10**18), addProductShop_idProduct) */\n  dup2\n  mstore\n  dup2\n  mload\n  dup1\n  dup4\n  add\n  dup4\n  mstore\n  0x03\n  dup2\n  mstore\n  shl(0xea, 0x185cd9)\n    /* \"Documents/GitHub/Store-system-with-feedback/main.sol\":1031:1096  userAddressArray.push(0xAdA67460CF329D12c1ed898710CC8Da5D40d8025) */\n  0x20\n    /* \"Documents/GitHub/Store-system-with-feedback/main.sol\":1157:1261  structProduct(0x5412E9b0e4Ef9d1546DF79ae907eeE34bDCF3004, \"asd\", 100*(10**18), addProductShop_idProduct) */\n  dup3\n  dup2\n  add\n  swap2\n  swap1\n  swap2\n  mstore\n  dup3\n  add\n  mstore\n    /* \"Documents/GitHub/Store-system-with-feedback/main.sol\":1222:1234  100*(10**18) */\n  0x056bc75e2d63100000\n    /* \"Documents/GitHub/Store-system-with-feedback/main.sol\":1157:1261  structProduct(0x5412E9b0e4Ef9d1546DF79ae907eeE34bDCF3004, \"asd\", 100*(10**18), addProductShop_idProduct) */\n  dup2\n  dup4\n  add\n  mstore\n    /* \"Documents/GitHub/Store-system-with-feedback/main.sol\":1236:1260  addProductShop_idProduct */\n  sload(0x0d)\n    /* \"Documents/GitHub/Store-system-with-feedback/main.sol\":1157:1261  structProduct(0x5412E9b0e4Ef9d1546DF79ae907eeE34bDCF3004, \"asd\", 100*(10**18), addProductShop_idProduct) */\n  0x60\n  dup3\n  add\n  mstore\n    /* \"Documents/GitHub/Store-system-with-feedback/main.sol\":1131:1154  structProducts[\"Apple\"] */\n  swap1\n  mload\n    /* \"Documents/GitHub/Store-system-with-feedback/main.sol\":1131:1145  structProducts */\n  0x08\n  swap1\n    /* \"Documents/GitHub/Store-system-with-feedback/main.sol\":1131:1154  structProducts[\"Apple\"] */\n  tag_33\n  swap1\n  shl(0xd8, 0x4170706c65)\n    /* \"#utility.yul\":649:669   */\n  dup2\n  mstore\n    /* \"#utility.yul\":694:695   */\n  0x05\n    /* \"#utility.yul\":685:696   */\n  add\n  swap1\n    /* \"#utility.yul\":447:702   */\n  jump\n    /* \"Documents/GitHub/Store-system-with-feedback/main.sol\":1131:1154  structProducts[\"Apple\"] */\ntag_33:\n  swap1\n  dup2\n  mstore\n  mload(0x40)\n  0x20\n  swap2\n  dup2\n  swap1\n  sub\n  dup3\n  add\n  swap1\n  keccak256\n    /* \"Documents/GitHub/Store-system-with-feedback/main.sol\":1131:1261  structProducts[\"Apple\"] = structProduct(0x5412E9b0e4Ef9d1546DF79ae907eeE34bDCF3004, \"asd\", 100*(10**18), addProductShop_idProduct) */\n  dup3\n  mload\n  dup2\n  sload\n  not(sub(shl(0xa0, 0x01), 0x01))\n  and\n  sub(shl(0xa0, 0x01), 0x01)\n  swap1\n  swap2\n  and\n  or\n  dup2\n  sstore\n  dup3\n  dup3\n  add\n  mload\n  dup1\n  mload\n    /* \"Documents/GitHub/Store-system-with-feedback/main.sol\":1131:1154  structProducts[\"Apple\"] */\n  swap2\n  swap3\n    /* \"Documents/GitHub/Store-system-with-feedback/main.sol\":1131:1261  structProducts[\"Apple\"] = structProduct(0x5412E9b0e4Ef9d1546DF79ae907eeE34bDCF3004, \"asd\", 100*(10**18), addProductShop_idProduct) */\n  tag_35\n  swap3\n  0x01\n  dup6\n  add\n  swap3\n  swap1\n  swap2\n  add\n  swap1\n  tag_9\n  jump\t// in\ntag_35:\n  pop\n  0x40\n  dup3\n  dup2\n  add\n  mload\n  0x02\n  dup4\n  add\n  sstore\n  0x60\n  swap1\n  swap3\n  add\n  mload\n  0x03\n  swap1\n  swap2\n  add\n  sstore\n    /* \"Documents/GitHub/Store-system-with-feedback/main.sol\":1272:1283  productList */\n  0x09\n    /* \"Documents/GitHub/Store-system-with-feedback/main.sol\":1272:1297  productList.push(\"Apple\") */\n  dup1\n  sload\n  0x01\n  dup2\n  add\n  dup3\n  sstore\n  0x00\n  swap2\n  swap1\n  swap2\n  mstore\n  dup2\n  mload\n  dup1\n  dup4\n  add\n  swap1\n  swap3\n  mstore\n  0x05\n  dup1\n  dup4\n  mstore\n  shl(0xd8, 0x4170706c65)\n  0x20\n  swap1\n  swap4\n  add\n  swap3\n  dup4\n  mstore\n  tag_37\n  swap3\n  0x6e1540171b6c0c960b71a7020d9f60077f6af931a8bbf590da0223dacf75c7af\n  swap1\n  swap3\n  add\n  swap2\n  swap1\n  tag_9\n  jump\t// in\ntag_37:\n  pop\n    /* \"Documents/GitHub/Store-system-with-feedback/main.sol\":1308:1332  addProductShop_idProduct */\n  0x0d\n    /* \"Documents/GitHub/Store-system-with-feedback/main.sol\":1308:1334  addProductShop_idProduct++ */\n  dup1\n  sload\n  swap1\n    /* \"Documents/GitHub/Store-system-with-feedback/main.sol\":1308:1332  addProductShop_idProduct */\n  0x00\n    /* \"Documents/GitHub/Store-system-with-feedback/main.sol\":1308:1334  addProductShop_idProduct++ */\n  tag_38\n  dup4\n  tag_39\n  jump\t// in\ntag_38:\n  swap2\n  swap1\n  pop\n  sstore\n  pop\n    /* \"Documents/GitHub/Store-system-with-feedback/main.sol\":74:14973  contract coursepaper {\r... */\n  jump(tag_61)\n    /* \"Documents/GitHub/Store-system-with-feedback/main.sol\":3973:4112  function get_hash(string memory password) public pure returns(bytes32) {\r... */\ntag_7:\n    /* \"Documents/GitHub/Store-system-with-feedback/main.sol\":4035:4042  bytes32 */\n  0x00\n    /* \"Documents/GitHub/Store-system-with-feedback/main.sol\":4093:4101  password */\n  dup2\n    /* \"Documents/GitHub/Store-system-with-feedback/main.sol\":4076:4102  abi.encodePacked(password) */\n  add(0x20, mload(0x40))\n  tag_42\n  swap2\n  swap1\n  tag_43\n  jump\t// in\ntag_42:\n  mload(0x40)\n  0x20\n  dup2\n  dup4\n  sub\n  sub\n  dup2\n  mstore\n  swap1\n  0x40\n  mstore\n    /* \"Documents/GitHub/Store-system-with-feedback/main.sol\":4066:4103  keccak256(abi.encodePacked(password)) */\n  dup1\n  mload\n  swap1\n  0x20\n  add\n  keccak256\n    /* \"Documents/GitHub/Store-system-with-feedback/main.sol\":4059:4104  return(keccak256(abi.encodePacked(password))) */\n  swap1\n  pop\n    /* \"Documents/GitHub/Store-system-with-feedback/main.sol\":3973:4112  function get_hash(string memory password) public pure returns(bytes32) {\r... */\n  swap2\n  swap1\n  pop\n  jump\t// out\n    /* \"Documents/GitHub/Store-system-with-feedback/main.sol\":74:14973  contract coursepaper {\r... */\ntag_9:\n  dup3\n  dup1\n  sload\n  tag_44\n  swap1\n  tag_14\n  jump\t// in\ntag_44:\n  swap1\n  0x00\n  mstore\n  keccak256(0x00, 0x20)\n  swap1\n  0x1f\n  add\n  0x20\n  swap1\n  div\n  dup2\n  add\n  swap3\n  dup3\n  tag_46\n  jumpi\n  0x00\n  dup6\n  sstore\n  jump(tag_49)\ntag_46:\n  dup3\n  0x1f\n  lt\n  tag_47\n  jumpi\n  dup1\n  mload\n  not(0xff)\n  and\n  dup4\n  dup1\n  add\n  or\n  dup6\n  sstore\n  jump(tag_49)\ntag_47:\n  dup3\n  dup1\n  add\n  0x01\n  add\n  dup6\n  sstore\n  dup3\n  iszero\n  tag_49\n  jumpi\n  swap2\n  dup3\n  add\ntag_48:\n  dup3\n  dup2\n  gt\n  iszero\n  tag_49\n  jumpi\n  dup3\n  mload\n  dup3\n  sstore\n  swap2\n  0x20\n  add\n  swap2\n  swap1\n  0x01\n  add\n  swap1\n  jump(tag_48)\ntag_49:\n  pop\n  tag_50\n  swap3\n  swap2\n  pop\n  tag_51\n  jump\t// in\ntag_50:\n  pop\n  swap1\n  jump\t// out\ntag_16:\n  dup3\n  dup1\n  sload\n  tag_52\n  swap1\n  tag_14\n  jump\t// in\ntag_52:\n  swap1\n  0x00\n  mstore\n  keccak256(0x00, 0x20)\n  swap1\n  0x1f\n  add\n  0x20\n  swap1\n  div\n  dup2\n  add\n  swap3\n  dup3\n  tag_54\n  jumpi\n  0x00\n  dup6\n  sstore\n  jump(tag_49)\ntag_54:\n  dup3\n  0x1f\n  lt\n  tag_55\n  jumpi\n  dup1\n  sload\n  dup6\n  sstore\n  jump(tag_49)\ntag_55:\n  dup3\n  dup1\n  add\n  0x01\n  add\n  dup6\n  sstore\n  dup3\n  iszero\n  tag_49\n  jumpi\n  0x00\n  mstore\n  keccak256(0x00, 0x20)\n  swap2\n  0x1f\n  add\n  0x20\n  swap1\n  div\n  dup3\n  add\ntag_56:\n  dup3\n  dup2\n  gt\n  iszero\n  tag_49\n  jumpi\n  dup3\n  sload\n  dup3\n  sstore\n  swap2\n  0x01\n  add\n  swap2\n  swap1\n  0x01\n  add\n  swap1\n  jump(tag_56)\ntag_51:\ntag_59:\n  dup1\n  dup3\n  gt\n  iszero\n  tag_50\n  jumpi\n  0x00\n  dup2\n  sstore\n  0x01\n  add\n  jump(tag_59)\n    /* \"#utility.yul\":14:442   */\ntag_43:\n    /* \"#utility.yul\":145:148   */\n  0x00\n    /* \"#utility.yul\":183:189   */\n  dup3\n    /* \"#utility.yul\":177:190   */\n  mload\n    /* \"#utility.yul\":208:209   */\n  0x00\n    /* \"#utility.yul\":218:347   */\ntag_63:\n    /* \"#utility.yul\":232:238   */\n  dup2\n    /* \"#utility.yul\":229:230   */\n  dup2\n    /* \"#utility.yul\":226:239   */\n  lt\n    /* \"#utility.yul\":218:347   */\n  iszero\n  tag_65\n  jumpi\n    /* \"#utility.yul\":330:334   */\n  0x20\n    /* \"#utility.yul\":314:328   */\n  dup2\n  dup7\n  add\n    /* \"#utility.yul\":310:335   */\n  dup2\n  add\n    /* \"#utility.yul\":304:336   */\n  mload\n    /* \"#utility.yul\":291:302   */\n  dup6\n  dup4\n  add\n    /* \"#utility.yul\":284:337   */\n  mstore\n    /* \"#utility.yul\":247:259   */\n  add\n    /* \"#utility.yul\":218:347   */\n  jump(tag_63)\ntag_65:\n    /* \"#utility.yul\":365:371   */\n  dup2\n    /* \"#utility.yul\":362:363   */\n  dup2\n    /* \"#utility.yul\":359:372   */\n  gt\n    /* \"#utility.yul\":356:404   */\n  iszero\n  tag_66\n  jumpi\n    /* \"#utility.yul\":400:401   */\n  0x00\n    /* \"#utility.yul\":391:397   */\n  dup3\n    /* \"#utility.yul\":386:389   */\n  dup6\n    /* \"#utility.yul\":382:398   */\n  add\n    /* \"#utility.yul\":375:402   */\n  mstore\n    /* \"#utility.yul\":356:404   */\ntag_66:\n  pop\n    /* \"#utility.yul\":420:436   */\n  swap2\n  swap1\n  swap2\n  add\n  swap3\n    /* \"#utility.yul\":14:442   */\n  swap2\n  pop\n  pop\n  jump\t// out\n    /* \"#utility.yul\":1487:1867   */\ntag_14:\n    /* \"#utility.yul\":1566:1567   */\n  0x01\n    /* \"#utility.yul\":1562:1574   */\n  dup2\n  dup2\n  shr\n  swap1\n    /* \"#utility.yul\":1609:1621   */\n  dup3\n  and\n  dup1\n    /* \"#utility.yul\":1630:1691   */\n  tag_72\n  jumpi\n    /* \"#utility.yul\":1684:1688   */\n  0x7f\n    /* \"#utility.yul\":1676:1682   */\n  dup3\n    /* \"#utility.yul\":1672:1689   */\n  and\n    /* \"#utility.yul\":1662:1689   */\n  swap2\n  pop\n    /* \"#utility.yul\":1630:1691   */\ntag_72:\n    /* \"#utility.yul\":1737:1739   */\n  0x20\n    /* \"#utility.yul\":1729:1735   */\n  dup3\n    /* \"#utility.yul\":1726:1740   */\n  lt\n    /* \"#utility.yul\":1706:1724   */\n  dup2\n    /* \"#utility.yul\":1703:1741   */\n  eq\n    /* \"#utility.yul\":1700:1861   */\n  iszero\n  tag_73\n  jumpi\n    /* \"#utility.yul\":1783:1793   */\n  0x4e487b71\n    /* \"#utility.yul\":1778:1781   */\n  0xe0\n    /* \"#utility.yul\":1774:1794   */\n  shl\n    /* \"#utility.yul\":1771:1772   */\n  0x00\n    /* \"#utility.yul\":1764:1795   */\n  mstore\n    /* \"#utility.yul\":1818:1822   */\n  0x22\n    /* \"#utility.yul\":1815:1816   */\n  0x04\n    /* \"#utility.yul\":1808:1823   */\n  mstore\n    /* \"#utility.yul\":1846:1850   */\n  0x24\n    /* \"#utility.yul\":1843:1844   */\n  0x00\n    /* \"#utility.yul\":1836:1851   */\n  revert\n    /* \"#utility.yul\":1700:1861   */\ntag_73:\n  pop\n    /* \"#utility.yul\":1487:1867   */\n  swap2\n  swap1\n  pop\n  jump\t// out\n    /* \"#utility.yul\":1872:2104   */\ntag_39:\n    /* \"#utility.yul\":1911:1914   */\n  0x00\n  not(0x00)\n    /* \"#utility.yul\":1932:1949   */\n  dup3\n  eq\n    /* \"#utility.yul\":1929:2069   */\n  iszero\n  tag_75\n  jumpi\n    /* \"#utility.yul\":1991:2001   */\n  0x4e487b71\n    /* \"#utility.yul\":1986:1989   */\n  0xe0\n    /* \"#utility.yul\":1982:2002   */\n  shl\n    /* \"#utility.yul\":1979:1980   */\n  0x00\n    /* \"#utility.yul\":1972:2003   */\n  mstore\n    /* \"#utility.yul\":2026:2030   */\n  0x11\n    /* \"#utility.yul\":2023:2024   */\n  0x04\n    /* \"#utility.yul\":2016:2031   */\n  mstore\n    /* \"#utility.yul\":2054:2058   */\n  0x24\n    /* \"#utility.yul\":2051:2052   */\n  0x00\n    /* \"#utility.yul\":2044:2059   */\n  revert\n    /* \"#utility.yul\":1929:2069   */\ntag_75:\n  pop\n    /* \"#utility.yul\":2096:2097   */\n  0x01\n    /* \"#utility.yul\":2085:2098   */\n  add\n  swap1\n    /* \"#utility.yul\":1872:2104   */\n  jump\t// out\ntag_61:\n    /* \"Documents/GitHub/Store-system-with-feedback/main.sol\":74:14973  contract coursepaper {\r... */\n  dataSize(sub_0)\n  dup1\n  dataOffset(sub_0)\n  0x00\n  codecopy\n  0x00\n  return\nstop\ndata_02d9cdcbcfa4cd8c6761b1b14b7bfe8ce5c69d2b558fc8eef153a2c2ff25ae65 b5b2e77f7cc5f741808c088fc930a78382cbc738160d08c471b4672fc39743aa\ndata_1ab0c6948a275349ae45a06aad66a8bd65ac18074615d53676c09b67809099e0 405787fa12a823e0f2b7631cc41b3ba8828b3321ca811111fa75cd3aa3bb5ace\ndata_f9525e0112460024fbe4d5a34594c1701ce0e90aeee55f3b18c9114979275102 418456ba3c801fd0a494a221a407852a26db46c4f8395142565b3b3cd0653b99\n\nsub_0: assembly {\n        /* \"Documents/GitHub/Store-system-with-feedback/main.sol\":74:14973  contract coursepaper {\r... */\n      mstore(0x40, 0x80)\n      jumpi(tag_1, lt(calldatasize, 0x04))\n      shr(0xe0, calldataload(0x00))\n      dup1\n      0x033ff0b8\n      eq\n      tag_2\n      jumpi\n      dup1\n      0x04ac16f6\n      eq\n      tag_3\n      jumpi\n      dup1\n      0x0c72b1ec\n      eq\n      tag_4\n      jumpi\n      dup1\n      0x0e1c81b2\n      eq\n      tag_5\n      jumpi\n      dup1\n      0x146dc6ed\n      eq\n      tag_6\n      jumpi\n      dup1\n      0x1bbe970a\n      eq\n      tag_7\n      jumpi\n      dup1\n      0x1e279a37\n      eq\n      tag_8\n      jumpi\n      dup1\n      0x1f8daac8\n      eq\n      tag_9\n      jumpi\n      dup1\n      0x29e795f3\n      eq\n      tag_10\n      jumpi\n      dup1\n      0x2ccdef7c\n      eq\n      tag_11\n      jumpi\n      dup1\n      0x3b84aedc\n      eq\n      tag_12\n      jumpi\n      dup1\n      0x521b9170\n      eq\n      tag_13\n      jumpi\n      dup1\n      0x55149fd5\n      eq\n      tag_14\n      jumpi\n      dup1\n      0x5828c584\n      eq\n      tag_15\n      jumpi\n      dup1\n      0x5bbc9a3f\n      eq\n      tag_16\n      jumpi\n      dup1\n      0x5bdb63fa\n      eq\n      tag_17\n      jumpi\n      dup1\n      0x6ba44d3c\n      eq\n      tag_18\n      jumpi\n      dup1\n      0x6c05dd1d\n      eq\n      tag_19\n      jumpi\n      dup1\n      0x7033a382\n      eq\n      tag_20\n      jumpi\n      dup1\n      0x73b62bd0\n      eq\n      tag_21\n      jumpi\n      dup1\n      0x775eb9e6\n      eq\n      tag_22\n      jumpi\n      dup1\n      0x803103f1\n      eq\n      tag_23\n      jumpi\n      dup1\n      0x845952a8\n      eq\n      tag_24\n      jumpi\n      dup1\n      0x87048043\n      eq\n      tag_25\n      jumpi\n      dup1\n      0x8e23cb40\n      eq\n      tag_26\n      jumpi\n      dup1\n      0x961865f0\n      eq\n      tag_27\n      jumpi\n      dup1\n      0xa985036d\n      eq\n      tag_28\n      jumpi\n      dup1\n      0xa9f9482b\n      eq\n      tag_29\n      jumpi\n      dup1\n      0xbbd43363\n      eq\n      tag_30\n      jumpi\n      dup1\n      0xc4957fa0\n      eq\n      tag_31\n      jumpi\n      dup1\n      0xcc21c188\n      eq\n      tag_32\n      jumpi\n      dup1\n      0xd22d9020\n      eq\n      tag_33\n      jumpi\n      dup1\n      0xd68cf8c1\n      eq\n      tag_34\n      jumpi\n      dup1\n      0xdce39151\n      eq\n      tag_35\n      jumpi\n    tag_1:\n      0x00\n      dup1\n      revert\n        /* \"Documents/GitHub/Store-system-with-feedback/main.sol\":2758:2897  function get_role_shop(string memory login) public view returns(uint) {\r... */\n    tag_2:\n      callvalue\n      dup1\n      iszero\n      tag_36\n      jumpi\n      0x00\n      dup1\n      revert\n    tag_36:\n      pop\n      tag_37\n      tag_38\n      calldatasize\n      0x04\n      tag_39\n      jump\t// in\n    tag_38:\n      tag_40\n      jump\t// in\n    tag_37:\n      mload(0x40)\n        /* \"#utility.yul\":9786:9811   */\n      swap1\n      dup2\n      mstore\n        /* \"#utility.yul\":9774:9776   */\n      0x20\n        /* \"#utility.yul\":9759:9777   */\n      add\n        /* \"Documents/GitHub/Store-system-with-feedback/main.sol\":2758:2897  function get_role_shop(string memory login) public view returns(uint) {\r... */\n    tag_41:\n      mload(0x40)\n      dup1\n      swap2\n      sub\n      swap1\n      return\n        /* \"Documents/GitHub/Store-system-with-feedback/main.sol\":11695:11810  function login_out_shop(string memory login) public {\r... */\n    tag_3:\n      callvalue\n      dup1\n      iszero\n      tag_43\n      jumpi\n      0x00\n      dup1\n      revert\n    tag_43:\n      pop\n      tag_44\n      tag_45\n      calldatasize\n      0x04\n      tag_39\n      jump\t// in\n    tag_45:\n      tag_46\n      jump\t// in\n    tag_44:\n      stop\n        /* \"Documents/GitHub/Store-system-with-feedback/main.sol\":7892:8532  function acceptPurchase (uint idPurchase, bool confirmation) public payable {\r... */\n    tag_4:\n      tag_44\n      tag_48\n      calldatasize\n      0x04\n      tag_49\n      jump\t// in\n    tag_48:\n      tag_50\n      jump\t// in\n        /* \"Documents/GitHub/Store-system-with-feedback/main.sol\":13898:14220  function create_user(address addr, string memory login, bytes32 password) public {\r... */\n    tag_5:\n      callvalue\n      dup1\n      iszero\n      tag_51\n      jumpi\n      0x00\n      dup1\n      revert\n    tag_51:\n      pop\n      tag_44\n      tag_53\n      calldatasize\n      0x04\n      tag_54\n      jump\t// in\n    tag_53:\n      tag_55\n      jump\t// in\n        /* \"Documents/GitHub/Store-system-with-feedback/main.sol\":11899:12167  function productPurchases(string memory titleProduct) public payable {\r... */\n    tag_6:\n      tag_44\n      tag_57\n      calldatasize\n      0x04\n      tag_39\n      jump\t// in\n    tag_57:\n      tag_58\n      jump\t// in\n        /* \"Documents/GitHub/Store-system-with-feedback/main.sol\":5579:5629  mapping(string => address) public structUserLogins */\n    tag_7:\n      callvalue\n      dup1\n      iszero\n      tag_59\n      jumpi\n      0x00\n      dup1\n      revert\n    tag_59:\n      pop\n      tag_60\n      tag_61\n      calldatasize\n      0x04\n      tag_39\n      jump\t// in\n    tag_61:\n      dup1\n      mload\n      0x20\n      dup2\n      dup4\n      add\n      dup2\n      add\n      dup1\n      mload\n      0x05\n      dup3\n      mstore\n      swap3\n      dup3\n      add\n      swap2\n      swap1\n      swap4\n      add\n      keccak256\n      swap2\n      mstore\n      sload\n      sub(shl(0xa0, 0x01), 0x01)\n      and\n      dup2\n      jump\n    tag_60:\n      mload(0x40)\n      sub(shl(0xa0, 0x01), 0x01)\n        /* \"#utility.yul\":7251:7283   */\n      swap1\n      swap2\n      and\n        /* \"#utility.yul\":7233:7284   */\n      dup2\n      mstore\n        /* \"#utility.yul\":7221:7223   */\n      0x20\n        /* \"#utility.yul\":7206:7224   */\n      add\n        /* \"Documents/GitHub/Store-system-with-feedback/main.sol\":5579:5629  mapping(string => address) public structUserLogins */\n      tag_41\n        /* \"#utility.yul\":7087:7290   */\n      jump\n        /* \"Documents/GitHub/Store-system-with-feedback/main.sol\":3769:3906  function get_balance(address adr) public view returns (uint) {\r... */\n    tag_8:\n      callvalue\n      dup1\n      iszero\n      tag_65\n      jumpi\n      0x00\n      dup1\n      revert\n    tag_65:\n      pop\n      tag_37\n      tag_67\n      calldatasize\n      0x04\n      tag_68\n      jump\t// in\n    tag_67:\n      sub(shl(0xa0, 0x01), 0x01)\n        /* \"Documents/GitHub/Store-system-with-feedback/main.sol\":3859:3870  adr.balance */\n      and\n      balance\n      swap1\n        /* \"Documents/GitHub/Store-system-with-feedback/main.sol\":3769:3906  function get_balance(address adr) public view returns (uint) {\r... */\n      jump\n        /* \"Documents/GitHub/Store-system-with-feedback/main.sol\":1507:1611  function get_shop_list() public view returns(string[] memory) {\r... */\n    tag_9:\n      callvalue\n      dup1\n      iszero\n      tag_71\n      jumpi\n      0x00\n      dup1\n      revert\n    tag_71:\n      pop\n      tag_72\n      tag_73\n      jump\t// in\n    tag_72:\n      mload(0x40)\n      tag_41\n      swap2\n      swap1\n      tag_75\n      jump\t// in\n        /* \"Documents/GitHub/Store-system-with-feedback/main.sol\":10713:11132  function leaveComment (string memory userName, string[] memory comment) public {\r... */\n    tag_10:\n      callvalue\n      dup1\n      iszero\n      tag_76\n      jumpi\n      0x00\n      dup1\n      revert\n    tag_76:\n      pop\n      tag_44\n      tag_78\n      calldatasize\n      0x04\n      tag_79\n      jump\t// in\n    tag_78:\n      tag_80\n      jump\t// in\n        /* \"Documents/GitHub/Store-system-with-feedback/main.sol\":8596:9099  function acceptReturn(uint idReturn, bool confirmation) public payable {\r... */\n    tag_11:\n      tag_44\n      tag_82\n      calldatasize\n      0x04\n      tag_49\n      jump\t// in\n    tag_82:\n      tag_83\n      jump\t// in\n        /* \"Documents/GitHub/Store-system-with-feedback/main.sol\":2525:2670  function check_logged_shop(string memory login) public view returns(bool) {\r... */\n    tag_12:\n      callvalue\n      dup1\n      iszero\n      tag_84\n      jumpi\n      0x00\n      dup1\n      revert\n    tag_84:\n      pop\n      tag_85\n      tag_86\n      calldatasize\n      0x04\n      tag_39\n      jump\t// in\n    tag_86:\n      tag_87\n      jump\t// in\n    tag_85:\n      mload(0x40)\n        /* \"#utility.yul\":9613:9627   */\n      swap1\n      iszero\n        /* \"#utility.yul\":9606:9628   */\n      iszero\n        /* \"#utility.yul\":9588:9629   */\n      dup2\n      mstore\n        /* \"#utility.yul\":9576:9578   */\n      0x20\n        /* \"#utility.yul\":9561:9579   */\n      add\n        /* \"Documents/GitHub/Store-system-with-feedback/main.sol\":2525:2670  function check_logged_shop(string memory login) public view returns(bool) {\r... */\n      tag_41\n        /* \"#utility.yul\":9448:9635   */\n      jump\n        /* \"Documents/GitHub/Store-system-with-feedback/main.sol\":14827:14949  function login_out_user(string memory login) public {\r... */\n    tag_13:\n      callvalue\n      dup1\n      iszero\n      tag_90\n      jumpi\n      0x00\n      dup1\n      revert\n    tag_90:\n      pop\n      tag_44\n      tag_92\n      calldatasize\n      0x04\n      tag_39\n      jump\t// in\n    tag_92:\n      tag_93\n      jump\t// in\n        /* \"Documents/GitHub/Store-system-with-feedback/main.sol\":2989:3128  function get_city(string memory login) public view returns(string memory) {\r... */\n    tag_14:\n      callvalue\n      dup1\n      iszero\n      tag_94\n      jumpi\n      0x00\n      dup1\n      revert\n    tag_94:\n      pop\n      tag_95\n      tag_96\n      calldatasize\n      0x04\n      tag_39\n      jump\t// in\n    tag_96:\n      tag_97\n      jump\t// in\n    tag_95:\n      mload(0x40)\n      tag_41\n      swap2\n      swap1\n      tag_99\n      jump\t// in\n        /* \"Documents/GitHub/Store-system-with-feedback/main.sol\":13251:13828  function productMarriage(string memory titleProduct) public {\r... */\n    tag_15:\n      callvalue\n      dup1\n      iszero\n      tag_100\n      jumpi\n      0x00\n      dup1\n      revert\n    tag_100:\n      pop\n      tag_44\n      tag_102\n      calldatasize\n      0x04\n      tag_39\n      jump\t// in\n    tag_102:\n      tag_103\n      jump\t// in\n        /* \"Documents/GitHub/Store-system-with-feedback/main.sol\":3298:3450  function check_logged_user(string memory login) public view returns(bool) {\r... */\n    tag_16:\n      callvalue\n      dup1\n      iszero\n      tag_104\n      jumpi\n      0x00\n      dup1\n      revert\n    tag_104:\n      pop\n      tag_85\n      tag_106\n      calldatasize\n      0x04\n      tag_39\n      jump\t// in\n    tag_106:\n      tag_107\n      jump\t// in\n        /* \"Documents/GitHub/Store-system-with-feedback/main.sol\":3546:3692  function get_role_user(string memory login) public view returns(uint) {\r... */\n    tag_17:\n      callvalue\n      dup1\n      iszero\n      tag_109\n      jumpi\n      0x00\n      dup1\n      revert\n    tag_109:\n      pop\n      tag_37\n      tag_111\n      calldatasize\n      0x04\n      tag_39\n      jump\t// in\n    tag_111:\n      tag_112\n      jump\t// in\n        /* \"Documents/GitHub/Store-system-with-feedback/main.sol\":4190:4477  function get_address(string memory login) public view returns(address) {\r... */\n    tag_18:\n      callvalue\n      dup1\n      iszero\n      tag_114\n      jumpi\n      0x00\n      dup1\n      revert\n    tag_114:\n      pop\n      tag_60\n      tag_116\n      calldatasize\n      0x04\n      tag_39\n      jump\t// in\n    tag_116:\n      tag_117\n      jump\t// in\n        /* \"Documents/GitHub/Store-system-with-feedback/main.sol\":6877:7167  function addProductShop (string memory title, uint256 price, string memory description) public {\r... */\n    tag_19:\n      callvalue\n      dup1\n      iszero\n      tag_119\n      jumpi\n      0x00\n      dup1\n      revert\n    tag_119:\n      pop\n      tag_44\n      tag_121\n      calldatasize\n      0x04\n      tag_122\n      jump\t// in\n    tag_121:\n      tag_123\n      jump\t// in\n        /* \"Documents/GitHub/Store-system-with-feedback/main.sol\":12241:12554  function refusalToPurchase (uint idPurchase) public payable {\r... */\n    tag_20:\n      tag_44\n      tag_125\n      calldatasize\n      0x04\n      tag_126\n      jump\t// in\n    tag_125:\n      tag_127\n      jump\t// in\n        /* \"Documents/GitHub/Store-system-with-feedback/main.sol\":6677:6728  structStatusMarriage[] public structStatusMarriages */\n    tag_21:\n      callvalue\n      dup1\n      iszero\n      tag_128\n      jumpi\n      0x00\n      dup1\n      revert\n    tag_128:\n      pop\n      tag_129\n      tag_130\n      calldatasize\n      0x04\n      tag_126\n      jump\t// in\n    tag_130:\n      tag_131\n      jump\t// in\n    tag_129:\n      mload(0x40)\n      tag_41\n      swap4\n      swap3\n      swap2\n      swap1\n      tag_133\n      jump\t// in\n        /* \"Documents/GitHub/Store-system-with-feedback/main.sol\":11212:11614  function login_shop(string memory login, bytes32 password) public {\r... */\n    tag_22:\n      callvalue\n      dup1\n      iszero\n      tag_134\n      jumpi\n      0x00\n      dup1\n      revert\n    tag_134:\n      pop\n      tag_44\n      tag_136\n      calldatasize\n      0x04\n      tag_137\n      jump\t// in\n    tag_136:\n      tag_138\n      jump\t// in\n        /* \"Documents/GitHub/Store-system-with-feedback/main.sol\":1698:2413  function get_product_list(string memory login) public view returns(string[] memory) {\r... */\n    tag_23:\n      callvalue\n      dup1\n      iszero\n      tag_139\n      jumpi\n      0x00\n      dup1\n      revert\n    tag_139:\n      pop\n      tag_72\n      tag_141\n      calldatasize\n      0x04\n      tag_39\n      jump\t// in\n    tag_141:\n      tag_142\n      jump\t// in\n        /* \"Documents/GitHub/Store-system-with-feedback/main.sol\":3973:4112  function get_hash(string memory password) public pure returns(bytes32) {\r... */\n    tag_24:\n      callvalue\n      dup1\n      iszero\n      tag_144\n      jumpi\n      0x00\n      dup1\n      revert\n    tag_144:\n      pop\n      tag_37\n      tag_146\n      calldatasize\n      0x04\n      tag_39\n      jump\t// in\n    tag_146:\n      tag_147\n      jump\t// in\n        /* \"Documents/GitHub/Store-system-with-feedback/main.sol\":9157:9680  function acceptMarriage(uint idMarriage, bool confirmation) public payable {\r... */\n    tag_25:\n      tag_44\n      tag_151\n      calldatasize\n      0x04\n      tag_49\n      jump\t// in\n    tag_151:\n      tag_152\n      jump\t// in\n        /* \"Documents/GitHub/Store-system-with-feedback/main.sol\":4839:4889  mapping (address => structShop) public structShops */\n    tag_26:\n      callvalue\n      dup1\n      iszero\n      tag_153\n      jumpi\n      0x00\n      dup1\n      revert\n    tag_153:\n      pop\n      tag_154\n      tag_155\n      calldatasize\n      0x04\n      tag_68\n      jump\t// in\n    tag_155:\n      tag_156\n      jump\t// in\n    tag_154:\n      mload(0x40)\n      tag_41\n      swap8\n      swap7\n      swap6\n      swap5\n      swap4\n      swap3\n      swap2\n      swap1\n      tag_158\n      jump\t// in\n        /* \"Documents/GitHub/Store-system-with-feedback/main.sol\":5523:5572  mapping(address => structUser) public structUsers */\n    tag_27:\n      callvalue\n      dup1\n      iszero\n      tag_159\n      jumpi\n      0x00\n      dup1\n      revert\n    tag_159:\n      pop\n      tag_160\n      tag_161\n      calldatasize\n      0x04\n      tag_68\n      jump\t// in\n    tag_161:\n      tag_162\n      jump\t// in\n    tag_160:\n      mload(0x40)\n      tag_41\n      swap5\n      swap4\n      swap3\n      swap2\n      swap1\n      tag_164\n      jump\t// in\n        /* \"Documents/GitHub/Store-system-with-feedback/main.sol\":9763:10616  function getStoryRating(string memory shopName) public view returns(uint) {\r... */\n    tag_28:\n      callvalue\n      dup1\n      iszero\n      tag_165\n      jumpi\n      0x00\n      dup1\n      revert\n    tag_165:\n      pop\n      tag_37\n      tag_167\n      calldatasize\n      0x04\n      tag_39\n      jump\t// in\n    tag_167:\n      tag_168\n      jump\t// in\n        /* \"Documents/GitHub/Store-system-with-feedback/main.sol\":6424:6471  structStatusReturn[] public structStatusReturns */\n    tag_29:\n      callvalue\n      dup1\n      iszero\n      tag_170\n      jumpi\n      0x00\n      dup1\n      revert\n    tag_170:\n      pop\n      tag_129\n      tag_172\n      calldatasize\n      0x04\n      tag_126\n      jump\t// in\n    tag_172:\n      tag_173\n      jump\t// in\n        /* \"Documents/GitHub/Store-system-with-feedback/main.sol\":12620:13191  function productReturn(string memory titleProduct) public {\r... */\n    tag_30:\n      callvalue\n      dup1\n      iszero\n      tag_175\n      jumpi\n      0x00\n      dup1\n      revert\n    tag_175:\n      pop\n      tag_44\n      tag_177\n      calldatasize\n      0x04\n      tag_39\n      jump\t// in\n    tag_177:\n      tag_178\n      jump\t// in\n        /* \"Documents/GitHub/Store-system-with-feedback/main.sol\":4896:4939  mapping(string => address) public shopLists */\n    tag_31:\n      callvalue\n      dup1\n      iszero\n      tag_179\n      jumpi\n      0x00\n      dup1\n      revert\n    tag_179:\n      pop\n      tag_60\n      tag_181\n      calldatasize\n      0x04\n      tag_39\n      jump\t// in\n    tag_181:\n      dup1\n      mload\n      0x20\n      dup2\n      dup4\n      add\n      dup2\n      add\n      dup1\n      mload\n      0x01\n      dup3\n      mstore\n      swap3\n      dup3\n      add\n      swap2\n      swap1\n      swap4\n      add\n      keccak256\n      swap2\n      mstore\n      sload\n      sub(shl(0xa0, 0x01), 0x01)\n      and\n      dup2\n      jump\n        /* \"Documents/GitHub/Store-system-with-feedback/main.sol\":7242:7830  function leaveFeedback (string memory shop, string memory feedback, uint256 rating) public {\r... */\n    tag_32:\n      callvalue\n      dup1\n      iszero\n      tag_184\n      jumpi\n      0x00\n      dup1\n      revert\n    tag_184:\n      pop\n      tag_44\n      tag_186\n      calldatasize\n      0x04\n      tag_187\n      jump\t// in\n    tag_186:\n      tag_188\n      jump\t// in\n        /* \"Documents/GitHub/Store-system-with-feedback/main.sol\":14308:14738  function login_user(string memory login, bytes32 password) public {\r... */\n    tag_33:\n      callvalue\n      dup1\n      iszero\n      tag_189\n      jumpi\n      0x00\n      dup1\n      revert\n    tag_189:\n      pop\n      tag_44\n      tag_191\n      calldatasize\n      0x04\n      tag_137\n      jump\t// in\n    tag_191:\n      tag_192\n      jump\t// in\n        /* \"Documents/GitHub/Store-system-with-feedback/main.sol\":5879:5933  mapping(string => structProduct) public structProducts */\n    tag_34:\n      callvalue\n      dup1\n      iszero\n      tag_193\n      jumpi\n      0x00\n      dup1\n      revert\n    tag_193:\n      pop\n      tag_194\n      tag_195\n      calldatasize\n      0x04\n      tag_39\n      jump\t// in\n    tag_195:\n      tag_196\n      jump\t// in\n    tag_194:\n      mload(0x40)\n      tag_41\n      swap5\n      swap4\n      swap3\n      swap2\n      swap1\n      tag_198\n      jump\t// in\n        /* \"Documents/GitHub/Store-system-with-feedback/main.sol\":6186:6237  structStatusPurchase[] public structStatusPurchases */\n    tag_35:\n      callvalue\n      dup1\n      iszero\n      tag_199\n      jumpi\n      0x00\n      dup1\n      revert\n    tag_199:\n      pop\n      tag_200\n      tag_201\n      calldatasize\n      0x04\n      tag_126\n      jump\t// in\n    tag_201:\n      tag_202\n      jump\t// in\n    tag_200:\n      mload(0x40)\n      tag_41\n      swap5\n      swap4\n      swap3\n      swap2\n      swap1\n      tag_204\n      jump\t// in\n        /* \"Documents/GitHub/Store-system-with-feedback/main.sol\":2758:2897  function get_role_shop(string memory login) public view returns(uint) {\r... */\n    tag_40:\n        /* \"Documents/GitHub/Store-system-with-feedback/main.sol\":2822:2826  uint */\n      0x00\n        /* \"Documents/GitHub/Store-system-with-feedback/main.sol\":2850:2861  structShops */\n      dup1\n        /* \"Documents/GitHub/Store-system-with-feedback/main.sol\":2850:2879  structShops[shopLists[login]] */\n      0x00\n        /* \"Documents/GitHub/Store-system-with-feedback/main.sol\":2862:2871  shopLists */\n      0x01\n        /* \"Documents/GitHub/Store-system-with-feedback/main.sol\":2872:2877  login */\n      dup5\n        /* \"Documents/GitHub/Store-system-with-feedback/main.sol\":2862:2878  shopLists[login] */\n      mload(0x40)\n      tag_206\n      swap2\n      swap1\n      tag_207\n      jump\t// in\n    tag_206:\n      swap1\n      dup2\n      mstore\n      0x40\n      dup1\n      mload\n      0x20\n      swap3\n      dup2\n      swap1\n      sub\n      dup4\n      add\n      swap1\n      keccak256\n      sload\n      sub(shl(0xa0, 0x01), 0x01)\n      and\n        /* \"Documents/GitHub/Store-system-with-feedback/main.sol\":2850:2879  structShops[shopLists[login]] */\n      dup4\n      mstore\n      swap1\n      dup3\n      add\n      swap3\n      swap1\n      swap3\n      mstore\n      add\n      0x00\n      keccak256\n        /* \"Documents/GitHub/Store-system-with-feedback/main.sol\":2850:2884  structShops[shopLists[login]].role */\n      0x02\n      add\n      sload\n      swap3\n      swap2\n      pop\n      pop\n        /* \"Documents/GitHub/Store-system-with-feedback/main.sol\":2758:2897  function get_role_shop(string memory login) public view returns(uint) {\r... */\n      jump\t// out\n        /* \"Documents/GitHub/Store-system-with-feedback/main.sol\":11695:11810  function login_out_shop(string memory login) public {\r... */\n    tag_46:\n        /* \"Documents/GitHub/Store-system-with-feedback/main.sol\":11797:11802  false */\n      0x00\n        /* \"Documents/GitHub/Store-system-with-feedback/main.sol\":11758:11769  structShops */\n      dup1\n        /* \"Documents/GitHub/Store-system-with-feedback/main.sol\":11758:11787  structShops[shopLists[login]] */\n      0x00\n        /* \"Documents/GitHub/Store-system-with-feedback/main.sol\":11770:11779  shopLists */\n      0x01\n        /* \"Documents/GitHub/Store-system-with-feedback/main.sol\":11780:11785  login */\n      dup5\n        /* \"Documents/GitHub/Store-system-with-feedback/main.sol\":11770:11786  shopLists[login] */\n      mload(0x40)\n      tag_209\n      swap2\n      swap1\n      tag_207\n      jump\t// in\n    tag_209:\n      swap1\n      dup2\n      mstore\n      0x40\n      dup1\n      mload\n      0x20\n      swap3\n      dup2\n      swap1\n      sub\n      dup4\n      add\n      swap1\n      keccak256\n      sload\n      sub(shl(0xa0, 0x01), 0x01)\n      and\n        /* \"Documents/GitHub/Store-system-with-feedback/main.sol\":11758:11787  structShops[shopLists[login]] */\n      dup4\n      mstore\n      swap1\n      dup3\n      add\n      swap3\n      swap1\n      swap3\n      mstore\n      add\n      0x00\n      keccak256\n        /* \"Documents/GitHub/Store-system-with-feedback/main.sol\":11758:11794  structShops[shopLists[login]].logged */\n      0x03\n      add\n        /* \"Documents/GitHub/Store-system-with-feedback/main.sol\":11758:11802  structShops[shopLists[login]].logged = false */\n      dup1\n      sload\n      not(0xff)\n      and\n      swap2\n      iszero\n      iszero\n      swap2\n      swap1\n      swap2\n      or\n      swap1\n      sstore\n      pop\n        /* \"Documents/GitHub/Store-system-with-feedback/main.sol\":11695:11810  function login_out_shop(string memory login) public {\r... */\n      jump\t// out\n        /* \"Documents/GitHub/Store-system-with-feedback/main.sol\":7892:8532  function acceptPurchase (uint idPurchase, bool confirmation) public payable {\r... */\n    tag_50:\n        /* \"Documents/GitHub/Store-system-with-feedback/main.sol\":8001:8015  structProducts */\n      0x08\n        /* \"Documents/GitHub/Store-system-with-feedback/main.sol\":8016:8037  structStatusPurchases */\n      0x0a\n        /* \"Documents/GitHub/Store-system-with-feedback/main.sol\":8038:8048  idPurchase */\n      dup4\n        /* \"Documents/GitHub/Store-system-with-feedback/main.sol\":8016:8049  structStatusPurchases[idPurchase] */\n      dup2\n      sload\n      dup2\n      lt\n      tag_212\n      jumpi\n      tag_212\n      tag_213\n      jump\t// in\n    tag_212:\n      swap1\n      0x00\n      mstore\n      keccak256(0x00, 0x20)\n      swap1\n      0x04\n      mul\n      add\n        /* \"Documents/GitHub/Store-system-with-feedback/main.sol\":8016:8062  structStatusPurchases[idPurchase].titleProduct */\n      0x01\n      add\n        /* \"Documents/GitHub/Store-system-with-feedback/main.sol\":8001:8063  structProducts[structStatusPurchases[idPurchase].titleProduct] */\n      mload(0x40)\n      tag_215\n      swap2\n      swap1\n      tag_216\n      jump\t// in\n    tag_215:\n      swap1\n      dup2\n      mstore\n      mload(0x40)\n      swap1\n      dup2\n      swap1\n      sub\n      0x20\n      add\n      swap1\n      keccak256\n        /* \"Documents/GitHub/Store-system-with-feedback/main.sol\":8001:8068  structProducts[structStatusPurchases[idPurchase].titleProduct].shop */\n      sload\n        /* \"Documents/GitHub/Store-system-with-feedback/main.sol\":7987:7997  msg.sender */\n      caller\n      sub(shl(0xa0, 0x01), 0x01)\n        /* \"Documents/GitHub/Store-system-with-feedback/main.sol\":8001:8068  structProducts[structStatusPurchases[idPurchase].titleProduct].shop */\n      swap1\n      swap2\n      and\n        /* \"Documents/GitHub/Store-system-with-feedback/main.sol\":7987:8068  msg.sender == structProducts[structStatusPurchases[idPurchase].titleProduct].shop */\n      eq\n        /* \"Documents/GitHub/Store-system-with-feedback/main.sol\":7979:8104  require(msg.sender == structProducts[structStatusPurchases[idPurchase].titleProduct].shop, \"error: this is not your product\") */\n      tag_217\n      jumpi\n      mload(0x40)\n      shl(0xe5, 0x461bcd)\n      dup2\n      mstore\n      0x04\n      add\n      tag_218\n      swap1\n      tag_219\n      jump\t// in\n    tag_218:\n      mload(0x40)\n      dup1\n      swap2\n      sub\n      swap1\n      revert\n    tag_217:\n        /* \"Documents/GitHub/Store-system-with-feedback/main.sol\":8135:8139  true */\n      0x01\n        /* \"Documents/GitHub/Store-system-with-feedback/main.sol\":8119:8139  confirmation == true */\n      dup2\n      iszero\n      iszero\n      eq\n        /* \"Documents/GitHub/Store-system-with-feedback/main.sol\":8115:8525  if (confirmation == true) {\r... */\n      iszero\n      tag_220\n      jumpi\n        /* \"Documents/GitHub/Store-system-with-feedback/main.sol\":8164:8174  msg.sender */\n      caller\n      sub(shl(0xa0, 0x01), 0x01)\n        /* \"Documents/GitHub/Store-system-with-feedback/main.sol\":8156:8184  payable(msg.sender).transfer */\n      and\n        /* \"Documents/GitHub/Store-system-with-feedback/main.sol\":8156:8225  payable(msg.sender).transfer(structStatusPurchases[idPurchase].price) */\n      0x08fc\n        /* \"Documents/GitHub/Store-system-with-feedback/main.sol\":8185:8206  structStatusPurchases */\n      0x0a\n        /* \"Documents/GitHub/Store-system-with-feedback/main.sol\":8207:8217  idPurchase */\n      dup5\n        /* \"Documents/GitHub/Store-system-with-feedback/main.sol\":8185:8218  structStatusPurchases[idPurchase] */\n      dup2\n      sload\n      dup2\n      lt\n      tag_222\n      jumpi\n      tag_222\n      tag_213\n      jump\t// in\n    tag_222:\n      swap1\n      0x00\n      mstore\n      keccak256(0x00, 0x20)\n      swap1\n      0x04\n      mul\n      add\n        /* \"Documents/GitHub/Store-system-with-feedback/main.sol\":8185:8224  structStatusPurchases[idPurchase].price */\n      0x02\n      add\n      sload\n        /* \"Documents/GitHub/Store-system-with-feedback/main.sol\":8156:8225  payable(msg.sender).transfer(structStatusPurchases[idPurchase].price) */\n      swap1\n      dup2\n      iszero\n      mul\n      swap1\n      mload(0x40)\n      0x00\n      mload(0x40)\n      dup1\n      dup4\n      sub\n      dup2\n      dup6\n      dup9\n      dup9\n      call\n      swap4\n      pop\n      pop\n      pop\n      pop\n      iszero\n      dup1\n      iszero\n      tag_225\n      jumpi\n      returndatasize\n      0x00\n      dup1\n      returndatacopy\n      revert(0x00, returndatasize)\n    tag_225:\n      pop\n        /* \"Documents/GitHub/Store-system-with-feedback/main.sol\":8283:8288  false */\n      0x00\n        /* \"Documents/GitHub/Store-system-with-feedback/main.sol\":8240:8261  structStatusPurchases */\n      0x0a\n        /* \"Documents/GitHub/Store-system-with-feedback/main.sol\":8262:8272  idPurchase */\n      dup4\n        /* \"Documents/GitHub/Store-system-with-feedback/main.sol\":8240:8273  structStatusPurchases[idPurchase] */\n      dup2\n      sload\n      dup2\n      lt\n      tag_227\n      jumpi\n      tag_227\n      tag_213\n      jump\t// in\n    tag_227:\n      0x00\n      swap2\n      dup3\n      mstore\n      0x20\n      swap1\n      swap2\n      keccak256\n      0x04\n      swap1\n      swap2\n      mul\n      add\n        /* \"Documents/GitHub/Store-system-with-feedback/main.sol\":8240:8280  structStatusPurchases[idPurchase].status */\n      0x03\n      add\n        /* \"Documents/GitHub/Store-system-with-feedback/main.sol\":8240:8288  structStatusPurchases[idPurchase].status = false */\n      dup1\n      sload\n      not(0xff)\n      and\n      swap2\n      iszero\n      iszero\n      swap2\n      swap1\n      swap2\n      or\n      swap1\n      sstore\n        /* \"Documents/GitHub/Store-system-with-feedback/main.sol\":7892:8532  function acceptPurchase (uint idPurchase, bool confirmation) public payable {\r... */\n      pop\n      pop\n      jump\t// out\n        /* \"Documents/GitHub/Store-system-with-feedback/main.sol\":8115:8525  if (confirmation == true) {\r... */\n    tag_220:\n        /* \"Documents/GitHub/Store-system-with-feedback/main.sol\":8310:8331  confirmation == false */\n      dup1\n        /* \"Documents/GitHub/Store-system-with-feedback/main.sol\":8306:8525  if (confirmation == false) {\r... */\n      tag_230\n      jumpi\n        /* \"Documents/GitHub/Store-system-with-feedback/main.sol\":8356:8377  structStatusPurchases */\n      0x0a\n        /* \"Documents/GitHub/Store-system-with-feedback/main.sol\":8378:8388  idPurchase */\n      dup3\n        /* \"Documents/GitHub/Store-system-with-feedback/main.sol\":8356:8389  structStatusPurchases[idPurchase] */\n      dup2\n      sload\n      dup2\n      lt\n      tag_232\n      jumpi\n      tag_232\n      tag_213\n      jump\t// in\n    tag_232:\n      0x00\n      swap2\n      dup3\n      mstore\n      0x20\n      swap1\n      swap2\n      keccak256\n      0x04\n      swap1\n      swap2\n      mul\n      add\n        /* \"Documents/GitHub/Store-system-with-feedback/main.sol\":8356:8399  structStatusPurchases[idPurchase].userLogin */\n      sload\n        /* \"Documents/GitHub/Store-system-with-feedback/main.sol\":8410:8431  structStatusPurchases */\n      0x0a\n        /* \"Documents/GitHub/Store-system-with-feedback/main.sol\":8410:8443  structStatusPurchases[idPurchase] */\n      dup1\n      sload\n      sub(shl(0xa0, 0x01), 0x01)\n        /* \"Documents/GitHub/Store-system-with-feedback/main.sol\":8356:8399  structStatusPurchases[idPurchase].userLogin */\n      swap1\n      swap3\n      and\n      swap2\n        /* \"Documents/GitHub/Store-system-with-feedback/main.sol\":8348:8450  payable(structStatusPurchases[idPurchase].userLogin).transfer(structStatusPurchases[idPurchase].price) */\n      0x08fc\n      swap2\n        /* \"Documents/GitHub/Store-system-with-feedback/main.sol\":8410:8431  structStatusPurchases */\n      swap1\n        /* \"Documents/GitHub/Store-system-with-feedback/main.sol\":8432:8442  idPurchase */\n      dup6\n      swap1\n        /* \"Documents/GitHub/Store-system-with-feedback/main.sol\":8410:8443  structStatusPurchases[idPurchase] */\n      dup2\n      lt\n      tag_222\n      jumpi\n      tag_222\n      tag_213\n      jump\t// in\n        /* \"Documents/GitHub/Store-system-with-feedback/main.sol\":8306:8525  if (confirmation == false) {\r... */\n    tag_230:\n        /* \"Documents/GitHub/Store-system-with-feedback/main.sol\":7892:8532  function acceptPurchase (uint idPurchase, bool confirmation) public payable {\r... */\n      pop\n      pop\n      jump\t// out\n        /* \"Documents/GitHub/Store-system-with-feedback/main.sol\":13898:14220  function create_user(address addr, string memory login, bytes32 password) public {\r... */\n    tag_55:\n        /* \"Documents/GitHub/Store-system-with-feedback/main.sol\":14033:14034  0 */\n      0x00\n      sub(shl(0xa0, 0x01), 0x01)\n        /* \"Documents/GitHub/Store-system-with-feedback/main.sol\":13998:14035  structUserLogins[login] == address(0) */\n      and\n        /* \"Documents/GitHub/Store-system-with-feedback/main.sol\":13998:14014  structUserLogins */\n      0x05\n        /* \"Documents/GitHub/Store-system-with-feedback/main.sol\":14015:14020  login */\n      dup4\n        /* \"Documents/GitHub/Store-system-with-feedback/main.sol\":13998:14021  structUserLogins[login] */\n      mload(0x40)\n      tag_243\n      swap2\n      swap1\n      tag_207\n      jump\t// in\n    tag_243:\n      swap1\n      dup2\n      mstore\n      mload(0x40)\n      swap1\n      dup2\n      swap1\n      sub\n      0x20\n      add\n      swap1\n      keccak256\n      sload\n      sub(shl(0xa0, 0x01), 0x01)\n      and\n        /* \"Documents/GitHub/Store-system-with-feedback/main.sol\":13998:14035  structUserLogins[login] == address(0) */\n      eq\n        /* \"Documents/GitHub/Store-system-with-feedback/main.sol\":13990:14065  require(structUserLogins[login] == address(0), \"Error: User already exist\") */\n      tag_244\n      jumpi\n      mload(0x40)\n      shl(0xe5, 0x461bcd)\n      dup2\n      mstore\n        /* \"#utility.yul\":11549:11551   */\n      0x20\n        /* \"Documents/GitHub/Store-system-with-feedback/main.sol\":13990:14065  require(structUserLogins[login] == address(0), \"Error: User already exist\") */\n      0x04\n      dup3\n      add\n        /* \"#utility.yul\":11531:11552   */\n      mstore\n        /* \"#utility.yul\":11588:11590   */\n      0x19\n        /* \"#utility.yul\":11568:11586   */\n      0x24\n      dup3\n      add\n        /* \"#utility.yul\":11561:11591   */\n      mstore\n      shl(0x3a, 0x115c9c9bdc8e88155cd95c88185b1c9958591e48195e1a5cdd)\n        /* \"#utility.yul\":11607:11625   */\n      0x44\n      dup3\n      add\n        /* \"#utility.yul\":11600:11655   */\n      mstore\n        /* \"#utility.yul\":11672:11690   */\n      0x64\n      add\n        /* \"Documents/GitHub/Store-system-with-feedback/main.sol\":13990:14065  require(structUserLogins[login] == address(0), \"Error: User already exist\") */\n      tag_218\n        /* \"#utility.yul\":11347:11696   */\n      jump\n        /* \"Documents/GitHub/Store-system-with-feedback/main.sol\":13990:14065  require(structUserLogins[login] == address(0), \"Error: User already exist\") */\n    tag_244:\n        /* \"Documents/GitHub/Store-system-with-feedback/main.sol\":14096:14133  structUser(login, password, 2, false) */\n      0x40\n      dup1\n      mload\n      0x80\n      dup2\n      add\n      dup3\n      mstore\n      dup4\n      dup2\n      mstore\n      0x20\n      dup1\n      dup3\n      add\n      dup5\n      swap1\n      mstore\n        /* \"Documents/GitHub/Store-system-with-feedback/main.sol\":14124:14125  2 */\n      0x02\n        /* \"Documents/GitHub/Store-system-with-feedback/main.sol\":14096:14133  structUser(login, password, 2, false) */\n      dup3\n      dup5\n      add\n      mstore\n      0x00\n      0x60\n      dup4\n      add\n      dup2\n      swap1\n      mstore\n      sub(shl(0xa0, 0x01), 0x01)\n        /* \"Documents/GitHub/Store-system-with-feedback/main.sol\":14076:14093  structUsers[addr] */\n      dup8\n      and\n      dup2\n      mstore\n        /* \"Documents/GitHub/Store-system-with-feedback/main.sol\":14076:14087  structUsers */\n      0x04\n        /* \"Documents/GitHub/Store-system-with-feedback/main.sol\":14076:14093  structUsers[addr] */\n      dup3\n      mstore\n      swap3\n      swap1\n      swap3\n      keccak256\n        /* \"Documents/GitHub/Store-system-with-feedback/main.sol\":14076:14133  structUsers[addr] = structUser(login, password, 2, false) */\n      dup2\n      mload\n      dup1\n      mload\n        /* \"Documents/GitHub/Store-system-with-feedback/main.sol\":14096:14133  structUser(login, password, 2, false) */\n      swap3\n      swap4\n        /* \"Documents/GitHub/Store-system-with-feedback/main.sol\":14076:14093  structUsers[addr] */\n      swap2\n      swap3\n        /* \"Documents/GitHub/Store-system-with-feedback/main.sol\":14076:14133  structUsers[addr] = structUser(login, password, 2, false) */\n      tag_247\n      swap3\n        /* \"Documents/GitHub/Store-system-with-feedback/main.sol\":14076:14093  structUsers[addr] */\n      dup5\n      swap3\n        /* \"Documents/GitHub/Store-system-with-feedback/main.sol\":14076:14133  structUsers[addr] = structUser(login, password, 2, false) */\n      add\n      swap1\n      tag_248\n      jump\t// in\n    tag_247:\n      pop\n      0x20\n      dup3\n      add\n      mload\n      0x01\n      dup3\n      add\n      sstore\n      0x40\n      dup1\n      dup4\n      add\n      mload\n      0x02\n      dup4\n      add\n      sstore\n      0x60\n      swap1\n      swap3\n      add\n      mload\n      0x03\n      swap1\n      swap2\n      add\n      dup1\n      sload\n      not(0xff)\n      and\n      swap2\n      iszero\n      iszero\n      swap2\n      swap1\n      swap2\n      or\n      swap1\n      sstore\n        /* \"Documents/GitHub/Store-system-with-feedback/main.sol\":14144:14167  structUserLogins[login] */\n      mload\n        /* \"Documents/GitHub/Store-system-with-feedback/main.sol\":14170:14174  addr */\n      dup4\n      swap1\n        /* \"Documents/GitHub/Store-system-with-feedback/main.sol\":14144:14160  structUserLogins */\n      0x05\n      swap1\n        /* \"Documents/GitHub/Store-system-with-feedback/main.sol\":14144:14167  structUserLogins[login] */\n      tag_249\n      swap1\n        /* \"Documents/GitHub/Store-system-with-feedback/main.sol\":14161:14166  login */\n      dup6\n      swap1\n        /* \"Documents/GitHub/Store-system-with-feedback/main.sol\":14144:14167  structUserLogins[login] */\n      tag_207\n      jump\t// in\n    tag_249:\n      swap1\n      dup2\n      mstore\n      mload(0x40)\n      swap1\n      dup2\n      swap1\n      sub\n      0x20\n      add\n      swap1\n      keccak256\n        /* \"Documents/GitHub/Store-system-with-feedback/main.sol\":14144:14174  structUserLogins[login] = addr */\n      dup1\n      sload\n      sub(shl(0xa0, 0x01), 0x01)\n      swap3\n      dup4\n      and\n      not(sub(shl(0xa0, 0x01), 0x01))\n      swap2\n      dup3\n      and\n      or\n      swap1\n      swap2\n      sstore\n        /* \"Documents/GitHub/Store-system-with-feedback/main.sol\":14185:14201  userAddressArray */\n      0x07\n        /* \"Documents/GitHub/Store-system-with-feedback/main.sol\":14185:14212  userAddressArray.push(addr) */\n      dup1\n      sload\n        /* \"Documents/GitHub/Store-system-with-feedback/main.sol\":14144:14174  structUserLogins[login] = addr */\n      0x01\n        /* \"Documents/GitHub/Store-system-with-feedback/main.sol\":14185:14212  userAddressArray.push(addr) */\n      dup2\n      add\n      dup3\n      sstore\n        /* \"Documents/GitHub/Store-system-with-feedback/main.sol\":14144:14167  structUserLogins[login] */\n      0x00\n        /* \"Documents/GitHub/Store-system-with-feedback/main.sol\":14185:14212  userAddressArray.push(addr) */\n      swap2\n      swap1\n      swap2\n      mstore\n      0xa66cc928b5edb82af9bd49922954155ab7b0942694bea4ce44661d9a8736c688\n      add\n      dup1\n      sload\n      swap6\n      swap1\n      swap3\n      and\n      swap5\n      and\n      swap4\n      swap1\n      swap4\n      or\n      swap1\n      swap3\n      sstore\n      pop\n      pop\n        /* \"Documents/GitHub/Store-system-with-feedback/main.sol\":13898:14220  function create_user(address addr, string memory login, bytes32 password) public {\r... */\n      jump\t// out\n        /* \"Documents/GitHub/Store-system-with-feedback/main.sol\":11899:12167  function productPurchases(string memory titleProduct) public payable {\r... */\n    tag_58:\n        /* \"Documents/GitHub/Store-system-with-feedback/main.sol\":12001:12015  structProducts */\n      0x08\n        /* \"Documents/GitHub/Store-system-with-feedback/main.sol\":12016:12028  titleProduct */\n      dup2\n        /* \"Documents/GitHub/Store-system-with-feedback/main.sol\":12001:12029  structProducts[titleProduct] */\n      mload(0x40)\n      tag_252\n      swap2\n      swap1\n      tag_207\n      jump\t// in\n    tag_252:\n      swap1\n      dup2\n      mstore\n      0x20\n      add\n      mload(0x40)\n      dup1\n      swap2\n      sub\n      swap1\n      keccak256\n        /* \"Documents/GitHub/Store-system-with-feedback/main.sol\":12001:12035  structProducts[titleProduct].price */\n      0x02\n      add\n      sload\n        /* \"Documents/GitHub/Store-system-with-feedback/main.sol\":11987:11996  msg.value */\n      callvalue\n        /* \"Documents/GitHub/Store-system-with-feedback/main.sol\":11987:12036  msg.value == (structProducts[titleProduct].price) */\n      eq\n        /* \"Documents/GitHub/Store-system-with-feedback/main.sol\":11979:12057  require(msg.value == (structProducts[titleProduct].price), \"error: not money\") */\n      tag_253\n      jumpi\n      mload(0x40)\n      shl(0xe5, 0x461bcd)\n      dup2\n      mstore\n        /* \"#utility.yul\":13683:13685   */\n      0x20\n        /* \"Documents/GitHub/Store-system-with-feedback/main.sol\":11979:12057  require(msg.value == (structProducts[titleProduct].price), \"error: not money\") */\n      0x04\n      dup3\n      add\n        /* \"#utility.yul\":13665:13686   */\n      mstore\n        /* \"#utility.yul\":13722:13724   */\n      0x10\n        /* \"#utility.yul\":13702:13720   */\n      0x24\n      dup3\n      add\n        /* \"#utility.yul\":13695:13725   */\n      mstore\n      shl(0x80, 0x6572726f723a206e6f74206d6f6e6579)\n        /* \"#utility.yul\":13741:13759   */\n      0x44\n      dup3\n      add\n        /* \"#utility.yul\":13734:13780   */\n      mstore\n        /* \"#utility.yul\":13797:13815   */\n      0x64\n      add\n        /* \"Documents/GitHub/Store-system-with-feedback/main.sol\":11979:12057  require(msg.value == (structProducts[titleProduct].price), \"error: not money\") */\n      tag_218\n        /* \"#utility.yul\":13481:13821   */\n      jump\n        /* \"Documents/GitHub/Store-system-with-feedback/main.sol\":11979:12057  require(msg.value == (structProducts[titleProduct].price), \"error: not money\") */\n    tag_253:\n        /* \"Documents/GitHub/Store-system-with-feedback/main.sol\":12095:12158  structStatusPurchase(msg.sender, titleProduct, msg.value, true) */\n      0x40\n      dup1\n      mload\n      0x80\n      dup2\n      add\n      dup3\n      mstore\n        /* \"Documents/GitHub/Store-system-with-feedback/main.sol\":12116:12126  msg.sender */\n      caller\n        /* \"Documents/GitHub/Store-system-with-feedback/main.sol\":12095:12158  structStatusPurchase(msg.sender, titleProduct, msg.value, true) */\n      dup2\n      mstore\n      0x20\n      dup1\n      dup3\n      add\n      dup5\n      dup2\n      mstore\n        /* \"Documents/GitHub/Store-system-with-feedback/main.sol\":12142:12151  msg.value */\n      callvalue\n        /* \"Documents/GitHub/Store-system-with-feedback/main.sol\":12095:12158  structStatusPurchase(msg.sender, titleProduct, msg.value, true) */\n      swap4\n      dup4\n      add\n      swap4\n      swap1\n      swap4\n      mstore\n        /* \"Documents/GitHub/Store-system-with-feedback/main.sol\":12153:12157  true */\n      0x01\n        /* \"Documents/GitHub/Store-system-with-feedback/main.sol\":12095:12158  structStatusPurchase(msg.sender, titleProduct, msg.value, true) */\n      0x60\n      dup4\n      add\n      dup2\n      swap1\n      mstore\n        /* \"Documents/GitHub/Store-system-with-feedback/main.sol\":12068:12089  structStatusPurchases */\n      0x0a\n        /* \"Documents/GitHub/Store-system-with-feedback/main.sol\":12068:12159  structStatusPurchases.push(structStatusPurchase(msg.sender, titleProduct, msg.value, true)) */\n      dup1\n      sload\n      swap2\n      dup3\n      add\n      dup2\n      sstore\n      0x00\n      mstore\n      dup3\n      mload\n      0xc65a7bb8d6351c1cf70c95a316cc6a92839c986682d98bc35f958f4883f9d2a8\n      0x04\n      swap1\n      swap3\n      mul\n      swap2\n      dup3\n      add\n      dup1\n      sload\n      not(sub(shl(0xa0, 0x01), 0x01))\n      and\n      sub(shl(0xa0, 0x01), 0x01)\n      swap1\n      swap3\n      and\n      swap2\n      swap1\n      swap2\n      or\n      dup2\n      sstore\n      swap4\n      mload\n      dup1\n      mload\n        /* \"Documents/GitHub/Store-system-with-feedback/main.sol\":12095:12158  structStatusPurchase(msg.sender, titleProduct, msg.value, true) */\n      swap4\n      swap5\n        /* \"Documents/GitHub/Store-system-with-feedback/main.sol\":12068:12159  structStatusPurchases.push(structStatusPurchase(msg.sender, titleProduct, msg.value, true)) */\n      swap4\n      tag_257\n      swap4\n      0xc65a7bb8d6351c1cf70c95a316cc6a92839c986682d98bc35f958f4883f9d2a9\n      swap1\n      swap4\n      add\n      swap3\n      swap2\n      swap1\n      swap2\n      add\n      swap1\n      tag_248\n      jump\t// in\n    tag_257:\n      pop\n      0x40\n      dup3\n      add\n      mload\n      0x02\n      dup3\n      add\n      sstore\n      0x60\n      swap1\n      swap2\n      add\n      mload\n      0x03\n      swap1\n      swap2\n      add\n      dup1\n      sload\n      not(0xff)\n      and\n      swap2\n      iszero\n      iszero\n      swap2\n      swap1\n      swap2\n      or\n      swap1\n      sstore\n      pop\n        /* \"Documents/GitHub/Store-system-with-feedback/main.sol\":11899:12167  function productPurchases(string memory titleProduct) public payable {\r... */\n      jump\t// out\n        /* \"Documents/GitHub/Store-system-with-feedback/main.sol\":1507:1611  function get_shop_list() public view returns(string[] memory) {\r... */\n    tag_73:\n        /* \"Documents/GitHub/Store-system-with-feedback/main.sol\":1552:1567  string[] memory */\n      0x60\n        /* \"Documents/GitHub/Store-system-with-feedback/main.sol\":1591:1599  shopList */\n      0x02\n        /* \"Documents/GitHub/Store-system-with-feedback/main.sol\":1584:1599  return shopList */\n      dup1\n      sload\n      dup1\n      0x20\n      mul\n      0x20\n      add\n      mload(0x40)\n      swap1\n      dup2\n      add\n      0x40\n      mstore\n      dup1\n      swap3\n      swap2\n      swap1\n      dup2\n      dup2\n      mstore\n      0x20\n      add\n      0x00\n      swap1\n    tag_260:\n      dup3\n      dup3\n      lt\n      iszero\n      tag_261\n      jumpi\n      dup4\n      dup3\n      swap1\n      0x00\n      mstore\n      keccak256(0x00, 0x20)\n      add\n      dup1\n      sload\n      tag_263\n      swap1\n      tag_264\n      jump\t// in\n    tag_263:\n      dup1\n      0x1f\n      add\n      0x20\n      dup1\n      swap2\n      div\n      mul\n      0x20\n      add\n      mload(0x40)\n      swap1\n      dup2\n      add\n      0x40\n      mstore\n      dup1\n      swap3\n      swap2\n      swap1\n      dup2\n      dup2\n      mstore\n      0x20\n      add\n      dup3\n      dup1\n      sload\n      tag_265\n      swap1\n      tag_264\n      jump\t// in\n    tag_265:\n      dup1\n      iszero\n      tag_266\n      jumpi\n      dup1\n      0x1f\n      lt\n      tag_267\n      jumpi\n      0x0100\n      dup1\n      dup4\n      sload\n      div\n      mul\n      dup4\n      mstore\n      swap2\n      0x20\n      add\n      swap2\n      jump(tag_266)\n    tag_267:\n      dup3\n      add\n      swap2\n      swap1\n      0x00\n      mstore\n      keccak256(0x00, 0x20)\n      swap1\n    tag_268:\n      dup2\n      sload\n      dup2\n      mstore\n      swap1\n      0x01\n      add\n      swap1\n      0x20\n      add\n      dup1\n      dup4\n      gt\n      tag_268\n      jumpi\n      dup3\n      swap1\n      sub\n      0x1f\n      and\n      dup3\n      add\n      swap2\n    tag_266:\n      pop\n      pop\n      pop\n      pop\n      pop\n      dup2\n      mstore\n      0x20\n      add\n      swap1\n      0x01\n      add\n      swap1\n      jump(tag_260)\n    tag_261:\n      pop\n      pop\n      pop\n      pop\n      swap1\n      pop\n        /* \"Documents/GitHub/Store-system-with-feedback/main.sol\":1507:1611  function get_shop_list() public view returns(string[] memory) {\r... */\n      swap1\n      jump\t// out\n        /* \"Documents/GitHub/Store-system-with-feedback/main.sol\":10713:11132  function leaveComment (string memory userName, string[] memory comment) public {\r... */\n    tag_80:\n        /* \"Documents/GitHub/Store-system-with-feedback/main.sol\":10807:10813  uint i */\n      0x00\n        /* \"Documents/GitHub/Store-system-with-feedback/main.sol\":10803:11125  for(uint i = 0; i < complaintBooks.length; i++) {\r... */\n    tag_270:\n        /* \"Documents/GitHub/Store-system-with-feedback/main.sol\":10823:10837  complaintBooks */\n      0x03\n        /* \"Documents/GitHub/Store-system-with-feedback/main.sol\":10823:10844  complaintBooks.length */\n      sload\n        /* \"Documents/GitHub/Store-system-with-feedback/main.sol\":10819:10844  i < complaintBooks.length */\n      dup2\n      lt\n        /* \"Documents/GitHub/Store-system-with-feedback/main.sol\":10803:11125  for(uint i = 0; i < complaintBooks.length; i++) {\r... */\n      iszero\n      tag_271\n      jumpi\n        /* \"Documents/GitHub/Store-system-with-feedback/main.sol\":10866:10892  string memory tempUserName */\n      0x00\n        /* \"Documents/GitHub/Store-system-with-feedback/main.sol\":10895:10909  complaintBooks */\n      0x03\n        /* \"Documents/GitHub/Store-system-with-feedback/main.sol\":10910:10911  i */\n      dup3\n        /* \"Documents/GitHub/Store-system-with-feedback/main.sol\":10895:10912  complaintBooks[i] */\n      dup2\n      sload\n      dup2\n      lt\n      tag_274\n      jumpi\n      tag_274\n      tag_213\n      jump\t// in\n    tag_274:\n      swap1\n      0x00\n      mstore\n      keccak256(0x00, 0x20)\n      swap1\n      0x05\n      mul\n      add\n        /* \"Documents/GitHub/Store-system-with-feedback/main.sol\":10895:10921  complaintBooks[i].userName */\n      0x01\n      add\n        /* \"Documents/GitHub/Store-system-with-feedback/main.sol\":10866:10921  string memory tempUserName = complaintBooks[i].userName */\n      dup1\n      sload\n      tag_276\n      swap1\n      tag_264\n      jump\t// in\n    tag_276:\n      dup1\n      0x1f\n      add\n      0x20\n      dup1\n      swap2\n      div\n      mul\n      0x20\n      add\n      mload(0x40)\n      swap1\n      dup2\n      add\n      0x40\n      mstore\n      dup1\n      swap3\n      swap2\n      swap1\n      dup2\n      dup2\n      mstore\n      0x20\n      add\n      dup3\n      dup1\n      sload\n      tag_277\n      swap1\n      tag_264\n      jump\t// in\n    tag_277:\n      dup1\n      iszero\n      tag_278\n      jumpi\n      dup1\n      0x1f\n      lt\n      tag_279\n      jumpi\n      0x0100\n      dup1\n      dup4\n      sload\n      div\n      mul\n      dup4\n      mstore\n      swap2\n      0x20\n      add\n      swap2\n      jump(tag_278)\n    tag_279:\n      dup3\n      add\n      swap2\n      swap1\n      0x00\n      mstore\n      keccak256(0x00, 0x20)\n      swap1\n    tag_280:\n      dup2\n      sload\n      dup2\n      mstore\n      swap1\n      0x01\n      add\n      swap1\n      0x20\n      add\n      dup1\n      dup4\n      gt\n      tag_280\n      jumpi\n      dup3\n      swap1\n      sub\n      0x1f\n      and\n      dup3\n      add\n      swap2\n    tag_278:\n      pop\n      pop\n      pop\n      pop\n      pop\n      swap1\n      pop\n        /* \"Documents/GitHub/Store-system-with-feedback/main.sol\":11011:11019  userName */\n      dup4\n        /* \"Documents/GitHub/Store-system-with-feedback/main.sol\":10994:11020  abi.encodePacked(userName) */\n      add(0x20, mload(0x40))\n      tag_281\n      swap2\n      swap1\n      tag_207\n      jump\t// in\n    tag_281:\n      mload(0x40)\n      0x20\n      dup2\n      dup4\n      sub\n      sub\n      dup2\n      mstore\n      swap1\n      0x40\n      mstore\n        /* \"Documents/GitHub/Store-system-with-feedback/main.sol\":10984:11021  keccak256(abi.encodePacked(userName)) */\n      dup1\n      mload\n      swap1\n      0x20\n      add\n      keccak256\n        /* \"Documents/GitHub/Store-system-with-feedback/main.sol\":10966:10978  tempUserName */\n      dup2\n        /* \"Documents/GitHub/Store-system-with-feedback/main.sol\":10949:10979  abi.encodePacked(tempUserName) */\n      add(0x20, mload(0x40))\n      tag_282\n      swap2\n      swap1\n      tag_207\n      jump\t// in\n    tag_282:\n      mload(0x40)\n      0x20\n      dup2\n      dup4\n      sub\n      sub\n      dup2\n      mstore\n      swap1\n      0x40\n      mstore\n        /* \"Documents/GitHub/Store-system-with-feedback/main.sol\":10939:10980  keccak256(abi.encodePacked(tempUserName)) */\n      dup1\n      mload\n      swap1\n      0x20\n      add\n      keccak256\n        /* \"Documents/GitHub/Store-system-with-feedback/main.sol\":10939:11021  keccak256(abi.encodePacked(tempUserName)) == keccak256(abi.encodePacked(userName)) */\n      eq\n        /* \"Documents/GitHub/Store-system-with-feedback/main.sol\":10936:11114  if(keccak256(abi.encodePacked(tempUserName)) == keccak256(abi.encodePacked(userName))) {                    \r... */\n      iszero\n      tag_283\n      jumpi\n        /* \"Documents/GitHub/Store-system-with-feedback/main.sol\":11091:11098  comment */\n      dup3\n        /* \"Documents/GitHub/Store-system-with-feedback/main.sol\":11062:11076  complaintBooks */\n      0x03\n        /* \"Documents/GitHub/Store-system-with-feedback/main.sol\":11077:11078  i */\n      dup4\n        /* \"Documents/GitHub/Store-system-with-feedback/main.sol\":11062:11079  complaintBooks[i] */\n      dup2\n      sload\n      dup2\n      lt\n      tag_285\n      jumpi\n      tag_285\n      tag_213\n      jump\t// in\n    tag_285:\n      swap1\n      0x00\n      mstore\n      keccak256(0x00, 0x20)\n      swap1\n      0x05\n      mul\n      add\n        /* \"Documents/GitHub/Store-system-with-feedback/main.sol\":11062:11088  complaintBooks[i].comments */\n      0x04\n      add\n        /* \"Documents/GitHub/Store-system-with-feedback/main.sol\":11062:11098  complaintBooks[i].comments = comment */\n      swap1\n      dup1\n      mload\n      swap1\n      0x20\n      add\n      swap1\n      tag_287\n      swap3\n      swap2\n      swap1\n      tag_288\n      jump\t// in\n    tag_287:\n      pop\n        /* \"Documents/GitHub/Store-system-with-feedback/main.sol\":10936:11114  if(keccak256(abi.encodePacked(tempUserName)) == keccak256(abi.encodePacked(userName))) {                    \r... */\n    tag_283:\n      pop\n        /* \"Documents/GitHub/Store-system-with-feedback/main.sol\":10846:10849  i++ */\n      dup1\n      tag_289\n      dup2\n      tag_290\n      jump\t// in\n    tag_289:\n      swap2\n      pop\n      pop\n        /* \"Documents/GitHub/Store-system-with-feedback/main.sol\":10803:11125  for(uint i = 0; i < complaintBooks.length; i++) {\r... */\n      jump(tag_270)\n    tag_271:\n      pop\n        /* \"Documents/GitHub/Store-system-with-feedback/main.sol\":10713:11132  function leaveComment (string memory userName, string[] memory comment) public {\r... */\n      pop\n      pop\n      jump\t// out\n        /* \"Documents/GitHub/Store-system-with-feedback/main.sol\":8596:9099  function acceptReturn(uint idReturn, bool confirmation) public payable {\r... */\n    tag_83:\n        /* \"Documents/GitHub/Store-system-with-feedback/main.sol\":8700:8714  structProducts */\n      0x08\n        /* \"Documents/GitHub/Store-system-with-feedback/main.sol\":8715:8734  structStatusReturns */\n      0x0b\n        /* \"Documents/GitHub/Store-system-with-feedback/main.sol\":8735:8743  idReturn */\n      dup4\n        /* \"Documents/GitHub/Store-system-with-feedback/main.sol\":8715:8744  structStatusReturns[idReturn] */\n      dup2\n      sload\n      dup2\n      lt\n      tag_293\n      jumpi\n      tag_293\n      tag_213\n      jump\t// in\n    tag_293:\n      swap1\n      0x00\n      mstore\n      keccak256(0x00, 0x20)\n      swap1\n      0x03\n      mul\n      add\n        /* \"Documents/GitHub/Store-system-with-feedback/main.sol\":8715:8757  structStatusReturns[idReturn].titleProduct */\n      0x01\n      add\n        /* \"Documents/GitHub/Store-system-with-feedback/main.sol\":8700:8758  structProducts[structStatusReturns[idReturn].titleProduct] */\n      mload(0x40)\n      tag_295\n      swap2\n      swap1\n      tag_216\n      jump\t// in\n    tag_295:\n      swap1\n      dup2\n      mstore\n      mload(0x40)\n      swap1\n      dup2\n      swap1\n      sub\n      0x20\n      add\n      swap1\n      keccak256\n        /* \"Documents/GitHub/Store-system-with-feedback/main.sol\":8700:8763  structProducts[structStatusReturns[idReturn].titleProduct].shop */\n      sload\n        /* \"Documents/GitHub/Store-system-with-feedback/main.sol\":8686:8696  msg.sender */\n      caller\n      sub(shl(0xa0, 0x01), 0x01)\n        /* \"Documents/GitHub/Store-system-with-feedback/main.sol\":8700:8763  structProducts[structStatusReturns[idReturn].titleProduct].shop */\n      swap1\n      swap2\n      and\n        /* \"Documents/GitHub/Store-system-with-feedback/main.sol\":8686:8763  msg.sender == structProducts[structStatusReturns[idReturn].titleProduct].shop */\n      eq\n        /* \"Documents/GitHub/Store-system-with-feedback/main.sol\":8678:8799  require(msg.sender == structProducts[structStatusReturns[idReturn].titleProduct].shop, \"error: this is not your product\") */\n      tag_296\n      jumpi\n      mload(0x40)\n      shl(0xe5, 0x461bcd)\n      dup2\n      mstore\n      0x04\n      add\n      tag_218\n      swap1\n      tag_219\n      jump\t// in\n    tag_296:\n        /* \"Documents/GitHub/Store-system-with-feedback/main.sol\":8829:8833  true */\n      0x01\n        /* \"Documents/GitHub/Store-system-with-feedback/main.sol\":8813:8833  confirmation == true */\n      dup2\n      iszero\n      iszero\n      eq\n        /* \"Documents/GitHub/Store-system-with-feedback/main.sol\":8810:9092  if(confirmation == true) {\r... */\n      iszero\n      tag_298\n      jumpi\n        /* \"Documents/GitHub/Store-system-with-feedback/main.sol\":8858:8877  structStatusReturns */\n      0x0b\n        /* \"Documents/GitHub/Store-system-with-feedback/main.sol\":8878:8886  idReturn */\n      dup3\n        /* \"Documents/GitHub/Store-system-with-feedback/main.sol\":8858:8887  structStatusReturns[idReturn] */\n      dup2\n      sload\n      dup2\n      lt\n      tag_300\n      jumpi\n      tag_300\n      tag_213\n      jump\t// in\n    tag_300:\n      0x00\n      swap2\n      dup3\n      mstore\n      0x20\n      dup3\n      keccak256\n      0x03\n      swap1\n      swap2\n      mul\n      add\n        /* \"Documents/GitHub/Store-system-with-feedback/main.sol\":8858:8897  structStatusReturns[idReturn].userLogin */\n      sload\n        /* \"Documents/GitHub/Store-system-with-feedback/main.sol\":8850:8918  payable(structStatusReturns[idReturn].userLogin).transfer(msg.value) */\n      mload(0x40)\n      sub(shl(0xa0, 0x01), 0x01)\n        /* \"Documents/GitHub/Store-system-with-feedback/main.sol\":8858:8897  structStatusReturns[idReturn].userLogin */\n      swap1\n      swap2\n      and\n      swap2\n        /* \"Documents/GitHub/Store-system-with-feedback/main.sol\":8908:8917  msg.value */\n      callvalue\n        /* \"Documents/GitHub/Store-system-with-feedback/main.sol\":8850:8918  payable(structStatusReturns[idReturn].userLogin).transfer(msg.value) */\n      dup1\n      iszero\n      0x08fc\n      mul\n      swap3\n        /* \"Documents/GitHub/Store-system-with-feedback/main.sol\":8908:8917  msg.value */\n      swap1\n      swap2\n        /* \"Documents/GitHub/Store-system-with-feedback/main.sol\":8850:8918  payable(structStatusReturns[idReturn].userLogin).transfer(msg.value) */\n      dup2\n        /* \"Documents/GitHub/Store-system-with-feedback/main.sol\":8858:8887  structStatusReturns[idReturn] */\n      dup2\n        /* \"Documents/GitHub/Store-system-with-feedback/main.sol\":8850:8918  payable(structStatusReturns[idReturn].userLogin).transfer(msg.value) */\n      dup2\n        /* \"Documents/GitHub/Store-system-with-feedback/main.sol\":8908:8917  msg.value */\n      dup6\n        /* \"Documents/GitHub/Store-system-with-feedback/main.sol\":8858:8897  structStatusReturns[idReturn].userLogin */\n      dup9\n        /* \"Documents/GitHub/Store-system-with-feedback/main.sol\":8850:8918  payable(structStatusReturns[idReturn].userLogin).transfer(msg.value) */\n      dup9\n      call\n      swap4\n      pop\n      pop\n      pop\n      pop\n      iszero\n      dup1\n      iszero\n      tag_303\n      jumpi\n      returndatasize\n      0x00\n      dup1\n      returndatacopy\n      revert(0x00, returndatasize)\n    tag_303:\n      pop\n        /* \"Documents/GitHub/Store-system-with-feedback/main.sol\":8972:8977  false */\n      0x00\n        /* \"Documents/GitHub/Store-system-with-feedback/main.sol\":8933:8952  structStatusReturns */\n      0x0b\n        /* \"Documents/GitHub/Store-system-with-feedback/main.sol\":8953:8961  idReturn */\n      dup4\n        /* \"Documents/GitHub/Store-system-with-feedback/main.sol\":8933:8962  structStatusReturns[idReturn] */\n      dup2\n      sload\n      dup2\n      lt\n      tag_305\n      jumpi\n      tag_305\n      tag_213\n      jump\t// in\n    tag_305:\n      0x00\n      swap2\n      dup3\n      mstore\n      0x20\n      swap1\n      swap2\n      keccak256\n      0x03\n      swap1\n      swap2\n      mul\n      add\n        /* \"Documents/GitHub/Store-system-with-feedback/main.sol\":8933:8969  structStatusReturns[idReturn].status */\n      0x02\n      add\n        /* \"Documents/GitHub/Store-system-with-feedback/main.sol\":8933:8977  structStatusReturns[idReturn].status = false */\n      dup1\n      sload\n      not(0xff)\n      and\n      swap2\n      iszero\n      iszero\n      swap2\n      swap1\n      swap2\n      or\n      swap1\n      sstore\n        /* \"Documents/GitHub/Store-system-with-feedback/main.sol\":7892:8532  function acceptPurchase (uint idPurchase, bool confirmation) public payable {\r... */\n      pop\n      pop\n      jump\t// out\n        /* \"Documents/GitHub/Store-system-with-feedback/main.sol\":8810:9092  if(confirmation == true) {\r... */\n    tag_298:\n        /* \"Documents/GitHub/Store-system-with-feedback/main.sol\":8998:9019  confirmation == false */\n      dup1\n        /* \"Documents/GitHub/Store-system-with-feedback/main.sol\":8995:9092  if(confirmation == false) {\r... */\n      tag_230\n      jumpi\n        /* \"Documents/GitHub/Store-system-with-feedback/main.sol\":9075:9080  false */\n      0x00\n        /* \"Documents/GitHub/Store-system-with-feedback/main.sol\":9036:9055  structStatusReturns */\n      0x0b\n        /* \"Documents/GitHub/Store-system-with-feedback/main.sol\":9056:9064  idReturn */\n      dup4\n        /* \"Documents/GitHub/Store-system-with-feedback/main.sol\":9036:9065  structStatusReturns[idReturn] */\n      dup2\n      sload\n      dup2\n      lt\n      tag_305\n      jumpi\n      tag_305\n      tag_213\n      jump\t// in\n        /* \"Documents/GitHub/Store-system-with-feedback/main.sol\":2525:2670  function check_logged_shop(string memory login) public view returns(bool) {\r... */\n    tag_87:\n        /* \"Documents/GitHub/Store-system-with-feedback/main.sol\":2593:2597  bool */\n      0x00\n        /* \"Documents/GitHub/Store-system-with-feedback/main.sol\":2621:2632  structShops */\n      dup1\n        /* \"Documents/GitHub/Store-system-with-feedback/main.sol\":2621:2650  structShops[shopLists[login]] */\n      0x00\n        /* \"Documents/GitHub/Store-system-with-feedback/main.sol\":2633:2642  shopLists */\n      0x01\n        /* \"Documents/GitHub/Store-system-with-feedback/main.sol\":2643:2648  login */\n      dup5\n        /* \"Documents/GitHub/Store-system-with-feedback/main.sol\":2633:2649  shopLists[login] */\n      mload(0x40)\n      tag_313\n      swap2\n      swap1\n      tag_207\n      jump\t// in\n    tag_313:\n      swap1\n      dup2\n      mstore\n      0x40\n      dup1\n      mload\n      0x20\n      swap3\n      dup2\n      swap1\n      sub\n      dup4\n      add\n      swap1\n      keccak256\n      sload\n      sub(shl(0xa0, 0x01), 0x01)\n      and\n        /* \"Documents/GitHub/Store-system-with-feedback/main.sol\":2621:2650  structShops[shopLists[login]] */\n      dup4\n      mstore\n      swap1\n      dup3\n      add\n      swap3\n      swap1\n      swap3\n      mstore\n      add\n      0x00\n      keccak256\n        /* \"Documents/GitHub/Store-system-with-feedback/main.sol\":2621:2657  structShops[shopLists[login]].logged */\n      0x03\n      add\n      sload\n      0xff\n      and\n      swap3\n      swap2\n      pop\n      pop\n        /* \"Documents/GitHub/Store-system-with-feedback/main.sol\":2525:2670  function check_logged_shop(string memory login) public view returns(bool) {\r... */\n      jump\t// out\n        /* \"Documents/GitHub/Store-system-with-feedback/main.sol\":14827:14949  function login_out_user(string memory login) public {\r... */\n    tag_93:\n        /* \"Documents/GitHub/Store-system-with-feedback/main.sol\":14936:14941  false */\n      0x00\n        /* \"Documents/GitHub/Store-system-with-feedback/main.sol\":14890:14901  structUsers */\n      0x04\n        /* \"Documents/GitHub/Store-system-with-feedback/main.sol\":14890:14926  structUsers[structUserLogins[login]] */\n      0x00\n        /* \"Documents/GitHub/Store-system-with-feedback/main.sol\":14902:14918  structUserLogins */\n      0x05\n        /* \"Documents/GitHub/Store-system-with-feedback/main.sol\":14919:14924  login */\n      dup5\n        /* \"Documents/GitHub/Store-system-with-feedback/main.sol\":14902:14925  structUserLogins[login] */\n      mload(0x40)\n      tag_209\n      swap2\n      swap1\n      tag_207\n      jump\t// in\n        /* \"Documents/GitHub/Store-system-with-feedback/main.sol\":2989:3128  function get_city(string memory login) public view returns(string memory) {\r... */\n    tag_97:\n        /* \"Documents/GitHub/Store-system-with-feedback/main.sol\":3048:3061  string memory */\n      0x60\n        /* \"Documents/GitHub/Store-system-with-feedback/main.sol\":3081:3092  structShops */\n      0x00\n        /* \"Documents/GitHub/Store-system-with-feedback/main.sol\":3081:3110  structShops[shopLists[login]] */\n      dup1\n        /* \"Documents/GitHub/Store-system-with-feedback/main.sol\":3093:3102  shopLists */\n      0x01\n        /* \"Documents/GitHub/Store-system-with-feedback/main.sol\":3103:3108  login */\n      dup5\n        /* \"Documents/GitHub/Store-system-with-feedback/main.sol\":3093:3109  shopLists[login] */\n      mload(0x40)\n      tag_317\n      swap2\n      swap1\n      tag_207\n      jump\t// in\n    tag_317:\n      swap1\n      dup2\n      mstore\n      0x40\n      dup1\n      mload\n      0x20\n      swap3\n      dup2\n      swap1\n      sub\n      dup4\n      add\n      swap1\n      keccak256\n      sload\n      sub(shl(0xa0, 0x01), 0x01)\n      and\n        /* \"Documents/GitHub/Store-system-with-feedback/main.sol\":3081:3110  structShops[shopLists[login]] */\n      dup4\n      mstore\n      swap1\n      dup3\n      add\n      swap3\n      swap1\n      swap3\n      mstore\n      add\n      0x00\n      keccak256\n        /* \"Documents/GitHub/Store-system-with-feedback/main.sol\":3081:3115  structShops[shopLists[login]].city */\n      0x05\n      add\n        /* \"Documents/GitHub/Store-system-with-feedback/main.sol\":3074:3116  return(structShops[shopLists[login]].city) */\n      dup1\n      sload\n      tag_318\n      swap1\n      tag_264\n      jump\t// in\n    tag_318:\n      dup1\n      0x1f\n      add\n      0x20\n      dup1\n      swap2\n      div\n      mul\n      0x20\n      add\n      mload(0x40)\n      swap1\n      dup2\n      add\n      0x40\n      mstore\n      dup1\n      swap3\n      swap2\n      swap1\n      dup2\n      dup2\n      mstore\n      0x20\n      add\n      dup3\n      dup1\n      sload\n      tag_319\n      swap1\n      tag_264\n      jump\t// in\n    tag_319:\n      dup1\n      iszero\n      tag_320\n      jumpi\n      dup1\n      0x1f\n      lt\n      tag_321\n      jumpi\n      0x0100\n      dup1\n      dup4\n      sload\n      div\n      mul\n      dup4\n      mstore\n      swap2\n      0x20\n      add\n      swap2\n      jump(tag_320)\n    tag_321:\n      dup3\n      add\n      swap2\n      swap1\n      0x00\n      mstore\n      keccak256(0x00, 0x20)\n      swap1\n    tag_322:\n      dup2\n      sload\n      dup2\n      mstore\n      swap1\n      0x01\n      add\n      swap1\n      0x20\n      add\n      dup1\n      dup4\n      gt\n      tag_322\n      jumpi\n      dup3\n      swap1\n      sub\n      0x1f\n      and\n      dup3\n      add\n      swap2\n    tag_320:\n      pop\n      pop\n      pop\n      pop\n      pop\n      swap1\n      pop\n        /* \"Documents/GitHub/Store-system-with-feedback/main.sol\":2989:3128  function get_city(string memory login) public view returns(string memory) {\r... */\n      swap2\n      swap1\n      pop\n      jump\t// out\n        /* \"Documents/GitHub/Store-system-with-feedback/main.sol\":13251:13828  function productMarriage(string memory titleProduct) public {\r... */\n    tag_103:\n        /* \"Documents/GitHub/Store-system-with-feedback/main.sol\":13322:13338  bool tempRequire */\n      0x00\n      dup1\n        /* \"Documents/GitHub/Store-system-with-feedback/main.sol\":13349:13747  for(uint i = 0; i < productList.length; i++) {\r... */\n    tag_324:\n        /* \"Documents/GitHub/Store-system-with-feedback/main.sol\":13369:13380  productList */\n      0x09\n        /* \"Documents/GitHub/Store-system-with-feedback/main.sol\":13369:13387  productList.length */\n      sload\n        /* \"Documents/GitHub/Store-system-with-feedback/main.sol\":13365:13387  i < productList.length */\n      dup2\n      lt\n        /* \"Documents/GitHub/Store-system-with-feedback/main.sol\":13349:13747  for(uint i = 0; i < productList.length; i++) {\r... */\n      iszero\n      tag_325\n      jumpi\n        /* \"Documents/GitHub/Store-system-with-feedback/main.sol\":13409:13438  string memory tempProductName */\n      0x00\n        /* \"Documents/GitHub/Store-system-with-feedback/main.sol\":13441:13452  productList */\n      0x09\n        /* \"Documents/GitHub/Store-system-with-feedback/main.sol\":13453:13454  i */\n      dup3\n        /* \"Documents/GitHub/Store-system-with-feedback/main.sol\":13441:13455  productList[i] */\n      dup2\n      sload\n      dup2\n      lt\n      tag_328\n      jumpi\n      tag_328\n      tag_213\n      jump\t// in\n    tag_328:\n      swap1\n      0x00\n      mstore\n      keccak256(0x00, 0x20)\n      add\n        /* \"Documents/GitHub/Store-system-with-feedback/main.sol\":13409:13455  string memory tempProductName = productList[i] */\n      dup1\n      sload\n      tag_330\n      swap1\n      tag_264\n      jump\t// in\n    tag_330:\n      dup1\n      0x1f\n      add\n      0x20\n      dup1\n      swap2\n      div\n      mul\n      0x20\n      add\n      mload(0x40)\n      swap1\n      dup2\n      add\n      0x40\n      mstore\n      dup1\n      swap3\n      swap2\n      swap1\n      dup2\n      dup2\n      mstore\n      0x20\n      add\n      dup3\n      dup1\n      sload\n      tag_331\n      swap1\n      tag_264\n      jump\t// in\n    tag_331:\n      dup1\n      iszero\n      tag_332\n      jumpi\n      dup1\n      0x1f\n      lt\n      tag_333\n      jumpi\n      0x0100\n      dup1\n      dup4\n      sload\n      div\n      mul\n      dup4\n      mstore\n      swap2\n      0x20\n      add\n      swap2\n      jump(tag_332)\n    tag_333:\n      dup3\n      add\n      swap2\n      swap1\n      0x00\n      mstore\n      keccak256(0x00, 0x20)\n      swap1\n    tag_334:\n      dup2\n      sload\n      dup2\n      mstore\n      swap1\n      0x01\n      add\n      swap1\n      0x20\n      add\n      dup1\n      dup4\n      gt\n      tag_334\n      jumpi\n      dup3\n      swap1\n      sub\n      0x1f\n      and\n      dup3\n      add\n      swap2\n    tag_332:\n      pop\n      pop\n      pop\n      pop\n      pop\n      swap1\n      pop\n        /* \"Documents/GitHub/Store-system-with-feedback/main.sol\":13548:13560  titleProduct */\n      dup4\n        /* \"Documents/GitHub/Store-system-with-feedback/main.sol\":13531:13561  abi.encodePacked(titleProduct) */\n      add(0x20, mload(0x40))\n      tag_335\n      swap2\n      swap1\n      tag_207\n      jump\t// in\n    tag_335:\n      mload(0x40)\n      0x20\n      dup2\n      dup4\n      sub\n      sub\n      dup2\n      mstore\n      swap1\n      0x40\n      mstore\n        /* \"Documents/GitHub/Store-system-with-feedback/main.sol\":13521:13562  keccak256(abi.encodePacked(titleProduct)) */\n      dup1\n      mload\n      swap1\n      0x20\n      add\n      keccak256\n        /* \"Documents/GitHub/Store-system-with-feedback/main.sol\":13500:13515  tempProductName */\n      dup2\n        /* \"Documents/GitHub/Store-system-with-feedback/main.sol\":13483:13516  abi.encodePacked(tempProductName) */\n      add(0x20, mload(0x40))\n      tag_336\n      swap2\n      swap1\n      tag_207\n      jump\t// in\n    tag_336:\n      mload(0x40)\n      0x20\n      dup2\n      dup4\n      sub\n      sub\n      dup2\n      mstore\n      swap1\n      0x40\n      mstore\n        /* \"Documents/GitHub/Store-system-with-feedback/main.sol\":13473:13517  keccak256(abi.encodePacked(tempProductName)) */\n      dup1\n      mload\n      swap1\n      0x20\n      add\n      keccak256\n        /* \"Documents/GitHub/Store-system-with-feedback/main.sol\":13473:13562  keccak256(abi.encodePacked(tempProductName)) == keccak256(abi.encodePacked(titleProduct)) */\n      eq\n        /* \"Documents/GitHub/Store-system-with-feedback/main.sol\":13470:13736  if(keccak256(abi.encodePacked(tempProductName)) == keccak256(abi.encodePacked(titleProduct))) {                    \r... */\n      iszero\n      tag_337\n      jumpi\n        /* \"Documents/GitHub/Store-system-with-feedback/main.sol\":13630:13682  structStatusMarriage(msg.sender, titleProduct, true) */\n      0x40\n      dup1\n      mload\n      0x60\n      dup2\n      add\n      dup3\n      mstore\n        /* \"Documents/GitHub/Store-system-with-feedback/main.sol\":13651:13661  msg.sender */\n      caller\n        /* \"Documents/GitHub/Store-system-with-feedback/main.sol\":13630:13682  structStatusMarriage(msg.sender, titleProduct, true) */\n      dup2\n      mstore\n      0x20\n      dup1\n      dup3\n      add\n      dup8\n      dup2\n      mstore\n        /* \"Documents/GitHub/Store-system-with-feedback/main.sol\":13677:13681  true */\n      0x01\n        /* \"Documents/GitHub/Store-system-with-feedback/main.sol\":13630:13682  structStatusMarriage(msg.sender, titleProduct, true) */\n      swap4\n      dup4\n      add\n      dup5\n      swap1\n      mstore\n        /* \"Documents/GitHub/Store-system-with-feedback/main.sol\":13603:13624  structStatusMarriages */\n      0x0c\n        /* \"Documents/GitHub/Store-system-with-feedback/main.sol\":13603:13683  structStatusMarriages.push(structStatusMarriage(msg.sender, titleProduct, true)) */\n      dup1\n      sload\n      swap5\n      dup6\n      add\n      dup2\n      sstore\n      0x00\n      mstore\n      dup3\n      mload\n      0xdf6966c971051c3d54ec59162606531493a51404a002842f56009d7e5cf4a8c7\n      0x03\n      swap1\n      swap6\n      mul\n      swap5\n      dup6\n      add\n      dup1\n      sload\n      not(sub(shl(0xa0, 0x01), 0x01))\n      and\n      sub(shl(0xa0, 0x01), 0x01)\n      swap1\n      swap3\n      and\n      swap2\n      swap1\n      swap2\n      or\n      dup2\n      sstore\n      swap1\n      mload\n      dup1\n      mload\n        /* \"Documents/GitHub/Store-system-with-feedback/main.sol\":13630:13682  structStatusMarriage(msg.sender, titleProduct, true) */\n      swap4\n      swap5\n        /* \"Documents/GitHub/Store-system-with-feedback/main.sol\":13603:13683  structStatusMarriages.push(structStatusMarriage(msg.sender, titleProduct, true)) */\n      swap2\n      swap4\n      tag_339\n      swap4\n      0xdf6966c971051c3d54ec59162606531493a51404a002842f56009d7e5cf4a8c8\n      swap1\n      swap4\n      add\n      swap3\n      swap2\n      swap1\n      swap2\n      add\n      swap1\n      tag_248\n      jump\t// in\n    tag_339:\n      pop\n      0x40\n      swap2\n      swap1\n      swap2\n      add\n      mload\n      0x02\n      swap1\n      swap2\n      add\n      dup1\n      sload\n      not(0xff)\n      and\n      swap2\n      iszero\n      iszero\n      swap2\n      swap1\n      swap2\n      or\n      swap1\n      sstore\n      0x01\n      swap3\n      pop\n        /* \"Documents/GitHub/Store-system-with-feedback/main.sol\":13470:13736  if(keccak256(abi.encodePacked(tempProductName)) == keccak256(abi.encodePacked(titleProduct))) {                    \r... */\n    tag_337:\n      pop\n        /* \"Documents/GitHub/Store-system-with-feedback/main.sol\":13389:13392  i++ */\n      dup1\n      tag_340\n      dup2\n      tag_290\n      jump\t// in\n    tag_340:\n      swap2\n      pop\n      pop\n        /* \"Documents/GitHub/Store-system-with-feedback/main.sol\":13349:13747  for(uint i = 0; i < productList.length; i++) {\r... */\n      jump(tag_324)\n    tag_325:\n      pop\n        /* \"Documents/GitHub/Store-system-with-feedback/main.sol\":13780:13784  true */\n      0x01\n        /* \"Documents/GitHub/Store-system-with-feedback/main.sol\":13765:13784  tempRequire == true */\n      dup2\n      iszero\n      iszero\n      eq\n        /* \"Documents/GitHub/Store-system-with-feedback/main.sol\":13757:13820  require(tempRequire == true, \"error: there is no such product\") */\n      tag_230\n      jumpi\n      mload(0x40)\n      shl(0xe5, 0x461bcd)\n      dup2\n      mstore\n        /* \"#utility.yul\":12609:12611   */\n      0x20\n        /* \"Documents/GitHub/Store-system-with-feedback/main.sol\":13757:13820  require(tempRequire == true, \"error: there is no such product\") */\n      0x04\n      dup3\n      add\n        /* \"#utility.yul\":12591:12612   */\n      mstore\n        /* \"#utility.yul\":12648:12650   */\n      0x1f\n        /* \"#utility.yul\":12628:12646   */\n      0x24\n      dup3\n      add\n        /* \"#utility.yul\":12621:12651   */\n      mstore\n        /* \"#utility.yul\":12687:12720   */\n      0x6572726f723a207468657265206973206e6f20737563682070726f6475637400\n        /* \"#utility.yul\":12667:12685   */\n      0x44\n      dup3\n      add\n        /* \"#utility.yul\":12660:12721   */\n      mstore\n        /* \"#utility.yul\":12738:12756   */\n      0x64\n      add\n        /* \"Documents/GitHub/Store-system-with-feedback/main.sol\":13757:13820  require(tempRequire == true, \"error: there is no such product\") */\n      tag_218\n        /* \"#utility.yul\":12407:12762   */\n      jump\n        /* \"Documents/GitHub/Store-system-with-feedback/main.sol\":3298:3450  function check_logged_user(string memory login) public view returns(bool) {\r... */\n    tag_107:\n        /* \"Documents/GitHub/Store-system-with-feedback/main.sol\":3366:3370  bool */\n      0x00\n        /* \"Documents/GitHub/Store-system-with-feedback/main.sol\":3394:3405  structUsers */\n      0x04\n        /* \"Documents/GitHub/Store-system-with-feedback/main.sol\":3394:3430  structUsers[structUserLogins[login]] */\n      0x00\n        /* \"Documents/GitHub/Store-system-with-feedback/main.sol\":3406:3422  structUserLogins */\n      0x05\n        /* \"Documents/GitHub/Store-system-with-feedback/main.sol\":3423:3428  login */\n      dup5\n        /* \"Documents/GitHub/Store-system-with-feedback/main.sol\":3406:3429  structUserLogins[login] */\n      mload(0x40)\n      tag_313\n      swap2\n      swap1\n      tag_207\n      jump\t// in\n        /* \"Documents/GitHub/Store-system-with-feedback/main.sol\":3546:3692  function get_role_user(string memory login) public view returns(uint) {\r... */\n    tag_112:\n        /* \"Documents/GitHub/Store-system-with-feedback/main.sol\":3610:3614  uint */\n      0x00\n        /* \"Documents/GitHub/Store-system-with-feedback/main.sol\":3638:3649  structUsers */\n      0x04\n        /* \"Documents/GitHub/Store-system-with-feedback/main.sol\":3638:3674  structUsers[structUserLogins[login]] */\n      0x00\n        /* \"Documents/GitHub/Store-system-with-feedback/main.sol\":3650:3666  structUserLogins */\n      0x05\n        /* \"Documents/GitHub/Store-system-with-feedback/main.sol\":3667:3672  login */\n      dup5\n        /* \"Documents/GitHub/Store-system-with-feedback/main.sol\":3650:3673  structUserLogins[login] */\n      mload(0x40)\n      tag_206\n      swap2\n      swap1\n      tag_207\n      jump\t// in\n        /* \"Documents/GitHub/Store-system-with-feedback/main.sol\":4190:4477  function get_address(string memory login) public view returns(address) {\r... */\n    tag_117:\n        /* \"Documents/GitHub/Store-system-with-feedback/main.sol\":4252:4259  address */\n      0x00\n        /* \"Documents/GitHub/Store-system-with-feedback/main.sol\":4272:4283  address adr */\n      dup1\n        /* \"Documents/GitHub/Store-system-with-feedback/main.sol\":4333:4334  0 */\n      0x00\n      sub(shl(0xa0, 0x01), 0x01)\n        /* \"Documents/GitHub/Store-system-with-feedback/main.sol\":4298:4335  structUserLogins[login] != address(0) */\n      and\n        /* \"Documents/GitHub/Store-system-with-feedback/main.sol\":4298:4314  structUserLogins */\n      0x05\n        /* \"Documents/GitHub/Store-system-with-feedback/main.sol\":4315:4320  login */\n      dup5\n        /* \"Documents/GitHub/Store-system-with-feedback/main.sol\":4298:4321  structUserLogins[login] */\n      mload(0x40)\n      tag_349\n      swap2\n      swap1\n      tag_207\n      jump\t// in\n    tag_349:\n      swap1\n      dup2\n      mstore\n      mload(0x40)\n      swap1\n      dup2\n      swap1\n      sub\n      0x20\n      add\n      swap1\n      keccak256\n      sload\n      sub(shl(0xa0, 0x01), 0x01)\n      and\n        /* \"Documents/GitHub/Store-system-with-feedback/main.sol\":4298:4335  structUserLogins[login] != address(0) */\n      eq\n        /* \"Documents/GitHub/Store-system-with-feedback/main.sol\":4294:4448  if (structUserLogins[login] != address(0)) {\r... */\n      tag_350\n      jumpi\n        /* \"Documents/GitHub/Store-system-with-feedback/main.sol\":4358:4374  structUserLogins */\n      0x05\n        /* \"Documents/GitHub/Store-system-with-feedback/main.sol\":4375:4380  login */\n      dup4\n        /* \"Documents/GitHub/Store-system-with-feedback/main.sol\":4358:4381  structUserLogins[login] */\n      mload(0x40)\n      tag_351\n      swap2\n      swap1\n      tag_207\n      jump\t// in\n    tag_351:\n      swap1\n      dup2\n      mstore\n      mload(0x40)\n      swap1\n      dup2\n      swap1\n      sub\n      0x20\n      add\n      swap1\n      keccak256\n      sload\n      sub(shl(0xa0, 0x01), 0x01)\n      and\n      swap1\n      pop\n        /* \"Documents/GitHub/Store-system-with-feedback/main.sol\":4294:4448  if (structUserLogins[login] != address(0)) {\r... */\n      jump(tag_352)\n    tag_350:\n        /* \"Documents/GitHub/Store-system-with-feedback/main.sol\":4420:4429  shopLists */\n      0x01\n        /* \"Documents/GitHub/Store-system-with-feedback/main.sol\":4430:4435  login */\n      dup4\n        /* \"Documents/GitHub/Store-system-with-feedback/main.sol\":4420:4436  shopLists[login] */\n      mload(0x40)\n      tag_353\n      swap2\n      swap1\n      tag_207\n      jump\t// in\n    tag_353:\n      swap1\n      dup2\n      mstore\n      mload(0x40)\n      swap1\n      dup2\n      swap1\n      sub\n      0x20\n      add\n      swap1\n      keccak256\n      sload\n      sub(shl(0xa0, 0x01), 0x01)\n      and\n      swap1\n      pop\n        /* \"Documents/GitHub/Store-system-with-feedback/main.sol\":4294:4448  if (structUserLogins[login] != address(0)) {\r... */\n    tag_352:\n        /* \"Documents/GitHub/Store-system-with-feedback/main.sol\":4465:4468  adr */\n      swap3\n        /* \"Documents/GitHub/Store-system-with-feedback/main.sol\":4190:4477  function get_address(string memory login) public view returns(address) {\r... */\n      swap2\n      pop\n      pop\n      jump\t// out\n        /* \"Documents/GitHub/Store-system-with-feedback/main.sol\":6877:7167  function addProductShop (string memory title, uint256 price, string memory description) public {\r... */\n    tag_123:\n        /* \"Documents/GitHub/Store-system-with-feedback/main.sol\":7007:7088  structProduct(msg.sender, description , price*(10**18), addProductShop_idProduct) */\n      0x40\n      dup1\n      mload\n      0x80\n      dup2\n      add\n      dup3\n      mstore\n        /* \"Documents/GitHub/Store-system-with-feedback/main.sol\":7021:7031  msg.sender */\n      caller\n        /* \"Documents/GitHub/Store-system-with-feedback/main.sol\":7007:7088  structProduct(msg.sender, description , price*(10**18), addProductShop_idProduct) */\n      dup2\n      mstore\n      0x20\n      dup2\n      add\n      dup4\n      swap1\n      mstore\n      swap1\n      dup2\n      add\n        /* \"Documents/GitHub/Store-system-with-feedback/main.sol\":7047:7061  price*(10**18) */\n      tag_355\n        /* \"Documents/GitHub/Store-system-with-feedback/main.sol\":7047:7052  price */\n      dup5\n        /* \"Documents/GitHub/Store-system-with-feedback/main.sol\":7054:7060  10**18 */\n      0x0de0b6b3a7640000\n        /* \"Documents/GitHub/Store-system-with-feedback/main.sol\":7047:7061  price*(10**18) */\n      tag_356\n      jump\t// in\n    tag_355:\n        /* \"Documents/GitHub/Store-system-with-feedback/main.sol\":7007:7088  structProduct(msg.sender, description , price*(10**18), addProductShop_idProduct) */\n      dup2\n      mstore\n      0x20\n      add\n        /* \"Documents/GitHub/Store-system-with-feedback/main.sol\":7063:7087  addProductShop_idProduct */\n      sload(0x0d)\n        /* \"Documents/GitHub/Store-system-with-feedback/main.sol\":7007:7088  structProduct(msg.sender, description , price*(10**18), addProductShop_idProduct) */\n      dup2\n      mstore\n      pop\n        /* \"Documents/GitHub/Store-system-with-feedback/main.sol\":6983:6997  structProducts */\n      0x08\n        /* \"Documents/GitHub/Store-system-with-feedback/main.sol\":6998:7003  title */\n      dup5\n        /* \"Documents/GitHub/Store-system-with-feedback/main.sol\":6983:7004  structProducts[title] */\n      mload(0x40)\n      tag_357\n      swap2\n      swap1\n      tag_207\n      jump\t// in\n    tag_357:\n      swap1\n      dup2\n      mstore\n      mload(0x40)\n      0x20\n      swap2\n      dup2\n      swap1\n      sub\n      dup3\n      add\n      swap1\n      keccak256\n        /* \"Documents/GitHub/Store-system-with-feedback/main.sol\":6983:7088  structProducts[title] = structProduct(msg.sender, description , price*(10**18), addProductShop_idProduct) */\n      dup3\n      mload\n      dup2\n      sload\n      not(sub(shl(0xa0, 0x01), 0x01))\n      and\n      sub(shl(0xa0, 0x01), 0x01)\n      swap1\n      swap2\n      and\n      or\n      dup2\n      sstore\n      dup3\n      dup3\n      add\n      mload\n      dup1\n      mload\n        /* \"Documents/GitHub/Store-system-with-feedback/main.sol\":6983:7004  structProducts[title] */\n      swap2\n      swap3\n        /* \"Documents/GitHub/Store-system-with-feedback/main.sol\":6983:7088  structProducts[title] = structProduct(msg.sender, description , price*(10**18), addProductShop_idProduct) */\n      tag_358\n      swap3\n      0x01\n      dup6\n      add\n      swap3\n      swap1\n      swap2\n      add\n      swap1\n      tag_248\n      jump\t// in\n    tag_358:\n      pop\n      0x40\n      dup3\n      add\n      mload\n      0x02\n      dup3\n      add\n      sstore\n      0x60\n      swap1\n      swap2\n      add\n      mload\n      0x03\n      swap1\n      swap2\n      add\n      sstore\n        /* \"Documents/GitHub/Store-system-with-feedback/main.sol\":7099:7110  productList */\n      0x09\n        /* \"Documents/GitHub/Store-system-with-feedback/main.sol\":7099:7122  productList.push(title) */\n      dup1\n      sload\n      0x01\n      dup2\n      add\n      dup3\n      sstore\n      0x00\n      swap2\n      swap1\n      swap2\n      mstore\n      dup4\n      mload\n      tag_360\n      swap2\n      0x6e1540171b6c0c960b71a7020d9f60077f6af931a8bbf590da0223dacf75c7af\n      add\n      swap1\n      0x20\n      dup7\n      add\n      swap1\n      tag_248\n      jump\t// in\n    tag_360:\n      pop\n        /* \"Documents/GitHub/Store-system-with-feedback/main.sol\":7133:7157  addProductShop_idProduct */\n      0x0d\n        /* \"Documents/GitHub/Store-system-with-feedback/main.sol\":7133:7159  addProductShop_idProduct++ */\n      dup1\n      sload\n      swap1\n        /* \"Documents/GitHub/Store-system-with-feedback/main.sol\":7133:7157  addProductShop_idProduct */\n      0x00\n        /* \"Documents/GitHub/Store-system-with-feedback/main.sol\":7133:7159  addProductShop_idProduct++ */\n      tag_361\n      dup4\n      tag_290\n      jump\t// in\n    tag_361:\n      swap2\n      swap1\n      pop\n      sstore\n      pop\n        /* \"Documents/GitHub/Store-system-with-feedback/main.sol\":6877:7167  function addProductShop (string memory title, uint256 price, string memory description) public {\r... */\n      pop\n      pop\n      pop\n      jump\t// out\n        /* \"Documents/GitHub/Store-system-with-feedback/main.sol\":12241:12554  function refusalToPurchase (uint idPurchase) public payable {\r... */\n    tag_127:\n        /* \"Documents/GitHub/Store-system-with-feedback/main.sol\":12334:12355  structStatusPurchases */\n      0x0a\n        /* \"Documents/GitHub/Store-system-with-feedback/main.sol\":12356:12366  idPurchase */\n      dup2\n        /* \"Documents/GitHub/Store-system-with-feedback/main.sol\":12334:12367  structStatusPurchases[idPurchase] */\n      dup2\n      sload\n      dup2\n      lt\n      tag_364\n      jumpi\n      tag_364\n      tag_213\n      jump\t// in\n    tag_364:\n      0x00\n      swap2\n      dup3\n      mstore\n      0x20\n      swap1\n      swap2\n      keccak256\n      0x04\n      swap1\n      swap2\n      mul\n      add\n        /* \"Documents/GitHub/Store-system-with-feedback/main.sol\":12334:12377  structStatusPurchases[idPurchase].userLogin */\n      sload\n      sub(shl(0xa0, 0x01), 0x01)\n      and\n        /* \"Documents/GitHub/Store-system-with-feedback/main.sol\":12320:12330  msg.sender */\n      caller\n        /* \"Documents/GitHub/Store-system-with-feedback/main.sol\":12320:12377  msg.sender == structStatusPurchases[idPurchase].userLogin */\n      eq\n        /* \"Documents/GitHub/Store-system-with-feedback/main.sol\":12312:12407  require(msg.sender == structStatusPurchases[idPurchase].userLogin, \"error: yor not msg.sender\") */\n      tag_366\n      jumpi\n      mload(0x40)\n      shl(0xe5, 0x461bcd)\n      dup2\n      mstore\n        /* \"#utility.yul\":12969:12971   */\n      0x20\n        /* \"Documents/GitHub/Store-system-with-feedback/main.sol\":12312:12407  require(msg.sender == structStatusPurchases[idPurchase].userLogin, \"error: yor not msg.sender\") */\n      0x04\n      dup3\n      add\n        /* \"#utility.yul\":12951:12972   */\n      mstore\n        /* \"#utility.yul\":13008:13010   */\n      0x19\n        /* \"#utility.yul\":12988:13006   */\n      0x24\n      dup3\n      add\n        /* \"#utility.yul\":12981:13011   */\n      mstore\n      shl(0x39, 0x32b93937b91d103cb7b9103737ba1036b9b39739b2b73232b9)\n        /* \"#utility.yul\":13027:13045   */\n      0x44\n      dup3\n      add\n        /* \"#utility.yul\":13020:13075   */\n      mstore\n        /* \"#utility.yul\":13092:13110   */\n      0x64\n      add\n        /* \"Documents/GitHub/Store-system-with-feedback/main.sol\":12312:12407  require(msg.sender == structStatusPurchases[idPurchase].userLogin, \"error: yor not msg.sender\") */\n      tag_218\n        /* \"#utility.yul\":12767:13116   */\n      jump\n        /* \"Documents/GitHub/Store-system-with-feedback/main.sol\":12312:12407  require(msg.sender == structStatusPurchases[idPurchase].userLogin, \"error: yor not msg.sender\") */\n    tag_366:\n        /* \"Documents/GitHub/Store-system-with-feedback/main.sol\":12426:12436  msg.sender */\n      caller\n      sub(shl(0xa0, 0x01), 0x01)\n        /* \"Documents/GitHub/Store-system-with-feedback/main.sol\":12418:12446  payable(msg.sender).transfer */\n      and\n        /* \"Documents/GitHub/Store-system-with-feedback/main.sol\":12418:12487  payable(msg.sender).transfer(structStatusPurchases[idPurchase].price) */\n      0x08fc\n        /* \"Documents/GitHub/Store-system-with-feedback/main.sol\":12447:12468  structStatusPurchases */\n      0x0a\n        /* \"Documents/GitHub/Store-system-with-feedback/main.sol\":12469:12479  idPurchase */\n      dup4\n        /* \"Documents/GitHub/Store-system-with-feedback/main.sol\":12447:12480  structStatusPurchases[idPurchase] */\n      dup2\n      sload\n      dup2\n      lt\n      tag_370\n      jumpi\n      tag_370\n      tag_213\n      jump\t// in\n    tag_370:\n      swap1\n      0x00\n      mstore\n      keccak256(0x00, 0x20)\n      swap1\n      0x04\n      mul\n      add\n        /* \"Documents/GitHub/Store-system-with-feedback/main.sol\":12447:12486  structStatusPurchases[idPurchase].price */\n      0x02\n      add\n      sload\n        /* \"Documents/GitHub/Store-system-with-feedback/main.sol\":12418:12487  payable(msg.sender).transfer(structStatusPurchases[idPurchase].price) */\n      swap1\n      dup2\n      iszero\n      mul\n      swap1\n      mload(0x40)\n      0x00\n      mload(0x40)\n      dup1\n      dup4\n      sub\n      dup2\n      dup6\n      dup9\n      dup9\n      call\n      swap4\n      pop\n      pop\n      pop\n      pop\n      iszero\n      dup1\n      iszero\n      tag_373\n      jumpi\n      returndatasize\n      0x00\n      dup1\n      returndatacopy\n      revert(0x00, returndatasize)\n    tag_373:\n      pop\n        /* \"Documents/GitHub/Store-system-with-feedback/main.sol\":12541:12546  false */\n      0x00\n        /* \"Documents/GitHub/Store-system-with-feedback/main.sol\":12498:12519  structStatusPurchases */\n      0x0a\n        /* \"Documents/GitHub/Store-system-with-feedback/main.sol\":12520:12530  idPurchase */\n      dup3\n        /* \"Documents/GitHub/Store-system-with-feedback/main.sol\":12498:12531  structStatusPurchases[idPurchase] */\n      dup2\n      sload\n      dup2\n      lt\n      tag_375\n      jumpi\n      tag_375\n      tag_213\n      jump\t// in\n    tag_375:\n      0x00\n      swap2\n      dup3\n      mstore\n      0x20\n      swap1\n      swap2\n      keccak256\n      0x04\n      swap1\n      swap2\n      mul\n      add\n        /* \"Documents/GitHub/Store-system-with-feedback/main.sol\":12498:12538  structStatusPurchases[idPurchase].status */\n      0x03\n      add\n        /* \"Documents/GitHub/Store-system-with-feedback/main.sol\":12498:12546  structStatusPurchases[idPurchase].status = false */\n      dup1\n      sload\n      not(0xff)\n      and\n      swap2\n      iszero\n      iszero\n      swap2\n      swap1\n      swap2\n      or\n      swap1\n      sstore\n      pop\n        /* \"Documents/GitHub/Store-system-with-feedback/main.sol\":12241:12554  function refusalToPurchase (uint idPurchase) public payable {\r... */\n      jump\t// out\n        /* \"Documents/GitHub/Store-system-with-feedback/main.sol\":6677:6728  structStatusMarriage[] public structStatusMarriages */\n    tag_131:\n      0x0c\n      dup2\n      dup2\n      sload\n      dup2\n      lt\n      tag_377\n      jumpi\n      0x00\n      dup1\n      revert\n    tag_377:\n      0x00\n      swap2\n      dup3\n      mstore\n      0x20\n      swap1\n      swap2\n      keccak256\n      0x03\n      swap1\n      swap2\n      mul\n      add\n      dup1\n      sload\n      0x01\n      dup3\n      add\n      dup1\n      sload\n      sub(shl(0xa0, 0x01), 0x01)\n      swap1\n      swap3\n      and\n      swap4\n      pop\n      swap1\n      tag_379\n      swap1\n      tag_264\n      jump\t// in\n    tag_379:\n      dup1\n      0x1f\n      add\n      0x20\n      dup1\n      swap2\n      div\n      mul\n      0x20\n      add\n      mload(0x40)\n      swap1\n      dup2\n      add\n      0x40\n      mstore\n      dup1\n      swap3\n      swap2\n      swap1\n      dup2\n      dup2\n      mstore\n      0x20\n      add\n      dup3\n      dup1\n      sload\n      tag_380\n      swap1\n      tag_264\n      jump\t// in\n    tag_380:\n      dup1\n      iszero\n      tag_381\n      jumpi\n      dup1\n      0x1f\n      lt\n      tag_382\n      jumpi\n      0x0100\n      dup1\n      dup4\n      sload\n      div\n      mul\n      dup4\n      mstore\n      swap2\n      0x20\n      add\n      swap2\n      jump(tag_381)\n    tag_382:\n      dup3\n      add\n      swap2\n      swap1\n      0x00\n      mstore\n      keccak256(0x00, 0x20)\n      swap1\n    tag_383:\n      dup2\n      sload\n      dup2\n      mstore\n      swap1\n      0x01\n      add\n      swap1\n      0x20\n      add\n      dup1\n      dup4\n      gt\n      tag_383\n      jumpi\n      dup3\n      swap1\n      sub\n      0x1f\n      and\n      dup3\n      add\n      swap2\n    tag_381:\n      pop\n      pop\n      pop\n      0x02\n      swap1\n      swap4\n      add\n      sload\n      swap2\n      swap3\n      pop\n      pop\n      0xff\n      and\n      dup4\n      jump\t// out\n        /* \"Documents/GitHub/Store-system-with-feedback/main.sol\":11212:11614  function login_shop(string memory login, bytes32 password) public {\r... */\n    tag_138:\n        /* \"Documents/GitHub/Store-system-with-feedback/main.sol\":11297:11308  structShops */\n      0x00\n        /* \"Documents/GitHub/Store-system-with-feedback/main.sol\":11297:11326  structShops[shopLists[login]] */\n      dup1\n        /* \"Documents/GitHub/Store-system-with-feedback/main.sol\":11309:11318  shopLists */\n      0x01\n        /* \"Documents/GitHub/Store-system-with-feedback/main.sol\":11319:11324  login */\n      dup5\n        /* \"Documents/GitHub/Store-system-with-feedback/main.sol\":11309:11325  shopLists[login] */\n      mload(0x40)\n      tag_385\n      swap2\n      swap1\n      tag_207\n      jump\t// in\n    tag_385:\n      swap1\n      dup2\n      mstore\n      0x40\n      dup1\n      mload\n      0x20\n      swap3\n      dup2\n      swap1\n      sub\n      dup4\n      add\n      swap1\n      keccak256\n      sload\n      sub(shl(0xa0, 0x01), 0x01)\n      and\n        /* \"Documents/GitHub/Store-system-with-feedback/main.sol\":11297:11326  structShops[shopLists[login]] */\n      dup4\n      mstore\n      swap1\n      dup3\n      add\n      swap3\n      swap1\n      swap3\n      mstore\n      add\n      0x00\n      keccak256\n        /* \"Documents/GitHub/Store-system-with-feedback/main.sol\":11297:11333  structShops[shopLists[login]].logged */\n      0x03\n      add\n      sload\n      0xff\n      and\n        /* \"Documents/GitHub/Store-system-with-feedback/main.sol\":11297:11342  structShops[shopLists[login]].logged == false */\n      iszero\n        /* \"Documents/GitHub/Store-system-with-feedback/main.sol\":11289:11376  require(structShops[shopLists[login]].logged == false, \"Error: You are already logged\") */\n      tag_386\n      jumpi\n      mload(0x40)\n      shl(0xe5, 0x461bcd)\n      dup2\n      mstore\n      0x04\n      add\n      tag_218\n      swap1\n      tag_388\n      jump\t// in\n    tag_386:\n        /* \"Documents/GitHub/Store-system-with-feedback/main.sol\":11423:11424  0 */\n      0x00\n      sub(shl(0xa0, 0x01), 0x01)\n        /* \"Documents/GitHub/Store-system-with-feedback/main.sol\":11395:11425  shopLists[login] != address(0) */\n      and\n        /* \"Documents/GitHub/Store-system-with-feedback/main.sol\":11395:11404  shopLists */\n      0x01\n        /* \"Documents/GitHub/Store-system-with-feedback/main.sol\":11405:11410  login */\n      dup4\n        /* \"Documents/GitHub/Store-system-with-feedback/main.sol\":11395:11411  shopLists[login] */\n      mload(0x40)\n      tag_389\n      swap2\n      swap1\n      tag_207\n      jump\t// in\n    tag_389:\n      swap1\n      dup2\n      mstore\n      mload(0x40)\n      swap1\n      dup2\n      swap1\n      sub\n      0x20\n      add\n      swap1\n      keccak256\n      sload\n      sub(shl(0xa0, 0x01), 0x01)\n      and\n        /* \"Documents/GitHub/Store-system-with-feedback/main.sol\":11395:11425  shopLists[login] != address(0) */\n      eq\n      iszero\n        /* \"Documents/GitHub/Store-system-with-feedback/main.sol\":11387:11455  require(shopLists[login] != address(0), \"Error: User doesn't exist\") */\n      tag_390\n      jumpi\n      mload(0x40)\n      shl(0xe5, 0x461bcd)\n      dup2\n      mstore\n      0x04\n      add\n      tag_218\n      swap1\n      tag_392\n      jump\t// in\n    tag_390:\n        /* \"Documents/GitHub/Store-system-with-feedback/main.sol\":11516:11524  password */\n      dup1\n        /* \"Documents/GitHub/Store-system-with-feedback/main.sol\":11474:11485  structShops */\n      0x00\n        /* \"Documents/GitHub/Store-system-with-feedback/main.sol\":11474:11503  structShops[shopLists[login]] */\n      dup1\n        /* \"Documents/GitHub/Store-system-with-feedback/main.sol\":11486:11495  shopLists */\n      0x01\n        /* \"Documents/GitHub/Store-system-with-feedback/main.sol\":11496:11501  login */\n      dup6\n        /* \"Documents/GitHub/Store-system-with-feedback/main.sol\":11486:11502  shopLists[login] */\n      mload(0x40)\n      tag_393\n      swap2\n      swap1\n      tag_207\n      jump\t// in\n    tag_393:\n      swap1\n      dup2\n      mstore\n      0x40\n      dup1\n      mload\n      0x20\n      swap3\n      dup2\n      swap1\n      sub\n      dup4\n      add\n      swap1\n      keccak256\n      sload\n      sub(shl(0xa0, 0x01), 0x01)\n      and\n        /* \"Documents/GitHub/Store-system-with-feedback/main.sol\":11474:11503  structShops[shopLists[login]] */\n      dup4\n      mstore\n      swap1\n      dup3\n      add\n      swap3\n      swap1\n      swap3\n      mstore\n      add\n      0x00\n      keccak256\n        /* \"Documents/GitHub/Store-system-with-feedback/main.sol\":11486:11502  shopLists[login] */\n      0x01\n        /* \"Documents/GitHub/Store-system-with-feedback/main.sol\":11474:11512  structShops[shopLists[login]].password */\n      add\n      sload\n        /* \"Documents/GitHub/Store-system-with-feedback/main.sol\":11474:11524  structShops[shopLists[login]].password == password */\n      eq\n        /* \"Documents/GitHub/Store-system-with-feedback/main.sol\":11466:11552  require(structShops[shopLists[login]].password == password, \"Error: Invalid password\") */\n      tag_394\n      jumpi\n      mload(0x40)\n      shl(0xe5, 0x461bcd)\n      dup2\n      mstore\n      0x04\n      add\n      tag_218\n      swap1\n      tag_396\n      jump\t// in\n    tag_394:\n        /* \"Documents/GitHub/Store-system-with-feedback/main.sol\":11602:11606  true */\n      0x01\n        /* \"Documents/GitHub/Store-system-with-feedback/main.sol\":11563:11574  structShops */\n      0x00\n        /* \"Documents/GitHub/Store-system-with-feedback/main.sol\":11563:11592  structShops[shopLists[login]] */\n      dup1\n        /* \"Documents/GitHub/Store-system-with-feedback/main.sol\":11575:11584  shopLists */\n      0x01\n        /* \"Documents/GitHub/Store-system-with-feedback/main.sol\":11585:11590  login */\n      dup6\n        /* \"Documents/GitHub/Store-system-with-feedback/main.sol\":11575:11591  shopLists[login] */\n      mload(0x40)\n      tag_397\n      swap2\n      swap1\n      tag_207\n      jump\t// in\n    tag_397:\n      swap1\n      dup2\n      mstore\n      0x40\n      dup1\n      mload\n      0x20\n      swap3\n      dup2\n      swap1\n      sub\n      dup4\n      add\n      swap1\n      keccak256\n      sload\n      sub(shl(0xa0, 0x01), 0x01)\n      and\n        /* \"Documents/GitHub/Store-system-with-feedback/main.sol\":11563:11592  structShops[shopLists[login]] */\n      dup4\n      mstore\n      swap1\n      dup3\n      add\n      swap3\n      swap1\n      swap3\n      mstore\n      add\n      0x00\n      keccak256\n        /* \"Documents/GitHub/Store-system-with-feedback/main.sol\":11563:11599  structShops[shopLists[login]].logged */\n      0x03\n      add\n        /* \"Documents/GitHub/Store-system-with-feedback/main.sol\":11563:11606  structShops[shopLists[login]].logged = true */\n      dup1\n      sload\n      not(0xff)\n      and\n      swap2\n      iszero\n      iszero\n      swap2\n      swap1\n      swap2\n      or\n      swap1\n      sstore\n      pop\n      pop\n        /* \"Documents/GitHub/Store-system-with-feedback/main.sol\":11212:11614  function login_shop(string memory login, bytes32 password) public {\r... */\n      jump\t// out\n        /* \"Documents/GitHub/Store-system-with-feedback/main.sol\":1698:2413  function get_product_list(string memory login) public view returns(string[] memory) {\r... */\n    tag_142:\n        /* \"Documents/GitHub/Store-system-with-feedback/main.sol\":1765:1780  string[] memory */\n      0x60\n        /* \"Documents/GitHub/Store-system-with-feedback/main.sol\":1797:1812  address tempAdr */\n      0x00\n        /* \"Documents/GitHub/Store-system-with-feedback/main.sol\":1815:1833  get_address(login) */\n      tag_399\n        /* \"Documents/GitHub/Store-system-with-feedback/main.sol\":1827:1832  login */\n      dup4\n        /* \"Documents/GitHub/Store-system-with-feedback/main.sol\":1815:1826  get_address */\n      tag_117\n        /* \"Documents/GitHub/Store-system-with-feedback/main.sol\":1815:1833  get_address(login) */\n      jump\t// in\n    tag_399:\n        /* \"Documents/GitHub/Store-system-with-feedback/main.sol\":1797:1833  address tempAdr = get_address(login) */\n      swap1\n      pop\n        /* \"Documents/GitHub/Store-system-with-feedback/main.sol\":1908:1939  string[] memory tempProductList */\n      0x60\n        /* \"Documents/GitHub/Store-system-with-feedback/main.sol\":1958:1964  uint i */\n      0x00\n        /* \"Documents/GitHub/Store-system-with-feedback/main.sol\":1954:2365  for(uint i = 0; i < productList.length; i++) {\r... */\n    tag_400:\n        /* \"Documents/GitHub/Store-system-with-feedback/main.sol\":1974:1985  productList */\n      0x09\n        /* \"Documents/GitHub/Store-system-with-feedback/main.sol\":1974:1992  productList.length */\n      sload\n        /* \"Documents/GitHub/Store-system-with-feedback/main.sol\":1970:1992  i < productList.length */\n      dup2\n      lt\n        /* \"Documents/GitHub/Store-system-with-feedback/main.sol\":1954:2365  for(uint i = 0; i < productList.length; i++) {\r... */\n      iszero\n      tag_401\n      jumpi\n        /* \"Documents/GitHub/Store-system-with-feedback/main.sol\":2018:2047  string memory tempProductName */\n      0x00\n        /* \"Documents/GitHub/Store-system-with-feedback/main.sol\":2050:2061  productList */\n      0x09\n        /* \"Documents/GitHub/Store-system-with-feedback/main.sol\":2062:2063  i */\n      dup3\n        /* \"Documents/GitHub/Store-system-with-feedback/main.sol\":2050:2064  productList[i] */\n      dup2\n      sload\n      dup2\n      lt\n      tag_404\n      jumpi\n      tag_404\n      tag_213\n      jump\t// in\n    tag_404:\n      swap1\n      0x00\n      mstore\n      keccak256(0x00, 0x20)\n      add\n        /* \"Documents/GitHub/Store-system-with-feedback/main.sol\":2018:2064  string memory tempProductName = productList[i] */\n      dup1\n      sload\n      tag_406\n      swap1\n      tag_264\n      jump\t// in\n    tag_406:\n      dup1\n      0x1f\n      add\n      0x20\n      dup1\n      swap2\n      div\n      mul\n      0x20\n      add\n      mload(0x40)\n      swap1\n      dup2\n      add\n      0x40\n      mstore\n      dup1\n      swap3\n      swap2\n      swap1\n      dup2\n      dup2\n      mstore\n      0x20\n      add\n      dup3\n      dup1\n      sload\n      tag_407\n      swap1\n      tag_264\n      jump\t// in\n    tag_407:\n      dup1\n      iszero\n      tag_408\n      jumpi\n      dup1\n      0x1f\n      lt\n      tag_409\n      jumpi\n      0x0100\n      dup1\n      dup4\n      sload\n      div\n      mul\n      dup4\n      mstore\n      swap2\n      0x20\n      add\n      swap2\n      jump(tag_408)\n    tag_409:\n      dup3\n      add\n      swap2\n      swap1\n      0x00\n      mstore\n      keccak256(0x00, 0x20)\n      swap1\n    tag_410:\n      dup2\n      sload\n      dup2\n      mstore\n      swap1\n      0x01\n      add\n      swap1\n      0x20\n      add\n      dup1\n      dup4\n      gt\n      tag_410\n      jumpi\n      dup3\n      swap1\n      sub\n      0x1f\n      and\n      dup3\n      add\n      swap2\n    tag_408:\n      pop\n      pop\n      pop\n      pop\n      pop\n      swap1\n      pop\n        /* \"Documents/GitHub/Store-system-with-feedback/main.sol\":2083:2105  address adrProductShop */\n      0x00\n        /* \"Documents/GitHub/Store-system-with-feedback/main.sol\":2108:2122  structProducts */\n      0x08\n        /* \"Documents/GitHub/Store-system-with-feedback/main.sol\":2123:2138  tempProductName */\n      dup3\n        /* \"Documents/GitHub/Store-system-with-feedback/main.sol\":2108:2139  structProducts[tempProductName] */\n      mload(0x40)\n      tag_411\n      swap2\n      swap1\n      tag_207\n      jump\t// in\n    tag_411:\n      swap1\n      dup2\n      mstore\n      mload(0x40)\n      0x20\n      swap2\n      dup2\n      swap1\n      sub\n      dup3\n      add\n      dup2\n      keccak256\n        /* \"Documents/GitHub/Store-system-with-feedback/main.sol\":2108:2144  structProducts[tempProductName].shop */\n      sload\n      sub(shl(0xa0, 0x01), 0x01)\n      and\n      swap3\n      pop\n        /* \"Documents/GitHub/Store-system-with-feedback/main.sol\":2216:2248  abi.encodePacked(adrProductShop) */\n      tag_412\n      swap2\n        /* \"Documents/GitHub/Store-system-with-feedback/main.sol\":2108:2144  structProducts[tempProductName].shop */\n      dup4\n      swap2\n        /* \"Documents/GitHub/Store-system-with-feedback/main.sol\":2216:2248  abi.encodePacked(adrProductShop) */\n      add\n      tag_413\n      jump\t// in\n    tag_412:\n      mload(0x40)\n      0x20\n      dup2\n      dup4\n      sub\n      sub\n      dup2\n      mstore\n      swap1\n      0x40\n      mstore\n        /* \"Documents/GitHub/Store-system-with-feedback/main.sol\":2206:2249  keccak256(abi.encodePacked(adrProductShop)) */\n      dup1\n      mload\n      swap1\n      0x20\n      add\n      keccak256\n        /* \"Documents/GitHub/Store-system-with-feedback/main.sol\":2193:2200  tempAdr */\n      dup6\n        /* \"Documents/GitHub/Store-system-with-feedback/main.sol\":2176:2201  abi.encodePacked(tempAdr) */\n      add(0x20, mload(0x40))\n      tag_414\n      swap2\n      swap1\n      tag_413\n      jump\t// in\n    tag_414:\n      mload(0x40)\n      0x20\n      dup2\n      dup4\n      sub\n      sub\n      dup2\n      mstore\n      swap1\n      0x40\n      mstore\n        /* \"Documents/GitHub/Store-system-with-feedback/main.sol\":2166:2202  keccak256(abi.encodePacked(tempAdr)) */\n      dup1\n      mload\n      swap1\n      0x20\n      add\n      keccak256\n        /* \"Documents/GitHub/Store-system-with-feedback/main.sol\":2166:2249  keccak256(abi.encodePacked(tempAdr)) == keccak256(abi.encodePacked(adrProductShop)) */\n      eq\n        /* \"Documents/GitHub/Store-system-with-feedback/main.sol\":2163:2350  if(keccak256(abi.encodePacked(tempAdr)) == keccak256(abi.encodePacked(adrProductShop))) {                    \r... */\n      iszero\n      tag_415\n      jumpi\n        /* \"Documents/GitHub/Store-system-with-feedback/main.sol\":2315:2330  tempProductName */\n      dup2\n        /* \"Documents/GitHub/Store-system-with-feedback/main.sol\":2294:2309  tempProductList */\n      dup5\n        /* \"Documents/GitHub/Store-system-with-feedback/main.sol\":2310:2311  i */\n      dup5\n        /* \"Documents/GitHub/Store-system-with-feedback/main.sol\":2294:2312  tempProductList[i] */\n      dup2\n      mload\n      dup2\n      lt\n      tag_417\n      jumpi\n      tag_417\n      tag_213\n      jump\t// in\n    tag_417:\n      0x20\n      mul\n      0x20\n      add\n      add\n        /* \"Documents/GitHub/Store-system-with-feedback/main.sol\":2294:2330  tempProductList[i] = tempProductName */\n      dup2\n      swap1\n      mstore\n      pop\n        /* \"Documents/GitHub/Store-system-with-feedback/main.sol\":2163:2350  if(keccak256(abi.encodePacked(tempAdr)) == keccak256(abi.encodePacked(adrProductShop))) {                    \r... */\n    tag_415:\n        /* \"Documents/GitHub/Store-system-with-feedback/main.sol\":1999:2365  {\r... */\n      pop\n      pop\n        /* \"Documents/GitHub/Store-system-with-feedback/main.sol\":1994:1997  i++ */\n      dup1\n      dup1\n      tag_418\n      swap1\n      tag_290\n      jump\t// in\n    tag_418:\n      swap2\n      pop\n      pop\n        /* \"Documents/GitHub/Store-system-with-feedback/main.sol\":1954:2365  for(uint i = 0; i < productList.length; i++) {\r... */\n      jump(tag_400)\n    tag_401:\n      pop\n        /* \"Documents/GitHub/Store-system-with-feedback/main.sol\":2386:2401  tempProductList */\n      swap4\n        /* \"Documents/GitHub/Store-system-with-feedback/main.sol\":1698:2413  function get_product_list(string memory login) public view returns(string[] memory) {\r... */\n      swap3\n      pop\n      pop\n      pop\n      jump\t// out\n        /* \"Documents/GitHub/Store-system-with-feedback/main.sol\":3973:4112  function get_hash(string memory password) public pure returns(bytes32) {\r... */\n    tag_147:\n        /* \"Documents/GitHub/Store-system-with-feedback/main.sol\":4035:4042  bytes32 */\n      0x00\n        /* \"Documents/GitHub/Store-system-with-feedback/main.sol\":4093:4101  password */\n      dup2\n        /* \"Documents/GitHub/Store-system-with-feedback/main.sol\":4076:4102  abi.encodePacked(password) */\n      add(0x20, mload(0x40))\n      tag_420\n      swap2\n      swap1\n      tag_207\n      jump\t// in\n    tag_420:\n      mload(0x40)\n      0x20\n      dup2\n      dup4\n      sub\n      sub\n      dup2\n      mstore\n      swap1\n      0x40\n      mstore\n        /* \"Documents/GitHub/Store-system-with-feedback/main.sol\":4066:4103  keccak256(abi.encodePacked(password)) */\n      dup1\n      mload\n      swap1\n      0x20\n      add\n      keccak256\n        /* \"Documents/GitHub/Store-system-with-feedback/main.sol\":4059:4104  return(keccak256(abi.encodePacked(password))) */\n      swap1\n      pop\n        /* \"Documents/GitHub/Store-system-with-feedback/main.sol\":3973:4112  function get_hash(string memory password) public pure returns(bytes32) {\r... */\n      swap2\n      swap1\n      pop\n      jump\t// out\n        /* \"Documents/GitHub/Store-system-with-feedback/main.sol\":9157:9680  function acceptMarriage(uint idMarriage, bool confirmation) public payable {\r... */\n    tag_152:\n        /* \"Documents/GitHub/Store-system-with-feedback/main.sol\":9265:9279  structProducts */\n      0x08\n        /* \"Documents/GitHub/Store-system-with-feedback/main.sol\":9280:9301  structStatusMarriages */\n      0x0c\n        /* \"Documents/GitHub/Store-system-with-feedback/main.sol\":9302:9312  idMarriage */\n      dup4\n        /* \"Documents/GitHub/Store-system-with-feedback/main.sol\":9280:9313  structStatusMarriages[idMarriage] */\n      dup2\n      sload\n      dup2\n      lt\n      tag_423\n      jumpi\n      tag_423\n      tag_213\n      jump\t// in\n    tag_423:\n      swap1\n      0x00\n      mstore\n      keccak256(0x00, 0x20)\n      swap1\n      0x03\n      mul\n      add\n        /* \"Documents/GitHub/Store-system-with-feedback/main.sol\":9280:9326  structStatusMarriages[idMarriage].titleProduct */\n      0x01\n      add\n        /* \"Documents/GitHub/Store-system-with-feedback/main.sol\":9265:9327  structProducts[structStatusMarriages[idMarriage].titleProduct] */\n      mload(0x40)\n      tag_425\n      swap2\n      swap1\n      tag_216\n      jump\t// in\n    tag_425:\n      swap1\n      dup2\n      mstore\n      mload(0x40)\n      swap1\n      dup2\n      swap1\n      sub\n      0x20\n      add\n      swap1\n      keccak256\n        /* \"Documents/GitHub/Store-system-with-feedback/main.sol\":9265:9332  structProducts[structStatusMarriages[idMarriage].titleProduct].shop */\n      sload\n        /* \"Documents/GitHub/Store-system-with-feedback/main.sol\":9251:9261  msg.sender */\n      caller\n      sub(shl(0xa0, 0x01), 0x01)\n        /* \"Documents/GitHub/Store-system-with-feedback/main.sol\":9265:9332  structProducts[structStatusMarriages[idMarriage].titleProduct].shop */\n      swap1\n      swap2\n      and\n        /* \"Documents/GitHub/Store-system-with-feedback/main.sol\":9251:9332  msg.sender == structProducts[structStatusMarriages[idMarriage].titleProduct].shop */\n      eq\n        /* \"Documents/GitHub/Store-system-with-feedback/main.sol\":9243:9368  require(msg.sender == structProducts[structStatusMarriages[idMarriage].titleProduct].shop, \"error: this is not your product\") */\n      tag_426\n      jumpi\n      mload(0x40)\n      shl(0xe5, 0x461bcd)\n      dup2\n      mstore\n      0x04\n      add\n      tag_218\n      swap1\n      tag_219\n      jump\t// in\n    tag_426:\n        /* \"Documents/GitHub/Store-system-with-feedback/main.sol\":9398:9402  true */\n      0x01\n        /* \"Documents/GitHub/Store-system-with-feedback/main.sol\":9382:9402  confirmation == true */\n      dup2\n      iszero\n      iszero\n      eq\n        /* \"Documents/GitHub/Store-system-with-feedback/main.sol\":9379:9673  if(confirmation == true) {\r... */\n      iszero\n      tag_428\n      jumpi\n        /* \"Documents/GitHub/Store-system-with-feedback/main.sol\":9427:9448  structStatusMarriages */\n      0x0c\n        /* \"Documents/GitHub/Store-system-with-feedback/main.sol\":9449:9459  idMarriage */\n      dup3\n        /* \"Documents/GitHub/Store-system-with-feedback/main.sol\":9427:9460  structStatusMarriages[idMarriage] */\n      dup2\n      sload\n      dup2\n      lt\n      tag_430\n      jumpi\n      tag_430\n      tag_213\n      jump\t// in\n    tag_430:\n      0x00\n      swap2\n      dup3\n      mstore\n      0x20\n      dup3\n      keccak256\n      0x03\n      swap1\n      swap2\n      mul\n      add\n        /* \"Documents/GitHub/Store-system-with-feedback/main.sol\":9427:9470  structStatusMarriages[idMarriage].userLogin */\n      sload\n        /* \"Documents/GitHub/Store-system-with-feedback/main.sol\":9419:9491  payable(structStatusMarriages[idMarriage].userLogin).transfer(msg.value) */\n      mload(0x40)\n      sub(shl(0xa0, 0x01), 0x01)\n        /* \"Documents/GitHub/Store-system-with-feedback/main.sol\":9427:9470  structStatusMarriages[idMarriage].userLogin */\n      swap1\n      swap2\n      and\n      swap2\n        /* \"Documents/GitHub/Store-system-with-feedback/main.sol\":9481:9490  msg.value */\n      callvalue\n        /* \"Documents/GitHub/Store-system-with-feedback/main.sol\":9419:9491  payable(structStatusMarriages[idMarriage].userLogin).transfer(msg.value) */\n      dup1\n      iszero\n      0x08fc\n      mul\n      swap3\n        /* \"Documents/GitHub/Store-system-with-feedback/main.sol\":9481:9490  msg.value */\n      swap1\n      swap2\n        /* \"Documents/GitHub/Store-system-with-feedback/main.sol\":9419:9491  payable(structStatusMarriages[idMarriage].userLogin).transfer(msg.value) */\n      dup2\n        /* \"Documents/GitHub/Store-system-with-feedback/main.sol\":9427:9460  structStatusMarriages[idMarriage] */\n      dup2\n        /* \"Documents/GitHub/Store-system-with-feedback/main.sol\":9419:9491  payable(structStatusMarriages[idMarriage].userLogin).transfer(msg.value) */\n      dup2\n        /* \"Documents/GitHub/Store-system-with-feedback/main.sol\":9481:9490  msg.value */\n      dup6\n        /* \"Documents/GitHub/Store-system-with-feedback/main.sol\":9427:9470  structStatusMarriages[idMarriage].userLogin */\n      dup9\n        /* \"Documents/GitHub/Store-system-with-feedback/main.sol\":9419:9491  payable(structStatusMarriages[idMarriage].userLogin).transfer(msg.value) */\n      dup9\n      call\n      swap4\n      pop\n      pop\n      pop\n      pop\n      iszero\n      dup1\n      iszero\n      tag_433\n      jumpi\n      returndatasize\n      0x00\n      dup1\n      returndatacopy\n      revert(0x00, returndatasize)\n    tag_433:\n      pop\n        /* \"Documents/GitHub/Store-system-with-feedback/main.sol\":9549:9554  false */\n      0x00\n        /* \"Documents/GitHub/Store-system-with-feedback/main.sol\":9506:9527  structStatusMarriages */\n      0x0c\n        /* \"Documents/GitHub/Store-system-with-feedback/main.sol\":9528:9538  idMarriage */\n      dup4\n        /* \"Documents/GitHub/Store-system-with-feedback/main.sol\":9506:9539  structStatusMarriages[idMarriage] */\n      dup2\n      sload\n      dup2\n      lt\n      tag_305\n      jumpi\n      tag_305\n      tag_213\n      jump\t// in\n        /* \"Documents/GitHub/Store-system-with-feedback/main.sol\":9379:9673  if(confirmation == true) {\r... */\n    tag_428:\n        /* \"Documents/GitHub/Store-system-with-feedback/main.sol\":9575:9596  confirmation == false */\n      dup1\n        /* \"Documents/GitHub/Store-system-with-feedback/main.sol\":9572:9673  if(confirmation == false) {\r... */\n      tag_230\n      jumpi\n        /* \"Documents/GitHub/Store-system-with-feedback/main.sol\":9656:9661  false */\n      0x00\n        /* \"Documents/GitHub/Store-system-with-feedback/main.sol\":9613:9634  structStatusMarriages */\n      0x0c\n        /* \"Documents/GitHub/Store-system-with-feedback/main.sol\":9635:9645  idMarriage */\n      dup4\n        /* \"Documents/GitHub/Store-system-with-feedback/main.sol\":9613:9646  structStatusMarriages[idMarriage] */\n      dup2\n      sload\n      dup2\n      lt\n      tag_305\n      jumpi\n      tag_305\n      tag_213\n      jump\t// in\n        /* \"Documents/GitHub/Store-system-with-feedback/main.sol\":4839:4889  mapping (address => structShop) public structShops */\n    tag_156:\n      0x00\n      0x20\n      dup2\n      swap1\n      mstore\n      swap1\n      dup2\n      mstore\n      0x40\n      swap1\n      keccak256\n      dup1\n      sload\n      dup2\n      swap1\n      tag_442\n      swap1\n      tag_264\n      jump\t// in\n    tag_442:\n      dup1\n      0x1f\n      add\n      0x20\n      dup1\n      swap2\n      div\n      mul\n      0x20\n      add\n      mload(0x40)\n      swap1\n      dup2\n      add\n      0x40\n      mstore\n      dup1\n      swap3\n      swap2\n      swap1\n      dup2\n      dup2\n      mstore\n      0x20\n      add\n      dup3\n      dup1\n      sload\n      tag_443\n      swap1\n      tag_264\n      jump\t// in\n    tag_443:\n      dup1\n      iszero\n      tag_444\n      jumpi\n      dup1\n      0x1f\n      lt\n      tag_445\n      jumpi\n      0x0100\n      dup1\n      dup4\n      sload\n      div\n      mul\n      dup4\n      mstore\n      swap2\n      0x20\n      add\n      swap2\n      jump(tag_444)\n    tag_445:\n      dup3\n      add\n      swap2\n      swap1\n      0x00\n      mstore\n      keccak256(0x00, 0x20)\n      swap1\n    tag_446:\n      dup2\n      sload\n      dup2\n      mstore\n      swap1\n      0x01\n      add\n      swap1\n      0x20\n      add\n      dup1\n      dup4\n      gt\n      tag_446\n      jumpi\n      dup3\n      swap1\n      sub\n      0x1f\n      and\n      dup3\n      add\n      swap2\n    tag_444:\n      pop\n      pop\n      pop\n      0x01\n      dup5\n      add\n      sload\n      0x02\n      dup6\n      add\n      sload\n      0x03\n      dup7\n      add\n      sload\n      0x04\n      dup8\n      add\n      dup1\n      sload\n      swap7\n      swap8\n      swap4\n      swap7\n      swap3\n      swap6\n      pop\n      0xff\n      swap1\n      swap2\n      and\n      swap4\n      pop\n      swap1\n      tag_447\n      swap1\n      tag_264\n      jump\t// in\n    tag_447:\n      dup1\n      0x1f\n      add\n      0x20\n      dup1\n      swap2\n      div\n      mul\n      0x20\n      add\n      mload(0x40)\n      swap1\n      dup2\n      add\n      0x40\n      mstore\n      dup1\n      swap3\n      swap2\n      swap1\n      dup2\n      dup2\n      mstore\n      0x20\n      add\n      dup3\n      dup1\n      sload\n      tag_448\n      swap1\n      tag_264\n      jump\t// in\n    tag_448:\n      dup1\n      iszero\n      tag_449\n      jumpi\n      dup1\n      0x1f\n      lt\n      tag_450\n      jumpi\n      0x0100\n      dup1\n      dup4\n      sload\n      div\n      mul\n      dup4\n      mstore\n      swap2\n      0x20\n      add\n      swap2\n      jump(tag_449)\n    tag_450:\n      dup3\n      add\n      swap2\n      swap1\n      0x00\n      mstore\n      keccak256(0x00, 0x20)\n      swap1\n    tag_451:\n      dup2\n      sload\n      dup2\n      mstore\n      swap1\n      0x01\n      add\n      swap1\n      0x20\n      add\n      dup1\n      dup4\n      gt\n      tag_451\n      jumpi\n      dup3\n      swap1\n      sub\n      0x1f\n      and\n      dup3\n      add\n      swap2\n    tag_449:\n      pop\n      pop\n      pop\n      pop\n      pop\n      swap1\n      dup1\n      0x05\n      add\n      dup1\n      sload\n      tag_452\n      swap1\n      tag_264\n      jump\t// in\n    tag_452:\n      dup1\n      0x1f\n      add\n      0x20\n      dup1\n      swap2\n      div\n      mul\n      0x20\n      add\n      mload(0x40)\n      swap1\n      dup2\n      add\n      0x40\n      mstore\n      dup1\n      swap3\n      swap2\n      swap1\n      dup2\n      dup2\n      mstore\n      0x20\n      add\n      dup3\n      dup1\n      sload\n      tag_453\n      swap1\n      tag_264\n      jump\t// in\n    tag_453:\n      dup1\n      iszero\n      tag_454\n      jumpi\n      dup1\n      0x1f\n      lt\n      tag_455\n      jumpi\n      0x0100\n      dup1\n      dup4\n      sload\n      div\n      mul\n      dup4\n      mstore\n      swap2\n      0x20\n      add\n      swap2\n      jump(tag_454)\n    tag_455:\n      dup3\n      add\n      swap2\n      swap1\n      0x00\n      mstore\n      keccak256(0x00, 0x20)\n      swap1\n    tag_456:\n      dup2\n      sload\n      dup2\n      mstore\n      swap1\n      0x01\n      add\n      swap1\n      0x20\n      add\n      dup1\n      dup4\n      gt\n      tag_456\n      jumpi\n      dup3\n      swap1\n      sub\n      0x1f\n      and\n      dup3\n      add\n      swap2\n    tag_454:\n      pop\n      pop\n      pop\n      pop\n      pop\n      swap1\n      dup1\n      0x06\n      add\n      sload\n      swap1\n      pop\n      dup8\n      jump\t// out\n        /* \"Documents/GitHub/Store-system-with-feedback/main.sol\":5523:5572  mapping(address => structUser) public structUsers */\n    tag_162:\n      mstore(0x20, 0x04)\n      0x00\n      swap1\n      dup2\n      mstore\n      0x40\n      swap1\n      keccak256\n      dup1\n      sload\n      dup2\n      swap1\n      tag_457\n      swap1\n      tag_264\n      jump\t// in\n    tag_457:\n      dup1\n      0x1f\n      add\n      0x20\n      dup1\n      swap2\n      div\n      mul\n      0x20\n      add\n      mload(0x40)\n      swap1\n      dup2\n      add\n      0x40\n      mstore\n      dup1\n      swap3\n      swap2\n      swap1\n      dup2\n      dup2\n      mstore\n      0x20\n      add\n      dup3\n      dup1\n      sload\n      tag_458\n      swap1\n      tag_264\n      jump\t// in\n    tag_458:\n      dup1\n      iszero\n      tag_459\n      jumpi\n      dup1\n      0x1f\n      lt\n      tag_460\n      jumpi\n      0x0100\n      dup1\n      dup4\n      sload\n      div\n      mul\n      dup4\n      mstore\n      swap2\n      0x20\n      add\n      swap2\n      jump(tag_459)\n    tag_460:\n      dup3\n      add\n      swap2\n      swap1\n      0x00\n      mstore\n      keccak256(0x00, 0x20)\n      swap1\n    tag_461:\n      dup2\n      sload\n      dup2\n      mstore\n      swap1\n      0x01\n      add\n      swap1\n      0x20\n      add\n      dup1\n      dup4\n      gt\n      tag_461\n      jumpi\n      dup3\n      swap1\n      sub\n      0x1f\n      and\n      dup3\n      add\n      swap2\n    tag_459:\n      pop\n      pop\n      pop\n      pop\n      0x01\n      dup4\n      add\n      sload\n      0x02\n      dup5\n      add\n      sload\n      0x03\n      swap1\n      swap5\n      add\n      sload\n      swap3\n      swap4\n      swap1\n      swap3\n      swap1\n      swap2\n      pop\n      0xff\n      and\n      dup5\n      jump\t// out\n        /* \"Documents/GitHub/Store-system-with-feedback/main.sol\":9763:10616  function getStoryRating(string memory shopName) public view returns(uint) {\r... */\n    tag_168:\n        /* \"Documents/GitHub/Store-system-with-feedback/main.sol\":9831:9835  uint */\n      0x00\n      dup1\n      dup1\n      dup1\n        /* \"Documents/GitHub/Store-system-with-feedback/main.sol\":9921:10508  for(uint i = 0; i < shopList.length; i++) {\r... */\n    tag_463:\n        /* \"Documents/GitHub/Store-system-with-feedback/main.sol\":9941:9949  shopList */\n      0x02\n        /* \"Documents/GitHub/Store-system-with-feedback/main.sol\":9941:9956  shopList.length */\n      sload\n        /* \"Documents/GitHub/Store-system-with-feedback/main.sol\":9937:9956  i < shopList.length */\n      dup2\n      lt\n        /* \"Documents/GitHub/Store-system-with-feedback/main.sol\":9921:10508  for(uint i = 0; i < shopList.length; i++) {\r... */\n      iszero\n      tag_464\n      jumpi\n        /* \"Documents/GitHub/Store-system-with-feedback/main.sol\":9978:10004  string memory tempShopName */\n      0x00\n        /* \"Documents/GitHub/Store-system-with-feedback/main.sol\":10007:10015  shopList */\n      0x02\n        /* \"Documents/GitHub/Store-system-with-feedback/main.sol\":10016:10017  i */\n      dup3\n        /* \"Documents/GitHub/Store-system-with-feedback/main.sol\":10007:10018  shopList[i] */\n      dup2\n      sload\n      dup2\n      lt\n      tag_467\n      jumpi\n      tag_467\n      tag_213\n      jump\t// in\n    tag_467:\n      swap1\n      0x00\n      mstore\n      keccak256(0x00, 0x20)\n      add\n        /* \"Documents/GitHub/Store-system-with-feedback/main.sol\":9978:10018  string memory tempShopName = shopList[i] */\n      dup1\n      sload\n      tag_469\n      swap1\n      tag_264\n      jump\t// in\n    tag_469:\n      dup1\n      0x1f\n      add\n      0x20\n      dup1\n      swap2\n      div\n      mul\n      0x20\n      add\n      mload(0x40)\n      swap1\n      dup2\n      add\n      0x40\n      mstore\n      dup1\n      swap3\n      swap2\n      swap1\n      dup2\n      dup2\n      mstore\n      0x20\n      add\n      dup3\n      dup1\n      sload\n      tag_470\n      swap1\n      tag_264\n      jump\t// in\n    tag_470:\n      dup1\n      iszero\n      tag_471\n      jumpi\n      dup1\n      0x1f\n      lt\n      tag_472\n      jumpi\n      0x0100\n      dup1\n      dup4\n      sload\n      div\n      mul\n      dup4\n      mstore\n      swap2\n      0x20\n      add\n      swap2\n      jump(tag_471)\n    tag_472:\n      dup3\n      add\n      swap2\n      swap1\n      0x00\n      mstore\n      keccak256(0x00, 0x20)\n      swap1\n    tag_473:\n      dup2\n      sload\n      dup2\n      mstore\n      swap1\n      0x01\n      add\n      swap1\n      0x20\n      add\n      dup1\n      dup4\n      gt\n      tag_473\n      jumpi\n      dup3\n      swap1\n      sub\n      0x1f\n      and\n      dup3\n      add\n      swap2\n    tag_471:\n      pop\n      pop\n      pop\n      pop\n      pop\n      swap1\n      pop\n        /* \"Documents/GitHub/Store-system-with-feedback/main.sol\":10108:10116  shopName */\n      dup6\n        /* \"Documents/GitHub/Store-system-with-feedback/main.sol\":10091:10117  abi.encodePacked(shopName) */\n      add(0x20, mload(0x40))\n      tag_474\n      swap2\n      swap1\n      tag_207\n      jump\t// in\n    tag_474:\n      mload(0x40)\n      0x20\n      dup2\n      dup4\n      sub\n      sub\n      dup2\n      mstore\n      swap1\n      0x40\n      mstore\n        /* \"Documents/GitHub/Store-system-with-feedback/main.sol\":10081:10118  keccak256(abi.encodePacked(shopName)) */\n      dup1\n      mload\n      swap1\n      0x20\n      add\n      keccak256\n        /* \"Documents/GitHub/Store-system-with-feedback/main.sol\":10063:10075  tempShopName */\n      dup2\n        /* \"Documents/GitHub/Store-system-with-feedback/main.sol\":10046:10076  abi.encodePacked(tempShopName) */\n      add(0x20, mload(0x40))\n      tag_475\n      swap2\n      swap1\n      tag_207\n      jump\t// in\n    tag_475:\n      mload(0x40)\n      0x20\n      dup2\n      dup4\n      sub\n      sub\n      dup2\n      mstore\n      swap1\n      0x40\n      mstore\n        /* \"Documents/GitHub/Store-system-with-feedback/main.sol\":10036:10077  keccak256(abi.encodePacked(tempShopName)) */\n      dup1\n      mload\n      swap1\n      0x20\n      add\n      keccak256\n        /* \"Documents/GitHub/Store-system-with-feedback/main.sol\":10036:10118  keccak256(abi.encodePacked(tempShopName)) == keccak256(abi.encodePacked(shopName)) */\n      eq\n        /* \"Documents/GitHub/Store-system-with-feedback/main.sol\":10033:10497  if(keccak256(abi.encodePacked(tempShopName)) == keccak256(abi.encodePacked(shopName))) {                    \r... */\n      iszero\n      tag_478\n      jumpi\n        /* \"Documents/GitHub/Store-system-with-feedback/main.sol\":10168:10169  0 */\n      0x00\n        /* \"Documents/GitHub/Store-system-with-feedback/main.sol\":10164:10169  i = 0 */\n      swap2\n      pop\n        /* \"Documents/GitHub/Store-system-with-feedback/main.sol\":10159:10482  for (i = 0; i <= complaintBooks.length; i++) {\r... */\n    tag_477:\n        /* \"Documents/GitHub/Store-system-with-feedback/main.sol\":10176:10190  complaintBooks */\n      0x03\n        /* \"Documents/GitHub/Store-system-with-feedback/main.sol\":10176:10197  complaintBooks.length */\n      sload\n        /* \"Documents/GitHub/Store-system-with-feedback/main.sol\":10171:10197  i <= complaintBooks.length */\n      dup3\n      gt\n        /* \"Documents/GitHub/Store-system-with-feedback/main.sol\":10159:10482  for (i = 0; i <= complaintBooks.length; i++) {\r... */\n      tag_478\n      jumpi\n        /* \"Documents/GitHub/Store-system-with-feedback/main.sol\":10298:10312  complaintBooks */\n      0x03\n        /* \"Documents/GitHub/Store-system-with-feedback/main.sol\":10313:10314  i */\n      dup3\n        /* \"Documents/GitHub/Store-system-with-feedback/main.sol\":10298:10315  complaintBooks[i] */\n      dup2\n      sload\n      dup2\n      lt\n      tag_481\n      jumpi\n      tag_481\n      tag_213\n      jump\t// in\n    tag_481:\n      swap1\n      0x00\n      mstore\n      keccak256(0x00, 0x20)\n      swap1\n      0x05\n      mul\n      add\n        /* \"Documents/GitHub/Store-system-with-feedback/main.sol\":10298:10320  complaintBooks[i].shop */\n      0x00\n      add\n        /* \"Documents/GitHub/Store-system-with-feedback/main.sol\":10281:10321  abi.encodePacked(complaintBooks[i].shop) */\n      add(0x20, mload(0x40))\n      tag_483\n      swap2\n      swap1\n      tag_216\n      jump\t// in\n    tag_483:\n      mload(0x40)\n      0x20\n      dup2\n      dup4\n      sub\n      sub\n      dup2\n      mstore\n      swap1\n      0x40\n      mstore\n        /* \"Documents/GitHub/Store-system-with-feedback/main.sol\":10271:10322  keccak256(abi.encodePacked(complaintBooks[i].shop)) */\n      dup1\n      mload\n      swap1\n      0x20\n      add\n      keccak256\n        /* \"Documents/GitHub/Store-system-with-feedback/main.sol\":10257:10265  shopName */\n      dup7\n        /* \"Documents/GitHub/Store-system-with-feedback/main.sol\":10240:10266  abi.encodePacked(shopName) */\n      add(0x20, mload(0x40))\n      tag_484\n      swap2\n      swap1\n      tag_207\n      jump\t// in\n    tag_484:\n      mload(0x40)\n      0x20\n      dup2\n      dup4\n      sub\n      sub\n      dup2\n      mstore\n      swap1\n      0x40\n      mstore\n        /* \"Documents/GitHub/Store-system-with-feedback/main.sol\":10230:10267  keccak256(abi.encodePacked(shopName)) */\n      dup1\n      mload\n      swap1\n      0x20\n      add\n      keccak256\n        /* \"Documents/GitHub/Store-system-with-feedback/main.sol\":10230:10322  keccak256(abi.encodePacked(shopName)) == keccak256(abi.encodePacked(complaintBooks[i].shop)) */\n      eq\n        /* \"Documents/GitHub/Store-system-with-feedback/main.sol\":10227:10463  if(keccak256(abi.encodePacked(shopName)) == keccak256(abi.encodePacked(complaintBooks[i].shop))) {\r... */\n      iszero\n      tag_485\n      jumpi\n        /* \"Documents/GitHub/Store-system-with-feedback/main.sol\":10371:10385  complaintBooks */\n      0x03\n        /* \"Documents/GitHub/Store-system-with-feedback/main.sol\":10386:10387  i */\n      dup3\n        /* \"Documents/GitHub/Store-system-with-feedback/main.sol\":10371:10388  complaintBooks[i] */\n      dup2\n      sload\n      dup2\n      lt\n      tag_487\n      jumpi\n      tag_487\n      tag_213\n      jump\t// in\n    tag_487:\n      swap1\n      0x00\n      mstore\n      keccak256(0x00, 0x20)\n      swap1\n      0x05\n      mul\n      add\n        /* \"Documents/GitHub/Store-system-with-feedback/main.sol\":10371:10395  complaintBooks[i].rating */\n      0x03\n      add\n      sload\n        /* \"Documents/GitHub/Store-system-with-feedback/main.sol\":10351:10395  countArrayRating += complaintBooks[i].rating */\n      dup4\n      tag_489\n      swap2\n      swap1\n      tag_490\n      jump\t// in\n    tag_489:\n      swap3\n      pop\n        /* \"Documents/GitHub/Store-system-with-feedback/main.sol\":10227:10463  if(keccak256(abi.encodePacked(shopName)) == keccak256(abi.encodePacked(complaintBooks[i].shop))) {\r... */\n    tag_485:\n        /* \"Documents/GitHub/Store-system-with-feedback/main.sol\":10199:10202  i++ */\n      dup2\n      tag_491\n      dup2\n      tag_290\n      jump\t// in\n    tag_491:\n      swap3\n      pop\n      pop\n        /* \"Documents/GitHub/Store-system-with-feedback/main.sol\":10159:10482  for (i = 0; i <= complaintBooks.length; i++) {\r... */\n      jump(tag_477)\n    tag_478:\n      pop\n        /* \"Documents/GitHub/Store-system-with-feedback/main.sol\":9958:9961  i++ */\n      dup1\n      tag_492\n      dup2\n      tag_290\n      jump\t// in\n    tag_492:\n      swap2\n      pop\n      pop\n        /* \"Documents/GitHub/Store-system-with-feedback/main.sol\":9921:10508  for(uint i = 0; i < shopList.length; i++) {\r... */\n      jump(tag_463)\n    tag_464:\n      pop\n        /* \"Documents/GitHub/Store-system-with-feedback/main.sol\":10538:10574  countArrayRating / totalAverageValue */\n      tag_493\n        /* \"Documents/GitHub/Store-system-with-feedback/main.sol\":10557:10574  totalAverageValue */\n      dup3\n        /* \"Documents/GitHub/Store-system-with-feedback/main.sol\":10538:10554  countArrayRating */\n      dup3\n        /* \"Documents/GitHub/Store-system-with-feedback/main.sol\":10538:10574  countArrayRating / totalAverageValue */\n      tag_494\n      jump\t// in\n    tag_493:\n        /* \"Documents/GitHub/Store-system-with-feedback/main.sol\":10518:10574  countArrayRating += countArrayRating / totalAverageValue */\n      tag_495\n      swap1\n      dup3\n      tag_490\n      jump\t// in\n    tag_495:\n      swap5\n        /* \"Documents/GitHub/Store-system-with-feedback/main.sol\":9763:10616  function getStoryRating(string memory shopName) public view returns(uint) {\r... */\n      swap4\n      pop\n      pop\n      pop\n      pop\n      jump\t// out\n        /* \"Documents/GitHub/Store-system-with-feedback/main.sol\":6424:6471  structStatusReturn[] public structStatusReturns */\n    tag_173:\n      0x0b\n      dup2\n      dup2\n      sload\n      dup2\n      lt\n      tag_377\n      jumpi\n      0x00\n      dup1\n      revert\n        /* \"Documents/GitHub/Store-system-with-feedback/main.sol\":12620:13191  function productReturn(string memory titleProduct) public {\r... */\n    tag_178:\n        /* \"Documents/GitHub/Store-system-with-feedback/main.sol\":12689:12705  bool tempRequire */\n      0x00\n      dup1\n        /* \"Documents/GitHub/Store-system-with-feedback/main.sol\":12716:13110  for(uint i = 0; i < productList.length; i++) {\r... */\n    tag_504:\n        /* \"Documents/GitHub/Store-system-with-feedback/main.sol\":12736:12747  productList */\n      0x09\n        /* \"Documents/GitHub/Store-system-with-feedback/main.sol\":12736:12754  productList.length */\n      sload\n        /* \"Documents/GitHub/Store-system-with-feedback/main.sol\":12732:12754  i < productList.length */\n      dup2\n      lt\n        /* \"Documents/GitHub/Store-system-with-feedback/main.sol\":12716:13110  for(uint i = 0; i < productList.length; i++) {\r... */\n      iszero\n      tag_325\n      jumpi\n        /* \"Documents/GitHub/Store-system-with-feedback/main.sol\":12776:12805  string memory tempProductName */\n      0x00\n        /* \"Documents/GitHub/Store-system-with-feedback/main.sol\":12808:12819  productList */\n      0x09\n        /* \"Documents/GitHub/Store-system-with-feedback/main.sol\":12820:12821  i */\n      dup3\n        /* \"Documents/GitHub/Store-system-with-feedback/main.sol\":12808:12822  productList[i] */\n      dup2\n      sload\n      dup2\n      lt\n      tag_508\n      jumpi\n      tag_508\n      tag_213\n      jump\t// in\n    tag_508:\n      swap1\n      0x00\n      mstore\n      keccak256(0x00, 0x20)\n      add\n        /* \"Documents/GitHub/Store-system-with-feedback/main.sol\":12776:12822  string memory tempProductName = productList[i] */\n      dup1\n      sload\n      tag_510\n      swap1\n      tag_264\n      jump\t// in\n    tag_510:\n      dup1\n      0x1f\n      add\n      0x20\n      dup1\n      swap2\n      div\n      mul\n      0x20\n      add\n      mload(0x40)\n      swap1\n      dup2\n      add\n      0x40\n      mstore\n      dup1\n      swap3\n      swap2\n      swap1\n      dup2\n      dup2\n      mstore\n      0x20\n      add\n      dup3\n      dup1\n      sload\n      tag_511\n      swap1\n      tag_264\n      jump\t// in\n    tag_511:\n      dup1\n      iszero\n      tag_512\n      jumpi\n      dup1\n      0x1f\n      lt\n      tag_513\n      jumpi\n      0x0100\n      dup1\n      dup4\n      sload\n      div\n      mul\n      dup4\n      mstore\n      swap2\n      0x20\n      add\n      swap2\n      jump(tag_512)\n    tag_513:\n      dup3\n      add\n      swap2\n      swap1\n      0x00\n      mstore\n      keccak256(0x00, 0x20)\n      swap1\n    tag_514:\n      dup2\n      sload\n      dup2\n      mstore\n      swap1\n      0x01\n      add\n      swap1\n      0x20\n      add\n      dup1\n      dup4\n      gt\n      tag_514\n      jumpi\n      dup3\n      swap1\n      sub\n      0x1f\n      and\n      dup3\n      add\n      swap2\n    tag_512:\n      pop\n      pop\n      pop\n      pop\n      pop\n      swap1\n      pop\n        /* \"Documents/GitHub/Store-system-with-feedback/main.sol\":12915:12927  titleProduct */\n      dup4\n        /* \"Documents/GitHub/Store-system-with-feedback/main.sol\":12898:12928  abi.encodePacked(titleProduct) */\n      add(0x20, mload(0x40))\n      tag_515\n      swap2\n      swap1\n      tag_207\n      jump\t// in\n    tag_515:\n      mload(0x40)\n      0x20\n      dup2\n      dup4\n      sub\n      sub\n      dup2\n      mstore\n      swap1\n      0x40\n      mstore\n        /* \"Documents/GitHub/Store-system-with-feedback/main.sol\":12888:12929  keccak256(abi.encodePacked(titleProduct)) */\n      dup1\n      mload\n      swap1\n      0x20\n      add\n      keccak256\n        /* \"Documents/GitHub/Store-system-with-feedback/main.sol\":12867:12882  tempProductName */\n      dup2\n        /* \"Documents/GitHub/Store-system-with-feedback/main.sol\":12850:12883  abi.encodePacked(tempProductName) */\n      add(0x20, mload(0x40))\n      tag_516\n      swap2\n      swap1\n      tag_207\n      jump\t// in\n    tag_516:\n      mload(0x40)\n      0x20\n      dup2\n      dup4\n      sub\n      sub\n      dup2\n      mstore\n      swap1\n      0x40\n      mstore\n        /* \"Documents/GitHub/Store-system-with-feedback/main.sol\":12840:12884  keccak256(abi.encodePacked(tempProductName)) */\n      dup1\n      mload\n      swap1\n      0x20\n      add\n      keccak256\n        /* \"Documents/GitHub/Store-system-with-feedback/main.sol\":12840:12929  keccak256(abi.encodePacked(tempProductName)) == keccak256(abi.encodePacked(titleProduct)) */\n      eq\n        /* \"Documents/GitHub/Store-system-with-feedback/main.sol\":12837:13099  if(keccak256(abi.encodePacked(tempProductName)) == keccak256(abi.encodePacked(titleProduct))) {                    \r... */\n      iszero\n      tag_517\n      jumpi\n        /* \"Documents/GitHub/Store-system-with-feedback/main.sol\":12995:13045  structStatusReturn(msg.sender, titleProduct, true) */\n      0x40\n      dup1\n      mload\n      0x60\n      dup2\n      add\n      dup3\n      mstore\n        /* \"Documents/GitHub/Store-system-with-feedback/main.sol\":13014:13024  msg.sender */\n      caller\n        /* \"Documents/GitHub/Store-system-with-feedback/main.sol\":12995:13045  structStatusReturn(msg.sender, titleProduct, true) */\n      dup2\n      mstore\n      0x20\n      dup1\n      dup3\n      add\n      dup8\n      dup2\n      mstore\n        /* \"Documents/GitHub/Store-system-with-feedback/main.sol\":13040:13044  true */\n      0x01\n        /* \"Documents/GitHub/Store-system-with-feedback/main.sol\":12995:13045  structStatusReturn(msg.sender, titleProduct, true) */\n      swap4\n      dup4\n      add\n      dup5\n      swap1\n      mstore\n        /* \"Documents/GitHub/Store-system-with-feedback/main.sol\":12970:12989  structStatusReturns */\n      0x0b\n        /* \"Documents/GitHub/Store-system-with-feedback/main.sol\":12970:13046  structStatusReturns.push(structStatusReturn(msg.sender, titleProduct, true)) */\n      dup1\n      sload\n      swap5\n      dup6\n      add\n      dup2\n      sstore\n      0x00\n      mstore\n      dup3\n      mload\n      0x0175b7a638427703f0dbe7bb9bbf987a2551717b34e79f33b5b1008d1fa01db9\n      0x03\n      swap1\n      swap6\n      mul\n      swap5\n      dup6\n      add\n      dup1\n      sload\n      not(sub(shl(0xa0, 0x01), 0x01))\n      and\n      sub(shl(0xa0, 0x01), 0x01)\n      swap1\n      swap3\n      and\n      swap2\n      swap1\n      swap2\n      or\n      dup2\n      sstore\n      swap1\n      mload\n      dup1\n      mload\n        /* \"Documents/GitHub/Store-system-with-feedback/main.sol\":12995:13045  structStatusReturn(msg.sender, titleProduct, true) */\n      swap4\n      swap5\n        /* \"Documents/GitHub/Store-system-with-feedback/main.sol\":12970:13046  structStatusReturns.push(structStatusReturn(msg.sender, titleProduct, true)) */\n      swap2\n      swap4\n      tag_519\n      swap4\n      0x0175b7a638427703f0dbe7bb9bbf987a2551717b34e79f33b5b1008d1fa01dba\n      swap1\n      swap4\n      add\n      swap3\n      swap2\n      swap1\n      swap2\n      add\n      swap1\n      tag_248\n      jump\t// in\n    tag_519:\n      pop\n      0x40\n      swap2\n      swap1\n      swap2\n      add\n      mload\n      0x02\n      swap1\n      swap2\n      add\n      dup1\n      sload\n      not(0xff)\n      and\n      swap2\n      iszero\n      iszero\n      swap2\n      swap1\n      swap2\n      or\n      swap1\n      sstore\n      0x01\n      swap3\n      pop\n        /* \"Documents/GitHub/Store-system-with-feedback/main.sol\":12837:13099  if(keccak256(abi.encodePacked(tempProductName)) == keccak256(abi.encodePacked(titleProduct))) {                    \r... */\n    tag_517:\n      pop\n        /* \"Documents/GitHub/Store-system-with-feedback/main.sol\":12756:12759  i++ */\n      dup1\n      tag_520\n      dup2\n      tag_290\n      jump\t// in\n    tag_520:\n      swap2\n      pop\n      pop\n        /* \"Documents/GitHub/Store-system-with-feedback/main.sol\":12716:13110  for(uint i = 0; i < productList.length; i++) {\r... */\n      jump(tag_504)\n        /* \"Documents/GitHub/Store-system-with-feedback/main.sol\":7242:7830  function leaveFeedback (string memory shop, string memory feedback, uint256 rating) public {\r... */\n    tag_188:\n        /* \"Documents/GitHub/Store-system-with-feedback/main.sol\":7362:7364  10 */\n      0x0a\n        /* \"Documents/GitHub/Store-system-with-feedback/main.sol\":7352:7358  rating */\n      dup2\n        /* \"Documents/GitHub/Store-system-with-feedback/main.sol\":7352:7364  rating <= 10 */\n      gt\n      iszero\n        /* \"Documents/GitHub/Store-system-with-feedback/main.sol\":7344:7401  require(rating <= 10,\"error: rating can be from 1 to 10\") */\n      tag_524\n      jumpi\n      mload(0x40)\n      shl(0xe5, 0x461bcd)\n      dup2\n      mstore\n        /* \"#utility.yul\":14386:14388   */\n      0x20\n        /* \"Documents/GitHub/Store-system-with-feedback/main.sol\":7344:7401  require(rating <= 10,\"error: rating can be from 1 to 10\") */\n      0x04\n      dup3\n      add\n        /* \"#utility.yul\":14368:14389   */\n      mstore\n        /* \"#utility.yul\":14425:14427   */\n      0x21\n        /* \"#utility.yul\":14405:14423   */\n      0x24\n      dup3\n      add\n        /* \"#utility.yul\":14398:14428   */\n      mstore\n        /* \"#utility.yul\":14464:14498   */\n      0x6572726f723a20726174696e672063616e2062652066726f6d203120746f2031\n        /* \"#utility.yul\":14444:14462   */\n      0x44\n      dup3\n      add\n        /* \"#utility.yul\":14437:14499   */\n      mstore\n      shl(0xfc, 0x03)\n        /* \"#utility.yul\":14515:14533   */\n      0x64\n      dup3\n      add\n        /* \"#utility.yul\":14508:14539   */\n      mstore\n        /* \"#utility.yul\":14556:14575   */\n      0x84\n      add\n        /* \"Documents/GitHub/Store-system-with-feedback/main.sol\":7344:7401  require(rating <= 10,\"error: rating can be from 1 to 10\") */\n      tag_218\n        /* \"#utility.yul\":14184:14581   */\n      jump\n        /* \"Documents/GitHub/Store-system-with-feedback/main.sol\":7344:7401  require(rating <= 10,\"error: rating can be from 1 to 10\") */\n    tag_524:\n        /* \"Documents/GitHub/Store-system-with-feedback/main.sol\":7416:7422  uint i */\n      0x00\n        /* \"Documents/GitHub/Store-system-with-feedback/main.sol\":7412:7823  for(uint i = 0; i <= shopList.length; i++) {\r... */\n    tag_527:\n        /* \"Documents/GitHub/Store-system-with-feedback/main.sol\":7433:7441  shopList */\n      0x02\n        /* \"Documents/GitHub/Store-system-with-feedback/main.sol\":7433:7448  shopList.length */\n      sload\n        /* \"Documents/GitHub/Store-system-with-feedback/main.sol\":7428:7448  i <= shopList.length */\n      dup2\n      gt\n        /* \"Documents/GitHub/Store-system-with-feedback/main.sol\":7412:7823  for(uint i = 0; i <= shopList.length; i++) {\r... */\n      tag_528\n      jumpi\n        /* \"Documents/GitHub/Store-system-with-feedback/main.sol\":7470:7496  string memory tempShopName */\n      0x00\n        /* \"Documents/GitHub/Store-system-with-feedback/main.sol\":7499:7507  shopList */\n      0x02\n        /* \"Documents/GitHub/Store-system-with-feedback/main.sol\":7508:7509  i */\n      dup3\n        /* \"Documents/GitHub/Store-system-with-feedback/main.sol\":7499:7510  shopList[i] */\n      dup2\n      sload\n      dup2\n      lt\n      tag_531\n      jumpi\n      tag_531\n      tag_213\n      jump\t// in\n    tag_531:\n      swap1\n      0x00\n      mstore\n      keccak256(0x00, 0x20)\n      add\n        /* \"Documents/GitHub/Store-system-with-feedback/main.sol\":7470:7510  string memory tempShopName = shopList[i] */\n      dup1\n      sload\n      tag_533\n      swap1\n      tag_264\n      jump\t// in\n    tag_533:\n      dup1\n      0x1f\n      add\n      0x20\n      dup1\n      swap2\n      div\n      mul\n      0x20\n      add\n      mload(0x40)\n      swap1\n      dup2\n      add\n      0x40\n      mstore\n      dup1\n      swap3\n      swap2\n      swap1\n      dup2\n      dup2\n      mstore\n      0x20\n      add\n      dup3\n      dup1\n      sload\n      tag_534\n      swap1\n      tag_264\n      jump\t// in\n    tag_534:\n      dup1\n      iszero\n      tag_535\n      jumpi\n      dup1\n      0x1f\n      lt\n      tag_536\n      jumpi\n      0x0100\n      dup1\n      dup4\n      sload\n      div\n      mul\n      dup4\n      mstore\n      swap2\n      0x20\n      add\n      swap2\n      jump(tag_535)\n    tag_536:\n      dup3\n      add\n      swap2\n      swap1\n      0x00\n      mstore\n      keccak256(0x00, 0x20)\n      swap1\n    tag_537:\n      dup2\n      sload\n      dup2\n      mstore\n      swap1\n      0x01\n      add\n      swap1\n      0x20\n      add\n      dup1\n      dup4\n      gt\n      tag_537\n      jumpi\n      dup3\n      swap1\n      sub\n      0x1f\n      and\n      dup3\n      add\n      swap2\n    tag_535:\n      pop\n      pop\n      pop\n      pop\n      pop\n      swap1\n      pop\n        /* \"Documents/GitHub/Store-system-with-feedback/main.sol\":7600:7604  shop */\n      dup5\n        /* \"Documents/GitHub/Store-system-with-feedback/main.sol\":7583:7605  abi.encodePacked(shop) */\n      add(0x20, mload(0x40))\n      tag_538\n      swap2\n      swap1\n      tag_207\n      jump\t// in\n    tag_538:\n      mload(0x40)\n      0x20\n      dup2\n      dup4\n      sub\n      sub\n      dup2\n      mstore\n      swap1\n      0x40\n      mstore\n        /* \"Documents/GitHub/Store-system-with-feedback/main.sol\":7573:7606  keccak256(abi.encodePacked(shop)) */\n      dup1\n      mload\n      swap1\n      0x20\n      add\n      keccak256\n        /* \"Documents/GitHub/Store-system-with-feedback/main.sol\":7555:7567  tempShopName */\n      dup2\n        /* \"Documents/GitHub/Store-system-with-feedback/main.sol\":7538:7568  abi.encodePacked(tempShopName) */\n      add(0x20, mload(0x40))\n      tag_539\n      swap2\n      swap1\n      tag_207\n      jump\t// in\n    tag_539:\n      mload(0x40)\n      0x20\n      dup2\n      dup4\n      sub\n      sub\n      dup2\n      mstore\n      swap1\n      0x40\n      mstore\n        /* \"Documents/GitHub/Store-system-with-feedback/main.sol\":7528:7569  keccak256(abi.encodePacked(tempShopName)) */\n      dup1\n      mload\n      swap1\n      0x20\n      add\n      keccak256\n        /* \"Documents/GitHub/Store-system-with-feedback/main.sol\":7528:7606  keccak256(abi.encodePacked(tempShopName)) == keccak256(abi.encodePacked(shop)) */\n      eq\n        /* \"Documents/GitHub/Store-system-with-feedback/main.sol\":7525:7812  if(keccak256(abi.encodePacked(tempShopName)) == keccak256(abi.encodePacked(shop))) {                    \r... */\n      iszero\n      tag_540\n      jumpi\n        /* \"Documents/GitHub/Store-system-with-feedback/main.sol\":7712:7795  complaintBook(shop, structUsers[msg.sender].userName, feedback, rating, zerroArray) */\n      0x40\n      dup1\n      mload\n      0xa0\n      dup2\n      add\n      dup3\n      mstore\n      dup7\n      dup2\n      mstore\n        /* \"Documents/GitHub/Store-system-with-feedback/main.sol\":7744:7754  msg.sender */\n      caller\n      0x00\n        /* \"Documents/GitHub/Store-system-with-feedback/main.sol\":7732:7755  structUsers[msg.sender] */\n      swap1\n      dup2\n      mstore\n        /* \"Documents/GitHub/Store-system-with-feedback/main.sol\":7732:7743  structUsers */\n      0x04\n        /* \"Documents/GitHub/Store-system-with-feedback/main.sol\":7712:7795  complaintBook(shop, structUsers[msg.sender].userName, feedback, rating, zerroArray) */\n      0x20\n        /* \"Documents/GitHub/Store-system-with-feedback/main.sol\":7732:7755  structUsers[msg.sender] */\n      swap1\n      dup2\n      mstore\n      swap3\n      swap1\n      keccak256\n        /* \"Documents/GitHub/Store-system-with-feedback/main.sol\":7712:7795  complaintBook(shop, structUsers[msg.sender].userName, feedback, rating, zerroArray) */\n      dup1\n      sload\n        /* \"Documents/GitHub/Store-system-with-feedback/main.sol\":7647:7673  string[] memory zerroArray */\n      0x60\n      swap4\n        /* \"Documents/GitHub/Store-system-with-feedback/main.sol\":7692:7706  complaintBooks */\n      0x03\n      swap4\n        /* \"Documents/GitHub/Store-system-with-feedback/main.sol\":7712:7795  complaintBook(shop, structUsers[msg.sender].userName, feedback, rating, zerroArray) */\n      swap3\n      swap1\n      dup4\n      add\n      swap2\n      tag_541\n      swap1\n      tag_264\n      jump\t// in\n    tag_541:\n      dup1\n      0x1f\n      add\n      0x20\n      dup1\n      swap2\n      div\n      mul\n      0x20\n      add\n      mload(0x40)\n      swap1\n      dup2\n      add\n      0x40\n      mstore\n      dup1\n      swap3\n      swap2\n      swap1\n      dup2\n      dup2\n      mstore\n      0x20\n      add\n      dup3\n      dup1\n      sload\n      tag_542\n      swap1\n      tag_264\n      jump\t// in\n    tag_542:\n      dup1\n      iszero\n      tag_543\n      jumpi\n      dup1\n      0x1f\n      lt\n      tag_544\n      jumpi\n      0x0100\n      dup1\n      dup4\n      sload\n      div\n      mul\n      dup4\n      mstore\n      swap2\n      0x20\n      add\n      swap2\n      jump(tag_543)\n    tag_544:\n      dup3\n      add\n      swap2\n      swap1\n      0x00\n      mstore\n      keccak256(0x00, 0x20)\n      swap1\n    tag_545:\n      dup2\n      sload\n      dup2\n      mstore\n      swap1\n      0x01\n      add\n      swap1\n      0x20\n      add\n      dup1\n      dup4\n      gt\n      tag_545\n      jumpi\n      dup3\n      swap1\n      sub\n      0x1f\n      and\n      dup3\n      add\n      swap2\n    tag_543:\n      pop\n      pop\n      pop\n      swap2\n      dup4\n      mstore\n      pop\n      pop\n      0x20\n      dup1\n      dup3\n      add\n      dup10\n      swap1\n      mstore\n      0x40\n      dup3\n      add\n      dup9\n      swap1\n      mstore\n      0x60\n      swap1\n      swap2\n      add\n      dup5\n      swap1\n      mstore\n        /* \"Documents/GitHub/Store-system-with-feedback/main.sol\":7692:7796  complaintBooks.push(complaintBook(shop, structUsers[msg.sender].userName, feedback, rating, zerroArray)) */\n      dup3\n      sload\n      0x01\n      dup2\n      add\n      dup5\n      sstore\n      0x00\n      swap4\n      dup5\n      mstore\n      swap3\n      dup2\n      swap1\n      keccak256\n      dup3\n      mload\n      dup1\n      mload\n      swap4\n      swap5\n      0x05\n      mul\n      swap1\n      swap2\n      add\n      swap3\n      tag_547\n      swap3\n      dup5\n      swap3\n      add\n      swap1\n      tag_248\n      jump\t// in\n    tag_547:\n      pop\n      0x20\n      dup3\n      dup2\n      add\n      mload\n      dup1\n      mload\n      tag_548\n      swap3\n      0x01\n      dup6\n      add\n      swap3\n      add\n      swap1\n      tag_248\n      jump\t// in\n    tag_548:\n      pop\n      0x40\n      dup3\n      add\n      mload\n      dup1\n      mload\n      tag_549\n      swap2\n      0x02\n      dup5\n      add\n      swap2\n      0x20\n      swap1\n      swap2\n      add\n      swap1\n      tag_248\n      jump\t// in\n    tag_549:\n      pop\n      0x60\n      dup3\n      add\n      mload\n      0x03\n      dup3\n      add\n      sstore\n      0x80\n      dup3\n      add\n      mload\n      dup1\n      mload\n      tag_550\n      swap2\n      0x04\n      dup5\n      add\n      swap2\n      0x20\n      swap1\n      swap2\n      add\n      swap1\n      tag_288\n      jump\t// in\n    tag_550:\n      pop\n      pop\n      pop\n        /* \"Documents/GitHub/Store-system-with-feedback/main.sol\":7608:7812  {                    \r... */\n      pop\n        /* \"Documents/GitHub/Store-system-with-feedback/main.sol\":7525:7812  if(keccak256(abi.encodePacked(tempShopName)) == keccak256(abi.encodePacked(shop))) {                    \r... */\n    tag_540:\n      pop\n        /* \"Documents/GitHub/Store-system-with-feedback/main.sol\":7450:7453  i++ */\n      dup1\n      tag_551\n      dup2\n      tag_290\n      jump\t// in\n    tag_551:\n      swap2\n      pop\n      pop\n        /* \"Documents/GitHub/Store-system-with-feedback/main.sol\":7412:7823  for(uint i = 0; i <= shopList.length; i++) {\r... */\n      jump(tag_527)\n    tag_528:\n      pop\n        /* \"Documents/GitHub/Store-system-with-feedback/main.sol\":7242:7830  function leaveFeedback (string memory shop, string memory feedback, uint256 rating) public {\r... */\n      pop\n      pop\n      pop\n      jump\t// out\n        /* \"Documents/GitHub/Store-system-with-feedback/main.sol\":14308:14738  function login_user(string memory login, bytes32 password) public {\r... */\n    tag_192:\n        /* \"Documents/GitHub/Store-system-with-feedback/main.sol\":14393:14404  structUsers */\n      0x04\n        /* \"Documents/GitHub/Store-system-with-feedback/main.sol\":14393:14429  structUsers[structUserLogins[login]] */\n      0x00\n        /* \"Documents/GitHub/Store-system-with-feedback/main.sol\":14405:14421  structUserLogins */\n      0x05\n        /* \"Documents/GitHub/Store-system-with-feedback/main.sol\":14422:14427  login */\n      dup5\n        /* \"Documents/GitHub/Store-system-with-feedback/main.sol\":14405:14428  structUserLogins[login] */\n      mload(0x40)\n      tag_553\n      swap2\n      swap1\n      tag_207\n      jump\t// in\n    tag_553:\n      swap1\n      dup2\n      mstore\n      0x40\n      dup1\n      mload\n      0x20\n      swap3\n      dup2\n      swap1\n      sub\n      dup4\n      add\n      swap1\n      keccak256\n      sload\n      sub(shl(0xa0, 0x01), 0x01)\n      and\n        /* \"Documents/GitHub/Store-system-with-feedback/main.sol\":14393:14429  structUsers[structUserLogins[login]] */\n      dup4\n      mstore\n      swap1\n      dup3\n      add\n      swap3\n      swap1\n      swap3\n      mstore\n      add\n      0x00\n      keccak256\n        /* \"Documents/GitHub/Store-system-with-feedback/main.sol\":14393:14436  structUsers[structUserLogins[login]].logged */\n      0x03\n      add\n      sload\n      0xff\n      and\n        /* \"Documents/GitHub/Store-system-with-feedback/main.sol\":14393:14445  structUsers[structUserLogins[login]].logged == false */\n      iszero\n        /* \"Documents/GitHub/Store-system-with-feedback/main.sol\":14385:14479  require(structUsers[structUserLogins[login]].logged == false, \"Error: You are already logged\") */\n      tag_554\n      jumpi\n      mload(0x40)\n      shl(0xe5, 0x461bcd)\n      dup2\n      mstore\n      0x04\n      add\n      tag_218\n      swap1\n      tag_388\n      jump\t// in\n    tag_554:\n        /* \"Documents/GitHub/Store-system-with-feedback/main.sol\":14533:14534  0 */\n      0x00\n      sub(shl(0xa0, 0x01), 0x01)\n        /* \"Documents/GitHub/Store-system-with-feedback/main.sol\":14498:14535  structUserLogins[login] != address(0) */\n      and\n        /* \"Documents/GitHub/Store-system-with-feedback/main.sol\":14498:14514  structUserLogins */\n      0x05\n        /* \"Documents/GitHub/Store-system-with-feedback/main.sol\":14515:14520  login */\n      dup4\n        /* \"Documents/GitHub/Store-system-with-feedback/main.sol\":14498:14521  structUserLogins[login] */\n      mload(0x40)\n      tag_556\n      swap2\n      swap1\n      tag_207\n      jump\t// in\n    tag_556:\n      swap1\n      dup2\n      mstore\n      mload(0x40)\n      swap1\n      dup2\n      swap1\n      sub\n      0x20\n      add\n      swap1\n      keccak256\n      sload\n      sub(shl(0xa0, 0x01), 0x01)\n      and\n        /* \"Documents/GitHub/Store-system-with-feedback/main.sol\":14498:14535  structUserLogins[login] != address(0) */\n      eq\n      iszero\n        /* \"Documents/GitHub/Store-system-with-feedback/main.sol\":14490:14565  require(structUserLogins[login] != address(0), \"Error: User doesn't exist\") */\n      tag_557\n      jumpi\n      mload(0x40)\n      shl(0xe5, 0x461bcd)\n      dup2\n      mstore\n      0x04\n      add\n      tag_218\n      swap1\n      tag_392\n      jump\t// in\n    tag_557:\n        /* \"Documents/GitHub/Store-system-with-feedback/main.sol\":14633:14641  password */\n      dup1\n        /* \"Documents/GitHub/Store-system-with-feedback/main.sol\":14584:14595  structUsers */\n      0x04\n        /* \"Documents/GitHub/Store-system-with-feedback/main.sol\":14584:14620  structUsers[structUserLogins[login]] */\n      0x00\n        /* \"Documents/GitHub/Store-system-with-feedback/main.sol\":14596:14612  structUserLogins */\n      0x05\n        /* \"Documents/GitHub/Store-system-with-feedback/main.sol\":14613:14618  login */\n      dup6\n        /* \"Documents/GitHub/Store-system-with-feedback/main.sol\":14596:14619  structUserLogins[login] */\n      mload(0x40)\n      tag_559\n      swap2\n      swap1\n      tag_207\n      jump\t// in\n    tag_559:\n      swap1\n      dup2\n      mstore\n      0x40\n      dup1\n      mload\n      0x20\n      swap3\n      dup2\n      swap1\n      sub\n      dup4\n      add\n      swap1\n      keccak256\n      sload\n      sub(shl(0xa0, 0x01), 0x01)\n      and\n        /* \"Documents/GitHub/Store-system-with-feedback/main.sol\":14584:14620  structUsers[structUserLogins[login]] */\n      dup4\n      mstore\n      swap1\n      dup3\n      add\n      swap3\n      swap1\n      swap3\n      mstore\n      add\n      0x00\n      keccak256\n        /* \"Documents/GitHub/Store-system-with-feedback/main.sol\":14596:14619  structUserLogins[login] */\n      0x01\n        /* \"Documents/GitHub/Store-system-with-feedback/main.sol\":14584:14629  structUsers[structUserLogins[login]].password */\n      add\n      sload\n        /* \"Documents/GitHub/Store-system-with-feedback/main.sol\":14584:14641  structUsers[structUserLogins[login]].password == password */\n      eq\n        /* \"Documents/GitHub/Store-system-with-feedback/main.sol\":14576:14669  require(structUsers[structUserLogins[login]].password == password, \"Error: Invalid password\") */\n      tag_560\n      jumpi\n      mload(0x40)\n      shl(0xe5, 0x461bcd)\n      dup2\n      mstore\n      0x04\n      add\n      tag_218\n      swap1\n      tag_396\n      jump\t// in\n    tag_560:\n        /* \"Documents/GitHub/Store-system-with-feedback/main.sol\":14726:14730  true */\n      0x01\n        /* \"Documents/GitHub/Store-system-with-feedback/main.sol\":14680:14691  structUsers */\n      0x04\n        /* \"Documents/GitHub/Store-system-with-feedback/main.sol\":14680:14716  structUsers[structUserLogins[login]] */\n      0x00\n        /* \"Documents/GitHub/Store-system-with-feedback/main.sol\":14692:14708  structUserLogins */\n      0x05\n        /* \"Documents/GitHub/Store-system-with-feedback/main.sol\":14709:14714  login */\n      dup6\n        /* \"Documents/GitHub/Store-system-with-feedback/main.sol\":14692:14715  structUserLogins[login] */\n      mload(0x40)\n      tag_397\n      swap2\n      swap1\n      tag_207\n      jump\t// in\n        /* \"Documents/GitHub/Store-system-with-feedback/main.sol\":5879:5933  mapping(string => structProduct) public structProducts */\n    tag_196:\n      dup1\n      mload\n      0x20\n      dup2\n      dup4\n      add\n      dup2\n      add\n      dup1\n      mload\n      0x08\n      dup3\n      mstore\n      swap3\n      dup3\n      add\n      swap2\n      swap1\n      swap4\n      add\n      keccak256\n      swap2\n      mstore\n      dup1\n      sload\n      0x01\n      dup3\n      add\n      dup1\n      sload\n      sub(shl(0xa0, 0x01), 0x01)\n      swap1\n      swap3\n      and\n      swap3\n      swap2\n      tag_563\n      swap1\n      tag_264\n      jump\t// in\n    tag_563:\n      dup1\n      0x1f\n      add\n      0x20\n      dup1\n      swap2\n      div\n      mul\n      0x20\n      add\n      mload(0x40)\n      swap1\n      dup2\n      add\n      0x40\n      mstore\n      dup1\n      swap3\n      swap2\n      swap1\n      dup2\n      dup2\n      mstore\n      0x20\n      add\n      dup3\n      dup1\n      sload\n      tag_564\n      swap1\n      tag_264\n      jump\t// in\n    tag_564:\n      dup1\n      iszero\n      tag_565\n      jumpi\n      dup1\n      0x1f\n      lt\n      tag_566\n      jumpi\n      0x0100\n      dup1\n      dup4\n      sload\n      div\n      mul\n      dup4\n      mstore\n      swap2\n      0x20\n      add\n      swap2\n      jump(tag_565)\n    tag_566:\n      dup3\n      add\n      swap2\n      swap1\n      0x00\n      mstore\n      keccak256(0x00, 0x20)\n      swap1\n    tag_567:\n      dup2\n      sload\n      dup2\n      mstore\n      swap1\n      0x01\n      add\n      swap1\n      0x20\n      add\n      dup1\n      dup4\n      gt\n      tag_567\n      jumpi\n      dup3\n      swap1\n      sub\n      0x1f\n      and\n      dup3\n      add\n      swap2\n    tag_565:\n      pop\n      pop\n      pop\n      pop\n      pop\n      swap1\n      dup1\n      0x02\n      add\n      sload\n      swap1\n      dup1\n      0x03\n      add\n      sload\n      swap1\n      pop\n      dup5\n      jump\t// out\n        /* \"Documents/GitHub/Store-system-with-feedback/main.sol\":6186:6237  structStatusPurchase[] public structStatusPurchases */\n    tag_202:\n      0x0a\n      dup2\n      dup2\n      sload\n      dup2\n      lt\n      tag_568\n      jumpi\n      0x00\n      dup1\n      revert\n    tag_568:\n      0x00\n      swap2\n      dup3\n      mstore\n      0x20\n      swap1\n      swap2\n      keccak256\n      0x04\n      swap1\n      swap2\n      mul\n      add\n      dup1\n      sload\n      0x01\n      dup3\n      add\n      dup1\n      sload\n      sub(shl(0xa0, 0x01), 0x01)\n      swap1\n      swap3\n      and\n      swap4\n      pop\n      swap1\n      tag_570\n      swap1\n      tag_264\n      jump\t// in\n    tag_570:\n      dup1\n      0x1f\n      add\n      0x20\n      dup1\n      swap2\n      div\n      mul\n      0x20\n      add\n      mload(0x40)\n      swap1\n      dup2\n      add\n      0x40\n      mstore\n      dup1\n      swap3\n      swap2\n      swap1\n      dup2\n      dup2\n      mstore\n      0x20\n      add\n      dup3\n      dup1\n      sload\n      tag_571\n      swap1\n      tag_264\n      jump\t// in\n    tag_571:\n      dup1\n      iszero\n      tag_572\n      jumpi\n      dup1\n      0x1f\n      lt\n      tag_573\n      jumpi\n      0x0100\n      dup1\n      dup4\n      sload\n      div\n      mul\n      dup4\n      mstore\n      swap2\n      0x20\n      add\n      swap2\n      jump(tag_572)\n    tag_573:\n      dup3\n      add\n      swap2\n      swap1\n      0x00\n      mstore\n      keccak256(0x00, 0x20)\n      swap1\n    tag_574:\n      dup2\n      sload\n      dup2\n      mstore\n      swap1\n      0x01\n      add\n      swap1\n      0x20\n      add\n      dup1\n      dup4\n      gt\n      tag_574\n      jumpi\n      dup3\n      swap1\n      sub\n      0x1f\n      and\n      dup3\n      add\n      swap2\n    tag_572:\n      pop\n      pop\n      pop\n      pop\n      0x02\n      dup4\n      add\n      sload\n      0x03\n      swap1\n      swap4\n      add\n      sload\n      swap2\n      swap3\n      swap2\n      0xff\n      and\n      swap1\n      pop\n      dup5\n      jump\t// out\n    tag_248:\n      dup3\n      dup1\n      sload\n      tag_575\n      swap1\n      tag_264\n      jump\t// in\n    tag_575:\n      swap1\n      0x00\n      mstore\n      keccak256(0x00, 0x20)\n      swap1\n      0x1f\n      add\n      0x20\n      swap1\n      div\n      dup2\n      add\n      swap3\n      dup3\n      tag_577\n      jumpi\n      0x00\n      dup6\n      sstore\n      jump(tag_580)\n    tag_577:\n      dup3\n      0x1f\n      lt\n      tag_578\n      jumpi\n      dup1\n      mload\n      not(0xff)\n      and\n      dup4\n      dup1\n      add\n      or\n      dup6\n      sstore\n      jump(tag_580)\n    tag_578:\n      dup3\n      dup1\n      add\n      0x01\n      add\n      dup6\n      sstore\n      dup3\n      iszero\n      tag_580\n      jumpi\n      swap2\n      dup3\n      add\n    tag_579:\n      dup3\n      dup2\n      gt\n      iszero\n      tag_580\n      jumpi\n      dup3\n      mload\n      dup3\n      sstore\n      swap2\n      0x20\n      add\n      swap2\n      swap1\n      0x01\n      add\n      swap1\n      jump(tag_579)\n    tag_580:\n      pop\n      tag_581\n      swap3\n      swap2\n      pop\n      tag_582\n      jump\t// in\n    tag_581:\n      pop\n      swap1\n      jump\t// out\n    tag_288:\n      dup3\n      dup1\n      sload\n      dup3\n      dup3\n      sstore\n      swap1\n      0x00\n      mstore\n      keccak256(0x00, 0x20)\n      swap1\n      dup2\n      add\n      swap3\n      dup3\n      iszero\n      tag_585\n      jumpi\n      swap2\n      0x20\n      mul\n      dup3\n      add\n    tag_584:\n      dup3\n      dup2\n      gt\n      iszero\n      tag_585\n      jumpi\n      dup3\n      mload\n      dup1\n      mload\n      tag_586\n      swap2\n      dup5\n      swap2\n      0x20\n      swap1\n      swap2\n      add\n      swap1\n      tag_248\n      jump\t// in\n    tag_586:\n      pop\n      swap2\n      0x20\n      add\n      swap2\n      swap1\n      0x01\n      add\n      swap1\n      jump(tag_584)\n    tag_585:\n      pop\n      tag_581\n      swap3\n      swap2\n      pop\n      tag_588\n      jump\t// in\n    tag_582:\n    tag_589:\n      dup1\n      dup3\n      gt\n      iszero\n      tag_581\n      jumpi\n      0x00\n      dup2\n      sstore\n      0x01\n      add\n      jump(tag_589)\n    tag_588:\n      dup1\n      dup3\n      gt\n      iszero\n      tag_581\n      jumpi\n      0x00\n      tag_593\n      dup3\n      dup3\n      tag_594\n      jump\t// in\n    tag_593:\n      pop\n      0x01\n      add\n      jump(tag_588)\n    tag_594:\n      pop\n      dup1\n      sload\n      tag_595\n      swap1\n      tag_264\n      jump\t// in\n    tag_595:\n      0x00\n      dup3\n      sstore\n      dup1\n      0x1f\n      lt\n      tag_597\n      jumpi\n      pop\n      pop\n      jump\t// out\n    tag_597:\n      0x1f\n      add\n      0x20\n      swap1\n      div\n      swap1\n      0x00\n      mstore\n      keccak256(0x00, 0x20)\n      swap1\n      dup2\n      add\n      swap1\n      tag_598\n      swap2\n      swap1\n      tag_582\n      jump\t// in\n    tag_598:\n      pop\n      jump\t// out\n        /* \"#utility.yul\":14:187   */\n    tag_600:\n        /* \"#utility.yul\":82:102   */\n      dup1\n      calldataload\n      sub(shl(0xa0, 0x01), 0x01)\n        /* \"#utility.yul\":131:162   */\n      dup2\n      and\n        /* \"#utility.yul\":121:163   */\n      dup2\n      eq\n        /* \"#utility.yul\":111:181   */\n      tag_602\n      jumpi\n        /* \"#utility.yul\":177:178   */\n      0x00\n        /* \"#utility.yul\":174:175   */\n      dup1\n        /* \"#utility.yul\":167:179   */\n      revert\n        /* \"#utility.yul\":111:181   */\n    tag_602:\n        /* \"#utility.yul\":14:187   */\n      swap2\n      swap1\n      pop\n      jump\t// out\n        /* \"#utility.yul\":192:723   */\n    tag_603:\n        /* \"#utility.yul\":235:240   */\n      0x00\n        /* \"#utility.yul\":288:291   */\n      dup3\n        /* \"#utility.yul\":281:285   */\n      0x1f\n        /* \"#utility.yul\":273:279   */\n      dup4\n        /* \"#utility.yul\":269:286   */\n      add\n        /* \"#utility.yul\":265:292   */\n      slt\n        /* \"#utility.yul\":255:310   */\n      tag_605\n      jumpi\n        /* \"#utility.yul\":306:307   */\n      0x00\n        /* \"#utility.yul\":303:304   */\n      dup1\n        /* \"#utility.yul\":296:308   */\n      revert\n        /* \"#utility.yul\":255:310   */\n    tag_605:\n        /* \"#utility.yul\":329:349   */\n      dup2\n      calldataload\n      sub(shl(0x40, 0x01), 0x01)\n        /* \"#utility.yul\":361:387   */\n      dup2\n      gt\n        /* \"#utility.yul\":358:410   */\n      iszero\n      tag_607\n      jumpi\n        /* \"#utility.yul\":390:408   */\n      tag_607\n      tag_608\n      jump\t// in\n    tag_607:\n        /* \"#utility.yul\":434:489   */\n      tag_609\n        /* \"#utility.yul\":477:479   */\n      0x1f\n        /* \"#utility.yul\":458:471   */\n      dup3\n      add\n      not(0x1f)\n        /* \"#utility.yul\":454:481   */\n      and\n        /* \"#utility.yul\":483:487   */\n      0x20\n        /* \"#utility.yul\":450:488   */\n      add\n        /* \"#utility.yul\":434:489   */\n      tag_610\n      jump\t// in\n    tag_609:\n        /* \"#utility.yul\":514:516   */\n      dup2\n        /* \"#utility.yul\":505:512   */\n      dup2\n        /* \"#utility.yul\":498:517   */\n      mstore\n        /* \"#utility.yul\":560:563   */\n      dup5\n        /* \"#utility.yul\":553:557   */\n      0x20\n        /* \"#utility.yul\":548:550   */\n      dup4\n        /* \"#utility.yul\":540:546   */\n      dup7\n        /* \"#utility.yul\":536:551   */\n      add\n        /* \"#utility.yul\":532:558   */\n      add\n        /* \"#utility.yul\":529:564   */\n      gt\n        /* \"#utility.yul\":526:581   */\n      iszero\n      tag_611\n      jumpi\n        /* \"#utility.yul\":577:578   */\n      0x00\n        /* \"#utility.yul\":574:575   */\n      dup1\n        /* \"#utility.yul\":567:579   */\n      revert\n        /* \"#utility.yul\":526:581   */\n    tag_611:\n        /* \"#utility.yul\":642:644   */\n      dup2\n        /* \"#utility.yul\":635:639   */\n      0x20\n        /* \"#utility.yul\":627:633   */\n      dup6\n        /* \"#utility.yul\":623:640   */\n      add\n        /* \"#utility.yul\":616:620   */\n      0x20\n        /* \"#utility.yul\":607:614   */\n      dup4\n        /* \"#utility.yul\":603:621   */\n      add\n        /* \"#utility.yul\":590:645   */\n      calldatacopy\n        /* \"#utility.yul\":690:691   */\n      0x00\n        /* \"#utility.yul\":665:681   */\n      swap2\n      dup2\n      add\n        /* \"#utility.yul\":683:687   */\n      0x20\n        /* \"#utility.yul\":661:688   */\n      add\n        /* \"#utility.yul\":654:692   */\n      swap2\n      swap1\n      swap2\n      mstore\n        /* \"#utility.yul\":669:676   */\n      swap4\n        /* \"#utility.yul\":192:723   */\n      swap3\n      pop\n      pop\n      pop\n      jump\t// out\n        /* \"#utility.yul\":728:914   */\n    tag_68:\n        /* \"#utility.yul\":787:793   */\n      0x00\n        /* \"#utility.yul\":840:842   */\n      0x20\n        /* \"#utility.yul\":828:837   */\n      dup3\n        /* \"#utility.yul\":819:826   */\n      dup5\n        /* \"#utility.yul\":815:838   */\n      sub\n        /* \"#utility.yul\":811:843   */\n      slt\n        /* \"#utility.yul\":808:860   */\n      iszero\n      tag_613\n      jumpi\n        /* \"#utility.yul\":856:857   */\n      0x00\n        /* \"#utility.yul\":853:854   */\n      dup1\n        /* \"#utility.yul\":846:858   */\n      revert\n        /* \"#utility.yul\":808:860   */\n    tag_613:\n        /* \"#utility.yul\":879:908   */\n      tag_614\n        /* \"#utility.yul\":898:907   */\n      dup3\n        /* \"#utility.yul\":879:908   */\n      tag_600\n      jump\t// in\n    tag_614:\n        /* \"#utility.yul\":869:908   */\n      swap4\n        /* \"#utility.yul\":728:914   */\n      swap3\n      pop\n      pop\n      pop\n      jump\t// out\n        /* \"#utility.yul\":919:1383   */\n    tag_54:\n        /* \"#utility.yul\":1006:1012   */\n      0x00\n        /* \"#utility.yul\":1014:1020   */\n      dup1\n        /* \"#utility.yul\":1022:1028   */\n      0x00\n        /* \"#utility.yul\":1075:1077   */\n      0x60\n        /* \"#utility.yul\":1063:1072   */\n      dup5\n        /* \"#utility.yul\":1054:1061   */\n      dup7\n        /* \"#utility.yul\":1050:1073   */\n      sub\n        /* \"#utility.yul\":1046:1078   */\n      slt\n        /* \"#utility.yul\":1043:1095   */\n      iszero\n      tag_616\n      jumpi\n        /* \"#utility.yul\":1091:1092   */\n      0x00\n        /* \"#utility.yul\":1088:1089   */\n      dup1\n        /* \"#utility.yul\":1081:1093   */\n      revert\n        /* \"#utility.yul\":1043:1095   */\n    tag_616:\n        /* \"#utility.yul\":1114:1143   */\n      tag_617\n        /* \"#utility.yul\":1133:1142   */\n      dup5\n        /* \"#utility.yul\":1114:1143   */\n      tag_600\n      jump\t// in\n    tag_617:\n        /* \"#utility.yul\":1104:1143   */\n      swap3\n      pop\n        /* \"#utility.yul\":1194:1196   */\n      0x20\n        /* \"#utility.yul\":1179:1197   */\n      dup5\n      add\n        /* \"#utility.yul\":1166:1198   */\n      calldataload\n      sub(shl(0x40, 0x01), 0x01)\n        /* \"#utility.yul\":1210:1240   */\n      dup2\n      gt\n        /* \"#utility.yul\":1207:1257   */\n      iszero\n      tag_618\n      jumpi\n        /* \"#utility.yul\":1253:1254   */\n      0x00\n        /* \"#utility.yul\":1250:1251   */\n      dup1\n        /* \"#utility.yul\":1243:1255   */\n      revert\n        /* \"#utility.yul\":1207:1257   */\n    tag_618:\n        /* \"#utility.yul\":1276:1326   */\n      tag_619\n        /* \"#utility.yul\":1318:1325   */\n      dup7\n        /* \"#utility.yul\":1309:1315   */\n      dup3\n        /* \"#utility.yul\":1298:1307   */\n      dup8\n        /* \"#utility.yul\":1294:1316   */\n      add\n        /* \"#utility.yul\":1276:1326   */\n      tag_603\n      jump\t// in\n    tag_619:\n        /* \"#utility.yul\":1266:1326   */\n      swap3\n      pop\n      pop\n        /* \"#utility.yul\":1373:1375   */\n      0x40\n        /* \"#utility.yul\":1362:1371   */\n      dup5\n        /* \"#utility.yul\":1358:1376   */\n      add\n        /* \"#utility.yul\":1345:1377   */\n      calldataload\n        /* \"#utility.yul\":1335:1377   */\n      swap1\n      pop\n        /* \"#utility.yul\":919:1383   */\n      swap3\n      pop\n      swap3\n      pop\n      swap3\n      jump\t// out\n        /* \"#utility.yul\":1388:1710   */\n    tag_39:\n        /* \"#utility.yul\":1457:1463   */\n      0x00\n        /* \"#utility.yul\":1510:1512   */\n      0x20\n        /* \"#utility.yul\":1498:1507   */\n      dup3\n        /* \"#utility.yul\":1489:1496   */\n      dup5\n        /* \"#utility.yul\":1485:1508   */\n      sub\n        /* \"#utility.yul\":1481:1513   */\n      slt\n        /* \"#utility.yul\":1478:1530   */\n      iszero\n      tag_621\n      jumpi\n        /* \"#utility.yul\":1526:1527   */\n      0x00\n        /* \"#utility.yul\":1523:1524   */\n      dup1\n        /* \"#utility.yul\":1516:1528   */\n      revert\n        /* \"#utility.yul\":1478:1530   */\n    tag_621:\n        /* \"#utility.yul\":1553:1576   */\n      dup2\n      calldataload\n      sub(shl(0x40, 0x01), 0x01)\n        /* \"#utility.yul\":1588:1618   */\n      dup2\n      gt\n        /* \"#utility.yul\":1585:1635   */\n      iszero\n      tag_622\n      jumpi\n        /* \"#utility.yul\":1631:1632   */\n      0x00\n        /* \"#utility.yul\":1628:1629   */\n      dup1\n        /* \"#utility.yul\":1621:1633   */\n      revert\n        /* \"#utility.yul\":1585:1635   */\n    tag_622:\n        /* \"#utility.yul\":1654:1704   */\n      tag_495\n        /* \"#utility.yul\":1696:1703   */\n      dup5\n        /* \"#utility.yul\":1687:1693   */\n      dup3\n        /* \"#utility.yul\":1676:1685   */\n      dup6\n        /* \"#utility.yul\":1672:1694   */\n      add\n        /* \"#utility.yul\":1654:1704   */\n      tag_603\n      jump\t// in\n        /* \"#utility.yul\":1715:3050   */\n    tag_79:\n        /* \"#utility.yul\":1828:1834   */\n      0x00\n        /* \"#utility.yul\":1836:1842   */\n      dup1\n        /* \"#utility.yul\":1889:1891   */\n      0x40\n        /* \"#utility.yul\":1877:1886   */\n      dup4\n        /* \"#utility.yul\":1868:1875   */\n      dup6\n        /* \"#utility.yul\":1864:1887   */\n      sub\n        /* \"#utility.yul\":1860:1892   */\n      slt\n        /* \"#utility.yul\":1857:1909   */\n      iszero\n      tag_625\n      jumpi\n        /* \"#utility.yul\":1905:1906   */\n      0x00\n        /* \"#utility.yul\":1902:1903   */\n      dup1\n        /* \"#utility.yul\":1895:1907   */\n      revert\n        /* \"#utility.yul\":1857:1909   */\n    tag_625:\n        /* \"#utility.yul\":1932:1955   */\n      dup3\n      calldataload\n      sub(shl(0x40, 0x01), 0x01)\n        /* \"#utility.yul\":2004:2018   */\n      dup1\n      dup3\n      gt\n        /* \"#utility.yul\":2001:2035   */\n      iszero\n      tag_626\n      jumpi\n        /* \"#utility.yul\":2031:2032   */\n      0x00\n        /* \"#utility.yul\":2028:2029   */\n      dup1\n        /* \"#utility.yul\":2021:2033   */\n      revert\n        /* \"#utility.yul\":2001:2035   */\n    tag_626:\n        /* \"#utility.yul\":2054:2104   */\n      tag_627\n        /* \"#utility.yul\":2096:2103   */\n      dup7\n        /* \"#utility.yul\":2087:2093   */\n      dup4\n        /* \"#utility.yul\":2076:2085   */\n      dup8\n        /* \"#utility.yul\":2072:2094   */\n      add\n        /* \"#utility.yul\":2054:2104   */\n      tag_603\n      jump\t// in\n    tag_627:\n        /* \"#utility.yul\":2044:2104   */\n      swap4\n      pop\n        /* \"#utility.yul\":2123:2125   */\n      0x20\n        /* \"#utility.yul\":2113:2125   */\n      swap2\n      pop\n        /* \"#utility.yul\":2178:2180   */\n      dup2\n        /* \"#utility.yul\":2167:2176   */\n      dup6\n        /* \"#utility.yul\":2163:2181   */\n      add\n        /* \"#utility.yul\":2150:2182   */\n      calldataload\n        /* \"#utility.yul\":2207:2209   */\n      dup2\n        /* \"#utility.yul\":2197:2205   */\n      dup2\n        /* \"#utility.yul\":2194:2210   */\n      gt\n        /* \"#utility.yul\":2191:2227   */\n      iszero\n      tag_628\n      jumpi\n        /* \"#utility.yul\":2223:2224   */\n      0x00\n        /* \"#utility.yul\":2220:2221   */\n      dup1\n        /* \"#utility.yul\":2213:2225   */\n      revert\n        /* \"#utility.yul\":2191:2227   */\n    tag_628:\n        /* \"#utility.yul\":2246:2270   */\n      dup6\n      add\n        /* \"#utility.yul\":2301:2305   */\n      0x1f\n        /* \"#utility.yul\":2293:2306   */\n      dup2\n      add\n        /* \"#utility.yul\":2289:2316   */\n      dup8\n      sgt\n        /* \"#utility.yul\":2279:2334   */\n      tag_629\n      jumpi\n        /* \"#utility.yul\":2330:2331   */\n      0x00\n        /* \"#utility.yul\":2327:2328   */\n      dup1\n        /* \"#utility.yul\":2320:2332   */\n      revert\n        /* \"#utility.yul\":2279:2334   */\n    tag_629:\n        /* \"#utility.yul\":2366:2368   */\n      dup1\n        /* \"#utility.yul\":2353:2369   */\n      calldataload\n        /* \"#utility.yul\":2388:2390   */\n      dup3\n        /* \"#utility.yul\":2384:2386   */\n      dup2\n        /* \"#utility.yul\":2381:2391   */\n      gt\n        /* \"#utility.yul\":2378:2414   */\n      iszero\n      tag_631\n      jumpi\n        /* \"#utility.yul\":2394:2412   */\n      tag_631\n      tag_608\n      jump\t// in\n    tag_631:\n        /* \"#utility.yul\":2440:2442   */\n      dup1\n        /* \"#utility.yul\":2437:2438   */\n      0x05\n        /* \"#utility.yul\":2433:2443   */\n      shl\n        /* \"#utility.yul\":2463:2491   */\n      tag_632\n        /* \"#utility.yul\":2487:2489   */\n      dup6\n        /* \"#utility.yul\":2483:2485   */\n      dup3\n        /* \"#utility.yul\":2479:2490   */\n      add\n        /* \"#utility.yul\":2463:2491   */\n      tag_610\n      jump\t// in\n    tag_632:\n        /* \"#utility.yul\":2525:2540   */\n      dup3\n      dup2\n      mstore\n        /* \"#utility.yul\":2556:2568   */\n      dup6\n      dup2\n      add\n      swap1\n        /* \"#utility.yul\":2588:2599   */\n      dup5\n      dup8\n      add\n        /* \"#utility.yul\":2618:2629   */\n      dup4\n      dup7\n      add\n        /* \"#utility.yul\":2614:2634   */\n      dup9\n      add\n        /* \"#utility.yul\":2611:2644   */\n      dup13\n      lt\n        /* \"#utility.yul\":2608:2661   */\n      iszero\n      tag_633\n      jumpi\n        /* \"#utility.yul\":2657:2658   */\n      0x00\n        /* \"#utility.yul\":2654:2655   */\n      dup1\n        /* \"#utility.yul\":2647:2659   */\n      revert\n        /* \"#utility.yul\":2608:2661   */\n    tag_633:\n        /* \"#utility.yul\":2679:2680   */\n      0x00\n        /* \"#utility.yul\":2670:2680   */\n      swap4\n      pop\n        /* \"#utility.yul\":2700:2701   */\n      dup4\n        /* \"#utility.yul\":2710:3020   */\n    tag_634:\n        /* \"#utility.yul\":2726:2728   */\n      dup6\n        /* \"#utility.yul\":2721:2724   */\n      dup2\n        /* \"#utility.yul\":2718:2729   */\n      lt\n        /* \"#utility.yul\":2710:3020   */\n      iszero\n      tag_636\n      jumpi\n        /* \"#utility.yul\":2807:2810   */\n      dup2\n        /* \"#utility.yul\":2794:2811   */\n      calldataload\n        /* \"#utility.yul\":2843:2845   */\n      dup9\n        /* \"#utility.yul\":2830:2841   */\n      dup2\n        /* \"#utility.yul\":2827:2846   */\n      gt\n        /* \"#utility.yul\":2824:2863   */\n      iszero\n      tag_637\n      jumpi\n        /* \"#utility.yul\":2859:2860   */\n      dup6\n        /* \"#utility.yul\":2856:2857   */\n      dup7\n        /* \"#utility.yul\":2849:2861   */\n      revert\n        /* \"#utility.yul\":2824:2863   */\n    tag_637:\n        /* \"#utility.yul\":2888:2945   */\n      tag_638\n        /* \"#utility.yul\":2937:2944   */\n      dup15\n        /* \"#utility.yul\":2932:2934   */\n      dup12\n        /* \"#utility.yul\":2918:2929   */\n      dup4\n        /* \"#utility.yul\":2914:2916   */\n      dup12\n        /* \"#utility.yul\":2910:2930   */\n      add\n        /* \"#utility.yul\":2906:2935   */\n      add\n        /* \"#utility.yul\":2888:2945   */\n      tag_603\n      jump\t// in\n    tag_638:\n        /* \"#utility.yul\":2876:2946   */\n      dup6\n      mstore\n      pop\n        /* \"#utility.yul\":2966:2978   */\n      swap3\n      dup9\n      add\n      swap3\n        /* \"#utility.yul\":2998:3010   */\n      swap1\n      dup9\n      add\n      swap1\n        /* \"#utility.yul\":2748:2749   */\n      0x01\n        /* \"#utility.yul\":2739:2750   */\n      add\n        /* \"#utility.yul\":2710:3020   */\n      jump(tag_634)\n    tag_636:\n      pop\n        /* \"#utility.yul\":1715:3050   */\n      swap9\n      swap12\n        /* \"#utility.yul\":3039:3044   */\n      swap1\n      swap11\n      pop\n        /* \"#utility.yul\":1715:3050   */\n      swap9\n      pop\n      pop\n      pop\n      pop\n      pop\n      pop\n      pop\n      pop\n      pop\n      jump\t// out\n        /* \"#utility.yul\":3055:3445   */\n    tag_137:\n        /* \"#utility.yul\":3133:3139   */\n      0x00\n        /* \"#utility.yul\":3141:3147   */\n      dup1\n        /* \"#utility.yul\":3194:3196   */\n      0x40\n        /* \"#utility.yul\":3182:3191   */\n      dup4\n        /* \"#utility.yul\":3173:3180   */\n      dup6\n        /* \"#utility.yul\":3169:3192   */\n      sub\n        /* \"#utility.yul\":3165:3197   */\n      slt\n        /* \"#utility.yul\":3162:3214   */\n      iszero\n      tag_640\n      jumpi\n        /* \"#utility.yul\":3210:3211   */\n      0x00\n        /* \"#utility.yul\":3207:3208   */\n      dup1\n        /* \"#utility.yul\":3200:3212   */\n      revert\n        /* \"#utility.yul\":3162:3214   */\n    tag_640:\n        /* \"#utility.yul\":3237:3260   */\n      dup3\n      calldataload\n      sub(shl(0x40, 0x01), 0x01)\n        /* \"#utility.yul\":3272:3302   */\n      dup2\n      gt\n        /* \"#utility.yul\":3269:3319   */\n      iszero\n      tag_641\n      jumpi\n        /* \"#utility.yul\":3315:3316   */\n      0x00\n        /* \"#utility.yul\":3312:3313   */\n      dup1\n        /* \"#utility.yul\":3305:3317   */\n      revert\n        /* \"#utility.yul\":3269:3319   */\n    tag_641:\n        /* \"#utility.yul\":3338:3388   */\n      tag_642\n        /* \"#utility.yul\":3380:3387   */\n      dup6\n        /* \"#utility.yul\":3371:3377   */\n      dup3\n        /* \"#utility.yul\":3360:3369   */\n      dup7\n        /* \"#utility.yul\":3356:3378   */\n      add\n        /* \"#utility.yul\":3338:3388   */\n      tag_603\n      jump\t// in\n    tag_642:\n        /* \"#utility.yul\":3328:3388   */\n      swap6\n        /* \"#utility.yul\":3435:3437   */\n      0x20\n        /* \"#utility.yul\":3420:3438   */\n      swap5\n      swap1\n      swap5\n      add\n        /* \"#utility.yul\":3407:3439   */\n      calldataload\n      swap5\n      pop\n      pop\n      pop\n      pop\n        /* \"#utility.yul\":3055:3445   */\n      jump\t// out\n        /* \"#utility.yul\":3450:4061   */\n    tag_187:\n        /* \"#utility.yul\":3547:3553   */\n      0x00\n        /* \"#utility.yul\":3555:3561   */\n      dup1\n        /* \"#utility.yul\":3563:3569   */\n      0x00\n        /* \"#utility.yul\":3616:3618   */\n      0x60\n        /* \"#utility.yul\":3604:3613   */\n      dup5\n        /* \"#utility.yul\":3595:3602   */\n      dup7\n        /* \"#utility.yul\":3591:3614   */\n      sub\n        /* \"#utility.yul\":3587:3619   */\n      slt\n        /* \"#utility.yul\":3584:3636   */\n      iszero\n      tag_644\n      jumpi\n        /* \"#utility.yul\":3632:3633   */\n      0x00\n        /* \"#utility.yul\":3629:3630   */\n      dup1\n        /* \"#utility.yul\":3622:3634   */\n      revert\n        /* \"#utility.yul\":3584:3636   */\n    tag_644:\n        /* \"#utility.yul\":3659:3682   */\n      dup4\n      calldataload\n      sub(shl(0x40, 0x01), 0x01)\n        /* \"#utility.yul\":3731:3745   */\n      dup1\n      dup3\n      gt\n        /* \"#utility.yul\":3728:3762   */\n      iszero\n      tag_645\n      jumpi\n        /* \"#utility.yul\":3758:3759   */\n      0x00\n        /* \"#utility.yul\":3755:3756   */\n      dup1\n        /* \"#utility.yul\":3748:3760   */\n      revert\n        /* \"#utility.yul\":3728:3762   */\n    tag_645:\n        /* \"#utility.yul\":3781:3831   */\n      tag_646\n        /* \"#utility.yul\":3823:3830   */\n      dup8\n        /* \"#utility.yul\":3814:3820   */\n      dup4\n        /* \"#utility.yul\":3803:3812   */\n      dup9\n        /* \"#utility.yul\":3799:3821   */\n      add\n        /* \"#utility.yul\":3781:3831   */\n      tag_603\n      jump\t// in\n    tag_646:\n        /* \"#utility.yul\":3771:3831   */\n      swap5\n      pop\n        /* \"#utility.yul\":3884:3886   */\n      0x20\n        /* \"#utility.yul\":3873:3882   */\n      dup7\n        /* \"#utility.yul\":3869:3887   */\n      add\n        /* \"#utility.yul\":3856:3888   */\n      calldataload\n        /* \"#utility.yul\":3840:3888   */\n      swap2\n      pop\n        /* \"#utility.yul\":3913:3915   */\n      dup1\n        /* \"#utility.yul\":3903:3911   */\n      dup3\n        /* \"#utility.yul\":3900:3916   */\n      gt\n        /* \"#utility.yul\":3897:3933   */\n      iszero\n      tag_647\n      jumpi\n        /* \"#utility.yul\":3929:3930   */\n      0x00\n        /* \"#utility.yul\":3926:3927   */\n      dup1\n        /* \"#utility.yul\":3919:3931   */\n      revert\n        /* \"#utility.yul\":3897:3933   */\n    tag_647:\n      pop\n        /* \"#utility.yul\":3952:4004   */\n      tag_619\n        /* \"#utility.yul\":3996:4003   */\n      dup7\n        /* \"#utility.yul\":3985:3993   */\n      dup3\n        /* \"#utility.yul\":3974:3983   */\n      dup8\n        /* \"#utility.yul\":3970:3994   */\n      add\n        /* \"#utility.yul\":3952:4004   */\n      tag_603\n      jump\t// in\n        /* \"#utility.yul\":4066:4677   */\n    tag_122:\n        /* \"#utility.yul\":4163:4169   */\n      0x00\n        /* \"#utility.yul\":4171:4177   */\n      dup1\n        /* \"#utility.yul\":4179:4185   */\n      0x00\n        /* \"#utility.yul\":4232:4234   */\n      0x60\n        /* \"#utility.yul\":4220:4229   */\n      dup5\n        /* \"#utility.yul\":4211:4218   */\n      dup7\n        /* \"#utility.yul\":4207:4230   */\n      sub\n        /* \"#utility.yul\":4203:4235   */\n      slt\n        /* \"#utility.yul\":4200:4252   */\n      iszero\n      tag_650\n      jumpi\n        /* \"#utility.yul\":4248:4249   */\n      0x00\n        /* \"#utility.yul\":4245:4246   */\n      dup1\n        /* \"#utility.yul\":4238:4250   */\n      revert\n        /* \"#utility.yul\":4200:4252   */\n    tag_650:\n        /* \"#utility.yul\":4275:4298   */\n      dup4\n      calldataload\n      sub(shl(0x40, 0x01), 0x01)\n        /* \"#utility.yul\":4347:4361   */\n      dup1\n      dup3\n      gt\n        /* \"#utility.yul\":4344:4378   */\n      iszero\n      tag_651\n      jumpi\n        /* \"#utility.yul\":4374:4375   */\n      0x00\n        /* \"#utility.yul\":4371:4372   */\n      dup1\n        /* \"#utility.yul\":4364:4376   */\n      revert\n        /* \"#utility.yul\":4344:4378   */\n    tag_651:\n        /* \"#utility.yul\":4397:4447   */\n      tag_652\n        /* \"#utility.yul\":4439:4446   */\n      dup8\n        /* \"#utility.yul\":4430:4436   */\n      dup4\n        /* \"#utility.yul\":4419:4428   */\n      dup9\n        /* \"#utility.yul\":4415:4437   */\n      add\n        /* \"#utility.yul\":4397:4447   */\n      tag_603\n      jump\t// in\n    tag_652:\n        /* \"#utility.yul\":4387:4447   */\n      swap5\n      pop\n        /* \"#utility.yul\":4494:4496   */\n      0x20\n        /* \"#utility.yul\":4483:4492   */\n      dup7\n        /* \"#utility.yul\":4479:4497   */\n      add\n        /* \"#utility.yul\":4466:4498   */\n      calldataload\n        /* \"#utility.yul\":4456:4498   */\n      swap4\n      pop\n        /* \"#utility.yul\":4551:4553   */\n      0x40\n        /* \"#utility.yul\":4540:4549   */\n      dup7\n        /* \"#utility.yul\":4536:4554   */\n      add\n        /* \"#utility.yul\":4523:4555   */\n      calldataload\n        /* \"#utility.yul\":4507:4555   */\n      swap2\n      pop\n        /* \"#utility.yul\":4580:4582   */\n      dup1\n        /* \"#utility.yul\":4570:4578   */\n      dup3\n        /* \"#utility.yul\":4567:4583   */\n      gt\n        /* \"#utility.yul\":4564:4600   */\n      iszero\n      tag_653\n      jumpi\n        /* \"#utility.yul\":4596:4597   */\n      0x00\n        /* \"#utility.yul\":4593:4594   */\n      dup1\n        /* \"#utility.yul\":4586:4598   */\n      revert\n        /* \"#utility.yul\":4564:4600   */\n    tag_653:\n      pop\n        /* \"#utility.yul\":4619:4671   */\n      tag_654\n        /* \"#utility.yul\":4663:4670   */\n      dup7\n        /* \"#utility.yul\":4652:4660   */\n      dup3\n        /* \"#utility.yul\":4641:4650   */\n      dup8\n        /* \"#utility.yul\":4637:4661   */\n      add\n        /* \"#utility.yul\":4619:4671   */\n      tag_603\n      jump\t// in\n    tag_654:\n        /* \"#utility.yul\":4609:4671   */\n      swap2\n      pop\n      pop\n        /* \"#utility.yul\":4066:4677   */\n      swap3\n      pop\n      swap3\n      pop\n      swap3\n      jump\t// out\n        /* \"#utility.yul\":4682:4862   */\n    tag_126:\n        /* \"#utility.yul\":4741:4747   */\n      0x00\n        /* \"#utility.yul\":4794:4796   */\n      0x20\n        /* \"#utility.yul\":4782:4791   */\n      dup3\n        /* \"#utility.yul\":4773:4780   */\n      dup5\n        /* \"#utility.yul\":4769:4792   */\n      sub\n        /* \"#utility.yul\":4765:4797   */\n      slt\n        /* \"#utility.yul\":4762:4814   */\n      iszero\n      tag_656\n      jumpi\n        /* \"#utility.yul\":4810:4811   */\n      0x00\n        /* \"#utility.yul\":4807:4808   */\n      dup1\n        /* \"#utility.yul\":4800:4812   */\n      revert\n        /* \"#utility.yul\":4762:4814   */\n    tag_656:\n      pop\n        /* \"#utility.yul\":4833:4856   */\n      calldataload\n      swap2\n        /* \"#utility.yul\":4682:4862   */\n      swap1\n      pop\n      jump\t// out\n        /* \"#utility.yul\":4867:5208   */\n    tag_49:\n        /* \"#utility.yul\":4932:4938   */\n      0x00\n        /* \"#utility.yul\":4940:4946   */\n      dup1\n        /* \"#utility.yul\":4993:4995   */\n      0x40\n        /* \"#utility.yul\":4981:4990   */\n      dup4\n        /* \"#utility.yul\":4972:4979   */\n      dup6\n        /* \"#utility.yul\":4968:4991   */\n      sub\n        /* \"#utility.yul\":4964:4996   */\n      slt\n        /* \"#utility.yul\":4961:5013   */\n      iszero\n      tag_658\n      jumpi\n        /* \"#utility.yul\":5009:5010   */\n      0x00\n        /* \"#utility.yul\":5006:5007   */\n      dup1\n        /* \"#utility.yul\":4999:5011   */\n      revert\n        /* \"#utility.yul\":4961:5013   */\n    tag_658:\n        /* \"#utility.yul\":5045:5054   */\n      dup3\n        /* \"#utility.yul\":5032:5055   */\n      calldataload\n        /* \"#utility.yul\":5022:5055   */\n      swap2\n      pop\n        /* \"#utility.yul\":5105:5107   */\n      0x20\n        /* \"#utility.yul\":5094:5103   */\n      dup4\n        /* \"#utility.yul\":5090:5108   */\n      add\n        /* \"#utility.yul\":5077:5109   */\n      calldataload\n        /* \"#utility.yul\":5152:5157   */\n      dup1\n        /* \"#utility.yul\":5145:5158   */\n      iszero\n        /* \"#utility.yul\":5138:5159   */\n      iszero\n        /* \"#utility.yul\":5131:5136   */\n      dup2\n        /* \"#utility.yul\":5128:5160   */\n      eq\n        /* \"#utility.yul\":5118:5178   */\n      tag_659\n      jumpi\n        /* \"#utility.yul\":5174:5175   */\n      0x00\n        /* \"#utility.yul\":5171:5172   */\n      dup1\n        /* \"#utility.yul\":5164:5176   */\n      revert\n        /* \"#utility.yul\":5118:5178   */\n    tag_659:\n        /* \"#utility.yul\":5197:5202   */\n      dup1\n        /* \"#utility.yul\":5187:5202   */\n      swap2\n      pop\n      pop\n        /* \"#utility.yul\":4867:5208   */\n      swap3\n      pop\n      swap3\n      swap1\n      pop\n      jump\t// out\n        /* \"#utility.yul\":5213:5471   */\n    tag_660:\n        /* \"#utility.yul\":5255:5258   */\n      0x00\n        /* \"#utility.yul\":5293:5298   */\n      dup2\n        /* \"#utility.yul\":5287:5299   */\n      mload\n        /* \"#utility.yul\":5320:5326   */\n      dup1\n        /* \"#utility.yul\":5315:5318   */\n      dup5\n        /* \"#utility.yul\":5308:5327   */\n      mstore\n        /* \"#utility.yul\":5336:5399   */\n      tag_662\n        /* \"#utility.yul\":5392:5398   */\n      dup2\n        /* \"#utility.yul\":5385:5389   */\n      0x20\n        /* \"#utility.yul\":5380:5383   */\n      dup7\n        /* \"#utility.yul\":5376:5390   */\n      add\n        /* \"#utility.yul\":5369:5373   */\n      0x20\n        /* \"#utility.yul\":5362:5367   */\n      dup7\n        /* \"#utility.yul\":5358:5374   */\n      add\n        /* \"#utility.yul\":5336:5399   */\n      tag_663\n      jump\t// in\n    tag_662:\n        /* \"#utility.yul\":5453:5455   */\n      0x1f\n        /* \"#utility.yul\":5432:5447   */\n      add\n      not(0x1f)\n        /* \"#utility.yul\":5428:5457   */\n      and\n        /* \"#utility.yul\":5419:5458   */\n      swap3\n      swap1\n      swap3\n      add\n        /* \"#utility.yul\":5460:5464   */\n      0x20\n        /* \"#utility.yul\":5415:5465   */\n      add\n      swap3\n        /* \"#utility.yul\":5213:5471   */\n      swap2\n      pop\n      pop\n      jump\t// out\n        /* \"#utility.yul\":5476:5697   */\n    tag_413:\n        /* \"#utility.yul\":5650:5652   */\n      0x60\n        /* \"#utility.yul\":5621:5636   */\n      swap2\n      swap1\n      swap2\n      shl\n      not(sub(shl(0x60, 0x01), 0x01))\n        /* \"#utility.yul\":5617:5662   */\n      and\n        /* \"#utility.yul\":5605:5663   */\n      dup2\n      mstore\n        /* \"#utility.yul\":5688:5690   */\n      0x14\n        /* \"#utility.yul\":5679:5691   */\n      add\n      swap1\n        /* \"#utility.yul\":5476:5697   */\n      jump\t// out\n        /* \"#utility.yul\":5702:5978   */\n    tag_207:\n        /* \"#utility.yul\":5833:5836   */\n      0x00\n        /* \"#utility.yul\":5871:5877   */\n      dup3\n        /* \"#utility.yul\":5865:5878   */\n      mload\n        /* \"#utility.yul\":5887:5940   */\n      tag_666\n        /* \"#utility.yul\":5933:5939   */\n      dup2\n        /* \"#utility.yul\":5928:5931   */\n      dup5\n        /* \"#utility.yul\":5921:5925   */\n      0x20\n        /* \"#utility.yul\":5913:5919   */\n      dup8\n        /* \"#utility.yul\":5909:5926   */\n      add\n        /* \"#utility.yul\":5887:5940   */\n      tag_663\n      jump\t// in\n    tag_666:\n        /* \"#utility.yul\":5956:5972   */\n      swap2\n      swap1\n      swap2\n      add\n      swap3\n        /* \"#utility.yul\":5702:5978   */\n      swap2\n      pop\n      pop\n      jump\t// out\n        /* \"#utility.yul\":5983:7082   */\n    tag_216:\n        /* \"#utility.yul\":6111:6114   */\n      0x00\n        /* \"#utility.yul\":6140:6141   */\n      dup1\n        /* \"#utility.yul\":6173:6179   */\n      dup4\n        /* \"#utility.yul\":6167:6180   */\n      sload\n        /* \"#utility.yul\":6203:6206   */\n      dup2\n        /* \"#utility.yul\":6225:6226   */\n      0x01\n        /* \"#utility.yul\":6253:6262   */\n      dup3\n        /* \"#utility.yul\":6249:6251   */\n      dup2\n        /* \"#utility.yul\":6245:6263   */\n      shr\n        /* \"#utility.yul\":6235:6263   */\n      swap2\n      pop\n        /* \"#utility.yul\":6313:6315   */\n      dup1\n        /* \"#utility.yul\":6302:6311   */\n      dup4\n        /* \"#utility.yul\":6298:6316   */\n      and\n        /* \"#utility.yul\":6335:6353   */\n      dup1\n        /* \"#utility.yul\":6325:6386   */\n      tag_668\n      jumpi\n        /* \"#utility.yul\":6379:6383   */\n      0x7f\n        /* \"#utility.yul\":6371:6377   */\n      dup4\n        /* \"#utility.yul\":6367:6384   */\n      and\n        /* \"#utility.yul\":6357:6384   */\n      swap3\n      pop\n        /* \"#utility.yul\":6325:6386   */\n    tag_668:\n        /* \"#utility.yul\":6405:6407   */\n      0x20\n        /* \"#utility.yul\":6453:6455   */\n      dup1\n        /* \"#utility.yul\":6445:6451   */\n      dup5\n        /* \"#utility.yul\":6442:6456   */\n      lt\n        /* \"#utility.yul\":6422:6440   */\n      dup3\n        /* \"#utility.yul\":6419:6457   */\n      eq\n        /* \"#utility.yul\":6416:6581   */\n      iszero\n      tag_669\n      jumpi\n      shl(0xe0, 0x4e487b71)\n        /* \"#utility.yul\":6480:6513   */\n      dup7\n      mstore\n        /* \"#utility.yul\":6536:6540   */\n      0x22\n        /* \"#utility.yul\":6533:6534   */\n      0x04\n        /* \"#utility.yul\":6526:6541   */\n      mstore\n        /* \"#utility.yul\":6566:6570   */\n      0x24\n        /* \"#utility.yul\":6487:6490   */\n      dup7\n        /* \"#utility.yul\":6554:6571   */\n      revert\n        /* \"#utility.yul\":6416:6581   */\n    tag_669:\n        /* \"#utility.yul\":6597:6615   */\n      dup2\n        /* \"#utility.yul\":6624:6728   */\n      dup1\n      iszero\n      tag_671\n      jumpi\n        /* \"#utility.yul\":6742:6743   */\n      0x01\n        /* \"#utility.yul\":6737:7057   */\n      dup2\n      eq\n      tag_672\n      jumpi\n        /* \"#utility.yul\":6590:7057   */\n      jump(tag_670)\n        /* \"#utility.yul\":6624:6728   */\n    tag_671:\n      not(0xff)\n        /* \"#utility.yul\":6657:6681   */\n      dup7\n      and\n        /* \"#utility.yul\":6645:6682   */\n      dup10\n      mstore\n        /* \"#utility.yul\":6702:6718   */\n      dup5\n      dup10\n      add\n      swap7\n      pop\n        /* \"#utility.yul\":6624:6728   */\n      jump(tag_670)\n        /* \"#utility.yul\":6737:7057   */\n    tag_672:\n        /* \"#utility.yul\":15121:15122   */\n      0x00\n        /* \"#utility.yul\":15114:15128   */\n      dup11\n      dup2\n      mstore\n        /* \"#utility.yul\":15158:15162   */\n      0x20\n        /* \"#utility.yul\":15145:15163   */\n      swap1\n      keccak256\n        /* \"#utility.yul\":6832:6833   */\n      0x00\n        /* \"#utility.yul\":6846:7011   */\n    tag_675:\n        /* \"#utility.yul\":6860:6866   */\n      dup7\n        /* \"#utility.yul\":6857:6858   */\n      dup2\n        /* \"#utility.yul\":6854:6867   */\n      lt\n        /* \"#utility.yul\":6846:7011   */\n      iszero\n      tag_677\n      jumpi\n        /* \"#utility.yul\":6938:6952   */\n      dup2\n      sload\n        /* \"#utility.yul\":6925:6936   */\n      dup12\n      dup3\n      add\n        /* \"#utility.yul\":6918:6953   */\n      mstore\n        /* \"#utility.yul\":6981:6997   */\n      swap1\n      dup6\n      add\n      swap1\n        /* \"#utility.yul\":6875:6885   */\n      dup4\n      add\n        /* \"#utility.yul\":6846:7011   */\n      jump(tag_675)\n    tag_677:\n        /* \"#utility.yul\":6850:6853   */\n      pop\n      pop\n        /* \"#utility.yul\":7040:7046   */\n      dup5\n        /* \"#utility.yul\":7035:7038   */\n      dup10\n        /* \"#utility.yul\":7031:7047   */\n      add\n        /* \"#utility.yul\":7024:7047   */\n      swap7\n      pop\n        /* \"#utility.yul\":6590:7057   */\n    tag_670:\n      pop\n        /* \"#utility.yul\":7073:7076   */\n      swap5\n      swap9\n        /* \"#utility.yul\":5983:7082   */\n      swap8\n      pop\n      pop\n      pop\n      pop\n      pop\n      pop\n      pop\n      pop\n      jump\t// out\n        /* \"#utility.yul\":7295:7693   */\n    tag_133:\n      sub(shl(0xa0, 0x01), 0x01)\n        /* \"#utility.yul\":7494:7526   */\n      dup5\n      and\n        /* \"#utility.yul\":7476:7527   */\n      dup2\n      mstore\n        /* \"#utility.yul\":7563:7565   */\n      0x60\n        /* \"#utility.yul\":7558:7560   */\n      0x20\n        /* \"#utility.yul\":7543:7561   */\n      dup3\n      add\n        /* \"#utility.yul\":7536:7566   */\n      dup2\n      swap1\n      mstore\n      0x00\n      swap1\n        /* \"#utility.yul\":7583:7628   */\n      tag_680\n      swap1\n        /* \"#utility.yul\":7609:7627   */\n      dup4\n      add\n        /* \"#utility.yul\":7601:7607   */\n      dup6\n        /* \"#utility.yul\":7583:7628   */\n      tag_660\n      jump\t// in\n    tag_680:\n        /* \"#utility.yul\":7575:7628   */\n      swap1\n      pop\n        /* \"#utility.yul\":7678:7684   */\n      dup3\n        /* \"#utility.yul\":7671:7685   */\n      iszero\n        /* \"#utility.yul\":7664:7686   */\n      iszero\n        /* \"#utility.yul\":7659:7661   */\n      0x40\n        /* \"#utility.yul\":7648:7657   */\n      dup4\n        /* \"#utility.yul\":7644:7662   */\n      add\n        /* \"#utility.yul\":7637:7687   */\n      mstore\n        /* \"#utility.yul\":7295:7693   */\n      swap5\n      swap4\n      pop\n      pop\n      pop\n      pop\n      jump\t// out\n        /* \"#utility.yul\":7698:8169   */\n    tag_204:\n      sub(shl(0xa0, 0x01), 0x01)\n        /* \"#utility.yul\":7925:7957   */\n      dup6\n      and\n        /* \"#utility.yul\":7907:7958   */\n      dup2\n      mstore\n        /* \"#utility.yul\":7994:7997   */\n      0x80\n        /* \"#utility.yul\":7989:7991   */\n      0x20\n        /* \"#utility.yul\":7974:7992   */\n      dup3\n      add\n        /* \"#utility.yul\":7967:7998   */\n      dup2\n      swap1\n      mstore\n      0x00\n      swap1\n        /* \"#utility.yul\":8015:8061   */\n      tag_682\n      swap1\n        /* \"#utility.yul\":8041:8060   */\n      dup4\n      add\n        /* \"#utility.yul\":8033:8039   */\n      dup7\n        /* \"#utility.yul\":8015:8061   */\n      tag_660\n      jump\t// in\n    tag_682:\n        /* \"#utility.yul\":8092:8094   */\n      0x40\n        /* \"#utility.yul\":8077:8095   */\n      dup4\n      add\n        /* \"#utility.yul\":8070:8104   */\n      swap5\n      swap1\n      swap5\n      mstore\n      pop\n        /* \"#utility.yul\":8147:8161   */\n      swap1\n      iszero\n        /* \"#utility.yul\":8140:8162   */\n      iszero\n        /* \"#utility.yul\":8135:8137   */\n      0x60\n        /* \"#utility.yul\":8120:8138   */\n      swap1\n      swap2\n      add\n        /* \"#utility.yul\":8113:8163   */\n      mstore\n        /* \"#utility.yul\":8007:8061   */\n      swap3\n        /* \"#utility.yul\":7698:8169   */\n      swap2\n      pop\n      pop\n      jump\t// out\n        /* \"#utility.yul\":8174:8635   */\n    tag_198:\n      sub(shl(0xa0, 0x01), 0x01)\n        /* \"#utility.yul\":8407:8439   */\n      dup6\n      and\n        /* \"#utility.yul\":8389:8440   */\n      dup2\n      mstore\n        /* \"#utility.yul\":8476:8479   */\n      0x80\n        /* \"#utility.yul\":8471:8473   */\n      0x20\n        /* \"#utility.yul\":8456:8474   */\n      dup3\n      add\n        /* \"#utility.yul\":8449:8480   */\n      dup2\n      swap1\n      mstore\n      0x00\n      swap1\n        /* \"#utility.yul\":8497:8543   */\n      tag_684\n      swap1\n        /* \"#utility.yul\":8523:8542   */\n      dup4\n      add\n        /* \"#utility.yul\":8515:8521   */\n      dup7\n        /* \"#utility.yul\":8497:8543   */\n      tag_660\n      jump\t// in\n    tag_684:\n        /* \"#utility.yul\":8574:8576   */\n      0x40\n        /* \"#utility.yul\":8559:8577   */\n      dup4\n      add\n        /* \"#utility.yul\":8552:8586   */\n      swap5\n      swap1\n      swap5\n      mstore\n      pop\n        /* \"#utility.yul\":8617:8619   */\n      0x60\n        /* \"#utility.yul\":8602:8620   */\n      add\n        /* \"#utility.yul\":8595:8629   */\n      mstore\n        /* \"#utility.yul\":8489:8543   */\n      swap3\n        /* \"#utility.yul\":8174:8635   */\n      swap2\n      pop\n      pop\n      jump\t// out\n        /* \"#utility.yul\":8640:9443   */\n    tag_75:\n        /* \"#utility.yul\":8802:8806   */\n      0x00\n        /* \"#utility.yul\":8831:8833   */\n      0x20\n        /* \"#utility.yul\":8871:8873   */\n      dup1\n        /* \"#utility.yul\":8860:8869   */\n      dup4\n        /* \"#utility.yul\":8856:8874   */\n      add\n        /* \"#utility.yul\":8901:8903   */\n      dup2\n        /* \"#utility.yul\":8890:8899   */\n      dup5\n        /* \"#utility.yul\":8883:8904   */\n      mstore\n        /* \"#utility.yul\":8924:8930   */\n      dup1\n        /* \"#utility.yul\":8959:8965   */\n      dup6\n        /* \"#utility.yul\":8953:8966   */\n      mload\n        /* \"#utility.yul\":8990:8996   */\n      dup1\n        /* \"#utility.yul\":8982:8988   */\n      dup4\n        /* \"#utility.yul\":8975:8997   */\n      mstore\n        /* \"#utility.yul\":9028:9030   */\n      0x40\n        /* \"#utility.yul\":9017:9026   */\n      dup7\n        /* \"#utility.yul\":9013:9031   */\n      add\n        /* \"#utility.yul\":9006:9031   */\n      swap2\n      pop\n        /* \"#utility.yul\":9090:9092   */\n      0x40\n        /* \"#utility.yul\":9080:9086   */\n      dup2\n        /* \"#utility.yul\":9077:9078   */\n      0x05\n        /* \"#utility.yul\":9073:9087   */\n      shl\n        /* \"#utility.yul\":9062:9071   */\n      dup8\n        /* \"#utility.yul\":9058:9088   */\n      add\n        /* \"#utility.yul\":9054:9093   */\n      add\n        /* \"#utility.yul\":9040:9093   */\n      swap3\n      pop\n        /* \"#utility.yul\":9128:9130   */\n      dup4\n        /* \"#utility.yul\":9120:9126   */\n      dup8\n        /* \"#utility.yul\":9116:9131   */\n      add\n        /* \"#utility.yul\":9149:9150   */\n      0x00\n        /* \"#utility.yul\":9159:9414   */\n    tag_686:\n        /* \"#utility.yul\":9173:9179   */\n      dup3\n        /* \"#utility.yul\":9170:9171   */\n      dup2\n        /* \"#utility.yul\":9167:9180   */\n      lt\n        /* \"#utility.yul\":9159:9414   */\n      iszero\n      tag_688\n      jumpi\n        /* \"#utility.yul\":9266:9268   */\n      0x3f\n        /* \"#utility.yul\":9262:9269   */\n      not\n        /* \"#utility.yul\":9250:9259   */\n      dup9\n        /* \"#utility.yul\":9242:9248   */\n      dup7\n        /* \"#utility.yul\":9238:9260   */\n      sub\n        /* \"#utility.yul\":9234:9270   */\n      add\n        /* \"#utility.yul\":9229:9232   */\n      dup5\n        /* \"#utility.yul\":9222:9271   */\n      mstore\n        /* \"#utility.yul\":9294:9334   */\n      tag_689\n        /* \"#utility.yul\":9327:9333   */\n      dup6\n        /* \"#utility.yul\":9318:9324   */\n      dup4\n        /* \"#utility.yul\":9312:9325   */\n      mload\n        /* \"#utility.yul\":9294:9334   */\n      tag_660\n      jump\t// in\n    tag_689:\n        /* \"#utility.yul\":9284:9334   */\n      swap5\n      pop\n        /* \"#utility.yul\":9392:9404   */\n      swap3\n      dup6\n      add\n      swap3\n        /* \"#utility.yul\":9357:9372   */\n      swap1\n      dup6\n      add\n      swap1\n        /* \"#utility.yul\":9195:9196   */\n      0x01\n        /* \"#utility.yul\":9188:9197   */\n      add\n        /* \"#utility.yul\":9159:9414   */\n      jump(tag_686)\n    tag_688:\n      pop\n        /* \"#utility.yul\":9431:9437   */\n      swap3\n      swap8\n        /* \"#utility.yul\":8640:9443   */\n      swap7\n      pop\n      pop\n      pop\n      pop\n      pop\n      pop\n      pop\n      jump\t// out\n        /* \"#utility.yul\":9822:10042   */\n    tag_99:\n        /* \"#utility.yul\":9971:9973   */\n      0x20\n        /* \"#utility.yul\":9960:9969   */\n      dup2\n        /* \"#utility.yul\":9953:9974   */\n      mstore\n        /* \"#utility.yul\":9934:9938   */\n      0x00\n        /* \"#utility.yul\":9991:10036   */\n      tag_614\n        /* \"#utility.yul\":10032:10034   */\n      0x20\n        /* \"#utility.yul\":10021:10030   */\n      dup4\n        /* \"#utility.yul\":10017:10035   */\n      add\n        /* \"#utility.yul\":10009:10015   */\n      dup5\n        /* \"#utility.yul\":9991:10036   */\n      tag_660\n      jump\t// in\n        /* \"#utility.yul\":10047:10492   */\n    tag_164:\n        /* \"#utility.yul\":10274:10277   */\n      0x80\n        /* \"#utility.yul\":10263:10272   */\n      dup2\n        /* \"#utility.yul\":10256:10278   */\n      mstore\n        /* \"#utility.yul\":10237:10241   */\n      0x00\n        /* \"#utility.yul\":10295:10341   */\n      tag_695\n        /* \"#utility.yul\":10336:10339   */\n      0x80\n        /* \"#utility.yul\":10325:10334   */\n      dup4\n        /* \"#utility.yul\":10321:10340   */\n      add\n        /* \"#utility.yul\":10313:10319   */\n      dup8\n        /* \"#utility.yul\":10295:10341   */\n      tag_660\n      jump\t// in\n    tag_695:\n        /* \"#utility.yul\":10372:10374   */\n      0x20\n        /* \"#utility.yul\":10357:10375   */\n      dup4\n      add\n        /* \"#utility.yul\":10350:10384   */\n      swap6\n      swap1\n      swap6\n      mstore\n      pop\n        /* \"#utility.yul\":10415:10417   */\n      0x40\n        /* \"#utility.yul\":10400:10418   */\n      dup2\n      add\n        /* \"#utility.yul\":10393:10427   */\n      swap3\n      swap1\n      swap3\n      mstore\n        /* \"#utility.yul\":10470:10484   */\n      iszero\n        /* \"#utility.yul\":10463:10485   */\n      iszero\n        /* \"#utility.yul\":10458:10460   */\n      0x60\n        /* \"#utility.yul\":10443:10461   */\n      swap1\n      swap2\n      add\n        /* \"#utility.yul\":10436:10486   */\n      mstore\n        /* \"#utility.yul\":10287:10341   */\n      swap2\n        /* \"#utility.yul\":10047:10492   */\n      swap1\n      pop\n      jump\t// out\n        /* \"#utility.yul\":10497:11342   */\n    tag_158:\n        /* \"#utility.yul\":10848:10851   */\n      0xe0\n        /* \"#utility.yul\":10837:10846   */\n      dup2\n        /* \"#utility.yul\":10830:10852   */\n      mstore\n        /* \"#utility.yul\":10811:10815   */\n      0x00\n        /* \"#utility.yul\":10875:10921   */\n      tag_697\n        /* \"#utility.yul\":10916:10919   */\n      0xe0\n        /* \"#utility.yul\":10905:10914   */\n      dup4\n        /* \"#utility.yul\":10901:10920   */\n      add\n        /* \"#utility.yul\":10893:10899   */\n      dup11\n        /* \"#utility.yul\":10875:10921   */\n      tag_660\n      jump\t// in\n    tag_697:\n        /* \"#utility.yul\":10957:10963   */\n      dup9\n        /* \"#utility.yul\":10952:10954   */\n      0x20\n        /* \"#utility.yul\":10941:10950   */\n      dup5\n        /* \"#utility.yul\":10937:10955   */\n      add\n        /* \"#utility.yul\":10930:10964   */\n      mstore\n        /* \"#utility.yul\":11000:11006   */\n      dup8\n        /* \"#utility.yul\":10995:10997   */\n      0x40\n        /* \"#utility.yul\":10984:10993   */\n      dup5\n        /* \"#utility.yul\":10980:10998   */\n      add\n        /* \"#utility.yul\":10973:11007   */\n      mstore\n        /* \"#utility.yul\":11057:11063   */\n      dup7\n        /* \"#utility.yul\":11050:11064   */\n      iszero\n        /* \"#utility.yul\":11043:11065   */\n      iszero\n        /* \"#utility.yul\":11038:11040   */\n      0x60\n        /* \"#utility.yul\":11027:11036   */\n      dup5\n        /* \"#utility.yul\":11023:11041   */\n      add\n        /* \"#utility.yul\":11016:11066   */\n      mstore\n        /* \"#utility.yul\":11115:11124   */\n      dup3\n        /* \"#utility.yul\":11107:11113   */\n      dup2\n        /* \"#utility.yul\":11103:11125   */\n      sub\n        /* \"#utility.yul\":11097:11100   */\n      0x80\n        /* \"#utility.yul\":11086:11095   */\n      dup5\n        /* \"#utility.yul\":11082:11101   */\n      add\n        /* \"#utility.yul\":11075:11126   */\n      mstore\n        /* \"#utility.yul\":11149:11182   */\n      tag_698\n        /* \"#utility.yul\":11175:11181   */\n      dup2\n        /* \"#utility.yul\":11167:11173   */\n      dup8\n        /* \"#utility.yul\":11149:11182   */\n      tag_660\n      jump\t// in\n    tag_698:\n        /* \"#utility.yul\":11135:11182   */\n      swap1\n      pop\n        /* \"#utility.yul\":11231:11240   */\n      dup3\n        /* \"#utility.yul\":11223:11229   */\n      dup2\n        /* \"#utility.yul\":11219:11241   */\n      sub\n        /* \"#utility.yul\":11213:11216   */\n      0xa0\n        /* \"#utility.yul\":11202:11211   */\n      dup5\n        /* \"#utility.yul\":11198:11217   */\n      add\n        /* \"#utility.yul\":11191:11242   */\n      mstore\n        /* \"#utility.yul\":11259:11292   */\n      tag_699\n        /* \"#utility.yul\":11285:11291   */\n      dup2\n        /* \"#utility.yul\":11277:11283   */\n      dup7\n        /* \"#utility.yul\":11259:11292   */\n      tag_660\n      jump\t// in\n    tag_699:\n        /* \"#utility.yul\":11251:11292   */\n      swap2\n      pop\n      pop\n        /* \"#utility.yul\":11329:11335   */\n      dup3\n        /* \"#utility.yul\":11323:11326   */\n      0xc0\n        /* \"#utility.yul\":11312:11321   */\n      dup4\n        /* \"#utility.yul\":11308:11327   */\n      add\n        /* \"#utility.yul\":11301:11336   */\n      mstore\n        /* \"#utility.yul\":10497:11342   */\n      swap9\n      swap8\n      pop\n      pop\n      pop\n      pop\n      pop\n      pop\n      pop\n      pop\n      jump\t// out\n        /* \"#utility.yul\":11701:12048   */\n    tag_396:\n        /* \"#utility.yul\":11903:11905   */\n      0x20\n        /* \"#utility.yul\":11885:11906   */\n      dup1\n      dup3\n      mstore\n        /* \"#utility.yul\":11942:11944   */\n      0x17\n        /* \"#utility.yul\":11922:11940   */\n      swap1\n      dup3\n      add\n        /* \"#utility.yul\":11915:11945   */\n      mstore\n      shl(0x4a, 0x115c9c9bdc8e88125b9d985b1a59081c185cdcdddbdc99)\n        /* \"#utility.yul\":11976:11978   */\n      0x40\n        /* \"#utility.yul\":11961:11979   */\n      dup3\n      add\n        /* \"#utility.yul\":11954:12007   */\n      mstore\n        /* \"#utility.yul\":12039:12041   */\n      0x60\n        /* \"#utility.yul\":12024:12042   */\n      add\n      swap1\n        /* \"#utility.yul\":11701:12048   */\n      jump\t// out\n        /* \"#utility.yul\":12053:12402   */\n    tag_392:\n        /* \"#utility.yul\":12255:12257   */\n      0x20\n        /* \"#utility.yul\":12237:12258   */\n      dup1\n      dup3\n      mstore\n        /* \"#utility.yul\":12294:12296   */\n      0x19\n        /* \"#utility.yul\":12274:12292   */\n      swap1\n      dup3\n      add\n        /* \"#utility.yul\":12267:12297   */\n      mstore\n      shl(0x3a, 0x115c9c9bdc8e88155cd95c88191bd95cdb89dd08195e1a5cdd)\n        /* \"#utility.yul\":12328:12330   */\n      0x40\n        /* \"#utility.yul\":12313:12331   */\n      dup3\n      add\n        /* \"#utility.yul\":12306:12361   */\n      mstore\n        /* \"#utility.yul\":12393:12395   */\n      0x60\n        /* \"#utility.yul\":12378:12396   */\n      add\n      swap1\n        /* \"#utility.yul\":12053:12402   */\n      jump\t// out\n        /* \"#utility.yul\":13121:13476   */\n    tag_219:\n        /* \"#utility.yul\":13323:13325   */\n      0x20\n        /* \"#utility.yul\":13305:13326   */\n      dup1\n      dup3\n      mstore\n        /* \"#utility.yul\":13362:13364   */\n      0x1f\n        /* \"#utility.yul\":13342:13360   */\n      swap1\n      dup3\n      add\n        /* \"#utility.yul\":13335:13365   */\n      mstore\n        /* \"#utility.yul\":13401:13434   */\n      0x6572726f723a2074686973206973206e6f7420796f75722070726f6475637400\n        /* \"#utility.yul\":13396:13398   */\n      0x40\n        /* \"#utility.yul\":13381:13399   */\n      dup3\n      add\n        /* \"#utility.yul\":13374:13435   */\n      mstore\n        /* \"#utility.yul\":13467:13469   */\n      0x60\n        /* \"#utility.yul\":13452:13470   */\n      add\n      swap1\n        /* \"#utility.yul\":13121:13476   */\n      jump\t// out\n        /* \"#utility.yul\":13826:14179   */\n    tag_388:\n        /* \"#utility.yul\":14028:14030   */\n      0x20\n        /* \"#utility.yul\":14010:14031   */\n      dup1\n      dup3\n      mstore\n        /* \"#utility.yul\":14067:14069   */\n      0x1d\n        /* \"#utility.yul\":14047:14065   */\n      swap1\n      dup3\n      add\n        /* \"#utility.yul\":14040:14070   */\n      mstore\n        /* \"#utility.yul\":14106:14137   */\n      0x4572726f723a20596f752061726520616c7265616479206c6f67676564000000\n        /* \"#utility.yul\":14101:14103   */\n      0x40\n        /* \"#utility.yul\":14086:14104   */\n      dup3\n      add\n        /* \"#utility.yul\":14079:14138   */\n      mstore\n        /* \"#utility.yul\":14170:14172   */\n      0x60\n        /* \"#utility.yul\":14155:14173   */\n      add\n      swap1\n        /* \"#utility.yul\":13826:14179   */\n      jump\t// out\n        /* \"#utility.yul\":14768:15043   */\n    tag_610:\n        /* \"#utility.yul\":14839:14841   */\n      0x40\n        /* \"#utility.yul\":14833:14842   */\n      mload\n        /* \"#utility.yul\":14904:14906   */\n      0x1f\n        /* \"#utility.yul\":14885:14898   */\n      dup3\n      add\n      not(0x1f)\n        /* \"#utility.yul\":14881:14908   */\n      and\n        /* \"#utility.yul\":14869:14909   */\n      dup2\n      add\n      sub(shl(0x40, 0x01), 0x01)\n        /* \"#utility.yul\":14924:14958   */\n      dup2\n      gt\n        /* \"#utility.yul\":14960:14982   */\n      dup3\n      dup3\n      lt\n        /* \"#utility.yul\":14921:14983   */\n      or\n        /* \"#utility.yul\":14918:15006   */\n      iszero\n      tag_712\n      jumpi\n        /* \"#utility.yul\":14986:15004   */\n      tag_712\n      tag_608\n      jump\t// in\n    tag_712:\n        /* \"#utility.yul\":15022:15024   */\n      0x40\n        /* \"#utility.yul\":15015:15037   */\n      mstore\n        /* \"#utility.yul\":14768:15043   */\n      swap2\n      swap1\n      pop\n      jump\t// out\n        /* \"#utility.yul\":15174:15302   */\n    tag_490:\n        /* \"#utility.yul\":15214:15217   */\n      0x00\n        /* \"#utility.yul\":15245:15246   */\n      dup3\n        /* \"#utility.yul\":15241:15247   */\n      not\n        /* \"#utility.yul\":15238:15239   */\n      dup3\n        /* \"#utility.yul\":15235:15248   */\n      gt\n        /* \"#utility.yul\":15232:15271   */\n      iszero\n      tag_716\n      jumpi\n        /* \"#utility.yul\":15251:15269   */\n      tag_716\n      tag_717\n      jump\t// in\n    tag_716:\n      pop\n        /* \"#utility.yul\":15287:15296   */\n      add\n      swap1\n        /* \"#utility.yul\":15174:15302   */\n      jump\t// out\n        /* \"#utility.yul\":15307:15524   */\n    tag_494:\n        /* \"#utility.yul\":15347:15348   */\n      0x00\n        /* \"#utility.yul\":15373:15374   */\n      dup3\n        /* \"#utility.yul\":15363:15495   */\n      tag_719\n      jumpi\n        /* \"#utility.yul\":15417:15427   */\n      0x4e487b71\n        /* \"#utility.yul\":15412:15415   */\n      0xe0\n        /* \"#utility.yul\":15408:15428   */\n      shl\n        /* \"#utility.yul\":15405:15406   */\n      0x00\n        /* \"#utility.yul\":15398:15429   */\n      mstore\n        /* \"#utility.yul\":15452:15456   */\n      0x12\n        /* \"#utility.yul\":15449:15450   */\n      0x04\n        /* \"#utility.yul\":15442:15457   */\n      mstore\n        /* \"#utility.yul\":15480:15484   */\n      0x24\n        /* \"#utility.yul\":15477:15478   */\n      0x00\n        /* \"#utility.yul\":15470:15485   */\n      revert\n        /* \"#utility.yul\":15363:15495   */\n    tag_719:\n      pop\n        /* \"#utility.yul\":15509:15518   */\n      div\n      swap1\n        /* \"#utility.yul\":15307:15524   */\n      jump\t// out\n        /* \"#utility.yul\":15529:15697   */\n    tag_356:\n        /* \"#utility.yul\":15569:15576   */\n      0x00\n        /* \"#utility.yul\":15635:15636   */\n      dup2\n        /* \"#utility.yul\":15631:15632   */\n      0x00\n        /* \"#utility.yul\":15627:15633   */\n      not\n        /* \"#utility.yul\":15623:15637   */\n      div\n        /* \"#utility.yul\":15620:15621   */\n      dup4\n        /* \"#utility.yul\":15617:15638   */\n      gt\n        /* \"#utility.yul\":15612:15613   */\n      dup3\n        /* \"#utility.yul\":15605:15614   */\n      iszero\n        /* \"#utility.yul\":15598:15615   */\n      iszero\n        /* \"#utility.yul\":15594:15639   */\n      and\n        /* \"#utility.yul\":15591:15662   */\n      iszero\n      tag_722\n      jumpi\n        /* \"#utility.yul\":15642:15660   */\n      tag_722\n      tag_717\n      jump\t// in\n    tag_722:\n      pop\n        /* \"#utility.yul\":15682:15691   */\n      mul\n      swap1\n        /* \"#utility.yul\":15529:15697   */\n      jump\t// out\n        /* \"#utility.yul\":15702:15960   */\n    tag_663:\n        /* \"#utility.yul\":15774:15775   */\n      0x00\n        /* \"#utility.yul\":15784:15897   */\n    tag_724:\n        /* \"#utility.yul\":15798:15804   */\n      dup4\n        /* \"#utility.yul\":15795:15796   */\n      dup2\n        /* \"#utility.yul\":15792:15805   */\n      lt\n        /* \"#utility.yul\":15784:15897   */\n      iszero\n      tag_726\n      jumpi\n        /* \"#utility.yul\":15874:15885   */\n      dup2\n      dup2\n      add\n        /* \"#utility.yul\":15868:15886   */\n      mload\n        /* \"#utility.yul\":15855:15866   */\n      dup4\n      dup3\n      add\n        /* \"#utility.yul\":15848:15887   */\n      mstore\n        /* \"#utility.yul\":15820:15822   */\n      0x20\n        /* \"#utility.yul\":15813:15823   */\n      add\n        /* \"#utility.yul\":15784:15897   */\n      jump(tag_724)\n    tag_726:\n        /* \"#utility.yul\":15915:15921   */\n      dup4\n        /* \"#utility.yul\":15912:15913   */\n      dup2\n        /* \"#utility.yul\":15909:15922   */\n      gt\n        /* \"#utility.yul\":15906:15954   */\n      iszero\n      tag_528\n      jumpi\n      pop\n      pop\n        /* \"#utility.yul\":15950:15951   */\n      0x00\n        /* \"#utility.yul\":15932:15948   */\n      swap2\n      add\n        /* \"#utility.yul\":15925:15952   */\n      mstore\n        /* \"#utility.yul\":15702:15960   */\n      jump\t// out\n        /* \"#utility.yul\":15965:16345   */\n    tag_264:\n        /* \"#utility.yul\":16044:16045   */\n      0x01\n        /* \"#utility.yul\":16040:16052   */\n      dup2\n      dup2\n      shr\n      swap1\n        /* \"#utility.yul\":16087:16099   */\n      dup3\n      and\n      dup1\n        /* \"#utility.yul\":16108:16169   */\n      tag_729\n      jumpi\n        /* \"#utility.yul\":16162:16166   */\n      0x7f\n        /* \"#utility.yul\":16154:16160   */\n      dup3\n        /* \"#utility.yul\":16150:16167   */\n      and\n        /* \"#utility.yul\":16140:16167   */\n      swap2\n      pop\n        /* \"#utility.yul\":16108:16169   */\n    tag_729:\n        /* \"#utility.yul\":16215:16217   */\n      0x20\n        /* \"#utility.yul\":16207:16213   */\n      dup3\n        /* \"#utility.yul\":16204:16218   */\n      lt\n        /* \"#utility.yul\":16184:16202   */\n      dup2\n        /* \"#utility.yul\":16181:16219   */\n      eq\n        /* \"#utility.yul\":16178:16339   */\n      iszero\n      tag_730\n      jumpi\n        /* \"#utility.yul\":16261:16271   */\n      0x4e487b71\n        /* \"#utility.yul\":16256:16259   */\n      0xe0\n        /* \"#utility.yul\":16252:16272   */\n      shl\n        /* \"#utility.yul\":16249:16250   */\n      0x00\n        /* \"#utility.yul\":16242:16273   */\n      mstore\n        /* \"#utility.yul\":16296:16300   */\n      0x22\n        /* \"#utility.yul\":16293:16294   */\n      0x04\n        /* \"#utility.yul\":16286:16301   */\n      mstore\n        /* \"#utility.yul\":16324:16328   */\n      0x24\n        /* \"#utility.yul\":16321:16322   */\n      0x00\n        /* \"#utility.yul\":16314:16329   */\n      revert\n        /* \"#utility.yul\":16178:16339   */\n    tag_730:\n      pop\n        /* \"#utility.yul\":15965:16345   */\n      swap2\n      swap1\n      pop\n      jump\t// out\n        /* \"#utility.yul\":16350:16485   */\n    tag_290:\n        /* \"#utility.yul\":16389:16392   */\n      0x00\n      not(0x00)\n        /* \"#utility.yul\":16410:16427   */\n      dup3\n      eq\n        /* \"#utility.yul\":16407:16450   */\n      iszero\n      tag_733\n      jumpi\n        /* \"#utility.yul\":16430:16448   */\n      tag_733\n      tag_717\n      jump\t// in\n    tag_733:\n      pop\n        /* \"#utility.yul\":16477:16478   */\n      0x01\n        /* \"#utility.yul\":16466:16479   */\n      add\n      swap1\n        /* \"#utility.yul\":16350:16485   */\n      jump\t// out\n        /* \"#utility.yul\":16490:16617   */\n    tag_717:\n        /* \"#utility.yul\":16551:16561   */\n      0x4e487b71\n        /* \"#utility.yul\":16546:16549   */\n      0xe0\n        /* \"#utility.yul\":16542:16562   */\n      shl\n        /* \"#utility.yul\":16539:16540   */\n      0x00\n        /* \"#utility.yul\":16532:16563   */\n      mstore\n        /* \"#utility.yul\":16582:16586   */\n      0x11\n        /* \"#utility.yul\":16579:16580   */\n      0x04\n        /* \"#utility.yul\":16572:16587   */\n      mstore\n        /* \"#utility.yul\":16606:16610   */\n      0x24\n        /* \"#utility.yul\":16603:16604   */\n      0x00\n        /* \"#utility.yul\":16596:16611   */\n      revert\n        /* \"#utility.yul\":16622:16749   */\n    tag_213:\n        /* \"#utility.yul\":16683:16693   */\n      0x4e487b71\n        /* \"#utility.yul\":16678:16681   */\n      0xe0\n        /* \"#utility.yul\":16674:16694   */\n      shl\n        /* \"#utility.yul\":16671:16672   */\n      0x00\n        /* \"#utility.yul\":16664:16695   */\n      mstore\n        /* \"#utility.yul\":16714:16718   */\n      0x32\n        /* \"#utility.yul\":16711:16712   */\n      0x04\n        /* \"#utility.yul\":16704:16719   */\n      mstore\n        /* \"#utility.yul\":16738:16742   */\n      0x24\n        /* \"#utility.yul\":16735:16736   */\n      0x00\n        /* \"#utility.yul\":16728:16743   */\n      revert\n        /* \"#utility.yul\":16754:16881   */\n    tag_608:\n        /* \"#utility.yul\":16815:16825   */\n      0x4e487b71\n        /* \"#utility.yul\":16810:16813   */\n      0xe0\n        /* \"#utility.yul\":16806:16826   */\n      shl\n        /* \"#utility.yul\":16803:16804   */\n      0x00\n        /* \"#utility.yul\":16796:16827   */\n      mstore\n        /* \"#utility.yul\":16846:16850   */\n      0x41\n        /* \"#utility.yul\":16843:16844   */\n      0x04\n        /* \"#utility.yul\":16836:16851   */\n      mstore\n        /* \"#utility.yul\":16870:16874   */\n      0x24\n        /* \"#utility.yul\":16867:16868   */\n      0x00\n        /* \"#utility.yul\":16860:16875   */\n      revert\n\n    auxdata: 0xa2646970667358221220cb2098dba0ad073b0d553a58a8777668554532d75253b5c6cd61dba4e6ce3df064736f6c63430008070033\n}\n",
				"bytecode": {
					"linkReferences": {},
					"object": "60806040526000600d553480156200001657600080fd5b50735412e9b0e4ef9d1546df79ae907eee34bdcf300460016040516200004690632132b2b960e11b815260040190565b908152604080516020928190038301812080546001600160a01b0319166001600160a01b03959095169490941790935561012083018152600460e08401908152632132b2b960e11b6101008501528352805180820190915260018152601960f91b8183015290820190620000ba906200075a565b81526003602080830191909152600060408084018290528051808201825260018152603160f81b818501526060850152805180820190915260068152654d6f73636f7760d01b81840152608084015260a0909201829052735412e9b0e4ef9d1546df79ae907eee34bdcf30048252908152815180516000805160206200395383398151915292620001509284929101906200078c565b50602082810151600183015560408301516002830155606083015160038301805460ff1916911515919091179055608083015180516200019792600485019201906200078c565b5060a08201518051620001b59160058401916020909101906200078c565b5060c091909101516006909101556000602081905260028054600181018255915260008051602062003953833981519152805460008051602062003933833981519152909201916200020790620008f4565b620002149291906200081b565b507349c364fedad517382ee5a776d3071f11cfde4c5c6001604051620002479066141c9bd91d58dd60ca1b815260070190565b908152604080516020928190038301812080546001600160a01b0319166001600160a01b03959095169490941790935561012083018152600760e0840190815266141c9bd91d58dd60ca1b6101008501528352805180820190915260018152601960f91b8183015290820190620002be906200075a565b81526003602080830191909152600060408084018290528051808201825260018152601960f91b8185015260608501528051808201909152600a8152695065746572736275726760b01b81840152608084015260a09092018290527349c364fedad517382ee5a776d3071f11cfde4c5c8252908152815180516000805160206200391383398151915292620003589284929101906200078c565b50602082810151600183015560408301516002830155606083015160038301805460ff1916911515919091179055608083015180516200039f92600485019201906200078c565b5060a08201518051620003bd9160058401916020909101906200078c565b5060c091909101516006909101556000602081905260028054600181018255915260008051602062003913833981519152805460008051602062003933833981519152909201916200040f90620008f4565b6200041c9291906200081b565b5073ada67460cf329d12c1ed898710cc8da5d40d802560056040516200044c90635065746160e01b815260040190565b908152604080516020928190038301812080546001600160a01b0319166001600160a01b03959095169490941790935560c083018152600460808401908152635065746160e01b60a08501528352805180820190915260018152603360f81b8183015290820190620004be906200075a565b815260026020808301919091526000604090920182905273ada67460cf329d12c1ed898710cc8da5d40d802590915260048152815180517f7276c473c3031176624ead5b5cbfdea5cdbc158289c185f75f825e40aed0bb3792620005279284929101906200078c565b5060208281015160018381019190915560408085015160028501556060909401516003909301805460ff19169315159390931790925560068054928301815560005282518084019093526004808452635065746160e01b93909101928352620005b6927ff652222313e28459528d920b65115c16c04f3efc82aaedc97be59f3f377c0d3f90920191906200078c565b50600780546001810182556000919091527fa66cc928b5edb82af9bd49922954155ab7b0942694bea4ce44661d9a8736c6880180546001600160a01b03191673ada67460cf329d12c1ed898710cc8da5d40d802517905560408051608081018252735412e9b0e4ef9d1546df79ae907eee34bdcf30048152815180830183526003815262185cd960ea1b60208281019190915282015268056bc75e2d6310000081830152600d54606082015290516008906200067d90644170706c6560d81b815260050190565b90815260405160209181900382019020825181546001600160a01b0319166001600160a01b039091161781558282015180519192620006c5926001850192909101906200078c565b5060408281015160028301556060909201516003909101556009805460018101825560009190915281518083019092526005808352644170706c6560d81b60209093019283526200073c927f6e1540171b6c0c960b71a7020d9f60077f6af931a8bbf590da0223dacf75c7af90920191906200078c565b50600d80549060006200074f8362000931565b91905055506200095b565b6000816040516020016200076f9190620008b6565b604051602081830303815290604052805190602001209050919050565b8280546200079a90620008f4565b90600052602060002090601f016020900481019282620007be576000855562000809565b82601f10620007d957805160ff191683800117855562000809565b8280016001018555821562000809579182015b8281111562000809578251825591602001919060010190620007ec565b50620008179291506200089f565b5090565b8280546200082990620008f4565b90600052602060002090601f0160209004810192826200084d576000855562000809565b82601f1062000860578054855562000809565b828001600101855582156200080957600052602060002091601f016020900482015b828111156200080957825482559160010191906001019062000882565b5b80821115620008175760008155600101620008a0565b6000825160005b81811015620008d95760208186018101518583015201620008bd565b81811115620008e9576000828501525b509190910192915050565b600181811c908216806200090957607f821691505b602082108114156200092b57634e487b7160e01b600052602260045260246000fd5b50919050565b60006000198214156200095457634e487b7160e01b600052601160045260246000fd5b5060010190565b612fa8806200096b6000396000f3fe6080604052600436106101895760003560e01c8063033ff0b81461018e57806304ac16f6146101c15780630c72b1ec146101e35780630e1c81b2146101f6578063146dc6ed146102165780631bbe970a146102295780631e279a37146102825780631f8daac8146102aa57806329e795f3146102cc5780632ccdef7c146102ec5780633b84aedc146102ff578063521b91701461032f57806355149fd51461034f5780635828c5841461037c5780635bbc9a3f1461039c5780635bdb63fa146103bc5780636ba44d3c146103dc5780636c05dd1d146103fc5780637033a3821461041c57806373b62bd01461042f578063775eb9e61461045e578063803103f11461047e578063845952a81461049e57806387048043146104be5780638e23cb40146104d1578063961865f014610504578063a985036d14610534578063a9f9482b14610554578063bbd4336314610574578063c4957fa014610594578063cc21c188146105d5578063d22d9020146105f5578063d68cf8c114610615578063dce3915114610645575b600080fd5b34801561019a57600080fd5b506101ae6101a9366004612830565b610675565b6040519081526020015b60405180910390f35b3480156101cd57600080fd5b506101e16101dc366004612830565b6106bc565b005b6101e16101f1366004612a71565b61070e565b34801561020257600080fd5b506101e16102113660046127da565b610879565b6101e1610224366004612830565b6109f5565b34801561023557600080fd5b5061026a610244366004612830565b80516020818301810180516005825292820191909301209152546001600160a01b031681565b6040516001600160a01b0390911681526020016101b8565b34801561028e57600080fd5b506101ae61029d3660046127b8565b6001600160a01b03163190565b3480156102b657600080fd5b506102bf610b34565b6040516101b89190612c4b565b3480156102d857600080fd5b506101e16102e7366004612864565b610c0d565b6101e16102fa366004612a71565b610d71565b34801561030b57600080fd5b5061031f61031a366004612830565b610e97565b60405190151581526020016101b8565b34801561033b57600080fd5b506101e161034a366004612830565b610ee1565b34801561035b57600080fd5b5061036f61036a366004612830565b610ef7565b6040516101b89190612cad565b34801561038857600080fd5b506101e1610397366004612830565b610fc7565b3480156103a857600080fd5b5061031f6103b7366004612830565b611206565b3480156103c857600080fd5b506101ae6103d7366004612830565b61121c565b3480156103e857600080fd5b5061026a6103f7366004612830565b611232565b34801561040857600080fd5b506101e16104173660046129ec565b6112d0565b6101e161042a366004612a58565b6113cf565b34801561043b57600080fd5b5061044f61044a366004612a58565b6114de565b6040516101b893929190612ba2565b34801561046a57600080fd5b506101e161047936600461294d565b6115a9565b34801561048a57600080fd5b506102bf610499366004612830565b61170a565b3480156104aa57600080fd5b506101ae6104b9366004612830565b61188b565b6101e16104cc366004612a71565b6118bb565b3480156104dd57600080fd5b506104f16104ec3660046127b8565b6119bb565b6040516101b89796959493929190612cf1565b34801561051057600080fd5b5061052461051f3660046127b8565b611b96565b6040516101b89493929190612cc0565b34801561054057600080fd5b506101ae61054f366004612830565b611c4b565b34801561056057600080fd5b5061044f61056f366004612a58565b611e53565b34801561058057600080fd5b506101e161058f366004612830565b611e63565b3480156105a057600080fd5b5061026a6105af366004612830565b80516020818301810180516001825292820191909301209152546001600160a01b031681565b3480156105e157600080fd5b506101e16105f0366004612991565b61204f565b34801561060157600080fd5b506101e161061036600461294d565b612323565b34801561062157600080fd5b50610635610630366004612830565b612449565b6040516101b89493929190612c14565b34801561065157600080fd5b50610665610660366004612a58565b61250f565b6040516101b89493929190612bd8565b600080600060018460405161068a9190612aea565b9081526040805160209281900383019020546001600160a01b0316835290820192909252016000206002015492915050565b60008060006001846040516106d19190612aea565b9081526040805160209281900383019020546001600160a01b031683529082019290925201600020600301805460ff191691151591909117905550565b6008600a838154811061072357610723612f46565b90600052602060002090600402016001016040516107419190612b06565b90815260405190819003602001902054336001600160a01b03909116146107835760405162461bcd60e51b815260040161077a90612db7565b60405180910390fd5b6001811515141561082757336001600160a01b03166108fc600a84815481106107ae576107ae612f46565b9060005260206000209060040201600201549081150290604051600060405180830381858888f193505050501580156107eb573d6000803e3d6000fd5b506000600a838154811061080157610801612f46565b60009182526020909120600490910201600301805460ff19169115159190911790555050565b8061087557600a828154811061083f5761083f612f46565b6000918252602090912060049091020154600a80546001600160a01b03909216916108fc9190859081106107ae576107ae612f46565b5050565b60006001600160a01b03166005836040516108949190612aea565b908152604051908190036020019020546001600160a01b0316146108f65760405162461bcd60e51b8152602060048201526019602482015278115c9c9bdc8e88155cd95c88185b1c9958591e48195e1a5cdd603a1b604482015260640161077a565b6040805160808101825283815260208082018490526002828401526000606083018190526001600160a01b03871681526004825292909220815180519293919261094392849201906125e1565b506020820151600182015560408083015160028301556060909201516003909101805460ff1916911515919091179055518390600590610984908590612aea565b90815260405190819003602001902080546001600160a01b039283166001600160a01b031991821617909155600780546001810182556000919091527fa66cc928b5edb82af9bd49922954155ab7b0942694bea4ce44661d9a8736c688018054959092169416939093179092555050565b600881604051610a059190612aea565b9081526020016040518091039020600201543414610a585760405162461bcd60e51b815260206004820152601060248201526f6572726f723a206e6f74206d6f6e657960801b604482015260640161077a565b6040805160808101825233815260208082018481523493830193909352600160608301819052600a8054918201815560005282517fc65a7bb8d6351c1cf70c95a316cc6a92839c986682d98bc35f958f4883f9d2a8600490920291820180546001600160a01b0319166001600160a01b0390921691909117815593518051939493610b0c937fc65a7bb8d6351c1cf70c95a316cc6a92839c986682d98bc35f958f4883f9d2a99093019291909101906125e1565b50604082015160028201556060909101516003909101805460ff191691151591909117905550565b60606002805480602002602001604051908101604052809291908181526020016000905b82821015610c04578382906000526020600020018054610b7790612eda565b80601f0160208091040260200160405190810160405280929190818152602001828054610ba390612eda565b8015610bf05780601f10610bc557610100808354040283529160200191610bf0565b820191906000526020600020905b815481529060010190602001808311610bd357829003601f168201915b505050505081526020019060010190610b58565b50505050905090565b60005b600354811015610d6c57600060038281548110610c2f57610c2f612f46565b90600052602060002090600502016001018054610c4b90612eda565b80601f0160208091040260200160405190810160405280929190818152602001828054610c7790612eda565b8015610cc45780601f10610c9957610100808354040283529160200191610cc4565b820191906000526020600020905b815481529060010190602001808311610ca757829003601f168201915b5050505050905083604051602001610cdc9190612aea565b6040516020818303038152906040528051906020012081604051602001610d039190612aea565b604051602081830303815290604052805190602001201415610d59578260038381548110610d3357610d33612f46565b90600052602060002090600502016004019080519060200190610d57929190612665565b505b5080610d6481612f15565b915050610c10565b505050565b6008600b8381548110610d8657610d86612f46565b9060005260206000209060030201600101604051610da49190612b06565b90815260405190819003602001902054336001600160a01b0390911614610ddd5760405162461bcd60e51b815260040161077a90612db7565b60018115151415610e7d57600b8281548110610dfb57610dfb612f46565b600091825260208220600390910201546040516001600160a01b03909116913480156108fc02929091818181858888f19350505050158015610e41573d6000803e3d6000fd5b506000600b8381548110610e5757610e57612f46565b60009182526020909120600390910201600201805460ff19169115159190911790555050565b80610875576000600b8381548110610e5757610e57612f46565b6000806000600184604051610eac9190612aea565b9081526040805160209281900383019020546001600160a01b0316835290820192909252016000206003015460ff1692915050565b6000600460006005846040516106d19190612aea565b6060600080600184604051610f0c9190612aea565b9081526040805160209281900383019020546001600160a01b0316835290820192909252016000206005018054610f4290612eda565b80601f0160208091040260200160405190810160405280929190818152602001828054610f6e90612eda565b8015610fbb5780601f10610f9057610100808354040283529160200191610fbb565b820191906000526020600020905b815481529060010190602001808311610f9e57829003601f168201915b50505050509050919050565b6000805b6009548110156111b357600060098281548110610fea57610fea612f46565b906000526020600020018054610fff90612eda565b80601f016020809104026020016040519081016040528092919081815260200182805461102b90612eda565b80156110785780601f1061104d57610100808354040283529160200191611078565b820191906000526020600020905b81548152906001019060200180831161105b57829003601f168201915b50505050509050836040516020016110909190612aea565b60405160208183030381529060405280519060200120816040516020016110b79190612aea565b6040516020818303038152906040528051906020012014156111a0576040805160608101825233815260208082018781526001938301849052600c8054948501815560005282517fdf6966c971051c3d54ec59162606531493a51404a002842f56009d7e5cf4a8c7600390950294850180546001600160a01b0319166001600160a01b03909216919091178155905180519394919361117f937fdf6966c971051c3d54ec59162606531493a51404a002842f56009d7e5cf4a8c89093019291909101906125e1565b50604091909101516002909101805460ff1916911515919091179055600192505b50806111ab81612f15565b915050610fcb565b506001811515146108755760405162461bcd60e51b815260206004820152601f60248201527f6572726f723a207468657265206973206e6f20737563682070726f6475637400604482015260640161077a565b600060046000600584604051610eac9190612aea565b60006004600060058460405161068a9190612aea565b60008060006001600160a01b03166005846040516112509190612aea565b908152604051908190036020019020546001600160a01b03161461129e5760058360405161127e9190612aea565b908152604051908190036020019020546001600160a01b031690506112ca565b6001836040516112ae9190612aea565b908152604051908190036020019020546001600160a01b031690505b92915050565b60408051608081018252338152602081018390529081016112f984670de0b6b3a7640000612e8f565b8152602001600d548152506008846040516113149190612aea565b90815260405160209181900382019020825181546001600160a01b0319166001600160a01b03909116178155828201518051919261135a926001850192909101906125e1565b50604082015160028201556060909101516003909101556009805460018101825560009190915283516113b4917f6e1540171b6c0c960b71a7020d9f60077f6af931a8bbf590da0223dacf75c7af019060208601906125e1565b50600d80549060006113c583612f15565b9190505550505050565b600a81815481106113e2576113e2612f46565b60009182526020909120600490910201546001600160a01b031633146114465760405162461bcd60e51b815260206004820152601960248201527832b93937b91d103cb7b9103737ba1036b9b39739b2b73232b960391b604482015260640161077a565b336001600160a01b03166108fc600a838154811061146657611466612f46565b9060005260206000209060040201600201549081150290604051600060405180830381858888f193505050501580156114a3573d6000803e3d6000fd5b506000600a82815481106114b9576114b9612f46565b60009182526020909120600490910201600301805460ff191691151591909117905550565b600c81815481106114ee57600080fd5b6000918252602090912060039091020180546001820180546001600160a01b0390921693509061151d90612eda565b80601f016020809104026020016040519081016040528092919081815260200182805461154990612eda565b80156115965780601f1061156b57610100808354040283529160200191611596565b820191906000526020600020905b81548152906001019060200180831161157957829003601f168201915b5050506002909301549192505060ff1683565b6000806001846040516115bc9190612aea565b9081526040805160209281900383019020546001600160a01b0316835290820192909252016000206003015460ff16156116085760405162461bcd60e51b815260040161077a90612dee565b60006001600160a01b03166001836040516116239190612aea565b908152604051908190036020019020546001600160a01b0316141561165a5760405162461bcd60e51b815260040161077a90612d84565b8060008060018560405161166e9190612aea565b9081526040805160209281900383019020546001600160a01b03168352908201929092520160002060010154146116b75760405162461bcd60e51b815260040161077a90612d53565b60016000806001856040516116cc9190612aea565b9081526040805160209281900383019020546001600160a01b031683529082019290925201600020600301805460ff19169115159190911790555050565b6060600061171783611232565b9050606060005b6009548110156118835760006009828154811061173d5761173d612f46565b90600052602060002001805461175290612eda565b80601f016020809104026020016040519081016040528092919081815260200182805461177e90612eda565b80156117cb5780601f106117a0576101008083540402835291602001916117cb565b820191906000526020600020905b8154815290600101906020018083116117ae57829003601f168201915b5050505050905060006008826040516117e49190612aea565b90815260405160209181900382018120546001600160a01b0316925061180c91839101612ad2565b60405160208183030381529060405280519060200120856040516020016118339190612ad2565b60405160208183030381529060405280519060200120141561186e578184848151811061186257611862612f46565b60200260200101819052505b5050808061187b90612f15565b91505061171e565b509392505050565b60008160405160200161189e9190612aea565b604051602081830303815290604052805190602001209050919050565b6008600c83815481106118d0576118d0612f46565b90600052602060002090600302016001016040516118ee9190612b06565b90815260405190819003602001902054336001600160a01b03909116146119275760405162461bcd60e51b815260040161077a90612db7565b600181151514156119a157600c828154811061194557611945612f46565b600091825260208220600390910201546040516001600160a01b03909116913480156108fc02929091818181858888f1935050505015801561198b573d6000803e3d6000fd5b506000600c8381548110610e5757610e57612f46565b80610875576000600c8381548110610e5757610e57612f46565b6000602081905290815260409020805481906119d690612eda565b80601f0160208091040260200160405190810160405280929190818152602001828054611a0290612eda565b8015611a4f5780601f10611a2457610100808354040283529160200191611a4f565b820191906000526020600020905b815481529060010190602001808311611a3257829003601f168201915b5050506001840154600285015460038601546004870180549697939692955060ff909116935090611a7f90612eda565b80601f0160208091040260200160405190810160405280929190818152602001828054611aab90612eda565b8015611af85780601f10611acd57610100808354040283529160200191611af8565b820191906000526020600020905b815481529060010190602001808311611adb57829003601f168201915b505050505090806005018054611b0d90612eda565b80601f0160208091040260200160405190810160405280929190818152602001828054611b3990612eda565b8015611b865780601f10611b5b57610100808354040283529160200191611b86565b820191906000526020600020905b815481529060010190602001808311611b6957829003601f168201915b5050505050908060060154905087565b600460205260009081526040902080548190611bb190612eda565b80601f0160208091040260200160405190810160405280929190818152602001828054611bdd90612eda565b8015611c2a5780601f10611bff57610100808354040283529160200191611c2a565b820191906000526020600020905b815481529060010190602001808311611c0d57829003601f168201915b50505050600183015460028401546003909401549293909290915060ff1684565b60008080805b600254811015611e3657600060028281548110611c7057611c70612f46565b906000526020600020018054611c8590612eda565b80601f0160208091040260200160405190810160405280929190818152602001828054611cb190612eda565b8015611cfe5780601f10611cd357610100808354040283529160200191611cfe565b820191906000526020600020905b815481529060010190602001808311611ce157829003601f168201915b5050505050905085604051602001611d169190612aea565b6040516020818303038152906040528051906020012081604051602001611d3d9190612aea565b604051602081830303815290604052805190602001201415611e2357600091505b6003548211611e235760038281548110611d7a57611d7a612f46565b9060005260206000209060050201600001604051602001611d9b9190612b06565b6040516020818303038152906040528051906020012086604051602001611dc29190612aea565b604051602081830303815290604052805190602001201415611e115760038281548110611df157611df1612f46565b90600052602060002090600502016003015483611e0e9190612e55565b92505b81611e1b81612f15565b925050611d5e565b5080611e2e81612f15565b915050611c51565b50611e418282612e6d565b611e4b9082612e55565b949350505050565b600b81815481106114ee57600080fd5b6000805b6009548110156111b357600060098281548110611e8657611e86612f46565b906000526020600020018054611e9b90612eda565b80601f0160208091040260200160405190810160405280929190818152602001828054611ec790612eda565b8015611f145780601f10611ee957610100808354040283529160200191611f14565b820191906000526020600020905b815481529060010190602001808311611ef757829003601f168201915b5050505050905083604051602001611f2c9190612aea565b6040516020818303038152906040528051906020012081604051602001611f539190612aea565b60405160208183030381529060405280519060200120141561203c576040805160608101825233815260208082018781526001938301849052600b8054948501815560005282517f0175b7a638427703f0dbe7bb9bbf987a2551717b34e79f33b5b1008d1fa01db9600390950294850180546001600160a01b0319166001600160a01b03909216919091178155905180519394919361201b937f0175b7a638427703f0dbe7bb9bbf987a2551717b34e79f33b5b1008d1fa01dba9093019291909101906125e1565b50604091909101516002909101805460ff1916911515919091179055600192505b508061204781612f15565b915050611e67565b600a8111156120aa5760405162461bcd60e51b815260206004820152602160248201527f6572726f723a20726174696e672063616e2062652066726f6d203120746f20316044820152600360fc1b606482015260840161077a565b60005b600254811161231d576000600282815481106120cb576120cb612f46565b9060005260206000200180546120e090612eda565b80601f016020809104026020016040519081016040528092919081815260200182805461210c90612eda565b80156121595780601f1061212e57610100808354040283529160200191612159565b820191906000526020600020905b81548152906001019060200180831161213c57829003601f168201915b50505050509050846040516020016121719190612aea565b60405160208183030381529060405280519060200120816040516020016121989190612aea565b60405160208183030381529060405280519060200120141561230a576040805160a08101825286815233600090815260046020908152929020805460609360039392908301916121e790612eda565b80601f016020809104026020016040519081016040528092919081815260200182805461221390612eda565b80156122605780601f1061223557610100808354040283529160200191612260565b820191906000526020600020905b81548152906001019060200180831161224357829003601f168201915b505050918352505060208082018990526040820188905260609091018490528254600181018455600093845292819020825180519394600502909101926122aa92849201906125e1565b5060208281015180516122c392600185019201906125e1565b50604082015180516122df9160028401916020909101906125e1565b506060820151600382015560808201518051612305916004840191602090910190612665565b505050505b508061231581612f15565b9150506120ad565b50505050565b600460006005846040516123379190612aea565b9081526040805160209281900383019020546001600160a01b0316835290820192909252016000206003015460ff16156123835760405162461bcd60e51b815260040161077a90612dee565b60006001600160a01b031660058360405161239e9190612aea565b908152604051908190036020019020546001600160a01b031614156123d55760405162461bcd60e51b815260040161077a90612d84565b80600460006005856040516123ea9190612aea565b9081526040805160209281900383019020546001600160a01b03168352908201929092520160002060010154146124335760405162461bcd60e51b815260040161077a90612d53565b6001600460006005856040516116cc9190612aea565b8051602081830181018051600882529282019190930120915280546001820180546001600160a01b03909216929161248090612eda565b80601f01602080910402602001604051908101604052809291908181526020018280546124ac90612eda565b80156124f95780601f106124ce576101008083540402835291602001916124f9565b820191906000526020600020905b8154815290600101906020018083116124dc57829003601f168201915b5050505050908060020154908060030154905084565b600a818154811061251f57600080fd5b6000918252602090912060049091020180546001820180546001600160a01b0390921693509061254e90612eda565b80601f016020809104026020016040519081016040528092919081815260200182805461257a90612eda565b80156125c75780601f1061259c576101008083540402835291602001916125c7565b820191906000526020600020905b8154815290600101906020018083116125aa57829003601f168201915b50505050600283015460039093015491929160ff16905084565b8280546125ed90612eda565b90600052602060002090601f01602090048101928261260f5760008555612655565b82601f1061262857805160ff1916838001178555612655565b82800160010185558215612655579182015b8281111561265557825182559160200191906001019061263a565b506126619291506126be565b5090565b8280548282559060005260206000209081019282156126b2579160200282015b828111156126b257825180516126a29184916020909101906125e1565b5091602001919060010190612685565b506126619291506126d3565b5b8082111561266157600081556001016126bf565b808211156126615760006126e782826126f0565b506001016126d3565b5080546126fc90612eda565b6000825580601f1061270c575050565b601f01602090049060005260206000209081019061272a91906126be565b50565b80356001600160a01b038116811461274457600080fd5b919050565b600082601f83011261275a57600080fd5b81356001600160401b0381111561277357612773612f5c565b612786601f8201601f1916602001612e25565b81815284602083860101111561279b57600080fd5b816020850160208301376000918101602001919091529392505050565b6000602082840312156127ca57600080fd5b6127d38261272d565b9392505050565b6000806000606084860312156127ef57600080fd5b6127f88461272d565b925060208401356001600160401b0381111561281357600080fd5b61281f86828701612749565b925050604084013590509250925092565b60006020828403121561284257600080fd5b81356001600160401b0381111561285857600080fd5b611e4b84828501612749565b6000806040838503121561287757600080fd5b82356001600160401b038082111561288e57600080fd5b61289a86838701612749565b93506020915081850135818111156128b157600080fd5b8501601f810187136128c257600080fd5b8035828111156128d4576128d4612f5c565b8060051b6128e3858201612e25565b8281528581019084870183860188018c10156128fe57600080fd5b60009350835b8581101561293b5781358881111561291a578586fd5b6129288e8b838b0101612749565b8552509288019290880190600101612904565b50989b909a5098505050505050505050565b6000806040838503121561296057600080fd5b82356001600160401b0381111561297657600080fd5b61298285828601612749565b95602094909401359450505050565b6000806000606084860312156129a657600080fd5b83356001600160401b03808211156129bd57600080fd5b6129c987838801612749565b945060208601359150808211156129df57600080fd5b5061281f86828701612749565b600080600060608486031215612a0157600080fd5b83356001600160401b0380821115612a1857600080fd5b612a2487838801612749565b9450602086013593506040860135915080821115612a4157600080fd5b50612a4e86828701612749565b9150509250925092565b600060208284031215612a6a57600080fd5b5035919050565b60008060408385031215612a8457600080fd5b8235915060208301358015158114612a9b57600080fd5b809150509250929050565b60008151808452612abe816020860160208601612eae565b601f01601f19169290920160200192915050565b60609190911b6001600160601b031916815260140190565b60008251612afc818460208701612eae565b9190910192915050565b600080835481600182811c915080831680612b2257607f831692505b6020808410821415612b4257634e487b7160e01b86526022600452602486fd5b818015612b565760018114612b6757612b94565b60ff19861689528489019650612b94565b60008a81526020902060005b86811015612b8c5781548b820152908501908301612b73565b505084890196505b509498975050505050505050565b6001600160a01b0384168152606060208201819052600090612bc690830185612aa6565b90508215156040830152949350505050565b6001600160a01b0385168152608060208201819052600090612bfc90830186612aa6565b60408301949094525090151560609091015292915050565b6001600160a01b0385168152608060208201819052600090612c3890830186612aa6565b6040830194909452506060015292915050565b6000602080830181845280855180835260408601915060408160051b870101925083870160005b82811015612ca057603f19888603018452612c8e858351612aa6565b94509285019290850190600101612c72565b5092979650505050505050565b6020815260006127d36020830184612aa6565b608081526000612cd36080830187612aa6565b60208301959095525060408101929092521515606090910152919050565b60e081526000612d0460e083018a612aa6565b88602084015287604084015286151560608401528281036080840152612d2a8187612aa6565b905082810360a0840152612d3e8186612aa6565b9150508260c083015298975050505050505050565b602080825260179082015276115c9c9bdc8e88125b9d985b1a59081c185cdcdddbdc99604a1b604082015260600190565b602080825260199082015278115c9c9bdc8e88155cd95c88191bd95cdb89dd08195e1a5cdd603a1b604082015260600190565b6020808252601f908201527f6572726f723a2074686973206973206e6f7420796f75722070726f6475637400604082015260600190565b6020808252601d908201527f4572726f723a20596f752061726520616c7265616479206c6f67676564000000604082015260600190565b604051601f8201601f191681016001600160401b0381118282101715612e4d57612e4d612f5c565b604052919050565b60008219821115612e6857612e68612f30565b500190565b600082612e8a57634e487b7160e01b600052601260045260246000fd5b500490565b6000816000190483118215151615612ea957612ea9612f30565b500290565b60005b83811015612ec9578181015183820152602001612eb1565b8381111561231d5750506000910152565b600181811c90821680612eee57607f821691505b60208210811415612f0f57634e487b7160e01b600052602260045260246000fd5b50919050565b6000600019821415612f2957612f29612f30565b5060010190565b634e487b7160e01b600052601160045260246000fd5b634e487b7160e01b600052603260045260246000fd5b634e487b7160e01b600052604160045260246000fdfea2646970667358221220cb2098dba0ad073b0d553a58a8777668554532d75253b5c6cd61dba4e6ce3df064736f6c63430008070033b5b2e77f7cc5f741808c088fc930a78382cbc738160d08c471b4672fc39743aa405787fa12a823e0f2b7631cc41b3ba8828b3321ca811111fa75cd3aa3bb5ace418456ba3c801fd0a494a221a407852a26db46c4f8395142565b3b3cd0653b99",
					"opcodes": "PUSH1 0x80 PUSH1 0x40 MSTORE PUSH1 0x0 PUSH1 0xD SSTORE CALLVALUE DUP1 ISZERO PUSH3 0x16 JUMPI PUSH1 0x0 DUP1 REVERT JUMPDEST POP PUSH20 0x5412E9B0E4EF9D1546DF79AE907EEE34BDCF3004 PUSH1 0x1 PUSH1 0x40 MLOAD PUSH3 0x46 SWAP1 PUSH4 0x2132B2B9 PUSH1 0xE1 SHL DUP2 MSTORE PUSH1 0x4 ADD SWAP1 JUMP JUMPDEST SWAP1 DUP2 MSTORE PUSH1 0x40 DUP1 MLOAD PUSH1 0x20 SWAP3 DUP2 SWAP1 SUB DUP4 ADD DUP2 KECCAK256 DUP1 SLOAD PUSH1 0x1 PUSH1 0x1 PUSH1 0xA0 SHL SUB NOT AND PUSH1 0x1 PUSH1 0x1 PUSH1 0xA0 SHL SUB SWAP6 SWAP1 SWAP6 AND SWAP5 SWAP1 SWAP5 OR SWAP1 SWAP4 SSTORE PUSH2 0x120 DUP4 ADD DUP2 MSTORE PUSH1 0x4 PUSH1 0xE0 DUP5 ADD SWAP1 DUP2 MSTORE PUSH4 0x2132B2B9 PUSH1 0xE1 SHL PUSH2 0x100 DUP6 ADD MSTORE DUP4 MSTORE DUP1 MLOAD DUP1 DUP3 ADD SWAP1 SWAP2 MSTORE PUSH1 0x1 DUP2 MSTORE PUSH1 0x19 PUSH1 0xF9 SHL DUP2 DUP4 ADD MSTORE SWAP1 DUP3 ADD SWAP1 PUSH3 0xBA SWAP1 PUSH3 0x75A JUMP JUMPDEST DUP2 MSTORE PUSH1 0x3 PUSH1 0x20 DUP1 DUP4 ADD SWAP2 SWAP1 SWAP2 MSTORE PUSH1 0x0 PUSH1 0x40 DUP1 DUP5 ADD DUP3 SWAP1 MSTORE DUP1 MLOAD DUP1 DUP3 ADD DUP3 MSTORE PUSH1 0x1 DUP2 MSTORE PUSH1 0x31 PUSH1 0xF8 SHL DUP2 DUP6 ADD MSTORE PUSH1 0x60 DUP6 ADD MSTORE DUP1 MLOAD DUP1 DUP3 ADD SWAP1 SWAP2 MSTORE PUSH1 0x6 DUP2 MSTORE PUSH6 0x4D6F73636F77 PUSH1 0xD0 SHL DUP2 DUP5 ADD MSTORE PUSH1 0x80 DUP5 ADD MSTORE PUSH1 0xA0 SWAP1 SWAP3 ADD DUP3 SWAP1 MSTORE PUSH20 0x5412E9B0E4EF9D1546DF79AE907EEE34BDCF3004 DUP3 MSTORE SWAP1 DUP2 MSTORE DUP2 MLOAD DUP1 MLOAD PUSH1 0x0 DUP1 MLOAD PUSH1 0x20 PUSH3 0x3953 DUP4 CODECOPY DUP2 MLOAD SWAP2 MSTORE SWAP3 PUSH3 0x150 SWAP3 DUP5 SWAP3 SWAP2 ADD SWAP1 PUSH3 0x78C JUMP JUMPDEST POP PUSH1 0x20 DUP3 DUP2 ADD MLOAD PUSH1 0x1 DUP4 ADD SSTORE PUSH1 0x40 DUP4 ADD MLOAD PUSH1 0x2 DUP4 ADD SSTORE PUSH1 0x60 DUP4 ADD MLOAD PUSH1 0x3 DUP4 ADD DUP1 SLOAD PUSH1 0xFF NOT AND SWAP2 ISZERO ISZERO SWAP2 SWAP1 SWAP2 OR SWAP1 SSTORE PUSH1 0x80 DUP4 ADD MLOAD DUP1 MLOAD PUSH3 0x197 SWAP3 PUSH1 0x4 DUP6 ADD SWAP3 ADD SWAP1 PUSH3 0x78C JUMP JUMPDEST POP PUSH1 0xA0 DUP3 ADD MLOAD DUP1 MLOAD PUSH3 0x1B5 SWAP2 PUSH1 0x5 DUP5 ADD SWAP2 PUSH1 0x20 SWAP1 SWAP2 ADD SWAP1 PUSH3 0x78C JUMP JUMPDEST POP PUSH1 0xC0 SWAP2 SWAP1 SWAP2 ADD MLOAD PUSH1 0x6 SWAP1 SWAP2 ADD SSTORE PUSH1 0x0 PUSH1 0x20 DUP2 SWAP1 MSTORE PUSH1 0x2 DUP1 SLOAD PUSH1 0x1 DUP2 ADD DUP3 SSTORE SWAP2 MSTORE PUSH1 0x0 DUP1 MLOAD PUSH1 0x20 PUSH3 0x3953 DUP4 CODECOPY DUP2 MLOAD SWAP2 MSTORE DUP1 SLOAD PUSH1 0x0 DUP1 MLOAD PUSH1 0x20 PUSH3 0x3933 DUP4 CODECOPY DUP2 MLOAD SWAP2 MSTORE SWAP1 SWAP3 ADD SWAP2 PUSH3 0x207 SWAP1 PUSH3 0x8F4 JUMP JUMPDEST PUSH3 0x214 SWAP3 SWAP2 SWAP1 PUSH3 0x81B JUMP JUMPDEST POP PUSH20 0x49C364FEDAD517382EE5A776D3071F11CFDE4C5C PUSH1 0x1 PUSH1 0x40 MLOAD PUSH3 0x247 SWAP1 PUSH7 0x141C9BD91D58DD PUSH1 0xCA SHL DUP2 MSTORE PUSH1 0x7 ADD SWAP1 JUMP JUMPDEST SWAP1 DUP2 MSTORE PUSH1 0x40 DUP1 MLOAD PUSH1 0x20 SWAP3 DUP2 SWAP1 SUB DUP4 ADD DUP2 KECCAK256 DUP1 SLOAD PUSH1 0x1 PUSH1 0x1 PUSH1 0xA0 SHL SUB NOT AND PUSH1 0x1 PUSH1 0x1 PUSH1 0xA0 SHL SUB SWAP6 SWAP1 SWAP6 AND SWAP5 SWAP1 SWAP5 OR SWAP1 SWAP4 SSTORE PUSH2 0x120 DUP4 ADD DUP2 MSTORE PUSH1 0x7 PUSH1 0xE0 DUP5 ADD SWAP1 DUP2 MSTORE PUSH7 0x141C9BD91D58DD PUSH1 0xCA SHL PUSH2 0x100 DUP6 ADD MSTORE DUP4 MSTORE DUP1 MLOAD DUP1 DUP3 ADD SWAP1 SWAP2 MSTORE PUSH1 0x1 DUP2 MSTORE PUSH1 0x19 PUSH1 0xF9 SHL DUP2 DUP4 ADD MSTORE SWAP1 DUP3 ADD SWAP1 PUSH3 0x2BE SWAP1 PUSH3 0x75A JUMP JUMPDEST DUP2 MSTORE PUSH1 0x3 PUSH1 0x20 DUP1 DUP4 ADD SWAP2 SWAP1 SWAP2 MSTORE PUSH1 0x0 PUSH1 0x40 DUP1 DUP5 ADD DUP3 SWAP1 MSTORE DUP1 MLOAD DUP1 DUP3 ADD DUP3 MSTORE PUSH1 0x1 DUP2 MSTORE PUSH1 0x19 PUSH1 0xF9 SHL DUP2 DUP6 ADD MSTORE PUSH1 0x60 DUP6 ADD MSTORE DUP1 MLOAD DUP1 DUP3 ADD SWAP1 SWAP2 MSTORE PUSH1 0xA DUP2 MSTORE PUSH10 0x50657465727362757267 PUSH1 0xB0 SHL DUP2 DUP5 ADD MSTORE PUSH1 0x80 DUP5 ADD MSTORE PUSH1 0xA0 SWAP1 SWAP3 ADD DUP3 SWAP1 MSTORE PUSH20 0x49C364FEDAD517382EE5A776D3071F11CFDE4C5C DUP3 MSTORE SWAP1 DUP2 MSTORE DUP2 MLOAD DUP1 MLOAD PUSH1 0x0 DUP1 MLOAD PUSH1 0x20 PUSH3 0x3913 DUP4 CODECOPY DUP2 MLOAD SWAP2 MSTORE SWAP3 PUSH3 0x358 SWAP3 DUP5 SWAP3 SWAP2 ADD SWAP1 PUSH3 0x78C JUMP JUMPDEST POP PUSH1 0x20 DUP3 DUP2 ADD MLOAD PUSH1 0x1 DUP4 ADD SSTORE PUSH1 0x40 DUP4 ADD MLOAD PUSH1 0x2 DUP4 ADD SSTORE PUSH1 0x60 DUP4 ADD MLOAD PUSH1 0x3 DUP4 ADD DUP1 SLOAD PUSH1 0xFF NOT AND SWAP2 ISZERO ISZERO SWAP2 SWAP1 SWAP2 OR SWAP1 SSTORE PUSH1 0x80 DUP4 ADD MLOAD DUP1 MLOAD PUSH3 0x39F SWAP3 PUSH1 0x4 DUP6 ADD SWAP3 ADD SWAP1 PUSH3 0x78C JUMP JUMPDEST POP PUSH1 0xA0 DUP3 ADD MLOAD DUP1 MLOAD PUSH3 0x3BD SWAP2 PUSH1 0x5 DUP5 ADD SWAP2 PUSH1 0x20 SWAP1 SWAP2 ADD SWAP1 PUSH3 0x78C JUMP JUMPDEST POP PUSH1 0xC0 SWAP2 SWAP1 SWAP2 ADD MLOAD PUSH1 0x6 SWAP1 SWAP2 ADD SSTORE PUSH1 0x0 PUSH1 0x20 DUP2 SWAP1 MSTORE PUSH1 0x2 DUP1 SLOAD PUSH1 0x1 DUP2 ADD DUP3 SSTORE SWAP2 MSTORE PUSH1 0x0 DUP1 MLOAD PUSH1 0x20 PUSH3 0x3913 DUP4 CODECOPY DUP2 MLOAD SWAP2 MSTORE DUP1 SLOAD PUSH1 0x0 DUP1 MLOAD PUSH1 0x20 PUSH3 0x3933 DUP4 CODECOPY DUP2 MLOAD SWAP2 MSTORE SWAP1 SWAP3 ADD SWAP2 PUSH3 0x40F SWAP1 PUSH3 0x8F4 JUMP JUMPDEST PUSH3 0x41C SWAP3 SWAP2 SWAP1 PUSH3 0x81B JUMP JUMPDEST POP PUSH20 0xADA67460CF329D12C1ED898710CC8DA5D40D8025 PUSH1 0x5 PUSH1 0x40 MLOAD PUSH3 0x44C SWAP1 PUSH4 0x50657461 PUSH1 0xE0 SHL DUP2 MSTORE PUSH1 0x4 ADD SWAP1 JUMP JUMPDEST SWAP1 DUP2 MSTORE PUSH1 0x40 DUP1 MLOAD PUSH1 0x20 SWAP3 DUP2 SWAP1 SUB DUP4 ADD DUP2 KECCAK256 DUP1 SLOAD PUSH1 0x1 PUSH1 0x1 PUSH1 0xA0 SHL SUB NOT AND PUSH1 0x1 PUSH1 0x1 PUSH1 0xA0 SHL SUB SWAP6 SWAP1 SWAP6 AND SWAP5 SWAP1 SWAP5 OR SWAP1 SWAP4 SSTORE PUSH1 0xC0 DUP4 ADD DUP2 MSTORE PUSH1 0x4 PUSH1 0x80 DUP5 ADD SWAP1 DUP2 MSTORE PUSH4 0x50657461 PUSH1 0xE0 SHL PUSH1 0xA0 DUP6 ADD MSTORE DUP4 MSTORE DUP1 MLOAD DUP1 DUP3 ADD SWAP1 SWAP2 MSTORE PUSH1 0x1 DUP2 MSTORE PUSH1 0x33 PUSH1 0xF8 SHL DUP2 DUP4 ADD MSTORE SWAP1 DUP3 ADD SWAP1 PUSH3 0x4BE SWAP1 PUSH3 0x75A JUMP JUMPDEST DUP2 MSTORE PUSH1 0x2 PUSH1 0x20 DUP1 DUP4 ADD SWAP2 SWAP1 SWAP2 MSTORE PUSH1 0x0 PUSH1 0x40 SWAP1 SWAP3 ADD DUP3 SWAP1 MSTORE PUSH20 0xADA67460CF329D12C1ED898710CC8DA5D40D8025 SWAP1 SWAP2 MSTORE PUSH1 0x4 DUP2 MSTORE DUP2 MLOAD DUP1 MLOAD PUSH32 0x7276C473C3031176624EAD5B5CBFDEA5CDBC158289C185F75F825E40AED0BB37 SWAP3 PUSH3 0x527 SWAP3 DUP5 SWAP3 SWAP2 ADD SWAP1 PUSH3 0x78C JUMP JUMPDEST POP PUSH1 0x20 DUP3 DUP2 ADD MLOAD PUSH1 0x1 DUP4 DUP2 ADD SWAP2 SWAP1 SWAP2 SSTORE PUSH1 0x40 DUP1 DUP6 ADD MLOAD PUSH1 0x2 DUP6 ADD SSTORE PUSH1 0x60 SWAP1 SWAP5 ADD MLOAD PUSH1 0x3 SWAP1 SWAP4 ADD DUP1 SLOAD PUSH1 0xFF NOT AND SWAP4 ISZERO ISZERO SWAP4 SWAP1 SWAP4 OR SWAP1 SWAP3 SSTORE PUSH1 0x6 DUP1 SLOAD SWAP3 DUP4 ADD DUP2 SSTORE PUSH1 0x0 MSTORE DUP3 MLOAD DUP1 DUP5 ADD SWAP1 SWAP4 MSTORE PUSH1 0x4 DUP1 DUP5 MSTORE PUSH4 0x50657461 PUSH1 0xE0 SHL SWAP4 SWAP1 SWAP2 ADD SWAP3 DUP4 MSTORE PUSH3 0x5B6 SWAP3 PUSH32 0xF652222313E28459528D920B65115C16C04F3EFC82AAEDC97BE59F3F377C0D3F SWAP1 SWAP3 ADD SWAP2 SWAP1 PUSH3 0x78C JUMP JUMPDEST POP PUSH1 0x7 DUP1 SLOAD PUSH1 0x1 DUP2 ADD DUP3 SSTORE PUSH1 0x0 SWAP2 SWAP1 SWAP2 MSTORE PUSH32 0xA66CC928B5EDB82AF9BD49922954155AB7B0942694BEA4CE44661D9A8736C688 ADD DUP1 SLOAD PUSH1 0x1 PUSH1 0x1 PUSH1 0xA0 SHL SUB NOT AND PUSH20 0xADA67460CF329D12C1ED898710CC8DA5D40D8025 OR SWAP1 SSTORE PUSH1 0x40 DUP1 MLOAD PUSH1 0x80 DUP2 ADD DUP3 MSTORE PUSH20 0x5412E9B0E4EF9D1546DF79AE907EEE34BDCF3004 DUP2 MSTORE DUP2 MLOAD DUP1 DUP4 ADD DUP4 MSTORE PUSH1 0x3 DUP2 MSTORE PUSH3 0x185CD9 PUSH1 0xEA SHL PUSH1 0x20 DUP3 DUP2 ADD SWAP2 SWAP1 SWAP2 MSTORE DUP3 ADD MSTORE PUSH9 0x56BC75E2D63100000 DUP2 DUP4 ADD MSTORE PUSH1 0xD SLOAD PUSH1 0x60 DUP3 ADD MSTORE SWAP1 MLOAD PUSH1 0x8 SWAP1 PUSH3 0x67D SWAP1 PUSH5 0x4170706C65 PUSH1 0xD8 SHL DUP2 MSTORE PUSH1 0x5 ADD SWAP1 JUMP JUMPDEST SWAP1 DUP2 MSTORE PUSH1 0x40 MLOAD PUSH1 0x20 SWAP2 DUP2 SWAP1 SUB DUP3 ADD SWAP1 KECCAK256 DUP3 MLOAD DUP2 SLOAD PUSH1 0x1 PUSH1 0x1 PUSH1 0xA0 SHL SUB NOT AND PUSH1 0x1 PUSH1 0x1 PUSH1 0xA0 SHL SUB SWAP1 SWAP2 AND OR DUP2 SSTORE DUP3 DUP3 ADD MLOAD DUP1 MLOAD SWAP2 SWAP3 PUSH3 0x6C5 SWAP3 PUSH1 0x1 DUP6 ADD SWAP3 SWAP1 SWAP2 ADD SWAP1 PUSH3 0x78C JUMP JUMPDEST POP PUSH1 0x40 DUP3 DUP2 ADD MLOAD PUSH1 0x2 DUP4 ADD SSTORE PUSH1 0x60 SWAP1 SWAP3 ADD MLOAD PUSH1 0x3 SWAP1 SWAP2 ADD SSTORE PUSH1 0x9 DUP1 SLOAD PUSH1 0x1 DUP2 ADD DUP3 SSTORE PUSH1 0x0 SWAP2 SWAP1 SWAP2 MSTORE DUP2 MLOAD DUP1 DUP4 ADD SWAP1 SWAP3 MSTORE PUSH1 0x5 DUP1 DUP4 MSTORE PUSH5 0x4170706C65 PUSH1 0xD8 SHL PUSH1 0x20 SWAP1 SWAP4 ADD SWAP3 DUP4 MSTORE PUSH3 0x73C SWAP3 PUSH32 0x6E1540171B6C0C960B71A7020D9F60077F6AF931A8BBF590DA0223DACF75C7AF SWAP1 SWAP3 ADD SWAP2 SWAP1 PUSH3 0x78C JUMP JUMPDEST POP PUSH1 0xD DUP1 SLOAD SWAP1 PUSH1 0x0 PUSH3 0x74F DUP4 PUSH3 0x931 JUMP JUMPDEST SWAP2 SWAP1 POP SSTORE POP PUSH3 0x95B JUMP JUMPDEST PUSH1 0x0 DUP2 PUSH1 0x40 MLOAD PUSH1 0x20 ADD PUSH3 0x76F SWAP2 SWAP1 PUSH3 0x8B6 JUMP JUMPDEST PUSH1 0x40 MLOAD PUSH1 0x20 DUP2 DUP4 SUB SUB DUP2 MSTORE SWAP1 PUSH1 0x40 MSTORE DUP1 MLOAD SWAP1 PUSH1 0x20 ADD KECCAK256 SWAP1 POP SWAP2 SWAP1 POP JUMP JUMPDEST DUP3 DUP1 SLOAD PUSH3 0x79A SWAP1 PUSH3 0x8F4 JUMP JUMPDEST SWAP1 PUSH1 0x0 MSTORE PUSH1 0x20 PUSH1 0x0 KECCAK256 SWAP1 PUSH1 0x1F ADD PUSH1 0x20 SWAP1 DIV DUP2 ADD SWAP3 DUP3 PUSH3 0x7BE JUMPI PUSH1 0x0 DUP6 SSTORE PUSH3 0x809 JUMP JUMPDEST DUP3 PUSH1 0x1F LT PUSH3 0x7D9 JUMPI DUP1 MLOAD PUSH1 0xFF NOT AND DUP4 DUP1 ADD OR DUP6 SSTORE PUSH3 0x809 JUMP JUMPDEST DUP3 DUP1 ADD PUSH1 0x1 ADD DUP6 SSTORE DUP3 ISZERO PUSH3 0x809 JUMPI SWAP2 DUP3 ADD JUMPDEST DUP3 DUP2 GT ISZERO PUSH3 0x809 JUMPI DUP3 MLOAD DUP3 SSTORE SWAP2 PUSH1 0x20 ADD SWAP2 SWAP1 PUSH1 0x1 ADD SWAP1 PUSH3 0x7EC JUMP JUMPDEST POP PUSH3 0x817 SWAP3 SWAP2 POP PUSH3 0x89F JUMP JUMPDEST POP SWAP1 JUMP JUMPDEST DUP3 DUP1 SLOAD PUSH3 0x829 SWAP1 PUSH3 0x8F4 JUMP JUMPDEST SWAP1 PUSH1 0x0 MSTORE PUSH1 0x20 PUSH1 0x0 KECCAK256 SWAP1 PUSH1 0x1F ADD PUSH1 0x20 SWAP1 DIV DUP2 ADD SWAP3 DUP3 PUSH3 0x84D JUMPI PUSH1 0x0 DUP6 SSTORE PUSH3 0x809 JUMP JUMPDEST DUP3 PUSH1 0x1F LT PUSH3 0x860 JUMPI DUP1 SLOAD DUP6 SSTORE PUSH3 0x809 JUMP JUMPDEST DUP3 DUP1 ADD PUSH1 0x1 ADD DUP6 SSTORE DUP3 ISZERO PUSH3 0x809 JUMPI PUSH1 0x0 MSTORE PUSH1 0x20 PUSH1 0x0 KECCAK256 SWAP2 PUSH1 0x1F ADD PUSH1 0x20 SWAP1 DIV DUP3 ADD JUMPDEST DUP3 DUP2 GT ISZERO PUSH3 0x809 JUMPI DUP3 SLOAD DUP3 SSTORE SWAP2 PUSH1 0x1 ADD SWAP2 SWAP1 PUSH1 0x1 ADD SWAP1 PUSH3 0x882 JUMP JUMPDEST JUMPDEST DUP1 DUP3 GT ISZERO PUSH3 0x817 JUMPI PUSH1 0x0 DUP2 SSTORE PUSH1 0x1 ADD PUSH3 0x8A0 JUMP JUMPDEST PUSH1 0x0 DUP3 MLOAD PUSH1 0x0 JUMPDEST DUP2 DUP2 LT ISZERO PUSH3 0x8D9 JUMPI PUSH1 0x20 DUP2 DUP7 ADD DUP2 ADD MLOAD DUP6 DUP4 ADD MSTORE ADD PUSH3 0x8BD JUMP JUMPDEST DUP2 DUP2 GT ISZERO PUSH3 0x8E9 JUMPI PUSH1 0x0 DUP3 DUP6 ADD MSTORE JUMPDEST POP SWAP2 SWAP1 SWAP2 ADD SWAP3 SWAP2 POP POP JUMP JUMPDEST PUSH1 0x1 DUP2 DUP2 SHR SWAP1 DUP3 AND DUP1 PUSH3 0x909 JUMPI PUSH1 0x7F DUP3 AND SWAP2 POP JUMPDEST PUSH1 0x20 DUP3 LT DUP2 EQ ISZERO PUSH3 0x92B JUMPI PUSH4 0x4E487B71 PUSH1 0xE0 SHL PUSH1 0x0 MSTORE PUSH1 0x22 PUSH1 0x4 MSTORE PUSH1 0x24 PUSH1 0x0 REVERT JUMPDEST POP SWAP2 SWAP1 POP JUMP JUMPDEST PUSH1 0x0 PUSH1 0x0 NOT DUP3 EQ ISZERO PUSH3 0x954 JUMPI PUSH4 0x4E487B71 PUSH1 0xE0 SHL PUSH1 0x0 MSTORE PUSH1 0x11 PUSH1 0x4 MSTORE PUSH1 0x24 PUSH1 0x0 REVERT JUMPDEST POP PUSH1 0x1 ADD SWAP1 JUMP JUMPDEST PUSH2 0x2FA8 DUP1 PUSH3 0x96B PUSH1 0x0 CODECOPY PUSH1 0x0 RETURN INVALID PUSH1 0x80 PUSH1 0x40 MSTORE PUSH1 0x4 CALLDATASIZE LT PUSH2 0x189 JUMPI PUSH1 0x0 CALLDATALOAD PUSH1 0xE0 SHR DUP1 PUSH4 0x33FF0B8 EQ PUSH2 0x18E JUMPI DUP1 PUSH4 0x4AC16F6 EQ PUSH2 0x1C1 JUMPI DUP1 PUSH4 0xC72B1EC EQ PUSH2 0x1E3 JUMPI DUP1 PUSH4 0xE1C81B2 EQ PUSH2 0x1F6 JUMPI DUP1 PUSH4 0x146DC6ED EQ PUSH2 0x216 JUMPI DUP1 PUSH4 0x1BBE970A EQ PUSH2 0x229 JUMPI DUP1 PUSH4 0x1E279A37 EQ PUSH2 0x282 JUMPI DUP1 PUSH4 0x1F8DAAC8 EQ PUSH2 0x2AA JUMPI DUP1 PUSH4 0x29E795F3 EQ PUSH2 0x2CC JUMPI DUP1 PUSH4 0x2CCDEF7C EQ PUSH2 0x2EC JUMPI DUP1 PUSH4 0x3B84AEDC EQ PUSH2 0x2FF JUMPI DUP1 PUSH4 0x521B9170 EQ PUSH2 0x32F JUMPI DUP1 PUSH4 0x55149FD5 EQ PUSH2 0x34F JUMPI DUP1 PUSH4 0x5828C584 EQ PUSH2 0x37C JUMPI DUP1 PUSH4 0x5BBC9A3F EQ PUSH2 0x39C JUMPI DUP1 PUSH4 0x5BDB63FA EQ PUSH2 0x3BC JUMPI DUP1 PUSH4 0x6BA44D3C EQ PUSH2 0x3DC JUMPI DUP1 PUSH4 0x6C05DD1D EQ PUSH2 0x3FC JUMPI DUP1 PUSH4 0x7033A382 EQ PUSH2 0x41C JUMPI DUP1 PUSH4 0x73B62BD0 EQ PUSH2 0x42F JUMPI DUP1 PUSH4 0x775EB9E6 EQ PUSH2 0x45E JUMPI DUP1 PUSH4 0x803103F1 EQ PUSH2 0x47E JUMPI DUP1 PUSH4 0x845952A8 EQ PUSH2 0x49E JUMPI DUP1 PUSH4 0x87048043 EQ PUSH2 0x4BE JUMPI DUP1 PUSH4 0x8E23CB40 EQ PUSH2 0x4D1 JUMPI DUP1 PUSH4 0x961865F0 EQ PUSH2 0x504 JUMPI DUP1 PUSH4 0xA985036D EQ PUSH2 0x534 JUMPI DUP1 PUSH4 0xA9F9482B EQ PUSH2 0x554 JUMPI DUP1 PUSH4 0xBBD43363 EQ PUSH2 0x574 JUMPI DUP1 PUSH4 0xC4957FA0 EQ PUSH2 0x594 JUMPI DUP1 PUSH4 0xCC21C188 EQ PUSH2 0x5D5 JUMPI DUP1 PUSH4 0xD22D9020 EQ PUSH2 0x5F5 JUMPI DUP1 PUSH4 0xD68CF8C1 EQ PUSH2 0x615 JUMPI DUP1 PUSH4 0xDCE39151 EQ PUSH2 0x645 JUMPI JUMPDEST PUSH1 0x0 DUP1 REVERT JUMPDEST CALLVALUE DUP1 ISZERO PUSH2 0x19A JUMPI PUSH1 0x0 DUP1 REVERT JUMPDEST POP PUSH2 0x1AE PUSH2 0x1A9 CALLDATASIZE PUSH1 0x4 PUSH2 0x2830 JUMP JUMPDEST PUSH2 0x675 JUMP JUMPDEST PUSH1 0x40 MLOAD SWAP1 DUP2 MSTORE PUSH1 0x20 ADD JUMPDEST PUSH1 0x40 MLOAD DUP1 SWAP2 SUB SWAP1 RETURN JUMPDEST CALLVALUE DUP1 ISZERO PUSH2 0x1CD JUMPI PUSH1 0x0 DUP1 REVERT JUMPDEST POP PUSH2 0x1E1 PUSH2 0x1DC CALLDATASIZE PUSH1 0x4 PUSH2 0x2830 JUMP JUMPDEST PUSH2 0x6BC JUMP JUMPDEST STOP JUMPDEST PUSH2 0x1E1 PUSH2 0x1F1 CALLDATASIZE PUSH1 0x4 PUSH2 0x2A71 JUMP JUMPDEST PUSH2 0x70E JUMP JUMPDEST CALLVALUE DUP1 ISZERO PUSH2 0x202 JUMPI PUSH1 0x0 DUP1 REVERT JUMPDEST POP PUSH2 0x1E1 PUSH2 0x211 CALLDATASIZE PUSH1 0x4 PUSH2 0x27DA JUMP JUMPDEST PUSH2 0x879 JUMP JUMPDEST PUSH2 0x1E1 PUSH2 0x224 CALLDATASIZE PUSH1 0x4 PUSH2 0x2830 JUMP JUMPDEST PUSH2 0x9F5 JUMP JUMPDEST CALLVALUE DUP1 ISZERO PUSH2 0x235 JUMPI PUSH1 0x0 DUP1 REVERT JUMPDEST POP PUSH2 0x26A PUSH2 0x244 CALLDATASIZE PUSH1 0x4 PUSH2 0x2830 JUMP JUMPDEST DUP1 MLOAD PUSH1 0x20 DUP2 DUP4 ADD DUP2 ADD DUP1 MLOAD PUSH1 0x5 DUP3 MSTORE SWAP3 DUP3 ADD SWAP2 SWAP1 SWAP4 ADD KECCAK256 SWAP2 MSTORE SLOAD PUSH1 0x1 PUSH1 0x1 PUSH1 0xA0 SHL SUB AND DUP2 JUMP JUMPDEST PUSH1 0x40 MLOAD PUSH1 0x1 PUSH1 0x1 PUSH1 0xA0 SHL SUB SWAP1 SWAP2 AND DUP2 MSTORE PUSH1 0x20 ADD PUSH2 0x1B8 JUMP JUMPDEST CALLVALUE DUP1 ISZERO PUSH2 0x28E JUMPI PUSH1 0x0 DUP1 REVERT JUMPDEST POP PUSH2 0x1AE PUSH2 0x29D CALLDATASIZE PUSH1 0x4 PUSH2 0x27B8 JUMP JUMPDEST PUSH1 0x1 PUSH1 0x1 PUSH1 0xA0 SHL SUB AND BALANCE SWAP1 JUMP JUMPDEST CALLVALUE DUP1 ISZERO PUSH2 0x2B6 JUMPI PUSH1 0x0 DUP1 REVERT JUMPDEST POP PUSH2 0x2BF PUSH2 0xB34 JUMP JUMPDEST PUSH1 0x40 MLOAD PUSH2 0x1B8 SWAP2 SWAP1 PUSH2 0x2C4B JUMP JUMPDEST CALLVALUE DUP1 ISZERO PUSH2 0x2D8 JUMPI PUSH1 0x0 DUP1 REVERT JUMPDEST POP PUSH2 0x1E1 PUSH2 0x2E7 CALLDATASIZE PUSH1 0x4 PUSH2 0x2864 JUMP JUMPDEST PUSH2 0xC0D JUMP JUMPDEST PUSH2 0x1E1 PUSH2 0x2FA CALLDATASIZE PUSH1 0x4 PUSH2 0x2A71 JUMP JUMPDEST PUSH2 0xD71 JUMP JUMPDEST CALLVALUE DUP1 ISZERO PUSH2 0x30B JUMPI PUSH1 0x0 DUP1 REVERT JUMPDEST POP PUSH2 0x31F PUSH2 0x31A CALLDATASIZE PUSH1 0x4 PUSH2 0x2830 JUMP JUMPDEST PUSH2 0xE97 JUMP JUMPDEST PUSH1 0x40 MLOAD SWAP1 ISZERO ISZERO DUP2 MSTORE PUSH1 0x20 ADD PUSH2 0x1B8 JUMP JUMPDEST CALLVALUE DUP1 ISZERO PUSH2 0x33B JUMPI PUSH1 0x0 DUP1 REVERT JUMPDEST POP PUSH2 0x1E1 PUSH2 0x34A CALLDATASIZE PUSH1 0x4 PUSH2 0x2830 JUMP JUMPDEST PUSH2 0xEE1 JUMP JUMPDEST CALLVALUE DUP1 ISZERO PUSH2 0x35B JUMPI PUSH1 0x0 DUP1 REVERT JUMPDEST POP PUSH2 0x36F PUSH2 0x36A CALLDATASIZE PUSH1 0x4 PUSH2 0x2830 JUMP JUMPDEST PUSH2 0xEF7 JUMP JUMPDEST PUSH1 0x40 MLOAD PUSH2 0x1B8 SWAP2 SWAP1 PUSH2 0x2CAD JUMP JUMPDEST CALLVALUE DUP1 ISZERO PUSH2 0x388 JUMPI PUSH1 0x0 DUP1 REVERT JUMPDEST POP PUSH2 0x1E1 PUSH2 0x397 CALLDATASIZE PUSH1 0x4 PUSH2 0x2830 JUMP JUMPDEST PUSH2 0xFC7 JUMP JUMPDEST CALLVALUE DUP1 ISZERO PUSH2 0x3A8 JUMPI PUSH1 0x0 DUP1 REVERT JUMPDEST POP PUSH2 0x31F PUSH2 0x3B7 CALLDATASIZE PUSH1 0x4 PUSH2 0x2830 JUMP JUMPDEST PUSH2 0x1206 JUMP JUMPDEST CALLVALUE DUP1 ISZERO PUSH2 0x3C8 JUMPI PUSH1 0x0 DUP1 REVERT JUMPDEST POP PUSH2 0x1AE PUSH2 0x3D7 CALLDATASIZE PUSH1 0x4 PUSH2 0x2830 JUMP JUMPDEST PUSH2 0x121C JUMP JUMPDEST CALLVALUE DUP1 ISZERO PUSH2 0x3E8 JUMPI PUSH1 0x0 DUP1 REVERT JUMPDEST POP PUSH2 0x26A PUSH2 0x3F7 CALLDATASIZE PUSH1 0x4 PUSH2 0x2830 JUMP JUMPDEST PUSH2 0x1232 JUMP JUMPDEST CALLVALUE DUP1 ISZERO PUSH2 0x408 JUMPI PUSH1 0x0 DUP1 REVERT JUMPDEST POP PUSH2 0x1E1 PUSH2 0x417 CALLDATASIZE PUSH1 0x4 PUSH2 0x29EC JUMP JUMPDEST PUSH2 0x12D0 JUMP JUMPDEST PUSH2 0x1E1 PUSH2 0x42A CALLDATASIZE PUSH1 0x4 PUSH2 0x2A58 JUMP JUMPDEST PUSH2 0x13CF JUMP JUMPDEST CALLVALUE DUP1 ISZERO PUSH2 0x43B JUMPI PUSH1 0x0 DUP1 REVERT JUMPDEST POP PUSH2 0x44F PUSH2 0x44A CALLDATASIZE PUSH1 0x4 PUSH2 0x2A58 JUMP JUMPDEST PUSH2 0x14DE JUMP JUMPDEST PUSH1 0x40 MLOAD PUSH2 0x1B8 SWAP4 SWAP3 SWAP2 SWAP1 PUSH2 0x2BA2 JUMP JUMPDEST CALLVALUE DUP1 ISZERO PUSH2 0x46A JUMPI PUSH1 0x0 DUP1 REVERT JUMPDEST POP PUSH2 0x1E1 PUSH2 0x479 CALLDATASIZE PUSH1 0x4 PUSH2 0x294D JUMP JUMPDEST PUSH2 0x15A9 JUMP JUMPDEST CALLVALUE DUP1 ISZERO PUSH2 0x48A JUMPI PUSH1 0x0 DUP1 REVERT JUMPDEST POP PUSH2 0x2BF PUSH2 0x499 CALLDATASIZE PUSH1 0x4 PUSH2 0x2830 JUMP JUMPDEST PUSH2 0x170A JUMP JUMPDEST CALLVALUE DUP1 ISZERO PUSH2 0x4AA JUMPI PUSH1 0x0 DUP1 REVERT JUMPDEST POP PUSH2 0x1AE PUSH2 0x4B9 CALLDATASIZE PUSH1 0x4 PUSH2 0x2830 JUMP JUMPDEST PUSH2 0x188B JUMP JUMPDEST PUSH2 0x1E1 PUSH2 0x4CC CALLDATASIZE PUSH1 0x4 PUSH2 0x2A71 JUMP JUMPDEST PUSH2 0x18BB JUMP JUMPDEST CALLVALUE DUP1 ISZERO PUSH2 0x4DD JUMPI PUSH1 0x0 DUP1 REVERT JUMPDEST POP PUSH2 0x4F1 PUSH2 0x4EC CALLDATASIZE PUSH1 0x4 PUSH2 0x27B8 JUMP JUMPDEST PUSH2 0x19BB JUMP JUMPDEST PUSH1 0x40 MLOAD PUSH2 0x1B8 SWAP8 SWAP7 SWAP6 SWAP5 SWAP4 SWAP3 SWAP2 SWAP1 PUSH2 0x2CF1 JUMP JUMPDEST CALLVALUE DUP1 ISZERO PUSH2 0x510 JUMPI PUSH1 0x0 DUP1 REVERT JUMPDEST POP PUSH2 0x524 PUSH2 0x51F CALLDATASIZE PUSH1 0x4 PUSH2 0x27B8 JUMP JUMPDEST PUSH2 0x1B96 JUMP JUMPDEST PUSH1 0x40 MLOAD PUSH2 0x1B8 SWAP5 SWAP4 SWAP3 SWAP2 SWAP1 PUSH2 0x2CC0 JUMP JUMPDEST CALLVALUE DUP1 ISZERO PUSH2 0x540 JUMPI PUSH1 0x0 DUP1 REVERT JUMPDEST POP PUSH2 0x1AE PUSH2 0x54F CALLDATASIZE PUSH1 0x4 PUSH2 0x2830 JUMP JUMPDEST PUSH2 0x1C4B JUMP JUMPDEST CALLVALUE DUP1 ISZERO PUSH2 0x560 JUMPI PUSH1 0x0 DUP1 REVERT JUMPDEST POP PUSH2 0x44F PUSH2 0x56F CALLDATASIZE PUSH1 0x4 PUSH2 0x2A58 JUMP JUMPDEST PUSH2 0x1E53 JUMP JUMPDEST CALLVALUE DUP1 ISZERO PUSH2 0x580 JUMPI PUSH1 0x0 DUP1 REVERT JUMPDEST POP PUSH2 0x1E1 PUSH2 0x58F CALLDATASIZE PUSH1 0x4 PUSH2 0x2830 JUMP JUMPDEST PUSH2 0x1E63 JUMP JUMPDEST CALLVALUE DUP1 ISZERO PUSH2 0x5A0 JUMPI PUSH1 0x0 DUP1 REVERT JUMPDEST POP PUSH2 0x26A PUSH2 0x5AF CALLDATASIZE PUSH1 0x4 PUSH2 0x2830 JUMP JUMPDEST DUP1 MLOAD PUSH1 0x20 DUP2 DUP4 ADD DUP2 ADD DUP1 MLOAD PUSH1 0x1 DUP3 MSTORE SWAP3 DUP3 ADD SWAP2 SWAP1 SWAP4 ADD KECCAK256 SWAP2 MSTORE SLOAD PUSH1 0x1 PUSH1 0x1 PUSH1 0xA0 SHL SUB AND DUP2 JUMP JUMPDEST CALLVALUE DUP1 ISZERO PUSH2 0x5E1 JUMPI PUSH1 0x0 DUP1 REVERT JUMPDEST POP PUSH2 0x1E1 PUSH2 0x5F0 CALLDATASIZE PUSH1 0x4 PUSH2 0x2991 JUMP JUMPDEST PUSH2 0x204F JUMP JUMPDEST CALLVALUE DUP1 ISZERO PUSH2 0x601 JUMPI PUSH1 0x0 DUP1 REVERT JUMPDEST POP PUSH2 0x1E1 PUSH2 0x610 CALLDATASIZE PUSH1 0x4 PUSH2 0x294D JUMP JUMPDEST PUSH2 0x2323 JUMP JUMPDEST CALLVALUE DUP1 ISZERO PUSH2 0x621 JUMPI PUSH1 0x0 DUP1 REVERT JUMPDEST POP PUSH2 0x635 PUSH2 0x630 CALLDATASIZE PUSH1 0x4 PUSH2 0x2830 JUMP JUMPDEST PUSH2 0x2449 JUMP JUMPDEST PUSH1 0x40 MLOAD PUSH2 0x1B8 SWAP5 SWAP4 SWAP3 SWAP2 SWAP1 PUSH2 0x2C14 JUMP JUMPDEST CALLVALUE DUP1 ISZERO PUSH2 0x651 JUMPI PUSH1 0x0 DUP1 REVERT JUMPDEST POP PUSH2 0x665 PUSH2 0x660 CALLDATASIZE PUSH1 0x4 PUSH2 0x2A58 JUMP JUMPDEST PUSH2 0x250F JUMP JUMPDEST PUSH1 0x40 MLOAD PUSH2 0x1B8 SWAP5 SWAP4 SWAP3 SWAP2 SWAP1 PUSH2 0x2BD8 JUMP JUMPDEST PUSH1 0x0 DUP1 PUSH1 0x0 PUSH1 0x1 DUP5 PUSH1 0x40 MLOAD PUSH2 0x68A SWAP2 SWAP1 PUSH2 0x2AEA JUMP JUMPDEST SWAP1 DUP2 MSTORE PUSH1 0x40 DUP1 MLOAD PUSH1 0x20 SWAP3 DUP2 SWAP1 SUB DUP4 ADD SWAP1 KECCAK256 SLOAD PUSH1 0x1 PUSH1 0x1 PUSH1 0xA0 SHL SUB AND DUP4 MSTORE SWAP1 DUP3 ADD SWAP3 SWAP1 SWAP3 MSTORE ADD PUSH1 0x0 KECCAK256 PUSH1 0x2 ADD SLOAD SWAP3 SWAP2 POP POP JUMP JUMPDEST PUSH1 0x0 DUP1 PUSH1 0x0 PUSH1 0x1 DUP5 PUSH1 0x40 MLOAD PUSH2 0x6D1 SWAP2 SWAP1 PUSH2 0x2AEA JUMP JUMPDEST SWAP1 DUP2 MSTORE PUSH1 0x40 DUP1 MLOAD PUSH1 0x20 SWAP3 DUP2 SWAP1 SUB DUP4 ADD SWAP1 KECCAK256 SLOAD PUSH1 0x1 PUSH1 0x1 PUSH1 0xA0 SHL SUB AND DUP4 MSTORE SWAP1 DUP3 ADD SWAP3 SWAP1 SWAP3 MSTORE ADD PUSH1 0x0 KECCAK256 PUSH1 0x3 ADD DUP1 SLOAD PUSH1 0xFF NOT AND SWAP2 ISZERO ISZERO SWAP2 SWAP1 SWAP2 OR SWAP1 SSTORE POP JUMP JUMPDEST PUSH1 0x8 PUSH1 0xA DUP4 DUP2 SLOAD DUP2 LT PUSH2 0x723 JUMPI PUSH2 0x723 PUSH2 0x2F46 JUMP JUMPDEST SWAP1 PUSH1 0x0 MSTORE PUSH1 0x20 PUSH1 0x0 KECCAK256 SWAP1 PUSH1 0x4 MUL ADD PUSH1 0x1 ADD PUSH1 0x40 MLOAD PUSH2 0x741 SWAP2 SWAP1 PUSH2 0x2B06 JUMP JUMPDEST SWAP1 DUP2 MSTORE PUSH1 0x40 MLOAD SWAP1 DUP2 SWAP1 SUB PUSH1 0x20 ADD SWAP1 KECCAK256 SLOAD CALLER PUSH1 0x1 PUSH1 0x1 PUSH1 0xA0 SHL SUB SWAP1 SWAP2 AND EQ PUSH2 0x783 JUMPI PUSH1 0x40 MLOAD PUSH3 0x461BCD PUSH1 0xE5 SHL DUP2 MSTORE PUSH1 0x4 ADD PUSH2 0x77A SWAP1 PUSH2 0x2DB7 JUMP JUMPDEST PUSH1 0x40 MLOAD DUP1 SWAP2 SUB SWAP1 REVERT JUMPDEST PUSH1 0x1 DUP2 ISZERO ISZERO EQ ISZERO PUSH2 0x827 JUMPI CALLER PUSH1 0x1 PUSH1 0x1 PUSH1 0xA0 SHL SUB AND PUSH2 0x8FC PUSH1 0xA DUP5 DUP2 SLOAD DUP2 LT PUSH2 0x7AE JUMPI PUSH2 0x7AE PUSH2 0x2F46 JUMP JUMPDEST SWAP1 PUSH1 0x0 MSTORE PUSH1 0x20 PUSH1 0x0 KECCAK256 SWAP1 PUSH1 0x4 MUL ADD PUSH1 0x2 ADD SLOAD SWAP1 DUP2 ISZERO MUL SWAP1 PUSH1 0x40 MLOAD PUSH1 0x0 PUSH1 0x40 MLOAD DUP1 DUP4 SUB DUP2 DUP6 DUP9 DUP9 CALL SWAP4 POP POP POP POP ISZERO DUP1 ISZERO PUSH2 0x7EB JUMPI RETURNDATASIZE PUSH1 0x0 DUP1 RETURNDATACOPY RETURNDATASIZE PUSH1 0x0 REVERT JUMPDEST POP PUSH1 0x0 PUSH1 0xA DUP4 DUP2 SLOAD DUP2 LT PUSH2 0x801 JUMPI PUSH2 0x801 PUSH2 0x2F46 JUMP JUMPDEST PUSH1 0x0 SWAP2 DUP3 MSTORE PUSH1 0x20 SWAP1 SWAP2 KECCAK256 PUSH1 0x4 SWAP1 SWAP2 MUL ADD PUSH1 0x3 ADD DUP1 SLOAD PUSH1 0xFF NOT AND SWAP2 ISZERO ISZERO SWAP2 SWAP1 SWAP2 OR SWAP1 SSTORE POP POP JUMP JUMPDEST DUP1 PUSH2 0x875 JUMPI PUSH1 0xA DUP3 DUP2 SLOAD DUP2 LT PUSH2 0x83F JUMPI PUSH2 0x83F PUSH2 0x2F46 JUMP JUMPDEST PUSH1 0x0 SWAP2 DUP3 MSTORE PUSH1 0x20 SWAP1 SWAP2 KECCAK256 PUSH1 0x4 SWAP1 SWAP2 MUL ADD SLOAD PUSH1 0xA DUP1 SLOAD PUSH1 0x1 PUSH1 0x1 PUSH1 0xA0 SHL SUB SWAP1 SWAP3 AND SWAP2 PUSH2 0x8FC SWAP2 SWAP1 DUP6 SWAP1 DUP2 LT PUSH2 0x7AE JUMPI PUSH2 0x7AE PUSH2 0x2F46 JUMP JUMPDEST POP POP JUMP JUMPDEST PUSH1 0x0 PUSH1 0x1 PUSH1 0x1 PUSH1 0xA0 SHL SUB AND PUSH1 0x5 DUP4 PUSH1 0x40 MLOAD PUSH2 0x894 SWAP2 SWAP1 PUSH2 0x2AEA JUMP JUMPDEST SWAP1 DUP2 MSTORE PUSH1 0x40 MLOAD SWAP1 DUP2 SWAP1 SUB PUSH1 0x20 ADD SWAP1 KECCAK256 SLOAD PUSH1 0x1 PUSH1 0x1 PUSH1 0xA0 SHL SUB AND EQ PUSH2 0x8F6 JUMPI PUSH1 0x40 MLOAD PUSH3 0x461BCD PUSH1 0xE5 SHL DUP2 MSTORE PUSH1 0x20 PUSH1 0x4 DUP3 ADD MSTORE PUSH1 0x19 PUSH1 0x24 DUP3 ADD MSTORE PUSH25 0x115C9C9BDC8E88155CD95C88185B1C9958591E48195E1A5CDD PUSH1 0x3A SHL PUSH1 0x44 DUP3 ADD MSTORE PUSH1 0x64 ADD PUSH2 0x77A JUMP JUMPDEST PUSH1 0x40 DUP1 MLOAD PUSH1 0x80 DUP2 ADD DUP3 MSTORE DUP4 DUP2 MSTORE PUSH1 0x20 DUP1 DUP3 ADD DUP5 SWAP1 MSTORE PUSH1 0x2 DUP3 DUP5 ADD MSTORE PUSH1 0x0 PUSH1 0x60 DUP4 ADD DUP2 SWAP1 MSTORE PUSH1 0x1 PUSH1 0x1 PUSH1 0xA0 SHL SUB DUP8 AND DUP2 MSTORE PUSH1 0x4 DUP3 MSTORE SWAP3 SWAP1 SWAP3 KECCAK256 DUP2 MLOAD DUP1 MLOAD SWAP3 SWAP4 SWAP2 SWAP3 PUSH2 0x943 SWAP3 DUP5 SWAP3 ADD SWAP1 PUSH2 0x25E1 JUMP JUMPDEST POP PUSH1 0x20 DUP3 ADD MLOAD PUSH1 0x1 DUP3 ADD SSTORE PUSH1 0x40 DUP1 DUP4 ADD MLOAD PUSH1 0x2 DUP4 ADD SSTORE PUSH1 0x60 SWAP1 SWAP3 ADD MLOAD PUSH1 0x3 SWAP1 SWAP2 ADD DUP1 SLOAD PUSH1 0xFF NOT AND SWAP2 ISZERO ISZERO SWAP2 SWAP1 SWAP2 OR SWAP1 SSTORE MLOAD DUP4 SWAP1 PUSH1 0x5 SWAP1 PUSH2 0x984 SWAP1 DUP6 SWAP1 PUSH2 0x2AEA JUMP JUMPDEST SWAP1 DUP2 MSTORE PUSH1 0x40 MLOAD SWAP1 DUP2 SWAP1 SUB PUSH1 0x20 ADD SWAP1 KECCAK256 DUP1 SLOAD PUSH1 0x1 PUSH1 0x1 PUSH1 0xA0 SHL SUB SWAP3 DUP4 AND PUSH1 0x1 PUSH1 0x1 PUSH1 0xA0 SHL SUB NOT SWAP2 DUP3 AND OR SWAP1 SWAP2 SSTORE PUSH1 0x7 DUP1 SLOAD PUSH1 0x1 DUP2 ADD DUP3 SSTORE PUSH1 0x0 SWAP2 SWAP1 SWAP2 MSTORE PUSH32 0xA66CC928B5EDB82AF9BD49922954155AB7B0942694BEA4CE44661D9A8736C688 ADD DUP1 SLOAD SWAP6 SWAP1 SWAP3 AND SWAP5 AND SWAP4 SWAP1 SWAP4 OR SWAP1 SWAP3 SSTORE POP POP JUMP JUMPDEST PUSH1 0x8 DUP2 PUSH1 0x40 MLOAD PUSH2 0xA05 SWAP2 SWAP1 PUSH2 0x2AEA JUMP JUMPDEST SWAP1 DUP2 MSTORE PUSH1 0x20 ADD PUSH1 0x40 MLOAD DUP1 SWAP2 SUB SWAP1 KECCAK256 PUSH1 0x2 ADD SLOAD CALLVALUE EQ PUSH2 0xA58 JUMPI PUSH1 0x40 MLOAD PUSH3 0x461BCD PUSH1 0xE5 SHL DUP2 MSTORE PUSH1 0x20 PUSH1 0x4 DUP3 ADD MSTORE PUSH1 0x10 PUSH1 0x24 DUP3 ADD MSTORE PUSH16 0x6572726F723A206E6F74206D6F6E6579 PUSH1 0x80 SHL PUSH1 0x44 DUP3 ADD MSTORE PUSH1 0x64 ADD PUSH2 0x77A JUMP JUMPDEST PUSH1 0x40 DUP1 MLOAD PUSH1 0x80 DUP2 ADD DUP3 MSTORE CALLER DUP2 MSTORE PUSH1 0x20 DUP1 DUP3 ADD DUP5 DUP2 MSTORE CALLVALUE SWAP4 DUP4 ADD SWAP4 SWAP1 SWAP4 MSTORE PUSH1 0x1 PUSH1 0x60 DUP4 ADD DUP2 SWAP1 MSTORE PUSH1 0xA DUP1 SLOAD SWAP2 DUP3 ADD DUP2 SSTORE PUSH1 0x0 MSTORE DUP3 MLOAD PUSH32 0xC65A7BB8D6351C1CF70C95A316CC6A92839C986682D98BC35F958F4883F9D2A8 PUSH1 0x4 SWAP1 SWAP3 MUL SWAP2 DUP3 ADD DUP1 SLOAD PUSH1 0x1 PUSH1 0x1 PUSH1 0xA0 SHL SUB NOT AND PUSH1 0x1 PUSH1 0x1 PUSH1 0xA0 SHL SUB SWAP1 SWAP3 AND SWAP2 SWAP1 SWAP2 OR DUP2 SSTORE SWAP4 MLOAD DUP1 MLOAD SWAP4 SWAP5 SWAP4 PUSH2 0xB0C SWAP4 PUSH32 0xC65A7BB8D6351C1CF70C95A316CC6A92839C986682D98BC35F958F4883F9D2A9 SWAP1 SWAP4 ADD SWAP3 SWAP2 SWAP1 SWAP2 ADD SWAP1 PUSH2 0x25E1 JUMP JUMPDEST POP PUSH1 0x40 DUP3 ADD MLOAD PUSH1 0x2 DUP3 ADD SSTORE PUSH1 0x60 SWAP1 SWAP2 ADD MLOAD PUSH1 0x3 SWAP1 SWAP2 ADD DUP1 SLOAD PUSH1 0xFF NOT AND SWAP2 ISZERO ISZERO SWAP2 SWAP1 SWAP2 OR SWAP1 SSTORE POP JUMP JUMPDEST PUSH1 0x60 PUSH1 0x2 DUP1 SLOAD DUP1 PUSH1 0x20 MUL PUSH1 0x20 ADD PUSH1 0x40 MLOAD SWAP1 DUP2 ADD PUSH1 0x40 MSTORE DUP1 SWAP3 SWAP2 SWAP1 DUP2 DUP2 MSTORE PUSH1 0x20 ADD PUSH1 0x0 SWAP1 JUMPDEST DUP3 DUP3 LT ISZERO PUSH2 0xC04 JUMPI DUP4 DUP3 SWAP1 PUSH1 0x0 MSTORE PUSH1 0x20 PUSH1 0x0 KECCAK256 ADD DUP1 SLOAD PUSH2 0xB77 SWAP1 PUSH2 0x2EDA JUMP JUMPDEST DUP1 PUSH1 0x1F ADD PUSH1 0x20 DUP1 SWAP2 DIV MUL PUSH1 0x20 ADD PUSH1 0x40 MLOAD SWAP1 DUP2 ADD PUSH1 0x40 MSTORE DUP1 SWAP3 SWAP2 SWAP1 DUP2 DUP2 MSTORE PUSH1 0x20 ADD DUP3 DUP1 SLOAD PUSH2 0xBA3 SWAP1 PUSH2 0x2EDA JUMP JUMPDEST DUP1 ISZERO PUSH2 0xBF0 JUMPI DUP1 PUSH1 0x1F LT PUSH2 0xBC5 JUMPI PUSH2 0x100 DUP1 DUP4 SLOAD DIV MUL DUP4 MSTORE SWAP2 PUSH1 0x20 ADD SWAP2 PUSH2 0xBF0 JUMP JUMPDEST DUP3 ADD SWAP2 SWAP1 PUSH1 0x0 MSTORE PUSH1 0x20 PUSH1 0x0 KECCAK256 SWAP1 JUMPDEST DUP2 SLOAD DUP2 MSTORE SWAP1 PUSH1 0x1 ADD SWAP1 PUSH1 0x20 ADD DUP1 DUP4 GT PUSH2 0xBD3 JUMPI DUP3 SWAP1 SUB PUSH1 0x1F AND DUP3 ADD SWAP2 JUMPDEST POP POP POP POP POP DUP2 MSTORE PUSH1 0x20 ADD SWAP1 PUSH1 0x1 ADD SWAP1 PUSH2 0xB58 JUMP JUMPDEST POP POP POP POP SWAP1 POP SWAP1 JUMP JUMPDEST PUSH1 0x0 JUMPDEST PUSH1 0x3 SLOAD DUP2 LT ISZERO PUSH2 0xD6C JUMPI PUSH1 0x0 PUSH1 0x3 DUP3 DUP2 SLOAD DUP2 LT PUSH2 0xC2F JUMPI PUSH2 0xC2F PUSH2 0x2F46 JUMP JUMPDEST SWAP1 PUSH1 0x0 MSTORE PUSH1 0x20 PUSH1 0x0 KECCAK256 SWAP1 PUSH1 0x5 MUL ADD PUSH1 0x1 ADD DUP1 SLOAD PUSH2 0xC4B SWAP1 PUSH2 0x2EDA JUMP JUMPDEST DUP1 PUSH1 0x1F ADD PUSH1 0x20 DUP1 SWAP2 DIV MUL PUSH1 0x20 ADD PUSH1 0x40 MLOAD SWAP1 DUP2 ADD PUSH1 0x40 MSTORE DUP1 SWAP3 SWAP2 SWAP1 DUP2 DUP2 MSTORE PUSH1 0x20 ADD DUP3 DUP1 SLOAD PUSH2 0xC77 SWAP1 PUSH2 0x2EDA JUMP JUMPDEST DUP1 ISZERO PUSH2 0xCC4 JUMPI DUP1 PUSH1 0x1F LT PUSH2 0xC99 JUMPI PUSH2 0x100 DUP1 DUP4 SLOAD DIV MUL DUP4 MSTORE SWAP2 PUSH1 0x20 ADD SWAP2 PUSH2 0xCC4 JUMP JUMPDEST DUP3 ADD SWAP2 SWAP1 PUSH1 0x0 MSTORE PUSH1 0x20 PUSH1 0x0 KECCAK256 SWAP1 JUMPDEST DUP2 SLOAD DUP2 MSTORE SWAP1 PUSH1 0x1 ADD SWAP1 PUSH1 0x20 ADD DUP1 DUP4 GT PUSH2 0xCA7 JUMPI DUP3 SWAP1 SUB PUSH1 0x1F AND DUP3 ADD SWAP2 JUMPDEST POP POP POP POP POP SWAP1 POP DUP4 PUSH1 0x40 MLOAD PUSH1 0x20 ADD PUSH2 0xCDC SWAP2 SWAP1 PUSH2 0x2AEA JUMP JUMPDEST PUSH1 0x40 MLOAD PUSH1 0x20 DUP2 DUP4 SUB SUB DUP2 MSTORE SWAP1 PUSH1 0x40 MSTORE DUP1 MLOAD SWAP1 PUSH1 0x20 ADD KECCAK256 DUP2 PUSH1 0x40 MLOAD PUSH1 0x20 ADD PUSH2 0xD03 SWAP2 SWAP1 PUSH2 0x2AEA JUMP JUMPDEST PUSH1 0x40 MLOAD PUSH1 0x20 DUP2 DUP4 SUB SUB DUP2 MSTORE SWAP1 PUSH1 0x40 MSTORE DUP1 MLOAD SWAP1 PUSH1 0x20 ADD KECCAK256 EQ ISZERO PUSH2 0xD59 JUMPI DUP3 PUSH1 0x3 DUP4 DUP2 SLOAD DUP2 LT PUSH2 0xD33 JUMPI PUSH2 0xD33 PUSH2 0x2F46 JUMP JUMPDEST SWAP1 PUSH1 0x0 MSTORE PUSH1 0x20 PUSH1 0x0 KECCAK256 SWAP1 PUSH1 0x5 MUL ADD PUSH1 0x4 ADD SWAP1 DUP1 MLOAD SWAP1 PUSH1 0x20 ADD SWAP1 PUSH2 0xD57 SWAP3 SWAP2 SWAP1 PUSH2 0x2665 JUMP JUMPDEST POP JUMPDEST POP DUP1 PUSH2 0xD64 DUP2 PUSH2 0x2F15 JUMP JUMPDEST SWAP2 POP POP PUSH2 0xC10 JUMP JUMPDEST POP POP POP JUMP JUMPDEST PUSH1 0x8 PUSH1 0xB DUP4 DUP2 SLOAD DUP2 LT PUSH2 0xD86 JUMPI PUSH2 0xD86 PUSH2 0x2F46 JUMP JUMPDEST SWAP1 PUSH1 0x0 MSTORE PUSH1 0x20 PUSH1 0x0 KECCAK256 SWAP1 PUSH1 0x3 MUL ADD PUSH1 0x1 ADD PUSH1 0x40 MLOAD PUSH2 0xDA4 SWAP2 SWAP1 PUSH2 0x2B06 JUMP JUMPDEST SWAP1 DUP2 MSTORE PUSH1 0x40 MLOAD SWAP1 DUP2 SWAP1 SUB PUSH1 0x20 ADD SWAP1 KECCAK256 SLOAD CALLER PUSH1 0x1 PUSH1 0x1 PUSH1 0xA0 SHL SUB SWAP1 SWAP2 AND EQ PUSH2 0xDDD JUMPI PUSH1 0x40 MLOAD PUSH3 0x461BCD PUSH1 0xE5 SHL DUP2 MSTORE PUSH1 0x4 ADD PUSH2 0x77A SWAP1 PUSH2 0x2DB7 JUMP JUMPDEST PUSH1 0x1 DUP2 ISZERO ISZERO EQ ISZERO PUSH2 0xE7D JUMPI PUSH1 0xB DUP3 DUP2 SLOAD DUP2 LT PUSH2 0xDFB JUMPI PUSH2 0xDFB PUSH2 0x2F46 JUMP JUMPDEST PUSH1 0x0 SWAP2 DUP3 MSTORE PUSH1 0x20 DUP3 KECCAK256 PUSH1 0x3 SWAP1 SWAP2 MUL ADD SLOAD PUSH1 0x40 MLOAD PUSH1 0x1 PUSH1 0x1 PUSH1 0xA0 SHL SUB SWAP1 SWAP2 AND SWAP2 CALLVALUE DUP1 ISZERO PUSH2 0x8FC MUL SWAP3 SWAP1 SWAP2 DUP2 DUP2 DUP2 DUP6 DUP9 DUP9 CALL SWAP4 POP POP POP POP ISZERO DUP1 ISZERO PUSH2 0xE41 JUMPI RETURNDATASIZE PUSH1 0x0 DUP1 RETURNDATACOPY RETURNDATASIZE PUSH1 0x0 REVERT JUMPDEST POP PUSH1 0x0 PUSH1 0xB DUP4 DUP2 SLOAD DUP2 LT PUSH2 0xE57 JUMPI PUSH2 0xE57 PUSH2 0x2F46 JUMP JUMPDEST PUSH1 0x0 SWAP2 DUP3 MSTORE PUSH1 0x20 SWAP1 SWAP2 KECCAK256 PUSH1 0x3 SWAP1 SWAP2 MUL ADD PUSH1 0x2 ADD DUP1 SLOAD PUSH1 0xFF NOT AND SWAP2 ISZERO ISZERO SWAP2 SWAP1 SWAP2 OR SWAP1 SSTORE POP POP JUMP JUMPDEST DUP1 PUSH2 0x875 JUMPI PUSH1 0x0 PUSH1 0xB DUP4 DUP2 SLOAD DUP2 LT PUSH2 0xE57 JUMPI PUSH2 0xE57 PUSH2 0x2F46 JUMP JUMPDEST PUSH1 0x0 DUP1 PUSH1 0x0 PUSH1 0x1 DUP5 PUSH1 0x40 MLOAD PUSH2 0xEAC SWAP2 SWAP1 PUSH2 0x2AEA JUMP JUMPDEST SWAP1 DUP2 MSTORE PUSH1 0x40 DUP1 MLOAD PUSH1 0x20 SWAP3 DUP2 SWAP1 SUB DUP4 ADD SWAP1 KECCAK256 SLOAD PUSH1 0x1 PUSH1 0x1 PUSH1 0xA0 SHL SUB AND DUP4 MSTORE SWAP1 DUP3 ADD SWAP3 SWAP1 SWAP3 MSTORE ADD PUSH1 0x0 KECCAK256 PUSH1 0x3 ADD SLOAD PUSH1 0xFF AND SWAP3 SWAP2 POP POP JUMP JUMPDEST PUSH1 0x0 PUSH1 0x4 PUSH1 0x0 PUSH1 0x5 DUP5 PUSH1 0x40 MLOAD PUSH2 0x6D1 SWAP2 SWAP1 PUSH2 0x2AEA JUMP JUMPDEST PUSH1 0x60 PUSH1 0x0 DUP1 PUSH1 0x1 DUP5 PUSH1 0x40 MLOAD PUSH2 0xF0C SWAP2 SWAP1 PUSH2 0x2AEA JUMP JUMPDEST SWAP1 DUP2 MSTORE PUSH1 0x40 DUP1 MLOAD PUSH1 0x20 SWAP3 DUP2 SWAP1 SUB DUP4 ADD SWAP1 KECCAK256 SLOAD PUSH1 0x1 PUSH1 0x1 PUSH1 0xA0 SHL SUB AND DUP4 MSTORE SWAP1 DUP3 ADD SWAP3 SWAP1 SWAP3 MSTORE ADD PUSH1 0x0 KECCAK256 PUSH1 0x5 ADD DUP1 SLOAD PUSH2 0xF42 SWAP1 PUSH2 0x2EDA JUMP JUMPDEST DUP1 PUSH1 0x1F ADD PUSH1 0x20 DUP1 SWAP2 DIV MUL PUSH1 0x20 ADD PUSH1 0x40 MLOAD SWAP1 DUP2 ADD PUSH1 0x40 MSTORE DUP1 SWAP3 SWAP2 SWAP1 DUP2 DUP2 MSTORE PUSH1 0x20 ADD DUP3 DUP1 SLOAD PUSH2 0xF6E SWAP1 PUSH2 0x2EDA JUMP JUMPDEST DUP1 ISZERO PUSH2 0xFBB JUMPI DUP1 PUSH1 0x1F LT PUSH2 0xF90 JUMPI PUSH2 0x100 DUP1 DUP4 SLOAD DIV MUL DUP4 MSTORE SWAP2 PUSH1 0x20 ADD SWAP2 PUSH2 0xFBB JUMP JUMPDEST DUP3 ADD SWAP2 SWAP1 PUSH1 0x0 MSTORE PUSH1 0x20 PUSH1 0x0 KECCAK256 SWAP1 JUMPDEST DUP2 SLOAD DUP2 MSTORE SWAP1 PUSH1 0x1 ADD SWAP1 PUSH1 0x20 ADD DUP1 DUP4 GT PUSH2 0xF9E JUMPI DUP3 SWAP1 SUB PUSH1 0x1F AND DUP3 ADD SWAP2 JUMPDEST POP POP POP POP POP SWAP1 POP SWAP2 SWAP1 POP JUMP JUMPDEST PUSH1 0x0 DUP1 JUMPDEST PUSH1 0x9 SLOAD DUP2 LT ISZERO PUSH2 0x11B3 JUMPI PUSH1 0x0 PUSH1 0x9 DUP3 DUP2 SLOAD DUP2 LT PUSH2 0xFEA JUMPI PUSH2 0xFEA PUSH2 0x2F46 JUMP JUMPDEST SWAP1 PUSH1 0x0 MSTORE PUSH1 0x20 PUSH1 0x0 KECCAK256 ADD DUP1 SLOAD PUSH2 0xFFF SWAP1 PUSH2 0x2EDA JUMP JUMPDEST DUP1 PUSH1 0x1F ADD PUSH1 0x20 DUP1 SWAP2 DIV MUL PUSH1 0x20 ADD PUSH1 0x40 MLOAD SWAP1 DUP2 ADD PUSH1 0x40 MSTORE DUP1 SWAP3 SWAP2 SWAP1 DUP2 DUP2 MSTORE PUSH1 0x20 ADD DUP3 DUP1 SLOAD PUSH2 0x102B SWAP1 PUSH2 0x2EDA JUMP JUMPDEST DUP1 ISZERO PUSH2 0x1078 JUMPI DUP1 PUSH1 0x1F LT PUSH2 0x104D JUMPI PUSH2 0x100 DUP1 DUP4 SLOAD DIV MUL DUP4 MSTORE SWAP2 PUSH1 0x20 ADD SWAP2 PUSH2 0x1078 JUMP JUMPDEST DUP3 ADD SWAP2 SWAP1 PUSH1 0x0 MSTORE PUSH1 0x20 PUSH1 0x0 KECCAK256 SWAP1 JUMPDEST DUP2 SLOAD DUP2 MSTORE SWAP1 PUSH1 0x1 ADD SWAP1 PUSH1 0x20 ADD DUP1 DUP4 GT PUSH2 0x105B JUMPI DUP3 SWAP1 SUB PUSH1 0x1F AND DUP3 ADD SWAP2 JUMPDEST POP POP POP POP POP SWAP1 POP DUP4 PUSH1 0x40 MLOAD PUSH1 0x20 ADD PUSH2 0x1090 SWAP2 SWAP1 PUSH2 0x2AEA JUMP JUMPDEST PUSH1 0x40 MLOAD PUSH1 0x20 DUP2 DUP4 SUB SUB DUP2 MSTORE SWAP1 PUSH1 0x40 MSTORE DUP1 MLOAD SWAP1 PUSH1 0x20 ADD KECCAK256 DUP2 PUSH1 0x40 MLOAD PUSH1 0x20 ADD PUSH2 0x10B7 SWAP2 SWAP1 PUSH2 0x2AEA JUMP JUMPDEST PUSH1 0x40 MLOAD PUSH1 0x20 DUP2 DUP4 SUB SUB DUP2 MSTORE SWAP1 PUSH1 0x40 MSTORE DUP1 MLOAD SWAP1 PUSH1 0x20 ADD KECCAK256 EQ ISZERO PUSH2 0x11A0 JUMPI PUSH1 0x40 DUP1 MLOAD PUSH1 0x60 DUP2 ADD DUP3 MSTORE CALLER DUP2 MSTORE PUSH1 0x20 DUP1 DUP3 ADD DUP8 DUP2 MSTORE PUSH1 0x1 SWAP4 DUP4 ADD DUP5 SWAP1 MSTORE PUSH1 0xC DUP1 SLOAD SWAP5 DUP6 ADD DUP2 SSTORE PUSH1 0x0 MSTORE DUP3 MLOAD PUSH32 0xDF6966C971051C3D54EC59162606531493A51404A002842F56009D7E5CF4A8C7 PUSH1 0x3 SWAP1 SWAP6 MUL SWAP5 DUP6 ADD DUP1 SLOAD PUSH1 0x1 PUSH1 0x1 PUSH1 0xA0 SHL SUB NOT AND PUSH1 0x1 PUSH1 0x1 PUSH1 0xA0 SHL SUB SWAP1 SWAP3 AND SWAP2 SWAP1 SWAP2 OR DUP2 SSTORE SWAP1 MLOAD DUP1 MLOAD SWAP4 SWAP5 SWAP2 SWAP4 PUSH2 0x117F SWAP4 PUSH32 0xDF6966C971051C3D54EC59162606531493A51404A002842F56009D7E5CF4A8C8 SWAP1 SWAP4 ADD SWAP3 SWAP2 SWAP1 SWAP2 ADD SWAP1 PUSH2 0x25E1 JUMP JUMPDEST POP PUSH1 0x40 SWAP2 SWAP1 SWAP2 ADD MLOAD PUSH1 0x2 SWAP1 SWAP2 ADD DUP1 SLOAD PUSH1 0xFF NOT AND SWAP2 ISZERO ISZERO SWAP2 SWAP1 SWAP2 OR SWAP1 SSTORE PUSH1 0x1 SWAP3 POP JUMPDEST POP DUP1 PUSH2 0x11AB DUP2 PUSH2 0x2F15 JUMP JUMPDEST SWAP2 POP POP PUSH2 0xFCB JUMP JUMPDEST POP PUSH1 0x1 DUP2 ISZERO ISZERO EQ PUSH2 0x875 JUMPI PUSH1 0x40 MLOAD PUSH3 0x461BCD PUSH1 0xE5 SHL DUP2 MSTORE PUSH1 0x20 PUSH1 0x4 DUP3 ADD MSTORE PUSH1 0x1F PUSH1 0x24 DUP3 ADD MSTORE PUSH32 0x6572726F723A207468657265206973206E6F20737563682070726F6475637400 PUSH1 0x44 DUP3 ADD MSTORE PUSH1 0x64 ADD PUSH2 0x77A JUMP JUMPDEST PUSH1 0x0 PUSH1 0x4 PUSH1 0x0 PUSH1 0x5 DUP5 PUSH1 0x40 MLOAD PUSH2 0xEAC SWAP2 SWAP1 PUSH2 0x2AEA JUMP JUMPDEST PUSH1 0x0 PUSH1 0x4 PUSH1 0x0 PUSH1 0x5 DUP5 PUSH1 0x40 MLOAD PUSH2 0x68A SWAP2 SWAP1 PUSH2 0x2AEA JUMP JUMPDEST PUSH1 0x0 DUP1 PUSH1 0x0 PUSH1 0x1 PUSH1 0x1 PUSH1 0xA0 SHL SUB AND PUSH1 0x5 DUP5 PUSH1 0x40 MLOAD PUSH2 0x1250 SWAP2 SWAP1 PUSH2 0x2AEA JUMP JUMPDEST SWAP1 DUP2 MSTORE PUSH1 0x40 MLOAD SWAP1 DUP2 SWAP1 SUB PUSH1 0x20 ADD SWAP1 KECCAK256 SLOAD PUSH1 0x1 PUSH1 0x1 PUSH1 0xA0 SHL SUB AND EQ PUSH2 0x129E JUMPI PUSH1 0x5 DUP4 PUSH1 0x40 MLOAD PUSH2 0x127E SWAP2 SWAP1 PUSH2 0x2AEA JUMP JUMPDEST SWAP1 DUP2 MSTORE PUSH1 0x40 MLOAD SWAP1 DUP2 SWAP1 SUB PUSH1 0x20 ADD SWAP1 KECCAK256 SLOAD PUSH1 0x1 PUSH1 0x1 PUSH1 0xA0 SHL SUB AND SWAP1 POP PUSH2 0x12CA JUMP JUMPDEST PUSH1 0x1 DUP4 PUSH1 0x40 MLOAD PUSH2 0x12AE SWAP2 SWAP1 PUSH2 0x2AEA JUMP JUMPDEST SWAP1 DUP2 MSTORE PUSH1 0x40 MLOAD SWAP1 DUP2 SWAP1 SUB PUSH1 0x20 ADD SWAP1 KECCAK256 SLOAD PUSH1 0x1 PUSH1 0x1 PUSH1 0xA0 SHL SUB AND SWAP1 POP JUMPDEST SWAP3 SWAP2 POP POP JUMP JUMPDEST PUSH1 0x40 DUP1 MLOAD PUSH1 0x80 DUP2 ADD DUP3 MSTORE CALLER DUP2 MSTORE PUSH1 0x20 DUP2 ADD DUP4 SWAP1 MSTORE SWAP1 DUP2 ADD PUSH2 0x12F9 DUP5 PUSH8 0xDE0B6B3A7640000 PUSH2 0x2E8F JUMP JUMPDEST DUP2 MSTORE PUSH1 0x20 ADD PUSH1 0xD SLOAD DUP2 MSTORE POP PUSH1 0x8 DUP5 PUSH1 0x40 MLOAD PUSH2 0x1314 SWAP2 SWAP1 PUSH2 0x2AEA JUMP JUMPDEST SWAP1 DUP2 MSTORE PUSH1 0x40 MLOAD PUSH1 0x20 SWAP2 DUP2 SWAP1 SUB DUP3 ADD SWAP1 KECCAK256 DUP3 MLOAD DUP2 SLOAD PUSH1 0x1 PUSH1 0x1 PUSH1 0xA0 SHL SUB NOT AND PUSH1 0x1 PUSH1 0x1 PUSH1 0xA0 SHL SUB SWAP1 SWAP2 AND OR DUP2 SSTORE DUP3 DUP3 ADD MLOAD DUP1 MLOAD SWAP2 SWAP3 PUSH2 0x135A SWAP3 PUSH1 0x1 DUP6 ADD SWAP3 SWAP1 SWAP2 ADD SWAP1 PUSH2 0x25E1 JUMP JUMPDEST POP PUSH1 0x40 DUP3 ADD MLOAD PUSH1 0x2 DUP3 ADD SSTORE PUSH1 0x60 SWAP1 SWAP2 ADD MLOAD PUSH1 0x3 SWAP1 SWAP2 ADD SSTORE PUSH1 0x9 DUP1 SLOAD PUSH1 0x1 DUP2 ADD DUP3 SSTORE PUSH1 0x0 SWAP2 SWAP1 SWAP2 MSTORE DUP4 MLOAD PUSH2 0x13B4 SWAP2 PUSH32 0x6E1540171B6C0C960B71A7020D9F60077F6AF931A8BBF590DA0223DACF75C7AF ADD SWAP1 PUSH1 0x20 DUP7 ADD SWAP1 PUSH2 0x25E1 JUMP JUMPDEST POP PUSH1 0xD DUP1 SLOAD SWAP1 PUSH1 0x0 PUSH2 0x13C5 DUP4 PUSH2 0x2F15 JUMP JUMPDEST SWAP2 SWAP1 POP SSTORE POP POP POP POP JUMP JUMPDEST PUSH1 0xA DUP2 DUP2 SLOAD DUP2 LT PUSH2 0x13E2 JUMPI PUSH2 0x13E2 PUSH2 0x2F46 JUMP JUMPDEST PUSH1 0x0 SWAP2 DUP3 MSTORE PUSH1 0x20 SWAP1 SWAP2 KECCAK256 PUSH1 0x4 SWAP1 SWAP2 MUL ADD SLOAD PUSH1 0x1 PUSH1 0x1 PUSH1 0xA0 SHL SUB AND CALLER EQ PUSH2 0x1446 JUMPI PUSH1 0x40 MLOAD PUSH3 0x461BCD PUSH1 0xE5 SHL DUP2 MSTORE PUSH1 0x20 PUSH1 0x4 DUP3 ADD MSTORE PUSH1 0x19 PUSH1 0x24 DUP3 ADD MSTORE PUSH25 0x32B93937B91D103CB7B9103737BA1036B9B39739B2B73232B9 PUSH1 0x39 SHL PUSH1 0x44 DUP3 ADD MSTORE PUSH1 0x64 ADD PUSH2 0x77A JUMP JUMPDEST CALLER PUSH1 0x1 PUSH1 0x1 PUSH1 0xA0 SHL SUB AND PUSH2 0x8FC PUSH1 0xA DUP4 DUP2 SLOAD DUP2 LT PUSH2 0x1466 JUMPI PUSH2 0x1466 PUSH2 0x2F46 JUMP JUMPDEST SWAP1 PUSH1 0x0 MSTORE PUSH1 0x20 PUSH1 0x0 KECCAK256 SWAP1 PUSH1 0x4 MUL ADD PUSH1 0x2 ADD SLOAD SWAP1 DUP2 ISZERO MUL SWAP1 PUSH1 0x40 MLOAD PUSH1 0x0 PUSH1 0x40 MLOAD DUP1 DUP4 SUB DUP2 DUP6 DUP9 DUP9 CALL SWAP4 POP POP POP POP ISZERO DUP1 ISZERO PUSH2 0x14A3 JUMPI RETURNDATASIZE PUSH1 0x0 DUP1 RETURNDATACOPY RETURNDATASIZE PUSH1 0x0 REVERT JUMPDEST POP PUSH1 0x0 PUSH1 0xA DUP3 DUP2 SLOAD DUP2 LT PUSH2 0x14B9 JUMPI PUSH2 0x14B9 PUSH2 0x2F46 JUMP JUMPDEST PUSH1 0x0 SWAP2 DUP3 MSTORE PUSH1 0x20 SWAP1 SWAP2 KECCAK256 PUSH1 0x4 SWAP1 SWAP2 MUL ADD PUSH1 0x3 ADD DUP1 SLOAD PUSH1 0xFF NOT AND SWAP2 ISZERO ISZERO SWAP2 SWAP1 SWAP2 OR SWAP1 SSTORE POP JUMP JUMPDEST PUSH1 0xC DUP2 DUP2 SLOAD DUP2 LT PUSH2 0x14EE JUMPI PUSH1 0x0 DUP1 REVERT JUMPDEST PUSH1 0x0 SWAP2 DUP3 MSTORE PUSH1 0x20 SWAP1 SWAP2 KECCAK256 PUSH1 0x3 SWAP1 SWAP2 MUL ADD DUP1 SLOAD PUSH1 0x1 DUP3 ADD DUP1 SLOAD PUSH1 0x1 PUSH1 0x1 PUSH1 0xA0 SHL SUB SWAP1 SWAP3 AND SWAP4 POP SWAP1 PUSH2 0x151D SWAP1 PUSH2 0x2EDA JUMP JUMPDEST DUP1 PUSH1 0x1F ADD PUSH1 0x20 DUP1 SWAP2 DIV MUL PUSH1 0x20 ADD PUSH1 0x40 MLOAD SWAP1 DUP2 ADD PUSH1 0x40 MSTORE DUP1 SWAP3 SWAP2 SWAP1 DUP2 DUP2 MSTORE PUSH1 0x20 ADD DUP3 DUP1 SLOAD PUSH2 0x1549 SWAP1 PUSH2 0x2EDA JUMP JUMPDEST DUP1 ISZERO PUSH2 0x1596 JUMPI DUP1 PUSH1 0x1F LT PUSH2 0x156B JUMPI PUSH2 0x100 DUP1 DUP4 SLOAD DIV MUL DUP4 MSTORE SWAP2 PUSH1 0x20 ADD SWAP2 PUSH2 0x1596 JUMP JUMPDEST DUP3 ADD SWAP2 SWAP1 PUSH1 0x0 MSTORE PUSH1 0x20 PUSH1 0x0 KECCAK256 SWAP1 JUMPDEST DUP2 SLOAD DUP2 MSTORE SWAP1 PUSH1 0x1 ADD SWAP1 PUSH1 0x20 ADD DUP1 DUP4 GT PUSH2 0x1579 JUMPI DUP3 SWAP1 SUB PUSH1 0x1F AND DUP3 ADD SWAP2 JUMPDEST POP POP POP PUSH1 0x2 SWAP1 SWAP4 ADD SLOAD SWAP2 SWAP3 POP POP PUSH1 0xFF AND DUP4 JUMP JUMPDEST PUSH1 0x0 DUP1 PUSH1 0x1 DUP5 PUSH1 0x40 MLOAD PUSH2 0x15BC SWAP2 SWAP1 PUSH2 0x2AEA JUMP JUMPDEST SWAP1 DUP2 MSTORE PUSH1 0x40 DUP1 MLOAD PUSH1 0x20 SWAP3 DUP2 SWAP1 SUB DUP4 ADD SWAP1 KECCAK256 SLOAD PUSH1 0x1 PUSH1 0x1 PUSH1 0xA0 SHL SUB AND DUP4 MSTORE SWAP1 DUP3 ADD SWAP3 SWAP1 SWAP3 MSTORE ADD PUSH1 0x0 KECCAK256 PUSH1 0x3 ADD SLOAD PUSH1 0xFF AND ISZERO PUSH2 0x1608 JUMPI PUSH1 0x40 MLOAD PUSH3 0x461BCD PUSH1 0xE5 SHL DUP2 MSTORE PUSH1 0x4 ADD PUSH2 0x77A SWAP1 PUSH2 0x2DEE JUMP JUMPDEST PUSH1 0x0 PUSH1 0x1 PUSH1 0x1 PUSH1 0xA0 SHL SUB AND PUSH1 0x1 DUP4 PUSH1 0x40 MLOAD PUSH2 0x1623 SWAP2 SWAP1 PUSH2 0x2AEA JUMP JUMPDEST SWAP1 DUP2 MSTORE PUSH1 0x40 MLOAD SWAP1 DUP2 SWAP1 SUB PUSH1 0x20 ADD SWAP1 KECCAK256 SLOAD PUSH1 0x1 PUSH1 0x1 PUSH1 0xA0 SHL SUB AND EQ ISZERO PUSH2 0x165A JUMPI PUSH1 0x40 MLOAD PUSH3 0x461BCD PUSH1 0xE5 SHL DUP2 MSTORE PUSH1 0x4 ADD PUSH2 0x77A SWAP1 PUSH2 0x2D84 JUMP JUMPDEST DUP1 PUSH1 0x0 DUP1 PUSH1 0x1 DUP6 PUSH1 0x40 MLOAD PUSH2 0x166E SWAP2 SWAP1 PUSH2 0x2AEA JUMP JUMPDEST SWAP1 DUP2 MSTORE PUSH1 0x40 DUP1 MLOAD PUSH1 0x20 SWAP3 DUP2 SWAP1 SUB DUP4 ADD SWAP1 KECCAK256 SLOAD PUSH1 0x1 PUSH1 0x1 PUSH1 0xA0 SHL SUB AND DUP4 MSTORE SWAP1 DUP3 ADD SWAP3 SWAP1 SWAP3 MSTORE ADD PUSH1 0x0 KECCAK256 PUSH1 0x1 ADD SLOAD EQ PUSH2 0x16B7 JUMPI PUSH1 0x40 MLOAD PUSH3 0x461BCD PUSH1 0xE5 SHL DUP2 MSTORE PUSH1 0x4 ADD PUSH2 0x77A SWAP1 PUSH2 0x2D53 JUMP JUMPDEST PUSH1 0x1 PUSH1 0x0 DUP1 PUSH1 0x1 DUP6 PUSH1 0x40 MLOAD PUSH2 0x16CC SWAP2 SWAP1 PUSH2 0x2AEA JUMP JUMPDEST SWAP1 DUP2 MSTORE PUSH1 0x40 DUP1 MLOAD PUSH1 0x20 SWAP3 DUP2 SWAP1 SUB DUP4 ADD SWAP1 KECCAK256 SLOAD PUSH1 0x1 PUSH1 0x1 PUSH1 0xA0 SHL SUB AND DUP4 MSTORE SWAP1 DUP3 ADD SWAP3 SWAP1 SWAP3 MSTORE ADD PUSH1 0x0 KECCAK256 PUSH1 0x3 ADD DUP1 SLOAD PUSH1 0xFF NOT AND SWAP2 ISZERO ISZERO SWAP2 SWAP1 SWAP2 OR SWAP1 SSTORE POP POP JUMP JUMPDEST PUSH1 0x60 PUSH1 0x0 PUSH2 0x1717 DUP4 PUSH2 0x1232 JUMP JUMPDEST SWAP1 POP PUSH1 0x60 PUSH1 0x0 JUMPDEST PUSH1 0x9 SLOAD DUP2 LT ISZERO PUSH2 0x1883 JUMPI PUSH1 0x0 PUSH1 0x9 DUP3 DUP2 SLOAD DUP2 LT PUSH2 0x173D JUMPI PUSH2 0x173D PUSH2 0x2F46 JUMP JUMPDEST SWAP1 PUSH1 0x0 MSTORE PUSH1 0x20 PUSH1 0x0 KECCAK256 ADD DUP1 SLOAD PUSH2 0x1752 SWAP1 PUSH2 0x2EDA JUMP JUMPDEST DUP1 PUSH1 0x1F ADD PUSH1 0x20 DUP1 SWAP2 DIV MUL PUSH1 0x20 ADD PUSH1 0x40 MLOAD SWAP1 DUP2 ADD PUSH1 0x40 MSTORE DUP1 SWAP3 SWAP2 SWAP1 DUP2 DUP2 MSTORE PUSH1 0x20 ADD DUP3 DUP1 SLOAD PUSH2 0x177E SWAP1 PUSH2 0x2EDA JUMP JUMPDEST DUP1 ISZERO PUSH2 0x17CB JUMPI DUP1 PUSH1 0x1F LT PUSH2 0x17A0 JUMPI PUSH2 0x100 DUP1 DUP4 SLOAD DIV MUL DUP4 MSTORE SWAP2 PUSH1 0x20 ADD SWAP2 PUSH2 0x17CB JUMP JUMPDEST DUP3 ADD SWAP2 SWAP1 PUSH1 0x0 MSTORE PUSH1 0x20 PUSH1 0x0 KECCAK256 SWAP1 JUMPDEST DUP2 SLOAD DUP2 MSTORE SWAP1 PUSH1 0x1 ADD SWAP1 PUSH1 0x20 ADD DUP1 DUP4 GT PUSH2 0x17AE JUMPI DUP3 SWAP1 SUB PUSH1 0x1F AND DUP3 ADD SWAP2 JUMPDEST POP POP POP POP POP SWAP1 POP PUSH1 0x0 PUSH1 0x8 DUP3 PUSH1 0x40 MLOAD PUSH2 0x17E4 SWAP2 SWAP1 PUSH2 0x2AEA JUMP JUMPDEST SWAP1 DUP2 MSTORE PUSH1 0x40 MLOAD PUSH1 0x20 SWAP2 DUP2 SWAP1 SUB DUP3 ADD DUP2 KECCAK256 SLOAD PUSH1 0x1 PUSH1 0x1 PUSH1 0xA0 SHL SUB AND SWAP3 POP PUSH2 0x180C SWAP2 DUP4 SWAP2 ADD PUSH2 0x2AD2 JUMP JUMPDEST PUSH1 0x40 MLOAD PUSH1 0x20 DUP2 DUP4 SUB SUB DUP2 MSTORE SWAP1 PUSH1 0x40 MSTORE DUP1 MLOAD SWAP1 PUSH1 0x20 ADD KECCAK256 DUP6 PUSH1 0x40 MLOAD PUSH1 0x20 ADD PUSH2 0x1833 SWAP2 SWAP1 PUSH2 0x2AD2 JUMP JUMPDEST PUSH1 0x40 MLOAD PUSH1 0x20 DUP2 DUP4 SUB SUB DUP2 MSTORE SWAP1 PUSH1 0x40 MSTORE DUP1 MLOAD SWAP1 PUSH1 0x20 ADD KECCAK256 EQ ISZERO PUSH2 0x186E JUMPI DUP2 DUP5 DUP5 DUP2 MLOAD DUP2 LT PUSH2 0x1862 JUMPI PUSH2 0x1862 PUSH2 0x2F46 JUMP JUMPDEST PUSH1 0x20 MUL PUSH1 0x20 ADD ADD DUP2 SWAP1 MSTORE POP JUMPDEST POP POP DUP1 DUP1 PUSH2 0x187B SWAP1 PUSH2 0x2F15 JUMP JUMPDEST SWAP2 POP POP PUSH2 0x171E JUMP JUMPDEST POP SWAP4 SWAP3 POP POP POP JUMP JUMPDEST PUSH1 0x0 DUP2 PUSH1 0x40 MLOAD PUSH1 0x20 ADD PUSH2 0x189E SWAP2 SWAP1 PUSH2 0x2AEA JUMP JUMPDEST PUSH1 0x40 MLOAD PUSH1 0x20 DUP2 DUP4 SUB SUB DUP2 MSTORE SWAP1 PUSH1 0x40 MSTORE DUP1 MLOAD SWAP1 PUSH1 0x20 ADD KECCAK256 SWAP1 POP SWAP2 SWAP1 POP JUMP JUMPDEST PUSH1 0x8 PUSH1 0xC DUP4 DUP2 SLOAD DUP2 LT PUSH2 0x18D0 JUMPI PUSH2 0x18D0 PUSH2 0x2F46 JUMP JUMPDEST SWAP1 PUSH1 0x0 MSTORE PUSH1 0x20 PUSH1 0x0 KECCAK256 SWAP1 PUSH1 0x3 MUL ADD PUSH1 0x1 ADD PUSH1 0x40 MLOAD PUSH2 0x18EE SWAP2 SWAP1 PUSH2 0x2B06 JUMP JUMPDEST SWAP1 DUP2 MSTORE PUSH1 0x40 MLOAD SWAP1 DUP2 SWAP1 SUB PUSH1 0x20 ADD SWAP1 KECCAK256 SLOAD CALLER PUSH1 0x1 PUSH1 0x1 PUSH1 0xA0 SHL SUB SWAP1 SWAP2 AND EQ PUSH2 0x1927 JUMPI PUSH1 0x40 MLOAD PUSH3 0x461BCD PUSH1 0xE5 SHL DUP2 MSTORE PUSH1 0x4 ADD PUSH2 0x77A SWAP1 PUSH2 0x2DB7 JUMP JUMPDEST PUSH1 0x1 DUP2 ISZERO ISZERO EQ ISZERO PUSH2 0x19A1 JUMPI PUSH1 0xC DUP3 DUP2 SLOAD DUP2 LT PUSH2 0x1945 JUMPI PUSH2 0x1945 PUSH2 0x2F46 JUMP JUMPDEST PUSH1 0x0 SWAP2 DUP3 MSTORE PUSH1 0x20 DUP3 KECCAK256 PUSH1 0x3 SWAP1 SWAP2 MUL ADD SLOAD PUSH1 0x40 MLOAD PUSH1 0x1 PUSH1 0x1 PUSH1 0xA0 SHL SUB SWAP1 SWAP2 AND SWAP2 CALLVALUE DUP1 ISZERO PUSH2 0x8FC MUL SWAP3 SWAP1 SWAP2 DUP2 DUP2 DUP2 DUP6 DUP9 DUP9 CALL SWAP4 POP POP POP POP ISZERO DUP1 ISZERO PUSH2 0x198B JUMPI RETURNDATASIZE PUSH1 0x0 DUP1 RETURNDATACOPY RETURNDATASIZE PUSH1 0x0 REVERT JUMPDEST POP PUSH1 0x0 PUSH1 0xC DUP4 DUP2 SLOAD DUP2 LT PUSH2 0xE57 JUMPI PUSH2 0xE57 PUSH2 0x2F46 JUMP JUMPDEST DUP1 PUSH2 0x875 JUMPI PUSH1 0x0 PUSH1 0xC DUP4 DUP2 SLOAD DUP2 LT PUSH2 0xE57 JUMPI PUSH2 0xE57 PUSH2 0x2F46 JUMP JUMPDEST PUSH1 0x0 PUSH1 0x20 DUP2 SWAP1 MSTORE SWAP1 DUP2 MSTORE PUSH1 0x40 SWAP1 KECCAK256 DUP1 SLOAD DUP2 SWAP1 PUSH2 0x19D6 SWAP1 PUSH2 0x2EDA JUMP JUMPDEST DUP1 PUSH1 0x1F ADD PUSH1 0x20 DUP1 SWAP2 DIV MUL PUSH1 0x20 ADD PUSH1 0x40 MLOAD SWAP1 DUP2 ADD PUSH1 0x40 MSTORE DUP1 SWAP3 SWAP2 SWAP1 DUP2 DUP2 MSTORE PUSH1 0x20 ADD DUP3 DUP1 SLOAD PUSH2 0x1A02 SWAP1 PUSH2 0x2EDA JUMP JUMPDEST DUP1 ISZERO PUSH2 0x1A4F JUMPI DUP1 PUSH1 0x1F LT PUSH2 0x1A24 JUMPI PUSH2 0x100 DUP1 DUP4 SLOAD DIV MUL DUP4 MSTORE SWAP2 PUSH1 0x20 ADD SWAP2 PUSH2 0x1A4F JUMP JUMPDEST DUP3 ADD SWAP2 SWAP1 PUSH1 0x0 MSTORE PUSH1 0x20 PUSH1 0x0 KECCAK256 SWAP1 JUMPDEST DUP2 SLOAD DUP2 MSTORE SWAP1 PUSH1 0x1 ADD SWAP1 PUSH1 0x20 ADD DUP1 DUP4 GT PUSH2 0x1A32 JUMPI DUP3 SWAP1 SUB PUSH1 0x1F AND DUP3 ADD SWAP2 JUMPDEST POP POP POP PUSH1 0x1 DUP5 ADD SLOAD PUSH1 0x2 DUP6 ADD SLOAD PUSH1 0x3 DUP7 ADD SLOAD PUSH1 0x4 DUP8 ADD DUP1 SLOAD SWAP7 SWAP8 SWAP4 SWAP7 SWAP3 SWAP6 POP PUSH1 0xFF SWAP1 SWAP2 AND SWAP4 POP SWAP1 PUSH2 0x1A7F SWAP1 PUSH2 0x2EDA JUMP JUMPDEST DUP1 PUSH1 0x1F ADD PUSH1 0x20 DUP1 SWAP2 DIV MUL PUSH1 0x20 ADD PUSH1 0x40 MLOAD SWAP1 DUP2 ADD PUSH1 0x40 MSTORE DUP1 SWAP3 SWAP2 SWAP1 DUP2 DUP2 MSTORE PUSH1 0x20 ADD DUP3 DUP1 SLOAD PUSH2 0x1AAB SWAP1 PUSH2 0x2EDA JUMP JUMPDEST DUP1 ISZERO PUSH2 0x1AF8 JUMPI DUP1 PUSH1 0x1F LT PUSH2 0x1ACD JUMPI PUSH2 0x100 DUP1 DUP4 SLOAD DIV MUL DUP4 MSTORE SWAP2 PUSH1 0x20 ADD SWAP2 PUSH2 0x1AF8 JUMP JUMPDEST DUP3 ADD SWAP2 SWAP1 PUSH1 0x0 MSTORE PUSH1 0x20 PUSH1 0x0 KECCAK256 SWAP1 JUMPDEST DUP2 SLOAD DUP2 MSTORE SWAP1 PUSH1 0x1 ADD SWAP1 PUSH1 0x20 ADD DUP1 DUP4 GT PUSH2 0x1ADB JUMPI DUP3 SWAP1 SUB PUSH1 0x1F AND DUP3 ADD SWAP2 JUMPDEST POP POP POP POP POP SWAP1 DUP1 PUSH1 0x5 ADD DUP1 SLOAD PUSH2 0x1B0D SWAP1 PUSH2 0x2EDA JUMP JUMPDEST DUP1 PUSH1 0x1F ADD PUSH1 0x20 DUP1 SWAP2 DIV MUL PUSH1 0x20 ADD PUSH1 0x40 MLOAD SWAP1 DUP2 ADD PUSH1 0x40 MSTORE DUP1 SWAP3 SWAP2 SWAP1 DUP2 DUP2 MSTORE PUSH1 0x20 ADD DUP3 DUP1 SLOAD PUSH2 0x1B39 SWAP1 PUSH2 0x2EDA JUMP JUMPDEST DUP1 ISZERO PUSH2 0x1B86 JUMPI DUP1 PUSH1 0x1F LT PUSH2 0x1B5B JUMPI PUSH2 0x100 DUP1 DUP4 SLOAD DIV MUL DUP4 MSTORE SWAP2 PUSH1 0x20 ADD SWAP2 PUSH2 0x1B86 JUMP JUMPDEST DUP3 ADD SWAP2 SWAP1 PUSH1 0x0 MSTORE PUSH1 0x20 PUSH1 0x0 KECCAK256 SWAP1 JUMPDEST DUP2 SLOAD DUP2 MSTORE SWAP1 PUSH1 0x1 ADD SWAP1 PUSH1 0x20 ADD DUP1 DUP4 GT PUSH2 0x1B69 JUMPI DUP3 SWAP1 SUB PUSH1 0x1F AND DUP3 ADD SWAP2 JUMPDEST POP POP POP POP POP SWAP1 DUP1 PUSH1 0x6 ADD SLOAD SWAP1 POP DUP8 JUMP JUMPDEST PUSH1 0x4 PUSH1 0x20 MSTORE PUSH1 0x0 SWAP1 DUP2 MSTORE PUSH1 0x40 SWAP1 KECCAK256 DUP1 SLOAD DUP2 SWAP1 PUSH2 0x1BB1 SWAP1 PUSH2 0x2EDA JUMP JUMPDEST DUP1 PUSH1 0x1F ADD PUSH1 0x20 DUP1 SWAP2 DIV MUL PUSH1 0x20 ADD PUSH1 0x40 MLOAD SWAP1 DUP2 ADD PUSH1 0x40 MSTORE DUP1 SWAP3 SWAP2 SWAP1 DUP2 DUP2 MSTORE PUSH1 0x20 ADD DUP3 DUP1 SLOAD PUSH2 0x1BDD SWAP1 PUSH2 0x2EDA JUMP JUMPDEST DUP1 ISZERO PUSH2 0x1C2A JUMPI DUP1 PUSH1 0x1F LT PUSH2 0x1BFF JUMPI PUSH2 0x100 DUP1 DUP4 SLOAD DIV MUL DUP4 MSTORE SWAP2 PUSH1 0x20 ADD SWAP2 PUSH2 0x1C2A JUMP JUMPDEST DUP3 ADD SWAP2 SWAP1 PUSH1 0x0 MSTORE PUSH1 0x20 PUSH1 0x0 KECCAK256 SWAP1 JUMPDEST DUP2 SLOAD DUP2 MSTORE SWAP1 PUSH1 0x1 ADD SWAP1 PUSH1 0x20 ADD DUP1 DUP4 GT PUSH2 0x1C0D JUMPI DUP3 SWAP1 SUB PUSH1 0x1F AND DUP3 ADD SWAP2 JUMPDEST POP POP POP POP PUSH1 0x1 DUP4 ADD SLOAD PUSH1 0x2 DUP5 ADD SLOAD PUSH1 0x3 SWAP1 SWAP5 ADD SLOAD SWAP3 SWAP4 SWAP1 SWAP3 SWAP1 SWAP2 POP PUSH1 0xFF AND DUP5 JUMP JUMPDEST PUSH1 0x0 DUP1 DUP1 DUP1 JUMPDEST PUSH1 0x2 SLOAD DUP2 LT ISZERO PUSH2 0x1E36 JUMPI PUSH1 0x0 PUSH1 0x2 DUP3 DUP2 SLOAD DUP2 LT PUSH2 0x1C70 JUMPI PUSH2 0x1C70 PUSH2 0x2F46 JUMP JUMPDEST SWAP1 PUSH1 0x0 MSTORE PUSH1 0x20 PUSH1 0x0 KECCAK256 ADD DUP1 SLOAD PUSH2 0x1C85 SWAP1 PUSH2 0x2EDA JUMP JUMPDEST DUP1 PUSH1 0x1F ADD PUSH1 0x20 DUP1 SWAP2 DIV MUL PUSH1 0x20 ADD PUSH1 0x40 MLOAD SWAP1 DUP2 ADD PUSH1 0x40 MSTORE DUP1 SWAP3 SWAP2 SWAP1 DUP2 DUP2 MSTORE PUSH1 0x20 ADD DUP3 DUP1 SLOAD PUSH2 0x1CB1 SWAP1 PUSH2 0x2EDA JUMP JUMPDEST DUP1 ISZERO PUSH2 0x1CFE JUMPI DUP1 PUSH1 0x1F LT PUSH2 0x1CD3 JUMPI PUSH2 0x100 DUP1 DUP4 SLOAD DIV MUL DUP4 MSTORE SWAP2 PUSH1 0x20 ADD SWAP2 PUSH2 0x1CFE JUMP JUMPDEST DUP3 ADD SWAP2 SWAP1 PUSH1 0x0 MSTORE PUSH1 0x20 PUSH1 0x0 KECCAK256 SWAP1 JUMPDEST DUP2 SLOAD DUP2 MSTORE SWAP1 PUSH1 0x1 ADD SWAP1 PUSH1 0x20 ADD DUP1 DUP4 GT PUSH2 0x1CE1 JUMPI DUP3 SWAP1 SUB PUSH1 0x1F AND DUP3 ADD SWAP2 JUMPDEST POP POP POP POP POP SWAP1 POP DUP6 PUSH1 0x40 MLOAD PUSH1 0x20 ADD PUSH2 0x1D16 SWAP2 SWAP1 PUSH2 0x2AEA JUMP JUMPDEST PUSH1 0x40 MLOAD PUSH1 0x20 DUP2 DUP4 SUB SUB DUP2 MSTORE SWAP1 PUSH1 0x40 MSTORE DUP1 MLOAD SWAP1 PUSH1 0x20 ADD KECCAK256 DUP2 PUSH1 0x40 MLOAD PUSH1 0x20 ADD PUSH2 0x1D3D SWAP2 SWAP1 PUSH2 0x2AEA JUMP JUMPDEST PUSH1 0x40 MLOAD PUSH1 0x20 DUP2 DUP4 SUB SUB DUP2 MSTORE SWAP1 PUSH1 0x40 MSTORE DUP1 MLOAD SWAP1 PUSH1 0x20 ADD KECCAK256 EQ ISZERO PUSH2 0x1E23 JUMPI PUSH1 0x0 SWAP2 POP JUMPDEST PUSH1 0x3 SLOAD DUP3 GT PUSH2 0x1E23 JUMPI PUSH1 0x3 DUP3 DUP2 SLOAD DUP2 LT PUSH2 0x1D7A JUMPI PUSH2 0x1D7A PUSH2 0x2F46 JUMP JUMPDEST SWAP1 PUSH1 0x0 MSTORE PUSH1 0x20 PUSH1 0x0 KECCAK256 SWAP1 PUSH1 0x5 MUL ADD PUSH1 0x0 ADD PUSH1 0x40 MLOAD PUSH1 0x20 ADD PUSH2 0x1D9B SWAP2 SWAP1 PUSH2 0x2B06 JUMP JUMPDEST PUSH1 0x40 MLOAD PUSH1 0x20 DUP2 DUP4 SUB SUB DUP2 MSTORE SWAP1 PUSH1 0x40 MSTORE DUP1 MLOAD SWAP1 PUSH1 0x20 ADD KECCAK256 DUP7 PUSH1 0x40 MLOAD PUSH1 0x20 ADD PUSH2 0x1DC2 SWAP2 SWAP1 PUSH2 0x2AEA JUMP JUMPDEST PUSH1 0x40 MLOAD PUSH1 0x20 DUP2 DUP4 SUB SUB DUP2 MSTORE SWAP1 PUSH1 0x40 MSTORE DUP1 MLOAD SWAP1 PUSH1 0x20 ADD KECCAK256 EQ ISZERO PUSH2 0x1E11 JUMPI PUSH1 0x3 DUP3 DUP2 SLOAD DUP2 LT PUSH2 0x1DF1 JUMPI PUSH2 0x1DF1 PUSH2 0x2F46 JUMP JUMPDEST SWAP1 PUSH1 0x0 MSTORE PUSH1 0x20 PUSH1 0x0 KECCAK256 SWAP1 PUSH1 0x5 MUL ADD PUSH1 0x3 ADD SLOAD DUP4 PUSH2 0x1E0E SWAP2 SWAP1 PUSH2 0x2E55 JUMP JUMPDEST SWAP3 POP JUMPDEST DUP2 PUSH2 0x1E1B DUP2 PUSH2 0x2F15 JUMP JUMPDEST SWAP3 POP POP PUSH2 0x1D5E JUMP JUMPDEST POP DUP1 PUSH2 0x1E2E DUP2 PUSH2 0x2F15 JUMP JUMPDEST SWAP2 POP POP PUSH2 0x1C51 JUMP JUMPDEST POP PUSH2 0x1E41 DUP3 DUP3 PUSH2 0x2E6D JUMP JUMPDEST PUSH2 0x1E4B SWAP1 DUP3 PUSH2 0x2E55 JUMP JUMPDEST SWAP5 SWAP4 POP POP POP POP JUMP JUMPDEST PUSH1 0xB DUP2 DUP2 SLOAD DUP2 LT PUSH2 0x14EE JUMPI PUSH1 0x0 DUP1 REVERT JUMPDEST PUSH1 0x0 DUP1 JUMPDEST PUSH1 0x9 SLOAD DUP2 LT ISZERO PUSH2 0x11B3 JUMPI PUSH1 0x0 PUSH1 0x9 DUP3 DUP2 SLOAD DUP2 LT PUSH2 0x1E86 JUMPI PUSH2 0x1E86 PUSH2 0x2F46 JUMP JUMPDEST SWAP1 PUSH1 0x0 MSTORE PUSH1 0x20 PUSH1 0x0 KECCAK256 ADD DUP1 SLOAD PUSH2 0x1E9B SWAP1 PUSH2 0x2EDA JUMP JUMPDEST DUP1 PUSH1 0x1F ADD PUSH1 0x20 DUP1 SWAP2 DIV MUL PUSH1 0x20 ADD PUSH1 0x40 MLOAD SWAP1 DUP2 ADD PUSH1 0x40 MSTORE DUP1 SWAP3 SWAP2 SWAP1 DUP2 DUP2 MSTORE PUSH1 0x20 ADD DUP3 DUP1 SLOAD PUSH2 0x1EC7 SWAP1 PUSH2 0x2EDA JUMP JUMPDEST DUP1 ISZERO PUSH2 0x1F14 JUMPI DUP1 PUSH1 0x1F LT PUSH2 0x1EE9 JUMPI PUSH2 0x100 DUP1 DUP4 SLOAD DIV MUL DUP4 MSTORE SWAP2 PUSH1 0x20 ADD SWAP2 PUSH2 0x1F14 JUMP JUMPDEST DUP3 ADD SWAP2 SWAP1 PUSH1 0x0 MSTORE PUSH1 0x20 PUSH1 0x0 KECCAK256 SWAP1 JUMPDEST DUP2 SLOAD DUP2 MSTORE SWAP1 PUSH1 0x1 ADD SWAP1 PUSH1 0x20 ADD DUP1 DUP4 GT PUSH2 0x1EF7 JUMPI DUP3 SWAP1 SUB PUSH1 0x1F AND DUP3 ADD SWAP2 JUMPDEST POP POP POP POP POP SWAP1 POP DUP4 PUSH1 0x40 MLOAD PUSH1 0x20 ADD PUSH2 0x1F2C SWAP2 SWAP1 PUSH2 0x2AEA JUMP JUMPDEST PUSH1 0x40 MLOAD PUSH1 0x20 DUP2 DUP4 SUB SUB DUP2 MSTORE SWAP1 PUSH1 0x40 MSTORE DUP1 MLOAD SWAP1 PUSH1 0x20 ADD KECCAK256 DUP2 PUSH1 0x40 MLOAD PUSH1 0x20 ADD PUSH2 0x1F53 SWAP2 SWAP1 PUSH2 0x2AEA JUMP JUMPDEST PUSH1 0x40 MLOAD PUSH1 0x20 DUP2 DUP4 SUB SUB DUP2 MSTORE SWAP1 PUSH1 0x40 MSTORE DUP1 MLOAD SWAP1 PUSH1 0x20 ADD KECCAK256 EQ ISZERO PUSH2 0x203C JUMPI PUSH1 0x40 DUP1 MLOAD PUSH1 0x60 DUP2 ADD DUP3 MSTORE CALLER DUP2 MSTORE PUSH1 0x20 DUP1 DUP3 ADD DUP8 DUP2 MSTORE PUSH1 0x1 SWAP4 DUP4 ADD DUP5 SWAP1 MSTORE PUSH1 0xB DUP1 SLOAD SWAP5 DUP6 ADD DUP2 SSTORE PUSH1 0x0 MSTORE DUP3 MLOAD PUSH32 0x175B7A638427703F0DBE7BB9BBF987A2551717B34E79F33B5B1008D1FA01DB9 PUSH1 0x3 SWAP1 SWAP6 MUL SWAP5 DUP6 ADD DUP1 SLOAD PUSH1 0x1 PUSH1 0x1 PUSH1 0xA0 SHL SUB NOT AND PUSH1 0x1 PUSH1 0x1 PUSH1 0xA0 SHL SUB SWAP1 SWAP3 AND SWAP2 SWAP1 SWAP2 OR DUP2 SSTORE SWAP1 MLOAD DUP1 MLOAD SWAP4 SWAP5 SWAP2 SWAP4 PUSH2 0x201B SWAP4 PUSH32 0x175B7A638427703F0DBE7BB9BBF987A2551717B34E79F33B5B1008D1FA01DBA SWAP1 SWAP4 ADD SWAP3 SWAP2 SWAP1 SWAP2 ADD SWAP1 PUSH2 0x25E1 JUMP JUMPDEST POP PUSH1 0x40 SWAP2 SWAP1 SWAP2 ADD MLOAD PUSH1 0x2 SWAP1 SWAP2 ADD DUP1 SLOAD PUSH1 0xFF NOT AND SWAP2 ISZERO ISZERO SWAP2 SWAP1 SWAP2 OR SWAP1 SSTORE PUSH1 0x1 SWAP3 POP JUMPDEST POP DUP1 PUSH2 0x2047 DUP2 PUSH2 0x2F15 JUMP JUMPDEST SWAP2 POP POP PUSH2 0x1E67 JUMP JUMPDEST PUSH1 0xA DUP2 GT ISZERO PUSH2 0x20AA JUMPI PUSH1 0x40 MLOAD PUSH3 0x461BCD PUSH1 0xE5 SHL DUP2 MSTORE PUSH1 0x20 PUSH1 0x4 DUP3 ADD MSTORE PUSH1 0x21 PUSH1 0x24 DUP3 ADD MSTORE PUSH32 0x6572726F723A20726174696E672063616E2062652066726F6D203120746F2031 PUSH1 0x44 DUP3 ADD MSTORE PUSH1 0x3 PUSH1 0xFC SHL PUSH1 0x64 DUP3 ADD MSTORE PUSH1 0x84 ADD PUSH2 0x77A JUMP JUMPDEST PUSH1 0x0 JUMPDEST PUSH1 0x2 SLOAD DUP2 GT PUSH2 0x231D JUMPI PUSH1 0x0 PUSH1 0x2 DUP3 DUP2 SLOAD DUP2 LT PUSH2 0x20CB JUMPI PUSH2 0x20CB PUSH2 0x2F46 JUMP JUMPDEST SWAP1 PUSH1 0x0 MSTORE PUSH1 0x20 PUSH1 0x0 KECCAK256 ADD DUP1 SLOAD PUSH2 0x20E0 SWAP1 PUSH2 0x2EDA JUMP JUMPDEST DUP1 PUSH1 0x1F ADD PUSH1 0x20 DUP1 SWAP2 DIV MUL PUSH1 0x20 ADD PUSH1 0x40 MLOAD SWAP1 DUP2 ADD PUSH1 0x40 MSTORE DUP1 SWAP3 SWAP2 SWAP1 DUP2 DUP2 MSTORE PUSH1 0x20 ADD DUP3 DUP1 SLOAD PUSH2 0x210C SWAP1 PUSH2 0x2EDA JUMP JUMPDEST DUP1 ISZERO PUSH2 0x2159 JUMPI DUP1 PUSH1 0x1F LT PUSH2 0x212E JUMPI PUSH2 0x100 DUP1 DUP4 SLOAD DIV MUL DUP4 MSTORE SWAP2 PUSH1 0x20 ADD SWAP2 PUSH2 0x2159 JUMP JUMPDEST DUP3 ADD SWAP2 SWAP1 PUSH1 0x0 MSTORE PUSH1 0x20 PUSH1 0x0 KECCAK256 SWAP1 JUMPDEST DUP2 SLOAD DUP2 MSTORE SWAP1 PUSH1 0x1 ADD SWAP1 PUSH1 0x20 ADD DUP1 DUP4 GT PUSH2 0x213C JUMPI DUP3 SWAP1 SUB PUSH1 0x1F AND DUP3 ADD SWAP2 JUMPDEST POP POP POP POP POP SWAP1 POP DUP5 PUSH1 0x40 MLOAD PUSH1 0x20 ADD PUSH2 0x2171 SWAP2 SWAP1 PUSH2 0x2AEA JUMP JUMPDEST PUSH1 0x40 MLOAD PUSH1 0x20 DUP2 DUP4 SUB SUB DUP2 MSTORE SWAP1 PUSH1 0x40 MSTORE DUP1 MLOAD SWAP1 PUSH1 0x20 ADD KECCAK256 DUP2 PUSH1 0x40 MLOAD PUSH1 0x20 ADD PUSH2 0x2198 SWAP2 SWAP1 PUSH2 0x2AEA JUMP JUMPDEST PUSH1 0x40 MLOAD PUSH1 0x20 DUP2 DUP4 SUB SUB DUP2 MSTORE SWAP1 PUSH1 0x40 MSTORE DUP1 MLOAD SWAP1 PUSH1 0x20 ADD KECCAK256 EQ ISZERO PUSH2 0x230A JUMPI PUSH1 0x40 DUP1 MLOAD PUSH1 0xA0 DUP2 ADD DUP3 MSTORE DUP7 DUP2 MSTORE CALLER PUSH1 0x0 SWAP1 DUP2 MSTORE PUSH1 0x4 PUSH1 0x20 SWAP1 DUP2 MSTORE SWAP3 SWAP1 KECCAK256 DUP1 SLOAD PUSH1 0x60 SWAP4 PUSH1 0x3 SWAP4 SWAP3 SWAP1 DUP4 ADD SWAP2 PUSH2 0x21E7 SWAP1 PUSH2 0x2EDA JUMP JUMPDEST DUP1 PUSH1 0x1F ADD PUSH1 0x20 DUP1 SWAP2 DIV MUL PUSH1 0x20 ADD PUSH1 0x40 MLOAD SWAP1 DUP2 ADD PUSH1 0x40 MSTORE DUP1 SWAP3 SWAP2 SWAP1 DUP2 DUP2 MSTORE PUSH1 0x20 ADD DUP3 DUP1 SLOAD PUSH2 0x2213 SWAP1 PUSH2 0x2EDA JUMP JUMPDEST DUP1 ISZERO PUSH2 0x2260 JUMPI DUP1 PUSH1 0x1F LT PUSH2 0x2235 JUMPI PUSH2 0x100 DUP1 DUP4 SLOAD DIV MUL DUP4 MSTORE SWAP2 PUSH1 0x20 ADD SWAP2 PUSH2 0x2260 JUMP JUMPDEST DUP3 ADD SWAP2 SWAP1 PUSH1 0x0 MSTORE PUSH1 0x20 PUSH1 0x0 KECCAK256 SWAP1 JUMPDEST DUP2 SLOAD DUP2 MSTORE SWAP1 PUSH1 0x1 ADD SWAP1 PUSH1 0x20 ADD DUP1 DUP4 GT PUSH2 0x2243 JUMPI DUP3 SWAP1 SUB PUSH1 0x1F AND DUP3 ADD SWAP2 JUMPDEST POP POP POP SWAP2 DUP4 MSTORE POP POP PUSH1 0x20 DUP1 DUP3 ADD DUP10 SWAP1 MSTORE PUSH1 0x40 DUP3 ADD DUP9 SWAP1 MSTORE PUSH1 0x60 SWAP1 SWAP2 ADD DUP5 SWAP1 MSTORE DUP3 SLOAD PUSH1 0x1 DUP2 ADD DUP5 SSTORE PUSH1 0x0 SWAP4 DUP5 MSTORE SWAP3 DUP2 SWAP1 KECCAK256 DUP3 MLOAD DUP1 MLOAD SWAP4 SWAP5 PUSH1 0x5 MUL SWAP1 SWAP2 ADD SWAP3 PUSH2 0x22AA SWAP3 DUP5 SWAP3 ADD SWAP1 PUSH2 0x25E1 JUMP JUMPDEST POP PUSH1 0x20 DUP3 DUP2 ADD MLOAD DUP1 MLOAD PUSH2 0x22C3 SWAP3 PUSH1 0x1 DUP6 ADD SWAP3 ADD SWAP1 PUSH2 0x25E1 JUMP JUMPDEST POP PUSH1 0x40 DUP3 ADD MLOAD DUP1 MLOAD PUSH2 0x22DF SWAP2 PUSH1 0x2 DUP5 ADD SWAP2 PUSH1 0x20 SWAP1 SWAP2 ADD SWAP1 PUSH2 0x25E1 JUMP JUMPDEST POP PUSH1 0x60 DUP3 ADD MLOAD PUSH1 0x3 DUP3 ADD SSTORE PUSH1 0x80 DUP3 ADD MLOAD DUP1 MLOAD PUSH2 0x2305 SWAP2 PUSH1 0x4 DUP5 ADD SWAP2 PUSH1 0x20 SWAP1 SWAP2 ADD SWAP1 PUSH2 0x2665 JUMP JUMPDEST POP POP POP POP JUMPDEST POP DUP1 PUSH2 0x2315 DUP2 PUSH2 0x2F15 JUMP JUMPDEST SWAP2 POP POP PUSH2 0x20AD JUMP JUMPDEST POP POP POP POP JUMP JUMPDEST PUSH1 0x4 PUSH1 0x0 PUSH1 0x5 DUP5 PUSH1 0x40 MLOAD PUSH2 0x2337 SWAP2 SWAP1 PUSH2 0x2AEA JUMP JUMPDEST SWAP1 DUP2 MSTORE PUSH1 0x40 DUP1 MLOAD PUSH1 0x20 SWAP3 DUP2 SWAP1 SUB DUP4 ADD SWAP1 KECCAK256 SLOAD PUSH1 0x1 PUSH1 0x1 PUSH1 0xA0 SHL SUB AND DUP4 MSTORE SWAP1 DUP3 ADD SWAP3 SWAP1 SWAP3 MSTORE ADD PUSH1 0x0 KECCAK256 PUSH1 0x3 ADD SLOAD PUSH1 0xFF AND ISZERO PUSH2 0x2383 JUMPI PUSH1 0x40 MLOAD PUSH3 0x461BCD PUSH1 0xE5 SHL DUP2 MSTORE PUSH1 0x4 ADD PUSH2 0x77A SWAP1 PUSH2 0x2DEE JUMP JUMPDEST PUSH1 0x0 PUSH1 0x1 PUSH1 0x1 PUSH1 0xA0 SHL SUB AND PUSH1 0x5 DUP4 PUSH1 0x40 MLOAD PUSH2 0x239E SWAP2 SWAP1 PUSH2 0x2AEA JUMP JUMPDEST SWAP1 DUP2 MSTORE PUSH1 0x40 MLOAD SWAP1 DUP2 SWAP1 SUB PUSH1 0x20 ADD SWAP1 KECCAK256 SLOAD PUSH1 0x1 PUSH1 0x1 PUSH1 0xA0 SHL SUB AND EQ ISZERO PUSH2 0x23D5 JUMPI PUSH1 0x40 MLOAD PUSH3 0x461BCD PUSH1 0xE5 SHL DUP2 MSTORE PUSH1 0x4 ADD PUSH2 0x77A SWAP1 PUSH2 0x2D84 JUMP JUMPDEST DUP1 PUSH1 0x4 PUSH1 0x0 PUSH1 0x5 DUP6 PUSH1 0x40 MLOAD PUSH2 0x23EA SWAP2 SWAP1 PUSH2 0x2AEA JUMP JUMPDEST SWAP1 DUP2 MSTORE PUSH1 0x40 DUP1 MLOAD PUSH1 0x20 SWAP3 DUP2 SWAP1 SUB DUP4 ADD SWAP1 KECCAK256 SLOAD PUSH1 0x1 PUSH1 0x1 PUSH1 0xA0 SHL SUB AND DUP4 MSTORE SWAP1 DUP3 ADD SWAP3 SWAP1 SWAP3 MSTORE ADD PUSH1 0x0 KECCAK256 PUSH1 0x1 ADD SLOAD EQ PUSH2 0x2433 JUMPI PUSH1 0x40 MLOAD PUSH3 0x461BCD PUSH1 0xE5 SHL DUP2 MSTORE PUSH1 0x4 ADD PUSH2 0x77A SWAP1 PUSH2 0x2D53 JUMP JUMPDEST PUSH1 0x1 PUSH1 0x4 PUSH1 0x0 PUSH1 0x5 DUP6 PUSH1 0x40 MLOAD PUSH2 0x16CC SWAP2 SWAP1 PUSH2 0x2AEA JUMP JUMPDEST DUP1 MLOAD PUSH1 0x20 DUP2 DUP4 ADD DUP2 ADD DUP1 MLOAD PUSH1 0x8 DUP3 MSTORE SWAP3 DUP3 ADD SWAP2 SWAP1 SWAP4 ADD KECCAK256 SWAP2 MSTORE DUP1 SLOAD PUSH1 0x1 DUP3 ADD DUP1 SLOAD PUSH1 0x1 PUSH1 0x1 PUSH1 0xA0 SHL SUB SWAP1 SWAP3 AND SWAP3 SWAP2 PUSH2 0x2480 SWAP1 PUSH2 0x2EDA JUMP JUMPDEST DUP1 PUSH1 0x1F ADD PUSH1 0x20 DUP1 SWAP2 DIV MUL PUSH1 0x20 ADD PUSH1 0x40 MLOAD SWAP1 DUP2 ADD PUSH1 0x40 MSTORE DUP1 SWAP3 SWAP2 SWAP1 DUP2 DUP2 MSTORE PUSH1 0x20 ADD DUP3 DUP1 SLOAD PUSH2 0x24AC SWAP1 PUSH2 0x2EDA JUMP JUMPDEST DUP1 ISZERO PUSH2 0x24F9 JUMPI DUP1 PUSH1 0x1F LT PUSH2 0x24CE JUMPI PUSH2 0x100 DUP1 DUP4 SLOAD DIV MUL DUP4 MSTORE SWAP2 PUSH1 0x20 ADD SWAP2 PUSH2 0x24F9 JUMP JUMPDEST DUP3 ADD SWAP2 SWAP1 PUSH1 0x0 MSTORE PUSH1 0x20 PUSH1 0x0 KECCAK256 SWAP1 JUMPDEST DUP2 SLOAD DUP2 MSTORE SWAP1 PUSH1 0x1 ADD SWAP1 PUSH1 0x20 ADD DUP1 DUP4 GT PUSH2 0x24DC JUMPI DUP3 SWAP1 SUB PUSH1 0x1F AND DUP3 ADD SWAP2 JUMPDEST POP POP POP POP POP SWAP1 DUP1 PUSH1 0x2 ADD SLOAD SWAP1 DUP1 PUSH1 0x3 ADD SLOAD SWAP1 POP DUP5 JUMP JUMPDEST PUSH1 0xA DUP2 DUP2 SLOAD DUP2 LT PUSH2 0x251F JUMPI PUSH1 0x0 DUP1 REVERT JUMPDEST PUSH1 0x0 SWAP2 DUP3 MSTORE PUSH1 0x20 SWAP1 SWAP2 KECCAK256 PUSH1 0x4 SWAP1 SWAP2 MUL ADD DUP1 SLOAD PUSH1 0x1 DUP3 ADD DUP1 SLOAD PUSH1 0x1 PUSH1 0x1 PUSH1 0xA0 SHL SUB SWAP1 SWAP3 AND SWAP4 POP SWAP1 PUSH2 0x254E SWAP1 PUSH2 0x2EDA JUMP JUMPDEST DUP1 PUSH1 0x1F ADD PUSH1 0x20 DUP1 SWAP2 DIV MUL PUSH1 0x20 ADD PUSH1 0x40 MLOAD SWAP1 DUP2 ADD PUSH1 0x40 MSTORE DUP1 SWAP3 SWAP2 SWAP1 DUP2 DUP2 MSTORE PUSH1 0x20 ADD DUP3 DUP1 SLOAD PUSH2 0x257A SWAP1 PUSH2 0x2EDA JUMP JUMPDEST DUP1 ISZERO PUSH2 0x25C7 JUMPI DUP1 PUSH1 0x1F LT PUSH2 0x259C JUMPI PUSH2 0x100 DUP1 DUP4 SLOAD DIV MUL DUP4 MSTORE SWAP2 PUSH1 0x20 ADD SWAP2 PUSH2 0x25C7 JUMP JUMPDEST DUP3 ADD SWAP2 SWAP1 PUSH1 0x0 MSTORE PUSH1 0x20 PUSH1 0x0 KECCAK256 SWAP1 JUMPDEST DUP2 SLOAD DUP2 MSTORE SWAP1 PUSH1 0x1 ADD SWAP1 PUSH1 0x20 ADD DUP1 DUP4 GT PUSH2 0x25AA JUMPI DUP3 SWAP1 SUB PUSH1 0x1F AND DUP3 ADD SWAP2 JUMPDEST POP POP POP POP PUSH1 0x2 DUP4 ADD SLOAD PUSH1 0x3 SWAP1 SWAP4 ADD SLOAD SWAP2 SWAP3 SWAP2 PUSH1 0xFF AND SWAP1 POP DUP5 JUMP JUMPDEST DUP3 DUP1 SLOAD PUSH2 0x25ED SWAP1 PUSH2 0x2EDA JUMP JUMPDEST SWAP1 PUSH1 0x0 MSTORE PUSH1 0x20 PUSH1 0x0 KECCAK256 SWAP1 PUSH1 0x1F ADD PUSH1 0x20 SWAP1 DIV DUP2 ADD SWAP3 DUP3 PUSH2 0x260F JUMPI PUSH1 0x0 DUP6 SSTORE PUSH2 0x2655 JUMP JUMPDEST DUP3 PUSH1 0x1F LT PUSH2 0x2628 JUMPI DUP1 MLOAD PUSH1 0xFF NOT AND DUP4 DUP1 ADD OR DUP6 SSTORE PUSH2 0x2655 JUMP JUMPDEST DUP3 DUP1 ADD PUSH1 0x1 ADD DUP6 SSTORE DUP3 ISZERO PUSH2 0x2655 JUMPI SWAP2 DUP3 ADD JUMPDEST DUP3 DUP2 GT ISZERO PUSH2 0x2655 JUMPI DUP3 MLOAD DUP3 SSTORE SWAP2 PUSH1 0x20 ADD SWAP2 SWAP1 PUSH1 0x1 ADD SWAP1 PUSH2 0x263A JUMP JUMPDEST POP PUSH2 0x2661 SWAP3 SWAP2 POP PUSH2 0x26BE JUMP JUMPDEST POP SWAP1 JUMP JUMPDEST DUP3 DUP1 SLOAD DUP3 DUP3 SSTORE SWAP1 PUSH1 0x0 MSTORE PUSH1 0x20 PUSH1 0x0 KECCAK256 SWAP1 DUP2 ADD SWAP3 DUP3 ISZERO PUSH2 0x26B2 JUMPI SWAP2 PUSH1 0x20 MUL DUP3 ADD JUMPDEST DUP3 DUP2 GT ISZERO PUSH2 0x26B2 JUMPI DUP3 MLOAD DUP1 MLOAD PUSH2 0x26A2 SWAP2 DUP5 SWAP2 PUSH1 0x20 SWAP1 SWAP2 ADD SWAP1 PUSH2 0x25E1 JUMP JUMPDEST POP SWAP2 PUSH1 0x20 ADD SWAP2 SWAP1 PUSH1 0x1 ADD SWAP1 PUSH2 0x2685 JUMP JUMPDEST POP PUSH2 0x2661 SWAP3 SWAP2 POP PUSH2 0x26D3 JUMP JUMPDEST JUMPDEST DUP1 DUP3 GT ISZERO PUSH2 0x2661 JUMPI PUSH1 0x0 DUP2 SSTORE PUSH1 0x1 ADD PUSH2 0x26BF JUMP JUMPDEST DUP1 DUP3 GT ISZERO PUSH2 0x2661 JUMPI PUSH1 0x0 PUSH2 0x26E7 DUP3 DUP3 PUSH2 0x26F0 JUMP JUMPDEST POP PUSH1 0x1 ADD PUSH2 0x26D3 JUMP JUMPDEST POP DUP1 SLOAD PUSH2 0x26FC SWAP1 PUSH2 0x2EDA JUMP JUMPDEST PUSH1 0x0 DUP3 SSTORE DUP1 PUSH1 0x1F LT PUSH2 0x270C JUMPI POP POP JUMP JUMPDEST PUSH1 0x1F ADD PUSH1 0x20 SWAP1 DIV SWAP1 PUSH1 0x0 MSTORE PUSH1 0x20 PUSH1 0x0 KECCAK256 SWAP1 DUP2 ADD SWAP1 PUSH2 0x272A SWAP2 SWAP1 PUSH2 0x26BE JUMP JUMPDEST POP JUMP JUMPDEST DUP1 CALLDATALOAD PUSH1 0x1 PUSH1 0x1 PUSH1 0xA0 SHL SUB DUP2 AND DUP2 EQ PUSH2 0x2744 JUMPI PUSH1 0x0 DUP1 REVERT JUMPDEST SWAP2 SWAP1 POP JUMP JUMPDEST PUSH1 0x0 DUP3 PUSH1 0x1F DUP4 ADD SLT PUSH2 0x275A JUMPI PUSH1 0x0 DUP1 REVERT JUMPDEST DUP2 CALLDATALOAD PUSH1 0x1 PUSH1 0x1 PUSH1 0x40 SHL SUB DUP2 GT ISZERO PUSH2 0x2773 JUMPI PUSH2 0x2773 PUSH2 0x2F5C JUMP JUMPDEST PUSH2 0x2786 PUSH1 0x1F DUP3 ADD PUSH1 0x1F NOT AND PUSH1 0x20 ADD PUSH2 0x2E25 JUMP JUMPDEST DUP2 DUP2 MSTORE DUP5 PUSH1 0x20 DUP4 DUP7 ADD ADD GT ISZERO PUSH2 0x279B JUMPI PUSH1 0x0 DUP1 REVERT JUMPDEST DUP2 PUSH1 0x20 DUP6 ADD PUSH1 0x20 DUP4 ADD CALLDATACOPY PUSH1 0x0 SWAP2 DUP2 ADD PUSH1 0x20 ADD SWAP2 SWAP1 SWAP2 MSTORE SWAP4 SWAP3 POP POP POP JUMP JUMPDEST PUSH1 0x0 PUSH1 0x20 DUP3 DUP5 SUB SLT ISZERO PUSH2 0x27CA JUMPI PUSH1 0x0 DUP1 REVERT JUMPDEST PUSH2 0x27D3 DUP3 PUSH2 0x272D JUMP JUMPDEST SWAP4 SWAP3 POP POP POP JUMP JUMPDEST PUSH1 0x0 DUP1 PUSH1 0x0 PUSH1 0x60 DUP5 DUP7 SUB SLT ISZERO PUSH2 0x27EF JUMPI PUSH1 0x0 DUP1 REVERT JUMPDEST PUSH2 0x27F8 DUP5 PUSH2 0x272D JUMP JUMPDEST SWAP3 POP PUSH1 0x20 DUP5 ADD CALLDATALOAD PUSH1 0x1 PUSH1 0x1 PUSH1 0x40 SHL SUB DUP2 GT ISZERO PUSH2 0x2813 JUMPI PUSH1 0x0 DUP1 REVERT JUMPDEST PUSH2 0x281F DUP7 DUP3 DUP8 ADD PUSH2 0x2749 JUMP JUMPDEST SWAP3 POP POP PUSH1 0x40 DUP5 ADD CALLDATALOAD SWAP1 POP SWAP3 POP SWAP3 POP SWAP3 JUMP JUMPDEST PUSH1 0x0 PUSH1 0x20 DUP3 DUP5 SUB SLT ISZERO PUSH2 0x2842 JUMPI PUSH1 0x0 DUP1 REVERT JUMPDEST DUP2 CALLDATALOAD PUSH1 0x1 PUSH1 0x1 PUSH1 0x40 SHL SUB DUP2 GT ISZERO PUSH2 0x2858 JUMPI PUSH1 0x0 DUP1 REVERT JUMPDEST PUSH2 0x1E4B DUP5 DUP3 DUP6 ADD PUSH2 0x2749 JUMP JUMPDEST PUSH1 0x0 DUP1 PUSH1 0x40 DUP4 DUP6 SUB SLT ISZERO PUSH2 0x2877 JUMPI PUSH1 0x0 DUP1 REVERT JUMPDEST DUP3 CALLDATALOAD PUSH1 0x1 PUSH1 0x1 PUSH1 0x40 SHL SUB DUP1 DUP3 GT ISZERO PUSH2 0x288E JUMPI PUSH1 0x0 DUP1 REVERT JUMPDEST PUSH2 0x289A DUP7 DUP4 DUP8 ADD PUSH2 0x2749 JUMP JUMPDEST SWAP4 POP PUSH1 0x20 SWAP2 POP DUP2 DUP6 ADD CALLDATALOAD DUP2 DUP2 GT ISZERO PUSH2 0x28B1 JUMPI PUSH1 0x0 DUP1 REVERT JUMPDEST DUP6 ADD PUSH1 0x1F DUP2 ADD DUP8 SGT PUSH2 0x28C2 JUMPI PUSH1 0x0 DUP1 REVERT JUMPDEST DUP1 CALLDATALOAD DUP3 DUP2 GT ISZERO PUSH2 0x28D4 JUMPI PUSH2 0x28D4 PUSH2 0x2F5C JUMP JUMPDEST DUP1 PUSH1 0x5 SHL PUSH2 0x28E3 DUP6 DUP3 ADD PUSH2 0x2E25 JUMP JUMPDEST DUP3 DUP2 MSTORE DUP6 DUP2 ADD SWAP1 DUP5 DUP8 ADD DUP4 DUP7 ADD DUP9 ADD DUP13 LT ISZERO PUSH2 0x28FE JUMPI PUSH1 0x0 DUP1 REVERT JUMPDEST PUSH1 0x0 SWAP4 POP DUP4 JUMPDEST DUP6 DUP2 LT ISZERO PUSH2 0x293B JUMPI DUP2 CALLDATALOAD DUP9 DUP2 GT ISZERO PUSH2 0x291A JUMPI DUP6 DUP7 REVERT JUMPDEST PUSH2 0x2928 DUP15 DUP12 DUP4 DUP12 ADD ADD PUSH2 0x2749 JUMP JUMPDEST DUP6 MSTORE POP SWAP3 DUP9 ADD SWAP3 SWAP1 DUP9 ADD SWAP1 PUSH1 0x1 ADD PUSH2 0x2904 JUMP JUMPDEST POP SWAP9 SWAP12 SWAP1 SWAP11 POP SWAP9 POP POP POP POP POP POP POP POP POP JUMP JUMPDEST PUSH1 0x0 DUP1 PUSH1 0x40 DUP4 DUP6 SUB SLT ISZERO PUSH2 0x2960 JUMPI PUSH1 0x0 DUP1 REVERT JUMPDEST DUP3 CALLDATALOAD PUSH1 0x1 PUSH1 0x1 PUSH1 0x40 SHL SUB DUP2 GT ISZERO PUSH2 0x2976 JUMPI PUSH1 0x0 DUP1 REVERT JUMPDEST PUSH2 0x2982 DUP6 DUP3 DUP7 ADD PUSH2 0x2749 JUMP JUMPDEST SWAP6 PUSH1 0x20 SWAP5 SWAP1 SWAP5 ADD CALLDATALOAD SWAP5 POP POP POP POP JUMP JUMPDEST PUSH1 0x0 DUP1 PUSH1 0x0 PUSH1 0x60 DUP5 DUP7 SUB SLT ISZERO PUSH2 0x29A6 JUMPI PUSH1 0x0 DUP1 REVERT JUMPDEST DUP4 CALLDATALOAD PUSH1 0x1 PUSH1 0x1 PUSH1 0x40 SHL SUB DUP1 DUP3 GT ISZERO PUSH2 0x29BD JUMPI PUSH1 0x0 DUP1 REVERT JUMPDEST PUSH2 0x29C9 DUP8 DUP4 DUP9 ADD PUSH2 0x2749 JUMP JUMPDEST SWAP5 POP PUSH1 0x20 DUP7 ADD CALLDATALOAD SWAP2 POP DUP1 DUP3 GT ISZERO PUSH2 0x29DF JUMPI PUSH1 0x0 DUP1 REVERT JUMPDEST POP PUSH2 0x281F DUP7 DUP3 DUP8 ADD PUSH2 0x2749 JUMP JUMPDEST PUSH1 0x0 DUP1 PUSH1 0x0 PUSH1 0x60 DUP5 DUP7 SUB SLT ISZERO PUSH2 0x2A01 JUMPI PUSH1 0x0 DUP1 REVERT JUMPDEST DUP4 CALLDATALOAD PUSH1 0x1 PUSH1 0x1 PUSH1 0x40 SHL SUB DUP1 DUP3 GT ISZERO PUSH2 0x2A18 JUMPI PUSH1 0x0 DUP1 REVERT JUMPDEST PUSH2 0x2A24 DUP8 DUP4 DUP9 ADD PUSH2 0x2749 JUMP JUMPDEST SWAP5 POP PUSH1 0x20 DUP7 ADD CALLDATALOAD SWAP4 POP PUSH1 0x40 DUP7 ADD CALLDATALOAD SWAP2 POP DUP1 DUP3 GT ISZERO PUSH2 0x2A41 JUMPI PUSH1 0x0 DUP1 REVERT JUMPDEST POP PUSH2 0x2A4E DUP7 DUP3 DUP8 ADD PUSH2 0x2749 JUMP JUMPDEST SWAP2 POP POP SWAP3 POP SWAP3 POP SWAP3 JUMP JUMPDEST PUSH1 0x0 PUSH1 0x20 DUP3 DUP5 SUB SLT ISZERO PUSH2 0x2A6A JUMPI PUSH1 0x0 DUP1 REVERT JUMPDEST POP CALLDATALOAD SWAP2 SWAP1 POP JUMP JUMPDEST PUSH1 0x0 DUP1 PUSH1 0x40 DUP4 DUP6 SUB SLT ISZERO PUSH2 0x2A84 JUMPI PUSH1 0x0 DUP1 REVERT JUMPDEST DUP3 CALLDATALOAD SWAP2 POP PUSH1 0x20 DUP4 ADD CALLDATALOAD DUP1 ISZERO ISZERO DUP2 EQ PUSH2 0x2A9B JUMPI PUSH1 0x0 DUP1 REVERT JUMPDEST DUP1 SWAP2 POP POP SWAP3 POP SWAP3 SWAP1 POP JUMP JUMPDEST PUSH1 0x0 DUP2 MLOAD DUP1 DUP5 MSTORE PUSH2 0x2ABE DUP2 PUSH1 0x20 DUP7 ADD PUSH1 0x20 DUP7 ADD PUSH2 0x2EAE JUMP JUMPDEST PUSH1 0x1F ADD PUSH1 0x1F NOT AND SWAP3 SWAP1 SWAP3 ADD PUSH1 0x20 ADD SWAP3 SWAP2 POP POP JUMP JUMPDEST PUSH1 0x60 SWAP2 SWAP1 SWAP2 SHL PUSH1 0x1 PUSH1 0x1 PUSH1 0x60 SHL SUB NOT AND DUP2 MSTORE PUSH1 0x14 ADD SWAP1 JUMP JUMPDEST PUSH1 0x0 DUP3 MLOAD PUSH2 0x2AFC DUP2 DUP5 PUSH1 0x20 DUP8 ADD PUSH2 0x2EAE JUMP JUMPDEST SWAP2 SWAP1 SWAP2 ADD SWAP3 SWAP2 POP POP JUMP JUMPDEST PUSH1 0x0 DUP1 DUP4 SLOAD DUP2 PUSH1 0x1 DUP3 DUP2 SHR SWAP2 POP DUP1 DUP4 AND DUP1 PUSH2 0x2B22 JUMPI PUSH1 0x7F DUP4 AND SWAP3 POP JUMPDEST PUSH1 0x20 DUP1 DUP5 LT DUP3 EQ ISZERO PUSH2 0x2B42 JUMPI PUSH4 0x4E487B71 PUSH1 0xE0 SHL DUP7 MSTORE PUSH1 0x22 PUSH1 0x4 MSTORE PUSH1 0x24 DUP7 REVERT JUMPDEST DUP2 DUP1 ISZERO PUSH2 0x2B56 JUMPI PUSH1 0x1 DUP2 EQ PUSH2 0x2B67 JUMPI PUSH2 0x2B94 JUMP JUMPDEST PUSH1 0xFF NOT DUP7 AND DUP10 MSTORE DUP5 DUP10 ADD SWAP7 POP PUSH2 0x2B94 JUMP JUMPDEST PUSH1 0x0 DUP11 DUP2 MSTORE PUSH1 0x20 SWAP1 KECCAK256 PUSH1 0x0 JUMPDEST DUP7 DUP2 LT ISZERO PUSH2 0x2B8C JUMPI DUP2 SLOAD DUP12 DUP3 ADD MSTORE SWAP1 DUP6 ADD SWAP1 DUP4 ADD PUSH2 0x2B73 JUMP JUMPDEST POP POP DUP5 DUP10 ADD SWAP7 POP JUMPDEST POP SWAP5 SWAP9 SWAP8 POP POP POP POP POP POP POP POP JUMP JUMPDEST PUSH1 0x1 PUSH1 0x1 PUSH1 0xA0 SHL SUB DUP5 AND DUP2 MSTORE PUSH1 0x60 PUSH1 0x20 DUP3 ADD DUP2 SWAP1 MSTORE PUSH1 0x0 SWAP1 PUSH2 0x2BC6 SWAP1 DUP4 ADD DUP6 PUSH2 0x2AA6 JUMP JUMPDEST SWAP1 POP DUP3 ISZERO ISZERO PUSH1 0x40 DUP4 ADD MSTORE SWAP5 SWAP4 POP POP POP POP JUMP JUMPDEST PUSH1 0x1 PUSH1 0x1 PUSH1 0xA0 SHL SUB DUP6 AND DUP2 MSTORE PUSH1 0x80 PUSH1 0x20 DUP3 ADD DUP2 SWAP1 MSTORE PUSH1 0x0 SWAP1 PUSH2 0x2BFC SWAP1 DUP4 ADD DUP7 PUSH2 0x2AA6 JUMP JUMPDEST PUSH1 0x40 DUP4 ADD SWAP5 SWAP1 SWAP5 MSTORE POP SWAP1 ISZERO ISZERO PUSH1 0x60 SWAP1 SWAP2 ADD MSTORE SWAP3 SWAP2 POP POP JUMP JUMPDEST PUSH1 0x1 PUSH1 0x1 PUSH1 0xA0 SHL SUB DUP6 AND DUP2 MSTORE PUSH1 0x80 PUSH1 0x20 DUP3 ADD DUP2 SWAP1 MSTORE PUSH1 0x0 SWAP1 PUSH2 0x2C38 SWAP1 DUP4 ADD DUP7 PUSH2 0x2AA6 JUMP JUMPDEST PUSH1 0x40 DUP4 ADD SWAP5 SWAP1 SWAP5 MSTORE POP PUSH1 0x60 ADD MSTORE SWAP3 SWAP2 POP POP JUMP JUMPDEST PUSH1 0x0 PUSH1 0x20 DUP1 DUP4 ADD DUP2 DUP5 MSTORE DUP1 DUP6 MLOAD DUP1 DUP4 MSTORE PUSH1 0x40 DUP7 ADD SWAP2 POP PUSH1 0x40 DUP2 PUSH1 0x5 SHL DUP8 ADD ADD SWAP3 POP DUP4 DUP8 ADD PUSH1 0x0 JUMPDEST DUP3 DUP2 LT ISZERO PUSH2 0x2CA0 JUMPI PUSH1 0x3F NOT DUP9 DUP7 SUB ADD DUP5 MSTORE PUSH2 0x2C8E DUP6 DUP4 MLOAD PUSH2 0x2AA6 JUMP JUMPDEST SWAP5 POP SWAP3 DUP6 ADD SWAP3 SWAP1 DUP6 ADD SWAP1 PUSH1 0x1 ADD PUSH2 0x2C72 JUMP JUMPDEST POP SWAP3 SWAP8 SWAP7 POP POP POP POP POP POP POP JUMP JUMPDEST PUSH1 0x20 DUP2 MSTORE PUSH1 0x0 PUSH2 0x27D3 PUSH1 0x20 DUP4 ADD DUP5 PUSH2 0x2AA6 JUMP JUMPDEST PUSH1 0x80 DUP2 MSTORE PUSH1 0x0 PUSH2 0x2CD3 PUSH1 0x80 DUP4 ADD DUP8 PUSH2 0x2AA6 JUMP JUMPDEST PUSH1 0x20 DUP4 ADD SWAP6 SWAP1 SWAP6 MSTORE POP PUSH1 0x40 DUP2 ADD SWAP3 SWAP1 SWAP3 MSTORE ISZERO ISZERO PUSH1 0x60 SWAP1 SWAP2 ADD MSTORE SWAP2 SWAP1 POP JUMP JUMPDEST PUSH1 0xE0 DUP2 MSTORE PUSH1 0x0 PUSH2 0x2D04 PUSH1 0xE0 DUP4 ADD DUP11 PUSH2 0x2AA6 JUMP JUMPDEST DUP9 PUSH1 0x20 DUP5 ADD MSTORE DUP8 PUSH1 0x40 DUP5 ADD MSTORE DUP7 ISZERO ISZERO PUSH1 0x60 DUP5 ADD MSTORE DUP3 DUP2 SUB PUSH1 0x80 DUP5 ADD MSTORE PUSH2 0x2D2A DUP2 DUP8 PUSH2 0x2AA6 JUMP JUMPDEST SWAP1 POP DUP3 DUP2 SUB PUSH1 0xA0 DUP5 ADD MSTORE PUSH2 0x2D3E DUP2 DUP7 PUSH2 0x2AA6 JUMP JUMPDEST SWAP2 POP POP DUP3 PUSH1 0xC0 DUP4 ADD MSTORE SWAP9 SWAP8 POP POP POP POP POP POP POP POP JUMP JUMPDEST PUSH1 0x20 DUP1 DUP3 MSTORE PUSH1 0x17 SWAP1 DUP3 ADD MSTORE PUSH23 0x115C9C9BDC8E88125B9D985B1A59081C185CDCDDDBDC99 PUSH1 0x4A SHL PUSH1 0x40 DUP3 ADD MSTORE PUSH1 0x60 ADD SWAP1 JUMP JUMPDEST PUSH1 0x20 DUP1 DUP3 MSTORE PUSH1 0x19 SWAP1 DUP3 ADD MSTORE PUSH25 0x115C9C9BDC8E88155CD95C88191BD95CDB89DD08195E1A5CDD PUSH1 0x3A SHL PUSH1 0x40 DUP3 ADD MSTORE PUSH1 0x60 ADD SWAP1 JUMP JUMPDEST PUSH1 0x20 DUP1 DUP3 MSTORE PUSH1 0x1F SWAP1 DUP3 ADD MSTORE PUSH32 0x6572726F723A2074686973206973206E6F7420796F75722070726F6475637400 PUSH1 0x40 DUP3 ADD MSTORE PUSH1 0x60 ADD SWAP1 JUMP JUMPDEST PUSH1 0x20 DUP1 DUP3 MSTORE PUSH1 0x1D SWAP1 DUP3 ADD MSTORE PUSH32 0x4572726F723A20596F752061726520616C7265616479206C6F67676564000000 PUSH1 0x40 DUP3 ADD MSTORE PUSH1 0x60 ADD SWAP1 JUMP JUMPDEST PUSH1 0x40 MLOAD PUSH1 0x1F DUP3 ADD PUSH1 0x1F NOT AND DUP2 ADD PUSH1 0x1 PUSH1 0x1 PUSH1 0x40 SHL SUB DUP2 GT DUP3 DUP3 LT OR ISZERO PUSH2 0x2E4D JUMPI PUSH2 0x2E4D PUSH2 0x2F5C JUMP JUMPDEST PUSH1 0x40 MSTORE SWAP2 SWAP1 POP JUMP JUMPDEST PUSH1 0x0 DUP3 NOT DUP3 GT ISZERO PUSH2 0x2E68 JUMPI PUSH2 0x2E68 PUSH2 0x2F30 JUMP JUMPDEST POP ADD SWAP1 JUMP JUMPDEST PUSH1 0x0 DUP3 PUSH2 0x2E8A JUMPI PUSH4 0x4E487B71 PUSH1 0xE0 SHL PUSH1 0x0 MSTORE PUSH1 0x12 PUSH1 0x4 MSTORE PUSH1 0x24 PUSH1 0x0 REVERT JUMPDEST POP DIV SWAP1 JUMP JUMPDEST PUSH1 0x0 DUP2 PUSH1 0x0 NOT DIV DUP4 GT DUP3 ISZERO ISZERO AND ISZERO PUSH2 0x2EA9 JUMPI PUSH2 0x2EA9 PUSH2 0x2F30 JUMP JUMPDEST POP MUL SWAP1 JUMP JUMPDEST PUSH1 0x0 JUMPDEST DUP4 DUP2 LT ISZERO PUSH2 0x2EC9 JUMPI DUP2 DUP2 ADD MLOAD DUP4 DUP3 ADD MSTORE PUSH1 0x20 ADD PUSH2 0x2EB1 JUMP JUMPDEST DUP4 DUP2 GT ISZERO PUSH2 0x231D JUMPI POP POP PUSH1 0x0 SWAP2 ADD MSTORE JUMP JUMPDEST PUSH1 0x1 DUP2 DUP2 SHR SWAP1 DUP3 AND DUP1 PUSH2 0x2EEE JUMPI PUSH1 0x7F DUP3 AND SWAP2 POP JUMPDEST PUSH1 0x20 DUP3 LT DUP2 EQ ISZERO PUSH2 0x2F0F JUMPI PUSH4 0x4E487B71 PUSH1 0xE0 SHL PUSH1 0x0 MSTORE PUSH1 0x22 PUSH1 0x4 MSTORE PUSH1 0x24 PUSH1 0x0 REVERT JUMPDEST POP SWAP2 SWAP1 POP JUMP JUMPDEST PUSH1 0x0 PUSH1 0x0 NOT DUP3 EQ ISZERO PUSH2 0x2F29 JUMPI PUSH2 0x2F29 PUSH2 0x2F30 JUMP JUMPDEST POP PUSH1 0x1 ADD SWAP1 JUMP JUMPDEST PUSH4 0x4E487B71 PUSH1 0xE0 SHL PUSH1 0x0 MSTORE PUSH1 0x11 PUSH1 0x4 MSTORE PUSH1 0x24 PUSH1 0x0 REVERT JUMPDEST PUSH4 0x4E487B71 PUSH1 0xE0 SHL PUSH1 0x0 MSTORE PUSH1 0x32 PUSH1 0x4 MSTORE PUSH1 0x24 PUSH1 0x0 REVERT JUMPDEST PUSH4 0x4E487B71 PUSH1 0xE0 SHL PUSH1 0x0 MSTORE PUSH1 0x41 PUSH1 0x4 MSTORE PUSH1 0x24 PUSH1 0x0 REVERT INVALID LOG2 PUSH5 0x6970667358 0x22 SLT KECCAK256 0xCB KECCAK256 SWAP9 0xDB LOG0 0xAD SMOD EXTCODESIZE 0xD SSTORE GASPRICE PC 0xA8 PUSH24 0x7668554532D75253B5C6CD61DBA4E6CE3DF064736F6C6343 STOP ADDMOD SMOD STOP CALLER 0xB5 0xB2 0xE7 PUSH32 0x7CC5F741808C088FC930A78382CBC738160D08C471B4672FC39743AA405787FA SLT 0xA8 0x23 0xE0 CALLCODE 0xB7 PUSH4 0x1CC41B3B 0xA8 DUP3 DUP12 CALLER 0x21 0xCA DUP2 GT GT STATICCALL PUSH22 0xCD3AA3BB5ACE418456BA3C801FD0A494A221A407852A 0x26 0xDB CHAINID 0xC4 0xF8 CODECOPY MLOAD TIMESTAMP JUMP JUMPDEST EXTCODESIZE EXTCODECOPY 0xD0 PUSH6 0x3B9900000000 "
				},
				"gasEstimates": {
					"creation": {
						"codeDepositCost": "2440000",
						"executionCost": "infinite",
						"totalCost": "infinite"
					},
					"external": {
						"acceptMarriage(uint256,bool)": "infinite",
						"acceptPurchase(uint256,bool)": "infinite",
						"acceptReturn(uint256,bool)": "infinite",
						"addProductShop(string,uint256,string)": "infinite",
						"check_logged_shop(string)": "infinite",
						"check_logged_user(string)": "infinite",
						"create_user(address,string,bytes32)": "infinite",
						"getStoryRating(string)": "infinite",
						"get_address(string)": "infinite",
						"get_balance(address)": "3067",
						"get_city(string)": "infinite",
						"get_hash(string)": "infinite",
						"get_product_list(string)": "infinite",
						"get_role_shop(string)": "infinite",
						"get_role_user(string)": "infinite",
						"get_shop_list()": "infinite",
						"leaveComment(string,string[])": "infinite",
						"leaveFeedback(string,string,uint256)": "infinite",
						"login_out_shop(string)": "infinite",
						"login_out_user(string)": "infinite",
						"login_shop(string,bytes32)": "infinite",
						"login_user(string,bytes32)": "infinite",
						"productMarriage(string)": "infinite",
						"productPurchases(string)": "infinite",
						"productReturn(string)": "infinite",
						"refusalToPurchase(uint256)": "infinite",
						"shopLists(string)": "infinite",
						"structProducts(string)": "infinite",
						"structShops(address)": "infinite",
						"structStatusMarriages(uint256)": "infinite",
						"structStatusPurchases(uint256)": "infinite",
						"structStatusReturns(uint256)": "infinite",
						"structUserLogins(string)": "infinite",
						"structUsers(address)": "infinite"
					}
				},
				"methodIdentifiers": {
					"acceptMarriage(uint256,bool)": "87048043",
					"acceptPurchase(uint256,bool)": "0c72b1ec",
					"acceptReturn(uint256,bool)": "2ccdef7c",
					"addProductShop(string,uint256,string)": "6c05dd1d",
					"check_logged_shop(string)": "3b84aedc",
					"check_logged_user(string)": "5bbc9a3f",
					"create_user(address,string,bytes32)": "0e1c81b2",
					"getStoryRating(string)": "a985036d",
					"get_address(string)": "6ba44d3c",
					"get_balance(address)": "1e279a37",
					"get_city(string)": "55149fd5",
					"get_hash(string)": "845952a8",
					"get_product_list(string)": "803103f1",
					"get_role_shop(string)": "033ff0b8",
					"get_role_user(string)": "5bdb63fa",
					"get_shop_list()": "1f8daac8",
					"leaveComment(string,string[])": "29e795f3",
					"leaveFeedback(string,string,uint256)": "cc21c188",
					"login_out_shop(string)": "04ac16f6",
					"login_out_user(string)": "521b9170",
					"login_shop(string,bytes32)": "775eb9e6",
					"login_user(string,bytes32)": "d22d9020",
					"productMarriage(string)": "5828c584",
					"productPurchases(string)": "146dc6ed",
					"productReturn(string)": "bbd43363",
					"refusalToPurchase(uint256)": "7033a382",
					"shopLists(string)": "c4957fa0",
					"structProducts(string)": "d68cf8c1",
					"structShops(address)": "8e23cb40",
					"structStatusMarriages(uint256)": "73b62bd0",
					"structStatusPurchases(uint256)": "dce39151",
					"structStatusReturns(uint256)": "a9f9482b",
					"structUserLogins(string)": "1bbe970a",
					"structUsers(address)": "961865f0"
				}
			},
			"storageLayout": {
				"storage": [
					{
						"astId": 370,
						"contract": "Documents/GitHub/Store-system-with-feedback/main.sol:coursepaper",
						"label": "structShops",
						"offset": 0,
						"slot": "0",
						"type": "t_mapping(t_address,t_struct(structShop)365_storage)"
					},
					{
						"astId": 374,
						"contract": "Documents/GitHub/Store-system-with-feedback/main.sol:coursepaper",
						"label": "shopLists",
						"offset": 0,
						"slot": "1",
						"type": "t_mapping(t_string_memory_ptr,t_address)"
					},
					{
						"astId": 377,
						"contract": "Documents/GitHub/Store-system-with-feedback/main.sol:coursepaper",
						"label": "shopList",
						"offset": 0,
						"slot": "2",
						"type": "t_array(t_string_storage)dyn_storage"
					},
					{
						"astId": 393,
						"contract": "Documents/GitHub/Store-system-with-feedback/main.sol:coursepaper",
						"label": "complaintBooks",
						"offset": 0,
						"slot": "3",
						"type": "t_array(t_struct(complaintBook)389_storage)dyn_storage"
					},
					{
						"astId": 407,
						"contract": "Documents/GitHub/Store-system-with-feedback/main.sol:coursepaper",
						"label": "structUsers",
						"offset": 0,
						"slot": "4",
						"type": "t_mapping(t_address,t_struct(structUser)402_storage)"
					},
					{
						"astId": 411,
						"contract": "Documents/GitHub/Store-system-with-feedback/main.sol:coursepaper",
						"label": "structUserLogins",
						"offset": 0,
						"slot": "5",
						"type": "t_mapping(t_string_memory_ptr,t_address)"
					},
					{
						"astId": 414,
						"contract": "Documents/GitHub/Store-system-with-feedback/main.sol:coursepaper",
						"label": "userLoginsArray",
						"offset": 0,
						"slot": "6",
						"type": "t_array(t_string_storage)dyn_storage"
					},
					{
						"astId": 417,
						"contract": "Documents/GitHub/Store-system-with-feedback/main.sol:coursepaper",
						"label": "userAddressArray",
						"offset": 0,
						"slot": "7",
						"type": "t_array(t_address)dyn_storage"
					},
					{
						"astId": 431,
						"contract": "Documents/GitHub/Store-system-with-feedback/main.sol:coursepaper",
						"label": "structProducts",
						"offset": 0,
						"slot": "8",
						"type": "t_mapping(t_string_memory_ptr,t_struct(structProduct)426_storage)"
					},
					{
						"astId": 434,
						"contract": "Documents/GitHub/Store-system-with-feedback/main.sol:coursepaper",
						"label": "productList",
						"offset": 0,
						"slot": "9",
						"type": "t_array(t_string_storage)dyn_storage"
					},
					{
						"astId": 447,
						"contract": "Documents/GitHub/Store-system-with-feedback/main.sol:coursepaper",
						"label": "structStatusPurchases",
						"offset": 0,
						"slot": "10",
						"type": "t_array(t_struct(structStatusPurchase)443_storage)dyn_storage"
					},
					{
						"astId": 458,
						"contract": "Documents/GitHub/Store-system-with-feedback/main.sol:coursepaper",
						"label": "structStatusReturns",
						"offset": 0,
						"slot": "11",
						"type": "t_array(t_struct(structStatusReturn)454_storage)dyn_storage"
					},
					{
						"astId": 469,
						"contract": "Documents/GitHub/Store-system-with-feedback/main.sol:coursepaper",
						"label": "structStatusMarriages",
						"offset": 0,
						"slot": "12",
						"type": "t_array(t_struct(structStatusMarriage)465_storage)dyn_storage"
					},
					{
						"astId": 472,
						"contract": "Documents/GitHub/Store-system-with-feedback/main.sol:coursepaper",
						"label": "addProductShop_idProduct",
						"offset": 0,
						"slot": "13",
						"type": "t_uint256"
					}
				],
				"types": {
					"t_address": {
						"encoding": "inplace",
						"label": "address",
						"numberOfBytes": "20"
					},
					"t_array(t_address)dyn_storage": {
						"base": "t_address",
						"encoding": "dynamic_array",
						"label": "address[]",
						"numberOfBytes": "32"
					},
					"t_array(t_string_storage)dyn_storage": {
						"base": "t_string_storage",
						"encoding": "dynamic_array",
						"label": "string[]",
						"numberOfBytes": "32"
					},
					"t_array(t_struct(complaintBook)389_storage)dyn_storage": {
						"base": "t_struct(complaintBook)389_storage",
						"encoding": "dynamic_array",
						"label": "struct coursepaper.complaintBook[]",
						"numberOfBytes": "32"
					},
					"t_array(t_struct(structStatusMarriage)465_storage)dyn_storage": {
						"base": "t_struct(structStatusMarriage)465_storage",
						"encoding": "dynamic_array",
						"label": "struct coursepaper.structStatusMarriage[]",
						"numberOfBytes": "32"
					},
					"t_array(t_struct(structStatusPurchase)443_storage)dyn_storage": {
						"base": "t_struct(structStatusPurchase)443_storage",
						"encoding": "dynamic_array",
						"label": "struct coursepaper.structStatusPurchase[]",
						"numberOfBytes": "32"
					},
					"t_array(t_struct(structStatusReturn)454_storage)dyn_storage": {
						"base": "t_struct(structStatusReturn)454_storage",
						"encoding": "dynamic_array",
						"label": "struct coursepaper.structStatusReturn[]",
						"numberOfBytes": "32"
					},
					"t_bool": {
						"encoding": "inplace",
						"label": "bool",
						"numberOfBytes": "1"
					},
					"t_bytes32": {
						"encoding": "inplace",
						"label": "bytes32",
						"numberOfBytes": "32"
					},
					"t_mapping(t_address,t_struct(structShop)365_storage)": {
						"encoding": "mapping",
						"key": "t_address",
						"label": "mapping(address => struct coursepaper.structShop)",
						"numberOfBytes": "32",
						"value": "t_struct(structShop)365_storage"
					},
					"t_mapping(t_address,t_struct(structUser)402_storage)": {
						"encoding": "mapping",
						"key": "t_address",
						"label": "mapping(address => struct coursepaper.structUser)",
						"numberOfBytes": "32",
						"value": "t_struct(structUser)402_storage"
					},
					"t_mapping(t_string_memory_ptr,t_address)": {
						"encoding": "mapping",
						"key": "t_string_memory_ptr",
						"label": "mapping(string => address)",
						"numberOfBytes": "32",
						"value": "t_address"
					},
					"t_mapping(t_string_memory_ptr,t_struct(structProduct)426_storage)": {
						"encoding": "mapping",
						"key": "t_string_memory_ptr",
						"label": "mapping(string => struct coursepaper.structProduct)",
						"numberOfBytes": "32",
						"value": "t_struct(structProduct)426_storage"
					},
					"t_string_memory_ptr": {
						"encoding": "bytes",
						"label": "string",
						"numberOfBytes": "32"
					},
					"t_string_storage": {
						"encoding": "bytes",
						"label": "string",
						"numberOfBytes": "32"
					},
					"t_struct(complaintBook)389_storage": {
						"encoding": "inplace",
						"label": "struct coursepaper.complaintBook",
						"members": [
							{
								"astId": 379,
								"contract": "Documents/GitHub/Store-system-with-feedback/main.sol:coursepaper",
								"label": "shop",
								"offset": 0,
								"slot": "0",
								"type": "t_string_storage"
							},
							{
								"astId": 381,
								"contract": "Documents/GitHub/Store-system-with-feedback/main.sol:coursepaper",
								"label": "userName",
								"offset": 0,
								"slot": "1",
								"type": "t_string_storage"
							},
							{
								"astId": 383,
								"contract": "Documents/GitHub/Store-system-with-feedback/main.sol:coursepaper",
								"label": "feedback",
								"offset": 0,
								"slot": "2",
								"type": "t_string_storage"
							},
							{
								"astId": 385,
								"contract": "Documents/GitHub/Store-system-with-feedback/main.sol:coursepaper",
								"label": "rating",
								"offset": 0,
								"slot": "3",
								"type": "t_uint256"
							},
							{
								"astId": 388,
								"contract": "Documents/GitHub/Store-system-with-feedback/main.sol:coursepaper",
								"label": "comments",
								"offset": 0,
								"slot": "4",
								"type": "t_array(t_string_storage)dyn_storage"
							}
						],
						"numberOfBytes": "160"
					},
					"t_struct(structProduct)426_storage": {
						"encoding": "inplace",
						"label": "struct coursepaper.structProduct",
						"members": [
							{
								"astId": 419,
								"contract": "Documents/GitHub/Store-system-with-feedback/main.sol:coursepaper",
								"label": "shop",
								"offset": 0,
								"slot": "0",
								"type": "t_address"
							},
							{
								"astId": 421,
								"contract": "Documents/GitHub/Store-system-with-feedback/main.sol:coursepaper",
								"label": "description",
								"offset": 0,
								"slot": "1",
								"type": "t_string_storage"
							},
							{
								"astId": 423,
								"contract": "Documents/GitHub/Store-system-with-feedback/main.sol:coursepaper",
								"label": "price",
								"offset": 0,
								"slot": "2",
								"type": "t_uint256"
							},
							{
								"astId": 425,
								"contract": "Documents/GitHub/Store-system-with-feedback/main.sol:coursepaper",
								"label": "id",
								"offset": 0,
								"slot": "3",
								"type": "t_uint256"
							}
						],
						"numberOfBytes": "128"
					},
					"t_struct(structShop)365_storage": {
						"encoding": "inplace",
						"label": "struct coursepaper.structShop",
						"members": [
							{
								"astId": 352,
								"contract": "Documents/GitHub/Store-system-with-feedback/main.sol:coursepaper",
								"label": "shopName",
								"offset": 0,
								"slot": "0",
								"type": "t_string_storage"
							},
							{
								"astId": 354,
								"contract": "Documents/GitHub/Store-system-with-feedback/main.sol:coursepaper",
								"label": "password",
								"offset": 0,
								"slot": "1",
								"type": "t_bytes32"
							},
							{
								"astId": 356,
								"contract": "Documents/GitHub/Store-system-with-feedback/main.sol:coursepaper",
								"label": "role",
								"offset": 0,
								"slot": "2",
								"type": "t_uint256"
							},
							{
								"astId": 358,
								"contract": "Documents/GitHub/Store-system-with-feedback/main.sol:coursepaper",
								"label": "logged",
								"offset": 0,
								"slot": "3",
								"type": "t_bool"
							},
							{
								"astId": 360,
								"contract": "Documents/GitHub/Store-system-with-feedback/main.sol:coursepaper",
								"label": "number",
								"offset": 0,
								"slot": "4",
								"type": "t_string_storage"
							},
							{
								"astId": 362,
								"contract": "Documents/GitHub/Store-system-with-feedback/main.sol:coursepaper",
								"label": "city",
								"offset": 0,
								"slot": "5",
								"type": "t_string_storage"
							},
							{
								"astId": 364,
								"contract": "Documents/GitHub/Store-system-with-feedback/main.sol:coursepaper",
								"label": "rating",
								"offset": 0,
								"slot": "6",
								"type": "t_uint256"
							}
						],
						"numberOfBytes": "224"
					},
					"t_struct(structStatusMarriage)465_storage": {
						"encoding": "inplace",
						"label": "struct coursepaper.structStatusMarriage",
						"members": [
							{
								"astId": 460,
								"contract": "Documents/GitHub/Store-system-with-feedback/main.sol:coursepaper",
								"label": "userLogin",
								"offset": 0,
								"slot": "0",
								"type": "t_address"
							},
							{
								"astId": 462,
								"contract": "Documents/GitHub/Store-system-with-feedback/main.sol:coursepaper",
								"label": "titleProduct",
								"offset": 0,
								"slot": "1",
								"type": "t_string_storage"
							},
							{
								"astId": 464,
								"contract": "Documents/GitHub/Store-system-with-feedback/main.sol:coursepaper",
								"label": "status",
								"offset": 0,
								"slot": "2",
								"type": "t_bool"
							}
						],
						"numberOfBytes": "96"
					},
					"t_struct(structStatusPurchase)443_storage": {
						"encoding": "inplace",
						"label": "struct coursepaper.structStatusPurchase",
						"members": [
							{
								"astId": 436,
								"contract": "Documents/GitHub/Store-system-with-feedback/main.sol:coursepaper",
								"label": "userLogin",
								"offset": 0,
								"slot": "0",
								"type": "t_address"
							},
							{
								"astId": 438,
								"contract": "Documents/GitHub/Store-system-with-feedback/main.sol:coursepaper",
								"label": "titleProduct",
								"offset": 0,
								"slot": "1",
								"type": "t_string_storage"
							},
							{
								"astId": 440,
								"contract": "Documents/GitHub/Store-system-with-feedback/main.sol:coursepaper",
								"label": "price",
								"offset": 0,
								"slot": "2",
								"type": "t_uint256"
							},
							{
								"astId": 442,
								"contract": "Documents/GitHub/Store-system-with-feedback/main.sol:coursepaper",
								"label": "status",
								"offset": 0,
								"slot": "3",
								"type": "t_bool"
							}
						],
						"numberOfBytes": "128"
					},
					"t_struct(structStatusReturn)454_storage": {
						"encoding": "inplace",
						"label": "struct coursepaper.structStatusReturn",
						"members": [
							{
								"astId": 449,
								"contract": "Documents/GitHub/Store-system-with-feedback/main.sol:coursepaper",
								"label": "userLogin",
								"offset": 0,
								"slot": "0",
								"type": "t_address"
							},
							{
								"astId": 451,
								"contract": "Documents/GitHub/Store-system-with-feedback/main.sol:coursepaper",
								"label": "titleProduct",
								"offset": 0,
								"slot": "1",
								"type": "t_string_storage"
							},
							{
								"astId": 453,
								"contract": "Documents/GitHub/Store-system-with-feedback/main.sol:coursepaper",
								"label": "status",
								"offset": 0,
								"slot": "2",
								"type": "t_bool"
							}
						],
						"numberOfBytes": "96"
					},
					"t_struct(structUser)402_storage": {
						"encoding": "inplace",
						"label": "struct coursepaper.structUser",
						"members": [
							{
								"astId": 395,
								"contract": "Documents/GitHub/Store-system-with-feedback/main.sol:coursepaper",
								"label": "userName",
								"offset": 0,
								"slot": "0",
								"type": "t_string_storage"
							},
							{
								"astId": 397,
								"contract": "Documents/GitHub/Store-system-with-feedback/main.sol:coursepaper",
								"label": "password",
								"offset": 0,
								"slot": "1",
								"type": "t_bytes32"
							},
							{
								"astId": 399,
								"contract": "Documents/GitHub/Store-system-with-feedback/main.sol:coursepaper",
								"label": "role",
								"offset": 0,
								"slot": "2",
								"type": "t_uint256"
							},
							{
								"astId": 401,
								"contract": "Documents/GitHub/Store-system-with-feedback/main.sol:coursepaper",
								"label": "logged",
								"offset": 0,
								"slot": "3",
								"type": "t_bool"
							}
						],
						"numberOfBytes": "128"
					},
					"t_uint256": {
						"encoding": "inplace",
						"label": "uint256",
						"numberOfBytes": "32"
					}
				}
			},
			"userdoc": {
				"kind": "user",
				"methods": {},
				"version": 1
			}
		}
	}
}