{
	"Documents/GitHub/Store-system-with-feedback/main.sol": {
		"coursepaper": {
			"abi": [
				{
					"inputs": [],
					"stateMutability": "nonpayable",
					"type": "constructor"
				},
				{
					"inputs": [
						{
							"internalType": "string",
							"name": "title",
							"type": "string"
						},
						{
							"internalType": "uint256",
							"name": "price",
							"type": "uint256"
						},
						{
							"internalType": "string",
							"name": "description",
							"type": "string"
						}
					],
					"name": "addProductShop",
					"outputs": [],
					"stateMutability": "nonpayable",
					"type": "function"
				},
				{
					"inputs": [
						{
							"internalType": "string",
							"name": "login",
							"type": "string"
						}
					],
					"name": "check_logged_shop",
					"outputs": [
						{
							"internalType": "bool",
							"name": "",
							"type": "bool"
						}
					],
					"stateMutability": "view",
					"type": "function"
				},
				{
					"inputs": [
						{
							"internalType": "string",
							"name": "login",
							"type": "string"
						}
					],
					"name": "check_logged_user",
					"outputs": [
						{
							"internalType": "bool",
							"name": "",
							"type": "bool"
						}
					],
					"stateMutability": "view",
					"type": "function"
				},
				{
					"inputs": [
						{
							"internalType": "address",
							"name": "addr",
							"type": "address"
						},
						{
							"internalType": "string",
							"name": "login",
							"type": "string"
						},
						{
							"internalType": "bytes32",
							"name": "password",
							"type": "bytes32"
						}
					],
					"name": "create_user",
					"outputs": [],
					"stateMutability": "nonpayable",
					"type": "function"
				},
				{
					"inputs": [
						{
							"internalType": "string",
							"name": "shopName",
							"type": "string"
						}
					],
					"name": "getStoryRating",
					"outputs": [
						{
							"internalType": "uint256",
							"name": "",
							"type": "uint256"
						}
					],
					"stateMutability": "view",
					"type": "function"
				},
				{
					"inputs": [
						{
							"internalType": "string",
							"name": "login",
							"type": "string"
						}
					],
					"name": "get_address",
					"outputs": [
						{
							"internalType": "address",
							"name": "",
							"type": "address"
						}
					],
					"stateMutability": "view",
					"type": "function"
				},
				{
					"inputs": [
						{
							"internalType": "address",
							"name": "adr",
							"type": "address"
						}
					],
					"name": "get_ballance_shop",
					"outputs": [
						{
							"internalType": "uint256",
							"name": "",
							"type": "uint256"
						}
					],
					"stateMutability": "view",
					"type": "function"
				},
				{
					"inputs": [
						{
							"internalType": "address",
							"name": "adr",
							"type": "address"
						}
					],
					"name": "get_ballance_user",
					"outputs": [
						{
							"internalType": "uint256",
							"name": "",
							"type": "uint256"
						}
					],
					"stateMutability": "view",
					"type": "function"
				},
				{
					"inputs": [
						{
							"internalType": "string",
							"name": "login",
							"type": "string"
						}
					],
					"name": "get_city",
					"outputs": [
						{
							"internalType": "string",
							"name": "",
							"type": "string"
						}
					],
					"stateMutability": "view",
					"type": "function"
				},
				{
					"inputs": [
						{
							"internalType": "string",
							"name": "password",
							"type": "string"
						}
					],
					"name": "get_hash",
					"outputs": [
						{
							"internalType": "bytes32",
							"name": "",
							"type": "bytes32"
						}
					],
					"stateMutability": "pure",
					"type": "function"
				},
				{
					"inputs": [],
					"name": "get_product_list",
					"outputs": [
						{
							"internalType": "string[]",
							"name": "",
							"type": "string[]"
						}
					],
					"stateMutability": "view",
					"type": "function"
				},
				{
					"inputs": [
						{
							"internalType": "string",
							"name": "login",
							"type": "string"
						}
					],
					"name": "get_role_shop",
					"outputs": [
						{
							"internalType": "uint256",
							"name": "",
							"type": "uint256"
						}
					],
					"stateMutability": "view",
					"type": "function"
				},
				{
					"inputs": [
						{
							"internalType": "string",
							"name": "login",
							"type": "string"
						}
					],
					"name": "get_role_user",
					"outputs": [
						{
							"internalType": "uint256",
							"name": "",
							"type": "uint256"
						}
					],
					"stateMutability": "view",
					"type": "function"
				},
				{
					"inputs": [],
					"name": "get_shop_list",
					"outputs": [
						{
							"internalType": "string[]",
							"name": "",
							"type": "string[]"
						}
					],
					"stateMutability": "view",
					"type": "function"
				},
				{
					"inputs": [
						{
							"internalType": "string",
							"name": "userName",
							"type": "string"
						},
						{
							"internalType": "string[]",
							"name": "comment",
							"type": "string[]"
						}
					],
					"name": "leaveComment",
					"outputs": [],
					"stateMutability": "nonpayable",
					"type": "function"
				},
				{
					"inputs": [
						{
							"internalType": "string",
							"name": "shop",
							"type": "string"
						},
						{
							"internalType": "string",
							"name": "feedback",
							"type": "string"
						},
						{
							"internalType": "uint256",
							"name": "rating",
							"type": "uint256"
						}
					],
					"name": "leaveFeedback",
					"outputs": [],
					"stateMutability": "nonpayable",
					"type": "function"
				},
				{
					"inputs": [
						{
							"internalType": "string",
							"name": "login",
							"type": "string"
						}
					],
					"name": "login_out_shop",
					"outputs": [],
					"stateMutability": "nonpayable",
					"type": "function"
				},
				{
					"inputs": [
						{
							"internalType": "string",
							"name": "login",
							"type": "string"
						}
					],
					"name": "login_out_user",
					"outputs": [],
					"stateMutability": "nonpayable",
					"type": "function"
				},
				{
					"inputs": [
						{
							"internalType": "string",
							"name": "login",
							"type": "string"
						},
						{
							"internalType": "bytes32",
							"name": "password",
							"type": "bytes32"
						}
					],
					"name": "login_shop",
					"outputs": [],
					"stateMutability": "nonpayable",
					"type": "function"
				},
				{
					"inputs": [
						{
							"internalType": "string",
							"name": "login",
							"type": "string"
						},
						{
							"internalType": "bytes32",
							"name": "password",
							"type": "bytes32"
						}
					],
					"name": "login_user",
					"outputs": [],
					"stateMutability": "nonpayable",
					"type": "function"
				},
				{
					"inputs": [
						{
							"internalType": "string",
							"name": "titleProduct",
							"type": "string"
						}
					],
					"name": "productPurchases",
					"outputs": [],
					"stateMutability": "payable",
					"type": "function"
				},
				{
					"inputs": [
						{
							"internalType": "string",
							"name": "",
							"type": "string"
						}
					],
					"name": "shopLists",
					"outputs": [
						{
							"internalType": "address",
							"name": "",
							"type": "address"
						}
					],
					"stateMutability": "view",
					"type": "function"
				},
				{
					"inputs": [
						{
							"internalType": "uint256",
							"name": "",
							"type": "uint256"
						}
					],
					"name": "structMarriageRegistrations",
					"outputs": [
						{
							"internalType": "address",
							"name": "userLogin",
							"type": "address"
						},
						{
							"internalType": "string",
							"name": "titleProduct",
							"type": "string"
						},
						{
							"internalType": "bool",
							"name": "status",
							"type": "bool"
						}
					],
					"stateMutability": "view",
					"type": "function"
				},
				{
					"inputs": [
						{
							"internalType": "string",
							"name": "",
							"type": "string"
						}
					],
					"name": "structProducts",
					"outputs": [
						{
							"internalType": "address",
							"name": "shop",
							"type": "address"
						},
						{
							"internalType": "string",
							"name": "description",
							"type": "string"
						},
						{
							"internalType": "uint256",
							"name": "price",
							"type": "uint256"
						},
						{
							"internalType": "uint256",
							"name": "id",
							"type": "uint256"
						}
					],
					"stateMutability": "view",
					"type": "function"
				},
				{
					"inputs": [
						{
							"internalType": "address",
							"name": "",
							"type": "address"
						}
					],
					"name": "structShops",
					"outputs": [
						{
							"internalType": "string",
							"name": "shopName",
							"type": "string"
						},
						{
							"internalType": "bytes32",
							"name": "password",
							"type": "bytes32"
						},
						{
							"internalType": "uint256",
							"name": "ballance",
							"type": "uint256"
						},
						{
							"internalType": "uint256",
							"name": "role",
							"type": "uint256"
						},
						{
							"internalType": "bool",
							"name": "logged",
							"type": "bool"
						},
						{
							"internalType": "string",
							"name": "number",
							"type": "string"
						},
						{
							"internalType": "string",
							"name": "city",
							"type": "string"
						},
						{
							"internalType": "uint256",
							"name": "rating",
							"type": "uint256"
						}
					],
					"stateMutability": "view",
					"type": "function"
				},
				{
					"inputs": [
						{
							"internalType": "uint256",
							"name": "",
							"type": "uint256"
						}
					],
					"name": "structStatusPurchases",
					"outputs": [
						{
							"internalType": "address",
							"name": "userLogin",
							"type": "address"
						},
						{
							"internalType": "string",
							"name": "titleProduct",
							"type": "string"
						},
						{
							"internalType": "uint256",
							"name": "price",
							"type": "uint256"
						},
						{
							"internalType": "bool",
							"name": "status",
							"type": "bool"
						}
					],
					"stateMutability": "view",
					"type": "function"
				},
				{
					"inputs": [
						{
							"internalType": "uint256",
							"name": "",
							"type": "uint256"
						}
					],
					"name": "structStatusReturns",
					"outputs": [
						{
							"internalType": "address",
							"name": "userLogin",
							"type": "address"
						},
						{
							"internalType": "string",
							"name": "titleProduct",
							"type": "string"
						},
						{
							"internalType": "bool",
							"name": "status",
							"type": "bool"
						}
					],
					"stateMutability": "view",
					"type": "function"
				},
				{
					"inputs": [
						{
							"internalType": "string",
							"name": "",
							"type": "string"
						}
					],
					"name": "structUserLogins",
					"outputs": [
						{
							"internalType": "address",
							"name": "",
							"type": "address"
						}
					],
					"stateMutability": "view",
					"type": "function"
				},
				{
					"inputs": [
						{
							"internalType": "address",
							"name": "",
							"type": "address"
						}
					],
					"name": "structUsers",
					"outputs": [
						{
							"internalType": "string",
							"name": "userName",
							"type": "string"
						},
						{
							"internalType": "bytes32",
							"name": "password",
							"type": "bytes32"
						},
						{
							"internalType": "uint256",
							"name": "ballance",
							"type": "uint256"
						},
						{
							"internalType": "uint256",
							"name": "role",
							"type": "uint256"
						},
						{
							"internalType": "bool",
							"name": "logged",
							"type": "bool"
						}
					],
					"stateMutability": "view",
					"type": "function"
				}
			],
			"devdoc": {
				"kind": "dev",
				"methods": {},
				"version": 1
			},
			"evm": {
				"assembly": "    /* \"Documents/GitHub/Store-system-with-feedback/main.sol\":74:13514  contract coursepaper {\r... */\n  mstore(0x40, 0x80)\n    /* \"Documents/GitHub/Store-system-with-feedback/main.sol\":6326:6327  0 */\n  0x00\n    /* \"Documents/GitHub/Store-system-with-feedback/main.sol\":6291:6327  uint256 addProductShop_idProduct = 0 */\n  0x0d\n  sstore\n    /* \"Documents/GitHub/Store-system-with-feedback/main.sol\":125:1129  constructor() public {\r... */\n  callvalue\n  dup1\n  iszero\n  tag_1\n  jumpi\n  0x00\n  dup1\n  revert\ntag_1:\n  pop\n    /* \"Documents/GitHub/Store-system-with-feedback/main.sol\":207:249  0x5412E9b0e4Ef9d1546DF79ae907eeE34bDCF3004 */\n  0x5412e9b0e4ef9d1546df79ae907eee34bdcf3004\n    /* \"Documents/GitHub/Store-system-with-feedback/main.sol\":187:196  shopLists */\n  0x01\n    /* \"Documents/GitHub/Store-system-with-feedback/main.sol\":187:204  shopLists[\"Beer\"] */\n  mload(0x40)\n  tag_4\n  swap1\n  shl(0xe1, 0x2132b2b9)\n    /* \"#utility.yul\":1170:1189   */\n  dup2\n  mstore\n    /* \"#utility.yul\":1214:1215   */\n  0x04\n    /* \"#utility.yul\":1205:1216   */\n  add\n  swap1\n    /* \"#utility.yul\":968:1222   */\n  jump\n    /* \"Documents/GitHub/Store-system-with-feedback/main.sol\":187:204  shopLists[\"Beer\"] */\ntag_4:\n  swap1\n  dup2\n  mstore\n  0x40\n  dup1\n  mload\n  0x20\n  swap3\n  dup2\n  swap1\n  sub\n  dup4\n  add\n  dup2\n  keccak256\n    /* \"Documents/GitHub/Store-system-with-feedback/main.sol\":187:249  shopLists[\"Beer\"] = 0x5412E9b0e4Ef9d1546DF79ae907eeE34bDCF3004 */\n  dup1\n  sload\n  not(sub(shl(0xa0, 0x01), 0x01))\n  and\n  sub(shl(0xa0, 0x01), 0x01)\n  swap6\n  swap1\n  swap6\n  and\n  swap5\n  swap1\n  swap5\n  or\n  swap1\n  swap4\n  sstore\n    /* \"Documents/GitHub/Store-system-with-feedback/main.sol\":318:385  structShop(\"Beer\", get_hash(\"2\"), 1000, 3, false, \"1\", \"Moscow\", 0) */\n  0x0140\n  dup4\n  add\n  dup2\n  mstore\n  0x04\n    /* \"Documents/GitHub/Store-system-with-feedback/main.sol\":187:249  shopLists[\"Beer\"] = 0x5412E9b0e4Ef9d1546DF79ae907eeE34bDCF3004 */\n  0x0100\n    /* \"Documents/GitHub/Store-system-with-feedback/main.sol\":318:385  structShop(\"Beer\", get_hash(\"2\"), 1000, 3, false, \"1\", \"Moscow\", 0) */\n  dup5\n  add\n  swap1\n  dup2\n  mstore\n  shl(0xe1, 0x2132b2b9)\n  0x0120\n  dup6\n  add\n  mstore\n  dup4\n  mstore\n    /* \"Documents/GitHub/Store-system-with-feedback/main.sol\":337:350  get_hash(\"2\") */\n  dup1\n  mload\n  dup1\n  dup3\n  add\n  swap1\n  swap2\n  mstore\n  0x01\n  dup2\n  mstore\n  shl(0xf9, 0x19)\n  dup2\n  dup4\n  add\n  mstore\n    /* \"Documents/GitHub/Store-system-with-feedback/main.sol\":318:385  structShop(\"Beer\", get_hash(\"2\"), 1000, 3, false, \"1\", \"Moscow\", 0) */\n  swap1\n  dup3\n  add\n  swap1\n    /* \"Documents/GitHub/Store-system-with-feedback/main.sol\":337:350  get_hash(\"2\") */\n  tag_6\n  swap1\n    /* \"Documents/GitHub/Store-system-with-feedback/main.sol\":337:345  get_hash */\n  tag_7\n    /* \"Documents/GitHub/Store-system-with-feedback/main.sol\":337:350  get_hash(\"2\") */\n  jump\t// in\ntag_6:\n    /* \"Documents/GitHub/Store-system-with-feedback/main.sol\":318:385  structShop(\"Beer\", get_hash(\"2\"), 1000, 3, false, \"1\", \"Moscow\", 0) */\n  dup2\n  mstore\n    /* \"Documents/GitHub/Store-system-with-feedback/main.sol\":352:356  1000 */\n  0x03e8\n    /* \"Documents/GitHub/Store-system-with-feedback/main.sol\":318:385  structShop(\"Beer\", get_hash(\"2\"), 1000, 3, false, \"1\", \"Moscow\", 0) */\n  0x20\n  dup1\n  dup4\n  add\n  swap2\n  swap1\n  swap2\n  mstore\n    /* \"Documents/GitHub/Store-system-with-feedback/main.sol\":358:359  3 */\n  0x03\n    /* \"Documents/GitHub/Store-system-with-feedback/main.sol\":318:385  structShop(\"Beer\", get_hash(\"2\"), 1000, 3, false, \"1\", \"Moscow\", 0) */\n  0x40\n  dup1\n  dup5\n  add\n  swap2\n  swap1\n  swap2\n  mstore\n  0x00\n  0x60\n  dup5\n  add\n  dup2\n  swap1\n  mstore\n  dup2\n  mload\n  dup1\n  dup4\n  add\n  dup4\n  mstore\n  0x01\n  dup2\n  mstore\n  shl(0xf8, 0x31)\n  dup2\n  dup6\n  add\n  mstore\n  0x80\n  dup6\n  add\n  mstore\n  dup2\n  mload\n  dup1\n  dup4\n  add\n  swap1\n  swap3\n  mstore\n  0x06\n  dup3\n  mstore\n  shl(0xd0, 0x4d6f73636f77)\n  dup3\n  dup5\n  add\n  mstore\n  0xa0\n  dup5\n  add\n  swap2\n  swap1\n  swap2\n  mstore\n  0xc0\n  swap1\n  swap3\n  add\n  dup3\n  swap1\n  mstore\n    /* \"Documents/GitHub/Store-system-with-feedback/main.sol\":272:314  0x5412E9b0e4Ef9d1546DF79ae907eeE34bDCF3004 */\n  0x5412e9b0e4ef9d1546df79ae907eee34bdcf3004\n    /* \"Documents/GitHub/Store-system-with-feedback/main.sol\":260:315  structShops[0x5412E9b0e4Ef9d1546DF79ae907eeE34bDCF3004] */\n  dup3\n  mstore\n  swap1\n  dup2\n  mstore\n    /* \"Documents/GitHub/Store-system-with-feedback/main.sol\":260:385  structShops[0x5412E9b0e4Ef9d1546DF79ae907eeE34bDCF3004] = structShop(\"Beer\", get_hash(\"2\"), 1000, 3, false, \"1\", \"Moscow\", 0) */\n  dup2\n  mload\n  dup1\n  mload\n  0x00\n  dup1\n  mload\n  0x20\n  data_f9525e0112460024fbe4d5a34594c1701ce0e90aeee55f3b18c9114979275102\n  dup4\n  codecopy\n  dup2\n  mload\n  swap2\n  mstore\n    /* \"Documents/GitHub/Store-system-with-feedback/main.sol\":260:315  structShops[0x5412E9b0e4Ef9d1546DF79ae907eeE34bDCF3004] */\n  swap3\n    /* \"Documents/GitHub/Store-system-with-feedback/main.sol\":260:385  structShops[0x5412E9b0e4Ef9d1546DF79ae907eeE34bDCF3004] = structShop(\"Beer\", get_hash(\"2\"), 1000, 3, false, \"1\", \"Moscow\", 0) */\n  tag_8\n  swap3\n    /* \"Documents/GitHub/Store-system-with-feedback/main.sol\":260:315  structShops[0x5412E9b0e4Ef9d1546DF79ae907eeE34bDCF3004] */\n  dup5\n  swap3\n    /* \"Documents/GitHub/Store-system-with-feedback/main.sol\":260:385  structShops[0x5412E9b0e4Ef9d1546DF79ae907eeE34bDCF3004] = structShop(\"Beer\", get_hash(\"2\"), 1000, 3, false, \"1\", \"Moscow\", 0) */\n  swap2\n  add\n  swap1\n  tag_9\n  jump\t// in\ntag_8:\n  pop\n  0x20\n  dup3\n  dup2\n  add\n  mload\n  0x01\n  dup4\n  add\n  sstore\n  0x40\n  dup4\n  add\n  mload\n  0x02\n  dup4\n  add\n  sstore\n  0x60\n  dup4\n  add\n  mload\n  0x03\n  dup4\n  add\n  sstore\n  0x80\n  dup4\n  add\n  mload\n  0x04\n  dup4\n  add\n  dup1\n  sload\n  not(0xff)\n  and\n  swap2\n  iszero\n  iszero\n  swap2\n  swap1\n  swap2\n  or\n  swap1\n  sstore\n  0xa0\n  dup4\n  add\n  mload\n  dup1\n  mload\n  tag_10\n  swap3\n  0x05\n  dup6\n  add\n  swap3\n  add\n  swap1\n  tag_9\n  jump\t// in\ntag_10:\n  pop\n  0xc0\n  dup3\n  add\n  mload\n  dup1\n  mload\n  tag_11\n  swap2\n  0x06\n  dup5\n  add\n  swap2\n  0x20\n  swap1\n  swap2\n  add\n  swap1\n  tag_9\n  jump\t// in\ntag_11:\n  pop\n  0xe0\n  swap2\n  swap1\n  swap2\n  add\n  mload\n  0x07\n  swap1\n  swap2\n  add\n  sstore\n    /* \"Documents/GitHub/Store-system-with-feedback/main.sol\":410:421  structShops */\n  0x00\n    /* \"Documents/GitHub/Store-system-with-feedback/main.sol\":410:465  structShops[0x5412E9b0e4Ef9d1546DF79ae907eeE34bDCF3004] */\n  0x20\n  dup2\n  swap1\n  mstore\n    /* \"Documents/GitHub/Store-system-with-feedback/main.sol\":396:404  shopList */\n  0x02\n    /* \"Documents/GitHub/Store-system-with-feedback/main.sol\":396:475  shopList.push(structShops[0x5412E9b0e4Ef9d1546DF79ae907eeE34bDCF3004].shopName) */\n  dup1\n  sload\n  0x01\n  dup2\n  add\n  dup3\n  sstore\n  swap2\n  mstore\n  0x00\n  dup1\n  mload\n  0x20\n  data_f9525e0112460024fbe4d5a34594c1701ce0e90aeee55f3b18c9114979275102\n  dup4\n  codecopy\n  dup2\n  mload\n  swap2\n  mstore\n  dup1\n  sload\n  0x00\n  dup1\n  mload\n  0x20\n  data_1ab0c6948a275349ae45a06aad66a8bd65ac18074615d53676c09b67809099e0\n  dup4\n  codecopy\n  dup2\n  mload\n  swap2\n  mstore\n  swap1\n  swap3\n  add\n  swap2\n  tag_13\n  swap1\n  tag_14\n  jump\t// in\ntag_13:\n  tag_15\n  swap3\n  swap2\n  swap1\n  tag_16\n  jump\t// in\ntag_15:\n  pop\n    /* \"Documents/GitHub/Store-system-with-feedback/main.sol\":509:551  0x49C364fedaD517382ee5A776d3071f11CfDE4C5c */\n  0x49c364fedad517382ee5a776d3071f11cfde4c5c\n    /* \"Documents/GitHub/Store-system-with-feedback/main.sol\":486:495  shopLists */\n  0x01\n    /* \"Documents/GitHub/Store-system-with-feedback/main.sol\":486:506  shopLists[\"Product\"] */\n  mload(0x40)\n  tag_17\n  swap1\n  shl(0xca, 0x141c9bd91d58dd)\n    /* \"#utility.yul\":908:930   */\n  dup2\n  mstore\n    /* \"#utility.yul\":955:956   */\n  0x07\n    /* \"#utility.yul\":946:957   */\n  add\n  swap1\n    /* \"#utility.yul\":706:963   */\n  jump\n    /* \"Documents/GitHub/Store-system-with-feedback/main.sol\":486:506  shopLists[\"Product\"] */\ntag_17:\n  swap1\n  dup2\n  mstore\n  0x40\n  dup1\n  mload\n  0x20\n  swap3\n  dup2\n  swap1\n  sub\n  dup4\n  add\n  dup2\n  keccak256\n    /* \"Documents/GitHub/Store-system-with-feedback/main.sol\":486:551  shopLists[\"Product\"] = 0x49C364fedaD517382ee5A776d3071f11CfDE4C5c */\n  dup1\n  sload\n  not(sub(shl(0xa0, 0x01), 0x01))\n  and\n  sub(shl(0xa0, 0x01), 0x01)\n  swap6\n  swap1\n  swap6\n  and\n  swap5\n  swap1\n  swap5\n  or\n  swap1\n  swap4\n  sstore\n    /* \"Documents/GitHub/Store-system-with-feedback/main.sol\":620:694  structShop(\"Product\", get_hash(\"2\"), 1000, 3, false, \"2\", \"Petersburg\", 0) */\n  0x0140\n  dup4\n  add\n  dup2\n  mstore\n  0x07\n    /* \"Documents/GitHub/Store-system-with-feedback/main.sol\":486:551  shopLists[\"Product\"] = 0x49C364fedaD517382ee5A776d3071f11CfDE4C5c */\n  0x0100\n    /* \"Documents/GitHub/Store-system-with-feedback/main.sol\":620:694  structShop(\"Product\", get_hash(\"2\"), 1000, 3, false, \"2\", \"Petersburg\", 0) */\n  dup5\n  add\n  swap1\n  dup2\n  mstore\n  shl(0xca, 0x141c9bd91d58dd)\n  0x0120\n  dup6\n  add\n  mstore\n  dup4\n  mstore\n    /* \"Documents/GitHub/Store-system-with-feedback/main.sol\":642:655  get_hash(\"2\") */\n  dup1\n  mload\n  dup1\n  dup3\n  add\n  swap1\n  swap2\n  mstore\n  0x01\n  dup2\n  mstore\n  shl(0xf9, 0x19)\n  dup2\n  dup4\n  add\n  mstore\n    /* \"Documents/GitHub/Store-system-with-feedback/main.sol\":620:694  structShop(\"Product\", get_hash(\"2\"), 1000, 3, false, \"2\", \"Petersburg\", 0) */\n  swap1\n  dup3\n  add\n  swap1\n    /* \"Documents/GitHub/Store-system-with-feedback/main.sol\":642:655  get_hash(\"2\") */\n  tag_19\n  swap1\n    /* \"Documents/GitHub/Store-system-with-feedback/main.sol\":642:650  get_hash */\n  tag_7\n    /* \"Documents/GitHub/Store-system-with-feedback/main.sol\":642:655  get_hash(\"2\") */\n  jump\t// in\ntag_19:\n    /* \"Documents/GitHub/Store-system-with-feedback/main.sol\":620:694  structShop(\"Product\", get_hash(\"2\"), 1000, 3, false, \"2\", \"Petersburg\", 0) */\n  dup2\n  mstore\n    /* \"Documents/GitHub/Store-system-with-feedback/main.sol\":657:661  1000 */\n  0x03e8\n    /* \"Documents/GitHub/Store-system-with-feedback/main.sol\":620:694  structShop(\"Product\", get_hash(\"2\"), 1000, 3, false, \"2\", \"Petersburg\", 0) */\n  0x20\n  dup1\n  dup4\n  add\n  swap2\n  swap1\n  swap2\n  mstore\n    /* \"Documents/GitHub/Store-system-with-feedback/main.sol\":663:664  3 */\n  0x03\n    /* \"Documents/GitHub/Store-system-with-feedback/main.sol\":620:694  structShop(\"Product\", get_hash(\"2\"), 1000, 3, false, \"2\", \"Petersburg\", 0) */\n  0x40\n  dup1\n  dup5\n  add\n  swap2\n  swap1\n  swap2\n  mstore\n  0x00\n  0x60\n  dup5\n  add\n  dup2\n  swap1\n  mstore\n  dup2\n  mload\n  dup1\n  dup4\n  add\n  dup4\n  mstore\n  0x01\n  dup2\n  mstore\n  shl(0xf9, 0x19)\n  dup2\n  dup6\n  add\n  mstore\n  0x80\n  dup6\n  add\n  mstore\n  dup2\n  mload\n  dup1\n  dup4\n  add\n  swap1\n  swap3\n  mstore\n  0x0a\n  dup3\n  mstore\n  shl(0xb0, 0x50657465727362757267)\n  dup3\n  dup5\n  add\n  mstore\n  0xa0\n  dup5\n  add\n  swap2\n  swap1\n  swap2\n  mstore\n  0xc0\n  swap1\n  swap3\n  add\n  dup3\n  swap1\n  mstore\n    /* \"Documents/GitHub/Store-system-with-feedback/main.sol\":574:616  0x49C364fedaD517382ee5A776d3071f11CfDE4C5c */\n  0x49c364fedad517382ee5a776d3071f11cfde4c5c\n    /* \"Documents/GitHub/Store-system-with-feedback/main.sol\":562:617  structShops[0x49C364fedaD517382ee5A776d3071f11CfDE4C5c] */\n  dup3\n  mstore\n  swap1\n  dup2\n  mstore\n    /* \"Documents/GitHub/Store-system-with-feedback/main.sol\":562:694  structShops[0x49C364fedaD517382ee5A776d3071f11CfDE4C5c] = structShop(\"Product\", get_hash(\"2\"), 1000, 3, false, \"2\", \"Petersburg\", 0) */\n  dup2\n  mload\n  dup1\n  mload\n  0x00\n  dup1\n  mload\n  0x20\n  data_02d9cdcbcfa4cd8c6761b1b14b7bfe8ce5c69d2b558fc8eef153a2c2ff25ae65\n  dup4\n  codecopy\n  dup2\n  mload\n  swap2\n  mstore\n    /* \"Documents/GitHub/Store-system-with-feedback/main.sol\":562:617  structShops[0x49C364fedaD517382ee5A776d3071f11CfDE4C5c] */\n  swap3\n    /* \"Documents/GitHub/Store-system-with-feedback/main.sol\":562:694  structShops[0x49C364fedaD517382ee5A776d3071f11CfDE4C5c] = structShop(\"Product\", get_hash(\"2\"), 1000, 3, false, \"2\", \"Petersburg\", 0) */\n  tag_20\n  swap3\n    /* \"Documents/GitHub/Store-system-with-feedback/main.sol\":562:617  structShops[0x49C364fedaD517382ee5A776d3071f11CfDE4C5c] */\n  dup5\n  swap3\n    /* \"Documents/GitHub/Store-system-with-feedback/main.sol\":562:694  structShops[0x49C364fedaD517382ee5A776d3071f11CfDE4C5c] = structShop(\"Product\", get_hash(\"2\"), 1000, 3, false, \"2\", \"Petersburg\", 0) */\n  swap2\n  add\n  swap1\n  tag_9\n  jump\t// in\ntag_20:\n  pop\n  0x20\n  dup3\n  dup2\n  add\n  mload\n  0x01\n  dup4\n  add\n  sstore\n  0x40\n  dup4\n  add\n  mload\n  0x02\n  dup4\n  add\n  sstore\n  0x60\n  dup4\n  add\n  mload\n  0x03\n  dup4\n  add\n  sstore\n  0x80\n  dup4\n  add\n  mload\n  0x04\n  dup4\n  add\n  dup1\n  sload\n  not(0xff)\n  and\n  swap2\n  iszero\n  iszero\n  swap2\n  swap1\n  swap2\n  or\n  swap1\n  sstore\n  0xa0\n  dup4\n  add\n  mload\n  dup1\n  mload\n  tag_21\n  swap3\n  0x05\n  dup6\n  add\n  swap3\n  add\n  swap1\n  tag_9\n  jump\t// in\ntag_21:\n  pop\n  0xc0\n  dup3\n  add\n  mload\n  dup1\n  mload\n  tag_22\n  swap2\n  0x06\n  dup5\n  add\n  swap2\n  0x20\n  swap1\n  swap2\n  add\n  swap1\n  tag_9\n  jump\t// in\ntag_22:\n  pop\n  0xe0\n  swap2\n  swap1\n  swap2\n  add\n  mload\n  0x07\n  swap1\n  swap2\n  add\n  sstore\n    /* \"Documents/GitHub/Store-system-with-feedback/main.sol\":719:730  structShops */\n  0x00\n    /* \"Documents/GitHub/Store-system-with-feedback/main.sol\":719:774  structShops[0x49C364fedaD517382ee5A776d3071f11CfDE4C5c] */\n  0x20\n  dup2\n  swap1\n  mstore\n    /* \"Documents/GitHub/Store-system-with-feedback/main.sol\":705:713  shopList */\n  0x02\n    /* \"Documents/GitHub/Store-system-with-feedback/main.sol\":705:784  shopList.push(structShops[0x49C364fedaD517382ee5A776d3071f11CfDE4C5c].shopName) */\n  dup1\n  sload\n  0x01\n  dup2\n  add\n  dup3\n  sstore\n  swap2\n  mstore\n  0x00\n  dup1\n  mload\n  0x20\n  data_02d9cdcbcfa4cd8c6761b1b14b7bfe8ce5c69d2b558fc8eef153a2c2ff25ae65\n  dup4\n  codecopy\n  dup2\n  mload\n  swap2\n  mstore\n  dup1\n  sload\n  0x00\n  dup1\n  mload\n  0x20\n  data_1ab0c6948a275349ae45a06aad66a8bd65ac18074615d53676c09b67809099e0\n  dup4\n  codecopy\n  dup2\n  mload\n  swap2\n  mstore\n  swap1\n  swap3\n  add\n  swap2\n  tag_24\n  swap1\n  tag_14\n  jump\t// in\ntag_24:\n  tag_25\n  swap3\n  swap2\n  swap1\n  tag_16\n  jump\t// in\ntag_25:\n  pop\n    /* \"Documents/GitHub/Store-system-with-feedback/main.sol\":846:888  0xAdA67460CF329D12c1ed898710CC8Da5D40d8025 */\n  0xada67460cf329d12c1ed898710cc8da5d40d8025\n    /* \"Documents/GitHub/Store-system-with-feedback/main.sol\":819:835  structUserLogins */\n  0x05\n    /* \"Documents/GitHub/Store-system-with-feedback/main.sol\":819:843  structUserLogins[\"Peta\"] */\n  mload(0x40)\n  tag_26\n  swap1\n  shl(0xe0, 0x50657461)\n    /* \"#utility.yul\":649:668   */\n  dup2\n  mstore\n    /* \"#utility.yul\":693:694   */\n  0x04\n    /* \"#utility.yul\":684:695   */\n  add\n  swap1\n    /* \"#utility.yul\":447:701   */\n  jump\n    /* \"Documents/GitHub/Store-system-with-feedback/main.sol\":819:843  structUserLogins[\"Peta\"] */\ntag_26:\n  swap1\n  dup2\n  mstore\n  0x40\n  dup1\n  mload\n  0x20\n  swap3\n  dup2\n  swap1\n  sub\n  dup4\n  add\n  dup2\n  keccak256\n    /* \"Documents/GitHub/Store-system-with-feedback/main.sol\":819:888  structUserLogins[\"Peta\"] = 0xAdA67460CF329D12c1ed898710CC8Da5D40d8025 */\n  dup1\n  sload\n  not(sub(shl(0xa0, 0x01), 0x01))\n  and\n  sub(shl(0xa0, 0x01), 0x01)\n  swap6\n  swap1\n  swap6\n  and\n  swap5\n  swap1\n  swap5\n  or\n  swap1\n  swap4\n  sstore\n    /* \"Documents/GitHub/Store-system-with-feedback/main.sol\":957:1006  structUser(\"Peta\", get_hash(\"3\"), 1000, 2, false) */\n  0xe0\n  dup4\n  add\n  dup2\n  mstore\n  0x04\n  0xa0\n  dup5\n  add\n  swap1\n  dup2\n  mstore\n  shl(0xe0, 0x50657461)\n  0xc0\n  dup6\n  add\n  mstore\n  dup4\n  mstore\n    /* \"Documents/GitHub/Store-system-with-feedback/main.sol\":976:989  get_hash(\"3\") */\n  dup1\n  mload\n  dup1\n  dup3\n  add\n  swap1\n  swap2\n  mstore\n  0x01\n  dup2\n  mstore\n  shl(0xf8, 0x33)\n  dup2\n  dup4\n  add\n  mstore\n    /* \"Documents/GitHub/Store-system-with-feedback/main.sol\":957:1006  structUser(\"Peta\", get_hash(\"3\"), 1000, 2, false) */\n  swap1\n  dup3\n  add\n  swap1\n    /* \"Documents/GitHub/Store-system-with-feedback/main.sol\":976:989  get_hash(\"3\") */\n  tag_28\n  swap1\n    /* \"Documents/GitHub/Store-system-with-feedback/main.sol\":976:984  get_hash */\n  tag_7\n    /* \"Documents/GitHub/Store-system-with-feedback/main.sol\":976:989  get_hash(\"3\") */\n  jump\t// in\ntag_28:\n    /* \"Documents/GitHub/Store-system-with-feedback/main.sol\":957:1006  structUser(\"Peta\", get_hash(\"3\"), 1000, 2, false) */\n  dup2\n  mstore\n    /* \"Documents/GitHub/Store-system-with-feedback/main.sol\":991:995  1000 */\n  0x03e8\n    /* \"Documents/GitHub/Store-system-with-feedback/main.sol\":957:1006  structUser(\"Peta\", get_hash(\"3\"), 1000, 2, false) */\n  0x20\n  dup1\n  dup4\n  add\n  swap2\n  swap1\n  swap2\n  mstore\n    /* \"Documents/GitHub/Store-system-with-feedback/main.sol\":997:998  2 */\n  0x02\n    /* \"Documents/GitHub/Store-system-with-feedback/main.sol\":957:1006  structUser(\"Peta\", get_hash(\"3\"), 1000, 2, false) */\n  0x40\n  dup4\n  add\n  mstore\n  0x00\n  0x60\n  swap1\n  swap3\n  add\n  dup3\n  swap1\n  mstore\n    /* \"Documents/GitHub/Store-system-with-feedback/main.sol\":911:953  0xAdA67460CF329D12c1ed898710CC8Da5D40d8025 */\n  0xada67460cf329d12c1ed898710cc8da5d40d8025\n    /* \"Documents/GitHub/Store-system-with-feedback/main.sol\":899:954  structUsers[0xAdA67460CF329D12c1ed898710CC8Da5D40d8025] */\n  swap1\n  swap2\n  mstore\n    /* \"Documents/GitHub/Store-system-with-feedback/main.sol\":899:910  structUsers */\n  0x04\n    /* \"Documents/GitHub/Store-system-with-feedback/main.sol\":899:954  structUsers[0xAdA67460CF329D12c1ed898710CC8Da5D40d8025] */\n  dup2\n  mstore\n    /* \"Documents/GitHub/Store-system-with-feedback/main.sol\":899:1006  structUsers[0xAdA67460CF329D12c1ed898710CC8Da5D40d8025] = structUser(\"Peta\", get_hash(\"3\"), 1000, 2, false) */\n  dup2\n  mload\n  dup1\n  mload\n    /* \"Documents/GitHub/Store-system-with-feedback/main.sol\":899:954  structUsers[0xAdA67460CF329D12c1ed898710CC8Da5D40d8025] */\n  0x7276c473c3031176624ead5b5cbfdea5cdbc158289c185f75f825e40aed0bb37\n  swap3\n    /* \"Documents/GitHub/Store-system-with-feedback/main.sol\":899:1006  structUsers[0xAdA67460CF329D12c1ed898710CC8Da5D40d8025] = structUser(\"Peta\", get_hash(\"3\"), 1000, 2, false) */\n  tag_29\n  swap3\n    /* \"Documents/GitHub/Store-system-with-feedback/main.sol\":899:954  structUsers[0xAdA67460CF329D12c1ed898710CC8Da5D40d8025] */\n  dup5\n  swap3\n    /* \"Documents/GitHub/Store-system-with-feedback/main.sol\":899:1006  structUsers[0xAdA67460CF329D12c1ed898710CC8Da5D40d8025] = structUser(\"Peta\", get_hash(\"3\"), 1000, 2, false) */\n  swap2\n  add\n  swap1\n  tag_9\n  jump\t// in\ntag_29:\n  pop\n  0x20\n  dup3\n  dup2\n  add\n  mload\n  0x01\n  dup4\n  dup2\n  add\n  swap2\n  swap1\n  swap2\n  sstore\n  0x40\n  dup1\n  dup6\n  add\n  mload\n  0x02\n  dup6\n  add\n  sstore\n  0x60\n  dup6\n  add\n  mload\n  0x03\n  dup6\n  add\n  sstore\n  0x80\n  swap1\n  swap5\n  add\n  mload\n  0x04\n  swap4\n  dup5\n  add\n  dup1\n  sload\n  not(0xff)\n  and\n  swap2\n  iszero\n  iszero\n  swap2\n  swap1\n  swap2\n  or\n  swap1\n  sstore\n    /* \"Documents/GitHub/Store-system-with-feedback/main.sol\":1017:1032  userLoginsArray */\n  0x06\n    /* \"Documents/GitHub/Store-system-with-feedback/main.sol\":1017:1045  userLoginsArray.push(\"Peta\") */\n  dup1\n  sload\n  swap2\n  dup3\n  add\n  dup2\n  sstore\n  0x00\n  mstore\n  dup4\n  mload\n  dup1\n  dup6\n  add\n  swap1\n  swap5\n  mstore\n  dup3\n  dup5\n  mstore\n  shl(0xe0, 0x50657461)\n  swap4\n  swap1\n  swap2\n  add\n  swap3\n  dup4\n  mstore\n  tag_31\n  swap3\n  0xf652222313e28459528d920b65115c16c04f3efc82aaedc97be59f3f377c0d3f\n  swap1\n  swap2\n  add\n  swap2\n  tag_9\n  jump\t// in\ntag_31:\n  pop\n    /* \"Documents/GitHub/Store-system-with-feedback/main.sol\":1056:1072  userAddressArray */\n  0x07\n    /* \"Documents/GitHub/Store-system-with-feedback/main.sol\":1056:1121  userAddressArray.push(0xAdA67460CF329D12c1ed898710CC8Da5D40d8025) */\n  dup1\n  sload\n  0x01\n  dup2\n  add\n  dup3\n  sstore\n  0x00\n  swap2\n  swap1\n  swap2\n  mstore\n  0xa66cc928b5edb82af9bd49922954155ab7b0942694bea4ce44661d9a8736c688\n  add\n  dup1\n  sload\n  not(sub(shl(0xa0, 0x01), 0x01))\n  and\n    /* \"Documents/GitHub/Store-system-with-feedback/main.sol\":1078:1120  0xAdA67460CF329D12c1ed898710CC8Da5D40d8025 */\n  0xada67460cf329d12c1ed898710cc8da5d40d8025\n    /* \"Documents/GitHub/Store-system-with-feedback/main.sol\":1056:1121  userAddressArray.push(0xAdA67460CF329D12c1ed898710CC8Da5D40d8025) */\n  or\n  swap1\n  sstore\n    /* \"Documents/GitHub/Store-system-with-feedback/main.sol\":74:13514  contract coursepaper {\r... */\n  jump(tag_54)\n    /* \"Documents/GitHub/Store-system-with-feedback/main.sol\":3389:3528  function get_hash(string memory password) public pure returns(bytes32) {\r... */\ntag_7:\n    /* \"Documents/GitHub/Store-system-with-feedback/main.sol\":3451:3458  bytes32 */\n  0x00\n    /* \"Documents/GitHub/Store-system-with-feedback/main.sol\":3509:3517  password */\n  dup2\n    /* \"Documents/GitHub/Store-system-with-feedback/main.sol\":3492:3518  abi.encodePacked(password) */\n  add(0x20, mload(0x40))\n  tag_35\n  swap2\n  swap1\n  tag_36\n  jump\t// in\ntag_35:\n  mload(0x40)\n  0x20\n  dup2\n  dup4\n  sub\n  sub\n  dup2\n  mstore\n  swap1\n  0x40\n  mstore\n    /* \"Documents/GitHub/Store-system-with-feedback/main.sol\":3482:3519  keccak256(abi.encodePacked(password)) */\n  dup1\n  mload\n  swap1\n  0x20\n  add\n  keccak256\n    /* \"Documents/GitHub/Store-system-with-feedback/main.sol\":3475:3520  return(keccak256(abi.encodePacked(password))) */\n  swap1\n  pop\n    /* \"Documents/GitHub/Store-system-with-feedback/main.sol\":3389:3528  function get_hash(string memory password) public pure returns(bytes32) {\r... */\n  swap2\n  swap1\n  pop\n  jump\t// out\n    /* \"Documents/GitHub/Store-system-with-feedback/main.sol\":74:13514  contract coursepaper {\r... */\ntag_9:\n  dup3\n  dup1\n  sload\n  tag_37\n  swap1\n  tag_14\n  jump\t// in\ntag_37:\n  swap1\n  0x00\n  mstore\n  keccak256(0x00, 0x20)\n  swap1\n  0x1f\n  add\n  0x20\n  swap1\n  div\n  dup2\n  add\n  swap3\n  dup3\n  tag_39\n  jumpi\n  0x00\n  dup6\n  sstore\n  jump(tag_42)\ntag_39:\n  dup3\n  0x1f\n  lt\n  tag_40\n  jumpi\n  dup1\n  mload\n  not(0xff)\n  and\n  dup4\n  dup1\n  add\n  or\n  dup6\n  sstore\n  jump(tag_42)\ntag_40:\n  dup3\n  dup1\n  add\n  0x01\n  add\n  dup6\n  sstore\n  dup3\n  iszero\n  tag_42\n  jumpi\n  swap2\n  dup3\n  add\ntag_41:\n  dup3\n  dup2\n  gt\n  iszero\n  tag_42\n  jumpi\n  dup3\n  mload\n  dup3\n  sstore\n  swap2\n  0x20\n  add\n  swap2\n  swap1\n  0x01\n  add\n  swap1\n  jump(tag_41)\ntag_42:\n  pop\n  tag_43\n  swap3\n  swap2\n  pop\n  tag_44\n  jump\t// in\ntag_43:\n  pop\n  swap1\n  jump\t// out\ntag_16:\n  dup3\n  dup1\n  sload\n  tag_45\n  swap1\n  tag_14\n  jump\t// in\ntag_45:\n  swap1\n  0x00\n  mstore\n  keccak256(0x00, 0x20)\n  swap1\n  0x1f\n  add\n  0x20\n  swap1\n  div\n  dup2\n  add\n  swap3\n  dup3\n  tag_47\n  jumpi\n  0x00\n  dup6\n  sstore\n  jump(tag_42)\ntag_47:\n  dup3\n  0x1f\n  lt\n  tag_48\n  jumpi\n  dup1\n  sload\n  dup6\n  sstore\n  jump(tag_42)\ntag_48:\n  dup3\n  dup1\n  add\n  0x01\n  add\n  dup6\n  sstore\n  dup3\n  iszero\n  tag_42\n  jumpi\n  0x00\n  mstore\n  keccak256(0x00, 0x20)\n  swap2\n  0x1f\n  add\n  0x20\n  swap1\n  div\n  dup3\n  add\ntag_49:\n  dup3\n  dup2\n  gt\n  iszero\n  tag_42\n  jumpi\n  dup3\n  sload\n  dup3\n  sstore\n  swap2\n  0x01\n  add\n  swap2\n  swap1\n  0x01\n  add\n  swap1\n  jump(tag_49)\ntag_44:\ntag_52:\n  dup1\n  dup3\n  gt\n  iszero\n  tag_43\n  jumpi\n  0x00\n  dup2\n  sstore\n  0x01\n  add\n  jump(tag_52)\n    /* \"#utility.yul\":14:442   */\ntag_36:\n    /* \"#utility.yul\":145:148   */\n  0x00\n    /* \"#utility.yul\":183:189   */\n  dup3\n    /* \"#utility.yul\":177:190   */\n  mload\n    /* \"#utility.yul\":208:209   */\n  0x00\n    /* \"#utility.yul\":218:347   */\ntag_56:\n    /* \"#utility.yul\":232:238   */\n  dup2\n    /* \"#utility.yul\":229:230   */\n  dup2\n    /* \"#utility.yul\":226:239   */\n  lt\n    /* \"#utility.yul\":218:347   */\n  iszero\n  tag_58\n  jumpi\n    /* \"#utility.yul\":330:334   */\n  0x20\n    /* \"#utility.yul\":314:328   */\n  dup2\n  dup7\n  add\n    /* \"#utility.yul\":310:335   */\n  dup2\n  add\n    /* \"#utility.yul\":304:336   */\n  mload\n    /* \"#utility.yul\":291:302   */\n  dup6\n  dup4\n  add\n    /* \"#utility.yul\":284:337   */\n  mstore\n    /* \"#utility.yul\":247:259   */\n  add\n    /* \"#utility.yul\":218:347   */\n  jump(tag_56)\ntag_58:\n    /* \"#utility.yul\":365:371   */\n  dup2\n    /* \"#utility.yul\":362:363   */\n  dup2\n    /* \"#utility.yul\":359:372   */\n  gt\n    /* \"#utility.yul\":356:404   */\n  iszero\n  tag_59\n  jumpi\n    /* \"#utility.yul\":400:401   */\n  0x00\n    /* \"#utility.yul\":391:397   */\n  dup3\n    /* \"#utility.yul\":386:389   */\n  dup6\n    /* \"#utility.yul\":382:398   */\n  add\n    /* \"#utility.yul\":375:402   */\n  mstore\n    /* \"#utility.yul\":356:404   */\ntag_59:\n  pop\n    /* \"#utility.yul\":420:436   */\n  swap2\n  swap1\n  swap2\n  add\n  swap3\n    /* \"#utility.yul\":14:442   */\n  swap2\n  pop\n  pop\n  jump\t// out\n    /* \"#utility.yul\":1227:1607   */\ntag_14:\n    /* \"#utility.yul\":1306:1307   */\n  0x01\n    /* \"#utility.yul\":1302:1314   */\n  dup2\n  dup2\n  shr\n  swap1\n    /* \"#utility.yul\":1349:1361   */\n  dup3\n  and\n  dup1\n    /* \"#utility.yul\":1370:1431   */\n  tag_64\n  jumpi\n    /* \"#utility.yul\":1424:1428   */\n  0x7f\n    /* \"#utility.yul\":1416:1422   */\n  dup3\n    /* \"#utility.yul\":1412:1429   */\n  and\n    /* \"#utility.yul\":1402:1429   */\n  swap2\n  pop\n    /* \"#utility.yul\":1370:1431   */\ntag_64:\n    /* \"#utility.yul\":1477:1479   */\n  0x20\n    /* \"#utility.yul\":1469:1475   */\n  dup3\n    /* \"#utility.yul\":1466:1480   */\n  lt\n    /* \"#utility.yul\":1446:1464   */\n  dup2\n    /* \"#utility.yul\":1443:1481   */\n  eq\n    /* \"#utility.yul\":1440:1601   */\n  iszero\n  tag_65\n  jumpi\n    /* \"#utility.yul\":1523:1533   */\n  0x4e487b71\n    /* \"#utility.yul\":1518:1521   */\n  0xe0\n    /* \"#utility.yul\":1514:1534   */\n  shl\n    /* \"#utility.yul\":1511:1512   */\n  0x00\n    /* \"#utility.yul\":1504:1535   */\n  mstore\n    /* \"#utility.yul\":1558:1562   */\n  0x22\n    /* \"#utility.yul\":1555:1556   */\n  0x04\n    /* \"#utility.yul\":1548:1563   */\n  mstore\n    /* \"#utility.yul\":1586:1590   */\n  0x24\n    /* \"#utility.yul\":1583:1584   */\n  0x00\n    /* \"#utility.yul\":1576:1591   */\n  revert\n    /* \"#utility.yul\":1440:1601   */\ntag_65:\n  pop\n    /* \"#utility.yul\":1227:1607   */\n  swap2\n  swap1\n  pop\n  jump\t// out\ntag_54:\n    /* \"Documents/GitHub/Store-system-with-feedback/main.sol\":74:13514  contract coursepaper {\r... */\n  dataSize(sub_0)\n  dup1\n  dataOffset(sub_0)\n  0x00\n  codecopy\n  0x00\n  return\nstop\ndata_02d9cdcbcfa4cd8c6761b1b14b7bfe8ce5c69d2b558fc8eef153a2c2ff25ae65 b5b2e77f7cc5f741808c088fc930a78382cbc738160d08c471b4672fc39743aa\ndata_1ab0c6948a275349ae45a06aad66a8bd65ac18074615d53676c09b67809099e0 405787fa12a823e0f2b7631cc41b3ba8828b3321ca811111fa75cd3aa3bb5ace\ndata_f9525e0112460024fbe4d5a34594c1701ce0e90aeee55f3b18c9114979275102 418456ba3c801fd0a494a221a407852a26db46c4f8395142565b3b3cd0653b99\n\nsub_0: assembly {\n        /* \"Documents/GitHub/Store-system-with-feedback/main.sol\":74:13514  contract coursepaper {\r... */\n      mstore(0x40, 0x80)\n      jumpi(tag_1, lt(calldatasize, 0x04))\n      shr(0xe0, calldataload(0x00))\n      dup1\n      0x033ff0b8\n      eq\n      tag_2\n      jumpi\n      dup1\n      0x04ac16f6\n      eq\n      tag_3\n      jumpi\n      dup1\n      0x0e1c81b2\n      eq\n      tag_4\n      jumpi\n      dup1\n      0x146dc6ed\n      eq\n      tag_5\n      jumpi\n      dup1\n      0x1bbe970a\n      eq\n      tag_6\n      jumpi\n      dup1\n      0x1f8daac8\n      eq\n      tag_7\n      jumpi\n      dup1\n      0x29e795f3\n      eq\n      tag_8\n      jumpi\n      dup1\n      0x3b84aedc\n      eq\n      tag_9\n      jumpi\n      dup1\n      0x521b9170\n      eq\n      tag_10\n      jumpi\n      dup1\n      0x55149fd5\n      eq\n      tag_11\n      jumpi\n      dup1\n      0x5bbc9a3f\n      eq\n      tag_12\n      jumpi\n      dup1\n      0x5bd37c9e\n      eq\n      tag_13\n      jumpi\n      dup1\n      0x5bdb63fa\n      eq\n      tag_14\n      jumpi\n      dup1\n      0x6ba44d3c\n      eq\n      tag_15\n      jumpi\n      dup1\n      0x6c05dd1d\n      eq\n      tag_16\n      jumpi\n      dup1\n      0x775eb9e6\n      eq\n      tag_17\n      jumpi\n      dup1\n      0x7ddb273d\n      eq\n      tag_18\n      jumpi\n      dup1\n      0x845952a8\n      eq\n      tag_19\n      jumpi\n      dup1\n      0x8e23cb40\n      eq\n      tag_20\n      jumpi\n      dup1\n      0x961865f0\n      eq\n      tag_21\n      jumpi\n      dup1\n      0xa985036d\n      eq\n      tag_22\n      jumpi\n      dup1\n      0xa9f9482b\n      eq\n      tag_23\n      jumpi\n      dup1\n      0xc4957fa0\n      eq\n      tag_24\n      jumpi\n      dup1\n      0xcbffdb29\n      eq\n      tag_25\n      jumpi\n      dup1\n      0xcc21c188\n      eq\n      tag_26\n      jumpi\n      dup1\n      0xd22d9020\n      eq\n      tag_27\n      jumpi\n      dup1\n      0xd68cf8c1\n      eq\n      tag_28\n      jumpi\n      dup1\n      0xdce39151\n      eq\n      tag_29\n      jumpi\n      dup1\n      0xde4032f6\n      eq\n      tag_30\n      jumpi\n    tag_1:\n      0x00\n      dup1\n      revert\n        /* \"Documents/GitHub/Store-system-with-feedback/main.sol\":1924:2063  function get_role_shop(string memory login) public view returns(uint) {\r... */\n    tag_2:\n      callvalue\n      dup1\n      iszero\n      tag_31\n      jumpi\n      0x00\n      dup1\n      revert\n    tag_31:\n      pop\n      tag_32\n      tag_33\n      calldatasize\n      0x04\n      tag_34\n      jump\t// in\n    tag_33:\n      tag_35\n      jump\t// in\n    tag_32:\n      mload(0x40)\n        /* \"#utility.yul\":9214:9239   */\n      swap1\n      dup2\n      mstore\n        /* \"#utility.yul\":9202:9204   */\n      0x20\n        /* \"#utility.yul\":9187:9205   */\n      add\n        /* \"Documents/GitHub/Store-system-with-feedback/main.sol\":1924:2063  function get_role_shop(string memory login) public view returns(uint) {\r... */\n    tag_36:\n      mload(0x40)\n      dup1\n      swap2\n      sub\n      swap1\n      return\n        /* \"Documents/GitHub/Store-system-with-feedback/main.sol\":11264:11379  function login_out_shop(string memory login) public {\r... */\n    tag_3:\n      callvalue\n      dup1\n      iszero\n      tag_38\n      jumpi\n      0x00\n      dup1\n      revert\n    tag_38:\n      pop\n      tag_39\n      tag_40\n      calldatasize\n      0x04\n      tag_34\n      jump\t// in\n    tag_40:\n      tag_41\n      jump\t// in\n    tag_39:\n      stop\n        /* \"Documents/GitHub/Store-system-with-feedback/main.sol\":12433:12761  function create_user(address addr, string memory login, bytes32 password) public {\r... */\n    tag_4:\n      callvalue\n      dup1\n      iszero\n      tag_42\n      jumpi\n      0x00\n      dup1\n      revert\n    tag_42:\n      pop\n      tag_39\n      tag_44\n      calldatasize\n      0x04\n      tag_45\n      jump\t// in\n    tag_44:\n      tag_46\n      jump\t// in\n        /* \"Documents/GitHub/Store-system-with-feedback/main.sol\":11468:11873  function productPurchases (string memory titleProduct) public payable {\r... */\n    tag_5:\n      tag_39\n      tag_48\n      calldatasize\n      0x04\n      tag_34\n      jump\t// in\n    tag_48:\n      tag_49\n      jump\t// in\n        /* \"Documents/GitHub/Store-system-with-feedback/main.sol\":5049:5099  mapping(string => address) public structUserLogins */\n    tag_6:\n      callvalue\n      dup1\n      iszero\n      tag_50\n      jumpi\n      0x00\n      dup1\n      revert\n    tag_50:\n      pop\n      tag_51\n      tag_52\n      calldatasize\n      0x04\n      tag_34\n      jump\t// in\n    tag_52:\n      dup1\n      mload\n      0x20\n      dup2\n      dup4\n      add\n      dup2\n      add\n      dup1\n      mload\n      0x05\n      dup3\n      mstore\n      swap3\n      dup3\n      add\n      swap2\n      swap1\n      swap4\n      add\n      keccak256\n      swap2\n      mstore\n      sload\n      sub(shl(0xa0, 0x01), 0x01)\n      and\n      dup2\n      jump\n    tag_51:\n      mload(0x40)\n      sub(shl(0xa0, 0x01), 0x01)\n        /* \"#utility.yul\":6679:6711   */\n      swap1\n      swap2\n      and\n        /* \"#utility.yul\":6661:6712   */\n      dup2\n      mstore\n        /* \"#utility.yul\":6649:6651   */\n      0x20\n        /* \"#utility.yul\":6634:6652   */\n      add\n        /* \"Documents/GitHub/Store-system-with-feedback/main.sol\":5049:5099  mapping(string => address) public structUserLogins */\n      tag_36\n        /* \"#utility.yul\":6515:6718   */\n      jump\n        /* \"Documents/GitHub/Store-system-with-feedback/main.sol\":1292:1396  function get_shop_list() public view returns(string[] memory) {\r... */\n    tag_7:\n      callvalue\n      dup1\n      iszero\n      tag_56\n      jumpi\n      0x00\n      dup1\n      revert\n    tag_56:\n      pop\n      tag_57\n      tag_58\n      jump\t// in\n    tag_57:\n      mload(0x40)\n      tag_36\n      swap2\n      swap1\n      tag_60\n      jump\t// in\n        /* \"Documents/GitHub/Store-system-with-feedback/main.sol\":10282:10701  function leaveComment (string memory userName, string[] memory comment) public {\r... */\n    tag_8:\n      callvalue\n      dup1\n      iszero\n      tag_61\n      jumpi\n      0x00\n      dup1\n      revert\n    tag_61:\n      pop\n      tag_39\n      tag_63\n      calldatasize\n      0x04\n      tag_64\n      jump\t// in\n    tag_63:\n      tag_65\n      jump\t// in\n        /* \"Documents/GitHub/Store-system-with-feedback/main.sol\":1691:1836  function check_logged_shop(string memory login) public view returns(bool) {\r... */\n    tag_9:\n      callvalue\n      dup1\n      iszero\n      tag_66\n      jumpi\n      0x00\n      dup1\n      revert\n    tag_66:\n      pop\n      tag_67\n      tag_68\n      calldatasize\n      0x04\n      tag_34\n      jump\t// in\n    tag_68:\n      tag_69\n      jump\t// in\n    tag_67:\n      mload(0x40)\n        /* \"#utility.yul\":9041:9055   */\n      swap1\n      iszero\n        /* \"#utility.yul\":9034:9056   */\n      iszero\n        /* \"#utility.yul\":9016:9057   */\n      dup2\n      mstore\n        /* \"#utility.yul\":9004:9006   */\n      0x20\n        /* \"#utility.yul\":8989:9007   */\n      add\n        /* \"Documents/GitHub/Store-system-with-feedback/main.sol\":1691:1836  function check_logged_shop(string memory login) public view returns(bool) {\r... */\n      tag_36\n        /* \"#utility.yul\":8876:9063   */\n      jump\n        /* \"Documents/GitHub/Store-system-with-feedback/main.sol\":13368:13490  function login_out_user(string memory login) public {\r... */\n    tag_10:\n      callvalue\n      dup1\n      iszero\n      tag_72\n      jumpi\n      0x00\n      dup1\n      revert\n    tag_72:\n      pop\n      tag_39\n      tag_74\n      calldatasize\n      0x04\n      tag_34\n      jump\t// in\n    tag_74:\n      tag_75\n      jump\t// in\n        /* \"Documents/GitHub/Store-system-with-feedback/main.sol\":2155:2294  function get_city(string memory login) public view returns(string memory) {\r... */\n    tag_11:\n      callvalue\n      dup1\n      iszero\n      tag_76\n      jumpi\n      0x00\n      dup1\n      revert\n    tag_76:\n      pop\n      tag_77\n      tag_78\n      calldatasize\n      0x04\n      tag_34\n      jump\t// in\n    tag_78:\n      tag_79\n      jump\t// in\n    tag_77:\n      mload(0x40)\n      tag_36\n      swap2\n      swap1\n      tag_81\n      jump\t// in\n        /* \"Documents/GitHub/Store-system-with-feedback/main.sol\":2677:2829  function check_logged_user(string memory login) public view returns(bool) {\r... */\n    tag_12:\n      callvalue\n      dup1\n      iszero\n      tag_82\n      jumpi\n      0x00\n      dup1\n      revert\n    tag_82:\n      pop\n      tag_67\n      tag_84\n      calldatasize\n      0x04\n      tag_34\n      jump\t// in\n    tag_84:\n      tag_85\n      jump\t// in\n        /* \"Documents/GitHub/Store-system-with-feedback/main.sol\":1483:1593  function get_product_list() public view returns(string[] memory) {\r... */\n    tag_13:\n      callvalue\n      dup1\n      iszero\n      tag_87\n      jumpi\n      0x00\n      dup1\n      revert\n    tag_87:\n      pop\n      tag_57\n      tag_89\n      jump\t// in\n        /* \"Documents/GitHub/Store-system-with-feedback/main.sol\":2925:3071  function get_role_user(string memory login) public view returns(uint) {\r... */\n    tag_14:\n      callvalue\n      dup1\n      iszero\n      tag_91\n      jumpi\n      0x00\n      dup1\n      revert\n    tag_91:\n      pop\n      tag_32\n      tag_93\n      calldatasize\n      0x04\n      tag_34\n      jump\t// in\n    tag_93:\n      tag_94\n      jump\t// in\n        /* \"Documents/GitHub/Store-system-with-feedback/main.sol\":3606:3893  function get_address(string memory login) public view returns(address) {\r... */\n    tag_15:\n      callvalue\n      dup1\n      iszero\n      tag_96\n      jumpi\n      0x00\n      dup1\n      revert\n    tag_96:\n      pop\n      tag_51\n      tag_98\n      calldatasize\n      0x04\n      tag_34\n      jump\t// in\n    tag_98:\n      tag_99\n      jump\t// in\n        /* \"Documents/GitHub/Store-system-with-feedback/main.sol\":6334:6615  function addProductShop (string memory title, uint256 price, string memory description) public {\r... */\n    tag_16:\n      callvalue\n      dup1\n      iszero\n      tag_101\n      jumpi\n      0x00\n      dup1\n      revert\n    tag_101:\n      pop\n      tag_39\n      tag_103\n      calldatasize\n      0x04\n      tag_104\n      jump\t// in\n    tag_103:\n      tag_105\n      jump\t// in\n        /* \"Documents/GitHub/Store-system-with-feedback/main.sol\":10781:11183  function login_shop(string memory login, bytes32 password) public {\r... */\n    tag_17:\n      callvalue\n      dup1\n      iszero\n      tag_106\n      jumpi\n      0x00\n      dup1\n      revert\n    tag_106:\n      pop\n      tag_39\n      tag_108\n      calldatasize\n      0x04\n      tag_109\n      jump\t// in\n    tag_108:\n      tag_110\n      jump\t// in\n        /* \"Documents/GitHub/Store-system-with-feedback/main.sol\":6122:6185  structMarriageRegistration[] public structMarriageRegistrations */\n    tag_18:\n      callvalue\n      dup1\n      iszero\n      tag_111\n      jumpi\n      0x00\n      dup1\n      revert\n    tag_111:\n      pop\n      tag_112\n      tag_113\n      calldatasize\n      0x04\n      tag_114\n      jump\t// in\n    tag_113:\n      tag_115\n      jump\t// in\n    tag_112:\n      mload(0x40)\n      tag_36\n      swap4\n      swap3\n      swap2\n      swap1\n      tag_117\n      jump\t// in\n        /* \"Documents/GitHub/Store-system-with-feedback/main.sol\":3389:3528  function get_hash(string memory password) public pure returns(bytes32) {\r... */\n    tag_19:\n      callvalue\n      dup1\n      iszero\n      tag_118\n      jumpi\n      0x00\n      dup1\n      revert\n    tag_118:\n      pop\n      tag_32\n      tag_120\n      calldatasize\n      0x04\n      tag_34\n      jump\t// in\n    tag_120:\n      tag_121\n      jump\t// in\n        /* \"Documents/GitHub/Store-system-with-feedback/main.sol\":4282:4332  mapping (address => structShop) public structShops */\n    tag_20:\n      callvalue\n      dup1\n      iszero\n      tag_124\n      jumpi\n      0x00\n      dup1\n      revert\n    tag_124:\n      pop\n      tag_125\n      tag_126\n      calldatasize\n      0x04\n      tag_127\n      jump\t// in\n    tag_126:\n      tag_128\n      jump\t// in\n    tag_125:\n      mload(0x40)\n      tag_36\n      swap9\n      swap8\n      swap7\n      swap6\n      swap5\n      swap4\n      swap3\n      swap2\n      swap1\n      tag_130\n      jump\t// in\n        /* \"Documents/GitHub/Store-system-with-feedback/main.sol\":4993:5042  mapping(address => structUser) public structUsers */\n    tag_21:\n      callvalue\n      dup1\n      iszero\n      tag_131\n      jumpi\n      0x00\n      dup1\n      revert\n    tag_131:\n      pop\n      tag_132\n      tag_133\n      calldatasize\n      0x04\n      tag_127\n      jump\t// in\n    tag_133:\n      tag_134\n      jump\t// in\n    tag_132:\n      mload(0x40)\n      tag_36\n      swap6\n      swap5\n      swap4\n      swap3\n      swap2\n      swap1\n      tag_136\n      jump\t// in\n        /* \"Documents/GitHub/Store-system-with-feedback/main.sol\":9332:10185  function getStoryRating(string memory shopName) public view returns(uint) {\r... */\n    tag_22:\n      callvalue\n      dup1\n      iszero\n      tag_137\n      jumpi\n      0x00\n      dup1\n      revert\n    tag_137:\n      pop\n      tag_32\n      tag_139\n      calldatasize\n      0x04\n      tag_34\n      jump\t// in\n    tag_139:\n      tag_140\n      jump\t// in\n        /* \"Documents/GitHub/Store-system-with-feedback/main.sol\":5878:5925  structStatusReturn[] public structStatusReturns */\n    tag_23:\n      callvalue\n      dup1\n      iszero\n      tag_142\n      jumpi\n      0x00\n      dup1\n      revert\n    tag_142:\n      pop\n      tag_112\n      tag_144\n      calldatasize\n      0x04\n      tag_114\n      jump\t// in\n    tag_144:\n      tag_145\n      jump\t// in\n        /* \"Documents/GitHub/Store-system-with-feedback/main.sol\":4339:4382  mapping(string => address) public shopLists */\n    tag_24:\n      callvalue\n      dup1\n      iszero\n      tag_147\n      jumpi\n      0x00\n      dup1\n      revert\n    tag_147:\n      pop\n      tag_51\n      tag_149\n      calldatasize\n      0x04\n      tag_34\n      jump\t// in\n    tag_149:\n      dup1\n      mload\n      0x20\n      dup2\n      dup4\n      add\n      dup2\n      add\n      dup1\n      mload\n      0x01\n      dup3\n      mstore\n      swap3\n      dup3\n      add\n      swap2\n      swap1\n      swap4\n      add\n      keccak256\n      swap2\n      mstore\n      sload\n      sub(shl(0xa0, 0x01), 0x01)\n      and\n      dup2\n      jump\n        /* \"Documents/GitHub/Store-system-with-feedback/main.sol\":3166:3292  function get_ballance_user(address adr) public view returns(uint) {\r... */\n    tag_25:\n      callvalue\n      dup1\n      iszero\n      tag_152\n      jumpi\n      0x00\n      dup1\n      revert\n    tag_152:\n      pop\n      tag_32\n      tag_154\n      calldatasize\n      0x04\n      tag_127\n      jump\t// in\n    tag_154:\n      sub(shl(0xa0, 0x01), 0x01)\n        /* \"Documents/GitHub/Store-system-with-feedback/main.sol\":3254:3270  structUsers[adr] */\n      and\n        /* \"Documents/GitHub/Store-system-with-feedback/main.sol\":3226:3230  uint */\n      0x00\n        /* \"Documents/GitHub/Store-system-with-feedback/main.sol\":3254:3270  structUsers[adr] */\n      swap1\n      dup2\n      mstore\n        /* \"Documents/GitHub/Store-system-with-feedback/main.sol\":3254:3265  structUsers */\n      0x04\n        /* \"Documents/GitHub/Store-system-with-feedback/main.sol\":3254:3270  structUsers[adr] */\n      0x20\n      mstore\n      0x40\n      swap1\n      keccak256\n        /* \"Documents/GitHub/Store-system-with-feedback/main.sol\":3254:3279  structUsers[adr].ballance */\n      0x02\n      add\n      sload\n      swap1\n        /* \"Documents/GitHub/Store-system-with-feedback/main.sol\":3166:3292  function get_ballance_user(address adr) public view returns(uint) {\r... */\n      jump\n        /* \"Documents/GitHub/Store-system-with-feedback/main.sol\":6690:7278  function leaveFeedback (string memory shop, string memory feedback, uint256 rating) public {\r... */\n    tag_26:\n      callvalue\n      dup1\n      iszero\n      tag_157\n      jumpi\n      0x00\n      dup1\n      revert\n    tag_157:\n      pop\n      tag_39\n      tag_159\n      calldatasize\n      0x04\n      tag_160\n      jump\t// in\n    tag_159:\n      tag_161\n      jump\t// in\n        /* \"Documents/GitHub/Store-system-with-feedback/main.sol\":12849:13279  function login_user(string memory login, bytes32 password) public {\r... */\n    tag_27:\n      callvalue\n      dup1\n      iszero\n      tag_162\n      jumpi\n      0x00\n      dup1\n      revert\n    tag_162:\n      pop\n      tag_39\n      tag_164\n      calldatasize\n      0x04\n      tag_109\n      jump\t// in\n    tag_164:\n      tag_165\n      jump\t// in\n        /* \"Documents/GitHub/Store-system-with-feedback/main.sol\":5348:5402  mapping(string => structProduct) public structProducts */\n    tag_28:\n      callvalue\n      dup1\n      iszero\n      tag_166\n      jumpi\n      0x00\n      dup1\n      revert\n    tag_166:\n      pop\n      tag_167\n      tag_168\n      calldatasize\n      0x04\n      tag_34\n      jump\t// in\n    tag_168:\n      tag_169\n      jump\t// in\n    tag_167:\n      mload(0x40)\n      tag_36\n      swap5\n      swap4\n      swap3\n      swap2\n      swap1\n      tag_171\n      jump\t// in\n        /* \"Documents/GitHub/Store-system-with-feedback/main.sol\":5640:5691  structStatusPurchase[] public structStatusPurchases */\n    tag_29:\n      callvalue\n      dup1\n      iszero\n      tag_172\n      jumpi\n      0x00\n      dup1\n      revert\n    tag_172:\n      pop\n      tag_173\n      tag_174\n      calldatasize\n      0x04\n      tag_114\n      jump\t// in\n    tag_174:\n      tag_175\n      jump\t// in\n    tag_173:\n      mload(0x40)\n      tag_36\n      swap5\n      swap4\n      swap3\n      swap2\n      swap1\n      tag_177\n      jump\t// in\n        /* \"Documents/GitHub/Store-system-with-feedback/main.sol\":2381:2507  function get_ballance_shop(address adr) public view returns(uint) {\r... */\n    tag_30:\n      callvalue\n      dup1\n      iszero\n      tag_178\n      jumpi\n      0x00\n      dup1\n      revert\n    tag_178:\n      pop\n      tag_32\n      tag_180\n      calldatasize\n      0x04\n      tag_127\n      jump\t// in\n    tag_180:\n      sub(shl(0xa0, 0x01), 0x01)\n        /* \"Documents/GitHub/Store-system-with-feedback/main.sol\":2469:2485  structShops[adr] */\n      and\n        /* \"Documents/GitHub/Store-system-with-feedback/main.sol\":2441:2445  uint */\n      0x00\n        /* \"Documents/GitHub/Store-system-with-feedback/main.sol\":2469:2485  structShops[adr] */\n      swap1\n      dup2\n      mstore\n      0x20\n      dup2\n      swap1\n      mstore\n      0x40\n      swap1\n      keccak256\n        /* \"Documents/GitHub/Store-system-with-feedback/main.sol\":2469:2494  structShops[adr].ballance */\n      0x02\n      add\n      sload\n      swap1\n        /* \"Documents/GitHub/Store-system-with-feedback/main.sol\":2381:2507  function get_ballance_shop(address adr) public view returns(uint) {\r... */\n      jump\n        /* \"Documents/GitHub/Store-system-with-feedback/main.sol\":1924:2063  function get_role_shop(string memory login) public view returns(uint) {\r... */\n    tag_35:\n        /* \"Documents/GitHub/Store-system-with-feedback/main.sol\":1988:1992  uint */\n      0x00\n        /* \"Documents/GitHub/Store-system-with-feedback/main.sol\":2016:2027  structShops */\n      dup1\n        /* \"Documents/GitHub/Store-system-with-feedback/main.sol\":2016:2045  structShops[shopLists[login]] */\n      0x00\n        /* \"Documents/GitHub/Store-system-with-feedback/main.sol\":2028:2037  shopLists */\n      0x01\n        /* \"Documents/GitHub/Store-system-with-feedback/main.sol\":2038:2043  login */\n      dup5\n        /* \"Documents/GitHub/Store-system-with-feedback/main.sol\":2028:2044  shopLists[login] */\n      mload(0x40)\n      tag_184\n      swap2\n      swap1\n      tag_185\n      jump\t// in\n    tag_184:\n      swap1\n      dup2\n      mstore\n      0x40\n      dup1\n      mload\n      0x20\n      swap3\n      dup2\n      swap1\n      sub\n      dup4\n      add\n      swap1\n      keccak256\n      sload\n      sub(shl(0xa0, 0x01), 0x01)\n      and\n        /* \"Documents/GitHub/Store-system-with-feedback/main.sol\":2016:2045  structShops[shopLists[login]] */\n      dup4\n      mstore\n      swap1\n      dup3\n      add\n      swap3\n      swap1\n      swap3\n      mstore\n      add\n      0x00\n      keccak256\n        /* \"Documents/GitHub/Store-system-with-feedback/main.sol\":2016:2050  structShops[shopLists[login]].role */\n      0x03\n      add\n      sload\n      swap3\n      swap2\n      pop\n      pop\n        /* \"Documents/GitHub/Store-system-with-feedback/main.sol\":1924:2063  function get_role_shop(string memory login) public view returns(uint) {\r... */\n      jump\t// out\n        /* \"Documents/GitHub/Store-system-with-feedback/main.sol\":11264:11379  function login_out_shop(string memory login) public {\r... */\n    tag_41:\n        /* \"Documents/GitHub/Store-system-with-feedback/main.sol\":11366:11371  false */\n      0x00\n        /* \"Documents/GitHub/Store-system-with-feedback/main.sol\":11327:11338  structShops */\n      dup1\n        /* \"Documents/GitHub/Store-system-with-feedback/main.sol\":11327:11356  structShops[shopLists[login]] */\n      0x00\n        /* \"Documents/GitHub/Store-system-with-feedback/main.sol\":11339:11348  shopLists */\n      0x01\n        /* \"Documents/GitHub/Store-system-with-feedback/main.sol\":11349:11354  login */\n      dup5\n        /* \"Documents/GitHub/Store-system-with-feedback/main.sol\":11339:11355  shopLists[login] */\n      mload(0x40)\n      tag_187\n      swap2\n      swap1\n      tag_185\n      jump\t// in\n    tag_187:\n      swap1\n      dup2\n      mstore\n      0x40\n      dup1\n      mload\n      0x20\n      swap3\n      dup2\n      swap1\n      sub\n      dup4\n      add\n      swap1\n      keccak256\n      sload\n      sub(shl(0xa0, 0x01), 0x01)\n      and\n        /* \"Documents/GitHub/Store-system-with-feedback/main.sol\":11327:11356  structShops[shopLists[login]] */\n      dup4\n      mstore\n      swap1\n      dup3\n      add\n      swap3\n      swap1\n      swap3\n      mstore\n      add\n      0x00\n      keccak256\n        /* \"Documents/GitHub/Store-system-with-feedback/main.sol\":11327:11363  structShops[shopLists[login]].logged */\n      0x04\n      add\n        /* \"Documents/GitHub/Store-system-with-feedback/main.sol\":11327:11371  structShops[shopLists[login]].logged = false */\n      dup1\n      sload\n      not(0xff)\n      and\n      swap2\n      iszero\n      iszero\n      swap2\n      swap1\n      swap2\n      or\n      swap1\n      sstore\n      pop\n        /* \"Documents/GitHub/Store-system-with-feedback/main.sol\":11264:11379  function login_out_shop(string memory login) public {\r... */\n      jump\t// out\n        /* \"Documents/GitHub/Store-system-with-feedback/main.sol\":12433:12761  function create_user(address addr, string memory login, bytes32 password) public {\r... */\n    tag_46:\n        /* \"Documents/GitHub/Store-system-with-feedback/main.sol\":12568:12569  0 */\n      0x00\n      sub(shl(0xa0, 0x01), 0x01)\n        /* \"Documents/GitHub/Store-system-with-feedback/main.sol\":12533:12570  structUserLogins[login] == address(0) */\n      and\n        /* \"Documents/GitHub/Store-system-with-feedback/main.sol\":12533:12549  structUserLogins */\n      0x05\n        /* \"Documents/GitHub/Store-system-with-feedback/main.sol\":12550:12555  login */\n      dup4\n        /* \"Documents/GitHub/Store-system-with-feedback/main.sol\":12533:12556  structUserLogins[login] */\n      mload(0x40)\n      tag_189\n      swap2\n      swap1\n      tag_185\n      jump\t// in\n    tag_189:\n      swap1\n      dup2\n      mstore\n      mload(0x40)\n      swap1\n      dup2\n      swap1\n      sub\n      0x20\n      add\n      swap1\n      keccak256\n      sload\n      sub(shl(0xa0, 0x01), 0x01)\n      and\n        /* \"Documents/GitHub/Store-system-with-feedback/main.sol\":12533:12570  structUserLogins[login] == address(0) */\n      eq\n        /* \"Documents/GitHub/Store-system-with-feedback/main.sol\":12525:12600  require(structUserLogins[login] == address(0), \"Error: User already exist\") */\n      tag_190\n      jumpi\n      mload(0x40)\n      shl(0xe5, 0x461bcd)\n      dup2\n      mstore\n        /* \"#utility.yul\":11141:11143   */\n      0x20\n        /* \"Documents/GitHub/Store-system-with-feedback/main.sol\":12525:12600  require(structUserLogins[login] == address(0), \"Error: User already exist\") */\n      0x04\n      dup3\n      add\n        /* \"#utility.yul\":11123:11144   */\n      mstore\n        /* \"#utility.yul\":11180:11182   */\n      0x19\n        /* \"#utility.yul\":11160:11178   */\n      0x24\n      dup3\n      add\n        /* \"#utility.yul\":11153:11183   */\n      mstore\n      shl(0x3a, 0x115c9c9bdc8e88155cd95c88185b1c9958591e48195e1a5cdd)\n        /* \"#utility.yul\":11199:11217   */\n      0x44\n      dup3\n      add\n        /* \"#utility.yul\":11192:11247   */\n      mstore\n        /* \"#utility.yul\":11264:11282   */\n      0x64\n      add\n        /* \"Documents/GitHub/Store-system-with-feedback/main.sol\":12525:12600  require(structUserLogins[login] == address(0), \"Error: User already exist\") */\n    tag_191:\n      mload(0x40)\n      dup1\n      swap2\n      sub\n      swap1\n      revert\n    tag_190:\n        /* \"Documents/GitHub/Store-system-with-feedback/main.sol\":12631:12674  structUser(login, password, 1000, 2, false) */\n      0x40\n      dup1\n      mload\n      0xa0\n      dup2\n      add\n      dup3\n      mstore\n      dup4\n      dup2\n      mstore\n      0x20\n      dup1\n      dup3\n      add\n      dup5\n      swap1\n      mstore\n        /* \"Documents/GitHub/Store-system-with-feedback/main.sol\":12659:12663  1000 */\n      0x03e8\n        /* \"Documents/GitHub/Store-system-with-feedback/main.sol\":12631:12674  structUser(login, password, 1000, 2, false) */\n      dup3\n      dup5\n      add\n      mstore\n        /* \"Documents/GitHub/Store-system-with-feedback/main.sol\":12665:12666  2 */\n      0x02\n        /* \"Documents/GitHub/Store-system-with-feedback/main.sol\":12631:12674  structUser(login, password, 1000, 2, false) */\n      0x60\n      dup4\n      add\n      mstore\n      0x00\n      0x80\n      dup4\n      add\n      dup2\n      swap1\n      mstore\n      sub(shl(0xa0, 0x01), 0x01)\n        /* \"Documents/GitHub/Store-system-with-feedback/main.sol\":12611:12628  structUsers[addr] */\n      dup8\n      and\n      dup2\n      mstore\n        /* \"Documents/GitHub/Store-system-with-feedback/main.sol\":12611:12622  structUsers */\n      0x04\n        /* \"Documents/GitHub/Store-system-with-feedback/main.sol\":12611:12628  structUsers[addr] */\n      dup3\n      mstore\n      swap3\n      swap1\n      swap3\n      keccak256\n        /* \"Documents/GitHub/Store-system-with-feedback/main.sol\":12611:12674  structUsers[addr] = structUser(login, password, 1000, 2, false) */\n      dup2\n      mload\n      dup1\n      mload\n        /* \"Documents/GitHub/Store-system-with-feedback/main.sol\":12631:12674  structUser(login, password, 1000, 2, false) */\n      swap3\n      swap4\n        /* \"Documents/GitHub/Store-system-with-feedback/main.sol\":12611:12628  structUsers[addr] */\n      swap2\n      swap3\n        /* \"Documents/GitHub/Store-system-with-feedback/main.sol\":12611:12674  structUsers[addr] = structUser(login, password, 1000, 2, false) */\n      tag_193\n      swap3\n        /* \"Documents/GitHub/Store-system-with-feedback/main.sol\":12611:12628  structUsers[addr] */\n      dup5\n      swap3\n        /* \"Documents/GitHub/Store-system-with-feedback/main.sol\":12611:12674  structUsers[addr] = structUser(login, password, 1000, 2, false) */\n      add\n      swap1\n      tag_194\n      jump\t// in\n    tag_193:\n      pop\n      0x20\n      dup3\n      add\n      mload\n      0x01\n      dup3\n      add\n      sstore\n      0x40\n      dup1\n      dup4\n      add\n      mload\n      0x02\n      dup4\n      add\n      sstore\n      0x60\n      dup4\n      add\n      mload\n      0x03\n      dup4\n      add\n      sstore\n      0x80\n      swap1\n      swap3\n      add\n      mload\n      0x04\n      swap1\n      swap2\n      add\n      dup1\n      sload\n      not(0xff)\n      and\n      swap2\n      iszero\n      iszero\n      swap2\n      swap1\n      swap2\n      or\n      swap1\n      sstore\n        /* \"Documents/GitHub/Store-system-with-feedback/main.sol\":12685:12708  structUserLogins[login] */\n      mload\n        /* \"Documents/GitHub/Store-system-with-feedback/main.sol\":12711:12715  addr */\n      dup4\n      swap1\n        /* \"Documents/GitHub/Store-system-with-feedback/main.sol\":12685:12701  structUserLogins */\n      0x05\n      swap1\n        /* \"Documents/GitHub/Store-system-with-feedback/main.sol\":12685:12708  structUserLogins[login] */\n      tag_195\n      swap1\n        /* \"Documents/GitHub/Store-system-with-feedback/main.sol\":12702:12707  login */\n      dup6\n      swap1\n        /* \"Documents/GitHub/Store-system-with-feedback/main.sol\":12685:12708  structUserLogins[login] */\n      tag_185\n      jump\t// in\n    tag_195:\n      swap1\n      dup2\n      mstore\n      mload(0x40)\n      swap1\n      dup2\n      swap1\n      sub\n      0x20\n      add\n      swap1\n      keccak256\n        /* \"Documents/GitHub/Store-system-with-feedback/main.sol\":12685:12715  structUserLogins[login] = addr */\n      dup1\n      sload\n      sub(shl(0xa0, 0x01), 0x01)\n      swap3\n      dup4\n      and\n      not(sub(shl(0xa0, 0x01), 0x01))\n      swap2\n      dup3\n      and\n      or\n      swap1\n      swap2\n      sstore\n        /* \"Documents/GitHub/Store-system-with-feedback/main.sol\":12726:12742  userAddressArray */\n      0x07\n        /* \"Documents/GitHub/Store-system-with-feedback/main.sol\":12726:12753  userAddressArray.push(addr) */\n      dup1\n      sload\n        /* \"Documents/GitHub/Store-system-with-feedback/main.sol\":12685:12715  structUserLogins[login] = addr */\n      0x01\n        /* \"Documents/GitHub/Store-system-with-feedback/main.sol\":12726:12753  userAddressArray.push(addr) */\n      dup2\n      add\n      dup3\n      sstore\n        /* \"Documents/GitHub/Store-system-with-feedback/main.sol\":12685:12708  structUserLogins[login] */\n      0x00\n        /* \"Documents/GitHub/Store-system-with-feedback/main.sol\":12726:12753  userAddressArray.push(addr) */\n      swap2\n      swap1\n      swap2\n      mstore\n      0xa66cc928b5edb82af9bd49922954155ab7b0942694bea4ce44661d9a8736c688\n      add\n      dup1\n      sload\n      swap6\n      swap1\n      swap3\n      and\n      swap5\n      and\n      swap4\n      swap1\n      swap4\n      or\n      swap1\n      swap3\n      sstore\n      pop\n      pop\n        /* \"Documents/GitHub/Store-system-with-feedback/main.sol\":12433:12761  function create_user(address addr, string memory login, bytes32 password) public {\r... */\n      jump\t// out\n        /* \"Documents/GitHub/Store-system-with-feedback/main.sol\":11468:11873  function productPurchases (string memory titleProduct) public payable {\r... */\n    tag_49:\n        /* \"Documents/GitHub/Store-system-with-feedback/main.sol\":11593:11607  structProducts */\n      0x08\n        /* \"Documents/GitHub/Store-system-with-feedback/main.sol\":11608:11620  titleProduct */\n      dup2\n        /* \"Documents/GitHub/Store-system-with-feedback/main.sol\":11593:11621  structProducts[titleProduct] */\n      mload(0x40)\n      tag_198\n      swap2\n      swap1\n      tag_185\n      jump\t// in\n    tag_198:\n      swap1\n      dup2\n      mstore\n      0x20\n      add\n      mload(0x40)\n      dup1\n      swap2\n      sub\n      swap1\n      keccak256\n        /* \"Documents/GitHub/Store-system-with-feedback/main.sol\":11593:11627  structProducts[titleProduct].price */\n      0x02\n      add\n      sload\n        /* \"Documents/GitHub/Store-system-with-feedback/main.sol\":11557:11568  structUsers */\n      0x04\n        /* \"Documents/GitHub/Store-system-with-feedback/main.sol\":11557:11580  structUsers[msg.sender] */\n      0x00\n        /* \"Documents/GitHub/Store-system-with-feedback/main.sol\":11569:11579  msg.sender */\n      caller\n      sub(shl(0xa0, 0x01), 0x01)\n        /* \"Documents/GitHub/Store-system-with-feedback/main.sol\":11557:11580  structUsers[msg.sender] */\n      and\n      sub(shl(0xa0, 0x01), 0x01)\n      and\n      dup2\n      mstore\n      0x20\n      add\n      swap1\n      dup2\n      mstore\n      0x20\n      add\n      0x00\n      keccak256\n        /* \"Documents/GitHub/Store-system-with-feedback/main.sol\":11557:11589  structUsers[msg.sender].ballance */\n      0x02\n      add\n      sload\n        /* \"Documents/GitHub/Store-system-with-feedback/main.sol\":11557:11627  structUsers[msg.sender].ballance >= structProducts[titleProduct].price */\n      lt\n      iszero\n        /* \"Documents/GitHub/Store-system-with-feedback/main.sol\":11549:11648  require(structUsers[msg.sender].ballance >= structProducts[titleProduct].price, \"error: not money\") */\n      tag_199\n      jumpi\n      mload(0x40)\n      shl(0xe5, 0x461bcd)\n      dup2\n      mstore\n        /* \"#utility.yul\":12201:12203   */\n      0x20\n        /* \"Documents/GitHub/Store-system-with-feedback/main.sol\":11549:11648  require(structUsers[msg.sender].ballance >= structProducts[titleProduct].price, \"error: not money\") */\n      0x04\n      dup3\n      add\n        /* \"#utility.yul\":12183:12204   */\n      mstore\n        /* \"#utility.yul\":12240:12242   */\n      0x10\n        /* \"#utility.yul\":12220:12238   */\n      0x24\n      dup3\n      add\n        /* \"#utility.yul\":12213:12243   */\n      mstore\n      shl(0x80, 0x6572726f723a206e6f74206d6f6e6579)\n        /* \"#utility.yul\":12259:12277   */\n      0x44\n      dup3\n      add\n        /* \"#utility.yul\":12252:12298   */\n      mstore\n        /* \"#utility.yul\":12315:12333   */\n      0x64\n      add\n        /* \"Documents/GitHub/Store-system-with-feedback/main.sol\":11549:11648  require(structUsers[msg.sender].ballance >= structProducts[titleProduct].price, \"error: not money\") */\n      tag_191\n        /* \"#utility.yul\":11999:12339   */\n      jump\n        /* \"Documents/GitHub/Store-system-with-feedback/main.sol\":11549:11648  require(structUsers[msg.sender].ballance >= structProducts[titleProduct].price, \"error: not money\") */\n    tag_199:\n        /* \"Documents/GitHub/Store-system-with-feedback/main.sol\":11686:11749  structStatusPurchase(msg.sender, titleProduct, msg.value, true) */\n      0x40\n      dup1\n      mload\n      0x80\n      dup2\n      add\n      dup3\n      mstore\n        /* \"Documents/GitHub/Store-system-with-feedback/main.sol\":11707:11717  msg.sender */\n      caller\n        /* \"Documents/GitHub/Store-system-with-feedback/main.sol\":11686:11749  structStatusPurchase(msg.sender, titleProduct, msg.value, true) */\n      dup2\n      mstore\n      0x20\n      dup1\n      dup3\n      add\n      dup5\n      dup2\n      mstore\n        /* \"Documents/GitHub/Store-system-with-feedback/main.sol\":11733:11742  msg.value */\n      callvalue\n        /* \"Documents/GitHub/Store-system-with-feedback/main.sol\":11686:11749  structStatusPurchase(msg.sender, titleProduct, msg.value, true) */\n      swap4\n      dup4\n      add\n      swap4\n      swap1\n      swap4\n      mstore\n        /* \"Documents/GitHub/Store-system-with-feedback/main.sol\":11744:11748  true */\n      0x01\n        /* \"Documents/GitHub/Store-system-with-feedback/main.sol\":11686:11749  structStatusPurchase(msg.sender, titleProduct, msg.value, true) */\n      0x60\n      dup4\n      add\n      dup2\n      swap1\n      mstore\n        /* \"Documents/GitHub/Store-system-with-feedback/main.sol\":11659:11680  structStatusPurchases */\n      0x0a\n        /* \"Documents/GitHub/Store-system-with-feedback/main.sol\":11659:11750  structStatusPurchases.push(structStatusPurchase(msg.sender, titleProduct, msg.value, true)) */\n      dup1\n      sload\n      swap2\n      dup3\n      add\n      dup2\n      sstore\n      0x00\n      mstore\n      dup3\n      mload\n      0xc65a7bb8d6351c1cf70c95a316cc6a92839c986682d98bc35f958f4883f9d2a8\n      0x04\n      swap1\n      swap3\n      mul\n      swap2\n      dup3\n      add\n      dup1\n      sload\n      not(sub(shl(0xa0, 0x01), 0x01))\n      and\n      sub(shl(0xa0, 0x01), 0x01)\n      swap1\n      swap3\n      and\n      swap2\n      swap1\n      swap2\n      or\n      dup2\n      sstore\n      swap4\n      mload\n      dup1\n      mload\n        /* \"Documents/GitHub/Store-system-with-feedback/main.sol\":11686:11749  structStatusPurchase(msg.sender, titleProduct, msg.value, true) */\n      swap4\n      swap5\n        /* \"Documents/GitHub/Store-system-with-feedback/main.sol\":11659:11750  structStatusPurchases.push(structStatusPurchase(msg.sender, titleProduct, msg.value, true)) */\n      swap4\n      tag_203\n      swap4\n      0xc65a7bb8d6351c1cf70c95a316cc6a92839c986682d98bc35f958f4883f9d2a9\n      swap1\n      swap4\n      add\n      swap3\n      swap2\n      swap1\n      swap2\n      add\n      swap1\n      tag_194\n      jump\t// in\n    tag_203:\n      pop\n      0x40\n      dup3\n      dup2\n      add\n      mload\n      0x02\n      dup4\n      add\n      sstore\n      0x60\n      swap1\n      swap3\n      add\n      mload\n      0x03\n      swap1\n      swap2\n      add\n      dup1\n      sload\n      not(0xff)\n      and\n      swap2\n      iszero\n      iszero\n      swap2\n      swap1\n      swap2\n      or\n      swap1\n      sstore\n        /* \"Documents/GitHub/Store-system-with-feedback/main.sol\":11831:11859  structProducts[titleProduct] */\n      mload\n        /* \"Documents/GitHub/Store-system-with-feedback/main.sol\":11831:11845  structProducts */\n      0x08\n      swap1\n        /* \"Documents/GitHub/Store-system-with-feedback/main.sol\":11831:11859  structProducts[titleProduct] */\n      tag_204\n      swap1\n        /* \"Documents/GitHub/Store-system-with-feedback/main.sol\":11846:11858  titleProduct */\n      dup4\n      swap1\n        /* \"Documents/GitHub/Store-system-with-feedback/main.sol\":11831:11859  structProducts[titleProduct] */\n      tag_185\n      jump\t// in\n    tag_204:\n      swap1\n      dup2\n      mstore\n      0x20\n      add\n      mload(0x40)\n      dup1\n      swap2\n      sub\n      swap1\n      keccak256\n        /* \"Documents/GitHub/Store-system-with-feedback/main.sol\":11831:11865  structProducts[titleProduct].price */\n      0x02\n      add\n      sload\n        /* \"Documents/GitHub/Store-system-with-feedback/main.sol\":11796:11807  structUsers */\n      0x04\n        /* \"Documents/GitHub/Store-system-with-feedback/main.sol\":11796:11819  structUsers[msg.sender] */\n      0x00\n        /* \"Documents/GitHub/Store-system-with-feedback/main.sol\":11808:11818  msg.sender */\n      caller\n      sub(shl(0xa0, 0x01), 0x01)\n        /* \"Documents/GitHub/Store-system-with-feedback/main.sol\":11796:11819  structUsers[msg.sender] */\n      and\n      sub(shl(0xa0, 0x01), 0x01)\n      and\n      dup2\n      mstore\n      0x20\n      add\n      swap1\n      dup2\n      mstore\n      0x20\n      add\n      0x00\n      keccak256\n        /* \"Documents/GitHub/Store-system-with-feedback/main.sol\":11796:11828  structUsers[msg.sender].ballance */\n      0x02\n      add\n      sload\n        /* \"Documents/GitHub/Store-system-with-feedback/main.sol\":11796:11865  structUsers[msg.sender].ballance - structProducts[titleProduct].price */\n      tag_205\n      swap2\n      swap1\n      tag_206\n      jump\t// in\n    tag_205:\n        /* \"Documents/GitHub/Store-system-with-feedback/main.sol\":11773:11783  msg.sender */\n      caller\n        /* \"Documents/GitHub/Store-system-with-feedback/main.sol\":11761:11784  structUsers[msg.sender] */\n      0x00\n      swap1\n      dup2\n      mstore\n        /* \"Documents/GitHub/Store-system-with-feedback/main.sol\":11761:11772  structUsers */\n      0x04\n        /* \"Documents/GitHub/Store-system-with-feedback/main.sol\":11761:11784  structUsers[msg.sender] */\n      0x20\n      mstore\n      0x40\n      swap1\n      keccak256\n        /* \"Documents/GitHub/Store-system-with-feedback/main.sol\":11761:11793  structUsers[msg.sender].ballance */\n      0x02\n      add\n        /* \"Documents/GitHub/Store-system-with-feedback/main.sol\":11761:11865  structUsers[msg.sender].ballance = structUsers[msg.sender].ballance - structProducts[titleProduct].price */\n      sstore\n      pop\n        /* \"Documents/GitHub/Store-system-with-feedback/main.sol\":11468:11873  function productPurchases (string memory titleProduct) public payable {\r... */\n      jump\t// out\n        /* \"Documents/GitHub/Store-system-with-feedback/main.sol\":1292:1396  function get_shop_list() public view returns(string[] memory) {\r... */\n    tag_58:\n        /* \"Documents/GitHub/Store-system-with-feedback/main.sol\":1337:1352  string[] memory */\n      0x60\n        /* \"Documents/GitHub/Store-system-with-feedback/main.sol\":1376:1384  shopList */\n      0x02\n        /* \"Documents/GitHub/Store-system-with-feedback/main.sol\":1369:1384  return shopList */\n      dup1\n      sload\n      dup1\n      0x20\n      mul\n      0x20\n      add\n      mload(0x40)\n      swap1\n      dup2\n      add\n      0x40\n      mstore\n      dup1\n      swap3\n      swap2\n      swap1\n      dup2\n      dup2\n      mstore\n      0x20\n      add\n      0x00\n      swap1\n    tag_208:\n      dup3\n      dup3\n      lt\n      iszero\n      tag_209\n      jumpi\n      dup4\n      dup3\n      swap1\n      0x00\n      mstore\n      keccak256(0x00, 0x20)\n      add\n      dup1\n      sload\n      tag_211\n      swap1\n      tag_212\n      jump\t// in\n    tag_211:\n      dup1\n      0x1f\n      add\n      0x20\n      dup1\n      swap2\n      div\n      mul\n      0x20\n      add\n      mload(0x40)\n      swap1\n      dup2\n      add\n      0x40\n      mstore\n      dup1\n      swap3\n      swap2\n      swap1\n      dup2\n      dup2\n      mstore\n      0x20\n      add\n      dup3\n      dup1\n      sload\n      tag_213\n      swap1\n      tag_212\n      jump\t// in\n    tag_213:\n      dup1\n      iszero\n      tag_214\n      jumpi\n      dup1\n      0x1f\n      lt\n      tag_215\n      jumpi\n      0x0100\n      dup1\n      dup4\n      sload\n      div\n      mul\n      dup4\n      mstore\n      swap2\n      0x20\n      add\n      swap2\n      jump(tag_214)\n    tag_215:\n      dup3\n      add\n      swap2\n      swap1\n      0x00\n      mstore\n      keccak256(0x00, 0x20)\n      swap1\n    tag_216:\n      dup2\n      sload\n      dup2\n      mstore\n      swap1\n      0x01\n      add\n      swap1\n      0x20\n      add\n      dup1\n      dup4\n      gt\n      tag_216\n      jumpi\n      dup3\n      swap1\n      sub\n      0x1f\n      and\n      dup3\n      add\n      swap2\n    tag_214:\n      pop\n      pop\n      pop\n      pop\n      pop\n      dup2\n      mstore\n      0x20\n      add\n      swap1\n      0x01\n      add\n      swap1\n      jump(tag_208)\n    tag_209:\n      pop\n      pop\n      pop\n      pop\n      swap1\n      pop\n        /* \"Documents/GitHub/Store-system-with-feedback/main.sol\":1292:1396  function get_shop_list() public view returns(string[] memory) {\r... */\n      swap1\n      jump\t// out\n        /* \"Documents/GitHub/Store-system-with-feedback/main.sol\":10282:10701  function leaveComment (string memory userName, string[] memory comment) public {\r... */\n    tag_65:\n        /* \"Documents/GitHub/Store-system-with-feedback/main.sol\":10376:10382  uint i */\n      0x00\n        /* \"Documents/GitHub/Store-system-with-feedback/main.sol\":10372:10694  for(uint i = 0; i < complaintBooks.length; i++) {\r... */\n    tag_218:\n        /* \"Documents/GitHub/Store-system-with-feedback/main.sol\":10392:10406  complaintBooks */\n      0x03\n        /* \"Documents/GitHub/Store-system-with-feedback/main.sol\":10392:10413  complaintBooks.length */\n      sload\n        /* \"Documents/GitHub/Store-system-with-feedback/main.sol\":10388:10413  i < complaintBooks.length */\n      dup2\n      lt\n        /* \"Documents/GitHub/Store-system-with-feedback/main.sol\":10372:10694  for(uint i = 0; i < complaintBooks.length; i++) {\r... */\n      iszero\n      tag_219\n      jumpi\n        /* \"Documents/GitHub/Store-system-with-feedback/main.sol\":10435:10461  string memory tempUserName */\n      0x00\n        /* \"Documents/GitHub/Store-system-with-feedback/main.sol\":10464:10478  complaintBooks */\n      0x03\n        /* \"Documents/GitHub/Store-system-with-feedback/main.sol\":10479:10480  i */\n      dup3\n        /* \"Documents/GitHub/Store-system-with-feedback/main.sol\":10464:10481  complaintBooks[i] */\n      dup2\n      sload\n      dup2\n      lt\n      tag_222\n      jumpi\n      tag_222\n      tag_223\n      jump\t// in\n    tag_222:\n      swap1\n      0x00\n      mstore\n      keccak256(0x00, 0x20)\n      swap1\n      0x05\n      mul\n      add\n        /* \"Documents/GitHub/Store-system-with-feedback/main.sol\":10464:10490  complaintBooks[i].userName */\n      0x01\n      add\n        /* \"Documents/GitHub/Store-system-with-feedback/main.sol\":10435:10490  string memory tempUserName = complaintBooks[i].userName */\n      dup1\n      sload\n      tag_225\n      swap1\n      tag_212\n      jump\t// in\n    tag_225:\n      dup1\n      0x1f\n      add\n      0x20\n      dup1\n      swap2\n      div\n      mul\n      0x20\n      add\n      mload(0x40)\n      swap1\n      dup2\n      add\n      0x40\n      mstore\n      dup1\n      swap3\n      swap2\n      swap1\n      dup2\n      dup2\n      mstore\n      0x20\n      add\n      dup3\n      dup1\n      sload\n      tag_226\n      swap1\n      tag_212\n      jump\t// in\n    tag_226:\n      dup1\n      iszero\n      tag_227\n      jumpi\n      dup1\n      0x1f\n      lt\n      tag_228\n      jumpi\n      0x0100\n      dup1\n      dup4\n      sload\n      div\n      mul\n      dup4\n      mstore\n      swap2\n      0x20\n      add\n      swap2\n      jump(tag_227)\n    tag_228:\n      dup3\n      add\n      swap2\n      swap1\n      0x00\n      mstore\n      keccak256(0x00, 0x20)\n      swap1\n    tag_229:\n      dup2\n      sload\n      dup2\n      mstore\n      swap1\n      0x01\n      add\n      swap1\n      0x20\n      add\n      dup1\n      dup4\n      gt\n      tag_229\n      jumpi\n      dup3\n      swap1\n      sub\n      0x1f\n      and\n      dup3\n      add\n      swap2\n    tag_227:\n      pop\n      pop\n      pop\n      pop\n      pop\n      swap1\n      pop\n        /* \"Documents/GitHub/Store-system-with-feedback/main.sol\":10580:10588  userName */\n      dup4\n        /* \"Documents/GitHub/Store-system-with-feedback/main.sol\":10563:10589  abi.encodePacked(userName) */\n      add(0x20, mload(0x40))\n      tag_230\n      swap2\n      swap1\n      tag_185\n      jump\t// in\n    tag_230:\n      mload(0x40)\n      0x20\n      dup2\n      dup4\n      sub\n      sub\n      dup2\n      mstore\n      swap1\n      0x40\n      mstore\n        /* \"Documents/GitHub/Store-system-with-feedback/main.sol\":10553:10590  keccak256(abi.encodePacked(userName)) */\n      dup1\n      mload\n      swap1\n      0x20\n      add\n      keccak256\n        /* \"Documents/GitHub/Store-system-with-feedback/main.sol\":10535:10547  tempUserName */\n      dup2\n        /* \"Documents/GitHub/Store-system-with-feedback/main.sol\":10518:10548  abi.encodePacked(tempUserName) */\n      add(0x20, mload(0x40))\n      tag_231\n      swap2\n      swap1\n      tag_185\n      jump\t// in\n    tag_231:\n      mload(0x40)\n      0x20\n      dup2\n      dup4\n      sub\n      sub\n      dup2\n      mstore\n      swap1\n      0x40\n      mstore\n        /* \"Documents/GitHub/Store-system-with-feedback/main.sol\":10508:10549  keccak256(abi.encodePacked(tempUserName)) */\n      dup1\n      mload\n      swap1\n      0x20\n      add\n      keccak256\n        /* \"Documents/GitHub/Store-system-with-feedback/main.sol\":10508:10590  keccak256(abi.encodePacked(tempUserName)) == keccak256(abi.encodePacked(userName)) */\n      eq\n        /* \"Documents/GitHub/Store-system-with-feedback/main.sol\":10505:10683  if(keccak256(abi.encodePacked(tempUserName)) == keccak256(abi.encodePacked(userName))) {                    \r... */\n      iszero\n      tag_232\n      jumpi\n        /* \"Documents/GitHub/Store-system-with-feedback/main.sol\":10660:10667  comment */\n      dup3\n        /* \"Documents/GitHub/Store-system-with-feedback/main.sol\":10631:10645  complaintBooks */\n      0x03\n        /* \"Documents/GitHub/Store-system-with-feedback/main.sol\":10646:10647  i */\n      dup4\n        /* \"Documents/GitHub/Store-system-with-feedback/main.sol\":10631:10648  complaintBooks[i] */\n      dup2\n      sload\n      dup2\n      lt\n      tag_234\n      jumpi\n      tag_234\n      tag_223\n      jump\t// in\n    tag_234:\n      swap1\n      0x00\n      mstore\n      keccak256(0x00, 0x20)\n      swap1\n      0x05\n      mul\n      add\n        /* \"Documents/GitHub/Store-system-with-feedback/main.sol\":10631:10657  complaintBooks[i].comments */\n      0x04\n      add\n        /* \"Documents/GitHub/Store-system-with-feedback/main.sol\":10631:10667  complaintBooks[i].comments = comment */\n      swap1\n      dup1\n      mload\n      swap1\n      0x20\n      add\n      swap1\n      tag_236\n      swap3\n      swap2\n      swap1\n      tag_237\n      jump\t// in\n    tag_236:\n      pop\n        /* \"Documents/GitHub/Store-system-with-feedback/main.sol\":10505:10683  if(keccak256(abi.encodePacked(tempUserName)) == keccak256(abi.encodePacked(userName))) {                    \r... */\n    tag_232:\n      pop\n        /* \"Documents/GitHub/Store-system-with-feedback/main.sol\":10415:10418  i++ */\n      dup1\n      tag_238\n      dup2\n      tag_239\n      jump\t// in\n    tag_238:\n      swap2\n      pop\n      pop\n        /* \"Documents/GitHub/Store-system-with-feedback/main.sol\":10372:10694  for(uint i = 0; i < complaintBooks.length; i++) {\r... */\n      jump(tag_218)\n    tag_219:\n      pop\n        /* \"Documents/GitHub/Store-system-with-feedback/main.sol\":10282:10701  function leaveComment (string memory userName, string[] memory comment) public {\r... */\n      pop\n      pop\n      jump\t// out\n        /* \"Documents/GitHub/Store-system-with-feedback/main.sol\":1691:1836  function check_logged_shop(string memory login) public view returns(bool) {\r... */\n    tag_69:\n        /* \"Documents/GitHub/Store-system-with-feedback/main.sol\":1759:1763  bool */\n      0x00\n        /* \"Documents/GitHub/Store-system-with-feedback/main.sol\":1787:1798  structShops */\n      dup1\n        /* \"Documents/GitHub/Store-system-with-feedback/main.sol\":1787:1816  structShops[shopLists[login]] */\n      0x00\n        /* \"Documents/GitHub/Store-system-with-feedback/main.sol\":1799:1808  shopLists */\n      0x01\n        /* \"Documents/GitHub/Store-system-with-feedback/main.sol\":1809:1814  login */\n      dup5\n        /* \"Documents/GitHub/Store-system-with-feedback/main.sol\":1799:1815  shopLists[login] */\n      mload(0x40)\n      tag_241\n      swap2\n      swap1\n      tag_185\n      jump\t// in\n    tag_241:\n      swap1\n      dup2\n      mstore\n      0x40\n      dup1\n      mload\n      0x20\n      swap3\n      dup2\n      swap1\n      sub\n      dup4\n      add\n      swap1\n      keccak256\n      sload\n      sub(shl(0xa0, 0x01), 0x01)\n      and\n        /* \"Documents/GitHub/Store-system-with-feedback/main.sol\":1787:1816  structShops[shopLists[login]] */\n      dup4\n      mstore\n      swap1\n      dup3\n      add\n      swap3\n      swap1\n      swap3\n      mstore\n      add\n      0x00\n      keccak256\n        /* \"Documents/GitHub/Store-system-with-feedback/main.sol\":1787:1823  structShops[shopLists[login]].logged */\n      0x04\n      add\n      sload\n      0xff\n      and\n      swap3\n      swap2\n      pop\n      pop\n        /* \"Documents/GitHub/Store-system-with-feedback/main.sol\":1691:1836  function check_logged_shop(string memory login) public view returns(bool) {\r... */\n      jump\t// out\n        /* \"Documents/GitHub/Store-system-with-feedback/main.sol\":13368:13490  function login_out_user(string memory login) public {\r... */\n    tag_75:\n        /* \"Documents/GitHub/Store-system-with-feedback/main.sol\":13477:13482  false */\n      0x00\n        /* \"Documents/GitHub/Store-system-with-feedback/main.sol\":13431:13442  structUsers */\n      0x04\n        /* \"Documents/GitHub/Store-system-with-feedback/main.sol\":13431:13467  structUsers[structUserLogins[login]] */\n      0x00\n        /* \"Documents/GitHub/Store-system-with-feedback/main.sol\":13443:13459  structUserLogins */\n      0x05\n        /* \"Documents/GitHub/Store-system-with-feedback/main.sol\":13460:13465  login */\n      dup5\n        /* \"Documents/GitHub/Store-system-with-feedback/main.sol\":13443:13466  structUserLogins[login] */\n      mload(0x40)\n      tag_187\n      swap2\n      swap1\n      tag_185\n      jump\t// in\n        /* \"Documents/GitHub/Store-system-with-feedback/main.sol\":2155:2294  function get_city(string memory login) public view returns(string memory) {\r... */\n    tag_79:\n        /* \"Documents/GitHub/Store-system-with-feedback/main.sol\":2214:2227  string memory */\n      0x60\n        /* \"Documents/GitHub/Store-system-with-feedback/main.sol\":2247:2258  structShops */\n      0x00\n        /* \"Documents/GitHub/Store-system-with-feedback/main.sol\":2247:2276  structShops[shopLists[login]] */\n      dup1\n        /* \"Documents/GitHub/Store-system-with-feedback/main.sol\":2259:2268  shopLists */\n      0x01\n        /* \"Documents/GitHub/Store-system-with-feedback/main.sol\":2269:2274  login */\n      dup5\n        /* \"Documents/GitHub/Store-system-with-feedback/main.sol\":2259:2275  shopLists[login] */\n      mload(0x40)\n      tag_245\n      swap2\n      swap1\n      tag_185\n      jump\t// in\n    tag_245:\n      swap1\n      dup2\n      mstore\n      0x40\n      dup1\n      mload\n      0x20\n      swap3\n      dup2\n      swap1\n      sub\n      dup4\n      add\n      swap1\n      keccak256\n      sload\n      sub(shl(0xa0, 0x01), 0x01)\n      and\n        /* \"Documents/GitHub/Store-system-with-feedback/main.sol\":2247:2276  structShops[shopLists[login]] */\n      dup4\n      mstore\n      swap1\n      dup3\n      add\n      swap3\n      swap1\n      swap3\n      mstore\n      add\n      0x00\n      keccak256\n        /* \"Documents/GitHub/Store-system-with-feedback/main.sol\":2247:2281  structShops[shopLists[login]].city */\n      0x06\n      add\n        /* \"Documents/GitHub/Store-system-with-feedback/main.sol\":2240:2282  return(structShops[shopLists[login]].city) */\n      dup1\n      sload\n      tag_246\n      swap1\n      tag_212\n      jump\t// in\n    tag_246:\n      dup1\n      0x1f\n      add\n      0x20\n      dup1\n      swap2\n      div\n      mul\n      0x20\n      add\n      mload(0x40)\n      swap1\n      dup2\n      add\n      0x40\n      mstore\n      dup1\n      swap3\n      swap2\n      swap1\n      dup2\n      dup2\n      mstore\n      0x20\n      add\n      dup3\n      dup1\n      sload\n      tag_247\n      swap1\n      tag_212\n      jump\t// in\n    tag_247:\n      dup1\n      iszero\n      tag_248\n      jumpi\n      dup1\n      0x1f\n      lt\n      tag_249\n      jumpi\n      0x0100\n      dup1\n      dup4\n      sload\n      div\n      mul\n      dup4\n      mstore\n      swap2\n      0x20\n      add\n      swap2\n      jump(tag_248)\n    tag_249:\n      dup3\n      add\n      swap2\n      swap1\n      0x00\n      mstore\n      keccak256(0x00, 0x20)\n      swap1\n    tag_250:\n      dup2\n      sload\n      dup2\n      mstore\n      swap1\n      0x01\n      add\n      swap1\n      0x20\n      add\n      dup1\n      dup4\n      gt\n      tag_250\n      jumpi\n      dup3\n      swap1\n      sub\n      0x1f\n      and\n      dup3\n      add\n      swap2\n    tag_248:\n      pop\n      pop\n      pop\n      pop\n      pop\n      swap1\n      pop\n        /* \"Documents/GitHub/Store-system-with-feedback/main.sol\":2155:2294  function get_city(string memory login) public view returns(string memory) {\r... */\n      swap2\n      swap1\n      pop\n      jump\t// out\n        /* \"Documents/GitHub/Store-system-with-feedback/main.sol\":2677:2829  function check_logged_user(string memory login) public view returns(bool) {\r... */\n    tag_85:\n        /* \"Documents/GitHub/Store-system-with-feedback/main.sol\":2745:2749  bool */\n      0x00\n        /* \"Documents/GitHub/Store-system-with-feedback/main.sol\":2773:2784  structUsers */\n      0x04\n        /* \"Documents/GitHub/Store-system-with-feedback/main.sol\":2773:2809  structUsers[structUserLogins[login]] */\n      0x00\n        /* \"Documents/GitHub/Store-system-with-feedback/main.sol\":2785:2801  structUserLogins */\n      0x05\n        /* \"Documents/GitHub/Store-system-with-feedback/main.sol\":2802:2807  login */\n      dup5\n        /* \"Documents/GitHub/Store-system-with-feedback/main.sol\":2785:2808  structUserLogins[login] */\n      mload(0x40)\n      tag_241\n      swap2\n      swap1\n      tag_185\n      jump\t// in\n        /* \"Documents/GitHub/Store-system-with-feedback/main.sol\":1483:1593  function get_product_list() public view returns(string[] memory) {\r... */\n    tag_89:\n        /* \"Documents/GitHub/Store-system-with-feedback/main.sol\":1531:1546  string[] memory */\n      0x60\n        /* \"Documents/GitHub/Store-system-with-feedback/main.sol\":1570:1581  productList */\n      0x09\n        /* \"Documents/GitHub/Store-system-with-feedback/main.sol\":1563:1581  return productList */\n      dup1\n      sload\n      dup1\n      0x20\n      mul\n      0x20\n      add\n      mload(0x40)\n      swap1\n      dup2\n      add\n      0x40\n      mstore\n      dup1\n      swap3\n      swap2\n      swap1\n      dup2\n      dup2\n      mstore\n      0x20\n      add\n      0x00\n      swap1\n    tag_254:\n      dup3\n      dup3\n      lt\n      iszero\n      tag_209\n      jumpi\n      dup4\n      dup3\n      swap1\n      0x00\n      mstore\n      keccak256(0x00, 0x20)\n      add\n      dup1\n      sload\n      tag_257\n      swap1\n      tag_212\n      jump\t// in\n    tag_257:\n      dup1\n      0x1f\n      add\n      0x20\n      dup1\n      swap2\n      div\n      mul\n      0x20\n      add\n      mload(0x40)\n      swap1\n      dup2\n      add\n      0x40\n      mstore\n      dup1\n      swap3\n      swap2\n      swap1\n      dup2\n      dup2\n      mstore\n      0x20\n      add\n      dup3\n      dup1\n      sload\n      tag_258\n      swap1\n      tag_212\n      jump\t// in\n    tag_258:\n      dup1\n      iszero\n      tag_259\n      jumpi\n      dup1\n      0x1f\n      lt\n      tag_260\n      jumpi\n      0x0100\n      dup1\n      dup4\n      sload\n      div\n      mul\n      dup4\n      mstore\n      swap2\n      0x20\n      add\n      swap2\n      jump(tag_259)\n    tag_260:\n      dup3\n      add\n      swap2\n      swap1\n      0x00\n      mstore\n      keccak256(0x00, 0x20)\n      swap1\n    tag_261:\n      dup2\n      sload\n      dup2\n      mstore\n      swap1\n      0x01\n      add\n      swap1\n      0x20\n      add\n      dup1\n      dup4\n      gt\n      tag_261\n      jumpi\n      dup3\n      swap1\n      sub\n      0x1f\n      and\n      dup3\n      add\n      swap2\n    tag_259:\n      pop\n      pop\n      pop\n      pop\n      pop\n      dup2\n      mstore\n      0x20\n      add\n      swap1\n      0x01\n      add\n      swap1\n      jump(tag_254)\n        /* \"Documents/GitHub/Store-system-with-feedback/main.sol\":2925:3071  function get_role_user(string memory login) public view returns(uint) {\r... */\n    tag_94:\n        /* \"Documents/GitHub/Store-system-with-feedback/main.sol\":2989:2993  uint */\n      0x00\n        /* \"Documents/GitHub/Store-system-with-feedback/main.sol\":3017:3028  structUsers */\n      0x04\n        /* \"Documents/GitHub/Store-system-with-feedback/main.sol\":3017:3053  structUsers[structUserLogins[login]] */\n      0x00\n        /* \"Documents/GitHub/Store-system-with-feedback/main.sol\":3029:3045  structUserLogins */\n      0x05\n        /* \"Documents/GitHub/Store-system-with-feedback/main.sol\":3046:3051  login */\n      dup5\n        /* \"Documents/GitHub/Store-system-with-feedback/main.sol\":3029:3052  structUserLogins[login] */\n      mload(0x40)\n      tag_184\n      swap2\n      swap1\n      tag_185\n      jump\t// in\n        /* \"Documents/GitHub/Store-system-with-feedback/main.sol\":3606:3893  function get_address(string memory login) public view returns(address) {\r... */\n    tag_99:\n        /* \"Documents/GitHub/Store-system-with-feedback/main.sol\":3668:3675  address */\n      0x00\n        /* \"Documents/GitHub/Store-system-with-feedback/main.sol\":3688:3699  address adr */\n      dup1\n        /* \"Documents/GitHub/Store-system-with-feedback/main.sol\":3749:3750  0 */\n      0x00\n      sub(shl(0xa0, 0x01), 0x01)\n        /* \"Documents/GitHub/Store-system-with-feedback/main.sol\":3714:3751  structUserLogins[login] != address(0) */\n      and\n        /* \"Documents/GitHub/Store-system-with-feedback/main.sol\":3714:3730  structUserLogins */\n      0x05\n        /* \"Documents/GitHub/Store-system-with-feedback/main.sol\":3731:3736  login */\n      dup5\n        /* \"Documents/GitHub/Store-system-with-feedback/main.sol\":3714:3737  structUserLogins[login] */\n      mload(0x40)\n      tag_265\n      swap2\n      swap1\n      tag_185\n      jump\t// in\n    tag_265:\n      swap1\n      dup2\n      mstore\n      mload(0x40)\n      swap1\n      dup2\n      swap1\n      sub\n      0x20\n      add\n      swap1\n      keccak256\n      sload\n      sub(shl(0xa0, 0x01), 0x01)\n      and\n        /* \"Documents/GitHub/Store-system-with-feedback/main.sol\":3714:3751  structUserLogins[login] != address(0) */\n      eq\n        /* \"Documents/GitHub/Store-system-with-feedback/main.sol\":3710:3864  if (structUserLogins[login] != address(0)) {\r... */\n      tag_266\n      jumpi\n        /* \"Documents/GitHub/Store-system-with-feedback/main.sol\":3774:3790  structUserLogins */\n      0x05\n        /* \"Documents/GitHub/Store-system-with-feedback/main.sol\":3791:3796  login */\n      dup4\n        /* \"Documents/GitHub/Store-system-with-feedback/main.sol\":3774:3797  structUserLogins[login] */\n      mload(0x40)\n      tag_267\n      swap2\n      swap1\n      tag_185\n      jump\t// in\n    tag_267:\n      swap1\n      dup2\n      mstore\n      mload(0x40)\n      swap1\n      dup2\n      swap1\n      sub\n      0x20\n      add\n      swap1\n      keccak256\n      sload\n      sub(shl(0xa0, 0x01), 0x01)\n      and\n      swap1\n      pop\n        /* \"Documents/GitHub/Store-system-with-feedback/main.sol\":3710:3864  if (structUserLogins[login] != address(0)) {\r... */\n      jump(tag_268)\n    tag_266:\n        /* \"Documents/GitHub/Store-system-with-feedback/main.sol\":3836:3845  shopLists */\n      0x01\n        /* \"Documents/GitHub/Store-system-with-feedback/main.sol\":3846:3851  login */\n      dup4\n        /* \"Documents/GitHub/Store-system-with-feedback/main.sol\":3836:3852  shopLists[login] */\n      mload(0x40)\n      tag_269\n      swap2\n      swap1\n      tag_185\n      jump\t// in\n    tag_269:\n      swap1\n      dup2\n      mstore\n      mload(0x40)\n      swap1\n      dup2\n      swap1\n      sub\n      0x20\n      add\n      swap1\n      keccak256\n      sload\n      sub(shl(0xa0, 0x01), 0x01)\n      and\n      swap1\n      pop\n        /* \"Documents/GitHub/Store-system-with-feedback/main.sol\":3710:3864  if (structUserLogins[login] != address(0)) {\r... */\n    tag_268:\n        /* \"Documents/GitHub/Store-system-with-feedback/main.sol\":3881:3884  adr */\n      swap3\n        /* \"Documents/GitHub/Store-system-with-feedback/main.sol\":3606:3893  function get_address(string memory login) public view returns(address) {\r... */\n      swap2\n      pop\n      pop\n      jump\t// out\n        /* \"Documents/GitHub/Store-system-with-feedback/main.sol\":6334:6615  function addProductShop (string memory title, uint256 price, string memory description) public {\r... */\n    tag_105:\n        /* \"Documents/GitHub/Store-system-with-feedback/main.sol\":6464:6536  structProduct(msg.sender, description , price, addProductShop_idProduct) */\n      mload(0x40)\n      dup1\n      0x80\n      add\n      0x40\n      mstore\n      dup1\n        /* \"Documents/GitHub/Store-system-with-feedback/main.sol\":6478:6488  msg.sender */\n      caller\n      sub(shl(0xa0, 0x01), 0x01)\n        /* \"Documents/GitHub/Store-system-with-feedback/main.sol\":6464:6536  structProduct(msg.sender, description , price, addProductShop_idProduct) */\n      and\n      dup2\n      mstore\n      0x20\n      add\n        /* \"Documents/GitHub/Store-system-with-feedback/main.sol\":6490:6501  description */\n      dup3\n        /* \"Documents/GitHub/Store-system-with-feedback/main.sol\":6464:6536  structProduct(msg.sender, description , price, addProductShop_idProduct) */\n      dup2\n      mstore\n      0x20\n      add\n        /* \"Documents/GitHub/Store-system-with-feedback/main.sol\":6504:6509  price */\n      dup4\n        /* \"Documents/GitHub/Store-system-with-feedback/main.sol\":6464:6536  structProduct(msg.sender, description , price, addProductShop_idProduct) */\n      dup2\n      mstore\n      0x20\n      add\n        /* \"Documents/GitHub/Store-system-with-feedback/main.sol\":6511:6535  addProductShop_idProduct */\n      sload(0x0d)\n        /* \"Documents/GitHub/Store-system-with-feedback/main.sol\":6464:6536  structProduct(msg.sender, description , price, addProductShop_idProduct) */\n      dup2\n      mstore\n      pop\n        /* \"Documents/GitHub/Store-system-with-feedback/main.sol\":6440:6454  structProducts */\n      0x08\n        /* \"Documents/GitHub/Store-system-with-feedback/main.sol\":6455:6460  title */\n      dup5\n        /* \"Documents/GitHub/Store-system-with-feedback/main.sol\":6440:6461  structProducts[title] */\n      mload(0x40)\n      tag_271\n      swap2\n      swap1\n      tag_185\n      jump\t// in\n    tag_271:\n      swap1\n      dup2\n      mstore\n      mload(0x40)\n      0x20\n      swap2\n      dup2\n      swap1\n      sub\n      dup3\n      add\n      swap1\n      keccak256\n        /* \"Documents/GitHub/Store-system-with-feedback/main.sol\":6440:6536  structProducts[title] = structProduct(msg.sender, description , price, addProductShop_idProduct) */\n      dup3\n      mload\n      dup2\n      sload\n      not(sub(shl(0xa0, 0x01), 0x01))\n      and\n      sub(shl(0xa0, 0x01), 0x01)\n      swap1\n      swap2\n      and\n      or\n      dup2\n      sstore\n      dup3\n      dup3\n      add\n      mload\n      dup1\n      mload\n        /* \"Documents/GitHub/Store-system-with-feedback/main.sol\":6440:6461  structProducts[title] */\n      swap2\n      swap3\n        /* \"Documents/GitHub/Store-system-with-feedback/main.sol\":6440:6536  structProducts[title] = structProduct(msg.sender, description , price, addProductShop_idProduct) */\n      tag_272\n      swap3\n      0x01\n      dup6\n      add\n      swap3\n      swap1\n      swap2\n      add\n      swap1\n      tag_194\n      jump\t// in\n    tag_272:\n      pop\n      0x40\n      dup3\n      add\n      mload\n      0x02\n      dup3\n      add\n      sstore\n      0x60\n      swap1\n      swap2\n      add\n      mload\n      0x03\n      swap1\n      swap2\n      add\n      sstore\n        /* \"Documents/GitHub/Store-system-with-feedback/main.sol\":6547:6558  productList */\n      0x09\n        /* \"Documents/GitHub/Store-system-with-feedback/main.sol\":6547:6570  productList.push(title) */\n      dup1\n      sload\n      0x01\n      dup2\n      add\n      dup3\n      sstore\n      0x00\n      swap2\n      swap1\n      swap2\n      mstore\n      dup4\n      mload\n      tag_274\n      swap2\n      0x6e1540171b6c0c960b71a7020d9f60077f6af931a8bbf590da0223dacf75c7af\n      add\n      swap1\n      0x20\n      dup7\n      add\n      swap1\n      tag_194\n      jump\t// in\n    tag_274:\n      pop\n        /* \"Documents/GitHub/Store-system-with-feedback/main.sol\":6581:6605  addProductShop_idProduct */\n      0x0d\n        /* \"Documents/GitHub/Store-system-with-feedback/main.sol\":6581:6607  addProductShop_idProduct++ */\n      dup1\n      sload\n      swap1\n        /* \"Documents/GitHub/Store-system-with-feedback/main.sol\":6581:6605  addProductShop_idProduct */\n      0x00\n        /* \"Documents/GitHub/Store-system-with-feedback/main.sol\":6581:6607  addProductShop_idProduct++ */\n      tag_275\n      dup4\n      tag_239\n      jump\t// in\n    tag_275:\n      swap2\n      swap1\n      pop\n      sstore\n      pop\n        /* \"Documents/GitHub/Store-system-with-feedback/main.sol\":6334:6615  function addProductShop (string memory title, uint256 price, string memory description) public {\r... */\n      pop\n      pop\n      pop\n      jump\t// out\n        /* \"Documents/GitHub/Store-system-with-feedback/main.sol\":10781:11183  function login_shop(string memory login, bytes32 password) public {\r... */\n    tag_110:\n        /* \"Documents/GitHub/Store-system-with-feedback/main.sol\":10866:10877  structShops */\n      0x00\n        /* \"Documents/GitHub/Store-system-with-feedback/main.sol\":10866:10895  structShops[shopLists[login]] */\n      dup1\n        /* \"Documents/GitHub/Store-system-with-feedback/main.sol\":10878:10887  shopLists */\n      0x01\n        /* \"Documents/GitHub/Store-system-with-feedback/main.sol\":10888:10893  login */\n      dup5\n        /* \"Documents/GitHub/Store-system-with-feedback/main.sol\":10878:10894  shopLists[login] */\n      mload(0x40)\n      tag_277\n      swap2\n      swap1\n      tag_185\n      jump\t// in\n    tag_277:\n      swap1\n      dup2\n      mstore\n      0x40\n      dup1\n      mload\n      0x20\n      swap3\n      dup2\n      swap1\n      sub\n      dup4\n      add\n      swap1\n      keccak256\n      sload\n      sub(shl(0xa0, 0x01), 0x01)\n      and\n        /* \"Documents/GitHub/Store-system-with-feedback/main.sol\":10866:10895  structShops[shopLists[login]] */\n      dup4\n      mstore\n      swap1\n      dup3\n      add\n      swap3\n      swap1\n      swap3\n      mstore\n      add\n      0x00\n      keccak256\n        /* \"Documents/GitHub/Store-system-with-feedback/main.sol\":10866:10902  structShops[shopLists[login]].logged */\n      0x04\n      add\n      sload\n      0xff\n      and\n        /* \"Documents/GitHub/Store-system-with-feedback/main.sol\":10866:10911  structShops[shopLists[login]].logged == false */\n      iszero\n        /* \"Documents/GitHub/Store-system-with-feedback/main.sol\":10858:10945  require(structShops[shopLists[login]].logged == false, \"Error: You are already logged\") */\n      tag_278\n      jumpi\n      mload(0x40)\n      shl(0xe5, 0x461bcd)\n      dup2\n      mstore\n      0x04\n      add\n      tag_191\n      swap1\n      tag_280\n      jump\t// in\n    tag_278:\n        /* \"Documents/GitHub/Store-system-with-feedback/main.sol\":10992:10993  0 */\n      0x00\n      sub(shl(0xa0, 0x01), 0x01)\n        /* \"Documents/GitHub/Store-system-with-feedback/main.sol\":10964:10994  shopLists[login] != address(0) */\n      and\n        /* \"Documents/GitHub/Store-system-with-feedback/main.sol\":10964:10973  shopLists */\n      0x01\n        /* \"Documents/GitHub/Store-system-with-feedback/main.sol\":10974:10979  login */\n      dup4\n        /* \"Documents/GitHub/Store-system-with-feedback/main.sol\":10964:10980  shopLists[login] */\n      mload(0x40)\n      tag_281\n      swap2\n      swap1\n      tag_185\n      jump\t// in\n    tag_281:\n      swap1\n      dup2\n      mstore\n      mload(0x40)\n      swap1\n      dup2\n      swap1\n      sub\n      0x20\n      add\n      swap1\n      keccak256\n      sload\n      sub(shl(0xa0, 0x01), 0x01)\n      and\n        /* \"Documents/GitHub/Store-system-with-feedback/main.sol\":10964:10994  shopLists[login] != address(0) */\n      eq\n      iszero\n        /* \"Documents/GitHub/Store-system-with-feedback/main.sol\":10956:11024  require(shopLists[login] != address(0), \"Error: User doesn't exist\") */\n      tag_282\n      jumpi\n      mload(0x40)\n      shl(0xe5, 0x461bcd)\n      dup2\n      mstore\n      0x04\n      add\n      tag_191\n      swap1\n      tag_284\n      jump\t// in\n    tag_282:\n        /* \"Documents/GitHub/Store-system-with-feedback/main.sol\":11085:11093  password */\n      dup1\n        /* \"Documents/GitHub/Store-system-with-feedback/main.sol\":11043:11054  structShops */\n      0x00\n        /* \"Documents/GitHub/Store-system-with-feedback/main.sol\":11043:11072  structShops[shopLists[login]] */\n      dup1\n        /* \"Documents/GitHub/Store-system-with-feedback/main.sol\":11055:11064  shopLists */\n      0x01\n        /* \"Documents/GitHub/Store-system-with-feedback/main.sol\":11065:11070  login */\n      dup6\n        /* \"Documents/GitHub/Store-system-with-feedback/main.sol\":11055:11071  shopLists[login] */\n      mload(0x40)\n      tag_285\n      swap2\n      swap1\n      tag_185\n      jump\t// in\n    tag_285:\n      swap1\n      dup2\n      mstore\n      0x40\n      dup1\n      mload\n      0x20\n      swap3\n      dup2\n      swap1\n      sub\n      dup4\n      add\n      swap1\n      keccak256\n      sload\n      sub(shl(0xa0, 0x01), 0x01)\n      and\n        /* \"Documents/GitHub/Store-system-with-feedback/main.sol\":11043:11072  structShops[shopLists[login]] */\n      dup4\n      mstore\n      swap1\n      dup3\n      add\n      swap3\n      swap1\n      swap3\n      mstore\n      add\n      0x00\n      keccak256\n        /* \"Documents/GitHub/Store-system-with-feedback/main.sol\":11055:11071  shopLists[login] */\n      0x01\n        /* \"Documents/GitHub/Store-system-with-feedback/main.sol\":11043:11081  structShops[shopLists[login]].password */\n      add\n      sload\n        /* \"Documents/GitHub/Store-system-with-feedback/main.sol\":11043:11093  structShops[shopLists[login]].password == password */\n      eq\n        /* \"Documents/GitHub/Store-system-with-feedback/main.sol\":11035:11121  require(structShops[shopLists[login]].password == password, \"Error: Invalid password\") */\n      tag_286\n      jumpi\n      mload(0x40)\n      shl(0xe5, 0x461bcd)\n      dup2\n      mstore\n      0x04\n      add\n      tag_191\n      swap1\n      tag_288\n      jump\t// in\n    tag_286:\n        /* \"Documents/GitHub/Store-system-with-feedback/main.sol\":11171:11175  true */\n      0x01\n        /* \"Documents/GitHub/Store-system-with-feedback/main.sol\":11132:11143  structShops */\n      0x00\n        /* \"Documents/GitHub/Store-system-with-feedback/main.sol\":11132:11161  structShops[shopLists[login]] */\n      dup1\n        /* \"Documents/GitHub/Store-system-with-feedback/main.sol\":11144:11153  shopLists */\n      0x01\n        /* \"Documents/GitHub/Store-system-with-feedback/main.sol\":11154:11159  login */\n      dup6\n        /* \"Documents/GitHub/Store-system-with-feedback/main.sol\":11144:11160  shopLists[login] */\n      mload(0x40)\n      tag_289\n      swap2\n      swap1\n      tag_185\n      jump\t// in\n    tag_289:\n      swap1\n      dup2\n      mstore\n      0x40\n      dup1\n      mload\n      0x20\n      swap3\n      dup2\n      swap1\n      sub\n      dup4\n      add\n      swap1\n      keccak256\n      sload\n      sub(shl(0xa0, 0x01), 0x01)\n      and\n        /* \"Documents/GitHub/Store-system-with-feedback/main.sol\":11132:11161  structShops[shopLists[login]] */\n      dup4\n      mstore\n      swap1\n      dup3\n      add\n      swap3\n      swap1\n      swap3\n      mstore\n      add\n      0x00\n      keccak256\n        /* \"Documents/GitHub/Store-system-with-feedback/main.sol\":11132:11168  structShops[shopLists[login]].logged */\n      0x04\n      add\n        /* \"Documents/GitHub/Store-system-with-feedback/main.sol\":11132:11175  structShops[shopLists[login]].logged = true */\n      dup1\n      sload\n      not(0xff)\n      and\n      swap2\n      iszero\n      iszero\n      swap2\n      swap1\n      swap2\n      or\n      swap1\n      sstore\n      pop\n      pop\n        /* \"Documents/GitHub/Store-system-with-feedback/main.sol\":10781:11183  function login_shop(string memory login, bytes32 password) public {\r... */\n      jump\t// out\n        /* \"Documents/GitHub/Store-system-with-feedback/main.sol\":6122:6185  structMarriageRegistration[] public structMarriageRegistrations */\n    tag_115:\n      0x0c\n      dup2\n      dup2\n      sload\n      dup2\n      lt\n      tag_290\n      jumpi\n      0x00\n      dup1\n      revert\n    tag_290:\n      0x00\n      swap2\n      dup3\n      mstore\n      0x20\n      swap1\n      swap2\n      keccak256\n      0x03\n      swap1\n      swap2\n      mul\n      add\n      dup1\n      sload\n      0x01\n      dup3\n      add\n      dup1\n      sload\n      sub(shl(0xa0, 0x01), 0x01)\n      swap1\n      swap3\n      and\n      swap4\n      pop\n      swap1\n      tag_292\n      swap1\n      tag_212\n      jump\t// in\n    tag_292:\n      dup1\n      0x1f\n      add\n      0x20\n      dup1\n      swap2\n      div\n      mul\n      0x20\n      add\n      mload(0x40)\n      swap1\n      dup2\n      add\n      0x40\n      mstore\n      dup1\n      swap3\n      swap2\n      swap1\n      dup2\n      dup2\n      mstore\n      0x20\n      add\n      dup3\n      dup1\n      sload\n      tag_293\n      swap1\n      tag_212\n      jump\t// in\n    tag_293:\n      dup1\n      iszero\n      tag_294\n      jumpi\n      dup1\n      0x1f\n      lt\n      tag_295\n      jumpi\n      0x0100\n      dup1\n      dup4\n      sload\n      div\n      mul\n      dup4\n      mstore\n      swap2\n      0x20\n      add\n      swap2\n      jump(tag_294)\n    tag_295:\n      dup3\n      add\n      swap2\n      swap1\n      0x00\n      mstore\n      keccak256(0x00, 0x20)\n      swap1\n    tag_296:\n      dup2\n      sload\n      dup2\n      mstore\n      swap1\n      0x01\n      add\n      swap1\n      0x20\n      add\n      dup1\n      dup4\n      gt\n      tag_296\n      jumpi\n      dup3\n      swap1\n      sub\n      0x1f\n      and\n      dup3\n      add\n      swap2\n    tag_294:\n      pop\n      pop\n      pop\n      0x02\n      swap1\n      swap4\n      add\n      sload\n      swap2\n      swap3\n      pop\n      pop\n      0xff\n      and\n      dup4\n      jump\t// out\n        /* \"Documents/GitHub/Store-system-with-feedback/main.sol\":3389:3528  function get_hash(string memory password) public pure returns(bytes32) {\r... */\n    tag_121:\n        /* \"Documents/GitHub/Store-system-with-feedback/main.sol\":3451:3458  bytes32 */\n      0x00\n        /* \"Documents/GitHub/Store-system-with-feedback/main.sol\":3509:3517  password */\n      dup2\n        /* \"Documents/GitHub/Store-system-with-feedback/main.sol\":3492:3518  abi.encodePacked(password) */\n      add(0x20, mload(0x40))\n      tag_298\n      swap2\n      swap1\n      tag_185\n      jump\t// in\n    tag_298:\n      mload(0x40)\n      0x20\n      dup2\n      dup4\n      sub\n      sub\n      dup2\n      mstore\n      swap1\n      0x40\n      mstore\n        /* \"Documents/GitHub/Store-system-with-feedback/main.sol\":3482:3519  keccak256(abi.encodePacked(password)) */\n      dup1\n      mload\n      swap1\n      0x20\n      add\n      keccak256\n        /* \"Documents/GitHub/Store-system-with-feedback/main.sol\":3475:3520  return(keccak256(abi.encodePacked(password))) */\n      swap1\n      pop\n        /* \"Documents/GitHub/Store-system-with-feedback/main.sol\":3389:3528  function get_hash(string memory password) public pure returns(bytes32) {\r... */\n      swap2\n      swap1\n      pop\n      jump\t// out\n        /* \"Documents/GitHub/Store-system-with-feedback/main.sol\":4282:4332  mapping (address => structShop) public structShops */\n    tag_128:\n      0x00\n      0x20\n      dup2\n      swap1\n      mstore\n      swap1\n      dup2\n      mstore\n      0x40\n      swap1\n      keccak256\n      dup1\n      sload\n      dup2\n      swap1\n      tag_299\n      swap1\n      tag_212\n      jump\t// in\n    tag_299:\n      dup1\n      0x1f\n      add\n      0x20\n      dup1\n      swap2\n      div\n      mul\n      0x20\n      add\n      mload(0x40)\n      swap1\n      dup2\n      add\n      0x40\n      mstore\n      dup1\n      swap3\n      swap2\n      swap1\n      dup2\n      dup2\n      mstore\n      0x20\n      add\n      dup3\n      dup1\n      sload\n      tag_300\n      swap1\n      tag_212\n      jump\t// in\n    tag_300:\n      dup1\n      iszero\n      tag_301\n      jumpi\n      dup1\n      0x1f\n      lt\n      tag_302\n      jumpi\n      0x0100\n      dup1\n      dup4\n      sload\n      div\n      mul\n      dup4\n      mstore\n      swap2\n      0x20\n      add\n      swap2\n      jump(tag_301)\n    tag_302:\n      dup3\n      add\n      swap2\n      swap1\n      0x00\n      mstore\n      keccak256(0x00, 0x20)\n      swap1\n    tag_303:\n      dup2\n      sload\n      dup2\n      mstore\n      swap1\n      0x01\n      add\n      swap1\n      0x20\n      add\n      dup1\n      dup4\n      gt\n      tag_303\n      jumpi\n      dup3\n      swap1\n      sub\n      0x1f\n      and\n      dup3\n      add\n      swap2\n    tag_301:\n      pop\n      pop\n      pop\n      0x01\n      dup5\n      add\n      sload\n      0x02\n      dup6\n      add\n      sload\n      0x03\n      dup7\n      add\n      sload\n      0x04\n      dup8\n      add\n      sload\n      0x05\n      dup9\n      add\n      dup1\n      sload\n      swap8\n      swap9\n      swap5\n      swap8\n      swap4\n      swap7\n      pop\n      swap2\n      swap5\n      pop\n      0xff\n      and\n      swap3\n      swap2\n      tag_304\n      swap1\n      tag_212\n      jump\t// in\n    tag_304:\n      dup1\n      0x1f\n      add\n      0x20\n      dup1\n      swap2\n      div\n      mul\n      0x20\n      add\n      mload(0x40)\n      swap1\n      dup2\n      add\n      0x40\n      mstore\n      dup1\n      swap3\n      swap2\n      swap1\n      dup2\n      dup2\n      mstore\n      0x20\n      add\n      dup3\n      dup1\n      sload\n      tag_305\n      swap1\n      tag_212\n      jump\t// in\n    tag_305:\n      dup1\n      iszero\n      tag_306\n      jumpi\n      dup1\n      0x1f\n      lt\n      tag_307\n      jumpi\n      0x0100\n      dup1\n      dup4\n      sload\n      div\n      mul\n      dup4\n      mstore\n      swap2\n      0x20\n      add\n      swap2\n      jump(tag_306)\n    tag_307:\n      dup3\n      add\n      swap2\n      swap1\n      0x00\n      mstore\n      keccak256(0x00, 0x20)\n      swap1\n    tag_308:\n      dup2\n      sload\n      dup2\n      mstore\n      swap1\n      0x01\n      add\n      swap1\n      0x20\n      add\n      dup1\n      dup4\n      gt\n      tag_308\n      jumpi\n      dup3\n      swap1\n      sub\n      0x1f\n      and\n      dup3\n      add\n      swap2\n    tag_306:\n      pop\n      pop\n      pop\n      pop\n      pop\n      swap1\n      dup1\n      0x06\n      add\n      dup1\n      sload\n      tag_309\n      swap1\n      tag_212\n      jump\t// in\n    tag_309:\n      dup1\n      0x1f\n      add\n      0x20\n      dup1\n      swap2\n      div\n      mul\n      0x20\n      add\n      mload(0x40)\n      swap1\n      dup2\n      add\n      0x40\n      mstore\n      dup1\n      swap3\n      swap2\n      swap1\n      dup2\n      dup2\n      mstore\n      0x20\n      add\n      dup3\n      dup1\n      sload\n      tag_310\n      swap1\n      tag_212\n      jump\t// in\n    tag_310:\n      dup1\n      iszero\n      tag_311\n      jumpi\n      dup1\n      0x1f\n      lt\n      tag_312\n      jumpi\n      0x0100\n      dup1\n      dup4\n      sload\n      div\n      mul\n      dup4\n      mstore\n      swap2\n      0x20\n      add\n      swap2\n      jump(tag_311)\n    tag_312:\n      dup3\n      add\n      swap2\n      swap1\n      0x00\n      mstore\n      keccak256(0x00, 0x20)\n      swap1\n    tag_313:\n      dup2\n      sload\n      dup2\n      mstore\n      swap1\n      0x01\n      add\n      swap1\n      0x20\n      add\n      dup1\n      dup4\n      gt\n      tag_313\n      jumpi\n      dup3\n      swap1\n      sub\n      0x1f\n      and\n      dup3\n      add\n      swap2\n    tag_311:\n      pop\n      pop\n      pop\n      pop\n      pop\n      swap1\n      dup1\n      0x07\n      add\n      sload\n      swap1\n      pop\n      dup9\n      jump\t// out\n        /* \"Documents/GitHub/Store-system-with-feedback/main.sol\":4993:5042  mapping(address => structUser) public structUsers */\n    tag_134:\n      mstore(0x20, 0x04)\n      0x00\n      swap1\n      dup2\n      mstore\n      0x40\n      swap1\n      keccak256\n      dup1\n      sload\n      dup2\n      swap1\n      tag_314\n      swap1\n      tag_212\n      jump\t// in\n    tag_314:\n      dup1\n      0x1f\n      add\n      0x20\n      dup1\n      swap2\n      div\n      mul\n      0x20\n      add\n      mload(0x40)\n      swap1\n      dup2\n      add\n      0x40\n      mstore\n      dup1\n      swap3\n      swap2\n      swap1\n      dup2\n      dup2\n      mstore\n      0x20\n      add\n      dup3\n      dup1\n      sload\n      tag_315\n      swap1\n      tag_212\n      jump\t// in\n    tag_315:\n      dup1\n      iszero\n      tag_316\n      jumpi\n      dup1\n      0x1f\n      lt\n      tag_317\n      jumpi\n      0x0100\n      dup1\n      dup4\n      sload\n      div\n      mul\n      dup4\n      mstore\n      swap2\n      0x20\n      add\n      swap2\n      jump(tag_316)\n    tag_317:\n      dup3\n      add\n      swap2\n      swap1\n      0x00\n      mstore\n      keccak256(0x00, 0x20)\n      swap1\n    tag_318:\n      dup2\n      sload\n      dup2\n      mstore\n      swap1\n      0x01\n      add\n      swap1\n      0x20\n      add\n      dup1\n      dup4\n      gt\n      tag_318\n      jumpi\n      dup3\n      swap1\n      sub\n      0x1f\n      and\n      dup3\n      add\n      swap2\n    tag_316:\n      pop\n      pop\n      pop\n      pop\n      0x01\n      dup4\n      add\n      sload\n      0x02\n      dup5\n      add\n      sload\n      0x03\n      dup6\n      add\n      sload\n      0x04\n      swap1\n      swap6\n      add\n      sload\n      swap4\n      swap5\n      swap2\n      swap4\n      swap1\n      swap3\n      pop\n      0xff\n      and\n      dup6\n      jump\t// out\n        /* \"Documents/GitHub/Store-system-with-feedback/main.sol\":9332:10185  function getStoryRating(string memory shopName) public view returns(uint) {\r... */\n    tag_140:\n        /* \"Documents/GitHub/Store-system-with-feedback/main.sol\":9400:9404  uint */\n      0x00\n      dup1\n      dup1\n      dup1\n        /* \"Documents/GitHub/Store-system-with-feedback/main.sol\":9490:10077  for(uint i = 0; i < shopList.length; i++) {\r... */\n    tag_320:\n        /* \"Documents/GitHub/Store-system-with-feedback/main.sol\":9510:9518  shopList */\n      0x02\n        /* \"Documents/GitHub/Store-system-with-feedback/main.sol\":9510:9525  shopList.length */\n      sload\n        /* \"Documents/GitHub/Store-system-with-feedback/main.sol\":9506:9525  i < shopList.length */\n      dup2\n      lt\n        /* \"Documents/GitHub/Store-system-with-feedback/main.sol\":9490:10077  for(uint i = 0; i < shopList.length; i++) {\r... */\n      iszero\n      tag_321\n      jumpi\n        /* \"Documents/GitHub/Store-system-with-feedback/main.sol\":9547:9573  string memory tempShopName */\n      0x00\n        /* \"Documents/GitHub/Store-system-with-feedback/main.sol\":9576:9584  shopList */\n      0x02\n        /* \"Documents/GitHub/Store-system-with-feedback/main.sol\":9585:9586  i */\n      dup3\n        /* \"Documents/GitHub/Store-system-with-feedback/main.sol\":9576:9587  shopList[i] */\n      dup2\n      sload\n      dup2\n      lt\n      tag_324\n      jumpi\n      tag_324\n      tag_223\n      jump\t// in\n    tag_324:\n      swap1\n      0x00\n      mstore\n      keccak256(0x00, 0x20)\n      add\n        /* \"Documents/GitHub/Store-system-with-feedback/main.sol\":9547:9587  string memory tempShopName = shopList[i] */\n      dup1\n      sload\n      tag_326\n      swap1\n      tag_212\n      jump\t// in\n    tag_326:\n      dup1\n      0x1f\n      add\n      0x20\n      dup1\n      swap2\n      div\n      mul\n      0x20\n      add\n      mload(0x40)\n      swap1\n      dup2\n      add\n      0x40\n      mstore\n      dup1\n      swap3\n      swap2\n      swap1\n      dup2\n      dup2\n      mstore\n      0x20\n      add\n      dup3\n      dup1\n      sload\n      tag_327\n      swap1\n      tag_212\n      jump\t// in\n    tag_327:\n      dup1\n      iszero\n      tag_328\n      jumpi\n      dup1\n      0x1f\n      lt\n      tag_329\n      jumpi\n      0x0100\n      dup1\n      dup4\n      sload\n      div\n      mul\n      dup4\n      mstore\n      swap2\n      0x20\n      add\n      swap2\n      jump(tag_328)\n    tag_329:\n      dup3\n      add\n      swap2\n      swap1\n      0x00\n      mstore\n      keccak256(0x00, 0x20)\n      swap1\n    tag_330:\n      dup2\n      sload\n      dup2\n      mstore\n      swap1\n      0x01\n      add\n      swap1\n      0x20\n      add\n      dup1\n      dup4\n      gt\n      tag_330\n      jumpi\n      dup3\n      swap1\n      sub\n      0x1f\n      and\n      dup3\n      add\n      swap2\n    tag_328:\n      pop\n      pop\n      pop\n      pop\n      pop\n      swap1\n      pop\n        /* \"Documents/GitHub/Store-system-with-feedback/main.sol\":9677:9685  shopName */\n      dup6\n        /* \"Documents/GitHub/Store-system-with-feedback/main.sol\":9660:9686  abi.encodePacked(shopName) */\n      add(0x20, mload(0x40))\n      tag_331\n      swap2\n      swap1\n      tag_185\n      jump\t// in\n    tag_331:\n      mload(0x40)\n      0x20\n      dup2\n      dup4\n      sub\n      sub\n      dup2\n      mstore\n      swap1\n      0x40\n      mstore\n        /* \"Documents/GitHub/Store-system-with-feedback/main.sol\":9650:9687  keccak256(abi.encodePacked(shopName)) */\n      dup1\n      mload\n      swap1\n      0x20\n      add\n      keccak256\n        /* \"Documents/GitHub/Store-system-with-feedback/main.sol\":9632:9644  tempShopName */\n      dup2\n        /* \"Documents/GitHub/Store-system-with-feedback/main.sol\":9615:9645  abi.encodePacked(tempShopName) */\n      add(0x20, mload(0x40))\n      tag_332\n      swap2\n      swap1\n      tag_185\n      jump\t// in\n    tag_332:\n      mload(0x40)\n      0x20\n      dup2\n      dup4\n      sub\n      sub\n      dup2\n      mstore\n      swap1\n      0x40\n      mstore\n        /* \"Documents/GitHub/Store-system-with-feedback/main.sol\":9605:9646  keccak256(abi.encodePacked(tempShopName)) */\n      dup1\n      mload\n      swap1\n      0x20\n      add\n      keccak256\n        /* \"Documents/GitHub/Store-system-with-feedback/main.sol\":9605:9687  keccak256(abi.encodePacked(tempShopName)) == keccak256(abi.encodePacked(shopName)) */\n      eq\n        /* \"Documents/GitHub/Store-system-with-feedback/main.sol\":9602:10066  if(keccak256(abi.encodePacked(tempShopName)) == keccak256(abi.encodePacked(shopName))) {                    \r... */\n      iszero\n      tag_335\n      jumpi\n        /* \"Documents/GitHub/Store-system-with-feedback/main.sol\":9737:9738  0 */\n      0x00\n        /* \"Documents/GitHub/Store-system-with-feedback/main.sol\":9733:9738  i = 0 */\n      swap2\n      pop\n        /* \"Documents/GitHub/Store-system-with-feedback/main.sol\":9728:10051  for (i = 0; i <= complaintBooks.length; i++) {\r... */\n    tag_334:\n        /* \"Documents/GitHub/Store-system-with-feedback/main.sol\":9745:9759  complaintBooks */\n      0x03\n        /* \"Documents/GitHub/Store-system-with-feedback/main.sol\":9745:9766  complaintBooks.length */\n      sload\n        /* \"Documents/GitHub/Store-system-with-feedback/main.sol\":9740:9766  i <= complaintBooks.length */\n      dup3\n      gt\n        /* \"Documents/GitHub/Store-system-with-feedback/main.sol\":9728:10051  for (i = 0; i <= complaintBooks.length; i++) {\r... */\n      tag_335\n      jumpi\n        /* \"Documents/GitHub/Store-system-with-feedback/main.sol\":9867:9881  complaintBooks */\n      0x03\n        /* \"Documents/GitHub/Store-system-with-feedback/main.sol\":9882:9883  i */\n      dup3\n        /* \"Documents/GitHub/Store-system-with-feedback/main.sol\":9867:9884  complaintBooks[i] */\n      dup2\n      sload\n      dup2\n      lt\n      tag_338\n      jumpi\n      tag_338\n      tag_223\n      jump\t// in\n    tag_338:\n      swap1\n      0x00\n      mstore\n      keccak256(0x00, 0x20)\n      swap1\n      0x05\n      mul\n      add\n        /* \"Documents/GitHub/Store-system-with-feedback/main.sol\":9867:9889  complaintBooks[i].shop */\n      0x00\n      add\n        /* \"Documents/GitHub/Store-system-with-feedback/main.sol\":9850:9890  abi.encodePacked(complaintBooks[i].shop) */\n      add(0x20, mload(0x40))\n      tag_340\n      swap2\n      swap1\n      tag_341\n      jump\t// in\n    tag_340:\n      mload(0x40)\n      0x20\n      dup2\n      dup4\n      sub\n      sub\n      dup2\n      mstore\n      swap1\n      0x40\n      mstore\n        /* \"Documents/GitHub/Store-system-with-feedback/main.sol\":9840:9891  keccak256(abi.encodePacked(complaintBooks[i].shop)) */\n      dup1\n      mload\n      swap1\n      0x20\n      add\n      keccak256\n        /* \"Documents/GitHub/Store-system-with-feedback/main.sol\":9826:9834  shopName */\n      dup7\n        /* \"Documents/GitHub/Store-system-with-feedback/main.sol\":9809:9835  abi.encodePacked(shopName) */\n      add(0x20, mload(0x40))\n      tag_342\n      swap2\n      swap1\n      tag_185\n      jump\t// in\n    tag_342:\n      mload(0x40)\n      0x20\n      dup2\n      dup4\n      sub\n      sub\n      dup2\n      mstore\n      swap1\n      0x40\n      mstore\n        /* \"Documents/GitHub/Store-system-with-feedback/main.sol\":9799:9836  keccak256(abi.encodePacked(shopName)) */\n      dup1\n      mload\n      swap1\n      0x20\n      add\n      keccak256\n        /* \"Documents/GitHub/Store-system-with-feedback/main.sol\":9799:9891  keccak256(abi.encodePacked(shopName)) == keccak256(abi.encodePacked(complaintBooks[i].shop)) */\n      eq\n        /* \"Documents/GitHub/Store-system-with-feedback/main.sol\":9796:10032  if(keccak256(abi.encodePacked(shopName)) == keccak256(abi.encodePacked(complaintBooks[i].shop))) {\r... */\n      iszero\n      tag_343\n      jumpi\n        /* \"Documents/GitHub/Store-system-with-feedback/main.sol\":9940:9954  complaintBooks */\n      0x03\n        /* \"Documents/GitHub/Store-system-with-feedback/main.sol\":9955:9956  i */\n      dup3\n        /* \"Documents/GitHub/Store-system-with-feedback/main.sol\":9940:9957  complaintBooks[i] */\n      dup2\n      sload\n      dup2\n      lt\n      tag_345\n      jumpi\n      tag_345\n      tag_223\n      jump\t// in\n    tag_345:\n      swap1\n      0x00\n      mstore\n      keccak256(0x00, 0x20)\n      swap1\n      0x05\n      mul\n      add\n        /* \"Documents/GitHub/Store-system-with-feedback/main.sol\":9940:9964  complaintBooks[i].rating */\n      0x03\n      add\n      sload\n        /* \"Documents/GitHub/Store-system-with-feedback/main.sol\":9920:9964  countArrayRating += complaintBooks[i].rating */\n      dup4\n      tag_347\n      swap2\n      swap1\n      tag_348\n      jump\t// in\n    tag_347:\n      swap3\n      pop\n        /* \"Documents/GitHub/Store-system-with-feedback/main.sol\":9796:10032  if(keccak256(abi.encodePacked(shopName)) == keccak256(abi.encodePacked(complaintBooks[i].shop))) {\r... */\n    tag_343:\n        /* \"Documents/GitHub/Store-system-with-feedback/main.sol\":9768:9771  i++ */\n      dup2\n      tag_349\n      dup2\n      tag_239\n      jump\t// in\n    tag_349:\n      swap3\n      pop\n      pop\n        /* \"Documents/GitHub/Store-system-with-feedback/main.sol\":9728:10051  for (i = 0; i <= complaintBooks.length; i++) {\r... */\n      jump(tag_334)\n    tag_335:\n      pop\n        /* \"Documents/GitHub/Store-system-with-feedback/main.sol\":9527:9530  i++ */\n      dup1\n      tag_350\n      dup2\n      tag_239\n      jump\t// in\n    tag_350:\n      swap2\n      pop\n      pop\n        /* \"Documents/GitHub/Store-system-with-feedback/main.sol\":9490:10077  for(uint i = 0; i < shopList.length; i++) {\r... */\n      jump(tag_320)\n    tag_321:\n      pop\n        /* \"Documents/GitHub/Store-system-with-feedback/main.sol\":10107:10143  countArrayRating / totalAverageValue */\n      tag_351\n        /* \"Documents/GitHub/Store-system-with-feedback/main.sol\":10126:10143  totalAverageValue */\n      dup3\n        /* \"Documents/GitHub/Store-system-with-feedback/main.sol\":10107:10123  countArrayRating */\n      dup3\n        /* \"Documents/GitHub/Store-system-with-feedback/main.sol\":10107:10143  countArrayRating / totalAverageValue */\n      tag_352\n      jump\t// in\n    tag_351:\n        /* \"Documents/GitHub/Store-system-with-feedback/main.sol\":10087:10143  countArrayRating += countArrayRating / totalAverageValue */\n      tag_353\n      swap1\n      dup3\n      tag_348\n      jump\t// in\n    tag_353:\n      swap5\n        /* \"Documents/GitHub/Store-system-with-feedback/main.sol\":9332:10185  function getStoryRating(string memory shopName) public view returns(uint) {\r... */\n      swap4\n      pop\n      pop\n      pop\n      pop\n      jump\t// out\n        /* \"Documents/GitHub/Store-system-with-feedback/main.sol\":5878:5925  structStatusReturn[] public structStatusReturns */\n    tag_145:\n      0x0b\n      dup2\n      dup2\n      sload\n      dup2\n      lt\n      tag_290\n      jumpi\n      0x00\n      dup1\n      revert\n        /* \"Documents/GitHub/Store-system-with-feedback/main.sol\":6690:7278  function leaveFeedback (string memory shop, string memory feedback, uint256 rating) public {\r... */\n    tag_161:\n        /* \"Documents/GitHub/Store-system-with-feedback/main.sol\":6810:6812  10 */\n      0x0a\n        /* \"Documents/GitHub/Store-system-with-feedback/main.sol\":6800:6806  rating */\n      dup2\n        /* \"Documents/GitHub/Store-system-with-feedback/main.sol\":6800:6812  rating <= 10 */\n      gt\n      iszero\n        /* \"Documents/GitHub/Store-system-with-feedback/main.sol\":6792:6849  require(rating <= 10,\"error: rating can be from 1 to 10\") */\n      tag_363\n      jumpi\n      mload(0x40)\n      shl(0xe5, 0x461bcd)\n      dup2\n      mstore\n        /* \"#utility.yul\":12904:12906   */\n      0x20\n        /* \"Documents/GitHub/Store-system-with-feedback/main.sol\":6792:6849  require(rating <= 10,\"error: rating can be from 1 to 10\") */\n      0x04\n      dup3\n      add\n        /* \"#utility.yul\":12886:12907   */\n      mstore\n        /* \"#utility.yul\":12943:12945   */\n      0x21\n        /* \"#utility.yul\":12923:12941   */\n      0x24\n      dup3\n      add\n        /* \"#utility.yul\":12916:12946   */\n      mstore\n        /* \"#utility.yul\":12982:13016   */\n      0x6572726f723a20726174696e672063616e2062652066726f6d203120746f2031\n        /* \"#utility.yul\":12962:12980   */\n      0x44\n      dup3\n      add\n        /* \"#utility.yul\":12955:13017   */\n      mstore\n      shl(0xfc, 0x03)\n        /* \"#utility.yul\":13033:13051   */\n      0x64\n      dup3\n      add\n        /* \"#utility.yul\":13026:13057   */\n      mstore\n        /* \"#utility.yul\":13074:13093   */\n      0x84\n      add\n        /* \"Documents/GitHub/Store-system-with-feedback/main.sol\":6792:6849  require(rating <= 10,\"error: rating can be from 1 to 10\") */\n      tag_191\n        /* \"#utility.yul\":12702:13099   */\n      jump\n        /* \"Documents/GitHub/Store-system-with-feedback/main.sol\":6792:6849  require(rating <= 10,\"error: rating can be from 1 to 10\") */\n    tag_363:\n        /* \"Documents/GitHub/Store-system-with-feedback/main.sol\":6864:6870  uint i */\n      0x00\n        /* \"Documents/GitHub/Store-system-with-feedback/main.sol\":6860:7271  for(uint i = 0; i <= shopList.length; i++) {\r... */\n    tag_366:\n        /* \"Documents/GitHub/Store-system-with-feedback/main.sol\":6881:6889  shopList */\n      0x02\n        /* \"Documents/GitHub/Store-system-with-feedback/main.sol\":6881:6896  shopList.length */\n      sload\n        /* \"Documents/GitHub/Store-system-with-feedback/main.sol\":6876:6896  i <= shopList.length */\n      dup2\n      gt\n        /* \"Documents/GitHub/Store-system-with-feedback/main.sol\":6860:7271  for(uint i = 0; i <= shopList.length; i++) {\r... */\n      tag_367\n      jumpi\n        /* \"Documents/GitHub/Store-system-with-feedback/main.sol\":6918:6944  string memory tempShopName */\n      0x00\n        /* \"Documents/GitHub/Store-system-with-feedback/main.sol\":6947:6955  shopList */\n      0x02\n        /* \"Documents/GitHub/Store-system-with-feedback/main.sol\":6956:6957  i */\n      dup3\n        /* \"Documents/GitHub/Store-system-with-feedback/main.sol\":6947:6958  shopList[i] */\n      dup2\n      sload\n      dup2\n      lt\n      tag_370\n      jumpi\n      tag_370\n      tag_223\n      jump\t// in\n    tag_370:\n      swap1\n      0x00\n      mstore\n      keccak256(0x00, 0x20)\n      add\n        /* \"Documents/GitHub/Store-system-with-feedback/main.sol\":6918:6958  string memory tempShopName = shopList[i] */\n      dup1\n      sload\n      tag_372\n      swap1\n      tag_212\n      jump\t// in\n    tag_372:\n      dup1\n      0x1f\n      add\n      0x20\n      dup1\n      swap2\n      div\n      mul\n      0x20\n      add\n      mload(0x40)\n      swap1\n      dup2\n      add\n      0x40\n      mstore\n      dup1\n      swap3\n      swap2\n      swap1\n      dup2\n      dup2\n      mstore\n      0x20\n      add\n      dup3\n      dup1\n      sload\n      tag_373\n      swap1\n      tag_212\n      jump\t// in\n    tag_373:\n      dup1\n      iszero\n      tag_374\n      jumpi\n      dup1\n      0x1f\n      lt\n      tag_375\n      jumpi\n      0x0100\n      dup1\n      dup4\n      sload\n      div\n      mul\n      dup4\n      mstore\n      swap2\n      0x20\n      add\n      swap2\n      jump(tag_374)\n    tag_375:\n      dup3\n      add\n      swap2\n      swap1\n      0x00\n      mstore\n      keccak256(0x00, 0x20)\n      swap1\n    tag_376:\n      dup2\n      sload\n      dup2\n      mstore\n      swap1\n      0x01\n      add\n      swap1\n      0x20\n      add\n      dup1\n      dup4\n      gt\n      tag_376\n      jumpi\n      dup3\n      swap1\n      sub\n      0x1f\n      and\n      dup3\n      add\n      swap2\n    tag_374:\n      pop\n      pop\n      pop\n      pop\n      pop\n      swap1\n      pop\n        /* \"Documents/GitHub/Store-system-with-feedback/main.sol\":7048:7052  shop */\n      dup5\n        /* \"Documents/GitHub/Store-system-with-feedback/main.sol\":7031:7053  abi.encodePacked(shop) */\n      add(0x20, mload(0x40))\n      tag_377\n      swap2\n      swap1\n      tag_185\n      jump\t// in\n    tag_377:\n      mload(0x40)\n      0x20\n      dup2\n      dup4\n      sub\n      sub\n      dup2\n      mstore\n      swap1\n      0x40\n      mstore\n        /* \"Documents/GitHub/Store-system-with-feedback/main.sol\":7021:7054  keccak256(abi.encodePacked(shop)) */\n      dup1\n      mload\n      swap1\n      0x20\n      add\n      keccak256\n        /* \"Documents/GitHub/Store-system-with-feedback/main.sol\":7003:7015  tempShopName */\n      dup2\n        /* \"Documents/GitHub/Store-system-with-feedback/main.sol\":6986:7016  abi.encodePacked(tempShopName) */\n      add(0x20, mload(0x40))\n      tag_378\n      swap2\n      swap1\n      tag_185\n      jump\t// in\n    tag_378:\n      mload(0x40)\n      0x20\n      dup2\n      dup4\n      sub\n      sub\n      dup2\n      mstore\n      swap1\n      0x40\n      mstore\n        /* \"Documents/GitHub/Store-system-with-feedback/main.sol\":6976:7017  keccak256(abi.encodePacked(tempShopName)) */\n      dup1\n      mload\n      swap1\n      0x20\n      add\n      keccak256\n        /* \"Documents/GitHub/Store-system-with-feedback/main.sol\":6976:7054  keccak256(abi.encodePacked(tempShopName)) == keccak256(abi.encodePacked(shop)) */\n      eq\n        /* \"Documents/GitHub/Store-system-with-feedback/main.sol\":6973:7260  if(keccak256(abi.encodePacked(tempShopName)) == keccak256(abi.encodePacked(shop))) {                    \r... */\n      iszero\n      tag_379\n      jumpi\n        /* \"Documents/GitHub/Store-system-with-feedback/main.sol\":7160:7243  complaintBook(shop, structUsers[msg.sender].userName, feedback, rating, zerroArray) */\n      0x40\n      dup1\n      mload\n      0xa0\n      dup2\n      add\n      dup3\n      mstore\n      dup7\n      dup2\n      mstore\n        /* \"Documents/GitHub/Store-system-with-feedback/main.sol\":7192:7202  msg.sender */\n      caller\n      0x00\n        /* \"Documents/GitHub/Store-system-with-feedback/main.sol\":7180:7203  structUsers[msg.sender] */\n      swap1\n      dup2\n      mstore\n        /* \"Documents/GitHub/Store-system-with-feedback/main.sol\":7180:7191  structUsers */\n      0x04\n        /* \"Documents/GitHub/Store-system-with-feedback/main.sol\":7160:7243  complaintBook(shop, structUsers[msg.sender].userName, feedback, rating, zerroArray) */\n      0x20\n        /* \"Documents/GitHub/Store-system-with-feedback/main.sol\":7180:7203  structUsers[msg.sender] */\n      swap1\n      dup2\n      mstore\n      swap3\n      swap1\n      keccak256\n        /* \"Documents/GitHub/Store-system-with-feedback/main.sol\":7160:7243  complaintBook(shop, structUsers[msg.sender].userName, feedback, rating, zerroArray) */\n      dup1\n      sload\n        /* \"Documents/GitHub/Store-system-with-feedback/main.sol\":7095:7121  string[] memory zerroArray */\n      0x60\n      swap4\n        /* \"Documents/GitHub/Store-system-with-feedback/main.sol\":7140:7154  complaintBooks */\n      0x03\n      swap4\n        /* \"Documents/GitHub/Store-system-with-feedback/main.sol\":7160:7243  complaintBook(shop, structUsers[msg.sender].userName, feedback, rating, zerroArray) */\n      swap3\n      swap1\n      dup4\n      add\n      swap2\n      tag_380\n      swap1\n      tag_212\n      jump\t// in\n    tag_380:\n      dup1\n      0x1f\n      add\n      0x20\n      dup1\n      swap2\n      div\n      mul\n      0x20\n      add\n      mload(0x40)\n      swap1\n      dup2\n      add\n      0x40\n      mstore\n      dup1\n      swap3\n      swap2\n      swap1\n      dup2\n      dup2\n      mstore\n      0x20\n      add\n      dup3\n      dup1\n      sload\n      tag_381\n      swap1\n      tag_212\n      jump\t// in\n    tag_381:\n      dup1\n      iszero\n      tag_382\n      jumpi\n      dup1\n      0x1f\n      lt\n      tag_383\n      jumpi\n      0x0100\n      dup1\n      dup4\n      sload\n      div\n      mul\n      dup4\n      mstore\n      swap2\n      0x20\n      add\n      swap2\n      jump(tag_382)\n    tag_383:\n      dup3\n      add\n      swap2\n      swap1\n      0x00\n      mstore\n      keccak256(0x00, 0x20)\n      swap1\n    tag_384:\n      dup2\n      sload\n      dup2\n      mstore\n      swap1\n      0x01\n      add\n      swap1\n      0x20\n      add\n      dup1\n      dup4\n      gt\n      tag_384\n      jumpi\n      dup3\n      swap1\n      sub\n      0x1f\n      and\n      dup3\n      add\n      swap2\n    tag_382:\n      pop\n      pop\n      pop\n      swap2\n      dup4\n      mstore\n      pop\n      pop\n      0x20\n      dup1\n      dup3\n      add\n      dup10\n      swap1\n      mstore\n      0x40\n      dup3\n      add\n      dup9\n      swap1\n      mstore\n      0x60\n      swap1\n      swap2\n      add\n      dup5\n      swap1\n      mstore\n        /* \"Documents/GitHub/Store-system-with-feedback/main.sol\":7140:7244  complaintBooks.push(complaintBook(shop, structUsers[msg.sender].userName, feedback, rating, zerroArray)) */\n      dup3\n      sload\n      0x01\n      dup2\n      add\n      dup5\n      sstore\n      0x00\n      swap4\n      dup5\n      mstore\n      swap3\n      dup2\n      swap1\n      keccak256\n      dup3\n      mload\n      dup1\n      mload\n      swap4\n      swap5\n      0x05\n      mul\n      swap1\n      swap2\n      add\n      swap3\n      tag_386\n      swap3\n      dup5\n      swap3\n      add\n      swap1\n      tag_194\n      jump\t// in\n    tag_386:\n      pop\n      0x20\n      dup3\n      dup2\n      add\n      mload\n      dup1\n      mload\n      tag_387\n      swap3\n      0x01\n      dup6\n      add\n      swap3\n      add\n      swap1\n      tag_194\n      jump\t// in\n    tag_387:\n      pop\n      0x40\n      dup3\n      add\n      mload\n      dup1\n      mload\n      tag_388\n      swap2\n      0x02\n      dup5\n      add\n      swap2\n      0x20\n      swap1\n      swap2\n      add\n      swap1\n      tag_194\n      jump\t// in\n    tag_388:\n      pop\n      0x60\n      dup3\n      add\n      mload\n      0x03\n      dup3\n      add\n      sstore\n      0x80\n      dup3\n      add\n      mload\n      dup1\n      mload\n      tag_389\n      swap2\n      0x04\n      dup5\n      add\n      swap2\n      0x20\n      swap1\n      swap2\n      add\n      swap1\n      tag_237\n      jump\t// in\n    tag_389:\n      pop\n      pop\n      pop\n        /* \"Documents/GitHub/Store-system-with-feedback/main.sol\":7056:7260  {                    \r... */\n      pop\n        /* \"Documents/GitHub/Store-system-with-feedback/main.sol\":6973:7260  if(keccak256(abi.encodePacked(tempShopName)) == keccak256(abi.encodePacked(shop))) {                    \r... */\n    tag_379:\n      pop\n        /* \"Documents/GitHub/Store-system-with-feedback/main.sol\":6898:6901  i++ */\n      dup1\n      tag_390\n      dup2\n      tag_239\n      jump\t// in\n    tag_390:\n      swap2\n      pop\n      pop\n        /* \"Documents/GitHub/Store-system-with-feedback/main.sol\":6860:7271  for(uint i = 0; i <= shopList.length; i++) {\r... */\n      jump(tag_366)\n    tag_367:\n      pop\n        /* \"Documents/GitHub/Store-system-with-feedback/main.sol\":6690:7278  function leaveFeedback (string memory shop, string memory feedback, uint256 rating) public {\r... */\n      pop\n      pop\n      pop\n      jump\t// out\n        /* \"Documents/GitHub/Store-system-with-feedback/main.sol\":12849:13279  function login_user(string memory login, bytes32 password) public {\r... */\n    tag_165:\n        /* \"Documents/GitHub/Store-system-with-feedback/main.sol\":12934:12945  structUsers */\n      0x04\n        /* \"Documents/GitHub/Store-system-with-feedback/main.sol\":12934:12970  structUsers[structUserLogins[login]] */\n      0x00\n        /* \"Documents/GitHub/Store-system-with-feedback/main.sol\":12946:12962  structUserLogins */\n      0x05\n        /* \"Documents/GitHub/Store-system-with-feedback/main.sol\":12963:12968  login */\n      dup5\n        /* \"Documents/GitHub/Store-system-with-feedback/main.sol\":12946:12969  structUserLogins[login] */\n      mload(0x40)\n      tag_392\n      swap2\n      swap1\n      tag_185\n      jump\t// in\n    tag_392:\n      swap1\n      dup2\n      mstore\n      0x40\n      dup1\n      mload\n      0x20\n      swap3\n      dup2\n      swap1\n      sub\n      dup4\n      add\n      swap1\n      keccak256\n      sload\n      sub(shl(0xa0, 0x01), 0x01)\n      and\n        /* \"Documents/GitHub/Store-system-with-feedback/main.sol\":12934:12970  structUsers[structUserLogins[login]] */\n      dup4\n      mstore\n      swap1\n      dup3\n      add\n      swap3\n      swap1\n      swap3\n      mstore\n      add\n      0x00\n      keccak256\n        /* \"Documents/GitHub/Store-system-with-feedback/main.sol\":12934:12977  structUsers[structUserLogins[login]].logged */\n      0x04\n      add\n      sload\n      0xff\n      and\n        /* \"Documents/GitHub/Store-system-with-feedback/main.sol\":12934:12986  structUsers[structUserLogins[login]].logged == false */\n      iszero\n        /* \"Documents/GitHub/Store-system-with-feedback/main.sol\":12926:13020  require(structUsers[structUserLogins[login]].logged == false, \"Error: You are already logged\") */\n      tag_393\n      jumpi\n      mload(0x40)\n      shl(0xe5, 0x461bcd)\n      dup2\n      mstore\n      0x04\n      add\n      tag_191\n      swap1\n      tag_280\n      jump\t// in\n    tag_393:\n        /* \"Documents/GitHub/Store-system-with-feedback/main.sol\":13074:13075  0 */\n      0x00\n      sub(shl(0xa0, 0x01), 0x01)\n        /* \"Documents/GitHub/Store-system-with-feedback/main.sol\":13039:13076  structUserLogins[login] != address(0) */\n      and\n        /* \"Documents/GitHub/Store-system-with-feedback/main.sol\":13039:13055  structUserLogins */\n      0x05\n        /* \"Documents/GitHub/Store-system-with-feedback/main.sol\":13056:13061  login */\n      dup4\n        /* \"Documents/GitHub/Store-system-with-feedback/main.sol\":13039:13062  structUserLogins[login] */\n      mload(0x40)\n      tag_395\n      swap2\n      swap1\n      tag_185\n      jump\t// in\n    tag_395:\n      swap1\n      dup2\n      mstore\n      mload(0x40)\n      swap1\n      dup2\n      swap1\n      sub\n      0x20\n      add\n      swap1\n      keccak256\n      sload\n      sub(shl(0xa0, 0x01), 0x01)\n      and\n        /* \"Documents/GitHub/Store-system-with-feedback/main.sol\":13039:13076  structUserLogins[login] != address(0) */\n      eq\n      iszero\n        /* \"Documents/GitHub/Store-system-with-feedback/main.sol\":13031:13106  require(structUserLogins[login] != address(0), \"Error: User doesn't exist\") */\n      tag_396\n      jumpi\n      mload(0x40)\n      shl(0xe5, 0x461bcd)\n      dup2\n      mstore\n      0x04\n      add\n      tag_191\n      swap1\n      tag_284\n      jump\t// in\n    tag_396:\n        /* \"Documents/GitHub/Store-system-with-feedback/main.sol\":13174:13182  password */\n      dup1\n        /* \"Documents/GitHub/Store-system-with-feedback/main.sol\":13125:13136  structUsers */\n      0x04\n        /* \"Documents/GitHub/Store-system-with-feedback/main.sol\":13125:13161  structUsers[structUserLogins[login]] */\n      0x00\n        /* \"Documents/GitHub/Store-system-with-feedback/main.sol\":13137:13153  structUserLogins */\n      0x05\n        /* \"Documents/GitHub/Store-system-with-feedback/main.sol\":13154:13159  login */\n      dup6\n        /* \"Documents/GitHub/Store-system-with-feedback/main.sol\":13137:13160  structUserLogins[login] */\n      mload(0x40)\n      tag_398\n      swap2\n      swap1\n      tag_185\n      jump\t// in\n    tag_398:\n      swap1\n      dup2\n      mstore\n      0x40\n      dup1\n      mload\n      0x20\n      swap3\n      dup2\n      swap1\n      sub\n      dup4\n      add\n      swap1\n      keccak256\n      sload\n      sub(shl(0xa0, 0x01), 0x01)\n      and\n        /* \"Documents/GitHub/Store-system-with-feedback/main.sol\":13125:13161  structUsers[structUserLogins[login]] */\n      dup4\n      mstore\n      swap1\n      dup3\n      add\n      swap3\n      swap1\n      swap3\n      mstore\n      add\n      0x00\n      keccak256\n        /* \"Documents/GitHub/Store-system-with-feedback/main.sol\":13137:13160  structUserLogins[login] */\n      0x01\n        /* \"Documents/GitHub/Store-system-with-feedback/main.sol\":13125:13170  structUsers[structUserLogins[login]].password */\n      add\n      sload\n        /* \"Documents/GitHub/Store-system-with-feedback/main.sol\":13125:13182  structUsers[structUserLogins[login]].password == password */\n      eq\n        /* \"Documents/GitHub/Store-system-with-feedback/main.sol\":13117:13210  require(structUsers[structUserLogins[login]].password == password, \"Error: Invalid password\") */\n      tag_399\n      jumpi\n      mload(0x40)\n      shl(0xe5, 0x461bcd)\n      dup2\n      mstore\n      0x04\n      add\n      tag_191\n      swap1\n      tag_288\n      jump\t// in\n    tag_399:\n        /* \"Documents/GitHub/Store-system-with-feedback/main.sol\":13267:13271  true */\n      0x01\n        /* \"Documents/GitHub/Store-system-with-feedback/main.sol\":13221:13232  structUsers */\n      0x04\n        /* \"Documents/GitHub/Store-system-with-feedback/main.sol\":13221:13257  structUsers[structUserLogins[login]] */\n      0x00\n        /* \"Documents/GitHub/Store-system-with-feedback/main.sol\":13233:13249  structUserLogins */\n      0x05\n        /* \"Documents/GitHub/Store-system-with-feedback/main.sol\":13250:13255  login */\n      dup6\n        /* \"Documents/GitHub/Store-system-with-feedback/main.sol\":13233:13256  structUserLogins[login] */\n      mload(0x40)\n      tag_289\n      swap2\n      swap1\n      tag_185\n      jump\t// in\n        /* \"Documents/GitHub/Store-system-with-feedback/main.sol\":5348:5402  mapping(string => structProduct) public structProducts */\n    tag_169:\n      dup1\n      mload\n      0x20\n      dup2\n      dup4\n      add\n      dup2\n      add\n      dup1\n      mload\n      0x08\n      dup3\n      mstore\n      swap3\n      dup3\n      add\n      swap2\n      swap1\n      swap4\n      add\n      keccak256\n      swap2\n      mstore\n      dup1\n      sload\n      0x01\n      dup3\n      add\n      dup1\n      sload\n      sub(shl(0xa0, 0x01), 0x01)\n      swap1\n      swap3\n      and\n      swap3\n      swap2\n      tag_402\n      swap1\n      tag_212\n      jump\t// in\n    tag_402:\n      dup1\n      0x1f\n      add\n      0x20\n      dup1\n      swap2\n      div\n      mul\n      0x20\n      add\n      mload(0x40)\n      swap1\n      dup2\n      add\n      0x40\n      mstore\n      dup1\n      swap3\n      swap2\n      swap1\n      dup2\n      dup2\n      mstore\n      0x20\n      add\n      dup3\n      dup1\n      sload\n      tag_403\n      swap1\n      tag_212\n      jump\t// in\n    tag_403:\n      dup1\n      iszero\n      tag_404\n      jumpi\n      dup1\n      0x1f\n      lt\n      tag_405\n      jumpi\n      0x0100\n      dup1\n      dup4\n      sload\n      div\n      mul\n      dup4\n      mstore\n      swap2\n      0x20\n      add\n      swap2\n      jump(tag_404)\n    tag_405:\n      dup3\n      add\n      swap2\n      swap1\n      0x00\n      mstore\n      keccak256(0x00, 0x20)\n      swap1\n    tag_406:\n      dup2\n      sload\n      dup2\n      mstore\n      swap1\n      0x01\n      add\n      swap1\n      0x20\n      add\n      dup1\n      dup4\n      gt\n      tag_406\n      jumpi\n      dup3\n      swap1\n      sub\n      0x1f\n      and\n      dup3\n      add\n      swap2\n    tag_404:\n      pop\n      pop\n      pop\n      pop\n      pop\n      swap1\n      dup1\n      0x02\n      add\n      sload\n      swap1\n      dup1\n      0x03\n      add\n      sload\n      swap1\n      pop\n      dup5\n      jump\t// out\n        /* \"Documents/GitHub/Store-system-with-feedback/main.sol\":5640:5691  structStatusPurchase[] public structStatusPurchases */\n    tag_175:\n      0x0a\n      dup2\n      dup2\n      sload\n      dup2\n      lt\n      tag_407\n      jumpi\n      0x00\n      dup1\n      revert\n    tag_407:\n      0x00\n      swap2\n      dup3\n      mstore\n      0x20\n      swap1\n      swap2\n      keccak256\n      0x04\n      swap1\n      swap2\n      mul\n      add\n      dup1\n      sload\n      0x01\n      dup3\n      add\n      dup1\n      sload\n      sub(shl(0xa0, 0x01), 0x01)\n      swap1\n      swap3\n      and\n      swap4\n      pop\n      swap1\n      tag_409\n      swap1\n      tag_212\n      jump\t// in\n    tag_409:\n      dup1\n      0x1f\n      add\n      0x20\n      dup1\n      swap2\n      div\n      mul\n      0x20\n      add\n      mload(0x40)\n      swap1\n      dup2\n      add\n      0x40\n      mstore\n      dup1\n      swap3\n      swap2\n      swap1\n      dup2\n      dup2\n      mstore\n      0x20\n      add\n      dup3\n      dup1\n      sload\n      tag_410\n      swap1\n      tag_212\n      jump\t// in\n    tag_410:\n      dup1\n      iszero\n      tag_411\n      jumpi\n      dup1\n      0x1f\n      lt\n      tag_412\n      jumpi\n      0x0100\n      dup1\n      dup4\n      sload\n      div\n      mul\n      dup4\n      mstore\n      swap2\n      0x20\n      add\n      swap2\n      jump(tag_411)\n    tag_412:\n      dup3\n      add\n      swap2\n      swap1\n      0x00\n      mstore\n      keccak256(0x00, 0x20)\n      swap1\n    tag_413:\n      dup2\n      sload\n      dup2\n      mstore\n      swap1\n      0x01\n      add\n      swap1\n      0x20\n      add\n      dup1\n      dup4\n      gt\n      tag_413\n      jumpi\n      dup3\n      swap1\n      sub\n      0x1f\n      and\n      dup3\n      add\n      swap2\n    tag_411:\n      pop\n      pop\n      pop\n      pop\n      0x02\n      dup4\n      add\n      sload\n      0x03\n      swap1\n      swap4\n      add\n      sload\n      swap2\n      swap3\n      swap2\n      0xff\n      and\n      swap1\n      pop\n      dup5\n      jump\t// out\n    tag_194:\n      dup3\n      dup1\n      sload\n      tag_415\n      swap1\n      tag_212\n      jump\t// in\n    tag_415:\n      swap1\n      0x00\n      mstore\n      keccak256(0x00, 0x20)\n      swap1\n      0x1f\n      add\n      0x20\n      swap1\n      div\n      dup2\n      add\n      swap3\n      dup3\n      tag_417\n      jumpi\n      0x00\n      dup6\n      sstore\n      jump(tag_420)\n    tag_417:\n      dup3\n      0x1f\n      lt\n      tag_418\n      jumpi\n      dup1\n      mload\n      not(0xff)\n      and\n      dup4\n      dup1\n      add\n      or\n      dup6\n      sstore\n      jump(tag_420)\n    tag_418:\n      dup3\n      dup1\n      add\n      0x01\n      add\n      dup6\n      sstore\n      dup3\n      iszero\n      tag_420\n      jumpi\n      swap2\n      dup3\n      add\n    tag_419:\n      dup3\n      dup2\n      gt\n      iszero\n      tag_420\n      jumpi\n      dup3\n      mload\n      dup3\n      sstore\n      swap2\n      0x20\n      add\n      swap2\n      swap1\n      0x01\n      add\n      swap1\n      jump(tag_419)\n    tag_420:\n      pop\n      tag_421\n      swap3\n      swap2\n      pop\n      tag_422\n      jump\t// in\n    tag_421:\n      pop\n      swap1\n      jump\t// out\n    tag_237:\n      dup3\n      dup1\n      sload\n      dup3\n      dup3\n      sstore\n      swap1\n      0x00\n      mstore\n      keccak256(0x00, 0x20)\n      swap1\n      dup2\n      add\n      swap3\n      dup3\n      iszero\n      tag_425\n      jumpi\n      swap2\n      0x20\n      mul\n      dup3\n      add\n    tag_424:\n      dup3\n      dup2\n      gt\n      iszero\n      tag_425\n      jumpi\n      dup3\n      mload\n      dup1\n      mload\n      tag_426\n      swap2\n      dup5\n      swap2\n      0x20\n      swap1\n      swap2\n      add\n      swap1\n      tag_194\n      jump\t// in\n    tag_426:\n      pop\n      swap2\n      0x20\n      add\n      swap2\n      swap1\n      0x01\n      add\n      swap1\n      jump(tag_424)\n    tag_425:\n      pop\n      tag_421\n      swap3\n      swap2\n      pop\n      tag_428\n      jump\t// in\n    tag_422:\n    tag_429:\n      dup1\n      dup3\n      gt\n      iszero\n      tag_421\n      jumpi\n      0x00\n      dup2\n      sstore\n      0x01\n      add\n      jump(tag_429)\n    tag_428:\n      dup1\n      dup3\n      gt\n      iszero\n      tag_421\n      jumpi\n      0x00\n      tag_433\n      dup3\n      dup3\n      tag_434\n      jump\t// in\n    tag_433:\n      pop\n      0x01\n      add\n      jump(tag_428)\n    tag_434:\n      pop\n      dup1\n      sload\n      tag_435\n      swap1\n      tag_212\n      jump\t// in\n    tag_435:\n      0x00\n      dup3\n      sstore\n      dup1\n      0x1f\n      lt\n      tag_437\n      jumpi\n      pop\n      pop\n      jump\t// out\n    tag_437:\n      0x1f\n      add\n      0x20\n      swap1\n      div\n      swap1\n      0x00\n      mstore\n      keccak256(0x00, 0x20)\n      swap1\n      dup2\n      add\n      swap1\n      tag_438\n      swap2\n      swap1\n      tag_422\n      jump\t// in\n    tag_438:\n      pop\n      jump\t// out\n        /* \"#utility.yul\":14:187   */\n    tag_440:\n        /* \"#utility.yul\":82:102   */\n      dup1\n      calldataload\n      sub(shl(0xa0, 0x01), 0x01)\n        /* \"#utility.yul\":131:162   */\n      dup2\n      and\n        /* \"#utility.yul\":121:163   */\n      dup2\n      eq\n        /* \"#utility.yul\":111:181   */\n      tag_442\n      jumpi\n        /* \"#utility.yul\":177:178   */\n      0x00\n        /* \"#utility.yul\":174:175   */\n      dup1\n        /* \"#utility.yul\":167:179   */\n      revert\n        /* \"#utility.yul\":111:181   */\n    tag_442:\n        /* \"#utility.yul\":14:187   */\n      swap2\n      swap1\n      pop\n      jump\t// out\n        /* \"#utility.yul\":192:723   */\n    tag_443:\n        /* \"#utility.yul\":235:240   */\n      0x00\n        /* \"#utility.yul\":288:291   */\n      dup3\n        /* \"#utility.yul\":281:285   */\n      0x1f\n        /* \"#utility.yul\":273:279   */\n      dup4\n        /* \"#utility.yul\":269:286   */\n      add\n        /* \"#utility.yul\":265:292   */\n      slt\n        /* \"#utility.yul\":255:310   */\n      tag_445\n      jumpi\n        /* \"#utility.yul\":306:307   */\n      0x00\n        /* \"#utility.yul\":303:304   */\n      dup1\n        /* \"#utility.yul\":296:308   */\n      revert\n        /* \"#utility.yul\":255:310   */\n    tag_445:\n        /* \"#utility.yul\":329:349   */\n      dup2\n      calldataload\n      sub(shl(0x40, 0x01), 0x01)\n        /* \"#utility.yul\":361:387   */\n      dup2\n      gt\n        /* \"#utility.yul\":358:410   */\n      iszero\n      tag_447\n      jumpi\n        /* \"#utility.yul\":390:408   */\n      tag_447\n      tag_448\n      jump\t// in\n    tag_447:\n        /* \"#utility.yul\":434:489   */\n      tag_449\n        /* \"#utility.yul\":477:479   */\n      0x1f\n        /* \"#utility.yul\":458:471   */\n      dup3\n      add\n      not(0x1f)\n        /* \"#utility.yul\":454:481   */\n      and\n        /* \"#utility.yul\":483:487   */\n      0x20\n        /* \"#utility.yul\":450:488   */\n      add\n        /* \"#utility.yul\":434:489   */\n      tag_450\n      jump\t// in\n    tag_449:\n        /* \"#utility.yul\":514:516   */\n      dup2\n        /* \"#utility.yul\":505:512   */\n      dup2\n        /* \"#utility.yul\":498:517   */\n      mstore\n        /* \"#utility.yul\":560:563   */\n      dup5\n        /* \"#utility.yul\":553:557   */\n      0x20\n        /* \"#utility.yul\":548:550   */\n      dup4\n        /* \"#utility.yul\":540:546   */\n      dup7\n        /* \"#utility.yul\":536:551   */\n      add\n        /* \"#utility.yul\":532:558   */\n      add\n        /* \"#utility.yul\":529:564   */\n      gt\n        /* \"#utility.yul\":526:581   */\n      iszero\n      tag_451\n      jumpi\n        /* \"#utility.yul\":577:578   */\n      0x00\n        /* \"#utility.yul\":574:575   */\n      dup1\n        /* \"#utility.yul\":567:579   */\n      revert\n        /* \"#utility.yul\":526:581   */\n    tag_451:\n        /* \"#utility.yul\":642:644   */\n      dup2\n        /* \"#utility.yul\":635:639   */\n      0x20\n        /* \"#utility.yul\":627:633   */\n      dup6\n        /* \"#utility.yul\":623:640   */\n      add\n        /* \"#utility.yul\":616:620   */\n      0x20\n        /* \"#utility.yul\":607:614   */\n      dup4\n        /* \"#utility.yul\":603:621   */\n      add\n        /* \"#utility.yul\":590:645   */\n      calldatacopy\n        /* \"#utility.yul\":690:691   */\n      0x00\n        /* \"#utility.yul\":665:681   */\n      swap2\n      dup2\n      add\n        /* \"#utility.yul\":683:687   */\n      0x20\n        /* \"#utility.yul\":661:688   */\n      add\n        /* \"#utility.yul\":654:692   */\n      swap2\n      swap1\n      swap2\n      mstore\n        /* \"#utility.yul\":669:676   */\n      swap4\n        /* \"#utility.yul\":192:723   */\n      swap3\n      pop\n      pop\n      pop\n      jump\t// out\n        /* \"#utility.yul\":728:914   */\n    tag_127:\n        /* \"#utility.yul\":787:793   */\n      0x00\n        /* \"#utility.yul\":840:842   */\n      0x20\n        /* \"#utility.yul\":828:837   */\n      dup3\n        /* \"#utility.yul\":819:826   */\n      dup5\n        /* \"#utility.yul\":815:838   */\n      sub\n        /* \"#utility.yul\":811:843   */\n      slt\n        /* \"#utility.yul\":808:860   */\n      iszero\n      tag_453\n      jumpi\n        /* \"#utility.yul\":856:857   */\n      0x00\n        /* \"#utility.yul\":853:854   */\n      dup1\n        /* \"#utility.yul\":846:858   */\n      revert\n        /* \"#utility.yul\":808:860   */\n    tag_453:\n        /* \"#utility.yul\":879:908   */\n      tag_454\n        /* \"#utility.yul\":898:907   */\n      dup3\n        /* \"#utility.yul\":879:908   */\n      tag_440\n      jump\t// in\n    tag_454:\n        /* \"#utility.yul\":869:908   */\n      swap4\n        /* \"#utility.yul\":728:914   */\n      swap3\n      pop\n      pop\n      pop\n      jump\t// out\n        /* \"#utility.yul\":919:1383   */\n    tag_45:\n        /* \"#utility.yul\":1006:1012   */\n      0x00\n        /* \"#utility.yul\":1014:1020   */\n      dup1\n        /* \"#utility.yul\":1022:1028   */\n      0x00\n        /* \"#utility.yul\":1075:1077   */\n      0x60\n        /* \"#utility.yul\":1063:1072   */\n      dup5\n        /* \"#utility.yul\":1054:1061   */\n      dup7\n        /* \"#utility.yul\":1050:1073   */\n      sub\n        /* \"#utility.yul\":1046:1078   */\n      slt\n        /* \"#utility.yul\":1043:1095   */\n      iszero\n      tag_456\n      jumpi\n        /* \"#utility.yul\":1091:1092   */\n      0x00\n        /* \"#utility.yul\":1088:1089   */\n      dup1\n        /* \"#utility.yul\":1081:1093   */\n      revert\n        /* \"#utility.yul\":1043:1095   */\n    tag_456:\n        /* \"#utility.yul\":1114:1143   */\n      tag_457\n        /* \"#utility.yul\":1133:1142   */\n      dup5\n        /* \"#utility.yul\":1114:1143   */\n      tag_440\n      jump\t// in\n    tag_457:\n        /* \"#utility.yul\":1104:1143   */\n      swap3\n      pop\n        /* \"#utility.yul\":1194:1196   */\n      0x20\n        /* \"#utility.yul\":1179:1197   */\n      dup5\n      add\n        /* \"#utility.yul\":1166:1198   */\n      calldataload\n      sub(shl(0x40, 0x01), 0x01)\n        /* \"#utility.yul\":1210:1240   */\n      dup2\n      gt\n        /* \"#utility.yul\":1207:1257   */\n      iszero\n      tag_458\n      jumpi\n        /* \"#utility.yul\":1253:1254   */\n      0x00\n        /* \"#utility.yul\":1250:1251   */\n      dup1\n        /* \"#utility.yul\":1243:1255   */\n      revert\n        /* \"#utility.yul\":1207:1257   */\n    tag_458:\n        /* \"#utility.yul\":1276:1326   */\n      tag_459\n        /* \"#utility.yul\":1318:1325   */\n      dup7\n        /* \"#utility.yul\":1309:1315   */\n      dup3\n        /* \"#utility.yul\":1298:1307   */\n      dup8\n        /* \"#utility.yul\":1294:1316   */\n      add\n        /* \"#utility.yul\":1276:1326   */\n      tag_443\n      jump\t// in\n    tag_459:\n        /* \"#utility.yul\":1266:1326   */\n      swap3\n      pop\n      pop\n        /* \"#utility.yul\":1373:1375   */\n      0x40\n        /* \"#utility.yul\":1362:1371   */\n      dup5\n        /* \"#utility.yul\":1358:1376   */\n      add\n        /* \"#utility.yul\":1345:1377   */\n      calldataload\n        /* \"#utility.yul\":1335:1377   */\n      swap1\n      pop\n        /* \"#utility.yul\":919:1383   */\n      swap3\n      pop\n      swap3\n      pop\n      swap3\n      jump\t// out\n        /* \"#utility.yul\":1388:1710   */\n    tag_34:\n        /* \"#utility.yul\":1457:1463   */\n      0x00\n        /* \"#utility.yul\":1510:1512   */\n      0x20\n        /* \"#utility.yul\":1498:1507   */\n      dup3\n        /* \"#utility.yul\":1489:1496   */\n      dup5\n        /* \"#utility.yul\":1485:1508   */\n      sub\n        /* \"#utility.yul\":1481:1513   */\n      slt\n        /* \"#utility.yul\":1478:1530   */\n      iszero\n      tag_461\n      jumpi\n        /* \"#utility.yul\":1526:1527   */\n      0x00\n        /* \"#utility.yul\":1523:1524   */\n      dup1\n        /* \"#utility.yul\":1516:1528   */\n      revert\n        /* \"#utility.yul\":1478:1530   */\n    tag_461:\n        /* \"#utility.yul\":1553:1576   */\n      dup2\n      calldataload\n      sub(shl(0x40, 0x01), 0x01)\n        /* \"#utility.yul\":1588:1618   */\n      dup2\n      gt\n        /* \"#utility.yul\":1585:1635   */\n      iszero\n      tag_462\n      jumpi\n        /* \"#utility.yul\":1631:1632   */\n      0x00\n        /* \"#utility.yul\":1628:1629   */\n      dup1\n        /* \"#utility.yul\":1621:1633   */\n      revert\n        /* \"#utility.yul\":1585:1635   */\n    tag_462:\n        /* \"#utility.yul\":1654:1704   */\n      tag_353\n        /* \"#utility.yul\":1696:1703   */\n      dup5\n        /* \"#utility.yul\":1687:1693   */\n      dup3\n        /* \"#utility.yul\":1676:1685   */\n      dup6\n        /* \"#utility.yul\":1672:1694   */\n      add\n        /* \"#utility.yul\":1654:1704   */\n      tag_443\n      jump\t// in\n        /* \"#utility.yul\":1715:3050   */\n    tag_64:\n        /* \"#utility.yul\":1828:1834   */\n      0x00\n        /* \"#utility.yul\":1836:1842   */\n      dup1\n        /* \"#utility.yul\":1889:1891   */\n      0x40\n        /* \"#utility.yul\":1877:1886   */\n      dup4\n        /* \"#utility.yul\":1868:1875   */\n      dup6\n        /* \"#utility.yul\":1864:1887   */\n      sub\n        /* \"#utility.yul\":1860:1892   */\n      slt\n        /* \"#utility.yul\":1857:1909   */\n      iszero\n      tag_465\n      jumpi\n        /* \"#utility.yul\":1905:1906   */\n      0x00\n        /* \"#utility.yul\":1902:1903   */\n      dup1\n        /* \"#utility.yul\":1895:1907   */\n      revert\n        /* \"#utility.yul\":1857:1909   */\n    tag_465:\n        /* \"#utility.yul\":1932:1955   */\n      dup3\n      calldataload\n      sub(shl(0x40, 0x01), 0x01)\n        /* \"#utility.yul\":2004:2018   */\n      dup1\n      dup3\n      gt\n        /* \"#utility.yul\":2001:2035   */\n      iszero\n      tag_466\n      jumpi\n        /* \"#utility.yul\":2031:2032   */\n      0x00\n        /* \"#utility.yul\":2028:2029   */\n      dup1\n        /* \"#utility.yul\":2021:2033   */\n      revert\n        /* \"#utility.yul\":2001:2035   */\n    tag_466:\n        /* \"#utility.yul\":2054:2104   */\n      tag_467\n        /* \"#utility.yul\":2096:2103   */\n      dup7\n        /* \"#utility.yul\":2087:2093   */\n      dup4\n        /* \"#utility.yul\":2076:2085   */\n      dup8\n        /* \"#utility.yul\":2072:2094   */\n      add\n        /* \"#utility.yul\":2054:2104   */\n      tag_443\n      jump\t// in\n    tag_467:\n        /* \"#utility.yul\":2044:2104   */\n      swap4\n      pop\n        /* \"#utility.yul\":2123:2125   */\n      0x20\n        /* \"#utility.yul\":2113:2125   */\n      swap2\n      pop\n        /* \"#utility.yul\":2178:2180   */\n      dup2\n        /* \"#utility.yul\":2167:2176   */\n      dup6\n        /* \"#utility.yul\":2163:2181   */\n      add\n        /* \"#utility.yul\":2150:2182   */\n      calldataload\n        /* \"#utility.yul\":2207:2209   */\n      dup2\n        /* \"#utility.yul\":2197:2205   */\n      dup2\n        /* \"#utility.yul\":2194:2210   */\n      gt\n        /* \"#utility.yul\":2191:2227   */\n      iszero\n      tag_468\n      jumpi\n        /* \"#utility.yul\":2223:2224   */\n      0x00\n        /* \"#utility.yul\":2220:2221   */\n      dup1\n        /* \"#utility.yul\":2213:2225   */\n      revert\n        /* \"#utility.yul\":2191:2227   */\n    tag_468:\n        /* \"#utility.yul\":2246:2270   */\n      dup6\n      add\n        /* \"#utility.yul\":2301:2305   */\n      0x1f\n        /* \"#utility.yul\":2293:2306   */\n      dup2\n      add\n        /* \"#utility.yul\":2289:2316   */\n      dup8\n      sgt\n        /* \"#utility.yul\":2279:2334   */\n      tag_469\n      jumpi\n        /* \"#utility.yul\":2330:2331   */\n      0x00\n        /* \"#utility.yul\":2327:2328   */\n      dup1\n        /* \"#utility.yul\":2320:2332   */\n      revert\n        /* \"#utility.yul\":2279:2334   */\n    tag_469:\n        /* \"#utility.yul\":2366:2368   */\n      dup1\n        /* \"#utility.yul\":2353:2369   */\n      calldataload\n        /* \"#utility.yul\":2388:2390   */\n      dup3\n        /* \"#utility.yul\":2384:2386   */\n      dup2\n        /* \"#utility.yul\":2381:2391   */\n      gt\n        /* \"#utility.yul\":2378:2414   */\n      iszero\n      tag_471\n      jumpi\n        /* \"#utility.yul\":2394:2412   */\n      tag_471\n      tag_448\n      jump\t// in\n    tag_471:\n        /* \"#utility.yul\":2440:2442   */\n      dup1\n        /* \"#utility.yul\":2437:2438   */\n      0x05\n        /* \"#utility.yul\":2433:2443   */\n      shl\n        /* \"#utility.yul\":2463:2491   */\n      tag_472\n        /* \"#utility.yul\":2487:2489   */\n      dup6\n        /* \"#utility.yul\":2483:2485   */\n      dup3\n        /* \"#utility.yul\":2479:2490   */\n      add\n        /* \"#utility.yul\":2463:2491   */\n      tag_450\n      jump\t// in\n    tag_472:\n        /* \"#utility.yul\":2525:2540   */\n      dup3\n      dup2\n      mstore\n        /* \"#utility.yul\":2556:2568   */\n      dup6\n      dup2\n      add\n      swap1\n        /* \"#utility.yul\":2588:2599   */\n      dup5\n      dup8\n      add\n        /* \"#utility.yul\":2618:2629   */\n      dup4\n      dup7\n      add\n        /* \"#utility.yul\":2614:2634   */\n      dup9\n      add\n        /* \"#utility.yul\":2611:2644   */\n      dup13\n      lt\n        /* \"#utility.yul\":2608:2661   */\n      iszero\n      tag_473\n      jumpi\n        /* \"#utility.yul\":2657:2658   */\n      0x00\n        /* \"#utility.yul\":2654:2655   */\n      dup1\n        /* \"#utility.yul\":2647:2659   */\n      revert\n        /* \"#utility.yul\":2608:2661   */\n    tag_473:\n        /* \"#utility.yul\":2679:2680   */\n      0x00\n        /* \"#utility.yul\":2670:2680   */\n      swap4\n      pop\n        /* \"#utility.yul\":2700:2701   */\n      dup4\n        /* \"#utility.yul\":2710:3020   */\n    tag_474:\n        /* \"#utility.yul\":2726:2728   */\n      dup6\n        /* \"#utility.yul\":2721:2724   */\n      dup2\n        /* \"#utility.yul\":2718:2729   */\n      lt\n        /* \"#utility.yul\":2710:3020   */\n      iszero\n      tag_476\n      jumpi\n        /* \"#utility.yul\":2807:2810   */\n      dup2\n        /* \"#utility.yul\":2794:2811   */\n      calldataload\n        /* \"#utility.yul\":2843:2845   */\n      dup9\n        /* \"#utility.yul\":2830:2841   */\n      dup2\n        /* \"#utility.yul\":2827:2846   */\n      gt\n        /* \"#utility.yul\":2824:2863   */\n      iszero\n      tag_477\n      jumpi\n        /* \"#utility.yul\":2859:2860   */\n      dup6\n        /* \"#utility.yul\":2856:2857   */\n      dup7\n        /* \"#utility.yul\":2849:2861   */\n      revert\n        /* \"#utility.yul\":2824:2863   */\n    tag_477:\n        /* \"#utility.yul\":2888:2945   */\n      tag_478\n        /* \"#utility.yul\":2937:2944   */\n      dup15\n        /* \"#utility.yul\":2932:2934   */\n      dup12\n        /* \"#utility.yul\":2918:2929   */\n      dup4\n        /* \"#utility.yul\":2914:2916   */\n      dup12\n        /* \"#utility.yul\":2910:2930   */\n      add\n        /* \"#utility.yul\":2906:2935   */\n      add\n        /* \"#utility.yul\":2888:2945   */\n      tag_443\n      jump\t// in\n    tag_478:\n        /* \"#utility.yul\":2876:2946   */\n      dup6\n      mstore\n      pop\n        /* \"#utility.yul\":2966:2978   */\n      swap3\n      dup9\n      add\n      swap3\n        /* \"#utility.yul\":2998:3010   */\n      swap1\n      dup9\n      add\n      swap1\n        /* \"#utility.yul\":2748:2749   */\n      0x01\n        /* \"#utility.yul\":2739:2750   */\n      add\n        /* \"#utility.yul\":2710:3020   */\n      jump(tag_474)\n    tag_476:\n      pop\n        /* \"#utility.yul\":1715:3050   */\n      swap9\n      swap12\n        /* \"#utility.yul\":3039:3044   */\n      swap1\n      swap11\n      pop\n        /* \"#utility.yul\":1715:3050   */\n      swap9\n      pop\n      pop\n      pop\n      pop\n      pop\n      pop\n      pop\n      pop\n      pop\n      jump\t// out\n        /* \"#utility.yul\":3055:3445   */\n    tag_109:\n        /* \"#utility.yul\":3133:3139   */\n      0x00\n        /* \"#utility.yul\":3141:3147   */\n      dup1\n        /* \"#utility.yul\":3194:3196   */\n      0x40\n        /* \"#utility.yul\":3182:3191   */\n      dup4\n        /* \"#utility.yul\":3173:3180   */\n      dup6\n        /* \"#utility.yul\":3169:3192   */\n      sub\n        /* \"#utility.yul\":3165:3197   */\n      slt\n        /* \"#utility.yul\":3162:3214   */\n      iszero\n      tag_480\n      jumpi\n        /* \"#utility.yul\":3210:3211   */\n      0x00\n        /* \"#utility.yul\":3207:3208   */\n      dup1\n        /* \"#utility.yul\":3200:3212   */\n      revert\n        /* \"#utility.yul\":3162:3214   */\n    tag_480:\n        /* \"#utility.yul\":3237:3260   */\n      dup3\n      calldataload\n      sub(shl(0x40, 0x01), 0x01)\n        /* \"#utility.yul\":3272:3302   */\n      dup2\n      gt\n        /* \"#utility.yul\":3269:3319   */\n      iszero\n      tag_481\n      jumpi\n        /* \"#utility.yul\":3315:3316   */\n      0x00\n        /* \"#utility.yul\":3312:3313   */\n      dup1\n        /* \"#utility.yul\":3305:3317   */\n      revert\n        /* \"#utility.yul\":3269:3319   */\n    tag_481:\n        /* \"#utility.yul\":3338:3388   */\n      tag_482\n        /* \"#utility.yul\":3380:3387   */\n      dup6\n        /* \"#utility.yul\":3371:3377   */\n      dup3\n        /* \"#utility.yul\":3360:3369   */\n      dup7\n        /* \"#utility.yul\":3356:3378   */\n      add\n        /* \"#utility.yul\":3338:3388   */\n      tag_443\n      jump\t// in\n    tag_482:\n        /* \"#utility.yul\":3328:3388   */\n      swap6\n        /* \"#utility.yul\":3435:3437   */\n      0x20\n        /* \"#utility.yul\":3420:3438   */\n      swap5\n      swap1\n      swap5\n      add\n        /* \"#utility.yul\":3407:3439   */\n      calldataload\n      swap5\n      pop\n      pop\n      pop\n      pop\n        /* \"#utility.yul\":3055:3445   */\n      jump\t// out\n        /* \"#utility.yul\":3450:4061   */\n    tag_160:\n        /* \"#utility.yul\":3547:3553   */\n      0x00\n        /* \"#utility.yul\":3555:3561   */\n      dup1\n        /* \"#utility.yul\":3563:3569   */\n      0x00\n        /* \"#utility.yul\":3616:3618   */\n      0x60\n        /* \"#utility.yul\":3604:3613   */\n      dup5\n        /* \"#utility.yul\":3595:3602   */\n      dup7\n        /* \"#utility.yul\":3591:3614   */\n      sub\n        /* \"#utility.yul\":3587:3619   */\n      slt\n        /* \"#utility.yul\":3584:3636   */\n      iszero\n      tag_484\n      jumpi\n        /* \"#utility.yul\":3632:3633   */\n      0x00\n        /* \"#utility.yul\":3629:3630   */\n      dup1\n        /* \"#utility.yul\":3622:3634   */\n      revert\n        /* \"#utility.yul\":3584:3636   */\n    tag_484:\n        /* \"#utility.yul\":3659:3682   */\n      dup4\n      calldataload\n      sub(shl(0x40, 0x01), 0x01)\n        /* \"#utility.yul\":3731:3745   */\n      dup1\n      dup3\n      gt\n        /* \"#utility.yul\":3728:3762   */\n      iszero\n      tag_485\n      jumpi\n        /* \"#utility.yul\":3758:3759   */\n      0x00\n        /* \"#utility.yul\":3755:3756   */\n      dup1\n        /* \"#utility.yul\":3748:3760   */\n      revert\n        /* \"#utility.yul\":3728:3762   */\n    tag_485:\n        /* \"#utility.yul\":3781:3831   */\n      tag_486\n        /* \"#utility.yul\":3823:3830   */\n      dup8\n        /* \"#utility.yul\":3814:3820   */\n      dup4\n        /* \"#utility.yul\":3803:3812   */\n      dup9\n        /* \"#utility.yul\":3799:3821   */\n      add\n        /* \"#utility.yul\":3781:3831   */\n      tag_443\n      jump\t// in\n    tag_486:\n        /* \"#utility.yul\":3771:3831   */\n      swap5\n      pop\n        /* \"#utility.yul\":3884:3886   */\n      0x20\n        /* \"#utility.yul\":3873:3882   */\n      dup7\n        /* \"#utility.yul\":3869:3887   */\n      add\n        /* \"#utility.yul\":3856:3888   */\n      calldataload\n        /* \"#utility.yul\":3840:3888   */\n      swap2\n      pop\n        /* \"#utility.yul\":3913:3915   */\n      dup1\n        /* \"#utility.yul\":3903:3911   */\n      dup3\n        /* \"#utility.yul\":3900:3916   */\n      gt\n        /* \"#utility.yul\":3897:3933   */\n      iszero\n      tag_487\n      jumpi\n        /* \"#utility.yul\":3929:3930   */\n      0x00\n        /* \"#utility.yul\":3926:3927   */\n      dup1\n        /* \"#utility.yul\":3919:3931   */\n      revert\n        /* \"#utility.yul\":3897:3933   */\n    tag_487:\n      pop\n        /* \"#utility.yul\":3952:4004   */\n      tag_459\n        /* \"#utility.yul\":3996:4003   */\n      dup7\n        /* \"#utility.yul\":3985:3993   */\n      dup3\n        /* \"#utility.yul\":3974:3983   */\n      dup8\n        /* \"#utility.yul\":3970:3994   */\n      add\n        /* \"#utility.yul\":3952:4004   */\n      tag_443\n      jump\t// in\n        /* \"#utility.yul\":4066:4677   */\n    tag_104:\n        /* \"#utility.yul\":4163:4169   */\n      0x00\n        /* \"#utility.yul\":4171:4177   */\n      dup1\n        /* \"#utility.yul\":4179:4185   */\n      0x00\n        /* \"#utility.yul\":4232:4234   */\n      0x60\n        /* \"#utility.yul\":4220:4229   */\n      dup5\n        /* \"#utility.yul\":4211:4218   */\n      dup7\n        /* \"#utility.yul\":4207:4230   */\n      sub\n        /* \"#utility.yul\":4203:4235   */\n      slt\n        /* \"#utility.yul\":4200:4252   */\n      iszero\n      tag_490\n      jumpi\n        /* \"#utility.yul\":4248:4249   */\n      0x00\n        /* \"#utility.yul\":4245:4246   */\n      dup1\n        /* \"#utility.yul\":4238:4250   */\n      revert\n        /* \"#utility.yul\":4200:4252   */\n    tag_490:\n        /* \"#utility.yul\":4275:4298   */\n      dup4\n      calldataload\n      sub(shl(0x40, 0x01), 0x01)\n        /* \"#utility.yul\":4347:4361   */\n      dup1\n      dup3\n      gt\n        /* \"#utility.yul\":4344:4378   */\n      iszero\n      tag_491\n      jumpi\n        /* \"#utility.yul\":4374:4375   */\n      0x00\n        /* \"#utility.yul\":4371:4372   */\n      dup1\n        /* \"#utility.yul\":4364:4376   */\n      revert\n        /* \"#utility.yul\":4344:4378   */\n    tag_491:\n        /* \"#utility.yul\":4397:4447   */\n      tag_492\n        /* \"#utility.yul\":4439:4446   */\n      dup8\n        /* \"#utility.yul\":4430:4436   */\n      dup4\n        /* \"#utility.yul\":4419:4428   */\n      dup9\n        /* \"#utility.yul\":4415:4437   */\n      add\n        /* \"#utility.yul\":4397:4447   */\n      tag_443\n      jump\t// in\n    tag_492:\n        /* \"#utility.yul\":4387:4447   */\n      swap5\n      pop\n        /* \"#utility.yul\":4494:4496   */\n      0x20\n        /* \"#utility.yul\":4483:4492   */\n      dup7\n        /* \"#utility.yul\":4479:4497   */\n      add\n        /* \"#utility.yul\":4466:4498   */\n      calldataload\n        /* \"#utility.yul\":4456:4498   */\n      swap4\n      pop\n        /* \"#utility.yul\":4551:4553   */\n      0x40\n        /* \"#utility.yul\":4540:4549   */\n      dup7\n        /* \"#utility.yul\":4536:4554   */\n      add\n        /* \"#utility.yul\":4523:4555   */\n      calldataload\n        /* \"#utility.yul\":4507:4555   */\n      swap2\n      pop\n        /* \"#utility.yul\":4580:4582   */\n      dup1\n        /* \"#utility.yul\":4570:4578   */\n      dup3\n        /* \"#utility.yul\":4567:4583   */\n      gt\n        /* \"#utility.yul\":4564:4600   */\n      iszero\n      tag_493\n      jumpi\n        /* \"#utility.yul\":4596:4597   */\n      0x00\n        /* \"#utility.yul\":4593:4594   */\n      dup1\n        /* \"#utility.yul\":4586:4598   */\n      revert\n        /* \"#utility.yul\":4564:4600   */\n    tag_493:\n      pop\n        /* \"#utility.yul\":4619:4671   */\n      tag_494\n        /* \"#utility.yul\":4663:4670   */\n      dup7\n        /* \"#utility.yul\":4652:4660   */\n      dup3\n        /* \"#utility.yul\":4641:4650   */\n      dup8\n        /* \"#utility.yul\":4637:4661   */\n      add\n        /* \"#utility.yul\":4619:4671   */\n      tag_443\n      jump\t// in\n    tag_494:\n        /* \"#utility.yul\":4609:4671   */\n      swap2\n      pop\n      pop\n        /* \"#utility.yul\":4066:4677   */\n      swap3\n      pop\n      swap3\n      pop\n      swap3\n      jump\t// out\n        /* \"#utility.yul\":4682:4862   */\n    tag_114:\n        /* \"#utility.yul\":4741:4747   */\n      0x00\n        /* \"#utility.yul\":4794:4796   */\n      0x20\n        /* \"#utility.yul\":4782:4791   */\n      dup3\n        /* \"#utility.yul\":4773:4780   */\n      dup5\n        /* \"#utility.yul\":4769:4792   */\n      sub\n        /* \"#utility.yul\":4765:4797   */\n      slt\n        /* \"#utility.yul\":4762:4814   */\n      iszero\n      tag_496\n      jumpi\n        /* \"#utility.yul\":4810:4811   */\n      0x00\n        /* \"#utility.yul\":4807:4808   */\n      dup1\n        /* \"#utility.yul\":4800:4812   */\n      revert\n        /* \"#utility.yul\":4762:4814   */\n    tag_496:\n      pop\n        /* \"#utility.yul\":4833:4856   */\n      calldataload\n      swap2\n        /* \"#utility.yul\":4682:4862   */\n      swap1\n      pop\n      jump\t// out\n        /* \"#utility.yul\":4867:5125   */\n    tag_497:\n        /* \"#utility.yul\":4909:4912   */\n      0x00\n        /* \"#utility.yul\":4947:4952   */\n      dup2\n        /* \"#utility.yul\":4941:4953   */\n      mload\n        /* \"#utility.yul\":4974:4980   */\n      dup1\n        /* \"#utility.yul\":4969:4972   */\n      dup5\n        /* \"#utility.yul\":4962:4981   */\n      mstore\n        /* \"#utility.yul\":4990:5053   */\n      tag_499\n        /* \"#utility.yul\":5046:5052   */\n      dup2\n        /* \"#utility.yul\":5039:5043   */\n      0x20\n        /* \"#utility.yul\":5034:5037   */\n      dup7\n        /* \"#utility.yul\":5030:5044   */\n      add\n        /* \"#utility.yul\":5023:5027   */\n      0x20\n        /* \"#utility.yul\":5016:5021   */\n      dup7\n        /* \"#utility.yul\":5012:5028   */\n      add\n        /* \"#utility.yul\":4990:5053   */\n      tag_500\n      jump\t// in\n    tag_499:\n        /* \"#utility.yul\":5107:5109   */\n      0x1f\n        /* \"#utility.yul\":5086:5101   */\n      add\n      not(0x1f)\n        /* \"#utility.yul\":5082:5111   */\n      and\n        /* \"#utility.yul\":5073:5112   */\n      swap3\n      swap1\n      swap3\n      add\n        /* \"#utility.yul\":5114:5118   */\n      0x20\n        /* \"#utility.yul\":5069:5119   */\n      add\n      swap3\n        /* \"#utility.yul\":4867:5125   */\n      swap2\n      pop\n      pop\n      jump\t// out\n        /* \"#utility.yul\":5130:5406   */\n    tag_185:\n        /* \"#utility.yul\":5261:5264   */\n      0x00\n        /* \"#utility.yul\":5299:5305   */\n      dup3\n        /* \"#utility.yul\":5293:5306   */\n      mload\n        /* \"#utility.yul\":5315:5368   */\n      tag_502\n        /* \"#utility.yul\":5361:5367   */\n      dup2\n        /* \"#utility.yul\":5356:5359   */\n      dup5\n        /* \"#utility.yul\":5349:5353   */\n      0x20\n        /* \"#utility.yul\":5341:5347   */\n      dup8\n        /* \"#utility.yul\":5337:5354   */\n      add\n        /* \"#utility.yul\":5315:5368   */\n      tag_500\n      jump\t// in\n    tag_502:\n        /* \"#utility.yul\":5384:5400   */\n      swap2\n      swap1\n      swap2\n      add\n      swap3\n        /* \"#utility.yul\":5130:5406   */\n      swap2\n      pop\n      pop\n      jump\t// out\n        /* \"#utility.yul\":5411:6510   */\n    tag_341:\n        /* \"#utility.yul\":5539:5542   */\n      0x00\n        /* \"#utility.yul\":5568:5569   */\n      dup1\n        /* \"#utility.yul\":5601:5607   */\n      dup4\n        /* \"#utility.yul\":5595:5608   */\n      sload\n        /* \"#utility.yul\":5631:5634   */\n      dup2\n        /* \"#utility.yul\":5653:5654   */\n      0x01\n        /* \"#utility.yul\":5681:5690   */\n      dup3\n        /* \"#utility.yul\":5677:5679   */\n      dup2\n        /* \"#utility.yul\":5673:5691   */\n      shr\n        /* \"#utility.yul\":5663:5691   */\n      swap2\n      pop\n        /* \"#utility.yul\":5741:5743   */\n      dup1\n        /* \"#utility.yul\":5730:5739   */\n      dup4\n        /* \"#utility.yul\":5726:5744   */\n      and\n        /* \"#utility.yul\":5763:5781   */\n      dup1\n        /* \"#utility.yul\":5753:5814   */\n      tag_504\n      jumpi\n        /* \"#utility.yul\":5807:5811   */\n      0x7f\n        /* \"#utility.yul\":5799:5805   */\n      dup4\n        /* \"#utility.yul\":5795:5812   */\n      and\n        /* \"#utility.yul\":5785:5812   */\n      swap3\n      pop\n        /* \"#utility.yul\":5753:5814   */\n    tag_504:\n        /* \"#utility.yul\":5833:5835   */\n      0x20\n        /* \"#utility.yul\":5881:5883   */\n      dup1\n        /* \"#utility.yul\":5873:5879   */\n      dup5\n        /* \"#utility.yul\":5870:5884   */\n      lt\n        /* \"#utility.yul\":5850:5868   */\n      dup3\n        /* \"#utility.yul\":5847:5885   */\n      eq\n        /* \"#utility.yul\":5844:6009   */\n      iszero\n      tag_505\n      jumpi\n      shl(0xe0, 0x4e487b71)\n        /* \"#utility.yul\":5908:5941   */\n      dup7\n      mstore\n        /* \"#utility.yul\":5964:5968   */\n      0x22\n        /* \"#utility.yul\":5961:5962   */\n      0x04\n        /* \"#utility.yul\":5954:5969   */\n      mstore\n        /* \"#utility.yul\":5994:5998   */\n      0x24\n        /* \"#utility.yul\":5915:5918   */\n      dup7\n        /* \"#utility.yul\":5982:5999   */\n      revert\n        /* \"#utility.yul\":5844:6009   */\n    tag_505:\n        /* \"#utility.yul\":6025:6043   */\n      dup2\n        /* \"#utility.yul\":6052:6156   */\n      dup1\n      iszero\n      tag_507\n      jumpi\n        /* \"#utility.yul\":6170:6171   */\n      0x01\n        /* \"#utility.yul\":6165:6485   */\n      dup2\n      eq\n      tag_508\n      jumpi\n        /* \"#utility.yul\":6018:6485   */\n      jump(tag_506)\n        /* \"#utility.yul\":6052:6156   */\n    tag_507:\n      not(0xff)\n        /* \"#utility.yul\":6085:6109   */\n      dup7\n      and\n        /* \"#utility.yul\":6073:6110   */\n      dup10\n      mstore\n        /* \"#utility.yul\":6130:6146   */\n      dup5\n      dup10\n      add\n      swap7\n      pop\n        /* \"#utility.yul\":6052:6156   */\n      jump(tag_506)\n        /* \"#utility.yul\":6165:6485   */\n    tag_508:\n        /* \"#utility.yul\":13639:13640   */\n      0x00\n        /* \"#utility.yul\":13632:13646   */\n      dup11\n      dup2\n      mstore\n        /* \"#utility.yul\":13676:13680   */\n      0x20\n        /* \"#utility.yul\":13663:13681   */\n      swap1\n      keccak256\n        /* \"#utility.yul\":6260:6261   */\n      0x00\n        /* \"#utility.yul\":6274:6439   */\n    tag_511:\n        /* \"#utility.yul\":6288:6294   */\n      dup7\n        /* \"#utility.yul\":6285:6286   */\n      dup2\n        /* \"#utility.yul\":6282:6295   */\n      lt\n        /* \"#utility.yul\":6274:6439   */\n      iszero\n      tag_513\n      jumpi\n        /* \"#utility.yul\":6366:6380   */\n      dup2\n      sload\n        /* \"#utility.yul\":6353:6364   */\n      dup12\n      dup3\n      add\n        /* \"#utility.yul\":6346:6381   */\n      mstore\n        /* \"#utility.yul\":6409:6425   */\n      swap1\n      dup6\n      add\n      swap1\n        /* \"#utility.yul\":6303:6313   */\n      dup4\n      add\n        /* \"#utility.yul\":6274:6439   */\n      jump(tag_511)\n    tag_513:\n        /* \"#utility.yul\":6278:6281   */\n      pop\n      pop\n        /* \"#utility.yul\":6468:6474   */\n      dup5\n        /* \"#utility.yul\":6463:6466   */\n      dup10\n        /* \"#utility.yul\":6459:6475   */\n      add\n        /* \"#utility.yul\":6452:6475   */\n      swap7\n      pop\n        /* \"#utility.yul\":6018:6485   */\n    tag_506:\n      pop\n        /* \"#utility.yul\":6501:6504   */\n      swap5\n      swap9\n        /* \"#utility.yul\":5411:6510   */\n      swap8\n      pop\n      pop\n      pop\n      pop\n      pop\n      pop\n      pop\n      pop\n      jump\t// out\n        /* \"#utility.yul\":6723:7121   */\n    tag_117:\n      sub(shl(0xa0, 0x01), 0x01)\n        /* \"#utility.yul\":6922:6954   */\n      dup5\n      and\n        /* \"#utility.yul\":6904:6955   */\n      dup2\n      mstore\n        /* \"#utility.yul\":6991:6993   */\n      0x60\n        /* \"#utility.yul\":6986:6988   */\n      0x20\n        /* \"#utility.yul\":6971:6989   */\n      dup3\n      add\n        /* \"#utility.yul\":6964:6994   */\n      dup2\n      swap1\n      mstore\n      0x00\n      swap1\n        /* \"#utility.yul\":7011:7056   */\n      tag_516\n      swap1\n        /* \"#utility.yul\":7037:7055   */\n      dup4\n      add\n        /* \"#utility.yul\":7029:7035   */\n      dup6\n        /* \"#utility.yul\":7011:7056   */\n      tag_497\n      jump\t// in\n    tag_516:\n        /* \"#utility.yul\":7003:7056   */\n      swap1\n      pop\n        /* \"#utility.yul\":7106:7112   */\n      dup3\n        /* \"#utility.yul\":7099:7113   */\n      iszero\n        /* \"#utility.yul\":7092:7114   */\n      iszero\n        /* \"#utility.yul\":7087:7089   */\n      0x40\n        /* \"#utility.yul\":7076:7085   */\n      dup4\n        /* \"#utility.yul\":7072:7090   */\n      add\n        /* \"#utility.yul\":7065:7115   */\n      mstore\n        /* \"#utility.yul\":6723:7121   */\n      swap5\n      swap4\n      pop\n      pop\n      pop\n      pop\n      jump\t// out\n        /* \"#utility.yul\":7126:7597   */\n    tag_177:\n      sub(shl(0xa0, 0x01), 0x01)\n        /* \"#utility.yul\":7353:7385   */\n      dup6\n      and\n        /* \"#utility.yul\":7335:7386   */\n      dup2\n      mstore\n        /* \"#utility.yul\":7422:7425   */\n      0x80\n        /* \"#utility.yul\":7417:7419   */\n      0x20\n        /* \"#utility.yul\":7402:7420   */\n      dup3\n      add\n        /* \"#utility.yul\":7395:7426   */\n      dup2\n      swap1\n      mstore\n      0x00\n      swap1\n        /* \"#utility.yul\":7443:7489   */\n      tag_518\n      swap1\n        /* \"#utility.yul\":7469:7488   */\n      dup4\n      add\n        /* \"#utility.yul\":7461:7467   */\n      dup7\n        /* \"#utility.yul\":7443:7489   */\n      tag_497\n      jump\t// in\n    tag_518:\n        /* \"#utility.yul\":7520:7522   */\n      0x40\n        /* \"#utility.yul\":7505:7523   */\n      dup4\n      add\n        /* \"#utility.yul\":7498:7532   */\n      swap5\n      swap1\n      swap5\n      mstore\n      pop\n        /* \"#utility.yul\":7575:7589   */\n      swap1\n      iszero\n        /* \"#utility.yul\":7568:7590   */\n      iszero\n        /* \"#utility.yul\":7563:7565   */\n      0x60\n        /* \"#utility.yul\":7548:7566   */\n      swap1\n      swap2\n      add\n        /* \"#utility.yul\":7541:7591   */\n      mstore\n        /* \"#utility.yul\":7435:7489   */\n      swap3\n        /* \"#utility.yul\":7126:7597   */\n      swap2\n      pop\n      pop\n      jump\t// out\n        /* \"#utility.yul\":7602:8063   */\n    tag_171:\n      sub(shl(0xa0, 0x01), 0x01)\n        /* \"#utility.yul\":7835:7867   */\n      dup6\n      and\n        /* \"#utility.yul\":7817:7868   */\n      dup2\n      mstore\n        /* \"#utility.yul\":7904:7907   */\n      0x80\n        /* \"#utility.yul\":7899:7901   */\n      0x20\n        /* \"#utility.yul\":7884:7902   */\n      dup3\n      add\n        /* \"#utility.yul\":7877:7908   */\n      dup2\n      swap1\n      mstore\n      0x00\n      swap1\n        /* \"#utility.yul\":7925:7971   */\n      tag_520\n      swap1\n        /* \"#utility.yul\":7951:7970   */\n      dup4\n      add\n        /* \"#utility.yul\":7943:7949   */\n      dup7\n        /* \"#utility.yul\":7925:7971   */\n      tag_497\n      jump\t// in\n    tag_520:\n        /* \"#utility.yul\":8002:8004   */\n      0x40\n        /* \"#utility.yul\":7987:8005   */\n      dup4\n      add\n        /* \"#utility.yul\":7980:8014   */\n      swap5\n      swap1\n      swap5\n      mstore\n      pop\n        /* \"#utility.yul\":8045:8047   */\n      0x60\n        /* \"#utility.yul\":8030:8048   */\n      add\n        /* \"#utility.yul\":8023:8057   */\n      mstore\n        /* \"#utility.yul\":7917:7971   */\n      swap3\n        /* \"#utility.yul\":7602:8063   */\n      swap2\n      pop\n      pop\n      jump\t// out\n        /* \"#utility.yul\":8068:8871   */\n    tag_60:\n        /* \"#utility.yul\":8230:8234   */\n      0x00\n        /* \"#utility.yul\":8259:8261   */\n      0x20\n        /* \"#utility.yul\":8299:8301   */\n      dup1\n        /* \"#utility.yul\":8288:8297   */\n      dup4\n        /* \"#utility.yul\":8284:8302   */\n      add\n        /* \"#utility.yul\":8329:8331   */\n      dup2\n        /* \"#utility.yul\":8318:8327   */\n      dup5\n        /* \"#utility.yul\":8311:8332   */\n      mstore\n        /* \"#utility.yul\":8352:8358   */\n      dup1\n        /* \"#utility.yul\":8387:8393   */\n      dup6\n        /* \"#utility.yul\":8381:8394   */\n      mload\n        /* \"#utility.yul\":8418:8424   */\n      dup1\n        /* \"#utility.yul\":8410:8416   */\n      dup4\n        /* \"#utility.yul\":8403:8425   */\n      mstore\n        /* \"#utility.yul\":8456:8458   */\n      0x40\n        /* \"#utility.yul\":8445:8454   */\n      dup7\n        /* \"#utility.yul\":8441:8459   */\n      add\n        /* \"#utility.yul\":8434:8459   */\n      swap2\n      pop\n        /* \"#utility.yul\":8518:8520   */\n      0x40\n        /* \"#utility.yul\":8508:8514   */\n      dup2\n        /* \"#utility.yul\":8505:8506   */\n      0x05\n        /* \"#utility.yul\":8501:8515   */\n      shl\n        /* \"#utility.yul\":8490:8499   */\n      dup8\n        /* \"#utility.yul\":8486:8516   */\n      add\n        /* \"#utility.yul\":8482:8521   */\n      add\n        /* \"#utility.yul\":8468:8521   */\n      swap3\n      pop\n        /* \"#utility.yul\":8556:8558   */\n      dup4\n        /* \"#utility.yul\":8548:8554   */\n      dup8\n        /* \"#utility.yul\":8544:8559   */\n      add\n        /* \"#utility.yul\":8577:8578   */\n      0x00\n        /* \"#utility.yul\":8587:8842   */\n    tag_522:\n        /* \"#utility.yul\":8601:8607   */\n      dup3\n        /* \"#utility.yul\":8598:8599   */\n      dup2\n        /* \"#utility.yul\":8595:8608   */\n      lt\n        /* \"#utility.yul\":8587:8842   */\n      iszero\n      tag_524\n      jumpi\n        /* \"#utility.yul\":8694:8696   */\n      0x3f\n        /* \"#utility.yul\":8690:8697   */\n      not\n        /* \"#utility.yul\":8678:8687   */\n      dup9\n        /* \"#utility.yul\":8670:8676   */\n      dup7\n        /* \"#utility.yul\":8666:8688   */\n      sub\n        /* \"#utility.yul\":8662:8698   */\n      add\n        /* \"#utility.yul\":8657:8660   */\n      dup5\n        /* \"#utility.yul\":8650:8699   */\n      mstore\n        /* \"#utility.yul\":8722:8762   */\n      tag_525\n        /* \"#utility.yul\":8755:8761   */\n      dup6\n        /* \"#utility.yul\":8746:8752   */\n      dup4\n        /* \"#utility.yul\":8740:8753   */\n      mload\n        /* \"#utility.yul\":8722:8762   */\n      tag_497\n      jump\t// in\n    tag_525:\n        /* \"#utility.yul\":8712:8762   */\n      swap5\n      pop\n        /* \"#utility.yul\":8820:8832   */\n      swap3\n      dup6\n      add\n      swap3\n        /* \"#utility.yul\":8785:8800   */\n      swap1\n      dup6\n      add\n      swap1\n        /* \"#utility.yul\":8623:8624   */\n      0x01\n        /* \"#utility.yul\":8616:8625   */\n      add\n        /* \"#utility.yul\":8587:8842   */\n      jump(tag_522)\n    tag_524:\n      pop\n        /* \"#utility.yul\":8859:8865   */\n      swap3\n      swap8\n        /* \"#utility.yul\":8068:8871   */\n      swap7\n      pop\n      pop\n      pop\n      pop\n      pop\n      pop\n      pop\n      jump\t// out\n        /* \"#utility.yul\":9250:9470   */\n    tag_81:\n        /* \"#utility.yul\":9399:9401   */\n      0x20\n        /* \"#utility.yul\":9388:9397   */\n      dup2\n        /* \"#utility.yul\":9381:9402   */\n      mstore\n        /* \"#utility.yul\":9362:9366   */\n      0x00\n        /* \"#utility.yul\":9419:9464   */\n      tag_454\n        /* \"#utility.yul\":9460:9462   */\n      0x20\n        /* \"#utility.yul\":9449:9458   */\n      dup4\n        /* \"#utility.yul\":9445:9463   */\n      add\n        /* \"#utility.yul\":9437:9443   */\n      dup5\n        /* \"#utility.yul\":9419:9464   */\n      tag_497\n      jump\t// in\n        /* \"#utility.yul\":9475:9992   */\n    tag_136:\n        /* \"#utility.yul\":9730:9733   */\n      0xa0\n        /* \"#utility.yul\":9719:9728   */\n      dup2\n        /* \"#utility.yul\":9712:9734   */\n      mstore\n        /* \"#utility.yul\":9693:9697   */\n      0x00\n        /* \"#utility.yul\":9751:9797   */\n      tag_531\n        /* \"#utility.yul\":9792:9795   */\n      0xa0\n        /* \"#utility.yul\":9781:9790   */\n      dup4\n        /* \"#utility.yul\":9777:9796   */\n      add\n        /* \"#utility.yul\":9769:9775   */\n      dup9\n        /* \"#utility.yul\":9751:9797   */\n      tag_497\n      jump\t// in\n    tag_531:\n        /* \"#utility.yul\":9743:9797   */\n      swap1\n      pop\n        /* \"#utility.yul\":9833:9839   */\n      dup6\n        /* \"#utility.yul\":9828:9830   */\n      0x20\n        /* \"#utility.yul\":9817:9826   */\n      dup4\n        /* \"#utility.yul\":9813:9831   */\n      add\n        /* \"#utility.yul\":9806:9840   */\n      mstore\n        /* \"#utility.yul\":9876:9882   */\n      dup5\n        /* \"#utility.yul\":9871:9873   */\n      0x40\n        /* \"#utility.yul\":9860:9869   */\n      dup4\n        /* \"#utility.yul\":9856:9874   */\n      add\n        /* \"#utility.yul\":9849:9883   */\n      mstore\n        /* \"#utility.yul\":9919:9925   */\n      dup4\n        /* \"#utility.yul\":9914:9916   */\n      0x60\n        /* \"#utility.yul\":9903:9912   */\n      dup4\n        /* \"#utility.yul\":9899:9917   */\n      add\n        /* \"#utility.yul\":9892:9926   */\n      mstore\n        /* \"#utility.yul\":9977:9983   */\n      dup3\n        /* \"#utility.yul\":9970:9984   */\n      iszero\n        /* \"#utility.yul\":9963:9985   */\n      iszero\n        /* \"#utility.yul\":9957:9960   */\n      0x80\n        /* \"#utility.yul\":9946:9955   */\n      dup4\n        /* \"#utility.yul\":9942:9961   */\n      add\n        /* \"#utility.yul\":9935:9986   */\n      mstore\n        /* \"#utility.yul\":9475:9992   */\n      swap7\n      swap6\n      pop\n      pop\n      pop\n      pop\n      pop\n      pop\n      jump\t// out\n        /* \"#utility.yul\":9997:10934   */\n    tag_130:\n        /* \"#utility.yul\":10339:10343   */\n      0x00\n        /* \"#utility.yul\":10368:10371   */\n      0x0100\n        /* \"#utility.yul\":10398:10400   */\n      dup1\n        /* \"#utility.yul\":10387:10396   */\n      dup4\n        /* \"#utility.yul\":10380:10401   */\n      mstore\n        /* \"#utility.yul\":10424:10469   */\n      tag_533\n        /* \"#utility.yul\":10465:10467   */\n      dup2\n        /* \"#utility.yul\":10454:10463   */\n      dup5\n        /* \"#utility.yul\":10450:10468   */\n      add\n        /* \"#utility.yul\":10442:10448   */\n      dup13\n        /* \"#utility.yul\":10424:10469   */\n      tag_497\n      jump\t// in\n    tag_533:\n        /* \"#utility.yul\":10410:10469   */\n      swap1\n      pop\n        /* \"#utility.yul\":10505:10511   */\n      dup10\n        /* \"#utility.yul\":10500:10502   */\n      0x20\n        /* \"#utility.yul\":10489:10498   */\n      dup5\n        /* \"#utility.yul\":10485:10503   */\n      add\n        /* \"#utility.yul\":10478:10512   */\n      mstore\n        /* \"#utility.yul\":10548:10554   */\n      dup9\n        /* \"#utility.yul\":10543:10545   */\n      0x40\n        /* \"#utility.yul\":10532:10541   */\n      dup5\n        /* \"#utility.yul\":10528:10546   */\n      add\n        /* \"#utility.yul\":10521:10555   */\n      mstore\n        /* \"#utility.yul\":10591:10597   */\n      dup8\n        /* \"#utility.yul\":10586:10588   */\n      0x60\n        /* \"#utility.yul\":10575:10584   */\n      dup5\n        /* \"#utility.yul\":10571:10589   */\n      add\n        /* \"#utility.yul\":10564:10598   */\n      mstore\n        /* \"#utility.yul\":10649:10655   */\n      dup7\n        /* \"#utility.yul\":10642:10656   */\n      iszero\n        /* \"#utility.yul\":10635:10657   */\n      iszero\n        /* \"#utility.yul\":10629:10632   */\n      0x80\n        /* \"#utility.yul\":10618:10627   */\n      dup5\n        /* \"#utility.yul\":10614:10633   */\n      add\n        /* \"#utility.yul\":10607:10658   */\n      mstore\n        /* \"#utility.yul\":10707:10716   */\n      dup3\n        /* \"#utility.yul\":10699:10705   */\n      dup2\n        /* \"#utility.yul\":10695:10717   */\n      sub\n        /* \"#utility.yul\":10689:10692   */\n      0xa0\n        /* \"#utility.yul\":10678:10687   */\n      dup5\n        /* \"#utility.yul\":10674:10693   */\n      add\n        /* \"#utility.yul\":10667:10718   */\n      mstore\n        /* \"#utility.yul\":10741:10774   */\n      tag_534\n        /* \"#utility.yul\":10767:10773   */\n      dup2\n        /* \"#utility.yul\":10759:10765   */\n      dup8\n        /* \"#utility.yul\":10741:10774   */\n      tag_497\n      jump\t// in\n    tag_534:\n        /* \"#utility.yul\":10727:10774   */\n      swap1\n      pop\n        /* \"#utility.yul\":10823:10832   */\n      dup3\n        /* \"#utility.yul\":10815:10821   */\n      dup2\n        /* \"#utility.yul\":10811:10833   */\n      sub\n        /* \"#utility.yul\":10805:10808   */\n      0xc0\n        /* \"#utility.yul\":10794:10803   */\n      dup5\n        /* \"#utility.yul\":10790:10809   */\n      add\n        /* \"#utility.yul\":10783:10834   */\n      mstore\n        /* \"#utility.yul\":10851:10884   */\n      tag_535\n        /* \"#utility.yul\":10877:10883   */\n      dup2\n        /* \"#utility.yul\":10869:10875   */\n      dup7\n        /* \"#utility.yul\":10851:10884   */\n      tag_497\n      jump\t// in\n    tag_535:\n        /* \"#utility.yul\":10843:10884   */\n      swap2\n      pop\n      pop\n        /* \"#utility.yul\":10921:10927   */\n      dup3\n        /* \"#utility.yul\":10915:10918   */\n      0xe0\n        /* \"#utility.yul\":10904:10913   */\n      dup4\n        /* \"#utility.yul\":10900:10919   */\n      add\n        /* \"#utility.yul\":10893:10928   */\n      mstore\n        /* \"#utility.yul\":9997:10934   */\n      swap10\n      swap9\n      pop\n      pop\n      pop\n      pop\n      pop\n      pop\n      pop\n      pop\n      pop\n      jump\t// out\n        /* \"#utility.yul\":11293:11640   */\n    tag_288:\n        /* \"#utility.yul\":11495:11497   */\n      0x20\n        /* \"#utility.yul\":11477:11498   */\n      dup1\n      dup3\n      mstore\n        /* \"#utility.yul\":11534:11536   */\n      0x17\n        /* \"#utility.yul\":11514:11532   */\n      swap1\n      dup3\n      add\n        /* \"#utility.yul\":11507:11537   */\n      mstore\n      shl(0x4a, 0x115c9c9bdc8e88125b9d985b1a59081c185cdcdddbdc99)\n        /* \"#utility.yul\":11568:11570   */\n      0x40\n        /* \"#utility.yul\":11553:11571   */\n      dup3\n      add\n        /* \"#utility.yul\":11546:11599   */\n      mstore\n        /* \"#utility.yul\":11631:11633   */\n      0x60\n        /* \"#utility.yul\":11616:11634   */\n      add\n      swap1\n        /* \"#utility.yul\":11293:11640   */\n      jump\t// out\n        /* \"#utility.yul\":11645:11994   */\n    tag_284:\n        /* \"#utility.yul\":11847:11849   */\n      0x20\n        /* \"#utility.yul\":11829:11850   */\n      dup1\n      dup3\n      mstore\n        /* \"#utility.yul\":11886:11888   */\n      0x19\n        /* \"#utility.yul\":11866:11884   */\n      swap1\n      dup3\n      add\n        /* \"#utility.yul\":11859:11889   */\n      mstore\n      shl(0x3a, 0x115c9c9bdc8e88155cd95c88191bd95cdb89dd08195e1a5cdd)\n        /* \"#utility.yul\":11920:11922   */\n      0x40\n        /* \"#utility.yul\":11905:11923   */\n      dup3\n      add\n        /* \"#utility.yul\":11898:11953   */\n      mstore\n        /* \"#utility.yul\":11985:11987   */\n      0x60\n        /* \"#utility.yul\":11970:11988   */\n      add\n      swap1\n        /* \"#utility.yul\":11645:11994   */\n      jump\t// out\n        /* \"#utility.yul\":12344:12697   */\n    tag_280:\n        /* \"#utility.yul\":12546:12548   */\n      0x20\n        /* \"#utility.yul\":12528:12549   */\n      dup1\n      dup3\n      mstore\n        /* \"#utility.yul\":12585:12587   */\n      0x1d\n        /* \"#utility.yul\":12565:12583   */\n      swap1\n      dup3\n      add\n        /* \"#utility.yul\":12558:12588   */\n      mstore\n        /* \"#utility.yul\":12624:12655   */\n      0x4572726f723a20596f752061726520616c7265616479206c6f67676564000000\n        /* \"#utility.yul\":12619:12621   */\n      0x40\n        /* \"#utility.yul\":12604:12622   */\n      dup3\n      add\n        /* \"#utility.yul\":12597:12656   */\n      mstore\n        /* \"#utility.yul\":12688:12690   */\n      0x60\n        /* \"#utility.yul\":12673:12691   */\n      add\n      swap1\n        /* \"#utility.yul\":12344:12697   */\n      jump\t// out\n        /* \"#utility.yul\":13286:13561   */\n    tag_450:\n        /* \"#utility.yul\":13357:13359   */\n      0x40\n        /* \"#utility.yul\":13351:13360   */\n      mload\n        /* \"#utility.yul\":13422:13424   */\n      0x1f\n        /* \"#utility.yul\":13403:13416   */\n      dup3\n      add\n      not(0x1f)\n        /* \"#utility.yul\":13399:13426   */\n      and\n        /* \"#utility.yul\":13387:13427   */\n      dup2\n      add\n      sub(shl(0x40, 0x01), 0x01)\n        /* \"#utility.yul\":13442:13476   */\n      dup2\n      gt\n        /* \"#utility.yul\":13478:13500   */\n      dup3\n      dup3\n      lt\n        /* \"#utility.yul\":13439:13501   */\n      or\n        /* \"#utility.yul\":13436:13524   */\n      iszero\n      tag_545\n      jumpi\n        /* \"#utility.yul\":13504:13522   */\n      tag_545\n      tag_448\n      jump\t// in\n    tag_545:\n        /* \"#utility.yul\":13540:13542   */\n      0x40\n        /* \"#utility.yul\":13533:13555   */\n      mstore\n        /* \"#utility.yul\":13286:13561   */\n      swap2\n      swap1\n      pop\n      jump\t// out\n        /* \"#utility.yul\":13692:13820   */\n    tag_348:\n        /* \"#utility.yul\":13732:13735   */\n      0x00\n        /* \"#utility.yul\":13763:13764   */\n      dup3\n        /* \"#utility.yul\":13759:13765   */\n      not\n        /* \"#utility.yul\":13756:13757   */\n      dup3\n        /* \"#utility.yul\":13753:13766   */\n      gt\n        /* \"#utility.yul\":13750:13789   */\n      iszero\n      tag_549\n      jumpi\n        /* \"#utility.yul\":13769:13787   */\n      tag_549\n      tag_550\n      jump\t// in\n    tag_549:\n      pop\n        /* \"#utility.yul\":13805:13814   */\n      add\n      swap1\n        /* \"#utility.yul\":13692:13820   */\n      jump\t// out\n        /* \"#utility.yul\":13825:14042   */\n    tag_352:\n        /* \"#utility.yul\":13865:13866   */\n      0x00\n        /* \"#utility.yul\":13891:13892   */\n      dup3\n        /* \"#utility.yul\":13881:14013   */\n      tag_552\n      jumpi\n        /* \"#utility.yul\":13935:13945   */\n      0x4e487b71\n        /* \"#utility.yul\":13930:13933   */\n      0xe0\n        /* \"#utility.yul\":13926:13946   */\n      shl\n        /* \"#utility.yul\":13923:13924   */\n      0x00\n        /* \"#utility.yul\":13916:13947   */\n      mstore\n        /* \"#utility.yul\":13970:13974   */\n      0x12\n        /* \"#utility.yul\":13967:13968   */\n      0x04\n        /* \"#utility.yul\":13960:13975   */\n      mstore\n        /* \"#utility.yul\":13998:14002   */\n      0x24\n        /* \"#utility.yul\":13995:13996   */\n      0x00\n        /* \"#utility.yul\":13988:14003   */\n      revert\n        /* \"#utility.yul\":13881:14013   */\n    tag_552:\n      pop\n        /* \"#utility.yul\":14027:14036   */\n      div\n      swap1\n        /* \"#utility.yul\":13825:14042   */\n      jump\t// out\n        /* \"#utility.yul\":14047:14172   */\n    tag_206:\n        /* \"#utility.yul\":14087:14091   */\n      0x00\n        /* \"#utility.yul\":14115:14116   */\n      dup3\n        /* \"#utility.yul\":14112:14113   */\n      dup3\n        /* \"#utility.yul\":14109:14117   */\n      lt\n        /* \"#utility.yul\":14106:14140   */\n      iszero\n      tag_555\n      jumpi\n        /* \"#utility.yul\":14120:14138   */\n      tag_555\n      tag_550\n      jump\t// in\n    tag_555:\n      pop\n        /* \"#utility.yul\":14157:14166   */\n      sub\n      swap1\n        /* \"#utility.yul\":14047:14172   */\n      jump\t// out\n        /* \"#utility.yul\":14177:14435   */\n    tag_500:\n        /* \"#utility.yul\":14249:14250   */\n      0x00\n        /* \"#utility.yul\":14259:14372   */\n    tag_557:\n        /* \"#utility.yul\":14273:14279   */\n      dup4\n        /* \"#utility.yul\":14270:14271   */\n      dup2\n        /* \"#utility.yul\":14267:14280   */\n      lt\n        /* \"#utility.yul\":14259:14372   */\n      iszero\n      tag_559\n      jumpi\n        /* \"#utility.yul\":14349:14360   */\n      dup2\n      dup2\n      add\n        /* \"#utility.yul\":14343:14361   */\n      mload\n        /* \"#utility.yul\":14330:14341   */\n      dup4\n      dup3\n      add\n        /* \"#utility.yul\":14323:14362   */\n      mstore\n        /* \"#utility.yul\":14295:14297   */\n      0x20\n        /* \"#utility.yul\":14288:14298   */\n      add\n        /* \"#utility.yul\":14259:14372   */\n      jump(tag_557)\n    tag_559:\n        /* \"#utility.yul\":14390:14396   */\n      dup4\n        /* \"#utility.yul\":14387:14388   */\n      dup2\n        /* \"#utility.yul\":14384:14397   */\n      gt\n        /* \"#utility.yul\":14381:14429   */\n      iszero\n      tag_367\n      jumpi\n      pop\n      pop\n        /* \"#utility.yul\":14425:14426   */\n      0x00\n        /* \"#utility.yul\":14407:14423   */\n      swap2\n      add\n        /* \"#utility.yul\":14400:14427   */\n      mstore\n        /* \"#utility.yul\":14177:14435   */\n      jump\t// out\n        /* \"#utility.yul\":14440:14820   */\n    tag_212:\n        /* \"#utility.yul\":14519:14520   */\n      0x01\n        /* \"#utility.yul\":14515:14527   */\n      dup2\n      dup2\n      shr\n      swap1\n        /* \"#utility.yul\":14562:14574   */\n      dup3\n      and\n      dup1\n        /* \"#utility.yul\":14583:14644   */\n      tag_562\n      jumpi\n        /* \"#utility.yul\":14637:14641   */\n      0x7f\n        /* \"#utility.yul\":14629:14635   */\n      dup3\n        /* \"#utility.yul\":14625:14642   */\n      and\n        /* \"#utility.yul\":14615:14642   */\n      swap2\n      pop\n        /* \"#utility.yul\":14583:14644   */\n    tag_562:\n        /* \"#utility.yul\":14690:14692   */\n      0x20\n        /* \"#utility.yul\":14682:14688   */\n      dup3\n        /* \"#utility.yul\":14679:14693   */\n      lt\n        /* \"#utility.yul\":14659:14677   */\n      dup2\n        /* \"#utility.yul\":14656:14694   */\n      eq\n        /* \"#utility.yul\":14653:14814   */\n      iszero\n      tag_563\n      jumpi\n        /* \"#utility.yul\":14736:14746   */\n      0x4e487b71\n        /* \"#utility.yul\":14731:14734   */\n      0xe0\n        /* \"#utility.yul\":14727:14747   */\n      shl\n        /* \"#utility.yul\":14724:14725   */\n      0x00\n        /* \"#utility.yul\":14717:14748   */\n      mstore\n        /* \"#utility.yul\":14771:14775   */\n      0x22\n        /* \"#utility.yul\":14768:14769   */\n      0x04\n        /* \"#utility.yul\":14761:14776   */\n      mstore\n        /* \"#utility.yul\":14799:14803   */\n      0x24\n        /* \"#utility.yul\":14796:14797   */\n      0x00\n        /* \"#utility.yul\":14789:14804   */\n      revert\n        /* \"#utility.yul\":14653:14814   */\n    tag_563:\n      pop\n        /* \"#utility.yul\":14440:14820   */\n      swap2\n      swap1\n      pop\n      jump\t// out\n        /* \"#utility.yul\":14825:14960   */\n    tag_239:\n        /* \"#utility.yul\":14864:14867   */\n      0x00\n      not(0x00)\n        /* \"#utility.yul\":14885:14902   */\n      dup3\n      eq\n        /* \"#utility.yul\":14882:14925   */\n      iszero\n      tag_566\n      jumpi\n        /* \"#utility.yul\":14905:14923   */\n      tag_566\n      tag_550\n      jump\t// in\n    tag_566:\n      pop\n        /* \"#utility.yul\":14952:14953   */\n      0x01\n        /* \"#utility.yul\":14941:14954   */\n      add\n      swap1\n        /* \"#utility.yul\":14825:14960   */\n      jump\t// out\n        /* \"#utility.yul\":14965:15092   */\n    tag_550:\n        /* \"#utility.yul\":15026:15036   */\n      0x4e487b71\n        /* \"#utility.yul\":15021:15024   */\n      0xe0\n        /* \"#utility.yul\":15017:15037   */\n      shl\n        /* \"#utility.yul\":15014:15015   */\n      0x00\n        /* \"#utility.yul\":15007:15038   */\n      mstore\n        /* \"#utility.yul\":15057:15061   */\n      0x11\n        /* \"#utility.yul\":15054:15055   */\n      0x04\n        /* \"#utility.yul\":15047:15062   */\n      mstore\n        /* \"#utility.yul\":15081:15085   */\n      0x24\n        /* \"#utility.yul\":15078:15079   */\n      0x00\n        /* \"#utility.yul\":15071:15086   */\n      revert\n        /* \"#utility.yul\":15097:15224   */\n    tag_223:\n        /* \"#utility.yul\":15158:15168   */\n      0x4e487b71\n        /* \"#utility.yul\":15153:15156   */\n      0xe0\n        /* \"#utility.yul\":15149:15169   */\n      shl\n        /* \"#utility.yul\":15146:15147   */\n      0x00\n        /* \"#utility.yul\":15139:15170   */\n      mstore\n        /* \"#utility.yul\":15189:15193   */\n      0x32\n        /* \"#utility.yul\":15186:15187   */\n      0x04\n        /* \"#utility.yul\":15179:15194   */\n      mstore\n        /* \"#utility.yul\":15213:15217   */\n      0x24\n        /* \"#utility.yul\":15210:15211   */\n      0x00\n        /* \"#utility.yul\":15203:15218   */\n      revert\n        /* \"#utility.yul\":15229:15356   */\n    tag_448:\n        /* \"#utility.yul\":15290:15300   */\n      0x4e487b71\n        /* \"#utility.yul\":15285:15288   */\n      0xe0\n        /* \"#utility.yul\":15281:15301   */\n      shl\n        /* \"#utility.yul\":15278:15279   */\n      0x00\n        /* \"#utility.yul\":15271:15302   */\n      mstore\n        /* \"#utility.yul\":15321:15325   */\n      0x41\n        /* \"#utility.yul\":15318:15319   */\n      0x04\n        /* \"#utility.yul\":15311:15326   */\n      mstore\n        /* \"#utility.yul\":15345:15349   */\n      0x24\n        /* \"#utility.yul\":15342:15343   */\n      0x00\n        /* \"#utility.yul\":15335:15350   */\n      revert\n\n    auxdata: 0xa2646970667358221220f40602153544ed16cc2fbf77a39f106436d354bb9192e559ef31a68b34b5a5bb64736f6c63430008070033\n}\n",
				"bytecode": {
					"linkReferences": {},
					"object": "60806040526000600d553480156200001657600080fd5b50735412e9b0e4ef9d1546df79ae907eee34bdcf300460016040516200004690632132b2b960e11b815260040190565b908152604080516020928190038301812080546001600160a01b0319166001600160a01b0395909516949094179093556101408301815260046101008401908152632132b2b960e11b6101208501528352805180820190915260018152601960f91b8183015290820190620000bb9062000653565b81526103e860208083019190915260036040808401919091526000606084018190528151808301835260018152603160f81b818501526080850152815180830190925260068252654d6f73636f7760d01b8284015260a084019190915260c0909201829052735412e9b0e4ef9d1546df79ae907eee34bdcf300482529081528151805160008051602062002e54833981519152926200015f92849291019062000685565b5060208281015160018301556040830151600283015560608301516003830155608083015160048301805460ff191691151591909117905560a08301518051620001b0926005850192019062000685565b5060c08201518051620001ce91600684019160209091019062000685565b5060e091909101516007909101556000602081905260028054600181018255915260008051602062002e54833981519152805460008051602062002e34833981519152909201916200022090620007ed565b6200022d92919062000714565b507349c364fedad517382ee5a776d3071f11cfde4c5c6001604051620002609066141c9bd91d58dd60ca1b815260070190565b908152604080516020928190038301812080546001600160a01b0319166001600160a01b039590951694909417909355610140830181526007610100840190815266141c9bd91d58dd60ca1b6101208501528352805180820190915260018152601960f91b8183015290820190620002d89062000653565b81526103e860208083019190915260036040808401919091526000606084018190528151808301835260018152601960f91b8185015260808501528151808301909252600a8252695065746572736275726760b01b8284015260a084019190915260c09092018290527349c364fedad517382ee5a776d3071f11cfde4c5c82529081528151805160008051602062002e14833981519152926200038092849291019062000685565b5060208281015160018301556040830151600283015560608301516003830155608083015160048301805460ff191691151591909117905560a08301518051620003d1926005850192019062000685565b5060c08201518051620003ef91600684019160209091019062000685565b5060e091909101516007909101556000602081905260028054600181018255915260008051602062002e14833981519152805460008051602062002e34833981519152909201916200044190620007ed565b6200044e92919062000714565b5073ada67460cf329d12c1ed898710cc8da5d40d802560056040516200047e90635065746160e01b815260040190565b908152604080516020928190038301812080546001600160a01b0319166001600160a01b03959095169490941790935560e083018152600460a08401908152635065746160e01b60c08501528352805180820190915260018152603360f81b8183015290820190620004f09062000653565b81526103e8602080830191909152600260408301526000606090920182905273ada67460cf329d12c1ed898710cc8da5d40d802590915260048152815180517f7276c473c3031176624ead5b5cbfdea5cdbc158289c185f75f825e40aed0bb37926200056192849291019062000685565b506020828101516001838101919091556040808501516002850155606085015160038501556080909401516004938401805460ff19169115159190911790556006805491820181556000528351808501909452828452635065746160e01b93909101928352620005f6927ff652222313e28459528d920b65115c16c04f3efc82aaedc97be59f3f377c0d3f9091019162000685565b50600780546001810182556000919091527fa66cc928b5edb82af9bd49922954155ab7b0942694bea4ce44661d9a8736c6880180546001600160a01b03191673ada67460cf329d12c1ed898710cc8da5d40d80251790556200082a565b600081604051602001620006689190620007af565b604051602081830303815290604052805190602001209050919050565b8280546200069390620007ed565b90600052602060002090601f016020900481019282620006b7576000855562000702565b82601f10620006d257805160ff191683800117855562000702565b8280016001018555821562000702579182015b8281111562000702578251825591602001919060010190620006e5565b506200071092915062000798565b5090565b8280546200072290620007ed565b90600052602060002090601f01602090048101928262000746576000855562000702565b82601f1062000759578054855562000702565b828001600101855582156200070257600052602060002091601f016020900482015b82811115620007025782548255916001019190600101906200077b565b5b8082111562000710576000815560010162000799565b6000825160005b81811015620007d25760208186018101518583015201620007b6565b81811115620007e2576000828501525b509190910192915050565b600181811c908216806200080257607f821691505b602082108114156200082457634e487b7160e01b600052602260045260246000fd5b50919050565b6125da806200083a6000396000f3fe6080604052600436106101525760003560e01c8063033ff0b81461015757806304ac16f61461018a5780630e1c81b2146101ac578063146dc6ed146101cc5780631bbe970a146101df5780631f8daac81461023857806329e795f31461025a5780633b84aedc1461027a578063521b9170146102aa57806355149fd5146102ca5780635bbc9a3f146102f75780635bd37c9e146103175780635bdb63fa1461032c5780636ba44d3c1461034c5780636c05dd1d1461036c578063775eb9e61461038c5780637ddb273d146103ac578063845952a8146103db5780638e23cb40146103fb578063961865f01461042f578063a985036d14610460578063a9f9482b14610480578063c4957fa0146104a0578063cbffdb29146104e1578063cc21c1881461051a578063d22d90201461053a578063d68cf8c11461055a578063dce391511461058a578063de4032f6146105ba575b600080fd5b34801561016357600080fd5b50610177610172366004611edc565b6105f3565b6040519081526020015b60405180910390f35b34801561019657600080fd5b506101aa6101a5366004611edc565b61063a565b005b3480156101b857600080fd5b506101aa6101c7366004611e86565b61068c565b6101aa6101da366004611edc565b61081f565b3480156101eb57600080fd5b506102206101fa366004611edc565b80516020818301810180516005825292820191909301209152546001600160a01b031681565b6040516001600160a01b039091168152602001610181565b34801561024457600080fd5b5061024d6109ef565b60405161018191906122aa565b34801561026657600080fd5b506101aa610275366004611f10565b610ac8565b34801561028657600080fd5b5061029a610295366004611edc565b610c2c565b6040519015158152602001610181565b3480156102b657600080fd5b506101aa6102c5366004611edc565b610c76565b3480156102d657600080fd5b506102ea6102e5366004611edc565b610c8c565b604051610181919061230c565b34801561030357600080fd5b5061029a610312366004611edc565b610d5c565b34801561032357600080fd5b5061024d610d72565b34801561033857600080fd5b50610177610347366004611edc565b610e42565b34801561035857600080fd5b50610220610367366004611edc565b610e58565b34801561037857600080fd5b506101aa610387366004612098565b610ef6565b34801561039857600080fd5b506101aa6103a7366004611ff9565b610fed565b3480156103b857600080fd5b506103cc6103c7366004612104565b61114e565b60405161018193929190612201565b3480156103e757600080fd5b506101776103f6366004611edc565b611219565b34801561040757600080fd5b5061041b610416366004611e64565b611249565b604051610181989796959493929190612358565b34801561043b57600080fd5b5061044f61044a366004611e64565b611429565b60405161018195949392919061231f565b34801561046c57600080fd5b5061017761047b366004611edc565b6114e3565b34801561048c57600080fd5b506103cc61049b366004612104565b6116eb565b3480156104ac57600080fd5b506102206104bb366004611edc565b80516020818301810180516001825292820191909301209152546001600160a01b031681565b3480156104ed57600080fd5b506101776104fc366004611e64565b6001600160a01b031660009081526004602052604090206002015490565b34801561052657600080fd5b506101aa61053536600461203d565b6116fb565b34801561054657600080fd5b506101aa610555366004611ff9565b6119cf565b34801561056657600080fd5b5061057a610575366004611edc565b611af5565b6040516101819493929190612273565b34801561059657600080fd5b506105aa6105a5366004612104565b611bbb565b6040516101819493929190612237565b3480156105c657600080fd5b506101776105d5366004611e64565b6001600160a01b031660009081526020819052604090206002015490565b60008060006001846040516106089190612149565b9081526040805160209281900383019020546001600160a01b0316835290820192909252016000206003015492915050565b600080600060018460405161064f9190612149565b9081526040805160209281900383019020546001600160a01b031683529082019290925201600020600401805460ff191691151591909117905550565b60006001600160a01b03166005836040516106a79190612149565b908152604051908190036020019020546001600160a01b03161461070e5760405162461bcd60e51b8152602060048201526019602482015278115c9c9bdc8e88155cd95c88185b1c9958591e48195e1a5cdd603a1b60448201526064015b60405180910390fd5b6040805160a08101825283815260208082018490526103e882840152600260608301526000608083018190526001600160a01b0387168152600482529290922081518051929391926107639284920190611c8d565b50602082015160018201556040808301516002830155606083015160038301556080909201516004909101805460ff19169115159190911790555183906005906107ae908590612149565b90815260405190819003602001902080546001600160a01b039283166001600160a01b031991821617909155600780546001810182556000919091527fa66cc928b5edb82af9bd49922954155ab7b0942694bea4ce44661d9a8736c688018054959092169416939093179092555050565b60088160405161082f9190612149565b90815260200160405180910390206002015460046000336001600160a01b03166001600160a01b031681526020019081526020016000206002015410156108ab5760405162461bcd60e51b815260206004820152601060248201526f6572726f723a206e6f74206d6f6e657960801b6044820152606401610705565b6040805160808101825233815260208082018481523493830193909352600160608301819052600a8054918201815560005282517fc65a7bb8d6351c1cf70c95a316cc6a92839c986682d98bc35f958f4883f9d2a8600490920291820180546001600160a01b0319166001600160a01b039092169190911781559351805193949361095f937fc65a7bb8d6351c1cf70c95a316cc6a92839c986682d98bc35f958f4883f9d2a9909301929190910190611c8d565b5060408281015160028301556060909201516003909101805460ff191691151591909117905551600890610994908390612149565b90815260200160405180910390206002015460046000336001600160a01b03166001600160a01b03168152602001908152602001600020600201546109d991906124c9565b3360009081526004602052604090206002015550565b60606002805480602002602001604051908101604052809291908181526020016000905b82821015610abf578382906000526020600020018054610a329061250c565b80601f0160208091040260200160405190810160405280929190818152602001828054610a5e9061250c565b8015610aab5780601f10610a8057610100808354040283529160200191610aab565b820191906000526020600020905b815481529060010190602001808311610a8e57829003601f168201915b505050505081526020019060010190610a13565b50505050905090565b60005b600354811015610c2757600060038281548110610aea57610aea612578565b90600052602060002090600502016001018054610b069061250c565b80601f0160208091040260200160405190810160405280929190818152602001828054610b329061250c565b8015610b7f5780601f10610b5457610100808354040283529160200191610b7f565b820191906000526020600020905b815481529060010190602001808311610b6257829003601f168201915b5050505050905083604051602001610b979190612149565b6040516020818303038152906040528051906020012081604051602001610bbe9190612149565b604051602081830303815290604052805190602001201415610c14578260038381548110610bee57610bee612578565b90600052602060002090600502016004019080519060200190610c12929190611d11565b505b5080610c1f81612547565b915050610acb565b505050565b6000806000600184604051610c419190612149565b9081526040805160209281900383019020546001600160a01b0316835290820192909252016000206004015460ff1692915050565b60006004600060058460405161064f9190612149565b6060600080600184604051610ca19190612149565b9081526040805160209281900383019020546001600160a01b0316835290820192909252016000206006018054610cd79061250c565b80601f0160208091040260200160405190810160405280929190818152602001828054610d039061250c565b8015610d505780601f10610d2557610100808354040283529160200191610d50565b820191906000526020600020905b815481529060010190602001808311610d3357829003601f168201915b50505050509050919050565b600060046000600584604051610c419190612149565b60606009805480602002602001604051908101604052809291908181526020016000905b82821015610abf578382906000526020600020018054610db59061250c565b80601f0160208091040260200160405190810160405280929190818152602001828054610de19061250c565b8015610e2e5780601f10610e0357610100808354040283529160200191610e2e565b820191906000526020600020905b815481529060010190602001808311610e1157829003601f168201915b505050505081526020019060010190610d96565b6000600460006005846040516106089190612149565b60008060006001600160a01b0316600584604051610e769190612149565b908152604051908190036020019020546001600160a01b031614610ec457600583604051610ea49190612149565b908152604051908190036020019020546001600160a01b03169050610ef0565b600183604051610ed49190612149565b908152604051908190036020019020546001600160a01b031690505b92915050565b6040518060800160405280336001600160a01b03168152602001828152602001838152602001600d54815250600884604051610f329190612149565b90815260405160209181900382019020825181546001600160a01b0319166001600160a01b039091161781558282015180519192610f7892600185019290910190611c8d565b5060408201516002820155606090910151600390910155600980546001810182556000919091528351610fd2917f6e1540171b6c0c960b71a7020d9f60077f6af931a8bbf590da0223dacf75c7af01906020860190611c8d565b50600d8054906000610fe383612547565b9190505550505050565b6000806001846040516110009190612149565b9081526040805160209281900383019020546001600160a01b0316835290820192909252016000206004015460ff161561104c5760405162461bcd60e51b815260040161070590612428565b60006001600160a01b03166001836040516110679190612149565b908152604051908190036020019020546001600160a01b0316141561109e5760405162461bcd60e51b8152600401610705906123f5565b806000806001856040516110b29190612149565b9081526040805160209281900383019020546001600160a01b03168352908201929092520160002060010154146110fb5760405162461bcd60e51b8152600401610705906123c4565b60016000806001856040516111109190612149565b9081526040805160209281900383019020546001600160a01b031683529082019290925201600020600401805460ff19169115159190911790555050565b600c818154811061115e57600080fd5b6000918252602090912060039091020180546001820180546001600160a01b0390921693509061118d9061250c565b80601f01602080910402602001604051908101604052809291908181526020018280546111b99061250c565b80156112065780601f106111db57610100808354040283529160200191611206565b820191906000526020600020905b8154815290600101906020018083116111e957829003601f168201915b5050506002909301549192505060ff1683565b60008160405160200161122c9190612149565b604051602081830303815290604052805190602001209050919050565b6000602081905290815260409020805481906112649061250c565b80601f01602080910402602001604051908101604052809291908181526020018280546112909061250c565b80156112dd5780601f106112b2576101008083540402835291602001916112dd565b820191906000526020600020905b8154815290600101906020018083116112c057829003601f168201915b50505060018401546002850154600386015460048701546005880180549798949793965091945060ff1692916113129061250c565b80601f016020809104026020016040519081016040528092919081815260200182805461133e9061250c565b801561138b5780601f106113605761010080835404028352916020019161138b565b820191906000526020600020905b81548152906001019060200180831161136e57829003601f168201915b5050505050908060060180546113a09061250c565b80601f01602080910402602001604051908101604052809291908181526020018280546113cc9061250c565b80156114195780601f106113ee57610100808354040283529160200191611419565b820191906000526020600020905b8154815290600101906020018083116113fc57829003601f168201915b5050505050908060070154905088565b6004602052600090815260409020805481906114449061250c565b80601f01602080910402602001604051908101604052809291908181526020018280546114709061250c565b80156114bd5780601f10611492576101008083540402835291602001916114bd565b820191906000526020600020905b8154815290600101906020018083116114a057829003601f168201915b505050506001830154600284015460038501546004909501549394919390925060ff1685565b60008080805b6002548110156116ce5760006002828154811061150857611508612578565b90600052602060002001805461151d9061250c565b80601f01602080910402602001604051908101604052809291908181526020018280546115499061250c565b80156115965780601f1061156b57610100808354040283529160200191611596565b820191906000526020600020905b81548152906001019060200180831161157957829003601f168201915b50505050509050856040516020016115ae9190612149565b60405160208183030381529060405280519060200120816040516020016115d59190612149565b6040516020818303038152906040528051906020012014156116bb57600091505b60035482116116bb576003828154811061161257611612612578565b90600052602060002090600502016000016040516020016116339190612165565b604051602081830303815290604052805190602001208660405160200161165a9190612149565b6040516020818303038152906040528051906020012014156116a9576003828154811061168957611689612578565b906000526020600020906005020160030154836116a6919061248f565b92505b816116b381612547565b9250506115f6565b50806116c681612547565b9150506114e9565b506116d982826124a7565b6116e3908261248f565b949350505050565b600b818154811061115e57600080fd5b600a8111156117565760405162461bcd60e51b815260206004820152602160248201527f6572726f723a20726174696e672063616e2062652066726f6d203120746f20316044820152600360fc1b6064820152608401610705565b60005b60025481116119c95760006002828154811061177757611777612578565b90600052602060002001805461178c9061250c565b80601f01602080910402602001604051908101604052809291908181526020018280546117b89061250c565b80156118055780601f106117da57610100808354040283529160200191611805565b820191906000526020600020905b8154815290600101906020018083116117e857829003601f168201915b505050505090508460405160200161181d9190612149565b60405160208183030381529060405280519060200120816040516020016118449190612149565b6040516020818303038152906040528051906020012014156119b6576040805160a08101825286815233600090815260046020908152929020805460609360039392908301916118939061250c565b80601f01602080910402602001604051908101604052809291908181526020018280546118bf9061250c565b801561190c5780601f106118e15761010080835404028352916020019161190c565b820191906000526020600020905b8154815290600101906020018083116118ef57829003601f168201915b505050918352505060208082018990526040820188905260609091018490528254600181018455600093845292819020825180519394600502909101926119569284920190611c8d565b50602082810151805161196f9260018501920190611c8d565b506040820151805161198b916002840191602090910190611c8d565b5060608201516003820155608082015180516119b1916004840191602090910190611d11565b505050505b50806119c181612547565b915050611759565b50505050565b600460006005846040516119e39190612149565b9081526040805160209281900383019020546001600160a01b0316835290820192909252016000206004015460ff1615611a2f5760405162461bcd60e51b815260040161070590612428565b60006001600160a01b0316600583604051611a4a9190612149565b908152604051908190036020019020546001600160a01b03161415611a815760405162461bcd60e51b8152600401610705906123f5565b8060046000600585604051611a969190612149565b9081526040805160209281900383019020546001600160a01b0316835290820192909252016000206001015414611adf5760405162461bcd60e51b8152600401610705906123c4565b6001600460006005856040516111109190612149565b8051602081830181018051600882529282019190930120915280546001820180546001600160a01b039092169291611b2c9061250c565b80601f0160208091040260200160405190810160405280929190818152602001828054611b589061250c565b8015611ba55780601f10611b7a57610100808354040283529160200191611ba5565b820191906000526020600020905b815481529060010190602001808311611b8857829003601f168201915b5050505050908060020154908060030154905084565b600a8181548110611bcb57600080fd5b6000918252602090912060049091020180546001820180546001600160a01b03909216935090611bfa9061250c565b80601f0160208091040260200160405190810160405280929190818152602001828054611c269061250c565b8015611c735780601f10611c4857610100808354040283529160200191611c73565b820191906000526020600020905b815481529060010190602001808311611c5657829003601f168201915b50505050600283015460039093015491929160ff16905084565b828054611c999061250c565b90600052602060002090601f016020900481019282611cbb5760008555611d01565b82601f10611cd457805160ff1916838001178555611d01565b82800160010185558215611d01579182015b82811115611d01578251825591602001919060010190611ce6565b50611d0d929150611d6a565b5090565b828054828255906000526020600020908101928215611d5e579160200282015b82811115611d5e5782518051611d4e918491602090910190611c8d565b5091602001919060010190611d31565b50611d0d929150611d7f565b5b80821115611d0d5760008155600101611d6b565b80821115611d0d576000611d938282611d9c565b50600101611d7f565b508054611da89061250c565b6000825580601f10611db8575050565b601f016020900490600052602060002090810190611dd69190611d6a565b50565b80356001600160a01b0381168114611df057600080fd5b919050565b600082601f830112611e0657600080fd5b81356001600160401b03811115611e1f57611e1f61258e565b611e32601f8201601f191660200161245f565b818152846020838601011115611e4757600080fd5b816020850160208301376000918101602001919091529392505050565b600060208284031215611e7657600080fd5b611e7f82611dd9565b9392505050565b600080600060608486031215611e9b57600080fd5b611ea484611dd9565b925060208401356001600160401b03811115611ebf57600080fd5b611ecb86828701611df5565b925050604084013590509250925092565b600060208284031215611eee57600080fd5b81356001600160401b03811115611f0457600080fd5b6116e384828501611df5565b60008060408385031215611f2357600080fd5b82356001600160401b0380821115611f3a57600080fd5b611f4686838701611df5565b9350602091508185013581811115611f5d57600080fd5b8501601f81018713611f6e57600080fd5b803582811115611f8057611f8061258e565b8060051b611f8f85820161245f565b8281528581019084870183860188018c1015611faa57600080fd5b60009350835b85811015611fe757813588811115611fc6578586fd5b611fd48e8b838b0101611df5565b8552509288019290880190600101611fb0565b50989b909a5098505050505050505050565b6000806040838503121561200c57600080fd5b82356001600160401b0381111561202257600080fd5b61202e85828601611df5565b95602094909401359450505050565b60008060006060848603121561205257600080fd5b83356001600160401b038082111561206957600080fd5b61207587838801611df5565b9450602086013591508082111561208b57600080fd5b50611ecb86828701611df5565b6000806000606084860312156120ad57600080fd5b83356001600160401b03808211156120c457600080fd5b6120d087838801611df5565b94506020860135935060408601359150808211156120ed57600080fd5b506120fa86828701611df5565b9150509250925092565b60006020828403121561211657600080fd5b5035919050565b600081518084526121358160208601602086016124e0565b601f01601f19169290920160200192915050565b6000825161215b8184602087016124e0565b9190910192915050565b600080835481600182811c91508083168061218157607f831692505b60208084108214156121a157634e487b7160e01b86526022600452602486fd5b8180156121b557600181146121c6576121f3565b60ff198616895284890196506121f3565b60008a81526020902060005b868110156121eb5781548b8201529085019083016121d2565b505084890196505b509498975050505050505050565b6001600160a01b03841681526060602082018190526000906122259083018561211d565b90508215156040830152949350505050565b6001600160a01b038516815260806020820181905260009061225b9083018661211d565b60408301949094525090151560609091015292915050565b6001600160a01b03851681526080602082018190526000906122979083018661211d565b6040830194909452506060015292915050565b6000602080830181845280855180835260408601915060408160051b870101925083870160005b828110156122ff57603f198886030184526122ed85835161211d565b945092850192908501906001016122d1565b5092979650505050505050565b602081526000611e7f602083018461211d565b60a08152600061233260a083018861211d565b905085602083015284604083015283606083015282151560808301529695505050505050565b600061010080835261236c8184018c61211d565b9050896020840152886040840152876060840152861515608084015282810360a084015261239a818761211d565b905082810360c08401526123ae818661211d565b9150508260e08301529998505050505050505050565b602080825260179082015276115c9c9bdc8e88125b9d985b1a59081c185cdcdddbdc99604a1b604082015260600190565b602080825260199082015278115c9c9bdc8e88155cd95c88191bd95cdb89dd08195e1a5cdd603a1b604082015260600190565b6020808252601d908201527f4572726f723a20596f752061726520616c7265616479206c6f67676564000000604082015260600190565b604051601f8201601f191681016001600160401b03811182821017156124875761248761258e565b604052919050565b600082198211156124a2576124a2612562565b500190565b6000826124c457634e487b7160e01b600052601260045260246000fd5b500490565b6000828210156124db576124db612562565b500390565b60005b838110156124fb5781810151838201526020016124e3565b838111156119c95750506000910152565b600181811c9082168061252057607f821691505b6020821081141561254157634e487b7160e01b600052602260045260246000fd5b50919050565b600060001982141561255b5761255b612562565b5060010190565b634e487b7160e01b600052601160045260246000fd5b634e487b7160e01b600052603260045260246000fd5b634e487b7160e01b600052604160045260246000fdfea2646970667358221220f40602153544ed16cc2fbf77a39f106436d354bb9192e559ef31a68b34b5a5bb64736f6c63430008070033b5b2e77f7cc5f741808c088fc930a78382cbc738160d08c471b4672fc39743aa405787fa12a823e0f2b7631cc41b3ba8828b3321ca811111fa75cd3aa3bb5ace418456ba3c801fd0a494a221a407852a26db46c4f8395142565b3b3cd0653b99",
					"opcodes": "PUSH1 0x80 PUSH1 0x40 MSTORE PUSH1 0x0 PUSH1 0xD SSTORE CALLVALUE DUP1 ISZERO PUSH3 0x16 JUMPI PUSH1 0x0 DUP1 REVERT JUMPDEST POP PUSH20 0x5412E9B0E4EF9D1546DF79AE907EEE34BDCF3004 PUSH1 0x1 PUSH1 0x40 MLOAD PUSH3 0x46 SWAP1 PUSH4 0x2132B2B9 PUSH1 0xE1 SHL DUP2 MSTORE PUSH1 0x4 ADD SWAP1 JUMP JUMPDEST SWAP1 DUP2 MSTORE PUSH1 0x40 DUP1 MLOAD PUSH1 0x20 SWAP3 DUP2 SWAP1 SUB DUP4 ADD DUP2 KECCAK256 DUP1 SLOAD PUSH1 0x1 PUSH1 0x1 PUSH1 0xA0 SHL SUB NOT AND PUSH1 0x1 PUSH1 0x1 PUSH1 0xA0 SHL SUB SWAP6 SWAP1 SWAP6 AND SWAP5 SWAP1 SWAP5 OR SWAP1 SWAP4 SSTORE PUSH2 0x140 DUP4 ADD DUP2 MSTORE PUSH1 0x4 PUSH2 0x100 DUP5 ADD SWAP1 DUP2 MSTORE PUSH4 0x2132B2B9 PUSH1 0xE1 SHL PUSH2 0x120 DUP6 ADD MSTORE DUP4 MSTORE DUP1 MLOAD DUP1 DUP3 ADD SWAP1 SWAP2 MSTORE PUSH1 0x1 DUP2 MSTORE PUSH1 0x19 PUSH1 0xF9 SHL DUP2 DUP4 ADD MSTORE SWAP1 DUP3 ADD SWAP1 PUSH3 0xBB SWAP1 PUSH3 0x653 JUMP JUMPDEST DUP2 MSTORE PUSH2 0x3E8 PUSH1 0x20 DUP1 DUP4 ADD SWAP2 SWAP1 SWAP2 MSTORE PUSH1 0x3 PUSH1 0x40 DUP1 DUP5 ADD SWAP2 SWAP1 SWAP2 MSTORE PUSH1 0x0 PUSH1 0x60 DUP5 ADD DUP2 SWAP1 MSTORE DUP2 MLOAD DUP1 DUP4 ADD DUP4 MSTORE PUSH1 0x1 DUP2 MSTORE PUSH1 0x31 PUSH1 0xF8 SHL DUP2 DUP6 ADD MSTORE PUSH1 0x80 DUP6 ADD MSTORE DUP2 MLOAD DUP1 DUP4 ADD SWAP1 SWAP3 MSTORE PUSH1 0x6 DUP3 MSTORE PUSH6 0x4D6F73636F77 PUSH1 0xD0 SHL DUP3 DUP5 ADD MSTORE PUSH1 0xA0 DUP5 ADD SWAP2 SWAP1 SWAP2 MSTORE PUSH1 0xC0 SWAP1 SWAP3 ADD DUP3 SWAP1 MSTORE PUSH20 0x5412E9B0E4EF9D1546DF79AE907EEE34BDCF3004 DUP3 MSTORE SWAP1 DUP2 MSTORE DUP2 MLOAD DUP1 MLOAD PUSH1 0x0 DUP1 MLOAD PUSH1 0x20 PUSH3 0x2E54 DUP4 CODECOPY DUP2 MLOAD SWAP2 MSTORE SWAP3 PUSH3 0x15F SWAP3 DUP5 SWAP3 SWAP2 ADD SWAP1 PUSH3 0x685 JUMP JUMPDEST POP PUSH1 0x20 DUP3 DUP2 ADD MLOAD PUSH1 0x1 DUP4 ADD SSTORE PUSH1 0x40 DUP4 ADD MLOAD PUSH1 0x2 DUP4 ADD SSTORE PUSH1 0x60 DUP4 ADD MLOAD PUSH1 0x3 DUP4 ADD SSTORE PUSH1 0x80 DUP4 ADD MLOAD PUSH1 0x4 DUP4 ADD DUP1 SLOAD PUSH1 0xFF NOT AND SWAP2 ISZERO ISZERO SWAP2 SWAP1 SWAP2 OR SWAP1 SSTORE PUSH1 0xA0 DUP4 ADD MLOAD DUP1 MLOAD PUSH3 0x1B0 SWAP3 PUSH1 0x5 DUP6 ADD SWAP3 ADD SWAP1 PUSH3 0x685 JUMP JUMPDEST POP PUSH1 0xC0 DUP3 ADD MLOAD DUP1 MLOAD PUSH3 0x1CE SWAP2 PUSH1 0x6 DUP5 ADD SWAP2 PUSH1 0x20 SWAP1 SWAP2 ADD SWAP1 PUSH3 0x685 JUMP JUMPDEST POP PUSH1 0xE0 SWAP2 SWAP1 SWAP2 ADD MLOAD PUSH1 0x7 SWAP1 SWAP2 ADD SSTORE PUSH1 0x0 PUSH1 0x20 DUP2 SWAP1 MSTORE PUSH1 0x2 DUP1 SLOAD PUSH1 0x1 DUP2 ADD DUP3 SSTORE SWAP2 MSTORE PUSH1 0x0 DUP1 MLOAD PUSH1 0x20 PUSH3 0x2E54 DUP4 CODECOPY DUP2 MLOAD SWAP2 MSTORE DUP1 SLOAD PUSH1 0x0 DUP1 MLOAD PUSH1 0x20 PUSH3 0x2E34 DUP4 CODECOPY DUP2 MLOAD SWAP2 MSTORE SWAP1 SWAP3 ADD SWAP2 PUSH3 0x220 SWAP1 PUSH3 0x7ED JUMP JUMPDEST PUSH3 0x22D SWAP3 SWAP2 SWAP1 PUSH3 0x714 JUMP JUMPDEST POP PUSH20 0x49C364FEDAD517382EE5A776D3071F11CFDE4C5C PUSH1 0x1 PUSH1 0x40 MLOAD PUSH3 0x260 SWAP1 PUSH7 0x141C9BD91D58DD PUSH1 0xCA SHL DUP2 MSTORE PUSH1 0x7 ADD SWAP1 JUMP JUMPDEST SWAP1 DUP2 MSTORE PUSH1 0x40 DUP1 MLOAD PUSH1 0x20 SWAP3 DUP2 SWAP1 SUB DUP4 ADD DUP2 KECCAK256 DUP1 SLOAD PUSH1 0x1 PUSH1 0x1 PUSH1 0xA0 SHL SUB NOT AND PUSH1 0x1 PUSH1 0x1 PUSH1 0xA0 SHL SUB SWAP6 SWAP1 SWAP6 AND SWAP5 SWAP1 SWAP5 OR SWAP1 SWAP4 SSTORE PUSH2 0x140 DUP4 ADD DUP2 MSTORE PUSH1 0x7 PUSH2 0x100 DUP5 ADD SWAP1 DUP2 MSTORE PUSH7 0x141C9BD91D58DD PUSH1 0xCA SHL PUSH2 0x120 DUP6 ADD MSTORE DUP4 MSTORE DUP1 MLOAD DUP1 DUP3 ADD SWAP1 SWAP2 MSTORE PUSH1 0x1 DUP2 MSTORE PUSH1 0x19 PUSH1 0xF9 SHL DUP2 DUP4 ADD MSTORE SWAP1 DUP3 ADD SWAP1 PUSH3 0x2D8 SWAP1 PUSH3 0x653 JUMP JUMPDEST DUP2 MSTORE PUSH2 0x3E8 PUSH1 0x20 DUP1 DUP4 ADD SWAP2 SWAP1 SWAP2 MSTORE PUSH1 0x3 PUSH1 0x40 DUP1 DUP5 ADD SWAP2 SWAP1 SWAP2 MSTORE PUSH1 0x0 PUSH1 0x60 DUP5 ADD DUP2 SWAP1 MSTORE DUP2 MLOAD DUP1 DUP4 ADD DUP4 MSTORE PUSH1 0x1 DUP2 MSTORE PUSH1 0x19 PUSH1 0xF9 SHL DUP2 DUP6 ADD MSTORE PUSH1 0x80 DUP6 ADD MSTORE DUP2 MLOAD DUP1 DUP4 ADD SWAP1 SWAP3 MSTORE PUSH1 0xA DUP3 MSTORE PUSH10 0x50657465727362757267 PUSH1 0xB0 SHL DUP3 DUP5 ADD MSTORE PUSH1 0xA0 DUP5 ADD SWAP2 SWAP1 SWAP2 MSTORE PUSH1 0xC0 SWAP1 SWAP3 ADD DUP3 SWAP1 MSTORE PUSH20 0x49C364FEDAD517382EE5A776D3071F11CFDE4C5C DUP3 MSTORE SWAP1 DUP2 MSTORE DUP2 MLOAD DUP1 MLOAD PUSH1 0x0 DUP1 MLOAD PUSH1 0x20 PUSH3 0x2E14 DUP4 CODECOPY DUP2 MLOAD SWAP2 MSTORE SWAP3 PUSH3 0x380 SWAP3 DUP5 SWAP3 SWAP2 ADD SWAP1 PUSH3 0x685 JUMP JUMPDEST POP PUSH1 0x20 DUP3 DUP2 ADD MLOAD PUSH1 0x1 DUP4 ADD SSTORE PUSH1 0x40 DUP4 ADD MLOAD PUSH1 0x2 DUP4 ADD SSTORE PUSH1 0x60 DUP4 ADD MLOAD PUSH1 0x3 DUP4 ADD SSTORE PUSH1 0x80 DUP4 ADD MLOAD PUSH1 0x4 DUP4 ADD DUP1 SLOAD PUSH1 0xFF NOT AND SWAP2 ISZERO ISZERO SWAP2 SWAP1 SWAP2 OR SWAP1 SSTORE PUSH1 0xA0 DUP4 ADD MLOAD DUP1 MLOAD PUSH3 0x3D1 SWAP3 PUSH1 0x5 DUP6 ADD SWAP3 ADD SWAP1 PUSH3 0x685 JUMP JUMPDEST POP PUSH1 0xC0 DUP3 ADD MLOAD DUP1 MLOAD PUSH3 0x3EF SWAP2 PUSH1 0x6 DUP5 ADD SWAP2 PUSH1 0x20 SWAP1 SWAP2 ADD SWAP1 PUSH3 0x685 JUMP JUMPDEST POP PUSH1 0xE0 SWAP2 SWAP1 SWAP2 ADD MLOAD PUSH1 0x7 SWAP1 SWAP2 ADD SSTORE PUSH1 0x0 PUSH1 0x20 DUP2 SWAP1 MSTORE PUSH1 0x2 DUP1 SLOAD PUSH1 0x1 DUP2 ADD DUP3 SSTORE SWAP2 MSTORE PUSH1 0x0 DUP1 MLOAD PUSH1 0x20 PUSH3 0x2E14 DUP4 CODECOPY DUP2 MLOAD SWAP2 MSTORE DUP1 SLOAD PUSH1 0x0 DUP1 MLOAD PUSH1 0x20 PUSH3 0x2E34 DUP4 CODECOPY DUP2 MLOAD SWAP2 MSTORE SWAP1 SWAP3 ADD SWAP2 PUSH3 0x441 SWAP1 PUSH3 0x7ED JUMP JUMPDEST PUSH3 0x44E SWAP3 SWAP2 SWAP1 PUSH3 0x714 JUMP JUMPDEST POP PUSH20 0xADA67460CF329D12C1ED898710CC8DA5D40D8025 PUSH1 0x5 PUSH1 0x40 MLOAD PUSH3 0x47E SWAP1 PUSH4 0x50657461 PUSH1 0xE0 SHL DUP2 MSTORE PUSH1 0x4 ADD SWAP1 JUMP JUMPDEST SWAP1 DUP2 MSTORE PUSH1 0x40 DUP1 MLOAD PUSH1 0x20 SWAP3 DUP2 SWAP1 SUB DUP4 ADD DUP2 KECCAK256 DUP1 SLOAD PUSH1 0x1 PUSH1 0x1 PUSH1 0xA0 SHL SUB NOT AND PUSH1 0x1 PUSH1 0x1 PUSH1 0xA0 SHL SUB SWAP6 SWAP1 SWAP6 AND SWAP5 SWAP1 SWAP5 OR SWAP1 SWAP4 SSTORE PUSH1 0xE0 DUP4 ADD DUP2 MSTORE PUSH1 0x4 PUSH1 0xA0 DUP5 ADD SWAP1 DUP2 MSTORE PUSH4 0x50657461 PUSH1 0xE0 SHL PUSH1 0xC0 DUP6 ADD MSTORE DUP4 MSTORE DUP1 MLOAD DUP1 DUP3 ADD SWAP1 SWAP2 MSTORE PUSH1 0x1 DUP2 MSTORE PUSH1 0x33 PUSH1 0xF8 SHL DUP2 DUP4 ADD MSTORE SWAP1 DUP3 ADD SWAP1 PUSH3 0x4F0 SWAP1 PUSH3 0x653 JUMP JUMPDEST DUP2 MSTORE PUSH2 0x3E8 PUSH1 0x20 DUP1 DUP4 ADD SWAP2 SWAP1 SWAP2 MSTORE PUSH1 0x2 PUSH1 0x40 DUP4 ADD MSTORE PUSH1 0x0 PUSH1 0x60 SWAP1 SWAP3 ADD DUP3 SWAP1 MSTORE PUSH20 0xADA67460CF329D12C1ED898710CC8DA5D40D8025 SWAP1 SWAP2 MSTORE PUSH1 0x4 DUP2 MSTORE DUP2 MLOAD DUP1 MLOAD PUSH32 0x7276C473C3031176624EAD5B5CBFDEA5CDBC158289C185F75F825E40AED0BB37 SWAP3 PUSH3 0x561 SWAP3 DUP5 SWAP3 SWAP2 ADD SWAP1 PUSH3 0x685 JUMP JUMPDEST POP PUSH1 0x20 DUP3 DUP2 ADD MLOAD PUSH1 0x1 DUP4 DUP2 ADD SWAP2 SWAP1 SWAP2 SSTORE PUSH1 0x40 DUP1 DUP6 ADD MLOAD PUSH1 0x2 DUP6 ADD SSTORE PUSH1 0x60 DUP6 ADD MLOAD PUSH1 0x3 DUP6 ADD SSTORE PUSH1 0x80 SWAP1 SWAP5 ADD MLOAD PUSH1 0x4 SWAP4 DUP5 ADD DUP1 SLOAD PUSH1 0xFF NOT AND SWAP2 ISZERO ISZERO SWAP2 SWAP1 SWAP2 OR SWAP1 SSTORE PUSH1 0x6 DUP1 SLOAD SWAP2 DUP3 ADD DUP2 SSTORE PUSH1 0x0 MSTORE DUP4 MLOAD DUP1 DUP6 ADD SWAP1 SWAP5 MSTORE DUP3 DUP5 MSTORE PUSH4 0x50657461 PUSH1 0xE0 SHL SWAP4 SWAP1 SWAP2 ADD SWAP3 DUP4 MSTORE PUSH3 0x5F6 SWAP3 PUSH32 0xF652222313E28459528D920B65115C16C04F3EFC82AAEDC97BE59F3F377C0D3F SWAP1 SWAP2 ADD SWAP2 PUSH3 0x685 JUMP JUMPDEST POP PUSH1 0x7 DUP1 SLOAD PUSH1 0x1 DUP2 ADD DUP3 SSTORE PUSH1 0x0 SWAP2 SWAP1 SWAP2 MSTORE PUSH32 0xA66CC928B5EDB82AF9BD49922954155AB7B0942694BEA4CE44661D9A8736C688 ADD DUP1 SLOAD PUSH1 0x1 PUSH1 0x1 PUSH1 0xA0 SHL SUB NOT AND PUSH20 0xADA67460CF329D12C1ED898710CC8DA5D40D8025 OR SWAP1 SSTORE PUSH3 0x82A JUMP JUMPDEST PUSH1 0x0 DUP2 PUSH1 0x40 MLOAD PUSH1 0x20 ADD PUSH3 0x668 SWAP2 SWAP1 PUSH3 0x7AF JUMP JUMPDEST PUSH1 0x40 MLOAD PUSH1 0x20 DUP2 DUP4 SUB SUB DUP2 MSTORE SWAP1 PUSH1 0x40 MSTORE DUP1 MLOAD SWAP1 PUSH1 0x20 ADD KECCAK256 SWAP1 POP SWAP2 SWAP1 POP JUMP JUMPDEST DUP3 DUP1 SLOAD PUSH3 0x693 SWAP1 PUSH3 0x7ED JUMP JUMPDEST SWAP1 PUSH1 0x0 MSTORE PUSH1 0x20 PUSH1 0x0 KECCAK256 SWAP1 PUSH1 0x1F ADD PUSH1 0x20 SWAP1 DIV DUP2 ADD SWAP3 DUP3 PUSH3 0x6B7 JUMPI PUSH1 0x0 DUP6 SSTORE PUSH3 0x702 JUMP JUMPDEST DUP3 PUSH1 0x1F LT PUSH3 0x6D2 JUMPI DUP1 MLOAD PUSH1 0xFF NOT AND DUP4 DUP1 ADD OR DUP6 SSTORE PUSH3 0x702 JUMP JUMPDEST DUP3 DUP1 ADD PUSH1 0x1 ADD DUP6 SSTORE DUP3 ISZERO PUSH3 0x702 JUMPI SWAP2 DUP3 ADD JUMPDEST DUP3 DUP2 GT ISZERO PUSH3 0x702 JUMPI DUP3 MLOAD DUP3 SSTORE SWAP2 PUSH1 0x20 ADD SWAP2 SWAP1 PUSH1 0x1 ADD SWAP1 PUSH3 0x6E5 JUMP JUMPDEST POP PUSH3 0x710 SWAP3 SWAP2 POP PUSH3 0x798 JUMP JUMPDEST POP SWAP1 JUMP JUMPDEST DUP3 DUP1 SLOAD PUSH3 0x722 SWAP1 PUSH3 0x7ED JUMP JUMPDEST SWAP1 PUSH1 0x0 MSTORE PUSH1 0x20 PUSH1 0x0 KECCAK256 SWAP1 PUSH1 0x1F ADD PUSH1 0x20 SWAP1 DIV DUP2 ADD SWAP3 DUP3 PUSH3 0x746 JUMPI PUSH1 0x0 DUP6 SSTORE PUSH3 0x702 JUMP JUMPDEST DUP3 PUSH1 0x1F LT PUSH3 0x759 JUMPI DUP1 SLOAD DUP6 SSTORE PUSH3 0x702 JUMP JUMPDEST DUP3 DUP1 ADD PUSH1 0x1 ADD DUP6 SSTORE DUP3 ISZERO PUSH3 0x702 JUMPI PUSH1 0x0 MSTORE PUSH1 0x20 PUSH1 0x0 KECCAK256 SWAP2 PUSH1 0x1F ADD PUSH1 0x20 SWAP1 DIV DUP3 ADD JUMPDEST DUP3 DUP2 GT ISZERO PUSH3 0x702 JUMPI DUP3 SLOAD DUP3 SSTORE SWAP2 PUSH1 0x1 ADD SWAP2 SWAP1 PUSH1 0x1 ADD SWAP1 PUSH3 0x77B JUMP JUMPDEST JUMPDEST DUP1 DUP3 GT ISZERO PUSH3 0x710 JUMPI PUSH1 0x0 DUP2 SSTORE PUSH1 0x1 ADD PUSH3 0x799 JUMP JUMPDEST PUSH1 0x0 DUP3 MLOAD PUSH1 0x0 JUMPDEST DUP2 DUP2 LT ISZERO PUSH3 0x7D2 JUMPI PUSH1 0x20 DUP2 DUP7 ADD DUP2 ADD MLOAD DUP6 DUP4 ADD MSTORE ADD PUSH3 0x7B6 JUMP JUMPDEST DUP2 DUP2 GT ISZERO PUSH3 0x7E2 JUMPI PUSH1 0x0 DUP3 DUP6 ADD MSTORE JUMPDEST POP SWAP2 SWAP1 SWAP2 ADD SWAP3 SWAP2 POP POP JUMP JUMPDEST PUSH1 0x1 DUP2 DUP2 SHR SWAP1 DUP3 AND DUP1 PUSH3 0x802 JUMPI PUSH1 0x7F DUP3 AND SWAP2 POP JUMPDEST PUSH1 0x20 DUP3 LT DUP2 EQ ISZERO PUSH3 0x824 JUMPI PUSH4 0x4E487B71 PUSH1 0xE0 SHL PUSH1 0x0 MSTORE PUSH1 0x22 PUSH1 0x4 MSTORE PUSH1 0x24 PUSH1 0x0 REVERT JUMPDEST POP SWAP2 SWAP1 POP JUMP JUMPDEST PUSH2 0x25DA DUP1 PUSH3 0x83A PUSH1 0x0 CODECOPY PUSH1 0x0 RETURN INVALID PUSH1 0x80 PUSH1 0x40 MSTORE PUSH1 0x4 CALLDATASIZE LT PUSH2 0x152 JUMPI PUSH1 0x0 CALLDATALOAD PUSH1 0xE0 SHR DUP1 PUSH4 0x33FF0B8 EQ PUSH2 0x157 JUMPI DUP1 PUSH4 0x4AC16F6 EQ PUSH2 0x18A JUMPI DUP1 PUSH4 0xE1C81B2 EQ PUSH2 0x1AC JUMPI DUP1 PUSH4 0x146DC6ED EQ PUSH2 0x1CC JUMPI DUP1 PUSH4 0x1BBE970A EQ PUSH2 0x1DF JUMPI DUP1 PUSH4 0x1F8DAAC8 EQ PUSH2 0x238 JUMPI DUP1 PUSH4 0x29E795F3 EQ PUSH2 0x25A JUMPI DUP1 PUSH4 0x3B84AEDC EQ PUSH2 0x27A JUMPI DUP1 PUSH4 0x521B9170 EQ PUSH2 0x2AA JUMPI DUP1 PUSH4 0x55149FD5 EQ PUSH2 0x2CA JUMPI DUP1 PUSH4 0x5BBC9A3F EQ PUSH2 0x2F7 JUMPI DUP1 PUSH4 0x5BD37C9E EQ PUSH2 0x317 JUMPI DUP1 PUSH4 0x5BDB63FA EQ PUSH2 0x32C JUMPI DUP1 PUSH4 0x6BA44D3C EQ PUSH2 0x34C JUMPI DUP1 PUSH4 0x6C05DD1D EQ PUSH2 0x36C JUMPI DUP1 PUSH4 0x775EB9E6 EQ PUSH2 0x38C JUMPI DUP1 PUSH4 0x7DDB273D EQ PUSH2 0x3AC JUMPI DUP1 PUSH4 0x845952A8 EQ PUSH2 0x3DB JUMPI DUP1 PUSH4 0x8E23CB40 EQ PUSH2 0x3FB JUMPI DUP1 PUSH4 0x961865F0 EQ PUSH2 0x42F JUMPI DUP1 PUSH4 0xA985036D EQ PUSH2 0x460 JUMPI DUP1 PUSH4 0xA9F9482B EQ PUSH2 0x480 JUMPI DUP1 PUSH4 0xC4957FA0 EQ PUSH2 0x4A0 JUMPI DUP1 PUSH4 0xCBFFDB29 EQ PUSH2 0x4E1 JUMPI DUP1 PUSH4 0xCC21C188 EQ PUSH2 0x51A JUMPI DUP1 PUSH4 0xD22D9020 EQ PUSH2 0x53A JUMPI DUP1 PUSH4 0xD68CF8C1 EQ PUSH2 0x55A JUMPI DUP1 PUSH4 0xDCE39151 EQ PUSH2 0x58A JUMPI DUP1 PUSH4 0xDE4032F6 EQ PUSH2 0x5BA JUMPI JUMPDEST PUSH1 0x0 DUP1 REVERT JUMPDEST CALLVALUE DUP1 ISZERO PUSH2 0x163 JUMPI PUSH1 0x0 DUP1 REVERT JUMPDEST POP PUSH2 0x177 PUSH2 0x172 CALLDATASIZE PUSH1 0x4 PUSH2 0x1EDC JUMP JUMPDEST PUSH2 0x5F3 JUMP JUMPDEST PUSH1 0x40 MLOAD SWAP1 DUP2 MSTORE PUSH1 0x20 ADD JUMPDEST PUSH1 0x40 MLOAD DUP1 SWAP2 SUB SWAP1 RETURN JUMPDEST CALLVALUE DUP1 ISZERO PUSH2 0x196 JUMPI PUSH1 0x0 DUP1 REVERT JUMPDEST POP PUSH2 0x1AA PUSH2 0x1A5 CALLDATASIZE PUSH1 0x4 PUSH2 0x1EDC JUMP JUMPDEST PUSH2 0x63A JUMP JUMPDEST STOP JUMPDEST CALLVALUE DUP1 ISZERO PUSH2 0x1B8 JUMPI PUSH1 0x0 DUP1 REVERT JUMPDEST POP PUSH2 0x1AA PUSH2 0x1C7 CALLDATASIZE PUSH1 0x4 PUSH2 0x1E86 JUMP JUMPDEST PUSH2 0x68C JUMP JUMPDEST PUSH2 0x1AA PUSH2 0x1DA CALLDATASIZE PUSH1 0x4 PUSH2 0x1EDC JUMP JUMPDEST PUSH2 0x81F JUMP JUMPDEST CALLVALUE DUP1 ISZERO PUSH2 0x1EB JUMPI PUSH1 0x0 DUP1 REVERT JUMPDEST POP PUSH2 0x220 PUSH2 0x1FA CALLDATASIZE PUSH1 0x4 PUSH2 0x1EDC JUMP JUMPDEST DUP1 MLOAD PUSH1 0x20 DUP2 DUP4 ADD DUP2 ADD DUP1 MLOAD PUSH1 0x5 DUP3 MSTORE SWAP3 DUP3 ADD SWAP2 SWAP1 SWAP4 ADD KECCAK256 SWAP2 MSTORE SLOAD PUSH1 0x1 PUSH1 0x1 PUSH1 0xA0 SHL SUB AND DUP2 JUMP JUMPDEST PUSH1 0x40 MLOAD PUSH1 0x1 PUSH1 0x1 PUSH1 0xA0 SHL SUB SWAP1 SWAP2 AND DUP2 MSTORE PUSH1 0x20 ADD PUSH2 0x181 JUMP JUMPDEST CALLVALUE DUP1 ISZERO PUSH2 0x244 JUMPI PUSH1 0x0 DUP1 REVERT JUMPDEST POP PUSH2 0x24D PUSH2 0x9EF JUMP JUMPDEST PUSH1 0x40 MLOAD PUSH2 0x181 SWAP2 SWAP1 PUSH2 0x22AA JUMP JUMPDEST CALLVALUE DUP1 ISZERO PUSH2 0x266 JUMPI PUSH1 0x0 DUP1 REVERT JUMPDEST POP PUSH2 0x1AA PUSH2 0x275 CALLDATASIZE PUSH1 0x4 PUSH2 0x1F10 JUMP JUMPDEST PUSH2 0xAC8 JUMP JUMPDEST CALLVALUE DUP1 ISZERO PUSH2 0x286 JUMPI PUSH1 0x0 DUP1 REVERT JUMPDEST POP PUSH2 0x29A PUSH2 0x295 CALLDATASIZE PUSH1 0x4 PUSH2 0x1EDC JUMP JUMPDEST PUSH2 0xC2C JUMP JUMPDEST PUSH1 0x40 MLOAD SWAP1 ISZERO ISZERO DUP2 MSTORE PUSH1 0x20 ADD PUSH2 0x181 JUMP JUMPDEST CALLVALUE DUP1 ISZERO PUSH2 0x2B6 JUMPI PUSH1 0x0 DUP1 REVERT JUMPDEST POP PUSH2 0x1AA PUSH2 0x2C5 CALLDATASIZE PUSH1 0x4 PUSH2 0x1EDC JUMP JUMPDEST PUSH2 0xC76 JUMP JUMPDEST CALLVALUE DUP1 ISZERO PUSH2 0x2D6 JUMPI PUSH1 0x0 DUP1 REVERT JUMPDEST POP PUSH2 0x2EA PUSH2 0x2E5 CALLDATASIZE PUSH1 0x4 PUSH2 0x1EDC JUMP JUMPDEST PUSH2 0xC8C JUMP JUMPDEST PUSH1 0x40 MLOAD PUSH2 0x181 SWAP2 SWAP1 PUSH2 0x230C JUMP JUMPDEST CALLVALUE DUP1 ISZERO PUSH2 0x303 JUMPI PUSH1 0x0 DUP1 REVERT JUMPDEST POP PUSH2 0x29A PUSH2 0x312 CALLDATASIZE PUSH1 0x4 PUSH2 0x1EDC JUMP JUMPDEST PUSH2 0xD5C JUMP JUMPDEST CALLVALUE DUP1 ISZERO PUSH2 0x323 JUMPI PUSH1 0x0 DUP1 REVERT JUMPDEST POP PUSH2 0x24D PUSH2 0xD72 JUMP JUMPDEST CALLVALUE DUP1 ISZERO PUSH2 0x338 JUMPI PUSH1 0x0 DUP1 REVERT JUMPDEST POP PUSH2 0x177 PUSH2 0x347 CALLDATASIZE PUSH1 0x4 PUSH2 0x1EDC JUMP JUMPDEST PUSH2 0xE42 JUMP JUMPDEST CALLVALUE DUP1 ISZERO PUSH2 0x358 JUMPI PUSH1 0x0 DUP1 REVERT JUMPDEST POP PUSH2 0x220 PUSH2 0x367 CALLDATASIZE PUSH1 0x4 PUSH2 0x1EDC JUMP JUMPDEST PUSH2 0xE58 JUMP JUMPDEST CALLVALUE DUP1 ISZERO PUSH2 0x378 JUMPI PUSH1 0x0 DUP1 REVERT JUMPDEST POP PUSH2 0x1AA PUSH2 0x387 CALLDATASIZE PUSH1 0x4 PUSH2 0x2098 JUMP JUMPDEST PUSH2 0xEF6 JUMP JUMPDEST CALLVALUE DUP1 ISZERO PUSH2 0x398 JUMPI PUSH1 0x0 DUP1 REVERT JUMPDEST POP PUSH2 0x1AA PUSH2 0x3A7 CALLDATASIZE PUSH1 0x4 PUSH2 0x1FF9 JUMP JUMPDEST PUSH2 0xFED JUMP JUMPDEST CALLVALUE DUP1 ISZERO PUSH2 0x3B8 JUMPI PUSH1 0x0 DUP1 REVERT JUMPDEST POP PUSH2 0x3CC PUSH2 0x3C7 CALLDATASIZE PUSH1 0x4 PUSH2 0x2104 JUMP JUMPDEST PUSH2 0x114E JUMP JUMPDEST PUSH1 0x40 MLOAD PUSH2 0x181 SWAP4 SWAP3 SWAP2 SWAP1 PUSH2 0x2201 JUMP JUMPDEST CALLVALUE DUP1 ISZERO PUSH2 0x3E7 JUMPI PUSH1 0x0 DUP1 REVERT JUMPDEST POP PUSH2 0x177 PUSH2 0x3F6 CALLDATASIZE PUSH1 0x4 PUSH2 0x1EDC JUMP JUMPDEST PUSH2 0x1219 JUMP JUMPDEST CALLVALUE DUP1 ISZERO PUSH2 0x407 JUMPI PUSH1 0x0 DUP1 REVERT JUMPDEST POP PUSH2 0x41B PUSH2 0x416 CALLDATASIZE PUSH1 0x4 PUSH2 0x1E64 JUMP JUMPDEST PUSH2 0x1249 JUMP JUMPDEST PUSH1 0x40 MLOAD PUSH2 0x181 SWAP9 SWAP8 SWAP7 SWAP6 SWAP5 SWAP4 SWAP3 SWAP2 SWAP1 PUSH2 0x2358 JUMP JUMPDEST CALLVALUE DUP1 ISZERO PUSH2 0x43B JUMPI PUSH1 0x0 DUP1 REVERT JUMPDEST POP PUSH2 0x44F PUSH2 0x44A CALLDATASIZE PUSH1 0x4 PUSH2 0x1E64 JUMP JUMPDEST PUSH2 0x1429 JUMP JUMPDEST PUSH1 0x40 MLOAD PUSH2 0x181 SWAP6 SWAP5 SWAP4 SWAP3 SWAP2 SWAP1 PUSH2 0x231F JUMP JUMPDEST CALLVALUE DUP1 ISZERO PUSH2 0x46C JUMPI PUSH1 0x0 DUP1 REVERT JUMPDEST POP PUSH2 0x177 PUSH2 0x47B CALLDATASIZE PUSH1 0x4 PUSH2 0x1EDC JUMP JUMPDEST PUSH2 0x14E3 JUMP JUMPDEST CALLVALUE DUP1 ISZERO PUSH2 0x48C JUMPI PUSH1 0x0 DUP1 REVERT JUMPDEST POP PUSH2 0x3CC PUSH2 0x49B CALLDATASIZE PUSH1 0x4 PUSH2 0x2104 JUMP JUMPDEST PUSH2 0x16EB JUMP JUMPDEST CALLVALUE DUP1 ISZERO PUSH2 0x4AC JUMPI PUSH1 0x0 DUP1 REVERT JUMPDEST POP PUSH2 0x220 PUSH2 0x4BB CALLDATASIZE PUSH1 0x4 PUSH2 0x1EDC JUMP JUMPDEST DUP1 MLOAD PUSH1 0x20 DUP2 DUP4 ADD DUP2 ADD DUP1 MLOAD PUSH1 0x1 DUP3 MSTORE SWAP3 DUP3 ADD SWAP2 SWAP1 SWAP4 ADD KECCAK256 SWAP2 MSTORE SLOAD PUSH1 0x1 PUSH1 0x1 PUSH1 0xA0 SHL SUB AND DUP2 JUMP JUMPDEST CALLVALUE DUP1 ISZERO PUSH2 0x4ED JUMPI PUSH1 0x0 DUP1 REVERT JUMPDEST POP PUSH2 0x177 PUSH2 0x4FC CALLDATASIZE PUSH1 0x4 PUSH2 0x1E64 JUMP JUMPDEST PUSH1 0x1 PUSH1 0x1 PUSH1 0xA0 SHL SUB AND PUSH1 0x0 SWAP1 DUP2 MSTORE PUSH1 0x4 PUSH1 0x20 MSTORE PUSH1 0x40 SWAP1 KECCAK256 PUSH1 0x2 ADD SLOAD SWAP1 JUMP JUMPDEST CALLVALUE DUP1 ISZERO PUSH2 0x526 JUMPI PUSH1 0x0 DUP1 REVERT JUMPDEST POP PUSH2 0x1AA PUSH2 0x535 CALLDATASIZE PUSH1 0x4 PUSH2 0x203D JUMP JUMPDEST PUSH2 0x16FB JUMP JUMPDEST CALLVALUE DUP1 ISZERO PUSH2 0x546 JUMPI PUSH1 0x0 DUP1 REVERT JUMPDEST POP PUSH2 0x1AA PUSH2 0x555 CALLDATASIZE PUSH1 0x4 PUSH2 0x1FF9 JUMP JUMPDEST PUSH2 0x19CF JUMP JUMPDEST CALLVALUE DUP1 ISZERO PUSH2 0x566 JUMPI PUSH1 0x0 DUP1 REVERT JUMPDEST POP PUSH2 0x57A PUSH2 0x575 CALLDATASIZE PUSH1 0x4 PUSH2 0x1EDC JUMP JUMPDEST PUSH2 0x1AF5 JUMP JUMPDEST PUSH1 0x40 MLOAD PUSH2 0x181 SWAP5 SWAP4 SWAP3 SWAP2 SWAP1 PUSH2 0x2273 JUMP JUMPDEST CALLVALUE DUP1 ISZERO PUSH2 0x596 JUMPI PUSH1 0x0 DUP1 REVERT JUMPDEST POP PUSH2 0x5AA PUSH2 0x5A5 CALLDATASIZE PUSH1 0x4 PUSH2 0x2104 JUMP JUMPDEST PUSH2 0x1BBB JUMP JUMPDEST PUSH1 0x40 MLOAD PUSH2 0x181 SWAP5 SWAP4 SWAP3 SWAP2 SWAP1 PUSH2 0x2237 JUMP JUMPDEST CALLVALUE DUP1 ISZERO PUSH2 0x5C6 JUMPI PUSH1 0x0 DUP1 REVERT JUMPDEST POP PUSH2 0x177 PUSH2 0x5D5 CALLDATASIZE PUSH1 0x4 PUSH2 0x1E64 JUMP JUMPDEST PUSH1 0x1 PUSH1 0x1 PUSH1 0xA0 SHL SUB AND PUSH1 0x0 SWAP1 DUP2 MSTORE PUSH1 0x20 DUP2 SWAP1 MSTORE PUSH1 0x40 SWAP1 KECCAK256 PUSH1 0x2 ADD SLOAD SWAP1 JUMP JUMPDEST PUSH1 0x0 DUP1 PUSH1 0x0 PUSH1 0x1 DUP5 PUSH1 0x40 MLOAD PUSH2 0x608 SWAP2 SWAP1 PUSH2 0x2149 JUMP JUMPDEST SWAP1 DUP2 MSTORE PUSH1 0x40 DUP1 MLOAD PUSH1 0x20 SWAP3 DUP2 SWAP1 SUB DUP4 ADD SWAP1 KECCAK256 SLOAD PUSH1 0x1 PUSH1 0x1 PUSH1 0xA0 SHL SUB AND DUP4 MSTORE SWAP1 DUP3 ADD SWAP3 SWAP1 SWAP3 MSTORE ADD PUSH1 0x0 KECCAK256 PUSH1 0x3 ADD SLOAD SWAP3 SWAP2 POP POP JUMP JUMPDEST PUSH1 0x0 DUP1 PUSH1 0x0 PUSH1 0x1 DUP5 PUSH1 0x40 MLOAD PUSH2 0x64F SWAP2 SWAP1 PUSH2 0x2149 JUMP JUMPDEST SWAP1 DUP2 MSTORE PUSH1 0x40 DUP1 MLOAD PUSH1 0x20 SWAP3 DUP2 SWAP1 SUB DUP4 ADD SWAP1 KECCAK256 SLOAD PUSH1 0x1 PUSH1 0x1 PUSH1 0xA0 SHL SUB AND DUP4 MSTORE SWAP1 DUP3 ADD SWAP3 SWAP1 SWAP3 MSTORE ADD PUSH1 0x0 KECCAK256 PUSH1 0x4 ADD DUP1 SLOAD PUSH1 0xFF NOT AND SWAP2 ISZERO ISZERO SWAP2 SWAP1 SWAP2 OR SWAP1 SSTORE POP JUMP JUMPDEST PUSH1 0x0 PUSH1 0x1 PUSH1 0x1 PUSH1 0xA0 SHL SUB AND PUSH1 0x5 DUP4 PUSH1 0x40 MLOAD PUSH2 0x6A7 SWAP2 SWAP1 PUSH2 0x2149 JUMP JUMPDEST SWAP1 DUP2 MSTORE PUSH1 0x40 MLOAD SWAP1 DUP2 SWAP1 SUB PUSH1 0x20 ADD SWAP1 KECCAK256 SLOAD PUSH1 0x1 PUSH1 0x1 PUSH1 0xA0 SHL SUB AND EQ PUSH2 0x70E JUMPI PUSH1 0x40 MLOAD PUSH3 0x461BCD PUSH1 0xE5 SHL DUP2 MSTORE PUSH1 0x20 PUSH1 0x4 DUP3 ADD MSTORE PUSH1 0x19 PUSH1 0x24 DUP3 ADD MSTORE PUSH25 0x115C9C9BDC8E88155CD95C88185B1C9958591E48195E1A5CDD PUSH1 0x3A SHL PUSH1 0x44 DUP3 ADD MSTORE PUSH1 0x64 ADD JUMPDEST PUSH1 0x40 MLOAD DUP1 SWAP2 SUB SWAP1 REVERT JUMPDEST PUSH1 0x40 DUP1 MLOAD PUSH1 0xA0 DUP2 ADD DUP3 MSTORE DUP4 DUP2 MSTORE PUSH1 0x20 DUP1 DUP3 ADD DUP5 SWAP1 MSTORE PUSH2 0x3E8 DUP3 DUP5 ADD MSTORE PUSH1 0x2 PUSH1 0x60 DUP4 ADD MSTORE PUSH1 0x0 PUSH1 0x80 DUP4 ADD DUP2 SWAP1 MSTORE PUSH1 0x1 PUSH1 0x1 PUSH1 0xA0 SHL SUB DUP8 AND DUP2 MSTORE PUSH1 0x4 DUP3 MSTORE SWAP3 SWAP1 SWAP3 KECCAK256 DUP2 MLOAD DUP1 MLOAD SWAP3 SWAP4 SWAP2 SWAP3 PUSH2 0x763 SWAP3 DUP5 SWAP3 ADD SWAP1 PUSH2 0x1C8D JUMP JUMPDEST POP PUSH1 0x20 DUP3 ADD MLOAD PUSH1 0x1 DUP3 ADD SSTORE PUSH1 0x40 DUP1 DUP4 ADD MLOAD PUSH1 0x2 DUP4 ADD SSTORE PUSH1 0x60 DUP4 ADD MLOAD PUSH1 0x3 DUP4 ADD SSTORE PUSH1 0x80 SWAP1 SWAP3 ADD MLOAD PUSH1 0x4 SWAP1 SWAP2 ADD DUP1 SLOAD PUSH1 0xFF NOT AND SWAP2 ISZERO ISZERO SWAP2 SWAP1 SWAP2 OR SWAP1 SSTORE MLOAD DUP4 SWAP1 PUSH1 0x5 SWAP1 PUSH2 0x7AE SWAP1 DUP6 SWAP1 PUSH2 0x2149 JUMP JUMPDEST SWAP1 DUP2 MSTORE PUSH1 0x40 MLOAD SWAP1 DUP2 SWAP1 SUB PUSH1 0x20 ADD SWAP1 KECCAK256 DUP1 SLOAD PUSH1 0x1 PUSH1 0x1 PUSH1 0xA0 SHL SUB SWAP3 DUP4 AND PUSH1 0x1 PUSH1 0x1 PUSH1 0xA0 SHL SUB NOT SWAP2 DUP3 AND OR SWAP1 SWAP2 SSTORE PUSH1 0x7 DUP1 SLOAD PUSH1 0x1 DUP2 ADD DUP3 SSTORE PUSH1 0x0 SWAP2 SWAP1 SWAP2 MSTORE PUSH32 0xA66CC928B5EDB82AF9BD49922954155AB7B0942694BEA4CE44661D9A8736C688 ADD DUP1 SLOAD SWAP6 SWAP1 SWAP3 AND SWAP5 AND SWAP4 SWAP1 SWAP4 OR SWAP1 SWAP3 SSTORE POP POP JUMP JUMPDEST PUSH1 0x8 DUP2 PUSH1 0x40 MLOAD PUSH2 0x82F SWAP2 SWAP1 PUSH2 0x2149 JUMP JUMPDEST SWAP1 DUP2 MSTORE PUSH1 0x20 ADD PUSH1 0x40 MLOAD DUP1 SWAP2 SUB SWAP1 KECCAK256 PUSH1 0x2 ADD SLOAD PUSH1 0x4 PUSH1 0x0 CALLER PUSH1 0x1 PUSH1 0x1 PUSH1 0xA0 SHL SUB AND PUSH1 0x1 PUSH1 0x1 PUSH1 0xA0 SHL SUB AND DUP2 MSTORE PUSH1 0x20 ADD SWAP1 DUP2 MSTORE PUSH1 0x20 ADD PUSH1 0x0 KECCAK256 PUSH1 0x2 ADD SLOAD LT ISZERO PUSH2 0x8AB JUMPI PUSH1 0x40 MLOAD PUSH3 0x461BCD PUSH1 0xE5 SHL DUP2 MSTORE PUSH1 0x20 PUSH1 0x4 DUP3 ADD MSTORE PUSH1 0x10 PUSH1 0x24 DUP3 ADD MSTORE PUSH16 0x6572726F723A206E6F74206D6F6E6579 PUSH1 0x80 SHL PUSH1 0x44 DUP3 ADD MSTORE PUSH1 0x64 ADD PUSH2 0x705 JUMP JUMPDEST PUSH1 0x40 DUP1 MLOAD PUSH1 0x80 DUP2 ADD DUP3 MSTORE CALLER DUP2 MSTORE PUSH1 0x20 DUP1 DUP3 ADD DUP5 DUP2 MSTORE CALLVALUE SWAP4 DUP4 ADD SWAP4 SWAP1 SWAP4 MSTORE PUSH1 0x1 PUSH1 0x60 DUP4 ADD DUP2 SWAP1 MSTORE PUSH1 0xA DUP1 SLOAD SWAP2 DUP3 ADD DUP2 SSTORE PUSH1 0x0 MSTORE DUP3 MLOAD PUSH32 0xC65A7BB8D6351C1CF70C95A316CC6A92839C986682D98BC35F958F4883F9D2A8 PUSH1 0x4 SWAP1 SWAP3 MUL SWAP2 DUP3 ADD DUP1 SLOAD PUSH1 0x1 PUSH1 0x1 PUSH1 0xA0 SHL SUB NOT AND PUSH1 0x1 PUSH1 0x1 PUSH1 0xA0 SHL SUB SWAP1 SWAP3 AND SWAP2 SWAP1 SWAP2 OR DUP2 SSTORE SWAP4 MLOAD DUP1 MLOAD SWAP4 SWAP5 SWAP4 PUSH2 0x95F SWAP4 PUSH32 0xC65A7BB8D6351C1CF70C95A316CC6A92839C986682D98BC35F958F4883F9D2A9 SWAP1 SWAP4 ADD SWAP3 SWAP2 SWAP1 SWAP2 ADD SWAP1 PUSH2 0x1C8D JUMP JUMPDEST POP PUSH1 0x40 DUP3 DUP2 ADD MLOAD PUSH1 0x2 DUP4 ADD SSTORE PUSH1 0x60 SWAP1 SWAP3 ADD MLOAD PUSH1 0x3 SWAP1 SWAP2 ADD DUP1 SLOAD PUSH1 0xFF NOT AND SWAP2 ISZERO ISZERO SWAP2 SWAP1 SWAP2 OR SWAP1 SSTORE MLOAD PUSH1 0x8 SWAP1 PUSH2 0x994 SWAP1 DUP4 SWAP1 PUSH2 0x2149 JUMP JUMPDEST SWAP1 DUP2 MSTORE PUSH1 0x20 ADD PUSH1 0x40 MLOAD DUP1 SWAP2 SUB SWAP1 KECCAK256 PUSH1 0x2 ADD SLOAD PUSH1 0x4 PUSH1 0x0 CALLER PUSH1 0x1 PUSH1 0x1 PUSH1 0xA0 SHL SUB AND PUSH1 0x1 PUSH1 0x1 PUSH1 0xA0 SHL SUB AND DUP2 MSTORE PUSH1 0x20 ADD SWAP1 DUP2 MSTORE PUSH1 0x20 ADD PUSH1 0x0 KECCAK256 PUSH1 0x2 ADD SLOAD PUSH2 0x9D9 SWAP2 SWAP1 PUSH2 0x24C9 JUMP JUMPDEST CALLER PUSH1 0x0 SWAP1 DUP2 MSTORE PUSH1 0x4 PUSH1 0x20 MSTORE PUSH1 0x40 SWAP1 KECCAK256 PUSH1 0x2 ADD SSTORE POP JUMP JUMPDEST PUSH1 0x60 PUSH1 0x2 DUP1 SLOAD DUP1 PUSH1 0x20 MUL PUSH1 0x20 ADD PUSH1 0x40 MLOAD SWAP1 DUP2 ADD PUSH1 0x40 MSTORE DUP1 SWAP3 SWAP2 SWAP1 DUP2 DUP2 MSTORE PUSH1 0x20 ADD PUSH1 0x0 SWAP1 JUMPDEST DUP3 DUP3 LT ISZERO PUSH2 0xABF JUMPI DUP4 DUP3 SWAP1 PUSH1 0x0 MSTORE PUSH1 0x20 PUSH1 0x0 KECCAK256 ADD DUP1 SLOAD PUSH2 0xA32 SWAP1 PUSH2 0x250C JUMP JUMPDEST DUP1 PUSH1 0x1F ADD PUSH1 0x20 DUP1 SWAP2 DIV MUL PUSH1 0x20 ADD PUSH1 0x40 MLOAD SWAP1 DUP2 ADD PUSH1 0x40 MSTORE DUP1 SWAP3 SWAP2 SWAP1 DUP2 DUP2 MSTORE PUSH1 0x20 ADD DUP3 DUP1 SLOAD PUSH2 0xA5E SWAP1 PUSH2 0x250C JUMP JUMPDEST DUP1 ISZERO PUSH2 0xAAB JUMPI DUP1 PUSH1 0x1F LT PUSH2 0xA80 JUMPI PUSH2 0x100 DUP1 DUP4 SLOAD DIV MUL DUP4 MSTORE SWAP2 PUSH1 0x20 ADD SWAP2 PUSH2 0xAAB JUMP JUMPDEST DUP3 ADD SWAP2 SWAP1 PUSH1 0x0 MSTORE PUSH1 0x20 PUSH1 0x0 KECCAK256 SWAP1 JUMPDEST DUP2 SLOAD DUP2 MSTORE SWAP1 PUSH1 0x1 ADD SWAP1 PUSH1 0x20 ADD DUP1 DUP4 GT PUSH2 0xA8E JUMPI DUP3 SWAP1 SUB PUSH1 0x1F AND DUP3 ADD SWAP2 JUMPDEST POP POP POP POP POP DUP2 MSTORE PUSH1 0x20 ADD SWAP1 PUSH1 0x1 ADD SWAP1 PUSH2 0xA13 JUMP JUMPDEST POP POP POP POP SWAP1 POP SWAP1 JUMP JUMPDEST PUSH1 0x0 JUMPDEST PUSH1 0x3 SLOAD DUP2 LT ISZERO PUSH2 0xC27 JUMPI PUSH1 0x0 PUSH1 0x3 DUP3 DUP2 SLOAD DUP2 LT PUSH2 0xAEA JUMPI PUSH2 0xAEA PUSH2 0x2578 JUMP JUMPDEST SWAP1 PUSH1 0x0 MSTORE PUSH1 0x20 PUSH1 0x0 KECCAK256 SWAP1 PUSH1 0x5 MUL ADD PUSH1 0x1 ADD DUP1 SLOAD PUSH2 0xB06 SWAP1 PUSH2 0x250C JUMP JUMPDEST DUP1 PUSH1 0x1F ADD PUSH1 0x20 DUP1 SWAP2 DIV MUL PUSH1 0x20 ADD PUSH1 0x40 MLOAD SWAP1 DUP2 ADD PUSH1 0x40 MSTORE DUP1 SWAP3 SWAP2 SWAP1 DUP2 DUP2 MSTORE PUSH1 0x20 ADD DUP3 DUP1 SLOAD PUSH2 0xB32 SWAP1 PUSH2 0x250C JUMP JUMPDEST DUP1 ISZERO PUSH2 0xB7F JUMPI DUP1 PUSH1 0x1F LT PUSH2 0xB54 JUMPI PUSH2 0x100 DUP1 DUP4 SLOAD DIV MUL DUP4 MSTORE SWAP2 PUSH1 0x20 ADD SWAP2 PUSH2 0xB7F JUMP JUMPDEST DUP3 ADD SWAP2 SWAP1 PUSH1 0x0 MSTORE PUSH1 0x20 PUSH1 0x0 KECCAK256 SWAP1 JUMPDEST DUP2 SLOAD DUP2 MSTORE SWAP1 PUSH1 0x1 ADD SWAP1 PUSH1 0x20 ADD DUP1 DUP4 GT PUSH2 0xB62 JUMPI DUP3 SWAP1 SUB PUSH1 0x1F AND DUP3 ADD SWAP2 JUMPDEST POP POP POP POP POP SWAP1 POP DUP4 PUSH1 0x40 MLOAD PUSH1 0x20 ADD PUSH2 0xB97 SWAP2 SWAP1 PUSH2 0x2149 JUMP JUMPDEST PUSH1 0x40 MLOAD PUSH1 0x20 DUP2 DUP4 SUB SUB DUP2 MSTORE SWAP1 PUSH1 0x40 MSTORE DUP1 MLOAD SWAP1 PUSH1 0x20 ADD KECCAK256 DUP2 PUSH1 0x40 MLOAD PUSH1 0x20 ADD PUSH2 0xBBE SWAP2 SWAP1 PUSH2 0x2149 JUMP JUMPDEST PUSH1 0x40 MLOAD PUSH1 0x20 DUP2 DUP4 SUB SUB DUP2 MSTORE SWAP1 PUSH1 0x40 MSTORE DUP1 MLOAD SWAP1 PUSH1 0x20 ADD KECCAK256 EQ ISZERO PUSH2 0xC14 JUMPI DUP3 PUSH1 0x3 DUP4 DUP2 SLOAD DUP2 LT PUSH2 0xBEE JUMPI PUSH2 0xBEE PUSH2 0x2578 JUMP JUMPDEST SWAP1 PUSH1 0x0 MSTORE PUSH1 0x20 PUSH1 0x0 KECCAK256 SWAP1 PUSH1 0x5 MUL ADD PUSH1 0x4 ADD SWAP1 DUP1 MLOAD SWAP1 PUSH1 0x20 ADD SWAP1 PUSH2 0xC12 SWAP3 SWAP2 SWAP1 PUSH2 0x1D11 JUMP JUMPDEST POP JUMPDEST POP DUP1 PUSH2 0xC1F DUP2 PUSH2 0x2547 JUMP JUMPDEST SWAP2 POP POP PUSH2 0xACB JUMP JUMPDEST POP POP POP JUMP JUMPDEST PUSH1 0x0 DUP1 PUSH1 0x0 PUSH1 0x1 DUP5 PUSH1 0x40 MLOAD PUSH2 0xC41 SWAP2 SWAP1 PUSH2 0x2149 JUMP JUMPDEST SWAP1 DUP2 MSTORE PUSH1 0x40 DUP1 MLOAD PUSH1 0x20 SWAP3 DUP2 SWAP1 SUB DUP4 ADD SWAP1 KECCAK256 SLOAD PUSH1 0x1 PUSH1 0x1 PUSH1 0xA0 SHL SUB AND DUP4 MSTORE SWAP1 DUP3 ADD SWAP3 SWAP1 SWAP3 MSTORE ADD PUSH1 0x0 KECCAK256 PUSH1 0x4 ADD SLOAD PUSH1 0xFF AND SWAP3 SWAP2 POP POP JUMP JUMPDEST PUSH1 0x0 PUSH1 0x4 PUSH1 0x0 PUSH1 0x5 DUP5 PUSH1 0x40 MLOAD PUSH2 0x64F SWAP2 SWAP1 PUSH2 0x2149 JUMP JUMPDEST PUSH1 0x60 PUSH1 0x0 DUP1 PUSH1 0x1 DUP5 PUSH1 0x40 MLOAD PUSH2 0xCA1 SWAP2 SWAP1 PUSH2 0x2149 JUMP JUMPDEST SWAP1 DUP2 MSTORE PUSH1 0x40 DUP1 MLOAD PUSH1 0x20 SWAP3 DUP2 SWAP1 SUB DUP4 ADD SWAP1 KECCAK256 SLOAD PUSH1 0x1 PUSH1 0x1 PUSH1 0xA0 SHL SUB AND DUP4 MSTORE SWAP1 DUP3 ADD SWAP3 SWAP1 SWAP3 MSTORE ADD PUSH1 0x0 KECCAK256 PUSH1 0x6 ADD DUP1 SLOAD PUSH2 0xCD7 SWAP1 PUSH2 0x250C JUMP JUMPDEST DUP1 PUSH1 0x1F ADD PUSH1 0x20 DUP1 SWAP2 DIV MUL PUSH1 0x20 ADD PUSH1 0x40 MLOAD SWAP1 DUP2 ADD PUSH1 0x40 MSTORE DUP1 SWAP3 SWAP2 SWAP1 DUP2 DUP2 MSTORE PUSH1 0x20 ADD DUP3 DUP1 SLOAD PUSH2 0xD03 SWAP1 PUSH2 0x250C JUMP JUMPDEST DUP1 ISZERO PUSH2 0xD50 JUMPI DUP1 PUSH1 0x1F LT PUSH2 0xD25 JUMPI PUSH2 0x100 DUP1 DUP4 SLOAD DIV MUL DUP4 MSTORE SWAP2 PUSH1 0x20 ADD SWAP2 PUSH2 0xD50 JUMP JUMPDEST DUP3 ADD SWAP2 SWAP1 PUSH1 0x0 MSTORE PUSH1 0x20 PUSH1 0x0 KECCAK256 SWAP1 JUMPDEST DUP2 SLOAD DUP2 MSTORE SWAP1 PUSH1 0x1 ADD SWAP1 PUSH1 0x20 ADD DUP1 DUP4 GT PUSH2 0xD33 JUMPI DUP3 SWAP1 SUB PUSH1 0x1F AND DUP3 ADD SWAP2 JUMPDEST POP POP POP POP POP SWAP1 POP SWAP2 SWAP1 POP JUMP JUMPDEST PUSH1 0x0 PUSH1 0x4 PUSH1 0x0 PUSH1 0x5 DUP5 PUSH1 0x40 MLOAD PUSH2 0xC41 SWAP2 SWAP1 PUSH2 0x2149 JUMP JUMPDEST PUSH1 0x60 PUSH1 0x9 DUP1 SLOAD DUP1 PUSH1 0x20 MUL PUSH1 0x20 ADD PUSH1 0x40 MLOAD SWAP1 DUP2 ADD PUSH1 0x40 MSTORE DUP1 SWAP3 SWAP2 SWAP1 DUP2 DUP2 MSTORE PUSH1 0x20 ADD PUSH1 0x0 SWAP1 JUMPDEST DUP3 DUP3 LT ISZERO PUSH2 0xABF JUMPI DUP4 DUP3 SWAP1 PUSH1 0x0 MSTORE PUSH1 0x20 PUSH1 0x0 KECCAK256 ADD DUP1 SLOAD PUSH2 0xDB5 SWAP1 PUSH2 0x250C JUMP JUMPDEST DUP1 PUSH1 0x1F ADD PUSH1 0x20 DUP1 SWAP2 DIV MUL PUSH1 0x20 ADD PUSH1 0x40 MLOAD SWAP1 DUP2 ADD PUSH1 0x40 MSTORE DUP1 SWAP3 SWAP2 SWAP1 DUP2 DUP2 MSTORE PUSH1 0x20 ADD DUP3 DUP1 SLOAD PUSH2 0xDE1 SWAP1 PUSH2 0x250C JUMP JUMPDEST DUP1 ISZERO PUSH2 0xE2E JUMPI DUP1 PUSH1 0x1F LT PUSH2 0xE03 JUMPI PUSH2 0x100 DUP1 DUP4 SLOAD DIV MUL DUP4 MSTORE SWAP2 PUSH1 0x20 ADD SWAP2 PUSH2 0xE2E JUMP JUMPDEST DUP3 ADD SWAP2 SWAP1 PUSH1 0x0 MSTORE PUSH1 0x20 PUSH1 0x0 KECCAK256 SWAP1 JUMPDEST DUP2 SLOAD DUP2 MSTORE SWAP1 PUSH1 0x1 ADD SWAP1 PUSH1 0x20 ADD DUP1 DUP4 GT PUSH2 0xE11 JUMPI DUP3 SWAP1 SUB PUSH1 0x1F AND DUP3 ADD SWAP2 JUMPDEST POP POP POP POP POP DUP2 MSTORE PUSH1 0x20 ADD SWAP1 PUSH1 0x1 ADD SWAP1 PUSH2 0xD96 JUMP JUMPDEST PUSH1 0x0 PUSH1 0x4 PUSH1 0x0 PUSH1 0x5 DUP5 PUSH1 0x40 MLOAD PUSH2 0x608 SWAP2 SWAP1 PUSH2 0x2149 JUMP JUMPDEST PUSH1 0x0 DUP1 PUSH1 0x0 PUSH1 0x1 PUSH1 0x1 PUSH1 0xA0 SHL SUB AND PUSH1 0x5 DUP5 PUSH1 0x40 MLOAD PUSH2 0xE76 SWAP2 SWAP1 PUSH2 0x2149 JUMP JUMPDEST SWAP1 DUP2 MSTORE PUSH1 0x40 MLOAD SWAP1 DUP2 SWAP1 SUB PUSH1 0x20 ADD SWAP1 KECCAK256 SLOAD PUSH1 0x1 PUSH1 0x1 PUSH1 0xA0 SHL SUB AND EQ PUSH2 0xEC4 JUMPI PUSH1 0x5 DUP4 PUSH1 0x40 MLOAD PUSH2 0xEA4 SWAP2 SWAP1 PUSH2 0x2149 JUMP JUMPDEST SWAP1 DUP2 MSTORE PUSH1 0x40 MLOAD SWAP1 DUP2 SWAP1 SUB PUSH1 0x20 ADD SWAP1 KECCAK256 SLOAD PUSH1 0x1 PUSH1 0x1 PUSH1 0xA0 SHL SUB AND SWAP1 POP PUSH2 0xEF0 JUMP JUMPDEST PUSH1 0x1 DUP4 PUSH1 0x40 MLOAD PUSH2 0xED4 SWAP2 SWAP1 PUSH2 0x2149 JUMP JUMPDEST SWAP1 DUP2 MSTORE PUSH1 0x40 MLOAD SWAP1 DUP2 SWAP1 SUB PUSH1 0x20 ADD SWAP1 KECCAK256 SLOAD PUSH1 0x1 PUSH1 0x1 PUSH1 0xA0 SHL SUB AND SWAP1 POP JUMPDEST SWAP3 SWAP2 POP POP JUMP JUMPDEST PUSH1 0x40 MLOAD DUP1 PUSH1 0x80 ADD PUSH1 0x40 MSTORE DUP1 CALLER PUSH1 0x1 PUSH1 0x1 PUSH1 0xA0 SHL SUB AND DUP2 MSTORE PUSH1 0x20 ADD DUP3 DUP2 MSTORE PUSH1 0x20 ADD DUP4 DUP2 MSTORE PUSH1 0x20 ADD PUSH1 0xD SLOAD DUP2 MSTORE POP PUSH1 0x8 DUP5 PUSH1 0x40 MLOAD PUSH2 0xF32 SWAP2 SWAP1 PUSH2 0x2149 JUMP JUMPDEST SWAP1 DUP2 MSTORE PUSH1 0x40 MLOAD PUSH1 0x20 SWAP2 DUP2 SWAP1 SUB DUP3 ADD SWAP1 KECCAK256 DUP3 MLOAD DUP2 SLOAD PUSH1 0x1 PUSH1 0x1 PUSH1 0xA0 SHL SUB NOT AND PUSH1 0x1 PUSH1 0x1 PUSH1 0xA0 SHL SUB SWAP1 SWAP2 AND OR DUP2 SSTORE DUP3 DUP3 ADD MLOAD DUP1 MLOAD SWAP2 SWAP3 PUSH2 0xF78 SWAP3 PUSH1 0x1 DUP6 ADD SWAP3 SWAP1 SWAP2 ADD SWAP1 PUSH2 0x1C8D JUMP JUMPDEST POP PUSH1 0x40 DUP3 ADD MLOAD PUSH1 0x2 DUP3 ADD SSTORE PUSH1 0x60 SWAP1 SWAP2 ADD MLOAD PUSH1 0x3 SWAP1 SWAP2 ADD SSTORE PUSH1 0x9 DUP1 SLOAD PUSH1 0x1 DUP2 ADD DUP3 SSTORE PUSH1 0x0 SWAP2 SWAP1 SWAP2 MSTORE DUP4 MLOAD PUSH2 0xFD2 SWAP2 PUSH32 0x6E1540171B6C0C960B71A7020D9F60077F6AF931A8BBF590DA0223DACF75C7AF ADD SWAP1 PUSH1 0x20 DUP7 ADD SWAP1 PUSH2 0x1C8D JUMP JUMPDEST POP PUSH1 0xD DUP1 SLOAD SWAP1 PUSH1 0x0 PUSH2 0xFE3 DUP4 PUSH2 0x2547 JUMP JUMPDEST SWAP2 SWAP1 POP SSTORE POP POP POP POP JUMP JUMPDEST PUSH1 0x0 DUP1 PUSH1 0x1 DUP5 PUSH1 0x40 MLOAD PUSH2 0x1000 SWAP2 SWAP1 PUSH2 0x2149 JUMP JUMPDEST SWAP1 DUP2 MSTORE PUSH1 0x40 DUP1 MLOAD PUSH1 0x20 SWAP3 DUP2 SWAP1 SUB DUP4 ADD SWAP1 KECCAK256 SLOAD PUSH1 0x1 PUSH1 0x1 PUSH1 0xA0 SHL SUB AND DUP4 MSTORE SWAP1 DUP3 ADD SWAP3 SWAP1 SWAP3 MSTORE ADD PUSH1 0x0 KECCAK256 PUSH1 0x4 ADD SLOAD PUSH1 0xFF AND ISZERO PUSH2 0x104C JUMPI PUSH1 0x40 MLOAD PUSH3 0x461BCD PUSH1 0xE5 SHL DUP2 MSTORE PUSH1 0x4 ADD PUSH2 0x705 SWAP1 PUSH2 0x2428 JUMP JUMPDEST PUSH1 0x0 PUSH1 0x1 PUSH1 0x1 PUSH1 0xA0 SHL SUB AND PUSH1 0x1 DUP4 PUSH1 0x40 MLOAD PUSH2 0x1067 SWAP2 SWAP1 PUSH2 0x2149 JUMP JUMPDEST SWAP1 DUP2 MSTORE PUSH1 0x40 MLOAD SWAP1 DUP2 SWAP1 SUB PUSH1 0x20 ADD SWAP1 KECCAK256 SLOAD PUSH1 0x1 PUSH1 0x1 PUSH1 0xA0 SHL SUB AND EQ ISZERO PUSH2 0x109E JUMPI PUSH1 0x40 MLOAD PUSH3 0x461BCD PUSH1 0xE5 SHL DUP2 MSTORE PUSH1 0x4 ADD PUSH2 0x705 SWAP1 PUSH2 0x23F5 JUMP JUMPDEST DUP1 PUSH1 0x0 DUP1 PUSH1 0x1 DUP6 PUSH1 0x40 MLOAD PUSH2 0x10B2 SWAP2 SWAP1 PUSH2 0x2149 JUMP JUMPDEST SWAP1 DUP2 MSTORE PUSH1 0x40 DUP1 MLOAD PUSH1 0x20 SWAP3 DUP2 SWAP1 SUB DUP4 ADD SWAP1 KECCAK256 SLOAD PUSH1 0x1 PUSH1 0x1 PUSH1 0xA0 SHL SUB AND DUP4 MSTORE SWAP1 DUP3 ADD SWAP3 SWAP1 SWAP3 MSTORE ADD PUSH1 0x0 KECCAK256 PUSH1 0x1 ADD SLOAD EQ PUSH2 0x10FB JUMPI PUSH1 0x40 MLOAD PUSH3 0x461BCD PUSH1 0xE5 SHL DUP2 MSTORE PUSH1 0x4 ADD PUSH2 0x705 SWAP1 PUSH2 0x23C4 JUMP JUMPDEST PUSH1 0x1 PUSH1 0x0 DUP1 PUSH1 0x1 DUP6 PUSH1 0x40 MLOAD PUSH2 0x1110 SWAP2 SWAP1 PUSH2 0x2149 JUMP JUMPDEST SWAP1 DUP2 MSTORE PUSH1 0x40 DUP1 MLOAD PUSH1 0x20 SWAP3 DUP2 SWAP1 SUB DUP4 ADD SWAP1 KECCAK256 SLOAD PUSH1 0x1 PUSH1 0x1 PUSH1 0xA0 SHL SUB AND DUP4 MSTORE SWAP1 DUP3 ADD SWAP3 SWAP1 SWAP3 MSTORE ADD PUSH1 0x0 KECCAK256 PUSH1 0x4 ADD DUP1 SLOAD PUSH1 0xFF NOT AND SWAP2 ISZERO ISZERO SWAP2 SWAP1 SWAP2 OR SWAP1 SSTORE POP POP JUMP JUMPDEST PUSH1 0xC DUP2 DUP2 SLOAD DUP2 LT PUSH2 0x115E JUMPI PUSH1 0x0 DUP1 REVERT JUMPDEST PUSH1 0x0 SWAP2 DUP3 MSTORE PUSH1 0x20 SWAP1 SWAP2 KECCAK256 PUSH1 0x3 SWAP1 SWAP2 MUL ADD DUP1 SLOAD PUSH1 0x1 DUP3 ADD DUP1 SLOAD PUSH1 0x1 PUSH1 0x1 PUSH1 0xA0 SHL SUB SWAP1 SWAP3 AND SWAP4 POP SWAP1 PUSH2 0x118D SWAP1 PUSH2 0x250C JUMP JUMPDEST DUP1 PUSH1 0x1F ADD PUSH1 0x20 DUP1 SWAP2 DIV MUL PUSH1 0x20 ADD PUSH1 0x40 MLOAD SWAP1 DUP2 ADD PUSH1 0x40 MSTORE DUP1 SWAP3 SWAP2 SWAP1 DUP2 DUP2 MSTORE PUSH1 0x20 ADD DUP3 DUP1 SLOAD PUSH2 0x11B9 SWAP1 PUSH2 0x250C JUMP JUMPDEST DUP1 ISZERO PUSH2 0x1206 JUMPI DUP1 PUSH1 0x1F LT PUSH2 0x11DB JUMPI PUSH2 0x100 DUP1 DUP4 SLOAD DIV MUL DUP4 MSTORE SWAP2 PUSH1 0x20 ADD SWAP2 PUSH2 0x1206 JUMP JUMPDEST DUP3 ADD SWAP2 SWAP1 PUSH1 0x0 MSTORE PUSH1 0x20 PUSH1 0x0 KECCAK256 SWAP1 JUMPDEST DUP2 SLOAD DUP2 MSTORE SWAP1 PUSH1 0x1 ADD SWAP1 PUSH1 0x20 ADD DUP1 DUP4 GT PUSH2 0x11E9 JUMPI DUP3 SWAP1 SUB PUSH1 0x1F AND DUP3 ADD SWAP2 JUMPDEST POP POP POP PUSH1 0x2 SWAP1 SWAP4 ADD SLOAD SWAP2 SWAP3 POP POP PUSH1 0xFF AND DUP4 JUMP JUMPDEST PUSH1 0x0 DUP2 PUSH1 0x40 MLOAD PUSH1 0x20 ADD PUSH2 0x122C SWAP2 SWAP1 PUSH2 0x2149 JUMP JUMPDEST PUSH1 0x40 MLOAD PUSH1 0x20 DUP2 DUP4 SUB SUB DUP2 MSTORE SWAP1 PUSH1 0x40 MSTORE DUP1 MLOAD SWAP1 PUSH1 0x20 ADD KECCAK256 SWAP1 POP SWAP2 SWAP1 POP JUMP JUMPDEST PUSH1 0x0 PUSH1 0x20 DUP2 SWAP1 MSTORE SWAP1 DUP2 MSTORE PUSH1 0x40 SWAP1 KECCAK256 DUP1 SLOAD DUP2 SWAP1 PUSH2 0x1264 SWAP1 PUSH2 0x250C JUMP JUMPDEST DUP1 PUSH1 0x1F ADD PUSH1 0x20 DUP1 SWAP2 DIV MUL PUSH1 0x20 ADD PUSH1 0x40 MLOAD SWAP1 DUP2 ADD PUSH1 0x40 MSTORE DUP1 SWAP3 SWAP2 SWAP1 DUP2 DUP2 MSTORE PUSH1 0x20 ADD DUP3 DUP1 SLOAD PUSH2 0x1290 SWAP1 PUSH2 0x250C JUMP JUMPDEST DUP1 ISZERO PUSH2 0x12DD JUMPI DUP1 PUSH1 0x1F LT PUSH2 0x12B2 JUMPI PUSH2 0x100 DUP1 DUP4 SLOAD DIV MUL DUP4 MSTORE SWAP2 PUSH1 0x20 ADD SWAP2 PUSH2 0x12DD JUMP JUMPDEST DUP3 ADD SWAP2 SWAP1 PUSH1 0x0 MSTORE PUSH1 0x20 PUSH1 0x0 KECCAK256 SWAP1 JUMPDEST DUP2 SLOAD DUP2 MSTORE SWAP1 PUSH1 0x1 ADD SWAP1 PUSH1 0x20 ADD DUP1 DUP4 GT PUSH2 0x12C0 JUMPI DUP3 SWAP1 SUB PUSH1 0x1F AND DUP3 ADD SWAP2 JUMPDEST POP POP POP PUSH1 0x1 DUP5 ADD SLOAD PUSH1 0x2 DUP6 ADD SLOAD PUSH1 0x3 DUP7 ADD SLOAD PUSH1 0x4 DUP8 ADD SLOAD PUSH1 0x5 DUP9 ADD DUP1 SLOAD SWAP8 SWAP9 SWAP5 SWAP8 SWAP4 SWAP7 POP SWAP2 SWAP5 POP PUSH1 0xFF AND SWAP3 SWAP2 PUSH2 0x1312 SWAP1 PUSH2 0x250C JUMP JUMPDEST DUP1 PUSH1 0x1F ADD PUSH1 0x20 DUP1 SWAP2 DIV MUL PUSH1 0x20 ADD PUSH1 0x40 MLOAD SWAP1 DUP2 ADD PUSH1 0x40 MSTORE DUP1 SWAP3 SWAP2 SWAP1 DUP2 DUP2 MSTORE PUSH1 0x20 ADD DUP3 DUP1 SLOAD PUSH2 0x133E SWAP1 PUSH2 0x250C JUMP JUMPDEST DUP1 ISZERO PUSH2 0x138B JUMPI DUP1 PUSH1 0x1F LT PUSH2 0x1360 JUMPI PUSH2 0x100 DUP1 DUP4 SLOAD DIV MUL DUP4 MSTORE SWAP2 PUSH1 0x20 ADD SWAP2 PUSH2 0x138B JUMP JUMPDEST DUP3 ADD SWAP2 SWAP1 PUSH1 0x0 MSTORE PUSH1 0x20 PUSH1 0x0 KECCAK256 SWAP1 JUMPDEST DUP2 SLOAD DUP2 MSTORE SWAP1 PUSH1 0x1 ADD SWAP1 PUSH1 0x20 ADD DUP1 DUP4 GT PUSH2 0x136E JUMPI DUP3 SWAP1 SUB PUSH1 0x1F AND DUP3 ADD SWAP2 JUMPDEST POP POP POP POP POP SWAP1 DUP1 PUSH1 0x6 ADD DUP1 SLOAD PUSH2 0x13A0 SWAP1 PUSH2 0x250C JUMP JUMPDEST DUP1 PUSH1 0x1F ADD PUSH1 0x20 DUP1 SWAP2 DIV MUL PUSH1 0x20 ADD PUSH1 0x40 MLOAD SWAP1 DUP2 ADD PUSH1 0x40 MSTORE DUP1 SWAP3 SWAP2 SWAP1 DUP2 DUP2 MSTORE PUSH1 0x20 ADD DUP3 DUP1 SLOAD PUSH2 0x13CC SWAP1 PUSH2 0x250C JUMP JUMPDEST DUP1 ISZERO PUSH2 0x1419 JUMPI DUP1 PUSH1 0x1F LT PUSH2 0x13EE JUMPI PUSH2 0x100 DUP1 DUP4 SLOAD DIV MUL DUP4 MSTORE SWAP2 PUSH1 0x20 ADD SWAP2 PUSH2 0x1419 JUMP JUMPDEST DUP3 ADD SWAP2 SWAP1 PUSH1 0x0 MSTORE PUSH1 0x20 PUSH1 0x0 KECCAK256 SWAP1 JUMPDEST DUP2 SLOAD DUP2 MSTORE SWAP1 PUSH1 0x1 ADD SWAP1 PUSH1 0x20 ADD DUP1 DUP4 GT PUSH2 0x13FC JUMPI DUP3 SWAP1 SUB PUSH1 0x1F AND DUP3 ADD SWAP2 JUMPDEST POP POP POP POP POP SWAP1 DUP1 PUSH1 0x7 ADD SLOAD SWAP1 POP DUP9 JUMP JUMPDEST PUSH1 0x4 PUSH1 0x20 MSTORE PUSH1 0x0 SWAP1 DUP2 MSTORE PUSH1 0x40 SWAP1 KECCAK256 DUP1 SLOAD DUP2 SWAP1 PUSH2 0x1444 SWAP1 PUSH2 0x250C JUMP JUMPDEST DUP1 PUSH1 0x1F ADD PUSH1 0x20 DUP1 SWAP2 DIV MUL PUSH1 0x20 ADD PUSH1 0x40 MLOAD SWAP1 DUP2 ADD PUSH1 0x40 MSTORE DUP1 SWAP3 SWAP2 SWAP1 DUP2 DUP2 MSTORE PUSH1 0x20 ADD DUP3 DUP1 SLOAD PUSH2 0x1470 SWAP1 PUSH2 0x250C JUMP JUMPDEST DUP1 ISZERO PUSH2 0x14BD JUMPI DUP1 PUSH1 0x1F LT PUSH2 0x1492 JUMPI PUSH2 0x100 DUP1 DUP4 SLOAD DIV MUL DUP4 MSTORE SWAP2 PUSH1 0x20 ADD SWAP2 PUSH2 0x14BD JUMP JUMPDEST DUP3 ADD SWAP2 SWAP1 PUSH1 0x0 MSTORE PUSH1 0x20 PUSH1 0x0 KECCAK256 SWAP1 JUMPDEST DUP2 SLOAD DUP2 MSTORE SWAP1 PUSH1 0x1 ADD SWAP1 PUSH1 0x20 ADD DUP1 DUP4 GT PUSH2 0x14A0 JUMPI DUP3 SWAP1 SUB PUSH1 0x1F AND DUP3 ADD SWAP2 JUMPDEST POP POP POP POP PUSH1 0x1 DUP4 ADD SLOAD PUSH1 0x2 DUP5 ADD SLOAD PUSH1 0x3 DUP6 ADD SLOAD PUSH1 0x4 SWAP1 SWAP6 ADD SLOAD SWAP4 SWAP5 SWAP2 SWAP4 SWAP1 SWAP3 POP PUSH1 0xFF AND DUP6 JUMP JUMPDEST PUSH1 0x0 DUP1 DUP1 DUP1 JUMPDEST PUSH1 0x2 SLOAD DUP2 LT ISZERO PUSH2 0x16CE JUMPI PUSH1 0x0 PUSH1 0x2 DUP3 DUP2 SLOAD DUP2 LT PUSH2 0x1508 JUMPI PUSH2 0x1508 PUSH2 0x2578 JUMP JUMPDEST SWAP1 PUSH1 0x0 MSTORE PUSH1 0x20 PUSH1 0x0 KECCAK256 ADD DUP1 SLOAD PUSH2 0x151D SWAP1 PUSH2 0x250C JUMP JUMPDEST DUP1 PUSH1 0x1F ADD PUSH1 0x20 DUP1 SWAP2 DIV MUL PUSH1 0x20 ADD PUSH1 0x40 MLOAD SWAP1 DUP2 ADD PUSH1 0x40 MSTORE DUP1 SWAP3 SWAP2 SWAP1 DUP2 DUP2 MSTORE PUSH1 0x20 ADD DUP3 DUP1 SLOAD PUSH2 0x1549 SWAP1 PUSH2 0x250C JUMP JUMPDEST DUP1 ISZERO PUSH2 0x1596 JUMPI DUP1 PUSH1 0x1F LT PUSH2 0x156B JUMPI PUSH2 0x100 DUP1 DUP4 SLOAD DIV MUL DUP4 MSTORE SWAP2 PUSH1 0x20 ADD SWAP2 PUSH2 0x1596 JUMP JUMPDEST DUP3 ADD SWAP2 SWAP1 PUSH1 0x0 MSTORE PUSH1 0x20 PUSH1 0x0 KECCAK256 SWAP1 JUMPDEST DUP2 SLOAD DUP2 MSTORE SWAP1 PUSH1 0x1 ADD SWAP1 PUSH1 0x20 ADD DUP1 DUP4 GT PUSH2 0x1579 JUMPI DUP3 SWAP1 SUB PUSH1 0x1F AND DUP3 ADD SWAP2 JUMPDEST POP POP POP POP POP SWAP1 POP DUP6 PUSH1 0x40 MLOAD PUSH1 0x20 ADD PUSH2 0x15AE SWAP2 SWAP1 PUSH2 0x2149 JUMP JUMPDEST PUSH1 0x40 MLOAD PUSH1 0x20 DUP2 DUP4 SUB SUB DUP2 MSTORE SWAP1 PUSH1 0x40 MSTORE DUP1 MLOAD SWAP1 PUSH1 0x20 ADD KECCAK256 DUP2 PUSH1 0x40 MLOAD PUSH1 0x20 ADD PUSH2 0x15D5 SWAP2 SWAP1 PUSH2 0x2149 JUMP JUMPDEST PUSH1 0x40 MLOAD PUSH1 0x20 DUP2 DUP4 SUB SUB DUP2 MSTORE SWAP1 PUSH1 0x40 MSTORE DUP1 MLOAD SWAP1 PUSH1 0x20 ADD KECCAK256 EQ ISZERO PUSH2 0x16BB JUMPI PUSH1 0x0 SWAP2 POP JUMPDEST PUSH1 0x3 SLOAD DUP3 GT PUSH2 0x16BB JUMPI PUSH1 0x3 DUP3 DUP2 SLOAD DUP2 LT PUSH2 0x1612 JUMPI PUSH2 0x1612 PUSH2 0x2578 JUMP JUMPDEST SWAP1 PUSH1 0x0 MSTORE PUSH1 0x20 PUSH1 0x0 KECCAK256 SWAP1 PUSH1 0x5 MUL ADD PUSH1 0x0 ADD PUSH1 0x40 MLOAD PUSH1 0x20 ADD PUSH2 0x1633 SWAP2 SWAP1 PUSH2 0x2165 JUMP JUMPDEST PUSH1 0x40 MLOAD PUSH1 0x20 DUP2 DUP4 SUB SUB DUP2 MSTORE SWAP1 PUSH1 0x40 MSTORE DUP1 MLOAD SWAP1 PUSH1 0x20 ADD KECCAK256 DUP7 PUSH1 0x40 MLOAD PUSH1 0x20 ADD PUSH2 0x165A SWAP2 SWAP1 PUSH2 0x2149 JUMP JUMPDEST PUSH1 0x40 MLOAD PUSH1 0x20 DUP2 DUP4 SUB SUB DUP2 MSTORE SWAP1 PUSH1 0x40 MSTORE DUP1 MLOAD SWAP1 PUSH1 0x20 ADD KECCAK256 EQ ISZERO PUSH2 0x16A9 JUMPI PUSH1 0x3 DUP3 DUP2 SLOAD DUP2 LT PUSH2 0x1689 JUMPI PUSH2 0x1689 PUSH2 0x2578 JUMP JUMPDEST SWAP1 PUSH1 0x0 MSTORE PUSH1 0x20 PUSH1 0x0 KECCAK256 SWAP1 PUSH1 0x5 MUL ADD PUSH1 0x3 ADD SLOAD DUP4 PUSH2 0x16A6 SWAP2 SWAP1 PUSH2 0x248F JUMP JUMPDEST SWAP3 POP JUMPDEST DUP2 PUSH2 0x16B3 DUP2 PUSH2 0x2547 JUMP JUMPDEST SWAP3 POP POP PUSH2 0x15F6 JUMP JUMPDEST POP DUP1 PUSH2 0x16C6 DUP2 PUSH2 0x2547 JUMP JUMPDEST SWAP2 POP POP PUSH2 0x14E9 JUMP JUMPDEST POP PUSH2 0x16D9 DUP3 DUP3 PUSH2 0x24A7 JUMP JUMPDEST PUSH2 0x16E3 SWAP1 DUP3 PUSH2 0x248F JUMP JUMPDEST SWAP5 SWAP4 POP POP POP POP JUMP JUMPDEST PUSH1 0xB DUP2 DUP2 SLOAD DUP2 LT PUSH2 0x115E JUMPI PUSH1 0x0 DUP1 REVERT JUMPDEST PUSH1 0xA DUP2 GT ISZERO PUSH2 0x1756 JUMPI PUSH1 0x40 MLOAD PUSH3 0x461BCD PUSH1 0xE5 SHL DUP2 MSTORE PUSH1 0x20 PUSH1 0x4 DUP3 ADD MSTORE PUSH1 0x21 PUSH1 0x24 DUP3 ADD MSTORE PUSH32 0x6572726F723A20726174696E672063616E2062652066726F6D203120746F2031 PUSH1 0x44 DUP3 ADD MSTORE PUSH1 0x3 PUSH1 0xFC SHL PUSH1 0x64 DUP3 ADD MSTORE PUSH1 0x84 ADD PUSH2 0x705 JUMP JUMPDEST PUSH1 0x0 JUMPDEST PUSH1 0x2 SLOAD DUP2 GT PUSH2 0x19C9 JUMPI PUSH1 0x0 PUSH1 0x2 DUP3 DUP2 SLOAD DUP2 LT PUSH2 0x1777 JUMPI PUSH2 0x1777 PUSH2 0x2578 JUMP JUMPDEST SWAP1 PUSH1 0x0 MSTORE PUSH1 0x20 PUSH1 0x0 KECCAK256 ADD DUP1 SLOAD PUSH2 0x178C SWAP1 PUSH2 0x250C JUMP JUMPDEST DUP1 PUSH1 0x1F ADD PUSH1 0x20 DUP1 SWAP2 DIV MUL PUSH1 0x20 ADD PUSH1 0x40 MLOAD SWAP1 DUP2 ADD PUSH1 0x40 MSTORE DUP1 SWAP3 SWAP2 SWAP1 DUP2 DUP2 MSTORE PUSH1 0x20 ADD DUP3 DUP1 SLOAD PUSH2 0x17B8 SWAP1 PUSH2 0x250C JUMP JUMPDEST DUP1 ISZERO PUSH2 0x1805 JUMPI DUP1 PUSH1 0x1F LT PUSH2 0x17DA JUMPI PUSH2 0x100 DUP1 DUP4 SLOAD DIV MUL DUP4 MSTORE SWAP2 PUSH1 0x20 ADD SWAP2 PUSH2 0x1805 JUMP JUMPDEST DUP3 ADD SWAP2 SWAP1 PUSH1 0x0 MSTORE PUSH1 0x20 PUSH1 0x0 KECCAK256 SWAP1 JUMPDEST DUP2 SLOAD DUP2 MSTORE SWAP1 PUSH1 0x1 ADD SWAP1 PUSH1 0x20 ADD DUP1 DUP4 GT PUSH2 0x17E8 JUMPI DUP3 SWAP1 SUB PUSH1 0x1F AND DUP3 ADD SWAP2 JUMPDEST POP POP POP POP POP SWAP1 POP DUP5 PUSH1 0x40 MLOAD PUSH1 0x20 ADD PUSH2 0x181D SWAP2 SWAP1 PUSH2 0x2149 JUMP JUMPDEST PUSH1 0x40 MLOAD PUSH1 0x20 DUP2 DUP4 SUB SUB DUP2 MSTORE SWAP1 PUSH1 0x40 MSTORE DUP1 MLOAD SWAP1 PUSH1 0x20 ADD KECCAK256 DUP2 PUSH1 0x40 MLOAD PUSH1 0x20 ADD PUSH2 0x1844 SWAP2 SWAP1 PUSH2 0x2149 JUMP JUMPDEST PUSH1 0x40 MLOAD PUSH1 0x20 DUP2 DUP4 SUB SUB DUP2 MSTORE SWAP1 PUSH1 0x40 MSTORE DUP1 MLOAD SWAP1 PUSH1 0x20 ADD KECCAK256 EQ ISZERO PUSH2 0x19B6 JUMPI PUSH1 0x40 DUP1 MLOAD PUSH1 0xA0 DUP2 ADD DUP3 MSTORE DUP7 DUP2 MSTORE CALLER PUSH1 0x0 SWAP1 DUP2 MSTORE PUSH1 0x4 PUSH1 0x20 SWAP1 DUP2 MSTORE SWAP3 SWAP1 KECCAK256 DUP1 SLOAD PUSH1 0x60 SWAP4 PUSH1 0x3 SWAP4 SWAP3 SWAP1 DUP4 ADD SWAP2 PUSH2 0x1893 SWAP1 PUSH2 0x250C JUMP JUMPDEST DUP1 PUSH1 0x1F ADD PUSH1 0x20 DUP1 SWAP2 DIV MUL PUSH1 0x20 ADD PUSH1 0x40 MLOAD SWAP1 DUP2 ADD PUSH1 0x40 MSTORE DUP1 SWAP3 SWAP2 SWAP1 DUP2 DUP2 MSTORE PUSH1 0x20 ADD DUP3 DUP1 SLOAD PUSH2 0x18BF SWAP1 PUSH2 0x250C JUMP JUMPDEST DUP1 ISZERO PUSH2 0x190C JUMPI DUP1 PUSH1 0x1F LT PUSH2 0x18E1 JUMPI PUSH2 0x100 DUP1 DUP4 SLOAD DIV MUL DUP4 MSTORE SWAP2 PUSH1 0x20 ADD SWAP2 PUSH2 0x190C JUMP JUMPDEST DUP3 ADD SWAP2 SWAP1 PUSH1 0x0 MSTORE PUSH1 0x20 PUSH1 0x0 KECCAK256 SWAP1 JUMPDEST DUP2 SLOAD DUP2 MSTORE SWAP1 PUSH1 0x1 ADD SWAP1 PUSH1 0x20 ADD DUP1 DUP4 GT PUSH2 0x18EF JUMPI DUP3 SWAP1 SUB PUSH1 0x1F AND DUP3 ADD SWAP2 JUMPDEST POP POP POP SWAP2 DUP4 MSTORE POP POP PUSH1 0x20 DUP1 DUP3 ADD DUP10 SWAP1 MSTORE PUSH1 0x40 DUP3 ADD DUP9 SWAP1 MSTORE PUSH1 0x60 SWAP1 SWAP2 ADD DUP5 SWAP1 MSTORE DUP3 SLOAD PUSH1 0x1 DUP2 ADD DUP5 SSTORE PUSH1 0x0 SWAP4 DUP5 MSTORE SWAP3 DUP2 SWAP1 KECCAK256 DUP3 MLOAD DUP1 MLOAD SWAP4 SWAP5 PUSH1 0x5 MUL SWAP1 SWAP2 ADD SWAP3 PUSH2 0x1956 SWAP3 DUP5 SWAP3 ADD SWAP1 PUSH2 0x1C8D JUMP JUMPDEST POP PUSH1 0x20 DUP3 DUP2 ADD MLOAD DUP1 MLOAD PUSH2 0x196F SWAP3 PUSH1 0x1 DUP6 ADD SWAP3 ADD SWAP1 PUSH2 0x1C8D JUMP JUMPDEST POP PUSH1 0x40 DUP3 ADD MLOAD DUP1 MLOAD PUSH2 0x198B SWAP2 PUSH1 0x2 DUP5 ADD SWAP2 PUSH1 0x20 SWAP1 SWAP2 ADD SWAP1 PUSH2 0x1C8D JUMP JUMPDEST POP PUSH1 0x60 DUP3 ADD MLOAD PUSH1 0x3 DUP3 ADD SSTORE PUSH1 0x80 DUP3 ADD MLOAD DUP1 MLOAD PUSH2 0x19B1 SWAP2 PUSH1 0x4 DUP5 ADD SWAP2 PUSH1 0x20 SWAP1 SWAP2 ADD SWAP1 PUSH2 0x1D11 JUMP JUMPDEST POP POP POP POP JUMPDEST POP DUP1 PUSH2 0x19C1 DUP2 PUSH2 0x2547 JUMP JUMPDEST SWAP2 POP POP PUSH2 0x1759 JUMP JUMPDEST POP POP POP POP JUMP JUMPDEST PUSH1 0x4 PUSH1 0x0 PUSH1 0x5 DUP5 PUSH1 0x40 MLOAD PUSH2 0x19E3 SWAP2 SWAP1 PUSH2 0x2149 JUMP JUMPDEST SWAP1 DUP2 MSTORE PUSH1 0x40 DUP1 MLOAD PUSH1 0x20 SWAP3 DUP2 SWAP1 SUB DUP4 ADD SWAP1 KECCAK256 SLOAD PUSH1 0x1 PUSH1 0x1 PUSH1 0xA0 SHL SUB AND DUP4 MSTORE SWAP1 DUP3 ADD SWAP3 SWAP1 SWAP3 MSTORE ADD PUSH1 0x0 KECCAK256 PUSH1 0x4 ADD SLOAD PUSH1 0xFF AND ISZERO PUSH2 0x1A2F JUMPI PUSH1 0x40 MLOAD PUSH3 0x461BCD PUSH1 0xE5 SHL DUP2 MSTORE PUSH1 0x4 ADD PUSH2 0x705 SWAP1 PUSH2 0x2428 JUMP JUMPDEST PUSH1 0x0 PUSH1 0x1 PUSH1 0x1 PUSH1 0xA0 SHL SUB AND PUSH1 0x5 DUP4 PUSH1 0x40 MLOAD PUSH2 0x1A4A SWAP2 SWAP1 PUSH2 0x2149 JUMP JUMPDEST SWAP1 DUP2 MSTORE PUSH1 0x40 MLOAD SWAP1 DUP2 SWAP1 SUB PUSH1 0x20 ADD SWAP1 KECCAK256 SLOAD PUSH1 0x1 PUSH1 0x1 PUSH1 0xA0 SHL SUB AND EQ ISZERO PUSH2 0x1A81 JUMPI PUSH1 0x40 MLOAD PUSH3 0x461BCD PUSH1 0xE5 SHL DUP2 MSTORE PUSH1 0x4 ADD PUSH2 0x705 SWAP1 PUSH2 0x23F5 JUMP JUMPDEST DUP1 PUSH1 0x4 PUSH1 0x0 PUSH1 0x5 DUP6 PUSH1 0x40 MLOAD PUSH2 0x1A96 SWAP2 SWAP1 PUSH2 0x2149 JUMP JUMPDEST SWAP1 DUP2 MSTORE PUSH1 0x40 DUP1 MLOAD PUSH1 0x20 SWAP3 DUP2 SWAP1 SUB DUP4 ADD SWAP1 KECCAK256 SLOAD PUSH1 0x1 PUSH1 0x1 PUSH1 0xA0 SHL SUB AND DUP4 MSTORE SWAP1 DUP3 ADD SWAP3 SWAP1 SWAP3 MSTORE ADD PUSH1 0x0 KECCAK256 PUSH1 0x1 ADD SLOAD EQ PUSH2 0x1ADF JUMPI PUSH1 0x40 MLOAD PUSH3 0x461BCD PUSH1 0xE5 SHL DUP2 MSTORE PUSH1 0x4 ADD PUSH2 0x705 SWAP1 PUSH2 0x23C4 JUMP JUMPDEST PUSH1 0x1 PUSH1 0x4 PUSH1 0x0 PUSH1 0x5 DUP6 PUSH1 0x40 MLOAD PUSH2 0x1110 SWAP2 SWAP1 PUSH2 0x2149 JUMP JUMPDEST DUP1 MLOAD PUSH1 0x20 DUP2 DUP4 ADD DUP2 ADD DUP1 MLOAD PUSH1 0x8 DUP3 MSTORE SWAP3 DUP3 ADD SWAP2 SWAP1 SWAP4 ADD KECCAK256 SWAP2 MSTORE DUP1 SLOAD PUSH1 0x1 DUP3 ADD DUP1 SLOAD PUSH1 0x1 PUSH1 0x1 PUSH1 0xA0 SHL SUB SWAP1 SWAP3 AND SWAP3 SWAP2 PUSH2 0x1B2C SWAP1 PUSH2 0x250C JUMP JUMPDEST DUP1 PUSH1 0x1F ADD PUSH1 0x20 DUP1 SWAP2 DIV MUL PUSH1 0x20 ADD PUSH1 0x40 MLOAD SWAP1 DUP2 ADD PUSH1 0x40 MSTORE DUP1 SWAP3 SWAP2 SWAP1 DUP2 DUP2 MSTORE PUSH1 0x20 ADD DUP3 DUP1 SLOAD PUSH2 0x1B58 SWAP1 PUSH2 0x250C JUMP JUMPDEST DUP1 ISZERO PUSH2 0x1BA5 JUMPI DUP1 PUSH1 0x1F LT PUSH2 0x1B7A JUMPI PUSH2 0x100 DUP1 DUP4 SLOAD DIV MUL DUP4 MSTORE SWAP2 PUSH1 0x20 ADD SWAP2 PUSH2 0x1BA5 JUMP JUMPDEST DUP3 ADD SWAP2 SWAP1 PUSH1 0x0 MSTORE PUSH1 0x20 PUSH1 0x0 KECCAK256 SWAP1 JUMPDEST DUP2 SLOAD DUP2 MSTORE SWAP1 PUSH1 0x1 ADD SWAP1 PUSH1 0x20 ADD DUP1 DUP4 GT PUSH2 0x1B88 JUMPI DUP3 SWAP1 SUB PUSH1 0x1F AND DUP3 ADD SWAP2 JUMPDEST POP POP POP POP POP SWAP1 DUP1 PUSH1 0x2 ADD SLOAD SWAP1 DUP1 PUSH1 0x3 ADD SLOAD SWAP1 POP DUP5 JUMP JUMPDEST PUSH1 0xA DUP2 DUP2 SLOAD DUP2 LT PUSH2 0x1BCB JUMPI PUSH1 0x0 DUP1 REVERT JUMPDEST PUSH1 0x0 SWAP2 DUP3 MSTORE PUSH1 0x20 SWAP1 SWAP2 KECCAK256 PUSH1 0x4 SWAP1 SWAP2 MUL ADD DUP1 SLOAD PUSH1 0x1 DUP3 ADD DUP1 SLOAD PUSH1 0x1 PUSH1 0x1 PUSH1 0xA0 SHL SUB SWAP1 SWAP3 AND SWAP4 POP SWAP1 PUSH2 0x1BFA SWAP1 PUSH2 0x250C JUMP JUMPDEST DUP1 PUSH1 0x1F ADD PUSH1 0x20 DUP1 SWAP2 DIV MUL PUSH1 0x20 ADD PUSH1 0x40 MLOAD SWAP1 DUP2 ADD PUSH1 0x40 MSTORE DUP1 SWAP3 SWAP2 SWAP1 DUP2 DUP2 MSTORE PUSH1 0x20 ADD DUP3 DUP1 SLOAD PUSH2 0x1C26 SWAP1 PUSH2 0x250C JUMP JUMPDEST DUP1 ISZERO PUSH2 0x1C73 JUMPI DUP1 PUSH1 0x1F LT PUSH2 0x1C48 JUMPI PUSH2 0x100 DUP1 DUP4 SLOAD DIV MUL DUP4 MSTORE SWAP2 PUSH1 0x20 ADD SWAP2 PUSH2 0x1C73 JUMP JUMPDEST DUP3 ADD SWAP2 SWAP1 PUSH1 0x0 MSTORE PUSH1 0x20 PUSH1 0x0 KECCAK256 SWAP1 JUMPDEST DUP2 SLOAD DUP2 MSTORE SWAP1 PUSH1 0x1 ADD SWAP1 PUSH1 0x20 ADD DUP1 DUP4 GT PUSH2 0x1C56 JUMPI DUP3 SWAP1 SUB PUSH1 0x1F AND DUP3 ADD SWAP2 JUMPDEST POP POP POP POP PUSH1 0x2 DUP4 ADD SLOAD PUSH1 0x3 SWAP1 SWAP4 ADD SLOAD SWAP2 SWAP3 SWAP2 PUSH1 0xFF AND SWAP1 POP DUP5 JUMP JUMPDEST DUP3 DUP1 SLOAD PUSH2 0x1C99 SWAP1 PUSH2 0x250C JUMP JUMPDEST SWAP1 PUSH1 0x0 MSTORE PUSH1 0x20 PUSH1 0x0 KECCAK256 SWAP1 PUSH1 0x1F ADD PUSH1 0x20 SWAP1 DIV DUP2 ADD SWAP3 DUP3 PUSH2 0x1CBB JUMPI PUSH1 0x0 DUP6 SSTORE PUSH2 0x1D01 JUMP JUMPDEST DUP3 PUSH1 0x1F LT PUSH2 0x1CD4 JUMPI DUP1 MLOAD PUSH1 0xFF NOT AND DUP4 DUP1 ADD OR DUP6 SSTORE PUSH2 0x1D01 JUMP JUMPDEST DUP3 DUP1 ADD PUSH1 0x1 ADD DUP6 SSTORE DUP3 ISZERO PUSH2 0x1D01 JUMPI SWAP2 DUP3 ADD JUMPDEST DUP3 DUP2 GT ISZERO PUSH2 0x1D01 JUMPI DUP3 MLOAD DUP3 SSTORE SWAP2 PUSH1 0x20 ADD SWAP2 SWAP1 PUSH1 0x1 ADD SWAP1 PUSH2 0x1CE6 JUMP JUMPDEST POP PUSH2 0x1D0D SWAP3 SWAP2 POP PUSH2 0x1D6A JUMP JUMPDEST POP SWAP1 JUMP JUMPDEST DUP3 DUP1 SLOAD DUP3 DUP3 SSTORE SWAP1 PUSH1 0x0 MSTORE PUSH1 0x20 PUSH1 0x0 KECCAK256 SWAP1 DUP2 ADD SWAP3 DUP3 ISZERO PUSH2 0x1D5E JUMPI SWAP2 PUSH1 0x20 MUL DUP3 ADD JUMPDEST DUP3 DUP2 GT ISZERO PUSH2 0x1D5E JUMPI DUP3 MLOAD DUP1 MLOAD PUSH2 0x1D4E SWAP2 DUP5 SWAP2 PUSH1 0x20 SWAP1 SWAP2 ADD SWAP1 PUSH2 0x1C8D JUMP JUMPDEST POP SWAP2 PUSH1 0x20 ADD SWAP2 SWAP1 PUSH1 0x1 ADD SWAP1 PUSH2 0x1D31 JUMP JUMPDEST POP PUSH2 0x1D0D SWAP3 SWAP2 POP PUSH2 0x1D7F JUMP JUMPDEST JUMPDEST DUP1 DUP3 GT ISZERO PUSH2 0x1D0D JUMPI PUSH1 0x0 DUP2 SSTORE PUSH1 0x1 ADD PUSH2 0x1D6B JUMP JUMPDEST DUP1 DUP3 GT ISZERO PUSH2 0x1D0D JUMPI PUSH1 0x0 PUSH2 0x1D93 DUP3 DUP3 PUSH2 0x1D9C JUMP JUMPDEST POP PUSH1 0x1 ADD PUSH2 0x1D7F JUMP JUMPDEST POP DUP1 SLOAD PUSH2 0x1DA8 SWAP1 PUSH2 0x250C JUMP JUMPDEST PUSH1 0x0 DUP3 SSTORE DUP1 PUSH1 0x1F LT PUSH2 0x1DB8 JUMPI POP POP JUMP JUMPDEST PUSH1 0x1F ADD PUSH1 0x20 SWAP1 DIV SWAP1 PUSH1 0x0 MSTORE PUSH1 0x20 PUSH1 0x0 KECCAK256 SWAP1 DUP2 ADD SWAP1 PUSH2 0x1DD6 SWAP2 SWAP1 PUSH2 0x1D6A JUMP JUMPDEST POP JUMP JUMPDEST DUP1 CALLDATALOAD PUSH1 0x1 PUSH1 0x1 PUSH1 0xA0 SHL SUB DUP2 AND DUP2 EQ PUSH2 0x1DF0 JUMPI PUSH1 0x0 DUP1 REVERT JUMPDEST SWAP2 SWAP1 POP JUMP JUMPDEST PUSH1 0x0 DUP3 PUSH1 0x1F DUP4 ADD SLT PUSH2 0x1E06 JUMPI PUSH1 0x0 DUP1 REVERT JUMPDEST DUP2 CALLDATALOAD PUSH1 0x1 PUSH1 0x1 PUSH1 0x40 SHL SUB DUP2 GT ISZERO PUSH2 0x1E1F JUMPI PUSH2 0x1E1F PUSH2 0x258E JUMP JUMPDEST PUSH2 0x1E32 PUSH1 0x1F DUP3 ADD PUSH1 0x1F NOT AND PUSH1 0x20 ADD PUSH2 0x245F JUMP JUMPDEST DUP2 DUP2 MSTORE DUP5 PUSH1 0x20 DUP4 DUP7 ADD ADD GT ISZERO PUSH2 0x1E47 JUMPI PUSH1 0x0 DUP1 REVERT JUMPDEST DUP2 PUSH1 0x20 DUP6 ADD PUSH1 0x20 DUP4 ADD CALLDATACOPY PUSH1 0x0 SWAP2 DUP2 ADD PUSH1 0x20 ADD SWAP2 SWAP1 SWAP2 MSTORE SWAP4 SWAP3 POP POP POP JUMP JUMPDEST PUSH1 0x0 PUSH1 0x20 DUP3 DUP5 SUB SLT ISZERO PUSH2 0x1E76 JUMPI PUSH1 0x0 DUP1 REVERT JUMPDEST PUSH2 0x1E7F DUP3 PUSH2 0x1DD9 JUMP JUMPDEST SWAP4 SWAP3 POP POP POP JUMP JUMPDEST PUSH1 0x0 DUP1 PUSH1 0x0 PUSH1 0x60 DUP5 DUP7 SUB SLT ISZERO PUSH2 0x1E9B JUMPI PUSH1 0x0 DUP1 REVERT JUMPDEST PUSH2 0x1EA4 DUP5 PUSH2 0x1DD9 JUMP JUMPDEST SWAP3 POP PUSH1 0x20 DUP5 ADD CALLDATALOAD PUSH1 0x1 PUSH1 0x1 PUSH1 0x40 SHL SUB DUP2 GT ISZERO PUSH2 0x1EBF JUMPI PUSH1 0x0 DUP1 REVERT JUMPDEST PUSH2 0x1ECB DUP7 DUP3 DUP8 ADD PUSH2 0x1DF5 JUMP JUMPDEST SWAP3 POP POP PUSH1 0x40 DUP5 ADD CALLDATALOAD SWAP1 POP SWAP3 POP SWAP3 POP SWAP3 JUMP JUMPDEST PUSH1 0x0 PUSH1 0x20 DUP3 DUP5 SUB SLT ISZERO PUSH2 0x1EEE JUMPI PUSH1 0x0 DUP1 REVERT JUMPDEST DUP2 CALLDATALOAD PUSH1 0x1 PUSH1 0x1 PUSH1 0x40 SHL SUB DUP2 GT ISZERO PUSH2 0x1F04 JUMPI PUSH1 0x0 DUP1 REVERT JUMPDEST PUSH2 0x16E3 DUP5 DUP3 DUP6 ADD PUSH2 0x1DF5 JUMP JUMPDEST PUSH1 0x0 DUP1 PUSH1 0x40 DUP4 DUP6 SUB SLT ISZERO PUSH2 0x1F23 JUMPI PUSH1 0x0 DUP1 REVERT JUMPDEST DUP3 CALLDATALOAD PUSH1 0x1 PUSH1 0x1 PUSH1 0x40 SHL SUB DUP1 DUP3 GT ISZERO PUSH2 0x1F3A JUMPI PUSH1 0x0 DUP1 REVERT JUMPDEST PUSH2 0x1F46 DUP7 DUP4 DUP8 ADD PUSH2 0x1DF5 JUMP JUMPDEST SWAP4 POP PUSH1 0x20 SWAP2 POP DUP2 DUP6 ADD CALLDATALOAD DUP2 DUP2 GT ISZERO PUSH2 0x1F5D JUMPI PUSH1 0x0 DUP1 REVERT JUMPDEST DUP6 ADD PUSH1 0x1F DUP2 ADD DUP8 SGT PUSH2 0x1F6E JUMPI PUSH1 0x0 DUP1 REVERT JUMPDEST DUP1 CALLDATALOAD DUP3 DUP2 GT ISZERO PUSH2 0x1F80 JUMPI PUSH2 0x1F80 PUSH2 0x258E JUMP JUMPDEST DUP1 PUSH1 0x5 SHL PUSH2 0x1F8F DUP6 DUP3 ADD PUSH2 0x245F JUMP JUMPDEST DUP3 DUP2 MSTORE DUP6 DUP2 ADD SWAP1 DUP5 DUP8 ADD DUP4 DUP7 ADD DUP9 ADD DUP13 LT ISZERO PUSH2 0x1FAA JUMPI PUSH1 0x0 DUP1 REVERT JUMPDEST PUSH1 0x0 SWAP4 POP DUP4 JUMPDEST DUP6 DUP2 LT ISZERO PUSH2 0x1FE7 JUMPI DUP2 CALLDATALOAD DUP9 DUP2 GT ISZERO PUSH2 0x1FC6 JUMPI DUP6 DUP7 REVERT JUMPDEST PUSH2 0x1FD4 DUP15 DUP12 DUP4 DUP12 ADD ADD PUSH2 0x1DF5 JUMP JUMPDEST DUP6 MSTORE POP SWAP3 DUP9 ADD SWAP3 SWAP1 DUP9 ADD SWAP1 PUSH1 0x1 ADD PUSH2 0x1FB0 JUMP JUMPDEST POP SWAP9 SWAP12 SWAP1 SWAP11 POP SWAP9 POP POP POP POP POP POP POP POP POP JUMP JUMPDEST PUSH1 0x0 DUP1 PUSH1 0x40 DUP4 DUP6 SUB SLT ISZERO PUSH2 0x200C JUMPI PUSH1 0x0 DUP1 REVERT JUMPDEST DUP3 CALLDATALOAD PUSH1 0x1 PUSH1 0x1 PUSH1 0x40 SHL SUB DUP2 GT ISZERO PUSH2 0x2022 JUMPI PUSH1 0x0 DUP1 REVERT JUMPDEST PUSH2 0x202E DUP6 DUP3 DUP7 ADD PUSH2 0x1DF5 JUMP JUMPDEST SWAP6 PUSH1 0x20 SWAP5 SWAP1 SWAP5 ADD CALLDATALOAD SWAP5 POP POP POP POP JUMP JUMPDEST PUSH1 0x0 DUP1 PUSH1 0x0 PUSH1 0x60 DUP5 DUP7 SUB SLT ISZERO PUSH2 0x2052 JUMPI PUSH1 0x0 DUP1 REVERT JUMPDEST DUP4 CALLDATALOAD PUSH1 0x1 PUSH1 0x1 PUSH1 0x40 SHL SUB DUP1 DUP3 GT ISZERO PUSH2 0x2069 JUMPI PUSH1 0x0 DUP1 REVERT JUMPDEST PUSH2 0x2075 DUP8 DUP4 DUP9 ADD PUSH2 0x1DF5 JUMP JUMPDEST SWAP5 POP PUSH1 0x20 DUP7 ADD CALLDATALOAD SWAP2 POP DUP1 DUP3 GT ISZERO PUSH2 0x208B JUMPI PUSH1 0x0 DUP1 REVERT JUMPDEST POP PUSH2 0x1ECB DUP7 DUP3 DUP8 ADD PUSH2 0x1DF5 JUMP JUMPDEST PUSH1 0x0 DUP1 PUSH1 0x0 PUSH1 0x60 DUP5 DUP7 SUB SLT ISZERO PUSH2 0x20AD JUMPI PUSH1 0x0 DUP1 REVERT JUMPDEST DUP4 CALLDATALOAD PUSH1 0x1 PUSH1 0x1 PUSH1 0x40 SHL SUB DUP1 DUP3 GT ISZERO PUSH2 0x20C4 JUMPI PUSH1 0x0 DUP1 REVERT JUMPDEST PUSH2 0x20D0 DUP8 DUP4 DUP9 ADD PUSH2 0x1DF5 JUMP JUMPDEST SWAP5 POP PUSH1 0x20 DUP7 ADD CALLDATALOAD SWAP4 POP PUSH1 0x40 DUP7 ADD CALLDATALOAD SWAP2 POP DUP1 DUP3 GT ISZERO PUSH2 0x20ED JUMPI PUSH1 0x0 DUP1 REVERT JUMPDEST POP PUSH2 0x20FA DUP7 DUP3 DUP8 ADD PUSH2 0x1DF5 JUMP JUMPDEST SWAP2 POP POP SWAP3 POP SWAP3 POP SWAP3 JUMP JUMPDEST PUSH1 0x0 PUSH1 0x20 DUP3 DUP5 SUB SLT ISZERO PUSH2 0x2116 JUMPI PUSH1 0x0 DUP1 REVERT JUMPDEST POP CALLDATALOAD SWAP2 SWAP1 POP JUMP JUMPDEST PUSH1 0x0 DUP2 MLOAD DUP1 DUP5 MSTORE PUSH2 0x2135 DUP2 PUSH1 0x20 DUP7 ADD PUSH1 0x20 DUP7 ADD PUSH2 0x24E0 JUMP JUMPDEST PUSH1 0x1F ADD PUSH1 0x1F NOT AND SWAP3 SWAP1 SWAP3 ADD PUSH1 0x20 ADD SWAP3 SWAP2 POP POP JUMP JUMPDEST PUSH1 0x0 DUP3 MLOAD PUSH2 0x215B DUP2 DUP5 PUSH1 0x20 DUP8 ADD PUSH2 0x24E0 JUMP JUMPDEST SWAP2 SWAP1 SWAP2 ADD SWAP3 SWAP2 POP POP JUMP JUMPDEST PUSH1 0x0 DUP1 DUP4 SLOAD DUP2 PUSH1 0x1 DUP3 DUP2 SHR SWAP2 POP DUP1 DUP4 AND DUP1 PUSH2 0x2181 JUMPI PUSH1 0x7F DUP4 AND SWAP3 POP JUMPDEST PUSH1 0x20 DUP1 DUP5 LT DUP3 EQ ISZERO PUSH2 0x21A1 JUMPI PUSH4 0x4E487B71 PUSH1 0xE0 SHL DUP7 MSTORE PUSH1 0x22 PUSH1 0x4 MSTORE PUSH1 0x24 DUP7 REVERT JUMPDEST DUP2 DUP1 ISZERO PUSH2 0x21B5 JUMPI PUSH1 0x1 DUP2 EQ PUSH2 0x21C6 JUMPI PUSH2 0x21F3 JUMP JUMPDEST PUSH1 0xFF NOT DUP7 AND DUP10 MSTORE DUP5 DUP10 ADD SWAP7 POP PUSH2 0x21F3 JUMP JUMPDEST PUSH1 0x0 DUP11 DUP2 MSTORE PUSH1 0x20 SWAP1 KECCAK256 PUSH1 0x0 JUMPDEST DUP7 DUP2 LT ISZERO PUSH2 0x21EB JUMPI DUP2 SLOAD DUP12 DUP3 ADD MSTORE SWAP1 DUP6 ADD SWAP1 DUP4 ADD PUSH2 0x21D2 JUMP JUMPDEST POP POP DUP5 DUP10 ADD SWAP7 POP JUMPDEST POP SWAP5 SWAP9 SWAP8 POP POP POP POP POP POP POP POP JUMP JUMPDEST PUSH1 0x1 PUSH1 0x1 PUSH1 0xA0 SHL SUB DUP5 AND DUP2 MSTORE PUSH1 0x60 PUSH1 0x20 DUP3 ADD DUP2 SWAP1 MSTORE PUSH1 0x0 SWAP1 PUSH2 0x2225 SWAP1 DUP4 ADD DUP6 PUSH2 0x211D JUMP JUMPDEST SWAP1 POP DUP3 ISZERO ISZERO PUSH1 0x40 DUP4 ADD MSTORE SWAP5 SWAP4 POP POP POP POP JUMP JUMPDEST PUSH1 0x1 PUSH1 0x1 PUSH1 0xA0 SHL SUB DUP6 AND DUP2 MSTORE PUSH1 0x80 PUSH1 0x20 DUP3 ADD DUP2 SWAP1 MSTORE PUSH1 0x0 SWAP1 PUSH2 0x225B SWAP1 DUP4 ADD DUP7 PUSH2 0x211D JUMP JUMPDEST PUSH1 0x40 DUP4 ADD SWAP5 SWAP1 SWAP5 MSTORE POP SWAP1 ISZERO ISZERO PUSH1 0x60 SWAP1 SWAP2 ADD MSTORE SWAP3 SWAP2 POP POP JUMP JUMPDEST PUSH1 0x1 PUSH1 0x1 PUSH1 0xA0 SHL SUB DUP6 AND DUP2 MSTORE PUSH1 0x80 PUSH1 0x20 DUP3 ADD DUP2 SWAP1 MSTORE PUSH1 0x0 SWAP1 PUSH2 0x2297 SWAP1 DUP4 ADD DUP7 PUSH2 0x211D JUMP JUMPDEST PUSH1 0x40 DUP4 ADD SWAP5 SWAP1 SWAP5 MSTORE POP PUSH1 0x60 ADD MSTORE SWAP3 SWAP2 POP POP JUMP JUMPDEST PUSH1 0x0 PUSH1 0x20 DUP1 DUP4 ADD DUP2 DUP5 MSTORE DUP1 DUP6 MLOAD DUP1 DUP4 MSTORE PUSH1 0x40 DUP7 ADD SWAP2 POP PUSH1 0x40 DUP2 PUSH1 0x5 SHL DUP8 ADD ADD SWAP3 POP DUP4 DUP8 ADD PUSH1 0x0 JUMPDEST DUP3 DUP2 LT ISZERO PUSH2 0x22FF JUMPI PUSH1 0x3F NOT DUP9 DUP7 SUB ADD DUP5 MSTORE PUSH2 0x22ED DUP6 DUP4 MLOAD PUSH2 0x211D JUMP JUMPDEST SWAP5 POP SWAP3 DUP6 ADD SWAP3 SWAP1 DUP6 ADD SWAP1 PUSH1 0x1 ADD PUSH2 0x22D1 JUMP JUMPDEST POP SWAP3 SWAP8 SWAP7 POP POP POP POP POP POP POP JUMP JUMPDEST PUSH1 0x20 DUP2 MSTORE PUSH1 0x0 PUSH2 0x1E7F PUSH1 0x20 DUP4 ADD DUP5 PUSH2 0x211D JUMP JUMPDEST PUSH1 0xA0 DUP2 MSTORE PUSH1 0x0 PUSH2 0x2332 PUSH1 0xA0 DUP4 ADD DUP9 PUSH2 0x211D JUMP JUMPDEST SWAP1 POP DUP6 PUSH1 0x20 DUP4 ADD MSTORE DUP5 PUSH1 0x40 DUP4 ADD MSTORE DUP4 PUSH1 0x60 DUP4 ADD MSTORE DUP3 ISZERO ISZERO PUSH1 0x80 DUP4 ADD MSTORE SWAP7 SWAP6 POP POP POP POP POP POP JUMP JUMPDEST PUSH1 0x0 PUSH2 0x100 DUP1 DUP4 MSTORE PUSH2 0x236C DUP2 DUP5 ADD DUP13 PUSH2 0x211D JUMP JUMPDEST SWAP1 POP DUP10 PUSH1 0x20 DUP5 ADD MSTORE DUP9 PUSH1 0x40 DUP5 ADD MSTORE DUP8 PUSH1 0x60 DUP5 ADD MSTORE DUP7 ISZERO ISZERO PUSH1 0x80 DUP5 ADD MSTORE DUP3 DUP2 SUB PUSH1 0xA0 DUP5 ADD MSTORE PUSH2 0x239A DUP2 DUP8 PUSH2 0x211D JUMP JUMPDEST SWAP1 POP DUP3 DUP2 SUB PUSH1 0xC0 DUP5 ADD MSTORE PUSH2 0x23AE DUP2 DUP7 PUSH2 0x211D JUMP JUMPDEST SWAP2 POP POP DUP3 PUSH1 0xE0 DUP4 ADD MSTORE SWAP10 SWAP9 POP POP POP POP POP POP POP POP POP JUMP JUMPDEST PUSH1 0x20 DUP1 DUP3 MSTORE PUSH1 0x17 SWAP1 DUP3 ADD MSTORE PUSH23 0x115C9C9BDC8E88125B9D985B1A59081C185CDCDDDBDC99 PUSH1 0x4A SHL PUSH1 0x40 DUP3 ADD MSTORE PUSH1 0x60 ADD SWAP1 JUMP JUMPDEST PUSH1 0x20 DUP1 DUP3 MSTORE PUSH1 0x19 SWAP1 DUP3 ADD MSTORE PUSH25 0x115C9C9BDC8E88155CD95C88191BD95CDB89DD08195E1A5CDD PUSH1 0x3A SHL PUSH1 0x40 DUP3 ADD MSTORE PUSH1 0x60 ADD SWAP1 JUMP JUMPDEST PUSH1 0x20 DUP1 DUP3 MSTORE PUSH1 0x1D SWAP1 DUP3 ADD MSTORE PUSH32 0x4572726F723A20596F752061726520616C7265616479206C6F67676564000000 PUSH1 0x40 DUP3 ADD MSTORE PUSH1 0x60 ADD SWAP1 JUMP JUMPDEST PUSH1 0x40 MLOAD PUSH1 0x1F DUP3 ADD PUSH1 0x1F NOT AND DUP2 ADD PUSH1 0x1 PUSH1 0x1 PUSH1 0x40 SHL SUB DUP2 GT DUP3 DUP3 LT OR ISZERO PUSH2 0x2487 JUMPI PUSH2 0x2487 PUSH2 0x258E JUMP JUMPDEST PUSH1 0x40 MSTORE SWAP2 SWAP1 POP JUMP JUMPDEST PUSH1 0x0 DUP3 NOT DUP3 GT ISZERO PUSH2 0x24A2 JUMPI PUSH2 0x24A2 PUSH2 0x2562 JUMP JUMPDEST POP ADD SWAP1 JUMP JUMPDEST PUSH1 0x0 DUP3 PUSH2 0x24C4 JUMPI PUSH4 0x4E487B71 PUSH1 0xE0 SHL PUSH1 0x0 MSTORE PUSH1 0x12 PUSH1 0x4 MSTORE PUSH1 0x24 PUSH1 0x0 REVERT JUMPDEST POP DIV SWAP1 JUMP JUMPDEST PUSH1 0x0 DUP3 DUP3 LT ISZERO PUSH2 0x24DB JUMPI PUSH2 0x24DB PUSH2 0x2562 JUMP JUMPDEST POP SUB SWAP1 JUMP JUMPDEST PUSH1 0x0 JUMPDEST DUP4 DUP2 LT ISZERO PUSH2 0x24FB JUMPI DUP2 DUP2 ADD MLOAD DUP4 DUP3 ADD MSTORE PUSH1 0x20 ADD PUSH2 0x24E3 JUMP JUMPDEST DUP4 DUP2 GT ISZERO PUSH2 0x19C9 JUMPI POP POP PUSH1 0x0 SWAP2 ADD MSTORE JUMP JUMPDEST PUSH1 0x1 DUP2 DUP2 SHR SWAP1 DUP3 AND DUP1 PUSH2 0x2520 JUMPI PUSH1 0x7F DUP3 AND SWAP2 POP JUMPDEST PUSH1 0x20 DUP3 LT DUP2 EQ ISZERO PUSH2 0x2541 JUMPI PUSH4 0x4E487B71 PUSH1 0xE0 SHL PUSH1 0x0 MSTORE PUSH1 0x22 PUSH1 0x4 MSTORE PUSH1 0x24 PUSH1 0x0 REVERT JUMPDEST POP SWAP2 SWAP1 POP JUMP JUMPDEST PUSH1 0x0 PUSH1 0x0 NOT DUP3 EQ ISZERO PUSH2 0x255B JUMPI PUSH2 0x255B PUSH2 0x2562 JUMP JUMPDEST POP PUSH1 0x1 ADD SWAP1 JUMP JUMPDEST PUSH4 0x4E487B71 PUSH1 0xE0 SHL PUSH1 0x0 MSTORE PUSH1 0x11 PUSH1 0x4 MSTORE PUSH1 0x24 PUSH1 0x0 REVERT JUMPDEST PUSH4 0x4E487B71 PUSH1 0xE0 SHL PUSH1 0x0 MSTORE PUSH1 0x32 PUSH1 0x4 MSTORE PUSH1 0x24 PUSH1 0x0 REVERT JUMPDEST PUSH4 0x4E487B71 PUSH1 0xE0 SHL PUSH1 0x0 MSTORE PUSH1 0x41 PUSH1 0x4 MSTORE PUSH1 0x24 PUSH1 0x0 REVERT INVALID LOG2 PUSH5 0x6970667358 0x22 SLT KECCAK256 DELEGATECALL MOD MUL ISZERO CALLDATALOAD DIFFICULTY 0xED AND 0xCC 0x2F 0xBF PUSH24 0xA39F106436D354BB9192E559EF31A68B34B5A5BB64736F6C PUSH4 0x43000807 STOP CALLER 0xB5 0xB2 0xE7 PUSH32 0x7CC5F741808C088FC930A78382CBC738160D08C471B4672FC39743AA405787FA SLT 0xA8 0x23 0xE0 CALLCODE 0xB7 PUSH4 0x1CC41B3B 0xA8 DUP3 DUP12 CALLER 0x21 0xCA DUP2 GT GT STATICCALL PUSH22 0xCD3AA3BB5ACE418456BA3C801FD0A494A221A407852A 0x26 0xDB CHAINID 0xC4 0xF8 CODECOPY MLOAD TIMESTAMP JUMP JUMPDEST EXTCODESIZE EXTCODECOPY 0xD0 PUSH6 0x3B9900000000 "
				},
				"gasEstimates": {
					"creation": {
						"codeDepositCost": "1938000",
						"executionCost": "infinite",
						"totalCost": "infinite"
					},
					"external": {
						"addProductShop(string,uint256,string)": "infinite",
						"check_logged_shop(string)": "infinite",
						"check_logged_user(string)": "infinite",
						"create_user(address,string,bytes32)": "infinite",
						"getStoryRating(string)": "infinite",
						"get_address(string)": "infinite",
						"get_ballance_shop(address)": "3129",
						"get_ballance_user(address)": "3016",
						"get_city(string)": "infinite",
						"get_hash(string)": "infinite",
						"get_product_list()": "infinite",
						"get_role_shop(string)": "infinite",
						"get_role_user(string)": "infinite",
						"get_shop_list()": "infinite",
						"leaveComment(string,string[])": "infinite",
						"leaveFeedback(string,string,uint256)": "infinite",
						"login_out_shop(string)": "infinite",
						"login_out_user(string)": "infinite",
						"login_shop(string,bytes32)": "infinite",
						"login_user(string,bytes32)": "infinite",
						"productPurchases(string)": "infinite",
						"shopLists(string)": "infinite",
						"structMarriageRegistrations(uint256)": "infinite",
						"structProducts(string)": "infinite",
						"structShops(address)": "infinite",
						"structStatusPurchases(uint256)": "infinite",
						"structStatusReturns(uint256)": "infinite",
						"structUserLogins(string)": "infinite",
						"structUsers(address)": "infinite"
					}
				},
				"methodIdentifiers": {
					"addProductShop(string,uint256,string)": "6c05dd1d",
					"check_logged_shop(string)": "3b84aedc",
					"check_logged_user(string)": "5bbc9a3f",
					"create_user(address,string,bytes32)": "0e1c81b2",
					"getStoryRating(string)": "a985036d",
					"get_address(string)": "6ba44d3c",
					"get_ballance_shop(address)": "de4032f6",
					"get_ballance_user(address)": "cbffdb29",
					"get_city(string)": "55149fd5",
					"get_hash(string)": "845952a8",
					"get_product_list()": "5bd37c9e",
					"get_role_shop(string)": "033ff0b8",
					"get_role_user(string)": "5bdb63fa",
					"get_shop_list()": "1f8daac8",
					"leaveComment(string,string[])": "29e795f3",
					"leaveFeedback(string,string,uint256)": "cc21c188",
					"login_out_shop(string)": "04ac16f6",
					"login_out_user(string)": "521b9170",
					"login_shop(string,bytes32)": "775eb9e6",
					"login_user(string,bytes32)": "d22d9020",
					"productPurchases(string)": "146dc6ed",
					"shopLists(string)": "c4957fa0",
					"structMarriageRegistrations(uint256)": "7ddb273d",
					"structProducts(string)": "d68cf8c1",
					"structShops(address)": "8e23cb40",
					"structStatusPurchases(uint256)": "dce39151",
					"structStatusReturns(uint256)": "a9f9482b",
					"structUserLogins(string)": "1bbe970a",
					"structUsers(address)": "961865f0"
				}
			},
			"storageLayout": {
				"storage": [
					{
						"astId": 302,
						"contract": "Documents/GitHub/Store-system-with-feedback/main.sol:coursepaper",
						"label": "structShops",
						"offset": 0,
						"slot": "0",
						"type": "t_mapping(t_address,t_struct(structShop)297_storage)"
					},
					{
						"astId": 306,
						"contract": "Documents/GitHub/Store-system-with-feedback/main.sol:coursepaper",
						"label": "shopLists",
						"offset": 0,
						"slot": "1",
						"type": "t_mapping(t_string_memory_ptr,t_address)"
					},
					{
						"astId": 309,
						"contract": "Documents/GitHub/Store-system-with-feedback/main.sol:coursepaper",
						"label": "shopList",
						"offset": 0,
						"slot": "2",
						"type": "t_array(t_string_storage)dyn_storage"
					},
					{
						"astId": 325,
						"contract": "Documents/GitHub/Store-system-with-feedback/main.sol:coursepaper",
						"label": "complaintBooks",
						"offset": 0,
						"slot": "3",
						"type": "t_array(t_struct(complaintBook)321_storage)dyn_storage"
					},
					{
						"astId": 341,
						"contract": "Documents/GitHub/Store-system-with-feedback/main.sol:coursepaper",
						"label": "structUsers",
						"offset": 0,
						"slot": "4",
						"type": "t_mapping(t_address,t_struct(structUser)336_storage)"
					},
					{
						"astId": 345,
						"contract": "Documents/GitHub/Store-system-with-feedback/main.sol:coursepaper",
						"label": "structUserLogins",
						"offset": 0,
						"slot": "5",
						"type": "t_mapping(t_string_memory_ptr,t_address)"
					},
					{
						"astId": 348,
						"contract": "Documents/GitHub/Store-system-with-feedback/main.sol:coursepaper",
						"label": "userLoginsArray",
						"offset": 0,
						"slot": "6",
						"type": "t_array(t_string_storage)dyn_storage"
					},
					{
						"astId": 351,
						"contract": "Documents/GitHub/Store-system-with-feedback/main.sol:coursepaper",
						"label": "userAddressArray",
						"offset": 0,
						"slot": "7",
						"type": "t_array(t_address)dyn_storage"
					},
					{
						"astId": 365,
						"contract": "Documents/GitHub/Store-system-with-feedback/main.sol:coursepaper",
						"label": "structProducts",
						"offset": 0,
						"slot": "8",
						"type": "t_mapping(t_string_memory_ptr,t_struct(structProduct)360_storage)"
					},
					{
						"astId": 368,
						"contract": "Documents/GitHub/Store-system-with-feedback/main.sol:coursepaper",
						"label": "productList",
						"offset": 0,
						"slot": "9",
						"type": "t_array(t_string_storage)dyn_storage"
					},
					{
						"astId": 381,
						"contract": "Documents/GitHub/Store-system-with-feedback/main.sol:coursepaper",
						"label": "structStatusPurchases",
						"offset": 0,
						"slot": "10",
						"type": "t_array(t_struct(structStatusPurchase)377_storage)dyn_storage"
					},
					{
						"astId": 392,
						"contract": "Documents/GitHub/Store-system-with-feedback/main.sol:coursepaper",
						"label": "structStatusReturns",
						"offset": 0,
						"slot": "11",
						"type": "t_array(t_struct(structStatusReturn)388_storage)dyn_storage"
					},
					{
						"astId": 403,
						"contract": "Documents/GitHub/Store-system-with-feedback/main.sol:coursepaper",
						"label": "structMarriageRegistrations",
						"offset": 0,
						"slot": "12",
						"type": "t_array(t_struct(structMarriageRegistration)399_storage)dyn_storage"
					},
					{
						"astId": 406,
						"contract": "Documents/GitHub/Store-system-with-feedback/main.sol:coursepaper",
						"label": "addProductShop_idProduct",
						"offset": 0,
						"slot": "13",
						"type": "t_uint256"
					}
				],
				"types": {
					"t_address": {
						"encoding": "inplace",
						"label": "address",
						"numberOfBytes": "20"
					},
					"t_array(t_address)dyn_storage": {
						"base": "t_address",
						"encoding": "dynamic_array",
						"label": "address[]",
						"numberOfBytes": "32"
					},
					"t_array(t_string_storage)dyn_storage": {
						"base": "t_string_storage",
						"encoding": "dynamic_array",
						"label": "string[]",
						"numberOfBytes": "32"
					},
					"t_array(t_struct(complaintBook)321_storage)dyn_storage": {
						"base": "t_struct(complaintBook)321_storage",
						"encoding": "dynamic_array",
						"label": "struct coursepaper.complaintBook[]",
						"numberOfBytes": "32"
					},
					"t_array(t_struct(structMarriageRegistration)399_storage)dyn_storage": {
						"base": "t_struct(structMarriageRegistration)399_storage",
						"encoding": "dynamic_array",
						"label": "struct coursepaper.structMarriageRegistration[]",
						"numberOfBytes": "32"
					},
					"t_array(t_struct(structStatusPurchase)377_storage)dyn_storage": {
						"base": "t_struct(structStatusPurchase)377_storage",
						"encoding": "dynamic_array",
						"label": "struct coursepaper.structStatusPurchase[]",
						"numberOfBytes": "32"
					},
					"t_array(t_struct(structStatusReturn)388_storage)dyn_storage": {
						"base": "t_struct(structStatusReturn)388_storage",
						"encoding": "dynamic_array",
						"label": "struct coursepaper.structStatusReturn[]",
						"numberOfBytes": "32"
					},
					"t_bool": {
						"encoding": "inplace",
						"label": "bool",
						"numberOfBytes": "1"
					},
					"t_bytes32": {
						"encoding": "inplace",
						"label": "bytes32",
						"numberOfBytes": "32"
					},
					"t_mapping(t_address,t_struct(structShop)297_storage)": {
						"encoding": "mapping",
						"key": "t_address",
						"label": "mapping(address => struct coursepaper.structShop)",
						"numberOfBytes": "32",
						"value": "t_struct(structShop)297_storage"
					},
					"t_mapping(t_address,t_struct(structUser)336_storage)": {
						"encoding": "mapping",
						"key": "t_address",
						"label": "mapping(address => struct coursepaper.structUser)",
						"numberOfBytes": "32",
						"value": "t_struct(structUser)336_storage"
					},
					"t_mapping(t_string_memory_ptr,t_address)": {
						"encoding": "mapping",
						"key": "t_string_memory_ptr",
						"label": "mapping(string => address)",
						"numberOfBytes": "32",
						"value": "t_address"
					},
					"t_mapping(t_string_memory_ptr,t_struct(structProduct)360_storage)": {
						"encoding": "mapping",
						"key": "t_string_memory_ptr",
						"label": "mapping(string => struct coursepaper.structProduct)",
						"numberOfBytes": "32",
						"value": "t_struct(structProduct)360_storage"
					},
					"t_string_memory_ptr": {
						"encoding": "bytes",
						"label": "string",
						"numberOfBytes": "32"
					},
					"t_string_storage": {
						"encoding": "bytes",
						"label": "string",
						"numberOfBytes": "32"
					},
					"t_struct(complaintBook)321_storage": {
						"encoding": "inplace",
						"label": "struct coursepaper.complaintBook",
						"members": [
							{
								"astId": 311,
								"contract": "Documents/GitHub/Store-system-with-feedback/main.sol:coursepaper",
								"label": "shop",
								"offset": 0,
								"slot": "0",
								"type": "t_string_storage"
							},
							{
								"astId": 313,
								"contract": "Documents/GitHub/Store-system-with-feedback/main.sol:coursepaper",
								"label": "userName",
								"offset": 0,
								"slot": "1",
								"type": "t_string_storage"
							},
							{
								"astId": 315,
								"contract": "Documents/GitHub/Store-system-with-feedback/main.sol:coursepaper",
								"label": "feedback",
								"offset": 0,
								"slot": "2",
								"type": "t_string_storage"
							},
							{
								"astId": 317,
								"contract": "Documents/GitHub/Store-system-with-feedback/main.sol:coursepaper",
								"label": "rating",
								"offset": 0,
								"slot": "3",
								"type": "t_uint256"
							},
							{
								"astId": 320,
								"contract": "Documents/GitHub/Store-system-with-feedback/main.sol:coursepaper",
								"label": "comments",
								"offset": 0,
								"slot": "4",
								"type": "t_array(t_string_storage)dyn_storage"
							}
						],
						"numberOfBytes": "160"
					},
					"t_struct(structMarriageRegistration)399_storage": {
						"encoding": "inplace",
						"label": "struct coursepaper.structMarriageRegistration",
						"members": [
							{
								"astId": 394,
								"contract": "Documents/GitHub/Store-system-with-feedback/main.sol:coursepaper",
								"label": "userLogin",
								"offset": 0,
								"slot": "0",
								"type": "t_address"
							},
							{
								"astId": 396,
								"contract": "Documents/GitHub/Store-system-with-feedback/main.sol:coursepaper",
								"label": "titleProduct",
								"offset": 0,
								"slot": "1",
								"type": "t_string_storage"
							},
							{
								"astId": 398,
								"contract": "Documents/GitHub/Store-system-with-feedback/main.sol:coursepaper",
								"label": "status",
								"offset": 0,
								"slot": "2",
								"type": "t_bool"
							}
						],
						"numberOfBytes": "96"
					},
					"t_struct(structProduct)360_storage": {
						"encoding": "inplace",
						"label": "struct coursepaper.structProduct",
						"members": [
							{
								"astId": 353,
								"contract": "Documents/GitHub/Store-system-with-feedback/main.sol:coursepaper",
								"label": "shop",
								"offset": 0,
								"slot": "0",
								"type": "t_address"
							},
							{
								"astId": 355,
								"contract": "Documents/GitHub/Store-system-with-feedback/main.sol:coursepaper",
								"label": "description",
								"offset": 0,
								"slot": "1",
								"type": "t_string_storage"
							},
							{
								"astId": 357,
								"contract": "Documents/GitHub/Store-system-with-feedback/main.sol:coursepaper",
								"label": "price",
								"offset": 0,
								"slot": "2",
								"type": "t_uint256"
							},
							{
								"astId": 359,
								"contract": "Documents/GitHub/Store-system-with-feedback/main.sol:coursepaper",
								"label": "id",
								"offset": 0,
								"slot": "3",
								"type": "t_uint256"
							}
						],
						"numberOfBytes": "128"
					},
					"t_struct(structShop)297_storage": {
						"encoding": "inplace",
						"label": "struct coursepaper.structShop",
						"members": [
							{
								"astId": 282,
								"contract": "Documents/GitHub/Store-system-with-feedback/main.sol:coursepaper",
								"label": "shopName",
								"offset": 0,
								"slot": "0",
								"type": "t_string_storage"
							},
							{
								"astId": 284,
								"contract": "Documents/GitHub/Store-system-with-feedback/main.sol:coursepaper",
								"label": "password",
								"offset": 0,
								"slot": "1",
								"type": "t_bytes32"
							},
							{
								"astId": 286,
								"contract": "Documents/GitHub/Store-system-with-feedback/main.sol:coursepaper",
								"label": "ballance",
								"offset": 0,
								"slot": "2",
								"type": "t_uint256"
							},
							{
								"astId": 288,
								"contract": "Documents/GitHub/Store-system-with-feedback/main.sol:coursepaper",
								"label": "role",
								"offset": 0,
								"slot": "3",
								"type": "t_uint256"
							},
							{
								"astId": 290,
								"contract": "Documents/GitHub/Store-system-with-feedback/main.sol:coursepaper",
								"label": "logged",
								"offset": 0,
								"slot": "4",
								"type": "t_bool"
							},
							{
								"astId": 292,
								"contract": "Documents/GitHub/Store-system-with-feedback/main.sol:coursepaper",
								"label": "number",
								"offset": 0,
								"slot": "5",
								"type": "t_string_storage"
							},
							{
								"astId": 294,
								"contract": "Documents/GitHub/Store-system-with-feedback/main.sol:coursepaper",
								"label": "city",
								"offset": 0,
								"slot": "6",
								"type": "t_string_storage"
							},
							{
								"astId": 296,
								"contract": "Documents/GitHub/Store-system-with-feedback/main.sol:coursepaper",
								"label": "rating",
								"offset": 0,
								"slot": "7",
								"type": "t_uint256"
							}
						],
						"numberOfBytes": "256"
					},
					"t_struct(structStatusPurchase)377_storage": {
						"encoding": "inplace",
						"label": "struct coursepaper.structStatusPurchase",
						"members": [
							{
								"astId": 370,
								"contract": "Documents/GitHub/Store-system-with-feedback/main.sol:coursepaper",
								"label": "userLogin",
								"offset": 0,
								"slot": "0",
								"type": "t_address"
							},
							{
								"astId": 372,
								"contract": "Documents/GitHub/Store-system-with-feedback/main.sol:coursepaper",
								"label": "titleProduct",
								"offset": 0,
								"slot": "1",
								"type": "t_string_storage"
							},
							{
								"astId": 374,
								"contract": "Documents/GitHub/Store-system-with-feedback/main.sol:coursepaper",
								"label": "price",
								"offset": 0,
								"slot": "2",
								"type": "t_uint256"
							},
							{
								"astId": 376,
								"contract": "Documents/GitHub/Store-system-with-feedback/main.sol:coursepaper",
								"label": "status",
								"offset": 0,
								"slot": "3",
								"type": "t_bool"
							}
						],
						"numberOfBytes": "128"
					},
					"t_struct(structStatusReturn)388_storage": {
						"encoding": "inplace",
						"label": "struct coursepaper.structStatusReturn",
						"members": [
							{
								"astId": 383,
								"contract": "Documents/GitHub/Store-system-with-feedback/main.sol:coursepaper",
								"label": "userLogin",
								"offset": 0,
								"slot": "0",
								"type": "t_address"
							},
							{
								"astId": 385,
								"contract": "Documents/GitHub/Store-system-with-feedback/main.sol:coursepaper",
								"label": "titleProduct",
								"offset": 0,
								"slot": "1",
								"type": "t_string_storage"
							},
							{
								"astId": 387,
								"contract": "Documents/GitHub/Store-system-with-feedback/main.sol:coursepaper",
								"label": "status",
								"offset": 0,
								"slot": "2",
								"type": "t_bool"
							}
						],
						"numberOfBytes": "96"
					},
					"t_struct(structUser)336_storage": {
						"encoding": "inplace",
						"label": "struct coursepaper.structUser",
						"members": [
							{
								"astId": 327,
								"contract": "Documents/GitHub/Store-system-with-feedback/main.sol:coursepaper",
								"label": "userName",
								"offset": 0,
								"slot": "0",
								"type": "t_string_storage"
							},
							{
								"astId": 329,
								"contract": "Documents/GitHub/Store-system-with-feedback/main.sol:coursepaper",
								"label": "password",
								"offset": 0,
								"slot": "1",
								"type": "t_bytes32"
							},
							{
								"astId": 331,
								"contract": "Documents/GitHub/Store-system-with-feedback/main.sol:coursepaper",
								"label": "ballance",
								"offset": 0,
								"slot": "2",
								"type": "t_uint256"
							},
							{
								"astId": 333,
								"contract": "Documents/GitHub/Store-system-with-feedback/main.sol:coursepaper",
								"label": "role",
								"offset": 0,
								"slot": "3",
								"type": "t_uint256"
							},
							{
								"astId": 335,
								"contract": "Documents/GitHub/Store-system-with-feedback/main.sol:coursepaper",
								"label": "logged",
								"offset": 0,
								"slot": "4",
								"type": "t_bool"
							}
						],
						"numberOfBytes": "160"
					},
					"t_uint256": {
						"encoding": "inplace",
						"label": "uint256",
						"numberOfBytes": "32"
					}
				}
			},
			"userdoc": {
				"kind": "user",
				"methods": {},
				"version": 1
			}
		}
	}
}