{
	"Documents/GitHub/Store-system-with-feedback/main.sol": {
		"coursepaper": {
			"abi": [
				{
					"inputs": [],
					"stateMutability": "nonpayable",
					"type": "constructor"
				},
				{
					"inputs": [
						{
							"internalType": "uint256",
							"name": "idMarriageRegistration",
							"type": "uint256"
						},
						{
							"internalType": "bool",
							"name": "confirmation",
							"type": "bool"
						}
					],
					"name": "MarriageRegistration",
					"outputs": [],
					"stateMutability": "nonpayable",
					"type": "function"
				},
				{
					"inputs": [
						{
							"internalType": "uint256",
							"name": "idPurchase",
							"type": "uint256"
						},
						{
							"internalType": "bool",
							"name": "confirmation",
							"type": "bool"
						}
					],
					"name": "acceptPurchase",
					"outputs": [],
					"stateMutability": "nonpayable",
					"type": "function"
				},
				{
					"inputs": [
						{
							"internalType": "uint256",
							"name": "idReturn",
							"type": "uint256"
						},
						{
							"internalType": "bool",
							"name": "confirmation",
							"type": "bool"
						}
					],
					"name": "acceptReturn",
					"outputs": [],
					"stateMutability": "nonpayable",
					"type": "function"
				},
				{
					"inputs": [
						{
							"internalType": "string",
							"name": "title",
							"type": "string"
						},
						{
							"internalType": "uint256",
							"name": "price",
							"type": "uint256"
						},
						{
							"internalType": "string",
							"name": "description",
							"type": "string"
						}
					],
					"name": "addProductShop",
					"outputs": [],
					"stateMutability": "nonpayable",
					"type": "function"
				},
				{
					"inputs": [
						{
							"internalType": "string",
							"name": "login",
							"type": "string"
						}
					],
					"name": "check_logged_shop",
					"outputs": [
						{
							"internalType": "bool",
							"name": "",
							"type": "bool"
						}
					],
					"stateMutability": "view",
					"type": "function"
				},
				{
					"inputs": [
						{
							"internalType": "string",
							"name": "login",
							"type": "string"
						}
					],
					"name": "check_logged_user",
					"outputs": [
						{
							"internalType": "bool",
							"name": "",
							"type": "bool"
						}
					],
					"stateMutability": "view",
					"type": "function"
				},
				{
					"inputs": [
						{
							"internalType": "address",
							"name": "addr",
							"type": "address"
						},
						{
							"internalType": "string",
							"name": "login",
							"type": "string"
						},
						{
							"internalType": "bytes32",
							"name": "password",
							"type": "bytes32"
						}
					],
					"name": "create_user",
					"outputs": [],
					"stateMutability": "nonpayable",
					"type": "function"
				},
				{
					"inputs": [],
					"name": "getProductList",
					"outputs": [
						{
							"internalType": "string[]",
							"name": "",
							"type": "string[]"
						}
					],
					"stateMutability": "view",
					"type": "function"
				},
				{
					"inputs": [],
					"name": "getShopList",
					"outputs": [
						{
							"internalType": "string[]",
							"name": "",
							"type": "string[]"
						}
					],
					"stateMutability": "view",
					"type": "function"
				},
				{
					"inputs": [
						{
							"internalType": "string",
							"name": "shopName",
							"type": "string"
						}
					],
					"name": "getStoryRating",
					"outputs": [
						{
							"internalType": "uint256",
							"name": "",
							"type": "uint256"
						}
					],
					"stateMutability": "view",
					"type": "function"
				},
				{
					"inputs": [
						{
							"internalType": "string",
							"name": "login",
							"type": "string"
						}
					],
					"name": "get_address",
					"outputs": [
						{
							"internalType": "address",
							"name": "",
							"type": "address"
						}
					],
					"stateMutability": "view",
					"type": "function"
				},
				{
					"inputs": [
						{
							"internalType": "string",
							"name": "password",
							"type": "string"
						}
					],
					"name": "get_hash",
					"outputs": [
						{
							"internalType": "bytes32",
							"name": "",
							"type": "bytes32"
						}
					],
					"stateMutability": "pure",
					"type": "function"
				},
				{
					"inputs": [
						{
							"internalType": "string",
							"name": "login",
							"type": "string"
						}
					],
					"name": "get_role_shop",
					"outputs": [
						{
							"internalType": "uint256",
							"name": "",
							"type": "uint256"
						}
					],
					"stateMutability": "view",
					"type": "function"
				},
				{
					"inputs": [
						{
							"internalType": "string",
							"name": "login",
							"type": "string"
						}
					],
					"name": "get_role_user",
					"outputs": [
						{
							"internalType": "uint256",
							"name": "",
							"type": "uint256"
						}
					],
					"stateMutability": "view",
					"type": "function"
				},
				{
					"inputs": [
						{
							"internalType": "string",
							"name": "userName",
							"type": "string"
						},
						{
							"internalType": "string[]",
							"name": "comment",
							"type": "string[]"
						}
					],
					"name": "leaveComment",
					"outputs": [],
					"stateMutability": "nonpayable",
					"type": "function"
				},
				{
					"inputs": [
						{
							"internalType": "string",
							"name": "shop",
							"type": "string"
						},
						{
							"internalType": "string",
							"name": "feedback",
							"type": "string"
						},
						{
							"internalType": "uint256",
							"name": "rating",
							"type": "uint256"
						}
					],
					"name": "leaveFeedback",
					"outputs": [],
					"stateMutability": "nonpayable",
					"type": "function"
				},
				{
					"inputs": [
						{
							"internalType": "string",
							"name": "login",
							"type": "string"
						}
					],
					"name": "login_out_shop",
					"outputs": [],
					"stateMutability": "nonpayable",
					"type": "function"
				},
				{
					"inputs": [
						{
							"internalType": "string",
							"name": "login",
							"type": "string"
						}
					],
					"name": "login_out_user",
					"outputs": [],
					"stateMutability": "nonpayable",
					"type": "function"
				},
				{
					"inputs": [
						{
							"internalType": "string",
							"name": "login",
							"type": "string"
						},
						{
							"internalType": "bytes32",
							"name": "password",
							"type": "bytes32"
						}
					],
					"name": "login_shop",
					"outputs": [],
					"stateMutability": "nonpayable",
					"type": "function"
				},
				{
					"inputs": [
						{
							"internalType": "string",
							"name": "login",
							"type": "string"
						},
						{
							"internalType": "bytes32",
							"name": "password",
							"type": "bytes32"
						}
					],
					"name": "login_user",
					"outputs": [],
					"stateMutability": "nonpayable",
					"type": "function"
				},
				{
					"inputs": [
						{
							"internalType": "string",
							"name": "titleProduct",
							"type": "string"
						}
					],
					"name": "productMarriageRegistration",
					"outputs": [],
					"stateMutability": "nonpayable",
					"type": "function"
				},
				{
					"inputs": [
						{
							"internalType": "string",
							"name": "titleProduct",
							"type": "string"
						}
					],
					"name": "productPurchases",
					"outputs": [],
					"stateMutability": "nonpayable",
					"type": "function"
				},
				{
					"inputs": [
						{
							"internalType": "string",
							"name": "titleProduct",
							"type": "string"
						}
					],
					"name": "productReturn",
					"outputs": [],
					"stateMutability": "nonpayable",
					"type": "function"
				},
				{
					"inputs": [
						{
							"internalType": "string",
							"name": "",
							"type": "string"
						}
					],
					"name": "shopLists",
					"outputs": [
						{
							"internalType": "address",
							"name": "",
							"type": "address"
						}
					],
					"stateMutability": "view",
					"type": "function"
				},
				{
					"inputs": [
						{
							"internalType": "uint256",
							"name": "",
							"type": "uint256"
						}
					],
					"name": "structMarriageRegistrations",
					"outputs": [
						{
							"internalType": "address",
							"name": "userLogin",
							"type": "address"
						},
						{
							"internalType": "string",
							"name": "titleProduct",
							"type": "string"
						},
						{
							"internalType": "bool",
							"name": "status",
							"type": "bool"
						}
					],
					"stateMutability": "view",
					"type": "function"
				},
				{
					"inputs": [
						{
							"internalType": "string",
							"name": "",
							"type": "string"
						}
					],
					"name": "structProducts",
					"outputs": [
						{
							"internalType": "address",
							"name": "shop",
							"type": "address"
						},
						{
							"internalType": "string",
							"name": "description",
							"type": "string"
						},
						{
							"internalType": "uint256",
							"name": "price",
							"type": "uint256"
						},
						{
							"internalType": "uint256",
							"name": "id",
							"type": "uint256"
						}
					],
					"stateMutability": "view",
					"type": "function"
				},
				{
					"inputs": [
						{
							"internalType": "address",
							"name": "",
							"type": "address"
						}
					],
					"name": "structShops",
					"outputs": [
						{
							"internalType": "string",
							"name": "shopName",
							"type": "string"
						},
						{
							"internalType": "bytes32",
							"name": "password",
							"type": "bytes32"
						},
						{
							"internalType": "uint256",
							"name": "ballance",
							"type": "uint256"
						},
						{
							"internalType": "uint256",
							"name": "role",
							"type": "uint256"
						},
						{
							"internalType": "bool",
							"name": "logged",
							"type": "bool"
						},
						{
							"internalType": "string",
							"name": "number",
							"type": "string"
						},
						{
							"internalType": "string",
							"name": "city",
							"type": "string"
						},
						{
							"internalType": "uint256",
							"name": "rating",
							"type": "uint256"
						}
					],
					"stateMutability": "view",
					"type": "function"
				},
				{
					"inputs": [
						{
							"internalType": "uint256",
							"name": "",
							"type": "uint256"
						}
					],
					"name": "structStatusPurchases",
					"outputs": [
						{
							"internalType": "address",
							"name": "userLogin",
							"type": "address"
						},
						{
							"internalType": "string",
							"name": "titleProduct",
							"type": "string"
						},
						{
							"internalType": "bool",
							"name": "status",
							"type": "bool"
						}
					],
					"stateMutability": "view",
					"type": "function"
				},
				{
					"inputs": [
						{
							"internalType": "uint256",
							"name": "",
							"type": "uint256"
						}
					],
					"name": "structStatusReturns",
					"outputs": [
						{
							"internalType": "address",
							"name": "userLogin",
							"type": "address"
						},
						{
							"internalType": "string",
							"name": "titleProduct",
							"type": "string"
						},
						{
							"internalType": "bool",
							"name": "status",
							"type": "bool"
						}
					],
					"stateMutability": "view",
					"type": "function"
				},
				{
					"inputs": [
						{
							"internalType": "string",
							"name": "",
							"type": "string"
						}
					],
					"name": "structUserLogins",
					"outputs": [
						{
							"internalType": "address",
							"name": "",
							"type": "address"
						}
					],
					"stateMutability": "view",
					"type": "function"
				},
				{
					"inputs": [
						{
							"internalType": "address",
							"name": "",
							"type": "address"
						}
					],
					"name": "structUsers",
					"outputs": [
						{
							"internalType": "string",
							"name": "userName",
							"type": "string"
						},
						{
							"internalType": "bytes32",
							"name": "password",
							"type": "bytes32"
						},
						{
							"internalType": "uint256",
							"name": "ballance",
							"type": "uint256"
						},
						{
							"internalType": "uint256",
							"name": "role",
							"type": "uint256"
						},
						{
							"internalType": "bool",
							"name": "logged",
							"type": "bool"
						}
					],
					"stateMutability": "view",
					"type": "function"
				}
			],
			"devdoc": {
				"kind": "dev",
				"methods": {},
				"version": 1
			},
			"evm": {
				"assembly": "    /* \"Documents/GitHub/Store-system-with-feedback/main.sol\":74:11352  contract coursepaper {\r... */\n  mstore(0x40, 0x80)\n    /* \"Documents/GitHub/Store-system-with-feedback/main.sol\":4510:4511  0 */\n  0x00\n    /* \"Documents/GitHub/Store-system-with-feedback/main.sol\":4475:4511  uint256 addProductShop_idProduct = 0 */\n  0x0d\n  sstore\n    /* \"Documents/GitHub/Store-system-with-feedback/main.sol\":129:1116  constructor() public {\r... */\n  callvalue\n  dup1\n  iszero\n  tag_1\n  jumpi\n  0x00\n  dup1\n  revert\ntag_1:\n  pop\n    /* \"Documents/GitHub/Store-system-with-feedback/main.sol\":200:242  0x22140e5EEE5a0341a107bd6A65ee0F5BB72DEb90 */\n  0x22140e5eee5a0341a107bd6a65ee0f5bb72deb90\n    /* \"Documents/GitHub/Store-system-with-feedback/main.sol\":180:189  shopLists */\n  0x01\n    /* \"Documents/GitHub/Store-system-with-feedback/main.sol\":180:197  shopLists[\"Beer\"] */\n  mload(0x40)\n  tag_4\n  swap1\n  shl(0xe1, 0x2132b2b9)\n    /* \"#utility.yul\":1170:1189   */\n  dup2\n  mstore\n    /* \"#utility.yul\":1214:1215   */\n  0x04\n    /* \"#utility.yul\":1205:1216   */\n  add\n  swap1\n    /* \"#utility.yul\":968:1222   */\n  jump\n    /* \"Documents/GitHub/Store-system-with-feedback/main.sol\":180:197  shopLists[\"Beer\"] */\ntag_4:\n  swap1\n  dup2\n  mstore\n  0x40\n  dup1\n  mload\n  0x20\n  swap3\n  dup2\n  swap1\n  sub\n  dup4\n  add\n  dup2\n  keccak256\n    /* \"Documents/GitHub/Store-system-with-feedback/main.sol\":180:242  shopLists[\"Beer\"] = 0x22140e5EEE5a0341a107bd6A65ee0F5BB72DEb90 */\n  dup1\n  sload\n  not(sub(shl(0xa0, 0x01), 0x01))\n  and\n  sub(shl(0xa0, 0x01), 0x01)\n  swap6\n  swap1\n  swap6\n  and\n  swap5\n  swap1\n  swap5\n  or\n  swap1\n  swap4\n  sstore\n    /* \"Documents/GitHub/Store-system-with-feedback/main.sol\":311:378  structShop(\"Beer\", get_hash(\"1\"), 1000, 3, false, \"1\", \"Moscow\", 0) */\n  0x0140\n  dup4\n  add\n  dup2\n  mstore\n  0x04\n    /* \"Documents/GitHub/Store-system-with-feedback/main.sol\":180:242  shopLists[\"Beer\"] = 0x22140e5EEE5a0341a107bd6A65ee0F5BB72DEb90 */\n  0x0100\n    /* \"Documents/GitHub/Store-system-with-feedback/main.sol\":311:378  structShop(\"Beer\", get_hash(\"1\"), 1000, 3, false, \"1\", \"Moscow\", 0) */\n  dup5\n  add\n  swap1\n  dup2\n  mstore\n  shl(0xe1, 0x2132b2b9)\n  0x0120\n  dup6\n  add\n  mstore\n  dup4\n  mstore\n    /* \"Documents/GitHub/Store-system-with-feedback/main.sol\":330:343  get_hash(\"1\") */\n  dup1\n  mload\n  dup1\n  dup3\n  add\n  swap1\n  swap2\n  mstore\n  0x01\n  dup2\n  mstore\n  shl(0xf8, 0x31)\n  dup2\n  dup4\n  add\n  mstore\n    /* \"Documents/GitHub/Store-system-with-feedback/main.sol\":311:378  structShop(\"Beer\", get_hash(\"1\"), 1000, 3, false, \"1\", \"Moscow\", 0) */\n  swap1\n  dup3\n  add\n  swap1\n    /* \"Documents/GitHub/Store-system-with-feedback/main.sol\":330:343  get_hash(\"1\") */\n  tag_6\n  swap1\n    /* \"Documents/GitHub/Store-system-with-feedback/main.sol\":330:338  get_hash */\n  tag_7\n    /* \"Documents/GitHub/Store-system-with-feedback/main.sol\":330:343  get_hash(\"1\") */\n  jump\t// in\ntag_6:\n    /* \"Documents/GitHub/Store-system-with-feedback/main.sol\":311:378  structShop(\"Beer\", get_hash(\"1\"), 1000, 3, false, \"1\", \"Moscow\", 0) */\n  dup2\n  mstore\n    /* \"Documents/GitHub/Store-system-with-feedback/main.sol\":345:349  1000 */\n  0x03e8\n    /* \"Documents/GitHub/Store-system-with-feedback/main.sol\":311:378  structShop(\"Beer\", get_hash(\"1\"), 1000, 3, false, \"1\", \"Moscow\", 0) */\n  0x20\n  dup1\n  dup4\n  add\n  swap2\n  swap1\n  swap2\n  mstore\n    /* \"Documents/GitHub/Store-system-with-feedback/main.sol\":351:352  3 */\n  0x03\n    /* \"Documents/GitHub/Store-system-with-feedback/main.sol\":311:378  structShop(\"Beer\", get_hash(\"1\"), 1000, 3, false, \"1\", \"Moscow\", 0) */\n  0x40\n  dup1\n  dup5\n  add\n  swap2\n  swap1\n  swap2\n  mstore\n  0x00\n  0x60\n  dup5\n  add\n  dup2\n  swap1\n  mstore\n  dup2\n  mload\n  dup1\n  dup4\n  add\n  dup4\n  mstore\n  0x01\n  dup2\n  mstore\n  shl(0xf8, 0x31)\n  dup2\n  dup6\n  add\n  mstore\n  0x80\n  dup6\n  add\n  mstore\n  dup2\n  mload\n  dup1\n  dup4\n  add\n  swap1\n  swap3\n  mstore\n  0x06\n  dup3\n  mstore\n  shl(0xd0, 0x4d6f73636f77)\n  dup3\n  dup5\n  add\n  mstore\n  0xa0\n  dup5\n  add\n  swap2\n  swap1\n  swap2\n  mstore\n  0xc0\n  swap1\n  swap3\n  add\n  dup3\n  swap1\n  mstore\n    /* \"Documents/GitHub/Store-system-with-feedback/main.sol\":265:307  0x22140e5EEE5a0341a107bd6A65ee0F5BB72DEb90 */\n  0x22140e5eee5a0341a107bd6a65ee0f5bb72deb90\n    /* \"Documents/GitHub/Store-system-with-feedback/main.sol\":253:308  structShops[0x22140e5EEE5a0341a107bd6A65ee0F5BB72DEb90] */\n  dup3\n  mstore\n  swap1\n  dup2\n  mstore\n    /* \"Documents/GitHub/Store-system-with-feedback/main.sol\":253:378  structShops[0x22140e5EEE5a0341a107bd6A65ee0F5BB72DEb90] = structShop(\"Beer\", get_hash(\"1\"), 1000, 3, false, \"1\", \"Moscow\", 0) */\n  dup2\n  mload\n  dup1\n  mload\n  0x00\n  dup1\n  mload\n  0x20\n  data_8993e1cd58841905be2f38dff5727bfce5465d113cd407e0076bae0c6cf830da\n  dup4\n  codecopy\n  dup2\n  mload\n  swap2\n  mstore\n    /* \"Documents/GitHub/Store-system-with-feedback/main.sol\":253:308  structShops[0x22140e5EEE5a0341a107bd6A65ee0F5BB72DEb90] */\n  swap3\n    /* \"Documents/GitHub/Store-system-with-feedback/main.sol\":253:378  structShops[0x22140e5EEE5a0341a107bd6A65ee0F5BB72DEb90] = structShop(\"Beer\", get_hash(\"1\"), 1000, 3, false, \"1\", \"Moscow\", 0) */\n  tag_8\n  swap3\n    /* \"Documents/GitHub/Store-system-with-feedback/main.sol\":253:308  structShops[0x22140e5EEE5a0341a107bd6A65ee0F5BB72DEb90] */\n  dup5\n  swap3\n    /* \"Documents/GitHub/Store-system-with-feedback/main.sol\":253:378  structShops[0x22140e5EEE5a0341a107bd6A65ee0F5BB72DEb90] = structShop(\"Beer\", get_hash(\"1\"), 1000, 3, false, \"1\", \"Moscow\", 0) */\n  swap2\n  add\n  swap1\n  tag_9\n  jump\t// in\ntag_8:\n  pop\n  0x20\n  dup3\n  dup2\n  add\n  mload\n  0x01\n  dup4\n  add\n  sstore\n  0x40\n  dup4\n  add\n  mload\n  0x02\n  dup4\n  add\n  sstore\n  0x60\n  dup4\n  add\n  mload\n  0x03\n  dup4\n  add\n  sstore\n  0x80\n  dup4\n  add\n  mload\n  0x04\n  dup4\n  add\n  dup1\n  sload\n  not(0xff)\n  and\n  swap2\n  iszero\n  iszero\n  swap2\n  swap1\n  swap2\n  or\n  swap1\n  sstore\n  0xa0\n  dup4\n  add\n  mload\n  dup1\n  mload\n  tag_10\n  swap3\n  0x05\n  dup6\n  add\n  swap3\n  add\n  swap1\n  tag_9\n  jump\t// in\ntag_10:\n  pop\n  0xc0\n  dup3\n  add\n  mload\n  dup1\n  mload\n  tag_11\n  swap2\n  0x06\n  dup5\n  add\n  swap2\n  0x20\n  swap1\n  swap2\n  add\n  swap1\n  tag_9\n  jump\t// in\ntag_11:\n  pop\n  0xe0\n  swap2\n  swap1\n  swap2\n  add\n  mload\n  0x07\n  swap1\n  swap2\n  add\n  sstore\n    /* \"Documents/GitHub/Store-system-with-feedback/main.sol\":403:414  structShops */\n  0x00\n    /* \"Documents/GitHub/Store-system-with-feedback/main.sol\":403:458  structShops[0x22140e5EEE5a0341a107bd6A65ee0F5BB72DEb90] */\n  0x20\n  dup2\n  swap1\n  mstore\n    /* \"Documents/GitHub/Store-system-with-feedback/main.sol\":389:397  shopList */\n  0x02\n    /* \"Documents/GitHub/Store-system-with-feedback/main.sol\":389:468  shopList.push(structShops[0x22140e5EEE5a0341a107bd6A65ee0F5BB72DEb90].shopName) */\n  dup1\n  sload\n  0x01\n  dup2\n  add\n  dup3\n  sstore\n  swap2\n  mstore\n  0x00\n  dup1\n  mload\n  0x20\n  data_8993e1cd58841905be2f38dff5727bfce5465d113cd407e0076bae0c6cf830da\n  dup4\n  codecopy\n  dup2\n  mload\n  swap2\n  mstore\n  dup1\n  sload\n  0x00\n  dup1\n  mload\n  0x20\n  data_1ab0c6948a275349ae45a06aad66a8bd65ac18074615d53676c09b67809099e0\n  dup4\n  codecopy\n  dup2\n  mload\n  swap2\n  mstore\n  swap1\n  swap3\n  add\n  swap2\n  tag_13\n  swap1\n  tag_14\n  jump\t// in\ntag_13:\n  tag_15\n  swap3\n  swap2\n  swap1\n  tag_16\n  jump\t// in\ntag_15:\n  pop\n    /* \"Documents/GitHub/Store-system-with-feedback/main.sol\":502:544  0x32BBfd99DFCF2a15c1D278a19856683930A8be0B */\n  0x32bbfd99dfcf2a15c1d278a19856683930a8be0b\n    /* \"Documents/GitHub/Store-system-with-feedback/main.sol\":479:488  shopLists */\n  0x01\n    /* \"Documents/GitHub/Store-system-with-feedback/main.sol\":479:499  shopLists[\"Clothes\"] */\n  mload(0x40)\n  tag_17\n  swap1\n  shl(0xc8, 0x436c6f74686573)\n    /* \"#utility.yul\":908:930   */\n  dup2\n  mstore\n    /* \"#utility.yul\":955:956   */\n  0x07\n    /* \"#utility.yul\":946:957   */\n  add\n  swap1\n    /* \"#utility.yul\":706:963   */\n  jump\n    /* \"Documents/GitHub/Store-system-with-feedback/main.sol\":479:499  shopLists[\"Clothes\"] */\ntag_17:\n  swap1\n  dup2\n  mstore\n  0x40\n  dup1\n  mload\n  0x20\n  swap3\n  dup2\n  swap1\n  sub\n  dup4\n  add\n  dup2\n  keccak256\n    /* \"Documents/GitHub/Store-system-with-feedback/main.sol\":479:544  shopLists[\"Clothes\"] = 0x32BBfd99DFCF2a15c1D278a19856683930A8be0B */\n  dup1\n  sload\n  not(sub(shl(0xa0, 0x01), 0x01))\n  and\n  sub(shl(0xa0, 0x01), 0x01)\n  swap6\n  swap1\n  swap6\n  and\n  swap5\n  swap1\n  swap5\n  or\n  swap1\n  swap4\n  sstore\n    /* \"Documents/GitHub/Store-system-with-feedback/main.sol\":613:687  structShop(\"Clothes\", get_hash(\"2\"), 1000, 3, false, \"2\", \"Petersburg\", 0) */\n  0x0140\n  dup4\n  add\n  dup2\n  mstore\n  0x07\n    /* \"Documents/GitHub/Store-system-with-feedback/main.sol\":479:544  shopLists[\"Clothes\"] = 0x32BBfd99DFCF2a15c1D278a19856683930A8be0B */\n  0x0100\n    /* \"Documents/GitHub/Store-system-with-feedback/main.sol\":613:687  structShop(\"Clothes\", get_hash(\"2\"), 1000, 3, false, \"2\", \"Petersburg\", 0) */\n  dup5\n  add\n  swap1\n  dup2\n  mstore\n  shl(0xc8, 0x436c6f74686573)\n  0x0120\n  dup6\n  add\n  mstore\n  dup4\n  mstore\n    /* \"Documents/GitHub/Store-system-with-feedback/main.sol\":635:648  get_hash(\"2\") */\n  dup1\n  mload\n  dup1\n  dup3\n  add\n  swap1\n  swap2\n  mstore\n  0x01\n  dup2\n  mstore\n  shl(0xf9, 0x19)\n  dup2\n  dup4\n  add\n  mstore\n    /* \"Documents/GitHub/Store-system-with-feedback/main.sol\":613:687  structShop(\"Clothes\", get_hash(\"2\"), 1000, 3, false, \"2\", \"Petersburg\", 0) */\n  swap1\n  dup3\n  add\n  swap1\n    /* \"Documents/GitHub/Store-system-with-feedback/main.sol\":635:648  get_hash(\"2\") */\n  tag_19\n  swap1\n    /* \"Documents/GitHub/Store-system-with-feedback/main.sol\":635:643  get_hash */\n  tag_7\n    /* \"Documents/GitHub/Store-system-with-feedback/main.sol\":635:648  get_hash(\"2\") */\n  jump\t// in\ntag_19:\n    /* \"Documents/GitHub/Store-system-with-feedback/main.sol\":613:687  structShop(\"Clothes\", get_hash(\"2\"), 1000, 3, false, \"2\", \"Petersburg\", 0) */\n  dup2\n  mstore\n    /* \"Documents/GitHub/Store-system-with-feedback/main.sol\":650:654  1000 */\n  0x03e8\n    /* \"Documents/GitHub/Store-system-with-feedback/main.sol\":613:687  structShop(\"Clothes\", get_hash(\"2\"), 1000, 3, false, \"2\", \"Petersburg\", 0) */\n  0x20\n  dup1\n  dup4\n  add\n  swap2\n  swap1\n  swap2\n  mstore\n    /* \"Documents/GitHub/Store-system-with-feedback/main.sol\":656:657  3 */\n  0x03\n    /* \"Documents/GitHub/Store-system-with-feedback/main.sol\":613:687  structShop(\"Clothes\", get_hash(\"2\"), 1000, 3, false, \"2\", \"Petersburg\", 0) */\n  0x40\n  dup1\n  dup5\n  add\n  swap2\n  swap1\n  swap2\n  mstore\n  0x00\n  0x60\n  dup5\n  add\n  dup2\n  swap1\n  mstore\n  dup2\n  mload\n  dup1\n  dup4\n  add\n  dup4\n  mstore\n  0x01\n  dup2\n  mstore\n  shl(0xf9, 0x19)\n  dup2\n  dup6\n  add\n  mstore\n  0x80\n  dup6\n  add\n  mstore\n  dup2\n  mload\n  dup1\n  dup4\n  add\n  swap1\n  swap3\n  mstore\n  0x0a\n  dup3\n  mstore\n  shl(0xb0, 0x50657465727362757267)\n  dup3\n  dup5\n  add\n  mstore\n  0xa0\n  dup5\n  add\n  swap2\n  swap1\n  swap2\n  mstore\n  0xc0\n  swap1\n  swap3\n  add\n  dup3\n  swap1\n  mstore\n    /* \"Documents/GitHub/Store-system-with-feedback/main.sol\":567:609  0x32BBfd99DFCF2a15c1D278a19856683930A8be0B */\n  0x32bbfd99dfcf2a15c1d278a19856683930a8be0b\n    /* \"Documents/GitHub/Store-system-with-feedback/main.sol\":555:610  structShops[0x32BBfd99DFCF2a15c1D278a19856683930A8be0B] */\n  dup3\n  mstore\n  swap1\n  dup2\n  mstore\n    /* \"Documents/GitHub/Store-system-with-feedback/main.sol\":555:687  structShops[0x32BBfd99DFCF2a15c1D278a19856683930A8be0B] = structShop(\"Clothes\", get_hash(\"2\"), 1000, 3, false, \"2\", \"Petersburg\", 0) */\n  dup2\n  mload\n  dup1\n  mload\n  0x00\n  dup1\n  mload\n  0x20\n  data_f4d17a50b75ba59f6ac3e704dcdf75304eb544678a920cb7cfcd9a84a7945e49\n  dup4\n  codecopy\n  dup2\n  mload\n  swap2\n  mstore\n    /* \"Documents/GitHub/Store-system-with-feedback/main.sol\":555:610  structShops[0x32BBfd99DFCF2a15c1D278a19856683930A8be0B] */\n  swap3\n    /* \"Documents/GitHub/Store-system-with-feedback/main.sol\":555:687  structShops[0x32BBfd99DFCF2a15c1D278a19856683930A8be0B] = structShop(\"Clothes\", get_hash(\"2\"), 1000, 3, false, \"2\", \"Petersburg\", 0) */\n  tag_20\n  swap3\n    /* \"Documents/GitHub/Store-system-with-feedback/main.sol\":555:610  structShops[0x32BBfd99DFCF2a15c1D278a19856683930A8be0B] */\n  dup5\n  swap3\n    /* \"Documents/GitHub/Store-system-with-feedback/main.sol\":555:687  structShops[0x32BBfd99DFCF2a15c1D278a19856683930A8be0B] = structShop(\"Clothes\", get_hash(\"2\"), 1000, 3, false, \"2\", \"Petersburg\", 0) */\n  swap2\n  add\n  swap1\n  tag_9\n  jump\t// in\ntag_20:\n  pop\n  0x20\n  dup3\n  dup2\n  add\n  mload\n  0x01\n  dup4\n  add\n  sstore\n  0x40\n  dup4\n  add\n  mload\n  0x02\n  dup4\n  add\n  sstore\n  0x60\n  dup4\n  add\n  mload\n  0x03\n  dup4\n  add\n  sstore\n  0x80\n  dup4\n  add\n  mload\n  0x04\n  dup4\n  add\n  dup1\n  sload\n  not(0xff)\n  and\n  swap2\n  iszero\n  iszero\n  swap2\n  swap1\n  swap2\n  or\n  swap1\n  sstore\n  0xa0\n  dup4\n  add\n  mload\n  dup1\n  mload\n  tag_21\n  swap3\n  0x05\n  dup6\n  add\n  swap3\n  add\n  swap1\n  tag_9\n  jump\t// in\ntag_21:\n  pop\n  0xc0\n  dup3\n  add\n  mload\n  dup1\n  mload\n  tag_22\n  swap2\n  0x06\n  dup5\n  add\n  swap2\n  0x20\n  swap1\n  swap2\n  add\n  swap1\n  tag_9\n  jump\t// in\ntag_22:\n  pop\n  0xe0\n  swap2\n  swap1\n  swap2\n  add\n  mload\n  0x07\n  swap1\n  swap2\n  add\n  sstore\n    /* \"Documents/GitHub/Store-system-with-feedback/main.sol\":712:723  structShops */\n  0x00\n    /* \"Documents/GitHub/Store-system-with-feedback/main.sol\":712:767  structShops[0x32BBfd99DFCF2a15c1D278a19856683930A8be0B] */\n  0x20\n  dup2\n  swap1\n  mstore\n    /* \"Documents/GitHub/Store-system-with-feedback/main.sol\":698:706  shopList */\n  0x02\n    /* \"Documents/GitHub/Store-system-with-feedback/main.sol\":698:777  shopList.push(structShops[0x32BBfd99DFCF2a15c1D278a19856683930A8be0B].shopName) */\n  dup1\n  sload\n  0x01\n  dup2\n  add\n  dup3\n  sstore\n  swap2\n  mstore\n  0x00\n  dup1\n  mload\n  0x20\n  data_f4d17a50b75ba59f6ac3e704dcdf75304eb544678a920cb7cfcd9a84a7945e49\n  dup4\n  codecopy\n  dup2\n  mload\n  swap2\n  mstore\n  dup1\n  sload\n  0x00\n  dup1\n  mload\n  0x20\n  data_1ab0c6948a275349ae45a06aad66a8bd65ac18074615d53676c09b67809099e0\n  dup4\n  codecopy\n  dup2\n  mload\n  swap2\n  mstore\n  swap1\n  swap3\n  add\n  swap2\n  tag_24\n  swap1\n  tag_14\n  jump\t// in\ntag_24:\n  tag_25\n  swap3\n  swap2\n  swap1\n  tag_16\n  jump\t// in\ntag_25:\n  pop\n    /* \"Documents/GitHub/Store-system-with-feedback/main.sol\":833:875  0xC152aD455B16d865F2344140dEc6Ea95cb361e8A */\n  0xc152ad455b16d865f2344140dec6ea95cb361e8a\n    /* \"Documents/GitHub/Store-system-with-feedback/main.sol\":806:822  structUserLogins */\n  0x05\n    /* \"Documents/GitHub/Store-system-with-feedback/main.sol\":806:830  structUserLogins[\"Peta\"] */\n  mload(0x40)\n  tag_26\n  swap1\n  shl(0xe0, 0x50657461)\n    /* \"#utility.yul\":649:668   */\n  dup2\n  mstore\n    /* \"#utility.yul\":693:694   */\n  0x04\n    /* \"#utility.yul\":684:695   */\n  add\n  swap1\n    /* \"#utility.yul\":447:701   */\n  jump\n    /* \"Documents/GitHub/Store-system-with-feedback/main.sol\":806:830  structUserLogins[\"Peta\"] */\ntag_26:\n  swap1\n  dup2\n  mstore\n  0x40\n  dup1\n  mload\n  0x20\n  swap3\n  dup2\n  swap1\n  sub\n  dup4\n  add\n  dup2\n  keccak256\n    /* \"Documents/GitHub/Store-system-with-feedback/main.sol\":806:875  structUserLogins[\"Peta\"] = 0xC152aD455B16d865F2344140dEc6Ea95cb361e8A */\n  dup1\n  sload\n  not(sub(shl(0xa0, 0x01), 0x01))\n  and\n  sub(shl(0xa0, 0x01), 0x01)\n  swap6\n  swap1\n  swap6\n  and\n  swap5\n  swap1\n  swap5\n  or\n  swap1\n  swap4\n  sstore\n    /* \"Documents/GitHub/Store-system-with-feedback/main.sol\":944:993  structUser(\"Peta\", get_hash(\"2\"), 1000, 2, false) */\n  0xe0\n  dup4\n  add\n  dup2\n  mstore\n  0x04\n  0xa0\n  dup5\n  add\n  swap1\n  dup2\n  mstore\n  shl(0xe0, 0x50657461)\n  0xc0\n  dup6\n  add\n  mstore\n  dup4\n  mstore\n    /* \"Documents/GitHub/Store-system-with-feedback/main.sol\":963:976  get_hash(\"2\") */\n  dup1\n  mload\n  dup1\n  dup3\n  add\n  swap1\n  swap2\n  mstore\n  0x01\n  dup2\n  mstore\n  shl(0xf9, 0x19)\n  dup2\n  dup4\n  add\n  mstore\n    /* \"Documents/GitHub/Store-system-with-feedback/main.sol\":944:993  structUser(\"Peta\", get_hash(\"2\"), 1000, 2, false) */\n  swap1\n  dup3\n  add\n  swap1\n    /* \"Documents/GitHub/Store-system-with-feedback/main.sol\":963:976  get_hash(\"2\") */\n  tag_28\n  swap1\n    /* \"Documents/GitHub/Store-system-with-feedback/main.sol\":963:971  get_hash */\n  tag_7\n    /* \"Documents/GitHub/Store-system-with-feedback/main.sol\":963:976  get_hash(\"2\") */\n  jump\t// in\ntag_28:\n    /* \"Documents/GitHub/Store-system-with-feedback/main.sol\":944:993  structUser(\"Peta\", get_hash(\"2\"), 1000, 2, false) */\n  dup2\n  mstore\n    /* \"Documents/GitHub/Store-system-with-feedback/main.sol\":978:982  1000 */\n  0x03e8\n    /* \"Documents/GitHub/Store-system-with-feedback/main.sol\":944:993  structUser(\"Peta\", get_hash(\"2\"), 1000, 2, false) */\n  0x20\n  dup1\n  dup4\n  add\n  swap2\n  swap1\n  swap2\n  mstore\n    /* \"Documents/GitHub/Store-system-with-feedback/main.sol\":984:985  2 */\n  0x02\n    /* \"Documents/GitHub/Store-system-with-feedback/main.sol\":944:993  structUser(\"Peta\", get_hash(\"2\"), 1000, 2, false) */\n  0x40\n  dup4\n  add\n  mstore\n  0x00\n  0x60\n  swap1\n  swap3\n  add\n  dup3\n  swap1\n  mstore\n    /* \"Documents/GitHub/Store-system-with-feedback/main.sol\":898:940  0xC152aD455B16d865F2344140dEc6Ea95cb361e8A */\n  0xc152ad455b16d865f2344140dec6ea95cb361e8a\n    /* \"Documents/GitHub/Store-system-with-feedback/main.sol\":886:941  structUsers[0xC152aD455B16d865F2344140dEc6Ea95cb361e8A] */\n  swap1\n  swap2\n  mstore\n    /* \"Documents/GitHub/Store-system-with-feedback/main.sol\":886:897  structUsers */\n  0x04\n    /* \"Documents/GitHub/Store-system-with-feedback/main.sol\":886:941  structUsers[0xC152aD455B16d865F2344140dEc6Ea95cb361e8A] */\n  dup2\n  mstore\n    /* \"Documents/GitHub/Store-system-with-feedback/main.sol\":886:993  structUsers[0xC152aD455B16d865F2344140dEc6Ea95cb361e8A] = structUser(\"Peta\", get_hash(\"2\"), 1000, 2, false) */\n  dup2\n  mload\n  dup1\n  mload\n    /* \"Documents/GitHub/Store-system-with-feedback/main.sol\":886:941  structUsers[0xC152aD455B16d865F2344140dEc6Ea95cb361e8A] */\n  0x46be32a2e9b8e0f4c8f06b744988be62b4f05119193ea23be26a02d9470d0ccd\n  swap3\n    /* \"Documents/GitHub/Store-system-with-feedback/main.sol\":886:993  structUsers[0xC152aD455B16d865F2344140dEc6Ea95cb361e8A] = structUser(\"Peta\", get_hash(\"2\"), 1000, 2, false) */\n  tag_29\n  swap3\n    /* \"Documents/GitHub/Store-system-with-feedback/main.sol\":886:941  structUsers[0xC152aD455B16d865F2344140dEc6Ea95cb361e8A] */\n  dup5\n  swap3\n    /* \"Documents/GitHub/Store-system-with-feedback/main.sol\":886:993  structUsers[0xC152aD455B16d865F2344140dEc6Ea95cb361e8A] = structUser(\"Peta\", get_hash(\"2\"), 1000, 2, false) */\n  swap2\n  add\n  swap1\n  tag_9\n  jump\t// in\ntag_29:\n  pop\n  0x20\n  dup3\n  dup2\n  add\n  mload\n  0x01\n  dup4\n  dup2\n  add\n  swap2\n  swap1\n  swap2\n  sstore\n  0x40\n  dup1\n  dup6\n  add\n  mload\n  0x02\n  dup6\n  add\n  sstore\n  0x60\n  dup6\n  add\n  mload\n  0x03\n  dup6\n  add\n  sstore\n  0x80\n  swap1\n  swap5\n  add\n  mload\n  0x04\n  swap4\n  dup5\n  add\n  dup1\n  sload\n  not(0xff)\n  and\n  swap2\n  iszero\n  iszero\n  swap2\n  swap1\n  swap2\n  or\n  swap1\n  sstore\n    /* \"Documents/GitHub/Store-system-with-feedback/main.sol\":1004:1019  userLoginsArray */\n  0x06\n    /* \"Documents/GitHub/Store-system-with-feedback/main.sol\":1004:1032  userLoginsArray.push(\"Peta\") */\n  dup1\n  sload\n  swap2\n  dup3\n  add\n  dup2\n  sstore\n  0x00\n  mstore\n  dup4\n  mload\n  dup1\n  dup6\n  add\n  swap1\n  swap5\n  mstore\n  dup3\n  dup5\n  mstore\n  shl(0xe0, 0x50657461)\n  swap4\n  swap1\n  swap2\n  add\n  swap3\n  dup4\n  mstore\n  tag_31\n  swap3\n  0xf652222313e28459528d920b65115c16c04f3efc82aaedc97be59f3f377c0d3f\n  swap1\n  swap2\n  add\n  swap2\n  tag_9\n  jump\t// in\ntag_31:\n  pop\n    /* \"Documents/GitHub/Store-system-with-feedback/main.sol\":1043:1059  userAddressArray */\n  0x07\n    /* \"Documents/GitHub/Store-system-with-feedback/main.sol\":1043:1108  userAddressArray.push(0xC152aD455B16d865F2344140dEc6Ea95cb361e8A) */\n  dup1\n  sload\n  0x01\n  dup2\n  add\n  dup3\n  sstore\n  0x00\n  swap2\n  swap1\n  swap2\n  mstore\n  0xa66cc928b5edb82af9bd49922954155ab7b0942694bea4ce44661d9a8736c688\n  add\n  dup1\n  sload\n  not(sub(shl(0xa0, 0x01), 0x01))\n  and\n    /* \"Documents/GitHub/Store-system-with-feedback/main.sol\":1065:1107  0xC152aD455B16d865F2344140dEc6Ea95cb361e8A */\n  0xc152ad455b16d865f2344140dec6ea95cb361e8a\n    /* \"Documents/GitHub/Store-system-with-feedback/main.sol\":1043:1108  userAddressArray.push(0xC152aD455B16d865F2344140dEc6Ea95cb361e8A) */\n  or\n  swap1\n  sstore\n    /* \"Documents/GitHub/Store-system-with-feedback/main.sol\":74:11352  contract coursepaper {\r... */\n  jump(tag_54)\n    /* \"Documents/GitHub/Store-system-with-feedback/main.sol\":1192:1331  function get_hash(string memory password) public pure returns(bytes32) {\r... */\ntag_7:\n    /* \"Documents/GitHub/Store-system-with-feedback/main.sol\":1254:1261  bytes32 */\n  0x00\n    /* \"Documents/GitHub/Store-system-with-feedback/main.sol\":1312:1320  password */\n  dup2\n    /* \"Documents/GitHub/Store-system-with-feedback/main.sol\":1295:1321  abi.encodePacked(password) */\n  add(0x20, mload(0x40))\n  tag_35\n  swap2\n  swap1\n  tag_36\n  jump\t// in\ntag_35:\n  mload(0x40)\n  0x20\n  dup2\n  dup4\n  sub\n  sub\n  dup2\n  mstore\n  swap1\n  0x40\n  mstore\n    /* \"Documents/GitHub/Store-system-with-feedback/main.sol\":1285:1322  keccak256(abi.encodePacked(password)) */\n  dup1\n  mload\n  swap1\n  0x20\n  add\n  keccak256\n    /* \"Documents/GitHub/Store-system-with-feedback/main.sol\":1278:1323  return(keccak256(abi.encodePacked(password))) */\n  swap1\n  pop\n    /* \"Documents/GitHub/Store-system-with-feedback/main.sol\":1192:1331  function get_hash(string memory password) public pure returns(bytes32) {\r... */\n  swap2\n  swap1\n  pop\n  jump\t// out\n    /* \"Documents/GitHub/Store-system-with-feedback/main.sol\":74:11352  contract coursepaper {\r... */\ntag_9:\n  dup3\n  dup1\n  sload\n  tag_37\n  swap1\n  tag_14\n  jump\t// in\ntag_37:\n  swap1\n  0x00\n  mstore\n  keccak256(0x00, 0x20)\n  swap1\n  0x1f\n  add\n  0x20\n  swap1\n  div\n  dup2\n  add\n  swap3\n  dup3\n  tag_39\n  jumpi\n  0x00\n  dup6\n  sstore\n  jump(tag_42)\ntag_39:\n  dup3\n  0x1f\n  lt\n  tag_40\n  jumpi\n  dup1\n  mload\n  not(0xff)\n  and\n  dup4\n  dup1\n  add\n  or\n  dup6\n  sstore\n  jump(tag_42)\ntag_40:\n  dup3\n  dup1\n  add\n  0x01\n  add\n  dup6\n  sstore\n  dup3\n  iszero\n  tag_42\n  jumpi\n  swap2\n  dup3\n  add\ntag_41:\n  dup3\n  dup2\n  gt\n  iszero\n  tag_42\n  jumpi\n  dup3\n  mload\n  dup3\n  sstore\n  swap2\n  0x20\n  add\n  swap2\n  swap1\n  0x01\n  add\n  swap1\n  jump(tag_41)\ntag_42:\n  pop\n  tag_43\n  swap3\n  swap2\n  pop\n  tag_44\n  jump\t// in\ntag_43:\n  pop\n  swap1\n  jump\t// out\ntag_16:\n  dup3\n  dup1\n  sload\n  tag_45\n  swap1\n  tag_14\n  jump\t// in\ntag_45:\n  swap1\n  0x00\n  mstore\n  keccak256(0x00, 0x20)\n  swap1\n  0x1f\n  add\n  0x20\n  swap1\n  div\n  dup2\n  add\n  swap3\n  dup3\n  tag_47\n  jumpi\n  0x00\n  dup6\n  sstore\n  jump(tag_42)\ntag_47:\n  dup3\n  0x1f\n  lt\n  tag_48\n  jumpi\n  dup1\n  sload\n  dup6\n  sstore\n  jump(tag_42)\ntag_48:\n  dup3\n  dup1\n  add\n  0x01\n  add\n  dup6\n  sstore\n  dup3\n  iszero\n  tag_42\n  jumpi\n  0x00\n  mstore\n  keccak256(0x00, 0x20)\n  swap2\n  0x1f\n  add\n  0x20\n  swap1\n  div\n  dup3\n  add\ntag_49:\n  dup3\n  dup2\n  gt\n  iszero\n  tag_42\n  jumpi\n  dup3\n  sload\n  dup3\n  sstore\n  swap2\n  0x01\n  add\n  swap2\n  swap1\n  0x01\n  add\n  swap1\n  jump(tag_49)\ntag_44:\ntag_52:\n  dup1\n  dup3\n  gt\n  iszero\n  tag_43\n  jumpi\n  0x00\n  dup2\n  sstore\n  0x01\n  add\n  jump(tag_52)\n    /* \"#utility.yul\":14:442   */\ntag_36:\n    /* \"#utility.yul\":145:148   */\n  0x00\n    /* \"#utility.yul\":183:189   */\n  dup3\n    /* \"#utility.yul\":177:190   */\n  mload\n    /* \"#utility.yul\":208:209   */\n  0x00\n    /* \"#utility.yul\":218:347   */\ntag_56:\n    /* \"#utility.yul\":232:238   */\n  dup2\n    /* \"#utility.yul\":229:230   */\n  dup2\n    /* \"#utility.yul\":226:239   */\n  lt\n    /* \"#utility.yul\":218:347   */\n  iszero\n  tag_58\n  jumpi\n    /* \"#utility.yul\":330:334   */\n  0x20\n    /* \"#utility.yul\":314:328   */\n  dup2\n  dup7\n  add\n    /* \"#utility.yul\":310:335   */\n  dup2\n  add\n    /* \"#utility.yul\":304:336   */\n  mload\n    /* \"#utility.yul\":291:302   */\n  dup6\n  dup4\n  add\n    /* \"#utility.yul\":284:337   */\n  mstore\n    /* \"#utility.yul\":247:259   */\n  add\n    /* \"#utility.yul\":218:347   */\n  jump(tag_56)\ntag_58:\n    /* \"#utility.yul\":365:371   */\n  dup2\n    /* \"#utility.yul\":362:363   */\n  dup2\n    /* \"#utility.yul\":359:372   */\n  gt\n    /* \"#utility.yul\":356:404   */\n  iszero\n  tag_59\n  jumpi\n    /* \"#utility.yul\":400:401   */\n  0x00\n    /* \"#utility.yul\":391:397   */\n  dup3\n    /* \"#utility.yul\":386:389   */\n  dup6\n    /* \"#utility.yul\":382:398   */\n  add\n    /* \"#utility.yul\":375:402   */\n  mstore\n    /* \"#utility.yul\":356:404   */\ntag_59:\n  pop\n    /* \"#utility.yul\":420:436   */\n  swap2\n  swap1\n  swap2\n  add\n  swap3\n    /* \"#utility.yul\":14:442   */\n  swap2\n  pop\n  pop\n  jump\t// out\n    /* \"#utility.yul\":1227:1607   */\ntag_14:\n    /* \"#utility.yul\":1306:1307   */\n  0x01\n    /* \"#utility.yul\":1302:1314   */\n  dup2\n  dup2\n  shr\n  swap1\n    /* \"#utility.yul\":1349:1361   */\n  dup3\n  and\n  dup1\n    /* \"#utility.yul\":1370:1431   */\n  tag_64\n  jumpi\n    /* \"#utility.yul\":1424:1428   */\n  0x7f\n    /* \"#utility.yul\":1416:1422   */\n  dup3\n    /* \"#utility.yul\":1412:1429   */\n  and\n    /* \"#utility.yul\":1402:1429   */\n  swap2\n  pop\n    /* \"#utility.yul\":1370:1431   */\ntag_64:\n    /* \"#utility.yul\":1477:1479   */\n  0x20\n    /* \"#utility.yul\":1469:1475   */\n  dup3\n    /* \"#utility.yul\":1466:1480   */\n  lt\n    /* \"#utility.yul\":1446:1464   */\n  dup2\n    /* \"#utility.yul\":1443:1481   */\n  eq\n    /* \"#utility.yul\":1440:1601   */\n  iszero\n  tag_65\n  jumpi\n    /* \"#utility.yul\":1523:1533   */\n  0x4e487b71\n    /* \"#utility.yul\":1518:1521   */\n  0xe0\n    /* \"#utility.yul\":1514:1534   */\n  shl\n    /* \"#utility.yul\":1511:1512   */\n  0x00\n    /* \"#utility.yul\":1504:1535   */\n  mstore\n    /* \"#utility.yul\":1558:1562   */\n  0x22\n    /* \"#utility.yul\":1555:1556   */\n  0x04\n    /* \"#utility.yul\":1548:1563   */\n  mstore\n    /* \"#utility.yul\":1586:1590   */\n  0x24\n    /* \"#utility.yul\":1583:1584   */\n  0x00\n    /* \"#utility.yul\":1576:1591   */\n  revert\n    /* \"#utility.yul\":1440:1601   */\ntag_65:\n  pop\n    /* \"#utility.yul\":1227:1607   */\n  swap2\n  swap1\n  pop\n  jump\t// out\ntag_54:\n    /* \"Documents/GitHub/Store-system-with-feedback/main.sol\":74:11352  contract coursepaper {\r... */\n  dataSize(sub_0)\n  dup1\n  dataOffset(sub_0)\n  0x00\n  codecopy\n  0x00\n  return\nstop\ndata_1ab0c6948a275349ae45a06aad66a8bd65ac18074615d53676c09b67809099e0 405787fa12a823e0f2b7631cc41b3ba8828b3321ca811111fa75cd3aa3bb5ace\ndata_8993e1cd58841905be2f38dff5727bfce5465d113cd407e0076bae0c6cf830da c49e92deb93ac19463e0f89b887a2ab81c6b5eadf7dc1bc8bd12ce4040f656fc\ndata_f4d17a50b75ba59f6ac3e704dcdf75304eb544678a920cb7cfcd9a84a7945e49 5c83a96f0abbcc4e29b827af3528e41db71dd7823e05e1374cd098351a380d7f\n\nsub_0: assembly {\n        /* \"Documents/GitHub/Store-system-with-feedback/main.sol\":74:11352  contract coursepaper {\r... */\n      mstore(0x40, 0x80)\n      callvalue\n      dup1\n      iszero\n      tag_1\n      jumpi\n      0x00\n      dup1\n      revert\n    tag_1:\n      pop\n      jumpi(tag_2, lt(calldatasize, 0x04))\n      shr(0xe0, calldataload(0x00))\n      dup1\n      0x033ff0b8\n      eq\n      tag_3\n      jumpi\n      dup1\n      0x04ac16f6\n      eq\n      tag_4\n      jumpi\n      dup1\n      0x0c72b1ec\n      eq\n      tag_5\n      jumpi\n      dup1\n      0x0e1c81b2\n      eq\n      tag_6\n      jumpi\n      dup1\n      0x146dc6ed\n      eq\n      tag_7\n      jumpi\n      dup1\n      0x1bbe970a\n      eq\n      tag_8\n      jumpi\n      dup1\n      0x29e795f3\n      eq\n      tag_9\n      jumpi\n      dup1\n      0x2ccdef7c\n      eq\n      tag_10\n      jumpi\n      dup1\n      0x2d4673e3\n      eq\n      tag_11\n      jumpi\n      dup1\n      0x34d2c0ad\n      eq\n      tag_12\n      jumpi\n      dup1\n      0x3b84aedc\n      eq\n      tag_13\n      jumpi\n      dup1\n      0x521b9170\n      eq\n      tag_14\n      jumpi\n      dup1\n      0x5bbc9a3f\n      eq\n      tag_15\n      jumpi\n      dup1\n      0x5bdb63fa\n      eq\n      tag_16\n      jumpi\n      dup1\n      0x6ba44d3c\n      eq\n      tag_17\n      jumpi\n      dup1\n      0x6c05dd1d\n      eq\n      tag_18\n      jumpi\n      dup1\n      0x775eb9e6\n      eq\n      tag_19\n      jumpi\n      dup1\n      0x7ddb273d\n      eq\n      tag_20\n      jumpi\n      dup1\n      0x845952a8\n      eq\n      tag_21\n      jumpi\n      dup1\n      0x8e23cb40\n      eq\n      tag_22\n      jumpi\n      dup1\n      0x961865f0\n      eq\n      tag_23\n      jumpi\n      dup1\n      0xa985036d\n      eq\n      tag_24\n      jumpi\n      dup1\n      0xa9f9482b\n      eq\n      tag_25\n      jumpi\n      dup1\n      0xbbd43363\n      eq\n      tag_26\n      jumpi\n      dup1\n      0xc178b9af\n      eq\n      tag_27\n      jumpi\n      dup1\n      0xc4957fa0\n      eq\n      tag_28\n      jumpi\n      dup1\n      0xcc21c188\n      eq\n      tag_29\n      jumpi\n      dup1\n      0xd22d9020\n      eq\n      tag_30\n      jumpi\n      dup1\n      0xd68cf8c1\n      eq\n      tag_31\n      jumpi\n      dup1\n      0xdce39151\n      eq\n      tag_32\n      jumpi\n      dup1\n      0xf69483c1\n      eq\n      tag_33\n      jumpi\n    tag_2:\n      0x00\n      dup1\n      revert\n        /* \"Documents/GitHub/Store-system-with-feedback/main.sol\":1904:2035  function get_role_shop(string memory login) public view returns(uint) {\r... */\n    tag_3:\n      tag_34\n      tag_35\n      calldatasize\n      0x04\n      tag_36\n      jump\t// in\n    tag_35:\n      tag_37\n      jump\t// in\n    tag_34:\n      mload(0x40)\n        /* \"#utility.yul\":9084:9109   */\n      swap1\n      dup2\n      mstore\n        /* \"#utility.yul\":9072:9074   */\n      0x20\n        /* \"#utility.yul\":9057:9075   */\n      add\n        /* \"Documents/GitHub/Store-system-with-feedback/main.sol\":1904:2035  function get_role_shop(string memory login) public view returns(uint) {\r... */\n    tag_38:\n      mload(0x40)\n      dup1\n      swap2\n      sub\n      swap1\n      return\n        /* \"Documents/GitHub/Store-system-with-feedback/main.sol\":9448:9563  function login_out_shop(string memory login) public {\r... */\n    tag_4:\n      tag_40\n      tag_41\n      calldatasize\n      0x04\n      tag_36\n      jump\t// in\n    tag_41:\n      tag_42\n      jump\t// in\n    tag_40:\n      stop\n        /* \"Documents/GitHub/Store-system-with-feedback/main.sol\":5597:6237  function acceptPurchase (uint idPurchase, bool confirmation) public {\r... */\n    tag_5:\n      tag_40\n      tag_44\n      calldatasize\n      0x04\n      tag_45\n      jump\t// in\n    tag_44:\n      tag_46\n      jump\t// in\n        /* \"Documents/GitHub/Store-system-with-feedback/main.sol\":10376:10704  function create_user(address addr, string memory login, bytes32 password) public {\r... */\n    tag_6:\n      tag_40\n      tag_48\n      calldatasize\n      0x04\n      tag_49\n      jump\t// in\n    tag_48:\n      tag_50\n      jump\t// in\n        /* \"Documents/GitHub/Store-system-with-feedback/main.sol\":9648:9919  function productPurchases (string memory titleProduct) public {\r... */\n    tag_7:\n      tag_40\n      tag_52\n      calldatasize\n      0x04\n      tag_36\n      jump\t// in\n    tag_52:\n      tag_53\n      jump\t// in\n        /* \"Documents/GitHub/Store-system-with-feedback/main.sol\":3386:3436  mapping(string => address) public structUserLogins */\n    tag_8:\n      tag_54\n      tag_55\n      calldatasize\n      0x04\n      tag_36\n      jump\t// in\n    tag_55:\n      dup1\n      mload\n      0x20\n      dup2\n      dup4\n      add\n      dup2\n      add\n      dup1\n      mload\n      0x05\n      dup3\n      mstore\n      swap3\n      dup3\n      add\n      swap2\n      swap1\n      swap4\n      add\n      keccak256\n      swap2\n      mstore\n      sload\n      sub(shl(0xa0, 0x01), 0x01)\n      and\n      dup2\n      jump\n    tag_54:\n      mload(0x40)\n      sub(shl(0xa0, 0x01), 0x01)\n        /* \"#utility.yul\":7025:7057   */\n      swap1\n      swap2\n      and\n        /* \"#utility.yul\":7007:7058   */\n      dup2\n      mstore\n        /* \"#utility.yul\":6995:6997   */\n      0x20\n        /* \"#utility.yul\":6980:6998   */\n      add\n        /* \"Documents/GitHub/Store-system-with-feedback/main.sol\":3386:3436  mapping(string => address) public structUserLogins */\n      tag_38\n        /* \"#utility.yul\":6861:7064   */\n      jump\n        /* \"Documents/GitHub/Store-system-with-feedback/main.sol\":8555:8974  function leaveComment (string memory userName, string[] memory comment) public {\r... */\n    tag_9:\n      tag_40\n      tag_60\n      calldatasize\n      0x04\n      tag_61\n      jump\t// in\n    tag_60:\n      tag_62\n      jump\t// in\n        /* \"Documents/GitHub/Store-system-with-feedback/main.sol\":6282:6743  function acceptReturn(uint idReturn, bool confirmation) public {\r... */\n    tag_10:\n      tag_40\n      tag_64\n      calldatasize\n      0x04\n      tag_45\n      jump\t// in\n    tag_64:\n      tag_65\n      jump\t// in\n        /* \"Documents/GitHub/Store-system-with-feedback/main.sol\":10158:10342  function productMarriageRegistration (string memory titleProduct) public {\r... */\n    tag_11:\n      tag_40\n      tag_67\n      calldatasize\n      0x04\n      tag_36\n      jump\t// in\n    tag_67:\n      tag_68\n      jump\t// in\n        /* \"Documents/GitHub/Store-system-with-feedback/main.sol\":7530:7630  function getProductList() public view returns(string[] memory) {\r... */\n    tag_12:\n      tag_69\n      tag_70\n      jump\t// in\n    tag_69:\n      mload(0x40)\n      tag_38\n      swap2\n      swap1\n      tag_72\n      jump\t// in\n        /* \"Documents/GitHub/Store-system-with-feedback/main.sol\":1557:1694  function check_logged_shop(string memory login) public view returns(bool) {\r... */\n    tag_13:\n      tag_73\n      tag_74\n      calldatasize\n      0x04\n      tag_36\n      jump\t// in\n    tag_74:\n      tag_75\n      jump\t// in\n    tag_73:\n      mload(0x40)\n        /* \"#utility.yul\":8911:8925   */\n      swap1\n      iszero\n        /* \"#utility.yul\":8904:8926   */\n      iszero\n        /* \"#utility.yul\":8886:8927   */\n      dup2\n      mstore\n        /* \"#utility.yul\":8874:8876   */\n      0x20\n        /* \"#utility.yul\":8859:8877   */\n      add\n        /* \"Documents/GitHub/Store-system-with-feedback/main.sol\":1557:1694  function check_logged_shop(string memory login) public view returns(bool) {\r... */\n      tag_38\n        /* \"#utility.yul\":8746:8933   */\n      jump\n        /* \"Documents/GitHub/Store-system-with-feedback/main.sol\":11206:11328  function login_out_user(string memory login) public {\r... */\n    tag_14:\n      tag_40\n      tag_79\n      calldatasize\n      0x04\n      tag_36\n      jump\t// in\n    tag_79:\n      tag_80\n      jump\t// in\n        /* \"Documents/GitHub/Store-system-with-feedback/main.sol\":1372:1516  function check_logged_user(string memory login) public view returns(bool) {\r... */\n    tag_15:\n      tag_73\n      tag_82\n      calldatasize\n      0x04\n      tag_36\n      jump\t// in\n    tag_82:\n      tag_83\n      jump\t// in\n        /* \"Documents/GitHub/Store-system-with-feedback/main.sol\":1730:1868  function get_role_user(string memory login) public view returns(uint) {\r... */\n    tag_16:\n      tag_34\n      tag_86\n      calldatasize\n      0x04\n      tag_36\n      jump\t// in\n    tag_86:\n      tag_87\n      jump\t// in\n        /* \"Documents/GitHub/Store-system-with-feedback/main.sol\":2079:2366  function get_address(string memory login) public view returns(address) {\r... */\n    tag_17:\n      tag_54\n      tag_90\n      calldatasize\n      0x04\n      tag_36\n      jump\t// in\n    tag_90:\n      tag_91\n      jump\t// in\n        /* \"Documents/GitHub/Store-system-with-feedback/main.sol\":4518:4917  function addProductShop (string memory title, uint256 price, string memory description) public {\r... */\n    tag_18:\n      tag_40\n      tag_94\n      calldatasize\n      0x04\n      tag_95\n      jump\t// in\n    tag_94:\n      tag_96\n      jump\t// in\n        /* \"Documents/GitHub/Store-system-with-feedback/main.sol\":9008:9410  function login_shop(string memory login, bytes32 password) public {\r... */\n    tag_19:\n      tag_40\n      tag_98\n      calldatasize\n      0x04\n      tag_99\n      jump\t// in\n    tag_98:\n      tag_100\n      jump\t// in\n        /* \"Documents/GitHub/Store-system-with-feedback/main.sol\":4333:4396  structMarriageRegistration[] public structMarriageRegistrations */\n    tag_20:\n      tag_101\n      tag_102\n      calldatasize\n      0x04\n      tag_103\n      jump\t// in\n    tag_102:\n      tag_104\n      jump\t// in\n    tag_101:\n      mload(0x40)\n      tag_38\n      swap4\n      swap3\n      swap2\n      swap1\n      tag_106\n      jump\t// in\n        /* \"Documents/GitHub/Store-system-with-feedback/main.sol\":1192:1331  function get_hash(string memory password) public pure returns(bytes32) {\r... */\n    tag_21:\n      tag_34\n      tag_108\n      calldatasize\n      0x04\n      tag_36\n      jump\t// in\n    tag_108:\n      tag_109\n      jump\t// in\n        /* \"Documents/GitHub/Store-system-with-feedback/main.sol\":2696:2746  mapping (address => structShop) public structShops */\n    tag_22:\n      tag_112\n      tag_113\n      calldatasize\n      0x04\n      tag_114\n      jump\t// in\n    tag_113:\n      tag_115\n      jump\t// in\n    tag_112:\n      mload(0x40)\n      tag_38\n      swap9\n      swap8\n      swap7\n      swap6\n      swap5\n      swap4\n      swap3\n      swap2\n      swap1\n      tag_117\n      jump\t// in\n        /* \"Documents/GitHub/Store-system-with-feedback/main.sol\":3330:3379  mapping(address => structUser) public structUsers */\n    tag_23:\n      tag_118\n      tag_119\n      calldatasize\n      0x04\n      tag_114\n      jump\t// in\n    tag_119:\n      tag_120\n      jump\t// in\n    tag_118:\n      mload(0x40)\n      tag_38\n      swap6\n      swap5\n      swap4\n      swap3\n      swap2\n      swap1\n      tag_122\n      jump\t// in\n        /* \"Documents/GitHub/Store-system-with-feedback/main.sol\":7662:8515  function getStoryRating(string memory shopName) public view returns(uint) {\r... */\n    tag_24:\n      tag_34\n      tag_124\n      calldatasize\n      0x04\n      tag_36\n      jump\t// in\n    tag_124:\n      tag_125\n      jump\t// in\n        /* \"Documents/GitHub/Store-system-with-feedback/main.sol\":4113:4160  structStatusReturn[] public structStatusReturns */\n    tag_25:\n      tag_101\n      tag_128\n      calldatasize\n      0x04\n      tag_103\n      jump\t// in\n    tag_128:\n      tag_129\n      jump\t// in\n        /* \"Documents/GitHub/Store-system-with-feedback/main.sol\":9958:10112  function productReturn (string memory titleProduct) public {\r... */\n    tag_26:\n      tag_40\n      tag_132\n      calldatasize\n      0x04\n      tag_36\n      jump\t// in\n    tag_132:\n      tag_133\n      jump\t// in\n        /* \"Documents/GitHub/Store-system-with-feedback/main.sol\":7400:7494  function getShopList() public view returns(string[] memory) {\r... */\n    tag_27:\n      tag_69\n      tag_135\n      jump\t// in\n        /* \"Documents/GitHub/Store-system-with-feedback/main.sol\":2753:2796  mapping(string => address) public shopLists */\n    tag_28:\n      tag_54\n      tag_138\n      calldatasize\n      0x04\n      tag_36\n      jump\t// in\n    tag_138:\n      dup1\n      mload\n      0x20\n      dup2\n      dup4\n      add\n      dup2\n      add\n      dup1\n      mload\n      0x01\n      dup3\n      mstore\n      swap3\n      dup3\n      add\n      swap2\n      swap1\n      swap4\n      add\n      keccak256\n      swap2\n      mstore\n      sload\n      sub(shl(0xa0, 0x01), 0x01)\n      and\n      dup2\n      jump\n        /* \"Documents/GitHub/Store-system-with-feedback/main.sol\":4962:5550  function leaveFeedback (string memory shop, string memory feedback, uint256 rating) public {\r... */\n    tag_29:\n      tag_40\n      tag_142\n      calldatasize\n      0x04\n      tag_143\n      jump\t// in\n    tag_142:\n      tag_144\n      jump\t// in\n        /* \"Documents/GitHub/Store-system-with-feedback/main.sol\":10738:11168  function login_user(string memory login, bytes32 password) public {\r... */\n    tag_30:\n      tag_40\n      tag_146\n      calldatasize\n      0x04\n      tag_99\n      jump\t// in\n    tag_146:\n      tag_147\n      jump\t// in\n        /* \"Documents/GitHub/Store-system-with-feedback/main.sol\":3662:3716  mapping(string => structProduct) public structProducts */\n    tag_31:\n      tag_148\n      tag_149\n      calldatasize\n      0x04\n      tag_36\n      jump\t// in\n    tag_149:\n      tag_150\n      jump\t// in\n    tag_148:\n      mload(0x40)\n      tag_38\n      swap5\n      swap4\n      swap3\n      swap2\n      swap1\n      tag_152\n      jump\t// in\n        /* \"Documents/GitHub/Store-system-with-feedback/main.sol\":3905:3956  structStatusPurchase[] public structStatusPurchases */\n    tag_32:\n      tag_101\n      tag_154\n      calldatasize\n      0x04\n      tag_103\n      jump\t// in\n    tag_154:\n      tag_155\n      jump\t// in\n        /* \"Documents/GitHub/Store-system-with-feedback/main.sol\":6789:7366  function MarriageRegistration(uint idMarriageRegistration, bool confirmation) public {\r... */\n    tag_33:\n      tag_40\n      tag_158\n      calldatasize\n      0x04\n      tag_45\n      jump\t// in\n    tag_158:\n      tag_159\n      jump\t// in\n        /* \"Documents/GitHub/Store-system-with-feedback/main.sol\":1904:2035  function get_role_shop(string memory login) public view returns(uint) {\r... */\n    tag_37:\n        /* \"Documents/GitHub/Store-system-with-feedback/main.sol\":1968:1972  uint */\n      0x00\n        /* \"Documents/GitHub/Store-system-with-feedback/main.sol\":1992:2003  structShops */\n      dup1\n        /* \"Documents/GitHub/Store-system-with-feedback/main.sol\":1992:2021  structShops[shopLists[login]] */\n      0x00\n        /* \"Documents/GitHub/Store-system-with-feedback/main.sol\":2004:2013  shopLists */\n      0x01\n        /* \"Documents/GitHub/Store-system-with-feedback/main.sol\":2014:2019  login */\n      dup5\n        /* \"Documents/GitHub/Store-system-with-feedback/main.sol\":2004:2020  shopLists[login] */\n      mload(0x40)\n      tag_161\n      swap2\n      swap1\n      tag_162\n      jump\t// in\n    tag_161:\n      swap1\n      dup2\n      mstore\n      0x40\n      dup1\n      mload\n      0x20\n      swap3\n      dup2\n      swap1\n      sub\n      dup4\n      add\n      swap1\n      keccak256\n      sload\n      sub(shl(0xa0, 0x01), 0x01)\n      and\n        /* \"Documents/GitHub/Store-system-with-feedback/main.sol\":1992:2021  structShops[shopLists[login]] */\n      dup4\n      mstore\n      swap1\n      dup3\n      add\n      swap3\n      swap1\n      swap3\n      mstore\n      add\n      0x00\n      keccak256\n        /* \"Documents/GitHub/Store-system-with-feedback/main.sol\":1992:2026  structShops[shopLists[login]].role */\n      0x03\n      add\n      sload\n      swap3\n      swap2\n      pop\n      pop\n        /* \"Documents/GitHub/Store-system-with-feedback/main.sol\":1904:2035  function get_role_shop(string memory login) public view returns(uint) {\r... */\n      jump\t// out\n        /* \"Documents/GitHub/Store-system-with-feedback/main.sol\":9448:9563  function login_out_shop(string memory login) public {\r... */\n    tag_42:\n        /* \"Documents/GitHub/Store-system-with-feedback/main.sol\":9550:9555  false */\n      0x00\n        /* \"Documents/GitHub/Store-system-with-feedback/main.sol\":9511:9522  structShops */\n      dup1\n        /* \"Documents/GitHub/Store-system-with-feedback/main.sol\":9511:9540  structShops[shopLists[login]] */\n      0x00\n        /* \"Documents/GitHub/Store-system-with-feedback/main.sol\":9523:9532  shopLists */\n      0x01\n        /* \"Documents/GitHub/Store-system-with-feedback/main.sol\":9533:9538  login */\n      dup5\n        /* \"Documents/GitHub/Store-system-with-feedback/main.sol\":9523:9539  shopLists[login] */\n      mload(0x40)\n      tag_164\n      swap2\n      swap1\n      tag_162\n      jump\t// in\n    tag_164:\n      swap1\n      dup2\n      mstore\n      0x40\n      dup1\n      mload\n      0x20\n      swap3\n      dup2\n      swap1\n      sub\n      dup4\n      add\n      swap1\n      keccak256\n      sload\n      sub(shl(0xa0, 0x01), 0x01)\n      and\n        /* \"Documents/GitHub/Store-system-with-feedback/main.sol\":9511:9540  structShops[shopLists[login]] */\n      dup4\n      mstore\n      swap1\n      dup3\n      add\n      swap3\n      swap1\n      swap3\n      mstore\n      add\n      0x00\n      keccak256\n        /* \"Documents/GitHub/Store-system-with-feedback/main.sol\":9511:9547  structShops[shopLists[login]].logged */\n      0x04\n      add\n        /* \"Documents/GitHub/Store-system-with-feedback/main.sol\":9511:9555  structShops[shopLists[login]].logged = false */\n      dup1\n      sload\n      not(0xff)\n      and\n      swap2\n      iszero\n      iszero\n      swap2\n      swap1\n      swap2\n      or\n      swap1\n      sstore\n      pop\n        /* \"Documents/GitHub/Store-system-with-feedback/main.sol\":9448:9563  function login_out_shop(string memory login) public {\r... */\n      jump\t// out\n        /* \"Documents/GitHub/Store-system-with-feedback/main.sol\":5597:6237  function acceptPurchase (uint idPurchase, bool confirmation) public {\r... */\n    tag_46:\n        /* \"Documents/GitHub/Store-system-with-feedback/main.sol\":5696:5700  true */\n      0x01\n        /* \"Documents/GitHub/Store-system-with-feedback/main.sol\":5680:5700  confirmation == true */\n      dup2\n      iszero\n      iszero\n      eq\n        /* \"Documents/GitHub/Store-system-with-feedback/main.sol\":5676:6230  if (confirmation == true) {\r... */\n      iszero\n      tag_166\n      jumpi\n        /* \"Documents/GitHub/Store-system-with-feedback/main.sol\":5760:5765  false */\n      0x00\n        /* \"Documents/GitHub/Store-system-with-feedback/main.sol\":5717:5738  structStatusPurchases */\n      0x0a\n        /* \"Documents/GitHub/Store-system-with-feedback/main.sol\":5739:5749  idPurchase */\n      dup4\n        /* \"Documents/GitHub/Store-system-with-feedback/main.sol\":5717:5750  structStatusPurchases[idPurchase] */\n      dup2\n      sload\n      dup2\n      lt\n      tag_168\n      jumpi\n      tag_168\n      tag_169\n      jump\t// in\n    tag_168:\n      swap1\n      0x00\n      mstore\n      keccak256(0x00, 0x20)\n      swap1\n      0x03\n      mul\n      add\n        /* \"Documents/GitHub/Store-system-with-feedback/main.sol\":5717:5757  structStatusPurchases[idPurchase].status */\n      0x02\n      add\n      0x00\n        /* \"Documents/GitHub/Store-system-with-feedback/main.sol\":5717:5765  structStatusPurchases[idPurchase].status = false */\n      0x0100\n      exp\n      dup2\n      sload\n      dup2\n      0xff\n      mul\n      not\n      and\n      swap1\n      dup4\n      iszero\n      iszero\n      mul\n      or\n      swap1\n      sstore\n      pop\n        /* \"Documents/GitHub/Store-system-with-feedback/main.sol\":5916:5930  structProducts */\n      0x08\n        /* \"Documents/GitHub/Store-system-with-feedback/main.sol\":5931:5952  structStatusPurchases */\n      0x0a\n        /* \"Documents/GitHub/Store-system-with-feedback/main.sol\":5953:5963  idPurchase */\n      dup4\n        /* \"Documents/GitHub/Store-system-with-feedback/main.sol\":5931:5964  structStatusPurchases[idPurchase] */\n      dup2\n      sload\n      dup2\n      lt\n      tag_172\n      jumpi\n      tag_172\n      tag_169\n      jump\t// in\n    tag_172:\n      swap1\n      0x00\n      mstore\n      keccak256(0x00, 0x20)\n      swap1\n      0x03\n      mul\n      add\n        /* \"Documents/GitHub/Store-system-with-feedback/main.sol\":5931:5977  structStatusPurchases[idPurchase].titleProduct */\n      0x01\n      add\n        /* \"Documents/GitHub/Store-system-with-feedback/main.sol\":5916:5978  structProducts[structStatusPurchases[idPurchase].titleProduct] */\n      mload(0x40)\n      tag_174\n      swap2\n      swap1\n      tag_175\n      jump\t// in\n    tag_174:\n      swap1\n      dup2\n      mstore\n      0x20\n      add\n      mload(0x40)\n      dup1\n      swap2\n      sub\n      swap1\n      keccak256\n        /* \"Documents/GitHub/Store-system-with-feedback/main.sol\":5916:5984  structProducts[structStatusPurchases[idPurchase].titleProduct].price */\n      0x02\n      add\n      sload\n        /* \"Documents/GitHub/Store-system-with-feedback/main.sol\":5848:5859  structUsers */\n      0x04\n        /* \"Documents/GitHub/Store-system-with-feedback/main.sol\":5848:5904  structUsers[structStatusPurchases[idPurchase].userLogin] */\n      0x00\n        /* \"Documents/GitHub/Store-system-with-feedback/main.sol\":5860:5881  structStatusPurchases */\n      0x0a\n        /* \"Documents/GitHub/Store-system-with-feedback/main.sol\":5882:5892  idPurchase */\n      dup6\n        /* \"Documents/GitHub/Store-system-with-feedback/main.sol\":5860:5893  structStatusPurchases[idPurchase] */\n      dup2\n      sload\n      dup2\n      lt\n      tag_177\n      jumpi\n      tag_177\n      tag_169\n      jump\t// in\n    tag_177:\n      0x00\n      swap2\n      dup3\n      mstore\n      0x20\n      dup1\n      dup4\n      keccak256\n      0x03\n      swap1\n      swap3\n      mul\n      swap1\n      swap2\n      add\n        /* \"Documents/GitHub/Store-system-with-feedback/main.sol\":5860:5903  structStatusPurchases[idPurchase].userLogin */\n      sload\n      sub(shl(0xa0, 0x01), 0x01)\n      and\n        /* \"Documents/GitHub/Store-system-with-feedback/main.sol\":5848:5904  structUsers[structStatusPurchases[idPurchase].userLogin] */\n      dup4\n      mstore\n      dup3\n      add\n      swap3\n      swap1\n      swap3\n      mstore\n      0x40\n      add\n      swap1\n      keccak256\n        /* \"Documents/GitHub/Store-system-with-feedback/main.sol\":5848:5913  structUsers[structStatusPurchases[idPurchase].userLogin].ballance */\n      0x02\n      add\n      sload\n        /* \"Documents/GitHub/Store-system-with-feedback/main.sol\":5848:5984  structUsers[structStatusPurchases[idPurchase].userLogin].ballance - structProducts[structStatusPurchases[idPurchase].titleProduct].price */\n      tag_179\n      swap2\n      swap1\n      tag_180\n      jump\t// in\n    tag_179:\n        /* \"Documents/GitHub/Store-system-with-feedback/main.sol\":5780:5791  structUsers */\n      0x04\n        /* \"Documents/GitHub/Store-system-with-feedback/main.sol\":5780:5836  structUsers[structStatusPurchases[idPurchase].userLogin] */\n      0x00\n        /* \"Documents/GitHub/Store-system-with-feedback/main.sol\":5792:5813  structStatusPurchases */\n      0x0a\n        /* \"Documents/GitHub/Store-system-with-feedback/main.sol\":5814:5824  idPurchase */\n      dup6\n        /* \"Documents/GitHub/Store-system-with-feedback/main.sol\":5792:5825  structStatusPurchases[idPurchase] */\n      dup2\n      sload\n      dup2\n      lt\n      tag_182\n      jumpi\n      tag_182\n      tag_169\n      jump\t// in\n    tag_182:\n      0x00\n      swap2\n      dup3\n      mstore\n      0x20\n      dup1\n      dup4\n      keccak256\n      0x03\n      swap1\n      swap3\n      mul\n      swap1\n      swap2\n      add\n        /* \"Documents/GitHub/Store-system-with-feedback/main.sol\":5792:5835  structStatusPurchases[idPurchase].userLogin */\n      sload\n      sub(shl(0xa0, 0x01), 0x01)\n      and\n        /* \"Documents/GitHub/Store-system-with-feedback/main.sol\":5780:5836  structUsers[structStatusPurchases[idPurchase].userLogin] */\n      dup4\n      mstore\n      dup3\n      add\n      swap3\n      swap1\n      swap3\n      mstore\n      0x40\n      add\n      swap1\n      keccak256\n        /* \"Documents/GitHub/Store-system-with-feedback/main.sol\":5780:5845  structUsers[structStatusPurchases[idPurchase].userLogin].ballance */\n      0x02\n      add\n        /* \"Documents/GitHub/Store-system-with-feedback/main.sol\":5780:5984  structUsers[structStatusPurchases[idPurchase].userLogin].ballance = structUsers[structStatusPurchases[idPurchase].userLogin].ballance - structProducts[structStatusPurchases[idPurchase].titleProduct].price */\n      sstore\n        /* \"Documents/GitHub/Store-system-with-feedback/main.sol\":6084:6105  structStatusPurchases */\n      0x0a\n        /* \"Documents/GitHub/Store-system-with-feedback/main.sol\":6084:6117  structStatusPurchases[idPurchase] */\n      dup1\n      sload\n        /* \"Documents/GitHub/Store-system-with-feedback/main.sol\":6069:6083  structProducts */\n      0x08\n      swap2\n        /* \"Documents/GitHub/Store-system-with-feedback/main.sol\":6084:6105  structStatusPurchases */\n      swap1\n        /* \"Documents/GitHub/Store-system-with-feedback/main.sol\":6106:6116  idPurchase */\n      dup5\n      swap1\n        /* \"Documents/GitHub/Store-system-with-feedback/main.sol\":6084:6117  structStatusPurchases[idPurchase] */\n      dup2\n      lt\n      tag_185\n      jumpi\n      tag_185\n      tag_169\n      jump\t// in\n    tag_185:\n      swap1\n      0x00\n      mstore\n      keccak256(0x00, 0x20)\n      swap1\n      0x03\n      mul\n      add\n        /* \"Documents/GitHub/Store-system-with-feedback/main.sol\":6084:6130  structStatusPurchases[idPurchase].titleProduct */\n      0x01\n      add\n        /* \"Documents/GitHub/Store-system-with-feedback/main.sol\":6069:6131  structProducts[structStatusPurchases[idPurchase].titleProduct] */\n      mload(0x40)\n      tag_187\n      swap2\n      swap1\n      tag_175\n      jump\t// in\n    tag_187:\n      swap1\n      dup2\n      mstore\n      0x20\n      add\n      mload(0x40)\n      dup1\n      swap2\n      sub\n      swap1\n      keccak256\n        /* \"Documents/GitHub/Store-system-with-feedback/main.sol\":6069:6137  structProducts[structStatusPurchases[idPurchase].titleProduct].price */\n      0x02\n      add\n      sload\n        /* \"Documents/GitHub/Store-system-with-feedback/main.sol\":6034:6045  structShops */\n      0x00\n        /* \"Documents/GitHub/Store-system-with-feedback/main.sol\":6034:6057  structShops[msg.sender] */\n      dup1\n        /* \"Documents/GitHub/Store-system-with-feedback/main.sol\":6046:6056  msg.sender */\n      caller\n      sub(shl(0xa0, 0x01), 0x01)\n        /* \"Documents/GitHub/Store-system-with-feedback/main.sol\":6034:6057  structShops[msg.sender] */\n      and\n      sub(shl(0xa0, 0x01), 0x01)\n      and\n      dup2\n      mstore\n      0x20\n      add\n      swap1\n      dup2\n      mstore\n      0x20\n      add\n      0x00\n      keccak256\n        /* \"Documents/GitHub/Store-system-with-feedback/main.sol\":6034:6066  structShops[msg.sender].ballance */\n      0x02\n      add\n      sload\n        /* \"Documents/GitHub/Store-system-with-feedback/main.sol\":6034:6137  structShops[msg.sender].ballance + structProducts[structStatusPurchases[idPurchase].titleProduct].price */\n      tag_188\n      swap2\n      swap1\n      tag_189\n      jump\t// in\n    tag_188:\n        /* \"Documents/GitHub/Store-system-with-feedback/main.sol\":6011:6021  msg.sender */\n      caller\n        /* \"Documents/GitHub/Store-system-with-feedback/main.sol\":5999:6010  structShops */\n      0x00\n        /* \"Documents/GitHub/Store-system-with-feedback/main.sol\":5999:6022  structShops[msg.sender] */\n      swap1\n      dup2\n      mstore\n      0x20\n      dup2\n      swap1\n      mstore\n      0x40\n      swap1\n      keccak256\n        /* \"Documents/GitHub/Store-system-with-feedback/main.sol\":5999:6031  structShops[msg.sender].ballance */\n      0x02\n      add\n        /* \"Documents/GitHub/Store-system-with-feedback/main.sol\":5999:6137  structShops[msg.sender].ballance = structShops[msg.sender].ballance + structProducts[structStatusPurchases[idPurchase].titleProduct].price */\n      sstore\n        /* \"Documents/GitHub/Store-system-with-feedback/main.sol\":5597:6237  function acceptPurchase (uint idPurchase, bool confirmation) public {\r... */\n      pop\n      pop\n      jump\t// out\n        /* \"Documents/GitHub/Store-system-with-feedback/main.sol\":5676:6230  if (confirmation == true) {\r... */\n    tag_166:\n        /* \"Documents/GitHub/Store-system-with-feedback/main.sol\":6213:6218  false */\n      0x00\n        /* \"Documents/GitHub/Store-system-with-feedback/main.sol\":6170:6191  structStatusPurchases */\n      0x0a\n        /* \"Documents/GitHub/Store-system-with-feedback/main.sol\":6192:6202  idPurchase */\n      dup4\n        /* \"Documents/GitHub/Store-system-with-feedback/main.sol\":6170:6203  structStatusPurchases[idPurchase] */\n      dup2\n      sload\n      dup2\n      lt\n      tag_192\n      jumpi\n      tag_192\n      tag_169\n      jump\t// in\n    tag_192:\n      0x00\n      swap2\n      dup3\n      mstore\n      0x20\n      swap1\n      swap2\n      keccak256\n      0x03\n      swap1\n      swap2\n      mul\n      add\n        /* \"Documents/GitHub/Store-system-with-feedback/main.sol\":6170:6210  structStatusPurchases[idPurchase].status */\n      0x02\n      add\n        /* \"Documents/GitHub/Store-system-with-feedback/main.sol\":6170:6218  structStatusPurchases[idPurchase].status = false */\n      dup1\n      sload\n      not(0xff)\n      and\n      swap2\n      iszero\n      iszero\n      swap2\n      swap1\n      swap2\n      or\n      swap1\n      sstore\n      pop\n      pop\n        /* \"Documents/GitHub/Store-system-with-feedback/main.sol\":5597:6237  function acceptPurchase (uint idPurchase, bool confirmation) public {\r... */\n      jump\t// out\n        /* \"Documents/GitHub/Store-system-with-feedback/main.sol\":10376:10704  function create_user(address addr, string memory login, bytes32 password) public {\r... */\n    tag_50:\n        /* \"Documents/GitHub/Store-system-with-feedback/main.sol\":10511:10512  0 */\n      0x00\n      sub(shl(0xa0, 0x01), 0x01)\n        /* \"Documents/GitHub/Store-system-with-feedback/main.sol\":10476:10513  structUserLogins[login] == address(0) */\n      and\n        /* \"Documents/GitHub/Store-system-with-feedback/main.sol\":10476:10492  structUserLogins */\n      0x05\n        /* \"Documents/GitHub/Store-system-with-feedback/main.sol\":10493:10498  login */\n      dup4\n        /* \"Documents/GitHub/Store-system-with-feedback/main.sol\":10476:10499  structUserLogins[login] */\n      mload(0x40)\n      tag_195\n      swap2\n      swap1\n      tag_162\n      jump\t// in\n    tag_195:\n      swap1\n      dup2\n      mstore\n      mload(0x40)\n      swap1\n      dup2\n      swap1\n      sub\n      0x20\n      add\n      swap1\n      keccak256\n      sload\n      sub(shl(0xa0, 0x01), 0x01)\n      and\n        /* \"Documents/GitHub/Store-system-with-feedback/main.sol\":10476:10513  structUserLogins[login] == address(0) */\n      eq\n        /* \"Documents/GitHub/Store-system-with-feedback/main.sol\":10468:10543  require(structUserLogins[login] == address(0), \"Error: User already exist\") */\n      tag_196\n      jumpi\n      mload(0x40)\n      shl(0xe5, 0x461bcd)\n      dup2\n      mstore\n        /* \"#utility.yul\":10786:10788   */\n      0x20\n        /* \"Documents/GitHub/Store-system-with-feedback/main.sol\":10468:10543  require(structUserLogins[login] == address(0), \"Error: User already exist\") */\n      0x04\n      dup3\n      add\n        /* \"#utility.yul\":10768:10789   */\n      mstore\n        /* \"#utility.yul\":10825:10827   */\n      0x19\n        /* \"#utility.yul\":10805:10823   */\n      0x24\n      dup3\n      add\n        /* \"#utility.yul\":10798:10828   */\n      mstore\n      shl(0x3a, 0x115c9c9bdc8e88155cd95c88185b1c9958591e48195e1a5cdd)\n        /* \"#utility.yul\":10844:10862   */\n      0x44\n      dup3\n      add\n        /* \"#utility.yul\":10837:10892   */\n      mstore\n        /* \"#utility.yul\":10909:10927   */\n      0x64\n      add\n        /* \"Documents/GitHub/Store-system-with-feedback/main.sol\":10468:10543  require(structUserLogins[login] == address(0), \"Error: User already exist\") */\n    tag_197:\n      mload(0x40)\n      dup1\n      swap2\n      sub\n      swap1\n      revert\n    tag_196:\n        /* \"Documents/GitHub/Store-system-with-feedback/main.sol\":10574:10617  structUser(login, password, 1000, 0, false) */\n      0x40\n      dup1\n      mload\n      0xa0\n      dup2\n      add\n      dup3\n      mstore\n      dup4\n      dup2\n      mstore\n      0x20\n      dup1\n      dup3\n      add\n      dup5\n      swap1\n      mstore\n        /* \"Documents/GitHub/Store-system-with-feedback/main.sol\":10602:10606  1000 */\n      0x03e8\n        /* \"Documents/GitHub/Store-system-with-feedback/main.sol\":10574:10617  structUser(login, password, 1000, 0, false) */\n      dup3\n      dup5\n      add\n      mstore\n      0x00\n      0x60\n      dup4\n      add\n      dup2\n      swap1\n      mstore\n      0x80\n      dup4\n      add\n      dup2\n      swap1\n      mstore\n      sub(shl(0xa0, 0x01), 0x01)\n        /* \"Documents/GitHub/Store-system-with-feedback/main.sol\":10554:10571  structUsers[addr] */\n      dup8\n      and\n      dup2\n      mstore\n        /* \"Documents/GitHub/Store-system-with-feedback/main.sol\":10554:10565  structUsers */\n      0x04\n        /* \"Documents/GitHub/Store-system-with-feedback/main.sol\":10554:10571  structUsers[addr] */\n      dup3\n      mstore\n      swap3\n      swap1\n      swap3\n      keccak256\n        /* \"Documents/GitHub/Store-system-with-feedback/main.sol\":10554:10617  structUsers[addr] = structUser(login, password, 1000, 0, false) */\n      dup2\n      mload\n      dup1\n      mload\n        /* \"Documents/GitHub/Store-system-with-feedback/main.sol\":10574:10617  structUser(login, password, 1000, 0, false) */\n      swap3\n      swap4\n        /* \"Documents/GitHub/Store-system-with-feedback/main.sol\":10554:10571  structUsers[addr] */\n      swap2\n      swap3\n        /* \"Documents/GitHub/Store-system-with-feedback/main.sol\":10554:10617  structUsers[addr] = structUser(login, password, 1000, 0, false) */\n      tag_199\n      swap3\n        /* \"Documents/GitHub/Store-system-with-feedback/main.sol\":10554:10571  structUsers[addr] */\n      dup5\n      swap3\n        /* \"Documents/GitHub/Store-system-with-feedback/main.sol\":10554:10617  structUsers[addr] = structUser(login, password, 1000, 0, false) */\n      add\n      swap1\n      tag_200\n      jump\t// in\n    tag_199:\n      pop\n      0x20\n      dup3\n      add\n      mload\n      0x01\n      dup3\n      add\n      sstore\n      0x40\n      dup1\n      dup4\n      add\n      mload\n      0x02\n      dup4\n      add\n      sstore\n      0x60\n      dup4\n      add\n      mload\n      0x03\n      dup4\n      add\n      sstore\n      0x80\n      swap1\n      swap3\n      add\n      mload\n      0x04\n      swap1\n      swap2\n      add\n      dup1\n      sload\n      not(0xff)\n      and\n      swap2\n      iszero\n      iszero\n      swap2\n      swap1\n      swap2\n      or\n      swap1\n      sstore\n        /* \"Documents/GitHub/Store-system-with-feedback/main.sol\":10628:10651  structUserLogins[login] */\n      mload\n        /* \"Documents/GitHub/Store-system-with-feedback/main.sol\":10654:10658  addr */\n      dup4\n      swap1\n        /* \"Documents/GitHub/Store-system-with-feedback/main.sol\":10628:10644  structUserLogins */\n      0x05\n      swap1\n        /* \"Documents/GitHub/Store-system-with-feedback/main.sol\":10628:10651  structUserLogins[login] */\n      tag_201\n      swap1\n        /* \"Documents/GitHub/Store-system-with-feedback/main.sol\":10645:10650  login */\n      dup6\n      swap1\n        /* \"Documents/GitHub/Store-system-with-feedback/main.sol\":10628:10651  structUserLogins[login] */\n      tag_162\n      jump\t// in\n    tag_201:\n      swap1\n      dup2\n      mstore\n      mload(0x40)\n      swap1\n      dup2\n      swap1\n      sub\n      0x20\n      add\n      swap1\n      keccak256\n        /* \"Documents/GitHub/Store-system-with-feedback/main.sol\":10628:10658  structUserLogins[login] = addr */\n      dup1\n      sload\n      sub(shl(0xa0, 0x01), 0x01)\n      swap3\n      dup4\n      and\n      not(sub(shl(0xa0, 0x01), 0x01))\n      swap2\n      dup3\n      and\n      or\n      swap1\n      swap2\n      sstore\n        /* \"Documents/GitHub/Store-system-with-feedback/main.sol\":10669:10685  userAddressArray */\n      0x07\n        /* \"Documents/GitHub/Store-system-with-feedback/main.sol\":10669:10696  userAddressArray.push(addr) */\n      dup1\n      sload\n        /* \"Documents/GitHub/Store-system-with-feedback/main.sol\":10628:10658  structUserLogins[login] = addr */\n      0x01\n        /* \"Documents/GitHub/Store-system-with-feedback/main.sol\":10669:10696  userAddressArray.push(addr) */\n      dup2\n      add\n      dup3\n      sstore\n        /* \"Documents/GitHub/Store-system-with-feedback/main.sol\":10628:10651  structUserLogins[login] */\n      0x00\n        /* \"Documents/GitHub/Store-system-with-feedback/main.sol\":10669:10696  userAddressArray.push(addr) */\n      swap2\n      swap1\n      swap2\n      mstore\n      0xa66cc928b5edb82af9bd49922954155ab7b0942694bea4ce44661d9a8736c688\n      add\n      dup1\n      sload\n      swap6\n      swap1\n      swap3\n      and\n      swap5\n      and\n      swap4\n      swap1\n      swap4\n      or\n      swap1\n      swap3\n      sstore\n      pop\n      pop\n        /* \"Documents/GitHub/Store-system-with-feedback/main.sol\":10376:10704  function create_user(address addr, string memory login, bytes32 password) public {\r... */\n      jump\t// out\n        /* \"Documents/GitHub/Store-system-with-feedback/main.sol\":9648:9919  function productPurchases (string memory titleProduct) public {\r... */\n    tag_53:\n        /* \"Documents/GitHub/Store-system-with-feedback/main.sol\":9765:9779  structProducts */\n      0x08\n        /* \"Documents/GitHub/Store-system-with-feedback/main.sol\":9780:9792  titleProduct */\n      dup2\n        /* \"Documents/GitHub/Store-system-with-feedback/main.sol\":9765:9793  structProducts[titleProduct] */\n      mload(0x40)\n      tag_204\n      swap2\n      swap1\n      tag_162\n      jump\t// in\n    tag_204:\n      swap1\n      dup2\n      mstore\n      0x20\n      add\n      mload(0x40)\n      dup1\n      swap2\n      sub\n      swap1\n      keccak256\n        /* \"Documents/GitHub/Store-system-with-feedback/main.sol\":9765:9799  structProducts[titleProduct].price */\n      0x02\n      add\n      sload\n        /* \"Documents/GitHub/Store-system-with-feedback/main.sol\":9729:9740  structUsers */\n      0x04\n        /* \"Documents/GitHub/Store-system-with-feedback/main.sol\":9729:9752  structUsers[msg.sender] */\n      0x00\n        /* \"Documents/GitHub/Store-system-with-feedback/main.sol\":9741:9751  msg.sender */\n      caller\n      sub(shl(0xa0, 0x01), 0x01)\n        /* \"Documents/GitHub/Store-system-with-feedback/main.sol\":9729:9752  structUsers[msg.sender] */\n      and\n      sub(shl(0xa0, 0x01), 0x01)\n      and\n      dup2\n      mstore\n      0x20\n      add\n      swap1\n      dup2\n      mstore\n      0x20\n      add\n      0x00\n      keccak256\n        /* \"Documents/GitHub/Store-system-with-feedback/main.sol\":9729:9761  structUsers[msg.sender].ballance */\n      0x02\n      add\n      sload\n        /* \"Documents/GitHub/Store-system-with-feedback/main.sol\":9729:9799  structUsers[msg.sender].ballance >= structProducts[titleProduct].price */\n      lt\n      iszero\n        /* \"Documents/GitHub/Store-system-with-feedback/main.sol\":9721:9820  require(structUsers[msg.sender].ballance >= structProducts[titleProduct].price, \"error: not money\") */\n      tag_205\n      jumpi\n      mload(0x40)\n      shl(0xe5, 0x461bcd)\n      dup2\n      mstore\n        /* \"#utility.yul\":11846:11848   */\n      0x20\n        /* \"Documents/GitHub/Store-system-with-feedback/main.sol\":9721:9820  require(structUsers[msg.sender].ballance >= structProducts[titleProduct].price, \"error: not money\") */\n      0x04\n      dup3\n      add\n        /* \"#utility.yul\":11828:11849   */\n      mstore\n        /* \"#utility.yul\":11885:11887   */\n      0x10\n        /* \"#utility.yul\":11865:11883   */\n      0x24\n      dup3\n      add\n        /* \"#utility.yul\":11858:11888   */\n      mstore\n      shl(0x80, 0x6572726f723a206e6f74206d6f6e6579)\n        /* \"#utility.yul\":11904:11922   */\n      0x44\n      dup3\n      add\n        /* \"#utility.yul\":11897:11943   */\n      mstore\n        /* \"#utility.yul\":11960:11978   */\n      0x64\n      add\n        /* \"Documents/GitHub/Store-system-with-feedback/main.sol\":9721:9820  require(structUsers[msg.sender].ballance >= structProducts[titleProduct].price, \"error: not money\") */\n      tag_197\n        /* \"#utility.yul\":11644:11984   */\n      jump\n        /* \"Documents/GitHub/Store-system-with-feedback/main.sol\":9721:9820  require(structUsers[msg.sender].ballance >= structProducts[titleProduct].price, \"error: not money\") */\n    tag_205:\n        /* \"Documents/GitHub/Store-system-with-feedback/main.sol\":9858:9910  structStatusPurchase(msg.sender, titleProduct, true) */\n      0x40\n      dup1\n      mload\n      0x60\n      dup2\n      add\n      dup3\n      mstore\n        /* \"Documents/GitHub/Store-system-with-feedback/main.sol\":9879:9889  msg.sender */\n      caller\n        /* \"Documents/GitHub/Store-system-with-feedback/main.sol\":9858:9910  structStatusPurchase(msg.sender, titleProduct, true) */\n      dup2\n      mstore\n      0x20\n      dup1\n      dup3\n      add\n      dup5\n      dup2\n      mstore\n        /* \"Documents/GitHub/Store-system-with-feedback/main.sol\":9905:9909  true */\n      0x01\n        /* \"Documents/GitHub/Store-system-with-feedback/main.sol\":9858:9910  structStatusPurchase(msg.sender, titleProduct, true) */\n      swap4\n      dup4\n      add\n      dup5\n      swap1\n      mstore\n        /* \"Documents/GitHub/Store-system-with-feedback/main.sol\":9831:9852  structStatusPurchases */\n      0x0a\n        /* \"Documents/GitHub/Store-system-with-feedback/main.sol\":9831:9911  structStatusPurchases.push(structStatusPurchase(msg.sender, titleProduct, true)) */\n      dup1\n      sload\n      swap5\n      dup6\n      add\n      dup2\n      sstore\n      0x00\n      mstore\n      dup3\n      mload\n      0xc65a7bb8d6351c1cf70c95a316cc6a92839c986682d98bc35f958f4883f9d2a8\n      0x03\n      swap1\n      swap6\n      mul\n      swap5\n      dup6\n      add\n      dup1\n      sload\n      not(sub(shl(0xa0, 0x01), 0x01))\n      and\n      sub(shl(0xa0, 0x01), 0x01)\n      swap1\n      swap3\n      and\n      swap2\n      swap1\n      swap2\n      or\n      dup2\n      sstore\n      swap1\n      mload\n      dup1\n      mload\n        /* \"Documents/GitHub/Store-system-with-feedback/main.sol\":9858:9910  structStatusPurchase(msg.sender, titleProduct, true) */\n      swap4\n      swap5\n        /* \"Documents/GitHub/Store-system-with-feedback/main.sol\":9831:9911  structStatusPurchases.push(structStatusPurchase(msg.sender, titleProduct, true)) */\n      swap2\n      swap4\n      tag_209\n      swap4\n      0xc65a7bb8d6351c1cf70c95a316cc6a92839c986682d98bc35f958f4883f9d2a9\n      swap1\n      swap4\n      add\n      swap3\n      swap2\n      swap1\n      swap2\n      add\n      swap1\n      tag_200\n      jump\t// in\n    tag_209:\n      pop\n      0x40\n      swap2\n      swap1\n      swap2\n      add\n      mload\n      0x02\n      swap1\n      swap2\n      add\n      dup1\n      sload\n      not(0xff)\n      and\n      swap2\n      iszero\n      iszero\n      swap2\n      swap1\n      swap2\n      or\n      swap1\n      sstore\n      pop\n        /* \"Documents/GitHub/Store-system-with-feedback/main.sol\":9648:9919  function productPurchases (string memory titleProduct) public {\r... */\n      jump\t// out\n        /* \"Documents/GitHub/Store-system-with-feedback/main.sol\":8555:8974  function leaveComment (string memory userName, string[] memory comment) public {\r... */\n    tag_62:\n        /* \"Documents/GitHub/Store-system-with-feedback/main.sol\":8649:8655  uint i */\n      0x00\n        /* \"Documents/GitHub/Store-system-with-feedback/main.sol\":8645:8967  for(uint i = 0; i < complaintBooks.length; i++) {\r... */\n    tag_211:\n        /* \"Documents/GitHub/Store-system-with-feedback/main.sol\":8665:8679  complaintBooks */\n      0x03\n        /* \"Documents/GitHub/Store-system-with-feedback/main.sol\":8665:8686  complaintBooks.length */\n      sload\n        /* \"Documents/GitHub/Store-system-with-feedback/main.sol\":8661:8686  i < complaintBooks.length */\n      dup2\n      lt\n        /* \"Documents/GitHub/Store-system-with-feedback/main.sol\":8645:8967  for(uint i = 0; i < complaintBooks.length; i++) {\r... */\n      iszero\n      tag_212\n      jumpi\n        /* \"Documents/GitHub/Store-system-with-feedback/main.sol\":8708:8734  string memory tempUserName */\n      0x00\n        /* \"Documents/GitHub/Store-system-with-feedback/main.sol\":8737:8751  complaintBooks */\n      0x03\n        /* \"Documents/GitHub/Store-system-with-feedback/main.sol\":8752:8753  i */\n      dup3\n        /* \"Documents/GitHub/Store-system-with-feedback/main.sol\":8737:8754  complaintBooks[i] */\n      dup2\n      sload\n      dup2\n      lt\n      tag_215\n      jumpi\n      tag_215\n      tag_169\n      jump\t// in\n    tag_215:\n      swap1\n      0x00\n      mstore\n      keccak256(0x00, 0x20)\n      swap1\n      0x05\n      mul\n      add\n        /* \"Documents/GitHub/Store-system-with-feedback/main.sol\":8737:8763  complaintBooks[i].userName */\n      0x01\n      add\n        /* \"Documents/GitHub/Store-system-with-feedback/main.sol\":8708:8763  string memory tempUserName = complaintBooks[i].userName */\n      dup1\n      sload\n      tag_217\n      swap1\n      tag_218\n      jump\t// in\n    tag_217:\n      dup1\n      0x1f\n      add\n      0x20\n      dup1\n      swap2\n      div\n      mul\n      0x20\n      add\n      mload(0x40)\n      swap1\n      dup2\n      add\n      0x40\n      mstore\n      dup1\n      swap3\n      swap2\n      swap1\n      dup2\n      dup2\n      mstore\n      0x20\n      add\n      dup3\n      dup1\n      sload\n      tag_219\n      swap1\n      tag_218\n      jump\t// in\n    tag_219:\n      dup1\n      iszero\n      tag_220\n      jumpi\n      dup1\n      0x1f\n      lt\n      tag_221\n      jumpi\n      0x0100\n      dup1\n      dup4\n      sload\n      div\n      mul\n      dup4\n      mstore\n      swap2\n      0x20\n      add\n      swap2\n      jump(tag_220)\n    tag_221:\n      dup3\n      add\n      swap2\n      swap1\n      0x00\n      mstore\n      keccak256(0x00, 0x20)\n      swap1\n    tag_222:\n      dup2\n      sload\n      dup2\n      mstore\n      swap1\n      0x01\n      add\n      swap1\n      0x20\n      add\n      dup1\n      dup4\n      gt\n      tag_222\n      jumpi\n      dup3\n      swap1\n      sub\n      0x1f\n      and\n      dup3\n      add\n      swap2\n    tag_220:\n      pop\n      pop\n      pop\n      pop\n      pop\n      swap1\n      pop\n        /* \"Documents/GitHub/Store-system-with-feedback/main.sol\":8853:8861  userName */\n      dup4\n        /* \"Documents/GitHub/Store-system-with-feedback/main.sol\":8836:8862  abi.encodePacked(userName) */\n      add(0x20, mload(0x40))\n      tag_223\n      swap2\n      swap1\n      tag_162\n      jump\t// in\n    tag_223:\n      mload(0x40)\n      0x20\n      dup2\n      dup4\n      sub\n      sub\n      dup2\n      mstore\n      swap1\n      0x40\n      mstore\n        /* \"Documents/GitHub/Store-system-with-feedback/main.sol\":8826:8863  keccak256(abi.encodePacked(userName)) */\n      dup1\n      mload\n      swap1\n      0x20\n      add\n      keccak256\n        /* \"Documents/GitHub/Store-system-with-feedback/main.sol\":8808:8820  tempUserName */\n      dup2\n        /* \"Documents/GitHub/Store-system-with-feedback/main.sol\":8791:8821  abi.encodePacked(tempUserName) */\n      add(0x20, mload(0x40))\n      tag_224\n      swap2\n      swap1\n      tag_162\n      jump\t// in\n    tag_224:\n      mload(0x40)\n      0x20\n      dup2\n      dup4\n      sub\n      sub\n      dup2\n      mstore\n      swap1\n      0x40\n      mstore\n        /* \"Documents/GitHub/Store-system-with-feedback/main.sol\":8781:8822  keccak256(abi.encodePacked(tempUserName)) */\n      dup1\n      mload\n      swap1\n      0x20\n      add\n      keccak256\n        /* \"Documents/GitHub/Store-system-with-feedback/main.sol\":8781:8863  keccak256(abi.encodePacked(tempUserName)) == keccak256(abi.encodePacked(userName)) */\n      eq\n        /* \"Documents/GitHub/Store-system-with-feedback/main.sol\":8778:8956  if(keccak256(abi.encodePacked(tempUserName)) == keccak256(abi.encodePacked(userName))) {                    \r... */\n      iszero\n      tag_225\n      jumpi\n        /* \"Documents/GitHub/Store-system-with-feedback/main.sol\":8933:8940  comment */\n      dup3\n        /* \"Documents/GitHub/Store-system-with-feedback/main.sol\":8904:8918  complaintBooks */\n      0x03\n        /* \"Documents/GitHub/Store-system-with-feedback/main.sol\":8919:8920  i */\n      dup4\n        /* \"Documents/GitHub/Store-system-with-feedback/main.sol\":8904:8921  complaintBooks[i] */\n      dup2\n      sload\n      dup2\n      lt\n      tag_227\n      jumpi\n      tag_227\n      tag_169\n      jump\t// in\n    tag_227:\n      swap1\n      0x00\n      mstore\n      keccak256(0x00, 0x20)\n      swap1\n      0x05\n      mul\n      add\n        /* \"Documents/GitHub/Store-system-with-feedback/main.sol\":8904:8930  complaintBooks[i].comments */\n      0x04\n      add\n        /* \"Documents/GitHub/Store-system-with-feedback/main.sol\":8904:8940  complaintBooks[i].comments = comment */\n      swap1\n      dup1\n      mload\n      swap1\n      0x20\n      add\n      swap1\n      tag_229\n      swap3\n      swap2\n      swap1\n      tag_230\n      jump\t// in\n    tag_229:\n      pop\n        /* \"Documents/GitHub/Store-system-with-feedback/main.sol\":8778:8956  if(keccak256(abi.encodePacked(tempUserName)) == keccak256(abi.encodePacked(userName))) {                    \r... */\n    tag_225:\n      pop\n        /* \"Documents/GitHub/Store-system-with-feedback/main.sol\":8688:8691  i++ */\n      dup1\n      tag_231\n      dup2\n      tag_232\n      jump\t// in\n    tag_231:\n      swap2\n      pop\n      pop\n        /* \"Documents/GitHub/Store-system-with-feedback/main.sol\":8645:8967  for(uint i = 0; i < complaintBooks.length; i++) {\r... */\n      jump(tag_211)\n    tag_212:\n      pop\n        /* \"Documents/GitHub/Store-system-with-feedback/main.sol\":8555:8974  function leaveComment (string memory userName, string[] memory comment) public {\r... */\n      pop\n      pop\n      jump\t// out\n        /* \"Documents/GitHub/Store-system-with-feedback/main.sol\":6282:6743  function acceptReturn(uint idReturn, bool confirmation) public {\r... */\n    tag_65:\n        /* \"Documents/GitHub/Store-system-with-feedback/main.sol\":6375:6379  true */\n      0x01\n        /* \"Documents/GitHub/Store-system-with-feedback/main.sol\":6359:6379  confirmation == true */\n      dup2\n      iszero\n      iszero\n      eq\n        /* \"Documents/GitHub/Store-system-with-feedback/main.sol\":6356:6736  if(confirmation == true) {\r... */\n      iszero\n      tag_234\n      jumpi\n        /* \"Documents/GitHub/Store-system-with-feedback/main.sol\":6435:6440  false */\n      0x00\n        /* \"Documents/GitHub/Store-system-with-feedback/main.sol\":6396:6415  structStatusReturns */\n      0x0b\n        /* \"Documents/GitHub/Store-system-with-feedback/main.sol\":6416:6424  idReturn */\n      dup4\n        /* \"Documents/GitHub/Store-system-with-feedback/main.sol\":6396:6425  structStatusReturns[idReturn] */\n      dup2\n      sload\n      dup2\n      lt\n      tag_236\n      jumpi\n      tag_236\n      tag_169\n      jump\t// in\n    tag_236:\n      swap1\n      0x00\n      mstore\n      keccak256(0x00, 0x20)\n      swap1\n      0x03\n      mul\n      add\n        /* \"Documents/GitHub/Store-system-with-feedback/main.sol\":6396:6432  structStatusReturns[idReturn].status */\n      0x02\n      add\n      0x00\n        /* \"Documents/GitHub/Store-system-with-feedback/main.sol\":6396:6440  structStatusReturns[idReturn].status = false */\n      0x0100\n      exp\n      dup2\n      sload\n      dup2\n      0xff\n      mul\n      not\n      and\n      swap1\n      dup4\n      iszero\n      iszero\n      mul\n      or\n      swap1\n      sstore\n      pop\n        /* \"Documents/GitHub/Store-system-with-feedback/main.sol\":6583:6597  structProducts */\n      0x08\n        /* \"Documents/GitHub/Store-system-with-feedback/main.sol\":6598:6617  structStatusReturns */\n      0x0b\n        /* \"Documents/GitHub/Store-system-with-feedback/main.sol\":6618:6626  idReturn */\n      dup4\n        /* \"Documents/GitHub/Store-system-with-feedback/main.sol\":6598:6627  structStatusReturns[idReturn] */\n      dup2\n      sload\n      dup2\n      lt\n      tag_239\n      jumpi\n      tag_239\n      tag_169\n      jump\t// in\n    tag_239:\n      swap1\n      0x00\n      mstore\n      keccak256(0x00, 0x20)\n      swap1\n      0x03\n      mul\n      add\n        /* \"Documents/GitHub/Store-system-with-feedback/main.sol\":6598:6640  structStatusReturns[idReturn].titleProduct */\n      0x01\n      add\n        /* \"Documents/GitHub/Store-system-with-feedback/main.sol\":6583:6641  structProducts[structStatusReturns[idReturn].titleProduct] */\n      mload(0x40)\n      tag_241\n      swap2\n      swap1\n      tag_175\n      jump\t// in\n    tag_241:\n      swap1\n      dup2\n      mstore\n      0x20\n      add\n      mload(0x40)\n      dup1\n      swap2\n      sub\n      swap1\n      keccak256\n        /* \"Documents/GitHub/Store-system-with-feedback/main.sol\":6583:6647  structProducts[structStatusReturns[idReturn].titleProduct].price */\n      0x02\n      add\n      sload\n        /* \"Documents/GitHub/Store-system-with-feedback/main.sol\":6519:6530  structUsers */\n      0x04\n        /* \"Documents/GitHub/Store-system-with-feedback/main.sol\":6519:6571  structUsers[structStatusReturns[idReturn].userLogin] */\n      0x00\n        /* \"Documents/GitHub/Store-system-with-feedback/main.sol\":6531:6550  structStatusReturns */\n      0x0b\n        /* \"Documents/GitHub/Store-system-with-feedback/main.sol\":6551:6559  idReturn */\n      dup6\n        /* \"Documents/GitHub/Store-system-with-feedback/main.sol\":6531:6560  structStatusReturns[idReturn] */\n      dup2\n      sload\n      dup2\n      lt\n      tag_243\n      jumpi\n      tag_243\n      tag_169\n      jump\t// in\n    tag_243:\n      0x00\n      swap2\n      dup3\n      mstore\n      0x20\n      dup1\n      dup4\n      keccak256\n      0x03\n      swap1\n      swap3\n      mul\n      swap1\n      swap2\n      add\n        /* \"Documents/GitHub/Store-system-with-feedback/main.sol\":6531:6570  structStatusReturns[idReturn].userLogin */\n      sload\n      sub(shl(0xa0, 0x01), 0x01)\n      and\n        /* \"Documents/GitHub/Store-system-with-feedback/main.sol\":6519:6571  structUsers[structStatusReturns[idReturn].userLogin] */\n      dup4\n      mstore\n      dup3\n      add\n      swap3\n      swap1\n      swap3\n      mstore\n      0x40\n      add\n      swap1\n      keccak256\n        /* \"Documents/GitHub/Store-system-with-feedback/main.sol\":6519:6580  structUsers[structStatusReturns[idReturn].userLogin].ballance */\n      0x02\n      add\n      sload\n        /* \"Documents/GitHub/Store-system-with-feedback/main.sol\":6519:6647  structUsers[structStatusReturns[idReturn].userLogin].ballance + structProducts[structStatusReturns[idReturn].titleProduct].price */\n      tag_245\n      swap2\n      swap1\n      tag_189\n      jump\t// in\n    tag_245:\n        /* \"Documents/GitHub/Store-system-with-feedback/main.sol\":6455:6466  structUsers */\n      0x04\n        /* \"Documents/GitHub/Store-system-with-feedback/main.sol\":6455:6507  structUsers[structStatusReturns[idReturn].userLogin] */\n      0x00\n        /* \"Documents/GitHub/Store-system-with-feedback/main.sol\":6467:6486  structStatusReturns */\n      0x0b\n        /* \"Documents/GitHub/Store-system-with-feedback/main.sol\":6487:6495  idReturn */\n      dup6\n        /* \"Documents/GitHub/Store-system-with-feedback/main.sol\":6467:6496  structStatusReturns[idReturn] */\n      dup2\n      sload\n      dup2\n      lt\n      tag_247\n      jumpi\n      tag_247\n      tag_169\n      jump\t// in\n    tag_247:\n      0x00\n      swap2\n      dup3\n      mstore\n      0x20\n      dup1\n      dup4\n      keccak256\n      0x03\n      swap1\n      swap3\n      mul\n      swap1\n      swap2\n      add\n        /* \"Documents/GitHub/Store-system-with-feedback/main.sol\":6467:6506  structStatusReturns[idReturn].userLogin */\n      sload\n      sub(shl(0xa0, 0x01), 0x01)\n      and\n        /* \"Documents/GitHub/Store-system-with-feedback/main.sol\":6455:6507  structUsers[structStatusReturns[idReturn].userLogin] */\n      dup4\n      mstore\n      dup3\n      add\n      swap3\n      swap1\n      swap3\n      mstore\n      0x40\n      add\n      swap1\n      keccak256\n        /* \"Documents/GitHub/Store-system-with-feedback/main.sol\":6455:6516  structUsers[structStatusReturns[idReturn].userLogin].ballance */\n      0x02\n      add\n        /* \"Documents/GitHub/Store-system-with-feedback/main.sol\":6455:6647  structUsers[structStatusReturns[idReturn].userLogin].ballance = structUsers[structStatusReturns[idReturn].userLogin].ballance + structProducts[structStatusReturns[idReturn].titleProduct].price */\n      sstore\n        /* \"Documents/GitHub/Store-system-with-feedback/main.sol\":5597:6237  function acceptPurchase (uint idPurchase, bool confirmation) public {\r... */\n      pop\n      pop\n      jump\t// out\n        /* \"Documents/GitHub/Store-system-with-feedback/main.sol\":6356:6736  if(confirmation == true) {\r... */\n    tag_234:\n        /* \"Documents/GitHub/Store-system-with-feedback/main.sol\":6719:6724  false */\n      0x00\n        /* \"Documents/GitHub/Store-system-with-feedback/main.sol\":6680:6699  structStatusReturns */\n      0x0b\n        /* \"Documents/GitHub/Store-system-with-feedback/main.sol\":6700:6708  idReturn */\n      dup4\n        /* \"Documents/GitHub/Store-system-with-feedback/main.sol\":6680:6709  structStatusReturns[idReturn] */\n      dup2\n      sload\n      dup2\n      lt\n      tag_192\n      jumpi\n      tag_192\n      tag_169\n      jump\t// in\n        /* \"Documents/GitHub/Store-system-with-feedback/main.sol\":10158:10342  function productMarriageRegistration (string memory titleProduct) public {\r... */\n    tag_68:\n        /* \"Documents/GitHub/Store-system-with-feedback/main.sol\":10275:10333  structMarriageRegistration(msg.sender, titleProduct, true) */\n      0x40\n      dup1\n      mload\n      0x60\n      dup2\n      add\n      dup3\n      mstore\n        /* \"Documents/GitHub/Store-system-with-feedback/main.sol\":10302:10312  msg.sender */\n      caller\n        /* \"Documents/GitHub/Store-system-with-feedback/main.sol\":10275:10333  structMarriageRegistration(msg.sender, titleProduct, true) */\n      dup2\n      mstore\n      0x20\n      dup1\n      dup3\n      add\n      dup5\n      dup2\n      mstore\n        /* \"Documents/GitHub/Store-system-with-feedback/main.sol\":10328:10332  true */\n      0x01\n        /* \"Documents/GitHub/Store-system-with-feedback/main.sol\":10275:10333  structMarriageRegistration(msg.sender, titleProduct, true) */\n      swap4\n      dup4\n      add\n      dup5\n      swap1\n      mstore\n        /* \"Documents/GitHub/Store-system-with-feedback/main.sol\":10242:10269  structMarriageRegistrations */\n      0x0c\n        /* \"Documents/GitHub/Store-system-with-feedback/main.sol\":10242:10334  structMarriageRegistrations.push(structMarriageRegistration(msg.sender, titleProduct, true)) */\n      dup1\n      sload\n      swap5\n      dup6\n      add\n      dup2\n      sstore\n      0x00\n      mstore\n      dup3\n      mload\n      0xdf6966c971051c3d54ec59162606531493a51404a002842f56009d7e5cf4a8c7\n      0x03\n      swap1\n      swap6\n      mul\n      swap5\n      dup6\n      add\n      dup1\n      sload\n      not(sub(shl(0xa0, 0x01), 0x01))\n      and\n      sub(shl(0xa0, 0x01), 0x01)\n      swap1\n      swap3\n      and\n      swap2\n      swap1\n      swap2\n      or\n      dup2\n      sstore\n      swap1\n      mload\n      dup1\n      mload\n        /* \"Documents/GitHub/Store-system-with-feedback/main.sol\":10275:10333  structMarriageRegistration(msg.sender, titleProduct, true) */\n      swap4\n      swap5\n        /* \"Documents/GitHub/Store-system-with-feedback/main.sol\":10242:10334  structMarriageRegistrations.push(structMarriageRegistration(msg.sender, titleProduct, true)) */\n      swap2\n      swap4\n      tag_209\n      swap4\n      0xdf6966c971051c3d54ec59162606531493a51404a002842f56009d7e5cf4a8c8\n      swap1\n      swap4\n      add\n      swap3\n      swap2\n      swap1\n      swap2\n      add\n      swap1\n      tag_200\n      jump\t// in\n        /* \"Documents/GitHub/Store-system-with-feedback/main.sol\":7530:7630  function getProductList() public view returns(string[] memory) {\r... */\n    tag_70:\n        /* \"Documents/GitHub/Store-system-with-feedback/main.sol\":7576:7591  string[] memory */\n      0x60\n        /* \"Documents/GitHub/Store-system-with-feedback/main.sol\":7611:7622  productList */\n      0x09\n        /* \"Documents/GitHub/Store-system-with-feedback/main.sol\":7604:7622  return productList */\n      dup1\n      sload\n      dup1\n      0x20\n      mul\n      0x20\n      add\n      mload(0x40)\n      swap1\n      dup2\n      add\n      0x40\n      mstore\n      dup1\n      swap3\n      swap2\n      swap1\n      dup2\n      dup2\n      mstore\n      0x20\n      add\n      0x00\n      swap1\n    tag_257:\n      dup3\n      dup3\n      lt\n      iszero\n      tag_258\n      jumpi\n      dup4\n      dup3\n      swap1\n      0x00\n      mstore\n      keccak256(0x00, 0x20)\n      add\n      dup1\n      sload\n      tag_260\n      swap1\n      tag_218\n      jump\t// in\n    tag_260:\n      dup1\n      0x1f\n      add\n      0x20\n      dup1\n      swap2\n      div\n      mul\n      0x20\n      add\n      mload(0x40)\n      swap1\n      dup2\n      add\n      0x40\n      mstore\n      dup1\n      swap3\n      swap2\n      swap1\n      dup2\n      dup2\n      mstore\n      0x20\n      add\n      dup3\n      dup1\n      sload\n      tag_261\n      swap1\n      tag_218\n      jump\t// in\n    tag_261:\n      dup1\n      iszero\n      tag_262\n      jumpi\n      dup1\n      0x1f\n      lt\n      tag_263\n      jumpi\n      0x0100\n      dup1\n      dup4\n      sload\n      div\n      mul\n      dup4\n      mstore\n      swap2\n      0x20\n      add\n      swap2\n      jump(tag_262)\n    tag_263:\n      dup3\n      add\n      swap2\n      swap1\n      0x00\n      mstore\n      keccak256(0x00, 0x20)\n      swap1\n    tag_264:\n      dup2\n      sload\n      dup2\n      mstore\n      swap1\n      0x01\n      add\n      swap1\n      0x20\n      add\n      dup1\n      dup4\n      gt\n      tag_264\n      jumpi\n      dup3\n      swap1\n      sub\n      0x1f\n      and\n      dup3\n      add\n      swap2\n    tag_262:\n      pop\n      pop\n      pop\n      pop\n      pop\n      dup2\n      mstore\n      0x20\n      add\n      swap1\n      0x01\n      add\n      swap1\n      jump(tag_257)\n    tag_258:\n      pop\n      pop\n      pop\n      pop\n      swap1\n      pop\n        /* \"Documents/GitHub/Store-system-with-feedback/main.sol\":7530:7630  function getProductList() public view returns(string[] memory) {\r... */\n      swap1\n      jump\t// out\n        /* \"Documents/GitHub/Store-system-with-feedback/main.sol\":1557:1694  function check_logged_shop(string memory login) public view returns(bool) {\r... */\n    tag_75:\n        /* \"Documents/GitHub/Store-system-with-feedback/main.sol\":1625:1629  bool */\n      0x00\n        /* \"Documents/GitHub/Store-system-with-feedback/main.sol\":1649:1660  structShops */\n      dup1\n        /* \"Documents/GitHub/Store-system-with-feedback/main.sol\":1649:1678  structShops[shopLists[login]] */\n      0x00\n        /* \"Documents/GitHub/Store-system-with-feedback/main.sol\":1661:1670  shopLists */\n      0x01\n        /* \"Documents/GitHub/Store-system-with-feedback/main.sol\":1671:1676  login */\n      dup5\n        /* \"Documents/GitHub/Store-system-with-feedback/main.sol\":1661:1677  shopLists[login] */\n      mload(0x40)\n      tag_266\n      swap2\n      swap1\n      tag_162\n      jump\t// in\n    tag_266:\n      swap1\n      dup2\n      mstore\n      0x40\n      dup1\n      mload\n      0x20\n      swap3\n      dup2\n      swap1\n      sub\n      dup4\n      add\n      swap1\n      keccak256\n      sload\n      sub(shl(0xa0, 0x01), 0x01)\n      and\n        /* \"Documents/GitHub/Store-system-with-feedback/main.sol\":1649:1678  structShops[shopLists[login]] */\n      dup4\n      mstore\n      swap1\n      dup3\n      add\n      swap3\n      swap1\n      swap3\n      mstore\n      add\n      0x00\n      keccak256\n        /* \"Documents/GitHub/Store-system-with-feedback/main.sol\":1649:1685  structShops[shopLists[login]].logged */\n      0x04\n      add\n      sload\n      0xff\n      and\n      swap3\n      swap2\n      pop\n      pop\n        /* \"Documents/GitHub/Store-system-with-feedback/main.sol\":1557:1694  function check_logged_shop(string memory login) public view returns(bool) {\r... */\n      jump\t// out\n        /* \"Documents/GitHub/Store-system-with-feedback/main.sol\":11206:11328  function login_out_user(string memory login) public {\r... */\n    tag_80:\n        /* \"Documents/GitHub/Store-system-with-feedback/main.sol\":11315:11320  false */\n      0x00\n        /* \"Documents/GitHub/Store-system-with-feedback/main.sol\":11269:11280  structUsers */\n      0x04\n        /* \"Documents/GitHub/Store-system-with-feedback/main.sol\":11269:11305  structUsers[structUserLogins[login]] */\n      0x00\n        /* \"Documents/GitHub/Store-system-with-feedback/main.sol\":11281:11297  structUserLogins */\n      0x05\n        /* \"Documents/GitHub/Store-system-with-feedback/main.sol\":11298:11303  login */\n      dup5\n        /* \"Documents/GitHub/Store-system-with-feedback/main.sol\":11281:11304  structUserLogins[login] */\n      mload(0x40)\n      tag_164\n      swap2\n      swap1\n      tag_162\n      jump\t// in\n        /* \"Documents/GitHub/Store-system-with-feedback/main.sol\":1372:1516  function check_logged_user(string memory login) public view returns(bool) {\r... */\n    tag_83:\n        /* \"Documents/GitHub/Store-system-with-feedback/main.sol\":1440:1444  bool */\n      0x00\n        /* \"Documents/GitHub/Store-system-with-feedback/main.sol\":1464:1475  structUsers */\n      0x04\n        /* \"Documents/GitHub/Store-system-with-feedback/main.sol\":1464:1500  structUsers[structUserLogins[login]] */\n      0x00\n        /* \"Documents/GitHub/Store-system-with-feedback/main.sol\":1476:1492  structUserLogins */\n      0x05\n        /* \"Documents/GitHub/Store-system-with-feedback/main.sol\":1493:1498  login */\n      dup5\n        /* \"Documents/GitHub/Store-system-with-feedback/main.sol\":1476:1499  structUserLogins[login] */\n      mload(0x40)\n      tag_266\n      swap2\n      swap1\n      tag_162\n      jump\t// in\n        /* \"Documents/GitHub/Store-system-with-feedback/main.sol\":1730:1868  function get_role_user(string memory login) public view returns(uint) {\r... */\n    tag_87:\n        /* \"Documents/GitHub/Store-system-with-feedback/main.sol\":1794:1798  uint */\n      0x00\n        /* \"Documents/GitHub/Store-system-with-feedback/main.sol\":1818:1829  structUsers */\n      0x04\n        /* \"Documents/GitHub/Store-system-with-feedback/main.sol\":1818:1854  structUsers[structUserLogins[login]] */\n      0x00\n        /* \"Documents/GitHub/Store-system-with-feedback/main.sol\":1830:1846  structUserLogins */\n      0x05\n        /* \"Documents/GitHub/Store-system-with-feedback/main.sol\":1847:1852  login */\n      dup5\n        /* \"Documents/GitHub/Store-system-with-feedback/main.sol\":1830:1853  structUserLogins[login] */\n      mload(0x40)\n      tag_161\n      swap2\n      swap1\n      tag_162\n      jump\t// in\n        /* \"Documents/GitHub/Store-system-with-feedback/main.sol\":2079:2366  function get_address(string memory login) public view returns(address) {\r... */\n    tag_91:\n        /* \"Documents/GitHub/Store-system-with-feedback/main.sol\":2141:2148  address */\n      0x00\n        /* \"Documents/GitHub/Store-system-with-feedback/main.sol\":2161:2172  address adr */\n      dup1\n        /* \"Documents/GitHub/Store-system-with-feedback/main.sol\":2222:2223  0 */\n      0x00\n      sub(shl(0xa0, 0x01), 0x01)\n        /* \"Documents/GitHub/Store-system-with-feedback/main.sol\":2187:2224  structUserLogins[login] != address(0) */\n      and\n        /* \"Documents/GitHub/Store-system-with-feedback/main.sol\":2187:2203  structUserLogins */\n      0x05\n        /* \"Documents/GitHub/Store-system-with-feedback/main.sol\":2204:2209  login */\n      dup5\n        /* \"Documents/GitHub/Store-system-with-feedback/main.sol\":2187:2210  structUserLogins[login] */\n      mload(0x40)\n      tag_274\n      swap2\n      swap1\n      tag_162\n      jump\t// in\n    tag_274:\n      swap1\n      dup2\n      mstore\n      mload(0x40)\n      swap1\n      dup2\n      swap1\n      sub\n      0x20\n      add\n      swap1\n      keccak256\n      sload\n      sub(shl(0xa0, 0x01), 0x01)\n      and\n        /* \"Documents/GitHub/Store-system-with-feedback/main.sol\":2187:2224  structUserLogins[login] != address(0) */\n      eq\n        /* \"Documents/GitHub/Store-system-with-feedback/main.sol\":2183:2337  if (structUserLogins[login] != address(0)) {\r... */\n      tag_275\n      jumpi\n        /* \"Documents/GitHub/Store-system-with-feedback/main.sol\":2247:2263  structUserLogins */\n      0x05\n        /* \"Documents/GitHub/Store-system-with-feedback/main.sol\":2264:2269  login */\n      dup4\n        /* \"Documents/GitHub/Store-system-with-feedback/main.sol\":2247:2270  structUserLogins[login] */\n      mload(0x40)\n      tag_276\n      swap2\n      swap1\n      tag_162\n      jump\t// in\n    tag_276:\n      swap1\n      dup2\n      mstore\n      mload(0x40)\n      swap1\n      dup2\n      swap1\n      sub\n      0x20\n      add\n      swap1\n      keccak256\n      sload\n      sub(shl(0xa0, 0x01), 0x01)\n      and\n      swap1\n      pop\n        /* \"Documents/GitHub/Store-system-with-feedback/main.sol\":2183:2337  if (structUserLogins[login] != address(0)) {\r... */\n      jump(tag_277)\n    tag_275:\n        /* \"Documents/GitHub/Store-system-with-feedback/main.sol\":2309:2318  shopLists */\n      0x01\n        /* \"Documents/GitHub/Store-system-with-feedback/main.sol\":2319:2324  login */\n      dup4\n        /* \"Documents/GitHub/Store-system-with-feedback/main.sol\":2309:2325  shopLists[login] */\n      mload(0x40)\n      tag_278\n      swap2\n      swap1\n      tag_162\n      jump\t// in\n    tag_278:\n      swap1\n      dup2\n      mstore\n      mload(0x40)\n      swap1\n      dup2\n      swap1\n      sub\n      0x20\n      add\n      swap1\n      keccak256\n      sload\n      sub(shl(0xa0, 0x01), 0x01)\n      and\n      swap1\n      pop\n        /* \"Documents/GitHub/Store-system-with-feedback/main.sol\":2183:2337  if (structUserLogins[login] != address(0)) {\r... */\n    tag_277:\n        /* \"Documents/GitHub/Store-system-with-feedback/main.sol\":2354:2357  adr */\n      swap3\n        /* \"Documents/GitHub/Store-system-with-feedback/main.sol\":2079:2366  function get_address(string memory login) public view returns(address) {\r... */\n      swap2\n      pop\n      pop\n      jump\t// out\n        /* \"Documents/GitHub/Store-system-with-feedback/main.sol\":4518:4917  function addProductShop (string memory title, uint256 price, string memory description) public {\r... */\n    tag_96:\n        /* \"Documents/GitHub/Store-system-with-feedback/main.sol\":4733:4805  structProduct(msg.sender, description , price, addProductShop_idProduct) */\n      mload(0x40)\n      dup1\n      0x80\n      add\n      0x40\n      mstore\n      dup1\n        /* \"Documents/GitHub/Store-system-with-feedback/main.sol\":4747:4757  msg.sender */\n      caller\n      sub(shl(0xa0, 0x01), 0x01)\n        /* \"Documents/GitHub/Store-system-with-feedback/main.sol\":4733:4805  structProduct(msg.sender, description , price, addProductShop_idProduct) */\n      and\n      dup2\n      mstore\n      0x20\n      add\n        /* \"Documents/GitHub/Store-system-with-feedback/main.sol\":4759:4770  description */\n      dup3\n        /* \"Documents/GitHub/Store-system-with-feedback/main.sol\":4733:4805  structProduct(msg.sender, description , price, addProductShop_idProduct) */\n      dup2\n      mstore\n      0x20\n      add\n        /* \"Documents/GitHub/Store-system-with-feedback/main.sol\":4773:4778  price */\n      dup4\n        /* \"Documents/GitHub/Store-system-with-feedback/main.sol\":4733:4805  structProduct(msg.sender, description , price, addProductShop_idProduct) */\n      dup2\n      mstore\n      0x20\n      add\n        /* \"Documents/GitHub/Store-system-with-feedback/main.sol\":4780:4804  addProductShop_idProduct */\n      sload(0x0d)\n        /* \"Documents/GitHub/Store-system-with-feedback/main.sol\":4733:4805  structProduct(msg.sender, description , price, addProductShop_idProduct) */\n      dup2\n      mstore\n      pop\n        /* \"Documents/GitHub/Store-system-with-feedback/main.sol\":4709:4723  structProducts */\n      0x08\n        /* \"Documents/GitHub/Store-system-with-feedback/main.sol\":4724:4729  title */\n      dup5\n        /* \"Documents/GitHub/Store-system-with-feedback/main.sol\":4709:4730  structProducts[title] */\n      mload(0x40)\n      tag_280\n      swap2\n      swap1\n      tag_162\n      jump\t// in\n    tag_280:\n      swap1\n      dup2\n      mstore\n      mload(0x40)\n      0x20\n      swap2\n      dup2\n      swap1\n      sub\n      dup3\n      add\n      swap1\n      keccak256\n        /* \"Documents/GitHub/Store-system-with-feedback/main.sol\":4709:4805  structProducts[title] = structProduct(msg.sender, description , price, addProductShop_idProduct) */\n      dup3\n      mload\n      dup2\n      sload\n      not(sub(shl(0xa0, 0x01), 0x01))\n      and\n      sub(shl(0xa0, 0x01), 0x01)\n      swap1\n      swap2\n      and\n      or\n      dup2\n      sstore\n      dup3\n      dup3\n      add\n      mload\n      dup1\n      mload\n        /* \"Documents/GitHub/Store-system-with-feedback/main.sol\":4709:4730  structProducts[title] */\n      swap2\n      swap3\n        /* \"Documents/GitHub/Store-system-with-feedback/main.sol\":4709:4805  structProducts[title] = structProduct(msg.sender, description , price, addProductShop_idProduct) */\n      tag_281\n      swap3\n      0x01\n      dup6\n      add\n      swap3\n      swap1\n      swap2\n      add\n      swap1\n      tag_200\n      jump\t// in\n    tag_281:\n      pop\n      0x40\n      dup3\n      add\n      mload\n      0x02\n      dup3\n      add\n      sstore\n      0x60\n      swap1\n      swap2\n      add\n      mload\n      0x03\n      swap1\n      swap2\n      add\n      sstore\n        /* \"Documents/GitHub/Store-system-with-feedback/main.sol\":4820:4831  productList */\n      0x09\n        /* \"Documents/GitHub/Store-system-with-feedback/main.sol\":4820:4843  productList.push(title) */\n      dup1\n      sload\n      0x01\n      dup2\n      add\n      dup3\n      sstore\n      0x00\n      swap2\n      swap1\n      swap2\n      mstore\n      dup4\n      mload\n      tag_283\n      swap2\n      0x6e1540171b6c0c960b71a7020d9f60077f6af931a8bbf590da0223dacf75c7af\n      add\n      swap1\n      0x20\n      dup7\n      add\n      swap1\n      tag_200\n      jump\t// in\n    tag_283:\n      pop\n        /* \"Documents/GitHub/Store-system-with-feedback/main.sol\":4858:4882  addProductShop_idProduct */\n      0x0d\n        /* \"Documents/GitHub/Store-system-with-feedback/main.sol\":4858:4884  addProductShop_idProduct++ */\n      dup1\n      sload\n      swap1\n        /* \"Documents/GitHub/Store-system-with-feedback/main.sol\":4858:4882  addProductShop_idProduct */\n      0x00\n        /* \"Documents/GitHub/Store-system-with-feedback/main.sol\":4858:4884  addProductShop_idProduct++ */\n      tag_284\n      dup4\n      tag_232\n      jump\t// in\n    tag_284:\n      swap2\n      swap1\n      pop\n      sstore\n      pop\n        /* \"Documents/GitHub/Store-system-with-feedback/main.sol\":4518:4917  function addProductShop (string memory title, uint256 price, string memory description) public {\r... */\n      pop\n      pop\n      pop\n      jump\t// out\n        /* \"Documents/GitHub/Store-system-with-feedback/main.sol\":9008:9410  function login_shop(string memory login, bytes32 password) public {\r... */\n    tag_100:\n        /* \"Documents/GitHub/Store-system-with-feedback/main.sol\":9093:9104  structShops */\n      0x00\n        /* \"Documents/GitHub/Store-system-with-feedback/main.sol\":9093:9122  structShops[shopLists[login]] */\n      dup1\n        /* \"Documents/GitHub/Store-system-with-feedback/main.sol\":9105:9114  shopLists */\n      0x01\n        /* \"Documents/GitHub/Store-system-with-feedback/main.sol\":9115:9120  login */\n      dup5\n        /* \"Documents/GitHub/Store-system-with-feedback/main.sol\":9105:9121  shopLists[login] */\n      mload(0x40)\n      tag_286\n      swap2\n      swap1\n      tag_162\n      jump\t// in\n    tag_286:\n      swap1\n      dup2\n      mstore\n      0x40\n      dup1\n      mload\n      0x20\n      swap3\n      dup2\n      swap1\n      sub\n      dup4\n      add\n      swap1\n      keccak256\n      sload\n      sub(shl(0xa0, 0x01), 0x01)\n      and\n        /* \"Documents/GitHub/Store-system-with-feedback/main.sol\":9093:9122  structShops[shopLists[login]] */\n      dup4\n      mstore\n      swap1\n      dup3\n      add\n      swap3\n      swap1\n      swap3\n      mstore\n      add\n      0x00\n      keccak256\n        /* \"Documents/GitHub/Store-system-with-feedback/main.sol\":9093:9129  structShops[shopLists[login]].logged */\n      0x04\n      add\n      sload\n      0xff\n      and\n        /* \"Documents/GitHub/Store-system-with-feedback/main.sol\":9093:9138  structShops[shopLists[login]].logged == false */\n      iszero\n        /* \"Documents/GitHub/Store-system-with-feedback/main.sol\":9085:9172  require(structShops[shopLists[login]].logged == false, \"Error: You are already logged\") */\n      tag_287\n      jumpi\n      mload(0x40)\n      shl(0xe5, 0x461bcd)\n      dup2\n      mstore\n      0x04\n      add\n      tag_197\n      swap1\n      tag_289\n      jump\t// in\n    tag_287:\n        /* \"Documents/GitHub/Store-system-with-feedback/main.sol\":9219:9220  0 */\n      0x00\n      sub(shl(0xa0, 0x01), 0x01)\n        /* \"Documents/GitHub/Store-system-with-feedback/main.sol\":9191:9221  shopLists[login] != address(0) */\n      and\n        /* \"Documents/GitHub/Store-system-with-feedback/main.sol\":9191:9200  shopLists */\n      0x01\n        /* \"Documents/GitHub/Store-system-with-feedback/main.sol\":9201:9206  login */\n      dup4\n        /* \"Documents/GitHub/Store-system-with-feedback/main.sol\":9191:9207  shopLists[login] */\n      mload(0x40)\n      tag_290\n      swap2\n      swap1\n      tag_162\n      jump\t// in\n    tag_290:\n      swap1\n      dup2\n      mstore\n      mload(0x40)\n      swap1\n      dup2\n      swap1\n      sub\n      0x20\n      add\n      swap1\n      keccak256\n      sload\n      sub(shl(0xa0, 0x01), 0x01)\n      and\n        /* \"Documents/GitHub/Store-system-with-feedback/main.sol\":9191:9221  shopLists[login] != address(0) */\n      eq\n      iszero\n        /* \"Documents/GitHub/Store-system-with-feedback/main.sol\":9183:9251  require(shopLists[login] != address(0), \"Error: User doesn't exist\") */\n      tag_291\n      jumpi\n      mload(0x40)\n      shl(0xe5, 0x461bcd)\n      dup2\n      mstore\n      0x04\n      add\n      tag_197\n      swap1\n      tag_293\n      jump\t// in\n    tag_291:\n        /* \"Documents/GitHub/Store-system-with-feedback/main.sol\":9312:9320  password */\n      dup1\n        /* \"Documents/GitHub/Store-system-with-feedback/main.sol\":9270:9281  structShops */\n      0x00\n        /* \"Documents/GitHub/Store-system-with-feedback/main.sol\":9270:9299  structShops[shopLists[login]] */\n      dup1\n        /* \"Documents/GitHub/Store-system-with-feedback/main.sol\":9282:9291  shopLists */\n      0x01\n        /* \"Documents/GitHub/Store-system-with-feedback/main.sol\":9292:9297  login */\n      dup6\n        /* \"Documents/GitHub/Store-system-with-feedback/main.sol\":9282:9298  shopLists[login] */\n      mload(0x40)\n      tag_294\n      swap2\n      swap1\n      tag_162\n      jump\t// in\n    tag_294:\n      swap1\n      dup2\n      mstore\n      0x40\n      dup1\n      mload\n      0x20\n      swap3\n      dup2\n      swap1\n      sub\n      dup4\n      add\n      swap1\n      keccak256\n      sload\n      sub(shl(0xa0, 0x01), 0x01)\n      and\n        /* \"Documents/GitHub/Store-system-with-feedback/main.sol\":9270:9299  structShops[shopLists[login]] */\n      dup4\n      mstore\n      swap1\n      dup3\n      add\n      swap3\n      swap1\n      swap3\n      mstore\n      add\n      0x00\n      keccak256\n        /* \"Documents/GitHub/Store-system-with-feedback/main.sol\":9282:9298  shopLists[login] */\n      0x01\n        /* \"Documents/GitHub/Store-system-with-feedback/main.sol\":9270:9308  structShops[shopLists[login]].password */\n      add\n      sload\n        /* \"Documents/GitHub/Store-system-with-feedback/main.sol\":9270:9320  structShops[shopLists[login]].password == password */\n      eq\n        /* \"Documents/GitHub/Store-system-with-feedback/main.sol\":9262:9348  require(structShops[shopLists[login]].password == password, \"Error: Invalid password\") */\n      tag_295\n      jumpi\n      mload(0x40)\n      shl(0xe5, 0x461bcd)\n      dup2\n      mstore\n      0x04\n      add\n      tag_197\n      swap1\n      tag_297\n      jump\t// in\n    tag_295:\n        /* \"Documents/GitHub/Store-system-with-feedback/main.sol\":9398:9402  true */\n      0x01\n        /* \"Documents/GitHub/Store-system-with-feedback/main.sol\":9359:9370  structShops */\n      0x00\n        /* \"Documents/GitHub/Store-system-with-feedback/main.sol\":9359:9388  structShops[shopLists[login]] */\n      dup1\n        /* \"Documents/GitHub/Store-system-with-feedback/main.sol\":9371:9380  shopLists */\n      0x01\n        /* \"Documents/GitHub/Store-system-with-feedback/main.sol\":9381:9386  login */\n      dup6\n        /* \"Documents/GitHub/Store-system-with-feedback/main.sol\":9371:9387  shopLists[login] */\n      mload(0x40)\n      tag_298\n      swap2\n      swap1\n      tag_162\n      jump\t// in\n    tag_298:\n      swap1\n      dup2\n      mstore\n      0x40\n      dup1\n      mload\n      0x20\n      swap3\n      dup2\n      swap1\n      sub\n      dup4\n      add\n      swap1\n      keccak256\n      sload\n      sub(shl(0xa0, 0x01), 0x01)\n      and\n        /* \"Documents/GitHub/Store-system-with-feedback/main.sol\":9359:9388  structShops[shopLists[login]] */\n      dup4\n      mstore\n      swap1\n      dup3\n      add\n      swap3\n      swap1\n      swap3\n      mstore\n      add\n      0x00\n      keccak256\n        /* \"Documents/GitHub/Store-system-with-feedback/main.sol\":9359:9395  structShops[shopLists[login]].logged */\n      0x04\n      add\n        /* \"Documents/GitHub/Store-system-with-feedback/main.sol\":9359:9402  structShops[shopLists[login]].logged = true */\n      dup1\n      sload\n      not(0xff)\n      and\n      swap2\n      iszero\n      iszero\n      swap2\n      swap1\n      swap2\n      or\n      swap1\n      sstore\n      pop\n      pop\n        /* \"Documents/GitHub/Store-system-with-feedback/main.sol\":9008:9410  function login_shop(string memory login, bytes32 password) public {\r... */\n      jump\t// out\n        /* \"Documents/GitHub/Store-system-with-feedback/main.sol\":4333:4396  structMarriageRegistration[] public structMarriageRegistrations */\n    tag_104:\n      0x0c\n      dup2\n      dup2\n      sload\n      dup2\n      lt\n      tag_299\n      jumpi\n      0x00\n      dup1\n      revert\n    tag_299:\n      0x00\n      swap2\n      dup3\n      mstore\n      0x20\n      swap1\n      swap2\n      keccak256\n      0x03\n      swap1\n      swap2\n      mul\n      add\n      dup1\n      sload\n      0x01\n      dup3\n      add\n      dup1\n      sload\n      sub(shl(0xa0, 0x01), 0x01)\n      swap1\n      swap3\n      and\n      swap4\n      pop\n      swap1\n      tag_301\n      swap1\n      tag_218\n      jump\t// in\n    tag_301:\n      dup1\n      0x1f\n      add\n      0x20\n      dup1\n      swap2\n      div\n      mul\n      0x20\n      add\n      mload(0x40)\n      swap1\n      dup2\n      add\n      0x40\n      mstore\n      dup1\n      swap3\n      swap2\n      swap1\n      dup2\n      dup2\n      mstore\n      0x20\n      add\n      dup3\n      dup1\n      sload\n      tag_302\n      swap1\n      tag_218\n      jump\t// in\n    tag_302:\n      dup1\n      iszero\n      tag_303\n      jumpi\n      dup1\n      0x1f\n      lt\n      tag_304\n      jumpi\n      0x0100\n      dup1\n      dup4\n      sload\n      div\n      mul\n      dup4\n      mstore\n      swap2\n      0x20\n      add\n      swap2\n      jump(tag_303)\n    tag_304:\n      dup3\n      add\n      swap2\n      swap1\n      0x00\n      mstore\n      keccak256(0x00, 0x20)\n      swap1\n    tag_305:\n      dup2\n      sload\n      dup2\n      mstore\n      swap1\n      0x01\n      add\n      swap1\n      0x20\n      add\n      dup1\n      dup4\n      gt\n      tag_305\n      jumpi\n      dup3\n      swap1\n      sub\n      0x1f\n      and\n      dup3\n      add\n      swap2\n    tag_303:\n      pop\n      pop\n      pop\n      0x02\n      swap1\n      swap4\n      add\n      sload\n      swap2\n      swap3\n      pop\n      pop\n      0xff\n      and\n      dup4\n      jump\t// out\n        /* \"Documents/GitHub/Store-system-with-feedback/main.sol\":1192:1331  function get_hash(string memory password) public pure returns(bytes32) {\r... */\n    tag_109:\n        /* \"Documents/GitHub/Store-system-with-feedback/main.sol\":1254:1261  bytes32 */\n      0x00\n        /* \"Documents/GitHub/Store-system-with-feedback/main.sol\":1312:1320  password */\n      dup2\n        /* \"Documents/GitHub/Store-system-with-feedback/main.sol\":1295:1321  abi.encodePacked(password) */\n      add(0x20, mload(0x40))\n      tag_307\n      swap2\n      swap1\n      tag_162\n      jump\t// in\n    tag_307:\n      mload(0x40)\n      0x20\n      dup2\n      dup4\n      sub\n      sub\n      dup2\n      mstore\n      swap1\n      0x40\n      mstore\n        /* \"Documents/GitHub/Store-system-with-feedback/main.sol\":1285:1322  keccak256(abi.encodePacked(password)) */\n      dup1\n      mload\n      swap1\n      0x20\n      add\n      keccak256\n        /* \"Documents/GitHub/Store-system-with-feedback/main.sol\":1278:1323  return(keccak256(abi.encodePacked(password))) */\n      swap1\n      pop\n        /* \"Documents/GitHub/Store-system-with-feedback/main.sol\":1192:1331  function get_hash(string memory password) public pure returns(bytes32) {\r... */\n      swap2\n      swap1\n      pop\n      jump\t// out\n        /* \"Documents/GitHub/Store-system-with-feedback/main.sol\":2696:2746  mapping (address => structShop) public structShops */\n    tag_115:\n      0x00\n      0x20\n      dup2\n      swap1\n      mstore\n      swap1\n      dup2\n      mstore\n      0x40\n      swap1\n      keccak256\n      dup1\n      sload\n      dup2\n      swap1\n      tag_308\n      swap1\n      tag_218\n      jump\t// in\n    tag_308:\n      dup1\n      0x1f\n      add\n      0x20\n      dup1\n      swap2\n      div\n      mul\n      0x20\n      add\n      mload(0x40)\n      swap1\n      dup2\n      add\n      0x40\n      mstore\n      dup1\n      swap3\n      swap2\n      swap1\n      dup2\n      dup2\n      mstore\n      0x20\n      add\n      dup3\n      dup1\n      sload\n      tag_309\n      swap1\n      tag_218\n      jump\t// in\n    tag_309:\n      dup1\n      iszero\n      tag_310\n      jumpi\n      dup1\n      0x1f\n      lt\n      tag_311\n      jumpi\n      0x0100\n      dup1\n      dup4\n      sload\n      div\n      mul\n      dup4\n      mstore\n      swap2\n      0x20\n      add\n      swap2\n      jump(tag_310)\n    tag_311:\n      dup3\n      add\n      swap2\n      swap1\n      0x00\n      mstore\n      keccak256(0x00, 0x20)\n      swap1\n    tag_312:\n      dup2\n      sload\n      dup2\n      mstore\n      swap1\n      0x01\n      add\n      swap1\n      0x20\n      add\n      dup1\n      dup4\n      gt\n      tag_312\n      jumpi\n      dup3\n      swap1\n      sub\n      0x1f\n      and\n      dup3\n      add\n      swap2\n    tag_310:\n      pop\n      pop\n      pop\n      0x01\n      dup5\n      add\n      sload\n      0x02\n      dup6\n      add\n      sload\n      0x03\n      dup7\n      add\n      sload\n      0x04\n      dup8\n      add\n      sload\n      0x05\n      dup9\n      add\n      dup1\n      sload\n      swap8\n      swap9\n      swap5\n      swap8\n      swap4\n      swap7\n      pop\n      swap2\n      swap5\n      pop\n      0xff\n      and\n      swap3\n      swap2\n      tag_313\n      swap1\n      tag_218\n      jump\t// in\n    tag_313:\n      dup1\n      0x1f\n      add\n      0x20\n      dup1\n      swap2\n      div\n      mul\n      0x20\n      add\n      mload(0x40)\n      swap1\n      dup2\n      add\n      0x40\n      mstore\n      dup1\n      swap3\n      swap2\n      swap1\n      dup2\n      dup2\n      mstore\n      0x20\n      add\n      dup3\n      dup1\n      sload\n      tag_314\n      swap1\n      tag_218\n      jump\t// in\n    tag_314:\n      dup1\n      iszero\n      tag_315\n      jumpi\n      dup1\n      0x1f\n      lt\n      tag_316\n      jumpi\n      0x0100\n      dup1\n      dup4\n      sload\n      div\n      mul\n      dup4\n      mstore\n      swap2\n      0x20\n      add\n      swap2\n      jump(tag_315)\n    tag_316:\n      dup3\n      add\n      swap2\n      swap1\n      0x00\n      mstore\n      keccak256(0x00, 0x20)\n      swap1\n    tag_317:\n      dup2\n      sload\n      dup2\n      mstore\n      swap1\n      0x01\n      add\n      swap1\n      0x20\n      add\n      dup1\n      dup4\n      gt\n      tag_317\n      jumpi\n      dup3\n      swap1\n      sub\n      0x1f\n      and\n      dup3\n      add\n      swap2\n    tag_315:\n      pop\n      pop\n      pop\n      pop\n      pop\n      swap1\n      dup1\n      0x06\n      add\n      dup1\n      sload\n      tag_318\n      swap1\n      tag_218\n      jump\t// in\n    tag_318:\n      dup1\n      0x1f\n      add\n      0x20\n      dup1\n      swap2\n      div\n      mul\n      0x20\n      add\n      mload(0x40)\n      swap1\n      dup2\n      add\n      0x40\n      mstore\n      dup1\n      swap3\n      swap2\n      swap1\n      dup2\n      dup2\n      mstore\n      0x20\n      add\n      dup3\n      dup1\n      sload\n      tag_319\n      swap1\n      tag_218\n      jump\t// in\n    tag_319:\n      dup1\n      iszero\n      tag_320\n      jumpi\n      dup1\n      0x1f\n      lt\n      tag_321\n      jumpi\n      0x0100\n      dup1\n      dup4\n      sload\n      div\n      mul\n      dup4\n      mstore\n      swap2\n      0x20\n      add\n      swap2\n      jump(tag_320)\n    tag_321:\n      dup3\n      add\n      swap2\n      swap1\n      0x00\n      mstore\n      keccak256(0x00, 0x20)\n      swap1\n    tag_322:\n      dup2\n      sload\n      dup2\n      mstore\n      swap1\n      0x01\n      add\n      swap1\n      0x20\n      add\n      dup1\n      dup4\n      gt\n      tag_322\n      jumpi\n      dup3\n      swap1\n      sub\n      0x1f\n      and\n      dup3\n      add\n      swap2\n    tag_320:\n      pop\n      pop\n      pop\n      pop\n      pop\n      swap1\n      dup1\n      0x07\n      add\n      sload\n      swap1\n      pop\n      dup9\n      jump\t// out\n        /* \"Documents/GitHub/Store-system-with-feedback/main.sol\":3330:3379  mapping(address => structUser) public structUsers */\n    tag_120:\n      mstore(0x20, 0x04)\n      0x00\n      swap1\n      dup2\n      mstore\n      0x40\n      swap1\n      keccak256\n      dup1\n      sload\n      dup2\n      swap1\n      tag_323\n      swap1\n      tag_218\n      jump\t// in\n    tag_323:\n      dup1\n      0x1f\n      add\n      0x20\n      dup1\n      swap2\n      div\n      mul\n      0x20\n      add\n      mload(0x40)\n      swap1\n      dup2\n      add\n      0x40\n      mstore\n      dup1\n      swap3\n      swap2\n      swap1\n      dup2\n      dup2\n      mstore\n      0x20\n      add\n      dup3\n      dup1\n      sload\n      tag_324\n      swap1\n      tag_218\n      jump\t// in\n    tag_324:\n      dup1\n      iszero\n      tag_325\n      jumpi\n      dup1\n      0x1f\n      lt\n      tag_326\n      jumpi\n      0x0100\n      dup1\n      dup4\n      sload\n      div\n      mul\n      dup4\n      mstore\n      swap2\n      0x20\n      add\n      swap2\n      jump(tag_325)\n    tag_326:\n      dup3\n      add\n      swap2\n      swap1\n      0x00\n      mstore\n      keccak256(0x00, 0x20)\n      swap1\n    tag_327:\n      dup2\n      sload\n      dup2\n      mstore\n      swap1\n      0x01\n      add\n      swap1\n      0x20\n      add\n      dup1\n      dup4\n      gt\n      tag_327\n      jumpi\n      dup3\n      swap1\n      sub\n      0x1f\n      and\n      dup3\n      add\n      swap2\n    tag_325:\n      pop\n      pop\n      pop\n      pop\n      0x01\n      dup4\n      add\n      sload\n      0x02\n      dup5\n      add\n      sload\n      0x03\n      dup6\n      add\n      sload\n      0x04\n      swap1\n      swap6\n      add\n      sload\n      swap4\n      swap5\n      swap2\n      swap4\n      swap1\n      swap3\n      pop\n      0xff\n      and\n      dup6\n      jump\t// out\n        /* \"Documents/GitHub/Store-system-with-feedback/main.sol\":7662:8515  function getStoryRating(string memory shopName) public view returns(uint) {\r... */\n    tag_125:\n        /* \"Documents/GitHub/Store-system-with-feedback/main.sol\":7730:7734  uint */\n      0x00\n      dup1\n      dup1\n      dup1\n        /* \"Documents/GitHub/Store-system-with-feedback/main.sol\":7820:8407  for(uint i = 0; i < shopList.length; i++) {\r... */\n    tag_329:\n        /* \"Documents/GitHub/Store-system-with-feedback/main.sol\":7840:7848  shopList */\n      0x02\n        /* \"Documents/GitHub/Store-system-with-feedback/main.sol\":7840:7855  shopList.length */\n      sload\n        /* \"Documents/GitHub/Store-system-with-feedback/main.sol\":7836:7855  i < shopList.length */\n      dup2\n      lt\n        /* \"Documents/GitHub/Store-system-with-feedback/main.sol\":7820:8407  for(uint i = 0; i < shopList.length; i++) {\r... */\n      iszero\n      tag_330\n      jumpi\n        /* \"Documents/GitHub/Store-system-with-feedback/main.sol\":7877:7903  string memory tempShopName */\n      0x00\n        /* \"Documents/GitHub/Store-system-with-feedback/main.sol\":7906:7914  shopList */\n      0x02\n        /* \"Documents/GitHub/Store-system-with-feedback/main.sol\":7915:7916  i */\n      dup3\n        /* \"Documents/GitHub/Store-system-with-feedback/main.sol\":7906:7917  shopList[i] */\n      dup2\n      sload\n      dup2\n      lt\n      tag_333\n      jumpi\n      tag_333\n      tag_169\n      jump\t// in\n    tag_333:\n      swap1\n      0x00\n      mstore\n      keccak256(0x00, 0x20)\n      add\n        /* \"Documents/GitHub/Store-system-with-feedback/main.sol\":7877:7917  string memory tempShopName = shopList[i] */\n      dup1\n      sload\n      tag_335\n      swap1\n      tag_218\n      jump\t// in\n    tag_335:\n      dup1\n      0x1f\n      add\n      0x20\n      dup1\n      swap2\n      div\n      mul\n      0x20\n      add\n      mload(0x40)\n      swap1\n      dup2\n      add\n      0x40\n      mstore\n      dup1\n      swap3\n      swap2\n      swap1\n      dup2\n      dup2\n      mstore\n      0x20\n      add\n      dup3\n      dup1\n      sload\n      tag_336\n      swap1\n      tag_218\n      jump\t// in\n    tag_336:\n      dup1\n      iszero\n      tag_337\n      jumpi\n      dup1\n      0x1f\n      lt\n      tag_338\n      jumpi\n      0x0100\n      dup1\n      dup4\n      sload\n      div\n      mul\n      dup4\n      mstore\n      swap2\n      0x20\n      add\n      swap2\n      jump(tag_337)\n    tag_338:\n      dup3\n      add\n      swap2\n      swap1\n      0x00\n      mstore\n      keccak256(0x00, 0x20)\n      swap1\n    tag_339:\n      dup2\n      sload\n      dup2\n      mstore\n      swap1\n      0x01\n      add\n      swap1\n      0x20\n      add\n      dup1\n      dup4\n      gt\n      tag_339\n      jumpi\n      dup3\n      swap1\n      sub\n      0x1f\n      and\n      dup3\n      add\n      swap2\n    tag_337:\n      pop\n      pop\n      pop\n      pop\n      pop\n      swap1\n      pop\n        /* \"Documents/GitHub/Store-system-with-feedback/main.sol\":8007:8015  shopName */\n      dup6\n        /* \"Documents/GitHub/Store-system-with-feedback/main.sol\":7990:8016  abi.encodePacked(shopName) */\n      add(0x20, mload(0x40))\n      tag_340\n      swap2\n      swap1\n      tag_162\n      jump\t// in\n    tag_340:\n      mload(0x40)\n      0x20\n      dup2\n      dup4\n      sub\n      sub\n      dup2\n      mstore\n      swap1\n      0x40\n      mstore\n        /* \"Documents/GitHub/Store-system-with-feedback/main.sol\":7980:8017  keccak256(abi.encodePacked(shopName)) */\n      dup1\n      mload\n      swap1\n      0x20\n      add\n      keccak256\n        /* \"Documents/GitHub/Store-system-with-feedback/main.sol\":7962:7974  tempShopName */\n      dup2\n        /* \"Documents/GitHub/Store-system-with-feedback/main.sol\":7945:7975  abi.encodePacked(tempShopName) */\n      add(0x20, mload(0x40))\n      tag_341\n      swap2\n      swap1\n      tag_162\n      jump\t// in\n    tag_341:\n      mload(0x40)\n      0x20\n      dup2\n      dup4\n      sub\n      sub\n      dup2\n      mstore\n      swap1\n      0x40\n      mstore\n        /* \"Documents/GitHub/Store-system-with-feedback/main.sol\":7935:7976  keccak256(abi.encodePacked(tempShopName)) */\n      dup1\n      mload\n      swap1\n      0x20\n      add\n      keccak256\n        /* \"Documents/GitHub/Store-system-with-feedback/main.sol\":7935:8017  keccak256(abi.encodePacked(tempShopName)) == keccak256(abi.encodePacked(shopName)) */\n      eq\n        /* \"Documents/GitHub/Store-system-with-feedback/main.sol\":7932:8396  if(keccak256(abi.encodePacked(tempShopName)) == keccak256(abi.encodePacked(shopName))) {                    \r... */\n      iszero\n      tag_344\n      jumpi\n        /* \"Documents/GitHub/Store-system-with-feedback/main.sol\":8067:8068  0 */\n      0x00\n        /* \"Documents/GitHub/Store-system-with-feedback/main.sol\":8063:8068  i = 0 */\n      swap2\n      pop\n        /* \"Documents/GitHub/Store-system-with-feedback/main.sol\":8058:8381  for (i = 0; i <= complaintBooks.length; i++) {\r... */\n    tag_343:\n        /* \"Documents/GitHub/Store-system-with-feedback/main.sol\":8075:8089  complaintBooks */\n      0x03\n        /* \"Documents/GitHub/Store-system-with-feedback/main.sol\":8075:8096  complaintBooks.length */\n      sload\n        /* \"Documents/GitHub/Store-system-with-feedback/main.sol\":8070:8096  i <= complaintBooks.length */\n      dup3\n      gt\n        /* \"Documents/GitHub/Store-system-with-feedback/main.sol\":8058:8381  for (i = 0; i <= complaintBooks.length; i++) {\r... */\n      tag_344\n      jumpi\n        /* \"Documents/GitHub/Store-system-with-feedback/main.sol\":8197:8211  complaintBooks */\n      0x03\n        /* \"Documents/GitHub/Store-system-with-feedback/main.sol\":8212:8213  i */\n      dup3\n        /* \"Documents/GitHub/Store-system-with-feedback/main.sol\":8197:8214  complaintBooks[i] */\n      dup2\n      sload\n      dup2\n      lt\n      tag_347\n      jumpi\n      tag_347\n      tag_169\n      jump\t// in\n    tag_347:\n      swap1\n      0x00\n      mstore\n      keccak256(0x00, 0x20)\n      swap1\n      0x05\n      mul\n      add\n        /* \"Documents/GitHub/Store-system-with-feedback/main.sol\":8197:8219  complaintBooks[i].shop */\n      0x00\n      add\n        /* \"Documents/GitHub/Store-system-with-feedback/main.sol\":8180:8220  abi.encodePacked(complaintBooks[i].shop) */\n      add(0x20, mload(0x40))\n      tag_349\n      swap2\n      swap1\n      tag_175\n      jump\t// in\n    tag_349:\n      mload(0x40)\n      0x20\n      dup2\n      dup4\n      sub\n      sub\n      dup2\n      mstore\n      swap1\n      0x40\n      mstore\n        /* \"Documents/GitHub/Store-system-with-feedback/main.sol\":8170:8221  keccak256(abi.encodePacked(complaintBooks[i].shop)) */\n      dup1\n      mload\n      swap1\n      0x20\n      add\n      keccak256\n        /* \"Documents/GitHub/Store-system-with-feedback/main.sol\":8156:8164  shopName */\n      dup7\n        /* \"Documents/GitHub/Store-system-with-feedback/main.sol\":8139:8165  abi.encodePacked(shopName) */\n      add(0x20, mload(0x40))\n      tag_350\n      swap2\n      swap1\n      tag_162\n      jump\t// in\n    tag_350:\n      mload(0x40)\n      0x20\n      dup2\n      dup4\n      sub\n      sub\n      dup2\n      mstore\n      swap1\n      0x40\n      mstore\n        /* \"Documents/GitHub/Store-system-with-feedback/main.sol\":8129:8166  keccak256(abi.encodePacked(shopName)) */\n      dup1\n      mload\n      swap1\n      0x20\n      add\n      keccak256\n        /* \"Documents/GitHub/Store-system-with-feedback/main.sol\":8129:8221  keccak256(abi.encodePacked(shopName)) == keccak256(abi.encodePacked(complaintBooks[i].shop)) */\n      eq\n        /* \"Documents/GitHub/Store-system-with-feedback/main.sol\":8126:8362  if(keccak256(abi.encodePacked(shopName)) == keccak256(abi.encodePacked(complaintBooks[i].shop))) {\r... */\n      iszero\n      tag_351\n      jumpi\n        /* \"Documents/GitHub/Store-system-with-feedback/main.sol\":8270:8284  complaintBooks */\n      0x03\n        /* \"Documents/GitHub/Store-system-with-feedback/main.sol\":8285:8286  i */\n      dup3\n        /* \"Documents/GitHub/Store-system-with-feedback/main.sol\":8270:8287  complaintBooks[i] */\n      dup2\n      sload\n      dup2\n      lt\n      tag_353\n      jumpi\n      tag_353\n      tag_169\n      jump\t// in\n    tag_353:\n      swap1\n      0x00\n      mstore\n      keccak256(0x00, 0x20)\n      swap1\n      0x05\n      mul\n      add\n        /* \"Documents/GitHub/Store-system-with-feedback/main.sol\":8270:8294  complaintBooks[i].rating */\n      0x03\n      add\n      sload\n        /* \"Documents/GitHub/Store-system-with-feedback/main.sol\":8250:8294  countArrayRating += complaintBooks[i].rating */\n      dup4\n      tag_355\n      swap2\n      swap1\n      tag_189\n      jump\t// in\n    tag_355:\n      swap3\n      pop\n        /* \"Documents/GitHub/Store-system-with-feedback/main.sol\":8126:8362  if(keccak256(abi.encodePacked(shopName)) == keccak256(abi.encodePacked(complaintBooks[i].shop))) {\r... */\n    tag_351:\n        /* \"Documents/GitHub/Store-system-with-feedback/main.sol\":8098:8101  i++ */\n      dup2\n      tag_356\n      dup2\n      tag_232\n      jump\t// in\n    tag_356:\n      swap3\n      pop\n      pop\n        /* \"Documents/GitHub/Store-system-with-feedback/main.sol\":8058:8381  for (i = 0; i <= complaintBooks.length; i++) {\r... */\n      jump(tag_343)\n    tag_344:\n      pop\n        /* \"Documents/GitHub/Store-system-with-feedback/main.sol\":7857:7860  i++ */\n      dup1\n      tag_357\n      dup2\n      tag_232\n      jump\t// in\n    tag_357:\n      swap2\n      pop\n      pop\n        /* \"Documents/GitHub/Store-system-with-feedback/main.sol\":7820:8407  for(uint i = 0; i < shopList.length; i++) {\r... */\n      jump(tag_329)\n    tag_330:\n      pop\n        /* \"Documents/GitHub/Store-system-with-feedback/main.sol\":8437:8473  countArrayRating / totalAverageValue */\n      tag_358\n        /* \"Documents/GitHub/Store-system-with-feedback/main.sol\":8456:8473  totalAverageValue */\n      dup3\n        /* \"Documents/GitHub/Store-system-with-feedback/main.sol\":8437:8453  countArrayRating */\n      dup3\n        /* \"Documents/GitHub/Store-system-with-feedback/main.sol\":8437:8473  countArrayRating / totalAverageValue */\n      tag_359\n      jump\t// in\n    tag_358:\n        /* \"Documents/GitHub/Store-system-with-feedback/main.sol\":8417:8473  countArrayRating += countArrayRating / totalAverageValue */\n      tag_360\n      swap1\n      dup3\n      tag_189\n      jump\t// in\n    tag_360:\n      swap5\n        /* \"Documents/GitHub/Store-system-with-feedback/main.sol\":7662:8515  function getStoryRating(string memory shopName) public view returns(uint) {\r... */\n      swap4\n      pop\n      pop\n      pop\n      pop\n      jump\t// out\n        /* \"Documents/GitHub/Store-system-with-feedback/main.sol\":4113:4160  structStatusReturn[] public structStatusReturns */\n    tag_129:\n      0x0b\n      dup2\n      dup2\n      sload\n      dup2\n      lt\n      tag_299\n      jumpi\n      0x00\n      dup1\n      revert\n        /* \"Documents/GitHub/Store-system-with-feedback/main.sol\":9958:10112  function productReturn (string memory titleProduct) public {\r... */\n    tag_133:\n        /* \"Documents/GitHub/Store-system-with-feedback/main.sol\":10053:10103  structStatusReturn(msg.sender, titleProduct, true) */\n      0x40\n      dup1\n      mload\n      0x60\n      dup2\n      add\n      dup3\n      mstore\n        /* \"Documents/GitHub/Store-system-with-feedback/main.sol\":10072:10082  msg.sender */\n      caller\n        /* \"Documents/GitHub/Store-system-with-feedback/main.sol\":10053:10103  structStatusReturn(msg.sender, titleProduct, true) */\n      dup2\n      mstore\n      0x20\n      dup1\n      dup3\n      add\n      dup5\n      dup2\n      mstore\n        /* \"Documents/GitHub/Store-system-with-feedback/main.sol\":10098:10102  true */\n      0x01\n        /* \"Documents/GitHub/Store-system-with-feedback/main.sol\":10053:10103  structStatusReturn(msg.sender, titleProduct, true) */\n      swap4\n      dup4\n      add\n      dup5\n      swap1\n      mstore\n        /* \"Documents/GitHub/Store-system-with-feedback/main.sol\":10028:10047  structStatusReturns */\n      0x0b\n        /* \"Documents/GitHub/Store-system-with-feedback/main.sol\":10028:10104  structStatusReturns.push(structStatusReturn(msg.sender, titleProduct, true)) */\n      dup1\n      sload\n      swap5\n      dup6\n      add\n      dup2\n      sstore\n      0x00\n      mstore\n      dup3\n      mload\n      0x0175b7a638427703f0dbe7bb9bbf987a2551717b34e79f33b5b1008d1fa01db9\n      0x03\n      swap1\n      swap6\n      mul\n      swap5\n      dup6\n      add\n      dup1\n      sload\n      not(sub(shl(0xa0, 0x01), 0x01))\n      and\n      sub(shl(0xa0, 0x01), 0x01)\n      swap1\n      swap3\n      and\n      swap2\n      swap1\n      swap2\n      or\n      dup2\n      sstore\n      swap1\n      mload\n      dup1\n      mload\n        /* \"Documents/GitHub/Store-system-with-feedback/main.sol\":10053:10103  structStatusReturn(msg.sender, titleProduct, true) */\n      swap4\n      swap5\n        /* \"Documents/GitHub/Store-system-with-feedback/main.sol\":10028:10104  structStatusReturns.push(structStatusReturn(msg.sender, titleProduct, true)) */\n      swap2\n      swap4\n      tag_209\n      swap4\n      0x0175b7a638427703f0dbe7bb9bbf987a2551717b34e79f33b5b1008d1fa01dba\n      swap1\n      swap4\n      add\n      swap3\n      swap2\n      swap1\n      swap2\n      add\n      swap1\n      tag_200\n      jump\t// in\n        /* \"Documents/GitHub/Store-system-with-feedback/main.sol\":7400:7494  function getShopList() public view returns(string[] memory) {\r... */\n    tag_135:\n        /* \"Documents/GitHub/Store-system-with-feedback/main.sol\":7443:7458  string[] memory */\n      0x60\n        /* \"Documents/GitHub/Store-system-with-feedback/main.sol\":7478:7486  shopList */\n      0x02\n        /* \"Documents/GitHub/Store-system-with-feedback/main.sol\":7471:7486  return shopList */\n      dup1\n      sload\n      dup1\n      0x20\n      mul\n      0x20\n      add\n      mload(0x40)\n      swap1\n      dup2\n      add\n      0x40\n      mstore\n      dup1\n      swap3\n      swap2\n      swap1\n      dup2\n      dup2\n      mstore\n      0x20\n      add\n      0x00\n      swap1\n    tag_372:\n      dup3\n      dup3\n      lt\n      iszero\n      tag_258\n      jumpi\n      dup4\n      dup3\n      swap1\n      0x00\n      mstore\n      keccak256(0x00, 0x20)\n      add\n      dup1\n      sload\n      tag_375\n      swap1\n      tag_218\n      jump\t// in\n    tag_375:\n      dup1\n      0x1f\n      add\n      0x20\n      dup1\n      swap2\n      div\n      mul\n      0x20\n      add\n      mload(0x40)\n      swap1\n      dup2\n      add\n      0x40\n      mstore\n      dup1\n      swap3\n      swap2\n      swap1\n      dup2\n      dup2\n      mstore\n      0x20\n      add\n      dup3\n      dup1\n      sload\n      tag_376\n      swap1\n      tag_218\n      jump\t// in\n    tag_376:\n      dup1\n      iszero\n      tag_377\n      jumpi\n      dup1\n      0x1f\n      lt\n      tag_378\n      jumpi\n      0x0100\n      dup1\n      dup4\n      sload\n      div\n      mul\n      dup4\n      mstore\n      swap2\n      0x20\n      add\n      swap2\n      jump(tag_377)\n    tag_378:\n      dup3\n      add\n      swap2\n      swap1\n      0x00\n      mstore\n      keccak256(0x00, 0x20)\n      swap1\n    tag_379:\n      dup2\n      sload\n      dup2\n      mstore\n      swap1\n      0x01\n      add\n      swap1\n      0x20\n      add\n      dup1\n      dup4\n      gt\n      tag_379\n      jumpi\n      dup3\n      swap1\n      sub\n      0x1f\n      and\n      dup3\n      add\n      swap2\n    tag_377:\n      pop\n      pop\n      pop\n      pop\n      pop\n      dup2\n      mstore\n      0x20\n      add\n      swap1\n      0x01\n      add\n      swap1\n      jump(tag_372)\n        /* \"Documents/GitHub/Store-system-with-feedback/main.sol\":4962:5550  function leaveFeedback (string memory shop, string memory feedback, uint256 rating) public {\r... */\n    tag_144:\n        /* \"Documents/GitHub/Store-system-with-feedback/main.sol\":5082:5084  10 */\n      0x0a\n        /* \"Documents/GitHub/Store-system-with-feedback/main.sol\":5072:5078  rating */\n      dup2\n        /* \"Documents/GitHub/Store-system-with-feedback/main.sol\":5072:5084  rating <= 10 */\n      gt\n      iszero\n        /* \"Documents/GitHub/Store-system-with-feedback/main.sol\":5064:5121  require(rating <= 10,\"error: rating can be from 1 to 10\") */\n      tag_381\n      jumpi\n      mload(0x40)\n      shl(0xe5, 0x461bcd)\n      dup2\n      mstore\n        /* \"#utility.yul\":12549:12551   */\n      0x20\n        /* \"Documents/GitHub/Store-system-with-feedback/main.sol\":5064:5121  require(rating <= 10,\"error: rating can be from 1 to 10\") */\n      0x04\n      dup3\n      add\n        /* \"#utility.yul\":12531:12552   */\n      mstore\n        /* \"#utility.yul\":12588:12590   */\n      0x21\n        /* \"#utility.yul\":12568:12586   */\n      0x24\n      dup3\n      add\n        /* \"#utility.yul\":12561:12591   */\n      mstore\n        /* \"#utility.yul\":12627:12661   */\n      0x6572726f723a20726174696e672063616e2062652066726f6d203120746f2031\n        /* \"#utility.yul\":12607:12625   */\n      0x44\n      dup3\n      add\n        /* \"#utility.yul\":12600:12662   */\n      mstore\n      shl(0xfc, 0x03)\n        /* \"#utility.yul\":12678:12696   */\n      0x64\n      dup3\n      add\n        /* \"#utility.yul\":12671:12702   */\n      mstore\n        /* \"#utility.yul\":12719:12738   */\n      0x84\n      add\n        /* \"Documents/GitHub/Store-system-with-feedback/main.sol\":5064:5121  require(rating <= 10,\"error: rating can be from 1 to 10\") */\n      tag_197\n        /* \"#utility.yul\":12347:12744   */\n      jump\n        /* \"Documents/GitHub/Store-system-with-feedback/main.sol\":5064:5121  require(rating <= 10,\"error: rating can be from 1 to 10\") */\n    tag_381:\n        /* \"Documents/GitHub/Store-system-with-feedback/main.sol\":5136:5142  uint i */\n      0x00\n        /* \"Documents/GitHub/Store-system-with-feedback/main.sol\":5132:5543  for(uint i = 0; i <= shopList.length; i++) {\r... */\n    tag_384:\n        /* \"Documents/GitHub/Store-system-with-feedback/main.sol\":5153:5161  shopList */\n      0x02\n        /* \"Documents/GitHub/Store-system-with-feedback/main.sol\":5153:5168  shopList.length */\n      sload\n        /* \"Documents/GitHub/Store-system-with-feedback/main.sol\":5148:5168  i <= shopList.length */\n      dup2\n      gt\n        /* \"Documents/GitHub/Store-system-with-feedback/main.sol\":5132:5543  for(uint i = 0; i <= shopList.length; i++) {\r... */\n      tag_385\n      jumpi\n        /* \"Documents/GitHub/Store-system-with-feedback/main.sol\":5190:5216  string memory tempShopName */\n      0x00\n        /* \"Documents/GitHub/Store-system-with-feedback/main.sol\":5219:5227  shopList */\n      0x02\n        /* \"Documents/GitHub/Store-system-with-feedback/main.sol\":5228:5229  i */\n      dup3\n        /* \"Documents/GitHub/Store-system-with-feedback/main.sol\":5219:5230  shopList[i] */\n      dup2\n      sload\n      dup2\n      lt\n      tag_388\n      jumpi\n      tag_388\n      tag_169\n      jump\t// in\n    tag_388:\n      swap1\n      0x00\n      mstore\n      keccak256(0x00, 0x20)\n      add\n        /* \"Documents/GitHub/Store-system-with-feedback/main.sol\":5190:5230  string memory tempShopName = shopList[i] */\n      dup1\n      sload\n      tag_390\n      swap1\n      tag_218\n      jump\t// in\n    tag_390:\n      dup1\n      0x1f\n      add\n      0x20\n      dup1\n      swap2\n      div\n      mul\n      0x20\n      add\n      mload(0x40)\n      swap1\n      dup2\n      add\n      0x40\n      mstore\n      dup1\n      swap3\n      swap2\n      swap1\n      dup2\n      dup2\n      mstore\n      0x20\n      add\n      dup3\n      dup1\n      sload\n      tag_391\n      swap1\n      tag_218\n      jump\t// in\n    tag_391:\n      dup1\n      iszero\n      tag_392\n      jumpi\n      dup1\n      0x1f\n      lt\n      tag_393\n      jumpi\n      0x0100\n      dup1\n      dup4\n      sload\n      div\n      mul\n      dup4\n      mstore\n      swap2\n      0x20\n      add\n      swap2\n      jump(tag_392)\n    tag_393:\n      dup3\n      add\n      swap2\n      swap1\n      0x00\n      mstore\n      keccak256(0x00, 0x20)\n      swap1\n    tag_394:\n      dup2\n      sload\n      dup2\n      mstore\n      swap1\n      0x01\n      add\n      swap1\n      0x20\n      add\n      dup1\n      dup4\n      gt\n      tag_394\n      jumpi\n      dup3\n      swap1\n      sub\n      0x1f\n      and\n      dup3\n      add\n      swap2\n    tag_392:\n      pop\n      pop\n      pop\n      pop\n      pop\n      swap1\n      pop\n        /* \"Documents/GitHub/Store-system-with-feedback/main.sol\":5320:5324  shop */\n      dup5\n        /* \"Documents/GitHub/Store-system-with-feedback/main.sol\":5303:5325  abi.encodePacked(shop) */\n      add(0x20, mload(0x40))\n      tag_395\n      swap2\n      swap1\n      tag_162\n      jump\t// in\n    tag_395:\n      mload(0x40)\n      0x20\n      dup2\n      dup4\n      sub\n      sub\n      dup2\n      mstore\n      swap1\n      0x40\n      mstore\n        /* \"Documents/GitHub/Store-system-with-feedback/main.sol\":5293:5326  keccak256(abi.encodePacked(shop)) */\n      dup1\n      mload\n      swap1\n      0x20\n      add\n      keccak256\n        /* \"Documents/GitHub/Store-system-with-feedback/main.sol\":5275:5287  tempShopName */\n      dup2\n        /* \"Documents/GitHub/Store-system-with-feedback/main.sol\":5258:5288  abi.encodePacked(tempShopName) */\n      add(0x20, mload(0x40))\n      tag_396\n      swap2\n      swap1\n      tag_162\n      jump\t// in\n    tag_396:\n      mload(0x40)\n      0x20\n      dup2\n      dup4\n      sub\n      sub\n      dup2\n      mstore\n      swap1\n      0x40\n      mstore\n        /* \"Documents/GitHub/Store-system-with-feedback/main.sol\":5248:5289  keccak256(abi.encodePacked(tempShopName)) */\n      dup1\n      mload\n      swap1\n      0x20\n      add\n      keccak256\n        /* \"Documents/GitHub/Store-system-with-feedback/main.sol\":5248:5326  keccak256(abi.encodePacked(tempShopName)) == keccak256(abi.encodePacked(shop)) */\n      eq\n        /* \"Documents/GitHub/Store-system-with-feedback/main.sol\":5245:5532  if(keccak256(abi.encodePacked(tempShopName)) == keccak256(abi.encodePacked(shop))) {                    \r... */\n      iszero\n      tag_397\n      jumpi\n        /* \"Documents/GitHub/Store-system-with-feedback/main.sol\":5432:5515  complaintBook(shop, structUsers[msg.sender].userName, feedback, rating, zerroArray) */\n      0x40\n      dup1\n      mload\n      0xa0\n      dup2\n      add\n      dup3\n      mstore\n      dup7\n      dup2\n      mstore\n        /* \"Documents/GitHub/Store-system-with-feedback/main.sol\":5464:5474  msg.sender */\n      caller\n      0x00\n        /* \"Documents/GitHub/Store-system-with-feedback/main.sol\":5452:5475  structUsers[msg.sender] */\n      swap1\n      dup2\n      mstore\n        /* \"Documents/GitHub/Store-system-with-feedback/main.sol\":5452:5463  structUsers */\n      0x04\n        /* \"Documents/GitHub/Store-system-with-feedback/main.sol\":5432:5515  complaintBook(shop, structUsers[msg.sender].userName, feedback, rating, zerroArray) */\n      0x20\n        /* \"Documents/GitHub/Store-system-with-feedback/main.sol\":5452:5475  structUsers[msg.sender] */\n      swap1\n      dup2\n      mstore\n      swap3\n      swap1\n      keccak256\n        /* \"Documents/GitHub/Store-system-with-feedback/main.sol\":5432:5515  complaintBook(shop, structUsers[msg.sender].userName, feedback, rating, zerroArray) */\n      dup1\n      sload\n        /* \"Documents/GitHub/Store-system-with-feedback/main.sol\":5367:5393  string[] memory zerroArray */\n      0x60\n      swap4\n        /* \"Documents/GitHub/Store-system-with-feedback/main.sol\":5412:5426  complaintBooks */\n      0x03\n      swap4\n        /* \"Documents/GitHub/Store-system-with-feedback/main.sol\":5432:5515  complaintBook(shop, structUsers[msg.sender].userName, feedback, rating, zerroArray) */\n      swap3\n      swap1\n      dup4\n      add\n      swap2\n      tag_398\n      swap1\n      tag_218\n      jump\t// in\n    tag_398:\n      dup1\n      0x1f\n      add\n      0x20\n      dup1\n      swap2\n      div\n      mul\n      0x20\n      add\n      mload(0x40)\n      swap1\n      dup2\n      add\n      0x40\n      mstore\n      dup1\n      swap3\n      swap2\n      swap1\n      dup2\n      dup2\n      mstore\n      0x20\n      add\n      dup3\n      dup1\n      sload\n      tag_399\n      swap1\n      tag_218\n      jump\t// in\n    tag_399:\n      dup1\n      iszero\n      tag_400\n      jumpi\n      dup1\n      0x1f\n      lt\n      tag_401\n      jumpi\n      0x0100\n      dup1\n      dup4\n      sload\n      div\n      mul\n      dup4\n      mstore\n      swap2\n      0x20\n      add\n      swap2\n      jump(tag_400)\n    tag_401:\n      dup3\n      add\n      swap2\n      swap1\n      0x00\n      mstore\n      keccak256(0x00, 0x20)\n      swap1\n    tag_402:\n      dup2\n      sload\n      dup2\n      mstore\n      swap1\n      0x01\n      add\n      swap1\n      0x20\n      add\n      dup1\n      dup4\n      gt\n      tag_402\n      jumpi\n      dup3\n      swap1\n      sub\n      0x1f\n      and\n      dup3\n      add\n      swap2\n    tag_400:\n      pop\n      pop\n      pop\n      swap2\n      dup4\n      mstore\n      pop\n      pop\n      0x20\n      dup1\n      dup3\n      add\n      dup10\n      swap1\n      mstore\n      0x40\n      dup3\n      add\n      dup9\n      swap1\n      mstore\n      0x60\n      swap1\n      swap2\n      add\n      dup5\n      swap1\n      mstore\n        /* \"Documents/GitHub/Store-system-with-feedback/main.sol\":5412:5516  complaintBooks.push(complaintBook(shop, structUsers[msg.sender].userName, feedback, rating, zerroArray)) */\n      dup3\n      sload\n      0x01\n      dup2\n      add\n      dup5\n      sstore\n      0x00\n      swap4\n      dup5\n      mstore\n      swap3\n      dup2\n      swap1\n      keccak256\n      dup3\n      mload\n      dup1\n      mload\n      swap4\n      swap5\n      0x05\n      mul\n      swap1\n      swap2\n      add\n      swap3\n      tag_404\n      swap3\n      dup5\n      swap3\n      add\n      swap1\n      tag_200\n      jump\t// in\n    tag_404:\n      pop\n      0x20\n      dup3\n      dup2\n      add\n      mload\n      dup1\n      mload\n      tag_405\n      swap3\n      0x01\n      dup6\n      add\n      swap3\n      add\n      swap1\n      tag_200\n      jump\t// in\n    tag_405:\n      pop\n      0x40\n      dup3\n      add\n      mload\n      dup1\n      mload\n      tag_406\n      swap2\n      0x02\n      dup5\n      add\n      swap2\n      0x20\n      swap1\n      swap2\n      add\n      swap1\n      tag_200\n      jump\t// in\n    tag_406:\n      pop\n      0x60\n      dup3\n      add\n      mload\n      0x03\n      dup3\n      add\n      sstore\n      0x80\n      dup3\n      add\n      mload\n      dup1\n      mload\n      tag_407\n      swap2\n      0x04\n      dup5\n      add\n      swap2\n      0x20\n      swap1\n      swap2\n      add\n      swap1\n      tag_230\n      jump\t// in\n    tag_407:\n      pop\n      pop\n      pop\n        /* \"Documents/GitHub/Store-system-with-feedback/main.sol\":5328:5532  {                    \r... */\n      pop\n        /* \"Documents/GitHub/Store-system-with-feedback/main.sol\":5245:5532  if(keccak256(abi.encodePacked(tempShopName)) == keccak256(abi.encodePacked(shop))) {                    \r... */\n    tag_397:\n      pop\n        /* \"Documents/GitHub/Store-system-with-feedback/main.sol\":5170:5173  i++ */\n      dup1\n      tag_408\n      dup2\n      tag_232\n      jump\t// in\n    tag_408:\n      swap2\n      pop\n      pop\n        /* \"Documents/GitHub/Store-system-with-feedback/main.sol\":5132:5543  for(uint i = 0; i <= shopList.length; i++) {\r... */\n      jump(tag_384)\n    tag_385:\n      pop\n        /* \"Documents/GitHub/Store-system-with-feedback/main.sol\":4962:5550  function leaveFeedback (string memory shop, string memory feedback, uint256 rating) public {\r... */\n      pop\n      pop\n      pop\n      jump\t// out\n        /* \"Documents/GitHub/Store-system-with-feedback/main.sol\":10738:11168  function login_user(string memory login, bytes32 password) public {\r... */\n    tag_147:\n        /* \"Documents/GitHub/Store-system-with-feedback/main.sol\":10823:10834  structUsers */\n      0x04\n        /* \"Documents/GitHub/Store-system-with-feedback/main.sol\":10823:10859  structUsers[structUserLogins[login]] */\n      0x00\n        /* \"Documents/GitHub/Store-system-with-feedback/main.sol\":10835:10851  structUserLogins */\n      0x05\n        /* \"Documents/GitHub/Store-system-with-feedback/main.sol\":10852:10857  login */\n      dup5\n        /* \"Documents/GitHub/Store-system-with-feedback/main.sol\":10835:10858  structUserLogins[login] */\n      mload(0x40)\n      tag_410\n      swap2\n      swap1\n      tag_162\n      jump\t// in\n    tag_410:\n      swap1\n      dup2\n      mstore\n      0x40\n      dup1\n      mload\n      0x20\n      swap3\n      dup2\n      swap1\n      sub\n      dup4\n      add\n      swap1\n      keccak256\n      sload\n      sub(shl(0xa0, 0x01), 0x01)\n      and\n        /* \"Documents/GitHub/Store-system-with-feedback/main.sol\":10823:10859  structUsers[structUserLogins[login]] */\n      dup4\n      mstore\n      swap1\n      dup3\n      add\n      swap3\n      swap1\n      swap3\n      mstore\n      add\n      0x00\n      keccak256\n        /* \"Documents/GitHub/Store-system-with-feedback/main.sol\":10823:10866  structUsers[structUserLogins[login]].logged */\n      0x04\n      add\n      sload\n      0xff\n      and\n        /* \"Documents/GitHub/Store-system-with-feedback/main.sol\":10823:10875  structUsers[structUserLogins[login]].logged == false */\n      iszero\n        /* \"Documents/GitHub/Store-system-with-feedback/main.sol\":10815:10909  require(structUsers[structUserLogins[login]].logged == false, \"Error: You are already logged\") */\n      tag_411\n      jumpi\n      mload(0x40)\n      shl(0xe5, 0x461bcd)\n      dup2\n      mstore\n      0x04\n      add\n      tag_197\n      swap1\n      tag_289\n      jump\t// in\n    tag_411:\n        /* \"Documents/GitHub/Store-system-with-feedback/main.sol\":10963:10964  0 */\n      0x00\n      sub(shl(0xa0, 0x01), 0x01)\n        /* \"Documents/GitHub/Store-system-with-feedback/main.sol\":10928:10965  structUserLogins[login] != address(0) */\n      and\n        /* \"Documents/GitHub/Store-system-with-feedback/main.sol\":10928:10944  structUserLogins */\n      0x05\n        /* \"Documents/GitHub/Store-system-with-feedback/main.sol\":10945:10950  login */\n      dup4\n        /* \"Documents/GitHub/Store-system-with-feedback/main.sol\":10928:10951  structUserLogins[login] */\n      mload(0x40)\n      tag_413\n      swap2\n      swap1\n      tag_162\n      jump\t// in\n    tag_413:\n      swap1\n      dup2\n      mstore\n      mload(0x40)\n      swap1\n      dup2\n      swap1\n      sub\n      0x20\n      add\n      swap1\n      keccak256\n      sload\n      sub(shl(0xa0, 0x01), 0x01)\n      and\n        /* \"Documents/GitHub/Store-system-with-feedback/main.sol\":10928:10965  structUserLogins[login] != address(0) */\n      eq\n      iszero\n        /* \"Documents/GitHub/Store-system-with-feedback/main.sol\":10920:10995  require(structUserLogins[login] != address(0), \"Error: User doesn't exist\") */\n      tag_414\n      jumpi\n      mload(0x40)\n      shl(0xe5, 0x461bcd)\n      dup2\n      mstore\n      0x04\n      add\n      tag_197\n      swap1\n      tag_293\n      jump\t// in\n    tag_414:\n        /* \"Documents/GitHub/Store-system-with-feedback/main.sol\":11063:11071  password */\n      dup1\n        /* \"Documents/GitHub/Store-system-with-feedback/main.sol\":11014:11025  structUsers */\n      0x04\n        /* \"Documents/GitHub/Store-system-with-feedback/main.sol\":11014:11050  structUsers[structUserLogins[login]] */\n      0x00\n        /* \"Documents/GitHub/Store-system-with-feedback/main.sol\":11026:11042  structUserLogins */\n      0x05\n        /* \"Documents/GitHub/Store-system-with-feedback/main.sol\":11043:11048  login */\n      dup6\n        /* \"Documents/GitHub/Store-system-with-feedback/main.sol\":11026:11049  structUserLogins[login] */\n      mload(0x40)\n      tag_416\n      swap2\n      swap1\n      tag_162\n      jump\t// in\n    tag_416:\n      swap1\n      dup2\n      mstore\n      0x40\n      dup1\n      mload\n      0x20\n      swap3\n      dup2\n      swap1\n      sub\n      dup4\n      add\n      swap1\n      keccak256\n      sload\n      sub(shl(0xa0, 0x01), 0x01)\n      and\n        /* \"Documents/GitHub/Store-system-with-feedback/main.sol\":11014:11050  structUsers[structUserLogins[login]] */\n      dup4\n      mstore\n      swap1\n      dup3\n      add\n      swap3\n      swap1\n      swap3\n      mstore\n      add\n      0x00\n      keccak256\n        /* \"Documents/GitHub/Store-system-with-feedback/main.sol\":11026:11049  structUserLogins[login] */\n      0x01\n        /* \"Documents/GitHub/Store-system-with-feedback/main.sol\":11014:11059  structUsers[structUserLogins[login]].password */\n      add\n      sload\n        /* \"Documents/GitHub/Store-system-with-feedback/main.sol\":11014:11071  structUsers[structUserLogins[login]].password == password */\n      eq\n        /* \"Documents/GitHub/Store-system-with-feedback/main.sol\":11006:11099  require(structUsers[structUserLogins[login]].password == password, \"Error: Invalid password\") */\n      tag_417\n      jumpi\n      mload(0x40)\n      shl(0xe5, 0x461bcd)\n      dup2\n      mstore\n      0x04\n      add\n      tag_197\n      swap1\n      tag_297\n      jump\t// in\n    tag_417:\n        /* \"Documents/GitHub/Store-system-with-feedback/main.sol\":11156:11160  true */\n      0x01\n        /* \"Documents/GitHub/Store-system-with-feedback/main.sol\":11110:11121  structUsers */\n      0x04\n        /* \"Documents/GitHub/Store-system-with-feedback/main.sol\":11110:11146  structUsers[structUserLogins[login]] */\n      0x00\n        /* \"Documents/GitHub/Store-system-with-feedback/main.sol\":11122:11138  structUserLogins */\n      0x05\n        /* \"Documents/GitHub/Store-system-with-feedback/main.sol\":11139:11144  login */\n      dup6\n        /* \"Documents/GitHub/Store-system-with-feedback/main.sol\":11122:11145  structUserLogins[login] */\n      mload(0x40)\n      tag_298\n      swap2\n      swap1\n      tag_162\n      jump\t// in\n        /* \"Documents/GitHub/Store-system-with-feedback/main.sol\":3662:3716  mapping(string => structProduct) public structProducts */\n    tag_150:\n      dup1\n      mload\n      0x20\n      dup2\n      dup4\n      add\n      dup2\n      add\n      dup1\n      mload\n      0x08\n      dup3\n      mstore\n      swap3\n      dup3\n      add\n      swap2\n      swap1\n      swap4\n      add\n      keccak256\n      swap2\n      mstore\n      dup1\n      sload\n      0x01\n      dup3\n      add\n      dup1\n      sload\n      sub(shl(0xa0, 0x01), 0x01)\n      swap1\n      swap3\n      and\n      swap3\n      swap2\n      tag_420\n      swap1\n      tag_218\n      jump\t// in\n    tag_420:\n      dup1\n      0x1f\n      add\n      0x20\n      dup1\n      swap2\n      div\n      mul\n      0x20\n      add\n      mload(0x40)\n      swap1\n      dup2\n      add\n      0x40\n      mstore\n      dup1\n      swap3\n      swap2\n      swap1\n      dup2\n      dup2\n      mstore\n      0x20\n      add\n      dup3\n      dup1\n      sload\n      tag_421\n      swap1\n      tag_218\n      jump\t// in\n    tag_421:\n      dup1\n      iszero\n      tag_422\n      jumpi\n      dup1\n      0x1f\n      lt\n      tag_423\n      jumpi\n      0x0100\n      dup1\n      dup4\n      sload\n      div\n      mul\n      dup4\n      mstore\n      swap2\n      0x20\n      add\n      swap2\n      jump(tag_422)\n    tag_423:\n      dup3\n      add\n      swap2\n      swap1\n      0x00\n      mstore\n      keccak256(0x00, 0x20)\n      swap1\n    tag_424:\n      dup2\n      sload\n      dup2\n      mstore\n      swap1\n      0x01\n      add\n      swap1\n      0x20\n      add\n      dup1\n      dup4\n      gt\n      tag_424\n      jumpi\n      dup3\n      swap1\n      sub\n      0x1f\n      and\n      dup3\n      add\n      swap2\n    tag_422:\n      pop\n      pop\n      pop\n      pop\n      pop\n      swap1\n      dup1\n      0x02\n      add\n      sload\n      swap1\n      dup1\n      0x03\n      add\n      sload\n      swap1\n      pop\n      dup5\n      jump\t// out\n        /* \"Documents/GitHub/Store-system-with-feedback/main.sol\":3905:3956  structStatusPurchase[] public structStatusPurchases */\n    tag_155:\n      0x0a\n      dup2\n      dup2\n      sload\n      dup2\n      lt\n      tag_299\n      jumpi\n      0x00\n      dup1\n      revert\n        /* \"Documents/GitHub/Store-system-with-feedback/main.sol\":6789:7366  function MarriageRegistration(uint idMarriageRegistration, bool confirmation) public {\r... */\n    tag_159:\n        /* \"Documents/GitHub/Store-system-with-feedback/main.sol\":6904:6908  true */\n      0x01\n        /* \"Documents/GitHub/Store-system-with-feedback/main.sol\":6888:6908  confirmation == true */\n      dup2\n      iszero\n      iszero\n      eq\n        /* \"Documents/GitHub/Store-system-with-feedback/main.sol\":6885:7359  if(confirmation == true) {\r... */\n      iszero\n      tag_234\n      jumpi\n        /* \"Documents/GitHub/Store-system-with-feedback/main.sol\":7097:7111  structProducts */\n      0x08\n        /* \"Documents/GitHub/Store-system-with-feedback/main.sol\":7112:7139  structMarriageRegistrations */\n      0x0c\n        /* \"Documents/GitHub/Store-system-with-feedback/main.sol\":7140:7162  idMarriageRegistration */\n      dup4\n        /* \"Documents/GitHub/Store-system-with-feedback/main.sol\":7112:7163  structMarriageRegistrations[idMarriageRegistration] */\n      dup2\n      sload\n      dup2\n      lt\n      tag_435\n      jumpi\n      tag_435\n      tag_169\n      jump\t// in\n    tag_435:\n      swap1\n      0x00\n      mstore\n      keccak256(0x00, 0x20)\n      swap1\n      0x03\n      mul\n      add\n        /* \"Documents/GitHub/Store-system-with-feedback/main.sol\":7112:7176  structMarriageRegistrations[idMarriageRegistration].titleProduct */\n      0x01\n      add\n        /* \"Documents/GitHub/Store-system-with-feedback/main.sol\":7097:7177  structProducts[structMarriageRegistrations[idMarriageRegistration].titleProduct] */\n      mload(0x40)\n      tag_437\n      swap2\n      swap1\n      tag_175\n      jump\t// in\n    tag_437:\n      swap1\n      dup2\n      mstore\n      0x20\n      add\n      mload(0x40)\n      dup1\n      swap2\n      sub\n      swap1\n      keccak256\n        /* \"Documents/GitHub/Store-system-with-feedback/main.sol\":7097:7183  structProducts[structMarriageRegistrations[idMarriageRegistration].titleProduct].price */\n      0x02\n      add\n      sload\n        /* \"Documents/GitHub/Store-system-with-feedback/main.sol\":7011:7022  structUsers */\n      0x04\n        /* \"Documents/GitHub/Store-system-with-feedback/main.sol\":7011:7085  structUsers[structMarriageRegistrations[idMarriageRegistration].userLogin] */\n      0x00\n        /* \"Documents/GitHub/Store-system-with-feedback/main.sol\":7023:7050  structMarriageRegistrations */\n      0x0c\n        /* \"Documents/GitHub/Store-system-with-feedback/main.sol\":7051:7073  idMarriageRegistration */\n      dup6\n        /* \"Documents/GitHub/Store-system-with-feedback/main.sol\":7023:7074  structMarriageRegistrations[idMarriageRegistration] */\n      dup2\n      sload\n      dup2\n      lt\n      tag_439\n      jumpi\n      tag_439\n      tag_169\n      jump\t// in\n    tag_439:\n      0x00\n      swap2\n      dup3\n      mstore\n      0x20\n      dup1\n      dup4\n      keccak256\n      0x03\n      swap1\n      swap3\n      mul\n      swap1\n      swap2\n      add\n        /* \"Documents/GitHub/Store-system-with-feedback/main.sol\":7023:7084  structMarriageRegistrations[idMarriageRegistration].userLogin */\n      sload\n      sub(shl(0xa0, 0x01), 0x01)\n      and\n        /* \"Documents/GitHub/Store-system-with-feedback/main.sol\":7011:7085  structUsers[structMarriageRegistrations[idMarriageRegistration].userLogin] */\n      dup4\n      mstore\n      dup3\n      add\n      swap3\n      swap1\n      swap3\n      mstore\n      0x40\n      add\n      swap1\n      keccak256\n        /* \"Documents/GitHub/Store-system-with-feedback/main.sol\":7011:7094  structUsers[structMarriageRegistrations[idMarriageRegistration].userLogin].ballance */\n      0x02\n      add\n      sload\n        /* \"Documents/GitHub/Store-system-with-feedback/main.sol\":7011:7183  structUsers[structMarriageRegistrations[idMarriageRegistration].userLogin].ballance + structProducts[structMarriageRegistrations[idMarriageRegistration].titleProduct].price */\n      tag_441\n      swap2\n      swap1\n      tag_189\n      jump\t// in\n    tag_441:\n        /* \"Documents/GitHub/Store-system-with-feedback/main.sol\":6925:6936  structUsers */\n      0x04\n        /* \"Documents/GitHub/Store-system-with-feedback/main.sol\":6925:6999  structUsers[structMarriageRegistrations[idMarriageRegistration].userLogin] */\n      0x00\n        /* \"Documents/GitHub/Store-system-with-feedback/main.sol\":6937:6964  structMarriageRegistrations */\n      0x0c\n        /* \"Documents/GitHub/Store-system-with-feedback/main.sol\":6965:6987  idMarriageRegistration */\n      dup6\n        /* \"Documents/GitHub/Store-system-with-feedback/main.sol\":6937:6988  structMarriageRegistrations[idMarriageRegistration] */\n      dup2\n      sload\n      dup2\n      lt\n      tag_443\n      jumpi\n      tag_443\n      tag_169\n      jump\t// in\n    tag_443:\n      0x00\n      swap2\n      dup3\n      mstore\n      0x20\n      dup1\n      dup4\n      keccak256\n      0x03\n      swap1\n      swap3\n      mul\n      swap1\n      swap2\n      add\n        /* \"Documents/GitHub/Store-system-with-feedback/main.sol\":6937:6998  structMarriageRegistrations[idMarriageRegistration].userLogin */\n      sload\n      sub(shl(0xa0, 0x01), 0x01)\n      and\n        /* \"Documents/GitHub/Store-system-with-feedback/main.sol\":6925:6999  structUsers[structMarriageRegistrations[idMarriageRegistration].userLogin] */\n      dup4\n      mstore\n      dup3\n      add\n      swap3\n      swap1\n      swap3\n      mstore\n      0x40\n      add\n      dup2\n      keccak256\n        /* \"Documents/GitHub/Store-system-with-feedback/main.sol\":6925:7008  structUsers[structMarriageRegistrations[idMarriageRegistration].userLogin].ballance */\n      0x02\n      add\n        /* \"Documents/GitHub/Store-system-with-feedback/main.sol\":6925:7183  structUsers[structMarriageRegistrations[idMarriageRegistration].userLogin].ballance = structUsers[structMarriageRegistrations[idMarriageRegistration].userLogin].ballance + structProducts[structMarriageRegistrations[idMarriageRegistration].titleProduct].price */\n      swap2\n      swap1\n      swap2\n      sstore\n        /* \"Documents/GitHub/Store-system-with-feedback/main.sol\":7198:7217  structStatusReturns */\n      0x0b\n        /* \"Documents/GitHub/Store-system-with-feedback/main.sol\":7198:7241  structStatusReturns[idMarriageRegistration] */\n      dup1\n      sload\n        /* \"Documents/GitHub/Store-system-with-feedback/main.sol\":7218:7240  idMarriageRegistration */\n      dup5\n      swap1\n        /* \"Documents/GitHub/Store-system-with-feedback/main.sol\":7198:7241  structStatusReturns[idMarriageRegistration] */\n      dup2\n      lt\n      tag_192\n      jumpi\n      tag_192\n      tag_169\n      jump\t// in\n    tag_200:\n      dup3\n      dup1\n      sload\n      tag_452\n      swap1\n      tag_218\n      jump\t// in\n    tag_452:\n      swap1\n      0x00\n      mstore\n      keccak256(0x00, 0x20)\n      swap1\n      0x1f\n      add\n      0x20\n      swap1\n      div\n      dup2\n      add\n      swap3\n      dup3\n      tag_454\n      jumpi\n      0x00\n      dup6\n      sstore\n      jump(tag_457)\n    tag_454:\n      dup3\n      0x1f\n      lt\n      tag_455\n      jumpi\n      dup1\n      mload\n      not(0xff)\n      and\n      dup4\n      dup1\n      add\n      or\n      dup6\n      sstore\n      jump(tag_457)\n    tag_455:\n      dup3\n      dup1\n      add\n      0x01\n      add\n      dup6\n      sstore\n      dup3\n      iszero\n      tag_457\n      jumpi\n      swap2\n      dup3\n      add\n    tag_456:\n      dup3\n      dup2\n      gt\n      iszero\n      tag_457\n      jumpi\n      dup3\n      mload\n      dup3\n      sstore\n      swap2\n      0x20\n      add\n      swap2\n      swap1\n      0x01\n      add\n      swap1\n      jump(tag_456)\n    tag_457:\n      pop\n      tag_458\n      swap3\n      swap2\n      pop\n      tag_459\n      jump\t// in\n    tag_458:\n      pop\n      swap1\n      jump\t// out\n    tag_230:\n      dup3\n      dup1\n      sload\n      dup3\n      dup3\n      sstore\n      swap1\n      0x00\n      mstore\n      keccak256(0x00, 0x20)\n      swap1\n      dup2\n      add\n      swap3\n      dup3\n      iszero\n      tag_462\n      jumpi\n      swap2\n      0x20\n      mul\n      dup3\n      add\n    tag_461:\n      dup3\n      dup2\n      gt\n      iszero\n      tag_462\n      jumpi\n      dup3\n      mload\n      dup1\n      mload\n      tag_463\n      swap2\n      dup5\n      swap2\n      0x20\n      swap1\n      swap2\n      add\n      swap1\n      tag_200\n      jump\t// in\n    tag_463:\n      pop\n      swap2\n      0x20\n      add\n      swap2\n      swap1\n      0x01\n      add\n      swap1\n      jump(tag_461)\n    tag_462:\n      pop\n      tag_458\n      swap3\n      swap2\n      pop\n      tag_465\n      jump\t// in\n    tag_459:\n    tag_466:\n      dup1\n      dup3\n      gt\n      iszero\n      tag_458\n      jumpi\n      0x00\n      dup2\n      sstore\n      0x01\n      add\n      jump(tag_466)\n    tag_465:\n      dup1\n      dup3\n      gt\n      iszero\n      tag_458\n      jumpi\n      0x00\n      tag_470\n      dup3\n      dup3\n      tag_471\n      jump\t// in\n    tag_470:\n      pop\n      0x01\n      add\n      jump(tag_465)\n    tag_471:\n      pop\n      dup1\n      sload\n      tag_472\n      swap1\n      tag_218\n      jump\t// in\n    tag_472:\n      0x00\n      dup3\n      sstore\n      dup1\n      0x1f\n      lt\n      tag_474\n      jumpi\n      pop\n      pop\n      jump\t// out\n    tag_474:\n      0x1f\n      add\n      0x20\n      swap1\n      div\n      swap1\n      0x00\n      mstore\n      keccak256(0x00, 0x20)\n      swap1\n      dup2\n      add\n      swap1\n      tag_475\n      swap2\n      swap1\n      tag_459\n      jump\t// in\n    tag_475:\n      pop\n      jump\t// out\n        /* \"#utility.yul\":14:187   */\n    tag_477:\n        /* \"#utility.yul\":82:102   */\n      dup1\n      calldataload\n      sub(shl(0xa0, 0x01), 0x01)\n        /* \"#utility.yul\":131:162   */\n      dup2\n      and\n        /* \"#utility.yul\":121:163   */\n      dup2\n      eq\n        /* \"#utility.yul\":111:181   */\n      tag_479\n      jumpi\n        /* \"#utility.yul\":177:178   */\n      0x00\n        /* \"#utility.yul\":174:175   */\n      dup1\n        /* \"#utility.yul\":167:179   */\n      revert\n        /* \"#utility.yul\":111:181   */\n    tag_479:\n        /* \"#utility.yul\":14:187   */\n      swap2\n      swap1\n      pop\n      jump\t// out\n        /* \"#utility.yul\":192:723   */\n    tag_480:\n        /* \"#utility.yul\":235:240   */\n      0x00\n        /* \"#utility.yul\":288:291   */\n      dup3\n        /* \"#utility.yul\":281:285   */\n      0x1f\n        /* \"#utility.yul\":273:279   */\n      dup4\n        /* \"#utility.yul\":269:286   */\n      add\n        /* \"#utility.yul\":265:292   */\n      slt\n        /* \"#utility.yul\":255:310   */\n      tag_482\n      jumpi\n        /* \"#utility.yul\":306:307   */\n      0x00\n        /* \"#utility.yul\":303:304   */\n      dup1\n        /* \"#utility.yul\":296:308   */\n      revert\n        /* \"#utility.yul\":255:310   */\n    tag_482:\n        /* \"#utility.yul\":329:349   */\n      dup2\n      calldataload\n      sub(shl(0x40, 0x01), 0x01)\n        /* \"#utility.yul\":361:387   */\n      dup2\n      gt\n        /* \"#utility.yul\":358:410   */\n      iszero\n      tag_484\n      jumpi\n        /* \"#utility.yul\":390:408   */\n      tag_484\n      tag_485\n      jump\t// in\n    tag_484:\n        /* \"#utility.yul\":434:489   */\n      tag_486\n        /* \"#utility.yul\":477:479   */\n      0x1f\n        /* \"#utility.yul\":458:471   */\n      dup3\n      add\n      not(0x1f)\n        /* \"#utility.yul\":454:481   */\n      and\n        /* \"#utility.yul\":483:487   */\n      0x20\n        /* \"#utility.yul\":450:488   */\n      add\n        /* \"#utility.yul\":434:489   */\n      tag_487\n      jump\t// in\n    tag_486:\n        /* \"#utility.yul\":514:516   */\n      dup2\n        /* \"#utility.yul\":505:512   */\n      dup2\n        /* \"#utility.yul\":498:517   */\n      mstore\n        /* \"#utility.yul\":560:563   */\n      dup5\n        /* \"#utility.yul\":553:557   */\n      0x20\n        /* \"#utility.yul\":548:550   */\n      dup4\n        /* \"#utility.yul\":540:546   */\n      dup7\n        /* \"#utility.yul\":536:551   */\n      add\n        /* \"#utility.yul\":532:558   */\n      add\n        /* \"#utility.yul\":529:564   */\n      gt\n        /* \"#utility.yul\":526:581   */\n      iszero\n      tag_488\n      jumpi\n        /* \"#utility.yul\":577:578   */\n      0x00\n        /* \"#utility.yul\":574:575   */\n      dup1\n        /* \"#utility.yul\":567:579   */\n      revert\n        /* \"#utility.yul\":526:581   */\n    tag_488:\n        /* \"#utility.yul\":642:644   */\n      dup2\n        /* \"#utility.yul\":635:639   */\n      0x20\n        /* \"#utility.yul\":627:633   */\n      dup6\n        /* \"#utility.yul\":623:640   */\n      add\n        /* \"#utility.yul\":616:620   */\n      0x20\n        /* \"#utility.yul\":607:614   */\n      dup4\n        /* \"#utility.yul\":603:621   */\n      add\n        /* \"#utility.yul\":590:645   */\n      calldatacopy\n        /* \"#utility.yul\":690:691   */\n      0x00\n        /* \"#utility.yul\":665:681   */\n      swap2\n      dup2\n      add\n        /* \"#utility.yul\":683:687   */\n      0x20\n        /* \"#utility.yul\":661:688   */\n      add\n        /* \"#utility.yul\":654:692   */\n      swap2\n      swap1\n      swap2\n      mstore\n        /* \"#utility.yul\":669:676   */\n      swap4\n        /* \"#utility.yul\":192:723   */\n      swap3\n      pop\n      pop\n      pop\n      jump\t// out\n        /* \"#utility.yul\":728:914   */\n    tag_114:\n        /* \"#utility.yul\":787:793   */\n      0x00\n        /* \"#utility.yul\":840:842   */\n      0x20\n        /* \"#utility.yul\":828:837   */\n      dup3\n        /* \"#utility.yul\":819:826   */\n      dup5\n        /* \"#utility.yul\":815:838   */\n      sub\n        /* \"#utility.yul\":811:843   */\n      slt\n        /* \"#utility.yul\":808:860   */\n      iszero\n      tag_490\n      jumpi\n        /* \"#utility.yul\":856:857   */\n      0x00\n        /* \"#utility.yul\":853:854   */\n      dup1\n        /* \"#utility.yul\":846:858   */\n      revert\n        /* \"#utility.yul\":808:860   */\n    tag_490:\n        /* \"#utility.yul\":879:908   */\n      tag_491\n        /* \"#utility.yul\":898:907   */\n      dup3\n        /* \"#utility.yul\":879:908   */\n      tag_477\n      jump\t// in\n    tag_491:\n        /* \"#utility.yul\":869:908   */\n      swap4\n        /* \"#utility.yul\":728:914   */\n      swap3\n      pop\n      pop\n      pop\n      jump\t// out\n        /* \"#utility.yul\":919:1383   */\n    tag_49:\n        /* \"#utility.yul\":1006:1012   */\n      0x00\n        /* \"#utility.yul\":1014:1020   */\n      dup1\n        /* \"#utility.yul\":1022:1028   */\n      0x00\n        /* \"#utility.yul\":1075:1077   */\n      0x60\n        /* \"#utility.yul\":1063:1072   */\n      dup5\n        /* \"#utility.yul\":1054:1061   */\n      dup7\n        /* \"#utility.yul\":1050:1073   */\n      sub\n        /* \"#utility.yul\":1046:1078   */\n      slt\n        /* \"#utility.yul\":1043:1095   */\n      iszero\n      tag_493\n      jumpi\n        /* \"#utility.yul\":1091:1092   */\n      0x00\n        /* \"#utility.yul\":1088:1089   */\n      dup1\n        /* \"#utility.yul\":1081:1093   */\n      revert\n        /* \"#utility.yul\":1043:1095   */\n    tag_493:\n        /* \"#utility.yul\":1114:1143   */\n      tag_494\n        /* \"#utility.yul\":1133:1142   */\n      dup5\n        /* \"#utility.yul\":1114:1143   */\n      tag_477\n      jump\t// in\n    tag_494:\n        /* \"#utility.yul\":1104:1143   */\n      swap3\n      pop\n        /* \"#utility.yul\":1194:1196   */\n      0x20\n        /* \"#utility.yul\":1179:1197   */\n      dup5\n      add\n        /* \"#utility.yul\":1166:1198   */\n      calldataload\n      sub(shl(0x40, 0x01), 0x01)\n        /* \"#utility.yul\":1210:1240   */\n      dup2\n      gt\n        /* \"#utility.yul\":1207:1257   */\n      iszero\n      tag_495\n      jumpi\n        /* \"#utility.yul\":1253:1254   */\n      0x00\n        /* \"#utility.yul\":1250:1251   */\n      dup1\n        /* \"#utility.yul\":1243:1255   */\n      revert\n        /* \"#utility.yul\":1207:1257   */\n    tag_495:\n        /* \"#utility.yul\":1276:1326   */\n      tag_496\n        /* \"#utility.yul\":1318:1325   */\n      dup7\n        /* \"#utility.yul\":1309:1315   */\n      dup3\n        /* \"#utility.yul\":1298:1307   */\n      dup8\n        /* \"#utility.yul\":1294:1316   */\n      add\n        /* \"#utility.yul\":1276:1326   */\n      tag_480\n      jump\t// in\n    tag_496:\n        /* \"#utility.yul\":1266:1326   */\n      swap3\n      pop\n      pop\n        /* \"#utility.yul\":1373:1375   */\n      0x40\n        /* \"#utility.yul\":1362:1371   */\n      dup5\n        /* \"#utility.yul\":1358:1376   */\n      add\n        /* \"#utility.yul\":1345:1377   */\n      calldataload\n        /* \"#utility.yul\":1335:1377   */\n      swap1\n      pop\n        /* \"#utility.yul\":919:1383   */\n      swap3\n      pop\n      swap3\n      pop\n      swap3\n      jump\t// out\n        /* \"#utility.yul\":1388:1710   */\n    tag_36:\n        /* \"#utility.yul\":1457:1463   */\n      0x00\n        /* \"#utility.yul\":1510:1512   */\n      0x20\n        /* \"#utility.yul\":1498:1507   */\n      dup3\n        /* \"#utility.yul\":1489:1496   */\n      dup5\n        /* \"#utility.yul\":1485:1508   */\n      sub\n        /* \"#utility.yul\":1481:1513   */\n      slt\n        /* \"#utility.yul\":1478:1530   */\n      iszero\n      tag_498\n      jumpi\n        /* \"#utility.yul\":1526:1527   */\n      0x00\n        /* \"#utility.yul\":1523:1524   */\n      dup1\n        /* \"#utility.yul\":1516:1528   */\n      revert\n        /* \"#utility.yul\":1478:1530   */\n    tag_498:\n        /* \"#utility.yul\":1553:1576   */\n      dup2\n      calldataload\n      sub(shl(0x40, 0x01), 0x01)\n        /* \"#utility.yul\":1588:1618   */\n      dup2\n      gt\n        /* \"#utility.yul\":1585:1635   */\n      iszero\n      tag_499\n      jumpi\n        /* \"#utility.yul\":1631:1632   */\n      0x00\n        /* \"#utility.yul\":1628:1629   */\n      dup1\n        /* \"#utility.yul\":1621:1633   */\n      revert\n        /* \"#utility.yul\":1585:1635   */\n    tag_499:\n        /* \"#utility.yul\":1654:1704   */\n      tag_360\n        /* \"#utility.yul\":1696:1703   */\n      dup5\n        /* \"#utility.yul\":1687:1693   */\n      dup3\n        /* \"#utility.yul\":1676:1685   */\n      dup6\n        /* \"#utility.yul\":1672:1694   */\n      add\n        /* \"#utility.yul\":1654:1704   */\n      tag_480\n      jump\t// in\n        /* \"#utility.yul\":1715:3050   */\n    tag_61:\n        /* \"#utility.yul\":1828:1834   */\n      0x00\n        /* \"#utility.yul\":1836:1842   */\n      dup1\n        /* \"#utility.yul\":1889:1891   */\n      0x40\n        /* \"#utility.yul\":1877:1886   */\n      dup4\n        /* \"#utility.yul\":1868:1875   */\n      dup6\n        /* \"#utility.yul\":1864:1887   */\n      sub\n        /* \"#utility.yul\":1860:1892   */\n      slt\n        /* \"#utility.yul\":1857:1909   */\n      iszero\n      tag_502\n      jumpi\n        /* \"#utility.yul\":1905:1906   */\n      0x00\n        /* \"#utility.yul\":1902:1903   */\n      dup1\n        /* \"#utility.yul\":1895:1907   */\n      revert\n        /* \"#utility.yul\":1857:1909   */\n    tag_502:\n        /* \"#utility.yul\":1932:1955   */\n      dup3\n      calldataload\n      sub(shl(0x40, 0x01), 0x01)\n        /* \"#utility.yul\":2004:2018   */\n      dup1\n      dup3\n      gt\n        /* \"#utility.yul\":2001:2035   */\n      iszero\n      tag_503\n      jumpi\n        /* \"#utility.yul\":2031:2032   */\n      0x00\n        /* \"#utility.yul\":2028:2029   */\n      dup1\n        /* \"#utility.yul\":2021:2033   */\n      revert\n        /* \"#utility.yul\":2001:2035   */\n    tag_503:\n        /* \"#utility.yul\":2054:2104   */\n      tag_504\n        /* \"#utility.yul\":2096:2103   */\n      dup7\n        /* \"#utility.yul\":2087:2093   */\n      dup4\n        /* \"#utility.yul\":2076:2085   */\n      dup8\n        /* \"#utility.yul\":2072:2094   */\n      add\n        /* \"#utility.yul\":2054:2104   */\n      tag_480\n      jump\t// in\n    tag_504:\n        /* \"#utility.yul\":2044:2104   */\n      swap4\n      pop\n        /* \"#utility.yul\":2123:2125   */\n      0x20\n        /* \"#utility.yul\":2113:2125   */\n      swap2\n      pop\n        /* \"#utility.yul\":2178:2180   */\n      dup2\n        /* \"#utility.yul\":2167:2176   */\n      dup6\n        /* \"#utility.yul\":2163:2181   */\n      add\n        /* \"#utility.yul\":2150:2182   */\n      calldataload\n        /* \"#utility.yul\":2207:2209   */\n      dup2\n        /* \"#utility.yul\":2197:2205   */\n      dup2\n        /* \"#utility.yul\":2194:2210   */\n      gt\n        /* \"#utility.yul\":2191:2227   */\n      iszero\n      tag_505\n      jumpi\n        /* \"#utility.yul\":2223:2224   */\n      0x00\n        /* \"#utility.yul\":2220:2221   */\n      dup1\n        /* \"#utility.yul\":2213:2225   */\n      revert\n        /* \"#utility.yul\":2191:2227   */\n    tag_505:\n        /* \"#utility.yul\":2246:2270   */\n      dup6\n      add\n        /* \"#utility.yul\":2301:2305   */\n      0x1f\n        /* \"#utility.yul\":2293:2306   */\n      dup2\n      add\n        /* \"#utility.yul\":2289:2316   */\n      dup8\n      sgt\n        /* \"#utility.yul\":2279:2334   */\n      tag_506\n      jumpi\n        /* \"#utility.yul\":2330:2331   */\n      0x00\n        /* \"#utility.yul\":2327:2328   */\n      dup1\n        /* \"#utility.yul\":2320:2332   */\n      revert\n        /* \"#utility.yul\":2279:2334   */\n    tag_506:\n        /* \"#utility.yul\":2366:2368   */\n      dup1\n        /* \"#utility.yul\":2353:2369   */\n      calldataload\n        /* \"#utility.yul\":2388:2390   */\n      dup3\n        /* \"#utility.yul\":2384:2386   */\n      dup2\n        /* \"#utility.yul\":2381:2391   */\n      gt\n        /* \"#utility.yul\":2378:2414   */\n      iszero\n      tag_508\n      jumpi\n        /* \"#utility.yul\":2394:2412   */\n      tag_508\n      tag_485\n      jump\t// in\n    tag_508:\n        /* \"#utility.yul\":2440:2442   */\n      dup1\n        /* \"#utility.yul\":2437:2438   */\n      0x05\n        /* \"#utility.yul\":2433:2443   */\n      shl\n        /* \"#utility.yul\":2463:2491   */\n      tag_509\n        /* \"#utility.yul\":2487:2489   */\n      dup6\n        /* \"#utility.yul\":2483:2485   */\n      dup3\n        /* \"#utility.yul\":2479:2490   */\n      add\n        /* \"#utility.yul\":2463:2491   */\n      tag_487\n      jump\t// in\n    tag_509:\n        /* \"#utility.yul\":2525:2540   */\n      dup3\n      dup2\n      mstore\n        /* \"#utility.yul\":2556:2568   */\n      dup6\n      dup2\n      add\n      swap1\n        /* \"#utility.yul\":2588:2599   */\n      dup5\n      dup8\n      add\n        /* \"#utility.yul\":2618:2629   */\n      dup4\n      dup7\n      add\n        /* \"#utility.yul\":2614:2634   */\n      dup9\n      add\n        /* \"#utility.yul\":2611:2644   */\n      dup13\n      lt\n        /* \"#utility.yul\":2608:2661   */\n      iszero\n      tag_510\n      jumpi\n        /* \"#utility.yul\":2657:2658   */\n      0x00\n        /* \"#utility.yul\":2654:2655   */\n      dup1\n        /* \"#utility.yul\":2647:2659   */\n      revert\n        /* \"#utility.yul\":2608:2661   */\n    tag_510:\n        /* \"#utility.yul\":2679:2680   */\n      0x00\n        /* \"#utility.yul\":2670:2680   */\n      swap4\n      pop\n        /* \"#utility.yul\":2700:2701   */\n      dup4\n        /* \"#utility.yul\":2710:3020   */\n    tag_511:\n        /* \"#utility.yul\":2726:2728   */\n      dup6\n        /* \"#utility.yul\":2721:2724   */\n      dup2\n        /* \"#utility.yul\":2718:2729   */\n      lt\n        /* \"#utility.yul\":2710:3020   */\n      iszero\n      tag_513\n      jumpi\n        /* \"#utility.yul\":2807:2810   */\n      dup2\n        /* \"#utility.yul\":2794:2811   */\n      calldataload\n        /* \"#utility.yul\":2843:2845   */\n      dup9\n        /* \"#utility.yul\":2830:2841   */\n      dup2\n        /* \"#utility.yul\":2827:2846   */\n      gt\n        /* \"#utility.yul\":2824:2863   */\n      iszero\n      tag_514\n      jumpi\n        /* \"#utility.yul\":2859:2860   */\n      dup6\n        /* \"#utility.yul\":2856:2857   */\n      dup7\n        /* \"#utility.yul\":2849:2861   */\n      revert\n        /* \"#utility.yul\":2824:2863   */\n    tag_514:\n        /* \"#utility.yul\":2888:2945   */\n      tag_515\n        /* \"#utility.yul\":2937:2944   */\n      dup15\n        /* \"#utility.yul\":2932:2934   */\n      dup12\n        /* \"#utility.yul\":2918:2929   */\n      dup4\n        /* \"#utility.yul\":2914:2916   */\n      dup12\n        /* \"#utility.yul\":2910:2930   */\n      add\n        /* \"#utility.yul\":2906:2935   */\n      add\n        /* \"#utility.yul\":2888:2945   */\n      tag_480\n      jump\t// in\n    tag_515:\n        /* \"#utility.yul\":2876:2946   */\n      dup6\n      mstore\n      pop\n        /* \"#utility.yul\":2966:2978   */\n      swap3\n      dup9\n      add\n      swap3\n        /* \"#utility.yul\":2998:3010   */\n      swap1\n      dup9\n      add\n      swap1\n        /* \"#utility.yul\":2748:2749   */\n      0x01\n        /* \"#utility.yul\":2739:2750   */\n      add\n        /* \"#utility.yul\":2710:3020   */\n      jump(tag_511)\n    tag_513:\n      pop\n        /* \"#utility.yul\":1715:3050   */\n      swap9\n      swap12\n        /* \"#utility.yul\":3039:3044   */\n      swap1\n      swap11\n      pop\n        /* \"#utility.yul\":1715:3050   */\n      swap9\n      pop\n      pop\n      pop\n      pop\n      pop\n      pop\n      pop\n      pop\n      pop\n      jump\t// out\n        /* \"#utility.yul\":3055:3445   */\n    tag_99:\n        /* \"#utility.yul\":3133:3139   */\n      0x00\n        /* \"#utility.yul\":3141:3147   */\n      dup1\n        /* \"#utility.yul\":3194:3196   */\n      0x40\n        /* \"#utility.yul\":3182:3191   */\n      dup4\n        /* \"#utility.yul\":3173:3180   */\n      dup6\n        /* \"#utility.yul\":3169:3192   */\n      sub\n        /* \"#utility.yul\":3165:3197   */\n      slt\n        /* \"#utility.yul\":3162:3214   */\n      iszero\n      tag_517\n      jumpi\n        /* \"#utility.yul\":3210:3211   */\n      0x00\n        /* \"#utility.yul\":3207:3208   */\n      dup1\n        /* \"#utility.yul\":3200:3212   */\n      revert\n        /* \"#utility.yul\":3162:3214   */\n    tag_517:\n        /* \"#utility.yul\":3237:3260   */\n      dup3\n      calldataload\n      sub(shl(0x40, 0x01), 0x01)\n        /* \"#utility.yul\":3272:3302   */\n      dup2\n      gt\n        /* \"#utility.yul\":3269:3319   */\n      iszero\n      tag_518\n      jumpi\n        /* \"#utility.yul\":3315:3316   */\n      0x00\n        /* \"#utility.yul\":3312:3313   */\n      dup1\n        /* \"#utility.yul\":3305:3317   */\n      revert\n        /* \"#utility.yul\":3269:3319   */\n    tag_518:\n        /* \"#utility.yul\":3338:3388   */\n      tag_519\n        /* \"#utility.yul\":3380:3387   */\n      dup6\n        /* \"#utility.yul\":3371:3377   */\n      dup3\n        /* \"#utility.yul\":3360:3369   */\n      dup7\n        /* \"#utility.yul\":3356:3378   */\n      add\n        /* \"#utility.yul\":3338:3388   */\n      tag_480\n      jump\t// in\n    tag_519:\n        /* \"#utility.yul\":3328:3388   */\n      swap6\n        /* \"#utility.yul\":3435:3437   */\n      0x20\n        /* \"#utility.yul\":3420:3438   */\n      swap5\n      swap1\n      swap5\n      add\n        /* \"#utility.yul\":3407:3439   */\n      calldataload\n      swap5\n      pop\n      pop\n      pop\n      pop\n        /* \"#utility.yul\":3055:3445   */\n      jump\t// out\n        /* \"#utility.yul\":3450:4061   */\n    tag_143:\n        /* \"#utility.yul\":3547:3553   */\n      0x00\n        /* \"#utility.yul\":3555:3561   */\n      dup1\n        /* \"#utility.yul\":3563:3569   */\n      0x00\n        /* \"#utility.yul\":3616:3618   */\n      0x60\n        /* \"#utility.yul\":3604:3613   */\n      dup5\n        /* \"#utility.yul\":3595:3602   */\n      dup7\n        /* \"#utility.yul\":3591:3614   */\n      sub\n        /* \"#utility.yul\":3587:3619   */\n      slt\n        /* \"#utility.yul\":3584:3636   */\n      iszero\n      tag_521\n      jumpi\n        /* \"#utility.yul\":3632:3633   */\n      0x00\n        /* \"#utility.yul\":3629:3630   */\n      dup1\n        /* \"#utility.yul\":3622:3634   */\n      revert\n        /* \"#utility.yul\":3584:3636   */\n    tag_521:\n        /* \"#utility.yul\":3659:3682   */\n      dup4\n      calldataload\n      sub(shl(0x40, 0x01), 0x01)\n        /* \"#utility.yul\":3731:3745   */\n      dup1\n      dup3\n      gt\n        /* \"#utility.yul\":3728:3762   */\n      iszero\n      tag_522\n      jumpi\n        /* \"#utility.yul\":3758:3759   */\n      0x00\n        /* \"#utility.yul\":3755:3756   */\n      dup1\n        /* \"#utility.yul\":3748:3760   */\n      revert\n        /* \"#utility.yul\":3728:3762   */\n    tag_522:\n        /* \"#utility.yul\":3781:3831   */\n      tag_523\n        /* \"#utility.yul\":3823:3830   */\n      dup8\n        /* \"#utility.yul\":3814:3820   */\n      dup4\n        /* \"#utility.yul\":3803:3812   */\n      dup9\n        /* \"#utility.yul\":3799:3821   */\n      add\n        /* \"#utility.yul\":3781:3831   */\n      tag_480\n      jump\t// in\n    tag_523:\n        /* \"#utility.yul\":3771:3831   */\n      swap5\n      pop\n        /* \"#utility.yul\":3884:3886   */\n      0x20\n        /* \"#utility.yul\":3873:3882   */\n      dup7\n        /* \"#utility.yul\":3869:3887   */\n      add\n        /* \"#utility.yul\":3856:3888   */\n      calldataload\n        /* \"#utility.yul\":3840:3888   */\n      swap2\n      pop\n        /* \"#utility.yul\":3913:3915   */\n      dup1\n        /* \"#utility.yul\":3903:3911   */\n      dup3\n        /* \"#utility.yul\":3900:3916   */\n      gt\n        /* \"#utility.yul\":3897:3933   */\n      iszero\n      tag_524\n      jumpi\n        /* \"#utility.yul\":3929:3930   */\n      0x00\n        /* \"#utility.yul\":3926:3927   */\n      dup1\n        /* \"#utility.yul\":3919:3931   */\n      revert\n        /* \"#utility.yul\":3897:3933   */\n    tag_524:\n      pop\n        /* \"#utility.yul\":3952:4004   */\n      tag_496\n        /* \"#utility.yul\":3996:4003   */\n      dup7\n        /* \"#utility.yul\":3985:3993   */\n      dup3\n        /* \"#utility.yul\":3974:3983   */\n      dup8\n        /* \"#utility.yul\":3970:3994   */\n      add\n        /* \"#utility.yul\":3952:4004   */\n      tag_480\n      jump\t// in\n        /* \"#utility.yul\":4066:4677   */\n    tag_95:\n        /* \"#utility.yul\":4163:4169   */\n      0x00\n        /* \"#utility.yul\":4171:4177   */\n      dup1\n        /* \"#utility.yul\":4179:4185   */\n      0x00\n        /* \"#utility.yul\":4232:4234   */\n      0x60\n        /* \"#utility.yul\":4220:4229   */\n      dup5\n        /* \"#utility.yul\":4211:4218   */\n      dup7\n        /* \"#utility.yul\":4207:4230   */\n      sub\n        /* \"#utility.yul\":4203:4235   */\n      slt\n        /* \"#utility.yul\":4200:4252   */\n      iszero\n      tag_527\n      jumpi\n        /* \"#utility.yul\":4248:4249   */\n      0x00\n        /* \"#utility.yul\":4245:4246   */\n      dup1\n        /* \"#utility.yul\":4238:4250   */\n      revert\n        /* \"#utility.yul\":4200:4252   */\n    tag_527:\n        /* \"#utility.yul\":4275:4298   */\n      dup4\n      calldataload\n      sub(shl(0x40, 0x01), 0x01)\n        /* \"#utility.yul\":4347:4361   */\n      dup1\n      dup3\n      gt\n        /* \"#utility.yul\":4344:4378   */\n      iszero\n      tag_528\n      jumpi\n        /* \"#utility.yul\":4374:4375   */\n      0x00\n        /* \"#utility.yul\":4371:4372   */\n      dup1\n        /* \"#utility.yul\":4364:4376   */\n      revert\n        /* \"#utility.yul\":4344:4378   */\n    tag_528:\n        /* \"#utility.yul\":4397:4447   */\n      tag_529\n        /* \"#utility.yul\":4439:4446   */\n      dup8\n        /* \"#utility.yul\":4430:4436   */\n      dup4\n        /* \"#utility.yul\":4419:4428   */\n      dup9\n        /* \"#utility.yul\":4415:4437   */\n      add\n        /* \"#utility.yul\":4397:4447   */\n      tag_480\n      jump\t// in\n    tag_529:\n        /* \"#utility.yul\":4387:4447   */\n      swap5\n      pop\n        /* \"#utility.yul\":4494:4496   */\n      0x20\n        /* \"#utility.yul\":4483:4492   */\n      dup7\n        /* \"#utility.yul\":4479:4497   */\n      add\n        /* \"#utility.yul\":4466:4498   */\n      calldataload\n        /* \"#utility.yul\":4456:4498   */\n      swap4\n      pop\n        /* \"#utility.yul\":4551:4553   */\n      0x40\n        /* \"#utility.yul\":4540:4549   */\n      dup7\n        /* \"#utility.yul\":4536:4554   */\n      add\n        /* \"#utility.yul\":4523:4555   */\n      calldataload\n        /* \"#utility.yul\":4507:4555   */\n      swap2\n      pop\n        /* \"#utility.yul\":4580:4582   */\n      dup1\n        /* \"#utility.yul\":4570:4578   */\n      dup3\n        /* \"#utility.yul\":4567:4583   */\n      gt\n        /* \"#utility.yul\":4564:4600   */\n      iszero\n      tag_530\n      jumpi\n        /* \"#utility.yul\":4596:4597   */\n      0x00\n        /* \"#utility.yul\":4593:4594   */\n      dup1\n        /* \"#utility.yul\":4586:4598   */\n      revert\n        /* \"#utility.yul\":4564:4600   */\n    tag_530:\n      pop\n        /* \"#utility.yul\":4619:4671   */\n      tag_531\n        /* \"#utility.yul\":4663:4670   */\n      dup7\n        /* \"#utility.yul\":4652:4660   */\n      dup3\n        /* \"#utility.yul\":4641:4650   */\n      dup8\n        /* \"#utility.yul\":4637:4661   */\n      add\n        /* \"#utility.yul\":4619:4671   */\n      tag_480\n      jump\t// in\n    tag_531:\n        /* \"#utility.yul\":4609:4671   */\n      swap2\n      pop\n      pop\n        /* \"#utility.yul\":4066:4677   */\n      swap3\n      pop\n      swap3\n      pop\n      swap3\n      jump\t// out\n        /* \"#utility.yul\":4682:4862   */\n    tag_103:\n        /* \"#utility.yul\":4741:4747   */\n      0x00\n        /* \"#utility.yul\":4794:4796   */\n      0x20\n        /* \"#utility.yul\":4782:4791   */\n      dup3\n        /* \"#utility.yul\":4773:4780   */\n      dup5\n        /* \"#utility.yul\":4769:4792   */\n      sub\n        /* \"#utility.yul\":4765:4797   */\n      slt\n        /* \"#utility.yul\":4762:4814   */\n      iszero\n      tag_533\n      jumpi\n        /* \"#utility.yul\":4810:4811   */\n      0x00\n        /* \"#utility.yul\":4807:4808   */\n      dup1\n        /* \"#utility.yul\":4800:4812   */\n      revert\n        /* \"#utility.yul\":4762:4814   */\n    tag_533:\n      pop\n        /* \"#utility.yul\":4833:4856   */\n      calldataload\n      swap2\n        /* \"#utility.yul\":4682:4862   */\n      swap1\n      pop\n      jump\t// out\n        /* \"#utility.yul\":4867:5208   */\n    tag_45:\n        /* \"#utility.yul\":4932:4938   */\n      0x00\n        /* \"#utility.yul\":4940:4946   */\n      dup1\n        /* \"#utility.yul\":4993:4995   */\n      0x40\n        /* \"#utility.yul\":4981:4990   */\n      dup4\n        /* \"#utility.yul\":4972:4979   */\n      dup6\n        /* \"#utility.yul\":4968:4991   */\n      sub\n        /* \"#utility.yul\":4964:4996   */\n      slt\n        /* \"#utility.yul\":4961:5013   */\n      iszero\n      tag_535\n      jumpi\n        /* \"#utility.yul\":5009:5010   */\n      0x00\n        /* \"#utility.yul\":5006:5007   */\n      dup1\n        /* \"#utility.yul\":4999:5011   */\n      revert\n        /* \"#utility.yul\":4961:5013   */\n    tag_535:\n        /* \"#utility.yul\":5045:5054   */\n      dup3\n        /* \"#utility.yul\":5032:5055   */\n      calldataload\n        /* \"#utility.yul\":5022:5055   */\n      swap2\n      pop\n        /* \"#utility.yul\":5105:5107   */\n      0x20\n        /* \"#utility.yul\":5094:5103   */\n      dup4\n        /* \"#utility.yul\":5090:5108   */\n      add\n        /* \"#utility.yul\":5077:5109   */\n      calldataload\n        /* \"#utility.yul\":5152:5157   */\n      dup1\n        /* \"#utility.yul\":5145:5158   */\n      iszero\n        /* \"#utility.yul\":5138:5159   */\n      iszero\n        /* \"#utility.yul\":5131:5136   */\n      dup2\n        /* \"#utility.yul\":5128:5160   */\n      eq\n        /* \"#utility.yul\":5118:5178   */\n      tag_536\n      jumpi\n        /* \"#utility.yul\":5174:5175   */\n      0x00\n        /* \"#utility.yul\":5171:5172   */\n      dup1\n        /* \"#utility.yul\":5164:5176   */\n      revert\n        /* \"#utility.yul\":5118:5178   */\n    tag_536:\n        /* \"#utility.yul\":5197:5202   */\n      dup1\n        /* \"#utility.yul\":5187:5202   */\n      swap2\n      pop\n      pop\n        /* \"#utility.yul\":4867:5208   */\n      swap3\n      pop\n      swap3\n      swap1\n      pop\n      jump\t// out\n        /* \"#utility.yul\":5213:5471   */\n    tag_537:\n        /* \"#utility.yul\":5255:5258   */\n      0x00\n        /* \"#utility.yul\":5293:5298   */\n      dup2\n        /* \"#utility.yul\":5287:5299   */\n      mload\n        /* \"#utility.yul\":5320:5326   */\n      dup1\n        /* \"#utility.yul\":5315:5318   */\n      dup5\n        /* \"#utility.yul\":5308:5327   */\n      mstore\n        /* \"#utility.yul\":5336:5399   */\n      tag_539\n        /* \"#utility.yul\":5392:5398   */\n      dup2\n        /* \"#utility.yul\":5385:5389   */\n      0x20\n        /* \"#utility.yul\":5380:5383   */\n      dup7\n        /* \"#utility.yul\":5376:5390   */\n      add\n        /* \"#utility.yul\":5369:5373   */\n      0x20\n        /* \"#utility.yul\":5362:5367   */\n      dup7\n        /* \"#utility.yul\":5358:5374   */\n      add\n        /* \"#utility.yul\":5336:5399   */\n      tag_540\n      jump\t// in\n    tag_539:\n        /* \"#utility.yul\":5453:5455   */\n      0x1f\n        /* \"#utility.yul\":5432:5447   */\n      add\n      not(0x1f)\n        /* \"#utility.yul\":5428:5457   */\n      and\n        /* \"#utility.yul\":5419:5458   */\n      swap3\n      swap1\n      swap3\n      add\n        /* \"#utility.yul\":5460:5464   */\n      0x20\n        /* \"#utility.yul\":5415:5465   */\n      add\n      swap3\n        /* \"#utility.yul\":5213:5471   */\n      swap2\n      pop\n      pop\n      jump\t// out\n        /* \"#utility.yul\":5476:5752   */\n    tag_162:\n        /* \"#utility.yul\":5607:5610   */\n      0x00\n        /* \"#utility.yul\":5645:5651   */\n      dup3\n        /* \"#utility.yul\":5639:5652   */\n      mload\n        /* \"#utility.yul\":5661:5714   */\n      tag_542\n        /* \"#utility.yul\":5707:5713   */\n      dup2\n        /* \"#utility.yul\":5702:5705   */\n      dup5\n        /* \"#utility.yul\":5695:5699   */\n      0x20\n        /* \"#utility.yul\":5687:5693   */\n      dup8\n        /* \"#utility.yul\":5683:5700   */\n      add\n        /* \"#utility.yul\":5661:5714   */\n      tag_540\n      jump\t// in\n    tag_542:\n        /* \"#utility.yul\":5730:5746   */\n      swap2\n      swap1\n      swap2\n      add\n      swap3\n        /* \"#utility.yul\":5476:5752   */\n      swap2\n      pop\n      pop\n      jump\t// out\n        /* \"#utility.yul\":5757:6856   */\n    tag_175:\n        /* \"#utility.yul\":5885:5888   */\n      0x00\n        /* \"#utility.yul\":5914:5915   */\n      dup1\n        /* \"#utility.yul\":5947:5953   */\n      dup4\n        /* \"#utility.yul\":5941:5954   */\n      sload\n        /* \"#utility.yul\":5977:5980   */\n      dup2\n        /* \"#utility.yul\":5999:6000   */\n      0x01\n        /* \"#utility.yul\":6027:6036   */\n      dup3\n        /* \"#utility.yul\":6023:6025   */\n      dup2\n        /* \"#utility.yul\":6019:6037   */\n      shr\n        /* \"#utility.yul\":6009:6037   */\n      swap2\n      pop\n        /* \"#utility.yul\":6087:6089   */\n      dup1\n        /* \"#utility.yul\":6076:6085   */\n      dup4\n        /* \"#utility.yul\":6072:6090   */\n      and\n        /* \"#utility.yul\":6109:6127   */\n      dup1\n        /* \"#utility.yul\":6099:6160   */\n      tag_544\n      jumpi\n        /* \"#utility.yul\":6153:6157   */\n      0x7f\n        /* \"#utility.yul\":6145:6151   */\n      dup4\n        /* \"#utility.yul\":6141:6158   */\n      and\n        /* \"#utility.yul\":6131:6158   */\n      swap3\n      pop\n        /* \"#utility.yul\":6099:6160   */\n    tag_544:\n        /* \"#utility.yul\":6179:6181   */\n      0x20\n        /* \"#utility.yul\":6227:6229   */\n      dup1\n        /* \"#utility.yul\":6219:6225   */\n      dup5\n        /* \"#utility.yul\":6216:6230   */\n      lt\n        /* \"#utility.yul\":6196:6214   */\n      dup3\n        /* \"#utility.yul\":6193:6231   */\n      eq\n        /* \"#utility.yul\":6190:6355   */\n      iszero\n      tag_545\n      jumpi\n      shl(0xe0, 0x4e487b71)\n        /* \"#utility.yul\":6254:6287   */\n      dup7\n      mstore\n        /* \"#utility.yul\":6310:6314   */\n      0x22\n        /* \"#utility.yul\":6307:6308   */\n      0x04\n        /* \"#utility.yul\":6300:6315   */\n      mstore\n        /* \"#utility.yul\":6340:6344   */\n      0x24\n        /* \"#utility.yul\":6261:6264   */\n      dup7\n        /* \"#utility.yul\":6328:6345   */\n      revert\n        /* \"#utility.yul\":6190:6355   */\n    tag_545:\n        /* \"#utility.yul\":6371:6389   */\n      dup2\n        /* \"#utility.yul\":6398:6502   */\n      dup1\n      iszero\n      tag_547\n      jumpi\n        /* \"#utility.yul\":6516:6517   */\n      0x01\n        /* \"#utility.yul\":6511:6831   */\n      dup2\n      eq\n      tag_548\n      jumpi\n        /* \"#utility.yul\":6364:6831   */\n      jump(tag_546)\n        /* \"#utility.yul\":6398:6502   */\n    tag_547:\n      not(0xff)\n        /* \"#utility.yul\":6431:6455   */\n      dup7\n      and\n        /* \"#utility.yul\":6419:6456   */\n      dup10\n      mstore\n        /* \"#utility.yul\":6476:6492   */\n      dup5\n      dup10\n      add\n      swap7\n      pop\n        /* \"#utility.yul\":6398:6502   */\n      jump(tag_546)\n        /* \"#utility.yul\":6511:6831   */\n    tag_548:\n        /* \"#utility.yul\":13284:13285   */\n      0x00\n        /* \"#utility.yul\":13277:13291   */\n      dup11\n      dup2\n      mstore\n        /* \"#utility.yul\":13321:13325   */\n      0x20\n        /* \"#utility.yul\":13308:13326   */\n      swap1\n      keccak256\n        /* \"#utility.yul\":6606:6607   */\n      0x00\n        /* \"#utility.yul\":6620:6785   */\n    tag_551:\n        /* \"#utility.yul\":6634:6640   */\n      dup7\n        /* \"#utility.yul\":6631:6632   */\n      dup2\n        /* \"#utility.yul\":6628:6641   */\n      lt\n        /* \"#utility.yul\":6620:6785   */\n      iszero\n      tag_553\n      jumpi\n        /* \"#utility.yul\":6712:6726   */\n      dup2\n      sload\n        /* \"#utility.yul\":6699:6710   */\n      dup12\n      dup3\n      add\n        /* \"#utility.yul\":6692:6727   */\n      mstore\n        /* \"#utility.yul\":6755:6771   */\n      swap1\n      dup6\n      add\n      swap1\n        /* \"#utility.yul\":6649:6659   */\n      dup4\n      add\n        /* \"#utility.yul\":6620:6785   */\n      jump(tag_551)\n    tag_553:\n        /* \"#utility.yul\":6624:6627   */\n      pop\n      pop\n        /* \"#utility.yul\":6814:6820   */\n      dup5\n        /* \"#utility.yul\":6809:6812   */\n      dup10\n        /* \"#utility.yul\":6805:6821   */\n      add\n        /* \"#utility.yul\":6798:6821   */\n      swap7\n      pop\n        /* \"#utility.yul\":6364:6831   */\n    tag_546:\n      pop\n        /* \"#utility.yul\":6847:6850   */\n      swap5\n      swap9\n        /* \"#utility.yul\":5757:6856   */\n      swap8\n      pop\n      pop\n      pop\n      pop\n      pop\n      pop\n      pop\n      pop\n      jump\t// out\n        /* \"#utility.yul\":7069:7467   */\n    tag_106:\n      sub(shl(0xa0, 0x01), 0x01)\n        /* \"#utility.yul\":7268:7300   */\n      dup5\n      and\n        /* \"#utility.yul\":7250:7301   */\n      dup2\n      mstore\n        /* \"#utility.yul\":7337:7339   */\n      0x60\n        /* \"#utility.yul\":7332:7334   */\n      0x20\n        /* \"#utility.yul\":7317:7335   */\n      dup3\n      add\n        /* \"#utility.yul\":7310:7340   */\n      dup2\n      swap1\n      mstore\n      0x00\n      swap1\n        /* \"#utility.yul\":7357:7402   */\n      tag_556\n      swap1\n        /* \"#utility.yul\":7383:7401   */\n      dup4\n      add\n        /* \"#utility.yul\":7375:7381   */\n      dup6\n        /* \"#utility.yul\":7357:7402   */\n      tag_537\n      jump\t// in\n    tag_556:\n        /* \"#utility.yul\":7349:7402   */\n      swap1\n      pop\n        /* \"#utility.yul\":7452:7458   */\n      dup3\n        /* \"#utility.yul\":7445:7459   */\n      iszero\n        /* \"#utility.yul\":7438:7460   */\n      iszero\n        /* \"#utility.yul\":7433:7435   */\n      0x40\n        /* \"#utility.yul\":7422:7431   */\n      dup4\n        /* \"#utility.yul\":7418:7436   */\n      add\n        /* \"#utility.yul\":7411:7461   */\n      mstore\n        /* \"#utility.yul\":7069:7467   */\n      swap5\n      swap4\n      pop\n      pop\n      pop\n      pop\n      jump\t// out\n        /* \"#utility.yul\":7472:7933   */\n    tag_152:\n      sub(shl(0xa0, 0x01), 0x01)\n        /* \"#utility.yul\":7705:7737   */\n      dup6\n      and\n        /* \"#utility.yul\":7687:7738   */\n      dup2\n      mstore\n        /* \"#utility.yul\":7774:7777   */\n      0x80\n        /* \"#utility.yul\":7769:7771   */\n      0x20\n        /* \"#utility.yul\":7754:7772   */\n      dup3\n      add\n        /* \"#utility.yul\":7747:7778   */\n      dup2\n      swap1\n      mstore\n      0x00\n      swap1\n        /* \"#utility.yul\":7795:7841   */\n      tag_558\n      swap1\n        /* \"#utility.yul\":7821:7840   */\n      dup4\n      add\n        /* \"#utility.yul\":7813:7819   */\n      dup7\n        /* \"#utility.yul\":7795:7841   */\n      tag_537\n      jump\t// in\n    tag_558:\n        /* \"#utility.yul\":7872:7874   */\n      0x40\n        /* \"#utility.yul\":7857:7875   */\n      dup4\n      add\n        /* \"#utility.yul\":7850:7884   */\n      swap5\n      swap1\n      swap5\n      mstore\n      pop\n        /* \"#utility.yul\":7915:7917   */\n      0x60\n        /* \"#utility.yul\":7900:7918   */\n      add\n        /* \"#utility.yul\":7893:7927   */\n      mstore\n        /* \"#utility.yul\":7787:7841   */\n      swap3\n        /* \"#utility.yul\":7472:7933   */\n      swap2\n      pop\n      pop\n      jump\t// out\n        /* \"#utility.yul\":7938:8741   */\n    tag_72:\n        /* \"#utility.yul\":8100:8104   */\n      0x00\n        /* \"#utility.yul\":8129:8131   */\n      0x20\n        /* \"#utility.yul\":8169:8171   */\n      dup1\n        /* \"#utility.yul\":8158:8167   */\n      dup4\n        /* \"#utility.yul\":8154:8172   */\n      add\n        /* \"#utility.yul\":8199:8201   */\n      dup2\n        /* \"#utility.yul\":8188:8197   */\n      dup5\n        /* \"#utility.yul\":8181:8202   */\n      mstore\n        /* \"#utility.yul\":8222:8228   */\n      dup1\n        /* \"#utility.yul\":8257:8263   */\n      dup6\n        /* \"#utility.yul\":8251:8264   */\n      mload\n        /* \"#utility.yul\":8288:8294   */\n      dup1\n        /* \"#utility.yul\":8280:8286   */\n      dup4\n        /* \"#utility.yul\":8273:8295   */\n      mstore\n        /* \"#utility.yul\":8326:8328   */\n      0x40\n        /* \"#utility.yul\":8315:8324   */\n      dup7\n        /* \"#utility.yul\":8311:8329   */\n      add\n        /* \"#utility.yul\":8304:8329   */\n      swap2\n      pop\n        /* \"#utility.yul\":8388:8390   */\n      0x40\n        /* \"#utility.yul\":8378:8384   */\n      dup2\n        /* \"#utility.yul\":8375:8376   */\n      0x05\n        /* \"#utility.yul\":8371:8385   */\n      shl\n        /* \"#utility.yul\":8360:8369   */\n      dup8\n        /* \"#utility.yul\":8356:8386   */\n      add\n        /* \"#utility.yul\":8352:8391   */\n      add\n        /* \"#utility.yul\":8338:8391   */\n      swap3\n      pop\n        /* \"#utility.yul\":8426:8428   */\n      dup4\n        /* \"#utility.yul\":8418:8424   */\n      dup8\n        /* \"#utility.yul\":8414:8429   */\n      add\n        /* \"#utility.yul\":8447:8448   */\n      0x00\n        /* \"#utility.yul\":8457:8712   */\n    tag_560:\n        /* \"#utility.yul\":8471:8477   */\n      dup3\n        /* \"#utility.yul\":8468:8469   */\n      dup2\n        /* \"#utility.yul\":8465:8478   */\n      lt\n        /* \"#utility.yul\":8457:8712   */\n      iszero\n      tag_562\n      jumpi\n        /* \"#utility.yul\":8564:8566   */\n      0x3f\n        /* \"#utility.yul\":8560:8567   */\n      not\n        /* \"#utility.yul\":8548:8557   */\n      dup9\n        /* \"#utility.yul\":8540:8546   */\n      dup7\n        /* \"#utility.yul\":8536:8558   */\n      sub\n        /* \"#utility.yul\":8532:8568   */\n      add\n        /* \"#utility.yul\":8527:8530   */\n      dup5\n        /* \"#utility.yul\":8520:8569   */\n      mstore\n        /* \"#utility.yul\":8592:8632   */\n      tag_563\n        /* \"#utility.yul\":8625:8631   */\n      dup6\n        /* \"#utility.yul\":8616:8622   */\n      dup4\n        /* \"#utility.yul\":8610:8623   */\n      mload\n        /* \"#utility.yul\":8592:8632   */\n      tag_537\n      jump\t// in\n    tag_563:\n        /* \"#utility.yul\":8582:8632   */\n      swap5\n      pop\n        /* \"#utility.yul\":8690:8702   */\n      swap3\n      dup6\n      add\n      swap3\n        /* \"#utility.yul\":8655:8670   */\n      swap1\n      dup6\n      add\n      swap1\n        /* \"#utility.yul\":8493:8494   */\n      0x01\n        /* \"#utility.yul\":8486:8495   */\n      add\n        /* \"#utility.yul\":8457:8712   */\n      jump(tag_560)\n    tag_562:\n      pop\n        /* \"#utility.yul\":8729:8735   */\n      swap3\n      swap8\n        /* \"#utility.yul\":7938:8741   */\n      swap7\n      pop\n      pop\n      pop\n      pop\n      pop\n      pop\n      pop\n      jump\t// out\n        /* \"#utility.yul\":9120:9637   */\n    tag_122:\n        /* \"#utility.yul\":9375:9378   */\n      0xa0\n        /* \"#utility.yul\":9364:9373   */\n      dup2\n        /* \"#utility.yul\":9357:9379   */\n      mstore\n        /* \"#utility.yul\":9338:9342   */\n      0x00\n        /* \"#utility.yul\":9396:9442   */\n      tag_567\n        /* \"#utility.yul\":9437:9440   */\n      0xa0\n        /* \"#utility.yul\":9426:9435   */\n      dup4\n        /* \"#utility.yul\":9422:9441   */\n      add\n        /* \"#utility.yul\":9414:9420   */\n      dup9\n        /* \"#utility.yul\":9396:9442   */\n      tag_537\n      jump\t// in\n    tag_567:\n        /* \"#utility.yul\":9388:9442   */\n      swap1\n      pop\n        /* \"#utility.yul\":9478:9484   */\n      dup6\n        /* \"#utility.yul\":9473:9475   */\n      0x20\n        /* \"#utility.yul\":9462:9471   */\n      dup4\n        /* \"#utility.yul\":9458:9476   */\n      add\n        /* \"#utility.yul\":9451:9485   */\n      mstore\n        /* \"#utility.yul\":9521:9527   */\n      dup5\n        /* \"#utility.yul\":9516:9518   */\n      0x40\n        /* \"#utility.yul\":9505:9514   */\n      dup4\n        /* \"#utility.yul\":9501:9519   */\n      add\n        /* \"#utility.yul\":9494:9528   */\n      mstore\n        /* \"#utility.yul\":9564:9570   */\n      dup4\n        /* \"#utility.yul\":9559:9561   */\n      0x60\n        /* \"#utility.yul\":9548:9557   */\n      dup4\n        /* \"#utility.yul\":9544:9562   */\n      add\n        /* \"#utility.yul\":9537:9571   */\n      mstore\n        /* \"#utility.yul\":9622:9628   */\n      dup3\n        /* \"#utility.yul\":9615:9629   */\n      iszero\n        /* \"#utility.yul\":9608:9630   */\n      iszero\n        /* \"#utility.yul\":9602:9605   */\n      0x80\n        /* \"#utility.yul\":9591:9600   */\n      dup4\n        /* \"#utility.yul\":9587:9606   */\n      add\n        /* \"#utility.yul\":9580:9631   */\n      mstore\n        /* \"#utility.yul\":9120:9637   */\n      swap7\n      swap6\n      pop\n      pop\n      pop\n      pop\n      pop\n      pop\n      jump\t// out\n        /* \"#utility.yul\":9642:10579   */\n    tag_117:\n        /* \"#utility.yul\":9984:9988   */\n      0x00\n        /* \"#utility.yul\":10013:10016   */\n      0x0100\n        /* \"#utility.yul\":10043:10045   */\n      dup1\n        /* \"#utility.yul\":10032:10041   */\n      dup4\n        /* \"#utility.yul\":10025:10046   */\n      mstore\n        /* \"#utility.yul\":10069:10114   */\n      tag_569\n        /* \"#utility.yul\":10110:10112   */\n      dup2\n        /* \"#utility.yul\":10099:10108   */\n      dup5\n        /* \"#utility.yul\":10095:10113   */\n      add\n        /* \"#utility.yul\":10087:10093   */\n      dup13\n        /* \"#utility.yul\":10069:10114   */\n      tag_537\n      jump\t// in\n    tag_569:\n        /* \"#utility.yul\":10055:10114   */\n      swap1\n      pop\n        /* \"#utility.yul\":10150:10156   */\n      dup10\n        /* \"#utility.yul\":10145:10147   */\n      0x20\n        /* \"#utility.yul\":10134:10143   */\n      dup5\n        /* \"#utility.yul\":10130:10148   */\n      add\n        /* \"#utility.yul\":10123:10157   */\n      mstore\n        /* \"#utility.yul\":10193:10199   */\n      dup9\n        /* \"#utility.yul\":10188:10190   */\n      0x40\n        /* \"#utility.yul\":10177:10186   */\n      dup5\n        /* \"#utility.yul\":10173:10191   */\n      add\n        /* \"#utility.yul\":10166:10200   */\n      mstore\n        /* \"#utility.yul\":10236:10242   */\n      dup8\n        /* \"#utility.yul\":10231:10233   */\n      0x60\n        /* \"#utility.yul\":10220:10229   */\n      dup5\n        /* \"#utility.yul\":10216:10234   */\n      add\n        /* \"#utility.yul\":10209:10243   */\n      mstore\n        /* \"#utility.yul\":10294:10300   */\n      dup7\n        /* \"#utility.yul\":10287:10301   */\n      iszero\n        /* \"#utility.yul\":10280:10302   */\n      iszero\n        /* \"#utility.yul\":10274:10277   */\n      0x80\n        /* \"#utility.yul\":10263:10272   */\n      dup5\n        /* \"#utility.yul\":10259:10278   */\n      add\n        /* \"#utility.yul\":10252:10303   */\n      mstore\n        /* \"#utility.yul\":10352:10361   */\n      dup3\n        /* \"#utility.yul\":10344:10350   */\n      dup2\n        /* \"#utility.yul\":10340:10362   */\n      sub\n        /* \"#utility.yul\":10334:10337   */\n      0xa0\n        /* \"#utility.yul\":10323:10332   */\n      dup5\n        /* \"#utility.yul\":10319:10338   */\n      add\n        /* \"#utility.yul\":10312:10363   */\n      mstore\n        /* \"#utility.yul\":10386:10419   */\n      tag_570\n        /* \"#utility.yul\":10412:10418   */\n      dup2\n        /* \"#utility.yul\":10404:10410   */\n      dup8\n        /* \"#utility.yul\":10386:10419   */\n      tag_537\n      jump\t// in\n    tag_570:\n        /* \"#utility.yul\":10372:10419   */\n      swap1\n      pop\n        /* \"#utility.yul\":10468:10477   */\n      dup3\n        /* \"#utility.yul\":10460:10466   */\n      dup2\n        /* \"#utility.yul\":10456:10478   */\n      sub\n        /* \"#utility.yul\":10450:10453   */\n      0xc0\n        /* \"#utility.yul\":10439:10448   */\n      dup5\n        /* \"#utility.yul\":10435:10454   */\n      add\n        /* \"#utility.yul\":10428:10479   */\n      mstore\n        /* \"#utility.yul\":10496:10529   */\n      tag_571\n        /* \"#utility.yul\":10522:10528   */\n      dup2\n        /* \"#utility.yul\":10514:10520   */\n      dup7\n        /* \"#utility.yul\":10496:10529   */\n      tag_537\n      jump\t// in\n    tag_571:\n        /* \"#utility.yul\":10488:10529   */\n      swap2\n      pop\n      pop\n        /* \"#utility.yul\":10566:10572   */\n      dup3\n        /* \"#utility.yul\":10560:10563   */\n      0xe0\n        /* \"#utility.yul\":10549:10558   */\n      dup4\n        /* \"#utility.yul\":10545:10564   */\n      add\n        /* \"#utility.yul\":10538:10573   */\n      mstore\n        /* \"#utility.yul\":9642:10579   */\n      swap10\n      swap9\n      pop\n      pop\n      pop\n      pop\n      pop\n      pop\n      pop\n      pop\n      pop\n      jump\t// out\n        /* \"#utility.yul\":10938:11285   */\n    tag_297:\n        /* \"#utility.yul\":11140:11142   */\n      0x20\n        /* \"#utility.yul\":11122:11143   */\n      dup1\n      dup3\n      mstore\n        /* \"#utility.yul\":11179:11181   */\n      0x17\n        /* \"#utility.yul\":11159:11177   */\n      swap1\n      dup3\n      add\n        /* \"#utility.yul\":11152:11182   */\n      mstore\n      shl(0x4a, 0x115c9c9bdc8e88125b9d985b1a59081c185cdcdddbdc99)\n        /* \"#utility.yul\":11213:11215   */\n      0x40\n        /* \"#utility.yul\":11198:11216   */\n      dup3\n      add\n        /* \"#utility.yul\":11191:11244   */\n      mstore\n        /* \"#utility.yul\":11276:11278   */\n      0x60\n        /* \"#utility.yul\":11261:11279   */\n      add\n      swap1\n        /* \"#utility.yul\":10938:11285   */\n      jump\t// out\n        /* \"#utility.yul\":11290:11639   */\n    tag_293:\n        /* \"#utility.yul\":11492:11494   */\n      0x20\n        /* \"#utility.yul\":11474:11495   */\n      dup1\n      dup3\n      mstore\n        /* \"#utility.yul\":11531:11533   */\n      0x19\n        /* \"#utility.yul\":11511:11529   */\n      swap1\n      dup3\n      add\n        /* \"#utility.yul\":11504:11534   */\n      mstore\n      shl(0x3a, 0x115c9c9bdc8e88155cd95c88191bd95cdb89dd08195e1a5cdd)\n        /* \"#utility.yul\":11565:11567   */\n      0x40\n        /* \"#utility.yul\":11550:11568   */\n      dup3\n      add\n        /* \"#utility.yul\":11543:11598   */\n      mstore\n        /* \"#utility.yul\":11630:11632   */\n      0x60\n        /* \"#utility.yul\":11615:11633   */\n      add\n      swap1\n        /* \"#utility.yul\":11290:11639   */\n      jump\t// out\n        /* \"#utility.yul\":11989:12342   */\n    tag_289:\n        /* \"#utility.yul\":12191:12193   */\n      0x20\n        /* \"#utility.yul\":12173:12194   */\n      dup1\n      dup3\n      mstore\n        /* \"#utility.yul\":12230:12232   */\n      0x1d\n        /* \"#utility.yul\":12210:12228   */\n      swap1\n      dup3\n      add\n        /* \"#utility.yul\":12203:12233   */\n      mstore\n        /* \"#utility.yul\":12269:12300   */\n      0x4572726f723a20596f752061726520616c7265616479206c6f67676564000000\n        /* \"#utility.yul\":12264:12266   */\n      0x40\n        /* \"#utility.yul\":12249:12267   */\n      dup3\n      add\n        /* \"#utility.yul\":12242:12301   */\n      mstore\n        /* \"#utility.yul\":12333:12335   */\n      0x60\n        /* \"#utility.yul\":12318:12336   */\n      add\n      swap1\n        /* \"#utility.yul\":11989:12342   */\n      jump\t// out\n        /* \"#utility.yul\":12931:13206   */\n    tag_487:\n        /* \"#utility.yul\":13002:13004   */\n      0x40\n        /* \"#utility.yul\":12996:13005   */\n      mload\n        /* \"#utility.yul\":13067:13069   */\n      0x1f\n        /* \"#utility.yul\":13048:13061   */\n      dup3\n      add\n      not(0x1f)\n        /* \"#utility.yul\":13044:13071   */\n      and\n        /* \"#utility.yul\":13032:13072   */\n      dup2\n      add\n      sub(shl(0x40, 0x01), 0x01)\n        /* \"#utility.yul\":13087:13121   */\n      dup2\n      gt\n        /* \"#utility.yul\":13123:13145   */\n      dup3\n      dup3\n      lt\n        /* \"#utility.yul\":13084:13146   */\n      or\n        /* \"#utility.yul\":13081:13169   */\n      iszero\n      tag_581\n      jumpi\n        /* \"#utility.yul\":13149:13167   */\n      tag_581\n      tag_485\n      jump\t// in\n    tag_581:\n        /* \"#utility.yul\":13185:13187   */\n      0x40\n        /* \"#utility.yul\":13178:13200   */\n      mstore\n        /* \"#utility.yul\":12931:13206   */\n      swap2\n      swap1\n      pop\n      jump\t// out\n        /* \"#utility.yul\":13337:13465   */\n    tag_189:\n        /* \"#utility.yul\":13377:13380   */\n      0x00\n        /* \"#utility.yul\":13408:13409   */\n      dup3\n        /* \"#utility.yul\":13404:13410   */\n      not\n        /* \"#utility.yul\":13401:13402   */\n      dup3\n        /* \"#utility.yul\":13398:13411   */\n      gt\n        /* \"#utility.yul\":13395:13434   */\n      iszero\n      tag_585\n      jumpi\n        /* \"#utility.yul\":13414:13432   */\n      tag_585\n      tag_586\n      jump\t// in\n    tag_585:\n      pop\n        /* \"#utility.yul\":13450:13459   */\n      add\n      swap1\n        /* \"#utility.yul\":13337:13465   */\n      jump\t// out\n        /* \"#utility.yul\":13470:13687   */\n    tag_359:\n        /* \"#utility.yul\":13510:13511   */\n      0x00\n        /* \"#utility.yul\":13536:13537   */\n      dup3\n        /* \"#utility.yul\":13526:13658   */\n      tag_588\n      jumpi\n        /* \"#utility.yul\":13580:13590   */\n      0x4e487b71\n        /* \"#utility.yul\":13575:13578   */\n      0xe0\n        /* \"#utility.yul\":13571:13591   */\n      shl\n        /* \"#utility.yul\":13568:13569   */\n      0x00\n        /* \"#utility.yul\":13561:13592   */\n      mstore\n        /* \"#utility.yul\":13615:13619   */\n      0x12\n        /* \"#utility.yul\":13612:13613   */\n      0x04\n        /* \"#utility.yul\":13605:13620   */\n      mstore\n        /* \"#utility.yul\":13643:13647   */\n      0x24\n        /* \"#utility.yul\":13640:13641   */\n      0x00\n        /* \"#utility.yul\":13633:13648   */\n      revert\n        /* \"#utility.yul\":13526:13658   */\n    tag_588:\n      pop\n        /* \"#utility.yul\":13672:13681   */\n      div\n      swap1\n        /* \"#utility.yul\":13470:13687   */\n      jump\t// out\n        /* \"#utility.yul\":13692:13817   */\n    tag_180:\n        /* \"#utility.yul\":13732:13736   */\n      0x00\n        /* \"#utility.yul\":13760:13761   */\n      dup3\n        /* \"#utility.yul\":13757:13758   */\n      dup3\n        /* \"#utility.yul\":13754:13762   */\n      lt\n        /* \"#utility.yul\":13751:13785   */\n      iszero\n      tag_591\n      jumpi\n        /* \"#utility.yul\":13765:13783   */\n      tag_591\n      tag_586\n      jump\t// in\n    tag_591:\n      pop\n        /* \"#utility.yul\":13802:13811   */\n      sub\n      swap1\n        /* \"#utility.yul\":13692:13817   */\n      jump\t// out\n        /* \"#utility.yul\":13822:14080   */\n    tag_540:\n        /* \"#utility.yul\":13894:13895   */\n      0x00\n        /* \"#utility.yul\":13904:14017   */\n    tag_593:\n        /* \"#utility.yul\":13918:13924   */\n      dup4\n        /* \"#utility.yul\":13915:13916   */\n      dup2\n        /* \"#utility.yul\":13912:13925   */\n      lt\n        /* \"#utility.yul\":13904:14017   */\n      iszero\n      tag_595\n      jumpi\n        /* \"#utility.yul\":13994:14005   */\n      dup2\n      dup2\n      add\n        /* \"#utility.yul\":13988:14006   */\n      mload\n        /* \"#utility.yul\":13975:13986   */\n      dup4\n      dup3\n      add\n        /* \"#utility.yul\":13968:14007   */\n      mstore\n        /* \"#utility.yul\":13940:13942   */\n      0x20\n        /* \"#utility.yul\":13933:13943   */\n      add\n        /* \"#utility.yul\":13904:14017   */\n      jump(tag_593)\n    tag_595:\n        /* \"#utility.yul\":14035:14041   */\n      dup4\n        /* \"#utility.yul\":14032:14033   */\n      dup2\n        /* \"#utility.yul\":14029:14042   */\n      gt\n        /* \"#utility.yul\":14026:14074   */\n      iszero\n      tag_385\n      jumpi\n      pop\n      pop\n        /* \"#utility.yul\":14070:14071   */\n      0x00\n        /* \"#utility.yul\":14052:14068   */\n      swap2\n      add\n        /* \"#utility.yul\":14045:14072   */\n      mstore\n        /* \"#utility.yul\":13822:14080   */\n      jump\t// out\n        /* \"#utility.yul\":14085:14465   */\n    tag_218:\n        /* \"#utility.yul\":14164:14165   */\n      0x01\n        /* \"#utility.yul\":14160:14172   */\n      dup2\n      dup2\n      shr\n      swap1\n        /* \"#utility.yul\":14207:14219   */\n      dup3\n      and\n      dup1\n        /* \"#utility.yul\":14228:14289   */\n      tag_598\n      jumpi\n        /* \"#utility.yul\":14282:14286   */\n      0x7f\n        /* \"#utility.yul\":14274:14280   */\n      dup3\n        /* \"#utility.yul\":14270:14287   */\n      and\n        /* \"#utility.yul\":14260:14287   */\n      swap2\n      pop\n        /* \"#utility.yul\":14228:14289   */\n    tag_598:\n        /* \"#utility.yul\":14335:14337   */\n      0x20\n        /* \"#utility.yul\":14327:14333   */\n      dup3\n        /* \"#utility.yul\":14324:14338   */\n      lt\n        /* \"#utility.yul\":14304:14322   */\n      dup2\n        /* \"#utility.yul\":14301:14339   */\n      eq\n        /* \"#utility.yul\":14298:14459   */\n      iszero\n      tag_599\n      jumpi\n        /* \"#utility.yul\":14381:14391   */\n      0x4e487b71\n        /* \"#utility.yul\":14376:14379   */\n      0xe0\n        /* \"#utility.yul\":14372:14392   */\n      shl\n        /* \"#utility.yul\":14369:14370   */\n      0x00\n        /* \"#utility.yul\":14362:14393   */\n      mstore\n        /* \"#utility.yul\":14416:14420   */\n      0x22\n        /* \"#utility.yul\":14413:14414   */\n      0x04\n        /* \"#utility.yul\":14406:14421   */\n      mstore\n        /* \"#utility.yul\":14444:14448   */\n      0x24\n        /* \"#utility.yul\":14441:14442   */\n      0x00\n        /* \"#utility.yul\":14434:14449   */\n      revert\n        /* \"#utility.yul\":14298:14459   */\n    tag_599:\n      pop\n        /* \"#utility.yul\":14085:14465   */\n      swap2\n      swap1\n      pop\n      jump\t// out\n        /* \"#utility.yul\":14470:14605   */\n    tag_232:\n        /* \"#utility.yul\":14509:14512   */\n      0x00\n      not(0x00)\n        /* \"#utility.yul\":14530:14547   */\n      dup3\n      eq\n        /* \"#utility.yul\":14527:14570   */\n      iszero\n      tag_602\n      jumpi\n        /* \"#utility.yul\":14550:14568   */\n      tag_602\n      tag_586\n      jump\t// in\n    tag_602:\n      pop\n        /* \"#utility.yul\":14597:14598   */\n      0x01\n        /* \"#utility.yul\":14586:14599   */\n      add\n      swap1\n        /* \"#utility.yul\":14470:14605   */\n      jump\t// out\n        /* \"#utility.yul\":14610:14737   */\n    tag_586:\n        /* \"#utility.yul\":14671:14681   */\n      0x4e487b71\n        /* \"#utility.yul\":14666:14669   */\n      0xe0\n        /* \"#utility.yul\":14662:14682   */\n      shl\n        /* \"#utility.yul\":14659:14660   */\n      0x00\n        /* \"#utility.yul\":14652:14683   */\n      mstore\n        /* \"#utility.yul\":14702:14706   */\n      0x11\n        /* \"#utility.yul\":14699:14700   */\n      0x04\n        /* \"#utility.yul\":14692:14707   */\n      mstore\n        /* \"#utility.yul\":14726:14730   */\n      0x24\n        /* \"#utility.yul\":14723:14724   */\n      0x00\n        /* \"#utility.yul\":14716:14731   */\n      revert\n        /* \"#utility.yul\":14742:14869   */\n    tag_169:\n        /* \"#utility.yul\":14803:14813   */\n      0x4e487b71\n        /* \"#utility.yul\":14798:14801   */\n      0xe0\n        /* \"#utility.yul\":14794:14814   */\n      shl\n        /* \"#utility.yul\":14791:14792   */\n      0x00\n        /* \"#utility.yul\":14784:14815   */\n      mstore\n        /* \"#utility.yul\":14834:14838   */\n      0x32\n        /* \"#utility.yul\":14831:14832   */\n      0x04\n        /* \"#utility.yul\":14824:14839   */\n      mstore\n        /* \"#utility.yul\":14858:14862   */\n      0x24\n        /* \"#utility.yul\":14855:14856   */\n      0x00\n        /* \"#utility.yul\":14848:14863   */\n      revert\n        /* \"#utility.yul\":14874:15001   */\n    tag_485:\n        /* \"#utility.yul\":14935:14945   */\n      0x4e487b71\n        /* \"#utility.yul\":14930:14933   */\n      0xe0\n        /* \"#utility.yul\":14926:14946   */\n      shl\n        /* \"#utility.yul\":14923:14924   */\n      0x00\n        /* \"#utility.yul\":14916:14947   */\n      mstore\n        /* \"#utility.yul\":14966:14970   */\n      0x41\n        /* \"#utility.yul\":14963:14964   */\n      0x04\n        /* \"#utility.yul\":14956:14971   */\n      mstore\n        /* \"#utility.yul\":14990:14994   */\n      0x24\n        /* \"#utility.yul\":14987:14988   */\n      0x00\n        /* \"#utility.yul\":14980:14995   */\n      revert\n\n    auxdata: 0xa2646970667358221220d8e1491bfb02e2fd1cbc51c483b1337ce559ec179e22d9135b748738be5d8cca64736f6c63430008070033\n}\n",
				"bytecode": {
					"linkReferences": {},
					"object": "60806040526000600d553480156200001657600080fd5b507322140e5eee5a0341a107bd6a65ee0f5bb72deb9060016040516200004690632132b2b960e11b815260040190565b908152604080516020928190038301812080546001600160a01b0319166001600160a01b0395909516949094179093556101408301815260046101008401908152632132b2b960e11b6101208501528352805180820190915260018152603160f81b8183015290820190620000bb9062000653565b81526103e860208083019190915260036040808401919091526000606084018190528151808301835260018152603160f81b818501526080850152815180830190925260068252654d6f73636f7760d01b8284015260a084019190915260c09092018290527322140e5eee5a0341a107bd6a65ee0f5bb72deb9082529081528151805160008051602062003011833981519152926200015f92849291019062000685565b5060208281015160018301556040830151600283015560608301516003830155608083015160048301805460ff191691151591909117905560a08301518051620001b0926005850192019062000685565b5060c08201518051620001ce91600684019160209091019062000685565b5060e091909101516007909101556000602081905260028054600181018255915260008051602062003011833981519152805460008051602062002ff1833981519152909201916200022090620007ed565b6200022d92919062000714565b507332bbfd99dfcf2a15c1d278a19856683930a8be0b6001604051620002609066436c6f7468657360c81b815260070190565b908152604080516020928190038301812080546001600160a01b0319166001600160a01b039590951694909417909355610140830181526007610100840190815266436c6f7468657360c81b6101208501528352805180820190915260018152601960f91b8183015290820190620002d89062000653565b81526103e860208083019190915260036040808401919091526000606084018190528151808301835260018152601960f91b8185015260808501528151808301909252600a8252695065746572736275726760b01b8284015260a084019190915260c09092018290527332bbfd99dfcf2a15c1d278a19856683930a8be0b82529081528151805160008051602062003031833981519152926200038092849291019062000685565b5060208281015160018301556040830151600283015560608301516003830155608083015160048301805460ff191691151591909117905560a08301518051620003d1926005850192019062000685565b5060c08201518051620003ef91600684019160209091019062000685565b5060e091909101516007909101556000602081905260028054600181018255915260008051602062003031833981519152805460008051602062002ff1833981519152909201916200044190620007ed565b6200044e92919062000714565b5073c152ad455b16d865f2344140dec6ea95cb361e8a60056040516200047e90635065746160e01b815260040190565b908152604080516020928190038301812080546001600160a01b0319166001600160a01b03959095169490941790935560e083018152600460a08401908152635065746160e01b60c08501528352805180820190915260018152601960f91b8183015290820190620004f09062000653565b81526103e8602080830191909152600260408301526000606090920182905273c152ad455b16d865f2344140dec6ea95cb361e8a90915260048152815180517f46be32a2e9b8e0f4c8f06b744988be62b4f05119193ea23be26a02d9470d0ccd926200056192849291019062000685565b506020828101516001838101919091556040808501516002850155606085015160038501556080909401516004938401805460ff19169115159190911790556006805491820181556000528351808501909452828452635065746160e01b93909101928352620005f6927ff652222313e28459528d920b65115c16c04f3efc82aaedc97be59f3f377c0d3f9091019162000685565b50600780546001810182556000919091527fa66cc928b5edb82af9bd49922954155ab7b0942694bea4ce44661d9a8736c6880180546001600160a01b03191673c152ad455b16d865f2344140dec6ea95cb361e8a1790556200082a565b600081604051602001620006689190620007af565b604051602081830303815290604052805190602001209050919050565b8280546200069390620007ed565b90600052602060002090601f016020900481019282620006b7576000855562000702565b82601f10620006d257805160ff191683800117855562000702565b8280016001018555821562000702579182015b8281111562000702578251825591602001919060010190620006e5565b506200071092915062000798565b5090565b8280546200072290620007ed565b90600052602060002090601f01602090048101928262000746576000855562000702565b82601f1062000759578054855562000702565b828001600101855582156200070257600052602060002091601f016020900482015b82811115620007025782548255916001019190600101906200077b565b5b8082111562000710576000815560010162000799565b6000825160005b81811015620007d25760208186018101518583015201620007b6565b81811115620007e2576000828501525b509190910192915050565b600181811c908216806200080257607f821691505b602082108114156200082457634e487b7160e01b600052602260045260246000fd5b50919050565b6127b7806200083a6000396000f3fe608060405234801561001057600080fd5b50600436106101755760003560e01c8063033ff0b81461017a57806304ac16f6146101a05780630c72b1ec146101b55780630e1c81b2146101c8578063146dc6ed146101db5780631bbe970a146101ee57806329e795f31461023a5780632ccdef7c1461024d5780632d4673e31461026057806334d2c0ad146102735780633b84aedc14610288578063521b9170146102ab5780635bbc9a3f146102be5780635bdb63fa146102d15780636ba44d3c146102e45780636c05dd1d146102f7578063775eb9e61461030a5780637ddb273d1461031d578063845952a81461033f5780638e23cb4014610352578063961865f014610379578063a985036d1461039d578063a9f9482b146103b0578063bbd43363146103c3578063c178b9af146103d6578063c4957fa0146103de578063cc21c18814610412578063d22d902014610425578063d68cf8c114610438578063dce391511461045b578063f69483c11461046e575b600080fd5b61018d6101883660046120d3565b610481565b6040519081526020015b60405180910390f35b6101b36101ae3660046120d3565b6104c8565b005b6101b36101c3366004612314565b61051a565b6101b36101d636600461207d565b610705565b6101b36101e93660046120d3565b610898565b6102226101fc3660046120d3565b80516020818301810180516005825292820191909301209152546001600160a01b031681565b6040516001600160a01b039091168152602001610197565b6101b3610248366004612107565b6109ef565b6101b361025b366004612314565b610b53565b6101b361026e3660046120d3565b610c8b565b61027b610d37565b604051610197919061249a565b61029b6102963660046120d3565b610e10565b6040519015158152602001610197565b6101b36102b93660046120d3565b610e5a565b61029b6102cc3660046120d3565b610e70565b61018d6102df3660046120d3565b610e86565b6102226102f23660046120d3565b610e9c565b6101b361030536600461228f565b610f3a565b6101b36103183660046121f0565b611031565b61033061032b3660046122fb565b611192565b6040516101979392919061242d565b61018d61034d3660046120d3565b61125d565b61036561036036600461205b565b61128d565b604051610197989796959493929190612535565b61038c61038736600461205b565b61146d565b6040516101979594939291906124fc565b61018d6103ab3660046120d3565b611527565b6103306103be3660046122fb565b61172f565b6101b36103d13660046120d3565b61173f565b61027b6117eb565b6102226103ec3660046120d3565b80516020818301810180516001825292820191909301209152546001600160a01b031681565b6101b3610420366004612234565b6118bb565b6101b36104333660046121f0565b611b8f565b61044b6104463660046120d3565b611cb5565b6040516101979493929190612463565b6103306104693660046122fb565b611d7b565b6101b361047c366004612314565b611d8b565b60008060006001846040516104969190612375565b9081526040805160209281900383019020546001600160a01b0316835290820192909252016000206003015492915050565b60008060006001846040516104dd9190612375565b9081526040805160209281900383019020546001600160a01b031683529082019290925201600020600401805460ff191691151591909117905550565b600181151514156106ca576000600a838154811061053a5761053a612755565b906000526020600020906003020160020160006101000a81548160ff0219169083151502179055506008600a838154811061057757610577612755565b90600052602060002090600302016001016040516105959190612391565b90815260200160405180910390206002015460046000600a85815481106105be576105be612755565b600091825260208083206003909202909101546001600160a01b031683528201929092526040019020600201546105f591906126a6565b60046000600a858154811061060c5761060c612755565b600091825260208083206003909202909101546001600160a01b03168352820192909252604001902060020155600a8054600891908490811061065157610651612755565b906000526020600020906003020160010160405161066f9190612391565b908152602001604051809103902060020154600080336001600160a01b03166001600160a01b03168152602001908152602001600020600201546106b3919061266c565b336000908152602081905260409020600201555050565b6000600a83815481106106df576106df612755565b60009182526020909120600390910201600201805460ff19169115159190911790555050565b60006001600160a01b03166005836040516107209190612375565b908152604051908190036020019020546001600160a01b0316146107875760405162461bcd60e51b8152602060048201526019602482015278115c9c9bdc8e88155cd95c88185b1c9958591e48195e1a5cdd603a1b60448201526064015b60405180910390fd5b6040805160a08101825283815260208082018490526103e882840152600060608301819052608083018190526001600160a01b0387168152600482529290922081518051929391926107dc9284920190611e84565b50602082015160018201556040808301516002830155606083015160038301556080909201516004909101805460ff1916911515919091179055518390600590610827908590612375565b90815260405190819003602001902080546001600160a01b039283166001600160a01b031991821617909155600780546001810182556000919091527fa66cc928b5edb82af9bd49922954155ab7b0942694bea4ce44661d9a8736c688018054959092169416939093179092555050565b6008816040516108a89190612375565b90815260200160405180910390206002015460046000336001600160a01b03166001600160a01b031681526020019081526020016000206002015410156109245760405162461bcd60e51b815260206004820152601060248201526f6572726f723a206e6f74206d6f6e657960801b604482015260640161077e565b6040805160608101825233815260208082018481526001938301849052600a8054948501815560005282517fc65a7bb8d6351c1cf70c95a316cc6a92839c986682d98bc35f958f4883f9d2a8600390950294850180546001600160a01b0319166001600160a01b0390921691909117815590518051939491936109d0937fc65a7bb8d6351c1cf70c95a316cc6a92839c986682d98bc35f958f4883f9d2a9909301929190910190611e84565b50604091909101516002909101805460ff191691151591909117905550565b60005b600354811015610b4e57600060038281548110610a1157610a11612755565b90600052602060002090600502016001018054610a2d906126e9565b80601f0160208091040260200160405190810160405280929190818152602001828054610a59906126e9565b8015610aa65780601f10610a7b57610100808354040283529160200191610aa6565b820191906000526020600020905b815481529060010190602001808311610a8957829003601f168201915b5050505050905083604051602001610abe9190612375565b6040516020818303038152906040528051906020012081604051602001610ae59190612375565b604051602081830303815290604052805190602001201415610b3b578260038381548110610b1557610b15612755565b90600052602060002090600502016004019080519060200190610b39929190611f08565b505b5080610b4681612724565b9150506109f2565b505050565b60018115151415610c76576000600b8381548110610b7357610b73612755565b906000526020600020906003020160020160006101000a81548160ff0219169083151502179055506008600b8381548110610bb057610bb0612755565b9060005260206000209060030201600101604051610bce9190612391565b90815260200160405180910390206002015460046000600b8581548110610bf757610bf7612755565b600091825260208083206003909202909101546001600160a01b03168352820192909252604001902060020154610c2e919061266c565b60046000600b8581548110610c4557610c45612755565b600091825260208083206003909202909101546001600160a01b031683528201929092526040019020600201555050565b6000600b83815481106106df576106df612755565b6040805160608101825233815260208082018481526001938301849052600c8054948501815560005282517fdf6966c971051c3d54ec59162606531493a51404a002842f56009d7e5cf4a8c7600390950294850180546001600160a01b0319166001600160a01b0390921691909117815590518051939491936109d0937fdf6966c971051c3d54ec59162606531493a51404a002842f56009d7e5cf4a8c8909301929190910190611e84565b60606009805480602002602001604051908101604052809291908181526020016000905b82821015610e07578382906000526020600020018054610d7a906126e9565b80601f0160208091040260200160405190810160405280929190818152602001828054610da6906126e9565b8015610df35780601f10610dc857610100808354040283529160200191610df3565b820191906000526020600020905b815481529060010190602001808311610dd657829003601f168201915b505050505081526020019060010190610d5b565b50505050905090565b6000806000600184604051610e259190612375565b9081526040805160209281900383019020546001600160a01b0316835290820192909252016000206004015460ff1692915050565b6000600460006005846040516104dd9190612375565b600060046000600584604051610e259190612375565b6000600460006005846040516104969190612375565b60008060006001600160a01b0316600584604051610eba9190612375565b908152604051908190036020019020546001600160a01b031614610f0857600583604051610ee89190612375565b908152604051908190036020019020546001600160a01b03169050610f34565b600183604051610f189190612375565b908152604051908190036020019020546001600160a01b031690505b92915050565b6040518060800160405280336001600160a01b03168152602001828152602001838152602001600d54815250600884604051610f769190612375565b90815260405160209181900382019020825181546001600160a01b0319166001600160a01b039091161781558282015180519192610fbc92600185019290910190611e84565b5060408201516002820155606090910151600390910155600980546001810182556000919091528351611016917f6e1540171b6c0c960b71a7020d9f60077f6af931a8bbf590da0223dacf75c7af01906020860190611e84565b50600d805490600061102783612724565b9190505550505050565b6000806001846040516110449190612375565b9081526040805160209281900383019020546001600160a01b0316835290820192909252016000206004015460ff16156110905760405162461bcd60e51b815260040161077e90612605565b60006001600160a01b03166001836040516110ab9190612375565b908152604051908190036020019020546001600160a01b031614156110e25760405162461bcd60e51b815260040161077e906125d2565b806000806001856040516110f69190612375565b9081526040805160209281900383019020546001600160a01b031683529082019290925201600020600101541461113f5760405162461bcd60e51b815260040161077e906125a1565b60016000806001856040516111549190612375565b9081526040805160209281900383019020546001600160a01b031683529082019290925201600020600401805460ff19169115159190911790555050565b600c81815481106111a257600080fd5b6000918252602090912060039091020180546001820180546001600160a01b039092169350906111d1906126e9565b80601f01602080910402602001604051908101604052809291908181526020018280546111fd906126e9565b801561124a5780601f1061121f5761010080835404028352916020019161124a565b820191906000526020600020905b81548152906001019060200180831161122d57829003601f168201915b5050506002909301549192505060ff1683565b6000816040516020016112709190612375565b604051602081830303815290604052805190602001209050919050565b6000602081905290815260409020805481906112a8906126e9565b80601f01602080910402602001604051908101604052809291908181526020018280546112d4906126e9565b80156113215780601f106112f657610100808354040283529160200191611321565b820191906000526020600020905b81548152906001019060200180831161130457829003601f168201915b50505060018401546002850154600386015460048701546005880180549798949793965091945060ff169291611356906126e9565b80601f0160208091040260200160405190810160405280929190818152602001828054611382906126e9565b80156113cf5780601f106113a4576101008083540402835291602001916113cf565b820191906000526020600020905b8154815290600101906020018083116113b257829003601f168201915b5050505050908060060180546113e4906126e9565b80601f0160208091040260200160405190810160405280929190818152602001828054611410906126e9565b801561145d5780601f106114325761010080835404028352916020019161145d565b820191906000526020600020905b81548152906001019060200180831161144057829003601f168201915b5050505050908060070154905088565b600460205260009081526040902080548190611488906126e9565b80601f01602080910402602001604051908101604052809291908181526020018280546114b4906126e9565b80156115015780601f106114d657610100808354040283529160200191611501565b820191906000526020600020905b8154815290600101906020018083116114e457829003601f168201915b505050506001830154600284015460038501546004909501549394919390925060ff1685565b60008080805b6002548110156117125760006002828154811061154c5761154c612755565b906000526020600020018054611561906126e9565b80601f016020809104026020016040519081016040528092919081815260200182805461158d906126e9565b80156115da5780601f106115af576101008083540402835291602001916115da565b820191906000526020600020905b8154815290600101906020018083116115bd57829003601f168201915b50505050509050856040516020016115f29190612375565b60405160208183030381529060405280519060200120816040516020016116199190612375565b6040516020818303038152906040528051906020012014156116ff57600091505b60035482116116ff576003828154811061165657611656612755565b90600052602060002090600502016000016040516020016116779190612391565b604051602081830303815290604052805190602001208660405160200161169e9190612375565b6040516020818303038152906040528051906020012014156116ed57600382815481106116cd576116cd612755565b906000526020600020906005020160030154836116ea919061266c565b92505b816116f781612724565b92505061163a565b508061170a81612724565b91505061152d565b5061171d8282612684565b611727908261266c565b949350505050565b600b81815481106111a257600080fd5b6040805160608101825233815260208082018481526001938301849052600b8054948501815560005282517f0175b7a638427703f0dbe7bb9bbf987a2551717b34e79f33b5b1008d1fa01db9600390950294850180546001600160a01b0319166001600160a01b0390921691909117815590518051939491936109d0937f0175b7a638427703f0dbe7bb9bbf987a2551717b34e79f33b5b1008d1fa01dba909301929190910190611e84565b60606002805480602002602001604051908101604052809291908181526020016000905b82821015610e0757838290600052602060002001805461182e906126e9565b80601f016020809104026020016040519081016040528092919081815260200182805461185a906126e9565b80156118a75780601f1061187c576101008083540402835291602001916118a7565b820191906000526020600020905b81548152906001019060200180831161188a57829003601f168201915b50505050508152602001906001019061180f565b600a8111156119165760405162461bcd60e51b815260206004820152602160248201527f6572726f723a20726174696e672063616e2062652066726f6d203120746f20316044820152600360fc1b606482015260840161077e565b60005b6002548111611b895760006002828154811061193757611937612755565b90600052602060002001805461194c906126e9565b80601f0160208091040260200160405190810160405280929190818152602001828054611978906126e9565b80156119c55780601f1061199a576101008083540402835291602001916119c5565b820191906000526020600020905b8154815290600101906020018083116119a857829003601f168201915b50505050509050846040516020016119dd9190612375565b6040516020818303038152906040528051906020012081604051602001611a049190612375565b604051602081830303815290604052805190602001201415611b76576040805160a0810182528681523360009081526004602090815292902080546060936003939290830191611a53906126e9565b80601f0160208091040260200160405190810160405280929190818152602001828054611a7f906126e9565b8015611acc5780601f10611aa157610100808354040283529160200191611acc565b820191906000526020600020905b815481529060010190602001808311611aaf57829003601f168201915b50505091835250506020808201899052604082018890526060909101849052825460018101845560009384529281902082518051939460050290910192611b169284920190611e84565b506020828101518051611b2f9260018501920190611e84565b5060408201518051611b4b916002840191602090910190611e84565b506060820151600382015560808201518051611b71916004840191602090910190611f08565b505050505b5080611b8181612724565b915050611919565b50505050565b60046000600584604051611ba39190612375565b9081526040805160209281900383019020546001600160a01b0316835290820192909252016000206004015460ff1615611bef5760405162461bcd60e51b815260040161077e90612605565b60006001600160a01b0316600583604051611c0a9190612375565b908152604051908190036020019020546001600160a01b03161415611c415760405162461bcd60e51b815260040161077e906125d2565b8060046000600585604051611c569190612375565b9081526040805160209281900383019020546001600160a01b0316835290820192909252016000206001015414611c9f5760405162461bcd60e51b815260040161077e906125a1565b6001600460006005856040516111549190612375565b8051602081830181018051600882529282019190930120915280546001820180546001600160a01b039092169291611cec906126e9565b80601f0160208091040260200160405190810160405280929190818152602001828054611d18906126e9565b8015611d655780601f10611d3a57610100808354040283529160200191611d65565b820191906000526020600020905b815481529060010190602001808311611d4857829003601f168201915b5050505050908060020154908060030154905084565b600a81815481106111a257600080fd5b60018115151415610c76576008600c8381548110611dab57611dab612755565b9060005260206000209060030201600101604051611dc99190612391565b90815260200160405180910390206002015460046000600c8581548110611df257611df2612755565b600091825260208083206003909202909101546001600160a01b03168352820192909252604001902060020154611e29919061266c565b60046000600c8581548110611e4057611e40612755565b600091825260208083206003909202909101546001600160a01b03168352820192909252604001812060020191909155600b8054849081106106df576106df612755565b828054611e90906126e9565b90600052602060002090601f016020900481019282611eb25760008555611ef8565b82601f10611ecb57805160ff1916838001178555611ef8565b82800160010185558215611ef8579182015b82811115611ef8578251825591602001919060010190611edd565b50611f04929150611f61565b5090565b828054828255906000526020600020908101928215611f55579160200282015b82811115611f555782518051611f45918491602090910190611e84565b5091602001919060010190611f28565b50611f04929150611f76565b5b80821115611f045760008155600101611f62565b80821115611f04576000611f8a8282611f93565b50600101611f76565b508054611f9f906126e9565b6000825580601f10611faf575050565b601f016020900490600052602060002090810190611fcd9190611f61565b50565b80356001600160a01b0381168114611fe757600080fd5b919050565b600082601f830112611ffd57600080fd5b81356001600160401b038111156120165761201661276b565b612029601f8201601f191660200161263c565b81815284602083860101111561203e57600080fd5b816020850160208301376000918101602001919091529392505050565b60006020828403121561206d57600080fd5b61207682611fd0565b9392505050565b60008060006060848603121561209257600080fd5b61209b84611fd0565b925060208401356001600160401b038111156120b657600080fd5b6120c286828701611fec565b925050604084013590509250925092565b6000602082840312156120e557600080fd5b81356001600160401b038111156120fb57600080fd5b61172784828501611fec565b6000806040838503121561211a57600080fd5b82356001600160401b038082111561213157600080fd5b61213d86838701611fec565b935060209150818501358181111561215457600080fd5b8501601f8101871361216557600080fd5b8035828111156121775761217761276b565b8060051b61218685820161263c565b8281528581019084870183860188018c10156121a157600080fd5b60009350835b858110156121de578135888111156121bd578586fd5b6121cb8e8b838b0101611fec565b85525092880192908801906001016121a7565b50989b909a5098505050505050505050565b6000806040838503121561220357600080fd5b82356001600160401b0381111561221957600080fd5b61222585828601611fec565b95602094909401359450505050565b60008060006060848603121561224957600080fd5b83356001600160401b038082111561226057600080fd5b61226c87838801611fec565b9450602086013591508082111561228257600080fd5b506120c286828701611fec565b6000806000606084860312156122a457600080fd5b83356001600160401b03808211156122bb57600080fd5b6122c787838801611fec565b94506020860135935060408601359150808211156122e457600080fd5b506122f186828701611fec565b9150509250925092565b60006020828403121561230d57600080fd5b5035919050565b6000806040838503121561232757600080fd5b823591506020830135801515811461233e57600080fd5b809150509250929050565b600081518084526123618160208601602086016126bd565b601f01601f19169290920160200192915050565b600082516123878184602087016126bd565b9190910192915050565b600080835481600182811c9150808316806123ad57607f831692505b60208084108214156123cd57634e487b7160e01b86526022600452602486fd5b8180156123e157600181146123f25761241f565b60ff1986168952848901965061241f565b60008a81526020902060005b868110156124175781548b8201529085019083016123fe565b505084890196505b509498975050505050505050565b6001600160a01b038416815260606020820181905260009061245190830185612349565b90508215156040830152949350505050565b6001600160a01b038516815260806020820181905260009061248790830186612349565b6040830194909452506060015292915050565b6000602080830181845280855180835260408601915060408160051b870101925083870160005b828110156124ef57603f198886030184526124dd858351612349565b945092850192908501906001016124c1565b5092979650505050505050565b60a08152600061250f60a0830188612349565b905085602083015284604083015283606083015282151560808301529695505050505050565b60006101008083526125498184018c612349565b9050896020840152886040840152876060840152861515608084015282810360a08401526125778187612349565b905082810360c084015261258b8186612349565b9150508260e08301529998505050505050505050565b602080825260179082015276115c9c9bdc8e88125b9d985b1a59081c185cdcdddbdc99604a1b604082015260600190565b602080825260199082015278115c9c9bdc8e88155cd95c88191bd95cdb89dd08195e1a5cdd603a1b604082015260600190565b6020808252601d908201527f4572726f723a20596f752061726520616c7265616479206c6f67676564000000604082015260600190565b604051601f8201601f191681016001600160401b03811182821017156126645761266461276b565b604052919050565b6000821982111561267f5761267f61273f565b500190565b6000826126a157634e487b7160e01b600052601260045260246000fd5b500490565b6000828210156126b8576126b861273f565b500390565b60005b838110156126d85781810151838201526020016126c0565b83811115611b895750506000910152565b600181811c908216806126fd57607f821691505b6020821081141561271e57634e487b7160e01b600052602260045260246000fd5b50919050565b60006000198214156127385761273861273f565b5060010190565b634e487b7160e01b600052601160045260246000fd5b634e487b7160e01b600052603260045260246000fd5b634e487b7160e01b600052604160045260246000fdfea2646970667358221220d8e1491bfb02e2fd1cbc51c483b1337ce559ec179e22d9135b748738be5d8cca64736f6c63430008070033405787fa12a823e0f2b7631cc41b3ba8828b3321ca811111fa75cd3aa3bb5acec49e92deb93ac19463e0f89b887a2ab81c6b5eadf7dc1bc8bd12ce4040f656fc5c83a96f0abbcc4e29b827af3528e41db71dd7823e05e1374cd098351a380d7f",
					"opcodes": "PUSH1 0x80 PUSH1 0x40 MSTORE PUSH1 0x0 PUSH1 0xD SSTORE CALLVALUE DUP1 ISZERO PUSH3 0x16 JUMPI PUSH1 0x0 DUP1 REVERT JUMPDEST POP PUSH20 0x22140E5EEE5A0341A107BD6A65EE0F5BB72DEB90 PUSH1 0x1 PUSH1 0x40 MLOAD PUSH3 0x46 SWAP1 PUSH4 0x2132B2B9 PUSH1 0xE1 SHL DUP2 MSTORE PUSH1 0x4 ADD SWAP1 JUMP JUMPDEST SWAP1 DUP2 MSTORE PUSH1 0x40 DUP1 MLOAD PUSH1 0x20 SWAP3 DUP2 SWAP1 SUB DUP4 ADD DUP2 KECCAK256 DUP1 SLOAD PUSH1 0x1 PUSH1 0x1 PUSH1 0xA0 SHL SUB NOT AND PUSH1 0x1 PUSH1 0x1 PUSH1 0xA0 SHL SUB SWAP6 SWAP1 SWAP6 AND SWAP5 SWAP1 SWAP5 OR SWAP1 SWAP4 SSTORE PUSH2 0x140 DUP4 ADD DUP2 MSTORE PUSH1 0x4 PUSH2 0x100 DUP5 ADD SWAP1 DUP2 MSTORE PUSH4 0x2132B2B9 PUSH1 0xE1 SHL PUSH2 0x120 DUP6 ADD MSTORE DUP4 MSTORE DUP1 MLOAD DUP1 DUP3 ADD SWAP1 SWAP2 MSTORE PUSH1 0x1 DUP2 MSTORE PUSH1 0x31 PUSH1 0xF8 SHL DUP2 DUP4 ADD MSTORE SWAP1 DUP3 ADD SWAP1 PUSH3 0xBB SWAP1 PUSH3 0x653 JUMP JUMPDEST DUP2 MSTORE PUSH2 0x3E8 PUSH1 0x20 DUP1 DUP4 ADD SWAP2 SWAP1 SWAP2 MSTORE PUSH1 0x3 PUSH1 0x40 DUP1 DUP5 ADD SWAP2 SWAP1 SWAP2 MSTORE PUSH1 0x0 PUSH1 0x60 DUP5 ADD DUP2 SWAP1 MSTORE DUP2 MLOAD DUP1 DUP4 ADD DUP4 MSTORE PUSH1 0x1 DUP2 MSTORE PUSH1 0x31 PUSH1 0xF8 SHL DUP2 DUP6 ADD MSTORE PUSH1 0x80 DUP6 ADD MSTORE DUP2 MLOAD DUP1 DUP4 ADD SWAP1 SWAP3 MSTORE PUSH1 0x6 DUP3 MSTORE PUSH6 0x4D6F73636F77 PUSH1 0xD0 SHL DUP3 DUP5 ADD MSTORE PUSH1 0xA0 DUP5 ADD SWAP2 SWAP1 SWAP2 MSTORE PUSH1 0xC0 SWAP1 SWAP3 ADD DUP3 SWAP1 MSTORE PUSH20 0x22140E5EEE5A0341A107BD6A65EE0F5BB72DEB90 DUP3 MSTORE SWAP1 DUP2 MSTORE DUP2 MLOAD DUP1 MLOAD PUSH1 0x0 DUP1 MLOAD PUSH1 0x20 PUSH3 0x3011 DUP4 CODECOPY DUP2 MLOAD SWAP2 MSTORE SWAP3 PUSH3 0x15F SWAP3 DUP5 SWAP3 SWAP2 ADD SWAP1 PUSH3 0x685 JUMP JUMPDEST POP PUSH1 0x20 DUP3 DUP2 ADD MLOAD PUSH1 0x1 DUP4 ADD SSTORE PUSH1 0x40 DUP4 ADD MLOAD PUSH1 0x2 DUP4 ADD SSTORE PUSH1 0x60 DUP4 ADD MLOAD PUSH1 0x3 DUP4 ADD SSTORE PUSH1 0x80 DUP4 ADD MLOAD PUSH1 0x4 DUP4 ADD DUP1 SLOAD PUSH1 0xFF NOT AND SWAP2 ISZERO ISZERO SWAP2 SWAP1 SWAP2 OR SWAP1 SSTORE PUSH1 0xA0 DUP4 ADD MLOAD DUP1 MLOAD PUSH3 0x1B0 SWAP3 PUSH1 0x5 DUP6 ADD SWAP3 ADD SWAP1 PUSH3 0x685 JUMP JUMPDEST POP PUSH1 0xC0 DUP3 ADD MLOAD DUP1 MLOAD PUSH3 0x1CE SWAP2 PUSH1 0x6 DUP5 ADD SWAP2 PUSH1 0x20 SWAP1 SWAP2 ADD SWAP1 PUSH3 0x685 JUMP JUMPDEST POP PUSH1 0xE0 SWAP2 SWAP1 SWAP2 ADD MLOAD PUSH1 0x7 SWAP1 SWAP2 ADD SSTORE PUSH1 0x0 PUSH1 0x20 DUP2 SWAP1 MSTORE PUSH1 0x2 DUP1 SLOAD PUSH1 0x1 DUP2 ADD DUP3 SSTORE SWAP2 MSTORE PUSH1 0x0 DUP1 MLOAD PUSH1 0x20 PUSH3 0x3011 DUP4 CODECOPY DUP2 MLOAD SWAP2 MSTORE DUP1 SLOAD PUSH1 0x0 DUP1 MLOAD PUSH1 0x20 PUSH3 0x2FF1 DUP4 CODECOPY DUP2 MLOAD SWAP2 MSTORE SWAP1 SWAP3 ADD SWAP2 PUSH3 0x220 SWAP1 PUSH3 0x7ED JUMP JUMPDEST PUSH3 0x22D SWAP3 SWAP2 SWAP1 PUSH3 0x714 JUMP JUMPDEST POP PUSH20 0x32BBFD99DFCF2A15C1D278A19856683930A8BE0B PUSH1 0x1 PUSH1 0x40 MLOAD PUSH3 0x260 SWAP1 PUSH7 0x436C6F74686573 PUSH1 0xC8 SHL DUP2 MSTORE PUSH1 0x7 ADD SWAP1 JUMP JUMPDEST SWAP1 DUP2 MSTORE PUSH1 0x40 DUP1 MLOAD PUSH1 0x20 SWAP3 DUP2 SWAP1 SUB DUP4 ADD DUP2 KECCAK256 DUP1 SLOAD PUSH1 0x1 PUSH1 0x1 PUSH1 0xA0 SHL SUB NOT AND PUSH1 0x1 PUSH1 0x1 PUSH1 0xA0 SHL SUB SWAP6 SWAP1 SWAP6 AND SWAP5 SWAP1 SWAP5 OR SWAP1 SWAP4 SSTORE PUSH2 0x140 DUP4 ADD DUP2 MSTORE PUSH1 0x7 PUSH2 0x100 DUP5 ADD SWAP1 DUP2 MSTORE PUSH7 0x436C6F74686573 PUSH1 0xC8 SHL PUSH2 0x120 DUP6 ADD MSTORE DUP4 MSTORE DUP1 MLOAD DUP1 DUP3 ADD SWAP1 SWAP2 MSTORE PUSH1 0x1 DUP2 MSTORE PUSH1 0x19 PUSH1 0xF9 SHL DUP2 DUP4 ADD MSTORE SWAP1 DUP3 ADD SWAP1 PUSH3 0x2D8 SWAP1 PUSH3 0x653 JUMP JUMPDEST DUP2 MSTORE PUSH2 0x3E8 PUSH1 0x20 DUP1 DUP4 ADD SWAP2 SWAP1 SWAP2 MSTORE PUSH1 0x3 PUSH1 0x40 DUP1 DUP5 ADD SWAP2 SWAP1 SWAP2 MSTORE PUSH1 0x0 PUSH1 0x60 DUP5 ADD DUP2 SWAP1 MSTORE DUP2 MLOAD DUP1 DUP4 ADD DUP4 MSTORE PUSH1 0x1 DUP2 MSTORE PUSH1 0x19 PUSH1 0xF9 SHL DUP2 DUP6 ADD MSTORE PUSH1 0x80 DUP6 ADD MSTORE DUP2 MLOAD DUP1 DUP4 ADD SWAP1 SWAP3 MSTORE PUSH1 0xA DUP3 MSTORE PUSH10 0x50657465727362757267 PUSH1 0xB0 SHL DUP3 DUP5 ADD MSTORE PUSH1 0xA0 DUP5 ADD SWAP2 SWAP1 SWAP2 MSTORE PUSH1 0xC0 SWAP1 SWAP3 ADD DUP3 SWAP1 MSTORE PUSH20 0x32BBFD99DFCF2A15C1D278A19856683930A8BE0B DUP3 MSTORE SWAP1 DUP2 MSTORE DUP2 MLOAD DUP1 MLOAD PUSH1 0x0 DUP1 MLOAD PUSH1 0x20 PUSH3 0x3031 DUP4 CODECOPY DUP2 MLOAD SWAP2 MSTORE SWAP3 PUSH3 0x380 SWAP3 DUP5 SWAP3 SWAP2 ADD SWAP1 PUSH3 0x685 JUMP JUMPDEST POP PUSH1 0x20 DUP3 DUP2 ADD MLOAD PUSH1 0x1 DUP4 ADD SSTORE PUSH1 0x40 DUP4 ADD MLOAD PUSH1 0x2 DUP4 ADD SSTORE PUSH1 0x60 DUP4 ADD MLOAD PUSH1 0x3 DUP4 ADD SSTORE PUSH1 0x80 DUP4 ADD MLOAD PUSH1 0x4 DUP4 ADD DUP1 SLOAD PUSH1 0xFF NOT AND SWAP2 ISZERO ISZERO SWAP2 SWAP1 SWAP2 OR SWAP1 SSTORE PUSH1 0xA0 DUP4 ADD MLOAD DUP1 MLOAD PUSH3 0x3D1 SWAP3 PUSH1 0x5 DUP6 ADD SWAP3 ADD SWAP1 PUSH3 0x685 JUMP JUMPDEST POP PUSH1 0xC0 DUP3 ADD MLOAD DUP1 MLOAD PUSH3 0x3EF SWAP2 PUSH1 0x6 DUP5 ADD SWAP2 PUSH1 0x20 SWAP1 SWAP2 ADD SWAP1 PUSH3 0x685 JUMP JUMPDEST POP PUSH1 0xE0 SWAP2 SWAP1 SWAP2 ADD MLOAD PUSH1 0x7 SWAP1 SWAP2 ADD SSTORE PUSH1 0x0 PUSH1 0x20 DUP2 SWAP1 MSTORE PUSH1 0x2 DUP1 SLOAD PUSH1 0x1 DUP2 ADD DUP3 SSTORE SWAP2 MSTORE PUSH1 0x0 DUP1 MLOAD PUSH1 0x20 PUSH3 0x3031 DUP4 CODECOPY DUP2 MLOAD SWAP2 MSTORE DUP1 SLOAD PUSH1 0x0 DUP1 MLOAD PUSH1 0x20 PUSH3 0x2FF1 DUP4 CODECOPY DUP2 MLOAD SWAP2 MSTORE SWAP1 SWAP3 ADD SWAP2 PUSH3 0x441 SWAP1 PUSH3 0x7ED JUMP JUMPDEST PUSH3 0x44E SWAP3 SWAP2 SWAP1 PUSH3 0x714 JUMP JUMPDEST POP PUSH20 0xC152AD455B16D865F2344140DEC6EA95CB361E8A PUSH1 0x5 PUSH1 0x40 MLOAD PUSH3 0x47E SWAP1 PUSH4 0x50657461 PUSH1 0xE0 SHL DUP2 MSTORE PUSH1 0x4 ADD SWAP1 JUMP JUMPDEST SWAP1 DUP2 MSTORE PUSH1 0x40 DUP1 MLOAD PUSH1 0x20 SWAP3 DUP2 SWAP1 SUB DUP4 ADD DUP2 KECCAK256 DUP1 SLOAD PUSH1 0x1 PUSH1 0x1 PUSH1 0xA0 SHL SUB NOT AND PUSH1 0x1 PUSH1 0x1 PUSH1 0xA0 SHL SUB SWAP6 SWAP1 SWAP6 AND SWAP5 SWAP1 SWAP5 OR SWAP1 SWAP4 SSTORE PUSH1 0xE0 DUP4 ADD DUP2 MSTORE PUSH1 0x4 PUSH1 0xA0 DUP5 ADD SWAP1 DUP2 MSTORE PUSH4 0x50657461 PUSH1 0xE0 SHL PUSH1 0xC0 DUP6 ADD MSTORE DUP4 MSTORE DUP1 MLOAD DUP1 DUP3 ADD SWAP1 SWAP2 MSTORE PUSH1 0x1 DUP2 MSTORE PUSH1 0x19 PUSH1 0xF9 SHL DUP2 DUP4 ADD MSTORE SWAP1 DUP3 ADD SWAP1 PUSH3 0x4F0 SWAP1 PUSH3 0x653 JUMP JUMPDEST DUP2 MSTORE PUSH2 0x3E8 PUSH1 0x20 DUP1 DUP4 ADD SWAP2 SWAP1 SWAP2 MSTORE PUSH1 0x2 PUSH1 0x40 DUP4 ADD MSTORE PUSH1 0x0 PUSH1 0x60 SWAP1 SWAP3 ADD DUP3 SWAP1 MSTORE PUSH20 0xC152AD455B16D865F2344140DEC6EA95CB361E8A SWAP1 SWAP2 MSTORE PUSH1 0x4 DUP2 MSTORE DUP2 MLOAD DUP1 MLOAD PUSH32 0x46BE32A2E9B8E0F4C8F06B744988BE62B4F05119193EA23BE26A02D9470D0CCD SWAP3 PUSH3 0x561 SWAP3 DUP5 SWAP3 SWAP2 ADD SWAP1 PUSH3 0x685 JUMP JUMPDEST POP PUSH1 0x20 DUP3 DUP2 ADD MLOAD PUSH1 0x1 DUP4 DUP2 ADD SWAP2 SWAP1 SWAP2 SSTORE PUSH1 0x40 DUP1 DUP6 ADD MLOAD PUSH1 0x2 DUP6 ADD SSTORE PUSH1 0x60 DUP6 ADD MLOAD PUSH1 0x3 DUP6 ADD SSTORE PUSH1 0x80 SWAP1 SWAP5 ADD MLOAD PUSH1 0x4 SWAP4 DUP5 ADD DUP1 SLOAD PUSH1 0xFF NOT AND SWAP2 ISZERO ISZERO SWAP2 SWAP1 SWAP2 OR SWAP1 SSTORE PUSH1 0x6 DUP1 SLOAD SWAP2 DUP3 ADD DUP2 SSTORE PUSH1 0x0 MSTORE DUP4 MLOAD DUP1 DUP6 ADD SWAP1 SWAP5 MSTORE DUP3 DUP5 MSTORE PUSH4 0x50657461 PUSH1 0xE0 SHL SWAP4 SWAP1 SWAP2 ADD SWAP3 DUP4 MSTORE PUSH3 0x5F6 SWAP3 PUSH32 0xF652222313E28459528D920B65115C16C04F3EFC82AAEDC97BE59F3F377C0D3F SWAP1 SWAP2 ADD SWAP2 PUSH3 0x685 JUMP JUMPDEST POP PUSH1 0x7 DUP1 SLOAD PUSH1 0x1 DUP2 ADD DUP3 SSTORE PUSH1 0x0 SWAP2 SWAP1 SWAP2 MSTORE PUSH32 0xA66CC928B5EDB82AF9BD49922954155AB7B0942694BEA4CE44661D9A8736C688 ADD DUP1 SLOAD PUSH1 0x1 PUSH1 0x1 PUSH1 0xA0 SHL SUB NOT AND PUSH20 0xC152AD455B16D865F2344140DEC6EA95CB361E8A OR SWAP1 SSTORE PUSH3 0x82A JUMP JUMPDEST PUSH1 0x0 DUP2 PUSH1 0x40 MLOAD PUSH1 0x20 ADD PUSH3 0x668 SWAP2 SWAP1 PUSH3 0x7AF JUMP JUMPDEST PUSH1 0x40 MLOAD PUSH1 0x20 DUP2 DUP4 SUB SUB DUP2 MSTORE SWAP1 PUSH1 0x40 MSTORE DUP1 MLOAD SWAP1 PUSH1 0x20 ADD KECCAK256 SWAP1 POP SWAP2 SWAP1 POP JUMP JUMPDEST DUP3 DUP1 SLOAD PUSH3 0x693 SWAP1 PUSH3 0x7ED JUMP JUMPDEST SWAP1 PUSH1 0x0 MSTORE PUSH1 0x20 PUSH1 0x0 KECCAK256 SWAP1 PUSH1 0x1F ADD PUSH1 0x20 SWAP1 DIV DUP2 ADD SWAP3 DUP3 PUSH3 0x6B7 JUMPI PUSH1 0x0 DUP6 SSTORE PUSH3 0x702 JUMP JUMPDEST DUP3 PUSH1 0x1F LT PUSH3 0x6D2 JUMPI DUP1 MLOAD PUSH1 0xFF NOT AND DUP4 DUP1 ADD OR DUP6 SSTORE PUSH3 0x702 JUMP JUMPDEST DUP3 DUP1 ADD PUSH1 0x1 ADD DUP6 SSTORE DUP3 ISZERO PUSH3 0x702 JUMPI SWAP2 DUP3 ADD JUMPDEST DUP3 DUP2 GT ISZERO PUSH3 0x702 JUMPI DUP3 MLOAD DUP3 SSTORE SWAP2 PUSH1 0x20 ADD SWAP2 SWAP1 PUSH1 0x1 ADD SWAP1 PUSH3 0x6E5 JUMP JUMPDEST POP PUSH3 0x710 SWAP3 SWAP2 POP PUSH3 0x798 JUMP JUMPDEST POP SWAP1 JUMP JUMPDEST DUP3 DUP1 SLOAD PUSH3 0x722 SWAP1 PUSH3 0x7ED JUMP JUMPDEST SWAP1 PUSH1 0x0 MSTORE PUSH1 0x20 PUSH1 0x0 KECCAK256 SWAP1 PUSH1 0x1F ADD PUSH1 0x20 SWAP1 DIV DUP2 ADD SWAP3 DUP3 PUSH3 0x746 JUMPI PUSH1 0x0 DUP6 SSTORE PUSH3 0x702 JUMP JUMPDEST DUP3 PUSH1 0x1F LT PUSH3 0x759 JUMPI DUP1 SLOAD DUP6 SSTORE PUSH3 0x702 JUMP JUMPDEST DUP3 DUP1 ADD PUSH1 0x1 ADD DUP6 SSTORE DUP3 ISZERO PUSH3 0x702 JUMPI PUSH1 0x0 MSTORE PUSH1 0x20 PUSH1 0x0 KECCAK256 SWAP2 PUSH1 0x1F ADD PUSH1 0x20 SWAP1 DIV DUP3 ADD JUMPDEST DUP3 DUP2 GT ISZERO PUSH3 0x702 JUMPI DUP3 SLOAD DUP3 SSTORE SWAP2 PUSH1 0x1 ADD SWAP2 SWAP1 PUSH1 0x1 ADD SWAP1 PUSH3 0x77B JUMP JUMPDEST JUMPDEST DUP1 DUP3 GT ISZERO PUSH3 0x710 JUMPI PUSH1 0x0 DUP2 SSTORE PUSH1 0x1 ADD PUSH3 0x799 JUMP JUMPDEST PUSH1 0x0 DUP3 MLOAD PUSH1 0x0 JUMPDEST DUP2 DUP2 LT ISZERO PUSH3 0x7D2 JUMPI PUSH1 0x20 DUP2 DUP7 ADD DUP2 ADD MLOAD DUP6 DUP4 ADD MSTORE ADD PUSH3 0x7B6 JUMP JUMPDEST DUP2 DUP2 GT ISZERO PUSH3 0x7E2 JUMPI PUSH1 0x0 DUP3 DUP6 ADD MSTORE JUMPDEST POP SWAP2 SWAP1 SWAP2 ADD SWAP3 SWAP2 POP POP JUMP JUMPDEST PUSH1 0x1 DUP2 DUP2 SHR SWAP1 DUP3 AND DUP1 PUSH3 0x802 JUMPI PUSH1 0x7F DUP3 AND SWAP2 POP JUMPDEST PUSH1 0x20 DUP3 LT DUP2 EQ ISZERO PUSH3 0x824 JUMPI PUSH4 0x4E487B71 PUSH1 0xE0 SHL PUSH1 0x0 MSTORE PUSH1 0x22 PUSH1 0x4 MSTORE PUSH1 0x24 PUSH1 0x0 REVERT JUMPDEST POP SWAP2 SWAP1 POP JUMP JUMPDEST PUSH2 0x27B7 DUP1 PUSH3 0x83A PUSH1 0x0 CODECOPY PUSH1 0x0 RETURN INVALID PUSH1 0x80 PUSH1 0x40 MSTORE CALLVALUE DUP1 ISZERO PUSH2 0x10 JUMPI PUSH1 0x0 DUP1 REVERT JUMPDEST POP PUSH1 0x4 CALLDATASIZE LT PUSH2 0x175 JUMPI PUSH1 0x0 CALLDATALOAD PUSH1 0xE0 SHR DUP1 PUSH4 0x33FF0B8 EQ PUSH2 0x17A JUMPI DUP1 PUSH4 0x4AC16F6 EQ PUSH2 0x1A0 JUMPI DUP1 PUSH4 0xC72B1EC EQ PUSH2 0x1B5 JUMPI DUP1 PUSH4 0xE1C81B2 EQ PUSH2 0x1C8 JUMPI DUP1 PUSH4 0x146DC6ED EQ PUSH2 0x1DB JUMPI DUP1 PUSH4 0x1BBE970A EQ PUSH2 0x1EE JUMPI DUP1 PUSH4 0x29E795F3 EQ PUSH2 0x23A JUMPI DUP1 PUSH4 0x2CCDEF7C EQ PUSH2 0x24D JUMPI DUP1 PUSH4 0x2D4673E3 EQ PUSH2 0x260 JUMPI DUP1 PUSH4 0x34D2C0AD EQ PUSH2 0x273 JUMPI DUP1 PUSH4 0x3B84AEDC EQ PUSH2 0x288 JUMPI DUP1 PUSH4 0x521B9170 EQ PUSH2 0x2AB JUMPI DUP1 PUSH4 0x5BBC9A3F EQ PUSH2 0x2BE JUMPI DUP1 PUSH4 0x5BDB63FA EQ PUSH2 0x2D1 JUMPI DUP1 PUSH4 0x6BA44D3C EQ PUSH2 0x2E4 JUMPI DUP1 PUSH4 0x6C05DD1D EQ PUSH2 0x2F7 JUMPI DUP1 PUSH4 0x775EB9E6 EQ PUSH2 0x30A JUMPI DUP1 PUSH4 0x7DDB273D EQ PUSH2 0x31D JUMPI DUP1 PUSH4 0x845952A8 EQ PUSH2 0x33F JUMPI DUP1 PUSH4 0x8E23CB40 EQ PUSH2 0x352 JUMPI DUP1 PUSH4 0x961865F0 EQ PUSH2 0x379 JUMPI DUP1 PUSH4 0xA985036D EQ PUSH2 0x39D JUMPI DUP1 PUSH4 0xA9F9482B EQ PUSH2 0x3B0 JUMPI DUP1 PUSH4 0xBBD43363 EQ PUSH2 0x3C3 JUMPI DUP1 PUSH4 0xC178B9AF EQ PUSH2 0x3D6 JUMPI DUP1 PUSH4 0xC4957FA0 EQ PUSH2 0x3DE JUMPI DUP1 PUSH4 0xCC21C188 EQ PUSH2 0x412 JUMPI DUP1 PUSH4 0xD22D9020 EQ PUSH2 0x425 JUMPI DUP1 PUSH4 0xD68CF8C1 EQ PUSH2 0x438 JUMPI DUP1 PUSH4 0xDCE39151 EQ PUSH2 0x45B JUMPI DUP1 PUSH4 0xF69483C1 EQ PUSH2 0x46E JUMPI JUMPDEST PUSH1 0x0 DUP1 REVERT JUMPDEST PUSH2 0x18D PUSH2 0x188 CALLDATASIZE PUSH1 0x4 PUSH2 0x20D3 JUMP JUMPDEST PUSH2 0x481 JUMP JUMPDEST PUSH1 0x40 MLOAD SWAP1 DUP2 MSTORE PUSH1 0x20 ADD JUMPDEST PUSH1 0x40 MLOAD DUP1 SWAP2 SUB SWAP1 RETURN JUMPDEST PUSH2 0x1B3 PUSH2 0x1AE CALLDATASIZE PUSH1 0x4 PUSH2 0x20D3 JUMP JUMPDEST PUSH2 0x4C8 JUMP JUMPDEST STOP JUMPDEST PUSH2 0x1B3 PUSH2 0x1C3 CALLDATASIZE PUSH1 0x4 PUSH2 0x2314 JUMP JUMPDEST PUSH2 0x51A JUMP JUMPDEST PUSH2 0x1B3 PUSH2 0x1D6 CALLDATASIZE PUSH1 0x4 PUSH2 0x207D JUMP JUMPDEST PUSH2 0x705 JUMP JUMPDEST PUSH2 0x1B3 PUSH2 0x1E9 CALLDATASIZE PUSH1 0x4 PUSH2 0x20D3 JUMP JUMPDEST PUSH2 0x898 JUMP JUMPDEST PUSH2 0x222 PUSH2 0x1FC CALLDATASIZE PUSH1 0x4 PUSH2 0x20D3 JUMP JUMPDEST DUP1 MLOAD PUSH1 0x20 DUP2 DUP4 ADD DUP2 ADD DUP1 MLOAD PUSH1 0x5 DUP3 MSTORE SWAP3 DUP3 ADD SWAP2 SWAP1 SWAP4 ADD KECCAK256 SWAP2 MSTORE SLOAD PUSH1 0x1 PUSH1 0x1 PUSH1 0xA0 SHL SUB AND DUP2 JUMP JUMPDEST PUSH1 0x40 MLOAD PUSH1 0x1 PUSH1 0x1 PUSH1 0xA0 SHL SUB SWAP1 SWAP2 AND DUP2 MSTORE PUSH1 0x20 ADD PUSH2 0x197 JUMP JUMPDEST PUSH2 0x1B3 PUSH2 0x248 CALLDATASIZE PUSH1 0x4 PUSH2 0x2107 JUMP JUMPDEST PUSH2 0x9EF JUMP JUMPDEST PUSH2 0x1B3 PUSH2 0x25B CALLDATASIZE PUSH1 0x4 PUSH2 0x2314 JUMP JUMPDEST PUSH2 0xB53 JUMP JUMPDEST PUSH2 0x1B3 PUSH2 0x26E CALLDATASIZE PUSH1 0x4 PUSH2 0x20D3 JUMP JUMPDEST PUSH2 0xC8B JUMP JUMPDEST PUSH2 0x27B PUSH2 0xD37 JUMP JUMPDEST PUSH1 0x40 MLOAD PUSH2 0x197 SWAP2 SWAP1 PUSH2 0x249A JUMP JUMPDEST PUSH2 0x29B PUSH2 0x296 CALLDATASIZE PUSH1 0x4 PUSH2 0x20D3 JUMP JUMPDEST PUSH2 0xE10 JUMP JUMPDEST PUSH1 0x40 MLOAD SWAP1 ISZERO ISZERO DUP2 MSTORE PUSH1 0x20 ADD PUSH2 0x197 JUMP JUMPDEST PUSH2 0x1B3 PUSH2 0x2B9 CALLDATASIZE PUSH1 0x4 PUSH2 0x20D3 JUMP JUMPDEST PUSH2 0xE5A JUMP JUMPDEST PUSH2 0x29B PUSH2 0x2CC CALLDATASIZE PUSH1 0x4 PUSH2 0x20D3 JUMP JUMPDEST PUSH2 0xE70 JUMP JUMPDEST PUSH2 0x18D PUSH2 0x2DF CALLDATASIZE PUSH1 0x4 PUSH2 0x20D3 JUMP JUMPDEST PUSH2 0xE86 JUMP JUMPDEST PUSH2 0x222 PUSH2 0x2F2 CALLDATASIZE PUSH1 0x4 PUSH2 0x20D3 JUMP JUMPDEST PUSH2 0xE9C JUMP JUMPDEST PUSH2 0x1B3 PUSH2 0x305 CALLDATASIZE PUSH1 0x4 PUSH2 0x228F JUMP JUMPDEST PUSH2 0xF3A JUMP JUMPDEST PUSH2 0x1B3 PUSH2 0x318 CALLDATASIZE PUSH1 0x4 PUSH2 0x21F0 JUMP JUMPDEST PUSH2 0x1031 JUMP JUMPDEST PUSH2 0x330 PUSH2 0x32B CALLDATASIZE PUSH1 0x4 PUSH2 0x22FB JUMP JUMPDEST PUSH2 0x1192 JUMP JUMPDEST PUSH1 0x40 MLOAD PUSH2 0x197 SWAP4 SWAP3 SWAP2 SWAP1 PUSH2 0x242D JUMP JUMPDEST PUSH2 0x18D PUSH2 0x34D CALLDATASIZE PUSH1 0x4 PUSH2 0x20D3 JUMP JUMPDEST PUSH2 0x125D JUMP JUMPDEST PUSH2 0x365 PUSH2 0x360 CALLDATASIZE PUSH1 0x4 PUSH2 0x205B JUMP JUMPDEST PUSH2 0x128D JUMP JUMPDEST PUSH1 0x40 MLOAD PUSH2 0x197 SWAP9 SWAP8 SWAP7 SWAP6 SWAP5 SWAP4 SWAP3 SWAP2 SWAP1 PUSH2 0x2535 JUMP JUMPDEST PUSH2 0x38C PUSH2 0x387 CALLDATASIZE PUSH1 0x4 PUSH2 0x205B JUMP JUMPDEST PUSH2 0x146D JUMP JUMPDEST PUSH1 0x40 MLOAD PUSH2 0x197 SWAP6 SWAP5 SWAP4 SWAP3 SWAP2 SWAP1 PUSH2 0x24FC JUMP JUMPDEST PUSH2 0x18D PUSH2 0x3AB CALLDATASIZE PUSH1 0x4 PUSH2 0x20D3 JUMP JUMPDEST PUSH2 0x1527 JUMP JUMPDEST PUSH2 0x330 PUSH2 0x3BE CALLDATASIZE PUSH1 0x4 PUSH2 0x22FB JUMP JUMPDEST PUSH2 0x172F JUMP JUMPDEST PUSH2 0x1B3 PUSH2 0x3D1 CALLDATASIZE PUSH1 0x4 PUSH2 0x20D3 JUMP JUMPDEST PUSH2 0x173F JUMP JUMPDEST PUSH2 0x27B PUSH2 0x17EB JUMP JUMPDEST PUSH2 0x222 PUSH2 0x3EC CALLDATASIZE PUSH1 0x4 PUSH2 0x20D3 JUMP JUMPDEST DUP1 MLOAD PUSH1 0x20 DUP2 DUP4 ADD DUP2 ADD DUP1 MLOAD PUSH1 0x1 DUP3 MSTORE SWAP3 DUP3 ADD SWAP2 SWAP1 SWAP4 ADD KECCAK256 SWAP2 MSTORE SLOAD PUSH1 0x1 PUSH1 0x1 PUSH1 0xA0 SHL SUB AND DUP2 JUMP JUMPDEST PUSH2 0x1B3 PUSH2 0x420 CALLDATASIZE PUSH1 0x4 PUSH2 0x2234 JUMP JUMPDEST PUSH2 0x18BB JUMP JUMPDEST PUSH2 0x1B3 PUSH2 0x433 CALLDATASIZE PUSH1 0x4 PUSH2 0x21F0 JUMP JUMPDEST PUSH2 0x1B8F JUMP JUMPDEST PUSH2 0x44B PUSH2 0x446 CALLDATASIZE PUSH1 0x4 PUSH2 0x20D3 JUMP JUMPDEST PUSH2 0x1CB5 JUMP JUMPDEST PUSH1 0x40 MLOAD PUSH2 0x197 SWAP5 SWAP4 SWAP3 SWAP2 SWAP1 PUSH2 0x2463 JUMP JUMPDEST PUSH2 0x330 PUSH2 0x469 CALLDATASIZE PUSH1 0x4 PUSH2 0x22FB JUMP JUMPDEST PUSH2 0x1D7B JUMP JUMPDEST PUSH2 0x1B3 PUSH2 0x47C CALLDATASIZE PUSH1 0x4 PUSH2 0x2314 JUMP JUMPDEST PUSH2 0x1D8B JUMP JUMPDEST PUSH1 0x0 DUP1 PUSH1 0x0 PUSH1 0x1 DUP5 PUSH1 0x40 MLOAD PUSH2 0x496 SWAP2 SWAP1 PUSH2 0x2375 JUMP JUMPDEST SWAP1 DUP2 MSTORE PUSH1 0x40 DUP1 MLOAD PUSH1 0x20 SWAP3 DUP2 SWAP1 SUB DUP4 ADD SWAP1 KECCAK256 SLOAD PUSH1 0x1 PUSH1 0x1 PUSH1 0xA0 SHL SUB AND DUP4 MSTORE SWAP1 DUP3 ADD SWAP3 SWAP1 SWAP3 MSTORE ADD PUSH1 0x0 KECCAK256 PUSH1 0x3 ADD SLOAD SWAP3 SWAP2 POP POP JUMP JUMPDEST PUSH1 0x0 DUP1 PUSH1 0x0 PUSH1 0x1 DUP5 PUSH1 0x40 MLOAD PUSH2 0x4DD SWAP2 SWAP1 PUSH2 0x2375 JUMP JUMPDEST SWAP1 DUP2 MSTORE PUSH1 0x40 DUP1 MLOAD PUSH1 0x20 SWAP3 DUP2 SWAP1 SUB DUP4 ADD SWAP1 KECCAK256 SLOAD PUSH1 0x1 PUSH1 0x1 PUSH1 0xA0 SHL SUB AND DUP4 MSTORE SWAP1 DUP3 ADD SWAP3 SWAP1 SWAP3 MSTORE ADD PUSH1 0x0 KECCAK256 PUSH1 0x4 ADD DUP1 SLOAD PUSH1 0xFF NOT AND SWAP2 ISZERO ISZERO SWAP2 SWAP1 SWAP2 OR SWAP1 SSTORE POP JUMP JUMPDEST PUSH1 0x1 DUP2 ISZERO ISZERO EQ ISZERO PUSH2 0x6CA JUMPI PUSH1 0x0 PUSH1 0xA DUP4 DUP2 SLOAD DUP2 LT PUSH2 0x53A JUMPI PUSH2 0x53A PUSH2 0x2755 JUMP JUMPDEST SWAP1 PUSH1 0x0 MSTORE PUSH1 0x20 PUSH1 0x0 KECCAK256 SWAP1 PUSH1 0x3 MUL ADD PUSH1 0x2 ADD PUSH1 0x0 PUSH2 0x100 EXP DUP2 SLOAD DUP2 PUSH1 0xFF MUL NOT AND SWAP1 DUP4 ISZERO ISZERO MUL OR SWAP1 SSTORE POP PUSH1 0x8 PUSH1 0xA DUP4 DUP2 SLOAD DUP2 LT PUSH2 0x577 JUMPI PUSH2 0x577 PUSH2 0x2755 JUMP JUMPDEST SWAP1 PUSH1 0x0 MSTORE PUSH1 0x20 PUSH1 0x0 KECCAK256 SWAP1 PUSH1 0x3 MUL ADD PUSH1 0x1 ADD PUSH1 0x40 MLOAD PUSH2 0x595 SWAP2 SWAP1 PUSH2 0x2391 JUMP JUMPDEST SWAP1 DUP2 MSTORE PUSH1 0x20 ADD PUSH1 0x40 MLOAD DUP1 SWAP2 SUB SWAP1 KECCAK256 PUSH1 0x2 ADD SLOAD PUSH1 0x4 PUSH1 0x0 PUSH1 0xA DUP6 DUP2 SLOAD DUP2 LT PUSH2 0x5BE JUMPI PUSH2 0x5BE PUSH2 0x2755 JUMP JUMPDEST PUSH1 0x0 SWAP2 DUP3 MSTORE PUSH1 0x20 DUP1 DUP4 KECCAK256 PUSH1 0x3 SWAP1 SWAP3 MUL SWAP1 SWAP2 ADD SLOAD PUSH1 0x1 PUSH1 0x1 PUSH1 0xA0 SHL SUB AND DUP4 MSTORE DUP3 ADD SWAP3 SWAP1 SWAP3 MSTORE PUSH1 0x40 ADD SWAP1 KECCAK256 PUSH1 0x2 ADD SLOAD PUSH2 0x5F5 SWAP2 SWAP1 PUSH2 0x26A6 JUMP JUMPDEST PUSH1 0x4 PUSH1 0x0 PUSH1 0xA DUP6 DUP2 SLOAD DUP2 LT PUSH2 0x60C JUMPI PUSH2 0x60C PUSH2 0x2755 JUMP JUMPDEST PUSH1 0x0 SWAP2 DUP3 MSTORE PUSH1 0x20 DUP1 DUP4 KECCAK256 PUSH1 0x3 SWAP1 SWAP3 MUL SWAP1 SWAP2 ADD SLOAD PUSH1 0x1 PUSH1 0x1 PUSH1 0xA0 SHL SUB AND DUP4 MSTORE DUP3 ADD SWAP3 SWAP1 SWAP3 MSTORE PUSH1 0x40 ADD SWAP1 KECCAK256 PUSH1 0x2 ADD SSTORE PUSH1 0xA DUP1 SLOAD PUSH1 0x8 SWAP2 SWAP1 DUP5 SWAP1 DUP2 LT PUSH2 0x651 JUMPI PUSH2 0x651 PUSH2 0x2755 JUMP JUMPDEST SWAP1 PUSH1 0x0 MSTORE PUSH1 0x20 PUSH1 0x0 KECCAK256 SWAP1 PUSH1 0x3 MUL ADD PUSH1 0x1 ADD PUSH1 0x40 MLOAD PUSH2 0x66F SWAP2 SWAP1 PUSH2 0x2391 JUMP JUMPDEST SWAP1 DUP2 MSTORE PUSH1 0x20 ADD PUSH1 0x40 MLOAD DUP1 SWAP2 SUB SWAP1 KECCAK256 PUSH1 0x2 ADD SLOAD PUSH1 0x0 DUP1 CALLER PUSH1 0x1 PUSH1 0x1 PUSH1 0xA0 SHL SUB AND PUSH1 0x1 PUSH1 0x1 PUSH1 0xA0 SHL SUB AND DUP2 MSTORE PUSH1 0x20 ADD SWAP1 DUP2 MSTORE PUSH1 0x20 ADD PUSH1 0x0 KECCAK256 PUSH1 0x2 ADD SLOAD PUSH2 0x6B3 SWAP2 SWAP1 PUSH2 0x266C JUMP JUMPDEST CALLER PUSH1 0x0 SWAP1 DUP2 MSTORE PUSH1 0x20 DUP2 SWAP1 MSTORE PUSH1 0x40 SWAP1 KECCAK256 PUSH1 0x2 ADD SSTORE POP POP JUMP JUMPDEST PUSH1 0x0 PUSH1 0xA DUP4 DUP2 SLOAD DUP2 LT PUSH2 0x6DF JUMPI PUSH2 0x6DF PUSH2 0x2755 JUMP JUMPDEST PUSH1 0x0 SWAP2 DUP3 MSTORE PUSH1 0x20 SWAP1 SWAP2 KECCAK256 PUSH1 0x3 SWAP1 SWAP2 MUL ADD PUSH1 0x2 ADD DUP1 SLOAD PUSH1 0xFF NOT AND SWAP2 ISZERO ISZERO SWAP2 SWAP1 SWAP2 OR SWAP1 SSTORE POP POP JUMP JUMPDEST PUSH1 0x0 PUSH1 0x1 PUSH1 0x1 PUSH1 0xA0 SHL SUB AND PUSH1 0x5 DUP4 PUSH1 0x40 MLOAD PUSH2 0x720 SWAP2 SWAP1 PUSH2 0x2375 JUMP JUMPDEST SWAP1 DUP2 MSTORE PUSH1 0x40 MLOAD SWAP1 DUP2 SWAP1 SUB PUSH1 0x20 ADD SWAP1 KECCAK256 SLOAD PUSH1 0x1 PUSH1 0x1 PUSH1 0xA0 SHL SUB AND EQ PUSH2 0x787 JUMPI PUSH1 0x40 MLOAD PUSH3 0x461BCD PUSH1 0xE5 SHL DUP2 MSTORE PUSH1 0x20 PUSH1 0x4 DUP3 ADD MSTORE PUSH1 0x19 PUSH1 0x24 DUP3 ADD MSTORE PUSH25 0x115C9C9BDC8E88155CD95C88185B1C9958591E48195E1A5CDD PUSH1 0x3A SHL PUSH1 0x44 DUP3 ADD MSTORE PUSH1 0x64 ADD JUMPDEST PUSH1 0x40 MLOAD DUP1 SWAP2 SUB SWAP1 REVERT JUMPDEST PUSH1 0x40 DUP1 MLOAD PUSH1 0xA0 DUP2 ADD DUP3 MSTORE DUP4 DUP2 MSTORE PUSH1 0x20 DUP1 DUP3 ADD DUP5 SWAP1 MSTORE PUSH2 0x3E8 DUP3 DUP5 ADD MSTORE PUSH1 0x0 PUSH1 0x60 DUP4 ADD DUP2 SWAP1 MSTORE PUSH1 0x80 DUP4 ADD DUP2 SWAP1 MSTORE PUSH1 0x1 PUSH1 0x1 PUSH1 0xA0 SHL SUB DUP8 AND DUP2 MSTORE PUSH1 0x4 DUP3 MSTORE SWAP3 SWAP1 SWAP3 KECCAK256 DUP2 MLOAD DUP1 MLOAD SWAP3 SWAP4 SWAP2 SWAP3 PUSH2 0x7DC SWAP3 DUP5 SWAP3 ADD SWAP1 PUSH2 0x1E84 JUMP JUMPDEST POP PUSH1 0x20 DUP3 ADD MLOAD PUSH1 0x1 DUP3 ADD SSTORE PUSH1 0x40 DUP1 DUP4 ADD MLOAD PUSH1 0x2 DUP4 ADD SSTORE PUSH1 0x60 DUP4 ADD MLOAD PUSH1 0x3 DUP4 ADD SSTORE PUSH1 0x80 SWAP1 SWAP3 ADD MLOAD PUSH1 0x4 SWAP1 SWAP2 ADD DUP1 SLOAD PUSH1 0xFF NOT AND SWAP2 ISZERO ISZERO SWAP2 SWAP1 SWAP2 OR SWAP1 SSTORE MLOAD DUP4 SWAP1 PUSH1 0x5 SWAP1 PUSH2 0x827 SWAP1 DUP6 SWAP1 PUSH2 0x2375 JUMP JUMPDEST SWAP1 DUP2 MSTORE PUSH1 0x40 MLOAD SWAP1 DUP2 SWAP1 SUB PUSH1 0x20 ADD SWAP1 KECCAK256 DUP1 SLOAD PUSH1 0x1 PUSH1 0x1 PUSH1 0xA0 SHL SUB SWAP3 DUP4 AND PUSH1 0x1 PUSH1 0x1 PUSH1 0xA0 SHL SUB NOT SWAP2 DUP3 AND OR SWAP1 SWAP2 SSTORE PUSH1 0x7 DUP1 SLOAD PUSH1 0x1 DUP2 ADD DUP3 SSTORE PUSH1 0x0 SWAP2 SWAP1 SWAP2 MSTORE PUSH32 0xA66CC928B5EDB82AF9BD49922954155AB7B0942694BEA4CE44661D9A8736C688 ADD DUP1 SLOAD SWAP6 SWAP1 SWAP3 AND SWAP5 AND SWAP4 SWAP1 SWAP4 OR SWAP1 SWAP3 SSTORE POP POP JUMP JUMPDEST PUSH1 0x8 DUP2 PUSH1 0x40 MLOAD PUSH2 0x8A8 SWAP2 SWAP1 PUSH2 0x2375 JUMP JUMPDEST SWAP1 DUP2 MSTORE PUSH1 0x20 ADD PUSH1 0x40 MLOAD DUP1 SWAP2 SUB SWAP1 KECCAK256 PUSH1 0x2 ADD SLOAD PUSH1 0x4 PUSH1 0x0 CALLER PUSH1 0x1 PUSH1 0x1 PUSH1 0xA0 SHL SUB AND PUSH1 0x1 PUSH1 0x1 PUSH1 0xA0 SHL SUB AND DUP2 MSTORE PUSH1 0x20 ADD SWAP1 DUP2 MSTORE PUSH1 0x20 ADD PUSH1 0x0 KECCAK256 PUSH1 0x2 ADD SLOAD LT ISZERO PUSH2 0x924 JUMPI PUSH1 0x40 MLOAD PUSH3 0x461BCD PUSH1 0xE5 SHL DUP2 MSTORE PUSH1 0x20 PUSH1 0x4 DUP3 ADD MSTORE PUSH1 0x10 PUSH1 0x24 DUP3 ADD MSTORE PUSH16 0x6572726F723A206E6F74206D6F6E6579 PUSH1 0x80 SHL PUSH1 0x44 DUP3 ADD MSTORE PUSH1 0x64 ADD PUSH2 0x77E JUMP JUMPDEST PUSH1 0x40 DUP1 MLOAD PUSH1 0x60 DUP2 ADD DUP3 MSTORE CALLER DUP2 MSTORE PUSH1 0x20 DUP1 DUP3 ADD DUP5 DUP2 MSTORE PUSH1 0x1 SWAP4 DUP4 ADD DUP5 SWAP1 MSTORE PUSH1 0xA DUP1 SLOAD SWAP5 DUP6 ADD DUP2 SSTORE PUSH1 0x0 MSTORE DUP3 MLOAD PUSH32 0xC65A7BB8D6351C1CF70C95A316CC6A92839C986682D98BC35F958F4883F9D2A8 PUSH1 0x3 SWAP1 SWAP6 MUL SWAP5 DUP6 ADD DUP1 SLOAD PUSH1 0x1 PUSH1 0x1 PUSH1 0xA0 SHL SUB NOT AND PUSH1 0x1 PUSH1 0x1 PUSH1 0xA0 SHL SUB SWAP1 SWAP3 AND SWAP2 SWAP1 SWAP2 OR DUP2 SSTORE SWAP1 MLOAD DUP1 MLOAD SWAP4 SWAP5 SWAP2 SWAP4 PUSH2 0x9D0 SWAP4 PUSH32 0xC65A7BB8D6351C1CF70C95A316CC6A92839C986682D98BC35F958F4883F9D2A9 SWAP1 SWAP4 ADD SWAP3 SWAP2 SWAP1 SWAP2 ADD SWAP1 PUSH2 0x1E84 JUMP JUMPDEST POP PUSH1 0x40 SWAP2 SWAP1 SWAP2 ADD MLOAD PUSH1 0x2 SWAP1 SWAP2 ADD DUP1 SLOAD PUSH1 0xFF NOT AND SWAP2 ISZERO ISZERO SWAP2 SWAP1 SWAP2 OR SWAP1 SSTORE POP JUMP JUMPDEST PUSH1 0x0 JUMPDEST PUSH1 0x3 SLOAD DUP2 LT ISZERO PUSH2 0xB4E JUMPI PUSH1 0x0 PUSH1 0x3 DUP3 DUP2 SLOAD DUP2 LT PUSH2 0xA11 JUMPI PUSH2 0xA11 PUSH2 0x2755 JUMP JUMPDEST SWAP1 PUSH1 0x0 MSTORE PUSH1 0x20 PUSH1 0x0 KECCAK256 SWAP1 PUSH1 0x5 MUL ADD PUSH1 0x1 ADD DUP1 SLOAD PUSH2 0xA2D SWAP1 PUSH2 0x26E9 JUMP JUMPDEST DUP1 PUSH1 0x1F ADD PUSH1 0x20 DUP1 SWAP2 DIV MUL PUSH1 0x20 ADD PUSH1 0x40 MLOAD SWAP1 DUP2 ADD PUSH1 0x40 MSTORE DUP1 SWAP3 SWAP2 SWAP1 DUP2 DUP2 MSTORE PUSH1 0x20 ADD DUP3 DUP1 SLOAD PUSH2 0xA59 SWAP1 PUSH2 0x26E9 JUMP JUMPDEST DUP1 ISZERO PUSH2 0xAA6 JUMPI DUP1 PUSH1 0x1F LT PUSH2 0xA7B JUMPI PUSH2 0x100 DUP1 DUP4 SLOAD DIV MUL DUP4 MSTORE SWAP2 PUSH1 0x20 ADD SWAP2 PUSH2 0xAA6 JUMP JUMPDEST DUP3 ADD SWAP2 SWAP1 PUSH1 0x0 MSTORE PUSH1 0x20 PUSH1 0x0 KECCAK256 SWAP1 JUMPDEST DUP2 SLOAD DUP2 MSTORE SWAP1 PUSH1 0x1 ADD SWAP1 PUSH1 0x20 ADD DUP1 DUP4 GT PUSH2 0xA89 JUMPI DUP3 SWAP1 SUB PUSH1 0x1F AND DUP3 ADD SWAP2 JUMPDEST POP POP POP POP POP SWAP1 POP DUP4 PUSH1 0x40 MLOAD PUSH1 0x20 ADD PUSH2 0xABE SWAP2 SWAP1 PUSH2 0x2375 JUMP JUMPDEST PUSH1 0x40 MLOAD PUSH1 0x20 DUP2 DUP4 SUB SUB DUP2 MSTORE SWAP1 PUSH1 0x40 MSTORE DUP1 MLOAD SWAP1 PUSH1 0x20 ADD KECCAK256 DUP2 PUSH1 0x40 MLOAD PUSH1 0x20 ADD PUSH2 0xAE5 SWAP2 SWAP1 PUSH2 0x2375 JUMP JUMPDEST PUSH1 0x40 MLOAD PUSH1 0x20 DUP2 DUP4 SUB SUB DUP2 MSTORE SWAP1 PUSH1 0x40 MSTORE DUP1 MLOAD SWAP1 PUSH1 0x20 ADD KECCAK256 EQ ISZERO PUSH2 0xB3B JUMPI DUP3 PUSH1 0x3 DUP4 DUP2 SLOAD DUP2 LT PUSH2 0xB15 JUMPI PUSH2 0xB15 PUSH2 0x2755 JUMP JUMPDEST SWAP1 PUSH1 0x0 MSTORE PUSH1 0x20 PUSH1 0x0 KECCAK256 SWAP1 PUSH1 0x5 MUL ADD PUSH1 0x4 ADD SWAP1 DUP1 MLOAD SWAP1 PUSH1 0x20 ADD SWAP1 PUSH2 0xB39 SWAP3 SWAP2 SWAP1 PUSH2 0x1F08 JUMP JUMPDEST POP JUMPDEST POP DUP1 PUSH2 0xB46 DUP2 PUSH2 0x2724 JUMP JUMPDEST SWAP2 POP POP PUSH2 0x9F2 JUMP JUMPDEST POP POP POP JUMP JUMPDEST PUSH1 0x1 DUP2 ISZERO ISZERO EQ ISZERO PUSH2 0xC76 JUMPI PUSH1 0x0 PUSH1 0xB DUP4 DUP2 SLOAD DUP2 LT PUSH2 0xB73 JUMPI PUSH2 0xB73 PUSH2 0x2755 JUMP JUMPDEST SWAP1 PUSH1 0x0 MSTORE PUSH1 0x20 PUSH1 0x0 KECCAK256 SWAP1 PUSH1 0x3 MUL ADD PUSH1 0x2 ADD PUSH1 0x0 PUSH2 0x100 EXP DUP2 SLOAD DUP2 PUSH1 0xFF MUL NOT AND SWAP1 DUP4 ISZERO ISZERO MUL OR SWAP1 SSTORE POP PUSH1 0x8 PUSH1 0xB DUP4 DUP2 SLOAD DUP2 LT PUSH2 0xBB0 JUMPI PUSH2 0xBB0 PUSH2 0x2755 JUMP JUMPDEST SWAP1 PUSH1 0x0 MSTORE PUSH1 0x20 PUSH1 0x0 KECCAK256 SWAP1 PUSH1 0x3 MUL ADD PUSH1 0x1 ADD PUSH1 0x40 MLOAD PUSH2 0xBCE SWAP2 SWAP1 PUSH2 0x2391 JUMP JUMPDEST SWAP1 DUP2 MSTORE PUSH1 0x20 ADD PUSH1 0x40 MLOAD DUP1 SWAP2 SUB SWAP1 KECCAK256 PUSH1 0x2 ADD SLOAD PUSH1 0x4 PUSH1 0x0 PUSH1 0xB DUP6 DUP2 SLOAD DUP2 LT PUSH2 0xBF7 JUMPI PUSH2 0xBF7 PUSH2 0x2755 JUMP JUMPDEST PUSH1 0x0 SWAP2 DUP3 MSTORE PUSH1 0x20 DUP1 DUP4 KECCAK256 PUSH1 0x3 SWAP1 SWAP3 MUL SWAP1 SWAP2 ADD SLOAD PUSH1 0x1 PUSH1 0x1 PUSH1 0xA0 SHL SUB AND DUP4 MSTORE DUP3 ADD SWAP3 SWAP1 SWAP3 MSTORE PUSH1 0x40 ADD SWAP1 KECCAK256 PUSH1 0x2 ADD SLOAD PUSH2 0xC2E SWAP2 SWAP1 PUSH2 0x266C JUMP JUMPDEST PUSH1 0x4 PUSH1 0x0 PUSH1 0xB DUP6 DUP2 SLOAD DUP2 LT PUSH2 0xC45 JUMPI PUSH2 0xC45 PUSH2 0x2755 JUMP JUMPDEST PUSH1 0x0 SWAP2 DUP3 MSTORE PUSH1 0x20 DUP1 DUP4 KECCAK256 PUSH1 0x3 SWAP1 SWAP3 MUL SWAP1 SWAP2 ADD SLOAD PUSH1 0x1 PUSH1 0x1 PUSH1 0xA0 SHL SUB AND DUP4 MSTORE DUP3 ADD SWAP3 SWAP1 SWAP3 MSTORE PUSH1 0x40 ADD SWAP1 KECCAK256 PUSH1 0x2 ADD SSTORE POP POP JUMP JUMPDEST PUSH1 0x0 PUSH1 0xB DUP4 DUP2 SLOAD DUP2 LT PUSH2 0x6DF JUMPI PUSH2 0x6DF PUSH2 0x2755 JUMP JUMPDEST PUSH1 0x40 DUP1 MLOAD PUSH1 0x60 DUP2 ADD DUP3 MSTORE CALLER DUP2 MSTORE PUSH1 0x20 DUP1 DUP3 ADD DUP5 DUP2 MSTORE PUSH1 0x1 SWAP4 DUP4 ADD DUP5 SWAP1 MSTORE PUSH1 0xC DUP1 SLOAD SWAP5 DUP6 ADD DUP2 SSTORE PUSH1 0x0 MSTORE DUP3 MLOAD PUSH32 0xDF6966C971051C3D54EC59162606531493A51404A002842F56009D7E5CF4A8C7 PUSH1 0x3 SWAP1 SWAP6 MUL SWAP5 DUP6 ADD DUP1 SLOAD PUSH1 0x1 PUSH1 0x1 PUSH1 0xA0 SHL SUB NOT AND PUSH1 0x1 PUSH1 0x1 PUSH1 0xA0 SHL SUB SWAP1 SWAP3 AND SWAP2 SWAP1 SWAP2 OR DUP2 SSTORE SWAP1 MLOAD DUP1 MLOAD SWAP4 SWAP5 SWAP2 SWAP4 PUSH2 0x9D0 SWAP4 PUSH32 0xDF6966C971051C3D54EC59162606531493A51404A002842F56009D7E5CF4A8C8 SWAP1 SWAP4 ADD SWAP3 SWAP2 SWAP1 SWAP2 ADD SWAP1 PUSH2 0x1E84 JUMP JUMPDEST PUSH1 0x60 PUSH1 0x9 DUP1 SLOAD DUP1 PUSH1 0x20 MUL PUSH1 0x20 ADD PUSH1 0x40 MLOAD SWAP1 DUP2 ADD PUSH1 0x40 MSTORE DUP1 SWAP3 SWAP2 SWAP1 DUP2 DUP2 MSTORE PUSH1 0x20 ADD PUSH1 0x0 SWAP1 JUMPDEST DUP3 DUP3 LT ISZERO PUSH2 0xE07 JUMPI DUP4 DUP3 SWAP1 PUSH1 0x0 MSTORE PUSH1 0x20 PUSH1 0x0 KECCAK256 ADD DUP1 SLOAD PUSH2 0xD7A SWAP1 PUSH2 0x26E9 JUMP JUMPDEST DUP1 PUSH1 0x1F ADD PUSH1 0x20 DUP1 SWAP2 DIV MUL PUSH1 0x20 ADD PUSH1 0x40 MLOAD SWAP1 DUP2 ADD PUSH1 0x40 MSTORE DUP1 SWAP3 SWAP2 SWAP1 DUP2 DUP2 MSTORE PUSH1 0x20 ADD DUP3 DUP1 SLOAD PUSH2 0xDA6 SWAP1 PUSH2 0x26E9 JUMP JUMPDEST DUP1 ISZERO PUSH2 0xDF3 JUMPI DUP1 PUSH1 0x1F LT PUSH2 0xDC8 JUMPI PUSH2 0x100 DUP1 DUP4 SLOAD DIV MUL DUP4 MSTORE SWAP2 PUSH1 0x20 ADD SWAP2 PUSH2 0xDF3 JUMP JUMPDEST DUP3 ADD SWAP2 SWAP1 PUSH1 0x0 MSTORE PUSH1 0x20 PUSH1 0x0 KECCAK256 SWAP1 JUMPDEST DUP2 SLOAD DUP2 MSTORE SWAP1 PUSH1 0x1 ADD SWAP1 PUSH1 0x20 ADD DUP1 DUP4 GT PUSH2 0xDD6 JUMPI DUP3 SWAP1 SUB PUSH1 0x1F AND DUP3 ADD SWAP2 JUMPDEST POP POP POP POP POP DUP2 MSTORE PUSH1 0x20 ADD SWAP1 PUSH1 0x1 ADD SWAP1 PUSH2 0xD5B JUMP JUMPDEST POP POP POP POP SWAP1 POP SWAP1 JUMP JUMPDEST PUSH1 0x0 DUP1 PUSH1 0x0 PUSH1 0x1 DUP5 PUSH1 0x40 MLOAD PUSH2 0xE25 SWAP2 SWAP1 PUSH2 0x2375 JUMP JUMPDEST SWAP1 DUP2 MSTORE PUSH1 0x40 DUP1 MLOAD PUSH1 0x20 SWAP3 DUP2 SWAP1 SUB DUP4 ADD SWAP1 KECCAK256 SLOAD PUSH1 0x1 PUSH1 0x1 PUSH1 0xA0 SHL SUB AND DUP4 MSTORE SWAP1 DUP3 ADD SWAP3 SWAP1 SWAP3 MSTORE ADD PUSH1 0x0 KECCAK256 PUSH1 0x4 ADD SLOAD PUSH1 0xFF AND SWAP3 SWAP2 POP POP JUMP JUMPDEST PUSH1 0x0 PUSH1 0x4 PUSH1 0x0 PUSH1 0x5 DUP5 PUSH1 0x40 MLOAD PUSH2 0x4DD SWAP2 SWAP1 PUSH2 0x2375 JUMP JUMPDEST PUSH1 0x0 PUSH1 0x4 PUSH1 0x0 PUSH1 0x5 DUP5 PUSH1 0x40 MLOAD PUSH2 0xE25 SWAP2 SWAP1 PUSH2 0x2375 JUMP JUMPDEST PUSH1 0x0 PUSH1 0x4 PUSH1 0x0 PUSH1 0x5 DUP5 PUSH1 0x40 MLOAD PUSH2 0x496 SWAP2 SWAP1 PUSH2 0x2375 JUMP JUMPDEST PUSH1 0x0 DUP1 PUSH1 0x0 PUSH1 0x1 PUSH1 0x1 PUSH1 0xA0 SHL SUB AND PUSH1 0x5 DUP5 PUSH1 0x40 MLOAD PUSH2 0xEBA SWAP2 SWAP1 PUSH2 0x2375 JUMP JUMPDEST SWAP1 DUP2 MSTORE PUSH1 0x40 MLOAD SWAP1 DUP2 SWAP1 SUB PUSH1 0x20 ADD SWAP1 KECCAK256 SLOAD PUSH1 0x1 PUSH1 0x1 PUSH1 0xA0 SHL SUB AND EQ PUSH2 0xF08 JUMPI PUSH1 0x5 DUP4 PUSH1 0x40 MLOAD PUSH2 0xEE8 SWAP2 SWAP1 PUSH2 0x2375 JUMP JUMPDEST SWAP1 DUP2 MSTORE PUSH1 0x40 MLOAD SWAP1 DUP2 SWAP1 SUB PUSH1 0x20 ADD SWAP1 KECCAK256 SLOAD PUSH1 0x1 PUSH1 0x1 PUSH1 0xA0 SHL SUB AND SWAP1 POP PUSH2 0xF34 JUMP JUMPDEST PUSH1 0x1 DUP4 PUSH1 0x40 MLOAD PUSH2 0xF18 SWAP2 SWAP1 PUSH2 0x2375 JUMP JUMPDEST SWAP1 DUP2 MSTORE PUSH1 0x40 MLOAD SWAP1 DUP2 SWAP1 SUB PUSH1 0x20 ADD SWAP1 KECCAK256 SLOAD PUSH1 0x1 PUSH1 0x1 PUSH1 0xA0 SHL SUB AND SWAP1 POP JUMPDEST SWAP3 SWAP2 POP POP JUMP JUMPDEST PUSH1 0x40 MLOAD DUP1 PUSH1 0x80 ADD PUSH1 0x40 MSTORE DUP1 CALLER PUSH1 0x1 PUSH1 0x1 PUSH1 0xA0 SHL SUB AND DUP2 MSTORE PUSH1 0x20 ADD DUP3 DUP2 MSTORE PUSH1 0x20 ADD DUP4 DUP2 MSTORE PUSH1 0x20 ADD PUSH1 0xD SLOAD DUP2 MSTORE POP PUSH1 0x8 DUP5 PUSH1 0x40 MLOAD PUSH2 0xF76 SWAP2 SWAP1 PUSH2 0x2375 JUMP JUMPDEST SWAP1 DUP2 MSTORE PUSH1 0x40 MLOAD PUSH1 0x20 SWAP2 DUP2 SWAP1 SUB DUP3 ADD SWAP1 KECCAK256 DUP3 MLOAD DUP2 SLOAD PUSH1 0x1 PUSH1 0x1 PUSH1 0xA0 SHL SUB NOT AND PUSH1 0x1 PUSH1 0x1 PUSH1 0xA0 SHL SUB SWAP1 SWAP2 AND OR DUP2 SSTORE DUP3 DUP3 ADD MLOAD DUP1 MLOAD SWAP2 SWAP3 PUSH2 0xFBC SWAP3 PUSH1 0x1 DUP6 ADD SWAP3 SWAP1 SWAP2 ADD SWAP1 PUSH2 0x1E84 JUMP JUMPDEST POP PUSH1 0x40 DUP3 ADD MLOAD PUSH1 0x2 DUP3 ADD SSTORE PUSH1 0x60 SWAP1 SWAP2 ADD MLOAD PUSH1 0x3 SWAP1 SWAP2 ADD SSTORE PUSH1 0x9 DUP1 SLOAD PUSH1 0x1 DUP2 ADD DUP3 SSTORE PUSH1 0x0 SWAP2 SWAP1 SWAP2 MSTORE DUP4 MLOAD PUSH2 0x1016 SWAP2 PUSH32 0x6E1540171B6C0C960B71A7020D9F60077F6AF931A8BBF590DA0223DACF75C7AF ADD SWAP1 PUSH1 0x20 DUP7 ADD SWAP1 PUSH2 0x1E84 JUMP JUMPDEST POP PUSH1 0xD DUP1 SLOAD SWAP1 PUSH1 0x0 PUSH2 0x1027 DUP4 PUSH2 0x2724 JUMP JUMPDEST SWAP2 SWAP1 POP SSTORE POP POP POP POP JUMP JUMPDEST PUSH1 0x0 DUP1 PUSH1 0x1 DUP5 PUSH1 0x40 MLOAD PUSH2 0x1044 SWAP2 SWAP1 PUSH2 0x2375 JUMP JUMPDEST SWAP1 DUP2 MSTORE PUSH1 0x40 DUP1 MLOAD PUSH1 0x20 SWAP3 DUP2 SWAP1 SUB DUP4 ADD SWAP1 KECCAK256 SLOAD PUSH1 0x1 PUSH1 0x1 PUSH1 0xA0 SHL SUB AND DUP4 MSTORE SWAP1 DUP3 ADD SWAP3 SWAP1 SWAP3 MSTORE ADD PUSH1 0x0 KECCAK256 PUSH1 0x4 ADD SLOAD PUSH1 0xFF AND ISZERO PUSH2 0x1090 JUMPI PUSH1 0x40 MLOAD PUSH3 0x461BCD PUSH1 0xE5 SHL DUP2 MSTORE PUSH1 0x4 ADD PUSH2 0x77E SWAP1 PUSH2 0x2605 JUMP JUMPDEST PUSH1 0x0 PUSH1 0x1 PUSH1 0x1 PUSH1 0xA0 SHL SUB AND PUSH1 0x1 DUP4 PUSH1 0x40 MLOAD PUSH2 0x10AB SWAP2 SWAP1 PUSH2 0x2375 JUMP JUMPDEST SWAP1 DUP2 MSTORE PUSH1 0x40 MLOAD SWAP1 DUP2 SWAP1 SUB PUSH1 0x20 ADD SWAP1 KECCAK256 SLOAD PUSH1 0x1 PUSH1 0x1 PUSH1 0xA0 SHL SUB AND EQ ISZERO PUSH2 0x10E2 JUMPI PUSH1 0x40 MLOAD PUSH3 0x461BCD PUSH1 0xE5 SHL DUP2 MSTORE PUSH1 0x4 ADD PUSH2 0x77E SWAP1 PUSH2 0x25D2 JUMP JUMPDEST DUP1 PUSH1 0x0 DUP1 PUSH1 0x1 DUP6 PUSH1 0x40 MLOAD PUSH2 0x10F6 SWAP2 SWAP1 PUSH2 0x2375 JUMP JUMPDEST SWAP1 DUP2 MSTORE PUSH1 0x40 DUP1 MLOAD PUSH1 0x20 SWAP3 DUP2 SWAP1 SUB DUP4 ADD SWAP1 KECCAK256 SLOAD PUSH1 0x1 PUSH1 0x1 PUSH1 0xA0 SHL SUB AND DUP4 MSTORE SWAP1 DUP3 ADD SWAP3 SWAP1 SWAP3 MSTORE ADD PUSH1 0x0 KECCAK256 PUSH1 0x1 ADD SLOAD EQ PUSH2 0x113F JUMPI PUSH1 0x40 MLOAD PUSH3 0x461BCD PUSH1 0xE5 SHL DUP2 MSTORE PUSH1 0x4 ADD PUSH2 0x77E SWAP1 PUSH2 0x25A1 JUMP JUMPDEST PUSH1 0x1 PUSH1 0x0 DUP1 PUSH1 0x1 DUP6 PUSH1 0x40 MLOAD PUSH2 0x1154 SWAP2 SWAP1 PUSH2 0x2375 JUMP JUMPDEST SWAP1 DUP2 MSTORE PUSH1 0x40 DUP1 MLOAD PUSH1 0x20 SWAP3 DUP2 SWAP1 SUB DUP4 ADD SWAP1 KECCAK256 SLOAD PUSH1 0x1 PUSH1 0x1 PUSH1 0xA0 SHL SUB AND DUP4 MSTORE SWAP1 DUP3 ADD SWAP3 SWAP1 SWAP3 MSTORE ADD PUSH1 0x0 KECCAK256 PUSH1 0x4 ADD DUP1 SLOAD PUSH1 0xFF NOT AND SWAP2 ISZERO ISZERO SWAP2 SWAP1 SWAP2 OR SWAP1 SSTORE POP POP JUMP JUMPDEST PUSH1 0xC DUP2 DUP2 SLOAD DUP2 LT PUSH2 0x11A2 JUMPI PUSH1 0x0 DUP1 REVERT JUMPDEST PUSH1 0x0 SWAP2 DUP3 MSTORE PUSH1 0x20 SWAP1 SWAP2 KECCAK256 PUSH1 0x3 SWAP1 SWAP2 MUL ADD DUP1 SLOAD PUSH1 0x1 DUP3 ADD DUP1 SLOAD PUSH1 0x1 PUSH1 0x1 PUSH1 0xA0 SHL SUB SWAP1 SWAP3 AND SWAP4 POP SWAP1 PUSH2 0x11D1 SWAP1 PUSH2 0x26E9 JUMP JUMPDEST DUP1 PUSH1 0x1F ADD PUSH1 0x20 DUP1 SWAP2 DIV MUL PUSH1 0x20 ADD PUSH1 0x40 MLOAD SWAP1 DUP2 ADD PUSH1 0x40 MSTORE DUP1 SWAP3 SWAP2 SWAP1 DUP2 DUP2 MSTORE PUSH1 0x20 ADD DUP3 DUP1 SLOAD PUSH2 0x11FD SWAP1 PUSH2 0x26E9 JUMP JUMPDEST DUP1 ISZERO PUSH2 0x124A JUMPI DUP1 PUSH1 0x1F LT PUSH2 0x121F JUMPI PUSH2 0x100 DUP1 DUP4 SLOAD DIV MUL DUP4 MSTORE SWAP2 PUSH1 0x20 ADD SWAP2 PUSH2 0x124A JUMP JUMPDEST DUP3 ADD SWAP2 SWAP1 PUSH1 0x0 MSTORE PUSH1 0x20 PUSH1 0x0 KECCAK256 SWAP1 JUMPDEST DUP2 SLOAD DUP2 MSTORE SWAP1 PUSH1 0x1 ADD SWAP1 PUSH1 0x20 ADD DUP1 DUP4 GT PUSH2 0x122D JUMPI DUP3 SWAP1 SUB PUSH1 0x1F AND DUP3 ADD SWAP2 JUMPDEST POP POP POP PUSH1 0x2 SWAP1 SWAP4 ADD SLOAD SWAP2 SWAP3 POP POP PUSH1 0xFF AND DUP4 JUMP JUMPDEST PUSH1 0x0 DUP2 PUSH1 0x40 MLOAD PUSH1 0x20 ADD PUSH2 0x1270 SWAP2 SWAP1 PUSH2 0x2375 JUMP JUMPDEST PUSH1 0x40 MLOAD PUSH1 0x20 DUP2 DUP4 SUB SUB DUP2 MSTORE SWAP1 PUSH1 0x40 MSTORE DUP1 MLOAD SWAP1 PUSH1 0x20 ADD KECCAK256 SWAP1 POP SWAP2 SWAP1 POP JUMP JUMPDEST PUSH1 0x0 PUSH1 0x20 DUP2 SWAP1 MSTORE SWAP1 DUP2 MSTORE PUSH1 0x40 SWAP1 KECCAK256 DUP1 SLOAD DUP2 SWAP1 PUSH2 0x12A8 SWAP1 PUSH2 0x26E9 JUMP JUMPDEST DUP1 PUSH1 0x1F ADD PUSH1 0x20 DUP1 SWAP2 DIV MUL PUSH1 0x20 ADD PUSH1 0x40 MLOAD SWAP1 DUP2 ADD PUSH1 0x40 MSTORE DUP1 SWAP3 SWAP2 SWAP1 DUP2 DUP2 MSTORE PUSH1 0x20 ADD DUP3 DUP1 SLOAD PUSH2 0x12D4 SWAP1 PUSH2 0x26E9 JUMP JUMPDEST DUP1 ISZERO PUSH2 0x1321 JUMPI DUP1 PUSH1 0x1F LT PUSH2 0x12F6 JUMPI PUSH2 0x100 DUP1 DUP4 SLOAD DIV MUL DUP4 MSTORE SWAP2 PUSH1 0x20 ADD SWAP2 PUSH2 0x1321 JUMP JUMPDEST DUP3 ADD SWAP2 SWAP1 PUSH1 0x0 MSTORE PUSH1 0x20 PUSH1 0x0 KECCAK256 SWAP1 JUMPDEST DUP2 SLOAD DUP2 MSTORE SWAP1 PUSH1 0x1 ADD SWAP1 PUSH1 0x20 ADD DUP1 DUP4 GT PUSH2 0x1304 JUMPI DUP3 SWAP1 SUB PUSH1 0x1F AND DUP3 ADD SWAP2 JUMPDEST POP POP POP PUSH1 0x1 DUP5 ADD SLOAD PUSH1 0x2 DUP6 ADD SLOAD PUSH1 0x3 DUP7 ADD SLOAD PUSH1 0x4 DUP8 ADD SLOAD PUSH1 0x5 DUP9 ADD DUP1 SLOAD SWAP8 SWAP9 SWAP5 SWAP8 SWAP4 SWAP7 POP SWAP2 SWAP5 POP PUSH1 0xFF AND SWAP3 SWAP2 PUSH2 0x1356 SWAP1 PUSH2 0x26E9 JUMP JUMPDEST DUP1 PUSH1 0x1F ADD PUSH1 0x20 DUP1 SWAP2 DIV MUL PUSH1 0x20 ADD PUSH1 0x40 MLOAD SWAP1 DUP2 ADD PUSH1 0x40 MSTORE DUP1 SWAP3 SWAP2 SWAP1 DUP2 DUP2 MSTORE PUSH1 0x20 ADD DUP3 DUP1 SLOAD PUSH2 0x1382 SWAP1 PUSH2 0x26E9 JUMP JUMPDEST DUP1 ISZERO PUSH2 0x13CF JUMPI DUP1 PUSH1 0x1F LT PUSH2 0x13A4 JUMPI PUSH2 0x100 DUP1 DUP4 SLOAD DIV MUL DUP4 MSTORE SWAP2 PUSH1 0x20 ADD SWAP2 PUSH2 0x13CF JUMP JUMPDEST DUP3 ADD SWAP2 SWAP1 PUSH1 0x0 MSTORE PUSH1 0x20 PUSH1 0x0 KECCAK256 SWAP1 JUMPDEST DUP2 SLOAD DUP2 MSTORE SWAP1 PUSH1 0x1 ADD SWAP1 PUSH1 0x20 ADD DUP1 DUP4 GT PUSH2 0x13B2 JUMPI DUP3 SWAP1 SUB PUSH1 0x1F AND DUP3 ADD SWAP2 JUMPDEST POP POP POP POP POP SWAP1 DUP1 PUSH1 0x6 ADD DUP1 SLOAD PUSH2 0x13E4 SWAP1 PUSH2 0x26E9 JUMP JUMPDEST DUP1 PUSH1 0x1F ADD PUSH1 0x20 DUP1 SWAP2 DIV MUL PUSH1 0x20 ADD PUSH1 0x40 MLOAD SWAP1 DUP2 ADD PUSH1 0x40 MSTORE DUP1 SWAP3 SWAP2 SWAP1 DUP2 DUP2 MSTORE PUSH1 0x20 ADD DUP3 DUP1 SLOAD PUSH2 0x1410 SWAP1 PUSH2 0x26E9 JUMP JUMPDEST DUP1 ISZERO PUSH2 0x145D JUMPI DUP1 PUSH1 0x1F LT PUSH2 0x1432 JUMPI PUSH2 0x100 DUP1 DUP4 SLOAD DIV MUL DUP4 MSTORE SWAP2 PUSH1 0x20 ADD SWAP2 PUSH2 0x145D JUMP JUMPDEST DUP3 ADD SWAP2 SWAP1 PUSH1 0x0 MSTORE PUSH1 0x20 PUSH1 0x0 KECCAK256 SWAP1 JUMPDEST DUP2 SLOAD DUP2 MSTORE SWAP1 PUSH1 0x1 ADD SWAP1 PUSH1 0x20 ADD DUP1 DUP4 GT PUSH2 0x1440 JUMPI DUP3 SWAP1 SUB PUSH1 0x1F AND DUP3 ADD SWAP2 JUMPDEST POP POP POP POP POP SWAP1 DUP1 PUSH1 0x7 ADD SLOAD SWAP1 POP DUP9 JUMP JUMPDEST PUSH1 0x4 PUSH1 0x20 MSTORE PUSH1 0x0 SWAP1 DUP2 MSTORE PUSH1 0x40 SWAP1 KECCAK256 DUP1 SLOAD DUP2 SWAP1 PUSH2 0x1488 SWAP1 PUSH2 0x26E9 JUMP JUMPDEST DUP1 PUSH1 0x1F ADD PUSH1 0x20 DUP1 SWAP2 DIV MUL PUSH1 0x20 ADD PUSH1 0x40 MLOAD SWAP1 DUP2 ADD PUSH1 0x40 MSTORE DUP1 SWAP3 SWAP2 SWAP1 DUP2 DUP2 MSTORE PUSH1 0x20 ADD DUP3 DUP1 SLOAD PUSH2 0x14B4 SWAP1 PUSH2 0x26E9 JUMP JUMPDEST DUP1 ISZERO PUSH2 0x1501 JUMPI DUP1 PUSH1 0x1F LT PUSH2 0x14D6 JUMPI PUSH2 0x100 DUP1 DUP4 SLOAD DIV MUL DUP4 MSTORE SWAP2 PUSH1 0x20 ADD SWAP2 PUSH2 0x1501 JUMP JUMPDEST DUP3 ADD SWAP2 SWAP1 PUSH1 0x0 MSTORE PUSH1 0x20 PUSH1 0x0 KECCAK256 SWAP1 JUMPDEST DUP2 SLOAD DUP2 MSTORE SWAP1 PUSH1 0x1 ADD SWAP1 PUSH1 0x20 ADD DUP1 DUP4 GT PUSH2 0x14E4 JUMPI DUP3 SWAP1 SUB PUSH1 0x1F AND DUP3 ADD SWAP2 JUMPDEST POP POP POP POP PUSH1 0x1 DUP4 ADD SLOAD PUSH1 0x2 DUP5 ADD SLOAD PUSH1 0x3 DUP6 ADD SLOAD PUSH1 0x4 SWAP1 SWAP6 ADD SLOAD SWAP4 SWAP5 SWAP2 SWAP4 SWAP1 SWAP3 POP PUSH1 0xFF AND DUP6 JUMP JUMPDEST PUSH1 0x0 DUP1 DUP1 DUP1 JUMPDEST PUSH1 0x2 SLOAD DUP2 LT ISZERO PUSH2 0x1712 JUMPI PUSH1 0x0 PUSH1 0x2 DUP3 DUP2 SLOAD DUP2 LT PUSH2 0x154C JUMPI PUSH2 0x154C PUSH2 0x2755 JUMP JUMPDEST SWAP1 PUSH1 0x0 MSTORE PUSH1 0x20 PUSH1 0x0 KECCAK256 ADD DUP1 SLOAD PUSH2 0x1561 SWAP1 PUSH2 0x26E9 JUMP JUMPDEST DUP1 PUSH1 0x1F ADD PUSH1 0x20 DUP1 SWAP2 DIV MUL PUSH1 0x20 ADD PUSH1 0x40 MLOAD SWAP1 DUP2 ADD PUSH1 0x40 MSTORE DUP1 SWAP3 SWAP2 SWAP1 DUP2 DUP2 MSTORE PUSH1 0x20 ADD DUP3 DUP1 SLOAD PUSH2 0x158D SWAP1 PUSH2 0x26E9 JUMP JUMPDEST DUP1 ISZERO PUSH2 0x15DA JUMPI DUP1 PUSH1 0x1F LT PUSH2 0x15AF JUMPI PUSH2 0x100 DUP1 DUP4 SLOAD DIV MUL DUP4 MSTORE SWAP2 PUSH1 0x20 ADD SWAP2 PUSH2 0x15DA JUMP JUMPDEST DUP3 ADD SWAP2 SWAP1 PUSH1 0x0 MSTORE PUSH1 0x20 PUSH1 0x0 KECCAK256 SWAP1 JUMPDEST DUP2 SLOAD DUP2 MSTORE SWAP1 PUSH1 0x1 ADD SWAP1 PUSH1 0x20 ADD DUP1 DUP4 GT PUSH2 0x15BD JUMPI DUP3 SWAP1 SUB PUSH1 0x1F AND DUP3 ADD SWAP2 JUMPDEST POP POP POP POP POP SWAP1 POP DUP6 PUSH1 0x40 MLOAD PUSH1 0x20 ADD PUSH2 0x15F2 SWAP2 SWAP1 PUSH2 0x2375 JUMP JUMPDEST PUSH1 0x40 MLOAD PUSH1 0x20 DUP2 DUP4 SUB SUB DUP2 MSTORE SWAP1 PUSH1 0x40 MSTORE DUP1 MLOAD SWAP1 PUSH1 0x20 ADD KECCAK256 DUP2 PUSH1 0x40 MLOAD PUSH1 0x20 ADD PUSH2 0x1619 SWAP2 SWAP1 PUSH2 0x2375 JUMP JUMPDEST PUSH1 0x40 MLOAD PUSH1 0x20 DUP2 DUP4 SUB SUB DUP2 MSTORE SWAP1 PUSH1 0x40 MSTORE DUP1 MLOAD SWAP1 PUSH1 0x20 ADD KECCAK256 EQ ISZERO PUSH2 0x16FF JUMPI PUSH1 0x0 SWAP2 POP JUMPDEST PUSH1 0x3 SLOAD DUP3 GT PUSH2 0x16FF JUMPI PUSH1 0x3 DUP3 DUP2 SLOAD DUP2 LT PUSH2 0x1656 JUMPI PUSH2 0x1656 PUSH2 0x2755 JUMP JUMPDEST SWAP1 PUSH1 0x0 MSTORE PUSH1 0x20 PUSH1 0x0 KECCAK256 SWAP1 PUSH1 0x5 MUL ADD PUSH1 0x0 ADD PUSH1 0x40 MLOAD PUSH1 0x20 ADD PUSH2 0x1677 SWAP2 SWAP1 PUSH2 0x2391 JUMP JUMPDEST PUSH1 0x40 MLOAD PUSH1 0x20 DUP2 DUP4 SUB SUB DUP2 MSTORE SWAP1 PUSH1 0x40 MSTORE DUP1 MLOAD SWAP1 PUSH1 0x20 ADD KECCAK256 DUP7 PUSH1 0x40 MLOAD PUSH1 0x20 ADD PUSH2 0x169E SWAP2 SWAP1 PUSH2 0x2375 JUMP JUMPDEST PUSH1 0x40 MLOAD PUSH1 0x20 DUP2 DUP4 SUB SUB DUP2 MSTORE SWAP1 PUSH1 0x40 MSTORE DUP1 MLOAD SWAP1 PUSH1 0x20 ADD KECCAK256 EQ ISZERO PUSH2 0x16ED JUMPI PUSH1 0x3 DUP3 DUP2 SLOAD DUP2 LT PUSH2 0x16CD JUMPI PUSH2 0x16CD PUSH2 0x2755 JUMP JUMPDEST SWAP1 PUSH1 0x0 MSTORE PUSH1 0x20 PUSH1 0x0 KECCAK256 SWAP1 PUSH1 0x5 MUL ADD PUSH1 0x3 ADD SLOAD DUP4 PUSH2 0x16EA SWAP2 SWAP1 PUSH2 0x266C JUMP JUMPDEST SWAP3 POP JUMPDEST DUP2 PUSH2 0x16F7 DUP2 PUSH2 0x2724 JUMP JUMPDEST SWAP3 POP POP PUSH2 0x163A JUMP JUMPDEST POP DUP1 PUSH2 0x170A DUP2 PUSH2 0x2724 JUMP JUMPDEST SWAP2 POP POP PUSH2 0x152D JUMP JUMPDEST POP PUSH2 0x171D DUP3 DUP3 PUSH2 0x2684 JUMP JUMPDEST PUSH2 0x1727 SWAP1 DUP3 PUSH2 0x266C JUMP JUMPDEST SWAP5 SWAP4 POP POP POP POP JUMP JUMPDEST PUSH1 0xB DUP2 DUP2 SLOAD DUP2 LT PUSH2 0x11A2 JUMPI PUSH1 0x0 DUP1 REVERT JUMPDEST PUSH1 0x40 DUP1 MLOAD PUSH1 0x60 DUP2 ADD DUP3 MSTORE CALLER DUP2 MSTORE PUSH1 0x20 DUP1 DUP3 ADD DUP5 DUP2 MSTORE PUSH1 0x1 SWAP4 DUP4 ADD DUP5 SWAP1 MSTORE PUSH1 0xB DUP1 SLOAD SWAP5 DUP6 ADD DUP2 SSTORE PUSH1 0x0 MSTORE DUP3 MLOAD PUSH32 0x175B7A638427703F0DBE7BB9BBF987A2551717B34E79F33B5B1008D1FA01DB9 PUSH1 0x3 SWAP1 SWAP6 MUL SWAP5 DUP6 ADD DUP1 SLOAD PUSH1 0x1 PUSH1 0x1 PUSH1 0xA0 SHL SUB NOT AND PUSH1 0x1 PUSH1 0x1 PUSH1 0xA0 SHL SUB SWAP1 SWAP3 AND SWAP2 SWAP1 SWAP2 OR DUP2 SSTORE SWAP1 MLOAD DUP1 MLOAD SWAP4 SWAP5 SWAP2 SWAP4 PUSH2 0x9D0 SWAP4 PUSH32 0x175B7A638427703F0DBE7BB9BBF987A2551717B34E79F33B5B1008D1FA01DBA SWAP1 SWAP4 ADD SWAP3 SWAP2 SWAP1 SWAP2 ADD SWAP1 PUSH2 0x1E84 JUMP JUMPDEST PUSH1 0x60 PUSH1 0x2 DUP1 SLOAD DUP1 PUSH1 0x20 MUL PUSH1 0x20 ADD PUSH1 0x40 MLOAD SWAP1 DUP2 ADD PUSH1 0x40 MSTORE DUP1 SWAP3 SWAP2 SWAP1 DUP2 DUP2 MSTORE PUSH1 0x20 ADD PUSH1 0x0 SWAP1 JUMPDEST DUP3 DUP3 LT ISZERO PUSH2 0xE07 JUMPI DUP4 DUP3 SWAP1 PUSH1 0x0 MSTORE PUSH1 0x20 PUSH1 0x0 KECCAK256 ADD DUP1 SLOAD PUSH2 0x182E SWAP1 PUSH2 0x26E9 JUMP JUMPDEST DUP1 PUSH1 0x1F ADD PUSH1 0x20 DUP1 SWAP2 DIV MUL PUSH1 0x20 ADD PUSH1 0x40 MLOAD SWAP1 DUP2 ADD PUSH1 0x40 MSTORE DUP1 SWAP3 SWAP2 SWAP1 DUP2 DUP2 MSTORE PUSH1 0x20 ADD DUP3 DUP1 SLOAD PUSH2 0x185A SWAP1 PUSH2 0x26E9 JUMP JUMPDEST DUP1 ISZERO PUSH2 0x18A7 JUMPI DUP1 PUSH1 0x1F LT PUSH2 0x187C JUMPI PUSH2 0x100 DUP1 DUP4 SLOAD DIV MUL DUP4 MSTORE SWAP2 PUSH1 0x20 ADD SWAP2 PUSH2 0x18A7 JUMP JUMPDEST DUP3 ADD SWAP2 SWAP1 PUSH1 0x0 MSTORE PUSH1 0x20 PUSH1 0x0 KECCAK256 SWAP1 JUMPDEST DUP2 SLOAD DUP2 MSTORE SWAP1 PUSH1 0x1 ADD SWAP1 PUSH1 0x20 ADD DUP1 DUP4 GT PUSH2 0x188A JUMPI DUP3 SWAP1 SUB PUSH1 0x1F AND DUP3 ADD SWAP2 JUMPDEST POP POP POP POP POP DUP2 MSTORE PUSH1 0x20 ADD SWAP1 PUSH1 0x1 ADD SWAP1 PUSH2 0x180F JUMP JUMPDEST PUSH1 0xA DUP2 GT ISZERO PUSH2 0x1916 JUMPI PUSH1 0x40 MLOAD PUSH3 0x461BCD PUSH1 0xE5 SHL DUP2 MSTORE PUSH1 0x20 PUSH1 0x4 DUP3 ADD MSTORE PUSH1 0x21 PUSH1 0x24 DUP3 ADD MSTORE PUSH32 0x6572726F723A20726174696E672063616E2062652066726F6D203120746F2031 PUSH1 0x44 DUP3 ADD MSTORE PUSH1 0x3 PUSH1 0xFC SHL PUSH1 0x64 DUP3 ADD MSTORE PUSH1 0x84 ADD PUSH2 0x77E JUMP JUMPDEST PUSH1 0x0 JUMPDEST PUSH1 0x2 SLOAD DUP2 GT PUSH2 0x1B89 JUMPI PUSH1 0x0 PUSH1 0x2 DUP3 DUP2 SLOAD DUP2 LT PUSH2 0x1937 JUMPI PUSH2 0x1937 PUSH2 0x2755 JUMP JUMPDEST SWAP1 PUSH1 0x0 MSTORE PUSH1 0x20 PUSH1 0x0 KECCAK256 ADD DUP1 SLOAD PUSH2 0x194C SWAP1 PUSH2 0x26E9 JUMP JUMPDEST DUP1 PUSH1 0x1F ADD PUSH1 0x20 DUP1 SWAP2 DIV MUL PUSH1 0x20 ADD PUSH1 0x40 MLOAD SWAP1 DUP2 ADD PUSH1 0x40 MSTORE DUP1 SWAP3 SWAP2 SWAP1 DUP2 DUP2 MSTORE PUSH1 0x20 ADD DUP3 DUP1 SLOAD PUSH2 0x1978 SWAP1 PUSH2 0x26E9 JUMP JUMPDEST DUP1 ISZERO PUSH2 0x19C5 JUMPI DUP1 PUSH1 0x1F LT PUSH2 0x199A JUMPI PUSH2 0x100 DUP1 DUP4 SLOAD DIV MUL DUP4 MSTORE SWAP2 PUSH1 0x20 ADD SWAP2 PUSH2 0x19C5 JUMP JUMPDEST DUP3 ADD SWAP2 SWAP1 PUSH1 0x0 MSTORE PUSH1 0x20 PUSH1 0x0 KECCAK256 SWAP1 JUMPDEST DUP2 SLOAD DUP2 MSTORE SWAP1 PUSH1 0x1 ADD SWAP1 PUSH1 0x20 ADD DUP1 DUP4 GT PUSH2 0x19A8 JUMPI DUP3 SWAP1 SUB PUSH1 0x1F AND DUP3 ADD SWAP2 JUMPDEST POP POP POP POP POP SWAP1 POP DUP5 PUSH1 0x40 MLOAD PUSH1 0x20 ADD PUSH2 0x19DD SWAP2 SWAP1 PUSH2 0x2375 JUMP JUMPDEST PUSH1 0x40 MLOAD PUSH1 0x20 DUP2 DUP4 SUB SUB DUP2 MSTORE SWAP1 PUSH1 0x40 MSTORE DUP1 MLOAD SWAP1 PUSH1 0x20 ADD KECCAK256 DUP2 PUSH1 0x40 MLOAD PUSH1 0x20 ADD PUSH2 0x1A04 SWAP2 SWAP1 PUSH2 0x2375 JUMP JUMPDEST PUSH1 0x40 MLOAD PUSH1 0x20 DUP2 DUP4 SUB SUB DUP2 MSTORE SWAP1 PUSH1 0x40 MSTORE DUP1 MLOAD SWAP1 PUSH1 0x20 ADD KECCAK256 EQ ISZERO PUSH2 0x1B76 JUMPI PUSH1 0x40 DUP1 MLOAD PUSH1 0xA0 DUP2 ADD DUP3 MSTORE DUP7 DUP2 MSTORE CALLER PUSH1 0x0 SWAP1 DUP2 MSTORE PUSH1 0x4 PUSH1 0x20 SWAP1 DUP2 MSTORE SWAP3 SWAP1 KECCAK256 DUP1 SLOAD PUSH1 0x60 SWAP4 PUSH1 0x3 SWAP4 SWAP3 SWAP1 DUP4 ADD SWAP2 PUSH2 0x1A53 SWAP1 PUSH2 0x26E9 JUMP JUMPDEST DUP1 PUSH1 0x1F ADD PUSH1 0x20 DUP1 SWAP2 DIV MUL PUSH1 0x20 ADD PUSH1 0x40 MLOAD SWAP1 DUP2 ADD PUSH1 0x40 MSTORE DUP1 SWAP3 SWAP2 SWAP1 DUP2 DUP2 MSTORE PUSH1 0x20 ADD DUP3 DUP1 SLOAD PUSH2 0x1A7F SWAP1 PUSH2 0x26E9 JUMP JUMPDEST DUP1 ISZERO PUSH2 0x1ACC JUMPI DUP1 PUSH1 0x1F LT PUSH2 0x1AA1 JUMPI PUSH2 0x100 DUP1 DUP4 SLOAD DIV MUL DUP4 MSTORE SWAP2 PUSH1 0x20 ADD SWAP2 PUSH2 0x1ACC JUMP JUMPDEST DUP3 ADD SWAP2 SWAP1 PUSH1 0x0 MSTORE PUSH1 0x20 PUSH1 0x0 KECCAK256 SWAP1 JUMPDEST DUP2 SLOAD DUP2 MSTORE SWAP1 PUSH1 0x1 ADD SWAP1 PUSH1 0x20 ADD DUP1 DUP4 GT PUSH2 0x1AAF JUMPI DUP3 SWAP1 SUB PUSH1 0x1F AND DUP3 ADD SWAP2 JUMPDEST POP POP POP SWAP2 DUP4 MSTORE POP POP PUSH1 0x20 DUP1 DUP3 ADD DUP10 SWAP1 MSTORE PUSH1 0x40 DUP3 ADD DUP9 SWAP1 MSTORE PUSH1 0x60 SWAP1 SWAP2 ADD DUP5 SWAP1 MSTORE DUP3 SLOAD PUSH1 0x1 DUP2 ADD DUP5 SSTORE PUSH1 0x0 SWAP4 DUP5 MSTORE SWAP3 DUP2 SWAP1 KECCAK256 DUP3 MLOAD DUP1 MLOAD SWAP4 SWAP5 PUSH1 0x5 MUL SWAP1 SWAP2 ADD SWAP3 PUSH2 0x1B16 SWAP3 DUP5 SWAP3 ADD SWAP1 PUSH2 0x1E84 JUMP JUMPDEST POP PUSH1 0x20 DUP3 DUP2 ADD MLOAD DUP1 MLOAD PUSH2 0x1B2F SWAP3 PUSH1 0x1 DUP6 ADD SWAP3 ADD SWAP1 PUSH2 0x1E84 JUMP JUMPDEST POP PUSH1 0x40 DUP3 ADD MLOAD DUP1 MLOAD PUSH2 0x1B4B SWAP2 PUSH1 0x2 DUP5 ADD SWAP2 PUSH1 0x20 SWAP1 SWAP2 ADD SWAP1 PUSH2 0x1E84 JUMP JUMPDEST POP PUSH1 0x60 DUP3 ADD MLOAD PUSH1 0x3 DUP3 ADD SSTORE PUSH1 0x80 DUP3 ADD MLOAD DUP1 MLOAD PUSH2 0x1B71 SWAP2 PUSH1 0x4 DUP5 ADD SWAP2 PUSH1 0x20 SWAP1 SWAP2 ADD SWAP1 PUSH2 0x1F08 JUMP JUMPDEST POP POP POP POP JUMPDEST POP DUP1 PUSH2 0x1B81 DUP2 PUSH2 0x2724 JUMP JUMPDEST SWAP2 POP POP PUSH2 0x1919 JUMP JUMPDEST POP POP POP POP JUMP JUMPDEST PUSH1 0x4 PUSH1 0x0 PUSH1 0x5 DUP5 PUSH1 0x40 MLOAD PUSH2 0x1BA3 SWAP2 SWAP1 PUSH2 0x2375 JUMP JUMPDEST SWAP1 DUP2 MSTORE PUSH1 0x40 DUP1 MLOAD PUSH1 0x20 SWAP3 DUP2 SWAP1 SUB DUP4 ADD SWAP1 KECCAK256 SLOAD PUSH1 0x1 PUSH1 0x1 PUSH1 0xA0 SHL SUB AND DUP4 MSTORE SWAP1 DUP3 ADD SWAP3 SWAP1 SWAP3 MSTORE ADD PUSH1 0x0 KECCAK256 PUSH1 0x4 ADD SLOAD PUSH1 0xFF AND ISZERO PUSH2 0x1BEF JUMPI PUSH1 0x40 MLOAD PUSH3 0x461BCD PUSH1 0xE5 SHL DUP2 MSTORE PUSH1 0x4 ADD PUSH2 0x77E SWAP1 PUSH2 0x2605 JUMP JUMPDEST PUSH1 0x0 PUSH1 0x1 PUSH1 0x1 PUSH1 0xA0 SHL SUB AND PUSH1 0x5 DUP4 PUSH1 0x40 MLOAD PUSH2 0x1C0A SWAP2 SWAP1 PUSH2 0x2375 JUMP JUMPDEST SWAP1 DUP2 MSTORE PUSH1 0x40 MLOAD SWAP1 DUP2 SWAP1 SUB PUSH1 0x20 ADD SWAP1 KECCAK256 SLOAD PUSH1 0x1 PUSH1 0x1 PUSH1 0xA0 SHL SUB AND EQ ISZERO PUSH2 0x1C41 JUMPI PUSH1 0x40 MLOAD PUSH3 0x461BCD PUSH1 0xE5 SHL DUP2 MSTORE PUSH1 0x4 ADD PUSH2 0x77E SWAP1 PUSH2 0x25D2 JUMP JUMPDEST DUP1 PUSH1 0x4 PUSH1 0x0 PUSH1 0x5 DUP6 PUSH1 0x40 MLOAD PUSH2 0x1C56 SWAP2 SWAP1 PUSH2 0x2375 JUMP JUMPDEST SWAP1 DUP2 MSTORE PUSH1 0x40 DUP1 MLOAD PUSH1 0x20 SWAP3 DUP2 SWAP1 SUB DUP4 ADD SWAP1 KECCAK256 SLOAD PUSH1 0x1 PUSH1 0x1 PUSH1 0xA0 SHL SUB AND DUP4 MSTORE SWAP1 DUP3 ADD SWAP3 SWAP1 SWAP3 MSTORE ADD PUSH1 0x0 KECCAK256 PUSH1 0x1 ADD SLOAD EQ PUSH2 0x1C9F JUMPI PUSH1 0x40 MLOAD PUSH3 0x461BCD PUSH1 0xE5 SHL DUP2 MSTORE PUSH1 0x4 ADD PUSH2 0x77E SWAP1 PUSH2 0x25A1 JUMP JUMPDEST PUSH1 0x1 PUSH1 0x4 PUSH1 0x0 PUSH1 0x5 DUP6 PUSH1 0x40 MLOAD PUSH2 0x1154 SWAP2 SWAP1 PUSH2 0x2375 JUMP JUMPDEST DUP1 MLOAD PUSH1 0x20 DUP2 DUP4 ADD DUP2 ADD DUP1 MLOAD PUSH1 0x8 DUP3 MSTORE SWAP3 DUP3 ADD SWAP2 SWAP1 SWAP4 ADD KECCAK256 SWAP2 MSTORE DUP1 SLOAD PUSH1 0x1 DUP3 ADD DUP1 SLOAD PUSH1 0x1 PUSH1 0x1 PUSH1 0xA0 SHL SUB SWAP1 SWAP3 AND SWAP3 SWAP2 PUSH2 0x1CEC SWAP1 PUSH2 0x26E9 JUMP JUMPDEST DUP1 PUSH1 0x1F ADD PUSH1 0x20 DUP1 SWAP2 DIV MUL PUSH1 0x20 ADD PUSH1 0x40 MLOAD SWAP1 DUP2 ADD PUSH1 0x40 MSTORE DUP1 SWAP3 SWAP2 SWAP1 DUP2 DUP2 MSTORE PUSH1 0x20 ADD DUP3 DUP1 SLOAD PUSH2 0x1D18 SWAP1 PUSH2 0x26E9 JUMP JUMPDEST DUP1 ISZERO PUSH2 0x1D65 JUMPI DUP1 PUSH1 0x1F LT PUSH2 0x1D3A JUMPI PUSH2 0x100 DUP1 DUP4 SLOAD DIV MUL DUP4 MSTORE SWAP2 PUSH1 0x20 ADD SWAP2 PUSH2 0x1D65 JUMP JUMPDEST DUP3 ADD SWAP2 SWAP1 PUSH1 0x0 MSTORE PUSH1 0x20 PUSH1 0x0 KECCAK256 SWAP1 JUMPDEST DUP2 SLOAD DUP2 MSTORE SWAP1 PUSH1 0x1 ADD SWAP1 PUSH1 0x20 ADD DUP1 DUP4 GT PUSH2 0x1D48 JUMPI DUP3 SWAP1 SUB PUSH1 0x1F AND DUP3 ADD SWAP2 JUMPDEST POP POP POP POP POP SWAP1 DUP1 PUSH1 0x2 ADD SLOAD SWAP1 DUP1 PUSH1 0x3 ADD SLOAD SWAP1 POP DUP5 JUMP JUMPDEST PUSH1 0xA DUP2 DUP2 SLOAD DUP2 LT PUSH2 0x11A2 JUMPI PUSH1 0x0 DUP1 REVERT JUMPDEST PUSH1 0x1 DUP2 ISZERO ISZERO EQ ISZERO PUSH2 0xC76 JUMPI PUSH1 0x8 PUSH1 0xC DUP4 DUP2 SLOAD DUP2 LT PUSH2 0x1DAB JUMPI PUSH2 0x1DAB PUSH2 0x2755 JUMP JUMPDEST SWAP1 PUSH1 0x0 MSTORE PUSH1 0x20 PUSH1 0x0 KECCAK256 SWAP1 PUSH1 0x3 MUL ADD PUSH1 0x1 ADD PUSH1 0x40 MLOAD PUSH2 0x1DC9 SWAP2 SWAP1 PUSH2 0x2391 JUMP JUMPDEST SWAP1 DUP2 MSTORE PUSH1 0x20 ADD PUSH1 0x40 MLOAD DUP1 SWAP2 SUB SWAP1 KECCAK256 PUSH1 0x2 ADD SLOAD PUSH1 0x4 PUSH1 0x0 PUSH1 0xC DUP6 DUP2 SLOAD DUP2 LT PUSH2 0x1DF2 JUMPI PUSH2 0x1DF2 PUSH2 0x2755 JUMP JUMPDEST PUSH1 0x0 SWAP2 DUP3 MSTORE PUSH1 0x20 DUP1 DUP4 KECCAK256 PUSH1 0x3 SWAP1 SWAP3 MUL SWAP1 SWAP2 ADD SLOAD PUSH1 0x1 PUSH1 0x1 PUSH1 0xA0 SHL SUB AND DUP4 MSTORE DUP3 ADD SWAP3 SWAP1 SWAP3 MSTORE PUSH1 0x40 ADD SWAP1 KECCAK256 PUSH1 0x2 ADD SLOAD PUSH2 0x1E29 SWAP2 SWAP1 PUSH2 0x266C JUMP JUMPDEST PUSH1 0x4 PUSH1 0x0 PUSH1 0xC DUP6 DUP2 SLOAD DUP2 LT PUSH2 0x1E40 JUMPI PUSH2 0x1E40 PUSH2 0x2755 JUMP JUMPDEST PUSH1 0x0 SWAP2 DUP3 MSTORE PUSH1 0x20 DUP1 DUP4 KECCAK256 PUSH1 0x3 SWAP1 SWAP3 MUL SWAP1 SWAP2 ADD SLOAD PUSH1 0x1 PUSH1 0x1 PUSH1 0xA0 SHL SUB AND DUP4 MSTORE DUP3 ADD SWAP3 SWAP1 SWAP3 MSTORE PUSH1 0x40 ADD DUP2 KECCAK256 PUSH1 0x2 ADD SWAP2 SWAP1 SWAP2 SSTORE PUSH1 0xB DUP1 SLOAD DUP5 SWAP1 DUP2 LT PUSH2 0x6DF JUMPI PUSH2 0x6DF PUSH2 0x2755 JUMP JUMPDEST DUP3 DUP1 SLOAD PUSH2 0x1E90 SWAP1 PUSH2 0x26E9 JUMP JUMPDEST SWAP1 PUSH1 0x0 MSTORE PUSH1 0x20 PUSH1 0x0 KECCAK256 SWAP1 PUSH1 0x1F ADD PUSH1 0x20 SWAP1 DIV DUP2 ADD SWAP3 DUP3 PUSH2 0x1EB2 JUMPI PUSH1 0x0 DUP6 SSTORE PUSH2 0x1EF8 JUMP JUMPDEST DUP3 PUSH1 0x1F LT PUSH2 0x1ECB JUMPI DUP1 MLOAD PUSH1 0xFF NOT AND DUP4 DUP1 ADD OR DUP6 SSTORE PUSH2 0x1EF8 JUMP JUMPDEST DUP3 DUP1 ADD PUSH1 0x1 ADD DUP6 SSTORE DUP3 ISZERO PUSH2 0x1EF8 JUMPI SWAP2 DUP3 ADD JUMPDEST DUP3 DUP2 GT ISZERO PUSH2 0x1EF8 JUMPI DUP3 MLOAD DUP3 SSTORE SWAP2 PUSH1 0x20 ADD SWAP2 SWAP1 PUSH1 0x1 ADD SWAP1 PUSH2 0x1EDD JUMP JUMPDEST POP PUSH2 0x1F04 SWAP3 SWAP2 POP PUSH2 0x1F61 JUMP JUMPDEST POP SWAP1 JUMP JUMPDEST DUP3 DUP1 SLOAD DUP3 DUP3 SSTORE SWAP1 PUSH1 0x0 MSTORE PUSH1 0x20 PUSH1 0x0 KECCAK256 SWAP1 DUP2 ADD SWAP3 DUP3 ISZERO PUSH2 0x1F55 JUMPI SWAP2 PUSH1 0x20 MUL DUP3 ADD JUMPDEST DUP3 DUP2 GT ISZERO PUSH2 0x1F55 JUMPI DUP3 MLOAD DUP1 MLOAD PUSH2 0x1F45 SWAP2 DUP5 SWAP2 PUSH1 0x20 SWAP1 SWAP2 ADD SWAP1 PUSH2 0x1E84 JUMP JUMPDEST POP SWAP2 PUSH1 0x20 ADD SWAP2 SWAP1 PUSH1 0x1 ADD SWAP1 PUSH2 0x1F28 JUMP JUMPDEST POP PUSH2 0x1F04 SWAP3 SWAP2 POP PUSH2 0x1F76 JUMP JUMPDEST JUMPDEST DUP1 DUP3 GT ISZERO PUSH2 0x1F04 JUMPI PUSH1 0x0 DUP2 SSTORE PUSH1 0x1 ADD PUSH2 0x1F62 JUMP JUMPDEST DUP1 DUP3 GT ISZERO PUSH2 0x1F04 JUMPI PUSH1 0x0 PUSH2 0x1F8A DUP3 DUP3 PUSH2 0x1F93 JUMP JUMPDEST POP PUSH1 0x1 ADD PUSH2 0x1F76 JUMP JUMPDEST POP DUP1 SLOAD PUSH2 0x1F9F SWAP1 PUSH2 0x26E9 JUMP JUMPDEST PUSH1 0x0 DUP3 SSTORE DUP1 PUSH1 0x1F LT PUSH2 0x1FAF JUMPI POP POP JUMP JUMPDEST PUSH1 0x1F ADD PUSH1 0x20 SWAP1 DIV SWAP1 PUSH1 0x0 MSTORE PUSH1 0x20 PUSH1 0x0 KECCAK256 SWAP1 DUP2 ADD SWAP1 PUSH2 0x1FCD SWAP2 SWAP1 PUSH2 0x1F61 JUMP JUMPDEST POP JUMP JUMPDEST DUP1 CALLDATALOAD PUSH1 0x1 PUSH1 0x1 PUSH1 0xA0 SHL SUB DUP2 AND DUP2 EQ PUSH2 0x1FE7 JUMPI PUSH1 0x0 DUP1 REVERT JUMPDEST SWAP2 SWAP1 POP JUMP JUMPDEST PUSH1 0x0 DUP3 PUSH1 0x1F DUP4 ADD SLT PUSH2 0x1FFD JUMPI PUSH1 0x0 DUP1 REVERT JUMPDEST DUP2 CALLDATALOAD PUSH1 0x1 PUSH1 0x1 PUSH1 0x40 SHL SUB DUP2 GT ISZERO PUSH2 0x2016 JUMPI PUSH2 0x2016 PUSH2 0x276B JUMP JUMPDEST PUSH2 0x2029 PUSH1 0x1F DUP3 ADD PUSH1 0x1F NOT AND PUSH1 0x20 ADD PUSH2 0x263C JUMP JUMPDEST DUP2 DUP2 MSTORE DUP5 PUSH1 0x20 DUP4 DUP7 ADD ADD GT ISZERO PUSH2 0x203E JUMPI PUSH1 0x0 DUP1 REVERT JUMPDEST DUP2 PUSH1 0x20 DUP6 ADD PUSH1 0x20 DUP4 ADD CALLDATACOPY PUSH1 0x0 SWAP2 DUP2 ADD PUSH1 0x20 ADD SWAP2 SWAP1 SWAP2 MSTORE SWAP4 SWAP3 POP POP POP JUMP JUMPDEST PUSH1 0x0 PUSH1 0x20 DUP3 DUP5 SUB SLT ISZERO PUSH2 0x206D JUMPI PUSH1 0x0 DUP1 REVERT JUMPDEST PUSH2 0x2076 DUP3 PUSH2 0x1FD0 JUMP JUMPDEST SWAP4 SWAP3 POP POP POP JUMP JUMPDEST PUSH1 0x0 DUP1 PUSH1 0x0 PUSH1 0x60 DUP5 DUP7 SUB SLT ISZERO PUSH2 0x2092 JUMPI PUSH1 0x0 DUP1 REVERT JUMPDEST PUSH2 0x209B DUP5 PUSH2 0x1FD0 JUMP JUMPDEST SWAP3 POP PUSH1 0x20 DUP5 ADD CALLDATALOAD PUSH1 0x1 PUSH1 0x1 PUSH1 0x40 SHL SUB DUP2 GT ISZERO PUSH2 0x20B6 JUMPI PUSH1 0x0 DUP1 REVERT JUMPDEST PUSH2 0x20C2 DUP7 DUP3 DUP8 ADD PUSH2 0x1FEC JUMP JUMPDEST SWAP3 POP POP PUSH1 0x40 DUP5 ADD CALLDATALOAD SWAP1 POP SWAP3 POP SWAP3 POP SWAP3 JUMP JUMPDEST PUSH1 0x0 PUSH1 0x20 DUP3 DUP5 SUB SLT ISZERO PUSH2 0x20E5 JUMPI PUSH1 0x0 DUP1 REVERT JUMPDEST DUP2 CALLDATALOAD PUSH1 0x1 PUSH1 0x1 PUSH1 0x40 SHL SUB DUP2 GT ISZERO PUSH2 0x20FB JUMPI PUSH1 0x0 DUP1 REVERT JUMPDEST PUSH2 0x1727 DUP5 DUP3 DUP6 ADD PUSH2 0x1FEC JUMP JUMPDEST PUSH1 0x0 DUP1 PUSH1 0x40 DUP4 DUP6 SUB SLT ISZERO PUSH2 0x211A JUMPI PUSH1 0x0 DUP1 REVERT JUMPDEST DUP3 CALLDATALOAD PUSH1 0x1 PUSH1 0x1 PUSH1 0x40 SHL SUB DUP1 DUP3 GT ISZERO PUSH2 0x2131 JUMPI PUSH1 0x0 DUP1 REVERT JUMPDEST PUSH2 0x213D DUP7 DUP4 DUP8 ADD PUSH2 0x1FEC JUMP JUMPDEST SWAP4 POP PUSH1 0x20 SWAP2 POP DUP2 DUP6 ADD CALLDATALOAD DUP2 DUP2 GT ISZERO PUSH2 0x2154 JUMPI PUSH1 0x0 DUP1 REVERT JUMPDEST DUP6 ADD PUSH1 0x1F DUP2 ADD DUP8 SGT PUSH2 0x2165 JUMPI PUSH1 0x0 DUP1 REVERT JUMPDEST DUP1 CALLDATALOAD DUP3 DUP2 GT ISZERO PUSH2 0x2177 JUMPI PUSH2 0x2177 PUSH2 0x276B JUMP JUMPDEST DUP1 PUSH1 0x5 SHL PUSH2 0x2186 DUP6 DUP3 ADD PUSH2 0x263C JUMP JUMPDEST DUP3 DUP2 MSTORE DUP6 DUP2 ADD SWAP1 DUP5 DUP8 ADD DUP4 DUP7 ADD DUP9 ADD DUP13 LT ISZERO PUSH2 0x21A1 JUMPI PUSH1 0x0 DUP1 REVERT JUMPDEST PUSH1 0x0 SWAP4 POP DUP4 JUMPDEST DUP6 DUP2 LT ISZERO PUSH2 0x21DE JUMPI DUP2 CALLDATALOAD DUP9 DUP2 GT ISZERO PUSH2 0x21BD JUMPI DUP6 DUP7 REVERT JUMPDEST PUSH2 0x21CB DUP15 DUP12 DUP4 DUP12 ADD ADD PUSH2 0x1FEC JUMP JUMPDEST DUP6 MSTORE POP SWAP3 DUP9 ADD SWAP3 SWAP1 DUP9 ADD SWAP1 PUSH1 0x1 ADD PUSH2 0x21A7 JUMP JUMPDEST POP SWAP9 SWAP12 SWAP1 SWAP11 POP SWAP9 POP POP POP POP POP POP POP POP POP JUMP JUMPDEST PUSH1 0x0 DUP1 PUSH1 0x40 DUP4 DUP6 SUB SLT ISZERO PUSH2 0x2203 JUMPI PUSH1 0x0 DUP1 REVERT JUMPDEST DUP3 CALLDATALOAD PUSH1 0x1 PUSH1 0x1 PUSH1 0x40 SHL SUB DUP2 GT ISZERO PUSH2 0x2219 JUMPI PUSH1 0x0 DUP1 REVERT JUMPDEST PUSH2 0x2225 DUP6 DUP3 DUP7 ADD PUSH2 0x1FEC JUMP JUMPDEST SWAP6 PUSH1 0x20 SWAP5 SWAP1 SWAP5 ADD CALLDATALOAD SWAP5 POP POP POP POP JUMP JUMPDEST PUSH1 0x0 DUP1 PUSH1 0x0 PUSH1 0x60 DUP5 DUP7 SUB SLT ISZERO PUSH2 0x2249 JUMPI PUSH1 0x0 DUP1 REVERT JUMPDEST DUP4 CALLDATALOAD PUSH1 0x1 PUSH1 0x1 PUSH1 0x40 SHL SUB DUP1 DUP3 GT ISZERO PUSH2 0x2260 JUMPI PUSH1 0x0 DUP1 REVERT JUMPDEST PUSH2 0x226C DUP8 DUP4 DUP9 ADD PUSH2 0x1FEC JUMP JUMPDEST SWAP5 POP PUSH1 0x20 DUP7 ADD CALLDATALOAD SWAP2 POP DUP1 DUP3 GT ISZERO PUSH2 0x2282 JUMPI PUSH1 0x0 DUP1 REVERT JUMPDEST POP PUSH2 0x20C2 DUP7 DUP3 DUP8 ADD PUSH2 0x1FEC JUMP JUMPDEST PUSH1 0x0 DUP1 PUSH1 0x0 PUSH1 0x60 DUP5 DUP7 SUB SLT ISZERO PUSH2 0x22A4 JUMPI PUSH1 0x0 DUP1 REVERT JUMPDEST DUP4 CALLDATALOAD PUSH1 0x1 PUSH1 0x1 PUSH1 0x40 SHL SUB DUP1 DUP3 GT ISZERO PUSH2 0x22BB JUMPI PUSH1 0x0 DUP1 REVERT JUMPDEST PUSH2 0x22C7 DUP8 DUP4 DUP9 ADD PUSH2 0x1FEC JUMP JUMPDEST SWAP5 POP PUSH1 0x20 DUP7 ADD CALLDATALOAD SWAP4 POP PUSH1 0x40 DUP7 ADD CALLDATALOAD SWAP2 POP DUP1 DUP3 GT ISZERO PUSH2 0x22E4 JUMPI PUSH1 0x0 DUP1 REVERT JUMPDEST POP PUSH2 0x22F1 DUP7 DUP3 DUP8 ADD PUSH2 0x1FEC JUMP JUMPDEST SWAP2 POP POP SWAP3 POP SWAP3 POP SWAP3 JUMP JUMPDEST PUSH1 0x0 PUSH1 0x20 DUP3 DUP5 SUB SLT ISZERO PUSH2 0x230D JUMPI PUSH1 0x0 DUP1 REVERT JUMPDEST POP CALLDATALOAD SWAP2 SWAP1 POP JUMP JUMPDEST PUSH1 0x0 DUP1 PUSH1 0x40 DUP4 DUP6 SUB SLT ISZERO PUSH2 0x2327 JUMPI PUSH1 0x0 DUP1 REVERT JUMPDEST DUP3 CALLDATALOAD SWAP2 POP PUSH1 0x20 DUP4 ADD CALLDATALOAD DUP1 ISZERO ISZERO DUP2 EQ PUSH2 0x233E JUMPI PUSH1 0x0 DUP1 REVERT JUMPDEST DUP1 SWAP2 POP POP SWAP3 POP SWAP3 SWAP1 POP JUMP JUMPDEST PUSH1 0x0 DUP2 MLOAD DUP1 DUP5 MSTORE PUSH2 0x2361 DUP2 PUSH1 0x20 DUP7 ADD PUSH1 0x20 DUP7 ADD PUSH2 0x26BD JUMP JUMPDEST PUSH1 0x1F ADD PUSH1 0x1F NOT AND SWAP3 SWAP1 SWAP3 ADD PUSH1 0x20 ADD SWAP3 SWAP2 POP POP JUMP JUMPDEST PUSH1 0x0 DUP3 MLOAD PUSH2 0x2387 DUP2 DUP5 PUSH1 0x20 DUP8 ADD PUSH2 0x26BD JUMP JUMPDEST SWAP2 SWAP1 SWAP2 ADD SWAP3 SWAP2 POP POP JUMP JUMPDEST PUSH1 0x0 DUP1 DUP4 SLOAD DUP2 PUSH1 0x1 DUP3 DUP2 SHR SWAP2 POP DUP1 DUP4 AND DUP1 PUSH2 0x23AD JUMPI PUSH1 0x7F DUP4 AND SWAP3 POP JUMPDEST PUSH1 0x20 DUP1 DUP5 LT DUP3 EQ ISZERO PUSH2 0x23CD JUMPI PUSH4 0x4E487B71 PUSH1 0xE0 SHL DUP7 MSTORE PUSH1 0x22 PUSH1 0x4 MSTORE PUSH1 0x24 DUP7 REVERT JUMPDEST DUP2 DUP1 ISZERO PUSH2 0x23E1 JUMPI PUSH1 0x1 DUP2 EQ PUSH2 0x23F2 JUMPI PUSH2 0x241F JUMP JUMPDEST PUSH1 0xFF NOT DUP7 AND DUP10 MSTORE DUP5 DUP10 ADD SWAP7 POP PUSH2 0x241F JUMP JUMPDEST PUSH1 0x0 DUP11 DUP2 MSTORE PUSH1 0x20 SWAP1 KECCAK256 PUSH1 0x0 JUMPDEST DUP7 DUP2 LT ISZERO PUSH2 0x2417 JUMPI DUP2 SLOAD DUP12 DUP3 ADD MSTORE SWAP1 DUP6 ADD SWAP1 DUP4 ADD PUSH2 0x23FE JUMP JUMPDEST POP POP DUP5 DUP10 ADD SWAP7 POP JUMPDEST POP SWAP5 SWAP9 SWAP8 POP POP POP POP POP POP POP POP JUMP JUMPDEST PUSH1 0x1 PUSH1 0x1 PUSH1 0xA0 SHL SUB DUP5 AND DUP2 MSTORE PUSH1 0x60 PUSH1 0x20 DUP3 ADD DUP2 SWAP1 MSTORE PUSH1 0x0 SWAP1 PUSH2 0x2451 SWAP1 DUP4 ADD DUP6 PUSH2 0x2349 JUMP JUMPDEST SWAP1 POP DUP3 ISZERO ISZERO PUSH1 0x40 DUP4 ADD MSTORE SWAP5 SWAP4 POP POP POP POP JUMP JUMPDEST PUSH1 0x1 PUSH1 0x1 PUSH1 0xA0 SHL SUB DUP6 AND DUP2 MSTORE PUSH1 0x80 PUSH1 0x20 DUP3 ADD DUP2 SWAP1 MSTORE PUSH1 0x0 SWAP1 PUSH2 0x2487 SWAP1 DUP4 ADD DUP7 PUSH2 0x2349 JUMP JUMPDEST PUSH1 0x40 DUP4 ADD SWAP5 SWAP1 SWAP5 MSTORE POP PUSH1 0x60 ADD MSTORE SWAP3 SWAP2 POP POP JUMP JUMPDEST PUSH1 0x0 PUSH1 0x20 DUP1 DUP4 ADD DUP2 DUP5 MSTORE DUP1 DUP6 MLOAD DUP1 DUP4 MSTORE PUSH1 0x40 DUP7 ADD SWAP2 POP PUSH1 0x40 DUP2 PUSH1 0x5 SHL DUP8 ADD ADD SWAP3 POP DUP4 DUP8 ADD PUSH1 0x0 JUMPDEST DUP3 DUP2 LT ISZERO PUSH2 0x24EF JUMPI PUSH1 0x3F NOT DUP9 DUP7 SUB ADD DUP5 MSTORE PUSH2 0x24DD DUP6 DUP4 MLOAD PUSH2 0x2349 JUMP JUMPDEST SWAP5 POP SWAP3 DUP6 ADD SWAP3 SWAP1 DUP6 ADD SWAP1 PUSH1 0x1 ADD PUSH2 0x24C1 JUMP JUMPDEST POP SWAP3 SWAP8 SWAP7 POP POP POP POP POP POP POP JUMP JUMPDEST PUSH1 0xA0 DUP2 MSTORE PUSH1 0x0 PUSH2 0x250F PUSH1 0xA0 DUP4 ADD DUP9 PUSH2 0x2349 JUMP JUMPDEST SWAP1 POP DUP6 PUSH1 0x20 DUP4 ADD MSTORE DUP5 PUSH1 0x40 DUP4 ADD MSTORE DUP4 PUSH1 0x60 DUP4 ADD MSTORE DUP3 ISZERO ISZERO PUSH1 0x80 DUP4 ADD MSTORE SWAP7 SWAP6 POP POP POP POP POP POP JUMP JUMPDEST PUSH1 0x0 PUSH2 0x100 DUP1 DUP4 MSTORE PUSH2 0x2549 DUP2 DUP5 ADD DUP13 PUSH2 0x2349 JUMP JUMPDEST SWAP1 POP DUP10 PUSH1 0x20 DUP5 ADD MSTORE DUP9 PUSH1 0x40 DUP5 ADD MSTORE DUP8 PUSH1 0x60 DUP5 ADD MSTORE DUP7 ISZERO ISZERO PUSH1 0x80 DUP5 ADD MSTORE DUP3 DUP2 SUB PUSH1 0xA0 DUP5 ADD MSTORE PUSH2 0x2577 DUP2 DUP8 PUSH2 0x2349 JUMP JUMPDEST SWAP1 POP DUP3 DUP2 SUB PUSH1 0xC0 DUP5 ADD MSTORE PUSH2 0x258B DUP2 DUP7 PUSH2 0x2349 JUMP JUMPDEST SWAP2 POP POP DUP3 PUSH1 0xE0 DUP4 ADD MSTORE SWAP10 SWAP9 POP POP POP POP POP POP POP POP POP JUMP JUMPDEST PUSH1 0x20 DUP1 DUP3 MSTORE PUSH1 0x17 SWAP1 DUP3 ADD MSTORE PUSH23 0x115C9C9BDC8E88125B9D985B1A59081C185CDCDDDBDC99 PUSH1 0x4A SHL PUSH1 0x40 DUP3 ADD MSTORE PUSH1 0x60 ADD SWAP1 JUMP JUMPDEST PUSH1 0x20 DUP1 DUP3 MSTORE PUSH1 0x19 SWAP1 DUP3 ADD MSTORE PUSH25 0x115C9C9BDC8E88155CD95C88191BD95CDB89DD08195E1A5CDD PUSH1 0x3A SHL PUSH1 0x40 DUP3 ADD MSTORE PUSH1 0x60 ADD SWAP1 JUMP JUMPDEST PUSH1 0x20 DUP1 DUP3 MSTORE PUSH1 0x1D SWAP1 DUP3 ADD MSTORE PUSH32 0x4572726F723A20596F752061726520616C7265616479206C6F67676564000000 PUSH1 0x40 DUP3 ADD MSTORE PUSH1 0x60 ADD SWAP1 JUMP JUMPDEST PUSH1 0x40 MLOAD PUSH1 0x1F DUP3 ADD PUSH1 0x1F NOT AND DUP2 ADD PUSH1 0x1 PUSH1 0x1 PUSH1 0x40 SHL SUB DUP2 GT DUP3 DUP3 LT OR ISZERO PUSH2 0x2664 JUMPI PUSH2 0x2664 PUSH2 0x276B JUMP JUMPDEST PUSH1 0x40 MSTORE SWAP2 SWAP1 POP JUMP JUMPDEST PUSH1 0x0 DUP3 NOT DUP3 GT ISZERO PUSH2 0x267F JUMPI PUSH2 0x267F PUSH2 0x273F JUMP JUMPDEST POP ADD SWAP1 JUMP JUMPDEST PUSH1 0x0 DUP3 PUSH2 0x26A1 JUMPI PUSH4 0x4E487B71 PUSH1 0xE0 SHL PUSH1 0x0 MSTORE PUSH1 0x12 PUSH1 0x4 MSTORE PUSH1 0x24 PUSH1 0x0 REVERT JUMPDEST POP DIV SWAP1 JUMP JUMPDEST PUSH1 0x0 DUP3 DUP3 LT ISZERO PUSH2 0x26B8 JUMPI PUSH2 0x26B8 PUSH2 0x273F JUMP JUMPDEST POP SUB SWAP1 JUMP JUMPDEST PUSH1 0x0 JUMPDEST DUP4 DUP2 LT ISZERO PUSH2 0x26D8 JUMPI DUP2 DUP2 ADD MLOAD DUP4 DUP3 ADD MSTORE PUSH1 0x20 ADD PUSH2 0x26C0 JUMP JUMPDEST DUP4 DUP2 GT ISZERO PUSH2 0x1B89 JUMPI POP POP PUSH1 0x0 SWAP2 ADD MSTORE JUMP JUMPDEST PUSH1 0x1 DUP2 DUP2 SHR SWAP1 DUP3 AND DUP1 PUSH2 0x26FD JUMPI PUSH1 0x7F DUP3 AND SWAP2 POP JUMPDEST PUSH1 0x20 DUP3 LT DUP2 EQ ISZERO PUSH2 0x271E JUMPI PUSH4 0x4E487B71 PUSH1 0xE0 SHL PUSH1 0x0 MSTORE PUSH1 0x22 PUSH1 0x4 MSTORE PUSH1 0x24 PUSH1 0x0 REVERT JUMPDEST POP SWAP2 SWAP1 POP JUMP JUMPDEST PUSH1 0x0 PUSH1 0x0 NOT DUP3 EQ ISZERO PUSH2 0x2738 JUMPI PUSH2 0x2738 PUSH2 0x273F JUMP JUMPDEST POP PUSH1 0x1 ADD SWAP1 JUMP JUMPDEST PUSH4 0x4E487B71 PUSH1 0xE0 SHL PUSH1 0x0 MSTORE PUSH1 0x11 PUSH1 0x4 MSTORE PUSH1 0x24 PUSH1 0x0 REVERT JUMPDEST PUSH4 0x4E487B71 PUSH1 0xE0 SHL PUSH1 0x0 MSTORE PUSH1 0x32 PUSH1 0x4 MSTORE PUSH1 0x24 PUSH1 0x0 REVERT JUMPDEST PUSH4 0x4E487B71 PUSH1 0xE0 SHL PUSH1 0x0 MSTORE PUSH1 0x41 PUSH1 0x4 MSTORE PUSH1 0x24 PUSH1 0x0 REVERT INVALID LOG2 PUSH5 0x6970667358 0x22 SLT KECCAK256 0xD8 0xE1 0x49 SHL 0xFB MUL 0xE2 REVERT SHR 0xBC MLOAD 0xC4 DUP4 0xB1 CALLER PUSH29 0xE559EC179E22D9135B748738BE5D8CCA64736F6C634300080700334057 DUP8 STATICCALL SLT 0xA8 0x23 0xE0 CALLCODE 0xB7 PUSH4 0x1CC41B3B 0xA8 DUP3 DUP12 CALLER 0x21 0xCA DUP2 GT GT STATICCALL PUSH22 0xCD3AA3BB5ACEC49E92DEB93AC19463E0F89B887A2AB8 SHR PUSH12 0x5EADF7DC1BC8BD12CE4040F6 JUMP 0xFC 0x5C DUP4 0xA9 PUSH16 0xABBCC4E29B827AF3528E41DB71DD782 RETURNDATACOPY SDIV 0xE1 CALLDATACOPY 0x4C 0xD0 SWAP9 CALLDATALOAD BYTE CODESIZE 0xD PUSH32 0x0 "
				},
				"gasEstimates": {
					"creation": {
						"codeDepositCost": "2033400",
						"executionCost": "infinite",
						"totalCost": "infinite"
					},
					"external": {
						"MarriageRegistration(uint256,bool)": "infinite",
						"acceptPurchase(uint256,bool)": "infinite",
						"acceptReturn(uint256,bool)": "infinite",
						"addProductShop(string,uint256,string)": "infinite",
						"check_logged_shop(string)": "infinite",
						"check_logged_user(string)": "infinite",
						"create_user(address,string,bytes32)": "infinite",
						"getProductList()": "infinite",
						"getShopList()": "infinite",
						"getStoryRating(string)": "infinite",
						"get_address(string)": "infinite",
						"get_hash(string)": "infinite",
						"get_role_shop(string)": "infinite",
						"get_role_user(string)": "infinite",
						"leaveComment(string,string[])": "infinite",
						"leaveFeedback(string,string,uint256)": "infinite",
						"login_out_shop(string)": "infinite",
						"login_out_user(string)": "infinite",
						"login_shop(string,bytes32)": "infinite",
						"login_user(string,bytes32)": "infinite",
						"productMarriageRegistration(string)": "infinite",
						"productPurchases(string)": "infinite",
						"productReturn(string)": "infinite",
						"shopLists(string)": "infinite",
						"structMarriageRegistrations(uint256)": "infinite",
						"structProducts(string)": "infinite",
						"structShops(address)": "infinite",
						"structStatusPurchases(uint256)": "infinite",
						"structStatusReturns(uint256)": "infinite",
						"structUserLogins(string)": "infinite",
						"structUsers(address)": "infinite"
					}
				},
				"methodIdentifiers": {
					"MarriageRegistration(uint256,bool)": "f69483c1",
					"acceptPurchase(uint256,bool)": "0c72b1ec",
					"acceptReturn(uint256,bool)": "2ccdef7c",
					"addProductShop(string,uint256,string)": "6c05dd1d",
					"check_logged_shop(string)": "3b84aedc",
					"check_logged_user(string)": "5bbc9a3f",
					"create_user(address,string,bytes32)": "0e1c81b2",
					"getProductList()": "34d2c0ad",
					"getShopList()": "c178b9af",
					"getStoryRating(string)": "a985036d",
					"get_address(string)": "6ba44d3c",
					"get_hash(string)": "845952a8",
					"get_role_shop(string)": "033ff0b8",
					"get_role_user(string)": "5bdb63fa",
					"leaveComment(string,string[])": "29e795f3",
					"leaveFeedback(string,string,uint256)": "cc21c188",
					"login_out_shop(string)": "04ac16f6",
					"login_out_user(string)": "521b9170",
					"login_shop(string,bytes32)": "775eb9e6",
					"login_user(string,bytes32)": "d22d9020",
					"productMarriageRegistration(string)": "2d4673e3",
					"productPurchases(string)": "146dc6ed",
					"productReturn(string)": "bbd43363",
					"shopLists(string)": "c4957fa0",
					"structMarriageRegistrations(uint256)": "7ddb273d",
					"structProducts(string)": "d68cf8c1",
					"structShops(address)": "8e23cb40",
					"structStatusPurchases(uint256)": "dce39151",
					"structStatusReturns(uint256)": "a9f9482b",
					"structUserLogins(string)": "1bbe970a",
					"structUsers(address)": "961865f0"
				}
			},
			"userdoc": {
				"kind": "user",
				"methods": {},
				"version": 1
			}
		}
	}
}