{
	"Documents/GitHub/Store-system-with-feedback/main.sol": {
		"coursepaper": {
			"abi": [
				{
					"inputs": [],
					"stateMutability": "nonpayable",
					"type": "constructor"
				},
				{
					"inputs": [
						{
							"internalType": "uint256",
							"name": "idMarriageRegistration",
							"type": "uint256"
						},
						{
							"internalType": "bool",
							"name": "confirmation",
							"type": "bool"
						}
					],
					"name": "MarriageRegistration",
					"outputs": [],
					"stateMutability": "nonpayable",
					"type": "function"
				},
				{
					"inputs": [
						{
							"internalType": "uint256",
							"name": "idPurchase",
							"type": "uint256"
						},
						{
							"internalType": "bool",
							"name": "confirmation",
							"type": "bool"
						}
					],
					"name": "acceptPurchase",
					"outputs": [],
					"stateMutability": "nonpayable",
					"type": "function"
				},
				{
					"inputs": [
						{
							"internalType": "uint256",
							"name": "idReturn",
							"type": "uint256"
						},
						{
							"internalType": "bool",
							"name": "confirmation",
							"type": "bool"
						}
					],
					"name": "acceptReturn",
					"outputs": [],
					"stateMutability": "nonpayable",
					"type": "function"
				},
				{
					"inputs": [
						{
							"internalType": "string",
							"name": "title",
							"type": "string"
						},
						{
							"internalType": "uint256",
							"name": "price",
							"type": "uint256"
						},
						{
							"internalType": "string",
							"name": "description",
							"type": "string"
						}
					],
					"name": "addProductShop",
					"outputs": [],
					"stateMutability": "nonpayable",
					"type": "function"
				},
				{
					"inputs": [
						{
							"internalType": "address",
							"name": "addr",
							"type": "address"
						},
						{
							"internalType": "string",
							"name": "login",
							"type": "string"
						},
						{
							"internalType": "uint256",
							"name": "password",
							"type": "uint256"
						}
					],
					"name": "create_user",
					"outputs": [],
					"stateMutability": "nonpayable",
					"type": "function"
				},
				{
					"inputs": [],
					"name": "getProductList",
					"outputs": [
						{
							"internalType": "string[]",
							"name": "",
							"type": "string[]"
						}
					],
					"stateMutability": "view",
					"type": "function"
				},
				{
					"inputs": [],
					"name": "getShopList",
					"outputs": [
						{
							"internalType": "string[]",
							"name": "",
							"type": "string[]"
						}
					],
					"stateMutability": "view",
					"type": "function"
				},
				{
					"inputs": [
						{
							"internalType": "string",
							"name": "shopName",
							"type": "string"
						}
					],
					"name": "getStoryRating",
					"outputs": [
						{
							"internalType": "uint256",
							"name": "",
							"type": "uint256"
						}
					],
					"stateMutability": "view",
					"type": "function"
				},
				{
					"inputs": [
						{
							"internalType": "string",
							"name": "login",
							"type": "string"
						}
					],
					"name": "get_address",
					"outputs": [
						{
							"internalType": "address",
							"name": "",
							"type": "address"
						}
					],
					"stateMutability": "view",
					"type": "function"
				},
				{
					"inputs": [
						{
							"internalType": "string",
							"name": "userName",
							"type": "string"
						},
						{
							"internalType": "string[]",
							"name": "comment",
							"type": "string[]"
						}
					],
					"name": "leaveComment",
					"outputs": [],
					"stateMutability": "nonpayable",
					"type": "function"
				},
				{
					"inputs": [
						{
							"internalType": "string",
							"name": "shop",
							"type": "string"
						},
						{
							"internalType": "string",
							"name": "feedback",
							"type": "string"
						},
						{
							"internalType": "uint256",
							"name": "rating",
							"type": "uint256"
						}
					],
					"name": "leaveFeedback",
					"outputs": [],
					"stateMutability": "nonpayable",
					"type": "function"
				},
				{
					"inputs": [
						{
							"internalType": "string",
							"name": "titleProduct",
							"type": "string"
						}
					],
					"name": "productMarriageRegistration",
					"outputs": [],
					"stateMutability": "nonpayable",
					"type": "function"
				},
				{
					"inputs": [
						{
							"internalType": "string",
							"name": "titleProduct",
							"type": "string"
						}
					],
					"name": "productPurchases",
					"outputs": [],
					"stateMutability": "nonpayable",
					"type": "function"
				},
				{
					"inputs": [
						{
							"internalType": "string",
							"name": "titleProduct",
							"type": "string"
						}
					],
					"name": "productReturn",
					"outputs": [],
					"stateMutability": "nonpayable",
					"type": "function"
				},
				{
					"inputs": [
						{
							"internalType": "string",
							"name": "",
							"type": "string"
						}
					],
					"name": "shopLists",
					"outputs": [
						{
							"internalType": "address",
							"name": "",
							"type": "address"
						}
					],
					"stateMutability": "view",
					"type": "function"
				},
				{
					"inputs": [
						{
							"internalType": "uint256",
							"name": "",
							"type": "uint256"
						}
					],
					"name": "structMarriageRegistrations",
					"outputs": [
						{
							"internalType": "address",
							"name": "userLogin",
							"type": "address"
						},
						{
							"internalType": "string",
							"name": "titleProduct",
							"type": "string"
						},
						{
							"internalType": "bool",
							"name": "status",
							"type": "bool"
						}
					],
					"stateMutability": "view",
					"type": "function"
				},
				{
					"inputs": [
						{
							"internalType": "string",
							"name": "",
							"type": "string"
						}
					],
					"name": "structProducts",
					"outputs": [
						{
							"internalType": "address",
							"name": "shop",
							"type": "address"
						},
						{
							"internalType": "string",
							"name": "description",
							"type": "string"
						},
						{
							"internalType": "uint256",
							"name": "price",
							"type": "uint256"
						},
						{
							"internalType": "uint256",
							"name": "id",
							"type": "uint256"
						}
					],
					"stateMutability": "view",
					"type": "function"
				},
				{
					"inputs": [
						{
							"internalType": "uint256",
							"name": "",
							"type": "uint256"
						}
					],
					"name": "structStatusPurchases",
					"outputs": [
						{
							"internalType": "address",
							"name": "userLogin",
							"type": "address"
						},
						{
							"internalType": "string",
							"name": "titleProduct",
							"type": "string"
						},
						{
							"internalType": "bool",
							"name": "status",
							"type": "bool"
						}
					],
					"stateMutability": "view",
					"type": "function"
				},
				{
					"inputs": [
						{
							"internalType": "uint256",
							"name": "",
							"type": "uint256"
						}
					],
					"name": "structStatusReturns",
					"outputs": [
						{
							"internalType": "address",
							"name": "userLogin",
							"type": "address"
						},
						{
							"internalType": "string",
							"name": "titleProduct",
							"type": "string"
						},
						{
							"internalType": "bool",
							"name": "status",
							"type": "bool"
						}
					],
					"stateMutability": "view",
					"type": "function"
				},
				{
					"inputs": [
						{
							"internalType": "string",
							"name": "",
							"type": "string"
						}
					],
					"name": "structUserLogins",
					"outputs": [
						{
							"internalType": "address",
							"name": "",
							"type": "address"
						}
					],
					"stateMutability": "view",
					"type": "function"
				},
				{
					"inputs": [
						{
							"internalType": "address",
							"name": "",
							"type": "address"
						}
					],
					"name": "structUsers",
					"outputs": [
						{
							"internalType": "string",
							"name": "userName",
							"type": "string"
						},
						{
							"internalType": "uint256",
							"name": "password",
							"type": "uint256"
						},
						{
							"internalType": "uint256",
							"name": "ballance",
							"type": "uint256"
						},
						{
							"internalType": "bool",
							"name": "role",
							"type": "bool"
						}
					],
					"stateMutability": "view",
					"type": "function"
				}
			],
			"devdoc": {
				"kind": "dev",
				"methods": {},
				"version": 1
			},
			"evm": {
				"assembly": "    /* \"Documents/GitHub/Store-system-with-feedback/main.sol\":74:8771  contract coursepaper {\r... */\n  mstore(0x40, 0x80)\n    /* \"Documents/GitHub/Store-system-with-feedback/main.sol\":2885:2886  0 */\n  0x00\n    /* \"Documents/GitHub/Store-system-with-feedback/main.sol\":2850:2886  uint256 addProductShop_idProduct = 0 */\n  0x0d\n  sstore\n    /* \"Documents/GitHub/Store-system-with-feedback/main.sol\":129:869  constructor() public {\r... */\n  callvalue\n  dup1\n  iszero\n  tag_1\n  jumpi\n  0x00\n  dup1\n  revert\ntag_1:\n  pop\n    /* \"Documents/GitHub/Store-system-with-feedback/main.sol\":232:274  structShop(\"Food\", \"1\", \"Moscow\", 1000, 0) */\n  0x40\n  dup1\n  mload\n  0xe0\n  dup2\n  add\n  dup3\n  mstore\n  0x04\n  0xa0\n  dup3\n  add\n  swap1\n  dup2\n  mstore\n  shl(0xe2, 0x119bdbd9)\n  0xc0\n  dup4\n  add\n  mstore\n  dup2\n  mstore\n  dup2\n  mload\n  dup1\n  dup4\n  add\n  dup4\n  mstore\n  0x01\n  dup2\n  mstore\n  shl(0xf8, 0x31)\n  0x20\n  dup3\n  dup2\n  add\n  swap2\n  swap1\n  swap2\n  mstore\n  dup1\n  dup4\n  add\n  swap2\n  swap1\n  swap2\n  mstore\n  dup3\n  mload\n  dup1\n  dup5\n  add\n  dup5\n  mstore\n  0x06\n  dup2\n  mstore\n  shl(0xd0, 0x4d6f73636f77)\n  dup2\n  dup4\n  add\n  mstore\n  swap3\n  dup3\n  add\n  swap3\n  swap1\n  swap3\n  mstore\n    /* \"Documents/GitHub/Store-system-with-feedback/main.sol\":266:270  1000 */\n  0x03e8\n  0x60\n  dup3\n  add\n    /* \"Documents/GitHub/Store-system-with-feedback/main.sol\":232:274  structShop(\"Food\", \"1\", \"Moscow\", 1000, 0) */\n  mstore\n  0x00\n  0x80\n  dup3\n  add\n  dup2\n  swap1\n  mstore\n    /* \"Documents/GitHub/Store-system-with-feedback/main.sol\":186:228  0xe99C55AC245Ce186aDbfE5b288b289F7ae9F0243 */\n  0xe99c55ac245ce186adbfe5b288b289f7ae9f0243\n    /* \"Documents/GitHub/Store-system-with-feedback/main.sol\":180:229  shops[0xe99C55AC245Ce186aDbfE5b288b289F7ae9F0243] */\n  dup2\n  mstore\n  dup3\n  mstore\n    /* \"Documents/GitHub/Store-system-with-feedback/main.sol\":180:274  shops[0xe99C55AC245Ce186aDbfE5b288b289F7ae9F0243] = structShop(\"Food\", \"1\", \"Moscow\", 1000, 0) */\n  dup1\n  mload\n  dup1\n  mload\n    /* \"Documents/GitHub/Store-system-with-feedback/main.sol\":232:274  structShop(\"Food\", \"1\", \"Moscow\", 1000, 0) */\n  swap2\n  swap3\n  0x00\n  dup1\n  mload\n  0x20\n  data_f42f4ea1a4cd40cedf05608f6b389dba2d0d81712415573129b23d3c3eeb7ee4\n  dup4\n  codecopy\n  dup2\n  mload\n  swap2\n  mstore\n    /* \"Documents/GitHub/Store-system-with-feedback/main.sol\":180:229  shops[0xe99C55AC245Ce186aDbfE5b288b289F7ae9F0243] */\n  swap3\n    /* \"Documents/GitHub/Store-system-with-feedback/main.sol\":180:274  shops[0xe99C55AC245Ce186aDbfE5b288b289F7ae9F0243] = structShop(\"Food\", \"1\", \"Moscow\", 1000, 0) */\n  tag_4\n  swap3\n    /* \"Documents/GitHub/Store-system-with-feedback/main.sol\":180:229  shops[0xe99C55AC245Ce186aDbfE5b288b289F7ae9F0243] */\n  dup5\n  swap3\n    /* \"Documents/GitHub/Store-system-with-feedback/main.sol\":180:274  shops[0xe99C55AC245Ce186aDbfE5b288b289F7ae9F0243] = structShop(\"Food\", \"1\", \"Moscow\", 1000, 0) */\n  add\n  swap1\n  tag_5\n  jump\t// in\ntag_4:\n  pop\n  0x20\n  dup3\n  dup2\n  add\n  mload\n  dup1\n  mload\n  tag_6\n  swap3\n  0x01\n  dup6\n  add\n  swap3\n  add\n  swap1\n  tag_5\n  jump\t// in\ntag_6:\n  pop\n  0x40\n  dup3\n  add\n  mload\n  dup1\n  mload\n  tag_7\n  swap2\n  0x02\n  dup5\n  add\n  swap2\n  0x20\n  swap1\n  swap2\n  add\n  swap1\n  tag_5\n  jump\t// in\ntag_7:\n  pop\n  0x60\n  dup3\n  add\n  mload\n  0x03\n  dup3\n  add\n  sstore\n  0x80\n  swap1\n  swap2\n  add\n  mload\n  0x04\n  swap1\n  swap2\n  add\n  sstore\n  0x00\n    /* \"Documents/GitHub/Store-system-with-feedback/main.sol\":299:348  shops[0xe99C55AC245Ce186aDbfE5b288b289F7ae9F0243] */\n  0x20\n  dup2\n  swap1\n  mstore\n    /* \"Documents/GitHub/Store-system-with-feedback/main.sol\":285:293  shopList */\n  0x02\n    /* \"Documents/GitHub/Store-system-with-feedback/main.sol\":285:354  shopList.push(shops[0xe99C55AC245Ce186aDbfE5b288b289F7ae9F0243].name) */\n  dup1\n  sload\n  0x01\n  dup2\n  add\n  dup3\n  sstore\n  swap2\n  mstore\n  0x00\n  dup1\n  mload\n  0x20\n  data_f42f4ea1a4cd40cedf05608f6b389dba2d0d81712415573129b23d3c3eeb7ee4\n  dup4\n  codecopy\n  dup2\n  mload\n  swap2\n  mstore\n  dup1\n  sload\n  0x00\n  dup1\n  mload\n  0x20\n  data_1ab0c6948a275349ae45a06aad66a8bd65ac18074615d53676c09b67809099e0\n  dup4\n  codecopy\n  dup2\n  mload\n  swap2\n  mstore\n  swap1\n  swap3\n  add\n  swap2\n  tag_9\n  swap1\n  tag_10\n  jump\t// in\ntag_9:\n  tag_11\n  swap3\n  swap2\n  swap1\n  tag_12\n  jump\t// in\ntag_11:\n  pop\n    /* \"Documents/GitHub/Store-system-with-feedback/main.sol\":417:466  structShop(\"Clothes\", \"2\", \"Petersburg\", 1000, 0) */\n  0x40\n  dup1\n  mload\n  0xe0\n  dup2\n  add\n  dup3\n  mstore\n  0x07\n  0xa0\n  dup3\n  add\n  swap1\n  dup2\n  mstore\n  shl(0xc8, 0x436c6f74686573)\n  0xc0\n  dup4\n  add\n  mstore\n  dup2\n  mstore\n  dup2\n  mload\n  dup1\n  dup4\n  add\n  dup4\n  mstore\n  0x01\n  dup2\n  mstore\n  shl(0xf9, 0x19)\n  0x20\n  dup3\n  dup2\n  add\n  swap2\n  swap1\n  swap2\n  mstore\n  dup1\n  dup4\n  add\n  swap2\n  swap1\n  swap2\n  mstore\n  dup3\n  mload\n  dup1\n  dup5\n  add\n  dup5\n  mstore\n  0x0a\n  dup2\n  mstore\n  shl(0xb0, 0x50657465727362757267)\n  dup2\n  dup4\n  add\n  mstore\n  swap3\n  dup3\n  add\n  swap3\n  swap1\n  swap3\n  mstore\n    /* \"Documents/GitHub/Store-system-with-feedback/main.sol\":458:462  1000 */\n  0x03e8\n  0x60\n  dup3\n  add\n    /* \"Documents/GitHub/Store-system-with-feedback/main.sol\":417:466  structShop(\"Clothes\", \"2\", \"Petersburg\", 1000, 0) */\n  mstore\n  0x00\n  0x80\n  dup3\n  add\n  dup2\n  swap1\n  mstore\n    /* \"Documents/GitHub/Store-system-with-feedback/main.sol\":371:413  0xEa4459f020f6cbFc65A86De447B1933Aa1C9F9f9 */\n  0xea4459f020f6cbfc65a86de447b1933aa1c9f9f9\n    /* \"Documents/GitHub/Store-system-with-feedback/main.sol\":365:414  shops[0xEa4459f020f6cbFc65A86De447B1933Aa1C9F9f9] */\n  dup2\n  mstore\n  dup3\n  mstore\n    /* \"Documents/GitHub/Store-system-with-feedback/main.sol\":365:466  shops[0xEa4459f020f6cbFc65A86De447B1933Aa1C9F9f9] = structShop(\"Clothes\", \"2\", \"Petersburg\", 1000, 0) */\n  dup1\n  mload\n  dup1\n  mload\n    /* \"Documents/GitHub/Store-system-with-feedback/main.sol\":417:466  structShop(\"Clothes\", \"2\", \"Petersburg\", 1000, 0) */\n  swap2\n  swap3\n  0x00\n  dup1\n  mload\n  0x20\n  data_f65a78b9c0c22f2a293865d6a8cd8ea4b3dd6532dd50dbbf6ec4fac3c8c279d5\n  dup4\n  codecopy\n  dup2\n  mload\n  swap2\n  mstore\n    /* \"Documents/GitHub/Store-system-with-feedback/main.sol\":365:414  shops[0xEa4459f020f6cbFc65A86De447B1933Aa1C9F9f9] */\n  swap3\n    /* \"Documents/GitHub/Store-system-with-feedback/main.sol\":365:466  shops[0xEa4459f020f6cbFc65A86De447B1933Aa1C9F9f9] = structShop(\"Clothes\", \"2\", \"Petersburg\", 1000, 0) */\n  tag_13\n  swap3\n    /* \"Documents/GitHub/Store-system-with-feedback/main.sol\":365:414  shops[0xEa4459f020f6cbFc65A86De447B1933Aa1C9F9f9] */\n  dup5\n  swap3\n    /* \"Documents/GitHub/Store-system-with-feedback/main.sol\":365:466  shops[0xEa4459f020f6cbFc65A86De447B1933Aa1C9F9f9] = structShop(\"Clothes\", \"2\", \"Petersburg\", 1000, 0) */\n  add\n  swap1\n  tag_5\n  jump\t// in\ntag_13:\n  pop\n  0x20\n  dup3\n  dup2\n  add\n  mload\n  dup1\n  mload\n  tag_14\n  swap3\n  0x01\n  dup6\n  add\n  swap3\n  add\n  swap1\n  tag_5\n  jump\t// in\ntag_14:\n  pop\n  0x40\n  dup3\n  add\n  mload\n  dup1\n  mload\n  tag_15\n  swap2\n  0x02\n  dup5\n  add\n  swap2\n  0x20\n  swap1\n  swap2\n  add\n  swap1\n  tag_5\n  jump\t// in\ntag_15:\n  pop\n  0x60\n  dup3\n  add\n  mload\n  0x03\n  dup3\n  add\n  sstore\n  0x80\n  swap1\n  swap2\n  add\n  mload\n  0x04\n  swap1\n  swap2\n  add\n  sstore\n  0x00\n    /* \"Documents/GitHub/Store-system-with-feedback/main.sol\":491:540  shops[0xEa4459f020f6cbFc65A86De447B1933Aa1C9F9f9] */\n  0x20\n  dup2\n  swap1\n  mstore\n    /* \"Documents/GitHub/Store-system-with-feedback/main.sol\":477:485  shopList */\n  0x02\n    /* \"Documents/GitHub/Store-system-with-feedback/main.sol\":477:546  shopList.push(shops[0xEa4459f020f6cbFc65A86De447B1933Aa1C9F9f9].name) */\n  dup1\n  sload\n  0x01\n  dup2\n  add\n  dup3\n  sstore\n  swap2\n  mstore\n  0x00\n  dup1\n  mload\n  0x20\n  data_f65a78b9c0c22f2a293865d6a8cd8ea4b3dd6532dd50dbbf6ec4fac3c8c279d5\n  dup4\n  codecopy\n  dup2\n  mload\n  swap2\n  mstore\n  dup1\n  sload\n  0x00\n  dup1\n  mload\n  0x20\n  data_1ab0c6948a275349ae45a06aad66a8bd65ac18074615d53676c09b67809099e0\n  dup4\n  codecopy\n  dup2\n  mload\n  swap2\n  mstore\n  swap1\n  swap3\n  add\n  swap2\n  tag_17\n  swap1\n  tag_10\n  jump\t// in\ntag_17:\n  tag_18\n  swap3\n  swap2\n  swap1\n  tag_12\n  jump\t// in\ntag_18:\n  pop\n    /* \"Documents/GitHub/Store-system-with-feedback/main.sol\":602:644  0x8bE65d204A762B0A1e61039a1bA362eBe65B21c1 */\n  0x8be65d204a762b0a1e61039a1ba362ebe65b21c1\n    /* \"Documents/GitHub/Store-system-with-feedback/main.sol\":575:591  structUserLogins */\n  0x05\n    /* \"Documents/GitHub/Store-system-with-feedback/main.sol\":575:599  structUserLogins[\"Peta\"] */\n  mload(0x40)\n  tag_19\n  swap1\n  shl(0xe0, 0x50657461)\n    /* \"#utility.yul\":216:235   */\n  dup2\n  mstore\n    /* \"#utility.yul\":260:261   */\n  0x04\n    /* \"#utility.yul\":251:262   */\n  add\n  swap1\n    /* \"#utility.yul\":14:268   */\n  jump\n    /* \"Documents/GitHub/Store-system-with-feedback/main.sol\":575:599  structUserLogins[\"Peta\"] */\ntag_19:\n  swap1\n  dup2\n  mstore\n  0x40\n  dup1\n  mload\n  0x20\n  swap3\n  dup2\n  swap1\n  sub\n  dup4\n  add\n  dup2\n  keccak256\n    /* \"Documents/GitHub/Store-system-with-feedback/main.sol\":575:644  structUserLogins[\"Peta\"] = 0x8bE65d204A762B0A1e61039a1bA362eBe65B21c1 */\n  dup1\n  sload\n  not(sub(shl(0xa0, 0x01), 0x01))\n  and\n  sub(shl(0xa0, 0x01), 0x01)\n  swap6\n  swap1\n  swap6\n  and\n  swap5\n  swap1\n  swap5\n  or\n  swap1\n  swap4\n  sstore\n    /* \"Documents/GitHub/Store-system-with-feedback/main.sol\":713:746  structUser(\"Peta\" ,1, 1000, true) */\n  0xc0\n  dup4\n  add\n  dup2\n  mstore\n  0x04\n  0x80\n  dup5\n  add\n  dup2\n  dup2\n  mstore\n  shl(0xe0, 0x50657461)\n  0xa0\n  dup7\n  add\n  mstore\n  dup5\n  mstore\n  0x01\n  dup4\n  dup6\n  add\n  dup2\n  swap1\n  mstore\n    /* \"Documents/GitHub/Store-system-with-feedback/main.sol\":735:739  1000 */\n  0x03e8\n    /* \"Documents/GitHub/Store-system-with-feedback/main.sol\":713:746  structUser(\"Peta\" ,1, 1000, true) */\n  swap3\n  dup6\n  add\n  swap3\n  swap1\n  swap3\n  mstore\n  0x60\n  dup5\n  add\n  swap2\n  swap1\n  swap2\n  mstore\n    /* \"Documents/GitHub/Store-system-with-feedback/main.sol\":667:709  0x8bE65d204A762B0A1e61039a1bA362eBe65B21c1 */\n  0x8be65d204a762b0a1e61039a1ba362ebe65b21c1\n  0x00\n    /* \"Documents/GitHub/Store-system-with-feedback/main.sol\":655:710  structUsers[0x8bE65d204A762B0A1e61039a1bA362eBe65B21c1] */\n  mstore\n  dup2\n  mstore\n    /* \"Documents/GitHub/Store-system-with-feedback/main.sol\":655:746  structUsers[0x8bE65d204A762B0A1e61039a1bA362eBe65B21c1] = structUser(\"Peta\" ,1, 1000, true) */\n  dup2\n  mload\n  dup1\n  mload\n    /* \"Documents/GitHub/Store-system-with-feedback/main.sol\":655:710  structUsers[0x8bE65d204A762B0A1e61039a1bA362eBe65B21c1] */\n  0xd17570c1fab7a57a200783c8f7634aa181849d996af02bfa1a4c343dff09b133\n  swap3\n    /* \"Documents/GitHub/Store-system-with-feedback/main.sol\":655:746  structUsers[0x8bE65d204A762B0A1e61039a1bA362eBe65B21c1] = structUser(\"Peta\" ,1, 1000, true) */\n  tag_21\n  swap3\n    /* \"Documents/GitHub/Store-system-with-feedback/main.sol\":655:710  structUsers[0x8bE65d204A762B0A1e61039a1bA362eBe65B21c1] */\n  dup5\n  swap3\n    /* \"Documents/GitHub/Store-system-with-feedback/main.sol\":655:746  structUsers[0x8bE65d204A762B0A1e61039a1bA362eBe65B21c1] = structUser(\"Peta\" ,1, 1000, true) */\n  swap2\n  add\n  swap1\n  tag_5\n  jump\t// in\ntag_21:\n  pop\n  0x20\n  dup3\n  dup2\n  add\n  mload\n  0x01\n  dup4\n  dup2\n  add\n  swap2\n  swap1\n  swap2\n  sstore\n  0x40\n  dup1\n  dup6\n  add\n  mload\n  0x02\n  dup6\n  add\n  sstore\n  0x60\n  swap1\n  swap5\n  add\n  mload\n  0x03\n  swap1\n  swap4\n  add\n  dup1\n  sload\n  not(0xff)\n  and\n  swap4\n  iszero\n  iszero\n  swap4\n  swap1\n  swap4\n  or\n  swap1\n  swap3\n  sstore\n    /* \"Documents/GitHub/Store-system-with-feedback/main.sol\":757:772  userLoginsArray */\n  0x06\n    /* \"Documents/GitHub/Store-system-with-feedback/main.sol\":757:785  userLoginsArray.push(\"Peta\") */\n  dup1\n  sload\n  swap3\n  dup4\n  add\n  dup2\n  sstore\n  0x00\n  mstore\n  dup3\n  mload\n  dup1\n  dup5\n  add\n  swap1\n  swap4\n  mstore\n  0x04\n  dup1\n  dup5\n  mstore\n  shl(0xe0, 0x50657461)\n  swap4\n  swap1\n  swap2\n  add\n  swap3\n  dup4\n  mstore\n  tag_23\n  swap3\n  0xf652222313e28459528d920b65115c16c04f3efc82aaedc97be59f3f377c0d3f\n  swap1\n  swap3\n  add\n  swap2\n  swap1\n  tag_5\n  jump\t// in\ntag_23:\n  pop\n    /* \"Documents/GitHub/Store-system-with-feedback/main.sol\":796:812  userAddressArray */\n  0x07\n    /* \"Documents/GitHub/Store-system-with-feedback/main.sol\":796:861  userAddressArray.push(0x8bE65d204A762B0A1e61039a1bA362eBe65B21c1) */\n  dup1\n  sload\n  0x01\n  dup2\n  add\n  dup3\n  sstore\n  0x00\n  swap2\n  swap1\n  swap2\n  mstore\n  0xa66cc928b5edb82af9bd49922954155ab7b0942694bea4ce44661d9a8736c688\n  add\n  dup1\n  sload\n  not(sub(shl(0xa0, 0x01), 0x01))\n  and\n    /* \"Documents/GitHub/Store-system-with-feedback/main.sol\":818:860  0x8bE65d204A762B0A1e61039a1bA362eBe65B21c1 */\n  0x8be65d204a762b0a1e61039a1ba362ebe65b21c1\n    /* \"Documents/GitHub/Store-system-with-feedback/main.sol\":796:861  userAddressArray.push(0x8bE65d204A762B0A1e61039a1bA362eBe65B21c1) */\n  or\n  swap1\n  sstore\n    /* \"Documents/GitHub/Store-system-with-feedback/main.sol\":74:8771  contract coursepaper {\r... */\n  jump(tag_43)\ntag_5:\n  dup3\n  dup1\n  sload\n  tag_26\n  swap1\n  tag_10\n  jump\t// in\ntag_26:\n  swap1\n  0x00\n  mstore\n  keccak256(0x00, 0x20)\n  swap1\n  0x1f\n  add\n  0x20\n  swap1\n  div\n  dup2\n  add\n  swap3\n  dup3\n  tag_28\n  jumpi\n  0x00\n  dup6\n  sstore\n  jump(tag_31)\ntag_28:\n  dup3\n  0x1f\n  lt\n  tag_29\n  jumpi\n  dup1\n  mload\n  not(0xff)\n  and\n  dup4\n  dup1\n  add\n  or\n  dup6\n  sstore\n  jump(tag_31)\ntag_29:\n  dup3\n  dup1\n  add\n  0x01\n  add\n  dup6\n  sstore\n  dup3\n  iszero\n  tag_31\n  jumpi\n  swap2\n  dup3\n  add\ntag_30:\n  dup3\n  dup2\n  gt\n  iszero\n  tag_31\n  jumpi\n  dup3\n  mload\n  dup3\n  sstore\n  swap2\n  0x20\n  add\n  swap2\n  swap1\n  0x01\n  add\n  swap1\n  jump(tag_30)\ntag_31:\n  pop\n  tag_32\n  swap3\n  swap2\n  pop\n  tag_33\n  jump\t// in\ntag_32:\n  pop\n  swap1\n  jump\t// out\ntag_12:\n  dup3\n  dup1\n  sload\n  tag_34\n  swap1\n  tag_10\n  jump\t// in\ntag_34:\n  swap1\n  0x00\n  mstore\n  keccak256(0x00, 0x20)\n  swap1\n  0x1f\n  add\n  0x20\n  swap1\n  div\n  dup2\n  add\n  swap3\n  dup3\n  tag_36\n  jumpi\n  0x00\n  dup6\n  sstore\n  jump(tag_31)\ntag_36:\n  dup3\n  0x1f\n  lt\n  tag_37\n  jumpi\n  dup1\n  sload\n  dup6\n  sstore\n  jump(tag_31)\ntag_37:\n  dup3\n  dup1\n  add\n  0x01\n  add\n  dup6\n  sstore\n  dup3\n  iszero\n  tag_31\n  jumpi\n  0x00\n  mstore\n  keccak256(0x00, 0x20)\n  swap2\n  0x1f\n  add\n  0x20\n  swap1\n  div\n  dup3\n  add\ntag_38:\n  dup3\n  dup2\n  gt\n  iszero\n  tag_31\n  jumpi\n  dup3\n  sload\n  dup3\n  sstore\n  swap2\n  0x01\n  add\n  swap2\n  swap1\n  0x01\n  add\n  swap1\n  jump(tag_38)\ntag_33:\ntag_41:\n  dup1\n  dup3\n  gt\n  iszero\n  tag_32\n  jumpi\n  0x00\n  dup2\n  sstore\n  0x01\n  add\n  jump(tag_41)\n    /* \"#utility.yul\":273:653   */\ntag_10:\n    /* \"#utility.yul\":352:353   */\n  0x01\n    /* \"#utility.yul\":348:360   */\n  dup2\n  dup2\n  shr\n  swap1\n    /* \"#utility.yul\":395:407   */\n  dup3\n  and\n  dup1\n    /* \"#utility.yul\":416:477   */\n  tag_46\n  jumpi\n    /* \"#utility.yul\":470:474   */\n  0x7f\n    /* \"#utility.yul\":462:468   */\n  dup3\n    /* \"#utility.yul\":458:475   */\n  and\n    /* \"#utility.yul\":448:475   */\n  swap2\n  pop\n    /* \"#utility.yul\":416:477   */\ntag_46:\n    /* \"#utility.yul\":523:525   */\n  0x20\n    /* \"#utility.yul\":515:521   */\n  dup3\n    /* \"#utility.yul\":512:526   */\n  lt\n    /* \"#utility.yul\":492:510   */\n  dup2\n    /* \"#utility.yul\":489:527   */\n  eq\n    /* \"#utility.yul\":486:647   */\n  iszero\n  tag_47\n  jumpi\n    /* \"#utility.yul\":569:579   */\n  0x4e487b71\n    /* \"#utility.yul\":564:567   */\n  0xe0\n    /* \"#utility.yul\":560:580   */\n  shl\n    /* \"#utility.yul\":557:558   */\n  0x00\n    /* \"#utility.yul\":550:581   */\n  mstore\n    /* \"#utility.yul\":604:608   */\n  0x22\n    /* \"#utility.yul\":601:602   */\n  0x04\n    /* \"#utility.yul\":594:609   */\n  mstore\n    /* \"#utility.yul\":632:636   */\n  0x24\n    /* \"#utility.yul\":629:630   */\n  0x00\n    /* \"#utility.yul\":622:637   */\n  revert\n    /* \"#utility.yul\":486:647   */\ntag_47:\n  pop\n    /* \"#utility.yul\":273:653   */\n  swap2\n  swap1\n  pop\n  jump\t// out\ntag_43:\n    /* \"Documents/GitHub/Store-system-with-feedback/main.sol\":74:8771  contract coursepaper {\r... */\n  dataSize(sub_0)\n  dup1\n  dataOffset(sub_0)\n  0x00\n  codecopy\n  0x00\n  return\nstop\ndata_1ab0c6948a275349ae45a06aad66a8bd65ac18074615d53676c09b67809099e0 405787fa12a823e0f2b7631cc41b3ba8828b3321ca811111fa75cd3aa3bb5ace\ndata_f42f4ea1a4cd40cedf05608f6b389dba2d0d81712415573129b23d3c3eeb7ee4 a4629bf9daa4d0816e85b79d58daaabcac7b71b32d11bdfd27785bb59cd6cac6\ndata_f65a78b9c0c22f2a293865d6a8cd8ea4b3dd6532dd50dbbf6ec4fac3c8c279d5 cb970ebb9edb880ac802b1a3c9eefe4439695bf104b16c8261476629532582fa\n\nsub_0: assembly {\n        /* \"Documents/GitHub/Store-system-with-feedback/main.sol\":74:8771  contract coursepaper {\r... */\n      mstore(0x40, 0x80)\n      callvalue\n      dup1\n      iszero\n      tag_1\n      jumpi\n      0x00\n      dup1\n      revert\n    tag_1:\n      pop\n      jumpi(tag_2, lt(calldatasize, 0x04))\n      shr(0xe0, calldataload(0x00))\n      dup1\n      0x0c72b1ec\n      eq\n      tag_3\n      jumpi\n      dup1\n      0x146dc6ed\n      eq\n      tag_4\n      jumpi\n      dup1\n      0x1bbe970a\n      eq\n      tag_5\n      jumpi\n      dup1\n      0x29e795f3\n      eq\n      tag_6\n      jumpi\n      dup1\n      0x2ccdef7c\n      eq\n      tag_7\n      jumpi\n      dup1\n      0x2d4673e3\n      eq\n      tag_8\n      jumpi\n      dup1\n      0x34d2c0ad\n      eq\n      tag_9\n      jumpi\n      dup1\n      0x6ba44d3c\n      eq\n      tag_10\n      jumpi\n      dup1\n      0x6c05dd1d\n      eq\n      tag_11\n      jumpi\n      dup1\n      0x7ddb273d\n      eq\n      tag_12\n      jumpi\n      dup1\n      0x961865f0\n      eq\n      tag_13\n      jumpi\n      dup1\n      0xa985036d\n      eq\n      tag_14\n      jumpi\n      dup1\n      0xa9f9482b\n      eq\n      tag_15\n      jumpi\n      dup1\n      0xbbd43363\n      eq\n      tag_16\n      jumpi\n      dup1\n      0xc178b9af\n      eq\n      tag_17\n      jumpi\n      dup1\n      0xc4957fa0\n      eq\n      tag_18\n      jumpi\n      dup1\n      0xcc21c188\n      eq\n      tag_19\n      jumpi\n      dup1\n      0xd68cf8c1\n      eq\n      tag_20\n      jumpi\n      dup1\n      0xdce39151\n      eq\n      tag_21\n      jumpi\n      dup1\n      0xe38d9087\n      eq\n      tag_22\n      jumpi\n      dup1\n      0xf69483c1\n      eq\n      tag_23\n      jumpi\n    tag_2:\n      0x00\n      dup1\n      revert\n        /* \"Documents/GitHub/Store-system-with-feedback/main.sol\":3972:4600  function acceptPurchase (uint idPurchase, bool confirmation) public {\r... */\n    tag_3:\n      tag_24\n      tag_25\n      calldatasize\n      0x04\n      tag_26\n      jump\t// in\n    tag_25:\n      tag_27\n      jump\t// in\n    tag_24:\n      stop\n        /* \"Documents/GitHub/Store-system-with-feedback/main.sol\":7424:7695  function productPurchases (string memory titleProduct) public {\r... */\n    tag_4:\n      tag_24\n      tag_29\n      calldatasize\n      0x04\n      tag_30\n      jump\t// in\n    tag_29:\n      tag_31\n      jump\t// in\n        /* \"Documents/GitHub/Store-system-with-feedback/main.sol\":1761:1811  mapping(string => address) public structUserLogins */\n    tag_5:\n      tag_32\n      tag_33\n      calldatasize\n      0x04\n      tag_30\n      jump\t// in\n    tag_33:\n      dup1\n      mload\n      0x20\n      dup2\n      dup4\n      add\n      dup2\n      add\n      dup1\n      mload\n      0x05\n      dup3\n      mstore\n      swap3\n      dup3\n      add\n      swap2\n      swap1\n      swap4\n      add\n      keccak256\n      swap2\n      mstore\n      sload\n      sub(shl(0xa0, 0x01), 0x01)\n      and\n      dup2\n      jump\n    tag_32:\n      mload(0x40)\n      sub(shl(0xa0, 0x01), 0x01)\n        /* \"#utility.yul\":6630:6662   */\n      swap1\n      swap2\n      and\n        /* \"#utility.yul\":6612:6663   */\n      dup2\n      mstore\n        /* \"#utility.yul\":6600:6602   */\n      0x20\n        /* \"#utility.yul\":6585:6603   */\n      add\n        /* \"Documents/GitHub/Store-system-with-feedback/main.sol\":1761:1811  mapping(string => address) public structUserLogins */\n    tag_35:\n      mload(0x40)\n      dup1\n      swap2\n      sub\n      swap1\n      return\n        /* \"Documents/GitHub/Store-system-with-feedback/main.sol\":6918:7337  function leaveComment (string memory userName, string[] memory comment) public {\r... */\n    tag_6:\n      tag_24\n      tag_38\n      calldatasize\n      0x04\n      tag_39\n      jump\t// in\n    tag_38:\n      tag_40\n      jump\t// in\n        /* \"Documents/GitHub/Store-system-with-feedback/main.sol\":4645:5106  function acceptReturn(uint idReturn, bool confirmation) public {\r... */\n    tag_7:\n      tag_24\n      tag_42\n      calldatasize\n      0x04\n      tag_26\n      jump\t// in\n    tag_42:\n      tag_43\n      jump\t// in\n        /* \"Documents/GitHub/Store-system-with-feedback/main.sol\":7934:8118  function productMarriageRegistration (string memory titleProduct) public {\r... */\n    tag_8:\n      tag_24\n      tag_45\n      calldatasize\n      0x04\n      tag_30\n      jump\t// in\n    tag_45:\n      tag_46\n      jump\t// in\n        /* \"Documents/GitHub/Store-system-with-feedback/main.sol\":5893:5993  function getProductList() public view returns(string[] memory) {\r... */\n    tag_9:\n      tag_47\n      tag_48\n      jump\t// in\n    tag_47:\n      mload(0x40)\n      tag_35\n      swap2\n      swap1\n      tag_50\n      jump\t// in\n        /* \"Documents/GitHub/Store-system-with-feedback/main.sol\":8162:8283  function get_address(string memory login) public view returns(address) {\r... */\n    tag_10:\n      tag_32\n      tag_52\n      calldatasize\n      0x04\n      tag_30\n      jump\t// in\n    tag_52:\n      tag_53\n      jump\t// in\n        /* \"Documents/GitHub/Store-system-with-feedback/main.sol\":2893:3292  function addProductShop (string memory title, uint256 price, string memory description) public {\r... */\n    tag_11:\n      tag_24\n      tag_56\n      calldatasize\n      0x04\n      tag_57\n      jump\t// in\n    tag_56:\n      tag_58\n      jump\t// in\n        /* \"Documents/GitHub/Store-system-with-feedback/main.sol\":2708:2771  structMarriageRegistration[] public structMarriageRegistrations */\n    tag_12:\n      tag_59\n      tag_60\n      calldatasize\n      0x04\n      tag_61\n      jump\t// in\n    tag_60:\n      tag_62\n      jump\t// in\n    tag_59:\n      mload(0x40)\n      tag_35\n      swap4\n      swap3\n      swap2\n      swap1\n      tag_64\n      jump\t// in\n        /* \"Documents/GitHub/Store-system-with-feedback/main.sol\":1705:1754  mapping(address => structUser) public structUsers */\n    tag_13:\n      tag_65\n      tag_66\n      calldatasize\n      0x04\n      tag_67\n      jump\t// in\n    tag_66:\n      tag_68\n      jump\t// in\n    tag_65:\n      mload(0x40)\n      tag_35\n      swap5\n      swap4\n      swap3\n      swap2\n      swap1\n      tag_70\n      jump\t// in\n        /* \"Documents/GitHub/Store-system-with-feedback/main.sol\":6025:6878  function getStoryRating(string memory shopName) public view returns(uint) {\r... */\n    tag_14:\n      tag_71\n      tag_72\n      calldatasize\n      0x04\n      tag_30\n      jump\t// in\n    tag_72:\n      tag_73\n      jump\t// in\n    tag_71:\n      mload(0x40)\n        /* \"#utility.yul\":10406:10431   */\n      swap1\n      dup2\n      mstore\n        /* \"#utility.yul\":10394:10396   */\n      0x20\n        /* \"#utility.yul\":10379:10397   */\n      add\n        /* \"Documents/GitHub/Store-system-with-feedback/main.sol\":6025:6878  function getStoryRating(string memory shopName) public view returns(uint) {\r... */\n      tag_35\n        /* \"#utility.yul\":10260:10437   */\n      jump\n        /* \"Documents/GitHub/Store-system-with-feedback/main.sol\":2488:2535  structStatusReturn[] public structStatusReturns */\n    tag_15:\n      tag_59\n      tag_77\n      calldatasize\n      0x04\n      tag_61\n      jump\t// in\n    tag_77:\n      tag_78\n      jump\t// in\n        /* \"Documents/GitHub/Store-system-with-feedback/main.sol\":7734:7888  function productReturn (string memory titleProduct) public {\r... */\n    tag_16:\n      tag_24\n      tag_81\n      calldatasize\n      0x04\n      tag_30\n      jump\t// in\n    tag_81:\n      tag_82\n      jump\t// in\n        /* \"Documents/GitHub/Store-system-with-feedback/main.sol\":5763:5857  function getShopList() public view returns(string[] memory) {\r... */\n    tag_17:\n      tag_47\n      tag_84\n      jump\t// in\n        /* \"Documents/GitHub/Store-system-with-feedback/main.sol\":1185:1228  mapping(string => address) public shopLists */\n    tag_18:\n      tag_32\n      tag_87\n      calldatasize\n      0x04\n      tag_30\n      jump\t// in\n    tag_87:\n      dup1\n      mload\n      0x20\n      dup2\n      dup4\n      add\n      dup2\n      add\n      dup1\n      mload\n      0x01\n      dup3\n      mstore\n      swap3\n      dup3\n      add\n      swap2\n      swap1\n      swap4\n      add\n      keccak256\n      swap2\n      mstore\n      sload\n      sub(shl(0xa0, 0x01), 0x01)\n      and\n      dup2\n      jump\n        /* \"Documents/GitHub/Store-system-with-feedback/main.sol\":3337:3925  function leaveFeedback (string memory shop, string memory feedback, uint256 rating) public {\r... */\n    tag_19:\n      tag_24\n      tag_91\n      calldatasize\n      0x04\n      tag_92\n      jump\t// in\n    tag_91:\n      tag_93\n      jump\t// in\n        /* \"Documents/GitHub/Store-system-with-feedback/main.sol\":2037:2091  mapping(string => structProduct) public structProducts */\n    tag_20:\n      tag_94\n      tag_95\n      calldatasize\n      0x04\n      tag_30\n      jump\t// in\n    tag_95:\n      tag_96\n      jump\t// in\n    tag_94:\n      mload(0x40)\n      tag_35\n      swap5\n      swap4\n      swap3\n      swap2\n      swap1\n      tag_98\n      jump\t// in\n        /* \"Documents/GitHub/Store-system-with-feedback/main.sol\":2280:2331  structStatusPurchase[] public structStatusPurchases */\n    tag_21:\n      tag_59\n      tag_100\n      calldatasize\n      0x04\n      tag_61\n      jump\t// in\n    tag_100:\n      tag_101\n      jump\t// in\n        /* \"Documents/GitHub/Store-system-with-feedback/main.sol\":8317:8747  function create_user(address addr, string memory login, uint password) public {\r... */\n    tag_22:\n      tag_24\n      tag_104\n      calldatasize\n      0x04\n      tag_105\n      jump\t// in\n    tag_104:\n      tag_106\n      jump\t// in\n        /* \"Documents/GitHub/Store-system-with-feedback/main.sol\":5152:5729  function MarriageRegistration(uint idMarriageRegistration, bool confirmation) public {\r... */\n    tag_23:\n      tag_24\n      tag_108\n      calldatasize\n      0x04\n      tag_26\n      jump\t// in\n    tag_108:\n      tag_109\n      jump\t// in\n        /* \"Documents/GitHub/Store-system-with-feedback/main.sol\":3972:4600  function acceptPurchase (uint idPurchase, bool confirmation) public {\r... */\n    tag_27:\n        /* \"Documents/GitHub/Store-system-with-feedback/main.sol\":4071:4075  true */\n      0x01\n        /* \"Documents/GitHub/Store-system-with-feedback/main.sol\":4055:4075  confirmation == true */\n      dup2\n      iszero\n      iszero\n      eq\n        /* \"Documents/GitHub/Store-system-with-feedback/main.sol\":4051:4593  if (confirmation == true) {\r... */\n      iszero\n      tag_111\n      jumpi\n        /* \"Documents/GitHub/Store-system-with-feedback/main.sol\":4135:4140  false */\n      0x00\n        /* \"Documents/GitHub/Store-system-with-feedback/main.sol\":4092:4113  structStatusPurchases */\n      0x0a\n        /* \"Documents/GitHub/Store-system-with-feedback/main.sol\":4114:4124  idPurchase */\n      dup4\n        /* \"Documents/GitHub/Store-system-with-feedback/main.sol\":4092:4125  structStatusPurchases[idPurchase] */\n      dup2\n      sload\n      dup2\n      lt\n      tag_113\n      jumpi\n      tag_113\n      tag_114\n      jump\t// in\n    tag_113:\n      swap1\n      0x00\n      mstore\n      keccak256(0x00, 0x20)\n      swap1\n      0x03\n      mul\n      add\n        /* \"Documents/GitHub/Store-system-with-feedback/main.sol\":4092:4132  structStatusPurchases[idPurchase].status */\n      0x02\n      add\n      0x00\n        /* \"Documents/GitHub/Store-system-with-feedback/main.sol\":4092:4140  structStatusPurchases[idPurchase].status = false */\n      0x0100\n      exp\n      dup2\n      sload\n      dup2\n      0xff\n      mul\n      not\n      and\n      swap1\n      dup4\n      iszero\n      iszero\n      mul\n      or\n      swap1\n      sstore\n      pop\n        /* \"Documents/GitHub/Store-system-with-feedback/main.sol\":4291:4305  structProducts */\n      0x08\n        /* \"Documents/GitHub/Store-system-with-feedback/main.sol\":4306:4327  structStatusPurchases */\n      0x0a\n        /* \"Documents/GitHub/Store-system-with-feedback/main.sol\":4328:4338  idPurchase */\n      dup4\n        /* \"Documents/GitHub/Store-system-with-feedback/main.sol\":4306:4339  structStatusPurchases[idPurchase] */\n      dup2\n      sload\n      dup2\n      lt\n      tag_117\n      jumpi\n      tag_117\n      tag_114\n      jump\t// in\n    tag_117:\n      swap1\n      0x00\n      mstore\n      keccak256(0x00, 0x20)\n      swap1\n      0x03\n      mul\n      add\n        /* \"Documents/GitHub/Store-system-with-feedback/main.sol\":4306:4352  structStatusPurchases[idPurchase].titleProduct */\n      0x01\n      add\n        /* \"Documents/GitHub/Store-system-with-feedback/main.sol\":4291:4353  structProducts[structStatusPurchases[idPurchase].titleProduct] */\n      mload(0x40)\n      tag_119\n      swap2\n      swap1\n      tag_120\n      jump\t// in\n    tag_119:\n      swap1\n      dup2\n      mstore\n      0x20\n      add\n      mload(0x40)\n      dup1\n      swap2\n      sub\n      swap1\n      keccak256\n        /* \"Documents/GitHub/Store-system-with-feedback/main.sol\":4291:4359  structProducts[structStatusPurchases[idPurchase].titleProduct].price */\n      0x02\n      add\n      sload\n        /* \"Documents/GitHub/Store-system-with-feedback/main.sol\":4223:4234  structUsers */\n      0x04\n        /* \"Documents/GitHub/Store-system-with-feedback/main.sol\":4223:4279  structUsers[structStatusPurchases[idPurchase].userLogin] */\n      0x00\n        /* \"Documents/GitHub/Store-system-with-feedback/main.sol\":4235:4256  structStatusPurchases */\n      0x0a\n        /* \"Documents/GitHub/Store-system-with-feedback/main.sol\":4257:4267  idPurchase */\n      dup6\n        /* \"Documents/GitHub/Store-system-with-feedback/main.sol\":4235:4268  structStatusPurchases[idPurchase] */\n      dup2\n      sload\n      dup2\n      lt\n      tag_122\n      jumpi\n      tag_122\n      tag_114\n      jump\t// in\n    tag_122:\n      0x00\n      swap2\n      dup3\n      mstore\n      0x20\n      dup1\n      dup4\n      keccak256\n      0x03\n      swap1\n      swap3\n      mul\n      swap1\n      swap2\n      add\n        /* \"Documents/GitHub/Store-system-with-feedback/main.sol\":4235:4278  structStatusPurchases[idPurchase].userLogin */\n      sload\n      sub(shl(0xa0, 0x01), 0x01)\n      and\n        /* \"Documents/GitHub/Store-system-with-feedback/main.sol\":4223:4279  structUsers[structStatusPurchases[idPurchase].userLogin] */\n      dup4\n      mstore\n      dup3\n      add\n      swap3\n      swap1\n      swap3\n      mstore\n      0x40\n      add\n      swap1\n      keccak256\n        /* \"Documents/GitHub/Store-system-with-feedback/main.sol\":4223:4288  structUsers[structStatusPurchases[idPurchase].userLogin].ballance */\n      0x02\n      add\n      sload\n        /* \"Documents/GitHub/Store-system-with-feedback/main.sol\":4223:4359  structUsers[structStatusPurchases[idPurchase].userLogin].ballance - structProducts[structStatusPurchases[idPurchase].titleProduct].price */\n      tag_124\n      swap2\n      swap1\n      tag_125\n      jump\t// in\n    tag_124:\n        /* \"Documents/GitHub/Store-system-with-feedback/main.sol\":4155:4166  structUsers */\n      0x04\n        /* \"Documents/GitHub/Store-system-with-feedback/main.sol\":4155:4211  structUsers[structStatusPurchases[idPurchase].userLogin] */\n      0x00\n        /* \"Documents/GitHub/Store-system-with-feedback/main.sol\":4167:4188  structStatusPurchases */\n      0x0a\n        /* \"Documents/GitHub/Store-system-with-feedback/main.sol\":4189:4199  idPurchase */\n      dup6\n        /* \"Documents/GitHub/Store-system-with-feedback/main.sol\":4167:4200  structStatusPurchases[idPurchase] */\n      dup2\n      sload\n      dup2\n      lt\n      tag_127\n      jumpi\n      tag_127\n      tag_114\n      jump\t// in\n    tag_127:\n      0x00\n      swap2\n      dup3\n      mstore\n      0x20\n      dup1\n      dup4\n      keccak256\n      0x03\n      swap1\n      swap3\n      mul\n      swap1\n      swap2\n      add\n        /* \"Documents/GitHub/Store-system-with-feedback/main.sol\":4167:4210  structStatusPurchases[idPurchase].userLogin */\n      sload\n      sub(shl(0xa0, 0x01), 0x01)\n      and\n        /* \"Documents/GitHub/Store-system-with-feedback/main.sol\":4155:4211  structUsers[structStatusPurchases[idPurchase].userLogin] */\n      dup4\n      mstore\n      dup3\n      add\n      swap3\n      swap1\n      swap3\n      mstore\n      0x40\n      add\n      swap1\n      keccak256\n        /* \"Documents/GitHub/Store-system-with-feedback/main.sol\":4155:4220  structUsers[structStatusPurchases[idPurchase].userLogin].ballance */\n      0x02\n      add\n        /* \"Documents/GitHub/Store-system-with-feedback/main.sol\":4155:4359  structUsers[structStatusPurchases[idPurchase].userLogin].ballance = structUsers[structStatusPurchases[idPurchase].userLogin].ballance - structProducts[structStatusPurchases[idPurchase].titleProduct].price */\n      sstore\n        /* \"Documents/GitHub/Store-system-with-feedback/main.sol\":4447:4468  structStatusPurchases */\n      0x0a\n        /* \"Documents/GitHub/Store-system-with-feedback/main.sol\":4447:4480  structStatusPurchases[idPurchase] */\n      dup1\n      sload\n        /* \"Documents/GitHub/Store-system-with-feedback/main.sol\":4432:4446  structProducts */\n      0x08\n      swap2\n        /* \"Documents/GitHub/Store-system-with-feedback/main.sol\":4447:4468  structStatusPurchases */\n      swap1\n        /* \"Documents/GitHub/Store-system-with-feedback/main.sol\":4469:4479  idPurchase */\n      dup5\n      swap1\n        /* \"Documents/GitHub/Store-system-with-feedback/main.sol\":4447:4480  structStatusPurchases[idPurchase] */\n      dup2\n      lt\n      tag_130\n      jumpi\n      tag_130\n      tag_114\n      jump\t// in\n    tag_130:\n      swap1\n      0x00\n      mstore\n      keccak256(0x00, 0x20)\n      swap1\n      0x03\n      mul\n      add\n        /* \"Documents/GitHub/Store-system-with-feedback/main.sol\":4447:4493  structStatusPurchases[idPurchase].titleProduct */\n      0x01\n      add\n        /* \"Documents/GitHub/Store-system-with-feedback/main.sol\":4432:4494  structProducts[structStatusPurchases[idPurchase].titleProduct] */\n      mload(0x40)\n      tag_132\n      swap2\n      swap1\n      tag_120\n      jump\t// in\n    tag_132:\n      swap1\n      dup2\n      mstore\n      0x40\n      dup1\n      mload\n      0x20\n      swap3\n      dup2\n      swap1\n      sub\n      dup4\n      add\n      swap1\n      keccak256\n        /* \"Documents/GitHub/Store-system-with-feedback/main.sol\":4432:4500  structProducts[structStatusPurchases[idPurchase].titleProduct].price */\n      0x02\n      add\n      sload\n        /* \"Documents/GitHub/Store-system-with-feedback/main.sol\":4409:4419  msg.sender */\n      caller\n        /* \"Documents/GitHub/Store-system-with-feedback/main.sol\":4403:4408  shops */\n      0x00\n        /* \"Documents/GitHub/Store-system-with-feedback/main.sol\":4403:4420  shops[msg.sender] */\n      swap1\n      dup2\n      mstore\n      swap3\n      dup4\n      swap1\n      mstore\n      swap2\n      keccak256\n        /* \"Documents/GitHub/Store-system-with-feedback/main.sol\":4403:4429  shops[msg.sender].ballance */\n      0x03\n      add\n      sload\n        /* \"Documents/GitHub/Store-system-with-feedback/main.sol\":4403:4500  shops[msg.sender].ballance + structProducts[structStatusPurchases[idPurchase].titleProduct].price */\n      tag_133\n      swap2\n        /* \"Documents/GitHub/Store-system-with-feedback/main.sol\":4432:4500  structProducts[structStatusPurchases[idPurchase].titleProduct].price */\n      swap1\n        /* \"Documents/GitHub/Store-system-with-feedback/main.sol\":4403:4500  shops[msg.sender].ballance + structProducts[structStatusPurchases[idPurchase].titleProduct].price */\n      tag_134\n      jump\t// in\n    tag_133:\n        /* \"Documents/GitHub/Store-system-with-feedback/main.sol\":4380:4390  msg.sender */\n      caller\n        /* \"Documents/GitHub/Store-system-with-feedback/main.sol\":4374:4379  shops */\n      0x00\n        /* \"Documents/GitHub/Store-system-with-feedback/main.sol\":4374:4391  shops[msg.sender] */\n      swap1\n      dup2\n      mstore\n      0x20\n      dup2\n      swap1\n      mstore\n      0x40\n      swap1\n      keccak256\n        /* \"Documents/GitHub/Store-system-with-feedback/main.sol\":4374:4400  shops[msg.sender].ballance */\n      0x03\n      add\n        /* \"Documents/GitHub/Store-system-with-feedback/main.sol\":4374:4500  shops[msg.sender].ballance = shops[msg.sender].ballance + structProducts[structStatusPurchases[idPurchase].titleProduct].price */\n      sstore\n        /* \"Documents/GitHub/Store-system-with-feedback/main.sol\":3972:4600  function acceptPurchase (uint idPurchase, bool confirmation) public {\r... */\n      pop\n      pop\n      jump\t// out\n        /* \"Documents/GitHub/Store-system-with-feedback/main.sol\":4051:4593  if (confirmation == true) {\r... */\n    tag_111:\n        /* \"Documents/GitHub/Store-system-with-feedback/main.sol\":4576:4581  false */\n      0x00\n        /* \"Documents/GitHub/Store-system-with-feedback/main.sol\":4533:4554  structStatusPurchases */\n      0x0a\n        /* \"Documents/GitHub/Store-system-with-feedback/main.sol\":4555:4565  idPurchase */\n      dup4\n        /* \"Documents/GitHub/Store-system-with-feedback/main.sol\":4533:4566  structStatusPurchases[idPurchase] */\n      dup2\n      sload\n      dup2\n      lt\n      tag_137\n      jumpi\n      tag_137\n      tag_114\n      jump\t// in\n    tag_137:\n      0x00\n      swap2\n      dup3\n      mstore\n      0x20\n      swap1\n      swap2\n      keccak256\n      0x03\n      swap1\n      swap2\n      mul\n      add\n        /* \"Documents/GitHub/Store-system-with-feedback/main.sol\":4533:4573  structStatusPurchases[idPurchase].status */\n      0x02\n      add\n        /* \"Documents/GitHub/Store-system-with-feedback/main.sol\":4533:4581  structStatusPurchases[idPurchase].status = false */\n      dup1\n      sload\n      not(0xff)\n      and\n      swap2\n      iszero\n      iszero\n      swap2\n      swap1\n      swap2\n      or\n      swap1\n      sstore\n      pop\n      pop\n        /* \"Documents/GitHub/Store-system-with-feedback/main.sol\":3972:4600  function acceptPurchase (uint idPurchase, bool confirmation) public {\r... */\n      jump\t// out\n        /* \"Documents/GitHub/Store-system-with-feedback/main.sol\":7424:7695  function productPurchases (string memory titleProduct) public {\r... */\n    tag_31:\n        /* \"Documents/GitHub/Store-system-with-feedback/main.sol\":7541:7555  structProducts */\n      0x08\n        /* \"Documents/GitHub/Store-system-with-feedback/main.sol\":7556:7568  titleProduct */\n      dup2\n        /* \"Documents/GitHub/Store-system-with-feedback/main.sol\":7541:7569  structProducts[titleProduct] */\n      mload(0x40)\n      tag_140\n      swap2\n      swap1\n      tag_141\n      jump\t// in\n    tag_140:\n      swap1\n      dup2\n      mstore\n      0x20\n      add\n      mload(0x40)\n      dup1\n      swap2\n      sub\n      swap1\n      keccak256\n        /* \"Documents/GitHub/Store-system-with-feedback/main.sol\":7541:7575  structProducts[titleProduct].price */\n      0x02\n      add\n      sload\n        /* \"Documents/GitHub/Store-system-with-feedback/main.sol\":7505:7516  structUsers */\n      0x04\n        /* \"Documents/GitHub/Store-system-with-feedback/main.sol\":7505:7528  structUsers[msg.sender] */\n      0x00\n        /* \"Documents/GitHub/Store-system-with-feedback/main.sol\":7517:7527  msg.sender */\n      caller\n      sub(shl(0xa0, 0x01), 0x01)\n        /* \"Documents/GitHub/Store-system-with-feedback/main.sol\":7505:7528  structUsers[msg.sender] */\n      and\n      sub(shl(0xa0, 0x01), 0x01)\n      and\n      dup2\n      mstore\n      0x20\n      add\n      swap1\n      dup2\n      mstore\n      0x20\n      add\n      0x00\n      keccak256\n        /* \"Documents/GitHub/Store-system-with-feedback/main.sol\":7505:7537  structUsers[msg.sender].ballance */\n      0x02\n      add\n      sload\n        /* \"Documents/GitHub/Store-system-with-feedback/main.sol\":7505:7575  structUsers[msg.sender].ballance >= structProducts[titleProduct].price */\n      lt\n      iszero\n        /* \"Documents/GitHub/Store-system-with-feedback/main.sol\":7497:7596  require(structUsers[msg.sender].ballance >= structProducts[titleProduct].price, \"error: not money\") */\n      tag_142\n      jumpi\n      mload(0x40)\n      shl(0xe5, 0x461bcd)\n      dup2\n      mstore\n        /* \"#utility.yul\":9715:9717   */\n      0x20\n        /* \"Documents/GitHub/Store-system-with-feedback/main.sol\":7497:7596  require(structUsers[msg.sender].ballance >= structProducts[titleProduct].price, \"error: not money\") */\n      0x04\n      dup3\n      add\n        /* \"#utility.yul\":9697:9718   */\n      mstore\n        /* \"#utility.yul\":9754:9756   */\n      0x10\n        /* \"#utility.yul\":9734:9752   */\n      0x24\n      dup3\n      add\n        /* \"#utility.yul\":9727:9757   */\n      mstore\n      shl(0x80, 0x6572726f723a206e6f74206d6f6e6579)\n        /* \"#utility.yul\":9773:9791   */\n      0x44\n      dup3\n      add\n        /* \"#utility.yul\":9766:9812   */\n      mstore\n        /* \"#utility.yul\":9829:9847   */\n      0x64\n      add\n        /* \"Documents/GitHub/Store-system-with-feedback/main.sol\":7497:7596  require(structUsers[msg.sender].ballance >= structProducts[titleProduct].price, \"error: not money\") */\n    tag_143:\n      mload(0x40)\n      dup1\n      swap2\n      sub\n      swap1\n      revert\n    tag_142:\n        /* \"Documents/GitHub/Store-system-with-feedback/main.sol\":7634:7686  structStatusPurchase(msg.sender, titleProduct, true) */\n      0x40\n      dup1\n      mload\n      0x60\n      dup2\n      add\n      dup3\n      mstore\n        /* \"Documents/GitHub/Store-system-with-feedback/main.sol\":7655:7665  msg.sender */\n      caller\n        /* \"Documents/GitHub/Store-system-with-feedback/main.sol\":7634:7686  structStatusPurchase(msg.sender, titleProduct, true) */\n      dup2\n      mstore\n      0x20\n      dup1\n      dup3\n      add\n      dup5\n      dup2\n      mstore\n        /* \"Documents/GitHub/Store-system-with-feedback/main.sol\":7681:7685  true */\n      0x01\n        /* \"Documents/GitHub/Store-system-with-feedback/main.sol\":7634:7686  structStatusPurchase(msg.sender, titleProduct, true) */\n      swap4\n      dup4\n      add\n      dup5\n      swap1\n      mstore\n        /* \"Documents/GitHub/Store-system-with-feedback/main.sol\":7607:7628  structStatusPurchases */\n      0x0a\n        /* \"Documents/GitHub/Store-system-with-feedback/main.sol\":7607:7687  structStatusPurchases.push(structStatusPurchase(msg.sender, titleProduct, true)) */\n      dup1\n      sload\n      swap5\n      dup6\n      add\n      dup2\n      sstore\n      0x00\n      mstore\n      dup3\n      mload\n      0xc65a7bb8d6351c1cf70c95a316cc6a92839c986682d98bc35f958f4883f9d2a8\n      0x03\n      swap1\n      swap6\n      mul\n      swap5\n      dup6\n      add\n      dup1\n      sload\n      not(sub(shl(0xa0, 0x01), 0x01))\n      and\n      sub(shl(0xa0, 0x01), 0x01)\n      swap1\n      swap3\n      and\n      swap2\n      swap1\n      swap2\n      or\n      dup2\n      sstore\n      swap1\n      mload\n      dup1\n      mload\n        /* \"Documents/GitHub/Store-system-with-feedback/main.sol\":7634:7686  structStatusPurchase(msg.sender, titleProduct, true) */\n      swap4\n      swap5\n        /* \"Documents/GitHub/Store-system-with-feedback/main.sol\":7607:7687  structStatusPurchases.push(structStatusPurchase(msg.sender, titleProduct, true)) */\n      swap2\n      swap4\n      tag_146\n      swap4\n      0xc65a7bb8d6351c1cf70c95a316cc6a92839c986682d98bc35f958f4883f9d2a9\n      swap1\n      swap4\n      add\n      swap3\n      swap2\n      swap1\n      swap2\n      add\n      swap1\n      tag_147\n      jump\t// in\n    tag_146:\n      pop\n      0x40\n      swap2\n      swap1\n      swap2\n      add\n      mload\n      0x02\n      swap1\n      swap2\n      add\n      dup1\n      sload\n      not(0xff)\n      and\n      swap2\n      iszero\n      iszero\n      swap2\n      swap1\n      swap2\n      or\n      swap1\n      sstore\n      pop\n        /* \"Documents/GitHub/Store-system-with-feedback/main.sol\":7424:7695  function productPurchases (string memory titleProduct) public {\r... */\n      jump\t// out\n        /* \"Documents/GitHub/Store-system-with-feedback/main.sol\":6918:7337  function leaveComment (string memory userName, string[] memory comment) public {\r... */\n    tag_40:\n        /* \"Documents/GitHub/Store-system-with-feedback/main.sol\":7012:7018  uint i */\n      0x00\n        /* \"Documents/GitHub/Store-system-with-feedback/main.sol\":7008:7330  for(uint i = 0; i < complaintBooks.length; i++) {\r... */\n    tag_149:\n        /* \"Documents/GitHub/Store-system-with-feedback/main.sol\":7028:7042  complaintBooks */\n      0x03\n        /* \"Documents/GitHub/Store-system-with-feedback/main.sol\":7028:7049  complaintBooks.length */\n      sload\n        /* \"Documents/GitHub/Store-system-with-feedback/main.sol\":7024:7049  i < complaintBooks.length */\n      dup2\n      lt\n        /* \"Documents/GitHub/Store-system-with-feedback/main.sol\":7008:7330  for(uint i = 0; i < complaintBooks.length; i++) {\r... */\n      iszero\n      tag_150\n      jumpi\n        /* \"Documents/GitHub/Store-system-with-feedback/main.sol\":7071:7097  string memory tempUserName */\n      0x00\n        /* \"Documents/GitHub/Store-system-with-feedback/main.sol\":7100:7114  complaintBooks */\n      0x03\n        /* \"Documents/GitHub/Store-system-with-feedback/main.sol\":7115:7116  i */\n      dup3\n        /* \"Documents/GitHub/Store-system-with-feedback/main.sol\":7100:7117  complaintBooks[i] */\n      dup2\n      sload\n      dup2\n      lt\n      tag_153\n      jumpi\n      tag_153\n      tag_114\n      jump\t// in\n    tag_153:\n      swap1\n      0x00\n      mstore\n      keccak256(0x00, 0x20)\n      swap1\n      0x05\n      mul\n      add\n        /* \"Documents/GitHub/Store-system-with-feedback/main.sol\":7100:7126  complaintBooks[i].userName */\n      0x01\n      add\n        /* \"Documents/GitHub/Store-system-with-feedback/main.sol\":7071:7126  string memory tempUserName = complaintBooks[i].userName */\n      dup1\n      sload\n      tag_155\n      swap1\n      tag_156\n      jump\t// in\n    tag_155:\n      dup1\n      0x1f\n      add\n      0x20\n      dup1\n      swap2\n      div\n      mul\n      0x20\n      add\n      mload(0x40)\n      swap1\n      dup2\n      add\n      0x40\n      mstore\n      dup1\n      swap3\n      swap2\n      swap1\n      dup2\n      dup2\n      mstore\n      0x20\n      add\n      dup3\n      dup1\n      sload\n      tag_157\n      swap1\n      tag_156\n      jump\t// in\n    tag_157:\n      dup1\n      iszero\n      tag_158\n      jumpi\n      dup1\n      0x1f\n      lt\n      tag_159\n      jumpi\n      0x0100\n      dup1\n      dup4\n      sload\n      div\n      mul\n      dup4\n      mstore\n      swap2\n      0x20\n      add\n      swap2\n      jump(tag_158)\n    tag_159:\n      dup3\n      add\n      swap2\n      swap1\n      0x00\n      mstore\n      keccak256(0x00, 0x20)\n      swap1\n    tag_160:\n      dup2\n      sload\n      dup2\n      mstore\n      swap1\n      0x01\n      add\n      swap1\n      0x20\n      add\n      dup1\n      dup4\n      gt\n      tag_160\n      jumpi\n      dup3\n      swap1\n      sub\n      0x1f\n      and\n      dup3\n      add\n      swap2\n    tag_158:\n      pop\n      pop\n      pop\n      pop\n      pop\n      swap1\n      pop\n        /* \"Documents/GitHub/Store-system-with-feedback/main.sol\":7216:7224  userName */\n      dup4\n        /* \"Documents/GitHub/Store-system-with-feedback/main.sol\":7199:7225  abi.encodePacked(userName) */\n      add(0x20, mload(0x40))\n      tag_161\n      swap2\n      swap1\n      tag_141\n      jump\t// in\n    tag_161:\n      mload(0x40)\n      0x20\n      dup2\n      dup4\n      sub\n      sub\n      dup2\n      mstore\n      swap1\n      0x40\n      mstore\n        /* \"Documents/GitHub/Store-system-with-feedback/main.sol\":7189:7226  keccak256(abi.encodePacked(userName)) */\n      dup1\n      mload\n      swap1\n      0x20\n      add\n      keccak256\n        /* \"Documents/GitHub/Store-system-with-feedback/main.sol\":7171:7183  tempUserName */\n      dup2\n        /* \"Documents/GitHub/Store-system-with-feedback/main.sol\":7154:7184  abi.encodePacked(tempUserName) */\n      add(0x20, mload(0x40))\n      tag_162\n      swap2\n      swap1\n      tag_141\n      jump\t// in\n    tag_162:\n      mload(0x40)\n      0x20\n      dup2\n      dup4\n      sub\n      sub\n      dup2\n      mstore\n      swap1\n      0x40\n      mstore\n        /* \"Documents/GitHub/Store-system-with-feedback/main.sol\":7144:7185  keccak256(abi.encodePacked(tempUserName)) */\n      dup1\n      mload\n      swap1\n      0x20\n      add\n      keccak256\n        /* \"Documents/GitHub/Store-system-with-feedback/main.sol\":7144:7226  keccak256(abi.encodePacked(tempUserName)) == keccak256(abi.encodePacked(userName)) */\n      eq\n        /* \"Documents/GitHub/Store-system-with-feedback/main.sol\":7141:7319  if(keccak256(abi.encodePacked(tempUserName)) == keccak256(abi.encodePacked(userName))) {                    \r... */\n      iszero\n      tag_163\n      jumpi\n        /* \"Documents/GitHub/Store-system-with-feedback/main.sol\":7296:7303  comment */\n      dup3\n        /* \"Documents/GitHub/Store-system-with-feedback/main.sol\":7267:7281  complaintBooks */\n      0x03\n        /* \"Documents/GitHub/Store-system-with-feedback/main.sol\":7282:7283  i */\n      dup4\n        /* \"Documents/GitHub/Store-system-with-feedback/main.sol\":7267:7284  complaintBooks[i] */\n      dup2\n      sload\n      dup2\n      lt\n      tag_165\n      jumpi\n      tag_165\n      tag_114\n      jump\t// in\n    tag_165:\n      swap1\n      0x00\n      mstore\n      keccak256(0x00, 0x20)\n      swap1\n      0x05\n      mul\n      add\n        /* \"Documents/GitHub/Store-system-with-feedback/main.sol\":7267:7293  complaintBooks[i].comments */\n      0x04\n      add\n        /* \"Documents/GitHub/Store-system-with-feedback/main.sol\":7267:7303  complaintBooks[i].comments = comment */\n      swap1\n      dup1\n      mload\n      swap1\n      0x20\n      add\n      swap1\n      tag_167\n      swap3\n      swap2\n      swap1\n      tag_168\n      jump\t// in\n    tag_167:\n      pop\n        /* \"Documents/GitHub/Store-system-with-feedback/main.sol\":7141:7319  if(keccak256(abi.encodePacked(tempUserName)) == keccak256(abi.encodePacked(userName))) {                    \r... */\n    tag_163:\n      pop\n        /* \"Documents/GitHub/Store-system-with-feedback/main.sol\":7051:7054  i++ */\n      dup1\n      tag_169\n      dup2\n      tag_170\n      jump\t// in\n    tag_169:\n      swap2\n      pop\n      pop\n        /* \"Documents/GitHub/Store-system-with-feedback/main.sol\":7008:7330  for(uint i = 0; i < complaintBooks.length; i++) {\r... */\n      jump(tag_149)\n    tag_150:\n      pop\n        /* \"Documents/GitHub/Store-system-with-feedback/main.sol\":6918:7337  function leaveComment (string memory userName, string[] memory comment) public {\r... */\n      pop\n      pop\n      jump\t// out\n        /* \"Documents/GitHub/Store-system-with-feedback/main.sol\":4645:5106  function acceptReturn(uint idReturn, bool confirmation) public {\r... */\n    tag_43:\n        /* \"Documents/GitHub/Store-system-with-feedback/main.sol\":4738:4742  true */\n      0x01\n        /* \"Documents/GitHub/Store-system-with-feedback/main.sol\":4722:4742  confirmation == true */\n      dup2\n      iszero\n      iszero\n      eq\n        /* \"Documents/GitHub/Store-system-with-feedback/main.sol\":4719:5099  if(confirmation == true) {\r... */\n      iszero\n      tag_172\n      jumpi\n        /* \"Documents/GitHub/Store-system-with-feedback/main.sol\":4798:4803  false */\n      0x00\n        /* \"Documents/GitHub/Store-system-with-feedback/main.sol\":4759:4778  structStatusReturns */\n      0x0b\n        /* \"Documents/GitHub/Store-system-with-feedback/main.sol\":4779:4787  idReturn */\n      dup4\n        /* \"Documents/GitHub/Store-system-with-feedback/main.sol\":4759:4788  structStatusReturns[idReturn] */\n      dup2\n      sload\n      dup2\n      lt\n      tag_174\n      jumpi\n      tag_174\n      tag_114\n      jump\t// in\n    tag_174:\n      swap1\n      0x00\n      mstore\n      keccak256(0x00, 0x20)\n      swap1\n      0x03\n      mul\n      add\n        /* \"Documents/GitHub/Store-system-with-feedback/main.sol\":4759:4795  structStatusReturns[idReturn].status */\n      0x02\n      add\n      0x00\n        /* \"Documents/GitHub/Store-system-with-feedback/main.sol\":4759:4803  structStatusReturns[idReturn].status = false */\n      0x0100\n      exp\n      dup2\n      sload\n      dup2\n      0xff\n      mul\n      not\n      and\n      swap1\n      dup4\n      iszero\n      iszero\n      mul\n      or\n      swap1\n      sstore\n      pop\n        /* \"Documents/GitHub/Store-system-with-feedback/main.sol\":4946:4960  structProducts */\n      0x08\n        /* \"Documents/GitHub/Store-system-with-feedback/main.sol\":4961:4980  structStatusReturns */\n      0x0b\n        /* \"Documents/GitHub/Store-system-with-feedback/main.sol\":4981:4989  idReturn */\n      dup4\n        /* \"Documents/GitHub/Store-system-with-feedback/main.sol\":4961:4990  structStatusReturns[idReturn] */\n      dup2\n      sload\n      dup2\n      lt\n      tag_177\n      jumpi\n      tag_177\n      tag_114\n      jump\t// in\n    tag_177:\n      swap1\n      0x00\n      mstore\n      keccak256(0x00, 0x20)\n      swap1\n      0x03\n      mul\n      add\n        /* \"Documents/GitHub/Store-system-with-feedback/main.sol\":4961:5003  structStatusReturns[idReturn].titleProduct */\n      0x01\n      add\n        /* \"Documents/GitHub/Store-system-with-feedback/main.sol\":4946:5004  structProducts[structStatusReturns[idReturn].titleProduct] */\n      mload(0x40)\n      tag_179\n      swap2\n      swap1\n      tag_120\n      jump\t// in\n    tag_179:\n      swap1\n      dup2\n      mstore\n      0x20\n      add\n      mload(0x40)\n      dup1\n      swap2\n      sub\n      swap1\n      keccak256\n        /* \"Documents/GitHub/Store-system-with-feedback/main.sol\":4946:5010  structProducts[structStatusReturns[idReturn].titleProduct].price */\n      0x02\n      add\n      sload\n        /* \"Documents/GitHub/Store-system-with-feedback/main.sol\":4882:4893  structUsers */\n      0x04\n        /* \"Documents/GitHub/Store-system-with-feedback/main.sol\":4882:4934  structUsers[structStatusReturns[idReturn].userLogin] */\n      0x00\n        /* \"Documents/GitHub/Store-system-with-feedback/main.sol\":4894:4913  structStatusReturns */\n      0x0b\n        /* \"Documents/GitHub/Store-system-with-feedback/main.sol\":4914:4922  idReturn */\n      dup6\n        /* \"Documents/GitHub/Store-system-with-feedback/main.sol\":4894:4923  structStatusReturns[idReturn] */\n      dup2\n      sload\n      dup2\n      lt\n      tag_181\n      jumpi\n      tag_181\n      tag_114\n      jump\t// in\n    tag_181:\n      0x00\n      swap2\n      dup3\n      mstore\n      0x20\n      dup1\n      dup4\n      keccak256\n      0x03\n      swap1\n      swap3\n      mul\n      swap1\n      swap2\n      add\n        /* \"Documents/GitHub/Store-system-with-feedback/main.sol\":4894:4933  structStatusReturns[idReturn].userLogin */\n      sload\n      sub(shl(0xa0, 0x01), 0x01)\n      and\n        /* \"Documents/GitHub/Store-system-with-feedback/main.sol\":4882:4934  structUsers[structStatusReturns[idReturn].userLogin] */\n      dup4\n      mstore\n      dup3\n      add\n      swap3\n      swap1\n      swap3\n      mstore\n      0x40\n      add\n      swap1\n      keccak256\n        /* \"Documents/GitHub/Store-system-with-feedback/main.sol\":4882:4943  structUsers[structStatusReturns[idReturn].userLogin].ballance */\n      0x02\n      add\n      sload\n        /* \"Documents/GitHub/Store-system-with-feedback/main.sol\":4882:5010  structUsers[structStatusReturns[idReturn].userLogin].ballance + structProducts[structStatusReturns[idReturn].titleProduct].price */\n      tag_183\n      swap2\n      swap1\n      tag_134\n      jump\t// in\n    tag_183:\n        /* \"Documents/GitHub/Store-system-with-feedback/main.sol\":4818:4829  structUsers */\n      0x04\n        /* \"Documents/GitHub/Store-system-with-feedback/main.sol\":4818:4870  structUsers[structStatusReturns[idReturn].userLogin] */\n      0x00\n        /* \"Documents/GitHub/Store-system-with-feedback/main.sol\":4830:4849  structStatusReturns */\n      0x0b\n        /* \"Documents/GitHub/Store-system-with-feedback/main.sol\":4850:4858  idReturn */\n      dup6\n        /* \"Documents/GitHub/Store-system-with-feedback/main.sol\":4830:4859  structStatusReturns[idReturn] */\n      dup2\n      sload\n      dup2\n      lt\n      tag_185\n      jumpi\n      tag_185\n      tag_114\n      jump\t// in\n    tag_185:\n      0x00\n      swap2\n      dup3\n      mstore\n      0x20\n      dup1\n      dup4\n      keccak256\n      0x03\n      swap1\n      swap3\n      mul\n      swap1\n      swap2\n      add\n        /* \"Documents/GitHub/Store-system-with-feedback/main.sol\":4830:4869  structStatusReturns[idReturn].userLogin */\n      sload\n      sub(shl(0xa0, 0x01), 0x01)\n      and\n        /* \"Documents/GitHub/Store-system-with-feedback/main.sol\":4818:4870  structUsers[structStatusReturns[idReturn].userLogin] */\n      dup4\n      mstore\n      dup3\n      add\n      swap3\n      swap1\n      swap3\n      mstore\n      0x40\n      add\n      swap1\n      keccak256\n        /* \"Documents/GitHub/Store-system-with-feedback/main.sol\":4818:4879  structUsers[structStatusReturns[idReturn].userLogin].ballance */\n      0x02\n      add\n        /* \"Documents/GitHub/Store-system-with-feedback/main.sol\":4818:5010  structUsers[structStatusReturns[idReturn].userLogin].ballance = structUsers[structStatusReturns[idReturn].userLogin].ballance + structProducts[structStatusReturns[idReturn].titleProduct].price */\n      sstore\n        /* \"Documents/GitHub/Store-system-with-feedback/main.sol\":3972:4600  function acceptPurchase (uint idPurchase, bool confirmation) public {\r... */\n      pop\n      pop\n      jump\t// out\n        /* \"Documents/GitHub/Store-system-with-feedback/main.sol\":4719:5099  if(confirmation == true) {\r... */\n    tag_172:\n        /* \"Documents/GitHub/Store-system-with-feedback/main.sol\":5082:5087  false */\n      0x00\n        /* \"Documents/GitHub/Store-system-with-feedback/main.sol\":5043:5062  structStatusReturns */\n      0x0b\n        /* \"Documents/GitHub/Store-system-with-feedback/main.sol\":5063:5071  idReturn */\n      dup4\n        /* \"Documents/GitHub/Store-system-with-feedback/main.sol\":5043:5072  structStatusReturns[idReturn] */\n      dup2\n      sload\n      dup2\n      lt\n      tag_137\n      jumpi\n      tag_137\n      tag_114\n      jump\t// in\n        /* \"Documents/GitHub/Store-system-with-feedback/main.sol\":7934:8118  function productMarriageRegistration (string memory titleProduct) public {\r... */\n    tag_46:\n        /* \"Documents/GitHub/Store-system-with-feedback/main.sol\":8051:8109  structMarriageRegistration(msg.sender, titleProduct, true) */\n      0x40\n      dup1\n      mload\n      0x60\n      dup2\n      add\n      dup3\n      mstore\n        /* \"Documents/GitHub/Store-system-with-feedback/main.sol\":8078:8088  msg.sender */\n      caller\n        /* \"Documents/GitHub/Store-system-with-feedback/main.sol\":8051:8109  structMarriageRegistration(msg.sender, titleProduct, true) */\n      dup2\n      mstore\n      0x20\n      dup1\n      dup3\n      add\n      dup5\n      dup2\n      mstore\n        /* \"Documents/GitHub/Store-system-with-feedback/main.sol\":8104:8108  true */\n      0x01\n        /* \"Documents/GitHub/Store-system-with-feedback/main.sol\":8051:8109  structMarriageRegistration(msg.sender, titleProduct, true) */\n      swap4\n      dup4\n      add\n      dup5\n      swap1\n      mstore\n        /* \"Documents/GitHub/Store-system-with-feedback/main.sol\":8018:8045  structMarriageRegistrations */\n      0x0c\n        /* \"Documents/GitHub/Store-system-with-feedback/main.sol\":8018:8110  structMarriageRegistrations.push(structMarriageRegistration(msg.sender, titleProduct, true)) */\n      dup1\n      sload\n      swap5\n      dup6\n      add\n      dup2\n      sstore\n      0x00\n      mstore\n      dup3\n      mload\n      0xdf6966c971051c3d54ec59162606531493a51404a002842f56009d7e5cf4a8c7\n      0x03\n      swap1\n      swap6\n      mul\n      swap5\n      dup6\n      add\n      dup1\n      sload\n      not(sub(shl(0xa0, 0x01), 0x01))\n      and\n      sub(shl(0xa0, 0x01), 0x01)\n      swap1\n      swap3\n      and\n      swap2\n      swap1\n      swap2\n      or\n      dup2\n      sstore\n      swap1\n      mload\n      dup1\n      mload\n        /* \"Documents/GitHub/Store-system-with-feedback/main.sol\":8051:8109  structMarriageRegistration(msg.sender, titleProduct, true) */\n      swap4\n      swap5\n        /* \"Documents/GitHub/Store-system-with-feedback/main.sol\":8018:8110  structMarriageRegistrations.push(structMarriageRegistration(msg.sender, titleProduct, true)) */\n      swap2\n      swap4\n      tag_146\n      swap4\n      0xdf6966c971051c3d54ec59162606531493a51404a002842f56009d7e5cf4a8c8\n      swap1\n      swap4\n      add\n      swap3\n      swap2\n      swap1\n      swap2\n      add\n      swap1\n      tag_147\n      jump\t// in\n        /* \"Documents/GitHub/Store-system-with-feedback/main.sol\":5893:5993  function getProductList() public view returns(string[] memory) {\r... */\n    tag_48:\n        /* \"Documents/GitHub/Store-system-with-feedback/main.sol\":5939:5954  string[] memory */\n      0x60\n        /* \"Documents/GitHub/Store-system-with-feedback/main.sol\":5974:5985  productList */\n      0x09\n        /* \"Documents/GitHub/Store-system-with-feedback/main.sol\":5967:5985  return productList */\n      dup1\n      sload\n      dup1\n      0x20\n      mul\n      0x20\n      add\n      mload(0x40)\n      swap1\n      dup2\n      add\n      0x40\n      mstore\n      dup1\n      swap3\n      swap2\n      swap1\n      dup2\n      dup2\n      mstore\n      0x20\n      add\n      0x00\n      swap1\n    tag_195:\n      dup3\n      dup3\n      lt\n      iszero\n      tag_196\n      jumpi\n      dup4\n      dup3\n      swap1\n      0x00\n      mstore\n      keccak256(0x00, 0x20)\n      add\n      dup1\n      sload\n      tag_198\n      swap1\n      tag_156\n      jump\t// in\n    tag_198:\n      dup1\n      0x1f\n      add\n      0x20\n      dup1\n      swap2\n      div\n      mul\n      0x20\n      add\n      mload(0x40)\n      swap1\n      dup2\n      add\n      0x40\n      mstore\n      dup1\n      swap3\n      swap2\n      swap1\n      dup2\n      dup2\n      mstore\n      0x20\n      add\n      dup3\n      dup1\n      sload\n      tag_199\n      swap1\n      tag_156\n      jump\t// in\n    tag_199:\n      dup1\n      iszero\n      tag_200\n      jumpi\n      dup1\n      0x1f\n      lt\n      tag_201\n      jumpi\n      0x0100\n      dup1\n      dup4\n      sload\n      div\n      mul\n      dup4\n      mstore\n      swap2\n      0x20\n      add\n      swap2\n      jump(tag_200)\n    tag_201:\n      dup3\n      add\n      swap2\n      swap1\n      0x00\n      mstore\n      keccak256(0x00, 0x20)\n      swap1\n    tag_202:\n      dup2\n      sload\n      dup2\n      mstore\n      swap1\n      0x01\n      add\n      swap1\n      0x20\n      add\n      dup1\n      dup4\n      gt\n      tag_202\n      jumpi\n      dup3\n      swap1\n      sub\n      0x1f\n      and\n      dup3\n      add\n      swap2\n    tag_200:\n      pop\n      pop\n      pop\n      pop\n      pop\n      dup2\n      mstore\n      0x20\n      add\n      swap1\n      0x01\n      add\n      swap1\n      jump(tag_195)\n    tag_196:\n      pop\n      pop\n      pop\n      pop\n      swap1\n      pop\n        /* \"Documents/GitHub/Store-system-with-feedback/main.sol\":5893:5993  function getProductList() public view returns(string[] memory) {\r... */\n      swap1\n      jump\t// out\n        /* \"Documents/GitHub/Store-system-with-feedback/main.sol\":8162:8283  function get_address(string memory login) public view returns(address) {\r... */\n    tag_53:\n        /* \"Documents/GitHub/Store-system-with-feedback/main.sol\":8224:8231  address */\n      0x00\n        /* \"Documents/GitHub/Store-system-with-feedback/main.sol\":8251:8267  structUserLogins */\n      0x05\n        /* \"Documents/GitHub/Store-system-with-feedback/main.sol\":8268:8273  login */\n      dup3\n        /* \"Documents/GitHub/Store-system-with-feedback/main.sol\":8251:8274  structUserLogins[login] */\n      mload(0x40)\n      tag_204\n      swap2\n      swap1\n      tag_141\n      jump\t// in\n    tag_204:\n      swap1\n      dup2\n      mstore\n      mload(0x40)\n      swap1\n      dup2\n      swap1\n      sub\n      0x20\n      add\n      swap1\n      keccak256\n      sload\n      sub(shl(0xa0, 0x01), 0x01)\n      and\n      swap3\n        /* \"Documents/GitHub/Store-system-with-feedback/main.sol\":8162:8283  function get_address(string memory login) public view returns(address) {\r... */\n      swap2\n      pop\n      pop\n      jump\t// out\n        /* \"Documents/GitHub/Store-system-with-feedback/main.sol\":2893:3292  function addProductShop (string memory title, uint256 price, string memory description) public {\r... */\n    tag_58:\n        /* \"Documents/GitHub/Store-system-with-feedback/main.sol\":3108:3180  structProduct(msg.sender, description , price, addProductShop_idProduct) */\n      mload(0x40)\n      dup1\n      0x80\n      add\n      0x40\n      mstore\n      dup1\n        /* \"Documents/GitHub/Store-system-with-feedback/main.sol\":3122:3132  msg.sender */\n      caller\n      sub(shl(0xa0, 0x01), 0x01)\n        /* \"Documents/GitHub/Store-system-with-feedback/main.sol\":3108:3180  structProduct(msg.sender, description , price, addProductShop_idProduct) */\n      and\n      dup2\n      mstore\n      0x20\n      add\n        /* \"Documents/GitHub/Store-system-with-feedback/main.sol\":3134:3145  description */\n      dup3\n        /* \"Documents/GitHub/Store-system-with-feedback/main.sol\":3108:3180  structProduct(msg.sender, description , price, addProductShop_idProduct) */\n      dup2\n      mstore\n      0x20\n      add\n        /* \"Documents/GitHub/Store-system-with-feedback/main.sol\":3148:3153  price */\n      dup4\n        /* \"Documents/GitHub/Store-system-with-feedback/main.sol\":3108:3180  structProduct(msg.sender, description , price, addProductShop_idProduct) */\n      dup2\n      mstore\n      0x20\n      add\n        /* \"Documents/GitHub/Store-system-with-feedback/main.sol\":3155:3179  addProductShop_idProduct */\n      sload(0x0d)\n        /* \"Documents/GitHub/Store-system-with-feedback/main.sol\":3108:3180  structProduct(msg.sender, description , price, addProductShop_idProduct) */\n      dup2\n      mstore\n      pop\n        /* \"Documents/GitHub/Store-system-with-feedback/main.sol\":3084:3098  structProducts */\n      0x08\n        /* \"Documents/GitHub/Store-system-with-feedback/main.sol\":3099:3104  title */\n      dup5\n        /* \"Documents/GitHub/Store-system-with-feedback/main.sol\":3084:3105  structProducts[title] */\n      mload(0x40)\n      tag_206\n      swap2\n      swap1\n      tag_141\n      jump\t// in\n    tag_206:\n      swap1\n      dup2\n      mstore\n      mload(0x40)\n      0x20\n      swap2\n      dup2\n      swap1\n      sub\n      dup3\n      add\n      swap1\n      keccak256\n        /* \"Documents/GitHub/Store-system-with-feedback/main.sol\":3084:3180  structProducts[title] = structProduct(msg.sender, description , price, addProductShop_idProduct) */\n      dup3\n      mload\n      dup2\n      sload\n      not(sub(shl(0xa0, 0x01), 0x01))\n      and\n      sub(shl(0xa0, 0x01), 0x01)\n      swap1\n      swap2\n      and\n      or\n      dup2\n      sstore\n      dup3\n      dup3\n      add\n      mload\n      dup1\n      mload\n        /* \"Documents/GitHub/Store-system-with-feedback/main.sol\":3084:3105  structProducts[title] */\n      swap2\n      swap3\n        /* \"Documents/GitHub/Store-system-with-feedback/main.sol\":3084:3180  structProducts[title] = structProduct(msg.sender, description , price, addProductShop_idProduct) */\n      tag_207\n      swap3\n      0x01\n      dup6\n      add\n      swap3\n      swap1\n      swap2\n      add\n      swap1\n      tag_147\n      jump\t// in\n    tag_207:\n      pop\n      0x40\n      dup3\n      add\n      mload\n      0x02\n      dup3\n      add\n      sstore\n      0x60\n      swap1\n      swap2\n      add\n      mload\n      0x03\n      swap1\n      swap2\n      add\n      sstore\n        /* \"Documents/GitHub/Store-system-with-feedback/main.sol\":3195:3206  productList */\n      0x09\n        /* \"Documents/GitHub/Store-system-with-feedback/main.sol\":3195:3218  productList.push(title) */\n      dup1\n      sload\n      0x01\n      dup2\n      add\n      dup3\n      sstore\n      0x00\n      swap2\n      swap1\n      swap2\n      mstore\n      dup4\n      mload\n      tag_209\n      swap2\n      0x6e1540171b6c0c960b71a7020d9f60077f6af931a8bbf590da0223dacf75c7af\n      add\n      swap1\n      0x20\n      dup7\n      add\n      swap1\n      tag_147\n      jump\t// in\n    tag_209:\n      pop\n        /* \"Documents/GitHub/Store-system-with-feedback/main.sol\":3233:3257  addProductShop_idProduct */\n      0x0d\n        /* \"Documents/GitHub/Store-system-with-feedback/main.sol\":3233:3259  addProductShop_idProduct++ */\n      dup1\n      sload\n      swap1\n        /* \"Documents/GitHub/Store-system-with-feedback/main.sol\":3233:3257  addProductShop_idProduct */\n      0x00\n        /* \"Documents/GitHub/Store-system-with-feedback/main.sol\":3233:3259  addProductShop_idProduct++ */\n      tag_210\n      dup4\n      tag_170\n      jump\t// in\n    tag_210:\n      swap2\n      swap1\n      pop\n      sstore\n      pop\n        /* \"Documents/GitHub/Store-system-with-feedback/main.sol\":2893:3292  function addProductShop (string memory title, uint256 price, string memory description) public {\r... */\n      pop\n      pop\n      pop\n      jump\t// out\n        /* \"Documents/GitHub/Store-system-with-feedback/main.sol\":2708:2771  structMarriageRegistration[] public structMarriageRegistrations */\n    tag_62:\n      0x0c\n      dup2\n      dup2\n      sload\n      dup2\n      lt\n      tag_211\n      jumpi\n      0x00\n      dup1\n      revert\n    tag_211:\n      0x00\n      swap2\n      dup3\n      mstore\n      0x20\n      swap1\n      swap2\n      keccak256\n      0x03\n      swap1\n      swap2\n      mul\n      add\n      dup1\n      sload\n      0x01\n      dup3\n      add\n      dup1\n      sload\n      sub(shl(0xa0, 0x01), 0x01)\n      swap1\n      swap3\n      and\n      swap4\n      pop\n      swap1\n      tag_213\n      swap1\n      tag_156\n      jump\t// in\n    tag_213:\n      dup1\n      0x1f\n      add\n      0x20\n      dup1\n      swap2\n      div\n      mul\n      0x20\n      add\n      mload(0x40)\n      swap1\n      dup2\n      add\n      0x40\n      mstore\n      dup1\n      swap3\n      swap2\n      swap1\n      dup2\n      dup2\n      mstore\n      0x20\n      add\n      dup3\n      dup1\n      sload\n      tag_214\n      swap1\n      tag_156\n      jump\t// in\n    tag_214:\n      dup1\n      iszero\n      tag_215\n      jumpi\n      dup1\n      0x1f\n      lt\n      tag_216\n      jumpi\n      0x0100\n      dup1\n      dup4\n      sload\n      div\n      mul\n      dup4\n      mstore\n      swap2\n      0x20\n      add\n      swap2\n      jump(tag_215)\n    tag_216:\n      dup3\n      add\n      swap2\n      swap1\n      0x00\n      mstore\n      keccak256(0x00, 0x20)\n      swap1\n    tag_217:\n      dup2\n      sload\n      dup2\n      mstore\n      swap1\n      0x01\n      add\n      swap1\n      0x20\n      add\n      dup1\n      dup4\n      gt\n      tag_217\n      jumpi\n      dup3\n      swap1\n      sub\n      0x1f\n      and\n      dup3\n      add\n      swap2\n    tag_215:\n      pop\n      pop\n      pop\n      0x02\n      swap1\n      swap4\n      add\n      sload\n      swap2\n      swap3\n      pop\n      pop\n      0xff\n      and\n      dup4\n      jump\t// out\n        /* \"Documents/GitHub/Store-system-with-feedback/main.sol\":1705:1754  mapping(address => structUser) public structUsers */\n    tag_68:\n      mstore(0x20, 0x04)\n      0x00\n      swap1\n      dup2\n      mstore\n      0x40\n      swap1\n      keccak256\n      dup1\n      sload\n      dup2\n      swap1\n      tag_218\n      swap1\n      tag_156\n      jump\t// in\n    tag_218:\n      dup1\n      0x1f\n      add\n      0x20\n      dup1\n      swap2\n      div\n      mul\n      0x20\n      add\n      mload(0x40)\n      swap1\n      dup2\n      add\n      0x40\n      mstore\n      dup1\n      swap3\n      swap2\n      swap1\n      dup2\n      dup2\n      mstore\n      0x20\n      add\n      dup3\n      dup1\n      sload\n      tag_219\n      swap1\n      tag_156\n      jump\t// in\n    tag_219:\n      dup1\n      iszero\n      tag_220\n      jumpi\n      dup1\n      0x1f\n      lt\n      tag_221\n      jumpi\n      0x0100\n      dup1\n      dup4\n      sload\n      div\n      mul\n      dup4\n      mstore\n      swap2\n      0x20\n      add\n      swap2\n      jump(tag_220)\n    tag_221:\n      dup3\n      add\n      swap2\n      swap1\n      0x00\n      mstore\n      keccak256(0x00, 0x20)\n      swap1\n    tag_222:\n      dup2\n      sload\n      dup2\n      mstore\n      swap1\n      0x01\n      add\n      swap1\n      0x20\n      add\n      dup1\n      dup4\n      gt\n      tag_222\n      jumpi\n      dup3\n      swap1\n      sub\n      0x1f\n      and\n      dup3\n      add\n      swap2\n    tag_220:\n      pop\n      pop\n      pop\n      pop\n      0x01\n      dup4\n      add\n      sload\n      0x02\n      dup5\n      add\n      sload\n      0x03\n      swap1\n      swap5\n      add\n      sload\n      swap3\n      swap4\n      swap1\n      swap3\n      swap1\n      swap2\n      pop\n      0xff\n      and\n      dup5\n      jump\t// out\n        /* \"Documents/GitHub/Store-system-with-feedback/main.sol\":6025:6878  function getStoryRating(string memory shopName) public view returns(uint) {\r... */\n    tag_73:\n        /* \"Documents/GitHub/Store-system-with-feedback/main.sol\":6093:6097  uint */\n      0x00\n      dup1\n      dup1\n      dup1\n        /* \"Documents/GitHub/Store-system-with-feedback/main.sol\":6183:6770  for(uint i = 0; i < shopList.length; i++) {\r... */\n    tag_224:\n        /* \"Documents/GitHub/Store-system-with-feedback/main.sol\":6203:6211  shopList */\n      0x02\n        /* \"Documents/GitHub/Store-system-with-feedback/main.sol\":6203:6218  shopList.length */\n      sload\n        /* \"Documents/GitHub/Store-system-with-feedback/main.sol\":6199:6218  i < shopList.length */\n      dup2\n      lt\n        /* \"Documents/GitHub/Store-system-with-feedback/main.sol\":6183:6770  for(uint i = 0; i < shopList.length; i++) {\r... */\n      iszero\n      tag_225\n      jumpi\n        /* \"Documents/GitHub/Store-system-with-feedback/main.sol\":6240:6266  string memory tempShopName */\n      0x00\n        /* \"Documents/GitHub/Store-system-with-feedback/main.sol\":6269:6277  shopList */\n      0x02\n        /* \"Documents/GitHub/Store-system-with-feedback/main.sol\":6278:6279  i */\n      dup3\n        /* \"Documents/GitHub/Store-system-with-feedback/main.sol\":6269:6280  shopList[i] */\n      dup2\n      sload\n      dup2\n      lt\n      tag_228\n      jumpi\n      tag_228\n      tag_114\n      jump\t// in\n    tag_228:\n      swap1\n      0x00\n      mstore\n      keccak256(0x00, 0x20)\n      add\n        /* \"Documents/GitHub/Store-system-with-feedback/main.sol\":6240:6280  string memory tempShopName = shopList[i] */\n      dup1\n      sload\n      tag_230\n      swap1\n      tag_156\n      jump\t// in\n    tag_230:\n      dup1\n      0x1f\n      add\n      0x20\n      dup1\n      swap2\n      div\n      mul\n      0x20\n      add\n      mload(0x40)\n      swap1\n      dup2\n      add\n      0x40\n      mstore\n      dup1\n      swap3\n      swap2\n      swap1\n      dup2\n      dup2\n      mstore\n      0x20\n      add\n      dup3\n      dup1\n      sload\n      tag_231\n      swap1\n      tag_156\n      jump\t// in\n    tag_231:\n      dup1\n      iszero\n      tag_232\n      jumpi\n      dup1\n      0x1f\n      lt\n      tag_233\n      jumpi\n      0x0100\n      dup1\n      dup4\n      sload\n      div\n      mul\n      dup4\n      mstore\n      swap2\n      0x20\n      add\n      swap2\n      jump(tag_232)\n    tag_233:\n      dup3\n      add\n      swap2\n      swap1\n      0x00\n      mstore\n      keccak256(0x00, 0x20)\n      swap1\n    tag_234:\n      dup2\n      sload\n      dup2\n      mstore\n      swap1\n      0x01\n      add\n      swap1\n      0x20\n      add\n      dup1\n      dup4\n      gt\n      tag_234\n      jumpi\n      dup3\n      swap1\n      sub\n      0x1f\n      and\n      dup3\n      add\n      swap2\n    tag_232:\n      pop\n      pop\n      pop\n      pop\n      pop\n      swap1\n      pop\n        /* \"Documents/GitHub/Store-system-with-feedback/main.sol\":6370:6378  shopName */\n      dup6\n        /* \"Documents/GitHub/Store-system-with-feedback/main.sol\":6353:6379  abi.encodePacked(shopName) */\n      add(0x20, mload(0x40))\n      tag_235\n      swap2\n      swap1\n      tag_141\n      jump\t// in\n    tag_235:\n      mload(0x40)\n      0x20\n      dup2\n      dup4\n      sub\n      sub\n      dup2\n      mstore\n      swap1\n      0x40\n      mstore\n        /* \"Documents/GitHub/Store-system-with-feedback/main.sol\":6343:6380  keccak256(abi.encodePacked(shopName)) */\n      dup1\n      mload\n      swap1\n      0x20\n      add\n      keccak256\n        /* \"Documents/GitHub/Store-system-with-feedback/main.sol\":6325:6337  tempShopName */\n      dup2\n        /* \"Documents/GitHub/Store-system-with-feedback/main.sol\":6308:6338  abi.encodePacked(tempShopName) */\n      add(0x20, mload(0x40))\n      tag_236\n      swap2\n      swap1\n      tag_141\n      jump\t// in\n    tag_236:\n      mload(0x40)\n      0x20\n      dup2\n      dup4\n      sub\n      sub\n      dup2\n      mstore\n      swap1\n      0x40\n      mstore\n        /* \"Documents/GitHub/Store-system-with-feedback/main.sol\":6298:6339  keccak256(abi.encodePacked(tempShopName)) */\n      dup1\n      mload\n      swap1\n      0x20\n      add\n      keccak256\n        /* \"Documents/GitHub/Store-system-with-feedback/main.sol\":6298:6380  keccak256(abi.encodePacked(tempShopName)) == keccak256(abi.encodePacked(shopName)) */\n      eq\n        /* \"Documents/GitHub/Store-system-with-feedback/main.sol\":6295:6759  if(keccak256(abi.encodePacked(tempShopName)) == keccak256(abi.encodePacked(shopName))) {                    \r... */\n      iszero\n      tag_239\n      jumpi\n        /* \"Documents/GitHub/Store-system-with-feedback/main.sol\":6430:6431  0 */\n      0x00\n        /* \"Documents/GitHub/Store-system-with-feedback/main.sol\":6426:6431  i = 0 */\n      swap2\n      pop\n        /* \"Documents/GitHub/Store-system-with-feedback/main.sol\":6421:6744  for (i = 0; i <= complaintBooks.length; i++) {\r... */\n    tag_238:\n        /* \"Documents/GitHub/Store-system-with-feedback/main.sol\":6438:6452  complaintBooks */\n      0x03\n        /* \"Documents/GitHub/Store-system-with-feedback/main.sol\":6438:6459  complaintBooks.length */\n      sload\n        /* \"Documents/GitHub/Store-system-with-feedback/main.sol\":6433:6459  i <= complaintBooks.length */\n      dup3\n      gt\n        /* \"Documents/GitHub/Store-system-with-feedback/main.sol\":6421:6744  for (i = 0; i <= complaintBooks.length; i++) {\r... */\n      tag_239\n      jumpi\n        /* \"Documents/GitHub/Store-system-with-feedback/main.sol\":6560:6574  complaintBooks */\n      0x03\n        /* \"Documents/GitHub/Store-system-with-feedback/main.sol\":6575:6576  i */\n      dup3\n        /* \"Documents/GitHub/Store-system-with-feedback/main.sol\":6560:6577  complaintBooks[i] */\n      dup2\n      sload\n      dup2\n      lt\n      tag_242\n      jumpi\n      tag_242\n      tag_114\n      jump\t// in\n    tag_242:\n      swap1\n      0x00\n      mstore\n      keccak256(0x00, 0x20)\n      swap1\n      0x05\n      mul\n      add\n        /* \"Documents/GitHub/Store-system-with-feedback/main.sol\":6560:6582  complaintBooks[i].shop */\n      0x00\n      add\n        /* \"Documents/GitHub/Store-system-with-feedback/main.sol\":6543:6583  abi.encodePacked(complaintBooks[i].shop) */\n      add(0x20, mload(0x40))\n      tag_244\n      swap2\n      swap1\n      tag_120\n      jump\t// in\n    tag_244:\n      mload(0x40)\n      0x20\n      dup2\n      dup4\n      sub\n      sub\n      dup2\n      mstore\n      swap1\n      0x40\n      mstore\n        /* \"Documents/GitHub/Store-system-with-feedback/main.sol\":6533:6584  keccak256(abi.encodePacked(complaintBooks[i].shop)) */\n      dup1\n      mload\n      swap1\n      0x20\n      add\n      keccak256\n        /* \"Documents/GitHub/Store-system-with-feedback/main.sol\":6519:6527  shopName */\n      dup7\n        /* \"Documents/GitHub/Store-system-with-feedback/main.sol\":6502:6528  abi.encodePacked(shopName) */\n      add(0x20, mload(0x40))\n      tag_245\n      swap2\n      swap1\n      tag_141\n      jump\t// in\n    tag_245:\n      mload(0x40)\n      0x20\n      dup2\n      dup4\n      sub\n      sub\n      dup2\n      mstore\n      swap1\n      0x40\n      mstore\n        /* \"Documents/GitHub/Store-system-with-feedback/main.sol\":6492:6529  keccak256(abi.encodePacked(shopName)) */\n      dup1\n      mload\n      swap1\n      0x20\n      add\n      keccak256\n        /* \"Documents/GitHub/Store-system-with-feedback/main.sol\":6492:6584  keccak256(abi.encodePacked(shopName)) == keccak256(abi.encodePacked(complaintBooks[i].shop)) */\n      eq\n        /* \"Documents/GitHub/Store-system-with-feedback/main.sol\":6489:6725  if(keccak256(abi.encodePacked(shopName)) == keccak256(abi.encodePacked(complaintBooks[i].shop))) {\r... */\n      iszero\n      tag_246\n      jumpi\n        /* \"Documents/GitHub/Store-system-with-feedback/main.sol\":6633:6647  complaintBooks */\n      0x03\n        /* \"Documents/GitHub/Store-system-with-feedback/main.sol\":6648:6649  i */\n      dup3\n        /* \"Documents/GitHub/Store-system-with-feedback/main.sol\":6633:6650  complaintBooks[i] */\n      dup2\n      sload\n      dup2\n      lt\n      tag_248\n      jumpi\n      tag_248\n      tag_114\n      jump\t// in\n    tag_248:\n      swap1\n      0x00\n      mstore\n      keccak256(0x00, 0x20)\n      swap1\n      0x05\n      mul\n      add\n        /* \"Documents/GitHub/Store-system-with-feedback/main.sol\":6633:6657  complaintBooks[i].rating */\n      0x03\n      add\n      sload\n        /* \"Documents/GitHub/Store-system-with-feedback/main.sol\":6613:6657  countArrayRating += complaintBooks[i].rating */\n      dup4\n      tag_250\n      swap2\n      swap1\n      tag_134\n      jump\t// in\n    tag_250:\n      swap3\n      pop\n        /* \"Documents/GitHub/Store-system-with-feedback/main.sol\":6489:6725  if(keccak256(abi.encodePacked(shopName)) == keccak256(abi.encodePacked(complaintBooks[i].shop))) {\r... */\n    tag_246:\n        /* \"Documents/GitHub/Store-system-with-feedback/main.sol\":6461:6464  i++ */\n      dup2\n      tag_251\n      dup2\n      tag_170\n      jump\t// in\n    tag_251:\n      swap3\n      pop\n      pop\n        /* \"Documents/GitHub/Store-system-with-feedback/main.sol\":6421:6744  for (i = 0; i <= complaintBooks.length; i++) {\r... */\n      jump(tag_238)\n    tag_239:\n      pop\n        /* \"Documents/GitHub/Store-system-with-feedback/main.sol\":6220:6223  i++ */\n      dup1\n      tag_252\n      dup2\n      tag_170\n      jump\t// in\n    tag_252:\n      swap2\n      pop\n      pop\n        /* \"Documents/GitHub/Store-system-with-feedback/main.sol\":6183:6770  for(uint i = 0; i < shopList.length; i++) {\r... */\n      jump(tag_224)\n    tag_225:\n      pop\n        /* \"Documents/GitHub/Store-system-with-feedback/main.sol\":6800:6836  countArrayRating / totalAverageValue */\n      tag_253\n        /* \"Documents/GitHub/Store-system-with-feedback/main.sol\":6819:6836  totalAverageValue */\n      dup3\n        /* \"Documents/GitHub/Store-system-with-feedback/main.sol\":6800:6816  countArrayRating */\n      dup3\n        /* \"Documents/GitHub/Store-system-with-feedback/main.sol\":6800:6836  countArrayRating / totalAverageValue */\n      tag_254\n      jump\t// in\n    tag_253:\n        /* \"Documents/GitHub/Store-system-with-feedback/main.sol\":6780:6836  countArrayRating += countArrayRating / totalAverageValue */\n      tag_255\n      swap1\n      dup3\n      tag_134\n      jump\t// in\n    tag_255:\n      swap5\n        /* \"Documents/GitHub/Store-system-with-feedback/main.sol\":6025:6878  function getStoryRating(string memory shopName) public view returns(uint) {\r... */\n      swap4\n      pop\n      pop\n      pop\n      pop\n      jump\t// out\n        /* \"Documents/GitHub/Store-system-with-feedback/main.sol\":2488:2535  structStatusReturn[] public structStatusReturns */\n    tag_78:\n      0x0b\n      dup2\n      dup2\n      sload\n      dup2\n      lt\n      tag_211\n      jumpi\n      0x00\n      dup1\n      revert\n        /* \"Documents/GitHub/Store-system-with-feedback/main.sol\":7734:7888  function productReturn (string memory titleProduct) public {\r... */\n    tag_82:\n        /* \"Documents/GitHub/Store-system-with-feedback/main.sol\":7829:7879  structStatusReturn(msg.sender, titleProduct, true) */\n      0x40\n      dup1\n      mload\n      0x60\n      dup2\n      add\n      dup3\n      mstore\n        /* \"Documents/GitHub/Store-system-with-feedback/main.sol\":7848:7858  msg.sender */\n      caller\n        /* \"Documents/GitHub/Store-system-with-feedback/main.sol\":7829:7879  structStatusReturn(msg.sender, titleProduct, true) */\n      dup2\n      mstore\n      0x20\n      dup1\n      dup3\n      add\n      dup5\n      dup2\n      mstore\n        /* \"Documents/GitHub/Store-system-with-feedback/main.sol\":7874:7878  true */\n      0x01\n        /* \"Documents/GitHub/Store-system-with-feedback/main.sol\":7829:7879  structStatusReturn(msg.sender, titleProduct, true) */\n      swap4\n      dup4\n      add\n      dup5\n      swap1\n      mstore\n        /* \"Documents/GitHub/Store-system-with-feedback/main.sol\":7804:7823  structStatusReturns */\n      0x0b\n        /* \"Documents/GitHub/Store-system-with-feedback/main.sol\":7804:7880  structStatusReturns.push(structStatusReturn(msg.sender, titleProduct, true)) */\n      dup1\n      sload\n      swap5\n      dup6\n      add\n      dup2\n      sstore\n      0x00\n      mstore\n      dup3\n      mload\n      0x0175b7a638427703f0dbe7bb9bbf987a2551717b34e79f33b5b1008d1fa01db9\n      0x03\n      swap1\n      swap6\n      mul\n      swap5\n      dup6\n      add\n      dup1\n      sload\n      not(sub(shl(0xa0, 0x01), 0x01))\n      and\n      sub(shl(0xa0, 0x01), 0x01)\n      swap1\n      swap3\n      and\n      swap2\n      swap1\n      swap2\n      or\n      dup2\n      sstore\n      swap1\n      mload\n      dup1\n      mload\n        /* \"Documents/GitHub/Store-system-with-feedback/main.sol\":7829:7879  structStatusReturn(msg.sender, titleProduct, true) */\n      swap4\n      swap5\n        /* \"Documents/GitHub/Store-system-with-feedback/main.sol\":7804:7880  structStatusReturns.push(structStatusReturn(msg.sender, titleProduct, true)) */\n      swap2\n      swap4\n      tag_146\n      swap4\n      0x0175b7a638427703f0dbe7bb9bbf987a2551717b34e79f33b5b1008d1fa01dba\n      swap1\n      swap4\n      add\n      swap3\n      swap2\n      swap1\n      swap2\n      add\n      swap1\n      tag_147\n      jump\t// in\n        /* \"Documents/GitHub/Store-system-with-feedback/main.sol\":5763:5857  function getShopList() public view returns(string[] memory) {\r... */\n    tag_84:\n        /* \"Documents/GitHub/Store-system-with-feedback/main.sol\":5806:5821  string[] memory */\n      0x60\n        /* \"Documents/GitHub/Store-system-with-feedback/main.sol\":5841:5849  shopList */\n      0x02\n        /* \"Documents/GitHub/Store-system-with-feedback/main.sol\":5834:5849  return shopList */\n      dup1\n      sload\n      dup1\n      0x20\n      mul\n      0x20\n      add\n      mload(0x40)\n      swap1\n      dup2\n      add\n      0x40\n      mstore\n      dup1\n      swap3\n      swap2\n      swap1\n      dup2\n      dup2\n      mstore\n      0x20\n      add\n      0x00\n      swap1\n    tag_267:\n      dup3\n      dup3\n      lt\n      iszero\n      tag_196\n      jumpi\n      dup4\n      dup3\n      swap1\n      0x00\n      mstore\n      keccak256(0x00, 0x20)\n      add\n      dup1\n      sload\n      tag_270\n      swap1\n      tag_156\n      jump\t// in\n    tag_270:\n      dup1\n      0x1f\n      add\n      0x20\n      dup1\n      swap2\n      div\n      mul\n      0x20\n      add\n      mload(0x40)\n      swap1\n      dup2\n      add\n      0x40\n      mstore\n      dup1\n      swap3\n      swap2\n      swap1\n      dup2\n      dup2\n      mstore\n      0x20\n      add\n      dup3\n      dup1\n      sload\n      tag_271\n      swap1\n      tag_156\n      jump\t// in\n    tag_271:\n      dup1\n      iszero\n      tag_272\n      jumpi\n      dup1\n      0x1f\n      lt\n      tag_273\n      jumpi\n      0x0100\n      dup1\n      dup4\n      sload\n      div\n      mul\n      dup4\n      mstore\n      swap2\n      0x20\n      add\n      swap2\n      jump(tag_272)\n    tag_273:\n      dup3\n      add\n      swap2\n      swap1\n      0x00\n      mstore\n      keccak256(0x00, 0x20)\n      swap1\n    tag_274:\n      dup2\n      sload\n      dup2\n      mstore\n      swap1\n      0x01\n      add\n      swap1\n      0x20\n      add\n      dup1\n      dup4\n      gt\n      tag_274\n      jumpi\n      dup3\n      swap1\n      sub\n      0x1f\n      and\n      dup3\n      add\n      swap2\n    tag_272:\n      pop\n      pop\n      pop\n      pop\n      pop\n      dup2\n      mstore\n      0x20\n      add\n      swap1\n      0x01\n      add\n      swap1\n      jump(tag_267)\n        /* \"Documents/GitHub/Store-system-with-feedback/main.sol\":3337:3925  function leaveFeedback (string memory shop, string memory feedback, uint256 rating) public {\r... */\n    tag_93:\n        /* \"Documents/GitHub/Store-system-with-feedback/main.sol\":3457:3459  10 */\n      0x0a\n        /* \"Documents/GitHub/Store-system-with-feedback/main.sol\":3447:3453  rating */\n      dup2\n        /* \"Documents/GitHub/Store-system-with-feedback/main.sol\":3447:3459  rating <= 10 */\n      gt\n      iszero\n        /* \"Documents/GitHub/Store-system-with-feedback/main.sol\":3439:3496  require(rating <= 10,\"error: rating can be from 1 to 10\") */\n      tag_276\n      jumpi\n      mload(0x40)\n      shl(0xe5, 0x461bcd)\n      dup2\n      mstore\n        /* \"#utility.yul\":10060:10062   */\n      0x20\n        /* \"Documents/GitHub/Store-system-with-feedback/main.sol\":3439:3496  require(rating <= 10,\"error: rating can be from 1 to 10\") */\n      0x04\n      dup3\n      add\n        /* \"#utility.yul\":10042:10063   */\n      mstore\n        /* \"#utility.yul\":10099:10101   */\n      0x21\n        /* \"#utility.yul\":10079:10097   */\n      0x24\n      dup3\n      add\n        /* \"#utility.yul\":10072:10102   */\n      mstore\n        /* \"#utility.yul\":10138:10172   */\n      0x6572726f723a20726174696e672063616e2062652066726f6d203120746f2031\n        /* \"#utility.yul\":10118:10136   */\n      0x44\n      dup3\n      add\n        /* \"#utility.yul\":10111:10173   */\n      mstore\n      shl(0xfc, 0x03)\n        /* \"#utility.yul\":10189:10207   */\n      0x64\n      dup3\n      add\n        /* \"#utility.yul\":10182:10213   */\n      mstore\n        /* \"#utility.yul\":10230:10249   */\n      0x84\n      add\n        /* \"Documents/GitHub/Store-system-with-feedback/main.sol\":3439:3496  require(rating <= 10,\"error: rating can be from 1 to 10\") */\n      tag_143\n        /* \"#utility.yul\":9858:10255   */\n      jump\n        /* \"Documents/GitHub/Store-system-with-feedback/main.sol\":3439:3496  require(rating <= 10,\"error: rating can be from 1 to 10\") */\n    tag_276:\n        /* \"Documents/GitHub/Store-system-with-feedback/main.sol\":3511:3517  uint i */\n      0x00\n        /* \"Documents/GitHub/Store-system-with-feedback/main.sol\":3507:3918  for(uint i = 0; i <= shopList.length; i++) {\r... */\n    tag_279:\n        /* \"Documents/GitHub/Store-system-with-feedback/main.sol\":3528:3536  shopList */\n      0x02\n        /* \"Documents/GitHub/Store-system-with-feedback/main.sol\":3528:3543  shopList.length */\n      sload\n        /* \"Documents/GitHub/Store-system-with-feedback/main.sol\":3523:3543  i <= shopList.length */\n      dup2\n      gt\n        /* \"Documents/GitHub/Store-system-with-feedback/main.sol\":3507:3918  for(uint i = 0; i <= shopList.length; i++) {\r... */\n      tag_280\n      jumpi\n        /* \"Documents/GitHub/Store-system-with-feedback/main.sol\":3565:3591  string memory tempShopName */\n      0x00\n        /* \"Documents/GitHub/Store-system-with-feedback/main.sol\":3594:3602  shopList */\n      0x02\n        /* \"Documents/GitHub/Store-system-with-feedback/main.sol\":3603:3604  i */\n      dup3\n        /* \"Documents/GitHub/Store-system-with-feedback/main.sol\":3594:3605  shopList[i] */\n      dup2\n      sload\n      dup2\n      lt\n      tag_283\n      jumpi\n      tag_283\n      tag_114\n      jump\t// in\n    tag_283:\n      swap1\n      0x00\n      mstore\n      keccak256(0x00, 0x20)\n      add\n        /* \"Documents/GitHub/Store-system-with-feedback/main.sol\":3565:3605  string memory tempShopName = shopList[i] */\n      dup1\n      sload\n      tag_285\n      swap1\n      tag_156\n      jump\t// in\n    tag_285:\n      dup1\n      0x1f\n      add\n      0x20\n      dup1\n      swap2\n      div\n      mul\n      0x20\n      add\n      mload(0x40)\n      swap1\n      dup2\n      add\n      0x40\n      mstore\n      dup1\n      swap3\n      swap2\n      swap1\n      dup2\n      dup2\n      mstore\n      0x20\n      add\n      dup3\n      dup1\n      sload\n      tag_286\n      swap1\n      tag_156\n      jump\t// in\n    tag_286:\n      dup1\n      iszero\n      tag_287\n      jumpi\n      dup1\n      0x1f\n      lt\n      tag_288\n      jumpi\n      0x0100\n      dup1\n      dup4\n      sload\n      div\n      mul\n      dup4\n      mstore\n      swap2\n      0x20\n      add\n      swap2\n      jump(tag_287)\n    tag_288:\n      dup3\n      add\n      swap2\n      swap1\n      0x00\n      mstore\n      keccak256(0x00, 0x20)\n      swap1\n    tag_289:\n      dup2\n      sload\n      dup2\n      mstore\n      swap1\n      0x01\n      add\n      swap1\n      0x20\n      add\n      dup1\n      dup4\n      gt\n      tag_289\n      jumpi\n      dup3\n      swap1\n      sub\n      0x1f\n      and\n      dup3\n      add\n      swap2\n    tag_287:\n      pop\n      pop\n      pop\n      pop\n      pop\n      swap1\n      pop\n        /* \"Documents/GitHub/Store-system-with-feedback/main.sol\":3695:3699  shop */\n      dup5\n        /* \"Documents/GitHub/Store-system-with-feedback/main.sol\":3678:3700  abi.encodePacked(shop) */\n      add(0x20, mload(0x40))\n      tag_290\n      swap2\n      swap1\n      tag_141\n      jump\t// in\n    tag_290:\n      mload(0x40)\n      0x20\n      dup2\n      dup4\n      sub\n      sub\n      dup2\n      mstore\n      swap1\n      0x40\n      mstore\n        /* \"Documents/GitHub/Store-system-with-feedback/main.sol\":3668:3701  keccak256(abi.encodePacked(shop)) */\n      dup1\n      mload\n      swap1\n      0x20\n      add\n      keccak256\n        /* \"Documents/GitHub/Store-system-with-feedback/main.sol\":3650:3662  tempShopName */\n      dup2\n        /* \"Documents/GitHub/Store-system-with-feedback/main.sol\":3633:3663  abi.encodePacked(tempShopName) */\n      add(0x20, mload(0x40))\n      tag_291\n      swap2\n      swap1\n      tag_141\n      jump\t// in\n    tag_291:\n      mload(0x40)\n      0x20\n      dup2\n      dup4\n      sub\n      sub\n      dup2\n      mstore\n      swap1\n      0x40\n      mstore\n        /* \"Documents/GitHub/Store-system-with-feedback/main.sol\":3623:3664  keccak256(abi.encodePacked(tempShopName)) */\n      dup1\n      mload\n      swap1\n      0x20\n      add\n      keccak256\n        /* \"Documents/GitHub/Store-system-with-feedback/main.sol\":3623:3701  keccak256(abi.encodePacked(tempShopName)) == keccak256(abi.encodePacked(shop)) */\n      eq\n        /* \"Documents/GitHub/Store-system-with-feedback/main.sol\":3620:3907  if(keccak256(abi.encodePacked(tempShopName)) == keccak256(abi.encodePacked(shop))) {                    \r... */\n      iszero\n      tag_292\n      jumpi\n        /* \"Documents/GitHub/Store-system-with-feedback/main.sol\":3807:3890  complaintBook(shop, structUsers[msg.sender].userName, feedback, rating, zerroArray) */\n      0x40\n      dup1\n      mload\n      0xa0\n      dup2\n      add\n      dup3\n      mstore\n      dup7\n      dup2\n      mstore\n        /* \"Documents/GitHub/Store-system-with-feedback/main.sol\":3839:3849  msg.sender */\n      caller\n      0x00\n        /* \"Documents/GitHub/Store-system-with-feedback/main.sol\":3827:3850  structUsers[msg.sender] */\n      swap1\n      dup2\n      mstore\n        /* \"Documents/GitHub/Store-system-with-feedback/main.sol\":3827:3838  structUsers */\n      0x04\n        /* \"Documents/GitHub/Store-system-with-feedback/main.sol\":3807:3890  complaintBook(shop, structUsers[msg.sender].userName, feedback, rating, zerroArray) */\n      0x20\n        /* \"Documents/GitHub/Store-system-with-feedback/main.sol\":3827:3850  structUsers[msg.sender] */\n      swap1\n      dup2\n      mstore\n      swap3\n      swap1\n      keccak256\n        /* \"Documents/GitHub/Store-system-with-feedback/main.sol\":3807:3890  complaintBook(shop, structUsers[msg.sender].userName, feedback, rating, zerroArray) */\n      dup1\n      sload\n        /* \"Documents/GitHub/Store-system-with-feedback/main.sol\":3742:3768  string[] memory zerroArray */\n      0x60\n      swap4\n        /* \"Documents/GitHub/Store-system-with-feedback/main.sol\":3787:3801  complaintBooks */\n      0x03\n      swap4\n        /* \"Documents/GitHub/Store-system-with-feedback/main.sol\":3807:3890  complaintBook(shop, structUsers[msg.sender].userName, feedback, rating, zerroArray) */\n      swap3\n      swap1\n      dup4\n      add\n      swap2\n      tag_293\n      swap1\n      tag_156\n      jump\t// in\n    tag_293:\n      dup1\n      0x1f\n      add\n      0x20\n      dup1\n      swap2\n      div\n      mul\n      0x20\n      add\n      mload(0x40)\n      swap1\n      dup2\n      add\n      0x40\n      mstore\n      dup1\n      swap3\n      swap2\n      swap1\n      dup2\n      dup2\n      mstore\n      0x20\n      add\n      dup3\n      dup1\n      sload\n      tag_294\n      swap1\n      tag_156\n      jump\t// in\n    tag_294:\n      dup1\n      iszero\n      tag_295\n      jumpi\n      dup1\n      0x1f\n      lt\n      tag_296\n      jumpi\n      0x0100\n      dup1\n      dup4\n      sload\n      div\n      mul\n      dup4\n      mstore\n      swap2\n      0x20\n      add\n      swap2\n      jump(tag_295)\n    tag_296:\n      dup3\n      add\n      swap2\n      swap1\n      0x00\n      mstore\n      keccak256(0x00, 0x20)\n      swap1\n    tag_297:\n      dup2\n      sload\n      dup2\n      mstore\n      swap1\n      0x01\n      add\n      swap1\n      0x20\n      add\n      dup1\n      dup4\n      gt\n      tag_297\n      jumpi\n      dup3\n      swap1\n      sub\n      0x1f\n      and\n      dup3\n      add\n      swap2\n    tag_295:\n      pop\n      pop\n      pop\n      swap2\n      dup4\n      mstore\n      pop\n      pop\n      0x20\n      dup1\n      dup3\n      add\n      dup10\n      swap1\n      mstore\n      0x40\n      dup3\n      add\n      dup9\n      swap1\n      mstore\n      0x60\n      swap1\n      swap2\n      add\n      dup5\n      swap1\n      mstore\n        /* \"Documents/GitHub/Store-system-with-feedback/main.sol\":3787:3891  complaintBooks.push(complaintBook(shop, structUsers[msg.sender].userName, feedback, rating, zerroArray)) */\n      dup3\n      sload\n      0x01\n      dup2\n      add\n      dup5\n      sstore\n      0x00\n      swap4\n      dup5\n      mstore\n      swap3\n      dup2\n      swap1\n      keccak256\n      dup3\n      mload\n      dup1\n      mload\n      swap4\n      swap5\n      0x05\n      mul\n      swap1\n      swap2\n      add\n      swap3\n      tag_299\n      swap3\n      dup5\n      swap3\n      add\n      swap1\n      tag_147\n      jump\t// in\n    tag_299:\n      pop\n      0x20\n      dup3\n      dup2\n      add\n      mload\n      dup1\n      mload\n      tag_300\n      swap3\n      0x01\n      dup6\n      add\n      swap3\n      add\n      swap1\n      tag_147\n      jump\t// in\n    tag_300:\n      pop\n      0x40\n      dup3\n      add\n      mload\n      dup1\n      mload\n      tag_301\n      swap2\n      0x02\n      dup5\n      add\n      swap2\n      0x20\n      swap1\n      swap2\n      add\n      swap1\n      tag_147\n      jump\t// in\n    tag_301:\n      pop\n      0x60\n      dup3\n      add\n      mload\n      0x03\n      dup3\n      add\n      sstore\n      0x80\n      dup3\n      add\n      mload\n      dup1\n      mload\n      tag_302\n      swap2\n      0x04\n      dup5\n      add\n      swap2\n      0x20\n      swap1\n      swap2\n      add\n      swap1\n      tag_168\n      jump\t// in\n    tag_302:\n      pop\n      pop\n      pop\n        /* \"Documents/GitHub/Store-system-with-feedback/main.sol\":3703:3907  {                    \r... */\n      pop\n        /* \"Documents/GitHub/Store-system-with-feedback/main.sol\":3620:3907  if(keccak256(abi.encodePacked(tempShopName)) == keccak256(abi.encodePacked(shop))) {                    \r... */\n    tag_292:\n      pop\n        /* \"Documents/GitHub/Store-system-with-feedback/main.sol\":3545:3548  i++ */\n      dup1\n      tag_303\n      dup2\n      tag_170\n      jump\t// in\n    tag_303:\n      swap2\n      pop\n      pop\n        /* \"Documents/GitHub/Store-system-with-feedback/main.sol\":3507:3918  for(uint i = 0; i <= shopList.length; i++) {\r... */\n      jump(tag_279)\n    tag_280:\n      pop\n        /* \"Documents/GitHub/Store-system-with-feedback/main.sol\":3337:3925  function leaveFeedback (string memory shop, string memory feedback, uint256 rating) public {\r... */\n      pop\n      pop\n      pop\n      jump\t// out\n        /* \"Documents/GitHub/Store-system-with-feedback/main.sol\":2037:2091  mapping(string => structProduct) public structProducts */\n    tag_96:\n      dup1\n      mload\n      0x20\n      dup2\n      dup4\n      add\n      dup2\n      add\n      dup1\n      mload\n      0x08\n      dup3\n      mstore\n      swap3\n      dup3\n      add\n      swap2\n      swap1\n      swap4\n      add\n      keccak256\n      swap2\n      mstore\n      dup1\n      sload\n      0x01\n      dup3\n      add\n      dup1\n      sload\n      sub(shl(0xa0, 0x01), 0x01)\n      swap1\n      swap3\n      and\n      swap3\n      swap2\n      tag_304\n      swap1\n      tag_156\n      jump\t// in\n    tag_304:\n      dup1\n      0x1f\n      add\n      0x20\n      dup1\n      swap2\n      div\n      mul\n      0x20\n      add\n      mload(0x40)\n      swap1\n      dup2\n      add\n      0x40\n      mstore\n      dup1\n      swap3\n      swap2\n      swap1\n      dup2\n      dup2\n      mstore\n      0x20\n      add\n      dup3\n      dup1\n      sload\n      tag_305\n      swap1\n      tag_156\n      jump\t// in\n    tag_305:\n      dup1\n      iszero\n      tag_306\n      jumpi\n      dup1\n      0x1f\n      lt\n      tag_307\n      jumpi\n      0x0100\n      dup1\n      dup4\n      sload\n      div\n      mul\n      dup4\n      mstore\n      swap2\n      0x20\n      add\n      swap2\n      jump(tag_306)\n    tag_307:\n      dup3\n      add\n      swap2\n      swap1\n      0x00\n      mstore\n      keccak256(0x00, 0x20)\n      swap1\n    tag_308:\n      dup2\n      sload\n      dup2\n      mstore\n      swap1\n      0x01\n      add\n      swap1\n      0x20\n      add\n      dup1\n      dup4\n      gt\n      tag_308\n      jumpi\n      dup3\n      swap1\n      sub\n      0x1f\n      and\n      dup3\n      add\n      swap2\n    tag_306:\n      pop\n      pop\n      pop\n      pop\n      pop\n      swap1\n      dup1\n      0x02\n      add\n      sload\n      swap1\n      dup1\n      0x03\n      add\n      sload\n      swap1\n      pop\n      dup5\n      jump\t// out\n        /* \"Documents/GitHub/Store-system-with-feedback/main.sol\":2280:2331  structStatusPurchase[] public structStatusPurchases */\n    tag_101:\n      0x0a\n      dup2\n      dup2\n      sload\n      dup2\n      lt\n      tag_211\n      jumpi\n      0x00\n      dup1\n      revert\n        /* \"Documents/GitHub/Store-system-with-feedback/main.sol\":8317:8747  function create_user(address addr, string memory login, uint password) public {\r... */\n    tag_106:\n        /* \"Documents/GitHub/Store-system-with-feedback/main.sol\":8428:8470  0x9c35a9bdf790A5Ce09b353B1C765269aB466Baad */\n      0x9c35a9bdf790a5ce09b353b1c765269ab466baad\n        /* \"Documents/GitHub/Store-system-with-feedback/main.sol\":8414:8424  msg.sender */\n      caller\n        /* \"Documents/GitHub/Store-system-with-feedback/main.sol\":8414:8470  msg.sender == 0x9c35a9bdf790A5Ce09b353B1C765269aB466Baad */\n      eq\n        /* \"Documents/GitHub/Store-system-with-feedback/main.sol\":8406:8504  require(msg.sender == 0x9c35a9bdf790A5Ce09b353B1C765269aB466Baad, \"Error: You not a zero account\") */\n      tag_317\n      jumpi\n      mload(0x40)\n      shl(0xe5, 0x461bcd)\n      dup2\n      mstore\n        /* \"#utility.yul\":9003:9005   */\n      0x20\n        /* \"Documents/GitHub/Store-system-with-feedback/main.sol\":8406:8504  require(msg.sender == 0x9c35a9bdf790A5Ce09b353B1C765269aB466Baad, \"Error: You not a zero account\") */\n      0x04\n      dup3\n      add\n        /* \"#utility.yul\":8985:9006   */\n      mstore\n        /* \"#utility.yul\":9042:9044   */\n      0x1d\n        /* \"#utility.yul\":9022:9040   */\n      0x24\n      dup3\n      add\n        /* \"#utility.yul\":9015:9045   */\n      mstore\n        /* \"#utility.yul\":9081:9112   */\n      0x4572726f723a20596f75206e6f742061207a65726f206163636f756e74000000\n        /* \"#utility.yul\":9061:9079   */\n      0x44\n      dup3\n      add\n        /* \"#utility.yul\":9054:9113   */\n      mstore\n        /* \"#utility.yul\":9130:9148   */\n      0x64\n      add\n        /* \"Documents/GitHub/Store-system-with-feedback/main.sol\":8406:8504  require(msg.sender == 0x9c35a9bdf790A5Ce09b353B1C765269aB466Baad, \"Error: You not a zero account\") */\n      tag_143\n        /* \"#utility.yul\":8801:9154   */\n      jump\n        /* \"Documents/GitHub/Store-system-with-feedback/main.sol\":8406:8504  require(msg.sender == 0x9c35a9bdf790A5Ce09b353B1C765269aB466Baad, \"Error: You not a zero account\") */\n    tag_317:\n        /* \"Documents/GitHub/Store-system-with-feedback/main.sol\":8558:8559  0 */\n      0x00\n      sub(shl(0xa0, 0x01), 0x01)\n        /* \"Documents/GitHub/Store-system-with-feedback/main.sol\":8523:8560  structUserLogins[login] == address(0) */\n      and\n        /* \"Documents/GitHub/Store-system-with-feedback/main.sol\":8523:8539  structUserLogins */\n      0x05\n        /* \"Documents/GitHub/Store-system-with-feedback/main.sol\":8540:8545  login */\n      dup4\n        /* \"Documents/GitHub/Store-system-with-feedback/main.sol\":8523:8546  structUserLogins[login] */\n      mload(0x40)\n      tag_320\n      swap2\n      swap1\n      tag_141\n      jump\t// in\n    tag_320:\n      swap1\n      dup2\n      mstore\n      mload(0x40)\n      swap1\n      dup2\n      swap1\n      sub\n      0x20\n      add\n      swap1\n      keccak256\n      sload\n      sub(shl(0xa0, 0x01), 0x01)\n      and\n        /* \"Documents/GitHub/Store-system-with-feedback/main.sol\":8523:8560  structUserLogins[login] == address(0) */\n      eq\n        /* \"Documents/GitHub/Store-system-with-feedback/main.sol\":8515:8590  require(structUserLogins[login] == address(0), \"Error: User already exist\") */\n      tag_321\n      jumpi\n      mload(0x40)\n      shl(0xe5, 0x461bcd)\n      dup2\n      mstore\n        /* \"#utility.yul\":9361:9363   */\n      0x20\n        /* \"Documents/GitHub/Store-system-with-feedback/main.sol\":8515:8590  require(structUserLogins[login] == address(0), \"Error: User already exist\") */\n      0x04\n      dup3\n      add\n        /* \"#utility.yul\":9343:9364   */\n      mstore\n        /* \"#utility.yul\":9400:9402   */\n      0x19\n        /* \"#utility.yul\":9380:9398   */\n      0x24\n      dup3\n      add\n        /* \"#utility.yul\":9373:9403   */\n      mstore\n      shl(0x3a, 0x115c9c9bdc8e88155cd95c88185b1c9958591e48195e1a5cdd)\n        /* \"#utility.yul\":9419:9437   */\n      0x44\n      dup3\n      add\n        /* \"#utility.yul\":9412:9467   */\n      mstore\n        /* \"#utility.yul\":9484:9502   */\n      0x64\n      add\n        /* \"Documents/GitHub/Store-system-with-feedback/main.sol\":8515:8590  require(structUserLogins[login] == address(0), \"Error: User already exist\") */\n      tag_143\n        /* \"#utility.yul\":9159:9508   */\n      jump\n        /* \"Documents/GitHub/Store-system-with-feedback/main.sol\":8515:8590  require(structUserLogins[login] == address(0), \"Error: User already exist\") */\n    tag_321:\n        /* \"Documents/GitHub/Store-system-with-feedback/main.sol\":8621:8660  structUser(login, password, 1000, true) */\n      0x40\n      dup1\n      mload\n      0x80\n      dup2\n      add\n      dup3\n      mstore\n      dup4\n      dup2\n      mstore\n      0x20\n      dup1\n      dup3\n      add\n      dup5\n      swap1\n      mstore\n        /* \"Documents/GitHub/Store-system-with-feedback/main.sol\":8649:8653  1000 */\n      0x03e8\n        /* \"Documents/GitHub/Store-system-with-feedback/main.sol\":8621:8660  structUser(login, password, 1000, true) */\n      dup3\n      dup5\n      add\n      mstore\n        /* \"Documents/GitHub/Store-system-with-feedback/main.sol\":8655:8659  true */\n      0x01\n        /* \"Documents/GitHub/Store-system-with-feedback/main.sol\":8621:8660  structUser(login, password, 1000, true) */\n      0x60\n      dup4\n      add\n      mstore\n      sub(shl(0xa0, 0x01), 0x01)\n        /* \"Documents/GitHub/Store-system-with-feedback/main.sol\":8601:8618  structUsers[addr] */\n      dup7\n      and\n      0x00\n      swap1\n      dup2\n      mstore\n        /* \"Documents/GitHub/Store-system-with-feedback/main.sol\":8601:8612  structUsers */\n      0x04\n        /* \"Documents/GitHub/Store-system-with-feedback/main.sol\":8601:8618  structUsers[addr] */\n      dup3\n      mstore\n      swap3\n      swap1\n      swap3\n      keccak256\n        /* \"Documents/GitHub/Store-system-with-feedback/main.sol\":8601:8660  structUsers[addr] = structUser(login, password, 1000, true) */\n      dup2\n      mload\n      dup1\n      mload\n        /* \"Documents/GitHub/Store-system-with-feedback/main.sol\":8621:8660  structUser(login, password, 1000, true) */\n      swap3\n      swap4\n        /* \"Documents/GitHub/Store-system-with-feedback/main.sol\":8601:8618  structUsers[addr] */\n      swap2\n      swap3\n        /* \"Documents/GitHub/Store-system-with-feedback/main.sol\":8601:8660  structUsers[addr] = structUser(login, password, 1000, true) */\n      tag_324\n      swap3\n        /* \"Documents/GitHub/Store-system-with-feedback/main.sol\":8601:8618  structUsers[addr] */\n      dup5\n      swap3\n        /* \"Documents/GitHub/Store-system-with-feedback/main.sol\":8601:8660  structUsers[addr] = structUser(login, password, 1000, true) */\n      add\n      swap1\n      tag_147\n      jump\t// in\n    tag_324:\n      pop\n      0x20\n      dup3\n      add\n      mload\n      0x01\n      dup3\n      add\n      sstore\n      0x40\n      dup1\n      dup4\n      add\n      mload\n      0x02\n      dup4\n      add\n      sstore\n      0x60\n      swap1\n      swap3\n      add\n      mload\n      0x03\n      swap1\n      swap2\n      add\n      dup1\n      sload\n      not(0xff)\n      and\n      swap2\n      iszero\n      iszero\n      swap2\n      swap1\n      swap2\n      or\n      swap1\n      sstore\n        /* \"Documents/GitHub/Store-system-with-feedback/main.sol\":8671:8694  structUserLogins[login] */\n      mload\n        /* \"Documents/GitHub/Store-system-with-feedback/main.sol\":8697:8701  addr */\n      dup4\n      swap1\n        /* \"Documents/GitHub/Store-system-with-feedback/main.sol\":8671:8687  structUserLogins */\n      0x05\n      swap1\n        /* \"Documents/GitHub/Store-system-with-feedback/main.sol\":8671:8694  structUserLogins[login] */\n      tag_325\n      swap1\n        /* \"Documents/GitHub/Store-system-with-feedback/main.sol\":8688:8693  login */\n      dup6\n      swap1\n        /* \"Documents/GitHub/Store-system-with-feedback/main.sol\":8671:8694  structUserLogins[login] */\n      tag_141\n      jump\t// in\n    tag_325:\n      swap1\n      dup2\n      mstore\n      mload(0x40)\n      swap1\n      dup2\n      swap1\n      sub\n      0x20\n      add\n      swap1\n      keccak256\n        /* \"Documents/GitHub/Store-system-with-feedback/main.sol\":8671:8701  structUserLogins[login] = addr */\n      dup1\n      sload\n      sub(shl(0xa0, 0x01), 0x01)\n      swap3\n      dup4\n      and\n      not(sub(shl(0xa0, 0x01), 0x01))\n      swap2\n      dup3\n      and\n      or\n      swap1\n      swap2\n      sstore\n        /* \"Documents/GitHub/Store-system-with-feedback/main.sol\":8712:8728  userAddressArray */\n      0x07\n        /* \"Documents/GitHub/Store-system-with-feedback/main.sol\":8712:8739  userAddressArray.push(addr) */\n      dup1\n      sload\n        /* \"Documents/GitHub/Store-system-with-feedback/main.sol\":8671:8701  structUserLogins[login] = addr */\n      0x01\n        /* \"Documents/GitHub/Store-system-with-feedback/main.sol\":8712:8739  userAddressArray.push(addr) */\n      dup2\n      add\n      dup3\n      sstore\n        /* \"Documents/GitHub/Store-system-with-feedback/main.sol\":8671:8694  structUserLogins[login] */\n      0x00\n        /* \"Documents/GitHub/Store-system-with-feedback/main.sol\":8712:8739  userAddressArray.push(addr) */\n      swap2\n      swap1\n      swap2\n      mstore\n      0xa66cc928b5edb82af9bd49922954155ab7b0942694bea4ce44661d9a8736c688\n      add\n      dup1\n      sload\n      swap6\n      swap1\n      swap3\n      and\n      swap5\n      and\n      swap4\n      swap1\n      swap4\n      or\n      swap1\n      swap3\n      sstore\n      pop\n      pop\n        /* \"Documents/GitHub/Store-system-with-feedback/main.sol\":8317:8747  function create_user(address addr, string memory login, uint password) public {\r... */\n      jump\t// out\n        /* \"Documents/GitHub/Store-system-with-feedback/main.sol\":5152:5729  function MarriageRegistration(uint idMarriageRegistration, bool confirmation) public {\r... */\n    tag_109:\n        /* \"Documents/GitHub/Store-system-with-feedback/main.sol\":5267:5271  true */\n      0x01\n        /* \"Documents/GitHub/Store-system-with-feedback/main.sol\":5251:5271  confirmation == true */\n      dup2\n      iszero\n      iszero\n      eq\n        /* \"Documents/GitHub/Store-system-with-feedback/main.sol\":5248:5722  if(confirmation == true) {\r... */\n      iszero\n      tag_172\n      jumpi\n        /* \"Documents/GitHub/Store-system-with-feedback/main.sol\":5460:5474  structProducts */\n      0x08\n        /* \"Documents/GitHub/Store-system-with-feedback/main.sol\":5475:5502  structMarriageRegistrations */\n      0x0c\n        /* \"Documents/GitHub/Store-system-with-feedback/main.sol\":5503:5525  idMarriageRegistration */\n      dup4\n        /* \"Documents/GitHub/Store-system-with-feedback/main.sol\":5475:5526  structMarriageRegistrations[idMarriageRegistration] */\n      dup2\n      sload\n      dup2\n      lt\n      tag_330\n      jumpi\n      tag_330\n      tag_114\n      jump\t// in\n    tag_330:\n      swap1\n      0x00\n      mstore\n      keccak256(0x00, 0x20)\n      swap1\n      0x03\n      mul\n      add\n        /* \"Documents/GitHub/Store-system-with-feedback/main.sol\":5475:5539  structMarriageRegistrations[idMarriageRegistration].titleProduct */\n      0x01\n      add\n        /* \"Documents/GitHub/Store-system-with-feedback/main.sol\":5460:5540  structProducts[structMarriageRegistrations[idMarriageRegistration].titleProduct] */\n      mload(0x40)\n      tag_332\n      swap2\n      swap1\n      tag_120\n      jump\t// in\n    tag_332:\n      swap1\n      dup2\n      mstore\n      0x20\n      add\n      mload(0x40)\n      dup1\n      swap2\n      sub\n      swap1\n      keccak256\n        /* \"Documents/GitHub/Store-system-with-feedback/main.sol\":5460:5546  structProducts[structMarriageRegistrations[idMarriageRegistration].titleProduct].price */\n      0x02\n      add\n      sload\n        /* \"Documents/GitHub/Store-system-with-feedback/main.sol\":5374:5385  structUsers */\n      0x04\n        /* \"Documents/GitHub/Store-system-with-feedback/main.sol\":5374:5448  structUsers[structMarriageRegistrations[idMarriageRegistration].userLogin] */\n      0x00\n        /* \"Documents/GitHub/Store-system-with-feedback/main.sol\":5386:5413  structMarriageRegistrations */\n      0x0c\n        /* \"Documents/GitHub/Store-system-with-feedback/main.sol\":5414:5436  idMarriageRegistration */\n      dup6\n        /* \"Documents/GitHub/Store-system-with-feedback/main.sol\":5386:5437  structMarriageRegistrations[idMarriageRegistration] */\n      dup2\n      sload\n      dup2\n      lt\n      tag_334\n      jumpi\n      tag_334\n      tag_114\n      jump\t// in\n    tag_334:\n      0x00\n      swap2\n      dup3\n      mstore\n      0x20\n      dup1\n      dup4\n      keccak256\n      0x03\n      swap1\n      swap3\n      mul\n      swap1\n      swap2\n      add\n        /* \"Documents/GitHub/Store-system-with-feedback/main.sol\":5386:5447  structMarriageRegistrations[idMarriageRegistration].userLogin */\n      sload\n      sub(shl(0xa0, 0x01), 0x01)\n      and\n        /* \"Documents/GitHub/Store-system-with-feedback/main.sol\":5374:5448  structUsers[structMarriageRegistrations[idMarriageRegistration].userLogin] */\n      dup4\n      mstore\n      dup3\n      add\n      swap3\n      swap1\n      swap3\n      mstore\n      0x40\n      add\n      swap1\n      keccak256\n        /* \"Documents/GitHub/Store-system-with-feedback/main.sol\":5374:5457  structUsers[structMarriageRegistrations[idMarriageRegistration].userLogin].ballance */\n      0x02\n      add\n      sload\n        /* \"Documents/GitHub/Store-system-with-feedback/main.sol\":5374:5546  structUsers[structMarriageRegistrations[idMarriageRegistration].userLogin].ballance + structProducts[structMarriageRegistrations[idMarriageRegistration].titleProduct].price */\n      tag_336\n      swap2\n      swap1\n      tag_134\n      jump\t// in\n    tag_336:\n        /* \"Documents/GitHub/Store-system-with-feedback/main.sol\":5288:5299  structUsers */\n      0x04\n        /* \"Documents/GitHub/Store-system-with-feedback/main.sol\":5288:5362  structUsers[structMarriageRegistrations[idMarriageRegistration].userLogin] */\n      0x00\n        /* \"Documents/GitHub/Store-system-with-feedback/main.sol\":5300:5327  structMarriageRegistrations */\n      0x0c\n        /* \"Documents/GitHub/Store-system-with-feedback/main.sol\":5328:5350  idMarriageRegistration */\n      dup6\n        /* \"Documents/GitHub/Store-system-with-feedback/main.sol\":5300:5351  structMarriageRegistrations[idMarriageRegistration] */\n      dup2\n      sload\n      dup2\n      lt\n      tag_338\n      jumpi\n      tag_338\n      tag_114\n      jump\t// in\n    tag_338:\n      0x00\n      swap2\n      dup3\n      mstore\n      0x20\n      dup1\n      dup4\n      keccak256\n      0x03\n      swap1\n      swap3\n      mul\n      swap1\n      swap2\n      add\n        /* \"Documents/GitHub/Store-system-with-feedback/main.sol\":5300:5361  structMarriageRegistrations[idMarriageRegistration].userLogin */\n      sload\n      sub(shl(0xa0, 0x01), 0x01)\n      and\n        /* \"Documents/GitHub/Store-system-with-feedback/main.sol\":5288:5362  structUsers[structMarriageRegistrations[idMarriageRegistration].userLogin] */\n      dup4\n      mstore\n      dup3\n      add\n      swap3\n      swap1\n      swap3\n      mstore\n      0x40\n      add\n      dup2\n      keccak256\n        /* \"Documents/GitHub/Store-system-with-feedback/main.sol\":5288:5371  structUsers[structMarriageRegistrations[idMarriageRegistration].userLogin].ballance */\n      0x02\n      add\n        /* \"Documents/GitHub/Store-system-with-feedback/main.sol\":5288:5546  structUsers[structMarriageRegistrations[idMarriageRegistration].userLogin].ballance = structUsers[structMarriageRegistrations[idMarriageRegistration].userLogin].ballance + structProducts[structMarriageRegistrations[idMarriageRegistration].titleProduct].price */\n      swap2\n      swap1\n      swap2\n      sstore\n        /* \"Documents/GitHub/Store-system-with-feedback/main.sol\":5561:5580  structStatusReturns */\n      0x0b\n        /* \"Documents/GitHub/Store-system-with-feedback/main.sol\":5561:5604  structStatusReturns[idMarriageRegistration] */\n      dup1\n      sload\n        /* \"Documents/GitHub/Store-system-with-feedback/main.sol\":5581:5603  idMarriageRegistration */\n      dup5\n      swap1\n        /* \"Documents/GitHub/Store-system-with-feedback/main.sol\":5561:5604  structStatusReturns[idMarriageRegistration] */\n      dup2\n      lt\n      tag_137\n      jumpi\n      tag_137\n      tag_114\n      jump\t// in\n    tag_147:\n      dup3\n      dup1\n      sload\n      tag_347\n      swap1\n      tag_156\n      jump\t// in\n    tag_347:\n      swap1\n      0x00\n      mstore\n      keccak256(0x00, 0x20)\n      swap1\n      0x1f\n      add\n      0x20\n      swap1\n      div\n      dup2\n      add\n      swap3\n      dup3\n      tag_349\n      jumpi\n      0x00\n      dup6\n      sstore\n      jump(tag_352)\n    tag_349:\n      dup3\n      0x1f\n      lt\n      tag_350\n      jumpi\n      dup1\n      mload\n      not(0xff)\n      and\n      dup4\n      dup1\n      add\n      or\n      dup6\n      sstore\n      jump(tag_352)\n    tag_350:\n      dup3\n      dup1\n      add\n      0x01\n      add\n      dup6\n      sstore\n      dup3\n      iszero\n      tag_352\n      jumpi\n      swap2\n      dup3\n      add\n    tag_351:\n      dup3\n      dup2\n      gt\n      iszero\n      tag_352\n      jumpi\n      dup3\n      mload\n      dup3\n      sstore\n      swap2\n      0x20\n      add\n      swap2\n      swap1\n      0x01\n      add\n      swap1\n      jump(tag_351)\n    tag_352:\n      pop\n      tag_353\n      swap3\n      swap2\n      pop\n      tag_354\n      jump\t// in\n    tag_353:\n      pop\n      swap1\n      jump\t// out\n    tag_168:\n      dup3\n      dup1\n      sload\n      dup3\n      dup3\n      sstore\n      swap1\n      0x00\n      mstore\n      keccak256(0x00, 0x20)\n      swap1\n      dup2\n      add\n      swap3\n      dup3\n      iszero\n      tag_357\n      jumpi\n      swap2\n      0x20\n      mul\n      dup3\n      add\n    tag_356:\n      dup3\n      dup2\n      gt\n      iszero\n      tag_357\n      jumpi\n      dup3\n      mload\n      dup1\n      mload\n      tag_358\n      swap2\n      dup5\n      swap2\n      0x20\n      swap1\n      swap2\n      add\n      swap1\n      tag_147\n      jump\t// in\n    tag_358:\n      pop\n      swap2\n      0x20\n      add\n      swap2\n      swap1\n      0x01\n      add\n      swap1\n      jump(tag_356)\n    tag_357:\n      pop\n      tag_353\n      swap3\n      swap2\n      pop\n      tag_360\n      jump\t// in\n    tag_354:\n    tag_361:\n      dup1\n      dup3\n      gt\n      iszero\n      tag_353\n      jumpi\n      0x00\n      dup2\n      sstore\n      0x01\n      add\n      jump(tag_361)\n    tag_360:\n      dup1\n      dup3\n      gt\n      iszero\n      tag_353\n      jumpi\n      0x00\n      tag_365\n      dup3\n      dup3\n      tag_366\n      jump\t// in\n    tag_365:\n      pop\n      0x01\n      add\n      jump(tag_360)\n    tag_366:\n      pop\n      dup1\n      sload\n      tag_367\n      swap1\n      tag_156\n      jump\t// in\n    tag_367:\n      0x00\n      dup3\n      sstore\n      dup1\n      0x1f\n      lt\n      tag_369\n      jumpi\n      pop\n      pop\n      jump\t// out\n    tag_369:\n      0x1f\n      add\n      0x20\n      swap1\n      div\n      swap1\n      0x00\n      mstore\n      keccak256(0x00, 0x20)\n      swap1\n      dup2\n      add\n      swap1\n      tag_370\n      swap2\n      swap1\n      tag_354\n      jump\t// in\n    tag_370:\n      pop\n      jump\t// out\n        /* \"#utility.yul\":14:187   */\n    tag_372:\n        /* \"#utility.yul\":82:102   */\n      dup1\n      calldataload\n      sub(shl(0xa0, 0x01), 0x01)\n        /* \"#utility.yul\":131:162   */\n      dup2\n      and\n        /* \"#utility.yul\":121:163   */\n      dup2\n      eq\n        /* \"#utility.yul\":111:181   */\n      tag_374\n      jumpi\n        /* \"#utility.yul\":177:178   */\n      0x00\n        /* \"#utility.yul\":174:175   */\n      dup1\n        /* \"#utility.yul\":167:179   */\n      revert\n        /* \"#utility.yul\":111:181   */\n    tag_374:\n        /* \"#utility.yul\":14:187   */\n      swap2\n      swap1\n      pop\n      jump\t// out\n        /* \"#utility.yul\":192:723   */\n    tag_375:\n        /* \"#utility.yul\":235:240   */\n      0x00\n        /* \"#utility.yul\":288:291   */\n      dup3\n        /* \"#utility.yul\":281:285   */\n      0x1f\n        /* \"#utility.yul\":273:279   */\n      dup4\n        /* \"#utility.yul\":269:286   */\n      add\n        /* \"#utility.yul\":265:292   */\n      slt\n        /* \"#utility.yul\":255:310   */\n      tag_377\n      jumpi\n        /* \"#utility.yul\":306:307   */\n      0x00\n        /* \"#utility.yul\":303:304   */\n      dup1\n        /* \"#utility.yul\":296:308   */\n      revert\n        /* \"#utility.yul\":255:310   */\n    tag_377:\n        /* \"#utility.yul\":329:349   */\n      dup2\n      calldataload\n      sub(shl(0x40, 0x01), 0x01)\n        /* \"#utility.yul\":361:387   */\n      dup2\n      gt\n        /* \"#utility.yul\":358:410   */\n      iszero\n      tag_379\n      jumpi\n        /* \"#utility.yul\":390:408   */\n      tag_379\n      tag_380\n      jump\t// in\n    tag_379:\n        /* \"#utility.yul\":434:489   */\n      tag_381\n        /* \"#utility.yul\":477:479   */\n      0x1f\n        /* \"#utility.yul\":458:471   */\n      dup3\n      add\n      not(0x1f)\n        /* \"#utility.yul\":454:481   */\n      and\n        /* \"#utility.yul\":483:487   */\n      0x20\n        /* \"#utility.yul\":450:488   */\n      add\n        /* \"#utility.yul\":434:489   */\n      tag_382\n      jump\t// in\n    tag_381:\n        /* \"#utility.yul\":514:516   */\n      dup2\n        /* \"#utility.yul\":505:512   */\n      dup2\n        /* \"#utility.yul\":498:517   */\n      mstore\n        /* \"#utility.yul\":560:563   */\n      dup5\n        /* \"#utility.yul\":553:557   */\n      0x20\n        /* \"#utility.yul\":548:550   */\n      dup4\n        /* \"#utility.yul\":540:546   */\n      dup7\n        /* \"#utility.yul\":536:551   */\n      add\n        /* \"#utility.yul\":532:558   */\n      add\n        /* \"#utility.yul\":529:564   */\n      gt\n        /* \"#utility.yul\":526:581   */\n      iszero\n      tag_383\n      jumpi\n        /* \"#utility.yul\":577:578   */\n      0x00\n        /* \"#utility.yul\":574:575   */\n      dup1\n        /* \"#utility.yul\":567:579   */\n      revert\n        /* \"#utility.yul\":526:581   */\n    tag_383:\n        /* \"#utility.yul\":642:644   */\n      dup2\n        /* \"#utility.yul\":635:639   */\n      0x20\n        /* \"#utility.yul\":627:633   */\n      dup6\n        /* \"#utility.yul\":623:640   */\n      add\n        /* \"#utility.yul\":616:620   */\n      0x20\n        /* \"#utility.yul\":607:614   */\n      dup4\n        /* \"#utility.yul\":603:621   */\n      add\n        /* \"#utility.yul\":590:645   */\n      calldatacopy\n        /* \"#utility.yul\":690:691   */\n      0x00\n        /* \"#utility.yul\":665:681   */\n      swap2\n      dup2\n      add\n        /* \"#utility.yul\":683:687   */\n      0x20\n        /* \"#utility.yul\":661:688   */\n      add\n        /* \"#utility.yul\":654:692   */\n      swap2\n      swap1\n      swap2\n      mstore\n        /* \"#utility.yul\":669:676   */\n      swap4\n        /* \"#utility.yul\":192:723   */\n      swap3\n      pop\n      pop\n      pop\n      jump\t// out\n        /* \"#utility.yul\":728:914   */\n    tag_67:\n        /* \"#utility.yul\":787:793   */\n      0x00\n        /* \"#utility.yul\":840:842   */\n      0x20\n        /* \"#utility.yul\":828:837   */\n      dup3\n        /* \"#utility.yul\":819:826   */\n      dup5\n        /* \"#utility.yul\":815:838   */\n      sub\n        /* \"#utility.yul\":811:843   */\n      slt\n        /* \"#utility.yul\":808:860   */\n      iszero\n      tag_385\n      jumpi\n        /* \"#utility.yul\":856:857   */\n      0x00\n        /* \"#utility.yul\":853:854   */\n      dup1\n        /* \"#utility.yul\":846:858   */\n      revert\n        /* \"#utility.yul\":808:860   */\n    tag_385:\n        /* \"#utility.yul\":879:908   */\n      tag_386\n        /* \"#utility.yul\":898:907   */\n      dup3\n        /* \"#utility.yul\":879:908   */\n      tag_372\n      jump\t// in\n    tag_386:\n        /* \"#utility.yul\":869:908   */\n      swap4\n        /* \"#utility.yul\":728:914   */\n      swap3\n      pop\n      pop\n      pop\n      jump\t// out\n        /* \"#utility.yul\":919:1383   */\n    tag_105:\n        /* \"#utility.yul\":1006:1012   */\n      0x00\n        /* \"#utility.yul\":1014:1020   */\n      dup1\n        /* \"#utility.yul\":1022:1028   */\n      0x00\n        /* \"#utility.yul\":1075:1077   */\n      0x60\n        /* \"#utility.yul\":1063:1072   */\n      dup5\n        /* \"#utility.yul\":1054:1061   */\n      dup7\n        /* \"#utility.yul\":1050:1073   */\n      sub\n        /* \"#utility.yul\":1046:1078   */\n      slt\n        /* \"#utility.yul\":1043:1095   */\n      iszero\n      tag_388\n      jumpi\n        /* \"#utility.yul\":1091:1092   */\n      0x00\n        /* \"#utility.yul\":1088:1089   */\n      dup1\n        /* \"#utility.yul\":1081:1093   */\n      revert\n        /* \"#utility.yul\":1043:1095   */\n    tag_388:\n        /* \"#utility.yul\":1114:1143   */\n      tag_389\n        /* \"#utility.yul\":1133:1142   */\n      dup5\n        /* \"#utility.yul\":1114:1143   */\n      tag_372\n      jump\t// in\n    tag_389:\n        /* \"#utility.yul\":1104:1143   */\n      swap3\n      pop\n        /* \"#utility.yul\":1194:1196   */\n      0x20\n        /* \"#utility.yul\":1179:1197   */\n      dup5\n      add\n        /* \"#utility.yul\":1166:1198   */\n      calldataload\n      sub(shl(0x40, 0x01), 0x01)\n        /* \"#utility.yul\":1210:1240   */\n      dup2\n      gt\n        /* \"#utility.yul\":1207:1257   */\n      iszero\n      tag_390\n      jumpi\n        /* \"#utility.yul\":1253:1254   */\n      0x00\n        /* \"#utility.yul\":1250:1251   */\n      dup1\n        /* \"#utility.yul\":1243:1255   */\n      revert\n        /* \"#utility.yul\":1207:1257   */\n    tag_390:\n        /* \"#utility.yul\":1276:1326   */\n      tag_391\n        /* \"#utility.yul\":1318:1325   */\n      dup7\n        /* \"#utility.yul\":1309:1315   */\n      dup3\n        /* \"#utility.yul\":1298:1307   */\n      dup8\n        /* \"#utility.yul\":1294:1316   */\n      add\n        /* \"#utility.yul\":1276:1326   */\n      tag_375\n      jump\t// in\n    tag_391:\n        /* \"#utility.yul\":1266:1326   */\n      swap3\n      pop\n      pop\n        /* \"#utility.yul\":1373:1375   */\n      0x40\n        /* \"#utility.yul\":1362:1371   */\n      dup5\n        /* \"#utility.yul\":1358:1376   */\n      add\n        /* \"#utility.yul\":1345:1377   */\n      calldataload\n        /* \"#utility.yul\":1335:1377   */\n      swap1\n      pop\n        /* \"#utility.yul\":919:1383   */\n      swap3\n      pop\n      swap3\n      pop\n      swap3\n      jump\t// out\n        /* \"#utility.yul\":1388:1710   */\n    tag_30:\n        /* \"#utility.yul\":1457:1463   */\n      0x00\n        /* \"#utility.yul\":1510:1512   */\n      0x20\n        /* \"#utility.yul\":1498:1507   */\n      dup3\n        /* \"#utility.yul\":1489:1496   */\n      dup5\n        /* \"#utility.yul\":1485:1508   */\n      sub\n        /* \"#utility.yul\":1481:1513   */\n      slt\n        /* \"#utility.yul\":1478:1530   */\n      iszero\n      tag_393\n      jumpi\n        /* \"#utility.yul\":1526:1527   */\n      0x00\n        /* \"#utility.yul\":1523:1524   */\n      dup1\n        /* \"#utility.yul\":1516:1528   */\n      revert\n        /* \"#utility.yul\":1478:1530   */\n    tag_393:\n        /* \"#utility.yul\":1553:1576   */\n      dup2\n      calldataload\n      sub(shl(0x40, 0x01), 0x01)\n        /* \"#utility.yul\":1588:1618   */\n      dup2\n      gt\n        /* \"#utility.yul\":1585:1635   */\n      iszero\n      tag_394\n      jumpi\n        /* \"#utility.yul\":1631:1632   */\n      0x00\n        /* \"#utility.yul\":1628:1629   */\n      dup1\n        /* \"#utility.yul\":1621:1633   */\n      revert\n        /* \"#utility.yul\":1585:1635   */\n    tag_394:\n        /* \"#utility.yul\":1654:1704   */\n      tag_255\n        /* \"#utility.yul\":1696:1703   */\n      dup5\n        /* \"#utility.yul\":1687:1693   */\n      dup3\n        /* \"#utility.yul\":1676:1685   */\n      dup6\n        /* \"#utility.yul\":1672:1694   */\n      add\n        /* \"#utility.yul\":1654:1704   */\n      tag_375\n      jump\t// in\n        /* \"#utility.yul\":1715:3050   */\n    tag_39:\n        /* \"#utility.yul\":1828:1834   */\n      0x00\n        /* \"#utility.yul\":1836:1842   */\n      dup1\n        /* \"#utility.yul\":1889:1891   */\n      0x40\n        /* \"#utility.yul\":1877:1886   */\n      dup4\n        /* \"#utility.yul\":1868:1875   */\n      dup6\n        /* \"#utility.yul\":1864:1887   */\n      sub\n        /* \"#utility.yul\":1860:1892   */\n      slt\n        /* \"#utility.yul\":1857:1909   */\n      iszero\n      tag_397\n      jumpi\n        /* \"#utility.yul\":1905:1906   */\n      0x00\n        /* \"#utility.yul\":1902:1903   */\n      dup1\n        /* \"#utility.yul\":1895:1907   */\n      revert\n        /* \"#utility.yul\":1857:1909   */\n    tag_397:\n        /* \"#utility.yul\":1932:1955   */\n      dup3\n      calldataload\n      sub(shl(0x40, 0x01), 0x01)\n        /* \"#utility.yul\":2004:2018   */\n      dup1\n      dup3\n      gt\n        /* \"#utility.yul\":2001:2035   */\n      iszero\n      tag_398\n      jumpi\n        /* \"#utility.yul\":2031:2032   */\n      0x00\n        /* \"#utility.yul\":2028:2029   */\n      dup1\n        /* \"#utility.yul\":2021:2033   */\n      revert\n        /* \"#utility.yul\":2001:2035   */\n    tag_398:\n        /* \"#utility.yul\":2054:2104   */\n      tag_399\n        /* \"#utility.yul\":2096:2103   */\n      dup7\n        /* \"#utility.yul\":2087:2093   */\n      dup4\n        /* \"#utility.yul\":2076:2085   */\n      dup8\n        /* \"#utility.yul\":2072:2094   */\n      add\n        /* \"#utility.yul\":2054:2104   */\n      tag_375\n      jump\t// in\n    tag_399:\n        /* \"#utility.yul\":2044:2104   */\n      swap4\n      pop\n        /* \"#utility.yul\":2123:2125   */\n      0x20\n        /* \"#utility.yul\":2113:2125   */\n      swap2\n      pop\n        /* \"#utility.yul\":2178:2180   */\n      dup2\n        /* \"#utility.yul\":2167:2176   */\n      dup6\n        /* \"#utility.yul\":2163:2181   */\n      add\n        /* \"#utility.yul\":2150:2182   */\n      calldataload\n        /* \"#utility.yul\":2207:2209   */\n      dup2\n        /* \"#utility.yul\":2197:2205   */\n      dup2\n        /* \"#utility.yul\":2194:2210   */\n      gt\n        /* \"#utility.yul\":2191:2227   */\n      iszero\n      tag_400\n      jumpi\n        /* \"#utility.yul\":2223:2224   */\n      0x00\n        /* \"#utility.yul\":2220:2221   */\n      dup1\n        /* \"#utility.yul\":2213:2225   */\n      revert\n        /* \"#utility.yul\":2191:2227   */\n    tag_400:\n        /* \"#utility.yul\":2246:2270   */\n      dup6\n      add\n        /* \"#utility.yul\":2301:2305   */\n      0x1f\n        /* \"#utility.yul\":2293:2306   */\n      dup2\n      add\n        /* \"#utility.yul\":2289:2316   */\n      dup8\n      sgt\n        /* \"#utility.yul\":2279:2334   */\n      tag_401\n      jumpi\n        /* \"#utility.yul\":2330:2331   */\n      0x00\n        /* \"#utility.yul\":2327:2328   */\n      dup1\n        /* \"#utility.yul\":2320:2332   */\n      revert\n        /* \"#utility.yul\":2279:2334   */\n    tag_401:\n        /* \"#utility.yul\":2366:2368   */\n      dup1\n        /* \"#utility.yul\":2353:2369   */\n      calldataload\n        /* \"#utility.yul\":2388:2390   */\n      dup3\n        /* \"#utility.yul\":2384:2386   */\n      dup2\n        /* \"#utility.yul\":2381:2391   */\n      gt\n        /* \"#utility.yul\":2378:2414   */\n      iszero\n      tag_403\n      jumpi\n        /* \"#utility.yul\":2394:2412   */\n      tag_403\n      tag_380\n      jump\t// in\n    tag_403:\n        /* \"#utility.yul\":2440:2442   */\n      dup1\n        /* \"#utility.yul\":2437:2438   */\n      0x05\n        /* \"#utility.yul\":2433:2443   */\n      shl\n        /* \"#utility.yul\":2463:2491   */\n      tag_404\n        /* \"#utility.yul\":2487:2489   */\n      dup6\n        /* \"#utility.yul\":2483:2485   */\n      dup3\n        /* \"#utility.yul\":2479:2490   */\n      add\n        /* \"#utility.yul\":2463:2491   */\n      tag_382\n      jump\t// in\n    tag_404:\n        /* \"#utility.yul\":2525:2540   */\n      dup3\n      dup2\n      mstore\n        /* \"#utility.yul\":2556:2568   */\n      dup6\n      dup2\n      add\n      swap1\n        /* \"#utility.yul\":2588:2599   */\n      dup5\n      dup8\n      add\n        /* \"#utility.yul\":2618:2629   */\n      dup4\n      dup7\n      add\n        /* \"#utility.yul\":2614:2634   */\n      dup9\n      add\n        /* \"#utility.yul\":2611:2644   */\n      dup13\n      lt\n        /* \"#utility.yul\":2608:2661   */\n      iszero\n      tag_405\n      jumpi\n        /* \"#utility.yul\":2657:2658   */\n      0x00\n        /* \"#utility.yul\":2654:2655   */\n      dup1\n        /* \"#utility.yul\":2647:2659   */\n      revert\n        /* \"#utility.yul\":2608:2661   */\n    tag_405:\n        /* \"#utility.yul\":2679:2680   */\n      0x00\n        /* \"#utility.yul\":2670:2680   */\n      swap4\n      pop\n        /* \"#utility.yul\":2700:2701   */\n      dup4\n        /* \"#utility.yul\":2710:3020   */\n    tag_406:\n        /* \"#utility.yul\":2726:2728   */\n      dup6\n        /* \"#utility.yul\":2721:2724   */\n      dup2\n        /* \"#utility.yul\":2718:2729   */\n      lt\n        /* \"#utility.yul\":2710:3020   */\n      iszero\n      tag_408\n      jumpi\n        /* \"#utility.yul\":2807:2810   */\n      dup2\n        /* \"#utility.yul\":2794:2811   */\n      calldataload\n        /* \"#utility.yul\":2843:2845   */\n      dup9\n        /* \"#utility.yul\":2830:2841   */\n      dup2\n        /* \"#utility.yul\":2827:2846   */\n      gt\n        /* \"#utility.yul\":2824:2863   */\n      iszero\n      tag_409\n      jumpi\n        /* \"#utility.yul\":2859:2860   */\n      dup6\n        /* \"#utility.yul\":2856:2857   */\n      dup7\n        /* \"#utility.yul\":2849:2861   */\n      revert\n        /* \"#utility.yul\":2824:2863   */\n    tag_409:\n        /* \"#utility.yul\":2888:2945   */\n      tag_410\n        /* \"#utility.yul\":2937:2944   */\n      dup15\n        /* \"#utility.yul\":2932:2934   */\n      dup12\n        /* \"#utility.yul\":2918:2929   */\n      dup4\n        /* \"#utility.yul\":2914:2916   */\n      dup12\n        /* \"#utility.yul\":2910:2930   */\n      add\n        /* \"#utility.yul\":2906:2935   */\n      add\n        /* \"#utility.yul\":2888:2945   */\n      tag_375\n      jump\t// in\n    tag_410:\n        /* \"#utility.yul\":2876:2946   */\n      dup6\n      mstore\n      pop\n        /* \"#utility.yul\":2966:2978   */\n      swap3\n      dup9\n      add\n      swap3\n        /* \"#utility.yul\":2998:3010   */\n      swap1\n      dup9\n      add\n      swap1\n        /* \"#utility.yul\":2748:2749   */\n      0x01\n        /* \"#utility.yul\":2739:2750   */\n      add\n        /* \"#utility.yul\":2710:3020   */\n      jump(tag_406)\n    tag_408:\n      pop\n        /* \"#utility.yul\":1715:3050   */\n      swap9\n      swap12\n        /* \"#utility.yul\":3039:3044   */\n      swap1\n      swap11\n      pop\n        /* \"#utility.yul\":1715:3050   */\n      swap9\n      pop\n      pop\n      pop\n      pop\n      pop\n      pop\n      pop\n      pop\n      pop\n      jump\t// out\n        /* \"#utility.yul\":3055:3666   */\n    tag_92:\n        /* \"#utility.yul\":3152:3158   */\n      0x00\n        /* \"#utility.yul\":3160:3166   */\n      dup1\n        /* \"#utility.yul\":3168:3174   */\n      0x00\n        /* \"#utility.yul\":3221:3223   */\n      0x60\n        /* \"#utility.yul\":3209:3218   */\n      dup5\n        /* \"#utility.yul\":3200:3207   */\n      dup7\n        /* \"#utility.yul\":3196:3219   */\n      sub\n        /* \"#utility.yul\":3192:3224   */\n      slt\n        /* \"#utility.yul\":3189:3241   */\n      iszero\n      tag_412\n      jumpi\n        /* \"#utility.yul\":3237:3238   */\n      0x00\n        /* \"#utility.yul\":3234:3235   */\n      dup1\n        /* \"#utility.yul\":3227:3239   */\n      revert\n        /* \"#utility.yul\":3189:3241   */\n    tag_412:\n        /* \"#utility.yul\":3264:3287   */\n      dup4\n      calldataload\n      sub(shl(0x40, 0x01), 0x01)\n        /* \"#utility.yul\":3336:3350   */\n      dup1\n      dup3\n      gt\n        /* \"#utility.yul\":3333:3367   */\n      iszero\n      tag_413\n      jumpi\n        /* \"#utility.yul\":3363:3364   */\n      0x00\n        /* \"#utility.yul\":3360:3361   */\n      dup1\n        /* \"#utility.yul\":3353:3365   */\n      revert\n        /* \"#utility.yul\":3333:3367   */\n    tag_413:\n        /* \"#utility.yul\":3386:3436   */\n      tag_414\n        /* \"#utility.yul\":3428:3435   */\n      dup8\n        /* \"#utility.yul\":3419:3425   */\n      dup4\n        /* \"#utility.yul\":3408:3417   */\n      dup9\n        /* \"#utility.yul\":3404:3426   */\n      add\n        /* \"#utility.yul\":3386:3436   */\n      tag_375\n      jump\t// in\n    tag_414:\n        /* \"#utility.yul\":3376:3436   */\n      swap5\n      pop\n        /* \"#utility.yul\":3489:3491   */\n      0x20\n        /* \"#utility.yul\":3478:3487   */\n      dup7\n        /* \"#utility.yul\":3474:3492   */\n      add\n        /* \"#utility.yul\":3461:3493   */\n      calldataload\n        /* \"#utility.yul\":3445:3493   */\n      swap2\n      pop\n        /* \"#utility.yul\":3518:3520   */\n      dup1\n        /* \"#utility.yul\":3508:3516   */\n      dup3\n        /* \"#utility.yul\":3505:3521   */\n      gt\n        /* \"#utility.yul\":3502:3538   */\n      iszero\n      tag_415\n      jumpi\n        /* \"#utility.yul\":3534:3535   */\n      0x00\n        /* \"#utility.yul\":3531:3532   */\n      dup1\n        /* \"#utility.yul\":3524:3536   */\n      revert\n        /* \"#utility.yul\":3502:3538   */\n    tag_415:\n      pop\n        /* \"#utility.yul\":3557:3609   */\n      tag_391\n        /* \"#utility.yul\":3601:3608   */\n      dup7\n        /* \"#utility.yul\":3590:3598   */\n      dup3\n        /* \"#utility.yul\":3579:3588   */\n      dup8\n        /* \"#utility.yul\":3575:3599   */\n      add\n        /* \"#utility.yul\":3557:3609   */\n      tag_375\n      jump\t// in\n        /* \"#utility.yul\":3671:4282   */\n    tag_57:\n        /* \"#utility.yul\":3768:3774   */\n      0x00\n        /* \"#utility.yul\":3776:3782   */\n      dup1\n        /* \"#utility.yul\":3784:3790   */\n      0x00\n        /* \"#utility.yul\":3837:3839   */\n      0x60\n        /* \"#utility.yul\":3825:3834   */\n      dup5\n        /* \"#utility.yul\":3816:3823   */\n      dup7\n        /* \"#utility.yul\":3812:3835   */\n      sub\n        /* \"#utility.yul\":3808:3840   */\n      slt\n        /* \"#utility.yul\":3805:3857   */\n      iszero\n      tag_418\n      jumpi\n        /* \"#utility.yul\":3853:3854   */\n      0x00\n        /* \"#utility.yul\":3850:3851   */\n      dup1\n        /* \"#utility.yul\":3843:3855   */\n      revert\n        /* \"#utility.yul\":3805:3857   */\n    tag_418:\n        /* \"#utility.yul\":3880:3903   */\n      dup4\n      calldataload\n      sub(shl(0x40, 0x01), 0x01)\n        /* \"#utility.yul\":3952:3966   */\n      dup1\n      dup3\n      gt\n        /* \"#utility.yul\":3949:3983   */\n      iszero\n      tag_419\n      jumpi\n        /* \"#utility.yul\":3979:3980   */\n      0x00\n        /* \"#utility.yul\":3976:3977   */\n      dup1\n        /* \"#utility.yul\":3969:3981   */\n      revert\n        /* \"#utility.yul\":3949:3983   */\n    tag_419:\n        /* \"#utility.yul\":4002:4052   */\n      tag_420\n        /* \"#utility.yul\":4044:4051   */\n      dup8\n        /* \"#utility.yul\":4035:4041   */\n      dup4\n        /* \"#utility.yul\":4024:4033   */\n      dup9\n        /* \"#utility.yul\":4020:4042   */\n      add\n        /* \"#utility.yul\":4002:4052   */\n      tag_375\n      jump\t// in\n    tag_420:\n        /* \"#utility.yul\":3992:4052   */\n      swap5\n      pop\n        /* \"#utility.yul\":4099:4101   */\n      0x20\n        /* \"#utility.yul\":4088:4097   */\n      dup7\n        /* \"#utility.yul\":4084:4102   */\n      add\n        /* \"#utility.yul\":4071:4103   */\n      calldataload\n        /* \"#utility.yul\":4061:4103   */\n      swap4\n      pop\n        /* \"#utility.yul\":4156:4158   */\n      0x40\n        /* \"#utility.yul\":4145:4154   */\n      dup7\n        /* \"#utility.yul\":4141:4159   */\n      add\n        /* \"#utility.yul\":4128:4160   */\n      calldataload\n        /* \"#utility.yul\":4112:4160   */\n      swap2\n      pop\n        /* \"#utility.yul\":4185:4187   */\n      dup1\n        /* \"#utility.yul\":4175:4183   */\n      dup3\n        /* \"#utility.yul\":4172:4188   */\n      gt\n        /* \"#utility.yul\":4169:4205   */\n      iszero\n      tag_421\n      jumpi\n        /* \"#utility.yul\":4201:4202   */\n      0x00\n        /* \"#utility.yul\":4198:4199   */\n      dup1\n        /* \"#utility.yul\":4191:4203   */\n      revert\n        /* \"#utility.yul\":4169:4205   */\n    tag_421:\n      pop\n        /* \"#utility.yul\":4224:4276   */\n      tag_422\n        /* \"#utility.yul\":4268:4275   */\n      dup7\n        /* \"#utility.yul\":4257:4265   */\n      dup3\n        /* \"#utility.yul\":4246:4255   */\n      dup8\n        /* \"#utility.yul\":4242:4266   */\n      add\n        /* \"#utility.yul\":4224:4276   */\n      tag_375\n      jump\t// in\n    tag_422:\n        /* \"#utility.yul\":4214:4276   */\n      swap2\n      pop\n      pop\n        /* \"#utility.yul\":3671:4282   */\n      swap3\n      pop\n      swap3\n      pop\n      swap3\n      jump\t// out\n        /* \"#utility.yul\":4287:4467   */\n    tag_61:\n        /* \"#utility.yul\":4346:4352   */\n      0x00\n        /* \"#utility.yul\":4399:4401   */\n      0x20\n        /* \"#utility.yul\":4387:4396   */\n      dup3\n        /* \"#utility.yul\":4378:4385   */\n      dup5\n        /* \"#utility.yul\":4374:4397   */\n      sub\n        /* \"#utility.yul\":4370:4402   */\n      slt\n        /* \"#utility.yul\":4367:4419   */\n      iszero\n      tag_424\n      jumpi\n        /* \"#utility.yul\":4415:4416   */\n      0x00\n        /* \"#utility.yul\":4412:4413   */\n      dup1\n        /* \"#utility.yul\":4405:4417   */\n      revert\n        /* \"#utility.yul\":4367:4419   */\n    tag_424:\n      pop\n        /* \"#utility.yul\":4438:4461   */\n      calldataload\n      swap2\n        /* \"#utility.yul\":4287:4467   */\n      swap1\n      pop\n      jump\t// out\n        /* \"#utility.yul\":4472:4813   */\n    tag_26:\n        /* \"#utility.yul\":4537:4543   */\n      0x00\n        /* \"#utility.yul\":4545:4551   */\n      dup1\n        /* \"#utility.yul\":4598:4600   */\n      0x40\n        /* \"#utility.yul\":4586:4595   */\n      dup4\n        /* \"#utility.yul\":4577:4584   */\n      dup6\n        /* \"#utility.yul\":4573:4596   */\n      sub\n        /* \"#utility.yul\":4569:4601   */\n      slt\n        /* \"#utility.yul\":4566:4618   */\n      iszero\n      tag_426\n      jumpi\n        /* \"#utility.yul\":4614:4615   */\n      0x00\n        /* \"#utility.yul\":4611:4612   */\n      dup1\n        /* \"#utility.yul\":4604:4616   */\n      revert\n        /* \"#utility.yul\":4566:4618   */\n    tag_426:\n        /* \"#utility.yul\":4650:4659   */\n      dup3\n        /* \"#utility.yul\":4637:4660   */\n      calldataload\n        /* \"#utility.yul\":4627:4660   */\n      swap2\n      pop\n        /* \"#utility.yul\":4710:4712   */\n      0x20\n        /* \"#utility.yul\":4699:4708   */\n      dup4\n        /* \"#utility.yul\":4695:4713   */\n      add\n        /* \"#utility.yul\":4682:4714   */\n      calldataload\n        /* \"#utility.yul\":4757:4762   */\n      dup1\n        /* \"#utility.yul\":4750:4763   */\n      iszero\n        /* \"#utility.yul\":4743:4764   */\n      iszero\n        /* \"#utility.yul\":4736:4741   */\n      dup2\n        /* \"#utility.yul\":4733:4765   */\n      eq\n        /* \"#utility.yul\":4723:4783   */\n      tag_427\n      jumpi\n        /* \"#utility.yul\":4779:4780   */\n      0x00\n        /* \"#utility.yul\":4776:4777   */\n      dup1\n        /* \"#utility.yul\":4769:4781   */\n      revert\n        /* \"#utility.yul\":4723:4783   */\n    tag_427:\n        /* \"#utility.yul\":4802:4807   */\n      dup1\n        /* \"#utility.yul\":4792:4807   */\n      swap2\n      pop\n      pop\n        /* \"#utility.yul\":4472:4813   */\n      swap3\n      pop\n      swap3\n      swap1\n      pop\n      jump\t// out\n        /* \"#utility.yul\":4818:5076   */\n    tag_428:\n        /* \"#utility.yul\":4860:4863   */\n      0x00\n        /* \"#utility.yul\":4898:4903   */\n      dup2\n        /* \"#utility.yul\":4892:4904   */\n      mload\n        /* \"#utility.yul\":4925:4931   */\n      dup1\n        /* \"#utility.yul\":4920:4923   */\n      dup5\n        /* \"#utility.yul\":4913:4932   */\n      mstore\n        /* \"#utility.yul\":4941:5004   */\n      tag_430\n        /* \"#utility.yul\":4997:5003   */\n      dup2\n        /* \"#utility.yul\":4990:4994   */\n      0x20\n        /* \"#utility.yul\":4985:4988   */\n      dup7\n        /* \"#utility.yul\":4981:4995   */\n      add\n        /* \"#utility.yul\":4974:4978   */\n      0x20\n        /* \"#utility.yul\":4967:4972   */\n      dup7\n        /* \"#utility.yul\":4963:4979   */\n      add\n        /* \"#utility.yul\":4941:5004   */\n      tag_431\n      jump\t// in\n    tag_430:\n        /* \"#utility.yul\":5058:5060   */\n      0x1f\n        /* \"#utility.yul\":5037:5052   */\n      add\n      not(0x1f)\n        /* \"#utility.yul\":5033:5062   */\n      and\n        /* \"#utility.yul\":5024:5063   */\n      swap3\n      swap1\n      swap3\n      add\n        /* \"#utility.yul\":5065:5069   */\n      0x20\n        /* \"#utility.yul\":5020:5070   */\n      add\n      swap3\n        /* \"#utility.yul\":4818:5076   */\n      swap2\n      pop\n      pop\n      jump\t// out\n        /* \"#utility.yul\":5081:5357   */\n    tag_141:\n        /* \"#utility.yul\":5212:5215   */\n      0x00\n        /* \"#utility.yul\":5250:5256   */\n      dup3\n        /* \"#utility.yul\":5244:5257   */\n      mload\n        /* \"#utility.yul\":5266:5319   */\n      tag_433\n        /* \"#utility.yul\":5312:5318   */\n      dup2\n        /* \"#utility.yul\":5307:5310   */\n      dup5\n        /* \"#utility.yul\":5300:5304   */\n      0x20\n        /* \"#utility.yul\":5292:5298   */\n      dup8\n        /* \"#utility.yul\":5288:5305   */\n      add\n        /* \"#utility.yul\":5266:5319   */\n      tag_431\n      jump\t// in\n    tag_433:\n        /* \"#utility.yul\":5335:5351   */\n      swap2\n      swap1\n      swap2\n      add\n      swap3\n        /* \"#utility.yul\":5081:5357   */\n      swap2\n      pop\n      pop\n      jump\t// out\n        /* \"#utility.yul\":5362:6461   */\n    tag_120:\n        /* \"#utility.yul\":5490:5493   */\n      0x00\n        /* \"#utility.yul\":5519:5520   */\n      dup1\n        /* \"#utility.yul\":5552:5558   */\n      dup4\n        /* \"#utility.yul\":5546:5559   */\n      sload\n        /* \"#utility.yul\":5582:5585   */\n      dup2\n        /* \"#utility.yul\":5604:5605   */\n      0x01\n        /* \"#utility.yul\":5632:5641   */\n      dup3\n        /* \"#utility.yul\":5628:5630   */\n      dup2\n        /* \"#utility.yul\":5624:5642   */\n      shr\n        /* \"#utility.yul\":5614:5642   */\n      swap2\n      pop\n        /* \"#utility.yul\":5692:5694   */\n      dup1\n        /* \"#utility.yul\":5681:5690   */\n      dup4\n        /* \"#utility.yul\":5677:5695   */\n      and\n        /* \"#utility.yul\":5714:5732   */\n      dup1\n        /* \"#utility.yul\":5704:5765   */\n      tag_435\n      jumpi\n        /* \"#utility.yul\":5758:5762   */\n      0x7f\n        /* \"#utility.yul\":5750:5756   */\n      dup4\n        /* \"#utility.yul\":5746:5763   */\n      and\n        /* \"#utility.yul\":5736:5763   */\n      swap3\n      pop\n        /* \"#utility.yul\":5704:5765   */\n    tag_435:\n        /* \"#utility.yul\":5784:5786   */\n      0x20\n        /* \"#utility.yul\":5832:5834   */\n      dup1\n        /* \"#utility.yul\":5824:5830   */\n      dup5\n        /* \"#utility.yul\":5821:5835   */\n      lt\n        /* \"#utility.yul\":5801:5819   */\n      dup3\n        /* \"#utility.yul\":5798:5836   */\n      eq\n        /* \"#utility.yul\":5795:5960   */\n      iszero\n      tag_436\n      jumpi\n      shl(0xe0, 0x4e487b71)\n        /* \"#utility.yul\":5859:5892   */\n      dup7\n      mstore\n        /* \"#utility.yul\":5915:5919   */\n      0x22\n        /* \"#utility.yul\":5912:5913   */\n      0x04\n        /* \"#utility.yul\":5905:5920   */\n      mstore\n        /* \"#utility.yul\":5945:5949   */\n      0x24\n        /* \"#utility.yul\":5866:5869   */\n      dup7\n        /* \"#utility.yul\":5933:5950   */\n      revert\n        /* \"#utility.yul\":5795:5960   */\n    tag_436:\n        /* \"#utility.yul\":5976:5994   */\n      dup2\n        /* \"#utility.yul\":6003:6107   */\n      dup1\n      iszero\n      tag_438\n      jumpi\n        /* \"#utility.yul\":6121:6122   */\n      0x01\n        /* \"#utility.yul\":6116:6436   */\n      dup2\n      eq\n      tag_439\n      jumpi\n        /* \"#utility.yul\":5969:6436   */\n      jump(tag_437)\n        /* \"#utility.yul\":6003:6107   */\n    tag_438:\n      not(0xff)\n        /* \"#utility.yul\":6036:6060   */\n      dup7\n      and\n        /* \"#utility.yul\":6024:6061   */\n      dup10\n      mstore\n        /* \"#utility.yul\":6081:6097   */\n      dup5\n      dup10\n      add\n      swap7\n      pop\n        /* \"#utility.yul\":6003:6107   */\n      jump(tag_437)\n        /* \"#utility.yul\":6116:6436   */\n    tag_439:\n        /* \"#utility.yul\":10795:10796   */\n      0x00\n        /* \"#utility.yul\":10788:10802   */\n      dup11\n      dup2\n      mstore\n        /* \"#utility.yul\":10832:10836   */\n      0x20\n        /* \"#utility.yul\":10819:10837   */\n      swap1\n      keccak256\n        /* \"#utility.yul\":6211:6212   */\n      0x00\n        /* \"#utility.yul\":6225:6390   */\n    tag_442:\n        /* \"#utility.yul\":6239:6245   */\n      dup7\n        /* \"#utility.yul\":6236:6237   */\n      dup2\n        /* \"#utility.yul\":6233:6246   */\n      lt\n        /* \"#utility.yul\":6225:6390   */\n      iszero\n      tag_444\n      jumpi\n        /* \"#utility.yul\":6317:6331   */\n      dup2\n      sload\n        /* \"#utility.yul\":6304:6315   */\n      dup12\n      dup3\n      add\n        /* \"#utility.yul\":6297:6332   */\n      mstore\n        /* \"#utility.yul\":6360:6376   */\n      swap1\n      dup6\n      add\n      swap1\n        /* \"#utility.yul\":6254:6264   */\n      dup4\n      add\n        /* \"#utility.yul\":6225:6390   */\n      jump(tag_442)\n    tag_444:\n        /* \"#utility.yul\":6229:6232   */\n      pop\n      pop\n        /* \"#utility.yul\":6419:6425   */\n      dup5\n        /* \"#utility.yul\":6414:6417   */\n      dup10\n        /* \"#utility.yul\":6410:6426   */\n      add\n        /* \"#utility.yul\":6403:6426   */\n      swap7\n      pop\n        /* \"#utility.yul\":5969:6436   */\n    tag_437:\n      pop\n        /* \"#utility.yul\":6452:6455   */\n      swap5\n      swap9\n        /* \"#utility.yul\":5362:6461   */\n      swap8\n      pop\n      pop\n      pop\n      pop\n      pop\n      pop\n      pop\n      pop\n      jump\t// out\n        /* \"#utility.yul\":6674:7072   */\n    tag_64:\n      sub(shl(0xa0, 0x01), 0x01)\n        /* \"#utility.yul\":6873:6905   */\n      dup5\n      and\n        /* \"#utility.yul\":6855:6906   */\n      dup2\n      mstore\n        /* \"#utility.yul\":6942:6944   */\n      0x60\n        /* \"#utility.yul\":6937:6939   */\n      0x20\n        /* \"#utility.yul\":6922:6940   */\n      dup3\n      add\n        /* \"#utility.yul\":6915:6945   */\n      dup2\n      swap1\n      mstore\n      0x00\n      swap1\n        /* \"#utility.yul\":6962:7007   */\n      tag_447\n      swap1\n        /* \"#utility.yul\":6988:7006   */\n      dup4\n      add\n        /* \"#utility.yul\":6980:6986   */\n      dup6\n        /* \"#utility.yul\":6962:7007   */\n      tag_428\n      jump\t// in\n    tag_447:\n        /* \"#utility.yul\":6954:7007   */\n      swap1\n      pop\n        /* \"#utility.yul\":7057:7063   */\n      dup3\n        /* \"#utility.yul\":7050:7064   */\n      iszero\n        /* \"#utility.yul\":7043:7065   */\n      iszero\n        /* \"#utility.yul\":7038:7040   */\n      0x40\n        /* \"#utility.yul\":7027:7036   */\n      dup4\n        /* \"#utility.yul\":7023:7041   */\n      add\n        /* \"#utility.yul\":7016:7066   */\n      mstore\n        /* \"#utility.yul\":6674:7072   */\n      swap5\n      swap4\n      pop\n      pop\n      pop\n      pop\n      jump\t// out\n        /* \"#utility.yul\":7077:7538   */\n    tag_98:\n      sub(shl(0xa0, 0x01), 0x01)\n        /* \"#utility.yul\":7310:7342   */\n      dup6\n      and\n        /* \"#utility.yul\":7292:7343   */\n      dup2\n      mstore\n        /* \"#utility.yul\":7379:7382   */\n      0x80\n        /* \"#utility.yul\":7374:7376   */\n      0x20\n        /* \"#utility.yul\":7359:7377   */\n      dup3\n      add\n        /* \"#utility.yul\":7352:7383   */\n      dup2\n      swap1\n      mstore\n      0x00\n      swap1\n        /* \"#utility.yul\":7400:7446   */\n      tag_449\n      swap1\n        /* \"#utility.yul\":7426:7445   */\n      dup4\n      add\n        /* \"#utility.yul\":7418:7424   */\n      dup7\n        /* \"#utility.yul\":7400:7446   */\n      tag_428\n      jump\t// in\n    tag_449:\n        /* \"#utility.yul\":7477:7479   */\n      0x40\n        /* \"#utility.yul\":7462:7480   */\n      dup4\n      add\n        /* \"#utility.yul\":7455:7489   */\n      swap5\n      swap1\n      swap5\n      mstore\n      pop\n        /* \"#utility.yul\":7520:7522   */\n      0x60\n        /* \"#utility.yul\":7505:7523   */\n      add\n        /* \"#utility.yul\":7498:7532   */\n      mstore\n        /* \"#utility.yul\":7392:7446   */\n      swap3\n        /* \"#utility.yul\":7077:7538   */\n      swap2\n      pop\n      pop\n      jump\t// out\n        /* \"#utility.yul\":7543:8346   */\n    tag_50:\n        /* \"#utility.yul\":7705:7709   */\n      0x00\n        /* \"#utility.yul\":7734:7736   */\n      0x20\n        /* \"#utility.yul\":7774:7776   */\n      dup1\n        /* \"#utility.yul\":7763:7772   */\n      dup4\n        /* \"#utility.yul\":7759:7777   */\n      add\n        /* \"#utility.yul\":7804:7806   */\n      dup2\n        /* \"#utility.yul\":7793:7802   */\n      dup5\n        /* \"#utility.yul\":7786:7807   */\n      mstore\n        /* \"#utility.yul\":7827:7833   */\n      dup1\n        /* \"#utility.yul\":7862:7868   */\n      dup6\n        /* \"#utility.yul\":7856:7869   */\n      mload\n        /* \"#utility.yul\":7893:7899   */\n      dup1\n        /* \"#utility.yul\":7885:7891   */\n      dup4\n        /* \"#utility.yul\":7878:7900   */\n      mstore\n        /* \"#utility.yul\":7931:7933   */\n      0x40\n        /* \"#utility.yul\":7920:7929   */\n      dup7\n        /* \"#utility.yul\":7916:7934   */\n      add\n        /* \"#utility.yul\":7909:7934   */\n      swap2\n      pop\n        /* \"#utility.yul\":7993:7995   */\n      0x40\n        /* \"#utility.yul\":7983:7989   */\n      dup2\n        /* \"#utility.yul\":7980:7981   */\n      0x05\n        /* \"#utility.yul\":7976:7990   */\n      shl\n        /* \"#utility.yul\":7965:7974   */\n      dup8\n        /* \"#utility.yul\":7961:7991   */\n      add\n        /* \"#utility.yul\":7957:7996   */\n      add\n        /* \"#utility.yul\":7943:7996   */\n      swap3\n      pop\n        /* \"#utility.yul\":8031:8033   */\n      dup4\n        /* \"#utility.yul\":8023:8029   */\n      dup8\n        /* \"#utility.yul\":8019:8034   */\n      add\n        /* \"#utility.yul\":8052:8053   */\n      0x00\n        /* \"#utility.yul\":8062:8317   */\n    tag_451:\n        /* \"#utility.yul\":8076:8082   */\n      dup3\n        /* \"#utility.yul\":8073:8074   */\n      dup2\n        /* \"#utility.yul\":8070:8083   */\n      lt\n        /* \"#utility.yul\":8062:8317   */\n      iszero\n      tag_453\n      jumpi\n        /* \"#utility.yul\":8169:8171   */\n      0x3f\n        /* \"#utility.yul\":8165:8172   */\n      not\n        /* \"#utility.yul\":8153:8162   */\n      dup9\n        /* \"#utility.yul\":8145:8151   */\n      dup7\n        /* \"#utility.yul\":8141:8163   */\n      sub\n        /* \"#utility.yul\":8137:8173   */\n      add\n        /* \"#utility.yul\":8132:8135   */\n      dup5\n        /* \"#utility.yul\":8125:8174   */\n      mstore\n        /* \"#utility.yul\":8197:8237   */\n      tag_454\n        /* \"#utility.yul\":8230:8236   */\n      dup6\n        /* \"#utility.yul\":8221:8227   */\n      dup4\n        /* \"#utility.yul\":8215:8228   */\n      mload\n        /* \"#utility.yul\":8197:8237   */\n      tag_428\n      jump\t// in\n    tag_454:\n        /* \"#utility.yul\":8187:8237   */\n      swap5\n      pop\n        /* \"#utility.yul\":8295:8307   */\n      swap3\n      dup6\n      add\n      swap3\n        /* \"#utility.yul\":8260:8275   */\n      swap1\n      dup6\n      add\n      swap1\n        /* \"#utility.yul\":8098:8099   */\n      0x01\n        /* \"#utility.yul\":8091:8100   */\n      add\n        /* \"#utility.yul\":8062:8317   */\n      jump(tag_451)\n    tag_453:\n      pop\n        /* \"#utility.yul\":8334:8340   */\n      swap3\n      swap8\n        /* \"#utility.yul\":7543:8346   */\n      swap7\n      pop\n      pop\n      pop\n      pop\n      pop\n      pop\n      pop\n      jump\t// out\n        /* \"#utility.yul\":8351:8796   */\n    tag_70:\n        /* \"#utility.yul\":8578:8581   */\n      0x80\n        /* \"#utility.yul\":8567:8576   */\n      dup2\n        /* \"#utility.yul\":8560:8582   */\n      mstore\n        /* \"#utility.yul\":8541:8545   */\n      0x00\n        /* \"#utility.yul\":8599:8645   */\n      tag_456\n        /* \"#utility.yul\":8640:8643   */\n      0x80\n        /* \"#utility.yul\":8629:8638   */\n      dup4\n        /* \"#utility.yul\":8625:8644   */\n      add\n        /* \"#utility.yul\":8617:8623   */\n      dup8\n        /* \"#utility.yul\":8599:8645   */\n      tag_428\n      jump\t// in\n    tag_456:\n        /* \"#utility.yul\":8676:8678   */\n      0x20\n        /* \"#utility.yul\":8661:8679   */\n      dup4\n      add\n        /* \"#utility.yul\":8654:8688   */\n      swap6\n      swap1\n      swap6\n      mstore\n      pop\n        /* \"#utility.yul\":8719:8721   */\n      0x40\n        /* \"#utility.yul\":8704:8722   */\n      dup2\n      add\n        /* \"#utility.yul\":8697:8731   */\n      swap3\n      swap1\n      swap3\n      mstore\n        /* \"#utility.yul\":8774:8788   */\n      iszero\n        /* \"#utility.yul\":8767:8789   */\n      iszero\n        /* \"#utility.yul\":8762:8764   */\n      0x60\n        /* \"#utility.yul\":8747:8765   */\n      swap1\n      swap2\n      add\n        /* \"#utility.yul\":8740:8790   */\n      mstore\n        /* \"#utility.yul\":8591:8645   */\n      swap2\n        /* \"#utility.yul\":8351:8796   */\n      swap1\n      pop\n      jump\t// out\n        /* \"#utility.yul\":10442:10717   */\n    tag_382:\n        /* \"#utility.yul\":10513:10515   */\n      0x40\n        /* \"#utility.yul\":10507:10516   */\n      mload\n        /* \"#utility.yul\":10578:10580   */\n      0x1f\n        /* \"#utility.yul\":10559:10572   */\n      dup3\n      add\n      not(0x1f)\n        /* \"#utility.yul\":10555:10582   */\n      and\n        /* \"#utility.yul\":10543:10583   */\n      dup2\n      add\n      sub(shl(0x40, 0x01), 0x01)\n        /* \"#utility.yul\":10598:10632   */\n      dup2\n      gt\n        /* \"#utility.yul\":10634:10656   */\n      dup3\n      dup3\n      lt\n        /* \"#utility.yul\":10595:10657   */\n      or\n        /* \"#utility.yul\":10592:10680   */\n      iszero\n      tag_464\n      jumpi\n        /* \"#utility.yul\":10660:10678   */\n      tag_464\n      tag_380\n      jump\t// in\n    tag_464:\n        /* \"#utility.yul\":10696:10698   */\n      0x40\n        /* \"#utility.yul\":10689:10711   */\n      mstore\n        /* \"#utility.yul\":10442:10717   */\n      swap2\n      swap1\n      pop\n      jump\t// out\n        /* \"#utility.yul\":10848:10976   */\n    tag_134:\n        /* \"#utility.yul\":10888:10891   */\n      0x00\n        /* \"#utility.yul\":10919:10920   */\n      dup3\n        /* \"#utility.yul\":10915:10921   */\n      not\n        /* \"#utility.yul\":10912:10913   */\n      dup3\n        /* \"#utility.yul\":10909:10922   */\n      gt\n        /* \"#utility.yul\":10906:10945   */\n      iszero\n      tag_468\n      jumpi\n        /* \"#utility.yul\":10925:10943   */\n      tag_468\n      tag_469\n      jump\t// in\n    tag_468:\n      pop\n        /* \"#utility.yul\":10961:10970   */\n      add\n      swap1\n        /* \"#utility.yul\":10848:10976   */\n      jump\t// out\n        /* \"#utility.yul\":10981:11198   */\n    tag_254:\n        /* \"#utility.yul\":11021:11022   */\n      0x00\n        /* \"#utility.yul\":11047:11048   */\n      dup3\n        /* \"#utility.yul\":11037:11169   */\n      tag_471\n      jumpi\n        /* \"#utility.yul\":11091:11101   */\n      0x4e487b71\n        /* \"#utility.yul\":11086:11089   */\n      0xe0\n        /* \"#utility.yul\":11082:11102   */\n      shl\n        /* \"#utility.yul\":11079:11080   */\n      0x00\n        /* \"#utility.yul\":11072:11103   */\n      mstore\n        /* \"#utility.yul\":11126:11130   */\n      0x12\n        /* \"#utility.yul\":11123:11124   */\n      0x04\n        /* \"#utility.yul\":11116:11131   */\n      mstore\n        /* \"#utility.yul\":11154:11158   */\n      0x24\n        /* \"#utility.yul\":11151:11152   */\n      0x00\n        /* \"#utility.yul\":11144:11159   */\n      revert\n        /* \"#utility.yul\":11037:11169   */\n    tag_471:\n      pop\n        /* \"#utility.yul\":11183:11192   */\n      div\n      swap1\n        /* \"#utility.yul\":10981:11198   */\n      jump\t// out\n        /* \"#utility.yul\":11203:11328   */\n    tag_125:\n        /* \"#utility.yul\":11243:11247   */\n      0x00\n        /* \"#utility.yul\":11271:11272   */\n      dup3\n        /* \"#utility.yul\":11268:11269   */\n      dup3\n        /* \"#utility.yul\":11265:11273   */\n      lt\n        /* \"#utility.yul\":11262:11296   */\n      iszero\n      tag_474\n      jumpi\n        /* \"#utility.yul\":11276:11294   */\n      tag_474\n      tag_469\n      jump\t// in\n    tag_474:\n      pop\n        /* \"#utility.yul\":11313:11322   */\n      sub\n      swap1\n        /* \"#utility.yul\":11203:11328   */\n      jump\t// out\n        /* \"#utility.yul\":11333:11591   */\n    tag_431:\n        /* \"#utility.yul\":11405:11406   */\n      0x00\n        /* \"#utility.yul\":11415:11528   */\n    tag_476:\n        /* \"#utility.yul\":11429:11435   */\n      dup4\n        /* \"#utility.yul\":11426:11427   */\n      dup2\n        /* \"#utility.yul\":11423:11436   */\n      lt\n        /* \"#utility.yul\":11415:11528   */\n      iszero\n      tag_478\n      jumpi\n        /* \"#utility.yul\":11505:11516   */\n      dup2\n      dup2\n      add\n        /* \"#utility.yul\":11499:11517   */\n      mload\n        /* \"#utility.yul\":11486:11497   */\n      dup4\n      dup3\n      add\n        /* \"#utility.yul\":11479:11518   */\n      mstore\n        /* \"#utility.yul\":11451:11453   */\n      0x20\n        /* \"#utility.yul\":11444:11454   */\n      add\n        /* \"#utility.yul\":11415:11528   */\n      jump(tag_476)\n    tag_478:\n        /* \"#utility.yul\":11546:11552   */\n      dup4\n        /* \"#utility.yul\":11543:11544   */\n      dup2\n        /* \"#utility.yul\":11540:11553   */\n      gt\n        /* \"#utility.yul\":11537:11585   */\n      iszero\n      tag_280\n      jumpi\n      pop\n      pop\n        /* \"#utility.yul\":11581:11582   */\n      0x00\n        /* \"#utility.yul\":11563:11579   */\n      swap2\n      add\n        /* \"#utility.yul\":11556:11583   */\n      mstore\n        /* \"#utility.yul\":11333:11591   */\n      jump\t// out\n        /* \"#utility.yul\":11596:11976   */\n    tag_156:\n        /* \"#utility.yul\":11675:11676   */\n      0x01\n        /* \"#utility.yul\":11671:11683   */\n      dup2\n      dup2\n      shr\n      swap1\n        /* \"#utility.yul\":11718:11730   */\n      dup3\n      and\n      dup1\n        /* \"#utility.yul\":11739:11800   */\n      tag_481\n      jumpi\n        /* \"#utility.yul\":11793:11797   */\n      0x7f\n        /* \"#utility.yul\":11785:11791   */\n      dup3\n        /* \"#utility.yul\":11781:11798   */\n      and\n        /* \"#utility.yul\":11771:11798   */\n      swap2\n      pop\n        /* \"#utility.yul\":11739:11800   */\n    tag_481:\n        /* \"#utility.yul\":11846:11848   */\n      0x20\n        /* \"#utility.yul\":11838:11844   */\n      dup3\n        /* \"#utility.yul\":11835:11849   */\n      lt\n        /* \"#utility.yul\":11815:11833   */\n      dup2\n        /* \"#utility.yul\":11812:11850   */\n      eq\n        /* \"#utility.yul\":11809:11970   */\n      iszero\n      tag_482\n      jumpi\n        /* \"#utility.yul\":11892:11902   */\n      0x4e487b71\n        /* \"#utility.yul\":11887:11890   */\n      0xe0\n        /* \"#utility.yul\":11883:11903   */\n      shl\n        /* \"#utility.yul\":11880:11881   */\n      0x00\n        /* \"#utility.yul\":11873:11904   */\n      mstore\n        /* \"#utility.yul\":11927:11931   */\n      0x22\n        /* \"#utility.yul\":11924:11925   */\n      0x04\n        /* \"#utility.yul\":11917:11932   */\n      mstore\n        /* \"#utility.yul\":11955:11959   */\n      0x24\n        /* \"#utility.yul\":11952:11953   */\n      0x00\n        /* \"#utility.yul\":11945:11960   */\n      revert\n        /* \"#utility.yul\":11809:11970   */\n    tag_482:\n      pop\n        /* \"#utility.yul\":11596:11976   */\n      swap2\n      swap1\n      pop\n      jump\t// out\n        /* \"#utility.yul\":11981:12116   */\n    tag_170:\n        /* \"#utility.yul\":12020:12023   */\n      0x00\n      not(0x00)\n        /* \"#utility.yul\":12041:12058   */\n      dup3\n      eq\n        /* \"#utility.yul\":12038:12081   */\n      iszero\n      tag_485\n      jumpi\n        /* \"#utility.yul\":12061:12079   */\n      tag_485\n      tag_469\n      jump\t// in\n    tag_485:\n      pop\n        /* \"#utility.yul\":12108:12109   */\n      0x01\n        /* \"#utility.yul\":12097:12110   */\n      add\n      swap1\n        /* \"#utility.yul\":11981:12116   */\n      jump\t// out\n        /* \"#utility.yul\":12121:12248   */\n    tag_469:\n        /* \"#utility.yul\":12182:12192   */\n      0x4e487b71\n        /* \"#utility.yul\":12177:12180   */\n      0xe0\n        /* \"#utility.yul\":12173:12193   */\n      shl\n        /* \"#utility.yul\":12170:12171   */\n      0x00\n        /* \"#utility.yul\":12163:12194   */\n      mstore\n        /* \"#utility.yul\":12213:12217   */\n      0x11\n        /* \"#utility.yul\":12210:12211   */\n      0x04\n        /* \"#utility.yul\":12203:12218   */\n      mstore\n        /* \"#utility.yul\":12237:12241   */\n      0x24\n        /* \"#utility.yul\":12234:12235   */\n      0x00\n        /* \"#utility.yul\":12227:12242   */\n      revert\n        /* \"#utility.yul\":12253:12380   */\n    tag_114:\n        /* \"#utility.yul\":12314:12324   */\n      0x4e487b71\n        /* \"#utility.yul\":12309:12312   */\n      0xe0\n        /* \"#utility.yul\":12305:12325   */\n      shl\n        /* \"#utility.yul\":12302:12303   */\n      0x00\n        /* \"#utility.yul\":12295:12326   */\n      mstore\n        /* \"#utility.yul\":12345:12349   */\n      0x32\n        /* \"#utility.yul\":12342:12343   */\n      0x04\n        /* \"#utility.yul\":12335:12350   */\n      mstore\n        /* \"#utility.yul\":12369:12373   */\n      0x24\n        /* \"#utility.yul\":12366:12367   */\n      0x00\n        /* \"#utility.yul\":12359:12374   */\n      revert\n        /* \"#utility.yul\":12385:12512   */\n    tag_380:\n        /* \"#utility.yul\":12446:12456   */\n      0x4e487b71\n        /* \"#utility.yul\":12441:12444   */\n      0xe0\n        /* \"#utility.yul\":12437:12457   */\n      shl\n        /* \"#utility.yul\":12434:12435   */\n      0x00\n        /* \"#utility.yul\":12427:12458   */\n      mstore\n        /* \"#utility.yul\":12477:12481   */\n      0x41\n        /* \"#utility.yul\":12474:12475   */\n      0x04\n        /* \"#utility.yul\":12467:12482   */\n      mstore\n        /* \"#utility.yul\":12501:12505   */\n      0x24\n        /* \"#utility.yul\":12498:12499   */\n      0x00\n        /* \"#utility.yul\":12491:12506   */\n      revert\n\n    auxdata: 0xa264697066735822122015e31aa6fe64ae378653e0942ce52fd2ae501e2b9601a25a8126876d8014c23f64736f6c63430008070033\n}\n",
				"bytecode": {
					"linkReferences": {},
					"object": "60806040526000600d553480156200001657600080fd5b506040805160e081018252600460a0820190815263119bdbd960e21b60c083015281528151808301835260018152603160f81b602082810191909152808301919091528251808401845260068152654d6f73636f7760d01b81830152928201929092526103e8606082015260006080820181905273e99c55ac245ce186adbfe5b288b289f7ae9f0243815282528051805191926000805160206200255383398151915292620000c9928492019062000499565b506020828101518051620000e4926001850192019062000499565b50604082015180516200010291600284019160209091019062000499565b50606082015160038201556080909101516004909101556000602081905260028054600181018255915260008051602062002553833981519152805460008051602062002533833981519152909201916200015d90620005c3565b6200016a92919062000528565b506040805160e081018252600760a0820190815266436c6f7468657360c81b60c083015281528151808301835260018152601960f91b6020828101919091528083019190915282518084018452600a8152695065746572736275726760b01b81830152928201929092526103e8606082015260006080820181905273ea4459f020f6cbfc65a86de447b1933aa1c9f9f981528252805180519192600080516020620025738339815191529262000224928492019062000499565b5060208281015180516200023f926001850192019062000499565b50604082015180516200025d91600284019160209091019062000499565b5060608201516003820155608090910151600490910155600060208190526002805460018101825591526000805160206200257383398151915280546000805160206200253383398151915290920191620002b890620005c3565b620002c592919062000528565b50738be65d204a762b0a1e61039a1ba362ebe65b21c16005604051620002f590635065746160e01b815260040190565b908152604080516020928190038301812080546001600160a01b0319166001600160a01b03959095169490941790935560c083018152600460808401818152635065746160e01b60a0860152845260018385018190526103e8928501929092526060840191909152738be65d204a762b0a1e61039a1ba362ebe65b21c16000528152815180517fd17570c1fab7a57a200783c8f7634aa181849d996af02bfa1a4c343dff09b13392620003ad92849291019062000499565b5060208281015160018381019190915560408085015160028501556060909401516003909301805460ff19169315159390931790925560068054928301815560005282518084019093526004808452635065746160e01b939091019283526200043c927ff652222313e28459528d920b65115c16c04f3efc82aaedc97be59f3f377c0d3f909201919062000499565b50600780546001810182556000919091527fa66cc928b5edb82af9bd49922954155ab7b0942694bea4ce44661d9a8736c6880180546001600160a01b031916738be65d204a762b0a1e61039a1ba362ebe65b21c117905562000600565b828054620004a790620005c3565b90600052602060002090601f016020900481019282620004cb576000855562000516565b82601f10620004e657805160ff191683800117855562000516565b8280016001018555821562000516579182015b8281111562000516578251825591602001919060010190620004f9565b5062000524929150620005ac565b5090565b8280546200053690620005c3565b90600052602060002090601f0160209004810192826200055a576000855562000516565b82601f106200056d578054855562000516565b828001600101855582156200051657600052602060002091601f016020900482015b82811115620005165782548255916001019190600101906200058f565b5b80821115620005245760008155600101620005ad565b600181811c90821680620005d857607f821691505b60208210811415620005fa57634e487b7160e01b600052602260045260246000fd5b50919050565b611f2380620006106000396000f3fe608060405234801561001057600080fd5b50600436106101075760003560e01c80630c72b1ec1461010c578063146dc6ed146101215780631bbe970a1461013457806329e795f3146101855780632ccdef7c146101985780632d4673e3146101ab57806334d2c0ad146101be5780636ba44d3c146101d35780636c05dd1d146101e65780637ddb273d146101f9578063961865f01461021b578063a985036d1461023e578063a9f9482b1461025f578063bbd4336314610272578063c178b9af14610285578063c4957fa01461028d578063cc21c188146102c1578063d68cf8c1146102d4578063dce39151146102f7578063e38d90871461030a578063f69483c11461031d575b600080fd5b61011f61011a366004611b8f565b610330565b005b61011f61012f366004611992565b610506565b610168610142366004611992565b80516020818301810180516005825292820191909301209152546001600160a01b031681565b6040516001600160a01b0390911681526020015b60405180910390f35b61011f6101933660046119c6565b610662565b61011f6101a6366004611b8f565b6107c6565b61011f6101b9366004611992565b6108fe565b6101c66109aa565b60405161017c9190611d15565b6101686101e1366004611992565b610a83565b61011f6101f4366004611b0a565b610ab4565b61020c610207366004611b76565b610bab565b60405161017c93929190611ca8565b61022e61022936600461191a565b610c76565b60405161017c9493929190611d77565b61025161024c366004611992565b610d2b565b60405190815260200161017c565b61020c61026d366004611b76565b610f33565b61011f610280366004611992565b610f43565b6101c6610fef565b61016861029b366004611992565b80516020818301810180516001825292820191909301209152546001600160a01b031681565b61011f6102cf366004611aaf565b6110bf565b6102e76102e2366004611992565b611393565b60405161017c9493929190611cde565b61020c610305366004611b76565b611459565b61011f61031836600461193c565b611469565b61011f61032b366004611b8f565b61164a565b600181151514156104cb576000600a838154811061035057610350611ec1565b906000526020600020906003020160020160006101000a81548160ff0219169083151502179055506008600a838154811061038d5761038d611ec1565b90600052602060002090600302016001016040516103ab9190611c0c565b90815260200160405180910390206002015460046000600a85815481106103d4576103d4611ec1565b600091825260208083206003909202909101546001600160a01b0316835282019290925260400190206002015461040b9190611e12565b60046000600a858154811061042257610422611ec1565b600091825260208083206003909202909101546001600160a01b03168352820192909252604001902060020155600a8054600891908490811061046757610467611ec1565b90600052602060002090600302016001016040516104859190611c0c565b908152604080516020928190038301902060020154336000908152928390529120600301546104b49190611dd8565b336000908152602081905260409020600301555050565b6000600a83815481106104e0576104e0611ec1565b60009182526020909120600390910201600201805460ff19169115159190911790555050565b6008816040516105169190611bf0565b90815260200160405180910390206002015460046000336001600160a01b03166001600160a01b031681526020019081526020016000206002015410156105975760405162461bcd60e51b815260206004820152601060248201526f6572726f723a206e6f74206d6f6e657960801b60448201526064015b60405180910390fd5b6040805160608101825233815260208082018481526001938301849052600a8054948501815560005282517fc65a7bb8d6351c1cf70c95a316cc6a92839c986682d98bc35f958f4883f9d2a8600390950294850180546001600160a01b0319166001600160a01b039092169190911781559051805193949193610643937fc65a7bb8d6351c1cf70c95a316cc6a92839c986682d98bc35f958f4883f9d2a9909301929190910190611743565b50604091909101516002909101805460ff191691151591909117905550565b60005b6003548110156107c15760006003828154811061068457610684611ec1565b906000526020600020906005020160010180546106a090611e55565b80601f01602080910402602001604051908101604052809291908181526020018280546106cc90611e55565b80156107195780601f106106ee57610100808354040283529160200191610719565b820191906000526020600020905b8154815290600101906020018083116106fc57829003601f168201915b50505050509050836040516020016107319190611bf0565b60405160208183030381529060405280519060200120816040516020016107589190611bf0565b6040516020818303038152906040528051906020012014156107ae57826003838154811061078857610788611ec1565b906000526020600020906005020160040190805190602001906107ac9291906117c7565b505b50806107b981611e90565b915050610665565b505050565b600181151514156108e9576000600b83815481106107e6576107e6611ec1565b906000526020600020906003020160020160006101000a81548160ff0219169083151502179055506008600b838154811061082357610823611ec1565b90600052602060002090600302016001016040516108419190611c0c565b90815260200160405180910390206002015460046000600b858154811061086a5761086a611ec1565b600091825260208083206003909202909101546001600160a01b031683528201929092526040019020600201546108a19190611dd8565b60046000600b85815481106108b8576108b8611ec1565b600091825260208083206003909202909101546001600160a01b031683528201929092526040019020600201555050565b6000600b83815481106104e0576104e0611ec1565b6040805160608101825233815260208082018481526001938301849052600c8054948501815560005282517fdf6966c971051c3d54ec59162606531493a51404a002842f56009d7e5cf4a8c7600390950294850180546001600160a01b0319166001600160a01b039092169190911781559051805193949193610643937fdf6966c971051c3d54ec59162606531493a51404a002842f56009d7e5cf4a8c8909301929190910190611743565b60606009805480602002602001604051908101604052809291908181526020016000905b82821015610a7a5783829060005260206000200180546109ed90611e55565b80601f0160208091040260200160405190810160405280929190818152602001828054610a1990611e55565b8015610a665780601f10610a3b57610100808354040283529160200191610a66565b820191906000526020600020905b815481529060010190602001808311610a4957829003601f168201915b5050505050815260200190600101906109ce565b50505050905090565b6000600582604051610a959190611bf0565b908152604051908190036020019020546001600160a01b031692915050565b6040518060800160405280336001600160a01b03168152602001828152602001838152602001600d54815250600884604051610af09190611bf0565b90815260405160209181900382019020825181546001600160a01b0319166001600160a01b039091161781558282015180519192610b3692600185019290910190611743565b5060408201516002820155606090910151600390910155600980546001810182556000919091528351610b90917f6e1540171b6c0c960b71a7020d9f60077f6af931a8bbf590da0223dacf75c7af01906020860190611743565b50600d8054906000610ba183611e90565b9190505550505050565b600c8181548110610bbb57600080fd5b6000918252602090912060039091020180546001820180546001600160a01b03909216935090610bea90611e55565b80601f0160208091040260200160405190810160405280929190818152602001828054610c1690611e55565b8015610c635780601f10610c3857610100808354040283529160200191610c63565b820191906000526020600020905b815481529060010190602001808311610c4657829003601f168201915b5050506002909301549192505060ff1683565b600460205260009081526040902080548190610c9190611e55565b80601f0160208091040260200160405190810160405280929190818152602001828054610cbd90611e55565b8015610d0a5780601f10610cdf57610100808354040283529160200191610d0a565b820191906000526020600020905b815481529060010190602001808311610ced57829003601f168201915b50505050600183015460028401546003909401549293909290915060ff1684565b60008080805b600254811015610f1657600060028281548110610d5057610d50611ec1565b906000526020600020018054610d6590611e55565b80601f0160208091040260200160405190810160405280929190818152602001828054610d9190611e55565b8015610dde5780601f10610db357610100808354040283529160200191610dde565b820191906000526020600020905b815481529060010190602001808311610dc157829003601f168201915b5050505050905085604051602001610df69190611bf0565b6040516020818303038152906040528051906020012081604051602001610e1d9190611bf0565b604051602081830303815290604052805190602001201415610f0357600091505b6003548211610f035760038281548110610e5a57610e5a611ec1565b9060005260206000209060050201600001604051602001610e7b9190611c0c565b6040516020818303038152906040528051906020012086604051602001610ea29190611bf0565b604051602081830303815290604052805190602001201415610ef15760038281548110610ed157610ed1611ec1565b90600052602060002090600502016003015483610eee9190611dd8565b92505b81610efb81611e90565b925050610e3e565b5080610f0e81611e90565b915050610d31565b50610f218282611df0565b610f2b9082611dd8565b949350505050565b600b8181548110610bbb57600080fd5b6040805160608101825233815260208082018481526001938301849052600b8054948501815560005282517f0175b7a638427703f0dbe7bb9bbf987a2551717b34e79f33b5b1008d1fa01db9600390950294850180546001600160a01b0319166001600160a01b039092169190911781559051805193949193610643937f0175b7a638427703f0dbe7bb9bbf987a2551717b34e79f33b5b1008d1fa01dba909301929190910190611743565b60606002805480602002602001604051908101604052809291908181526020016000905b82821015610a7a57838290600052602060002001805461103290611e55565b80601f016020809104026020016040519081016040528092919081815260200182805461105e90611e55565b80156110ab5780601f10611080576101008083540402835291602001916110ab565b820191906000526020600020905b81548152906001019060200180831161108e57829003601f168201915b505050505081526020019060010190611013565b600a81111561111a5760405162461bcd60e51b815260206004820152602160248201527f6572726f723a20726174696e672063616e2062652066726f6d203120746f20316044820152600360fc1b606482015260840161058e565b60005b600254811161138d5760006002828154811061113b5761113b611ec1565b90600052602060002001805461115090611e55565b80601f016020809104026020016040519081016040528092919081815260200182805461117c90611e55565b80156111c95780601f1061119e576101008083540402835291602001916111c9565b820191906000526020600020905b8154815290600101906020018083116111ac57829003601f168201915b50505050509050846040516020016111e19190611bf0565b60405160208183030381529060405280519060200120816040516020016112089190611bf0565b60405160208183030381529060405280519060200120141561137a576040805160a081018252868152336000908152600460209081529290208054606093600393929083019161125790611e55565b80601f016020809104026020016040519081016040528092919081815260200182805461128390611e55565b80156112d05780601f106112a5576101008083540402835291602001916112d0565b820191906000526020600020905b8154815290600101906020018083116112b357829003601f168201915b5050509183525050602080820189905260408201889052606090910184905282546001810184556000938452928190208251805193946005029091019261131a9284920190611743565b5060208281015180516113339260018501920190611743565b506040820151805161134f916002840191602090910190611743565b5060608201516003820155608082015180516113759160048401916020909101906117c7565b505050505b508061138581611e90565b91505061111d565b50505050565b8051602081830181018051600882529282019190930120915280546001820180546001600160a01b0390921692916113ca90611e55565b80601f01602080910402602001604051908101604052809291908181526020018280546113f690611e55565b80156114435780601f1061141857610100808354040283529160200191611443565b820191906000526020600020905b81548152906001019060200180831161142657829003601f168201915b5050505050908060020154908060030154905084565b600a8181548110610bbb57600080fd5b739c35a9bdf790a5ce09b353b1c765269ab466baad33146114cc5760405162461bcd60e51b815260206004820152601d60248201527f4572726f723a20596f75206e6f742061207a65726f206163636f756e74000000604482015260640161058e565b60006001600160a01b03166005836040516114e79190611bf0565b908152604051908190036020019020546001600160a01b0316146115495760405162461bcd60e51b8152602060048201526019602482015278115c9c9bdc8e88155cd95c88185b1c9958591e48195e1a5cdd603a1b604482015260640161058e565b6040805160808101825283815260208082018490526103e882840152600160608301526001600160a01b0386166000908152600482529290922081518051929391926115989284920190611743565b506020820151600182015560408083015160028301556060909201516003909101805460ff19169115159190911790555183906005906115d9908590611bf0565b90815260405190819003602001902080546001600160a01b039283166001600160a01b031991821617909155600780546001810182556000919091527fa66cc928b5edb82af9bd49922954155ab7b0942694bea4ce44661d9a8736c688018054959092169416939093179092555050565b600181151514156108e9576008600c838154811061166a5761166a611ec1565b90600052602060002090600302016001016040516116889190611c0c565b90815260200160405180910390206002015460046000600c85815481106116b1576116b1611ec1565b600091825260208083206003909202909101546001600160a01b031683528201929092526040019020600201546116e89190611dd8565b60046000600c85815481106116ff576116ff611ec1565b600091825260208083206003909202909101546001600160a01b03168352820192909252604001812060020191909155600b8054849081106104e0576104e0611ec1565b82805461174f90611e55565b90600052602060002090601f01602090048101928261177157600085556117b7565b82601f1061178a57805160ff19168380011785556117b7565b828001600101855582156117b7579182015b828111156117b757825182559160200191906001019061179c565b506117c3929150611820565b5090565b828054828255906000526020600020908101928215611814579160200282015b828111156118145782518051611804918491602090910190611743565b50916020019190600101906117e7565b506117c3929150611835565b5b808211156117c35760008155600101611821565b808211156117c35760006118498282611852565b50600101611835565b50805461185e90611e55565b6000825580601f1061186e575050565b601f01602090049060005260206000209081019061188c9190611820565b50565b80356001600160a01b03811681146118a657600080fd5b919050565b600082601f8301126118bc57600080fd5b81356001600160401b038111156118d5576118d5611ed7565b6118e8601f8201601f1916602001611da8565b8181528460208386010111156118fd57600080fd5b816020850160208301376000918101602001919091529392505050565b60006020828403121561192c57600080fd5b6119358261188f565b9392505050565b60008060006060848603121561195157600080fd5b61195a8461188f565b925060208401356001600160401b0381111561197557600080fd5b611981868287016118ab565b925050604084013590509250925092565b6000602082840312156119a457600080fd5b81356001600160401b038111156119ba57600080fd5b610f2b848285016118ab565b600080604083850312156119d957600080fd5b82356001600160401b03808211156119f057600080fd5b6119fc868387016118ab565b9350602091508185013581811115611a1357600080fd5b8501601f81018713611a2457600080fd5b803582811115611a3657611a36611ed7565b8060051b611a45858201611da8565b8281528581019084870183860188018c1015611a6057600080fd5b60009350835b85811015611a9d57813588811115611a7c578586fd5b611a8a8e8b838b01016118ab565b8552509288019290880190600101611a66565b50989b909a5098505050505050505050565b600080600060608486031215611ac457600080fd5b83356001600160401b0380821115611adb57600080fd5b611ae7878388016118ab565b94506020860135915080821115611afd57600080fd5b50611981868287016118ab565b600080600060608486031215611b1f57600080fd5b83356001600160401b0380821115611b3657600080fd5b611b42878388016118ab565b9450602086013593506040860135915080821115611b5f57600080fd5b50611b6c868287016118ab565b9150509250925092565b600060208284031215611b8857600080fd5b5035919050565b60008060408385031215611ba257600080fd5b8235915060208301358015158114611bb957600080fd5b809150509250929050565b60008151808452611bdc816020860160208601611e29565b601f01601f19169290920160200192915050565b60008251611c02818460208701611e29565b9190910192915050565b600080835481600182811c915080831680611c2857607f831692505b6020808410821415611c4857634e487b7160e01b86526022600452602486fd5b818015611c5c5760018114611c6d57611c9a565b60ff19861689528489019650611c9a565b60008a81526020902060005b86811015611c925781548b820152908501908301611c79565b505084890196505b509498975050505050505050565b6001600160a01b0384168152606060208201819052600090611ccc90830185611bc4565b90508215156040830152949350505050565b6001600160a01b0385168152608060208201819052600090611d0290830186611bc4565b6040830194909452506060015292915050565b6000602080830181845280855180835260408601915060408160051b870101925083870160005b82811015611d6a57603f19888603018452611d58858351611bc4565b94509285019290850190600101611d3c565b5092979650505050505050565b608081526000611d8a6080830187611bc4565b60208301959095525060408101929092521515606090910152919050565b604051601f8201601f191681016001600160401b0381118282101715611dd057611dd0611ed7565b604052919050565b60008219821115611deb57611deb611eab565b500190565b600082611e0d57634e487b7160e01b600052601260045260246000fd5b500490565b600082821015611e2457611e24611eab565b500390565b60005b83811015611e44578181015183820152602001611e2c565b8381111561138d5750506000910152565b600181811c90821680611e6957607f821691505b60208210811415611e8a57634e487b7160e01b600052602260045260246000fd5b50919050565b6000600019821415611ea457611ea4611eab565b5060010190565b634e487b7160e01b600052601160045260246000fd5b634e487b7160e01b600052603260045260246000fd5b634e487b7160e01b600052604160045260246000fdfea264697066735822122015e31aa6fe64ae378653e0942ce52fd2ae501e2b9601a25a8126876d8014c23f64736f6c63430008070033405787fa12a823e0f2b7631cc41b3ba8828b3321ca811111fa75cd3aa3bb5acea4629bf9daa4d0816e85b79d58daaabcac7b71b32d11bdfd27785bb59cd6cac6cb970ebb9edb880ac802b1a3c9eefe4439695bf104b16c8261476629532582fa",
					"opcodes": "PUSH1 0x80 PUSH1 0x40 MSTORE PUSH1 0x0 PUSH1 0xD SSTORE CALLVALUE DUP1 ISZERO PUSH3 0x16 JUMPI PUSH1 0x0 DUP1 REVERT JUMPDEST POP PUSH1 0x40 DUP1 MLOAD PUSH1 0xE0 DUP2 ADD DUP3 MSTORE PUSH1 0x4 PUSH1 0xA0 DUP3 ADD SWAP1 DUP2 MSTORE PUSH4 0x119BDBD9 PUSH1 0xE2 SHL PUSH1 0xC0 DUP4 ADD MSTORE DUP2 MSTORE DUP2 MLOAD DUP1 DUP4 ADD DUP4 MSTORE PUSH1 0x1 DUP2 MSTORE PUSH1 0x31 PUSH1 0xF8 SHL PUSH1 0x20 DUP3 DUP2 ADD SWAP2 SWAP1 SWAP2 MSTORE DUP1 DUP4 ADD SWAP2 SWAP1 SWAP2 MSTORE DUP3 MLOAD DUP1 DUP5 ADD DUP5 MSTORE PUSH1 0x6 DUP2 MSTORE PUSH6 0x4D6F73636F77 PUSH1 0xD0 SHL DUP2 DUP4 ADD MSTORE SWAP3 DUP3 ADD SWAP3 SWAP1 SWAP3 MSTORE PUSH2 0x3E8 PUSH1 0x60 DUP3 ADD MSTORE PUSH1 0x0 PUSH1 0x80 DUP3 ADD DUP2 SWAP1 MSTORE PUSH20 0xE99C55AC245CE186ADBFE5B288B289F7AE9F0243 DUP2 MSTORE DUP3 MSTORE DUP1 MLOAD DUP1 MLOAD SWAP2 SWAP3 PUSH1 0x0 DUP1 MLOAD PUSH1 0x20 PUSH3 0x2553 DUP4 CODECOPY DUP2 MLOAD SWAP2 MSTORE SWAP3 PUSH3 0xC9 SWAP3 DUP5 SWAP3 ADD SWAP1 PUSH3 0x499 JUMP JUMPDEST POP PUSH1 0x20 DUP3 DUP2 ADD MLOAD DUP1 MLOAD PUSH3 0xE4 SWAP3 PUSH1 0x1 DUP6 ADD SWAP3 ADD SWAP1 PUSH3 0x499 JUMP JUMPDEST POP PUSH1 0x40 DUP3 ADD MLOAD DUP1 MLOAD PUSH3 0x102 SWAP2 PUSH1 0x2 DUP5 ADD SWAP2 PUSH1 0x20 SWAP1 SWAP2 ADD SWAP1 PUSH3 0x499 JUMP JUMPDEST POP PUSH1 0x60 DUP3 ADD MLOAD PUSH1 0x3 DUP3 ADD SSTORE PUSH1 0x80 SWAP1 SWAP2 ADD MLOAD PUSH1 0x4 SWAP1 SWAP2 ADD SSTORE PUSH1 0x0 PUSH1 0x20 DUP2 SWAP1 MSTORE PUSH1 0x2 DUP1 SLOAD PUSH1 0x1 DUP2 ADD DUP3 SSTORE SWAP2 MSTORE PUSH1 0x0 DUP1 MLOAD PUSH1 0x20 PUSH3 0x2553 DUP4 CODECOPY DUP2 MLOAD SWAP2 MSTORE DUP1 SLOAD PUSH1 0x0 DUP1 MLOAD PUSH1 0x20 PUSH3 0x2533 DUP4 CODECOPY DUP2 MLOAD SWAP2 MSTORE SWAP1 SWAP3 ADD SWAP2 PUSH3 0x15D SWAP1 PUSH3 0x5C3 JUMP JUMPDEST PUSH3 0x16A SWAP3 SWAP2 SWAP1 PUSH3 0x528 JUMP JUMPDEST POP PUSH1 0x40 DUP1 MLOAD PUSH1 0xE0 DUP2 ADD DUP3 MSTORE PUSH1 0x7 PUSH1 0xA0 DUP3 ADD SWAP1 DUP2 MSTORE PUSH7 0x436C6F74686573 PUSH1 0xC8 SHL PUSH1 0xC0 DUP4 ADD MSTORE DUP2 MSTORE DUP2 MLOAD DUP1 DUP4 ADD DUP4 MSTORE PUSH1 0x1 DUP2 MSTORE PUSH1 0x19 PUSH1 0xF9 SHL PUSH1 0x20 DUP3 DUP2 ADD SWAP2 SWAP1 SWAP2 MSTORE DUP1 DUP4 ADD SWAP2 SWAP1 SWAP2 MSTORE DUP3 MLOAD DUP1 DUP5 ADD DUP5 MSTORE PUSH1 0xA DUP2 MSTORE PUSH10 0x50657465727362757267 PUSH1 0xB0 SHL DUP2 DUP4 ADD MSTORE SWAP3 DUP3 ADD SWAP3 SWAP1 SWAP3 MSTORE PUSH2 0x3E8 PUSH1 0x60 DUP3 ADD MSTORE PUSH1 0x0 PUSH1 0x80 DUP3 ADD DUP2 SWAP1 MSTORE PUSH20 0xEA4459F020F6CBFC65A86DE447B1933AA1C9F9F9 DUP2 MSTORE DUP3 MSTORE DUP1 MLOAD DUP1 MLOAD SWAP2 SWAP3 PUSH1 0x0 DUP1 MLOAD PUSH1 0x20 PUSH3 0x2573 DUP4 CODECOPY DUP2 MLOAD SWAP2 MSTORE SWAP3 PUSH3 0x224 SWAP3 DUP5 SWAP3 ADD SWAP1 PUSH3 0x499 JUMP JUMPDEST POP PUSH1 0x20 DUP3 DUP2 ADD MLOAD DUP1 MLOAD PUSH3 0x23F SWAP3 PUSH1 0x1 DUP6 ADD SWAP3 ADD SWAP1 PUSH3 0x499 JUMP JUMPDEST POP PUSH1 0x40 DUP3 ADD MLOAD DUP1 MLOAD PUSH3 0x25D SWAP2 PUSH1 0x2 DUP5 ADD SWAP2 PUSH1 0x20 SWAP1 SWAP2 ADD SWAP1 PUSH3 0x499 JUMP JUMPDEST POP PUSH1 0x60 DUP3 ADD MLOAD PUSH1 0x3 DUP3 ADD SSTORE PUSH1 0x80 SWAP1 SWAP2 ADD MLOAD PUSH1 0x4 SWAP1 SWAP2 ADD SSTORE PUSH1 0x0 PUSH1 0x20 DUP2 SWAP1 MSTORE PUSH1 0x2 DUP1 SLOAD PUSH1 0x1 DUP2 ADD DUP3 SSTORE SWAP2 MSTORE PUSH1 0x0 DUP1 MLOAD PUSH1 0x20 PUSH3 0x2573 DUP4 CODECOPY DUP2 MLOAD SWAP2 MSTORE DUP1 SLOAD PUSH1 0x0 DUP1 MLOAD PUSH1 0x20 PUSH3 0x2533 DUP4 CODECOPY DUP2 MLOAD SWAP2 MSTORE SWAP1 SWAP3 ADD SWAP2 PUSH3 0x2B8 SWAP1 PUSH3 0x5C3 JUMP JUMPDEST PUSH3 0x2C5 SWAP3 SWAP2 SWAP1 PUSH3 0x528 JUMP JUMPDEST POP PUSH20 0x8BE65D204A762B0A1E61039A1BA362EBE65B21C1 PUSH1 0x5 PUSH1 0x40 MLOAD PUSH3 0x2F5 SWAP1 PUSH4 0x50657461 PUSH1 0xE0 SHL DUP2 MSTORE PUSH1 0x4 ADD SWAP1 JUMP JUMPDEST SWAP1 DUP2 MSTORE PUSH1 0x40 DUP1 MLOAD PUSH1 0x20 SWAP3 DUP2 SWAP1 SUB DUP4 ADD DUP2 KECCAK256 DUP1 SLOAD PUSH1 0x1 PUSH1 0x1 PUSH1 0xA0 SHL SUB NOT AND PUSH1 0x1 PUSH1 0x1 PUSH1 0xA0 SHL SUB SWAP6 SWAP1 SWAP6 AND SWAP5 SWAP1 SWAP5 OR SWAP1 SWAP4 SSTORE PUSH1 0xC0 DUP4 ADD DUP2 MSTORE PUSH1 0x4 PUSH1 0x80 DUP5 ADD DUP2 DUP2 MSTORE PUSH4 0x50657461 PUSH1 0xE0 SHL PUSH1 0xA0 DUP7 ADD MSTORE DUP5 MSTORE PUSH1 0x1 DUP4 DUP6 ADD DUP2 SWAP1 MSTORE PUSH2 0x3E8 SWAP3 DUP6 ADD SWAP3 SWAP1 SWAP3 MSTORE PUSH1 0x60 DUP5 ADD SWAP2 SWAP1 SWAP2 MSTORE PUSH20 0x8BE65D204A762B0A1E61039A1BA362EBE65B21C1 PUSH1 0x0 MSTORE DUP2 MSTORE DUP2 MLOAD DUP1 MLOAD PUSH32 0xD17570C1FAB7A57A200783C8F7634AA181849D996AF02BFA1A4C343DFF09B133 SWAP3 PUSH3 0x3AD SWAP3 DUP5 SWAP3 SWAP2 ADD SWAP1 PUSH3 0x499 JUMP JUMPDEST POP PUSH1 0x20 DUP3 DUP2 ADD MLOAD PUSH1 0x1 DUP4 DUP2 ADD SWAP2 SWAP1 SWAP2 SSTORE PUSH1 0x40 DUP1 DUP6 ADD MLOAD PUSH1 0x2 DUP6 ADD SSTORE PUSH1 0x60 SWAP1 SWAP5 ADD MLOAD PUSH1 0x3 SWAP1 SWAP4 ADD DUP1 SLOAD PUSH1 0xFF NOT AND SWAP4 ISZERO ISZERO SWAP4 SWAP1 SWAP4 OR SWAP1 SWAP3 SSTORE PUSH1 0x6 DUP1 SLOAD SWAP3 DUP4 ADD DUP2 SSTORE PUSH1 0x0 MSTORE DUP3 MLOAD DUP1 DUP5 ADD SWAP1 SWAP4 MSTORE PUSH1 0x4 DUP1 DUP5 MSTORE PUSH4 0x50657461 PUSH1 0xE0 SHL SWAP4 SWAP1 SWAP2 ADD SWAP3 DUP4 MSTORE PUSH3 0x43C SWAP3 PUSH32 0xF652222313E28459528D920B65115C16C04F3EFC82AAEDC97BE59F3F377C0D3F SWAP1 SWAP3 ADD SWAP2 SWAP1 PUSH3 0x499 JUMP JUMPDEST POP PUSH1 0x7 DUP1 SLOAD PUSH1 0x1 DUP2 ADD DUP3 SSTORE PUSH1 0x0 SWAP2 SWAP1 SWAP2 MSTORE PUSH32 0xA66CC928B5EDB82AF9BD49922954155AB7B0942694BEA4CE44661D9A8736C688 ADD DUP1 SLOAD PUSH1 0x1 PUSH1 0x1 PUSH1 0xA0 SHL SUB NOT AND PUSH20 0x8BE65D204A762B0A1E61039A1BA362EBE65B21C1 OR SWAP1 SSTORE PUSH3 0x600 JUMP JUMPDEST DUP3 DUP1 SLOAD PUSH3 0x4A7 SWAP1 PUSH3 0x5C3 JUMP JUMPDEST SWAP1 PUSH1 0x0 MSTORE PUSH1 0x20 PUSH1 0x0 KECCAK256 SWAP1 PUSH1 0x1F ADD PUSH1 0x20 SWAP1 DIV DUP2 ADD SWAP3 DUP3 PUSH3 0x4CB JUMPI PUSH1 0x0 DUP6 SSTORE PUSH3 0x516 JUMP JUMPDEST DUP3 PUSH1 0x1F LT PUSH3 0x4E6 JUMPI DUP1 MLOAD PUSH1 0xFF NOT AND DUP4 DUP1 ADD OR DUP6 SSTORE PUSH3 0x516 JUMP JUMPDEST DUP3 DUP1 ADD PUSH1 0x1 ADD DUP6 SSTORE DUP3 ISZERO PUSH3 0x516 JUMPI SWAP2 DUP3 ADD JUMPDEST DUP3 DUP2 GT ISZERO PUSH3 0x516 JUMPI DUP3 MLOAD DUP3 SSTORE SWAP2 PUSH1 0x20 ADD SWAP2 SWAP1 PUSH1 0x1 ADD SWAP1 PUSH3 0x4F9 JUMP JUMPDEST POP PUSH3 0x524 SWAP3 SWAP2 POP PUSH3 0x5AC JUMP JUMPDEST POP SWAP1 JUMP JUMPDEST DUP3 DUP1 SLOAD PUSH3 0x536 SWAP1 PUSH3 0x5C3 JUMP JUMPDEST SWAP1 PUSH1 0x0 MSTORE PUSH1 0x20 PUSH1 0x0 KECCAK256 SWAP1 PUSH1 0x1F ADD PUSH1 0x20 SWAP1 DIV DUP2 ADD SWAP3 DUP3 PUSH3 0x55A JUMPI PUSH1 0x0 DUP6 SSTORE PUSH3 0x516 JUMP JUMPDEST DUP3 PUSH1 0x1F LT PUSH3 0x56D JUMPI DUP1 SLOAD DUP6 SSTORE PUSH3 0x516 JUMP JUMPDEST DUP3 DUP1 ADD PUSH1 0x1 ADD DUP6 SSTORE DUP3 ISZERO PUSH3 0x516 JUMPI PUSH1 0x0 MSTORE PUSH1 0x20 PUSH1 0x0 KECCAK256 SWAP2 PUSH1 0x1F ADD PUSH1 0x20 SWAP1 DIV DUP3 ADD JUMPDEST DUP3 DUP2 GT ISZERO PUSH3 0x516 JUMPI DUP3 SLOAD DUP3 SSTORE SWAP2 PUSH1 0x1 ADD SWAP2 SWAP1 PUSH1 0x1 ADD SWAP1 PUSH3 0x58F JUMP JUMPDEST JUMPDEST DUP1 DUP3 GT ISZERO PUSH3 0x524 JUMPI PUSH1 0x0 DUP2 SSTORE PUSH1 0x1 ADD PUSH3 0x5AD JUMP JUMPDEST PUSH1 0x1 DUP2 DUP2 SHR SWAP1 DUP3 AND DUP1 PUSH3 0x5D8 JUMPI PUSH1 0x7F DUP3 AND SWAP2 POP JUMPDEST PUSH1 0x20 DUP3 LT DUP2 EQ ISZERO PUSH3 0x5FA JUMPI PUSH4 0x4E487B71 PUSH1 0xE0 SHL PUSH1 0x0 MSTORE PUSH1 0x22 PUSH1 0x4 MSTORE PUSH1 0x24 PUSH1 0x0 REVERT JUMPDEST POP SWAP2 SWAP1 POP JUMP JUMPDEST PUSH2 0x1F23 DUP1 PUSH3 0x610 PUSH1 0x0 CODECOPY PUSH1 0x0 RETURN INVALID PUSH1 0x80 PUSH1 0x40 MSTORE CALLVALUE DUP1 ISZERO PUSH2 0x10 JUMPI PUSH1 0x0 DUP1 REVERT JUMPDEST POP PUSH1 0x4 CALLDATASIZE LT PUSH2 0x107 JUMPI PUSH1 0x0 CALLDATALOAD PUSH1 0xE0 SHR DUP1 PUSH4 0xC72B1EC EQ PUSH2 0x10C JUMPI DUP1 PUSH4 0x146DC6ED EQ PUSH2 0x121 JUMPI DUP1 PUSH4 0x1BBE970A EQ PUSH2 0x134 JUMPI DUP1 PUSH4 0x29E795F3 EQ PUSH2 0x185 JUMPI DUP1 PUSH4 0x2CCDEF7C EQ PUSH2 0x198 JUMPI DUP1 PUSH4 0x2D4673E3 EQ PUSH2 0x1AB JUMPI DUP1 PUSH4 0x34D2C0AD EQ PUSH2 0x1BE JUMPI DUP1 PUSH4 0x6BA44D3C EQ PUSH2 0x1D3 JUMPI DUP1 PUSH4 0x6C05DD1D EQ PUSH2 0x1E6 JUMPI DUP1 PUSH4 0x7DDB273D EQ PUSH2 0x1F9 JUMPI DUP1 PUSH4 0x961865F0 EQ PUSH2 0x21B JUMPI DUP1 PUSH4 0xA985036D EQ PUSH2 0x23E JUMPI DUP1 PUSH4 0xA9F9482B EQ PUSH2 0x25F JUMPI DUP1 PUSH4 0xBBD43363 EQ PUSH2 0x272 JUMPI DUP1 PUSH4 0xC178B9AF EQ PUSH2 0x285 JUMPI DUP1 PUSH4 0xC4957FA0 EQ PUSH2 0x28D JUMPI DUP1 PUSH4 0xCC21C188 EQ PUSH2 0x2C1 JUMPI DUP1 PUSH4 0xD68CF8C1 EQ PUSH2 0x2D4 JUMPI DUP1 PUSH4 0xDCE39151 EQ PUSH2 0x2F7 JUMPI DUP1 PUSH4 0xE38D9087 EQ PUSH2 0x30A JUMPI DUP1 PUSH4 0xF69483C1 EQ PUSH2 0x31D JUMPI JUMPDEST PUSH1 0x0 DUP1 REVERT JUMPDEST PUSH2 0x11F PUSH2 0x11A CALLDATASIZE PUSH1 0x4 PUSH2 0x1B8F JUMP JUMPDEST PUSH2 0x330 JUMP JUMPDEST STOP JUMPDEST PUSH2 0x11F PUSH2 0x12F CALLDATASIZE PUSH1 0x4 PUSH2 0x1992 JUMP JUMPDEST PUSH2 0x506 JUMP JUMPDEST PUSH2 0x168 PUSH2 0x142 CALLDATASIZE PUSH1 0x4 PUSH2 0x1992 JUMP JUMPDEST DUP1 MLOAD PUSH1 0x20 DUP2 DUP4 ADD DUP2 ADD DUP1 MLOAD PUSH1 0x5 DUP3 MSTORE SWAP3 DUP3 ADD SWAP2 SWAP1 SWAP4 ADD KECCAK256 SWAP2 MSTORE SLOAD PUSH1 0x1 PUSH1 0x1 PUSH1 0xA0 SHL SUB AND DUP2 JUMP JUMPDEST PUSH1 0x40 MLOAD PUSH1 0x1 PUSH1 0x1 PUSH1 0xA0 SHL SUB SWAP1 SWAP2 AND DUP2 MSTORE PUSH1 0x20 ADD JUMPDEST PUSH1 0x40 MLOAD DUP1 SWAP2 SUB SWAP1 RETURN JUMPDEST PUSH2 0x11F PUSH2 0x193 CALLDATASIZE PUSH1 0x4 PUSH2 0x19C6 JUMP JUMPDEST PUSH2 0x662 JUMP JUMPDEST PUSH2 0x11F PUSH2 0x1A6 CALLDATASIZE PUSH1 0x4 PUSH2 0x1B8F JUMP JUMPDEST PUSH2 0x7C6 JUMP JUMPDEST PUSH2 0x11F PUSH2 0x1B9 CALLDATASIZE PUSH1 0x4 PUSH2 0x1992 JUMP JUMPDEST PUSH2 0x8FE JUMP JUMPDEST PUSH2 0x1C6 PUSH2 0x9AA JUMP JUMPDEST PUSH1 0x40 MLOAD PUSH2 0x17C SWAP2 SWAP1 PUSH2 0x1D15 JUMP JUMPDEST PUSH2 0x168 PUSH2 0x1E1 CALLDATASIZE PUSH1 0x4 PUSH2 0x1992 JUMP JUMPDEST PUSH2 0xA83 JUMP JUMPDEST PUSH2 0x11F PUSH2 0x1F4 CALLDATASIZE PUSH1 0x4 PUSH2 0x1B0A JUMP JUMPDEST PUSH2 0xAB4 JUMP JUMPDEST PUSH2 0x20C PUSH2 0x207 CALLDATASIZE PUSH1 0x4 PUSH2 0x1B76 JUMP JUMPDEST PUSH2 0xBAB JUMP JUMPDEST PUSH1 0x40 MLOAD PUSH2 0x17C SWAP4 SWAP3 SWAP2 SWAP1 PUSH2 0x1CA8 JUMP JUMPDEST PUSH2 0x22E PUSH2 0x229 CALLDATASIZE PUSH1 0x4 PUSH2 0x191A JUMP JUMPDEST PUSH2 0xC76 JUMP JUMPDEST PUSH1 0x40 MLOAD PUSH2 0x17C SWAP5 SWAP4 SWAP3 SWAP2 SWAP1 PUSH2 0x1D77 JUMP JUMPDEST PUSH2 0x251 PUSH2 0x24C CALLDATASIZE PUSH1 0x4 PUSH2 0x1992 JUMP JUMPDEST PUSH2 0xD2B JUMP JUMPDEST PUSH1 0x40 MLOAD SWAP1 DUP2 MSTORE PUSH1 0x20 ADD PUSH2 0x17C JUMP JUMPDEST PUSH2 0x20C PUSH2 0x26D CALLDATASIZE PUSH1 0x4 PUSH2 0x1B76 JUMP JUMPDEST PUSH2 0xF33 JUMP JUMPDEST PUSH2 0x11F PUSH2 0x280 CALLDATASIZE PUSH1 0x4 PUSH2 0x1992 JUMP JUMPDEST PUSH2 0xF43 JUMP JUMPDEST PUSH2 0x1C6 PUSH2 0xFEF JUMP JUMPDEST PUSH2 0x168 PUSH2 0x29B CALLDATASIZE PUSH1 0x4 PUSH2 0x1992 JUMP JUMPDEST DUP1 MLOAD PUSH1 0x20 DUP2 DUP4 ADD DUP2 ADD DUP1 MLOAD PUSH1 0x1 DUP3 MSTORE SWAP3 DUP3 ADD SWAP2 SWAP1 SWAP4 ADD KECCAK256 SWAP2 MSTORE SLOAD PUSH1 0x1 PUSH1 0x1 PUSH1 0xA0 SHL SUB AND DUP2 JUMP JUMPDEST PUSH2 0x11F PUSH2 0x2CF CALLDATASIZE PUSH1 0x4 PUSH2 0x1AAF JUMP JUMPDEST PUSH2 0x10BF JUMP JUMPDEST PUSH2 0x2E7 PUSH2 0x2E2 CALLDATASIZE PUSH1 0x4 PUSH2 0x1992 JUMP JUMPDEST PUSH2 0x1393 JUMP JUMPDEST PUSH1 0x40 MLOAD PUSH2 0x17C SWAP5 SWAP4 SWAP3 SWAP2 SWAP1 PUSH2 0x1CDE JUMP JUMPDEST PUSH2 0x20C PUSH2 0x305 CALLDATASIZE PUSH1 0x4 PUSH2 0x1B76 JUMP JUMPDEST PUSH2 0x1459 JUMP JUMPDEST PUSH2 0x11F PUSH2 0x318 CALLDATASIZE PUSH1 0x4 PUSH2 0x193C JUMP JUMPDEST PUSH2 0x1469 JUMP JUMPDEST PUSH2 0x11F PUSH2 0x32B CALLDATASIZE PUSH1 0x4 PUSH2 0x1B8F JUMP JUMPDEST PUSH2 0x164A JUMP JUMPDEST PUSH1 0x1 DUP2 ISZERO ISZERO EQ ISZERO PUSH2 0x4CB JUMPI PUSH1 0x0 PUSH1 0xA DUP4 DUP2 SLOAD DUP2 LT PUSH2 0x350 JUMPI PUSH2 0x350 PUSH2 0x1EC1 JUMP JUMPDEST SWAP1 PUSH1 0x0 MSTORE PUSH1 0x20 PUSH1 0x0 KECCAK256 SWAP1 PUSH1 0x3 MUL ADD PUSH1 0x2 ADD PUSH1 0x0 PUSH2 0x100 EXP DUP2 SLOAD DUP2 PUSH1 0xFF MUL NOT AND SWAP1 DUP4 ISZERO ISZERO MUL OR SWAP1 SSTORE POP PUSH1 0x8 PUSH1 0xA DUP4 DUP2 SLOAD DUP2 LT PUSH2 0x38D JUMPI PUSH2 0x38D PUSH2 0x1EC1 JUMP JUMPDEST SWAP1 PUSH1 0x0 MSTORE PUSH1 0x20 PUSH1 0x0 KECCAK256 SWAP1 PUSH1 0x3 MUL ADD PUSH1 0x1 ADD PUSH1 0x40 MLOAD PUSH2 0x3AB SWAP2 SWAP1 PUSH2 0x1C0C JUMP JUMPDEST SWAP1 DUP2 MSTORE PUSH1 0x20 ADD PUSH1 0x40 MLOAD DUP1 SWAP2 SUB SWAP1 KECCAK256 PUSH1 0x2 ADD SLOAD PUSH1 0x4 PUSH1 0x0 PUSH1 0xA DUP6 DUP2 SLOAD DUP2 LT PUSH2 0x3D4 JUMPI PUSH2 0x3D4 PUSH2 0x1EC1 JUMP JUMPDEST PUSH1 0x0 SWAP2 DUP3 MSTORE PUSH1 0x20 DUP1 DUP4 KECCAK256 PUSH1 0x3 SWAP1 SWAP3 MUL SWAP1 SWAP2 ADD SLOAD PUSH1 0x1 PUSH1 0x1 PUSH1 0xA0 SHL SUB AND DUP4 MSTORE DUP3 ADD SWAP3 SWAP1 SWAP3 MSTORE PUSH1 0x40 ADD SWAP1 KECCAK256 PUSH1 0x2 ADD SLOAD PUSH2 0x40B SWAP2 SWAP1 PUSH2 0x1E12 JUMP JUMPDEST PUSH1 0x4 PUSH1 0x0 PUSH1 0xA DUP6 DUP2 SLOAD DUP2 LT PUSH2 0x422 JUMPI PUSH2 0x422 PUSH2 0x1EC1 JUMP JUMPDEST PUSH1 0x0 SWAP2 DUP3 MSTORE PUSH1 0x20 DUP1 DUP4 KECCAK256 PUSH1 0x3 SWAP1 SWAP3 MUL SWAP1 SWAP2 ADD SLOAD PUSH1 0x1 PUSH1 0x1 PUSH1 0xA0 SHL SUB AND DUP4 MSTORE DUP3 ADD SWAP3 SWAP1 SWAP3 MSTORE PUSH1 0x40 ADD SWAP1 KECCAK256 PUSH1 0x2 ADD SSTORE PUSH1 0xA DUP1 SLOAD PUSH1 0x8 SWAP2 SWAP1 DUP5 SWAP1 DUP2 LT PUSH2 0x467 JUMPI PUSH2 0x467 PUSH2 0x1EC1 JUMP JUMPDEST SWAP1 PUSH1 0x0 MSTORE PUSH1 0x20 PUSH1 0x0 KECCAK256 SWAP1 PUSH1 0x3 MUL ADD PUSH1 0x1 ADD PUSH1 0x40 MLOAD PUSH2 0x485 SWAP2 SWAP1 PUSH2 0x1C0C JUMP JUMPDEST SWAP1 DUP2 MSTORE PUSH1 0x40 DUP1 MLOAD PUSH1 0x20 SWAP3 DUP2 SWAP1 SUB DUP4 ADD SWAP1 KECCAK256 PUSH1 0x2 ADD SLOAD CALLER PUSH1 0x0 SWAP1 DUP2 MSTORE SWAP3 DUP4 SWAP1 MSTORE SWAP2 KECCAK256 PUSH1 0x3 ADD SLOAD PUSH2 0x4B4 SWAP2 SWAP1 PUSH2 0x1DD8 JUMP JUMPDEST CALLER PUSH1 0x0 SWAP1 DUP2 MSTORE PUSH1 0x20 DUP2 SWAP1 MSTORE PUSH1 0x40 SWAP1 KECCAK256 PUSH1 0x3 ADD SSTORE POP POP JUMP JUMPDEST PUSH1 0x0 PUSH1 0xA DUP4 DUP2 SLOAD DUP2 LT PUSH2 0x4E0 JUMPI PUSH2 0x4E0 PUSH2 0x1EC1 JUMP JUMPDEST PUSH1 0x0 SWAP2 DUP3 MSTORE PUSH1 0x20 SWAP1 SWAP2 KECCAK256 PUSH1 0x3 SWAP1 SWAP2 MUL ADD PUSH1 0x2 ADD DUP1 SLOAD PUSH1 0xFF NOT AND SWAP2 ISZERO ISZERO SWAP2 SWAP1 SWAP2 OR SWAP1 SSTORE POP POP JUMP JUMPDEST PUSH1 0x8 DUP2 PUSH1 0x40 MLOAD PUSH2 0x516 SWAP2 SWAP1 PUSH2 0x1BF0 JUMP JUMPDEST SWAP1 DUP2 MSTORE PUSH1 0x20 ADD PUSH1 0x40 MLOAD DUP1 SWAP2 SUB SWAP1 KECCAK256 PUSH1 0x2 ADD SLOAD PUSH1 0x4 PUSH1 0x0 CALLER PUSH1 0x1 PUSH1 0x1 PUSH1 0xA0 SHL SUB AND PUSH1 0x1 PUSH1 0x1 PUSH1 0xA0 SHL SUB AND DUP2 MSTORE PUSH1 0x20 ADD SWAP1 DUP2 MSTORE PUSH1 0x20 ADD PUSH1 0x0 KECCAK256 PUSH1 0x2 ADD SLOAD LT ISZERO PUSH2 0x597 JUMPI PUSH1 0x40 MLOAD PUSH3 0x461BCD PUSH1 0xE5 SHL DUP2 MSTORE PUSH1 0x20 PUSH1 0x4 DUP3 ADD MSTORE PUSH1 0x10 PUSH1 0x24 DUP3 ADD MSTORE PUSH16 0x6572726F723A206E6F74206D6F6E6579 PUSH1 0x80 SHL PUSH1 0x44 DUP3 ADD MSTORE PUSH1 0x64 ADD JUMPDEST PUSH1 0x40 MLOAD DUP1 SWAP2 SUB SWAP1 REVERT JUMPDEST PUSH1 0x40 DUP1 MLOAD PUSH1 0x60 DUP2 ADD DUP3 MSTORE CALLER DUP2 MSTORE PUSH1 0x20 DUP1 DUP3 ADD DUP5 DUP2 MSTORE PUSH1 0x1 SWAP4 DUP4 ADD DUP5 SWAP1 MSTORE PUSH1 0xA DUP1 SLOAD SWAP5 DUP6 ADD DUP2 SSTORE PUSH1 0x0 MSTORE DUP3 MLOAD PUSH32 0xC65A7BB8D6351C1CF70C95A316CC6A92839C986682D98BC35F958F4883F9D2A8 PUSH1 0x3 SWAP1 SWAP6 MUL SWAP5 DUP6 ADD DUP1 SLOAD PUSH1 0x1 PUSH1 0x1 PUSH1 0xA0 SHL SUB NOT AND PUSH1 0x1 PUSH1 0x1 PUSH1 0xA0 SHL SUB SWAP1 SWAP3 AND SWAP2 SWAP1 SWAP2 OR DUP2 SSTORE SWAP1 MLOAD DUP1 MLOAD SWAP4 SWAP5 SWAP2 SWAP4 PUSH2 0x643 SWAP4 PUSH32 0xC65A7BB8D6351C1CF70C95A316CC6A92839C986682D98BC35F958F4883F9D2A9 SWAP1 SWAP4 ADD SWAP3 SWAP2 SWAP1 SWAP2 ADD SWAP1 PUSH2 0x1743 JUMP JUMPDEST POP PUSH1 0x40 SWAP2 SWAP1 SWAP2 ADD MLOAD PUSH1 0x2 SWAP1 SWAP2 ADD DUP1 SLOAD PUSH1 0xFF NOT AND SWAP2 ISZERO ISZERO SWAP2 SWAP1 SWAP2 OR SWAP1 SSTORE POP JUMP JUMPDEST PUSH1 0x0 JUMPDEST PUSH1 0x3 SLOAD DUP2 LT ISZERO PUSH2 0x7C1 JUMPI PUSH1 0x0 PUSH1 0x3 DUP3 DUP2 SLOAD DUP2 LT PUSH2 0x684 JUMPI PUSH2 0x684 PUSH2 0x1EC1 JUMP JUMPDEST SWAP1 PUSH1 0x0 MSTORE PUSH1 0x20 PUSH1 0x0 KECCAK256 SWAP1 PUSH1 0x5 MUL ADD PUSH1 0x1 ADD DUP1 SLOAD PUSH2 0x6A0 SWAP1 PUSH2 0x1E55 JUMP JUMPDEST DUP1 PUSH1 0x1F ADD PUSH1 0x20 DUP1 SWAP2 DIV MUL PUSH1 0x20 ADD PUSH1 0x40 MLOAD SWAP1 DUP2 ADD PUSH1 0x40 MSTORE DUP1 SWAP3 SWAP2 SWAP1 DUP2 DUP2 MSTORE PUSH1 0x20 ADD DUP3 DUP1 SLOAD PUSH2 0x6CC SWAP1 PUSH2 0x1E55 JUMP JUMPDEST DUP1 ISZERO PUSH2 0x719 JUMPI DUP1 PUSH1 0x1F LT PUSH2 0x6EE JUMPI PUSH2 0x100 DUP1 DUP4 SLOAD DIV MUL DUP4 MSTORE SWAP2 PUSH1 0x20 ADD SWAP2 PUSH2 0x719 JUMP JUMPDEST DUP3 ADD SWAP2 SWAP1 PUSH1 0x0 MSTORE PUSH1 0x20 PUSH1 0x0 KECCAK256 SWAP1 JUMPDEST DUP2 SLOAD DUP2 MSTORE SWAP1 PUSH1 0x1 ADD SWAP1 PUSH1 0x20 ADD DUP1 DUP4 GT PUSH2 0x6FC JUMPI DUP3 SWAP1 SUB PUSH1 0x1F AND DUP3 ADD SWAP2 JUMPDEST POP POP POP POP POP SWAP1 POP DUP4 PUSH1 0x40 MLOAD PUSH1 0x20 ADD PUSH2 0x731 SWAP2 SWAP1 PUSH2 0x1BF0 JUMP JUMPDEST PUSH1 0x40 MLOAD PUSH1 0x20 DUP2 DUP4 SUB SUB DUP2 MSTORE SWAP1 PUSH1 0x40 MSTORE DUP1 MLOAD SWAP1 PUSH1 0x20 ADD KECCAK256 DUP2 PUSH1 0x40 MLOAD PUSH1 0x20 ADD PUSH2 0x758 SWAP2 SWAP1 PUSH2 0x1BF0 JUMP JUMPDEST PUSH1 0x40 MLOAD PUSH1 0x20 DUP2 DUP4 SUB SUB DUP2 MSTORE SWAP1 PUSH1 0x40 MSTORE DUP1 MLOAD SWAP1 PUSH1 0x20 ADD KECCAK256 EQ ISZERO PUSH2 0x7AE JUMPI DUP3 PUSH1 0x3 DUP4 DUP2 SLOAD DUP2 LT PUSH2 0x788 JUMPI PUSH2 0x788 PUSH2 0x1EC1 JUMP JUMPDEST SWAP1 PUSH1 0x0 MSTORE PUSH1 0x20 PUSH1 0x0 KECCAK256 SWAP1 PUSH1 0x5 MUL ADD PUSH1 0x4 ADD SWAP1 DUP1 MLOAD SWAP1 PUSH1 0x20 ADD SWAP1 PUSH2 0x7AC SWAP3 SWAP2 SWAP1 PUSH2 0x17C7 JUMP JUMPDEST POP JUMPDEST POP DUP1 PUSH2 0x7B9 DUP2 PUSH2 0x1E90 JUMP JUMPDEST SWAP2 POP POP PUSH2 0x665 JUMP JUMPDEST POP POP POP JUMP JUMPDEST PUSH1 0x1 DUP2 ISZERO ISZERO EQ ISZERO PUSH2 0x8E9 JUMPI PUSH1 0x0 PUSH1 0xB DUP4 DUP2 SLOAD DUP2 LT PUSH2 0x7E6 JUMPI PUSH2 0x7E6 PUSH2 0x1EC1 JUMP JUMPDEST SWAP1 PUSH1 0x0 MSTORE PUSH1 0x20 PUSH1 0x0 KECCAK256 SWAP1 PUSH1 0x3 MUL ADD PUSH1 0x2 ADD PUSH1 0x0 PUSH2 0x100 EXP DUP2 SLOAD DUP2 PUSH1 0xFF MUL NOT AND SWAP1 DUP4 ISZERO ISZERO MUL OR SWAP1 SSTORE POP PUSH1 0x8 PUSH1 0xB DUP4 DUP2 SLOAD DUP2 LT PUSH2 0x823 JUMPI PUSH2 0x823 PUSH2 0x1EC1 JUMP JUMPDEST SWAP1 PUSH1 0x0 MSTORE PUSH1 0x20 PUSH1 0x0 KECCAK256 SWAP1 PUSH1 0x3 MUL ADD PUSH1 0x1 ADD PUSH1 0x40 MLOAD PUSH2 0x841 SWAP2 SWAP1 PUSH2 0x1C0C JUMP JUMPDEST SWAP1 DUP2 MSTORE PUSH1 0x20 ADD PUSH1 0x40 MLOAD DUP1 SWAP2 SUB SWAP1 KECCAK256 PUSH1 0x2 ADD SLOAD PUSH1 0x4 PUSH1 0x0 PUSH1 0xB DUP6 DUP2 SLOAD DUP2 LT PUSH2 0x86A JUMPI PUSH2 0x86A PUSH2 0x1EC1 JUMP JUMPDEST PUSH1 0x0 SWAP2 DUP3 MSTORE PUSH1 0x20 DUP1 DUP4 KECCAK256 PUSH1 0x3 SWAP1 SWAP3 MUL SWAP1 SWAP2 ADD SLOAD PUSH1 0x1 PUSH1 0x1 PUSH1 0xA0 SHL SUB AND DUP4 MSTORE DUP3 ADD SWAP3 SWAP1 SWAP3 MSTORE PUSH1 0x40 ADD SWAP1 KECCAK256 PUSH1 0x2 ADD SLOAD PUSH2 0x8A1 SWAP2 SWAP1 PUSH2 0x1DD8 JUMP JUMPDEST PUSH1 0x4 PUSH1 0x0 PUSH1 0xB DUP6 DUP2 SLOAD DUP2 LT PUSH2 0x8B8 JUMPI PUSH2 0x8B8 PUSH2 0x1EC1 JUMP JUMPDEST PUSH1 0x0 SWAP2 DUP3 MSTORE PUSH1 0x20 DUP1 DUP4 KECCAK256 PUSH1 0x3 SWAP1 SWAP3 MUL SWAP1 SWAP2 ADD SLOAD PUSH1 0x1 PUSH1 0x1 PUSH1 0xA0 SHL SUB AND DUP4 MSTORE DUP3 ADD SWAP3 SWAP1 SWAP3 MSTORE PUSH1 0x40 ADD SWAP1 KECCAK256 PUSH1 0x2 ADD SSTORE POP POP JUMP JUMPDEST PUSH1 0x0 PUSH1 0xB DUP4 DUP2 SLOAD DUP2 LT PUSH2 0x4E0 JUMPI PUSH2 0x4E0 PUSH2 0x1EC1 JUMP JUMPDEST PUSH1 0x40 DUP1 MLOAD PUSH1 0x60 DUP2 ADD DUP3 MSTORE CALLER DUP2 MSTORE PUSH1 0x20 DUP1 DUP3 ADD DUP5 DUP2 MSTORE PUSH1 0x1 SWAP4 DUP4 ADD DUP5 SWAP1 MSTORE PUSH1 0xC DUP1 SLOAD SWAP5 DUP6 ADD DUP2 SSTORE PUSH1 0x0 MSTORE DUP3 MLOAD PUSH32 0xDF6966C971051C3D54EC59162606531493A51404A002842F56009D7E5CF4A8C7 PUSH1 0x3 SWAP1 SWAP6 MUL SWAP5 DUP6 ADD DUP1 SLOAD PUSH1 0x1 PUSH1 0x1 PUSH1 0xA0 SHL SUB NOT AND PUSH1 0x1 PUSH1 0x1 PUSH1 0xA0 SHL SUB SWAP1 SWAP3 AND SWAP2 SWAP1 SWAP2 OR DUP2 SSTORE SWAP1 MLOAD DUP1 MLOAD SWAP4 SWAP5 SWAP2 SWAP4 PUSH2 0x643 SWAP4 PUSH32 0xDF6966C971051C3D54EC59162606531493A51404A002842F56009D7E5CF4A8C8 SWAP1 SWAP4 ADD SWAP3 SWAP2 SWAP1 SWAP2 ADD SWAP1 PUSH2 0x1743 JUMP JUMPDEST PUSH1 0x60 PUSH1 0x9 DUP1 SLOAD DUP1 PUSH1 0x20 MUL PUSH1 0x20 ADD PUSH1 0x40 MLOAD SWAP1 DUP2 ADD PUSH1 0x40 MSTORE DUP1 SWAP3 SWAP2 SWAP1 DUP2 DUP2 MSTORE PUSH1 0x20 ADD PUSH1 0x0 SWAP1 JUMPDEST DUP3 DUP3 LT ISZERO PUSH2 0xA7A JUMPI DUP4 DUP3 SWAP1 PUSH1 0x0 MSTORE PUSH1 0x20 PUSH1 0x0 KECCAK256 ADD DUP1 SLOAD PUSH2 0x9ED SWAP1 PUSH2 0x1E55 JUMP JUMPDEST DUP1 PUSH1 0x1F ADD PUSH1 0x20 DUP1 SWAP2 DIV MUL PUSH1 0x20 ADD PUSH1 0x40 MLOAD SWAP1 DUP2 ADD PUSH1 0x40 MSTORE DUP1 SWAP3 SWAP2 SWAP1 DUP2 DUP2 MSTORE PUSH1 0x20 ADD DUP3 DUP1 SLOAD PUSH2 0xA19 SWAP1 PUSH2 0x1E55 JUMP JUMPDEST DUP1 ISZERO PUSH2 0xA66 JUMPI DUP1 PUSH1 0x1F LT PUSH2 0xA3B JUMPI PUSH2 0x100 DUP1 DUP4 SLOAD DIV MUL DUP4 MSTORE SWAP2 PUSH1 0x20 ADD SWAP2 PUSH2 0xA66 JUMP JUMPDEST DUP3 ADD SWAP2 SWAP1 PUSH1 0x0 MSTORE PUSH1 0x20 PUSH1 0x0 KECCAK256 SWAP1 JUMPDEST DUP2 SLOAD DUP2 MSTORE SWAP1 PUSH1 0x1 ADD SWAP1 PUSH1 0x20 ADD DUP1 DUP4 GT PUSH2 0xA49 JUMPI DUP3 SWAP1 SUB PUSH1 0x1F AND DUP3 ADD SWAP2 JUMPDEST POP POP POP POP POP DUP2 MSTORE PUSH1 0x20 ADD SWAP1 PUSH1 0x1 ADD SWAP1 PUSH2 0x9CE JUMP JUMPDEST POP POP POP POP SWAP1 POP SWAP1 JUMP JUMPDEST PUSH1 0x0 PUSH1 0x5 DUP3 PUSH1 0x40 MLOAD PUSH2 0xA95 SWAP2 SWAP1 PUSH2 0x1BF0 JUMP JUMPDEST SWAP1 DUP2 MSTORE PUSH1 0x40 MLOAD SWAP1 DUP2 SWAP1 SUB PUSH1 0x20 ADD SWAP1 KECCAK256 SLOAD PUSH1 0x1 PUSH1 0x1 PUSH1 0xA0 SHL SUB AND SWAP3 SWAP2 POP POP JUMP JUMPDEST PUSH1 0x40 MLOAD DUP1 PUSH1 0x80 ADD PUSH1 0x40 MSTORE DUP1 CALLER PUSH1 0x1 PUSH1 0x1 PUSH1 0xA0 SHL SUB AND DUP2 MSTORE PUSH1 0x20 ADD DUP3 DUP2 MSTORE PUSH1 0x20 ADD DUP4 DUP2 MSTORE PUSH1 0x20 ADD PUSH1 0xD SLOAD DUP2 MSTORE POP PUSH1 0x8 DUP5 PUSH1 0x40 MLOAD PUSH2 0xAF0 SWAP2 SWAP1 PUSH2 0x1BF0 JUMP JUMPDEST SWAP1 DUP2 MSTORE PUSH1 0x40 MLOAD PUSH1 0x20 SWAP2 DUP2 SWAP1 SUB DUP3 ADD SWAP1 KECCAK256 DUP3 MLOAD DUP2 SLOAD PUSH1 0x1 PUSH1 0x1 PUSH1 0xA0 SHL SUB NOT AND PUSH1 0x1 PUSH1 0x1 PUSH1 0xA0 SHL SUB SWAP1 SWAP2 AND OR DUP2 SSTORE DUP3 DUP3 ADD MLOAD DUP1 MLOAD SWAP2 SWAP3 PUSH2 0xB36 SWAP3 PUSH1 0x1 DUP6 ADD SWAP3 SWAP1 SWAP2 ADD SWAP1 PUSH2 0x1743 JUMP JUMPDEST POP PUSH1 0x40 DUP3 ADD MLOAD PUSH1 0x2 DUP3 ADD SSTORE PUSH1 0x60 SWAP1 SWAP2 ADD MLOAD PUSH1 0x3 SWAP1 SWAP2 ADD SSTORE PUSH1 0x9 DUP1 SLOAD PUSH1 0x1 DUP2 ADD DUP3 SSTORE PUSH1 0x0 SWAP2 SWAP1 SWAP2 MSTORE DUP4 MLOAD PUSH2 0xB90 SWAP2 PUSH32 0x6E1540171B6C0C960B71A7020D9F60077F6AF931A8BBF590DA0223DACF75C7AF ADD SWAP1 PUSH1 0x20 DUP7 ADD SWAP1 PUSH2 0x1743 JUMP JUMPDEST POP PUSH1 0xD DUP1 SLOAD SWAP1 PUSH1 0x0 PUSH2 0xBA1 DUP4 PUSH2 0x1E90 JUMP JUMPDEST SWAP2 SWAP1 POP SSTORE POP POP POP POP JUMP JUMPDEST PUSH1 0xC DUP2 DUP2 SLOAD DUP2 LT PUSH2 0xBBB JUMPI PUSH1 0x0 DUP1 REVERT JUMPDEST PUSH1 0x0 SWAP2 DUP3 MSTORE PUSH1 0x20 SWAP1 SWAP2 KECCAK256 PUSH1 0x3 SWAP1 SWAP2 MUL ADD DUP1 SLOAD PUSH1 0x1 DUP3 ADD DUP1 SLOAD PUSH1 0x1 PUSH1 0x1 PUSH1 0xA0 SHL SUB SWAP1 SWAP3 AND SWAP4 POP SWAP1 PUSH2 0xBEA SWAP1 PUSH2 0x1E55 JUMP JUMPDEST DUP1 PUSH1 0x1F ADD PUSH1 0x20 DUP1 SWAP2 DIV MUL PUSH1 0x20 ADD PUSH1 0x40 MLOAD SWAP1 DUP2 ADD PUSH1 0x40 MSTORE DUP1 SWAP3 SWAP2 SWAP1 DUP2 DUP2 MSTORE PUSH1 0x20 ADD DUP3 DUP1 SLOAD PUSH2 0xC16 SWAP1 PUSH2 0x1E55 JUMP JUMPDEST DUP1 ISZERO PUSH2 0xC63 JUMPI DUP1 PUSH1 0x1F LT PUSH2 0xC38 JUMPI PUSH2 0x100 DUP1 DUP4 SLOAD DIV MUL DUP4 MSTORE SWAP2 PUSH1 0x20 ADD SWAP2 PUSH2 0xC63 JUMP JUMPDEST DUP3 ADD SWAP2 SWAP1 PUSH1 0x0 MSTORE PUSH1 0x20 PUSH1 0x0 KECCAK256 SWAP1 JUMPDEST DUP2 SLOAD DUP2 MSTORE SWAP1 PUSH1 0x1 ADD SWAP1 PUSH1 0x20 ADD DUP1 DUP4 GT PUSH2 0xC46 JUMPI DUP3 SWAP1 SUB PUSH1 0x1F AND DUP3 ADD SWAP2 JUMPDEST POP POP POP PUSH1 0x2 SWAP1 SWAP4 ADD SLOAD SWAP2 SWAP3 POP POP PUSH1 0xFF AND DUP4 JUMP JUMPDEST PUSH1 0x4 PUSH1 0x20 MSTORE PUSH1 0x0 SWAP1 DUP2 MSTORE PUSH1 0x40 SWAP1 KECCAK256 DUP1 SLOAD DUP2 SWAP1 PUSH2 0xC91 SWAP1 PUSH2 0x1E55 JUMP JUMPDEST DUP1 PUSH1 0x1F ADD PUSH1 0x20 DUP1 SWAP2 DIV MUL PUSH1 0x20 ADD PUSH1 0x40 MLOAD SWAP1 DUP2 ADD PUSH1 0x40 MSTORE DUP1 SWAP3 SWAP2 SWAP1 DUP2 DUP2 MSTORE PUSH1 0x20 ADD DUP3 DUP1 SLOAD PUSH2 0xCBD SWAP1 PUSH2 0x1E55 JUMP JUMPDEST DUP1 ISZERO PUSH2 0xD0A JUMPI DUP1 PUSH1 0x1F LT PUSH2 0xCDF JUMPI PUSH2 0x100 DUP1 DUP4 SLOAD DIV MUL DUP4 MSTORE SWAP2 PUSH1 0x20 ADD SWAP2 PUSH2 0xD0A JUMP JUMPDEST DUP3 ADD SWAP2 SWAP1 PUSH1 0x0 MSTORE PUSH1 0x20 PUSH1 0x0 KECCAK256 SWAP1 JUMPDEST DUP2 SLOAD DUP2 MSTORE SWAP1 PUSH1 0x1 ADD SWAP1 PUSH1 0x20 ADD DUP1 DUP4 GT PUSH2 0xCED JUMPI DUP3 SWAP1 SUB PUSH1 0x1F AND DUP3 ADD SWAP2 JUMPDEST POP POP POP POP PUSH1 0x1 DUP4 ADD SLOAD PUSH1 0x2 DUP5 ADD SLOAD PUSH1 0x3 SWAP1 SWAP5 ADD SLOAD SWAP3 SWAP4 SWAP1 SWAP3 SWAP1 SWAP2 POP PUSH1 0xFF AND DUP5 JUMP JUMPDEST PUSH1 0x0 DUP1 DUP1 DUP1 JUMPDEST PUSH1 0x2 SLOAD DUP2 LT ISZERO PUSH2 0xF16 JUMPI PUSH1 0x0 PUSH1 0x2 DUP3 DUP2 SLOAD DUP2 LT PUSH2 0xD50 JUMPI PUSH2 0xD50 PUSH2 0x1EC1 JUMP JUMPDEST SWAP1 PUSH1 0x0 MSTORE PUSH1 0x20 PUSH1 0x0 KECCAK256 ADD DUP1 SLOAD PUSH2 0xD65 SWAP1 PUSH2 0x1E55 JUMP JUMPDEST DUP1 PUSH1 0x1F ADD PUSH1 0x20 DUP1 SWAP2 DIV MUL PUSH1 0x20 ADD PUSH1 0x40 MLOAD SWAP1 DUP2 ADD PUSH1 0x40 MSTORE DUP1 SWAP3 SWAP2 SWAP1 DUP2 DUP2 MSTORE PUSH1 0x20 ADD DUP3 DUP1 SLOAD PUSH2 0xD91 SWAP1 PUSH2 0x1E55 JUMP JUMPDEST DUP1 ISZERO PUSH2 0xDDE JUMPI DUP1 PUSH1 0x1F LT PUSH2 0xDB3 JUMPI PUSH2 0x100 DUP1 DUP4 SLOAD DIV MUL DUP4 MSTORE SWAP2 PUSH1 0x20 ADD SWAP2 PUSH2 0xDDE JUMP JUMPDEST DUP3 ADD SWAP2 SWAP1 PUSH1 0x0 MSTORE PUSH1 0x20 PUSH1 0x0 KECCAK256 SWAP1 JUMPDEST DUP2 SLOAD DUP2 MSTORE SWAP1 PUSH1 0x1 ADD SWAP1 PUSH1 0x20 ADD DUP1 DUP4 GT PUSH2 0xDC1 JUMPI DUP3 SWAP1 SUB PUSH1 0x1F AND DUP3 ADD SWAP2 JUMPDEST POP POP POP POP POP SWAP1 POP DUP6 PUSH1 0x40 MLOAD PUSH1 0x20 ADD PUSH2 0xDF6 SWAP2 SWAP1 PUSH2 0x1BF0 JUMP JUMPDEST PUSH1 0x40 MLOAD PUSH1 0x20 DUP2 DUP4 SUB SUB DUP2 MSTORE SWAP1 PUSH1 0x40 MSTORE DUP1 MLOAD SWAP1 PUSH1 0x20 ADD KECCAK256 DUP2 PUSH1 0x40 MLOAD PUSH1 0x20 ADD PUSH2 0xE1D SWAP2 SWAP1 PUSH2 0x1BF0 JUMP JUMPDEST PUSH1 0x40 MLOAD PUSH1 0x20 DUP2 DUP4 SUB SUB DUP2 MSTORE SWAP1 PUSH1 0x40 MSTORE DUP1 MLOAD SWAP1 PUSH1 0x20 ADD KECCAK256 EQ ISZERO PUSH2 0xF03 JUMPI PUSH1 0x0 SWAP2 POP JUMPDEST PUSH1 0x3 SLOAD DUP3 GT PUSH2 0xF03 JUMPI PUSH1 0x3 DUP3 DUP2 SLOAD DUP2 LT PUSH2 0xE5A JUMPI PUSH2 0xE5A PUSH2 0x1EC1 JUMP JUMPDEST SWAP1 PUSH1 0x0 MSTORE PUSH1 0x20 PUSH1 0x0 KECCAK256 SWAP1 PUSH1 0x5 MUL ADD PUSH1 0x0 ADD PUSH1 0x40 MLOAD PUSH1 0x20 ADD PUSH2 0xE7B SWAP2 SWAP1 PUSH2 0x1C0C JUMP JUMPDEST PUSH1 0x40 MLOAD PUSH1 0x20 DUP2 DUP4 SUB SUB DUP2 MSTORE SWAP1 PUSH1 0x40 MSTORE DUP1 MLOAD SWAP1 PUSH1 0x20 ADD KECCAK256 DUP7 PUSH1 0x40 MLOAD PUSH1 0x20 ADD PUSH2 0xEA2 SWAP2 SWAP1 PUSH2 0x1BF0 JUMP JUMPDEST PUSH1 0x40 MLOAD PUSH1 0x20 DUP2 DUP4 SUB SUB DUP2 MSTORE SWAP1 PUSH1 0x40 MSTORE DUP1 MLOAD SWAP1 PUSH1 0x20 ADD KECCAK256 EQ ISZERO PUSH2 0xEF1 JUMPI PUSH1 0x3 DUP3 DUP2 SLOAD DUP2 LT PUSH2 0xED1 JUMPI PUSH2 0xED1 PUSH2 0x1EC1 JUMP JUMPDEST SWAP1 PUSH1 0x0 MSTORE PUSH1 0x20 PUSH1 0x0 KECCAK256 SWAP1 PUSH1 0x5 MUL ADD PUSH1 0x3 ADD SLOAD DUP4 PUSH2 0xEEE SWAP2 SWAP1 PUSH2 0x1DD8 JUMP JUMPDEST SWAP3 POP JUMPDEST DUP2 PUSH2 0xEFB DUP2 PUSH2 0x1E90 JUMP JUMPDEST SWAP3 POP POP PUSH2 0xE3E JUMP JUMPDEST POP DUP1 PUSH2 0xF0E DUP2 PUSH2 0x1E90 JUMP JUMPDEST SWAP2 POP POP PUSH2 0xD31 JUMP JUMPDEST POP PUSH2 0xF21 DUP3 DUP3 PUSH2 0x1DF0 JUMP JUMPDEST PUSH2 0xF2B SWAP1 DUP3 PUSH2 0x1DD8 JUMP JUMPDEST SWAP5 SWAP4 POP POP POP POP JUMP JUMPDEST PUSH1 0xB DUP2 DUP2 SLOAD DUP2 LT PUSH2 0xBBB JUMPI PUSH1 0x0 DUP1 REVERT JUMPDEST PUSH1 0x40 DUP1 MLOAD PUSH1 0x60 DUP2 ADD DUP3 MSTORE CALLER DUP2 MSTORE PUSH1 0x20 DUP1 DUP3 ADD DUP5 DUP2 MSTORE PUSH1 0x1 SWAP4 DUP4 ADD DUP5 SWAP1 MSTORE PUSH1 0xB DUP1 SLOAD SWAP5 DUP6 ADD DUP2 SSTORE PUSH1 0x0 MSTORE DUP3 MLOAD PUSH32 0x175B7A638427703F0DBE7BB9BBF987A2551717B34E79F33B5B1008D1FA01DB9 PUSH1 0x3 SWAP1 SWAP6 MUL SWAP5 DUP6 ADD DUP1 SLOAD PUSH1 0x1 PUSH1 0x1 PUSH1 0xA0 SHL SUB NOT AND PUSH1 0x1 PUSH1 0x1 PUSH1 0xA0 SHL SUB SWAP1 SWAP3 AND SWAP2 SWAP1 SWAP2 OR DUP2 SSTORE SWAP1 MLOAD DUP1 MLOAD SWAP4 SWAP5 SWAP2 SWAP4 PUSH2 0x643 SWAP4 PUSH32 0x175B7A638427703F0DBE7BB9BBF987A2551717B34E79F33B5B1008D1FA01DBA SWAP1 SWAP4 ADD SWAP3 SWAP2 SWAP1 SWAP2 ADD SWAP1 PUSH2 0x1743 JUMP JUMPDEST PUSH1 0x60 PUSH1 0x2 DUP1 SLOAD DUP1 PUSH1 0x20 MUL PUSH1 0x20 ADD PUSH1 0x40 MLOAD SWAP1 DUP2 ADD PUSH1 0x40 MSTORE DUP1 SWAP3 SWAP2 SWAP1 DUP2 DUP2 MSTORE PUSH1 0x20 ADD PUSH1 0x0 SWAP1 JUMPDEST DUP3 DUP3 LT ISZERO PUSH2 0xA7A JUMPI DUP4 DUP3 SWAP1 PUSH1 0x0 MSTORE PUSH1 0x20 PUSH1 0x0 KECCAK256 ADD DUP1 SLOAD PUSH2 0x1032 SWAP1 PUSH2 0x1E55 JUMP JUMPDEST DUP1 PUSH1 0x1F ADD PUSH1 0x20 DUP1 SWAP2 DIV MUL PUSH1 0x20 ADD PUSH1 0x40 MLOAD SWAP1 DUP2 ADD PUSH1 0x40 MSTORE DUP1 SWAP3 SWAP2 SWAP1 DUP2 DUP2 MSTORE PUSH1 0x20 ADD DUP3 DUP1 SLOAD PUSH2 0x105E SWAP1 PUSH2 0x1E55 JUMP JUMPDEST DUP1 ISZERO PUSH2 0x10AB JUMPI DUP1 PUSH1 0x1F LT PUSH2 0x1080 JUMPI PUSH2 0x100 DUP1 DUP4 SLOAD DIV MUL DUP4 MSTORE SWAP2 PUSH1 0x20 ADD SWAP2 PUSH2 0x10AB JUMP JUMPDEST DUP3 ADD SWAP2 SWAP1 PUSH1 0x0 MSTORE PUSH1 0x20 PUSH1 0x0 KECCAK256 SWAP1 JUMPDEST DUP2 SLOAD DUP2 MSTORE SWAP1 PUSH1 0x1 ADD SWAP1 PUSH1 0x20 ADD DUP1 DUP4 GT PUSH2 0x108E JUMPI DUP3 SWAP1 SUB PUSH1 0x1F AND DUP3 ADD SWAP2 JUMPDEST POP POP POP POP POP DUP2 MSTORE PUSH1 0x20 ADD SWAP1 PUSH1 0x1 ADD SWAP1 PUSH2 0x1013 JUMP JUMPDEST PUSH1 0xA DUP2 GT ISZERO PUSH2 0x111A JUMPI PUSH1 0x40 MLOAD PUSH3 0x461BCD PUSH1 0xE5 SHL DUP2 MSTORE PUSH1 0x20 PUSH1 0x4 DUP3 ADD MSTORE PUSH1 0x21 PUSH1 0x24 DUP3 ADD MSTORE PUSH32 0x6572726F723A20726174696E672063616E2062652066726F6D203120746F2031 PUSH1 0x44 DUP3 ADD MSTORE PUSH1 0x3 PUSH1 0xFC SHL PUSH1 0x64 DUP3 ADD MSTORE PUSH1 0x84 ADD PUSH2 0x58E JUMP JUMPDEST PUSH1 0x0 JUMPDEST PUSH1 0x2 SLOAD DUP2 GT PUSH2 0x138D JUMPI PUSH1 0x0 PUSH1 0x2 DUP3 DUP2 SLOAD DUP2 LT PUSH2 0x113B JUMPI PUSH2 0x113B PUSH2 0x1EC1 JUMP JUMPDEST SWAP1 PUSH1 0x0 MSTORE PUSH1 0x20 PUSH1 0x0 KECCAK256 ADD DUP1 SLOAD PUSH2 0x1150 SWAP1 PUSH2 0x1E55 JUMP JUMPDEST DUP1 PUSH1 0x1F ADD PUSH1 0x20 DUP1 SWAP2 DIV MUL PUSH1 0x20 ADD PUSH1 0x40 MLOAD SWAP1 DUP2 ADD PUSH1 0x40 MSTORE DUP1 SWAP3 SWAP2 SWAP1 DUP2 DUP2 MSTORE PUSH1 0x20 ADD DUP3 DUP1 SLOAD PUSH2 0x117C SWAP1 PUSH2 0x1E55 JUMP JUMPDEST DUP1 ISZERO PUSH2 0x11C9 JUMPI DUP1 PUSH1 0x1F LT PUSH2 0x119E JUMPI PUSH2 0x100 DUP1 DUP4 SLOAD DIV MUL DUP4 MSTORE SWAP2 PUSH1 0x20 ADD SWAP2 PUSH2 0x11C9 JUMP JUMPDEST DUP3 ADD SWAP2 SWAP1 PUSH1 0x0 MSTORE PUSH1 0x20 PUSH1 0x0 KECCAK256 SWAP1 JUMPDEST DUP2 SLOAD DUP2 MSTORE SWAP1 PUSH1 0x1 ADD SWAP1 PUSH1 0x20 ADD DUP1 DUP4 GT PUSH2 0x11AC JUMPI DUP3 SWAP1 SUB PUSH1 0x1F AND DUP3 ADD SWAP2 JUMPDEST POP POP POP POP POP SWAP1 POP DUP5 PUSH1 0x40 MLOAD PUSH1 0x20 ADD PUSH2 0x11E1 SWAP2 SWAP1 PUSH2 0x1BF0 JUMP JUMPDEST PUSH1 0x40 MLOAD PUSH1 0x20 DUP2 DUP4 SUB SUB DUP2 MSTORE SWAP1 PUSH1 0x40 MSTORE DUP1 MLOAD SWAP1 PUSH1 0x20 ADD KECCAK256 DUP2 PUSH1 0x40 MLOAD PUSH1 0x20 ADD PUSH2 0x1208 SWAP2 SWAP1 PUSH2 0x1BF0 JUMP JUMPDEST PUSH1 0x40 MLOAD PUSH1 0x20 DUP2 DUP4 SUB SUB DUP2 MSTORE SWAP1 PUSH1 0x40 MSTORE DUP1 MLOAD SWAP1 PUSH1 0x20 ADD KECCAK256 EQ ISZERO PUSH2 0x137A JUMPI PUSH1 0x40 DUP1 MLOAD PUSH1 0xA0 DUP2 ADD DUP3 MSTORE DUP7 DUP2 MSTORE CALLER PUSH1 0x0 SWAP1 DUP2 MSTORE PUSH1 0x4 PUSH1 0x20 SWAP1 DUP2 MSTORE SWAP3 SWAP1 KECCAK256 DUP1 SLOAD PUSH1 0x60 SWAP4 PUSH1 0x3 SWAP4 SWAP3 SWAP1 DUP4 ADD SWAP2 PUSH2 0x1257 SWAP1 PUSH2 0x1E55 JUMP JUMPDEST DUP1 PUSH1 0x1F ADD PUSH1 0x20 DUP1 SWAP2 DIV MUL PUSH1 0x20 ADD PUSH1 0x40 MLOAD SWAP1 DUP2 ADD PUSH1 0x40 MSTORE DUP1 SWAP3 SWAP2 SWAP1 DUP2 DUP2 MSTORE PUSH1 0x20 ADD DUP3 DUP1 SLOAD PUSH2 0x1283 SWAP1 PUSH2 0x1E55 JUMP JUMPDEST DUP1 ISZERO PUSH2 0x12D0 JUMPI DUP1 PUSH1 0x1F LT PUSH2 0x12A5 JUMPI PUSH2 0x100 DUP1 DUP4 SLOAD DIV MUL DUP4 MSTORE SWAP2 PUSH1 0x20 ADD SWAP2 PUSH2 0x12D0 JUMP JUMPDEST DUP3 ADD SWAP2 SWAP1 PUSH1 0x0 MSTORE PUSH1 0x20 PUSH1 0x0 KECCAK256 SWAP1 JUMPDEST DUP2 SLOAD DUP2 MSTORE SWAP1 PUSH1 0x1 ADD SWAP1 PUSH1 0x20 ADD DUP1 DUP4 GT PUSH2 0x12B3 JUMPI DUP3 SWAP1 SUB PUSH1 0x1F AND DUP3 ADD SWAP2 JUMPDEST POP POP POP SWAP2 DUP4 MSTORE POP POP PUSH1 0x20 DUP1 DUP3 ADD DUP10 SWAP1 MSTORE PUSH1 0x40 DUP3 ADD DUP9 SWAP1 MSTORE PUSH1 0x60 SWAP1 SWAP2 ADD DUP5 SWAP1 MSTORE DUP3 SLOAD PUSH1 0x1 DUP2 ADD DUP5 SSTORE PUSH1 0x0 SWAP4 DUP5 MSTORE SWAP3 DUP2 SWAP1 KECCAK256 DUP3 MLOAD DUP1 MLOAD SWAP4 SWAP5 PUSH1 0x5 MUL SWAP1 SWAP2 ADD SWAP3 PUSH2 0x131A SWAP3 DUP5 SWAP3 ADD SWAP1 PUSH2 0x1743 JUMP JUMPDEST POP PUSH1 0x20 DUP3 DUP2 ADD MLOAD DUP1 MLOAD PUSH2 0x1333 SWAP3 PUSH1 0x1 DUP6 ADD SWAP3 ADD SWAP1 PUSH2 0x1743 JUMP JUMPDEST POP PUSH1 0x40 DUP3 ADD MLOAD DUP1 MLOAD PUSH2 0x134F SWAP2 PUSH1 0x2 DUP5 ADD SWAP2 PUSH1 0x20 SWAP1 SWAP2 ADD SWAP1 PUSH2 0x1743 JUMP JUMPDEST POP PUSH1 0x60 DUP3 ADD MLOAD PUSH1 0x3 DUP3 ADD SSTORE PUSH1 0x80 DUP3 ADD MLOAD DUP1 MLOAD PUSH2 0x1375 SWAP2 PUSH1 0x4 DUP5 ADD SWAP2 PUSH1 0x20 SWAP1 SWAP2 ADD SWAP1 PUSH2 0x17C7 JUMP JUMPDEST POP POP POP POP JUMPDEST POP DUP1 PUSH2 0x1385 DUP2 PUSH2 0x1E90 JUMP JUMPDEST SWAP2 POP POP PUSH2 0x111D JUMP JUMPDEST POP POP POP POP JUMP JUMPDEST DUP1 MLOAD PUSH1 0x20 DUP2 DUP4 ADD DUP2 ADD DUP1 MLOAD PUSH1 0x8 DUP3 MSTORE SWAP3 DUP3 ADD SWAP2 SWAP1 SWAP4 ADD KECCAK256 SWAP2 MSTORE DUP1 SLOAD PUSH1 0x1 DUP3 ADD DUP1 SLOAD PUSH1 0x1 PUSH1 0x1 PUSH1 0xA0 SHL SUB SWAP1 SWAP3 AND SWAP3 SWAP2 PUSH2 0x13CA SWAP1 PUSH2 0x1E55 JUMP JUMPDEST DUP1 PUSH1 0x1F ADD PUSH1 0x20 DUP1 SWAP2 DIV MUL PUSH1 0x20 ADD PUSH1 0x40 MLOAD SWAP1 DUP2 ADD PUSH1 0x40 MSTORE DUP1 SWAP3 SWAP2 SWAP1 DUP2 DUP2 MSTORE PUSH1 0x20 ADD DUP3 DUP1 SLOAD PUSH2 0x13F6 SWAP1 PUSH2 0x1E55 JUMP JUMPDEST DUP1 ISZERO PUSH2 0x1443 JUMPI DUP1 PUSH1 0x1F LT PUSH2 0x1418 JUMPI PUSH2 0x100 DUP1 DUP4 SLOAD DIV MUL DUP4 MSTORE SWAP2 PUSH1 0x20 ADD SWAP2 PUSH2 0x1443 JUMP JUMPDEST DUP3 ADD SWAP2 SWAP1 PUSH1 0x0 MSTORE PUSH1 0x20 PUSH1 0x0 KECCAK256 SWAP1 JUMPDEST DUP2 SLOAD DUP2 MSTORE SWAP1 PUSH1 0x1 ADD SWAP1 PUSH1 0x20 ADD DUP1 DUP4 GT PUSH2 0x1426 JUMPI DUP3 SWAP1 SUB PUSH1 0x1F AND DUP3 ADD SWAP2 JUMPDEST POP POP POP POP POP SWAP1 DUP1 PUSH1 0x2 ADD SLOAD SWAP1 DUP1 PUSH1 0x3 ADD SLOAD SWAP1 POP DUP5 JUMP JUMPDEST PUSH1 0xA DUP2 DUP2 SLOAD DUP2 LT PUSH2 0xBBB JUMPI PUSH1 0x0 DUP1 REVERT JUMPDEST PUSH20 0x9C35A9BDF790A5CE09B353B1C765269AB466BAAD CALLER EQ PUSH2 0x14CC JUMPI PUSH1 0x40 MLOAD PUSH3 0x461BCD PUSH1 0xE5 SHL DUP2 MSTORE PUSH1 0x20 PUSH1 0x4 DUP3 ADD MSTORE PUSH1 0x1D PUSH1 0x24 DUP3 ADD MSTORE PUSH32 0x4572726F723A20596F75206E6F742061207A65726F206163636F756E74000000 PUSH1 0x44 DUP3 ADD MSTORE PUSH1 0x64 ADD PUSH2 0x58E JUMP JUMPDEST PUSH1 0x0 PUSH1 0x1 PUSH1 0x1 PUSH1 0xA0 SHL SUB AND PUSH1 0x5 DUP4 PUSH1 0x40 MLOAD PUSH2 0x14E7 SWAP2 SWAP1 PUSH2 0x1BF0 JUMP JUMPDEST SWAP1 DUP2 MSTORE PUSH1 0x40 MLOAD SWAP1 DUP2 SWAP1 SUB PUSH1 0x20 ADD SWAP1 KECCAK256 SLOAD PUSH1 0x1 PUSH1 0x1 PUSH1 0xA0 SHL SUB AND EQ PUSH2 0x1549 JUMPI PUSH1 0x40 MLOAD PUSH3 0x461BCD PUSH1 0xE5 SHL DUP2 MSTORE PUSH1 0x20 PUSH1 0x4 DUP3 ADD MSTORE PUSH1 0x19 PUSH1 0x24 DUP3 ADD MSTORE PUSH25 0x115C9C9BDC8E88155CD95C88185B1C9958591E48195E1A5CDD PUSH1 0x3A SHL PUSH1 0x44 DUP3 ADD MSTORE PUSH1 0x64 ADD PUSH2 0x58E JUMP JUMPDEST PUSH1 0x40 DUP1 MLOAD PUSH1 0x80 DUP2 ADD DUP3 MSTORE DUP4 DUP2 MSTORE PUSH1 0x20 DUP1 DUP3 ADD DUP5 SWAP1 MSTORE PUSH2 0x3E8 DUP3 DUP5 ADD MSTORE PUSH1 0x1 PUSH1 0x60 DUP4 ADD MSTORE PUSH1 0x1 PUSH1 0x1 PUSH1 0xA0 SHL SUB DUP7 AND PUSH1 0x0 SWAP1 DUP2 MSTORE PUSH1 0x4 DUP3 MSTORE SWAP3 SWAP1 SWAP3 KECCAK256 DUP2 MLOAD DUP1 MLOAD SWAP3 SWAP4 SWAP2 SWAP3 PUSH2 0x1598 SWAP3 DUP5 SWAP3 ADD SWAP1 PUSH2 0x1743 JUMP JUMPDEST POP PUSH1 0x20 DUP3 ADD MLOAD PUSH1 0x1 DUP3 ADD SSTORE PUSH1 0x40 DUP1 DUP4 ADD MLOAD PUSH1 0x2 DUP4 ADD SSTORE PUSH1 0x60 SWAP1 SWAP3 ADD MLOAD PUSH1 0x3 SWAP1 SWAP2 ADD DUP1 SLOAD PUSH1 0xFF NOT AND SWAP2 ISZERO ISZERO SWAP2 SWAP1 SWAP2 OR SWAP1 SSTORE MLOAD DUP4 SWAP1 PUSH1 0x5 SWAP1 PUSH2 0x15D9 SWAP1 DUP6 SWAP1 PUSH2 0x1BF0 JUMP JUMPDEST SWAP1 DUP2 MSTORE PUSH1 0x40 MLOAD SWAP1 DUP2 SWAP1 SUB PUSH1 0x20 ADD SWAP1 KECCAK256 DUP1 SLOAD PUSH1 0x1 PUSH1 0x1 PUSH1 0xA0 SHL SUB SWAP3 DUP4 AND PUSH1 0x1 PUSH1 0x1 PUSH1 0xA0 SHL SUB NOT SWAP2 DUP3 AND OR SWAP1 SWAP2 SSTORE PUSH1 0x7 DUP1 SLOAD PUSH1 0x1 DUP2 ADD DUP3 SSTORE PUSH1 0x0 SWAP2 SWAP1 SWAP2 MSTORE PUSH32 0xA66CC928B5EDB82AF9BD49922954155AB7B0942694BEA4CE44661D9A8736C688 ADD DUP1 SLOAD SWAP6 SWAP1 SWAP3 AND SWAP5 AND SWAP4 SWAP1 SWAP4 OR SWAP1 SWAP3 SSTORE POP POP JUMP JUMPDEST PUSH1 0x1 DUP2 ISZERO ISZERO EQ ISZERO PUSH2 0x8E9 JUMPI PUSH1 0x8 PUSH1 0xC DUP4 DUP2 SLOAD DUP2 LT PUSH2 0x166A JUMPI PUSH2 0x166A PUSH2 0x1EC1 JUMP JUMPDEST SWAP1 PUSH1 0x0 MSTORE PUSH1 0x20 PUSH1 0x0 KECCAK256 SWAP1 PUSH1 0x3 MUL ADD PUSH1 0x1 ADD PUSH1 0x40 MLOAD PUSH2 0x1688 SWAP2 SWAP1 PUSH2 0x1C0C JUMP JUMPDEST SWAP1 DUP2 MSTORE PUSH1 0x20 ADD PUSH1 0x40 MLOAD DUP1 SWAP2 SUB SWAP1 KECCAK256 PUSH1 0x2 ADD SLOAD PUSH1 0x4 PUSH1 0x0 PUSH1 0xC DUP6 DUP2 SLOAD DUP2 LT PUSH2 0x16B1 JUMPI PUSH2 0x16B1 PUSH2 0x1EC1 JUMP JUMPDEST PUSH1 0x0 SWAP2 DUP3 MSTORE PUSH1 0x20 DUP1 DUP4 KECCAK256 PUSH1 0x3 SWAP1 SWAP3 MUL SWAP1 SWAP2 ADD SLOAD PUSH1 0x1 PUSH1 0x1 PUSH1 0xA0 SHL SUB AND DUP4 MSTORE DUP3 ADD SWAP3 SWAP1 SWAP3 MSTORE PUSH1 0x40 ADD SWAP1 KECCAK256 PUSH1 0x2 ADD SLOAD PUSH2 0x16E8 SWAP2 SWAP1 PUSH2 0x1DD8 JUMP JUMPDEST PUSH1 0x4 PUSH1 0x0 PUSH1 0xC DUP6 DUP2 SLOAD DUP2 LT PUSH2 0x16FF JUMPI PUSH2 0x16FF PUSH2 0x1EC1 JUMP JUMPDEST PUSH1 0x0 SWAP2 DUP3 MSTORE PUSH1 0x20 DUP1 DUP4 KECCAK256 PUSH1 0x3 SWAP1 SWAP3 MUL SWAP1 SWAP2 ADD SLOAD PUSH1 0x1 PUSH1 0x1 PUSH1 0xA0 SHL SUB AND DUP4 MSTORE DUP3 ADD SWAP3 SWAP1 SWAP3 MSTORE PUSH1 0x40 ADD DUP2 KECCAK256 PUSH1 0x2 ADD SWAP2 SWAP1 SWAP2 SSTORE PUSH1 0xB DUP1 SLOAD DUP5 SWAP1 DUP2 LT PUSH2 0x4E0 JUMPI PUSH2 0x4E0 PUSH2 0x1EC1 JUMP JUMPDEST DUP3 DUP1 SLOAD PUSH2 0x174F SWAP1 PUSH2 0x1E55 JUMP JUMPDEST SWAP1 PUSH1 0x0 MSTORE PUSH1 0x20 PUSH1 0x0 KECCAK256 SWAP1 PUSH1 0x1F ADD PUSH1 0x20 SWAP1 DIV DUP2 ADD SWAP3 DUP3 PUSH2 0x1771 JUMPI PUSH1 0x0 DUP6 SSTORE PUSH2 0x17B7 JUMP JUMPDEST DUP3 PUSH1 0x1F LT PUSH2 0x178A JUMPI DUP1 MLOAD PUSH1 0xFF NOT AND DUP4 DUP1 ADD OR DUP6 SSTORE PUSH2 0x17B7 JUMP JUMPDEST DUP3 DUP1 ADD PUSH1 0x1 ADD DUP6 SSTORE DUP3 ISZERO PUSH2 0x17B7 JUMPI SWAP2 DUP3 ADD JUMPDEST DUP3 DUP2 GT ISZERO PUSH2 0x17B7 JUMPI DUP3 MLOAD DUP3 SSTORE SWAP2 PUSH1 0x20 ADD SWAP2 SWAP1 PUSH1 0x1 ADD SWAP1 PUSH2 0x179C JUMP JUMPDEST POP PUSH2 0x17C3 SWAP3 SWAP2 POP PUSH2 0x1820 JUMP JUMPDEST POP SWAP1 JUMP JUMPDEST DUP3 DUP1 SLOAD DUP3 DUP3 SSTORE SWAP1 PUSH1 0x0 MSTORE PUSH1 0x20 PUSH1 0x0 KECCAK256 SWAP1 DUP2 ADD SWAP3 DUP3 ISZERO PUSH2 0x1814 JUMPI SWAP2 PUSH1 0x20 MUL DUP3 ADD JUMPDEST DUP3 DUP2 GT ISZERO PUSH2 0x1814 JUMPI DUP3 MLOAD DUP1 MLOAD PUSH2 0x1804 SWAP2 DUP5 SWAP2 PUSH1 0x20 SWAP1 SWAP2 ADD SWAP1 PUSH2 0x1743 JUMP JUMPDEST POP SWAP2 PUSH1 0x20 ADD SWAP2 SWAP1 PUSH1 0x1 ADD SWAP1 PUSH2 0x17E7 JUMP JUMPDEST POP PUSH2 0x17C3 SWAP3 SWAP2 POP PUSH2 0x1835 JUMP JUMPDEST JUMPDEST DUP1 DUP3 GT ISZERO PUSH2 0x17C3 JUMPI PUSH1 0x0 DUP2 SSTORE PUSH1 0x1 ADD PUSH2 0x1821 JUMP JUMPDEST DUP1 DUP3 GT ISZERO PUSH2 0x17C3 JUMPI PUSH1 0x0 PUSH2 0x1849 DUP3 DUP3 PUSH2 0x1852 JUMP JUMPDEST POP PUSH1 0x1 ADD PUSH2 0x1835 JUMP JUMPDEST POP DUP1 SLOAD PUSH2 0x185E SWAP1 PUSH2 0x1E55 JUMP JUMPDEST PUSH1 0x0 DUP3 SSTORE DUP1 PUSH1 0x1F LT PUSH2 0x186E JUMPI POP POP JUMP JUMPDEST PUSH1 0x1F ADD PUSH1 0x20 SWAP1 DIV SWAP1 PUSH1 0x0 MSTORE PUSH1 0x20 PUSH1 0x0 KECCAK256 SWAP1 DUP2 ADD SWAP1 PUSH2 0x188C SWAP2 SWAP1 PUSH2 0x1820 JUMP JUMPDEST POP JUMP JUMPDEST DUP1 CALLDATALOAD PUSH1 0x1 PUSH1 0x1 PUSH1 0xA0 SHL SUB DUP2 AND DUP2 EQ PUSH2 0x18A6 JUMPI PUSH1 0x0 DUP1 REVERT JUMPDEST SWAP2 SWAP1 POP JUMP JUMPDEST PUSH1 0x0 DUP3 PUSH1 0x1F DUP4 ADD SLT PUSH2 0x18BC JUMPI PUSH1 0x0 DUP1 REVERT JUMPDEST DUP2 CALLDATALOAD PUSH1 0x1 PUSH1 0x1 PUSH1 0x40 SHL SUB DUP2 GT ISZERO PUSH2 0x18D5 JUMPI PUSH2 0x18D5 PUSH2 0x1ED7 JUMP JUMPDEST PUSH2 0x18E8 PUSH1 0x1F DUP3 ADD PUSH1 0x1F NOT AND PUSH1 0x20 ADD PUSH2 0x1DA8 JUMP JUMPDEST DUP2 DUP2 MSTORE DUP5 PUSH1 0x20 DUP4 DUP7 ADD ADD GT ISZERO PUSH2 0x18FD JUMPI PUSH1 0x0 DUP1 REVERT JUMPDEST DUP2 PUSH1 0x20 DUP6 ADD PUSH1 0x20 DUP4 ADD CALLDATACOPY PUSH1 0x0 SWAP2 DUP2 ADD PUSH1 0x20 ADD SWAP2 SWAP1 SWAP2 MSTORE SWAP4 SWAP3 POP POP POP JUMP JUMPDEST PUSH1 0x0 PUSH1 0x20 DUP3 DUP5 SUB SLT ISZERO PUSH2 0x192C JUMPI PUSH1 0x0 DUP1 REVERT JUMPDEST PUSH2 0x1935 DUP3 PUSH2 0x188F JUMP JUMPDEST SWAP4 SWAP3 POP POP POP JUMP JUMPDEST PUSH1 0x0 DUP1 PUSH1 0x0 PUSH1 0x60 DUP5 DUP7 SUB SLT ISZERO PUSH2 0x1951 JUMPI PUSH1 0x0 DUP1 REVERT JUMPDEST PUSH2 0x195A DUP5 PUSH2 0x188F JUMP JUMPDEST SWAP3 POP PUSH1 0x20 DUP5 ADD CALLDATALOAD PUSH1 0x1 PUSH1 0x1 PUSH1 0x40 SHL SUB DUP2 GT ISZERO PUSH2 0x1975 JUMPI PUSH1 0x0 DUP1 REVERT JUMPDEST PUSH2 0x1981 DUP7 DUP3 DUP8 ADD PUSH2 0x18AB JUMP JUMPDEST SWAP3 POP POP PUSH1 0x40 DUP5 ADD CALLDATALOAD SWAP1 POP SWAP3 POP SWAP3 POP SWAP3 JUMP JUMPDEST PUSH1 0x0 PUSH1 0x20 DUP3 DUP5 SUB SLT ISZERO PUSH2 0x19A4 JUMPI PUSH1 0x0 DUP1 REVERT JUMPDEST DUP2 CALLDATALOAD PUSH1 0x1 PUSH1 0x1 PUSH1 0x40 SHL SUB DUP2 GT ISZERO PUSH2 0x19BA JUMPI PUSH1 0x0 DUP1 REVERT JUMPDEST PUSH2 0xF2B DUP5 DUP3 DUP6 ADD PUSH2 0x18AB JUMP JUMPDEST PUSH1 0x0 DUP1 PUSH1 0x40 DUP4 DUP6 SUB SLT ISZERO PUSH2 0x19D9 JUMPI PUSH1 0x0 DUP1 REVERT JUMPDEST DUP3 CALLDATALOAD PUSH1 0x1 PUSH1 0x1 PUSH1 0x40 SHL SUB DUP1 DUP3 GT ISZERO PUSH2 0x19F0 JUMPI PUSH1 0x0 DUP1 REVERT JUMPDEST PUSH2 0x19FC DUP7 DUP4 DUP8 ADD PUSH2 0x18AB JUMP JUMPDEST SWAP4 POP PUSH1 0x20 SWAP2 POP DUP2 DUP6 ADD CALLDATALOAD DUP2 DUP2 GT ISZERO PUSH2 0x1A13 JUMPI PUSH1 0x0 DUP1 REVERT JUMPDEST DUP6 ADD PUSH1 0x1F DUP2 ADD DUP8 SGT PUSH2 0x1A24 JUMPI PUSH1 0x0 DUP1 REVERT JUMPDEST DUP1 CALLDATALOAD DUP3 DUP2 GT ISZERO PUSH2 0x1A36 JUMPI PUSH2 0x1A36 PUSH2 0x1ED7 JUMP JUMPDEST DUP1 PUSH1 0x5 SHL PUSH2 0x1A45 DUP6 DUP3 ADD PUSH2 0x1DA8 JUMP JUMPDEST DUP3 DUP2 MSTORE DUP6 DUP2 ADD SWAP1 DUP5 DUP8 ADD DUP4 DUP7 ADD DUP9 ADD DUP13 LT ISZERO PUSH2 0x1A60 JUMPI PUSH1 0x0 DUP1 REVERT JUMPDEST PUSH1 0x0 SWAP4 POP DUP4 JUMPDEST DUP6 DUP2 LT ISZERO PUSH2 0x1A9D JUMPI DUP2 CALLDATALOAD DUP9 DUP2 GT ISZERO PUSH2 0x1A7C JUMPI DUP6 DUP7 REVERT JUMPDEST PUSH2 0x1A8A DUP15 DUP12 DUP4 DUP12 ADD ADD PUSH2 0x18AB JUMP JUMPDEST DUP6 MSTORE POP SWAP3 DUP9 ADD SWAP3 SWAP1 DUP9 ADD SWAP1 PUSH1 0x1 ADD PUSH2 0x1A66 JUMP JUMPDEST POP SWAP9 SWAP12 SWAP1 SWAP11 POP SWAP9 POP POP POP POP POP POP POP POP POP JUMP JUMPDEST PUSH1 0x0 DUP1 PUSH1 0x0 PUSH1 0x60 DUP5 DUP7 SUB SLT ISZERO PUSH2 0x1AC4 JUMPI PUSH1 0x0 DUP1 REVERT JUMPDEST DUP4 CALLDATALOAD PUSH1 0x1 PUSH1 0x1 PUSH1 0x40 SHL SUB DUP1 DUP3 GT ISZERO PUSH2 0x1ADB JUMPI PUSH1 0x0 DUP1 REVERT JUMPDEST PUSH2 0x1AE7 DUP8 DUP4 DUP9 ADD PUSH2 0x18AB JUMP JUMPDEST SWAP5 POP PUSH1 0x20 DUP7 ADD CALLDATALOAD SWAP2 POP DUP1 DUP3 GT ISZERO PUSH2 0x1AFD JUMPI PUSH1 0x0 DUP1 REVERT JUMPDEST POP PUSH2 0x1981 DUP7 DUP3 DUP8 ADD PUSH2 0x18AB JUMP JUMPDEST PUSH1 0x0 DUP1 PUSH1 0x0 PUSH1 0x60 DUP5 DUP7 SUB SLT ISZERO PUSH2 0x1B1F JUMPI PUSH1 0x0 DUP1 REVERT JUMPDEST DUP4 CALLDATALOAD PUSH1 0x1 PUSH1 0x1 PUSH1 0x40 SHL SUB DUP1 DUP3 GT ISZERO PUSH2 0x1B36 JUMPI PUSH1 0x0 DUP1 REVERT JUMPDEST PUSH2 0x1B42 DUP8 DUP4 DUP9 ADD PUSH2 0x18AB JUMP JUMPDEST SWAP5 POP PUSH1 0x20 DUP7 ADD CALLDATALOAD SWAP4 POP PUSH1 0x40 DUP7 ADD CALLDATALOAD SWAP2 POP DUP1 DUP3 GT ISZERO PUSH2 0x1B5F JUMPI PUSH1 0x0 DUP1 REVERT JUMPDEST POP PUSH2 0x1B6C DUP7 DUP3 DUP8 ADD PUSH2 0x18AB JUMP JUMPDEST SWAP2 POP POP SWAP3 POP SWAP3 POP SWAP3 JUMP JUMPDEST PUSH1 0x0 PUSH1 0x20 DUP3 DUP5 SUB SLT ISZERO PUSH2 0x1B88 JUMPI PUSH1 0x0 DUP1 REVERT JUMPDEST POP CALLDATALOAD SWAP2 SWAP1 POP JUMP JUMPDEST PUSH1 0x0 DUP1 PUSH1 0x40 DUP4 DUP6 SUB SLT ISZERO PUSH2 0x1BA2 JUMPI PUSH1 0x0 DUP1 REVERT JUMPDEST DUP3 CALLDATALOAD SWAP2 POP PUSH1 0x20 DUP4 ADD CALLDATALOAD DUP1 ISZERO ISZERO DUP2 EQ PUSH2 0x1BB9 JUMPI PUSH1 0x0 DUP1 REVERT JUMPDEST DUP1 SWAP2 POP POP SWAP3 POP SWAP3 SWAP1 POP JUMP JUMPDEST PUSH1 0x0 DUP2 MLOAD DUP1 DUP5 MSTORE PUSH2 0x1BDC DUP2 PUSH1 0x20 DUP7 ADD PUSH1 0x20 DUP7 ADD PUSH2 0x1E29 JUMP JUMPDEST PUSH1 0x1F ADD PUSH1 0x1F NOT AND SWAP3 SWAP1 SWAP3 ADD PUSH1 0x20 ADD SWAP3 SWAP2 POP POP JUMP JUMPDEST PUSH1 0x0 DUP3 MLOAD PUSH2 0x1C02 DUP2 DUP5 PUSH1 0x20 DUP8 ADD PUSH2 0x1E29 JUMP JUMPDEST SWAP2 SWAP1 SWAP2 ADD SWAP3 SWAP2 POP POP JUMP JUMPDEST PUSH1 0x0 DUP1 DUP4 SLOAD DUP2 PUSH1 0x1 DUP3 DUP2 SHR SWAP2 POP DUP1 DUP4 AND DUP1 PUSH2 0x1C28 JUMPI PUSH1 0x7F DUP4 AND SWAP3 POP JUMPDEST PUSH1 0x20 DUP1 DUP5 LT DUP3 EQ ISZERO PUSH2 0x1C48 JUMPI PUSH4 0x4E487B71 PUSH1 0xE0 SHL DUP7 MSTORE PUSH1 0x22 PUSH1 0x4 MSTORE PUSH1 0x24 DUP7 REVERT JUMPDEST DUP2 DUP1 ISZERO PUSH2 0x1C5C JUMPI PUSH1 0x1 DUP2 EQ PUSH2 0x1C6D JUMPI PUSH2 0x1C9A JUMP JUMPDEST PUSH1 0xFF NOT DUP7 AND DUP10 MSTORE DUP5 DUP10 ADD SWAP7 POP PUSH2 0x1C9A JUMP JUMPDEST PUSH1 0x0 DUP11 DUP2 MSTORE PUSH1 0x20 SWAP1 KECCAK256 PUSH1 0x0 JUMPDEST DUP7 DUP2 LT ISZERO PUSH2 0x1C92 JUMPI DUP2 SLOAD DUP12 DUP3 ADD MSTORE SWAP1 DUP6 ADD SWAP1 DUP4 ADD PUSH2 0x1C79 JUMP JUMPDEST POP POP DUP5 DUP10 ADD SWAP7 POP JUMPDEST POP SWAP5 SWAP9 SWAP8 POP POP POP POP POP POP POP POP JUMP JUMPDEST PUSH1 0x1 PUSH1 0x1 PUSH1 0xA0 SHL SUB DUP5 AND DUP2 MSTORE PUSH1 0x60 PUSH1 0x20 DUP3 ADD DUP2 SWAP1 MSTORE PUSH1 0x0 SWAP1 PUSH2 0x1CCC SWAP1 DUP4 ADD DUP6 PUSH2 0x1BC4 JUMP JUMPDEST SWAP1 POP DUP3 ISZERO ISZERO PUSH1 0x40 DUP4 ADD MSTORE SWAP5 SWAP4 POP POP POP POP JUMP JUMPDEST PUSH1 0x1 PUSH1 0x1 PUSH1 0xA0 SHL SUB DUP6 AND DUP2 MSTORE PUSH1 0x80 PUSH1 0x20 DUP3 ADD DUP2 SWAP1 MSTORE PUSH1 0x0 SWAP1 PUSH2 0x1D02 SWAP1 DUP4 ADD DUP7 PUSH2 0x1BC4 JUMP JUMPDEST PUSH1 0x40 DUP4 ADD SWAP5 SWAP1 SWAP5 MSTORE POP PUSH1 0x60 ADD MSTORE SWAP3 SWAP2 POP POP JUMP JUMPDEST PUSH1 0x0 PUSH1 0x20 DUP1 DUP4 ADD DUP2 DUP5 MSTORE DUP1 DUP6 MLOAD DUP1 DUP4 MSTORE PUSH1 0x40 DUP7 ADD SWAP2 POP PUSH1 0x40 DUP2 PUSH1 0x5 SHL DUP8 ADD ADD SWAP3 POP DUP4 DUP8 ADD PUSH1 0x0 JUMPDEST DUP3 DUP2 LT ISZERO PUSH2 0x1D6A JUMPI PUSH1 0x3F NOT DUP9 DUP7 SUB ADD DUP5 MSTORE PUSH2 0x1D58 DUP6 DUP4 MLOAD PUSH2 0x1BC4 JUMP JUMPDEST SWAP5 POP SWAP3 DUP6 ADD SWAP3 SWAP1 DUP6 ADD SWAP1 PUSH1 0x1 ADD PUSH2 0x1D3C JUMP JUMPDEST POP SWAP3 SWAP8 SWAP7 POP POP POP POP POP POP POP JUMP JUMPDEST PUSH1 0x80 DUP2 MSTORE PUSH1 0x0 PUSH2 0x1D8A PUSH1 0x80 DUP4 ADD DUP8 PUSH2 0x1BC4 JUMP JUMPDEST PUSH1 0x20 DUP4 ADD SWAP6 SWAP1 SWAP6 MSTORE POP PUSH1 0x40 DUP2 ADD SWAP3 SWAP1 SWAP3 MSTORE ISZERO ISZERO PUSH1 0x60 SWAP1 SWAP2 ADD MSTORE SWAP2 SWAP1 POP JUMP JUMPDEST PUSH1 0x40 MLOAD PUSH1 0x1F DUP3 ADD PUSH1 0x1F NOT AND DUP2 ADD PUSH1 0x1 PUSH1 0x1 PUSH1 0x40 SHL SUB DUP2 GT DUP3 DUP3 LT OR ISZERO PUSH2 0x1DD0 JUMPI PUSH2 0x1DD0 PUSH2 0x1ED7 JUMP JUMPDEST PUSH1 0x40 MSTORE SWAP2 SWAP1 POP JUMP JUMPDEST PUSH1 0x0 DUP3 NOT DUP3 GT ISZERO PUSH2 0x1DEB JUMPI PUSH2 0x1DEB PUSH2 0x1EAB JUMP JUMPDEST POP ADD SWAP1 JUMP JUMPDEST PUSH1 0x0 DUP3 PUSH2 0x1E0D JUMPI PUSH4 0x4E487B71 PUSH1 0xE0 SHL PUSH1 0x0 MSTORE PUSH1 0x12 PUSH1 0x4 MSTORE PUSH1 0x24 PUSH1 0x0 REVERT JUMPDEST POP DIV SWAP1 JUMP JUMPDEST PUSH1 0x0 DUP3 DUP3 LT ISZERO PUSH2 0x1E24 JUMPI PUSH2 0x1E24 PUSH2 0x1EAB JUMP JUMPDEST POP SUB SWAP1 JUMP JUMPDEST PUSH1 0x0 JUMPDEST DUP4 DUP2 LT ISZERO PUSH2 0x1E44 JUMPI DUP2 DUP2 ADD MLOAD DUP4 DUP3 ADD MSTORE PUSH1 0x20 ADD PUSH2 0x1E2C JUMP JUMPDEST DUP4 DUP2 GT ISZERO PUSH2 0x138D JUMPI POP POP PUSH1 0x0 SWAP2 ADD MSTORE JUMP JUMPDEST PUSH1 0x1 DUP2 DUP2 SHR SWAP1 DUP3 AND DUP1 PUSH2 0x1E69 JUMPI PUSH1 0x7F DUP3 AND SWAP2 POP JUMPDEST PUSH1 0x20 DUP3 LT DUP2 EQ ISZERO PUSH2 0x1E8A JUMPI PUSH4 0x4E487B71 PUSH1 0xE0 SHL PUSH1 0x0 MSTORE PUSH1 0x22 PUSH1 0x4 MSTORE PUSH1 0x24 PUSH1 0x0 REVERT JUMPDEST POP SWAP2 SWAP1 POP JUMP JUMPDEST PUSH1 0x0 PUSH1 0x0 NOT DUP3 EQ ISZERO PUSH2 0x1EA4 JUMPI PUSH2 0x1EA4 PUSH2 0x1EAB JUMP JUMPDEST POP PUSH1 0x1 ADD SWAP1 JUMP JUMPDEST PUSH4 0x4E487B71 PUSH1 0xE0 SHL PUSH1 0x0 MSTORE PUSH1 0x11 PUSH1 0x4 MSTORE PUSH1 0x24 PUSH1 0x0 REVERT JUMPDEST PUSH4 0x4E487B71 PUSH1 0xE0 SHL PUSH1 0x0 MSTORE PUSH1 0x32 PUSH1 0x4 MSTORE PUSH1 0x24 PUSH1 0x0 REVERT JUMPDEST PUSH4 0x4E487B71 PUSH1 0xE0 SHL PUSH1 0x0 MSTORE PUSH1 0x41 PUSH1 0x4 MSTORE PUSH1 0x24 PUSH1 0x0 REVERT INVALID LOG2 PUSH5 0x6970667358 0x22 SLT KECCAK256 ISZERO 0xE3 BYTE 0xA6 INVALID PUSH5 0xAE378653E0 SWAP5 0x2C 0xE5 0x2F 0xD2 0xAE POP 0x1E 0x2B SWAP7 ADD LOG2 GAS DUP2 0x26 DUP8 PUSH14 0x8014C23F64736F6C634300080700 CALLER BLOCKHASH JUMPI DUP8 STATICCALL SLT 0xA8 0x23 0xE0 CALLCODE 0xB7 PUSH4 0x1CC41B3B 0xA8 DUP3 DUP12 CALLER 0x21 0xCA DUP2 GT GT STATICCALL PUSH22 0xCD3AA3BB5ACEA4629BF9DAA4D0816E85B79D58DAAABC 0xAC PUSH28 0x71B32D11BDFD27785BB59CD6CAC6CB970EBB9EDB880AC802B1A3C9EE INVALID DIFFICULTY CODECOPY PUSH10 0x5BF104B16C8261476629 MSTORE8 0x25 DUP3 STATICCALL "
				},
				"gasEstimates": {
					"creation": {
						"codeDepositCost": "1594200",
						"executionCost": "infinite",
						"totalCost": "infinite"
					},
					"external": {
						"MarriageRegistration(uint256,bool)": "infinite",
						"acceptPurchase(uint256,bool)": "infinite",
						"acceptReturn(uint256,bool)": "infinite",
						"addProductShop(string,uint256,string)": "infinite",
						"create_user(address,string,uint256)": "infinite",
						"getProductList()": "infinite",
						"getShopList()": "infinite",
						"getStoryRating(string)": "infinite",
						"get_address(string)": "infinite",
						"leaveComment(string,string[])": "infinite",
						"leaveFeedback(string,string,uint256)": "infinite",
						"productMarriageRegistration(string)": "infinite",
						"productPurchases(string)": "infinite",
						"productReturn(string)": "infinite",
						"shopLists(string)": "infinite",
						"structMarriageRegistrations(uint256)": "infinite",
						"structProducts(string)": "infinite",
						"structStatusPurchases(uint256)": "infinite",
						"structStatusReturns(uint256)": "infinite",
						"structUserLogins(string)": "infinite",
						"structUsers(address)": "infinite"
					}
				},
				"methodIdentifiers": {
					"MarriageRegistration(uint256,bool)": "f69483c1",
					"acceptPurchase(uint256,bool)": "0c72b1ec",
					"acceptReturn(uint256,bool)": "2ccdef7c",
					"addProductShop(string,uint256,string)": "6c05dd1d",
					"create_user(address,string,uint256)": "e38d9087",
					"getProductList()": "34d2c0ad",
					"getShopList()": "c178b9af",
					"getStoryRating(string)": "a985036d",
					"get_address(string)": "6ba44d3c",
					"leaveComment(string,string[])": "29e795f3",
					"leaveFeedback(string,string,uint256)": "cc21c188",
					"productMarriageRegistration(string)": "2d4673e3",
					"productPurchases(string)": "146dc6ed",
					"productReturn(string)": "bbd43363",
					"shopLists(string)": "c4957fa0",
					"structMarriageRegistrations(uint256)": "7ddb273d",
					"structProducts(string)": "d68cf8c1",
					"structStatusPurchases(uint256)": "dce39151",
					"structStatusReturns(uint256)": "a9f9482b",
					"structUserLogins(string)": "1bbe970a",
					"structUsers(address)": "961865f0"
				}
			},
			"userdoc": {
				"kind": "user",
				"methods": {},
				"version": 1
			}
		}
	}
}