{
	"Documents/GitHub/Store-system-with-feedback/main.sol": {
		"coursepaper": {
			"abi": [
				{
					"inputs": [],
					"stateMutability": "nonpayable",
					"type": "constructor"
				},
				{
					"inputs": [
						{
							"internalType": "uint256",
							"name": "idMarriageRegistration",
							"type": "uint256"
						},
						{
							"internalType": "bool",
							"name": "confirmation",
							"type": "bool"
						}
					],
					"name": "MarriageRegistration",
					"outputs": [],
					"stateMutability": "nonpayable",
					"type": "function"
				},
				{
					"inputs": [
						{
							"internalType": "uint256",
							"name": "idPurchase",
							"type": "uint256"
						},
						{
							"internalType": "bool",
							"name": "confirmation",
							"type": "bool"
						}
					],
					"name": "acceptPurchase",
					"outputs": [],
					"stateMutability": "nonpayable",
					"type": "function"
				},
				{
					"inputs": [
						{
							"internalType": "uint256",
							"name": "idReturn",
							"type": "uint256"
						},
						{
							"internalType": "bool",
							"name": "confirmation",
							"type": "bool"
						}
					],
					"name": "acceptReturn",
					"outputs": [],
					"stateMutability": "nonpayable",
					"type": "function"
				},
				{
					"inputs": [
						{
							"internalType": "string",
							"name": "title",
							"type": "string"
						},
						{
							"internalType": "uint256",
							"name": "price",
							"type": "uint256"
						},
						{
							"internalType": "string",
							"name": "description",
							"type": "string"
						}
					],
					"name": "addProductShop",
					"outputs": [],
					"stateMutability": "nonpayable",
					"type": "function"
				},
				{
					"inputs": [
						{
							"internalType": "uint256",
							"name": "",
							"type": "uint256"
						}
					],
					"name": "complaintBooks",
					"outputs": [
						{
							"internalType": "string",
							"name": "shop",
							"type": "string"
						},
						{
							"internalType": "string",
							"name": "userName",
							"type": "string"
						},
						{
							"internalType": "string",
							"name": "feedback",
							"type": "string"
						},
						{
							"internalType": "uint256",
							"name": "rating",
							"type": "uint256"
						}
					],
					"stateMutability": "view",
					"type": "function"
				},
				{
					"inputs": [],
					"name": "getProductList",
					"outputs": [
						{
							"internalType": "string[]",
							"name": "",
							"type": "string[]"
						}
					],
					"stateMutability": "view",
					"type": "function"
				},
				{
					"inputs": [],
					"name": "getShopList",
					"outputs": [
						{
							"internalType": "string[]",
							"name": "",
							"type": "string[]"
						}
					],
					"stateMutability": "view",
					"type": "function"
				},
				{
					"inputs": [
						{
							"internalType": "string",
							"name": "shopName",
							"type": "string"
						}
					],
					"name": "getStoryRating",
					"outputs": [
						{
							"internalType": "uint256",
							"name": "",
							"type": "uint256"
						}
					],
					"stateMutability": "view",
					"type": "function"
				},
				{
					"inputs": [
						{
							"internalType": "string",
							"name": "shop",
							"type": "string"
						},
						{
							"internalType": "string",
							"name": "feedback",
							"type": "string"
						},
						{
							"internalType": "uint256",
							"name": "rating",
							"type": "uint256"
						}
					],
					"name": "leaveFeedback",
					"outputs": [],
					"stateMutability": "nonpayable",
					"type": "function"
				},
				{
					"inputs": [
						{
							"internalType": "string",
							"name": "titleProduct",
							"type": "string"
						}
					],
					"name": "productMarriageRegistration",
					"outputs": [],
					"stateMutability": "nonpayable",
					"type": "function"
				},
				{
					"inputs": [
						{
							"internalType": "string",
							"name": "titleProduct",
							"type": "string"
						}
					],
					"name": "productPurchases",
					"outputs": [],
					"stateMutability": "nonpayable",
					"type": "function"
				},
				{
					"inputs": [
						{
							"internalType": "string",
							"name": "titleProduct",
							"type": "string"
						}
					],
					"name": "productReturn",
					"outputs": [],
					"stateMutability": "nonpayable",
					"type": "function"
				},
				{
					"inputs": [
						{
							"internalType": "string",
							"name": "",
							"type": "string"
						}
					],
					"name": "shopLists",
					"outputs": [
						{
							"internalType": "address",
							"name": "",
							"type": "address"
						}
					],
					"stateMutability": "view",
					"type": "function"
				},
				{
					"inputs": [
						{
							"internalType": "uint256",
							"name": "",
							"type": "uint256"
						}
					],
					"name": "structMarriageRegistrations",
					"outputs": [
						{
							"internalType": "address",
							"name": "userLogin",
							"type": "address"
						},
						{
							"internalType": "string",
							"name": "titleProduct",
							"type": "string"
						},
						{
							"internalType": "bool",
							"name": "status",
							"type": "bool"
						}
					],
					"stateMutability": "view",
					"type": "function"
				},
				{
					"inputs": [
						{
							"internalType": "string",
							"name": "",
							"type": "string"
						}
					],
					"name": "structProducts",
					"outputs": [
						{
							"internalType": "address",
							"name": "shop",
							"type": "address"
						},
						{
							"internalType": "string",
							"name": "description",
							"type": "string"
						},
						{
							"internalType": "uint256",
							"name": "price",
							"type": "uint256"
						},
						{
							"internalType": "uint256",
							"name": "id",
							"type": "uint256"
						}
					],
					"stateMutability": "view",
					"type": "function"
				},
				{
					"inputs": [
						{
							"internalType": "uint256",
							"name": "",
							"type": "uint256"
						}
					],
					"name": "structStatusPurchases",
					"outputs": [
						{
							"internalType": "address",
							"name": "userLogin",
							"type": "address"
						},
						{
							"internalType": "string",
							"name": "titleProduct",
							"type": "string"
						},
						{
							"internalType": "bool",
							"name": "status",
							"type": "bool"
						}
					],
					"stateMutability": "view",
					"type": "function"
				},
				{
					"inputs": [
						{
							"internalType": "uint256",
							"name": "",
							"type": "uint256"
						}
					],
					"name": "structStatusReturns",
					"outputs": [
						{
							"internalType": "address",
							"name": "userLogin",
							"type": "address"
						},
						{
							"internalType": "string",
							"name": "titleProduct",
							"type": "string"
						},
						{
							"internalType": "bool",
							"name": "status",
							"type": "bool"
						}
					],
					"stateMutability": "view",
					"type": "function"
				},
				{
					"inputs": [
						{
							"internalType": "string",
							"name": "",
							"type": "string"
						}
					],
					"name": "structUserLogins",
					"outputs": [
						{
							"internalType": "address",
							"name": "",
							"type": "address"
						}
					],
					"stateMutability": "view",
					"type": "function"
				},
				{
					"inputs": [
						{
							"internalType": "address",
							"name": "",
							"type": "address"
						}
					],
					"name": "structUsers",
					"outputs": [
						{
							"internalType": "string",
							"name": "userName",
							"type": "string"
						},
						{
							"internalType": "uint256",
							"name": "password",
							"type": "uint256"
						},
						{
							"internalType": "uint256",
							"name": "ballance",
							"type": "uint256"
						}
					],
					"stateMutability": "view",
					"type": "function"
				}
			],
			"devdoc": {
				"kind": "dev",
				"methods": {},
				"version": 1
			},
			"evm": {
				"assembly": "    /* \"Documents/GitHub/Store-system-with-feedback/main.sol\":74:7060  contract coursepaper {\r... */\n  mstore(0x40, 0x80)\n    /* \"Documents/GitHub/Store-system-with-feedback/main.sol\":2953:2954  0 */\n  0x00\n    /* \"Documents/GitHub/Store-system-with-feedback/main.sol\":2918:2954  uint256 addProductShop_idProduct = 0 */\n  0x0c\n  sstore\n    /* \"Documents/GitHub/Store-system-with-feedback/main.sol\":3313:3314  0 */\n  0x00\n    /* \"Documents/GitHub/Store-system-with-feedback/main.sol\":3287:3314  uint countLeaveFeedback = 0 */\n  0x0d\n  sstore\n    /* \"Documents/GitHub/Store-system-with-feedback/main.sol\":129:981  constructor() public {\r... */\n  callvalue\n  dup1\n  iszero\n  tag_1\n  jumpi\n  0x00\n  dup1\n  revert\ntag_1:\n  pop\n    /* \"Documents/GitHub/Store-system-with-feedback/main.sol\":232:274  structShop(\"Food\", \"1\", \"Moscow\", 1000, 0) */\n  mload(0x40)\n  dup1\n  0xa0\n  add\n  0x40\n  mstore\n  dup1\n  mload(0x40)\n  dup1\n  0x40\n  add\n  0x40\n  mstore\n  dup1\n  0x04\n  dup2\n  mstore\n  0x20\n  add\n  0x466f6f6400000000000000000000000000000000000000000000000000000000\n  dup2\n  mstore\n  pop\n  dup2\n  mstore\n  0x20\n  add\n  mload(0x40)\n  dup1\n  0x40\n  add\n  0x40\n  mstore\n  dup1\n  0x01\n  dup2\n  mstore\n  0x20\n  add\n  0x3100000000000000000000000000000000000000000000000000000000000000\n  dup2\n  mstore\n  pop\n  dup2\n  mstore\n  0x20\n  add\n  mload(0x40)\n  dup1\n  0x40\n  add\n  0x40\n  mstore\n  dup1\n  0x06\n  dup2\n  mstore\n  0x20\n  add\n  0x4d6f73636f770000000000000000000000000000000000000000000000000000\n  dup2\n  mstore\n  pop\n  dup2\n  mstore\n  0x20\n  add\n    /* \"Documents/GitHub/Store-system-with-feedback/main.sol\":266:270  1000 */\n  0x03e8\n    /* \"Documents/GitHub/Store-system-with-feedback/main.sol\":232:274  structShop(\"Food\", \"1\", \"Moscow\", 1000, 0) */\n  dup2\n  mstore\n  0x20\n  add\n    /* \"Documents/GitHub/Store-system-with-feedback/main.sol\":272:273  0 */\n  0x00\n    /* \"Documents/GitHub/Store-system-with-feedback/main.sol\":232:274  structShop(\"Food\", \"1\", \"Moscow\", 1000, 0) */\n  dup2\n  mstore\n  pop\n    /* \"Documents/GitHub/Store-system-with-feedback/main.sol\":180:185  shops */\n  0x00\n    /* \"Documents/GitHub/Store-system-with-feedback/main.sol\":180:229  shops[0x5B38Da6a701c568545dCfcB03FcB875f56beddC4] */\n  dup1\n    /* \"Documents/GitHub/Store-system-with-feedback/main.sol\":186:228  0x5B38Da6a701c568545dCfcB03FcB875f56beddC4 */\n  0x5b38da6a701c568545dcfcb03fcb875f56beddc4\n    /* \"Documents/GitHub/Store-system-with-feedback/main.sol\":180:229  shops[0x5B38Da6a701c568545dCfcB03FcB875f56beddC4] */\n  0xffffffffffffffffffffffffffffffffffffffff\n  and\n  0xffffffffffffffffffffffffffffffffffffffff\n  and\n  dup2\n  mstore\n  0x20\n  add\n  swap1\n  dup2\n  mstore\n  0x20\n  add\n  0x00\n  keccak256\n    /* \"Documents/GitHub/Store-system-with-feedback/main.sol\":180:274  shops[0x5B38Da6a701c568545dCfcB03FcB875f56beddC4] = structShop(\"Food\", \"1\", \"Moscow\", 1000, 0) */\n  0x00\n  dup3\n  add\n  mload\n  dup2\n  0x00\n  add\n  swap1\n  dup1\n  mload\n  swap1\n  0x20\n  add\n  swap1\n  tag_4\n  swap3\n  swap2\n  swap1\n  tag_5\n  jump\t// in\ntag_4:\n  pop\n  0x20\n  dup3\n  add\n  mload\n  dup2\n  0x01\n  add\n  swap1\n  dup1\n  mload\n  swap1\n  0x20\n  add\n  swap1\n  tag_6\n  swap3\n  swap2\n  swap1\n  tag_5\n  jump\t// in\ntag_6:\n  pop\n  0x40\n  dup3\n  add\n  mload\n  dup2\n  0x02\n  add\n  swap1\n  dup1\n  mload\n  swap1\n  0x20\n  add\n  swap1\n  tag_7\n  swap3\n  swap2\n  swap1\n  tag_5\n  jump\t// in\ntag_7:\n  pop\n  0x60\n  dup3\n  add\n  mload\n  dup2\n  0x03\n  add\n  sstore\n  0x80\n  dup3\n  add\n  mload\n  dup2\n  0x04\n  add\n  sstore\n  swap1\n  pop\n  pop\n    /* \"Documents/GitHub/Store-system-with-feedback/main.sol\":285:293  shopList */\n  0x02\n    /* \"Documents/GitHub/Store-system-with-feedback/main.sol\":299:304  shops */\n  0x00\n    /* \"Documents/GitHub/Store-system-with-feedback/main.sol\":299:348  shops[0x5B38Da6a701c568545dCfcB03FcB875f56beddC4] */\n  dup1\n    /* \"Documents/GitHub/Store-system-with-feedback/main.sol\":305:347  0x5B38Da6a701c568545dCfcB03FcB875f56beddC4 */\n  0x5b38da6a701c568545dcfcb03fcb875f56beddc4\n    /* \"Documents/GitHub/Store-system-with-feedback/main.sol\":299:348  shops[0x5B38Da6a701c568545dCfcB03FcB875f56beddC4] */\n  0xffffffffffffffffffffffffffffffffffffffff\n  and\n  0xffffffffffffffffffffffffffffffffffffffff\n  and\n  dup2\n  mstore\n  0x20\n  add\n  swap1\n  dup2\n  mstore\n  0x20\n  add\n  0x00\n  keccak256\n    /* \"Documents/GitHub/Store-system-with-feedback/main.sol\":299:353  shops[0x5B38Da6a701c568545dCfcB03FcB875f56beddC4].name */\n  0x00\n  add\n    /* \"Documents/GitHub/Store-system-with-feedback/main.sol\":285:354  shopList.push(shops[0x5B38Da6a701c568545dCfcB03FcB875f56beddC4].name) */\n  swap1\n  dup1\n  0x01\n  dup2\n  sload\n  add\n  dup1\n  dup3\n  sstore\n  dup1\n  swap2\n  pop\n  pop\n  0x01\n  swap1\n  sub\n  swap1\n  0x00\n  mstore\n  keccak256(0x00, 0x20)\n  add\n  0x00\n  swap1\n  swap2\n  swap1\n  swap2\n  swap1\n  swap2\n  pop\n  swap1\n  dup1\n  sload\n  tag_9\n  swap1\n  tag_10\n  jump\t// in\ntag_9:\n  tag_11\n  swap3\n  swap2\n  swap1\n  tag_12\n  jump\t// in\ntag_11:\n  pop\n    /* \"Documents/GitHub/Store-system-with-feedback/main.sol\":417:466  structShop(\"Clothes\", \"2\", \"Petersburg\", 1000, 0) */\n  mload(0x40)\n  dup1\n  0xa0\n  add\n  0x40\n  mstore\n  dup1\n  mload(0x40)\n  dup1\n  0x40\n  add\n  0x40\n  mstore\n  dup1\n  0x07\n  dup2\n  mstore\n  0x20\n  add\n  0x436c6f7468657300000000000000000000000000000000000000000000000000\n  dup2\n  mstore\n  pop\n  dup2\n  mstore\n  0x20\n  add\n  mload(0x40)\n  dup1\n  0x40\n  add\n  0x40\n  mstore\n  dup1\n  0x01\n  dup2\n  mstore\n  0x20\n  add\n  0x3200000000000000000000000000000000000000000000000000000000000000\n  dup2\n  mstore\n  pop\n  dup2\n  mstore\n  0x20\n  add\n  mload(0x40)\n  dup1\n  0x40\n  add\n  0x40\n  mstore\n  dup1\n  0x0a\n  dup2\n  mstore\n  0x20\n  add\n  0x5065746572736275726700000000000000000000000000000000000000000000\n  dup2\n  mstore\n  pop\n  dup2\n  mstore\n  0x20\n  add\n    /* \"Documents/GitHub/Store-system-with-feedback/main.sol\":458:462  1000 */\n  0x03e8\n    /* \"Documents/GitHub/Store-system-with-feedback/main.sol\":417:466  structShop(\"Clothes\", \"2\", \"Petersburg\", 1000, 0) */\n  dup2\n  mstore\n  0x20\n  add\n    /* \"Documents/GitHub/Store-system-with-feedback/main.sol\":464:465  0 */\n  0x00\n    /* \"Documents/GitHub/Store-system-with-feedback/main.sol\":417:466  structShop(\"Clothes\", \"2\", \"Petersburg\", 1000, 0) */\n  dup2\n  mstore\n  pop\n    /* \"Documents/GitHub/Store-system-with-feedback/main.sol\":365:370  shops */\n  0x00\n    /* \"Documents/GitHub/Store-system-with-feedback/main.sol\":365:414  shops[0xAb8483F64d9C6d1EcF9b849Ae677dD3315835cb2] */\n  dup1\n    /* \"Documents/GitHub/Store-system-with-feedback/main.sol\":371:413  0xAb8483F64d9C6d1EcF9b849Ae677dD3315835cb2 */\n  0xab8483f64d9c6d1ecf9b849ae677dd3315835cb2\n    /* \"Documents/GitHub/Store-system-with-feedback/main.sol\":365:414  shops[0xAb8483F64d9C6d1EcF9b849Ae677dD3315835cb2] */\n  0xffffffffffffffffffffffffffffffffffffffff\n  and\n  0xffffffffffffffffffffffffffffffffffffffff\n  and\n  dup2\n  mstore\n  0x20\n  add\n  swap1\n  dup2\n  mstore\n  0x20\n  add\n  0x00\n  keccak256\n    /* \"Documents/GitHub/Store-system-with-feedback/main.sol\":365:466  shops[0xAb8483F64d9C6d1EcF9b849Ae677dD3315835cb2] = structShop(\"Clothes\", \"2\", \"Petersburg\", 1000, 0) */\n  0x00\n  dup3\n  add\n  mload\n  dup2\n  0x00\n  add\n  swap1\n  dup1\n  mload\n  swap1\n  0x20\n  add\n  swap1\n  tag_13\n  swap3\n  swap2\n  swap1\n  tag_5\n  jump\t// in\ntag_13:\n  pop\n  0x20\n  dup3\n  add\n  mload\n  dup2\n  0x01\n  add\n  swap1\n  dup1\n  mload\n  swap1\n  0x20\n  add\n  swap1\n  tag_14\n  swap3\n  swap2\n  swap1\n  tag_5\n  jump\t// in\ntag_14:\n  pop\n  0x40\n  dup3\n  add\n  mload\n  dup2\n  0x02\n  add\n  swap1\n  dup1\n  mload\n  swap1\n  0x20\n  add\n  swap1\n  tag_15\n  swap3\n  swap2\n  swap1\n  tag_5\n  jump\t// in\ntag_15:\n  pop\n  0x60\n  dup3\n  add\n  mload\n  dup2\n  0x03\n  add\n  sstore\n  0x80\n  dup3\n  add\n  mload\n  dup2\n  0x04\n  add\n  sstore\n  swap1\n  pop\n  pop\n    /* \"Documents/GitHub/Store-system-with-feedback/main.sol\":477:485  shopList */\n  0x02\n    /* \"Documents/GitHub/Store-system-with-feedback/main.sol\":491:496  shops */\n  0x00\n    /* \"Documents/GitHub/Store-system-with-feedback/main.sol\":491:540  shops[0xAb8483F64d9C6d1EcF9b849Ae677dD3315835cb2] */\n  dup1\n    /* \"Documents/GitHub/Store-system-with-feedback/main.sol\":497:539  0xAb8483F64d9C6d1EcF9b849Ae677dD3315835cb2 */\n  0xab8483f64d9c6d1ecf9b849ae677dd3315835cb2\n    /* \"Documents/GitHub/Store-system-with-feedback/main.sol\":491:540  shops[0xAb8483F64d9C6d1EcF9b849Ae677dD3315835cb2] */\n  0xffffffffffffffffffffffffffffffffffffffff\n  and\n  0xffffffffffffffffffffffffffffffffffffffff\n  and\n  dup2\n  mstore\n  0x20\n  add\n  swap1\n  dup2\n  mstore\n  0x20\n  add\n  0x00\n  keccak256\n    /* \"Documents/GitHub/Store-system-with-feedback/main.sol\":491:545  shops[0xAb8483F64d9C6d1EcF9b849Ae677dD3315835cb2].name */\n  0x00\n  add\n    /* \"Documents/GitHub/Store-system-with-feedback/main.sol\":477:546  shopList.push(shops[0xAb8483F64d9C6d1EcF9b849Ae677dD3315835cb2].name) */\n  swap1\n  dup1\n  0x01\n  dup2\n  sload\n  add\n  dup1\n  dup3\n  sstore\n  dup1\n  swap2\n  pop\n  pop\n  0x01\n  swap1\n  sub\n  swap1\n  0x00\n  mstore\n  keccak256(0x00, 0x20)\n  add\n  0x00\n  swap1\n  swap2\n  swap1\n  swap2\n  swap1\n  swap2\n  pop\n  swap1\n  dup1\n  sload\n  tag_17\n  swap1\n  tag_10\n  jump\t// in\ntag_17:\n  tag_18\n  swap3\n  swap2\n  swap1\n  tag_12\n  jump\t// in\ntag_18:\n  pop\n    /* \"Documents/GitHub/Store-system-with-feedback/main.sol\":609:662  structShop(\"Pet Store\", \"3\", \"Ekaterinburg\", 1000, 0) */\n  mload(0x40)\n  dup1\n  0xa0\n  add\n  0x40\n  mstore\n  dup1\n  mload(0x40)\n  dup1\n  0x40\n  add\n  0x40\n  mstore\n  dup1\n  0x09\n  dup2\n  mstore\n  0x20\n  add\n  0x5065742053746f72650000000000000000000000000000000000000000000000\n  dup2\n  mstore\n  pop\n  dup2\n  mstore\n  0x20\n  add\n  mload(0x40)\n  dup1\n  0x40\n  add\n  0x40\n  mstore\n  dup1\n  0x01\n  dup2\n  mstore\n  0x20\n  add\n  0x3300000000000000000000000000000000000000000000000000000000000000\n  dup2\n  mstore\n  pop\n  dup2\n  mstore\n  0x20\n  add\n  mload(0x40)\n  dup1\n  0x40\n  add\n  0x40\n  mstore\n  dup1\n  0x0c\n  dup2\n  mstore\n  0x20\n  add\n  0x456b61746572696e627572670000000000000000000000000000000000000000\n  dup2\n  mstore\n  pop\n  dup2\n  mstore\n  0x20\n  add\n    /* \"Documents/GitHub/Store-system-with-feedback/main.sol\":654:658  1000 */\n  0x03e8\n    /* \"Documents/GitHub/Store-system-with-feedback/main.sol\":609:662  structShop(\"Pet Store\", \"3\", \"Ekaterinburg\", 1000, 0) */\n  dup2\n  mstore\n  0x20\n  add\n    /* \"Documents/GitHub/Store-system-with-feedback/main.sol\":660:661  0 */\n  0x00\n    /* \"Documents/GitHub/Store-system-with-feedback/main.sol\":609:662  structShop(\"Pet Store\", \"3\", \"Ekaterinburg\", 1000, 0) */\n  dup2\n  mstore\n  pop\n    /* \"Documents/GitHub/Store-system-with-feedback/main.sol\":557:562  shops */\n  0x00\n    /* \"Documents/GitHub/Store-system-with-feedback/main.sol\":557:606  shops[0x4B20993Bc481177ec7E8f571ceCaE8A9e22C02db] */\n  dup1\n    /* \"Documents/GitHub/Store-system-with-feedback/main.sol\":563:605  0x4B20993Bc481177ec7E8f571ceCaE8A9e22C02db */\n  0x4b20993bc481177ec7e8f571cecae8a9e22c02db\n    /* \"Documents/GitHub/Store-system-with-feedback/main.sol\":557:606  shops[0x4B20993Bc481177ec7E8f571ceCaE8A9e22C02db] */\n  0xffffffffffffffffffffffffffffffffffffffff\n  and\n  0xffffffffffffffffffffffffffffffffffffffff\n  and\n  dup2\n  mstore\n  0x20\n  add\n  swap1\n  dup2\n  mstore\n  0x20\n  add\n  0x00\n  keccak256\n    /* \"Documents/GitHub/Store-system-with-feedback/main.sol\":557:662  shops[0x4B20993Bc481177ec7E8f571ceCaE8A9e22C02db] = structShop(\"Pet Store\", \"3\", \"Ekaterinburg\", 1000, 0) */\n  0x00\n  dup3\n  add\n  mload\n  dup2\n  0x00\n  add\n  swap1\n  dup1\n  mload\n  swap1\n  0x20\n  add\n  swap1\n  tag_19\n  swap3\n  swap2\n  swap1\n  tag_5\n  jump\t// in\ntag_19:\n  pop\n  0x20\n  dup3\n  add\n  mload\n  dup2\n  0x01\n  add\n  swap1\n  dup1\n  mload\n  swap1\n  0x20\n  add\n  swap1\n  tag_20\n  swap3\n  swap2\n  swap1\n  tag_5\n  jump\t// in\ntag_20:\n  pop\n  0x40\n  dup3\n  add\n  mload\n  dup2\n  0x02\n  add\n  swap1\n  dup1\n  mload\n  swap1\n  0x20\n  add\n  swap1\n  tag_21\n  swap3\n  swap2\n  swap1\n  tag_5\n  jump\t// in\ntag_21:\n  pop\n  0x60\n  dup3\n  add\n  mload\n  dup2\n  0x03\n  add\n  sstore\n  0x80\n  dup3\n  add\n  mload\n  dup2\n  0x04\n  add\n  sstore\n  swap1\n  pop\n  pop\n    /* \"Documents/GitHub/Store-system-with-feedback/main.sol\":673:681  shopList */\n  0x02\n    /* \"Documents/GitHub/Store-system-with-feedback/main.sol\":687:692  shops */\n  0x00\n    /* \"Documents/GitHub/Store-system-with-feedback/main.sol\":687:736  shops[0x4B20993Bc481177ec7E8f571ceCaE8A9e22C02db] */\n  dup1\n    /* \"Documents/GitHub/Store-system-with-feedback/main.sol\":693:735  0x4B20993Bc481177ec7E8f571ceCaE8A9e22C02db */\n  0x4b20993bc481177ec7e8f571cecae8a9e22c02db\n    /* \"Documents/GitHub/Store-system-with-feedback/main.sol\":687:736  shops[0x4B20993Bc481177ec7E8f571ceCaE8A9e22C02db] */\n  0xffffffffffffffffffffffffffffffffffffffff\n  and\n  0xffffffffffffffffffffffffffffffffffffffff\n  and\n  dup2\n  mstore\n  0x20\n  add\n  swap1\n  dup2\n  mstore\n  0x20\n  add\n  0x00\n  keccak256\n    /* \"Documents/GitHub/Store-system-with-feedback/main.sol\":687:741  shops[0x4B20993Bc481177ec7E8f571ceCaE8A9e22C02db].name */\n  0x00\n  add\n    /* \"Documents/GitHub/Store-system-with-feedback/main.sol\":673:742  shopList.push(shops[0x4B20993Bc481177ec7E8f571ceCaE8A9e22C02db].name) */\n  swap1\n  dup1\n  0x01\n  dup2\n  sload\n  add\n  dup1\n  dup3\n  sstore\n  dup1\n  swap2\n  pop\n  pop\n  0x01\n  swap1\n  sub\n  swap1\n  0x00\n  mstore\n  keccak256(0x00, 0x20)\n  add\n  0x00\n  swap1\n  swap2\n  swap1\n  swap2\n  swap1\n  swap2\n  pop\n  swap1\n  dup1\n  sload\n  tag_23\n  swap1\n  tag_10\n  jump\t// in\ntag_23:\n  tag_24\n  swap3\n  swap2\n  swap1\n  tag_12\n  jump\t// in\ntag_24:\n  pop\n    /* \"Documents/GitHub/Store-system-with-feedback/main.sol\":800:842  0x78731D3Ca6b7E34aC0F824c42a7cC18A495cabaB */\n  0x78731d3ca6b7e34ac0f824c42a7cc18a495cabab\n    /* \"Documents/GitHub/Store-system-with-feedback/main.sol\":773:789  structUserLogins */\n  0x05\n    /* \"Documents/GitHub/Store-system-with-feedback/main.sol\":773:797  structUserLogins[\"Peta\"] */\n  mload(0x40)\n  tag_25\n  swap1\n  tag_26\n  jump\t// in\ntag_25:\n  swap1\n  dup2\n  mstore\n  0x20\n  add\n  mload(0x40)\n  dup1\n  swap2\n  sub\n  swap1\n  keccak256\n  0x00\n    /* \"Documents/GitHub/Store-system-with-feedback/main.sol\":773:842  structUserLogins[\"Peta\"] = 0x78731D3Ca6b7E34aC0F824c42a7cC18A495cabaB */\n  0x0100\n  exp\n  dup2\n  sload\n  dup2\n  0xffffffffffffffffffffffffffffffffffffffff\n  mul\n  not\n  and\n  swap1\n  dup4\n  0xffffffffffffffffffffffffffffffffffffffff\n  and\n  mul\n  or\n  swap1\n  sstore\n  pop\n    /* \"Documents/GitHub/Store-system-with-feedback/main.sol\":911:938  structUser(\"Peta\" ,1, 1000) */\n  mload(0x40)\n  dup1\n  0x60\n  add\n  0x40\n  mstore\n  dup1\n  mload(0x40)\n  dup1\n  0x40\n  add\n  0x40\n  mstore\n  dup1\n  0x04\n  dup2\n  mstore\n  0x20\n  add\n  0x5065746100000000000000000000000000000000000000000000000000000000\n  dup2\n  mstore\n  pop\n  dup2\n  mstore\n  0x20\n  add\n    /* \"Documents/GitHub/Store-system-with-feedback/main.sol\":930:931  1 */\n  0x01\n    /* \"Documents/GitHub/Store-system-with-feedback/main.sol\":911:938  structUser(\"Peta\" ,1, 1000) */\n  dup2\n  mstore\n  0x20\n  add\n    /* \"Documents/GitHub/Store-system-with-feedback/main.sol\":933:937  1000 */\n  0x03e8\n    /* \"Documents/GitHub/Store-system-with-feedback/main.sol\":911:938  structUser(\"Peta\" ,1, 1000) */\n  dup2\n  mstore\n  pop\n    /* \"Documents/GitHub/Store-system-with-feedback/main.sol\":853:864  structUsers */\n  0x04\n    /* \"Documents/GitHub/Store-system-with-feedback/main.sol\":853:908  structUsers[0x78731D3Ca6b7E34aC0F824c42a7cC18A495cabaB] */\n  0x00\n    /* \"Documents/GitHub/Store-system-with-feedback/main.sol\":865:907  0x78731D3Ca6b7E34aC0F824c42a7cC18A495cabaB */\n  0x78731d3ca6b7e34ac0f824c42a7cc18a495cabab\n    /* \"Documents/GitHub/Store-system-with-feedback/main.sol\":853:908  structUsers[0x78731D3Ca6b7E34aC0F824c42a7cC18A495cabaB] */\n  0xffffffffffffffffffffffffffffffffffffffff\n  and\n  0xffffffffffffffffffffffffffffffffffffffff\n  and\n  dup2\n  mstore\n  0x20\n  add\n  swap1\n  dup2\n  mstore\n  0x20\n  add\n  0x00\n  keccak256\n    /* \"Documents/GitHub/Store-system-with-feedback/main.sol\":853:938  structUsers[0x78731D3Ca6b7E34aC0F824c42a7cC18A495cabaB] = structUser(\"Peta\" ,1, 1000) */\n  0x00\n  dup3\n  add\n  mload\n  dup2\n  0x00\n  add\n  swap1\n  dup1\n  mload\n  swap1\n  0x20\n  add\n  swap1\n  tag_27\n  swap3\n  swap2\n  swap1\n  tag_5\n  jump\t// in\ntag_27:\n  pop\n  0x20\n  dup3\n  add\n  mload\n  dup2\n  0x01\n  add\n  sstore\n  0x40\n  dup3\n  add\n  mload\n  dup2\n  0x02\n  add\n  sstore\n  swap1\n  pop\n  pop\n    /* \"Documents/GitHub/Store-system-with-feedback/main.sol\":949:964  userLoginsArray */\n  0x06\n    /* \"Documents/GitHub/Store-system-with-feedback/main.sol\":949:977  userLoginsArray.push(\"Peta\") */\n  dup1\n  0x01\n  dup2\n  sload\n  add\n  dup1\n  dup3\n  sstore\n  dup1\n  swap2\n  pop\n  pop\n  0x01\n  swap1\n  sub\n  swap1\n  0x00\n  mstore\n  keccak256(0x00, 0x20)\n  add\n  0x00\n  mload(0x40)\n  dup1\n  0x40\n  add\n  0x40\n  mstore\n  dup1\n  0x04\n  dup2\n  mstore\n  0x20\n  add\n  0x5065746100000000000000000000000000000000000000000000000000000000\n  dup2\n  mstore\n  pop\n  swap1\n  swap2\n  swap1\n  swap2\n  pop\n  swap1\n  dup1\n  mload\n  swap1\n  0x20\n  add\n  swap1\n  tag_29\n  swap3\n  swap2\n  swap1\n  tag_5\n  jump\t// in\ntag_29:\n  pop\n    /* \"Documents/GitHub/Store-system-with-feedback/main.sol\":74:7060  contract coursepaper {\r... */\n  jump(tag_30)\ntag_5:\n  dup3\n  dup1\n  sload\n  tag_31\n  swap1\n  tag_10\n  jump\t// in\ntag_31:\n  swap1\n  0x00\n  mstore\n  keccak256(0x00, 0x20)\n  swap1\n  0x1f\n  add\n  0x20\n  swap1\n  div\n  dup2\n  add\n  swap3\n  dup3\n  tag_33\n  jumpi\n  0x00\n  dup6\n  sstore\n  jump(tag_32)\ntag_33:\n  dup3\n  0x1f\n  lt\n  tag_34\n  jumpi\n  dup1\n  mload\n  not(0xff)\n  and\n  dup4\n  dup1\n  add\n  or\n  dup6\n  sstore\n  jump(tag_32)\ntag_34:\n  dup3\n  dup1\n  add\n  0x01\n  add\n  dup6\n  sstore\n  dup3\n  iszero\n  tag_32\n  jumpi\n  swap2\n  dup3\n  add\ntag_35:\n  dup3\n  dup2\n  gt\n  iszero\n  tag_36\n  jumpi\n  dup3\n  mload\n  dup3\n  sstore\n  swap2\n  0x20\n  add\n  swap2\n  swap1\n  0x01\n  add\n  swap1\n  jump(tag_35)\ntag_36:\ntag_32:\n  pop\n  swap1\n  pop\n  tag_37\n  swap2\n  swap1\n  tag_38\n  jump\t// in\ntag_37:\n  pop\n  swap1\n  jump\t// out\ntag_12:\n  dup3\n  dup1\n  sload\n  tag_39\n  swap1\n  tag_10\n  jump\t// in\ntag_39:\n  swap1\n  0x00\n  mstore\n  keccak256(0x00, 0x20)\n  swap1\n  0x1f\n  add\n  0x20\n  swap1\n  div\n  dup2\n  add\n  swap3\n  dup3\n  tag_41\n  jumpi\n  0x00\n  dup6\n  sstore\n  jump(tag_40)\ntag_41:\n  dup3\n  0x1f\n  lt\n  tag_42\n  jumpi\n  dup1\n  sload\n  dup6\n  sstore\n  jump(tag_40)\ntag_42:\n  dup3\n  dup1\n  add\n  0x01\n  add\n  dup6\n  sstore\n  dup3\n  iszero\n  tag_40\n  jumpi\n  0x00\n  mstore\n  keccak256(0x00, 0x20)\n  swap2\n  0x1f\n  add\n  0x20\n  swap1\n  div\n  dup3\n  add\ntag_43:\n  dup3\n  dup2\n  gt\n  iszero\n  tag_44\n  jumpi\n  dup3\n  sload\n  dup3\n  sstore\n  swap2\n  0x01\n  add\n  swap2\n  swap1\n  0x01\n  add\n  swap1\n  jump(tag_43)\ntag_44:\ntag_40:\n  pop\n  swap1\n  pop\n  tag_45\n  swap2\n  swap1\n  tag_38\n  jump\t// in\ntag_45:\n  pop\n  swap1\n  jump\t// out\ntag_38:\ntag_46:\n  dup1\n  dup3\n  gt\n  iszero\n  tag_47\n  jumpi\n  0x00\n  dup2\n  0x00\n  swap1\n  sstore\n  pop\n  0x01\n  add\n  jump(tag_46)\ntag_47:\n  pop\n  swap1\n  jump\t// out\n    /* \"#utility.yul\":7:407   */\ntag_49:\n    /* \"#utility.yul\":167:170   */\n  0x00\n    /* \"#utility.yul\":188:272   */\n  tag_51\n    /* \"#utility.yul\":270:271   */\n  0x04\n    /* \"#utility.yul\":265:268   */\n  dup4\n    /* \"#utility.yul\":188:272   */\n  tag_52\n  jump\t// in\ntag_51:\n    /* \"#utility.yul\":181:272   */\n  swap2\n  pop\n    /* \"#utility.yul\":281:374   */\n  tag_53\n    /* \"#utility.yul\":370:373   */\n  dup3\n    /* \"#utility.yul\":281:374   */\n  tag_54\n  jump\t// in\ntag_53:\n    /* \"#utility.yul\":399:400   */\n  0x04\n    /* \"#utility.yul\":394:397   */\n  dup3\n    /* \"#utility.yul\":390:401   */\n  add\n    /* \"#utility.yul\":383:401   */\n  swap1\n  pop\n    /* \"#utility.yul\":7:407   */\n  swap2\n  swap1\n  pop\n  jump\t// out\n    /* \"#utility.yul\":413:794   */\ntag_26:\n    /* \"#utility.yul\":598:601   */\n  0x00\n    /* \"#utility.yul\":620:768   */\n  tag_56\n    /* \"#utility.yul\":764:767   */\n  dup3\n    /* \"#utility.yul\":620:768   */\n  tag_49\n  jump\t// in\ntag_56:\n    /* \"#utility.yul\":613:768   */\n  swap2\n  pop\n    /* \"#utility.yul\":785:788   */\n  dup2\n    /* \"#utility.yul\":778:788   */\n  swap1\n  pop\n    /* \"#utility.yul\":413:794   */\n  swap2\n  swap1\n  pop\n  jump\t// out\n    /* \"#utility.yul\":800:948   */\ntag_52:\n    /* \"#utility.yul\":902:913   */\n  0x00\n    /* \"#utility.yul\":939:942   */\n  dup2\n    /* \"#utility.yul\":924:942   */\n  swap1\n  pop\n    /* \"#utility.yul\":800:948   */\n  swap3\n  swap2\n  pop\n  pop\n  jump\t// out\n    /* \"#utility.yul\":954:1274   */\ntag_10:\n    /* \"#utility.yul\":998:1004   */\n  0x00\n    /* \"#utility.yul\":1035:1036   */\n  0x02\n    /* \"#utility.yul\":1029:1033   */\n  dup3\n    /* \"#utility.yul\":1025:1037   */\n  div\n    /* \"#utility.yul\":1015:1037   */\n  swap1\n  pop\n    /* \"#utility.yul\":1082:1083   */\n  0x01\n    /* \"#utility.yul\":1076:1080   */\n  dup3\n    /* \"#utility.yul\":1072:1084   */\n  and\n    /* \"#utility.yul\":1103:1121   */\n  dup1\n    /* \"#utility.yul\":1093:1174   */\n  tag_59\n  jumpi\n    /* \"#utility.yul\":1159:1163   */\n  0x7f\n    /* \"#utility.yul\":1151:1157   */\n  dup3\n    /* \"#utility.yul\":1147:1164   */\n  and\n    /* \"#utility.yul\":1137:1164   */\n  swap2\n  pop\n    /* \"#utility.yul\":1093:1174   */\ntag_59:\n    /* \"#utility.yul\":1221:1223   */\n  0x20\n    /* \"#utility.yul\":1213:1219   */\n  dup3\n    /* \"#utility.yul\":1210:1224   */\n  lt\n    /* \"#utility.yul\":1190:1208   */\n  dup2\n    /* \"#utility.yul\":1187:1225   */\n  eq\n    /* \"#utility.yul\":1184:1268   */\n  iszero\n  tag_60\n  jumpi\n    /* \"#utility.yul\":1240:1258   */\n  tag_61\n  tag_62\n  jump\t// in\ntag_61:\n    /* \"#utility.yul\":1184:1268   */\ntag_60:\n    /* \"#utility.yul\":1005:1274   */\n  pop\n    /* \"#utility.yul\":954:1274   */\n  swap2\n  swap1\n  pop\n  jump\t// out\n    /* \"#utility.yul\":1280:1460   */\ntag_62:\n    /* \"#utility.yul\":1328:1405   */\n  0x4e487b7100000000000000000000000000000000000000000000000000000000\n    /* \"#utility.yul\":1325:1326   */\n  0x00\n    /* \"#utility.yul\":1318:1406   */\n  mstore\n    /* \"#utility.yul\":1425:1429   */\n  0x22\n    /* \"#utility.yul\":1422:1423   */\n  0x04\n    /* \"#utility.yul\":1415:1430   */\n  mstore\n    /* \"#utility.yul\":1449:1453   */\n  0x24\n    /* \"#utility.yul\":1446:1447   */\n  0x00\n    /* \"#utility.yul\":1439:1454   */\n  revert\n    /* \"#utility.yul\":1466:1620   */\ntag_54:\n    /* \"#utility.yul\":1606:1612   */\n  0x5065746100000000000000000000000000000000000000000000000000000000\n    /* \"#utility.yul\":1602:1603   */\n  0x00\n    /* \"#utility.yul\":1594:1600   */\n  dup3\n    /* \"#utility.yul\":1590:1604   */\n  add\n    /* \"#utility.yul\":1583:1613   */\n  mstore\n    /* \"#utility.yul\":1466:1620   */\n  pop\n  jump\t// out\n    /* \"Documents/GitHub/Store-system-with-feedback/main.sol\":74:7060  contract coursepaper {\r... */\ntag_30:\n  dataSize(sub_0)\n  dup1\n  dataOffset(sub_0)\n  0x00\n  codecopy\n  0x00\n  return\nstop\n\nsub_0: assembly {\n        /* \"Documents/GitHub/Store-system-with-feedback/main.sol\":74:7060  contract coursepaper {\r... */\n      mstore(0x40, 0x80)\n      callvalue\n      dup1\n      iszero\n      tag_1\n      jumpi\n      0x00\n      dup1\n      revert\n    tag_1:\n      pop\n      jumpi(tag_2, lt(calldatasize, 0x04))\n      shr(0xe0, calldataload(0x00))\n      dup1\n      0x961865f0\n      gt\n      tag_22\n      jumpi\n      dup1\n      0xc4957fa0\n      gt\n      tag_23\n      jumpi\n      dup1\n      0xc4957fa0\n      eq\n      tag_17\n      jumpi\n      dup1\n      0xcc21c188\n      eq\n      tag_18\n      jumpi\n      dup1\n      0xd68cf8c1\n      eq\n      tag_19\n      jumpi\n      dup1\n      0xdce39151\n      eq\n      tag_20\n      jumpi\n      dup1\n      0xf69483c1\n      eq\n      tag_21\n      jumpi\n      jump(tag_2)\n    tag_23:\n      dup1\n      0x961865f0\n      eq\n      tag_12\n      jumpi\n      dup1\n      0xa985036d\n      eq\n      tag_13\n      jumpi\n      dup1\n      0xa9f9482b\n      eq\n      tag_14\n      jumpi\n      dup1\n      0xbbd43363\n      eq\n      tag_15\n      jumpi\n      dup1\n      0xc178b9af\n      eq\n      tag_16\n      jumpi\n      jump(tag_2)\n    tag_22:\n      dup1\n      0x2ccdef7c\n      gt\n      tag_24\n      jumpi\n      dup1\n      0x2ccdef7c\n      eq\n      tag_7\n      jumpi\n      dup1\n      0x2d4673e3\n      eq\n      tag_8\n      jumpi\n      dup1\n      0x34d2c0ad\n      eq\n      tag_9\n      jumpi\n      dup1\n      0x6c05dd1d\n      eq\n      tag_10\n      jumpi\n      dup1\n      0x7ddb273d\n      eq\n      tag_11\n      jumpi\n      jump(tag_2)\n    tag_24:\n      dup1\n      0x08f4d2c6\n      eq\n      tag_3\n      jumpi\n      dup1\n      0x0c72b1ec\n      eq\n      tag_4\n      jumpi\n      dup1\n      0x146dc6ed\n      eq\n      tag_5\n      jumpi\n      dup1\n      0x1bbe970a\n      eq\n      tag_6\n      jumpi\n    tag_2:\n      0x00\n      dup1\n      revert\n        /* \"Documents/GitHub/Store-system-with-feedback/main.sol\":1623:1660  complaintBook[] public complaintBooks */\n    tag_3:\n      tag_25\n      0x04\n      dup1\n      calldatasize\n      sub\n      dup2\n      add\n      swap1\n      tag_26\n      swap2\n      swap1\n      tag_27\n      jump\t// in\n    tag_26:\n      tag_28\n      jump\t// in\n    tag_25:\n      mload(0x40)\n      tag_29\n      swap5\n      swap4\n      swap3\n      swap2\n      swap1\n      tag_30\n      jump\t// in\n    tag_29:\n      mload(0x40)\n      dup1\n      swap2\n      sub\n      swap1\n      return\n        /* \"Documents/GitHub/Store-system-with-feedback/main.sol\":3734:4362  function acceptPurchase (uint idPurchase, bool confirmation) public {\r... */\n    tag_4:\n      tag_31\n      0x04\n      dup1\n      calldatasize\n      sub\n      dup2\n      add\n      swap1\n      tag_32\n      swap2\n      swap1\n      tag_33\n      jump\t// in\n    tag_32:\n      tag_34\n      jump\t// in\n    tag_31:\n      stop\n        /* \"Documents/GitHub/Store-system-with-feedback/main.sol\":6336:6607  function productPurchases (string memory titleProduct) public {\r... */\n    tag_5:\n      tag_35\n      0x04\n      dup1\n      calldatasize\n      sub\n      dup2\n      add\n      swap1\n      tag_36\n      swap2\n      swap1\n      tag_37\n      jump\t// in\n    tag_36:\n      tag_38\n      jump\t// in\n    tag_35:\n      stop\n        /* \"Documents/GitHub/Store-system-with-feedback/main.sol\":1862:1912  mapping(string => address) public structUserLogins */\n    tag_6:\n      tag_39\n      0x04\n      dup1\n      calldatasize\n      sub\n      dup2\n      add\n      swap1\n      tag_40\n      swap2\n      swap1\n      tag_37\n      jump\t// in\n    tag_40:\n      tag_41\n      jump\t// in\n    tag_39:\n      mload(0x40)\n      tag_42\n      swap2\n      swap1\n      tag_43\n      jump\t// in\n    tag_42:\n      mload(0x40)\n      dup1\n      swap2\n      sub\n      swap1\n      return\n        /* \"Documents/GitHub/Store-system-with-feedback/main.sol\":4407:4868  function acceptReturn(uint idReturn, bool confirmation) public {\r... */\n    tag_7:\n      tag_44\n      0x04\n      dup1\n      calldatasize\n      sub\n      dup2\n      add\n      swap1\n      tag_45\n      swap2\n      swap1\n      tag_33\n      jump\t// in\n    tag_45:\n      tag_46\n      jump\t// in\n    tag_44:\n      stop\n        /* \"Documents/GitHub/Store-system-with-feedback/main.sol\":6846:7030  function productMarriageRegistration (string memory titleProduct) public {\r... */\n    tag_8:\n      tag_47\n      0x04\n      dup1\n      calldatasize\n      sub\n      dup2\n      add\n      swap1\n      tag_48\n      swap2\n      swap1\n      tag_37\n      jump\t// in\n    tag_48:\n      tag_49\n      jump\t// in\n    tag_47:\n      stop\n        /* \"Documents/GitHub/Store-system-with-feedback/main.sol\":5655:5755  function getProductList() public view returns(string[] memory) {\r... */\n    tag_9:\n      tag_50\n      tag_51\n      jump\t// in\n    tag_50:\n      mload(0x40)\n      tag_52\n      swap2\n      swap1\n      tag_53\n      jump\t// in\n    tag_52:\n      mload(0x40)\n      dup1\n      swap2\n      sub\n      swap1\n      return\n        /* \"Documents/GitHub/Store-system-with-feedback/main.sol\":2961:3242  function addProductShop (string memory title, uint256 price, string memory description) public {\r... */\n    tag_10:\n      tag_54\n      0x04\n      dup1\n      calldatasize\n      sub\n      dup2\n      add\n      swap1\n      tag_55\n      swap2\n      swap1\n      tag_56\n      jump\t// in\n    tag_55:\n      tag_57\n      jump\t// in\n    tag_54:\n      stop\n        /* \"Documents/GitHub/Store-system-with-feedback/main.sol\":2776:2839  structMarriageRegistration[] public structMarriageRegistrations */\n    tag_11:\n      tag_58\n      0x04\n      dup1\n      calldatasize\n      sub\n      dup2\n      add\n      swap1\n      tag_59\n      swap2\n      swap1\n      tag_27\n      jump\t// in\n    tag_59:\n      tag_60\n      jump\t// in\n    tag_58:\n      mload(0x40)\n      tag_61\n      swap4\n      swap3\n      swap2\n      swap1\n      tag_62\n      jump\t// in\n    tag_61:\n      mload(0x40)\n      dup1\n      swap2\n      sub\n      swap1\n      return\n        /* \"Documents/GitHub/Store-system-with-feedback/main.sol\":1806:1855  mapping(address => structUser) public structUsers */\n    tag_12:\n      tag_63\n      0x04\n      dup1\n      calldatasize\n      sub\n      dup2\n      add\n      swap1\n      tag_64\n      swap2\n      swap1\n      tag_65\n      jump\t// in\n    tag_64:\n      tag_66\n      jump\t// in\n    tag_63:\n      mload(0x40)\n      tag_67\n      swap4\n      swap3\n      swap2\n      swap1\n      tag_68\n      jump\t// in\n    tag_67:\n      mload(0x40)\n      dup1\n      swap2\n      sub\n      swap1\n      return\n        /* \"Documents/GitHub/Store-system-with-feedback/main.sol\":5787:6251  function getStoryRating(string memory shopName) public view returns(uint) {\r... */\n    tag_13:\n      tag_69\n      0x04\n      dup1\n      calldatasize\n      sub\n      dup2\n      add\n      swap1\n      tag_70\n      swap2\n      swap1\n      tag_37\n      jump\t// in\n    tag_70:\n      tag_71\n      jump\t// in\n    tag_69:\n      mload(0x40)\n      tag_72\n      swap2\n      swap1\n      tag_73\n      jump\t// in\n    tag_72:\n      mload(0x40)\n      dup1\n      swap2\n      sub\n      swap1\n      return\n        /* \"Documents/GitHub/Store-system-with-feedback/main.sol\":2556:2603  structStatusReturn[] public structStatusReturns */\n    tag_14:\n      tag_74\n      0x04\n      dup1\n      calldatasize\n      sub\n      dup2\n      add\n      swap1\n      tag_75\n      swap2\n      swap1\n      tag_27\n      jump\t// in\n    tag_75:\n      tag_76\n      jump\t// in\n    tag_74:\n      mload(0x40)\n      tag_77\n      swap4\n      swap3\n      swap2\n      swap1\n      tag_62\n      jump\t// in\n    tag_77:\n      mload(0x40)\n      dup1\n      swap2\n      sub\n      swap1\n      return\n        /* \"Documents/GitHub/Store-system-with-feedback/main.sol\":6646:6800  function productReturn (string memory titleProduct) public {\r... */\n    tag_15:\n      tag_78\n      0x04\n      dup1\n      calldatasize\n      sub\n      dup2\n      add\n      swap1\n      tag_79\n      swap2\n      swap1\n      tag_37\n      jump\t// in\n    tag_79:\n      tag_80\n      jump\t// in\n    tag_78:\n      stop\n        /* \"Documents/GitHub/Store-system-with-feedback/main.sol\":5525:5619  function getShopList() public view returns(string[] memory) {\r... */\n    tag_16:\n      tag_81\n      tag_82\n      jump\t// in\n    tag_81:\n      mload(0x40)\n      tag_83\n      swap2\n      swap1\n      tag_53\n      jump\t// in\n    tag_83:\n      mload(0x40)\n      dup1\n      swap2\n      sub\n      swap1\n      return\n        /* \"Documents/GitHub/Store-system-with-feedback/main.sol\":1297:1340  mapping(string => address) public shopLists */\n    tag_17:\n      tag_84\n      0x04\n      dup1\n      calldatasize\n      sub\n      dup2\n      add\n      swap1\n      tag_85\n      swap2\n      swap1\n      tag_37\n      jump\t// in\n    tag_85:\n      tag_86\n      jump\t// in\n    tag_84:\n      mload(0x40)\n      tag_87\n      swap2\n      swap1\n      tag_43\n      jump\t// in\n    tag_87:\n      mload(0x40)\n      dup1\n      swap2\n      sub\n      swap1\n      return\n        /* \"Documents/GitHub/Store-system-with-feedback/main.sol\":3321:3687  function leaveFeedback (string memory shop, string memory feedback, uint256 rating) public {\r... */\n    tag_18:\n      tag_88\n      0x04\n      dup1\n      calldatasize\n      sub\n      dup2\n      add\n      swap1\n      tag_89\n      swap2\n      swap1\n      tag_90\n      jump\t// in\n    tag_89:\n      tag_91\n      jump\t// in\n    tag_88:\n      stop\n        /* \"Documents/GitHub/Store-system-with-feedback/main.sol\":2105:2159  mapping(string => structProduct) public structProducts */\n    tag_19:\n      tag_92\n      0x04\n      dup1\n      calldatasize\n      sub\n      dup2\n      add\n      swap1\n      tag_93\n      swap2\n      swap1\n      tag_37\n      jump\t// in\n    tag_93:\n      tag_94\n      jump\t// in\n    tag_92:\n      mload(0x40)\n      tag_95\n      swap5\n      swap4\n      swap3\n      swap2\n      swap1\n      tag_96\n      jump\t// in\n    tag_95:\n      mload(0x40)\n      dup1\n      swap2\n      sub\n      swap1\n      return\n        /* \"Documents/GitHub/Store-system-with-feedback/main.sol\":2348:2399  structStatusPurchase[] public structStatusPurchases */\n    tag_20:\n      tag_97\n      0x04\n      dup1\n      calldatasize\n      sub\n      dup2\n      add\n      swap1\n      tag_98\n      swap2\n      swap1\n      tag_27\n      jump\t// in\n    tag_98:\n      tag_99\n      jump\t// in\n    tag_97:\n      mload(0x40)\n      tag_100\n      swap4\n      swap3\n      swap2\n      swap1\n      tag_62\n      jump\t// in\n    tag_100:\n      mload(0x40)\n      dup1\n      swap2\n      sub\n      swap1\n      return\n        /* \"Documents/GitHub/Store-system-with-feedback/main.sol\":4914:5491  function MarriageRegistration(uint idMarriageRegistration, bool confirmation) public {\r... */\n    tag_21:\n      tag_101\n      0x04\n      dup1\n      calldatasize\n      sub\n      dup2\n      add\n      swap1\n      tag_102\n      swap2\n      swap1\n      tag_33\n      jump\t// in\n    tag_102:\n      tag_103\n      jump\t// in\n    tag_101:\n      stop\n        /* \"Documents/GitHub/Store-system-with-feedback/main.sol\":1623:1660  complaintBook[] public complaintBooks */\n    tag_28:\n      0x03\n      dup2\n      dup2\n      sload\n      dup2\n      lt\n      tag_104\n      jumpi\n      0x00\n      dup1\n      revert\n    tag_104:\n      swap1\n      0x00\n      mstore\n      keccak256(0x00, 0x20)\n      swap1\n      0x05\n      mul\n      add\n      0x00\n      swap2\n      pop\n      swap1\n      pop\n      dup1\n      0x00\n      add\n      dup1\n      sload\n      tag_106\n      swap1\n      tag_107\n      jump\t// in\n    tag_106:\n      dup1\n      0x1f\n      add\n      0x20\n      dup1\n      swap2\n      div\n      mul\n      0x20\n      add\n      mload(0x40)\n      swap1\n      dup2\n      add\n      0x40\n      mstore\n      dup1\n      swap3\n      swap2\n      swap1\n      dup2\n      dup2\n      mstore\n      0x20\n      add\n      dup3\n      dup1\n      sload\n      tag_108\n      swap1\n      tag_107\n      jump\t// in\n    tag_108:\n      dup1\n      iszero\n      tag_109\n      jumpi\n      dup1\n      0x1f\n      lt\n      tag_110\n      jumpi\n      0x0100\n      dup1\n      dup4\n      sload\n      div\n      mul\n      dup4\n      mstore\n      swap2\n      0x20\n      add\n      swap2\n      jump(tag_109)\n    tag_110:\n      dup3\n      add\n      swap2\n      swap1\n      0x00\n      mstore\n      keccak256(0x00, 0x20)\n      swap1\n    tag_111:\n      dup2\n      sload\n      dup2\n      mstore\n      swap1\n      0x01\n      add\n      swap1\n      0x20\n      add\n      dup1\n      dup4\n      gt\n      tag_111\n      jumpi\n      dup3\n      swap1\n      sub\n      0x1f\n      and\n      dup3\n      add\n      swap2\n    tag_109:\n      pop\n      pop\n      pop\n      pop\n      pop\n      swap1\n      dup1\n      0x01\n      add\n      dup1\n      sload\n      tag_112\n      swap1\n      tag_107\n      jump\t// in\n    tag_112:\n      dup1\n      0x1f\n      add\n      0x20\n      dup1\n      swap2\n      div\n      mul\n      0x20\n      add\n      mload(0x40)\n      swap1\n      dup2\n      add\n      0x40\n      mstore\n      dup1\n      swap3\n      swap2\n      swap1\n      dup2\n      dup2\n      mstore\n      0x20\n      add\n      dup3\n      dup1\n      sload\n      tag_113\n      swap1\n      tag_107\n      jump\t// in\n    tag_113:\n      dup1\n      iszero\n      tag_114\n      jumpi\n      dup1\n      0x1f\n      lt\n      tag_115\n      jumpi\n      0x0100\n      dup1\n      dup4\n      sload\n      div\n      mul\n      dup4\n      mstore\n      swap2\n      0x20\n      add\n      swap2\n      jump(tag_114)\n    tag_115:\n      dup3\n      add\n      swap2\n      swap1\n      0x00\n      mstore\n      keccak256(0x00, 0x20)\n      swap1\n    tag_116:\n      dup2\n      sload\n      dup2\n      mstore\n      swap1\n      0x01\n      add\n      swap1\n      0x20\n      add\n      dup1\n      dup4\n      gt\n      tag_116\n      jumpi\n      dup3\n      swap1\n      sub\n      0x1f\n      and\n      dup3\n      add\n      swap2\n    tag_114:\n      pop\n      pop\n      pop\n      pop\n      pop\n      swap1\n      dup1\n      0x02\n      add\n      dup1\n      sload\n      tag_117\n      swap1\n      tag_107\n      jump\t// in\n    tag_117:\n      dup1\n      0x1f\n      add\n      0x20\n      dup1\n      swap2\n      div\n      mul\n      0x20\n      add\n      mload(0x40)\n      swap1\n      dup2\n      add\n      0x40\n      mstore\n      dup1\n      swap3\n      swap2\n      swap1\n      dup2\n      dup2\n      mstore\n      0x20\n      add\n      dup3\n      dup1\n      sload\n      tag_118\n      swap1\n      tag_107\n      jump\t// in\n    tag_118:\n      dup1\n      iszero\n      tag_119\n      jumpi\n      dup1\n      0x1f\n      lt\n      tag_120\n      jumpi\n      0x0100\n      dup1\n      dup4\n      sload\n      div\n      mul\n      dup4\n      mstore\n      swap2\n      0x20\n      add\n      swap2\n      jump(tag_119)\n    tag_120:\n      dup3\n      add\n      swap2\n      swap1\n      0x00\n      mstore\n      keccak256(0x00, 0x20)\n      swap1\n    tag_121:\n      dup2\n      sload\n      dup2\n      mstore\n      swap1\n      0x01\n      add\n      swap1\n      0x20\n      add\n      dup1\n      dup4\n      gt\n      tag_121\n      jumpi\n      dup3\n      swap1\n      sub\n      0x1f\n      and\n      dup3\n      add\n      swap2\n    tag_119:\n      pop\n      pop\n      pop\n      pop\n      pop\n      swap1\n      dup1\n      0x03\n      add\n      sload\n      swap1\n      pop\n      dup5\n      jump\t// out\n        /* \"Documents/GitHub/Store-system-with-feedback/main.sol\":3734:4362  function acceptPurchase (uint idPurchase, bool confirmation) public {\r... */\n    tag_34:\n        /* \"Documents/GitHub/Store-system-with-feedback/main.sol\":3833:3837  true */\n      0x01\n        /* \"Documents/GitHub/Store-system-with-feedback/main.sol\":3817:3837  confirmation == true */\n      iszero\n      iszero\n        /* \"Documents/GitHub/Store-system-with-feedback/main.sol\":3817:3829  confirmation */\n      dup2\n        /* \"Documents/GitHub/Store-system-with-feedback/main.sol\":3817:3837  confirmation == true */\n      iszero\n      iszero\n      eq\n        /* \"Documents/GitHub/Store-system-with-feedback/main.sol\":3813:4355  if (confirmation == true) {\r... */\n      iszero\n      tag_123\n      jumpi\n        /* \"Documents/GitHub/Store-system-with-feedback/main.sol\":3897:3902  false */\n      0x00\n        /* \"Documents/GitHub/Store-system-with-feedback/main.sol\":3854:3875  structStatusPurchases */\n      0x09\n        /* \"Documents/GitHub/Store-system-with-feedback/main.sol\":3876:3886  idPurchase */\n      dup4\n        /* \"Documents/GitHub/Store-system-with-feedback/main.sol\":3854:3887  structStatusPurchases[idPurchase] */\n      dup2\n      sload\n      dup2\n      lt\n      tag_124\n      jumpi\n      tag_125\n      tag_126\n      jump\t// in\n    tag_125:\n    tag_124:\n      swap1\n      0x00\n      mstore\n      keccak256(0x00, 0x20)\n      swap1\n      0x03\n      mul\n      add\n        /* \"Documents/GitHub/Store-system-with-feedback/main.sol\":3854:3894  structStatusPurchases[idPurchase].status */\n      0x02\n      add\n      0x00\n        /* \"Documents/GitHub/Store-system-with-feedback/main.sol\":3854:3902  structStatusPurchases[idPurchase].status = false */\n      0x0100\n      exp\n      dup2\n      sload\n      dup2\n      0xff\n      mul\n      not\n      and\n      swap1\n      dup4\n      iszero\n      iszero\n      mul\n      or\n      swap1\n      sstore\n      pop\n        /* \"Documents/GitHub/Store-system-with-feedback/main.sol\":4053:4067  structProducts */\n      0x07\n        /* \"Documents/GitHub/Store-system-with-feedback/main.sol\":4068:4089  structStatusPurchases */\n      0x09\n        /* \"Documents/GitHub/Store-system-with-feedback/main.sol\":4090:4100  idPurchase */\n      dup4\n        /* \"Documents/GitHub/Store-system-with-feedback/main.sol\":4068:4101  structStatusPurchases[idPurchase] */\n      dup2\n      sload\n      dup2\n      lt\n      tag_128\n      jumpi\n      tag_129\n      tag_126\n      jump\t// in\n    tag_129:\n    tag_128:\n      swap1\n      0x00\n      mstore\n      keccak256(0x00, 0x20)\n      swap1\n      0x03\n      mul\n      add\n        /* \"Documents/GitHub/Store-system-with-feedback/main.sol\":4068:4114  structStatusPurchases[idPurchase].titleProduct */\n      0x01\n      add\n        /* \"Documents/GitHub/Store-system-with-feedback/main.sol\":4053:4115  structProducts[structStatusPurchases[idPurchase].titleProduct] */\n      mload(0x40)\n      tag_131\n      swap2\n      swap1\n      tag_132\n      jump\t// in\n    tag_131:\n      swap1\n      dup2\n      mstore\n      0x20\n      add\n      mload(0x40)\n      dup1\n      swap2\n      sub\n      swap1\n      keccak256\n        /* \"Documents/GitHub/Store-system-with-feedback/main.sol\":4053:4121  structProducts[structStatusPurchases[idPurchase].titleProduct].price */\n      0x02\n      add\n      sload\n        /* \"Documents/GitHub/Store-system-with-feedback/main.sol\":3985:3996  structUsers */\n      0x04\n        /* \"Documents/GitHub/Store-system-with-feedback/main.sol\":3985:4041  structUsers[structStatusPurchases[idPurchase].userLogin] */\n      0x00\n        /* \"Documents/GitHub/Store-system-with-feedback/main.sol\":3997:4018  structStatusPurchases */\n      0x09\n        /* \"Documents/GitHub/Store-system-with-feedback/main.sol\":4019:4029  idPurchase */\n      dup6\n        /* \"Documents/GitHub/Store-system-with-feedback/main.sol\":3997:4030  structStatusPurchases[idPurchase] */\n      dup2\n      sload\n      dup2\n      lt\n      tag_133\n      jumpi\n      tag_134\n      tag_126\n      jump\t// in\n    tag_134:\n    tag_133:\n      swap1\n      0x00\n      mstore\n      keccak256(0x00, 0x20)\n      swap1\n      0x03\n      mul\n      add\n        /* \"Documents/GitHub/Store-system-with-feedback/main.sol\":3997:4040  structStatusPurchases[idPurchase].userLogin */\n      0x00\n      add\n      0x00\n      swap1\n      sload\n      swap1\n      0x0100\n      exp\n      swap1\n      div\n      0xffffffffffffffffffffffffffffffffffffffff\n      and\n        /* \"Documents/GitHub/Store-system-with-feedback/main.sol\":3985:4041  structUsers[structStatusPurchases[idPurchase].userLogin] */\n      0xffffffffffffffffffffffffffffffffffffffff\n      and\n      0xffffffffffffffffffffffffffffffffffffffff\n      and\n      dup2\n      mstore\n      0x20\n      add\n      swap1\n      dup2\n      mstore\n      0x20\n      add\n      0x00\n      keccak256\n        /* \"Documents/GitHub/Store-system-with-feedback/main.sol\":3985:4050  structUsers[structStatusPurchases[idPurchase].userLogin].ballance */\n      0x02\n      add\n      sload\n        /* \"Documents/GitHub/Store-system-with-feedback/main.sol\":3985:4121  structUsers[structStatusPurchases[idPurchase].userLogin].ballance - structProducts[structStatusPurchases[idPurchase].titleProduct].price */\n      tag_136\n      swap2\n      swap1\n      tag_137\n      jump\t// in\n    tag_136:\n        /* \"Documents/GitHub/Store-system-with-feedback/main.sol\":3917:3928  structUsers */\n      0x04\n        /* \"Documents/GitHub/Store-system-with-feedback/main.sol\":3917:3973  structUsers[structStatusPurchases[idPurchase].userLogin] */\n      0x00\n        /* \"Documents/GitHub/Store-system-with-feedback/main.sol\":3929:3950  structStatusPurchases */\n      0x09\n        /* \"Documents/GitHub/Store-system-with-feedback/main.sol\":3951:3961  idPurchase */\n      dup6\n        /* \"Documents/GitHub/Store-system-with-feedback/main.sol\":3929:3962  structStatusPurchases[idPurchase] */\n      dup2\n      sload\n      dup2\n      lt\n      tag_138\n      jumpi\n      tag_139\n      tag_126\n      jump\t// in\n    tag_139:\n    tag_138:\n      swap1\n      0x00\n      mstore\n      keccak256(0x00, 0x20)\n      swap1\n      0x03\n      mul\n      add\n        /* \"Documents/GitHub/Store-system-with-feedback/main.sol\":3929:3972  structStatusPurchases[idPurchase].userLogin */\n      0x00\n      add\n      0x00\n      swap1\n      sload\n      swap1\n      0x0100\n      exp\n      swap1\n      div\n      0xffffffffffffffffffffffffffffffffffffffff\n      and\n        /* \"Documents/GitHub/Store-system-with-feedback/main.sol\":3917:3973  structUsers[structStatusPurchases[idPurchase].userLogin] */\n      0xffffffffffffffffffffffffffffffffffffffff\n      and\n      0xffffffffffffffffffffffffffffffffffffffff\n      and\n      dup2\n      mstore\n      0x20\n      add\n      swap1\n      dup2\n      mstore\n      0x20\n      add\n      0x00\n      keccak256\n        /* \"Documents/GitHub/Store-system-with-feedback/main.sol\":3917:3982  structUsers[structStatusPurchases[idPurchase].userLogin].ballance */\n      0x02\n      add\n        /* \"Documents/GitHub/Store-system-with-feedback/main.sol\":3917:4121  structUsers[structStatusPurchases[idPurchase].userLogin].ballance = structUsers[structStatusPurchases[idPurchase].userLogin].ballance - structProducts[structStatusPurchases[idPurchase].titleProduct].price */\n      dup2\n      swap1\n      sstore\n      pop\n        /* \"Documents/GitHub/Store-system-with-feedback/main.sol\":4194:4208  structProducts */\n      0x07\n        /* \"Documents/GitHub/Store-system-with-feedback/main.sol\":4209:4230  structStatusPurchases */\n      0x09\n        /* \"Documents/GitHub/Store-system-with-feedback/main.sol\":4231:4241  idPurchase */\n      dup4\n        /* \"Documents/GitHub/Store-system-with-feedback/main.sol\":4209:4242  structStatusPurchases[idPurchase] */\n      dup2\n      sload\n      dup2\n      lt\n      tag_141\n      jumpi\n      tag_142\n      tag_126\n      jump\t// in\n    tag_142:\n    tag_141:\n      swap1\n      0x00\n      mstore\n      keccak256(0x00, 0x20)\n      swap1\n      0x03\n      mul\n      add\n        /* \"Documents/GitHub/Store-system-with-feedback/main.sol\":4209:4255  structStatusPurchases[idPurchase].titleProduct */\n      0x01\n      add\n        /* \"Documents/GitHub/Store-system-with-feedback/main.sol\":4194:4256  structProducts[structStatusPurchases[idPurchase].titleProduct] */\n      mload(0x40)\n      tag_144\n      swap2\n      swap1\n      tag_132\n      jump\t// in\n    tag_144:\n      swap1\n      dup2\n      mstore\n      0x20\n      add\n      mload(0x40)\n      dup1\n      swap2\n      sub\n      swap1\n      keccak256\n        /* \"Documents/GitHub/Store-system-with-feedback/main.sol\":4194:4262  structProducts[structStatusPurchases[idPurchase].titleProduct].price */\n      0x02\n      add\n      sload\n        /* \"Documents/GitHub/Store-system-with-feedback/main.sol\":4165:4170  shops */\n      0x00\n        /* \"Documents/GitHub/Store-system-with-feedback/main.sol\":4165:4182  shops[msg.sender] */\n      dup1\n        /* \"Documents/GitHub/Store-system-with-feedback/main.sol\":4171:4181  msg.sender */\n      caller\n        /* \"Documents/GitHub/Store-system-with-feedback/main.sol\":4165:4182  shops[msg.sender] */\n      0xffffffffffffffffffffffffffffffffffffffff\n      and\n      0xffffffffffffffffffffffffffffffffffffffff\n      and\n      dup2\n      mstore\n      0x20\n      add\n      swap1\n      dup2\n      mstore\n      0x20\n      add\n      0x00\n      keccak256\n        /* \"Documents/GitHub/Store-system-with-feedback/main.sol\":4165:4191  shops[msg.sender].ballance */\n      0x03\n      add\n      sload\n        /* \"Documents/GitHub/Store-system-with-feedback/main.sol\":4165:4262  shops[msg.sender].ballance + structProducts[structStatusPurchases[idPurchase].titleProduct].price */\n      tag_145\n      swap2\n      swap1\n      tag_146\n      jump\t// in\n    tag_145:\n        /* \"Documents/GitHub/Store-system-with-feedback/main.sol\":4136:4141  shops */\n      0x00\n        /* \"Documents/GitHub/Store-system-with-feedback/main.sol\":4136:4153  shops[msg.sender] */\n      dup1\n        /* \"Documents/GitHub/Store-system-with-feedback/main.sol\":4142:4152  msg.sender */\n      caller\n        /* \"Documents/GitHub/Store-system-with-feedback/main.sol\":4136:4153  shops[msg.sender] */\n      0xffffffffffffffffffffffffffffffffffffffff\n      and\n      0xffffffffffffffffffffffffffffffffffffffff\n      and\n      dup2\n      mstore\n      0x20\n      add\n      swap1\n      dup2\n      mstore\n      0x20\n      add\n      0x00\n      keccak256\n        /* \"Documents/GitHub/Store-system-with-feedback/main.sol\":4136:4162  shops[msg.sender].ballance */\n      0x03\n      add\n        /* \"Documents/GitHub/Store-system-with-feedback/main.sol\":4136:4262  shops[msg.sender].ballance = shops[msg.sender].ballance + structProducts[structStatusPurchases[idPurchase].titleProduct].price */\n      dup2\n      swap1\n      sstore\n      pop\n        /* \"Documents/GitHub/Store-system-with-feedback/main.sol\":3813:4355  if (confirmation == true) {\r... */\n      jump(tag_147)\n    tag_123:\n        /* \"Documents/GitHub/Store-system-with-feedback/main.sol\":4338:4343  false */\n      0x00\n        /* \"Documents/GitHub/Store-system-with-feedback/main.sol\":4295:4316  structStatusPurchases */\n      0x09\n        /* \"Documents/GitHub/Store-system-with-feedback/main.sol\":4317:4327  idPurchase */\n      dup4\n        /* \"Documents/GitHub/Store-system-with-feedback/main.sol\":4295:4328  structStatusPurchases[idPurchase] */\n      dup2\n      sload\n      dup2\n      lt\n      tag_148\n      jumpi\n      tag_149\n      tag_126\n      jump\t// in\n    tag_149:\n    tag_148:\n      swap1\n      0x00\n      mstore\n      keccak256(0x00, 0x20)\n      swap1\n      0x03\n      mul\n      add\n        /* \"Documents/GitHub/Store-system-with-feedback/main.sol\":4295:4335  structStatusPurchases[idPurchase].status */\n      0x02\n      add\n      0x00\n        /* \"Documents/GitHub/Store-system-with-feedback/main.sol\":4295:4343  structStatusPurchases[idPurchase].status = false */\n      0x0100\n      exp\n      dup2\n      sload\n      dup2\n      0xff\n      mul\n      not\n      and\n      swap1\n      dup4\n      iszero\n      iszero\n      mul\n      or\n      swap1\n      sstore\n      pop\n        /* \"Documents/GitHub/Store-system-with-feedback/main.sol\":3813:4355  if (confirmation == true) {\r... */\n    tag_147:\n        /* \"Documents/GitHub/Store-system-with-feedback/main.sol\":3734:4362  function acceptPurchase (uint idPurchase, bool confirmation) public {\r... */\n      pop\n      pop\n      jump\t// out\n        /* \"Documents/GitHub/Store-system-with-feedback/main.sol\":6336:6607  function productPurchases (string memory titleProduct) public {\r... */\n    tag_38:\n        /* \"Documents/GitHub/Store-system-with-feedback/main.sol\":6453:6467  structProducts */\n      0x07\n        /* \"Documents/GitHub/Store-system-with-feedback/main.sol\":6468:6480  titleProduct */\n      dup2\n        /* \"Documents/GitHub/Store-system-with-feedback/main.sol\":6453:6481  structProducts[titleProduct] */\n      mload(0x40)\n      tag_152\n      swap2\n      swap1\n      tag_153\n      jump\t// in\n    tag_152:\n      swap1\n      dup2\n      mstore\n      0x20\n      add\n      mload(0x40)\n      dup1\n      swap2\n      sub\n      swap1\n      keccak256\n        /* \"Documents/GitHub/Store-system-with-feedback/main.sol\":6453:6487  structProducts[titleProduct].price */\n      0x02\n      add\n      sload\n        /* \"Documents/GitHub/Store-system-with-feedback/main.sol\":6417:6428  structUsers */\n      0x04\n        /* \"Documents/GitHub/Store-system-with-feedback/main.sol\":6417:6440  structUsers[msg.sender] */\n      0x00\n        /* \"Documents/GitHub/Store-system-with-feedback/main.sol\":6429:6439  msg.sender */\n      caller\n        /* \"Documents/GitHub/Store-system-with-feedback/main.sol\":6417:6440  structUsers[msg.sender] */\n      0xffffffffffffffffffffffffffffffffffffffff\n      and\n      0xffffffffffffffffffffffffffffffffffffffff\n      and\n      dup2\n      mstore\n      0x20\n      add\n      swap1\n      dup2\n      mstore\n      0x20\n      add\n      0x00\n      keccak256\n        /* \"Documents/GitHub/Store-system-with-feedback/main.sol\":6417:6449  structUsers[msg.sender].ballance */\n      0x02\n      add\n      sload\n        /* \"Documents/GitHub/Store-system-with-feedback/main.sol\":6417:6487  structUsers[msg.sender].ballance >= structProducts[titleProduct].price */\n      lt\n      iszero\n        /* \"Documents/GitHub/Store-system-with-feedback/main.sol\":6409:6508  require(structUsers[msg.sender].ballance >= structProducts[titleProduct].price, \"error: not money\") */\n      tag_154\n      jumpi\n      mload(0x40)\n      0x08c379a000000000000000000000000000000000000000000000000000000000\n      dup2\n      mstore\n      0x04\n      add\n      tag_155\n      swap1\n      tag_156\n      jump\t// in\n    tag_155:\n      mload(0x40)\n      dup1\n      swap2\n      sub\n      swap1\n      revert\n    tag_154:\n        /* \"Documents/GitHub/Store-system-with-feedback/main.sol\":6519:6540  structStatusPurchases */\n      0x09\n        /* \"Documents/GitHub/Store-system-with-feedback/main.sol\":6546:6598  structStatusPurchase(msg.sender, titleProduct, true) */\n      mload(0x40)\n      dup1\n      0x60\n      add\n      0x40\n      mstore\n      dup1\n        /* \"Documents/GitHub/Store-system-with-feedback/main.sol\":6567:6577  msg.sender */\n      caller\n        /* \"Documents/GitHub/Store-system-with-feedback/main.sol\":6546:6598  structStatusPurchase(msg.sender, titleProduct, true) */\n      0xffffffffffffffffffffffffffffffffffffffff\n      and\n      dup2\n      mstore\n      0x20\n      add\n        /* \"Documents/GitHub/Store-system-with-feedback/main.sol\":6579:6591  titleProduct */\n      dup4\n        /* \"Documents/GitHub/Store-system-with-feedback/main.sol\":6546:6598  structStatusPurchase(msg.sender, titleProduct, true) */\n      dup2\n      mstore\n      0x20\n      add\n        /* \"Documents/GitHub/Store-system-with-feedback/main.sol\":6593:6597  true */\n      0x01\n        /* \"Documents/GitHub/Store-system-with-feedback/main.sol\":6546:6598  structStatusPurchase(msg.sender, titleProduct, true) */\n      iszero\n      iszero\n      dup2\n      mstore\n      pop\n        /* \"Documents/GitHub/Store-system-with-feedback/main.sol\":6519:6599  structStatusPurchases.push(structStatusPurchase(msg.sender, titleProduct, true)) */\n      swap1\n      dup1\n      0x01\n      dup2\n      sload\n      add\n      dup1\n      dup3\n      sstore\n      dup1\n      swap2\n      pop\n      pop\n      0x01\n      swap1\n      sub\n      swap1\n      0x00\n      mstore\n      keccak256(0x00, 0x20)\n      swap1\n      0x03\n      mul\n      add\n      0x00\n      swap1\n      swap2\n      swap1\n      swap2\n      swap1\n      swap2\n      pop\n      0x00\n      dup3\n      add\n      mload\n      dup2\n      0x00\n      add\n      exp(0x0100, 0x00)\n      dup2\n      sload\n      dup2\n      0xffffffffffffffffffffffffffffffffffffffff\n      mul\n      not\n      and\n      swap1\n      dup4\n      0xffffffffffffffffffffffffffffffffffffffff\n      and\n      mul\n      or\n      swap1\n      sstore\n      pop\n      0x20\n      dup3\n      add\n      mload\n      dup2\n      0x01\n      add\n      swap1\n      dup1\n      mload\n      swap1\n      0x20\n      add\n      swap1\n      tag_158\n      swap3\n      swap2\n      swap1\n      tag_159\n      jump\t// in\n    tag_158:\n      pop\n      0x40\n      dup3\n      add\n      mload\n      dup2\n      0x02\n      add\n      exp(0x0100, 0x00)\n      dup2\n      sload\n      dup2\n      0xff\n      mul\n      not\n      and\n      swap1\n      dup4\n      iszero\n      iszero\n      mul\n      or\n      swap1\n      sstore\n      pop\n      pop\n      pop\n        /* \"Documents/GitHub/Store-system-with-feedback/main.sol\":6336:6607  function productPurchases (string memory titleProduct) public {\r... */\n      pop\n      jump\t// out\n        /* \"Documents/GitHub/Store-system-with-feedback/main.sol\":1862:1912  mapping(string => address) public structUserLogins */\n    tag_41:\n      0x05\n      dup2\n      dup1\n      mload\n      0x20\n      dup2\n      add\n      dup3\n      add\n      dup1\n      mload\n      dup5\n      dup3\n      mstore\n      0x20\n      dup4\n      add\n      0x20\n      dup6\n      add\n      keccak256\n      dup2\n      dup4\n      mstore\n      dup1\n      swap6\n      pop\n      pop\n      pop\n      pop\n      pop\n      pop\n      0x00\n      swap2\n      pop\n      sload\n      swap1\n      0x0100\n      exp\n      swap1\n      div\n      0xffffffffffffffffffffffffffffffffffffffff\n      and\n      dup2\n      jump\t// out\n        /* \"Documents/GitHub/Store-system-with-feedback/main.sol\":4407:4868  function acceptReturn(uint idReturn, bool confirmation) public {\r... */\n    tag_46:\n        /* \"Documents/GitHub/Store-system-with-feedback/main.sol\":4500:4504  true */\n      0x01\n        /* \"Documents/GitHub/Store-system-with-feedback/main.sol\":4484:4504  confirmation == true */\n      iszero\n      iszero\n        /* \"Documents/GitHub/Store-system-with-feedback/main.sol\":4484:4496  confirmation */\n      dup2\n        /* \"Documents/GitHub/Store-system-with-feedback/main.sol\":4484:4504  confirmation == true */\n      iszero\n      iszero\n      eq\n        /* \"Documents/GitHub/Store-system-with-feedback/main.sol\":4481:4861  if(confirmation == true) {\r... */\n      iszero\n      tag_161\n      jumpi\n        /* \"Documents/GitHub/Store-system-with-feedback/main.sol\":4560:4565  false */\n      0x00\n        /* \"Documents/GitHub/Store-system-with-feedback/main.sol\":4521:4540  structStatusReturns */\n      0x0a\n        /* \"Documents/GitHub/Store-system-with-feedback/main.sol\":4541:4549  idReturn */\n      dup4\n        /* \"Documents/GitHub/Store-system-with-feedback/main.sol\":4521:4550  structStatusReturns[idReturn] */\n      dup2\n      sload\n      dup2\n      lt\n      tag_162\n      jumpi\n      tag_163\n      tag_126\n      jump\t// in\n    tag_163:\n    tag_162:\n      swap1\n      0x00\n      mstore\n      keccak256(0x00, 0x20)\n      swap1\n      0x03\n      mul\n      add\n        /* \"Documents/GitHub/Store-system-with-feedback/main.sol\":4521:4557  structStatusReturns[idReturn].status */\n      0x02\n      add\n      0x00\n        /* \"Documents/GitHub/Store-system-with-feedback/main.sol\":4521:4565  structStatusReturns[idReturn].status = false */\n      0x0100\n      exp\n      dup2\n      sload\n      dup2\n      0xff\n      mul\n      not\n      and\n      swap1\n      dup4\n      iszero\n      iszero\n      mul\n      or\n      swap1\n      sstore\n      pop\n        /* \"Documents/GitHub/Store-system-with-feedback/main.sol\":4708:4722  structProducts */\n      0x07\n        /* \"Documents/GitHub/Store-system-with-feedback/main.sol\":4723:4742  structStatusReturns */\n      0x0a\n        /* \"Documents/GitHub/Store-system-with-feedback/main.sol\":4743:4751  idReturn */\n      dup4\n        /* \"Documents/GitHub/Store-system-with-feedback/main.sol\":4723:4752  structStatusReturns[idReturn] */\n      dup2\n      sload\n      dup2\n      lt\n      tag_165\n      jumpi\n      tag_166\n      tag_126\n      jump\t// in\n    tag_166:\n    tag_165:\n      swap1\n      0x00\n      mstore\n      keccak256(0x00, 0x20)\n      swap1\n      0x03\n      mul\n      add\n        /* \"Documents/GitHub/Store-system-with-feedback/main.sol\":4723:4765  structStatusReturns[idReturn].titleProduct */\n      0x01\n      add\n        /* \"Documents/GitHub/Store-system-with-feedback/main.sol\":4708:4766  structProducts[structStatusReturns[idReturn].titleProduct] */\n      mload(0x40)\n      tag_168\n      swap2\n      swap1\n      tag_132\n      jump\t// in\n    tag_168:\n      swap1\n      dup2\n      mstore\n      0x20\n      add\n      mload(0x40)\n      dup1\n      swap2\n      sub\n      swap1\n      keccak256\n        /* \"Documents/GitHub/Store-system-with-feedback/main.sol\":4708:4772  structProducts[structStatusReturns[idReturn].titleProduct].price */\n      0x02\n      add\n      sload\n        /* \"Documents/GitHub/Store-system-with-feedback/main.sol\":4644:4655  structUsers */\n      0x04\n        /* \"Documents/GitHub/Store-system-with-feedback/main.sol\":4644:4696  structUsers[structStatusReturns[idReturn].userLogin] */\n      0x00\n        /* \"Documents/GitHub/Store-system-with-feedback/main.sol\":4656:4675  structStatusReturns */\n      0x0a\n        /* \"Documents/GitHub/Store-system-with-feedback/main.sol\":4676:4684  idReturn */\n      dup6\n        /* \"Documents/GitHub/Store-system-with-feedback/main.sol\":4656:4685  structStatusReturns[idReturn] */\n      dup2\n      sload\n      dup2\n      lt\n      tag_169\n      jumpi\n      tag_170\n      tag_126\n      jump\t// in\n    tag_170:\n    tag_169:\n      swap1\n      0x00\n      mstore\n      keccak256(0x00, 0x20)\n      swap1\n      0x03\n      mul\n      add\n        /* \"Documents/GitHub/Store-system-with-feedback/main.sol\":4656:4695  structStatusReturns[idReturn].userLogin */\n      0x00\n      add\n      0x00\n      swap1\n      sload\n      swap1\n      0x0100\n      exp\n      swap1\n      div\n      0xffffffffffffffffffffffffffffffffffffffff\n      and\n        /* \"Documents/GitHub/Store-system-with-feedback/main.sol\":4644:4696  structUsers[structStatusReturns[idReturn].userLogin] */\n      0xffffffffffffffffffffffffffffffffffffffff\n      and\n      0xffffffffffffffffffffffffffffffffffffffff\n      and\n      dup2\n      mstore\n      0x20\n      add\n      swap1\n      dup2\n      mstore\n      0x20\n      add\n      0x00\n      keccak256\n        /* \"Documents/GitHub/Store-system-with-feedback/main.sol\":4644:4705  structUsers[structStatusReturns[idReturn].userLogin].ballance */\n      0x02\n      add\n      sload\n        /* \"Documents/GitHub/Store-system-with-feedback/main.sol\":4644:4772  structUsers[structStatusReturns[idReturn].userLogin].ballance + structProducts[structStatusReturns[idReturn].titleProduct].price */\n      tag_172\n      swap2\n      swap1\n      tag_146\n      jump\t// in\n    tag_172:\n        /* \"Documents/GitHub/Store-system-with-feedback/main.sol\":4580:4591  structUsers */\n      0x04\n        /* \"Documents/GitHub/Store-system-with-feedback/main.sol\":4580:4632  structUsers[structStatusReturns[idReturn].userLogin] */\n      0x00\n        /* \"Documents/GitHub/Store-system-with-feedback/main.sol\":4592:4611  structStatusReturns */\n      0x0a\n        /* \"Documents/GitHub/Store-system-with-feedback/main.sol\":4612:4620  idReturn */\n      dup6\n        /* \"Documents/GitHub/Store-system-with-feedback/main.sol\":4592:4621  structStatusReturns[idReturn] */\n      dup2\n      sload\n      dup2\n      lt\n      tag_173\n      jumpi\n      tag_174\n      tag_126\n      jump\t// in\n    tag_174:\n    tag_173:\n      swap1\n      0x00\n      mstore\n      keccak256(0x00, 0x20)\n      swap1\n      0x03\n      mul\n      add\n        /* \"Documents/GitHub/Store-system-with-feedback/main.sol\":4592:4631  structStatusReturns[idReturn].userLogin */\n      0x00\n      add\n      0x00\n      swap1\n      sload\n      swap1\n      0x0100\n      exp\n      swap1\n      div\n      0xffffffffffffffffffffffffffffffffffffffff\n      and\n        /* \"Documents/GitHub/Store-system-with-feedback/main.sol\":4580:4632  structUsers[structStatusReturns[idReturn].userLogin] */\n      0xffffffffffffffffffffffffffffffffffffffff\n      and\n      0xffffffffffffffffffffffffffffffffffffffff\n      and\n      dup2\n      mstore\n      0x20\n      add\n      swap1\n      dup2\n      mstore\n      0x20\n      add\n      0x00\n      keccak256\n        /* \"Documents/GitHub/Store-system-with-feedback/main.sol\":4580:4641  structUsers[structStatusReturns[idReturn].userLogin].ballance */\n      0x02\n      add\n        /* \"Documents/GitHub/Store-system-with-feedback/main.sol\":4580:4772  structUsers[structStatusReturns[idReturn].userLogin].ballance = structUsers[structStatusReturns[idReturn].userLogin].ballance + structProducts[structStatusReturns[idReturn].titleProduct].price */\n      dup2\n      swap1\n      sstore\n      pop\n        /* \"Documents/GitHub/Store-system-with-feedback/main.sol\":4481:4861  if(confirmation == true) {\r... */\n      jump(tag_176)\n    tag_161:\n        /* \"Documents/GitHub/Store-system-with-feedback/main.sol\":4844:4849  false */\n      0x00\n        /* \"Documents/GitHub/Store-system-with-feedback/main.sol\":4805:4824  structStatusReturns */\n      0x0a\n        /* \"Documents/GitHub/Store-system-with-feedback/main.sol\":4825:4833  idReturn */\n      dup4\n        /* \"Documents/GitHub/Store-system-with-feedback/main.sol\":4805:4834  structStatusReturns[idReturn] */\n      dup2\n      sload\n      dup2\n      lt\n      tag_177\n      jumpi\n      tag_178\n      tag_126\n      jump\t// in\n    tag_178:\n    tag_177:\n      swap1\n      0x00\n      mstore\n      keccak256(0x00, 0x20)\n      swap1\n      0x03\n      mul\n      add\n        /* \"Documents/GitHub/Store-system-with-feedback/main.sol\":4805:4841  structStatusReturns[idReturn].status */\n      0x02\n      add\n      0x00\n        /* \"Documents/GitHub/Store-system-with-feedback/main.sol\":4805:4849  structStatusReturns[idReturn].status = false */\n      0x0100\n      exp\n      dup2\n      sload\n      dup2\n      0xff\n      mul\n      not\n      and\n      swap1\n      dup4\n      iszero\n      iszero\n      mul\n      or\n      swap1\n      sstore\n      pop\n        /* \"Documents/GitHub/Store-system-with-feedback/main.sol\":4481:4861  if(confirmation == true) {\r... */\n    tag_176:\n        /* \"Documents/GitHub/Store-system-with-feedback/main.sol\":4407:4868  function acceptReturn(uint idReturn, bool confirmation) public {\r... */\n      pop\n      pop\n      jump\t// out\n        /* \"Documents/GitHub/Store-system-with-feedback/main.sol\":6846:7030  function productMarriageRegistration (string memory titleProduct) public {\r... */\n    tag_49:\n        /* \"Documents/GitHub/Store-system-with-feedback/main.sol\":6930:6957  structMarriageRegistrations */\n      0x0b\n        /* \"Documents/GitHub/Store-system-with-feedback/main.sol\":6963:7021  structMarriageRegistration(msg.sender, titleProduct, true) */\n      mload(0x40)\n      dup1\n      0x60\n      add\n      0x40\n      mstore\n      dup1\n        /* \"Documents/GitHub/Store-system-with-feedback/main.sol\":6990:7000  msg.sender */\n      caller\n        /* \"Documents/GitHub/Store-system-with-feedback/main.sol\":6963:7021  structMarriageRegistration(msg.sender, titleProduct, true) */\n      0xffffffffffffffffffffffffffffffffffffffff\n      and\n      dup2\n      mstore\n      0x20\n      add\n        /* \"Documents/GitHub/Store-system-with-feedback/main.sol\":7002:7014  titleProduct */\n      dup4\n        /* \"Documents/GitHub/Store-system-with-feedback/main.sol\":6963:7021  structMarriageRegistration(msg.sender, titleProduct, true) */\n      dup2\n      mstore\n      0x20\n      add\n        /* \"Documents/GitHub/Store-system-with-feedback/main.sol\":7016:7020  true */\n      0x01\n        /* \"Documents/GitHub/Store-system-with-feedback/main.sol\":6963:7021  structMarriageRegistration(msg.sender, titleProduct, true) */\n      iszero\n      iszero\n      dup2\n      mstore\n      pop\n        /* \"Documents/GitHub/Store-system-with-feedback/main.sol\":6930:7022  structMarriageRegistrations.push(structMarriageRegistration(msg.sender, titleProduct, true)) */\n      swap1\n      dup1\n      0x01\n      dup2\n      sload\n      add\n      dup1\n      dup3\n      sstore\n      dup1\n      swap2\n      pop\n      pop\n      0x01\n      swap1\n      sub\n      swap1\n      0x00\n      mstore\n      keccak256(0x00, 0x20)\n      swap1\n      0x03\n      mul\n      add\n      0x00\n      swap1\n      swap2\n      swap1\n      swap2\n      swap1\n      swap2\n      pop\n      0x00\n      dup3\n      add\n      mload\n      dup2\n      0x00\n      add\n      exp(0x0100, 0x00)\n      dup2\n      sload\n      dup2\n      0xffffffffffffffffffffffffffffffffffffffff\n      mul\n      not\n      and\n      swap1\n      dup4\n      0xffffffffffffffffffffffffffffffffffffffff\n      and\n      mul\n      or\n      swap1\n      sstore\n      pop\n      0x20\n      dup3\n      add\n      mload\n      dup2\n      0x01\n      add\n      swap1\n      dup1\n      mload\n      swap1\n      0x20\n      add\n      swap1\n      tag_182\n      swap3\n      swap2\n      swap1\n      tag_159\n      jump\t// in\n    tag_182:\n      pop\n      0x40\n      dup3\n      add\n      mload\n      dup2\n      0x02\n      add\n      exp(0x0100, 0x00)\n      dup2\n      sload\n      dup2\n      0xff\n      mul\n      not\n      and\n      swap1\n      dup4\n      iszero\n      iszero\n      mul\n      or\n      swap1\n      sstore\n      pop\n      pop\n      pop\n        /* \"Documents/GitHub/Store-system-with-feedback/main.sol\":6846:7030  function productMarriageRegistration (string memory titleProduct) public {\r... */\n      pop\n      jump\t// out\n        /* \"Documents/GitHub/Store-system-with-feedback/main.sol\":5655:5755  function getProductList() public view returns(string[] memory) {\r... */\n    tag_51:\n        /* \"Documents/GitHub/Store-system-with-feedback/main.sol\":5701:5716  string[] memory */\n      0x60\n        /* \"Documents/GitHub/Store-system-with-feedback/main.sol\":5736:5747  productList */\n      0x08\n        /* \"Documents/GitHub/Store-system-with-feedback/main.sol\":5729:5747  return productList */\n      dup1\n      sload\n      dup1\n      0x20\n      mul\n      0x20\n      add\n      mload(0x40)\n      swap1\n      dup2\n      add\n      0x40\n      mstore\n      dup1\n      swap3\n      swap2\n      swap1\n      dup2\n      dup2\n      mstore\n      0x20\n      add\n      0x00\n      swap1\n    tag_184:\n      dup3\n      dup3\n      lt\n      iszero\n      tag_185\n      jumpi\n      dup4\n      dup3\n      swap1\n      0x00\n      mstore\n      keccak256(0x00, 0x20)\n      add\n      dup1\n      sload\n      tag_187\n      swap1\n      tag_107\n      jump\t// in\n    tag_187:\n      dup1\n      0x1f\n      add\n      0x20\n      dup1\n      swap2\n      div\n      mul\n      0x20\n      add\n      mload(0x40)\n      swap1\n      dup2\n      add\n      0x40\n      mstore\n      dup1\n      swap3\n      swap2\n      swap1\n      dup2\n      dup2\n      mstore\n      0x20\n      add\n      dup3\n      dup1\n      sload\n      tag_188\n      swap1\n      tag_107\n      jump\t// in\n    tag_188:\n      dup1\n      iszero\n      tag_189\n      jumpi\n      dup1\n      0x1f\n      lt\n      tag_190\n      jumpi\n      0x0100\n      dup1\n      dup4\n      sload\n      div\n      mul\n      dup4\n      mstore\n      swap2\n      0x20\n      add\n      swap2\n      jump(tag_189)\n    tag_190:\n      dup3\n      add\n      swap2\n      swap1\n      0x00\n      mstore\n      keccak256(0x00, 0x20)\n      swap1\n    tag_191:\n      dup2\n      sload\n      dup2\n      mstore\n      swap1\n      0x01\n      add\n      swap1\n      0x20\n      add\n      dup1\n      dup4\n      gt\n      tag_191\n      jumpi\n      dup3\n      swap1\n      sub\n      0x1f\n      and\n      dup3\n      add\n      swap2\n    tag_189:\n      pop\n      pop\n      pop\n      pop\n      pop\n      dup2\n      mstore\n      0x20\n      add\n      swap1\n      0x01\n      add\n      swap1\n      jump(tag_184)\n    tag_185:\n      pop\n      pop\n      pop\n      pop\n      swap1\n      pop\n        /* \"Documents/GitHub/Store-system-with-feedback/main.sol\":5655:5755  function getProductList() public view returns(string[] memory) {\r... */\n      swap1\n      jump\t// out\n        /* \"Documents/GitHub/Store-system-with-feedback/main.sol\":2961:3242  function addProductShop (string memory title, uint256 price, string memory description) public {\r... */\n    tag_57:\n        /* \"Documents/GitHub/Store-system-with-feedback/main.sol\":3091:3163  structProduct(msg.sender, description , price, addProductShop_idProduct) */\n      mload(0x40)\n      dup1\n      0x80\n      add\n      0x40\n      mstore\n      dup1\n        /* \"Documents/GitHub/Store-system-with-feedback/main.sol\":3105:3115  msg.sender */\n      caller\n        /* \"Documents/GitHub/Store-system-with-feedback/main.sol\":3091:3163  structProduct(msg.sender, description , price, addProductShop_idProduct) */\n      0xffffffffffffffffffffffffffffffffffffffff\n      and\n      dup2\n      mstore\n      0x20\n      add\n        /* \"Documents/GitHub/Store-system-with-feedback/main.sol\":3117:3128  description */\n      dup3\n        /* \"Documents/GitHub/Store-system-with-feedback/main.sol\":3091:3163  structProduct(msg.sender, description , price, addProductShop_idProduct) */\n      dup2\n      mstore\n      0x20\n      add\n        /* \"Documents/GitHub/Store-system-with-feedback/main.sol\":3131:3136  price */\n      dup4\n        /* \"Documents/GitHub/Store-system-with-feedback/main.sol\":3091:3163  structProduct(msg.sender, description , price, addProductShop_idProduct) */\n      dup2\n      mstore\n      0x20\n      add\n        /* \"Documents/GitHub/Store-system-with-feedback/main.sol\":3138:3162  addProductShop_idProduct */\n      sload(0x0c)\n        /* \"Documents/GitHub/Store-system-with-feedback/main.sol\":3091:3163  structProduct(msg.sender, description , price, addProductShop_idProduct) */\n      dup2\n      mstore\n      pop\n        /* \"Documents/GitHub/Store-system-with-feedback/main.sol\":3067:3081  structProducts */\n      0x07\n        /* \"Documents/GitHub/Store-system-with-feedback/main.sol\":3082:3087  title */\n      dup5\n        /* \"Documents/GitHub/Store-system-with-feedback/main.sol\":3067:3088  structProducts[title] */\n      mload(0x40)\n      tag_193\n      swap2\n      swap1\n      tag_153\n      jump\t// in\n    tag_193:\n      swap1\n      dup2\n      mstore\n      0x20\n      add\n      mload(0x40)\n      dup1\n      swap2\n      sub\n      swap1\n      keccak256\n        /* \"Documents/GitHub/Store-system-with-feedback/main.sol\":3067:3163  structProducts[title] = structProduct(msg.sender, description , price, addProductShop_idProduct) */\n      0x00\n      dup3\n      add\n      mload\n      dup2\n      0x00\n      add\n      exp(0x0100, 0x00)\n      dup2\n      sload\n      dup2\n      0xffffffffffffffffffffffffffffffffffffffff\n      mul\n      not\n      and\n      swap1\n      dup4\n      0xffffffffffffffffffffffffffffffffffffffff\n      and\n      mul\n      or\n      swap1\n      sstore\n      pop\n      0x20\n      dup3\n      add\n      mload\n      dup2\n      0x01\n      add\n      swap1\n      dup1\n      mload\n      swap1\n      0x20\n      add\n      swap1\n      tag_194\n      swap3\n      swap2\n      swap1\n      tag_159\n      jump\t// in\n    tag_194:\n      pop\n      0x40\n      dup3\n      add\n      mload\n      dup2\n      0x02\n      add\n      sstore\n      0x60\n      dup3\n      add\n      mload\n      dup2\n      0x03\n      add\n      sstore\n      swap1\n      pop\n      pop\n        /* \"Documents/GitHub/Store-system-with-feedback/main.sol\":3174:3185  productList */\n      0x08\n        /* \"Documents/GitHub/Store-system-with-feedback/main.sol\":3191:3196  title */\n      dup4\n        /* \"Documents/GitHub/Store-system-with-feedback/main.sol\":3174:3197  productList.push(title) */\n      swap1\n      dup1\n      0x01\n      dup2\n      sload\n      add\n      dup1\n      dup3\n      sstore\n      dup1\n      swap2\n      pop\n      pop\n      0x01\n      swap1\n      sub\n      swap1\n      0x00\n      mstore\n      keccak256(0x00, 0x20)\n      add\n      0x00\n      swap1\n      swap2\n      swap1\n      swap2\n      swap1\n      swap2\n      pop\n      swap1\n      dup1\n      mload\n      swap1\n      0x20\n      add\n      swap1\n      tag_196\n      swap3\n      swap2\n      swap1\n      tag_159\n      jump\t// in\n    tag_196:\n      pop\n        /* \"Documents/GitHub/Store-system-with-feedback/main.sol\":3208:3232  addProductShop_idProduct */\n      0x0c\n      0x00\n        /* \"Documents/GitHub/Store-system-with-feedback/main.sol\":3208:3234  addProductShop_idProduct++ */\n      dup2\n      sload\n      dup1\n      swap3\n      swap2\n      swap1\n      tag_197\n      swap1\n      tag_198\n      jump\t// in\n    tag_197:\n      swap2\n      swap1\n      pop\n      sstore\n      pop\n        /* \"Documents/GitHub/Store-system-with-feedback/main.sol\":2961:3242  function addProductShop (string memory title, uint256 price, string memory description) public {\r... */\n      pop\n      pop\n      pop\n      jump\t// out\n        /* \"Documents/GitHub/Store-system-with-feedback/main.sol\":2776:2839  structMarriageRegistration[] public structMarriageRegistrations */\n    tag_60:\n      0x0b\n      dup2\n      dup2\n      sload\n      dup2\n      lt\n      tag_199\n      jumpi\n      0x00\n      dup1\n      revert\n    tag_199:\n      swap1\n      0x00\n      mstore\n      keccak256(0x00, 0x20)\n      swap1\n      0x03\n      mul\n      add\n      0x00\n      swap2\n      pop\n      swap1\n      pop\n      dup1\n      0x00\n      add\n      0x00\n      swap1\n      sload\n      swap1\n      0x0100\n      exp\n      swap1\n      div\n      0xffffffffffffffffffffffffffffffffffffffff\n      and\n      swap1\n      dup1\n      0x01\n      add\n      dup1\n      sload\n      tag_201\n      swap1\n      tag_107\n      jump\t// in\n    tag_201:\n      dup1\n      0x1f\n      add\n      0x20\n      dup1\n      swap2\n      div\n      mul\n      0x20\n      add\n      mload(0x40)\n      swap1\n      dup2\n      add\n      0x40\n      mstore\n      dup1\n      swap3\n      swap2\n      swap1\n      dup2\n      dup2\n      mstore\n      0x20\n      add\n      dup3\n      dup1\n      sload\n      tag_202\n      swap1\n      tag_107\n      jump\t// in\n    tag_202:\n      dup1\n      iszero\n      tag_203\n      jumpi\n      dup1\n      0x1f\n      lt\n      tag_204\n      jumpi\n      0x0100\n      dup1\n      dup4\n      sload\n      div\n      mul\n      dup4\n      mstore\n      swap2\n      0x20\n      add\n      swap2\n      jump(tag_203)\n    tag_204:\n      dup3\n      add\n      swap2\n      swap1\n      0x00\n      mstore\n      keccak256(0x00, 0x20)\n      swap1\n    tag_205:\n      dup2\n      sload\n      dup2\n      mstore\n      swap1\n      0x01\n      add\n      swap1\n      0x20\n      add\n      dup1\n      dup4\n      gt\n      tag_205\n      jumpi\n      dup3\n      swap1\n      sub\n      0x1f\n      and\n      dup3\n      add\n      swap2\n    tag_203:\n      pop\n      pop\n      pop\n      pop\n      pop\n      swap1\n      dup1\n      0x02\n      add\n      0x00\n      swap1\n      sload\n      swap1\n      0x0100\n      exp\n      swap1\n      div\n      0xff\n      and\n      swap1\n      pop\n      dup4\n      jump\t// out\n        /* \"Documents/GitHub/Store-system-with-feedback/main.sol\":1806:1855  mapping(address => structUser) public structUsers */\n    tag_66:\n      mstore(0x20, 0x04)\n      dup1\n      0x00\n      mstore\n      keccak256(0x00, 0x40)\n      0x00\n      swap2\n      pop\n      swap1\n      pop\n      dup1\n      0x00\n      add\n      dup1\n      sload\n      tag_206\n      swap1\n      tag_107\n      jump\t// in\n    tag_206:\n      dup1\n      0x1f\n      add\n      0x20\n      dup1\n      swap2\n      div\n      mul\n      0x20\n      add\n      mload(0x40)\n      swap1\n      dup2\n      add\n      0x40\n      mstore\n      dup1\n      swap3\n      swap2\n      swap1\n      dup2\n      dup2\n      mstore\n      0x20\n      add\n      dup3\n      dup1\n      sload\n      tag_207\n      swap1\n      tag_107\n      jump\t// in\n    tag_207:\n      dup1\n      iszero\n      tag_208\n      jumpi\n      dup1\n      0x1f\n      lt\n      tag_209\n      jumpi\n      0x0100\n      dup1\n      dup4\n      sload\n      div\n      mul\n      dup4\n      mstore\n      swap2\n      0x20\n      add\n      swap2\n      jump(tag_208)\n    tag_209:\n      dup3\n      add\n      swap2\n      swap1\n      0x00\n      mstore\n      keccak256(0x00, 0x20)\n      swap1\n    tag_210:\n      dup2\n      sload\n      dup2\n      mstore\n      swap1\n      0x01\n      add\n      swap1\n      0x20\n      add\n      dup1\n      dup4\n      gt\n      tag_210\n      jumpi\n      dup3\n      swap1\n      sub\n      0x1f\n      and\n      dup3\n      add\n      swap2\n    tag_208:\n      pop\n      pop\n      pop\n      pop\n      pop\n      swap1\n      dup1\n      0x01\n      add\n      sload\n      swap1\n      dup1\n      0x02\n      add\n      sload\n      swap1\n      pop\n      dup4\n      jump\t// out\n        /* \"Documents/GitHub/Store-system-with-feedback/main.sol\":5787:6251  function getStoryRating(string memory shopName) public view returns(uint) {\r... */\n    tag_71:\n        /* \"Documents/GitHub/Store-system-with-feedback/main.sol\":5855:5859  uint */\n      0x00\n        /* \"Documents/GitHub/Store-system-with-feedback/main.sol\":5933:5943  uint count */\n      dup1\n        /* \"Documents/GitHub/Store-system-with-feedback/main.sol\":5946:5947  0 */\n      0x00\n        /* \"Documents/GitHub/Store-system-with-feedback/main.sol\":5933:5947  uint count = 0 */\n      swap1\n      pop\n        /* \"Documents/GitHub/Store-system-with-feedback/main.sol\":5958:5982  uint complaintBooklength */\n      0x00\n        /* \"Documents/GitHub/Store-system-with-feedback/main.sol\":5985:5999  complaintBooks */\n      0x03\n        /* \"Documents/GitHub/Store-system-with-feedback/main.sol\":5985:6006  complaintBooks.length */\n      dup1\n      sload\n      swap1\n      pop\n        /* \"Documents/GitHub/Store-system-with-feedback/main.sol\":5958:6006  uint complaintBooklength = complaintBooks.length */\n      swap1\n      pop\n        /* \"Documents/GitHub/Store-system-with-feedback/main.sol\":6021:6027  uint i */\n      0x00\n        /* \"Documents/GitHub/Store-system-with-feedback/main.sol\":6017:6126  for(uint i = 0; i < shopList.length; i++) {\r... */\n    tag_212:\n        /* \"Documents/GitHub/Store-system-with-feedback/main.sol\":6037:6045  shopList */\n      0x02\n        /* \"Documents/GitHub/Store-system-with-feedback/main.sol\":6037:6052  shopList.length */\n      dup1\n      sload\n      swap1\n      pop\n        /* \"Documents/GitHub/Store-system-with-feedback/main.sol\":6033:6034  i */\n      dup2\n        /* \"Documents/GitHub/Store-system-with-feedback/main.sol\":6033:6052  i < shopList.length */\n      lt\n        /* \"Documents/GitHub/Store-system-with-feedback/main.sol\":6017:6126  for(uint i = 0; i < shopList.length; i++) {\r... */\n      iszero\n      tag_213\n      jumpi\n        /* \"Documents/GitHub/Store-system-with-feedback/main.sol\":6074:6100  string memory tempShopName */\n      0x00\n        /* \"Documents/GitHub/Store-system-with-feedback/main.sol\":6103:6111  shopList */\n      0x02\n        /* \"Documents/GitHub/Store-system-with-feedback/main.sol\":6112:6113  i */\n      dup3\n        /* \"Documents/GitHub/Store-system-with-feedback/main.sol\":6103:6114  shopList[i] */\n      dup2\n      sload\n      dup2\n      lt\n      tag_215\n      jumpi\n      tag_216\n      tag_126\n      jump\t// in\n    tag_216:\n    tag_215:\n      swap1\n      0x00\n      mstore\n      keccak256(0x00, 0x20)\n      add\n        /* \"Documents/GitHub/Store-system-with-feedback/main.sol\":6074:6114  string memory tempShopName = shopList[i] */\n      dup1\n      sload\n      tag_218\n      swap1\n      tag_107\n      jump\t// in\n    tag_218:\n      dup1\n      0x1f\n      add\n      0x20\n      dup1\n      swap2\n      div\n      mul\n      0x20\n      add\n      mload(0x40)\n      swap1\n      dup2\n      add\n      0x40\n      mstore\n      dup1\n      swap3\n      swap2\n      swap1\n      dup2\n      dup2\n      mstore\n      0x20\n      add\n      dup3\n      dup1\n      sload\n      tag_219\n      swap1\n      tag_107\n      jump\t// in\n    tag_219:\n      dup1\n      iszero\n      tag_220\n      jumpi\n      dup1\n      0x1f\n      lt\n      tag_221\n      jumpi\n      0x0100\n      dup1\n      dup4\n      sload\n      div\n      mul\n      dup4\n      mstore\n      swap2\n      0x20\n      add\n      swap2\n      jump(tag_220)\n    tag_221:\n      dup3\n      add\n      swap2\n      swap1\n      0x00\n      mstore\n      keccak256(0x00, 0x20)\n      swap1\n    tag_222:\n      dup2\n      sload\n      dup2\n      mstore\n      swap1\n      0x01\n      add\n      swap1\n      0x20\n      add\n      dup1\n      dup4\n      gt\n      tag_222\n      jumpi\n      dup3\n      swap1\n      sub\n      0x1f\n      and\n      dup3\n      add\n      swap2\n    tag_220:\n      pop\n      pop\n      pop\n      pop\n      pop\n      swap1\n      pop\n        /* \"Documents/GitHub/Store-system-with-feedback/main.sol\":6059:6126  {\r... */\n      pop\n        /* \"Documents/GitHub/Store-system-with-feedback/main.sol\":6054:6057  i++ */\n      dup1\n      dup1\n      tag_223\n      swap1\n      tag_198\n      jump\t// in\n    tag_223:\n      swap2\n      pop\n      pop\n        /* \"Documents/GitHub/Store-system-with-feedback/main.sol\":6017:6126  for(uint i = 0; i < shopList.length; i++) {\r... */\n      jump(tag_212)\n    tag_213:\n      pop\n        /* \"Documents/GitHub/Store-system-with-feedback/main.sol\":6145:6151  uint i */\n      0x00\n        /* \"Documents/GitHub/Store-system-with-feedback/main.sol\":6140:6221  for (uint i = 0; i < complaintBooklength; i++) {\r... */\n    tag_224:\n        /* \"Documents/GitHub/Store-system-with-feedback/main.sol\":6161:6180  complaintBooklength */\n      dup2\n        /* \"Documents/GitHub/Store-system-with-feedback/main.sol\":6157:6158  i */\n      dup2\n        /* \"Documents/GitHub/Store-system-with-feedback/main.sol\":6157:6180  i < complaintBooklength */\n      lt\n        /* \"Documents/GitHub/Store-system-with-feedback/main.sol\":6140:6221  for (uint i = 0; i < complaintBooklength; i++) {\r... */\n      iszero\n      tag_225\n      jumpi\n        /* \"Documents/GitHub/Store-system-with-feedback/main.sol\":6182:6185  i++ */\n      dup1\n      dup1\n      tag_227\n      swap1\n      tag_198\n      jump\t// in\n    tag_227:\n      swap2\n      pop\n      pop\n        /* \"Documents/GitHub/Store-system-with-feedback/main.sol\":6140:6221  for (uint i = 0; i < complaintBooklength; i++) {\r... */\n      jump(tag_224)\n    tag_225:\n      pop\n        /* \"Documents/GitHub/Store-system-with-feedback/main.sol\":6238:6243  count */\n      dup2\n        /* \"Documents/GitHub/Store-system-with-feedback/main.sol\":6231:6243  return count */\n      swap3\n      pop\n      pop\n      pop\n        /* \"Documents/GitHub/Store-system-with-feedback/main.sol\":5787:6251  function getStoryRating(string memory shopName) public view returns(uint) {\r... */\n      swap2\n      swap1\n      pop\n      jump\t// out\n        /* \"Documents/GitHub/Store-system-with-feedback/main.sol\":2556:2603  structStatusReturn[] public structStatusReturns */\n    tag_76:\n      0x0a\n      dup2\n      dup2\n      sload\n      dup2\n      lt\n      tag_228\n      jumpi\n      0x00\n      dup1\n      revert\n    tag_228:\n      swap1\n      0x00\n      mstore\n      keccak256(0x00, 0x20)\n      swap1\n      0x03\n      mul\n      add\n      0x00\n      swap2\n      pop\n      swap1\n      pop\n      dup1\n      0x00\n      add\n      0x00\n      swap1\n      sload\n      swap1\n      0x0100\n      exp\n      swap1\n      div\n      0xffffffffffffffffffffffffffffffffffffffff\n      and\n      swap1\n      dup1\n      0x01\n      add\n      dup1\n      sload\n      tag_230\n      swap1\n      tag_107\n      jump\t// in\n    tag_230:\n      dup1\n      0x1f\n      add\n      0x20\n      dup1\n      swap2\n      div\n      mul\n      0x20\n      add\n      mload(0x40)\n      swap1\n      dup2\n      add\n      0x40\n      mstore\n      dup1\n      swap3\n      swap2\n      swap1\n      dup2\n      dup2\n      mstore\n      0x20\n      add\n      dup3\n      dup1\n      sload\n      tag_231\n      swap1\n      tag_107\n      jump\t// in\n    tag_231:\n      dup1\n      iszero\n      tag_232\n      jumpi\n      dup1\n      0x1f\n      lt\n      tag_233\n      jumpi\n      0x0100\n      dup1\n      dup4\n      sload\n      div\n      mul\n      dup4\n      mstore\n      swap2\n      0x20\n      add\n      swap2\n      jump(tag_232)\n    tag_233:\n      dup3\n      add\n      swap2\n      swap1\n      0x00\n      mstore\n      keccak256(0x00, 0x20)\n      swap1\n    tag_234:\n      dup2\n      sload\n      dup2\n      mstore\n      swap1\n      0x01\n      add\n      swap1\n      0x20\n      add\n      dup1\n      dup4\n      gt\n      tag_234\n      jumpi\n      dup3\n      swap1\n      sub\n      0x1f\n      and\n      dup3\n      add\n      swap2\n    tag_232:\n      pop\n      pop\n      pop\n      pop\n      pop\n      swap1\n      dup1\n      0x02\n      add\n      0x00\n      swap1\n      sload\n      swap1\n      0x0100\n      exp\n      swap1\n      div\n      0xff\n      and\n      swap1\n      pop\n      dup4\n      jump\t// out\n        /* \"Documents/GitHub/Store-system-with-feedback/main.sol\":6646:6800  function productReturn (string memory titleProduct) public {\r... */\n    tag_80:\n        /* \"Documents/GitHub/Store-system-with-feedback/main.sol\":6716:6735  structStatusReturns */\n      0x0a\n        /* \"Documents/GitHub/Store-system-with-feedback/main.sol\":6741:6791  structStatusReturn(msg.sender, titleProduct, true) */\n      mload(0x40)\n      dup1\n      0x60\n      add\n      0x40\n      mstore\n      dup1\n        /* \"Documents/GitHub/Store-system-with-feedback/main.sol\":6760:6770  msg.sender */\n      caller\n        /* \"Documents/GitHub/Store-system-with-feedback/main.sol\":6741:6791  structStatusReturn(msg.sender, titleProduct, true) */\n      0xffffffffffffffffffffffffffffffffffffffff\n      and\n      dup2\n      mstore\n      0x20\n      add\n        /* \"Documents/GitHub/Store-system-with-feedback/main.sol\":6772:6784  titleProduct */\n      dup4\n        /* \"Documents/GitHub/Store-system-with-feedback/main.sol\":6741:6791  structStatusReturn(msg.sender, titleProduct, true) */\n      dup2\n      mstore\n      0x20\n      add\n        /* \"Documents/GitHub/Store-system-with-feedback/main.sol\":6786:6790  true */\n      0x01\n        /* \"Documents/GitHub/Store-system-with-feedback/main.sol\":6741:6791  structStatusReturn(msg.sender, titleProduct, true) */\n      iszero\n      iszero\n      dup2\n      mstore\n      pop\n        /* \"Documents/GitHub/Store-system-with-feedback/main.sol\":6716:6792  structStatusReturns.push(structStatusReturn(msg.sender, titleProduct, true)) */\n      swap1\n      dup1\n      0x01\n      dup2\n      sload\n      add\n      dup1\n      dup3\n      sstore\n      dup1\n      swap2\n      pop\n      pop\n      0x01\n      swap1\n      sub\n      swap1\n      0x00\n      mstore\n      keccak256(0x00, 0x20)\n      swap1\n      0x03\n      mul\n      add\n      0x00\n      swap1\n      swap2\n      swap1\n      swap2\n      swap1\n      swap2\n      pop\n      0x00\n      dup3\n      add\n      mload\n      dup2\n      0x00\n      add\n      exp(0x0100, 0x00)\n      dup2\n      sload\n      dup2\n      0xffffffffffffffffffffffffffffffffffffffff\n      mul\n      not\n      and\n      swap1\n      dup4\n      0xffffffffffffffffffffffffffffffffffffffff\n      and\n      mul\n      or\n      swap1\n      sstore\n      pop\n      0x20\n      dup3\n      add\n      mload\n      dup2\n      0x01\n      add\n      swap1\n      dup1\n      mload\n      swap1\n      0x20\n      add\n      swap1\n      tag_237\n      swap3\n      swap2\n      swap1\n      tag_159\n      jump\t// in\n    tag_237:\n      pop\n      0x40\n      dup3\n      add\n      mload\n      dup2\n      0x02\n      add\n      exp(0x0100, 0x00)\n      dup2\n      sload\n      dup2\n      0xff\n      mul\n      not\n      and\n      swap1\n      dup4\n      iszero\n      iszero\n      mul\n      or\n      swap1\n      sstore\n      pop\n      pop\n      pop\n        /* \"Documents/GitHub/Store-system-with-feedback/main.sol\":6646:6800  function productReturn (string memory titleProduct) public {\r... */\n      pop\n      jump\t// out\n        /* \"Documents/GitHub/Store-system-with-feedback/main.sol\":5525:5619  function getShopList() public view returns(string[] memory) {\r... */\n    tag_82:\n        /* \"Documents/GitHub/Store-system-with-feedback/main.sol\":5568:5583  string[] memory */\n      0x60\n        /* \"Documents/GitHub/Store-system-with-feedback/main.sol\":5603:5611  shopList */\n      0x02\n        /* \"Documents/GitHub/Store-system-with-feedback/main.sol\":5596:5611  return shopList */\n      dup1\n      sload\n      dup1\n      0x20\n      mul\n      0x20\n      add\n      mload(0x40)\n      swap1\n      dup2\n      add\n      0x40\n      mstore\n      dup1\n      swap3\n      swap2\n      swap1\n      dup2\n      dup2\n      mstore\n      0x20\n      add\n      0x00\n      swap1\n    tag_239:\n      dup3\n      dup3\n      lt\n      iszero\n      tag_240\n      jumpi\n      dup4\n      dup3\n      swap1\n      0x00\n      mstore\n      keccak256(0x00, 0x20)\n      add\n      dup1\n      sload\n      tag_242\n      swap1\n      tag_107\n      jump\t// in\n    tag_242:\n      dup1\n      0x1f\n      add\n      0x20\n      dup1\n      swap2\n      div\n      mul\n      0x20\n      add\n      mload(0x40)\n      swap1\n      dup2\n      add\n      0x40\n      mstore\n      dup1\n      swap3\n      swap2\n      swap1\n      dup2\n      dup2\n      mstore\n      0x20\n      add\n      dup3\n      dup1\n      sload\n      tag_243\n      swap1\n      tag_107\n      jump\t// in\n    tag_243:\n      dup1\n      iszero\n      tag_244\n      jumpi\n      dup1\n      0x1f\n      lt\n      tag_245\n      jumpi\n      0x0100\n      dup1\n      dup4\n      sload\n      div\n      mul\n      dup4\n      mstore\n      swap2\n      0x20\n      add\n      swap2\n      jump(tag_244)\n    tag_245:\n      dup3\n      add\n      swap2\n      swap1\n      0x00\n      mstore\n      keccak256(0x00, 0x20)\n      swap1\n    tag_246:\n      dup2\n      sload\n      dup2\n      mstore\n      swap1\n      0x01\n      add\n      swap1\n      0x20\n      add\n      dup1\n      dup4\n      gt\n      tag_246\n      jumpi\n      dup3\n      swap1\n      sub\n      0x1f\n      and\n      dup3\n      add\n      swap2\n    tag_244:\n      pop\n      pop\n      pop\n      pop\n      pop\n      dup2\n      mstore\n      0x20\n      add\n      swap1\n      0x01\n      add\n      swap1\n      jump(tag_239)\n    tag_240:\n      pop\n      pop\n      pop\n      pop\n      swap1\n      pop\n        /* \"Documents/GitHub/Store-system-with-feedback/main.sol\":5525:5619  function getShopList() public view returns(string[] memory) {\r... */\n      swap1\n      jump\t// out\n        /* \"Documents/GitHub/Store-system-with-feedback/main.sol\":1297:1340  mapping(string => address) public shopLists */\n    tag_86:\n      0x01\n      dup2\n      dup1\n      mload\n      0x20\n      dup2\n      add\n      dup3\n      add\n      dup1\n      mload\n      dup5\n      dup3\n      mstore\n      0x20\n      dup4\n      add\n      0x20\n      dup6\n      add\n      keccak256\n      dup2\n      dup4\n      mstore\n      dup1\n      swap6\n      pop\n      pop\n      pop\n      pop\n      pop\n      pop\n      0x00\n      swap2\n      pop\n      sload\n      swap1\n      0x0100\n      exp\n      swap1\n      div\n      0xffffffffffffffffffffffffffffffffffffffff\n      and\n      dup2\n      jump\t// out\n        /* \"Documents/GitHub/Store-system-with-feedback/main.sol\":3321:3687  function leaveFeedback (string memory shop, string memory feedback, uint256 rating) public {\r... */\n    tag_91:\n        /* \"Documents/GitHub/Store-system-with-feedback/main.sol\":3441:3443  10 */\n      0x0a\n        /* \"Documents/GitHub/Store-system-with-feedback/main.sol\":3431:3437  rating */\n      dup2\n        /* \"Documents/GitHub/Store-system-with-feedback/main.sol\":3431:3443  rating <= 10 */\n      gt\n      iszero\n        /* \"Documents/GitHub/Store-system-with-feedback/main.sol\":3423:3480  require(rating <= 10,\"error: rating can be from 1 to 10\") */\n      tag_248\n      jumpi\n      mload(0x40)\n      0x08c379a000000000000000000000000000000000000000000000000000000000\n      dup2\n      mstore\n      0x04\n      add\n      tag_249\n      swap1\n      tag_250\n      jump\t// in\n    tag_249:\n      mload(0x40)\n      dup1\n      swap2\n      sub\n      swap1\n      revert\n    tag_248:\n        /* \"Documents/GitHub/Store-system-with-feedback/main.sol\":3491:3517  string[] memory zerroArray */\n      0x60\n        /* \"Documents/GitHub/Store-system-with-feedback/main.sol\":3565:3648  complaintBook(shop, structUsers[msg.sender].userName, feedback, rating, zerroArray) */\n      mload(0x40)\n      dup1\n      0xa0\n      add\n      0x40\n      mstore\n      dup1\n        /* \"Documents/GitHub/Store-system-with-feedback/main.sol\":3579:3583  shop */\n      dup6\n        /* \"Documents/GitHub/Store-system-with-feedback/main.sol\":3565:3648  complaintBook(shop, structUsers[msg.sender].userName, feedback, rating, zerroArray) */\n      dup2\n      mstore\n      0x20\n      add\n        /* \"Documents/GitHub/Store-system-with-feedback/main.sol\":3585:3596  structUsers */\n      0x04\n        /* \"Documents/GitHub/Store-system-with-feedback/main.sol\":3585:3608  structUsers[msg.sender] */\n      0x00\n        /* \"Documents/GitHub/Store-system-with-feedback/main.sol\":3597:3607  msg.sender */\n      caller\n        /* \"Documents/GitHub/Store-system-with-feedback/main.sol\":3585:3608  structUsers[msg.sender] */\n      0xffffffffffffffffffffffffffffffffffffffff\n      and\n      0xffffffffffffffffffffffffffffffffffffffff\n      and\n      dup2\n      mstore\n      0x20\n      add\n      swap1\n      dup2\n      mstore\n      0x20\n      add\n      0x00\n      keccak256\n        /* \"Documents/GitHub/Store-system-with-feedback/main.sol\":3585:3617  structUsers[msg.sender].userName */\n      0x00\n      add\n        /* \"Documents/GitHub/Store-system-with-feedback/main.sol\":3565:3648  complaintBook(shop, structUsers[msg.sender].userName, feedback, rating, zerroArray) */\n      dup1\n      sload\n      tag_251\n      swap1\n      tag_107\n      jump\t// in\n    tag_251:\n      dup1\n      0x1f\n      add\n      0x20\n      dup1\n      swap2\n      div\n      mul\n      0x20\n      add\n      mload(0x40)\n      swap1\n      dup2\n      add\n      0x40\n      mstore\n      dup1\n      swap3\n      swap2\n      swap1\n      dup2\n      dup2\n      mstore\n      0x20\n      add\n      dup3\n      dup1\n      sload\n      tag_252\n      swap1\n      tag_107\n      jump\t// in\n    tag_252:\n      dup1\n      iszero\n      tag_253\n      jumpi\n      dup1\n      0x1f\n      lt\n      tag_254\n      jumpi\n      0x0100\n      dup1\n      dup4\n      sload\n      div\n      mul\n      dup4\n      mstore\n      swap2\n      0x20\n      add\n      swap2\n      jump(tag_253)\n    tag_254:\n      dup3\n      add\n      swap2\n      swap1\n      0x00\n      mstore\n      keccak256(0x00, 0x20)\n      swap1\n    tag_255:\n      dup2\n      sload\n      dup2\n      mstore\n      swap1\n      0x01\n      add\n      swap1\n      0x20\n      add\n      dup1\n      dup4\n      gt\n      tag_255\n      jumpi\n      dup3\n      swap1\n      sub\n      0x1f\n      and\n      dup3\n      add\n      swap2\n    tag_253:\n      pop\n      pop\n      pop\n      pop\n      pop\n      dup2\n      mstore\n      0x20\n      add\n        /* \"Documents/GitHub/Store-system-with-feedback/main.sol\":3619:3627  feedback */\n      dup5\n        /* \"Documents/GitHub/Store-system-with-feedback/main.sol\":3565:3648  complaintBook(shop, structUsers[msg.sender].userName, feedback, rating, zerroArray) */\n      dup2\n      mstore\n      0x20\n      add\n        /* \"Documents/GitHub/Store-system-with-feedback/main.sol\":3629:3635  rating */\n      dup4\n        /* \"Documents/GitHub/Store-system-with-feedback/main.sol\":3565:3648  complaintBook(shop, structUsers[msg.sender].userName, feedback, rating, zerroArray) */\n      dup2\n      mstore\n      0x20\n      add\n        /* \"Documents/GitHub/Store-system-with-feedback/main.sol\":3637:3647  zerroArray */\n      dup3\n        /* \"Documents/GitHub/Store-system-with-feedback/main.sol\":3565:3648  complaintBook(shop, structUsers[msg.sender].userName, feedback, rating, zerroArray) */\n      dup2\n      mstore\n      pop\n        /* \"Documents/GitHub/Store-system-with-feedback/main.sol\":3528:3542  complaintBooks */\n      0x03\n        /* \"Documents/GitHub/Store-system-with-feedback/main.sol\":3543:3561  countLeaveFeedback */\n      sload(0x0d)\n        /* \"Documents/GitHub/Store-system-with-feedback/main.sol\":3528:3562  complaintBooks[countLeaveFeedback] */\n      dup2\n      sload\n      dup2\n      lt\n      tag_256\n      jumpi\n      tag_257\n      tag_126\n      jump\t// in\n    tag_257:\n    tag_256:\n      swap1\n      0x00\n      mstore\n      keccak256(0x00, 0x20)\n      swap1\n      0x05\n      mul\n      add\n        /* \"Documents/GitHub/Store-system-with-feedback/main.sol\":3528:3648  complaintBooks[countLeaveFeedback] = complaintBook(shop, structUsers[msg.sender].userName, feedback, rating, zerroArray) */\n      0x00\n      dup3\n      add\n      mload\n      dup2\n      0x00\n      add\n      swap1\n      dup1\n      mload\n      swap1\n      0x20\n      add\n      swap1\n      tag_259\n      swap3\n      swap2\n      swap1\n      tag_159\n      jump\t// in\n    tag_259:\n      pop\n      0x20\n      dup3\n      add\n      mload\n      dup2\n      0x01\n      add\n      swap1\n      dup1\n      mload\n      swap1\n      0x20\n      add\n      swap1\n      tag_260\n      swap3\n      swap2\n      swap1\n      tag_159\n      jump\t// in\n    tag_260:\n      pop\n      0x40\n      dup3\n      add\n      mload\n      dup2\n      0x02\n      add\n      swap1\n      dup1\n      mload\n      swap1\n      0x20\n      add\n      swap1\n      tag_261\n      swap3\n      swap2\n      swap1\n      tag_159\n      jump\t// in\n    tag_261:\n      pop\n      0x60\n      dup3\n      add\n      mload\n      dup2\n      0x03\n      add\n      sstore\n      0x80\n      dup3\n      add\n      mload\n      dup2\n      0x04\n      add\n      swap1\n      dup1\n      mload\n      swap1\n      0x20\n      add\n      swap1\n      tag_262\n      swap3\n      swap2\n      swap1\n      tag_263\n      jump\t// in\n    tag_262:\n      pop\n      swap1\n      pop\n      pop\n        /* \"Documents/GitHub/Store-system-with-feedback/main.sol\":3659:3677  countLeaveFeedback */\n      0x0d\n      0x00\n        /* \"Documents/GitHub/Store-system-with-feedback/main.sol\":3659:3679  countLeaveFeedback++ */\n      dup2\n      sload\n      dup1\n      swap3\n      swap2\n      swap1\n      tag_264\n      swap1\n      tag_198\n      jump\t// in\n    tag_264:\n      swap2\n      swap1\n      pop\n      sstore\n      pop\n        /* \"Documents/GitHub/Store-system-with-feedback/main.sol\":3412:3687  {\r... */\n      pop\n        /* \"Documents/GitHub/Store-system-with-feedback/main.sol\":3321:3687  function leaveFeedback (string memory shop, string memory feedback, uint256 rating) public {\r... */\n      pop\n      pop\n      pop\n      jump\t// out\n        /* \"Documents/GitHub/Store-system-with-feedback/main.sol\":2105:2159  mapping(string => structProduct) public structProducts */\n    tag_94:\n      0x07\n      dup2\n      dup1\n      mload\n      0x20\n      dup2\n      add\n      dup3\n      add\n      dup1\n      mload\n      dup5\n      dup3\n      mstore\n      0x20\n      dup4\n      add\n      0x20\n      dup6\n      add\n      keccak256\n      dup2\n      dup4\n      mstore\n      dup1\n      swap6\n      pop\n      pop\n      pop\n      pop\n      pop\n      pop\n      0x00\n      swap2\n      pop\n      swap1\n      pop\n      dup1\n      0x00\n      add\n      0x00\n      swap1\n      sload\n      swap1\n      0x0100\n      exp\n      swap1\n      div\n      0xffffffffffffffffffffffffffffffffffffffff\n      and\n      swap1\n      dup1\n      0x01\n      add\n      dup1\n      sload\n      tag_265\n      swap1\n      tag_107\n      jump\t// in\n    tag_265:\n      dup1\n      0x1f\n      add\n      0x20\n      dup1\n      swap2\n      div\n      mul\n      0x20\n      add\n      mload(0x40)\n      swap1\n      dup2\n      add\n      0x40\n      mstore\n      dup1\n      swap3\n      swap2\n      swap1\n      dup2\n      dup2\n      mstore\n      0x20\n      add\n      dup3\n      dup1\n      sload\n      tag_266\n      swap1\n      tag_107\n      jump\t// in\n    tag_266:\n      dup1\n      iszero\n      tag_267\n      jumpi\n      dup1\n      0x1f\n      lt\n      tag_268\n      jumpi\n      0x0100\n      dup1\n      dup4\n      sload\n      div\n      mul\n      dup4\n      mstore\n      swap2\n      0x20\n      add\n      swap2\n      jump(tag_267)\n    tag_268:\n      dup3\n      add\n      swap2\n      swap1\n      0x00\n      mstore\n      keccak256(0x00, 0x20)\n      swap1\n    tag_269:\n      dup2\n      sload\n      dup2\n      mstore\n      swap1\n      0x01\n      add\n      swap1\n      0x20\n      add\n      dup1\n      dup4\n      gt\n      tag_269\n      jumpi\n      dup3\n      swap1\n      sub\n      0x1f\n      and\n      dup3\n      add\n      swap2\n    tag_267:\n      pop\n      pop\n      pop\n      pop\n      pop\n      swap1\n      dup1\n      0x02\n      add\n      sload\n      swap1\n      dup1\n      0x03\n      add\n      sload\n      swap1\n      pop\n      dup5\n      jump\t// out\n        /* \"Documents/GitHub/Store-system-with-feedback/main.sol\":2348:2399  structStatusPurchase[] public structStatusPurchases */\n    tag_99:\n      0x09\n      dup2\n      dup2\n      sload\n      dup2\n      lt\n      tag_270\n      jumpi\n      0x00\n      dup1\n      revert\n    tag_270:\n      swap1\n      0x00\n      mstore\n      keccak256(0x00, 0x20)\n      swap1\n      0x03\n      mul\n      add\n      0x00\n      swap2\n      pop\n      swap1\n      pop\n      dup1\n      0x00\n      add\n      0x00\n      swap1\n      sload\n      swap1\n      0x0100\n      exp\n      swap1\n      div\n      0xffffffffffffffffffffffffffffffffffffffff\n      and\n      swap1\n      dup1\n      0x01\n      add\n      dup1\n      sload\n      tag_272\n      swap1\n      tag_107\n      jump\t// in\n    tag_272:\n      dup1\n      0x1f\n      add\n      0x20\n      dup1\n      swap2\n      div\n      mul\n      0x20\n      add\n      mload(0x40)\n      swap1\n      dup2\n      add\n      0x40\n      mstore\n      dup1\n      swap3\n      swap2\n      swap1\n      dup2\n      dup2\n      mstore\n      0x20\n      add\n      dup3\n      dup1\n      sload\n      tag_273\n      swap1\n      tag_107\n      jump\t// in\n    tag_273:\n      dup1\n      iszero\n      tag_274\n      jumpi\n      dup1\n      0x1f\n      lt\n      tag_275\n      jumpi\n      0x0100\n      dup1\n      dup4\n      sload\n      div\n      mul\n      dup4\n      mstore\n      swap2\n      0x20\n      add\n      swap2\n      jump(tag_274)\n    tag_275:\n      dup3\n      add\n      swap2\n      swap1\n      0x00\n      mstore\n      keccak256(0x00, 0x20)\n      swap1\n    tag_276:\n      dup2\n      sload\n      dup2\n      mstore\n      swap1\n      0x01\n      add\n      swap1\n      0x20\n      add\n      dup1\n      dup4\n      gt\n      tag_276\n      jumpi\n      dup3\n      swap1\n      sub\n      0x1f\n      and\n      dup3\n      add\n      swap2\n    tag_274:\n      pop\n      pop\n      pop\n      pop\n      pop\n      swap1\n      dup1\n      0x02\n      add\n      0x00\n      swap1\n      sload\n      swap1\n      0x0100\n      exp\n      swap1\n      div\n      0xff\n      and\n      swap1\n      pop\n      dup4\n      jump\t// out\n        /* \"Documents/GitHub/Store-system-with-feedback/main.sol\":4914:5491  function MarriageRegistration(uint idMarriageRegistration, bool confirmation) public {\r... */\n    tag_103:\n        /* \"Documents/GitHub/Store-system-with-feedback/main.sol\":5029:5033  true */\n      0x01\n        /* \"Documents/GitHub/Store-system-with-feedback/main.sol\":5013:5033  confirmation == true */\n      iszero\n      iszero\n        /* \"Documents/GitHub/Store-system-with-feedback/main.sol\":5013:5025  confirmation */\n      dup2\n        /* \"Documents/GitHub/Store-system-with-feedback/main.sol\":5013:5033  confirmation == true */\n      iszero\n      iszero\n      eq\n        /* \"Documents/GitHub/Store-system-with-feedback/main.sol\":5010:5484  if(confirmation == true) {\r... */\n      iszero\n      tag_278\n      jumpi\n        /* \"Documents/GitHub/Store-system-with-feedback/main.sol\":5103:5108  false */\n      0x00\n        /* \"Documents/GitHub/Store-system-with-feedback/main.sol\":5050:5069  structStatusReturns */\n      0x0a\n        /* \"Documents/GitHub/Store-system-with-feedback/main.sol\":5070:5092  idMarriageRegistration */\n      dup4\n        /* \"Documents/GitHub/Store-system-with-feedback/main.sol\":5050:5093  structStatusReturns[idMarriageRegistration] */\n      dup2\n      sload\n      dup2\n      lt\n      tag_279\n      jumpi\n      tag_280\n      tag_126\n      jump\t// in\n    tag_280:\n    tag_279:\n      swap1\n      0x00\n      mstore\n      keccak256(0x00, 0x20)\n      swap1\n      0x03\n      mul\n      add\n        /* \"Documents/GitHub/Store-system-with-feedback/main.sol\":5050:5100  structStatusReturns[idMarriageRegistration].status */\n      0x02\n      add\n      0x00\n        /* \"Documents/GitHub/Store-system-with-feedback/main.sol\":5050:5108  structStatusReturns[idMarriageRegistration].status = false */\n      0x0100\n      exp\n      dup2\n      sload\n      dup2\n      0xff\n      mul\n      not\n      and\n      swap1\n      dup4\n      iszero\n      iszero\n      mul\n      or\n      swap1\n      sstore\n      pop\n        /* \"Documents/GitHub/Store-system-with-feedback/main.sol\":5295:5309  structProducts */\n      0x07\n        /* \"Documents/GitHub/Store-system-with-feedback/main.sol\":5310:5337  structMarriageRegistrations */\n      0x0b\n        /* \"Documents/GitHub/Store-system-with-feedback/main.sol\":5338:5360  idMarriageRegistration */\n      dup4\n        /* \"Documents/GitHub/Store-system-with-feedback/main.sol\":5310:5361  structMarriageRegistrations[idMarriageRegistration] */\n      dup2\n      sload\n      dup2\n      lt\n      tag_282\n      jumpi\n      tag_283\n      tag_126\n      jump\t// in\n    tag_283:\n    tag_282:\n      swap1\n      0x00\n      mstore\n      keccak256(0x00, 0x20)\n      swap1\n      0x03\n      mul\n      add\n        /* \"Documents/GitHub/Store-system-with-feedback/main.sol\":5310:5374  structMarriageRegistrations[idMarriageRegistration].titleProduct */\n      0x01\n      add\n        /* \"Documents/GitHub/Store-system-with-feedback/main.sol\":5295:5375  structProducts[structMarriageRegistrations[idMarriageRegistration].titleProduct] */\n      mload(0x40)\n      tag_285\n      swap2\n      swap1\n      tag_132\n      jump\t// in\n    tag_285:\n      swap1\n      dup2\n      mstore\n      0x20\n      add\n      mload(0x40)\n      dup1\n      swap2\n      sub\n      swap1\n      keccak256\n        /* \"Documents/GitHub/Store-system-with-feedback/main.sol\":5295:5381  structProducts[structMarriageRegistrations[idMarriageRegistration].titleProduct].price */\n      0x02\n      add\n      sload\n        /* \"Documents/GitHub/Store-system-with-feedback/main.sol\":5209:5220  structUsers */\n      0x04\n        /* \"Documents/GitHub/Store-system-with-feedback/main.sol\":5209:5283  structUsers[structMarriageRegistrations[idMarriageRegistration].userLogin] */\n      0x00\n        /* \"Documents/GitHub/Store-system-with-feedback/main.sol\":5221:5248  structMarriageRegistrations */\n      0x0b\n        /* \"Documents/GitHub/Store-system-with-feedback/main.sol\":5249:5271  idMarriageRegistration */\n      dup6\n        /* \"Documents/GitHub/Store-system-with-feedback/main.sol\":5221:5272  structMarriageRegistrations[idMarriageRegistration] */\n      dup2\n      sload\n      dup2\n      lt\n      tag_286\n      jumpi\n      tag_287\n      tag_126\n      jump\t// in\n    tag_287:\n    tag_286:\n      swap1\n      0x00\n      mstore\n      keccak256(0x00, 0x20)\n      swap1\n      0x03\n      mul\n      add\n        /* \"Documents/GitHub/Store-system-with-feedback/main.sol\":5221:5282  structMarriageRegistrations[idMarriageRegistration].userLogin */\n      0x00\n      add\n      0x00\n      swap1\n      sload\n      swap1\n      0x0100\n      exp\n      swap1\n      div\n      0xffffffffffffffffffffffffffffffffffffffff\n      and\n        /* \"Documents/GitHub/Store-system-with-feedback/main.sol\":5209:5283  structUsers[structMarriageRegistrations[idMarriageRegistration].userLogin] */\n      0xffffffffffffffffffffffffffffffffffffffff\n      and\n      0xffffffffffffffffffffffffffffffffffffffff\n      and\n      dup2\n      mstore\n      0x20\n      add\n      swap1\n      dup2\n      mstore\n      0x20\n      add\n      0x00\n      keccak256\n        /* \"Documents/GitHub/Store-system-with-feedback/main.sol\":5209:5292  structUsers[structMarriageRegistrations[idMarriageRegistration].userLogin].ballance */\n      0x02\n      add\n      sload\n        /* \"Documents/GitHub/Store-system-with-feedback/main.sol\":5209:5381  structUsers[structMarriageRegistrations[idMarriageRegistration].userLogin].ballance + structProducts[structMarriageRegistrations[idMarriageRegistration].titleProduct].price */\n      tag_289\n      swap2\n      swap1\n      tag_146\n      jump\t// in\n    tag_289:\n        /* \"Documents/GitHub/Store-system-with-feedback/main.sol\":5123:5134  structUsers */\n      0x04\n        /* \"Documents/GitHub/Store-system-with-feedback/main.sol\":5123:5197  structUsers[structMarriageRegistrations[idMarriageRegistration].userLogin] */\n      0x00\n        /* \"Documents/GitHub/Store-system-with-feedback/main.sol\":5135:5162  structMarriageRegistrations */\n      0x0b\n        /* \"Documents/GitHub/Store-system-with-feedback/main.sol\":5163:5185  idMarriageRegistration */\n      dup6\n        /* \"Documents/GitHub/Store-system-with-feedback/main.sol\":5135:5186  structMarriageRegistrations[idMarriageRegistration] */\n      dup2\n      sload\n      dup2\n      lt\n      tag_290\n      jumpi\n      tag_291\n      tag_126\n      jump\t// in\n    tag_291:\n    tag_290:\n      swap1\n      0x00\n      mstore\n      keccak256(0x00, 0x20)\n      swap1\n      0x03\n      mul\n      add\n        /* \"Documents/GitHub/Store-system-with-feedback/main.sol\":5135:5196  structMarriageRegistrations[idMarriageRegistration].userLogin */\n      0x00\n      add\n      0x00\n      swap1\n      sload\n      swap1\n      0x0100\n      exp\n      swap1\n      div\n      0xffffffffffffffffffffffffffffffffffffffff\n      and\n        /* \"Documents/GitHub/Store-system-with-feedback/main.sol\":5123:5197  structUsers[structMarriageRegistrations[idMarriageRegistration].userLogin] */\n      0xffffffffffffffffffffffffffffffffffffffff\n      and\n      0xffffffffffffffffffffffffffffffffffffffff\n      and\n      dup2\n      mstore\n      0x20\n      add\n      swap1\n      dup2\n      mstore\n      0x20\n      add\n      0x00\n      keccak256\n        /* \"Documents/GitHub/Store-system-with-feedback/main.sol\":5123:5206  structUsers[structMarriageRegistrations[idMarriageRegistration].userLogin].ballance */\n      0x02\n      add\n        /* \"Documents/GitHub/Store-system-with-feedback/main.sol\":5123:5381  structUsers[structMarriageRegistrations[idMarriageRegistration].userLogin].ballance = structUsers[structMarriageRegistrations[idMarriageRegistration].userLogin].ballance + structProducts[structMarriageRegistrations[idMarriageRegistration].titleProduct].price */\n      dup2\n      swap1\n      sstore\n      pop\n        /* \"Documents/GitHub/Store-system-with-feedback/main.sol\":5010:5484  if(confirmation == true) {\r... */\n      jump(tag_293)\n    tag_278:\n        /* \"Documents/GitHub/Store-system-with-feedback/main.sol\":5467:5472  false */\n      0x00\n        /* \"Documents/GitHub/Store-system-with-feedback/main.sol\":5414:5433  structStatusReturns */\n      0x0a\n        /* \"Documents/GitHub/Store-system-with-feedback/main.sol\":5434:5456  idMarriageRegistration */\n      dup4\n        /* \"Documents/GitHub/Store-system-with-feedback/main.sol\":5414:5457  structStatusReturns[idMarriageRegistration] */\n      dup2\n      sload\n      dup2\n      lt\n      tag_294\n      jumpi\n      tag_295\n      tag_126\n      jump\t// in\n    tag_295:\n    tag_294:\n      swap1\n      0x00\n      mstore\n      keccak256(0x00, 0x20)\n      swap1\n      0x03\n      mul\n      add\n        /* \"Documents/GitHub/Store-system-with-feedback/main.sol\":5414:5464  structStatusReturns[idMarriageRegistration].status */\n      0x02\n      add\n      0x00\n        /* \"Documents/GitHub/Store-system-with-feedback/main.sol\":5414:5472  structStatusReturns[idMarriageRegistration].status = false */\n      0x0100\n      exp\n      dup2\n      sload\n      dup2\n      0xff\n      mul\n      not\n      and\n      swap1\n      dup4\n      iszero\n      iszero\n      mul\n      or\n      swap1\n      sstore\n      pop\n        /* \"Documents/GitHub/Store-system-with-feedback/main.sol\":5010:5484  if(confirmation == true) {\r... */\n    tag_293:\n        /* \"Documents/GitHub/Store-system-with-feedback/main.sol\":4914:5491  function MarriageRegistration(uint idMarriageRegistration, bool confirmation) public {\r... */\n      pop\n      pop\n      jump\t// out\n    tag_159:\n      dup3\n      dup1\n      sload\n      tag_297\n      swap1\n      tag_107\n      jump\t// in\n    tag_297:\n      swap1\n      0x00\n      mstore\n      keccak256(0x00, 0x20)\n      swap1\n      0x1f\n      add\n      0x20\n      swap1\n      div\n      dup2\n      add\n      swap3\n      dup3\n      tag_299\n      jumpi\n      0x00\n      dup6\n      sstore\n      jump(tag_298)\n    tag_299:\n      dup3\n      0x1f\n      lt\n      tag_300\n      jumpi\n      dup1\n      mload\n      not(0xff)\n      and\n      dup4\n      dup1\n      add\n      or\n      dup6\n      sstore\n      jump(tag_298)\n    tag_300:\n      dup3\n      dup1\n      add\n      0x01\n      add\n      dup6\n      sstore\n      dup3\n      iszero\n      tag_298\n      jumpi\n      swap2\n      dup3\n      add\n    tag_301:\n      dup3\n      dup2\n      gt\n      iszero\n      tag_302\n      jumpi\n      dup3\n      mload\n      dup3\n      sstore\n      swap2\n      0x20\n      add\n      swap2\n      swap1\n      0x01\n      add\n      swap1\n      jump(tag_301)\n    tag_302:\n    tag_298:\n      pop\n      swap1\n      pop\n      tag_303\n      swap2\n      swap1\n      tag_304\n      jump\t// in\n    tag_303:\n      pop\n      swap1\n      jump\t// out\n    tag_263:\n      dup3\n      dup1\n      sload\n      dup3\n      dup3\n      sstore\n      swap1\n      0x00\n      mstore\n      keccak256(0x00, 0x20)\n      swap1\n      dup2\n      add\n      swap3\n      dup3\n      iszero\n      tag_305\n      jumpi\n      swap2\n      0x20\n      mul\n      dup3\n      add\n    tag_306:\n      dup3\n      dup2\n      gt\n      iszero\n      tag_307\n      jumpi\n      dup3\n      mload\n      dup3\n      swap1\n      dup1\n      mload\n      swap1\n      0x20\n      add\n      swap1\n      tag_308\n      swap3\n      swap2\n      swap1\n      tag_159\n      jump\t// in\n    tag_308:\n      pop\n      swap2\n      0x20\n      add\n      swap2\n      swap1\n      0x01\n      add\n      swap1\n      jump(tag_306)\n    tag_307:\n    tag_305:\n      pop\n      swap1\n      pop\n      tag_309\n      swap2\n      swap1\n      tag_310\n      jump\t// in\n    tag_309:\n      pop\n      swap1\n      jump\t// out\n    tag_304:\n    tag_311:\n      dup1\n      dup3\n      gt\n      iszero\n      tag_312\n      jumpi\n      0x00\n      dup2\n      0x00\n      swap1\n      sstore\n      pop\n      0x01\n      add\n      jump(tag_311)\n    tag_312:\n      pop\n      swap1\n      jump\t// out\n    tag_310:\n    tag_313:\n      dup1\n      dup3\n      gt\n      iszero\n      tag_314\n      jumpi\n      0x00\n      dup2\n      dup2\n      tag_315\n      swap2\n      swap1\n      tag_316\n      jump\t// in\n    tag_315:\n      pop\n      0x01\n      add\n      jump(tag_313)\n    tag_314:\n      pop\n      swap1\n      jump\t// out\n    tag_316:\n      pop\n      dup1\n      sload\n      tag_317\n      swap1\n      tag_107\n      jump\t// in\n    tag_317:\n      0x00\n      dup3\n      sstore\n      dup1\n      0x1f\n      lt\n      tag_319\n      jumpi\n      pop\n      jump(tag_318)\n    tag_319:\n      0x1f\n      add\n      0x20\n      swap1\n      div\n      swap1\n      0x00\n      mstore\n      keccak256(0x00, 0x20)\n      swap1\n      dup2\n      add\n      swap1\n      tag_320\n      swap2\n      swap1\n      tag_304\n      jump\t// in\n    tag_320:\n    tag_318:\n      pop\n      jump\t// out\n        /* \"#utility.yul\":7:419   */\n    tag_322:\n        /* \"#utility.yul\":85:90   */\n      0x00\n        /* \"#utility.yul\":110:176   */\n      tag_324\n        /* \"#utility.yul\":126:175   */\n      tag_325\n        /* \"#utility.yul\":168:174   */\n      dup5\n        /* \"#utility.yul\":126:175   */\n      tag_326\n      jump\t// in\n    tag_325:\n        /* \"#utility.yul\":110:176   */\n      tag_327\n      jump\t// in\n    tag_324:\n        /* \"#utility.yul\":101:176   */\n      swap1\n      pop\n        /* \"#utility.yul\":199:205   */\n      dup3\n        /* \"#utility.yul\":192:197   */\n      dup2\n        /* \"#utility.yul\":185:206   */\n      mstore\n        /* \"#utility.yul\":237:241   */\n      0x20\n        /* \"#utility.yul\":230:235   */\n      dup2\n        /* \"#utility.yul\":226:242   */\n      add\n        /* \"#utility.yul\":275:278   */\n      dup5\n        /* \"#utility.yul\":266:272   */\n      dup5\n        /* \"#utility.yul\":261:264   */\n      dup5\n        /* \"#utility.yul\":257:273   */\n      add\n        /* \"#utility.yul\":254:279   */\n      gt\n        /* \"#utility.yul\":251:363   */\n      iszero\n      tag_328\n      jumpi\n        /* \"#utility.yul\":282:361   */\n      tag_329\n      tag_330\n      jump\t// in\n    tag_329:\n        /* \"#utility.yul\":251:363   */\n    tag_328:\n        /* \"#utility.yul\":372:413   */\n      tag_331\n        /* \"#utility.yul\":406:412   */\n      dup5\n        /* \"#utility.yul\":401:404   */\n      dup3\n        /* \"#utility.yul\":396:399   */\n      dup6\n        /* \"#utility.yul\":372:413   */\n      tag_332\n      jump\t// in\n    tag_331:\n        /* \"#utility.yul\":91:419   */\n      pop\n        /* \"#utility.yul\":7:419   */\n      swap4\n      swap3\n      pop\n      pop\n      pop\n      jump\t// out\n        /* \"#utility.yul\":425:564   */\n    tag_333:\n        /* \"#utility.yul\":471:476   */\n      0x00\n        /* \"#utility.yul\":509:515   */\n      dup2\n        /* \"#utility.yul\":496:516   */\n      calldataload\n        /* \"#utility.yul\":487:516   */\n      swap1\n      pop\n        /* \"#utility.yul\":525:558   */\n      tag_335\n        /* \"#utility.yul\":552:557   */\n      dup2\n        /* \"#utility.yul\":525:558   */\n      tag_336\n      jump\t// in\n    tag_335:\n        /* \"#utility.yul\":425:564   */\n      swap3\n      swap2\n      pop\n      pop\n      jump\t// out\n        /* \"#utility.yul\":570:703   */\n    tag_337:\n        /* \"#utility.yul\":613:618   */\n      0x00\n        /* \"#utility.yul\":651:657   */\n      dup2\n        /* \"#utility.yul\":638:658   */\n      calldataload\n        /* \"#utility.yul\":629:658   */\n      swap1\n      pop\n        /* \"#utility.yul\":667:697   */\n      tag_339\n        /* \"#utility.yul\":691:696   */\n      dup2\n        /* \"#utility.yul\":667:697   */\n      tag_340\n      jump\t// in\n    tag_339:\n        /* \"#utility.yul\":570:703   */\n      swap3\n      swap2\n      pop\n      pop\n      jump\t// out\n        /* \"#utility.yul\":723:1063   */\n    tag_341:\n        /* \"#utility.yul\":779:784   */\n      0x00\n        /* \"#utility.yul\":828:831   */\n      dup3\n        /* \"#utility.yul\":821:825   */\n      0x1f\n        /* \"#utility.yul\":813:819   */\n      dup4\n        /* \"#utility.yul\":809:826   */\n      add\n        /* \"#utility.yul\":805:832   */\n      slt\n        /* \"#utility.yul\":795:917   */\n      tag_343\n      jumpi\n        /* \"#utility.yul\":836:915   */\n      tag_344\n      tag_345\n      jump\t// in\n    tag_344:\n        /* \"#utility.yul\":795:917   */\n    tag_343:\n        /* \"#utility.yul\":953:959   */\n      dup2\n        /* \"#utility.yul\":940:960   */\n      calldataload\n        /* \"#utility.yul\":978:1057   */\n      tag_346\n        /* \"#utility.yul\":1053:1056   */\n      dup5\n        /* \"#utility.yul\":1045:1051   */\n      dup3\n        /* \"#utility.yul\":1038:1042   */\n      0x20\n        /* \"#utility.yul\":1030:1036   */\n      dup7\n        /* \"#utility.yul\":1026:1043   */\n      add\n        /* \"#utility.yul\":978:1057   */\n      tag_322\n      jump\t// in\n    tag_346:\n        /* \"#utility.yul\":969:1057   */\n      swap2\n      pop\n        /* \"#utility.yul\":785:1063   */\n      pop\n        /* \"#utility.yul\":723:1063   */\n      swap3\n      swap2\n      pop\n      pop\n      jump\t// out\n        /* \"#utility.yul\":1069:1208   */\n    tag_347:\n        /* \"#utility.yul\":1115:1120   */\n      0x00\n        /* \"#utility.yul\":1153:1159   */\n      dup2\n        /* \"#utility.yul\":1140:1160   */\n      calldataload\n        /* \"#utility.yul\":1131:1160   */\n      swap1\n      pop\n        /* \"#utility.yul\":1169:1202   */\n      tag_349\n        /* \"#utility.yul\":1196:1201   */\n      dup2\n        /* \"#utility.yul\":1169:1202   */\n      tag_350\n      jump\t// in\n    tag_349:\n        /* \"#utility.yul\":1069:1208   */\n      swap3\n      swap2\n      pop\n      pop\n      jump\t// out\n        /* \"#utility.yul\":1214:1543   */\n    tag_65:\n        /* \"#utility.yul\":1273:1279   */\n      0x00\n        /* \"#utility.yul\":1322:1324   */\n      0x20\n        /* \"#utility.yul\":1310:1319   */\n      dup3\n        /* \"#utility.yul\":1301:1308   */\n      dup5\n        /* \"#utility.yul\":1297:1320   */\n      sub\n        /* \"#utility.yul\":1293:1325   */\n      slt\n        /* \"#utility.yul\":1290:1409   */\n      iszero\n      tag_352\n      jumpi\n        /* \"#utility.yul\":1328:1407   */\n      tag_353\n      tag_354\n      jump\t// in\n    tag_353:\n        /* \"#utility.yul\":1290:1409   */\n    tag_352:\n        /* \"#utility.yul\":1448:1449   */\n      0x00\n        /* \"#utility.yul\":1473:1526   */\n      tag_355\n        /* \"#utility.yul\":1518:1525   */\n      dup5\n        /* \"#utility.yul\":1509:1515   */\n      dup3\n        /* \"#utility.yul\":1498:1507   */\n      dup6\n        /* \"#utility.yul\":1494:1516   */\n      add\n        /* \"#utility.yul\":1473:1526   */\n      tag_333\n      jump\t// in\n    tag_355:\n        /* \"#utility.yul\":1463:1526   */\n      swap2\n      pop\n        /* \"#utility.yul\":1419:1536   */\n      pop\n        /* \"#utility.yul\":1214:1543   */\n      swap3\n      swap2\n      pop\n      pop\n      jump\t// out\n        /* \"#utility.yul\":1549:2058   */\n    tag_37:\n        /* \"#utility.yul\":1618:1624   */\n      0x00\n        /* \"#utility.yul\":1667:1669   */\n      0x20\n        /* \"#utility.yul\":1655:1664   */\n      dup3\n        /* \"#utility.yul\":1646:1653   */\n      dup5\n        /* \"#utility.yul\":1642:1665   */\n      sub\n        /* \"#utility.yul\":1638:1670   */\n      slt\n        /* \"#utility.yul\":1635:1754   */\n      iszero\n      tag_357\n      jumpi\n        /* \"#utility.yul\":1673:1752   */\n      tag_358\n      tag_354\n      jump\t// in\n    tag_358:\n        /* \"#utility.yul\":1635:1754   */\n    tag_357:\n        /* \"#utility.yul\":1821:1822   */\n      0x00\n        /* \"#utility.yul\":1810:1819   */\n      dup3\n        /* \"#utility.yul\":1806:1823   */\n      add\n        /* \"#utility.yul\":1793:1824   */\n      calldataload\n        /* \"#utility.yul\":1851:1869   */\n      0xffffffffffffffff\n        /* \"#utility.yul\":1843:1849   */\n      dup2\n        /* \"#utility.yul\":1840:1870   */\n      gt\n        /* \"#utility.yul\":1837:1954   */\n      iszero\n      tag_359\n      jumpi\n        /* \"#utility.yul\":1873:1952   */\n      tag_360\n      tag_361\n      jump\t// in\n    tag_360:\n        /* \"#utility.yul\":1837:1954   */\n    tag_359:\n        /* \"#utility.yul\":1978:2041   */\n      tag_362\n        /* \"#utility.yul\":2033:2040   */\n      dup5\n        /* \"#utility.yul\":2024:2030   */\n      dup3\n        /* \"#utility.yul\":2013:2022   */\n      dup6\n        /* \"#utility.yul\":2009:2031   */\n      add\n        /* \"#utility.yul\":1978:2041   */\n      tag_341\n      jump\t// in\n    tag_362:\n        /* \"#utility.yul\":1968:2041   */\n      swap2\n      pop\n        /* \"#utility.yul\":1764:2051   */\n      pop\n        /* \"#utility.yul\":1549:2058   */\n      swap3\n      swap2\n      pop\n      pop\n      jump\t// out\n        /* \"#utility.yul\":2064:3043   */\n    tag_90:\n        /* \"#utility.yul\":2161:2167   */\n      0x00\n        /* \"#utility.yul\":2169:2175   */\n      dup1\n        /* \"#utility.yul\":2177:2183   */\n      0x00\n        /* \"#utility.yul\":2226:2228   */\n      0x60\n        /* \"#utility.yul\":2214:2223   */\n      dup5\n        /* \"#utility.yul\":2205:2212   */\n      dup7\n        /* \"#utility.yul\":2201:2224   */\n      sub\n        /* \"#utility.yul\":2197:2229   */\n      slt\n        /* \"#utility.yul\":2194:2313   */\n      iszero\n      tag_364\n      jumpi\n        /* \"#utility.yul\":2232:2311   */\n      tag_365\n      tag_354\n      jump\t// in\n    tag_365:\n        /* \"#utility.yul\":2194:2313   */\n    tag_364:\n        /* \"#utility.yul\":2380:2381   */\n      0x00\n        /* \"#utility.yul\":2369:2378   */\n      dup5\n        /* \"#utility.yul\":2365:2382   */\n      add\n        /* \"#utility.yul\":2352:2383   */\n      calldataload\n        /* \"#utility.yul\":2410:2428   */\n      0xffffffffffffffff\n        /* \"#utility.yul\":2402:2408   */\n      dup2\n        /* \"#utility.yul\":2399:2429   */\n      gt\n        /* \"#utility.yul\":2396:2513   */\n      iszero\n      tag_366\n      jumpi\n        /* \"#utility.yul\":2432:2511   */\n      tag_367\n      tag_361\n      jump\t// in\n    tag_367:\n        /* \"#utility.yul\":2396:2513   */\n    tag_366:\n        /* \"#utility.yul\":2537:2600   */\n      tag_368\n        /* \"#utility.yul\":2592:2599   */\n      dup7\n        /* \"#utility.yul\":2583:2589   */\n      dup3\n        /* \"#utility.yul\":2572:2581   */\n      dup8\n        /* \"#utility.yul\":2568:2590   */\n      add\n        /* \"#utility.yul\":2537:2600   */\n      tag_341\n      jump\t// in\n    tag_368:\n        /* \"#utility.yul\":2527:2600   */\n      swap4\n      pop\n        /* \"#utility.yul\":2323:2610   */\n      pop\n        /* \"#utility.yul\":2677:2679   */\n      0x20\n        /* \"#utility.yul\":2666:2675   */\n      dup5\n        /* \"#utility.yul\":2662:2680   */\n      add\n        /* \"#utility.yul\":2649:2681   */\n      calldataload\n        /* \"#utility.yul\":2708:2726   */\n      0xffffffffffffffff\n        /* \"#utility.yul\":2700:2706   */\n      dup2\n        /* \"#utility.yul\":2697:2727   */\n      gt\n        /* \"#utility.yul\":2694:2811   */\n      iszero\n      tag_369\n      jumpi\n        /* \"#utility.yul\":2730:2809   */\n      tag_370\n      tag_361\n      jump\t// in\n    tag_370:\n        /* \"#utility.yul\":2694:2811   */\n    tag_369:\n        /* \"#utility.yul\":2835:2898   */\n      tag_371\n        /* \"#utility.yul\":2890:2897   */\n      dup7\n        /* \"#utility.yul\":2881:2887   */\n      dup3\n        /* \"#utility.yul\":2870:2879   */\n      dup8\n        /* \"#utility.yul\":2866:2888   */\n      add\n        /* \"#utility.yul\":2835:2898   */\n      tag_341\n      jump\t// in\n    tag_371:\n        /* \"#utility.yul\":2825:2898   */\n      swap3\n      pop\n        /* \"#utility.yul\":2620:2908   */\n      pop\n        /* \"#utility.yul\":2947:2949   */\n      0x40\n        /* \"#utility.yul\":2973:3026   */\n      tag_372\n        /* \"#utility.yul\":3018:3025   */\n      dup7\n        /* \"#utility.yul\":3009:3015   */\n      dup3\n        /* \"#utility.yul\":2998:3007   */\n      dup8\n        /* \"#utility.yul\":2994:3016   */\n      add\n        /* \"#utility.yul\":2973:3026   */\n      tag_347\n      jump\t// in\n    tag_372:\n        /* \"#utility.yul\":2963:3026   */\n      swap2\n      pop\n        /* \"#utility.yul\":2918:3036   */\n      pop\n        /* \"#utility.yul\":2064:3043   */\n      swap3\n      pop\n      swap3\n      pop\n      swap3\n      jump\t// out\n        /* \"#utility.yul\":3049:4028   */\n    tag_56:\n        /* \"#utility.yul\":3146:3152   */\n      0x00\n        /* \"#utility.yul\":3154:3160   */\n      dup1\n        /* \"#utility.yul\":3162:3168   */\n      0x00\n        /* \"#utility.yul\":3211:3213   */\n      0x60\n        /* \"#utility.yul\":3199:3208   */\n      dup5\n        /* \"#utility.yul\":3190:3197   */\n      dup7\n        /* \"#utility.yul\":3186:3209   */\n      sub\n        /* \"#utility.yul\":3182:3214   */\n      slt\n        /* \"#utility.yul\":3179:3298   */\n      iszero\n      tag_374\n      jumpi\n        /* \"#utility.yul\":3217:3296   */\n      tag_375\n      tag_354\n      jump\t// in\n    tag_375:\n        /* \"#utility.yul\":3179:3298   */\n    tag_374:\n        /* \"#utility.yul\":3365:3366   */\n      0x00\n        /* \"#utility.yul\":3354:3363   */\n      dup5\n        /* \"#utility.yul\":3350:3367   */\n      add\n        /* \"#utility.yul\":3337:3368   */\n      calldataload\n        /* \"#utility.yul\":3395:3413   */\n      0xffffffffffffffff\n        /* \"#utility.yul\":3387:3393   */\n      dup2\n        /* \"#utility.yul\":3384:3414   */\n      gt\n        /* \"#utility.yul\":3381:3498   */\n      iszero\n      tag_376\n      jumpi\n        /* \"#utility.yul\":3417:3496   */\n      tag_377\n      tag_361\n      jump\t// in\n    tag_377:\n        /* \"#utility.yul\":3381:3498   */\n    tag_376:\n        /* \"#utility.yul\":3522:3585   */\n      tag_378\n        /* \"#utility.yul\":3577:3584   */\n      dup7\n        /* \"#utility.yul\":3568:3574   */\n      dup3\n        /* \"#utility.yul\":3557:3566   */\n      dup8\n        /* \"#utility.yul\":3553:3575   */\n      add\n        /* \"#utility.yul\":3522:3585   */\n      tag_341\n      jump\t// in\n    tag_378:\n        /* \"#utility.yul\":3512:3585   */\n      swap4\n      pop\n        /* \"#utility.yul\":3308:3595   */\n      pop\n        /* \"#utility.yul\":3634:3636   */\n      0x20\n        /* \"#utility.yul\":3660:3713   */\n      tag_379\n        /* \"#utility.yul\":3705:3712   */\n      dup7\n        /* \"#utility.yul\":3696:3702   */\n      dup3\n        /* \"#utility.yul\":3685:3694   */\n      dup8\n        /* \"#utility.yul\":3681:3703   */\n      add\n        /* \"#utility.yul\":3660:3713   */\n      tag_347\n      jump\t// in\n    tag_379:\n        /* \"#utility.yul\":3650:3713   */\n      swap3\n      pop\n        /* \"#utility.yul\":3605:3723   */\n      pop\n        /* \"#utility.yul\":3790:3792   */\n      0x40\n        /* \"#utility.yul\":3779:3788   */\n      dup5\n        /* \"#utility.yul\":3775:3793   */\n      add\n        /* \"#utility.yul\":3762:3794   */\n      calldataload\n        /* \"#utility.yul\":3821:3839   */\n      0xffffffffffffffff\n        /* \"#utility.yul\":3813:3819   */\n      dup2\n        /* \"#utility.yul\":3810:3840   */\n      gt\n        /* \"#utility.yul\":3807:3924   */\n      iszero\n      tag_380\n      jumpi\n        /* \"#utility.yul\":3843:3922   */\n      tag_381\n      tag_361\n      jump\t// in\n    tag_381:\n        /* \"#utility.yul\":3807:3924   */\n    tag_380:\n        /* \"#utility.yul\":3948:4011   */\n      tag_382\n        /* \"#utility.yul\":4003:4010   */\n      dup7\n        /* \"#utility.yul\":3994:4000   */\n      dup3\n        /* \"#utility.yul\":3983:3992   */\n      dup8\n        /* \"#utility.yul\":3979:4001   */\n      add\n        /* \"#utility.yul\":3948:4011   */\n      tag_341\n      jump\t// in\n    tag_382:\n        /* \"#utility.yul\":3938:4011   */\n      swap2\n      pop\n        /* \"#utility.yul\":3733:4021   */\n      pop\n        /* \"#utility.yul\":3049:4028   */\n      swap3\n      pop\n      swap3\n      pop\n      swap3\n      jump\t// out\n        /* \"#utility.yul\":4034:4363   */\n    tag_27:\n        /* \"#utility.yul\":4093:4099   */\n      0x00\n        /* \"#utility.yul\":4142:4144   */\n      0x20\n        /* \"#utility.yul\":4130:4139   */\n      dup3\n        /* \"#utility.yul\":4121:4128   */\n      dup5\n        /* \"#utility.yul\":4117:4140   */\n      sub\n        /* \"#utility.yul\":4113:4145   */\n      slt\n        /* \"#utility.yul\":4110:4229   */\n      iszero\n      tag_384\n      jumpi\n        /* \"#utility.yul\":4148:4227   */\n      tag_385\n      tag_354\n      jump\t// in\n    tag_385:\n        /* \"#utility.yul\":4110:4229   */\n    tag_384:\n        /* \"#utility.yul\":4268:4269   */\n      0x00\n        /* \"#utility.yul\":4293:4346   */\n      tag_386\n        /* \"#utility.yul\":4338:4345   */\n      dup5\n        /* \"#utility.yul\":4329:4335   */\n      dup3\n        /* \"#utility.yul\":4318:4327   */\n      dup6\n        /* \"#utility.yul\":4314:4336   */\n      add\n        /* \"#utility.yul\":4293:4346   */\n      tag_347\n      jump\t// in\n    tag_386:\n        /* \"#utility.yul\":4283:4346   */\n      swap2\n      pop\n        /* \"#utility.yul\":4239:4356   */\n      pop\n        /* \"#utility.yul\":4034:4363   */\n      swap3\n      swap2\n      pop\n      pop\n      jump\t// out\n        /* \"#utility.yul\":4369:4837   */\n    tag_33:\n        /* \"#utility.yul\":4434:4440   */\n      0x00\n        /* \"#utility.yul\":4442:4448   */\n      dup1\n        /* \"#utility.yul\":4491:4493   */\n      0x40\n        /* \"#utility.yul\":4479:4488   */\n      dup4\n        /* \"#utility.yul\":4470:4477   */\n      dup6\n        /* \"#utility.yul\":4466:4489   */\n      sub\n        /* \"#utility.yul\":4462:4494   */\n      slt\n        /* \"#utility.yul\":4459:4578   */\n      iszero\n      tag_388\n      jumpi\n        /* \"#utility.yul\":4497:4576   */\n      tag_389\n      tag_354\n      jump\t// in\n    tag_389:\n        /* \"#utility.yul\":4459:4578   */\n    tag_388:\n        /* \"#utility.yul\":4617:4618   */\n      0x00\n        /* \"#utility.yul\":4642:4695   */\n      tag_390\n        /* \"#utility.yul\":4687:4694   */\n      dup6\n        /* \"#utility.yul\":4678:4684   */\n      dup3\n        /* \"#utility.yul\":4667:4676   */\n      dup7\n        /* \"#utility.yul\":4663:4685   */\n      add\n        /* \"#utility.yul\":4642:4695   */\n      tag_347\n      jump\t// in\n    tag_390:\n        /* \"#utility.yul\":4632:4695   */\n      swap3\n      pop\n        /* \"#utility.yul\":4588:4705   */\n      pop\n        /* \"#utility.yul\":4744:4746   */\n      0x20\n        /* \"#utility.yul\":4770:4820   */\n      tag_391\n        /* \"#utility.yul\":4812:4819   */\n      dup6\n        /* \"#utility.yul\":4803:4809   */\n      dup3\n        /* \"#utility.yul\":4792:4801   */\n      dup7\n        /* \"#utility.yul\":4788:4810   */\n      add\n        /* \"#utility.yul\":4770:4820   */\n      tag_337\n      jump\t// in\n    tag_391:\n        /* \"#utility.yul\":4760:4820   */\n      swap2\n      pop\n        /* \"#utility.yul\":4715:4830   */\n      pop\n        /* \"#utility.yul\":4369:4837   */\n      swap3\n      pop\n      swap3\n      swap1\n      pop\n      jump\t// out\n        /* \"#utility.yul\":4843:5039   */\n    tag_392:\n        /* \"#utility.yul\":4932:4942   */\n      0x00\n        /* \"#utility.yul\":4967:5033   */\n      tag_394\n        /* \"#utility.yul\":5029:5032   */\n      dup4\n        /* \"#utility.yul\":5021:5027   */\n      dup4\n        /* \"#utility.yul\":4967:5033   */\n      tag_395\n      jump\t// in\n    tag_394:\n        /* \"#utility.yul\":4953:5033   */\n      swap1\n      pop\n        /* \"#utility.yul\":4843:5039   */\n      swap3\n      swap2\n      pop\n      pop\n      jump\t// out\n        /* \"#utility.yul\":5045:5163   */\n    tag_396:\n        /* \"#utility.yul\":5132:5156   */\n      tag_398\n        /* \"#utility.yul\":5150:5155   */\n      dup2\n        /* \"#utility.yul\":5132:5156   */\n      tag_399\n      jump\t// in\n    tag_398:\n        /* \"#utility.yul\":5127:5130   */\n      dup3\n        /* \"#utility.yul\":5120:5157   */\n      mstore\n        /* \"#utility.yul\":5045:5163   */\n      pop\n      pop\n      jump\t// out\n        /* \"#utility.yul\":5197:6188   */\n    tag_400:\n        /* \"#utility.yul\":5336:5339   */\n      0x00\n        /* \"#utility.yul\":5365:5429   */\n      tag_402\n        /* \"#utility.yul\":5423:5428   */\n      dup3\n        /* \"#utility.yul\":5365:5429   */\n      tag_403\n      jump\t// in\n    tag_402:\n        /* \"#utility.yul\":5445:5541   */\n      tag_404\n        /* \"#utility.yul\":5534:5540   */\n      dup2\n        /* \"#utility.yul\":5529:5532   */\n      dup6\n        /* \"#utility.yul\":5445:5541   */\n      tag_405\n      jump\t// in\n    tag_404:\n        /* \"#utility.yul\":5438:5541   */\n      swap4\n      pop\n        /* \"#utility.yul\":5567:5570   */\n      dup4\n        /* \"#utility.yul\":5612:5616   */\n      0x20\n        /* \"#utility.yul\":5604:5610   */\n      dup3\n        /* \"#utility.yul\":5600:5617   */\n      mul\n        /* \"#utility.yul\":5595:5598   */\n      dup6\n        /* \"#utility.yul\":5591:5618   */\n      add\n        /* \"#utility.yul\":5642:5708   */\n      tag_406\n        /* \"#utility.yul\":5702:5707   */\n      dup6\n        /* \"#utility.yul\":5642:5708   */\n      tag_407\n      jump\t// in\n    tag_406:\n        /* \"#utility.yul\":5731:5738   */\n      dup1\n        /* \"#utility.yul\":5762:5763   */\n      0x00\n        /* \"#utility.yul\":5747:6143   */\n    tag_408:\n        /* \"#utility.yul\":5772:5778   */\n      dup6\n        /* \"#utility.yul\":5769:5770   */\n      dup2\n        /* \"#utility.yul\":5766:5779   */\n      lt\n        /* \"#utility.yul\":5747:6143   */\n      iszero\n      tag_410\n      jumpi\n        /* \"#utility.yul\":5843:5852   */\n      dup5\n        /* \"#utility.yul\":5837:5841   */\n      dup5\n        /* \"#utility.yul\":5833:5853   */\n      sub\n        /* \"#utility.yul\":5828:5831   */\n      dup10\n        /* \"#utility.yul\":5821:5854   */\n      mstore\n        /* \"#utility.yul\":5894:5900   */\n      dup2\n        /* \"#utility.yul\":5888:5901   */\n      mload\n        /* \"#utility.yul\":5922:6006   */\n      tag_411\n        /* \"#utility.yul\":6001:6005   */\n      dup6\n        /* \"#utility.yul\":5986:5999   */\n      dup3\n        /* \"#utility.yul\":5922:6006   */\n      tag_392\n      jump\t// in\n    tag_411:\n        /* \"#utility.yul\":5914:6006   */\n      swap5\n      pop\n        /* \"#utility.yul\":6029:6099   */\n      tag_412\n        /* \"#utility.yul\":6092:6098   */\n      dup4\n        /* \"#utility.yul\":6029:6099   */\n      tag_413\n      jump\t// in\n    tag_412:\n        /* \"#utility.yul\":6019:6099   */\n      swap3\n      pop\n        /* \"#utility.yul\":6128:6132   */\n      0x20\n        /* \"#utility.yul\":6123:6126   */\n      dup11\n        /* \"#utility.yul\":6119:6133   */\n      add\n        /* \"#utility.yul\":6112:6133   */\n      swap10\n      pop\n        /* \"#utility.yul\":5807:6143   */\n      pop\n        /* \"#utility.yul\":5794:5795   */\n      0x01\n        /* \"#utility.yul\":5791:5792   */\n      dup2\n        /* \"#utility.yul\":5787:5796   */\n      add\n        /* \"#utility.yul\":5782:5796   */\n      swap1\n      pop\n        /* \"#utility.yul\":5747:6143   */\n      jump(tag_408)\n    tag_410:\n        /* \"#utility.yul\":5751:5765   */\n      pop\n        /* \"#utility.yul\":6159:6163   */\n      dup3\n        /* \"#utility.yul\":6152:6163   */\n      swap8\n      pop\n        /* \"#utility.yul\":6179:6182   */\n      dup8\n        /* \"#utility.yul\":6172:6182   */\n      swap6\n      pop\n        /* \"#utility.yul\":5341:6188   */\n      pop\n      pop\n      pop\n      pop\n      pop\n        /* \"#utility.yul\":5197:6188   */\n      swap3\n      swap2\n      pop\n      pop\n      jump\t// out\n        /* \"#utility.yul\":6194:6303   */\n    tag_414:\n        /* \"#utility.yul\":6275:6296   */\n      tag_416\n        /* \"#utility.yul\":6290:6295   */\n      dup2\n        /* \"#utility.yul\":6275:6296   */\n      tag_417\n      jump\t// in\n    tag_416:\n        /* \"#utility.yul\":6270:6273   */\n      dup3\n        /* \"#utility.yul\":6263:6297   */\n      mstore\n        /* \"#utility.yul\":6194:6303   */\n      pop\n      pop\n      jump\t// out\n        /* \"#utility.yul\":6309:6653   */\n    tag_395:\n        /* \"#utility.yul\":6387:6390   */\n      0x00\n        /* \"#utility.yul\":6415:6454   */\n      tag_419\n        /* \"#utility.yul\":6448:6453   */\n      dup3\n        /* \"#utility.yul\":6415:6454   */\n      tag_420\n      jump\t// in\n    tag_419:\n        /* \"#utility.yul\":6470:6531   */\n      tag_421\n        /* \"#utility.yul\":6524:6530   */\n      dup2\n        /* \"#utility.yul\":6519:6522   */\n      dup6\n        /* \"#utility.yul\":6470:6531   */\n      tag_422\n      jump\t// in\n    tag_421:\n        /* \"#utility.yul\":6463:6531   */\n      swap4\n      pop\n        /* \"#utility.yul\":6540:6592   */\n      tag_423\n        /* \"#utility.yul\":6585:6591   */\n      dup2\n        /* \"#utility.yul\":6580:6583   */\n      dup6\n        /* \"#utility.yul\":6573:6577   */\n      0x20\n        /* \"#utility.yul\":6566:6571   */\n      dup7\n        /* \"#utility.yul\":6562:6578   */\n      add\n        /* \"#utility.yul\":6540:6592   */\n      tag_424\n      jump\t// in\n    tag_423:\n        /* \"#utility.yul\":6617:6646   */\n      tag_425\n        /* \"#utility.yul\":6639:6645   */\n      dup2\n        /* \"#utility.yul\":6617:6646   */\n      tag_426\n      jump\t// in\n    tag_425:\n        /* \"#utility.yul\":6612:6615   */\n      dup5\n        /* \"#utility.yul\":6608:6647   */\n      add\n        /* \"#utility.yul\":6601:6647   */\n      swap2\n      pop\n        /* \"#utility.yul\":6391:6653   */\n      pop\n        /* \"#utility.yul\":6309:6653   */\n      swap3\n      swap2\n      pop\n      pop\n      jump\t// out\n        /* \"#utility.yul\":6659:7023   */\n    tag_427:\n        /* \"#utility.yul\":6747:6750   */\n      0x00\n        /* \"#utility.yul\":6775:6814   */\n      tag_429\n        /* \"#utility.yul\":6808:6813   */\n      dup3\n        /* \"#utility.yul\":6775:6814   */\n      tag_420\n      jump\t// in\n    tag_429:\n        /* \"#utility.yul\":6830:6901   */\n      tag_430\n        /* \"#utility.yul\":6894:6900   */\n      dup2\n        /* \"#utility.yul\":6889:6892   */\n      dup6\n        /* \"#utility.yul\":6830:6901   */\n      tag_431\n      jump\t// in\n    tag_430:\n        /* \"#utility.yul\":6823:6901   */\n      swap4\n      pop\n        /* \"#utility.yul\":6910:6962   */\n      tag_432\n        /* \"#utility.yul\":6955:6961   */\n      dup2\n        /* \"#utility.yul\":6950:6953   */\n      dup6\n        /* \"#utility.yul\":6943:6947   */\n      0x20\n        /* \"#utility.yul\":6936:6941   */\n      dup7\n        /* \"#utility.yul\":6932:6948   */\n      add\n        /* \"#utility.yul\":6910:6962   */\n      tag_424\n      jump\t// in\n    tag_432:\n        /* \"#utility.yul\":6987:7016   */\n      tag_433\n        /* \"#utility.yul\":7009:7015   */\n      dup2\n        /* \"#utility.yul\":6987:7016   */\n      tag_426\n      jump\t// in\n    tag_433:\n        /* \"#utility.yul\":6982:6985   */\n      dup5\n        /* \"#utility.yul\":6978:7017   */\n      add\n        /* \"#utility.yul\":6971:7017   */\n      swap2\n      pop\n        /* \"#utility.yul\":6751:7023   */\n      pop\n        /* \"#utility.yul\":6659:7023   */\n      swap3\n      swap2\n      pop\n      pop\n      jump\t// out\n        /* \"#utility.yul\":7029:7406   */\n    tag_434:\n        /* \"#utility.yul\":7135:7138   */\n      0x00\n        /* \"#utility.yul\":7163:7202   */\n      tag_436\n        /* \"#utility.yul\":7196:7201   */\n      dup3\n        /* \"#utility.yul\":7163:7202   */\n      tag_420\n      jump\t// in\n    tag_436:\n        /* \"#utility.yul\":7218:7307   */\n      tag_437\n        /* \"#utility.yul\":7300:7306   */\n      dup2\n        /* \"#utility.yul\":7295:7298   */\n      dup6\n        /* \"#utility.yul\":7218:7307   */\n      tag_438\n      jump\t// in\n    tag_437:\n        /* \"#utility.yul\":7211:7307   */\n      swap4\n      pop\n        /* \"#utility.yul\":7316:7368   */\n      tag_439\n        /* \"#utility.yul\":7361:7367   */\n      dup2\n        /* \"#utility.yul\":7356:7359   */\n      dup6\n        /* \"#utility.yul\":7349:7353   */\n      0x20\n        /* \"#utility.yul\":7342:7347   */\n      dup7\n        /* \"#utility.yul\":7338:7354   */\n      add\n        /* \"#utility.yul\":7316:7368   */\n      tag_424\n      jump\t// in\n    tag_439:\n        /* \"#utility.yul\":7393:7399   */\n      dup1\n        /* \"#utility.yul\":7388:7391   */\n      dup5\n        /* \"#utility.yul\":7384:7400   */\n      add\n        /* \"#utility.yul\":7377:7400   */\n      swap2\n      pop\n        /* \"#utility.yul\":7139:7406   */\n      pop\n        /* \"#utility.yul\":7029:7406   */\n      swap3\n      swap2\n      pop\n      pop\n      jump\t// out\n        /* \"#utility.yul\":7436:8281   */\n    tag_440:\n        /* \"#utility.yul\":7539:7542   */\n      0x00\n        /* \"#utility.yul\":7576:7581   */\n      dup2\n        /* \"#utility.yul\":7570:7582   */\n      sload\n        /* \"#utility.yul\":7605:7641   */\n      tag_442\n        /* \"#utility.yul\":7631:7640   */\n      dup2\n        /* \"#utility.yul\":7605:7641   */\n      tag_107\n      jump\t// in\n    tag_442:\n        /* \"#utility.yul\":7657:7746   */\n      tag_443\n        /* \"#utility.yul\":7739:7745   */\n      dup2\n        /* \"#utility.yul\":7734:7737   */\n      dup7\n        /* \"#utility.yul\":7657:7746   */\n      tag_438\n      jump\t// in\n    tag_443:\n        /* \"#utility.yul\":7650:7746   */\n      swap5\n      pop\n        /* \"#utility.yul\":7777:7778   */\n      0x01\n        /* \"#utility.yul\":7766:7775   */\n      dup3\n        /* \"#utility.yul\":7762:7779   */\n      and\n        /* \"#utility.yul\":7793:7794   */\n      0x00\n        /* \"#utility.yul\":7788:7925   */\n      dup2\n      eq\n      tag_445\n      jumpi\n        /* \"#utility.yul\":7939:7940   */\n      0x01\n        /* \"#utility.yul\":7934:8275   */\n      dup2\n      eq\n      tag_446\n      jumpi\n        /* \"#utility.yul\":7755:8275   */\n      jump(tag_444)\n        /* \"#utility.yul\":7788:7925   */\n    tag_445:\n        /* \"#utility.yul\":7872:7876   */\n      0xff\n        /* \"#utility.yul\":7868:7877   */\n      not\n        /* \"#utility.yul\":7857:7866   */\n      dup4\n        /* \"#utility.yul\":7853:7878   */\n      and\n        /* \"#utility.yul\":7848:7851   */\n      dup7\n        /* \"#utility.yul\":7841:7879   */\n      mstore\n        /* \"#utility.yul\":7908:7914   */\n      dup2\n        /* \"#utility.yul\":7903:7906   */\n      dup7\n        /* \"#utility.yul\":7899:7915   */\n      add\n        /* \"#utility.yul\":7892:7915   */\n      swap4\n      pop\n        /* \"#utility.yul\":7788:7925   */\n      jump(tag_444)\n        /* \"#utility.yul\":7934:8275   */\n    tag_446:\n        /* \"#utility.yul\":8001:8039   */\n      tag_447\n        /* \"#utility.yul\":8033:8038   */\n      dup6\n        /* \"#utility.yul\":8001:8039   */\n      tag_448\n      jump\t// in\n    tag_447:\n        /* \"#utility.yul\":8061:8062   */\n      0x00\n        /* \"#utility.yul\":8075:8229   */\n    tag_449:\n        /* \"#utility.yul\":8089:8095   */\n      dup4\n        /* \"#utility.yul\":8086:8087   */\n      dup2\n        /* \"#utility.yul\":8083:8096   */\n      lt\n        /* \"#utility.yul\":8075:8229   */\n      iszero\n      tag_451\n      jumpi\n        /* \"#utility.yul\":8163:8170   */\n      dup2\n        /* \"#utility.yul\":8157:8171   */\n      sload\n        /* \"#utility.yul\":8153:8154   */\n      dup2\n        /* \"#utility.yul\":8148:8151   */\n      dup10\n        /* \"#utility.yul\":8144:8155   */\n      add\n        /* \"#utility.yul\":8137:8172   */\n      mstore\n        /* \"#utility.yul\":8213:8214   */\n      0x01\n        /* \"#utility.yul\":8204:8211   */\n      dup3\n        /* \"#utility.yul\":8200:8215   */\n      add\n        /* \"#utility.yul\":8189:8215   */\n      swap2\n      pop\n        /* \"#utility.yul\":8111:8115   */\n      0x20\n        /* \"#utility.yul\":8108:8109   */\n      dup2\n        /* \"#utility.yul\":8104:8116   */\n      add\n        /* \"#utility.yul\":8099:8116   */\n      swap1\n      pop\n        /* \"#utility.yul\":8075:8229   */\n      jump(tag_449)\n    tag_451:\n        /* \"#utility.yul\":8258:8264   */\n      dup4\n        /* \"#utility.yul\":8253:8256   */\n      dup9\n        /* \"#utility.yul\":8249:8265   */\n      add\n        /* \"#utility.yul\":8242:8265   */\n      swap6\n      pop\n        /* \"#utility.yul\":7941:8275   */\n      pop\n      pop\n        /* \"#utility.yul\":7755:8275   */\n    tag_444:\n      pop\n        /* \"#utility.yul\":7543:8281   */\n      pop\n      pop\n        /* \"#utility.yul\":7436:8281   */\n      swap3\n      swap2\n      pop\n      pop\n      jump\t// out\n        /* \"#utility.yul\":8287:8653   */\n    tag_452:\n        /* \"#utility.yul\":8429:8432   */\n      0x00\n        /* \"#utility.yul\":8450:8517   */\n      tag_454\n        /* \"#utility.yul\":8514:8516   */\n      0x10\n        /* \"#utility.yul\":8509:8512   */\n      dup4\n        /* \"#utility.yul\":8450:8517   */\n      tag_431\n      jump\t// in\n    tag_454:\n        /* \"#utility.yul\":8443:8517   */\n      swap2\n      pop\n        /* \"#utility.yul\":8526:8619   */\n      tag_455\n        /* \"#utility.yul\":8615:8618   */\n      dup3\n        /* \"#utility.yul\":8526:8619   */\n      tag_456\n      jump\t// in\n    tag_455:\n        /* \"#utility.yul\":8644:8646   */\n      0x20\n        /* \"#utility.yul\":8639:8642   */\n      dup3\n        /* \"#utility.yul\":8635:8647   */\n      add\n        /* \"#utility.yul\":8628:8647   */\n      swap1\n      pop\n        /* \"#utility.yul\":8287:8653   */\n      swap2\n      swap1\n      pop\n      jump\t// out\n        /* \"#utility.yul\":8659:9025   */\n    tag_457:\n        /* \"#utility.yul\":8801:8804   */\n      0x00\n        /* \"#utility.yul\":8822:8889   */\n      tag_459\n        /* \"#utility.yul\":8886:8888   */\n      0x21\n        /* \"#utility.yul\":8881:8884   */\n      dup4\n        /* \"#utility.yul\":8822:8889   */\n      tag_431\n      jump\t// in\n    tag_459:\n        /* \"#utility.yul\":8815:8889   */\n      swap2\n      pop\n        /* \"#utility.yul\":8898:8991   */\n      tag_460\n        /* \"#utility.yul\":8987:8990   */\n      dup3\n        /* \"#utility.yul\":8898:8991   */\n      tag_461\n      jump\t// in\n    tag_460:\n        /* \"#utility.yul\":9016:9018   */\n      0x40\n        /* \"#utility.yul\":9011:9014   */\n      dup3\n        /* \"#utility.yul\":9007:9019   */\n      add\n        /* \"#utility.yul\":9000:9019   */\n      swap1\n      pop\n        /* \"#utility.yul\":8659:9025   */\n      swap2\n      swap1\n      pop\n      jump\t// out\n        /* \"#utility.yul\":9031:9149   */\n    tag_462:\n        /* \"#utility.yul\":9118:9142   */\n      tag_464\n        /* \"#utility.yul\":9136:9141   */\n      dup2\n        /* \"#utility.yul\":9118:9142   */\n      tag_465\n      jump\t// in\n    tag_464:\n        /* \"#utility.yul\":9113:9116   */\n      dup3\n        /* \"#utility.yul\":9106:9143   */\n      mstore\n        /* \"#utility.yul\":9031:9149   */\n      pop\n      pop\n      jump\t// out\n        /* \"#utility.yul\":9155:9430   */\n    tag_153:\n        /* \"#utility.yul\":9287:9290   */\n      0x00\n        /* \"#utility.yul\":9309:9404   */\n      tag_467\n        /* \"#utility.yul\":9400:9403   */\n      dup3\n        /* \"#utility.yul\":9391:9397   */\n      dup5\n        /* \"#utility.yul\":9309:9404   */\n      tag_434\n      jump\t// in\n    tag_467:\n        /* \"#utility.yul\":9302:9404   */\n      swap2\n      pop\n        /* \"#utility.yul\":9421:9424   */\n      dup2\n        /* \"#utility.yul\":9414:9424   */\n      swap1\n      pop\n        /* \"#utility.yul\":9155:9430   */\n      swap3\n      swap2\n      pop\n      pop\n      jump\t// out\n        /* \"#utility.yul\":9436:9705   */\n    tag_132:\n        /* \"#utility.yul\":9565:9568   */\n      0x00\n        /* \"#utility.yul\":9587:9679   */\n      tag_469\n        /* \"#utility.yul\":9675:9678   */\n      dup3\n        /* \"#utility.yul\":9666:9672   */\n      dup5\n        /* \"#utility.yul\":9587:9679   */\n      tag_440\n      jump\t// in\n    tag_469:\n        /* \"#utility.yul\":9580:9679   */\n      swap2\n      pop\n        /* \"#utility.yul\":9696:9699   */\n      dup2\n        /* \"#utility.yul\":9689:9699   */\n      swap1\n      pop\n        /* \"#utility.yul\":9436:9705   */\n      swap3\n      swap2\n      pop\n      pop\n      jump\t// out\n        /* \"#utility.yul\":9711:9933   */\n    tag_43:\n        /* \"#utility.yul\":9804:9808   */\n      0x00\n        /* \"#utility.yul\":9842:9844   */\n      0x20\n        /* \"#utility.yul\":9831:9840   */\n      dup3\n        /* \"#utility.yul\":9827:9845   */\n      add\n        /* \"#utility.yul\":9819:9845   */\n      swap1\n      pop\n        /* \"#utility.yul\":9855:9926   */\n      tag_471\n        /* \"#utility.yul\":9923:9924   */\n      0x00\n        /* \"#utility.yul\":9912:9921   */\n      dup4\n        /* \"#utility.yul\":9908:9925   */\n      add\n        /* \"#utility.yul\":9899:9905   */\n      dup5\n        /* \"#utility.yul\":9855:9926   */\n      tag_396\n      jump\t// in\n    tag_471:\n        /* \"#utility.yul\":9711:9933   */\n      swap3\n      swap2\n      pop\n      pop\n      jump\t// out\n        /* \"#utility.yul\":9939:10460   */\n    tag_62:\n        /* \"#utility.yul\":10102:10106   */\n      0x00\n        /* \"#utility.yul\":10140:10142   */\n      0x60\n        /* \"#utility.yul\":10129:10138   */\n      dup3\n        /* \"#utility.yul\":10125:10143   */\n      add\n        /* \"#utility.yul\":10117:10143   */\n      swap1\n      pop\n        /* \"#utility.yul\":10153:10224   */\n      tag_473\n        /* \"#utility.yul\":10221:10222   */\n      0x00\n        /* \"#utility.yul\":10210:10219   */\n      dup4\n        /* \"#utility.yul\":10206:10223   */\n      add\n        /* \"#utility.yul\":10197:10203   */\n      dup7\n        /* \"#utility.yul\":10153:10224   */\n      tag_396\n      jump\t// in\n    tag_473:\n        /* \"#utility.yul\":10271:10280   */\n      dup2\n        /* \"#utility.yul\":10265:10269   */\n      dup2\n        /* \"#utility.yul\":10261:10281   */\n      sub\n        /* \"#utility.yul\":10256:10258   */\n      0x20\n        /* \"#utility.yul\":10245:10254   */\n      dup4\n        /* \"#utility.yul\":10241:10259   */\n      add\n        /* \"#utility.yul\":10234:10282   */\n      mstore\n        /* \"#utility.yul\":10299:10377   */\n      tag_474\n        /* \"#utility.yul\":10372:10376   */\n      dup2\n        /* \"#utility.yul\":10363:10369   */\n      dup6\n        /* \"#utility.yul\":10299:10377   */\n      tag_427\n      jump\t// in\n    tag_474:\n        /* \"#utility.yul\":10291:10377   */\n      swap1\n      pop\n        /* \"#utility.yul\":10387:10453   */\n      tag_475\n        /* \"#utility.yul\":10449:10451   */\n      0x40\n        /* \"#utility.yul\":10438:10447   */\n      dup4\n        /* \"#utility.yul\":10434:10452   */\n      add\n        /* \"#utility.yul\":10425:10431   */\n      dup5\n        /* \"#utility.yul\":10387:10453   */\n      tag_414\n      jump\t// in\n    tag_475:\n        /* \"#utility.yul\":9939:10460   */\n      swap5\n      swap4\n      pop\n      pop\n      pop\n      pop\n      jump\t// out\n        /* \"#utility.yul\":10466:11110   */\n    tag_96:\n        /* \"#utility.yul\":10663:10667   */\n      0x00\n        /* \"#utility.yul\":10701:10704   */\n      0x80\n        /* \"#utility.yul\":10690:10699   */\n      dup3\n        /* \"#utility.yul\":10686:10705   */\n      add\n        /* \"#utility.yul\":10678:10705   */\n      swap1\n      pop\n        /* \"#utility.yul\":10715:10786   */\n      tag_477\n        /* \"#utility.yul\":10783:10784   */\n      0x00\n        /* \"#utility.yul\":10772:10781   */\n      dup4\n        /* \"#utility.yul\":10768:10785   */\n      add\n        /* \"#utility.yul\":10759:10765   */\n      dup8\n        /* \"#utility.yul\":10715:10786   */\n      tag_396\n      jump\t// in\n    tag_477:\n        /* \"#utility.yul\":10833:10842   */\n      dup2\n        /* \"#utility.yul\":10827:10831   */\n      dup2\n        /* \"#utility.yul\":10823:10843   */\n      sub\n        /* \"#utility.yul\":10818:10820   */\n      0x20\n        /* \"#utility.yul\":10807:10816   */\n      dup4\n        /* \"#utility.yul\":10803:10821   */\n      add\n        /* \"#utility.yul\":10796:10844   */\n      mstore\n        /* \"#utility.yul\":10861:10939   */\n      tag_478\n        /* \"#utility.yul\":10934:10938   */\n      dup2\n        /* \"#utility.yul\":10925:10931   */\n      dup7\n        /* \"#utility.yul\":10861:10939   */\n      tag_427\n      jump\t// in\n    tag_478:\n        /* \"#utility.yul\":10853:10939   */\n      swap1\n      pop\n        /* \"#utility.yul\":10949:11021   */\n      tag_479\n        /* \"#utility.yul\":11017:11019   */\n      0x40\n        /* \"#utility.yul\":11006:11015   */\n      dup4\n        /* \"#utility.yul\":11002:11020   */\n      add\n        /* \"#utility.yul\":10993:10999   */\n      dup6\n        /* \"#utility.yul\":10949:11021   */\n      tag_462\n      jump\t// in\n    tag_479:\n        /* \"#utility.yul\":11031:11103   */\n      tag_480\n        /* \"#utility.yul\":11099:11101   */\n      0x60\n        /* \"#utility.yul\":11088:11097   */\n      dup4\n        /* \"#utility.yul\":11084:11102   */\n      add\n        /* \"#utility.yul\":11075:11081   */\n      dup5\n        /* \"#utility.yul\":11031:11103   */\n      tag_462\n      jump\t// in\n    tag_480:\n        /* \"#utility.yul\":10466:11110   */\n      swap6\n      swap5\n      pop\n      pop\n      pop\n      pop\n      pop\n      jump\t// out\n        /* \"#utility.yul\":11116:11529   */\n    tag_53:\n        /* \"#utility.yul\":11279:11283   */\n      0x00\n        /* \"#utility.yul\":11317:11319   */\n      0x20\n        /* \"#utility.yul\":11306:11315   */\n      dup3\n        /* \"#utility.yul\":11302:11320   */\n      add\n        /* \"#utility.yul\":11294:11320   */\n      swap1\n      pop\n        /* \"#utility.yul\":11366:11375   */\n      dup2\n        /* \"#utility.yul\":11360:11364   */\n      dup2\n        /* \"#utility.yul\":11356:11376   */\n      sub\n        /* \"#utility.yul\":11352:11353   */\n      0x00\n        /* \"#utility.yul\":11341:11350   */\n      dup4\n        /* \"#utility.yul\":11337:11354   */\n      add\n        /* \"#utility.yul\":11330:11377   */\n      mstore\n        /* \"#utility.yul\":11394:11522   */\n      tag_482\n        /* \"#utility.yul\":11517:11521   */\n      dup2\n        /* \"#utility.yul\":11508:11514   */\n      dup5\n        /* \"#utility.yul\":11394:11522   */\n      tag_400\n      jump\t// in\n    tag_482:\n        /* \"#utility.yul\":11386:11522   */\n      swap1\n      pop\n        /* \"#utility.yul\":11116:11529   */\n      swap3\n      swap2\n      pop\n      pop\n      jump\t// out\n        /* \"#utility.yul\":11535:12361   */\n    tag_30:\n        /* \"#utility.yul\":11772:11776   */\n      0x00\n        /* \"#utility.yul\":11810:11813   */\n      0x80\n        /* \"#utility.yul\":11799:11808   */\n      dup3\n        /* \"#utility.yul\":11795:11814   */\n      add\n        /* \"#utility.yul\":11787:11814   */\n      swap1\n      pop\n        /* \"#utility.yul\":11860:11869   */\n      dup2\n        /* \"#utility.yul\":11854:11858   */\n      dup2\n        /* \"#utility.yul\":11850:11870   */\n      sub\n        /* \"#utility.yul\":11846:11847   */\n      0x00\n        /* \"#utility.yul\":11835:11844   */\n      dup4\n        /* \"#utility.yul\":11831:11848   */\n      add\n        /* \"#utility.yul\":11824:11871   */\n      mstore\n        /* \"#utility.yul\":11888:11966   */\n      tag_484\n        /* \"#utility.yul\":11961:11965   */\n      dup2\n        /* \"#utility.yul\":11952:11958   */\n      dup8\n        /* \"#utility.yul\":11888:11966   */\n      tag_427\n      jump\t// in\n    tag_484:\n        /* \"#utility.yul\":11880:11966   */\n      swap1\n      pop\n        /* \"#utility.yul\":12013:12022   */\n      dup2\n        /* \"#utility.yul\":12007:12011   */\n      dup2\n        /* \"#utility.yul\":12003:12023   */\n      sub\n        /* \"#utility.yul\":11998:12000   */\n      0x20\n        /* \"#utility.yul\":11987:11996   */\n      dup4\n        /* \"#utility.yul\":11983:12001   */\n      add\n        /* \"#utility.yul\":11976:12024   */\n      mstore\n        /* \"#utility.yul\":12041:12119   */\n      tag_485\n        /* \"#utility.yul\":12114:12118   */\n      dup2\n        /* \"#utility.yul\":12105:12111   */\n      dup7\n        /* \"#utility.yul\":12041:12119   */\n      tag_427\n      jump\t// in\n    tag_485:\n        /* \"#utility.yul\":12033:12119   */\n      swap1\n      pop\n        /* \"#utility.yul\":12166:12175   */\n      dup2\n        /* \"#utility.yul\":12160:12164   */\n      dup2\n        /* \"#utility.yul\":12156:12176   */\n      sub\n        /* \"#utility.yul\":12151:12153   */\n      0x40\n        /* \"#utility.yul\":12140:12149   */\n      dup4\n        /* \"#utility.yul\":12136:12154   */\n      add\n        /* \"#utility.yul\":12129:12177   */\n      mstore\n        /* \"#utility.yul\":12194:12272   */\n      tag_486\n        /* \"#utility.yul\":12267:12271   */\n      dup2\n        /* \"#utility.yul\":12258:12264   */\n      dup6\n        /* \"#utility.yul\":12194:12272   */\n      tag_427\n      jump\t// in\n    tag_486:\n        /* \"#utility.yul\":12186:12272   */\n      swap1\n      pop\n        /* \"#utility.yul\":12282:12354   */\n      tag_487\n        /* \"#utility.yul\":12350:12352   */\n      0x60\n        /* \"#utility.yul\":12339:12348   */\n      dup4\n        /* \"#utility.yul\":12335:12353   */\n      add\n        /* \"#utility.yul\":12326:12332   */\n      dup5\n        /* \"#utility.yul\":12282:12354   */\n      tag_462\n      jump\t// in\n    tag_487:\n        /* \"#utility.yul\":11535:12361   */\n      swap6\n      swap5\n      pop\n      pop\n      pop\n      pop\n      pop\n      jump\t// out\n        /* \"#utility.yul\":12367:12900   */\n    tag_68:\n        /* \"#utility.yul\":12536:12540   */\n      0x00\n        /* \"#utility.yul\":12574:12576   */\n      0x60\n        /* \"#utility.yul\":12563:12572   */\n      dup3\n        /* \"#utility.yul\":12559:12577   */\n      add\n        /* \"#utility.yul\":12551:12577   */\n      swap1\n      pop\n        /* \"#utility.yul\":12623:12632   */\n      dup2\n        /* \"#utility.yul\":12617:12621   */\n      dup2\n        /* \"#utility.yul\":12613:12633   */\n      sub\n        /* \"#utility.yul\":12609:12610   */\n      0x00\n        /* \"#utility.yul\":12598:12607   */\n      dup4\n        /* \"#utility.yul\":12594:12611   */\n      add\n        /* \"#utility.yul\":12587:12634   */\n      mstore\n        /* \"#utility.yul\":12651:12729   */\n      tag_489\n        /* \"#utility.yul\":12724:12728   */\n      dup2\n        /* \"#utility.yul\":12715:12721   */\n      dup7\n        /* \"#utility.yul\":12651:12729   */\n      tag_427\n      jump\t// in\n    tag_489:\n        /* \"#utility.yul\":12643:12729   */\n      swap1\n      pop\n        /* \"#utility.yul\":12739:12811   */\n      tag_490\n        /* \"#utility.yul\":12807:12809   */\n      0x20\n        /* \"#utility.yul\":12796:12805   */\n      dup4\n        /* \"#utility.yul\":12792:12810   */\n      add\n        /* \"#utility.yul\":12783:12789   */\n      dup6\n        /* \"#utility.yul\":12739:12811   */\n      tag_462\n      jump\t// in\n    tag_490:\n        /* \"#utility.yul\":12821:12893   */\n      tag_491\n        /* \"#utility.yul\":12889:12891   */\n      0x40\n        /* \"#utility.yul\":12878:12887   */\n      dup4\n        /* \"#utility.yul\":12874:12892   */\n      add\n        /* \"#utility.yul\":12865:12871   */\n      dup5\n        /* \"#utility.yul\":12821:12893   */\n      tag_462\n      jump\t// in\n    tag_491:\n        /* \"#utility.yul\":12367:12900   */\n      swap5\n      swap4\n      pop\n      pop\n      pop\n      pop\n      jump\t// out\n        /* \"#utility.yul\":12906:13325   */\n    tag_156:\n        /* \"#utility.yul\":13072:13076   */\n      0x00\n        /* \"#utility.yul\":13110:13112   */\n      0x20\n        /* \"#utility.yul\":13099:13108   */\n      dup3\n        /* \"#utility.yul\":13095:13113   */\n      add\n        /* \"#utility.yul\":13087:13113   */\n      swap1\n      pop\n        /* \"#utility.yul\":13159:13168   */\n      dup2\n        /* \"#utility.yul\":13153:13157   */\n      dup2\n        /* \"#utility.yul\":13149:13169   */\n      sub\n        /* \"#utility.yul\":13145:13146   */\n      0x00\n        /* \"#utility.yul\":13134:13143   */\n      dup4\n        /* \"#utility.yul\":13130:13147   */\n      add\n        /* \"#utility.yul\":13123:13170   */\n      mstore\n        /* \"#utility.yul\":13187:13318   */\n      tag_493\n        /* \"#utility.yul\":13313:13317   */\n      dup2\n        /* \"#utility.yul\":13187:13318   */\n      tag_452\n      jump\t// in\n    tag_493:\n        /* \"#utility.yul\":13179:13318   */\n      swap1\n      pop\n        /* \"#utility.yul\":12906:13325   */\n      swap2\n      swap1\n      pop\n      jump\t// out\n        /* \"#utility.yul\":13331:13750   */\n    tag_250:\n        /* \"#utility.yul\":13497:13501   */\n      0x00\n        /* \"#utility.yul\":13535:13537   */\n      0x20\n        /* \"#utility.yul\":13524:13533   */\n      dup3\n        /* \"#utility.yul\":13520:13538   */\n      add\n        /* \"#utility.yul\":13512:13538   */\n      swap1\n      pop\n        /* \"#utility.yul\":13584:13593   */\n      dup2\n        /* \"#utility.yul\":13578:13582   */\n      dup2\n        /* \"#utility.yul\":13574:13594   */\n      sub\n        /* \"#utility.yul\":13570:13571   */\n      0x00\n        /* \"#utility.yul\":13559:13568   */\n      dup4\n        /* \"#utility.yul\":13555:13572   */\n      add\n        /* \"#utility.yul\":13548:13595   */\n      mstore\n        /* \"#utility.yul\":13612:13743   */\n      tag_495\n        /* \"#utility.yul\":13738:13742   */\n      dup2\n        /* \"#utility.yul\":13612:13743   */\n      tag_457\n      jump\t// in\n    tag_495:\n        /* \"#utility.yul\":13604:13743   */\n      swap1\n      pop\n        /* \"#utility.yul\":13331:13750   */\n      swap2\n      swap1\n      pop\n      jump\t// out\n        /* \"#utility.yul\":13756:13978   */\n    tag_73:\n        /* \"#utility.yul\":13849:13853   */\n      0x00\n        /* \"#utility.yul\":13887:13889   */\n      0x20\n        /* \"#utility.yul\":13876:13885   */\n      dup3\n        /* \"#utility.yul\":13872:13890   */\n      add\n        /* \"#utility.yul\":13864:13890   */\n      swap1\n      pop\n        /* \"#utility.yul\":13900:13971   */\n      tag_497\n        /* \"#utility.yul\":13968:13969   */\n      0x00\n        /* \"#utility.yul\":13957:13966   */\n      dup4\n        /* \"#utility.yul\":13953:13970   */\n      add\n        /* \"#utility.yul\":13944:13950   */\n      dup5\n        /* \"#utility.yul\":13900:13971   */\n      tag_462\n      jump\t// in\n    tag_497:\n        /* \"#utility.yul\":13756:13978   */\n      swap3\n      swap2\n      pop\n      pop\n      jump\t// out\n        /* \"#utility.yul\":13984:14113   */\n    tag_327:\n        /* \"#utility.yul\":14018:14024   */\n      0x00\n        /* \"#utility.yul\":14045:14065   */\n      tag_499\n      tag_500\n      jump\t// in\n    tag_499:\n        /* \"#utility.yul\":14035:14065   */\n      swap1\n      pop\n        /* \"#utility.yul\":14074:14107   */\n      tag_501\n        /* \"#utility.yul\":14102:14106   */\n      dup3\n        /* \"#utility.yul\":14094:14100   */\n      dup3\n        /* \"#utility.yul\":14074:14107   */\n      tag_502\n      jump\t// in\n    tag_501:\n        /* \"#utility.yul\":13984:14113   */\n      swap2\n      swap1\n      pop\n      jump\t// out\n        /* \"#utility.yul\":14119:14194   */\n    tag_500:\n        /* \"#utility.yul\":14152:14158   */\n      0x00\n        /* \"#utility.yul\":14185:14187   */\n      0x40\n        /* \"#utility.yul\":14179:14188   */\n      mload\n        /* \"#utility.yul\":14169:14188   */\n      swap1\n      pop\n        /* \"#utility.yul\":14119:14194   */\n      swap1\n      jump\t// out\n        /* \"#utility.yul\":14200:14508   */\n    tag_326:\n        /* \"#utility.yul\":14262:14266   */\n      0x00\n        /* \"#utility.yul\":14352:14370   */\n      0xffffffffffffffff\n        /* \"#utility.yul\":14344:14350   */\n      dup3\n        /* \"#utility.yul\":14341:14371   */\n      gt\n        /* \"#utility.yul\":14338:14394   */\n      iszero\n      tag_505\n      jumpi\n        /* \"#utility.yul\":14374:14392   */\n      tag_506\n      tag_507\n      jump\t// in\n    tag_506:\n        /* \"#utility.yul\":14338:14394   */\n    tag_505:\n        /* \"#utility.yul\":14412:14441   */\n      tag_508\n        /* \"#utility.yul\":14434:14440   */\n      dup3\n        /* \"#utility.yul\":14412:14441   */\n      tag_426\n      jump\t// in\n    tag_508:\n        /* \"#utility.yul\":14404:14441   */\n      swap1\n      pop\n        /* \"#utility.yul\":14496:14500   */\n      0x20\n        /* \"#utility.yul\":14490:14494   */\n      dup2\n        /* \"#utility.yul\":14486:14501   */\n      add\n        /* \"#utility.yul\":14478:14501   */\n      swap1\n      pop\n        /* \"#utility.yul\":14200:14508   */\n      swap2\n      swap1\n      pop\n      jump\t// out\n        /* \"#utility.yul\":14514:14656   */\n    tag_407:\n        /* \"#utility.yul\":14591:14595   */\n      0x00\n        /* \"#utility.yul\":14614:14617   */\n      dup2\n        /* \"#utility.yul\":14606:14617   */\n      swap1\n      pop\n        /* \"#utility.yul\":14644:14648   */\n      0x20\n        /* \"#utility.yul\":14639:14642   */\n      dup3\n        /* \"#utility.yul\":14635:14649   */\n      add\n        /* \"#utility.yul\":14627:14649   */\n      swap1\n      pop\n        /* \"#utility.yul\":14514:14656   */\n      swap2\n      swap1\n      pop\n      jump\t// out\n        /* \"#utility.yul\":14662:14803   */\n    tag_448:\n        /* \"#utility.yul\":14711:14715   */\n      0x00\n        /* \"#utility.yul\":14734:14737   */\n      dup2\n        /* \"#utility.yul\":14726:14737   */\n      swap1\n      pop\n        /* \"#utility.yul\":14757:14760   */\n      dup2\n        /* \"#utility.yul\":14754:14755   */\n      0x00\n        /* \"#utility.yul\":14747:14761   */\n      mstore\n        /* \"#utility.yul\":14791:14795   */\n      0x20\n        /* \"#utility.yul\":14788:14789   */\n      0x00\n        /* \"#utility.yul\":14778:14796   */\n      keccak256\n        /* \"#utility.yul\":14770:14796   */\n      swap1\n      pop\n        /* \"#utility.yul\":14662:14803   */\n      swap2\n      swap1\n      pop\n      jump\t// out\n        /* \"#utility.yul\":14809:14933   */\n    tag_403:\n        /* \"#utility.yul\":14886:14892   */\n      0x00\n        /* \"#utility.yul\":14920:14925   */\n      dup2\n        /* \"#utility.yul\":14914:14926   */\n      mload\n        /* \"#utility.yul\":14904:14926   */\n      swap1\n      pop\n        /* \"#utility.yul\":14809:14933   */\n      swap2\n      swap1\n      pop\n      jump\t// out\n        /* \"#utility.yul\":14939:15038   */\n    tag_420:\n        /* \"#utility.yul\":14991:14997   */\n      0x00\n        /* \"#utility.yul\":15025:15030   */\n      dup2\n        /* \"#utility.yul\":15019:15031   */\n      mload\n        /* \"#utility.yul\":15009:15031   */\n      swap1\n      pop\n        /* \"#utility.yul\":14939:15038   */\n      swap2\n      swap1\n      pop\n      jump\t// out\n        /* \"#utility.yul\":15044:15167   */\n    tag_413:\n        /* \"#utility.yul\":15124:15128   */\n      0x00\n        /* \"#utility.yul\":15156:15160   */\n      0x20\n        /* \"#utility.yul\":15151:15154   */\n      dup3\n        /* \"#utility.yul\":15147:15161   */\n      add\n        /* \"#utility.yul\":15139:15161   */\n      swap1\n      pop\n        /* \"#utility.yul\":15044:15167   */\n      swap2\n      swap1\n      pop\n      jump\t// out\n        /* \"#utility.yul\":15173:15367   */\n    tag_405:\n        /* \"#utility.yul\":15282:15293   */\n      0x00\n        /* \"#utility.yul\":15316:15322   */\n      dup3\n        /* \"#utility.yul\":15311:15314   */\n      dup3\n        /* \"#utility.yul\":15304:15323   */\n      mstore\n        /* \"#utility.yul\":15356:15360   */\n      0x20\n        /* \"#utility.yul\":15351:15354   */\n      dup3\n        /* \"#utility.yul\":15347:15361   */\n      add\n        /* \"#utility.yul\":15332:15361   */\n      swap1\n      pop\n        /* \"#utility.yul\":15173:15367   */\n      swap3\n      swap2\n      pop\n      pop\n      jump\t// out\n        /* \"#utility.yul\":15373:15532   */\n    tag_422:\n        /* \"#utility.yul\":15447:15458   */\n      0x00\n        /* \"#utility.yul\":15481:15487   */\n      dup3\n        /* \"#utility.yul\":15476:15479   */\n      dup3\n        /* \"#utility.yul\":15469:15488   */\n      mstore\n        /* \"#utility.yul\":15521:15525   */\n      0x20\n        /* \"#utility.yul\":15516:15519   */\n      dup3\n        /* \"#utility.yul\":15512:15526   */\n      add\n        /* \"#utility.yul\":15497:15526   */\n      swap1\n      pop\n        /* \"#utility.yul\":15373:15532   */\n      swap3\n      swap2\n      pop\n      pop\n      jump\t// out\n        /* \"#utility.yul\":15538:15707   */\n    tag_431:\n        /* \"#utility.yul\":15622:15633   */\n      0x00\n        /* \"#utility.yul\":15656:15662   */\n      dup3\n        /* \"#utility.yul\":15651:15654   */\n      dup3\n        /* \"#utility.yul\":15644:15663   */\n      mstore\n        /* \"#utility.yul\":15696:15700   */\n      0x20\n        /* \"#utility.yul\":15691:15694   */\n      dup3\n        /* \"#utility.yul\":15687:15701   */\n      add\n        /* \"#utility.yul\":15672:15701   */\n      swap1\n      pop\n        /* \"#utility.yul\":15538:15707   */\n      swap3\n      swap2\n      pop\n      pop\n      jump\t// out\n        /* \"#utility.yul\":15713:15861   */\n    tag_438:\n        /* \"#utility.yul\":15815:15826   */\n      0x00\n        /* \"#utility.yul\":15852:15855   */\n      dup2\n        /* \"#utility.yul\":15837:15855   */\n      swap1\n      pop\n        /* \"#utility.yul\":15713:15861   */\n      swap3\n      swap2\n      pop\n      pop\n      jump\t// out\n        /* \"#utility.yul\":15867:16172   */\n    tag_146:\n        /* \"#utility.yul\":15907:15910   */\n      0x00\n        /* \"#utility.yul\":15926:15946   */\n      tag_519\n        /* \"#utility.yul\":15944:15945   */\n      dup3\n        /* \"#utility.yul\":15926:15946   */\n      tag_465\n      jump\t// in\n    tag_519:\n        /* \"#utility.yul\":15921:15946   */\n      swap2\n      pop\n        /* \"#utility.yul\":15960:15980   */\n      tag_520\n        /* \"#utility.yul\":15978:15979   */\n      dup4\n        /* \"#utility.yul\":15960:15980   */\n      tag_465\n      jump\t// in\n    tag_520:\n        /* \"#utility.yul\":15955:15980   */\n      swap3\n      pop\n        /* \"#utility.yul\":16114:16115   */\n      dup3\n        /* \"#utility.yul\":16046:16112   */\n      0xffffffffffffffffffffffffffffffffffffffffffffffffffffffffffffffff\n        /* \"#utility.yul\":16042:16116   */\n      sub\n        /* \"#utility.yul\":16039:16040   */\n      dup3\n        /* \"#utility.yul\":16036:16117   */\n      gt\n        /* \"#utility.yul\":16033:16140   */\n      iszero\n      tag_521\n      jumpi\n        /* \"#utility.yul\":16120:16138   */\n      tag_522\n      tag_523\n      jump\t// in\n    tag_522:\n        /* \"#utility.yul\":16033:16140   */\n    tag_521:\n        /* \"#utility.yul\":16164:16165   */\n      dup3\n        /* \"#utility.yul\":16161:16162   */\n      dup3\n        /* \"#utility.yul\":16157:16166   */\n      add\n        /* \"#utility.yul\":16150:16166   */\n      swap1\n      pop\n        /* \"#utility.yul\":15867:16172   */\n      swap3\n      swap2\n      pop\n      pop\n      jump\t// out\n        /* \"#utility.yul\":16178:16369   */\n    tag_137:\n        /* \"#utility.yul\":16218:16222   */\n      0x00\n        /* \"#utility.yul\":16238:16258   */\n      tag_525\n        /* \"#utility.yul\":16256:16257   */\n      dup3\n        /* \"#utility.yul\":16238:16258   */\n      tag_465\n      jump\t// in\n    tag_525:\n        /* \"#utility.yul\":16233:16258   */\n      swap2\n      pop\n        /* \"#utility.yul\":16272:16292   */\n      tag_526\n        /* \"#utility.yul\":16290:16291   */\n      dup4\n        /* \"#utility.yul\":16272:16292   */\n      tag_465\n      jump\t// in\n    tag_526:\n        /* \"#utility.yul\":16267:16292   */\n      swap3\n      pop\n        /* \"#utility.yul\":16311:16312   */\n      dup3\n        /* \"#utility.yul\":16308:16309   */\n      dup3\n        /* \"#utility.yul\":16305:16313   */\n      lt\n        /* \"#utility.yul\":16302:16336   */\n      iszero\n      tag_527\n      jumpi\n        /* \"#utility.yul\":16316:16334   */\n      tag_528\n      tag_523\n      jump\t// in\n    tag_528:\n        /* \"#utility.yul\":16302:16336   */\n    tag_527:\n        /* \"#utility.yul\":16361:16362   */\n      dup3\n        /* \"#utility.yul\":16358:16359   */\n      dup3\n        /* \"#utility.yul\":16354:16363   */\n      sub\n        /* \"#utility.yul\":16346:16363   */\n      swap1\n      pop\n        /* \"#utility.yul\":16178:16369   */\n      swap3\n      swap2\n      pop\n      pop\n      jump\t// out\n        /* \"#utility.yul\":16375:16471   */\n    tag_399:\n        /* \"#utility.yul\":16412:16419   */\n      0x00\n        /* \"#utility.yul\":16441:16465   */\n      tag_530\n        /* \"#utility.yul\":16459:16464   */\n      dup3\n        /* \"#utility.yul\":16441:16465   */\n      tag_531\n      jump\t// in\n    tag_530:\n        /* \"#utility.yul\":16430:16465   */\n      swap1\n      pop\n        /* \"#utility.yul\":16375:16471   */\n      swap2\n      swap1\n      pop\n      jump\t// out\n        /* \"#utility.yul\":16477:16567   */\n    tag_417:\n        /* \"#utility.yul\":16511:16518   */\n      0x00\n        /* \"#utility.yul\":16554:16559   */\n      dup2\n        /* \"#utility.yul\":16547:16560   */\n      iszero\n        /* \"#utility.yul\":16540:16561   */\n      iszero\n        /* \"#utility.yul\":16529:16561   */\n      swap1\n      pop\n        /* \"#utility.yul\":16477:16567   */\n      swap2\n      swap1\n      pop\n      jump\t// out\n        /* \"#utility.yul\":16573:16699   */\n    tag_531:\n        /* \"#utility.yul\":16610:16617   */\n      0x00\n        /* \"#utility.yul\":16650:16692   */\n      0xffffffffffffffffffffffffffffffffffffffff\n        /* \"#utility.yul\":16643:16648   */\n      dup3\n        /* \"#utility.yul\":16639:16693   */\n      and\n        /* \"#utility.yul\":16628:16693   */\n      swap1\n      pop\n        /* \"#utility.yul\":16573:16699   */\n      swap2\n      swap1\n      pop\n      jump\t// out\n        /* \"#utility.yul\":16705:16782   */\n    tag_465:\n        /* \"#utility.yul\":16742:16749   */\n      0x00\n        /* \"#utility.yul\":16771:16776   */\n      dup2\n        /* \"#utility.yul\":16760:16776   */\n      swap1\n      pop\n        /* \"#utility.yul\":16705:16782   */\n      swap2\n      swap1\n      pop\n      jump\t// out\n        /* \"#utility.yul\":16788:16942   */\n    tag_332:\n        /* \"#utility.yul\":16872:16878   */\n      dup3\n        /* \"#utility.yul\":16867:16870   */\n      dup2\n        /* \"#utility.yul\":16862:16865   */\n      dup4\n        /* \"#utility.yul\":16849:16879   */\n      calldatacopy\n        /* \"#utility.yul\":16934:16935   */\n      0x00\n        /* \"#utility.yul\":16925:16931   */\n      dup4\n        /* \"#utility.yul\":16920:16923   */\n      dup4\n        /* \"#utility.yul\":16916:16932   */\n      add\n        /* \"#utility.yul\":16909:16936   */\n      mstore\n        /* \"#utility.yul\":16788:16942   */\n      pop\n      pop\n      pop\n      jump\t// out\n        /* \"#utility.yul\":16948:17255   */\n    tag_424:\n        /* \"#utility.yul\":17016:17017   */\n      0x00\n        /* \"#utility.yul\":17026:17139   */\n    tag_537:\n        /* \"#utility.yul\":17040:17046   */\n      dup4\n        /* \"#utility.yul\":17037:17038   */\n      dup2\n        /* \"#utility.yul\":17034:17047   */\n      lt\n        /* \"#utility.yul\":17026:17139   */\n      iszero\n      tag_539\n      jumpi\n        /* \"#utility.yul\":17125:17126   */\n      dup1\n        /* \"#utility.yul\":17120:17123   */\n      dup3\n        /* \"#utility.yul\":17116:17127   */\n      add\n        /* \"#utility.yul\":17110:17128   */\n      mload\n        /* \"#utility.yul\":17106:17107   */\n      dup2\n        /* \"#utility.yul\":17101:17104   */\n      dup5\n        /* \"#utility.yul\":17097:17108   */\n      add\n        /* \"#utility.yul\":17090:17129   */\n      mstore\n        /* \"#utility.yul\":17062:17064   */\n      0x20\n        /* \"#utility.yul\":17059:17060   */\n      dup2\n        /* \"#utility.yul\":17055:17065   */\n      add\n        /* \"#utility.yul\":17050:17065   */\n      swap1\n      pop\n        /* \"#utility.yul\":17026:17139   */\n      jump(tag_537)\n    tag_539:\n        /* \"#utility.yul\":17157:17163   */\n      dup4\n        /* \"#utility.yul\":17154:17155   */\n      dup2\n        /* \"#utility.yul\":17151:17164   */\n      gt\n        /* \"#utility.yul\":17148:17249   */\n      iszero\n      tag_540\n      jumpi\n        /* \"#utility.yul\":17237:17238   */\n      0x00\n        /* \"#utility.yul\":17228:17234   */\n      dup5\n        /* \"#utility.yul\":17223:17226   */\n      dup5\n        /* \"#utility.yul\":17219:17235   */\n      add\n        /* \"#utility.yul\":17212:17239   */\n      mstore\n        /* \"#utility.yul\":17148:17249   */\n    tag_540:\n        /* \"#utility.yul\":16997:17255   */\n      pop\n        /* \"#utility.yul\":16948:17255   */\n      pop\n      pop\n      pop\n      jump\t// out\n        /* \"#utility.yul\":17261:17581   */\n    tag_107:\n        /* \"#utility.yul\":17305:17311   */\n      0x00\n        /* \"#utility.yul\":17342:17343   */\n      0x02\n        /* \"#utility.yul\":17336:17340   */\n      dup3\n        /* \"#utility.yul\":17332:17344   */\n      div\n        /* \"#utility.yul\":17322:17344   */\n      swap1\n      pop\n        /* \"#utility.yul\":17389:17390   */\n      0x01\n        /* \"#utility.yul\":17383:17387   */\n      dup3\n        /* \"#utility.yul\":17379:17391   */\n      and\n        /* \"#utility.yul\":17410:17428   */\n      dup1\n        /* \"#utility.yul\":17400:17481   */\n      tag_542\n      jumpi\n        /* \"#utility.yul\":17466:17470   */\n      0x7f\n        /* \"#utility.yul\":17458:17464   */\n      dup3\n        /* \"#utility.yul\":17454:17471   */\n      and\n        /* \"#utility.yul\":17444:17471   */\n      swap2\n      pop\n        /* \"#utility.yul\":17400:17481   */\n    tag_542:\n        /* \"#utility.yul\":17528:17530   */\n      0x20\n        /* \"#utility.yul\":17520:17526   */\n      dup3\n        /* \"#utility.yul\":17517:17531   */\n      lt\n        /* \"#utility.yul\":17497:17515   */\n      dup2\n        /* \"#utility.yul\":17494:17532   */\n      eq\n        /* \"#utility.yul\":17491:17575   */\n      iszero\n      tag_543\n      jumpi\n        /* \"#utility.yul\":17547:17565   */\n      tag_544\n      tag_545\n      jump\t// in\n    tag_544:\n        /* \"#utility.yul\":17491:17575   */\n    tag_543:\n        /* \"#utility.yul\":17312:17581   */\n      pop\n        /* \"#utility.yul\":17261:17581   */\n      swap2\n      swap1\n      pop\n      jump\t// out\n        /* \"#utility.yul\":17587:17868   */\n    tag_502:\n        /* \"#utility.yul\":17670:17697   */\n      tag_547\n        /* \"#utility.yul\":17692:17696   */\n      dup3\n        /* \"#utility.yul\":17670:17697   */\n      tag_426\n      jump\t// in\n    tag_547:\n        /* \"#utility.yul\":17662:17668   */\n      dup2\n        /* \"#utility.yul\":17658:17698   */\n      add\n        /* \"#utility.yul\":17800:17806   */\n      dup2\n        /* \"#utility.yul\":17788:17798   */\n      dup2\n        /* \"#utility.yul\":17785:17807   */\n      lt\n        /* \"#utility.yul\":17764:17782   */\n      0xffffffffffffffff\n        /* \"#utility.yul\":17752:17762   */\n      dup3\n        /* \"#utility.yul\":17749:17783   */\n      gt\n        /* \"#utility.yul\":17746:17808   */\n      or\n        /* \"#utility.yul\":17743:17831   */\n      iszero\n      tag_548\n      jumpi\n        /* \"#utility.yul\":17811:17829   */\n      tag_549\n      tag_507\n      jump\t// in\n    tag_549:\n        /* \"#utility.yul\":17743:17831   */\n    tag_548:\n        /* \"#utility.yul\":17851:17861   */\n      dup1\n        /* \"#utility.yul\":17847:17849   */\n      0x40\n        /* \"#utility.yul\":17840:17862   */\n      mstore\n        /* \"#utility.yul\":17630:17868   */\n      pop\n        /* \"#utility.yul\":17587:17868   */\n      pop\n      pop\n      jump\t// out\n        /* \"#utility.yul\":17874:18107   */\n    tag_198:\n        /* \"#utility.yul\":17913:17916   */\n      0x00\n        /* \"#utility.yul\":17936:17960   */\n      tag_551\n        /* \"#utility.yul\":17954:17959   */\n      dup3\n        /* \"#utility.yul\":17936:17960   */\n      tag_465\n      jump\t// in\n    tag_551:\n        /* \"#utility.yul\":17927:17960   */\n      swap2\n      pop\n        /* \"#utility.yul\":17982:18048   */\n      0xffffffffffffffffffffffffffffffffffffffffffffffffffffffffffffffff\n        /* \"#utility.yul\":17975:17980   */\n      dup3\n        /* \"#utility.yul\":17972:18049   */\n      eq\n        /* \"#utility.yul\":17969:18072   */\n      iszero\n      tag_552\n      jumpi\n        /* \"#utility.yul\":18052:18070   */\n      tag_553\n      tag_523\n      jump\t// in\n    tag_553:\n        /* \"#utility.yul\":17969:18072   */\n    tag_552:\n        /* \"#utility.yul\":18099:18100   */\n      0x01\n        /* \"#utility.yul\":18092:18097   */\n      dup3\n        /* \"#utility.yul\":18088:18101   */\n      add\n        /* \"#utility.yul\":18081:18101   */\n      swap1\n      pop\n        /* \"#utility.yul\":17874:18107   */\n      swap2\n      swap1\n      pop\n      jump\t// out\n        /* \"#utility.yul\":18113:18293   */\n    tag_523:\n        /* \"#utility.yul\":18161:18238   */\n      0x4e487b7100000000000000000000000000000000000000000000000000000000\n        /* \"#utility.yul\":18158:18159   */\n      0x00\n        /* \"#utility.yul\":18151:18239   */\n      mstore\n        /* \"#utility.yul\":18258:18262   */\n      0x11\n        /* \"#utility.yul\":18255:18256   */\n      0x04\n        /* \"#utility.yul\":18248:18263   */\n      mstore\n        /* \"#utility.yul\":18282:18286   */\n      0x24\n        /* \"#utility.yul\":18279:18280   */\n      0x00\n        /* \"#utility.yul\":18272:18287   */\n      revert\n        /* \"#utility.yul\":18299:18479   */\n    tag_545:\n        /* \"#utility.yul\":18347:18424   */\n      0x4e487b7100000000000000000000000000000000000000000000000000000000\n        /* \"#utility.yul\":18344:18345   */\n      0x00\n        /* \"#utility.yul\":18337:18425   */\n      mstore\n        /* \"#utility.yul\":18444:18448   */\n      0x22\n        /* \"#utility.yul\":18441:18442   */\n      0x04\n        /* \"#utility.yul\":18434:18449   */\n      mstore\n        /* \"#utility.yul\":18468:18472   */\n      0x24\n        /* \"#utility.yul\":18465:18466   */\n      0x00\n        /* \"#utility.yul\":18458:18473   */\n      revert\n        /* \"#utility.yul\":18485:18665   */\n    tag_126:\n        /* \"#utility.yul\":18533:18610   */\n      0x4e487b7100000000000000000000000000000000000000000000000000000000\n        /* \"#utility.yul\":18530:18531   */\n      0x00\n        /* \"#utility.yul\":18523:18611   */\n      mstore\n        /* \"#utility.yul\":18630:18634   */\n      0x32\n        /* \"#utility.yul\":18627:18628   */\n      0x04\n        /* \"#utility.yul\":18620:18635   */\n      mstore\n        /* \"#utility.yul\":18654:18658   */\n      0x24\n        /* \"#utility.yul\":18651:18652   */\n      0x00\n        /* \"#utility.yul\":18644:18659   */\n      revert\n        /* \"#utility.yul\":18671:18851   */\n    tag_507:\n        /* \"#utility.yul\":18719:18796   */\n      0x4e487b7100000000000000000000000000000000000000000000000000000000\n        /* \"#utility.yul\":18716:18717   */\n      0x00\n        /* \"#utility.yul\":18709:18797   */\n      mstore\n        /* \"#utility.yul\":18816:18820   */\n      0x41\n        /* \"#utility.yul\":18813:18814   */\n      0x04\n        /* \"#utility.yul\":18806:18821   */\n      mstore\n        /* \"#utility.yul\":18840:18844   */\n      0x24\n        /* \"#utility.yul\":18837:18838   */\n      0x00\n        /* \"#utility.yul\":18830:18845   */\n      revert\n        /* \"#utility.yul\":18857:18974   */\n    tag_345:\n        /* \"#utility.yul\":18966:18967   */\n      0x00\n        /* \"#utility.yul\":18963:18964   */\n      dup1\n        /* \"#utility.yul\":18956:18968   */\n      revert\n        /* \"#utility.yul\":18980:19097   */\n    tag_330:\n        /* \"#utility.yul\":19089:19090   */\n      0x00\n        /* \"#utility.yul\":19086:19087   */\n      dup1\n        /* \"#utility.yul\":19079:19091   */\n      revert\n        /* \"#utility.yul\":19103:19220   */\n    tag_361:\n        /* \"#utility.yul\":19212:19213   */\n      0x00\n        /* \"#utility.yul\":19209:19210   */\n      dup1\n        /* \"#utility.yul\":19202:19214   */\n      revert\n        /* \"#utility.yul\":19226:19343   */\n    tag_354:\n        /* \"#utility.yul\":19335:19336   */\n      0x00\n        /* \"#utility.yul\":19332:19333   */\n      dup1\n        /* \"#utility.yul\":19325:19337   */\n      revert\n        /* \"#utility.yul\":19349:19451   */\n    tag_426:\n        /* \"#utility.yul\":19390:19396   */\n      0x00\n        /* \"#utility.yul\":19441:19443   */\n      0x1f\n        /* \"#utility.yul\":19437:19444   */\n      not\n        /* \"#utility.yul\":19432:19434   */\n      0x1f\n        /* \"#utility.yul\":19425:19430   */\n      dup4\n        /* \"#utility.yul\":19421:19435   */\n      add\n        /* \"#utility.yul\":19417:19445   */\n      and\n        /* \"#utility.yul\":19407:19445   */\n      swap1\n      pop\n        /* \"#utility.yul\":19349:19451   */\n      swap2\n      swap1\n      pop\n      jump\t// out\n        /* \"#utility.yul\":19457:19623   */\n    tag_456:\n        /* \"#utility.yul\":19597:19615   */\n      0x6572726f723a206e6f74206d6f6e657900000000000000000000000000000000\n        /* \"#utility.yul\":19593:19594   */\n      0x00\n        /* \"#utility.yul\":19585:19591   */\n      dup3\n        /* \"#utility.yul\":19581:19595   */\n      add\n        /* \"#utility.yul\":19574:19616   */\n      mstore\n        /* \"#utility.yul\":19457:19623   */\n      pop\n      jump\t// out\n        /* \"#utility.yul\":19629:19849   */\n    tag_461:\n        /* \"#utility.yul\":19769:19803   */\n      0x6572726f723a20726174696e672063616e2062652066726f6d203120746f2031\n        /* \"#utility.yul\":19765:19766   */\n      0x00\n        /* \"#utility.yul\":19757:19763   */\n      dup3\n        /* \"#utility.yul\":19753:19767   */\n      add\n        /* \"#utility.yul\":19746:19804   */\n      mstore\n        /* \"#utility.yul\":19838:19841   */\n      0x3000000000000000000000000000000000000000000000000000000000000000\n        /* \"#utility.yul\":19833:19835   */\n      0x20\n        /* \"#utility.yul\":19825:19831   */\n      dup3\n        /* \"#utility.yul\":19821:19836   */\n      add\n        /* \"#utility.yul\":19814:19842   */\n      mstore\n        /* \"#utility.yul\":19629:19849   */\n      pop\n      jump\t// out\n        /* \"#utility.yul\":19855:19977   */\n    tag_336:\n        /* \"#utility.yul\":19928:19952   */\n      tag_566\n        /* \"#utility.yul\":19946:19951   */\n      dup2\n        /* \"#utility.yul\":19928:19952   */\n      tag_399\n      jump\t// in\n    tag_566:\n        /* \"#utility.yul\":19921:19926   */\n      dup2\n        /* \"#utility.yul\":19918:19953   */\n      eq\n        /* \"#utility.yul\":19908:19971   */\n      tag_567\n      jumpi\n        /* \"#utility.yul\":19967:19968   */\n      0x00\n        /* \"#utility.yul\":19964:19965   */\n      dup1\n        /* \"#utility.yul\":19957:19969   */\n      revert\n        /* \"#utility.yul\":19908:19971   */\n    tag_567:\n        /* \"#utility.yul\":19855:19977   */\n      pop\n      jump\t// out\n        /* \"#utility.yul\":19983:20099   */\n    tag_340:\n        /* \"#utility.yul\":20053:20074   */\n      tag_569\n        /* \"#utility.yul\":20068:20073   */\n      dup2\n        /* \"#utility.yul\":20053:20074   */\n      tag_417\n      jump\t// in\n    tag_569:\n        /* \"#utility.yul\":20046:20051   */\n      dup2\n        /* \"#utility.yul\":20043:20075   */\n      eq\n        /* \"#utility.yul\":20033:20093   */\n      tag_570\n      jumpi\n        /* \"#utility.yul\":20089:20090   */\n      0x00\n        /* \"#utility.yul\":20086:20087   */\n      dup1\n        /* \"#utility.yul\":20079:20091   */\n      revert\n        /* \"#utility.yul\":20033:20093   */\n    tag_570:\n        /* \"#utility.yul\":19983:20099   */\n      pop\n      jump\t// out\n        /* \"#utility.yul\":20105:20227   */\n    tag_350:\n        /* \"#utility.yul\":20178:20202   */\n      tag_572\n        /* \"#utility.yul\":20196:20201   */\n      dup2\n        /* \"#utility.yul\":20178:20202   */\n      tag_465\n      jump\t// in\n    tag_572:\n        /* \"#utility.yul\":20171:20176   */\n      dup2\n        /* \"#utility.yul\":20168:20203   */\n      eq\n        /* \"#utility.yul\":20158:20221   */\n      tag_573\n      jumpi\n        /* \"#utility.yul\":20217:20218   */\n      0x00\n        /* \"#utility.yul\":20214:20215   */\n      dup1\n        /* \"#utility.yul\":20207:20219   */\n      revert\n        /* \"#utility.yul\":20158:20221   */\n    tag_573:\n        /* \"#utility.yul\":20105:20227   */\n      pop\n      jump\t// out\n\n    auxdata: 0xa2646970667358221220be9a73ee3a203f0dbe2215cc1d1f51d745c7cacd4ccb8711f750abb364230abb64736f6c63430008070033\n}\n",
				"bytecode": {
					"linkReferences": {},
					"object": "60806040526000600c556000600d553480156200001b57600080fd5b506040518060a001604052806040518060400160405280600481526020017f466f6f640000000000000000000000000000000000000000000000000000000081525081526020016040518060400160405280600181526020017f310000000000000000000000000000000000000000000000000000000000000081525081526020016040518060400160405280600681526020017f4d6f73636f77000000000000000000000000000000000000000000000000000081525081526020016103e881526020016000815250600080735b38da6a701c568545dcfcb03fcb875f56beddc473ffffffffffffffffffffffffffffffffffffffff1673ffffffffffffffffffffffffffffffffffffffff16815260200190815260200160002060008201518160000190805190602001906200015592919062000854565b5060208201518160010190805190602001906200017492919062000854565b5060408201518160020190805190602001906200019392919062000854565b5060608201518160030155608082015181600401559050506002600080735b38da6a701c568545dcfcb03fcb875f56beddc473ffffffffffffffffffffffffffffffffffffffff1673ffffffffffffffffffffffffffffffffffffffff168152602001908152602001600020600001908060018154018082558091505060019003906000526020600020016000909190919091509080546200023590620009e5565b62000242929190620008e5565b506040518060a001604052806040518060400160405280600781526020017f436c6f746865730000000000000000000000000000000000000000000000000081525081526020016040518060400160405280600181526020017f320000000000000000000000000000000000000000000000000000000000000081525081526020016040518060400160405280600a81526020017f506574657273627572670000000000000000000000000000000000000000000081525081526020016103e88152602001600081525060008073ab8483f64d9c6d1ecf9b849ae677dd3315835cb273ffffffffffffffffffffffffffffffffffffffff1673ffffffffffffffffffffffffffffffffffffffff16815260200190815260200160002060008201518160000190805190602001906200037c92919062000854565b5060208201518160010190805190602001906200039b92919062000854565b506040820151816002019080519060200190620003ba92919062000854565b506060820151816003015560808201518160040155905050600260008073ab8483f64d9c6d1ecf9b849ae677dd3315835cb273ffffffffffffffffffffffffffffffffffffffff1673ffffffffffffffffffffffffffffffffffffffff168152602001908152602001600020600001908060018154018082558091505060019003906000526020600020016000909190919091509080546200045c90620009e5565b62000469929190620008e5565b506040518060a001604052806040518060400160405280600981526020017f5065742053746f7265000000000000000000000000000000000000000000000081525081526020016040518060400160405280600181526020017f330000000000000000000000000000000000000000000000000000000000000081525081526020016040518060400160405280600c81526020017f456b61746572696e62757267000000000000000000000000000000000000000081525081526020016103e881526020016000815250600080734b20993bc481177ec7e8f571cecae8a9e22c02db73ffffffffffffffffffffffffffffffffffffffff1673ffffffffffffffffffffffffffffffffffffffff1681526020019081526020016000206000820151816000019080519060200190620005a392919062000854565b506020820151816001019080519060200190620005c292919062000854565b506040820151816002019080519060200190620005e192919062000854565b5060608201518160030155608082015181600401559050506002600080734b20993bc481177ec7e8f571cecae8a9e22c02db73ffffffffffffffffffffffffffffffffffffffff1673ffffffffffffffffffffffffffffffffffffffff168152602001908152602001600020600001908060018154018082558091505060019003906000526020600020016000909190919091509080546200068390620009e5565b62000690929190620008e5565b507378731d3ca6b7e34ac0f824c42a7cc18a495cabab6005604051620006b690620009c3565b908152602001604051809103902060006101000a81548173ffffffffffffffffffffffffffffffffffffffff021916908373ffffffffffffffffffffffffffffffffffffffff16021790555060405180606001604052806040518060400160405280600481526020017f50657461000000000000000000000000000000000000000000000000000000008152508152602001600181526020016103e8815250600460007378731d3ca6b7e34ac0f824c42a7cc18a495cabab73ffffffffffffffffffffffffffffffffffffffff1673ffffffffffffffffffffffffffffffffffffffff1681526020019081526020016000206000820151816000019080519060200190620007c692919062000854565b506020820151816001015560408201518160020155905050600680600181540180825580915050600190039060005260206000200160006040518060400160405280600481526020017f5065746100000000000000000000000000000000000000000000000000000000815250909190915090805190602001906200084d92919062000854565b5062000a73565b8280546200086290620009e5565b90600052602060002090601f016020900481019282620008865760008555620008d2565b82601f10620008a157805160ff1916838001178555620008d2565b82800160010185558215620008d2579182015b82811115620008d1578251825591602001919060010190620008b4565b5b509050620008e191906200097d565b5090565b828054620008f390620009e5565b90600052602060002090601f0160209004810192826200091757600085556200096a565b82601f106200092a57805485556200096a565b828001600101855582156200096a57600052602060002091601f016020900482015b82811115620009695782548255916001019190600101906200094c565b5b5090506200097991906200097d565b5090565b5b80821115620009985760008160009055506001016200097e565b5090565b6000620009ab600483620009da565b9150620009b88262000a4a565b600482019050919050565b6000620009d0826200099c565b9150819050919050565b600081905092915050565b60006002820490506001821680620009fe57607f821691505b6020821081141562000a155762000a1462000a1b565b5b50919050565b7f4e487b7100000000000000000000000000000000000000000000000000000000600052602260045260246000fd5b7f5065746100000000000000000000000000000000000000000000000000000000600082015250565b6127548062000a836000396000f3fe608060405234801561001057600080fd5b50600436106101215760003560e01c8063961865f0116100ad578063c4957fa011610071578063c4957fa014610333578063cc21c18814610363578063d68cf8c11461037f578063dce39151146103b2578063f69483c1146103e457610121565b8063961865f014610265578063a985036d14610297578063a9f9482b146102c7578063bbd43363146102f9578063c178b9af1461031557610121565b80632ccdef7c116100f45780632ccdef7c146101c15780632d4673e3146101dd57806334d2c0ad146101f95780636c05dd1d146102175780637ddb273d1461023357610121565b806308f4d2c6146101265780630c72b1ec14610159578063146dc6ed146101755780631bbe970a14610191575b600080fd5b610140600480360381019061013b9190611e71565b610400565b60405161015094939291906121f1565b60405180910390f35b610173600480360381019061016e9190611e9e565b6105d8565b005b61018f600480360381019061018a9190611d12565b6108a5565b005b6101ab60048036038101906101a69190611d12565b610a33565b6040516101b8919061212a565b60405180910390f35b6101db60048036038101906101d69190611e9e565b610a7c565b005b6101f760048036038101906101f29190611d12565b610c72565b005b610201610d5a565b60405161020e91906121cf565b60405180910390f35b610231600480360381019061022c9190611de6565b610e33565b005b61024d60048036038101906102489190611e71565b610f5e565b60405161025c93929190612145565b60405180910390f35b61027f600480360381019061027a9190611ce5565b61104d565b60405161028e9392919061224b565b60405180910390f35b6102b160048036038101906102ac9190611d12565b6110ff565b6040516102be91906122c9565b60405180910390f35b6102e160048036038101906102dc9190611e71565b611209565b6040516102f093929190612145565b60405180910390f35b610313600480360381019061030e9190611d12565b6112f8565b005b61031d6113e0565b60405161032a91906121cf565b60405180910390f35b61034d60048036038101906103489190611d12565b6114b9565b60405161035a919061212a565b60405180910390f35b61037d60048036038101906103789190611d5b565b611502565b005b61039960048036038101906103949190611d12565b6116fc565b6040516103a99493929190612183565b60405180910390f35b6103cc60048036038101906103c79190611e71565b6117ea565b6040516103db93929190612145565b60405180910390f35b6103fe60048036038101906103f99190611e9e565b6118d9565b005b6003818154811061041057600080fd5b9060005260206000209060050201600091509050806000018054610433906124d4565b80601f016020809104026020016040519081016040528092919081815260200182805461045f906124d4565b80156104ac5780601f10610481576101008083540402835291602001916104ac565b820191906000526020600020905b81548152906001019060200180831161048f57829003601f168201915b5050505050908060010180546104c1906124d4565b80601f01602080910402602001604051908101604052809291908181526020018280546104ed906124d4565b801561053a5780601f1061050f5761010080835404028352916020019161053a565b820191906000526020600020905b81548152906001019060200180831161051d57829003601f168201915b50505050509080600201805461054f906124d4565b80601f016020809104026020016040519081016040528092919081815260200182805461057b906124d4565b80156105c85780601f1061059d576101008083540402835291602001916105c8565b820191906000526020600020905b8154815290600101906020018083116105ab57829003601f168201915b5050505050908060030154905084565b600115158115151415610862576000600983815481106105fb576105fa6125de565b5b906000526020600020906003020160020160006101000a81548160ff021916908315150217905550600760098381548110610639576106386125de565b5b90600052602060002090600302016001016040516106579190612113565b9081526020016040518091039020600201546004600060098581548110610681576106806125de565b5b906000526020600020906003020160000160009054906101000a900473ffffffffffffffffffffffffffffffffffffffff1673ffffffffffffffffffffffffffffffffffffffff1673ffffffffffffffffffffffffffffffffffffffff168152602001908152602001600020600201546106fb9190612416565b6004600060098581548110610713576107126125de565b5b906000526020600020906003020160000160009054906101000a900473ffffffffffffffffffffffffffffffffffffffff1673ffffffffffffffffffffffffffffffffffffffff1673ffffffffffffffffffffffffffffffffffffffff1681526020019081526020016000206002018190555060076009838154811061079c5761079b6125de565b5b90600052602060002090600302016001016040516107ba9190612113565b9081526020016040518091039020600201546000803373ffffffffffffffffffffffffffffffffffffffff1673ffffffffffffffffffffffffffffffffffffffff1681526020019081526020016000206003015461081891906123c0565b6000803373ffffffffffffffffffffffffffffffffffffffff1673ffffffffffffffffffffffffffffffffffffffff168152602001908152602001600020600301819055506108a1565b600060098381548110610878576108776125de565b5b906000526020600020906003020160020160006101000a81548160ff0219169083151502179055505b5050565b6007816040516108b591906120fc565b908152602001604051809103902060020154600460003373ffffffffffffffffffffffffffffffffffffffff1673ffffffffffffffffffffffffffffffffffffffff16815260200190815260200160002060020154101561094b576040517f08c379a000000000000000000000000000000000000000000000000000000000815260040161094290612289565b60405180910390fd5b600960405180606001604052803373ffffffffffffffffffffffffffffffffffffffff16815260200183815260200160011515815250908060018154018082558091505060019003906000526020600020906003020160009091909190915060008201518160000160006101000a81548173ffffffffffffffffffffffffffffffffffffffff021916908373ffffffffffffffffffffffffffffffffffffffff1602179055506020820151816001019080519060200190610a0d929190611acf565b5060408201518160020160006101000a81548160ff021916908315150217905550505050565b6005818051602081018201805184825260208301602085012081835280955050505050506000915054906101000a900473ffffffffffffffffffffffffffffffffffffffff1681565b600115158115151415610c2f576000600a8381548110610a9f57610a9e6125de565b5b906000526020600020906003020160020160006101000a81548160ff0219169083151502179055506007600a8381548110610add57610adc6125de565b5b9060005260206000209060030201600101604051610afb9190612113565b90815260200160405180910390206002015460046000600a8581548110610b2557610b246125de565b5b906000526020600020906003020160000160009054906101000a900473ffffffffffffffffffffffffffffffffffffffff1673ffffffffffffffffffffffffffffffffffffffff1673ffffffffffffffffffffffffffffffffffffffff16815260200190815260200160002060020154610b9f91906123c0565b60046000600a8581548110610bb757610bb66125de565b5b906000526020600020906003020160000160009054906101000a900473ffffffffffffffffffffffffffffffffffffffff1673ffffffffffffffffffffffffffffffffffffffff1673ffffffffffffffffffffffffffffffffffffffff16815260200190815260200160002060020181905550610c6e565b6000600a8381548110610c4557610c446125de565b5b906000526020600020906003020160020160006101000a81548160ff0219169083151502179055505b5050565b600b60405180606001604052803373ffffffffffffffffffffffffffffffffffffffff16815260200183815260200160011515815250908060018154018082558091505060019003906000526020600020906003020160009091909190915060008201518160000160006101000a81548173ffffffffffffffffffffffffffffffffffffffff021916908373ffffffffffffffffffffffffffffffffffffffff1602179055506020820151816001019080519060200190610d34929190611acf565b5060408201518160020160006101000a81548160ff021916908315150217905550505050565b60606008805480602002602001604051908101604052809291908181526020016000905b82821015610e2a578382906000526020600020018054610d9d906124d4565b80601f0160208091040260200160405190810160405280929190818152602001828054610dc9906124d4565b8015610e165780601f10610deb57610100808354040283529160200191610e16565b820191906000526020600020905b815481529060010190602001808311610df957829003601f168201915b505050505081526020019060010190610d7e565b50505050905090565b60405180608001604052803373ffffffffffffffffffffffffffffffffffffffff168152602001828152602001838152602001600c54815250600784604051610e7c91906120fc565b908152602001604051809103902060008201518160000160006101000a81548173ffffffffffffffffffffffffffffffffffffffff021916908373ffffffffffffffffffffffffffffffffffffffff1602179055506020820151816001019080519060200190610eed929190611acf565b506040820151816002015560608201518160030155905050600883908060018154018082558091505060019003906000526020600020016000909190919091509080519060200190610f40929190611acf565b50600c6000815480929190610f5490612537565b9190505550505050565b600b8181548110610f6e57600080fd5b90600052602060002090600302016000915090508060000160009054906101000a900473ffffffffffffffffffffffffffffffffffffffff1690806001018054610fb7906124d4565b80601f0160208091040260200160405190810160405280929190818152602001828054610fe3906124d4565b80156110305780601f1061100557610100808354040283529160200191611030565b820191906000526020600020905b81548152906001019060200180831161101357829003601f168201915b5050505050908060020160009054906101000a900460ff16905083565b6004602052806000526040600020600091509050806000018054611070906124d4565b80601f016020809104026020016040519081016040528092919081815260200182805461109c906124d4565b80156110e95780601f106110be576101008083540402835291602001916110e9565b820191906000526020600020905b8154815290600101906020018083116110cc57829003601f168201915b5050505050908060010154908060020154905083565b600080600090506000600380549050905060005b6002805490508110156111df57600060028281548110611136576111356125de565b5b90600052602060002001805461114b906124d4565b80601f0160208091040260200160405190810160405280929190818152602001828054611177906124d4565b80156111c45780601f10611199576101008083540402835291602001916111c4565b820191906000526020600020905b8154815290600101906020018083116111a757829003601f168201915b505050505090505080806111d790612537565b915050611113565b5060005b818110156111fe5780806111f690612537565b9150506111e3565b508192505050919050565b600a818154811061121957600080fd5b90600052602060002090600302016000915090508060000160009054906101000a900473ffffffffffffffffffffffffffffffffffffffff1690806001018054611262906124d4565b80601f016020809104026020016040519081016040528092919081815260200182805461128e906124d4565b80156112db5780601f106112b0576101008083540402835291602001916112db565b820191906000526020600020905b8154815290600101906020018083116112be57829003601f168201915b5050505050908060020160009054906101000a900460ff16905083565b600a60405180606001604052803373ffffffffffffffffffffffffffffffffffffffff16815260200183815260200160011515815250908060018154018082558091505060019003906000526020600020906003020160009091909190915060008201518160000160006101000a81548173ffffffffffffffffffffffffffffffffffffffff021916908373ffffffffffffffffffffffffffffffffffffffff16021790555060208201518160010190805190602001906113ba929190611acf565b5060408201518160020160006101000a81548160ff021916908315150217905550505050565b60606002805480602002602001604051908101604052809291908181526020016000905b828210156114b0578382906000526020600020018054611423906124d4565b80601f016020809104026020016040519081016040528092919081815260200182805461144f906124d4565b801561149c5780601f106114715761010080835404028352916020019161149c565b820191906000526020600020905b81548152906001019060200180831161147f57829003601f168201915b505050505081526020019060010190611404565b50505050905090565b6001818051602081018201805184825260208301602085012081835280955050505050506000915054906101000a900473ffffffffffffffffffffffffffffffffffffffff1681565b600a811115611546576040517f08c379a000000000000000000000000000000000000000000000000000000000815260040161153d906122a9565b60405180910390fd5b60606040518060a00160405280858152602001600460003373ffffffffffffffffffffffffffffffffffffffff1673ffffffffffffffffffffffffffffffffffffffff16815260200190815260200160002060000180546115a6906124d4565b80601f01602080910402602001604051908101604052809291908181526020018280546115d2906124d4565b801561161f5780601f106115f45761010080835404028352916020019161161f565b820191906000526020600020905b81548152906001019060200180831161160257829003601f168201915b50505050508152602001848152602001838152602001828152506003600d548154811061164f5761164e6125de565b5b90600052602060002090600502016000820151816000019080519060200190611679929190611acf565b506020820151816001019080519060200190611696929190611acf565b5060408201518160020190805190602001906116b3929190611acf565b506060820151816003015560808201518160040190805190602001906116da929190611b55565b50905050600d60008154809291906116f190612537565b919050555050505050565b6007818051602081018201805184825260208301602085012081835280955050505050506000915090508060000160009054906101000a900473ffffffffffffffffffffffffffffffffffffffff169080600101805461175b906124d4565b80601f0160208091040260200160405190810160405280929190818152602001828054611787906124d4565b80156117d45780601f106117a9576101008083540402835291602001916117d4565b820191906000526020600020905b8154815290600101906020018083116117b757829003601f168201915b5050505050908060020154908060030154905084565b600981815481106117fa57600080fd5b90600052602060002090600302016000915090508060000160009054906101000a900473ffffffffffffffffffffffffffffffffffffffff1690806001018054611843906124d4565b80601f016020809104026020016040519081016040528092919081815260200182805461186f906124d4565b80156118bc5780601f10611891576101008083540402835291602001916118bc565b820191906000526020600020905b81548152906001019060200180831161189f57829003601f168201915b5050505050908060020160009054906101000a900460ff16905083565b600115158115151415611a8c576000600a83815481106118fc576118fb6125de565b5b906000526020600020906003020160020160006101000a81548160ff0219169083151502179055506007600b838154811061193a576119396125de565b5b90600052602060002090600302016001016040516119589190612113565b90815260200160405180910390206002015460046000600b8581548110611982576119816125de565b5b906000526020600020906003020160000160009054906101000a900473ffffffffffffffffffffffffffffffffffffffff1673ffffffffffffffffffffffffffffffffffffffff1673ffffffffffffffffffffffffffffffffffffffff168152602001908152602001600020600201546119fc91906123c0565b60046000600b8581548110611a1457611a136125de565b5b906000526020600020906003020160000160009054906101000a900473ffffffffffffffffffffffffffffffffffffffff1673ffffffffffffffffffffffffffffffffffffffff1673ffffffffffffffffffffffffffffffffffffffff16815260200190815260200160002060020181905550611acb565b6000600a8381548110611aa257611aa16125de565b5b906000526020600020906003020160020160006101000a81548160ff0219169083151502179055505b5050565b828054611adb906124d4565b90600052602060002090601f016020900481019282611afd5760008555611b44565b82601f10611b1657805160ff1916838001178555611b44565b82800160010185558215611b44579182015b82811115611b43578251825591602001919060010190611b28565b5b509050611b519190611bb5565b5090565b828054828255906000526020600020908101928215611ba4579160200282015b82811115611ba3578251829080519060200190611b93929190611acf565b5091602001919060010190611b75565b5b509050611bb19190611bd2565b5090565b5b80821115611bce576000816000905550600101611bb6565b5090565b5b80821115611bf25760008181611be99190611bf6565b50600101611bd3565b5090565b508054611c02906124d4565b6000825580601f10611c145750611c33565b601f016020900490600052602060002090810190611c329190611bb5565b5b50565b6000611c49611c4484612309565b6122e4565b905082815260208101848484011115611c6557611c64612641565b5b611c70848285612492565b509392505050565b600081359050611c87816126d9565b92915050565b600081359050611c9c816126f0565b92915050565b600082601f830112611cb757611cb661263c565b5b8135611cc7848260208601611c36565b91505092915050565b600081359050611cdf81612707565b92915050565b600060208284031215611cfb57611cfa61264b565b5b6000611d0984828501611c78565b91505092915050565b600060208284031215611d2857611d2761264b565b5b600082013567ffffffffffffffff811115611d4657611d45612646565b5b611d5284828501611ca2565b91505092915050565b600080600060608486031215611d7457611d7361264b565b5b600084013567ffffffffffffffff811115611d9257611d91612646565b5b611d9e86828701611ca2565b935050602084013567ffffffffffffffff811115611dbf57611dbe612646565b5b611dcb86828701611ca2565b9250506040611ddc86828701611cd0565b9150509250925092565b600080600060608486031215611dff57611dfe61264b565b5b600084013567ffffffffffffffff811115611e1d57611e1c612646565b5b611e2986828701611ca2565b9350506020611e3a86828701611cd0565b925050604084013567ffffffffffffffff811115611e5b57611e5a612646565b5b611e6786828701611ca2565b9150509250925092565b600060208284031215611e8757611e8661264b565b5b6000611e9584828501611cd0565b91505092915050565b60008060408385031215611eb557611eb461264b565b5b6000611ec385828601611cd0565b9250506020611ed485828601611c8d565b9150509250929050565b6000611eea8383611f85565b905092915050565b611efb8161244a565b82525050565b6000611f0c8261235f565b611f168185612382565b935083602082028501611f288561233a565b8060005b85811015611f645784840389528151611f458582611ede565b9450611f5083612375565b925060208a01995050600181019050611f2c565b50829750879550505050505092915050565b611f7f8161245c565b82525050565b6000611f908261236a565b611f9a8185612393565b9350611faa8185602086016124a1565b611fb381612650565b840191505092915050565b6000611fc98261236a565b611fd381856123a4565b9350611fe38185602086016124a1565b611fec81612650565b840191505092915050565b60006120028261236a565b61200c81856123b5565b935061201c8185602086016124a1565b80840191505092915050565b60008154612035816124d4565b61203f81866123b5565b9450600182166000811461205a576001811461206b5761209e565b60ff1983168652818601935061209e565b6120748561234a565b60005b8381101561209657815481890152600182019150602081019050612077565b838801955050505b50505092915050565b60006120b46010836123a4565b91506120bf82612661565b602082019050919050565b60006120d76021836123a4565b91506120e28261268a565b604082019050919050565b6120f681612488565b82525050565b60006121088284611ff7565b915081905092915050565b600061211f8284612028565b915081905092915050565b600060208201905061213f6000830184611ef2565b92915050565b600060608201905061215a6000830186611ef2565b818103602083015261216c8185611fbe565b905061217b6040830184611f76565b949350505050565b60006080820190506121986000830187611ef2565b81810360208301526121aa8186611fbe565b90506121b960408301856120ed565b6121c660608301846120ed565b95945050505050565b600060208201905081810360008301526121e98184611f01565b905092915050565b6000608082019050818103600083015261220b8187611fbe565b9050818103602083015261221f8186611fbe565b905081810360408301526122338185611fbe565b905061224260608301846120ed565b95945050505050565b600060608201905081810360008301526122658186611fbe565b905061227460208301856120ed565b61228160408301846120ed565b949350505050565b600060208201905081810360008301526122a2816120a7565b9050919050565b600060208201905081810360008301526122c2816120ca565b9050919050565b60006020820190506122de60008301846120ed565b92915050565b60006122ee6122ff565b90506122fa8282612506565b919050565b6000604051905090565b600067ffffffffffffffff8211156123245761232361260d565b5b61232d82612650565b9050602081019050919050565b6000819050602082019050919050565b60008190508160005260206000209050919050565b600081519050919050565b600081519050919050565b6000602082019050919050565b600082825260208201905092915050565b600082825260208201905092915050565b600082825260208201905092915050565b600081905092915050565b60006123cb82612488565b91506123d683612488565b9250827fffffffffffffffffffffffffffffffffffffffffffffffffffffffffffffffff0382111561240b5761240a612580565b5b828201905092915050565b600061242182612488565b915061242c83612488565b92508282101561243f5761243e612580565b5b828203905092915050565b600061245582612468565b9050919050565b60008115159050919050565b600073ffffffffffffffffffffffffffffffffffffffff82169050919050565b6000819050919050565b82818337600083830152505050565b60005b838110156124bf5780820151818401526020810190506124a4565b838111156124ce576000848401525b50505050565b600060028204905060018216806124ec57607f821691505b60208210811415612500576124ff6125af565b5b50919050565b61250f82612650565b810181811067ffffffffffffffff8211171561252e5761252d61260d565b5b80604052505050565b600061254282612488565b91507fffffffffffffffffffffffffffffffffffffffffffffffffffffffffffffffff82141561257557612574612580565b5b600182019050919050565b7f4e487b7100000000000000000000000000000000000000000000000000000000600052601160045260246000fd5b7f4e487b7100000000000000000000000000000000000000000000000000000000600052602260045260246000fd5b7f4e487b7100000000000000000000000000000000000000000000000000000000600052603260045260246000fd5b7f4e487b7100000000000000000000000000000000000000000000000000000000600052604160045260246000fd5b600080fd5b600080fd5b600080fd5b600080fd5b6000601f19601f8301169050919050565b7f6572726f723a206e6f74206d6f6e657900000000000000000000000000000000600082015250565b7f6572726f723a20726174696e672063616e2062652066726f6d203120746f203160008201527f3000000000000000000000000000000000000000000000000000000000000000602082015250565b6126e28161244a565b81146126ed57600080fd5b50565b6126f98161245c565b811461270457600080fd5b50565b61271081612488565b811461271b57600080fd5b5056fea2646970667358221220be9a73ee3a203f0dbe2215cc1d1f51d745c7cacd4ccb8711f750abb364230abb64736f6c63430008070033",
					"opcodes": "PUSH1 0x80 PUSH1 0x40 MSTORE PUSH1 0x0 PUSH1 0xC SSTORE PUSH1 0x0 PUSH1 0xD SSTORE CALLVALUE DUP1 ISZERO PUSH3 0x1B JUMPI PUSH1 0x0 DUP1 REVERT JUMPDEST POP PUSH1 0x40 MLOAD DUP1 PUSH1 0xA0 ADD PUSH1 0x40 MSTORE DUP1 PUSH1 0x40 MLOAD DUP1 PUSH1 0x40 ADD PUSH1 0x40 MSTORE DUP1 PUSH1 0x4 DUP2 MSTORE PUSH1 0x20 ADD PUSH32 0x466F6F6400000000000000000000000000000000000000000000000000000000 DUP2 MSTORE POP DUP2 MSTORE PUSH1 0x20 ADD PUSH1 0x40 MLOAD DUP1 PUSH1 0x40 ADD PUSH1 0x40 MSTORE DUP1 PUSH1 0x1 DUP2 MSTORE PUSH1 0x20 ADD PUSH32 0x3100000000000000000000000000000000000000000000000000000000000000 DUP2 MSTORE POP DUP2 MSTORE PUSH1 0x20 ADD PUSH1 0x40 MLOAD DUP1 PUSH1 0x40 ADD PUSH1 0x40 MSTORE DUP1 PUSH1 0x6 DUP2 MSTORE PUSH1 0x20 ADD PUSH32 0x4D6F73636F770000000000000000000000000000000000000000000000000000 DUP2 MSTORE POP DUP2 MSTORE PUSH1 0x20 ADD PUSH2 0x3E8 DUP2 MSTORE PUSH1 0x20 ADD PUSH1 0x0 DUP2 MSTORE POP PUSH1 0x0 DUP1 PUSH20 0x5B38DA6A701C568545DCFCB03FCB875F56BEDDC4 PUSH20 0xFFFFFFFFFFFFFFFFFFFFFFFFFFFFFFFFFFFFFFFF AND PUSH20 0xFFFFFFFFFFFFFFFFFFFFFFFFFFFFFFFFFFFFFFFF AND DUP2 MSTORE PUSH1 0x20 ADD SWAP1 DUP2 MSTORE PUSH1 0x20 ADD PUSH1 0x0 KECCAK256 PUSH1 0x0 DUP3 ADD MLOAD DUP2 PUSH1 0x0 ADD SWAP1 DUP1 MLOAD SWAP1 PUSH1 0x20 ADD SWAP1 PUSH3 0x155 SWAP3 SWAP2 SWAP1 PUSH3 0x854 JUMP JUMPDEST POP PUSH1 0x20 DUP3 ADD MLOAD DUP2 PUSH1 0x1 ADD SWAP1 DUP1 MLOAD SWAP1 PUSH1 0x20 ADD SWAP1 PUSH3 0x174 SWAP3 SWAP2 SWAP1 PUSH3 0x854 JUMP JUMPDEST POP PUSH1 0x40 DUP3 ADD MLOAD DUP2 PUSH1 0x2 ADD SWAP1 DUP1 MLOAD SWAP1 PUSH1 0x20 ADD SWAP1 PUSH3 0x193 SWAP3 SWAP2 SWAP1 PUSH3 0x854 JUMP JUMPDEST POP PUSH1 0x60 DUP3 ADD MLOAD DUP2 PUSH1 0x3 ADD SSTORE PUSH1 0x80 DUP3 ADD MLOAD DUP2 PUSH1 0x4 ADD SSTORE SWAP1 POP POP PUSH1 0x2 PUSH1 0x0 DUP1 PUSH20 0x5B38DA6A701C568545DCFCB03FCB875F56BEDDC4 PUSH20 0xFFFFFFFFFFFFFFFFFFFFFFFFFFFFFFFFFFFFFFFF AND PUSH20 0xFFFFFFFFFFFFFFFFFFFFFFFFFFFFFFFFFFFFFFFF AND DUP2 MSTORE PUSH1 0x20 ADD SWAP1 DUP2 MSTORE PUSH1 0x20 ADD PUSH1 0x0 KECCAK256 PUSH1 0x0 ADD SWAP1 DUP1 PUSH1 0x1 DUP2 SLOAD ADD DUP1 DUP3 SSTORE DUP1 SWAP2 POP POP PUSH1 0x1 SWAP1 SUB SWAP1 PUSH1 0x0 MSTORE PUSH1 0x20 PUSH1 0x0 KECCAK256 ADD PUSH1 0x0 SWAP1 SWAP2 SWAP1 SWAP2 SWAP1 SWAP2 POP SWAP1 DUP1 SLOAD PUSH3 0x235 SWAP1 PUSH3 0x9E5 JUMP JUMPDEST PUSH3 0x242 SWAP3 SWAP2 SWAP1 PUSH3 0x8E5 JUMP JUMPDEST POP PUSH1 0x40 MLOAD DUP1 PUSH1 0xA0 ADD PUSH1 0x40 MSTORE DUP1 PUSH1 0x40 MLOAD DUP1 PUSH1 0x40 ADD PUSH1 0x40 MSTORE DUP1 PUSH1 0x7 DUP2 MSTORE PUSH1 0x20 ADD PUSH32 0x436C6F7468657300000000000000000000000000000000000000000000000000 DUP2 MSTORE POP DUP2 MSTORE PUSH1 0x20 ADD PUSH1 0x40 MLOAD DUP1 PUSH1 0x40 ADD PUSH1 0x40 MSTORE DUP1 PUSH1 0x1 DUP2 MSTORE PUSH1 0x20 ADD PUSH32 0x3200000000000000000000000000000000000000000000000000000000000000 DUP2 MSTORE POP DUP2 MSTORE PUSH1 0x20 ADD PUSH1 0x40 MLOAD DUP1 PUSH1 0x40 ADD PUSH1 0x40 MSTORE DUP1 PUSH1 0xA DUP2 MSTORE PUSH1 0x20 ADD PUSH32 0x5065746572736275726700000000000000000000000000000000000000000000 DUP2 MSTORE POP DUP2 MSTORE PUSH1 0x20 ADD PUSH2 0x3E8 DUP2 MSTORE PUSH1 0x20 ADD PUSH1 0x0 DUP2 MSTORE POP PUSH1 0x0 DUP1 PUSH20 0xAB8483F64D9C6D1ECF9B849AE677DD3315835CB2 PUSH20 0xFFFFFFFFFFFFFFFFFFFFFFFFFFFFFFFFFFFFFFFF AND PUSH20 0xFFFFFFFFFFFFFFFFFFFFFFFFFFFFFFFFFFFFFFFF AND DUP2 MSTORE PUSH1 0x20 ADD SWAP1 DUP2 MSTORE PUSH1 0x20 ADD PUSH1 0x0 KECCAK256 PUSH1 0x0 DUP3 ADD MLOAD DUP2 PUSH1 0x0 ADD SWAP1 DUP1 MLOAD SWAP1 PUSH1 0x20 ADD SWAP1 PUSH3 0x37C SWAP3 SWAP2 SWAP1 PUSH3 0x854 JUMP JUMPDEST POP PUSH1 0x20 DUP3 ADD MLOAD DUP2 PUSH1 0x1 ADD SWAP1 DUP1 MLOAD SWAP1 PUSH1 0x20 ADD SWAP1 PUSH3 0x39B SWAP3 SWAP2 SWAP1 PUSH3 0x854 JUMP JUMPDEST POP PUSH1 0x40 DUP3 ADD MLOAD DUP2 PUSH1 0x2 ADD SWAP1 DUP1 MLOAD SWAP1 PUSH1 0x20 ADD SWAP1 PUSH3 0x3BA SWAP3 SWAP2 SWAP1 PUSH3 0x854 JUMP JUMPDEST POP PUSH1 0x60 DUP3 ADD MLOAD DUP2 PUSH1 0x3 ADD SSTORE PUSH1 0x80 DUP3 ADD MLOAD DUP2 PUSH1 0x4 ADD SSTORE SWAP1 POP POP PUSH1 0x2 PUSH1 0x0 DUP1 PUSH20 0xAB8483F64D9C6D1ECF9B849AE677DD3315835CB2 PUSH20 0xFFFFFFFFFFFFFFFFFFFFFFFFFFFFFFFFFFFFFFFF AND PUSH20 0xFFFFFFFFFFFFFFFFFFFFFFFFFFFFFFFFFFFFFFFF AND DUP2 MSTORE PUSH1 0x20 ADD SWAP1 DUP2 MSTORE PUSH1 0x20 ADD PUSH1 0x0 KECCAK256 PUSH1 0x0 ADD SWAP1 DUP1 PUSH1 0x1 DUP2 SLOAD ADD DUP1 DUP3 SSTORE DUP1 SWAP2 POP POP PUSH1 0x1 SWAP1 SUB SWAP1 PUSH1 0x0 MSTORE PUSH1 0x20 PUSH1 0x0 KECCAK256 ADD PUSH1 0x0 SWAP1 SWAP2 SWAP1 SWAP2 SWAP1 SWAP2 POP SWAP1 DUP1 SLOAD PUSH3 0x45C SWAP1 PUSH3 0x9E5 JUMP JUMPDEST PUSH3 0x469 SWAP3 SWAP2 SWAP1 PUSH3 0x8E5 JUMP JUMPDEST POP PUSH1 0x40 MLOAD DUP1 PUSH1 0xA0 ADD PUSH1 0x40 MSTORE DUP1 PUSH1 0x40 MLOAD DUP1 PUSH1 0x40 ADD PUSH1 0x40 MSTORE DUP1 PUSH1 0x9 DUP2 MSTORE PUSH1 0x20 ADD PUSH32 0x5065742053746F72650000000000000000000000000000000000000000000000 DUP2 MSTORE POP DUP2 MSTORE PUSH1 0x20 ADD PUSH1 0x40 MLOAD DUP1 PUSH1 0x40 ADD PUSH1 0x40 MSTORE DUP1 PUSH1 0x1 DUP2 MSTORE PUSH1 0x20 ADD PUSH32 0x3300000000000000000000000000000000000000000000000000000000000000 DUP2 MSTORE POP DUP2 MSTORE PUSH1 0x20 ADD PUSH1 0x40 MLOAD DUP1 PUSH1 0x40 ADD PUSH1 0x40 MSTORE DUP1 PUSH1 0xC DUP2 MSTORE PUSH1 0x20 ADD PUSH32 0x456B61746572696E627572670000000000000000000000000000000000000000 DUP2 MSTORE POP DUP2 MSTORE PUSH1 0x20 ADD PUSH2 0x3E8 DUP2 MSTORE PUSH1 0x20 ADD PUSH1 0x0 DUP2 MSTORE POP PUSH1 0x0 DUP1 PUSH20 0x4B20993BC481177EC7E8F571CECAE8A9E22C02DB PUSH20 0xFFFFFFFFFFFFFFFFFFFFFFFFFFFFFFFFFFFFFFFF AND PUSH20 0xFFFFFFFFFFFFFFFFFFFFFFFFFFFFFFFFFFFFFFFF AND DUP2 MSTORE PUSH1 0x20 ADD SWAP1 DUP2 MSTORE PUSH1 0x20 ADD PUSH1 0x0 KECCAK256 PUSH1 0x0 DUP3 ADD MLOAD DUP2 PUSH1 0x0 ADD SWAP1 DUP1 MLOAD SWAP1 PUSH1 0x20 ADD SWAP1 PUSH3 0x5A3 SWAP3 SWAP2 SWAP1 PUSH3 0x854 JUMP JUMPDEST POP PUSH1 0x20 DUP3 ADD MLOAD DUP2 PUSH1 0x1 ADD SWAP1 DUP1 MLOAD SWAP1 PUSH1 0x20 ADD SWAP1 PUSH3 0x5C2 SWAP3 SWAP2 SWAP1 PUSH3 0x854 JUMP JUMPDEST POP PUSH1 0x40 DUP3 ADD MLOAD DUP2 PUSH1 0x2 ADD SWAP1 DUP1 MLOAD SWAP1 PUSH1 0x20 ADD SWAP1 PUSH3 0x5E1 SWAP3 SWAP2 SWAP1 PUSH3 0x854 JUMP JUMPDEST POP PUSH1 0x60 DUP3 ADD MLOAD DUP2 PUSH1 0x3 ADD SSTORE PUSH1 0x80 DUP3 ADD MLOAD DUP2 PUSH1 0x4 ADD SSTORE SWAP1 POP POP PUSH1 0x2 PUSH1 0x0 DUP1 PUSH20 0x4B20993BC481177EC7E8F571CECAE8A9E22C02DB PUSH20 0xFFFFFFFFFFFFFFFFFFFFFFFFFFFFFFFFFFFFFFFF AND PUSH20 0xFFFFFFFFFFFFFFFFFFFFFFFFFFFFFFFFFFFFFFFF AND DUP2 MSTORE PUSH1 0x20 ADD SWAP1 DUP2 MSTORE PUSH1 0x20 ADD PUSH1 0x0 KECCAK256 PUSH1 0x0 ADD SWAP1 DUP1 PUSH1 0x1 DUP2 SLOAD ADD DUP1 DUP3 SSTORE DUP1 SWAP2 POP POP PUSH1 0x1 SWAP1 SUB SWAP1 PUSH1 0x0 MSTORE PUSH1 0x20 PUSH1 0x0 KECCAK256 ADD PUSH1 0x0 SWAP1 SWAP2 SWAP1 SWAP2 SWAP1 SWAP2 POP SWAP1 DUP1 SLOAD PUSH3 0x683 SWAP1 PUSH3 0x9E5 JUMP JUMPDEST PUSH3 0x690 SWAP3 SWAP2 SWAP1 PUSH3 0x8E5 JUMP JUMPDEST POP PUSH20 0x78731D3CA6B7E34AC0F824C42A7CC18A495CABAB PUSH1 0x5 PUSH1 0x40 MLOAD PUSH3 0x6B6 SWAP1 PUSH3 0x9C3 JUMP JUMPDEST SWAP1 DUP2 MSTORE PUSH1 0x20 ADD PUSH1 0x40 MLOAD DUP1 SWAP2 SUB SWAP1 KECCAK256 PUSH1 0x0 PUSH2 0x100 EXP DUP2 SLOAD DUP2 PUSH20 0xFFFFFFFFFFFFFFFFFFFFFFFFFFFFFFFFFFFFFFFF MUL NOT AND SWAP1 DUP4 PUSH20 0xFFFFFFFFFFFFFFFFFFFFFFFFFFFFFFFFFFFFFFFF AND MUL OR SWAP1 SSTORE POP PUSH1 0x40 MLOAD DUP1 PUSH1 0x60 ADD PUSH1 0x40 MSTORE DUP1 PUSH1 0x40 MLOAD DUP1 PUSH1 0x40 ADD PUSH1 0x40 MSTORE DUP1 PUSH1 0x4 DUP2 MSTORE PUSH1 0x20 ADD PUSH32 0x5065746100000000000000000000000000000000000000000000000000000000 DUP2 MSTORE POP DUP2 MSTORE PUSH1 0x20 ADD PUSH1 0x1 DUP2 MSTORE PUSH1 0x20 ADD PUSH2 0x3E8 DUP2 MSTORE POP PUSH1 0x4 PUSH1 0x0 PUSH20 0x78731D3CA6B7E34AC0F824C42A7CC18A495CABAB PUSH20 0xFFFFFFFFFFFFFFFFFFFFFFFFFFFFFFFFFFFFFFFF AND PUSH20 0xFFFFFFFFFFFFFFFFFFFFFFFFFFFFFFFFFFFFFFFF AND DUP2 MSTORE PUSH1 0x20 ADD SWAP1 DUP2 MSTORE PUSH1 0x20 ADD PUSH1 0x0 KECCAK256 PUSH1 0x0 DUP3 ADD MLOAD DUP2 PUSH1 0x0 ADD SWAP1 DUP1 MLOAD SWAP1 PUSH1 0x20 ADD SWAP1 PUSH3 0x7C6 SWAP3 SWAP2 SWAP1 PUSH3 0x854 JUMP JUMPDEST POP PUSH1 0x20 DUP3 ADD MLOAD DUP2 PUSH1 0x1 ADD SSTORE PUSH1 0x40 DUP3 ADD MLOAD DUP2 PUSH1 0x2 ADD SSTORE SWAP1 POP POP PUSH1 0x6 DUP1 PUSH1 0x1 DUP2 SLOAD ADD DUP1 DUP3 SSTORE DUP1 SWAP2 POP POP PUSH1 0x1 SWAP1 SUB SWAP1 PUSH1 0x0 MSTORE PUSH1 0x20 PUSH1 0x0 KECCAK256 ADD PUSH1 0x0 PUSH1 0x40 MLOAD DUP1 PUSH1 0x40 ADD PUSH1 0x40 MSTORE DUP1 PUSH1 0x4 DUP2 MSTORE PUSH1 0x20 ADD PUSH32 0x5065746100000000000000000000000000000000000000000000000000000000 DUP2 MSTORE POP SWAP1 SWAP2 SWAP1 SWAP2 POP SWAP1 DUP1 MLOAD SWAP1 PUSH1 0x20 ADD SWAP1 PUSH3 0x84D SWAP3 SWAP2 SWAP1 PUSH3 0x854 JUMP JUMPDEST POP PUSH3 0xA73 JUMP JUMPDEST DUP3 DUP1 SLOAD PUSH3 0x862 SWAP1 PUSH3 0x9E5 JUMP JUMPDEST SWAP1 PUSH1 0x0 MSTORE PUSH1 0x20 PUSH1 0x0 KECCAK256 SWAP1 PUSH1 0x1F ADD PUSH1 0x20 SWAP1 DIV DUP2 ADD SWAP3 DUP3 PUSH3 0x886 JUMPI PUSH1 0x0 DUP6 SSTORE PUSH3 0x8D2 JUMP JUMPDEST DUP3 PUSH1 0x1F LT PUSH3 0x8A1 JUMPI DUP1 MLOAD PUSH1 0xFF NOT AND DUP4 DUP1 ADD OR DUP6 SSTORE PUSH3 0x8D2 JUMP JUMPDEST DUP3 DUP1 ADD PUSH1 0x1 ADD DUP6 SSTORE DUP3 ISZERO PUSH3 0x8D2 JUMPI SWAP2 DUP3 ADD JUMPDEST DUP3 DUP2 GT ISZERO PUSH3 0x8D1 JUMPI DUP3 MLOAD DUP3 SSTORE SWAP2 PUSH1 0x20 ADD SWAP2 SWAP1 PUSH1 0x1 ADD SWAP1 PUSH3 0x8B4 JUMP JUMPDEST JUMPDEST POP SWAP1 POP PUSH3 0x8E1 SWAP2 SWAP1 PUSH3 0x97D JUMP JUMPDEST POP SWAP1 JUMP JUMPDEST DUP3 DUP1 SLOAD PUSH3 0x8F3 SWAP1 PUSH3 0x9E5 JUMP JUMPDEST SWAP1 PUSH1 0x0 MSTORE PUSH1 0x20 PUSH1 0x0 KECCAK256 SWAP1 PUSH1 0x1F ADD PUSH1 0x20 SWAP1 DIV DUP2 ADD SWAP3 DUP3 PUSH3 0x917 JUMPI PUSH1 0x0 DUP6 SSTORE PUSH3 0x96A JUMP JUMPDEST DUP3 PUSH1 0x1F LT PUSH3 0x92A JUMPI DUP1 SLOAD DUP6 SSTORE PUSH3 0x96A JUMP JUMPDEST DUP3 DUP1 ADD PUSH1 0x1 ADD DUP6 SSTORE DUP3 ISZERO PUSH3 0x96A JUMPI PUSH1 0x0 MSTORE PUSH1 0x20 PUSH1 0x0 KECCAK256 SWAP2 PUSH1 0x1F ADD PUSH1 0x20 SWAP1 DIV DUP3 ADD JUMPDEST DUP3 DUP2 GT ISZERO PUSH3 0x969 JUMPI DUP3 SLOAD DUP3 SSTORE SWAP2 PUSH1 0x1 ADD SWAP2 SWAP1 PUSH1 0x1 ADD SWAP1 PUSH3 0x94C JUMP JUMPDEST JUMPDEST POP SWAP1 POP PUSH3 0x979 SWAP2 SWAP1 PUSH3 0x97D JUMP JUMPDEST POP SWAP1 JUMP JUMPDEST JUMPDEST DUP1 DUP3 GT ISZERO PUSH3 0x998 JUMPI PUSH1 0x0 DUP2 PUSH1 0x0 SWAP1 SSTORE POP PUSH1 0x1 ADD PUSH3 0x97E JUMP JUMPDEST POP SWAP1 JUMP JUMPDEST PUSH1 0x0 PUSH3 0x9AB PUSH1 0x4 DUP4 PUSH3 0x9DA JUMP JUMPDEST SWAP2 POP PUSH3 0x9B8 DUP3 PUSH3 0xA4A JUMP JUMPDEST PUSH1 0x4 DUP3 ADD SWAP1 POP SWAP2 SWAP1 POP JUMP JUMPDEST PUSH1 0x0 PUSH3 0x9D0 DUP3 PUSH3 0x99C JUMP JUMPDEST SWAP2 POP DUP2 SWAP1 POP SWAP2 SWAP1 POP JUMP JUMPDEST PUSH1 0x0 DUP2 SWAP1 POP SWAP3 SWAP2 POP POP JUMP JUMPDEST PUSH1 0x0 PUSH1 0x2 DUP3 DIV SWAP1 POP PUSH1 0x1 DUP3 AND DUP1 PUSH3 0x9FE JUMPI PUSH1 0x7F DUP3 AND SWAP2 POP JUMPDEST PUSH1 0x20 DUP3 LT DUP2 EQ ISZERO PUSH3 0xA15 JUMPI PUSH3 0xA14 PUSH3 0xA1B JUMP JUMPDEST JUMPDEST POP SWAP2 SWAP1 POP JUMP JUMPDEST PUSH32 0x4E487B7100000000000000000000000000000000000000000000000000000000 PUSH1 0x0 MSTORE PUSH1 0x22 PUSH1 0x4 MSTORE PUSH1 0x24 PUSH1 0x0 REVERT JUMPDEST PUSH32 0x5065746100000000000000000000000000000000000000000000000000000000 PUSH1 0x0 DUP3 ADD MSTORE POP JUMP JUMPDEST PUSH2 0x2754 DUP1 PUSH3 0xA83 PUSH1 0x0 CODECOPY PUSH1 0x0 RETURN INVALID PUSH1 0x80 PUSH1 0x40 MSTORE CALLVALUE DUP1 ISZERO PUSH2 0x10 JUMPI PUSH1 0x0 DUP1 REVERT JUMPDEST POP PUSH1 0x4 CALLDATASIZE LT PUSH2 0x121 JUMPI PUSH1 0x0 CALLDATALOAD PUSH1 0xE0 SHR DUP1 PUSH4 0x961865F0 GT PUSH2 0xAD JUMPI DUP1 PUSH4 0xC4957FA0 GT PUSH2 0x71 JUMPI DUP1 PUSH4 0xC4957FA0 EQ PUSH2 0x333 JUMPI DUP1 PUSH4 0xCC21C188 EQ PUSH2 0x363 JUMPI DUP1 PUSH4 0xD68CF8C1 EQ PUSH2 0x37F JUMPI DUP1 PUSH4 0xDCE39151 EQ PUSH2 0x3B2 JUMPI DUP1 PUSH4 0xF69483C1 EQ PUSH2 0x3E4 JUMPI PUSH2 0x121 JUMP JUMPDEST DUP1 PUSH4 0x961865F0 EQ PUSH2 0x265 JUMPI DUP1 PUSH4 0xA985036D EQ PUSH2 0x297 JUMPI DUP1 PUSH4 0xA9F9482B EQ PUSH2 0x2C7 JUMPI DUP1 PUSH4 0xBBD43363 EQ PUSH2 0x2F9 JUMPI DUP1 PUSH4 0xC178B9AF EQ PUSH2 0x315 JUMPI PUSH2 0x121 JUMP JUMPDEST DUP1 PUSH4 0x2CCDEF7C GT PUSH2 0xF4 JUMPI DUP1 PUSH4 0x2CCDEF7C EQ PUSH2 0x1C1 JUMPI DUP1 PUSH4 0x2D4673E3 EQ PUSH2 0x1DD JUMPI DUP1 PUSH4 0x34D2C0AD EQ PUSH2 0x1F9 JUMPI DUP1 PUSH4 0x6C05DD1D EQ PUSH2 0x217 JUMPI DUP1 PUSH4 0x7DDB273D EQ PUSH2 0x233 JUMPI PUSH2 0x121 JUMP JUMPDEST DUP1 PUSH4 0x8F4D2C6 EQ PUSH2 0x126 JUMPI DUP1 PUSH4 0xC72B1EC EQ PUSH2 0x159 JUMPI DUP1 PUSH4 0x146DC6ED EQ PUSH2 0x175 JUMPI DUP1 PUSH4 0x1BBE970A EQ PUSH2 0x191 JUMPI JUMPDEST PUSH1 0x0 DUP1 REVERT JUMPDEST PUSH2 0x140 PUSH1 0x4 DUP1 CALLDATASIZE SUB DUP2 ADD SWAP1 PUSH2 0x13B SWAP2 SWAP1 PUSH2 0x1E71 JUMP JUMPDEST PUSH2 0x400 JUMP JUMPDEST PUSH1 0x40 MLOAD PUSH2 0x150 SWAP5 SWAP4 SWAP3 SWAP2 SWAP1 PUSH2 0x21F1 JUMP JUMPDEST PUSH1 0x40 MLOAD DUP1 SWAP2 SUB SWAP1 RETURN JUMPDEST PUSH2 0x173 PUSH1 0x4 DUP1 CALLDATASIZE SUB DUP2 ADD SWAP1 PUSH2 0x16E SWAP2 SWAP1 PUSH2 0x1E9E JUMP JUMPDEST PUSH2 0x5D8 JUMP JUMPDEST STOP JUMPDEST PUSH2 0x18F PUSH1 0x4 DUP1 CALLDATASIZE SUB DUP2 ADD SWAP1 PUSH2 0x18A SWAP2 SWAP1 PUSH2 0x1D12 JUMP JUMPDEST PUSH2 0x8A5 JUMP JUMPDEST STOP JUMPDEST PUSH2 0x1AB PUSH1 0x4 DUP1 CALLDATASIZE SUB DUP2 ADD SWAP1 PUSH2 0x1A6 SWAP2 SWAP1 PUSH2 0x1D12 JUMP JUMPDEST PUSH2 0xA33 JUMP JUMPDEST PUSH1 0x40 MLOAD PUSH2 0x1B8 SWAP2 SWAP1 PUSH2 0x212A JUMP JUMPDEST PUSH1 0x40 MLOAD DUP1 SWAP2 SUB SWAP1 RETURN JUMPDEST PUSH2 0x1DB PUSH1 0x4 DUP1 CALLDATASIZE SUB DUP2 ADD SWAP1 PUSH2 0x1D6 SWAP2 SWAP1 PUSH2 0x1E9E JUMP JUMPDEST PUSH2 0xA7C JUMP JUMPDEST STOP JUMPDEST PUSH2 0x1F7 PUSH1 0x4 DUP1 CALLDATASIZE SUB DUP2 ADD SWAP1 PUSH2 0x1F2 SWAP2 SWAP1 PUSH2 0x1D12 JUMP JUMPDEST PUSH2 0xC72 JUMP JUMPDEST STOP JUMPDEST PUSH2 0x201 PUSH2 0xD5A JUMP JUMPDEST PUSH1 0x40 MLOAD PUSH2 0x20E SWAP2 SWAP1 PUSH2 0x21CF JUMP JUMPDEST PUSH1 0x40 MLOAD DUP1 SWAP2 SUB SWAP1 RETURN JUMPDEST PUSH2 0x231 PUSH1 0x4 DUP1 CALLDATASIZE SUB DUP2 ADD SWAP1 PUSH2 0x22C SWAP2 SWAP1 PUSH2 0x1DE6 JUMP JUMPDEST PUSH2 0xE33 JUMP JUMPDEST STOP JUMPDEST PUSH2 0x24D PUSH1 0x4 DUP1 CALLDATASIZE SUB DUP2 ADD SWAP1 PUSH2 0x248 SWAP2 SWAP1 PUSH2 0x1E71 JUMP JUMPDEST PUSH2 0xF5E JUMP JUMPDEST PUSH1 0x40 MLOAD PUSH2 0x25C SWAP4 SWAP3 SWAP2 SWAP1 PUSH2 0x2145 JUMP JUMPDEST PUSH1 0x40 MLOAD DUP1 SWAP2 SUB SWAP1 RETURN JUMPDEST PUSH2 0x27F PUSH1 0x4 DUP1 CALLDATASIZE SUB DUP2 ADD SWAP1 PUSH2 0x27A SWAP2 SWAP1 PUSH2 0x1CE5 JUMP JUMPDEST PUSH2 0x104D JUMP JUMPDEST PUSH1 0x40 MLOAD PUSH2 0x28E SWAP4 SWAP3 SWAP2 SWAP1 PUSH2 0x224B JUMP JUMPDEST PUSH1 0x40 MLOAD DUP1 SWAP2 SUB SWAP1 RETURN JUMPDEST PUSH2 0x2B1 PUSH1 0x4 DUP1 CALLDATASIZE SUB DUP2 ADD SWAP1 PUSH2 0x2AC SWAP2 SWAP1 PUSH2 0x1D12 JUMP JUMPDEST PUSH2 0x10FF JUMP JUMPDEST PUSH1 0x40 MLOAD PUSH2 0x2BE SWAP2 SWAP1 PUSH2 0x22C9 JUMP JUMPDEST PUSH1 0x40 MLOAD DUP1 SWAP2 SUB SWAP1 RETURN JUMPDEST PUSH2 0x2E1 PUSH1 0x4 DUP1 CALLDATASIZE SUB DUP2 ADD SWAP1 PUSH2 0x2DC SWAP2 SWAP1 PUSH2 0x1E71 JUMP JUMPDEST PUSH2 0x1209 JUMP JUMPDEST PUSH1 0x40 MLOAD PUSH2 0x2F0 SWAP4 SWAP3 SWAP2 SWAP1 PUSH2 0x2145 JUMP JUMPDEST PUSH1 0x40 MLOAD DUP1 SWAP2 SUB SWAP1 RETURN JUMPDEST PUSH2 0x313 PUSH1 0x4 DUP1 CALLDATASIZE SUB DUP2 ADD SWAP1 PUSH2 0x30E SWAP2 SWAP1 PUSH2 0x1D12 JUMP JUMPDEST PUSH2 0x12F8 JUMP JUMPDEST STOP JUMPDEST PUSH2 0x31D PUSH2 0x13E0 JUMP JUMPDEST PUSH1 0x40 MLOAD PUSH2 0x32A SWAP2 SWAP1 PUSH2 0x21CF JUMP JUMPDEST PUSH1 0x40 MLOAD DUP1 SWAP2 SUB SWAP1 RETURN JUMPDEST PUSH2 0x34D PUSH1 0x4 DUP1 CALLDATASIZE SUB DUP2 ADD SWAP1 PUSH2 0x348 SWAP2 SWAP1 PUSH2 0x1D12 JUMP JUMPDEST PUSH2 0x14B9 JUMP JUMPDEST PUSH1 0x40 MLOAD PUSH2 0x35A SWAP2 SWAP1 PUSH2 0x212A JUMP JUMPDEST PUSH1 0x40 MLOAD DUP1 SWAP2 SUB SWAP1 RETURN JUMPDEST PUSH2 0x37D PUSH1 0x4 DUP1 CALLDATASIZE SUB DUP2 ADD SWAP1 PUSH2 0x378 SWAP2 SWAP1 PUSH2 0x1D5B JUMP JUMPDEST PUSH2 0x1502 JUMP JUMPDEST STOP JUMPDEST PUSH2 0x399 PUSH1 0x4 DUP1 CALLDATASIZE SUB DUP2 ADD SWAP1 PUSH2 0x394 SWAP2 SWAP1 PUSH2 0x1D12 JUMP JUMPDEST PUSH2 0x16FC JUMP JUMPDEST PUSH1 0x40 MLOAD PUSH2 0x3A9 SWAP5 SWAP4 SWAP3 SWAP2 SWAP1 PUSH2 0x2183 JUMP JUMPDEST PUSH1 0x40 MLOAD DUP1 SWAP2 SUB SWAP1 RETURN JUMPDEST PUSH2 0x3CC PUSH1 0x4 DUP1 CALLDATASIZE SUB DUP2 ADD SWAP1 PUSH2 0x3C7 SWAP2 SWAP1 PUSH2 0x1E71 JUMP JUMPDEST PUSH2 0x17EA JUMP JUMPDEST PUSH1 0x40 MLOAD PUSH2 0x3DB SWAP4 SWAP3 SWAP2 SWAP1 PUSH2 0x2145 JUMP JUMPDEST PUSH1 0x40 MLOAD DUP1 SWAP2 SUB SWAP1 RETURN JUMPDEST PUSH2 0x3FE PUSH1 0x4 DUP1 CALLDATASIZE SUB DUP2 ADD SWAP1 PUSH2 0x3F9 SWAP2 SWAP1 PUSH2 0x1E9E JUMP JUMPDEST PUSH2 0x18D9 JUMP JUMPDEST STOP JUMPDEST PUSH1 0x3 DUP2 DUP2 SLOAD DUP2 LT PUSH2 0x410 JUMPI PUSH1 0x0 DUP1 REVERT JUMPDEST SWAP1 PUSH1 0x0 MSTORE PUSH1 0x20 PUSH1 0x0 KECCAK256 SWAP1 PUSH1 0x5 MUL ADD PUSH1 0x0 SWAP2 POP SWAP1 POP DUP1 PUSH1 0x0 ADD DUP1 SLOAD PUSH2 0x433 SWAP1 PUSH2 0x24D4 JUMP JUMPDEST DUP1 PUSH1 0x1F ADD PUSH1 0x20 DUP1 SWAP2 DIV MUL PUSH1 0x20 ADD PUSH1 0x40 MLOAD SWAP1 DUP2 ADD PUSH1 0x40 MSTORE DUP1 SWAP3 SWAP2 SWAP1 DUP2 DUP2 MSTORE PUSH1 0x20 ADD DUP3 DUP1 SLOAD PUSH2 0x45F SWAP1 PUSH2 0x24D4 JUMP JUMPDEST DUP1 ISZERO PUSH2 0x4AC JUMPI DUP1 PUSH1 0x1F LT PUSH2 0x481 JUMPI PUSH2 0x100 DUP1 DUP4 SLOAD DIV MUL DUP4 MSTORE SWAP2 PUSH1 0x20 ADD SWAP2 PUSH2 0x4AC JUMP JUMPDEST DUP3 ADD SWAP2 SWAP1 PUSH1 0x0 MSTORE PUSH1 0x20 PUSH1 0x0 KECCAK256 SWAP1 JUMPDEST DUP2 SLOAD DUP2 MSTORE SWAP1 PUSH1 0x1 ADD SWAP1 PUSH1 0x20 ADD DUP1 DUP4 GT PUSH2 0x48F JUMPI DUP3 SWAP1 SUB PUSH1 0x1F AND DUP3 ADD SWAP2 JUMPDEST POP POP POP POP POP SWAP1 DUP1 PUSH1 0x1 ADD DUP1 SLOAD PUSH2 0x4C1 SWAP1 PUSH2 0x24D4 JUMP JUMPDEST DUP1 PUSH1 0x1F ADD PUSH1 0x20 DUP1 SWAP2 DIV MUL PUSH1 0x20 ADD PUSH1 0x40 MLOAD SWAP1 DUP2 ADD PUSH1 0x40 MSTORE DUP1 SWAP3 SWAP2 SWAP1 DUP2 DUP2 MSTORE PUSH1 0x20 ADD DUP3 DUP1 SLOAD PUSH2 0x4ED SWAP1 PUSH2 0x24D4 JUMP JUMPDEST DUP1 ISZERO PUSH2 0x53A JUMPI DUP1 PUSH1 0x1F LT PUSH2 0x50F JUMPI PUSH2 0x100 DUP1 DUP4 SLOAD DIV MUL DUP4 MSTORE SWAP2 PUSH1 0x20 ADD SWAP2 PUSH2 0x53A JUMP JUMPDEST DUP3 ADD SWAP2 SWAP1 PUSH1 0x0 MSTORE PUSH1 0x20 PUSH1 0x0 KECCAK256 SWAP1 JUMPDEST DUP2 SLOAD DUP2 MSTORE SWAP1 PUSH1 0x1 ADD SWAP1 PUSH1 0x20 ADD DUP1 DUP4 GT PUSH2 0x51D JUMPI DUP3 SWAP1 SUB PUSH1 0x1F AND DUP3 ADD SWAP2 JUMPDEST POP POP POP POP POP SWAP1 DUP1 PUSH1 0x2 ADD DUP1 SLOAD PUSH2 0x54F SWAP1 PUSH2 0x24D4 JUMP JUMPDEST DUP1 PUSH1 0x1F ADD PUSH1 0x20 DUP1 SWAP2 DIV MUL PUSH1 0x20 ADD PUSH1 0x40 MLOAD SWAP1 DUP2 ADD PUSH1 0x40 MSTORE DUP1 SWAP3 SWAP2 SWAP1 DUP2 DUP2 MSTORE PUSH1 0x20 ADD DUP3 DUP1 SLOAD PUSH2 0x57B SWAP1 PUSH2 0x24D4 JUMP JUMPDEST DUP1 ISZERO PUSH2 0x5C8 JUMPI DUP1 PUSH1 0x1F LT PUSH2 0x59D JUMPI PUSH2 0x100 DUP1 DUP4 SLOAD DIV MUL DUP4 MSTORE SWAP2 PUSH1 0x20 ADD SWAP2 PUSH2 0x5C8 JUMP JUMPDEST DUP3 ADD SWAP2 SWAP1 PUSH1 0x0 MSTORE PUSH1 0x20 PUSH1 0x0 KECCAK256 SWAP1 JUMPDEST DUP2 SLOAD DUP2 MSTORE SWAP1 PUSH1 0x1 ADD SWAP1 PUSH1 0x20 ADD DUP1 DUP4 GT PUSH2 0x5AB JUMPI DUP3 SWAP1 SUB PUSH1 0x1F AND DUP3 ADD SWAP2 JUMPDEST POP POP POP POP POP SWAP1 DUP1 PUSH1 0x3 ADD SLOAD SWAP1 POP DUP5 JUMP JUMPDEST PUSH1 0x1 ISZERO ISZERO DUP2 ISZERO ISZERO EQ ISZERO PUSH2 0x862 JUMPI PUSH1 0x0 PUSH1 0x9 DUP4 DUP2 SLOAD DUP2 LT PUSH2 0x5FB JUMPI PUSH2 0x5FA PUSH2 0x25DE JUMP JUMPDEST JUMPDEST SWAP1 PUSH1 0x0 MSTORE PUSH1 0x20 PUSH1 0x0 KECCAK256 SWAP1 PUSH1 0x3 MUL ADD PUSH1 0x2 ADD PUSH1 0x0 PUSH2 0x100 EXP DUP2 SLOAD DUP2 PUSH1 0xFF MUL NOT AND SWAP1 DUP4 ISZERO ISZERO MUL OR SWAP1 SSTORE POP PUSH1 0x7 PUSH1 0x9 DUP4 DUP2 SLOAD DUP2 LT PUSH2 0x639 JUMPI PUSH2 0x638 PUSH2 0x25DE JUMP JUMPDEST JUMPDEST SWAP1 PUSH1 0x0 MSTORE PUSH1 0x20 PUSH1 0x0 KECCAK256 SWAP1 PUSH1 0x3 MUL ADD PUSH1 0x1 ADD PUSH1 0x40 MLOAD PUSH2 0x657 SWAP2 SWAP1 PUSH2 0x2113 JUMP JUMPDEST SWAP1 DUP2 MSTORE PUSH1 0x20 ADD PUSH1 0x40 MLOAD DUP1 SWAP2 SUB SWAP1 KECCAK256 PUSH1 0x2 ADD SLOAD PUSH1 0x4 PUSH1 0x0 PUSH1 0x9 DUP6 DUP2 SLOAD DUP2 LT PUSH2 0x681 JUMPI PUSH2 0x680 PUSH2 0x25DE JUMP JUMPDEST JUMPDEST SWAP1 PUSH1 0x0 MSTORE PUSH1 0x20 PUSH1 0x0 KECCAK256 SWAP1 PUSH1 0x3 MUL ADD PUSH1 0x0 ADD PUSH1 0x0 SWAP1 SLOAD SWAP1 PUSH2 0x100 EXP SWAP1 DIV PUSH20 0xFFFFFFFFFFFFFFFFFFFFFFFFFFFFFFFFFFFFFFFF AND PUSH20 0xFFFFFFFFFFFFFFFFFFFFFFFFFFFFFFFFFFFFFFFF AND PUSH20 0xFFFFFFFFFFFFFFFFFFFFFFFFFFFFFFFFFFFFFFFF AND DUP2 MSTORE PUSH1 0x20 ADD SWAP1 DUP2 MSTORE PUSH1 0x20 ADD PUSH1 0x0 KECCAK256 PUSH1 0x2 ADD SLOAD PUSH2 0x6FB SWAP2 SWAP1 PUSH2 0x2416 JUMP JUMPDEST PUSH1 0x4 PUSH1 0x0 PUSH1 0x9 DUP6 DUP2 SLOAD DUP2 LT PUSH2 0x713 JUMPI PUSH2 0x712 PUSH2 0x25DE JUMP JUMPDEST JUMPDEST SWAP1 PUSH1 0x0 MSTORE PUSH1 0x20 PUSH1 0x0 KECCAK256 SWAP1 PUSH1 0x3 MUL ADD PUSH1 0x0 ADD PUSH1 0x0 SWAP1 SLOAD SWAP1 PUSH2 0x100 EXP SWAP1 DIV PUSH20 0xFFFFFFFFFFFFFFFFFFFFFFFFFFFFFFFFFFFFFFFF AND PUSH20 0xFFFFFFFFFFFFFFFFFFFFFFFFFFFFFFFFFFFFFFFF AND PUSH20 0xFFFFFFFFFFFFFFFFFFFFFFFFFFFFFFFFFFFFFFFF AND DUP2 MSTORE PUSH1 0x20 ADD SWAP1 DUP2 MSTORE PUSH1 0x20 ADD PUSH1 0x0 KECCAK256 PUSH1 0x2 ADD DUP2 SWAP1 SSTORE POP PUSH1 0x7 PUSH1 0x9 DUP4 DUP2 SLOAD DUP2 LT PUSH2 0x79C JUMPI PUSH2 0x79B PUSH2 0x25DE JUMP JUMPDEST JUMPDEST SWAP1 PUSH1 0x0 MSTORE PUSH1 0x20 PUSH1 0x0 KECCAK256 SWAP1 PUSH1 0x3 MUL ADD PUSH1 0x1 ADD PUSH1 0x40 MLOAD PUSH2 0x7BA SWAP2 SWAP1 PUSH2 0x2113 JUMP JUMPDEST SWAP1 DUP2 MSTORE PUSH1 0x20 ADD PUSH1 0x40 MLOAD DUP1 SWAP2 SUB SWAP1 KECCAK256 PUSH1 0x2 ADD SLOAD PUSH1 0x0 DUP1 CALLER PUSH20 0xFFFFFFFFFFFFFFFFFFFFFFFFFFFFFFFFFFFFFFFF AND PUSH20 0xFFFFFFFFFFFFFFFFFFFFFFFFFFFFFFFFFFFFFFFF AND DUP2 MSTORE PUSH1 0x20 ADD SWAP1 DUP2 MSTORE PUSH1 0x20 ADD PUSH1 0x0 KECCAK256 PUSH1 0x3 ADD SLOAD PUSH2 0x818 SWAP2 SWAP1 PUSH2 0x23C0 JUMP JUMPDEST PUSH1 0x0 DUP1 CALLER PUSH20 0xFFFFFFFFFFFFFFFFFFFFFFFFFFFFFFFFFFFFFFFF AND PUSH20 0xFFFFFFFFFFFFFFFFFFFFFFFFFFFFFFFFFFFFFFFF AND DUP2 MSTORE PUSH1 0x20 ADD SWAP1 DUP2 MSTORE PUSH1 0x20 ADD PUSH1 0x0 KECCAK256 PUSH1 0x3 ADD DUP2 SWAP1 SSTORE POP PUSH2 0x8A1 JUMP JUMPDEST PUSH1 0x0 PUSH1 0x9 DUP4 DUP2 SLOAD DUP2 LT PUSH2 0x878 JUMPI PUSH2 0x877 PUSH2 0x25DE JUMP JUMPDEST JUMPDEST SWAP1 PUSH1 0x0 MSTORE PUSH1 0x20 PUSH1 0x0 KECCAK256 SWAP1 PUSH1 0x3 MUL ADD PUSH1 0x2 ADD PUSH1 0x0 PUSH2 0x100 EXP DUP2 SLOAD DUP2 PUSH1 0xFF MUL NOT AND SWAP1 DUP4 ISZERO ISZERO MUL OR SWAP1 SSTORE POP JUMPDEST POP POP JUMP JUMPDEST PUSH1 0x7 DUP2 PUSH1 0x40 MLOAD PUSH2 0x8B5 SWAP2 SWAP1 PUSH2 0x20FC JUMP JUMPDEST SWAP1 DUP2 MSTORE PUSH1 0x20 ADD PUSH1 0x40 MLOAD DUP1 SWAP2 SUB SWAP1 KECCAK256 PUSH1 0x2 ADD SLOAD PUSH1 0x4 PUSH1 0x0 CALLER PUSH20 0xFFFFFFFFFFFFFFFFFFFFFFFFFFFFFFFFFFFFFFFF AND PUSH20 0xFFFFFFFFFFFFFFFFFFFFFFFFFFFFFFFFFFFFFFFF AND DUP2 MSTORE PUSH1 0x20 ADD SWAP1 DUP2 MSTORE PUSH1 0x20 ADD PUSH1 0x0 KECCAK256 PUSH1 0x2 ADD SLOAD LT ISZERO PUSH2 0x94B JUMPI PUSH1 0x40 MLOAD PUSH32 0x8C379A000000000000000000000000000000000000000000000000000000000 DUP2 MSTORE PUSH1 0x4 ADD PUSH2 0x942 SWAP1 PUSH2 0x2289 JUMP JUMPDEST PUSH1 0x40 MLOAD DUP1 SWAP2 SUB SWAP1 REVERT JUMPDEST PUSH1 0x9 PUSH1 0x40 MLOAD DUP1 PUSH1 0x60 ADD PUSH1 0x40 MSTORE DUP1 CALLER PUSH20 0xFFFFFFFFFFFFFFFFFFFFFFFFFFFFFFFFFFFFFFFF AND DUP2 MSTORE PUSH1 0x20 ADD DUP4 DUP2 MSTORE PUSH1 0x20 ADD PUSH1 0x1 ISZERO ISZERO DUP2 MSTORE POP SWAP1 DUP1 PUSH1 0x1 DUP2 SLOAD ADD DUP1 DUP3 SSTORE DUP1 SWAP2 POP POP PUSH1 0x1 SWAP1 SUB SWAP1 PUSH1 0x0 MSTORE PUSH1 0x20 PUSH1 0x0 KECCAK256 SWAP1 PUSH1 0x3 MUL ADD PUSH1 0x0 SWAP1 SWAP2 SWAP1 SWAP2 SWAP1 SWAP2 POP PUSH1 0x0 DUP3 ADD MLOAD DUP2 PUSH1 0x0 ADD PUSH1 0x0 PUSH2 0x100 EXP DUP2 SLOAD DUP2 PUSH20 0xFFFFFFFFFFFFFFFFFFFFFFFFFFFFFFFFFFFFFFFF MUL NOT AND SWAP1 DUP4 PUSH20 0xFFFFFFFFFFFFFFFFFFFFFFFFFFFFFFFFFFFFFFFF AND MUL OR SWAP1 SSTORE POP PUSH1 0x20 DUP3 ADD MLOAD DUP2 PUSH1 0x1 ADD SWAP1 DUP1 MLOAD SWAP1 PUSH1 0x20 ADD SWAP1 PUSH2 0xA0D SWAP3 SWAP2 SWAP1 PUSH2 0x1ACF JUMP JUMPDEST POP PUSH1 0x40 DUP3 ADD MLOAD DUP2 PUSH1 0x2 ADD PUSH1 0x0 PUSH2 0x100 EXP DUP2 SLOAD DUP2 PUSH1 0xFF MUL NOT AND SWAP1 DUP4 ISZERO ISZERO MUL OR SWAP1 SSTORE POP POP POP POP JUMP JUMPDEST PUSH1 0x5 DUP2 DUP1 MLOAD PUSH1 0x20 DUP2 ADD DUP3 ADD DUP1 MLOAD DUP5 DUP3 MSTORE PUSH1 0x20 DUP4 ADD PUSH1 0x20 DUP6 ADD KECCAK256 DUP2 DUP4 MSTORE DUP1 SWAP6 POP POP POP POP POP POP PUSH1 0x0 SWAP2 POP SLOAD SWAP1 PUSH2 0x100 EXP SWAP1 DIV PUSH20 0xFFFFFFFFFFFFFFFFFFFFFFFFFFFFFFFFFFFFFFFF AND DUP2 JUMP JUMPDEST PUSH1 0x1 ISZERO ISZERO DUP2 ISZERO ISZERO EQ ISZERO PUSH2 0xC2F JUMPI PUSH1 0x0 PUSH1 0xA DUP4 DUP2 SLOAD DUP2 LT PUSH2 0xA9F JUMPI PUSH2 0xA9E PUSH2 0x25DE JUMP JUMPDEST JUMPDEST SWAP1 PUSH1 0x0 MSTORE PUSH1 0x20 PUSH1 0x0 KECCAK256 SWAP1 PUSH1 0x3 MUL ADD PUSH1 0x2 ADD PUSH1 0x0 PUSH2 0x100 EXP DUP2 SLOAD DUP2 PUSH1 0xFF MUL NOT AND SWAP1 DUP4 ISZERO ISZERO MUL OR SWAP1 SSTORE POP PUSH1 0x7 PUSH1 0xA DUP4 DUP2 SLOAD DUP2 LT PUSH2 0xADD JUMPI PUSH2 0xADC PUSH2 0x25DE JUMP JUMPDEST JUMPDEST SWAP1 PUSH1 0x0 MSTORE PUSH1 0x20 PUSH1 0x0 KECCAK256 SWAP1 PUSH1 0x3 MUL ADD PUSH1 0x1 ADD PUSH1 0x40 MLOAD PUSH2 0xAFB SWAP2 SWAP1 PUSH2 0x2113 JUMP JUMPDEST SWAP1 DUP2 MSTORE PUSH1 0x20 ADD PUSH1 0x40 MLOAD DUP1 SWAP2 SUB SWAP1 KECCAK256 PUSH1 0x2 ADD SLOAD PUSH1 0x4 PUSH1 0x0 PUSH1 0xA DUP6 DUP2 SLOAD DUP2 LT PUSH2 0xB25 JUMPI PUSH2 0xB24 PUSH2 0x25DE JUMP JUMPDEST JUMPDEST SWAP1 PUSH1 0x0 MSTORE PUSH1 0x20 PUSH1 0x0 KECCAK256 SWAP1 PUSH1 0x3 MUL ADD PUSH1 0x0 ADD PUSH1 0x0 SWAP1 SLOAD SWAP1 PUSH2 0x100 EXP SWAP1 DIV PUSH20 0xFFFFFFFFFFFFFFFFFFFFFFFFFFFFFFFFFFFFFFFF AND PUSH20 0xFFFFFFFFFFFFFFFFFFFFFFFFFFFFFFFFFFFFFFFF AND PUSH20 0xFFFFFFFFFFFFFFFFFFFFFFFFFFFFFFFFFFFFFFFF AND DUP2 MSTORE PUSH1 0x20 ADD SWAP1 DUP2 MSTORE PUSH1 0x20 ADD PUSH1 0x0 KECCAK256 PUSH1 0x2 ADD SLOAD PUSH2 0xB9F SWAP2 SWAP1 PUSH2 0x23C0 JUMP JUMPDEST PUSH1 0x4 PUSH1 0x0 PUSH1 0xA DUP6 DUP2 SLOAD DUP2 LT PUSH2 0xBB7 JUMPI PUSH2 0xBB6 PUSH2 0x25DE JUMP JUMPDEST JUMPDEST SWAP1 PUSH1 0x0 MSTORE PUSH1 0x20 PUSH1 0x0 KECCAK256 SWAP1 PUSH1 0x3 MUL ADD PUSH1 0x0 ADD PUSH1 0x0 SWAP1 SLOAD SWAP1 PUSH2 0x100 EXP SWAP1 DIV PUSH20 0xFFFFFFFFFFFFFFFFFFFFFFFFFFFFFFFFFFFFFFFF AND PUSH20 0xFFFFFFFFFFFFFFFFFFFFFFFFFFFFFFFFFFFFFFFF AND PUSH20 0xFFFFFFFFFFFFFFFFFFFFFFFFFFFFFFFFFFFFFFFF AND DUP2 MSTORE PUSH1 0x20 ADD SWAP1 DUP2 MSTORE PUSH1 0x20 ADD PUSH1 0x0 KECCAK256 PUSH1 0x2 ADD DUP2 SWAP1 SSTORE POP PUSH2 0xC6E JUMP JUMPDEST PUSH1 0x0 PUSH1 0xA DUP4 DUP2 SLOAD DUP2 LT PUSH2 0xC45 JUMPI PUSH2 0xC44 PUSH2 0x25DE JUMP JUMPDEST JUMPDEST SWAP1 PUSH1 0x0 MSTORE PUSH1 0x20 PUSH1 0x0 KECCAK256 SWAP1 PUSH1 0x3 MUL ADD PUSH1 0x2 ADD PUSH1 0x0 PUSH2 0x100 EXP DUP2 SLOAD DUP2 PUSH1 0xFF MUL NOT AND SWAP1 DUP4 ISZERO ISZERO MUL OR SWAP1 SSTORE POP JUMPDEST POP POP JUMP JUMPDEST PUSH1 0xB PUSH1 0x40 MLOAD DUP1 PUSH1 0x60 ADD PUSH1 0x40 MSTORE DUP1 CALLER PUSH20 0xFFFFFFFFFFFFFFFFFFFFFFFFFFFFFFFFFFFFFFFF AND DUP2 MSTORE PUSH1 0x20 ADD DUP4 DUP2 MSTORE PUSH1 0x20 ADD PUSH1 0x1 ISZERO ISZERO DUP2 MSTORE POP SWAP1 DUP1 PUSH1 0x1 DUP2 SLOAD ADD DUP1 DUP3 SSTORE DUP1 SWAP2 POP POP PUSH1 0x1 SWAP1 SUB SWAP1 PUSH1 0x0 MSTORE PUSH1 0x20 PUSH1 0x0 KECCAK256 SWAP1 PUSH1 0x3 MUL ADD PUSH1 0x0 SWAP1 SWAP2 SWAP1 SWAP2 SWAP1 SWAP2 POP PUSH1 0x0 DUP3 ADD MLOAD DUP2 PUSH1 0x0 ADD PUSH1 0x0 PUSH2 0x100 EXP DUP2 SLOAD DUP2 PUSH20 0xFFFFFFFFFFFFFFFFFFFFFFFFFFFFFFFFFFFFFFFF MUL NOT AND SWAP1 DUP4 PUSH20 0xFFFFFFFFFFFFFFFFFFFFFFFFFFFFFFFFFFFFFFFF AND MUL OR SWAP1 SSTORE POP PUSH1 0x20 DUP3 ADD MLOAD DUP2 PUSH1 0x1 ADD SWAP1 DUP1 MLOAD SWAP1 PUSH1 0x20 ADD SWAP1 PUSH2 0xD34 SWAP3 SWAP2 SWAP1 PUSH2 0x1ACF JUMP JUMPDEST POP PUSH1 0x40 DUP3 ADD MLOAD DUP2 PUSH1 0x2 ADD PUSH1 0x0 PUSH2 0x100 EXP DUP2 SLOAD DUP2 PUSH1 0xFF MUL NOT AND SWAP1 DUP4 ISZERO ISZERO MUL OR SWAP1 SSTORE POP POP POP POP JUMP JUMPDEST PUSH1 0x60 PUSH1 0x8 DUP1 SLOAD DUP1 PUSH1 0x20 MUL PUSH1 0x20 ADD PUSH1 0x40 MLOAD SWAP1 DUP2 ADD PUSH1 0x40 MSTORE DUP1 SWAP3 SWAP2 SWAP1 DUP2 DUP2 MSTORE PUSH1 0x20 ADD PUSH1 0x0 SWAP1 JUMPDEST DUP3 DUP3 LT ISZERO PUSH2 0xE2A JUMPI DUP4 DUP3 SWAP1 PUSH1 0x0 MSTORE PUSH1 0x20 PUSH1 0x0 KECCAK256 ADD DUP1 SLOAD PUSH2 0xD9D SWAP1 PUSH2 0x24D4 JUMP JUMPDEST DUP1 PUSH1 0x1F ADD PUSH1 0x20 DUP1 SWAP2 DIV MUL PUSH1 0x20 ADD PUSH1 0x40 MLOAD SWAP1 DUP2 ADD PUSH1 0x40 MSTORE DUP1 SWAP3 SWAP2 SWAP1 DUP2 DUP2 MSTORE PUSH1 0x20 ADD DUP3 DUP1 SLOAD PUSH2 0xDC9 SWAP1 PUSH2 0x24D4 JUMP JUMPDEST DUP1 ISZERO PUSH2 0xE16 JUMPI DUP1 PUSH1 0x1F LT PUSH2 0xDEB JUMPI PUSH2 0x100 DUP1 DUP4 SLOAD DIV MUL DUP4 MSTORE SWAP2 PUSH1 0x20 ADD SWAP2 PUSH2 0xE16 JUMP JUMPDEST DUP3 ADD SWAP2 SWAP1 PUSH1 0x0 MSTORE PUSH1 0x20 PUSH1 0x0 KECCAK256 SWAP1 JUMPDEST DUP2 SLOAD DUP2 MSTORE SWAP1 PUSH1 0x1 ADD SWAP1 PUSH1 0x20 ADD DUP1 DUP4 GT PUSH2 0xDF9 JUMPI DUP3 SWAP1 SUB PUSH1 0x1F AND DUP3 ADD SWAP2 JUMPDEST POP POP POP POP POP DUP2 MSTORE PUSH1 0x20 ADD SWAP1 PUSH1 0x1 ADD SWAP1 PUSH2 0xD7E JUMP JUMPDEST POP POP POP POP SWAP1 POP SWAP1 JUMP JUMPDEST PUSH1 0x40 MLOAD DUP1 PUSH1 0x80 ADD PUSH1 0x40 MSTORE DUP1 CALLER PUSH20 0xFFFFFFFFFFFFFFFFFFFFFFFFFFFFFFFFFFFFFFFF AND DUP2 MSTORE PUSH1 0x20 ADD DUP3 DUP2 MSTORE PUSH1 0x20 ADD DUP4 DUP2 MSTORE PUSH1 0x20 ADD PUSH1 0xC SLOAD DUP2 MSTORE POP PUSH1 0x7 DUP5 PUSH1 0x40 MLOAD PUSH2 0xE7C SWAP2 SWAP1 PUSH2 0x20FC JUMP JUMPDEST SWAP1 DUP2 MSTORE PUSH1 0x20 ADD PUSH1 0x40 MLOAD DUP1 SWAP2 SUB SWAP1 KECCAK256 PUSH1 0x0 DUP3 ADD MLOAD DUP2 PUSH1 0x0 ADD PUSH1 0x0 PUSH2 0x100 EXP DUP2 SLOAD DUP2 PUSH20 0xFFFFFFFFFFFFFFFFFFFFFFFFFFFFFFFFFFFFFFFF MUL NOT AND SWAP1 DUP4 PUSH20 0xFFFFFFFFFFFFFFFFFFFFFFFFFFFFFFFFFFFFFFFF AND MUL OR SWAP1 SSTORE POP PUSH1 0x20 DUP3 ADD MLOAD DUP2 PUSH1 0x1 ADD SWAP1 DUP1 MLOAD SWAP1 PUSH1 0x20 ADD SWAP1 PUSH2 0xEED SWAP3 SWAP2 SWAP1 PUSH2 0x1ACF JUMP JUMPDEST POP PUSH1 0x40 DUP3 ADD MLOAD DUP2 PUSH1 0x2 ADD SSTORE PUSH1 0x60 DUP3 ADD MLOAD DUP2 PUSH1 0x3 ADD SSTORE SWAP1 POP POP PUSH1 0x8 DUP4 SWAP1 DUP1 PUSH1 0x1 DUP2 SLOAD ADD DUP1 DUP3 SSTORE DUP1 SWAP2 POP POP PUSH1 0x1 SWAP1 SUB SWAP1 PUSH1 0x0 MSTORE PUSH1 0x20 PUSH1 0x0 KECCAK256 ADD PUSH1 0x0 SWAP1 SWAP2 SWAP1 SWAP2 SWAP1 SWAP2 POP SWAP1 DUP1 MLOAD SWAP1 PUSH1 0x20 ADD SWAP1 PUSH2 0xF40 SWAP3 SWAP2 SWAP1 PUSH2 0x1ACF JUMP JUMPDEST POP PUSH1 0xC PUSH1 0x0 DUP2 SLOAD DUP1 SWAP3 SWAP2 SWAP1 PUSH2 0xF54 SWAP1 PUSH2 0x2537 JUMP JUMPDEST SWAP2 SWAP1 POP SSTORE POP POP POP POP JUMP JUMPDEST PUSH1 0xB DUP2 DUP2 SLOAD DUP2 LT PUSH2 0xF6E JUMPI PUSH1 0x0 DUP1 REVERT JUMPDEST SWAP1 PUSH1 0x0 MSTORE PUSH1 0x20 PUSH1 0x0 KECCAK256 SWAP1 PUSH1 0x3 MUL ADD PUSH1 0x0 SWAP2 POP SWAP1 POP DUP1 PUSH1 0x0 ADD PUSH1 0x0 SWAP1 SLOAD SWAP1 PUSH2 0x100 EXP SWAP1 DIV PUSH20 0xFFFFFFFFFFFFFFFFFFFFFFFFFFFFFFFFFFFFFFFF AND SWAP1 DUP1 PUSH1 0x1 ADD DUP1 SLOAD PUSH2 0xFB7 SWAP1 PUSH2 0x24D4 JUMP JUMPDEST DUP1 PUSH1 0x1F ADD PUSH1 0x20 DUP1 SWAP2 DIV MUL PUSH1 0x20 ADD PUSH1 0x40 MLOAD SWAP1 DUP2 ADD PUSH1 0x40 MSTORE DUP1 SWAP3 SWAP2 SWAP1 DUP2 DUP2 MSTORE PUSH1 0x20 ADD DUP3 DUP1 SLOAD PUSH2 0xFE3 SWAP1 PUSH2 0x24D4 JUMP JUMPDEST DUP1 ISZERO PUSH2 0x1030 JUMPI DUP1 PUSH1 0x1F LT PUSH2 0x1005 JUMPI PUSH2 0x100 DUP1 DUP4 SLOAD DIV MUL DUP4 MSTORE SWAP2 PUSH1 0x20 ADD SWAP2 PUSH2 0x1030 JUMP JUMPDEST DUP3 ADD SWAP2 SWAP1 PUSH1 0x0 MSTORE PUSH1 0x20 PUSH1 0x0 KECCAK256 SWAP1 JUMPDEST DUP2 SLOAD DUP2 MSTORE SWAP1 PUSH1 0x1 ADD SWAP1 PUSH1 0x20 ADD DUP1 DUP4 GT PUSH2 0x1013 JUMPI DUP3 SWAP1 SUB PUSH1 0x1F AND DUP3 ADD SWAP2 JUMPDEST POP POP POP POP POP SWAP1 DUP1 PUSH1 0x2 ADD PUSH1 0x0 SWAP1 SLOAD SWAP1 PUSH2 0x100 EXP SWAP1 DIV PUSH1 0xFF AND SWAP1 POP DUP4 JUMP JUMPDEST PUSH1 0x4 PUSH1 0x20 MSTORE DUP1 PUSH1 0x0 MSTORE PUSH1 0x40 PUSH1 0x0 KECCAK256 PUSH1 0x0 SWAP2 POP SWAP1 POP DUP1 PUSH1 0x0 ADD DUP1 SLOAD PUSH2 0x1070 SWAP1 PUSH2 0x24D4 JUMP JUMPDEST DUP1 PUSH1 0x1F ADD PUSH1 0x20 DUP1 SWAP2 DIV MUL PUSH1 0x20 ADD PUSH1 0x40 MLOAD SWAP1 DUP2 ADD PUSH1 0x40 MSTORE DUP1 SWAP3 SWAP2 SWAP1 DUP2 DUP2 MSTORE PUSH1 0x20 ADD DUP3 DUP1 SLOAD PUSH2 0x109C SWAP1 PUSH2 0x24D4 JUMP JUMPDEST DUP1 ISZERO PUSH2 0x10E9 JUMPI DUP1 PUSH1 0x1F LT PUSH2 0x10BE JUMPI PUSH2 0x100 DUP1 DUP4 SLOAD DIV MUL DUP4 MSTORE SWAP2 PUSH1 0x20 ADD SWAP2 PUSH2 0x10E9 JUMP JUMPDEST DUP3 ADD SWAP2 SWAP1 PUSH1 0x0 MSTORE PUSH1 0x20 PUSH1 0x0 KECCAK256 SWAP1 JUMPDEST DUP2 SLOAD DUP2 MSTORE SWAP1 PUSH1 0x1 ADD SWAP1 PUSH1 0x20 ADD DUP1 DUP4 GT PUSH2 0x10CC JUMPI DUP3 SWAP1 SUB PUSH1 0x1F AND DUP3 ADD SWAP2 JUMPDEST POP POP POP POP POP SWAP1 DUP1 PUSH1 0x1 ADD SLOAD SWAP1 DUP1 PUSH1 0x2 ADD SLOAD SWAP1 POP DUP4 JUMP JUMPDEST PUSH1 0x0 DUP1 PUSH1 0x0 SWAP1 POP PUSH1 0x0 PUSH1 0x3 DUP1 SLOAD SWAP1 POP SWAP1 POP PUSH1 0x0 JUMPDEST PUSH1 0x2 DUP1 SLOAD SWAP1 POP DUP2 LT ISZERO PUSH2 0x11DF JUMPI PUSH1 0x0 PUSH1 0x2 DUP3 DUP2 SLOAD DUP2 LT PUSH2 0x1136 JUMPI PUSH2 0x1135 PUSH2 0x25DE JUMP JUMPDEST JUMPDEST SWAP1 PUSH1 0x0 MSTORE PUSH1 0x20 PUSH1 0x0 KECCAK256 ADD DUP1 SLOAD PUSH2 0x114B SWAP1 PUSH2 0x24D4 JUMP JUMPDEST DUP1 PUSH1 0x1F ADD PUSH1 0x20 DUP1 SWAP2 DIV MUL PUSH1 0x20 ADD PUSH1 0x40 MLOAD SWAP1 DUP2 ADD PUSH1 0x40 MSTORE DUP1 SWAP3 SWAP2 SWAP1 DUP2 DUP2 MSTORE PUSH1 0x20 ADD DUP3 DUP1 SLOAD PUSH2 0x1177 SWAP1 PUSH2 0x24D4 JUMP JUMPDEST DUP1 ISZERO PUSH2 0x11C4 JUMPI DUP1 PUSH1 0x1F LT PUSH2 0x1199 JUMPI PUSH2 0x100 DUP1 DUP4 SLOAD DIV MUL DUP4 MSTORE SWAP2 PUSH1 0x20 ADD SWAP2 PUSH2 0x11C4 JUMP JUMPDEST DUP3 ADD SWAP2 SWAP1 PUSH1 0x0 MSTORE PUSH1 0x20 PUSH1 0x0 KECCAK256 SWAP1 JUMPDEST DUP2 SLOAD DUP2 MSTORE SWAP1 PUSH1 0x1 ADD SWAP1 PUSH1 0x20 ADD DUP1 DUP4 GT PUSH2 0x11A7 JUMPI DUP3 SWAP1 SUB PUSH1 0x1F AND DUP3 ADD SWAP2 JUMPDEST POP POP POP POP POP SWAP1 POP POP DUP1 DUP1 PUSH2 0x11D7 SWAP1 PUSH2 0x2537 JUMP JUMPDEST SWAP2 POP POP PUSH2 0x1113 JUMP JUMPDEST POP PUSH1 0x0 JUMPDEST DUP2 DUP2 LT ISZERO PUSH2 0x11FE JUMPI DUP1 DUP1 PUSH2 0x11F6 SWAP1 PUSH2 0x2537 JUMP JUMPDEST SWAP2 POP POP PUSH2 0x11E3 JUMP JUMPDEST POP DUP2 SWAP3 POP POP POP SWAP2 SWAP1 POP JUMP JUMPDEST PUSH1 0xA DUP2 DUP2 SLOAD DUP2 LT PUSH2 0x1219 JUMPI PUSH1 0x0 DUP1 REVERT JUMPDEST SWAP1 PUSH1 0x0 MSTORE PUSH1 0x20 PUSH1 0x0 KECCAK256 SWAP1 PUSH1 0x3 MUL ADD PUSH1 0x0 SWAP2 POP SWAP1 POP DUP1 PUSH1 0x0 ADD PUSH1 0x0 SWAP1 SLOAD SWAP1 PUSH2 0x100 EXP SWAP1 DIV PUSH20 0xFFFFFFFFFFFFFFFFFFFFFFFFFFFFFFFFFFFFFFFF AND SWAP1 DUP1 PUSH1 0x1 ADD DUP1 SLOAD PUSH2 0x1262 SWAP1 PUSH2 0x24D4 JUMP JUMPDEST DUP1 PUSH1 0x1F ADD PUSH1 0x20 DUP1 SWAP2 DIV MUL PUSH1 0x20 ADD PUSH1 0x40 MLOAD SWAP1 DUP2 ADD PUSH1 0x40 MSTORE DUP1 SWAP3 SWAP2 SWAP1 DUP2 DUP2 MSTORE PUSH1 0x20 ADD DUP3 DUP1 SLOAD PUSH2 0x128E SWAP1 PUSH2 0x24D4 JUMP JUMPDEST DUP1 ISZERO PUSH2 0x12DB JUMPI DUP1 PUSH1 0x1F LT PUSH2 0x12B0 JUMPI PUSH2 0x100 DUP1 DUP4 SLOAD DIV MUL DUP4 MSTORE SWAP2 PUSH1 0x20 ADD SWAP2 PUSH2 0x12DB JUMP JUMPDEST DUP3 ADD SWAP2 SWAP1 PUSH1 0x0 MSTORE PUSH1 0x20 PUSH1 0x0 KECCAK256 SWAP1 JUMPDEST DUP2 SLOAD DUP2 MSTORE SWAP1 PUSH1 0x1 ADD SWAP1 PUSH1 0x20 ADD DUP1 DUP4 GT PUSH2 0x12BE JUMPI DUP3 SWAP1 SUB PUSH1 0x1F AND DUP3 ADD SWAP2 JUMPDEST POP POP POP POP POP SWAP1 DUP1 PUSH1 0x2 ADD PUSH1 0x0 SWAP1 SLOAD SWAP1 PUSH2 0x100 EXP SWAP1 DIV PUSH1 0xFF AND SWAP1 POP DUP4 JUMP JUMPDEST PUSH1 0xA PUSH1 0x40 MLOAD DUP1 PUSH1 0x60 ADD PUSH1 0x40 MSTORE DUP1 CALLER PUSH20 0xFFFFFFFFFFFFFFFFFFFFFFFFFFFFFFFFFFFFFFFF AND DUP2 MSTORE PUSH1 0x20 ADD DUP4 DUP2 MSTORE PUSH1 0x20 ADD PUSH1 0x1 ISZERO ISZERO DUP2 MSTORE POP SWAP1 DUP1 PUSH1 0x1 DUP2 SLOAD ADD DUP1 DUP3 SSTORE DUP1 SWAP2 POP POP PUSH1 0x1 SWAP1 SUB SWAP1 PUSH1 0x0 MSTORE PUSH1 0x20 PUSH1 0x0 KECCAK256 SWAP1 PUSH1 0x3 MUL ADD PUSH1 0x0 SWAP1 SWAP2 SWAP1 SWAP2 SWAP1 SWAP2 POP PUSH1 0x0 DUP3 ADD MLOAD DUP2 PUSH1 0x0 ADD PUSH1 0x0 PUSH2 0x100 EXP DUP2 SLOAD DUP2 PUSH20 0xFFFFFFFFFFFFFFFFFFFFFFFFFFFFFFFFFFFFFFFF MUL NOT AND SWAP1 DUP4 PUSH20 0xFFFFFFFFFFFFFFFFFFFFFFFFFFFFFFFFFFFFFFFF AND MUL OR SWAP1 SSTORE POP PUSH1 0x20 DUP3 ADD MLOAD DUP2 PUSH1 0x1 ADD SWAP1 DUP1 MLOAD SWAP1 PUSH1 0x20 ADD SWAP1 PUSH2 0x13BA SWAP3 SWAP2 SWAP1 PUSH2 0x1ACF JUMP JUMPDEST POP PUSH1 0x40 DUP3 ADD MLOAD DUP2 PUSH1 0x2 ADD PUSH1 0x0 PUSH2 0x100 EXP DUP2 SLOAD DUP2 PUSH1 0xFF MUL NOT AND SWAP1 DUP4 ISZERO ISZERO MUL OR SWAP1 SSTORE POP POP POP POP JUMP JUMPDEST PUSH1 0x60 PUSH1 0x2 DUP1 SLOAD DUP1 PUSH1 0x20 MUL PUSH1 0x20 ADD PUSH1 0x40 MLOAD SWAP1 DUP2 ADD PUSH1 0x40 MSTORE DUP1 SWAP3 SWAP2 SWAP1 DUP2 DUP2 MSTORE PUSH1 0x20 ADD PUSH1 0x0 SWAP1 JUMPDEST DUP3 DUP3 LT ISZERO PUSH2 0x14B0 JUMPI DUP4 DUP3 SWAP1 PUSH1 0x0 MSTORE PUSH1 0x20 PUSH1 0x0 KECCAK256 ADD DUP1 SLOAD PUSH2 0x1423 SWAP1 PUSH2 0x24D4 JUMP JUMPDEST DUP1 PUSH1 0x1F ADD PUSH1 0x20 DUP1 SWAP2 DIV MUL PUSH1 0x20 ADD PUSH1 0x40 MLOAD SWAP1 DUP2 ADD PUSH1 0x40 MSTORE DUP1 SWAP3 SWAP2 SWAP1 DUP2 DUP2 MSTORE PUSH1 0x20 ADD DUP3 DUP1 SLOAD PUSH2 0x144F SWAP1 PUSH2 0x24D4 JUMP JUMPDEST DUP1 ISZERO PUSH2 0x149C JUMPI DUP1 PUSH1 0x1F LT PUSH2 0x1471 JUMPI PUSH2 0x100 DUP1 DUP4 SLOAD DIV MUL DUP4 MSTORE SWAP2 PUSH1 0x20 ADD SWAP2 PUSH2 0x149C JUMP JUMPDEST DUP3 ADD SWAP2 SWAP1 PUSH1 0x0 MSTORE PUSH1 0x20 PUSH1 0x0 KECCAK256 SWAP1 JUMPDEST DUP2 SLOAD DUP2 MSTORE SWAP1 PUSH1 0x1 ADD SWAP1 PUSH1 0x20 ADD DUP1 DUP4 GT PUSH2 0x147F JUMPI DUP3 SWAP1 SUB PUSH1 0x1F AND DUP3 ADD SWAP2 JUMPDEST POP POP POP POP POP DUP2 MSTORE PUSH1 0x20 ADD SWAP1 PUSH1 0x1 ADD SWAP1 PUSH2 0x1404 JUMP JUMPDEST POP POP POP POP SWAP1 POP SWAP1 JUMP JUMPDEST PUSH1 0x1 DUP2 DUP1 MLOAD PUSH1 0x20 DUP2 ADD DUP3 ADD DUP1 MLOAD DUP5 DUP3 MSTORE PUSH1 0x20 DUP4 ADD PUSH1 0x20 DUP6 ADD KECCAK256 DUP2 DUP4 MSTORE DUP1 SWAP6 POP POP POP POP POP POP PUSH1 0x0 SWAP2 POP SLOAD SWAP1 PUSH2 0x100 EXP SWAP1 DIV PUSH20 0xFFFFFFFFFFFFFFFFFFFFFFFFFFFFFFFFFFFFFFFF AND DUP2 JUMP JUMPDEST PUSH1 0xA DUP2 GT ISZERO PUSH2 0x1546 JUMPI PUSH1 0x40 MLOAD PUSH32 0x8C379A000000000000000000000000000000000000000000000000000000000 DUP2 MSTORE PUSH1 0x4 ADD PUSH2 0x153D SWAP1 PUSH2 0x22A9 JUMP JUMPDEST PUSH1 0x40 MLOAD DUP1 SWAP2 SUB SWAP1 REVERT JUMPDEST PUSH1 0x60 PUSH1 0x40 MLOAD DUP1 PUSH1 0xA0 ADD PUSH1 0x40 MSTORE DUP1 DUP6 DUP2 MSTORE PUSH1 0x20 ADD PUSH1 0x4 PUSH1 0x0 CALLER PUSH20 0xFFFFFFFFFFFFFFFFFFFFFFFFFFFFFFFFFFFFFFFF AND PUSH20 0xFFFFFFFFFFFFFFFFFFFFFFFFFFFFFFFFFFFFFFFF AND DUP2 MSTORE PUSH1 0x20 ADD SWAP1 DUP2 MSTORE PUSH1 0x20 ADD PUSH1 0x0 KECCAK256 PUSH1 0x0 ADD DUP1 SLOAD PUSH2 0x15A6 SWAP1 PUSH2 0x24D4 JUMP JUMPDEST DUP1 PUSH1 0x1F ADD PUSH1 0x20 DUP1 SWAP2 DIV MUL PUSH1 0x20 ADD PUSH1 0x40 MLOAD SWAP1 DUP2 ADD PUSH1 0x40 MSTORE DUP1 SWAP3 SWAP2 SWAP1 DUP2 DUP2 MSTORE PUSH1 0x20 ADD DUP3 DUP1 SLOAD PUSH2 0x15D2 SWAP1 PUSH2 0x24D4 JUMP JUMPDEST DUP1 ISZERO PUSH2 0x161F JUMPI DUP1 PUSH1 0x1F LT PUSH2 0x15F4 JUMPI PUSH2 0x100 DUP1 DUP4 SLOAD DIV MUL DUP4 MSTORE SWAP2 PUSH1 0x20 ADD SWAP2 PUSH2 0x161F JUMP JUMPDEST DUP3 ADD SWAP2 SWAP1 PUSH1 0x0 MSTORE PUSH1 0x20 PUSH1 0x0 KECCAK256 SWAP1 JUMPDEST DUP2 SLOAD DUP2 MSTORE SWAP1 PUSH1 0x1 ADD SWAP1 PUSH1 0x20 ADD DUP1 DUP4 GT PUSH2 0x1602 JUMPI DUP3 SWAP1 SUB PUSH1 0x1F AND DUP3 ADD SWAP2 JUMPDEST POP POP POP POP POP DUP2 MSTORE PUSH1 0x20 ADD DUP5 DUP2 MSTORE PUSH1 0x20 ADD DUP4 DUP2 MSTORE PUSH1 0x20 ADD DUP3 DUP2 MSTORE POP PUSH1 0x3 PUSH1 0xD SLOAD DUP2 SLOAD DUP2 LT PUSH2 0x164F JUMPI PUSH2 0x164E PUSH2 0x25DE JUMP JUMPDEST JUMPDEST SWAP1 PUSH1 0x0 MSTORE PUSH1 0x20 PUSH1 0x0 KECCAK256 SWAP1 PUSH1 0x5 MUL ADD PUSH1 0x0 DUP3 ADD MLOAD DUP2 PUSH1 0x0 ADD SWAP1 DUP1 MLOAD SWAP1 PUSH1 0x20 ADD SWAP1 PUSH2 0x1679 SWAP3 SWAP2 SWAP1 PUSH2 0x1ACF JUMP JUMPDEST POP PUSH1 0x20 DUP3 ADD MLOAD DUP2 PUSH1 0x1 ADD SWAP1 DUP1 MLOAD SWAP1 PUSH1 0x20 ADD SWAP1 PUSH2 0x1696 SWAP3 SWAP2 SWAP1 PUSH2 0x1ACF JUMP JUMPDEST POP PUSH1 0x40 DUP3 ADD MLOAD DUP2 PUSH1 0x2 ADD SWAP1 DUP1 MLOAD SWAP1 PUSH1 0x20 ADD SWAP1 PUSH2 0x16B3 SWAP3 SWAP2 SWAP1 PUSH2 0x1ACF JUMP JUMPDEST POP PUSH1 0x60 DUP3 ADD MLOAD DUP2 PUSH1 0x3 ADD SSTORE PUSH1 0x80 DUP3 ADD MLOAD DUP2 PUSH1 0x4 ADD SWAP1 DUP1 MLOAD SWAP1 PUSH1 0x20 ADD SWAP1 PUSH2 0x16DA SWAP3 SWAP2 SWAP1 PUSH2 0x1B55 JUMP JUMPDEST POP SWAP1 POP POP PUSH1 0xD PUSH1 0x0 DUP2 SLOAD DUP1 SWAP3 SWAP2 SWAP1 PUSH2 0x16F1 SWAP1 PUSH2 0x2537 JUMP JUMPDEST SWAP2 SWAP1 POP SSTORE POP POP POP POP POP JUMP JUMPDEST PUSH1 0x7 DUP2 DUP1 MLOAD PUSH1 0x20 DUP2 ADD DUP3 ADD DUP1 MLOAD DUP5 DUP3 MSTORE PUSH1 0x20 DUP4 ADD PUSH1 0x20 DUP6 ADD KECCAK256 DUP2 DUP4 MSTORE DUP1 SWAP6 POP POP POP POP POP POP PUSH1 0x0 SWAP2 POP SWAP1 POP DUP1 PUSH1 0x0 ADD PUSH1 0x0 SWAP1 SLOAD SWAP1 PUSH2 0x100 EXP SWAP1 DIV PUSH20 0xFFFFFFFFFFFFFFFFFFFFFFFFFFFFFFFFFFFFFFFF AND SWAP1 DUP1 PUSH1 0x1 ADD DUP1 SLOAD PUSH2 0x175B SWAP1 PUSH2 0x24D4 JUMP JUMPDEST DUP1 PUSH1 0x1F ADD PUSH1 0x20 DUP1 SWAP2 DIV MUL PUSH1 0x20 ADD PUSH1 0x40 MLOAD SWAP1 DUP2 ADD PUSH1 0x40 MSTORE DUP1 SWAP3 SWAP2 SWAP1 DUP2 DUP2 MSTORE PUSH1 0x20 ADD DUP3 DUP1 SLOAD PUSH2 0x1787 SWAP1 PUSH2 0x24D4 JUMP JUMPDEST DUP1 ISZERO PUSH2 0x17D4 JUMPI DUP1 PUSH1 0x1F LT PUSH2 0x17A9 JUMPI PUSH2 0x100 DUP1 DUP4 SLOAD DIV MUL DUP4 MSTORE SWAP2 PUSH1 0x20 ADD SWAP2 PUSH2 0x17D4 JUMP JUMPDEST DUP3 ADD SWAP2 SWAP1 PUSH1 0x0 MSTORE PUSH1 0x20 PUSH1 0x0 KECCAK256 SWAP1 JUMPDEST DUP2 SLOAD DUP2 MSTORE SWAP1 PUSH1 0x1 ADD SWAP1 PUSH1 0x20 ADD DUP1 DUP4 GT PUSH2 0x17B7 JUMPI DUP3 SWAP1 SUB PUSH1 0x1F AND DUP3 ADD SWAP2 JUMPDEST POP POP POP POP POP SWAP1 DUP1 PUSH1 0x2 ADD SLOAD SWAP1 DUP1 PUSH1 0x3 ADD SLOAD SWAP1 POP DUP5 JUMP JUMPDEST PUSH1 0x9 DUP2 DUP2 SLOAD DUP2 LT PUSH2 0x17FA JUMPI PUSH1 0x0 DUP1 REVERT JUMPDEST SWAP1 PUSH1 0x0 MSTORE PUSH1 0x20 PUSH1 0x0 KECCAK256 SWAP1 PUSH1 0x3 MUL ADD PUSH1 0x0 SWAP2 POP SWAP1 POP DUP1 PUSH1 0x0 ADD PUSH1 0x0 SWAP1 SLOAD SWAP1 PUSH2 0x100 EXP SWAP1 DIV PUSH20 0xFFFFFFFFFFFFFFFFFFFFFFFFFFFFFFFFFFFFFFFF AND SWAP1 DUP1 PUSH1 0x1 ADD DUP1 SLOAD PUSH2 0x1843 SWAP1 PUSH2 0x24D4 JUMP JUMPDEST DUP1 PUSH1 0x1F ADD PUSH1 0x20 DUP1 SWAP2 DIV MUL PUSH1 0x20 ADD PUSH1 0x40 MLOAD SWAP1 DUP2 ADD PUSH1 0x40 MSTORE DUP1 SWAP3 SWAP2 SWAP1 DUP2 DUP2 MSTORE PUSH1 0x20 ADD DUP3 DUP1 SLOAD PUSH2 0x186F SWAP1 PUSH2 0x24D4 JUMP JUMPDEST DUP1 ISZERO PUSH2 0x18BC JUMPI DUP1 PUSH1 0x1F LT PUSH2 0x1891 JUMPI PUSH2 0x100 DUP1 DUP4 SLOAD DIV MUL DUP4 MSTORE SWAP2 PUSH1 0x20 ADD SWAP2 PUSH2 0x18BC JUMP JUMPDEST DUP3 ADD SWAP2 SWAP1 PUSH1 0x0 MSTORE PUSH1 0x20 PUSH1 0x0 KECCAK256 SWAP1 JUMPDEST DUP2 SLOAD DUP2 MSTORE SWAP1 PUSH1 0x1 ADD SWAP1 PUSH1 0x20 ADD DUP1 DUP4 GT PUSH2 0x189F JUMPI DUP3 SWAP1 SUB PUSH1 0x1F AND DUP3 ADD SWAP2 JUMPDEST POP POP POP POP POP SWAP1 DUP1 PUSH1 0x2 ADD PUSH1 0x0 SWAP1 SLOAD SWAP1 PUSH2 0x100 EXP SWAP1 DIV PUSH1 0xFF AND SWAP1 POP DUP4 JUMP JUMPDEST PUSH1 0x1 ISZERO ISZERO DUP2 ISZERO ISZERO EQ ISZERO PUSH2 0x1A8C JUMPI PUSH1 0x0 PUSH1 0xA DUP4 DUP2 SLOAD DUP2 LT PUSH2 0x18FC JUMPI PUSH2 0x18FB PUSH2 0x25DE JUMP JUMPDEST JUMPDEST SWAP1 PUSH1 0x0 MSTORE PUSH1 0x20 PUSH1 0x0 KECCAK256 SWAP1 PUSH1 0x3 MUL ADD PUSH1 0x2 ADD PUSH1 0x0 PUSH2 0x100 EXP DUP2 SLOAD DUP2 PUSH1 0xFF MUL NOT AND SWAP1 DUP4 ISZERO ISZERO MUL OR SWAP1 SSTORE POP PUSH1 0x7 PUSH1 0xB DUP4 DUP2 SLOAD DUP2 LT PUSH2 0x193A JUMPI PUSH2 0x1939 PUSH2 0x25DE JUMP JUMPDEST JUMPDEST SWAP1 PUSH1 0x0 MSTORE PUSH1 0x20 PUSH1 0x0 KECCAK256 SWAP1 PUSH1 0x3 MUL ADD PUSH1 0x1 ADD PUSH1 0x40 MLOAD PUSH2 0x1958 SWAP2 SWAP1 PUSH2 0x2113 JUMP JUMPDEST SWAP1 DUP2 MSTORE PUSH1 0x20 ADD PUSH1 0x40 MLOAD DUP1 SWAP2 SUB SWAP1 KECCAK256 PUSH1 0x2 ADD SLOAD PUSH1 0x4 PUSH1 0x0 PUSH1 0xB DUP6 DUP2 SLOAD DUP2 LT PUSH2 0x1982 JUMPI PUSH2 0x1981 PUSH2 0x25DE JUMP JUMPDEST JUMPDEST SWAP1 PUSH1 0x0 MSTORE PUSH1 0x20 PUSH1 0x0 KECCAK256 SWAP1 PUSH1 0x3 MUL ADD PUSH1 0x0 ADD PUSH1 0x0 SWAP1 SLOAD SWAP1 PUSH2 0x100 EXP SWAP1 DIV PUSH20 0xFFFFFFFFFFFFFFFFFFFFFFFFFFFFFFFFFFFFFFFF AND PUSH20 0xFFFFFFFFFFFFFFFFFFFFFFFFFFFFFFFFFFFFFFFF AND PUSH20 0xFFFFFFFFFFFFFFFFFFFFFFFFFFFFFFFFFFFFFFFF AND DUP2 MSTORE PUSH1 0x20 ADD SWAP1 DUP2 MSTORE PUSH1 0x20 ADD PUSH1 0x0 KECCAK256 PUSH1 0x2 ADD SLOAD PUSH2 0x19FC SWAP2 SWAP1 PUSH2 0x23C0 JUMP JUMPDEST PUSH1 0x4 PUSH1 0x0 PUSH1 0xB DUP6 DUP2 SLOAD DUP2 LT PUSH2 0x1A14 JUMPI PUSH2 0x1A13 PUSH2 0x25DE JUMP JUMPDEST JUMPDEST SWAP1 PUSH1 0x0 MSTORE PUSH1 0x20 PUSH1 0x0 KECCAK256 SWAP1 PUSH1 0x3 MUL ADD PUSH1 0x0 ADD PUSH1 0x0 SWAP1 SLOAD SWAP1 PUSH2 0x100 EXP SWAP1 DIV PUSH20 0xFFFFFFFFFFFFFFFFFFFFFFFFFFFFFFFFFFFFFFFF AND PUSH20 0xFFFFFFFFFFFFFFFFFFFFFFFFFFFFFFFFFFFFFFFF AND PUSH20 0xFFFFFFFFFFFFFFFFFFFFFFFFFFFFFFFFFFFFFFFF AND DUP2 MSTORE PUSH1 0x20 ADD SWAP1 DUP2 MSTORE PUSH1 0x20 ADD PUSH1 0x0 KECCAK256 PUSH1 0x2 ADD DUP2 SWAP1 SSTORE POP PUSH2 0x1ACB JUMP JUMPDEST PUSH1 0x0 PUSH1 0xA DUP4 DUP2 SLOAD DUP2 LT PUSH2 0x1AA2 JUMPI PUSH2 0x1AA1 PUSH2 0x25DE JUMP JUMPDEST JUMPDEST SWAP1 PUSH1 0x0 MSTORE PUSH1 0x20 PUSH1 0x0 KECCAK256 SWAP1 PUSH1 0x3 MUL ADD PUSH1 0x2 ADD PUSH1 0x0 PUSH2 0x100 EXP DUP2 SLOAD DUP2 PUSH1 0xFF MUL NOT AND SWAP1 DUP4 ISZERO ISZERO MUL OR SWAP1 SSTORE POP JUMPDEST POP POP JUMP JUMPDEST DUP3 DUP1 SLOAD PUSH2 0x1ADB SWAP1 PUSH2 0x24D4 JUMP JUMPDEST SWAP1 PUSH1 0x0 MSTORE PUSH1 0x20 PUSH1 0x0 KECCAK256 SWAP1 PUSH1 0x1F ADD PUSH1 0x20 SWAP1 DIV DUP2 ADD SWAP3 DUP3 PUSH2 0x1AFD JUMPI PUSH1 0x0 DUP6 SSTORE PUSH2 0x1B44 JUMP JUMPDEST DUP3 PUSH1 0x1F LT PUSH2 0x1B16 JUMPI DUP1 MLOAD PUSH1 0xFF NOT AND DUP4 DUP1 ADD OR DUP6 SSTORE PUSH2 0x1B44 JUMP JUMPDEST DUP3 DUP1 ADD PUSH1 0x1 ADD DUP6 SSTORE DUP3 ISZERO PUSH2 0x1B44 JUMPI SWAP2 DUP3 ADD JUMPDEST DUP3 DUP2 GT ISZERO PUSH2 0x1B43 JUMPI DUP3 MLOAD DUP3 SSTORE SWAP2 PUSH1 0x20 ADD SWAP2 SWAP1 PUSH1 0x1 ADD SWAP1 PUSH2 0x1B28 JUMP JUMPDEST JUMPDEST POP SWAP1 POP PUSH2 0x1B51 SWAP2 SWAP1 PUSH2 0x1BB5 JUMP JUMPDEST POP SWAP1 JUMP JUMPDEST DUP3 DUP1 SLOAD DUP3 DUP3 SSTORE SWAP1 PUSH1 0x0 MSTORE PUSH1 0x20 PUSH1 0x0 KECCAK256 SWAP1 DUP2 ADD SWAP3 DUP3 ISZERO PUSH2 0x1BA4 JUMPI SWAP2 PUSH1 0x20 MUL DUP3 ADD JUMPDEST DUP3 DUP2 GT ISZERO PUSH2 0x1BA3 JUMPI DUP3 MLOAD DUP3 SWAP1 DUP1 MLOAD SWAP1 PUSH1 0x20 ADD SWAP1 PUSH2 0x1B93 SWAP3 SWAP2 SWAP1 PUSH2 0x1ACF JUMP JUMPDEST POP SWAP2 PUSH1 0x20 ADD SWAP2 SWAP1 PUSH1 0x1 ADD SWAP1 PUSH2 0x1B75 JUMP JUMPDEST JUMPDEST POP SWAP1 POP PUSH2 0x1BB1 SWAP2 SWAP1 PUSH2 0x1BD2 JUMP JUMPDEST POP SWAP1 JUMP JUMPDEST JUMPDEST DUP1 DUP3 GT ISZERO PUSH2 0x1BCE JUMPI PUSH1 0x0 DUP2 PUSH1 0x0 SWAP1 SSTORE POP PUSH1 0x1 ADD PUSH2 0x1BB6 JUMP JUMPDEST POP SWAP1 JUMP JUMPDEST JUMPDEST DUP1 DUP3 GT ISZERO PUSH2 0x1BF2 JUMPI PUSH1 0x0 DUP2 DUP2 PUSH2 0x1BE9 SWAP2 SWAP1 PUSH2 0x1BF6 JUMP JUMPDEST POP PUSH1 0x1 ADD PUSH2 0x1BD3 JUMP JUMPDEST POP SWAP1 JUMP JUMPDEST POP DUP1 SLOAD PUSH2 0x1C02 SWAP1 PUSH2 0x24D4 JUMP JUMPDEST PUSH1 0x0 DUP3 SSTORE DUP1 PUSH1 0x1F LT PUSH2 0x1C14 JUMPI POP PUSH2 0x1C33 JUMP JUMPDEST PUSH1 0x1F ADD PUSH1 0x20 SWAP1 DIV SWAP1 PUSH1 0x0 MSTORE PUSH1 0x20 PUSH1 0x0 KECCAK256 SWAP1 DUP2 ADD SWAP1 PUSH2 0x1C32 SWAP2 SWAP1 PUSH2 0x1BB5 JUMP JUMPDEST JUMPDEST POP JUMP JUMPDEST PUSH1 0x0 PUSH2 0x1C49 PUSH2 0x1C44 DUP5 PUSH2 0x2309 JUMP JUMPDEST PUSH2 0x22E4 JUMP JUMPDEST SWAP1 POP DUP3 DUP2 MSTORE PUSH1 0x20 DUP2 ADD DUP5 DUP5 DUP5 ADD GT ISZERO PUSH2 0x1C65 JUMPI PUSH2 0x1C64 PUSH2 0x2641 JUMP JUMPDEST JUMPDEST PUSH2 0x1C70 DUP5 DUP3 DUP6 PUSH2 0x2492 JUMP JUMPDEST POP SWAP4 SWAP3 POP POP POP JUMP JUMPDEST PUSH1 0x0 DUP2 CALLDATALOAD SWAP1 POP PUSH2 0x1C87 DUP2 PUSH2 0x26D9 JUMP JUMPDEST SWAP3 SWAP2 POP POP JUMP JUMPDEST PUSH1 0x0 DUP2 CALLDATALOAD SWAP1 POP PUSH2 0x1C9C DUP2 PUSH2 0x26F0 JUMP JUMPDEST SWAP3 SWAP2 POP POP JUMP JUMPDEST PUSH1 0x0 DUP3 PUSH1 0x1F DUP4 ADD SLT PUSH2 0x1CB7 JUMPI PUSH2 0x1CB6 PUSH2 0x263C JUMP JUMPDEST JUMPDEST DUP2 CALLDATALOAD PUSH2 0x1CC7 DUP5 DUP3 PUSH1 0x20 DUP7 ADD PUSH2 0x1C36 JUMP JUMPDEST SWAP2 POP POP SWAP3 SWAP2 POP POP JUMP JUMPDEST PUSH1 0x0 DUP2 CALLDATALOAD SWAP1 POP PUSH2 0x1CDF DUP2 PUSH2 0x2707 JUMP JUMPDEST SWAP3 SWAP2 POP POP JUMP JUMPDEST PUSH1 0x0 PUSH1 0x20 DUP3 DUP5 SUB SLT ISZERO PUSH2 0x1CFB JUMPI PUSH2 0x1CFA PUSH2 0x264B JUMP JUMPDEST JUMPDEST PUSH1 0x0 PUSH2 0x1D09 DUP5 DUP3 DUP6 ADD PUSH2 0x1C78 JUMP JUMPDEST SWAP2 POP POP SWAP3 SWAP2 POP POP JUMP JUMPDEST PUSH1 0x0 PUSH1 0x20 DUP3 DUP5 SUB SLT ISZERO PUSH2 0x1D28 JUMPI PUSH2 0x1D27 PUSH2 0x264B JUMP JUMPDEST JUMPDEST PUSH1 0x0 DUP3 ADD CALLDATALOAD PUSH8 0xFFFFFFFFFFFFFFFF DUP2 GT ISZERO PUSH2 0x1D46 JUMPI PUSH2 0x1D45 PUSH2 0x2646 JUMP JUMPDEST JUMPDEST PUSH2 0x1D52 DUP5 DUP3 DUP6 ADD PUSH2 0x1CA2 JUMP JUMPDEST SWAP2 POP POP SWAP3 SWAP2 POP POP JUMP JUMPDEST PUSH1 0x0 DUP1 PUSH1 0x0 PUSH1 0x60 DUP5 DUP7 SUB SLT ISZERO PUSH2 0x1D74 JUMPI PUSH2 0x1D73 PUSH2 0x264B JUMP JUMPDEST JUMPDEST PUSH1 0x0 DUP5 ADD CALLDATALOAD PUSH8 0xFFFFFFFFFFFFFFFF DUP2 GT ISZERO PUSH2 0x1D92 JUMPI PUSH2 0x1D91 PUSH2 0x2646 JUMP JUMPDEST JUMPDEST PUSH2 0x1D9E DUP7 DUP3 DUP8 ADD PUSH2 0x1CA2 JUMP JUMPDEST SWAP4 POP POP PUSH1 0x20 DUP5 ADD CALLDATALOAD PUSH8 0xFFFFFFFFFFFFFFFF DUP2 GT ISZERO PUSH2 0x1DBF JUMPI PUSH2 0x1DBE PUSH2 0x2646 JUMP JUMPDEST JUMPDEST PUSH2 0x1DCB DUP7 DUP3 DUP8 ADD PUSH2 0x1CA2 JUMP JUMPDEST SWAP3 POP POP PUSH1 0x40 PUSH2 0x1DDC DUP7 DUP3 DUP8 ADD PUSH2 0x1CD0 JUMP JUMPDEST SWAP2 POP POP SWAP3 POP SWAP3 POP SWAP3 JUMP JUMPDEST PUSH1 0x0 DUP1 PUSH1 0x0 PUSH1 0x60 DUP5 DUP7 SUB SLT ISZERO PUSH2 0x1DFF JUMPI PUSH2 0x1DFE PUSH2 0x264B JUMP JUMPDEST JUMPDEST PUSH1 0x0 DUP5 ADD CALLDATALOAD PUSH8 0xFFFFFFFFFFFFFFFF DUP2 GT ISZERO PUSH2 0x1E1D JUMPI PUSH2 0x1E1C PUSH2 0x2646 JUMP JUMPDEST JUMPDEST PUSH2 0x1E29 DUP7 DUP3 DUP8 ADD PUSH2 0x1CA2 JUMP JUMPDEST SWAP4 POP POP PUSH1 0x20 PUSH2 0x1E3A DUP7 DUP3 DUP8 ADD PUSH2 0x1CD0 JUMP JUMPDEST SWAP3 POP POP PUSH1 0x40 DUP5 ADD CALLDATALOAD PUSH8 0xFFFFFFFFFFFFFFFF DUP2 GT ISZERO PUSH2 0x1E5B JUMPI PUSH2 0x1E5A PUSH2 0x2646 JUMP JUMPDEST JUMPDEST PUSH2 0x1E67 DUP7 DUP3 DUP8 ADD PUSH2 0x1CA2 JUMP JUMPDEST SWAP2 POP POP SWAP3 POP SWAP3 POP SWAP3 JUMP JUMPDEST PUSH1 0x0 PUSH1 0x20 DUP3 DUP5 SUB SLT ISZERO PUSH2 0x1E87 JUMPI PUSH2 0x1E86 PUSH2 0x264B JUMP JUMPDEST JUMPDEST PUSH1 0x0 PUSH2 0x1E95 DUP5 DUP3 DUP6 ADD PUSH2 0x1CD0 JUMP JUMPDEST SWAP2 POP POP SWAP3 SWAP2 POP POP JUMP JUMPDEST PUSH1 0x0 DUP1 PUSH1 0x40 DUP4 DUP6 SUB SLT ISZERO PUSH2 0x1EB5 JUMPI PUSH2 0x1EB4 PUSH2 0x264B JUMP JUMPDEST JUMPDEST PUSH1 0x0 PUSH2 0x1EC3 DUP6 DUP3 DUP7 ADD PUSH2 0x1CD0 JUMP JUMPDEST SWAP3 POP POP PUSH1 0x20 PUSH2 0x1ED4 DUP6 DUP3 DUP7 ADD PUSH2 0x1C8D JUMP JUMPDEST SWAP2 POP POP SWAP3 POP SWAP3 SWAP1 POP JUMP JUMPDEST PUSH1 0x0 PUSH2 0x1EEA DUP4 DUP4 PUSH2 0x1F85 JUMP JUMPDEST SWAP1 POP SWAP3 SWAP2 POP POP JUMP JUMPDEST PUSH2 0x1EFB DUP2 PUSH2 0x244A JUMP JUMPDEST DUP3 MSTORE POP POP JUMP JUMPDEST PUSH1 0x0 PUSH2 0x1F0C DUP3 PUSH2 0x235F JUMP JUMPDEST PUSH2 0x1F16 DUP2 DUP6 PUSH2 0x2382 JUMP JUMPDEST SWAP4 POP DUP4 PUSH1 0x20 DUP3 MUL DUP6 ADD PUSH2 0x1F28 DUP6 PUSH2 0x233A JUMP JUMPDEST DUP1 PUSH1 0x0 JUMPDEST DUP6 DUP2 LT ISZERO PUSH2 0x1F64 JUMPI DUP5 DUP5 SUB DUP10 MSTORE DUP2 MLOAD PUSH2 0x1F45 DUP6 DUP3 PUSH2 0x1EDE JUMP JUMPDEST SWAP5 POP PUSH2 0x1F50 DUP4 PUSH2 0x2375 JUMP JUMPDEST SWAP3 POP PUSH1 0x20 DUP11 ADD SWAP10 POP POP PUSH1 0x1 DUP2 ADD SWAP1 POP PUSH2 0x1F2C JUMP JUMPDEST POP DUP3 SWAP8 POP DUP8 SWAP6 POP POP POP POP POP POP SWAP3 SWAP2 POP POP JUMP JUMPDEST PUSH2 0x1F7F DUP2 PUSH2 0x245C JUMP JUMPDEST DUP3 MSTORE POP POP JUMP JUMPDEST PUSH1 0x0 PUSH2 0x1F90 DUP3 PUSH2 0x236A JUMP JUMPDEST PUSH2 0x1F9A DUP2 DUP6 PUSH2 0x2393 JUMP JUMPDEST SWAP4 POP PUSH2 0x1FAA DUP2 DUP6 PUSH1 0x20 DUP7 ADD PUSH2 0x24A1 JUMP JUMPDEST PUSH2 0x1FB3 DUP2 PUSH2 0x2650 JUMP JUMPDEST DUP5 ADD SWAP2 POP POP SWAP3 SWAP2 POP POP JUMP JUMPDEST PUSH1 0x0 PUSH2 0x1FC9 DUP3 PUSH2 0x236A JUMP JUMPDEST PUSH2 0x1FD3 DUP2 DUP6 PUSH2 0x23A4 JUMP JUMPDEST SWAP4 POP PUSH2 0x1FE3 DUP2 DUP6 PUSH1 0x20 DUP7 ADD PUSH2 0x24A1 JUMP JUMPDEST PUSH2 0x1FEC DUP2 PUSH2 0x2650 JUMP JUMPDEST DUP5 ADD SWAP2 POP POP SWAP3 SWAP2 POP POP JUMP JUMPDEST PUSH1 0x0 PUSH2 0x2002 DUP3 PUSH2 0x236A JUMP JUMPDEST PUSH2 0x200C DUP2 DUP6 PUSH2 0x23B5 JUMP JUMPDEST SWAP4 POP PUSH2 0x201C DUP2 DUP6 PUSH1 0x20 DUP7 ADD PUSH2 0x24A1 JUMP JUMPDEST DUP1 DUP5 ADD SWAP2 POP POP SWAP3 SWAP2 POP POP JUMP JUMPDEST PUSH1 0x0 DUP2 SLOAD PUSH2 0x2035 DUP2 PUSH2 0x24D4 JUMP JUMPDEST PUSH2 0x203F DUP2 DUP7 PUSH2 0x23B5 JUMP JUMPDEST SWAP5 POP PUSH1 0x1 DUP3 AND PUSH1 0x0 DUP2 EQ PUSH2 0x205A JUMPI PUSH1 0x1 DUP2 EQ PUSH2 0x206B JUMPI PUSH2 0x209E JUMP JUMPDEST PUSH1 0xFF NOT DUP4 AND DUP7 MSTORE DUP2 DUP7 ADD SWAP4 POP PUSH2 0x209E JUMP JUMPDEST PUSH2 0x2074 DUP6 PUSH2 0x234A JUMP JUMPDEST PUSH1 0x0 JUMPDEST DUP4 DUP2 LT ISZERO PUSH2 0x2096 JUMPI DUP2 SLOAD DUP2 DUP10 ADD MSTORE PUSH1 0x1 DUP3 ADD SWAP2 POP PUSH1 0x20 DUP2 ADD SWAP1 POP PUSH2 0x2077 JUMP JUMPDEST DUP4 DUP9 ADD SWAP6 POP POP POP JUMPDEST POP POP POP SWAP3 SWAP2 POP POP JUMP JUMPDEST PUSH1 0x0 PUSH2 0x20B4 PUSH1 0x10 DUP4 PUSH2 0x23A4 JUMP JUMPDEST SWAP2 POP PUSH2 0x20BF DUP3 PUSH2 0x2661 JUMP JUMPDEST PUSH1 0x20 DUP3 ADD SWAP1 POP SWAP2 SWAP1 POP JUMP JUMPDEST PUSH1 0x0 PUSH2 0x20D7 PUSH1 0x21 DUP4 PUSH2 0x23A4 JUMP JUMPDEST SWAP2 POP PUSH2 0x20E2 DUP3 PUSH2 0x268A JUMP JUMPDEST PUSH1 0x40 DUP3 ADD SWAP1 POP SWAP2 SWAP1 POP JUMP JUMPDEST PUSH2 0x20F6 DUP2 PUSH2 0x2488 JUMP JUMPDEST DUP3 MSTORE POP POP JUMP JUMPDEST PUSH1 0x0 PUSH2 0x2108 DUP3 DUP5 PUSH2 0x1FF7 JUMP JUMPDEST SWAP2 POP DUP2 SWAP1 POP SWAP3 SWAP2 POP POP JUMP JUMPDEST PUSH1 0x0 PUSH2 0x211F DUP3 DUP5 PUSH2 0x2028 JUMP JUMPDEST SWAP2 POP DUP2 SWAP1 POP SWAP3 SWAP2 POP POP JUMP JUMPDEST PUSH1 0x0 PUSH1 0x20 DUP3 ADD SWAP1 POP PUSH2 0x213F PUSH1 0x0 DUP4 ADD DUP5 PUSH2 0x1EF2 JUMP JUMPDEST SWAP3 SWAP2 POP POP JUMP JUMPDEST PUSH1 0x0 PUSH1 0x60 DUP3 ADD SWAP1 POP PUSH2 0x215A PUSH1 0x0 DUP4 ADD DUP7 PUSH2 0x1EF2 JUMP JUMPDEST DUP2 DUP2 SUB PUSH1 0x20 DUP4 ADD MSTORE PUSH2 0x216C DUP2 DUP6 PUSH2 0x1FBE JUMP JUMPDEST SWAP1 POP PUSH2 0x217B PUSH1 0x40 DUP4 ADD DUP5 PUSH2 0x1F76 JUMP JUMPDEST SWAP5 SWAP4 POP POP POP POP JUMP JUMPDEST PUSH1 0x0 PUSH1 0x80 DUP3 ADD SWAP1 POP PUSH2 0x2198 PUSH1 0x0 DUP4 ADD DUP8 PUSH2 0x1EF2 JUMP JUMPDEST DUP2 DUP2 SUB PUSH1 0x20 DUP4 ADD MSTORE PUSH2 0x21AA DUP2 DUP7 PUSH2 0x1FBE JUMP JUMPDEST SWAP1 POP PUSH2 0x21B9 PUSH1 0x40 DUP4 ADD DUP6 PUSH2 0x20ED JUMP JUMPDEST PUSH2 0x21C6 PUSH1 0x60 DUP4 ADD DUP5 PUSH2 0x20ED JUMP JUMPDEST SWAP6 SWAP5 POP POP POP POP POP JUMP JUMPDEST PUSH1 0x0 PUSH1 0x20 DUP3 ADD SWAP1 POP DUP2 DUP2 SUB PUSH1 0x0 DUP4 ADD MSTORE PUSH2 0x21E9 DUP2 DUP5 PUSH2 0x1F01 JUMP JUMPDEST SWAP1 POP SWAP3 SWAP2 POP POP JUMP JUMPDEST PUSH1 0x0 PUSH1 0x80 DUP3 ADD SWAP1 POP DUP2 DUP2 SUB PUSH1 0x0 DUP4 ADD MSTORE PUSH2 0x220B DUP2 DUP8 PUSH2 0x1FBE JUMP JUMPDEST SWAP1 POP DUP2 DUP2 SUB PUSH1 0x20 DUP4 ADD MSTORE PUSH2 0x221F DUP2 DUP7 PUSH2 0x1FBE JUMP JUMPDEST SWAP1 POP DUP2 DUP2 SUB PUSH1 0x40 DUP4 ADD MSTORE PUSH2 0x2233 DUP2 DUP6 PUSH2 0x1FBE JUMP JUMPDEST SWAP1 POP PUSH2 0x2242 PUSH1 0x60 DUP4 ADD DUP5 PUSH2 0x20ED JUMP JUMPDEST SWAP6 SWAP5 POP POP POP POP POP JUMP JUMPDEST PUSH1 0x0 PUSH1 0x60 DUP3 ADD SWAP1 POP DUP2 DUP2 SUB PUSH1 0x0 DUP4 ADD MSTORE PUSH2 0x2265 DUP2 DUP7 PUSH2 0x1FBE JUMP JUMPDEST SWAP1 POP PUSH2 0x2274 PUSH1 0x20 DUP4 ADD DUP6 PUSH2 0x20ED JUMP JUMPDEST PUSH2 0x2281 PUSH1 0x40 DUP4 ADD DUP5 PUSH2 0x20ED JUMP JUMPDEST SWAP5 SWAP4 POP POP POP POP JUMP JUMPDEST PUSH1 0x0 PUSH1 0x20 DUP3 ADD SWAP1 POP DUP2 DUP2 SUB PUSH1 0x0 DUP4 ADD MSTORE PUSH2 0x22A2 DUP2 PUSH2 0x20A7 JUMP JUMPDEST SWAP1 POP SWAP2 SWAP1 POP JUMP JUMPDEST PUSH1 0x0 PUSH1 0x20 DUP3 ADD SWAP1 POP DUP2 DUP2 SUB PUSH1 0x0 DUP4 ADD MSTORE PUSH2 0x22C2 DUP2 PUSH2 0x20CA JUMP JUMPDEST SWAP1 POP SWAP2 SWAP1 POP JUMP JUMPDEST PUSH1 0x0 PUSH1 0x20 DUP3 ADD SWAP1 POP PUSH2 0x22DE PUSH1 0x0 DUP4 ADD DUP5 PUSH2 0x20ED JUMP JUMPDEST SWAP3 SWAP2 POP POP JUMP JUMPDEST PUSH1 0x0 PUSH2 0x22EE PUSH2 0x22FF JUMP JUMPDEST SWAP1 POP PUSH2 0x22FA DUP3 DUP3 PUSH2 0x2506 JUMP JUMPDEST SWAP2 SWAP1 POP JUMP JUMPDEST PUSH1 0x0 PUSH1 0x40 MLOAD SWAP1 POP SWAP1 JUMP JUMPDEST PUSH1 0x0 PUSH8 0xFFFFFFFFFFFFFFFF DUP3 GT ISZERO PUSH2 0x2324 JUMPI PUSH2 0x2323 PUSH2 0x260D JUMP JUMPDEST JUMPDEST PUSH2 0x232D DUP3 PUSH2 0x2650 JUMP JUMPDEST SWAP1 POP PUSH1 0x20 DUP2 ADD SWAP1 POP SWAP2 SWAP1 POP JUMP JUMPDEST PUSH1 0x0 DUP2 SWAP1 POP PUSH1 0x20 DUP3 ADD SWAP1 POP SWAP2 SWAP1 POP JUMP JUMPDEST PUSH1 0x0 DUP2 SWAP1 POP DUP2 PUSH1 0x0 MSTORE PUSH1 0x20 PUSH1 0x0 KECCAK256 SWAP1 POP SWAP2 SWAP1 POP JUMP JUMPDEST PUSH1 0x0 DUP2 MLOAD SWAP1 POP SWAP2 SWAP1 POP JUMP JUMPDEST PUSH1 0x0 DUP2 MLOAD SWAP1 POP SWAP2 SWAP1 POP JUMP JUMPDEST PUSH1 0x0 PUSH1 0x20 DUP3 ADD SWAP1 POP SWAP2 SWAP1 POP JUMP JUMPDEST PUSH1 0x0 DUP3 DUP3 MSTORE PUSH1 0x20 DUP3 ADD SWAP1 POP SWAP3 SWAP2 POP POP JUMP JUMPDEST PUSH1 0x0 DUP3 DUP3 MSTORE PUSH1 0x20 DUP3 ADD SWAP1 POP SWAP3 SWAP2 POP POP JUMP JUMPDEST PUSH1 0x0 DUP3 DUP3 MSTORE PUSH1 0x20 DUP3 ADD SWAP1 POP SWAP3 SWAP2 POP POP JUMP JUMPDEST PUSH1 0x0 DUP2 SWAP1 POP SWAP3 SWAP2 POP POP JUMP JUMPDEST PUSH1 0x0 PUSH2 0x23CB DUP3 PUSH2 0x2488 JUMP JUMPDEST SWAP2 POP PUSH2 0x23D6 DUP4 PUSH2 0x2488 JUMP JUMPDEST SWAP3 POP DUP3 PUSH32 0xFFFFFFFFFFFFFFFFFFFFFFFFFFFFFFFFFFFFFFFFFFFFFFFFFFFFFFFFFFFFFFFF SUB DUP3 GT ISZERO PUSH2 0x240B JUMPI PUSH2 0x240A PUSH2 0x2580 JUMP JUMPDEST JUMPDEST DUP3 DUP3 ADD SWAP1 POP SWAP3 SWAP2 POP POP JUMP JUMPDEST PUSH1 0x0 PUSH2 0x2421 DUP3 PUSH2 0x2488 JUMP JUMPDEST SWAP2 POP PUSH2 0x242C DUP4 PUSH2 0x2488 JUMP JUMPDEST SWAP3 POP DUP3 DUP3 LT ISZERO PUSH2 0x243F JUMPI PUSH2 0x243E PUSH2 0x2580 JUMP JUMPDEST JUMPDEST DUP3 DUP3 SUB SWAP1 POP SWAP3 SWAP2 POP POP JUMP JUMPDEST PUSH1 0x0 PUSH2 0x2455 DUP3 PUSH2 0x2468 JUMP JUMPDEST SWAP1 POP SWAP2 SWAP1 POP JUMP JUMPDEST PUSH1 0x0 DUP2 ISZERO ISZERO SWAP1 POP SWAP2 SWAP1 POP JUMP JUMPDEST PUSH1 0x0 PUSH20 0xFFFFFFFFFFFFFFFFFFFFFFFFFFFFFFFFFFFFFFFF DUP3 AND SWAP1 POP SWAP2 SWAP1 POP JUMP JUMPDEST PUSH1 0x0 DUP2 SWAP1 POP SWAP2 SWAP1 POP JUMP JUMPDEST DUP3 DUP2 DUP4 CALLDATACOPY PUSH1 0x0 DUP4 DUP4 ADD MSTORE POP POP POP JUMP JUMPDEST PUSH1 0x0 JUMPDEST DUP4 DUP2 LT ISZERO PUSH2 0x24BF JUMPI DUP1 DUP3 ADD MLOAD DUP2 DUP5 ADD MSTORE PUSH1 0x20 DUP2 ADD SWAP1 POP PUSH2 0x24A4 JUMP JUMPDEST DUP4 DUP2 GT ISZERO PUSH2 0x24CE JUMPI PUSH1 0x0 DUP5 DUP5 ADD MSTORE JUMPDEST POP POP POP POP JUMP JUMPDEST PUSH1 0x0 PUSH1 0x2 DUP3 DIV SWAP1 POP PUSH1 0x1 DUP3 AND DUP1 PUSH2 0x24EC JUMPI PUSH1 0x7F DUP3 AND SWAP2 POP JUMPDEST PUSH1 0x20 DUP3 LT DUP2 EQ ISZERO PUSH2 0x2500 JUMPI PUSH2 0x24FF PUSH2 0x25AF JUMP JUMPDEST JUMPDEST POP SWAP2 SWAP1 POP JUMP JUMPDEST PUSH2 0x250F DUP3 PUSH2 0x2650 JUMP JUMPDEST DUP2 ADD DUP2 DUP2 LT PUSH8 0xFFFFFFFFFFFFFFFF DUP3 GT OR ISZERO PUSH2 0x252E JUMPI PUSH2 0x252D PUSH2 0x260D JUMP JUMPDEST JUMPDEST DUP1 PUSH1 0x40 MSTORE POP POP POP JUMP JUMPDEST PUSH1 0x0 PUSH2 0x2542 DUP3 PUSH2 0x2488 JUMP JUMPDEST SWAP2 POP PUSH32 0xFFFFFFFFFFFFFFFFFFFFFFFFFFFFFFFFFFFFFFFFFFFFFFFFFFFFFFFFFFFFFFFF DUP3 EQ ISZERO PUSH2 0x2575 JUMPI PUSH2 0x2574 PUSH2 0x2580 JUMP JUMPDEST JUMPDEST PUSH1 0x1 DUP3 ADD SWAP1 POP SWAP2 SWAP1 POP JUMP JUMPDEST PUSH32 0x4E487B7100000000000000000000000000000000000000000000000000000000 PUSH1 0x0 MSTORE PUSH1 0x11 PUSH1 0x4 MSTORE PUSH1 0x24 PUSH1 0x0 REVERT JUMPDEST PUSH32 0x4E487B7100000000000000000000000000000000000000000000000000000000 PUSH1 0x0 MSTORE PUSH1 0x22 PUSH1 0x4 MSTORE PUSH1 0x24 PUSH1 0x0 REVERT JUMPDEST PUSH32 0x4E487B7100000000000000000000000000000000000000000000000000000000 PUSH1 0x0 MSTORE PUSH1 0x32 PUSH1 0x4 MSTORE PUSH1 0x24 PUSH1 0x0 REVERT JUMPDEST PUSH32 0x4E487B7100000000000000000000000000000000000000000000000000000000 PUSH1 0x0 MSTORE PUSH1 0x41 PUSH1 0x4 MSTORE PUSH1 0x24 PUSH1 0x0 REVERT JUMPDEST PUSH1 0x0 DUP1 REVERT JUMPDEST PUSH1 0x0 DUP1 REVERT JUMPDEST PUSH1 0x0 DUP1 REVERT JUMPDEST PUSH1 0x0 DUP1 REVERT JUMPDEST PUSH1 0x0 PUSH1 0x1F NOT PUSH1 0x1F DUP4 ADD AND SWAP1 POP SWAP2 SWAP1 POP JUMP JUMPDEST PUSH32 0x6572726F723A206E6F74206D6F6E657900000000000000000000000000000000 PUSH1 0x0 DUP3 ADD MSTORE POP JUMP JUMPDEST PUSH32 0x6572726F723A20726174696E672063616E2062652066726F6D203120746F2031 PUSH1 0x0 DUP3 ADD MSTORE PUSH32 0x3000000000000000000000000000000000000000000000000000000000000000 PUSH1 0x20 DUP3 ADD MSTORE POP JUMP JUMPDEST PUSH2 0x26E2 DUP2 PUSH2 0x244A JUMP JUMPDEST DUP2 EQ PUSH2 0x26ED JUMPI PUSH1 0x0 DUP1 REVERT JUMPDEST POP JUMP JUMPDEST PUSH2 0x26F9 DUP2 PUSH2 0x245C JUMP JUMPDEST DUP2 EQ PUSH2 0x2704 JUMPI PUSH1 0x0 DUP1 REVERT JUMPDEST POP JUMP JUMPDEST PUSH2 0x2710 DUP2 PUSH2 0x2488 JUMP JUMPDEST DUP2 EQ PUSH2 0x271B JUMPI PUSH1 0x0 DUP1 REVERT JUMPDEST POP JUMP INVALID LOG2 PUSH5 0x6970667358 0x22 SLT KECCAK256 0xBE SWAP11 PUSH20 0xEE3A203F0DBE2215CC1D1F51D745C7CACD4CCB87 GT 0xF7 POP 0xAB 0xB3 PUSH5 0x230ABB6473 PUSH16 0x6C634300080700330000000000000000 "
				},
				"gasEstimates": {
					"creation": {
						"codeDepositCost": "2013600",
						"executionCost": "infinite",
						"totalCost": "infinite"
					},
					"external": {
						"MarriageRegistration(uint256,bool)": "infinite",
						"acceptPurchase(uint256,bool)": "infinite",
						"acceptReturn(uint256,bool)": "infinite",
						"addProductShop(string,uint256,string)": "infinite",
						"complaintBooks(uint256)": "infinite",
						"getProductList()": "infinite",
						"getShopList()": "infinite",
						"getStoryRating(string)": "infinite",
						"leaveFeedback(string,string,uint256)": "infinite",
						"productMarriageRegistration(string)": "infinite",
						"productPurchases(string)": "infinite",
						"productReturn(string)": "infinite",
						"shopLists(string)": "infinite",
						"structMarriageRegistrations(uint256)": "infinite",
						"structProducts(string)": "infinite",
						"structStatusPurchases(uint256)": "infinite",
						"structStatusReturns(uint256)": "infinite",
						"structUserLogins(string)": "infinite",
						"structUsers(address)": "infinite"
					}
				},
				"methodIdentifiers": {
					"MarriageRegistration(uint256,bool)": "f69483c1",
					"acceptPurchase(uint256,bool)": "0c72b1ec",
					"acceptReturn(uint256,bool)": "2ccdef7c",
					"addProductShop(string,uint256,string)": "6c05dd1d",
					"complaintBooks(uint256)": "08f4d2c6",
					"getProductList()": "34d2c0ad",
					"getShopList()": "c178b9af",
					"getStoryRating(string)": "a985036d",
					"leaveFeedback(string,string,uint256)": "cc21c188",
					"productMarriageRegistration(string)": "2d4673e3",
					"productPurchases(string)": "146dc6ed",
					"productReturn(string)": "bbd43363",
					"shopLists(string)": "c4957fa0",
					"structMarriageRegistrations(uint256)": "7ddb273d",
					"structProducts(string)": "d68cf8c1",
					"structStatusPurchases(uint256)": "dce39151",
					"structStatusReturns(uint256)": "a9f9482b",
					"structUserLogins(string)": "1bbe970a",
					"structUsers(address)": "961865f0"
				}
			},
			"userdoc": {
				"kind": "user",
				"methods": {},
				"version": 1
			}
		}
	}
}