{
	"Documents/GitHub/Store-system-with-feedback/main.sol": {
		"coursepaper": {
			"abi": [
				{
					"inputs": [],
					"stateMutability": "nonpayable",
					"type": "constructor"
				},
				{
					"inputs": [
						{
							"internalType": "uint256",
							"name": "idMarriageRegistration",
							"type": "uint256"
						},
						{
							"internalType": "bool",
							"name": "confirmation",
							"type": "bool"
						}
					],
					"name": "MarriageRegistration",
					"outputs": [],
					"stateMutability": "nonpayable",
					"type": "function"
				},
				{
					"inputs": [
						{
							"internalType": "uint256",
							"name": "idPurchase",
							"type": "uint256"
						},
						{
							"internalType": "bool",
							"name": "confirmation",
							"type": "bool"
						}
					],
					"name": "acceptPurchase",
					"outputs": [],
					"stateMutability": "nonpayable",
					"type": "function"
				},
				{
					"inputs": [
						{
							"internalType": "uint256",
							"name": "idReturn",
							"type": "uint256"
						},
						{
							"internalType": "bool",
							"name": "confirmation",
							"type": "bool"
						}
					],
					"name": "acceptReturn",
					"outputs": [],
					"stateMutability": "nonpayable",
					"type": "function"
				},
				{
					"inputs": [
						{
							"internalType": "string",
							"name": "title",
							"type": "string"
						},
						{
							"internalType": "uint256",
							"name": "price",
							"type": "uint256"
						},
						{
							"internalType": "string",
							"name": "description",
							"type": "string"
						}
					],
					"name": "addProductShop",
					"outputs": [],
					"stateMutability": "nonpayable",
					"type": "function"
				},
				{
					"inputs": [],
					"name": "getProductList",
					"outputs": [
						{
							"internalType": "string[]",
							"name": "",
							"type": "string[]"
						}
					],
					"stateMutability": "view",
					"type": "function"
				},
				{
					"inputs": [],
					"name": "getShopList",
					"outputs": [
						{
							"internalType": "string[]",
							"name": "",
							"type": "string[]"
						}
					],
					"stateMutability": "view",
					"type": "function"
				},
				{
					"inputs": [
						{
							"internalType": "string",
							"name": "shopName",
							"type": "string"
						}
					],
					"name": "getStoryRating",
					"outputs": [
						{
							"internalType": "uint256",
							"name": "",
							"type": "uint256"
						}
					],
					"stateMutability": "view",
					"type": "function"
				},
				{
					"inputs": [
						{
							"internalType": "string",
							"name": "login",
							"type": "string"
						}
					],
					"name": "get_address",
					"outputs": [
						{
							"internalType": "address",
							"name": "",
							"type": "address"
						}
					],
					"stateMutability": "view",
					"type": "function"
				},
				{
					"inputs": [
						{
							"internalType": "string",
							"name": "userName",
							"type": "string"
						},
						{
							"internalType": "string[]",
							"name": "comment",
							"type": "string[]"
						}
					],
					"name": "leaveComment",
					"outputs": [],
					"stateMutability": "nonpayable",
					"type": "function"
				},
				{
					"inputs": [
						{
							"internalType": "string",
							"name": "shop",
							"type": "string"
						},
						{
							"internalType": "string",
							"name": "feedback",
							"type": "string"
						},
						{
							"internalType": "uint256",
							"name": "rating",
							"type": "uint256"
						}
					],
					"name": "leaveFeedback",
					"outputs": [],
					"stateMutability": "nonpayable",
					"type": "function"
				},
				{
					"inputs": [
						{
							"internalType": "string",
							"name": "titleProduct",
							"type": "string"
						}
					],
					"name": "productMarriageRegistration",
					"outputs": [],
					"stateMutability": "nonpayable",
					"type": "function"
				},
				{
					"inputs": [
						{
							"internalType": "string",
							"name": "titleProduct",
							"type": "string"
						}
					],
					"name": "productPurchases",
					"outputs": [],
					"stateMutability": "nonpayable",
					"type": "function"
				},
				{
					"inputs": [
						{
							"internalType": "string",
							"name": "titleProduct",
							"type": "string"
						}
					],
					"name": "productReturn",
					"outputs": [],
					"stateMutability": "nonpayable",
					"type": "function"
				},
				{
					"inputs": [
						{
							"internalType": "string",
							"name": "",
							"type": "string"
						}
					],
					"name": "shopLists",
					"outputs": [
						{
							"internalType": "address",
							"name": "",
							"type": "address"
						}
					],
					"stateMutability": "view",
					"type": "function"
				},
				{
					"inputs": [
						{
							"internalType": "uint256",
							"name": "",
							"type": "uint256"
						}
					],
					"name": "structMarriageRegistrations",
					"outputs": [
						{
							"internalType": "address",
							"name": "userLogin",
							"type": "address"
						},
						{
							"internalType": "string",
							"name": "titleProduct",
							"type": "string"
						},
						{
							"internalType": "bool",
							"name": "status",
							"type": "bool"
						}
					],
					"stateMutability": "view",
					"type": "function"
				},
				{
					"inputs": [
						{
							"internalType": "string",
							"name": "",
							"type": "string"
						}
					],
					"name": "structProducts",
					"outputs": [
						{
							"internalType": "address",
							"name": "shop",
							"type": "address"
						},
						{
							"internalType": "string",
							"name": "description",
							"type": "string"
						},
						{
							"internalType": "uint256",
							"name": "price",
							"type": "uint256"
						},
						{
							"internalType": "uint256",
							"name": "id",
							"type": "uint256"
						}
					],
					"stateMutability": "view",
					"type": "function"
				},
				{
					"inputs": [
						{
							"internalType": "uint256",
							"name": "",
							"type": "uint256"
						}
					],
					"name": "structStatusPurchases",
					"outputs": [
						{
							"internalType": "address",
							"name": "userLogin",
							"type": "address"
						},
						{
							"internalType": "string",
							"name": "titleProduct",
							"type": "string"
						},
						{
							"internalType": "bool",
							"name": "status",
							"type": "bool"
						}
					],
					"stateMutability": "view",
					"type": "function"
				},
				{
					"inputs": [
						{
							"internalType": "uint256",
							"name": "",
							"type": "uint256"
						}
					],
					"name": "structStatusReturns",
					"outputs": [
						{
							"internalType": "address",
							"name": "userLogin",
							"type": "address"
						},
						{
							"internalType": "string",
							"name": "titleProduct",
							"type": "string"
						},
						{
							"internalType": "bool",
							"name": "status",
							"type": "bool"
						}
					],
					"stateMutability": "view",
					"type": "function"
				},
				{
					"inputs": [
						{
							"internalType": "string",
							"name": "",
							"type": "string"
						}
					],
					"name": "structUserLogins",
					"outputs": [
						{
							"internalType": "address",
							"name": "",
							"type": "address"
						}
					],
					"stateMutability": "view",
					"type": "function"
				},
				{
					"inputs": [
						{
							"internalType": "address",
							"name": "",
							"type": "address"
						}
					],
					"name": "structUsers",
					"outputs": [
						{
							"internalType": "string",
							"name": "userName",
							"type": "string"
						},
						{
							"internalType": "uint256",
							"name": "password",
							"type": "uint256"
						},
						{
							"internalType": "uint256",
							"name": "ballance",
							"type": "uint256"
						}
					],
					"stateMutability": "view",
					"type": "function"
				}
			],
			"devdoc": {
				"kind": "dev",
				"methods": {},
				"version": 1
			},
			"evm": {
				"assembly": "    /* \"Documents/GitHub/Store-system-with-feedback/main.sol\":74:8368  contract coursepaper {\r... */\n  mstore(0x40, 0x80)\n    /* \"Documents/GitHub/Store-system-with-feedback/main.sol\":2946:2947  0 */\n  0x00\n    /* \"Documents/GitHub/Store-system-with-feedback/main.sol\":2911:2947  uint256 addProductShop_idProduct = 0 */\n  0x0c\n  sstore\n    /* \"Documents/GitHub/Store-system-with-feedback/main.sol\":129:983  constructor() public {\r... */\n  callvalue\n  dup1\n  iszero\n  tag_1\n  jumpi\n  0x00\n  dup1\n  revert\ntag_1:\n  pop\n    /* \"Documents/GitHub/Store-system-with-feedback/main.sol\":232:274  structShop(\"Food\", \"1\", \"Moscow\", 1000, 0) */\n  0x40\n  dup1\n  mload\n  0xe0\n  dup2\n  add\n  dup3\n  mstore\n  0x04\n  0xa0\n  dup3\n  add\n  swap1\n  dup2\n  mstore\n  shl(0xe2, 0x119bdbd9)\n  0xc0\n  dup4\n  add\n  mstore\n  dup2\n  mstore\n  dup2\n  mload\n  dup1\n  dup4\n  add\n  dup4\n  mstore\n  0x01\n  dup2\n  mstore\n  shl(0xf8, 0x31)\n  0x20\n  dup3\n  dup2\n  add\n  swap2\n  swap1\n  swap2\n  mstore\n  dup1\n  dup4\n  add\n  swap2\n  swap1\n  swap2\n  mstore\n  dup3\n  mload\n  dup1\n  dup5\n  add\n  dup5\n  mstore\n  0x06\n  dup2\n  mstore\n  shl(0xd0, 0x4d6f73636f77)\n  dup2\n  dup4\n  add\n  mstore\n  swap3\n  dup3\n  add\n  swap3\n  swap1\n  swap3\n  mstore\n    /* \"Documents/GitHub/Store-system-with-feedback/main.sol\":266:270  1000 */\n  0x03e8\n  0x60\n  dup3\n  add\n    /* \"Documents/GitHub/Store-system-with-feedback/main.sol\":232:274  structShop(\"Food\", \"1\", \"Moscow\", 1000, 0) */\n  mstore\n  0x00\n  0x80\n  dup3\n  add\n  dup2\n  swap1\n  mstore\n    /* \"Documents/GitHub/Store-system-with-feedback/main.sol\":186:228  0x5B38Da6a701c568545dCfcB03FcB875f56beddC4 */\n  0x5b38da6a701c568545dcfcb03fcb875f56beddc4\n    /* \"Documents/GitHub/Store-system-with-feedback/main.sol\":180:229  shops[0x5B38Da6a701c568545dCfcB03FcB875f56beddC4] */\n  dup2\n  mstore\n  dup3\n  mstore\n    /* \"Documents/GitHub/Store-system-with-feedback/main.sol\":180:274  shops[0x5B38Da6a701c568545dCfcB03FcB875f56beddC4] = structShop(\"Food\", \"1\", \"Moscow\", 1000, 0) */\n  dup1\n  mload\n  dup1\n  mload\n    /* \"Documents/GitHub/Store-system-with-feedback/main.sol\":232:274  structShop(\"Food\", \"1\", \"Moscow\", 1000, 0) */\n  swap2\n  swap3\n  0x00\n  dup1\n  mload\n  0x20\n  data_2f4efd012f30b85c3b205250c3dad4cd9208919ba8889723a8325ec6826f69e1\n  dup4\n  codecopy\n  dup2\n  mload\n  swap2\n  mstore\n    /* \"Documents/GitHub/Store-system-with-feedback/main.sol\":180:229  shops[0x5B38Da6a701c568545dCfcB03FcB875f56beddC4] */\n  swap3\n    /* \"Documents/GitHub/Store-system-with-feedback/main.sol\":180:274  shops[0x5B38Da6a701c568545dCfcB03FcB875f56beddC4] = structShop(\"Food\", \"1\", \"Moscow\", 1000, 0) */\n  tag_4\n  swap3\n    /* \"Documents/GitHub/Store-system-with-feedback/main.sol\":180:229  shops[0x5B38Da6a701c568545dCfcB03FcB875f56beddC4] */\n  dup5\n  swap3\n    /* \"Documents/GitHub/Store-system-with-feedback/main.sol\":180:274  shops[0x5B38Da6a701c568545dCfcB03FcB875f56beddC4] = structShop(\"Food\", \"1\", \"Moscow\", 1000, 0) */\n  add\n  swap1\n  tag_5\n  jump\t// in\ntag_4:\n  pop\n  0x20\n  dup3\n  dup2\n  add\n  mload\n  dup1\n  mload\n  tag_6\n  swap3\n  0x01\n  dup6\n  add\n  swap3\n  add\n  swap1\n  tag_5\n  jump\t// in\ntag_6:\n  pop\n  0x40\n  dup3\n  add\n  mload\n  dup1\n  mload\n  tag_7\n  swap2\n  0x02\n  dup5\n  add\n  swap2\n  0x20\n  swap1\n  swap2\n  add\n  swap1\n  tag_5\n  jump\t// in\ntag_7:\n  pop\n  0x60\n  dup3\n  add\n  mload\n  0x03\n  dup3\n  add\n  sstore\n  0x80\n  swap1\n  swap2\n  add\n  mload\n  0x04\n  swap1\n  swap2\n  add\n  sstore\n  0x00\n    /* \"Documents/GitHub/Store-system-with-feedback/main.sol\":299:348  shops[0x5B38Da6a701c568545dCfcB03FcB875f56beddC4] */\n  0x20\n  dup2\n  swap1\n  mstore\n    /* \"Documents/GitHub/Store-system-with-feedback/main.sol\":285:293  shopList */\n  0x02\n    /* \"Documents/GitHub/Store-system-with-feedback/main.sol\":285:354  shopList.push(shops[0x5B38Da6a701c568545dCfcB03FcB875f56beddC4].name) */\n  dup1\n  sload\n  0x01\n  dup2\n  add\n  dup3\n  sstore\n  swap2\n  mstore\n  0x00\n  dup1\n  mload\n  0x20\n  data_2f4efd012f30b85c3b205250c3dad4cd9208919ba8889723a8325ec6826f69e1\n  dup4\n  codecopy\n  dup2\n  mload\n  swap2\n  mstore\n  dup1\n  sload\n  0x00\n  dup1\n  mload\n  0x20\n  data_1ab0c6948a275349ae45a06aad66a8bd65ac18074615d53676c09b67809099e0\n  dup4\n  codecopy\n  dup2\n  mload\n  swap2\n  mstore\n  swap1\n  swap3\n  add\n  swap2\n  tag_9\n  swap1\n  tag_10\n  jump\t// in\ntag_9:\n  tag_11\n  swap3\n  swap2\n  swap1\n  tag_12\n  jump\t// in\ntag_11:\n  pop\n    /* \"Documents/GitHub/Store-system-with-feedback/main.sol\":417:466  structShop(\"Clothes\", \"2\", \"Petersburg\", 1000, 0) */\n  0x40\n  dup1\n  mload\n  0xe0\n  dup2\n  add\n  dup3\n  mstore\n  0x07\n  0xa0\n  dup3\n  add\n  swap1\n  dup2\n  mstore\n  shl(0xc8, 0x436c6f74686573)\n  0xc0\n  dup4\n  add\n  mstore\n  dup2\n  mstore\n  dup2\n  mload\n  dup1\n  dup4\n  add\n  dup4\n  mstore\n  0x01\n  dup2\n  mstore\n  shl(0xf9, 0x19)\n  0x20\n  dup3\n  dup2\n  add\n  swap2\n  swap1\n  swap2\n  mstore\n  dup1\n  dup4\n  add\n  swap2\n  swap1\n  swap2\n  mstore\n  dup3\n  mload\n  dup1\n  dup5\n  add\n  dup5\n  mstore\n  0x0a\n  dup2\n  mstore\n  shl(0xb0, 0x50657465727362757267)\n  dup2\n  dup4\n  add\n  mstore\n  swap3\n  dup3\n  add\n  swap3\n  swap1\n  swap3\n  mstore\n    /* \"Documents/GitHub/Store-system-with-feedback/main.sol\":458:462  1000 */\n  0x03e8\n  0x60\n  dup3\n  add\n    /* \"Documents/GitHub/Store-system-with-feedback/main.sol\":417:466  structShop(\"Clothes\", \"2\", \"Petersburg\", 1000, 0) */\n  mstore\n  0x00\n  0x80\n  dup3\n  add\n  dup2\n  swap1\n  mstore\n    /* \"Documents/GitHub/Store-system-with-feedback/main.sol\":371:413  0xAb8483F64d9C6d1EcF9b849Ae677dD3315835cb2 */\n  0xab8483f64d9c6d1ecf9b849ae677dd3315835cb2\n    /* \"Documents/GitHub/Store-system-with-feedback/main.sol\":365:414  shops[0xAb8483F64d9C6d1EcF9b849Ae677dD3315835cb2] */\n  dup2\n  mstore\n  dup3\n  mstore\n    /* \"Documents/GitHub/Store-system-with-feedback/main.sol\":365:466  shops[0xAb8483F64d9C6d1EcF9b849Ae677dD3315835cb2] = structShop(\"Clothes\", \"2\", \"Petersburg\", 1000, 0) */\n  dup1\n  mload\n  dup1\n  mload\n    /* \"Documents/GitHub/Store-system-with-feedback/main.sol\":417:466  structShop(\"Clothes\", \"2\", \"Petersburg\", 1000, 0) */\n  swap2\n  swap3\n  0x00\n  dup1\n  mload\n  0x20\n  data_b419932d51bf6bdfed16bae3f9f1f38a5df16d2ef9b0328748b1d9edd7c1e16c\n  dup4\n  codecopy\n  dup2\n  mload\n  swap2\n  mstore\n    /* \"Documents/GitHub/Store-system-with-feedback/main.sol\":365:414  shops[0xAb8483F64d9C6d1EcF9b849Ae677dD3315835cb2] */\n  swap3\n    /* \"Documents/GitHub/Store-system-with-feedback/main.sol\":365:466  shops[0xAb8483F64d9C6d1EcF9b849Ae677dD3315835cb2] = structShop(\"Clothes\", \"2\", \"Petersburg\", 1000, 0) */\n  tag_13\n  swap3\n    /* \"Documents/GitHub/Store-system-with-feedback/main.sol\":365:414  shops[0xAb8483F64d9C6d1EcF9b849Ae677dD3315835cb2] */\n  dup5\n  swap3\n    /* \"Documents/GitHub/Store-system-with-feedback/main.sol\":365:466  shops[0xAb8483F64d9C6d1EcF9b849Ae677dD3315835cb2] = structShop(\"Clothes\", \"2\", \"Petersburg\", 1000, 0) */\n  add\n  swap1\n  tag_5\n  jump\t// in\ntag_13:\n  pop\n  0x20\n  dup3\n  dup2\n  add\n  mload\n  dup1\n  mload\n  tag_14\n  swap3\n  0x01\n  dup6\n  add\n  swap3\n  add\n  swap1\n  tag_5\n  jump\t// in\ntag_14:\n  pop\n  0x40\n  dup3\n  add\n  mload\n  dup1\n  mload\n  tag_15\n  swap2\n  0x02\n  dup5\n  add\n  swap2\n  0x20\n  swap1\n  swap2\n  add\n  swap1\n  tag_5\n  jump\t// in\ntag_15:\n  pop\n  0x60\n  dup3\n  add\n  mload\n  0x03\n  dup3\n  add\n  sstore\n  0x80\n  swap1\n  swap2\n  add\n  mload\n  0x04\n  swap1\n  swap2\n  add\n  sstore\n  0x00\n    /* \"Documents/GitHub/Store-system-with-feedback/main.sol\":491:540  shops[0xAb8483F64d9C6d1EcF9b849Ae677dD3315835cb2] */\n  0x20\n  dup2\n  swap1\n  mstore\n    /* \"Documents/GitHub/Store-system-with-feedback/main.sol\":477:485  shopList */\n  0x02\n    /* \"Documents/GitHub/Store-system-with-feedback/main.sol\":477:546  shopList.push(shops[0xAb8483F64d9C6d1EcF9b849Ae677dD3315835cb2].name) */\n  dup1\n  sload\n  0x01\n  dup2\n  add\n  dup3\n  sstore\n  swap2\n  mstore\n  0x00\n  dup1\n  mload\n  0x20\n  data_b419932d51bf6bdfed16bae3f9f1f38a5df16d2ef9b0328748b1d9edd7c1e16c\n  dup4\n  codecopy\n  dup2\n  mload\n  swap2\n  mstore\n  dup1\n  sload\n  0x00\n  dup1\n  mload\n  0x20\n  data_1ab0c6948a275349ae45a06aad66a8bd65ac18074615d53676c09b67809099e0\n  dup4\n  codecopy\n  dup2\n  mload\n  swap2\n  mstore\n  swap1\n  swap3\n  add\n  swap2\n  tag_17\n  swap1\n  tag_10\n  jump\t// in\ntag_17:\n  tag_18\n  swap3\n  swap2\n  swap1\n  tag_12\n  jump\t// in\ntag_18:\n  pop\n    /* \"Documents/GitHub/Store-system-with-feedback/main.sol\":609:662  structShop(\"Pet Store\", \"3\", \"Ekaterinburg\", 1000, 0) */\n  0x40\n  dup1\n  mload\n  0xe0\n  dup2\n  add\n  dup3\n  mstore\n  0x09\n  0xa0\n  dup3\n  add\n  swap1\n  dup2\n  mstore\n  shl(0xb8, 0x5065742053746f7265)\n  0xc0\n  dup4\n  add\n  mstore\n  dup2\n  mstore\n  dup2\n  mload\n  dup1\n  dup4\n  add\n  dup4\n  mstore\n  0x01\n  dup2\n  mstore\n  shl(0xf8, 0x33)\n  0x20\n  dup3\n  dup2\n  add\n  swap2\n  swap1\n  swap2\n  mstore\n  dup1\n  dup4\n  add\n  swap2\n  swap1\n  swap2\n  mstore\n  dup3\n  mload\n  dup1\n  dup5\n  add\n  dup5\n  mstore\n  0x0c\n  dup2\n  mstore\n  shl(0xa0, 0x456b61746572696e62757267)\n  dup2\n  dup4\n  add\n  mstore\n  swap3\n  dup3\n  add\n  swap3\n  swap1\n  swap3\n  mstore\n    /* \"Documents/GitHub/Store-system-with-feedback/main.sol\":654:658  1000 */\n  0x03e8\n  0x60\n  dup3\n  add\n    /* \"Documents/GitHub/Store-system-with-feedback/main.sol\":609:662  structShop(\"Pet Store\", \"3\", \"Ekaterinburg\", 1000, 0) */\n  mstore\n  0x00\n  0x80\n  dup3\n  add\n  dup2\n  swap1\n  mstore\n    /* \"Documents/GitHub/Store-system-with-feedback/main.sol\":563:605  0x4B20993Bc481177ec7E8f571ceCaE8A9e22C02db */\n  0x4b20993bc481177ec7e8f571cecae8a9e22c02db\n    /* \"Documents/GitHub/Store-system-with-feedback/main.sol\":557:606  shops[0x4B20993Bc481177ec7E8f571ceCaE8A9e22C02db] */\n  dup2\n  mstore\n  dup3\n  mstore\n    /* \"Documents/GitHub/Store-system-with-feedback/main.sol\":557:662  shops[0x4B20993Bc481177ec7E8f571ceCaE8A9e22C02db] = structShop(\"Pet Store\", \"3\", \"Ekaterinburg\", 1000, 0) */\n  dup1\n  mload\n  dup1\n  mload\n    /* \"Documents/GitHub/Store-system-with-feedback/main.sol\":609:662  structShop(\"Pet Store\", \"3\", \"Ekaterinburg\", 1000, 0) */\n  swap2\n  swap3\n  0x00\n  dup1\n  mload\n  0x20\n  data_fcc84c0c7944b9b0dfc09891ae83a75df0a1dec2b2b89bab9a7367e7fdaba1b3\n  dup4\n  codecopy\n  dup2\n  mload\n  swap2\n  mstore\n    /* \"Documents/GitHub/Store-system-with-feedback/main.sol\":557:606  shops[0x4B20993Bc481177ec7E8f571ceCaE8A9e22C02db] */\n  swap3\n    /* \"Documents/GitHub/Store-system-with-feedback/main.sol\":557:662  shops[0x4B20993Bc481177ec7E8f571ceCaE8A9e22C02db] = structShop(\"Pet Store\", \"3\", \"Ekaterinburg\", 1000, 0) */\n  tag_19\n  swap3\n    /* \"Documents/GitHub/Store-system-with-feedback/main.sol\":557:606  shops[0x4B20993Bc481177ec7E8f571ceCaE8A9e22C02db] */\n  dup5\n  swap3\n    /* \"Documents/GitHub/Store-system-with-feedback/main.sol\":557:662  shops[0x4B20993Bc481177ec7E8f571ceCaE8A9e22C02db] = structShop(\"Pet Store\", \"3\", \"Ekaterinburg\", 1000, 0) */\n  add\n  swap1\n  tag_5\n  jump\t// in\ntag_19:\n  pop\n  0x20\n  dup3\n  dup2\n  add\n  mload\n  dup1\n  mload\n  tag_20\n  swap3\n  0x01\n  dup6\n  add\n  swap3\n  add\n  swap1\n  tag_5\n  jump\t// in\ntag_20:\n  pop\n  0x40\n  dup3\n  add\n  mload\n  dup1\n  mload\n  tag_21\n  swap2\n  0x02\n  dup5\n  add\n  swap2\n  0x20\n  swap1\n  swap2\n  add\n  swap1\n  tag_5\n  jump\t// in\ntag_21:\n  pop\n  0x60\n  dup3\n  add\n  mload\n  0x03\n  dup3\n  add\n  sstore\n  0x80\n  swap1\n  swap2\n  add\n  mload\n  0x04\n  swap1\n  swap2\n  add\n  sstore\n  0x00\n    /* \"Documents/GitHub/Store-system-with-feedback/main.sol\":687:736  shops[0x4B20993Bc481177ec7E8f571ceCaE8A9e22C02db] */\n  0x20\n  dup2\n  swap1\n  mstore\n    /* \"Documents/GitHub/Store-system-with-feedback/main.sol\":673:681  shopList */\n  0x02\n    /* \"Documents/GitHub/Store-system-with-feedback/main.sol\":673:742  shopList.push(shops[0x4B20993Bc481177ec7E8f571ceCaE8A9e22C02db].name) */\n  dup1\n  sload\n  0x01\n  dup2\n  add\n  dup3\n  sstore\n  swap2\n  mstore\n  0x00\n  dup1\n  mload\n  0x20\n  data_fcc84c0c7944b9b0dfc09891ae83a75df0a1dec2b2b89bab9a7367e7fdaba1b3\n  dup4\n  codecopy\n  dup2\n  mload\n  swap2\n  mstore\n  dup1\n  sload\n  0x00\n  dup1\n  mload\n  0x20\n  data_1ab0c6948a275349ae45a06aad66a8bd65ac18074615d53676c09b67809099e0\n  dup4\n  codecopy\n  dup2\n  mload\n  swap2\n  mstore\n  swap1\n  swap3\n  add\n  swap2\n  tag_23\n  swap1\n  tag_10\n  jump\t// in\ntag_23:\n  tag_24\n  swap3\n  swap2\n  swap1\n  tag_12\n  jump\t// in\ntag_24:\n  pop\n    /* \"Documents/GitHub/Store-system-with-feedback/main.sol\":798:840  0x78731D3Ca6b7E34aC0F824c42a7cC18A495cabaB */\n  0x78731d3ca6b7e34ac0f824c42a7cc18a495cabab\n    /* \"Documents/GitHub/Store-system-with-feedback/main.sol\":771:787  structUserLogins */\n  0x05\n    /* \"Documents/GitHub/Store-system-with-feedback/main.sol\":771:795  structUserLogins[\"Peta\"] */\n  mload(0x40)\n  tag_25\n  swap1\n  shl(0xe0, 0x50657461)\n    /* \"#utility.yul\":216:235   */\n  dup2\n  mstore\n    /* \"#utility.yul\":260:261   */\n  0x04\n    /* \"#utility.yul\":251:262   */\n  add\n  swap1\n    /* \"#utility.yul\":14:268   */\n  jump\n    /* \"Documents/GitHub/Store-system-with-feedback/main.sol\":771:795  structUserLogins[\"Peta\"] */\ntag_25:\n  swap1\n  dup2\n  mstore\n  0x40\n  dup1\n  mload\n  0x20\n  swap3\n  dup2\n  swap1\n  sub\n  dup4\n  add\n  dup2\n  keccak256\n    /* \"Documents/GitHub/Store-system-with-feedback/main.sol\":771:840  structUserLogins[\"Peta\"] = 0x78731D3Ca6b7E34aC0F824c42a7cC18A495cabaB */\n  dup1\n  sload\n  not(sub(shl(0xa0, 0x01), 0x01))\n  and\n  sub(shl(0xa0, 0x01), 0x01)\n  swap6\n  swap1\n  swap6\n  and\n  swap5\n  swap1\n  swap5\n  or\n  swap1\n  swap4\n  sstore\n    /* \"Documents/GitHub/Store-system-with-feedback/main.sol\":909:936  structUser(\"Peta\" ,1, 1000) */\n  0xa0\n  dup4\n  add\n  dup2\n  mstore\n  0x04\n  0x60\n  dup5\n  add\n  dup2\n  dup2\n  mstore\n  shl(0xe0, 0x50657461)\n  0x80\n  dup7\n  add\n  mstore\n  dup5\n  mstore\n  0x01\n  dup4\n  dup6\n  add\n  mstore\n    /* \"Documents/GitHub/Store-system-with-feedback/main.sol\":931:935  1000 */\n  0x03e8\n    /* \"Documents/GitHub/Store-system-with-feedback/main.sol\":909:936  structUser(\"Peta\" ,1, 1000) */\n  swap2\n  dup5\n  add\n  swap2\n  swap1\n  swap2\n  mstore\n    /* \"Documents/GitHub/Store-system-with-feedback/main.sol\":863:905  0x78731D3Ca6b7E34aC0F824c42a7cC18A495cabaB */\n  0x78731d3ca6b7e34ac0f824c42a7cc18a495cabab\n  0x00\n    /* \"Documents/GitHub/Store-system-with-feedback/main.sol\":851:906  structUsers[0x78731D3Ca6b7E34aC0F824c42a7cC18A495cabaB] */\n  mstore\n  dup2\n  mstore\n    /* \"Documents/GitHub/Store-system-with-feedback/main.sol\":851:936  structUsers[0x78731D3Ca6b7E34aC0F824c42a7cC18A495cabaB] = structUser(\"Peta\" ,1, 1000) */\n  dup2\n  mload\n  dup1\n  mload\n    /* \"Documents/GitHub/Store-system-with-feedback/main.sol\":851:906  structUsers[0x78731D3Ca6b7E34aC0F824c42a7cC18A495cabaB] */\n  0x243f34026cce3919c300c34d749c64d10fec0b66a4cf3f087c287f3498665141\n  swap3\n    /* \"Documents/GitHub/Store-system-with-feedback/main.sol\":851:936  structUsers[0x78731D3Ca6b7E34aC0F824c42a7cC18A495cabaB] = structUser(\"Peta\" ,1, 1000) */\n  tag_27\n  swap3\n    /* \"Documents/GitHub/Store-system-with-feedback/main.sol\":851:906  structUsers[0x78731D3Ca6b7E34aC0F824c42a7cC18A495cabaB] */\n  dup5\n  swap3\n    /* \"Documents/GitHub/Store-system-with-feedback/main.sol\":851:936  structUsers[0x78731D3Ca6b7E34aC0F824c42a7cC18A495cabaB] = structUser(\"Peta\" ,1, 1000) */\n  swap2\n  add\n  swap1\n  tag_5\n  jump\t// in\ntag_27:\n  pop\n  0x20\n  dup3\n  dup2\n  add\n  mload\n  0x01\n  dup1\n  dup5\n  add\n  swap2\n  swap1\n  swap2\n  sstore\n  0x40\n  swap4\n  dup5\n  add\n  mload\n  0x02\n  swap1\n  swap4\n  add\n  swap3\n  swap1\n  swap3\n  sstore\n    /* \"Documents/GitHub/Store-system-with-feedback/main.sol\":947:962  userLoginsArray */\n  0x06\n    /* \"Documents/GitHub/Store-system-with-feedback/main.sol\":947:975  userLoginsArray.push(\"Peta\") */\n  dup1\n  sload\n  swap3\n  dup4\n  add\n  dup2\n  sstore\n  0x00\n  mstore\n  dup3\n  mload\n  dup1\n  dup5\n  add\n  swap1\n  swap4\n  mstore\n  0x04\n  dup1\n  dup5\n  mstore\n  shl(0xe0, 0x50657461)\n  swap4\n  swap1\n  swap2\n  add\n  swap3\n  dup4\n  mstore\n  tag_29\n  swap3\n  0xf652222313e28459528d920b65115c16c04f3efc82aaedc97be59f3f377c0d3f\n  swap1\n  swap3\n  add\n  swap2\n  swap1\n  tag_5\n  jump\t// in\ntag_29:\n  pop\n    /* \"Documents/GitHub/Store-system-with-feedback/main.sol\":74:8368  contract coursepaper {\r... */\n  jump(tag_48)\ntag_5:\n  dup3\n  dup1\n  sload\n  tag_31\n  swap1\n  tag_10\n  jump\t// in\ntag_31:\n  swap1\n  0x00\n  mstore\n  keccak256(0x00, 0x20)\n  swap1\n  0x1f\n  add\n  0x20\n  swap1\n  div\n  dup2\n  add\n  swap3\n  dup3\n  tag_33\n  jumpi\n  0x00\n  dup6\n  sstore\n  jump(tag_36)\ntag_33:\n  dup3\n  0x1f\n  lt\n  tag_34\n  jumpi\n  dup1\n  mload\n  not(0xff)\n  and\n  dup4\n  dup1\n  add\n  or\n  dup6\n  sstore\n  jump(tag_36)\ntag_34:\n  dup3\n  dup1\n  add\n  0x01\n  add\n  dup6\n  sstore\n  dup3\n  iszero\n  tag_36\n  jumpi\n  swap2\n  dup3\n  add\ntag_35:\n  dup3\n  dup2\n  gt\n  iszero\n  tag_36\n  jumpi\n  dup3\n  mload\n  dup3\n  sstore\n  swap2\n  0x20\n  add\n  swap2\n  swap1\n  0x01\n  add\n  swap1\n  jump(tag_35)\ntag_36:\n  pop\n  tag_37\n  swap3\n  swap2\n  pop\n  tag_38\n  jump\t// in\ntag_37:\n  pop\n  swap1\n  jump\t// out\ntag_12:\n  dup3\n  dup1\n  sload\n  tag_39\n  swap1\n  tag_10\n  jump\t// in\ntag_39:\n  swap1\n  0x00\n  mstore\n  keccak256(0x00, 0x20)\n  swap1\n  0x1f\n  add\n  0x20\n  swap1\n  div\n  dup2\n  add\n  swap3\n  dup3\n  tag_41\n  jumpi\n  0x00\n  dup6\n  sstore\n  jump(tag_36)\ntag_41:\n  dup3\n  0x1f\n  lt\n  tag_42\n  jumpi\n  dup1\n  sload\n  dup6\n  sstore\n  jump(tag_36)\ntag_42:\n  dup3\n  dup1\n  add\n  0x01\n  add\n  dup6\n  sstore\n  dup3\n  iszero\n  tag_36\n  jumpi\n  0x00\n  mstore\n  keccak256(0x00, 0x20)\n  swap2\n  0x1f\n  add\n  0x20\n  swap1\n  div\n  dup3\n  add\ntag_43:\n  dup3\n  dup2\n  gt\n  iszero\n  tag_36\n  jumpi\n  dup3\n  sload\n  dup3\n  sstore\n  swap2\n  0x01\n  add\n  swap2\n  swap1\n  0x01\n  add\n  swap1\n  jump(tag_43)\ntag_38:\ntag_46:\n  dup1\n  dup3\n  gt\n  iszero\n  tag_37\n  jumpi\n  0x00\n  dup2\n  sstore\n  0x01\n  add\n  jump(tag_46)\n    /* \"#utility.yul\":273:653   */\ntag_10:\n    /* \"#utility.yul\":352:353   */\n  0x01\n    /* \"#utility.yul\":348:360   */\n  dup2\n  dup2\n  shr\n  swap1\n    /* \"#utility.yul\":395:407   */\n  dup3\n  and\n  dup1\n    /* \"#utility.yul\":416:477   */\n  tag_51\n  jumpi\n    /* \"#utility.yul\":470:474   */\n  0x7f\n    /* \"#utility.yul\":462:468   */\n  dup3\n    /* \"#utility.yul\":458:475   */\n  and\n    /* \"#utility.yul\":448:475   */\n  swap2\n  pop\n    /* \"#utility.yul\":416:477   */\ntag_51:\n    /* \"#utility.yul\":523:525   */\n  0x20\n    /* \"#utility.yul\":515:521   */\n  dup3\n    /* \"#utility.yul\":512:526   */\n  lt\n    /* \"#utility.yul\":492:510   */\n  dup2\n    /* \"#utility.yul\":489:527   */\n  eq\n    /* \"#utility.yul\":486:647   */\n  iszero\n  tag_52\n  jumpi\n    /* \"#utility.yul\":569:579   */\n  0x4e487b71\n    /* \"#utility.yul\":564:567   */\n  0xe0\n    /* \"#utility.yul\":560:580   */\n  shl\n    /* \"#utility.yul\":557:558   */\n  0x00\n    /* \"#utility.yul\":550:581   */\n  mstore\n    /* \"#utility.yul\":604:608   */\n  0x22\n    /* \"#utility.yul\":601:602   */\n  0x04\n    /* \"#utility.yul\":594:609   */\n  mstore\n    /* \"#utility.yul\":632:636   */\n  0x24\n    /* \"#utility.yul\":629:630   */\n  0x00\n    /* \"#utility.yul\":622:637   */\n  revert\n    /* \"#utility.yul\":486:647   */\ntag_52:\n  pop\n    /* \"#utility.yul\":273:653   */\n  swap2\n  swap1\n  pop\n  jump\t// out\ntag_48:\n    /* \"Documents/GitHub/Store-system-with-feedback/main.sol\":74:8368  contract coursepaper {\r... */\n  dataSize(sub_0)\n  dup1\n  dataOffset(sub_0)\n  0x00\n  codecopy\n  0x00\n  return\nstop\ndata_1ab0c6948a275349ae45a06aad66a8bd65ac18074615d53676c09b67809099e0 405787fa12a823e0f2b7631cc41b3ba8828b3321ca811111fa75cd3aa3bb5ace\ndata_2f4efd012f30b85c3b205250c3dad4cd9208919ba8889723a8325ec6826f69e1 58f8e73c330daffe64653449eb9a999c1162911d5129dd8193c7233d46ade2d5\ndata_b419932d51bf6bdfed16bae3f9f1f38a5df16d2ef9b0328748b1d9edd7c1e16c 1a1017a437881fd8fee8ab135586d886995df9286bd91e5d3c250f79b2327f02\ndata_fcc84c0c7944b9b0dfc09891ae83a75df0a1dec2b2b89bab9a7367e7fdaba1b3 bc67542bfa83c3e43faa1ce49daa83c7bb0610df1c8f6899b8fbb170f5c183ee\n\nsub_0: assembly {\n        /* \"Documents/GitHub/Store-system-with-feedback/main.sol\":74:8368  contract coursepaper {\r... */\n      mstore(0x40, 0x80)\n      callvalue\n      dup1\n      iszero\n      tag_1\n      jumpi\n      0x00\n      dup1\n      revert\n    tag_1:\n      pop\n      jumpi(tag_2, lt(calldatasize, 0x04))\n      shr(0xe0, calldataload(0x00))\n      dup1\n      0x0c72b1ec\n      eq\n      tag_3\n      jumpi\n      dup1\n      0x146dc6ed\n      eq\n      tag_4\n      jumpi\n      dup1\n      0x1bbe970a\n      eq\n      tag_5\n      jumpi\n      dup1\n      0x29e795f3\n      eq\n      tag_6\n      jumpi\n      dup1\n      0x2ccdef7c\n      eq\n      tag_7\n      jumpi\n      dup1\n      0x2d4673e3\n      eq\n      tag_8\n      jumpi\n      dup1\n      0x34d2c0ad\n      eq\n      tag_9\n      jumpi\n      dup1\n      0x6ba44d3c\n      eq\n      tag_10\n      jumpi\n      dup1\n      0x6c05dd1d\n      eq\n      tag_11\n      jumpi\n      dup1\n      0x7ddb273d\n      eq\n      tag_12\n      jumpi\n      dup1\n      0x961865f0\n      eq\n      tag_13\n      jumpi\n      dup1\n      0xa985036d\n      eq\n      tag_14\n      jumpi\n      dup1\n      0xa9f9482b\n      eq\n      tag_15\n      jumpi\n      dup1\n      0xbbd43363\n      eq\n      tag_16\n      jumpi\n      dup1\n      0xc178b9af\n      eq\n      tag_17\n      jumpi\n      dup1\n      0xc4957fa0\n      eq\n      tag_18\n      jumpi\n      dup1\n      0xcc21c188\n      eq\n      tag_19\n      jumpi\n      dup1\n      0xd68cf8c1\n      eq\n      tag_20\n      jumpi\n      dup1\n      0xdce39151\n      eq\n      tag_21\n      jumpi\n      dup1\n      0xf69483c1\n      eq\n      tag_22\n      jumpi\n    tag_2:\n      0x00\n      dup1\n      revert\n        /* \"Documents/GitHub/Store-system-with-feedback/main.sol\":4033:4661  function acceptPurchase (uint idPurchase, bool confirmation) public {\r... */\n    tag_3:\n      tag_23\n      tag_24\n      calldatasize\n      0x04\n      tag_25\n      jump\t// in\n    tag_24:\n      tag_26\n      jump\t// in\n    tag_23:\n      stop\n        /* \"Documents/GitHub/Store-system-with-feedback/main.sol\":7485:7756  function productPurchases (string memory titleProduct) public {\r... */\n    tag_4:\n      tag_23\n      tag_28\n      calldatasize\n      0x04\n      tag_29\n      jump\t// in\n    tag_28:\n      tag_30\n      jump\t// in\n        /* \"Documents/GitHub/Store-system-with-feedback/main.sol\":1855:1905  mapping(string => address) public structUserLogins */\n    tag_5:\n      tag_31\n      tag_32\n      calldatasize\n      0x04\n      tag_29\n      jump\t// in\n    tag_32:\n      dup1\n      mload\n      0x20\n      dup2\n      dup4\n      add\n      dup2\n      add\n      dup1\n      mload\n      0x05\n      dup3\n      mstore\n      swap3\n      dup3\n      add\n      swap2\n      swap1\n      swap4\n      add\n      keccak256\n      swap2\n      mstore\n      sload\n      sub(shl(0xa0, 0x01), 0x01)\n      and\n      dup2\n      jump\n    tag_31:\n      mload(0x40)\n      sub(shl(0xa0, 0x01), 0x01)\n        /* \"#utility.yul\":6083:6115   */\n      swap1\n      swap2\n      and\n        /* \"#utility.yul\":6065:6116   */\n      dup2\n      mstore\n        /* \"#utility.yul\":6053:6055   */\n      0x20\n        /* \"#utility.yul\":6038:6056   */\n      add\n        /* \"Documents/GitHub/Store-system-with-feedback/main.sol\":1855:1905  mapping(string => address) public structUserLogins */\n    tag_34:\n      mload(0x40)\n      dup1\n      swap2\n      sub\n      swap1\n      return\n        /* \"Documents/GitHub/Store-system-with-feedback/main.sol\":6979:7398  function leaveComment (string memory userName, string[] memory comment) public {\r... */\n    tag_6:\n      tag_23\n      tag_37\n      calldatasize\n      0x04\n      tag_38\n      jump\t// in\n    tag_37:\n      tag_39\n      jump\t// in\n        /* \"Documents/GitHub/Store-system-with-feedback/main.sol\":4706:5167  function acceptReturn(uint idReturn, bool confirmation) public {\r... */\n    tag_7:\n      tag_23\n      tag_41\n      calldatasize\n      0x04\n      tag_25\n      jump\t// in\n    tag_41:\n      tag_42\n      jump\t// in\n        /* \"Documents/GitHub/Store-system-with-feedback/main.sol\":7995:8179  function productMarriageRegistration (string memory titleProduct) public {\r... */\n    tag_8:\n      tag_23\n      tag_44\n      calldatasize\n      0x04\n      tag_29\n      jump\t// in\n    tag_44:\n      tag_45\n      jump\t// in\n        /* \"Documents/GitHub/Store-system-with-feedback/main.sol\":5954:6054  function getProductList() public view returns(string[] memory) {\r... */\n    tag_9:\n      tag_46\n      tag_47\n      jump\t// in\n    tag_46:\n      mload(0x40)\n      tag_34\n      swap2\n      swap1\n      tag_49\n      jump\t// in\n        /* \"Documents/GitHub/Store-system-with-feedback/main.sol\":8223:8344  function get_address(string memory login) public view returns(address) {\r... */\n    tag_10:\n      tag_31\n      tag_51\n      calldatasize\n      0x04\n      tag_29\n      jump\t// in\n    tag_51:\n      tag_52\n      jump\t// in\n        /* \"Documents/GitHub/Store-system-with-feedback/main.sol\":2954:3353  function addProductShop (string memory title, uint256 price, string memory description) public {\r... */\n    tag_11:\n      tag_23\n      tag_55\n      calldatasize\n      0x04\n      tag_56\n      jump\t// in\n    tag_55:\n      tag_57\n      jump\t// in\n        /* \"Documents/GitHub/Store-system-with-feedback/main.sol\":2769:2832  structMarriageRegistration[] public structMarriageRegistrations */\n    tag_12:\n      tag_58\n      tag_59\n      calldatasize\n      0x04\n      tag_60\n      jump\t// in\n    tag_59:\n      tag_61\n      jump\t// in\n    tag_58:\n      mload(0x40)\n      tag_34\n      swap4\n      swap3\n      swap2\n      swap1\n      tag_63\n      jump\t// in\n        /* \"Documents/GitHub/Store-system-with-feedback/main.sol\":1799:1848  mapping(address => structUser) public structUsers */\n    tag_13:\n      tag_64\n      tag_65\n      calldatasize\n      0x04\n      tag_66\n      jump\t// in\n    tag_65:\n      tag_67\n      jump\t// in\n    tag_64:\n      mload(0x40)\n      tag_34\n      swap4\n      swap3\n      swap2\n      swap1\n      tag_69\n      jump\t// in\n        /* \"Documents/GitHub/Store-system-with-feedback/main.sol\":6086:6939  function getStoryRating(string memory shopName) public view returns(uint) {\r... */\n    tag_14:\n      tag_70\n      tag_71\n      calldatasize\n      0x04\n      tag_29\n      jump\t// in\n    tag_71:\n      tag_72\n      jump\t// in\n    tag_70:\n      mload(0x40)\n        /* \"#utility.yul\":9064:9089   */\n      swap1\n      dup2\n      mstore\n        /* \"#utility.yul\":9052:9054   */\n      0x20\n        /* \"#utility.yul\":9037:9055   */\n      add\n        /* \"Documents/GitHub/Store-system-with-feedback/main.sol\":6086:6939  function getStoryRating(string memory shopName) public view returns(uint) {\r... */\n      tag_34\n        /* \"#utility.yul\":8918:9095   */\n      jump\n        /* \"Documents/GitHub/Store-system-with-feedback/main.sol\":2549:2596  structStatusReturn[] public structStatusReturns */\n    tag_15:\n      tag_58\n      tag_76\n      calldatasize\n      0x04\n      tag_60\n      jump\t// in\n    tag_76:\n      tag_77\n      jump\t// in\n        /* \"Documents/GitHub/Store-system-with-feedback/main.sol\":7795:7949  function productReturn (string memory titleProduct) public {\r... */\n    tag_16:\n      tag_23\n      tag_80\n      calldatasize\n      0x04\n      tag_29\n      jump\t// in\n    tag_80:\n      tag_81\n      jump\t// in\n        /* \"Documents/GitHub/Store-system-with-feedback/main.sol\":5824:5918  function getShopList() public view returns(string[] memory) {\r... */\n    tag_17:\n      tag_46\n      tag_83\n      jump\t// in\n        /* \"Documents/GitHub/Store-system-with-feedback/main.sol\":1299:1342  mapping(string => address) public shopLists */\n    tag_18:\n      tag_31\n      tag_86\n      calldatasize\n      0x04\n      tag_29\n      jump\t// in\n    tag_86:\n      dup1\n      mload\n      0x20\n      dup2\n      dup4\n      add\n      dup2\n      add\n      dup1\n      mload\n      0x01\n      dup3\n      mstore\n      swap3\n      dup3\n      add\n      swap2\n      swap1\n      swap4\n      add\n      keccak256\n      swap2\n      mstore\n      sload\n      sub(shl(0xa0, 0x01), 0x01)\n      and\n      dup2\n      jump\n        /* \"Documents/GitHub/Store-system-with-feedback/main.sol\":3398:3986  function leaveFeedback (string memory shop, string memory feedback, uint256 rating) public {\r... */\n    tag_19:\n      tag_23\n      tag_90\n      calldatasize\n      0x04\n      tag_91\n      jump\t// in\n    tag_90:\n      tag_92\n      jump\t// in\n        /* \"Documents/GitHub/Store-system-with-feedback/main.sol\":2098:2152  mapping(string => structProduct) public structProducts */\n    tag_20:\n      tag_93\n      tag_94\n      calldatasize\n      0x04\n      tag_29\n      jump\t// in\n    tag_94:\n      tag_95\n      jump\t// in\n    tag_93:\n      mload(0x40)\n      tag_34\n      swap5\n      swap4\n      swap3\n      swap2\n      swap1\n      tag_97\n      jump\t// in\n        /* \"Documents/GitHub/Store-system-with-feedback/main.sol\":2341:2392  structStatusPurchase[] public structStatusPurchases */\n    tag_21:\n      tag_58\n      tag_99\n      calldatasize\n      0x04\n      tag_60\n      jump\t// in\n    tag_99:\n      tag_100\n      jump\t// in\n        /* \"Documents/GitHub/Store-system-with-feedback/main.sol\":5213:5790  function MarriageRegistration(uint idMarriageRegistration, bool confirmation) public {\r... */\n    tag_22:\n      tag_23\n      tag_103\n      calldatasize\n      0x04\n      tag_25\n      jump\t// in\n    tag_103:\n      tag_104\n      jump\t// in\n        /* \"Documents/GitHub/Store-system-with-feedback/main.sol\":4033:4661  function acceptPurchase (uint idPurchase, bool confirmation) public {\r... */\n    tag_26:\n        /* \"Documents/GitHub/Store-system-with-feedback/main.sol\":4132:4136  true */\n      0x01\n        /* \"Documents/GitHub/Store-system-with-feedback/main.sol\":4116:4136  confirmation == true */\n      dup2\n      iszero\n      iszero\n      eq\n        /* \"Documents/GitHub/Store-system-with-feedback/main.sol\":4112:4654  if (confirmation == true) {\r... */\n      iszero\n      tag_106\n      jumpi\n        /* \"Documents/GitHub/Store-system-with-feedback/main.sol\":4196:4201  false */\n      0x00\n        /* \"Documents/GitHub/Store-system-with-feedback/main.sol\":4153:4174  structStatusPurchases */\n      0x09\n        /* \"Documents/GitHub/Store-system-with-feedback/main.sol\":4175:4185  idPurchase */\n      dup4\n        /* \"Documents/GitHub/Store-system-with-feedback/main.sol\":4153:4186  structStatusPurchases[idPurchase] */\n      dup2\n      sload\n      dup2\n      lt\n      tag_108\n      jumpi\n      tag_108\n      tag_109\n      jump\t// in\n    tag_108:\n      swap1\n      0x00\n      mstore\n      keccak256(0x00, 0x20)\n      swap1\n      0x03\n      mul\n      add\n        /* \"Documents/GitHub/Store-system-with-feedback/main.sol\":4153:4193  structStatusPurchases[idPurchase].status */\n      0x02\n      add\n      0x00\n        /* \"Documents/GitHub/Store-system-with-feedback/main.sol\":4153:4201  structStatusPurchases[idPurchase].status = false */\n      0x0100\n      exp\n      dup2\n      sload\n      dup2\n      0xff\n      mul\n      not\n      and\n      swap1\n      dup4\n      iszero\n      iszero\n      mul\n      or\n      swap1\n      sstore\n      pop\n        /* \"Documents/GitHub/Store-system-with-feedback/main.sol\":4352:4366  structProducts */\n      0x07\n        /* \"Documents/GitHub/Store-system-with-feedback/main.sol\":4367:4388  structStatusPurchases */\n      0x09\n        /* \"Documents/GitHub/Store-system-with-feedback/main.sol\":4389:4399  idPurchase */\n      dup4\n        /* \"Documents/GitHub/Store-system-with-feedback/main.sol\":4367:4400  structStatusPurchases[idPurchase] */\n      dup2\n      sload\n      dup2\n      lt\n      tag_112\n      jumpi\n      tag_112\n      tag_109\n      jump\t// in\n    tag_112:\n      swap1\n      0x00\n      mstore\n      keccak256(0x00, 0x20)\n      swap1\n      0x03\n      mul\n      add\n        /* \"Documents/GitHub/Store-system-with-feedback/main.sol\":4367:4413  structStatusPurchases[idPurchase].titleProduct */\n      0x01\n      add\n        /* \"Documents/GitHub/Store-system-with-feedback/main.sol\":4352:4414  structProducts[structStatusPurchases[idPurchase].titleProduct] */\n      mload(0x40)\n      tag_114\n      swap2\n      swap1\n      tag_115\n      jump\t// in\n    tag_114:\n      swap1\n      dup2\n      mstore\n      0x20\n      add\n      mload(0x40)\n      dup1\n      swap2\n      sub\n      swap1\n      keccak256\n        /* \"Documents/GitHub/Store-system-with-feedback/main.sol\":4352:4420  structProducts[structStatusPurchases[idPurchase].titleProduct].price */\n      0x02\n      add\n      sload\n        /* \"Documents/GitHub/Store-system-with-feedback/main.sol\":4284:4295  structUsers */\n      0x04\n        /* \"Documents/GitHub/Store-system-with-feedback/main.sol\":4284:4340  structUsers[structStatusPurchases[idPurchase].userLogin] */\n      0x00\n        /* \"Documents/GitHub/Store-system-with-feedback/main.sol\":4296:4317  structStatusPurchases */\n      0x09\n        /* \"Documents/GitHub/Store-system-with-feedback/main.sol\":4318:4328  idPurchase */\n      dup6\n        /* \"Documents/GitHub/Store-system-with-feedback/main.sol\":4296:4329  structStatusPurchases[idPurchase] */\n      dup2\n      sload\n      dup2\n      lt\n      tag_117\n      jumpi\n      tag_117\n      tag_109\n      jump\t// in\n    tag_117:\n      0x00\n      swap2\n      dup3\n      mstore\n      0x20\n      dup1\n      dup4\n      keccak256\n      0x03\n      swap1\n      swap3\n      mul\n      swap1\n      swap2\n      add\n        /* \"Documents/GitHub/Store-system-with-feedback/main.sol\":4296:4339  structStatusPurchases[idPurchase].userLogin */\n      sload\n      sub(shl(0xa0, 0x01), 0x01)\n      and\n        /* \"Documents/GitHub/Store-system-with-feedback/main.sol\":4284:4340  structUsers[structStatusPurchases[idPurchase].userLogin] */\n      dup4\n      mstore\n      dup3\n      add\n      swap3\n      swap1\n      swap3\n      mstore\n      0x40\n      add\n      swap1\n      keccak256\n        /* \"Documents/GitHub/Store-system-with-feedback/main.sol\":4284:4349  structUsers[structStatusPurchases[idPurchase].userLogin].ballance */\n      0x02\n      add\n      sload\n        /* \"Documents/GitHub/Store-system-with-feedback/main.sol\":4284:4420  structUsers[structStatusPurchases[idPurchase].userLogin].ballance - structProducts[structStatusPurchases[idPurchase].titleProduct].price */\n      tag_119\n      swap2\n      swap1\n      tag_120\n      jump\t// in\n    tag_119:\n        /* \"Documents/GitHub/Store-system-with-feedback/main.sol\":4216:4227  structUsers */\n      0x04\n        /* \"Documents/GitHub/Store-system-with-feedback/main.sol\":4216:4272  structUsers[structStatusPurchases[idPurchase].userLogin] */\n      0x00\n        /* \"Documents/GitHub/Store-system-with-feedback/main.sol\":4228:4249  structStatusPurchases */\n      0x09\n        /* \"Documents/GitHub/Store-system-with-feedback/main.sol\":4250:4260  idPurchase */\n      dup6\n        /* \"Documents/GitHub/Store-system-with-feedback/main.sol\":4228:4261  structStatusPurchases[idPurchase] */\n      dup2\n      sload\n      dup2\n      lt\n      tag_122\n      jumpi\n      tag_122\n      tag_109\n      jump\t// in\n    tag_122:\n      0x00\n      swap2\n      dup3\n      mstore\n      0x20\n      dup1\n      dup4\n      keccak256\n      0x03\n      swap1\n      swap3\n      mul\n      swap1\n      swap2\n      add\n        /* \"Documents/GitHub/Store-system-with-feedback/main.sol\":4228:4271  structStatusPurchases[idPurchase].userLogin */\n      sload\n      sub(shl(0xa0, 0x01), 0x01)\n      and\n        /* \"Documents/GitHub/Store-system-with-feedback/main.sol\":4216:4272  structUsers[structStatusPurchases[idPurchase].userLogin] */\n      dup4\n      mstore\n      dup3\n      add\n      swap3\n      swap1\n      swap3\n      mstore\n      0x40\n      add\n      swap1\n      keccak256\n        /* \"Documents/GitHub/Store-system-with-feedback/main.sol\":4216:4281  structUsers[structStatusPurchases[idPurchase].userLogin].ballance */\n      0x02\n      add\n        /* \"Documents/GitHub/Store-system-with-feedback/main.sol\":4216:4420  structUsers[structStatusPurchases[idPurchase].userLogin].ballance = structUsers[structStatusPurchases[idPurchase].userLogin].ballance - structProducts[structStatusPurchases[idPurchase].titleProduct].price */\n      sstore\n        /* \"Documents/GitHub/Store-system-with-feedback/main.sol\":4508:4529  structStatusPurchases */\n      0x09\n        /* \"Documents/GitHub/Store-system-with-feedback/main.sol\":4508:4541  structStatusPurchases[idPurchase] */\n      dup1\n      sload\n        /* \"Documents/GitHub/Store-system-with-feedback/main.sol\":4493:4507  structProducts */\n      0x07\n      swap2\n        /* \"Documents/GitHub/Store-system-with-feedback/main.sol\":4508:4529  structStatusPurchases */\n      swap1\n        /* \"Documents/GitHub/Store-system-with-feedback/main.sol\":4530:4540  idPurchase */\n      dup5\n      swap1\n        /* \"Documents/GitHub/Store-system-with-feedback/main.sol\":4508:4541  structStatusPurchases[idPurchase] */\n      dup2\n      lt\n      tag_125\n      jumpi\n      tag_125\n      tag_109\n      jump\t// in\n    tag_125:\n      swap1\n      0x00\n      mstore\n      keccak256(0x00, 0x20)\n      swap1\n      0x03\n      mul\n      add\n        /* \"Documents/GitHub/Store-system-with-feedback/main.sol\":4508:4554  structStatusPurchases[idPurchase].titleProduct */\n      0x01\n      add\n        /* \"Documents/GitHub/Store-system-with-feedback/main.sol\":4493:4555  structProducts[structStatusPurchases[idPurchase].titleProduct] */\n      mload(0x40)\n      tag_127\n      swap2\n      swap1\n      tag_115\n      jump\t// in\n    tag_127:\n      swap1\n      dup2\n      mstore\n      0x40\n      dup1\n      mload\n      0x20\n      swap3\n      dup2\n      swap1\n      sub\n      dup4\n      add\n      swap1\n      keccak256\n        /* \"Documents/GitHub/Store-system-with-feedback/main.sol\":4493:4561  structProducts[structStatusPurchases[idPurchase].titleProduct].price */\n      0x02\n      add\n      sload\n        /* \"Documents/GitHub/Store-system-with-feedback/main.sol\":4470:4480  msg.sender */\n      caller\n        /* \"Documents/GitHub/Store-system-with-feedback/main.sol\":4464:4469  shops */\n      0x00\n        /* \"Documents/GitHub/Store-system-with-feedback/main.sol\":4464:4481  shops[msg.sender] */\n      swap1\n      dup2\n      mstore\n      swap3\n      dup4\n      swap1\n      mstore\n      swap2\n      keccak256\n        /* \"Documents/GitHub/Store-system-with-feedback/main.sol\":4464:4490  shops[msg.sender].ballance */\n      0x03\n      add\n      sload\n        /* \"Documents/GitHub/Store-system-with-feedback/main.sol\":4464:4561  shops[msg.sender].ballance + structProducts[structStatusPurchases[idPurchase].titleProduct].price */\n      tag_128\n      swap2\n        /* \"Documents/GitHub/Store-system-with-feedback/main.sol\":4493:4561  structProducts[structStatusPurchases[idPurchase].titleProduct].price */\n      swap1\n        /* \"Documents/GitHub/Store-system-with-feedback/main.sol\":4464:4561  shops[msg.sender].ballance + structProducts[structStatusPurchases[idPurchase].titleProduct].price */\n      tag_129\n      jump\t// in\n    tag_128:\n        /* \"Documents/GitHub/Store-system-with-feedback/main.sol\":4441:4451  msg.sender */\n      caller\n        /* \"Documents/GitHub/Store-system-with-feedback/main.sol\":4435:4440  shops */\n      0x00\n        /* \"Documents/GitHub/Store-system-with-feedback/main.sol\":4435:4452  shops[msg.sender] */\n      swap1\n      dup2\n      mstore\n      0x20\n      dup2\n      swap1\n      mstore\n      0x40\n      swap1\n      keccak256\n        /* \"Documents/GitHub/Store-system-with-feedback/main.sol\":4435:4461  shops[msg.sender].ballance */\n      0x03\n      add\n        /* \"Documents/GitHub/Store-system-with-feedback/main.sol\":4435:4561  shops[msg.sender].ballance = shops[msg.sender].ballance + structProducts[structStatusPurchases[idPurchase].titleProduct].price */\n      sstore\n        /* \"Documents/GitHub/Store-system-with-feedback/main.sol\":4033:4661  function acceptPurchase (uint idPurchase, bool confirmation) public {\r... */\n      pop\n      pop\n      jump\t// out\n        /* \"Documents/GitHub/Store-system-with-feedback/main.sol\":4112:4654  if (confirmation == true) {\r... */\n    tag_106:\n        /* \"Documents/GitHub/Store-system-with-feedback/main.sol\":4637:4642  false */\n      0x00\n        /* \"Documents/GitHub/Store-system-with-feedback/main.sol\":4594:4615  structStatusPurchases */\n      0x09\n        /* \"Documents/GitHub/Store-system-with-feedback/main.sol\":4616:4626  idPurchase */\n      dup4\n        /* \"Documents/GitHub/Store-system-with-feedback/main.sol\":4594:4627  structStatusPurchases[idPurchase] */\n      dup2\n      sload\n      dup2\n      lt\n      tag_132\n      jumpi\n      tag_132\n      tag_109\n      jump\t// in\n    tag_132:\n      0x00\n      swap2\n      dup3\n      mstore\n      0x20\n      swap1\n      swap2\n      keccak256\n      0x03\n      swap1\n      swap2\n      mul\n      add\n        /* \"Documents/GitHub/Store-system-with-feedback/main.sol\":4594:4634  structStatusPurchases[idPurchase].status */\n      0x02\n      add\n        /* \"Documents/GitHub/Store-system-with-feedback/main.sol\":4594:4642  structStatusPurchases[idPurchase].status = false */\n      dup1\n      sload\n      not(0xff)\n      and\n      swap2\n      iszero\n      iszero\n      swap2\n      swap1\n      swap2\n      or\n      swap1\n      sstore\n      pop\n      pop\n        /* \"Documents/GitHub/Store-system-with-feedback/main.sol\":4033:4661  function acceptPurchase (uint idPurchase, bool confirmation) public {\r... */\n      jump\t// out\n        /* \"Documents/GitHub/Store-system-with-feedback/main.sol\":7485:7756  function productPurchases (string memory titleProduct) public {\r... */\n    tag_30:\n        /* \"Documents/GitHub/Store-system-with-feedback/main.sol\":7602:7616  structProducts */\n      0x07\n        /* \"Documents/GitHub/Store-system-with-feedback/main.sol\":7617:7629  titleProduct */\n      dup2\n        /* \"Documents/GitHub/Store-system-with-feedback/main.sol\":7602:7630  structProducts[titleProduct] */\n      mload(0x40)\n      tag_135\n      swap2\n      swap1\n      tag_136\n      jump\t// in\n    tag_135:\n      swap1\n      dup2\n      mstore\n      0x20\n      add\n      mload(0x40)\n      dup1\n      swap2\n      sub\n      swap1\n      keccak256\n        /* \"Documents/GitHub/Store-system-with-feedback/main.sol\":7602:7636  structProducts[titleProduct].price */\n      0x02\n      add\n      sload\n        /* \"Documents/GitHub/Store-system-with-feedback/main.sol\":7566:7577  structUsers */\n      0x04\n        /* \"Documents/GitHub/Store-system-with-feedback/main.sol\":7566:7589  structUsers[msg.sender] */\n      0x00\n        /* \"Documents/GitHub/Store-system-with-feedback/main.sol\":7578:7588  msg.sender */\n      caller\n      sub(shl(0xa0, 0x01), 0x01)\n        /* \"Documents/GitHub/Store-system-with-feedback/main.sol\":7566:7589  structUsers[msg.sender] */\n      and\n      sub(shl(0xa0, 0x01), 0x01)\n      and\n      dup2\n      mstore\n      0x20\n      add\n      swap1\n      dup2\n      mstore\n      0x20\n      add\n      0x00\n      keccak256\n        /* \"Documents/GitHub/Store-system-with-feedback/main.sol\":7566:7598  structUsers[msg.sender].ballance */\n      0x02\n      add\n      sload\n        /* \"Documents/GitHub/Store-system-with-feedback/main.sol\":7566:7636  structUsers[msg.sender].ballance >= structProducts[titleProduct].price */\n      lt\n      iszero\n        /* \"Documents/GitHub/Store-system-with-feedback/main.sol\":7558:7657  require(structUsers[msg.sender].ballance >= structProducts[titleProduct].price, \"error: not money\") */\n      tag_137\n      jumpi\n      mload(0x40)\n      shl(0xe5, 0x461bcd)\n      dup2\n      mstore\n        /* \"#utility.yul\":8373:8375   */\n      0x20\n        /* \"Documents/GitHub/Store-system-with-feedback/main.sol\":7558:7657  require(structUsers[msg.sender].ballance >= structProducts[titleProduct].price, \"error: not money\") */\n      0x04\n      dup3\n      add\n        /* \"#utility.yul\":8355:8376   */\n      mstore\n        /* \"#utility.yul\":8412:8414   */\n      0x10\n        /* \"#utility.yul\":8392:8410   */\n      0x24\n      dup3\n      add\n        /* \"#utility.yul\":8385:8415   */\n      mstore\n      shl(0x80, 0x6572726f723a206e6f74206d6f6e6579)\n        /* \"#utility.yul\":8431:8449   */\n      0x44\n      dup3\n      add\n        /* \"#utility.yul\":8424:8470   */\n      mstore\n        /* \"#utility.yul\":8487:8505   */\n      0x64\n      add\n        /* \"Documents/GitHub/Store-system-with-feedback/main.sol\":7558:7657  require(structUsers[msg.sender].ballance >= structProducts[titleProduct].price, \"error: not money\") */\n    tag_138:\n      mload(0x40)\n      dup1\n      swap2\n      sub\n      swap1\n      revert\n    tag_137:\n        /* \"Documents/GitHub/Store-system-with-feedback/main.sol\":7695:7747  structStatusPurchase(msg.sender, titleProduct, true) */\n      0x40\n      dup1\n      mload\n      0x60\n      dup2\n      add\n      dup3\n      mstore\n        /* \"Documents/GitHub/Store-system-with-feedback/main.sol\":7716:7726  msg.sender */\n      caller\n        /* \"Documents/GitHub/Store-system-with-feedback/main.sol\":7695:7747  structStatusPurchase(msg.sender, titleProduct, true) */\n      dup2\n      mstore\n      0x20\n      dup1\n      dup3\n      add\n      dup5\n      dup2\n      mstore\n        /* \"Documents/GitHub/Store-system-with-feedback/main.sol\":7742:7746  true */\n      0x01\n        /* \"Documents/GitHub/Store-system-with-feedback/main.sol\":7695:7747  structStatusPurchase(msg.sender, titleProduct, true) */\n      swap4\n      dup4\n      add\n      dup5\n      swap1\n      mstore\n        /* \"Documents/GitHub/Store-system-with-feedback/main.sol\":7668:7689  structStatusPurchases */\n      0x09\n        /* \"Documents/GitHub/Store-system-with-feedback/main.sol\":7668:7748  structStatusPurchases.push(structStatusPurchase(msg.sender, titleProduct, true)) */\n      dup1\n      sload\n      swap5\n      dup6\n      add\n      dup2\n      sstore\n      0x00\n      mstore\n      dup3\n      mload\n      0x6e1540171b6c0c960b71a7020d9f60077f6af931a8bbf590da0223dacf75c7af\n      0x03\n      swap1\n      swap6\n      mul\n      swap5\n      dup6\n      add\n      dup1\n      sload\n      not(sub(shl(0xa0, 0x01), 0x01))\n      and\n      sub(shl(0xa0, 0x01), 0x01)\n      swap1\n      swap3\n      and\n      swap2\n      swap1\n      swap2\n      or\n      dup2\n      sstore\n      swap1\n      mload\n      dup1\n      mload\n        /* \"Documents/GitHub/Store-system-with-feedback/main.sol\":7695:7747  structStatusPurchase(msg.sender, titleProduct, true) */\n      swap4\n      swap5\n        /* \"Documents/GitHub/Store-system-with-feedback/main.sol\":7668:7748  structStatusPurchases.push(structStatusPurchase(msg.sender, titleProduct, true)) */\n      swap2\n      swap4\n      tag_141\n      swap4\n      0x6e1540171b6c0c960b71a7020d9f60077f6af931a8bbf590da0223dacf75c7b0\n      swap1\n      swap4\n      add\n      swap3\n      swap2\n      swap1\n      swap2\n      add\n      swap1\n      tag_142\n      jump\t// in\n    tag_141:\n      pop\n      0x40\n      swap2\n      swap1\n      swap2\n      add\n      mload\n      0x02\n      swap1\n      swap2\n      add\n      dup1\n      sload\n      not(0xff)\n      and\n      swap2\n      iszero\n      iszero\n      swap2\n      swap1\n      swap2\n      or\n      swap1\n      sstore\n      pop\n        /* \"Documents/GitHub/Store-system-with-feedback/main.sol\":7485:7756  function productPurchases (string memory titleProduct) public {\r... */\n      jump\t// out\n        /* \"Documents/GitHub/Store-system-with-feedback/main.sol\":6979:7398  function leaveComment (string memory userName, string[] memory comment) public {\r... */\n    tag_39:\n        /* \"Documents/GitHub/Store-system-with-feedback/main.sol\":7073:7079  uint i */\n      0x00\n        /* \"Documents/GitHub/Store-system-with-feedback/main.sol\":7069:7391  for(uint i = 0; i < complaintBooks.length; i++) {\r... */\n    tag_144:\n        /* \"Documents/GitHub/Store-system-with-feedback/main.sol\":7089:7103  complaintBooks */\n      0x03\n        /* \"Documents/GitHub/Store-system-with-feedback/main.sol\":7089:7110  complaintBooks.length */\n      sload\n        /* \"Documents/GitHub/Store-system-with-feedback/main.sol\":7085:7110  i < complaintBooks.length */\n      dup2\n      lt\n        /* \"Documents/GitHub/Store-system-with-feedback/main.sol\":7069:7391  for(uint i = 0; i < complaintBooks.length; i++) {\r... */\n      iszero\n      tag_145\n      jumpi\n        /* \"Documents/GitHub/Store-system-with-feedback/main.sol\":7132:7158  string memory tempUserName */\n      0x00\n        /* \"Documents/GitHub/Store-system-with-feedback/main.sol\":7161:7175  complaintBooks */\n      0x03\n        /* \"Documents/GitHub/Store-system-with-feedback/main.sol\":7176:7177  i */\n      dup3\n        /* \"Documents/GitHub/Store-system-with-feedback/main.sol\":7161:7178  complaintBooks[i] */\n      dup2\n      sload\n      dup2\n      lt\n      tag_148\n      jumpi\n      tag_148\n      tag_109\n      jump\t// in\n    tag_148:\n      swap1\n      0x00\n      mstore\n      keccak256(0x00, 0x20)\n      swap1\n      0x05\n      mul\n      add\n        /* \"Documents/GitHub/Store-system-with-feedback/main.sol\":7161:7187  complaintBooks[i].userName */\n      0x01\n      add\n        /* \"Documents/GitHub/Store-system-with-feedback/main.sol\":7132:7187  string memory tempUserName = complaintBooks[i].userName */\n      dup1\n      sload\n      tag_150\n      swap1\n      tag_151\n      jump\t// in\n    tag_150:\n      dup1\n      0x1f\n      add\n      0x20\n      dup1\n      swap2\n      div\n      mul\n      0x20\n      add\n      mload(0x40)\n      swap1\n      dup2\n      add\n      0x40\n      mstore\n      dup1\n      swap3\n      swap2\n      swap1\n      dup2\n      dup2\n      mstore\n      0x20\n      add\n      dup3\n      dup1\n      sload\n      tag_152\n      swap1\n      tag_151\n      jump\t// in\n    tag_152:\n      dup1\n      iszero\n      tag_153\n      jumpi\n      dup1\n      0x1f\n      lt\n      tag_154\n      jumpi\n      0x0100\n      dup1\n      dup4\n      sload\n      div\n      mul\n      dup4\n      mstore\n      swap2\n      0x20\n      add\n      swap2\n      jump(tag_153)\n    tag_154:\n      dup3\n      add\n      swap2\n      swap1\n      0x00\n      mstore\n      keccak256(0x00, 0x20)\n      swap1\n    tag_155:\n      dup2\n      sload\n      dup2\n      mstore\n      swap1\n      0x01\n      add\n      swap1\n      0x20\n      add\n      dup1\n      dup4\n      gt\n      tag_155\n      jumpi\n      dup3\n      swap1\n      sub\n      0x1f\n      and\n      dup3\n      add\n      swap2\n    tag_153:\n      pop\n      pop\n      pop\n      pop\n      pop\n      swap1\n      pop\n        /* \"Documents/GitHub/Store-system-with-feedback/main.sol\":7277:7285  userName */\n      dup4\n        /* \"Documents/GitHub/Store-system-with-feedback/main.sol\":7260:7286  abi.encodePacked(userName) */\n      add(0x20, mload(0x40))\n      tag_156\n      swap2\n      swap1\n      tag_136\n      jump\t// in\n    tag_156:\n      mload(0x40)\n      0x20\n      dup2\n      dup4\n      sub\n      sub\n      dup2\n      mstore\n      swap1\n      0x40\n      mstore\n        /* \"Documents/GitHub/Store-system-with-feedback/main.sol\":7250:7287  keccak256(abi.encodePacked(userName)) */\n      dup1\n      mload\n      swap1\n      0x20\n      add\n      keccak256\n        /* \"Documents/GitHub/Store-system-with-feedback/main.sol\":7232:7244  tempUserName */\n      dup2\n        /* \"Documents/GitHub/Store-system-with-feedback/main.sol\":7215:7245  abi.encodePacked(tempUserName) */\n      add(0x20, mload(0x40))\n      tag_157\n      swap2\n      swap1\n      tag_136\n      jump\t// in\n    tag_157:\n      mload(0x40)\n      0x20\n      dup2\n      dup4\n      sub\n      sub\n      dup2\n      mstore\n      swap1\n      0x40\n      mstore\n        /* \"Documents/GitHub/Store-system-with-feedback/main.sol\":7205:7246  keccak256(abi.encodePacked(tempUserName)) */\n      dup1\n      mload\n      swap1\n      0x20\n      add\n      keccak256\n        /* \"Documents/GitHub/Store-system-with-feedback/main.sol\":7205:7287  keccak256(abi.encodePacked(tempUserName)) == keccak256(abi.encodePacked(userName)) */\n      eq\n        /* \"Documents/GitHub/Store-system-with-feedback/main.sol\":7202:7380  if(keccak256(abi.encodePacked(tempUserName)) == keccak256(abi.encodePacked(userName))) {                    \r... */\n      iszero\n      tag_158\n      jumpi\n        /* \"Documents/GitHub/Store-system-with-feedback/main.sol\":7357:7364  comment */\n      dup3\n        /* \"Documents/GitHub/Store-system-with-feedback/main.sol\":7328:7342  complaintBooks */\n      0x03\n        /* \"Documents/GitHub/Store-system-with-feedback/main.sol\":7343:7344  i */\n      dup4\n        /* \"Documents/GitHub/Store-system-with-feedback/main.sol\":7328:7345  complaintBooks[i] */\n      dup2\n      sload\n      dup2\n      lt\n      tag_160\n      jumpi\n      tag_160\n      tag_109\n      jump\t// in\n    tag_160:\n      swap1\n      0x00\n      mstore\n      keccak256(0x00, 0x20)\n      swap1\n      0x05\n      mul\n      add\n        /* \"Documents/GitHub/Store-system-with-feedback/main.sol\":7328:7354  complaintBooks[i].comments */\n      0x04\n      add\n        /* \"Documents/GitHub/Store-system-with-feedback/main.sol\":7328:7364  complaintBooks[i].comments = comment */\n      swap1\n      dup1\n      mload\n      swap1\n      0x20\n      add\n      swap1\n      tag_162\n      swap3\n      swap2\n      swap1\n      tag_163\n      jump\t// in\n    tag_162:\n      pop\n        /* \"Documents/GitHub/Store-system-with-feedback/main.sol\":7202:7380  if(keccak256(abi.encodePacked(tempUserName)) == keccak256(abi.encodePacked(userName))) {                    \r... */\n    tag_158:\n      pop\n        /* \"Documents/GitHub/Store-system-with-feedback/main.sol\":7112:7115  i++ */\n      dup1\n      tag_164\n      dup2\n      tag_165\n      jump\t// in\n    tag_164:\n      swap2\n      pop\n      pop\n        /* \"Documents/GitHub/Store-system-with-feedback/main.sol\":7069:7391  for(uint i = 0; i < complaintBooks.length; i++) {\r... */\n      jump(tag_144)\n    tag_145:\n      pop\n        /* \"Documents/GitHub/Store-system-with-feedback/main.sol\":6979:7398  function leaveComment (string memory userName, string[] memory comment) public {\r... */\n      pop\n      pop\n      jump\t// out\n        /* \"Documents/GitHub/Store-system-with-feedback/main.sol\":4706:5167  function acceptReturn(uint idReturn, bool confirmation) public {\r... */\n    tag_42:\n        /* \"Documents/GitHub/Store-system-with-feedback/main.sol\":4799:4803  true */\n      0x01\n        /* \"Documents/GitHub/Store-system-with-feedback/main.sol\":4783:4803  confirmation == true */\n      dup2\n      iszero\n      iszero\n      eq\n        /* \"Documents/GitHub/Store-system-with-feedback/main.sol\":4780:5160  if(confirmation == true) {\r... */\n      iszero\n      tag_167\n      jumpi\n        /* \"Documents/GitHub/Store-system-with-feedback/main.sol\":4859:4864  false */\n      0x00\n        /* \"Documents/GitHub/Store-system-with-feedback/main.sol\":4820:4839  structStatusReturns */\n      0x0a\n        /* \"Documents/GitHub/Store-system-with-feedback/main.sol\":4840:4848  idReturn */\n      dup4\n        /* \"Documents/GitHub/Store-system-with-feedback/main.sol\":4820:4849  structStatusReturns[idReturn] */\n      dup2\n      sload\n      dup2\n      lt\n      tag_169\n      jumpi\n      tag_169\n      tag_109\n      jump\t// in\n    tag_169:\n      swap1\n      0x00\n      mstore\n      keccak256(0x00, 0x20)\n      swap1\n      0x03\n      mul\n      add\n        /* \"Documents/GitHub/Store-system-with-feedback/main.sol\":4820:4856  structStatusReturns[idReturn].status */\n      0x02\n      add\n      0x00\n        /* \"Documents/GitHub/Store-system-with-feedback/main.sol\":4820:4864  structStatusReturns[idReturn].status = false */\n      0x0100\n      exp\n      dup2\n      sload\n      dup2\n      0xff\n      mul\n      not\n      and\n      swap1\n      dup4\n      iszero\n      iszero\n      mul\n      or\n      swap1\n      sstore\n      pop\n        /* \"Documents/GitHub/Store-system-with-feedback/main.sol\":5007:5021  structProducts */\n      0x07\n        /* \"Documents/GitHub/Store-system-with-feedback/main.sol\":5022:5041  structStatusReturns */\n      0x0a\n        /* \"Documents/GitHub/Store-system-with-feedback/main.sol\":5042:5050  idReturn */\n      dup4\n        /* \"Documents/GitHub/Store-system-with-feedback/main.sol\":5022:5051  structStatusReturns[idReturn] */\n      dup2\n      sload\n      dup2\n      lt\n      tag_172\n      jumpi\n      tag_172\n      tag_109\n      jump\t// in\n    tag_172:\n      swap1\n      0x00\n      mstore\n      keccak256(0x00, 0x20)\n      swap1\n      0x03\n      mul\n      add\n        /* \"Documents/GitHub/Store-system-with-feedback/main.sol\":5022:5064  structStatusReturns[idReturn].titleProduct */\n      0x01\n      add\n        /* \"Documents/GitHub/Store-system-with-feedback/main.sol\":5007:5065  structProducts[structStatusReturns[idReturn].titleProduct] */\n      mload(0x40)\n      tag_174\n      swap2\n      swap1\n      tag_115\n      jump\t// in\n    tag_174:\n      swap1\n      dup2\n      mstore\n      0x20\n      add\n      mload(0x40)\n      dup1\n      swap2\n      sub\n      swap1\n      keccak256\n        /* \"Documents/GitHub/Store-system-with-feedback/main.sol\":5007:5071  structProducts[structStatusReturns[idReturn].titleProduct].price */\n      0x02\n      add\n      sload\n        /* \"Documents/GitHub/Store-system-with-feedback/main.sol\":4943:4954  structUsers */\n      0x04\n        /* \"Documents/GitHub/Store-system-with-feedback/main.sol\":4943:4995  structUsers[structStatusReturns[idReturn].userLogin] */\n      0x00\n        /* \"Documents/GitHub/Store-system-with-feedback/main.sol\":4955:4974  structStatusReturns */\n      0x0a\n        /* \"Documents/GitHub/Store-system-with-feedback/main.sol\":4975:4983  idReturn */\n      dup6\n        /* \"Documents/GitHub/Store-system-with-feedback/main.sol\":4955:4984  structStatusReturns[idReturn] */\n      dup2\n      sload\n      dup2\n      lt\n      tag_176\n      jumpi\n      tag_176\n      tag_109\n      jump\t// in\n    tag_176:\n      0x00\n      swap2\n      dup3\n      mstore\n      0x20\n      dup1\n      dup4\n      keccak256\n      0x03\n      swap1\n      swap3\n      mul\n      swap1\n      swap2\n      add\n        /* \"Documents/GitHub/Store-system-with-feedback/main.sol\":4955:4994  structStatusReturns[idReturn].userLogin */\n      sload\n      sub(shl(0xa0, 0x01), 0x01)\n      and\n        /* \"Documents/GitHub/Store-system-with-feedback/main.sol\":4943:4995  structUsers[structStatusReturns[idReturn].userLogin] */\n      dup4\n      mstore\n      dup3\n      add\n      swap3\n      swap1\n      swap3\n      mstore\n      0x40\n      add\n      swap1\n      keccak256\n        /* \"Documents/GitHub/Store-system-with-feedback/main.sol\":4943:5004  structUsers[structStatusReturns[idReturn].userLogin].ballance */\n      0x02\n      add\n      sload\n        /* \"Documents/GitHub/Store-system-with-feedback/main.sol\":4943:5071  structUsers[structStatusReturns[idReturn].userLogin].ballance + structProducts[structStatusReturns[idReturn].titleProduct].price */\n      tag_178\n      swap2\n      swap1\n      tag_129\n      jump\t// in\n    tag_178:\n        /* \"Documents/GitHub/Store-system-with-feedback/main.sol\":4879:4890  structUsers */\n      0x04\n        /* \"Documents/GitHub/Store-system-with-feedback/main.sol\":4879:4931  structUsers[structStatusReturns[idReturn].userLogin] */\n      0x00\n        /* \"Documents/GitHub/Store-system-with-feedback/main.sol\":4891:4910  structStatusReturns */\n      0x0a\n        /* \"Documents/GitHub/Store-system-with-feedback/main.sol\":4911:4919  idReturn */\n      dup6\n        /* \"Documents/GitHub/Store-system-with-feedback/main.sol\":4891:4920  structStatusReturns[idReturn] */\n      dup2\n      sload\n      dup2\n      lt\n      tag_180\n      jumpi\n      tag_180\n      tag_109\n      jump\t// in\n    tag_180:\n      0x00\n      swap2\n      dup3\n      mstore\n      0x20\n      dup1\n      dup4\n      keccak256\n      0x03\n      swap1\n      swap3\n      mul\n      swap1\n      swap2\n      add\n        /* \"Documents/GitHub/Store-system-with-feedback/main.sol\":4891:4930  structStatusReturns[idReturn].userLogin */\n      sload\n      sub(shl(0xa0, 0x01), 0x01)\n      and\n        /* \"Documents/GitHub/Store-system-with-feedback/main.sol\":4879:4931  structUsers[structStatusReturns[idReturn].userLogin] */\n      dup4\n      mstore\n      dup3\n      add\n      swap3\n      swap1\n      swap3\n      mstore\n      0x40\n      add\n      swap1\n      keccak256\n        /* \"Documents/GitHub/Store-system-with-feedback/main.sol\":4879:4940  structUsers[structStatusReturns[idReturn].userLogin].ballance */\n      0x02\n      add\n        /* \"Documents/GitHub/Store-system-with-feedback/main.sol\":4879:5071  structUsers[structStatusReturns[idReturn].userLogin].ballance = structUsers[structStatusReturns[idReturn].userLogin].ballance + structProducts[structStatusReturns[idReturn].titleProduct].price */\n      sstore\n        /* \"Documents/GitHub/Store-system-with-feedback/main.sol\":4033:4661  function acceptPurchase (uint idPurchase, bool confirmation) public {\r... */\n      pop\n      pop\n      jump\t// out\n        /* \"Documents/GitHub/Store-system-with-feedback/main.sol\":4780:5160  if(confirmation == true) {\r... */\n    tag_167:\n        /* \"Documents/GitHub/Store-system-with-feedback/main.sol\":5143:5148  false */\n      0x00\n        /* \"Documents/GitHub/Store-system-with-feedback/main.sol\":5104:5123  structStatusReturns */\n      0x0a\n        /* \"Documents/GitHub/Store-system-with-feedback/main.sol\":5124:5132  idReturn */\n      dup4\n        /* \"Documents/GitHub/Store-system-with-feedback/main.sol\":5104:5133  structStatusReturns[idReturn] */\n      dup2\n      sload\n      dup2\n      lt\n      tag_132\n      jumpi\n      tag_132\n      tag_109\n      jump\t// in\n        /* \"Documents/GitHub/Store-system-with-feedback/main.sol\":7995:8179  function productMarriageRegistration (string memory titleProduct) public {\r... */\n    tag_45:\n        /* \"Documents/GitHub/Store-system-with-feedback/main.sol\":8112:8170  structMarriageRegistration(msg.sender, titleProduct, true) */\n      0x40\n      dup1\n      mload\n      0x60\n      dup2\n      add\n      dup3\n      mstore\n        /* \"Documents/GitHub/Store-system-with-feedback/main.sol\":8139:8149  msg.sender */\n      caller\n        /* \"Documents/GitHub/Store-system-with-feedback/main.sol\":8112:8170  structMarriageRegistration(msg.sender, titleProduct, true) */\n      dup2\n      mstore\n      0x20\n      dup1\n      dup3\n      add\n      dup5\n      dup2\n      mstore\n        /* \"Documents/GitHub/Store-system-with-feedback/main.sol\":8165:8169  true */\n      0x01\n        /* \"Documents/GitHub/Store-system-with-feedback/main.sol\":8112:8170  structMarriageRegistration(msg.sender, titleProduct, true) */\n      swap4\n      dup4\n      add\n      dup5\n      swap1\n      mstore\n        /* \"Documents/GitHub/Store-system-with-feedback/main.sol\":8079:8106  structMarriageRegistrations */\n      0x0b\n        /* \"Documents/GitHub/Store-system-with-feedback/main.sol\":8079:8171  structMarriageRegistrations.push(structMarriageRegistration(msg.sender, titleProduct, true)) */\n      dup1\n      sload\n      swap5\n      dup6\n      add\n      dup2\n      sstore\n      0x00\n      mstore\n      dup3\n      mload\n      0x0175b7a638427703f0dbe7bb9bbf987a2551717b34e79f33b5b1008d1fa01db9\n      0x03\n      swap1\n      swap6\n      mul\n      swap5\n      dup6\n      add\n      dup1\n      sload\n      not(sub(shl(0xa0, 0x01), 0x01))\n      and\n      sub(shl(0xa0, 0x01), 0x01)\n      swap1\n      swap3\n      and\n      swap2\n      swap1\n      swap2\n      or\n      dup2\n      sstore\n      swap1\n      mload\n      dup1\n      mload\n        /* \"Documents/GitHub/Store-system-with-feedback/main.sol\":8112:8170  structMarriageRegistration(msg.sender, titleProduct, true) */\n      swap4\n      swap5\n        /* \"Documents/GitHub/Store-system-with-feedback/main.sol\":8079:8171  structMarriageRegistrations.push(structMarriageRegistration(msg.sender, titleProduct, true)) */\n      swap2\n      swap4\n      tag_141\n      swap4\n      0x0175b7a638427703f0dbe7bb9bbf987a2551717b34e79f33b5b1008d1fa01dba\n      swap1\n      swap4\n      add\n      swap3\n      swap2\n      swap1\n      swap2\n      add\n      swap1\n      tag_142\n      jump\t// in\n        /* \"Documents/GitHub/Store-system-with-feedback/main.sol\":5954:6054  function getProductList() public view returns(string[] memory) {\r... */\n    tag_47:\n        /* \"Documents/GitHub/Store-system-with-feedback/main.sol\":6000:6015  string[] memory */\n      0x60\n        /* \"Documents/GitHub/Store-system-with-feedback/main.sol\":6035:6046  productList */\n      0x08\n        /* \"Documents/GitHub/Store-system-with-feedback/main.sol\":6028:6046  return productList */\n      dup1\n      sload\n      dup1\n      0x20\n      mul\n      0x20\n      add\n      mload(0x40)\n      swap1\n      dup2\n      add\n      0x40\n      mstore\n      dup1\n      swap3\n      swap2\n      swap1\n      dup2\n      dup2\n      mstore\n      0x20\n      add\n      0x00\n      swap1\n    tag_190:\n      dup3\n      dup3\n      lt\n      iszero\n      tag_191\n      jumpi\n      dup4\n      dup3\n      swap1\n      0x00\n      mstore\n      keccak256(0x00, 0x20)\n      add\n      dup1\n      sload\n      tag_193\n      swap1\n      tag_151\n      jump\t// in\n    tag_193:\n      dup1\n      0x1f\n      add\n      0x20\n      dup1\n      swap2\n      div\n      mul\n      0x20\n      add\n      mload(0x40)\n      swap1\n      dup2\n      add\n      0x40\n      mstore\n      dup1\n      swap3\n      swap2\n      swap1\n      dup2\n      dup2\n      mstore\n      0x20\n      add\n      dup3\n      dup1\n      sload\n      tag_194\n      swap1\n      tag_151\n      jump\t// in\n    tag_194:\n      dup1\n      iszero\n      tag_195\n      jumpi\n      dup1\n      0x1f\n      lt\n      tag_196\n      jumpi\n      0x0100\n      dup1\n      dup4\n      sload\n      div\n      mul\n      dup4\n      mstore\n      swap2\n      0x20\n      add\n      swap2\n      jump(tag_195)\n    tag_196:\n      dup3\n      add\n      swap2\n      swap1\n      0x00\n      mstore\n      keccak256(0x00, 0x20)\n      swap1\n    tag_197:\n      dup2\n      sload\n      dup2\n      mstore\n      swap1\n      0x01\n      add\n      swap1\n      0x20\n      add\n      dup1\n      dup4\n      gt\n      tag_197\n      jumpi\n      dup3\n      swap1\n      sub\n      0x1f\n      and\n      dup3\n      add\n      swap2\n    tag_195:\n      pop\n      pop\n      pop\n      pop\n      pop\n      dup2\n      mstore\n      0x20\n      add\n      swap1\n      0x01\n      add\n      swap1\n      jump(tag_190)\n    tag_191:\n      pop\n      pop\n      pop\n      pop\n      swap1\n      pop\n        /* \"Documents/GitHub/Store-system-with-feedback/main.sol\":5954:6054  function getProductList() public view returns(string[] memory) {\r... */\n      swap1\n      jump\t// out\n        /* \"Documents/GitHub/Store-system-with-feedback/main.sol\":8223:8344  function get_address(string memory login) public view returns(address) {\r... */\n    tag_52:\n        /* \"Documents/GitHub/Store-system-with-feedback/main.sol\":8285:8292  address */\n      0x00\n        /* \"Documents/GitHub/Store-system-with-feedback/main.sol\":8312:8328  structUserLogins */\n      0x05\n        /* \"Documents/GitHub/Store-system-with-feedback/main.sol\":8329:8334  login */\n      dup3\n        /* \"Documents/GitHub/Store-system-with-feedback/main.sol\":8312:8335  structUserLogins[login] */\n      mload(0x40)\n      tag_199\n      swap2\n      swap1\n      tag_136\n      jump\t// in\n    tag_199:\n      swap1\n      dup2\n      mstore\n      mload(0x40)\n      swap1\n      dup2\n      swap1\n      sub\n      0x20\n      add\n      swap1\n      keccak256\n      sload\n      sub(shl(0xa0, 0x01), 0x01)\n      and\n      swap3\n        /* \"Documents/GitHub/Store-system-with-feedback/main.sol\":8223:8344  function get_address(string memory login) public view returns(address) {\r... */\n      swap2\n      pop\n      pop\n      jump\t// out\n        /* \"Documents/GitHub/Store-system-with-feedback/main.sol\":2954:3353  function addProductShop (string memory title, uint256 price, string memory description) public {\r... */\n    tag_57:\n        /* \"Documents/GitHub/Store-system-with-feedback/main.sol\":3169:3241  structProduct(msg.sender, description , price, addProductShop_idProduct) */\n      mload(0x40)\n      dup1\n      0x80\n      add\n      0x40\n      mstore\n      dup1\n        /* \"Documents/GitHub/Store-system-with-feedback/main.sol\":3183:3193  msg.sender */\n      caller\n      sub(shl(0xa0, 0x01), 0x01)\n        /* \"Documents/GitHub/Store-system-with-feedback/main.sol\":3169:3241  structProduct(msg.sender, description , price, addProductShop_idProduct) */\n      and\n      dup2\n      mstore\n      0x20\n      add\n        /* \"Documents/GitHub/Store-system-with-feedback/main.sol\":3195:3206  description */\n      dup3\n        /* \"Documents/GitHub/Store-system-with-feedback/main.sol\":3169:3241  structProduct(msg.sender, description , price, addProductShop_idProduct) */\n      dup2\n      mstore\n      0x20\n      add\n        /* \"Documents/GitHub/Store-system-with-feedback/main.sol\":3209:3214  price */\n      dup4\n        /* \"Documents/GitHub/Store-system-with-feedback/main.sol\":3169:3241  structProduct(msg.sender, description , price, addProductShop_idProduct) */\n      dup2\n      mstore\n      0x20\n      add\n        /* \"Documents/GitHub/Store-system-with-feedback/main.sol\":3216:3240  addProductShop_idProduct */\n      sload(0x0c)\n        /* \"Documents/GitHub/Store-system-with-feedback/main.sol\":3169:3241  structProduct(msg.sender, description , price, addProductShop_idProduct) */\n      dup2\n      mstore\n      pop\n        /* \"Documents/GitHub/Store-system-with-feedback/main.sol\":3145:3159  structProducts */\n      0x07\n        /* \"Documents/GitHub/Store-system-with-feedback/main.sol\":3160:3165  title */\n      dup5\n        /* \"Documents/GitHub/Store-system-with-feedback/main.sol\":3145:3166  structProducts[title] */\n      mload(0x40)\n      tag_201\n      swap2\n      swap1\n      tag_136\n      jump\t// in\n    tag_201:\n      swap1\n      dup2\n      mstore\n      mload(0x40)\n      0x20\n      swap2\n      dup2\n      swap1\n      sub\n      dup3\n      add\n      swap1\n      keccak256\n        /* \"Documents/GitHub/Store-system-with-feedback/main.sol\":3145:3241  structProducts[title] = structProduct(msg.sender, description , price, addProductShop_idProduct) */\n      dup3\n      mload\n      dup2\n      sload\n      not(sub(shl(0xa0, 0x01), 0x01))\n      and\n      sub(shl(0xa0, 0x01), 0x01)\n      swap1\n      swap2\n      and\n      or\n      dup2\n      sstore\n      dup3\n      dup3\n      add\n      mload\n      dup1\n      mload\n        /* \"Documents/GitHub/Store-system-with-feedback/main.sol\":3145:3166  structProducts[title] */\n      swap2\n      swap3\n        /* \"Documents/GitHub/Store-system-with-feedback/main.sol\":3145:3241  structProducts[title] = structProduct(msg.sender, description , price, addProductShop_idProduct) */\n      tag_202\n      swap3\n      0x01\n      dup6\n      add\n      swap3\n      swap1\n      swap2\n      add\n      swap1\n      tag_142\n      jump\t// in\n    tag_202:\n      pop\n      0x40\n      dup3\n      add\n      mload\n      0x02\n      dup3\n      add\n      sstore\n      0x60\n      swap1\n      swap2\n      add\n      mload\n      0x03\n      swap1\n      swap2\n      add\n      sstore\n        /* \"Documents/GitHub/Store-system-with-feedback/main.sol\":3256:3267  productList */\n      0x08\n        /* \"Documents/GitHub/Store-system-with-feedback/main.sol\":3256:3279  productList.push(title) */\n      dup1\n      sload\n      0x01\n      dup2\n      add\n      dup3\n      sstore\n      0x00\n      swap2\n      swap1\n      swap2\n      mstore\n      dup4\n      mload\n      tag_204\n      swap2\n      0xf3f7a9fe364faab93b216da50a3214154f22a0a2b415b23a84c8169e8b636ee3\n      add\n      swap1\n      0x20\n      dup7\n      add\n      swap1\n      tag_142\n      jump\t// in\n    tag_204:\n      pop\n        /* \"Documents/GitHub/Store-system-with-feedback/main.sol\":3294:3318  addProductShop_idProduct */\n      0x0c\n        /* \"Documents/GitHub/Store-system-with-feedback/main.sol\":3294:3320  addProductShop_idProduct++ */\n      dup1\n      sload\n      swap1\n        /* \"Documents/GitHub/Store-system-with-feedback/main.sol\":3294:3318  addProductShop_idProduct */\n      0x00\n        /* \"Documents/GitHub/Store-system-with-feedback/main.sol\":3294:3320  addProductShop_idProduct++ */\n      tag_205\n      dup4\n      tag_165\n      jump\t// in\n    tag_205:\n      swap2\n      swap1\n      pop\n      sstore\n      pop\n        /* \"Documents/GitHub/Store-system-with-feedback/main.sol\":2954:3353  function addProductShop (string memory title, uint256 price, string memory description) public {\r... */\n      pop\n      pop\n      pop\n      jump\t// out\n        /* \"Documents/GitHub/Store-system-with-feedback/main.sol\":2769:2832  structMarriageRegistration[] public structMarriageRegistrations */\n    tag_61:\n      0x0b\n      dup2\n      dup2\n      sload\n      dup2\n      lt\n      tag_206\n      jumpi\n      0x00\n      dup1\n      revert\n    tag_206:\n      0x00\n      swap2\n      dup3\n      mstore\n      0x20\n      swap1\n      swap2\n      keccak256\n      0x03\n      swap1\n      swap2\n      mul\n      add\n      dup1\n      sload\n      0x01\n      dup3\n      add\n      dup1\n      sload\n      sub(shl(0xa0, 0x01), 0x01)\n      swap1\n      swap3\n      and\n      swap4\n      pop\n      swap1\n      tag_208\n      swap1\n      tag_151\n      jump\t// in\n    tag_208:\n      dup1\n      0x1f\n      add\n      0x20\n      dup1\n      swap2\n      div\n      mul\n      0x20\n      add\n      mload(0x40)\n      swap1\n      dup2\n      add\n      0x40\n      mstore\n      dup1\n      swap3\n      swap2\n      swap1\n      dup2\n      dup2\n      mstore\n      0x20\n      add\n      dup3\n      dup1\n      sload\n      tag_209\n      swap1\n      tag_151\n      jump\t// in\n    tag_209:\n      dup1\n      iszero\n      tag_210\n      jumpi\n      dup1\n      0x1f\n      lt\n      tag_211\n      jumpi\n      0x0100\n      dup1\n      dup4\n      sload\n      div\n      mul\n      dup4\n      mstore\n      swap2\n      0x20\n      add\n      swap2\n      jump(tag_210)\n    tag_211:\n      dup3\n      add\n      swap2\n      swap1\n      0x00\n      mstore\n      keccak256(0x00, 0x20)\n      swap1\n    tag_212:\n      dup2\n      sload\n      dup2\n      mstore\n      swap1\n      0x01\n      add\n      swap1\n      0x20\n      add\n      dup1\n      dup4\n      gt\n      tag_212\n      jumpi\n      dup3\n      swap1\n      sub\n      0x1f\n      and\n      dup3\n      add\n      swap2\n    tag_210:\n      pop\n      pop\n      pop\n      0x02\n      swap1\n      swap4\n      add\n      sload\n      swap2\n      swap3\n      pop\n      pop\n      0xff\n      and\n      dup4\n      jump\t// out\n        /* \"Documents/GitHub/Store-system-with-feedback/main.sol\":1799:1848  mapping(address => structUser) public structUsers */\n    tag_67:\n      mstore(0x20, 0x04)\n      0x00\n      swap1\n      dup2\n      mstore\n      0x40\n      swap1\n      keccak256\n      dup1\n      sload\n      dup2\n      swap1\n      tag_213\n      swap1\n      tag_151\n      jump\t// in\n    tag_213:\n      dup1\n      0x1f\n      add\n      0x20\n      dup1\n      swap2\n      div\n      mul\n      0x20\n      add\n      mload(0x40)\n      swap1\n      dup2\n      add\n      0x40\n      mstore\n      dup1\n      swap3\n      swap2\n      swap1\n      dup2\n      dup2\n      mstore\n      0x20\n      add\n      dup3\n      dup1\n      sload\n      tag_214\n      swap1\n      tag_151\n      jump\t// in\n    tag_214:\n      dup1\n      iszero\n      tag_215\n      jumpi\n      dup1\n      0x1f\n      lt\n      tag_216\n      jumpi\n      0x0100\n      dup1\n      dup4\n      sload\n      div\n      mul\n      dup4\n      mstore\n      swap2\n      0x20\n      add\n      swap2\n      jump(tag_215)\n    tag_216:\n      dup3\n      add\n      swap2\n      swap1\n      0x00\n      mstore\n      keccak256(0x00, 0x20)\n      swap1\n    tag_217:\n      dup2\n      sload\n      dup2\n      mstore\n      swap1\n      0x01\n      add\n      swap1\n      0x20\n      add\n      dup1\n      dup4\n      gt\n      tag_217\n      jumpi\n      dup3\n      swap1\n      sub\n      0x1f\n      and\n      dup3\n      add\n      swap2\n    tag_215:\n      pop\n      pop\n      pop\n      pop\n      pop\n      swap1\n      dup1\n      0x01\n      add\n      sload\n      swap1\n      dup1\n      0x02\n      add\n      sload\n      swap1\n      pop\n      dup4\n      jump\t// out\n        /* \"Documents/GitHub/Store-system-with-feedback/main.sol\":6086:6939  function getStoryRating(string memory shopName) public view returns(uint) {\r... */\n    tag_72:\n        /* \"Documents/GitHub/Store-system-with-feedback/main.sol\":6154:6158  uint */\n      0x00\n      dup1\n      dup1\n      dup1\n        /* \"Documents/GitHub/Store-system-with-feedback/main.sol\":6244:6831  for(uint i = 0; i < shopList.length; i++) {\r... */\n    tag_219:\n        /* \"Documents/GitHub/Store-system-with-feedback/main.sol\":6264:6272  shopList */\n      0x02\n        /* \"Documents/GitHub/Store-system-with-feedback/main.sol\":6264:6279  shopList.length */\n      sload\n        /* \"Documents/GitHub/Store-system-with-feedback/main.sol\":6260:6279  i < shopList.length */\n      dup2\n      lt\n        /* \"Documents/GitHub/Store-system-with-feedback/main.sol\":6244:6831  for(uint i = 0; i < shopList.length; i++) {\r... */\n      iszero\n      tag_220\n      jumpi\n        /* \"Documents/GitHub/Store-system-with-feedback/main.sol\":6301:6327  string memory tempShopName */\n      0x00\n        /* \"Documents/GitHub/Store-system-with-feedback/main.sol\":6330:6338  shopList */\n      0x02\n        /* \"Documents/GitHub/Store-system-with-feedback/main.sol\":6339:6340  i */\n      dup3\n        /* \"Documents/GitHub/Store-system-with-feedback/main.sol\":6330:6341  shopList[i] */\n      dup2\n      sload\n      dup2\n      lt\n      tag_223\n      jumpi\n      tag_223\n      tag_109\n      jump\t// in\n    tag_223:\n      swap1\n      0x00\n      mstore\n      keccak256(0x00, 0x20)\n      add\n        /* \"Documents/GitHub/Store-system-with-feedback/main.sol\":6301:6341  string memory tempShopName = shopList[i] */\n      dup1\n      sload\n      tag_225\n      swap1\n      tag_151\n      jump\t// in\n    tag_225:\n      dup1\n      0x1f\n      add\n      0x20\n      dup1\n      swap2\n      div\n      mul\n      0x20\n      add\n      mload(0x40)\n      swap1\n      dup2\n      add\n      0x40\n      mstore\n      dup1\n      swap3\n      swap2\n      swap1\n      dup2\n      dup2\n      mstore\n      0x20\n      add\n      dup3\n      dup1\n      sload\n      tag_226\n      swap1\n      tag_151\n      jump\t// in\n    tag_226:\n      dup1\n      iszero\n      tag_227\n      jumpi\n      dup1\n      0x1f\n      lt\n      tag_228\n      jumpi\n      0x0100\n      dup1\n      dup4\n      sload\n      div\n      mul\n      dup4\n      mstore\n      swap2\n      0x20\n      add\n      swap2\n      jump(tag_227)\n    tag_228:\n      dup3\n      add\n      swap2\n      swap1\n      0x00\n      mstore\n      keccak256(0x00, 0x20)\n      swap1\n    tag_229:\n      dup2\n      sload\n      dup2\n      mstore\n      swap1\n      0x01\n      add\n      swap1\n      0x20\n      add\n      dup1\n      dup4\n      gt\n      tag_229\n      jumpi\n      dup3\n      swap1\n      sub\n      0x1f\n      and\n      dup3\n      add\n      swap2\n    tag_227:\n      pop\n      pop\n      pop\n      pop\n      pop\n      swap1\n      pop\n        /* \"Documents/GitHub/Store-system-with-feedback/main.sol\":6431:6439  shopName */\n      dup6\n        /* \"Documents/GitHub/Store-system-with-feedback/main.sol\":6414:6440  abi.encodePacked(shopName) */\n      add(0x20, mload(0x40))\n      tag_230\n      swap2\n      swap1\n      tag_136\n      jump\t// in\n    tag_230:\n      mload(0x40)\n      0x20\n      dup2\n      dup4\n      sub\n      sub\n      dup2\n      mstore\n      swap1\n      0x40\n      mstore\n        /* \"Documents/GitHub/Store-system-with-feedback/main.sol\":6404:6441  keccak256(abi.encodePacked(shopName)) */\n      dup1\n      mload\n      swap1\n      0x20\n      add\n      keccak256\n        /* \"Documents/GitHub/Store-system-with-feedback/main.sol\":6386:6398  tempShopName */\n      dup2\n        /* \"Documents/GitHub/Store-system-with-feedback/main.sol\":6369:6399  abi.encodePacked(tempShopName) */\n      add(0x20, mload(0x40))\n      tag_231\n      swap2\n      swap1\n      tag_136\n      jump\t// in\n    tag_231:\n      mload(0x40)\n      0x20\n      dup2\n      dup4\n      sub\n      sub\n      dup2\n      mstore\n      swap1\n      0x40\n      mstore\n        /* \"Documents/GitHub/Store-system-with-feedback/main.sol\":6359:6400  keccak256(abi.encodePacked(tempShopName)) */\n      dup1\n      mload\n      swap1\n      0x20\n      add\n      keccak256\n        /* \"Documents/GitHub/Store-system-with-feedback/main.sol\":6359:6441  keccak256(abi.encodePacked(tempShopName)) == keccak256(abi.encodePacked(shopName)) */\n      eq\n        /* \"Documents/GitHub/Store-system-with-feedback/main.sol\":6356:6820  if(keccak256(abi.encodePacked(tempShopName)) == keccak256(abi.encodePacked(shopName))) {                    \r... */\n      iszero\n      tag_234\n      jumpi\n        /* \"Documents/GitHub/Store-system-with-feedback/main.sol\":6491:6492  0 */\n      0x00\n        /* \"Documents/GitHub/Store-system-with-feedback/main.sol\":6487:6492  i = 0 */\n      swap2\n      pop\n        /* \"Documents/GitHub/Store-system-with-feedback/main.sol\":6482:6805  for (i = 0; i <= complaintBooks.length; i++) {\r... */\n    tag_233:\n        /* \"Documents/GitHub/Store-system-with-feedback/main.sol\":6499:6513  complaintBooks */\n      0x03\n        /* \"Documents/GitHub/Store-system-with-feedback/main.sol\":6499:6520  complaintBooks.length */\n      sload\n        /* \"Documents/GitHub/Store-system-with-feedback/main.sol\":6494:6520  i <= complaintBooks.length */\n      dup3\n      gt\n        /* \"Documents/GitHub/Store-system-with-feedback/main.sol\":6482:6805  for (i = 0; i <= complaintBooks.length; i++) {\r... */\n      tag_234\n      jumpi\n        /* \"Documents/GitHub/Store-system-with-feedback/main.sol\":6621:6635  complaintBooks */\n      0x03\n        /* \"Documents/GitHub/Store-system-with-feedback/main.sol\":6636:6637  i */\n      dup3\n        /* \"Documents/GitHub/Store-system-with-feedback/main.sol\":6621:6638  complaintBooks[i] */\n      dup2\n      sload\n      dup2\n      lt\n      tag_237\n      jumpi\n      tag_237\n      tag_109\n      jump\t// in\n    tag_237:\n      swap1\n      0x00\n      mstore\n      keccak256(0x00, 0x20)\n      swap1\n      0x05\n      mul\n      add\n        /* \"Documents/GitHub/Store-system-with-feedback/main.sol\":6621:6643  complaintBooks[i].shop */\n      0x00\n      add\n        /* \"Documents/GitHub/Store-system-with-feedback/main.sol\":6604:6644  abi.encodePacked(complaintBooks[i].shop) */\n      add(0x20, mload(0x40))\n      tag_239\n      swap2\n      swap1\n      tag_115\n      jump\t// in\n    tag_239:\n      mload(0x40)\n      0x20\n      dup2\n      dup4\n      sub\n      sub\n      dup2\n      mstore\n      swap1\n      0x40\n      mstore\n        /* \"Documents/GitHub/Store-system-with-feedback/main.sol\":6594:6645  keccak256(abi.encodePacked(complaintBooks[i].shop)) */\n      dup1\n      mload\n      swap1\n      0x20\n      add\n      keccak256\n        /* \"Documents/GitHub/Store-system-with-feedback/main.sol\":6580:6588  shopName */\n      dup7\n        /* \"Documents/GitHub/Store-system-with-feedback/main.sol\":6563:6589  abi.encodePacked(shopName) */\n      add(0x20, mload(0x40))\n      tag_240\n      swap2\n      swap1\n      tag_136\n      jump\t// in\n    tag_240:\n      mload(0x40)\n      0x20\n      dup2\n      dup4\n      sub\n      sub\n      dup2\n      mstore\n      swap1\n      0x40\n      mstore\n        /* \"Documents/GitHub/Store-system-with-feedback/main.sol\":6553:6590  keccak256(abi.encodePacked(shopName)) */\n      dup1\n      mload\n      swap1\n      0x20\n      add\n      keccak256\n        /* \"Documents/GitHub/Store-system-with-feedback/main.sol\":6553:6645  keccak256(abi.encodePacked(shopName)) == keccak256(abi.encodePacked(complaintBooks[i].shop)) */\n      eq\n        /* \"Documents/GitHub/Store-system-with-feedback/main.sol\":6550:6786  if(keccak256(abi.encodePacked(shopName)) == keccak256(abi.encodePacked(complaintBooks[i].shop))) {\r... */\n      iszero\n      tag_241\n      jumpi\n        /* \"Documents/GitHub/Store-system-with-feedback/main.sol\":6694:6708  complaintBooks */\n      0x03\n        /* \"Documents/GitHub/Store-system-with-feedback/main.sol\":6709:6710  i */\n      dup3\n        /* \"Documents/GitHub/Store-system-with-feedback/main.sol\":6694:6711  complaintBooks[i] */\n      dup2\n      sload\n      dup2\n      lt\n      tag_243\n      jumpi\n      tag_243\n      tag_109\n      jump\t// in\n    tag_243:\n      swap1\n      0x00\n      mstore\n      keccak256(0x00, 0x20)\n      swap1\n      0x05\n      mul\n      add\n        /* \"Documents/GitHub/Store-system-with-feedback/main.sol\":6694:6718  complaintBooks[i].rating */\n      0x03\n      add\n      sload\n        /* \"Documents/GitHub/Store-system-with-feedback/main.sol\":6674:6718  countArrayRating += complaintBooks[i].rating */\n      dup4\n      tag_245\n      swap2\n      swap1\n      tag_129\n      jump\t// in\n    tag_245:\n      swap3\n      pop\n        /* \"Documents/GitHub/Store-system-with-feedback/main.sol\":6550:6786  if(keccak256(abi.encodePacked(shopName)) == keccak256(abi.encodePacked(complaintBooks[i].shop))) {\r... */\n    tag_241:\n        /* \"Documents/GitHub/Store-system-with-feedback/main.sol\":6522:6525  i++ */\n      dup2\n      tag_246\n      dup2\n      tag_165\n      jump\t// in\n    tag_246:\n      swap3\n      pop\n      pop\n        /* \"Documents/GitHub/Store-system-with-feedback/main.sol\":6482:6805  for (i = 0; i <= complaintBooks.length; i++) {\r... */\n      jump(tag_233)\n    tag_234:\n      pop\n        /* \"Documents/GitHub/Store-system-with-feedback/main.sol\":6281:6284  i++ */\n      dup1\n      tag_247\n      dup2\n      tag_165\n      jump\t// in\n    tag_247:\n      swap2\n      pop\n      pop\n        /* \"Documents/GitHub/Store-system-with-feedback/main.sol\":6244:6831  for(uint i = 0; i < shopList.length; i++) {\r... */\n      jump(tag_219)\n    tag_220:\n      pop\n        /* \"Documents/GitHub/Store-system-with-feedback/main.sol\":6861:6897  countArrayRating / totalAverageValue */\n      tag_248\n        /* \"Documents/GitHub/Store-system-with-feedback/main.sol\":6880:6897  totalAverageValue */\n      dup3\n        /* \"Documents/GitHub/Store-system-with-feedback/main.sol\":6861:6877  countArrayRating */\n      dup3\n        /* \"Documents/GitHub/Store-system-with-feedback/main.sol\":6861:6897  countArrayRating / totalAverageValue */\n      tag_249\n      jump\t// in\n    tag_248:\n        /* \"Documents/GitHub/Store-system-with-feedback/main.sol\":6841:6897  countArrayRating += countArrayRating / totalAverageValue */\n      tag_250\n      swap1\n      dup3\n      tag_129\n      jump\t// in\n    tag_250:\n      swap5\n        /* \"Documents/GitHub/Store-system-with-feedback/main.sol\":6086:6939  function getStoryRating(string memory shopName) public view returns(uint) {\r... */\n      swap4\n      pop\n      pop\n      pop\n      pop\n      jump\t// out\n        /* \"Documents/GitHub/Store-system-with-feedback/main.sol\":2549:2596  structStatusReturn[] public structStatusReturns */\n    tag_77:\n      0x0a\n      dup2\n      dup2\n      sload\n      dup2\n      lt\n      tag_206\n      jumpi\n      0x00\n      dup1\n      revert\n        /* \"Documents/GitHub/Store-system-with-feedback/main.sol\":7795:7949  function productReturn (string memory titleProduct) public {\r... */\n    tag_81:\n        /* \"Documents/GitHub/Store-system-with-feedback/main.sol\":7890:7940  structStatusReturn(msg.sender, titleProduct, true) */\n      0x40\n      dup1\n      mload\n      0x60\n      dup2\n      add\n      dup3\n      mstore\n        /* \"Documents/GitHub/Store-system-with-feedback/main.sol\":7909:7919  msg.sender */\n      caller\n        /* \"Documents/GitHub/Store-system-with-feedback/main.sol\":7890:7940  structStatusReturn(msg.sender, titleProduct, true) */\n      dup2\n      mstore\n      0x20\n      dup1\n      dup3\n      add\n      dup5\n      dup2\n      mstore\n        /* \"Documents/GitHub/Store-system-with-feedback/main.sol\":7935:7939  true */\n      0x01\n        /* \"Documents/GitHub/Store-system-with-feedback/main.sol\":7890:7940  structStatusReturn(msg.sender, titleProduct, true) */\n      swap4\n      dup4\n      add\n      dup5\n      swap1\n      mstore\n        /* \"Documents/GitHub/Store-system-with-feedback/main.sol\":7865:7884  structStatusReturns */\n      0x0a\n        /* \"Documents/GitHub/Store-system-with-feedback/main.sol\":7865:7941  structStatusReturns.push(structStatusReturn(msg.sender, titleProduct, true)) */\n      dup1\n      sload\n      swap5\n      dup6\n      add\n      dup2\n      sstore\n      0x00\n      mstore\n      dup3\n      mload\n      0xc65a7bb8d6351c1cf70c95a316cc6a92839c986682d98bc35f958f4883f9d2a8\n      0x03\n      swap1\n      swap6\n      mul\n      swap5\n      dup6\n      add\n      dup1\n      sload\n      not(sub(shl(0xa0, 0x01), 0x01))\n      and\n      sub(shl(0xa0, 0x01), 0x01)\n      swap1\n      swap3\n      and\n      swap2\n      swap1\n      swap2\n      or\n      dup2\n      sstore\n      swap1\n      mload\n      dup1\n      mload\n        /* \"Documents/GitHub/Store-system-with-feedback/main.sol\":7890:7940  structStatusReturn(msg.sender, titleProduct, true) */\n      swap4\n      swap5\n        /* \"Documents/GitHub/Store-system-with-feedback/main.sol\":7865:7941  structStatusReturns.push(structStatusReturn(msg.sender, titleProduct, true)) */\n      swap2\n      swap4\n      tag_141\n      swap4\n      0xc65a7bb8d6351c1cf70c95a316cc6a92839c986682d98bc35f958f4883f9d2a9\n      swap1\n      swap4\n      add\n      swap3\n      swap2\n      swap1\n      swap2\n      add\n      swap1\n      tag_142\n      jump\t// in\n        /* \"Documents/GitHub/Store-system-with-feedback/main.sol\":5824:5918  function getShopList() public view returns(string[] memory) {\r... */\n    tag_83:\n        /* \"Documents/GitHub/Store-system-with-feedback/main.sol\":5867:5882  string[] memory */\n      0x60\n        /* \"Documents/GitHub/Store-system-with-feedback/main.sol\":5902:5910  shopList */\n      0x02\n        /* \"Documents/GitHub/Store-system-with-feedback/main.sol\":5895:5910  return shopList */\n      dup1\n      sload\n      dup1\n      0x20\n      mul\n      0x20\n      add\n      mload(0x40)\n      swap1\n      dup2\n      add\n      0x40\n      mstore\n      dup1\n      swap3\n      swap2\n      swap1\n      dup2\n      dup2\n      mstore\n      0x20\n      add\n      0x00\n      swap1\n    tag_262:\n      dup3\n      dup3\n      lt\n      iszero\n      tag_191\n      jumpi\n      dup4\n      dup3\n      swap1\n      0x00\n      mstore\n      keccak256(0x00, 0x20)\n      add\n      dup1\n      sload\n      tag_265\n      swap1\n      tag_151\n      jump\t// in\n    tag_265:\n      dup1\n      0x1f\n      add\n      0x20\n      dup1\n      swap2\n      div\n      mul\n      0x20\n      add\n      mload(0x40)\n      swap1\n      dup2\n      add\n      0x40\n      mstore\n      dup1\n      swap3\n      swap2\n      swap1\n      dup2\n      dup2\n      mstore\n      0x20\n      add\n      dup3\n      dup1\n      sload\n      tag_266\n      swap1\n      tag_151\n      jump\t// in\n    tag_266:\n      dup1\n      iszero\n      tag_267\n      jumpi\n      dup1\n      0x1f\n      lt\n      tag_268\n      jumpi\n      0x0100\n      dup1\n      dup4\n      sload\n      div\n      mul\n      dup4\n      mstore\n      swap2\n      0x20\n      add\n      swap2\n      jump(tag_267)\n    tag_268:\n      dup3\n      add\n      swap2\n      swap1\n      0x00\n      mstore\n      keccak256(0x00, 0x20)\n      swap1\n    tag_269:\n      dup2\n      sload\n      dup2\n      mstore\n      swap1\n      0x01\n      add\n      swap1\n      0x20\n      add\n      dup1\n      dup4\n      gt\n      tag_269\n      jumpi\n      dup3\n      swap1\n      sub\n      0x1f\n      and\n      dup3\n      add\n      swap2\n    tag_267:\n      pop\n      pop\n      pop\n      pop\n      pop\n      dup2\n      mstore\n      0x20\n      add\n      swap1\n      0x01\n      add\n      swap1\n      jump(tag_262)\n        /* \"Documents/GitHub/Store-system-with-feedback/main.sol\":3398:3986  function leaveFeedback (string memory shop, string memory feedback, uint256 rating) public {\r... */\n    tag_92:\n        /* \"Documents/GitHub/Store-system-with-feedback/main.sol\":3518:3520  10 */\n      0x0a\n        /* \"Documents/GitHub/Store-system-with-feedback/main.sol\":3508:3514  rating */\n      dup2\n        /* \"Documents/GitHub/Store-system-with-feedback/main.sol\":3508:3520  rating <= 10 */\n      gt\n      iszero\n        /* \"Documents/GitHub/Store-system-with-feedback/main.sol\":3500:3557  require(rating <= 10,\"error: rating can be from 1 to 10\") */\n      tag_271\n      jumpi\n      mload(0x40)\n      shl(0xe5, 0x461bcd)\n      dup2\n      mstore\n        /* \"#utility.yul\":8718:8720   */\n      0x20\n        /* \"Documents/GitHub/Store-system-with-feedback/main.sol\":3500:3557  require(rating <= 10,\"error: rating can be from 1 to 10\") */\n      0x04\n      dup3\n      add\n        /* \"#utility.yul\":8700:8721   */\n      mstore\n        /* \"#utility.yul\":8757:8759   */\n      0x21\n        /* \"#utility.yul\":8737:8755   */\n      0x24\n      dup3\n      add\n        /* \"#utility.yul\":8730:8760   */\n      mstore\n        /* \"#utility.yul\":8796:8830   */\n      0x6572726f723a20726174696e672063616e2062652066726f6d203120746f2031\n        /* \"#utility.yul\":8776:8794   */\n      0x44\n      dup3\n      add\n        /* \"#utility.yul\":8769:8831   */\n      mstore\n      shl(0xfc, 0x03)\n        /* \"#utility.yul\":8847:8865   */\n      0x64\n      dup3\n      add\n        /* \"#utility.yul\":8840:8871   */\n      mstore\n        /* \"#utility.yul\":8888:8907   */\n      0x84\n      add\n        /* \"Documents/GitHub/Store-system-with-feedback/main.sol\":3500:3557  require(rating <= 10,\"error: rating can be from 1 to 10\") */\n      tag_138\n        /* \"#utility.yul\":8516:8913   */\n      jump\n        /* \"Documents/GitHub/Store-system-with-feedback/main.sol\":3500:3557  require(rating <= 10,\"error: rating can be from 1 to 10\") */\n    tag_271:\n        /* \"Documents/GitHub/Store-system-with-feedback/main.sol\":3572:3578  uint i */\n      0x00\n        /* \"Documents/GitHub/Store-system-with-feedback/main.sol\":3568:3979  for(uint i = 0; i <= shopList.length; i++) {\r... */\n    tag_274:\n        /* \"Documents/GitHub/Store-system-with-feedback/main.sol\":3589:3597  shopList */\n      0x02\n        /* \"Documents/GitHub/Store-system-with-feedback/main.sol\":3589:3604  shopList.length */\n      sload\n        /* \"Documents/GitHub/Store-system-with-feedback/main.sol\":3584:3604  i <= shopList.length */\n      dup2\n      gt\n        /* \"Documents/GitHub/Store-system-with-feedback/main.sol\":3568:3979  for(uint i = 0; i <= shopList.length; i++) {\r... */\n      tag_275\n      jumpi\n        /* \"Documents/GitHub/Store-system-with-feedback/main.sol\":3626:3652  string memory tempShopName */\n      0x00\n        /* \"Documents/GitHub/Store-system-with-feedback/main.sol\":3655:3663  shopList */\n      0x02\n        /* \"Documents/GitHub/Store-system-with-feedback/main.sol\":3664:3665  i */\n      dup3\n        /* \"Documents/GitHub/Store-system-with-feedback/main.sol\":3655:3666  shopList[i] */\n      dup2\n      sload\n      dup2\n      lt\n      tag_278\n      jumpi\n      tag_278\n      tag_109\n      jump\t// in\n    tag_278:\n      swap1\n      0x00\n      mstore\n      keccak256(0x00, 0x20)\n      add\n        /* \"Documents/GitHub/Store-system-with-feedback/main.sol\":3626:3666  string memory tempShopName = shopList[i] */\n      dup1\n      sload\n      tag_280\n      swap1\n      tag_151\n      jump\t// in\n    tag_280:\n      dup1\n      0x1f\n      add\n      0x20\n      dup1\n      swap2\n      div\n      mul\n      0x20\n      add\n      mload(0x40)\n      swap1\n      dup2\n      add\n      0x40\n      mstore\n      dup1\n      swap3\n      swap2\n      swap1\n      dup2\n      dup2\n      mstore\n      0x20\n      add\n      dup3\n      dup1\n      sload\n      tag_281\n      swap1\n      tag_151\n      jump\t// in\n    tag_281:\n      dup1\n      iszero\n      tag_282\n      jumpi\n      dup1\n      0x1f\n      lt\n      tag_283\n      jumpi\n      0x0100\n      dup1\n      dup4\n      sload\n      div\n      mul\n      dup4\n      mstore\n      swap2\n      0x20\n      add\n      swap2\n      jump(tag_282)\n    tag_283:\n      dup3\n      add\n      swap2\n      swap1\n      0x00\n      mstore\n      keccak256(0x00, 0x20)\n      swap1\n    tag_284:\n      dup2\n      sload\n      dup2\n      mstore\n      swap1\n      0x01\n      add\n      swap1\n      0x20\n      add\n      dup1\n      dup4\n      gt\n      tag_284\n      jumpi\n      dup3\n      swap1\n      sub\n      0x1f\n      and\n      dup3\n      add\n      swap2\n    tag_282:\n      pop\n      pop\n      pop\n      pop\n      pop\n      swap1\n      pop\n        /* \"Documents/GitHub/Store-system-with-feedback/main.sol\":3756:3760  shop */\n      dup5\n        /* \"Documents/GitHub/Store-system-with-feedback/main.sol\":3739:3761  abi.encodePacked(shop) */\n      add(0x20, mload(0x40))\n      tag_285\n      swap2\n      swap1\n      tag_136\n      jump\t// in\n    tag_285:\n      mload(0x40)\n      0x20\n      dup2\n      dup4\n      sub\n      sub\n      dup2\n      mstore\n      swap1\n      0x40\n      mstore\n        /* \"Documents/GitHub/Store-system-with-feedback/main.sol\":3729:3762  keccak256(abi.encodePacked(shop)) */\n      dup1\n      mload\n      swap1\n      0x20\n      add\n      keccak256\n        /* \"Documents/GitHub/Store-system-with-feedback/main.sol\":3711:3723  tempShopName */\n      dup2\n        /* \"Documents/GitHub/Store-system-with-feedback/main.sol\":3694:3724  abi.encodePacked(tempShopName) */\n      add(0x20, mload(0x40))\n      tag_286\n      swap2\n      swap1\n      tag_136\n      jump\t// in\n    tag_286:\n      mload(0x40)\n      0x20\n      dup2\n      dup4\n      sub\n      sub\n      dup2\n      mstore\n      swap1\n      0x40\n      mstore\n        /* \"Documents/GitHub/Store-system-with-feedback/main.sol\":3684:3725  keccak256(abi.encodePacked(tempShopName)) */\n      dup1\n      mload\n      swap1\n      0x20\n      add\n      keccak256\n        /* \"Documents/GitHub/Store-system-with-feedback/main.sol\":3684:3762  keccak256(abi.encodePacked(tempShopName)) == keccak256(abi.encodePacked(shop)) */\n      eq\n        /* \"Documents/GitHub/Store-system-with-feedback/main.sol\":3681:3968  if(keccak256(abi.encodePacked(tempShopName)) == keccak256(abi.encodePacked(shop))) {                    \r... */\n      iszero\n      tag_287\n      jumpi\n        /* \"Documents/GitHub/Store-system-with-feedback/main.sol\":3868:3951  complaintBook(shop, structUsers[msg.sender].userName, feedback, rating, zerroArray) */\n      0x40\n      dup1\n      mload\n      0xa0\n      dup2\n      add\n      dup3\n      mstore\n      dup7\n      dup2\n      mstore\n        /* \"Documents/GitHub/Store-system-with-feedback/main.sol\":3900:3910  msg.sender */\n      caller\n      0x00\n        /* \"Documents/GitHub/Store-system-with-feedback/main.sol\":3888:3911  structUsers[msg.sender] */\n      swap1\n      dup2\n      mstore\n        /* \"Documents/GitHub/Store-system-with-feedback/main.sol\":3888:3899  structUsers */\n      0x04\n        /* \"Documents/GitHub/Store-system-with-feedback/main.sol\":3868:3951  complaintBook(shop, structUsers[msg.sender].userName, feedback, rating, zerroArray) */\n      0x20\n        /* \"Documents/GitHub/Store-system-with-feedback/main.sol\":3888:3911  structUsers[msg.sender] */\n      swap1\n      dup2\n      mstore\n      swap3\n      swap1\n      keccak256\n        /* \"Documents/GitHub/Store-system-with-feedback/main.sol\":3868:3951  complaintBook(shop, structUsers[msg.sender].userName, feedback, rating, zerroArray) */\n      dup1\n      sload\n        /* \"Documents/GitHub/Store-system-with-feedback/main.sol\":3803:3829  string[] memory zerroArray */\n      0x60\n      swap4\n        /* \"Documents/GitHub/Store-system-with-feedback/main.sol\":3848:3862  complaintBooks */\n      0x03\n      swap4\n        /* \"Documents/GitHub/Store-system-with-feedback/main.sol\":3868:3951  complaintBook(shop, structUsers[msg.sender].userName, feedback, rating, zerroArray) */\n      swap3\n      swap1\n      dup4\n      add\n      swap2\n      tag_288\n      swap1\n      tag_151\n      jump\t// in\n    tag_288:\n      dup1\n      0x1f\n      add\n      0x20\n      dup1\n      swap2\n      div\n      mul\n      0x20\n      add\n      mload(0x40)\n      swap1\n      dup2\n      add\n      0x40\n      mstore\n      dup1\n      swap3\n      swap2\n      swap1\n      dup2\n      dup2\n      mstore\n      0x20\n      add\n      dup3\n      dup1\n      sload\n      tag_289\n      swap1\n      tag_151\n      jump\t// in\n    tag_289:\n      dup1\n      iszero\n      tag_290\n      jumpi\n      dup1\n      0x1f\n      lt\n      tag_291\n      jumpi\n      0x0100\n      dup1\n      dup4\n      sload\n      div\n      mul\n      dup4\n      mstore\n      swap2\n      0x20\n      add\n      swap2\n      jump(tag_290)\n    tag_291:\n      dup3\n      add\n      swap2\n      swap1\n      0x00\n      mstore\n      keccak256(0x00, 0x20)\n      swap1\n    tag_292:\n      dup2\n      sload\n      dup2\n      mstore\n      swap1\n      0x01\n      add\n      swap1\n      0x20\n      add\n      dup1\n      dup4\n      gt\n      tag_292\n      jumpi\n      dup3\n      swap1\n      sub\n      0x1f\n      and\n      dup3\n      add\n      swap2\n    tag_290:\n      pop\n      pop\n      pop\n      swap2\n      dup4\n      mstore\n      pop\n      pop\n      0x20\n      dup1\n      dup3\n      add\n      dup10\n      swap1\n      mstore\n      0x40\n      dup3\n      add\n      dup9\n      swap1\n      mstore\n      0x60\n      swap1\n      swap2\n      add\n      dup5\n      swap1\n      mstore\n        /* \"Documents/GitHub/Store-system-with-feedback/main.sol\":3848:3952  complaintBooks.push(complaintBook(shop, structUsers[msg.sender].userName, feedback, rating, zerroArray)) */\n      dup3\n      sload\n      0x01\n      dup2\n      add\n      dup5\n      sstore\n      0x00\n      swap4\n      dup5\n      mstore\n      swap3\n      dup2\n      swap1\n      keccak256\n      dup3\n      mload\n      dup1\n      mload\n      swap4\n      swap5\n      0x05\n      mul\n      swap1\n      swap2\n      add\n      swap3\n      tag_294\n      swap3\n      dup5\n      swap3\n      add\n      swap1\n      tag_142\n      jump\t// in\n    tag_294:\n      pop\n      0x20\n      dup3\n      dup2\n      add\n      mload\n      dup1\n      mload\n      tag_295\n      swap3\n      0x01\n      dup6\n      add\n      swap3\n      add\n      swap1\n      tag_142\n      jump\t// in\n    tag_295:\n      pop\n      0x40\n      dup3\n      add\n      mload\n      dup1\n      mload\n      tag_296\n      swap2\n      0x02\n      dup5\n      add\n      swap2\n      0x20\n      swap1\n      swap2\n      add\n      swap1\n      tag_142\n      jump\t// in\n    tag_296:\n      pop\n      0x60\n      dup3\n      add\n      mload\n      0x03\n      dup3\n      add\n      sstore\n      0x80\n      dup3\n      add\n      mload\n      dup1\n      mload\n      tag_297\n      swap2\n      0x04\n      dup5\n      add\n      swap2\n      0x20\n      swap1\n      swap2\n      add\n      swap1\n      tag_163\n      jump\t// in\n    tag_297:\n      pop\n      pop\n      pop\n        /* \"Documents/GitHub/Store-system-with-feedback/main.sol\":3764:3968  {                    \r... */\n      pop\n        /* \"Documents/GitHub/Store-system-with-feedback/main.sol\":3681:3968  if(keccak256(abi.encodePacked(tempShopName)) == keccak256(abi.encodePacked(shop))) {                    \r... */\n    tag_287:\n      pop\n        /* \"Documents/GitHub/Store-system-with-feedback/main.sol\":3606:3609  i++ */\n      dup1\n      tag_298\n      dup2\n      tag_165\n      jump\t// in\n    tag_298:\n      swap2\n      pop\n      pop\n        /* \"Documents/GitHub/Store-system-with-feedback/main.sol\":3568:3979  for(uint i = 0; i <= shopList.length; i++) {\r... */\n      jump(tag_274)\n    tag_275:\n      pop\n        /* \"Documents/GitHub/Store-system-with-feedback/main.sol\":3398:3986  function leaveFeedback (string memory shop, string memory feedback, uint256 rating) public {\r... */\n      pop\n      pop\n      pop\n      jump\t// out\n        /* \"Documents/GitHub/Store-system-with-feedback/main.sol\":2098:2152  mapping(string => structProduct) public structProducts */\n    tag_95:\n      dup1\n      mload\n      0x20\n      dup2\n      dup4\n      add\n      dup2\n      add\n      dup1\n      mload\n      0x07\n      dup3\n      mstore\n      swap3\n      dup3\n      add\n      swap2\n      swap1\n      swap4\n      add\n      keccak256\n      swap2\n      mstore\n      dup1\n      sload\n      0x01\n      dup3\n      add\n      dup1\n      sload\n      sub(shl(0xa0, 0x01), 0x01)\n      swap1\n      swap3\n      and\n      swap3\n      swap2\n      tag_299\n      swap1\n      tag_151\n      jump\t// in\n    tag_299:\n      dup1\n      0x1f\n      add\n      0x20\n      dup1\n      swap2\n      div\n      mul\n      0x20\n      add\n      mload(0x40)\n      swap1\n      dup2\n      add\n      0x40\n      mstore\n      dup1\n      swap3\n      swap2\n      swap1\n      dup2\n      dup2\n      mstore\n      0x20\n      add\n      dup3\n      dup1\n      sload\n      tag_300\n      swap1\n      tag_151\n      jump\t// in\n    tag_300:\n      dup1\n      iszero\n      tag_301\n      jumpi\n      dup1\n      0x1f\n      lt\n      tag_302\n      jumpi\n      0x0100\n      dup1\n      dup4\n      sload\n      div\n      mul\n      dup4\n      mstore\n      swap2\n      0x20\n      add\n      swap2\n      jump(tag_301)\n    tag_302:\n      dup3\n      add\n      swap2\n      swap1\n      0x00\n      mstore\n      keccak256(0x00, 0x20)\n      swap1\n    tag_303:\n      dup2\n      sload\n      dup2\n      mstore\n      swap1\n      0x01\n      add\n      swap1\n      0x20\n      add\n      dup1\n      dup4\n      gt\n      tag_303\n      jumpi\n      dup3\n      swap1\n      sub\n      0x1f\n      and\n      dup3\n      add\n      swap2\n    tag_301:\n      pop\n      pop\n      pop\n      pop\n      pop\n      swap1\n      dup1\n      0x02\n      add\n      sload\n      swap1\n      dup1\n      0x03\n      add\n      sload\n      swap1\n      pop\n      dup5\n      jump\t// out\n        /* \"Documents/GitHub/Store-system-with-feedback/main.sol\":2341:2392  structStatusPurchase[] public structStatusPurchases */\n    tag_100:\n      0x09\n      dup2\n      dup2\n      sload\n      dup2\n      lt\n      tag_206\n      jumpi\n      0x00\n      dup1\n      revert\n        /* \"Documents/GitHub/Store-system-with-feedback/main.sol\":5213:5790  function MarriageRegistration(uint idMarriageRegistration, bool confirmation) public {\r... */\n    tag_104:\n        /* \"Documents/GitHub/Store-system-with-feedback/main.sol\":5328:5332  true */\n      0x01\n        /* \"Documents/GitHub/Store-system-with-feedback/main.sol\":5312:5332  confirmation == true */\n      dup2\n      iszero\n      iszero\n      eq\n        /* \"Documents/GitHub/Store-system-with-feedback/main.sol\":5309:5783  if(confirmation == true) {\r... */\n      iszero\n      tag_167\n      jumpi\n        /* \"Documents/GitHub/Store-system-with-feedback/main.sol\":5521:5535  structProducts */\n      0x07\n        /* \"Documents/GitHub/Store-system-with-feedback/main.sol\":5536:5563  structMarriageRegistrations */\n      0x0b\n        /* \"Documents/GitHub/Store-system-with-feedback/main.sol\":5564:5586  idMarriageRegistration */\n      dup4\n        /* \"Documents/GitHub/Store-system-with-feedback/main.sol\":5536:5587  structMarriageRegistrations[idMarriageRegistration] */\n      dup2\n      sload\n      dup2\n      lt\n      tag_314\n      jumpi\n      tag_314\n      tag_109\n      jump\t// in\n    tag_314:\n      swap1\n      0x00\n      mstore\n      keccak256(0x00, 0x20)\n      swap1\n      0x03\n      mul\n      add\n        /* \"Documents/GitHub/Store-system-with-feedback/main.sol\":5536:5600  structMarriageRegistrations[idMarriageRegistration].titleProduct */\n      0x01\n      add\n        /* \"Documents/GitHub/Store-system-with-feedback/main.sol\":5521:5601  structProducts[structMarriageRegistrations[idMarriageRegistration].titleProduct] */\n      mload(0x40)\n      tag_316\n      swap2\n      swap1\n      tag_115\n      jump\t// in\n    tag_316:\n      swap1\n      dup2\n      mstore\n      0x20\n      add\n      mload(0x40)\n      dup1\n      swap2\n      sub\n      swap1\n      keccak256\n        /* \"Documents/GitHub/Store-system-with-feedback/main.sol\":5521:5607  structProducts[structMarriageRegistrations[idMarriageRegistration].titleProduct].price */\n      0x02\n      add\n      sload\n        /* \"Documents/GitHub/Store-system-with-feedback/main.sol\":5435:5446  structUsers */\n      0x04\n        /* \"Documents/GitHub/Store-system-with-feedback/main.sol\":5435:5509  structUsers[structMarriageRegistrations[idMarriageRegistration].userLogin] */\n      0x00\n        /* \"Documents/GitHub/Store-system-with-feedback/main.sol\":5447:5474  structMarriageRegistrations */\n      0x0b\n        /* \"Documents/GitHub/Store-system-with-feedback/main.sol\":5475:5497  idMarriageRegistration */\n      dup6\n        /* \"Documents/GitHub/Store-system-with-feedback/main.sol\":5447:5498  structMarriageRegistrations[idMarriageRegistration] */\n      dup2\n      sload\n      dup2\n      lt\n      tag_318\n      jumpi\n      tag_318\n      tag_109\n      jump\t// in\n    tag_318:\n      0x00\n      swap2\n      dup3\n      mstore\n      0x20\n      dup1\n      dup4\n      keccak256\n      0x03\n      swap1\n      swap3\n      mul\n      swap1\n      swap2\n      add\n        /* \"Documents/GitHub/Store-system-with-feedback/main.sol\":5447:5508  structMarriageRegistrations[idMarriageRegistration].userLogin */\n      sload\n      sub(shl(0xa0, 0x01), 0x01)\n      and\n        /* \"Documents/GitHub/Store-system-with-feedback/main.sol\":5435:5509  structUsers[structMarriageRegistrations[idMarriageRegistration].userLogin] */\n      dup4\n      mstore\n      dup3\n      add\n      swap3\n      swap1\n      swap3\n      mstore\n      0x40\n      add\n      swap1\n      keccak256\n        /* \"Documents/GitHub/Store-system-with-feedback/main.sol\":5435:5518  structUsers[structMarriageRegistrations[idMarriageRegistration].userLogin].ballance */\n      0x02\n      add\n      sload\n        /* \"Documents/GitHub/Store-system-with-feedback/main.sol\":5435:5607  structUsers[structMarriageRegistrations[idMarriageRegistration].userLogin].ballance + structProducts[structMarriageRegistrations[idMarriageRegistration].titleProduct].price */\n      tag_320\n      swap2\n      swap1\n      tag_129\n      jump\t// in\n    tag_320:\n        /* \"Documents/GitHub/Store-system-with-feedback/main.sol\":5349:5360  structUsers */\n      0x04\n        /* \"Documents/GitHub/Store-system-with-feedback/main.sol\":5349:5423  structUsers[structMarriageRegistrations[idMarriageRegistration].userLogin] */\n      0x00\n        /* \"Documents/GitHub/Store-system-with-feedback/main.sol\":5361:5388  structMarriageRegistrations */\n      0x0b\n        /* \"Documents/GitHub/Store-system-with-feedback/main.sol\":5389:5411  idMarriageRegistration */\n      dup6\n        /* \"Documents/GitHub/Store-system-with-feedback/main.sol\":5361:5412  structMarriageRegistrations[idMarriageRegistration] */\n      dup2\n      sload\n      dup2\n      lt\n      tag_322\n      jumpi\n      tag_322\n      tag_109\n      jump\t// in\n    tag_322:\n      0x00\n      swap2\n      dup3\n      mstore\n      0x20\n      dup1\n      dup4\n      keccak256\n      0x03\n      swap1\n      swap3\n      mul\n      swap1\n      swap2\n      add\n        /* \"Documents/GitHub/Store-system-with-feedback/main.sol\":5361:5422  structMarriageRegistrations[idMarriageRegistration].userLogin */\n      sload\n      sub(shl(0xa0, 0x01), 0x01)\n      and\n        /* \"Documents/GitHub/Store-system-with-feedback/main.sol\":5349:5423  structUsers[structMarriageRegistrations[idMarriageRegistration].userLogin] */\n      dup4\n      mstore\n      dup3\n      add\n      swap3\n      swap1\n      swap3\n      mstore\n      0x40\n      add\n      dup2\n      keccak256\n        /* \"Documents/GitHub/Store-system-with-feedback/main.sol\":5349:5432  structUsers[structMarriageRegistrations[idMarriageRegistration].userLogin].ballance */\n      0x02\n      add\n        /* \"Documents/GitHub/Store-system-with-feedback/main.sol\":5349:5607  structUsers[structMarriageRegistrations[idMarriageRegistration].userLogin].ballance = structUsers[structMarriageRegistrations[idMarriageRegistration].userLogin].ballance + structProducts[structMarriageRegistrations[idMarriageRegistration].titleProduct].price */\n      swap2\n      swap1\n      swap2\n      sstore\n        /* \"Documents/GitHub/Store-system-with-feedback/main.sol\":5622:5641  structStatusReturns */\n      0x0a\n        /* \"Documents/GitHub/Store-system-with-feedback/main.sol\":5622:5665  structStatusReturns[idMarriageRegistration] */\n      dup1\n      sload\n        /* \"Documents/GitHub/Store-system-with-feedback/main.sol\":5642:5664  idMarriageRegistration */\n      dup5\n      swap1\n        /* \"Documents/GitHub/Store-system-with-feedback/main.sol\":5622:5665  structStatusReturns[idMarriageRegistration] */\n      dup2\n      lt\n      tag_132\n      jumpi\n      tag_132\n      tag_109\n      jump\t// in\n    tag_142:\n      dup3\n      dup1\n      sload\n      tag_331\n      swap1\n      tag_151\n      jump\t// in\n    tag_331:\n      swap1\n      0x00\n      mstore\n      keccak256(0x00, 0x20)\n      swap1\n      0x1f\n      add\n      0x20\n      swap1\n      div\n      dup2\n      add\n      swap3\n      dup3\n      tag_333\n      jumpi\n      0x00\n      dup6\n      sstore\n      jump(tag_336)\n    tag_333:\n      dup3\n      0x1f\n      lt\n      tag_334\n      jumpi\n      dup1\n      mload\n      not(0xff)\n      and\n      dup4\n      dup1\n      add\n      or\n      dup6\n      sstore\n      jump(tag_336)\n    tag_334:\n      dup3\n      dup1\n      add\n      0x01\n      add\n      dup6\n      sstore\n      dup3\n      iszero\n      tag_336\n      jumpi\n      swap2\n      dup3\n      add\n    tag_335:\n      dup3\n      dup2\n      gt\n      iszero\n      tag_336\n      jumpi\n      dup3\n      mload\n      dup3\n      sstore\n      swap2\n      0x20\n      add\n      swap2\n      swap1\n      0x01\n      add\n      swap1\n      jump(tag_335)\n    tag_336:\n      pop\n      tag_337\n      swap3\n      swap2\n      pop\n      tag_338\n      jump\t// in\n    tag_337:\n      pop\n      swap1\n      jump\t// out\n    tag_163:\n      dup3\n      dup1\n      sload\n      dup3\n      dup3\n      sstore\n      swap1\n      0x00\n      mstore\n      keccak256(0x00, 0x20)\n      swap1\n      dup2\n      add\n      swap3\n      dup3\n      iszero\n      tag_341\n      jumpi\n      swap2\n      0x20\n      mul\n      dup3\n      add\n    tag_340:\n      dup3\n      dup2\n      gt\n      iszero\n      tag_341\n      jumpi\n      dup3\n      mload\n      dup1\n      mload\n      tag_342\n      swap2\n      dup5\n      swap2\n      0x20\n      swap1\n      swap2\n      add\n      swap1\n      tag_142\n      jump\t// in\n    tag_342:\n      pop\n      swap2\n      0x20\n      add\n      swap2\n      swap1\n      0x01\n      add\n      swap1\n      jump(tag_340)\n    tag_341:\n      pop\n      tag_337\n      swap3\n      swap2\n      pop\n      tag_344\n      jump\t// in\n    tag_338:\n    tag_345:\n      dup1\n      dup3\n      gt\n      iszero\n      tag_337\n      jumpi\n      0x00\n      dup2\n      sstore\n      0x01\n      add\n      jump(tag_345)\n    tag_344:\n      dup1\n      dup3\n      gt\n      iszero\n      tag_337\n      jumpi\n      0x00\n      tag_349\n      dup3\n      dup3\n      tag_350\n      jump\t// in\n    tag_349:\n      pop\n      0x01\n      add\n      jump(tag_344)\n    tag_350:\n      pop\n      dup1\n      sload\n      tag_351\n      swap1\n      tag_151\n      jump\t// in\n    tag_351:\n      0x00\n      dup3\n      sstore\n      dup1\n      0x1f\n      lt\n      tag_353\n      jumpi\n      pop\n      pop\n      jump\t// out\n    tag_353:\n      0x1f\n      add\n      0x20\n      swap1\n      div\n      swap1\n      0x00\n      mstore\n      keccak256(0x00, 0x20)\n      swap1\n      dup2\n      add\n      swap1\n      tag_354\n      swap2\n      swap1\n      tag_338\n      jump\t// in\n    tag_354:\n      pop\n      jump\t// out\n        /* \"#utility.yul\":14:545   */\n    tag_356:\n        /* \"#utility.yul\":57:62   */\n      0x00\n        /* \"#utility.yul\":110:113   */\n      dup3\n        /* \"#utility.yul\":103:107   */\n      0x1f\n        /* \"#utility.yul\":95:101   */\n      dup4\n        /* \"#utility.yul\":91:108   */\n      add\n        /* \"#utility.yul\":87:114   */\n      slt\n        /* \"#utility.yul\":77:132   */\n      tag_358\n      jumpi\n        /* \"#utility.yul\":128:129   */\n      0x00\n        /* \"#utility.yul\":125:126   */\n      dup1\n        /* \"#utility.yul\":118:130   */\n      revert\n        /* \"#utility.yul\":77:132   */\n    tag_358:\n        /* \"#utility.yul\":151:171   */\n      dup2\n      calldataload\n      sub(shl(0x40, 0x01), 0x01)\n        /* \"#utility.yul\":183:209   */\n      dup2\n      gt\n        /* \"#utility.yul\":180:232   */\n      iszero\n      tag_360\n      jumpi\n        /* \"#utility.yul\":212:230   */\n      tag_360\n      tag_361\n      jump\t// in\n    tag_360:\n        /* \"#utility.yul\":256:311   */\n      tag_362\n        /* \"#utility.yul\":299:301   */\n      0x1f\n        /* \"#utility.yul\":280:293   */\n      dup3\n      add\n      not(0x1f)\n        /* \"#utility.yul\":276:303   */\n      and\n        /* \"#utility.yul\":305:309   */\n      0x20\n        /* \"#utility.yul\":272:310   */\n      add\n        /* \"#utility.yul\":256:311   */\n      tag_363\n      jump\t// in\n    tag_362:\n        /* \"#utility.yul\":336:338   */\n      dup2\n        /* \"#utility.yul\":327:334   */\n      dup2\n        /* \"#utility.yul\":320:339   */\n      mstore\n        /* \"#utility.yul\":382:385   */\n      dup5\n        /* \"#utility.yul\":375:379   */\n      0x20\n        /* \"#utility.yul\":370:372   */\n      dup4\n        /* \"#utility.yul\":362:368   */\n      dup7\n        /* \"#utility.yul\":358:373   */\n      add\n        /* \"#utility.yul\":354:380   */\n      add\n        /* \"#utility.yul\":351:386   */\n      gt\n        /* \"#utility.yul\":348:403   */\n      iszero\n      tag_364\n      jumpi\n        /* \"#utility.yul\":399:400   */\n      0x00\n        /* \"#utility.yul\":396:397   */\n      dup1\n        /* \"#utility.yul\":389:401   */\n      revert\n        /* \"#utility.yul\":348:403   */\n    tag_364:\n        /* \"#utility.yul\":464:466   */\n      dup2\n        /* \"#utility.yul\":457:461   */\n      0x20\n        /* \"#utility.yul\":449:455   */\n      dup6\n        /* \"#utility.yul\":445:462   */\n      add\n        /* \"#utility.yul\":438:442   */\n      0x20\n        /* \"#utility.yul\":429:436   */\n      dup4\n        /* \"#utility.yul\":425:443   */\n      add\n        /* \"#utility.yul\":412:467   */\n      calldatacopy\n        /* \"#utility.yul\":512:513   */\n      0x00\n        /* \"#utility.yul\":487:503   */\n      swap2\n      dup2\n      add\n        /* \"#utility.yul\":505:509   */\n      0x20\n        /* \"#utility.yul\":483:510   */\n      add\n        /* \"#utility.yul\":476:514   */\n      swap2\n      swap1\n      swap2\n      mstore\n        /* \"#utility.yul\":491:498   */\n      swap4\n        /* \"#utility.yul\":14:545   */\n      swap3\n      pop\n      pop\n      pop\n      jump\t// out\n        /* \"#utility.yul\":550:836   */\n    tag_66:\n        /* \"#utility.yul\":609:615   */\n      0x00\n        /* \"#utility.yul\":662:664   */\n      0x20\n        /* \"#utility.yul\":650:659   */\n      dup3\n        /* \"#utility.yul\":641:648   */\n      dup5\n        /* \"#utility.yul\":637:660   */\n      sub\n        /* \"#utility.yul\":633:665   */\n      slt\n        /* \"#utility.yul\":630:682   */\n      iszero\n      tag_366\n      jumpi\n        /* \"#utility.yul\":678:679   */\n      0x00\n        /* \"#utility.yul\":675:676   */\n      dup1\n        /* \"#utility.yul\":668:680   */\n      revert\n        /* \"#utility.yul\":630:682   */\n    tag_366:\n        /* \"#utility.yul\":704:727   */\n      dup2\n      calldataload\n      sub(shl(0xa0, 0x01), 0x01)\n        /* \"#utility.yul\":756:787   */\n      dup2\n      and\n        /* \"#utility.yul\":746:788   */\n      dup2\n      eq\n        /* \"#utility.yul\":736:806   */\n      tag_367\n      jumpi\n        /* \"#utility.yul\":802:803   */\n      0x00\n        /* \"#utility.yul\":799:800   */\n      dup1\n        /* \"#utility.yul\":792:804   */\n      revert\n        /* \"#utility.yul\":736:806   */\n    tag_367:\n        /* \"#utility.yul\":825:830   */\n      swap4\n        /* \"#utility.yul\":550:836   */\n      swap3\n      pop\n      pop\n      pop\n      jump\t// out\n        /* \"#utility.yul\":841:1163   */\n    tag_29:\n        /* \"#utility.yul\":910:916   */\n      0x00\n        /* \"#utility.yul\":963:965   */\n      0x20\n        /* \"#utility.yul\":951:960   */\n      dup3\n        /* \"#utility.yul\":942:949   */\n      dup5\n        /* \"#utility.yul\":938:961   */\n      sub\n        /* \"#utility.yul\":934:966   */\n      slt\n        /* \"#utility.yul\":931:983   */\n      iszero\n      tag_369\n      jumpi\n        /* \"#utility.yul\":979:980   */\n      0x00\n        /* \"#utility.yul\":976:977   */\n      dup1\n        /* \"#utility.yul\":969:981   */\n      revert\n        /* \"#utility.yul\":931:983   */\n    tag_369:\n        /* \"#utility.yul\":1006:1029   */\n      dup2\n      calldataload\n      sub(shl(0x40, 0x01), 0x01)\n        /* \"#utility.yul\":1041:1071   */\n      dup2\n      gt\n        /* \"#utility.yul\":1038:1088   */\n      iszero\n      tag_370\n      jumpi\n        /* \"#utility.yul\":1084:1085   */\n      0x00\n        /* \"#utility.yul\":1081:1082   */\n      dup1\n        /* \"#utility.yul\":1074:1086   */\n      revert\n        /* \"#utility.yul\":1038:1088   */\n    tag_370:\n        /* \"#utility.yul\":1107:1157   */\n      tag_250\n        /* \"#utility.yul\":1149:1156   */\n      dup5\n        /* \"#utility.yul\":1140:1146   */\n      dup3\n        /* \"#utility.yul\":1129:1138   */\n      dup6\n        /* \"#utility.yul\":1125:1147   */\n      add\n        /* \"#utility.yul\":1107:1157   */\n      tag_356\n      jump\t// in\n        /* \"#utility.yul\":1168:2503   */\n    tag_38:\n        /* \"#utility.yul\":1281:1287   */\n      0x00\n        /* \"#utility.yul\":1289:1295   */\n      dup1\n        /* \"#utility.yul\":1342:1344   */\n      0x40\n        /* \"#utility.yul\":1330:1339   */\n      dup4\n        /* \"#utility.yul\":1321:1328   */\n      dup6\n        /* \"#utility.yul\":1317:1340   */\n      sub\n        /* \"#utility.yul\":1313:1345   */\n      slt\n        /* \"#utility.yul\":1310:1362   */\n      iszero\n      tag_373\n      jumpi\n        /* \"#utility.yul\":1358:1359   */\n      0x00\n        /* \"#utility.yul\":1355:1356   */\n      dup1\n        /* \"#utility.yul\":1348:1360   */\n      revert\n        /* \"#utility.yul\":1310:1362   */\n    tag_373:\n        /* \"#utility.yul\":1385:1408   */\n      dup3\n      calldataload\n      sub(shl(0x40, 0x01), 0x01)\n        /* \"#utility.yul\":1457:1471   */\n      dup1\n      dup3\n      gt\n        /* \"#utility.yul\":1454:1488   */\n      iszero\n      tag_374\n      jumpi\n        /* \"#utility.yul\":1484:1485   */\n      0x00\n        /* \"#utility.yul\":1481:1482   */\n      dup1\n        /* \"#utility.yul\":1474:1486   */\n      revert\n        /* \"#utility.yul\":1454:1488   */\n    tag_374:\n        /* \"#utility.yul\":1507:1557   */\n      tag_375\n        /* \"#utility.yul\":1549:1556   */\n      dup7\n        /* \"#utility.yul\":1540:1546   */\n      dup4\n        /* \"#utility.yul\":1529:1538   */\n      dup8\n        /* \"#utility.yul\":1525:1547   */\n      add\n        /* \"#utility.yul\":1507:1557   */\n      tag_356\n      jump\t// in\n    tag_375:\n        /* \"#utility.yul\":1497:1557   */\n      swap4\n      pop\n        /* \"#utility.yul\":1576:1578   */\n      0x20\n        /* \"#utility.yul\":1566:1578   */\n      swap2\n      pop\n        /* \"#utility.yul\":1631:1633   */\n      dup2\n        /* \"#utility.yul\":1620:1629   */\n      dup6\n        /* \"#utility.yul\":1616:1634   */\n      add\n        /* \"#utility.yul\":1603:1635   */\n      calldataload\n        /* \"#utility.yul\":1660:1662   */\n      dup2\n        /* \"#utility.yul\":1650:1658   */\n      dup2\n        /* \"#utility.yul\":1647:1663   */\n      gt\n        /* \"#utility.yul\":1644:1680   */\n      iszero\n      tag_376\n      jumpi\n        /* \"#utility.yul\":1676:1677   */\n      0x00\n        /* \"#utility.yul\":1673:1674   */\n      dup1\n        /* \"#utility.yul\":1666:1678   */\n      revert\n        /* \"#utility.yul\":1644:1680   */\n    tag_376:\n        /* \"#utility.yul\":1699:1723   */\n      dup6\n      add\n        /* \"#utility.yul\":1754:1758   */\n      0x1f\n        /* \"#utility.yul\":1746:1759   */\n      dup2\n      add\n        /* \"#utility.yul\":1742:1769   */\n      dup8\n      sgt\n        /* \"#utility.yul\":1732:1787   */\n      tag_377\n      jumpi\n        /* \"#utility.yul\":1783:1784   */\n      0x00\n        /* \"#utility.yul\":1780:1781   */\n      dup1\n        /* \"#utility.yul\":1773:1785   */\n      revert\n        /* \"#utility.yul\":1732:1787   */\n    tag_377:\n        /* \"#utility.yul\":1819:1821   */\n      dup1\n        /* \"#utility.yul\":1806:1822   */\n      calldataload\n        /* \"#utility.yul\":1841:1843   */\n      dup3\n        /* \"#utility.yul\":1837:1839   */\n      dup2\n        /* \"#utility.yul\":1834:1844   */\n      gt\n        /* \"#utility.yul\":1831:1867   */\n      iszero\n      tag_379\n      jumpi\n        /* \"#utility.yul\":1847:1865   */\n      tag_379\n      tag_361\n      jump\t// in\n    tag_379:\n        /* \"#utility.yul\":1893:1895   */\n      dup1\n        /* \"#utility.yul\":1890:1891   */\n      0x05\n        /* \"#utility.yul\":1886:1896   */\n      shl\n        /* \"#utility.yul\":1916:1944   */\n      tag_380\n        /* \"#utility.yul\":1940:1942   */\n      dup6\n        /* \"#utility.yul\":1936:1938   */\n      dup3\n        /* \"#utility.yul\":1932:1943   */\n      add\n        /* \"#utility.yul\":1916:1944   */\n      tag_363\n      jump\t// in\n    tag_380:\n        /* \"#utility.yul\":1978:1993   */\n      dup3\n      dup2\n      mstore\n        /* \"#utility.yul\":2009:2021   */\n      dup6\n      dup2\n      add\n      swap1\n        /* \"#utility.yul\":2041:2052   */\n      dup5\n      dup8\n      add\n        /* \"#utility.yul\":2071:2082   */\n      dup4\n      dup7\n      add\n        /* \"#utility.yul\":2067:2087   */\n      dup9\n      add\n        /* \"#utility.yul\":2064:2097   */\n      dup13\n      lt\n        /* \"#utility.yul\":2061:2114   */\n      iszero\n      tag_381\n      jumpi\n        /* \"#utility.yul\":2110:2111   */\n      0x00\n        /* \"#utility.yul\":2107:2108   */\n      dup1\n        /* \"#utility.yul\":2100:2112   */\n      revert\n        /* \"#utility.yul\":2061:2114   */\n    tag_381:\n        /* \"#utility.yul\":2132:2133   */\n      0x00\n        /* \"#utility.yul\":2123:2133   */\n      swap4\n      pop\n        /* \"#utility.yul\":2153:2154   */\n      dup4\n        /* \"#utility.yul\":2163:2473   */\n    tag_382:\n        /* \"#utility.yul\":2179:2181   */\n      dup6\n        /* \"#utility.yul\":2174:2177   */\n      dup2\n        /* \"#utility.yul\":2171:2182   */\n      lt\n        /* \"#utility.yul\":2163:2473   */\n      iszero\n      tag_384\n      jumpi\n        /* \"#utility.yul\":2260:2263   */\n      dup2\n        /* \"#utility.yul\":2247:2264   */\n      calldataload\n        /* \"#utility.yul\":2296:2298   */\n      dup9\n        /* \"#utility.yul\":2283:2294   */\n      dup2\n        /* \"#utility.yul\":2280:2299   */\n      gt\n        /* \"#utility.yul\":2277:2316   */\n      iszero\n      tag_385\n      jumpi\n        /* \"#utility.yul\":2312:2313   */\n      dup6\n        /* \"#utility.yul\":2309:2310   */\n      dup7\n        /* \"#utility.yul\":2302:2314   */\n      revert\n        /* \"#utility.yul\":2277:2316   */\n    tag_385:\n        /* \"#utility.yul\":2341:2398   */\n      tag_386\n        /* \"#utility.yul\":2390:2397   */\n      dup15\n        /* \"#utility.yul\":2385:2387   */\n      dup12\n        /* \"#utility.yul\":2371:2382   */\n      dup4\n        /* \"#utility.yul\":2367:2369   */\n      dup12\n        /* \"#utility.yul\":2363:2383   */\n      add\n        /* \"#utility.yul\":2359:2388   */\n      add\n        /* \"#utility.yul\":2341:2398   */\n      tag_356\n      jump\t// in\n    tag_386:\n        /* \"#utility.yul\":2329:2399   */\n      dup6\n      mstore\n      pop\n        /* \"#utility.yul\":2419:2431   */\n      swap3\n      dup9\n      add\n      swap3\n        /* \"#utility.yul\":2451:2463   */\n      swap1\n      dup9\n      add\n      swap1\n        /* \"#utility.yul\":2201:2202   */\n      0x01\n        /* \"#utility.yul\":2192:2203   */\n      add\n        /* \"#utility.yul\":2163:2473   */\n      jump(tag_382)\n    tag_384:\n      pop\n        /* \"#utility.yul\":1168:2503   */\n      swap9\n      swap12\n        /* \"#utility.yul\":2492:2497   */\n      swap1\n      swap11\n      pop\n        /* \"#utility.yul\":1168:2503   */\n      swap9\n      pop\n      pop\n      pop\n      pop\n      pop\n      pop\n      pop\n      pop\n      pop\n      jump\t// out\n        /* \"#utility.yul\":2508:3119   */\n    tag_91:\n        /* \"#utility.yul\":2605:2611   */\n      0x00\n        /* \"#utility.yul\":2613:2619   */\n      dup1\n        /* \"#utility.yul\":2621:2627   */\n      0x00\n        /* \"#utility.yul\":2674:2676   */\n      0x60\n        /* \"#utility.yul\":2662:2671   */\n      dup5\n        /* \"#utility.yul\":2653:2660   */\n      dup7\n        /* \"#utility.yul\":2649:2672   */\n      sub\n        /* \"#utility.yul\":2645:2677   */\n      slt\n        /* \"#utility.yul\":2642:2694   */\n      iszero\n      tag_388\n      jumpi\n        /* \"#utility.yul\":2690:2691   */\n      0x00\n        /* \"#utility.yul\":2687:2688   */\n      dup1\n        /* \"#utility.yul\":2680:2692   */\n      revert\n        /* \"#utility.yul\":2642:2694   */\n    tag_388:\n        /* \"#utility.yul\":2717:2740   */\n      dup4\n      calldataload\n      sub(shl(0x40, 0x01), 0x01)\n        /* \"#utility.yul\":2789:2803   */\n      dup1\n      dup3\n      gt\n        /* \"#utility.yul\":2786:2820   */\n      iszero\n      tag_389\n      jumpi\n        /* \"#utility.yul\":2816:2817   */\n      0x00\n        /* \"#utility.yul\":2813:2814   */\n      dup1\n        /* \"#utility.yul\":2806:2818   */\n      revert\n        /* \"#utility.yul\":2786:2820   */\n    tag_389:\n        /* \"#utility.yul\":2839:2889   */\n      tag_390\n        /* \"#utility.yul\":2881:2888   */\n      dup8\n        /* \"#utility.yul\":2872:2878   */\n      dup4\n        /* \"#utility.yul\":2861:2870   */\n      dup9\n        /* \"#utility.yul\":2857:2879   */\n      add\n        /* \"#utility.yul\":2839:2889   */\n      tag_356\n      jump\t// in\n    tag_390:\n        /* \"#utility.yul\":2829:2889   */\n      swap5\n      pop\n        /* \"#utility.yul\":2942:2944   */\n      0x20\n        /* \"#utility.yul\":2931:2940   */\n      dup7\n        /* \"#utility.yul\":2927:2945   */\n      add\n        /* \"#utility.yul\":2914:2946   */\n      calldataload\n        /* \"#utility.yul\":2898:2946   */\n      swap2\n      pop\n        /* \"#utility.yul\":2971:2973   */\n      dup1\n        /* \"#utility.yul\":2961:2969   */\n      dup3\n        /* \"#utility.yul\":2958:2974   */\n      gt\n        /* \"#utility.yul\":2955:2991   */\n      iszero\n      tag_391\n      jumpi\n        /* \"#utility.yul\":2987:2988   */\n      0x00\n        /* \"#utility.yul\":2984:2985   */\n      dup1\n        /* \"#utility.yul\":2977:2989   */\n      revert\n        /* \"#utility.yul\":2955:2991   */\n    tag_391:\n      pop\n        /* \"#utility.yul\":3010:3062   */\n      tag_392\n        /* \"#utility.yul\":3054:3061   */\n      dup7\n        /* \"#utility.yul\":3043:3051   */\n      dup3\n        /* \"#utility.yul\":3032:3041   */\n      dup8\n        /* \"#utility.yul\":3028:3052   */\n      add\n        /* \"#utility.yul\":3010:3062   */\n      tag_356\n      jump\t// in\n    tag_392:\n        /* \"#utility.yul\":3000:3062   */\n      swap3\n      pop\n      pop\n        /* \"#utility.yul\":3109:3111   */\n      0x40\n        /* \"#utility.yul\":3098:3107   */\n      dup5\n        /* \"#utility.yul\":3094:3112   */\n      add\n        /* \"#utility.yul\":3081:3113   */\n      calldataload\n        /* \"#utility.yul\":3071:3113   */\n      swap1\n      pop\n        /* \"#utility.yul\":2508:3119   */\n      swap3\n      pop\n      swap3\n      pop\n      swap3\n      jump\t// out\n        /* \"#utility.yul\":3124:3735   */\n    tag_56:\n        /* \"#utility.yul\":3221:3227   */\n      0x00\n        /* \"#utility.yul\":3229:3235   */\n      dup1\n        /* \"#utility.yul\":3237:3243   */\n      0x00\n        /* \"#utility.yul\":3290:3292   */\n      0x60\n        /* \"#utility.yul\":3278:3287   */\n      dup5\n        /* \"#utility.yul\":3269:3276   */\n      dup7\n        /* \"#utility.yul\":3265:3288   */\n      sub\n        /* \"#utility.yul\":3261:3293   */\n      slt\n        /* \"#utility.yul\":3258:3310   */\n      iszero\n      tag_394\n      jumpi\n        /* \"#utility.yul\":3306:3307   */\n      0x00\n        /* \"#utility.yul\":3303:3304   */\n      dup1\n        /* \"#utility.yul\":3296:3308   */\n      revert\n        /* \"#utility.yul\":3258:3310   */\n    tag_394:\n        /* \"#utility.yul\":3333:3356   */\n      dup4\n      calldataload\n      sub(shl(0x40, 0x01), 0x01)\n        /* \"#utility.yul\":3405:3419   */\n      dup1\n      dup3\n      gt\n        /* \"#utility.yul\":3402:3436   */\n      iszero\n      tag_395\n      jumpi\n        /* \"#utility.yul\":3432:3433   */\n      0x00\n        /* \"#utility.yul\":3429:3430   */\n      dup1\n        /* \"#utility.yul\":3422:3434   */\n      revert\n        /* \"#utility.yul\":3402:3436   */\n    tag_395:\n        /* \"#utility.yul\":3455:3505   */\n      tag_396\n        /* \"#utility.yul\":3497:3504   */\n      dup8\n        /* \"#utility.yul\":3488:3494   */\n      dup4\n        /* \"#utility.yul\":3477:3486   */\n      dup9\n        /* \"#utility.yul\":3473:3495   */\n      add\n        /* \"#utility.yul\":3455:3505   */\n      tag_356\n      jump\t// in\n    tag_396:\n        /* \"#utility.yul\":3445:3505   */\n      swap5\n      pop\n        /* \"#utility.yul\":3552:3554   */\n      0x20\n        /* \"#utility.yul\":3541:3550   */\n      dup7\n        /* \"#utility.yul\":3537:3555   */\n      add\n        /* \"#utility.yul\":3524:3556   */\n      calldataload\n        /* \"#utility.yul\":3514:3556   */\n      swap4\n      pop\n        /* \"#utility.yul\":3609:3611   */\n      0x40\n        /* \"#utility.yul\":3598:3607   */\n      dup7\n        /* \"#utility.yul\":3594:3612   */\n      add\n        /* \"#utility.yul\":3581:3613   */\n      calldataload\n        /* \"#utility.yul\":3565:3613   */\n      swap2\n      pop\n        /* \"#utility.yul\":3638:3640   */\n      dup1\n        /* \"#utility.yul\":3628:3636   */\n      dup3\n        /* \"#utility.yul\":3625:3641   */\n      gt\n        /* \"#utility.yul\":3622:3658   */\n      iszero\n      tag_397\n      jumpi\n        /* \"#utility.yul\":3654:3655   */\n      0x00\n        /* \"#utility.yul\":3651:3652   */\n      dup1\n        /* \"#utility.yul\":3644:3656   */\n      revert\n        /* \"#utility.yul\":3622:3658   */\n    tag_397:\n      pop\n        /* \"#utility.yul\":3677:3729   */\n      tag_398\n        /* \"#utility.yul\":3721:3728   */\n      dup7\n        /* \"#utility.yul\":3710:3718   */\n      dup3\n        /* \"#utility.yul\":3699:3708   */\n      dup8\n        /* \"#utility.yul\":3695:3719   */\n      add\n        /* \"#utility.yul\":3677:3729   */\n      tag_356\n      jump\t// in\n    tag_398:\n        /* \"#utility.yul\":3667:3729   */\n      swap2\n      pop\n      pop\n        /* \"#utility.yul\":3124:3735   */\n      swap3\n      pop\n      swap3\n      pop\n      swap3\n      jump\t// out\n        /* \"#utility.yul\":3740:3920   */\n    tag_60:\n        /* \"#utility.yul\":3799:3805   */\n      0x00\n        /* \"#utility.yul\":3852:3854   */\n      0x20\n        /* \"#utility.yul\":3840:3849   */\n      dup3\n        /* \"#utility.yul\":3831:3838   */\n      dup5\n        /* \"#utility.yul\":3827:3850   */\n      sub\n        /* \"#utility.yul\":3823:3855   */\n      slt\n        /* \"#utility.yul\":3820:3872   */\n      iszero\n      tag_400\n      jumpi\n        /* \"#utility.yul\":3868:3869   */\n      0x00\n        /* \"#utility.yul\":3865:3866   */\n      dup1\n        /* \"#utility.yul\":3858:3870   */\n      revert\n        /* \"#utility.yul\":3820:3872   */\n    tag_400:\n      pop\n        /* \"#utility.yul\":3891:3914   */\n      calldataload\n      swap2\n        /* \"#utility.yul\":3740:3920   */\n      swap1\n      pop\n      jump\t// out\n        /* \"#utility.yul\":3925:4266   */\n    tag_25:\n        /* \"#utility.yul\":3990:3996   */\n      0x00\n        /* \"#utility.yul\":3998:4004   */\n      dup1\n        /* \"#utility.yul\":4051:4053   */\n      0x40\n        /* \"#utility.yul\":4039:4048   */\n      dup4\n        /* \"#utility.yul\":4030:4037   */\n      dup6\n        /* \"#utility.yul\":4026:4049   */\n      sub\n        /* \"#utility.yul\":4022:4054   */\n      slt\n        /* \"#utility.yul\":4019:4071   */\n      iszero\n      tag_402\n      jumpi\n        /* \"#utility.yul\":4067:4068   */\n      0x00\n        /* \"#utility.yul\":4064:4065   */\n      dup1\n        /* \"#utility.yul\":4057:4069   */\n      revert\n        /* \"#utility.yul\":4019:4071   */\n    tag_402:\n        /* \"#utility.yul\":4103:4112   */\n      dup3\n        /* \"#utility.yul\":4090:4113   */\n      calldataload\n        /* \"#utility.yul\":4080:4113   */\n      swap2\n      pop\n        /* \"#utility.yul\":4163:4165   */\n      0x20\n        /* \"#utility.yul\":4152:4161   */\n      dup4\n        /* \"#utility.yul\":4148:4166   */\n      add\n        /* \"#utility.yul\":4135:4167   */\n      calldataload\n        /* \"#utility.yul\":4210:4215   */\n      dup1\n        /* \"#utility.yul\":4203:4216   */\n      iszero\n        /* \"#utility.yul\":4196:4217   */\n      iszero\n        /* \"#utility.yul\":4189:4194   */\n      dup2\n        /* \"#utility.yul\":4186:4218   */\n      eq\n        /* \"#utility.yul\":4176:4236   */\n      tag_403\n      jumpi\n        /* \"#utility.yul\":4232:4233   */\n      0x00\n        /* \"#utility.yul\":4229:4230   */\n      dup1\n        /* \"#utility.yul\":4222:4234   */\n      revert\n        /* \"#utility.yul\":4176:4236   */\n    tag_403:\n        /* \"#utility.yul\":4255:4260   */\n      dup1\n        /* \"#utility.yul\":4245:4260   */\n      swap2\n      pop\n      pop\n        /* \"#utility.yul\":3925:4266   */\n      swap3\n      pop\n      swap3\n      swap1\n      pop\n      jump\t// out\n        /* \"#utility.yul\":4271:4529   */\n    tag_404:\n        /* \"#utility.yul\":4313:4316   */\n      0x00\n        /* \"#utility.yul\":4351:4356   */\n      dup2\n        /* \"#utility.yul\":4345:4357   */\n      mload\n        /* \"#utility.yul\":4378:4384   */\n      dup1\n        /* \"#utility.yul\":4373:4376   */\n      dup5\n        /* \"#utility.yul\":4366:4385   */\n      mstore\n        /* \"#utility.yul\":4394:4457   */\n      tag_406\n        /* \"#utility.yul\":4450:4456   */\n      dup2\n        /* \"#utility.yul\":4443:4447   */\n      0x20\n        /* \"#utility.yul\":4438:4441   */\n      dup7\n        /* \"#utility.yul\":4434:4448   */\n      add\n        /* \"#utility.yul\":4427:4431   */\n      0x20\n        /* \"#utility.yul\":4420:4425   */\n      dup7\n        /* \"#utility.yul\":4416:4432   */\n      add\n        /* \"#utility.yul\":4394:4457   */\n      tag_407\n      jump\t// in\n    tag_406:\n        /* \"#utility.yul\":4511:4513   */\n      0x1f\n        /* \"#utility.yul\":4490:4505   */\n      add\n      not(0x1f)\n        /* \"#utility.yul\":4486:4515   */\n      and\n        /* \"#utility.yul\":4477:4516   */\n      swap3\n      swap1\n      swap3\n      add\n        /* \"#utility.yul\":4518:4522   */\n      0x20\n        /* \"#utility.yul\":4473:4523   */\n      add\n      swap3\n        /* \"#utility.yul\":4271:4529   */\n      swap2\n      pop\n      pop\n      jump\t// out\n        /* \"#utility.yul\":4534:4810   */\n    tag_136:\n        /* \"#utility.yul\":4665:4668   */\n      0x00\n        /* \"#utility.yul\":4703:4709   */\n      dup3\n        /* \"#utility.yul\":4697:4710   */\n      mload\n        /* \"#utility.yul\":4719:4772   */\n      tag_409\n        /* \"#utility.yul\":4765:4771   */\n      dup2\n        /* \"#utility.yul\":4760:4763   */\n      dup5\n        /* \"#utility.yul\":4753:4757   */\n      0x20\n        /* \"#utility.yul\":4745:4751   */\n      dup8\n        /* \"#utility.yul\":4741:4758   */\n      add\n        /* \"#utility.yul\":4719:4772   */\n      tag_407\n      jump\t// in\n    tag_409:\n        /* \"#utility.yul\":4788:4804   */\n      swap2\n      swap1\n      swap2\n      add\n      swap3\n        /* \"#utility.yul\":4534:4810   */\n      swap2\n      pop\n      pop\n      jump\t// out\n        /* \"#utility.yul\":4815:5914   */\n    tag_115:\n        /* \"#utility.yul\":4943:4946   */\n      0x00\n        /* \"#utility.yul\":4972:4973   */\n      dup1\n        /* \"#utility.yul\":5005:5011   */\n      dup4\n        /* \"#utility.yul\":4999:5012   */\n      sload\n        /* \"#utility.yul\":5035:5038   */\n      dup2\n        /* \"#utility.yul\":5057:5058   */\n      0x01\n        /* \"#utility.yul\":5085:5094   */\n      dup3\n        /* \"#utility.yul\":5081:5083   */\n      dup2\n        /* \"#utility.yul\":5077:5095   */\n      shr\n        /* \"#utility.yul\":5067:5095   */\n      swap2\n      pop\n        /* \"#utility.yul\":5145:5147   */\n      dup1\n        /* \"#utility.yul\":5134:5143   */\n      dup4\n        /* \"#utility.yul\":5130:5148   */\n      and\n        /* \"#utility.yul\":5167:5185   */\n      dup1\n        /* \"#utility.yul\":5157:5218   */\n      tag_411\n      jumpi\n        /* \"#utility.yul\":5211:5215   */\n      0x7f\n        /* \"#utility.yul\":5203:5209   */\n      dup4\n        /* \"#utility.yul\":5199:5216   */\n      and\n        /* \"#utility.yul\":5189:5216   */\n      swap3\n      pop\n        /* \"#utility.yul\":5157:5218   */\n    tag_411:\n        /* \"#utility.yul\":5237:5239   */\n      0x20\n        /* \"#utility.yul\":5285:5287   */\n      dup1\n        /* \"#utility.yul\":5277:5283   */\n      dup5\n        /* \"#utility.yul\":5274:5288   */\n      lt\n        /* \"#utility.yul\":5254:5272   */\n      dup3\n        /* \"#utility.yul\":5251:5289   */\n      eq\n        /* \"#utility.yul\":5248:5413   */\n      iszero\n      tag_412\n      jumpi\n      shl(0xe0, 0x4e487b71)\n        /* \"#utility.yul\":5312:5345   */\n      dup7\n      mstore\n        /* \"#utility.yul\":5368:5372   */\n      0x22\n        /* \"#utility.yul\":5365:5366   */\n      0x04\n        /* \"#utility.yul\":5358:5373   */\n      mstore\n        /* \"#utility.yul\":5398:5402   */\n      0x24\n        /* \"#utility.yul\":5319:5322   */\n      dup7\n        /* \"#utility.yul\":5386:5403   */\n      revert\n        /* \"#utility.yul\":5248:5413   */\n    tag_412:\n        /* \"#utility.yul\":5429:5447   */\n      dup2\n        /* \"#utility.yul\":5456:5560   */\n      dup1\n      iszero\n      tag_414\n      jumpi\n        /* \"#utility.yul\":5574:5575   */\n      0x01\n        /* \"#utility.yul\":5569:5889   */\n      dup2\n      eq\n      tag_415\n      jumpi\n        /* \"#utility.yul\":5422:5889   */\n      jump(tag_413)\n        /* \"#utility.yul\":5456:5560   */\n    tag_414:\n      not(0xff)\n        /* \"#utility.yul\":5489:5513   */\n      dup7\n      and\n        /* \"#utility.yul\":5477:5514   */\n      dup10\n      mstore\n        /* \"#utility.yul\":5534:5550   */\n      dup5\n      dup10\n      add\n      swap7\n      pop\n        /* \"#utility.yul\":5456:5560   */\n      jump(tag_413)\n        /* \"#utility.yul\":5569:5889   */\n    tag_415:\n        /* \"#utility.yul\":9453:9454   */\n      0x00\n        /* \"#utility.yul\":9446:9460   */\n      dup11\n      dup2\n      mstore\n        /* \"#utility.yul\":9490:9494   */\n      0x20\n        /* \"#utility.yul\":9477:9495   */\n      swap1\n      keccak256\n        /* \"#utility.yul\":5664:5665   */\n      0x00\n        /* \"#utility.yul\":5678:5843   */\n    tag_418:\n        /* \"#utility.yul\":5692:5698   */\n      dup7\n        /* \"#utility.yul\":5689:5690   */\n      dup2\n        /* \"#utility.yul\":5686:5699   */\n      lt\n        /* \"#utility.yul\":5678:5843   */\n      iszero\n      tag_420\n      jumpi\n        /* \"#utility.yul\":5770:5784   */\n      dup2\n      sload\n        /* \"#utility.yul\":5757:5768   */\n      dup12\n      dup3\n      add\n        /* \"#utility.yul\":5750:5785   */\n      mstore\n        /* \"#utility.yul\":5813:5829   */\n      swap1\n      dup6\n      add\n      swap1\n        /* \"#utility.yul\":5707:5717   */\n      dup4\n      add\n        /* \"#utility.yul\":5678:5843   */\n      jump(tag_418)\n    tag_420:\n        /* \"#utility.yul\":5682:5685   */\n      pop\n      pop\n        /* \"#utility.yul\":5872:5878   */\n      dup5\n        /* \"#utility.yul\":5867:5870   */\n      dup10\n        /* \"#utility.yul\":5863:5879   */\n      add\n        /* \"#utility.yul\":5856:5879   */\n      swap7\n      pop\n        /* \"#utility.yul\":5422:5889   */\n    tag_413:\n      pop\n        /* \"#utility.yul\":5905:5908   */\n      swap5\n      swap9\n        /* \"#utility.yul\":4815:5914   */\n      swap8\n      pop\n      pop\n      pop\n      pop\n      pop\n      pop\n      pop\n      pop\n      jump\t// out\n        /* \"#utility.yul\":6127:6525   */\n    tag_63:\n      sub(shl(0xa0, 0x01), 0x01)\n        /* \"#utility.yul\":6326:6358   */\n      dup5\n      and\n        /* \"#utility.yul\":6308:6359   */\n      dup2\n      mstore\n        /* \"#utility.yul\":6395:6397   */\n      0x60\n        /* \"#utility.yul\":6390:6392   */\n      0x20\n        /* \"#utility.yul\":6375:6393   */\n      dup3\n      add\n        /* \"#utility.yul\":6368:6398   */\n      dup2\n      swap1\n      mstore\n      0x00\n      swap1\n        /* \"#utility.yul\":6415:6460   */\n      tag_423\n      swap1\n        /* \"#utility.yul\":6441:6459   */\n      dup4\n      add\n        /* \"#utility.yul\":6433:6439   */\n      dup6\n        /* \"#utility.yul\":6415:6460   */\n      tag_404\n      jump\t// in\n    tag_423:\n        /* \"#utility.yul\":6407:6460   */\n      swap1\n      pop\n        /* \"#utility.yul\":6510:6516   */\n      dup3\n        /* \"#utility.yul\":6503:6517   */\n      iszero\n        /* \"#utility.yul\":6496:6518   */\n      iszero\n        /* \"#utility.yul\":6491:6493   */\n      0x40\n        /* \"#utility.yul\":6480:6489   */\n      dup4\n        /* \"#utility.yul\":6476:6494   */\n      add\n        /* \"#utility.yul\":6469:6519   */\n      mstore\n        /* \"#utility.yul\":6127:6525   */\n      swap5\n      swap4\n      pop\n      pop\n      pop\n      pop\n      jump\t// out\n        /* \"#utility.yul\":6530:6991   */\n    tag_97:\n      sub(shl(0xa0, 0x01), 0x01)\n        /* \"#utility.yul\":6763:6795   */\n      dup6\n      and\n        /* \"#utility.yul\":6745:6796   */\n      dup2\n      mstore\n        /* \"#utility.yul\":6832:6835   */\n      0x80\n        /* \"#utility.yul\":6827:6829   */\n      0x20\n        /* \"#utility.yul\":6812:6830   */\n      dup3\n      add\n        /* \"#utility.yul\":6805:6836   */\n      dup2\n      swap1\n      mstore\n      0x00\n      swap1\n        /* \"#utility.yul\":6853:6899   */\n      tag_425\n      swap1\n        /* \"#utility.yul\":6879:6898   */\n      dup4\n      add\n        /* \"#utility.yul\":6871:6877   */\n      dup7\n        /* \"#utility.yul\":6853:6899   */\n      tag_404\n      jump\t// in\n    tag_425:\n        /* \"#utility.yul\":6930:6932   */\n      0x40\n        /* \"#utility.yul\":6915:6933   */\n      dup4\n      add\n        /* \"#utility.yul\":6908:6942   */\n      swap5\n      swap1\n      swap5\n      mstore\n      pop\n        /* \"#utility.yul\":6973:6975   */\n      0x60\n        /* \"#utility.yul\":6958:6976   */\n      add\n        /* \"#utility.yul\":6951:6985   */\n      mstore\n        /* \"#utility.yul\":6845:6899   */\n      swap3\n        /* \"#utility.yul\":6530:6991   */\n      swap2\n      pop\n      pop\n      jump\t// out\n        /* \"#utility.yul\":6996:7799   */\n    tag_49:\n        /* \"#utility.yul\":7158:7162   */\n      0x00\n        /* \"#utility.yul\":7187:7189   */\n      0x20\n        /* \"#utility.yul\":7227:7229   */\n      dup1\n        /* \"#utility.yul\":7216:7225   */\n      dup4\n        /* \"#utility.yul\":7212:7230   */\n      add\n        /* \"#utility.yul\":7257:7259   */\n      dup2\n        /* \"#utility.yul\":7246:7255   */\n      dup5\n        /* \"#utility.yul\":7239:7260   */\n      mstore\n        /* \"#utility.yul\":7280:7286   */\n      dup1\n        /* \"#utility.yul\":7315:7321   */\n      dup6\n        /* \"#utility.yul\":7309:7322   */\n      mload\n        /* \"#utility.yul\":7346:7352   */\n      dup1\n        /* \"#utility.yul\":7338:7344   */\n      dup4\n        /* \"#utility.yul\":7331:7353   */\n      mstore\n        /* \"#utility.yul\":7384:7386   */\n      0x40\n        /* \"#utility.yul\":7373:7382   */\n      dup7\n        /* \"#utility.yul\":7369:7387   */\n      add\n        /* \"#utility.yul\":7362:7387   */\n      swap2\n      pop\n        /* \"#utility.yul\":7446:7448   */\n      0x40\n        /* \"#utility.yul\":7436:7442   */\n      dup2\n        /* \"#utility.yul\":7433:7434   */\n      0x05\n        /* \"#utility.yul\":7429:7443   */\n      shl\n        /* \"#utility.yul\":7418:7427   */\n      dup8\n        /* \"#utility.yul\":7414:7444   */\n      add\n        /* \"#utility.yul\":7410:7449   */\n      add\n        /* \"#utility.yul\":7396:7449   */\n      swap3\n      pop\n        /* \"#utility.yul\":7484:7486   */\n      dup4\n        /* \"#utility.yul\":7476:7482   */\n      dup8\n        /* \"#utility.yul\":7472:7487   */\n      add\n        /* \"#utility.yul\":7505:7506   */\n      0x00\n        /* \"#utility.yul\":7515:7770   */\n    tag_427:\n        /* \"#utility.yul\":7529:7535   */\n      dup3\n        /* \"#utility.yul\":7526:7527   */\n      dup2\n        /* \"#utility.yul\":7523:7536   */\n      lt\n        /* \"#utility.yul\":7515:7770   */\n      iszero\n      tag_429\n      jumpi\n        /* \"#utility.yul\":7622:7624   */\n      0x3f\n        /* \"#utility.yul\":7618:7625   */\n      not\n        /* \"#utility.yul\":7606:7615   */\n      dup9\n        /* \"#utility.yul\":7598:7604   */\n      dup7\n        /* \"#utility.yul\":7594:7616   */\n      sub\n        /* \"#utility.yul\":7590:7626   */\n      add\n        /* \"#utility.yul\":7585:7588   */\n      dup5\n        /* \"#utility.yul\":7578:7627   */\n      mstore\n        /* \"#utility.yul\":7650:7690   */\n      tag_430\n        /* \"#utility.yul\":7683:7689   */\n      dup6\n        /* \"#utility.yul\":7674:7680   */\n      dup4\n        /* \"#utility.yul\":7668:7681   */\n      mload\n        /* \"#utility.yul\":7650:7690   */\n      tag_404\n      jump\t// in\n    tag_430:\n        /* \"#utility.yul\":7640:7690   */\n      swap5\n      pop\n        /* \"#utility.yul\":7748:7760   */\n      swap3\n      dup6\n      add\n      swap3\n        /* \"#utility.yul\":7713:7728   */\n      swap1\n      dup6\n      add\n      swap1\n        /* \"#utility.yul\":7551:7552   */\n      0x01\n        /* \"#utility.yul\":7544:7553   */\n      add\n        /* \"#utility.yul\":7515:7770   */\n      jump(tag_427)\n    tag_429:\n      pop\n        /* \"#utility.yul\":7787:7793   */\n      swap3\n      swap8\n        /* \"#utility.yul\":6996:7799   */\n      swap7\n      pop\n      pop\n      pop\n      pop\n      pop\n      pop\n      pop\n      jump\t// out\n        /* \"#utility.yul\":7804:8166   */\n    tag_69:\n        /* \"#utility.yul\":8009:8011   */\n      0x60\n        /* \"#utility.yul\":7998:8007   */\n      dup2\n        /* \"#utility.yul\":7991:8012   */\n      mstore\n        /* \"#utility.yul\":7972:7976   */\n      0x00\n        /* \"#utility.yul\":8029:8074   */\n      tag_432\n        /* \"#utility.yul\":8070:8072   */\n      0x60\n        /* \"#utility.yul\":8059:8068   */\n      dup4\n        /* \"#utility.yul\":8055:8073   */\n      add\n        /* \"#utility.yul\":8047:8053   */\n      dup7\n        /* \"#utility.yul\":8029:8074   */\n      tag_404\n      jump\t// in\n    tag_432:\n        /* \"#utility.yul\":8105:8107   */\n      0x20\n        /* \"#utility.yul\":8090:8108   */\n      dup4\n      add\n        /* \"#utility.yul\":8083:8117   */\n      swap5\n      swap1\n      swap5\n      mstore\n      pop\n        /* \"#utility.yul\":8148:8150   */\n      0x40\n        /* \"#utility.yul\":8133:8151   */\n      add\n        /* \"#utility.yul\":8126:8160   */\n      mstore\n        /* \"#utility.yul\":8021:8074   */\n      swap2\n        /* \"#utility.yul\":7804:8166   */\n      swap1\n      pop\n      jump\t// out\n        /* \"#utility.yul\":9100:9375   */\n    tag_363:\n        /* \"#utility.yul\":9171:9173   */\n      0x40\n        /* \"#utility.yul\":9165:9174   */\n      mload\n        /* \"#utility.yul\":9236:9238   */\n      0x1f\n        /* \"#utility.yul\":9217:9230   */\n      dup3\n      add\n      not(0x1f)\n        /* \"#utility.yul\":9213:9240   */\n      and\n        /* \"#utility.yul\":9201:9241   */\n      dup2\n      add\n      sub(shl(0x40, 0x01), 0x01)\n        /* \"#utility.yul\":9256:9290   */\n      dup2\n      gt\n        /* \"#utility.yul\":9292:9314   */\n      dup3\n      dup3\n      lt\n        /* \"#utility.yul\":9253:9315   */\n      or\n        /* \"#utility.yul\":9250:9338   */\n      iszero\n      tag_438\n      jumpi\n        /* \"#utility.yul\":9318:9336   */\n      tag_438\n      tag_361\n      jump\t// in\n    tag_438:\n        /* \"#utility.yul\":9354:9356   */\n      0x40\n        /* \"#utility.yul\":9347:9369   */\n      mstore\n        /* \"#utility.yul\":9100:9375   */\n      swap2\n      swap1\n      pop\n      jump\t// out\n        /* \"#utility.yul\":9506:9634   */\n    tag_129:\n        /* \"#utility.yul\":9546:9549   */\n      0x00\n        /* \"#utility.yul\":9577:9578   */\n      dup3\n        /* \"#utility.yul\":9573:9579   */\n      not\n        /* \"#utility.yul\":9570:9571   */\n      dup3\n        /* \"#utility.yul\":9567:9580   */\n      gt\n        /* \"#utility.yul\":9564:9603   */\n      iszero\n      tag_442\n      jumpi\n        /* \"#utility.yul\":9583:9601   */\n      tag_442\n      tag_443\n      jump\t// in\n    tag_442:\n      pop\n        /* \"#utility.yul\":9619:9628   */\n      add\n      swap1\n        /* \"#utility.yul\":9506:9634   */\n      jump\t// out\n        /* \"#utility.yul\":9639:9856   */\n    tag_249:\n        /* \"#utility.yul\":9679:9680   */\n      0x00\n        /* \"#utility.yul\":9705:9706   */\n      dup3\n        /* \"#utility.yul\":9695:9827   */\n      tag_445\n      jumpi\n        /* \"#utility.yul\":9749:9759   */\n      0x4e487b71\n        /* \"#utility.yul\":9744:9747   */\n      0xe0\n        /* \"#utility.yul\":9740:9760   */\n      shl\n        /* \"#utility.yul\":9737:9738   */\n      0x00\n        /* \"#utility.yul\":9730:9761   */\n      mstore\n        /* \"#utility.yul\":9784:9788   */\n      0x12\n        /* \"#utility.yul\":9781:9782   */\n      0x04\n        /* \"#utility.yul\":9774:9789   */\n      mstore\n        /* \"#utility.yul\":9812:9816   */\n      0x24\n        /* \"#utility.yul\":9809:9810   */\n      0x00\n        /* \"#utility.yul\":9802:9817   */\n      revert\n        /* \"#utility.yul\":9695:9827   */\n    tag_445:\n      pop\n        /* \"#utility.yul\":9841:9850   */\n      div\n      swap1\n        /* \"#utility.yul\":9639:9856   */\n      jump\t// out\n        /* \"#utility.yul\":9861:9986   */\n    tag_120:\n        /* \"#utility.yul\":9901:9905   */\n      0x00\n        /* \"#utility.yul\":9929:9930   */\n      dup3\n        /* \"#utility.yul\":9926:9927   */\n      dup3\n        /* \"#utility.yul\":9923:9931   */\n      lt\n        /* \"#utility.yul\":9920:9954   */\n      iszero\n      tag_448\n      jumpi\n        /* \"#utility.yul\":9934:9952   */\n      tag_448\n      tag_443\n      jump\t// in\n    tag_448:\n      pop\n        /* \"#utility.yul\":9971:9980   */\n      sub\n      swap1\n        /* \"#utility.yul\":9861:9986   */\n      jump\t// out\n        /* \"#utility.yul\":9991:10249   */\n    tag_407:\n        /* \"#utility.yul\":10063:10064   */\n      0x00\n        /* \"#utility.yul\":10073:10186   */\n    tag_450:\n        /* \"#utility.yul\":10087:10093   */\n      dup4\n        /* \"#utility.yul\":10084:10085   */\n      dup2\n        /* \"#utility.yul\":10081:10094   */\n      lt\n        /* \"#utility.yul\":10073:10186   */\n      iszero\n      tag_452\n      jumpi\n        /* \"#utility.yul\":10163:10174   */\n      dup2\n      dup2\n      add\n        /* \"#utility.yul\":10157:10175   */\n      mload\n        /* \"#utility.yul\":10144:10155   */\n      dup4\n      dup3\n      add\n        /* \"#utility.yul\":10137:10176   */\n      mstore\n        /* \"#utility.yul\":10109:10111   */\n      0x20\n        /* \"#utility.yul\":10102:10112   */\n      add\n        /* \"#utility.yul\":10073:10186   */\n      jump(tag_450)\n    tag_452:\n        /* \"#utility.yul\":10204:10210   */\n      dup4\n        /* \"#utility.yul\":10201:10202   */\n      dup2\n        /* \"#utility.yul\":10198:10211   */\n      gt\n        /* \"#utility.yul\":10195:10243   */\n      iszero\n      tag_275\n      jumpi\n      pop\n      pop\n        /* \"#utility.yul\":10239:10240   */\n      0x00\n        /* \"#utility.yul\":10221:10237   */\n      swap2\n      add\n        /* \"#utility.yul\":10214:10241   */\n      mstore\n        /* \"#utility.yul\":9991:10249   */\n      jump\t// out\n        /* \"#utility.yul\":10254:10634   */\n    tag_151:\n        /* \"#utility.yul\":10333:10334   */\n      0x01\n        /* \"#utility.yul\":10329:10341   */\n      dup2\n      dup2\n      shr\n      swap1\n        /* \"#utility.yul\":10376:10388   */\n      dup3\n      and\n      dup1\n        /* \"#utility.yul\":10397:10458   */\n      tag_455\n      jumpi\n        /* \"#utility.yul\":10451:10455   */\n      0x7f\n        /* \"#utility.yul\":10443:10449   */\n      dup3\n        /* \"#utility.yul\":10439:10456   */\n      and\n        /* \"#utility.yul\":10429:10456   */\n      swap2\n      pop\n        /* \"#utility.yul\":10397:10458   */\n    tag_455:\n        /* \"#utility.yul\":10504:10506   */\n      0x20\n        /* \"#utility.yul\":10496:10502   */\n      dup3\n        /* \"#utility.yul\":10493:10507   */\n      lt\n        /* \"#utility.yul\":10473:10491   */\n      dup2\n        /* \"#utility.yul\":10470:10508   */\n      eq\n        /* \"#utility.yul\":10467:10628   */\n      iszero\n      tag_456\n      jumpi\n        /* \"#utility.yul\":10550:10560   */\n      0x4e487b71\n        /* \"#utility.yul\":10545:10548   */\n      0xe0\n        /* \"#utility.yul\":10541:10561   */\n      shl\n        /* \"#utility.yul\":10538:10539   */\n      0x00\n        /* \"#utility.yul\":10531:10562   */\n      mstore\n        /* \"#utility.yul\":10585:10589   */\n      0x22\n        /* \"#utility.yul\":10582:10583   */\n      0x04\n        /* \"#utility.yul\":10575:10590   */\n      mstore\n        /* \"#utility.yul\":10613:10617   */\n      0x24\n        /* \"#utility.yul\":10610:10611   */\n      0x00\n        /* \"#utility.yul\":10603:10618   */\n      revert\n        /* \"#utility.yul\":10467:10628   */\n    tag_456:\n      pop\n        /* \"#utility.yul\":10254:10634   */\n      swap2\n      swap1\n      pop\n      jump\t// out\n        /* \"#utility.yul\":10639:10774   */\n    tag_165:\n        /* \"#utility.yul\":10678:10681   */\n      0x00\n      not(0x00)\n        /* \"#utility.yul\":10699:10716   */\n      dup3\n      eq\n        /* \"#utility.yul\":10696:10739   */\n      iszero\n      tag_459\n      jumpi\n        /* \"#utility.yul\":10719:10737   */\n      tag_459\n      tag_443\n      jump\t// in\n    tag_459:\n      pop\n        /* \"#utility.yul\":10766:10767   */\n      0x01\n        /* \"#utility.yul\":10755:10768   */\n      add\n      swap1\n        /* \"#utility.yul\":10639:10774   */\n      jump\t// out\n        /* \"#utility.yul\":10779:10906   */\n    tag_443:\n        /* \"#utility.yul\":10840:10850   */\n      0x4e487b71\n        /* \"#utility.yul\":10835:10838   */\n      0xe0\n        /* \"#utility.yul\":10831:10851   */\n      shl\n        /* \"#utility.yul\":10828:10829   */\n      0x00\n        /* \"#utility.yul\":10821:10852   */\n      mstore\n        /* \"#utility.yul\":10871:10875   */\n      0x11\n        /* \"#utility.yul\":10868:10869   */\n      0x04\n        /* \"#utility.yul\":10861:10876   */\n      mstore\n        /* \"#utility.yul\":10895:10899   */\n      0x24\n        /* \"#utility.yul\":10892:10893   */\n      0x00\n        /* \"#utility.yul\":10885:10900   */\n      revert\n        /* \"#utility.yul\":10911:11038   */\n    tag_109:\n        /* \"#utility.yul\":10972:10982   */\n      0x4e487b71\n        /* \"#utility.yul\":10967:10970   */\n      0xe0\n        /* \"#utility.yul\":10963:10983   */\n      shl\n        /* \"#utility.yul\":10960:10961   */\n      0x00\n        /* \"#utility.yul\":10953:10984   */\n      mstore\n        /* \"#utility.yul\":11003:11007   */\n      0x32\n        /* \"#utility.yul\":11000:11001   */\n      0x04\n        /* \"#utility.yul\":10993:11008   */\n      mstore\n        /* \"#utility.yul\":11027:11031   */\n      0x24\n        /* \"#utility.yul\":11024:11025   */\n      0x00\n        /* \"#utility.yul\":11017:11032   */\n      revert\n        /* \"#utility.yul\":11043:11170   */\n    tag_361:\n        /* \"#utility.yul\":11104:11114   */\n      0x4e487b71\n        /* \"#utility.yul\":11099:11102   */\n      0xe0\n        /* \"#utility.yul\":11095:11115   */\n      shl\n        /* \"#utility.yul\":11092:11093   */\n      0x00\n        /* \"#utility.yul\":11085:11116   */\n      mstore\n        /* \"#utility.yul\":11135:11139   */\n      0x41\n        /* \"#utility.yul\":11132:11133   */\n      0x04\n        /* \"#utility.yul\":11125:11140   */\n      mstore\n        /* \"#utility.yul\":11159:11163   */\n      0x24\n        /* \"#utility.yul\":11156:11157   */\n      0x00\n        /* \"#utility.yul\":11149:11164   */\n      revert\n\n    auxdata: 0xa26469706673582212206dc4ad5c8a5fdd37f6ffde00976767149e22032de2e27bbb164fd9d0e986a52164736f6c63430008070033\n}\n",
				"bytecode": {
					"linkReferences": {},
					"object": "60806040526000600c553480156200001657600080fd5b506040805160e081018252600460a0820190815263119bdbd960e21b60c083015281528151808301835260018152603160f81b602082810191909152808301919091528251808401845260068152654d6f73636f7760d01b81830152928201929092526103e86060820152600060808201819052735b38da6a701c568545dcfcb03fcb875f56beddc481528252805180519192600080516020620023d183398151915292620000c9928492019062000581565b506020828101518051620000e4926001850192019062000581565b50604082015180516200010291600284019160209091019062000581565b506060820151600382015560809091015160049091015560006020819052600280546001810182559152600080516020620023d18339815191528054600080516020620023b1833981519152909201916200015d90620006ab565b6200016a92919062000610565b506040805160e081018252600760a0820190815266436c6f7468657360c81b60c083015281528151808301835260018152601960f91b6020828101919091528083019190915282518084018452600a8152695065746572736275726760b01b81830152928201929092526103e8606082015260006080820181905273ab8483f64d9c6d1ecf9b849ae677dd3315835cb281528252805180519192600080516020620023f18339815191529262000224928492019062000581565b5060208281015180516200023f926001850192019062000581565b50604082015180516200025d91600284019160209091019062000581565b506060820151600382015560809091015160049091015560006020819052600280546001810182559152600080516020620023f18339815191528054600080516020620023b183398151915290920191620002b890620006ab565b620002c592919062000610565b506040805160e081018252600960a08201908152685065742053746f726560b81b60c083015281528151808301835260018152603360f81b6020828101919091528083019190915282518084018452600c81526b456b61746572696e6275726760a01b81830152928201929092526103e86060820152600060808201819052734b20993bc481177ec7e8f571cecae8a9e22c02db81528252805180519192600080516020620024118339815191529262000383928492019062000581565b5060208281015180516200039e926001850192019062000581565b5060408201518051620003bc91600284019160209091019062000581565b506060820151600382015560809091015160049091015560006020819052600280546001810182559152600080516020620024118339815191528054600080516020620023b1833981519152909201916200041790620006ab565b6200042492919062000610565b507378731d3ca6b7e34ac0f824c42a7cc18a495cabab60056040516200045490635065746160e01b815260040190565b908152604080516020928190038301812080546001600160a01b0319166001600160a01b03959095169490941790935560a083018152600460608401818152635065746160e01b608086015284526001838501526103e8918401919091527378731d3ca6b7e34ac0f824c42a7cc18a495cabab6000528152815180517f243f34026cce3919c300c34d749c64d10fec0b66a4cf3f087c287f3498665141926200050292849291019062000581565b5060208281015160018084019190915560409384015160029093019290925560068054928301815560005282518084019093526004808452635065746160e01b939091019283526200057a927ff652222313e28459528d920b65115c16c04f3efc82aaedc97be59f3f377c0d3f909201919062000581565b50620006e8565b8280546200058f90620006ab565b90600052602060002090601f016020900481019282620005b35760008555620005fe565b82601f10620005ce57805160ff1916838001178555620005fe565b82800160010185558215620005fe579182015b82811115620005fe578251825591602001919060010190620005e1565b506200060c92915062000694565b5090565b8280546200061e90620006ab565b90600052602060002090601f016020900481019282620006425760008555620005fe565b82601f10620006555780548555620005fe565b82800160010185558215620005fe57600052602060002091601f016020900482015b82811115620005fe57825482559160010191906001019062000677565b5b808211156200060c576000815560010162000695565b600181811c90821680620006c057607f821691505b60208210811415620006e257634e487b7160e01b600052602260045260246000fd5b50919050565b611cb980620006f86000396000f3fe608060405234801561001057600080fd5b50600436106100fc5760003560e01c80630c72b1ec14610101578063146dc6ed146101165780631bbe970a1461012957806329e795f31461017a5780632ccdef7c1461018d5780632d4673e3146101a057806334d2c0ad146101b35780636ba44d3c146101c85780636c05dd1d146101db5780637ddb273d146101ee578063961865f014610210578063a985036d14610232578063a9f9482b14610253578063bbd4336314610266578063c178b9af14610279578063c4957fa014610281578063cc21c188146102b5578063d68cf8c1146102c8578063dce39151146102eb578063f69483c1146102fe575b600080fd5b61011461010f366004611931565b610311565b005b610114610124366004611723565b6104e7565b61015d610137366004611723565b80516020818301810180516005825292820191909301209152546001600160a01b031681565b6040516001600160a01b0390911681526020015b60405180910390f35b610114610188366004611757565b610643565b61011461019b366004611931565b6107a7565b6101146101ae366004611723565b6108df565b6101bb61098b565b6040516101719190611ab7565b61015d6101d6366004611723565b610a64565b6101146101e93660046118ac565b610a95565b6102016101fc366004611918565b610b8c565b60405161017193929190611a4a565b61022361021e3660046116f3565b610c57565b60405161017193929190611b19565b610245610240366004611723565b610d01565b604051908152602001610171565b610201610261366004611918565b610f09565b610114610274366004611723565b610f19565b6101bb610fc5565b61015d61028f366004611723565b80516020818301810180516001825292820191909301209152546001600160a01b031681565b6101146102c3366004611840565b611095565b6102db6102d6366004611723565b611369565b6040516101719493929190611a80565b6102016102f9366004611918565b61142f565b61011461030c366004611931565b61143f565b600181151514156104ac5760006009838154811061033157610331611c57565b906000526020600020906003020160020160006101000a81548160ff02191690831515021790555060076009838154811061036e5761036e611c57565b906000526020600020906003020160010160405161038c91906119ae565b90815260200160405180910390206002015460046000600985815481106103b5576103b5611c57565b600091825260208083206003909202909101546001600160a01b031683528201929092526040019020600201546103ec9190611ba8565b600460006009858154811061040357610403611c57565b600091825260208083206003909202909101546001600160a01b0316835282019290925260400190206002015560098054600791908490811061044857610448611c57565b906000526020600020906003020160010160405161046691906119ae565b908152604080516020928190038301902060020154336000908152928390529120600301546104959190611b6e565b336000908152602081905260409020600301555050565b6000600983815481106104c1576104c1611c57565b60009182526020909120600390910201600201805460ff19169115159190911790555050565b6007816040516104f79190611992565b90815260200160405180910390206002015460046000336001600160a01b03166001600160a01b031681526020019081526020016000206002015410156105785760405162461bcd60e51b815260206004820152601060248201526f6572726f723a206e6f74206d6f6e657960801b60448201526064015b60405180910390fd5b604080516060810182523381526020808201848152600193830184905260098054948501815560005282517f6e1540171b6c0c960b71a7020d9f60077f6af931a8bbf590da0223dacf75c7af600390950294850180546001600160a01b0319166001600160a01b039092169190911781559051805193949193610624937f6e1540171b6c0c960b71a7020d9f60077f6af931a8bbf590da0223dacf75c7b0909301929190910190611538565b50604091909101516002909101805460ff191691151591909117905550565b60005b6003548110156107a25760006003828154811061066557610665611c57565b9060005260206000209060050201600101805461068190611beb565b80601f01602080910402602001604051908101604052809291908181526020018280546106ad90611beb565b80156106fa5780601f106106cf576101008083540402835291602001916106fa565b820191906000526020600020905b8154815290600101906020018083116106dd57829003601f168201915b50505050509050836040516020016107129190611992565b60405160208183030381529060405280519060200120816040516020016107399190611992565b60405160208183030381529060405280519060200120141561078f57826003838154811061076957610769611c57565b9060005260206000209060050201600401908051906020019061078d9291906115bc565b505b508061079a81611c26565b915050610646565b505050565b600181151514156108ca576000600a83815481106107c7576107c7611c57565b906000526020600020906003020160020160006101000a81548160ff0219169083151502179055506007600a838154811061080457610804611c57565b906000526020600020906003020160010160405161082291906119ae565b90815260200160405180910390206002015460046000600a858154811061084b5761084b611c57565b600091825260208083206003909202909101546001600160a01b031683528201929092526040019020600201546108829190611b6e565b60046000600a858154811061089957610899611c57565b600091825260208083206003909202909101546001600160a01b031683528201929092526040019020600201555050565b6000600a83815481106104c1576104c1611c57565b6040805160608101825233815260208082018481526001938301849052600b8054948501815560005282517f0175b7a638427703f0dbe7bb9bbf987a2551717b34e79f33b5b1008d1fa01db9600390950294850180546001600160a01b0319166001600160a01b039092169190911781559051805193949193610624937f0175b7a638427703f0dbe7bb9bbf987a2551717b34e79f33b5b1008d1fa01dba909301929190910190611538565b60606008805480602002602001604051908101604052809291908181526020016000905b82821015610a5b5783829060005260206000200180546109ce90611beb565b80601f01602080910402602001604051908101604052809291908181526020018280546109fa90611beb565b8015610a475780601f10610a1c57610100808354040283529160200191610a47565b820191906000526020600020905b815481529060010190602001808311610a2a57829003601f168201915b5050505050815260200190600101906109af565b50505050905090565b6000600582604051610a769190611992565b908152604051908190036020019020546001600160a01b031692915050565b6040518060800160405280336001600160a01b03168152602001828152602001838152602001600c54815250600784604051610ad19190611992565b90815260405160209181900382019020825181546001600160a01b0319166001600160a01b039091161781558282015180519192610b1792600185019290910190611538565b5060408201516002820155606090910151600390910155600880546001810182556000919091528351610b71917ff3f7a9fe364faab93b216da50a3214154f22a0a2b415b23a84c8169e8b636ee301906020860190611538565b50600c8054906000610b8283611c26565b9190505550505050565b600b8181548110610b9c57600080fd5b6000918252602090912060039091020180546001820180546001600160a01b03909216935090610bcb90611beb565b80601f0160208091040260200160405190810160405280929190818152602001828054610bf790611beb565b8015610c445780601f10610c1957610100808354040283529160200191610c44565b820191906000526020600020905b815481529060010190602001808311610c2757829003601f168201915b5050506002909301549192505060ff1683565b600460205260009081526040902080548190610c7290611beb565b80601f0160208091040260200160405190810160405280929190818152602001828054610c9e90611beb565b8015610ceb5780601f10610cc057610100808354040283529160200191610ceb565b820191906000526020600020905b815481529060010190602001808311610cce57829003601f168201915b5050505050908060010154908060020154905083565b60008080805b600254811015610eec57600060028281548110610d2657610d26611c57565b906000526020600020018054610d3b90611beb565b80601f0160208091040260200160405190810160405280929190818152602001828054610d6790611beb565b8015610db45780601f10610d8957610100808354040283529160200191610db4565b820191906000526020600020905b815481529060010190602001808311610d9757829003601f168201915b5050505050905085604051602001610dcc9190611992565b6040516020818303038152906040528051906020012081604051602001610df39190611992565b604051602081830303815290604052805190602001201415610ed957600091505b6003548211610ed95760038281548110610e3057610e30611c57565b9060005260206000209060050201600001604051602001610e5191906119ae565b6040516020818303038152906040528051906020012086604051602001610e789190611992565b604051602081830303815290604052805190602001201415610ec75760038281548110610ea757610ea7611c57565b90600052602060002090600502016003015483610ec49190611b6e565b92505b81610ed181611c26565b925050610e14565b5080610ee481611c26565b915050610d07565b50610ef78282611b86565b610f019082611b6e565b949350505050565b600a8181548110610b9c57600080fd5b6040805160608101825233815260208082018481526001938301849052600a8054948501815560005282517fc65a7bb8d6351c1cf70c95a316cc6a92839c986682d98bc35f958f4883f9d2a8600390950294850180546001600160a01b0319166001600160a01b039092169190911781559051805193949193610624937fc65a7bb8d6351c1cf70c95a316cc6a92839c986682d98bc35f958f4883f9d2a9909301929190910190611538565b60606002805480602002602001604051908101604052809291908181526020016000905b82821015610a5b57838290600052602060002001805461100890611beb565b80601f016020809104026020016040519081016040528092919081815260200182805461103490611beb565b80156110815780601f1061105657610100808354040283529160200191611081565b820191906000526020600020905b81548152906001019060200180831161106457829003601f168201915b505050505081526020019060010190610fe9565b600a8111156110f05760405162461bcd60e51b815260206004820152602160248201527f6572726f723a20726174696e672063616e2062652066726f6d203120746f20316044820152600360fc1b606482015260840161056f565b60005b60025481116113635760006002828154811061111157611111611c57565b90600052602060002001805461112690611beb565b80601f016020809104026020016040519081016040528092919081815260200182805461115290611beb565b801561119f5780601f106111745761010080835404028352916020019161119f565b820191906000526020600020905b81548152906001019060200180831161118257829003601f168201915b50505050509050846040516020016111b79190611992565b60405160208183030381529060405280519060200120816040516020016111de9190611992565b604051602081830303815290604052805190602001201415611350576040805160a081018252868152336000908152600460209081529290208054606093600393929083019161122d90611beb565b80601f016020809104026020016040519081016040528092919081815260200182805461125990611beb565b80156112a65780601f1061127b576101008083540402835291602001916112a6565b820191906000526020600020905b81548152906001019060200180831161128957829003601f168201915b505050918352505060208082018990526040820188905260609091018490528254600181018455600093845292819020825180519394600502909101926112f09284920190611538565b5060208281015180516113099260018501920190611538565b5060408201518051611325916002840191602090910190611538565b50606082015160038201556080820151805161134b9160048401916020909101906115bc565b505050505b508061135b81611c26565b9150506110f3565b50505050565b8051602081830181018051600782529282019190930120915280546001820180546001600160a01b0390921692916113a090611beb565b80601f01602080910402602001604051908101604052809291908181526020018280546113cc90611beb565b80156114195780601f106113ee57610100808354040283529160200191611419565b820191906000526020600020905b8154815290600101906020018083116113fc57829003601f168201915b5050505050908060020154908060030154905084565b60098181548110610b9c57600080fd5b600181151514156108ca576007600b838154811061145f5761145f611c57565b906000526020600020906003020160010160405161147d91906119ae565b90815260200160405180910390206002015460046000600b85815481106114a6576114a6611c57565b600091825260208083206003909202909101546001600160a01b031683528201929092526040019020600201546114dd9190611b6e565b60046000600b85815481106114f4576114f4611c57565b600091825260208083206003909202909101546001600160a01b03168352820192909252604001812060020191909155600a8054849081106104c1576104c1611c57565b82805461154490611beb565b90600052602060002090601f01602090048101928261156657600085556115ac565b82601f1061157f57805160ff19168380011785556115ac565b828001600101855582156115ac579182015b828111156115ac578251825591602001919060010190611591565b506115b8929150611615565b5090565b828054828255906000526020600020908101928215611609579160200282015b8281111561160957825180516115f9918491602090910190611538565b50916020019190600101906115dc565b506115b892915061162a565b5b808211156115b85760008155600101611616565b808211156115b857600061163e8282611647565b5060010161162a565b50805461165390611beb565b6000825580601f10611663575050565b601f0160209004906000526020600020908101906116819190611615565b50565b600082601f83011261169557600080fd5b81356001600160401b038111156116ae576116ae611c6d565b6116c1601f8201601f1916602001611b3e565b8181528460208386010111156116d657600080fd5b816020850160208301376000918101602001919091529392505050565b60006020828403121561170557600080fd5b81356001600160a01b038116811461171c57600080fd5b9392505050565b60006020828403121561173557600080fd5b81356001600160401b0381111561174b57600080fd5b610f0184828501611684565b6000806040838503121561176a57600080fd5b82356001600160401b038082111561178157600080fd5b61178d86838701611684565b93506020915081850135818111156117a457600080fd5b8501601f810187136117b557600080fd5b8035828111156117c7576117c7611c6d565b8060051b6117d6858201611b3e565b8281528581019084870183860188018c10156117f157600080fd5b60009350835b8581101561182e5781358881111561180d578586fd5b61181b8e8b838b0101611684565b85525092880192908801906001016117f7565b50989b909a5098505050505050505050565b60008060006060848603121561185557600080fd5b83356001600160401b038082111561186c57600080fd5b61187887838801611684565b9450602086013591508082111561188e57600080fd5b5061189b86828701611684565b925050604084013590509250925092565b6000806000606084860312156118c157600080fd5b83356001600160401b03808211156118d857600080fd5b6118e487838801611684565b945060208601359350604086013591508082111561190157600080fd5b5061190e86828701611684565b9150509250925092565b60006020828403121561192a57600080fd5b5035919050565b6000806040838503121561194457600080fd5b823591506020830135801515811461195b57600080fd5b809150509250929050565b6000815180845261197e816020860160208601611bbf565b601f01601f19169290920160200192915050565b600082516119a4818460208701611bbf565b9190910192915050565b600080835481600182811c9150808316806119ca57607f831692505b60208084108214156119ea57634e487b7160e01b86526022600452602486fd5b8180156119fe5760018114611a0f57611a3c565b60ff19861689528489019650611a3c565b60008a81526020902060005b86811015611a345781548b820152908501908301611a1b565b505084890196505b509498975050505050505050565b6001600160a01b0384168152606060208201819052600090611a6e90830185611966565b90508215156040830152949350505050565b6001600160a01b0385168152608060208201819052600090611aa490830186611966565b6040830194909452506060015292915050565b6000602080830181845280855180835260408601915060408160051b870101925083870160005b82811015611b0c57603f19888603018452611afa858351611966565b94509285019290850190600101611ade565b5092979650505050505050565b606081526000611b2c6060830186611966565b60208301949094525060400152919050565b604051601f8201601f191681016001600160401b0381118282101715611b6657611b66611c6d565b604052919050565b60008219821115611b8157611b81611c41565b500190565b600082611ba357634e487b7160e01b600052601260045260246000fd5b500490565b600082821015611bba57611bba611c41565b500390565b60005b83811015611bda578181015183820152602001611bc2565b838111156113635750506000910152565b600181811c90821680611bff57607f821691505b60208210811415611c2057634e487b7160e01b600052602260045260246000fd5b50919050565b6000600019821415611c3a57611c3a611c41565b5060010190565b634e487b7160e01b600052601160045260246000fd5b634e487b7160e01b600052603260045260246000fd5b634e487b7160e01b600052604160045260246000fdfea26469706673582212206dc4ad5c8a5fdd37f6ffde00976767149e22032de2e27bbb164fd9d0e986a52164736f6c63430008070033405787fa12a823e0f2b7631cc41b3ba8828b3321ca811111fa75cd3aa3bb5ace58f8e73c330daffe64653449eb9a999c1162911d5129dd8193c7233d46ade2d51a1017a437881fd8fee8ab135586d886995df9286bd91e5d3c250f79b2327f02bc67542bfa83c3e43faa1ce49daa83c7bb0610df1c8f6899b8fbb170f5c183ee",
					"opcodes": "PUSH1 0x80 PUSH1 0x40 MSTORE PUSH1 0x0 PUSH1 0xC SSTORE CALLVALUE DUP1 ISZERO PUSH3 0x16 JUMPI PUSH1 0x0 DUP1 REVERT JUMPDEST POP PUSH1 0x40 DUP1 MLOAD PUSH1 0xE0 DUP2 ADD DUP3 MSTORE PUSH1 0x4 PUSH1 0xA0 DUP3 ADD SWAP1 DUP2 MSTORE PUSH4 0x119BDBD9 PUSH1 0xE2 SHL PUSH1 0xC0 DUP4 ADD MSTORE DUP2 MSTORE DUP2 MLOAD DUP1 DUP4 ADD DUP4 MSTORE PUSH1 0x1 DUP2 MSTORE PUSH1 0x31 PUSH1 0xF8 SHL PUSH1 0x20 DUP3 DUP2 ADD SWAP2 SWAP1 SWAP2 MSTORE DUP1 DUP4 ADD SWAP2 SWAP1 SWAP2 MSTORE DUP3 MLOAD DUP1 DUP5 ADD DUP5 MSTORE PUSH1 0x6 DUP2 MSTORE PUSH6 0x4D6F73636F77 PUSH1 0xD0 SHL DUP2 DUP4 ADD MSTORE SWAP3 DUP3 ADD SWAP3 SWAP1 SWAP3 MSTORE PUSH2 0x3E8 PUSH1 0x60 DUP3 ADD MSTORE PUSH1 0x0 PUSH1 0x80 DUP3 ADD DUP2 SWAP1 MSTORE PUSH20 0x5B38DA6A701C568545DCFCB03FCB875F56BEDDC4 DUP2 MSTORE DUP3 MSTORE DUP1 MLOAD DUP1 MLOAD SWAP2 SWAP3 PUSH1 0x0 DUP1 MLOAD PUSH1 0x20 PUSH3 0x23D1 DUP4 CODECOPY DUP2 MLOAD SWAP2 MSTORE SWAP3 PUSH3 0xC9 SWAP3 DUP5 SWAP3 ADD SWAP1 PUSH3 0x581 JUMP JUMPDEST POP PUSH1 0x20 DUP3 DUP2 ADD MLOAD DUP1 MLOAD PUSH3 0xE4 SWAP3 PUSH1 0x1 DUP6 ADD SWAP3 ADD SWAP1 PUSH3 0x581 JUMP JUMPDEST POP PUSH1 0x40 DUP3 ADD MLOAD DUP1 MLOAD PUSH3 0x102 SWAP2 PUSH1 0x2 DUP5 ADD SWAP2 PUSH1 0x20 SWAP1 SWAP2 ADD SWAP1 PUSH3 0x581 JUMP JUMPDEST POP PUSH1 0x60 DUP3 ADD MLOAD PUSH1 0x3 DUP3 ADD SSTORE PUSH1 0x80 SWAP1 SWAP2 ADD MLOAD PUSH1 0x4 SWAP1 SWAP2 ADD SSTORE PUSH1 0x0 PUSH1 0x20 DUP2 SWAP1 MSTORE PUSH1 0x2 DUP1 SLOAD PUSH1 0x1 DUP2 ADD DUP3 SSTORE SWAP2 MSTORE PUSH1 0x0 DUP1 MLOAD PUSH1 0x20 PUSH3 0x23D1 DUP4 CODECOPY DUP2 MLOAD SWAP2 MSTORE DUP1 SLOAD PUSH1 0x0 DUP1 MLOAD PUSH1 0x20 PUSH3 0x23B1 DUP4 CODECOPY DUP2 MLOAD SWAP2 MSTORE SWAP1 SWAP3 ADD SWAP2 PUSH3 0x15D SWAP1 PUSH3 0x6AB JUMP JUMPDEST PUSH3 0x16A SWAP3 SWAP2 SWAP1 PUSH3 0x610 JUMP JUMPDEST POP PUSH1 0x40 DUP1 MLOAD PUSH1 0xE0 DUP2 ADD DUP3 MSTORE PUSH1 0x7 PUSH1 0xA0 DUP3 ADD SWAP1 DUP2 MSTORE PUSH7 0x436C6F74686573 PUSH1 0xC8 SHL PUSH1 0xC0 DUP4 ADD MSTORE DUP2 MSTORE DUP2 MLOAD DUP1 DUP4 ADD DUP4 MSTORE PUSH1 0x1 DUP2 MSTORE PUSH1 0x19 PUSH1 0xF9 SHL PUSH1 0x20 DUP3 DUP2 ADD SWAP2 SWAP1 SWAP2 MSTORE DUP1 DUP4 ADD SWAP2 SWAP1 SWAP2 MSTORE DUP3 MLOAD DUP1 DUP5 ADD DUP5 MSTORE PUSH1 0xA DUP2 MSTORE PUSH10 0x50657465727362757267 PUSH1 0xB0 SHL DUP2 DUP4 ADD MSTORE SWAP3 DUP3 ADD SWAP3 SWAP1 SWAP3 MSTORE PUSH2 0x3E8 PUSH1 0x60 DUP3 ADD MSTORE PUSH1 0x0 PUSH1 0x80 DUP3 ADD DUP2 SWAP1 MSTORE PUSH20 0xAB8483F64D9C6D1ECF9B849AE677DD3315835CB2 DUP2 MSTORE DUP3 MSTORE DUP1 MLOAD DUP1 MLOAD SWAP2 SWAP3 PUSH1 0x0 DUP1 MLOAD PUSH1 0x20 PUSH3 0x23F1 DUP4 CODECOPY DUP2 MLOAD SWAP2 MSTORE SWAP3 PUSH3 0x224 SWAP3 DUP5 SWAP3 ADD SWAP1 PUSH3 0x581 JUMP JUMPDEST POP PUSH1 0x20 DUP3 DUP2 ADD MLOAD DUP1 MLOAD PUSH3 0x23F SWAP3 PUSH1 0x1 DUP6 ADD SWAP3 ADD SWAP1 PUSH3 0x581 JUMP JUMPDEST POP PUSH1 0x40 DUP3 ADD MLOAD DUP1 MLOAD PUSH3 0x25D SWAP2 PUSH1 0x2 DUP5 ADD SWAP2 PUSH1 0x20 SWAP1 SWAP2 ADD SWAP1 PUSH3 0x581 JUMP JUMPDEST POP PUSH1 0x60 DUP3 ADD MLOAD PUSH1 0x3 DUP3 ADD SSTORE PUSH1 0x80 SWAP1 SWAP2 ADD MLOAD PUSH1 0x4 SWAP1 SWAP2 ADD SSTORE PUSH1 0x0 PUSH1 0x20 DUP2 SWAP1 MSTORE PUSH1 0x2 DUP1 SLOAD PUSH1 0x1 DUP2 ADD DUP3 SSTORE SWAP2 MSTORE PUSH1 0x0 DUP1 MLOAD PUSH1 0x20 PUSH3 0x23F1 DUP4 CODECOPY DUP2 MLOAD SWAP2 MSTORE DUP1 SLOAD PUSH1 0x0 DUP1 MLOAD PUSH1 0x20 PUSH3 0x23B1 DUP4 CODECOPY DUP2 MLOAD SWAP2 MSTORE SWAP1 SWAP3 ADD SWAP2 PUSH3 0x2B8 SWAP1 PUSH3 0x6AB JUMP JUMPDEST PUSH3 0x2C5 SWAP3 SWAP2 SWAP1 PUSH3 0x610 JUMP JUMPDEST POP PUSH1 0x40 DUP1 MLOAD PUSH1 0xE0 DUP2 ADD DUP3 MSTORE PUSH1 0x9 PUSH1 0xA0 DUP3 ADD SWAP1 DUP2 MSTORE PUSH9 0x5065742053746F7265 PUSH1 0xB8 SHL PUSH1 0xC0 DUP4 ADD MSTORE DUP2 MSTORE DUP2 MLOAD DUP1 DUP4 ADD DUP4 MSTORE PUSH1 0x1 DUP2 MSTORE PUSH1 0x33 PUSH1 0xF8 SHL PUSH1 0x20 DUP3 DUP2 ADD SWAP2 SWAP1 SWAP2 MSTORE DUP1 DUP4 ADD SWAP2 SWAP1 SWAP2 MSTORE DUP3 MLOAD DUP1 DUP5 ADD DUP5 MSTORE PUSH1 0xC DUP2 MSTORE PUSH12 0x456B61746572696E62757267 PUSH1 0xA0 SHL DUP2 DUP4 ADD MSTORE SWAP3 DUP3 ADD SWAP3 SWAP1 SWAP3 MSTORE PUSH2 0x3E8 PUSH1 0x60 DUP3 ADD MSTORE PUSH1 0x0 PUSH1 0x80 DUP3 ADD DUP2 SWAP1 MSTORE PUSH20 0x4B20993BC481177EC7E8F571CECAE8A9E22C02DB DUP2 MSTORE DUP3 MSTORE DUP1 MLOAD DUP1 MLOAD SWAP2 SWAP3 PUSH1 0x0 DUP1 MLOAD PUSH1 0x20 PUSH3 0x2411 DUP4 CODECOPY DUP2 MLOAD SWAP2 MSTORE SWAP3 PUSH3 0x383 SWAP3 DUP5 SWAP3 ADD SWAP1 PUSH3 0x581 JUMP JUMPDEST POP PUSH1 0x20 DUP3 DUP2 ADD MLOAD DUP1 MLOAD PUSH3 0x39E SWAP3 PUSH1 0x1 DUP6 ADD SWAP3 ADD SWAP1 PUSH3 0x581 JUMP JUMPDEST POP PUSH1 0x40 DUP3 ADD MLOAD DUP1 MLOAD PUSH3 0x3BC SWAP2 PUSH1 0x2 DUP5 ADD SWAP2 PUSH1 0x20 SWAP1 SWAP2 ADD SWAP1 PUSH3 0x581 JUMP JUMPDEST POP PUSH1 0x60 DUP3 ADD MLOAD PUSH1 0x3 DUP3 ADD SSTORE PUSH1 0x80 SWAP1 SWAP2 ADD MLOAD PUSH1 0x4 SWAP1 SWAP2 ADD SSTORE PUSH1 0x0 PUSH1 0x20 DUP2 SWAP1 MSTORE PUSH1 0x2 DUP1 SLOAD PUSH1 0x1 DUP2 ADD DUP3 SSTORE SWAP2 MSTORE PUSH1 0x0 DUP1 MLOAD PUSH1 0x20 PUSH3 0x2411 DUP4 CODECOPY DUP2 MLOAD SWAP2 MSTORE DUP1 SLOAD PUSH1 0x0 DUP1 MLOAD PUSH1 0x20 PUSH3 0x23B1 DUP4 CODECOPY DUP2 MLOAD SWAP2 MSTORE SWAP1 SWAP3 ADD SWAP2 PUSH3 0x417 SWAP1 PUSH3 0x6AB JUMP JUMPDEST PUSH3 0x424 SWAP3 SWAP2 SWAP1 PUSH3 0x610 JUMP JUMPDEST POP PUSH20 0x78731D3CA6B7E34AC0F824C42A7CC18A495CABAB PUSH1 0x5 PUSH1 0x40 MLOAD PUSH3 0x454 SWAP1 PUSH4 0x50657461 PUSH1 0xE0 SHL DUP2 MSTORE PUSH1 0x4 ADD SWAP1 JUMP JUMPDEST SWAP1 DUP2 MSTORE PUSH1 0x40 DUP1 MLOAD PUSH1 0x20 SWAP3 DUP2 SWAP1 SUB DUP4 ADD DUP2 KECCAK256 DUP1 SLOAD PUSH1 0x1 PUSH1 0x1 PUSH1 0xA0 SHL SUB NOT AND PUSH1 0x1 PUSH1 0x1 PUSH1 0xA0 SHL SUB SWAP6 SWAP1 SWAP6 AND SWAP5 SWAP1 SWAP5 OR SWAP1 SWAP4 SSTORE PUSH1 0xA0 DUP4 ADD DUP2 MSTORE PUSH1 0x4 PUSH1 0x60 DUP5 ADD DUP2 DUP2 MSTORE PUSH4 0x50657461 PUSH1 0xE0 SHL PUSH1 0x80 DUP7 ADD MSTORE DUP5 MSTORE PUSH1 0x1 DUP4 DUP6 ADD MSTORE PUSH2 0x3E8 SWAP2 DUP5 ADD SWAP2 SWAP1 SWAP2 MSTORE PUSH20 0x78731D3CA6B7E34AC0F824C42A7CC18A495CABAB PUSH1 0x0 MSTORE DUP2 MSTORE DUP2 MLOAD DUP1 MLOAD PUSH32 0x243F34026CCE3919C300C34D749C64D10FEC0B66A4CF3F087C287F3498665141 SWAP3 PUSH3 0x502 SWAP3 DUP5 SWAP3 SWAP2 ADD SWAP1 PUSH3 0x581 JUMP JUMPDEST POP PUSH1 0x20 DUP3 DUP2 ADD MLOAD PUSH1 0x1 DUP1 DUP5 ADD SWAP2 SWAP1 SWAP2 SSTORE PUSH1 0x40 SWAP4 DUP5 ADD MLOAD PUSH1 0x2 SWAP1 SWAP4 ADD SWAP3 SWAP1 SWAP3 SSTORE PUSH1 0x6 DUP1 SLOAD SWAP3 DUP4 ADD DUP2 SSTORE PUSH1 0x0 MSTORE DUP3 MLOAD DUP1 DUP5 ADD SWAP1 SWAP4 MSTORE PUSH1 0x4 DUP1 DUP5 MSTORE PUSH4 0x50657461 PUSH1 0xE0 SHL SWAP4 SWAP1 SWAP2 ADD SWAP3 DUP4 MSTORE PUSH3 0x57A SWAP3 PUSH32 0xF652222313E28459528D920B65115C16C04F3EFC82AAEDC97BE59F3F377C0D3F SWAP1 SWAP3 ADD SWAP2 SWAP1 PUSH3 0x581 JUMP JUMPDEST POP PUSH3 0x6E8 JUMP JUMPDEST DUP3 DUP1 SLOAD PUSH3 0x58F SWAP1 PUSH3 0x6AB JUMP JUMPDEST SWAP1 PUSH1 0x0 MSTORE PUSH1 0x20 PUSH1 0x0 KECCAK256 SWAP1 PUSH1 0x1F ADD PUSH1 0x20 SWAP1 DIV DUP2 ADD SWAP3 DUP3 PUSH3 0x5B3 JUMPI PUSH1 0x0 DUP6 SSTORE PUSH3 0x5FE JUMP JUMPDEST DUP3 PUSH1 0x1F LT PUSH3 0x5CE JUMPI DUP1 MLOAD PUSH1 0xFF NOT AND DUP4 DUP1 ADD OR DUP6 SSTORE PUSH3 0x5FE JUMP JUMPDEST DUP3 DUP1 ADD PUSH1 0x1 ADD DUP6 SSTORE DUP3 ISZERO PUSH3 0x5FE JUMPI SWAP2 DUP3 ADD JUMPDEST DUP3 DUP2 GT ISZERO PUSH3 0x5FE JUMPI DUP3 MLOAD DUP3 SSTORE SWAP2 PUSH1 0x20 ADD SWAP2 SWAP1 PUSH1 0x1 ADD SWAP1 PUSH3 0x5E1 JUMP JUMPDEST POP PUSH3 0x60C SWAP3 SWAP2 POP PUSH3 0x694 JUMP JUMPDEST POP SWAP1 JUMP JUMPDEST DUP3 DUP1 SLOAD PUSH3 0x61E SWAP1 PUSH3 0x6AB JUMP JUMPDEST SWAP1 PUSH1 0x0 MSTORE PUSH1 0x20 PUSH1 0x0 KECCAK256 SWAP1 PUSH1 0x1F ADD PUSH1 0x20 SWAP1 DIV DUP2 ADD SWAP3 DUP3 PUSH3 0x642 JUMPI PUSH1 0x0 DUP6 SSTORE PUSH3 0x5FE JUMP JUMPDEST DUP3 PUSH1 0x1F LT PUSH3 0x655 JUMPI DUP1 SLOAD DUP6 SSTORE PUSH3 0x5FE JUMP JUMPDEST DUP3 DUP1 ADD PUSH1 0x1 ADD DUP6 SSTORE DUP3 ISZERO PUSH3 0x5FE JUMPI PUSH1 0x0 MSTORE PUSH1 0x20 PUSH1 0x0 KECCAK256 SWAP2 PUSH1 0x1F ADD PUSH1 0x20 SWAP1 DIV DUP3 ADD JUMPDEST DUP3 DUP2 GT ISZERO PUSH3 0x5FE JUMPI DUP3 SLOAD DUP3 SSTORE SWAP2 PUSH1 0x1 ADD SWAP2 SWAP1 PUSH1 0x1 ADD SWAP1 PUSH3 0x677 JUMP JUMPDEST JUMPDEST DUP1 DUP3 GT ISZERO PUSH3 0x60C JUMPI PUSH1 0x0 DUP2 SSTORE PUSH1 0x1 ADD PUSH3 0x695 JUMP JUMPDEST PUSH1 0x1 DUP2 DUP2 SHR SWAP1 DUP3 AND DUP1 PUSH3 0x6C0 JUMPI PUSH1 0x7F DUP3 AND SWAP2 POP JUMPDEST PUSH1 0x20 DUP3 LT DUP2 EQ ISZERO PUSH3 0x6E2 JUMPI PUSH4 0x4E487B71 PUSH1 0xE0 SHL PUSH1 0x0 MSTORE PUSH1 0x22 PUSH1 0x4 MSTORE PUSH1 0x24 PUSH1 0x0 REVERT JUMPDEST POP SWAP2 SWAP1 POP JUMP JUMPDEST PUSH2 0x1CB9 DUP1 PUSH3 0x6F8 PUSH1 0x0 CODECOPY PUSH1 0x0 RETURN INVALID PUSH1 0x80 PUSH1 0x40 MSTORE CALLVALUE DUP1 ISZERO PUSH2 0x10 JUMPI PUSH1 0x0 DUP1 REVERT JUMPDEST POP PUSH1 0x4 CALLDATASIZE LT PUSH2 0xFC JUMPI PUSH1 0x0 CALLDATALOAD PUSH1 0xE0 SHR DUP1 PUSH4 0xC72B1EC EQ PUSH2 0x101 JUMPI DUP1 PUSH4 0x146DC6ED EQ PUSH2 0x116 JUMPI DUP1 PUSH4 0x1BBE970A EQ PUSH2 0x129 JUMPI DUP1 PUSH4 0x29E795F3 EQ PUSH2 0x17A JUMPI DUP1 PUSH4 0x2CCDEF7C EQ PUSH2 0x18D JUMPI DUP1 PUSH4 0x2D4673E3 EQ PUSH2 0x1A0 JUMPI DUP1 PUSH4 0x34D2C0AD EQ PUSH2 0x1B3 JUMPI DUP1 PUSH4 0x6BA44D3C EQ PUSH2 0x1C8 JUMPI DUP1 PUSH4 0x6C05DD1D EQ PUSH2 0x1DB JUMPI DUP1 PUSH4 0x7DDB273D EQ PUSH2 0x1EE JUMPI DUP1 PUSH4 0x961865F0 EQ PUSH2 0x210 JUMPI DUP1 PUSH4 0xA985036D EQ PUSH2 0x232 JUMPI DUP1 PUSH4 0xA9F9482B EQ PUSH2 0x253 JUMPI DUP1 PUSH4 0xBBD43363 EQ PUSH2 0x266 JUMPI DUP1 PUSH4 0xC178B9AF EQ PUSH2 0x279 JUMPI DUP1 PUSH4 0xC4957FA0 EQ PUSH2 0x281 JUMPI DUP1 PUSH4 0xCC21C188 EQ PUSH2 0x2B5 JUMPI DUP1 PUSH4 0xD68CF8C1 EQ PUSH2 0x2C8 JUMPI DUP1 PUSH4 0xDCE39151 EQ PUSH2 0x2EB JUMPI DUP1 PUSH4 0xF69483C1 EQ PUSH2 0x2FE JUMPI JUMPDEST PUSH1 0x0 DUP1 REVERT JUMPDEST PUSH2 0x114 PUSH2 0x10F CALLDATASIZE PUSH1 0x4 PUSH2 0x1931 JUMP JUMPDEST PUSH2 0x311 JUMP JUMPDEST STOP JUMPDEST PUSH2 0x114 PUSH2 0x124 CALLDATASIZE PUSH1 0x4 PUSH2 0x1723 JUMP JUMPDEST PUSH2 0x4E7 JUMP JUMPDEST PUSH2 0x15D PUSH2 0x137 CALLDATASIZE PUSH1 0x4 PUSH2 0x1723 JUMP JUMPDEST DUP1 MLOAD PUSH1 0x20 DUP2 DUP4 ADD DUP2 ADD DUP1 MLOAD PUSH1 0x5 DUP3 MSTORE SWAP3 DUP3 ADD SWAP2 SWAP1 SWAP4 ADD KECCAK256 SWAP2 MSTORE SLOAD PUSH1 0x1 PUSH1 0x1 PUSH1 0xA0 SHL SUB AND DUP2 JUMP JUMPDEST PUSH1 0x40 MLOAD PUSH1 0x1 PUSH1 0x1 PUSH1 0xA0 SHL SUB SWAP1 SWAP2 AND DUP2 MSTORE PUSH1 0x20 ADD JUMPDEST PUSH1 0x40 MLOAD DUP1 SWAP2 SUB SWAP1 RETURN JUMPDEST PUSH2 0x114 PUSH2 0x188 CALLDATASIZE PUSH1 0x4 PUSH2 0x1757 JUMP JUMPDEST PUSH2 0x643 JUMP JUMPDEST PUSH2 0x114 PUSH2 0x19B CALLDATASIZE PUSH1 0x4 PUSH2 0x1931 JUMP JUMPDEST PUSH2 0x7A7 JUMP JUMPDEST PUSH2 0x114 PUSH2 0x1AE CALLDATASIZE PUSH1 0x4 PUSH2 0x1723 JUMP JUMPDEST PUSH2 0x8DF JUMP JUMPDEST PUSH2 0x1BB PUSH2 0x98B JUMP JUMPDEST PUSH1 0x40 MLOAD PUSH2 0x171 SWAP2 SWAP1 PUSH2 0x1AB7 JUMP JUMPDEST PUSH2 0x15D PUSH2 0x1D6 CALLDATASIZE PUSH1 0x4 PUSH2 0x1723 JUMP JUMPDEST PUSH2 0xA64 JUMP JUMPDEST PUSH2 0x114 PUSH2 0x1E9 CALLDATASIZE PUSH1 0x4 PUSH2 0x18AC JUMP JUMPDEST PUSH2 0xA95 JUMP JUMPDEST PUSH2 0x201 PUSH2 0x1FC CALLDATASIZE PUSH1 0x4 PUSH2 0x1918 JUMP JUMPDEST PUSH2 0xB8C JUMP JUMPDEST PUSH1 0x40 MLOAD PUSH2 0x171 SWAP4 SWAP3 SWAP2 SWAP1 PUSH2 0x1A4A JUMP JUMPDEST PUSH2 0x223 PUSH2 0x21E CALLDATASIZE PUSH1 0x4 PUSH2 0x16F3 JUMP JUMPDEST PUSH2 0xC57 JUMP JUMPDEST PUSH1 0x40 MLOAD PUSH2 0x171 SWAP4 SWAP3 SWAP2 SWAP1 PUSH2 0x1B19 JUMP JUMPDEST PUSH2 0x245 PUSH2 0x240 CALLDATASIZE PUSH1 0x4 PUSH2 0x1723 JUMP JUMPDEST PUSH2 0xD01 JUMP JUMPDEST PUSH1 0x40 MLOAD SWAP1 DUP2 MSTORE PUSH1 0x20 ADD PUSH2 0x171 JUMP JUMPDEST PUSH2 0x201 PUSH2 0x261 CALLDATASIZE PUSH1 0x4 PUSH2 0x1918 JUMP JUMPDEST PUSH2 0xF09 JUMP JUMPDEST PUSH2 0x114 PUSH2 0x274 CALLDATASIZE PUSH1 0x4 PUSH2 0x1723 JUMP JUMPDEST PUSH2 0xF19 JUMP JUMPDEST PUSH2 0x1BB PUSH2 0xFC5 JUMP JUMPDEST PUSH2 0x15D PUSH2 0x28F CALLDATASIZE PUSH1 0x4 PUSH2 0x1723 JUMP JUMPDEST DUP1 MLOAD PUSH1 0x20 DUP2 DUP4 ADD DUP2 ADD DUP1 MLOAD PUSH1 0x1 DUP3 MSTORE SWAP3 DUP3 ADD SWAP2 SWAP1 SWAP4 ADD KECCAK256 SWAP2 MSTORE SLOAD PUSH1 0x1 PUSH1 0x1 PUSH1 0xA0 SHL SUB AND DUP2 JUMP JUMPDEST PUSH2 0x114 PUSH2 0x2C3 CALLDATASIZE PUSH1 0x4 PUSH2 0x1840 JUMP JUMPDEST PUSH2 0x1095 JUMP JUMPDEST PUSH2 0x2DB PUSH2 0x2D6 CALLDATASIZE PUSH1 0x4 PUSH2 0x1723 JUMP JUMPDEST PUSH2 0x1369 JUMP JUMPDEST PUSH1 0x40 MLOAD PUSH2 0x171 SWAP5 SWAP4 SWAP3 SWAP2 SWAP1 PUSH2 0x1A80 JUMP JUMPDEST PUSH2 0x201 PUSH2 0x2F9 CALLDATASIZE PUSH1 0x4 PUSH2 0x1918 JUMP JUMPDEST PUSH2 0x142F JUMP JUMPDEST PUSH2 0x114 PUSH2 0x30C CALLDATASIZE PUSH1 0x4 PUSH2 0x1931 JUMP JUMPDEST PUSH2 0x143F JUMP JUMPDEST PUSH1 0x1 DUP2 ISZERO ISZERO EQ ISZERO PUSH2 0x4AC JUMPI PUSH1 0x0 PUSH1 0x9 DUP4 DUP2 SLOAD DUP2 LT PUSH2 0x331 JUMPI PUSH2 0x331 PUSH2 0x1C57 JUMP JUMPDEST SWAP1 PUSH1 0x0 MSTORE PUSH1 0x20 PUSH1 0x0 KECCAK256 SWAP1 PUSH1 0x3 MUL ADD PUSH1 0x2 ADD PUSH1 0x0 PUSH2 0x100 EXP DUP2 SLOAD DUP2 PUSH1 0xFF MUL NOT AND SWAP1 DUP4 ISZERO ISZERO MUL OR SWAP1 SSTORE POP PUSH1 0x7 PUSH1 0x9 DUP4 DUP2 SLOAD DUP2 LT PUSH2 0x36E JUMPI PUSH2 0x36E PUSH2 0x1C57 JUMP JUMPDEST SWAP1 PUSH1 0x0 MSTORE PUSH1 0x20 PUSH1 0x0 KECCAK256 SWAP1 PUSH1 0x3 MUL ADD PUSH1 0x1 ADD PUSH1 0x40 MLOAD PUSH2 0x38C SWAP2 SWAP1 PUSH2 0x19AE JUMP JUMPDEST SWAP1 DUP2 MSTORE PUSH1 0x20 ADD PUSH1 0x40 MLOAD DUP1 SWAP2 SUB SWAP1 KECCAK256 PUSH1 0x2 ADD SLOAD PUSH1 0x4 PUSH1 0x0 PUSH1 0x9 DUP6 DUP2 SLOAD DUP2 LT PUSH2 0x3B5 JUMPI PUSH2 0x3B5 PUSH2 0x1C57 JUMP JUMPDEST PUSH1 0x0 SWAP2 DUP3 MSTORE PUSH1 0x20 DUP1 DUP4 KECCAK256 PUSH1 0x3 SWAP1 SWAP3 MUL SWAP1 SWAP2 ADD SLOAD PUSH1 0x1 PUSH1 0x1 PUSH1 0xA0 SHL SUB AND DUP4 MSTORE DUP3 ADD SWAP3 SWAP1 SWAP3 MSTORE PUSH1 0x40 ADD SWAP1 KECCAK256 PUSH1 0x2 ADD SLOAD PUSH2 0x3EC SWAP2 SWAP1 PUSH2 0x1BA8 JUMP JUMPDEST PUSH1 0x4 PUSH1 0x0 PUSH1 0x9 DUP6 DUP2 SLOAD DUP2 LT PUSH2 0x403 JUMPI PUSH2 0x403 PUSH2 0x1C57 JUMP JUMPDEST PUSH1 0x0 SWAP2 DUP3 MSTORE PUSH1 0x20 DUP1 DUP4 KECCAK256 PUSH1 0x3 SWAP1 SWAP3 MUL SWAP1 SWAP2 ADD SLOAD PUSH1 0x1 PUSH1 0x1 PUSH1 0xA0 SHL SUB AND DUP4 MSTORE DUP3 ADD SWAP3 SWAP1 SWAP3 MSTORE PUSH1 0x40 ADD SWAP1 KECCAK256 PUSH1 0x2 ADD SSTORE PUSH1 0x9 DUP1 SLOAD PUSH1 0x7 SWAP2 SWAP1 DUP5 SWAP1 DUP2 LT PUSH2 0x448 JUMPI PUSH2 0x448 PUSH2 0x1C57 JUMP JUMPDEST SWAP1 PUSH1 0x0 MSTORE PUSH1 0x20 PUSH1 0x0 KECCAK256 SWAP1 PUSH1 0x3 MUL ADD PUSH1 0x1 ADD PUSH1 0x40 MLOAD PUSH2 0x466 SWAP2 SWAP1 PUSH2 0x19AE JUMP JUMPDEST SWAP1 DUP2 MSTORE PUSH1 0x40 DUP1 MLOAD PUSH1 0x20 SWAP3 DUP2 SWAP1 SUB DUP4 ADD SWAP1 KECCAK256 PUSH1 0x2 ADD SLOAD CALLER PUSH1 0x0 SWAP1 DUP2 MSTORE SWAP3 DUP4 SWAP1 MSTORE SWAP2 KECCAK256 PUSH1 0x3 ADD SLOAD PUSH2 0x495 SWAP2 SWAP1 PUSH2 0x1B6E JUMP JUMPDEST CALLER PUSH1 0x0 SWAP1 DUP2 MSTORE PUSH1 0x20 DUP2 SWAP1 MSTORE PUSH1 0x40 SWAP1 KECCAK256 PUSH1 0x3 ADD SSTORE POP POP JUMP JUMPDEST PUSH1 0x0 PUSH1 0x9 DUP4 DUP2 SLOAD DUP2 LT PUSH2 0x4C1 JUMPI PUSH2 0x4C1 PUSH2 0x1C57 JUMP JUMPDEST PUSH1 0x0 SWAP2 DUP3 MSTORE PUSH1 0x20 SWAP1 SWAP2 KECCAK256 PUSH1 0x3 SWAP1 SWAP2 MUL ADD PUSH1 0x2 ADD DUP1 SLOAD PUSH1 0xFF NOT AND SWAP2 ISZERO ISZERO SWAP2 SWAP1 SWAP2 OR SWAP1 SSTORE POP POP JUMP JUMPDEST PUSH1 0x7 DUP2 PUSH1 0x40 MLOAD PUSH2 0x4F7 SWAP2 SWAP1 PUSH2 0x1992 JUMP JUMPDEST SWAP1 DUP2 MSTORE PUSH1 0x20 ADD PUSH1 0x40 MLOAD DUP1 SWAP2 SUB SWAP1 KECCAK256 PUSH1 0x2 ADD SLOAD PUSH1 0x4 PUSH1 0x0 CALLER PUSH1 0x1 PUSH1 0x1 PUSH1 0xA0 SHL SUB AND PUSH1 0x1 PUSH1 0x1 PUSH1 0xA0 SHL SUB AND DUP2 MSTORE PUSH1 0x20 ADD SWAP1 DUP2 MSTORE PUSH1 0x20 ADD PUSH1 0x0 KECCAK256 PUSH1 0x2 ADD SLOAD LT ISZERO PUSH2 0x578 JUMPI PUSH1 0x40 MLOAD PUSH3 0x461BCD PUSH1 0xE5 SHL DUP2 MSTORE PUSH1 0x20 PUSH1 0x4 DUP3 ADD MSTORE PUSH1 0x10 PUSH1 0x24 DUP3 ADD MSTORE PUSH16 0x6572726F723A206E6F74206D6F6E6579 PUSH1 0x80 SHL PUSH1 0x44 DUP3 ADD MSTORE PUSH1 0x64 ADD JUMPDEST PUSH1 0x40 MLOAD DUP1 SWAP2 SUB SWAP1 REVERT JUMPDEST PUSH1 0x40 DUP1 MLOAD PUSH1 0x60 DUP2 ADD DUP3 MSTORE CALLER DUP2 MSTORE PUSH1 0x20 DUP1 DUP3 ADD DUP5 DUP2 MSTORE PUSH1 0x1 SWAP4 DUP4 ADD DUP5 SWAP1 MSTORE PUSH1 0x9 DUP1 SLOAD SWAP5 DUP6 ADD DUP2 SSTORE PUSH1 0x0 MSTORE DUP3 MLOAD PUSH32 0x6E1540171B6C0C960B71A7020D9F60077F6AF931A8BBF590DA0223DACF75C7AF PUSH1 0x3 SWAP1 SWAP6 MUL SWAP5 DUP6 ADD DUP1 SLOAD PUSH1 0x1 PUSH1 0x1 PUSH1 0xA0 SHL SUB NOT AND PUSH1 0x1 PUSH1 0x1 PUSH1 0xA0 SHL SUB SWAP1 SWAP3 AND SWAP2 SWAP1 SWAP2 OR DUP2 SSTORE SWAP1 MLOAD DUP1 MLOAD SWAP4 SWAP5 SWAP2 SWAP4 PUSH2 0x624 SWAP4 PUSH32 0x6E1540171B6C0C960B71A7020D9F60077F6AF931A8BBF590DA0223DACF75C7B0 SWAP1 SWAP4 ADD SWAP3 SWAP2 SWAP1 SWAP2 ADD SWAP1 PUSH2 0x1538 JUMP JUMPDEST POP PUSH1 0x40 SWAP2 SWAP1 SWAP2 ADD MLOAD PUSH1 0x2 SWAP1 SWAP2 ADD DUP1 SLOAD PUSH1 0xFF NOT AND SWAP2 ISZERO ISZERO SWAP2 SWAP1 SWAP2 OR SWAP1 SSTORE POP JUMP JUMPDEST PUSH1 0x0 JUMPDEST PUSH1 0x3 SLOAD DUP2 LT ISZERO PUSH2 0x7A2 JUMPI PUSH1 0x0 PUSH1 0x3 DUP3 DUP2 SLOAD DUP2 LT PUSH2 0x665 JUMPI PUSH2 0x665 PUSH2 0x1C57 JUMP JUMPDEST SWAP1 PUSH1 0x0 MSTORE PUSH1 0x20 PUSH1 0x0 KECCAK256 SWAP1 PUSH1 0x5 MUL ADD PUSH1 0x1 ADD DUP1 SLOAD PUSH2 0x681 SWAP1 PUSH2 0x1BEB JUMP JUMPDEST DUP1 PUSH1 0x1F ADD PUSH1 0x20 DUP1 SWAP2 DIV MUL PUSH1 0x20 ADD PUSH1 0x40 MLOAD SWAP1 DUP2 ADD PUSH1 0x40 MSTORE DUP1 SWAP3 SWAP2 SWAP1 DUP2 DUP2 MSTORE PUSH1 0x20 ADD DUP3 DUP1 SLOAD PUSH2 0x6AD SWAP1 PUSH2 0x1BEB JUMP JUMPDEST DUP1 ISZERO PUSH2 0x6FA JUMPI DUP1 PUSH1 0x1F LT PUSH2 0x6CF JUMPI PUSH2 0x100 DUP1 DUP4 SLOAD DIV MUL DUP4 MSTORE SWAP2 PUSH1 0x20 ADD SWAP2 PUSH2 0x6FA JUMP JUMPDEST DUP3 ADD SWAP2 SWAP1 PUSH1 0x0 MSTORE PUSH1 0x20 PUSH1 0x0 KECCAK256 SWAP1 JUMPDEST DUP2 SLOAD DUP2 MSTORE SWAP1 PUSH1 0x1 ADD SWAP1 PUSH1 0x20 ADD DUP1 DUP4 GT PUSH2 0x6DD JUMPI DUP3 SWAP1 SUB PUSH1 0x1F AND DUP3 ADD SWAP2 JUMPDEST POP POP POP POP POP SWAP1 POP DUP4 PUSH1 0x40 MLOAD PUSH1 0x20 ADD PUSH2 0x712 SWAP2 SWAP1 PUSH2 0x1992 JUMP JUMPDEST PUSH1 0x40 MLOAD PUSH1 0x20 DUP2 DUP4 SUB SUB DUP2 MSTORE SWAP1 PUSH1 0x40 MSTORE DUP1 MLOAD SWAP1 PUSH1 0x20 ADD KECCAK256 DUP2 PUSH1 0x40 MLOAD PUSH1 0x20 ADD PUSH2 0x739 SWAP2 SWAP1 PUSH2 0x1992 JUMP JUMPDEST PUSH1 0x40 MLOAD PUSH1 0x20 DUP2 DUP4 SUB SUB DUP2 MSTORE SWAP1 PUSH1 0x40 MSTORE DUP1 MLOAD SWAP1 PUSH1 0x20 ADD KECCAK256 EQ ISZERO PUSH2 0x78F JUMPI DUP3 PUSH1 0x3 DUP4 DUP2 SLOAD DUP2 LT PUSH2 0x769 JUMPI PUSH2 0x769 PUSH2 0x1C57 JUMP JUMPDEST SWAP1 PUSH1 0x0 MSTORE PUSH1 0x20 PUSH1 0x0 KECCAK256 SWAP1 PUSH1 0x5 MUL ADD PUSH1 0x4 ADD SWAP1 DUP1 MLOAD SWAP1 PUSH1 0x20 ADD SWAP1 PUSH2 0x78D SWAP3 SWAP2 SWAP1 PUSH2 0x15BC JUMP JUMPDEST POP JUMPDEST POP DUP1 PUSH2 0x79A DUP2 PUSH2 0x1C26 JUMP JUMPDEST SWAP2 POP POP PUSH2 0x646 JUMP JUMPDEST POP POP POP JUMP JUMPDEST PUSH1 0x1 DUP2 ISZERO ISZERO EQ ISZERO PUSH2 0x8CA JUMPI PUSH1 0x0 PUSH1 0xA DUP4 DUP2 SLOAD DUP2 LT PUSH2 0x7C7 JUMPI PUSH2 0x7C7 PUSH2 0x1C57 JUMP JUMPDEST SWAP1 PUSH1 0x0 MSTORE PUSH1 0x20 PUSH1 0x0 KECCAK256 SWAP1 PUSH1 0x3 MUL ADD PUSH1 0x2 ADD PUSH1 0x0 PUSH2 0x100 EXP DUP2 SLOAD DUP2 PUSH1 0xFF MUL NOT AND SWAP1 DUP4 ISZERO ISZERO MUL OR SWAP1 SSTORE POP PUSH1 0x7 PUSH1 0xA DUP4 DUP2 SLOAD DUP2 LT PUSH2 0x804 JUMPI PUSH2 0x804 PUSH2 0x1C57 JUMP JUMPDEST SWAP1 PUSH1 0x0 MSTORE PUSH1 0x20 PUSH1 0x0 KECCAK256 SWAP1 PUSH1 0x3 MUL ADD PUSH1 0x1 ADD PUSH1 0x40 MLOAD PUSH2 0x822 SWAP2 SWAP1 PUSH2 0x19AE JUMP JUMPDEST SWAP1 DUP2 MSTORE PUSH1 0x20 ADD PUSH1 0x40 MLOAD DUP1 SWAP2 SUB SWAP1 KECCAK256 PUSH1 0x2 ADD SLOAD PUSH1 0x4 PUSH1 0x0 PUSH1 0xA DUP6 DUP2 SLOAD DUP2 LT PUSH2 0x84B JUMPI PUSH2 0x84B PUSH2 0x1C57 JUMP JUMPDEST PUSH1 0x0 SWAP2 DUP3 MSTORE PUSH1 0x20 DUP1 DUP4 KECCAK256 PUSH1 0x3 SWAP1 SWAP3 MUL SWAP1 SWAP2 ADD SLOAD PUSH1 0x1 PUSH1 0x1 PUSH1 0xA0 SHL SUB AND DUP4 MSTORE DUP3 ADD SWAP3 SWAP1 SWAP3 MSTORE PUSH1 0x40 ADD SWAP1 KECCAK256 PUSH1 0x2 ADD SLOAD PUSH2 0x882 SWAP2 SWAP1 PUSH2 0x1B6E JUMP JUMPDEST PUSH1 0x4 PUSH1 0x0 PUSH1 0xA DUP6 DUP2 SLOAD DUP2 LT PUSH2 0x899 JUMPI PUSH2 0x899 PUSH2 0x1C57 JUMP JUMPDEST PUSH1 0x0 SWAP2 DUP3 MSTORE PUSH1 0x20 DUP1 DUP4 KECCAK256 PUSH1 0x3 SWAP1 SWAP3 MUL SWAP1 SWAP2 ADD SLOAD PUSH1 0x1 PUSH1 0x1 PUSH1 0xA0 SHL SUB AND DUP4 MSTORE DUP3 ADD SWAP3 SWAP1 SWAP3 MSTORE PUSH1 0x40 ADD SWAP1 KECCAK256 PUSH1 0x2 ADD SSTORE POP POP JUMP JUMPDEST PUSH1 0x0 PUSH1 0xA DUP4 DUP2 SLOAD DUP2 LT PUSH2 0x4C1 JUMPI PUSH2 0x4C1 PUSH2 0x1C57 JUMP JUMPDEST PUSH1 0x40 DUP1 MLOAD PUSH1 0x60 DUP2 ADD DUP3 MSTORE CALLER DUP2 MSTORE PUSH1 0x20 DUP1 DUP3 ADD DUP5 DUP2 MSTORE PUSH1 0x1 SWAP4 DUP4 ADD DUP5 SWAP1 MSTORE PUSH1 0xB DUP1 SLOAD SWAP5 DUP6 ADD DUP2 SSTORE PUSH1 0x0 MSTORE DUP3 MLOAD PUSH32 0x175B7A638427703F0DBE7BB9BBF987A2551717B34E79F33B5B1008D1FA01DB9 PUSH1 0x3 SWAP1 SWAP6 MUL SWAP5 DUP6 ADD DUP1 SLOAD PUSH1 0x1 PUSH1 0x1 PUSH1 0xA0 SHL SUB NOT AND PUSH1 0x1 PUSH1 0x1 PUSH1 0xA0 SHL SUB SWAP1 SWAP3 AND SWAP2 SWAP1 SWAP2 OR DUP2 SSTORE SWAP1 MLOAD DUP1 MLOAD SWAP4 SWAP5 SWAP2 SWAP4 PUSH2 0x624 SWAP4 PUSH32 0x175B7A638427703F0DBE7BB9BBF987A2551717B34E79F33B5B1008D1FA01DBA SWAP1 SWAP4 ADD SWAP3 SWAP2 SWAP1 SWAP2 ADD SWAP1 PUSH2 0x1538 JUMP JUMPDEST PUSH1 0x60 PUSH1 0x8 DUP1 SLOAD DUP1 PUSH1 0x20 MUL PUSH1 0x20 ADD PUSH1 0x40 MLOAD SWAP1 DUP2 ADD PUSH1 0x40 MSTORE DUP1 SWAP3 SWAP2 SWAP1 DUP2 DUP2 MSTORE PUSH1 0x20 ADD PUSH1 0x0 SWAP1 JUMPDEST DUP3 DUP3 LT ISZERO PUSH2 0xA5B JUMPI DUP4 DUP3 SWAP1 PUSH1 0x0 MSTORE PUSH1 0x20 PUSH1 0x0 KECCAK256 ADD DUP1 SLOAD PUSH2 0x9CE SWAP1 PUSH2 0x1BEB JUMP JUMPDEST DUP1 PUSH1 0x1F ADD PUSH1 0x20 DUP1 SWAP2 DIV MUL PUSH1 0x20 ADD PUSH1 0x40 MLOAD SWAP1 DUP2 ADD PUSH1 0x40 MSTORE DUP1 SWAP3 SWAP2 SWAP1 DUP2 DUP2 MSTORE PUSH1 0x20 ADD DUP3 DUP1 SLOAD PUSH2 0x9FA SWAP1 PUSH2 0x1BEB JUMP JUMPDEST DUP1 ISZERO PUSH2 0xA47 JUMPI DUP1 PUSH1 0x1F LT PUSH2 0xA1C JUMPI PUSH2 0x100 DUP1 DUP4 SLOAD DIV MUL DUP4 MSTORE SWAP2 PUSH1 0x20 ADD SWAP2 PUSH2 0xA47 JUMP JUMPDEST DUP3 ADD SWAP2 SWAP1 PUSH1 0x0 MSTORE PUSH1 0x20 PUSH1 0x0 KECCAK256 SWAP1 JUMPDEST DUP2 SLOAD DUP2 MSTORE SWAP1 PUSH1 0x1 ADD SWAP1 PUSH1 0x20 ADD DUP1 DUP4 GT PUSH2 0xA2A JUMPI DUP3 SWAP1 SUB PUSH1 0x1F AND DUP3 ADD SWAP2 JUMPDEST POP POP POP POP POP DUP2 MSTORE PUSH1 0x20 ADD SWAP1 PUSH1 0x1 ADD SWAP1 PUSH2 0x9AF JUMP JUMPDEST POP POP POP POP SWAP1 POP SWAP1 JUMP JUMPDEST PUSH1 0x0 PUSH1 0x5 DUP3 PUSH1 0x40 MLOAD PUSH2 0xA76 SWAP2 SWAP1 PUSH2 0x1992 JUMP JUMPDEST SWAP1 DUP2 MSTORE PUSH1 0x40 MLOAD SWAP1 DUP2 SWAP1 SUB PUSH1 0x20 ADD SWAP1 KECCAK256 SLOAD PUSH1 0x1 PUSH1 0x1 PUSH1 0xA0 SHL SUB AND SWAP3 SWAP2 POP POP JUMP JUMPDEST PUSH1 0x40 MLOAD DUP1 PUSH1 0x80 ADD PUSH1 0x40 MSTORE DUP1 CALLER PUSH1 0x1 PUSH1 0x1 PUSH1 0xA0 SHL SUB AND DUP2 MSTORE PUSH1 0x20 ADD DUP3 DUP2 MSTORE PUSH1 0x20 ADD DUP4 DUP2 MSTORE PUSH1 0x20 ADD PUSH1 0xC SLOAD DUP2 MSTORE POP PUSH1 0x7 DUP5 PUSH1 0x40 MLOAD PUSH2 0xAD1 SWAP2 SWAP1 PUSH2 0x1992 JUMP JUMPDEST SWAP1 DUP2 MSTORE PUSH1 0x40 MLOAD PUSH1 0x20 SWAP2 DUP2 SWAP1 SUB DUP3 ADD SWAP1 KECCAK256 DUP3 MLOAD DUP2 SLOAD PUSH1 0x1 PUSH1 0x1 PUSH1 0xA0 SHL SUB NOT AND PUSH1 0x1 PUSH1 0x1 PUSH1 0xA0 SHL SUB SWAP1 SWAP2 AND OR DUP2 SSTORE DUP3 DUP3 ADD MLOAD DUP1 MLOAD SWAP2 SWAP3 PUSH2 0xB17 SWAP3 PUSH1 0x1 DUP6 ADD SWAP3 SWAP1 SWAP2 ADD SWAP1 PUSH2 0x1538 JUMP JUMPDEST POP PUSH1 0x40 DUP3 ADD MLOAD PUSH1 0x2 DUP3 ADD SSTORE PUSH1 0x60 SWAP1 SWAP2 ADD MLOAD PUSH1 0x3 SWAP1 SWAP2 ADD SSTORE PUSH1 0x8 DUP1 SLOAD PUSH1 0x1 DUP2 ADD DUP3 SSTORE PUSH1 0x0 SWAP2 SWAP1 SWAP2 MSTORE DUP4 MLOAD PUSH2 0xB71 SWAP2 PUSH32 0xF3F7A9FE364FAAB93B216DA50A3214154F22A0A2B415B23A84C8169E8B636EE3 ADD SWAP1 PUSH1 0x20 DUP7 ADD SWAP1 PUSH2 0x1538 JUMP JUMPDEST POP PUSH1 0xC DUP1 SLOAD SWAP1 PUSH1 0x0 PUSH2 0xB82 DUP4 PUSH2 0x1C26 JUMP JUMPDEST SWAP2 SWAP1 POP SSTORE POP POP POP POP JUMP JUMPDEST PUSH1 0xB DUP2 DUP2 SLOAD DUP2 LT PUSH2 0xB9C JUMPI PUSH1 0x0 DUP1 REVERT JUMPDEST PUSH1 0x0 SWAP2 DUP3 MSTORE PUSH1 0x20 SWAP1 SWAP2 KECCAK256 PUSH1 0x3 SWAP1 SWAP2 MUL ADD DUP1 SLOAD PUSH1 0x1 DUP3 ADD DUP1 SLOAD PUSH1 0x1 PUSH1 0x1 PUSH1 0xA0 SHL SUB SWAP1 SWAP3 AND SWAP4 POP SWAP1 PUSH2 0xBCB SWAP1 PUSH2 0x1BEB JUMP JUMPDEST DUP1 PUSH1 0x1F ADD PUSH1 0x20 DUP1 SWAP2 DIV MUL PUSH1 0x20 ADD PUSH1 0x40 MLOAD SWAP1 DUP2 ADD PUSH1 0x40 MSTORE DUP1 SWAP3 SWAP2 SWAP1 DUP2 DUP2 MSTORE PUSH1 0x20 ADD DUP3 DUP1 SLOAD PUSH2 0xBF7 SWAP1 PUSH2 0x1BEB JUMP JUMPDEST DUP1 ISZERO PUSH2 0xC44 JUMPI DUP1 PUSH1 0x1F LT PUSH2 0xC19 JUMPI PUSH2 0x100 DUP1 DUP4 SLOAD DIV MUL DUP4 MSTORE SWAP2 PUSH1 0x20 ADD SWAP2 PUSH2 0xC44 JUMP JUMPDEST DUP3 ADD SWAP2 SWAP1 PUSH1 0x0 MSTORE PUSH1 0x20 PUSH1 0x0 KECCAK256 SWAP1 JUMPDEST DUP2 SLOAD DUP2 MSTORE SWAP1 PUSH1 0x1 ADD SWAP1 PUSH1 0x20 ADD DUP1 DUP4 GT PUSH2 0xC27 JUMPI DUP3 SWAP1 SUB PUSH1 0x1F AND DUP3 ADD SWAP2 JUMPDEST POP POP POP PUSH1 0x2 SWAP1 SWAP4 ADD SLOAD SWAP2 SWAP3 POP POP PUSH1 0xFF AND DUP4 JUMP JUMPDEST PUSH1 0x4 PUSH1 0x20 MSTORE PUSH1 0x0 SWAP1 DUP2 MSTORE PUSH1 0x40 SWAP1 KECCAK256 DUP1 SLOAD DUP2 SWAP1 PUSH2 0xC72 SWAP1 PUSH2 0x1BEB JUMP JUMPDEST DUP1 PUSH1 0x1F ADD PUSH1 0x20 DUP1 SWAP2 DIV MUL PUSH1 0x20 ADD PUSH1 0x40 MLOAD SWAP1 DUP2 ADD PUSH1 0x40 MSTORE DUP1 SWAP3 SWAP2 SWAP1 DUP2 DUP2 MSTORE PUSH1 0x20 ADD DUP3 DUP1 SLOAD PUSH2 0xC9E SWAP1 PUSH2 0x1BEB JUMP JUMPDEST DUP1 ISZERO PUSH2 0xCEB JUMPI DUP1 PUSH1 0x1F LT PUSH2 0xCC0 JUMPI PUSH2 0x100 DUP1 DUP4 SLOAD DIV MUL DUP4 MSTORE SWAP2 PUSH1 0x20 ADD SWAP2 PUSH2 0xCEB JUMP JUMPDEST DUP3 ADD SWAP2 SWAP1 PUSH1 0x0 MSTORE PUSH1 0x20 PUSH1 0x0 KECCAK256 SWAP1 JUMPDEST DUP2 SLOAD DUP2 MSTORE SWAP1 PUSH1 0x1 ADD SWAP1 PUSH1 0x20 ADD DUP1 DUP4 GT PUSH2 0xCCE JUMPI DUP3 SWAP1 SUB PUSH1 0x1F AND DUP3 ADD SWAP2 JUMPDEST POP POP POP POP POP SWAP1 DUP1 PUSH1 0x1 ADD SLOAD SWAP1 DUP1 PUSH1 0x2 ADD SLOAD SWAP1 POP DUP4 JUMP JUMPDEST PUSH1 0x0 DUP1 DUP1 DUP1 JUMPDEST PUSH1 0x2 SLOAD DUP2 LT ISZERO PUSH2 0xEEC JUMPI PUSH1 0x0 PUSH1 0x2 DUP3 DUP2 SLOAD DUP2 LT PUSH2 0xD26 JUMPI PUSH2 0xD26 PUSH2 0x1C57 JUMP JUMPDEST SWAP1 PUSH1 0x0 MSTORE PUSH1 0x20 PUSH1 0x0 KECCAK256 ADD DUP1 SLOAD PUSH2 0xD3B SWAP1 PUSH2 0x1BEB JUMP JUMPDEST DUP1 PUSH1 0x1F ADD PUSH1 0x20 DUP1 SWAP2 DIV MUL PUSH1 0x20 ADD PUSH1 0x40 MLOAD SWAP1 DUP2 ADD PUSH1 0x40 MSTORE DUP1 SWAP3 SWAP2 SWAP1 DUP2 DUP2 MSTORE PUSH1 0x20 ADD DUP3 DUP1 SLOAD PUSH2 0xD67 SWAP1 PUSH2 0x1BEB JUMP JUMPDEST DUP1 ISZERO PUSH2 0xDB4 JUMPI DUP1 PUSH1 0x1F LT PUSH2 0xD89 JUMPI PUSH2 0x100 DUP1 DUP4 SLOAD DIV MUL DUP4 MSTORE SWAP2 PUSH1 0x20 ADD SWAP2 PUSH2 0xDB4 JUMP JUMPDEST DUP3 ADD SWAP2 SWAP1 PUSH1 0x0 MSTORE PUSH1 0x20 PUSH1 0x0 KECCAK256 SWAP1 JUMPDEST DUP2 SLOAD DUP2 MSTORE SWAP1 PUSH1 0x1 ADD SWAP1 PUSH1 0x20 ADD DUP1 DUP4 GT PUSH2 0xD97 JUMPI DUP3 SWAP1 SUB PUSH1 0x1F AND DUP3 ADD SWAP2 JUMPDEST POP POP POP POP POP SWAP1 POP DUP6 PUSH1 0x40 MLOAD PUSH1 0x20 ADD PUSH2 0xDCC SWAP2 SWAP1 PUSH2 0x1992 JUMP JUMPDEST PUSH1 0x40 MLOAD PUSH1 0x20 DUP2 DUP4 SUB SUB DUP2 MSTORE SWAP1 PUSH1 0x40 MSTORE DUP1 MLOAD SWAP1 PUSH1 0x20 ADD KECCAK256 DUP2 PUSH1 0x40 MLOAD PUSH1 0x20 ADD PUSH2 0xDF3 SWAP2 SWAP1 PUSH2 0x1992 JUMP JUMPDEST PUSH1 0x40 MLOAD PUSH1 0x20 DUP2 DUP4 SUB SUB DUP2 MSTORE SWAP1 PUSH1 0x40 MSTORE DUP1 MLOAD SWAP1 PUSH1 0x20 ADD KECCAK256 EQ ISZERO PUSH2 0xED9 JUMPI PUSH1 0x0 SWAP2 POP JUMPDEST PUSH1 0x3 SLOAD DUP3 GT PUSH2 0xED9 JUMPI PUSH1 0x3 DUP3 DUP2 SLOAD DUP2 LT PUSH2 0xE30 JUMPI PUSH2 0xE30 PUSH2 0x1C57 JUMP JUMPDEST SWAP1 PUSH1 0x0 MSTORE PUSH1 0x20 PUSH1 0x0 KECCAK256 SWAP1 PUSH1 0x5 MUL ADD PUSH1 0x0 ADD PUSH1 0x40 MLOAD PUSH1 0x20 ADD PUSH2 0xE51 SWAP2 SWAP1 PUSH2 0x19AE JUMP JUMPDEST PUSH1 0x40 MLOAD PUSH1 0x20 DUP2 DUP4 SUB SUB DUP2 MSTORE SWAP1 PUSH1 0x40 MSTORE DUP1 MLOAD SWAP1 PUSH1 0x20 ADD KECCAK256 DUP7 PUSH1 0x40 MLOAD PUSH1 0x20 ADD PUSH2 0xE78 SWAP2 SWAP1 PUSH2 0x1992 JUMP JUMPDEST PUSH1 0x40 MLOAD PUSH1 0x20 DUP2 DUP4 SUB SUB DUP2 MSTORE SWAP1 PUSH1 0x40 MSTORE DUP1 MLOAD SWAP1 PUSH1 0x20 ADD KECCAK256 EQ ISZERO PUSH2 0xEC7 JUMPI PUSH1 0x3 DUP3 DUP2 SLOAD DUP2 LT PUSH2 0xEA7 JUMPI PUSH2 0xEA7 PUSH2 0x1C57 JUMP JUMPDEST SWAP1 PUSH1 0x0 MSTORE PUSH1 0x20 PUSH1 0x0 KECCAK256 SWAP1 PUSH1 0x5 MUL ADD PUSH1 0x3 ADD SLOAD DUP4 PUSH2 0xEC4 SWAP2 SWAP1 PUSH2 0x1B6E JUMP JUMPDEST SWAP3 POP JUMPDEST DUP2 PUSH2 0xED1 DUP2 PUSH2 0x1C26 JUMP JUMPDEST SWAP3 POP POP PUSH2 0xE14 JUMP JUMPDEST POP DUP1 PUSH2 0xEE4 DUP2 PUSH2 0x1C26 JUMP JUMPDEST SWAP2 POP POP PUSH2 0xD07 JUMP JUMPDEST POP PUSH2 0xEF7 DUP3 DUP3 PUSH2 0x1B86 JUMP JUMPDEST PUSH2 0xF01 SWAP1 DUP3 PUSH2 0x1B6E JUMP JUMPDEST SWAP5 SWAP4 POP POP POP POP JUMP JUMPDEST PUSH1 0xA DUP2 DUP2 SLOAD DUP2 LT PUSH2 0xB9C JUMPI PUSH1 0x0 DUP1 REVERT JUMPDEST PUSH1 0x40 DUP1 MLOAD PUSH1 0x60 DUP2 ADD DUP3 MSTORE CALLER DUP2 MSTORE PUSH1 0x20 DUP1 DUP3 ADD DUP5 DUP2 MSTORE PUSH1 0x1 SWAP4 DUP4 ADD DUP5 SWAP1 MSTORE PUSH1 0xA DUP1 SLOAD SWAP5 DUP6 ADD DUP2 SSTORE PUSH1 0x0 MSTORE DUP3 MLOAD PUSH32 0xC65A7BB8D6351C1CF70C95A316CC6A92839C986682D98BC35F958F4883F9D2A8 PUSH1 0x3 SWAP1 SWAP6 MUL SWAP5 DUP6 ADD DUP1 SLOAD PUSH1 0x1 PUSH1 0x1 PUSH1 0xA0 SHL SUB NOT AND PUSH1 0x1 PUSH1 0x1 PUSH1 0xA0 SHL SUB SWAP1 SWAP3 AND SWAP2 SWAP1 SWAP2 OR DUP2 SSTORE SWAP1 MLOAD DUP1 MLOAD SWAP4 SWAP5 SWAP2 SWAP4 PUSH2 0x624 SWAP4 PUSH32 0xC65A7BB8D6351C1CF70C95A316CC6A92839C986682D98BC35F958F4883F9D2A9 SWAP1 SWAP4 ADD SWAP3 SWAP2 SWAP1 SWAP2 ADD SWAP1 PUSH2 0x1538 JUMP JUMPDEST PUSH1 0x60 PUSH1 0x2 DUP1 SLOAD DUP1 PUSH1 0x20 MUL PUSH1 0x20 ADD PUSH1 0x40 MLOAD SWAP1 DUP2 ADD PUSH1 0x40 MSTORE DUP1 SWAP3 SWAP2 SWAP1 DUP2 DUP2 MSTORE PUSH1 0x20 ADD PUSH1 0x0 SWAP1 JUMPDEST DUP3 DUP3 LT ISZERO PUSH2 0xA5B JUMPI DUP4 DUP3 SWAP1 PUSH1 0x0 MSTORE PUSH1 0x20 PUSH1 0x0 KECCAK256 ADD DUP1 SLOAD PUSH2 0x1008 SWAP1 PUSH2 0x1BEB JUMP JUMPDEST DUP1 PUSH1 0x1F ADD PUSH1 0x20 DUP1 SWAP2 DIV MUL PUSH1 0x20 ADD PUSH1 0x40 MLOAD SWAP1 DUP2 ADD PUSH1 0x40 MSTORE DUP1 SWAP3 SWAP2 SWAP1 DUP2 DUP2 MSTORE PUSH1 0x20 ADD DUP3 DUP1 SLOAD PUSH2 0x1034 SWAP1 PUSH2 0x1BEB JUMP JUMPDEST DUP1 ISZERO PUSH2 0x1081 JUMPI DUP1 PUSH1 0x1F LT PUSH2 0x1056 JUMPI PUSH2 0x100 DUP1 DUP4 SLOAD DIV MUL DUP4 MSTORE SWAP2 PUSH1 0x20 ADD SWAP2 PUSH2 0x1081 JUMP JUMPDEST DUP3 ADD SWAP2 SWAP1 PUSH1 0x0 MSTORE PUSH1 0x20 PUSH1 0x0 KECCAK256 SWAP1 JUMPDEST DUP2 SLOAD DUP2 MSTORE SWAP1 PUSH1 0x1 ADD SWAP1 PUSH1 0x20 ADD DUP1 DUP4 GT PUSH2 0x1064 JUMPI DUP3 SWAP1 SUB PUSH1 0x1F AND DUP3 ADD SWAP2 JUMPDEST POP POP POP POP POP DUP2 MSTORE PUSH1 0x20 ADD SWAP1 PUSH1 0x1 ADD SWAP1 PUSH2 0xFE9 JUMP JUMPDEST PUSH1 0xA DUP2 GT ISZERO PUSH2 0x10F0 JUMPI PUSH1 0x40 MLOAD PUSH3 0x461BCD PUSH1 0xE5 SHL DUP2 MSTORE PUSH1 0x20 PUSH1 0x4 DUP3 ADD MSTORE PUSH1 0x21 PUSH1 0x24 DUP3 ADD MSTORE PUSH32 0x6572726F723A20726174696E672063616E2062652066726F6D203120746F2031 PUSH1 0x44 DUP3 ADD MSTORE PUSH1 0x3 PUSH1 0xFC SHL PUSH1 0x64 DUP3 ADD MSTORE PUSH1 0x84 ADD PUSH2 0x56F JUMP JUMPDEST PUSH1 0x0 JUMPDEST PUSH1 0x2 SLOAD DUP2 GT PUSH2 0x1363 JUMPI PUSH1 0x0 PUSH1 0x2 DUP3 DUP2 SLOAD DUP2 LT PUSH2 0x1111 JUMPI PUSH2 0x1111 PUSH2 0x1C57 JUMP JUMPDEST SWAP1 PUSH1 0x0 MSTORE PUSH1 0x20 PUSH1 0x0 KECCAK256 ADD DUP1 SLOAD PUSH2 0x1126 SWAP1 PUSH2 0x1BEB JUMP JUMPDEST DUP1 PUSH1 0x1F ADD PUSH1 0x20 DUP1 SWAP2 DIV MUL PUSH1 0x20 ADD PUSH1 0x40 MLOAD SWAP1 DUP2 ADD PUSH1 0x40 MSTORE DUP1 SWAP3 SWAP2 SWAP1 DUP2 DUP2 MSTORE PUSH1 0x20 ADD DUP3 DUP1 SLOAD PUSH2 0x1152 SWAP1 PUSH2 0x1BEB JUMP JUMPDEST DUP1 ISZERO PUSH2 0x119F JUMPI DUP1 PUSH1 0x1F LT PUSH2 0x1174 JUMPI PUSH2 0x100 DUP1 DUP4 SLOAD DIV MUL DUP4 MSTORE SWAP2 PUSH1 0x20 ADD SWAP2 PUSH2 0x119F JUMP JUMPDEST DUP3 ADD SWAP2 SWAP1 PUSH1 0x0 MSTORE PUSH1 0x20 PUSH1 0x0 KECCAK256 SWAP1 JUMPDEST DUP2 SLOAD DUP2 MSTORE SWAP1 PUSH1 0x1 ADD SWAP1 PUSH1 0x20 ADD DUP1 DUP4 GT PUSH2 0x1182 JUMPI DUP3 SWAP1 SUB PUSH1 0x1F AND DUP3 ADD SWAP2 JUMPDEST POP POP POP POP POP SWAP1 POP DUP5 PUSH1 0x40 MLOAD PUSH1 0x20 ADD PUSH2 0x11B7 SWAP2 SWAP1 PUSH2 0x1992 JUMP JUMPDEST PUSH1 0x40 MLOAD PUSH1 0x20 DUP2 DUP4 SUB SUB DUP2 MSTORE SWAP1 PUSH1 0x40 MSTORE DUP1 MLOAD SWAP1 PUSH1 0x20 ADD KECCAK256 DUP2 PUSH1 0x40 MLOAD PUSH1 0x20 ADD PUSH2 0x11DE SWAP2 SWAP1 PUSH2 0x1992 JUMP JUMPDEST PUSH1 0x40 MLOAD PUSH1 0x20 DUP2 DUP4 SUB SUB DUP2 MSTORE SWAP1 PUSH1 0x40 MSTORE DUP1 MLOAD SWAP1 PUSH1 0x20 ADD KECCAK256 EQ ISZERO PUSH2 0x1350 JUMPI PUSH1 0x40 DUP1 MLOAD PUSH1 0xA0 DUP2 ADD DUP3 MSTORE DUP7 DUP2 MSTORE CALLER PUSH1 0x0 SWAP1 DUP2 MSTORE PUSH1 0x4 PUSH1 0x20 SWAP1 DUP2 MSTORE SWAP3 SWAP1 KECCAK256 DUP1 SLOAD PUSH1 0x60 SWAP4 PUSH1 0x3 SWAP4 SWAP3 SWAP1 DUP4 ADD SWAP2 PUSH2 0x122D SWAP1 PUSH2 0x1BEB JUMP JUMPDEST DUP1 PUSH1 0x1F ADD PUSH1 0x20 DUP1 SWAP2 DIV MUL PUSH1 0x20 ADD PUSH1 0x40 MLOAD SWAP1 DUP2 ADD PUSH1 0x40 MSTORE DUP1 SWAP3 SWAP2 SWAP1 DUP2 DUP2 MSTORE PUSH1 0x20 ADD DUP3 DUP1 SLOAD PUSH2 0x1259 SWAP1 PUSH2 0x1BEB JUMP JUMPDEST DUP1 ISZERO PUSH2 0x12A6 JUMPI DUP1 PUSH1 0x1F LT PUSH2 0x127B JUMPI PUSH2 0x100 DUP1 DUP4 SLOAD DIV MUL DUP4 MSTORE SWAP2 PUSH1 0x20 ADD SWAP2 PUSH2 0x12A6 JUMP JUMPDEST DUP3 ADD SWAP2 SWAP1 PUSH1 0x0 MSTORE PUSH1 0x20 PUSH1 0x0 KECCAK256 SWAP1 JUMPDEST DUP2 SLOAD DUP2 MSTORE SWAP1 PUSH1 0x1 ADD SWAP1 PUSH1 0x20 ADD DUP1 DUP4 GT PUSH2 0x1289 JUMPI DUP3 SWAP1 SUB PUSH1 0x1F AND DUP3 ADD SWAP2 JUMPDEST POP POP POP SWAP2 DUP4 MSTORE POP POP PUSH1 0x20 DUP1 DUP3 ADD DUP10 SWAP1 MSTORE PUSH1 0x40 DUP3 ADD DUP9 SWAP1 MSTORE PUSH1 0x60 SWAP1 SWAP2 ADD DUP5 SWAP1 MSTORE DUP3 SLOAD PUSH1 0x1 DUP2 ADD DUP5 SSTORE PUSH1 0x0 SWAP4 DUP5 MSTORE SWAP3 DUP2 SWAP1 KECCAK256 DUP3 MLOAD DUP1 MLOAD SWAP4 SWAP5 PUSH1 0x5 MUL SWAP1 SWAP2 ADD SWAP3 PUSH2 0x12F0 SWAP3 DUP5 SWAP3 ADD SWAP1 PUSH2 0x1538 JUMP JUMPDEST POP PUSH1 0x20 DUP3 DUP2 ADD MLOAD DUP1 MLOAD PUSH2 0x1309 SWAP3 PUSH1 0x1 DUP6 ADD SWAP3 ADD SWAP1 PUSH2 0x1538 JUMP JUMPDEST POP PUSH1 0x40 DUP3 ADD MLOAD DUP1 MLOAD PUSH2 0x1325 SWAP2 PUSH1 0x2 DUP5 ADD SWAP2 PUSH1 0x20 SWAP1 SWAP2 ADD SWAP1 PUSH2 0x1538 JUMP JUMPDEST POP PUSH1 0x60 DUP3 ADD MLOAD PUSH1 0x3 DUP3 ADD SSTORE PUSH1 0x80 DUP3 ADD MLOAD DUP1 MLOAD PUSH2 0x134B SWAP2 PUSH1 0x4 DUP5 ADD SWAP2 PUSH1 0x20 SWAP1 SWAP2 ADD SWAP1 PUSH2 0x15BC JUMP JUMPDEST POP POP POP POP JUMPDEST POP DUP1 PUSH2 0x135B DUP2 PUSH2 0x1C26 JUMP JUMPDEST SWAP2 POP POP PUSH2 0x10F3 JUMP JUMPDEST POP POP POP POP JUMP JUMPDEST DUP1 MLOAD PUSH1 0x20 DUP2 DUP4 ADD DUP2 ADD DUP1 MLOAD PUSH1 0x7 DUP3 MSTORE SWAP3 DUP3 ADD SWAP2 SWAP1 SWAP4 ADD KECCAK256 SWAP2 MSTORE DUP1 SLOAD PUSH1 0x1 DUP3 ADD DUP1 SLOAD PUSH1 0x1 PUSH1 0x1 PUSH1 0xA0 SHL SUB SWAP1 SWAP3 AND SWAP3 SWAP2 PUSH2 0x13A0 SWAP1 PUSH2 0x1BEB JUMP JUMPDEST DUP1 PUSH1 0x1F ADD PUSH1 0x20 DUP1 SWAP2 DIV MUL PUSH1 0x20 ADD PUSH1 0x40 MLOAD SWAP1 DUP2 ADD PUSH1 0x40 MSTORE DUP1 SWAP3 SWAP2 SWAP1 DUP2 DUP2 MSTORE PUSH1 0x20 ADD DUP3 DUP1 SLOAD PUSH2 0x13CC SWAP1 PUSH2 0x1BEB JUMP JUMPDEST DUP1 ISZERO PUSH2 0x1419 JUMPI DUP1 PUSH1 0x1F LT PUSH2 0x13EE JUMPI PUSH2 0x100 DUP1 DUP4 SLOAD DIV MUL DUP4 MSTORE SWAP2 PUSH1 0x20 ADD SWAP2 PUSH2 0x1419 JUMP JUMPDEST DUP3 ADD SWAP2 SWAP1 PUSH1 0x0 MSTORE PUSH1 0x20 PUSH1 0x0 KECCAK256 SWAP1 JUMPDEST DUP2 SLOAD DUP2 MSTORE SWAP1 PUSH1 0x1 ADD SWAP1 PUSH1 0x20 ADD DUP1 DUP4 GT PUSH2 0x13FC JUMPI DUP3 SWAP1 SUB PUSH1 0x1F AND DUP3 ADD SWAP2 JUMPDEST POP POP POP POP POP SWAP1 DUP1 PUSH1 0x2 ADD SLOAD SWAP1 DUP1 PUSH1 0x3 ADD SLOAD SWAP1 POP DUP5 JUMP JUMPDEST PUSH1 0x9 DUP2 DUP2 SLOAD DUP2 LT PUSH2 0xB9C JUMPI PUSH1 0x0 DUP1 REVERT JUMPDEST PUSH1 0x1 DUP2 ISZERO ISZERO EQ ISZERO PUSH2 0x8CA JUMPI PUSH1 0x7 PUSH1 0xB DUP4 DUP2 SLOAD DUP2 LT PUSH2 0x145F JUMPI PUSH2 0x145F PUSH2 0x1C57 JUMP JUMPDEST SWAP1 PUSH1 0x0 MSTORE PUSH1 0x20 PUSH1 0x0 KECCAK256 SWAP1 PUSH1 0x3 MUL ADD PUSH1 0x1 ADD PUSH1 0x40 MLOAD PUSH2 0x147D SWAP2 SWAP1 PUSH2 0x19AE JUMP JUMPDEST SWAP1 DUP2 MSTORE PUSH1 0x20 ADD PUSH1 0x40 MLOAD DUP1 SWAP2 SUB SWAP1 KECCAK256 PUSH1 0x2 ADD SLOAD PUSH1 0x4 PUSH1 0x0 PUSH1 0xB DUP6 DUP2 SLOAD DUP2 LT PUSH2 0x14A6 JUMPI PUSH2 0x14A6 PUSH2 0x1C57 JUMP JUMPDEST PUSH1 0x0 SWAP2 DUP3 MSTORE PUSH1 0x20 DUP1 DUP4 KECCAK256 PUSH1 0x3 SWAP1 SWAP3 MUL SWAP1 SWAP2 ADD SLOAD PUSH1 0x1 PUSH1 0x1 PUSH1 0xA0 SHL SUB AND DUP4 MSTORE DUP3 ADD SWAP3 SWAP1 SWAP3 MSTORE PUSH1 0x40 ADD SWAP1 KECCAK256 PUSH1 0x2 ADD SLOAD PUSH2 0x14DD SWAP2 SWAP1 PUSH2 0x1B6E JUMP JUMPDEST PUSH1 0x4 PUSH1 0x0 PUSH1 0xB DUP6 DUP2 SLOAD DUP2 LT PUSH2 0x14F4 JUMPI PUSH2 0x14F4 PUSH2 0x1C57 JUMP JUMPDEST PUSH1 0x0 SWAP2 DUP3 MSTORE PUSH1 0x20 DUP1 DUP4 KECCAK256 PUSH1 0x3 SWAP1 SWAP3 MUL SWAP1 SWAP2 ADD SLOAD PUSH1 0x1 PUSH1 0x1 PUSH1 0xA0 SHL SUB AND DUP4 MSTORE DUP3 ADD SWAP3 SWAP1 SWAP3 MSTORE PUSH1 0x40 ADD DUP2 KECCAK256 PUSH1 0x2 ADD SWAP2 SWAP1 SWAP2 SSTORE PUSH1 0xA DUP1 SLOAD DUP5 SWAP1 DUP2 LT PUSH2 0x4C1 JUMPI PUSH2 0x4C1 PUSH2 0x1C57 JUMP JUMPDEST DUP3 DUP1 SLOAD PUSH2 0x1544 SWAP1 PUSH2 0x1BEB JUMP JUMPDEST SWAP1 PUSH1 0x0 MSTORE PUSH1 0x20 PUSH1 0x0 KECCAK256 SWAP1 PUSH1 0x1F ADD PUSH1 0x20 SWAP1 DIV DUP2 ADD SWAP3 DUP3 PUSH2 0x1566 JUMPI PUSH1 0x0 DUP6 SSTORE PUSH2 0x15AC JUMP JUMPDEST DUP3 PUSH1 0x1F LT PUSH2 0x157F JUMPI DUP1 MLOAD PUSH1 0xFF NOT AND DUP4 DUP1 ADD OR DUP6 SSTORE PUSH2 0x15AC JUMP JUMPDEST DUP3 DUP1 ADD PUSH1 0x1 ADD DUP6 SSTORE DUP3 ISZERO PUSH2 0x15AC JUMPI SWAP2 DUP3 ADD JUMPDEST DUP3 DUP2 GT ISZERO PUSH2 0x15AC JUMPI DUP3 MLOAD DUP3 SSTORE SWAP2 PUSH1 0x20 ADD SWAP2 SWAP1 PUSH1 0x1 ADD SWAP1 PUSH2 0x1591 JUMP JUMPDEST POP PUSH2 0x15B8 SWAP3 SWAP2 POP PUSH2 0x1615 JUMP JUMPDEST POP SWAP1 JUMP JUMPDEST DUP3 DUP1 SLOAD DUP3 DUP3 SSTORE SWAP1 PUSH1 0x0 MSTORE PUSH1 0x20 PUSH1 0x0 KECCAK256 SWAP1 DUP2 ADD SWAP3 DUP3 ISZERO PUSH2 0x1609 JUMPI SWAP2 PUSH1 0x20 MUL DUP3 ADD JUMPDEST DUP3 DUP2 GT ISZERO PUSH2 0x1609 JUMPI DUP3 MLOAD DUP1 MLOAD PUSH2 0x15F9 SWAP2 DUP5 SWAP2 PUSH1 0x20 SWAP1 SWAP2 ADD SWAP1 PUSH2 0x1538 JUMP JUMPDEST POP SWAP2 PUSH1 0x20 ADD SWAP2 SWAP1 PUSH1 0x1 ADD SWAP1 PUSH2 0x15DC JUMP JUMPDEST POP PUSH2 0x15B8 SWAP3 SWAP2 POP PUSH2 0x162A JUMP JUMPDEST JUMPDEST DUP1 DUP3 GT ISZERO PUSH2 0x15B8 JUMPI PUSH1 0x0 DUP2 SSTORE PUSH1 0x1 ADD PUSH2 0x1616 JUMP JUMPDEST DUP1 DUP3 GT ISZERO PUSH2 0x15B8 JUMPI PUSH1 0x0 PUSH2 0x163E DUP3 DUP3 PUSH2 0x1647 JUMP JUMPDEST POP PUSH1 0x1 ADD PUSH2 0x162A JUMP JUMPDEST POP DUP1 SLOAD PUSH2 0x1653 SWAP1 PUSH2 0x1BEB JUMP JUMPDEST PUSH1 0x0 DUP3 SSTORE DUP1 PUSH1 0x1F LT PUSH2 0x1663 JUMPI POP POP JUMP JUMPDEST PUSH1 0x1F ADD PUSH1 0x20 SWAP1 DIV SWAP1 PUSH1 0x0 MSTORE PUSH1 0x20 PUSH1 0x0 KECCAK256 SWAP1 DUP2 ADD SWAP1 PUSH2 0x1681 SWAP2 SWAP1 PUSH2 0x1615 JUMP JUMPDEST POP JUMP JUMPDEST PUSH1 0x0 DUP3 PUSH1 0x1F DUP4 ADD SLT PUSH2 0x1695 JUMPI PUSH1 0x0 DUP1 REVERT JUMPDEST DUP2 CALLDATALOAD PUSH1 0x1 PUSH1 0x1 PUSH1 0x40 SHL SUB DUP2 GT ISZERO PUSH2 0x16AE JUMPI PUSH2 0x16AE PUSH2 0x1C6D JUMP JUMPDEST PUSH2 0x16C1 PUSH1 0x1F DUP3 ADD PUSH1 0x1F NOT AND PUSH1 0x20 ADD PUSH2 0x1B3E JUMP JUMPDEST DUP2 DUP2 MSTORE DUP5 PUSH1 0x20 DUP4 DUP7 ADD ADD GT ISZERO PUSH2 0x16D6 JUMPI PUSH1 0x0 DUP1 REVERT JUMPDEST DUP2 PUSH1 0x20 DUP6 ADD PUSH1 0x20 DUP4 ADD CALLDATACOPY PUSH1 0x0 SWAP2 DUP2 ADD PUSH1 0x20 ADD SWAP2 SWAP1 SWAP2 MSTORE SWAP4 SWAP3 POP POP POP JUMP JUMPDEST PUSH1 0x0 PUSH1 0x20 DUP3 DUP5 SUB SLT ISZERO PUSH2 0x1705 JUMPI PUSH1 0x0 DUP1 REVERT JUMPDEST DUP2 CALLDATALOAD PUSH1 0x1 PUSH1 0x1 PUSH1 0xA0 SHL SUB DUP2 AND DUP2 EQ PUSH2 0x171C JUMPI PUSH1 0x0 DUP1 REVERT JUMPDEST SWAP4 SWAP3 POP POP POP JUMP JUMPDEST PUSH1 0x0 PUSH1 0x20 DUP3 DUP5 SUB SLT ISZERO PUSH2 0x1735 JUMPI PUSH1 0x0 DUP1 REVERT JUMPDEST DUP2 CALLDATALOAD PUSH1 0x1 PUSH1 0x1 PUSH1 0x40 SHL SUB DUP2 GT ISZERO PUSH2 0x174B JUMPI PUSH1 0x0 DUP1 REVERT JUMPDEST PUSH2 0xF01 DUP5 DUP3 DUP6 ADD PUSH2 0x1684 JUMP JUMPDEST PUSH1 0x0 DUP1 PUSH1 0x40 DUP4 DUP6 SUB SLT ISZERO PUSH2 0x176A JUMPI PUSH1 0x0 DUP1 REVERT JUMPDEST DUP3 CALLDATALOAD PUSH1 0x1 PUSH1 0x1 PUSH1 0x40 SHL SUB DUP1 DUP3 GT ISZERO PUSH2 0x1781 JUMPI PUSH1 0x0 DUP1 REVERT JUMPDEST PUSH2 0x178D DUP7 DUP4 DUP8 ADD PUSH2 0x1684 JUMP JUMPDEST SWAP4 POP PUSH1 0x20 SWAP2 POP DUP2 DUP6 ADD CALLDATALOAD DUP2 DUP2 GT ISZERO PUSH2 0x17A4 JUMPI PUSH1 0x0 DUP1 REVERT JUMPDEST DUP6 ADD PUSH1 0x1F DUP2 ADD DUP8 SGT PUSH2 0x17B5 JUMPI PUSH1 0x0 DUP1 REVERT JUMPDEST DUP1 CALLDATALOAD DUP3 DUP2 GT ISZERO PUSH2 0x17C7 JUMPI PUSH2 0x17C7 PUSH2 0x1C6D JUMP JUMPDEST DUP1 PUSH1 0x5 SHL PUSH2 0x17D6 DUP6 DUP3 ADD PUSH2 0x1B3E JUMP JUMPDEST DUP3 DUP2 MSTORE DUP6 DUP2 ADD SWAP1 DUP5 DUP8 ADD DUP4 DUP7 ADD DUP9 ADD DUP13 LT ISZERO PUSH2 0x17F1 JUMPI PUSH1 0x0 DUP1 REVERT JUMPDEST PUSH1 0x0 SWAP4 POP DUP4 JUMPDEST DUP6 DUP2 LT ISZERO PUSH2 0x182E JUMPI DUP2 CALLDATALOAD DUP9 DUP2 GT ISZERO PUSH2 0x180D JUMPI DUP6 DUP7 REVERT JUMPDEST PUSH2 0x181B DUP15 DUP12 DUP4 DUP12 ADD ADD PUSH2 0x1684 JUMP JUMPDEST DUP6 MSTORE POP SWAP3 DUP9 ADD SWAP3 SWAP1 DUP9 ADD SWAP1 PUSH1 0x1 ADD PUSH2 0x17F7 JUMP JUMPDEST POP SWAP9 SWAP12 SWAP1 SWAP11 POP SWAP9 POP POP POP POP POP POP POP POP POP JUMP JUMPDEST PUSH1 0x0 DUP1 PUSH1 0x0 PUSH1 0x60 DUP5 DUP7 SUB SLT ISZERO PUSH2 0x1855 JUMPI PUSH1 0x0 DUP1 REVERT JUMPDEST DUP4 CALLDATALOAD PUSH1 0x1 PUSH1 0x1 PUSH1 0x40 SHL SUB DUP1 DUP3 GT ISZERO PUSH2 0x186C JUMPI PUSH1 0x0 DUP1 REVERT JUMPDEST PUSH2 0x1878 DUP8 DUP4 DUP9 ADD PUSH2 0x1684 JUMP JUMPDEST SWAP5 POP PUSH1 0x20 DUP7 ADD CALLDATALOAD SWAP2 POP DUP1 DUP3 GT ISZERO PUSH2 0x188E JUMPI PUSH1 0x0 DUP1 REVERT JUMPDEST POP PUSH2 0x189B DUP7 DUP3 DUP8 ADD PUSH2 0x1684 JUMP JUMPDEST SWAP3 POP POP PUSH1 0x40 DUP5 ADD CALLDATALOAD SWAP1 POP SWAP3 POP SWAP3 POP SWAP3 JUMP JUMPDEST PUSH1 0x0 DUP1 PUSH1 0x0 PUSH1 0x60 DUP5 DUP7 SUB SLT ISZERO PUSH2 0x18C1 JUMPI PUSH1 0x0 DUP1 REVERT JUMPDEST DUP4 CALLDATALOAD PUSH1 0x1 PUSH1 0x1 PUSH1 0x40 SHL SUB DUP1 DUP3 GT ISZERO PUSH2 0x18D8 JUMPI PUSH1 0x0 DUP1 REVERT JUMPDEST PUSH2 0x18E4 DUP8 DUP4 DUP9 ADD PUSH2 0x1684 JUMP JUMPDEST SWAP5 POP PUSH1 0x20 DUP7 ADD CALLDATALOAD SWAP4 POP PUSH1 0x40 DUP7 ADD CALLDATALOAD SWAP2 POP DUP1 DUP3 GT ISZERO PUSH2 0x1901 JUMPI PUSH1 0x0 DUP1 REVERT JUMPDEST POP PUSH2 0x190E DUP7 DUP3 DUP8 ADD PUSH2 0x1684 JUMP JUMPDEST SWAP2 POP POP SWAP3 POP SWAP3 POP SWAP3 JUMP JUMPDEST PUSH1 0x0 PUSH1 0x20 DUP3 DUP5 SUB SLT ISZERO PUSH2 0x192A JUMPI PUSH1 0x0 DUP1 REVERT JUMPDEST POP CALLDATALOAD SWAP2 SWAP1 POP JUMP JUMPDEST PUSH1 0x0 DUP1 PUSH1 0x40 DUP4 DUP6 SUB SLT ISZERO PUSH2 0x1944 JUMPI PUSH1 0x0 DUP1 REVERT JUMPDEST DUP3 CALLDATALOAD SWAP2 POP PUSH1 0x20 DUP4 ADD CALLDATALOAD DUP1 ISZERO ISZERO DUP2 EQ PUSH2 0x195B JUMPI PUSH1 0x0 DUP1 REVERT JUMPDEST DUP1 SWAP2 POP POP SWAP3 POP SWAP3 SWAP1 POP JUMP JUMPDEST PUSH1 0x0 DUP2 MLOAD DUP1 DUP5 MSTORE PUSH2 0x197E DUP2 PUSH1 0x20 DUP7 ADD PUSH1 0x20 DUP7 ADD PUSH2 0x1BBF JUMP JUMPDEST PUSH1 0x1F ADD PUSH1 0x1F NOT AND SWAP3 SWAP1 SWAP3 ADD PUSH1 0x20 ADD SWAP3 SWAP2 POP POP JUMP JUMPDEST PUSH1 0x0 DUP3 MLOAD PUSH2 0x19A4 DUP2 DUP5 PUSH1 0x20 DUP8 ADD PUSH2 0x1BBF JUMP JUMPDEST SWAP2 SWAP1 SWAP2 ADD SWAP3 SWAP2 POP POP JUMP JUMPDEST PUSH1 0x0 DUP1 DUP4 SLOAD DUP2 PUSH1 0x1 DUP3 DUP2 SHR SWAP2 POP DUP1 DUP4 AND DUP1 PUSH2 0x19CA JUMPI PUSH1 0x7F DUP4 AND SWAP3 POP JUMPDEST PUSH1 0x20 DUP1 DUP5 LT DUP3 EQ ISZERO PUSH2 0x19EA JUMPI PUSH4 0x4E487B71 PUSH1 0xE0 SHL DUP7 MSTORE PUSH1 0x22 PUSH1 0x4 MSTORE PUSH1 0x24 DUP7 REVERT JUMPDEST DUP2 DUP1 ISZERO PUSH2 0x19FE JUMPI PUSH1 0x1 DUP2 EQ PUSH2 0x1A0F JUMPI PUSH2 0x1A3C JUMP JUMPDEST PUSH1 0xFF NOT DUP7 AND DUP10 MSTORE DUP5 DUP10 ADD SWAP7 POP PUSH2 0x1A3C JUMP JUMPDEST PUSH1 0x0 DUP11 DUP2 MSTORE PUSH1 0x20 SWAP1 KECCAK256 PUSH1 0x0 JUMPDEST DUP7 DUP2 LT ISZERO PUSH2 0x1A34 JUMPI DUP2 SLOAD DUP12 DUP3 ADD MSTORE SWAP1 DUP6 ADD SWAP1 DUP4 ADD PUSH2 0x1A1B JUMP JUMPDEST POP POP DUP5 DUP10 ADD SWAP7 POP JUMPDEST POP SWAP5 SWAP9 SWAP8 POP POP POP POP POP POP POP POP JUMP JUMPDEST PUSH1 0x1 PUSH1 0x1 PUSH1 0xA0 SHL SUB DUP5 AND DUP2 MSTORE PUSH1 0x60 PUSH1 0x20 DUP3 ADD DUP2 SWAP1 MSTORE PUSH1 0x0 SWAP1 PUSH2 0x1A6E SWAP1 DUP4 ADD DUP6 PUSH2 0x1966 JUMP JUMPDEST SWAP1 POP DUP3 ISZERO ISZERO PUSH1 0x40 DUP4 ADD MSTORE SWAP5 SWAP4 POP POP POP POP JUMP JUMPDEST PUSH1 0x1 PUSH1 0x1 PUSH1 0xA0 SHL SUB DUP6 AND DUP2 MSTORE PUSH1 0x80 PUSH1 0x20 DUP3 ADD DUP2 SWAP1 MSTORE PUSH1 0x0 SWAP1 PUSH2 0x1AA4 SWAP1 DUP4 ADD DUP7 PUSH2 0x1966 JUMP JUMPDEST PUSH1 0x40 DUP4 ADD SWAP5 SWAP1 SWAP5 MSTORE POP PUSH1 0x60 ADD MSTORE SWAP3 SWAP2 POP POP JUMP JUMPDEST PUSH1 0x0 PUSH1 0x20 DUP1 DUP4 ADD DUP2 DUP5 MSTORE DUP1 DUP6 MLOAD DUP1 DUP4 MSTORE PUSH1 0x40 DUP7 ADD SWAP2 POP PUSH1 0x40 DUP2 PUSH1 0x5 SHL DUP8 ADD ADD SWAP3 POP DUP4 DUP8 ADD PUSH1 0x0 JUMPDEST DUP3 DUP2 LT ISZERO PUSH2 0x1B0C JUMPI PUSH1 0x3F NOT DUP9 DUP7 SUB ADD DUP5 MSTORE PUSH2 0x1AFA DUP6 DUP4 MLOAD PUSH2 0x1966 JUMP JUMPDEST SWAP5 POP SWAP3 DUP6 ADD SWAP3 SWAP1 DUP6 ADD SWAP1 PUSH1 0x1 ADD PUSH2 0x1ADE JUMP JUMPDEST POP SWAP3 SWAP8 SWAP7 POP POP POP POP POP POP POP JUMP JUMPDEST PUSH1 0x60 DUP2 MSTORE PUSH1 0x0 PUSH2 0x1B2C PUSH1 0x60 DUP4 ADD DUP7 PUSH2 0x1966 JUMP JUMPDEST PUSH1 0x20 DUP4 ADD SWAP5 SWAP1 SWAP5 MSTORE POP PUSH1 0x40 ADD MSTORE SWAP2 SWAP1 POP JUMP JUMPDEST PUSH1 0x40 MLOAD PUSH1 0x1F DUP3 ADD PUSH1 0x1F NOT AND DUP2 ADD PUSH1 0x1 PUSH1 0x1 PUSH1 0x40 SHL SUB DUP2 GT DUP3 DUP3 LT OR ISZERO PUSH2 0x1B66 JUMPI PUSH2 0x1B66 PUSH2 0x1C6D JUMP JUMPDEST PUSH1 0x40 MSTORE SWAP2 SWAP1 POP JUMP JUMPDEST PUSH1 0x0 DUP3 NOT DUP3 GT ISZERO PUSH2 0x1B81 JUMPI PUSH2 0x1B81 PUSH2 0x1C41 JUMP JUMPDEST POP ADD SWAP1 JUMP JUMPDEST PUSH1 0x0 DUP3 PUSH2 0x1BA3 JUMPI PUSH4 0x4E487B71 PUSH1 0xE0 SHL PUSH1 0x0 MSTORE PUSH1 0x12 PUSH1 0x4 MSTORE PUSH1 0x24 PUSH1 0x0 REVERT JUMPDEST POP DIV SWAP1 JUMP JUMPDEST PUSH1 0x0 DUP3 DUP3 LT ISZERO PUSH2 0x1BBA JUMPI PUSH2 0x1BBA PUSH2 0x1C41 JUMP JUMPDEST POP SUB SWAP1 JUMP JUMPDEST PUSH1 0x0 JUMPDEST DUP4 DUP2 LT ISZERO PUSH2 0x1BDA JUMPI DUP2 DUP2 ADD MLOAD DUP4 DUP3 ADD MSTORE PUSH1 0x20 ADD PUSH2 0x1BC2 JUMP JUMPDEST DUP4 DUP2 GT ISZERO PUSH2 0x1363 JUMPI POP POP PUSH1 0x0 SWAP2 ADD MSTORE JUMP JUMPDEST PUSH1 0x1 DUP2 DUP2 SHR SWAP1 DUP3 AND DUP1 PUSH2 0x1BFF JUMPI PUSH1 0x7F DUP3 AND SWAP2 POP JUMPDEST PUSH1 0x20 DUP3 LT DUP2 EQ ISZERO PUSH2 0x1C20 JUMPI PUSH4 0x4E487B71 PUSH1 0xE0 SHL PUSH1 0x0 MSTORE PUSH1 0x22 PUSH1 0x4 MSTORE PUSH1 0x24 PUSH1 0x0 REVERT JUMPDEST POP SWAP2 SWAP1 POP JUMP JUMPDEST PUSH1 0x0 PUSH1 0x0 NOT DUP3 EQ ISZERO PUSH2 0x1C3A JUMPI PUSH2 0x1C3A PUSH2 0x1C41 JUMP JUMPDEST POP PUSH1 0x1 ADD SWAP1 JUMP JUMPDEST PUSH4 0x4E487B71 PUSH1 0xE0 SHL PUSH1 0x0 MSTORE PUSH1 0x11 PUSH1 0x4 MSTORE PUSH1 0x24 PUSH1 0x0 REVERT JUMPDEST PUSH4 0x4E487B71 PUSH1 0xE0 SHL PUSH1 0x0 MSTORE PUSH1 0x32 PUSH1 0x4 MSTORE PUSH1 0x24 PUSH1 0x0 REVERT JUMPDEST PUSH4 0x4E487B71 PUSH1 0xE0 SHL PUSH1 0x0 MSTORE PUSH1 0x41 PUSH1 0x4 MSTORE PUSH1 0x24 PUSH1 0x0 REVERT INVALID LOG2 PUSH5 0x6970667358 0x22 SLT KECCAK256 PUSH14 0xC4AD5C8A5FDD37F6FFDE00976767 EQ SWAP15 0x22 SUB 0x2D 0xE2 0xE2 PUSH28 0xBB164FD9D0E986A52164736F6C63430008070033405787FA12A823E0 CALLCODE 0xB7 PUSH4 0x1CC41B3B 0xA8 DUP3 DUP12 CALLER 0x21 0xCA DUP2 GT GT STATICCALL PUSH22 0xCD3AA3BB5ACE58F8E73C330DAFFE64653449EB9A999C GT PUSH3 0x911D51 0x29 0xDD DUP2 SWAP4 0xC7 0x23 RETURNDATASIZE CHAINID 0xAD 0xE2 0xD5 BYTE LT OR LOG4 CALLDATACOPY DUP9 0x1F 0xD8 INVALID 0xE8 0xAB SGT SSTORE DUP7 0xD8 DUP7 SWAP10 0x5D 0xF9 0x28 PUSH12 0xD91E5D3C250F79B2327F02BC PUSH8 0x542BFA83C3E43FAA SHR 0xE4 SWAP14 0xAA DUP4 0xC7 0xBB MOD LT 0xDF SHR DUP16 PUSH9 0x99B8FBB170F5C183EE "
				},
				"gasEstimates": {
					"creation": {
						"codeDepositCost": "1470600",
						"executionCost": "infinite",
						"totalCost": "infinite"
					},
					"external": {
						"MarriageRegistration(uint256,bool)": "infinite",
						"acceptPurchase(uint256,bool)": "infinite",
						"acceptReturn(uint256,bool)": "infinite",
						"addProductShop(string,uint256,string)": "infinite",
						"getProductList()": "infinite",
						"getShopList()": "infinite",
						"getStoryRating(string)": "infinite",
						"get_address(string)": "infinite",
						"leaveComment(string,string[])": "infinite",
						"leaveFeedback(string,string,uint256)": "infinite",
						"productMarriageRegistration(string)": "infinite",
						"productPurchases(string)": "infinite",
						"productReturn(string)": "infinite",
						"shopLists(string)": "infinite",
						"structMarriageRegistrations(uint256)": "infinite",
						"structProducts(string)": "infinite",
						"structStatusPurchases(uint256)": "infinite",
						"structStatusReturns(uint256)": "infinite",
						"structUserLogins(string)": "infinite",
						"structUsers(address)": "infinite"
					}
				},
				"methodIdentifiers": {
					"MarriageRegistration(uint256,bool)": "f69483c1",
					"acceptPurchase(uint256,bool)": "0c72b1ec",
					"acceptReturn(uint256,bool)": "2ccdef7c",
					"addProductShop(string,uint256,string)": "6c05dd1d",
					"getProductList()": "34d2c0ad",
					"getShopList()": "c178b9af",
					"getStoryRating(string)": "a985036d",
					"get_address(string)": "6ba44d3c",
					"leaveComment(string,string[])": "29e795f3",
					"leaveFeedback(string,string,uint256)": "cc21c188",
					"productMarriageRegistration(string)": "2d4673e3",
					"productPurchases(string)": "146dc6ed",
					"productReturn(string)": "bbd43363",
					"shopLists(string)": "c4957fa0",
					"structMarriageRegistrations(uint256)": "7ddb273d",
					"structProducts(string)": "d68cf8c1",
					"structStatusPurchases(uint256)": "dce39151",
					"structStatusReturns(uint256)": "a9f9482b",
					"structUserLogins(string)": "1bbe970a",
					"structUsers(address)": "961865f0"
				}
			},
			"userdoc": {
				"kind": "user",
				"methods": {},
				"version": 1
			}
		}
	}
}