{
	"Documents/GitHub/Store-system-with-feedback/main.sol": {
		"coursepaper": {
			"abi": [
				{
					"inputs": [],
					"stateMutability": "nonpayable",
					"type": "constructor"
				},
				{
					"inputs": [
						{
							"internalType": "uint256",
							"name": "idMarriageRegistration",
							"type": "uint256"
						},
						{
							"internalType": "bool",
							"name": "confirmation",
							"type": "bool"
						}
					],
					"name": "MarriageRegistration",
					"outputs": [],
					"stateMutability": "nonpayable",
					"type": "function"
				},
				{
					"inputs": [
						{
							"internalType": "uint256",
							"name": "idPurchase",
							"type": "uint256"
						},
						{
							"internalType": "bool",
							"name": "confirmation",
							"type": "bool"
						}
					],
					"name": "acceptPurchase",
					"outputs": [],
					"stateMutability": "nonpayable",
					"type": "function"
				},
				{
					"inputs": [
						{
							"internalType": "uint256",
							"name": "idReturn",
							"type": "uint256"
						},
						{
							"internalType": "bool",
							"name": "confirmation",
							"type": "bool"
						}
					],
					"name": "acceptReturn",
					"outputs": [],
					"stateMutability": "nonpayable",
					"type": "function"
				},
				{
					"inputs": [
						{
							"internalType": "string",
							"name": "title",
							"type": "string"
						},
						{
							"internalType": "uint256",
							"name": "price",
							"type": "uint256"
						},
						{
							"internalType": "string",
							"name": "description",
							"type": "string"
						}
					],
					"name": "addProductShop",
					"outputs": [],
					"stateMutability": "nonpayable",
					"type": "function"
				},
				{
					"inputs": [
						{
							"internalType": "address",
							"name": "addr",
							"type": "address"
						},
						{
							"internalType": "string",
							"name": "login",
							"type": "string"
						},
						{
							"internalType": "bytes32",
							"name": "password",
							"type": "bytes32"
						}
					],
					"name": "create_user",
					"outputs": [],
					"stateMutability": "nonpayable",
					"type": "function"
				},
				{
					"inputs": [],
					"name": "getProductList",
					"outputs": [
						{
							"internalType": "string[]",
							"name": "",
							"type": "string[]"
						}
					],
					"stateMutability": "view",
					"type": "function"
				},
				{
					"inputs": [],
					"name": "getShopList",
					"outputs": [
						{
							"internalType": "string[]",
							"name": "",
							"type": "string[]"
						}
					],
					"stateMutability": "view",
					"type": "function"
				},
				{
					"inputs": [
						{
							"internalType": "string",
							"name": "shopName",
							"type": "string"
						}
					],
					"name": "getStoryRating",
					"outputs": [
						{
							"internalType": "uint256",
							"name": "",
							"type": "uint256"
						}
					],
					"stateMutability": "view",
					"type": "function"
				},
				{
					"inputs": [
						{
							"internalType": "string",
							"name": "login",
							"type": "string"
						}
					],
					"name": "get_address",
					"outputs": [
						{
							"internalType": "address",
							"name": "",
							"type": "address"
						}
					],
					"stateMutability": "view",
					"type": "function"
				},
				{
					"inputs": [
						{
							"internalType": "string",
							"name": "password",
							"type": "string"
						}
					],
					"name": "get_hash",
					"outputs": [
						{
							"internalType": "bytes32",
							"name": "",
							"type": "bytes32"
						}
					],
					"stateMutability": "pure",
					"type": "function"
				},
				{
					"inputs": [
						{
							"internalType": "string",
							"name": "userName",
							"type": "string"
						},
						{
							"internalType": "string[]",
							"name": "comment",
							"type": "string[]"
						}
					],
					"name": "leaveComment",
					"outputs": [],
					"stateMutability": "nonpayable",
					"type": "function"
				},
				{
					"inputs": [
						{
							"internalType": "string",
							"name": "shop",
							"type": "string"
						},
						{
							"internalType": "string",
							"name": "feedback",
							"type": "string"
						},
						{
							"internalType": "uint256",
							"name": "rating",
							"type": "uint256"
						}
					],
					"name": "leaveFeedback",
					"outputs": [],
					"stateMutability": "nonpayable",
					"type": "function"
				},
				{
					"inputs": [
						{
							"internalType": "string",
							"name": "login",
							"type": "string"
						},
						{
							"internalType": "bytes32",
							"name": "password",
							"type": "bytes32"
						}
					],
					"name": "login_user",
					"outputs": [],
					"stateMutability": "nonpayable",
					"type": "function"
				},
				{
					"inputs": [
						{
							"internalType": "string",
							"name": "titleProduct",
							"type": "string"
						}
					],
					"name": "productMarriageRegistration",
					"outputs": [],
					"stateMutability": "nonpayable",
					"type": "function"
				},
				{
					"inputs": [
						{
							"internalType": "string",
							"name": "titleProduct",
							"type": "string"
						}
					],
					"name": "productPurchases",
					"outputs": [],
					"stateMutability": "nonpayable",
					"type": "function"
				},
				{
					"inputs": [
						{
							"internalType": "string",
							"name": "titleProduct",
							"type": "string"
						}
					],
					"name": "productReturn",
					"outputs": [],
					"stateMutability": "nonpayable",
					"type": "function"
				},
				{
					"inputs": [
						{
							"internalType": "string",
							"name": "",
							"type": "string"
						}
					],
					"name": "shopLists",
					"outputs": [
						{
							"internalType": "address",
							"name": "",
							"type": "address"
						}
					],
					"stateMutability": "view",
					"type": "function"
				},
				{
					"inputs": [
						{
							"internalType": "uint256",
							"name": "",
							"type": "uint256"
						}
					],
					"name": "structMarriageRegistrations",
					"outputs": [
						{
							"internalType": "address",
							"name": "userLogin",
							"type": "address"
						},
						{
							"internalType": "string",
							"name": "titleProduct",
							"type": "string"
						},
						{
							"internalType": "bool",
							"name": "status",
							"type": "bool"
						}
					],
					"stateMutability": "view",
					"type": "function"
				},
				{
					"inputs": [
						{
							"internalType": "string",
							"name": "",
							"type": "string"
						}
					],
					"name": "structProducts",
					"outputs": [
						{
							"internalType": "address",
							"name": "shop",
							"type": "address"
						},
						{
							"internalType": "string",
							"name": "description",
							"type": "string"
						},
						{
							"internalType": "uint256",
							"name": "price",
							"type": "uint256"
						},
						{
							"internalType": "uint256",
							"name": "id",
							"type": "uint256"
						}
					],
					"stateMutability": "view",
					"type": "function"
				},
				{
					"inputs": [
						{
							"internalType": "uint256",
							"name": "",
							"type": "uint256"
						}
					],
					"name": "structStatusPurchases",
					"outputs": [
						{
							"internalType": "address",
							"name": "userLogin",
							"type": "address"
						},
						{
							"internalType": "string",
							"name": "titleProduct",
							"type": "string"
						},
						{
							"internalType": "bool",
							"name": "status",
							"type": "bool"
						}
					],
					"stateMutability": "view",
					"type": "function"
				},
				{
					"inputs": [
						{
							"internalType": "uint256",
							"name": "",
							"type": "uint256"
						}
					],
					"name": "structStatusReturns",
					"outputs": [
						{
							"internalType": "address",
							"name": "userLogin",
							"type": "address"
						},
						{
							"internalType": "string",
							"name": "titleProduct",
							"type": "string"
						},
						{
							"internalType": "bool",
							"name": "status",
							"type": "bool"
						}
					],
					"stateMutability": "view",
					"type": "function"
				},
				{
					"inputs": [
						{
							"internalType": "string",
							"name": "",
							"type": "string"
						}
					],
					"name": "structUserLogins",
					"outputs": [
						{
							"internalType": "address",
							"name": "",
							"type": "address"
						}
					],
					"stateMutability": "view",
					"type": "function"
				},
				{
					"inputs": [
						{
							"internalType": "address",
							"name": "",
							"type": "address"
						}
					],
					"name": "structUsers",
					"outputs": [
						{
							"internalType": "string",
							"name": "userName",
							"type": "string"
						},
						{
							"internalType": "bytes32",
							"name": "password",
							"type": "bytes32"
						},
						{
							"internalType": "uint256",
							"name": "ballance",
							"type": "uint256"
						},
						{
							"internalType": "uint256",
							"name": "role",
							"type": "uint256"
						},
						{
							"internalType": "bool",
							"name": "logged",
							"type": "bool"
						}
					],
					"stateMutability": "view",
					"type": "function"
				}
			],
			"devdoc": {
				"kind": "dev",
				"methods": {},
				"version": 1
			},
			"evm": {
				"assembly": "    /* \"Documents/GitHub/Store-system-with-feedback/main.sol\":74:9490  contract coursepaper {\r... */\n  mstore(0x40, 0x80)\n    /* \"Documents/GitHub/Store-system-with-feedback/main.sol\":3133:3134  0 */\n  0x00\n    /* \"Documents/GitHub/Store-system-with-feedback/main.sol\":3098:3134  uint256 addProductShop_idProduct = 0 */\n  0x0d\n  sstore\n    /* \"Documents/GitHub/Store-system-with-feedback/main.sol\":2249:3036  constructor() public {\r... */\n  callvalue\n  dup1\n  iszero\n  tag_1\n  jumpi\n  0x00\n  dup1\n  revert\ntag_1:\n  pop\n    /* \"Documents/GitHub/Store-system-with-feedback/main.sol\":2352:2409  structShop(\"Food\", get_hash(\"1\"), \"1\", \"Moscow\", 1000, 0) */\n  mload(0x40)\n  dup1\n  0xc0\n  add\n  0x40\n  mstore\n  dup1\n  mload(0x40)\n  dup1\n  0x40\n  add\n  0x40\n  mstore\n  dup1\n  0x04\n  dup2\n  mstore\n  0x20\n  add\n  shl(0xe2, 0x119bdbd9)\n  dup2\n  mstore\n  pop\n  dup2\n  mstore\n  0x20\n  add\n    /* \"Documents/GitHub/Store-system-with-feedback/main.sol\":2371:2384  get_hash(\"1\") */\n  tag_4\n  mload(0x40)\n  dup1\n  0x40\n  add\n  0x40\n  mstore\n  dup1\n  0x01\n  dup2\n  mstore\n  0x20\n  add\n  shl(0xf8, 0x31)\n  dup2\n  mstore\n  pop\n    /* \"Documents/GitHub/Store-system-with-feedback/main.sol\":2371:2379  get_hash */\n  shl(0x20, tag_5)\n    /* \"Documents/GitHub/Store-system-with-feedback/main.sol\":2371:2384  get_hash(\"1\") */\n  0x20\n  shr\n  jump\t// in\ntag_4:\n    /* \"Documents/GitHub/Store-system-with-feedback/main.sol\":2352:2409  structShop(\"Food\", get_hash(\"1\"), \"1\", \"Moscow\", 1000, 0) */\n  dup2\n  mstore\n  0x40\n  dup1\n  mload\n  dup1\n  dup3\n  add\n  dup3\n  mstore\n  0x01\n  dup2\n  mstore\n  shl(0xf8, 0x31)\n  0x20\n  dup3\n  dup2\n  add\n  swap2\n  swap1\n  swap2\n  mstore\n  dup1\n  dup5\n  add\n  swap2\n  swap1\n  swap2\n  mstore\n  dup2\n  mload\n  dup1\n  dup4\n  add\n  dup4\n  mstore\n  0x06\n  dup2\n  mstore\n  shl(0xd0, 0x4d6f73636f77)\n  dup2\n  dup4\n  add\n  mstore\n  swap2\n  dup4\n  add\n  swap2\n  swap1\n  swap2\n  mstore\n    /* \"Documents/GitHub/Store-system-with-feedback/main.sol\":2401:2405  1000 */\n  0x03e8\n    /* \"Documents/GitHub/Store-system-with-feedback/main.sol\":2352:2409  structShop(\"Food\", get_hash(\"1\"), \"1\", \"Moscow\", 1000, 0) */\n  0x60\n  dup4\n  add\n  mstore\n  0x00\n  0x80\n  swap1\n  swap3\n  add\n  dup3\n  swap1\n  mstore\n    /* \"Documents/GitHub/Store-system-with-feedback/main.sol\":2306:2348  0x22140e5EEE5a0341a107bd6A65ee0F5BB72DEb90 */\n  0x22140e5eee5a0341a107bd6a65ee0f5bb72deb90\n    /* \"Documents/GitHub/Store-system-with-feedback/main.sol\":2300:2349  shops[0x22140e5EEE5a0341a107bd6A65ee0F5BB72DEb90] */\n  dup3\n  mstore\n  swap1\n  dup2\n  mstore\n    /* \"Documents/GitHub/Store-system-with-feedback/main.sol\":2300:2409  shops[0x22140e5EEE5a0341a107bd6A65ee0F5BB72DEb90] = structShop(\"Food\", get_hash(\"1\"), \"1\", \"Moscow\", 1000, 0) */\n  dup2\n  mload\n  dup1\n  mload\n  0x00\n  dup1\n  mload\n  0x20\n  data_8993e1cd58841905be2f38dff5727bfce5465d113cd407e0076bae0c6cf830da\n  dup4\n  codecopy\n  dup2\n  mload\n  swap2\n  mstore\n    /* \"Documents/GitHub/Store-system-with-feedback/main.sol\":2300:2349  shops[0x22140e5EEE5a0341a107bd6A65ee0F5BB72DEb90] */\n  swap3\n    /* \"Documents/GitHub/Store-system-with-feedback/main.sol\":2300:2409  shops[0x22140e5EEE5a0341a107bd6A65ee0F5BB72DEb90] = structShop(\"Food\", get_hash(\"1\"), \"1\", \"Moscow\", 1000, 0) */\n  tag_6\n  swap3\n    /* \"Documents/GitHub/Store-system-with-feedback/main.sol\":2300:2349  shops[0x22140e5EEE5a0341a107bd6A65ee0F5BB72DEb90] */\n  dup5\n  swap3\n    /* \"Documents/GitHub/Store-system-with-feedback/main.sol\":2300:2409  shops[0x22140e5EEE5a0341a107bd6A65ee0F5BB72DEb90] = structShop(\"Food\", get_hash(\"1\"), \"1\", \"Moscow\", 1000, 0) */\n  swap2\n  add\n  swap1\n  tag_7\n  jump\t// in\ntag_6:\n  pop\n  0x20\n  dup3\n  dup2\n  add\n  mload\n  0x01\n  dup4\n  add\n  sstore\n  0x40\n  dup4\n  add\n  mload\n  dup1\n  mload\n  tag_8\n  swap3\n  0x02\n  dup6\n  add\n  swap3\n  add\n  swap1\n  tag_7\n  jump\t// in\ntag_8:\n  pop\n  0x60\n  dup3\n  add\n  mload\n  dup1\n  mload\n  tag_9\n  swap2\n  0x03\n  dup5\n  add\n  swap2\n  0x20\n  swap1\n  swap2\n  add\n  swap1\n  tag_7\n  jump\t// in\ntag_9:\n  pop\n  0x80\n  dup3\n  add\n  mload\n  0x04\n  dup3\n  add\n  sstore\n  0xa0\n  swap1\n  swap2\n  add\n  mload\n  0x05\n  swap1\n  swap2\n  add\n  sstore\n  0x00\n    /* \"Documents/GitHub/Store-system-with-feedback/main.sol\":2434:2483  shops[0x22140e5EEE5a0341a107bd6A65ee0F5BB72DEb90] */\n  0x20\n  dup2\n  swap1\n  mstore\n    /* \"Documents/GitHub/Store-system-with-feedback/main.sol\":2420:2428  shopList */\n  0x02\n    /* \"Documents/GitHub/Store-system-with-feedback/main.sol\":2420:2489  shopList.push(shops[0x22140e5EEE5a0341a107bd6A65ee0F5BB72DEb90].name) */\n  dup1\n  sload\n  0x01\n  dup2\n  add\n  dup3\n  sstore\n  swap2\n  mstore\n  0x00\n  dup1\n  mload\n  0x20\n  data_8993e1cd58841905be2f38dff5727bfce5465d113cd407e0076bae0c6cf830da\n  dup4\n  codecopy\n  dup2\n  mload\n  swap2\n  mstore\n  dup1\n  sload\n  0x00\n  dup1\n  mload\n  0x20\n  data_1ab0c6948a275349ae45a06aad66a8bd65ac18074615d53676c09b67809099e0\n  dup4\n  codecopy\n  dup2\n  mload\n  swap2\n  mstore\n  swap1\n  swap3\n  add\n  swap2\n  tag_11\n  swap1\n  tag_12\n  jump\t// in\ntag_11:\n  tag_13\n  swap3\n  swap2\n  swap1\n  tag_14\n  jump\t// in\ntag_13:\n  pop\n    /* \"Documents/GitHub/Store-system-with-feedback/main.sol\":2552:2616  structShop(\"Clothes\", get_hash(\"1\"), \"2\", \"Petersburg\", 1000, 0) */\n  mload(0x40)\n  dup1\n  0xc0\n  add\n  0x40\n  mstore\n  dup1\n  mload(0x40)\n  dup1\n  0x40\n  add\n  0x40\n  mstore\n  dup1\n  0x07\n  dup2\n  mstore\n  0x20\n  add\n  shl(0xc8, 0x436c6f74686573)\n  dup2\n  mstore\n  pop\n  dup2\n  mstore\n  0x20\n  add\n    /* \"Documents/GitHub/Store-system-with-feedback/main.sol\":2574:2587  get_hash(\"1\") */\n  tag_15\n  mload(0x40)\n  dup1\n  0x40\n  add\n  0x40\n  mstore\n  dup1\n  0x01\n  dup2\n  mstore\n  0x20\n  add\n  shl(0xf8, 0x31)\n  dup2\n  mstore\n  pop\n    /* \"Documents/GitHub/Store-system-with-feedback/main.sol\":2574:2582  get_hash */\n  shl(0x20, tag_5)\n    /* \"Documents/GitHub/Store-system-with-feedback/main.sol\":2574:2587  get_hash(\"1\") */\n  0x20\n  shr\n  jump\t// in\ntag_15:\n    /* \"Documents/GitHub/Store-system-with-feedback/main.sol\":2552:2616  structShop(\"Clothes\", get_hash(\"1\"), \"2\", \"Petersburg\", 1000, 0) */\n  dup2\n  mstore\n  0x40\n  dup1\n  mload\n  dup1\n  dup3\n  add\n  dup3\n  mstore\n  0x01\n  dup2\n  mstore\n  shl(0xf9, 0x19)\n  0x20\n  dup3\n  dup2\n  add\n  swap2\n  swap1\n  swap2\n  mstore\n  dup1\n  dup5\n  add\n  swap2\n  swap1\n  swap2\n  mstore\n  dup2\n  mload\n  dup1\n  dup4\n  add\n  dup4\n  mstore\n  0x0a\n  dup2\n  mstore\n  shl(0xb0, 0x50657465727362757267)\n  dup2\n  dup4\n  add\n  mstore\n  swap2\n  dup4\n  add\n  swap2\n  swap1\n  swap2\n  mstore\n    /* \"Documents/GitHub/Store-system-with-feedback/main.sol\":2608:2612  1000 */\n  0x03e8\n    /* \"Documents/GitHub/Store-system-with-feedback/main.sol\":2552:2616  structShop(\"Clothes\", get_hash(\"1\"), \"2\", \"Petersburg\", 1000, 0) */\n  0x60\n  dup4\n  add\n  mstore\n  0x00\n  0x80\n  swap1\n  swap3\n  add\n  dup3\n  swap1\n  mstore\n    /* \"Documents/GitHub/Store-system-with-feedback/main.sol\":2506:2548  0x32BBfd99DFCF2a15c1D278a19856683930A8be0B */\n  0x32bbfd99dfcf2a15c1d278a19856683930a8be0b\n    /* \"Documents/GitHub/Store-system-with-feedback/main.sol\":2500:2549  shops[0x32BBfd99DFCF2a15c1D278a19856683930A8be0B] */\n  dup3\n  mstore\n  swap1\n  dup2\n  mstore\n    /* \"Documents/GitHub/Store-system-with-feedback/main.sol\":2500:2616  shops[0x32BBfd99DFCF2a15c1D278a19856683930A8be0B] = structShop(\"Clothes\", get_hash(\"1\"), \"2\", \"Petersburg\", 1000, 0) */\n  dup2\n  mload\n  dup1\n  mload\n  0x00\n  dup1\n  mload\n  0x20\n  data_f4d17a50b75ba59f6ac3e704dcdf75304eb544678a920cb7cfcd9a84a7945e49\n  dup4\n  codecopy\n  dup2\n  mload\n  swap2\n  mstore\n    /* \"Documents/GitHub/Store-system-with-feedback/main.sol\":2500:2549  shops[0x32BBfd99DFCF2a15c1D278a19856683930A8be0B] */\n  swap3\n    /* \"Documents/GitHub/Store-system-with-feedback/main.sol\":2500:2616  shops[0x32BBfd99DFCF2a15c1D278a19856683930A8be0B] = structShop(\"Clothes\", get_hash(\"1\"), \"2\", \"Petersburg\", 1000, 0) */\n  tag_16\n  swap3\n    /* \"Documents/GitHub/Store-system-with-feedback/main.sol\":2500:2549  shops[0x32BBfd99DFCF2a15c1D278a19856683930A8be0B] */\n  dup5\n  swap3\n    /* \"Documents/GitHub/Store-system-with-feedback/main.sol\":2500:2616  shops[0x32BBfd99DFCF2a15c1D278a19856683930A8be0B] = structShop(\"Clothes\", get_hash(\"1\"), \"2\", \"Petersburg\", 1000, 0) */\n  swap2\n  add\n  swap1\n  tag_7\n  jump\t// in\ntag_16:\n  pop\n  0x20\n  dup3\n  dup2\n  add\n  mload\n  0x01\n  dup4\n  add\n  sstore\n  0x40\n  dup4\n  add\n  mload\n  dup1\n  mload\n  tag_17\n  swap3\n  0x02\n  dup6\n  add\n  swap3\n  add\n  swap1\n  tag_7\n  jump\t// in\ntag_17:\n  pop\n  0x60\n  dup3\n  add\n  mload\n  dup1\n  mload\n  tag_18\n  swap2\n  0x03\n  dup5\n  add\n  swap2\n  0x20\n  swap1\n  swap2\n  add\n  swap1\n  tag_7\n  jump\t// in\ntag_18:\n  pop\n  0x80\n  dup3\n  add\n  mload\n  0x04\n  dup3\n  add\n  sstore\n  0xa0\n  swap1\n  swap2\n  add\n  mload\n  0x05\n  swap1\n  swap2\n  add\n  sstore\n  0x00\n    /* \"Documents/GitHub/Store-system-with-feedback/main.sol\":2641:2690  shops[0x32BBfd99DFCF2a15c1D278a19856683930A8be0B] */\n  0x20\n  dup2\n  swap1\n  mstore\n    /* \"Documents/GitHub/Store-system-with-feedback/main.sol\":2627:2635  shopList */\n  0x02\n    /* \"Documents/GitHub/Store-system-with-feedback/main.sol\":2627:2696  shopList.push(shops[0x32BBfd99DFCF2a15c1D278a19856683930A8be0B].name) */\n  dup1\n  sload\n  0x01\n  dup2\n  add\n  dup3\n  sstore\n  swap2\n  mstore\n  0x00\n  dup1\n  mload\n  0x20\n  data_f4d17a50b75ba59f6ac3e704dcdf75304eb544678a920cb7cfcd9a84a7945e49\n  dup4\n  codecopy\n  dup2\n  mload\n  swap2\n  mstore\n  dup1\n  sload\n  0x00\n  dup1\n  mload\n  0x20\n  data_1ab0c6948a275349ae45a06aad66a8bd65ac18074615d53676c09b67809099e0\n  dup4\n  codecopy\n  dup2\n  mload\n  swap2\n  mstore\n  swap1\n  swap3\n  add\n  swap2\n  tag_20\n  swap1\n  tag_12\n  jump\t// in\ntag_20:\n  tag_21\n  swap3\n  swap2\n  swap1\n  tag_14\n  jump\t// in\ntag_21:\n  pop\n    /* \"Documents/GitHub/Store-system-with-feedback/main.sol\":2752:2794  0xC152aD455B16d865F2344140dEc6Ea95cb361e8A */\n  0xc152ad455b16d865f2344140dec6ea95cb361e8a\n    /* \"Documents/GitHub/Store-system-with-feedback/main.sol\":2725:2741  structUserLogins */\n  0x05\n    /* \"Documents/GitHub/Store-system-with-feedback/main.sol\":2725:2749  structUserLogins[\"Peta\"] */\n  mload(0x40)\n  tag_22\n  swap1\n  shl(0xe0, 0x50657461)\n    /* \"#utility.yul\":649:668   */\n  dup2\n  mstore\n    /* \"#utility.yul\":693:694   */\n  0x04\n    /* \"#utility.yul\":684:695   */\n  add\n  swap1\n    /* \"#utility.yul\":447:701   */\n  jump\n    /* \"Documents/GitHub/Store-system-with-feedback/main.sol\":2725:2749  structUserLogins[\"Peta\"] */\ntag_22:\n  swap1\n  dup2\n  mstore\n  0x40\n  dup1\n  mload\n  0x20\n  swap3\n  dup2\n  swap1\n  sub\n  dup4\n  add\n  dup2\n  keccak256\n    /* \"Documents/GitHub/Store-system-with-feedback/main.sol\":2725:2794  structUserLogins[\"Peta\"] = 0xC152aD455B16d865F2344140dEc6Ea95cb361e8A */\n  dup1\n  sload\n  not(sub(shl(0xa0, 0x01), 0x01))\n  and\n  sub(shl(0xa0, 0x01), 0x01)\n  swap6\n  swap1\n  swap6\n  and\n  swap5\n  swap1\n  swap5\n  or\n  swap1\n  swap4\n  sstore\n    /* \"Documents/GitHub/Store-system-with-feedback/main.sol\":2863:2913  structUser(\"Peta\" , get_hash(\"2\"), 1000, 0, false) */\n  0xe0\n  dup4\n  add\n  dup2\n  mstore\n  0x04\n  0xa0\n  dup5\n  add\n  swap1\n  dup2\n  mstore\n  shl(0xe0, 0x50657461)\n  0xc0\n  dup6\n  add\n  mstore\n  dup4\n  mstore\n    /* \"Documents/GitHub/Store-system-with-feedback/main.sol\":2883:2896  get_hash(\"2\") */\n  dup1\n  mload\n  dup1\n  dup3\n  add\n  swap1\n  swap2\n  mstore\n  0x01\n  dup2\n  mstore\n  shl(0xf9, 0x19)\n  dup2\n  dup4\n  add\n  mstore\n    /* \"Documents/GitHub/Store-system-with-feedback/main.sol\":2863:2913  structUser(\"Peta\" , get_hash(\"2\"), 1000, 0, false) */\n  swap1\n  dup3\n  add\n  swap1\n    /* \"Documents/GitHub/Store-system-with-feedback/main.sol\":2883:2896  get_hash(\"2\") */\n  tag_24\n  swap1\n    /* \"Documents/GitHub/Store-system-with-feedback/main.sol\":2883:2891  get_hash */\n  tag_5\n    /* \"Documents/GitHub/Store-system-with-feedback/main.sol\":2883:2896  get_hash(\"2\") */\n  jump\t// in\ntag_24:\n    /* \"Documents/GitHub/Store-system-with-feedback/main.sol\":2863:2913  structUser(\"Peta\" , get_hash(\"2\"), 1000, 0, false) */\n  dup2\n  mstore\n    /* \"Documents/GitHub/Store-system-with-feedback/main.sol\":2898:2902  1000 */\n  0x03e8\n    /* \"Documents/GitHub/Store-system-with-feedback/main.sol\":2863:2913  structUser(\"Peta\" , get_hash(\"2\"), 1000, 0, false) */\n  0x20\n  dup1\n  dup4\n  add\n  swap2\n  swap1\n  swap2\n  mstore\n  0x00\n  0x40\n  dup4\n  add\n  dup2\n  swap1\n  mstore\n  0x60\n  swap1\n  swap3\n  add\n  dup3\n  swap1\n  mstore\n    /* \"Documents/GitHub/Store-system-with-feedback/main.sol\":2817:2859  0xC152aD455B16d865F2344140dEc6Ea95cb361e8A */\n  0xc152ad455b16d865f2344140dec6ea95cb361e8a\n    /* \"Documents/GitHub/Store-system-with-feedback/main.sol\":2805:2860  structUsers[0xC152aD455B16d865F2344140dEc6Ea95cb361e8A] */\n  swap1\n  swap2\n  mstore\n    /* \"Documents/GitHub/Store-system-with-feedback/main.sol\":2805:2816  structUsers */\n  0x04\n    /* \"Documents/GitHub/Store-system-with-feedback/main.sol\":2805:2860  structUsers[0xC152aD455B16d865F2344140dEc6Ea95cb361e8A] */\n  dup2\n  mstore\n    /* \"Documents/GitHub/Store-system-with-feedback/main.sol\":2805:2913  structUsers[0xC152aD455B16d865F2344140dEc6Ea95cb361e8A] = structUser(\"Peta\" , get_hash(\"2\"), 1000, 0, false) */\n  dup2\n  mload\n  dup1\n  mload\n    /* \"Documents/GitHub/Store-system-with-feedback/main.sol\":2805:2860  structUsers[0xC152aD455B16d865F2344140dEc6Ea95cb361e8A] */\n  0x46be32a2e9b8e0f4c8f06b744988be62b4f05119193ea23be26a02d9470d0ccd\n  swap3\n    /* \"Documents/GitHub/Store-system-with-feedback/main.sol\":2805:2913  structUsers[0xC152aD455B16d865F2344140dEc6Ea95cb361e8A] = structUser(\"Peta\" , get_hash(\"2\"), 1000, 0, false) */\n  tag_25\n  swap3\n    /* \"Documents/GitHub/Store-system-with-feedback/main.sol\":2805:2860  structUsers[0xC152aD455B16d865F2344140dEc6Ea95cb361e8A] */\n  dup5\n  swap3\n    /* \"Documents/GitHub/Store-system-with-feedback/main.sol\":2805:2913  structUsers[0xC152aD455B16d865F2344140dEc6Ea95cb361e8A] = structUser(\"Peta\" , get_hash(\"2\"), 1000, 0, false) */\n  swap2\n  add\n  swap1\n  tag_7\n  jump\t// in\ntag_25:\n  pop\n  0x20\n  dup3\n  dup2\n  add\n  mload\n  0x01\n  dup4\n  dup2\n  add\n  swap2\n  swap1\n  swap2\n  sstore\n  0x40\n  dup1\n  dup6\n  add\n  mload\n  0x02\n  dup6\n  add\n  sstore\n  0x60\n  dup6\n  add\n  mload\n  0x03\n  dup6\n  add\n  sstore\n  0x80\n  swap1\n  swap5\n  add\n  mload\n  0x04\n  swap4\n  dup5\n  add\n  dup1\n  sload\n  not(0xff)\n  and\n  swap2\n  iszero\n  iszero\n  swap2\n  swap1\n  swap2\n  or\n  swap1\n  sstore\n    /* \"Documents/GitHub/Store-system-with-feedback/main.sol\":2924:2939  userLoginsArray */\n  0x06\n    /* \"Documents/GitHub/Store-system-with-feedback/main.sol\":2924:2952  userLoginsArray.push(\"Peta\") */\n  dup1\n  sload\n  swap2\n  dup3\n  add\n  dup2\n  sstore\n  0x00\n  mstore\n  dup4\n  mload\n  dup1\n  dup6\n  add\n  swap1\n  swap5\n  mstore\n  dup3\n  dup5\n  mstore\n  shl(0xe0, 0x50657461)\n  swap4\n  swap1\n  swap2\n  add\n  swap3\n  dup4\n  mstore\n  tag_27\n  swap3\n  0xf652222313e28459528d920b65115c16c04f3efc82aaedc97be59f3f377c0d3f\n  swap1\n  swap2\n  add\n  swap2\n  tag_7\n  jump\t// in\ntag_27:\n  pop\n    /* \"Documents/GitHub/Store-system-with-feedback/main.sol\":2963:2979  userAddressArray */\n  0x07\n    /* \"Documents/GitHub/Store-system-with-feedback/main.sol\":2963:3028  userAddressArray.push(0xC152aD455B16d865F2344140dEc6Ea95cb361e8A) */\n  dup1\n  sload\n  0x01\n  dup2\n  add\n  dup3\n  sstore\n  0x00\n  swap2\n  swap1\n  swap2\n  mstore\n  0xa66cc928b5edb82af9bd49922954155ab7b0942694bea4ce44661d9a8736c688\n  add\n  dup1\n  sload\n  not(sub(shl(0xa0, 0x01), 0x01))\n  and\n    /* \"Documents/GitHub/Store-system-with-feedback/main.sol\":2985:3027  0xC152aD455B16d865F2344140dEc6Ea95cb361e8A */\n  0xc152ad455b16d865f2344140dec6ea95cb361e8a\n    /* \"Documents/GitHub/Store-system-with-feedback/main.sol\":2963:3028  userAddressArray.push(0xC152aD455B16d865F2344140dEc6Ea95cb361e8A) */\n  or\n  swap1\n  sstore\n    /* \"Documents/GitHub/Store-system-with-feedback/main.sol\":74:9490  contract coursepaper {\r... */\n  jump(tag_50)\n    /* \"Documents/GitHub/Store-system-with-feedback/main.sol\":174:317  function get_hash(string memory password) public pure returns(bytes32) {\r... */\ntag_5:\n    /* \"Documents/GitHub/Store-system-with-feedback/main.sol\":236:243  bytes32 */\n  0x00\n    /* \"Documents/GitHub/Store-system-with-feedback/main.sol\":294:302  password */\n  dup2\n    /* \"Documents/GitHub/Store-system-with-feedback/main.sol\":277:303  abi.encodePacked(password) */\n  add(0x20, mload(0x40))\n  tag_31\n  swap2\n  swap1\n  tag_32\n  jump\t// in\ntag_31:\n  mload(0x40)\n  0x20\n  dup2\n  dup4\n  sub\n  sub\n  dup2\n  mstore\n  swap1\n  0x40\n  mstore\n    /* \"Documents/GitHub/Store-system-with-feedback/main.sol\":267:304  keccak256(abi.encodePacked(password)) */\n  dup1\n  mload\n  swap1\n  0x20\n  add\n  keccak256\n    /* \"Documents/GitHub/Store-system-with-feedback/main.sol\":260:305  return(keccak256(abi.encodePacked(password))) */\n  swap1\n  pop\n    /* \"Documents/GitHub/Store-system-with-feedback/main.sol\":174:317  function get_hash(string memory password) public pure returns(bytes32) {\r... */\n  swap2\n  swap1\n  pop\n  jump\t// out\n    /* \"Documents/GitHub/Store-system-with-feedback/main.sol\":74:9490  contract coursepaper {\r... */\ntag_7:\n  dup3\n  dup1\n  sload\n  tag_33\n  swap1\n  tag_12\n  jump\t// in\ntag_33:\n  swap1\n  0x00\n  mstore\n  keccak256(0x00, 0x20)\n  swap1\n  0x1f\n  add\n  0x20\n  swap1\n  div\n  dup2\n  add\n  swap3\n  dup3\n  tag_35\n  jumpi\n  0x00\n  dup6\n  sstore\n  jump(tag_38)\ntag_35:\n  dup3\n  0x1f\n  lt\n  tag_36\n  jumpi\n  dup1\n  mload\n  not(0xff)\n  and\n  dup4\n  dup1\n  add\n  or\n  dup6\n  sstore\n  jump(tag_38)\ntag_36:\n  dup3\n  dup1\n  add\n  0x01\n  add\n  dup6\n  sstore\n  dup3\n  iszero\n  tag_38\n  jumpi\n  swap2\n  dup3\n  add\ntag_37:\n  dup3\n  dup2\n  gt\n  iszero\n  tag_38\n  jumpi\n  dup3\n  mload\n  dup3\n  sstore\n  swap2\n  0x20\n  add\n  swap2\n  swap1\n  0x01\n  add\n  swap1\n  jump(tag_37)\ntag_38:\n  pop\n  tag_39\n  swap3\n  swap2\n  pop\n  tag_40\n  jump\t// in\ntag_39:\n  pop\n  swap1\n  jump\t// out\ntag_14:\n  dup3\n  dup1\n  sload\n  tag_41\n  swap1\n  tag_12\n  jump\t// in\ntag_41:\n  swap1\n  0x00\n  mstore\n  keccak256(0x00, 0x20)\n  swap1\n  0x1f\n  add\n  0x20\n  swap1\n  div\n  dup2\n  add\n  swap3\n  dup3\n  tag_43\n  jumpi\n  0x00\n  dup6\n  sstore\n  jump(tag_38)\ntag_43:\n  dup3\n  0x1f\n  lt\n  tag_44\n  jumpi\n  dup1\n  sload\n  dup6\n  sstore\n  jump(tag_38)\ntag_44:\n  dup3\n  dup1\n  add\n  0x01\n  add\n  dup6\n  sstore\n  dup3\n  iszero\n  tag_38\n  jumpi\n  0x00\n  mstore\n  keccak256(0x00, 0x20)\n  swap2\n  0x1f\n  add\n  0x20\n  swap1\n  div\n  dup3\n  add\ntag_45:\n  dup3\n  dup2\n  gt\n  iszero\n  tag_38\n  jumpi\n  dup3\n  sload\n  dup3\n  sstore\n  swap2\n  0x01\n  add\n  swap2\n  swap1\n  0x01\n  add\n  swap1\n  jump(tag_45)\ntag_40:\ntag_48:\n  dup1\n  dup3\n  gt\n  iszero\n  tag_39\n  jumpi\n  0x00\n  dup2\n  sstore\n  0x01\n  add\n  jump(tag_48)\n    /* \"#utility.yul\":14:442   */\ntag_32:\n    /* \"#utility.yul\":145:148   */\n  0x00\n    /* \"#utility.yul\":183:189   */\n  dup3\n    /* \"#utility.yul\":177:190   */\n  mload\n    /* \"#utility.yul\":208:209   */\n  0x00\n    /* \"#utility.yul\":218:347   */\ntag_52:\n    /* \"#utility.yul\":232:238   */\n  dup2\n    /* \"#utility.yul\":229:230   */\n  dup2\n    /* \"#utility.yul\":226:239   */\n  lt\n    /* \"#utility.yul\":218:347   */\n  iszero\n  tag_54\n  jumpi\n    /* \"#utility.yul\":330:334   */\n  0x20\n    /* \"#utility.yul\":314:328   */\n  dup2\n  dup7\n  add\n    /* \"#utility.yul\":310:335   */\n  dup2\n  add\n    /* \"#utility.yul\":304:336   */\n  mload\n    /* \"#utility.yul\":291:302   */\n  dup6\n  dup4\n  add\n    /* \"#utility.yul\":284:337   */\n  mstore\n    /* \"#utility.yul\":247:259   */\n  add\n    /* \"#utility.yul\":218:347   */\n  jump(tag_52)\ntag_54:\n    /* \"#utility.yul\":365:371   */\n  dup2\n    /* \"#utility.yul\":362:363   */\n  dup2\n    /* \"#utility.yul\":359:372   */\n  gt\n    /* \"#utility.yul\":356:404   */\n  iszero\n  tag_55\n  jumpi\n    /* \"#utility.yul\":400:401   */\n  0x00\n    /* \"#utility.yul\":391:397   */\n  dup3\n    /* \"#utility.yul\":386:389   */\n  dup6\n    /* \"#utility.yul\":382:398   */\n  add\n    /* \"#utility.yul\":375:402   */\n  mstore\n    /* \"#utility.yul\":356:404   */\ntag_55:\n  pop\n    /* \"#utility.yul\":420:436   */\n  swap2\n  swap1\n  swap2\n  add\n  swap3\n    /* \"#utility.yul\":14:442   */\n  swap2\n  pop\n  pop\n  jump\t// out\n    /* \"#utility.yul\":706:1086   */\ntag_12:\n    /* \"#utility.yul\":785:786   */\n  0x01\n    /* \"#utility.yul\":781:793   */\n  dup2\n  dup2\n  shr\n  swap1\n    /* \"#utility.yul\":828:840   */\n  dup3\n  and\n  dup1\n    /* \"#utility.yul\":849:910   */\n  tag_58\n  jumpi\n    /* \"#utility.yul\":903:907   */\n  0x7f\n    /* \"#utility.yul\":895:901   */\n  dup3\n    /* \"#utility.yul\":891:908   */\n  and\n    /* \"#utility.yul\":881:908   */\n  swap2\n  pop\n    /* \"#utility.yul\":849:910   */\ntag_58:\n    /* \"#utility.yul\":956:958   */\n  0x20\n    /* \"#utility.yul\":948:954   */\n  dup3\n    /* \"#utility.yul\":945:959   */\n  lt\n    /* \"#utility.yul\":925:943   */\n  dup2\n    /* \"#utility.yul\":922:960   */\n  eq\n    /* \"#utility.yul\":919:1080   */\n  iszero\n  tag_59\n  jumpi\n    /* \"#utility.yul\":1002:1012   */\n  0x4e487b71\n    /* \"#utility.yul\":997:1000   */\n  0xe0\n    /* \"#utility.yul\":993:1013   */\n  shl\n    /* \"#utility.yul\":990:991   */\n  0x00\n    /* \"#utility.yul\":983:1014   */\n  mstore\n    /* \"#utility.yul\":1037:1041   */\n  0x22\n    /* \"#utility.yul\":1034:1035   */\n  0x04\n    /* \"#utility.yul\":1027:1042   */\n  mstore\n    /* \"#utility.yul\":1065:1069   */\n  0x24\n    /* \"#utility.yul\":1062:1063   */\n  0x00\n    /* \"#utility.yul\":1055:1070   */\n  revert\n    /* \"#utility.yul\":919:1080   */\ntag_59:\n  pop\n    /* \"#utility.yul\":706:1086   */\n  swap2\n  swap1\n  pop\n  jump\t// out\ntag_50:\n    /* \"Documents/GitHub/Store-system-with-feedback/main.sol\":74:9490  contract coursepaper {\r... */\n  dataSize(sub_0)\n  dup1\n  dataOffset(sub_0)\n  0x00\n  codecopy\n  0x00\n  return\nstop\ndata_1ab0c6948a275349ae45a06aad66a8bd65ac18074615d53676c09b67809099e0 405787fa12a823e0f2b7631cc41b3ba8828b3321ca811111fa75cd3aa3bb5ace\ndata_8993e1cd58841905be2f38dff5727bfce5465d113cd407e0076bae0c6cf830da c49e92deb93ac19463e0f89b887a2ab81c6b5eadf7dc1bc8bd12ce4040f656fc\ndata_f4d17a50b75ba59f6ac3e704dcdf75304eb544678a920cb7cfcd9a84a7945e49 5c83a96f0abbcc4e29b827af3528e41db71dd7823e05e1374cd098351a380d7f\n\nsub_0: assembly {\n        /* \"Documents/GitHub/Store-system-with-feedback/main.sol\":74:9490  contract coursepaper {\r... */\n      mstore(0x40, 0x80)\n      callvalue\n      dup1\n      iszero\n      tag_1\n      jumpi\n      0x00\n      dup1\n      revert\n    tag_1:\n      pop\n      jumpi(tag_2, lt(calldatasize, 0x04))\n      shr(0xe0, calldataload(0x00))\n      dup1\n      0x0c72b1ec\n      eq\n      tag_3\n      jumpi\n      dup1\n      0x0e1c81b2\n      eq\n      tag_4\n      jumpi\n      dup1\n      0x146dc6ed\n      eq\n      tag_5\n      jumpi\n      dup1\n      0x1bbe970a\n      eq\n      tag_6\n      jumpi\n      dup1\n      0x29e795f3\n      eq\n      tag_7\n      jumpi\n      dup1\n      0x2ccdef7c\n      eq\n      tag_8\n      jumpi\n      dup1\n      0x2d4673e3\n      eq\n      tag_9\n      jumpi\n      dup1\n      0x34d2c0ad\n      eq\n      tag_10\n      jumpi\n      dup1\n      0x6ba44d3c\n      eq\n      tag_11\n      jumpi\n      dup1\n      0x6c05dd1d\n      eq\n      tag_12\n      jumpi\n      dup1\n      0x7ddb273d\n      eq\n      tag_13\n      jumpi\n      dup1\n      0x845952a8\n      eq\n      tag_14\n      jumpi\n      dup1\n      0x961865f0\n      eq\n      tag_15\n      jumpi\n      dup1\n      0xa985036d\n      eq\n      tag_16\n      jumpi\n      dup1\n      0xa9f9482b\n      eq\n      tag_17\n      jumpi\n      dup1\n      0xbbd43363\n      eq\n      tag_18\n      jumpi\n      dup1\n      0xc178b9af\n      eq\n      tag_19\n      jumpi\n      dup1\n      0xc4957fa0\n      eq\n      tag_20\n      jumpi\n      dup1\n      0xcc21c188\n      eq\n      tag_21\n      jumpi\n      dup1\n      0xd22d9020\n      eq\n      tag_22\n      jumpi\n      dup1\n      0xd68cf8c1\n      eq\n      tag_23\n      jumpi\n      dup1\n      0xdce39151\n      eq\n      tag_24\n      jumpi\n      dup1\n      0xf69483c1\n      eq\n      tag_25\n      jumpi\n    tag_2:\n      0x00\n      dup1\n      revert\n        /* \"Documents/GitHub/Store-system-with-feedback/main.sol\":4220:4848  function acceptPurchase (uint idPurchase, bool confirmation) public {\r... */\n    tag_3:\n      tag_26\n      tag_27\n      calldatasize\n      0x04\n      tag_28\n      jump\t// in\n    tag_27:\n      tag_29\n      jump\t// in\n    tag_26:\n      stop\n        /* \"Documents/GitHub/Store-system-with-feedback/main.sol\":8565:9002  function create_user(address addr, string memory login, bytes32 password) public {\r... */\n    tag_4:\n      tag_26\n      tag_31\n      calldatasize\n      0x04\n      tag_32\n      jump\t// in\n    tag_31:\n      tag_33\n      jump\t// in\n        /* \"Documents/GitHub/Store-system-with-feedback/main.sol\":7672:7943  function productPurchases (string memory titleProduct) public {\r... */\n    tag_5:\n      tag_26\n      tag_35\n      calldatasize\n      0x04\n      tag_36\n      jump\t// in\n    tag_35:\n      tag_37\n      jump\t// in\n        /* \"Documents/GitHub/Store-system-with-feedback/main.sol\":1222:1272  mapping(string => address) public structUserLogins */\n    tag_6:\n      tag_38\n      tag_39\n      calldatasize\n      0x04\n      tag_36\n      jump\t// in\n    tag_39:\n      dup1\n      mload\n      0x20\n      dup2\n      dup4\n      add\n      dup2\n      add\n      dup1\n      mload\n      0x05\n      dup3\n      mstore\n      swap3\n      dup3\n      add\n      swap2\n      swap1\n      swap4\n      add\n      keccak256\n      swap2\n      mstore\n      sload\n      sub(shl(0xa0, 0x01), 0x01)\n      and\n      dup2\n      jump\n    tag_38:\n      mload(0x40)\n      sub(shl(0xa0, 0x01), 0x01)\n        /* \"#utility.yul\":7025:7057   */\n      swap1\n      swap2\n      and\n        /* \"#utility.yul\":7007:7058   */\n      dup2\n      mstore\n        /* \"#utility.yul\":6995:6997   */\n      0x20\n        /* \"#utility.yul\":6980:6998   */\n      add\n        /* \"Documents/GitHub/Store-system-with-feedback/main.sol\":1222:1272  mapping(string => address) public structUserLogins */\n    tag_41:\n      mload(0x40)\n      dup1\n      swap2\n      sub\n      swap1\n      return\n        /* \"Documents/GitHub/Store-system-with-feedback/main.sol\":7166:7585  function leaveComment (string memory userName, string[] memory comment) public {\r... */\n    tag_7:\n      tag_26\n      tag_44\n      calldatasize\n      0x04\n      tag_45\n      jump\t// in\n    tag_44:\n      tag_46\n      jump\t// in\n        /* \"Documents/GitHub/Store-system-with-feedback/main.sol\":4893:5354  function acceptReturn(uint idReturn, bool confirmation) public {\r... */\n    tag_8:\n      tag_26\n      tag_48\n      calldatasize\n      0x04\n      tag_28\n      jump\t// in\n    tag_48:\n      tag_49\n      jump\t// in\n        /* \"Documents/GitHub/Store-system-with-feedback/main.sol\":8182:8366  function productMarriageRegistration (string memory titleProduct) public {\r... */\n    tag_9:\n      tag_26\n      tag_51\n      calldatasize\n      0x04\n      tag_36\n      jump\t// in\n    tag_51:\n      tag_52\n      jump\t// in\n        /* \"Documents/GitHub/Store-system-with-feedback/main.sol\":6141:6241  function getProductList() public view returns(string[] memory) {\r... */\n    tag_10:\n      tag_53\n      tag_54\n      jump\t// in\n    tag_53:\n      mload(0x40)\n      tag_41\n      swap2\n      swap1\n      tag_56\n      jump\t// in\n        /* \"Documents/GitHub/Store-system-with-feedback/main.sol\":8410:8531  function get_address(string memory login) public view returns(address) {\r... */\n    tag_11:\n      tag_38\n      tag_58\n      calldatasize\n      0x04\n      tag_36\n      jump\t// in\n    tag_58:\n      tag_59\n      jump\t// in\n        /* \"Documents/GitHub/Store-system-with-feedback/main.sol\":3141:3540  function addProductShop (string memory title, uint256 price, string memory description) public {\r... */\n    tag_12:\n      tag_26\n      tag_62\n      calldatasize\n      0x04\n      tag_63\n      jump\t// in\n    tag_62:\n      tag_64\n      jump\t// in\n        /* \"Documents/GitHub/Store-system-with-feedback/main.sol\":2169:2232  structMarriageRegistration[] public structMarriageRegistrations */\n    tag_13:\n      tag_65\n      tag_66\n      calldatasize\n      0x04\n      tag_67\n      jump\t// in\n    tag_66:\n      tag_68\n      jump\t// in\n    tag_65:\n      mload(0x40)\n      tag_41\n      swap4\n      swap3\n      swap2\n      swap1\n      tag_70\n      jump\t// in\n        /* \"Documents/GitHub/Store-system-with-feedback/main.sol\":174:317  function get_hash(string memory password) public pure returns(bytes32) {\r... */\n    tag_14:\n      tag_71\n      tag_72\n      calldatasize\n      0x04\n      tag_36\n      jump\t// in\n    tag_72:\n      tag_73\n      jump\t// in\n    tag_71:\n      mload(0x40)\n        /* \"#utility.yul\":8892:8917   */\n      swap1\n      dup2\n      mstore\n        /* \"#utility.yul\":8880:8882   */\n      0x20\n        /* \"#utility.yul\":8865:8883   */\n      add\n        /* \"Documents/GitHub/Store-system-with-feedback/main.sol\":174:317  function get_hash(string memory password) public pure returns(bytes32) {\r... */\n      tag_41\n        /* \"#utility.yul\":8746:8923   */\n      jump\n        /* \"Documents/GitHub/Store-system-with-feedback/main.sol\":1166:1215  mapping(address => structUser) public structUsers */\n    tag_15:\n      tag_76\n      tag_77\n      calldatasize\n      0x04\n      tag_78\n      jump\t// in\n    tag_77:\n      tag_79\n      jump\t// in\n    tag_76:\n      mload(0x40)\n      tag_41\n      swap6\n      swap5\n      swap4\n      swap3\n      swap2\n      swap1\n      tag_81\n      jump\t// in\n        /* \"Documents/GitHub/Store-system-with-feedback/main.sol\":6273:7126  function getStoryRating(string memory shopName) public view returns(uint) {\r... */\n    tag_16:\n      tag_71\n      tag_83\n      calldatasize\n      0x04\n      tag_36\n      jump\t// in\n    tag_83:\n      tag_84\n      jump\t// in\n        /* \"Documents/GitHub/Store-system-with-feedback/main.sol\":1949:1996  structStatusReturn[] public structStatusReturns */\n    tag_17:\n      tag_65\n      tag_88\n      calldatasize\n      0x04\n      tag_67\n      jump\t// in\n    tag_88:\n      tag_89\n      jump\t// in\n        /* \"Documents/GitHub/Store-system-with-feedback/main.sol\":7982:8136  function productReturn (string memory titleProduct) public {\r... */\n    tag_18:\n      tag_26\n      tag_92\n      calldatasize\n      0x04\n      tag_36\n      jump\t// in\n    tag_92:\n      tag_93\n      jump\t// in\n        /* \"Documents/GitHub/Store-system-with-feedback/main.sol\":6011:6105  function getShopList() public view returns(string[] memory) {\r... */\n    tag_19:\n      tag_53\n      tag_95\n      jump\t// in\n        /* \"Documents/GitHub/Store-system-with-feedback/main.sol\":599:642  mapping(string => address) public shopLists */\n    tag_20:\n      tag_38\n      tag_98\n      calldatasize\n      0x04\n      tag_36\n      jump\t// in\n    tag_98:\n      dup1\n      mload\n      0x20\n      dup2\n      dup4\n      add\n      dup2\n      add\n      dup1\n      mload\n      0x01\n      dup3\n      mstore\n      swap3\n      dup3\n      add\n      swap2\n      swap1\n      swap4\n      add\n      keccak256\n      swap2\n      mstore\n      sload\n      sub(shl(0xa0, 0x01), 0x01)\n      and\n      dup2\n      jump\n        /* \"Documents/GitHub/Store-system-with-feedback/main.sol\":3585:4173  function leaveFeedback (string memory shop, string memory feedback, uint256 rating) public {\r... */\n    tag_21:\n      tag_26\n      tag_102\n      calldatasize\n      0x04\n      tag_103\n      jump\t// in\n    tag_102:\n      tag_104\n      jump\t// in\n        /* \"Documents/GitHub/Store-system-with-feedback/main.sol\":9036:9466  function login_user(string memory login, bytes32 password) public {\r... */\n    tag_22:\n      tag_26\n      tag_106\n      calldatasize\n      0x04\n      tag_107\n      jump\t// in\n    tag_106:\n      tag_108\n      jump\t// in\n        /* \"Documents/GitHub/Store-system-with-feedback/main.sol\":1498:1552  mapping(string => structProduct) public structProducts */\n    tag_23:\n      tag_109\n      tag_110\n      calldatasize\n      0x04\n      tag_36\n      jump\t// in\n    tag_110:\n      tag_111\n      jump\t// in\n    tag_109:\n      mload(0x40)\n      tag_41\n      swap5\n      swap4\n      swap3\n      swap2\n      swap1\n      tag_113\n      jump\t// in\n        /* \"Documents/GitHub/Store-system-with-feedback/main.sol\":1741:1792  structStatusPurchase[] public structStatusPurchases */\n    tag_24:\n      tag_65\n      tag_115\n      calldatasize\n      0x04\n      tag_67\n      jump\t// in\n    tag_115:\n      tag_116\n      jump\t// in\n        /* \"Documents/GitHub/Store-system-with-feedback/main.sol\":5400:5977  function MarriageRegistration(uint idMarriageRegistration, bool confirmation) public {\r... */\n    tag_25:\n      tag_26\n      tag_119\n      calldatasize\n      0x04\n      tag_28\n      jump\t// in\n    tag_119:\n      tag_120\n      jump\t// in\n        /* \"Documents/GitHub/Store-system-with-feedback/main.sol\":4220:4848  function acceptPurchase (uint idPurchase, bool confirmation) public {\r... */\n    tag_29:\n        /* \"Documents/GitHub/Store-system-with-feedback/main.sol\":4319:4323  true */\n      0x01\n        /* \"Documents/GitHub/Store-system-with-feedback/main.sol\":4303:4323  confirmation == true */\n      dup2\n      iszero\n      iszero\n      eq\n        /* \"Documents/GitHub/Store-system-with-feedback/main.sol\":4299:4841  if (confirmation == true) {\r... */\n      iszero\n      tag_122\n      jumpi\n        /* \"Documents/GitHub/Store-system-with-feedback/main.sol\":4383:4388  false */\n      0x00\n        /* \"Documents/GitHub/Store-system-with-feedback/main.sol\":4340:4361  structStatusPurchases */\n      0x0a\n        /* \"Documents/GitHub/Store-system-with-feedback/main.sol\":4362:4372  idPurchase */\n      dup4\n        /* \"Documents/GitHub/Store-system-with-feedback/main.sol\":4340:4373  structStatusPurchases[idPurchase] */\n      dup2\n      sload\n      dup2\n      lt\n      tag_124\n      jumpi\n      tag_124\n      tag_125\n      jump\t// in\n    tag_124:\n      swap1\n      0x00\n      mstore\n      keccak256(0x00, 0x20)\n      swap1\n      0x03\n      mul\n      add\n        /* \"Documents/GitHub/Store-system-with-feedback/main.sol\":4340:4380  structStatusPurchases[idPurchase].status */\n      0x02\n      add\n      0x00\n        /* \"Documents/GitHub/Store-system-with-feedback/main.sol\":4340:4388  structStatusPurchases[idPurchase].status = false */\n      0x0100\n      exp\n      dup2\n      sload\n      dup2\n      0xff\n      mul\n      not\n      and\n      swap1\n      dup4\n      iszero\n      iszero\n      mul\n      or\n      swap1\n      sstore\n      pop\n        /* \"Documents/GitHub/Store-system-with-feedback/main.sol\":4539:4553  structProducts */\n      0x08\n        /* \"Documents/GitHub/Store-system-with-feedback/main.sol\":4554:4575  structStatusPurchases */\n      0x0a\n        /* \"Documents/GitHub/Store-system-with-feedback/main.sol\":4576:4586  idPurchase */\n      dup4\n        /* \"Documents/GitHub/Store-system-with-feedback/main.sol\":4554:4587  structStatusPurchases[idPurchase] */\n      dup2\n      sload\n      dup2\n      lt\n      tag_128\n      jumpi\n      tag_128\n      tag_125\n      jump\t// in\n    tag_128:\n      swap1\n      0x00\n      mstore\n      keccak256(0x00, 0x20)\n      swap1\n      0x03\n      mul\n      add\n        /* \"Documents/GitHub/Store-system-with-feedback/main.sol\":4554:4600  structStatusPurchases[idPurchase].titleProduct */\n      0x01\n      add\n        /* \"Documents/GitHub/Store-system-with-feedback/main.sol\":4539:4601  structProducts[structStatusPurchases[idPurchase].titleProduct] */\n      mload(0x40)\n      tag_130\n      swap2\n      swap1\n      tag_131\n      jump\t// in\n    tag_130:\n      swap1\n      dup2\n      mstore\n      0x20\n      add\n      mload(0x40)\n      dup1\n      swap2\n      sub\n      swap1\n      keccak256\n        /* \"Documents/GitHub/Store-system-with-feedback/main.sol\":4539:4607  structProducts[structStatusPurchases[idPurchase].titleProduct].price */\n      0x02\n      add\n      sload\n        /* \"Documents/GitHub/Store-system-with-feedback/main.sol\":4471:4482  structUsers */\n      0x04\n        /* \"Documents/GitHub/Store-system-with-feedback/main.sol\":4471:4527  structUsers[structStatusPurchases[idPurchase].userLogin] */\n      0x00\n        /* \"Documents/GitHub/Store-system-with-feedback/main.sol\":4483:4504  structStatusPurchases */\n      0x0a\n        /* \"Documents/GitHub/Store-system-with-feedback/main.sol\":4505:4515  idPurchase */\n      dup6\n        /* \"Documents/GitHub/Store-system-with-feedback/main.sol\":4483:4516  structStatusPurchases[idPurchase] */\n      dup2\n      sload\n      dup2\n      lt\n      tag_133\n      jumpi\n      tag_133\n      tag_125\n      jump\t// in\n    tag_133:\n      0x00\n      swap2\n      dup3\n      mstore\n      0x20\n      dup1\n      dup4\n      keccak256\n      0x03\n      swap1\n      swap3\n      mul\n      swap1\n      swap2\n      add\n        /* \"Documents/GitHub/Store-system-with-feedback/main.sol\":4483:4526  structStatusPurchases[idPurchase].userLogin */\n      sload\n      sub(shl(0xa0, 0x01), 0x01)\n      and\n        /* \"Documents/GitHub/Store-system-with-feedback/main.sol\":4471:4527  structUsers[structStatusPurchases[idPurchase].userLogin] */\n      dup4\n      mstore\n      dup3\n      add\n      swap3\n      swap1\n      swap3\n      mstore\n      0x40\n      add\n      swap1\n      keccak256\n        /* \"Documents/GitHub/Store-system-with-feedback/main.sol\":4471:4536  structUsers[structStatusPurchases[idPurchase].userLogin].ballance */\n      0x02\n      add\n      sload\n        /* \"Documents/GitHub/Store-system-with-feedback/main.sol\":4471:4607  structUsers[structStatusPurchases[idPurchase].userLogin].ballance - structProducts[structStatusPurchases[idPurchase].titleProduct].price */\n      tag_135\n      swap2\n      swap1\n      tag_136\n      jump\t// in\n    tag_135:\n        /* \"Documents/GitHub/Store-system-with-feedback/main.sol\":4403:4414  structUsers */\n      0x04\n        /* \"Documents/GitHub/Store-system-with-feedback/main.sol\":4403:4459  structUsers[structStatusPurchases[idPurchase].userLogin] */\n      0x00\n        /* \"Documents/GitHub/Store-system-with-feedback/main.sol\":4415:4436  structStatusPurchases */\n      0x0a\n        /* \"Documents/GitHub/Store-system-with-feedback/main.sol\":4437:4447  idPurchase */\n      dup6\n        /* \"Documents/GitHub/Store-system-with-feedback/main.sol\":4415:4448  structStatusPurchases[idPurchase] */\n      dup2\n      sload\n      dup2\n      lt\n      tag_138\n      jumpi\n      tag_138\n      tag_125\n      jump\t// in\n    tag_138:\n      0x00\n      swap2\n      dup3\n      mstore\n      0x20\n      dup1\n      dup4\n      keccak256\n      0x03\n      swap1\n      swap3\n      mul\n      swap1\n      swap2\n      add\n        /* \"Documents/GitHub/Store-system-with-feedback/main.sol\":4415:4458  structStatusPurchases[idPurchase].userLogin */\n      sload\n      sub(shl(0xa0, 0x01), 0x01)\n      and\n        /* \"Documents/GitHub/Store-system-with-feedback/main.sol\":4403:4459  structUsers[structStatusPurchases[idPurchase].userLogin] */\n      dup4\n      mstore\n      dup3\n      add\n      swap3\n      swap1\n      swap3\n      mstore\n      0x40\n      add\n      swap1\n      keccak256\n        /* \"Documents/GitHub/Store-system-with-feedback/main.sol\":4403:4468  structUsers[structStatusPurchases[idPurchase].userLogin].ballance */\n      0x02\n      add\n        /* \"Documents/GitHub/Store-system-with-feedback/main.sol\":4403:4607  structUsers[structStatusPurchases[idPurchase].userLogin].ballance = structUsers[structStatusPurchases[idPurchase].userLogin].ballance - structProducts[structStatusPurchases[idPurchase].titleProduct].price */\n      sstore\n        /* \"Documents/GitHub/Store-system-with-feedback/main.sol\":4695:4716  structStatusPurchases */\n      0x0a\n        /* \"Documents/GitHub/Store-system-with-feedback/main.sol\":4695:4728  structStatusPurchases[idPurchase] */\n      dup1\n      sload\n        /* \"Documents/GitHub/Store-system-with-feedback/main.sol\":4680:4694  structProducts */\n      0x08\n      swap2\n        /* \"Documents/GitHub/Store-system-with-feedback/main.sol\":4695:4716  structStatusPurchases */\n      swap1\n        /* \"Documents/GitHub/Store-system-with-feedback/main.sol\":4717:4727  idPurchase */\n      dup5\n      swap1\n        /* \"Documents/GitHub/Store-system-with-feedback/main.sol\":4695:4728  structStatusPurchases[idPurchase] */\n      dup2\n      lt\n      tag_141\n      jumpi\n      tag_141\n      tag_125\n      jump\t// in\n    tag_141:\n      swap1\n      0x00\n      mstore\n      keccak256(0x00, 0x20)\n      swap1\n      0x03\n      mul\n      add\n        /* \"Documents/GitHub/Store-system-with-feedback/main.sol\":4695:4741  structStatusPurchases[idPurchase].titleProduct */\n      0x01\n      add\n        /* \"Documents/GitHub/Store-system-with-feedback/main.sol\":4680:4742  structProducts[structStatusPurchases[idPurchase].titleProduct] */\n      mload(0x40)\n      tag_143\n      swap2\n      swap1\n      tag_131\n      jump\t// in\n    tag_143:\n      swap1\n      dup2\n      mstore\n      0x40\n      dup1\n      mload\n      0x20\n      swap3\n      dup2\n      swap1\n      sub\n      dup4\n      add\n      swap1\n      keccak256\n        /* \"Documents/GitHub/Store-system-with-feedback/main.sol\":4680:4748  structProducts[structStatusPurchases[idPurchase].titleProduct].price */\n      0x02\n      add\n      sload\n        /* \"Documents/GitHub/Store-system-with-feedback/main.sol\":4657:4667  msg.sender */\n      caller\n        /* \"Documents/GitHub/Store-system-with-feedback/main.sol\":4651:4656  shops */\n      0x00\n        /* \"Documents/GitHub/Store-system-with-feedback/main.sol\":4651:4668  shops[msg.sender] */\n      swap1\n      dup2\n      mstore\n      swap3\n      dup4\n      swap1\n      mstore\n      swap2\n      keccak256\n        /* \"Documents/GitHub/Store-system-with-feedback/main.sol\":4651:4677  shops[msg.sender].ballance */\n      0x04\n      add\n      sload\n        /* \"Documents/GitHub/Store-system-with-feedback/main.sol\":4651:4748  shops[msg.sender].ballance + structProducts[structStatusPurchases[idPurchase].titleProduct].price */\n      tag_144\n      swap2\n        /* \"Documents/GitHub/Store-system-with-feedback/main.sol\":4680:4748  structProducts[structStatusPurchases[idPurchase].titleProduct].price */\n      swap1\n        /* \"Documents/GitHub/Store-system-with-feedback/main.sol\":4651:4748  shops[msg.sender].ballance + structProducts[structStatusPurchases[idPurchase].titleProduct].price */\n      tag_145\n      jump\t// in\n    tag_144:\n        /* \"Documents/GitHub/Store-system-with-feedback/main.sol\":4628:4638  msg.sender */\n      caller\n        /* \"Documents/GitHub/Store-system-with-feedback/main.sol\":4622:4627  shops */\n      0x00\n        /* \"Documents/GitHub/Store-system-with-feedback/main.sol\":4622:4639  shops[msg.sender] */\n      swap1\n      dup2\n      mstore\n      0x20\n      dup2\n      swap1\n      mstore\n      0x40\n      swap1\n      keccak256\n        /* \"Documents/GitHub/Store-system-with-feedback/main.sol\":4622:4648  shops[msg.sender].ballance */\n      0x04\n      add\n        /* \"Documents/GitHub/Store-system-with-feedback/main.sol\":4622:4748  shops[msg.sender].ballance = shops[msg.sender].ballance + structProducts[structStatusPurchases[idPurchase].titleProduct].price */\n      sstore\n        /* \"Documents/GitHub/Store-system-with-feedback/main.sol\":4220:4848  function acceptPurchase (uint idPurchase, bool confirmation) public {\r... */\n      pop\n      pop\n      jump\t// out\n        /* \"Documents/GitHub/Store-system-with-feedback/main.sol\":4299:4841  if (confirmation == true) {\r... */\n    tag_122:\n        /* \"Documents/GitHub/Store-system-with-feedback/main.sol\":4824:4829  false */\n      0x00\n        /* \"Documents/GitHub/Store-system-with-feedback/main.sol\":4781:4802  structStatusPurchases */\n      0x0a\n        /* \"Documents/GitHub/Store-system-with-feedback/main.sol\":4803:4813  idPurchase */\n      dup4\n        /* \"Documents/GitHub/Store-system-with-feedback/main.sol\":4781:4814  structStatusPurchases[idPurchase] */\n      dup2\n      sload\n      dup2\n      lt\n      tag_148\n      jumpi\n      tag_148\n      tag_125\n      jump\t// in\n    tag_148:\n      0x00\n      swap2\n      dup3\n      mstore\n      0x20\n      swap1\n      swap2\n      keccak256\n      0x03\n      swap1\n      swap2\n      mul\n      add\n        /* \"Documents/GitHub/Store-system-with-feedback/main.sol\":4781:4821  structStatusPurchases[idPurchase].status */\n      0x02\n      add\n        /* \"Documents/GitHub/Store-system-with-feedback/main.sol\":4781:4829  structStatusPurchases[idPurchase].status = false */\n      dup1\n      sload\n      not(0xff)\n      and\n      swap2\n      iszero\n      iszero\n      swap2\n      swap1\n      swap2\n      or\n      swap1\n      sstore\n      pop\n      pop\n        /* \"Documents/GitHub/Store-system-with-feedback/main.sol\":4220:4848  function acceptPurchase (uint idPurchase, bool confirmation) public {\r... */\n      jump\t// out\n        /* \"Documents/GitHub/Store-system-with-feedback/main.sol\":8565:9002  function create_user(address addr, string memory login, bytes32 password) public {\r... */\n    tag_33:\n        /* \"Documents/GitHub/Store-system-with-feedback/main.sol\":8679:8721  0x9c35a9bdf790A5Ce09b353B1C765269aB466Baad */\n      0x9c35a9bdf790a5ce09b353b1c765269ab466baad\n        /* \"Documents/GitHub/Store-system-with-feedback/main.sol\":8665:8675  msg.sender */\n      caller\n        /* \"Documents/GitHub/Store-system-with-feedback/main.sol\":8665:8721  msg.sender == 0x9c35a9bdf790A5Ce09b353B1C765269aB466Baad */\n      eq\n        /* \"Documents/GitHub/Store-system-with-feedback/main.sol\":8657:8755  require(msg.sender == 0x9c35a9bdf790A5Ce09b353B1C765269aB466Baad, \"Error: You not a zero account\") */\n      tag_151\n      jumpi\n      mload(0x40)\n      shl(0xe5, 0x461bcd)\n      dup2\n      mstore\n        /* \"#utility.yul\":9652:9654   */\n      0x20\n        /* \"Documents/GitHub/Store-system-with-feedback/main.sol\":8657:8755  require(msg.sender == 0x9c35a9bdf790A5Ce09b353B1C765269aB466Baad, \"Error: You not a zero account\") */\n      0x04\n      dup3\n      add\n        /* \"#utility.yul\":9634:9655   */\n      mstore\n        /* \"#utility.yul\":9691:9693   */\n      0x1d\n        /* \"#utility.yul\":9671:9689   */\n      0x24\n      dup3\n      add\n        /* \"#utility.yul\":9664:9694   */\n      mstore\n        /* \"#utility.yul\":9730:9761   */\n      0x4572726f723a20596f75206e6f742061207a65726f206163636f756e74000000\n        /* \"#utility.yul\":9710:9728   */\n      0x44\n      dup3\n      add\n        /* \"#utility.yul\":9703:9762   */\n      mstore\n        /* \"#utility.yul\":9779:9797   */\n      0x64\n      add\n        /* \"Documents/GitHub/Store-system-with-feedback/main.sol\":8657:8755  require(msg.sender == 0x9c35a9bdf790A5Ce09b353B1C765269aB466Baad, \"Error: You not a zero account\") */\n    tag_152:\n      mload(0x40)\n      dup1\n      swap2\n      sub\n      swap1\n      revert\n    tag_151:\n        /* \"Documents/GitHub/Store-system-with-feedback/main.sol\":8809:8810  0 */\n      0x00\n      sub(shl(0xa0, 0x01), 0x01)\n        /* \"Documents/GitHub/Store-system-with-feedback/main.sol\":8774:8811  structUserLogins[login] == address(0) */\n      and\n        /* \"Documents/GitHub/Store-system-with-feedback/main.sol\":8774:8790  structUserLogins */\n      0x05\n        /* \"Documents/GitHub/Store-system-with-feedback/main.sol\":8791:8796  login */\n      dup4\n        /* \"Documents/GitHub/Store-system-with-feedback/main.sol\":8774:8797  structUserLogins[login] */\n      mload(0x40)\n      tag_154\n      swap2\n      swap1\n      tag_155\n      jump\t// in\n    tag_154:\n      swap1\n      dup2\n      mstore\n      mload(0x40)\n      swap1\n      dup2\n      swap1\n      sub\n      0x20\n      add\n      swap1\n      keccak256\n      sload\n      sub(shl(0xa0, 0x01), 0x01)\n      and\n        /* \"Documents/GitHub/Store-system-with-feedback/main.sol\":8774:8811  structUserLogins[login] == address(0) */\n      eq\n        /* \"Documents/GitHub/Store-system-with-feedback/main.sol\":8766:8841  require(structUserLogins[login] == address(0), \"Error: User already exist\") */\n      tag_156\n      jumpi\n      mload(0x40)\n      shl(0xe5, 0x461bcd)\n      dup2\n      mstore\n        /* \"#utility.yul\":10010:10012   */\n      0x20\n        /* \"Documents/GitHub/Store-system-with-feedback/main.sol\":8766:8841  require(structUserLogins[login] == address(0), \"Error: User already exist\") */\n      0x04\n      dup3\n      add\n        /* \"#utility.yul\":9992:10013   */\n      mstore\n        /* \"#utility.yul\":10049:10051   */\n      0x19\n        /* \"#utility.yul\":10029:10047   */\n      0x24\n      dup3\n      add\n        /* \"#utility.yul\":10022:10052   */\n      mstore\n      shl(0x3a, 0x115c9c9bdc8e88155cd95c88185b1c9958591e48195e1a5cdd)\n        /* \"#utility.yul\":10068:10086   */\n      0x44\n      dup3\n      add\n        /* \"#utility.yul\":10061:10116   */\n      mstore\n        /* \"#utility.yul\":10133:10151   */\n      0x64\n      add\n        /* \"Documents/GitHub/Store-system-with-feedback/main.sol\":8766:8841  require(structUserLogins[login] == address(0), \"Error: User already exist\") */\n      tag_152\n        /* \"#utility.yul\":9808:10157   */\n      jump\n        /* \"Documents/GitHub/Store-system-with-feedback/main.sol\":8766:8841  require(structUserLogins[login] == address(0), \"Error: User already exist\") */\n    tag_156:\n        /* \"Documents/GitHub/Store-system-with-feedback/main.sol\":8872:8915  structUser(login, password, 1000, 0, false) */\n      0x40\n      dup1\n      mload\n      0xa0\n      dup2\n      add\n      dup3\n      mstore\n      dup4\n      dup2\n      mstore\n      0x20\n      dup1\n      dup3\n      add\n      dup5\n      swap1\n      mstore\n        /* \"Documents/GitHub/Store-system-with-feedback/main.sol\":8900:8904  1000 */\n      0x03e8\n        /* \"Documents/GitHub/Store-system-with-feedback/main.sol\":8872:8915  structUser(login, password, 1000, 0, false) */\n      dup3\n      dup5\n      add\n      mstore\n      0x00\n      0x60\n      dup4\n      add\n      dup2\n      swap1\n      mstore\n      0x80\n      dup4\n      add\n      dup2\n      swap1\n      mstore\n      sub(shl(0xa0, 0x01), 0x01)\n        /* \"Documents/GitHub/Store-system-with-feedback/main.sol\":8852:8869  structUsers[addr] */\n      dup8\n      and\n      dup2\n      mstore\n        /* \"Documents/GitHub/Store-system-with-feedback/main.sol\":8852:8863  structUsers */\n      0x04\n        /* \"Documents/GitHub/Store-system-with-feedback/main.sol\":8852:8869  structUsers[addr] */\n      dup3\n      mstore\n      swap3\n      swap1\n      swap3\n      keccak256\n        /* \"Documents/GitHub/Store-system-with-feedback/main.sol\":8852:8915  structUsers[addr] = structUser(login, password, 1000, 0, false) */\n      dup2\n      mload\n      dup1\n      mload\n        /* \"Documents/GitHub/Store-system-with-feedback/main.sol\":8872:8915  structUser(login, password, 1000, 0, false) */\n      swap3\n      swap4\n        /* \"Documents/GitHub/Store-system-with-feedback/main.sol\":8852:8869  structUsers[addr] */\n      swap2\n      swap3\n        /* \"Documents/GitHub/Store-system-with-feedback/main.sol\":8852:8915  structUsers[addr] = structUser(login, password, 1000, 0, false) */\n      tag_159\n      swap3\n        /* \"Documents/GitHub/Store-system-with-feedback/main.sol\":8852:8869  structUsers[addr] */\n      dup5\n      swap3\n        /* \"Documents/GitHub/Store-system-with-feedback/main.sol\":8852:8915  structUsers[addr] = structUser(login, password, 1000, 0, false) */\n      add\n      swap1\n      tag_160\n      jump\t// in\n    tag_159:\n      pop\n      0x20\n      dup3\n      add\n      mload\n      0x01\n      dup3\n      add\n      sstore\n      0x40\n      dup1\n      dup4\n      add\n      mload\n      0x02\n      dup4\n      add\n      sstore\n      0x60\n      dup4\n      add\n      mload\n      0x03\n      dup4\n      add\n      sstore\n      0x80\n      swap1\n      swap3\n      add\n      mload\n      0x04\n      swap1\n      swap2\n      add\n      dup1\n      sload\n      not(0xff)\n      and\n      swap2\n      iszero\n      iszero\n      swap2\n      swap1\n      swap2\n      or\n      swap1\n      sstore\n        /* \"Documents/GitHub/Store-system-with-feedback/main.sol\":8926:8949  structUserLogins[login] */\n      mload\n        /* \"Documents/GitHub/Store-system-with-feedback/main.sol\":8952:8956  addr */\n      dup4\n      swap1\n        /* \"Documents/GitHub/Store-system-with-feedback/main.sol\":8926:8942  structUserLogins */\n      0x05\n      swap1\n        /* \"Documents/GitHub/Store-system-with-feedback/main.sol\":8926:8949  structUserLogins[login] */\n      tag_161\n      swap1\n        /* \"Documents/GitHub/Store-system-with-feedback/main.sol\":8943:8948  login */\n      dup6\n      swap1\n        /* \"Documents/GitHub/Store-system-with-feedback/main.sol\":8926:8949  structUserLogins[login] */\n      tag_155\n      jump\t// in\n    tag_161:\n      swap1\n      dup2\n      mstore\n      mload(0x40)\n      swap1\n      dup2\n      swap1\n      sub\n      0x20\n      add\n      swap1\n      keccak256\n        /* \"Documents/GitHub/Store-system-with-feedback/main.sol\":8926:8956  structUserLogins[login] = addr */\n      dup1\n      sload\n      sub(shl(0xa0, 0x01), 0x01)\n      swap3\n      dup4\n      and\n      not(sub(shl(0xa0, 0x01), 0x01))\n      swap2\n      dup3\n      and\n      or\n      swap1\n      swap2\n      sstore\n        /* \"Documents/GitHub/Store-system-with-feedback/main.sol\":8967:8983  userAddressArray */\n      0x07\n        /* \"Documents/GitHub/Store-system-with-feedback/main.sol\":8967:8994  userAddressArray.push(addr) */\n      dup1\n      sload\n        /* \"Documents/GitHub/Store-system-with-feedback/main.sol\":8926:8956  structUserLogins[login] = addr */\n      0x01\n        /* \"Documents/GitHub/Store-system-with-feedback/main.sol\":8967:8994  userAddressArray.push(addr) */\n      dup2\n      add\n      dup3\n      sstore\n        /* \"Documents/GitHub/Store-system-with-feedback/main.sol\":8926:8949  structUserLogins[login] */\n      0x00\n        /* \"Documents/GitHub/Store-system-with-feedback/main.sol\":8967:8994  userAddressArray.push(addr) */\n      swap2\n      swap1\n      swap2\n      mstore\n      0xa66cc928b5edb82af9bd49922954155ab7b0942694bea4ce44661d9a8736c688\n      add\n      dup1\n      sload\n      swap6\n      swap1\n      swap3\n      and\n      swap5\n      and\n      swap4\n      swap1\n      swap4\n      or\n      swap1\n      swap3\n      sstore\n      pop\n      pop\n        /* \"Documents/GitHub/Store-system-with-feedback/main.sol\":8565:9002  function create_user(address addr, string memory login, bytes32 password) public {\r... */\n      jump\t// out\n        /* \"Documents/GitHub/Store-system-with-feedback/main.sol\":7672:7943  function productPurchases (string memory titleProduct) public {\r... */\n    tag_37:\n        /* \"Documents/GitHub/Store-system-with-feedback/main.sol\":7789:7803  structProducts */\n      0x08\n        /* \"Documents/GitHub/Store-system-with-feedback/main.sol\":7804:7816  titleProduct */\n      dup2\n        /* \"Documents/GitHub/Store-system-with-feedback/main.sol\":7789:7817  structProducts[titleProduct] */\n      mload(0x40)\n      tag_164\n      swap2\n      swap1\n      tag_155\n      jump\t// in\n    tag_164:\n      swap1\n      dup2\n      mstore\n      0x20\n      add\n      mload(0x40)\n      dup1\n      swap2\n      sub\n      swap1\n      keccak256\n        /* \"Documents/GitHub/Store-system-with-feedback/main.sol\":7789:7823  structProducts[titleProduct].price */\n      0x02\n      add\n      sload\n        /* \"Documents/GitHub/Store-system-with-feedback/main.sol\":7753:7764  structUsers */\n      0x04\n        /* \"Documents/GitHub/Store-system-with-feedback/main.sol\":7753:7776  structUsers[msg.sender] */\n      0x00\n        /* \"Documents/GitHub/Store-system-with-feedback/main.sol\":7765:7775  msg.sender */\n      caller\n      sub(shl(0xa0, 0x01), 0x01)\n        /* \"Documents/GitHub/Store-system-with-feedback/main.sol\":7753:7776  structUsers[msg.sender] */\n      and\n      sub(shl(0xa0, 0x01), 0x01)\n      and\n      dup2\n      mstore\n      0x20\n      add\n      swap1\n      dup2\n      mstore\n      0x20\n      add\n      0x00\n      keccak256\n        /* \"Documents/GitHub/Store-system-with-feedback/main.sol\":7753:7785  structUsers[msg.sender].ballance */\n      0x02\n      add\n      sload\n        /* \"Documents/GitHub/Store-system-with-feedback/main.sol\":7753:7823  structUsers[msg.sender].ballance >= structProducts[titleProduct].price */\n      lt\n      iszero\n        /* \"Documents/GitHub/Store-system-with-feedback/main.sol\":7745:7844  require(structUsers[msg.sender].ballance >= structProducts[titleProduct].price, \"error: not money\") */\n      tag_165\n      jumpi\n      mload(0x40)\n      shl(0xe5, 0x461bcd)\n      dup2\n      mstore\n        /* \"#utility.yul\":11070:11072   */\n      0x20\n        /* \"Documents/GitHub/Store-system-with-feedback/main.sol\":7745:7844  require(structUsers[msg.sender].ballance >= structProducts[titleProduct].price, \"error: not money\") */\n      0x04\n      dup3\n      add\n        /* \"#utility.yul\":11052:11073   */\n      mstore\n        /* \"#utility.yul\":11109:11111   */\n      0x10\n        /* \"#utility.yul\":11089:11107   */\n      0x24\n      dup3\n      add\n        /* \"#utility.yul\":11082:11112   */\n      mstore\n      shl(0x80, 0x6572726f723a206e6f74206d6f6e6579)\n        /* \"#utility.yul\":11128:11146   */\n      0x44\n      dup3\n      add\n        /* \"#utility.yul\":11121:11167   */\n      mstore\n        /* \"#utility.yul\":11184:11202   */\n      0x64\n      add\n        /* \"Documents/GitHub/Store-system-with-feedback/main.sol\":7745:7844  require(structUsers[msg.sender].ballance >= structProducts[titleProduct].price, \"error: not money\") */\n      tag_152\n        /* \"#utility.yul\":10868:11208   */\n      jump\n        /* \"Documents/GitHub/Store-system-with-feedback/main.sol\":7745:7844  require(structUsers[msg.sender].ballance >= structProducts[titleProduct].price, \"error: not money\") */\n    tag_165:\n        /* \"Documents/GitHub/Store-system-with-feedback/main.sol\":7882:7934  structStatusPurchase(msg.sender, titleProduct, true) */\n      0x40\n      dup1\n      mload\n      0x60\n      dup2\n      add\n      dup3\n      mstore\n        /* \"Documents/GitHub/Store-system-with-feedback/main.sol\":7903:7913  msg.sender */\n      caller\n        /* \"Documents/GitHub/Store-system-with-feedback/main.sol\":7882:7934  structStatusPurchase(msg.sender, titleProduct, true) */\n      dup2\n      mstore\n      0x20\n      dup1\n      dup3\n      add\n      dup5\n      dup2\n      mstore\n        /* \"Documents/GitHub/Store-system-with-feedback/main.sol\":7929:7933  true */\n      0x01\n        /* \"Documents/GitHub/Store-system-with-feedback/main.sol\":7882:7934  structStatusPurchase(msg.sender, titleProduct, true) */\n      swap4\n      dup4\n      add\n      dup5\n      swap1\n      mstore\n        /* \"Documents/GitHub/Store-system-with-feedback/main.sol\":7855:7876  structStatusPurchases */\n      0x0a\n        /* \"Documents/GitHub/Store-system-with-feedback/main.sol\":7855:7935  structStatusPurchases.push(structStatusPurchase(msg.sender, titleProduct, true)) */\n      dup1\n      sload\n      swap5\n      dup6\n      add\n      dup2\n      sstore\n      0x00\n      mstore\n      dup3\n      mload\n      0xc65a7bb8d6351c1cf70c95a316cc6a92839c986682d98bc35f958f4883f9d2a8\n      0x03\n      swap1\n      swap6\n      mul\n      swap5\n      dup6\n      add\n      dup1\n      sload\n      not(sub(shl(0xa0, 0x01), 0x01))\n      and\n      sub(shl(0xa0, 0x01), 0x01)\n      swap1\n      swap3\n      and\n      swap2\n      swap1\n      swap2\n      or\n      dup2\n      sstore\n      swap1\n      mload\n      dup1\n      mload\n        /* \"Documents/GitHub/Store-system-with-feedback/main.sol\":7882:7934  structStatusPurchase(msg.sender, titleProduct, true) */\n      swap4\n      swap5\n        /* \"Documents/GitHub/Store-system-with-feedback/main.sol\":7855:7935  structStatusPurchases.push(structStatusPurchase(msg.sender, titleProduct, true)) */\n      swap2\n      swap4\n      tag_169\n      swap4\n      0xc65a7bb8d6351c1cf70c95a316cc6a92839c986682d98bc35f958f4883f9d2a9\n      swap1\n      swap4\n      add\n      swap3\n      swap2\n      swap1\n      swap2\n      add\n      swap1\n      tag_160\n      jump\t// in\n    tag_169:\n      pop\n      0x40\n      swap2\n      swap1\n      swap2\n      add\n      mload\n      0x02\n      swap1\n      swap2\n      add\n      dup1\n      sload\n      not(0xff)\n      and\n      swap2\n      iszero\n      iszero\n      swap2\n      swap1\n      swap2\n      or\n      swap1\n      sstore\n      pop\n        /* \"Documents/GitHub/Store-system-with-feedback/main.sol\":7672:7943  function productPurchases (string memory titleProduct) public {\r... */\n      jump\t// out\n        /* \"Documents/GitHub/Store-system-with-feedback/main.sol\":7166:7585  function leaveComment (string memory userName, string[] memory comment) public {\r... */\n    tag_46:\n        /* \"Documents/GitHub/Store-system-with-feedback/main.sol\":7260:7266  uint i */\n      0x00\n        /* \"Documents/GitHub/Store-system-with-feedback/main.sol\":7256:7578  for(uint i = 0; i < complaintBooks.length; i++) {\r... */\n    tag_171:\n        /* \"Documents/GitHub/Store-system-with-feedback/main.sol\":7276:7290  complaintBooks */\n      0x03\n        /* \"Documents/GitHub/Store-system-with-feedback/main.sol\":7276:7297  complaintBooks.length */\n      sload\n        /* \"Documents/GitHub/Store-system-with-feedback/main.sol\":7272:7297  i < complaintBooks.length */\n      dup2\n      lt\n        /* \"Documents/GitHub/Store-system-with-feedback/main.sol\":7256:7578  for(uint i = 0; i < complaintBooks.length; i++) {\r... */\n      iszero\n      tag_172\n      jumpi\n        /* \"Documents/GitHub/Store-system-with-feedback/main.sol\":7319:7345  string memory tempUserName */\n      0x00\n        /* \"Documents/GitHub/Store-system-with-feedback/main.sol\":7348:7362  complaintBooks */\n      0x03\n        /* \"Documents/GitHub/Store-system-with-feedback/main.sol\":7363:7364  i */\n      dup3\n        /* \"Documents/GitHub/Store-system-with-feedback/main.sol\":7348:7365  complaintBooks[i] */\n      dup2\n      sload\n      dup2\n      lt\n      tag_175\n      jumpi\n      tag_175\n      tag_125\n      jump\t// in\n    tag_175:\n      swap1\n      0x00\n      mstore\n      keccak256(0x00, 0x20)\n      swap1\n      0x05\n      mul\n      add\n        /* \"Documents/GitHub/Store-system-with-feedback/main.sol\":7348:7374  complaintBooks[i].userName */\n      0x01\n      add\n        /* \"Documents/GitHub/Store-system-with-feedback/main.sol\":7319:7374  string memory tempUserName = complaintBooks[i].userName */\n      dup1\n      sload\n      tag_177\n      swap1\n      tag_178\n      jump\t// in\n    tag_177:\n      dup1\n      0x1f\n      add\n      0x20\n      dup1\n      swap2\n      div\n      mul\n      0x20\n      add\n      mload(0x40)\n      swap1\n      dup2\n      add\n      0x40\n      mstore\n      dup1\n      swap3\n      swap2\n      swap1\n      dup2\n      dup2\n      mstore\n      0x20\n      add\n      dup3\n      dup1\n      sload\n      tag_179\n      swap1\n      tag_178\n      jump\t// in\n    tag_179:\n      dup1\n      iszero\n      tag_180\n      jumpi\n      dup1\n      0x1f\n      lt\n      tag_181\n      jumpi\n      0x0100\n      dup1\n      dup4\n      sload\n      div\n      mul\n      dup4\n      mstore\n      swap2\n      0x20\n      add\n      swap2\n      jump(tag_180)\n    tag_181:\n      dup3\n      add\n      swap2\n      swap1\n      0x00\n      mstore\n      keccak256(0x00, 0x20)\n      swap1\n    tag_182:\n      dup2\n      sload\n      dup2\n      mstore\n      swap1\n      0x01\n      add\n      swap1\n      0x20\n      add\n      dup1\n      dup4\n      gt\n      tag_182\n      jumpi\n      dup3\n      swap1\n      sub\n      0x1f\n      and\n      dup3\n      add\n      swap2\n    tag_180:\n      pop\n      pop\n      pop\n      pop\n      pop\n      swap1\n      pop\n        /* \"Documents/GitHub/Store-system-with-feedback/main.sol\":7464:7472  userName */\n      dup4\n        /* \"Documents/GitHub/Store-system-with-feedback/main.sol\":7447:7473  abi.encodePacked(userName) */\n      add(0x20, mload(0x40))\n      tag_183\n      swap2\n      swap1\n      tag_155\n      jump\t// in\n    tag_183:\n      mload(0x40)\n      0x20\n      dup2\n      dup4\n      sub\n      sub\n      dup2\n      mstore\n      swap1\n      0x40\n      mstore\n        /* \"Documents/GitHub/Store-system-with-feedback/main.sol\":7437:7474  keccak256(abi.encodePacked(userName)) */\n      dup1\n      mload\n      swap1\n      0x20\n      add\n      keccak256\n        /* \"Documents/GitHub/Store-system-with-feedback/main.sol\":7419:7431  tempUserName */\n      dup2\n        /* \"Documents/GitHub/Store-system-with-feedback/main.sol\":7402:7432  abi.encodePacked(tempUserName) */\n      add(0x20, mload(0x40))\n      tag_184\n      swap2\n      swap1\n      tag_155\n      jump\t// in\n    tag_184:\n      mload(0x40)\n      0x20\n      dup2\n      dup4\n      sub\n      sub\n      dup2\n      mstore\n      swap1\n      0x40\n      mstore\n        /* \"Documents/GitHub/Store-system-with-feedback/main.sol\":7392:7433  keccak256(abi.encodePacked(tempUserName)) */\n      dup1\n      mload\n      swap1\n      0x20\n      add\n      keccak256\n        /* \"Documents/GitHub/Store-system-with-feedback/main.sol\":7392:7474  keccak256(abi.encodePacked(tempUserName)) == keccak256(abi.encodePacked(userName)) */\n      eq\n        /* \"Documents/GitHub/Store-system-with-feedback/main.sol\":7389:7567  if(keccak256(abi.encodePacked(tempUserName)) == keccak256(abi.encodePacked(userName))) {                    \r... */\n      iszero\n      tag_185\n      jumpi\n        /* \"Documents/GitHub/Store-system-with-feedback/main.sol\":7544:7551  comment */\n      dup3\n        /* \"Documents/GitHub/Store-system-with-feedback/main.sol\":7515:7529  complaintBooks */\n      0x03\n        /* \"Documents/GitHub/Store-system-with-feedback/main.sol\":7530:7531  i */\n      dup4\n        /* \"Documents/GitHub/Store-system-with-feedback/main.sol\":7515:7532  complaintBooks[i] */\n      dup2\n      sload\n      dup2\n      lt\n      tag_187\n      jumpi\n      tag_187\n      tag_125\n      jump\t// in\n    tag_187:\n      swap1\n      0x00\n      mstore\n      keccak256(0x00, 0x20)\n      swap1\n      0x05\n      mul\n      add\n        /* \"Documents/GitHub/Store-system-with-feedback/main.sol\":7515:7541  complaintBooks[i].comments */\n      0x04\n      add\n        /* \"Documents/GitHub/Store-system-with-feedback/main.sol\":7515:7551  complaintBooks[i].comments = comment */\n      swap1\n      dup1\n      mload\n      swap1\n      0x20\n      add\n      swap1\n      tag_189\n      swap3\n      swap2\n      swap1\n      tag_190\n      jump\t// in\n    tag_189:\n      pop\n        /* \"Documents/GitHub/Store-system-with-feedback/main.sol\":7389:7567  if(keccak256(abi.encodePacked(tempUserName)) == keccak256(abi.encodePacked(userName))) {                    \r... */\n    tag_185:\n      pop\n        /* \"Documents/GitHub/Store-system-with-feedback/main.sol\":7299:7302  i++ */\n      dup1\n      tag_191\n      dup2\n      tag_192\n      jump\t// in\n    tag_191:\n      swap2\n      pop\n      pop\n        /* \"Documents/GitHub/Store-system-with-feedback/main.sol\":7256:7578  for(uint i = 0; i < complaintBooks.length; i++) {\r... */\n      jump(tag_171)\n    tag_172:\n      pop\n        /* \"Documents/GitHub/Store-system-with-feedback/main.sol\":7166:7585  function leaveComment (string memory userName, string[] memory comment) public {\r... */\n      pop\n      pop\n      jump\t// out\n        /* \"Documents/GitHub/Store-system-with-feedback/main.sol\":4893:5354  function acceptReturn(uint idReturn, bool confirmation) public {\r... */\n    tag_49:\n        /* \"Documents/GitHub/Store-system-with-feedback/main.sol\":4986:4990  true */\n      0x01\n        /* \"Documents/GitHub/Store-system-with-feedback/main.sol\":4970:4990  confirmation == true */\n      dup2\n      iszero\n      iszero\n      eq\n        /* \"Documents/GitHub/Store-system-with-feedback/main.sol\":4967:5347  if(confirmation == true) {\r... */\n      iszero\n      tag_194\n      jumpi\n        /* \"Documents/GitHub/Store-system-with-feedback/main.sol\":5046:5051  false */\n      0x00\n        /* \"Documents/GitHub/Store-system-with-feedback/main.sol\":5007:5026  structStatusReturns */\n      0x0b\n        /* \"Documents/GitHub/Store-system-with-feedback/main.sol\":5027:5035  idReturn */\n      dup4\n        /* \"Documents/GitHub/Store-system-with-feedback/main.sol\":5007:5036  structStatusReturns[idReturn] */\n      dup2\n      sload\n      dup2\n      lt\n      tag_196\n      jumpi\n      tag_196\n      tag_125\n      jump\t// in\n    tag_196:\n      swap1\n      0x00\n      mstore\n      keccak256(0x00, 0x20)\n      swap1\n      0x03\n      mul\n      add\n        /* \"Documents/GitHub/Store-system-with-feedback/main.sol\":5007:5043  structStatusReturns[idReturn].status */\n      0x02\n      add\n      0x00\n        /* \"Documents/GitHub/Store-system-with-feedback/main.sol\":5007:5051  structStatusReturns[idReturn].status = false */\n      0x0100\n      exp\n      dup2\n      sload\n      dup2\n      0xff\n      mul\n      not\n      and\n      swap1\n      dup4\n      iszero\n      iszero\n      mul\n      or\n      swap1\n      sstore\n      pop\n        /* \"Documents/GitHub/Store-system-with-feedback/main.sol\":5194:5208  structProducts */\n      0x08\n        /* \"Documents/GitHub/Store-system-with-feedback/main.sol\":5209:5228  structStatusReturns */\n      0x0b\n        /* \"Documents/GitHub/Store-system-with-feedback/main.sol\":5229:5237  idReturn */\n      dup4\n        /* \"Documents/GitHub/Store-system-with-feedback/main.sol\":5209:5238  structStatusReturns[idReturn] */\n      dup2\n      sload\n      dup2\n      lt\n      tag_199\n      jumpi\n      tag_199\n      tag_125\n      jump\t// in\n    tag_199:\n      swap1\n      0x00\n      mstore\n      keccak256(0x00, 0x20)\n      swap1\n      0x03\n      mul\n      add\n        /* \"Documents/GitHub/Store-system-with-feedback/main.sol\":5209:5251  structStatusReturns[idReturn].titleProduct */\n      0x01\n      add\n        /* \"Documents/GitHub/Store-system-with-feedback/main.sol\":5194:5252  structProducts[structStatusReturns[idReturn].titleProduct] */\n      mload(0x40)\n      tag_201\n      swap2\n      swap1\n      tag_131\n      jump\t// in\n    tag_201:\n      swap1\n      dup2\n      mstore\n      0x20\n      add\n      mload(0x40)\n      dup1\n      swap2\n      sub\n      swap1\n      keccak256\n        /* \"Documents/GitHub/Store-system-with-feedback/main.sol\":5194:5258  structProducts[structStatusReturns[idReturn].titleProduct].price */\n      0x02\n      add\n      sload\n        /* \"Documents/GitHub/Store-system-with-feedback/main.sol\":5130:5141  structUsers */\n      0x04\n        /* \"Documents/GitHub/Store-system-with-feedback/main.sol\":5130:5182  structUsers[structStatusReturns[idReturn].userLogin] */\n      0x00\n        /* \"Documents/GitHub/Store-system-with-feedback/main.sol\":5142:5161  structStatusReturns */\n      0x0b\n        /* \"Documents/GitHub/Store-system-with-feedback/main.sol\":5162:5170  idReturn */\n      dup6\n        /* \"Documents/GitHub/Store-system-with-feedback/main.sol\":5142:5171  structStatusReturns[idReturn] */\n      dup2\n      sload\n      dup2\n      lt\n      tag_203\n      jumpi\n      tag_203\n      tag_125\n      jump\t// in\n    tag_203:\n      0x00\n      swap2\n      dup3\n      mstore\n      0x20\n      dup1\n      dup4\n      keccak256\n      0x03\n      swap1\n      swap3\n      mul\n      swap1\n      swap2\n      add\n        /* \"Documents/GitHub/Store-system-with-feedback/main.sol\":5142:5181  structStatusReturns[idReturn].userLogin */\n      sload\n      sub(shl(0xa0, 0x01), 0x01)\n      and\n        /* \"Documents/GitHub/Store-system-with-feedback/main.sol\":5130:5182  structUsers[structStatusReturns[idReturn].userLogin] */\n      dup4\n      mstore\n      dup3\n      add\n      swap3\n      swap1\n      swap3\n      mstore\n      0x40\n      add\n      swap1\n      keccak256\n        /* \"Documents/GitHub/Store-system-with-feedback/main.sol\":5130:5191  structUsers[structStatusReturns[idReturn].userLogin].ballance */\n      0x02\n      add\n      sload\n        /* \"Documents/GitHub/Store-system-with-feedback/main.sol\":5130:5258  structUsers[structStatusReturns[idReturn].userLogin].ballance + structProducts[structStatusReturns[idReturn].titleProduct].price */\n      tag_205\n      swap2\n      swap1\n      tag_145\n      jump\t// in\n    tag_205:\n        /* \"Documents/GitHub/Store-system-with-feedback/main.sol\":5066:5077  structUsers */\n      0x04\n        /* \"Documents/GitHub/Store-system-with-feedback/main.sol\":5066:5118  structUsers[structStatusReturns[idReturn].userLogin] */\n      0x00\n        /* \"Documents/GitHub/Store-system-with-feedback/main.sol\":5078:5097  structStatusReturns */\n      0x0b\n        /* \"Documents/GitHub/Store-system-with-feedback/main.sol\":5098:5106  idReturn */\n      dup6\n        /* \"Documents/GitHub/Store-system-with-feedback/main.sol\":5078:5107  structStatusReturns[idReturn] */\n      dup2\n      sload\n      dup2\n      lt\n      tag_207\n      jumpi\n      tag_207\n      tag_125\n      jump\t// in\n    tag_207:\n      0x00\n      swap2\n      dup3\n      mstore\n      0x20\n      dup1\n      dup4\n      keccak256\n      0x03\n      swap1\n      swap3\n      mul\n      swap1\n      swap2\n      add\n        /* \"Documents/GitHub/Store-system-with-feedback/main.sol\":5078:5117  structStatusReturns[idReturn].userLogin */\n      sload\n      sub(shl(0xa0, 0x01), 0x01)\n      and\n        /* \"Documents/GitHub/Store-system-with-feedback/main.sol\":5066:5118  structUsers[structStatusReturns[idReturn].userLogin] */\n      dup4\n      mstore\n      dup3\n      add\n      swap3\n      swap1\n      swap3\n      mstore\n      0x40\n      add\n      swap1\n      keccak256\n        /* \"Documents/GitHub/Store-system-with-feedback/main.sol\":5066:5127  structUsers[structStatusReturns[idReturn].userLogin].ballance */\n      0x02\n      add\n        /* \"Documents/GitHub/Store-system-with-feedback/main.sol\":5066:5258  structUsers[structStatusReturns[idReturn].userLogin].ballance = structUsers[structStatusReturns[idReturn].userLogin].ballance + structProducts[structStatusReturns[idReturn].titleProduct].price */\n      sstore\n        /* \"Documents/GitHub/Store-system-with-feedback/main.sol\":4220:4848  function acceptPurchase (uint idPurchase, bool confirmation) public {\r... */\n      pop\n      pop\n      jump\t// out\n        /* \"Documents/GitHub/Store-system-with-feedback/main.sol\":4967:5347  if(confirmation == true) {\r... */\n    tag_194:\n        /* \"Documents/GitHub/Store-system-with-feedback/main.sol\":5330:5335  false */\n      0x00\n        /* \"Documents/GitHub/Store-system-with-feedback/main.sol\":5291:5310  structStatusReturns */\n      0x0b\n        /* \"Documents/GitHub/Store-system-with-feedback/main.sol\":5311:5319  idReturn */\n      dup4\n        /* \"Documents/GitHub/Store-system-with-feedback/main.sol\":5291:5320  structStatusReturns[idReturn] */\n      dup2\n      sload\n      dup2\n      lt\n      tag_148\n      jumpi\n      tag_148\n      tag_125\n      jump\t// in\n        /* \"Documents/GitHub/Store-system-with-feedback/main.sol\":8182:8366  function productMarriageRegistration (string memory titleProduct) public {\r... */\n    tag_52:\n        /* \"Documents/GitHub/Store-system-with-feedback/main.sol\":8299:8357  structMarriageRegistration(msg.sender, titleProduct, true) */\n      0x40\n      dup1\n      mload\n      0x60\n      dup2\n      add\n      dup3\n      mstore\n        /* \"Documents/GitHub/Store-system-with-feedback/main.sol\":8326:8336  msg.sender */\n      caller\n        /* \"Documents/GitHub/Store-system-with-feedback/main.sol\":8299:8357  structMarriageRegistration(msg.sender, titleProduct, true) */\n      dup2\n      mstore\n      0x20\n      dup1\n      dup3\n      add\n      dup5\n      dup2\n      mstore\n        /* \"Documents/GitHub/Store-system-with-feedback/main.sol\":8352:8356  true */\n      0x01\n        /* \"Documents/GitHub/Store-system-with-feedback/main.sol\":8299:8357  structMarriageRegistration(msg.sender, titleProduct, true) */\n      swap4\n      dup4\n      add\n      dup5\n      swap1\n      mstore\n        /* \"Documents/GitHub/Store-system-with-feedback/main.sol\":8266:8293  structMarriageRegistrations */\n      0x0c\n        /* \"Documents/GitHub/Store-system-with-feedback/main.sol\":8266:8358  structMarriageRegistrations.push(structMarriageRegistration(msg.sender, titleProduct, true)) */\n      dup1\n      sload\n      swap5\n      dup6\n      add\n      dup2\n      sstore\n      0x00\n      mstore\n      dup3\n      mload\n      0xdf6966c971051c3d54ec59162606531493a51404a002842f56009d7e5cf4a8c7\n      0x03\n      swap1\n      swap6\n      mul\n      swap5\n      dup6\n      add\n      dup1\n      sload\n      not(sub(shl(0xa0, 0x01), 0x01))\n      and\n      sub(shl(0xa0, 0x01), 0x01)\n      swap1\n      swap3\n      and\n      swap2\n      swap1\n      swap2\n      or\n      dup2\n      sstore\n      swap1\n      mload\n      dup1\n      mload\n        /* \"Documents/GitHub/Store-system-with-feedback/main.sol\":8299:8357  structMarriageRegistration(msg.sender, titleProduct, true) */\n      swap4\n      swap5\n        /* \"Documents/GitHub/Store-system-with-feedback/main.sol\":8266:8358  structMarriageRegistrations.push(structMarriageRegistration(msg.sender, titleProduct, true)) */\n      swap2\n      swap4\n      tag_169\n      swap4\n      0xdf6966c971051c3d54ec59162606531493a51404a002842f56009d7e5cf4a8c8\n      swap1\n      swap4\n      add\n      swap3\n      swap2\n      swap1\n      swap2\n      add\n      swap1\n      tag_160\n      jump\t// in\n        /* \"Documents/GitHub/Store-system-with-feedback/main.sol\":6141:6241  function getProductList() public view returns(string[] memory) {\r... */\n    tag_54:\n        /* \"Documents/GitHub/Store-system-with-feedback/main.sol\":6187:6202  string[] memory */\n      0x60\n        /* \"Documents/GitHub/Store-system-with-feedback/main.sol\":6222:6233  productList */\n      0x09\n        /* \"Documents/GitHub/Store-system-with-feedback/main.sol\":6215:6233  return productList */\n      dup1\n      sload\n      dup1\n      0x20\n      mul\n      0x20\n      add\n      mload(0x40)\n      swap1\n      dup2\n      add\n      0x40\n      mstore\n      dup1\n      swap3\n      swap2\n      swap1\n      dup2\n      dup2\n      mstore\n      0x20\n      add\n      0x00\n      swap1\n    tag_217:\n      dup3\n      dup3\n      lt\n      iszero\n      tag_218\n      jumpi\n      dup4\n      dup3\n      swap1\n      0x00\n      mstore\n      keccak256(0x00, 0x20)\n      add\n      dup1\n      sload\n      tag_220\n      swap1\n      tag_178\n      jump\t// in\n    tag_220:\n      dup1\n      0x1f\n      add\n      0x20\n      dup1\n      swap2\n      div\n      mul\n      0x20\n      add\n      mload(0x40)\n      swap1\n      dup2\n      add\n      0x40\n      mstore\n      dup1\n      swap3\n      swap2\n      swap1\n      dup2\n      dup2\n      mstore\n      0x20\n      add\n      dup3\n      dup1\n      sload\n      tag_221\n      swap1\n      tag_178\n      jump\t// in\n    tag_221:\n      dup1\n      iszero\n      tag_222\n      jumpi\n      dup1\n      0x1f\n      lt\n      tag_223\n      jumpi\n      0x0100\n      dup1\n      dup4\n      sload\n      div\n      mul\n      dup4\n      mstore\n      swap2\n      0x20\n      add\n      swap2\n      jump(tag_222)\n    tag_223:\n      dup3\n      add\n      swap2\n      swap1\n      0x00\n      mstore\n      keccak256(0x00, 0x20)\n      swap1\n    tag_224:\n      dup2\n      sload\n      dup2\n      mstore\n      swap1\n      0x01\n      add\n      swap1\n      0x20\n      add\n      dup1\n      dup4\n      gt\n      tag_224\n      jumpi\n      dup3\n      swap1\n      sub\n      0x1f\n      and\n      dup3\n      add\n      swap2\n    tag_222:\n      pop\n      pop\n      pop\n      pop\n      pop\n      dup2\n      mstore\n      0x20\n      add\n      swap1\n      0x01\n      add\n      swap1\n      jump(tag_217)\n    tag_218:\n      pop\n      pop\n      pop\n      pop\n      swap1\n      pop\n        /* \"Documents/GitHub/Store-system-with-feedback/main.sol\":6141:6241  function getProductList() public view returns(string[] memory) {\r... */\n      swap1\n      jump\t// out\n        /* \"Documents/GitHub/Store-system-with-feedback/main.sol\":8410:8531  function get_address(string memory login) public view returns(address) {\r... */\n    tag_59:\n        /* \"Documents/GitHub/Store-system-with-feedback/main.sol\":8472:8479  address */\n      0x00\n        /* \"Documents/GitHub/Store-system-with-feedback/main.sol\":8499:8515  structUserLogins */\n      0x05\n        /* \"Documents/GitHub/Store-system-with-feedback/main.sol\":8516:8521  login */\n      dup3\n        /* \"Documents/GitHub/Store-system-with-feedback/main.sol\":8499:8522  structUserLogins[login] */\n      mload(0x40)\n      tag_226\n      swap2\n      swap1\n      tag_155\n      jump\t// in\n    tag_226:\n      swap1\n      dup2\n      mstore\n      mload(0x40)\n      swap1\n      dup2\n      swap1\n      sub\n      0x20\n      add\n      swap1\n      keccak256\n      sload\n      sub(shl(0xa0, 0x01), 0x01)\n      and\n      swap3\n        /* \"Documents/GitHub/Store-system-with-feedback/main.sol\":8410:8531  function get_address(string memory login) public view returns(address) {\r... */\n      swap2\n      pop\n      pop\n      jump\t// out\n        /* \"Documents/GitHub/Store-system-with-feedback/main.sol\":3141:3540  function addProductShop (string memory title, uint256 price, string memory description) public {\r... */\n    tag_64:\n        /* \"Documents/GitHub/Store-system-with-feedback/main.sol\":3356:3428  structProduct(msg.sender, description , price, addProductShop_idProduct) */\n      mload(0x40)\n      dup1\n      0x80\n      add\n      0x40\n      mstore\n      dup1\n        /* \"Documents/GitHub/Store-system-with-feedback/main.sol\":3370:3380  msg.sender */\n      caller\n      sub(shl(0xa0, 0x01), 0x01)\n        /* \"Documents/GitHub/Store-system-with-feedback/main.sol\":3356:3428  structProduct(msg.sender, description , price, addProductShop_idProduct) */\n      and\n      dup2\n      mstore\n      0x20\n      add\n        /* \"Documents/GitHub/Store-system-with-feedback/main.sol\":3382:3393  description */\n      dup3\n        /* \"Documents/GitHub/Store-system-with-feedback/main.sol\":3356:3428  structProduct(msg.sender, description , price, addProductShop_idProduct) */\n      dup2\n      mstore\n      0x20\n      add\n        /* \"Documents/GitHub/Store-system-with-feedback/main.sol\":3396:3401  price */\n      dup4\n        /* \"Documents/GitHub/Store-system-with-feedback/main.sol\":3356:3428  structProduct(msg.sender, description , price, addProductShop_idProduct) */\n      dup2\n      mstore\n      0x20\n      add\n        /* \"Documents/GitHub/Store-system-with-feedback/main.sol\":3403:3427  addProductShop_idProduct */\n      sload(0x0d)\n        /* \"Documents/GitHub/Store-system-with-feedback/main.sol\":3356:3428  structProduct(msg.sender, description , price, addProductShop_idProduct) */\n      dup2\n      mstore\n      pop\n        /* \"Documents/GitHub/Store-system-with-feedback/main.sol\":3332:3346  structProducts */\n      0x08\n        /* \"Documents/GitHub/Store-system-with-feedback/main.sol\":3347:3352  title */\n      dup5\n        /* \"Documents/GitHub/Store-system-with-feedback/main.sol\":3332:3353  structProducts[title] */\n      mload(0x40)\n      tag_228\n      swap2\n      swap1\n      tag_155\n      jump\t// in\n    tag_228:\n      swap1\n      dup2\n      mstore\n      mload(0x40)\n      0x20\n      swap2\n      dup2\n      swap1\n      sub\n      dup3\n      add\n      swap1\n      keccak256\n        /* \"Documents/GitHub/Store-system-with-feedback/main.sol\":3332:3428  structProducts[title] = structProduct(msg.sender, description , price, addProductShop_idProduct) */\n      dup3\n      mload\n      dup2\n      sload\n      not(sub(shl(0xa0, 0x01), 0x01))\n      and\n      sub(shl(0xa0, 0x01), 0x01)\n      swap1\n      swap2\n      and\n      or\n      dup2\n      sstore\n      dup3\n      dup3\n      add\n      mload\n      dup1\n      mload\n        /* \"Documents/GitHub/Store-system-with-feedback/main.sol\":3332:3353  structProducts[title] */\n      swap2\n      swap3\n        /* \"Documents/GitHub/Store-system-with-feedback/main.sol\":3332:3428  structProducts[title] = structProduct(msg.sender, description , price, addProductShop_idProduct) */\n      tag_229\n      swap3\n      0x01\n      dup6\n      add\n      swap3\n      swap1\n      swap2\n      add\n      swap1\n      tag_160\n      jump\t// in\n    tag_229:\n      pop\n      0x40\n      dup3\n      add\n      mload\n      0x02\n      dup3\n      add\n      sstore\n      0x60\n      swap1\n      swap2\n      add\n      mload\n      0x03\n      swap1\n      swap2\n      add\n      sstore\n        /* \"Documents/GitHub/Store-system-with-feedback/main.sol\":3443:3454  productList */\n      0x09\n        /* \"Documents/GitHub/Store-system-with-feedback/main.sol\":3443:3466  productList.push(title) */\n      dup1\n      sload\n      0x01\n      dup2\n      add\n      dup3\n      sstore\n      0x00\n      swap2\n      swap1\n      swap2\n      mstore\n      dup4\n      mload\n      tag_231\n      swap2\n      0x6e1540171b6c0c960b71a7020d9f60077f6af931a8bbf590da0223dacf75c7af\n      add\n      swap1\n      0x20\n      dup7\n      add\n      swap1\n      tag_160\n      jump\t// in\n    tag_231:\n      pop\n        /* \"Documents/GitHub/Store-system-with-feedback/main.sol\":3481:3505  addProductShop_idProduct */\n      0x0d\n        /* \"Documents/GitHub/Store-system-with-feedback/main.sol\":3481:3507  addProductShop_idProduct++ */\n      dup1\n      sload\n      swap1\n        /* \"Documents/GitHub/Store-system-with-feedback/main.sol\":3481:3505  addProductShop_idProduct */\n      0x00\n        /* \"Documents/GitHub/Store-system-with-feedback/main.sol\":3481:3507  addProductShop_idProduct++ */\n      tag_232\n      dup4\n      tag_192\n      jump\t// in\n    tag_232:\n      swap2\n      swap1\n      pop\n      sstore\n      pop\n        /* \"Documents/GitHub/Store-system-with-feedback/main.sol\":3141:3540  function addProductShop (string memory title, uint256 price, string memory description) public {\r... */\n      pop\n      pop\n      pop\n      jump\t// out\n        /* \"Documents/GitHub/Store-system-with-feedback/main.sol\":2169:2232  structMarriageRegistration[] public structMarriageRegistrations */\n    tag_68:\n      0x0c\n      dup2\n      dup2\n      sload\n      dup2\n      lt\n      tag_233\n      jumpi\n      0x00\n      dup1\n      revert\n    tag_233:\n      0x00\n      swap2\n      dup3\n      mstore\n      0x20\n      swap1\n      swap2\n      keccak256\n      0x03\n      swap1\n      swap2\n      mul\n      add\n      dup1\n      sload\n      0x01\n      dup3\n      add\n      dup1\n      sload\n      sub(shl(0xa0, 0x01), 0x01)\n      swap1\n      swap3\n      and\n      swap4\n      pop\n      swap1\n      tag_235\n      swap1\n      tag_178\n      jump\t// in\n    tag_235:\n      dup1\n      0x1f\n      add\n      0x20\n      dup1\n      swap2\n      div\n      mul\n      0x20\n      add\n      mload(0x40)\n      swap1\n      dup2\n      add\n      0x40\n      mstore\n      dup1\n      swap3\n      swap2\n      swap1\n      dup2\n      dup2\n      mstore\n      0x20\n      add\n      dup3\n      dup1\n      sload\n      tag_236\n      swap1\n      tag_178\n      jump\t// in\n    tag_236:\n      dup1\n      iszero\n      tag_237\n      jumpi\n      dup1\n      0x1f\n      lt\n      tag_238\n      jumpi\n      0x0100\n      dup1\n      dup4\n      sload\n      div\n      mul\n      dup4\n      mstore\n      swap2\n      0x20\n      add\n      swap2\n      jump(tag_237)\n    tag_238:\n      dup3\n      add\n      swap2\n      swap1\n      0x00\n      mstore\n      keccak256(0x00, 0x20)\n      swap1\n    tag_239:\n      dup2\n      sload\n      dup2\n      mstore\n      swap1\n      0x01\n      add\n      swap1\n      0x20\n      add\n      dup1\n      dup4\n      gt\n      tag_239\n      jumpi\n      dup3\n      swap1\n      sub\n      0x1f\n      and\n      dup3\n      add\n      swap2\n    tag_237:\n      pop\n      pop\n      pop\n      0x02\n      swap1\n      swap4\n      add\n      sload\n      swap2\n      swap3\n      pop\n      pop\n      0xff\n      and\n      dup4\n      jump\t// out\n        /* \"Documents/GitHub/Store-system-with-feedback/main.sol\":174:317  function get_hash(string memory password) public pure returns(bytes32) {\r... */\n    tag_73:\n        /* \"Documents/GitHub/Store-system-with-feedback/main.sol\":236:243  bytes32 */\n      0x00\n        /* \"Documents/GitHub/Store-system-with-feedback/main.sol\":294:302  password */\n      dup2\n        /* \"Documents/GitHub/Store-system-with-feedback/main.sol\":277:303  abi.encodePacked(password) */\n      add(0x20, mload(0x40))\n      tag_241\n      swap2\n      swap1\n      tag_155\n      jump\t// in\n    tag_241:\n      mload(0x40)\n      0x20\n      dup2\n      dup4\n      sub\n      sub\n      dup2\n      mstore\n      swap1\n      0x40\n      mstore\n        /* \"Documents/GitHub/Store-system-with-feedback/main.sol\":267:304  keccak256(abi.encodePacked(password)) */\n      dup1\n      mload\n      swap1\n      0x20\n      add\n      keccak256\n        /* \"Documents/GitHub/Store-system-with-feedback/main.sol\":260:305  return(keccak256(abi.encodePacked(password))) */\n      swap1\n      pop\n        /* \"Documents/GitHub/Store-system-with-feedback/main.sol\":174:317  function get_hash(string memory password) public pure returns(bytes32) {\r... */\n      swap2\n      swap1\n      pop\n      jump\t// out\n        /* \"Documents/GitHub/Store-system-with-feedback/main.sol\":1166:1215  mapping(address => structUser) public structUsers */\n    tag_79:\n      mstore(0x20, 0x04)\n      0x00\n      swap1\n      dup2\n      mstore\n      0x40\n      swap1\n      keccak256\n      dup1\n      sload\n      dup2\n      swap1\n      tag_242\n      swap1\n      tag_178\n      jump\t// in\n    tag_242:\n      dup1\n      0x1f\n      add\n      0x20\n      dup1\n      swap2\n      div\n      mul\n      0x20\n      add\n      mload(0x40)\n      swap1\n      dup2\n      add\n      0x40\n      mstore\n      dup1\n      swap3\n      swap2\n      swap1\n      dup2\n      dup2\n      mstore\n      0x20\n      add\n      dup3\n      dup1\n      sload\n      tag_243\n      swap1\n      tag_178\n      jump\t// in\n    tag_243:\n      dup1\n      iszero\n      tag_244\n      jumpi\n      dup1\n      0x1f\n      lt\n      tag_245\n      jumpi\n      0x0100\n      dup1\n      dup4\n      sload\n      div\n      mul\n      dup4\n      mstore\n      swap2\n      0x20\n      add\n      swap2\n      jump(tag_244)\n    tag_245:\n      dup3\n      add\n      swap2\n      swap1\n      0x00\n      mstore\n      keccak256(0x00, 0x20)\n      swap1\n    tag_246:\n      dup2\n      sload\n      dup2\n      mstore\n      swap1\n      0x01\n      add\n      swap1\n      0x20\n      add\n      dup1\n      dup4\n      gt\n      tag_246\n      jumpi\n      dup3\n      swap1\n      sub\n      0x1f\n      and\n      dup3\n      add\n      swap2\n    tag_244:\n      pop\n      pop\n      pop\n      pop\n      0x01\n      dup4\n      add\n      sload\n      0x02\n      dup5\n      add\n      sload\n      0x03\n      dup6\n      add\n      sload\n      0x04\n      swap1\n      swap6\n      add\n      sload\n      swap4\n      swap5\n      swap2\n      swap4\n      swap1\n      swap3\n      pop\n      0xff\n      and\n      dup6\n      jump\t// out\n        /* \"Documents/GitHub/Store-system-with-feedback/main.sol\":6273:7126  function getStoryRating(string memory shopName) public view returns(uint) {\r... */\n    tag_84:\n        /* \"Documents/GitHub/Store-system-with-feedback/main.sol\":6341:6345  uint */\n      0x00\n      dup1\n      dup1\n      dup1\n        /* \"Documents/GitHub/Store-system-with-feedback/main.sol\":6431:7018  for(uint i = 0; i < shopList.length; i++) {\r... */\n    tag_248:\n        /* \"Documents/GitHub/Store-system-with-feedback/main.sol\":6451:6459  shopList */\n      0x02\n        /* \"Documents/GitHub/Store-system-with-feedback/main.sol\":6451:6466  shopList.length */\n      sload\n        /* \"Documents/GitHub/Store-system-with-feedback/main.sol\":6447:6466  i < shopList.length */\n      dup2\n      lt\n        /* \"Documents/GitHub/Store-system-with-feedback/main.sol\":6431:7018  for(uint i = 0; i < shopList.length; i++) {\r... */\n      iszero\n      tag_249\n      jumpi\n        /* \"Documents/GitHub/Store-system-with-feedback/main.sol\":6488:6514  string memory tempShopName */\n      0x00\n        /* \"Documents/GitHub/Store-system-with-feedback/main.sol\":6517:6525  shopList */\n      0x02\n        /* \"Documents/GitHub/Store-system-with-feedback/main.sol\":6526:6527  i */\n      dup3\n        /* \"Documents/GitHub/Store-system-with-feedback/main.sol\":6517:6528  shopList[i] */\n      dup2\n      sload\n      dup2\n      lt\n      tag_252\n      jumpi\n      tag_252\n      tag_125\n      jump\t// in\n    tag_252:\n      swap1\n      0x00\n      mstore\n      keccak256(0x00, 0x20)\n      add\n        /* \"Documents/GitHub/Store-system-with-feedback/main.sol\":6488:6528  string memory tempShopName = shopList[i] */\n      dup1\n      sload\n      tag_254\n      swap1\n      tag_178\n      jump\t// in\n    tag_254:\n      dup1\n      0x1f\n      add\n      0x20\n      dup1\n      swap2\n      div\n      mul\n      0x20\n      add\n      mload(0x40)\n      swap1\n      dup2\n      add\n      0x40\n      mstore\n      dup1\n      swap3\n      swap2\n      swap1\n      dup2\n      dup2\n      mstore\n      0x20\n      add\n      dup3\n      dup1\n      sload\n      tag_255\n      swap1\n      tag_178\n      jump\t// in\n    tag_255:\n      dup1\n      iszero\n      tag_256\n      jumpi\n      dup1\n      0x1f\n      lt\n      tag_257\n      jumpi\n      0x0100\n      dup1\n      dup4\n      sload\n      div\n      mul\n      dup4\n      mstore\n      swap2\n      0x20\n      add\n      swap2\n      jump(tag_256)\n    tag_257:\n      dup3\n      add\n      swap2\n      swap1\n      0x00\n      mstore\n      keccak256(0x00, 0x20)\n      swap1\n    tag_258:\n      dup2\n      sload\n      dup2\n      mstore\n      swap1\n      0x01\n      add\n      swap1\n      0x20\n      add\n      dup1\n      dup4\n      gt\n      tag_258\n      jumpi\n      dup3\n      swap1\n      sub\n      0x1f\n      and\n      dup3\n      add\n      swap2\n    tag_256:\n      pop\n      pop\n      pop\n      pop\n      pop\n      swap1\n      pop\n        /* \"Documents/GitHub/Store-system-with-feedback/main.sol\":6618:6626  shopName */\n      dup6\n        /* \"Documents/GitHub/Store-system-with-feedback/main.sol\":6601:6627  abi.encodePacked(shopName) */\n      add(0x20, mload(0x40))\n      tag_259\n      swap2\n      swap1\n      tag_155\n      jump\t// in\n    tag_259:\n      mload(0x40)\n      0x20\n      dup2\n      dup4\n      sub\n      sub\n      dup2\n      mstore\n      swap1\n      0x40\n      mstore\n        /* \"Documents/GitHub/Store-system-with-feedback/main.sol\":6591:6628  keccak256(abi.encodePacked(shopName)) */\n      dup1\n      mload\n      swap1\n      0x20\n      add\n      keccak256\n        /* \"Documents/GitHub/Store-system-with-feedback/main.sol\":6573:6585  tempShopName */\n      dup2\n        /* \"Documents/GitHub/Store-system-with-feedback/main.sol\":6556:6586  abi.encodePacked(tempShopName) */\n      add(0x20, mload(0x40))\n      tag_260\n      swap2\n      swap1\n      tag_155\n      jump\t// in\n    tag_260:\n      mload(0x40)\n      0x20\n      dup2\n      dup4\n      sub\n      sub\n      dup2\n      mstore\n      swap1\n      0x40\n      mstore\n        /* \"Documents/GitHub/Store-system-with-feedback/main.sol\":6546:6587  keccak256(abi.encodePacked(tempShopName)) */\n      dup1\n      mload\n      swap1\n      0x20\n      add\n      keccak256\n        /* \"Documents/GitHub/Store-system-with-feedback/main.sol\":6546:6628  keccak256(abi.encodePacked(tempShopName)) == keccak256(abi.encodePacked(shopName)) */\n      eq\n        /* \"Documents/GitHub/Store-system-with-feedback/main.sol\":6543:7007  if(keccak256(abi.encodePacked(tempShopName)) == keccak256(abi.encodePacked(shopName))) {                    \r... */\n      iszero\n      tag_263\n      jumpi\n        /* \"Documents/GitHub/Store-system-with-feedback/main.sol\":6678:6679  0 */\n      0x00\n        /* \"Documents/GitHub/Store-system-with-feedback/main.sol\":6674:6679  i = 0 */\n      swap2\n      pop\n        /* \"Documents/GitHub/Store-system-with-feedback/main.sol\":6669:6992  for (i = 0; i <= complaintBooks.length; i++) {\r... */\n    tag_262:\n        /* \"Documents/GitHub/Store-system-with-feedback/main.sol\":6686:6700  complaintBooks */\n      0x03\n        /* \"Documents/GitHub/Store-system-with-feedback/main.sol\":6686:6707  complaintBooks.length */\n      sload\n        /* \"Documents/GitHub/Store-system-with-feedback/main.sol\":6681:6707  i <= complaintBooks.length */\n      dup3\n      gt\n        /* \"Documents/GitHub/Store-system-with-feedback/main.sol\":6669:6992  for (i = 0; i <= complaintBooks.length; i++) {\r... */\n      tag_263\n      jumpi\n        /* \"Documents/GitHub/Store-system-with-feedback/main.sol\":6808:6822  complaintBooks */\n      0x03\n        /* \"Documents/GitHub/Store-system-with-feedback/main.sol\":6823:6824  i */\n      dup3\n        /* \"Documents/GitHub/Store-system-with-feedback/main.sol\":6808:6825  complaintBooks[i] */\n      dup2\n      sload\n      dup2\n      lt\n      tag_266\n      jumpi\n      tag_266\n      tag_125\n      jump\t// in\n    tag_266:\n      swap1\n      0x00\n      mstore\n      keccak256(0x00, 0x20)\n      swap1\n      0x05\n      mul\n      add\n        /* \"Documents/GitHub/Store-system-with-feedback/main.sol\":6808:6830  complaintBooks[i].shop */\n      0x00\n      add\n        /* \"Documents/GitHub/Store-system-with-feedback/main.sol\":6791:6831  abi.encodePacked(complaintBooks[i].shop) */\n      add(0x20, mload(0x40))\n      tag_268\n      swap2\n      swap1\n      tag_131\n      jump\t// in\n    tag_268:\n      mload(0x40)\n      0x20\n      dup2\n      dup4\n      sub\n      sub\n      dup2\n      mstore\n      swap1\n      0x40\n      mstore\n        /* \"Documents/GitHub/Store-system-with-feedback/main.sol\":6781:6832  keccak256(abi.encodePacked(complaintBooks[i].shop)) */\n      dup1\n      mload\n      swap1\n      0x20\n      add\n      keccak256\n        /* \"Documents/GitHub/Store-system-with-feedback/main.sol\":6767:6775  shopName */\n      dup7\n        /* \"Documents/GitHub/Store-system-with-feedback/main.sol\":6750:6776  abi.encodePacked(shopName) */\n      add(0x20, mload(0x40))\n      tag_269\n      swap2\n      swap1\n      tag_155\n      jump\t// in\n    tag_269:\n      mload(0x40)\n      0x20\n      dup2\n      dup4\n      sub\n      sub\n      dup2\n      mstore\n      swap1\n      0x40\n      mstore\n        /* \"Documents/GitHub/Store-system-with-feedback/main.sol\":6740:6777  keccak256(abi.encodePacked(shopName)) */\n      dup1\n      mload\n      swap1\n      0x20\n      add\n      keccak256\n        /* \"Documents/GitHub/Store-system-with-feedback/main.sol\":6740:6832  keccak256(abi.encodePacked(shopName)) == keccak256(abi.encodePacked(complaintBooks[i].shop)) */\n      eq\n        /* \"Documents/GitHub/Store-system-with-feedback/main.sol\":6737:6973  if(keccak256(abi.encodePacked(shopName)) == keccak256(abi.encodePacked(complaintBooks[i].shop))) {\r... */\n      iszero\n      tag_270\n      jumpi\n        /* \"Documents/GitHub/Store-system-with-feedback/main.sol\":6881:6895  complaintBooks */\n      0x03\n        /* \"Documents/GitHub/Store-system-with-feedback/main.sol\":6896:6897  i */\n      dup3\n        /* \"Documents/GitHub/Store-system-with-feedback/main.sol\":6881:6898  complaintBooks[i] */\n      dup2\n      sload\n      dup2\n      lt\n      tag_272\n      jumpi\n      tag_272\n      tag_125\n      jump\t// in\n    tag_272:\n      swap1\n      0x00\n      mstore\n      keccak256(0x00, 0x20)\n      swap1\n      0x05\n      mul\n      add\n        /* \"Documents/GitHub/Store-system-with-feedback/main.sol\":6881:6905  complaintBooks[i].rating */\n      0x03\n      add\n      sload\n        /* \"Documents/GitHub/Store-system-with-feedback/main.sol\":6861:6905  countArrayRating += complaintBooks[i].rating */\n      dup4\n      tag_274\n      swap2\n      swap1\n      tag_145\n      jump\t// in\n    tag_274:\n      swap3\n      pop\n        /* \"Documents/GitHub/Store-system-with-feedback/main.sol\":6737:6973  if(keccak256(abi.encodePacked(shopName)) == keccak256(abi.encodePacked(complaintBooks[i].shop))) {\r... */\n    tag_270:\n        /* \"Documents/GitHub/Store-system-with-feedback/main.sol\":6709:6712  i++ */\n      dup2\n      tag_275\n      dup2\n      tag_192\n      jump\t// in\n    tag_275:\n      swap3\n      pop\n      pop\n        /* \"Documents/GitHub/Store-system-with-feedback/main.sol\":6669:6992  for (i = 0; i <= complaintBooks.length; i++) {\r... */\n      jump(tag_262)\n    tag_263:\n      pop\n        /* \"Documents/GitHub/Store-system-with-feedback/main.sol\":6468:6471  i++ */\n      dup1\n      tag_276\n      dup2\n      tag_192\n      jump\t// in\n    tag_276:\n      swap2\n      pop\n      pop\n        /* \"Documents/GitHub/Store-system-with-feedback/main.sol\":6431:7018  for(uint i = 0; i < shopList.length; i++) {\r... */\n      jump(tag_248)\n    tag_249:\n      pop\n        /* \"Documents/GitHub/Store-system-with-feedback/main.sol\":7048:7084  countArrayRating / totalAverageValue */\n      tag_277\n        /* \"Documents/GitHub/Store-system-with-feedback/main.sol\":7067:7084  totalAverageValue */\n      dup3\n        /* \"Documents/GitHub/Store-system-with-feedback/main.sol\":7048:7064  countArrayRating */\n      dup3\n        /* \"Documents/GitHub/Store-system-with-feedback/main.sol\":7048:7084  countArrayRating / totalAverageValue */\n      tag_278\n      jump\t// in\n    tag_277:\n        /* \"Documents/GitHub/Store-system-with-feedback/main.sol\":7028:7084  countArrayRating += countArrayRating / totalAverageValue */\n      tag_279\n      swap1\n      dup3\n      tag_145\n      jump\t// in\n    tag_279:\n      swap5\n        /* \"Documents/GitHub/Store-system-with-feedback/main.sol\":6273:7126  function getStoryRating(string memory shopName) public view returns(uint) {\r... */\n      swap4\n      pop\n      pop\n      pop\n      pop\n      jump\t// out\n        /* \"Documents/GitHub/Store-system-with-feedback/main.sol\":1949:1996  structStatusReturn[] public structStatusReturns */\n    tag_89:\n      0x0b\n      dup2\n      dup2\n      sload\n      dup2\n      lt\n      tag_233\n      jumpi\n      0x00\n      dup1\n      revert\n        /* \"Documents/GitHub/Store-system-with-feedback/main.sol\":7982:8136  function productReturn (string memory titleProduct) public {\r... */\n    tag_93:\n        /* \"Documents/GitHub/Store-system-with-feedback/main.sol\":8077:8127  structStatusReturn(msg.sender, titleProduct, true) */\n      0x40\n      dup1\n      mload\n      0x60\n      dup2\n      add\n      dup3\n      mstore\n        /* \"Documents/GitHub/Store-system-with-feedback/main.sol\":8096:8106  msg.sender */\n      caller\n        /* \"Documents/GitHub/Store-system-with-feedback/main.sol\":8077:8127  structStatusReturn(msg.sender, titleProduct, true) */\n      dup2\n      mstore\n      0x20\n      dup1\n      dup3\n      add\n      dup5\n      dup2\n      mstore\n        /* \"Documents/GitHub/Store-system-with-feedback/main.sol\":8122:8126  true */\n      0x01\n        /* \"Documents/GitHub/Store-system-with-feedback/main.sol\":8077:8127  structStatusReturn(msg.sender, titleProduct, true) */\n      swap4\n      dup4\n      add\n      dup5\n      swap1\n      mstore\n        /* \"Documents/GitHub/Store-system-with-feedback/main.sol\":8052:8071  structStatusReturns */\n      0x0b\n        /* \"Documents/GitHub/Store-system-with-feedback/main.sol\":8052:8128  structStatusReturns.push(structStatusReturn(msg.sender, titleProduct, true)) */\n      dup1\n      sload\n      swap5\n      dup6\n      add\n      dup2\n      sstore\n      0x00\n      mstore\n      dup3\n      mload\n      0x0175b7a638427703f0dbe7bb9bbf987a2551717b34e79f33b5b1008d1fa01db9\n      0x03\n      swap1\n      swap6\n      mul\n      swap5\n      dup6\n      add\n      dup1\n      sload\n      not(sub(shl(0xa0, 0x01), 0x01))\n      and\n      sub(shl(0xa0, 0x01), 0x01)\n      swap1\n      swap3\n      and\n      swap2\n      swap1\n      swap2\n      or\n      dup2\n      sstore\n      swap1\n      mload\n      dup1\n      mload\n        /* \"Documents/GitHub/Store-system-with-feedback/main.sol\":8077:8127  structStatusReturn(msg.sender, titleProduct, true) */\n      swap4\n      swap5\n        /* \"Documents/GitHub/Store-system-with-feedback/main.sol\":8052:8128  structStatusReturns.push(structStatusReturn(msg.sender, titleProduct, true)) */\n      swap2\n      swap4\n      tag_169\n      swap4\n      0x0175b7a638427703f0dbe7bb9bbf987a2551717b34e79f33b5b1008d1fa01dba\n      swap1\n      swap4\n      add\n      swap3\n      swap2\n      swap1\n      swap2\n      add\n      swap1\n      tag_160\n      jump\t// in\n        /* \"Documents/GitHub/Store-system-with-feedback/main.sol\":6011:6105  function getShopList() public view returns(string[] memory) {\r... */\n    tag_95:\n        /* \"Documents/GitHub/Store-system-with-feedback/main.sol\":6054:6069  string[] memory */\n      0x60\n        /* \"Documents/GitHub/Store-system-with-feedback/main.sol\":6089:6097  shopList */\n      0x02\n        /* \"Documents/GitHub/Store-system-with-feedback/main.sol\":6082:6097  return shopList */\n      dup1\n      sload\n      dup1\n      0x20\n      mul\n      0x20\n      add\n      mload(0x40)\n      swap1\n      dup2\n      add\n      0x40\n      mstore\n      dup1\n      swap3\n      swap2\n      swap1\n      dup2\n      dup2\n      mstore\n      0x20\n      add\n      0x00\n      swap1\n    tag_291:\n      dup3\n      dup3\n      lt\n      iszero\n      tag_218\n      jumpi\n      dup4\n      dup3\n      swap1\n      0x00\n      mstore\n      keccak256(0x00, 0x20)\n      add\n      dup1\n      sload\n      tag_294\n      swap1\n      tag_178\n      jump\t// in\n    tag_294:\n      dup1\n      0x1f\n      add\n      0x20\n      dup1\n      swap2\n      div\n      mul\n      0x20\n      add\n      mload(0x40)\n      swap1\n      dup2\n      add\n      0x40\n      mstore\n      dup1\n      swap3\n      swap2\n      swap1\n      dup2\n      dup2\n      mstore\n      0x20\n      add\n      dup3\n      dup1\n      sload\n      tag_295\n      swap1\n      tag_178\n      jump\t// in\n    tag_295:\n      dup1\n      iszero\n      tag_296\n      jumpi\n      dup1\n      0x1f\n      lt\n      tag_297\n      jumpi\n      0x0100\n      dup1\n      dup4\n      sload\n      div\n      mul\n      dup4\n      mstore\n      swap2\n      0x20\n      add\n      swap2\n      jump(tag_296)\n    tag_297:\n      dup3\n      add\n      swap2\n      swap1\n      0x00\n      mstore\n      keccak256(0x00, 0x20)\n      swap1\n    tag_298:\n      dup2\n      sload\n      dup2\n      mstore\n      swap1\n      0x01\n      add\n      swap1\n      0x20\n      add\n      dup1\n      dup4\n      gt\n      tag_298\n      jumpi\n      dup3\n      swap1\n      sub\n      0x1f\n      and\n      dup3\n      add\n      swap2\n    tag_296:\n      pop\n      pop\n      pop\n      pop\n      pop\n      dup2\n      mstore\n      0x20\n      add\n      swap1\n      0x01\n      add\n      swap1\n      jump(tag_291)\n        /* \"Documents/GitHub/Store-system-with-feedback/main.sol\":3585:4173  function leaveFeedback (string memory shop, string memory feedback, uint256 rating) public {\r... */\n    tag_104:\n        /* \"Documents/GitHub/Store-system-with-feedback/main.sol\":3705:3707  10 */\n      0x0a\n        /* \"Documents/GitHub/Store-system-with-feedback/main.sol\":3695:3701  rating */\n      dup2\n        /* \"Documents/GitHub/Store-system-with-feedback/main.sol\":3695:3707  rating <= 10 */\n      gt\n      iszero\n        /* \"Documents/GitHub/Store-system-with-feedback/main.sol\":3687:3744  require(rating <= 10,\"error: rating can be from 1 to 10\") */\n      tag_300\n      jumpi\n      mload(0x40)\n      shl(0xe5, 0x461bcd)\n      dup2\n      mstore\n        /* \"#utility.yul\":11773:11775   */\n      0x20\n        /* \"Documents/GitHub/Store-system-with-feedback/main.sol\":3687:3744  require(rating <= 10,\"error: rating can be from 1 to 10\") */\n      0x04\n      dup3\n      add\n        /* \"#utility.yul\":11755:11776   */\n      mstore\n        /* \"#utility.yul\":11812:11814   */\n      0x21\n        /* \"#utility.yul\":11792:11810   */\n      0x24\n      dup3\n      add\n        /* \"#utility.yul\":11785:11815   */\n      mstore\n        /* \"#utility.yul\":11851:11885   */\n      0x6572726f723a20726174696e672063616e2062652066726f6d203120746f2031\n        /* \"#utility.yul\":11831:11849   */\n      0x44\n      dup3\n      add\n        /* \"#utility.yul\":11824:11886   */\n      mstore\n      shl(0xfc, 0x03)\n        /* \"#utility.yul\":11902:11920   */\n      0x64\n      dup3\n      add\n        /* \"#utility.yul\":11895:11926   */\n      mstore\n        /* \"#utility.yul\":11943:11962   */\n      0x84\n      add\n        /* \"Documents/GitHub/Store-system-with-feedback/main.sol\":3687:3744  require(rating <= 10,\"error: rating can be from 1 to 10\") */\n      tag_152\n        /* \"#utility.yul\":11571:11968   */\n      jump\n        /* \"Documents/GitHub/Store-system-with-feedback/main.sol\":3687:3744  require(rating <= 10,\"error: rating can be from 1 to 10\") */\n    tag_300:\n        /* \"Documents/GitHub/Store-system-with-feedback/main.sol\":3759:3765  uint i */\n      0x00\n        /* \"Documents/GitHub/Store-system-with-feedback/main.sol\":3755:4166  for(uint i = 0; i <= shopList.length; i++) {\r... */\n    tag_303:\n        /* \"Documents/GitHub/Store-system-with-feedback/main.sol\":3776:3784  shopList */\n      0x02\n        /* \"Documents/GitHub/Store-system-with-feedback/main.sol\":3776:3791  shopList.length */\n      sload\n        /* \"Documents/GitHub/Store-system-with-feedback/main.sol\":3771:3791  i <= shopList.length */\n      dup2\n      gt\n        /* \"Documents/GitHub/Store-system-with-feedback/main.sol\":3755:4166  for(uint i = 0; i <= shopList.length; i++) {\r... */\n      tag_304\n      jumpi\n        /* \"Documents/GitHub/Store-system-with-feedback/main.sol\":3813:3839  string memory tempShopName */\n      0x00\n        /* \"Documents/GitHub/Store-system-with-feedback/main.sol\":3842:3850  shopList */\n      0x02\n        /* \"Documents/GitHub/Store-system-with-feedback/main.sol\":3851:3852  i */\n      dup3\n        /* \"Documents/GitHub/Store-system-with-feedback/main.sol\":3842:3853  shopList[i] */\n      dup2\n      sload\n      dup2\n      lt\n      tag_307\n      jumpi\n      tag_307\n      tag_125\n      jump\t// in\n    tag_307:\n      swap1\n      0x00\n      mstore\n      keccak256(0x00, 0x20)\n      add\n        /* \"Documents/GitHub/Store-system-with-feedback/main.sol\":3813:3853  string memory tempShopName = shopList[i] */\n      dup1\n      sload\n      tag_309\n      swap1\n      tag_178\n      jump\t// in\n    tag_309:\n      dup1\n      0x1f\n      add\n      0x20\n      dup1\n      swap2\n      div\n      mul\n      0x20\n      add\n      mload(0x40)\n      swap1\n      dup2\n      add\n      0x40\n      mstore\n      dup1\n      swap3\n      swap2\n      swap1\n      dup2\n      dup2\n      mstore\n      0x20\n      add\n      dup3\n      dup1\n      sload\n      tag_310\n      swap1\n      tag_178\n      jump\t// in\n    tag_310:\n      dup1\n      iszero\n      tag_311\n      jumpi\n      dup1\n      0x1f\n      lt\n      tag_312\n      jumpi\n      0x0100\n      dup1\n      dup4\n      sload\n      div\n      mul\n      dup4\n      mstore\n      swap2\n      0x20\n      add\n      swap2\n      jump(tag_311)\n    tag_312:\n      dup3\n      add\n      swap2\n      swap1\n      0x00\n      mstore\n      keccak256(0x00, 0x20)\n      swap1\n    tag_313:\n      dup2\n      sload\n      dup2\n      mstore\n      swap1\n      0x01\n      add\n      swap1\n      0x20\n      add\n      dup1\n      dup4\n      gt\n      tag_313\n      jumpi\n      dup3\n      swap1\n      sub\n      0x1f\n      and\n      dup3\n      add\n      swap2\n    tag_311:\n      pop\n      pop\n      pop\n      pop\n      pop\n      swap1\n      pop\n        /* \"Documents/GitHub/Store-system-with-feedback/main.sol\":3943:3947  shop */\n      dup5\n        /* \"Documents/GitHub/Store-system-with-feedback/main.sol\":3926:3948  abi.encodePacked(shop) */\n      add(0x20, mload(0x40))\n      tag_314\n      swap2\n      swap1\n      tag_155\n      jump\t// in\n    tag_314:\n      mload(0x40)\n      0x20\n      dup2\n      dup4\n      sub\n      sub\n      dup2\n      mstore\n      swap1\n      0x40\n      mstore\n        /* \"Documents/GitHub/Store-system-with-feedback/main.sol\":3916:3949  keccak256(abi.encodePacked(shop)) */\n      dup1\n      mload\n      swap1\n      0x20\n      add\n      keccak256\n        /* \"Documents/GitHub/Store-system-with-feedback/main.sol\":3898:3910  tempShopName */\n      dup2\n        /* \"Documents/GitHub/Store-system-with-feedback/main.sol\":3881:3911  abi.encodePacked(tempShopName) */\n      add(0x20, mload(0x40))\n      tag_315\n      swap2\n      swap1\n      tag_155\n      jump\t// in\n    tag_315:\n      mload(0x40)\n      0x20\n      dup2\n      dup4\n      sub\n      sub\n      dup2\n      mstore\n      swap1\n      0x40\n      mstore\n        /* \"Documents/GitHub/Store-system-with-feedback/main.sol\":3871:3912  keccak256(abi.encodePacked(tempShopName)) */\n      dup1\n      mload\n      swap1\n      0x20\n      add\n      keccak256\n        /* \"Documents/GitHub/Store-system-with-feedback/main.sol\":3871:3949  keccak256(abi.encodePacked(tempShopName)) == keccak256(abi.encodePacked(shop)) */\n      eq\n        /* \"Documents/GitHub/Store-system-with-feedback/main.sol\":3868:4155  if(keccak256(abi.encodePacked(tempShopName)) == keccak256(abi.encodePacked(shop))) {                    \r... */\n      iszero\n      tag_316\n      jumpi\n        /* \"Documents/GitHub/Store-system-with-feedback/main.sol\":4055:4138  complaintBook(shop, structUsers[msg.sender].userName, feedback, rating, zerroArray) */\n      0x40\n      dup1\n      mload\n      0xa0\n      dup2\n      add\n      dup3\n      mstore\n      dup7\n      dup2\n      mstore\n        /* \"Documents/GitHub/Store-system-with-feedback/main.sol\":4087:4097  msg.sender */\n      caller\n      0x00\n        /* \"Documents/GitHub/Store-system-with-feedback/main.sol\":4075:4098  structUsers[msg.sender] */\n      swap1\n      dup2\n      mstore\n        /* \"Documents/GitHub/Store-system-with-feedback/main.sol\":4075:4086  structUsers */\n      0x04\n        /* \"Documents/GitHub/Store-system-with-feedback/main.sol\":4055:4138  complaintBook(shop, structUsers[msg.sender].userName, feedback, rating, zerroArray) */\n      0x20\n        /* \"Documents/GitHub/Store-system-with-feedback/main.sol\":4075:4098  structUsers[msg.sender] */\n      swap1\n      dup2\n      mstore\n      swap3\n      swap1\n      keccak256\n        /* \"Documents/GitHub/Store-system-with-feedback/main.sol\":4055:4138  complaintBook(shop, structUsers[msg.sender].userName, feedback, rating, zerroArray) */\n      dup1\n      sload\n        /* \"Documents/GitHub/Store-system-with-feedback/main.sol\":3990:4016  string[] memory zerroArray */\n      0x60\n      swap4\n        /* \"Documents/GitHub/Store-system-with-feedback/main.sol\":4035:4049  complaintBooks */\n      0x03\n      swap4\n        /* \"Documents/GitHub/Store-system-with-feedback/main.sol\":4055:4138  complaintBook(shop, structUsers[msg.sender].userName, feedback, rating, zerroArray) */\n      swap3\n      swap1\n      dup4\n      add\n      swap2\n      tag_317\n      swap1\n      tag_178\n      jump\t// in\n    tag_317:\n      dup1\n      0x1f\n      add\n      0x20\n      dup1\n      swap2\n      div\n      mul\n      0x20\n      add\n      mload(0x40)\n      swap1\n      dup2\n      add\n      0x40\n      mstore\n      dup1\n      swap3\n      swap2\n      swap1\n      dup2\n      dup2\n      mstore\n      0x20\n      add\n      dup3\n      dup1\n      sload\n      tag_318\n      swap1\n      tag_178\n      jump\t// in\n    tag_318:\n      dup1\n      iszero\n      tag_319\n      jumpi\n      dup1\n      0x1f\n      lt\n      tag_320\n      jumpi\n      0x0100\n      dup1\n      dup4\n      sload\n      div\n      mul\n      dup4\n      mstore\n      swap2\n      0x20\n      add\n      swap2\n      jump(tag_319)\n    tag_320:\n      dup3\n      add\n      swap2\n      swap1\n      0x00\n      mstore\n      keccak256(0x00, 0x20)\n      swap1\n    tag_321:\n      dup2\n      sload\n      dup2\n      mstore\n      swap1\n      0x01\n      add\n      swap1\n      0x20\n      add\n      dup1\n      dup4\n      gt\n      tag_321\n      jumpi\n      dup3\n      swap1\n      sub\n      0x1f\n      and\n      dup3\n      add\n      swap2\n    tag_319:\n      pop\n      pop\n      pop\n      swap2\n      dup4\n      mstore\n      pop\n      pop\n      0x20\n      dup1\n      dup3\n      add\n      dup10\n      swap1\n      mstore\n      0x40\n      dup3\n      add\n      dup9\n      swap1\n      mstore\n      0x60\n      swap1\n      swap2\n      add\n      dup5\n      swap1\n      mstore\n        /* \"Documents/GitHub/Store-system-with-feedback/main.sol\":4035:4139  complaintBooks.push(complaintBook(shop, structUsers[msg.sender].userName, feedback, rating, zerroArray)) */\n      dup3\n      sload\n      0x01\n      dup2\n      add\n      dup5\n      sstore\n      0x00\n      swap4\n      dup5\n      mstore\n      swap3\n      dup2\n      swap1\n      keccak256\n      dup3\n      mload\n      dup1\n      mload\n      swap4\n      swap5\n      0x05\n      mul\n      swap1\n      swap2\n      add\n      swap3\n      tag_323\n      swap3\n      dup5\n      swap3\n      add\n      swap1\n      tag_160\n      jump\t// in\n    tag_323:\n      pop\n      0x20\n      dup3\n      dup2\n      add\n      mload\n      dup1\n      mload\n      tag_324\n      swap3\n      0x01\n      dup6\n      add\n      swap3\n      add\n      swap1\n      tag_160\n      jump\t// in\n    tag_324:\n      pop\n      0x40\n      dup3\n      add\n      mload\n      dup1\n      mload\n      tag_325\n      swap2\n      0x02\n      dup5\n      add\n      swap2\n      0x20\n      swap1\n      swap2\n      add\n      swap1\n      tag_160\n      jump\t// in\n    tag_325:\n      pop\n      0x60\n      dup3\n      add\n      mload\n      0x03\n      dup3\n      add\n      sstore\n      0x80\n      dup3\n      add\n      mload\n      dup1\n      mload\n      tag_326\n      swap2\n      0x04\n      dup5\n      add\n      swap2\n      0x20\n      swap1\n      swap2\n      add\n      swap1\n      tag_190\n      jump\t// in\n    tag_326:\n      pop\n      pop\n      pop\n        /* \"Documents/GitHub/Store-system-with-feedback/main.sol\":3951:4155  {                    \r... */\n      pop\n        /* \"Documents/GitHub/Store-system-with-feedback/main.sol\":3868:4155  if(keccak256(abi.encodePacked(tempShopName)) == keccak256(abi.encodePacked(shop))) {                    \r... */\n    tag_316:\n      pop\n        /* \"Documents/GitHub/Store-system-with-feedback/main.sol\":3793:3796  i++ */\n      dup1\n      tag_327\n      dup2\n      tag_192\n      jump\t// in\n    tag_327:\n      swap2\n      pop\n      pop\n        /* \"Documents/GitHub/Store-system-with-feedback/main.sol\":3755:4166  for(uint i = 0; i <= shopList.length; i++) {\r... */\n      jump(tag_303)\n    tag_304:\n      pop\n        /* \"Documents/GitHub/Store-system-with-feedback/main.sol\":3585:4173  function leaveFeedback (string memory shop, string memory feedback, uint256 rating) public {\r... */\n      pop\n      pop\n      pop\n      jump\t// out\n        /* \"Documents/GitHub/Store-system-with-feedback/main.sol\":9036:9466  function login_user(string memory login, bytes32 password) public {\r... */\n    tag_108:\n        /* \"Documents/GitHub/Store-system-with-feedback/main.sol\":9121:9132  structUsers */\n      0x04\n        /* \"Documents/GitHub/Store-system-with-feedback/main.sol\":9121:9157  structUsers[structUserLogins[login]] */\n      0x00\n        /* \"Documents/GitHub/Store-system-with-feedback/main.sol\":9133:9149  structUserLogins */\n      0x05\n        /* \"Documents/GitHub/Store-system-with-feedback/main.sol\":9150:9155  login */\n      dup5\n        /* \"Documents/GitHub/Store-system-with-feedback/main.sol\":9133:9156  structUserLogins[login] */\n      mload(0x40)\n      tag_329\n      swap2\n      swap1\n      tag_155\n      jump\t// in\n    tag_329:\n      swap1\n      dup2\n      mstore\n      0x40\n      dup1\n      mload\n      0x20\n      swap3\n      dup2\n      swap1\n      sub\n      dup4\n      add\n      swap1\n      keccak256\n      sload\n      sub(shl(0xa0, 0x01), 0x01)\n      and\n        /* \"Documents/GitHub/Store-system-with-feedback/main.sol\":9121:9157  structUsers[structUserLogins[login]] */\n      dup4\n      mstore\n      swap1\n      dup3\n      add\n      swap3\n      swap1\n      swap3\n      mstore\n      add\n      0x00\n      keccak256\n        /* \"Documents/GitHub/Store-system-with-feedback/main.sol\":9121:9164  structUsers[structUserLogins[login]].logged */\n      0x04\n      add\n      sload\n      0xff\n      and\n        /* \"Documents/GitHub/Store-system-with-feedback/main.sol\":9121:9173  structUsers[structUserLogins[login]].logged == false */\n      iszero\n        /* \"Documents/GitHub/Store-system-with-feedback/main.sol\":9113:9207  require(structUsers[structUserLogins[login]].logged == false, \"Error: You are already logged\") */\n      tag_330\n      jumpi\n      mload(0x40)\n      shl(0xe5, 0x461bcd)\n      dup2\n      mstore\n        /* \"#utility.yul\":11415:11417   */\n      0x20\n        /* \"Documents/GitHub/Store-system-with-feedback/main.sol\":9113:9207  require(structUsers[structUserLogins[login]].logged == false, \"Error: You are already logged\") */\n      0x04\n      dup3\n      add\n        /* \"#utility.yul\":11397:11418   */\n      mstore\n        /* \"#utility.yul\":11454:11456   */\n      0x1d\n        /* \"#utility.yul\":11434:11452   */\n      0x24\n      dup3\n      add\n        /* \"#utility.yul\":11427:11457   */\n      mstore\n        /* \"#utility.yul\":11493:11524   */\n      0x4572726f723a20596f752061726520616c7265616479206c6f67676564000000\n        /* \"#utility.yul\":11473:11491   */\n      0x44\n      dup3\n      add\n        /* \"#utility.yul\":11466:11525   */\n      mstore\n        /* \"#utility.yul\":11542:11560   */\n      0x64\n      add\n        /* \"Documents/GitHub/Store-system-with-feedback/main.sol\":9113:9207  require(structUsers[structUserLogins[login]].logged == false, \"Error: You are already logged\") */\n      tag_152\n        /* \"#utility.yul\":11213:11566   */\n      jump\n        /* \"Documents/GitHub/Store-system-with-feedback/main.sol\":9113:9207  require(structUsers[structUserLogins[login]].logged == false, \"Error: You are already logged\") */\n    tag_330:\n        /* \"Documents/GitHub/Store-system-with-feedback/main.sol\":9261:9262  0 */\n      0x00\n      sub(shl(0xa0, 0x01), 0x01)\n        /* \"Documents/GitHub/Store-system-with-feedback/main.sol\":9226:9263  structUserLogins[login] != address(0) */\n      and\n        /* \"Documents/GitHub/Store-system-with-feedback/main.sol\":9226:9242  structUserLogins */\n      0x05\n        /* \"Documents/GitHub/Store-system-with-feedback/main.sol\":9243:9248  login */\n      dup4\n        /* \"Documents/GitHub/Store-system-with-feedback/main.sol\":9226:9249  structUserLogins[login] */\n      mload(0x40)\n      tag_333\n      swap2\n      swap1\n      tag_155\n      jump\t// in\n    tag_333:\n      swap1\n      dup2\n      mstore\n      mload(0x40)\n      swap1\n      dup2\n      swap1\n      sub\n      0x20\n      add\n      swap1\n      keccak256\n      sload\n      sub(shl(0xa0, 0x01), 0x01)\n      and\n        /* \"Documents/GitHub/Store-system-with-feedback/main.sol\":9226:9263  structUserLogins[login] != address(0) */\n      eq\n      iszero\n        /* \"Documents/GitHub/Store-system-with-feedback/main.sol\":9218:9293  require(structUserLogins[login] != address(0), \"Error: User doesn't exist\") */\n      tag_334\n      jumpi\n      mload(0x40)\n      shl(0xe5, 0x461bcd)\n      dup2\n      mstore\n        /* \"#utility.yul\":10716:10718   */\n      0x20\n        /* \"Documents/GitHub/Store-system-with-feedback/main.sol\":9218:9293  require(structUserLogins[login] != address(0), \"Error: User doesn't exist\") */\n      0x04\n      dup3\n      add\n        /* \"#utility.yul\":10698:10719   */\n      mstore\n        /* \"#utility.yul\":10755:10757   */\n      0x19\n        /* \"#utility.yul\":10735:10753   */\n      0x24\n      dup3\n      add\n        /* \"#utility.yul\":10728:10758   */\n      mstore\n      shl(0x3a, 0x115c9c9bdc8e88155cd95c88191bd95cdb89dd08195e1a5cdd)\n        /* \"#utility.yul\":10774:10792   */\n      0x44\n      dup3\n      add\n        /* \"#utility.yul\":10767:10822   */\n      mstore\n        /* \"#utility.yul\":10839:10857   */\n      0x64\n      add\n        /* \"Documents/GitHub/Store-system-with-feedback/main.sol\":9218:9293  require(structUserLogins[login] != address(0), \"Error: User doesn't exist\") */\n      tag_152\n        /* \"#utility.yul\":10514:10863   */\n      jump\n        /* \"Documents/GitHub/Store-system-with-feedback/main.sol\":9218:9293  require(structUserLogins[login] != address(0), \"Error: User doesn't exist\") */\n    tag_334:\n        /* \"Documents/GitHub/Store-system-with-feedback/main.sol\":9361:9369  password */\n      dup1\n        /* \"Documents/GitHub/Store-system-with-feedback/main.sol\":9312:9323  structUsers */\n      0x04\n        /* \"Documents/GitHub/Store-system-with-feedback/main.sol\":9312:9348  structUsers[structUserLogins[login]] */\n      0x00\n        /* \"Documents/GitHub/Store-system-with-feedback/main.sol\":9324:9340  structUserLogins */\n      0x05\n        /* \"Documents/GitHub/Store-system-with-feedback/main.sol\":9341:9346  login */\n      dup6\n        /* \"Documents/GitHub/Store-system-with-feedback/main.sol\":9324:9347  structUserLogins[login] */\n      mload(0x40)\n      tag_337\n      swap2\n      swap1\n      tag_155\n      jump\t// in\n    tag_337:\n      swap1\n      dup2\n      mstore\n      0x40\n      dup1\n      mload\n      0x20\n      swap3\n      dup2\n      swap1\n      sub\n      dup4\n      add\n      swap1\n      keccak256\n      sload\n      sub(shl(0xa0, 0x01), 0x01)\n      and\n        /* \"Documents/GitHub/Store-system-with-feedback/main.sol\":9312:9348  structUsers[structUserLogins[login]] */\n      dup4\n      mstore\n      swap1\n      dup3\n      add\n      swap3\n      swap1\n      swap3\n      mstore\n      add\n      0x00\n      keccak256\n        /* \"Documents/GitHub/Store-system-with-feedback/main.sol\":9324:9347  structUserLogins[login] */\n      0x01\n        /* \"Documents/GitHub/Store-system-with-feedback/main.sol\":9312:9357  structUsers[structUserLogins[login]].password */\n      add\n      sload\n        /* \"Documents/GitHub/Store-system-with-feedback/main.sol\":9312:9369  structUsers[structUserLogins[login]].password == password */\n      eq\n        /* \"Documents/GitHub/Store-system-with-feedback/main.sol\":9304:9397  require(structUsers[structUserLogins[login]].password == password, \"Error: Invalid password\") */\n      tag_338\n      jumpi\n      mload(0x40)\n      shl(0xe5, 0x461bcd)\n      dup2\n      mstore\n        /* \"#utility.yul\":10364:10366   */\n      0x20\n        /* \"Documents/GitHub/Store-system-with-feedback/main.sol\":9304:9397  require(structUsers[structUserLogins[login]].password == password, \"Error: Invalid password\") */\n      0x04\n      dup3\n      add\n        /* \"#utility.yul\":10346:10367   */\n      mstore\n        /* \"#utility.yul\":10403:10405   */\n      0x17\n        /* \"#utility.yul\":10383:10401   */\n      0x24\n      dup3\n      add\n        /* \"#utility.yul\":10376:10406   */\n      mstore\n      shl(0x4a, 0x115c9c9bdc8e88125b9d985b1a59081c185cdcdddbdc99)\n        /* \"#utility.yul\":10422:10440   */\n      0x44\n      dup3\n      add\n        /* \"#utility.yul\":10415:10468   */\n      mstore\n        /* \"#utility.yul\":10485:10503   */\n      0x64\n      add\n        /* \"Documents/GitHub/Store-system-with-feedback/main.sol\":9304:9397  require(structUsers[structUserLogins[login]].password == password, \"Error: Invalid password\") */\n      tag_152\n        /* \"#utility.yul\":10162:10509   */\n      jump\n        /* \"Documents/GitHub/Store-system-with-feedback/main.sol\":9304:9397  require(structUsers[structUserLogins[login]].password == password, \"Error: Invalid password\") */\n    tag_338:\n        /* \"Documents/GitHub/Store-system-with-feedback/main.sol\":9454:9458  true */\n      0x01\n        /* \"Documents/GitHub/Store-system-with-feedback/main.sol\":9408:9419  structUsers */\n      0x04\n        /* \"Documents/GitHub/Store-system-with-feedback/main.sol\":9408:9444  structUsers[structUserLogins[login]] */\n      0x00\n        /* \"Documents/GitHub/Store-system-with-feedback/main.sol\":9420:9436  structUserLogins */\n      0x05\n        /* \"Documents/GitHub/Store-system-with-feedback/main.sol\":9437:9442  login */\n      dup6\n        /* \"Documents/GitHub/Store-system-with-feedback/main.sol\":9420:9443  structUserLogins[login] */\n      mload(0x40)\n      tag_341\n      swap2\n      swap1\n      tag_155\n      jump\t// in\n    tag_341:\n      swap1\n      dup2\n      mstore\n      0x40\n      dup1\n      mload\n      0x20\n      swap3\n      dup2\n      swap1\n      sub\n      dup4\n      add\n      swap1\n      keccak256\n      sload\n      sub(shl(0xa0, 0x01), 0x01)\n      and\n        /* \"Documents/GitHub/Store-system-with-feedback/main.sol\":9408:9444  structUsers[structUserLogins[login]] */\n      dup4\n      mstore\n      swap1\n      dup3\n      add\n      swap3\n      swap1\n      swap3\n      mstore\n      add\n      0x00\n      keccak256\n        /* \"Documents/GitHub/Store-system-with-feedback/main.sol\":9408:9451  structUsers[structUserLogins[login]].logged */\n      0x04\n      add\n        /* \"Documents/GitHub/Store-system-with-feedback/main.sol\":9408:9458  structUsers[structUserLogins[login]].logged = true */\n      dup1\n      sload\n      not(0xff)\n      and\n      swap2\n      iszero\n      iszero\n      swap2\n      swap1\n      swap2\n      or\n      swap1\n      sstore\n      pop\n      pop\n        /* \"Documents/GitHub/Store-system-with-feedback/main.sol\":9036:9466  function login_user(string memory login, bytes32 password) public {\r... */\n      jump\t// out\n        /* \"Documents/GitHub/Store-system-with-feedback/main.sol\":1498:1552  mapping(string => structProduct) public structProducts */\n    tag_111:\n      dup1\n      mload\n      0x20\n      dup2\n      dup4\n      add\n      dup2\n      add\n      dup1\n      mload\n      0x08\n      dup3\n      mstore\n      swap3\n      dup3\n      add\n      swap2\n      swap1\n      swap4\n      add\n      keccak256\n      swap2\n      mstore\n      dup1\n      sload\n      0x01\n      dup3\n      add\n      dup1\n      sload\n      sub(shl(0xa0, 0x01), 0x01)\n      swap1\n      swap3\n      and\n      swap3\n      swap2\n      tag_342\n      swap1\n      tag_178\n      jump\t// in\n    tag_342:\n      dup1\n      0x1f\n      add\n      0x20\n      dup1\n      swap2\n      div\n      mul\n      0x20\n      add\n      mload(0x40)\n      swap1\n      dup2\n      add\n      0x40\n      mstore\n      dup1\n      swap3\n      swap2\n      swap1\n      dup2\n      dup2\n      mstore\n      0x20\n      add\n      dup3\n      dup1\n      sload\n      tag_343\n      swap1\n      tag_178\n      jump\t// in\n    tag_343:\n      dup1\n      iszero\n      tag_344\n      jumpi\n      dup1\n      0x1f\n      lt\n      tag_345\n      jumpi\n      0x0100\n      dup1\n      dup4\n      sload\n      div\n      mul\n      dup4\n      mstore\n      swap2\n      0x20\n      add\n      swap2\n      jump(tag_344)\n    tag_345:\n      dup3\n      add\n      swap2\n      swap1\n      0x00\n      mstore\n      keccak256(0x00, 0x20)\n      swap1\n    tag_346:\n      dup2\n      sload\n      dup2\n      mstore\n      swap1\n      0x01\n      add\n      swap1\n      0x20\n      add\n      dup1\n      dup4\n      gt\n      tag_346\n      jumpi\n      dup3\n      swap1\n      sub\n      0x1f\n      and\n      dup3\n      add\n      swap2\n    tag_344:\n      pop\n      pop\n      pop\n      pop\n      pop\n      swap1\n      dup1\n      0x02\n      add\n      sload\n      swap1\n      dup1\n      0x03\n      add\n      sload\n      swap1\n      pop\n      dup5\n      jump\t// out\n        /* \"Documents/GitHub/Store-system-with-feedback/main.sol\":1741:1792  structStatusPurchase[] public structStatusPurchases */\n    tag_116:\n      0x0a\n      dup2\n      dup2\n      sload\n      dup2\n      lt\n      tag_233\n      jumpi\n      0x00\n      dup1\n      revert\n        /* \"Documents/GitHub/Store-system-with-feedback/main.sol\":5400:5977  function MarriageRegistration(uint idMarriageRegistration, bool confirmation) public {\r... */\n    tag_120:\n        /* \"Documents/GitHub/Store-system-with-feedback/main.sol\":5515:5519  true */\n      0x01\n        /* \"Documents/GitHub/Store-system-with-feedback/main.sol\":5499:5519  confirmation == true */\n      dup2\n      iszero\n      iszero\n      eq\n        /* \"Documents/GitHub/Store-system-with-feedback/main.sol\":5496:5970  if(confirmation == true) {\r... */\n      iszero\n      tag_194\n      jumpi\n        /* \"Documents/GitHub/Store-system-with-feedback/main.sol\":5708:5722  structProducts */\n      0x08\n        /* \"Documents/GitHub/Store-system-with-feedback/main.sol\":5723:5750  structMarriageRegistrations */\n      0x0c\n        /* \"Documents/GitHub/Store-system-with-feedback/main.sol\":5751:5773  idMarriageRegistration */\n      dup4\n        /* \"Documents/GitHub/Store-system-with-feedback/main.sol\":5723:5774  structMarriageRegistrations[idMarriageRegistration] */\n      dup2\n      sload\n      dup2\n      lt\n      tag_357\n      jumpi\n      tag_357\n      tag_125\n      jump\t// in\n    tag_357:\n      swap1\n      0x00\n      mstore\n      keccak256(0x00, 0x20)\n      swap1\n      0x03\n      mul\n      add\n        /* \"Documents/GitHub/Store-system-with-feedback/main.sol\":5723:5787  structMarriageRegistrations[idMarriageRegistration].titleProduct */\n      0x01\n      add\n        /* \"Documents/GitHub/Store-system-with-feedback/main.sol\":5708:5788  structProducts[structMarriageRegistrations[idMarriageRegistration].titleProduct] */\n      mload(0x40)\n      tag_359\n      swap2\n      swap1\n      tag_131\n      jump\t// in\n    tag_359:\n      swap1\n      dup2\n      mstore\n      0x20\n      add\n      mload(0x40)\n      dup1\n      swap2\n      sub\n      swap1\n      keccak256\n        /* \"Documents/GitHub/Store-system-with-feedback/main.sol\":5708:5794  structProducts[structMarriageRegistrations[idMarriageRegistration].titleProduct].price */\n      0x02\n      add\n      sload\n        /* \"Documents/GitHub/Store-system-with-feedback/main.sol\":5622:5633  structUsers */\n      0x04\n        /* \"Documents/GitHub/Store-system-with-feedback/main.sol\":5622:5696  structUsers[structMarriageRegistrations[idMarriageRegistration].userLogin] */\n      0x00\n        /* \"Documents/GitHub/Store-system-with-feedback/main.sol\":5634:5661  structMarriageRegistrations */\n      0x0c\n        /* \"Documents/GitHub/Store-system-with-feedback/main.sol\":5662:5684  idMarriageRegistration */\n      dup6\n        /* \"Documents/GitHub/Store-system-with-feedback/main.sol\":5634:5685  structMarriageRegistrations[idMarriageRegistration] */\n      dup2\n      sload\n      dup2\n      lt\n      tag_361\n      jumpi\n      tag_361\n      tag_125\n      jump\t// in\n    tag_361:\n      0x00\n      swap2\n      dup3\n      mstore\n      0x20\n      dup1\n      dup4\n      keccak256\n      0x03\n      swap1\n      swap3\n      mul\n      swap1\n      swap2\n      add\n        /* \"Documents/GitHub/Store-system-with-feedback/main.sol\":5634:5695  structMarriageRegistrations[idMarriageRegistration].userLogin */\n      sload\n      sub(shl(0xa0, 0x01), 0x01)\n      and\n        /* \"Documents/GitHub/Store-system-with-feedback/main.sol\":5622:5696  structUsers[structMarriageRegistrations[idMarriageRegistration].userLogin] */\n      dup4\n      mstore\n      dup3\n      add\n      swap3\n      swap1\n      swap3\n      mstore\n      0x40\n      add\n      swap1\n      keccak256\n        /* \"Documents/GitHub/Store-system-with-feedback/main.sol\":5622:5705  structUsers[structMarriageRegistrations[idMarriageRegistration].userLogin].ballance */\n      0x02\n      add\n      sload\n        /* \"Documents/GitHub/Store-system-with-feedback/main.sol\":5622:5794  structUsers[structMarriageRegistrations[idMarriageRegistration].userLogin].ballance + structProducts[structMarriageRegistrations[idMarriageRegistration].titleProduct].price */\n      tag_363\n      swap2\n      swap1\n      tag_145\n      jump\t// in\n    tag_363:\n        /* \"Documents/GitHub/Store-system-with-feedback/main.sol\":5536:5547  structUsers */\n      0x04\n        /* \"Documents/GitHub/Store-system-with-feedback/main.sol\":5536:5610  structUsers[structMarriageRegistrations[idMarriageRegistration].userLogin] */\n      0x00\n        /* \"Documents/GitHub/Store-system-with-feedback/main.sol\":5548:5575  structMarriageRegistrations */\n      0x0c\n        /* \"Documents/GitHub/Store-system-with-feedback/main.sol\":5576:5598  idMarriageRegistration */\n      dup6\n        /* \"Documents/GitHub/Store-system-with-feedback/main.sol\":5548:5599  structMarriageRegistrations[idMarriageRegistration] */\n      dup2\n      sload\n      dup2\n      lt\n      tag_365\n      jumpi\n      tag_365\n      tag_125\n      jump\t// in\n    tag_365:\n      0x00\n      swap2\n      dup3\n      mstore\n      0x20\n      dup1\n      dup4\n      keccak256\n      0x03\n      swap1\n      swap3\n      mul\n      swap1\n      swap2\n      add\n        /* \"Documents/GitHub/Store-system-with-feedback/main.sol\":5548:5609  structMarriageRegistrations[idMarriageRegistration].userLogin */\n      sload\n      sub(shl(0xa0, 0x01), 0x01)\n      and\n        /* \"Documents/GitHub/Store-system-with-feedback/main.sol\":5536:5610  structUsers[structMarriageRegistrations[idMarriageRegistration].userLogin] */\n      dup4\n      mstore\n      dup3\n      add\n      swap3\n      swap1\n      swap3\n      mstore\n      0x40\n      add\n      dup2\n      keccak256\n        /* \"Documents/GitHub/Store-system-with-feedback/main.sol\":5536:5619  structUsers[structMarriageRegistrations[idMarriageRegistration].userLogin].ballance */\n      0x02\n      add\n        /* \"Documents/GitHub/Store-system-with-feedback/main.sol\":5536:5794  structUsers[structMarriageRegistrations[idMarriageRegistration].userLogin].ballance = structUsers[structMarriageRegistrations[idMarriageRegistration].userLogin].ballance + structProducts[structMarriageRegistrations[idMarriageRegistration].titleProduct].price */\n      swap2\n      swap1\n      swap2\n      sstore\n        /* \"Documents/GitHub/Store-system-with-feedback/main.sol\":5809:5828  structStatusReturns */\n      0x0b\n        /* \"Documents/GitHub/Store-system-with-feedback/main.sol\":5809:5852  structStatusReturns[idMarriageRegistration] */\n      dup1\n      sload\n        /* \"Documents/GitHub/Store-system-with-feedback/main.sol\":5829:5851  idMarriageRegistration */\n      dup5\n      swap1\n        /* \"Documents/GitHub/Store-system-with-feedback/main.sol\":5809:5852  structStatusReturns[idMarriageRegistration] */\n      dup2\n      lt\n      tag_148\n      jumpi\n      tag_148\n      tag_125\n      jump\t// in\n    tag_160:\n      dup3\n      dup1\n      sload\n      tag_374\n      swap1\n      tag_178\n      jump\t// in\n    tag_374:\n      swap1\n      0x00\n      mstore\n      keccak256(0x00, 0x20)\n      swap1\n      0x1f\n      add\n      0x20\n      swap1\n      div\n      dup2\n      add\n      swap3\n      dup3\n      tag_376\n      jumpi\n      0x00\n      dup6\n      sstore\n      jump(tag_379)\n    tag_376:\n      dup3\n      0x1f\n      lt\n      tag_377\n      jumpi\n      dup1\n      mload\n      not(0xff)\n      and\n      dup4\n      dup1\n      add\n      or\n      dup6\n      sstore\n      jump(tag_379)\n    tag_377:\n      dup3\n      dup1\n      add\n      0x01\n      add\n      dup6\n      sstore\n      dup3\n      iszero\n      tag_379\n      jumpi\n      swap2\n      dup3\n      add\n    tag_378:\n      dup3\n      dup2\n      gt\n      iszero\n      tag_379\n      jumpi\n      dup3\n      mload\n      dup3\n      sstore\n      swap2\n      0x20\n      add\n      swap2\n      swap1\n      0x01\n      add\n      swap1\n      jump(tag_378)\n    tag_379:\n      pop\n      tag_380\n      swap3\n      swap2\n      pop\n      tag_381\n      jump\t// in\n    tag_380:\n      pop\n      swap1\n      jump\t// out\n    tag_190:\n      dup3\n      dup1\n      sload\n      dup3\n      dup3\n      sstore\n      swap1\n      0x00\n      mstore\n      keccak256(0x00, 0x20)\n      swap1\n      dup2\n      add\n      swap3\n      dup3\n      iszero\n      tag_384\n      jumpi\n      swap2\n      0x20\n      mul\n      dup3\n      add\n    tag_383:\n      dup3\n      dup2\n      gt\n      iszero\n      tag_384\n      jumpi\n      dup3\n      mload\n      dup1\n      mload\n      tag_385\n      swap2\n      dup5\n      swap2\n      0x20\n      swap1\n      swap2\n      add\n      swap1\n      tag_160\n      jump\t// in\n    tag_385:\n      pop\n      swap2\n      0x20\n      add\n      swap2\n      swap1\n      0x01\n      add\n      swap1\n      jump(tag_383)\n    tag_384:\n      pop\n      tag_380\n      swap3\n      swap2\n      pop\n      tag_387\n      jump\t// in\n    tag_381:\n    tag_388:\n      dup1\n      dup3\n      gt\n      iszero\n      tag_380\n      jumpi\n      0x00\n      dup2\n      sstore\n      0x01\n      add\n      jump(tag_388)\n    tag_387:\n      dup1\n      dup3\n      gt\n      iszero\n      tag_380\n      jumpi\n      0x00\n      tag_392\n      dup3\n      dup3\n      tag_393\n      jump\t// in\n    tag_392:\n      pop\n      0x01\n      add\n      jump(tag_387)\n    tag_393:\n      pop\n      dup1\n      sload\n      tag_394\n      swap1\n      tag_178\n      jump\t// in\n    tag_394:\n      0x00\n      dup3\n      sstore\n      dup1\n      0x1f\n      lt\n      tag_396\n      jumpi\n      pop\n      pop\n      jump\t// out\n    tag_396:\n      0x1f\n      add\n      0x20\n      swap1\n      div\n      swap1\n      0x00\n      mstore\n      keccak256(0x00, 0x20)\n      swap1\n      dup2\n      add\n      swap1\n      tag_397\n      swap2\n      swap1\n      tag_381\n      jump\t// in\n    tag_397:\n      pop\n      jump\t// out\n        /* \"#utility.yul\":14:187   */\n    tag_399:\n        /* \"#utility.yul\":82:102   */\n      dup1\n      calldataload\n      sub(shl(0xa0, 0x01), 0x01)\n        /* \"#utility.yul\":131:162   */\n      dup2\n      and\n        /* \"#utility.yul\":121:163   */\n      dup2\n      eq\n        /* \"#utility.yul\":111:181   */\n      tag_401\n      jumpi\n        /* \"#utility.yul\":177:178   */\n      0x00\n        /* \"#utility.yul\":174:175   */\n      dup1\n        /* \"#utility.yul\":167:179   */\n      revert\n        /* \"#utility.yul\":111:181   */\n    tag_401:\n        /* \"#utility.yul\":14:187   */\n      swap2\n      swap1\n      pop\n      jump\t// out\n        /* \"#utility.yul\":192:723   */\n    tag_402:\n        /* \"#utility.yul\":235:240   */\n      0x00\n        /* \"#utility.yul\":288:291   */\n      dup3\n        /* \"#utility.yul\":281:285   */\n      0x1f\n        /* \"#utility.yul\":273:279   */\n      dup4\n        /* \"#utility.yul\":269:286   */\n      add\n        /* \"#utility.yul\":265:292   */\n      slt\n        /* \"#utility.yul\":255:310   */\n      tag_404\n      jumpi\n        /* \"#utility.yul\":306:307   */\n      0x00\n        /* \"#utility.yul\":303:304   */\n      dup1\n        /* \"#utility.yul\":296:308   */\n      revert\n        /* \"#utility.yul\":255:310   */\n    tag_404:\n        /* \"#utility.yul\":329:349   */\n      dup2\n      calldataload\n      sub(shl(0x40, 0x01), 0x01)\n        /* \"#utility.yul\":361:387   */\n      dup2\n      gt\n        /* \"#utility.yul\":358:410   */\n      iszero\n      tag_406\n      jumpi\n        /* \"#utility.yul\":390:408   */\n      tag_406\n      tag_407\n      jump\t// in\n    tag_406:\n        /* \"#utility.yul\":434:489   */\n      tag_408\n        /* \"#utility.yul\":477:479   */\n      0x1f\n        /* \"#utility.yul\":458:471   */\n      dup3\n      add\n      not(0x1f)\n        /* \"#utility.yul\":454:481   */\n      and\n        /* \"#utility.yul\":483:487   */\n      0x20\n        /* \"#utility.yul\":450:488   */\n      add\n        /* \"#utility.yul\":434:489   */\n      tag_409\n      jump\t// in\n    tag_408:\n        /* \"#utility.yul\":514:516   */\n      dup2\n        /* \"#utility.yul\":505:512   */\n      dup2\n        /* \"#utility.yul\":498:517   */\n      mstore\n        /* \"#utility.yul\":560:563   */\n      dup5\n        /* \"#utility.yul\":553:557   */\n      0x20\n        /* \"#utility.yul\":548:550   */\n      dup4\n        /* \"#utility.yul\":540:546   */\n      dup7\n        /* \"#utility.yul\":536:551   */\n      add\n        /* \"#utility.yul\":532:558   */\n      add\n        /* \"#utility.yul\":529:564   */\n      gt\n        /* \"#utility.yul\":526:581   */\n      iszero\n      tag_410\n      jumpi\n        /* \"#utility.yul\":577:578   */\n      0x00\n        /* \"#utility.yul\":574:575   */\n      dup1\n        /* \"#utility.yul\":567:579   */\n      revert\n        /* \"#utility.yul\":526:581   */\n    tag_410:\n        /* \"#utility.yul\":642:644   */\n      dup2\n        /* \"#utility.yul\":635:639   */\n      0x20\n        /* \"#utility.yul\":627:633   */\n      dup6\n        /* \"#utility.yul\":623:640   */\n      add\n        /* \"#utility.yul\":616:620   */\n      0x20\n        /* \"#utility.yul\":607:614   */\n      dup4\n        /* \"#utility.yul\":603:621   */\n      add\n        /* \"#utility.yul\":590:645   */\n      calldatacopy\n        /* \"#utility.yul\":690:691   */\n      0x00\n        /* \"#utility.yul\":665:681   */\n      swap2\n      dup2\n      add\n        /* \"#utility.yul\":683:687   */\n      0x20\n        /* \"#utility.yul\":661:688   */\n      add\n        /* \"#utility.yul\":654:692   */\n      swap2\n      swap1\n      swap2\n      mstore\n        /* \"#utility.yul\":669:676   */\n      swap4\n        /* \"#utility.yul\":192:723   */\n      swap3\n      pop\n      pop\n      pop\n      jump\t// out\n        /* \"#utility.yul\":728:914   */\n    tag_78:\n        /* \"#utility.yul\":787:793   */\n      0x00\n        /* \"#utility.yul\":840:842   */\n      0x20\n        /* \"#utility.yul\":828:837   */\n      dup3\n        /* \"#utility.yul\":819:826   */\n      dup5\n        /* \"#utility.yul\":815:838   */\n      sub\n        /* \"#utility.yul\":811:843   */\n      slt\n        /* \"#utility.yul\":808:860   */\n      iszero\n      tag_412\n      jumpi\n        /* \"#utility.yul\":856:857   */\n      0x00\n        /* \"#utility.yul\":853:854   */\n      dup1\n        /* \"#utility.yul\":846:858   */\n      revert\n        /* \"#utility.yul\":808:860   */\n    tag_412:\n        /* \"#utility.yul\":879:908   */\n      tag_413\n        /* \"#utility.yul\":898:907   */\n      dup3\n        /* \"#utility.yul\":879:908   */\n      tag_399\n      jump\t// in\n    tag_413:\n        /* \"#utility.yul\":869:908   */\n      swap4\n        /* \"#utility.yul\":728:914   */\n      swap3\n      pop\n      pop\n      pop\n      jump\t// out\n        /* \"#utility.yul\":919:1383   */\n    tag_32:\n        /* \"#utility.yul\":1006:1012   */\n      0x00\n        /* \"#utility.yul\":1014:1020   */\n      dup1\n        /* \"#utility.yul\":1022:1028   */\n      0x00\n        /* \"#utility.yul\":1075:1077   */\n      0x60\n        /* \"#utility.yul\":1063:1072   */\n      dup5\n        /* \"#utility.yul\":1054:1061   */\n      dup7\n        /* \"#utility.yul\":1050:1073   */\n      sub\n        /* \"#utility.yul\":1046:1078   */\n      slt\n        /* \"#utility.yul\":1043:1095   */\n      iszero\n      tag_415\n      jumpi\n        /* \"#utility.yul\":1091:1092   */\n      0x00\n        /* \"#utility.yul\":1088:1089   */\n      dup1\n        /* \"#utility.yul\":1081:1093   */\n      revert\n        /* \"#utility.yul\":1043:1095   */\n    tag_415:\n        /* \"#utility.yul\":1114:1143   */\n      tag_416\n        /* \"#utility.yul\":1133:1142   */\n      dup5\n        /* \"#utility.yul\":1114:1143   */\n      tag_399\n      jump\t// in\n    tag_416:\n        /* \"#utility.yul\":1104:1143   */\n      swap3\n      pop\n        /* \"#utility.yul\":1194:1196   */\n      0x20\n        /* \"#utility.yul\":1179:1197   */\n      dup5\n      add\n        /* \"#utility.yul\":1166:1198   */\n      calldataload\n      sub(shl(0x40, 0x01), 0x01)\n        /* \"#utility.yul\":1210:1240   */\n      dup2\n      gt\n        /* \"#utility.yul\":1207:1257   */\n      iszero\n      tag_417\n      jumpi\n        /* \"#utility.yul\":1253:1254   */\n      0x00\n        /* \"#utility.yul\":1250:1251   */\n      dup1\n        /* \"#utility.yul\":1243:1255   */\n      revert\n        /* \"#utility.yul\":1207:1257   */\n    tag_417:\n        /* \"#utility.yul\":1276:1326   */\n      tag_418\n        /* \"#utility.yul\":1318:1325   */\n      dup7\n        /* \"#utility.yul\":1309:1315   */\n      dup3\n        /* \"#utility.yul\":1298:1307   */\n      dup8\n        /* \"#utility.yul\":1294:1316   */\n      add\n        /* \"#utility.yul\":1276:1326   */\n      tag_402\n      jump\t// in\n    tag_418:\n        /* \"#utility.yul\":1266:1326   */\n      swap3\n      pop\n      pop\n        /* \"#utility.yul\":1373:1375   */\n      0x40\n        /* \"#utility.yul\":1362:1371   */\n      dup5\n        /* \"#utility.yul\":1358:1376   */\n      add\n        /* \"#utility.yul\":1345:1377   */\n      calldataload\n        /* \"#utility.yul\":1335:1377   */\n      swap1\n      pop\n        /* \"#utility.yul\":919:1383   */\n      swap3\n      pop\n      swap3\n      pop\n      swap3\n      jump\t// out\n        /* \"#utility.yul\":1388:1710   */\n    tag_36:\n        /* \"#utility.yul\":1457:1463   */\n      0x00\n        /* \"#utility.yul\":1510:1512   */\n      0x20\n        /* \"#utility.yul\":1498:1507   */\n      dup3\n        /* \"#utility.yul\":1489:1496   */\n      dup5\n        /* \"#utility.yul\":1485:1508   */\n      sub\n        /* \"#utility.yul\":1481:1513   */\n      slt\n        /* \"#utility.yul\":1478:1530   */\n      iszero\n      tag_420\n      jumpi\n        /* \"#utility.yul\":1526:1527   */\n      0x00\n        /* \"#utility.yul\":1523:1524   */\n      dup1\n        /* \"#utility.yul\":1516:1528   */\n      revert\n        /* \"#utility.yul\":1478:1530   */\n    tag_420:\n        /* \"#utility.yul\":1553:1576   */\n      dup2\n      calldataload\n      sub(shl(0x40, 0x01), 0x01)\n        /* \"#utility.yul\":1588:1618   */\n      dup2\n      gt\n        /* \"#utility.yul\":1585:1635   */\n      iszero\n      tag_421\n      jumpi\n        /* \"#utility.yul\":1631:1632   */\n      0x00\n        /* \"#utility.yul\":1628:1629   */\n      dup1\n        /* \"#utility.yul\":1621:1633   */\n      revert\n        /* \"#utility.yul\":1585:1635   */\n    tag_421:\n        /* \"#utility.yul\":1654:1704   */\n      tag_279\n        /* \"#utility.yul\":1696:1703   */\n      dup5\n        /* \"#utility.yul\":1687:1693   */\n      dup3\n        /* \"#utility.yul\":1676:1685   */\n      dup6\n        /* \"#utility.yul\":1672:1694   */\n      add\n        /* \"#utility.yul\":1654:1704   */\n      tag_402\n      jump\t// in\n        /* \"#utility.yul\":1715:3050   */\n    tag_45:\n        /* \"#utility.yul\":1828:1834   */\n      0x00\n        /* \"#utility.yul\":1836:1842   */\n      dup1\n        /* \"#utility.yul\":1889:1891   */\n      0x40\n        /* \"#utility.yul\":1877:1886   */\n      dup4\n        /* \"#utility.yul\":1868:1875   */\n      dup6\n        /* \"#utility.yul\":1864:1887   */\n      sub\n        /* \"#utility.yul\":1860:1892   */\n      slt\n        /* \"#utility.yul\":1857:1909   */\n      iszero\n      tag_424\n      jumpi\n        /* \"#utility.yul\":1905:1906   */\n      0x00\n        /* \"#utility.yul\":1902:1903   */\n      dup1\n        /* \"#utility.yul\":1895:1907   */\n      revert\n        /* \"#utility.yul\":1857:1909   */\n    tag_424:\n        /* \"#utility.yul\":1932:1955   */\n      dup3\n      calldataload\n      sub(shl(0x40, 0x01), 0x01)\n        /* \"#utility.yul\":2004:2018   */\n      dup1\n      dup3\n      gt\n        /* \"#utility.yul\":2001:2035   */\n      iszero\n      tag_425\n      jumpi\n        /* \"#utility.yul\":2031:2032   */\n      0x00\n        /* \"#utility.yul\":2028:2029   */\n      dup1\n        /* \"#utility.yul\":2021:2033   */\n      revert\n        /* \"#utility.yul\":2001:2035   */\n    tag_425:\n        /* \"#utility.yul\":2054:2104   */\n      tag_426\n        /* \"#utility.yul\":2096:2103   */\n      dup7\n        /* \"#utility.yul\":2087:2093   */\n      dup4\n        /* \"#utility.yul\":2076:2085   */\n      dup8\n        /* \"#utility.yul\":2072:2094   */\n      add\n        /* \"#utility.yul\":2054:2104   */\n      tag_402\n      jump\t// in\n    tag_426:\n        /* \"#utility.yul\":2044:2104   */\n      swap4\n      pop\n        /* \"#utility.yul\":2123:2125   */\n      0x20\n        /* \"#utility.yul\":2113:2125   */\n      swap2\n      pop\n        /* \"#utility.yul\":2178:2180   */\n      dup2\n        /* \"#utility.yul\":2167:2176   */\n      dup6\n        /* \"#utility.yul\":2163:2181   */\n      add\n        /* \"#utility.yul\":2150:2182   */\n      calldataload\n        /* \"#utility.yul\":2207:2209   */\n      dup2\n        /* \"#utility.yul\":2197:2205   */\n      dup2\n        /* \"#utility.yul\":2194:2210   */\n      gt\n        /* \"#utility.yul\":2191:2227   */\n      iszero\n      tag_427\n      jumpi\n        /* \"#utility.yul\":2223:2224   */\n      0x00\n        /* \"#utility.yul\":2220:2221   */\n      dup1\n        /* \"#utility.yul\":2213:2225   */\n      revert\n        /* \"#utility.yul\":2191:2227   */\n    tag_427:\n        /* \"#utility.yul\":2246:2270   */\n      dup6\n      add\n        /* \"#utility.yul\":2301:2305   */\n      0x1f\n        /* \"#utility.yul\":2293:2306   */\n      dup2\n      add\n        /* \"#utility.yul\":2289:2316   */\n      dup8\n      sgt\n        /* \"#utility.yul\":2279:2334   */\n      tag_428\n      jumpi\n        /* \"#utility.yul\":2330:2331   */\n      0x00\n        /* \"#utility.yul\":2327:2328   */\n      dup1\n        /* \"#utility.yul\":2320:2332   */\n      revert\n        /* \"#utility.yul\":2279:2334   */\n    tag_428:\n        /* \"#utility.yul\":2366:2368   */\n      dup1\n        /* \"#utility.yul\":2353:2369   */\n      calldataload\n        /* \"#utility.yul\":2388:2390   */\n      dup3\n        /* \"#utility.yul\":2384:2386   */\n      dup2\n        /* \"#utility.yul\":2381:2391   */\n      gt\n        /* \"#utility.yul\":2378:2414   */\n      iszero\n      tag_430\n      jumpi\n        /* \"#utility.yul\":2394:2412   */\n      tag_430\n      tag_407\n      jump\t// in\n    tag_430:\n        /* \"#utility.yul\":2440:2442   */\n      dup1\n        /* \"#utility.yul\":2437:2438   */\n      0x05\n        /* \"#utility.yul\":2433:2443   */\n      shl\n        /* \"#utility.yul\":2463:2491   */\n      tag_431\n        /* \"#utility.yul\":2487:2489   */\n      dup6\n        /* \"#utility.yul\":2483:2485   */\n      dup3\n        /* \"#utility.yul\":2479:2490   */\n      add\n        /* \"#utility.yul\":2463:2491   */\n      tag_409\n      jump\t// in\n    tag_431:\n        /* \"#utility.yul\":2525:2540   */\n      dup3\n      dup2\n      mstore\n        /* \"#utility.yul\":2556:2568   */\n      dup6\n      dup2\n      add\n      swap1\n        /* \"#utility.yul\":2588:2599   */\n      dup5\n      dup8\n      add\n        /* \"#utility.yul\":2618:2629   */\n      dup4\n      dup7\n      add\n        /* \"#utility.yul\":2614:2634   */\n      dup9\n      add\n        /* \"#utility.yul\":2611:2644   */\n      dup13\n      lt\n        /* \"#utility.yul\":2608:2661   */\n      iszero\n      tag_432\n      jumpi\n        /* \"#utility.yul\":2657:2658   */\n      0x00\n        /* \"#utility.yul\":2654:2655   */\n      dup1\n        /* \"#utility.yul\":2647:2659   */\n      revert\n        /* \"#utility.yul\":2608:2661   */\n    tag_432:\n        /* \"#utility.yul\":2679:2680   */\n      0x00\n        /* \"#utility.yul\":2670:2680   */\n      swap4\n      pop\n        /* \"#utility.yul\":2700:2701   */\n      dup4\n        /* \"#utility.yul\":2710:3020   */\n    tag_433:\n        /* \"#utility.yul\":2726:2728   */\n      dup6\n        /* \"#utility.yul\":2721:2724   */\n      dup2\n        /* \"#utility.yul\":2718:2729   */\n      lt\n        /* \"#utility.yul\":2710:3020   */\n      iszero\n      tag_435\n      jumpi\n        /* \"#utility.yul\":2807:2810   */\n      dup2\n        /* \"#utility.yul\":2794:2811   */\n      calldataload\n        /* \"#utility.yul\":2843:2845   */\n      dup9\n        /* \"#utility.yul\":2830:2841   */\n      dup2\n        /* \"#utility.yul\":2827:2846   */\n      gt\n        /* \"#utility.yul\":2824:2863   */\n      iszero\n      tag_436\n      jumpi\n        /* \"#utility.yul\":2859:2860   */\n      dup6\n        /* \"#utility.yul\":2856:2857   */\n      dup7\n        /* \"#utility.yul\":2849:2861   */\n      revert\n        /* \"#utility.yul\":2824:2863   */\n    tag_436:\n        /* \"#utility.yul\":2888:2945   */\n      tag_437\n        /* \"#utility.yul\":2937:2944   */\n      dup15\n        /* \"#utility.yul\":2932:2934   */\n      dup12\n        /* \"#utility.yul\":2918:2929   */\n      dup4\n        /* \"#utility.yul\":2914:2916   */\n      dup12\n        /* \"#utility.yul\":2910:2930   */\n      add\n        /* \"#utility.yul\":2906:2935   */\n      add\n        /* \"#utility.yul\":2888:2945   */\n      tag_402\n      jump\t// in\n    tag_437:\n        /* \"#utility.yul\":2876:2946   */\n      dup6\n      mstore\n      pop\n        /* \"#utility.yul\":2966:2978   */\n      swap3\n      dup9\n      add\n      swap3\n        /* \"#utility.yul\":2998:3010   */\n      swap1\n      dup9\n      add\n      swap1\n        /* \"#utility.yul\":2748:2749   */\n      0x01\n        /* \"#utility.yul\":2739:2750   */\n      add\n        /* \"#utility.yul\":2710:3020   */\n      jump(tag_433)\n    tag_435:\n      pop\n        /* \"#utility.yul\":1715:3050   */\n      swap9\n      swap12\n        /* \"#utility.yul\":3039:3044   */\n      swap1\n      swap11\n      pop\n        /* \"#utility.yul\":1715:3050   */\n      swap9\n      pop\n      pop\n      pop\n      pop\n      pop\n      pop\n      pop\n      pop\n      pop\n      jump\t// out\n        /* \"#utility.yul\":3055:3445   */\n    tag_107:\n        /* \"#utility.yul\":3133:3139   */\n      0x00\n        /* \"#utility.yul\":3141:3147   */\n      dup1\n        /* \"#utility.yul\":3194:3196   */\n      0x40\n        /* \"#utility.yul\":3182:3191   */\n      dup4\n        /* \"#utility.yul\":3173:3180   */\n      dup6\n        /* \"#utility.yul\":3169:3192   */\n      sub\n        /* \"#utility.yul\":3165:3197   */\n      slt\n        /* \"#utility.yul\":3162:3214   */\n      iszero\n      tag_439\n      jumpi\n        /* \"#utility.yul\":3210:3211   */\n      0x00\n        /* \"#utility.yul\":3207:3208   */\n      dup1\n        /* \"#utility.yul\":3200:3212   */\n      revert\n        /* \"#utility.yul\":3162:3214   */\n    tag_439:\n        /* \"#utility.yul\":3237:3260   */\n      dup3\n      calldataload\n      sub(shl(0x40, 0x01), 0x01)\n        /* \"#utility.yul\":3272:3302   */\n      dup2\n      gt\n        /* \"#utility.yul\":3269:3319   */\n      iszero\n      tag_440\n      jumpi\n        /* \"#utility.yul\":3315:3316   */\n      0x00\n        /* \"#utility.yul\":3312:3313   */\n      dup1\n        /* \"#utility.yul\":3305:3317   */\n      revert\n        /* \"#utility.yul\":3269:3319   */\n    tag_440:\n        /* \"#utility.yul\":3338:3388   */\n      tag_441\n        /* \"#utility.yul\":3380:3387   */\n      dup6\n        /* \"#utility.yul\":3371:3377   */\n      dup3\n        /* \"#utility.yul\":3360:3369   */\n      dup7\n        /* \"#utility.yul\":3356:3378   */\n      add\n        /* \"#utility.yul\":3338:3388   */\n      tag_402\n      jump\t// in\n    tag_441:\n        /* \"#utility.yul\":3328:3388   */\n      swap6\n        /* \"#utility.yul\":3435:3437   */\n      0x20\n        /* \"#utility.yul\":3420:3438   */\n      swap5\n      swap1\n      swap5\n      add\n        /* \"#utility.yul\":3407:3439   */\n      calldataload\n      swap5\n      pop\n      pop\n      pop\n      pop\n        /* \"#utility.yul\":3055:3445   */\n      jump\t// out\n        /* \"#utility.yul\":3450:4061   */\n    tag_103:\n        /* \"#utility.yul\":3547:3553   */\n      0x00\n        /* \"#utility.yul\":3555:3561   */\n      dup1\n        /* \"#utility.yul\":3563:3569   */\n      0x00\n        /* \"#utility.yul\":3616:3618   */\n      0x60\n        /* \"#utility.yul\":3604:3613   */\n      dup5\n        /* \"#utility.yul\":3595:3602   */\n      dup7\n        /* \"#utility.yul\":3591:3614   */\n      sub\n        /* \"#utility.yul\":3587:3619   */\n      slt\n        /* \"#utility.yul\":3584:3636   */\n      iszero\n      tag_443\n      jumpi\n        /* \"#utility.yul\":3632:3633   */\n      0x00\n        /* \"#utility.yul\":3629:3630   */\n      dup1\n        /* \"#utility.yul\":3622:3634   */\n      revert\n        /* \"#utility.yul\":3584:3636   */\n    tag_443:\n        /* \"#utility.yul\":3659:3682   */\n      dup4\n      calldataload\n      sub(shl(0x40, 0x01), 0x01)\n        /* \"#utility.yul\":3731:3745   */\n      dup1\n      dup3\n      gt\n        /* \"#utility.yul\":3728:3762   */\n      iszero\n      tag_444\n      jumpi\n        /* \"#utility.yul\":3758:3759   */\n      0x00\n        /* \"#utility.yul\":3755:3756   */\n      dup1\n        /* \"#utility.yul\":3748:3760   */\n      revert\n        /* \"#utility.yul\":3728:3762   */\n    tag_444:\n        /* \"#utility.yul\":3781:3831   */\n      tag_445\n        /* \"#utility.yul\":3823:3830   */\n      dup8\n        /* \"#utility.yul\":3814:3820   */\n      dup4\n        /* \"#utility.yul\":3803:3812   */\n      dup9\n        /* \"#utility.yul\":3799:3821   */\n      add\n        /* \"#utility.yul\":3781:3831   */\n      tag_402\n      jump\t// in\n    tag_445:\n        /* \"#utility.yul\":3771:3831   */\n      swap5\n      pop\n        /* \"#utility.yul\":3884:3886   */\n      0x20\n        /* \"#utility.yul\":3873:3882   */\n      dup7\n        /* \"#utility.yul\":3869:3887   */\n      add\n        /* \"#utility.yul\":3856:3888   */\n      calldataload\n        /* \"#utility.yul\":3840:3888   */\n      swap2\n      pop\n        /* \"#utility.yul\":3913:3915   */\n      dup1\n        /* \"#utility.yul\":3903:3911   */\n      dup3\n        /* \"#utility.yul\":3900:3916   */\n      gt\n        /* \"#utility.yul\":3897:3933   */\n      iszero\n      tag_446\n      jumpi\n        /* \"#utility.yul\":3929:3930   */\n      0x00\n        /* \"#utility.yul\":3926:3927   */\n      dup1\n        /* \"#utility.yul\":3919:3931   */\n      revert\n        /* \"#utility.yul\":3897:3933   */\n    tag_446:\n      pop\n        /* \"#utility.yul\":3952:4004   */\n      tag_418\n        /* \"#utility.yul\":3996:4003   */\n      dup7\n        /* \"#utility.yul\":3985:3993   */\n      dup3\n        /* \"#utility.yul\":3974:3983   */\n      dup8\n        /* \"#utility.yul\":3970:3994   */\n      add\n        /* \"#utility.yul\":3952:4004   */\n      tag_402\n      jump\t// in\n        /* \"#utility.yul\":4066:4677   */\n    tag_63:\n        /* \"#utility.yul\":4163:4169   */\n      0x00\n        /* \"#utility.yul\":4171:4177   */\n      dup1\n        /* \"#utility.yul\":4179:4185   */\n      0x00\n        /* \"#utility.yul\":4232:4234   */\n      0x60\n        /* \"#utility.yul\":4220:4229   */\n      dup5\n        /* \"#utility.yul\":4211:4218   */\n      dup7\n        /* \"#utility.yul\":4207:4230   */\n      sub\n        /* \"#utility.yul\":4203:4235   */\n      slt\n        /* \"#utility.yul\":4200:4252   */\n      iszero\n      tag_449\n      jumpi\n        /* \"#utility.yul\":4248:4249   */\n      0x00\n        /* \"#utility.yul\":4245:4246   */\n      dup1\n        /* \"#utility.yul\":4238:4250   */\n      revert\n        /* \"#utility.yul\":4200:4252   */\n    tag_449:\n        /* \"#utility.yul\":4275:4298   */\n      dup4\n      calldataload\n      sub(shl(0x40, 0x01), 0x01)\n        /* \"#utility.yul\":4347:4361   */\n      dup1\n      dup3\n      gt\n        /* \"#utility.yul\":4344:4378   */\n      iszero\n      tag_450\n      jumpi\n        /* \"#utility.yul\":4374:4375   */\n      0x00\n        /* \"#utility.yul\":4371:4372   */\n      dup1\n        /* \"#utility.yul\":4364:4376   */\n      revert\n        /* \"#utility.yul\":4344:4378   */\n    tag_450:\n        /* \"#utility.yul\":4397:4447   */\n      tag_451\n        /* \"#utility.yul\":4439:4446   */\n      dup8\n        /* \"#utility.yul\":4430:4436   */\n      dup4\n        /* \"#utility.yul\":4419:4428   */\n      dup9\n        /* \"#utility.yul\":4415:4437   */\n      add\n        /* \"#utility.yul\":4397:4447   */\n      tag_402\n      jump\t// in\n    tag_451:\n        /* \"#utility.yul\":4387:4447   */\n      swap5\n      pop\n        /* \"#utility.yul\":4494:4496   */\n      0x20\n        /* \"#utility.yul\":4483:4492   */\n      dup7\n        /* \"#utility.yul\":4479:4497   */\n      add\n        /* \"#utility.yul\":4466:4498   */\n      calldataload\n        /* \"#utility.yul\":4456:4498   */\n      swap4\n      pop\n        /* \"#utility.yul\":4551:4553   */\n      0x40\n        /* \"#utility.yul\":4540:4549   */\n      dup7\n        /* \"#utility.yul\":4536:4554   */\n      add\n        /* \"#utility.yul\":4523:4555   */\n      calldataload\n        /* \"#utility.yul\":4507:4555   */\n      swap2\n      pop\n        /* \"#utility.yul\":4580:4582   */\n      dup1\n        /* \"#utility.yul\":4570:4578   */\n      dup3\n        /* \"#utility.yul\":4567:4583   */\n      gt\n        /* \"#utility.yul\":4564:4600   */\n      iszero\n      tag_452\n      jumpi\n        /* \"#utility.yul\":4596:4597   */\n      0x00\n        /* \"#utility.yul\":4593:4594   */\n      dup1\n        /* \"#utility.yul\":4586:4598   */\n      revert\n        /* \"#utility.yul\":4564:4600   */\n    tag_452:\n      pop\n        /* \"#utility.yul\":4619:4671   */\n      tag_453\n        /* \"#utility.yul\":4663:4670   */\n      dup7\n        /* \"#utility.yul\":4652:4660   */\n      dup3\n        /* \"#utility.yul\":4641:4650   */\n      dup8\n        /* \"#utility.yul\":4637:4661   */\n      add\n        /* \"#utility.yul\":4619:4671   */\n      tag_402\n      jump\t// in\n    tag_453:\n        /* \"#utility.yul\":4609:4671   */\n      swap2\n      pop\n      pop\n        /* \"#utility.yul\":4066:4677   */\n      swap3\n      pop\n      swap3\n      pop\n      swap3\n      jump\t// out\n        /* \"#utility.yul\":4682:4862   */\n    tag_67:\n        /* \"#utility.yul\":4741:4747   */\n      0x00\n        /* \"#utility.yul\":4794:4796   */\n      0x20\n        /* \"#utility.yul\":4782:4791   */\n      dup3\n        /* \"#utility.yul\":4773:4780   */\n      dup5\n        /* \"#utility.yul\":4769:4792   */\n      sub\n        /* \"#utility.yul\":4765:4797   */\n      slt\n        /* \"#utility.yul\":4762:4814   */\n      iszero\n      tag_455\n      jumpi\n        /* \"#utility.yul\":4810:4811   */\n      0x00\n        /* \"#utility.yul\":4807:4808   */\n      dup1\n        /* \"#utility.yul\":4800:4812   */\n      revert\n        /* \"#utility.yul\":4762:4814   */\n    tag_455:\n      pop\n        /* \"#utility.yul\":4833:4856   */\n      calldataload\n      swap2\n        /* \"#utility.yul\":4682:4862   */\n      swap1\n      pop\n      jump\t// out\n        /* \"#utility.yul\":4867:5208   */\n    tag_28:\n        /* \"#utility.yul\":4932:4938   */\n      0x00\n        /* \"#utility.yul\":4940:4946   */\n      dup1\n        /* \"#utility.yul\":4993:4995   */\n      0x40\n        /* \"#utility.yul\":4981:4990   */\n      dup4\n        /* \"#utility.yul\":4972:4979   */\n      dup6\n        /* \"#utility.yul\":4968:4991   */\n      sub\n        /* \"#utility.yul\":4964:4996   */\n      slt\n        /* \"#utility.yul\":4961:5013   */\n      iszero\n      tag_457\n      jumpi\n        /* \"#utility.yul\":5009:5010   */\n      0x00\n        /* \"#utility.yul\":5006:5007   */\n      dup1\n        /* \"#utility.yul\":4999:5011   */\n      revert\n        /* \"#utility.yul\":4961:5013   */\n    tag_457:\n        /* \"#utility.yul\":5045:5054   */\n      dup3\n        /* \"#utility.yul\":5032:5055   */\n      calldataload\n        /* \"#utility.yul\":5022:5055   */\n      swap2\n      pop\n        /* \"#utility.yul\":5105:5107   */\n      0x20\n        /* \"#utility.yul\":5094:5103   */\n      dup4\n        /* \"#utility.yul\":5090:5108   */\n      add\n        /* \"#utility.yul\":5077:5109   */\n      calldataload\n        /* \"#utility.yul\":5152:5157   */\n      dup1\n        /* \"#utility.yul\":5145:5158   */\n      iszero\n        /* \"#utility.yul\":5138:5159   */\n      iszero\n        /* \"#utility.yul\":5131:5136   */\n      dup2\n        /* \"#utility.yul\":5128:5160   */\n      eq\n        /* \"#utility.yul\":5118:5178   */\n      tag_458\n      jumpi\n        /* \"#utility.yul\":5174:5175   */\n      0x00\n        /* \"#utility.yul\":5171:5172   */\n      dup1\n        /* \"#utility.yul\":5164:5176   */\n      revert\n        /* \"#utility.yul\":5118:5178   */\n    tag_458:\n        /* \"#utility.yul\":5197:5202   */\n      dup1\n        /* \"#utility.yul\":5187:5202   */\n      swap2\n      pop\n      pop\n        /* \"#utility.yul\":4867:5208   */\n      swap3\n      pop\n      swap3\n      swap1\n      pop\n      jump\t// out\n        /* \"#utility.yul\":5213:5471   */\n    tag_459:\n        /* \"#utility.yul\":5255:5258   */\n      0x00\n        /* \"#utility.yul\":5293:5298   */\n      dup2\n        /* \"#utility.yul\":5287:5299   */\n      mload\n        /* \"#utility.yul\":5320:5326   */\n      dup1\n        /* \"#utility.yul\":5315:5318   */\n      dup5\n        /* \"#utility.yul\":5308:5327   */\n      mstore\n        /* \"#utility.yul\":5336:5399   */\n      tag_461\n        /* \"#utility.yul\":5392:5398   */\n      dup2\n        /* \"#utility.yul\":5385:5389   */\n      0x20\n        /* \"#utility.yul\":5380:5383   */\n      dup7\n        /* \"#utility.yul\":5376:5390   */\n      add\n        /* \"#utility.yul\":5369:5373   */\n      0x20\n        /* \"#utility.yul\":5362:5367   */\n      dup7\n        /* \"#utility.yul\":5358:5374   */\n      add\n        /* \"#utility.yul\":5336:5399   */\n      tag_462\n      jump\t// in\n    tag_461:\n        /* \"#utility.yul\":5453:5455   */\n      0x1f\n        /* \"#utility.yul\":5432:5447   */\n      add\n      not(0x1f)\n        /* \"#utility.yul\":5428:5457   */\n      and\n        /* \"#utility.yul\":5419:5458   */\n      swap3\n      swap1\n      swap3\n      add\n        /* \"#utility.yul\":5460:5464   */\n      0x20\n        /* \"#utility.yul\":5415:5465   */\n      add\n      swap3\n        /* \"#utility.yul\":5213:5471   */\n      swap2\n      pop\n      pop\n      jump\t// out\n        /* \"#utility.yul\":5476:5752   */\n    tag_155:\n        /* \"#utility.yul\":5607:5610   */\n      0x00\n        /* \"#utility.yul\":5645:5651   */\n      dup3\n        /* \"#utility.yul\":5639:5652   */\n      mload\n        /* \"#utility.yul\":5661:5714   */\n      tag_464\n        /* \"#utility.yul\":5707:5713   */\n      dup2\n        /* \"#utility.yul\":5702:5705   */\n      dup5\n        /* \"#utility.yul\":5695:5699   */\n      0x20\n        /* \"#utility.yul\":5687:5693   */\n      dup8\n        /* \"#utility.yul\":5683:5700   */\n      add\n        /* \"#utility.yul\":5661:5714   */\n      tag_462\n      jump\t// in\n    tag_464:\n        /* \"#utility.yul\":5730:5746   */\n      swap2\n      swap1\n      swap2\n      add\n      swap3\n        /* \"#utility.yul\":5476:5752   */\n      swap2\n      pop\n      pop\n      jump\t// out\n        /* \"#utility.yul\":5757:6856   */\n    tag_131:\n        /* \"#utility.yul\":5885:5888   */\n      0x00\n        /* \"#utility.yul\":5914:5915   */\n      dup1\n        /* \"#utility.yul\":5947:5953   */\n      dup4\n        /* \"#utility.yul\":5941:5954   */\n      sload\n        /* \"#utility.yul\":5977:5980   */\n      dup2\n        /* \"#utility.yul\":5999:6000   */\n      0x01\n        /* \"#utility.yul\":6027:6036   */\n      dup3\n        /* \"#utility.yul\":6023:6025   */\n      dup2\n        /* \"#utility.yul\":6019:6037   */\n      shr\n        /* \"#utility.yul\":6009:6037   */\n      swap2\n      pop\n        /* \"#utility.yul\":6087:6089   */\n      dup1\n        /* \"#utility.yul\":6076:6085   */\n      dup4\n        /* \"#utility.yul\":6072:6090   */\n      and\n        /* \"#utility.yul\":6109:6127   */\n      dup1\n        /* \"#utility.yul\":6099:6160   */\n      tag_466\n      jumpi\n        /* \"#utility.yul\":6153:6157   */\n      0x7f\n        /* \"#utility.yul\":6145:6151   */\n      dup4\n        /* \"#utility.yul\":6141:6158   */\n      and\n        /* \"#utility.yul\":6131:6158   */\n      swap3\n      pop\n        /* \"#utility.yul\":6099:6160   */\n    tag_466:\n        /* \"#utility.yul\":6179:6181   */\n      0x20\n        /* \"#utility.yul\":6227:6229   */\n      dup1\n        /* \"#utility.yul\":6219:6225   */\n      dup5\n        /* \"#utility.yul\":6216:6230   */\n      lt\n        /* \"#utility.yul\":6196:6214   */\n      dup3\n        /* \"#utility.yul\":6193:6231   */\n      eq\n        /* \"#utility.yul\":6190:6355   */\n      iszero\n      tag_467\n      jumpi\n      shl(0xe0, 0x4e487b71)\n        /* \"#utility.yul\":6254:6287   */\n      dup7\n      mstore\n        /* \"#utility.yul\":6310:6314   */\n      0x22\n        /* \"#utility.yul\":6307:6308   */\n      0x04\n        /* \"#utility.yul\":6300:6315   */\n      mstore\n        /* \"#utility.yul\":6340:6344   */\n      0x24\n        /* \"#utility.yul\":6261:6264   */\n      dup7\n        /* \"#utility.yul\":6328:6345   */\n      revert\n        /* \"#utility.yul\":6190:6355   */\n    tag_467:\n        /* \"#utility.yul\":6371:6389   */\n      dup2\n        /* \"#utility.yul\":6398:6502   */\n      dup1\n      iszero\n      tag_469\n      jumpi\n        /* \"#utility.yul\":6516:6517   */\n      0x01\n        /* \"#utility.yul\":6511:6831   */\n      dup2\n      eq\n      tag_470\n      jumpi\n        /* \"#utility.yul\":6364:6831   */\n      jump(tag_468)\n        /* \"#utility.yul\":6398:6502   */\n    tag_469:\n      not(0xff)\n        /* \"#utility.yul\":6431:6455   */\n      dup7\n      and\n        /* \"#utility.yul\":6419:6456   */\n      dup10\n      mstore\n        /* \"#utility.yul\":6476:6492   */\n      dup5\n      dup10\n      add\n      swap7\n      pop\n        /* \"#utility.yul\":6398:6502   */\n      jump(tag_468)\n        /* \"#utility.yul\":6511:6831   */\n    tag_470:\n        /* \"#utility.yul\":12508:12509   */\n      0x00\n        /* \"#utility.yul\":12501:12515   */\n      dup11\n      dup2\n      mstore\n        /* \"#utility.yul\":12545:12549   */\n      0x20\n        /* \"#utility.yul\":12532:12550   */\n      swap1\n      keccak256\n        /* \"#utility.yul\":6606:6607   */\n      0x00\n        /* \"#utility.yul\":6620:6785   */\n    tag_473:\n        /* \"#utility.yul\":6634:6640   */\n      dup7\n        /* \"#utility.yul\":6631:6632   */\n      dup2\n        /* \"#utility.yul\":6628:6641   */\n      lt\n        /* \"#utility.yul\":6620:6785   */\n      iszero\n      tag_475\n      jumpi\n        /* \"#utility.yul\":6712:6726   */\n      dup2\n      sload\n        /* \"#utility.yul\":6699:6710   */\n      dup12\n      dup3\n      add\n        /* \"#utility.yul\":6692:6727   */\n      mstore\n        /* \"#utility.yul\":6755:6771   */\n      swap1\n      dup6\n      add\n      swap1\n        /* \"#utility.yul\":6649:6659   */\n      dup4\n      add\n        /* \"#utility.yul\":6620:6785   */\n      jump(tag_473)\n    tag_475:\n        /* \"#utility.yul\":6624:6627   */\n      pop\n      pop\n        /* \"#utility.yul\":6814:6820   */\n      dup5\n        /* \"#utility.yul\":6809:6812   */\n      dup10\n        /* \"#utility.yul\":6805:6821   */\n      add\n        /* \"#utility.yul\":6798:6821   */\n      swap7\n      pop\n        /* \"#utility.yul\":6364:6831   */\n    tag_468:\n      pop\n        /* \"#utility.yul\":6847:6850   */\n      swap5\n      swap9\n        /* \"#utility.yul\":5757:6856   */\n      swap8\n      pop\n      pop\n      pop\n      pop\n      pop\n      pop\n      pop\n      pop\n      jump\t// out\n        /* \"#utility.yul\":7069:7467   */\n    tag_70:\n      sub(shl(0xa0, 0x01), 0x01)\n        /* \"#utility.yul\":7268:7300   */\n      dup5\n      and\n        /* \"#utility.yul\":7250:7301   */\n      dup2\n      mstore\n        /* \"#utility.yul\":7337:7339   */\n      0x60\n        /* \"#utility.yul\":7332:7334   */\n      0x20\n        /* \"#utility.yul\":7317:7335   */\n      dup3\n      add\n        /* \"#utility.yul\":7310:7340   */\n      dup2\n      swap1\n      mstore\n      0x00\n      swap1\n        /* \"#utility.yul\":7357:7402   */\n      tag_478\n      swap1\n        /* \"#utility.yul\":7383:7401   */\n      dup4\n      add\n        /* \"#utility.yul\":7375:7381   */\n      dup6\n        /* \"#utility.yul\":7357:7402   */\n      tag_459\n      jump\t// in\n    tag_478:\n        /* \"#utility.yul\":7349:7402   */\n      swap1\n      pop\n        /* \"#utility.yul\":7452:7458   */\n      dup3\n        /* \"#utility.yul\":7445:7459   */\n      iszero\n        /* \"#utility.yul\":7438:7460   */\n      iszero\n        /* \"#utility.yul\":7433:7435   */\n      0x40\n        /* \"#utility.yul\":7422:7431   */\n      dup4\n        /* \"#utility.yul\":7418:7436   */\n      add\n        /* \"#utility.yul\":7411:7461   */\n      mstore\n        /* \"#utility.yul\":7069:7467   */\n      swap5\n      swap4\n      pop\n      pop\n      pop\n      pop\n      jump\t// out\n        /* \"#utility.yul\":7472:7933   */\n    tag_113:\n      sub(shl(0xa0, 0x01), 0x01)\n        /* \"#utility.yul\":7705:7737   */\n      dup6\n      and\n        /* \"#utility.yul\":7687:7738   */\n      dup2\n      mstore\n        /* \"#utility.yul\":7774:7777   */\n      0x80\n        /* \"#utility.yul\":7769:7771   */\n      0x20\n        /* \"#utility.yul\":7754:7772   */\n      dup3\n      add\n        /* \"#utility.yul\":7747:7778   */\n      dup2\n      swap1\n      mstore\n      0x00\n      swap1\n        /* \"#utility.yul\":7795:7841   */\n      tag_480\n      swap1\n        /* \"#utility.yul\":7821:7840   */\n      dup4\n      add\n        /* \"#utility.yul\":7813:7819   */\n      dup7\n        /* \"#utility.yul\":7795:7841   */\n      tag_459\n      jump\t// in\n    tag_480:\n        /* \"#utility.yul\":7872:7874   */\n      0x40\n        /* \"#utility.yul\":7857:7875   */\n      dup4\n      add\n        /* \"#utility.yul\":7850:7884   */\n      swap5\n      swap1\n      swap5\n      mstore\n      pop\n        /* \"#utility.yul\":7915:7917   */\n      0x60\n        /* \"#utility.yul\":7900:7918   */\n      add\n        /* \"#utility.yul\":7893:7927   */\n      mstore\n        /* \"#utility.yul\":7787:7841   */\n      swap3\n        /* \"#utility.yul\":7472:7933   */\n      swap2\n      pop\n      pop\n      jump\t// out\n        /* \"#utility.yul\":7938:8741   */\n    tag_56:\n        /* \"#utility.yul\":8100:8104   */\n      0x00\n        /* \"#utility.yul\":8129:8131   */\n      0x20\n        /* \"#utility.yul\":8169:8171   */\n      dup1\n        /* \"#utility.yul\":8158:8167   */\n      dup4\n        /* \"#utility.yul\":8154:8172   */\n      add\n        /* \"#utility.yul\":8199:8201   */\n      dup2\n        /* \"#utility.yul\":8188:8197   */\n      dup5\n        /* \"#utility.yul\":8181:8202   */\n      mstore\n        /* \"#utility.yul\":8222:8228   */\n      dup1\n        /* \"#utility.yul\":8257:8263   */\n      dup6\n        /* \"#utility.yul\":8251:8264   */\n      mload\n        /* \"#utility.yul\":8288:8294   */\n      dup1\n        /* \"#utility.yul\":8280:8286   */\n      dup4\n        /* \"#utility.yul\":8273:8295   */\n      mstore\n        /* \"#utility.yul\":8326:8328   */\n      0x40\n        /* \"#utility.yul\":8315:8324   */\n      dup7\n        /* \"#utility.yul\":8311:8329   */\n      add\n        /* \"#utility.yul\":8304:8329   */\n      swap2\n      pop\n        /* \"#utility.yul\":8388:8390   */\n      0x40\n        /* \"#utility.yul\":8378:8384   */\n      dup2\n        /* \"#utility.yul\":8375:8376   */\n      0x05\n        /* \"#utility.yul\":8371:8385   */\n      shl\n        /* \"#utility.yul\":8360:8369   */\n      dup8\n        /* \"#utility.yul\":8356:8386   */\n      add\n        /* \"#utility.yul\":8352:8391   */\n      add\n        /* \"#utility.yul\":8338:8391   */\n      swap3\n      pop\n        /* \"#utility.yul\":8426:8428   */\n      dup4\n        /* \"#utility.yul\":8418:8424   */\n      dup8\n        /* \"#utility.yul\":8414:8429   */\n      add\n        /* \"#utility.yul\":8447:8448   */\n      0x00\n        /* \"#utility.yul\":8457:8712   */\n    tag_482:\n        /* \"#utility.yul\":8471:8477   */\n      dup3\n        /* \"#utility.yul\":8468:8469   */\n      dup2\n        /* \"#utility.yul\":8465:8478   */\n      lt\n        /* \"#utility.yul\":8457:8712   */\n      iszero\n      tag_484\n      jumpi\n        /* \"#utility.yul\":8564:8566   */\n      0x3f\n        /* \"#utility.yul\":8560:8567   */\n      not\n        /* \"#utility.yul\":8548:8557   */\n      dup9\n        /* \"#utility.yul\":8540:8546   */\n      dup7\n        /* \"#utility.yul\":8536:8558   */\n      sub\n        /* \"#utility.yul\":8532:8568   */\n      add\n        /* \"#utility.yul\":8527:8530   */\n      dup5\n        /* \"#utility.yul\":8520:8569   */\n      mstore\n        /* \"#utility.yul\":8592:8632   */\n      tag_485\n        /* \"#utility.yul\":8625:8631   */\n      dup6\n        /* \"#utility.yul\":8616:8622   */\n      dup4\n        /* \"#utility.yul\":8610:8623   */\n      mload\n        /* \"#utility.yul\":8592:8632   */\n      tag_459\n      jump\t// in\n    tag_485:\n        /* \"#utility.yul\":8582:8632   */\n      swap5\n      pop\n        /* \"#utility.yul\":8690:8702   */\n      swap3\n      dup6\n      add\n      swap3\n        /* \"#utility.yul\":8655:8670   */\n      swap1\n      dup6\n      add\n      swap1\n        /* \"#utility.yul\":8493:8494   */\n      0x01\n        /* \"#utility.yul\":8486:8495   */\n      add\n        /* \"#utility.yul\":8457:8712   */\n      jump(tag_482)\n    tag_484:\n      pop\n        /* \"#utility.yul\":8729:8735   */\n      swap3\n      swap8\n        /* \"#utility.yul\":7938:8741   */\n      swap7\n      pop\n      pop\n      pop\n      pop\n      pop\n      pop\n      pop\n      jump\t// out\n        /* \"#utility.yul\":8928:9445   */\n    tag_81:\n        /* \"#utility.yul\":9183:9186   */\n      0xa0\n        /* \"#utility.yul\":9172:9181   */\n      dup2\n        /* \"#utility.yul\":9165:9187   */\n      mstore\n        /* \"#utility.yul\":9146:9150   */\n      0x00\n        /* \"#utility.yul\":9204:9250   */\n      tag_488\n        /* \"#utility.yul\":9245:9248   */\n      0xa0\n        /* \"#utility.yul\":9234:9243   */\n      dup4\n        /* \"#utility.yul\":9230:9249   */\n      add\n        /* \"#utility.yul\":9222:9228   */\n      dup9\n        /* \"#utility.yul\":9204:9250   */\n      tag_459\n      jump\t// in\n    tag_488:\n        /* \"#utility.yul\":9196:9250   */\n      swap1\n      pop\n        /* \"#utility.yul\":9286:9292   */\n      dup6\n        /* \"#utility.yul\":9281:9283   */\n      0x20\n        /* \"#utility.yul\":9270:9279   */\n      dup4\n        /* \"#utility.yul\":9266:9284   */\n      add\n        /* \"#utility.yul\":9259:9293   */\n      mstore\n        /* \"#utility.yul\":9329:9335   */\n      dup5\n        /* \"#utility.yul\":9324:9326   */\n      0x40\n        /* \"#utility.yul\":9313:9322   */\n      dup4\n        /* \"#utility.yul\":9309:9327   */\n      add\n        /* \"#utility.yul\":9302:9336   */\n      mstore\n        /* \"#utility.yul\":9372:9378   */\n      dup4\n        /* \"#utility.yul\":9367:9369   */\n      0x60\n        /* \"#utility.yul\":9356:9365   */\n      dup4\n        /* \"#utility.yul\":9352:9370   */\n      add\n        /* \"#utility.yul\":9345:9379   */\n      mstore\n        /* \"#utility.yul\":9430:9436   */\n      dup3\n        /* \"#utility.yul\":9423:9437   */\n      iszero\n        /* \"#utility.yul\":9416:9438   */\n      iszero\n        /* \"#utility.yul\":9410:9413   */\n      0x80\n        /* \"#utility.yul\":9399:9408   */\n      dup4\n        /* \"#utility.yul\":9395:9414   */\n      add\n        /* \"#utility.yul\":9388:9439   */\n      mstore\n        /* \"#utility.yul\":8928:9445   */\n      swap7\n      swap6\n      pop\n      pop\n      pop\n      pop\n      pop\n      pop\n      jump\t// out\n        /* \"#utility.yul\":12155:12430   */\n    tag_409:\n        /* \"#utility.yul\":12226:12228   */\n      0x40\n        /* \"#utility.yul\":12220:12229   */\n      mload\n        /* \"#utility.yul\":12291:12293   */\n      0x1f\n        /* \"#utility.yul\":12272:12285   */\n      dup3\n      add\n      not(0x1f)\n        /* \"#utility.yul\":12268:12295   */\n      and\n        /* \"#utility.yul\":12256:12296   */\n      dup2\n      add\n      sub(shl(0x40, 0x01), 0x01)\n        /* \"#utility.yul\":12311:12345   */\n      dup2\n      gt\n        /* \"#utility.yul\":12347:12369   */\n      dup3\n      dup3\n      lt\n        /* \"#utility.yul\":12308:12370   */\n      or\n        /* \"#utility.yul\":12305:12393   */\n      iszero\n      tag_499\n      jumpi\n        /* \"#utility.yul\":12373:12391   */\n      tag_499\n      tag_407\n      jump\t// in\n    tag_499:\n        /* \"#utility.yul\":12409:12411   */\n      0x40\n        /* \"#utility.yul\":12402:12424   */\n      mstore\n        /* \"#utility.yul\":12155:12430   */\n      swap2\n      swap1\n      pop\n      jump\t// out\n        /* \"#utility.yul\":12561:12689   */\n    tag_145:\n        /* \"#utility.yul\":12601:12604   */\n      0x00\n        /* \"#utility.yul\":12632:12633   */\n      dup3\n        /* \"#utility.yul\":12628:12634   */\n      not\n        /* \"#utility.yul\":12625:12626   */\n      dup3\n        /* \"#utility.yul\":12622:12635   */\n      gt\n        /* \"#utility.yul\":12619:12658   */\n      iszero\n      tag_503\n      jumpi\n        /* \"#utility.yul\":12638:12656   */\n      tag_503\n      tag_504\n      jump\t// in\n    tag_503:\n      pop\n        /* \"#utility.yul\":12674:12683   */\n      add\n      swap1\n        /* \"#utility.yul\":12561:12689   */\n      jump\t// out\n        /* \"#utility.yul\":12694:12911   */\n    tag_278:\n        /* \"#utility.yul\":12734:12735   */\n      0x00\n        /* \"#utility.yul\":12760:12761   */\n      dup3\n        /* \"#utility.yul\":12750:12882   */\n      tag_506\n      jumpi\n        /* \"#utility.yul\":12804:12814   */\n      0x4e487b71\n        /* \"#utility.yul\":12799:12802   */\n      0xe0\n        /* \"#utility.yul\":12795:12815   */\n      shl\n        /* \"#utility.yul\":12792:12793   */\n      0x00\n        /* \"#utility.yul\":12785:12816   */\n      mstore\n        /* \"#utility.yul\":12839:12843   */\n      0x12\n        /* \"#utility.yul\":12836:12837   */\n      0x04\n        /* \"#utility.yul\":12829:12844   */\n      mstore\n        /* \"#utility.yul\":12867:12871   */\n      0x24\n        /* \"#utility.yul\":12864:12865   */\n      0x00\n        /* \"#utility.yul\":12857:12872   */\n      revert\n        /* \"#utility.yul\":12750:12882   */\n    tag_506:\n      pop\n        /* \"#utility.yul\":12896:12905   */\n      div\n      swap1\n        /* \"#utility.yul\":12694:12911   */\n      jump\t// out\n        /* \"#utility.yul\":12916:13041   */\n    tag_136:\n        /* \"#utility.yul\":12956:12960   */\n      0x00\n        /* \"#utility.yul\":12984:12985   */\n      dup3\n        /* \"#utility.yul\":12981:12982   */\n      dup3\n        /* \"#utility.yul\":12978:12986   */\n      lt\n        /* \"#utility.yul\":12975:13009   */\n      iszero\n      tag_509\n      jumpi\n        /* \"#utility.yul\":12989:13007   */\n      tag_509\n      tag_504\n      jump\t// in\n    tag_509:\n      pop\n        /* \"#utility.yul\":13026:13035   */\n      sub\n      swap1\n        /* \"#utility.yul\":12916:13041   */\n      jump\t// out\n        /* \"#utility.yul\":13046:13304   */\n    tag_462:\n        /* \"#utility.yul\":13118:13119   */\n      0x00\n        /* \"#utility.yul\":13128:13241   */\n    tag_511:\n        /* \"#utility.yul\":13142:13148   */\n      dup4\n        /* \"#utility.yul\":13139:13140   */\n      dup2\n        /* \"#utility.yul\":13136:13149   */\n      lt\n        /* \"#utility.yul\":13128:13241   */\n      iszero\n      tag_513\n      jumpi\n        /* \"#utility.yul\":13218:13229   */\n      dup2\n      dup2\n      add\n        /* \"#utility.yul\":13212:13230   */\n      mload\n        /* \"#utility.yul\":13199:13210   */\n      dup4\n      dup3\n      add\n        /* \"#utility.yul\":13192:13231   */\n      mstore\n        /* \"#utility.yul\":13164:13166   */\n      0x20\n        /* \"#utility.yul\":13157:13167   */\n      add\n        /* \"#utility.yul\":13128:13241   */\n      jump(tag_511)\n    tag_513:\n        /* \"#utility.yul\":13259:13265   */\n      dup4\n        /* \"#utility.yul\":13256:13257   */\n      dup2\n        /* \"#utility.yul\":13253:13266   */\n      gt\n        /* \"#utility.yul\":13250:13298   */\n      iszero\n      tag_304\n      jumpi\n      pop\n      pop\n        /* \"#utility.yul\":13294:13295   */\n      0x00\n        /* \"#utility.yul\":13276:13292   */\n      swap2\n      add\n        /* \"#utility.yul\":13269:13296   */\n      mstore\n        /* \"#utility.yul\":13046:13304   */\n      jump\t// out\n        /* \"#utility.yul\":13309:13689   */\n    tag_178:\n        /* \"#utility.yul\":13388:13389   */\n      0x01\n        /* \"#utility.yul\":13384:13396   */\n      dup2\n      dup2\n      shr\n      swap1\n        /* \"#utility.yul\":13431:13443   */\n      dup3\n      and\n      dup1\n        /* \"#utility.yul\":13452:13513   */\n      tag_516\n      jumpi\n        /* \"#utility.yul\":13506:13510   */\n      0x7f\n        /* \"#utility.yul\":13498:13504   */\n      dup3\n        /* \"#utility.yul\":13494:13511   */\n      and\n        /* \"#utility.yul\":13484:13511   */\n      swap2\n      pop\n        /* \"#utility.yul\":13452:13513   */\n    tag_516:\n        /* \"#utility.yul\":13559:13561   */\n      0x20\n        /* \"#utility.yul\":13551:13557   */\n      dup3\n        /* \"#utility.yul\":13548:13562   */\n      lt\n        /* \"#utility.yul\":13528:13546   */\n      dup2\n        /* \"#utility.yul\":13525:13563   */\n      eq\n        /* \"#utility.yul\":13522:13683   */\n      iszero\n      tag_517\n      jumpi\n        /* \"#utility.yul\":13605:13615   */\n      0x4e487b71\n        /* \"#utility.yul\":13600:13603   */\n      0xe0\n        /* \"#utility.yul\":13596:13616   */\n      shl\n        /* \"#utility.yul\":13593:13594   */\n      0x00\n        /* \"#utility.yul\":13586:13617   */\n      mstore\n        /* \"#utility.yul\":13640:13644   */\n      0x22\n        /* \"#utility.yul\":13637:13638   */\n      0x04\n        /* \"#utility.yul\":13630:13645   */\n      mstore\n        /* \"#utility.yul\":13668:13672   */\n      0x24\n        /* \"#utility.yul\":13665:13666   */\n      0x00\n        /* \"#utility.yul\":13658:13673   */\n      revert\n        /* \"#utility.yul\":13522:13683   */\n    tag_517:\n      pop\n        /* \"#utility.yul\":13309:13689   */\n      swap2\n      swap1\n      pop\n      jump\t// out\n        /* \"#utility.yul\":13694:13829   */\n    tag_192:\n        /* \"#utility.yul\":13733:13736   */\n      0x00\n      not(0x00)\n        /* \"#utility.yul\":13754:13771   */\n      dup3\n      eq\n        /* \"#utility.yul\":13751:13794   */\n      iszero\n      tag_520\n      jumpi\n        /* \"#utility.yul\":13774:13792   */\n      tag_520\n      tag_504\n      jump\t// in\n    tag_520:\n      pop\n        /* \"#utility.yul\":13821:13822   */\n      0x01\n        /* \"#utility.yul\":13810:13823   */\n      add\n      swap1\n        /* \"#utility.yul\":13694:13829   */\n      jump\t// out\n        /* \"#utility.yul\":13834:13961   */\n    tag_504:\n        /* \"#utility.yul\":13895:13905   */\n      0x4e487b71\n        /* \"#utility.yul\":13890:13893   */\n      0xe0\n        /* \"#utility.yul\":13886:13906   */\n      shl\n        /* \"#utility.yul\":13883:13884   */\n      0x00\n        /* \"#utility.yul\":13876:13907   */\n      mstore\n        /* \"#utility.yul\":13926:13930   */\n      0x11\n        /* \"#utility.yul\":13923:13924   */\n      0x04\n        /* \"#utility.yul\":13916:13931   */\n      mstore\n        /* \"#utility.yul\":13950:13954   */\n      0x24\n        /* \"#utility.yul\":13947:13948   */\n      0x00\n        /* \"#utility.yul\":13940:13955   */\n      revert\n        /* \"#utility.yul\":13966:14093   */\n    tag_125:\n        /* \"#utility.yul\":14027:14037   */\n      0x4e487b71\n        /* \"#utility.yul\":14022:14025   */\n      0xe0\n        /* \"#utility.yul\":14018:14038   */\n      shl\n        /* \"#utility.yul\":14015:14016   */\n      0x00\n        /* \"#utility.yul\":14008:14039   */\n      mstore\n        /* \"#utility.yul\":14058:14062   */\n      0x32\n        /* \"#utility.yul\":14055:14056   */\n      0x04\n        /* \"#utility.yul\":14048:14063   */\n      mstore\n        /* \"#utility.yul\":14082:14086   */\n      0x24\n        /* \"#utility.yul\":14079:14080   */\n      0x00\n        /* \"#utility.yul\":14072:14087   */\n      revert\n        /* \"#utility.yul\":14098:14225   */\n    tag_407:\n        /* \"#utility.yul\":14159:14169   */\n      0x4e487b71\n        /* \"#utility.yul\":14154:14157   */\n      0xe0\n        /* \"#utility.yul\":14150:14170   */\n      shl\n        /* \"#utility.yul\":14147:14148   */\n      0x00\n        /* \"#utility.yul\":14140:14171   */\n      mstore\n        /* \"#utility.yul\":14190:14194   */\n      0x41\n        /* \"#utility.yul\":14187:14188   */\n      0x04\n        /* \"#utility.yul\":14180:14195   */\n      mstore\n        /* \"#utility.yul\":14214:14218   */\n      0x24\n        /* \"#utility.yul\":14211:14212   */\n      0x00\n        /* \"#utility.yul\":14204:14219   */\n      revert\n\n    auxdata: 0xa264697066735822122034075444303df28656cb3d200e4eec380aaa2e48c4cf40275b126f52a849902064736f6c63430008070033\n}\n",
				"bytecode": {
					"linkReferences": {},
					"object": "60806040526000600d553480156200001657600080fd5b506040518060c0016040528060405180604001604052806004815260200163119bdbd960e21b81525081526020016200006e604051806040016040528060018152602001603160f81b8152506200055260201b60201c565b815260408051808201825260018152603160f81b602082810191909152808401919091528151808301835260068152654d6f73636f7760d01b81830152918301919091526103e86060830152600060809092018290527322140e5eee5a0341a107bd6a65ee0f5bb72deb9082529081528151805160008051602062002934833981519152926200010392849291019062000584565b5060208281015160018301556040830151805162000128926002850192019062000584565b50606082015180516200014691600384019160209091019062000584565b506080820151600482015560a090910151600590910155600060208190526002805460018101825591526000805160206200293483398151915280546000805160206200291483398151915290920191620001a190620006ec565b620001ae92919062000613565b506040518060c0016040528060405180604001604052806007815260200166436c6f7468657360c81b815250815260200162000209604051806040016040528060018152602001603160f81b8152506200055260201b60201c565b815260408051808201825260018152601960f91b6020828101919091528084019190915281518083018352600a8152695065746572736275726760b01b81830152918301919091526103e86060830152600060809092018290527332bbfd99dfcf2a15c1d278a19856683930a8be0b8252908152815180516000805160206200295483398151915292620002a292849291019062000584565b50602082810151600183015560408301518051620002c7926002850192019062000584565b5060608201518051620002e591600384019160209091019062000584565b506080820151600482015560a0909101516005909101556000602081905260028054600181018255915260008051602062002954833981519152805460008051602062002914833981519152909201916200034090620006ec565b6200034d92919062000613565b5073c152ad455b16d865f2344140dec6ea95cb361e8a60056040516200037d90635065746160e01b815260040190565b908152604080516020928190038301812080546001600160a01b0319166001600160a01b03959095169490941790935560e083018152600460a08401908152635065746160e01b60c08501528352805180820190915260018152601960f91b8183015290820190620003ef9062000552565b81526103e8602080830191909152600060408301819052606090920182905273c152ad455b16d865f2344140dec6ea95cb361e8a90915260048152815180517f46be32a2e9b8e0f4c8f06b744988be62b4f05119193ea23be26a02d9470d0ccd926200046092849291019062000584565b506020828101516001838101919091556040808501516002850155606085015160038501556080909401516004938401805460ff19169115159190911790556006805491820181556000528351808501909452828452635065746160e01b93909101928352620004f5927ff652222313e28459528d920b65115c16c04f3efc82aaedc97be59f3f377c0d3f9091019162000584565b50600780546001810182556000919091527fa66cc928b5edb82af9bd49922954155ab7b0942694bea4ce44661d9a8736c6880180546001600160a01b03191673c152ad455b16d865f2344140dec6ea95cb361e8a17905562000729565b600081604051602001620005679190620006ae565b604051602081830303815290604052805190602001209050919050565b8280546200059290620006ec565b90600052602060002090601f016020900481019282620005b6576000855562000601565b82601f10620005d157805160ff191683800117855562000601565b8280016001018555821562000601579182015b8281111562000601578251825591602001919060010190620005e4565b506200060f92915062000697565b5090565b8280546200062190620006ec565b90600052602060002090601f01602090048101928262000645576000855562000601565b82601f1062000658578054855562000601565b828001600101855582156200060157600052602060002091601f016020900482015b82811115620006015782548255916001019190600101906200067a565b5b808211156200060f576000815560010162000698565b6000825160005b81811015620006d15760208186018101518583015201620006b5565b81811115620006e1576000828501525b509190910192915050565b600181811c908216806200070157607f821691505b602082108114156200072357634e487b7160e01b600052602260045260246000fd5b50919050565b6121db80620007396000396000f3fe608060405234801561001057600080fd5b506004361061011d5760003560e01c80630c72b1ec146101225780630e1c81b214610137578063146dc6ed1461014a5780631bbe970a1461015d57806329e795f3146101ae5780632ccdef7c146101c15780632d4673e3146101d457806334d2c0ad146101e75780636ba44d3c146101fc5780636c05dd1d1461020f5780637ddb273d14610222578063845952a814610244578063961865f014610265578063a985036d14610289578063a9f9482b1461029c578063bbd43363146102af578063c178b9af146102c2578063c4957fa0146102ca578063cc21c188146102fe578063d22d902014610311578063d68cf8c114610324578063dce3915114610347578063f69483c11461035a575b600080fd5b610135610130366004611e3f565b61036d565b005b610135610145366004611ba8565b610543565b610135610158366004611bfe565b610739565b61019161016b366004611bfe565b80516020818301810180516005825292820191909301209152546001600160a01b031681565b6040516001600160a01b0390911681526020015b60405180910390f35b6101356101bc366004611c32565b610890565b6101356101cf366004611e3f565b6109f4565b6101356101e2366004611bfe565b610b2c565b6101ef610bd8565b6040516101a59190611fc5565b61019161020a366004611bfe565b610cb1565b61013561021d366004611dba565b610ce2565b610235610230366004611e26565b610dd9565b6040516101a593929190611f58565b610257610252366004611bfe565b610ea4565b6040519081526020016101a5565b610278610273366004611b86565b610ed4565b6040516101a5959493929190612027565b610257610297366004611bfe565b610f8e565b6102356102aa366004611e26565b611196565b6101356102bd366004611bfe565b6111a6565b6101ef611252565b6101916102d8366004611bfe565b80516020818301810180516001825292820191909301209152546001600160a01b031681565b61013561030c366004611d5f565b611322565b61013561031f366004611d1b565b6115f6565b610337610332366004611bfe565b6117e0565b6040516101a59493929190611f8e565b610235610355366004611e26565b6118a6565b610135610368366004611e3f565b6118b6565b60018115151415610508576000600a838154811061038d5761038d612179565b906000526020600020906003020160020160006101000a81548160ff0219169083151502179055506008600a83815481106103ca576103ca612179565b90600052602060002090600302016001016040516103e89190611ebc565b90815260200160405180910390206002015460046000600a858154811061041157610411612179565b600091825260208083206003909202909101546001600160a01b0316835282019290925260400190206002015461044891906120ca565b60046000600a858154811061045f5761045f612179565b600091825260208083206003909202909101546001600160a01b03168352820192909252604001902060020155600a805460089190849081106104a4576104a4612179565b90600052602060002090600302016001016040516104c29190611ebc565b908152604080516020928190038301902060020154336000908152928390529120600401546104f19190612090565b336000908152602081905260409020600401555050565b6000600a838154811061051d5761051d612179565b60009182526020909120600390910201600201805460ff19169115159190911790555050565b739c35a9bdf790a5ce09b353b1c765269ab466baad33146105ab5760405162461bcd60e51b815260206004820152601d60248201527f4572726f723a20596f75206e6f742061207a65726f206163636f756e7400000060448201526064015b60405180910390fd5b60006001600160a01b03166005836040516105c69190611ea0565b908152604051908190036020019020546001600160a01b0316146106285760405162461bcd60e51b8152602060048201526019602482015278115c9c9bdc8e88155cd95c88185b1c9958591e48195e1a5cdd603a1b60448201526064016105a2565b6040805160a08101825283815260208082018490526103e882840152600060608301819052608083018190526001600160a01b03871681526004825292909220815180519293919261067d92849201906119af565b50602082015160018201556040808301516002830155606083015160038301556080909201516004909101805460ff19169115159190911790555183906005906106c8908590611ea0565b90815260405190819003602001902080546001600160a01b039283166001600160a01b031991821617909155600780546001810182556000919091527fa66cc928b5edb82af9bd49922954155ab7b0942694bea4ce44661d9a8736c688018054959092169416939093179092555050565b6008816040516107499190611ea0565b90815260200160405180910390206002015460046000336001600160a01b03166001600160a01b031681526020019081526020016000206002015410156107c55760405162461bcd60e51b815260206004820152601060248201526f6572726f723a206e6f74206d6f6e657960801b60448201526064016105a2565b6040805160608101825233815260208082018481526001938301849052600a8054948501815560005282517fc65a7bb8d6351c1cf70c95a316cc6a92839c986682d98bc35f958f4883f9d2a8600390950294850180546001600160a01b0319166001600160a01b039092169190911781559051805193949193610871937fc65a7bb8d6351c1cf70c95a316cc6a92839c986682d98bc35f958f4883f9d2a99093019291909101906119af565b50604091909101516002909101805460ff191691151591909117905550565b60005b6003548110156109ef576000600382815481106108b2576108b2612179565b906000526020600020906005020160010180546108ce9061210d565b80601f01602080910402602001604051908101604052809291908181526020018280546108fa9061210d565b80156109475780601f1061091c57610100808354040283529160200191610947565b820191906000526020600020905b81548152906001019060200180831161092a57829003601f168201915b505050505090508360405160200161095f9190611ea0565b60405160208183030381529060405280519060200120816040516020016109869190611ea0565b6040516020818303038152906040528051906020012014156109dc5782600383815481106109b6576109b6612179565b906000526020600020906005020160040190805190602001906109da929190611a33565b505b50806109e781612148565b915050610893565b505050565b60018115151415610b17576000600b8381548110610a1457610a14612179565b906000526020600020906003020160020160006101000a81548160ff0219169083151502179055506008600b8381548110610a5157610a51612179565b9060005260206000209060030201600101604051610a6f9190611ebc565b90815260200160405180910390206002015460046000600b8581548110610a9857610a98612179565b600091825260208083206003909202909101546001600160a01b03168352820192909252604001902060020154610acf9190612090565b60046000600b8581548110610ae657610ae6612179565b600091825260208083206003909202909101546001600160a01b031683528201929092526040019020600201555050565b6000600b838154811061051d5761051d612179565b6040805160608101825233815260208082018481526001938301849052600c8054948501815560005282517fdf6966c971051c3d54ec59162606531493a51404a002842f56009d7e5cf4a8c7600390950294850180546001600160a01b0319166001600160a01b039092169190911781559051805193949193610871937fdf6966c971051c3d54ec59162606531493a51404a002842f56009d7e5cf4a8c89093019291909101906119af565b60606009805480602002602001604051908101604052809291908181526020016000905b82821015610ca8578382906000526020600020018054610c1b9061210d565b80601f0160208091040260200160405190810160405280929190818152602001828054610c479061210d565b8015610c945780601f10610c6957610100808354040283529160200191610c94565b820191906000526020600020905b815481529060010190602001808311610c7757829003601f168201915b505050505081526020019060010190610bfc565b50505050905090565b6000600582604051610cc39190611ea0565b908152604051908190036020019020546001600160a01b031692915050565b6040518060800160405280336001600160a01b03168152602001828152602001838152602001600d54815250600884604051610d1e9190611ea0565b90815260405160209181900382019020825181546001600160a01b0319166001600160a01b039091161781558282015180519192610d64926001850192909101906119af565b5060408201516002820155606090910151600390910155600980546001810182556000919091528351610dbe917f6e1540171b6c0c960b71a7020d9f60077f6af931a8bbf590da0223dacf75c7af019060208601906119af565b50600d8054906000610dcf83612148565b9190505550505050565b600c8181548110610de957600080fd5b6000918252602090912060039091020180546001820180546001600160a01b03909216935090610e189061210d565b80601f0160208091040260200160405190810160405280929190818152602001828054610e449061210d565b8015610e915780601f10610e6657610100808354040283529160200191610e91565b820191906000526020600020905b815481529060010190602001808311610e7457829003601f168201915b5050506002909301549192505060ff1683565b600081604051602001610eb79190611ea0565b604051602081830303815290604052805190602001209050919050565b600460205260009081526040902080548190610eef9061210d565b80601f0160208091040260200160405190810160405280929190818152602001828054610f1b9061210d565b8015610f685780601f10610f3d57610100808354040283529160200191610f68565b820191906000526020600020905b815481529060010190602001808311610f4b57829003601f168201915b505050506001830154600284015460038501546004909501549394919390925060ff1685565b60008080805b60025481101561117957600060028281548110610fb357610fb3612179565b906000526020600020018054610fc89061210d565b80601f0160208091040260200160405190810160405280929190818152602001828054610ff49061210d565b80156110415780601f1061101657610100808354040283529160200191611041565b820191906000526020600020905b81548152906001019060200180831161102457829003601f168201915b50505050509050856040516020016110599190611ea0565b60405160208183030381529060405280519060200120816040516020016110809190611ea0565b60405160208183030381529060405280519060200120141561116657600091505b600354821161116657600382815481106110bd576110bd612179565b90600052602060002090600502016000016040516020016110de9190611ebc565b60405160208183030381529060405280519060200120866040516020016111059190611ea0565b604051602081830303815290604052805190602001201415611154576003828154811061113457611134612179565b906000526020600020906005020160030154836111519190612090565b92505b8161115e81612148565b9250506110a1565b508061117181612148565b915050610f94565b5061118482826120a8565b61118e9082612090565b949350505050565b600b8181548110610de957600080fd5b6040805160608101825233815260208082018481526001938301849052600b8054948501815560005282517f0175b7a638427703f0dbe7bb9bbf987a2551717b34e79f33b5b1008d1fa01db9600390950294850180546001600160a01b0319166001600160a01b039092169190911781559051805193949193610871937f0175b7a638427703f0dbe7bb9bbf987a2551717b34e79f33b5b1008d1fa01dba9093019291909101906119af565b60606002805480602002602001604051908101604052809291908181526020016000905b82821015610ca85783829060005260206000200180546112959061210d565b80601f01602080910402602001604051908101604052809291908181526020018280546112c19061210d565b801561130e5780601f106112e35761010080835404028352916020019161130e565b820191906000526020600020905b8154815290600101906020018083116112f157829003601f168201915b505050505081526020019060010190611276565b600a81111561137d5760405162461bcd60e51b815260206004820152602160248201527f6572726f723a20726174696e672063616e2062652066726f6d203120746f20316044820152600360fc1b60648201526084016105a2565b60005b60025481116115f05760006002828154811061139e5761139e612179565b9060005260206000200180546113b39061210d565b80601f01602080910402602001604051908101604052809291908181526020018280546113df9061210d565b801561142c5780601f106114015761010080835404028352916020019161142c565b820191906000526020600020905b81548152906001019060200180831161140f57829003601f168201915b50505050509050846040516020016114449190611ea0565b604051602081830303815290604052805190602001208160405160200161146b9190611ea0565b6040516020818303038152906040528051906020012014156115dd576040805160a08101825286815233600090815260046020908152929020805460609360039392908301916114ba9061210d565b80601f01602080910402602001604051908101604052809291908181526020018280546114e69061210d565b80156115335780601f1061150857610100808354040283529160200191611533565b820191906000526020600020905b81548152906001019060200180831161151657829003601f168201915b5050509183525050602080820189905260408201889052606090910184905282546001810184556000938452928190208251805193946005029091019261157d92849201906119af565b50602082810151805161159692600185019201906119af565b50604082015180516115b29160028401916020909101906119af565b5060608201516003820155608082015180516115d8916004840191602090910190611a33565b505050505b50806115e881612148565b915050611380565b50505050565b6004600060058460405161160a9190611ea0565b9081526040805160209281900383019020546001600160a01b0316835290820192909252016000206004015460ff16156116865760405162461bcd60e51b815260206004820152601d60248201527f4572726f723a20596f752061726520616c7265616479206c6f6767656400000060448201526064016105a2565b60006001600160a01b03166005836040516116a19190611ea0565b908152604051908190036020019020546001600160a01b031614156117045760405162461bcd60e51b8152602060048201526019602482015278115c9c9bdc8e88155cd95c88191bd95cdb89dd08195e1a5cdd603a1b60448201526064016105a2565b80600460006005856040516117199190611ea0565b9081526040805160209281900383019020546001600160a01b031683529082019290925201600020600101541461178c5760405162461bcd60e51b8152602060048201526017602482015276115c9c9bdc8e88125b9d985b1a59081c185cdcdddbdc99604a1b60448201526064016105a2565b6001600460006005856040516117a29190611ea0565b9081526040805160209281900383019020546001600160a01b031683529082019290925201600020600401805460ff19169115159190911790555050565b8051602081830181018051600882529282019190930120915280546001820180546001600160a01b0390921692916118179061210d565b80601f01602080910402602001604051908101604052809291908181526020018280546118439061210d565b80156118905780601f1061186557610100808354040283529160200191611890565b820191906000526020600020905b81548152906001019060200180831161187357829003601f168201915b5050505050908060020154908060030154905084565b600a8181548110610de957600080fd5b60018115151415610b17576008600c83815481106118d6576118d6612179565b90600052602060002090600302016001016040516118f49190611ebc565b90815260200160405180910390206002015460046000600c858154811061191d5761191d612179565b600091825260208083206003909202909101546001600160a01b031683528201929092526040019020600201546119549190612090565b60046000600c858154811061196b5761196b612179565b600091825260208083206003909202909101546001600160a01b03168352820192909252604001812060020191909155600b80548490811061051d5761051d612179565b8280546119bb9061210d565b90600052602060002090601f0160209004810192826119dd5760008555611a23565b82601f106119f657805160ff1916838001178555611a23565b82800160010185558215611a23579182015b82811115611a23578251825591602001919060010190611a08565b50611a2f929150611a8c565b5090565b828054828255906000526020600020908101928215611a80579160200282015b82811115611a805782518051611a709184916020909101906119af565b5091602001919060010190611a53565b50611a2f929150611aa1565b5b80821115611a2f5760008155600101611a8d565b80821115611a2f576000611ab58282611abe565b50600101611aa1565b508054611aca9061210d565b6000825580601f10611ada575050565b601f016020900490600052602060002090810190611af89190611a8c565b50565b80356001600160a01b0381168114611b1257600080fd5b919050565b600082601f830112611b2857600080fd5b81356001600160401b03811115611b4157611b4161218f565b611b54601f8201601f1916602001612060565b818152846020838601011115611b6957600080fd5b816020850160208301376000918101602001919091529392505050565b600060208284031215611b9857600080fd5b611ba182611afb565b9392505050565b600080600060608486031215611bbd57600080fd5b611bc684611afb565b925060208401356001600160401b03811115611be157600080fd5b611bed86828701611b17565b925050604084013590509250925092565b600060208284031215611c1057600080fd5b81356001600160401b03811115611c2657600080fd5b61118e84828501611b17565b60008060408385031215611c4557600080fd5b82356001600160401b0380821115611c5c57600080fd5b611c6886838701611b17565b9350602091508185013581811115611c7f57600080fd5b8501601f81018713611c9057600080fd5b803582811115611ca257611ca261218f565b8060051b611cb1858201612060565b8281528581019084870183860188018c1015611ccc57600080fd5b60009350835b85811015611d0957813588811115611ce8578586fd5b611cf68e8b838b0101611b17565b8552509288019290880190600101611cd2565b50989b909a5098505050505050505050565b60008060408385031215611d2e57600080fd5b82356001600160401b03811115611d4457600080fd5b611d5085828601611b17565b95602094909401359450505050565b600080600060608486031215611d7457600080fd5b83356001600160401b0380821115611d8b57600080fd5b611d9787838801611b17565b94506020860135915080821115611dad57600080fd5b50611bed86828701611b17565b600080600060608486031215611dcf57600080fd5b83356001600160401b0380821115611de657600080fd5b611df287838801611b17565b9450602086013593506040860135915080821115611e0f57600080fd5b50611e1c86828701611b17565b9150509250925092565b600060208284031215611e3857600080fd5b5035919050565b60008060408385031215611e5257600080fd5b8235915060208301358015158114611e6957600080fd5b809150509250929050565b60008151808452611e8c8160208601602086016120e1565b601f01601f19169290920160200192915050565b60008251611eb28184602087016120e1565b9190910192915050565b600080835481600182811c915080831680611ed857607f831692505b6020808410821415611ef857634e487b7160e01b86526022600452602486fd5b818015611f0c5760018114611f1d57611f4a565b60ff19861689528489019650611f4a565b60008a81526020902060005b86811015611f425781548b820152908501908301611f29565b505084890196505b509498975050505050505050565b6001600160a01b0384168152606060208201819052600090611f7c90830185611e74565b90508215156040830152949350505050565b6001600160a01b0385168152608060208201819052600090611fb290830186611e74565b6040830194909452506060015292915050565b6000602080830181845280855180835260408601915060408160051b870101925083870160005b8281101561201a57603f19888603018452612008858351611e74565b94509285019290850190600101611fec565b5092979650505050505050565b60a08152600061203a60a0830188611e74565b905085602083015284604083015283606083015282151560808301529695505050505050565b604051601f8201601f191681016001600160401b03811182821017156120885761208861218f565b604052919050565b600082198211156120a3576120a3612163565b500190565b6000826120c557634e487b7160e01b600052601260045260246000fd5b500490565b6000828210156120dc576120dc612163565b500390565b60005b838110156120fc5781810151838201526020016120e4565b838111156115f05750506000910152565b600181811c9082168061212157607f821691505b6020821081141561214257634e487b7160e01b600052602260045260246000fd5b50919050565b600060001982141561215c5761215c612163565b5060010190565b634e487b7160e01b600052601160045260246000fd5b634e487b7160e01b600052603260045260246000fd5b634e487b7160e01b600052604160045260246000fdfea264697066735822122034075444303df28656cb3d200e4eec380aaa2e48c4cf40275b126f52a849902064736f6c63430008070033405787fa12a823e0f2b7631cc41b3ba8828b3321ca811111fa75cd3aa3bb5acec49e92deb93ac19463e0f89b887a2ab81c6b5eadf7dc1bc8bd12ce4040f656fc5c83a96f0abbcc4e29b827af3528e41db71dd7823e05e1374cd098351a380d7f",
					"opcodes": "PUSH1 0x80 PUSH1 0x40 MSTORE PUSH1 0x0 PUSH1 0xD SSTORE CALLVALUE DUP1 ISZERO PUSH3 0x16 JUMPI PUSH1 0x0 DUP1 REVERT JUMPDEST POP PUSH1 0x40 MLOAD DUP1 PUSH1 0xC0 ADD PUSH1 0x40 MSTORE DUP1 PUSH1 0x40 MLOAD DUP1 PUSH1 0x40 ADD PUSH1 0x40 MSTORE DUP1 PUSH1 0x4 DUP2 MSTORE PUSH1 0x20 ADD PUSH4 0x119BDBD9 PUSH1 0xE2 SHL DUP2 MSTORE POP DUP2 MSTORE PUSH1 0x20 ADD PUSH3 0x6E PUSH1 0x40 MLOAD DUP1 PUSH1 0x40 ADD PUSH1 0x40 MSTORE DUP1 PUSH1 0x1 DUP2 MSTORE PUSH1 0x20 ADD PUSH1 0x31 PUSH1 0xF8 SHL DUP2 MSTORE POP PUSH3 0x552 PUSH1 0x20 SHL PUSH1 0x20 SHR JUMP JUMPDEST DUP2 MSTORE PUSH1 0x40 DUP1 MLOAD DUP1 DUP3 ADD DUP3 MSTORE PUSH1 0x1 DUP2 MSTORE PUSH1 0x31 PUSH1 0xF8 SHL PUSH1 0x20 DUP3 DUP2 ADD SWAP2 SWAP1 SWAP2 MSTORE DUP1 DUP5 ADD SWAP2 SWAP1 SWAP2 MSTORE DUP2 MLOAD DUP1 DUP4 ADD DUP4 MSTORE PUSH1 0x6 DUP2 MSTORE PUSH6 0x4D6F73636F77 PUSH1 0xD0 SHL DUP2 DUP4 ADD MSTORE SWAP2 DUP4 ADD SWAP2 SWAP1 SWAP2 MSTORE PUSH2 0x3E8 PUSH1 0x60 DUP4 ADD MSTORE PUSH1 0x0 PUSH1 0x80 SWAP1 SWAP3 ADD DUP3 SWAP1 MSTORE PUSH20 0x22140E5EEE5A0341A107BD6A65EE0F5BB72DEB90 DUP3 MSTORE SWAP1 DUP2 MSTORE DUP2 MLOAD DUP1 MLOAD PUSH1 0x0 DUP1 MLOAD PUSH1 0x20 PUSH3 0x2934 DUP4 CODECOPY DUP2 MLOAD SWAP2 MSTORE SWAP3 PUSH3 0x103 SWAP3 DUP5 SWAP3 SWAP2 ADD SWAP1 PUSH3 0x584 JUMP JUMPDEST POP PUSH1 0x20 DUP3 DUP2 ADD MLOAD PUSH1 0x1 DUP4 ADD SSTORE PUSH1 0x40 DUP4 ADD MLOAD DUP1 MLOAD PUSH3 0x128 SWAP3 PUSH1 0x2 DUP6 ADD SWAP3 ADD SWAP1 PUSH3 0x584 JUMP JUMPDEST POP PUSH1 0x60 DUP3 ADD MLOAD DUP1 MLOAD PUSH3 0x146 SWAP2 PUSH1 0x3 DUP5 ADD SWAP2 PUSH1 0x20 SWAP1 SWAP2 ADD SWAP1 PUSH3 0x584 JUMP JUMPDEST POP PUSH1 0x80 DUP3 ADD MLOAD PUSH1 0x4 DUP3 ADD SSTORE PUSH1 0xA0 SWAP1 SWAP2 ADD MLOAD PUSH1 0x5 SWAP1 SWAP2 ADD SSTORE PUSH1 0x0 PUSH1 0x20 DUP2 SWAP1 MSTORE PUSH1 0x2 DUP1 SLOAD PUSH1 0x1 DUP2 ADD DUP3 SSTORE SWAP2 MSTORE PUSH1 0x0 DUP1 MLOAD PUSH1 0x20 PUSH3 0x2934 DUP4 CODECOPY DUP2 MLOAD SWAP2 MSTORE DUP1 SLOAD PUSH1 0x0 DUP1 MLOAD PUSH1 0x20 PUSH3 0x2914 DUP4 CODECOPY DUP2 MLOAD SWAP2 MSTORE SWAP1 SWAP3 ADD SWAP2 PUSH3 0x1A1 SWAP1 PUSH3 0x6EC JUMP JUMPDEST PUSH3 0x1AE SWAP3 SWAP2 SWAP1 PUSH3 0x613 JUMP JUMPDEST POP PUSH1 0x40 MLOAD DUP1 PUSH1 0xC0 ADD PUSH1 0x40 MSTORE DUP1 PUSH1 0x40 MLOAD DUP1 PUSH1 0x40 ADD PUSH1 0x40 MSTORE DUP1 PUSH1 0x7 DUP2 MSTORE PUSH1 0x20 ADD PUSH7 0x436C6F74686573 PUSH1 0xC8 SHL DUP2 MSTORE POP DUP2 MSTORE PUSH1 0x20 ADD PUSH3 0x209 PUSH1 0x40 MLOAD DUP1 PUSH1 0x40 ADD PUSH1 0x40 MSTORE DUP1 PUSH1 0x1 DUP2 MSTORE PUSH1 0x20 ADD PUSH1 0x31 PUSH1 0xF8 SHL DUP2 MSTORE POP PUSH3 0x552 PUSH1 0x20 SHL PUSH1 0x20 SHR JUMP JUMPDEST DUP2 MSTORE PUSH1 0x40 DUP1 MLOAD DUP1 DUP3 ADD DUP3 MSTORE PUSH1 0x1 DUP2 MSTORE PUSH1 0x19 PUSH1 0xF9 SHL PUSH1 0x20 DUP3 DUP2 ADD SWAP2 SWAP1 SWAP2 MSTORE DUP1 DUP5 ADD SWAP2 SWAP1 SWAP2 MSTORE DUP2 MLOAD DUP1 DUP4 ADD DUP4 MSTORE PUSH1 0xA DUP2 MSTORE PUSH10 0x50657465727362757267 PUSH1 0xB0 SHL DUP2 DUP4 ADD MSTORE SWAP2 DUP4 ADD SWAP2 SWAP1 SWAP2 MSTORE PUSH2 0x3E8 PUSH1 0x60 DUP4 ADD MSTORE PUSH1 0x0 PUSH1 0x80 SWAP1 SWAP3 ADD DUP3 SWAP1 MSTORE PUSH20 0x32BBFD99DFCF2A15C1D278A19856683930A8BE0B DUP3 MSTORE SWAP1 DUP2 MSTORE DUP2 MLOAD DUP1 MLOAD PUSH1 0x0 DUP1 MLOAD PUSH1 0x20 PUSH3 0x2954 DUP4 CODECOPY DUP2 MLOAD SWAP2 MSTORE SWAP3 PUSH3 0x2A2 SWAP3 DUP5 SWAP3 SWAP2 ADD SWAP1 PUSH3 0x584 JUMP JUMPDEST POP PUSH1 0x20 DUP3 DUP2 ADD MLOAD PUSH1 0x1 DUP4 ADD SSTORE PUSH1 0x40 DUP4 ADD MLOAD DUP1 MLOAD PUSH3 0x2C7 SWAP3 PUSH1 0x2 DUP6 ADD SWAP3 ADD SWAP1 PUSH3 0x584 JUMP JUMPDEST POP PUSH1 0x60 DUP3 ADD MLOAD DUP1 MLOAD PUSH3 0x2E5 SWAP2 PUSH1 0x3 DUP5 ADD SWAP2 PUSH1 0x20 SWAP1 SWAP2 ADD SWAP1 PUSH3 0x584 JUMP JUMPDEST POP PUSH1 0x80 DUP3 ADD MLOAD PUSH1 0x4 DUP3 ADD SSTORE PUSH1 0xA0 SWAP1 SWAP2 ADD MLOAD PUSH1 0x5 SWAP1 SWAP2 ADD SSTORE PUSH1 0x0 PUSH1 0x20 DUP2 SWAP1 MSTORE PUSH1 0x2 DUP1 SLOAD PUSH1 0x1 DUP2 ADD DUP3 SSTORE SWAP2 MSTORE PUSH1 0x0 DUP1 MLOAD PUSH1 0x20 PUSH3 0x2954 DUP4 CODECOPY DUP2 MLOAD SWAP2 MSTORE DUP1 SLOAD PUSH1 0x0 DUP1 MLOAD PUSH1 0x20 PUSH3 0x2914 DUP4 CODECOPY DUP2 MLOAD SWAP2 MSTORE SWAP1 SWAP3 ADD SWAP2 PUSH3 0x340 SWAP1 PUSH3 0x6EC JUMP JUMPDEST PUSH3 0x34D SWAP3 SWAP2 SWAP1 PUSH3 0x613 JUMP JUMPDEST POP PUSH20 0xC152AD455B16D865F2344140DEC6EA95CB361E8A PUSH1 0x5 PUSH1 0x40 MLOAD PUSH3 0x37D SWAP1 PUSH4 0x50657461 PUSH1 0xE0 SHL DUP2 MSTORE PUSH1 0x4 ADD SWAP1 JUMP JUMPDEST SWAP1 DUP2 MSTORE PUSH1 0x40 DUP1 MLOAD PUSH1 0x20 SWAP3 DUP2 SWAP1 SUB DUP4 ADD DUP2 KECCAK256 DUP1 SLOAD PUSH1 0x1 PUSH1 0x1 PUSH1 0xA0 SHL SUB NOT AND PUSH1 0x1 PUSH1 0x1 PUSH1 0xA0 SHL SUB SWAP6 SWAP1 SWAP6 AND SWAP5 SWAP1 SWAP5 OR SWAP1 SWAP4 SSTORE PUSH1 0xE0 DUP4 ADD DUP2 MSTORE PUSH1 0x4 PUSH1 0xA0 DUP5 ADD SWAP1 DUP2 MSTORE PUSH4 0x50657461 PUSH1 0xE0 SHL PUSH1 0xC0 DUP6 ADD MSTORE DUP4 MSTORE DUP1 MLOAD DUP1 DUP3 ADD SWAP1 SWAP2 MSTORE PUSH1 0x1 DUP2 MSTORE PUSH1 0x19 PUSH1 0xF9 SHL DUP2 DUP4 ADD MSTORE SWAP1 DUP3 ADD SWAP1 PUSH3 0x3EF SWAP1 PUSH3 0x552 JUMP JUMPDEST DUP2 MSTORE PUSH2 0x3E8 PUSH1 0x20 DUP1 DUP4 ADD SWAP2 SWAP1 SWAP2 MSTORE PUSH1 0x0 PUSH1 0x40 DUP4 ADD DUP2 SWAP1 MSTORE PUSH1 0x60 SWAP1 SWAP3 ADD DUP3 SWAP1 MSTORE PUSH20 0xC152AD455B16D865F2344140DEC6EA95CB361E8A SWAP1 SWAP2 MSTORE PUSH1 0x4 DUP2 MSTORE DUP2 MLOAD DUP1 MLOAD PUSH32 0x46BE32A2E9B8E0F4C8F06B744988BE62B4F05119193EA23BE26A02D9470D0CCD SWAP3 PUSH3 0x460 SWAP3 DUP5 SWAP3 SWAP2 ADD SWAP1 PUSH3 0x584 JUMP JUMPDEST POP PUSH1 0x20 DUP3 DUP2 ADD MLOAD PUSH1 0x1 DUP4 DUP2 ADD SWAP2 SWAP1 SWAP2 SSTORE PUSH1 0x40 DUP1 DUP6 ADD MLOAD PUSH1 0x2 DUP6 ADD SSTORE PUSH1 0x60 DUP6 ADD MLOAD PUSH1 0x3 DUP6 ADD SSTORE PUSH1 0x80 SWAP1 SWAP5 ADD MLOAD PUSH1 0x4 SWAP4 DUP5 ADD DUP1 SLOAD PUSH1 0xFF NOT AND SWAP2 ISZERO ISZERO SWAP2 SWAP1 SWAP2 OR SWAP1 SSTORE PUSH1 0x6 DUP1 SLOAD SWAP2 DUP3 ADD DUP2 SSTORE PUSH1 0x0 MSTORE DUP4 MLOAD DUP1 DUP6 ADD SWAP1 SWAP5 MSTORE DUP3 DUP5 MSTORE PUSH4 0x50657461 PUSH1 0xE0 SHL SWAP4 SWAP1 SWAP2 ADD SWAP3 DUP4 MSTORE PUSH3 0x4F5 SWAP3 PUSH32 0xF652222313E28459528D920B65115C16C04F3EFC82AAEDC97BE59F3F377C0D3F SWAP1 SWAP2 ADD SWAP2 PUSH3 0x584 JUMP JUMPDEST POP PUSH1 0x7 DUP1 SLOAD PUSH1 0x1 DUP2 ADD DUP3 SSTORE PUSH1 0x0 SWAP2 SWAP1 SWAP2 MSTORE PUSH32 0xA66CC928B5EDB82AF9BD49922954155AB7B0942694BEA4CE44661D9A8736C688 ADD DUP1 SLOAD PUSH1 0x1 PUSH1 0x1 PUSH1 0xA0 SHL SUB NOT AND PUSH20 0xC152AD455B16D865F2344140DEC6EA95CB361E8A OR SWAP1 SSTORE PUSH3 0x729 JUMP JUMPDEST PUSH1 0x0 DUP2 PUSH1 0x40 MLOAD PUSH1 0x20 ADD PUSH3 0x567 SWAP2 SWAP1 PUSH3 0x6AE JUMP JUMPDEST PUSH1 0x40 MLOAD PUSH1 0x20 DUP2 DUP4 SUB SUB DUP2 MSTORE SWAP1 PUSH1 0x40 MSTORE DUP1 MLOAD SWAP1 PUSH1 0x20 ADD KECCAK256 SWAP1 POP SWAP2 SWAP1 POP JUMP JUMPDEST DUP3 DUP1 SLOAD PUSH3 0x592 SWAP1 PUSH3 0x6EC JUMP JUMPDEST SWAP1 PUSH1 0x0 MSTORE PUSH1 0x20 PUSH1 0x0 KECCAK256 SWAP1 PUSH1 0x1F ADD PUSH1 0x20 SWAP1 DIV DUP2 ADD SWAP3 DUP3 PUSH3 0x5B6 JUMPI PUSH1 0x0 DUP6 SSTORE PUSH3 0x601 JUMP JUMPDEST DUP3 PUSH1 0x1F LT PUSH3 0x5D1 JUMPI DUP1 MLOAD PUSH1 0xFF NOT AND DUP4 DUP1 ADD OR DUP6 SSTORE PUSH3 0x601 JUMP JUMPDEST DUP3 DUP1 ADD PUSH1 0x1 ADD DUP6 SSTORE DUP3 ISZERO PUSH3 0x601 JUMPI SWAP2 DUP3 ADD JUMPDEST DUP3 DUP2 GT ISZERO PUSH3 0x601 JUMPI DUP3 MLOAD DUP3 SSTORE SWAP2 PUSH1 0x20 ADD SWAP2 SWAP1 PUSH1 0x1 ADD SWAP1 PUSH3 0x5E4 JUMP JUMPDEST POP PUSH3 0x60F SWAP3 SWAP2 POP PUSH3 0x697 JUMP JUMPDEST POP SWAP1 JUMP JUMPDEST DUP3 DUP1 SLOAD PUSH3 0x621 SWAP1 PUSH3 0x6EC JUMP JUMPDEST SWAP1 PUSH1 0x0 MSTORE PUSH1 0x20 PUSH1 0x0 KECCAK256 SWAP1 PUSH1 0x1F ADD PUSH1 0x20 SWAP1 DIV DUP2 ADD SWAP3 DUP3 PUSH3 0x645 JUMPI PUSH1 0x0 DUP6 SSTORE PUSH3 0x601 JUMP JUMPDEST DUP3 PUSH1 0x1F LT PUSH3 0x658 JUMPI DUP1 SLOAD DUP6 SSTORE PUSH3 0x601 JUMP JUMPDEST DUP3 DUP1 ADD PUSH1 0x1 ADD DUP6 SSTORE DUP3 ISZERO PUSH3 0x601 JUMPI PUSH1 0x0 MSTORE PUSH1 0x20 PUSH1 0x0 KECCAK256 SWAP2 PUSH1 0x1F ADD PUSH1 0x20 SWAP1 DIV DUP3 ADD JUMPDEST DUP3 DUP2 GT ISZERO PUSH3 0x601 JUMPI DUP3 SLOAD DUP3 SSTORE SWAP2 PUSH1 0x1 ADD SWAP2 SWAP1 PUSH1 0x1 ADD SWAP1 PUSH3 0x67A JUMP JUMPDEST JUMPDEST DUP1 DUP3 GT ISZERO PUSH3 0x60F JUMPI PUSH1 0x0 DUP2 SSTORE PUSH1 0x1 ADD PUSH3 0x698 JUMP JUMPDEST PUSH1 0x0 DUP3 MLOAD PUSH1 0x0 JUMPDEST DUP2 DUP2 LT ISZERO PUSH3 0x6D1 JUMPI PUSH1 0x20 DUP2 DUP7 ADD DUP2 ADD MLOAD DUP6 DUP4 ADD MSTORE ADD PUSH3 0x6B5 JUMP JUMPDEST DUP2 DUP2 GT ISZERO PUSH3 0x6E1 JUMPI PUSH1 0x0 DUP3 DUP6 ADD MSTORE JUMPDEST POP SWAP2 SWAP1 SWAP2 ADD SWAP3 SWAP2 POP POP JUMP JUMPDEST PUSH1 0x1 DUP2 DUP2 SHR SWAP1 DUP3 AND DUP1 PUSH3 0x701 JUMPI PUSH1 0x7F DUP3 AND SWAP2 POP JUMPDEST PUSH1 0x20 DUP3 LT DUP2 EQ ISZERO PUSH3 0x723 JUMPI PUSH4 0x4E487B71 PUSH1 0xE0 SHL PUSH1 0x0 MSTORE PUSH1 0x22 PUSH1 0x4 MSTORE PUSH1 0x24 PUSH1 0x0 REVERT JUMPDEST POP SWAP2 SWAP1 POP JUMP JUMPDEST PUSH2 0x21DB DUP1 PUSH3 0x739 PUSH1 0x0 CODECOPY PUSH1 0x0 RETURN INVALID PUSH1 0x80 PUSH1 0x40 MSTORE CALLVALUE DUP1 ISZERO PUSH2 0x10 JUMPI PUSH1 0x0 DUP1 REVERT JUMPDEST POP PUSH1 0x4 CALLDATASIZE LT PUSH2 0x11D JUMPI PUSH1 0x0 CALLDATALOAD PUSH1 0xE0 SHR DUP1 PUSH4 0xC72B1EC EQ PUSH2 0x122 JUMPI DUP1 PUSH4 0xE1C81B2 EQ PUSH2 0x137 JUMPI DUP1 PUSH4 0x146DC6ED EQ PUSH2 0x14A JUMPI DUP1 PUSH4 0x1BBE970A EQ PUSH2 0x15D JUMPI DUP1 PUSH4 0x29E795F3 EQ PUSH2 0x1AE JUMPI DUP1 PUSH4 0x2CCDEF7C EQ PUSH2 0x1C1 JUMPI DUP1 PUSH4 0x2D4673E3 EQ PUSH2 0x1D4 JUMPI DUP1 PUSH4 0x34D2C0AD EQ PUSH2 0x1E7 JUMPI DUP1 PUSH4 0x6BA44D3C EQ PUSH2 0x1FC JUMPI DUP1 PUSH4 0x6C05DD1D EQ PUSH2 0x20F JUMPI DUP1 PUSH4 0x7DDB273D EQ PUSH2 0x222 JUMPI DUP1 PUSH4 0x845952A8 EQ PUSH2 0x244 JUMPI DUP1 PUSH4 0x961865F0 EQ PUSH2 0x265 JUMPI DUP1 PUSH4 0xA985036D EQ PUSH2 0x289 JUMPI DUP1 PUSH4 0xA9F9482B EQ PUSH2 0x29C JUMPI DUP1 PUSH4 0xBBD43363 EQ PUSH2 0x2AF JUMPI DUP1 PUSH4 0xC178B9AF EQ PUSH2 0x2C2 JUMPI DUP1 PUSH4 0xC4957FA0 EQ PUSH2 0x2CA JUMPI DUP1 PUSH4 0xCC21C188 EQ PUSH2 0x2FE JUMPI DUP1 PUSH4 0xD22D9020 EQ PUSH2 0x311 JUMPI DUP1 PUSH4 0xD68CF8C1 EQ PUSH2 0x324 JUMPI DUP1 PUSH4 0xDCE39151 EQ PUSH2 0x347 JUMPI DUP1 PUSH4 0xF69483C1 EQ PUSH2 0x35A JUMPI JUMPDEST PUSH1 0x0 DUP1 REVERT JUMPDEST PUSH2 0x135 PUSH2 0x130 CALLDATASIZE PUSH1 0x4 PUSH2 0x1E3F JUMP JUMPDEST PUSH2 0x36D JUMP JUMPDEST STOP JUMPDEST PUSH2 0x135 PUSH2 0x145 CALLDATASIZE PUSH1 0x4 PUSH2 0x1BA8 JUMP JUMPDEST PUSH2 0x543 JUMP JUMPDEST PUSH2 0x135 PUSH2 0x158 CALLDATASIZE PUSH1 0x4 PUSH2 0x1BFE JUMP JUMPDEST PUSH2 0x739 JUMP JUMPDEST PUSH2 0x191 PUSH2 0x16B CALLDATASIZE PUSH1 0x4 PUSH2 0x1BFE JUMP JUMPDEST DUP1 MLOAD PUSH1 0x20 DUP2 DUP4 ADD DUP2 ADD DUP1 MLOAD PUSH1 0x5 DUP3 MSTORE SWAP3 DUP3 ADD SWAP2 SWAP1 SWAP4 ADD KECCAK256 SWAP2 MSTORE SLOAD PUSH1 0x1 PUSH1 0x1 PUSH1 0xA0 SHL SUB AND DUP2 JUMP JUMPDEST PUSH1 0x40 MLOAD PUSH1 0x1 PUSH1 0x1 PUSH1 0xA0 SHL SUB SWAP1 SWAP2 AND DUP2 MSTORE PUSH1 0x20 ADD JUMPDEST PUSH1 0x40 MLOAD DUP1 SWAP2 SUB SWAP1 RETURN JUMPDEST PUSH2 0x135 PUSH2 0x1BC CALLDATASIZE PUSH1 0x4 PUSH2 0x1C32 JUMP JUMPDEST PUSH2 0x890 JUMP JUMPDEST PUSH2 0x135 PUSH2 0x1CF CALLDATASIZE PUSH1 0x4 PUSH2 0x1E3F JUMP JUMPDEST PUSH2 0x9F4 JUMP JUMPDEST PUSH2 0x135 PUSH2 0x1E2 CALLDATASIZE PUSH1 0x4 PUSH2 0x1BFE JUMP JUMPDEST PUSH2 0xB2C JUMP JUMPDEST PUSH2 0x1EF PUSH2 0xBD8 JUMP JUMPDEST PUSH1 0x40 MLOAD PUSH2 0x1A5 SWAP2 SWAP1 PUSH2 0x1FC5 JUMP JUMPDEST PUSH2 0x191 PUSH2 0x20A CALLDATASIZE PUSH1 0x4 PUSH2 0x1BFE JUMP JUMPDEST PUSH2 0xCB1 JUMP JUMPDEST PUSH2 0x135 PUSH2 0x21D CALLDATASIZE PUSH1 0x4 PUSH2 0x1DBA JUMP JUMPDEST PUSH2 0xCE2 JUMP JUMPDEST PUSH2 0x235 PUSH2 0x230 CALLDATASIZE PUSH1 0x4 PUSH2 0x1E26 JUMP JUMPDEST PUSH2 0xDD9 JUMP JUMPDEST PUSH1 0x40 MLOAD PUSH2 0x1A5 SWAP4 SWAP3 SWAP2 SWAP1 PUSH2 0x1F58 JUMP JUMPDEST PUSH2 0x257 PUSH2 0x252 CALLDATASIZE PUSH1 0x4 PUSH2 0x1BFE JUMP JUMPDEST PUSH2 0xEA4 JUMP JUMPDEST PUSH1 0x40 MLOAD SWAP1 DUP2 MSTORE PUSH1 0x20 ADD PUSH2 0x1A5 JUMP JUMPDEST PUSH2 0x278 PUSH2 0x273 CALLDATASIZE PUSH1 0x4 PUSH2 0x1B86 JUMP JUMPDEST PUSH2 0xED4 JUMP JUMPDEST PUSH1 0x40 MLOAD PUSH2 0x1A5 SWAP6 SWAP5 SWAP4 SWAP3 SWAP2 SWAP1 PUSH2 0x2027 JUMP JUMPDEST PUSH2 0x257 PUSH2 0x297 CALLDATASIZE PUSH1 0x4 PUSH2 0x1BFE JUMP JUMPDEST PUSH2 0xF8E JUMP JUMPDEST PUSH2 0x235 PUSH2 0x2AA CALLDATASIZE PUSH1 0x4 PUSH2 0x1E26 JUMP JUMPDEST PUSH2 0x1196 JUMP JUMPDEST PUSH2 0x135 PUSH2 0x2BD CALLDATASIZE PUSH1 0x4 PUSH2 0x1BFE JUMP JUMPDEST PUSH2 0x11A6 JUMP JUMPDEST PUSH2 0x1EF PUSH2 0x1252 JUMP JUMPDEST PUSH2 0x191 PUSH2 0x2D8 CALLDATASIZE PUSH1 0x4 PUSH2 0x1BFE JUMP JUMPDEST DUP1 MLOAD PUSH1 0x20 DUP2 DUP4 ADD DUP2 ADD DUP1 MLOAD PUSH1 0x1 DUP3 MSTORE SWAP3 DUP3 ADD SWAP2 SWAP1 SWAP4 ADD KECCAK256 SWAP2 MSTORE SLOAD PUSH1 0x1 PUSH1 0x1 PUSH1 0xA0 SHL SUB AND DUP2 JUMP JUMPDEST PUSH2 0x135 PUSH2 0x30C CALLDATASIZE PUSH1 0x4 PUSH2 0x1D5F JUMP JUMPDEST PUSH2 0x1322 JUMP JUMPDEST PUSH2 0x135 PUSH2 0x31F CALLDATASIZE PUSH1 0x4 PUSH2 0x1D1B JUMP JUMPDEST PUSH2 0x15F6 JUMP JUMPDEST PUSH2 0x337 PUSH2 0x332 CALLDATASIZE PUSH1 0x4 PUSH2 0x1BFE JUMP JUMPDEST PUSH2 0x17E0 JUMP JUMPDEST PUSH1 0x40 MLOAD PUSH2 0x1A5 SWAP5 SWAP4 SWAP3 SWAP2 SWAP1 PUSH2 0x1F8E JUMP JUMPDEST PUSH2 0x235 PUSH2 0x355 CALLDATASIZE PUSH1 0x4 PUSH2 0x1E26 JUMP JUMPDEST PUSH2 0x18A6 JUMP JUMPDEST PUSH2 0x135 PUSH2 0x368 CALLDATASIZE PUSH1 0x4 PUSH2 0x1E3F JUMP JUMPDEST PUSH2 0x18B6 JUMP JUMPDEST PUSH1 0x1 DUP2 ISZERO ISZERO EQ ISZERO PUSH2 0x508 JUMPI PUSH1 0x0 PUSH1 0xA DUP4 DUP2 SLOAD DUP2 LT PUSH2 0x38D JUMPI PUSH2 0x38D PUSH2 0x2179 JUMP JUMPDEST SWAP1 PUSH1 0x0 MSTORE PUSH1 0x20 PUSH1 0x0 KECCAK256 SWAP1 PUSH1 0x3 MUL ADD PUSH1 0x2 ADD PUSH1 0x0 PUSH2 0x100 EXP DUP2 SLOAD DUP2 PUSH1 0xFF MUL NOT AND SWAP1 DUP4 ISZERO ISZERO MUL OR SWAP1 SSTORE POP PUSH1 0x8 PUSH1 0xA DUP4 DUP2 SLOAD DUP2 LT PUSH2 0x3CA JUMPI PUSH2 0x3CA PUSH2 0x2179 JUMP JUMPDEST SWAP1 PUSH1 0x0 MSTORE PUSH1 0x20 PUSH1 0x0 KECCAK256 SWAP1 PUSH1 0x3 MUL ADD PUSH1 0x1 ADD PUSH1 0x40 MLOAD PUSH2 0x3E8 SWAP2 SWAP1 PUSH2 0x1EBC JUMP JUMPDEST SWAP1 DUP2 MSTORE PUSH1 0x20 ADD PUSH1 0x40 MLOAD DUP1 SWAP2 SUB SWAP1 KECCAK256 PUSH1 0x2 ADD SLOAD PUSH1 0x4 PUSH1 0x0 PUSH1 0xA DUP6 DUP2 SLOAD DUP2 LT PUSH2 0x411 JUMPI PUSH2 0x411 PUSH2 0x2179 JUMP JUMPDEST PUSH1 0x0 SWAP2 DUP3 MSTORE PUSH1 0x20 DUP1 DUP4 KECCAK256 PUSH1 0x3 SWAP1 SWAP3 MUL SWAP1 SWAP2 ADD SLOAD PUSH1 0x1 PUSH1 0x1 PUSH1 0xA0 SHL SUB AND DUP4 MSTORE DUP3 ADD SWAP3 SWAP1 SWAP3 MSTORE PUSH1 0x40 ADD SWAP1 KECCAK256 PUSH1 0x2 ADD SLOAD PUSH2 0x448 SWAP2 SWAP1 PUSH2 0x20CA JUMP JUMPDEST PUSH1 0x4 PUSH1 0x0 PUSH1 0xA DUP6 DUP2 SLOAD DUP2 LT PUSH2 0x45F JUMPI PUSH2 0x45F PUSH2 0x2179 JUMP JUMPDEST PUSH1 0x0 SWAP2 DUP3 MSTORE PUSH1 0x20 DUP1 DUP4 KECCAK256 PUSH1 0x3 SWAP1 SWAP3 MUL SWAP1 SWAP2 ADD SLOAD PUSH1 0x1 PUSH1 0x1 PUSH1 0xA0 SHL SUB AND DUP4 MSTORE DUP3 ADD SWAP3 SWAP1 SWAP3 MSTORE PUSH1 0x40 ADD SWAP1 KECCAK256 PUSH1 0x2 ADD SSTORE PUSH1 0xA DUP1 SLOAD PUSH1 0x8 SWAP2 SWAP1 DUP5 SWAP1 DUP2 LT PUSH2 0x4A4 JUMPI PUSH2 0x4A4 PUSH2 0x2179 JUMP JUMPDEST SWAP1 PUSH1 0x0 MSTORE PUSH1 0x20 PUSH1 0x0 KECCAK256 SWAP1 PUSH1 0x3 MUL ADD PUSH1 0x1 ADD PUSH1 0x40 MLOAD PUSH2 0x4C2 SWAP2 SWAP1 PUSH2 0x1EBC JUMP JUMPDEST SWAP1 DUP2 MSTORE PUSH1 0x40 DUP1 MLOAD PUSH1 0x20 SWAP3 DUP2 SWAP1 SUB DUP4 ADD SWAP1 KECCAK256 PUSH1 0x2 ADD SLOAD CALLER PUSH1 0x0 SWAP1 DUP2 MSTORE SWAP3 DUP4 SWAP1 MSTORE SWAP2 KECCAK256 PUSH1 0x4 ADD SLOAD PUSH2 0x4F1 SWAP2 SWAP1 PUSH2 0x2090 JUMP JUMPDEST CALLER PUSH1 0x0 SWAP1 DUP2 MSTORE PUSH1 0x20 DUP2 SWAP1 MSTORE PUSH1 0x40 SWAP1 KECCAK256 PUSH1 0x4 ADD SSTORE POP POP JUMP JUMPDEST PUSH1 0x0 PUSH1 0xA DUP4 DUP2 SLOAD DUP2 LT PUSH2 0x51D JUMPI PUSH2 0x51D PUSH2 0x2179 JUMP JUMPDEST PUSH1 0x0 SWAP2 DUP3 MSTORE PUSH1 0x20 SWAP1 SWAP2 KECCAK256 PUSH1 0x3 SWAP1 SWAP2 MUL ADD PUSH1 0x2 ADD DUP1 SLOAD PUSH1 0xFF NOT AND SWAP2 ISZERO ISZERO SWAP2 SWAP1 SWAP2 OR SWAP1 SSTORE POP POP JUMP JUMPDEST PUSH20 0x9C35A9BDF790A5CE09B353B1C765269AB466BAAD CALLER EQ PUSH2 0x5AB JUMPI PUSH1 0x40 MLOAD PUSH3 0x461BCD PUSH1 0xE5 SHL DUP2 MSTORE PUSH1 0x20 PUSH1 0x4 DUP3 ADD MSTORE PUSH1 0x1D PUSH1 0x24 DUP3 ADD MSTORE PUSH32 0x4572726F723A20596F75206E6F742061207A65726F206163636F756E74000000 PUSH1 0x44 DUP3 ADD MSTORE PUSH1 0x64 ADD JUMPDEST PUSH1 0x40 MLOAD DUP1 SWAP2 SUB SWAP1 REVERT JUMPDEST PUSH1 0x0 PUSH1 0x1 PUSH1 0x1 PUSH1 0xA0 SHL SUB AND PUSH1 0x5 DUP4 PUSH1 0x40 MLOAD PUSH2 0x5C6 SWAP2 SWAP1 PUSH2 0x1EA0 JUMP JUMPDEST SWAP1 DUP2 MSTORE PUSH1 0x40 MLOAD SWAP1 DUP2 SWAP1 SUB PUSH1 0x20 ADD SWAP1 KECCAK256 SLOAD PUSH1 0x1 PUSH1 0x1 PUSH1 0xA0 SHL SUB AND EQ PUSH2 0x628 JUMPI PUSH1 0x40 MLOAD PUSH3 0x461BCD PUSH1 0xE5 SHL DUP2 MSTORE PUSH1 0x20 PUSH1 0x4 DUP3 ADD MSTORE PUSH1 0x19 PUSH1 0x24 DUP3 ADD MSTORE PUSH25 0x115C9C9BDC8E88155CD95C88185B1C9958591E48195E1A5CDD PUSH1 0x3A SHL PUSH1 0x44 DUP3 ADD MSTORE PUSH1 0x64 ADD PUSH2 0x5A2 JUMP JUMPDEST PUSH1 0x40 DUP1 MLOAD PUSH1 0xA0 DUP2 ADD DUP3 MSTORE DUP4 DUP2 MSTORE PUSH1 0x20 DUP1 DUP3 ADD DUP5 SWAP1 MSTORE PUSH2 0x3E8 DUP3 DUP5 ADD MSTORE PUSH1 0x0 PUSH1 0x60 DUP4 ADD DUP2 SWAP1 MSTORE PUSH1 0x80 DUP4 ADD DUP2 SWAP1 MSTORE PUSH1 0x1 PUSH1 0x1 PUSH1 0xA0 SHL SUB DUP8 AND DUP2 MSTORE PUSH1 0x4 DUP3 MSTORE SWAP3 SWAP1 SWAP3 KECCAK256 DUP2 MLOAD DUP1 MLOAD SWAP3 SWAP4 SWAP2 SWAP3 PUSH2 0x67D SWAP3 DUP5 SWAP3 ADD SWAP1 PUSH2 0x19AF JUMP JUMPDEST POP PUSH1 0x20 DUP3 ADD MLOAD PUSH1 0x1 DUP3 ADD SSTORE PUSH1 0x40 DUP1 DUP4 ADD MLOAD PUSH1 0x2 DUP4 ADD SSTORE PUSH1 0x60 DUP4 ADD MLOAD PUSH1 0x3 DUP4 ADD SSTORE PUSH1 0x80 SWAP1 SWAP3 ADD MLOAD PUSH1 0x4 SWAP1 SWAP2 ADD DUP1 SLOAD PUSH1 0xFF NOT AND SWAP2 ISZERO ISZERO SWAP2 SWAP1 SWAP2 OR SWAP1 SSTORE MLOAD DUP4 SWAP1 PUSH1 0x5 SWAP1 PUSH2 0x6C8 SWAP1 DUP6 SWAP1 PUSH2 0x1EA0 JUMP JUMPDEST SWAP1 DUP2 MSTORE PUSH1 0x40 MLOAD SWAP1 DUP2 SWAP1 SUB PUSH1 0x20 ADD SWAP1 KECCAK256 DUP1 SLOAD PUSH1 0x1 PUSH1 0x1 PUSH1 0xA0 SHL SUB SWAP3 DUP4 AND PUSH1 0x1 PUSH1 0x1 PUSH1 0xA0 SHL SUB NOT SWAP2 DUP3 AND OR SWAP1 SWAP2 SSTORE PUSH1 0x7 DUP1 SLOAD PUSH1 0x1 DUP2 ADD DUP3 SSTORE PUSH1 0x0 SWAP2 SWAP1 SWAP2 MSTORE PUSH32 0xA66CC928B5EDB82AF9BD49922954155AB7B0942694BEA4CE44661D9A8736C688 ADD DUP1 SLOAD SWAP6 SWAP1 SWAP3 AND SWAP5 AND SWAP4 SWAP1 SWAP4 OR SWAP1 SWAP3 SSTORE POP POP JUMP JUMPDEST PUSH1 0x8 DUP2 PUSH1 0x40 MLOAD PUSH2 0x749 SWAP2 SWAP1 PUSH2 0x1EA0 JUMP JUMPDEST SWAP1 DUP2 MSTORE PUSH1 0x20 ADD PUSH1 0x40 MLOAD DUP1 SWAP2 SUB SWAP1 KECCAK256 PUSH1 0x2 ADD SLOAD PUSH1 0x4 PUSH1 0x0 CALLER PUSH1 0x1 PUSH1 0x1 PUSH1 0xA0 SHL SUB AND PUSH1 0x1 PUSH1 0x1 PUSH1 0xA0 SHL SUB AND DUP2 MSTORE PUSH1 0x20 ADD SWAP1 DUP2 MSTORE PUSH1 0x20 ADD PUSH1 0x0 KECCAK256 PUSH1 0x2 ADD SLOAD LT ISZERO PUSH2 0x7C5 JUMPI PUSH1 0x40 MLOAD PUSH3 0x461BCD PUSH1 0xE5 SHL DUP2 MSTORE PUSH1 0x20 PUSH1 0x4 DUP3 ADD MSTORE PUSH1 0x10 PUSH1 0x24 DUP3 ADD MSTORE PUSH16 0x6572726F723A206E6F74206D6F6E6579 PUSH1 0x80 SHL PUSH1 0x44 DUP3 ADD MSTORE PUSH1 0x64 ADD PUSH2 0x5A2 JUMP JUMPDEST PUSH1 0x40 DUP1 MLOAD PUSH1 0x60 DUP2 ADD DUP3 MSTORE CALLER DUP2 MSTORE PUSH1 0x20 DUP1 DUP3 ADD DUP5 DUP2 MSTORE PUSH1 0x1 SWAP4 DUP4 ADD DUP5 SWAP1 MSTORE PUSH1 0xA DUP1 SLOAD SWAP5 DUP6 ADD DUP2 SSTORE PUSH1 0x0 MSTORE DUP3 MLOAD PUSH32 0xC65A7BB8D6351C1CF70C95A316CC6A92839C986682D98BC35F958F4883F9D2A8 PUSH1 0x3 SWAP1 SWAP6 MUL SWAP5 DUP6 ADD DUP1 SLOAD PUSH1 0x1 PUSH1 0x1 PUSH1 0xA0 SHL SUB NOT AND PUSH1 0x1 PUSH1 0x1 PUSH1 0xA0 SHL SUB SWAP1 SWAP3 AND SWAP2 SWAP1 SWAP2 OR DUP2 SSTORE SWAP1 MLOAD DUP1 MLOAD SWAP4 SWAP5 SWAP2 SWAP4 PUSH2 0x871 SWAP4 PUSH32 0xC65A7BB8D6351C1CF70C95A316CC6A92839C986682D98BC35F958F4883F9D2A9 SWAP1 SWAP4 ADD SWAP3 SWAP2 SWAP1 SWAP2 ADD SWAP1 PUSH2 0x19AF JUMP JUMPDEST POP PUSH1 0x40 SWAP2 SWAP1 SWAP2 ADD MLOAD PUSH1 0x2 SWAP1 SWAP2 ADD DUP1 SLOAD PUSH1 0xFF NOT AND SWAP2 ISZERO ISZERO SWAP2 SWAP1 SWAP2 OR SWAP1 SSTORE POP JUMP JUMPDEST PUSH1 0x0 JUMPDEST PUSH1 0x3 SLOAD DUP2 LT ISZERO PUSH2 0x9EF JUMPI PUSH1 0x0 PUSH1 0x3 DUP3 DUP2 SLOAD DUP2 LT PUSH2 0x8B2 JUMPI PUSH2 0x8B2 PUSH2 0x2179 JUMP JUMPDEST SWAP1 PUSH1 0x0 MSTORE PUSH1 0x20 PUSH1 0x0 KECCAK256 SWAP1 PUSH1 0x5 MUL ADD PUSH1 0x1 ADD DUP1 SLOAD PUSH2 0x8CE SWAP1 PUSH2 0x210D JUMP JUMPDEST DUP1 PUSH1 0x1F ADD PUSH1 0x20 DUP1 SWAP2 DIV MUL PUSH1 0x20 ADD PUSH1 0x40 MLOAD SWAP1 DUP2 ADD PUSH1 0x40 MSTORE DUP1 SWAP3 SWAP2 SWAP1 DUP2 DUP2 MSTORE PUSH1 0x20 ADD DUP3 DUP1 SLOAD PUSH2 0x8FA SWAP1 PUSH2 0x210D JUMP JUMPDEST DUP1 ISZERO PUSH2 0x947 JUMPI DUP1 PUSH1 0x1F LT PUSH2 0x91C JUMPI PUSH2 0x100 DUP1 DUP4 SLOAD DIV MUL DUP4 MSTORE SWAP2 PUSH1 0x20 ADD SWAP2 PUSH2 0x947 JUMP JUMPDEST DUP3 ADD SWAP2 SWAP1 PUSH1 0x0 MSTORE PUSH1 0x20 PUSH1 0x0 KECCAK256 SWAP1 JUMPDEST DUP2 SLOAD DUP2 MSTORE SWAP1 PUSH1 0x1 ADD SWAP1 PUSH1 0x20 ADD DUP1 DUP4 GT PUSH2 0x92A JUMPI DUP3 SWAP1 SUB PUSH1 0x1F AND DUP3 ADD SWAP2 JUMPDEST POP POP POP POP POP SWAP1 POP DUP4 PUSH1 0x40 MLOAD PUSH1 0x20 ADD PUSH2 0x95F SWAP2 SWAP1 PUSH2 0x1EA0 JUMP JUMPDEST PUSH1 0x40 MLOAD PUSH1 0x20 DUP2 DUP4 SUB SUB DUP2 MSTORE SWAP1 PUSH1 0x40 MSTORE DUP1 MLOAD SWAP1 PUSH1 0x20 ADD KECCAK256 DUP2 PUSH1 0x40 MLOAD PUSH1 0x20 ADD PUSH2 0x986 SWAP2 SWAP1 PUSH2 0x1EA0 JUMP JUMPDEST PUSH1 0x40 MLOAD PUSH1 0x20 DUP2 DUP4 SUB SUB DUP2 MSTORE SWAP1 PUSH1 0x40 MSTORE DUP1 MLOAD SWAP1 PUSH1 0x20 ADD KECCAK256 EQ ISZERO PUSH2 0x9DC JUMPI DUP3 PUSH1 0x3 DUP4 DUP2 SLOAD DUP2 LT PUSH2 0x9B6 JUMPI PUSH2 0x9B6 PUSH2 0x2179 JUMP JUMPDEST SWAP1 PUSH1 0x0 MSTORE PUSH1 0x20 PUSH1 0x0 KECCAK256 SWAP1 PUSH1 0x5 MUL ADD PUSH1 0x4 ADD SWAP1 DUP1 MLOAD SWAP1 PUSH1 0x20 ADD SWAP1 PUSH2 0x9DA SWAP3 SWAP2 SWAP1 PUSH2 0x1A33 JUMP JUMPDEST POP JUMPDEST POP DUP1 PUSH2 0x9E7 DUP2 PUSH2 0x2148 JUMP JUMPDEST SWAP2 POP POP PUSH2 0x893 JUMP JUMPDEST POP POP POP JUMP JUMPDEST PUSH1 0x1 DUP2 ISZERO ISZERO EQ ISZERO PUSH2 0xB17 JUMPI PUSH1 0x0 PUSH1 0xB DUP4 DUP2 SLOAD DUP2 LT PUSH2 0xA14 JUMPI PUSH2 0xA14 PUSH2 0x2179 JUMP JUMPDEST SWAP1 PUSH1 0x0 MSTORE PUSH1 0x20 PUSH1 0x0 KECCAK256 SWAP1 PUSH1 0x3 MUL ADD PUSH1 0x2 ADD PUSH1 0x0 PUSH2 0x100 EXP DUP2 SLOAD DUP2 PUSH1 0xFF MUL NOT AND SWAP1 DUP4 ISZERO ISZERO MUL OR SWAP1 SSTORE POP PUSH1 0x8 PUSH1 0xB DUP4 DUP2 SLOAD DUP2 LT PUSH2 0xA51 JUMPI PUSH2 0xA51 PUSH2 0x2179 JUMP JUMPDEST SWAP1 PUSH1 0x0 MSTORE PUSH1 0x20 PUSH1 0x0 KECCAK256 SWAP1 PUSH1 0x3 MUL ADD PUSH1 0x1 ADD PUSH1 0x40 MLOAD PUSH2 0xA6F SWAP2 SWAP1 PUSH2 0x1EBC JUMP JUMPDEST SWAP1 DUP2 MSTORE PUSH1 0x20 ADD PUSH1 0x40 MLOAD DUP1 SWAP2 SUB SWAP1 KECCAK256 PUSH1 0x2 ADD SLOAD PUSH1 0x4 PUSH1 0x0 PUSH1 0xB DUP6 DUP2 SLOAD DUP2 LT PUSH2 0xA98 JUMPI PUSH2 0xA98 PUSH2 0x2179 JUMP JUMPDEST PUSH1 0x0 SWAP2 DUP3 MSTORE PUSH1 0x20 DUP1 DUP4 KECCAK256 PUSH1 0x3 SWAP1 SWAP3 MUL SWAP1 SWAP2 ADD SLOAD PUSH1 0x1 PUSH1 0x1 PUSH1 0xA0 SHL SUB AND DUP4 MSTORE DUP3 ADD SWAP3 SWAP1 SWAP3 MSTORE PUSH1 0x40 ADD SWAP1 KECCAK256 PUSH1 0x2 ADD SLOAD PUSH2 0xACF SWAP2 SWAP1 PUSH2 0x2090 JUMP JUMPDEST PUSH1 0x4 PUSH1 0x0 PUSH1 0xB DUP6 DUP2 SLOAD DUP2 LT PUSH2 0xAE6 JUMPI PUSH2 0xAE6 PUSH2 0x2179 JUMP JUMPDEST PUSH1 0x0 SWAP2 DUP3 MSTORE PUSH1 0x20 DUP1 DUP4 KECCAK256 PUSH1 0x3 SWAP1 SWAP3 MUL SWAP1 SWAP2 ADD SLOAD PUSH1 0x1 PUSH1 0x1 PUSH1 0xA0 SHL SUB AND DUP4 MSTORE DUP3 ADD SWAP3 SWAP1 SWAP3 MSTORE PUSH1 0x40 ADD SWAP1 KECCAK256 PUSH1 0x2 ADD SSTORE POP POP JUMP JUMPDEST PUSH1 0x0 PUSH1 0xB DUP4 DUP2 SLOAD DUP2 LT PUSH2 0x51D JUMPI PUSH2 0x51D PUSH2 0x2179 JUMP JUMPDEST PUSH1 0x40 DUP1 MLOAD PUSH1 0x60 DUP2 ADD DUP3 MSTORE CALLER DUP2 MSTORE PUSH1 0x20 DUP1 DUP3 ADD DUP5 DUP2 MSTORE PUSH1 0x1 SWAP4 DUP4 ADD DUP5 SWAP1 MSTORE PUSH1 0xC DUP1 SLOAD SWAP5 DUP6 ADD DUP2 SSTORE PUSH1 0x0 MSTORE DUP3 MLOAD PUSH32 0xDF6966C971051C3D54EC59162606531493A51404A002842F56009D7E5CF4A8C7 PUSH1 0x3 SWAP1 SWAP6 MUL SWAP5 DUP6 ADD DUP1 SLOAD PUSH1 0x1 PUSH1 0x1 PUSH1 0xA0 SHL SUB NOT AND PUSH1 0x1 PUSH1 0x1 PUSH1 0xA0 SHL SUB SWAP1 SWAP3 AND SWAP2 SWAP1 SWAP2 OR DUP2 SSTORE SWAP1 MLOAD DUP1 MLOAD SWAP4 SWAP5 SWAP2 SWAP4 PUSH2 0x871 SWAP4 PUSH32 0xDF6966C971051C3D54EC59162606531493A51404A002842F56009D7E5CF4A8C8 SWAP1 SWAP4 ADD SWAP3 SWAP2 SWAP1 SWAP2 ADD SWAP1 PUSH2 0x19AF JUMP JUMPDEST PUSH1 0x60 PUSH1 0x9 DUP1 SLOAD DUP1 PUSH1 0x20 MUL PUSH1 0x20 ADD PUSH1 0x40 MLOAD SWAP1 DUP2 ADD PUSH1 0x40 MSTORE DUP1 SWAP3 SWAP2 SWAP1 DUP2 DUP2 MSTORE PUSH1 0x20 ADD PUSH1 0x0 SWAP1 JUMPDEST DUP3 DUP3 LT ISZERO PUSH2 0xCA8 JUMPI DUP4 DUP3 SWAP1 PUSH1 0x0 MSTORE PUSH1 0x20 PUSH1 0x0 KECCAK256 ADD DUP1 SLOAD PUSH2 0xC1B SWAP1 PUSH2 0x210D JUMP JUMPDEST DUP1 PUSH1 0x1F ADD PUSH1 0x20 DUP1 SWAP2 DIV MUL PUSH1 0x20 ADD PUSH1 0x40 MLOAD SWAP1 DUP2 ADD PUSH1 0x40 MSTORE DUP1 SWAP3 SWAP2 SWAP1 DUP2 DUP2 MSTORE PUSH1 0x20 ADD DUP3 DUP1 SLOAD PUSH2 0xC47 SWAP1 PUSH2 0x210D JUMP JUMPDEST DUP1 ISZERO PUSH2 0xC94 JUMPI DUP1 PUSH1 0x1F LT PUSH2 0xC69 JUMPI PUSH2 0x100 DUP1 DUP4 SLOAD DIV MUL DUP4 MSTORE SWAP2 PUSH1 0x20 ADD SWAP2 PUSH2 0xC94 JUMP JUMPDEST DUP3 ADD SWAP2 SWAP1 PUSH1 0x0 MSTORE PUSH1 0x20 PUSH1 0x0 KECCAK256 SWAP1 JUMPDEST DUP2 SLOAD DUP2 MSTORE SWAP1 PUSH1 0x1 ADD SWAP1 PUSH1 0x20 ADD DUP1 DUP4 GT PUSH2 0xC77 JUMPI DUP3 SWAP1 SUB PUSH1 0x1F AND DUP3 ADD SWAP2 JUMPDEST POP POP POP POP POP DUP2 MSTORE PUSH1 0x20 ADD SWAP1 PUSH1 0x1 ADD SWAP1 PUSH2 0xBFC JUMP JUMPDEST POP POP POP POP SWAP1 POP SWAP1 JUMP JUMPDEST PUSH1 0x0 PUSH1 0x5 DUP3 PUSH1 0x40 MLOAD PUSH2 0xCC3 SWAP2 SWAP1 PUSH2 0x1EA0 JUMP JUMPDEST SWAP1 DUP2 MSTORE PUSH1 0x40 MLOAD SWAP1 DUP2 SWAP1 SUB PUSH1 0x20 ADD SWAP1 KECCAK256 SLOAD PUSH1 0x1 PUSH1 0x1 PUSH1 0xA0 SHL SUB AND SWAP3 SWAP2 POP POP JUMP JUMPDEST PUSH1 0x40 MLOAD DUP1 PUSH1 0x80 ADD PUSH1 0x40 MSTORE DUP1 CALLER PUSH1 0x1 PUSH1 0x1 PUSH1 0xA0 SHL SUB AND DUP2 MSTORE PUSH1 0x20 ADD DUP3 DUP2 MSTORE PUSH1 0x20 ADD DUP4 DUP2 MSTORE PUSH1 0x20 ADD PUSH1 0xD SLOAD DUP2 MSTORE POP PUSH1 0x8 DUP5 PUSH1 0x40 MLOAD PUSH2 0xD1E SWAP2 SWAP1 PUSH2 0x1EA0 JUMP JUMPDEST SWAP1 DUP2 MSTORE PUSH1 0x40 MLOAD PUSH1 0x20 SWAP2 DUP2 SWAP1 SUB DUP3 ADD SWAP1 KECCAK256 DUP3 MLOAD DUP2 SLOAD PUSH1 0x1 PUSH1 0x1 PUSH1 0xA0 SHL SUB NOT AND PUSH1 0x1 PUSH1 0x1 PUSH1 0xA0 SHL SUB SWAP1 SWAP2 AND OR DUP2 SSTORE DUP3 DUP3 ADD MLOAD DUP1 MLOAD SWAP2 SWAP3 PUSH2 0xD64 SWAP3 PUSH1 0x1 DUP6 ADD SWAP3 SWAP1 SWAP2 ADD SWAP1 PUSH2 0x19AF JUMP JUMPDEST POP PUSH1 0x40 DUP3 ADD MLOAD PUSH1 0x2 DUP3 ADD SSTORE PUSH1 0x60 SWAP1 SWAP2 ADD MLOAD PUSH1 0x3 SWAP1 SWAP2 ADD SSTORE PUSH1 0x9 DUP1 SLOAD PUSH1 0x1 DUP2 ADD DUP3 SSTORE PUSH1 0x0 SWAP2 SWAP1 SWAP2 MSTORE DUP4 MLOAD PUSH2 0xDBE SWAP2 PUSH32 0x6E1540171B6C0C960B71A7020D9F60077F6AF931A8BBF590DA0223DACF75C7AF ADD SWAP1 PUSH1 0x20 DUP7 ADD SWAP1 PUSH2 0x19AF JUMP JUMPDEST POP PUSH1 0xD DUP1 SLOAD SWAP1 PUSH1 0x0 PUSH2 0xDCF DUP4 PUSH2 0x2148 JUMP JUMPDEST SWAP2 SWAP1 POP SSTORE POP POP POP POP JUMP JUMPDEST PUSH1 0xC DUP2 DUP2 SLOAD DUP2 LT PUSH2 0xDE9 JUMPI PUSH1 0x0 DUP1 REVERT JUMPDEST PUSH1 0x0 SWAP2 DUP3 MSTORE PUSH1 0x20 SWAP1 SWAP2 KECCAK256 PUSH1 0x3 SWAP1 SWAP2 MUL ADD DUP1 SLOAD PUSH1 0x1 DUP3 ADD DUP1 SLOAD PUSH1 0x1 PUSH1 0x1 PUSH1 0xA0 SHL SUB SWAP1 SWAP3 AND SWAP4 POP SWAP1 PUSH2 0xE18 SWAP1 PUSH2 0x210D JUMP JUMPDEST DUP1 PUSH1 0x1F ADD PUSH1 0x20 DUP1 SWAP2 DIV MUL PUSH1 0x20 ADD PUSH1 0x40 MLOAD SWAP1 DUP2 ADD PUSH1 0x40 MSTORE DUP1 SWAP3 SWAP2 SWAP1 DUP2 DUP2 MSTORE PUSH1 0x20 ADD DUP3 DUP1 SLOAD PUSH2 0xE44 SWAP1 PUSH2 0x210D JUMP JUMPDEST DUP1 ISZERO PUSH2 0xE91 JUMPI DUP1 PUSH1 0x1F LT PUSH2 0xE66 JUMPI PUSH2 0x100 DUP1 DUP4 SLOAD DIV MUL DUP4 MSTORE SWAP2 PUSH1 0x20 ADD SWAP2 PUSH2 0xE91 JUMP JUMPDEST DUP3 ADD SWAP2 SWAP1 PUSH1 0x0 MSTORE PUSH1 0x20 PUSH1 0x0 KECCAK256 SWAP1 JUMPDEST DUP2 SLOAD DUP2 MSTORE SWAP1 PUSH1 0x1 ADD SWAP1 PUSH1 0x20 ADD DUP1 DUP4 GT PUSH2 0xE74 JUMPI DUP3 SWAP1 SUB PUSH1 0x1F AND DUP3 ADD SWAP2 JUMPDEST POP POP POP PUSH1 0x2 SWAP1 SWAP4 ADD SLOAD SWAP2 SWAP3 POP POP PUSH1 0xFF AND DUP4 JUMP JUMPDEST PUSH1 0x0 DUP2 PUSH1 0x40 MLOAD PUSH1 0x20 ADD PUSH2 0xEB7 SWAP2 SWAP1 PUSH2 0x1EA0 JUMP JUMPDEST PUSH1 0x40 MLOAD PUSH1 0x20 DUP2 DUP4 SUB SUB DUP2 MSTORE SWAP1 PUSH1 0x40 MSTORE DUP1 MLOAD SWAP1 PUSH1 0x20 ADD KECCAK256 SWAP1 POP SWAP2 SWAP1 POP JUMP JUMPDEST PUSH1 0x4 PUSH1 0x20 MSTORE PUSH1 0x0 SWAP1 DUP2 MSTORE PUSH1 0x40 SWAP1 KECCAK256 DUP1 SLOAD DUP2 SWAP1 PUSH2 0xEEF SWAP1 PUSH2 0x210D JUMP JUMPDEST DUP1 PUSH1 0x1F ADD PUSH1 0x20 DUP1 SWAP2 DIV MUL PUSH1 0x20 ADD PUSH1 0x40 MLOAD SWAP1 DUP2 ADD PUSH1 0x40 MSTORE DUP1 SWAP3 SWAP2 SWAP1 DUP2 DUP2 MSTORE PUSH1 0x20 ADD DUP3 DUP1 SLOAD PUSH2 0xF1B SWAP1 PUSH2 0x210D JUMP JUMPDEST DUP1 ISZERO PUSH2 0xF68 JUMPI DUP1 PUSH1 0x1F LT PUSH2 0xF3D JUMPI PUSH2 0x100 DUP1 DUP4 SLOAD DIV MUL DUP4 MSTORE SWAP2 PUSH1 0x20 ADD SWAP2 PUSH2 0xF68 JUMP JUMPDEST DUP3 ADD SWAP2 SWAP1 PUSH1 0x0 MSTORE PUSH1 0x20 PUSH1 0x0 KECCAK256 SWAP1 JUMPDEST DUP2 SLOAD DUP2 MSTORE SWAP1 PUSH1 0x1 ADD SWAP1 PUSH1 0x20 ADD DUP1 DUP4 GT PUSH2 0xF4B JUMPI DUP3 SWAP1 SUB PUSH1 0x1F AND DUP3 ADD SWAP2 JUMPDEST POP POP POP POP PUSH1 0x1 DUP4 ADD SLOAD PUSH1 0x2 DUP5 ADD SLOAD PUSH1 0x3 DUP6 ADD SLOAD PUSH1 0x4 SWAP1 SWAP6 ADD SLOAD SWAP4 SWAP5 SWAP2 SWAP4 SWAP1 SWAP3 POP PUSH1 0xFF AND DUP6 JUMP JUMPDEST PUSH1 0x0 DUP1 DUP1 DUP1 JUMPDEST PUSH1 0x2 SLOAD DUP2 LT ISZERO PUSH2 0x1179 JUMPI PUSH1 0x0 PUSH1 0x2 DUP3 DUP2 SLOAD DUP2 LT PUSH2 0xFB3 JUMPI PUSH2 0xFB3 PUSH2 0x2179 JUMP JUMPDEST SWAP1 PUSH1 0x0 MSTORE PUSH1 0x20 PUSH1 0x0 KECCAK256 ADD DUP1 SLOAD PUSH2 0xFC8 SWAP1 PUSH2 0x210D JUMP JUMPDEST DUP1 PUSH1 0x1F ADD PUSH1 0x20 DUP1 SWAP2 DIV MUL PUSH1 0x20 ADD PUSH1 0x40 MLOAD SWAP1 DUP2 ADD PUSH1 0x40 MSTORE DUP1 SWAP3 SWAP2 SWAP1 DUP2 DUP2 MSTORE PUSH1 0x20 ADD DUP3 DUP1 SLOAD PUSH2 0xFF4 SWAP1 PUSH2 0x210D JUMP JUMPDEST DUP1 ISZERO PUSH2 0x1041 JUMPI DUP1 PUSH1 0x1F LT PUSH2 0x1016 JUMPI PUSH2 0x100 DUP1 DUP4 SLOAD DIV MUL DUP4 MSTORE SWAP2 PUSH1 0x20 ADD SWAP2 PUSH2 0x1041 JUMP JUMPDEST DUP3 ADD SWAP2 SWAP1 PUSH1 0x0 MSTORE PUSH1 0x20 PUSH1 0x0 KECCAK256 SWAP1 JUMPDEST DUP2 SLOAD DUP2 MSTORE SWAP1 PUSH1 0x1 ADD SWAP1 PUSH1 0x20 ADD DUP1 DUP4 GT PUSH2 0x1024 JUMPI DUP3 SWAP1 SUB PUSH1 0x1F AND DUP3 ADD SWAP2 JUMPDEST POP POP POP POP POP SWAP1 POP DUP6 PUSH1 0x40 MLOAD PUSH1 0x20 ADD PUSH2 0x1059 SWAP2 SWAP1 PUSH2 0x1EA0 JUMP JUMPDEST PUSH1 0x40 MLOAD PUSH1 0x20 DUP2 DUP4 SUB SUB DUP2 MSTORE SWAP1 PUSH1 0x40 MSTORE DUP1 MLOAD SWAP1 PUSH1 0x20 ADD KECCAK256 DUP2 PUSH1 0x40 MLOAD PUSH1 0x20 ADD PUSH2 0x1080 SWAP2 SWAP1 PUSH2 0x1EA0 JUMP JUMPDEST PUSH1 0x40 MLOAD PUSH1 0x20 DUP2 DUP4 SUB SUB DUP2 MSTORE SWAP1 PUSH1 0x40 MSTORE DUP1 MLOAD SWAP1 PUSH1 0x20 ADD KECCAK256 EQ ISZERO PUSH2 0x1166 JUMPI PUSH1 0x0 SWAP2 POP JUMPDEST PUSH1 0x3 SLOAD DUP3 GT PUSH2 0x1166 JUMPI PUSH1 0x3 DUP3 DUP2 SLOAD DUP2 LT PUSH2 0x10BD JUMPI PUSH2 0x10BD PUSH2 0x2179 JUMP JUMPDEST SWAP1 PUSH1 0x0 MSTORE PUSH1 0x20 PUSH1 0x0 KECCAK256 SWAP1 PUSH1 0x5 MUL ADD PUSH1 0x0 ADD PUSH1 0x40 MLOAD PUSH1 0x20 ADD PUSH2 0x10DE SWAP2 SWAP1 PUSH2 0x1EBC JUMP JUMPDEST PUSH1 0x40 MLOAD PUSH1 0x20 DUP2 DUP4 SUB SUB DUP2 MSTORE SWAP1 PUSH1 0x40 MSTORE DUP1 MLOAD SWAP1 PUSH1 0x20 ADD KECCAK256 DUP7 PUSH1 0x40 MLOAD PUSH1 0x20 ADD PUSH2 0x1105 SWAP2 SWAP1 PUSH2 0x1EA0 JUMP JUMPDEST PUSH1 0x40 MLOAD PUSH1 0x20 DUP2 DUP4 SUB SUB DUP2 MSTORE SWAP1 PUSH1 0x40 MSTORE DUP1 MLOAD SWAP1 PUSH1 0x20 ADD KECCAK256 EQ ISZERO PUSH2 0x1154 JUMPI PUSH1 0x3 DUP3 DUP2 SLOAD DUP2 LT PUSH2 0x1134 JUMPI PUSH2 0x1134 PUSH2 0x2179 JUMP JUMPDEST SWAP1 PUSH1 0x0 MSTORE PUSH1 0x20 PUSH1 0x0 KECCAK256 SWAP1 PUSH1 0x5 MUL ADD PUSH1 0x3 ADD SLOAD DUP4 PUSH2 0x1151 SWAP2 SWAP1 PUSH2 0x2090 JUMP JUMPDEST SWAP3 POP JUMPDEST DUP2 PUSH2 0x115E DUP2 PUSH2 0x2148 JUMP JUMPDEST SWAP3 POP POP PUSH2 0x10A1 JUMP JUMPDEST POP DUP1 PUSH2 0x1171 DUP2 PUSH2 0x2148 JUMP JUMPDEST SWAP2 POP POP PUSH2 0xF94 JUMP JUMPDEST POP PUSH2 0x1184 DUP3 DUP3 PUSH2 0x20A8 JUMP JUMPDEST PUSH2 0x118E SWAP1 DUP3 PUSH2 0x2090 JUMP JUMPDEST SWAP5 SWAP4 POP POP POP POP JUMP JUMPDEST PUSH1 0xB DUP2 DUP2 SLOAD DUP2 LT PUSH2 0xDE9 JUMPI PUSH1 0x0 DUP1 REVERT JUMPDEST PUSH1 0x40 DUP1 MLOAD PUSH1 0x60 DUP2 ADD DUP3 MSTORE CALLER DUP2 MSTORE PUSH1 0x20 DUP1 DUP3 ADD DUP5 DUP2 MSTORE PUSH1 0x1 SWAP4 DUP4 ADD DUP5 SWAP1 MSTORE PUSH1 0xB DUP1 SLOAD SWAP5 DUP6 ADD DUP2 SSTORE PUSH1 0x0 MSTORE DUP3 MLOAD PUSH32 0x175B7A638427703F0DBE7BB9BBF987A2551717B34E79F33B5B1008D1FA01DB9 PUSH1 0x3 SWAP1 SWAP6 MUL SWAP5 DUP6 ADD DUP1 SLOAD PUSH1 0x1 PUSH1 0x1 PUSH1 0xA0 SHL SUB NOT AND PUSH1 0x1 PUSH1 0x1 PUSH1 0xA0 SHL SUB SWAP1 SWAP3 AND SWAP2 SWAP1 SWAP2 OR DUP2 SSTORE SWAP1 MLOAD DUP1 MLOAD SWAP4 SWAP5 SWAP2 SWAP4 PUSH2 0x871 SWAP4 PUSH32 0x175B7A638427703F0DBE7BB9BBF987A2551717B34E79F33B5B1008D1FA01DBA SWAP1 SWAP4 ADD SWAP3 SWAP2 SWAP1 SWAP2 ADD SWAP1 PUSH2 0x19AF JUMP JUMPDEST PUSH1 0x60 PUSH1 0x2 DUP1 SLOAD DUP1 PUSH1 0x20 MUL PUSH1 0x20 ADD PUSH1 0x40 MLOAD SWAP1 DUP2 ADD PUSH1 0x40 MSTORE DUP1 SWAP3 SWAP2 SWAP1 DUP2 DUP2 MSTORE PUSH1 0x20 ADD PUSH1 0x0 SWAP1 JUMPDEST DUP3 DUP3 LT ISZERO PUSH2 0xCA8 JUMPI DUP4 DUP3 SWAP1 PUSH1 0x0 MSTORE PUSH1 0x20 PUSH1 0x0 KECCAK256 ADD DUP1 SLOAD PUSH2 0x1295 SWAP1 PUSH2 0x210D JUMP JUMPDEST DUP1 PUSH1 0x1F ADD PUSH1 0x20 DUP1 SWAP2 DIV MUL PUSH1 0x20 ADD PUSH1 0x40 MLOAD SWAP1 DUP2 ADD PUSH1 0x40 MSTORE DUP1 SWAP3 SWAP2 SWAP1 DUP2 DUP2 MSTORE PUSH1 0x20 ADD DUP3 DUP1 SLOAD PUSH2 0x12C1 SWAP1 PUSH2 0x210D JUMP JUMPDEST DUP1 ISZERO PUSH2 0x130E JUMPI DUP1 PUSH1 0x1F LT PUSH2 0x12E3 JUMPI PUSH2 0x100 DUP1 DUP4 SLOAD DIV MUL DUP4 MSTORE SWAP2 PUSH1 0x20 ADD SWAP2 PUSH2 0x130E JUMP JUMPDEST DUP3 ADD SWAP2 SWAP1 PUSH1 0x0 MSTORE PUSH1 0x20 PUSH1 0x0 KECCAK256 SWAP1 JUMPDEST DUP2 SLOAD DUP2 MSTORE SWAP1 PUSH1 0x1 ADD SWAP1 PUSH1 0x20 ADD DUP1 DUP4 GT PUSH2 0x12F1 JUMPI DUP3 SWAP1 SUB PUSH1 0x1F AND DUP3 ADD SWAP2 JUMPDEST POP POP POP POP POP DUP2 MSTORE PUSH1 0x20 ADD SWAP1 PUSH1 0x1 ADD SWAP1 PUSH2 0x1276 JUMP JUMPDEST PUSH1 0xA DUP2 GT ISZERO PUSH2 0x137D JUMPI PUSH1 0x40 MLOAD PUSH3 0x461BCD PUSH1 0xE5 SHL DUP2 MSTORE PUSH1 0x20 PUSH1 0x4 DUP3 ADD MSTORE PUSH1 0x21 PUSH1 0x24 DUP3 ADD MSTORE PUSH32 0x6572726F723A20726174696E672063616E2062652066726F6D203120746F2031 PUSH1 0x44 DUP3 ADD MSTORE PUSH1 0x3 PUSH1 0xFC SHL PUSH1 0x64 DUP3 ADD MSTORE PUSH1 0x84 ADD PUSH2 0x5A2 JUMP JUMPDEST PUSH1 0x0 JUMPDEST PUSH1 0x2 SLOAD DUP2 GT PUSH2 0x15F0 JUMPI PUSH1 0x0 PUSH1 0x2 DUP3 DUP2 SLOAD DUP2 LT PUSH2 0x139E JUMPI PUSH2 0x139E PUSH2 0x2179 JUMP JUMPDEST SWAP1 PUSH1 0x0 MSTORE PUSH1 0x20 PUSH1 0x0 KECCAK256 ADD DUP1 SLOAD PUSH2 0x13B3 SWAP1 PUSH2 0x210D JUMP JUMPDEST DUP1 PUSH1 0x1F ADD PUSH1 0x20 DUP1 SWAP2 DIV MUL PUSH1 0x20 ADD PUSH1 0x40 MLOAD SWAP1 DUP2 ADD PUSH1 0x40 MSTORE DUP1 SWAP3 SWAP2 SWAP1 DUP2 DUP2 MSTORE PUSH1 0x20 ADD DUP3 DUP1 SLOAD PUSH2 0x13DF SWAP1 PUSH2 0x210D JUMP JUMPDEST DUP1 ISZERO PUSH2 0x142C JUMPI DUP1 PUSH1 0x1F LT PUSH2 0x1401 JUMPI PUSH2 0x100 DUP1 DUP4 SLOAD DIV MUL DUP4 MSTORE SWAP2 PUSH1 0x20 ADD SWAP2 PUSH2 0x142C JUMP JUMPDEST DUP3 ADD SWAP2 SWAP1 PUSH1 0x0 MSTORE PUSH1 0x20 PUSH1 0x0 KECCAK256 SWAP1 JUMPDEST DUP2 SLOAD DUP2 MSTORE SWAP1 PUSH1 0x1 ADD SWAP1 PUSH1 0x20 ADD DUP1 DUP4 GT PUSH2 0x140F JUMPI DUP3 SWAP1 SUB PUSH1 0x1F AND DUP3 ADD SWAP2 JUMPDEST POP POP POP POP POP SWAP1 POP DUP5 PUSH1 0x40 MLOAD PUSH1 0x20 ADD PUSH2 0x1444 SWAP2 SWAP1 PUSH2 0x1EA0 JUMP JUMPDEST PUSH1 0x40 MLOAD PUSH1 0x20 DUP2 DUP4 SUB SUB DUP2 MSTORE SWAP1 PUSH1 0x40 MSTORE DUP1 MLOAD SWAP1 PUSH1 0x20 ADD KECCAK256 DUP2 PUSH1 0x40 MLOAD PUSH1 0x20 ADD PUSH2 0x146B SWAP2 SWAP1 PUSH2 0x1EA0 JUMP JUMPDEST PUSH1 0x40 MLOAD PUSH1 0x20 DUP2 DUP4 SUB SUB DUP2 MSTORE SWAP1 PUSH1 0x40 MSTORE DUP1 MLOAD SWAP1 PUSH1 0x20 ADD KECCAK256 EQ ISZERO PUSH2 0x15DD JUMPI PUSH1 0x40 DUP1 MLOAD PUSH1 0xA0 DUP2 ADD DUP3 MSTORE DUP7 DUP2 MSTORE CALLER PUSH1 0x0 SWAP1 DUP2 MSTORE PUSH1 0x4 PUSH1 0x20 SWAP1 DUP2 MSTORE SWAP3 SWAP1 KECCAK256 DUP1 SLOAD PUSH1 0x60 SWAP4 PUSH1 0x3 SWAP4 SWAP3 SWAP1 DUP4 ADD SWAP2 PUSH2 0x14BA SWAP1 PUSH2 0x210D JUMP JUMPDEST DUP1 PUSH1 0x1F ADD PUSH1 0x20 DUP1 SWAP2 DIV MUL PUSH1 0x20 ADD PUSH1 0x40 MLOAD SWAP1 DUP2 ADD PUSH1 0x40 MSTORE DUP1 SWAP3 SWAP2 SWAP1 DUP2 DUP2 MSTORE PUSH1 0x20 ADD DUP3 DUP1 SLOAD PUSH2 0x14E6 SWAP1 PUSH2 0x210D JUMP JUMPDEST DUP1 ISZERO PUSH2 0x1533 JUMPI DUP1 PUSH1 0x1F LT PUSH2 0x1508 JUMPI PUSH2 0x100 DUP1 DUP4 SLOAD DIV MUL DUP4 MSTORE SWAP2 PUSH1 0x20 ADD SWAP2 PUSH2 0x1533 JUMP JUMPDEST DUP3 ADD SWAP2 SWAP1 PUSH1 0x0 MSTORE PUSH1 0x20 PUSH1 0x0 KECCAK256 SWAP1 JUMPDEST DUP2 SLOAD DUP2 MSTORE SWAP1 PUSH1 0x1 ADD SWAP1 PUSH1 0x20 ADD DUP1 DUP4 GT PUSH2 0x1516 JUMPI DUP3 SWAP1 SUB PUSH1 0x1F AND DUP3 ADD SWAP2 JUMPDEST POP POP POP SWAP2 DUP4 MSTORE POP POP PUSH1 0x20 DUP1 DUP3 ADD DUP10 SWAP1 MSTORE PUSH1 0x40 DUP3 ADD DUP9 SWAP1 MSTORE PUSH1 0x60 SWAP1 SWAP2 ADD DUP5 SWAP1 MSTORE DUP3 SLOAD PUSH1 0x1 DUP2 ADD DUP5 SSTORE PUSH1 0x0 SWAP4 DUP5 MSTORE SWAP3 DUP2 SWAP1 KECCAK256 DUP3 MLOAD DUP1 MLOAD SWAP4 SWAP5 PUSH1 0x5 MUL SWAP1 SWAP2 ADD SWAP3 PUSH2 0x157D SWAP3 DUP5 SWAP3 ADD SWAP1 PUSH2 0x19AF JUMP JUMPDEST POP PUSH1 0x20 DUP3 DUP2 ADD MLOAD DUP1 MLOAD PUSH2 0x1596 SWAP3 PUSH1 0x1 DUP6 ADD SWAP3 ADD SWAP1 PUSH2 0x19AF JUMP JUMPDEST POP PUSH1 0x40 DUP3 ADD MLOAD DUP1 MLOAD PUSH2 0x15B2 SWAP2 PUSH1 0x2 DUP5 ADD SWAP2 PUSH1 0x20 SWAP1 SWAP2 ADD SWAP1 PUSH2 0x19AF JUMP JUMPDEST POP PUSH1 0x60 DUP3 ADD MLOAD PUSH1 0x3 DUP3 ADD SSTORE PUSH1 0x80 DUP3 ADD MLOAD DUP1 MLOAD PUSH2 0x15D8 SWAP2 PUSH1 0x4 DUP5 ADD SWAP2 PUSH1 0x20 SWAP1 SWAP2 ADD SWAP1 PUSH2 0x1A33 JUMP JUMPDEST POP POP POP POP JUMPDEST POP DUP1 PUSH2 0x15E8 DUP2 PUSH2 0x2148 JUMP JUMPDEST SWAP2 POP POP PUSH2 0x1380 JUMP JUMPDEST POP POP POP POP JUMP JUMPDEST PUSH1 0x4 PUSH1 0x0 PUSH1 0x5 DUP5 PUSH1 0x40 MLOAD PUSH2 0x160A SWAP2 SWAP1 PUSH2 0x1EA0 JUMP JUMPDEST SWAP1 DUP2 MSTORE PUSH1 0x40 DUP1 MLOAD PUSH1 0x20 SWAP3 DUP2 SWAP1 SUB DUP4 ADD SWAP1 KECCAK256 SLOAD PUSH1 0x1 PUSH1 0x1 PUSH1 0xA0 SHL SUB AND DUP4 MSTORE SWAP1 DUP3 ADD SWAP3 SWAP1 SWAP3 MSTORE ADD PUSH1 0x0 KECCAK256 PUSH1 0x4 ADD SLOAD PUSH1 0xFF AND ISZERO PUSH2 0x1686 JUMPI PUSH1 0x40 MLOAD PUSH3 0x461BCD PUSH1 0xE5 SHL DUP2 MSTORE PUSH1 0x20 PUSH1 0x4 DUP3 ADD MSTORE PUSH1 0x1D PUSH1 0x24 DUP3 ADD MSTORE PUSH32 0x4572726F723A20596F752061726520616C7265616479206C6F67676564000000 PUSH1 0x44 DUP3 ADD MSTORE PUSH1 0x64 ADD PUSH2 0x5A2 JUMP JUMPDEST PUSH1 0x0 PUSH1 0x1 PUSH1 0x1 PUSH1 0xA0 SHL SUB AND PUSH1 0x5 DUP4 PUSH1 0x40 MLOAD PUSH2 0x16A1 SWAP2 SWAP1 PUSH2 0x1EA0 JUMP JUMPDEST SWAP1 DUP2 MSTORE PUSH1 0x40 MLOAD SWAP1 DUP2 SWAP1 SUB PUSH1 0x20 ADD SWAP1 KECCAK256 SLOAD PUSH1 0x1 PUSH1 0x1 PUSH1 0xA0 SHL SUB AND EQ ISZERO PUSH2 0x1704 JUMPI PUSH1 0x40 MLOAD PUSH3 0x461BCD PUSH1 0xE5 SHL DUP2 MSTORE PUSH1 0x20 PUSH1 0x4 DUP3 ADD MSTORE PUSH1 0x19 PUSH1 0x24 DUP3 ADD MSTORE PUSH25 0x115C9C9BDC8E88155CD95C88191BD95CDB89DD08195E1A5CDD PUSH1 0x3A SHL PUSH1 0x44 DUP3 ADD MSTORE PUSH1 0x64 ADD PUSH2 0x5A2 JUMP JUMPDEST DUP1 PUSH1 0x4 PUSH1 0x0 PUSH1 0x5 DUP6 PUSH1 0x40 MLOAD PUSH2 0x1719 SWAP2 SWAP1 PUSH2 0x1EA0 JUMP JUMPDEST SWAP1 DUP2 MSTORE PUSH1 0x40 DUP1 MLOAD PUSH1 0x20 SWAP3 DUP2 SWAP1 SUB DUP4 ADD SWAP1 KECCAK256 SLOAD PUSH1 0x1 PUSH1 0x1 PUSH1 0xA0 SHL SUB AND DUP4 MSTORE SWAP1 DUP3 ADD SWAP3 SWAP1 SWAP3 MSTORE ADD PUSH1 0x0 KECCAK256 PUSH1 0x1 ADD SLOAD EQ PUSH2 0x178C JUMPI PUSH1 0x40 MLOAD PUSH3 0x461BCD PUSH1 0xE5 SHL DUP2 MSTORE PUSH1 0x20 PUSH1 0x4 DUP3 ADD MSTORE PUSH1 0x17 PUSH1 0x24 DUP3 ADD MSTORE PUSH23 0x115C9C9BDC8E88125B9D985B1A59081C185CDCDDDBDC99 PUSH1 0x4A SHL PUSH1 0x44 DUP3 ADD MSTORE PUSH1 0x64 ADD PUSH2 0x5A2 JUMP JUMPDEST PUSH1 0x1 PUSH1 0x4 PUSH1 0x0 PUSH1 0x5 DUP6 PUSH1 0x40 MLOAD PUSH2 0x17A2 SWAP2 SWAP1 PUSH2 0x1EA0 JUMP JUMPDEST SWAP1 DUP2 MSTORE PUSH1 0x40 DUP1 MLOAD PUSH1 0x20 SWAP3 DUP2 SWAP1 SUB DUP4 ADD SWAP1 KECCAK256 SLOAD PUSH1 0x1 PUSH1 0x1 PUSH1 0xA0 SHL SUB AND DUP4 MSTORE SWAP1 DUP3 ADD SWAP3 SWAP1 SWAP3 MSTORE ADD PUSH1 0x0 KECCAK256 PUSH1 0x4 ADD DUP1 SLOAD PUSH1 0xFF NOT AND SWAP2 ISZERO ISZERO SWAP2 SWAP1 SWAP2 OR SWAP1 SSTORE POP POP JUMP JUMPDEST DUP1 MLOAD PUSH1 0x20 DUP2 DUP4 ADD DUP2 ADD DUP1 MLOAD PUSH1 0x8 DUP3 MSTORE SWAP3 DUP3 ADD SWAP2 SWAP1 SWAP4 ADD KECCAK256 SWAP2 MSTORE DUP1 SLOAD PUSH1 0x1 DUP3 ADD DUP1 SLOAD PUSH1 0x1 PUSH1 0x1 PUSH1 0xA0 SHL SUB SWAP1 SWAP3 AND SWAP3 SWAP2 PUSH2 0x1817 SWAP1 PUSH2 0x210D JUMP JUMPDEST DUP1 PUSH1 0x1F ADD PUSH1 0x20 DUP1 SWAP2 DIV MUL PUSH1 0x20 ADD PUSH1 0x40 MLOAD SWAP1 DUP2 ADD PUSH1 0x40 MSTORE DUP1 SWAP3 SWAP2 SWAP1 DUP2 DUP2 MSTORE PUSH1 0x20 ADD DUP3 DUP1 SLOAD PUSH2 0x1843 SWAP1 PUSH2 0x210D JUMP JUMPDEST DUP1 ISZERO PUSH2 0x1890 JUMPI DUP1 PUSH1 0x1F LT PUSH2 0x1865 JUMPI PUSH2 0x100 DUP1 DUP4 SLOAD DIV MUL DUP4 MSTORE SWAP2 PUSH1 0x20 ADD SWAP2 PUSH2 0x1890 JUMP JUMPDEST DUP3 ADD SWAP2 SWAP1 PUSH1 0x0 MSTORE PUSH1 0x20 PUSH1 0x0 KECCAK256 SWAP1 JUMPDEST DUP2 SLOAD DUP2 MSTORE SWAP1 PUSH1 0x1 ADD SWAP1 PUSH1 0x20 ADD DUP1 DUP4 GT PUSH2 0x1873 JUMPI DUP3 SWAP1 SUB PUSH1 0x1F AND DUP3 ADD SWAP2 JUMPDEST POP POP POP POP POP SWAP1 DUP1 PUSH1 0x2 ADD SLOAD SWAP1 DUP1 PUSH1 0x3 ADD SLOAD SWAP1 POP DUP5 JUMP JUMPDEST PUSH1 0xA DUP2 DUP2 SLOAD DUP2 LT PUSH2 0xDE9 JUMPI PUSH1 0x0 DUP1 REVERT JUMPDEST PUSH1 0x1 DUP2 ISZERO ISZERO EQ ISZERO PUSH2 0xB17 JUMPI PUSH1 0x8 PUSH1 0xC DUP4 DUP2 SLOAD DUP2 LT PUSH2 0x18D6 JUMPI PUSH2 0x18D6 PUSH2 0x2179 JUMP JUMPDEST SWAP1 PUSH1 0x0 MSTORE PUSH1 0x20 PUSH1 0x0 KECCAK256 SWAP1 PUSH1 0x3 MUL ADD PUSH1 0x1 ADD PUSH1 0x40 MLOAD PUSH2 0x18F4 SWAP2 SWAP1 PUSH2 0x1EBC JUMP JUMPDEST SWAP1 DUP2 MSTORE PUSH1 0x20 ADD PUSH1 0x40 MLOAD DUP1 SWAP2 SUB SWAP1 KECCAK256 PUSH1 0x2 ADD SLOAD PUSH1 0x4 PUSH1 0x0 PUSH1 0xC DUP6 DUP2 SLOAD DUP2 LT PUSH2 0x191D JUMPI PUSH2 0x191D PUSH2 0x2179 JUMP JUMPDEST PUSH1 0x0 SWAP2 DUP3 MSTORE PUSH1 0x20 DUP1 DUP4 KECCAK256 PUSH1 0x3 SWAP1 SWAP3 MUL SWAP1 SWAP2 ADD SLOAD PUSH1 0x1 PUSH1 0x1 PUSH1 0xA0 SHL SUB AND DUP4 MSTORE DUP3 ADD SWAP3 SWAP1 SWAP3 MSTORE PUSH1 0x40 ADD SWAP1 KECCAK256 PUSH1 0x2 ADD SLOAD PUSH2 0x1954 SWAP2 SWAP1 PUSH2 0x2090 JUMP JUMPDEST PUSH1 0x4 PUSH1 0x0 PUSH1 0xC DUP6 DUP2 SLOAD DUP2 LT PUSH2 0x196B JUMPI PUSH2 0x196B PUSH2 0x2179 JUMP JUMPDEST PUSH1 0x0 SWAP2 DUP3 MSTORE PUSH1 0x20 DUP1 DUP4 KECCAK256 PUSH1 0x3 SWAP1 SWAP3 MUL SWAP1 SWAP2 ADD SLOAD PUSH1 0x1 PUSH1 0x1 PUSH1 0xA0 SHL SUB AND DUP4 MSTORE DUP3 ADD SWAP3 SWAP1 SWAP3 MSTORE PUSH1 0x40 ADD DUP2 KECCAK256 PUSH1 0x2 ADD SWAP2 SWAP1 SWAP2 SSTORE PUSH1 0xB DUP1 SLOAD DUP5 SWAP1 DUP2 LT PUSH2 0x51D JUMPI PUSH2 0x51D PUSH2 0x2179 JUMP JUMPDEST DUP3 DUP1 SLOAD PUSH2 0x19BB SWAP1 PUSH2 0x210D JUMP JUMPDEST SWAP1 PUSH1 0x0 MSTORE PUSH1 0x20 PUSH1 0x0 KECCAK256 SWAP1 PUSH1 0x1F ADD PUSH1 0x20 SWAP1 DIV DUP2 ADD SWAP3 DUP3 PUSH2 0x19DD JUMPI PUSH1 0x0 DUP6 SSTORE PUSH2 0x1A23 JUMP JUMPDEST DUP3 PUSH1 0x1F LT PUSH2 0x19F6 JUMPI DUP1 MLOAD PUSH1 0xFF NOT AND DUP4 DUP1 ADD OR DUP6 SSTORE PUSH2 0x1A23 JUMP JUMPDEST DUP3 DUP1 ADD PUSH1 0x1 ADD DUP6 SSTORE DUP3 ISZERO PUSH2 0x1A23 JUMPI SWAP2 DUP3 ADD JUMPDEST DUP3 DUP2 GT ISZERO PUSH2 0x1A23 JUMPI DUP3 MLOAD DUP3 SSTORE SWAP2 PUSH1 0x20 ADD SWAP2 SWAP1 PUSH1 0x1 ADD SWAP1 PUSH2 0x1A08 JUMP JUMPDEST POP PUSH2 0x1A2F SWAP3 SWAP2 POP PUSH2 0x1A8C JUMP JUMPDEST POP SWAP1 JUMP JUMPDEST DUP3 DUP1 SLOAD DUP3 DUP3 SSTORE SWAP1 PUSH1 0x0 MSTORE PUSH1 0x20 PUSH1 0x0 KECCAK256 SWAP1 DUP2 ADD SWAP3 DUP3 ISZERO PUSH2 0x1A80 JUMPI SWAP2 PUSH1 0x20 MUL DUP3 ADD JUMPDEST DUP3 DUP2 GT ISZERO PUSH2 0x1A80 JUMPI DUP3 MLOAD DUP1 MLOAD PUSH2 0x1A70 SWAP2 DUP5 SWAP2 PUSH1 0x20 SWAP1 SWAP2 ADD SWAP1 PUSH2 0x19AF JUMP JUMPDEST POP SWAP2 PUSH1 0x20 ADD SWAP2 SWAP1 PUSH1 0x1 ADD SWAP1 PUSH2 0x1A53 JUMP JUMPDEST POP PUSH2 0x1A2F SWAP3 SWAP2 POP PUSH2 0x1AA1 JUMP JUMPDEST JUMPDEST DUP1 DUP3 GT ISZERO PUSH2 0x1A2F JUMPI PUSH1 0x0 DUP2 SSTORE PUSH1 0x1 ADD PUSH2 0x1A8D JUMP JUMPDEST DUP1 DUP3 GT ISZERO PUSH2 0x1A2F JUMPI PUSH1 0x0 PUSH2 0x1AB5 DUP3 DUP3 PUSH2 0x1ABE JUMP JUMPDEST POP PUSH1 0x1 ADD PUSH2 0x1AA1 JUMP JUMPDEST POP DUP1 SLOAD PUSH2 0x1ACA SWAP1 PUSH2 0x210D JUMP JUMPDEST PUSH1 0x0 DUP3 SSTORE DUP1 PUSH1 0x1F LT PUSH2 0x1ADA JUMPI POP POP JUMP JUMPDEST PUSH1 0x1F ADD PUSH1 0x20 SWAP1 DIV SWAP1 PUSH1 0x0 MSTORE PUSH1 0x20 PUSH1 0x0 KECCAK256 SWAP1 DUP2 ADD SWAP1 PUSH2 0x1AF8 SWAP2 SWAP1 PUSH2 0x1A8C JUMP JUMPDEST POP JUMP JUMPDEST DUP1 CALLDATALOAD PUSH1 0x1 PUSH1 0x1 PUSH1 0xA0 SHL SUB DUP2 AND DUP2 EQ PUSH2 0x1B12 JUMPI PUSH1 0x0 DUP1 REVERT JUMPDEST SWAP2 SWAP1 POP JUMP JUMPDEST PUSH1 0x0 DUP3 PUSH1 0x1F DUP4 ADD SLT PUSH2 0x1B28 JUMPI PUSH1 0x0 DUP1 REVERT JUMPDEST DUP2 CALLDATALOAD PUSH1 0x1 PUSH1 0x1 PUSH1 0x40 SHL SUB DUP2 GT ISZERO PUSH2 0x1B41 JUMPI PUSH2 0x1B41 PUSH2 0x218F JUMP JUMPDEST PUSH2 0x1B54 PUSH1 0x1F DUP3 ADD PUSH1 0x1F NOT AND PUSH1 0x20 ADD PUSH2 0x2060 JUMP JUMPDEST DUP2 DUP2 MSTORE DUP5 PUSH1 0x20 DUP4 DUP7 ADD ADD GT ISZERO PUSH2 0x1B69 JUMPI PUSH1 0x0 DUP1 REVERT JUMPDEST DUP2 PUSH1 0x20 DUP6 ADD PUSH1 0x20 DUP4 ADD CALLDATACOPY PUSH1 0x0 SWAP2 DUP2 ADD PUSH1 0x20 ADD SWAP2 SWAP1 SWAP2 MSTORE SWAP4 SWAP3 POP POP POP JUMP JUMPDEST PUSH1 0x0 PUSH1 0x20 DUP3 DUP5 SUB SLT ISZERO PUSH2 0x1B98 JUMPI PUSH1 0x0 DUP1 REVERT JUMPDEST PUSH2 0x1BA1 DUP3 PUSH2 0x1AFB JUMP JUMPDEST SWAP4 SWAP3 POP POP POP JUMP JUMPDEST PUSH1 0x0 DUP1 PUSH1 0x0 PUSH1 0x60 DUP5 DUP7 SUB SLT ISZERO PUSH2 0x1BBD JUMPI PUSH1 0x0 DUP1 REVERT JUMPDEST PUSH2 0x1BC6 DUP5 PUSH2 0x1AFB JUMP JUMPDEST SWAP3 POP PUSH1 0x20 DUP5 ADD CALLDATALOAD PUSH1 0x1 PUSH1 0x1 PUSH1 0x40 SHL SUB DUP2 GT ISZERO PUSH2 0x1BE1 JUMPI PUSH1 0x0 DUP1 REVERT JUMPDEST PUSH2 0x1BED DUP7 DUP3 DUP8 ADD PUSH2 0x1B17 JUMP JUMPDEST SWAP3 POP POP PUSH1 0x40 DUP5 ADD CALLDATALOAD SWAP1 POP SWAP3 POP SWAP3 POP SWAP3 JUMP JUMPDEST PUSH1 0x0 PUSH1 0x20 DUP3 DUP5 SUB SLT ISZERO PUSH2 0x1C10 JUMPI PUSH1 0x0 DUP1 REVERT JUMPDEST DUP2 CALLDATALOAD PUSH1 0x1 PUSH1 0x1 PUSH1 0x40 SHL SUB DUP2 GT ISZERO PUSH2 0x1C26 JUMPI PUSH1 0x0 DUP1 REVERT JUMPDEST PUSH2 0x118E DUP5 DUP3 DUP6 ADD PUSH2 0x1B17 JUMP JUMPDEST PUSH1 0x0 DUP1 PUSH1 0x40 DUP4 DUP6 SUB SLT ISZERO PUSH2 0x1C45 JUMPI PUSH1 0x0 DUP1 REVERT JUMPDEST DUP3 CALLDATALOAD PUSH1 0x1 PUSH1 0x1 PUSH1 0x40 SHL SUB DUP1 DUP3 GT ISZERO PUSH2 0x1C5C JUMPI PUSH1 0x0 DUP1 REVERT JUMPDEST PUSH2 0x1C68 DUP7 DUP4 DUP8 ADD PUSH2 0x1B17 JUMP JUMPDEST SWAP4 POP PUSH1 0x20 SWAP2 POP DUP2 DUP6 ADD CALLDATALOAD DUP2 DUP2 GT ISZERO PUSH2 0x1C7F JUMPI PUSH1 0x0 DUP1 REVERT JUMPDEST DUP6 ADD PUSH1 0x1F DUP2 ADD DUP8 SGT PUSH2 0x1C90 JUMPI PUSH1 0x0 DUP1 REVERT JUMPDEST DUP1 CALLDATALOAD DUP3 DUP2 GT ISZERO PUSH2 0x1CA2 JUMPI PUSH2 0x1CA2 PUSH2 0x218F JUMP JUMPDEST DUP1 PUSH1 0x5 SHL PUSH2 0x1CB1 DUP6 DUP3 ADD PUSH2 0x2060 JUMP JUMPDEST DUP3 DUP2 MSTORE DUP6 DUP2 ADD SWAP1 DUP5 DUP8 ADD DUP4 DUP7 ADD DUP9 ADD DUP13 LT ISZERO PUSH2 0x1CCC JUMPI PUSH1 0x0 DUP1 REVERT JUMPDEST PUSH1 0x0 SWAP4 POP DUP4 JUMPDEST DUP6 DUP2 LT ISZERO PUSH2 0x1D09 JUMPI DUP2 CALLDATALOAD DUP9 DUP2 GT ISZERO PUSH2 0x1CE8 JUMPI DUP6 DUP7 REVERT JUMPDEST PUSH2 0x1CF6 DUP15 DUP12 DUP4 DUP12 ADD ADD PUSH2 0x1B17 JUMP JUMPDEST DUP6 MSTORE POP SWAP3 DUP9 ADD SWAP3 SWAP1 DUP9 ADD SWAP1 PUSH1 0x1 ADD PUSH2 0x1CD2 JUMP JUMPDEST POP SWAP9 SWAP12 SWAP1 SWAP11 POP SWAP9 POP POP POP POP POP POP POP POP POP JUMP JUMPDEST PUSH1 0x0 DUP1 PUSH1 0x40 DUP4 DUP6 SUB SLT ISZERO PUSH2 0x1D2E JUMPI PUSH1 0x0 DUP1 REVERT JUMPDEST DUP3 CALLDATALOAD PUSH1 0x1 PUSH1 0x1 PUSH1 0x40 SHL SUB DUP2 GT ISZERO PUSH2 0x1D44 JUMPI PUSH1 0x0 DUP1 REVERT JUMPDEST PUSH2 0x1D50 DUP6 DUP3 DUP7 ADD PUSH2 0x1B17 JUMP JUMPDEST SWAP6 PUSH1 0x20 SWAP5 SWAP1 SWAP5 ADD CALLDATALOAD SWAP5 POP POP POP POP JUMP JUMPDEST PUSH1 0x0 DUP1 PUSH1 0x0 PUSH1 0x60 DUP5 DUP7 SUB SLT ISZERO PUSH2 0x1D74 JUMPI PUSH1 0x0 DUP1 REVERT JUMPDEST DUP4 CALLDATALOAD PUSH1 0x1 PUSH1 0x1 PUSH1 0x40 SHL SUB DUP1 DUP3 GT ISZERO PUSH2 0x1D8B JUMPI PUSH1 0x0 DUP1 REVERT JUMPDEST PUSH2 0x1D97 DUP8 DUP4 DUP9 ADD PUSH2 0x1B17 JUMP JUMPDEST SWAP5 POP PUSH1 0x20 DUP7 ADD CALLDATALOAD SWAP2 POP DUP1 DUP3 GT ISZERO PUSH2 0x1DAD JUMPI PUSH1 0x0 DUP1 REVERT JUMPDEST POP PUSH2 0x1BED DUP7 DUP3 DUP8 ADD PUSH2 0x1B17 JUMP JUMPDEST PUSH1 0x0 DUP1 PUSH1 0x0 PUSH1 0x60 DUP5 DUP7 SUB SLT ISZERO PUSH2 0x1DCF JUMPI PUSH1 0x0 DUP1 REVERT JUMPDEST DUP4 CALLDATALOAD PUSH1 0x1 PUSH1 0x1 PUSH1 0x40 SHL SUB DUP1 DUP3 GT ISZERO PUSH2 0x1DE6 JUMPI PUSH1 0x0 DUP1 REVERT JUMPDEST PUSH2 0x1DF2 DUP8 DUP4 DUP9 ADD PUSH2 0x1B17 JUMP JUMPDEST SWAP5 POP PUSH1 0x20 DUP7 ADD CALLDATALOAD SWAP4 POP PUSH1 0x40 DUP7 ADD CALLDATALOAD SWAP2 POP DUP1 DUP3 GT ISZERO PUSH2 0x1E0F JUMPI PUSH1 0x0 DUP1 REVERT JUMPDEST POP PUSH2 0x1E1C DUP7 DUP3 DUP8 ADD PUSH2 0x1B17 JUMP JUMPDEST SWAP2 POP POP SWAP3 POP SWAP3 POP SWAP3 JUMP JUMPDEST PUSH1 0x0 PUSH1 0x20 DUP3 DUP5 SUB SLT ISZERO PUSH2 0x1E38 JUMPI PUSH1 0x0 DUP1 REVERT JUMPDEST POP CALLDATALOAD SWAP2 SWAP1 POP JUMP JUMPDEST PUSH1 0x0 DUP1 PUSH1 0x40 DUP4 DUP6 SUB SLT ISZERO PUSH2 0x1E52 JUMPI PUSH1 0x0 DUP1 REVERT JUMPDEST DUP3 CALLDATALOAD SWAP2 POP PUSH1 0x20 DUP4 ADD CALLDATALOAD DUP1 ISZERO ISZERO DUP2 EQ PUSH2 0x1E69 JUMPI PUSH1 0x0 DUP1 REVERT JUMPDEST DUP1 SWAP2 POP POP SWAP3 POP SWAP3 SWAP1 POP JUMP JUMPDEST PUSH1 0x0 DUP2 MLOAD DUP1 DUP5 MSTORE PUSH2 0x1E8C DUP2 PUSH1 0x20 DUP7 ADD PUSH1 0x20 DUP7 ADD PUSH2 0x20E1 JUMP JUMPDEST PUSH1 0x1F ADD PUSH1 0x1F NOT AND SWAP3 SWAP1 SWAP3 ADD PUSH1 0x20 ADD SWAP3 SWAP2 POP POP JUMP JUMPDEST PUSH1 0x0 DUP3 MLOAD PUSH2 0x1EB2 DUP2 DUP5 PUSH1 0x20 DUP8 ADD PUSH2 0x20E1 JUMP JUMPDEST SWAP2 SWAP1 SWAP2 ADD SWAP3 SWAP2 POP POP JUMP JUMPDEST PUSH1 0x0 DUP1 DUP4 SLOAD DUP2 PUSH1 0x1 DUP3 DUP2 SHR SWAP2 POP DUP1 DUP4 AND DUP1 PUSH2 0x1ED8 JUMPI PUSH1 0x7F DUP4 AND SWAP3 POP JUMPDEST PUSH1 0x20 DUP1 DUP5 LT DUP3 EQ ISZERO PUSH2 0x1EF8 JUMPI PUSH4 0x4E487B71 PUSH1 0xE0 SHL DUP7 MSTORE PUSH1 0x22 PUSH1 0x4 MSTORE PUSH1 0x24 DUP7 REVERT JUMPDEST DUP2 DUP1 ISZERO PUSH2 0x1F0C JUMPI PUSH1 0x1 DUP2 EQ PUSH2 0x1F1D JUMPI PUSH2 0x1F4A JUMP JUMPDEST PUSH1 0xFF NOT DUP7 AND DUP10 MSTORE DUP5 DUP10 ADD SWAP7 POP PUSH2 0x1F4A JUMP JUMPDEST PUSH1 0x0 DUP11 DUP2 MSTORE PUSH1 0x20 SWAP1 KECCAK256 PUSH1 0x0 JUMPDEST DUP7 DUP2 LT ISZERO PUSH2 0x1F42 JUMPI DUP2 SLOAD DUP12 DUP3 ADD MSTORE SWAP1 DUP6 ADD SWAP1 DUP4 ADD PUSH2 0x1F29 JUMP JUMPDEST POP POP DUP5 DUP10 ADD SWAP7 POP JUMPDEST POP SWAP5 SWAP9 SWAP8 POP POP POP POP POP POP POP POP JUMP JUMPDEST PUSH1 0x1 PUSH1 0x1 PUSH1 0xA0 SHL SUB DUP5 AND DUP2 MSTORE PUSH1 0x60 PUSH1 0x20 DUP3 ADD DUP2 SWAP1 MSTORE PUSH1 0x0 SWAP1 PUSH2 0x1F7C SWAP1 DUP4 ADD DUP6 PUSH2 0x1E74 JUMP JUMPDEST SWAP1 POP DUP3 ISZERO ISZERO PUSH1 0x40 DUP4 ADD MSTORE SWAP5 SWAP4 POP POP POP POP JUMP JUMPDEST PUSH1 0x1 PUSH1 0x1 PUSH1 0xA0 SHL SUB DUP6 AND DUP2 MSTORE PUSH1 0x80 PUSH1 0x20 DUP3 ADD DUP2 SWAP1 MSTORE PUSH1 0x0 SWAP1 PUSH2 0x1FB2 SWAP1 DUP4 ADD DUP7 PUSH2 0x1E74 JUMP JUMPDEST PUSH1 0x40 DUP4 ADD SWAP5 SWAP1 SWAP5 MSTORE POP PUSH1 0x60 ADD MSTORE SWAP3 SWAP2 POP POP JUMP JUMPDEST PUSH1 0x0 PUSH1 0x20 DUP1 DUP4 ADD DUP2 DUP5 MSTORE DUP1 DUP6 MLOAD DUP1 DUP4 MSTORE PUSH1 0x40 DUP7 ADD SWAP2 POP PUSH1 0x40 DUP2 PUSH1 0x5 SHL DUP8 ADD ADD SWAP3 POP DUP4 DUP8 ADD PUSH1 0x0 JUMPDEST DUP3 DUP2 LT ISZERO PUSH2 0x201A JUMPI PUSH1 0x3F NOT DUP9 DUP7 SUB ADD DUP5 MSTORE PUSH2 0x2008 DUP6 DUP4 MLOAD PUSH2 0x1E74 JUMP JUMPDEST SWAP5 POP SWAP3 DUP6 ADD SWAP3 SWAP1 DUP6 ADD SWAP1 PUSH1 0x1 ADD PUSH2 0x1FEC JUMP JUMPDEST POP SWAP3 SWAP8 SWAP7 POP POP POP POP POP POP POP JUMP JUMPDEST PUSH1 0xA0 DUP2 MSTORE PUSH1 0x0 PUSH2 0x203A PUSH1 0xA0 DUP4 ADD DUP9 PUSH2 0x1E74 JUMP JUMPDEST SWAP1 POP DUP6 PUSH1 0x20 DUP4 ADD MSTORE DUP5 PUSH1 0x40 DUP4 ADD MSTORE DUP4 PUSH1 0x60 DUP4 ADD MSTORE DUP3 ISZERO ISZERO PUSH1 0x80 DUP4 ADD MSTORE SWAP7 SWAP6 POP POP POP POP POP POP JUMP JUMPDEST PUSH1 0x40 MLOAD PUSH1 0x1F DUP3 ADD PUSH1 0x1F NOT AND DUP2 ADD PUSH1 0x1 PUSH1 0x1 PUSH1 0x40 SHL SUB DUP2 GT DUP3 DUP3 LT OR ISZERO PUSH2 0x2088 JUMPI PUSH2 0x2088 PUSH2 0x218F JUMP JUMPDEST PUSH1 0x40 MSTORE SWAP2 SWAP1 POP JUMP JUMPDEST PUSH1 0x0 DUP3 NOT DUP3 GT ISZERO PUSH2 0x20A3 JUMPI PUSH2 0x20A3 PUSH2 0x2163 JUMP JUMPDEST POP ADD SWAP1 JUMP JUMPDEST PUSH1 0x0 DUP3 PUSH2 0x20C5 JUMPI PUSH4 0x4E487B71 PUSH1 0xE0 SHL PUSH1 0x0 MSTORE PUSH1 0x12 PUSH1 0x4 MSTORE PUSH1 0x24 PUSH1 0x0 REVERT JUMPDEST POP DIV SWAP1 JUMP JUMPDEST PUSH1 0x0 DUP3 DUP3 LT ISZERO PUSH2 0x20DC JUMPI PUSH2 0x20DC PUSH2 0x2163 JUMP JUMPDEST POP SUB SWAP1 JUMP JUMPDEST PUSH1 0x0 JUMPDEST DUP4 DUP2 LT ISZERO PUSH2 0x20FC JUMPI DUP2 DUP2 ADD MLOAD DUP4 DUP3 ADD MSTORE PUSH1 0x20 ADD PUSH2 0x20E4 JUMP JUMPDEST DUP4 DUP2 GT ISZERO PUSH2 0x15F0 JUMPI POP POP PUSH1 0x0 SWAP2 ADD MSTORE JUMP JUMPDEST PUSH1 0x1 DUP2 DUP2 SHR SWAP1 DUP3 AND DUP1 PUSH2 0x2121 JUMPI PUSH1 0x7F DUP3 AND SWAP2 POP JUMPDEST PUSH1 0x20 DUP3 LT DUP2 EQ ISZERO PUSH2 0x2142 JUMPI PUSH4 0x4E487B71 PUSH1 0xE0 SHL PUSH1 0x0 MSTORE PUSH1 0x22 PUSH1 0x4 MSTORE PUSH1 0x24 PUSH1 0x0 REVERT JUMPDEST POP SWAP2 SWAP1 POP JUMP JUMPDEST PUSH1 0x0 PUSH1 0x0 NOT DUP3 EQ ISZERO PUSH2 0x215C JUMPI PUSH2 0x215C PUSH2 0x2163 JUMP JUMPDEST POP PUSH1 0x1 ADD SWAP1 JUMP JUMPDEST PUSH4 0x4E487B71 PUSH1 0xE0 SHL PUSH1 0x0 MSTORE PUSH1 0x11 PUSH1 0x4 MSTORE PUSH1 0x24 PUSH1 0x0 REVERT JUMPDEST PUSH4 0x4E487B71 PUSH1 0xE0 SHL PUSH1 0x0 MSTORE PUSH1 0x32 PUSH1 0x4 MSTORE PUSH1 0x24 PUSH1 0x0 REVERT JUMPDEST PUSH4 0x4E487B71 PUSH1 0xE0 SHL PUSH1 0x0 MSTORE PUSH1 0x41 PUSH1 0x4 MSTORE PUSH1 0x24 PUSH1 0x0 REVERT INVALID LOG2 PUSH5 0x6970667358 0x22 SLT KECCAK256 CALLVALUE SMOD SLOAD DIFFICULTY ADDRESS RETURNDATASIZE CALLCODE DUP7 JUMP 0xCB RETURNDATASIZE KECCAK256 0xE 0x4E 0xEC CODESIZE EXP 0xAA 0x2E BASEFEE 0xC4 0xCF BLOCKHASH 0x27 JUMPDEST SLT PUSH16 0x52A849902064736F6C63430008070033 BLOCKHASH JUMPI DUP8 STATICCALL SLT 0xA8 0x23 0xE0 CALLCODE 0xB7 PUSH4 0x1CC41B3B 0xA8 DUP3 DUP12 CALLER 0x21 0xCA DUP2 GT GT STATICCALL PUSH22 0xCD3AA3BB5ACEC49E92DEB93AC19463E0F89B887A2AB8 SHR PUSH12 0x5EADF7DC1BC8BD12CE4040F6 JUMP 0xFC 0x5C DUP4 0xA9 PUSH16 0xABBCC4E29B827AF3528E41DB71DD782 RETURNDATACOPY SDIV 0xE1 CALLDATACOPY 0x4C 0xD0 SWAP9 CALLDATALOAD BYTE CODESIZE 0xD PUSH32 0x0 "
				},
				"gasEstimates": {
					"creation": {
						"codeDepositCost": "1733400",
						"executionCost": "infinite",
						"totalCost": "infinite"
					},
					"external": {
						"MarriageRegistration(uint256,bool)": "infinite",
						"acceptPurchase(uint256,bool)": "infinite",
						"acceptReturn(uint256,bool)": "infinite",
						"addProductShop(string,uint256,string)": "infinite",
						"create_user(address,string,bytes32)": "infinite",
						"getProductList()": "infinite",
						"getShopList()": "infinite",
						"getStoryRating(string)": "infinite",
						"get_address(string)": "infinite",
						"get_hash(string)": "infinite",
						"leaveComment(string,string[])": "infinite",
						"leaveFeedback(string,string,uint256)": "infinite",
						"login_user(string,bytes32)": "infinite",
						"productMarriageRegistration(string)": "infinite",
						"productPurchases(string)": "infinite",
						"productReturn(string)": "infinite",
						"shopLists(string)": "infinite",
						"structMarriageRegistrations(uint256)": "infinite",
						"structProducts(string)": "infinite",
						"structStatusPurchases(uint256)": "infinite",
						"structStatusReturns(uint256)": "infinite",
						"structUserLogins(string)": "infinite",
						"structUsers(address)": "infinite"
					}
				},
				"methodIdentifiers": {
					"MarriageRegistration(uint256,bool)": "f69483c1",
					"acceptPurchase(uint256,bool)": "0c72b1ec",
					"acceptReturn(uint256,bool)": "2ccdef7c",
					"addProductShop(string,uint256,string)": "6c05dd1d",
					"create_user(address,string,bytes32)": "0e1c81b2",
					"getProductList()": "34d2c0ad",
					"getShopList()": "c178b9af",
					"getStoryRating(string)": "a985036d",
					"get_address(string)": "6ba44d3c",
					"get_hash(string)": "845952a8",
					"leaveComment(string,string[])": "29e795f3",
					"leaveFeedback(string,string,uint256)": "cc21c188",
					"login_user(string,bytes32)": "d22d9020",
					"productMarriageRegistration(string)": "2d4673e3",
					"productPurchases(string)": "146dc6ed",
					"productReturn(string)": "bbd43363",
					"shopLists(string)": "c4957fa0",
					"structMarriageRegistrations(uint256)": "7ddb273d",
					"structProducts(string)": "d68cf8c1",
					"structStatusPurchases(uint256)": "dce39151",
					"structStatusReturns(uint256)": "a9f9482b",
					"structUserLogins(string)": "1bbe970a",
					"structUsers(address)": "961865f0"
				}
			},
			"userdoc": {
				"kind": "user",
				"methods": {},
				"version": 1
			}
		}
	}
}