{
	"Documents/GitHub/Store-system-with-feedback/main.sol": {
		"coursepaper": {
			"abi": [
				{
					"inputs": [],
					"stateMutability": "nonpayable",
					"type": "constructor"
				},
				{
					"inputs": [
						{
							"internalType": "uint256",
							"name": "idMarriageRegistration",
							"type": "uint256"
						},
						{
							"internalType": "bool",
							"name": "confirmation",
							"type": "bool"
						}
					],
					"name": "MarriageRegistration",
					"outputs": [],
					"stateMutability": "nonpayable",
					"type": "function"
				},
				{
					"inputs": [
						{
							"internalType": "uint256",
							"name": "idPurchase",
							"type": "uint256"
						},
						{
							"internalType": "bool",
							"name": "confirmation",
							"type": "bool"
						}
					],
					"name": "acceptPurchase",
					"outputs": [],
					"stateMutability": "nonpayable",
					"type": "function"
				},
				{
					"inputs": [
						{
							"internalType": "uint256",
							"name": "idReturn",
							"type": "uint256"
						},
						{
							"internalType": "bool",
							"name": "confirmation",
							"type": "bool"
						}
					],
					"name": "acceptReturn",
					"outputs": [],
					"stateMutability": "nonpayable",
					"type": "function"
				},
				{
					"inputs": [
						{
							"internalType": "string",
							"name": "title",
							"type": "string"
						},
						{
							"internalType": "uint256",
							"name": "price",
							"type": "uint256"
						},
						{
							"internalType": "string",
							"name": "description",
							"type": "string"
						}
					],
					"name": "addProductShop",
					"outputs": [],
					"stateMutability": "nonpayable",
					"type": "function"
				},
				{
					"inputs": [
						{
							"internalType": "string",
							"name": "",
							"type": "string"
						}
					],
					"name": "complaintBooks",
					"outputs": [
						{
							"internalType": "string",
							"name": "shop",
							"type": "string"
						},
						{
							"internalType": "string",
							"name": "feedback",
							"type": "string"
						}
					],
					"stateMutability": "view",
					"type": "function"
				},
				{
					"inputs": [],
					"name": "getProductList",
					"outputs": [
						{
							"internalType": "string[]",
							"name": "",
							"type": "string[]"
						}
					],
					"stateMutability": "view",
					"type": "function"
				},
				{
					"inputs": [],
					"name": "getShopList",
					"outputs": [
						{
							"internalType": "string[]",
							"name": "",
							"type": "string[]"
						}
					],
					"stateMutability": "view",
					"type": "function"
				},
				{
					"inputs": [
						{
							"internalType": "string",
							"name": "shop",
							"type": "string"
						},
						{
							"internalType": "string",
							"name": "feedback",
							"type": "string"
						},
						{
							"internalType": "uint256",
							"name": "rating",
							"type": "uint256"
						}
					],
					"name": "leaveFeedback",
					"outputs": [],
					"stateMutability": "nonpayable",
					"type": "function"
				},
				{
					"inputs": [
						{
							"internalType": "string",
							"name": "titleProduct",
							"type": "string"
						}
					],
					"name": "productMarriageRegistration",
					"outputs": [],
					"stateMutability": "nonpayable",
					"type": "function"
				},
				{
					"inputs": [
						{
							"internalType": "string",
							"name": "titleProduct",
							"type": "string"
						}
					],
					"name": "productPurchases",
					"outputs": [],
					"stateMutability": "nonpayable",
					"type": "function"
				},
				{
					"inputs": [
						{
							"internalType": "string",
							"name": "titleProduct",
							"type": "string"
						}
					],
					"name": "productReturn",
					"outputs": [],
					"stateMutability": "nonpayable",
					"type": "function"
				},
				{
					"inputs": [
						{
							"internalType": "string",
							"name": "",
							"type": "string"
						}
					],
					"name": "shopLists",
					"outputs": [
						{
							"internalType": "address",
							"name": "",
							"type": "address"
						}
					],
					"stateMutability": "view",
					"type": "function"
				},
				{
					"inputs": [
						{
							"internalType": "uint256",
							"name": "",
							"type": "uint256"
						}
					],
					"name": "structMarriageRegistrations",
					"outputs": [
						{
							"internalType": "address",
							"name": "userLogin",
							"type": "address"
						},
						{
							"internalType": "string",
							"name": "titleProduct",
							"type": "string"
						},
						{
							"internalType": "bool",
							"name": "status",
							"type": "bool"
						}
					],
					"stateMutability": "view",
					"type": "function"
				},
				{
					"inputs": [
						{
							"internalType": "string",
							"name": "",
							"type": "string"
						}
					],
					"name": "structProducts",
					"outputs": [
						{
							"internalType": "address",
							"name": "shop",
							"type": "address"
						},
						{
							"internalType": "string",
							"name": "description",
							"type": "string"
						},
						{
							"internalType": "uint256",
							"name": "price",
							"type": "uint256"
						},
						{
							"internalType": "uint256",
							"name": "id",
							"type": "uint256"
						}
					],
					"stateMutability": "view",
					"type": "function"
				},
				{
					"inputs": [
						{
							"internalType": "uint256",
							"name": "",
							"type": "uint256"
						}
					],
					"name": "structStatusPurchases",
					"outputs": [
						{
							"internalType": "address",
							"name": "userLogin",
							"type": "address"
						},
						{
							"internalType": "string",
							"name": "titleProduct",
							"type": "string"
						},
						{
							"internalType": "bool",
							"name": "status",
							"type": "bool"
						}
					],
					"stateMutability": "view",
					"type": "function"
				},
				{
					"inputs": [
						{
							"internalType": "uint256",
							"name": "",
							"type": "uint256"
						}
					],
					"name": "structStatusReturns",
					"outputs": [
						{
							"internalType": "address",
							"name": "userLogin",
							"type": "address"
						},
						{
							"internalType": "string",
							"name": "titleProduct",
							"type": "string"
						},
						{
							"internalType": "bool",
							"name": "status",
							"type": "bool"
						}
					],
					"stateMutability": "view",
					"type": "function"
				},
				{
					"inputs": [
						{
							"internalType": "string",
							"name": "",
							"type": "string"
						}
					],
					"name": "structUserLogins",
					"outputs": [
						{
							"internalType": "address",
							"name": "",
							"type": "address"
						}
					],
					"stateMutability": "view",
					"type": "function"
				},
				{
					"inputs": [
						{
							"internalType": "address",
							"name": "",
							"type": "address"
						}
					],
					"name": "structUsers",
					"outputs": [
						{
							"internalType": "string",
							"name": "userName",
							"type": "string"
						},
						{
							"internalType": "uint256",
							"name": "password",
							"type": "uint256"
						},
						{
							"internalType": "uint256",
							"name": "ballance",
							"type": "uint256"
						}
					],
					"stateMutability": "view",
					"type": "function"
				}
			],
			"devdoc": {
				"kind": "dev",
				"methods": {},
				"version": 1
			},
			"evm": {
				"assembly": "    /* \"Documents/GitHub/Store-system-with-feedback/main.sol\":74:6480  contract coursepaper {\r... */\n  mstore(0x40, 0x80)\n    /* \"Documents/GitHub/Store-system-with-feedback/main.sol\":2885:2886  0 */\n  0x00\n    /* \"Documents/GitHub/Store-system-with-feedback/main.sol\":2850:2886  uint256 addProductShop_idProduct = 0 */\n  0x0c\n  sstore\n    /* \"Documents/GitHub/Store-system-with-feedback/main.sol\":129:981  constructor() public {\r... */\n  callvalue\n  dup1\n  iszero\n  tag_1\n  jumpi\n  0x00\n  dup1\n  revert\ntag_1:\n  pop\n    /* \"Documents/GitHub/Store-system-with-feedback/main.sol\":232:274  structShop(\"Food\", \"1\", \"Moscow\", 1000, 0) */\n  mload(0x40)\n  dup1\n  0xa0\n  add\n  0x40\n  mstore\n  dup1\n  mload(0x40)\n  dup1\n  0x40\n  add\n  0x40\n  mstore\n  dup1\n  0x04\n  dup2\n  mstore\n  0x20\n  add\n  0x466f6f6400000000000000000000000000000000000000000000000000000000\n  dup2\n  mstore\n  pop\n  dup2\n  mstore\n  0x20\n  add\n  mload(0x40)\n  dup1\n  0x40\n  add\n  0x40\n  mstore\n  dup1\n  0x01\n  dup2\n  mstore\n  0x20\n  add\n  0x3100000000000000000000000000000000000000000000000000000000000000\n  dup2\n  mstore\n  pop\n  dup2\n  mstore\n  0x20\n  add\n  mload(0x40)\n  dup1\n  0x40\n  add\n  0x40\n  mstore\n  dup1\n  0x06\n  dup2\n  mstore\n  0x20\n  add\n  0x4d6f73636f770000000000000000000000000000000000000000000000000000\n  dup2\n  mstore\n  pop\n  dup2\n  mstore\n  0x20\n  add\n    /* \"Documents/GitHub/Store-system-with-feedback/main.sol\":266:270  1000 */\n  0x03e8\n    /* \"Documents/GitHub/Store-system-with-feedback/main.sol\":232:274  structShop(\"Food\", \"1\", \"Moscow\", 1000, 0) */\n  dup2\n  mstore\n  0x20\n  add\n    /* \"Documents/GitHub/Store-system-with-feedback/main.sol\":272:273  0 */\n  0x00\n    /* \"Documents/GitHub/Store-system-with-feedback/main.sol\":232:274  structShop(\"Food\", \"1\", \"Moscow\", 1000, 0) */\n  dup2\n  mstore\n  pop\n    /* \"Documents/GitHub/Store-system-with-feedback/main.sol\":180:185  shops */\n  0x00\n    /* \"Documents/GitHub/Store-system-with-feedback/main.sol\":180:229  shops[0x5B38Da6a701c568545dCfcB03FcB875f56beddC4] */\n  dup1\n    /* \"Documents/GitHub/Store-system-with-feedback/main.sol\":186:228  0x5B38Da6a701c568545dCfcB03FcB875f56beddC4 */\n  0x5b38da6a701c568545dcfcb03fcb875f56beddc4\n    /* \"Documents/GitHub/Store-system-with-feedback/main.sol\":180:229  shops[0x5B38Da6a701c568545dCfcB03FcB875f56beddC4] */\n  0xffffffffffffffffffffffffffffffffffffffff\n  and\n  0xffffffffffffffffffffffffffffffffffffffff\n  and\n  dup2\n  mstore\n  0x20\n  add\n  swap1\n  dup2\n  mstore\n  0x20\n  add\n  0x00\n  keccak256\n    /* \"Documents/GitHub/Store-system-with-feedback/main.sol\":180:274  shops[0x5B38Da6a701c568545dCfcB03FcB875f56beddC4] = structShop(\"Food\", \"1\", \"Moscow\", 1000, 0) */\n  0x00\n  dup3\n  add\n  mload\n  dup2\n  0x00\n  add\n  swap1\n  dup1\n  mload\n  swap1\n  0x20\n  add\n  swap1\n  tag_4\n  swap3\n  swap2\n  swap1\n  tag_5\n  jump\t// in\ntag_4:\n  pop\n  0x20\n  dup3\n  add\n  mload\n  dup2\n  0x01\n  add\n  swap1\n  dup1\n  mload\n  swap1\n  0x20\n  add\n  swap1\n  tag_6\n  swap3\n  swap2\n  swap1\n  tag_5\n  jump\t// in\ntag_6:\n  pop\n  0x40\n  dup3\n  add\n  mload\n  dup2\n  0x02\n  add\n  swap1\n  dup1\n  mload\n  swap1\n  0x20\n  add\n  swap1\n  tag_7\n  swap3\n  swap2\n  swap1\n  tag_5\n  jump\t// in\ntag_7:\n  pop\n  0x60\n  dup3\n  add\n  mload\n  dup2\n  0x03\n  add\n  sstore\n  0x80\n  dup3\n  add\n  mload\n  dup2\n  0x04\n  add\n  sstore\n  swap1\n  pop\n  pop\n    /* \"Documents/GitHub/Store-system-with-feedback/main.sol\":285:293  shopList */\n  0x02\n    /* \"Documents/GitHub/Store-system-with-feedback/main.sol\":299:304  shops */\n  0x00\n    /* \"Documents/GitHub/Store-system-with-feedback/main.sol\":299:348  shops[0x5B38Da6a701c568545dCfcB03FcB875f56beddC4] */\n  dup1\n    /* \"Documents/GitHub/Store-system-with-feedback/main.sol\":305:347  0x5B38Da6a701c568545dCfcB03FcB875f56beddC4 */\n  0x5b38da6a701c568545dcfcb03fcb875f56beddc4\n    /* \"Documents/GitHub/Store-system-with-feedback/main.sol\":299:348  shops[0x5B38Da6a701c568545dCfcB03FcB875f56beddC4] */\n  0xffffffffffffffffffffffffffffffffffffffff\n  and\n  0xffffffffffffffffffffffffffffffffffffffff\n  and\n  dup2\n  mstore\n  0x20\n  add\n  swap1\n  dup2\n  mstore\n  0x20\n  add\n  0x00\n  keccak256\n    /* \"Documents/GitHub/Store-system-with-feedback/main.sol\":299:353  shops[0x5B38Da6a701c568545dCfcB03FcB875f56beddC4].name */\n  0x00\n  add\n    /* \"Documents/GitHub/Store-system-with-feedback/main.sol\":285:354  shopList.push(shops[0x5B38Da6a701c568545dCfcB03FcB875f56beddC4].name) */\n  swap1\n  dup1\n  0x01\n  dup2\n  sload\n  add\n  dup1\n  dup3\n  sstore\n  dup1\n  swap2\n  pop\n  pop\n  0x01\n  swap1\n  sub\n  swap1\n  0x00\n  mstore\n  keccak256(0x00, 0x20)\n  add\n  0x00\n  swap1\n  swap2\n  swap1\n  swap2\n  swap1\n  swap2\n  pop\n  swap1\n  dup1\n  sload\n  tag_9\n  swap1\n  tag_10\n  jump\t// in\ntag_9:\n  tag_11\n  swap3\n  swap2\n  swap1\n  tag_12\n  jump\t// in\ntag_11:\n  pop\n    /* \"Documents/GitHub/Store-system-with-feedback/main.sol\":417:466  structShop(\"Clothes\", \"2\", \"Petersburg\", 1000, 0) */\n  mload(0x40)\n  dup1\n  0xa0\n  add\n  0x40\n  mstore\n  dup1\n  mload(0x40)\n  dup1\n  0x40\n  add\n  0x40\n  mstore\n  dup1\n  0x07\n  dup2\n  mstore\n  0x20\n  add\n  0x436c6f7468657300000000000000000000000000000000000000000000000000\n  dup2\n  mstore\n  pop\n  dup2\n  mstore\n  0x20\n  add\n  mload(0x40)\n  dup1\n  0x40\n  add\n  0x40\n  mstore\n  dup1\n  0x01\n  dup2\n  mstore\n  0x20\n  add\n  0x3200000000000000000000000000000000000000000000000000000000000000\n  dup2\n  mstore\n  pop\n  dup2\n  mstore\n  0x20\n  add\n  mload(0x40)\n  dup1\n  0x40\n  add\n  0x40\n  mstore\n  dup1\n  0x0a\n  dup2\n  mstore\n  0x20\n  add\n  0x5065746572736275726700000000000000000000000000000000000000000000\n  dup2\n  mstore\n  pop\n  dup2\n  mstore\n  0x20\n  add\n    /* \"Documents/GitHub/Store-system-with-feedback/main.sol\":458:462  1000 */\n  0x03e8\n    /* \"Documents/GitHub/Store-system-with-feedback/main.sol\":417:466  structShop(\"Clothes\", \"2\", \"Petersburg\", 1000, 0) */\n  dup2\n  mstore\n  0x20\n  add\n    /* \"Documents/GitHub/Store-system-with-feedback/main.sol\":464:465  0 */\n  0x00\n    /* \"Documents/GitHub/Store-system-with-feedback/main.sol\":417:466  structShop(\"Clothes\", \"2\", \"Petersburg\", 1000, 0) */\n  dup2\n  mstore\n  pop\n    /* \"Documents/GitHub/Store-system-with-feedback/main.sol\":365:370  shops */\n  0x00\n    /* \"Documents/GitHub/Store-system-with-feedback/main.sol\":365:414  shops[0xAb8483F64d9C6d1EcF9b849Ae677dD3315835cb2] */\n  dup1\n    /* \"Documents/GitHub/Store-system-with-feedback/main.sol\":371:413  0xAb8483F64d9C6d1EcF9b849Ae677dD3315835cb2 */\n  0xab8483f64d9c6d1ecf9b849ae677dd3315835cb2\n    /* \"Documents/GitHub/Store-system-with-feedback/main.sol\":365:414  shops[0xAb8483F64d9C6d1EcF9b849Ae677dD3315835cb2] */\n  0xffffffffffffffffffffffffffffffffffffffff\n  and\n  0xffffffffffffffffffffffffffffffffffffffff\n  and\n  dup2\n  mstore\n  0x20\n  add\n  swap1\n  dup2\n  mstore\n  0x20\n  add\n  0x00\n  keccak256\n    /* \"Documents/GitHub/Store-system-with-feedback/main.sol\":365:466  shops[0xAb8483F64d9C6d1EcF9b849Ae677dD3315835cb2] = structShop(\"Clothes\", \"2\", \"Petersburg\", 1000, 0) */\n  0x00\n  dup3\n  add\n  mload\n  dup2\n  0x00\n  add\n  swap1\n  dup1\n  mload\n  swap1\n  0x20\n  add\n  swap1\n  tag_13\n  swap3\n  swap2\n  swap1\n  tag_5\n  jump\t// in\ntag_13:\n  pop\n  0x20\n  dup3\n  add\n  mload\n  dup2\n  0x01\n  add\n  swap1\n  dup1\n  mload\n  swap1\n  0x20\n  add\n  swap1\n  tag_14\n  swap3\n  swap2\n  swap1\n  tag_5\n  jump\t// in\ntag_14:\n  pop\n  0x40\n  dup3\n  add\n  mload\n  dup2\n  0x02\n  add\n  swap1\n  dup1\n  mload\n  swap1\n  0x20\n  add\n  swap1\n  tag_15\n  swap3\n  swap2\n  swap1\n  tag_5\n  jump\t// in\ntag_15:\n  pop\n  0x60\n  dup3\n  add\n  mload\n  dup2\n  0x03\n  add\n  sstore\n  0x80\n  dup3\n  add\n  mload\n  dup2\n  0x04\n  add\n  sstore\n  swap1\n  pop\n  pop\n    /* \"Documents/GitHub/Store-system-with-feedback/main.sol\":477:485  shopList */\n  0x02\n    /* \"Documents/GitHub/Store-system-with-feedback/main.sol\":491:496  shops */\n  0x00\n    /* \"Documents/GitHub/Store-system-with-feedback/main.sol\":491:540  shops[0xAb8483F64d9C6d1EcF9b849Ae677dD3315835cb2] */\n  dup1\n    /* \"Documents/GitHub/Store-system-with-feedback/main.sol\":497:539  0xAb8483F64d9C6d1EcF9b849Ae677dD3315835cb2 */\n  0xab8483f64d9c6d1ecf9b849ae677dd3315835cb2\n    /* \"Documents/GitHub/Store-system-with-feedback/main.sol\":491:540  shops[0xAb8483F64d9C6d1EcF9b849Ae677dD3315835cb2] */\n  0xffffffffffffffffffffffffffffffffffffffff\n  and\n  0xffffffffffffffffffffffffffffffffffffffff\n  and\n  dup2\n  mstore\n  0x20\n  add\n  swap1\n  dup2\n  mstore\n  0x20\n  add\n  0x00\n  keccak256\n    /* \"Documents/GitHub/Store-system-with-feedback/main.sol\":491:545  shops[0xAb8483F64d9C6d1EcF9b849Ae677dD3315835cb2].name */\n  0x00\n  add\n    /* \"Documents/GitHub/Store-system-with-feedback/main.sol\":477:546  shopList.push(shops[0xAb8483F64d9C6d1EcF9b849Ae677dD3315835cb2].name) */\n  swap1\n  dup1\n  0x01\n  dup2\n  sload\n  add\n  dup1\n  dup3\n  sstore\n  dup1\n  swap2\n  pop\n  pop\n  0x01\n  swap1\n  sub\n  swap1\n  0x00\n  mstore\n  keccak256(0x00, 0x20)\n  add\n  0x00\n  swap1\n  swap2\n  swap1\n  swap2\n  swap1\n  swap2\n  pop\n  swap1\n  dup1\n  sload\n  tag_17\n  swap1\n  tag_10\n  jump\t// in\ntag_17:\n  tag_18\n  swap3\n  swap2\n  swap1\n  tag_12\n  jump\t// in\ntag_18:\n  pop\n    /* \"Documents/GitHub/Store-system-with-feedback/main.sol\":609:662  structShop(\"Pet Store\", \"3\", \"Ekaterinburg\", 1000, 0) */\n  mload(0x40)\n  dup1\n  0xa0\n  add\n  0x40\n  mstore\n  dup1\n  mload(0x40)\n  dup1\n  0x40\n  add\n  0x40\n  mstore\n  dup1\n  0x09\n  dup2\n  mstore\n  0x20\n  add\n  0x5065742053746f72650000000000000000000000000000000000000000000000\n  dup2\n  mstore\n  pop\n  dup2\n  mstore\n  0x20\n  add\n  mload(0x40)\n  dup1\n  0x40\n  add\n  0x40\n  mstore\n  dup1\n  0x01\n  dup2\n  mstore\n  0x20\n  add\n  0x3300000000000000000000000000000000000000000000000000000000000000\n  dup2\n  mstore\n  pop\n  dup2\n  mstore\n  0x20\n  add\n  mload(0x40)\n  dup1\n  0x40\n  add\n  0x40\n  mstore\n  dup1\n  0x0c\n  dup2\n  mstore\n  0x20\n  add\n  0x456b61746572696e627572670000000000000000000000000000000000000000\n  dup2\n  mstore\n  pop\n  dup2\n  mstore\n  0x20\n  add\n    /* \"Documents/GitHub/Store-system-with-feedback/main.sol\":654:658  1000 */\n  0x03e8\n    /* \"Documents/GitHub/Store-system-with-feedback/main.sol\":609:662  structShop(\"Pet Store\", \"3\", \"Ekaterinburg\", 1000, 0) */\n  dup2\n  mstore\n  0x20\n  add\n    /* \"Documents/GitHub/Store-system-with-feedback/main.sol\":660:661  0 */\n  0x00\n    /* \"Documents/GitHub/Store-system-with-feedback/main.sol\":609:662  structShop(\"Pet Store\", \"3\", \"Ekaterinburg\", 1000, 0) */\n  dup2\n  mstore\n  pop\n    /* \"Documents/GitHub/Store-system-with-feedback/main.sol\":557:562  shops */\n  0x00\n    /* \"Documents/GitHub/Store-system-with-feedback/main.sol\":557:606  shops[0x4B20993Bc481177ec7E8f571ceCaE8A9e22C02db] */\n  dup1\n    /* \"Documents/GitHub/Store-system-with-feedback/main.sol\":563:605  0x4B20993Bc481177ec7E8f571ceCaE8A9e22C02db */\n  0x4b20993bc481177ec7e8f571cecae8a9e22c02db\n    /* \"Documents/GitHub/Store-system-with-feedback/main.sol\":557:606  shops[0x4B20993Bc481177ec7E8f571ceCaE8A9e22C02db] */\n  0xffffffffffffffffffffffffffffffffffffffff\n  and\n  0xffffffffffffffffffffffffffffffffffffffff\n  and\n  dup2\n  mstore\n  0x20\n  add\n  swap1\n  dup2\n  mstore\n  0x20\n  add\n  0x00\n  keccak256\n    /* \"Documents/GitHub/Store-system-with-feedback/main.sol\":557:662  shops[0x4B20993Bc481177ec7E8f571ceCaE8A9e22C02db] = structShop(\"Pet Store\", \"3\", \"Ekaterinburg\", 1000, 0) */\n  0x00\n  dup3\n  add\n  mload\n  dup2\n  0x00\n  add\n  swap1\n  dup1\n  mload\n  swap1\n  0x20\n  add\n  swap1\n  tag_19\n  swap3\n  swap2\n  swap1\n  tag_5\n  jump\t// in\ntag_19:\n  pop\n  0x20\n  dup3\n  add\n  mload\n  dup2\n  0x01\n  add\n  swap1\n  dup1\n  mload\n  swap1\n  0x20\n  add\n  swap1\n  tag_20\n  swap3\n  swap2\n  swap1\n  tag_5\n  jump\t// in\ntag_20:\n  pop\n  0x40\n  dup3\n  add\n  mload\n  dup2\n  0x02\n  add\n  swap1\n  dup1\n  mload\n  swap1\n  0x20\n  add\n  swap1\n  tag_21\n  swap3\n  swap2\n  swap1\n  tag_5\n  jump\t// in\ntag_21:\n  pop\n  0x60\n  dup3\n  add\n  mload\n  dup2\n  0x03\n  add\n  sstore\n  0x80\n  dup3\n  add\n  mload\n  dup2\n  0x04\n  add\n  sstore\n  swap1\n  pop\n  pop\n    /* \"Documents/GitHub/Store-system-with-feedback/main.sol\":673:681  shopList */\n  0x02\n    /* \"Documents/GitHub/Store-system-with-feedback/main.sol\":687:692  shops */\n  0x00\n    /* \"Documents/GitHub/Store-system-with-feedback/main.sol\":687:736  shops[0x4B20993Bc481177ec7E8f571ceCaE8A9e22C02db] */\n  dup1\n    /* \"Documents/GitHub/Store-system-with-feedback/main.sol\":693:735  0x4B20993Bc481177ec7E8f571ceCaE8A9e22C02db */\n  0x4b20993bc481177ec7e8f571cecae8a9e22c02db\n    /* \"Documents/GitHub/Store-system-with-feedback/main.sol\":687:736  shops[0x4B20993Bc481177ec7E8f571ceCaE8A9e22C02db] */\n  0xffffffffffffffffffffffffffffffffffffffff\n  and\n  0xffffffffffffffffffffffffffffffffffffffff\n  and\n  dup2\n  mstore\n  0x20\n  add\n  swap1\n  dup2\n  mstore\n  0x20\n  add\n  0x00\n  keccak256\n    /* \"Documents/GitHub/Store-system-with-feedback/main.sol\":687:741  shops[0x4B20993Bc481177ec7E8f571ceCaE8A9e22C02db].name */\n  0x00\n  add\n    /* \"Documents/GitHub/Store-system-with-feedback/main.sol\":673:742  shopList.push(shops[0x4B20993Bc481177ec7E8f571ceCaE8A9e22C02db].name) */\n  swap1\n  dup1\n  0x01\n  dup2\n  sload\n  add\n  dup1\n  dup3\n  sstore\n  dup1\n  swap2\n  pop\n  pop\n  0x01\n  swap1\n  sub\n  swap1\n  0x00\n  mstore\n  keccak256(0x00, 0x20)\n  add\n  0x00\n  swap1\n  swap2\n  swap1\n  swap2\n  swap1\n  swap2\n  pop\n  swap1\n  dup1\n  sload\n  tag_23\n  swap1\n  tag_10\n  jump\t// in\ntag_23:\n  tag_24\n  swap3\n  swap2\n  swap1\n  tag_12\n  jump\t// in\ntag_24:\n  pop\n    /* \"Documents/GitHub/Store-system-with-feedback/main.sol\":800:842  0x78731D3Ca6b7E34aC0F824c42a7cC18A495cabaB */\n  0x78731d3ca6b7e34ac0f824c42a7cc18a495cabab\n    /* \"Documents/GitHub/Store-system-with-feedback/main.sol\":773:789  structUserLogins */\n  0x05\n    /* \"Documents/GitHub/Store-system-with-feedback/main.sol\":773:797  structUserLogins[\"Peta\"] */\n  mload(0x40)\n  tag_25\n  swap1\n  tag_26\n  jump\t// in\ntag_25:\n  swap1\n  dup2\n  mstore\n  0x20\n  add\n  mload(0x40)\n  dup1\n  swap2\n  sub\n  swap1\n  keccak256\n  0x00\n    /* \"Documents/GitHub/Store-system-with-feedback/main.sol\":773:842  structUserLogins[\"Peta\"] = 0x78731D3Ca6b7E34aC0F824c42a7cC18A495cabaB */\n  0x0100\n  exp\n  dup2\n  sload\n  dup2\n  0xffffffffffffffffffffffffffffffffffffffff\n  mul\n  not\n  and\n  swap1\n  dup4\n  0xffffffffffffffffffffffffffffffffffffffff\n  and\n  mul\n  or\n  swap1\n  sstore\n  pop\n    /* \"Documents/GitHub/Store-system-with-feedback/main.sol\":911:938  structUser(\"Peta\" ,1, 1000) */\n  mload(0x40)\n  dup1\n  0x60\n  add\n  0x40\n  mstore\n  dup1\n  mload(0x40)\n  dup1\n  0x40\n  add\n  0x40\n  mstore\n  dup1\n  0x04\n  dup2\n  mstore\n  0x20\n  add\n  0x5065746100000000000000000000000000000000000000000000000000000000\n  dup2\n  mstore\n  pop\n  dup2\n  mstore\n  0x20\n  add\n    /* \"Documents/GitHub/Store-system-with-feedback/main.sol\":930:931  1 */\n  0x01\n    /* \"Documents/GitHub/Store-system-with-feedback/main.sol\":911:938  structUser(\"Peta\" ,1, 1000) */\n  dup2\n  mstore\n  0x20\n  add\n    /* \"Documents/GitHub/Store-system-with-feedback/main.sol\":933:937  1000 */\n  0x03e8\n    /* \"Documents/GitHub/Store-system-with-feedback/main.sol\":911:938  structUser(\"Peta\" ,1, 1000) */\n  dup2\n  mstore\n  pop\n    /* \"Documents/GitHub/Store-system-with-feedback/main.sol\":853:864  structUsers */\n  0x04\n    /* \"Documents/GitHub/Store-system-with-feedback/main.sol\":853:908  structUsers[0x78731D3Ca6b7E34aC0F824c42a7cC18A495cabaB] */\n  0x00\n    /* \"Documents/GitHub/Store-system-with-feedback/main.sol\":865:907  0x78731D3Ca6b7E34aC0F824c42a7cC18A495cabaB */\n  0x78731d3ca6b7e34ac0f824c42a7cc18a495cabab\n    /* \"Documents/GitHub/Store-system-with-feedback/main.sol\":853:908  structUsers[0x78731D3Ca6b7E34aC0F824c42a7cC18A495cabaB] */\n  0xffffffffffffffffffffffffffffffffffffffff\n  and\n  0xffffffffffffffffffffffffffffffffffffffff\n  and\n  dup2\n  mstore\n  0x20\n  add\n  swap1\n  dup2\n  mstore\n  0x20\n  add\n  0x00\n  keccak256\n    /* \"Documents/GitHub/Store-system-with-feedback/main.sol\":853:938  structUsers[0x78731D3Ca6b7E34aC0F824c42a7cC18A495cabaB] = structUser(\"Peta\" ,1, 1000) */\n  0x00\n  dup3\n  add\n  mload\n  dup2\n  0x00\n  add\n  swap1\n  dup1\n  mload\n  swap1\n  0x20\n  add\n  swap1\n  tag_27\n  swap3\n  swap2\n  swap1\n  tag_5\n  jump\t// in\ntag_27:\n  pop\n  0x20\n  dup3\n  add\n  mload\n  dup2\n  0x01\n  add\n  sstore\n  0x40\n  dup3\n  add\n  mload\n  dup2\n  0x02\n  add\n  sstore\n  swap1\n  pop\n  pop\n    /* \"Documents/GitHub/Store-system-with-feedback/main.sol\":949:964  userLoginsArray */\n  0x06\n    /* \"Documents/GitHub/Store-system-with-feedback/main.sol\":949:977  userLoginsArray.push(\"Peta\") */\n  dup1\n  0x01\n  dup2\n  sload\n  add\n  dup1\n  dup3\n  sstore\n  dup1\n  swap2\n  pop\n  pop\n  0x01\n  swap1\n  sub\n  swap1\n  0x00\n  mstore\n  keccak256(0x00, 0x20)\n  add\n  0x00\n  mload(0x40)\n  dup1\n  0x40\n  add\n  0x40\n  mstore\n  dup1\n  0x04\n  dup2\n  mstore\n  0x20\n  add\n  0x5065746100000000000000000000000000000000000000000000000000000000\n  dup2\n  mstore\n  pop\n  swap1\n  swap2\n  swap1\n  swap2\n  pop\n  swap1\n  dup1\n  mload\n  swap1\n  0x20\n  add\n  swap1\n  tag_29\n  swap3\n  swap2\n  swap1\n  tag_5\n  jump\t// in\ntag_29:\n  pop\n    /* \"Documents/GitHub/Store-system-with-feedback/main.sol\":74:6480  contract coursepaper {\r... */\n  jump(tag_30)\ntag_5:\n  dup3\n  dup1\n  sload\n  tag_31\n  swap1\n  tag_10\n  jump\t// in\ntag_31:\n  swap1\n  0x00\n  mstore\n  keccak256(0x00, 0x20)\n  swap1\n  0x1f\n  add\n  0x20\n  swap1\n  div\n  dup2\n  add\n  swap3\n  dup3\n  tag_33\n  jumpi\n  0x00\n  dup6\n  sstore\n  jump(tag_32)\ntag_33:\n  dup3\n  0x1f\n  lt\n  tag_34\n  jumpi\n  dup1\n  mload\n  not(0xff)\n  and\n  dup4\n  dup1\n  add\n  or\n  dup6\n  sstore\n  jump(tag_32)\ntag_34:\n  dup3\n  dup1\n  add\n  0x01\n  add\n  dup6\n  sstore\n  dup3\n  iszero\n  tag_32\n  jumpi\n  swap2\n  dup3\n  add\ntag_35:\n  dup3\n  dup2\n  gt\n  iszero\n  tag_36\n  jumpi\n  dup3\n  mload\n  dup3\n  sstore\n  swap2\n  0x20\n  add\n  swap2\n  swap1\n  0x01\n  add\n  swap1\n  jump(tag_35)\ntag_36:\ntag_32:\n  pop\n  swap1\n  pop\n  tag_37\n  swap2\n  swap1\n  tag_38\n  jump\t// in\ntag_37:\n  pop\n  swap1\n  jump\t// out\ntag_12:\n  dup3\n  dup1\n  sload\n  tag_39\n  swap1\n  tag_10\n  jump\t// in\ntag_39:\n  swap1\n  0x00\n  mstore\n  keccak256(0x00, 0x20)\n  swap1\n  0x1f\n  add\n  0x20\n  swap1\n  div\n  dup2\n  add\n  swap3\n  dup3\n  tag_41\n  jumpi\n  0x00\n  dup6\n  sstore\n  jump(tag_40)\ntag_41:\n  dup3\n  0x1f\n  lt\n  tag_42\n  jumpi\n  dup1\n  sload\n  dup6\n  sstore\n  jump(tag_40)\ntag_42:\n  dup3\n  dup1\n  add\n  0x01\n  add\n  dup6\n  sstore\n  dup3\n  iszero\n  tag_40\n  jumpi\n  0x00\n  mstore\n  keccak256(0x00, 0x20)\n  swap2\n  0x1f\n  add\n  0x20\n  swap1\n  div\n  dup3\n  add\ntag_43:\n  dup3\n  dup2\n  gt\n  iszero\n  tag_44\n  jumpi\n  dup3\n  sload\n  dup3\n  sstore\n  swap2\n  0x01\n  add\n  swap2\n  swap1\n  0x01\n  add\n  swap1\n  jump(tag_43)\ntag_44:\ntag_40:\n  pop\n  swap1\n  pop\n  tag_45\n  swap2\n  swap1\n  tag_38\n  jump\t// in\ntag_45:\n  pop\n  swap1\n  jump\t// out\ntag_38:\ntag_46:\n  dup1\n  dup3\n  gt\n  iszero\n  tag_47\n  jumpi\n  0x00\n  dup2\n  0x00\n  swap1\n  sstore\n  pop\n  0x01\n  add\n  jump(tag_46)\ntag_47:\n  pop\n  swap1\n  jump\t// out\n    /* \"#utility.yul\":7:407   */\ntag_49:\n    /* \"#utility.yul\":167:170   */\n  0x00\n    /* \"#utility.yul\":188:272   */\n  tag_51\n    /* \"#utility.yul\":270:271   */\n  0x04\n    /* \"#utility.yul\":265:268   */\n  dup4\n    /* \"#utility.yul\":188:272   */\n  tag_52\n  jump\t// in\ntag_51:\n    /* \"#utility.yul\":181:272   */\n  swap2\n  pop\n    /* \"#utility.yul\":281:374   */\n  tag_53\n    /* \"#utility.yul\":370:373   */\n  dup3\n    /* \"#utility.yul\":281:374   */\n  tag_54\n  jump\t// in\ntag_53:\n    /* \"#utility.yul\":399:400   */\n  0x04\n    /* \"#utility.yul\":394:397   */\n  dup3\n    /* \"#utility.yul\":390:401   */\n  add\n    /* \"#utility.yul\":383:401   */\n  swap1\n  pop\n    /* \"#utility.yul\":7:407   */\n  swap2\n  swap1\n  pop\n  jump\t// out\n    /* \"#utility.yul\":413:794   */\ntag_26:\n    /* \"#utility.yul\":598:601   */\n  0x00\n    /* \"#utility.yul\":620:768   */\n  tag_56\n    /* \"#utility.yul\":764:767   */\n  dup3\n    /* \"#utility.yul\":620:768   */\n  tag_49\n  jump\t// in\ntag_56:\n    /* \"#utility.yul\":613:768   */\n  swap2\n  pop\n    /* \"#utility.yul\":785:788   */\n  dup2\n    /* \"#utility.yul\":778:788   */\n  swap1\n  pop\n    /* \"#utility.yul\":413:794   */\n  swap2\n  swap1\n  pop\n  jump\t// out\n    /* \"#utility.yul\":800:948   */\ntag_52:\n    /* \"#utility.yul\":902:913   */\n  0x00\n    /* \"#utility.yul\":939:942   */\n  dup2\n    /* \"#utility.yul\":924:942   */\n  swap1\n  pop\n    /* \"#utility.yul\":800:948   */\n  swap3\n  swap2\n  pop\n  pop\n  jump\t// out\n    /* \"#utility.yul\":954:1274   */\ntag_10:\n    /* \"#utility.yul\":998:1004   */\n  0x00\n    /* \"#utility.yul\":1035:1036   */\n  0x02\n    /* \"#utility.yul\":1029:1033   */\n  dup3\n    /* \"#utility.yul\":1025:1037   */\n  div\n    /* \"#utility.yul\":1015:1037   */\n  swap1\n  pop\n    /* \"#utility.yul\":1082:1083   */\n  0x01\n    /* \"#utility.yul\":1076:1080   */\n  dup3\n    /* \"#utility.yul\":1072:1084   */\n  and\n    /* \"#utility.yul\":1103:1121   */\n  dup1\n    /* \"#utility.yul\":1093:1174   */\n  tag_59\n  jumpi\n    /* \"#utility.yul\":1159:1163   */\n  0x7f\n    /* \"#utility.yul\":1151:1157   */\n  dup3\n    /* \"#utility.yul\":1147:1164   */\n  and\n    /* \"#utility.yul\":1137:1164   */\n  swap2\n  pop\n    /* \"#utility.yul\":1093:1174   */\ntag_59:\n    /* \"#utility.yul\":1221:1223   */\n  0x20\n    /* \"#utility.yul\":1213:1219   */\n  dup3\n    /* \"#utility.yul\":1210:1224   */\n  lt\n    /* \"#utility.yul\":1190:1208   */\n  dup2\n    /* \"#utility.yul\":1187:1225   */\n  eq\n    /* \"#utility.yul\":1184:1268   */\n  iszero\n  tag_60\n  jumpi\n    /* \"#utility.yul\":1240:1258   */\n  tag_61\n  tag_62\n  jump\t// in\ntag_61:\n    /* \"#utility.yul\":1184:1268   */\ntag_60:\n    /* \"#utility.yul\":1005:1274   */\n  pop\n    /* \"#utility.yul\":954:1274   */\n  swap2\n  swap1\n  pop\n  jump\t// out\n    /* \"#utility.yul\":1280:1460   */\ntag_62:\n    /* \"#utility.yul\":1328:1405   */\n  0x4e487b7100000000000000000000000000000000000000000000000000000000\n    /* \"#utility.yul\":1325:1326   */\n  0x00\n    /* \"#utility.yul\":1318:1406   */\n  mstore\n    /* \"#utility.yul\":1425:1429   */\n  0x22\n    /* \"#utility.yul\":1422:1423   */\n  0x04\n    /* \"#utility.yul\":1415:1430   */\n  mstore\n    /* \"#utility.yul\":1449:1453   */\n  0x24\n    /* \"#utility.yul\":1446:1447   */\n  0x00\n    /* \"#utility.yul\":1439:1454   */\n  revert\n    /* \"#utility.yul\":1466:1620   */\ntag_54:\n    /* \"#utility.yul\":1606:1612   */\n  0x5065746100000000000000000000000000000000000000000000000000000000\n    /* \"#utility.yul\":1602:1603   */\n  0x00\n    /* \"#utility.yul\":1594:1600   */\n  dup3\n    /* \"#utility.yul\":1590:1604   */\n  add\n    /* \"#utility.yul\":1583:1613   */\n  mstore\n    /* \"#utility.yul\":1466:1620   */\n  pop\n  jump\t// out\n    /* \"Documents/GitHub/Store-system-with-feedback/main.sol\":74:6480  contract coursepaper {\r... */\ntag_30:\n  dataSize(sub_0)\n  dup1\n  dataOffset(sub_0)\n  0x00\n  codecopy\n  0x00\n  return\nstop\n\nsub_0: assembly {\n        /* \"Documents/GitHub/Store-system-with-feedback/main.sol\":74:6480  contract coursepaper {\r... */\n      mstore(0x40, 0x80)\n      callvalue\n      dup1\n      iszero\n      tag_1\n      jumpi\n      0x00\n      dup1\n      revert\n    tag_1:\n      pop\n      jumpi(tag_2, lt(calldatasize, 0x04))\n      shr(0xe0, calldataload(0x00))\n      dup1\n      0xa9f9482b\n      gt\n      tag_21\n      jumpi\n      dup1\n      0xcc21c188\n      gt\n      tag_22\n      jumpi\n      dup1\n      0xcc21c188\n      eq\n      tag_16\n      jumpi\n      dup1\n      0xd68cf8c1\n      eq\n      tag_17\n      jumpi\n      dup1\n      0xdce39151\n      eq\n      tag_18\n      jumpi\n      dup1\n      0xf69483c1\n      eq\n      tag_19\n      jumpi\n      dup1\n      0xfc675c6c\n      eq\n      tag_20\n      jumpi\n      jump(tag_2)\n    tag_22:\n      dup1\n      0xa9f9482b\n      eq\n      tag_12\n      jumpi\n      dup1\n      0xbbd43363\n      eq\n      tag_13\n      jumpi\n      dup1\n      0xc178b9af\n      eq\n      tag_14\n      jumpi\n      dup1\n      0xc4957fa0\n      eq\n      tag_15\n      jumpi\n      jump(tag_2)\n    tag_21:\n      dup1\n      0x2d4673e3\n      gt\n      tag_23\n      jumpi\n      dup1\n      0x2d4673e3\n      eq\n      tag_7\n      jumpi\n      dup1\n      0x34d2c0ad\n      eq\n      tag_8\n      jumpi\n      dup1\n      0x6c05dd1d\n      eq\n      tag_9\n      jumpi\n      dup1\n      0x7ddb273d\n      eq\n      tag_10\n      jumpi\n      dup1\n      0x961865f0\n      eq\n      tag_11\n      jumpi\n      jump(tag_2)\n    tag_23:\n      dup1\n      0x0c72b1ec\n      eq\n      tag_3\n      jumpi\n      dup1\n      0x146dc6ed\n      eq\n      tag_4\n      jumpi\n      dup1\n      0x1bbe970a\n      eq\n      tag_5\n      jumpi\n      dup1\n      0x2ccdef7c\n      eq\n      tag_6\n      jumpi\n    tag_2:\n      0x00\n      dup1\n      revert\n        /* \"Documents/GitHub/Store-system-with-feedback/main.sol\":3648:4276  function acceptPurchase (uint idPurchase, bool confirmation) public {\r... */\n    tag_3:\n      tag_24\n      0x04\n      dup1\n      calldatasize\n      sub\n      dup2\n      add\n      swap1\n      tag_25\n      swap2\n      swap1\n      tag_26\n      jump\t// in\n    tag_25:\n      tag_27\n      jump\t// in\n    tag_24:\n      stop\n        /* \"Documents/GitHub/Store-system-with-feedback/main.sol\":5756:6027  function productPurchases (string memory titleProduct) public {\r... */\n    tag_4:\n      tag_28\n      0x04\n      dup1\n      calldatasize\n      sub\n      dup2\n      add\n      swap1\n      tag_29\n      swap2\n      swap1\n      tag_30\n      jump\t// in\n    tag_29:\n      tag_31\n      jump\t// in\n    tag_28:\n      stop\n        /* \"Documents/GitHub/Store-system-with-feedback/main.sol\":1794:1844  mapping(string => address) public structUserLogins */\n    tag_5:\n      tag_32\n      0x04\n      dup1\n      calldatasize\n      sub\n      dup2\n      add\n      swap1\n      tag_33\n      swap2\n      swap1\n      tag_30\n      jump\t// in\n    tag_33:\n      tag_34\n      jump\t// in\n    tag_32:\n      mload(0x40)\n      tag_35\n      swap2\n      swap1\n      tag_36\n      jump\t// in\n    tag_35:\n      mload(0x40)\n      dup1\n      swap2\n      sub\n      swap1\n      return\n        /* \"Documents/GitHub/Store-system-with-feedback/main.sol\":4321:4782  function acceptReturn(uint idReturn, bool confirmation) public {\r... */\n    tag_6:\n      tag_37\n      0x04\n      dup1\n      calldatasize\n      sub\n      dup2\n      add\n      swap1\n      tag_38\n      swap2\n      swap1\n      tag_26\n      jump\t// in\n    tag_38:\n      tag_39\n      jump\t// in\n    tag_37:\n      stop\n        /* \"Documents/GitHub/Store-system-with-feedback/main.sol\":6266:6450  function productMarriageRegistration (string memory titleProduct) public {\r... */\n    tag_7:\n      tag_40\n      0x04\n      dup1\n      calldatasize\n      sub\n      dup2\n      add\n      swap1\n      tag_41\n      swap2\n      swap1\n      tag_30\n      jump\t// in\n    tag_41:\n      tag_42\n      jump\t// in\n    tag_40:\n      stop\n        /* \"Documents/GitHub/Store-system-with-feedback/main.sol\":5570:5671  function getProductList() public view returns(string[] memory) {\r... */\n    tag_8:\n      tag_43\n      tag_44\n      jump\t// in\n    tag_43:\n      mload(0x40)\n      tag_45\n      swap2\n      swap1\n      tag_46\n      jump\t// in\n    tag_45:\n      mload(0x40)\n      dup1\n      swap2\n      sub\n      swap1\n      return\n        /* \"Documents/GitHub/Store-system-with-feedback/main.sol\":2893:3174  function addProductShop (string memory title, uint256 price, string memory description) public {\r... */\n    tag_9:\n      tag_47\n      0x04\n      dup1\n      calldatasize\n      sub\n      dup2\n      add\n      swap1\n      tag_48\n      swap2\n      swap1\n      tag_49\n      jump\t// in\n    tag_48:\n      tag_50\n      jump\t// in\n    tag_47:\n      stop\n        /* \"Documents/GitHub/Store-system-with-feedback/main.sol\":2708:2771  structMarriageRegistration[] public structMarriageRegistrations */\n    tag_10:\n      tag_51\n      0x04\n      dup1\n      calldatasize\n      sub\n      dup2\n      add\n      swap1\n      tag_52\n      swap2\n      swap1\n      tag_53\n      jump\t// in\n    tag_52:\n      tag_54\n      jump\t// in\n    tag_51:\n      mload(0x40)\n      tag_55\n      swap4\n      swap3\n      swap2\n      swap1\n      tag_56\n      jump\t// in\n    tag_55:\n      mload(0x40)\n      dup1\n      swap2\n      sub\n      swap1\n      return\n        /* \"Documents/GitHub/Store-system-with-feedback/main.sol\":1738:1787  mapping(address => structUser) public structUsers */\n    tag_11:\n      tag_57\n      0x04\n      dup1\n      calldatasize\n      sub\n      dup2\n      add\n      swap1\n      tag_58\n      swap2\n      swap1\n      tag_59\n      jump\t// in\n    tag_58:\n      tag_60\n      jump\t// in\n    tag_57:\n      mload(0x40)\n      tag_61\n      swap4\n      swap3\n      swap2\n      swap1\n      tag_62\n      jump\t// in\n    tag_61:\n      mload(0x40)\n      dup1\n      swap2\n      sub\n      swap1\n      return\n        /* \"Documents/GitHub/Store-system-with-feedback/main.sol\":2488:2535  structStatusReturn[] public structStatusReturns */\n    tag_12:\n      tag_63\n      0x04\n      dup1\n      calldatasize\n      sub\n      dup2\n      add\n      swap1\n      tag_64\n      swap2\n      swap1\n      tag_53\n      jump\t// in\n    tag_64:\n      tag_65\n      jump\t// in\n    tag_63:\n      mload(0x40)\n      tag_66\n      swap4\n      swap3\n      swap2\n      swap1\n      tag_56\n      jump\t// in\n    tag_66:\n      mload(0x40)\n      dup1\n      swap2\n      sub\n      swap1\n      return\n        /* \"Documents/GitHub/Store-system-with-feedback/main.sol\":6066:6220  function productReturn (string memory titleProduct) public {\r... */\n    tag_13:\n      tag_67\n      0x04\n      dup1\n      calldatasize\n      sub\n      dup2\n      add\n      swap1\n      tag_68\n      swap2\n      swap1\n      tag_30\n      jump\t// in\n    tag_68:\n      tag_69\n      jump\t// in\n    tag_67:\n      stop\n        /* \"Documents/GitHub/Store-system-with-feedback/main.sol\":5439:5534  function getShopList() public view returns(string[] memory) {\r... */\n    tag_14:\n      tag_70\n      tag_71\n      jump\t// in\n    tag_70:\n      mload(0x40)\n      tag_72\n      swap2\n      swap1\n      tag_46\n      jump\t// in\n    tag_72:\n      mload(0x40)\n      dup1\n      swap2\n      sub\n      swap1\n      return\n        /* \"Documents/GitHub/Store-system-with-feedback/main.sol\":1297:1340  mapping(string => address) public shopLists */\n    tag_15:\n      tag_73\n      0x04\n      dup1\n      calldatasize\n      sub\n      dup2\n      add\n      swap1\n      tag_74\n      swap2\n      swap1\n      tag_30\n      jump\t// in\n    tag_74:\n      tag_75\n      jump\t// in\n    tag_73:\n      mload(0x40)\n      tag_76\n      swap2\n      swap1\n      tag_36\n      jump\t// in\n    tag_76:\n      mload(0x40)\n      dup1\n      swap2\n      sub\n      swap1\n      return\n        /* \"Documents/GitHub/Store-system-with-feedback/main.sol\":3219:3601  function leaveFeedback (string memory shop, string memory feedback, uint256 rating) public {\r... */\n    tag_16:\n      tag_77\n      0x04\n      dup1\n      calldatasize\n      sub\n      dup2\n      add\n      swap1\n      tag_78\n      swap2\n      swap1\n      tag_79\n      jump\t// in\n    tag_78:\n      tag_80\n      jump\t// in\n    tag_77:\n      stop\n        /* \"Documents/GitHub/Store-system-with-feedback/main.sol\":2037:2091  mapping(string => structProduct) public structProducts */\n    tag_17:\n      tag_81\n      0x04\n      dup1\n      calldatasize\n      sub\n      dup2\n      add\n      swap1\n      tag_82\n      swap2\n      swap1\n      tag_30\n      jump\t// in\n    tag_82:\n      tag_83\n      jump\t// in\n    tag_81:\n      mload(0x40)\n      tag_84\n      swap5\n      swap4\n      swap3\n      swap2\n      swap1\n      tag_85\n      jump\t// in\n    tag_84:\n      mload(0x40)\n      dup1\n      swap2\n      sub\n      swap1\n      return\n        /* \"Documents/GitHub/Store-system-with-feedback/main.sol\":2280:2331  structStatusPurchase[] public structStatusPurchases */\n    tag_18:\n      tag_86\n      0x04\n      dup1\n      calldatasize\n      sub\n      dup2\n      add\n      swap1\n      tag_87\n      swap2\n      swap1\n      tag_53\n      jump\t// in\n    tag_87:\n      tag_88\n      jump\t// in\n    tag_86:\n      mload(0x40)\n      tag_89\n      swap4\n      swap3\n      swap2\n      swap1\n      tag_56\n      jump\t// in\n    tag_89:\n      mload(0x40)\n      dup1\n      swap2\n      sub\n      swap1\n      return\n        /* \"Documents/GitHub/Store-system-with-feedback/main.sol\":4828:5405  function MarriageRegistration(uint idMarriageRegistration, bool confirmation) public {\r... */\n    tag_19:\n      tag_90\n      0x04\n      dup1\n      calldatasize\n      sub\n      dup2\n      add\n      swap1\n      tag_91\n      swap2\n      swap1\n      tag_26\n      jump\t// in\n    tag_91:\n      tag_92\n      jump\t// in\n    tag_90:\n      stop\n        /* \"Documents/GitHub/Store-system-with-feedback/main.sol\":1538:1592  mapping(string => complaintBook) public complaintBooks */\n    tag_20:\n      tag_93\n      0x04\n      dup1\n      calldatasize\n      sub\n      dup2\n      add\n      swap1\n      tag_94\n      swap2\n      swap1\n      tag_30\n      jump\t// in\n    tag_94:\n      tag_95\n      jump\t// in\n    tag_93:\n      mload(0x40)\n      tag_96\n      swap3\n      swap2\n      swap1\n      tag_97\n      jump\t// in\n    tag_96:\n      mload(0x40)\n      dup1\n      swap2\n      sub\n      swap1\n      return\n        /* \"Documents/GitHub/Store-system-with-feedback/main.sol\":3648:4276  function acceptPurchase (uint idPurchase, bool confirmation) public {\r... */\n    tag_27:\n        /* \"Documents/GitHub/Store-system-with-feedback/main.sol\":3747:3751  true */\n      0x01\n        /* \"Documents/GitHub/Store-system-with-feedback/main.sol\":3731:3751  confirmation == true */\n      iszero\n      iszero\n        /* \"Documents/GitHub/Store-system-with-feedback/main.sol\":3731:3743  confirmation */\n      dup2\n        /* \"Documents/GitHub/Store-system-with-feedback/main.sol\":3731:3751  confirmation == true */\n      iszero\n      iszero\n      eq\n        /* \"Documents/GitHub/Store-system-with-feedback/main.sol\":3727:4269  if (confirmation == true) {\r... */\n      iszero\n      tag_99\n      jumpi\n        /* \"Documents/GitHub/Store-system-with-feedback/main.sol\":3811:3816  false */\n      0x00\n        /* \"Documents/GitHub/Store-system-with-feedback/main.sol\":3768:3789  structStatusPurchases */\n      0x09\n        /* \"Documents/GitHub/Store-system-with-feedback/main.sol\":3790:3800  idPurchase */\n      dup4\n        /* \"Documents/GitHub/Store-system-with-feedback/main.sol\":3768:3801  structStatusPurchases[idPurchase] */\n      dup2\n      sload\n      dup2\n      lt\n      tag_100\n      jumpi\n      tag_101\n      tag_102\n      jump\t// in\n    tag_101:\n    tag_100:\n      swap1\n      0x00\n      mstore\n      keccak256(0x00, 0x20)\n      swap1\n      0x03\n      mul\n      add\n        /* \"Documents/GitHub/Store-system-with-feedback/main.sol\":3768:3808  structStatusPurchases[idPurchase].status */\n      0x02\n      add\n      0x00\n        /* \"Documents/GitHub/Store-system-with-feedback/main.sol\":3768:3816  structStatusPurchases[idPurchase].status = false */\n      0x0100\n      exp\n      dup2\n      sload\n      dup2\n      0xff\n      mul\n      not\n      and\n      swap1\n      dup4\n      iszero\n      iszero\n      mul\n      or\n      swap1\n      sstore\n      pop\n        /* \"Documents/GitHub/Store-system-with-feedback/main.sol\":3967:3981  structProducts */\n      0x07\n        /* \"Documents/GitHub/Store-system-with-feedback/main.sol\":3982:4003  structStatusPurchases */\n      0x09\n        /* \"Documents/GitHub/Store-system-with-feedback/main.sol\":4004:4014  idPurchase */\n      dup4\n        /* \"Documents/GitHub/Store-system-with-feedback/main.sol\":3982:4015  structStatusPurchases[idPurchase] */\n      dup2\n      sload\n      dup2\n      lt\n      tag_104\n      jumpi\n      tag_105\n      tag_102\n      jump\t// in\n    tag_105:\n    tag_104:\n      swap1\n      0x00\n      mstore\n      keccak256(0x00, 0x20)\n      swap1\n      0x03\n      mul\n      add\n        /* \"Documents/GitHub/Store-system-with-feedback/main.sol\":3982:4028  structStatusPurchases[idPurchase].titleProduct */\n      0x01\n      add\n        /* \"Documents/GitHub/Store-system-with-feedback/main.sol\":3967:4029  structProducts[structStatusPurchases[idPurchase].titleProduct] */\n      mload(0x40)\n      tag_107\n      swap2\n      swap1\n      tag_108\n      jump\t// in\n    tag_107:\n      swap1\n      dup2\n      mstore\n      0x20\n      add\n      mload(0x40)\n      dup1\n      swap2\n      sub\n      swap1\n      keccak256\n        /* \"Documents/GitHub/Store-system-with-feedback/main.sol\":3967:4035  structProducts[structStatusPurchases[idPurchase].titleProduct].price */\n      0x02\n      add\n      sload\n        /* \"Documents/GitHub/Store-system-with-feedback/main.sol\":3899:3910  structUsers */\n      0x04\n        /* \"Documents/GitHub/Store-system-with-feedback/main.sol\":3899:3955  structUsers[structStatusPurchases[idPurchase].userLogin] */\n      0x00\n        /* \"Documents/GitHub/Store-system-with-feedback/main.sol\":3911:3932  structStatusPurchases */\n      0x09\n        /* \"Documents/GitHub/Store-system-with-feedback/main.sol\":3933:3943  idPurchase */\n      dup6\n        /* \"Documents/GitHub/Store-system-with-feedback/main.sol\":3911:3944  structStatusPurchases[idPurchase] */\n      dup2\n      sload\n      dup2\n      lt\n      tag_109\n      jumpi\n      tag_110\n      tag_102\n      jump\t// in\n    tag_110:\n    tag_109:\n      swap1\n      0x00\n      mstore\n      keccak256(0x00, 0x20)\n      swap1\n      0x03\n      mul\n      add\n        /* \"Documents/GitHub/Store-system-with-feedback/main.sol\":3911:3954  structStatusPurchases[idPurchase].userLogin */\n      0x00\n      add\n      0x00\n      swap1\n      sload\n      swap1\n      0x0100\n      exp\n      swap1\n      div\n      0xffffffffffffffffffffffffffffffffffffffff\n      and\n        /* \"Documents/GitHub/Store-system-with-feedback/main.sol\":3899:3955  structUsers[structStatusPurchases[idPurchase].userLogin] */\n      0xffffffffffffffffffffffffffffffffffffffff\n      and\n      0xffffffffffffffffffffffffffffffffffffffff\n      and\n      dup2\n      mstore\n      0x20\n      add\n      swap1\n      dup2\n      mstore\n      0x20\n      add\n      0x00\n      keccak256\n        /* \"Documents/GitHub/Store-system-with-feedback/main.sol\":3899:3964  structUsers[structStatusPurchases[idPurchase].userLogin].ballance */\n      0x02\n      add\n      sload\n        /* \"Documents/GitHub/Store-system-with-feedback/main.sol\":3899:4035  structUsers[structStatusPurchases[idPurchase].userLogin].ballance - structProducts[structStatusPurchases[idPurchase].titleProduct].price */\n      tag_112\n      swap2\n      swap1\n      tag_113\n      jump\t// in\n    tag_112:\n        /* \"Documents/GitHub/Store-system-with-feedback/main.sol\":3831:3842  structUsers */\n      0x04\n        /* \"Documents/GitHub/Store-system-with-feedback/main.sol\":3831:3887  structUsers[structStatusPurchases[idPurchase].userLogin] */\n      0x00\n        /* \"Documents/GitHub/Store-system-with-feedback/main.sol\":3843:3864  structStatusPurchases */\n      0x09\n        /* \"Documents/GitHub/Store-system-with-feedback/main.sol\":3865:3875  idPurchase */\n      dup6\n        /* \"Documents/GitHub/Store-system-with-feedback/main.sol\":3843:3876  structStatusPurchases[idPurchase] */\n      dup2\n      sload\n      dup2\n      lt\n      tag_114\n      jumpi\n      tag_115\n      tag_102\n      jump\t// in\n    tag_115:\n    tag_114:\n      swap1\n      0x00\n      mstore\n      keccak256(0x00, 0x20)\n      swap1\n      0x03\n      mul\n      add\n        /* \"Documents/GitHub/Store-system-with-feedback/main.sol\":3843:3886  structStatusPurchases[idPurchase].userLogin */\n      0x00\n      add\n      0x00\n      swap1\n      sload\n      swap1\n      0x0100\n      exp\n      swap1\n      div\n      0xffffffffffffffffffffffffffffffffffffffff\n      and\n        /* \"Documents/GitHub/Store-system-with-feedback/main.sol\":3831:3887  structUsers[structStatusPurchases[idPurchase].userLogin] */\n      0xffffffffffffffffffffffffffffffffffffffff\n      and\n      0xffffffffffffffffffffffffffffffffffffffff\n      and\n      dup2\n      mstore\n      0x20\n      add\n      swap1\n      dup2\n      mstore\n      0x20\n      add\n      0x00\n      keccak256\n        /* \"Documents/GitHub/Store-system-with-feedback/main.sol\":3831:3896  structUsers[structStatusPurchases[idPurchase].userLogin].ballance */\n      0x02\n      add\n        /* \"Documents/GitHub/Store-system-with-feedback/main.sol\":3831:4035  structUsers[structStatusPurchases[idPurchase].userLogin].ballance = structUsers[structStatusPurchases[idPurchase].userLogin].ballance - structProducts[structStatusPurchases[idPurchase].titleProduct].price */\n      dup2\n      swap1\n      sstore\n      pop\n        /* \"Documents/GitHub/Store-system-with-feedback/main.sol\":4108:4122  structProducts */\n      0x07\n        /* \"Documents/GitHub/Store-system-with-feedback/main.sol\":4123:4144  structStatusPurchases */\n      0x09\n        /* \"Documents/GitHub/Store-system-with-feedback/main.sol\":4145:4155  idPurchase */\n      dup4\n        /* \"Documents/GitHub/Store-system-with-feedback/main.sol\":4123:4156  structStatusPurchases[idPurchase] */\n      dup2\n      sload\n      dup2\n      lt\n      tag_117\n      jumpi\n      tag_118\n      tag_102\n      jump\t// in\n    tag_118:\n    tag_117:\n      swap1\n      0x00\n      mstore\n      keccak256(0x00, 0x20)\n      swap1\n      0x03\n      mul\n      add\n        /* \"Documents/GitHub/Store-system-with-feedback/main.sol\":4123:4169  structStatusPurchases[idPurchase].titleProduct */\n      0x01\n      add\n        /* \"Documents/GitHub/Store-system-with-feedback/main.sol\":4108:4170  structProducts[structStatusPurchases[idPurchase].titleProduct] */\n      mload(0x40)\n      tag_120\n      swap2\n      swap1\n      tag_108\n      jump\t// in\n    tag_120:\n      swap1\n      dup2\n      mstore\n      0x20\n      add\n      mload(0x40)\n      dup1\n      swap2\n      sub\n      swap1\n      keccak256\n        /* \"Documents/GitHub/Store-system-with-feedback/main.sol\":4108:4176  structProducts[structStatusPurchases[idPurchase].titleProduct].price */\n      0x02\n      add\n      sload\n        /* \"Documents/GitHub/Store-system-with-feedback/main.sol\":4079:4084  shops */\n      0x00\n        /* \"Documents/GitHub/Store-system-with-feedback/main.sol\":4079:4096  shops[msg.sender] */\n      dup1\n        /* \"Documents/GitHub/Store-system-with-feedback/main.sol\":4085:4095  msg.sender */\n      caller\n        /* \"Documents/GitHub/Store-system-with-feedback/main.sol\":4079:4096  shops[msg.sender] */\n      0xffffffffffffffffffffffffffffffffffffffff\n      and\n      0xffffffffffffffffffffffffffffffffffffffff\n      and\n      dup2\n      mstore\n      0x20\n      add\n      swap1\n      dup2\n      mstore\n      0x20\n      add\n      0x00\n      keccak256\n        /* \"Documents/GitHub/Store-system-with-feedback/main.sol\":4079:4105  shops[msg.sender].ballance */\n      0x03\n      add\n      sload\n        /* \"Documents/GitHub/Store-system-with-feedback/main.sol\":4079:4176  shops[msg.sender].ballance + structProducts[structStatusPurchases[idPurchase].titleProduct].price */\n      tag_121\n      swap2\n      swap1\n      tag_122\n      jump\t// in\n    tag_121:\n        /* \"Documents/GitHub/Store-system-with-feedback/main.sol\":4050:4055  shops */\n      0x00\n        /* \"Documents/GitHub/Store-system-with-feedback/main.sol\":4050:4067  shops[msg.sender] */\n      dup1\n        /* \"Documents/GitHub/Store-system-with-feedback/main.sol\":4056:4066  msg.sender */\n      caller\n        /* \"Documents/GitHub/Store-system-with-feedback/main.sol\":4050:4067  shops[msg.sender] */\n      0xffffffffffffffffffffffffffffffffffffffff\n      and\n      0xffffffffffffffffffffffffffffffffffffffff\n      and\n      dup2\n      mstore\n      0x20\n      add\n      swap1\n      dup2\n      mstore\n      0x20\n      add\n      0x00\n      keccak256\n        /* \"Documents/GitHub/Store-system-with-feedback/main.sol\":4050:4076  shops[msg.sender].ballance */\n      0x03\n      add\n        /* \"Documents/GitHub/Store-system-with-feedback/main.sol\":4050:4176  shops[msg.sender].ballance = shops[msg.sender].ballance + structProducts[structStatusPurchases[idPurchase].titleProduct].price */\n      dup2\n      swap1\n      sstore\n      pop\n        /* \"Documents/GitHub/Store-system-with-feedback/main.sol\":3727:4269  if (confirmation == true) {\r... */\n      jump(tag_123)\n    tag_99:\n        /* \"Documents/GitHub/Store-system-with-feedback/main.sol\":4252:4257  false */\n      0x00\n        /* \"Documents/GitHub/Store-system-with-feedback/main.sol\":4209:4230  structStatusPurchases */\n      0x09\n        /* \"Documents/GitHub/Store-system-with-feedback/main.sol\":4231:4241  idPurchase */\n      dup4\n        /* \"Documents/GitHub/Store-system-with-feedback/main.sol\":4209:4242  structStatusPurchases[idPurchase] */\n      dup2\n      sload\n      dup2\n      lt\n      tag_124\n      jumpi\n      tag_125\n      tag_102\n      jump\t// in\n    tag_125:\n    tag_124:\n      swap1\n      0x00\n      mstore\n      keccak256(0x00, 0x20)\n      swap1\n      0x03\n      mul\n      add\n        /* \"Documents/GitHub/Store-system-with-feedback/main.sol\":4209:4249  structStatusPurchases[idPurchase].status */\n      0x02\n      add\n      0x00\n        /* \"Documents/GitHub/Store-system-with-feedback/main.sol\":4209:4257  structStatusPurchases[idPurchase].status = false */\n      0x0100\n      exp\n      dup2\n      sload\n      dup2\n      0xff\n      mul\n      not\n      and\n      swap1\n      dup4\n      iszero\n      iszero\n      mul\n      or\n      swap1\n      sstore\n      pop\n        /* \"Documents/GitHub/Store-system-with-feedback/main.sol\":3727:4269  if (confirmation == true) {\r... */\n    tag_123:\n        /* \"Documents/GitHub/Store-system-with-feedback/main.sol\":3648:4276  function acceptPurchase (uint idPurchase, bool confirmation) public {\r... */\n      pop\n      pop\n      jump\t// out\n        /* \"Documents/GitHub/Store-system-with-feedback/main.sol\":5756:6027  function productPurchases (string memory titleProduct) public {\r... */\n    tag_31:\n        /* \"Documents/GitHub/Store-system-with-feedback/main.sol\":5873:5887  structProducts */\n      0x07\n        /* \"Documents/GitHub/Store-system-with-feedback/main.sol\":5888:5900  titleProduct */\n      dup2\n        /* \"Documents/GitHub/Store-system-with-feedback/main.sol\":5873:5901  structProducts[titleProduct] */\n      mload(0x40)\n      tag_128\n      swap2\n      swap1\n      tag_129\n      jump\t// in\n    tag_128:\n      swap1\n      dup2\n      mstore\n      0x20\n      add\n      mload(0x40)\n      dup1\n      swap2\n      sub\n      swap1\n      keccak256\n        /* \"Documents/GitHub/Store-system-with-feedback/main.sol\":5873:5907  structProducts[titleProduct].price */\n      0x02\n      add\n      sload\n        /* \"Documents/GitHub/Store-system-with-feedback/main.sol\":5837:5848  structUsers */\n      0x04\n        /* \"Documents/GitHub/Store-system-with-feedback/main.sol\":5837:5860  structUsers[msg.sender] */\n      0x00\n        /* \"Documents/GitHub/Store-system-with-feedback/main.sol\":5849:5859  msg.sender */\n      caller\n        /* \"Documents/GitHub/Store-system-with-feedback/main.sol\":5837:5860  structUsers[msg.sender] */\n      0xffffffffffffffffffffffffffffffffffffffff\n      and\n      0xffffffffffffffffffffffffffffffffffffffff\n      and\n      dup2\n      mstore\n      0x20\n      add\n      swap1\n      dup2\n      mstore\n      0x20\n      add\n      0x00\n      keccak256\n        /* \"Documents/GitHub/Store-system-with-feedback/main.sol\":5837:5869  structUsers[msg.sender].ballance */\n      0x02\n      add\n      sload\n        /* \"Documents/GitHub/Store-system-with-feedback/main.sol\":5837:5907  structUsers[msg.sender].ballance >= structProducts[titleProduct].price */\n      lt\n      iszero\n        /* \"Documents/GitHub/Store-system-with-feedback/main.sol\":5829:5928  require(structUsers[msg.sender].ballance >= structProducts[titleProduct].price, \"error: not money\") */\n      tag_130\n      jumpi\n      mload(0x40)\n      0x08c379a000000000000000000000000000000000000000000000000000000000\n      dup2\n      mstore\n      0x04\n      add\n      tag_131\n      swap1\n      tag_132\n      jump\t// in\n    tag_131:\n      mload(0x40)\n      dup1\n      swap2\n      sub\n      swap1\n      revert\n    tag_130:\n        /* \"Documents/GitHub/Store-system-with-feedback/main.sol\":5939:5960  structStatusPurchases */\n      0x09\n        /* \"Documents/GitHub/Store-system-with-feedback/main.sol\":5966:6018  structStatusPurchase(msg.sender, titleProduct, true) */\n      mload(0x40)\n      dup1\n      0x60\n      add\n      0x40\n      mstore\n      dup1\n        /* \"Documents/GitHub/Store-system-with-feedback/main.sol\":5987:5997  msg.sender */\n      caller\n        /* \"Documents/GitHub/Store-system-with-feedback/main.sol\":5966:6018  structStatusPurchase(msg.sender, titleProduct, true) */\n      0xffffffffffffffffffffffffffffffffffffffff\n      and\n      dup2\n      mstore\n      0x20\n      add\n        /* \"Documents/GitHub/Store-system-with-feedback/main.sol\":5999:6011  titleProduct */\n      dup4\n        /* \"Documents/GitHub/Store-system-with-feedback/main.sol\":5966:6018  structStatusPurchase(msg.sender, titleProduct, true) */\n      dup2\n      mstore\n      0x20\n      add\n        /* \"Documents/GitHub/Store-system-with-feedback/main.sol\":6013:6017  true */\n      0x01\n        /* \"Documents/GitHub/Store-system-with-feedback/main.sol\":5966:6018  structStatusPurchase(msg.sender, titleProduct, true) */\n      iszero\n      iszero\n      dup2\n      mstore\n      pop\n        /* \"Documents/GitHub/Store-system-with-feedback/main.sol\":5939:6019  structStatusPurchases.push(structStatusPurchase(msg.sender, titleProduct, true)) */\n      swap1\n      dup1\n      0x01\n      dup2\n      sload\n      add\n      dup1\n      dup3\n      sstore\n      dup1\n      swap2\n      pop\n      pop\n      0x01\n      swap1\n      sub\n      swap1\n      0x00\n      mstore\n      keccak256(0x00, 0x20)\n      swap1\n      0x03\n      mul\n      add\n      0x00\n      swap1\n      swap2\n      swap1\n      swap2\n      swap1\n      swap2\n      pop\n      0x00\n      dup3\n      add\n      mload\n      dup2\n      0x00\n      add\n      exp(0x0100, 0x00)\n      dup2\n      sload\n      dup2\n      0xffffffffffffffffffffffffffffffffffffffff\n      mul\n      not\n      and\n      swap1\n      dup4\n      0xffffffffffffffffffffffffffffffffffffffff\n      and\n      mul\n      or\n      swap1\n      sstore\n      pop\n      0x20\n      dup3\n      add\n      mload\n      dup2\n      0x01\n      add\n      swap1\n      dup1\n      mload\n      swap1\n      0x20\n      add\n      swap1\n      tag_134\n      swap3\n      swap2\n      swap1\n      tag_135\n      jump\t// in\n    tag_134:\n      pop\n      0x40\n      dup3\n      add\n      mload\n      dup2\n      0x02\n      add\n      exp(0x0100, 0x00)\n      dup2\n      sload\n      dup2\n      0xff\n      mul\n      not\n      and\n      swap1\n      dup4\n      iszero\n      iszero\n      mul\n      or\n      swap1\n      sstore\n      pop\n      pop\n      pop\n        /* \"Documents/GitHub/Store-system-with-feedback/main.sol\":5756:6027  function productPurchases (string memory titleProduct) public {\r... */\n      pop\n      jump\t// out\n        /* \"Documents/GitHub/Store-system-with-feedback/main.sol\":1794:1844  mapping(string => address) public structUserLogins */\n    tag_34:\n      0x05\n      dup2\n      dup1\n      mload\n      0x20\n      dup2\n      add\n      dup3\n      add\n      dup1\n      mload\n      dup5\n      dup3\n      mstore\n      0x20\n      dup4\n      add\n      0x20\n      dup6\n      add\n      keccak256\n      dup2\n      dup4\n      mstore\n      dup1\n      swap6\n      pop\n      pop\n      pop\n      pop\n      pop\n      pop\n      0x00\n      swap2\n      pop\n      sload\n      swap1\n      0x0100\n      exp\n      swap1\n      div\n      0xffffffffffffffffffffffffffffffffffffffff\n      and\n      dup2\n      jump\t// out\n        /* \"Documents/GitHub/Store-system-with-feedback/main.sol\":4321:4782  function acceptReturn(uint idReturn, bool confirmation) public {\r... */\n    tag_39:\n        /* \"Documents/GitHub/Store-system-with-feedback/main.sol\":4414:4418  true */\n      0x01\n        /* \"Documents/GitHub/Store-system-with-feedback/main.sol\":4398:4418  confirmation == true */\n      iszero\n      iszero\n        /* \"Documents/GitHub/Store-system-with-feedback/main.sol\":4398:4410  confirmation */\n      dup2\n        /* \"Documents/GitHub/Store-system-with-feedback/main.sol\":4398:4418  confirmation == true */\n      iszero\n      iszero\n      eq\n        /* \"Documents/GitHub/Store-system-with-feedback/main.sol\":4395:4775  if(confirmation == true) {\r... */\n      iszero\n      tag_137\n      jumpi\n        /* \"Documents/GitHub/Store-system-with-feedback/main.sol\":4474:4479  false */\n      0x00\n        /* \"Documents/GitHub/Store-system-with-feedback/main.sol\":4435:4454  structStatusReturns */\n      0x0a\n        /* \"Documents/GitHub/Store-system-with-feedback/main.sol\":4455:4463  idReturn */\n      dup4\n        /* \"Documents/GitHub/Store-system-with-feedback/main.sol\":4435:4464  structStatusReturns[idReturn] */\n      dup2\n      sload\n      dup2\n      lt\n      tag_138\n      jumpi\n      tag_139\n      tag_102\n      jump\t// in\n    tag_139:\n    tag_138:\n      swap1\n      0x00\n      mstore\n      keccak256(0x00, 0x20)\n      swap1\n      0x03\n      mul\n      add\n        /* \"Documents/GitHub/Store-system-with-feedback/main.sol\":4435:4471  structStatusReturns[idReturn].status */\n      0x02\n      add\n      0x00\n        /* \"Documents/GitHub/Store-system-with-feedback/main.sol\":4435:4479  structStatusReturns[idReturn].status = false */\n      0x0100\n      exp\n      dup2\n      sload\n      dup2\n      0xff\n      mul\n      not\n      and\n      swap1\n      dup4\n      iszero\n      iszero\n      mul\n      or\n      swap1\n      sstore\n      pop\n        /* \"Documents/GitHub/Store-system-with-feedback/main.sol\":4622:4636  structProducts */\n      0x07\n        /* \"Documents/GitHub/Store-system-with-feedback/main.sol\":4637:4656  structStatusReturns */\n      0x0a\n        /* \"Documents/GitHub/Store-system-with-feedback/main.sol\":4657:4665  idReturn */\n      dup4\n        /* \"Documents/GitHub/Store-system-with-feedback/main.sol\":4637:4666  structStatusReturns[idReturn] */\n      dup2\n      sload\n      dup2\n      lt\n      tag_141\n      jumpi\n      tag_142\n      tag_102\n      jump\t// in\n    tag_142:\n    tag_141:\n      swap1\n      0x00\n      mstore\n      keccak256(0x00, 0x20)\n      swap1\n      0x03\n      mul\n      add\n        /* \"Documents/GitHub/Store-system-with-feedback/main.sol\":4637:4679  structStatusReturns[idReturn].titleProduct */\n      0x01\n      add\n        /* \"Documents/GitHub/Store-system-with-feedback/main.sol\":4622:4680  structProducts[structStatusReturns[idReturn].titleProduct] */\n      mload(0x40)\n      tag_144\n      swap2\n      swap1\n      tag_108\n      jump\t// in\n    tag_144:\n      swap1\n      dup2\n      mstore\n      0x20\n      add\n      mload(0x40)\n      dup1\n      swap2\n      sub\n      swap1\n      keccak256\n        /* \"Documents/GitHub/Store-system-with-feedback/main.sol\":4622:4686  structProducts[structStatusReturns[idReturn].titleProduct].price */\n      0x02\n      add\n      sload\n        /* \"Documents/GitHub/Store-system-with-feedback/main.sol\":4558:4569  structUsers */\n      0x04\n        /* \"Documents/GitHub/Store-system-with-feedback/main.sol\":4558:4610  structUsers[structStatusReturns[idReturn].userLogin] */\n      0x00\n        /* \"Documents/GitHub/Store-system-with-feedback/main.sol\":4570:4589  structStatusReturns */\n      0x0a\n        /* \"Documents/GitHub/Store-system-with-feedback/main.sol\":4590:4598  idReturn */\n      dup6\n        /* \"Documents/GitHub/Store-system-with-feedback/main.sol\":4570:4599  structStatusReturns[idReturn] */\n      dup2\n      sload\n      dup2\n      lt\n      tag_145\n      jumpi\n      tag_146\n      tag_102\n      jump\t// in\n    tag_146:\n    tag_145:\n      swap1\n      0x00\n      mstore\n      keccak256(0x00, 0x20)\n      swap1\n      0x03\n      mul\n      add\n        /* \"Documents/GitHub/Store-system-with-feedback/main.sol\":4570:4609  structStatusReturns[idReturn].userLogin */\n      0x00\n      add\n      0x00\n      swap1\n      sload\n      swap1\n      0x0100\n      exp\n      swap1\n      div\n      0xffffffffffffffffffffffffffffffffffffffff\n      and\n        /* \"Documents/GitHub/Store-system-with-feedback/main.sol\":4558:4610  structUsers[structStatusReturns[idReturn].userLogin] */\n      0xffffffffffffffffffffffffffffffffffffffff\n      and\n      0xffffffffffffffffffffffffffffffffffffffff\n      and\n      dup2\n      mstore\n      0x20\n      add\n      swap1\n      dup2\n      mstore\n      0x20\n      add\n      0x00\n      keccak256\n        /* \"Documents/GitHub/Store-system-with-feedback/main.sol\":4558:4619  structUsers[structStatusReturns[idReturn].userLogin].ballance */\n      0x02\n      add\n      sload\n        /* \"Documents/GitHub/Store-system-with-feedback/main.sol\":4558:4686  structUsers[structStatusReturns[idReturn].userLogin].ballance + structProducts[structStatusReturns[idReturn].titleProduct].price */\n      tag_148\n      swap2\n      swap1\n      tag_122\n      jump\t// in\n    tag_148:\n        /* \"Documents/GitHub/Store-system-with-feedback/main.sol\":4494:4505  structUsers */\n      0x04\n        /* \"Documents/GitHub/Store-system-with-feedback/main.sol\":4494:4546  structUsers[structStatusReturns[idReturn].userLogin] */\n      0x00\n        /* \"Documents/GitHub/Store-system-with-feedback/main.sol\":4506:4525  structStatusReturns */\n      0x0a\n        /* \"Documents/GitHub/Store-system-with-feedback/main.sol\":4526:4534  idReturn */\n      dup6\n        /* \"Documents/GitHub/Store-system-with-feedback/main.sol\":4506:4535  structStatusReturns[idReturn] */\n      dup2\n      sload\n      dup2\n      lt\n      tag_149\n      jumpi\n      tag_150\n      tag_102\n      jump\t// in\n    tag_150:\n    tag_149:\n      swap1\n      0x00\n      mstore\n      keccak256(0x00, 0x20)\n      swap1\n      0x03\n      mul\n      add\n        /* \"Documents/GitHub/Store-system-with-feedback/main.sol\":4506:4545  structStatusReturns[idReturn].userLogin */\n      0x00\n      add\n      0x00\n      swap1\n      sload\n      swap1\n      0x0100\n      exp\n      swap1\n      div\n      0xffffffffffffffffffffffffffffffffffffffff\n      and\n        /* \"Documents/GitHub/Store-system-with-feedback/main.sol\":4494:4546  structUsers[structStatusReturns[idReturn].userLogin] */\n      0xffffffffffffffffffffffffffffffffffffffff\n      and\n      0xffffffffffffffffffffffffffffffffffffffff\n      and\n      dup2\n      mstore\n      0x20\n      add\n      swap1\n      dup2\n      mstore\n      0x20\n      add\n      0x00\n      keccak256\n        /* \"Documents/GitHub/Store-system-with-feedback/main.sol\":4494:4555  structUsers[structStatusReturns[idReturn].userLogin].ballance */\n      0x02\n      add\n        /* \"Documents/GitHub/Store-system-with-feedback/main.sol\":4494:4686  structUsers[structStatusReturns[idReturn].userLogin].ballance = structUsers[structStatusReturns[idReturn].userLogin].ballance + structProducts[structStatusReturns[idReturn].titleProduct].price */\n      dup2\n      swap1\n      sstore\n      pop\n        /* \"Documents/GitHub/Store-system-with-feedback/main.sol\":4395:4775  if(confirmation == true) {\r... */\n      jump(tag_152)\n    tag_137:\n        /* \"Documents/GitHub/Store-system-with-feedback/main.sol\":4758:4763  false */\n      0x00\n        /* \"Documents/GitHub/Store-system-with-feedback/main.sol\":4719:4738  structStatusReturns */\n      0x0a\n        /* \"Documents/GitHub/Store-system-with-feedback/main.sol\":4739:4747  idReturn */\n      dup4\n        /* \"Documents/GitHub/Store-system-with-feedback/main.sol\":4719:4748  structStatusReturns[idReturn] */\n      dup2\n      sload\n      dup2\n      lt\n      tag_153\n      jumpi\n      tag_154\n      tag_102\n      jump\t// in\n    tag_154:\n    tag_153:\n      swap1\n      0x00\n      mstore\n      keccak256(0x00, 0x20)\n      swap1\n      0x03\n      mul\n      add\n        /* \"Documents/GitHub/Store-system-with-feedback/main.sol\":4719:4755  structStatusReturns[idReturn].status */\n      0x02\n      add\n      0x00\n        /* \"Documents/GitHub/Store-system-with-feedback/main.sol\":4719:4763  structStatusReturns[idReturn].status = false */\n      0x0100\n      exp\n      dup2\n      sload\n      dup2\n      0xff\n      mul\n      not\n      and\n      swap1\n      dup4\n      iszero\n      iszero\n      mul\n      or\n      swap1\n      sstore\n      pop\n        /* \"Documents/GitHub/Store-system-with-feedback/main.sol\":4395:4775  if(confirmation == true) {\r... */\n    tag_152:\n        /* \"Documents/GitHub/Store-system-with-feedback/main.sol\":4321:4782  function acceptReturn(uint idReturn, bool confirmation) public {\r... */\n      pop\n      pop\n      jump\t// out\n        /* \"Documents/GitHub/Store-system-with-feedback/main.sol\":6266:6450  function productMarriageRegistration (string memory titleProduct) public {\r... */\n    tag_42:\n        /* \"Documents/GitHub/Store-system-with-feedback/main.sol\":6350:6377  structMarriageRegistrations */\n      0x0b\n        /* \"Documents/GitHub/Store-system-with-feedback/main.sol\":6383:6441  structMarriageRegistration(msg.sender, titleProduct, true) */\n      mload(0x40)\n      dup1\n      0x60\n      add\n      0x40\n      mstore\n      dup1\n        /* \"Documents/GitHub/Store-system-with-feedback/main.sol\":6410:6420  msg.sender */\n      caller\n        /* \"Documents/GitHub/Store-system-with-feedback/main.sol\":6383:6441  structMarriageRegistration(msg.sender, titleProduct, true) */\n      0xffffffffffffffffffffffffffffffffffffffff\n      and\n      dup2\n      mstore\n      0x20\n      add\n        /* \"Documents/GitHub/Store-system-with-feedback/main.sol\":6422:6434  titleProduct */\n      dup4\n        /* \"Documents/GitHub/Store-system-with-feedback/main.sol\":6383:6441  structMarriageRegistration(msg.sender, titleProduct, true) */\n      dup2\n      mstore\n      0x20\n      add\n        /* \"Documents/GitHub/Store-system-with-feedback/main.sol\":6436:6440  true */\n      0x01\n        /* \"Documents/GitHub/Store-system-with-feedback/main.sol\":6383:6441  structMarriageRegistration(msg.sender, titleProduct, true) */\n      iszero\n      iszero\n      dup2\n      mstore\n      pop\n        /* \"Documents/GitHub/Store-system-with-feedback/main.sol\":6350:6442  structMarriageRegistrations.push(structMarriageRegistration(msg.sender, titleProduct, true)) */\n      swap1\n      dup1\n      0x01\n      dup2\n      sload\n      add\n      dup1\n      dup3\n      sstore\n      dup1\n      swap2\n      pop\n      pop\n      0x01\n      swap1\n      sub\n      swap1\n      0x00\n      mstore\n      keccak256(0x00, 0x20)\n      swap1\n      0x03\n      mul\n      add\n      0x00\n      swap1\n      swap2\n      swap1\n      swap2\n      swap1\n      swap2\n      pop\n      0x00\n      dup3\n      add\n      mload\n      dup2\n      0x00\n      add\n      exp(0x0100, 0x00)\n      dup2\n      sload\n      dup2\n      0xffffffffffffffffffffffffffffffffffffffff\n      mul\n      not\n      and\n      swap1\n      dup4\n      0xffffffffffffffffffffffffffffffffffffffff\n      and\n      mul\n      or\n      swap1\n      sstore\n      pop\n      0x20\n      dup3\n      add\n      mload\n      dup2\n      0x01\n      add\n      swap1\n      dup1\n      mload\n      swap1\n      0x20\n      add\n      swap1\n      tag_158\n      swap3\n      swap2\n      swap1\n      tag_135\n      jump\t// in\n    tag_158:\n      pop\n      0x40\n      dup3\n      add\n      mload\n      dup2\n      0x02\n      add\n      exp(0x0100, 0x00)\n      dup2\n      sload\n      dup2\n      0xff\n      mul\n      not\n      and\n      swap1\n      dup4\n      iszero\n      iszero\n      mul\n      or\n      swap1\n      sstore\n      pop\n      pop\n      pop\n        /* \"Documents/GitHub/Store-system-with-feedback/main.sol\":6266:6450  function productMarriageRegistration (string memory titleProduct) public {\r... */\n      pop\n      jump\t// out\n        /* \"Documents/GitHub/Store-system-with-feedback/main.sol\":5570:5671  function getProductList() public view returns(string[] memory) {\r... */\n    tag_44:\n        /* \"Documents/GitHub/Store-system-with-feedback/main.sol\":5616:5631  string[] memory */\n      0x60\n        /* \"Documents/GitHub/Store-system-with-feedback/main.sol\":5652:5663  productList */\n      0x08\n        /* \"Documents/GitHub/Store-system-with-feedback/main.sol\":5645:5663  return productList */\n      dup1\n      sload\n      dup1\n      0x20\n      mul\n      0x20\n      add\n      mload(0x40)\n      swap1\n      dup2\n      add\n      0x40\n      mstore\n      dup1\n      swap3\n      swap2\n      swap1\n      dup2\n      dup2\n      mstore\n      0x20\n      add\n      0x00\n      swap1\n    tag_160:\n      dup3\n      dup3\n      lt\n      iszero\n      tag_161\n      jumpi\n      dup4\n      dup3\n      swap1\n      0x00\n      mstore\n      keccak256(0x00, 0x20)\n      add\n      dup1\n      sload\n      tag_163\n      swap1\n      tag_164\n      jump\t// in\n    tag_163:\n      dup1\n      0x1f\n      add\n      0x20\n      dup1\n      swap2\n      div\n      mul\n      0x20\n      add\n      mload(0x40)\n      swap1\n      dup2\n      add\n      0x40\n      mstore\n      dup1\n      swap3\n      swap2\n      swap1\n      dup2\n      dup2\n      mstore\n      0x20\n      add\n      dup3\n      dup1\n      sload\n      tag_165\n      swap1\n      tag_164\n      jump\t// in\n    tag_165:\n      dup1\n      iszero\n      tag_166\n      jumpi\n      dup1\n      0x1f\n      lt\n      tag_167\n      jumpi\n      0x0100\n      dup1\n      dup4\n      sload\n      div\n      mul\n      dup4\n      mstore\n      swap2\n      0x20\n      add\n      swap2\n      jump(tag_166)\n    tag_167:\n      dup3\n      add\n      swap2\n      swap1\n      0x00\n      mstore\n      keccak256(0x00, 0x20)\n      swap1\n    tag_168:\n      dup2\n      sload\n      dup2\n      mstore\n      swap1\n      0x01\n      add\n      swap1\n      0x20\n      add\n      dup1\n      dup4\n      gt\n      tag_168\n      jumpi\n      dup3\n      swap1\n      sub\n      0x1f\n      and\n      dup3\n      add\n      swap2\n    tag_166:\n      pop\n      pop\n      pop\n      pop\n      pop\n      dup2\n      mstore\n      0x20\n      add\n      swap1\n      0x01\n      add\n      swap1\n      jump(tag_160)\n    tag_161:\n      pop\n      pop\n      pop\n      pop\n      swap1\n      pop\n        /* \"Documents/GitHub/Store-system-with-feedback/main.sol\":5570:5671  function getProductList() public view returns(string[] memory) {\r... */\n      swap1\n      jump\t// out\n        /* \"Documents/GitHub/Store-system-with-feedback/main.sol\":2893:3174  function addProductShop (string memory title, uint256 price, string memory description) public {\r... */\n    tag_50:\n        /* \"Documents/GitHub/Store-system-with-feedback/main.sol\":3023:3095  structProduct(msg.sender, description , price, addProductShop_idProduct) */\n      mload(0x40)\n      dup1\n      0x80\n      add\n      0x40\n      mstore\n      dup1\n        /* \"Documents/GitHub/Store-system-with-feedback/main.sol\":3037:3047  msg.sender */\n      caller\n        /* \"Documents/GitHub/Store-system-with-feedback/main.sol\":3023:3095  structProduct(msg.sender, description , price, addProductShop_idProduct) */\n      0xffffffffffffffffffffffffffffffffffffffff\n      and\n      dup2\n      mstore\n      0x20\n      add\n        /* \"Documents/GitHub/Store-system-with-feedback/main.sol\":3049:3060  description */\n      dup3\n        /* \"Documents/GitHub/Store-system-with-feedback/main.sol\":3023:3095  structProduct(msg.sender, description , price, addProductShop_idProduct) */\n      dup2\n      mstore\n      0x20\n      add\n        /* \"Documents/GitHub/Store-system-with-feedback/main.sol\":3063:3068  price */\n      dup4\n        /* \"Documents/GitHub/Store-system-with-feedback/main.sol\":3023:3095  structProduct(msg.sender, description , price, addProductShop_idProduct) */\n      dup2\n      mstore\n      0x20\n      add\n        /* \"Documents/GitHub/Store-system-with-feedback/main.sol\":3070:3094  addProductShop_idProduct */\n      sload(0x0c)\n        /* \"Documents/GitHub/Store-system-with-feedback/main.sol\":3023:3095  structProduct(msg.sender, description , price, addProductShop_idProduct) */\n      dup2\n      mstore\n      pop\n        /* \"Documents/GitHub/Store-system-with-feedback/main.sol\":2999:3013  structProducts */\n      0x07\n        /* \"Documents/GitHub/Store-system-with-feedback/main.sol\":3014:3019  title */\n      dup5\n        /* \"Documents/GitHub/Store-system-with-feedback/main.sol\":2999:3020  structProducts[title] */\n      mload(0x40)\n      tag_170\n      swap2\n      swap1\n      tag_129\n      jump\t// in\n    tag_170:\n      swap1\n      dup2\n      mstore\n      0x20\n      add\n      mload(0x40)\n      dup1\n      swap2\n      sub\n      swap1\n      keccak256\n        /* \"Documents/GitHub/Store-system-with-feedback/main.sol\":2999:3095  structProducts[title] = structProduct(msg.sender, description , price, addProductShop_idProduct) */\n      0x00\n      dup3\n      add\n      mload\n      dup2\n      0x00\n      add\n      exp(0x0100, 0x00)\n      dup2\n      sload\n      dup2\n      0xffffffffffffffffffffffffffffffffffffffff\n      mul\n      not\n      and\n      swap1\n      dup4\n      0xffffffffffffffffffffffffffffffffffffffff\n      and\n      mul\n      or\n      swap1\n      sstore\n      pop\n      0x20\n      dup3\n      add\n      mload\n      dup2\n      0x01\n      add\n      swap1\n      dup1\n      mload\n      swap1\n      0x20\n      add\n      swap1\n      tag_171\n      swap3\n      swap2\n      swap1\n      tag_135\n      jump\t// in\n    tag_171:\n      pop\n      0x40\n      dup3\n      add\n      mload\n      dup2\n      0x02\n      add\n      sstore\n      0x60\n      dup3\n      add\n      mload\n      dup2\n      0x03\n      add\n      sstore\n      swap1\n      pop\n      pop\n        /* \"Documents/GitHub/Store-system-with-feedback/main.sol\":3106:3117  productList */\n      0x08\n        /* \"Documents/GitHub/Store-system-with-feedback/main.sol\":3123:3128  title */\n      dup4\n        /* \"Documents/GitHub/Store-system-with-feedback/main.sol\":3106:3129  productList.push(title) */\n      swap1\n      dup1\n      0x01\n      dup2\n      sload\n      add\n      dup1\n      dup3\n      sstore\n      dup1\n      swap2\n      pop\n      pop\n      0x01\n      swap1\n      sub\n      swap1\n      0x00\n      mstore\n      keccak256(0x00, 0x20)\n      add\n      0x00\n      swap1\n      swap2\n      swap1\n      swap2\n      swap1\n      swap2\n      pop\n      swap1\n      dup1\n      mload\n      swap1\n      0x20\n      add\n      swap1\n      tag_173\n      swap3\n      swap2\n      swap1\n      tag_135\n      jump\t// in\n    tag_173:\n      pop\n        /* \"Documents/GitHub/Store-system-with-feedback/main.sol\":3140:3164  addProductShop_idProduct */\n      0x0c\n      0x00\n        /* \"Documents/GitHub/Store-system-with-feedback/main.sol\":3140:3166  addProductShop_idProduct++ */\n      dup2\n      sload\n      dup1\n      swap3\n      swap2\n      swap1\n      tag_174\n      swap1\n      tag_175\n      jump\t// in\n    tag_174:\n      swap2\n      swap1\n      pop\n      sstore\n      pop\n        /* \"Documents/GitHub/Store-system-with-feedback/main.sol\":2893:3174  function addProductShop (string memory title, uint256 price, string memory description) public {\r... */\n      pop\n      pop\n      pop\n      jump\t// out\n        /* \"Documents/GitHub/Store-system-with-feedback/main.sol\":2708:2771  structMarriageRegistration[] public structMarriageRegistrations */\n    tag_54:\n      0x0b\n      dup2\n      dup2\n      sload\n      dup2\n      lt\n      tag_176\n      jumpi\n      0x00\n      dup1\n      revert\n    tag_176:\n      swap1\n      0x00\n      mstore\n      keccak256(0x00, 0x20)\n      swap1\n      0x03\n      mul\n      add\n      0x00\n      swap2\n      pop\n      swap1\n      pop\n      dup1\n      0x00\n      add\n      0x00\n      swap1\n      sload\n      swap1\n      0x0100\n      exp\n      swap1\n      div\n      0xffffffffffffffffffffffffffffffffffffffff\n      and\n      swap1\n      dup1\n      0x01\n      add\n      dup1\n      sload\n      tag_178\n      swap1\n      tag_164\n      jump\t// in\n    tag_178:\n      dup1\n      0x1f\n      add\n      0x20\n      dup1\n      swap2\n      div\n      mul\n      0x20\n      add\n      mload(0x40)\n      swap1\n      dup2\n      add\n      0x40\n      mstore\n      dup1\n      swap3\n      swap2\n      swap1\n      dup2\n      dup2\n      mstore\n      0x20\n      add\n      dup3\n      dup1\n      sload\n      tag_179\n      swap1\n      tag_164\n      jump\t// in\n    tag_179:\n      dup1\n      iszero\n      tag_180\n      jumpi\n      dup1\n      0x1f\n      lt\n      tag_181\n      jumpi\n      0x0100\n      dup1\n      dup4\n      sload\n      div\n      mul\n      dup4\n      mstore\n      swap2\n      0x20\n      add\n      swap2\n      jump(tag_180)\n    tag_181:\n      dup3\n      add\n      swap2\n      swap1\n      0x00\n      mstore\n      keccak256(0x00, 0x20)\n      swap1\n    tag_182:\n      dup2\n      sload\n      dup2\n      mstore\n      swap1\n      0x01\n      add\n      swap1\n      0x20\n      add\n      dup1\n      dup4\n      gt\n      tag_182\n      jumpi\n      dup3\n      swap1\n      sub\n      0x1f\n      and\n      dup3\n      add\n      swap2\n    tag_180:\n      pop\n      pop\n      pop\n      pop\n      pop\n      swap1\n      dup1\n      0x02\n      add\n      0x00\n      swap1\n      sload\n      swap1\n      0x0100\n      exp\n      swap1\n      div\n      0xff\n      and\n      swap1\n      pop\n      dup4\n      jump\t// out\n        /* \"Documents/GitHub/Store-system-with-feedback/main.sol\":1738:1787  mapping(address => structUser) public structUsers */\n    tag_60:\n      mstore(0x20, 0x04)\n      dup1\n      0x00\n      mstore\n      keccak256(0x00, 0x40)\n      0x00\n      swap2\n      pop\n      swap1\n      pop\n      dup1\n      0x00\n      add\n      dup1\n      sload\n      tag_183\n      swap1\n      tag_164\n      jump\t// in\n    tag_183:\n      dup1\n      0x1f\n      add\n      0x20\n      dup1\n      swap2\n      div\n      mul\n      0x20\n      add\n      mload(0x40)\n      swap1\n      dup2\n      add\n      0x40\n      mstore\n      dup1\n      swap3\n      swap2\n      swap1\n      dup2\n      dup2\n      mstore\n      0x20\n      add\n      dup3\n      dup1\n      sload\n      tag_184\n      swap1\n      tag_164\n      jump\t// in\n    tag_184:\n      dup1\n      iszero\n      tag_185\n      jumpi\n      dup1\n      0x1f\n      lt\n      tag_186\n      jumpi\n      0x0100\n      dup1\n      dup4\n      sload\n      div\n      mul\n      dup4\n      mstore\n      swap2\n      0x20\n      add\n      swap2\n      jump(tag_185)\n    tag_186:\n      dup3\n      add\n      swap2\n      swap1\n      0x00\n      mstore\n      keccak256(0x00, 0x20)\n      swap1\n    tag_187:\n      dup2\n      sload\n      dup2\n      mstore\n      swap1\n      0x01\n      add\n      swap1\n      0x20\n      add\n      dup1\n      dup4\n      gt\n      tag_187\n      jumpi\n      dup3\n      swap1\n      sub\n      0x1f\n      and\n      dup3\n      add\n      swap2\n    tag_185:\n      pop\n      pop\n      pop\n      pop\n      pop\n      swap1\n      dup1\n      0x01\n      add\n      sload\n      swap1\n      dup1\n      0x02\n      add\n      sload\n      swap1\n      pop\n      dup4\n      jump\t// out\n        /* \"Documents/GitHub/Store-system-with-feedback/main.sol\":2488:2535  structStatusReturn[] public structStatusReturns */\n    tag_65:\n      0x0a\n      dup2\n      dup2\n      sload\n      dup2\n      lt\n      tag_188\n      jumpi\n      0x00\n      dup1\n      revert\n    tag_188:\n      swap1\n      0x00\n      mstore\n      keccak256(0x00, 0x20)\n      swap1\n      0x03\n      mul\n      add\n      0x00\n      swap2\n      pop\n      swap1\n      pop\n      dup1\n      0x00\n      add\n      0x00\n      swap1\n      sload\n      swap1\n      0x0100\n      exp\n      swap1\n      div\n      0xffffffffffffffffffffffffffffffffffffffff\n      and\n      swap1\n      dup1\n      0x01\n      add\n      dup1\n      sload\n      tag_190\n      swap1\n      tag_164\n      jump\t// in\n    tag_190:\n      dup1\n      0x1f\n      add\n      0x20\n      dup1\n      swap2\n      div\n      mul\n      0x20\n      add\n      mload(0x40)\n      swap1\n      dup2\n      add\n      0x40\n      mstore\n      dup1\n      swap3\n      swap2\n      swap1\n      dup2\n      dup2\n      mstore\n      0x20\n      add\n      dup3\n      dup1\n      sload\n      tag_191\n      swap1\n      tag_164\n      jump\t// in\n    tag_191:\n      dup1\n      iszero\n      tag_192\n      jumpi\n      dup1\n      0x1f\n      lt\n      tag_193\n      jumpi\n      0x0100\n      dup1\n      dup4\n      sload\n      div\n      mul\n      dup4\n      mstore\n      swap2\n      0x20\n      add\n      swap2\n      jump(tag_192)\n    tag_193:\n      dup3\n      add\n      swap2\n      swap1\n      0x00\n      mstore\n      keccak256(0x00, 0x20)\n      swap1\n    tag_194:\n      dup2\n      sload\n      dup2\n      mstore\n      swap1\n      0x01\n      add\n      swap1\n      0x20\n      add\n      dup1\n      dup4\n      gt\n      tag_194\n      jumpi\n      dup3\n      swap1\n      sub\n      0x1f\n      and\n      dup3\n      add\n      swap2\n    tag_192:\n      pop\n      pop\n      pop\n      pop\n      pop\n      swap1\n      dup1\n      0x02\n      add\n      0x00\n      swap1\n      sload\n      swap1\n      0x0100\n      exp\n      swap1\n      div\n      0xff\n      and\n      swap1\n      pop\n      dup4\n      jump\t// out\n        /* \"Documents/GitHub/Store-system-with-feedback/main.sol\":6066:6220  function productReturn (string memory titleProduct) public {\r... */\n    tag_69:\n        /* \"Documents/GitHub/Store-system-with-feedback/main.sol\":6136:6155  structStatusReturns */\n      0x0a\n        /* \"Documents/GitHub/Store-system-with-feedback/main.sol\":6161:6211  structStatusReturn(msg.sender, titleProduct, true) */\n      mload(0x40)\n      dup1\n      0x60\n      add\n      0x40\n      mstore\n      dup1\n        /* \"Documents/GitHub/Store-system-with-feedback/main.sol\":6180:6190  msg.sender */\n      caller\n        /* \"Documents/GitHub/Store-system-with-feedback/main.sol\":6161:6211  structStatusReturn(msg.sender, titleProduct, true) */\n      0xffffffffffffffffffffffffffffffffffffffff\n      and\n      dup2\n      mstore\n      0x20\n      add\n        /* \"Documents/GitHub/Store-system-with-feedback/main.sol\":6192:6204  titleProduct */\n      dup4\n        /* \"Documents/GitHub/Store-system-with-feedback/main.sol\":6161:6211  structStatusReturn(msg.sender, titleProduct, true) */\n      dup2\n      mstore\n      0x20\n      add\n        /* \"Documents/GitHub/Store-system-with-feedback/main.sol\":6206:6210  true */\n      0x01\n        /* \"Documents/GitHub/Store-system-with-feedback/main.sol\":6161:6211  structStatusReturn(msg.sender, titleProduct, true) */\n      iszero\n      iszero\n      dup2\n      mstore\n      pop\n        /* \"Documents/GitHub/Store-system-with-feedback/main.sol\":6136:6212  structStatusReturns.push(structStatusReturn(msg.sender, titleProduct, true)) */\n      swap1\n      dup1\n      0x01\n      dup2\n      sload\n      add\n      dup1\n      dup3\n      sstore\n      dup1\n      swap2\n      pop\n      pop\n      0x01\n      swap1\n      sub\n      swap1\n      0x00\n      mstore\n      keccak256(0x00, 0x20)\n      swap1\n      0x03\n      mul\n      add\n      0x00\n      swap1\n      swap2\n      swap1\n      swap2\n      swap1\n      swap2\n      pop\n      0x00\n      dup3\n      add\n      mload\n      dup2\n      0x00\n      add\n      exp(0x0100, 0x00)\n      dup2\n      sload\n      dup2\n      0xffffffffffffffffffffffffffffffffffffffff\n      mul\n      not\n      and\n      swap1\n      dup4\n      0xffffffffffffffffffffffffffffffffffffffff\n      and\n      mul\n      or\n      swap1\n      sstore\n      pop\n      0x20\n      dup3\n      add\n      mload\n      dup2\n      0x01\n      add\n      swap1\n      dup1\n      mload\n      swap1\n      0x20\n      add\n      swap1\n      tag_197\n      swap3\n      swap2\n      swap1\n      tag_135\n      jump\t// in\n    tag_197:\n      pop\n      0x40\n      dup3\n      add\n      mload\n      dup2\n      0x02\n      add\n      exp(0x0100, 0x00)\n      dup2\n      sload\n      dup2\n      0xff\n      mul\n      not\n      and\n      swap1\n      dup4\n      iszero\n      iszero\n      mul\n      or\n      swap1\n      sstore\n      pop\n      pop\n      pop\n        /* \"Documents/GitHub/Store-system-with-feedback/main.sol\":6066:6220  function productReturn (string memory titleProduct) public {\r... */\n      pop\n      jump\t// out\n        /* \"Documents/GitHub/Store-system-with-feedback/main.sol\":5439:5534  function getShopList() public view returns(string[] memory) {\r... */\n    tag_71:\n        /* \"Documents/GitHub/Store-system-with-feedback/main.sol\":5482:5497  string[] memory */\n      0x60\n        /* \"Documents/GitHub/Store-system-with-feedback/main.sol\":5518:5526  shopList */\n      0x02\n        /* \"Documents/GitHub/Store-system-with-feedback/main.sol\":5511:5526  return shopList */\n      dup1\n      sload\n      dup1\n      0x20\n      mul\n      0x20\n      add\n      mload(0x40)\n      swap1\n      dup2\n      add\n      0x40\n      mstore\n      dup1\n      swap3\n      swap2\n      swap1\n      dup2\n      dup2\n      mstore\n      0x20\n      add\n      0x00\n      swap1\n    tag_199:\n      dup3\n      dup3\n      lt\n      iszero\n      tag_200\n      jumpi\n      dup4\n      dup3\n      swap1\n      0x00\n      mstore\n      keccak256(0x00, 0x20)\n      add\n      dup1\n      sload\n      tag_202\n      swap1\n      tag_164\n      jump\t// in\n    tag_202:\n      dup1\n      0x1f\n      add\n      0x20\n      dup1\n      swap2\n      div\n      mul\n      0x20\n      add\n      mload(0x40)\n      swap1\n      dup2\n      add\n      0x40\n      mstore\n      dup1\n      swap3\n      swap2\n      swap1\n      dup2\n      dup2\n      mstore\n      0x20\n      add\n      dup3\n      dup1\n      sload\n      tag_203\n      swap1\n      tag_164\n      jump\t// in\n    tag_203:\n      dup1\n      iszero\n      tag_204\n      jumpi\n      dup1\n      0x1f\n      lt\n      tag_205\n      jumpi\n      0x0100\n      dup1\n      dup4\n      sload\n      div\n      mul\n      dup4\n      mstore\n      swap2\n      0x20\n      add\n      swap2\n      jump(tag_204)\n    tag_205:\n      dup3\n      add\n      swap2\n      swap1\n      0x00\n      mstore\n      keccak256(0x00, 0x20)\n      swap1\n    tag_206:\n      dup2\n      sload\n      dup2\n      mstore\n      swap1\n      0x01\n      add\n      swap1\n      0x20\n      add\n      dup1\n      dup4\n      gt\n      tag_206\n      jumpi\n      dup3\n      swap1\n      sub\n      0x1f\n      and\n      dup3\n      add\n      swap2\n    tag_204:\n      pop\n      pop\n      pop\n      pop\n      pop\n      dup2\n      mstore\n      0x20\n      add\n      swap1\n      0x01\n      add\n      swap1\n      jump(tag_199)\n    tag_200:\n      pop\n      pop\n      pop\n      pop\n      swap1\n      pop\n        /* \"Documents/GitHub/Store-system-with-feedback/main.sol\":5439:5534  function getShopList() public view returns(string[] memory) {\r... */\n      swap1\n      jump\t// out\n        /* \"Documents/GitHub/Store-system-with-feedback/main.sol\":1297:1340  mapping(string => address) public shopLists */\n    tag_75:\n      0x01\n      dup2\n      dup1\n      mload\n      0x20\n      dup2\n      add\n      dup3\n      add\n      dup1\n      mload\n      dup5\n      dup3\n      mstore\n      0x20\n      dup4\n      add\n      0x20\n      dup6\n      add\n      keccak256\n      dup2\n      dup4\n      mstore\n      dup1\n      swap6\n      pop\n      pop\n      pop\n      pop\n      pop\n      pop\n      0x00\n      swap2\n      pop\n      sload\n      swap1\n      0x0100\n      exp\n      swap1\n      div\n      0xffffffffffffffffffffffffffffffffffffffff\n      and\n      dup2\n      jump\t// out\n        /* \"Documents/GitHub/Store-system-with-feedback/main.sol\":3219:3601  function leaveFeedback (string memory shop, string memory feedback, uint256 rating) public {\r... */\n    tag_80:\n        /* \"Documents/GitHub/Store-system-with-feedback/main.sol\":3339:3341  10 */\n      0x0a\n        /* \"Documents/GitHub/Store-system-with-feedback/main.sol\":3329:3335  rating */\n      dup2\n        /* \"Documents/GitHub/Store-system-with-feedback/main.sol\":3329:3341  rating <= 10 */\n      gt\n      iszero\n        /* \"Documents/GitHub/Store-system-with-feedback/main.sol\":3321:3378  require(rating <= 10,\"error: rating can be from 1 to 10\") */\n      tag_208\n      jumpi\n      mload(0x40)\n      0x08c379a000000000000000000000000000000000000000000000000000000000\n      dup2\n      mstore\n      0x04\n      add\n      tag_209\n      swap1\n      tag_210\n      jump\t// in\n    tag_209:\n      mload(0x40)\n      dup1\n      swap2\n      sub\n      swap1\n      revert\n    tag_208:\n        /* \"Documents/GitHub/Store-system-with-feedback/main.sol\":3389:3423  string[] memory zerroArrayComments */\n      0x60\n        /* \"Documents/GitHub/Store-system-with-feedback/main.sol\":3434:3464  uint[] memory zerroArrayRating */\n      dup1\n        /* \"Documents/GitHub/Store-system-with-feedback/main.sol\":3526:3593  complaintBook(shop, feedback, zerroArrayRating, zerroArrayComments) */\n      mload(0x40)\n      dup1\n      0x80\n      add\n      0x40\n      mstore\n      dup1\n        /* \"Documents/GitHub/Store-system-with-feedback/main.sol\":3540:3544  shop */\n      dup7\n        /* \"Documents/GitHub/Store-system-with-feedback/main.sol\":3526:3593  complaintBook(shop, feedback, zerroArrayRating, zerroArrayComments) */\n      dup2\n      mstore\n      0x20\n      add\n        /* \"Documents/GitHub/Store-system-with-feedback/main.sol\":3546:3554  feedback */\n      dup6\n        /* \"Documents/GitHub/Store-system-with-feedback/main.sol\":3526:3593  complaintBook(shop, feedback, zerroArrayRating, zerroArrayComments) */\n      dup2\n      mstore\n      0x20\n      add\n        /* \"Documents/GitHub/Store-system-with-feedback/main.sol\":3556:3572  zerroArrayRating */\n      dup3\n        /* \"Documents/GitHub/Store-system-with-feedback/main.sol\":3526:3593  complaintBook(shop, feedback, zerroArrayRating, zerroArrayComments) */\n      dup2\n      mstore\n      0x20\n      add\n        /* \"Documents/GitHub/Store-system-with-feedback/main.sol\":3574:3592  zerroArrayComments */\n      dup4\n        /* \"Documents/GitHub/Store-system-with-feedback/main.sol\":3526:3593  complaintBook(shop, feedback, zerroArrayRating, zerroArrayComments) */\n      dup2\n      mstore\n      pop\n        /* \"Documents/GitHub/Store-system-with-feedback/main.sol\":3475:3489  complaintBooks */\n      0x03\n        /* \"Documents/GitHub/Store-system-with-feedback/main.sol\":3490:3501  structUsers */\n      0x04\n        /* \"Documents/GitHub/Store-system-with-feedback/main.sol\":3490:3513  structUsers[msg.sender] */\n      0x00\n        /* \"Documents/GitHub/Store-system-with-feedback/main.sol\":3502:3512  msg.sender */\n      caller\n        /* \"Documents/GitHub/Store-system-with-feedback/main.sol\":3490:3513  structUsers[msg.sender] */\n      0xffffffffffffffffffffffffffffffffffffffff\n      and\n      0xffffffffffffffffffffffffffffffffffffffff\n      and\n      dup2\n      mstore\n      0x20\n      add\n      swap1\n      dup2\n      mstore\n      0x20\n      add\n      0x00\n      keccak256\n        /* \"Documents/GitHub/Store-system-with-feedback/main.sol\":3490:3522  structUsers[msg.sender].userName */\n      0x00\n      add\n        /* \"Documents/GitHub/Store-system-with-feedback/main.sol\":3475:3523  complaintBooks[structUsers[msg.sender].userName] */\n      mload(0x40)\n      tag_211\n      swap2\n      swap1\n      tag_108\n      jump\t// in\n    tag_211:\n      swap1\n      dup2\n      mstore\n      0x20\n      add\n      mload(0x40)\n      dup1\n      swap2\n      sub\n      swap1\n      keccak256\n        /* \"Documents/GitHub/Store-system-with-feedback/main.sol\":3475:3593  complaintBooks[structUsers[msg.sender].userName] = complaintBook(shop, feedback, zerroArrayRating, zerroArrayComments) */\n      0x00\n      dup3\n      add\n      mload\n      dup2\n      0x00\n      add\n      swap1\n      dup1\n      mload\n      swap1\n      0x20\n      add\n      swap1\n      tag_212\n      swap3\n      swap2\n      swap1\n      tag_135\n      jump\t// in\n    tag_212:\n      pop\n      0x20\n      dup3\n      add\n      mload\n      dup2\n      0x01\n      add\n      swap1\n      dup1\n      mload\n      swap1\n      0x20\n      add\n      swap1\n      tag_213\n      swap3\n      swap2\n      swap1\n      tag_135\n      jump\t// in\n    tag_213:\n      pop\n      0x40\n      dup3\n      add\n      mload\n      dup2\n      0x02\n      add\n      swap1\n      dup1\n      mload\n      swap1\n      0x20\n      add\n      swap1\n      tag_214\n      swap3\n      swap2\n      swap1\n      tag_215\n      jump\t// in\n    tag_214:\n      pop\n      0x60\n      dup3\n      add\n      mload\n      dup2\n      0x03\n      add\n      swap1\n      dup1\n      mload\n      swap1\n      0x20\n      add\n      swap1\n      tag_216\n      swap3\n      swap2\n      swap1\n      tag_217\n      jump\t// in\n    tag_216:\n      pop\n      swap1\n      pop\n      pop\n        /* \"Documents/GitHub/Store-system-with-feedback/main.sol\":3310:3601  {\r... */\n      pop\n      pop\n        /* \"Documents/GitHub/Store-system-with-feedback/main.sol\":3219:3601  function leaveFeedback (string memory shop, string memory feedback, uint256 rating) public {\r... */\n      pop\n      pop\n      pop\n      jump\t// out\n        /* \"Documents/GitHub/Store-system-with-feedback/main.sol\":2037:2091  mapping(string => structProduct) public structProducts */\n    tag_83:\n      0x07\n      dup2\n      dup1\n      mload\n      0x20\n      dup2\n      add\n      dup3\n      add\n      dup1\n      mload\n      dup5\n      dup3\n      mstore\n      0x20\n      dup4\n      add\n      0x20\n      dup6\n      add\n      keccak256\n      dup2\n      dup4\n      mstore\n      dup1\n      swap6\n      pop\n      pop\n      pop\n      pop\n      pop\n      pop\n      0x00\n      swap2\n      pop\n      swap1\n      pop\n      dup1\n      0x00\n      add\n      0x00\n      swap1\n      sload\n      swap1\n      0x0100\n      exp\n      swap1\n      div\n      0xffffffffffffffffffffffffffffffffffffffff\n      and\n      swap1\n      dup1\n      0x01\n      add\n      dup1\n      sload\n      tag_218\n      swap1\n      tag_164\n      jump\t// in\n    tag_218:\n      dup1\n      0x1f\n      add\n      0x20\n      dup1\n      swap2\n      div\n      mul\n      0x20\n      add\n      mload(0x40)\n      swap1\n      dup2\n      add\n      0x40\n      mstore\n      dup1\n      swap3\n      swap2\n      swap1\n      dup2\n      dup2\n      mstore\n      0x20\n      add\n      dup3\n      dup1\n      sload\n      tag_219\n      swap1\n      tag_164\n      jump\t// in\n    tag_219:\n      dup1\n      iszero\n      tag_220\n      jumpi\n      dup1\n      0x1f\n      lt\n      tag_221\n      jumpi\n      0x0100\n      dup1\n      dup4\n      sload\n      div\n      mul\n      dup4\n      mstore\n      swap2\n      0x20\n      add\n      swap2\n      jump(tag_220)\n    tag_221:\n      dup3\n      add\n      swap2\n      swap1\n      0x00\n      mstore\n      keccak256(0x00, 0x20)\n      swap1\n    tag_222:\n      dup2\n      sload\n      dup2\n      mstore\n      swap1\n      0x01\n      add\n      swap1\n      0x20\n      add\n      dup1\n      dup4\n      gt\n      tag_222\n      jumpi\n      dup3\n      swap1\n      sub\n      0x1f\n      and\n      dup3\n      add\n      swap2\n    tag_220:\n      pop\n      pop\n      pop\n      pop\n      pop\n      swap1\n      dup1\n      0x02\n      add\n      sload\n      swap1\n      dup1\n      0x03\n      add\n      sload\n      swap1\n      pop\n      dup5\n      jump\t// out\n        /* \"Documents/GitHub/Store-system-with-feedback/main.sol\":2280:2331  structStatusPurchase[] public structStatusPurchases */\n    tag_88:\n      0x09\n      dup2\n      dup2\n      sload\n      dup2\n      lt\n      tag_223\n      jumpi\n      0x00\n      dup1\n      revert\n    tag_223:\n      swap1\n      0x00\n      mstore\n      keccak256(0x00, 0x20)\n      swap1\n      0x03\n      mul\n      add\n      0x00\n      swap2\n      pop\n      swap1\n      pop\n      dup1\n      0x00\n      add\n      0x00\n      swap1\n      sload\n      swap1\n      0x0100\n      exp\n      swap1\n      div\n      0xffffffffffffffffffffffffffffffffffffffff\n      and\n      swap1\n      dup1\n      0x01\n      add\n      dup1\n      sload\n      tag_225\n      swap1\n      tag_164\n      jump\t// in\n    tag_225:\n      dup1\n      0x1f\n      add\n      0x20\n      dup1\n      swap2\n      div\n      mul\n      0x20\n      add\n      mload(0x40)\n      swap1\n      dup2\n      add\n      0x40\n      mstore\n      dup1\n      swap3\n      swap2\n      swap1\n      dup2\n      dup2\n      mstore\n      0x20\n      add\n      dup3\n      dup1\n      sload\n      tag_226\n      swap1\n      tag_164\n      jump\t// in\n    tag_226:\n      dup1\n      iszero\n      tag_227\n      jumpi\n      dup1\n      0x1f\n      lt\n      tag_228\n      jumpi\n      0x0100\n      dup1\n      dup4\n      sload\n      div\n      mul\n      dup4\n      mstore\n      swap2\n      0x20\n      add\n      swap2\n      jump(tag_227)\n    tag_228:\n      dup3\n      add\n      swap2\n      swap1\n      0x00\n      mstore\n      keccak256(0x00, 0x20)\n      swap1\n    tag_229:\n      dup2\n      sload\n      dup2\n      mstore\n      swap1\n      0x01\n      add\n      swap1\n      0x20\n      add\n      dup1\n      dup4\n      gt\n      tag_229\n      jumpi\n      dup3\n      swap1\n      sub\n      0x1f\n      and\n      dup3\n      add\n      swap2\n    tag_227:\n      pop\n      pop\n      pop\n      pop\n      pop\n      swap1\n      dup1\n      0x02\n      add\n      0x00\n      swap1\n      sload\n      swap1\n      0x0100\n      exp\n      swap1\n      div\n      0xff\n      and\n      swap1\n      pop\n      dup4\n      jump\t// out\n        /* \"Documents/GitHub/Store-system-with-feedback/main.sol\":4828:5405  function MarriageRegistration(uint idMarriageRegistration, bool confirmation) public {\r... */\n    tag_92:\n        /* \"Documents/GitHub/Store-system-with-feedback/main.sol\":4943:4947  true */\n      0x01\n        /* \"Documents/GitHub/Store-system-with-feedback/main.sol\":4927:4947  confirmation == true */\n      iszero\n      iszero\n        /* \"Documents/GitHub/Store-system-with-feedback/main.sol\":4927:4939  confirmation */\n      dup2\n        /* \"Documents/GitHub/Store-system-with-feedback/main.sol\":4927:4947  confirmation == true */\n      iszero\n      iszero\n      eq\n        /* \"Documents/GitHub/Store-system-with-feedback/main.sol\":4924:5398  if(confirmation == true) {\r... */\n      iszero\n      tag_231\n      jumpi\n        /* \"Documents/GitHub/Store-system-with-feedback/main.sol\":5017:5022  false */\n      0x00\n        /* \"Documents/GitHub/Store-system-with-feedback/main.sol\":4964:4983  structStatusReturns */\n      0x0a\n        /* \"Documents/GitHub/Store-system-with-feedback/main.sol\":4984:5006  idMarriageRegistration */\n      dup4\n        /* \"Documents/GitHub/Store-system-with-feedback/main.sol\":4964:5007  structStatusReturns[idMarriageRegistration] */\n      dup2\n      sload\n      dup2\n      lt\n      tag_232\n      jumpi\n      tag_233\n      tag_102\n      jump\t// in\n    tag_233:\n    tag_232:\n      swap1\n      0x00\n      mstore\n      keccak256(0x00, 0x20)\n      swap1\n      0x03\n      mul\n      add\n        /* \"Documents/GitHub/Store-system-with-feedback/main.sol\":4964:5014  structStatusReturns[idMarriageRegistration].status */\n      0x02\n      add\n      0x00\n        /* \"Documents/GitHub/Store-system-with-feedback/main.sol\":4964:5022  structStatusReturns[idMarriageRegistration].status = false */\n      0x0100\n      exp\n      dup2\n      sload\n      dup2\n      0xff\n      mul\n      not\n      and\n      swap1\n      dup4\n      iszero\n      iszero\n      mul\n      or\n      swap1\n      sstore\n      pop\n        /* \"Documents/GitHub/Store-system-with-feedback/main.sol\":5209:5223  structProducts */\n      0x07\n        /* \"Documents/GitHub/Store-system-with-feedback/main.sol\":5224:5251  structMarriageRegistrations */\n      0x0b\n        /* \"Documents/GitHub/Store-system-with-feedback/main.sol\":5252:5274  idMarriageRegistration */\n      dup4\n        /* \"Documents/GitHub/Store-system-with-feedback/main.sol\":5224:5275  structMarriageRegistrations[idMarriageRegistration] */\n      dup2\n      sload\n      dup2\n      lt\n      tag_235\n      jumpi\n      tag_236\n      tag_102\n      jump\t// in\n    tag_236:\n    tag_235:\n      swap1\n      0x00\n      mstore\n      keccak256(0x00, 0x20)\n      swap1\n      0x03\n      mul\n      add\n        /* \"Documents/GitHub/Store-system-with-feedback/main.sol\":5224:5288  structMarriageRegistrations[idMarriageRegistration].titleProduct */\n      0x01\n      add\n        /* \"Documents/GitHub/Store-system-with-feedback/main.sol\":5209:5289  structProducts[structMarriageRegistrations[idMarriageRegistration].titleProduct] */\n      mload(0x40)\n      tag_238\n      swap2\n      swap1\n      tag_108\n      jump\t// in\n    tag_238:\n      swap1\n      dup2\n      mstore\n      0x20\n      add\n      mload(0x40)\n      dup1\n      swap2\n      sub\n      swap1\n      keccak256\n        /* \"Documents/GitHub/Store-system-with-feedback/main.sol\":5209:5295  structProducts[structMarriageRegistrations[idMarriageRegistration].titleProduct].price */\n      0x02\n      add\n      sload\n        /* \"Documents/GitHub/Store-system-with-feedback/main.sol\":5123:5134  structUsers */\n      0x04\n        /* \"Documents/GitHub/Store-system-with-feedback/main.sol\":5123:5197  structUsers[structMarriageRegistrations[idMarriageRegistration].userLogin] */\n      0x00\n        /* \"Documents/GitHub/Store-system-with-feedback/main.sol\":5135:5162  structMarriageRegistrations */\n      0x0b\n        /* \"Documents/GitHub/Store-system-with-feedback/main.sol\":5163:5185  idMarriageRegistration */\n      dup6\n        /* \"Documents/GitHub/Store-system-with-feedback/main.sol\":5135:5186  structMarriageRegistrations[idMarriageRegistration] */\n      dup2\n      sload\n      dup2\n      lt\n      tag_239\n      jumpi\n      tag_240\n      tag_102\n      jump\t// in\n    tag_240:\n    tag_239:\n      swap1\n      0x00\n      mstore\n      keccak256(0x00, 0x20)\n      swap1\n      0x03\n      mul\n      add\n        /* \"Documents/GitHub/Store-system-with-feedback/main.sol\":5135:5196  structMarriageRegistrations[idMarriageRegistration].userLogin */\n      0x00\n      add\n      0x00\n      swap1\n      sload\n      swap1\n      0x0100\n      exp\n      swap1\n      div\n      0xffffffffffffffffffffffffffffffffffffffff\n      and\n        /* \"Documents/GitHub/Store-system-with-feedback/main.sol\":5123:5197  structUsers[structMarriageRegistrations[idMarriageRegistration].userLogin] */\n      0xffffffffffffffffffffffffffffffffffffffff\n      and\n      0xffffffffffffffffffffffffffffffffffffffff\n      and\n      dup2\n      mstore\n      0x20\n      add\n      swap1\n      dup2\n      mstore\n      0x20\n      add\n      0x00\n      keccak256\n        /* \"Documents/GitHub/Store-system-with-feedback/main.sol\":5123:5206  structUsers[structMarriageRegistrations[idMarriageRegistration].userLogin].ballance */\n      0x02\n      add\n      sload\n        /* \"Documents/GitHub/Store-system-with-feedback/main.sol\":5123:5295  structUsers[structMarriageRegistrations[idMarriageRegistration].userLogin].ballance + structProducts[structMarriageRegistrations[idMarriageRegistration].titleProduct].price */\n      tag_242\n      swap2\n      swap1\n      tag_122\n      jump\t// in\n    tag_242:\n        /* \"Documents/GitHub/Store-system-with-feedback/main.sol\":5037:5048  structUsers */\n      0x04\n        /* \"Documents/GitHub/Store-system-with-feedback/main.sol\":5037:5111  structUsers[structMarriageRegistrations[idMarriageRegistration].userLogin] */\n      0x00\n        /* \"Documents/GitHub/Store-system-with-feedback/main.sol\":5049:5076  structMarriageRegistrations */\n      0x0b\n        /* \"Documents/GitHub/Store-system-with-feedback/main.sol\":5077:5099  idMarriageRegistration */\n      dup6\n        /* \"Documents/GitHub/Store-system-with-feedback/main.sol\":5049:5100  structMarriageRegistrations[idMarriageRegistration] */\n      dup2\n      sload\n      dup2\n      lt\n      tag_243\n      jumpi\n      tag_244\n      tag_102\n      jump\t// in\n    tag_244:\n    tag_243:\n      swap1\n      0x00\n      mstore\n      keccak256(0x00, 0x20)\n      swap1\n      0x03\n      mul\n      add\n        /* \"Documents/GitHub/Store-system-with-feedback/main.sol\":5049:5110  structMarriageRegistrations[idMarriageRegistration].userLogin */\n      0x00\n      add\n      0x00\n      swap1\n      sload\n      swap1\n      0x0100\n      exp\n      swap1\n      div\n      0xffffffffffffffffffffffffffffffffffffffff\n      and\n        /* \"Documents/GitHub/Store-system-with-feedback/main.sol\":5037:5111  structUsers[structMarriageRegistrations[idMarriageRegistration].userLogin] */\n      0xffffffffffffffffffffffffffffffffffffffff\n      and\n      0xffffffffffffffffffffffffffffffffffffffff\n      and\n      dup2\n      mstore\n      0x20\n      add\n      swap1\n      dup2\n      mstore\n      0x20\n      add\n      0x00\n      keccak256\n        /* \"Documents/GitHub/Store-system-with-feedback/main.sol\":5037:5120  structUsers[structMarriageRegistrations[idMarriageRegistration].userLogin].ballance */\n      0x02\n      add\n        /* \"Documents/GitHub/Store-system-with-feedback/main.sol\":5037:5295  structUsers[structMarriageRegistrations[idMarriageRegistration].userLogin].ballance = structUsers[structMarriageRegistrations[idMarriageRegistration].userLogin].ballance + structProducts[structMarriageRegistrations[idMarriageRegistration].titleProduct].price */\n      dup2\n      swap1\n      sstore\n      pop\n        /* \"Documents/GitHub/Store-system-with-feedback/main.sol\":4924:5398  if(confirmation == true) {\r... */\n      jump(tag_246)\n    tag_231:\n        /* \"Documents/GitHub/Store-system-with-feedback/main.sol\":5381:5386  false */\n      0x00\n        /* \"Documents/GitHub/Store-system-with-feedback/main.sol\":5328:5347  structStatusReturns */\n      0x0a\n        /* \"Documents/GitHub/Store-system-with-feedback/main.sol\":5348:5370  idMarriageRegistration */\n      dup4\n        /* \"Documents/GitHub/Store-system-with-feedback/main.sol\":5328:5371  structStatusReturns[idMarriageRegistration] */\n      dup2\n      sload\n      dup2\n      lt\n      tag_247\n      jumpi\n      tag_248\n      tag_102\n      jump\t// in\n    tag_248:\n    tag_247:\n      swap1\n      0x00\n      mstore\n      keccak256(0x00, 0x20)\n      swap1\n      0x03\n      mul\n      add\n        /* \"Documents/GitHub/Store-system-with-feedback/main.sol\":5328:5378  structStatusReturns[idMarriageRegistration].status */\n      0x02\n      add\n      0x00\n        /* \"Documents/GitHub/Store-system-with-feedback/main.sol\":5328:5386  structStatusReturns[idMarriageRegistration].status = false */\n      0x0100\n      exp\n      dup2\n      sload\n      dup2\n      0xff\n      mul\n      not\n      and\n      swap1\n      dup4\n      iszero\n      iszero\n      mul\n      or\n      swap1\n      sstore\n      pop\n        /* \"Documents/GitHub/Store-system-with-feedback/main.sol\":4924:5398  if(confirmation == true) {\r... */\n    tag_246:\n        /* \"Documents/GitHub/Store-system-with-feedback/main.sol\":4828:5405  function MarriageRegistration(uint idMarriageRegistration, bool confirmation) public {\r... */\n      pop\n      pop\n      jump\t// out\n        /* \"Documents/GitHub/Store-system-with-feedback/main.sol\":1538:1592  mapping(string => complaintBook) public complaintBooks */\n    tag_95:\n      0x03\n      dup2\n      dup1\n      mload\n      0x20\n      dup2\n      add\n      dup3\n      add\n      dup1\n      mload\n      dup5\n      dup3\n      mstore\n      0x20\n      dup4\n      add\n      0x20\n      dup6\n      add\n      keccak256\n      dup2\n      dup4\n      mstore\n      dup1\n      swap6\n      pop\n      pop\n      pop\n      pop\n      pop\n      pop\n      0x00\n      swap2\n      pop\n      swap1\n      pop\n      dup1\n      0x00\n      add\n      dup1\n      sload\n      tag_250\n      swap1\n      tag_164\n      jump\t// in\n    tag_250:\n      dup1\n      0x1f\n      add\n      0x20\n      dup1\n      swap2\n      div\n      mul\n      0x20\n      add\n      mload(0x40)\n      swap1\n      dup2\n      add\n      0x40\n      mstore\n      dup1\n      swap3\n      swap2\n      swap1\n      dup2\n      dup2\n      mstore\n      0x20\n      add\n      dup3\n      dup1\n      sload\n      tag_251\n      swap1\n      tag_164\n      jump\t// in\n    tag_251:\n      dup1\n      iszero\n      tag_252\n      jumpi\n      dup1\n      0x1f\n      lt\n      tag_253\n      jumpi\n      0x0100\n      dup1\n      dup4\n      sload\n      div\n      mul\n      dup4\n      mstore\n      swap2\n      0x20\n      add\n      swap2\n      jump(tag_252)\n    tag_253:\n      dup3\n      add\n      swap2\n      swap1\n      0x00\n      mstore\n      keccak256(0x00, 0x20)\n      swap1\n    tag_254:\n      dup2\n      sload\n      dup2\n      mstore\n      swap1\n      0x01\n      add\n      swap1\n      0x20\n      add\n      dup1\n      dup4\n      gt\n      tag_254\n      jumpi\n      dup3\n      swap1\n      sub\n      0x1f\n      and\n      dup3\n      add\n      swap2\n    tag_252:\n      pop\n      pop\n      pop\n      pop\n      pop\n      swap1\n      dup1\n      0x01\n      add\n      dup1\n      sload\n      tag_255\n      swap1\n      tag_164\n      jump\t// in\n    tag_255:\n      dup1\n      0x1f\n      add\n      0x20\n      dup1\n      swap2\n      div\n      mul\n      0x20\n      add\n      mload(0x40)\n      swap1\n      dup2\n      add\n      0x40\n      mstore\n      dup1\n      swap3\n      swap2\n      swap1\n      dup2\n      dup2\n      mstore\n      0x20\n      add\n      dup3\n      dup1\n      sload\n      tag_256\n      swap1\n      tag_164\n      jump\t// in\n    tag_256:\n      dup1\n      iszero\n      tag_257\n      jumpi\n      dup1\n      0x1f\n      lt\n      tag_258\n      jumpi\n      0x0100\n      dup1\n      dup4\n      sload\n      div\n      mul\n      dup4\n      mstore\n      swap2\n      0x20\n      add\n      swap2\n      jump(tag_257)\n    tag_258:\n      dup3\n      add\n      swap2\n      swap1\n      0x00\n      mstore\n      keccak256(0x00, 0x20)\n      swap1\n    tag_259:\n      dup2\n      sload\n      dup2\n      mstore\n      swap1\n      0x01\n      add\n      swap1\n      0x20\n      add\n      dup1\n      dup4\n      gt\n      tag_259\n      jumpi\n      dup3\n      swap1\n      sub\n      0x1f\n      and\n      dup3\n      add\n      swap2\n    tag_257:\n      pop\n      pop\n      pop\n      pop\n      pop\n      swap1\n      pop\n      dup3\n      jump\t// out\n    tag_135:\n      dup3\n      dup1\n      sload\n      tag_260\n      swap1\n      tag_164\n      jump\t// in\n    tag_260:\n      swap1\n      0x00\n      mstore\n      keccak256(0x00, 0x20)\n      swap1\n      0x1f\n      add\n      0x20\n      swap1\n      div\n      dup2\n      add\n      swap3\n      dup3\n      tag_262\n      jumpi\n      0x00\n      dup6\n      sstore\n      jump(tag_261)\n    tag_262:\n      dup3\n      0x1f\n      lt\n      tag_263\n      jumpi\n      dup1\n      mload\n      not(0xff)\n      and\n      dup4\n      dup1\n      add\n      or\n      dup6\n      sstore\n      jump(tag_261)\n    tag_263:\n      dup3\n      dup1\n      add\n      0x01\n      add\n      dup6\n      sstore\n      dup3\n      iszero\n      tag_261\n      jumpi\n      swap2\n      dup3\n      add\n    tag_264:\n      dup3\n      dup2\n      gt\n      iszero\n      tag_265\n      jumpi\n      dup3\n      mload\n      dup3\n      sstore\n      swap2\n      0x20\n      add\n      swap2\n      swap1\n      0x01\n      add\n      swap1\n      jump(tag_264)\n    tag_265:\n    tag_261:\n      pop\n      swap1\n      pop\n      tag_266\n      swap2\n      swap1\n      tag_267\n      jump\t// in\n    tag_266:\n      pop\n      swap1\n      jump\t// out\n    tag_215:\n      dup3\n      dup1\n      sload\n      dup3\n      dup3\n      sstore\n      swap1\n      0x00\n      mstore\n      keccak256(0x00, 0x20)\n      swap1\n      dup2\n      add\n      swap3\n      dup3\n      iszero\n      tag_268\n      jumpi\n      swap2\n      0x20\n      mul\n      dup3\n      add\n    tag_269:\n      dup3\n      dup2\n      gt\n      iszero\n      tag_270\n      jumpi\n      dup3\n      mload\n      dup3\n      sstore\n      swap2\n      0x20\n      add\n      swap2\n      swap1\n      0x01\n      add\n      swap1\n      jump(tag_269)\n    tag_270:\n    tag_268:\n      pop\n      swap1\n      pop\n      tag_271\n      swap2\n      swap1\n      tag_267\n      jump\t// in\n    tag_271:\n      pop\n      swap1\n      jump\t// out\n    tag_217:\n      dup3\n      dup1\n      sload\n      dup3\n      dup3\n      sstore\n      swap1\n      0x00\n      mstore\n      keccak256(0x00, 0x20)\n      swap1\n      dup2\n      add\n      swap3\n      dup3\n      iszero\n      tag_272\n      jumpi\n      swap2\n      0x20\n      mul\n      dup3\n      add\n    tag_273:\n      dup3\n      dup2\n      gt\n      iszero\n      tag_274\n      jumpi\n      dup3\n      mload\n      dup3\n      swap1\n      dup1\n      mload\n      swap1\n      0x20\n      add\n      swap1\n      tag_275\n      swap3\n      swap2\n      swap1\n      tag_135\n      jump\t// in\n    tag_275:\n      pop\n      swap2\n      0x20\n      add\n      swap2\n      swap1\n      0x01\n      add\n      swap1\n      jump(tag_273)\n    tag_274:\n    tag_272:\n      pop\n      swap1\n      pop\n      tag_276\n      swap2\n      swap1\n      tag_277\n      jump\t// in\n    tag_276:\n      pop\n      swap1\n      jump\t// out\n    tag_267:\n    tag_278:\n      dup1\n      dup3\n      gt\n      iszero\n      tag_279\n      jumpi\n      0x00\n      dup2\n      0x00\n      swap1\n      sstore\n      pop\n      0x01\n      add\n      jump(tag_278)\n    tag_279:\n      pop\n      swap1\n      jump\t// out\n    tag_277:\n    tag_280:\n      dup1\n      dup3\n      gt\n      iszero\n      tag_281\n      jumpi\n      0x00\n      dup2\n      dup2\n      tag_282\n      swap2\n      swap1\n      tag_283\n      jump\t// in\n    tag_282:\n      pop\n      0x01\n      add\n      jump(tag_280)\n    tag_281:\n      pop\n      swap1\n      jump\t// out\n    tag_283:\n      pop\n      dup1\n      sload\n      tag_284\n      swap1\n      tag_164\n      jump\t// in\n    tag_284:\n      0x00\n      dup3\n      sstore\n      dup1\n      0x1f\n      lt\n      tag_286\n      jumpi\n      pop\n      jump(tag_285)\n    tag_286:\n      0x1f\n      add\n      0x20\n      swap1\n      div\n      swap1\n      0x00\n      mstore\n      keccak256(0x00, 0x20)\n      swap1\n      dup2\n      add\n      swap1\n      tag_287\n      swap2\n      swap1\n      tag_267\n      jump\t// in\n    tag_287:\n    tag_285:\n      pop\n      jump\t// out\n        /* \"#utility.yul\":7:419   */\n    tag_289:\n        /* \"#utility.yul\":85:90   */\n      0x00\n        /* \"#utility.yul\":110:176   */\n      tag_291\n        /* \"#utility.yul\":126:175   */\n      tag_292\n        /* \"#utility.yul\":168:174   */\n      dup5\n        /* \"#utility.yul\":126:175   */\n      tag_293\n      jump\t// in\n    tag_292:\n        /* \"#utility.yul\":110:176   */\n      tag_294\n      jump\t// in\n    tag_291:\n        /* \"#utility.yul\":101:176   */\n      swap1\n      pop\n        /* \"#utility.yul\":199:205   */\n      dup3\n        /* \"#utility.yul\":192:197   */\n      dup2\n        /* \"#utility.yul\":185:206   */\n      mstore\n        /* \"#utility.yul\":237:241   */\n      0x20\n        /* \"#utility.yul\":230:235   */\n      dup2\n        /* \"#utility.yul\":226:242   */\n      add\n        /* \"#utility.yul\":275:278   */\n      dup5\n        /* \"#utility.yul\":266:272   */\n      dup5\n        /* \"#utility.yul\":261:264   */\n      dup5\n        /* \"#utility.yul\":257:273   */\n      add\n        /* \"#utility.yul\":254:279   */\n      gt\n        /* \"#utility.yul\":251:363   */\n      iszero\n      tag_295\n      jumpi\n        /* \"#utility.yul\":282:361   */\n      tag_296\n      tag_297\n      jump\t// in\n    tag_296:\n        /* \"#utility.yul\":251:363   */\n    tag_295:\n        /* \"#utility.yul\":372:413   */\n      tag_298\n        /* \"#utility.yul\":406:412   */\n      dup5\n        /* \"#utility.yul\":401:404   */\n      dup3\n        /* \"#utility.yul\":396:399   */\n      dup6\n        /* \"#utility.yul\":372:413   */\n      tag_299\n      jump\t// in\n    tag_298:\n        /* \"#utility.yul\":91:419   */\n      pop\n        /* \"#utility.yul\":7:419   */\n      swap4\n      swap3\n      pop\n      pop\n      pop\n      jump\t// out\n        /* \"#utility.yul\":425:564   */\n    tag_300:\n        /* \"#utility.yul\":471:476   */\n      0x00\n        /* \"#utility.yul\":509:515   */\n      dup2\n        /* \"#utility.yul\":496:516   */\n      calldataload\n        /* \"#utility.yul\":487:516   */\n      swap1\n      pop\n        /* \"#utility.yul\":525:558   */\n      tag_302\n        /* \"#utility.yul\":552:557   */\n      dup2\n        /* \"#utility.yul\":525:558   */\n      tag_303\n      jump\t// in\n    tag_302:\n        /* \"#utility.yul\":425:564   */\n      swap3\n      swap2\n      pop\n      pop\n      jump\t// out\n        /* \"#utility.yul\":570:703   */\n    tag_304:\n        /* \"#utility.yul\":613:618   */\n      0x00\n        /* \"#utility.yul\":651:657   */\n      dup2\n        /* \"#utility.yul\":638:658   */\n      calldataload\n        /* \"#utility.yul\":629:658   */\n      swap1\n      pop\n        /* \"#utility.yul\":667:697   */\n      tag_306\n        /* \"#utility.yul\":691:696   */\n      dup2\n        /* \"#utility.yul\":667:697   */\n      tag_307\n      jump\t// in\n    tag_306:\n        /* \"#utility.yul\":570:703   */\n      swap3\n      swap2\n      pop\n      pop\n      jump\t// out\n        /* \"#utility.yul\":723:1063   */\n    tag_308:\n        /* \"#utility.yul\":779:784   */\n      0x00\n        /* \"#utility.yul\":828:831   */\n      dup3\n        /* \"#utility.yul\":821:825   */\n      0x1f\n        /* \"#utility.yul\":813:819   */\n      dup4\n        /* \"#utility.yul\":809:826   */\n      add\n        /* \"#utility.yul\":805:832   */\n      slt\n        /* \"#utility.yul\":795:917   */\n      tag_310\n      jumpi\n        /* \"#utility.yul\":836:915   */\n      tag_311\n      tag_312\n      jump\t// in\n    tag_311:\n        /* \"#utility.yul\":795:917   */\n    tag_310:\n        /* \"#utility.yul\":953:959   */\n      dup2\n        /* \"#utility.yul\":940:960   */\n      calldataload\n        /* \"#utility.yul\":978:1057   */\n      tag_313\n        /* \"#utility.yul\":1053:1056   */\n      dup5\n        /* \"#utility.yul\":1045:1051   */\n      dup3\n        /* \"#utility.yul\":1038:1042   */\n      0x20\n        /* \"#utility.yul\":1030:1036   */\n      dup7\n        /* \"#utility.yul\":1026:1043   */\n      add\n        /* \"#utility.yul\":978:1057   */\n      tag_289\n      jump\t// in\n    tag_313:\n        /* \"#utility.yul\":969:1057   */\n      swap2\n      pop\n        /* \"#utility.yul\":785:1063   */\n      pop\n        /* \"#utility.yul\":723:1063   */\n      swap3\n      swap2\n      pop\n      pop\n      jump\t// out\n        /* \"#utility.yul\":1069:1208   */\n    tag_314:\n        /* \"#utility.yul\":1115:1120   */\n      0x00\n        /* \"#utility.yul\":1153:1159   */\n      dup2\n        /* \"#utility.yul\":1140:1160   */\n      calldataload\n        /* \"#utility.yul\":1131:1160   */\n      swap1\n      pop\n        /* \"#utility.yul\":1169:1202   */\n      tag_316\n        /* \"#utility.yul\":1196:1201   */\n      dup2\n        /* \"#utility.yul\":1169:1202   */\n      tag_317\n      jump\t// in\n    tag_316:\n        /* \"#utility.yul\":1069:1208   */\n      swap3\n      swap2\n      pop\n      pop\n      jump\t// out\n        /* \"#utility.yul\":1214:1543   */\n    tag_59:\n        /* \"#utility.yul\":1273:1279   */\n      0x00\n        /* \"#utility.yul\":1322:1324   */\n      0x20\n        /* \"#utility.yul\":1310:1319   */\n      dup3\n        /* \"#utility.yul\":1301:1308   */\n      dup5\n        /* \"#utility.yul\":1297:1320   */\n      sub\n        /* \"#utility.yul\":1293:1325   */\n      slt\n        /* \"#utility.yul\":1290:1409   */\n      iszero\n      tag_319\n      jumpi\n        /* \"#utility.yul\":1328:1407   */\n      tag_320\n      tag_321\n      jump\t// in\n    tag_320:\n        /* \"#utility.yul\":1290:1409   */\n    tag_319:\n        /* \"#utility.yul\":1448:1449   */\n      0x00\n        /* \"#utility.yul\":1473:1526   */\n      tag_322\n        /* \"#utility.yul\":1518:1525   */\n      dup5\n        /* \"#utility.yul\":1509:1515   */\n      dup3\n        /* \"#utility.yul\":1498:1507   */\n      dup6\n        /* \"#utility.yul\":1494:1516   */\n      add\n        /* \"#utility.yul\":1473:1526   */\n      tag_300\n      jump\t// in\n    tag_322:\n        /* \"#utility.yul\":1463:1526   */\n      swap2\n      pop\n        /* \"#utility.yul\":1419:1536   */\n      pop\n        /* \"#utility.yul\":1214:1543   */\n      swap3\n      swap2\n      pop\n      pop\n      jump\t// out\n        /* \"#utility.yul\":1549:2058   */\n    tag_30:\n        /* \"#utility.yul\":1618:1624   */\n      0x00\n        /* \"#utility.yul\":1667:1669   */\n      0x20\n        /* \"#utility.yul\":1655:1664   */\n      dup3\n        /* \"#utility.yul\":1646:1653   */\n      dup5\n        /* \"#utility.yul\":1642:1665   */\n      sub\n        /* \"#utility.yul\":1638:1670   */\n      slt\n        /* \"#utility.yul\":1635:1754   */\n      iszero\n      tag_324\n      jumpi\n        /* \"#utility.yul\":1673:1752   */\n      tag_325\n      tag_321\n      jump\t// in\n    tag_325:\n        /* \"#utility.yul\":1635:1754   */\n    tag_324:\n        /* \"#utility.yul\":1821:1822   */\n      0x00\n        /* \"#utility.yul\":1810:1819   */\n      dup3\n        /* \"#utility.yul\":1806:1823   */\n      add\n        /* \"#utility.yul\":1793:1824   */\n      calldataload\n        /* \"#utility.yul\":1851:1869   */\n      0xffffffffffffffff\n        /* \"#utility.yul\":1843:1849   */\n      dup2\n        /* \"#utility.yul\":1840:1870   */\n      gt\n        /* \"#utility.yul\":1837:1954   */\n      iszero\n      tag_326\n      jumpi\n        /* \"#utility.yul\":1873:1952   */\n      tag_327\n      tag_328\n      jump\t// in\n    tag_327:\n        /* \"#utility.yul\":1837:1954   */\n    tag_326:\n        /* \"#utility.yul\":1978:2041   */\n      tag_329\n        /* \"#utility.yul\":2033:2040   */\n      dup5\n        /* \"#utility.yul\":2024:2030   */\n      dup3\n        /* \"#utility.yul\":2013:2022   */\n      dup6\n        /* \"#utility.yul\":2009:2031   */\n      add\n        /* \"#utility.yul\":1978:2041   */\n      tag_308\n      jump\t// in\n    tag_329:\n        /* \"#utility.yul\":1968:2041   */\n      swap2\n      pop\n        /* \"#utility.yul\":1764:2051   */\n      pop\n        /* \"#utility.yul\":1549:2058   */\n      swap3\n      swap2\n      pop\n      pop\n      jump\t// out\n        /* \"#utility.yul\":2064:3043   */\n    tag_79:\n        /* \"#utility.yul\":2161:2167   */\n      0x00\n        /* \"#utility.yul\":2169:2175   */\n      dup1\n        /* \"#utility.yul\":2177:2183   */\n      0x00\n        /* \"#utility.yul\":2226:2228   */\n      0x60\n        /* \"#utility.yul\":2214:2223   */\n      dup5\n        /* \"#utility.yul\":2205:2212   */\n      dup7\n        /* \"#utility.yul\":2201:2224   */\n      sub\n        /* \"#utility.yul\":2197:2229   */\n      slt\n        /* \"#utility.yul\":2194:2313   */\n      iszero\n      tag_331\n      jumpi\n        /* \"#utility.yul\":2232:2311   */\n      tag_332\n      tag_321\n      jump\t// in\n    tag_332:\n        /* \"#utility.yul\":2194:2313   */\n    tag_331:\n        /* \"#utility.yul\":2380:2381   */\n      0x00\n        /* \"#utility.yul\":2369:2378   */\n      dup5\n        /* \"#utility.yul\":2365:2382   */\n      add\n        /* \"#utility.yul\":2352:2383   */\n      calldataload\n        /* \"#utility.yul\":2410:2428   */\n      0xffffffffffffffff\n        /* \"#utility.yul\":2402:2408   */\n      dup2\n        /* \"#utility.yul\":2399:2429   */\n      gt\n        /* \"#utility.yul\":2396:2513   */\n      iszero\n      tag_333\n      jumpi\n        /* \"#utility.yul\":2432:2511   */\n      tag_334\n      tag_328\n      jump\t// in\n    tag_334:\n        /* \"#utility.yul\":2396:2513   */\n    tag_333:\n        /* \"#utility.yul\":2537:2600   */\n      tag_335\n        /* \"#utility.yul\":2592:2599   */\n      dup7\n        /* \"#utility.yul\":2583:2589   */\n      dup3\n        /* \"#utility.yul\":2572:2581   */\n      dup8\n        /* \"#utility.yul\":2568:2590   */\n      add\n        /* \"#utility.yul\":2537:2600   */\n      tag_308\n      jump\t// in\n    tag_335:\n        /* \"#utility.yul\":2527:2600   */\n      swap4\n      pop\n        /* \"#utility.yul\":2323:2610   */\n      pop\n        /* \"#utility.yul\":2677:2679   */\n      0x20\n        /* \"#utility.yul\":2666:2675   */\n      dup5\n        /* \"#utility.yul\":2662:2680   */\n      add\n        /* \"#utility.yul\":2649:2681   */\n      calldataload\n        /* \"#utility.yul\":2708:2726   */\n      0xffffffffffffffff\n        /* \"#utility.yul\":2700:2706   */\n      dup2\n        /* \"#utility.yul\":2697:2727   */\n      gt\n        /* \"#utility.yul\":2694:2811   */\n      iszero\n      tag_336\n      jumpi\n        /* \"#utility.yul\":2730:2809   */\n      tag_337\n      tag_328\n      jump\t// in\n    tag_337:\n        /* \"#utility.yul\":2694:2811   */\n    tag_336:\n        /* \"#utility.yul\":2835:2898   */\n      tag_338\n        /* \"#utility.yul\":2890:2897   */\n      dup7\n        /* \"#utility.yul\":2881:2887   */\n      dup3\n        /* \"#utility.yul\":2870:2879   */\n      dup8\n        /* \"#utility.yul\":2866:2888   */\n      add\n        /* \"#utility.yul\":2835:2898   */\n      tag_308\n      jump\t// in\n    tag_338:\n        /* \"#utility.yul\":2825:2898   */\n      swap3\n      pop\n        /* \"#utility.yul\":2620:2908   */\n      pop\n        /* \"#utility.yul\":2947:2949   */\n      0x40\n        /* \"#utility.yul\":2973:3026   */\n      tag_339\n        /* \"#utility.yul\":3018:3025   */\n      dup7\n        /* \"#utility.yul\":3009:3015   */\n      dup3\n        /* \"#utility.yul\":2998:3007   */\n      dup8\n        /* \"#utility.yul\":2994:3016   */\n      add\n        /* \"#utility.yul\":2973:3026   */\n      tag_314\n      jump\t// in\n    tag_339:\n        /* \"#utility.yul\":2963:3026   */\n      swap2\n      pop\n        /* \"#utility.yul\":2918:3036   */\n      pop\n        /* \"#utility.yul\":2064:3043   */\n      swap3\n      pop\n      swap3\n      pop\n      swap3\n      jump\t// out\n        /* \"#utility.yul\":3049:4028   */\n    tag_49:\n        /* \"#utility.yul\":3146:3152   */\n      0x00\n        /* \"#utility.yul\":3154:3160   */\n      dup1\n        /* \"#utility.yul\":3162:3168   */\n      0x00\n        /* \"#utility.yul\":3211:3213   */\n      0x60\n        /* \"#utility.yul\":3199:3208   */\n      dup5\n        /* \"#utility.yul\":3190:3197   */\n      dup7\n        /* \"#utility.yul\":3186:3209   */\n      sub\n        /* \"#utility.yul\":3182:3214   */\n      slt\n        /* \"#utility.yul\":3179:3298   */\n      iszero\n      tag_341\n      jumpi\n        /* \"#utility.yul\":3217:3296   */\n      tag_342\n      tag_321\n      jump\t// in\n    tag_342:\n        /* \"#utility.yul\":3179:3298   */\n    tag_341:\n        /* \"#utility.yul\":3365:3366   */\n      0x00\n        /* \"#utility.yul\":3354:3363   */\n      dup5\n        /* \"#utility.yul\":3350:3367   */\n      add\n        /* \"#utility.yul\":3337:3368   */\n      calldataload\n        /* \"#utility.yul\":3395:3413   */\n      0xffffffffffffffff\n        /* \"#utility.yul\":3387:3393   */\n      dup2\n        /* \"#utility.yul\":3384:3414   */\n      gt\n        /* \"#utility.yul\":3381:3498   */\n      iszero\n      tag_343\n      jumpi\n        /* \"#utility.yul\":3417:3496   */\n      tag_344\n      tag_328\n      jump\t// in\n    tag_344:\n        /* \"#utility.yul\":3381:3498   */\n    tag_343:\n        /* \"#utility.yul\":3522:3585   */\n      tag_345\n        /* \"#utility.yul\":3577:3584   */\n      dup7\n        /* \"#utility.yul\":3568:3574   */\n      dup3\n        /* \"#utility.yul\":3557:3566   */\n      dup8\n        /* \"#utility.yul\":3553:3575   */\n      add\n        /* \"#utility.yul\":3522:3585   */\n      tag_308\n      jump\t// in\n    tag_345:\n        /* \"#utility.yul\":3512:3585   */\n      swap4\n      pop\n        /* \"#utility.yul\":3308:3595   */\n      pop\n        /* \"#utility.yul\":3634:3636   */\n      0x20\n        /* \"#utility.yul\":3660:3713   */\n      tag_346\n        /* \"#utility.yul\":3705:3712   */\n      dup7\n        /* \"#utility.yul\":3696:3702   */\n      dup3\n        /* \"#utility.yul\":3685:3694   */\n      dup8\n        /* \"#utility.yul\":3681:3703   */\n      add\n        /* \"#utility.yul\":3660:3713   */\n      tag_314\n      jump\t// in\n    tag_346:\n        /* \"#utility.yul\":3650:3713   */\n      swap3\n      pop\n        /* \"#utility.yul\":3605:3723   */\n      pop\n        /* \"#utility.yul\":3790:3792   */\n      0x40\n        /* \"#utility.yul\":3779:3788   */\n      dup5\n        /* \"#utility.yul\":3775:3793   */\n      add\n        /* \"#utility.yul\":3762:3794   */\n      calldataload\n        /* \"#utility.yul\":3821:3839   */\n      0xffffffffffffffff\n        /* \"#utility.yul\":3813:3819   */\n      dup2\n        /* \"#utility.yul\":3810:3840   */\n      gt\n        /* \"#utility.yul\":3807:3924   */\n      iszero\n      tag_347\n      jumpi\n        /* \"#utility.yul\":3843:3922   */\n      tag_348\n      tag_328\n      jump\t// in\n    tag_348:\n        /* \"#utility.yul\":3807:3924   */\n    tag_347:\n        /* \"#utility.yul\":3948:4011   */\n      tag_349\n        /* \"#utility.yul\":4003:4010   */\n      dup7\n        /* \"#utility.yul\":3994:4000   */\n      dup3\n        /* \"#utility.yul\":3983:3992   */\n      dup8\n        /* \"#utility.yul\":3979:4001   */\n      add\n        /* \"#utility.yul\":3948:4011   */\n      tag_308\n      jump\t// in\n    tag_349:\n        /* \"#utility.yul\":3938:4011   */\n      swap2\n      pop\n        /* \"#utility.yul\":3733:4021   */\n      pop\n        /* \"#utility.yul\":3049:4028   */\n      swap3\n      pop\n      swap3\n      pop\n      swap3\n      jump\t// out\n        /* \"#utility.yul\":4034:4363   */\n    tag_53:\n        /* \"#utility.yul\":4093:4099   */\n      0x00\n        /* \"#utility.yul\":4142:4144   */\n      0x20\n        /* \"#utility.yul\":4130:4139   */\n      dup3\n        /* \"#utility.yul\":4121:4128   */\n      dup5\n        /* \"#utility.yul\":4117:4140   */\n      sub\n        /* \"#utility.yul\":4113:4145   */\n      slt\n        /* \"#utility.yul\":4110:4229   */\n      iszero\n      tag_351\n      jumpi\n        /* \"#utility.yul\":4148:4227   */\n      tag_352\n      tag_321\n      jump\t// in\n    tag_352:\n        /* \"#utility.yul\":4110:4229   */\n    tag_351:\n        /* \"#utility.yul\":4268:4269   */\n      0x00\n        /* \"#utility.yul\":4293:4346   */\n      tag_353\n        /* \"#utility.yul\":4338:4345   */\n      dup5\n        /* \"#utility.yul\":4329:4335   */\n      dup3\n        /* \"#utility.yul\":4318:4327   */\n      dup6\n        /* \"#utility.yul\":4314:4336   */\n      add\n        /* \"#utility.yul\":4293:4346   */\n      tag_314\n      jump\t// in\n    tag_353:\n        /* \"#utility.yul\":4283:4346   */\n      swap2\n      pop\n        /* \"#utility.yul\":4239:4356   */\n      pop\n        /* \"#utility.yul\":4034:4363   */\n      swap3\n      swap2\n      pop\n      pop\n      jump\t// out\n        /* \"#utility.yul\":4369:4837   */\n    tag_26:\n        /* \"#utility.yul\":4434:4440   */\n      0x00\n        /* \"#utility.yul\":4442:4448   */\n      dup1\n        /* \"#utility.yul\":4491:4493   */\n      0x40\n        /* \"#utility.yul\":4479:4488   */\n      dup4\n        /* \"#utility.yul\":4470:4477   */\n      dup6\n        /* \"#utility.yul\":4466:4489   */\n      sub\n        /* \"#utility.yul\":4462:4494   */\n      slt\n        /* \"#utility.yul\":4459:4578   */\n      iszero\n      tag_355\n      jumpi\n        /* \"#utility.yul\":4497:4576   */\n      tag_356\n      tag_321\n      jump\t// in\n    tag_356:\n        /* \"#utility.yul\":4459:4578   */\n    tag_355:\n        /* \"#utility.yul\":4617:4618   */\n      0x00\n        /* \"#utility.yul\":4642:4695   */\n      tag_357\n        /* \"#utility.yul\":4687:4694   */\n      dup6\n        /* \"#utility.yul\":4678:4684   */\n      dup3\n        /* \"#utility.yul\":4667:4676   */\n      dup7\n        /* \"#utility.yul\":4663:4685   */\n      add\n        /* \"#utility.yul\":4642:4695   */\n      tag_314\n      jump\t// in\n    tag_357:\n        /* \"#utility.yul\":4632:4695   */\n      swap3\n      pop\n        /* \"#utility.yul\":4588:4705   */\n      pop\n        /* \"#utility.yul\":4744:4746   */\n      0x20\n        /* \"#utility.yul\":4770:4820   */\n      tag_358\n        /* \"#utility.yul\":4812:4819   */\n      dup6\n        /* \"#utility.yul\":4803:4809   */\n      dup3\n        /* \"#utility.yul\":4792:4801   */\n      dup7\n        /* \"#utility.yul\":4788:4810   */\n      add\n        /* \"#utility.yul\":4770:4820   */\n      tag_304\n      jump\t// in\n    tag_358:\n        /* \"#utility.yul\":4760:4820   */\n      swap2\n      pop\n        /* \"#utility.yul\":4715:4830   */\n      pop\n        /* \"#utility.yul\":4369:4837   */\n      swap3\n      pop\n      swap3\n      swap1\n      pop\n      jump\t// out\n        /* \"#utility.yul\":4843:5039   */\n    tag_359:\n        /* \"#utility.yul\":4932:4942   */\n      0x00\n        /* \"#utility.yul\":4967:5033   */\n      tag_361\n        /* \"#utility.yul\":5029:5032   */\n      dup4\n        /* \"#utility.yul\":5021:5027   */\n      dup4\n        /* \"#utility.yul\":4967:5033   */\n      tag_362\n      jump\t// in\n    tag_361:\n        /* \"#utility.yul\":4953:5033   */\n      swap1\n      pop\n        /* \"#utility.yul\":4843:5039   */\n      swap3\n      swap2\n      pop\n      pop\n      jump\t// out\n        /* \"#utility.yul\":5045:5163   */\n    tag_363:\n        /* \"#utility.yul\":5132:5156   */\n      tag_365\n        /* \"#utility.yul\":5150:5155   */\n      dup2\n        /* \"#utility.yul\":5132:5156   */\n      tag_366\n      jump\t// in\n    tag_365:\n        /* \"#utility.yul\":5127:5130   */\n      dup3\n        /* \"#utility.yul\":5120:5157   */\n      mstore\n        /* \"#utility.yul\":5045:5163   */\n      pop\n      pop\n      jump\t// out\n        /* \"#utility.yul\":5197:6188   */\n    tag_367:\n        /* \"#utility.yul\":5336:5339   */\n      0x00\n        /* \"#utility.yul\":5365:5429   */\n      tag_369\n        /* \"#utility.yul\":5423:5428   */\n      dup3\n        /* \"#utility.yul\":5365:5429   */\n      tag_370\n      jump\t// in\n    tag_369:\n        /* \"#utility.yul\":5445:5541   */\n      tag_371\n        /* \"#utility.yul\":5534:5540   */\n      dup2\n        /* \"#utility.yul\":5529:5532   */\n      dup6\n        /* \"#utility.yul\":5445:5541   */\n      tag_372\n      jump\t// in\n    tag_371:\n        /* \"#utility.yul\":5438:5541   */\n      swap4\n      pop\n        /* \"#utility.yul\":5567:5570   */\n      dup4\n        /* \"#utility.yul\":5612:5616   */\n      0x20\n        /* \"#utility.yul\":5604:5610   */\n      dup3\n        /* \"#utility.yul\":5600:5617   */\n      mul\n        /* \"#utility.yul\":5595:5598   */\n      dup6\n        /* \"#utility.yul\":5591:5618   */\n      add\n        /* \"#utility.yul\":5642:5708   */\n      tag_373\n        /* \"#utility.yul\":5702:5707   */\n      dup6\n        /* \"#utility.yul\":5642:5708   */\n      tag_374\n      jump\t// in\n    tag_373:\n        /* \"#utility.yul\":5731:5738   */\n      dup1\n        /* \"#utility.yul\":5762:5763   */\n      0x00\n        /* \"#utility.yul\":5747:6143   */\n    tag_375:\n        /* \"#utility.yul\":5772:5778   */\n      dup6\n        /* \"#utility.yul\":5769:5770   */\n      dup2\n        /* \"#utility.yul\":5766:5779   */\n      lt\n        /* \"#utility.yul\":5747:6143   */\n      iszero\n      tag_377\n      jumpi\n        /* \"#utility.yul\":5843:5852   */\n      dup5\n        /* \"#utility.yul\":5837:5841   */\n      dup5\n        /* \"#utility.yul\":5833:5853   */\n      sub\n        /* \"#utility.yul\":5828:5831   */\n      dup10\n        /* \"#utility.yul\":5821:5854   */\n      mstore\n        /* \"#utility.yul\":5894:5900   */\n      dup2\n        /* \"#utility.yul\":5888:5901   */\n      mload\n        /* \"#utility.yul\":5922:6006   */\n      tag_378\n        /* \"#utility.yul\":6001:6005   */\n      dup6\n        /* \"#utility.yul\":5986:5999   */\n      dup3\n        /* \"#utility.yul\":5922:6006   */\n      tag_359\n      jump\t// in\n    tag_378:\n        /* \"#utility.yul\":5914:6006   */\n      swap5\n      pop\n        /* \"#utility.yul\":6029:6099   */\n      tag_379\n        /* \"#utility.yul\":6092:6098   */\n      dup4\n        /* \"#utility.yul\":6029:6099   */\n      tag_380\n      jump\t// in\n    tag_379:\n        /* \"#utility.yul\":6019:6099   */\n      swap3\n      pop\n        /* \"#utility.yul\":6128:6132   */\n      0x20\n        /* \"#utility.yul\":6123:6126   */\n      dup11\n        /* \"#utility.yul\":6119:6133   */\n      add\n        /* \"#utility.yul\":6112:6133   */\n      swap10\n      pop\n        /* \"#utility.yul\":5807:6143   */\n      pop\n        /* \"#utility.yul\":5794:5795   */\n      0x01\n        /* \"#utility.yul\":5791:5792   */\n      dup2\n        /* \"#utility.yul\":5787:5796   */\n      add\n        /* \"#utility.yul\":5782:5796   */\n      swap1\n      pop\n        /* \"#utility.yul\":5747:6143   */\n      jump(tag_375)\n    tag_377:\n        /* \"#utility.yul\":5751:5765   */\n      pop\n        /* \"#utility.yul\":6159:6163   */\n      dup3\n        /* \"#utility.yul\":6152:6163   */\n      swap8\n      pop\n        /* \"#utility.yul\":6179:6182   */\n      dup8\n        /* \"#utility.yul\":6172:6182   */\n      swap6\n      pop\n        /* \"#utility.yul\":5341:6188   */\n      pop\n      pop\n      pop\n      pop\n      pop\n        /* \"#utility.yul\":5197:6188   */\n      swap3\n      swap2\n      pop\n      pop\n      jump\t// out\n        /* \"#utility.yul\":6194:6303   */\n    tag_381:\n        /* \"#utility.yul\":6275:6296   */\n      tag_383\n        /* \"#utility.yul\":6290:6295   */\n      dup2\n        /* \"#utility.yul\":6275:6296   */\n      tag_384\n      jump\t// in\n    tag_383:\n        /* \"#utility.yul\":6270:6273   */\n      dup3\n        /* \"#utility.yul\":6263:6297   */\n      mstore\n        /* \"#utility.yul\":6194:6303   */\n      pop\n      pop\n      jump\t// out\n        /* \"#utility.yul\":6309:6653   */\n    tag_362:\n        /* \"#utility.yul\":6387:6390   */\n      0x00\n        /* \"#utility.yul\":6415:6454   */\n      tag_386\n        /* \"#utility.yul\":6448:6453   */\n      dup3\n        /* \"#utility.yul\":6415:6454   */\n      tag_387\n      jump\t// in\n    tag_386:\n        /* \"#utility.yul\":6470:6531   */\n      tag_388\n        /* \"#utility.yul\":6524:6530   */\n      dup2\n        /* \"#utility.yul\":6519:6522   */\n      dup6\n        /* \"#utility.yul\":6470:6531   */\n      tag_389\n      jump\t// in\n    tag_388:\n        /* \"#utility.yul\":6463:6531   */\n      swap4\n      pop\n        /* \"#utility.yul\":6540:6592   */\n      tag_390\n        /* \"#utility.yul\":6585:6591   */\n      dup2\n        /* \"#utility.yul\":6580:6583   */\n      dup6\n        /* \"#utility.yul\":6573:6577   */\n      0x20\n        /* \"#utility.yul\":6566:6571   */\n      dup7\n        /* \"#utility.yul\":6562:6578   */\n      add\n        /* \"#utility.yul\":6540:6592   */\n      tag_391\n      jump\t// in\n    tag_390:\n        /* \"#utility.yul\":6617:6646   */\n      tag_392\n        /* \"#utility.yul\":6639:6645   */\n      dup2\n        /* \"#utility.yul\":6617:6646   */\n      tag_393\n      jump\t// in\n    tag_392:\n        /* \"#utility.yul\":6612:6615   */\n      dup5\n        /* \"#utility.yul\":6608:6647   */\n      add\n        /* \"#utility.yul\":6601:6647   */\n      swap2\n      pop\n        /* \"#utility.yul\":6391:6653   */\n      pop\n        /* \"#utility.yul\":6309:6653   */\n      swap3\n      swap2\n      pop\n      pop\n      jump\t// out\n        /* \"#utility.yul\":6659:7023   */\n    tag_394:\n        /* \"#utility.yul\":6747:6750   */\n      0x00\n        /* \"#utility.yul\":6775:6814   */\n      tag_396\n        /* \"#utility.yul\":6808:6813   */\n      dup3\n        /* \"#utility.yul\":6775:6814   */\n      tag_387\n      jump\t// in\n    tag_396:\n        /* \"#utility.yul\":6830:6901   */\n      tag_397\n        /* \"#utility.yul\":6894:6900   */\n      dup2\n        /* \"#utility.yul\":6889:6892   */\n      dup6\n        /* \"#utility.yul\":6830:6901   */\n      tag_398\n      jump\t// in\n    tag_397:\n        /* \"#utility.yul\":6823:6901   */\n      swap4\n      pop\n        /* \"#utility.yul\":6910:6962   */\n      tag_399\n        /* \"#utility.yul\":6955:6961   */\n      dup2\n        /* \"#utility.yul\":6950:6953   */\n      dup6\n        /* \"#utility.yul\":6943:6947   */\n      0x20\n        /* \"#utility.yul\":6936:6941   */\n      dup7\n        /* \"#utility.yul\":6932:6948   */\n      add\n        /* \"#utility.yul\":6910:6962   */\n      tag_391\n      jump\t// in\n    tag_399:\n        /* \"#utility.yul\":6987:7016   */\n      tag_400\n        /* \"#utility.yul\":7009:7015   */\n      dup2\n        /* \"#utility.yul\":6987:7016   */\n      tag_393\n      jump\t// in\n    tag_400:\n        /* \"#utility.yul\":6982:6985   */\n      dup5\n        /* \"#utility.yul\":6978:7017   */\n      add\n        /* \"#utility.yul\":6971:7017   */\n      swap2\n      pop\n        /* \"#utility.yul\":6751:7023   */\n      pop\n        /* \"#utility.yul\":6659:7023   */\n      swap3\n      swap2\n      pop\n      pop\n      jump\t// out\n        /* \"#utility.yul\":7029:7406   */\n    tag_401:\n        /* \"#utility.yul\":7135:7138   */\n      0x00\n        /* \"#utility.yul\":7163:7202   */\n      tag_403\n        /* \"#utility.yul\":7196:7201   */\n      dup3\n        /* \"#utility.yul\":7163:7202   */\n      tag_387\n      jump\t// in\n    tag_403:\n        /* \"#utility.yul\":7218:7307   */\n      tag_404\n        /* \"#utility.yul\":7300:7306   */\n      dup2\n        /* \"#utility.yul\":7295:7298   */\n      dup6\n        /* \"#utility.yul\":7218:7307   */\n      tag_405\n      jump\t// in\n    tag_404:\n        /* \"#utility.yul\":7211:7307   */\n      swap4\n      pop\n        /* \"#utility.yul\":7316:7368   */\n      tag_406\n        /* \"#utility.yul\":7361:7367   */\n      dup2\n        /* \"#utility.yul\":7356:7359   */\n      dup6\n        /* \"#utility.yul\":7349:7353   */\n      0x20\n        /* \"#utility.yul\":7342:7347   */\n      dup7\n        /* \"#utility.yul\":7338:7354   */\n      add\n        /* \"#utility.yul\":7316:7368   */\n      tag_391\n      jump\t// in\n    tag_406:\n        /* \"#utility.yul\":7393:7399   */\n      dup1\n        /* \"#utility.yul\":7388:7391   */\n      dup5\n        /* \"#utility.yul\":7384:7400   */\n      add\n        /* \"#utility.yul\":7377:7400   */\n      swap2\n      pop\n        /* \"#utility.yul\":7139:7406   */\n      pop\n        /* \"#utility.yul\":7029:7406   */\n      swap3\n      swap2\n      pop\n      pop\n      jump\t// out\n        /* \"#utility.yul\":7436:8281   */\n    tag_407:\n        /* \"#utility.yul\":7539:7542   */\n      0x00\n        /* \"#utility.yul\":7576:7581   */\n      dup2\n        /* \"#utility.yul\":7570:7582   */\n      sload\n        /* \"#utility.yul\":7605:7641   */\n      tag_409\n        /* \"#utility.yul\":7631:7640   */\n      dup2\n        /* \"#utility.yul\":7605:7641   */\n      tag_164\n      jump\t// in\n    tag_409:\n        /* \"#utility.yul\":7657:7746   */\n      tag_410\n        /* \"#utility.yul\":7739:7745   */\n      dup2\n        /* \"#utility.yul\":7734:7737   */\n      dup7\n        /* \"#utility.yul\":7657:7746   */\n      tag_405\n      jump\t// in\n    tag_410:\n        /* \"#utility.yul\":7650:7746   */\n      swap5\n      pop\n        /* \"#utility.yul\":7777:7778   */\n      0x01\n        /* \"#utility.yul\":7766:7775   */\n      dup3\n        /* \"#utility.yul\":7762:7779   */\n      and\n        /* \"#utility.yul\":7793:7794   */\n      0x00\n        /* \"#utility.yul\":7788:7925   */\n      dup2\n      eq\n      tag_412\n      jumpi\n        /* \"#utility.yul\":7939:7940   */\n      0x01\n        /* \"#utility.yul\":7934:8275   */\n      dup2\n      eq\n      tag_413\n      jumpi\n        /* \"#utility.yul\":7755:8275   */\n      jump(tag_411)\n        /* \"#utility.yul\":7788:7925   */\n    tag_412:\n        /* \"#utility.yul\":7872:7876   */\n      0xff\n        /* \"#utility.yul\":7868:7877   */\n      not\n        /* \"#utility.yul\":7857:7866   */\n      dup4\n        /* \"#utility.yul\":7853:7878   */\n      and\n        /* \"#utility.yul\":7848:7851   */\n      dup7\n        /* \"#utility.yul\":7841:7879   */\n      mstore\n        /* \"#utility.yul\":7908:7914   */\n      dup2\n        /* \"#utility.yul\":7903:7906   */\n      dup7\n        /* \"#utility.yul\":7899:7915   */\n      add\n        /* \"#utility.yul\":7892:7915   */\n      swap4\n      pop\n        /* \"#utility.yul\":7788:7925   */\n      jump(tag_411)\n        /* \"#utility.yul\":7934:8275   */\n    tag_413:\n        /* \"#utility.yul\":8001:8039   */\n      tag_414\n        /* \"#utility.yul\":8033:8038   */\n      dup6\n        /* \"#utility.yul\":8001:8039   */\n      tag_415\n      jump\t// in\n    tag_414:\n        /* \"#utility.yul\":8061:8062   */\n      0x00\n        /* \"#utility.yul\":8075:8229   */\n    tag_416:\n        /* \"#utility.yul\":8089:8095   */\n      dup4\n        /* \"#utility.yul\":8086:8087   */\n      dup2\n        /* \"#utility.yul\":8083:8096   */\n      lt\n        /* \"#utility.yul\":8075:8229   */\n      iszero\n      tag_418\n      jumpi\n        /* \"#utility.yul\":8163:8170   */\n      dup2\n        /* \"#utility.yul\":8157:8171   */\n      sload\n        /* \"#utility.yul\":8153:8154   */\n      dup2\n        /* \"#utility.yul\":8148:8151   */\n      dup10\n        /* \"#utility.yul\":8144:8155   */\n      add\n        /* \"#utility.yul\":8137:8172   */\n      mstore\n        /* \"#utility.yul\":8213:8214   */\n      0x01\n        /* \"#utility.yul\":8204:8211   */\n      dup3\n        /* \"#utility.yul\":8200:8215   */\n      add\n        /* \"#utility.yul\":8189:8215   */\n      swap2\n      pop\n        /* \"#utility.yul\":8111:8115   */\n      0x20\n        /* \"#utility.yul\":8108:8109   */\n      dup2\n        /* \"#utility.yul\":8104:8116   */\n      add\n        /* \"#utility.yul\":8099:8116   */\n      swap1\n      pop\n        /* \"#utility.yul\":8075:8229   */\n      jump(tag_416)\n    tag_418:\n        /* \"#utility.yul\":8258:8264   */\n      dup4\n        /* \"#utility.yul\":8253:8256   */\n      dup9\n        /* \"#utility.yul\":8249:8265   */\n      add\n        /* \"#utility.yul\":8242:8265   */\n      swap6\n      pop\n        /* \"#utility.yul\":7941:8275   */\n      pop\n      pop\n        /* \"#utility.yul\":7755:8275   */\n    tag_411:\n      pop\n        /* \"#utility.yul\":7543:8281   */\n      pop\n      pop\n        /* \"#utility.yul\":7436:8281   */\n      swap3\n      swap2\n      pop\n      pop\n      jump\t// out\n        /* \"#utility.yul\":8287:8653   */\n    tag_419:\n        /* \"#utility.yul\":8429:8432   */\n      0x00\n        /* \"#utility.yul\":8450:8517   */\n      tag_421\n        /* \"#utility.yul\":8514:8516   */\n      0x10\n        /* \"#utility.yul\":8509:8512   */\n      dup4\n        /* \"#utility.yul\":8450:8517   */\n      tag_398\n      jump\t// in\n    tag_421:\n        /* \"#utility.yul\":8443:8517   */\n      swap2\n      pop\n        /* \"#utility.yul\":8526:8619   */\n      tag_422\n        /* \"#utility.yul\":8615:8618   */\n      dup3\n        /* \"#utility.yul\":8526:8619   */\n      tag_423\n      jump\t// in\n    tag_422:\n        /* \"#utility.yul\":8644:8646   */\n      0x20\n        /* \"#utility.yul\":8639:8642   */\n      dup3\n        /* \"#utility.yul\":8635:8647   */\n      add\n        /* \"#utility.yul\":8628:8647   */\n      swap1\n      pop\n        /* \"#utility.yul\":8287:8653   */\n      swap2\n      swap1\n      pop\n      jump\t// out\n        /* \"#utility.yul\":8659:9025   */\n    tag_424:\n        /* \"#utility.yul\":8801:8804   */\n      0x00\n        /* \"#utility.yul\":8822:8889   */\n      tag_426\n        /* \"#utility.yul\":8886:8888   */\n      0x21\n        /* \"#utility.yul\":8881:8884   */\n      dup4\n        /* \"#utility.yul\":8822:8889   */\n      tag_398\n      jump\t// in\n    tag_426:\n        /* \"#utility.yul\":8815:8889   */\n      swap2\n      pop\n        /* \"#utility.yul\":8898:8991   */\n      tag_427\n        /* \"#utility.yul\":8987:8990   */\n      dup3\n        /* \"#utility.yul\":8898:8991   */\n      tag_428\n      jump\t// in\n    tag_427:\n        /* \"#utility.yul\":9016:9018   */\n      0x40\n        /* \"#utility.yul\":9011:9014   */\n      dup3\n        /* \"#utility.yul\":9007:9019   */\n      add\n        /* \"#utility.yul\":9000:9019   */\n      swap1\n      pop\n        /* \"#utility.yul\":8659:9025   */\n      swap2\n      swap1\n      pop\n      jump\t// out\n        /* \"#utility.yul\":9031:9149   */\n    tag_429:\n        /* \"#utility.yul\":9118:9142   */\n      tag_431\n        /* \"#utility.yul\":9136:9141   */\n      dup2\n        /* \"#utility.yul\":9118:9142   */\n      tag_432\n      jump\t// in\n    tag_431:\n        /* \"#utility.yul\":9113:9116   */\n      dup3\n        /* \"#utility.yul\":9106:9143   */\n      mstore\n        /* \"#utility.yul\":9031:9149   */\n      pop\n      pop\n      jump\t// out\n        /* \"#utility.yul\":9155:9430   */\n    tag_129:\n        /* \"#utility.yul\":9287:9290   */\n      0x00\n        /* \"#utility.yul\":9309:9404   */\n      tag_434\n        /* \"#utility.yul\":9400:9403   */\n      dup3\n        /* \"#utility.yul\":9391:9397   */\n      dup5\n        /* \"#utility.yul\":9309:9404   */\n      tag_401\n      jump\t// in\n    tag_434:\n        /* \"#utility.yul\":9302:9404   */\n      swap2\n      pop\n        /* \"#utility.yul\":9421:9424   */\n      dup2\n        /* \"#utility.yul\":9414:9424   */\n      swap1\n      pop\n        /* \"#utility.yul\":9155:9430   */\n      swap3\n      swap2\n      pop\n      pop\n      jump\t// out\n        /* \"#utility.yul\":9436:9705   */\n    tag_108:\n        /* \"#utility.yul\":9565:9568   */\n      0x00\n        /* \"#utility.yul\":9587:9679   */\n      tag_436\n        /* \"#utility.yul\":9675:9678   */\n      dup3\n        /* \"#utility.yul\":9666:9672   */\n      dup5\n        /* \"#utility.yul\":9587:9679   */\n      tag_407\n      jump\t// in\n    tag_436:\n        /* \"#utility.yul\":9580:9679   */\n      swap2\n      pop\n        /* \"#utility.yul\":9696:9699   */\n      dup2\n        /* \"#utility.yul\":9689:9699   */\n      swap1\n      pop\n        /* \"#utility.yul\":9436:9705   */\n      swap3\n      swap2\n      pop\n      pop\n      jump\t// out\n        /* \"#utility.yul\":9711:9933   */\n    tag_36:\n        /* \"#utility.yul\":9804:9808   */\n      0x00\n        /* \"#utility.yul\":9842:9844   */\n      0x20\n        /* \"#utility.yul\":9831:9840   */\n      dup3\n        /* \"#utility.yul\":9827:9845   */\n      add\n        /* \"#utility.yul\":9819:9845   */\n      swap1\n      pop\n        /* \"#utility.yul\":9855:9926   */\n      tag_438\n        /* \"#utility.yul\":9923:9924   */\n      0x00\n        /* \"#utility.yul\":9912:9921   */\n      dup4\n        /* \"#utility.yul\":9908:9925   */\n      add\n        /* \"#utility.yul\":9899:9905   */\n      dup5\n        /* \"#utility.yul\":9855:9926   */\n      tag_363\n      jump\t// in\n    tag_438:\n        /* \"#utility.yul\":9711:9933   */\n      swap3\n      swap2\n      pop\n      pop\n      jump\t// out\n        /* \"#utility.yul\":9939:10460   */\n    tag_56:\n        /* \"#utility.yul\":10102:10106   */\n      0x00\n        /* \"#utility.yul\":10140:10142   */\n      0x60\n        /* \"#utility.yul\":10129:10138   */\n      dup3\n        /* \"#utility.yul\":10125:10143   */\n      add\n        /* \"#utility.yul\":10117:10143   */\n      swap1\n      pop\n        /* \"#utility.yul\":10153:10224   */\n      tag_440\n        /* \"#utility.yul\":10221:10222   */\n      0x00\n        /* \"#utility.yul\":10210:10219   */\n      dup4\n        /* \"#utility.yul\":10206:10223   */\n      add\n        /* \"#utility.yul\":10197:10203   */\n      dup7\n        /* \"#utility.yul\":10153:10224   */\n      tag_363\n      jump\t// in\n    tag_440:\n        /* \"#utility.yul\":10271:10280   */\n      dup2\n        /* \"#utility.yul\":10265:10269   */\n      dup2\n        /* \"#utility.yul\":10261:10281   */\n      sub\n        /* \"#utility.yul\":10256:10258   */\n      0x20\n        /* \"#utility.yul\":10245:10254   */\n      dup4\n        /* \"#utility.yul\":10241:10259   */\n      add\n        /* \"#utility.yul\":10234:10282   */\n      mstore\n        /* \"#utility.yul\":10299:10377   */\n      tag_441\n        /* \"#utility.yul\":10372:10376   */\n      dup2\n        /* \"#utility.yul\":10363:10369   */\n      dup6\n        /* \"#utility.yul\":10299:10377   */\n      tag_394\n      jump\t// in\n    tag_441:\n        /* \"#utility.yul\":10291:10377   */\n      swap1\n      pop\n        /* \"#utility.yul\":10387:10453   */\n      tag_442\n        /* \"#utility.yul\":10449:10451   */\n      0x40\n        /* \"#utility.yul\":10438:10447   */\n      dup4\n        /* \"#utility.yul\":10434:10452   */\n      add\n        /* \"#utility.yul\":10425:10431   */\n      dup5\n        /* \"#utility.yul\":10387:10453   */\n      tag_381\n      jump\t// in\n    tag_442:\n        /* \"#utility.yul\":9939:10460   */\n      swap5\n      swap4\n      pop\n      pop\n      pop\n      pop\n      jump\t// out\n        /* \"#utility.yul\":10466:11110   */\n    tag_85:\n        /* \"#utility.yul\":10663:10667   */\n      0x00\n        /* \"#utility.yul\":10701:10704   */\n      0x80\n        /* \"#utility.yul\":10690:10699   */\n      dup3\n        /* \"#utility.yul\":10686:10705   */\n      add\n        /* \"#utility.yul\":10678:10705   */\n      swap1\n      pop\n        /* \"#utility.yul\":10715:10786   */\n      tag_444\n        /* \"#utility.yul\":10783:10784   */\n      0x00\n        /* \"#utility.yul\":10772:10781   */\n      dup4\n        /* \"#utility.yul\":10768:10785   */\n      add\n        /* \"#utility.yul\":10759:10765   */\n      dup8\n        /* \"#utility.yul\":10715:10786   */\n      tag_363\n      jump\t// in\n    tag_444:\n        /* \"#utility.yul\":10833:10842   */\n      dup2\n        /* \"#utility.yul\":10827:10831   */\n      dup2\n        /* \"#utility.yul\":10823:10843   */\n      sub\n        /* \"#utility.yul\":10818:10820   */\n      0x20\n        /* \"#utility.yul\":10807:10816   */\n      dup4\n        /* \"#utility.yul\":10803:10821   */\n      add\n        /* \"#utility.yul\":10796:10844   */\n      mstore\n        /* \"#utility.yul\":10861:10939   */\n      tag_445\n        /* \"#utility.yul\":10934:10938   */\n      dup2\n        /* \"#utility.yul\":10925:10931   */\n      dup7\n        /* \"#utility.yul\":10861:10939   */\n      tag_394\n      jump\t// in\n    tag_445:\n        /* \"#utility.yul\":10853:10939   */\n      swap1\n      pop\n        /* \"#utility.yul\":10949:11021   */\n      tag_446\n        /* \"#utility.yul\":11017:11019   */\n      0x40\n        /* \"#utility.yul\":11006:11015   */\n      dup4\n        /* \"#utility.yul\":11002:11020   */\n      add\n        /* \"#utility.yul\":10993:10999   */\n      dup6\n        /* \"#utility.yul\":10949:11021   */\n      tag_429\n      jump\t// in\n    tag_446:\n        /* \"#utility.yul\":11031:11103   */\n      tag_447\n        /* \"#utility.yul\":11099:11101   */\n      0x60\n        /* \"#utility.yul\":11088:11097   */\n      dup4\n        /* \"#utility.yul\":11084:11102   */\n      add\n        /* \"#utility.yul\":11075:11081   */\n      dup5\n        /* \"#utility.yul\":11031:11103   */\n      tag_429\n      jump\t// in\n    tag_447:\n        /* \"#utility.yul\":10466:11110   */\n      swap6\n      swap5\n      pop\n      pop\n      pop\n      pop\n      pop\n      jump\t// out\n        /* \"#utility.yul\":11116:11529   */\n    tag_46:\n        /* \"#utility.yul\":11279:11283   */\n      0x00\n        /* \"#utility.yul\":11317:11319   */\n      0x20\n        /* \"#utility.yul\":11306:11315   */\n      dup3\n        /* \"#utility.yul\":11302:11320   */\n      add\n        /* \"#utility.yul\":11294:11320   */\n      swap1\n      pop\n        /* \"#utility.yul\":11366:11375   */\n      dup2\n        /* \"#utility.yul\":11360:11364   */\n      dup2\n        /* \"#utility.yul\":11356:11376   */\n      sub\n        /* \"#utility.yul\":11352:11353   */\n      0x00\n        /* \"#utility.yul\":11341:11350   */\n      dup4\n        /* \"#utility.yul\":11337:11354   */\n      add\n        /* \"#utility.yul\":11330:11377   */\n      mstore\n        /* \"#utility.yul\":11394:11522   */\n      tag_449\n        /* \"#utility.yul\":11517:11521   */\n      dup2\n        /* \"#utility.yul\":11508:11514   */\n      dup5\n        /* \"#utility.yul\":11394:11522   */\n      tag_367\n      jump\t// in\n    tag_449:\n        /* \"#utility.yul\":11386:11522   */\n      swap1\n      pop\n        /* \"#utility.yul\":11116:11529   */\n      swap3\n      swap2\n      pop\n      pop\n      jump\t// out\n        /* \"#utility.yul\":11535:12049   */\n    tag_97:\n        /* \"#utility.yul\":11696:11700   */\n      0x00\n        /* \"#utility.yul\":11734:11736   */\n      0x40\n        /* \"#utility.yul\":11723:11732   */\n      dup3\n        /* \"#utility.yul\":11719:11737   */\n      add\n        /* \"#utility.yul\":11711:11737   */\n      swap1\n      pop\n        /* \"#utility.yul\":11783:11792   */\n      dup2\n        /* \"#utility.yul\":11777:11781   */\n      dup2\n        /* \"#utility.yul\":11773:11793   */\n      sub\n        /* \"#utility.yul\":11769:11770   */\n      0x00\n        /* \"#utility.yul\":11758:11767   */\n      dup4\n        /* \"#utility.yul\":11754:11771   */\n      add\n        /* \"#utility.yul\":11747:11794   */\n      mstore\n        /* \"#utility.yul\":11811:11889   */\n      tag_451\n        /* \"#utility.yul\":11884:11888   */\n      dup2\n        /* \"#utility.yul\":11875:11881   */\n      dup6\n        /* \"#utility.yul\":11811:11889   */\n      tag_394\n      jump\t// in\n    tag_451:\n        /* \"#utility.yul\":11803:11889   */\n      swap1\n      pop\n        /* \"#utility.yul\":11936:11945   */\n      dup2\n        /* \"#utility.yul\":11930:11934   */\n      dup2\n        /* \"#utility.yul\":11926:11946   */\n      sub\n        /* \"#utility.yul\":11921:11923   */\n      0x20\n        /* \"#utility.yul\":11910:11919   */\n      dup4\n        /* \"#utility.yul\":11906:11924   */\n      add\n        /* \"#utility.yul\":11899:11947   */\n      mstore\n        /* \"#utility.yul\":11964:12042   */\n      tag_452\n        /* \"#utility.yul\":12037:12041   */\n      dup2\n        /* \"#utility.yul\":12028:12034   */\n      dup5\n        /* \"#utility.yul\":11964:12042   */\n      tag_394\n      jump\t// in\n    tag_452:\n        /* \"#utility.yul\":11956:12042   */\n      swap1\n      pop\n        /* \"#utility.yul\":11535:12049   */\n      swap4\n      swap3\n      pop\n      pop\n      pop\n      jump\t// out\n        /* \"#utility.yul\":12055:12588   */\n    tag_62:\n        /* \"#utility.yul\":12224:12228   */\n      0x00\n        /* \"#utility.yul\":12262:12264   */\n      0x60\n        /* \"#utility.yul\":12251:12260   */\n      dup3\n        /* \"#utility.yul\":12247:12265   */\n      add\n        /* \"#utility.yul\":12239:12265   */\n      swap1\n      pop\n        /* \"#utility.yul\":12311:12320   */\n      dup2\n        /* \"#utility.yul\":12305:12309   */\n      dup2\n        /* \"#utility.yul\":12301:12321   */\n      sub\n        /* \"#utility.yul\":12297:12298   */\n      0x00\n        /* \"#utility.yul\":12286:12295   */\n      dup4\n        /* \"#utility.yul\":12282:12299   */\n      add\n        /* \"#utility.yul\":12275:12322   */\n      mstore\n        /* \"#utility.yul\":12339:12417   */\n      tag_454\n        /* \"#utility.yul\":12412:12416   */\n      dup2\n        /* \"#utility.yul\":12403:12409   */\n      dup7\n        /* \"#utility.yul\":12339:12417   */\n      tag_394\n      jump\t// in\n    tag_454:\n        /* \"#utility.yul\":12331:12417   */\n      swap1\n      pop\n        /* \"#utility.yul\":12427:12499   */\n      tag_455\n        /* \"#utility.yul\":12495:12497   */\n      0x20\n        /* \"#utility.yul\":12484:12493   */\n      dup4\n        /* \"#utility.yul\":12480:12498   */\n      add\n        /* \"#utility.yul\":12471:12477   */\n      dup6\n        /* \"#utility.yul\":12427:12499   */\n      tag_429\n      jump\t// in\n    tag_455:\n        /* \"#utility.yul\":12509:12581   */\n      tag_456\n        /* \"#utility.yul\":12577:12579   */\n      0x40\n        /* \"#utility.yul\":12566:12575   */\n      dup4\n        /* \"#utility.yul\":12562:12580   */\n      add\n        /* \"#utility.yul\":12553:12559   */\n      dup5\n        /* \"#utility.yul\":12509:12581   */\n      tag_429\n      jump\t// in\n    tag_456:\n        /* \"#utility.yul\":12055:12588   */\n      swap5\n      swap4\n      pop\n      pop\n      pop\n      pop\n      jump\t// out\n        /* \"#utility.yul\":12594:13013   */\n    tag_132:\n        /* \"#utility.yul\":12760:12764   */\n      0x00\n        /* \"#utility.yul\":12798:12800   */\n      0x20\n        /* \"#utility.yul\":12787:12796   */\n      dup3\n        /* \"#utility.yul\":12783:12801   */\n      add\n        /* \"#utility.yul\":12775:12801   */\n      swap1\n      pop\n        /* \"#utility.yul\":12847:12856   */\n      dup2\n        /* \"#utility.yul\":12841:12845   */\n      dup2\n        /* \"#utility.yul\":12837:12857   */\n      sub\n        /* \"#utility.yul\":12833:12834   */\n      0x00\n        /* \"#utility.yul\":12822:12831   */\n      dup4\n        /* \"#utility.yul\":12818:12835   */\n      add\n        /* \"#utility.yul\":12811:12858   */\n      mstore\n        /* \"#utility.yul\":12875:13006   */\n      tag_458\n        /* \"#utility.yul\":13001:13005   */\n      dup2\n        /* \"#utility.yul\":12875:13006   */\n      tag_419\n      jump\t// in\n    tag_458:\n        /* \"#utility.yul\":12867:13006   */\n      swap1\n      pop\n        /* \"#utility.yul\":12594:13013   */\n      swap2\n      swap1\n      pop\n      jump\t// out\n        /* \"#utility.yul\":13019:13438   */\n    tag_210:\n        /* \"#utility.yul\":13185:13189   */\n      0x00\n        /* \"#utility.yul\":13223:13225   */\n      0x20\n        /* \"#utility.yul\":13212:13221   */\n      dup3\n        /* \"#utility.yul\":13208:13226   */\n      add\n        /* \"#utility.yul\":13200:13226   */\n      swap1\n      pop\n        /* \"#utility.yul\":13272:13281   */\n      dup2\n        /* \"#utility.yul\":13266:13270   */\n      dup2\n        /* \"#utility.yul\":13262:13282   */\n      sub\n        /* \"#utility.yul\":13258:13259   */\n      0x00\n        /* \"#utility.yul\":13247:13256   */\n      dup4\n        /* \"#utility.yul\":13243:13260   */\n      add\n        /* \"#utility.yul\":13236:13283   */\n      mstore\n        /* \"#utility.yul\":13300:13431   */\n      tag_460\n        /* \"#utility.yul\":13426:13430   */\n      dup2\n        /* \"#utility.yul\":13300:13431   */\n      tag_424\n      jump\t// in\n    tag_460:\n        /* \"#utility.yul\":13292:13431   */\n      swap1\n      pop\n        /* \"#utility.yul\":13019:13438   */\n      swap2\n      swap1\n      pop\n      jump\t// out\n        /* \"#utility.yul\":13444:13573   */\n    tag_294:\n        /* \"#utility.yul\":13478:13484   */\n      0x00\n        /* \"#utility.yul\":13505:13525   */\n      tag_462\n      tag_463\n      jump\t// in\n    tag_462:\n        /* \"#utility.yul\":13495:13525   */\n      swap1\n      pop\n        /* \"#utility.yul\":13534:13567   */\n      tag_464\n        /* \"#utility.yul\":13562:13566   */\n      dup3\n        /* \"#utility.yul\":13554:13560   */\n      dup3\n        /* \"#utility.yul\":13534:13567   */\n      tag_465\n      jump\t// in\n    tag_464:\n        /* \"#utility.yul\":13444:13573   */\n      swap2\n      swap1\n      pop\n      jump\t// out\n        /* \"#utility.yul\":13579:13654   */\n    tag_463:\n        /* \"#utility.yul\":13612:13618   */\n      0x00\n        /* \"#utility.yul\":13645:13647   */\n      0x40\n        /* \"#utility.yul\":13639:13648   */\n      mload\n        /* \"#utility.yul\":13629:13648   */\n      swap1\n      pop\n        /* \"#utility.yul\":13579:13654   */\n      swap1\n      jump\t// out\n        /* \"#utility.yul\":13660:13968   */\n    tag_293:\n        /* \"#utility.yul\":13722:13726   */\n      0x00\n        /* \"#utility.yul\":13812:13830   */\n      0xffffffffffffffff\n        /* \"#utility.yul\":13804:13810   */\n      dup3\n        /* \"#utility.yul\":13801:13831   */\n      gt\n        /* \"#utility.yul\":13798:13854   */\n      iszero\n      tag_468\n      jumpi\n        /* \"#utility.yul\":13834:13852   */\n      tag_469\n      tag_470\n      jump\t// in\n    tag_469:\n        /* \"#utility.yul\":13798:13854   */\n    tag_468:\n        /* \"#utility.yul\":13872:13901   */\n      tag_471\n        /* \"#utility.yul\":13894:13900   */\n      dup3\n        /* \"#utility.yul\":13872:13901   */\n      tag_393\n      jump\t// in\n    tag_471:\n        /* \"#utility.yul\":13864:13901   */\n      swap1\n      pop\n        /* \"#utility.yul\":13956:13960   */\n      0x20\n        /* \"#utility.yul\":13950:13954   */\n      dup2\n        /* \"#utility.yul\":13946:13961   */\n      add\n        /* \"#utility.yul\":13938:13961   */\n      swap1\n      pop\n        /* \"#utility.yul\":13660:13968   */\n      swap2\n      swap1\n      pop\n      jump\t// out\n        /* \"#utility.yul\":13974:14116   */\n    tag_374:\n        /* \"#utility.yul\":14051:14055   */\n      0x00\n        /* \"#utility.yul\":14074:14077   */\n      dup2\n        /* \"#utility.yul\":14066:14077   */\n      swap1\n      pop\n        /* \"#utility.yul\":14104:14108   */\n      0x20\n        /* \"#utility.yul\":14099:14102   */\n      dup3\n        /* \"#utility.yul\":14095:14109   */\n      add\n        /* \"#utility.yul\":14087:14109   */\n      swap1\n      pop\n        /* \"#utility.yul\":13974:14116   */\n      swap2\n      swap1\n      pop\n      jump\t// out\n        /* \"#utility.yul\":14122:14263   */\n    tag_415:\n        /* \"#utility.yul\":14171:14175   */\n      0x00\n        /* \"#utility.yul\":14194:14197   */\n      dup2\n        /* \"#utility.yul\":14186:14197   */\n      swap1\n      pop\n        /* \"#utility.yul\":14217:14220   */\n      dup2\n        /* \"#utility.yul\":14214:14215   */\n      0x00\n        /* \"#utility.yul\":14207:14221   */\n      mstore\n        /* \"#utility.yul\":14251:14255   */\n      0x20\n        /* \"#utility.yul\":14248:14249   */\n      0x00\n        /* \"#utility.yul\":14238:14256   */\n      keccak256\n        /* \"#utility.yul\":14230:14256   */\n      swap1\n      pop\n        /* \"#utility.yul\":14122:14263   */\n      swap2\n      swap1\n      pop\n      jump\t// out\n        /* \"#utility.yul\":14269:14393   */\n    tag_370:\n        /* \"#utility.yul\":14346:14352   */\n      0x00\n        /* \"#utility.yul\":14380:14385   */\n      dup2\n        /* \"#utility.yul\":14374:14386   */\n      mload\n        /* \"#utility.yul\":14364:14386   */\n      swap1\n      pop\n        /* \"#utility.yul\":14269:14393   */\n      swap2\n      swap1\n      pop\n      jump\t// out\n        /* \"#utility.yul\":14399:14498   */\n    tag_387:\n        /* \"#utility.yul\":14451:14457   */\n      0x00\n        /* \"#utility.yul\":14485:14490   */\n      dup2\n        /* \"#utility.yul\":14479:14491   */\n      mload\n        /* \"#utility.yul\":14469:14491   */\n      swap1\n      pop\n        /* \"#utility.yul\":14399:14498   */\n      swap2\n      swap1\n      pop\n      jump\t// out\n        /* \"#utility.yul\":14504:14627   */\n    tag_380:\n        /* \"#utility.yul\":14584:14588   */\n      0x00\n        /* \"#utility.yul\":14616:14620   */\n      0x20\n        /* \"#utility.yul\":14611:14614   */\n      dup3\n        /* \"#utility.yul\":14607:14621   */\n      add\n        /* \"#utility.yul\":14599:14621   */\n      swap1\n      pop\n        /* \"#utility.yul\":14504:14627   */\n      swap2\n      swap1\n      pop\n      jump\t// out\n        /* \"#utility.yul\":14633:14827   */\n    tag_372:\n        /* \"#utility.yul\":14742:14753   */\n      0x00\n        /* \"#utility.yul\":14776:14782   */\n      dup3\n        /* \"#utility.yul\":14771:14774   */\n      dup3\n        /* \"#utility.yul\":14764:14783   */\n      mstore\n        /* \"#utility.yul\":14816:14820   */\n      0x20\n        /* \"#utility.yul\":14811:14814   */\n      dup3\n        /* \"#utility.yul\":14807:14821   */\n      add\n        /* \"#utility.yul\":14792:14821   */\n      swap1\n      pop\n        /* \"#utility.yul\":14633:14827   */\n      swap3\n      swap2\n      pop\n      pop\n      jump\t// out\n        /* \"#utility.yul\":14833:14992   */\n    tag_389:\n        /* \"#utility.yul\":14907:14918   */\n      0x00\n        /* \"#utility.yul\":14941:14947   */\n      dup3\n        /* \"#utility.yul\":14936:14939   */\n      dup3\n        /* \"#utility.yul\":14929:14948   */\n      mstore\n        /* \"#utility.yul\":14981:14985   */\n      0x20\n        /* \"#utility.yul\":14976:14979   */\n      dup3\n        /* \"#utility.yul\":14972:14986   */\n      add\n        /* \"#utility.yul\":14957:14986   */\n      swap1\n      pop\n        /* \"#utility.yul\":14833:14992   */\n      swap3\n      swap2\n      pop\n      pop\n      jump\t// out\n        /* \"#utility.yul\":14998:15167   */\n    tag_398:\n        /* \"#utility.yul\":15082:15093   */\n      0x00\n        /* \"#utility.yul\":15116:15122   */\n      dup3\n        /* \"#utility.yul\":15111:15114   */\n      dup3\n        /* \"#utility.yul\":15104:15123   */\n      mstore\n        /* \"#utility.yul\":15156:15160   */\n      0x20\n        /* \"#utility.yul\":15151:15154   */\n      dup3\n        /* \"#utility.yul\":15147:15161   */\n      add\n        /* \"#utility.yul\":15132:15161   */\n      swap1\n      pop\n        /* \"#utility.yul\":14998:15167   */\n      swap3\n      swap2\n      pop\n      pop\n      jump\t// out\n        /* \"#utility.yul\":15173:15321   */\n    tag_405:\n        /* \"#utility.yul\":15275:15286   */\n      0x00\n        /* \"#utility.yul\":15312:15315   */\n      dup2\n        /* \"#utility.yul\":15297:15315   */\n      swap1\n      pop\n        /* \"#utility.yul\":15173:15321   */\n      swap3\n      swap2\n      pop\n      pop\n      jump\t// out\n        /* \"#utility.yul\":15327:15632   */\n    tag_122:\n        /* \"#utility.yul\":15367:15370   */\n      0x00\n        /* \"#utility.yul\":15386:15406   */\n      tag_482\n        /* \"#utility.yul\":15404:15405   */\n      dup3\n        /* \"#utility.yul\":15386:15406   */\n      tag_432\n      jump\t// in\n    tag_482:\n        /* \"#utility.yul\":15381:15406   */\n      swap2\n      pop\n        /* \"#utility.yul\":15420:15440   */\n      tag_483\n        /* \"#utility.yul\":15438:15439   */\n      dup4\n        /* \"#utility.yul\":15420:15440   */\n      tag_432\n      jump\t// in\n    tag_483:\n        /* \"#utility.yul\":15415:15440   */\n      swap3\n      pop\n        /* \"#utility.yul\":15574:15575   */\n      dup3\n        /* \"#utility.yul\":15506:15572   */\n      0xffffffffffffffffffffffffffffffffffffffffffffffffffffffffffffffff\n        /* \"#utility.yul\":15502:15576   */\n      sub\n        /* \"#utility.yul\":15499:15500   */\n      dup3\n        /* \"#utility.yul\":15496:15577   */\n      gt\n        /* \"#utility.yul\":15493:15600   */\n      iszero\n      tag_484\n      jumpi\n        /* \"#utility.yul\":15580:15598   */\n      tag_485\n      tag_486\n      jump\t// in\n    tag_485:\n        /* \"#utility.yul\":15493:15600   */\n    tag_484:\n        /* \"#utility.yul\":15624:15625   */\n      dup3\n        /* \"#utility.yul\":15621:15622   */\n      dup3\n        /* \"#utility.yul\":15617:15626   */\n      add\n        /* \"#utility.yul\":15610:15626   */\n      swap1\n      pop\n        /* \"#utility.yul\":15327:15632   */\n      swap3\n      swap2\n      pop\n      pop\n      jump\t// out\n        /* \"#utility.yul\":15638:15829   */\n    tag_113:\n        /* \"#utility.yul\":15678:15682   */\n      0x00\n        /* \"#utility.yul\":15698:15718   */\n      tag_488\n        /* \"#utility.yul\":15716:15717   */\n      dup3\n        /* \"#utility.yul\":15698:15718   */\n      tag_432\n      jump\t// in\n    tag_488:\n        /* \"#utility.yul\":15693:15718   */\n      swap2\n      pop\n        /* \"#utility.yul\":15732:15752   */\n      tag_489\n        /* \"#utility.yul\":15750:15751   */\n      dup4\n        /* \"#utility.yul\":15732:15752   */\n      tag_432\n      jump\t// in\n    tag_489:\n        /* \"#utility.yul\":15727:15752   */\n      swap3\n      pop\n        /* \"#utility.yul\":15771:15772   */\n      dup3\n        /* \"#utility.yul\":15768:15769   */\n      dup3\n        /* \"#utility.yul\":15765:15773   */\n      lt\n        /* \"#utility.yul\":15762:15796   */\n      iszero\n      tag_490\n      jumpi\n        /* \"#utility.yul\":15776:15794   */\n      tag_491\n      tag_486\n      jump\t// in\n    tag_491:\n        /* \"#utility.yul\":15762:15796   */\n    tag_490:\n        /* \"#utility.yul\":15821:15822   */\n      dup3\n        /* \"#utility.yul\":15818:15819   */\n      dup3\n        /* \"#utility.yul\":15814:15823   */\n      sub\n        /* \"#utility.yul\":15806:15823   */\n      swap1\n      pop\n        /* \"#utility.yul\":15638:15829   */\n      swap3\n      swap2\n      pop\n      pop\n      jump\t// out\n        /* \"#utility.yul\":15835:15931   */\n    tag_366:\n        /* \"#utility.yul\":15872:15879   */\n      0x00\n        /* \"#utility.yul\":15901:15925   */\n      tag_493\n        /* \"#utility.yul\":15919:15924   */\n      dup3\n        /* \"#utility.yul\":15901:15925   */\n      tag_494\n      jump\t// in\n    tag_493:\n        /* \"#utility.yul\":15890:15925   */\n      swap1\n      pop\n        /* \"#utility.yul\":15835:15931   */\n      swap2\n      swap1\n      pop\n      jump\t// out\n        /* \"#utility.yul\":15937:16027   */\n    tag_384:\n        /* \"#utility.yul\":15971:15978   */\n      0x00\n        /* \"#utility.yul\":16014:16019   */\n      dup2\n        /* \"#utility.yul\":16007:16020   */\n      iszero\n        /* \"#utility.yul\":16000:16021   */\n      iszero\n        /* \"#utility.yul\":15989:16021   */\n      swap1\n      pop\n        /* \"#utility.yul\":15937:16027   */\n      swap2\n      swap1\n      pop\n      jump\t// out\n        /* \"#utility.yul\":16033:16159   */\n    tag_494:\n        /* \"#utility.yul\":16070:16077   */\n      0x00\n        /* \"#utility.yul\":16110:16152   */\n      0xffffffffffffffffffffffffffffffffffffffff\n        /* \"#utility.yul\":16103:16108   */\n      dup3\n        /* \"#utility.yul\":16099:16153   */\n      and\n        /* \"#utility.yul\":16088:16153   */\n      swap1\n      pop\n        /* \"#utility.yul\":16033:16159   */\n      swap2\n      swap1\n      pop\n      jump\t// out\n        /* \"#utility.yul\":16165:16242   */\n    tag_432:\n        /* \"#utility.yul\":16202:16209   */\n      0x00\n        /* \"#utility.yul\":16231:16236   */\n      dup2\n        /* \"#utility.yul\":16220:16236   */\n      swap1\n      pop\n        /* \"#utility.yul\":16165:16242   */\n      swap2\n      swap1\n      pop\n      jump\t// out\n        /* \"#utility.yul\":16248:16402   */\n    tag_299:\n        /* \"#utility.yul\":16332:16338   */\n      dup3\n        /* \"#utility.yul\":16327:16330   */\n      dup2\n        /* \"#utility.yul\":16322:16325   */\n      dup4\n        /* \"#utility.yul\":16309:16339   */\n      calldatacopy\n        /* \"#utility.yul\":16394:16395   */\n      0x00\n        /* \"#utility.yul\":16385:16391   */\n      dup4\n        /* \"#utility.yul\":16380:16383   */\n      dup4\n        /* \"#utility.yul\":16376:16392   */\n      add\n        /* \"#utility.yul\":16369:16396   */\n      mstore\n        /* \"#utility.yul\":16248:16402   */\n      pop\n      pop\n      pop\n      jump\t// out\n        /* \"#utility.yul\":16408:16715   */\n    tag_391:\n        /* \"#utility.yul\":16476:16477   */\n      0x00\n        /* \"#utility.yul\":16486:16599   */\n    tag_500:\n        /* \"#utility.yul\":16500:16506   */\n      dup4\n        /* \"#utility.yul\":16497:16498   */\n      dup2\n        /* \"#utility.yul\":16494:16507   */\n      lt\n        /* \"#utility.yul\":16486:16599   */\n      iszero\n      tag_502\n      jumpi\n        /* \"#utility.yul\":16585:16586   */\n      dup1\n        /* \"#utility.yul\":16580:16583   */\n      dup3\n        /* \"#utility.yul\":16576:16587   */\n      add\n        /* \"#utility.yul\":16570:16588   */\n      mload\n        /* \"#utility.yul\":16566:16567   */\n      dup2\n        /* \"#utility.yul\":16561:16564   */\n      dup5\n        /* \"#utility.yul\":16557:16568   */\n      add\n        /* \"#utility.yul\":16550:16589   */\n      mstore\n        /* \"#utility.yul\":16522:16524   */\n      0x20\n        /* \"#utility.yul\":16519:16520   */\n      dup2\n        /* \"#utility.yul\":16515:16525   */\n      add\n        /* \"#utility.yul\":16510:16525   */\n      swap1\n      pop\n        /* \"#utility.yul\":16486:16599   */\n      jump(tag_500)\n    tag_502:\n        /* \"#utility.yul\":16617:16623   */\n      dup4\n        /* \"#utility.yul\":16614:16615   */\n      dup2\n        /* \"#utility.yul\":16611:16624   */\n      gt\n        /* \"#utility.yul\":16608:16709   */\n      iszero\n      tag_503\n      jumpi\n        /* \"#utility.yul\":16697:16698   */\n      0x00\n        /* \"#utility.yul\":16688:16694   */\n      dup5\n        /* \"#utility.yul\":16683:16686   */\n      dup5\n        /* \"#utility.yul\":16679:16695   */\n      add\n        /* \"#utility.yul\":16672:16699   */\n      mstore\n        /* \"#utility.yul\":16608:16709   */\n    tag_503:\n        /* \"#utility.yul\":16457:16715   */\n      pop\n        /* \"#utility.yul\":16408:16715   */\n      pop\n      pop\n      pop\n      jump\t// out\n        /* \"#utility.yul\":16721:17041   */\n    tag_164:\n        /* \"#utility.yul\":16765:16771   */\n      0x00\n        /* \"#utility.yul\":16802:16803   */\n      0x02\n        /* \"#utility.yul\":16796:16800   */\n      dup3\n        /* \"#utility.yul\":16792:16804   */\n      div\n        /* \"#utility.yul\":16782:16804   */\n      swap1\n      pop\n        /* \"#utility.yul\":16849:16850   */\n      0x01\n        /* \"#utility.yul\":16843:16847   */\n      dup3\n        /* \"#utility.yul\":16839:16851   */\n      and\n        /* \"#utility.yul\":16870:16888   */\n      dup1\n        /* \"#utility.yul\":16860:16941   */\n      tag_505\n      jumpi\n        /* \"#utility.yul\":16926:16930   */\n      0x7f\n        /* \"#utility.yul\":16918:16924   */\n      dup3\n        /* \"#utility.yul\":16914:16931   */\n      and\n        /* \"#utility.yul\":16904:16931   */\n      swap2\n      pop\n        /* \"#utility.yul\":16860:16941   */\n    tag_505:\n        /* \"#utility.yul\":16988:16990   */\n      0x20\n        /* \"#utility.yul\":16980:16986   */\n      dup3\n        /* \"#utility.yul\":16977:16991   */\n      lt\n        /* \"#utility.yul\":16957:16975   */\n      dup2\n        /* \"#utility.yul\":16954:16992   */\n      eq\n        /* \"#utility.yul\":16951:17035   */\n      iszero\n      tag_506\n      jumpi\n        /* \"#utility.yul\":17007:17025   */\n      tag_507\n      tag_508\n      jump\t// in\n    tag_507:\n        /* \"#utility.yul\":16951:17035   */\n    tag_506:\n        /* \"#utility.yul\":16772:17041   */\n      pop\n        /* \"#utility.yul\":16721:17041   */\n      swap2\n      swap1\n      pop\n      jump\t// out\n        /* \"#utility.yul\":17047:17328   */\n    tag_465:\n        /* \"#utility.yul\":17130:17157   */\n      tag_510\n        /* \"#utility.yul\":17152:17156   */\n      dup3\n        /* \"#utility.yul\":17130:17157   */\n      tag_393\n      jump\t// in\n    tag_510:\n        /* \"#utility.yul\":17122:17128   */\n      dup2\n        /* \"#utility.yul\":17118:17158   */\n      add\n        /* \"#utility.yul\":17260:17266   */\n      dup2\n        /* \"#utility.yul\":17248:17258   */\n      dup2\n        /* \"#utility.yul\":17245:17267   */\n      lt\n        /* \"#utility.yul\":17224:17242   */\n      0xffffffffffffffff\n        /* \"#utility.yul\":17212:17222   */\n      dup3\n        /* \"#utility.yul\":17209:17243   */\n      gt\n        /* \"#utility.yul\":17206:17268   */\n      or\n        /* \"#utility.yul\":17203:17291   */\n      iszero\n      tag_511\n      jumpi\n        /* \"#utility.yul\":17271:17289   */\n      tag_512\n      tag_470\n      jump\t// in\n    tag_512:\n        /* \"#utility.yul\":17203:17291   */\n    tag_511:\n        /* \"#utility.yul\":17311:17321   */\n      dup1\n        /* \"#utility.yul\":17307:17309   */\n      0x40\n        /* \"#utility.yul\":17300:17322   */\n      mstore\n        /* \"#utility.yul\":17090:17328   */\n      pop\n        /* \"#utility.yul\":17047:17328   */\n      pop\n      pop\n      jump\t// out\n        /* \"#utility.yul\":17334:17567   */\n    tag_175:\n        /* \"#utility.yul\":17373:17376   */\n      0x00\n        /* \"#utility.yul\":17396:17420   */\n      tag_514\n        /* \"#utility.yul\":17414:17419   */\n      dup3\n        /* \"#utility.yul\":17396:17420   */\n      tag_432\n      jump\t// in\n    tag_514:\n        /* \"#utility.yul\":17387:17420   */\n      swap2\n      pop\n        /* \"#utility.yul\":17442:17508   */\n      0xffffffffffffffffffffffffffffffffffffffffffffffffffffffffffffffff\n        /* \"#utility.yul\":17435:17440   */\n      dup3\n        /* \"#utility.yul\":17432:17509   */\n      eq\n        /* \"#utility.yul\":17429:17532   */\n      iszero\n      tag_515\n      jumpi\n        /* \"#utility.yul\":17512:17530   */\n      tag_516\n      tag_486\n      jump\t// in\n    tag_516:\n        /* \"#utility.yul\":17429:17532   */\n    tag_515:\n        /* \"#utility.yul\":17559:17560   */\n      0x01\n        /* \"#utility.yul\":17552:17557   */\n      dup3\n        /* \"#utility.yul\":17548:17561   */\n      add\n        /* \"#utility.yul\":17541:17561   */\n      swap1\n      pop\n        /* \"#utility.yul\":17334:17567   */\n      swap2\n      swap1\n      pop\n      jump\t// out\n        /* \"#utility.yul\":17573:17753   */\n    tag_486:\n        /* \"#utility.yul\":17621:17698   */\n      0x4e487b7100000000000000000000000000000000000000000000000000000000\n        /* \"#utility.yul\":17618:17619   */\n      0x00\n        /* \"#utility.yul\":17611:17699   */\n      mstore\n        /* \"#utility.yul\":17718:17722   */\n      0x11\n        /* \"#utility.yul\":17715:17716   */\n      0x04\n        /* \"#utility.yul\":17708:17723   */\n      mstore\n        /* \"#utility.yul\":17742:17746   */\n      0x24\n        /* \"#utility.yul\":17739:17740   */\n      0x00\n        /* \"#utility.yul\":17732:17747   */\n      revert\n        /* \"#utility.yul\":17759:17939   */\n    tag_508:\n        /* \"#utility.yul\":17807:17884   */\n      0x4e487b7100000000000000000000000000000000000000000000000000000000\n        /* \"#utility.yul\":17804:17805   */\n      0x00\n        /* \"#utility.yul\":17797:17885   */\n      mstore\n        /* \"#utility.yul\":17904:17908   */\n      0x22\n        /* \"#utility.yul\":17901:17902   */\n      0x04\n        /* \"#utility.yul\":17894:17909   */\n      mstore\n        /* \"#utility.yul\":17928:17932   */\n      0x24\n        /* \"#utility.yul\":17925:17926   */\n      0x00\n        /* \"#utility.yul\":17918:17933   */\n      revert\n        /* \"#utility.yul\":17945:18125   */\n    tag_102:\n        /* \"#utility.yul\":17993:18070   */\n      0x4e487b7100000000000000000000000000000000000000000000000000000000\n        /* \"#utility.yul\":17990:17991   */\n      0x00\n        /* \"#utility.yul\":17983:18071   */\n      mstore\n        /* \"#utility.yul\":18090:18094   */\n      0x32\n        /* \"#utility.yul\":18087:18088   */\n      0x04\n        /* \"#utility.yul\":18080:18095   */\n      mstore\n        /* \"#utility.yul\":18114:18118   */\n      0x24\n        /* \"#utility.yul\":18111:18112   */\n      0x00\n        /* \"#utility.yul\":18104:18119   */\n      revert\n        /* \"#utility.yul\":18131:18311   */\n    tag_470:\n        /* \"#utility.yul\":18179:18256   */\n      0x4e487b7100000000000000000000000000000000000000000000000000000000\n        /* \"#utility.yul\":18176:18177   */\n      0x00\n        /* \"#utility.yul\":18169:18257   */\n      mstore\n        /* \"#utility.yul\":18276:18280   */\n      0x41\n        /* \"#utility.yul\":18273:18274   */\n      0x04\n        /* \"#utility.yul\":18266:18281   */\n      mstore\n        /* \"#utility.yul\":18300:18304   */\n      0x24\n        /* \"#utility.yul\":18297:18298   */\n      0x00\n        /* \"#utility.yul\":18290:18305   */\n      revert\n        /* \"#utility.yul\":18317:18434   */\n    tag_312:\n        /* \"#utility.yul\":18426:18427   */\n      0x00\n        /* \"#utility.yul\":18423:18424   */\n      dup1\n        /* \"#utility.yul\":18416:18428   */\n      revert\n        /* \"#utility.yul\":18440:18557   */\n    tag_297:\n        /* \"#utility.yul\":18549:18550   */\n      0x00\n        /* \"#utility.yul\":18546:18547   */\n      dup1\n        /* \"#utility.yul\":18539:18551   */\n      revert\n        /* \"#utility.yul\":18563:18680   */\n    tag_328:\n        /* \"#utility.yul\":18672:18673   */\n      0x00\n        /* \"#utility.yul\":18669:18670   */\n      dup1\n        /* \"#utility.yul\":18662:18674   */\n      revert\n        /* \"#utility.yul\":18686:18803   */\n    tag_321:\n        /* \"#utility.yul\":18795:18796   */\n      0x00\n        /* \"#utility.yul\":18792:18793   */\n      dup1\n        /* \"#utility.yul\":18785:18797   */\n      revert\n        /* \"#utility.yul\":18809:18911   */\n    tag_393:\n        /* \"#utility.yul\":18850:18856   */\n      0x00\n        /* \"#utility.yul\":18901:18903   */\n      0x1f\n        /* \"#utility.yul\":18897:18904   */\n      not\n        /* \"#utility.yul\":18892:18894   */\n      0x1f\n        /* \"#utility.yul\":18885:18890   */\n      dup4\n        /* \"#utility.yul\":18881:18895   */\n      add\n        /* \"#utility.yul\":18877:18905   */\n      and\n        /* \"#utility.yul\":18867:18905   */\n      swap1\n      pop\n        /* \"#utility.yul\":18809:18911   */\n      swap2\n      swap1\n      pop\n      jump\t// out\n        /* \"#utility.yul\":18917:19083   */\n    tag_423:\n        /* \"#utility.yul\":19057:19075   */\n      0x6572726f723a206e6f74206d6f6e657900000000000000000000000000000000\n        /* \"#utility.yul\":19053:19054   */\n      0x00\n        /* \"#utility.yul\":19045:19051   */\n      dup3\n        /* \"#utility.yul\":19041:19055   */\n      add\n        /* \"#utility.yul\":19034:19076   */\n      mstore\n        /* \"#utility.yul\":18917:19083   */\n      pop\n      jump\t// out\n        /* \"#utility.yul\":19089:19309   */\n    tag_428:\n        /* \"#utility.yul\":19229:19263   */\n      0x6572726f723a20726174696e672063616e2062652066726f6d203120746f2031\n        /* \"#utility.yul\":19225:19226   */\n      0x00\n        /* \"#utility.yul\":19217:19223   */\n      dup3\n        /* \"#utility.yul\":19213:19227   */\n      add\n        /* \"#utility.yul\":19206:19264   */\n      mstore\n        /* \"#utility.yul\":19298:19301   */\n      0x3000000000000000000000000000000000000000000000000000000000000000\n        /* \"#utility.yul\":19293:19295   */\n      0x20\n        /* \"#utility.yul\":19285:19291   */\n      dup3\n        /* \"#utility.yul\":19281:19296   */\n      add\n        /* \"#utility.yul\":19274:19302   */\n      mstore\n        /* \"#utility.yul\":19089:19309   */\n      pop\n      jump\t// out\n        /* \"#utility.yul\":19315:19437   */\n    tag_303:\n        /* \"#utility.yul\":19388:19412   */\n      tag_529\n        /* \"#utility.yul\":19406:19411   */\n      dup2\n        /* \"#utility.yul\":19388:19412   */\n      tag_366\n      jump\t// in\n    tag_529:\n        /* \"#utility.yul\":19381:19386   */\n      dup2\n        /* \"#utility.yul\":19378:19413   */\n      eq\n        /* \"#utility.yul\":19368:19431   */\n      tag_530\n      jumpi\n        /* \"#utility.yul\":19427:19428   */\n      0x00\n        /* \"#utility.yul\":19424:19425   */\n      dup1\n        /* \"#utility.yul\":19417:19429   */\n      revert\n        /* \"#utility.yul\":19368:19431   */\n    tag_530:\n        /* \"#utility.yul\":19315:19437   */\n      pop\n      jump\t// out\n        /* \"#utility.yul\":19443:19559   */\n    tag_307:\n        /* \"#utility.yul\":19513:19534   */\n      tag_532\n        /* \"#utility.yul\":19528:19533   */\n      dup2\n        /* \"#utility.yul\":19513:19534   */\n      tag_384\n      jump\t// in\n    tag_532:\n        /* \"#utility.yul\":19506:19511   */\n      dup2\n        /* \"#utility.yul\":19503:19535   */\n      eq\n        /* \"#utility.yul\":19493:19553   */\n      tag_533\n      jumpi\n        /* \"#utility.yul\":19549:19550   */\n      0x00\n        /* \"#utility.yul\":19546:19547   */\n      dup1\n        /* \"#utility.yul\":19539:19551   */\n      revert\n        /* \"#utility.yul\":19493:19553   */\n    tag_533:\n        /* \"#utility.yul\":19443:19559   */\n      pop\n      jump\t// out\n        /* \"#utility.yul\":19565:19687   */\n    tag_317:\n        /* \"#utility.yul\":19638:19662   */\n      tag_535\n        /* \"#utility.yul\":19656:19661   */\n      dup2\n        /* \"#utility.yul\":19638:19662   */\n      tag_432\n      jump\t// in\n    tag_535:\n        /* \"#utility.yul\":19631:19636   */\n      dup2\n        /* \"#utility.yul\":19628:19663   */\n      eq\n        /* \"#utility.yul\":19618:19681   */\n      tag_536\n      jumpi\n        /* \"#utility.yul\":19677:19678   */\n      0x00\n        /* \"#utility.yul\":19674:19675   */\n      dup1\n        /* \"#utility.yul\":19667:19679   */\n      revert\n        /* \"#utility.yul\":19618:19681   */\n    tag_536:\n        /* \"#utility.yul\":19565:19687   */\n      pop\n      jump\t// out\n\n    auxdata: 0xa2646970667358221220ac9905b85dbdbf351e4b606dad2164941e3624414044852bb6abef5e18bd00ba64736f6c63430008070033\n}\n",
				"bytecode": {
					"linkReferences": {},
					"object": "60806040526000600c553480156200001657600080fd5b506040518060a001604052806040518060400160405280600481526020017f466f6f640000000000000000000000000000000000000000000000000000000081525081526020016040518060400160405280600181526020017f310000000000000000000000000000000000000000000000000000000000000081525081526020016040518060400160405280600681526020017f4d6f73636f77000000000000000000000000000000000000000000000000000081525081526020016103e881526020016000815250600080735b38da6a701c568545dcfcb03fcb875f56beddc473ffffffffffffffffffffffffffffffffffffffff1673ffffffffffffffffffffffffffffffffffffffff1681526020019081526020016000206000820151816000019080519060200190620001509291906200084f565b5060208201518160010190805190602001906200016f9291906200084f565b5060408201518160020190805190602001906200018e9291906200084f565b5060608201518160030155608082015181600401559050506002600080735b38da6a701c568545dcfcb03fcb875f56beddc473ffffffffffffffffffffffffffffffffffffffff1673ffffffffffffffffffffffffffffffffffffffff168152602001908152602001600020600001908060018154018082558091505060019003906000526020600020016000909190919091509080546200023090620009e0565b6200023d929190620008e0565b506040518060a001604052806040518060400160405280600781526020017f436c6f746865730000000000000000000000000000000000000000000000000081525081526020016040518060400160405280600181526020017f320000000000000000000000000000000000000000000000000000000000000081525081526020016040518060400160405280600a81526020017f506574657273627572670000000000000000000000000000000000000000000081525081526020016103e88152602001600081525060008073ab8483f64d9c6d1ecf9b849ae677dd3315835cb273ffffffffffffffffffffffffffffffffffffffff1673ffffffffffffffffffffffffffffffffffffffff1681526020019081526020016000206000820151816000019080519060200190620003779291906200084f565b506020820151816001019080519060200190620003969291906200084f565b506040820151816002019080519060200190620003b59291906200084f565b506060820151816003015560808201518160040155905050600260008073ab8483f64d9c6d1ecf9b849ae677dd3315835cb273ffffffffffffffffffffffffffffffffffffffff1673ffffffffffffffffffffffffffffffffffffffff168152602001908152602001600020600001908060018154018082558091505060019003906000526020600020016000909190919091509080546200045790620009e0565b62000464929190620008e0565b506040518060a001604052806040518060400160405280600981526020017f5065742053746f7265000000000000000000000000000000000000000000000081525081526020016040518060400160405280600181526020017f330000000000000000000000000000000000000000000000000000000000000081525081526020016040518060400160405280600c81526020017f456b61746572696e62757267000000000000000000000000000000000000000081525081526020016103e881526020016000815250600080734b20993bc481177ec7e8f571cecae8a9e22c02db73ffffffffffffffffffffffffffffffffffffffff1673ffffffffffffffffffffffffffffffffffffffff16815260200190815260200160002060008201518160000190805190602001906200059e9291906200084f565b506020820151816001019080519060200190620005bd9291906200084f565b506040820151816002019080519060200190620005dc9291906200084f565b5060608201518160030155608082015181600401559050506002600080734b20993bc481177ec7e8f571cecae8a9e22c02db73ffffffffffffffffffffffffffffffffffffffff1673ffffffffffffffffffffffffffffffffffffffff168152602001908152602001600020600001908060018154018082558091505060019003906000526020600020016000909190919091509080546200067e90620009e0565b6200068b929190620008e0565b507378731d3ca6b7e34ac0f824c42a7cc18a495cabab6005604051620006b190620009be565b908152602001604051809103902060006101000a81548173ffffffffffffffffffffffffffffffffffffffff021916908373ffffffffffffffffffffffffffffffffffffffff16021790555060405180606001604052806040518060400160405280600481526020017f50657461000000000000000000000000000000000000000000000000000000008152508152602001600181526020016103e8815250600460007378731d3ca6b7e34ac0f824c42a7cc18a495cabab73ffffffffffffffffffffffffffffffffffffffff1673ffffffffffffffffffffffffffffffffffffffff1681526020019081526020016000206000820151816000019080519060200190620007c19291906200084f565b506020820151816001015560408201518160020155905050600680600181540180825580915050600190039060005260206000200160006040518060400160405280600481526020017f506574610000000000000000000000000000000000000000000000000000000081525090919091509080519060200190620008489291906200084f565b5062000a6e565b8280546200085d90620009e0565b90600052602060002090601f016020900481019282620008815760008555620008cd565b82601f106200089c57805160ff1916838001178555620008cd565b82800160010185558215620008cd579182015b82811115620008cc578251825591602001919060010190620008af565b5b509050620008dc919062000978565b5090565b828054620008ee90620009e0565b90600052602060002090601f01602090048101928262000912576000855562000965565b82601f1062000925578054855562000965565b828001600101855582156200096557600052602060002091601f016020900482015b828111156200096457825482559160010191906001019062000947565b5b50905062000974919062000978565b5090565b5b808211156200099357600081600090555060010162000979565b5090565b6000620009a6600483620009d5565b9150620009b38262000a45565b600482019050919050565b6000620009cb8262000997565b9150819050919050565b600081905092915050565b60006002820490506001821680620009f957607f821691505b6020821081141562000a105762000a0f62000a16565b5b50919050565b7f4e487b7100000000000000000000000000000000000000000000000000000000600052602260045260246000fd5b7f5065746100000000000000000000000000000000000000000000000000000000600082015250565b6124d98062000a7e6000396000f3fe608060405234801561001057600080fd5b50600436106101165760003560e01c8063a9f9482b116100a2578063cc21c18811610071578063cc21c188146102f5578063d68cf8c114610311578063dce3915114610344578063f69483c114610376578063fc675c6c1461039257610116565b8063a9f9482b14610259578063bbd433631461028b578063c178b9af146102a7578063c4957fa0146102c557610116565b80632d4673e3116100e95780632d4673e31461019f57806334d2c0ad146101bb5780636c05dd1d146101d95780637ddb273d146101f5578063961865f01461022757610116565b80630c72b1ec1461011b578063146dc6ed146101375780631bbe970a146101535780632ccdef7c14610183575b600080fd5b61013560048036038101906101309190611c61565b6103c3565b005b610151600480360381019061014c9190611ad5565b610690565b005b61016d60048036038101906101689190611ad5565b61081e565b60405161017a9190611eed565b60405180910390f35b61019d60048036038101906101989190611c61565b610867565b005b6101b960048036038101906101b49190611ad5565b610a5d565b005b6101c3610b45565b6040516101d09190611f92565b60405180910390f35b6101f360048036038101906101ee9190611ba9565b610c1e565b005b61020f600480360381019061020a9190611c34565b610d49565b60405161021e93929190611f08565b60405180910390f35b610241600480360381019061023c9190611aa8565b610e38565b60405161025093929190611feb565b60405180910390f35b610273600480360381019061026e9190611c34565b610eea565b60405161028293929190611f08565b60405180910390f35b6102a560048036038101906102a09190611ad5565b610fd9565b005b6102af6110c1565b6040516102bc9190611f92565b60405180910390f35b6102df60048036038101906102da9190611ad5565b61119a565b6040516102ec9190611eed565b60405180910390f35b61030f600480360381019061030a9190611b1e565b6111e3565b005b61032b60048036038101906103269190611ad5565b611328565b60405161033b9493929190611f46565b60405180910390f35b61035e60048036038101906103599190611c34565b611416565b60405161036d93929190611f08565b60405180910390f35b610390600480360381019061038b9190611c61565b611505565b005b6103ac60048036038101906103a79190611ad5565b6116fb565b6040516103ba929190611fb4565b60405180910390f35b60011515811515141561064d576000600983815481106103e6576103e5612363565b5b906000526020600020906003020160020160006101000a81548160ff02191690831515021790555060076009838154811061042457610423612363565b5b90600052602060002090600302016001016040516104429190611ed6565b908152602001604051809103902060020154600460006009858154811061046c5761046b612363565b5b906000526020600020906003020160000160009054906101000a900473ffffffffffffffffffffffffffffffffffffffff1673ffffffffffffffffffffffffffffffffffffffff1673ffffffffffffffffffffffffffffffffffffffff168152602001908152602001600020600201546104e6919061219b565b60046000600985815481106104fe576104fd612363565b5b906000526020600020906003020160000160009054906101000a900473ffffffffffffffffffffffffffffffffffffffff1673ffffffffffffffffffffffffffffffffffffffff1673ffffffffffffffffffffffffffffffffffffffff1681526020019081526020016000206002018190555060076009838154811061058757610586612363565b5b90600052602060002090600302016001016040516105a59190611ed6565b9081526020016040518091039020600201546000803373ffffffffffffffffffffffffffffffffffffffff1673ffffffffffffffffffffffffffffffffffffffff168152602001908152602001600020600301546106039190612145565b6000803373ffffffffffffffffffffffffffffffffffffffff1673ffffffffffffffffffffffffffffffffffffffff1681526020019081526020016000206003018190555061068c565b60006009838154811061066357610662612363565b5b906000526020600020906003020160020160006101000a81548160ff0219169083151502179055505b5050565b6007816040516106a09190611ebf565b908152602001604051809103902060020154600460003373ffffffffffffffffffffffffffffffffffffffff1673ffffffffffffffffffffffffffffffffffffffff168152602001908152602001600020600201541015610736576040517f08c379a000000000000000000000000000000000000000000000000000000000815260040161072d90612029565b60405180910390fd5b600960405180606001604052803373ffffffffffffffffffffffffffffffffffffffff16815260200183815260200160011515815250908060018154018082558091505060019003906000526020600020906003020160009091909190915060008201518160000160006101000a81548173ffffffffffffffffffffffffffffffffffffffff021916908373ffffffffffffffffffffffffffffffffffffffff16021790555060208201518160010190805190602001906107f8929190611845565b5060408201518160020160006101000a81548160ff021916908315150217905550505050565b6005818051602081018201805184825260208301602085012081835280955050505050506000915054906101000a900473ffffffffffffffffffffffffffffffffffffffff1681565b600115158115151415610a1a576000600a838154811061088a57610889612363565b5b906000526020600020906003020160020160006101000a81548160ff0219169083151502179055506007600a83815481106108c8576108c7612363565b5b90600052602060002090600302016001016040516108e69190611ed6565b90815260200160405180910390206002015460046000600a85815481106109105761090f612363565b5b906000526020600020906003020160000160009054906101000a900473ffffffffffffffffffffffffffffffffffffffff1673ffffffffffffffffffffffffffffffffffffffff1673ffffffffffffffffffffffffffffffffffffffff1681526020019081526020016000206002015461098a9190612145565b60046000600a85815481106109a2576109a1612363565b5b906000526020600020906003020160000160009054906101000a900473ffffffffffffffffffffffffffffffffffffffff1673ffffffffffffffffffffffffffffffffffffffff1673ffffffffffffffffffffffffffffffffffffffff16815260200190815260200160002060020181905550610a59565b6000600a8381548110610a3057610a2f612363565b5b906000526020600020906003020160020160006101000a81548160ff0219169083151502179055505b5050565b600b60405180606001604052803373ffffffffffffffffffffffffffffffffffffffff16815260200183815260200160011515815250908060018154018082558091505060019003906000526020600020906003020160009091909190915060008201518160000160006101000a81548173ffffffffffffffffffffffffffffffffffffffff021916908373ffffffffffffffffffffffffffffffffffffffff1602179055506020820151816001019080519060200190610b1f929190611845565b5060408201518160020160006101000a81548160ff021916908315150217905550505050565b60606008805480602002602001604051908101604052809291908181526020016000905b82821015610c15578382906000526020600020018054610b8890612259565b80601f0160208091040260200160405190810160405280929190818152602001828054610bb490612259565b8015610c015780601f10610bd657610100808354040283529160200191610c01565b820191906000526020600020905b815481529060010190602001808311610be457829003601f168201915b505050505081526020019060010190610b69565b50505050905090565b60405180608001604052803373ffffffffffffffffffffffffffffffffffffffff168152602001828152602001838152602001600c54815250600784604051610c679190611ebf565b908152602001604051809103902060008201518160000160006101000a81548173ffffffffffffffffffffffffffffffffffffffff021916908373ffffffffffffffffffffffffffffffffffffffff1602179055506020820151816001019080519060200190610cd8929190611845565b506040820151816002015560608201518160030155905050600883908060018154018082558091505060019003906000526020600020016000909190919091509080519060200190610d2b929190611845565b50600c6000815480929190610d3f906122bc565b9190505550505050565b600b8181548110610d5957600080fd5b90600052602060002090600302016000915090508060000160009054906101000a900473ffffffffffffffffffffffffffffffffffffffff1690806001018054610da290612259565b80601f0160208091040260200160405190810160405280929190818152602001828054610dce90612259565b8015610e1b5780601f10610df057610100808354040283529160200191610e1b565b820191906000526020600020905b815481529060010190602001808311610dfe57829003601f168201915b5050505050908060020160009054906101000a900460ff16905083565b6004602052806000526040600020600091509050806000018054610e5b90612259565b80601f0160208091040260200160405190810160405280929190818152602001828054610e8790612259565b8015610ed45780601f10610ea957610100808354040283529160200191610ed4565b820191906000526020600020905b815481529060010190602001808311610eb757829003601f168201915b5050505050908060010154908060020154905083565b600a8181548110610efa57600080fd5b90600052602060002090600302016000915090508060000160009054906101000a900473ffffffffffffffffffffffffffffffffffffffff1690806001018054610f4390612259565b80601f0160208091040260200160405190810160405280929190818152602001828054610f6f90612259565b8015610fbc5780601f10610f9157610100808354040283529160200191610fbc565b820191906000526020600020905b815481529060010190602001808311610f9f57829003601f168201915b5050505050908060020160009054906101000a900460ff16905083565b600a60405180606001604052803373ffffffffffffffffffffffffffffffffffffffff16815260200183815260200160011515815250908060018154018082558091505060019003906000526020600020906003020160009091909190915060008201518160000160006101000a81548173ffffffffffffffffffffffffffffffffffffffff021916908373ffffffffffffffffffffffffffffffffffffffff160217905550602082015181600101908051906020019061109b929190611845565b5060408201518160020160006101000a81548160ff021916908315150217905550505050565b60606002805480602002602001604051908101604052809291908181526020016000905b8282101561119157838290600052602060002001805461110490612259565b80601f016020809104026020016040519081016040528092919081815260200182805461113090612259565b801561117d5780601f106111525761010080835404028352916020019161117d565b820191906000526020600020905b81548152906001019060200180831161116057829003601f168201915b5050505050815260200190600101906110e5565b50505050905090565b6001818051602081018201805184825260208301602085012081835280955050505050506000915054906101000a900473ffffffffffffffffffffffffffffffffffffffff1681565b600a811115611227576040517f08c379a000000000000000000000000000000000000000000000000000000000815260040161121e90612049565b60405180910390fd5b6060806040518060800160405280868152602001858152602001828152602001838152506003600460003373ffffffffffffffffffffffffffffffffffffffff1673ffffffffffffffffffffffffffffffffffffffff16815260200190815260200160002060000160405161129c9190611ed6565b908152602001604051809103902060008201518160000190805190602001906112c6929190611845565b5060208201518160010190805190602001906112e3929190611845565b5060408201518160020190805190602001906113009291906118cb565b50606082015181600301908051906020019061131d929190611918565b509050505050505050565b6007818051602081018201805184825260208301602085012081835280955050505050506000915090508060000160009054906101000a900473ffffffffffffffffffffffffffffffffffffffff169080600101805461138790612259565b80601f01602080910402602001604051908101604052809291908181526020018280546113b390612259565b80156114005780601f106113d557610100808354040283529160200191611400565b820191906000526020600020905b8154815290600101906020018083116113e357829003601f168201915b5050505050908060020154908060030154905084565b6009818154811061142657600080fd5b90600052602060002090600302016000915090508060000160009054906101000a900473ffffffffffffffffffffffffffffffffffffffff169080600101805461146f90612259565b80601f016020809104026020016040519081016040528092919081815260200182805461149b90612259565b80156114e85780601f106114bd576101008083540402835291602001916114e8565b820191906000526020600020905b8154815290600101906020018083116114cb57829003601f168201915b5050505050908060020160009054906101000a900460ff16905083565b6001151581151514156116b8576000600a838154811061152857611527612363565b5b906000526020600020906003020160020160006101000a81548160ff0219169083151502179055506007600b838154811061156657611565612363565b5b90600052602060002090600302016001016040516115849190611ed6565b90815260200160405180910390206002015460046000600b85815481106115ae576115ad612363565b5b906000526020600020906003020160000160009054906101000a900473ffffffffffffffffffffffffffffffffffffffff1673ffffffffffffffffffffffffffffffffffffffff1673ffffffffffffffffffffffffffffffffffffffff168152602001908152602001600020600201546116289190612145565b60046000600b85815481106116405761163f612363565b5b906000526020600020906003020160000160009054906101000a900473ffffffffffffffffffffffffffffffffffffffff1673ffffffffffffffffffffffffffffffffffffffff1673ffffffffffffffffffffffffffffffffffffffff168152602001908152602001600020600201819055506116f7565b6000600a83815481106116ce576116cd612363565b5b906000526020600020906003020160020160006101000a81548160ff0219169083151502179055505b5050565b60038180516020810182018051848252602083016020850120818352809550505050505060009150905080600001805461173490612259565b80601f016020809104026020016040519081016040528092919081815260200182805461176090612259565b80156117ad5780601f10611782576101008083540402835291602001916117ad565b820191906000526020600020905b81548152906001019060200180831161179057829003601f168201915b5050505050908060010180546117c290612259565b80601f01602080910402602001604051908101604052809291908181526020018280546117ee90612259565b801561183b5780601f106118105761010080835404028352916020019161183b565b820191906000526020600020905b81548152906001019060200180831161181e57829003601f168201915b5050505050905082565b82805461185190612259565b90600052602060002090601f01602090048101928261187357600085556118ba565b82601f1061188c57805160ff19168380011785556118ba565b828001600101855582156118ba579182015b828111156118b957825182559160200191906001019061189e565b5b5090506118c79190611978565b5090565b828054828255906000526020600020908101928215611907579160200282015b828111156119065782518255916020019190600101906118eb565b5b5090506119149190611978565b5090565b828054828255906000526020600020908101928215611967579160200282015b82811115611966578251829080519060200190611956929190611845565b5091602001919060010190611938565b5b5090506119749190611995565b5090565b5b80821115611991576000816000905550600101611979565b5090565b5b808211156119b557600081816119ac91906119b9565b50600101611996565b5090565b5080546119c590612259565b6000825580601f106119d757506119f6565b601f0160209004906000526020600020908101906119f59190611978565b5b50565b6000611a0c611a078461208e565b612069565b905082815260208101848484011115611a2857611a276123c6565b5b611a33848285612217565b509392505050565b600081359050611a4a8161245e565b92915050565b600081359050611a5f81612475565b92915050565b600082601f830112611a7a57611a796123c1565b5b8135611a8a8482602086016119f9565b91505092915050565b600081359050611aa28161248c565b92915050565b600060208284031215611abe57611abd6123d0565b5b6000611acc84828501611a3b565b91505092915050565b600060208284031215611aeb57611aea6123d0565b5b600082013567ffffffffffffffff811115611b0957611b086123cb565b5b611b1584828501611a65565b91505092915050565b600080600060608486031215611b3757611b366123d0565b5b600084013567ffffffffffffffff811115611b5557611b546123cb565b5b611b6186828701611a65565b935050602084013567ffffffffffffffff811115611b8257611b816123cb565b5b611b8e86828701611a65565b9250506040611b9f86828701611a93565b9150509250925092565b600080600060608486031215611bc257611bc16123d0565b5b600084013567ffffffffffffffff811115611be057611bdf6123cb565b5b611bec86828701611a65565b9350506020611bfd86828701611a93565b925050604084013567ffffffffffffffff811115611c1e57611c1d6123cb565b5b611c2a86828701611a65565b9150509250925092565b600060208284031215611c4a57611c496123d0565b5b6000611c5884828501611a93565b91505092915050565b60008060408385031215611c7857611c776123d0565b5b6000611c8685828601611a93565b9250506020611c9785828601611a50565b9150509250929050565b6000611cad8383611d48565b905092915050565b611cbe816121cf565b82525050565b6000611ccf826120e4565b611cd98185612107565b935083602082028501611ceb856120bf565b8060005b85811015611d275784840389528151611d088582611ca1565b9450611d13836120fa565b925060208a01995050600181019050611cef565b50829750879550505050505092915050565b611d42816121e1565b82525050565b6000611d53826120ef565b611d5d8185612118565b9350611d6d818560208601612226565b611d76816123d5565b840191505092915050565b6000611d8c826120ef565b611d968185612129565b9350611da6818560208601612226565b611daf816123d5565b840191505092915050565b6000611dc5826120ef565b611dcf818561213a565b9350611ddf818560208601612226565b80840191505092915050565b60008154611df881612259565b611e02818661213a565b94506001821660008114611e1d5760018114611e2e57611e61565b60ff19831686528186019350611e61565b611e37856120cf565b60005b83811015611e5957815481890152600182019150602081019050611e3a565b838801955050505b50505092915050565b6000611e77601083612129565b9150611e82826123e6565b602082019050919050565b6000611e9a602183612129565b9150611ea58261240f565b604082019050919050565b611eb98161220d565b82525050565b6000611ecb8284611dba565b915081905092915050565b6000611ee28284611deb565b915081905092915050565b6000602082019050611f026000830184611cb5565b92915050565b6000606082019050611f1d6000830186611cb5565b8181036020830152611f2f8185611d81565b9050611f3e6040830184611d39565b949350505050565b6000608082019050611f5b6000830187611cb5565b8181036020830152611f6d8186611d81565b9050611f7c6040830185611eb0565b611f896060830184611eb0565b95945050505050565b60006020820190508181036000830152611fac8184611cc4565b905092915050565b60006040820190508181036000830152611fce8185611d81565b90508181036020830152611fe28184611d81565b90509392505050565b600060608201905081810360008301526120058186611d81565b90506120146020830185611eb0565b6120216040830184611eb0565b949350505050565b6000602082019050818103600083015261204281611e6a565b9050919050565b6000602082019050818103600083015261206281611e8d565b9050919050565b6000612073612084565b905061207f828261228b565b919050565b6000604051905090565b600067ffffffffffffffff8211156120a9576120a8612392565b5b6120b2826123d5565b9050602081019050919050565b6000819050602082019050919050565b60008190508160005260206000209050919050565b600081519050919050565b600081519050919050565b6000602082019050919050565b600082825260208201905092915050565b600082825260208201905092915050565b600082825260208201905092915050565b600081905092915050565b60006121508261220d565b915061215b8361220d565b9250827fffffffffffffffffffffffffffffffffffffffffffffffffffffffffffffffff038211156121905761218f612305565b5b828201905092915050565b60006121a68261220d565b91506121b18361220d565b9250828210156121c4576121c3612305565b5b828203905092915050565b60006121da826121ed565b9050919050565b60008115159050919050565b600073ffffffffffffffffffffffffffffffffffffffff82169050919050565b6000819050919050565b82818337600083830152505050565b60005b83811015612244578082015181840152602081019050612229565b83811115612253576000848401525b50505050565b6000600282049050600182168061227157607f821691505b6020821081141561228557612284612334565b5b50919050565b612294826123d5565b810181811067ffffffffffffffff821117156122b3576122b2612392565b5b80604052505050565b60006122c78261220d565b91507fffffffffffffffffffffffffffffffffffffffffffffffffffffffffffffffff8214156122fa576122f9612305565b5b600182019050919050565b7f4e487b7100000000000000000000000000000000000000000000000000000000600052601160045260246000fd5b7f4e487b7100000000000000000000000000000000000000000000000000000000600052602260045260246000fd5b7f4e487b7100000000000000000000000000000000000000000000000000000000600052603260045260246000fd5b7f4e487b7100000000000000000000000000000000000000000000000000000000600052604160045260246000fd5b600080fd5b600080fd5b600080fd5b600080fd5b6000601f19601f8301169050919050565b7f6572726f723a206e6f74206d6f6e657900000000000000000000000000000000600082015250565b7f6572726f723a20726174696e672063616e2062652066726f6d203120746f203160008201527f3000000000000000000000000000000000000000000000000000000000000000602082015250565b612467816121cf565b811461247257600080fd5b50565b61247e816121e1565b811461248957600080fd5b50565b6124958161220d565b81146124a057600080fd5b5056fea2646970667358221220ac9905b85dbdbf351e4b606dad2164941e3624414044852bb6abef5e18bd00ba64736f6c63430008070033",
					"opcodes": "PUSH1 0x80 PUSH1 0x40 MSTORE PUSH1 0x0 PUSH1 0xC SSTORE CALLVALUE DUP1 ISZERO PUSH3 0x16 JUMPI PUSH1 0x0 DUP1 REVERT JUMPDEST POP PUSH1 0x40 MLOAD DUP1 PUSH1 0xA0 ADD PUSH1 0x40 MSTORE DUP1 PUSH1 0x40 MLOAD DUP1 PUSH1 0x40 ADD PUSH1 0x40 MSTORE DUP1 PUSH1 0x4 DUP2 MSTORE PUSH1 0x20 ADD PUSH32 0x466F6F6400000000000000000000000000000000000000000000000000000000 DUP2 MSTORE POP DUP2 MSTORE PUSH1 0x20 ADD PUSH1 0x40 MLOAD DUP1 PUSH1 0x40 ADD PUSH1 0x40 MSTORE DUP1 PUSH1 0x1 DUP2 MSTORE PUSH1 0x20 ADD PUSH32 0x3100000000000000000000000000000000000000000000000000000000000000 DUP2 MSTORE POP DUP2 MSTORE PUSH1 0x20 ADD PUSH1 0x40 MLOAD DUP1 PUSH1 0x40 ADD PUSH1 0x40 MSTORE DUP1 PUSH1 0x6 DUP2 MSTORE PUSH1 0x20 ADD PUSH32 0x4D6F73636F770000000000000000000000000000000000000000000000000000 DUP2 MSTORE POP DUP2 MSTORE PUSH1 0x20 ADD PUSH2 0x3E8 DUP2 MSTORE PUSH1 0x20 ADD PUSH1 0x0 DUP2 MSTORE POP PUSH1 0x0 DUP1 PUSH20 0x5B38DA6A701C568545DCFCB03FCB875F56BEDDC4 PUSH20 0xFFFFFFFFFFFFFFFFFFFFFFFFFFFFFFFFFFFFFFFF AND PUSH20 0xFFFFFFFFFFFFFFFFFFFFFFFFFFFFFFFFFFFFFFFF AND DUP2 MSTORE PUSH1 0x20 ADD SWAP1 DUP2 MSTORE PUSH1 0x20 ADD PUSH1 0x0 KECCAK256 PUSH1 0x0 DUP3 ADD MLOAD DUP2 PUSH1 0x0 ADD SWAP1 DUP1 MLOAD SWAP1 PUSH1 0x20 ADD SWAP1 PUSH3 0x150 SWAP3 SWAP2 SWAP1 PUSH3 0x84F JUMP JUMPDEST POP PUSH1 0x20 DUP3 ADD MLOAD DUP2 PUSH1 0x1 ADD SWAP1 DUP1 MLOAD SWAP1 PUSH1 0x20 ADD SWAP1 PUSH3 0x16F SWAP3 SWAP2 SWAP1 PUSH3 0x84F JUMP JUMPDEST POP PUSH1 0x40 DUP3 ADD MLOAD DUP2 PUSH1 0x2 ADD SWAP1 DUP1 MLOAD SWAP1 PUSH1 0x20 ADD SWAP1 PUSH3 0x18E SWAP3 SWAP2 SWAP1 PUSH3 0x84F JUMP JUMPDEST POP PUSH1 0x60 DUP3 ADD MLOAD DUP2 PUSH1 0x3 ADD SSTORE PUSH1 0x80 DUP3 ADD MLOAD DUP2 PUSH1 0x4 ADD SSTORE SWAP1 POP POP PUSH1 0x2 PUSH1 0x0 DUP1 PUSH20 0x5B38DA6A701C568545DCFCB03FCB875F56BEDDC4 PUSH20 0xFFFFFFFFFFFFFFFFFFFFFFFFFFFFFFFFFFFFFFFF AND PUSH20 0xFFFFFFFFFFFFFFFFFFFFFFFFFFFFFFFFFFFFFFFF AND DUP2 MSTORE PUSH1 0x20 ADD SWAP1 DUP2 MSTORE PUSH1 0x20 ADD PUSH1 0x0 KECCAK256 PUSH1 0x0 ADD SWAP1 DUP1 PUSH1 0x1 DUP2 SLOAD ADD DUP1 DUP3 SSTORE DUP1 SWAP2 POP POP PUSH1 0x1 SWAP1 SUB SWAP1 PUSH1 0x0 MSTORE PUSH1 0x20 PUSH1 0x0 KECCAK256 ADD PUSH1 0x0 SWAP1 SWAP2 SWAP1 SWAP2 SWAP1 SWAP2 POP SWAP1 DUP1 SLOAD PUSH3 0x230 SWAP1 PUSH3 0x9E0 JUMP JUMPDEST PUSH3 0x23D SWAP3 SWAP2 SWAP1 PUSH3 0x8E0 JUMP JUMPDEST POP PUSH1 0x40 MLOAD DUP1 PUSH1 0xA0 ADD PUSH1 0x40 MSTORE DUP1 PUSH1 0x40 MLOAD DUP1 PUSH1 0x40 ADD PUSH1 0x40 MSTORE DUP1 PUSH1 0x7 DUP2 MSTORE PUSH1 0x20 ADD PUSH32 0x436C6F7468657300000000000000000000000000000000000000000000000000 DUP2 MSTORE POP DUP2 MSTORE PUSH1 0x20 ADD PUSH1 0x40 MLOAD DUP1 PUSH1 0x40 ADD PUSH1 0x40 MSTORE DUP1 PUSH1 0x1 DUP2 MSTORE PUSH1 0x20 ADD PUSH32 0x3200000000000000000000000000000000000000000000000000000000000000 DUP2 MSTORE POP DUP2 MSTORE PUSH1 0x20 ADD PUSH1 0x40 MLOAD DUP1 PUSH1 0x40 ADD PUSH1 0x40 MSTORE DUP1 PUSH1 0xA DUP2 MSTORE PUSH1 0x20 ADD PUSH32 0x5065746572736275726700000000000000000000000000000000000000000000 DUP2 MSTORE POP DUP2 MSTORE PUSH1 0x20 ADD PUSH2 0x3E8 DUP2 MSTORE PUSH1 0x20 ADD PUSH1 0x0 DUP2 MSTORE POP PUSH1 0x0 DUP1 PUSH20 0xAB8483F64D9C6D1ECF9B849AE677DD3315835CB2 PUSH20 0xFFFFFFFFFFFFFFFFFFFFFFFFFFFFFFFFFFFFFFFF AND PUSH20 0xFFFFFFFFFFFFFFFFFFFFFFFFFFFFFFFFFFFFFFFF AND DUP2 MSTORE PUSH1 0x20 ADD SWAP1 DUP2 MSTORE PUSH1 0x20 ADD PUSH1 0x0 KECCAK256 PUSH1 0x0 DUP3 ADD MLOAD DUP2 PUSH1 0x0 ADD SWAP1 DUP1 MLOAD SWAP1 PUSH1 0x20 ADD SWAP1 PUSH3 0x377 SWAP3 SWAP2 SWAP1 PUSH3 0x84F JUMP JUMPDEST POP PUSH1 0x20 DUP3 ADD MLOAD DUP2 PUSH1 0x1 ADD SWAP1 DUP1 MLOAD SWAP1 PUSH1 0x20 ADD SWAP1 PUSH3 0x396 SWAP3 SWAP2 SWAP1 PUSH3 0x84F JUMP JUMPDEST POP PUSH1 0x40 DUP3 ADD MLOAD DUP2 PUSH1 0x2 ADD SWAP1 DUP1 MLOAD SWAP1 PUSH1 0x20 ADD SWAP1 PUSH3 0x3B5 SWAP3 SWAP2 SWAP1 PUSH3 0x84F JUMP JUMPDEST POP PUSH1 0x60 DUP3 ADD MLOAD DUP2 PUSH1 0x3 ADD SSTORE PUSH1 0x80 DUP3 ADD MLOAD DUP2 PUSH1 0x4 ADD SSTORE SWAP1 POP POP PUSH1 0x2 PUSH1 0x0 DUP1 PUSH20 0xAB8483F64D9C6D1ECF9B849AE677DD3315835CB2 PUSH20 0xFFFFFFFFFFFFFFFFFFFFFFFFFFFFFFFFFFFFFFFF AND PUSH20 0xFFFFFFFFFFFFFFFFFFFFFFFFFFFFFFFFFFFFFFFF AND DUP2 MSTORE PUSH1 0x20 ADD SWAP1 DUP2 MSTORE PUSH1 0x20 ADD PUSH1 0x0 KECCAK256 PUSH1 0x0 ADD SWAP1 DUP1 PUSH1 0x1 DUP2 SLOAD ADD DUP1 DUP3 SSTORE DUP1 SWAP2 POP POP PUSH1 0x1 SWAP1 SUB SWAP1 PUSH1 0x0 MSTORE PUSH1 0x20 PUSH1 0x0 KECCAK256 ADD PUSH1 0x0 SWAP1 SWAP2 SWAP1 SWAP2 SWAP1 SWAP2 POP SWAP1 DUP1 SLOAD PUSH3 0x457 SWAP1 PUSH3 0x9E0 JUMP JUMPDEST PUSH3 0x464 SWAP3 SWAP2 SWAP1 PUSH3 0x8E0 JUMP JUMPDEST POP PUSH1 0x40 MLOAD DUP1 PUSH1 0xA0 ADD PUSH1 0x40 MSTORE DUP1 PUSH1 0x40 MLOAD DUP1 PUSH1 0x40 ADD PUSH1 0x40 MSTORE DUP1 PUSH1 0x9 DUP2 MSTORE PUSH1 0x20 ADD PUSH32 0x5065742053746F72650000000000000000000000000000000000000000000000 DUP2 MSTORE POP DUP2 MSTORE PUSH1 0x20 ADD PUSH1 0x40 MLOAD DUP1 PUSH1 0x40 ADD PUSH1 0x40 MSTORE DUP1 PUSH1 0x1 DUP2 MSTORE PUSH1 0x20 ADD PUSH32 0x3300000000000000000000000000000000000000000000000000000000000000 DUP2 MSTORE POP DUP2 MSTORE PUSH1 0x20 ADD PUSH1 0x40 MLOAD DUP1 PUSH1 0x40 ADD PUSH1 0x40 MSTORE DUP1 PUSH1 0xC DUP2 MSTORE PUSH1 0x20 ADD PUSH32 0x456B61746572696E627572670000000000000000000000000000000000000000 DUP2 MSTORE POP DUP2 MSTORE PUSH1 0x20 ADD PUSH2 0x3E8 DUP2 MSTORE PUSH1 0x20 ADD PUSH1 0x0 DUP2 MSTORE POP PUSH1 0x0 DUP1 PUSH20 0x4B20993BC481177EC7E8F571CECAE8A9E22C02DB PUSH20 0xFFFFFFFFFFFFFFFFFFFFFFFFFFFFFFFFFFFFFFFF AND PUSH20 0xFFFFFFFFFFFFFFFFFFFFFFFFFFFFFFFFFFFFFFFF AND DUP2 MSTORE PUSH1 0x20 ADD SWAP1 DUP2 MSTORE PUSH1 0x20 ADD PUSH1 0x0 KECCAK256 PUSH1 0x0 DUP3 ADD MLOAD DUP2 PUSH1 0x0 ADD SWAP1 DUP1 MLOAD SWAP1 PUSH1 0x20 ADD SWAP1 PUSH3 0x59E SWAP3 SWAP2 SWAP1 PUSH3 0x84F JUMP JUMPDEST POP PUSH1 0x20 DUP3 ADD MLOAD DUP2 PUSH1 0x1 ADD SWAP1 DUP1 MLOAD SWAP1 PUSH1 0x20 ADD SWAP1 PUSH3 0x5BD SWAP3 SWAP2 SWAP1 PUSH3 0x84F JUMP JUMPDEST POP PUSH1 0x40 DUP3 ADD MLOAD DUP2 PUSH1 0x2 ADD SWAP1 DUP1 MLOAD SWAP1 PUSH1 0x20 ADD SWAP1 PUSH3 0x5DC SWAP3 SWAP2 SWAP1 PUSH3 0x84F JUMP JUMPDEST POP PUSH1 0x60 DUP3 ADD MLOAD DUP2 PUSH1 0x3 ADD SSTORE PUSH1 0x80 DUP3 ADD MLOAD DUP2 PUSH1 0x4 ADD SSTORE SWAP1 POP POP PUSH1 0x2 PUSH1 0x0 DUP1 PUSH20 0x4B20993BC481177EC7E8F571CECAE8A9E22C02DB PUSH20 0xFFFFFFFFFFFFFFFFFFFFFFFFFFFFFFFFFFFFFFFF AND PUSH20 0xFFFFFFFFFFFFFFFFFFFFFFFFFFFFFFFFFFFFFFFF AND DUP2 MSTORE PUSH1 0x20 ADD SWAP1 DUP2 MSTORE PUSH1 0x20 ADD PUSH1 0x0 KECCAK256 PUSH1 0x0 ADD SWAP1 DUP1 PUSH1 0x1 DUP2 SLOAD ADD DUP1 DUP3 SSTORE DUP1 SWAP2 POP POP PUSH1 0x1 SWAP1 SUB SWAP1 PUSH1 0x0 MSTORE PUSH1 0x20 PUSH1 0x0 KECCAK256 ADD PUSH1 0x0 SWAP1 SWAP2 SWAP1 SWAP2 SWAP1 SWAP2 POP SWAP1 DUP1 SLOAD PUSH3 0x67E SWAP1 PUSH3 0x9E0 JUMP JUMPDEST PUSH3 0x68B SWAP3 SWAP2 SWAP1 PUSH3 0x8E0 JUMP JUMPDEST POP PUSH20 0x78731D3CA6B7E34AC0F824C42A7CC18A495CABAB PUSH1 0x5 PUSH1 0x40 MLOAD PUSH3 0x6B1 SWAP1 PUSH3 0x9BE JUMP JUMPDEST SWAP1 DUP2 MSTORE PUSH1 0x20 ADD PUSH1 0x40 MLOAD DUP1 SWAP2 SUB SWAP1 KECCAK256 PUSH1 0x0 PUSH2 0x100 EXP DUP2 SLOAD DUP2 PUSH20 0xFFFFFFFFFFFFFFFFFFFFFFFFFFFFFFFFFFFFFFFF MUL NOT AND SWAP1 DUP4 PUSH20 0xFFFFFFFFFFFFFFFFFFFFFFFFFFFFFFFFFFFFFFFF AND MUL OR SWAP1 SSTORE POP PUSH1 0x40 MLOAD DUP1 PUSH1 0x60 ADD PUSH1 0x40 MSTORE DUP1 PUSH1 0x40 MLOAD DUP1 PUSH1 0x40 ADD PUSH1 0x40 MSTORE DUP1 PUSH1 0x4 DUP2 MSTORE PUSH1 0x20 ADD PUSH32 0x5065746100000000000000000000000000000000000000000000000000000000 DUP2 MSTORE POP DUP2 MSTORE PUSH1 0x20 ADD PUSH1 0x1 DUP2 MSTORE PUSH1 0x20 ADD PUSH2 0x3E8 DUP2 MSTORE POP PUSH1 0x4 PUSH1 0x0 PUSH20 0x78731D3CA6B7E34AC0F824C42A7CC18A495CABAB PUSH20 0xFFFFFFFFFFFFFFFFFFFFFFFFFFFFFFFFFFFFFFFF AND PUSH20 0xFFFFFFFFFFFFFFFFFFFFFFFFFFFFFFFFFFFFFFFF AND DUP2 MSTORE PUSH1 0x20 ADD SWAP1 DUP2 MSTORE PUSH1 0x20 ADD PUSH1 0x0 KECCAK256 PUSH1 0x0 DUP3 ADD MLOAD DUP2 PUSH1 0x0 ADD SWAP1 DUP1 MLOAD SWAP1 PUSH1 0x20 ADD SWAP1 PUSH3 0x7C1 SWAP3 SWAP2 SWAP1 PUSH3 0x84F JUMP JUMPDEST POP PUSH1 0x20 DUP3 ADD MLOAD DUP2 PUSH1 0x1 ADD SSTORE PUSH1 0x40 DUP3 ADD MLOAD DUP2 PUSH1 0x2 ADD SSTORE SWAP1 POP POP PUSH1 0x6 DUP1 PUSH1 0x1 DUP2 SLOAD ADD DUP1 DUP3 SSTORE DUP1 SWAP2 POP POP PUSH1 0x1 SWAP1 SUB SWAP1 PUSH1 0x0 MSTORE PUSH1 0x20 PUSH1 0x0 KECCAK256 ADD PUSH1 0x0 PUSH1 0x40 MLOAD DUP1 PUSH1 0x40 ADD PUSH1 0x40 MSTORE DUP1 PUSH1 0x4 DUP2 MSTORE PUSH1 0x20 ADD PUSH32 0x5065746100000000000000000000000000000000000000000000000000000000 DUP2 MSTORE POP SWAP1 SWAP2 SWAP1 SWAP2 POP SWAP1 DUP1 MLOAD SWAP1 PUSH1 0x20 ADD SWAP1 PUSH3 0x848 SWAP3 SWAP2 SWAP1 PUSH3 0x84F JUMP JUMPDEST POP PUSH3 0xA6E JUMP JUMPDEST DUP3 DUP1 SLOAD PUSH3 0x85D SWAP1 PUSH3 0x9E0 JUMP JUMPDEST SWAP1 PUSH1 0x0 MSTORE PUSH1 0x20 PUSH1 0x0 KECCAK256 SWAP1 PUSH1 0x1F ADD PUSH1 0x20 SWAP1 DIV DUP2 ADD SWAP3 DUP3 PUSH3 0x881 JUMPI PUSH1 0x0 DUP6 SSTORE PUSH3 0x8CD JUMP JUMPDEST DUP3 PUSH1 0x1F LT PUSH3 0x89C JUMPI DUP1 MLOAD PUSH1 0xFF NOT AND DUP4 DUP1 ADD OR DUP6 SSTORE PUSH3 0x8CD JUMP JUMPDEST DUP3 DUP1 ADD PUSH1 0x1 ADD DUP6 SSTORE DUP3 ISZERO PUSH3 0x8CD JUMPI SWAP2 DUP3 ADD JUMPDEST DUP3 DUP2 GT ISZERO PUSH3 0x8CC JUMPI DUP3 MLOAD DUP3 SSTORE SWAP2 PUSH1 0x20 ADD SWAP2 SWAP1 PUSH1 0x1 ADD SWAP1 PUSH3 0x8AF JUMP JUMPDEST JUMPDEST POP SWAP1 POP PUSH3 0x8DC SWAP2 SWAP1 PUSH3 0x978 JUMP JUMPDEST POP SWAP1 JUMP JUMPDEST DUP3 DUP1 SLOAD PUSH3 0x8EE SWAP1 PUSH3 0x9E0 JUMP JUMPDEST SWAP1 PUSH1 0x0 MSTORE PUSH1 0x20 PUSH1 0x0 KECCAK256 SWAP1 PUSH1 0x1F ADD PUSH1 0x20 SWAP1 DIV DUP2 ADD SWAP3 DUP3 PUSH3 0x912 JUMPI PUSH1 0x0 DUP6 SSTORE PUSH3 0x965 JUMP JUMPDEST DUP3 PUSH1 0x1F LT PUSH3 0x925 JUMPI DUP1 SLOAD DUP6 SSTORE PUSH3 0x965 JUMP JUMPDEST DUP3 DUP1 ADD PUSH1 0x1 ADD DUP6 SSTORE DUP3 ISZERO PUSH3 0x965 JUMPI PUSH1 0x0 MSTORE PUSH1 0x20 PUSH1 0x0 KECCAK256 SWAP2 PUSH1 0x1F ADD PUSH1 0x20 SWAP1 DIV DUP3 ADD JUMPDEST DUP3 DUP2 GT ISZERO PUSH3 0x964 JUMPI DUP3 SLOAD DUP3 SSTORE SWAP2 PUSH1 0x1 ADD SWAP2 SWAP1 PUSH1 0x1 ADD SWAP1 PUSH3 0x947 JUMP JUMPDEST JUMPDEST POP SWAP1 POP PUSH3 0x974 SWAP2 SWAP1 PUSH3 0x978 JUMP JUMPDEST POP SWAP1 JUMP JUMPDEST JUMPDEST DUP1 DUP3 GT ISZERO PUSH3 0x993 JUMPI PUSH1 0x0 DUP2 PUSH1 0x0 SWAP1 SSTORE POP PUSH1 0x1 ADD PUSH3 0x979 JUMP JUMPDEST POP SWAP1 JUMP JUMPDEST PUSH1 0x0 PUSH3 0x9A6 PUSH1 0x4 DUP4 PUSH3 0x9D5 JUMP JUMPDEST SWAP2 POP PUSH3 0x9B3 DUP3 PUSH3 0xA45 JUMP JUMPDEST PUSH1 0x4 DUP3 ADD SWAP1 POP SWAP2 SWAP1 POP JUMP JUMPDEST PUSH1 0x0 PUSH3 0x9CB DUP3 PUSH3 0x997 JUMP JUMPDEST SWAP2 POP DUP2 SWAP1 POP SWAP2 SWAP1 POP JUMP JUMPDEST PUSH1 0x0 DUP2 SWAP1 POP SWAP3 SWAP2 POP POP JUMP JUMPDEST PUSH1 0x0 PUSH1 0x2 DUP3 DIV SWAP1 POP PUSH1 0x1 DUP3 AND DUP1 PUSH3 0x9F9 JUMPI PUSH1 0x7F DUP3 AND SWAP2 POP JUMPDEST PUSH1 0x20 DUP3 LT DUP2 EQ ISZERO PUSH3 0xA10 JUMPI PUSH3 0xA0F PUSH3 0xA16 JUMP JUMPDEST JUMPDEST POP SWAP2 SWAP1 POP JUMP JUMPDEST PUSH32 0x4E487B7100000000000000000000000000000000000000000000000000000000 PUSH1 0x0 MSTORE PUSH1 0x22 PUSH1 0x4 MSTORE PUSH1 0x24 PUSH1 0x0 REVERT JUMPDEST PUSH32 0x5065746100000000000000000000000000000000000000000000000000000000 PUSH1 0x0 DUP3 ADD MSTORE POP JUMP JUMPDEST PUSH2 0x24D9 DUP1 PUSH3 0xA7E PUSH1 0x0 CODECOPY PUSH1 0x0 RETURN INVALID PUSH1 0x80 PUSH1 0x40 MSTORE CALLVALUE DUP1 ISZERO PUSH2 0x10 JUMPI PUSH1 0x0 DUP1 REVERT JUMPDEST POP PUSH1 0x4 CALLDATASIZE LT PUSH2 0x116 JUMPI PUSH1 0x0 CALLDATALOAD PUSH1 0xE0 SHR DUP1 PUSH4 0xA9F9482B GT PUSH2 0xA2 JUMPI DUP1 PUSH4 0xCC21C188 GT PUSH2 0x71 JUMPI DUP1 PUSH4 0xCC21C188 EQ PUSH2 0x2F5 JUMPI DUP1 PUSH4 0xD68CF8C1 EQ PUSH2 0x311 JUMPI DUP1 PUSH4 0xDCE39151 EQ PUSH2 0x344 JUMPI DUP1 PUSH4 0xF69483C1 EQ PUSH2 0x376 JUMPI DUP1 PUSH4 0xFC675C6C EQ PUSH2 0x392 JUMPI PUSH2 0x116 JUMP JUMPDEST DUP1 PUSH4 0xA9F9482B EQ PUSH2 0x259 JUMPI DUP1 PUSH4 0xBBD43363 EQ PUSH2 0x28B JUMPI DUP1 PUSH4 0xC178B9AF EQ PUSH2 0x2A7 JUMPI DUP1 PUSH4 0xC4957FA0 EQ PUSH2 0x2C5 JUMPI PUSH2 0x116 JUMP JUMPDEST DUP1 PUSH4 0x2D4673E3 GT PUSH2 0xE9 JUMPI DUP1 PUSH4 0x2D4673E3 EQ PUSH2 0x19F JUMPI DUP1 PUSH4 0x34D2C0AD EQ PUSH2 0x1BB JUMPI DUP1 PUSH4 0x6C05DD1D EQ PUSH2 0x1D9 JUMPI DUP1 PUSH4 0x7DDB273D EQ PUSH2 0x1F5 JUMPI DUP1 PUSH4 0x961865F0 EQ PUSH2 0x227 JUMPI PUSH2 0x116 JUMP JUMPDEST DUP1 PUSH4 0xC72B1EC EQ PUSH2 0x11B JUMPI DUP1 PUSH4 0x146DC6ED EQ PUSH2 0x137 JUMPI DUP1 PUSH4 0x1BBE970A EQ PUSH2 0x153 JUMPI DUP1 PUSH4 0x2CCDEF7C EQ PUSH2 0x183 JUMPI JUMPDEST PUSH1 0x0 DUP1 REVERT JUMPDEST PUSH2 0x135 PUSH1 0x4 DUP1 CALLDATASIZE SUB DUP2 ADD SWAP1 PUSH2 0x130 SWAP2 SWAP1 PUSH2 0x1C61 JUMP JUMPDEST PUSH2 0x3C3 JUMP JUMPDEST STOP JUMPDEST PUSH2 0x151 PUSH1 0x4 DUP1 CALLDATASIZE SUB DUP2 ADD SWAP1 PUSH2 0x14C SWAP2 SWAP1 PUSH2 0x1AD5 JUMP JUMPDEST PUSH2 0x690 JUMP JUMPDEST STOP JUMPDEST PUSH2 0x16D PUSH1 0x4 DUP1 CALLDATASIZE SUB DUP2 ADD SWAP1 PUSH2 0x168 SWAP2 SWAP1 PUSH2 0x1AD5 JUMP JUMPDEST PUSH2 0x81E JUMP JUMPDEST PUSH1 0x40 MLOAD PUSH2 0x17A SWAP2 SWAP1 PUSH2 0x1EED JUMP JUMPDEST PUSH1 0x40 MLOAD DUP1 SWAP2 SUB SWAP1 RETURN JUMPDEST PUSH2 0x19D PUSH1 0x4 DUP1 CALLDATASIZE SUB DUP2 ADD SWAP1 PUSH2 0x198 SWAP2 SWAP1 PUSH2 0x1C61 JUMP JUMPDEST PUSH2 0x867 JUMP JUMPDEST STOP JUMPDEST PUSH2 0x1B9 PUSH1 0x4 DUP1 CALLDATASIZE SUB DUP2 ADD SWAP1 PUSH2 0x1B4 SWAP2 SWAP1 PUSH2 0x1AD5 JUMP JUMPDEST PUSH2 0xA5D JUMP JUMPDEST STOP JUMPDEST PUSH2 0x1C3 PUSH2 0xB45 JUMP JUMPDEST PUSH1 0x40 MLOAD PUSH2 0x1D0 SWAP2 SWAP1 PUSH2 0x1F92 JUMP JUMPDEST PUSH1 0x40 MLOAD DUP1 SWAP2 SUB SWAP1 RETURN JUMPDEST PUSH2 0x1F3 PUSH1 0x4 DUP1 CALLDATASIZE SUB DUP2 ADD SWAP1 PUSH2 0x1EE SWAP2 SWAP1 PUSH2 0x1BA9 JUMP JUMPDEST PUSH2 0xC1E JUMP JUMPDEST STOP JUMPDEST PUSH2 0x20F PUSH1 0x4 DUP1 CALLDATASIZE SUB DUP2 ADD SWAP1 PUSH2 0x20A SWAP2 SWAP1 PUSH2 0x1C34 JUMP JUMPDEST PUSH2 0xD49 JUMP JUMPDEST PUSH1 0x40 MLOAD PUSH2 0x21E SWAP4 SWAP3 SWAP2 SWAP1 PUSH2 0x1F08 JUMP JUMPDEST PUSH1 0x40 MLOAD DUP1 SWAP2 SUB SWAP1 RETURN JUMPDEST PUSH2 0x241 PUSH1 0x4 DUP1 CALLDATASIZE SUB DUP2 ADD SWAP1 PUSH2 0x23C SWAP2 SWAP1 PUSH2 0x1AA8 JUMP JUMPDEST PUSH2 0xE38 JUMP JUMPDEST PUSH1 0x40 MLOAD PUSH2 0x250 SWAP4 SWAP3 SWAP2 SWAP1 PUSH2 0x1FEB JUMP JUMPDEST PUSH1 0x40 MLOAD DUP1 SWAP2 SUB SWAP1 RETURN JUMPDEST PUSH2 0x273 PUSH1 0x4 DUP1 CALLDATASIZE SUB DUP2 ADD SWAP1 PUSH2 0x26E SWAP2 SWAP1 PUSH2 0x1C34 JUMP JUMPDEST PUSH2 0xEEA JUMP JUMPDEST PUSH1 0x40 MLOAD PUSH2 0x282 SWAP4 SWAP3 SWAP2 SWAP1 PUSH2 0x1F08 JUMP JUMPDEST PUSH1 0x40 MLOAD DUP1 SWAP2 SUB SWAP1 RETURN JUMPDEST PUSH2 0x2A5 PUSH1 0x4 DUP1 CALLDATASIZE SUB DUP2 ADD SWAP1 PUSH2 0x2A0 SWAP2 SWAP1 PUSH2 0x1AD5 JUMP JUMPDEST PUSH2 0xFD9 JUMP JUMPDEST STOP JUMPDEST PUSH2 0x2AF PUSH2 0x10C1 JUMP JUMPDEST PUSH1 0x40 MLOAD PUSH2 0x2BC SWAP2 SWAP1 PUSH2 0x1F92 JUMP JUMPDEST PUSH1 0x40 MLOAD DUP1 SWAP2 SUB SWAP1 RETURN JUMPDEST PUSH2 0x2DF PUSH1 0x4 DUP1 CALLDATASIZE SUB DUP2 ADD SWAP1 PUSH2 0x2DA SWAP2 SWAP1 PUSH2 0x1AD5 JUMP JUMPDEST PUSH2 0x119A JUMP JUMPDEST PUSH1 0x40 MLOAD PUSH2 0x2EC SWAP2 SWAP1 PUSH2 0x1EED JUMP JUMPDEST PUSH1 0x40 MLOAD DUP1 SWAP2 SUB SWAP1 RETURN JUMPDEST PUSH2 0x30F PUSH1 0x4 DUP1 CALLDATASIZE SUB DUP2 ADD SWAP1 PUSH2 0x30A SWAP2 SWAP1 PUSH2 0x1B1E JUMP JUMPDEST PUSH2 0x11E3 JUMP JUMPDEST STOP JUMPDEST PUSH2 0x32B PUSH1 0x4 DUP1 CALLDATASIZE SUB DUP2 ADD SWAP1 PUSH2 0x326 SWAP2 SWAP1 PUSH2 0x1AD5 JUMP JUMPDEST PUSH2 0x1328 JUMP JUMPDEST PUSH1 0x40 MLOAD PUSH2 0x33B SWAP5 SWAP4 SWAP3 SWAP2 SWAP1 PUSH2 0x1F46 JUMP JUMPDEST PUSH1 0x40 MLOAD DUP1 SWAP2 SUB SWAP1 RETURN JUMPDEST PUSH2 0x35E PUSH1 0x4 DUP1 CALLDATASIZE SUB DUP2 ADD SWAP1 PUSH2 0x359 SWAP2 SWAP1 PUSH2 0x1C34 JUMP JUMPDEST PUSH2 0x1416 JUMP JUMPDEST PUSH1 0x40 MLOAD PUSH2 0x36D SWAP4 SWAP3 SWAP2 SWAP1 PUSH2 0x1F08 JUMP JUMPDEST PUSH1 0x40 MLOAD DUP1 SWAP2 SUB SWAP1 RETURN JUMPDEST PUSH2 0x390 PUSH1 0x4 DUP1 CALLDATASIZE SUB DUP2 ADD SWAP1 PUSH2 0x38B SWAP2 SWAP1 PUSH2 0x1C61 JUMP JUMPDEST PUSH2 0x1505 JUMP JUMPDEST STOP JUMPDEST PUSH2 0x3AC PUSH1 0x4 DUP1 CALLDATASIZE SUB DUP2 ADD SWAP1 PUSH2 0x3A7 SWAP2 SWAP1 PUSH2 0x1AD5 JUMP JUMPDEST PUSH2 0x16FB JUMP JUMPDEST PUSH1 0x40 MLOAD PUSH2 0x3BA SWAP3 SWAP2 SWAP1 PUSH2 0x1FB4 JUMP JUMPDEST PUSH1 0x40 MLOAD DUP1 SWAP2 SUB SWAP1 RETURN JUMPDEST PUSH1 0x1 ISZERO ISZERO DUP2 ISZERO ISZERO EQ ISZERO PUSH2 0x64D JUMPI PUSH1 0x0 PUSH1 0x9 DUP4 DUP2 SLOAD DUP2 LT PUSH2 0x3E6 JUMPI PUSH2 0x3E5 PUSH2 0x2363 JUMP JUMPDEST JUMPDEST SWAP1 PUSH1 0x0 MSTORE PUSH1 0x20 PUSH1 0x0 KECCAK256 SWAP1 PUSH1 0x3 MUL ADD PUSH1 0x2 ADD PUSH1 0x0 PUSH2 0x100 EXP DUP2 SLOAD DUP2 PUSH1 0xFF MUL NOT AND SWAP1 DUP4 ISZERO ISZERO MUL OR SWAP1 SSTORE POP PUSH1 0x7 PUSH1 0x9 DUP4 DUP2 SLOAD DUP2 LT PUSH2 0x424 JUMPI PUSH2 0x423 PUSH2 0x2363 JUMP JUMPDEST JUMPDEST SWAP1 PUSH1 0x0 MSTORE PUSH1 0x20 PUSH1 0x0 KECCAK256 SWAP1 PUSH1 0x3 MUL ADD PUSH1 0x1 ADD PUSH1 0x40 MLOAD PUSH2 0x442 SWAP2 SWAP1 PUSH2 0x1ED6 JUMP JUMPDEST SWAP1 DUP2 MSTORE PUSH1 0x20 ADD PUSH1 0x40 MLOAD DUP1 SWAP2 SUB SWAP1 KECCAK256 PUSH1 0x2 ADD SLOAD PUSH1 0x4 PUSH1 0x0 PUSH1 0x9 DUP6 DUP2 SLOAD DUP2 LT PUSH2 0x46C JUMPI PUSH2 0x46B PUSH2 0x2363 JUMP JUMPDEST JUMPDEST SWAP1 PUSH1 0x0 MSTORE PUSH1 0x20 PUSH1 0x0 KECCAK256 SWAP1 PUSH1 0x3 MUL ADD PUSH1 0x0 ADD PUSH1 0x0 SWAP1 SLOAD SWAP1 PUSH2 0x100 EXP SWAP1 DIV PUSH20 0xFFFFFFFFFFFFFFFFFFFFFFFFFFFFFFFFFFFFFFFF AND PUSH20 0xFFFFFFFFFFFFFFFFFFFFFFFFFFFFFFFFFFFFFFFF AND PUSH20 0xFFFFFFFFFFFFFFFFFFFFFFFFFFFFFFFFFFFFFFFF AND DUP2 MSTORE PUSH1 0x20 ADD SWAP1 DUP2 MSTORE PUSH1 0x20 ADD PUSH1 0x0 KECCAK256 PUSH1 0x2 ADD SLOAD PUSH2 0x4E6 SWAP2 SWAP1 PUSH2 0x219B JUMP JUMPDEST PUSH1 0x4 PUSH1 0x0 PUSH1 0x9 DUP6 DUP2 SLOAD DUP2 LT PUSH2 0x4FE JUMPI PUSH2 0x4FD PUSH2 0x2363 JUMP JUMPDEST JUMPDEST SWAP1 PUSH1 0x0 MSTORE PUSH1 0x20 PUSH1 0x0 KECCAK256 SWAP1 PUSH1 0x3 MUL ADD PUSH1 0x0 ADD PUSH1 0x0 SWAP1 SLOAD SWAP1 PUSH2 0x100 EXP SWAP1 DIV PUSH20 0xFFFFFFFFFFFFFFFFFFFFFFFFFFFFFFFFFFFFFFFF AND PUSH20 0xFFFFFFFFFFFFFFFFFFFFFFFFFFFFFFFFFFFFFFFF AND PUSH20 0xFFFFFFFFFFFFFFFFFFFFFFFFFFFFFFFFFFFFFFFF AND DUP2 MSTORE PUSH1 0x20 ADD SWAP1 DUP2 MSTORE PUSH1 0x20 ADD PUSH1 0x0 KECCAK256 PUSH1 0x2 ADD DUP2 SWAP1 SSTORE POP PUSH1 0x7 PUSH1 0x9 DUP4 DUP2 SLOAD DUP2 LT PUSH2 0x587 JUMPI PUSH2 0x586 PUSH2 0x2363 JUMP JUMPDEST JUMPDEST SWAP1 PUSH1 0x0 MSTORE PUSH1 0x20 PUSH1 0x0 KECCAK256 SWAP1 PUSH1 0x3 MUL ADD PUSH1 0x1 ADD PUSH1 0x40 MLOAD PUSH2 0x5A5 SWAP2 SWAP1 PUSH2 0x1ED6 JUMP JUMPDEST SWAP1 DUP2 MSTORE PUSH1 0x20 ADD PUSH1 0x40 MLOAD DUP1 SWAP2 SUB SWAP1 KECCAK256 PUSH1 0x2 ADD SLOAD PUSH1 0x0 DUP1 CALLER PUSH20 0xFFFFFFFFFFFFFFFFFFFFFFFFFFFFFFFFFFFFFFFF AND PUSH20 0xFFFFFFFFFFFFFFFFFFFFFFFFFFFFFFFFFFFFFFFF AND DUP2 MSTORE PUSH1 0x20 ADD SWAP1 DUP2 MSTORE PUSH1 0x20 ADD PUSH1 0x0 KECCAK256 PUSH1 0x3 ADD SLOAD PUSH2 0x603 SWAP2 SWAP1 PUSH2 0x2145 JUMP JUMPDEST PUSH1 0x0 DUP1 CALLER PUSH20 0xFFFFFFFFFFFFFFFFFFFFFFFFFFFFFFFFFFFFFFFF AND PUSH20 0xFFFFFFFFFFFFFFFFFFFFFFFFFFFFFFFFFFFFFFFF AND DUP2 MSTORE PUSH1 0x20 ADD SWAP1 DUP2 MSTORE PUSH1 0x20 ADD PUSH1 0x0 KECCAK256 PUSH1 0x3 ADD DUP2 SWAP1 SSTORE POP PUSH2 0x68C JUMP JUMPDEST PUSH1 0x0 PUSH1 0x9 DUP4 DUP2 SLOAD DUP2 LT PUSH2 0x663 JUMPI PUSH2 0x662 PUSH2 0x2363 JUMP JUMPDEST JUMPDEST SWAP1 PUSH1 0x0 MSTORE PUSH1 0x20 PUSH1 0x0 KECCAK256 SWAP1 PUSH1 0x3 MUL ADD PUSH1 0x2 ADD PUSH1 0x0 PUSH2 0x100 EXP DUP2 SLOAD DUP2 PUSH1 0xFF MUL NOT AND SWAP1 DUP4 ISZERO ISZERO MUL OR SWAP1 SSTORE POP JUMPDEST POP POP JUMP JUMPDEST PUSH1 0x7 DUP2 PUSH1 0x40 MLOAD PUSH2 0x6A0 SWAP2 SWAP1 PUSH2 0x1EBF JUMP JUMPDEST SWAP1 DUP2 MSTORE PUSH1 0x20 ADD PUSH1 0x40 MLOAD DUP1 SWAP2 SUB SWAP1 KECCAK256 PUSH1 0x2 ADD SLOAD PUSH1 0x4 PUSH1 0x0 CALLER PUSH20 0xFFFFFFFFFFFFFFFFFFFFFFFFFFFFFFFFFFFFFFFF AND PUSH20 0xFFFFFFFFFFFFFFFFFFFFFFFFFFFFFFFFFFFFFFFF AND DUP2 MSTORE PUSH1 0x20 ADD SWAP1 DUP2 MSTORE PUSH1 0x20 ADD PUSH1 0x0 KECCAK256 PUSH1 0x2 ADD SLOAD LT ISZERO PUSH2 0x736 JUMPI PUSH1 0x40 MLOAD PUSH32 0x8C379A000000000000000000000000000000000000000000000000000000000 DUP2 MSTORE PUSH1 0x4 ADD PUSH2 0x72D SWAP1 PUSH2 0x2029 JUMP JUMPDEST PUSH1 0x40 MLOAD DUP1 SWAP2 SUB SWAP1 REVERT JUMPDEST PUSH1 0x9 PUSH1 0x40 MLOAD DUP1 PUSH1 0x60 ADD PUSH1 0x40 MSTORE DUP1 CALLER PUSH20 0xFFFFFFFFFFFFFFFFFFFFFFFFFFFFFFFFFFFFFFFF AND DUP2 MSTORE PUSH1 0x20 ADD DUP4 DUP2 MSTORE PUSH1 0x20 ADD PUSH1 0x1 ISZERO ISZERO DUP2 MSTORE POP SWAP1 DUP1 PUSH1 0x1 DUP2 SLOAD ADD DUP1 DUP3 SSTORE DUP1 SWAP2 POP POP PUSH1 0x1 SWAP1 SUB SWAP1 PUSH1 0x0 MSTORE PUSH1 0x20 PUSH1 0x0 KECCAK256 SWAP1 PUSH1 0x3 MUL ADD PUSH1 0x0 SWAP1 SWAP2 SWAP1 SWAP2 SWAP1 SWAP2 POP PUSH1 0x0 DUP3 ADD MLOAD DUP2 PUSH1 0x0 ADD PUSH1 0x0 PUSH2 0x100 EXP DUP2 SLOAD DUP2 PUSH20 0xFFFFFFFFFFFFFFFFFFFFFFFFFFFFFFFFFFFFFFFF MUL NOT AND SWAP1 DUP4 PUSH20 0xFFFFFFFFFFFFFFFFFFFFFFFFFFFFFFFFFFFFFFFF AND MUL OR SWAP1 SSTORE POP PUSH1 0x20 DUP3 ADD MLOAD DUP2 PUSH1 0x1 ADD SWAP1 DUP1 MLOAD SWAP1 PUSH1 0x20 ADD SWAP1 PUSH2 0x7F8 SWAP3 SWAP2 SWAP1 PUSH2 0x1845 JUMP JUMPDEST POP PUSH1 0x40 DUP3 ADD MLOAD DUP2 PUSH1 0x2 ADD PUSH1 0x0 PUSH2 0x100 EXP DUP2 SLOAD DUP2 PUSH1 0xFF MUL NOT AND SWAP1 DUP4 ISZERO ISZERO MUL OR SWAP1 SSTORE POP POP POP POP JUMP JUMPDEST PUSH1 0x5 DUP2 DUP1 MLOAD PUSH1 0x20 DUP2 ADD DUP3 ADD DUP1 MLOAD DUP5 DUP3 MSTORE PUSH1 0x20 DUP4 ADD PUSH1 0x20 DUP6 ADD KECCAK256 DUP2 DUP4 MSTORE DUP1 SWAP6 POP POP POP POP POP POP PUSH1 0x0 SWAP2 POP SLOAD SWAP1 PUSH2 0x100 EXP SWAP1 DIV PUSH20 0xFFFFFFFFFFFFFFFFFFFFFFFFFFFFFFFFFFFFFFFF AND DUP2 JUMP JUMPDEST PUSH1 0x1 ISZERO ISZERO DUP2 ISZERO ISZERO EQ ISZERO PUSH2 0xA1A JUMPI PUSH1 0x0 PUSH1 0xA DUP4 DUP2 SLOAD DUP2 LT PUSH2 0x88A JUMPI PUSH2 0x889 PUSH2 0x2363 JUMP JUMPDEST JUMPDEST SWAP1 PUSH1 0x0 MSTORE PUSH1 0x20 PUSH1 0x0 KECCAK256 SWAP1 PUSH1 0x3 MUL ADD PUSH1 0x2 ADD PUSH1 0x0 PUSH2 0x100 EXP DUP2 SLOAD DUP2 PUSH1 0xFF MUL NOT AND SWAP1 DUP4 ISZERO ISZERO MUL OR SWAP1 SSTORE POP PUSH1 0x7 PUSH1 0xA DUP4 DUP2 SLOAD DUP2 LT PUSH2 0x8C8 JUMPI PUSH2 0x8C7 PUSH2 0x2363 JUMP JUMPDEST JUMPDEST SWAP1 PUSH1 0x0 MSTORE PUSH1 0x20 PUSH1 0x0 KECCAK256 SWAP1 PUSH1 0x3 MUL ADD PUSH1 0x1 ADD PUSH1 0x40 MLOAD PUSH2 0x8E6 SWAP2 SWAP1 PUSH2 0x1ED6 JUMP JUMPDEST SWAP1 DUP2 MSTORE PUSH1 0x20 ADD PUSH1 0x40 MLOAD DUP1 SWAP2 SUB SWAP1 KECCAK256 PUSH1 0x2 ADD SLOAD PUSH1 0x4 PUSH1 0x0 PUSH1 0xA DUP6 DUP2 SLOAD DUP2 LT PUSH2 0x910 JUMPI PUSH2 0x90F PUSH2 0x2363 JUMP JUMPDEST JUMPDEST SWAP1 PUSH1 0x0 MSTORE PUSH1 0x20 PUSH1 0x0 KECCAK256 SWAP1 PUSH1 0x3 MUL ADD PUSH1 0x0 ADD PUSH1 0x0 SWAP1 SLOAD SWAP1 PUSH2 0x100 EXP SWAP1 DIV PUSH20 0xFFFFFFFFFFFFFFFFFFFFFFFFFFFFFFFFFFFFFFFF AND PUSH20 0xFFFFFFFFFFFFFFFFFFFFFFFFFFFFFFFFFFFFFFFF AND PUSH20 0xFFFFFFFFFFFFFFFFFFFFFFFFFFFFFFFFFFFFFFFF AND DUP2 MSTORE PUSH1 0x20 ADD SWAP1 DUP2 MSTORE PUSH1 0x20 ADD PUSH1 0x0 KECCAK256 PUSH1 0x2 ADD SLOAD PUSH2 0x98A SWAP2 SWAP1 PUSH2 0x2145 JUMP JUMPDEST PUSH1 0x4 PUSH1 0x0 PUSH1 0xA DUP6 DUP2 SLOAD DUP2 LT PUSH2 0x9A2 JUMPI PUSH2 0x9A1 PUSH2 0x2363 JUMP JUMPDEST JUMPDEST SWAP1 PUSH1 0x0 MSTORE PUSH1 0x20 PUSH1 0x0 KECCAK256 SWAP1 PUSH1 0x3 MUL ADD PUSH1 0x0 ADD PUSH1 0x0 SWAP1 SLOAD SWAP1 PUSH2 0x100 EXP SWAP1 DIV PUSH20 0xFFFFFFFFFFFFFFFFFFFFFFFFFFFFFFFFFFFFFFFF AND PUSH20 0xFFFFFFFFFFFFFFFFFFFFFFFFFFFFFFFFFFFFFFFF AND PUSH20 0xFFFFFFFFFFFFFFFFFFFFFFFFFFFFFFFFFFFFFFFF AND DUP2 MSTORE PUSH1 0x20 ADD SWAP1 DUP2 MSTORE PUSH1 0x20 ADD PUSH1 0x0 KECCAK256 PUSH1 0x2 ADD DUP2 SWAP1 SSTORE POP PUSH2 0xA59 JUMP JUMPDEST PUSH1 0x0 PUSH1 0xA DUP4 DUP2 SLOAD DUP2 LT PUSH2 0xA30 JUMPI PUSH2 0xA2F PUSH2 0x2363 JUMP JUMPDEST JUMPDEST SWAP1 PUSH1 0x0 MSTORE PUSH1 0x20 PUSH1 0x0 KECCAK256 SWAP1 PUSH1 0x3 MUL ADD PUSH1 0x2 ADD PUSH1 0x0 PUSH2 0x100 EXP DUP2 SLOAD DUP2 PUSH1 0xFF MUL NOT AND SWAP1 DUP4 ISZERO ISZERO MUL OR SWAP1 SSTORE POP JUMPDEST POP POP JUMP JUMPDEST PUSH1 0xB PUSH1 0x40 MLOAD DUP1 PUSH1 0x60 ADD PUSH1 0x40 MSTORE DUP1 CALLER PUSH20 0xFFFFFFFFFFFFFFFFFFFFFFFFFFFFFFFFFFFFFFFF AND DUP2 MSTORE PUSH1 0x20 ADD DUP4 DUP2 MSTORE PUSH1 0x20 ADD PUSH1 0x1 ISZERO ISZERO DUP2 MSTORE POP SWAP1 DUP1 PUSH1 0x1 DUP2 SLOAD ADD DUP1 DUP3 SSTORE DUP1 SWAP2 POP POP PUSH1 0x1 SWAP1 SUB SWAP1 PUSH1 0x0 MSTORE PUSH1 0x20 PUSH1 0x0 KECCAK256 SWAP1 PUSH1 0x3 MUL ADD PUSH1 0x0 SWAP1 SWAP2 SWAP1 SWAP2 SWAP1 SWAP2 POP PUSH1 0x0 DUP3 ADD MLOAD DUP2 PUSH1 0x0 ADD PUSH1 0x0 PUSH2 0x100 EXP DUP2 SLOAD DUP2 PUSH20 0xFFFFFFFFFFFFFFFFFFFFFFFFFFFFFFFFFFFFFFFF MUL NOT AND SWAP1 DUP4 PUSH20 0xFFFFFFFFFFFFFFFFFFFFFFFFFFFFFFFFFFFFFFFF AND MUL OR SWAP1 SSTORE POP PUSH1 0x20 DUP3 ADD MLOAD DUP2 PUSH1 0x1 ADD SWAP1 DUP1 MLOAD SWAP1 PUSH1 0x20 ADD SWAP1 PUSH2 0xB1F SWAP3 SWAP2 SWAP1 PUSH2 0x1845 JUMP JUMPDEST POP PUSH1 0x40 DUP3 ADD MLOAD DUP2 PUSH1 0x2 ADD PUSH1 0x0 PUSH2 0x100 EXP DUP2 SLOAD DUP2 PUSH1 0xFF MUL NOT AND SWAP1 DUP4 ISZERO ISZERO MUL OR SWAP1 SSTORE POP POP POP POP JUMP JUMPDEST PUSH1 0x60 PUSH1 0x8 DUP1 SLOAD DUP1 PUSH1 0x20 MUL PUSH1 0x20 ADD PUSH1 0x40 MLOAD SWAP1 DUP2 ADD PUSH1 0x40 MSTORE DUP1 SWAP3 SWAP2 SWAP1 DUP2 DUP2 MSTORE PUSH1 0x20 ADD PUSH1 0x0 SWAP1 JUMPDEST DUP3 DUP3 LT ISZERO PUSH2 0xC15 JUMPI DUP4 DUP3 SWAP1 PUSH1 0x0 MSTORE PUSH1 0x20 PUSH1 0x0 KECCAK256 ADD DUP1 SLOAD PUSH2 0xB88 SWAP1 PUSH2 0x2259 JUMP JUMPDEST DUP1 PUSH1 0x1F ADD PUSH1 0x20 DUP1 SWAP2 DIV MUL PUSH1 0x20 ADD PUSH1 0x40 MLOAD SWAP1 DUP2 ADD PUSH1 0x40 MSTORE DUP1 SWAP3 SWAP2 SWAP1 DUP2 DUP2 MSTORE PUSH1 0x20 ADD DUP3 DUP1 SLOAD PUSH2 0xBB4 SWAP1 PUSH2 0x2259 JUMP JUMPDEST DUP1 ISZERO PUSH2 0xC01 JUMPI DUP1 PUSH1 0x1F LT PUSH2 0xBD6 JUMPI PUSH2 0x100 DUP1 DUP4 SLOAD DIV MUL DUP4 MSTORE SWAP2 PUSH1 0x20 ADD SWAP2 PUSH2 0xC01 JUMP JUMPDEST DUP3 ADD SWAP2 SWAP1 PUSH1 0x0 MSTORE PUSH1 0x20 PUSH1 0x0 KECCAK256 SWAP1 JUMPDEST DUP2 SLOAD DUP2 MSTORE SWAP1 PUSH1 0x1 ADD SWAP1 PUSH1 0x20 ADD DUP1 DUP4 GT PUSH2 0xBE4 JUMPI DUP3 SWAP1 SUB PUSH1 0x1F AND DUP3 ADD SWAP2 JUMPDEST POP POP POP POP POP DUP2 MSTORE PUSH1 0x20 ADD SWAP1 PUSH1 0x1 ADD SWAP1 PUSH2 0xB69 JUMP JUMPDEST POP POP POP POP SWAP1 POP SWAP1 JUMP JUMPDEST PUSH1 0x40 MLOAD DUP1 PUSH1 0x80 ADD PUSH1 0x40 MSTORE DUP1 CALLER PUSH20 0xFFFFFFFFFFFFFFFFFFFFFFFFFFFFFFFFFFFFFFFF AND DUP2 MSTORE PUSH1 0x20 ADD DUP3 DUP2 MSTORE PUSH1 0x20 ADD DUP4 DUP2 MSTORE PUSH1 0x20 ADD PUSH1 0xC SLOAD DUP2 MSTORE POP PUSH1 0x7 DUP5 PUSH1 0x40 MLOAD PUSH2 0xC67 SWAP2 SWAP1 PUSH2 0x1EBF JUMP JUMPDEST SWAP1 DUP2 MSTORE PUSH1 0x20 ADD PUSH1 0x40 MLOAD DUP1 SWAP2 SUB SWAP1 KECCAK256 PUSH1 0x0 DUP3 ADD MLOAD DUP2 PUSH1 0x0 ADD PUSH1 0x0 PUSH2 0x100 EXP DUP2 SLOAD DUP2 PUSH20 0xFFFFFFFFFFFFFFFFFFFFFFFFFFFFFFFFFFFFFFFF MUL NOT AND SWAP1 DUP4 PUSH20 0xFFFFFFFFFFFFFFFFFFFFFFFFFFFFFFFFFFFFFFFF AND MUL OR SWAP1 SSTORE POP PUSH1 0x20 DUP3 ADD MLOAD DUP2 PUSH1 0x1 ADD SWAP1 DUP1 MLOAD SWAP1 PUSH1 0x20 ADD SWAP1 PUSH2 0xCD8 SWAP3 SWAP2 SWAP1 PUSH2 0x1845 JUMP JUMPDEST POP PUSH1 0x40 DUP3 ADD MLOAD DUP2 PUSH1 0x2 ADD SSTORE PUSH1 0x60 DUP3 ADD MLOAD DUP2 PUSH1 0x3 ADD SSTORE SWAP1 POP POP PUSH1 0x8 DUP4 SWAP1 DUP1 PUSH1 0x1 DUP2 SLOAD ADD DUP1 DUP3 SSTORE DUP1 SWAP2 POP POP PUSH1 0x1 SWAP1 SUB SWAP1 PUSH1 0x0 MSTORE PUSH1 0x20 PUSH1 0x0 KECCAK256 ADD PUSH1 0x0 SWAP1 SWAP2 SWAP1 SWAP2 SWAP1 SWAP2 POP SWAP1 DUP1 MLOAD SWAP1 PUSH1 0x20 ADD SWAP1 PUSH2 0xD2B SWAP3 SWAP2 SWAP1 PUSH2 0x1845 JUMP JUMPDEST POP PUSH1 0xC PUSH1 0x0 DUP2 SLOAD DUP1 SWAP3 SWAP2 SWAP1 PUSH2 0xD3F SWAP1 PUSH2 0x22BC JUMP JUMPDEST SWAP2 SWAP1 POP SSTORE POP POP POP POP JUMP JUMPDEST PUSH1 0xB DUP2 DUP2 SLOAD DUP2 LT PUSH2 0xD59 JUMPI PUSH1 0x0 DUP1 REVERT JUMPDEST SWAP1 PUSH1 0x0 MSTORE PUSH1 0x20 PUSH1 0x0 KECCAK256 SWAP1 PUSH1 0x3 MUL ADD PUSH1 0x0 SWAP2 POP SWAP1 POP DUP1 PUSH1 0x0 ADD PUSH1 0x0 SWAP1 SLOAD SWAP1 PUSH2 0x100 EXP SWAP1 DIV PUSH20 0xFFFFFFFFFFFFFFFFFFFFFFFFFFFFFFFFFFFFFFFF AND SWAP1 DUP1 PUSH1 0x1 ADD DUP1 SLOAD PUSH2 0xDA2 SWAP1 PUSH2 0x2259 JUMP JUMPDEST DUP1 PUSH1 0x1F ADD PUSH1 0x20 DUP1 SWAP2 DIV MUL PUSH1 0x20 ADD PUSH1 0x40 MLOAD SWAP1 DUP2 ADD PUSH1 0x40 MSTORE DUP1 SWAP3 SWAP2 SWAP1 DUP2 DUP2 MSTORE PUSH1 0x20 ADD DUP3 DUP1 SLOAD PUSH2 0xDCE SWAP1 PUSH2 0x2259 JUMP JUMPDEST DUP1 ISZERO PUSH2 0xE1B JUMPI DUP1 PUSH1 0x1F LT PUSH2 0xDF0 JUMPI PUSH2 0x100 DUP1 DUP4 SLOAD DIV MUL DUP4 MSTORE SWAP2 PUSH1 0x20 ADD SWAP2 PUSH2 0xE1B JUMP JUMPDEST DUP3 ADD SWAP2 SWAP1 PUSH1 0x0 MSTORE PUSH1 0x20 PUSH1 0x0 KECCAK256 SWAP1 JUMPDEST DUP2 SLOAD DUP2 MSTORE SWAP1 PUSH1 0x1 ADD SWAP1 PUSH1 0x20 ADD DUP1 DUP4 GT PUSH2 0xDFE JUMPI DUP3 SWAP1 SUB PUSH1 0x1F AND DUP3 ADD SWAP2 JUMPDEST POP POP POP POP POP SWAP1 DUP1 PUSH1 0x2 ADD PUSH1 0x0 SWAP1 SLOAD SWAP1 PUSH2 0x100 EXP SWAP1 DIV PUSH1 0xFF AND SWAP1 POP DUP4 JUMP JUMPDEST PUSH1 0x4 PUSH1 0x20 MSTORE DUP1 PUSH1 0x0 MSTORE PUSH1 0x40 PUSH1 0x0 KECCAK256 PUSH1 0x0 SWAP2 POP SWAP1 POP DUP1 PUSH1 0x0 ADD DUP1 SLOAD PUSH2 0xE5B SWAP1 PUSH2 0x2259 JUMP JUMPDEST DUP1 PUSH1 0x1F ADD PUSH1 0x20 DUP1 SWAP2 DIV MUL PUSH1 0x20 ADD PUSH1 0x40 MLOAD SWAP1 DUP2 ADD PUSH1 0x40 MSTORE DUP1 SWAP3 SWAP2 SWAP1 DUP2 DUP2 MSTORE PUSH1 0x20 ADD DUP3 DUP1 SLOAD PUSH2 0xE87 SWAP1 PUSH2 0x2259 JUMP JUMPDEST DUP1 ISZERO PUSH2 0xED4 JUMPI DUP1 PUSH1 0x1F LT PUSH2 0xEA9 JUMPI PUSH2 0x100 DUP1 DUP4 SLOAD DIV MUL DUP4 MSTORE SWAP2 PUSH1 0x20 ADD SWAP2 PUSH2 0xED4 JUMP JUMPDEST DUP3 ADD SWAP2 SWAP1 PUSH1 0x0 MSTORE PUSH1 0x20 PUSH1 0x0 KECCAK256 SWAP1 JUMPDEST DUP2 SLOAD DUP2 MSTORE SWAP1 PUSH1 0x1 ADD SWAP1 PUSH1 0x20 ADD DUP1 DUP4 GT PUSH2 0xEB7 JUMPI DUP3 SWAP1 SUB PUSH1 0x1F AND DUP3 ADD SWAP2 JUMPDEST POP POP POP POP POP SWAP1 DUP1 PUSH1 0x1 ADD SLOAD SWAP1 DUP1 PUSH1 0x2 ADD SLOAD SWAP1 POP DUP4 JUMP JUMPDEST PUSH1 0xA DUP2 DUP2 SLOAD DUP2 LT PUSH2 0xEFA JUMPI PUSH1 0x0 DUP1 REVERT JUMPDEST SWAP1 PUSH1 0x0 MSTORE PUSH1 0x20 PUSH1 0x0 KECCAK256 SWAP1 PUSH1 0x3 MUL ADD PUSH1 0x0 SWAP2 POP SWAP1 POP DUP1 PUSH1 0x0 ADD PUSH1 0x0 SWAP1 SLOAD SWAP1 PUSH2 0x100 EXP SWAP1 DIV PUSH20 0xFFFFFFFFFFFFFFFFFFFFFFFFFFFFFFFFFFFFFFFF AND SWAP1 DUP1 PUSH1 0x1 ADD DUP1 SLOAD PUSH2 0xF43 SWAP1 PUSH2 0x2259 JUMP JUMPDEST DUP1 PUSH1 0x1F ADD PUSH1 0x20 DUP1 SWAP2 DIV MUL PUSH1 0x20 ADD PUSH1 0x40 MLOAD SWAP1 DUP2 ADD PUSH1 0x40 MSTORE DUP1 SWAP3 SWAP2 SWAP1 DUP2 DUP2 MSTORE PUSH1 0x20 ADD DUP3 DUP1 SLOAD PUSH2 0xF6F SWAP1 PUSH2 0x2259 JUMP JUMPDEST DUP1 ISZERO PUSH2 0xFBC JUMPI DUP1 PUSH1 0x1F LT PUSH2 0xF91 JUMPI PUSH2 0x100 DUP1 DUP4 SLOAD DIV MUL DUP4 MSTORE SWAP2 PUSH1 0x20 ADD SWAP2 PUSH2 0xFBC JUMP JUMPDEST DUP3 ADD SWAP2 SWAP1 PUSH1 0x0 MSTORE PUSH1 0x20 PUSH1 0x0 KECCAK256 SWAP1 JUMPDEST DUP2 SLOAD DUP2 MSTORE SWAP1 PUSH1 0x1 ADD SWAP1 PUSH1 0x20 ADD DUP1 DUP4 GT PUSH2 0xF9F JUMPI DUP3 SWAP1 SUB PUSH1 0x1F AND DUP3 ADD SWAP2 JUMPDEST POP POP POP POP POP SWAP1 DUP1 PUSH1 0x2 ADD PUSH1 0x0 SWAP1 SLOAD SWAP1 PUSH2 0x100 EXP SWAP1 DIV PUSH1 0xFF AND SWAP1 POP DUP4 JUMP JUMPDEST PUSH1 0xA PUSH1 0x40 MLOAD DUP1 PUSH1 0x60 ADD PUSH1 0x40 MSTORE DUP1 CALLER PUSH20 0xFFFFFFFFFFFFFFFFFFFFFFFFFFFFFFFFFFFFFFFF AND DUP2 MSTORE PUSH1 0x20 ADD DUP4 DUP2 MSTORE PUSH1 0x20 ADD PUSH1 0x1 ISZERO ISZERO DUP2 MSTORE POP SWAP1 DUP1 PUSH1 0x1 DUP2 SLOAD ADD DUP1 DUP3 SSTORE DUP1 SWAP2 POP POP PUSH1 0x1 SWAP1 SUB SWAP1 PUSH1 0x0 MSTORE PUSH1 0x20 PUSH1 0x0 KECCAK256 SWAP1 PUSH1 0x3 MUL ADD PUSH1 0x0 SWAP1 SWAP2 SWAP1 SWAP2 SWAP1 SWAP2 POP PUSH1 0x0 DUP3 ADD MLOAD DUP2 PUSH1 0x0 ADD PUSH1 0x0 PUSH2 0x100 EXP DUP2 SLOAD DUP2 PUSH20 0xFFFFFFFFFFFFFFFFFFFFFFFFFFFFFFFFFFFFFFFF MUL NOT AND SWAP1 DUP4 PUSH20 0xFFFFFFFFFFFFFFFFFFFFFFFFFFFFFFFFFFFFFFFF AND MUL OR SWAP1 SSTORE POP PUSH1 0x20 DUP3 ADD MLOAD DUP2 PUSH1 0x1 ADD SWAP1 DUP1 MLOAD SWAP1 PUSH1 0x20 ADD SWAP1 PUSH2 0x109B SWAP3 SWAP2 SWAP1 PUSH2 0x1845 JUMP JUMPDEST POP PUSH1 0x40 DUP3 ADD MLOAD DUP2 PUSH1 0x2 ADD PUSH1 0x0 PUSH2 0x100 EXP DUP2 SLOAD DUP2 PUSH1 0xFF MUL NOT AND SWAP1 DUP4 ISZERO ISZERO MUL OR SWAP1 SSTORE POP POP POP POP JUMP JUMPDEST PUSH1 0x60 PUSH1 0x2 DUP1 SLOAD DUP1 PUSH1 0x20 MUL PUSH1 0x20 ADD PUSH1 0x40 MLOAD SWAP1 DUP2 ADD PUSH1 0x40 MSTORE DUP1 SWAP3 SWAP2 SWAP1 DUP2 DUP2 MSTORE PUSH1 0x20 ADD PUSH1 0x0 SWAP1 JUMPDEST DUP3 DUP3 LT ISZERO PUSH2 0x1191 JUMPI DUP4 DUP3 SWAP1 PUSH1 0x0 MSTORE PUSH1 0x20 PUSH1 0x0 KECCAK256 ADD DUP1 SLOAD PUSH2 0x1104 SWAP1 PUSH2 0x2259 JUMP JUMPDEST DUP1 PUSH1 0x1F ADD PUSH1 0x20 DUP1 SWAP2 DIV MUL PUSH1 0x20 ADD PUSH1 0x40 MLOAD SWAP1 DUP2 ADD PUSH1 0x40 MSTORE DUP1 SWAP3 SWAP2 SWAP1 DUP2 DUP2 MSTORE PUSH1 0x20 ADD DUP3 DUP1 SLOAD PUSH2 0x1130 SWAP1 PUSH2 0x2259 JUMP JUMPDEST DUP1 ISZERO PUSH2 0x117D JUMPI DUP1 PUSH1 0x1F LT PUSH2 0x1152 JUMPI PUSH2 0x100 DUP1 DUP4 SLOAD DIV MUL DUP4 MSTORE SWAP2 PUSH1 0x20 ADD SWAP2 PUSH2 0x117D JUMP JUMPDEST DUP3 ADD SWAP2 SWAP1 PUSH1 0x0 MSTORE PUSH1 0x20 PUSH1 0x0 KECCAK256 SWAP1 JUMPDEST DUP2 SLOAD DUP2 MSTORE SWAP1 PUSH1 0x1 ADD SWAP1 PUSH1 0x20 ADD DUP1 DUP4 GT PUSH2 0x1160 JUMPI DUP3 SWAP1 SUB PUSH1 0x1F AND DUP3 ADD SWAP2 JUMPDEST POP POP POP POP POP DUP2 MSTORE PUSH1 0x20 ADD SWAP1 PUSH1 0x1 ADD SWAP1 PUSH2 0x10E5 JUMP JUMPDEST POP POP POP POP SWAP1 POP SWAP1 JUMP JUMPDEST PUSH1 0x1 DUP2 DUP1 MLOAD PUSH1 0x20 DUP2 ADD DUP3 ADD DUP1 MLOAD DUP5 DUP3 MSTORE PUSH1 0x20 DUP4 ADD PUSH1 0x20 DUP6 ADD KECCAK256 DUP2 DUP4 MSTORE DUP1 SWAP6 POP POP POP POP POP POP PUSH1 0x0 SWAP2 POP SLOAD SWAP1 PUSH2 0x100 EXP SWAP1 DIV PUSH20 0xFFFFFFFFFFFFFFFFFFFFFFFFFFFFFFFFFFFFFFFF AND DUP2 JUMP JUMPDEST PUSH1 0xA DUP2 GT ISZERO PUSH2 0x1227 JUMPI PUSH1 0x40 MLOAD PUSH32 0x8C379A000000000000000000000000000000000000000000000000000000000 DUP2 MSTORE PUSH1 0x4 ADD PUSH2 0x121E SWAP1 PUSH2 0x2049 JUMP JUMPDEST PUSH1 0x40 MLOAD DUP1 SWAP2 SUB SWAP1 REVERT JUMPDEST PUSH1 0x60 DUP1 PUSH1 0x40 MLOAD DUP1 PUSH1 0x80 ADD PUSH1 0x40 MSTORE DUP1 DUP7 DUP2 MSTORE PUSH1 0x20 ADD DUP6 DUP2 MSTORE PUSH1 0x20 ADD DUP3 DUP2 MSTORE PUSH1 0x20 ADD DUP4 DUP2 MSTORE POP PUSH1 0x3 PUSH1 0x4 PUSH1 0x0 CALLER PUSH20 0xFFFFFFFFFFFFFFFFFFFFFFFFFFFFFFFFFFFFFFFF AND PUSH20 0xFFFFFFFFFFFFFFFFFFFFFFFFFFFFFFFFFFFFFFFF AND DUP2 MSTORE PUSH1 0x20 ADD SWAP1 DUP2 MSTORE PUSH1 0x20 ADD PUSH1 0x0 KECCAK256 PUSH1 0x0 ADD PUSH1 0x40 MLOAD PUSH2 0x129C SWAP2 SWAP1 PUSH2 0x1ED6 JUMP JUMPDEST SWAP1 DUP2 MSTORE PUSH1 0x20 ADD PUSH1 0x40 MLOAD DUP1 SWAP2 SUB SWAP1 KECCAK256 PUSH1 0x0 DUP3 ADD MLOAD DUP2 PUSH1 0x0 ADD SWAP1 DUP1 MLOAD SWAP1 PUSH1 0x20 ADD SWAP1 PUSH2 0x12C6 SWAP3 SWAP2 SWAP1 PUSH2 0x1845 JUMP JUMPDEST POP PUSH1 0x20 DUP3 ADD MLOAD DUP2 PUSH1 0x1 ADD SWAP1 DUP1 MLOAD SWAP1 PUSH1 0x20 ADD SWAP1 PUSH2 0x12E3 SWAP3 SWAP2 SWAP1 PUSH2 0x1845 JUMP JUMPDEST POP PUSH1 0x40 DUP3 ADD MLOAD DUP2 PUSH1 0x2 ADD SWAP1 DUP1 MLOAD SWAP1 PUSH1 0x20 ADD SWAP1 PUSH2 0x1300 SWAP3 SWAP2 SWAP1 PUSH2 0x18CB JUMP JUMPDEST POP PUSH1 0x60 DUP3 ADD MLOAD DUP2 PUSH1 0x3 ADD SWAP1 DUP1 MLOAD SWAP1 PUSH1 0x20 ADD SWAP1 PUSH2 0x131D SWAP3 SWAP2 SWAP1 PUSH2 0x1918 JUMP JUMPDEST POP SWAP1 POP POP POP POP POP POP POP JUMP JUMPDEST PUSH1 0x7 DUP2 DUP1 MLOAD PUSH1 0x20 DUP2 ADD DUP3 ADD DUP1 MLOAD DUP5 DUP3 MSTORE PUSH1 0x20 DUP4 ADD PUSH1 0x20 DUP6 ADD KECCAK256 DUP2 DUP4 MSTORE DUP1 SWAP6 POP POP POP POP POP POP PUSH1 0x0 SWAP2 POP SWAP1 POP DUP1 PUSH1 0x0 ADD PUSH1 0x0 SWAP1 SLOAD SWAP1 PUSH2 0x100 EXP SWAP1 DIV PUSH20 0xFFFFFFFFFFFFFFFFFFFFFFFFFFFFFFFFFFFFFFFF AND SWAP1 DUP1 PUSH1 0x1 ADD DUP1 SLOAD PUSH2 0x1387 SWAP1 PUSH2 0x2259 JUMP JUMPDEST DUP1 PUSH1 0x1F ADD PUSH1 0x20 DUP1 SWAP2 DIV MUL PUSH1 0x20 ADD PUSH1 0x40 MLOAD SWAP1 DUP2 ADD PUSH1 0x40 MSTORE DUP1 SWAP3 SWAP2 SWAP1 DUP2 DUP2 MSTORE PUSH1 0x20 ADD DUP3 DUP1 SLOAD PUSH2 0x13B3 SWAP1 PUSH2 0x2259 JUMP JUMPDEST DUP1 ISZERO PUSH2 0x1400 JUMPI DUP1 PUSH1 0x1F LT PUSH2 0x13D5 JUMPI PUSH2 0x100 DUP1 DUP4 SLOAD DIV MUL DUP4 MSTORE SWAP2 PUSH1 0x20 ADD SWAP2 PUSH2 0x1400 JUMP JUMPDEST DUP3 ADD SWAP2 SWAP1 PUSH1 0x0 MSTORE PUSH1 0x20 PUSH1 0x0 KECCAK256 SWAP1 JUMPDEST DUP2 SLOAD DUP2 MSTORE SWAP1 PUSH1 0x1 ADD SWAP1 PUSH1 0x20 ADD DUP1 DUP4 GT PUSH2 0x13E3 JUMPI DUP3 SWAP1 SUB PUSH1 0x1F AND DUP3 ADD SWAP2 JUMPDEST POP POP POP POP POP SWAP1 DUP1 PUSH1 0x2 ADD SLOAD SWAP1 DUP1 PUSH1 0x3 ADD SLOAD SWAP1 POP DUP5 JUMP JUMPDEST PUSH1 0x9 DUP2 DUP2 SLOAD DUP2 LT PUSH2 0x1426 JUMPI PUSH1 0x0 DUP1 REVERT JUMPDEST SWAP1 PUSH1 0x0 MSTORE PUSH1 0x20 PUSH1 0x0 KECCAK256 SWAP1 PUSH1 0x3 MUL ADD PUSH1 0x0 SWAP2 POP SWAP1 POP DUP1 PUSH1 0x0 ADD PUSH1 0x0 SWAP1 SLOAD SWAP1 PUSH2 0x100 EXP SWAP1 DIV PUSH20 0xFFFFFFFFFFFFFFFFFFFFFFFFFFFFFFFFFFFFFFFF AND SWAP1 DUP1 PUSH1 0x1 ADD DUP1 SLOAD PUSH2 0x146F SWAP1 PUSH2 0x2259 JUMP JUMPDEST DUP1 PUSH1 0x1F ADD PUSH1 0x20 DUP1 SWAP2 DIV MUL PUSH1 0x20 ADD PUSH1 0x40 MLOAD SWAP1 DUP2 ADD PUSH1 0x40 MSTORE DUP1 SWAP3 SWAP2 SWAP1 DUP2 DUP2 MSTORE PUSH1 0x20 ADD DUP3 DUP1 SLOAD PUSH2 0x149B SWAP1 PUSH2 0x2259 JUMP JUMPDEST DUP1 ISZERO PUSH2 0x14E8 JUMPI DUP1 PUSH1 0x1F LT PUSH2 0x14BD JUMPI PUSH2 0x100 DUP1 DUP4 SLOAD DIV MUL DUP4 MSTORE SWAP2 PUSH1 0x20 ADD SWAP2 PUSH2 0x14E8 JUMP JUMPDEST DUP3 ADD SWAP2 SWAP1 PUSH1 0x0 MSTORE PUSH1 0x20 PUSH1 0x0 KECCAK256 SWAP1 JUMPDEST DUP2 SLOAD DUP2 MSTORE SWAP1 PUSH1 0x1 ADD SWAP1 PUSH1 0x20 ADD DUP1 DUP4 GT PUSH2 0x14CB JUMPI DUP3 SWAP1 SUB PUSH1 0x1F AND DUP3 ADD SWAP2 JUMPDEST POP POP POP POP POP SWAP1 DUP1 PUSH1 0x2 ADD PUSH1 0x0 SWAP1 SLOAD SWAP1 PUSH2 0x100 EXP SWAP1 DIV PUSH1 0xFF AND SWAP1 POP DUP4 JUMP JUMPDEST PUSH1 0x1 ISZERO ISZERO DUP2 ISZERO ISZERO EQ ISZERO PUSH2 0x16B8 JUMPI PUSH1 0x0 PUSH1 0xA DUP4 DUP2 SLOAD DUP2 LT PUSH2 0x1528 JUMPI PUSH2 0x1527 PUSH2 0x2363 JUMP JUMPDEST JUMPDEST SWAP1 PUSH1 0x0 MSTORE PUSH1 0x20 PUSH1 0x0 KECCAK256 SWAP1 PUSH1 0x3 MUL ADD PUSH1 0x2 ADD PUSH1 0x0 PUSH2 0x100 EXP DUP2 SLOAD DUP2 PUSH1 0xFF MUL NOT AND SWAP1 DUP4 ISZERO ISZERO MUL OR SWAP1 SSTORE POP PUSH1 0x7 PUSH1 0xB DUP4 DUP2 SLOAD DUP2 LT PUSH2 0x1566 JUMPI PUSH2 0x1565 PUSH2 0x2363 JUMP JUMPDEST JUMPDEST SWAP1 PUSH1 0x0 MSTORE PUSH1 0x20 PUSH1 0x0 KECCAK256 SWAP1 PUSH1 0x3 MUL ADD PUSH1 0x1 ADD PUSH1 0x40 MLOAD PUSH2 0x1584 SWAP2 SWAP1 PUSH2 0x1ED6 JUMP JUMPDEST SWAP1 DUP2 MSTORE PUSH1 0x20 ADD PUSH1 0x40 MLOAD DUP1 SWAP2 SUB SWAP1 KECCAK256 PUSH1 0x2 ADD SLOAD PUSH1 0x4 PUSH1 0x0 PUSH1 0xB DUP6 DUP2 SLOAD DUP2 LT PUSH2 0x15AE JUMPI PUSH2 0x15AD PUSH2 0x2363 JUMP JUMPDEST JUMPDEST SWAP1 PUSH1 0x0 MSTORE PUSH1 0x20 PUSH1 0x0 KECCAK256 SWAP1 PUSH1 0x3 MUL ADD PUSH1 0x0 ADD PUSH1 0x0 SWAP1 SLOAD SWAP1 PUSH2 0x100 EXP SWAP1 DIV PUSH20 0xFFFFFFFFFFFFFFFFFFFFFFFFFFFFFFFFFFFFFFFF AND PUSH20 0xFFFFFFFFFFFFFFFFFFFFFFFFFFFFFFFFFFFFFFFF AND PUSH20 0xFFFFFFFFFFFFFFFFFFFFFFFFFFFFFFFFFFFFFFFF AND DUP2 MSTORE PUSH1 0x20 ADD SWAP1 DUP2 MSTORE PUSH1 0x20 ADD PUSH1 0x0 KECCAK256 PUSH1 0x2 ADD SLOAD PUSH2 0x1628 SWAP2 SWAP1 PUSH2 0x2145 JUMP JUMPDEST PUSH1 0x4 PUSH1 0x0 PUSH1 0xB DUP6 DUP2 SLOAD DUP2 LT PUSH2 0x1640 JUMPI PUSH2 0x163F PUSH2 0x2363 JUMP JUMPDEST JUMPDEST SWAP1 PUSH1 0x0 MSTORE PUSH1 0x20 PUSH1 0x0 KECCAK256 SWAP1 PUSH1 0x3 MUL ADD PUSH1 0x0 ADD PUSH1 0x0 SWAP1 SLOAD SWAP1 PUSH2 0x100 EXP SWAP1 DIV PUSH20 0xFFFFFFFFFFFFFFFFFFFFFFFFFFFFFFFFFFFFFFFF AND PUSH20 0xFFFFFFFFFFFFFFFFFFFFFFFFFFFFFFFFFFFFFFFF AND PUSH20 0xFFFFFFFFFFFFFFFFFFFFFFFFFFFFFFFFFFFFFFFF AND DUP2 MSTORE PUSH1 0x20 ADD SWAP1 DUP2 MSTORE PUSH1 0x20 ADD PUSH1 0x0 KECCAK256 PUSH1 0x2 ADD DUP2 SWAP1 SSTORE POP PUSH2 0x16F7 JUMP JUMPDEST PUSH1 0x0 PUSH1 0xA DUP4 DUP2 SLOAD DUP2 LT PUSH2 0x16CE JUMPI PUSH2 0x16CD PUSH2 0x2363 JUMP JUMPDEST JUMPDEST SWAP1 PUSH1 0x0 MSTORE PUSH1 0x20 PUSH1 0x0 KECCAK256 SWAP1 PUSH1 0x3 MUL ADD PUSH1 0x2 ADD PUSH1 0x0 PUSH2 0x100 EXP DUP2 SLOAD DUP2 PUSH1 0xFF MUL NOT AND SWAP1 DUP4 ISZERO ISZERO MUL OR SWAP1 SSTORE POP JUMPDEST POP POP JUMP JUMPDEST PUSH1 0x3 DUP2 DUP1 MLOAD PUSH1 0x20 DUP2 ADD DUP3 ADD DUP1 MLOAD DUP5 DUP3 MSTORE PUSH1 0x20 DUP4 ADD PUSH1 0x20 DUP6 ADD KECCAK256 DUP2 DUP4 MSTORE DUP1 SWAP6 POP POP POP POP POP POP PUSH1 0x0 SWAP2 POP SWAP1 POP DUP1 PUSH1 0x0 ADD DUP1 SLOAD PUSH2 0x1734 SWAP1 PUSH2 0x2259 JUMP JUMPDEST DUP1 PUSH1 0x1F ADD PUSH1 0x20 DUP1 SWAP2 DIV MUL PUSH1 0x20 ADD PUSH1 0x40 MLOAD SWAP1 DUP2 ADD PUSH1 0x40 MSTORE DUP1 SWAP3 SWAP2 SWAP1 DUP2 DUP2 MSTORE PUSH1 0x20 ADD DUP3 DUP1 SLOAD PUSH2 0x1760 SWAP1 PUSH2 0x2259 JUMP JUMPDEST DUP1 ISZERO PUSH2 0x17AD JUMPI DUP1 PUSH1 0x1F LT PUSH2 0x1782 JUMPI PUSH2 0x100 DUP1 DUP4 SLOAD DIV MUL DUP4 MSTORE SWAP2 PUSH1 0x20 ADD SWAP2 PUSH2 0x17AD JUMP JUMPDEST DUP3 ADD SWAP2 SWAP1 PUSH1 0x0 MSTORE PUSH1 0x20 PUSH1 0x0 KECCAK256 SWAP1 JUMPDEST DUP2 SLOAD DUP2 MSTORE SWAP1 PUSH1 0x1 ADD SWAP1 PUSH1 0x20 ADD DUP1 DUP4 GT PUSH2 0x1790 JUMPI DUP3 SWAP1 SUB PUSH1 0x1F AND DUP3 ADD SWAP2 JUMPDEST POP POP POP POP POP SWAP1 DUP1 PUSH1 0x1 ADD DUP1 SLOAD PUSH2 0x17C2 SWAP1 PUSH2 0x2259 JUMP JUMPDEST DUP1 PUSH1 0x1F ADD PUSH1 0x20 DUP1 SWAP2 DIV MUL PUSH1 0x20 ADD PUSH1 0x40 MLOAD SWAP1 DUP2 ADD PUSH1 0x40 MSTORE DUP1 SWAP3 SWAP2 SWAP1 DUP2 DUP2 MSTORE PUSH1 0x20 ADD DUP3 DUP1 SLOAD PUSH2 0x17EE SWAP1 PUSH2 0x2259 JUMP JUMPDEST DUP1 ISZERO PUSH2 0x183B JUMPI DUP1 PUSH1 0x1F LT PUSH2 0x1810 JUMPI PUSH2 0x100 DUP1 DUP4 SLOAD DIV MUL DUP4 MSTORE SWAP2 PUSH1 0x20 ADD SWAP2 PUSH2 0x183B JUMP JUMPDEST DUP3 ADD SWAP2 SWAP1 PUSH1 0x0 MSTORE PUSH1 0x20 PUSH1 0x0 KECCAK256 SWAP1 JUMPDEST DUP2 SLOAD DUP2 MSTORE SWAP1 PUSH1 0x1 ADD SWAP1 PUSH1 0x20 ADD DUP1 DUP4 GT PUSH2 0x181E JUMPI DUP3 SWAP1 SUB PUSH1 0x1F AND DUP3 ADD SWAP2 JUMPDEST POP POP POP POP POP SWAP1 POP DUP3 JUMP JUMPDEST DUP3 DUP1 SLOAD PUSH2 0x1851 SWAP1 PUSH2 0x2259 JUMP JUMPDEST SWAP1 PUSH1 0x0 MSTORE PUSH1 0x20 PUSH1 0x0 KECCAK256 SWAP1 PUSH1 0x1F ADD PUSH1 0x20 SWAP1 DIV DUP2 ADD SWAP3 DUP3 PUSH2 0x1873 JUMPI PUSH1 0x0 DUP6 SSTORE PUSH2 0x18BA JUMP JUMPDEST DUP3 PUSH1 0x1F LT PUSH2 0x188C JUMPI DUP1 MLOAD PUSH1 0xFF NOT AND DUP4 DUP1 ADD OR DUP6 SSTORE PUSH2 0x18BA JUMP JUMPDEST DUP3 DUP1 ADD PUSH1 0x1 ADD DUP6 SSTORE DUP3 ISZERO PUSH2 0x18BA JUMPI SWAP2 DUP3 ADD JUMPDEST DUP3 DUP2 GT ISZERO PUSH2 0x18B9 JUMPI DUP3 MLOAD DUP3 SSTORE SWAP2 PUSH1 0x20 ADD SWAP2 SWAP1 PUSH1 0x1 ADD SWAP1 PUSH2 0x189E JUMP JUMPDEST JUMPDEST POP SWAP1 POP PUSH2 0x18C7 SWAP2 SWAP1 PUSH2 0x1978 JUMP JUMPDEST POP SWAP1 JUMP JUMPDEST DUP3 DUP1 SLOAD DUP3 DUP3 SSTORE SWAP1 PUSH1 0x0 MSTORE PUSH1 0x20 PUSH1 0x0 KECCAK256 SWAP1 DUP2 ADD SWAP3 DUP3 ISZERO PUSH2 0x1907 JUMPI SWAP2 PUSH1 0x20 MUL DUP3 ADD JUMPDEST DUP3 DUP2 GT ISZERO PUSH2 0x1906 JUMPI DUP3 MLOAD DUP3 SSTORE SWAP2 PUSH1 0x20 ADD SWAP2 SWAP1 PUSH1 0x1 ADD SWAP1 PUSH2 0x18EB JUMP JUMPDEST JUMPDEST POP SWAP1 POP PUSH2 0x1914 SWAP2 SWAP1 PUSH2 0x1978 JUMP JUMPDEST POP SWAP1 JUMP JUMPDEST DUP3 DUP1 SLOAD DUP3 DUP3 SSTORE SWAP1 PUSH1 0x0 MSTORE PUSH1 0x20 PUSH1 0x0 KECCAK256 SWAP1 DUP2 ADD SWAP3 DUP3 ISZERO PUSH2 0x1967 JUMPI SWAP2 PUSH1 0x20 MUL DUP3 ADD JUMPDEST DUP3 DUP2 GT ISZERO PUSH2 0x1966 JUMPI DUP3 MLOAD DUP3 SWAP1 DUP1 MLOAD SWAP1 PUSH1 0x20 ADD SWAP1 PUSH2 0x1956 SWAP3 SWAP2 SWAP1 PUSH2 0x1845 JUMP JUMPDEST POP SWAP2 PUSH1 0x20 ADD SWAP2 SWAP1 PUSH1 0x1 ADD SWAP1 PUSH2 0x1938 JUMP JUMPDEST JUMPDEST POP SWAP1 POP PUSH2 0x1974 SWAP2 SWAP1 PUSH2 0x1995 JUMP JUMPDEST POP SWAP1 JUMP JUMPDEST JUMPDEST DUP1 DUP3 GT ISZERO PUSH2 0x1991 JUMPI PUSH1 0x0 DUP2 PUSH1 0x0 SWAP1 SSTORE POP PUSH1 0x1 ADD PUSH2 0x1979 JUMP JUMPDEST POP SWAP1 JUMP JUMPDEST JUMPDEST DUP1 DUP3 GT ISZERO PUSH2 0x19B5 JUMPI PUSH1 0x0 DUP2 DUP2 PUSH2 0x19AC SWAP2 SWAP1 PUSH2 0x19B9 JUMP JUMPDEST POP PUSH1 0x1 ADD PUSH2 0x1996 JUMP JUMPDEST POP SWAP1 JUMP JUMPDEST POP DUP1 SLOAD PUSH2 0x19C5 SWAP1 PUSH2 0x2259 JUMP JUMPDEST PUSH1 0x0 DUP3 SSTORE DUP1 PUSH1 0x1F LT PUSH2 0x19D7 JUMPI POP PUSH2 0x19F6 JUMP JUMPDEST PUSH1 0x1F ADD PUSH1 0x20 SWAP1 DIV SWAP1 PUSH1 0x0 MSTORE PUSH1 0x20 PUSH1 0x0 KECCAK256 SWAP1 DUP2 ADD SWAP1 PUSH2 0x19F5 SWAP2 SWAP1 PUSH2 0x1978 JUMP JUMPDEST JUMPDEST POP JUMP JUMPDEST PUSH1 0x0 PUSH2 0x1A0C PUSH2 0x1A07 DUP5 PUSH2 0x208E JUMP JUMPDEST PUSH2 0x2069 JUMP JUMPDEST SWAP1 POP DUP3 DUP2 MSTORE PUSH1 0x20 DUP2 ADD DUP5 DUP5 DUP5 ADD GT ISZERO PUSH2 0x1A28 JUMPI PUSH2 0x1A27 PUSH2 0x23C6 JUMP JUMPDEST JUMPDEST PUSH2 0x1A33 DUP5 DUP3 DUP6 PUSH2 0x2217 JUMP JUMPDEST POP SWAP4 SWAP3 POP POP POP JUMP JUMPDEST PUSH1 0x0 DUP2 CALLDATALOAD SWAP1 POP PUSH2 0x1A4A DUP2 PUSH2 0x245E JUMP JUMPDEST SWAP3 SWAP2 POP POP JUMP JUMPDEST PUSH1 0x0 DUP2 CALLDATALOAD SWAP1 POP PUSH2 0x1A5F DUP2 PUSH2 0x2475 JUMP JUMPDEST SWAP3 SWAP2 POP POP JUMP JUMPDEST PUSH1 0x0 DUP3 PUSH1 0x1F DUP4 ADD SLT PUSH2 0x1A7A JUMPI PUSH2 0x1A79 PUSH2 0x23C1 JUMP JUMPDEST JUMPDEST DUP2 CALLDATALOAD PUSH2 0x1A8A DUP5 DUP3 PUSH1 0x20 DUP7 ADD PUSH2 0x19F9 JUMP JUMPDEST SWAP2 POP POP SWAP3 SWAP2 POP POP JUMP JUMPDEST PUSH1 0x0 DUP2 CALLDATALOAD SWAP1 POP PUSH2 0x1AA2 DUP2 PUSH2 0x248C JUMP JUMPDEST SWAP3 SWAP2 POP POP JUMP JUMPDEST PUSH1 0x0 PUSH1 0x20 DUP3 DUP5 SUB SLT ISZERO PUSH2 0x1ABE JUMPI PUSH2 0x1ABD PUSH2 0x23D0 JUMP JUMPDEST JUMPDEST PUSH1 0x0 PUSH2 0x1ACC DUP5 DUP3 DUP6 ADD PUSH2 0x1A3B JUMP JUMPDEST SWAP2 POP POP SWAP3 SWAP2 POP POP JUMP JUMPDEST PUSH1 0x0 PUSH1 0x20 DUP3 DUP5 SUB SLT ISZERO PUSH2 0x1AEB JUMPI PUSH2 0x1AEA PUSH2 0x23D0 JUMP JUMPDEST JUMPDEST PUSH1 0x0 DUP3 ADD CALLDATALOAD PUSH8 0xFFFFFFFFFFFFFFFF DUP2 GT ISZERO PUSH2 0x1B09 JUMPI PUSH2 0x1B08 PUSH2 0x23CB JUMP JUMPDEST JUMPDEST PUSH2 0x1B15 DUP5 DUP3 DUP6 ADD PUSH2 0x1A65 JUMP JUMPDEST SWAP2 POP POP SWAP3 SWAP2 POP POP JUMP JUMPDEST PUSH1 0x0 DUP1 PUSH1 0x0 PUSH1 0x60 DUP5 DUP7 SUB SLT ISZERO PUSH2 0x1B37 JUMPI PUSH2 0x1B36 PUSH2 0x23D0 JUMP JUMPDEST JUMPDEST PUSH1 0x0 DUP5 ADD CALLDATALOAD PUSH8 0xFFFFFFFFFFFFFFFF DUP2 GT ISZERO PUSH2 0x1B55 JUMPI PUSH2 0x1B54 PUSH2 0x23CB JUMP JUMPDEST JUMPDEST PUSH2 0x1B61 DUP7 DUP3 DUP8 ADD PUSH2 0x1A65 JUMP JUMPDEST SWAP4 POP POP PUSH1 0x20 DUP5 ADD CALLDATALOAD PUSH8 0xFFFFFFFFFFFFFFFF DUP2 GT ISZERO PUSH2 0x1B82 JUMPI PUSH2 0x1B81 PUSH2 0x23CB JUMP JUMPDEST JUMPDEST PUSH2 0x1B8E DUP7 DUP3 DUP8 ADD PUSH2 0x1A65 JUMP JUMPDEST SWAP3 POP POP PUSH1 0x40 PUSH2 0x1B9F DUP7 DUP3 DUP8 ADD PUSH2 0x1A93 JUMP JUMPDEST SWAP2 POP POP SWAP3 POP SWAP3 POP SWAP3 JUMP JUMPDEST PUSH1 0x0 DUP1 PUSH1 0x0 PUSH1 0x60 DUP5 DUP7 SUB SLT ISZERO PUSH2 0x1BC2 JUMPI PUSH2 0x1BC1 PUSH2 0x23D0 JUMP JUMPDEST JUMPDEST PUSH1 0x0 DUP5 ADD CALLDATALOAD PUSH8 0xFFFFFFFFFFFFFFFF DUP2 GT ISZERO PUSH2 0x1BE0 JUMPI PUSH2 0x1BDF PUSH2 0x23CB JUMP JUMPDEST JUMPDEST PUSH2 0x1BEC DUP7 DUP3 DUP8 ADD PUSH2 0x1A65 JUMP JUMPDEST SWAP4 POP POP PUSH1 0x20 PUSH2 0x1BFD DUP7 DUP3 DUP8 ADD PUSH2 0x1A93 JUMP JUMPDEST SWAP3 POP POP PUSH1 0x40 DUP5 ADD CALLDATALOAD PUSH8 0xFFFFFFFFFFFFFFFF DUP2 GT ISZERO PUSH2 0x1C1E JUMPI PUSH2 0x1C1D PUSH2 0x23CB JUMP JUMPDEST JUMPDEST PUSH2 0x1C2A DUP7 DUP3 DUP8 ADD PUSH2 0x1A65 JUMP JUMPDEST SWAP2 POP POP SWAP3 POP SWAP3 POP SWAP3 JUMP JUMPDEST PUSH1 0x0 PUSH1 0x20 DUP3 DUP5 SUB SLT ISZERO PUSH2 0x1C4A JUMPI PUSH2 0x1C49 PUSH2 0x23D0 JUMP JUMPDEST JUMPDEST PUSH1 0x0 PUSH2 0x1C58 DUP5 DUP3 DUP6 ADD PUSH2 0x1A93 JUMP JUMPDEST SWAP2 POP POP SWAP3 SWAP2 POP POP JUMP JUMPDEST PUSH1 0x0 DUP1 PUSH1 0x40 DUP4 DUP6 SUB SLT ISZERO PUSH2 0x1C78 JUMPI PUSH2 0x1C77 PUSH2 0x23D0 JUMP JUMPDEST JUMPDEST PUSH1 0x0 PUSH2 0x1C86 DUP6 DUP3 DUP7 ADD PUSH2 0x1A93 JUMP JUMPDEST SWAP3 POP POP PUSH1 0x20 PUSH2 0x1C97 DUP6 DUP3 DUP7 ADD PUSH2 0x1A50 JUMP JUMPDEST SWAP2 POP POP SWAP3 POP SWAP3 SWAP1 POP JUMP JUMPDEST PUSH1 0x0 PUSH2 0x1CAD DUP4 DUP4 PUSH2 0x1D48 JUMP JUMPDEST SWAP1 POP SWAP3 SWAP2 POP POP JUMP JUMPDEST PUSH2 0x1CBE DUP2 PUSH2 0x21CF JUMP JUMPDEST DUP3 MSTORE POP POP JUMP JUMPDEST PUSH1 0x0 PUSH2 0x1CCF DUP3 PUSH2 0x20E4 JUMP JUMPDEST PUSH2 0x1CD9 DUP2 DUP6 PUSH2 0x2107 JUMP JUMPDEST SWAP4 POP DUP4 PUSH1 0x20 DUP3 MUL DUP6 ADD PUSH2 0x1CEB DUP6 PUSH2 0x20BF JUMP JUMPDEST DUP1 PUSH1 0x0 JUMPDEST DUP6 DUP2 LT ISZERO PUSH2 0x1D27 JUMPI DUP5 DUP5 SUB DUP10 MSTORE DUP2 MLOAD PUSH2 0x1D08 DUP6 DUP3 PUSH2 0x1CA1 JUMP JUMPDEST SWAP5 POP PUSH2 0x1D13 DUP4 PUSH2 0x20FA JUMP JUMPDEST SWAP3 POP PUSH1 0x20 DUP11 ADD SWAP10 POP POP PUSH1 0x1 DUP2 ADD SWAP1 POP PUSH2 0x1CEF JUMP JUMPDEST POP DUP3 SWAP8 POP DUP8 SWAP6 POP POP POP POP POP POP SWAP3 SWAP2 POP POP JUMP JUMPDEST PUSH2 0x1D42 DUP2 PUSH2 0x21E1 JUMP JUMPDEST DUP3 MSTORE POP POP JUMP JUMPDEST PUSH1 0x0 PUSH2 0x1D53 DUP3 PUSH2 0x20EF JUMP JUMPDEST PUSH2 0x1D5D DUP2 DUP6 PUSH2 0x2118 JUMP JUMPDEST SWAP4 POP PUSH2 0x1D6D DUP2 DUP6 PUSH1 0x20 DUP7 ADD PUSH2 0x2226 JUMP JUMPDEST PUSH2 0x1D76 DUP2 PUSH2 0x23D5 JUMP JUMPDEST DUP5 ADD SWAP2 POP POP SWAP3 SWAP2 POP POP JUMP JUMPDEST PUSH1 0x0 PUSH2 0x1D8C DUP3 PUSH2 0x20EF JUMP JUMPDEST PUSH2 0x1D96 DUP2 DUP6 PUSH2 0x2129 JUMP JUMPDEST SWAP4 POP PUSH2 0x1DA6 DUP2 DUP6 PUSH1 0x20 DUP7 ADD PUSH2 0x2226 JUMP JUMPDEST PUSH2 0x1DAF DUP2 PUSH2 0x23D5 JUMP JUMPDEST DUP5 ADD SWAP2 POP POP SWAP3 SWAP2 POP POP JUMP JUMPDEST PUSH1 0x0 PUSH2 0x1DC5 DUP3 PUSH2 0x20EF JUMP JUMPDEST PUSH2 0x1DCF DUP2 DUP6 PUSH2 0x213A JUMP JUMPDEST SWAP4 POP PUSH2 0x1DDF DUP2 DUP6 PUSH1 0x20 DUP7 ADD PUSH2 0x2226 JUMP JUMPDEST DUP1 DUP5 ADD SWAP2 POP POP SWAP3 SWAP2 POP POP JUMP JUMPDEST PUSH1 0x0 DUP2 SLOAD PUSH2 0x1DF8 DUP2 PUSH2 0x2259 JUMP JUMPDEST PUSH2 0x1E02 DUP2 DUP7 PUSH2 0x213A JUMP JUMPDEST SWAP5 POP PUSH1 0x1 DUP3 AND PUSH1 0x0 DUP2 EQ PUSH2 0x1E1D JUMPI PUSH1 0x1 DUP2 EQ PUSH2 0x1E2E JUMPI PUSH2 0x1E61 JUMP JUMPDEST PUSH1 0xFF NOT DUP4 AND DUP7 MSTORE DUP2 DUP7 ADD SWAP4 POP PUSH2 0x1E61 JUMP JUMPDEST PUSH2 0x1E37 DUP6 PUSH2 0x20CF JUMP JUMPDEST PUSH1 0x0 JUMPDEST DUP4 DUP2 LT ISZERO PUSH2 0x1E59 JUMPI DUP2 SLOAD DUP2 DUP10 ADD MSTORE PUSH1 0x1 DUP3 ADD SWAP2 POP PUSH1 0x20 DUP2 ADD SWAP1 POP PUSH2 0x1E3A JUMP JUMPDEST DUP4 DUP9 ADD SWAP6 POP POP POP JUMPDEST POP POP POP SWAP3 SWAP2 POP POP JUMP JUMPDEST PUSH1 0x0 PUSH2 0x1E77 PUSH1 0x10 DUP4 PUSH2 0x2129 JUMP JUMPDEST SWAP2 POP PUSH2 0x1E82 DUP3 PUSH2 0x23E6 JUMP JUMPDEST PUSH1 0x20 DUP3 ADD SWAP1 POP SWAP2 SWAP1 POP JUMP JUMPDEST PUSH1 0x0 PUSH2 0x1E9A PUSH1 0x21 DUP4 PUSH2 0x2129 JUMP JUMPDEST SWAP2 POP PUSH2 0x1EA5 DUP3 PUSH2 0x240F JUMP JUMPDEST PUSH1 0x40 DUP3 ADD SWAP1 POP SWAP2 SWAP1 POP JUMP JUMPDEST PUSH2 0x1EB9 DUP2 PUSH2 0x220D JUMP JUMPDEST DUP3 MSTORE POP POP JUMP JUMPDEST PUSH1 0x0 PUSH2 0x1ECB DUP3 DUP5 PUSH2 0x1DBA JUMP JUMPDEST SWAP2 POP DUP2 SWAP1 POP SWAP3 SWAP2 POP POP JUMP JUMPDEST PUSH1 0x0 PUSH2 0x1EE2 DUP3 DUP5 PUSH2 0x1DEB JUMP JUMPDEST SWAP2 POP DUP2 SWAP1 POP SWAP3 SWAP2 POP POP JUMP JUMPDEST PUSH1 0x0 PUSH1 0x20 DUP3 ADD SWAP1 POP PUSH2 0x1F02 PUSH1 0x0 DUP4 ADD DUP5 PUSH2 0x1CB5 JUMP JUMPDEST SWAP3 SWAP2 POP POP JUMP JUMPDEST PUSH1 0x0 PUSH1 0x60 DUP3 ADD SWAP1 POP PUSH2 0x1F1D PUSH1 0x0 DUP4 ADD DUP7 PUSH2 0x1CB5 JUMP JUMPDEST DUP2 DUP2 SUB PUSH1 0x20 DUP4 ADD MSTORE PUSH2 0x1F2F DUP2 DUP6 PUSH2 0x1D81 JUMP JUMPDEST SWAP1 POP PUSH2 0x1F3E PUSH1 0x40 DUP4 ADD DUP5 PUSH2 0x1D39 JUMP JUMPDEST SWAP5 SWAP4 POP POP POP POP JUMP JUMPDEST PUSH1 0x0 PUSH1 0x80 DUP3 ADD SWAP1 POP PUSH2 0x1F5B PUSH1 0x0 DUP4 ADD DUP8 PUSH2 0x1CB5 JUMP JUMPDEST DUP2 DUP2 SUB PUSH1 0x20 DUP4 ADD MSTORE PUSH2 0x1F6D DUP2 DUP7 PUSH2 0x1D81 JUMP JUMPDEST SWAP1 POP PUSH2 0x1F7C PUSH1 0x40 DUP4 ADD DUP6 PUSH2 0x1EB0 JUMP JUMPDEST PUSH2 0x1F89 PUSH1 0x60 DUP4 ADD DUP5 PUSH2 0x1EB0 JUMP JUMPDEST SWAP6 SWAP5 POP POP POP POP POP JUMP JUMPDEST PUSH1 0x0 PUSH1 0x20 DUP3 ADD SWAP1 POP DUP2 DUP2 SUB PUSH1 0x0 DUP4 ADD MSTORE PUSH2 0x1FAC DUP2 DUP5 PUSH2 0x1CC4 JUMP JUMPDEST SWAP1 POP SWAP3 SWAP2 POP POP JUMP JUMPDEST PUSH1 0x0 PUSH1 0x40 DUP3 ADD SWAP1 POP DUP2 DUP2 SUB PUSH1 0x0 DUP4 ADD MSTORE PUSH2 0x1FCE DUP2 DUP6 PUSH2 0x1D81 JUMP JUMPDEST SWAP1 POP DUP2 DUP2 SUB PUSH1 0x20 DUP4 ADD MSTORE PUSH2 0x1FE2 DUP2 DUP5 PUSH2 0x1D81 JUMP JUMPDEST SWAP1 POP SWAP4 SWAP3 POP POP POP JUMP JUMPDEST PUSH1 0x0 PUSH1 0x60 DUP3 ADD SWAP1 POP DUP2 DUP2 SUB PUSH1 0x0 DUP4 ADD MSTORE PUSH2 0x2005 DUP2 DUP7 PUSH2 0x1D81 JUMP JUMPDEST SWAP1 POP PUSH2 0x2014 PUSH1 0x20 DUP4 ADD DUP6 PUSH2 0x1EB0 JUMP JUMPDEST PUSH2 0x2021 PUSH1 0x40 DUP4 ADD DUP5 PUSH2 0x1EB0 JUMP JUMPDEST SWAP5 SWAP4 POP POP POP POP JUMP JUMPDEST PUSH1 0x0 PUSH1 0x20 DUP3 ADD SWAP1 POP DUP2 DUP2 SUB PUSH1 0x0 DUP4 ADD MSTORE PUSH2 0x2042 DUP2 PUSH2 0x1E6A JUMP JUMPDEST SWAP1 POP SWAP2 SWAP1 POP JUMP JUMPDEST PUSH1 0x0 PUSH1 0x20 DUP3 ADD SWAP1 POP DUP2 DUP2 SUB PUSH1 0x0 DUP4 ADD MSTORE PUSH2 0x2062 DUP2 PUSH2 0x1E8D JUMP JUMPDEST SWAP1 POP SWAP2 SWAP1 POP JUMP JUMPDEST PUSH1 0x0 PUSH2 0x2073 PUSH2 0x2084 JUMP JUMPDEST SWAP1 POP PUSH2 0x207F DUP3 DUP3 PUSH2 0x228B JUMP JUMPDEST SWAP2 SWAP1 POP JUMP JUMPDEST PUSH1 0x0 PUSH1 0x40 MLOAD SWAP1 POP SWAP1 JUMP JUMPDEST PUSH1 0x0 PUSH8 0xFFFFFFFFFFFFFFFF DUP3 GT ISZERO PUSH2 0x20A9 JUMPI PUSH2 0x20A8 PUSH2 0x2392 JUMP JUMPDEST JUMPDEST PUSH2 0x20B2 DUP3 PUSH2 0x23D5 JUMP JUMPDEST SWAP1 POP PUSH1 0x20 DUP2 ADD SWAP1 POP SWAP2 SWAP1 POP JUMP JUMPDEST PUSH1 0x0 DUP2 SWAP1 POP PUSH1 0x20 DUP3 ADD SWAP1 POP SWAP2 SWAP1 POP JUMP JUMPDEST PUSH1 0x0 DUP2 SWAP1 POP DUP2 PUSH1 0x0 MSTORE PUSH1 0x20 PUSH1 0x0 KECCAK256 SWAP1 POP SWAP2 SWAP1 POP JUMP JUMPDEST PUSH1 0x0 DUP2 MLOAD SWAP1 POP SWAP2 SWAP1 POP JUMP JUMPDEST PUSH1 0x0 DUP2 MLOAD SWAP1 POP SWAP2 SWAP1 POP JUMP JUMPDEST PUSH1 0x0 PUSH1 0x20 DUP3 ADD SWAP1 POP SWAP2 SWAP1 POP JUMP JUMPDEST PUSH1 0x0 DUP3 DUP3 MSTORE PUSH1 0x20 DUP3 ADD SWAP1 POP SWAP3 SWAP2 POP POP JUMP JUMPDEST PUSH1 0x0 DUP3 DUP3 MSTORE PUSH1 0x20 DUP3 ADD SWAP1 POP SWAP3 SWAP2 POP POP JUMP JUMPDEST PUSH1 0x0 DUP3 DUP3 MSTORE PUSH1 0x20 DUP3 ADD SWAP1 POP SWAP3 SWAP2 POP POP JUMP JUMPDEST PUSH1 0x0 DUP2 SWAP1 POP SWAP3 SWAP2 POP POP JUMP JUMPDEST PUSH1 0x0 PUSH2 0x2150 DUP3 PUSH2 0x220D JUMP JUMPDEST SWAP2 POP PUSH2 0x215B DUP4 PUSH2 0x220D JUMP JUMPDEST SWAP3 POP DUP3 PUSH32 0xFFFFFFFFFFFFFFFFFFFFFFFFFFFFFFFFFFFFFFFFFFFFFFFFFFFFFFFFFFFFFFFF SUB DUP3 GT ISZERO PUSH2 0x2190 JUMPI PUSH2 0x218F PUSH2 0x2305 JUMP JUMPDEST JUMPDEST DUP3 DUP3 ADD SWAP1 POP SWAP3 SWAP2 POP POP JUMP JUMPDEST PUSH1 0x0 PUSH2 0x21A6 DUP3 PUSH2 0x220D JUMP JUMPDEST SWAP2 POP PUSH2 0x21B1 DUP4 PUSH2 0x220D JUMP JUMPDEST SWAP3 POP DUP3 DUP3 LT ISZERO PUSH2 0x21C4 JUMPI PUSH2 0x21C3 PUSH2 0x2305 JUMP JUMPDEST JUMPDEST DUP3 DUP3 SUB SWAP1 POP SWAP3 SWAP2 POP POP JUMP JUMPDEST PUSH1 0x0 PUSH2 0x21DA DUP3 PUSH2 0x21ED JUMP JUMPDEST SWAP1 POP SWAP2 SWAP1 POP JUMP JUMPDEST PUSH1 0x0 DUP2 ISZERO ISZERO SWAP1 POP SWAP2 SWAP1 POP JUMP JUMPDEST PUSH1 0x0 PUSH20 0xFFFFFFFFFFFFFFFFFFFFFFFFFFFFFFFFFFFFFFFF DUP3 AND SWAP1 POP SWAP2 SWAP1 POP JUMP JUMPDEST PUSH1 0x0 DUP2 SWAP1 POP SWAP2 SWAP1 POP JUMP JUMPDEST DUP3 DUP2 DUP4 CALLDATACOPY PUSH1 0x0 DUP4 DUP4 ADD MSTORE POP POP POP JUMP JUMPDEST PUSH1 0x0 JUMPDEST DUP4 DUP2 LT ISZERO PUSH2 0x2244 JUMPI DUP1 DUP3 ADD MLOAD DUP2 DUP5 ADD MSTORE PUSH1 0x20 DUP2 ADD SWAP1 POP PUSH2 0x2229 JUMP JUMPDEST DUP4 DUP2 GT ISZERO PUSH2 0x2253 JUMPI PUSH1 0x0 DUP5 DUP5 ADD MSTORE JUMPDEST POP POP POP POP JUMP JUMPDEST PUSH1 0x0 PUSH1 0x2 DUP3 DIV SWAP1 POP PUSH1 0x1 DUP3 AND DUP1 PUSH2 0x2271 JUMPI PUSH1 0x7F DUP3 AND SWAP2 POP JUMPDEST PUSH1 0x20 DUP3 LT DUP2 EQ ISZERO PUSH2 0x2285 JUMPI PUSH2 0x2284 PUSH2 0x2334 JUMP JUMPDEST JUMPDEST POP SWAP2 SWAP1 POP JUMP JUMPDEST PUSH2 0x2294 DUP3 PUSH2 0x23D5 JUMP JUMPDEST DUP2 ADD DUP2 DUP2 LT PUSH8 0xFFFFFFFFFFFFFFFF DUP3 GT OR ISZERO PUSH2 0x22B3 JUMPI PUSH2 0x22B2 PUSH2 0x2392 JUMP JUMPDEST JUMPDEST DUP1 PUSH1 0x40 MSTORE POP POP POP JUMP JUMPDEST PUSH1 0x0 PUSH2 0x22C7 DUP3 PUSH2 0x220D JUMP JUMPDEST SWAP2 POP PUSH32 0xFFFFFFFFFFFFFFFFFFFFFFFFFFFFFFFFFFFFFFFFFFFFFFFFFFFFFFFFFFFFFFFF DUP3 EQ ISZERO PUSH2 0x22FA JUMPI PUSH2 0x22F9 PUSH2 0x2305 JUMP JUMPDEST JUMPDEST PUSH1 0x1 DUP3 ADD SWAP1 POP SWAP2 SWAP1 POP JUMP JUMPDEST PUSH32 0x4E487B7100000000000000000000000000000000000000000000000000000000 PUSH1 0x0 MSTORE PUSH1 0x11 PUSH1 0x4 MSTORE PUSH1 0x24 PUSH1 0x0 REVERT JUMPDEST PUSH32 0x4E487B7100000000000000000000000000000000000000000000000000000000 PUSH1 0x0 MSTORE PUSH1 0x22 PUSH1 0x4 MSTORE PUSH1 0x24 PUSH1 0x0 REVERT JUMPDEST PUSH32 0x4E487B7100000000000000000000000000000000000000000000000000000000 PUSH1 0x0 MSTORE PUSH1 0x32 PUSH1 0x4 MSTORE PUSH1 0x24 PUSH1 0x0 REVERT JUMPDEST PUSH32 0x4E487B7100000000000000000000000000000000000000000000000000000000 PUSH1 0x0 MSTORE PUSH1 0x41 PUSH1 0x4 MSTORE PUSH1 0x24 PUSH1 0x0 REVERT JUMPDEST PUSH1 0x0 DUP1 REVERT JUMPDEST PUSH1 0x0 DUP1 REVERT JUMPDEST PUSH1 0x0 DUP1 REVERT JUMPDEST PUSH1 0x0 DUP1 REVERT JUMPDEST PUSH1 0x0 PUSH1 0x1F NOT PUSH1 0x1F DUP4 ADD AND SWAP1 POP SWAP2 SWAP1 POP JUMP JUMPDEST PUSH32 0x6572726F723A206E6F74206D6F6E657900000000000000000000000000000000 PUSH1 0x0 DUP3 ADD MSTORE POP JUMP JUMPDEST PUSH32 0x6572726F723A20726174696E672063616E2062652066726F6D203120746F2031 PUSH1 0x0 DUP3 ADD MSTORE PUSH32 0x3000000000000000000000000000000000000000000000000000000000000000 PUSH1 0x20 DUP3 ADD MSTORE POP JUMP JUMPDEST PUSH2 0x2467 DUP2 PUSH2 0x21CF JUMP JUMPDEST DUP2 EQ PUSH2 0x2472 JUMPI PUSH1 0x0 DUP1 REVERT JUMPDEST POP JUMP JUMPDEST PUSH2 0x247E DUP2 PUSH2 0x21E1 JUMP JUMPDEST DUP2 EQ PUSH2 0x2489 JUMPI PUSH1 0x0 DUP1 REVERT JUMPDEST POP JUMP JUMPDEST PUSH2 0x2495 DUP2 PUSH2 0x220D JUMP JUMPDEST DUP2 EQ PUSH2 0x24A0 JUMPI PUSH1 0x0 DUP1 REVERT JUMPDEST POP JUMP INVALID LOG2 PUSH5 0x6970667358 0x22 SLT KECCAK256 0xAC SWAP10 SDIV 0xB8 0x5D 0xBD 0xBF CALLDATALOAD 0x1E 0x4B PUSH1 0x6D 0xAD 0x21 PUSH5 0x941E362441 BLOCKHASH DIFFICULTY DUP6 0x2B 0xB6 0xAB 0xEF 0x5E XOR 0xBD STOP 0xBA PUSH5 0x736F6C6343 STOP ADDMOD SMOD STOP CALLER "
				},
				"gasEstimates": {
					"creation": {
						"codeDepositCost": "1886600",
						"executionCost": "infinite",
						"totalCost": "infinite"
					},
					"external": {
						"MarriageRegistration(uint256,bool)": "infinite",
						"acceptPurchase(uint256,bool)": "infinite",
						"acceptReturn(uint256,bool)": "infinite",
						"addProductShop(string,uint256,string)": "infinite",
						"complaintBooks(string)": "infinite",
						"getProductList()": "infinite",
						"getShopList()": "infinite",
						"leaveFeedback(string,string,uint256)": "infinite",
						"productMarriageRegistration(string)": "infinite",
						"productPurchases(string)": "infinite",
						"productReturn(string)": "infinite",
						"shopLists(string)": "infinite",
						"structMarriageRegistrations(uint256)": "infinite",
						"structProducts(string)": "infinite",
						"structStatusPurchases(uint256)": "infinite",
						"structStatusReturns(uint256)": "infinite",
						"structUserLogins(string)": "infinite",
						"structUsers(address)": "infinite"
					}
				},
				"methodIdentifiers": {
					"MarriageRegistration(uint256,bool)": "f69483c1",
					"acceptPurchase(uint256,bool)": "0c72b1ec",
					"acceptReturn(uint256,bool)": "2ccdef7c",
					"addProductShop(string,uint256,string)": "6c05dd1d",
					"complaintBooks(string)": "fc675c6c",
					"getProductList()": "34d2c0ad",
					"getShopList()": "c178b9af",
					"leaveFeedback(string,string,uint256)": "cc21c188",
					"productMarriageRegistration(string)": "2d4673e3",
					"productPurchases(string)": "146dc6ed",
					"productReturn(string)": "bbd43363",
					"shopLists(string)": "c4957fa0",
					"structMarriageRegistrations(uint256)": "7ddb273d",
					"structProducts(string)": "d68cf8c1",
					"structStatusPurchases(uint256)": "dce39151",
					"structStatusReturns(uint256)": "a9f9482b",
					"structUserLogins(string)": "1bbe970a",
					"structUsers(address)": "961865f0"
				}
			},
			"userdoc": {
				"kind": "user",
				"methods": {},
				"version": 1
			}
		}
	}
}